{
  "_format": "hh-sol-artifact-1",
  "contractName": "TFGovernor",
  "sourceName": "contracts/core/governance_meta/TFGovernor.sol",
  "abi": [
    {
      "inputs": [
        {
          "internalType": "address",
          "name": "_timelock",
          "type": "address"
        },
        {
          "internalType": "address",
          "name": "_multisig",
          "type": "address"
        },
        {
          "internalType": "contract IProtocolToken",
          "name": "_initialToken",
          "type": "address"
        }
      ],
      "stateMutability": "nonpayable",
      "type": "constructor"
    },
    {
      "inputs": [],
      "name": "accrueInflation",
      "outputs": [],
      "stateMutability": "nonpayable",
      "type": "function"
    },
    {
      "inputs": [
        {
          "internalType": "contract IProtocolToken",
          "name": "token",
          "type": "address"
        }
      ],
      "name": "addToken",
      "outputs": [],
      "stateMutability": "nonpayable",
      "type": "function"
    },
    {
      "inputs": [],
      "name": "availableSupply",
      "outputs": [
        {
          "internalType": "uint256",
          "name": "",
          "type": "uint256"
        }
      ],
      "stateMutability": "view",
      "type": "function"
    },
    {
      "inputs": [],
      "name": "currentPeriod",
      "outputs": [
        {
          "internalType": "uint64",
          "name": "period",
          "type": "uint64"
        }
      ],
      "stateMutability": "view",
      "type": "function"
    },
    {
      "inputs": [],
      "name": "dailyProtocolTFIncentiveCount",
      "outputs": [
        {
          "internalType": "uint256",
          "name": "",
          "type": "uint256"
        }
      ],
      "stateMutability": "view",
      "type": "function"
    },
    {
      "inputs": [],
      "name": "deployer",
      "outputs": [
        {
          "internalType": "address",
          "name": "",
          "type": "address"
        }
      ],
      "stateMutability": "view",
      "type": "function"
    },
    {
      "inputs": [
        {
          "internalType": "address",
          "name": "target",
          "type": "address"
        },
        {
          "internalType": "string",
          "name": "signature",
          "type": "string"
        },
        {
          "internalType": "bytes",
          "name": "data",
          "type": "bytes"
        }
      ],
      "name": "execute",
      "outputs": [
        {
          "internalType": "bool",
          "name": "success",
          "type": "bool"
        },
        {
          "internalType": "bytes",
          "name": "returnData",
          "type": "bytes"
        }
      ],
      "stateMutability": "nonpayable",
      "type": "function"
    },
    {
      "inputs": [],
      "name": "firstPeriod",
      "outputs": [
        {
          "internalType": "uint64",
          "name": "",
          "type": "uint64"
        }
      ],
      "stateMutability": "view",
      "type": "function"
    },
    {
      "inputs": [
        {
          "internalType": "uint64",
          "name": "positionNFTTokenID",
          "type": "uint64"
        }
      ],
      "name": "getRewards",
      "outputs": [],
      "stateMutability": "nonpayable",
      "type": "function"
    },
    {
      "inputs": [
        {
          "internalType": "uint16",
          "name": "",
          "type": "uint16"
        }
      ],
      "name": "idToToken",
      "outputs": [
        {
          "internalType": "contract IProtocolToken",
          "name": "",
          "type": "address"
        }
      ],
      "stateMutability": "view",
      "type": "function"
    },
    {
      "inputs": [
        {
          "internalType": "contract IPositionNFT",
          "name": "_tfPositionNFT",
          "type": "address"
        },
        {
          "internalType": "contract TFToken",
          "name": "_tfToken",
          "type": "address"
        }
      ],
      "name": "init",
      "outputs": [],
      "stateMutability": "nonpayable",
      "type": "function"
    },
    {
      "inputs": [],
      "name": "lastPeriodGlobalInflationUpdated",
      "outputs": [
        {
          "internalType": "uint64",
          "name": "",
          "type": "uint64"
        }
      ],
      "stateMutability": "view",
      "type": "function"
    },
    {
      "inputs": [],
      "name": "liquidityIncentiveContract",
      "outputs": [
        {
          "internalType": "address",
          "name": "",
          "type": "address"
        }
      ],
      "stateMutability": "view",
      "type": "function"
    },
    {
      "inputs": [],
      "name": "liquidityIncentivesStartPeriod",
      "outputs": [
        {
          "internalType": "uint64",
          "name": "",
          "type": "uint64"
        }
      ],
      "stateMutability": "view",
      "type": "function"
    },
    {
      "inputs": [
        {
          "internalType": "contract IProtocolToken",
          "name": "token",
          "type": "address"
        },
        {
          "internalType": "uint256",
          "name": "count",
          "type": "uint256"
        },
        {
          "internalType": "uint8",
          "name": "lockDurationMonths",
          "type": "uint8"
        },
        {
          "internalType": "uint8",
          "name": "startDelayMonths",
          "type": "uint8"
        },
        {
          "internalType": "address",
          "name": "to",
          "type": "address"
        }
      ],
      "name": "lockTokens",
      "outputs": [
        {
          "internalType": "uint64",
          "name": "positionNFTTokenID",
          "type": "uint64"
        }
      ],
      "stateMutability": "nonpayable",
      "type": "function"
    },
    {
      "inputs": [
        {
          "internalType": "address",
          "name": "dest",
          "type": "address"
        },
        {
          "internalType": "uint256",
          "name": "count",
          "type": "uint256"
        }
      ],
      "name": "mintIncentive",
      "outputs": [],
      "stateMutability": "nonpayable",
      "type": "function"
    },
    {
      "inputs": [
        {
          "internalType": "address",
          "name": "dest",
          "type": "address"
        },
        {
          "internalType": "uint256",
          "name": "count",
          "type": "uint256"
        }
      ],
      "name": "mintLiquidityIncentive",
      "outputs": [],
      "stateMutability": "nonpayable",
      "type": "function"
    },
    {
      "inputs": [],
      "name": "multisig",
      "outputs": [
        {
          "internalType": "address",
          "name": "",
          "type": "address"
        }
      ],
      "stateMutability": "view",
      "type": "function"
    },
    {
      "inputs": [],
      "name": "periodLength",
      "outputs": [
        {
          "internalType": "uint64",
          "name": "",
          "type": "uint64"
        }
      ],
      "stateMutability": "view",
      "type": "function"
    },
    {
      "inputs": [
        {
          "internalType": "uint64",
          "name": "",
          "type": "uint64"
        }
      ],
      "name": "positions",
      "outputs": [
        {
          "internalType": "uint128",
          "name": "count",
          "type": "uint128"
        },
        {
          "internalType": "uint128",
          "name": "startTotalRewards",
          "type": "uint128"
        },
        {
          "internalType": "uint184",
          "name": "startCumulativeVirtualCount",
          "type": "uint184"
        },
        {
          "internalType": "uint16",
          "name": "lastPeriodUpdated",
          "type": "uint16"
        },
        {
          "internalType": "uint16",
          "name": "rewardStartPeriod",
          "type": "uint16"
        },
        {
          "internalType": "uint16",
          "name": "endPeriod",
          "type": "uint16"
        },
        {
          "internalType": "uint16",
          "name": "tokenID",
          "type": "uint16"
        },
        {
          "internalType": "uint8",
          "name": "durationMonths",
          "type": "uint8"
        }
      ],
      "stateMutability": "view",
      "type": "function"
    },
    {
      "inputs": [
        {
          "internalType": "uint16",
          "name": "",
          "type": "uint16"
        }
      ],
      "name": "rewardsStatus",
      "outputs": [
        {
          "internalType": "uint128",
          "name": "cumulativeVirtualCount",
          "type": "uint128"
        },
        {
          "internalType": "uint128",
          "name": "totalRewards",
          "type": "uint128"
        }
      ],
      "stateMutability": "view",
      "type": "function"
    },
    {
      "inputs": [
        {
          "internalType": "contract IProtocolToken",
          "name": "token",
          "type": "address"
        }
      ],
      "name": "selfDelegate",
      "outputs": [],
      "stateMutability": "nonpayable",
      "type": "function"
    },
    {
      "inputs": [
        {
          "internalType": "address",
          "name": "_contract",
          "type": "address"
        }
      ],
      "name": "setLiquidityIncentiveContract",
      "outputs": [],
      "stateMutability": "nonpayable",
      "type": "function"
    },
    {
      "inputs": [],
      "name": "start",
      "outputs": [],
      "stateMutability": "nonpayable",
      "type": "function"
    },
    {
      "inputs": [],
      "name": "startPeriod",
      "outputs": [
        {
          "internalType": "uint64",
          "name": "",
          "type": "uint64"
        }
      ],
      "stateMutability": "view",
      "type": "function"
    },
    {
      "inputs": [],
      "name": "tfPositionNFT",
      "outputs": [
        {
          "internalType": "contract IPositionNFT",
          "name": "",
          "type": "address"
        }
      ],
      "stateMutability": "view",
      "type": "function"
    },
    {
      "inputs": [],
      "name": "tfToken",
      "outputs": [
        {
          "internalType": "contract TFToken",
          "name": "",
          "type": "address"
        }
      ],
      "stateMutability": "view",
      "type": "function"
    },
    {
      "inputs": [],
      "name": "timelock",
      "outputs": [
        {
          "internalType": "address",
          "name": "",
          "type": "address"
        }
      ],
      "stateMutability": "view",
      "type": "function"
    },
    {
      "inputs": [
        {
          "internalType": "contract IProtocolToken",
          "name": "",
          "type": "address"
        }
      ],
      "name": "tokenID",
      "outputs": [
        {
          "internalType": "uint16",
          "name": "",
          "type": "uint16"
        }
      ],
      "stateMutability": "view",
      "type": "function"
    },
    {
      "inputs": [],
      "name": "totalLiquidityIncentivesMinted",
      "outputs": [
        {
          "internalType": "uint256",
          "name": "",
          "type": "uint256"
        }
      ],
      "stateMutability": "view",
      "type": "function"
    },
    {
      "inputs": [
        {
          "internalType": "uint64",
          "name": "positionNFTTokenID",
          "type": "uint64"
        }
      ],
      "name": "unlockTokens",
      "outputs": [],
      "stateMutability": "nonpayable",
      "type": "function"
    },
    {
      "inputs": [
        {
          "internalType": "uint16",
          "name": "",
          "type": "uint16"
        }
      ],
      "name": "virtualCount",
      "outputs": [
        {
          "internalType": "uint256",
          "name": "",
          "type": "uint256"
        }
      ],
      "stateMutability": "view",
      "type": "function"
    }
  ],
  "bytecode": "0x60e06040526001600360146101000a81548167ffffffffffffffff021916908367ffffffffffffffff1602179055503480156200003c5760006000fd5b506040516200480a3803806200480a83398181016040526060811015620000635760006000fd5b810190808051906020019092919080519060200190929190805190602001909291905050505b5b620151805b60018167ffffffffffffffff16620000ac620001ec60201b60201c565b67ffffffffffffffff16811515620000c057fe5b040367ffffffffffffffff1660a08167ffffffffffffffff1660c01b815260080150508067ffffffffffffffff1660808167ffffffffffffffff1660c01b815260080150505b50600160006000508190909055505b33600a60006101000a81548173ffffffffffffffffffffffffffffffffffffffff021916908373ffffffffffffffffffffffffffffffffffffffff1602179055508273ffffffffffffffffffffffffffffffffffffffff1660c08173ffffffffffffffffffffffffffffffffffffffff1660601b8152601401505081600b60006101000a81548173ffffffffffffffffffffffffffffffffffffffff021916908373ffffffffffffffffffffffffffffffffffffffff160217905550620001e2816200020e60201b60201c565b5b505050620003c0565b600062000206426200034b60201b62002c5617909060201c565b905080505b90565b61ffff61ffff16600660009054906101000a900461ffff1661ffff16101515620002385760006000fd5b6006600081819054906101000a900461ffff168092919060010191906101000a81548161ffff021916908361ffff160217905550508060086000506000600660009054906101000a900461ffff1661ffff1661ffff16815260200190815260200160002060006101000a81548173ffffffffffffffffffffffffffffffffffffffff021916908373ffffffffffffffffffffffffffffffffffffffff160217905550600660009054906101000a900461ffff16600760005060008373ffffffffffffffffffffffffffffffffffffffff1673ffffffffffffffffffffffffffffffffffffffff16815260200190815260200160002060006101000a81548161ffff021916908361ffff1602179055505b50565b60006801000000000000000082101515620003b2576040517f08c379a0000000000000000000000000000000000000000000000000000000008152600401808060200182810382526026815260200180620047e46026913960400191505060405180910390fd5b819050620003bb565b919050565b60805160c01c60a05160c01c60c05160601c6143df6200040560003980611ac7528061276b5250806127235280612f5c5250806127475280612f7d52506143df6000f3fe60806040523480156100115760006000fd5b50600436106101f55760003560e01c80639d8e090111610110578063d5f39488116100a3578063f09a401611610072578063f09a401614610a9c578063f421ec9b14610b01578063f855c5e214610b46578063f9f7e31d14610ba3576101f5565b8063d5f39488146109e4578063d6c2875d14610a18578063e4aa199914610a40578063e6e3643c14610a74576101f5565b8063c4e3a63b116100df578063c4e3a63b1461091b578063d2ca211514610943578063d33219b41461096b578063d48bfca71461099f576101f5565b80639d8e090114610847578063a382c4bf146108a4578063b551a00d146108d8578063be9a655514610911576101f5565b806333daf5d41161018857806360f3ce041161015757806360f3ce04146106cf578063797250e41461079d5780637ecc2b56146107e457806382b5e88914610802576101f5565b806333daf5d4146103d65780634306ef4f146105da5780634783c35b1461064c5780634cd7a31514610680576101f5565b80630e52d7c6116101c45780630e52d7c614610284578063160c634b146102d3578063239908971461037a57806330bfb9bb146103ae576101f5565b8063020ac54a146101fb57806305f578af1461020557806306040618146102235780630a889a8b1461024b576101f5565b60006000fd5b610203610bc1565b005b61020d610c6e565b6040518082815260200191505060405180910390f35b61022b610c77565b604051808267ffffffffffffffff16815260200191505060405180910390f35b610282600480360360208110156102625760006000fd5b81019080803567ffffffffffffffff169060200190929190505050610c8f565b005b6102d16004803603604081101561029b5760006000fd5b81019080803573ffffffffffffffffffffffffffffffffffffffff169060200190929190803590602001909291905050506111df565b005b61035a600480360360a08110156102ea5760006000fd5b81019080803573ffffffffffffffffffffffffffffffffffffffff16906020019092919080359060200190929190803560ff169060200190929190803560ff169060200190929190803573ffffffffffffffffffffffffffffffffffffffff169060200190929190505050611402565b604051808267ffffffffffffffff16815260200191505060405180910390f35b6103826119f0565b604051808273ffffffffffffffffffffffffffffffffffffffff16815260200191505060405180910390f35b6103b6611a16565b604051808267ffffffffffffffff16815260200191505060405180910390f35b610555600480360360608110156103ed5760006000fd5b81019080803573ffffffffffffffffffffffffffffffffffffffff1690602001909291908035906020019064010000000081111561042b5760006000fd5b82018360208201111561043e5760006000fd5b803590602001918460018302840111640100000000831117156104615760006000fd5b91908080601f016020809104026020016040519081016040528093929190818152602001838380828437600081840152601f19601f82011690508083019250505050505050909091929090919290803590602001906401000000008111156104c95760006000fd5b8201836020820111156104dc5760006000fd5b803590602001918460018302840111640100000000831117156104ff5760006000fd5b91908080601f016020809104026020016040519081016040528093929190818152602001838380828437600081840152601f19601f82011690508083019250505050505050909091929090919290505050611a30565b60405180831515815260200180602001828103825283818151815260200191508051906020019080838360005b8381101561059e5780820151818401525b602081019050610582565b50505050905090810190601f1680156105cb5780820380516001836020036101000a031916815260200191505b50935050505060405180910390f35b61060b600480360360208110156105f15760006000fd5b81019080803561ffff169060200190929190505050611d42565b60405180836fffffffffffffffffffffffffffffffff168152602001826fffffffffffffffffffffffffffffffff1681526020019250505060405180910390f35b610654611da1565b604051808273ffffffffffffffffffffffffffffffffffffffff16815260200191505060405180910390f35b6106cd600480360360408110156106975760006000fd5b81019080803573ffffffffffffffffffffffffffffffffffffffff16906020019092919080359060200190929190505050611dc7565b005b610706600480360360208110156106e65760006000fd5b81019080803567ffffffffffffffff169060200190929190505050612068565b60405180896fffffffffffffffffffffffffffffffff168152602001886fffffffffffffffffffffffffffffffff1681526020018776ffffffffffffffffffffffffffffffffffffffffffffff1681526020018661ffff1681526020018561ffff1681526020018461ffff1681526020018361ffff1681526020018260ff1681526020019850505050505050505060405180910390f35b6107ce600480360360208110156107b45760006000fd5b81019080803561ffff169060200190929190505050612153565b6040518082815260200191505060405180910390f35b6107ec61216e565b6040518082815260200191505060405180910390f35b610845600480360360208110156108195760006000fd5b81019080803573ffffffffffffffffffffffffffffffffffffffff169060200190929190505050612207565b005b6108786004803603602081101561085e5760006000fd5b81019080803561ffff169060200190929190505050612390565b604051808273ffffffffffffffffffffffffffffffffffffffff16815260200191505060405180910390f35b6108ac6123c8565b604051808273ffffffffffffffffffffffffffffffffffffffff16815260200191505060405180910390f35b61090f600480360360208110156108ef5760006000fd5b81019080803567ffffffffffffffff1690602001909291905050506123ee565b005b610919612639565b005b610923612721565b604051808267ffffffffffffffff16815260200191505060405180910390f35b61094b612745565b604051808267ffffffffffffffff16815260200191505060405180910390f35b610973612769565b604051808273ffffffffffffffffffffffffffffffffffffffff16815260200191505060405180910390f35b6109e2600480360360208110156109b65760006000fd5b81019080803573ffffffffffffffffffffffffffffffffffffffff16906020019092919050505061278d565b005b6109ec6127de565b604051808273ffffffffffffffffffffffffffffffffffffffff16815260200191505060405180910390f35b610a20612804565b604051808267ffffffffffffffff16815260200191505060405180910390f35b610a4861281e565b604051808273ffffffffffffffffffffffffffffffffffffffff16815260200191505060405180910390f35b610a7c612844565b604051808267ffffffffffffffff16815260200191505060405180910390f35b610aff60048036036040811015610ab35760006000fd5b81019080803573ffffffffffffffffffffffffffffffffffffffff169060200190929190803573ffffffffffffffffffffffffffffffffffffffff16906020019092919050505061285e565b005b610b4460048036036020811015610b185760006000fd5b81019080803573ffffffffffffffffffffffffffffffffffffffff169060200190929190505050612969565b005b610b8960048036036020811015610b5d5760006000fd5b81019080803573ffffffffffffffffffffffffffffffffffffffff169060200190929190505050612b71565b604051808261ffff16815260200191505060405180910390f35b610bab612b97565b6040518082815260200191505060405180910390f35b600260006000505414151515610c42576040517f08c379a000000000000000000000000000000000000000000000000000000000815260040180806020018281038252601f8152602001807f5265656e7472616e637947756172643a207265656e7472616e742063616c6c0081526020015060200191505060405180910390fd5b60026000600050819090905550610c5d612cc863ffffffff16565b5b600160006000508190909055505b565b600d6000505481565b6000610c87612f5863ffffffff16565b905080505b90565b600260006000505414151515610d10576040517f08c379a000000000000000000000000000000000000000000000000000000000815260040180806020018281038252601f8152602001807f5265656e7472616e637947756172643a207265656e7472616e742063616c6c0081526020015060200191505060405180910390fd5b600260006000508190909055506000339050610e09600360009054906101000a900473ffffffffffffffffffffffffffffffffffffffff1673ffffffffffffffffffffffffffffffffffffffff1663430c208183856040518363ffffffff1660e01b8152600401808373ffffffffffffffffffffffffffffffffffffffff1681526020018267ffffffffffffffff1681526020019250505060206040518083038186803b158015610dc15760006000fd5b505afa158015610dd6573d600060003e3d6000fd5b505050506040513d6020811015610ded5760006000fd5b8101908080519060200190929190505050612fd163ffffffff16565b6000610e1a8361304d63ffffffff16565b9050610e2a612f5863ffffffff16565b67ffffffffffffffff168160a0015167ffffffffffffffff1611151515610ebc576040517f08c379a000000000000000000000000000000000000000000000000000000000815260040180806020018281038252600c8152602001807f5374696c6c206c6f636b6564000000000000000000000000000000000000000081526020015060200191505060405180910390fd5b610f0b610ed782600001518360c0015161330563ffffffff16565b600560005060008460e0015161ffff1661ffff1681526020019081526020016000206000505461333490919063ffffffff16565b600560005060008360e0015161ffff1661ffff168152602001908152602001600020600050819090905550600960005060008467ffffffffffffffff1667ffffffffffffffff16815260200190815260200160002060006000820160006101000a8154906fffffffffffffffffffffffffffffffff02191690556000820160106101000a8154906fffffffffffffffffffffffffffffffff02191690556001820160006101000a81549076ffffffffffffffffffffffffffffffffffffffffffffff02191690556001820160176101000a81549061ffff02191690556001820160196101000a81549061ffff021916905560018201601b6101000a81549061ffff021916905560018201601d6101000a81549061ffff021916905560018201601f6101000a81549060ff02191690555050600360009054906101000a900473ffffffffffffffffffffffffffffffffffffffff1673ffffffffffffffffffffffffffffffffffffffff16639dbead42846040518263ffffffff1660e01b8152600401808267ffffffffffffffff168152602001915050600060405180830381600087803b1580156110bc5760006000fd5b505af11580156110d1573d600060003e3d6000fd5b50505050600860005060008260e0015161ffff1661ffff16815260200190815260200160002060009054906101000a900473ffffffffffffffffffffffffffffffffffffffff1673ffffffffffffffffffffffffffffffffffffffff1663a9059cbb8383600001516040518363ffffffff1660e01b8152600401808373ffffffffffffffffffffffffffffffffffffffff16815260200182815260200192505050602060405180830381600087803b15801561118d5760006000fd5b505af11580156111a2573d600060003e3d6000fd5b505050506040513d60208110156111b95760006000fd5b81019080805190602001909291905050505050505b600160006000508190909055505b50565b61123e600160009054906101000a900473ffffffffffffffffffffffffffffffffffffffff1673ffffffffffffffffffffffffffffffffffffffff163373ffffffffffffffffffffffffffffffffffffffff1614612fd163ffffffff16565b600061125882600d600050546133bd90919063ffffffff16565b905060006112c569021e19e0c9bab24000006112ad600c60009054906101000a900467ffffffffffffffff166001611294612f5863ffffffff16565b0167ffffffffffffffff1661344690919063ffffffff16565b67ffffffffffffffff166134e390919063ffffffff16565b9050808211151515611342576040517f08c379a00000000000000000000000000000000000000000000000000000000081526004018080602001828103825260128152602001807f416c6c6f746d656e74206578636565646564000000000000000000000000000081526020015060200191505060405180910390fd5b81600d600050819090905550600260009054906101000a900473ffffffffffffffffffffffffffffffffffffffff1673ffffffffffffffffffffffffffffffffffffffff1663449a52f885856040518363ffffffff1660e01b8152600401808373ffffffffffffffffffffffffffffffffffffffff16815260200182815260200192505050600060405180830381600087803b1580156113e25760006000fd5b505af11580156113f7573d600060003e3d6000fd5b5050505050505b5050565b6000600260006000505414151515611485576040517f08c379a000000000000000000000000000000000000000000000000000000000815260040180806020018281038252601f8152602001807f5265656e7472616e637947756172643a207265656e7472616e742063616c6c0081526020015060200191505060405180910390fd5b600260006000508190909055506000600760005060008873ffffffffffffffffffffffffffffffffffffffff1673ffffffffffffffffffffffffffffffffffffffff16815260200190815260200160002060009054906101000a900461ffff16905060008161ffff16111515611566576040517f08c379a00000000000000000000000000000000000000000000000000000000081526004018080602001828103825260118152602001807f556e737570706f7274656420746f6b656e00000000000000000000000000000081526020015060200191505060405180910390fd5b6000861115156115e1576040517f08c379a00000000000000000000000000000000000000000000000000000000081526004018080602001828103825260048152602001807f4e6f6f700000000000000000000000000000000000000000000000000000000081526020015060200191505060405180910390fd5b8460ff16600667ffffffffffffffff161115801561160d5750603067ffffffffffffffff168560ff1611155b801561163c57506000600667ffffffffffffffff168660ff1681151561162f57fe5b0667ffffffffffffffff16145b15156116b3576040517f08c379a00000000000000000000000000000000000000000000000000000000081526004018080602001828103825260158152602001807f496e76616c6964206c6f636b206475726174696f6e000000000000000000000081526020015060200191505060405180910390fd5b6116c1612cc863ffffffff16565b60006116d28261358163ffffffff16565b905061171a6116ea888860ff1661330563ffffffff16565b600560005060008561ffff1661ffff168152602001908152602001600020600050546133bd90919063ffffffff16565b600560005060008461ffff1661ffff168152602001908152602001600020600050819090905550600360009054906101000a900473ffffffffffffffffffffffffffffffffffffffff1673ffffffffffffffffffffffffffffffffffffffff1663755edd17856040518263ffffffff1660e01b8152600401808273ffffffffffffffffffffffffffffffffffffffff168152602001915050602060405180830381600087803b1580156117cd5760006000fd5b505af11580156117e2573d600060003e3d6000fd5b505050506040513d60208110156117f95760006000fd5b810190808051906020019092919050505092508250600061181e612f5863ffffffff16565b90506118fd846040518061010001604052808b815260200185602001518152602001856000015181526020018467ffffffffffffffff16815260200161188861186f8b60ff166136a263ffffffff16565b8667ffffffffffffffff166136e590919063ffffffff16565b67ffffffffffffffff1681526020016118c56118ac8c60ff166136a263ffffffff16565b8667ffffffffffffffff166136e590919063ffffffff16565b67ffffffffffffffff1681526020018a60ff1667ffffffffffffffff1681526020018661ffff1681526020015061378263ffffffff16565b8873ffffffffffffffffffffffffffffffffffffffff166323b872dd33308b6040518463ffffffff1660e01b8152600401808473ffffffffffffffffffffffffffffffffffffffff1681526020018373ffffffffffffffffffffffffffffffffffffffff1681526020018281526020019350505050602060405180830381600087803b15801561198d5760006000fd5b505af11580156119a2573d600060003e3d6000fd5b505050506040513d60208110156119b95760006000fd5b8101908080519060200190929190505050508393505050506119d9565050505b600160006000508190909055505b95945050505050565b600260009054906101000a900473ffffffffffffffffffffffffffffffffffffffff1681565b600b60149054906101000a900467ffffffffffffffff1681565b60006060600260006000505414151515611ab5576040517f08c379a000000000000000000000000000000000000000000000000000000000815260040180806020018281038252601f8152602001807f5265656e7472616e637947756172643a207265656e7472616e742063616c6c0081526020015060200191505060405180910390fd5b60026000600050819090905550611b1f7f000000000000000000000000000000000000000000000000000000000000000073ffffffffffffffffffffffffffffffffffffffff163373ffffffffffffffffffffffffffffffffffffffff1614612fd163ffffffff16565b8473ffffffffffffffffffffffffffffffffffffffff16611b4585613a7463ffffffff16565b8460405160200180837bffffffffffffffffffffffffffffffffffffffffffffffffffffffff1916815260040182805190602001908083835b602083101515611ba457805182525b602082019150602081019050602083039250611b7e565b6001836020036101000a038019825116818451168082178552505050505050905001925050506040516020818303038152906040526040518082805190602001908083835b602083101515611c0f57805182525b602082019150602081019050602083039250611be9565b6001836020036101000a0380198251168184511680821785525050505050509050019150506000604051808303816000865af19150503d8060008114611c71576040519150601f19603f3d011682016040523d82523d6000602084013e611c76565b606091505b5080925081935050508181901515611d2a576040517f08c379a00000000000000000000000000000000000000000000000000000000081526004018080602001828103825283818151815260200191508051906020019080838360005b83811015611cef5780820151818401525b602081019050611cd3565b50505050905090810190601f168015611d1c5780820380516001836020036101000a031916815260200191505b509250505060405180910390fd5b505b600160006000508190909055505b935093915050565b60046000506020528060005260406000206000915090508060000160009054906101000a90046fffffffffffffffffffffffffffffffff16908060000160109054906101000a90046fffffffffffffffffffffffffffffffff16905082565b600b60009054906101000a900473ffffffffffffffffffffffffffffffffffffffff1681565b611e043073ffffffffffffffffffffffffffffffffffffffff163373ffffffffffffffffffffffffffffffffffffffff1614612fd163ffffffff16565b6032600260009054906101000a900473ffffffffffffffffffffffffffffffffffffffff1673ffffffffffffffffffffffffffffffffffffffff166318160ddd6040518163ffffffff1660e01b815260040160206040518083038186803b158015611e6f5760006000fd5b505afa158015611e84573d600060003e3d6000fd5b505050506040513d6020811015611e9b5760006000fd5b8101908080519060200190929190505050811515611eb557fe5b0481101515611f2f576040517f08c379a00000000000000000000000000000000000000000000000000000000081526004018080602001828103825260168152602001807f4d6f7265207468616e203225206f6620737570706c790000000000000000000081526020015060200191505060405180910390fd5b611f3e82613a8a63ffffffff16565b1515611fb5576040517f08c379a000000000000000000000000000000000000000000000000000000000815260040180806020018281038252600e8152602001807f4e6f74206120636f6e747261637400000000000000000000000000000000000081526020015060200191505060405180910390fd5b600260009054906101000a900473ffffffffffffffffffffffffffffffffffffffff1673ffffffffffffffffffffffffffffffffffffffff1663449a52f883836040518363ffffffff1660e01b8152600401808373ffffffffffffffffffffffffffffffffffffffff16815260200182815260200192505050600060405180830381600087803b1580156120495760006000fd5b505af115801561205e573d600060003e3d6000fd5b505050505b5b5050565b60096000506020528060005260406000206000915090508060000160009054906101000a90046fffffffffffffffffffffffffffffffff16908060000160109054906101000a90046fffffffffffffffffffffffffffffffff16908060010160009054906101000a900476ffffffffffffffffffffffffffffffffffffffffffffff16908060010160179054906101000a900461ffff16908060010160199054906101000a900461ffff169080600101601b9054906101000a900461ffff169080600101601d9054906101000a900461ffff169080600101601f9054906101000a900460ff16905088565b60056000506020528060005260406000206000915090505481565b60006000600b60149054906101000a900467ffffffffffffffff16905060008167ffffffffffffffff1614156121a8576000915050612204565b6121fb69152d02c7e14af68000006121e38360016121ca612f5863ffffffff16565b0167ffffffffffffffff1661344690919063ffffffff16565b67ffffffffffffffff166134e390919063ffffffff16565b91505061220456505b90565b600260006000505414151515612288576040517f08c379a000000000000000000000000000000000000000000000000000000000815260040180806020018281038252601f8152602001807f5265656e7472616e637947756172643a207265656e7472616e742063616c6c0081526020015060200191505060405180910390fd5b600260006000508190909055506122fb6000600760005060008473ffffffffffffffffffffffffffffffffffffffff1673ffffffffffffffffffffffffffffffffffffffff16815260200190815260200160002060009054906101000a900461ffff1661ffff1611612fd163ffffffff16565b8073ffffffffffffffffffffffffffffffffffffffff16635c19a95c306040518263ffffffff1660e01b8152600401808273ffffffffffffffffffffffffffffffffffffffff168152602001915050600060405180830381600087803b1580156123655760006000fd5b505af115801561237a573d600060003e3d6000fd5b505050505b600160006000508190909055505b50565b600860005060205280600052604060002060009150909054906101000a900473ffffffffffffffffffffffffffffffffffffffff1681565b600160009054906101000a900473ffffffffffffffffffffffffffffffffffffffff1681565b60026000600050541415151561246f576040517f08c379a000000000000000000000000000000000000000000000000000000000815260040180806020018281038252601f8152602001807f5265656e7472616e637947756172643a207265656e7472616e742063616c6c0081526020015060200191505060405180910390fd5b60026000600050819090905550612563600360009054906101000a900473ffffffffffffffffffffffffffffffffffffffff1673ffffffffffffffffffffffffffffffffffffffff1663430c208133846040518363ffffffff1660e01b8152600401808373ffffffffffffffffffffffffffffffffffffffff1681526020018267ffffffffffffffff1681526020019250505060206040518083038186803b15801561251b5760006000fd5b505afa158015612530573d600060003e3d6000fd5b505050506040513d60208110156125475760006000fd5b8101908080519060200190929190505050612fd163ffffffff16565b60006125748261304d63ffffffff16565b9050612584612f5863ffffffff16565b67ffffffffffffffff16816080015167ffffffffffffffff1611151515612616576040517f08c379a000000000000000000000000000000000000000000000000000000000815260040180806020018281038252600e8152602001807f52657761726473206c6f636b656400000000000000000000000000000000000081526020015060200191505060405180910390fd5b612626828261378263ffffffff16565b505b600160006000508190909055505b50565b612698600b60009054906101000a900473ffffffffffffffffffffffffffffffffffffffff1673ffffffffffffffffffffffffffffffffffffffff163373ffffffffffffffffffffffffffffffffffffffff1614612fd163ffffffff16565b6000600b60006101000a81548173ffffffffffffffffffffffffffffffffffffffff021916908373ffffffffffffffffffffffffffffffffffffffff1602179055506126e8612cc863ffffffff16565b6126f6612f5863ffffffff16565b600b60146101000a81548167ffffffffffffffff021916908367ffffffffffffffff1602179055505b565b7f000000000000000000000000000000000000000000000000000000000000000081565b7f000000000000000000000000000000000000000000000000000000000000000081565b7f000000000000000000000000000000000000000000000000000000000000000081565b6127ca3073ffffffffffffffffffffffffffffffffffffffff163373ffffffffffffffffffffffffffffffffffffffff1614612fd163ffffffff16565b6127d981613aa463ffffffff16565b5b5b50565b600a60009054906101000a900473ffffffffffffffffffffffffffffffffffffffff1681565b600360149054906101000a900467ffffffffffffffff1681565b600360009054906101000a900473ffffffffffffffffffffffffffffffffffffffff1681565b600c60009054906101000a900467ffffffffffffffff1681565b6128bd600a60009054906101000a900473ffffffffffffffffffffffffffffffffffffffff1673ffffffffffffffffffffffffffffffffffffffff163373ffffffffffffffffffffffffffffffffffffffff1614612fd163ffffffff16565b600a60006101000a81549073ffffffffffffffffffffffffffffffffffffffff021916905581600360006101000a81548173ffffffffffffffffffffffffffffffffffffffff021916908373ffffffffffffffffffffffffffffffffffffffff16021790555080600260006101000a81548173ffffffffffffffffffffffffffffffffffffffff021916908373ffffffffffffffffffffffffffffffffffffffff1602179055505b5050565b6129a63073ffffffffffffffffffffffffffffffffffffffff163373ffffffffffffffffffffffffffffffffffffffff1614612fd163ffffffff16565b600073ffffffffffffffffffffffffffffffffffffffff16600160009054906101000a900473ffffffffffffffffffffffffffffffffffffffff1673ffffffffffffffffffffffffffffffffffffffff16141515612a6f576040517f08c379a00000000000000000000000000000000000000000000000000000000081526004018080602001828103825260148152602001807f436f6e747261637420616c72656164792073657400000000000000000000000081526020015060200191505060405180910390fd5b612a7e81613a8a63ffffffff16565b1515612af5576040517f08c379a000000000000000000000000000000000000000000000000000000000815260040180806020018281038252600e8152602001807f4e6f74206120636f6e747261637400000000000000000000000000000000000081526020015060200191505060405180910390fd5b80600160006101000a81548173ffffffffffffffffffffffffffffffffffffffff021916908373ffffffffffffffffffffffffffffffffffffffff160217905550612b44612f5863ffffffff16565b600c60006101000a81548167ffffffffffffffff021916908367ffffffffffffffff1602179055505b5b50565b600760005060205280600052604060002060009150909054906101000a900461ffff1681565b60006000600b60149054906101000a900467ffffffffffffffff1667ffffffffffffffff161415612bcb5760009050612c53565b600073ffffffffffffffffffffffffffffffffffffffff16600160009054906101000a900473ffffffffffffffffffffffffffffffffffffffff1673ffffffffffffffffffffffffffffffffffffffff16141515612c415769021e19e0c9bab240000069152d02c7e14af6800000039050612c53565b69152d02c7e14af68000009050612c53565b90565b60006801000000000000000082101515612cbb576040517f08c379a00000000000000000000000000000000000000000000000000000000081526004018080602001828103825260268152602001806143846026913960400191505060405180910390fd5b819050612cc3565b919050565b6000612cd8612f5863ffffffff16565b9050600360149054906101000a900467ffffffffffffffff1667ffffffffffffffff168167ffffffffffffffff16111515612d135750612f56565b6000600360149054906101000a900467ffffffffffffffff16820390506000600660009054906101000a900461ffff1661ffff169050600081612d768467ffffffffffffffff16612d68612b9763ffffffff16565b6134e390919063ffffffff16565b811515612d7f57fe5b049050612d8a614259565b6000600190505b838161ffff16111515612f2657612dad8161358163ffffffff16565b915081506040518060400160405280612e20612e13612e008967ffffffffffffffff16600560005060008861ffff1661ffff168152602001908152602001600020600050546134e390919063ffffffff16565b86600001516133bd90919063ffffffff16565b613be0909063ffffffff16565b6fffffffffffffffffffffffffffffffff168152602001612e5e612e518686602001516133bd90919063ffffffff16565b613be0909063ffffffff16565b6fffffffffffffffffffffffffffffffff16815260200150600460005060008361ffff1661ffff16815260200190815260200160002060005060008201518160000160006101000a8154816fffffffffffffffffffffffffffffffff02191690836fffffffffffffffffffffffffffffffff16021790555060208201518160000160106101000a8154816fffffffffffffffffffffffffffffffff02191690836fffffffffffffffffffffffffffffffff1602179055509050505b8080600101915050612d91565b5084600360146101000a81548167ffffffffffffffff021916908367ffffffffffffffff16021790555050505050505b565b60007f00000000000000000000000000000000000000000000000000000000000000007f000000000000000000000000000000000000000000000000000000000000000067ffffffffffffffff16612fb4613c5a63ffffffff16565b67ffffffffffffffff16811515612fc757fe5b0403905080505b90565b801515613049576040517f08c379a000000000000000000000000000000000000000000000000000000000815260040180806020018281038252600e8152602001807f4e6f7420417574686f72697a656400000000000000000000000000000000000081526020015060200191505060405180910390fd5b5b50565b613055614276565b61306482613c7563ffffffff16565b90508050600081600001511115156130e7576040517f08c379a000000000000000000000000000000000000000000000000000000000815260040180806020018281038252600c8152602001807f506f736974696f6e20444e45000000000000000000000000000000000000000081526020015060200191505060405180910390fd5b6130f5612cc863ffffffff16565b600360149054906101000a900467ffffffffffffffff1667ffffffffffffffff16816060015167ffffffffffffffff1610151561313457809050613300565b60006131498260e0015161358163ffffffff16565b905060008260600151600360149054906101000a900467ffffffffffffffff160367ffffffffffffffff1661318f8460400151846000015161333490919063ffffffff16565b81151561319857fe5b04905060006131e36131bb8560200151856020015161333490919063ffffffff16565b836131d487600001518860c0015161330563ffffffff16565b613f309092919063ffffffff16565b9050600081111561329c57600260009054906101000a900473ffffffffffffffffffffffffffffffffffffffff1673ffffffffffffffffffffffffffffffffffffffff1663449a52f833836040518363ffffffff1660e01b8152600401808373ffffffffffffffffffffffffffffffffffffffff16815260200182815260200192505050600060405180830381600087803b1580156132825760006000fd5b505af1158015613297573d600060003e3d6000fd5b505050505b82602001518460200190908181526020015050826000015184604001909081815260200150506132d0612f5863ffffffff16565b846060019067ffffffffffffffff16908167ffffffffffffffff1681526020015050839350505050613300565050505b919050565b60006133278267ffffffffffffffff16600c85613f309092919063ffffffff16565b905061332e565b92915050565b600082828403915081111515156133b6576040517f08c379a000000000000000000000000000000000000000000000000000000000815260040180806020018281038252600d8152602001807f7375622d756e646572666c6f770000000000000000000000000000000000000081526020015060200191505060405180910390fd5b5b92915050565b6000828284019150811015151561343f576040517f08c379a000000000000000000000000000000000000000000000000000000000815260040180806020018281038252600c8152602001807f6164642d6f766572666c6f77000000000000000000000000000000000000000081526020015060200191505060405180910390fd5b5b92915050565b60008267ffffffffffffffff1682840391508167ffffffffffffffff16111515156134dc576040517f08c379a000000000000000000000000000000000000000000000000000000000815260040180806020018281038252600d8152602001807f7375622d756e646572666c6f770000000000000000000000000000000000000081526020015060200191505060405180910390fd5b5b92915050565b600060008214806135035750828283850292508281151561350057fe5b04145b151561357a576040517f08c379a000000000000000000000000000000000000000000000000000000000815260040180806020018281038252600c8152602001807f6d756c2d6f766572666c6f77000000000000000000000000000000000000000081526020015060200191505060405180910390fd5b5b92915050565b613589614259565b6000600460005060008461ffff1661ffff1681526020019081526020016000206000506040518060400160405290816000820160009054906101000a90046fffffffffffffffffffffffffffffffff166fffffffffffffffffffffffffffffffff166fffffffffffffffffffffffffffffffff1681526020016000820160109054906101000a90046fffffffffffffffffffffffffffffffff166fffffffffffffffffffffffffffffffff166fffffffffffffffffffffffffffffffff16815260200150509050604051806040016040528082600001516fffffffffffffffffffffffffffffffff16815260200182602001516fffffffffffffffffffffffffffffffff1681526020015091505061369d56505b919050565b6000600c6136c561016d8467ffffffffffffffff1661403190919063ffffffff16565b67ffffffffffffffff168115156136d857fe5b0490506136e0565b919050565b60008267ffffffffffffffff1682840191508167ffffffffffffffff161015151561377b576040517f08c379a000000000000000000000000000000000000000000000000000000000815260040180806020018281038252600c8152602001807f6164642d6f766572666c6f77000000000000000000000000000000000000000081526020015060200191505060405180910390fd5b5b92915050565b6040518061010001604052806137a38360000151613be0909063ffffffff16565b6fffffffffffffffffffffffffffffffff1681526020016137cf8360200151613be0909063ffffffff16565b6fffffffffffffffffffffffffffffffff1681526020016137fb8360400151614101909063ffffffff16565b76ffffffffffffffffffffffffffffffffffffffffffffff168152602001613838836060015167ffffffffffffffff16614182909063ffffffff16565b61ffff168152602001613860836080015167ffffffffffffffff16614182909063ffffffff16565b61ffff1681526020016138888360a0015167ffffffffffffffff16614182909063ffffffff16565b61ffff1681526020018260e0015161ffff1681526020016138be8360c0015167ffffffffffffffff166141ee909063ffffffff16565b60ff16815260200150600960005060008467ffffffffffffffff1667ffffffffffffffff16815260200190815260200160002060005060008201518160000160006101000a8154816fffffffffffffffffffffffffffffffff02191690836fffffffffffffffffffffffffffffffff16021790555060208201518160000160106101000a8154816fffffffffffffffffffffffffffffffff02191690836fffffffffffffffffffffffffffffffff16021790555060408201518160010160006101000a81548176ffffffffffffffffffffffffffffffffffffffffffffff021916908376ffffffffffffffffffffffffffffffffffffffffffffff16021790555060608201518160010160176101000a81548161ffff021916908361ffff16021790555060808201518160010160196101000a81548161ffff021916908361ffff16021790555060a082015181600101601b6101000a81548161ffff021916908361ffff16021790555060c082015181600101601d6101000a81548161ffff021916908361ffff16021790555060e082015181600101601f6101000a81548160ff021916908360ff1602179055509050505b5050565b600081805190602001209050613a85565b919050565b60006000823b905060008111915050613a9f56505b919050565b61ffff61ffff16600660009054906101000a900461ffff1661ffff16101515613acd5760006000fd5b6006600081819054906101000a900461ffff168092919060010191906101000a81548161ffff021916908361ffff160217905550508060086000506000600660009054906101000a900461ffff1661ffff1661ffff16815260200190815260200160002060006101000a81548173ffffffffffffffffffffffffffffffffffffffff021916908373ffffffffffffffffffffffffffffffffffffffff160217905550600660009054906101000a900461ffff16600760005060008373ffffffffffffffffffffffffffffffffffffffff1673ffffffffffffffffffffffffffffffffffffffff16815260200190815260200160002060006101000a81548161ffff021916908361ffff1602179055505b50565b600070010000000000000000000000000000000082101515613c4d576040517f08c379a00000000000000000000000000000000000000000000000000000000081526004018080602001828103825260278152602001806143366027913960400191505060405180910390fd5b819050613c55565b919050565b6000613c6d42612c56909063ffffffff16565b905080505b90565b613c7d614276565b6000600960005060008467ffffffffffffffff1667ffffffffffffffff168152602001908152602001600020600050604051806101000160405290816000820160009054906101000a90046fffffffffffffffffffffffffffffffff166fffffffffffffffffffffffffffffffff166fffffffffffffffffffffffffffffffff1681526020016000820160109054906101000a90046fffffffffffffffffffffffffffffffff166fffffffffffffffffffffffffffffffff166fffffffffffffffffffffffffffffffff1681526020016001820160009054906101000a900476ffffffffffffffffffffffffffffffffffffffffffffff1676ffffffffffffffffffffffffffffffffffffffffffffff1676ffffffffffffffffffffffffffffffffffffffffffffff1681526020016001820160179054906101000a900461ffff1661ffff1661ffff1681526020016001820160199054906101000a900461ffff1661ffff1661ffff16815260200160018201601b9054906101000a900461ffff1661ffff1661ffff16815260200160018201601d9054906101000a900461ffff1661ffff1661ffff16815260200160018201601f9054906101000a900460ff1660ff1660ff1681526020015050905060405180610100016040528082600001516fffffffffffffffffffffffffffffffff16815260200182602001516fffffffffffffffffffffffffffffffff168152602001826040015176ffffffffffffffffffffffffffffffffffffffffffffff168152602001826060015161ffff1667ffffffffffffffff168152602001826080015161ffff1667ffffffffffffffff1681526020018260a0015161ffff1667ffffffffffffffff1681526020018260e0015160ff1667ffffffffffffffff1681526020018260c0015161ffff16815260200150915050613f2b56505b919050565b6000600060006000198587098587029250828110838203039150506000811415613f7357600084111515613f645760006000fd5b8382049250829250505061402a565b8084111515613f825760006000fd5b600084868809905082811182039150808303925060008586600003169050808604955080840493506001818260000304019050808302841793508350600060028760030218905080870260020381029050805080870260020381029050805080870260020381029050805080870260020381029050805080870260020381029050805080870260020381029050805080850295508550859550505050505061402a5650505050505b9392505050565b600060008267ffffffffffffffff16148061408357508267ffffffffffffffff168267ffffffffffffffff1683850292508267ffffffffffffffff1681151561407657fe5b0467ffffffffffffffff16145b15156140fa576040517f08c379a000000000000000000000000000000000000000000000000000000000815260040180806020018281038252600c8152602001807f6d756c2d6f766572666c6f77000000000000000000000000000000000000000081526020015060200191505060405180910390fd5b5b92915050565b60007701000000000000000000000000000000000000000000000082101515614175576040517f08c379a000000000000000000000000000000000000000000000000000000000815260040180806020018281038252602781526020018061435d6027913960400191505060405180910390fd5b81905061417d565b919050565b600062010000821015156141e1576040517f08c379a00000000000000000000000000000000000000000000000000000000081526004018080602001828103825260268152602001806142eb6026913960400191505060405180910390fd5b8190506141e9565b919050565b60006101008210151561424c576040517f08c379a00000000000000000000000000000000000000000000000000000000081526004018080602001828103825260258152602001806143116025913960400191505060405180910390fd5b819050614254565b919050565b604051806040016040528060008152602001600081526020015090565b604051806101000160405280600081526020016000815260200160008152602001600067ffffffffffffffff168152602001600067ffffffffffffffff168152602001600067ffffffffffffffff168152602001600067ffffffffffffffff168152602001600061ffff168152602001509056fe53616665436173743a2076616c756520646f65736e27742066697420696e203136206269747353616665436173743a2076616c756520646f65736e27742066697420696e2038206269747353616665436173743a2076616c756520646f65736e27742066697420696e20313238206269747353616665436173743a2076616c756520646f65736e27742066697420696e20313834206269747353616665436173743a2076616c756520646f65736e27742066697420696e2036342062697473a2646970667358221220da4ddd5e2cedfecdc6da4428dd53f677b79c2b9a46684d7e52370d95a6cd1d4c64736f6c6343000706003353616665436173743a2076616c756520646f65736e27742066697420696e2036342062697473",
  "linkReferences": {},
  "deployedLinkReferences": {}
}