{
  "_format": "hh-sol-artifact-1",
  "contractName": "CoinSafeMath",
  "sourceName": "contracts/core/utils/CoinSafeMath.sol",
  "abi": [
    {
      "inputs": [],
      "name": "ONE",
      "outputs": [
        {
          "internalType": "uint256",
          "name": "",
          "type": "uint256"
        }
      ],
      "stateMutability": "view",
      "type": "function"
    }
  ],
  "bytecode": "0x6096610024600b82828239805160001a607314601757fe5b30600052607381538281f3fe730000000000000000000000000000000000000000301460806040526004361060335760003560e01c8063c2ee3a08146038575b600080fd5b603e6054565b6040518082815260200191505060405180910390f35b670de0b6b3a76400008156fea2646970667358221220d1fdb3204bdbb17d7dea3a7732930f6c0c2993e593c9c3873d7839f60095a7c364736f6c63430007040033",
  "linkReferences": {},
  "deployedLinkReferences": {}
}