{
  "_format": "hh-sol-artifact-1",
  "contractName": "NFTDescriptorTest",
  "sourceName": "contracts/uniswap/uniswap-v3-periphery/contracts/test/NFTDescriptorTest.sol",
  "abi": [
    {
      "inputs": [
        {
          "internalType": "address",
          "name": "_address",
          "type": "address"
        }
      ],
      "name": "addressToString",
      "outputs": [
        {
          "internalType": "string",
          "name": "",
          "type": "string"
        }
      ],
      "stateMutability": "pure",
      "type": "function"
    },
    {
      "inputs": [
        {
          "components": [
            {
              "internalType": "address",
              "name": "token1",
              "type": "address"
            },
            {
              "internalType": "address",
              "name": "token0",
              "type": "address"
            },
            {
              "internalType": "string",
              "name": "token0Symbol",
              "type": "string"
            },
            {
              "internalType": "string",
              "name": "token1Symbol",
              "type": "string"
            },
            {
              "internalType": "uint8",
              "name": "token0Decimals",
              "type": "uint8"
            },
            {
              "internalType": "uint8",
              "name": "token1Decimals",
              "type": "uint8"
            },
            {
              "internalType": "bool",
              "name": "flipRatio",
              "type": "bool"
            },
            {
              "internalType": "int24",
              "name": "tickLower",
              "type": "int24"
            },
            {
              "internalType": "int24",
              "name": "tickUpper",
              "type": "int24"
            },
            {
              "internalType": "int24",
              "name": "tickSpacing",
              "type": "int24"
            },
            {
              "internalType": "uint24",
              "name": "fee",
              "type": "uint24"
            },
            {
              "internalType": "uint256",
              "name": "liquidity",
              "type": "uint256"
            },
            {
              "internalType": "address",
              "name": "poolAddress",
              "type": "address"
            }
          ],
          "internalType": "struct NFTDescriptor.ConstructTokenURIParams",
          "name": "params",
          "type": "tuple"
        }
      ],
      "name": "constructTokenURI",
      "outputs": [
        {
          "internalType": "string",
          "name": "",
          "type": "string"
        }
      ],
      "stateMutability": "pure",
      "type": "function"
    },
    {
      "inputs": [
        {
          "internalType": "uint24",
          "name": "fee",
          "type": "uint24"
        }
      ],
      "name": "feeToPercentString",
      "outputs": [
        {
          "internalType": "string",
          "name": "",
          "type": "string"
        }
      ],
      "stateMutability": "pure",
      "type": "function"
    },
    {
      "inputs": [
        {
          "internalType": "uint160",
          "name": "sqrtRatioX96",
          "type": "uint160"
        },
        {
          "internalType": "uint8",
          "name": "token0Decimals",
          "type": "uint8"
        },
        {
          "internalType": "uint8",
          "name": "token1Decimals",
          "type": "uint8"
        }
      ],
      "name": "fixedPointToDecimalString",
      "outputs": [
        {
          "internalType": "string",
          "name": "",
          "type": "string"
        }
      ],
      "stateMutability": "pure",
      "type": "function"
    },
    {
      "inputs": [
        {
          "components": [
            {
              "internalType": "address",
              "name": "token1",
              "type": "address"
            },
            {
              "internalType": "address",
              "name": "token0",
              "type": "address"
            },
            {
              "internalType": "string",
              "name": "token0Symbol",
              "type": "string"
            },
            {
              "internalType": "string",
              "name": "token1Symbol",
              "type": "string"
            },
            {
              "internalType": "uint8",
              "name": "token0Decimals",
              "type": "uint8"
            },
            {
              "internalType": "uint8",
              "name": "token1Decimals",
              "type": "uint8"
            },
            {
              "internalType": "bool",
              "name": "flipRatio",
              "type": "bool"
            },
            {
              "internalType": "int24",
              "name": "tickLower",
              "type": "int24"
            },
            {
              "internalType": "int24",
              "name": "tickUpper",
              "type": "int24"
            },
            {
              "internalType": "int24",
              "name": "tickSpacing",
              "type": "int24"
            },
            {
              "internalType": "uint24",
              "name": "fee",
              "type": "uint24"
            },
            {
              "internalType": "uint256",
              "name": "liquidity",
              "type": "uint256"
            },
            {
              "internalType": "address",
              "name": "poolAddress",
              "type": "address"
            }
          ],
          "internalType": "struct NFTDescriptor.ConstructTokenURIParams",
          "name": "params",
          "type": "tuple"
        }
      ],
      "name": "getGasCostOfConstructTokenURI",
      "outputs": [
        {
          "internalType": "uint256",
          "name": "",
          "type": "uint256"
        }
      ],
      "stateMutability": "view",
      "type": "function"
    },
    {
      "inputs": [
        {
          "internalType": "int24",
          "name": "tick",
          "type": "int24"
        },
        {
          "internalType": "int24",
          "name": "tickSpacing",
          "type": "int24"
        },
        {
          "internalType": "uint8",
          "name": "token0Decimals",
          "type": "uint8"
        },
        {
          "internalType": "uint8",
          "name": "token1Decimals",
          "type": "uint8"
        },
        {
          "internalType": "bool",
          "name": "flipRatio",
          "type": "bool"
        }
      ],
      "name": "tickToDecimalString",
      "outputs": [
        {
          "internalType": "string",
          "name": "",
          "type": "string"
        }
      ],
      "stateMutability": "pure",
      "type": "function"
    }
  ],
  "bytecode": "0x60806040523480156100115760006000fd5b50610017565b612a0e806100266000396000f3fe60806040523480156100115760006000fd5b50600436106100775760003560e01c8063e57f8d8a11610051578063e57f8d8a1461010d578063ea4d3bcd1461013d578063ecc1c7a01461016d57610077565b80635e57966d1461007d5780639288c218146100ad578063d5c0bdd8146100dd57610077565b60006000fd5b610097600480360381019061009291906125ea565b61019d565b6040516100a4919061272a565b60405180910390f35b6100c760048036038101906100c29190612611565b6101ba565b6040516100d4919061272a565b60405180910390f35b6100f760048036038101906100f291906126bf565b6101df565b604051610104919061272a565b60405180910390f35b61012760048036038101906101229190612678565b610200565b60405161013491906127a2565b60405180910390f35b61015760048036038101906101529190612707565b610231565b604051610164919061272a565b60405180910390f35b61018760048036038101906101829190612678565b61024e565b604051610194919061272a565b60405180910390f35b60606101ae8261027463ffffffff16565b90506101b5565b919050565b60606101cf86868686866102ac63ffffffff16565b90506101d6565b95945050505050565b60606101f284848461045863ffffffff16565b90506101f9565b9392505050565b600060005a905061021f83610214906127df565b6107af63ffffffff16565b505a810391505061022c56505b919050565b606061024282610eb063ffffffff16565b9050610249565b919050565b60606102688261025d906127df565b6107af63ffffffff16565b905061026f565b919050565b60606102a060148373ffffffffffffffffffffffffffffffffffffffff166112c590919063ffffffff16565b90506102a7565b919050565b6060848560020b7ffffffffffffffffffffffffffffffffffffffffffffffffffffffffffff2761860020b8115156102e057fe5b050260020b8660020b1415610333576040518060400160405280600381526020017f4d494e0000000000000000000000000000000000000000000000000000000000815260200150905061044f5661044e565b848560020b7ffffffffffffffffffffffffffffffffffffffffffffffffffffffffffff2761860000360020b81151561036857fe5b050260020b8660020b14156103bb576040518060400160405280600381526020017f4d41580000000000000000000000000000000000000000000000000000000000815260200150905061044f5661044d565b60006103cc8761150663ffffffff16565b90508215610433576104168173ffffffffffffffffffffffffffffffffffffffff16780100000000000000000000000000000000000000000000000061199d90919063ffffffff16565b9050805061042b81858761045863ffffffff16565b91505061044f565b61044481868661045863ffffffff16565b91505061044f56505b5b5b95945050505050565b6060600061046d858585611a3363ffffffff16565b9050600061048b828368010000000000000000611b8763ffffffff16565b905060006c010000000000000000000000008310905080156104e5576104dc8272047bf19673df52e37f2410011d100000000000700100000000000000000000000000000000611b8763ffffffff16565b9150815061050f565b61050a82620186a0700100000000000000000000000000000000611b8763ffffffff16565b915081505b600082905060005b60008214151561053f578080600101915050600a8281151561053557fe5b0491508150610517565b60018103905080506000600061055b8684611c8863ffffffff16565b91509150801561056e5782806001019350505b610576612474565b8515610648576105ac6105998560ff16602b60ff16611d2f90919063ffffffff16565b600760ff16611dbc90919063ffffffff16565b816020019060ff16908160ff16815260200150506002816080019060ff16908160ff168152602001505061060060016105f28660ff16602b611d2f90919063ffffffff16565b611dbc90919063ffffffff16565b8160a0019060ff16908160ff168152602001505061062f6001826020015160ff16611d2f90919063ffffffff16565b816040019060ff16908160ff168152602001505061074c565b60098460ff161015156106e05761066c60048560ff16611d2f90919063ffffffff16565b816020019060ff16908160ff16815260200150506005816080019060ff16908160ff16815260200150506106b16001826020015160ff16611d2f90919063ffffffff16565b8160a0019060ff16908160ff16815260200150506004816040019060ff16908160ff168152602001505061074b565b6006816020019060ff16908160ff16815260200150506005816040019060ff16908160ff1681526020015050610736600161072860058760ff16611d2f90919063ffffffff16565b611dbc90919063ffffffff16565b816060019060ff16908160ff16815260200150505b5b828160000190908181526020015050858160c001901515908115158152602001505060008160e001901515908115158152602001505061079181611e5063ffffffff16565b985050505050505050506107a85650505050505050505b9392505050565b606060006107c7836101400151610eb063ffffffff16565b8360c001516107da5783606001516107e0565b83604001515b8460c001516107f35784604001516107f9565b84606001515b6108218660e0015187610120015188608001518960a001518a60c001516102ac63ffffffff16565b61084a87610100015188610120015189608001518a60a001518b60c001516102ac63ffffffff16565b60405160200180807f556e6973776170205633202d2000000000000000000000000000000000000000815260200150600d0186805190602001908083835b6020831015156108ae57805182525b602082019150602081019050602083039250610888565b6001836020036101000a038019825116818451168082178552505050505050905001807f202d20000000000000000000000000000000000000000000000000000000000081526020015060030185805190602001908083835b60208310151561092d57805182525b602082019150602081019050602083039250610907565b6001836020036101000a038019825116818451168082178552505050505050905001807f2f0000000000000000000000000000000000000000000000000000000000000081526020015060010184805190602001908083835b6020831015156109ac57805182525b602082019150602081019050602083039250610986565b6001836020036101000a038019825116818451168082178552505050505050905001807f202d20000000000000000000000000000000000000000000000000000000000081526020015060030183805190602001908083835b602083101515610a2b57805182525b602082019150602081019050602083039250610a05565b6001836020036101000a038019825116818451168082178552505050505050905001807f3c3e00000000000000000000000000000000000000000000000000000000000081526020015060020182805190602001908083835b602083101515610aaa57805182525b602082019150602081019050602083039250610a84565b6001836020036101000a0380198251168184511680821785525050505050509050019550505050505060405160208183030381529060405290506000610afc8461016001516121c6909063ffffffff16565b610b1085610180015161027463ffffffff16565b610b23866020015161027463ffffffff16565b610b36876000015161027463ffffffff16565b604051602001808061293b60599139605901807f5c6e6c69717569646974793a2000000000000000000000000000000000000000815260200150600d0185805190602001908083835b602083101515610ba557805182525b602082019150602081019050602083039250610b7f565b6001836020036101000a038019825116818451168082178552505050505050905001807f5c6e706f6f6c416464726573733a200000000000000000000000000000000000815260200150600f0184805190602001908083835b602083101515610c2457805182525b602082019150602081019050602083039250610bfe565b6001836020036101000a038019825116818451168082178552505050505050905001807f5c6e746f6b656e30416464726573733a2000000000000000000000000000000081526020015060110183805190602001908083835b602083101515610ca357805182525b602082019150602081019050602083039250610c7d565b6001836020036101000a038019825116818451168082178552505050505050905001807f5c6e746f6b656e31416464726573733a2000000000000000000000000000000081526020015060110182805190602001908083835b602083101515610d2257805182525b602082019150602081019050602083039250610cfc565b6001836020036101000a0380198251168184511680821785525050505050509050019450505050506040516020818303038152906040529050818160405160200180807f646174613a6170706c69636174696f6e2f6a736f6e2c7b226e616d65223a2200815260200150601f0183805190602001908083835b602083101515610dc157805182525b602082019150602081019050602083039250610d9b565b6001836020036101000a038019825116818451168082178552505050505050905001807f222c20226465736372697074696f6e223a22000000000000000000000000000081526020015060120182805190602001908083835b602083101515610e4057805182525b602082019150602081019050602083039250610e1a565b6001836020036101000a038019825116818451168082178552505050505050905001807f227d0000000000000000000000000000000000000000000000000000000000008152602001506002019250505060405160208183030381529060405292505050610eab5650505b919050565b606060008262ffffff161415610f00576040518060400160405280600281526020017f302500000000000000000000000000000000000000000000000000000000000081526020015090506112c0565b6000829050600060005b60008362ffffff16141515610f7f5760008160ff161115610f32578080600101915050610f5c565b6000600a8462ffffff16811515610f4557fe5b0662ffffff16141515610f5b5780806001019150505b5b8180600101925050600a8362ffffff16811515610f7557fe5b0492508250610f0a565b610f87612474565b60006005841015156111265760006004610fad8560ff1687611d2f90919063ffffffff16565b1015610fba576001610fbd565b60005b60ff169050610fd960018560ff16611d2f90919063ffffffff16565b610fed600587611d2f90919063ffffffff16565b106110335761102e61100c60018660ff16611d2f90919063ffffffff16565b611020600588611d2f90919063ffffffff16565b611d2f90919063ffffffff16565b611036565b60005b9150815083836080019060ff16908160ff168152602001505061107c600161106e84866080015160ff16611dbc90919063ffffffff16565b611d2f90919063ffffffff16565b8360a0019060ff16908160ff16815260200150506110bd816110af6001866080015160ff16611d2f90919063ffffffff16565b611dbc90919063ffffffff16565b836040019060ff16908160ff168152602001505061110c816110fe6110ef60018860ff16611dbc90919063ffffffff16565b85611dbc90919063ffffffff16565b611dbc90919063ffffffff16565b836020019060ff16908160ff168152602001505050611216565b61113a846005611d2f90919063ffffffff16565b905080506002826080019060ff16908160ff16815260200150506111816001611173846080015160ff1684611dbc90919063ffffffff16565b611d2f90919063ffffffff16565b8260a0019060ff16908160ff16815260200150506111be6111af60028560ff16611dbc90919063ffffffff16565b82611dbc90919063ffffffff16565b826020019060ff16908160ff16815260200150506111ed6002836020015160ff16611d2f90919063ffffffff16565b826040019060ff16908160ff168152602001505060018260c00190151590811515815260200150505b61124661122f8460ff1686611d2f90919063ffffffff16565b600a0a8862ffffff1661199d90919063ffffffff16565b826000019090818152602001505060018260e00190151590811515815260200150506004841161127757600061128c565b61128b600485611d2f90919063ffffffff16565b5b826060019060ff16908160ff16815260200150506112af82611e5063ffffffff16565b955050505050506112c05650505050505b919050565b606060006002836002020167ffffffffffffffff811180156112e75760006000fd5b506040519080825280601f01601f19166020018201604052801561131a5781602001600182028036833780820191505090505b5090507f300000000000000000000000000000000000000000000000000000000000000081600081518110151561134d57fe5b60200101907effffffffffffffffffffffffffffffffffffffffffffffffffffffffffffff1916908160001a9053507f78000000000000000000000000000000000000000000000000000000000000008160018151811015156113ac57fe5b60200101907effffffffffffffffffffffffffffffffffffffffffffffffffffffffffffff1916908160001a90535060006001846002020190505b600181111561147a577f3031323334353637383961626364656600000000000000000000000000000000600f861660108110151561142157fe5b1a60f81b828281518110151561143357fe5b60200101907effffffffffffffffffffffffffffffffffffffffffffffffffffffffffffff1916908160001a905350600485901c945084505b8060019003905080506113e7565b506000841415156114f6576040517f08c379a00000000000000000000000000000000000000000000000000000000081526004018080602001828103825260208152602001807f537472696e67733a20686578206c656e67746820696e73756666696369656e7481526020015060200191505060405180910390fd5b8091505061150056505b92915050565b6000600060008360020b1261151e578260020b611526565b8260020b6000035b90507ffffffffffffffffffffffffffffffffffffffffffffffffffffffffffff2761860000360020b81111515156115c9576040517f08c379a00000000000000000000000000000000000000000000000000000000081526004018080602001828103825260018152602001807f540000000000000000000000000000000000000000000000000000000000000081526020015060200191505060405180910390fd5b600060006001831614156115ee57700100000000000000000000000000000000611600565b6ffffcb933bd6fad37aa2d162d1a5940015b70ffffffffffffffffffffffffffffffffff16905060006002831614151561163e5760806ffff97272373d413259a46990580e213a8202901c905080505b6000600483161415156116675760806ffff2e50f5f656932ef12357cf3c7fdcc8202901c905080505b6000600883161415156116905760806fffe5caca7e10e4e61c3624eaa0941cd08202901c905080505b6000601083161415156116b95760806fffcb9843d60f6159c9db58835c9266448202901c905080505b6000602083161415156116e25760806fff973b41fa98c081472e6896dfb254c08202901c905080505b60006040831614151561170b5760806fff2ea16466c96a3843ec78b326b528618202901c905080505b6000608083161415156117345760806ffe5dee046a99a2a811c461f1969c30538202901c905080505b6000610100831614151561175e5760806ffcbe86c7900a88aedcffc83b479aa3a48202901c905080505b600061020083161415156117885760806ff987a7253ac413176f2b074cf7815e548202901c905080505b600061040083161415156117b25760806ff3392b0822b70005940c7a398e4b70f38202901c905080505b600061080083161415156117dc5760806fe7159475a2c29b7443b29c7fa6e889d98202901c905080505b600061100083161415156118065760806fd097f3bdfd2022b8845ad8f792aa58258202901c905080505b600061200083161415156118305760806fa9f746462d870fdf8a65dc1f90e061e58202901c905080505b6000614000831614151561185a5760806f70d869a156d2a1b890bb3df62baf32f78202901c905080505b600061800083161415156118845760806f31be135f97d08fd981231505542fcfa68202901c905080505b60006201000083161415156118af5760806f09aa508b5b7a84e1c677de54f3e99bc98202901c905080505b60006202000083161415156118d95760806e5d6af8dedb81196699c329225ee6048202901c905080505b60006204000083161415156119025760806d2216e584f5fa1ea926041bedfe988202901c905080505b60006208000083161415156119295760806b048a170391f7dc42444e8fa28202901c905080505b60008460020b131561196657807fffffffffffffffffffffffffffffffffffffffffffffffffffffffffffffffff81151561196057fe5b04905080505b60006401000000008281151561197857fe5b0614611985576001611988565b60005b60ff16602082901c019250825050505b919050565b6000600082111515611a1a576040517f08c379a000000000000000000000000000000000000000000000000000000000815260040180806020018281038252601a8152602001807f536166654d6174683a206469766973696f6e206279207a65726f00000000000081526020015060200191505060405180910390fd5b8183811515611a2557fe5b049050611a2d565b92915050565b60006000611a5e611a538460ff168660ff1661232b90919063ffffffff16565b6123c263ffffffff16565b9050600081118015611a71575060128111155b15611b62578260ff168460ff161115611acc57611ac3611a9b60028361199d90919063ffffffff16565b600a0a8673ffffffffffffffffffffffffffffffffffffffff166123e490919063ffffffff16565b91508150611b10565b611b0b611ae360028361199d90919063ffffffff16565b600a0a8673ffffffffffffffffffffffffffffffffffffffff1661199d90919063ffffffff16565b915081505b6001600282811515611b1e57fe5b061415611b5d57611b58827003298b075b4b6a5240945790619b37fd4a700100000000000000000000000000000000611b8763ffffffff16565b915081505b611b7e565b8473ffffffffffffffffffffffffffffffffffffffff16915081505b505b9392505050565b6000600060006000198587098587029250828110838203039150506000811415611bca57600084111515611bbb5760006000fd5b83820492508292505050611c81565b8084111515611bd95760006000fd5b6000848688099050828111820391508083039250600085866000031690508086049550808404935060018182600003040190508083028417935083506000600287600302189050808702600203810290508050808702600203810290508050808702600203810290508050808702600203810290508050808702600203810290508050808702600203810290508050808502955085508595505050505050611c815650505050505b9392505050565b60006000600060058460ff161115611cbb57611cb66005850360ff16600a0a8661199d90919063ffffffff16565b945084505b60006004600a87811515611ccb57fe5b06119050611ce3600a8761199d90919063ffffffff16565b955085508015611cf65760018601955085505b620186a0861415611d1957600a86811515611d0d57fe5b04955085506001915081505b8582935093505050611d285650505b9250929050565b6000828211151515611dac576040517f08c379a000000000000000000000000000000000000000000000000000000000815260040180806020018281038252601e8152602001807f536166654d6174683a207375627472616374696f6e206f766572666c6f77000081526020015060200191505060405180910390fd5b8183039050611db6565b92915050565b600060008284019050838110151515611e40576040517f08c379a000000000000000000000000000000000000000000000000000000000815260040180806020018281038252601b8152602001807f536166654d6174683a206164646974696f6e206f766572666c6f77000000000081526020015060200191505060405180910390fd5b80915050611e4a56505b92915050565b60606000826020015160ff1667ffffffffffffffff81118015611e735760006000fd5b506040519080825280601f01601f191660200182016040528015611ea65781602001600182028036833780820191505090505b5090508260e0015115611f16577f2500000000000000000000000000000000000000000000000000000000000000816001835103815181101515611ee657fe5b60200101907effffffffffffffffffffffffffffffffffffffffffffffffffffffffffffff1916908160001a9053505b8260c0015115611fdf577f3000000000000000000000000000000000000000000000000000000000000000816000815181101515611f5057fe5b60200101907effffffffffffffffffffffffffffffffffffffffffffffffffffffffffffff1916908160001a9053507f2e00000000000000000000000000000000000000000000000000000000000000816001815181101515611faf57fe5b60200101907effffffffffffffffffffffffffffffffffffffffffffffffffffffffffffff1916908160001a9053505b6000836080015160ff1690505b61200760018560a0015160ff16611dbc90919063ffffffff16565b81101561205e57603060f81b828281518110151561202157fe5b60200101907effffffffffffffffffffffffffffffffffffffffffffffffffffffffffffff1916908160001a9053505b8080600101915050611fec565b505b6000836000015111156121b7576000836060015160ff161180156120915750826060015160ff16836040015160ff16145b15612112577f2e000000000000000000000000000000000000000000000000000000000000008184604001805180919060019003909060ff1660ff1681526020015060ff168151811015156120e257fe5b60200101907effffffffffffffffffffffffffffffffffffffffffffffffffffffffffffff1916908160001a9053505b612136600a846000015181151561212557fe5b066030611dbc90919063ffffffff16565b60f81b8184604001805180919060019003909060ff1660ff1681526020015060ff1681518110151561216457fe5b60200101907effffffffffffffffffffffffffffffffffffffffffffffffffffffffffffff1916908160001a905350600a836000018181518115156121a557fe5b04915090908181526020015050612060565b809150506121c156505b919050565b60606000821415612211576040518060400160405280600181526020017f30000000000000000000000000000000000000000000000000000000000000008152602001509050612326565b600082905060005b600082141515612241578080600101915050600a8281151561223757fe5b0491508150612219565b60008167ffffffffffffffff8111801561225b5760006000fd5b506040519080825280601f01601f19166020018201604052801561228e5781602001600182028036833780820191505090505b509050600060018303905085935083505b60008414151561231657600a848115156122b557fe5b0660300160f81b8282806001900393508151811015156122d157fe5b60200101907effffffffffffffffffffffffffffffffffffffffffffffffffffffffffffff1916908160001a905350600a8481151561230c57fe5b049350835061229f565b8194505050505061232656505050505b919050565b600060008284039050600083121580156123455750838113155b8061235b575060008312801561235a57508381135b5b15156123b2576040517f08c379a00000000000000000000000000000000000000000000000000000000081526004018080602001828103825260248152602001806129b56024913960400191505060405180910390fd5b809150506123bc56505b92915050565b600060008212156123d657816000036123d8565b815b90506123df565b919050565b600060008314156123f8576000905061246e565b6000828402905082848281151561240b57fe5b04141515612464576040517f08c379a00000000000000000000000000000000000000000000000000000000081526004018080602001828103825260218152602001806129946021913960400191505060405180910390fd5b8091505061246e56505b92915050565b60405180610100016040528060008152602001600060ff168152602001600060ff168152602001600060ff168152602001600060ff168152602001600060ff168152602001600015158152602001600015158152602001509056612939565b6000813590506124e281612910565b5b919050565b600081359050801515811415156124ff5760006000fd5b5b919050565b6000813590508060020b8114151561251d5760006000fd5b5b919050565b600082601f8301121515612535578081fd5b813567ffffffffffffffff81111561254957fe5b61257a60207fffffffffffffffffffffffffffffffffffffffffffffffffffffffffffffffe0601f840116016127b4565b81815284602083860101111561258e578283fd5b81602085016020830137826020838301015280925050505b92915050565b60008135905062ffffff8116811415156125c65760006000fd5b5b919050565b60008135905060ff8116811415156125e45760006000fd5b5b919050565b6000602082840312156125fb578081fd5b813561260681612910565b809150505b92915050565b6000600060006000600060a0868803121561262a578081fd5b61263386612505565b945061264160208701612505565b935061264f604087016125cc565b925061265d606087016125cc565b915061266b608087016124e8565b90505b9295509295909350565b600060208284031215612689578081fd5b813567ffffffffffffffff81111561269f578182fd5b80830190506101a081850312156126b4578182fd5b809150505b92915050565b600060006000606084860312156126d4578283fd5b83356126df81612910565b809350506126ef602085016125cc565b91506126fd604085016125cc565b90505b9250925092565b600060208284031215612718578081fd5b612721826125ac565b90505b92915050565b6000602080835283518082850152825b8181101561275a57828187010151604082870101525b828101905061273a565b8181111561276b5783604083870101525b5060407fffffffffffffffffffffffffffffffffffffffffffffffffffffffffffffffe0601f830116850101925050505b92915050565b60006020820190508282525b92915050565b6000604051905081810181811067ffffffffffffffff821117156127d457fe5b80604052505b919050565b60006101a08083360312156127f2578182fd5b6127fb816127b4565b9050612806836124d3565b8152612814602084016124d3565b6020820152604083013567ffffffffffffffff80821115612833578384fd5b61283f36838701612523565b60408401526060850135915080821115612857578384fd5b5061286436828601612523565b606083015250612876608084016125cc565b608082015261288760a084016125cc565b60a082015261289860c084016124e8565b60c08201526128a960e08401612505565b60e08201526101006128bc818501612505565b81830152506101206128cf818501612505565b81830152506101406128e28185016125ac565b81830152506101608084013581830152506101806129018185016124d3565b8183015250809150505b919050565b73ffffffffffffffffffffffffffffffffffffffff8116811415156129355760006000fd5b5b50565bfe526570726573656e74732061206c697175696469747920706f736974696f6e20696e206120556e697377617020563320706f6f6c2e2052656465656d61626c6520666f72206f776564207265736572766520746f6b656e732e536166654d6174683a206d756c7469706c69636174696f6e206f766572666c6f775369676e6564536166654d6174683a207375627472616374696f6e206f766572666c6f77a26469706673582212209e0ba1f9b0ddab48d31af0ebe8658c39346eec779c46722e76a738024d6a79c564736f6c63430007060033",
  "linkReferences": {},
  "deployedLinkReferences": {}
}