{
  "_format": "hh-sol-artifact-1",
  "contractName": "Lend",
  "sourceName": "contracts/core/logic/Lend.sol",
  "abi": [
    {
      "anonymous": false,
      "inputs": [
        {
          "indexed": true,
          "internalType": "address",
          "name": "governor",
          "type": "address"
        }
      ],
      "name": "Initialized",
      "type": "event"
    },
    {
      "anonymous": false,
      "inputs": [
        {
          "indexed": true,
          "internalType": "address",
          "name": "account",
          "type": "address"
        },
        {
          "indexed": false,
          "internalType": "uint256",
          "name": "zhuCount",
          "type": "uint256"
        },
        {
          "indexed": false,
          "internalType": "uint256",
          "name": "lendTokenCount",
          "type": "uint256"
        }
      ],
      "name": "Lend",
      "type": "event"
    },
    {
      "anonymous": false,
      "inputs": [
        {
          "indexed": true,
          "internalType": "address",
          "name": "user",
          "type": "address"
        },
        {
          "indexed": true,
          "internalType": "address",
          "name": "token",
          "type": "address"
        },
        {
          "indexed": false,
          "internalType": "uint256",
          "name": "count",
          "type": "uint256"
        }
      ],
      "name": "MintZhu",
      "type": "event"
    },
    {
      "anonymous": false,
      "inputs": [],
      "name": "OneToOneMintingDisabled",
      "type": "event"
    },
    {
      "anonymous": false,
      "inputs": [
        {
          "indexed": true,
          "internalType": "string",
          "name": "paramName",
          "type": "string"
        },
        {
          "indexed": false,
          "internalType": "uint256",
          "name": "value",
          "type": "uint256"
        }
      ],
      "name": "ParameterUpdated",
      "type": "event"
    },
    {
      "anonymous": false,
      "inputs": [
        {
          "indexed": true,
          "internalType": "string",
          "name": "paramName",
          "type": "string"
        },
        {
          "indexed": true,
          "internalType": "address",
          "name": "value",
          "type": "address"
        }
      ],
      "name": "ParameterUpdatedAddress",
      "type": "event"
    },
    {
      "anonymous": false,
      "inputs": [
        {
          "indexed": true,
          "internalType": "address",
          "name": "user",
          "type": "address"
        },
        {
          "indexed": true,
          "internalType": "address",
          "name": "token",
          "type": "address"
        },
        {
          "indexed": false,
          "internalType": "uint256",
          "name": "count",
          "type": "uint256"
        }
      ],
      "name": "ReturnZhu",
      "type": "event"
    },
    {
      "anonymous": false,
      "inputs": [],
      "name": "Stopped",
      "type": "event"
    },
    {
      "anonymous": false,
      "inputs": [
        {
          "indexed": true,
          "internalType": "address",
          "name": "account",
          "type": "address"
        },
        {
          "indexed": false,
          "internalType": "uint256",
          "name": "zhuCount",
          "type": "uint256"
        },
        {
          "indexed": false,
          "internalType": "uint256",
          "name": "lendTokenCount",
          "type": "uint256"
        }
      ],
      "name": "Unlend",
      "type": "event"
    },
    {
      "inputs": [
        {
          "internalType": "contract IUniswapV3Pool",
          "name": "pool",
          "type": "address"
        }
      ],
      "name": "addReferencePool",
      "outputs": [],
      "stateMutability": "nonpayable",
      "type": "function"
    },
    {
      "inputs": [],
      "name": "completeSetup",
      "outputs": [],
      "stateMutability": "nonpayable",
      "type": "function"
    },
    {
      "inputs": [
        {
          "internalType": "contract IERC20",
          "name": "token",
          "type": "address"
        }
      ],
      "name": "countTokensAvailable",
      "outputs": [
        {
          "internalType": "uint256",
          "name": "",
          "type": "uint256"
        }
      ],
      "stateMutability": "view",
      "type": "function"
    },
    {
      "inputs": [
        {
          "internalType": "contract IERC20",
          "name": "",
          "type": "address"
        }
      ],
      "name": "currentToken",
      "outputs": [
        {
          "internalType": "bool",
          "name": "",
          "type": "bool"
        }
      ],
      "stateMutability": "view",
      "type": "function"
    },
    {
      "inputs": [],
      "name": "deployer",
      "outputs": [
        {
          "internalType": "address",
          "name": "",
          "type": "address"
        }
      ],
      "stateMutability": "view",
      "type": "function"
    },
    {
      "inputs": [],
      "name": "governor",
      "outputs": [
        {
          "internalType": "contract IGovernor",
          "name": "",
          "type": "address"
        }
      ],
      "stateMutability": "view",
      "type": "function"
    },
    {
      "inputs": [
        {
          "internalType": "contract IGovernor",
          "name": "_governor",
          "type": "address"
        }
      ],
      "name": "init",
      "outputs": [],
      "stateMutability": "nonpayable",
      "type": "function"
    },
    {
      "inputs": [
        {
          "internalType": "uint256",
          "name": "zhuCount",
          "type": "uint256"
        }
      ],
      "name": "lend",
      "outputs": [],
      "stateMutability": "nonpayable",
      "type": "function"
    },
    {
      "inputs": [],
      "name": "maxRatioOfTotalDebtAllowedPerBlock",
      "outputs": [
        {
          "internalType": "uint256",
          "name": "",
          "type": "uint256"
        }
      ],
      "stateMutability": "view",
      "type": "function"
    },
    {
      "inputs": [
        {
          "internalType": "contract IERC20",
          "name": "tokenToDeposit",
          "type": "address"
        },
        {
          "internalType": "uint256",
          "name": "zhuToMint",
          "type": "uint256"
        }
      ],
      "name": "mintZhu",
      "outputs": [],
      "stateMutability": "nonpayable",
      "type": "function"
    },
    {
      "inputs": [],
      "name": "oneToOneMintedZhuByBlock",
      "outputs": [
        {
          "internalType": "uint64",
          "name": "blockNumber",
          "type": "uint64"
        },
        {
          "internalType": "uint192",
          "name": "count",
          "type": "uint192"
        }
      ],
      "stateMutability": "view",
      "type": "function"
    },
    {
      "inputs": [
        {
          "internalType": "contract IUniswapV3Pool",
          "name": "pool",
          "type": "address"
        }
      ],
      "name": "removeReferencePool",
      "outputs": [],
      "stateMutability": "nonpayable",
      "type": "function"
    },
    {
      "inputs": [
        {
          "internalType": "contract IERC20",
          "name": "tokenToRecieve",
          "type": "address"
        },
        {
          "internalType": "uint256",
          "name": "zhuToReturn",
          "type": "uint256"
        }
      ],
      "name": "returnZhu",
      "outputs": [],
      "stateMutability": "nonpayable",
      "type": "function"
    },
    {
      "inputs": [
        {
          "internalType": "uint256",
          "name": "ratio",
          "type": "uint256"
        }
      ],
      "name": "setMaxRatioOfTotalDebtAllowedPerBlock",
      "outputs": [],
      "stateMutability": "nonpayable",
      "type": "function"
    },
    {
      "inputs": [],
      "name": "stop",
      "outputs": [],
      "stateMutability": "nonpayable",
      "type": "function"
    },
    {
      "inputs": [],
      "name": "stopped",
      "outputs": [
        {
          "internalType": "bool",
          "name": "",
          "type": "bool"
        }
      ],
      "stateMutability": "view",
      "type": "function"
    },
    {
      "inputs": [
        {
          "internalType": "uint256",
          "name": "lendTokenCount",
          "type": "uint256"
        }
      ],
      "name": "unlend",
      "outputs": [],
      "stateMutability": "nonpayable",
      "type": "function"
    },
    {
      "inputs": [
        {
          "internalType": "contract IERC20",
          "name": "",
          "type": "address"
        }
      ],
      "name": "validToken",
      "outputs": [
        {
          "internalType": "bool",
          "name": "",
          "type": "bool"
        }
      ],
      "stateMutability": "view",
      "type": "function"
    },
    {
      "inputs": [
        {
          "internalType": "bytes4",
          "name": "",
          "type": "bytes4"
        }
      ],
      "name": "validUpdate",
      "outputs": [
        {
          "internalType": "bool",
          "name": "",
          "type": "bool"
        }
      ],
      "stateMutability": "view",
      "type": "function"
    },
    {
      "inputs": [
        {
          "internalType": "uint256",
          "name": "lendTokenCount",
          "type": "uint256"
        }
      ],
      "name": "valueOfLendTokensInZhu",
      "outputs": [
        {
          "internalType": "uint256",
          "name": "",
          "type": "uint256"
        }
      ],
      "stateMutability": "view",
      "type": "function"
    }
  ],
  "bytecode": "0x6080604052600160066000509090556706f05b59d3b20000600860005090905534801561002c5760006000fd5b505b33600160006101000a81548173ffffffffffffffffffffffffffffffffffffffff021916908373ffffffffffffffffffffffffffffffffffffffff1602179055505b610075565b61323c806100846000396000f3fe60806040523480156100115760006000fd5b50600436106101715760003560e01c806390dc29a6116100ce578063bb48017b11610082578063c6e225d611610067578063c6e225d614610540578063d284433b1461059b578063d5f39488146105f657610171565b8063bb48017b146104ac578063c381c1e6146104fb57610171565b8063a6aa57ce116100b3578063a6aa57ce146103ff578063ab8882421461042e578063b91721b71461047d57610171565b806390dc29a614610373578063a04d86f4146103b657610171565b8063197b1bf51161012557806365ab96991161010a57806365ab9699146102f057806375f12b21146103495780638aea8f711461036957610171565b8063197b1bf51461027c57806319ab453c146102ab57610171565b8063113cf1ab11610156578063113cf1ab146101b557806312172fbd14610219578063150147d71461023757610171565b806307da68f5146101775780630c340a241461018157610171565b60006000fd5b61017f61062a565b005b61018961064a565b604051808273ffffffffffffffffffffffffffffffffffffffff16815260200191505060405180910390f35b610201600480360360208110156101cc5760006000fd5b8101908080357bffffffffffffffffffffffffffffffffffffffffffffffffffffffff19169060200190929190505050610670565b60405180821515815260200191505060405180910390f35b610221610695565b6040518082815260200191505060405180910390f35b61027a6004803603602081101561024e5760006000fd5b81019080803573ffffffffffffffffffffffffffffffffffffffff16906020019092919050505061069e565b005b6102a9600480360360208110156102935760006000fd5b810190808035906020019092919050505061073c565b005b6102ee600480360360208110156102c25760006000fd5b81019080803573ffffffffffffffffffffffffffffffffffffffff169060200190929190505050610948565b005b610333600480360360208110156103075760006000fd5b81019080803573ffffffffffffffffffffffffffffffffffffffff169060200190929190505050610d06565b6040518082815260200191505060405180910390f35b610351610e3c565b60405180821515815260200191505060405180910390f35b610371610e4f565b005b6103a06004803603602081101561038a5760006000fd5b8101908080359060200190929190505050610ff0565b6040518082815260200191505060405180910390f35b6103be61101e565b604051808367ffffffffffffffff1681526020018277ffffffffffffffffffffffffffffffffffffffffffffffff1681526020019250505060405180910390f35b61042c600480360360208110156104165760006000fd5b810190808035906020019092919050505061106b565b005b61047b600480360360408110156104455760006000fd5b81019080803573ffffffffffffffffffffffffffffffffffffffff169060200190929190803590602001909291905050506113c7565b005b6104aa600480360360208110156104945760006000fd5b81019080803590602001909291905050506116c4565b005b6104f9600480360360408110156104c35760006000fd5b81019080803573ffffffffffffffffffffffffffffffffffffffff16906020019092919080359060200190929190505050611733565b005b61053e600480360360208110156105125760006000fd5b81019080803573ffffffffffffffffffffffffffffffffffffffff1690602001909291905050506119c9565b005b610583600480360360208110156105575760006000fd5b81019080803573ffffffffffffffffffffffffffffffffffffffff169060200190929190505050611a67565b60405180821515815260200191505060405180910390f35b6105de600480360360208110156105b25760006000fd5b81019080803573ffffffffffffffffffffffffffffffffffffffff169060200190929190505050611a8c565b60405180821515815260200191505060405180910390f35b6105fe611ab1565b604051808273ffffffffffffffffffffffffffffffffffffffff16815260200191505060405180910390f35b610638611ad763ffffffff16565b610646611b6c63ffffffff16565b5b5b565b600060009054906101000a900473ffffffffffffffffffffffffffffffffffffffff1681565b600560005060205280600052604060002060009150909054906101000a900460ff1681565b60086000505481565b6106ac611ad763ffffffff16565b6106bb81611bb663ffffffff16565b8073ffffffffffffffffffffffffffffffffffffffff1660405180807f72656d6f76655265666572656e6365506f6f6c00000000000000000000000000815260200150601301905060405180910390207f78caada2f560033c9479d8c5e33f045f2e611faebe6b6d8a73874c80ec2dd3a260405160405180910390a35b5b50565b61074a611c2963ffffffff16565b610758611d0863ffffffff16565b61076a60008211611d5d63ffffffff16565b6000339050600061078083610ff063ffffffff16565b9050600760009054906101000a900473ffffffffffffffffffffffffffffffffffffffff1673ffffffffffffffffffffffffffffffffffffffff166379cc679083856040518363ffffffff1660e01b8152600401808373ffffffffffffffffffffffffffffffffffffffff16815260200182815260200192505050600060405180830381600087803b1580156108165760006000fd5b505af115801561082b573d600060003e3d6000fd5b50505050600260009054906101000a900473ffffffffffffffffffffffffffffffffffffffff1673ffffffffffffffffffffffffffffffffffffffff1663cf07c7ec83836040518363ffffffff1660e01b8152600401808373ffffffffffffffffffffffffffffffffffffffff16815260200182815260200192505050600060405180830381600087803b1580156108c35760006000fd5b505af11580156108d8573d600060003e3d6000fd5b505050508173ffffffffffffffffffffffffffffffffffffffff167fefc56a1a7590fc4eb13cd40b6a2ceee41f3869c6ea818d20d9a18f2d6315ca188285604051808381526020018281526020019250505060405180910390a250505b5b610944611dd963ffffffff16565b5b50565b600160009054906101000a900473ffffffffffffffffffffffffffffffffffffffff1673ffffffffffffffffffffffffffffffffffffffff163373ffffffffffffffffffffffffffffffffffffffff161415156109a55760006000fd5b600160006101000a81549073ffffffffffffffffffffffffffffffffffffffff021916905580600060006101000a81548173ffffffffffffffffffffffffffffffffffffffff021916908373ffffffffffffffffffffffffffffffffffffffff160217905550600060009054906101000a900473ffffffffffffffffffffffffffffffffffffffff1673ffffffffffffffffffffffffffffffffffffffff16639624e83e6040518163ffffffff1660e01b815260040160206040518083038186803b158015610a745760006000fd5b505afa158015610a89573d600060003e3d6000fd5b505050506040513d601f19601f82011682018060405250810190610aad9190612fdc565b600260006101000a81548173ffffffffffffffffffffffffffffffffffffffff021916908373ffffffffffffffffffffffffffffffffffffffff160217905550600060009054906101000a900473ffffffffffffffffffffffffffffffffffffffff1673ffffffffffffffffffffffffffffffffffffffff16638a15fcf36040518163ffffffff1660e01b815260040160206040518083038186803b158015610b565760006000fd5b505afa158015610b6b573d600060003e3d6000fd5b505050506040513d601f19601f82011682018060405250810190610b8f919061302a565b600360006101000a81548173ffffffffffffffffffffffffffffffffffffffff021916908373ffffffffffffffffffffffffffffffffffffffff160217905550600060009054906101000a900473ffffffffffffffffffffffffffffffffffffffff1673ffffffffffffffffffffffffffffffffffffffff1663d478b0876040518163ffffffff1660e01b815260040160206040518083038186803b158015610c385760006000fd5b505afa158015610c4d573d600060003e3d6000fd5b505050506040513d601f19601f82011682018060405250810190610c719190613003565b600460006101000a81548173ffffffffffffffffffffffffffffffffffffffff021916908373ffffffffffffffffffffffffffffffffffffffff160217905550610cbf611e6d63ffffffff16565b8073ffffffffffffffffffffffffffffffffffffffff167f908408e307fc569b417f6cbec5d5a06f44a0a505ac0479b47d421a4b2fd6a1e660405160405180910390a25b50565b600081610d67600960005060008373ffffffffffffffffffffffffffffffffffffffff1673ffffffffffffffffffffffffffffffffffffffff16815260200190815260200160002060009054906101000a900460ff16611fca63ffffffff16565b8273ffffffffffffffffffffffffffffffffffffffff166370a08231600260009054906101000a900473ffffffffffffffffffffffffffffffffffffffff166040518263ffffffff1660e01b8152600401808273ffffffffffffffffffffffffffffffffffffffff16815260200191505060206040518083038186803b158015610df15760006000fd5b505afa158015610e06573d600060003e3d6000fd5b505050506040513d6020811015610e1d5760006000fd5b81019080805190602001909291905050509150610e35565b5b50919050565b600060149054906101000a900460ff1681565b610e5d611ad763ffffffff16565b6000600060009054906101000a900473ffffffffffffffffffffffffffffffffffffffff1673ffffffffffffffffffffffffffffffffffffffff1663ab658be26040518163ffffffff1660e01b815260040160006040518083038186803b158015610ec85760006000fd5b505afa158015610edd573d600060003e3d6000fd5b505050506040513d6000823e3d601f19601f820116820180604052506020811015610f085760006000fd5b8101908080516040519392919084640100000000821115610f295760006000fd5b83820191506020820185811115610f405760006000fd5b8251866020820283011164010000000082111715610f5e5760006000fd5b8083526020830192505050908051906020019060200280838360005b83811015610f965780820151818401525b602081019050610f7a565b5050505090500160405260200150505090506000600090505b8151811015610fea57610fdc8282815181101515610fc957fe5b602002602001015161204663ffffffff16565b5b8080600101915050610faf565b50505b5b565b600061101261100361211463ffffffff16565b836122ad90919063ffffffff16565b9050611019565b919050565b600b6000508060000160009054906101000a900467ffffffffffffffff16908060000160089054906101000a900477ffffffffffffffffffffffffffffffffffffffffffffffff16905082565b611079611c2963ffffffff16565b6110876122d363ffffffff16565b61109960008211611d5d63ffffffff16565b6000339050600060009054906101000a900473ffffffffffffffffffffffffffffffffffffffff1673ffffffffffffffffffffffffffffffffffffffff166380f556056040518163ffffffff1660e01b815260040160206040518083038186803b1580156111075760006000fd5b505afa15801561111c573d600060003e3d6000fd5b505050506040513d60208110156111335760006000fd5b810190808051906020019092919050505073ffffffffffffffffffffffffffffffffffffffff1663a6afed956040518163ffffffff1660e01b8152600401600060405180830381600087803b15801561118c5760006000fd5b505af11580156111a1573d600060003e3d6000fd5b5050505060006111c76111b861211463ffffffff16565b8461240c90919063ffffffff16565b9050600260009054906101000a900473ffffffffffffffffffffffffffffffffffffffff1673ffffffffffffffffffffffffffffffffffffffff166379fdf8c5846040518263ffffffff1660e01b815260040180828152602001915050600060405180830381600087803b15801561123f5760006000fd5b505af1158015611254573d600060003e3d6000fd5b505050506112ae600360009054906101000a900473ffffffffffffffffffffffffffffffffffffffff1683600260009054906101000a900473ffffffffffffffffffffffffffffffffffffffff168661243263ffffffff16565b600760009054906101000a900473ffffffffffffffffffffffffffffffffffffffff1673ffffffffffffffffffffffffffffffffffffffff1663449a52f883836040518363ffffffff1660e01b8152600401808373ffffffffffffffffffffffffffffffffffffffff16815260200182815260200192505050600060405180830381600087803b1580156113425760006000fd5b505af1158015611357573d600060003e3d6000fd5b505050508173ffffffffffffffffffffffffffffffffffffffff167f8fff79b574da9a93d7a5408c2fc00c4a9b2b462321c1659b2fbbb9ff3dd221ff8483604051808381526020018281526020019250505060405180910390a250505b5b6113c3611dd963ffffffff16565b5b50565b6113d5611c2963ffffffff16565b6113e36122d363ffffffff16565b60038060ff16600060009054906101000a900473ffffffffffffffffffffffffffffffffffffffff1673ffffffffffffffffffffffffffffffffffffffff1663055ad42e6040518163ffffffff1660e01b815260040160206040518083038186803b1580156114525760006000fd5b505afa158015611467573d600060003e3d6000fd5b505050506040513d601f19601f8201168201806040525081019061148b9190613051565b60ff161015156114d0576040517f08c379a00000000000000000000000000000000000000000000000000000000081526004016114c7906130be565b60405180910390fd5b8261152f600a60005060008373ffffffffffffffffffffffffffffffffffffffff1673ffffffffffffffffffffffffffffffffffffffff16815260200190815260200160002060009054906101000a900460ff16611fca63ffffffff16565b61154160008411611d5d63ffffffff16565b6115508361265d63ffffffff16565b60003390506115988582600260009054906101000a900473ffffffffffffffffffffffffffffffffffffffff1661158d898961290c63ffffffff16565b61243263ffffffff16565b600360009054906101000a900473ffffffffffffffffffffffffffffffffffffffff1673ffffffffffffffffffffffffffffffffffffffff1663449a52f882866040518363ffffffff1660e01b8152600401808373ffffffffffffffffffffffffffffffffffffffff16815260200182815260200192505050600060405180830381600087803b15801561162c5760006000fd5b505af1158015611641573d600060003e3d6000fd5b505050508473ffffffffffffffffffffffffffffffffffffffff168173ffffffffffffffffffffffffffffffffffffffff167f5e55c4cfaa230ec8ab40963456a09ed79cd0cf03216e58b9b38bddeb23810e8d866040518082815260200191505060405180910390a3505b5b505b505b6116bf611dd963ffffffff16565b5b5050565b6116d2611ad763ffffffff16565b80600860005081909090555060405180806131e560229139602201905060405180910390207f3a64504f0bc0c335e2aecb78638a257e0351a3fe0370861fd54ee4190b920933826040518082815260200191505060405180910390a25b5b50565b611741611c2963ffffffff16565b61174f611d0863ffffffff16565b816117ae600960005060008373ffffffffffffffffffffffffffffffffffffffff1673ffffffffffffffffffffffffffffffffffffffff16815260200190815260200160002060009054906101000a900460ff16611fca63ffffffff16565b6117c060008311611d5d63ffffffff16565b6000339050600360009054906101000a900473ffffffffffffffffffffffffffffffffffffffff1673ffffffffffffffffffffffffffffffffffffffff166379cc679082856040518363ffffffff1660e01b8152600401808373ffffffffffffffffffffffffffffffffffffffff16815260200182815260200192505050600060405180830381600087803b1580156118595760006000fd5b505af115801561186e573d600060003e3d6000fd5b50505050600260009054906101000a900473ffffffffffffffffffffffffffffffffffffffff1673ffffffffffffffffffffffffffffffffffffffff1663748c03d485836118c2888861290c63ffffffff16565b6040518463ffffffff1660e01b8152600401808473ffffffffffffffffffffffffffffffffffffffff1681526020018373ffffffffffffffffffffffffffffffffffffffff1681526020018281526020019350505050600060405180830381600087803b1580156119335760006000fd5b505af1158015611948573d600060003e3d6000fd5b505050508373ffffffffffffffffffffffffffffffffffffffff168173ffffffffffffffffffffffffffffffffffffffff167f41bc725371a4cd696a13fd4ab526e6e7e291a1cf4c28c735bfb7f452c17b6643856040518082815260200191505060405180910390a3505b5b505b6119c4611dd963ffffffff16565b5b5050565b6119d7611ad763ffffffff16565b6119e68161204663ffffffff16565b8073ffffffffffffffffffffffffffffffffffffffff1660405180807f6164645265666572656e6365506f6f6c00000000000000000000000000000000815260200150601001905060405180910390207f78caada2f560033c9479d8c5e33f045f2e611faebe6b6d8a73874c80ec2dd3a260405160405180910390a35b5b50565b600960005060205280600052604060002060009150909054906101000a900460ff1681565b600a60005060205280600052604060002060009150909054906101000a900460ff1681565b600160009054906101000a900473ffffffffffffffffffffffffffffffffffffffff1681565b600060009054906101000a900473ffffffffffffffffffffffffffffffffffffffff1673ffffffffffffffffffffffffffffffffffffffff163373ffffffffffffffffffffffffffffffffffffffff16141515611b69576040517f08c379a0000000000000000000000000000000000000000000000000000000008152600401611b60906130fd565b60405180910390fd5b5b565b6001600060146101000a81548160ff0219169083151502179055507f7acc84e34091ae817647a4c49116f5cc07f319078ba80f8f5fde37ea7e25cbd660405160405180910390a15b565b6000611bc782612a0263ffffffff16565b90506000600a60005060008373ffffffffffffffffffffffffffffffffffffffff1673ffffffffffffffffffffffffffffffffffffffff16815260200190815260200160002060006101000a81548160ff021916908315150217905550505b50565b600460009054906101000a900473ffffffffffffffffffffffffffffffffffffffff1673ffffffffffffffffffffffffffffffffffffffff1663e97dcb626040518163ffffffff1660e01b8152600401600060405180830381600087803b158015611c945760006000fd5b505af1158015611ca9573d600060003e3d6000fd5b50505050600260066000505414151515611cf8576040517f08c379a0000000000000000000000000000000000000000000000000000000008152600401611cef9061313c565b60405180910390fd5b600260066000508190909055505b565b600060149054906101000a900460ff16151515611d5a576040517f08c379a0000000000000000000000000000000000000000000000000000000008152600401611d519061317b565b60405180910390fd5b5b565b801515611dd5576040517f08c379a00000000000000000000000000000000000000000000000000000000081526004018080602001828103825260048152602001807f4e6f6f700000000000000000000000000000000000000000000000000000000081526020015060200191505060405180910390fd5b5b50565b60016006600050819090905550600460009054906101000a900473ffffffffffffffffffffffffffffffffffffffff1673ffffffffffffffffffffffffffffffffffffffff1663e9fad8ee6040518163ffffffff1660e01b8152600401600060405180830381600087803b158015611e515760006000fd5b505af1158015611e66573d600060003e3d6000fd5b505050505b565b600060009054906101000a900473ffffffffffffffffffffffffffffffffffffffff1673ffffffffffffffffffffffffffffffffffffffff166377c0f3a46040518163ffffffff1660e01b815260040160206040518083038186803b158015611ed65760006000fd5b505afa158015611eeb573d600060003e3d6000fd5b505050506040513d6020811015611f025760006000fd5b8101908080519060200190929190505050600760006101000a81548173ffffffffffffffffffffffffffffffffffffffff021916908373ffffffffffffffffffffffffffffffffffffffff16021790555060016005600050600063b91721b760e01b7bffffffffffffffffffffffffffffffffffffffffffffffffffffffff19167bffffffffffffffffffffffffffffffffffffffffffffffffffffffff1916815260200190815260200160002060006101000a81548160ff0219169083151502179055505b565b801515612042576040517f08c379a000000000000000000000000000000000000000000000000000000000815260040180806020018281038252600d8152602001807f496e76616c696420746f6b656e0000000000000000000000000000000000000081526020015060200191505060405180910390fd5b5b50565b600061205782612a0263ffffffff16565b90506001600a60005060008373ffffffffffffffffffffffffffffffffffffffff1673ffffffffffffffffffffffffffffffffffffffff16815260200190815260200160002060006101000a81548160ff0219169083151502179055506001600960005060008373ffffffffffffffffffffffffffffffffffffffff1673ffffffffffffffffffffffffffffffffffffffff16815260200190815260200160002060006101000a81548160ff021916908315150217905550505b50565b60006000600260009054906101000a900473ffffffffffffffffffffffffffffffffffffffff1673ffffffffffffffffffffffffffffffffffffffff16634194347a6040518163ffffffff1660e01b815260040160206040518083038186803b1580156121815760006000fd5b505afa158015612196573d600060003e3d6000fd5b505050506040513d60208110156121ad5760006000fd5b810190808051906020019092919050505090506000600760009054906101000a900473ffffffffffffffffffffffffffffffffffffffff1673ffffffffffffffffffffffffffffffffffffffff166318160ddd6040518163ffffffff1660e01b815260040160206040518083038186803b15801561222b5760006000fd5b505afa158015612240573d600060003e3d6000fd5b505050506040513d60208110156122575760006000fd5b8101908080519060200190929190505050905060008114806122795750600082145b6122955761229082826122ad90919063ffffffff16565b61229f565b670de0b6b3a76400005b925050506122aa5650505b90565b60006122c883670de0b6b3a764000084612c4f63ffffffff16565b905080505b92915050565b600060149054906101000a900460ff16151515612325576040517f08c379a000000000000000000000000000000000000000000000000000000000815260040161231c9061317b565b60405180910390fd5b600060009054906101000a900473ffffffffffffffffffffffffffffffffffffffff1673ffffffffffffffffffffffffffffffffffffffff1663bf86d6906040518163ffffffff1660e01b815260040160206040518083038186803b15801561238e5760006000fd5b505afa1580156123a3573d600060003e3d6000fd5b505050506040513d601f19601f820116820180604052508101906123c79190612faf565b151515612409576040517f08c379a00000000000000000000000000000000000000000000000000000000081526004016124009061307f565b60405180910390fd5b5b565b60006124278383670de0b6b3a7640000612c4f63ffffffff16565b905080505b92915050565b600060008573ffffffffffffffffffffffffffffffffffffffff166323b872dd60e01b868686604051602401808473ffffffffffffffffffffffffffffffffffffffff1681526020018373ffffffffffffffffffffffffffffffffffffffff1681526020018281526020019350505050604051602081830303815290604052907bffffffffffffffffffffffffffffffffffffffffffffffffffffffff19166020820180517bffffffffffffffffffffffffffffffffffffffffffffffffffffffff83818316178352505050506040518082805190602001908083835b60208310151561253557805182525b60208201915060208101905060208303925061250f565b6001836020036101000a0380198251168184511680821785525050505050509050019150506000604051808303816000865af19150503d8060008114612597576040519150601f19603f3d011682016040523d82523d6000602084013e61259c565b606091505b50915091508180156125dd57506000815114806125dc57508080602001905160208110156125ca5760006000fd5b81019080805190602001909291905050505b5b1515612654576040517f08c379a00000000000000000000000000000000000000000000000000000000081526004018080602001828103825260038152602001807f535446000000000000000000000000000000000000000000000000000000000081526020015060200191505060405180910390fd5b50505b50505050565b600043600b60005060000160009054906101000a900467ffffffffffffffff1667ffffffffffffffff16106126ea576126e5600b60005060000160089054906101000a900477ffffffffffffffffffffffffffffffffffffffffffffffff1677ffffffffffffffffffffffffffffffffffffffffffffffff1683612d5090919063ffffffff16565b6126ec565b815b90506127ab600860005054600260009054906101000a900473ffffffffffffffffffffffffffffffffffffffff1673ffffffffffffffffffffffffffffffffffffffff16630dca59c16040518163ffffffff1660e01b815260040160206040518083038186803b1580156127605760006000fd5b505afa158015612775573d600060003e3d6000fd5b505050506040513d602081101561278c5760006000fd5b810190808051906020019092919050505061240c90919063ffffffff16565b8111151515612825576040517f08c379a00000000000000000000000000000000000000000000000000000000081526004018080602001828103825260108152602001807f4e6f20666c617368206d696e74696e670000000000000000000000000000000081526020015060200191505060405180910390fd5b604051806040016040528061284143612dd9909063ffffffff16565b67ffffffffffffffff16815260200161286183612e6b909063ffffffff16565b77ffffffffffffffffffffffffffffffffffffffffffffffff16815260200150600b60005060008201518160000160006101000a81548167ffffffffffffffff021916908367ffffffffffffffff16021790555060208201518160000160086101000a81548177ffffffffffffffffffffffffffffffffffffffffffffffff021916908377ffffffffffffffffffffffffffffffffffffffffffffffff160217905550905050505b50565b600060008373ffffffffffffffffffffffffffffffffffffffff1663313ce5676040518163ffffffff1660e01b815260040160206040518083038186803b1580156129575760006000fd5b505afa15801561296c573d600060003e3d6000fd5b505050506040513d60208110156129835760006000fd5b81019080805190602001909291905050509050601260ff168160ff1614156129ae57829150506129fc565b601260ff168160ff16116129d6578060120360ff16600a0a838115156129d057fe5b046129f3565b6129f26012820360ff16600a0a84612f0d90919063ffffffff16565b5b9150506129fc56505b92915050565b600060008273ffffffffffffffffffffffffffffffffffffffff16630dfe16816040518163ffffffff1660e01b815260040160206040518083038186803b158015612a4d5760006000fd5b505afa158015612a62573d600060003e3d6000fd5b505050506040513d6020811015612a795760006000fd5b8101908080519060200190929190505050905060008373ffffffffffffffffffffffffffffffffffffffff1663d21220a76040518163ffffffff1660e01b815260040160206040518083038186803b158015612ad55760006000fd5b505afa158015612aea573d600060003e3d6000fd5b505050506040513d6020811015612b015760006000fd5b81019080805190602001909291905050509050600360009054906101000a900473ffffffffffffffffffffffffffffffffffffffff1673ffffffffffffffffffffffffffffffffffffffff168273ffffffffffffffffffffffffffffffffffffffff16141515612c3e5781818093508192505050600360009054906101000a900473ffffffffffffffffffffffffffffffffffffffff1673ffffffffffffffffffffffffffffffffffffffff168273ffffffffffffffffffffffffffffffffffffffff16141515612c3d576040517f08c379a000000000000000000000000000000000000000000000000000000000815260040180806020018281038252600b8152602001807f4d697373696e67207a687500000000000000000000000000000000000000000081526020015060200191505060405180910390fd5b5b8092505050612c4a5650505b919050565b6000600060006000198587098587029250828110838203039150506000811415612c9257600084111515612c835760006000fd5b83820492508292505050612d49565b8084111515612ca15760006000fd5b6000848688099050828111820391508083039250600085866000031690508086049550808404935060018182600003040190508083028417935083506000600287600302189050808702600203810290508050808702600203810290508050808702600203810290508050808702600203810290508050808702600203810290508050808702600203810290508050808502955085508595505050505050612d495650505050505b9392505050565b60008282840191508110151515612dd2576040517f08c379a000000000000000000000000000000000000000000000000000000000815260040180806020018281038252600c8152602001807f6164642d6f766572666c6f77000000000000000000000000000000000000000081526020015060200191505060405180910390fd5b5b92915050565b60006801000000000000000082101515612e5e576040517f08c379a00000000000000000000000000000000000000000000000000000000081526004018080602001828103825260118152602001807f6d6f7265207468616e203634206269747300000000000000000000000000000081526020015060200191505060405180910390fd5b819050612e66565b919050565b6000780100000000000000000000000000000000000000000000000082101515612f00576040517f08c379a00000000000000000000000000000000000000000000000000000000081526004018080602001828103825260128152602001807f6d6f7265207468616e203139322062697473000000000000000000000000000081526020015060200191505060405180910390fd5b819050612f08565b919050565b60006000821480612f2d57508282838502925082811515612f2a57fe5b04145b1515612fa4576040517f08c379a000000000000000000000000000000000000000000000000000000000815260040180806020018281038252600c8152602001807f6d756c2d6f766572666c6f77000000000000000000000000000000000000000081526020015060200191505060405180910390fd5b5b92915050566131e3565b600060208284031215612fc0578081fd5b815180151581141515612fd1578182fd5b809150505b92915050565b600060208284031215612fed578081fd5b8151612ff8816131ba565b809150505b92915050565b600060208284031215613014578081fd5b815161301f816131ba565b809150505b92915050565b60006020828403121561303b578081fd5b8151613046816131ba565b809150505b92915050565b600060208284031215613062578081fd5b815160ff811681141515613074578182fd5b809150505b92915050565b600060208252601160208301527f50726f746f636f6c2073687574646f776e00000000000000000000000000000060408301526060820190505b919050565b600060208252601460208301527f416374696f6e2077696e646f772070617373656400000000000000000000000060408301526060820190505b919050565b600060208252600e60208301527f4e6f7420417574686f72697a656400000000000000000000000000000000000060408301526060820190505b919050565b600060208252600d60208301527f4c50205265656e7472616e63790000000000000000000000000000000000000060408301526060820190505b919050565b600060208252601360208301527f436f6e74726163742069732073746f707065640000000000000000000000000060408301526060820190505b919050565b73ffffffffffffffffffffffffffffffffffffffff8116811415156131df5760006000fd5b5b50565bfe6d6178526174696f4f66546f74616c44656274416c6c6f776564506572426c6f636ba2646970667358221220b6725e65659af18409ac9f8ea178a0384508a0a6d6bc0cf6f6cfcad175330c6c64736f6c63430007060033",
  "linkReferences": {},
  "deployedLinkReferences": {}
}