{
  "_format": "hh-sol-artifact-1",
  "contractName": "RewardsTestable",
  "sourceName": "contracts/mocks/RewardsTestable.sol",
  "abi": [
    {
      "inputs": [
        {
          "internalType": "contract INonfungiblePositionManager",
          "name": "nftPositionManager",
          "type": "address"
        },
        {
          "internalType": "contract IUniswapV3Factory",
          "name": "uniswapV3Factory",
          "type": "address"
        },
        {
          "internalType": "contract IWETH9",
          "name": "weth",
          "type": "address"
        }
      ],
      "stateMutability": "nonpayable",
      "type": "constructor"
    },
    {
      "anonymous": false,
      "inputs": [
        {
          "indexed": true,
          "internalType": "address",
          "name": "owner",
          "type": "address"
        },
        {
          "indexed": true,
          "internalType": "uint256",
          "name": "nftTokenID",
          "type": "uint256"
        }
      ],
      "name": "ClaimedInflationRewards",
      "type": "event"
    },
    {
      "anonymous": false,
      "inputs": [
        {
          "indexed": true,
          "internalType": "address",
          "name": "owner",
          "type": "address"
        },
        {
          "indexed": true,
          "internalType": "uint256",
          "name": "nftTokenID",
          "type": "uint256"
        },
        {
          "indexed": false,
          "internalType": "uint256",
          "name": "amount0",
          "type": "uint256"
        },
        {
          "indexed": false,
          "internalType": "uint256",
          "name": "amount1",
          "type": "uint256"
        }
      ],
      "name": "CollectedFees",
      "type": "event"
    },
    {
      "anonymous": false,
      "inputs": [
        {
          "indexed": true,
          "internalType": "address",
          "name": "governor",
          "type": "address"
        }
      ],
      "name": "Initialized",
      "type": "event"
    },
    {
      "anonymous": false,
      "inputs": [
        {
          "indexed": true,
          "internalType": "address",
          "name": "owner",
          "type": "address"
        },
        {
          "indexed": true,
          "internalType": "uint16",
          "name": "poolID",
          "type": "uint16"
        },
        {
          "indexed": true,
          "internalType": "uint256",
          "name": "nftID",
          "type": "uint256"
        },
        {
          "indexed": false,
          "internalType": "int24",
          "name": "tickLower",
          "type": "int24"
        },
        {
          "indexed": false,
          "internalType": "int24",
          "name": "tickUpper",
          "type": "int24"
        },
        {
          "indexed": false,
          "internalType": "uint128",
          "name": "liquidity",
          "type": "uint128"
        }
      ],
      "name": "LiquidityPositionCreated",
      "type": "event"
    },
    {
      "anonymous": false,
      "inputs": [
        {
          "indexed": true,
          "internalType": "uint256",
          "name": "nftID",
          "type": "uint256"
        },
        {
          "indexed": false,
          "internalType": "uint256",
          "name": "amount0",
          "type": "uint256"
        },
        {
          "indexed": false,
          "internalType": "uint256",
          "name": "amount1",
          "type": "uint256"
        }
      ],
      "name": "LiquidityPositionDecreased",
      "type": "event"
    },
    {
      "anonymous": false,
      "inputs": [
        {
          "indexed": true,
          "internalType": "uint256",
          "name": "nftID",
          "type": "uint256"
        },
        {
          "indexed": false,
          "internalType": "uint128",
          "name": "liquidity",
          "type": "uint128"
        }
      ],
      "name": "LiquidityPositionIncreased",
      "type": "event"
    },
    {
      "anonymous": false,
      "inputs": [
        {
          "indexed": true,
          "internalType": "uint256",
          "name": "nftID",
          "type": "uint256"
        },
        {
          "indexed": false,
          "internalType": "uint256",
          "name": "amount0",
          "type": "uint256"
        },
        {
          "indexed": false,
          "internalType": "uint256",
          "name": "amount1",
          "type": "uint256"
        }
      ],
      "name": "LiquidityPositionLiquidated",
      "type": "event"
    },
    {
      "anonymous": false,
      "inputs": [
        {
          "indexed": true,
          "internalType": "uint256",
          "name": "nftID",
          "type": "uint256"
        },
        {
          "indexed": false,
          "internalType": "uint256",
          "name": "amount0",
          "type": "uint256"
        },
        {
          "indexed": false,
          "internalType": "uint256",
          "name": "amount1",
          "type": "uint256"
        }
      ],
      "name": "LiquidityPositionRemoved",
      "type": "event"
    },
    {
      "anonymous": false,
      "inputs": [
        {
          "indexed": true,
          "internalType": "string",
          "name": "paramName",
          "type": "string"
        },
        {
          "indexed": false,
          "internalType": "uint256",
          "name": "value",
          "type": "uint256"
        }
      ],
      "name": "ParameterUpdated",
      "type": "event"
    },
    {
      "anonymous": false,
      "inputs": [
        {
          "indexed": true,
          "internalType": "string",
          "name": "paramName",
          "type": "string"
        },
        {
          "indexed": false,
          "internalType": "uint256",
          "name": "value",
          "type": "uint256"
        }
      ],
      "name": "ParameterUpdated128",
      "type": "event"
    },
    {
      "anonymous": false,
      "inputs": [
        {
          "indexed": true,
          "internalType": "string",
          "name": "paramName",
          "type": "string"
        },
        {
          "indexed": false,
          "internalType": "uint256",
          "name": "value",
          "type": "uint256"
        }
      ],
      "name": "ParameterUpdated32",
      "type": "event"
    },
    {
      "anonymous": false,
      "inputs": [
        {
          "indexed": true,
          "internalType": "string",
          "name": "paramName",
          "type": "string"
        },
        {
          "indexed": false,
          "internalType": "uint256",
          "name": "value",
          "type": "uint256"
        }
      ],
      "name": "ParameterUpdated64",
      "type": "event"
    },
    {
      "anonymous": false,
      "inputs": [
        {
          "indexed": true,
          "internalType": "string",
          "name": "paramName",
          "type": "string"
        },
        {
          "indexed": false,
          "internalType": "address",
          "name": "value",
          "type": "address"
        }
      ],
      "name": "ParameterUpdatedAddress",
      "type": "event"
    },
    {
      "anonymous": false,
      "inputs": [
        {
          "indexed": false,
          "internalType": "uint256",
          "name": "count",
          "type": "uint256"
        },
        {
          "indexed": false,
          "internalType": "uint64",
          "name": "periods",
          "type": "uint64"
        }
      ],
      "name": "RewardsAccrued",
      "type": "event"
    },
    {
      "anonymous": false,
      "inputs": [
        {
          "indexed": true,
          "internalType": "address",
          "name": "account",
          "type": "address"
        },
        {
          "indexed": true,
          "internalType": "uint64",
          "name": "period",
          "type": "uint64"
        },
        {
          "indexed": false,
          "internalType": "uint256",
          "name": "tcpRewards",
          "type": "uint256"
        }
      ],
      "name": "RewardsDistributed",
      "type": "event"
    },
    {
      "anonymous": false,
      "inputs": [
        {
          "indexed": false,
          "internalType": "uint256",
          "name": "protocolPortion",
          "type": "uint256"
        },
        {
          "indexed": false,
          "internalType": "uint256",
          "name": "collateralPortion",
          "type": "uint256"
        },
        {
          "indexed": false,
          "internalType": "uint256",
          "name": "referencePortion",
          "type": "uint256"
        }
      ],
      "name": "RewardsPortionsUpdated",
      "type": "event"
    },
    {
      "anonymous": false,
      "inputs": [],
      "name": "Stopped",
      "type": "event"
    },
    {
      "inputs": [],
      "name": "accrueRewards",
      "outputs": [],
      "stateMutability": "nonpayable",
      "type": "function"
    },
    {
      "inputs": [
        {
          "internalType": "contract IUniswapV3Pool",
          "name": "pool",
          "type": "address"
        }
      ],
      "name": "addReferencePool",
      "outputs": [],
      "stateMutability": "nonpayable",
      "type": "function"
    },
    {
      "inputs": [],
      "name": "borrowRewardsPortion",
      "outputs": [
        {
          "internalType": "uint256",
          "name": "",
          "type": "uint256"
        }
      ],
      "stateMutability": "view",
      "type": "function"
    },
    {
      "inputs": [
        {
          "components": [
            {
              "internalType": "address payable",
              "name": "owner",
              "type": "address"
            },
            {
              "internalType": "uint16",
              "name": "poolID",
              "type": "uint16"
            },
            {
              "internalType": "uint256",
              "name": "cumulativeLiquidity",
              "type": "uint256"
            },
            {
              "internalType": "uint256",
              "name": "totalRewards",
              "type": "uint256"
            },
            {
              "internalType": "uint64",
              "name": "lastTimeRewarded",
              "type": "uint64"
            },
            {
              "internalType": "uint256",
              "name": "lastBlockPositionIncreased",
              "type": "uint256"
            },
            {
              "internalType": "int24",
              "name": "tickLower",
              "type": "int24"
            },
            {
              "internalType": "int24",
              "name": "tickUpper",
              "type": "int24"
            },
            {
              "internalType": "uint128",
              "name": "liquidity",
              "type": "uint128"
            }
          ],
          "internalType": "struct IAccounting.PoolPosition",
          "name": "_pt",
          "type": "tuple"
        },
        {
          "components": [
            {
              "internalType": "uint256",
              "name": "totalRewards",
              "type": "uint256"
            },
            {
              "internalType": "uint256",
              "name": "cumulativeLiquidity",
              "type": "uint256"
            }
          ],
          "internalType": "struct IAccounting.RewardStatus",
          "name": "rs",
          "type": "tuple"
        },
        {
          "internalType": "uint64",
          "name": "timeNow",
          "type": "uint64"
        }
      ],
      "name": "calculateUpdatedLiquidityPosition",
      "outputs": [
        {
          "components": [
            {
              "internalType": "address payable",
              "name": "owner",
              "type": "address"
            },
            {
              "internalType": "uint16",
              "name": "poolID",
              "type": "uint16"
            },
            {
              "internalType": "uint256",
              "name": "cumulativeLiquidity",
              "type": "uint256"
            },
            {
              "internalType": "uint256",
              "name": "totalRewards",
              "type": "uint256"
            },
            {
              "internalType": "uint64",
              "name": "lastTimeRewarded",
              "type": "uint64"
            },
            {
              "internalType": "uint256",
              "name": "lastBlockPositionIncreased",
              "type": "uint256"
            },
            {
              "internalType": "int24",
              "name": "tickLower",
              "type": "int24"
            },
            {
              "internalType": "int24",
              "name": "tickUpper",
              "type": "int24"
            },
            {
              "internalType": "uint128",
              "name": "liquidity",
              "type": "uint128"
            }
          ],
          "internalType": "struct IAccounting.PoolPosition",
          "name": "pt",
          "type": "tuple"
        },
        {
          "internalType": "uint256",
          "name": "rewards",
          "type": "uint256"
        }
      ],
      "stateMutability": "pure",
      "type": "function"
    },
    {
      "inputs": [
        {
          "internalType": "uint256",
          "name": "nftTokenID",
          "type": "uint256"
        }
      ],
      "name": "claimRewards",
      "outputs": [],
      "stateMutability": "nonpayable",
      "type": "function"
    },
    {
      "inputs": [],
      "name": "collateralPool",
      "outputs": [
        {
          "internalType": "uint16",
          "name": "",
          "type": "uint16"
        }
      ],
      "stateMutability": "view",
      "type": "function"
    },
    {
      "inputs": [],
      "name": "collateralPoolRewardsPortion",
      "outputs": [
        {
          "internalType": "uint256",
          "name": "",
          "type": "uint256"
        }
      ],
      "stateMutability": "view",
      "type": "function"
    },
    {
      "inputs": [
        {
          "components": [
            {
              "internalType": "uint256",
              "name": "tokenId",
              "type": "uint256"
            },
            {
              "internalType": "address",
              "name": "recipient",
              "type": "address"
            },
            {
              "internalType": "uint128",
              "name": "amount0Max",
              "type": "uint128"
            },
            {
              "internalType": "uint128",
              "name": "amount1Max",
              "type": "uint128"
            }
          ],
          "internalType": "struct INonfungiblePositionManager.CollectParams",
          "name": "params",
          "type": "tuple"
        }
      ],
      "name": "collectPositionFees",
      "outputs": [],
      "stateMutability": "nonpayable",
      "type": "function"
    },
    {
      "inputs": [],
      "name": "completeSetup",
      "outputs": [],
      "stateMutability": "nonpayable",
      "type": "function"
    },
    {
      "inputs": [
        {
          "components": [
            {
              "internalType": "address",
              "name": "token0",
              "type": "address"
            },
            {
              "internalType": "address",
              "name": "token1",
              "type": "address"
            },
            {
              "internalType": "uint24",
              "name": "fee",
              "type": "uint24"
            },
            {
              "internalType": "int24",
              "name": "tickLower",
              "type": "int24"
            },
            {
              "internalType": "int24",
              "name": "tickUpper",
              "type": "int24"
            },
            {
              "internalType": "uint256",
              "name": "amount0Desired",
              "type": "uint256"
            },
            {
              "internalType": "uint256",
              "name": "amount1Desired",
              "type": "uint256"
            },
            {
              "internalType": "uint256",
              "name": "amount0Min",
              "type": "uint256"
            },
            {
              "internalType": "uint256",
              "name": "amount1Min",
              "type": "uint256"
            },
            {
              "internalType": "address",
              "name": "recipient",
              "type": "address"
            },
            {
              "internalType": "uint256",
              "name": "deadline",
              "type": "uint256"
            }
          ],
          "internalType": "struct INonfungiblePositionManager.MintParams",
          "name": "params",
          "type": "tuple"
        },
        {
          "components": [
            {
              "internalType": "uint8",
              "name": "v",
              "type": "uint8"
            },
            {
              "internalType": "bytes32",
              "name": "r",
              "type": "bytes32"
            },
            {
              "internalType": "bytes32",
              "name": "s",
              "type": "bytes32"
            }
          ],
          "internalType": "struct IGovernor.GenesisAuth",
          "name": "ga",
          "type": "tuple"
        }
      ],
      "name": "createLiquidityPosition",
      "outputs": [
        {
          "internalType": "uint256",
          "name": "nftTokenID",
          "type": "uint256"
        },
        {
          "internalType": "uint128",
          "name": "liquidity",
          "type": "uint128"
        }
      ],
      "stateMutability": "payable",
      "type": "function"
    },
    {
      "inputs": [
        {
          "internalType": "uint16",
          "name": "",
          "type": "uint16"
        }
      ],
      "name": "current",
      "outputs": [
        {
          "internalType": "bool",
          "name": "",
          "type": "bool"
        }
      ],
      "stateMutability": "view",
      "type": "function"
    },
    {
      "inputs": [],
      "name": "currentPeriod",
      "outputs": [
        {
          "internalType": "uint64",
          "name": "period",
          "type": "uint64"
        }
      ],
      "stateMutability": "view",
      "type": "function"
    },
    {
      "inputs": [
        {
          "components": [
            {
              "internalType": "uint256",
              "name": "tokenId",
              "type": "uint256"
            },
            {
              "internalType": "uint128",
              "name": "liquidity",
              "type": "uint128"
            },
            {
              "internalType": "uint256",
              "name": "amount0Min",
              "type": "uint256"
            },
            {
              "internalType": "uint256",
              "name": "amount1Min",
              "type": "uint256"
            },
            {
              "internalType": "uint256",
              "name": "deadline",
              "type": "uint256"
            }
          ],
          "internalType": "struct INonfungiblePositionManager.DecreaseLiquidityParams",
          "name": "params",
          "type": "tuple"
        }
      ],
      "name": "decreaseLiquidityPosition",
      "outputs": [
        {
          "internalType": "uint256",
          "name": "amount0",
          "type": "uint256"
        },
        {
          "internalType": "uint256",
          "name": "amount1",
          "type": "uint256"
        }
      ],
      "stateMutability": "nonpayable",
      "type": "function"
    },
    {
      "inputs": [],
      "name": "deployer",
      "outputs": [
        {
          "internalType": "address",
          "name": "",
          "type": "address"
        }
      ],
      "stateMutability": "view",
      "type": "function"
    },
    {
      "inputs": [],
      "name": "firstPeriod",
      "outputs": [
        {
          "internalType": "uint64",
          "name": "",
          "type": "uint64"
        }
      ],
      "stateMutability": "view",
      "type": "function"
    },
    {
      "inputs": [
        {
          "components": [
            {
              "internalType": "address payable",
              "name": "owner",
              "type": "address"
            },
            {
              "internalType": "uint16",
              "name": "poolID",
              "type": "uint16"
            },
            {
              "internalType": "uint256",
              "name": "cumulativeLiquidity",
              "type": "uint256"
            },
            {
              "internalType": "uint256",
              "name": "totalRewards",
              "type": "uint256"
            },
            {
              "internalType": "uint64",
              "name": "lastTimeRewarded",
              "type": "uint64"
            },
            {
              "internalType": "uint256",
              "name": "lastBlockPositionIncreased",
              "type": "uint256"
            },
            {
              "internalType": "int24",
              "name": "tickLower",
              "type": "int24"
            },
            {
              "internalType": "int24",
              "name": "tickUpper",
              "type": "int24"
            },
            {
              "internalType": "uint128",
              "name": "liquidity",
              "type": "uint128"
            }
          ],
          "internalType": "struct IAccounting.PoolPosition",
          "name": "position",
          "type": "tuple"
        },
        {
          "internalType": "contract IUniswapV3Pool",
          "name": "pool",
          "type": "address"
        },
        {
          "internalType": "int24",
          "name": "tick",
          "type": "int24"
        },
        {
          "internalType": "uint128",
          "name": "liquidity",
          "type": "uint128"
        }
      ],
      "name": "getRealZhuCount",
      "outputs": [
        {
          "internalType": "uint256",
          "name": "",
          "type": "uint256"
        }
      ],
      "stateMutability": "view",
      "type": "function"
    },
    {
      "inputs": [],
      "name": "governor",
      "outputs": [
        {
          "internalType": "contract IGovernor",
          "name": "",
          "type": "address"
        }
      ],
      "stateMutability": "view",
      "type": "function"
    },
    {
      "inputs": [
        {
          "components": [
            {
              "internalType": "uint256",
              "name": "tokenId",
              "type": "uint256"
            },
            {
              "internalType": "uint256",
              "name": "amount0Desired",
              "type": "uint256"
            },
            {
              "internalType": "uint256",
              "name": "amount1Desired",
              "type": "uint256"
            },
            {
              "internalType": "uint256",
              "name": "amount0Min",
              "type": "uint256"
            },
            {
              "internalType": "uint256",
              "name": "amount1Min",
              "type": "uint256"
            },
            {
              "internalType": "uint256",
              "name": "deadline",
              "type": "uint256"
            }
          ],
          "internalType": "struct INonfungiblePositionManager.IncreaseLiquidityParams",
          "name": "params",
          "type": "tuple"
        }
      ],
      "name": "increaseLiquidityPosition",
      "outputs": [
        {
          "internalType": "uint128",
          "name": "liquidity",
          "type": "uint128"
        }
      ],
      "stateMutability": "payable",
      "type": "function"
    },
    {
      "inputs": [
        {
          "internalType": "contract IGovernor",
          "name": "_governor",
          "type": "address"
        }
      ],
      "name": "init",
      "outputs": [],
      "stateMutability": "nonpayable",
      "type": "function"
    },
    {
      "inputs": [
        {
          "components": [
            {
              "internalType": "address payable",
              "name": "owner",
              "type": "address"
            },
            {
              "internalType": "uint16",
              "name": "poolID",
              "type": "uint16"
            },
            {
              "internalType": "uint256",
              "name": "cumulativeLiquidity",
              "type": "uint256"
            },
            {
              "internalType": "uint256",
              "name": "totalRewards",
              "type": "uint256"
            },
            {
              "internalType": "uint64",
              "name": "lastTimeRewarded",
              "type": "uint64"
            },
            {
              "internalType": "uint256",
              "name": "lastBlockPositionIncreased",
              "type": "uint256"
            },
            {
              "internalType": "int24",
              "name": "tickLower",
              "type": "int24"
            },
            {
              "internalType": "int24",
              "name": "tickUpper",
              "type": "int24"
            },
            {
              "internalType": "uint128",
              "name": "liquidity",
              "type": "uint128"
            }
          ],
          "internalType": "struct IAccounting.PoolPosition",
          "name": "position",
          "type": "tuple"
        },
        {
          "internalType": "int24",
          "name": "tick",
          "type": "int24"
        }
      ],
      "name": "isLiquidityInRange",
      "outputs": [
        {
          "internalType": "bool",
          "name": "",
          "type": "bool"
        }
      ],
      "stateMutability": "pure",
      "type": "function"
    },
    {
      "inputs": [],
      "name": "lastPeriodGlobalRewardsAccrued",
      "outputs": [
        {
          "internalType": "uint64",
          "name": "",
          "type": "uint64"
        }
      ],
      "stateMutability": "view",
      "type": "function"
    },
    {
      "inputs": [
        {
          "internalType": "contract IUniswapV3Pool",
          "name": "pool",
          "type": "address"
        },
        {
          "internalType": "uint256[]",
          "name": "nftTokenIDs",
          "type": "uint256[]"
        }
      ],
      "name": "liquidateOutofRangePositions",
      "outputs": [],
      "stateMutability": "nonpayable",
      "type": "function"
    },
    {
      "inputs": [],
      "name": "liquidationPenalty",
      "outputs": [
        {
          "internalType": "uint256",
          "name": "",
          "type": "uint256"
        }
      ],
      "stateMutability": "view",
      "type": "function"
    },
    {
      "inputs": [],
      "name": "maxLiquidityDecreasePerPeriod",
      "outputs": [
        {
          "internalType": "uint256",
          "name": "",
          "type": "uint256"
        }
      ],
      "stateMutability": "view",
      "type": "function"
    },
    {
      "inputs": [
        {
          "internalType": "contract IUniswapV3Pool",
          "name": "",
          "type": "address"
        }
      ],
      "name": "minLiquidityByPeriod",
      "outputs": [
        {
          "internalType": "uint64",
          "name": "period",
          "type": "uint64"
        },
        {
          "internalType": "uint192",
          "name": "minLiquidity",
          "type": "uint192"
        }
      ],
      "stateMutability": "view",
      "type": "function"
    },
    {
      "inputs": [],
      "name": "minLiquidityProvideDuration",
      "outputs": [
        {
          "internalType": "uint64",
          "name": "",
          "type": "uint64"
        }
      ],
      "stateMutability": "view",
      "type": "function"
    },
    {
      "inputs": [],
      "name": "minZhuCountPerPosition",
      "outputs": [
        {
          "internalType": "uint128",
          "name": "",
          "type": "uint128"
        }
      ],
      "stateMutability": "view",
      "type": "function"
    },
    {
      "inputs": [],
      "name": "periodLength",
      "outputs": [
        {
          "internalType": "uint64",
          "name": "",
          "type": "uint64"
        }
      ],
      "stateMutability": "view",
      "type": "function"
    },
    {
      "inputs": [
        {
          "internalType": "uint16",
          "name": "",
          "type": "uint16"
        }
      ],
      "name": "poolForPoolID",
      "outputs": [
        {
          "internalType": "contract IUniswapV3Pool",
          "name": "",
          "type": "address"
        }
      ],
      "stateMutability": "view",
      "type": "function"
    },
    {
      "inputs": [
        {
          "internalType": "contract IUniswapV3Pool",
          "name": "",
          "type": "address"
        }
      ],
      "name": "poolIDForPool",
      "outputs": [
        {
          "internalType": "uint16",
          "name": "",
          "type": "uint16"
        }
      ],
      "stateMutability": "view",
      "type": "function"
    },
    {
      "inputs": [],
      "name": "protocolPool",
      "outputs": [
        {
          "internalType": "uint16",
          "name": "",
          "type": "uint16"
        }
      ],
      "stateMutability": "view",
      "type": "function"
    },
    {
      "inputs": [],
      "name": "protocolPoolRewardsPortion",
      "outputs": [
        {
          "internalType": "uint256",
          "name": "",
          "type": "uint256"
        }
      ],
      "stateMutability": "view",
      "type": "function"
    },
    {
      "inputs": [],
      "name": "referencePoolRewardsPortion",
      "outputs": [
        {
          "internalType": "uint256",
          "name": "",
          "type": "uint256"
        }
      ],
      "stateMutability": "view",
      "type": "function"
    },
    {
      "inputs": [
        {
          "internalType": "uint256",
          "name": "",
          "type": "uint256"
        }
      ],
      "name": "referencePools",
      "outputs": [
        {
          "internalType": "uint16",
          "name": "",
          "type": "uint16"
        }
      ],
      "stateMutability": "view",
      "type": "function"
    },
    {
      "inputs": [
        {
          "components": [
            {
              "internalType": "uint256",
              "name": "tokenId",
              "type": "uint256"
            },
            {
              "internalType": "uint128",
              "name": "liquidity",
              "type": "uint128"
            },
            {
              "internalType": "uint256",
              "name": "amount0Min",
              "type": "uint256"
            },
            {
              "internalType": "uint256",
              "name": "amount1Min",
              "type": "uint256"
            },
            {
              "internalType": "uint256",
              "name": "deadline",
              "type": "uint256"
            }
          ],
          "internalType": "struct INonfungiblePositionManager.DecreaseLiquidityParams",
          "name": "params",
          "type": "tuple"
        }
      ],
      "name": "removeLiquidityPosition",
      "outputs": [
        {
          "internalType": "uint256",
          "name": "amount0",
          "type": "uint256"
        },
        {
          "internalType": "uint256",
          "name": "amount1",
          "type": "uint256"
        }
      ],
      "stateMutability": "nonpayable",
      "type": "function"
    },
    {
      "inputs": [
        {
          "components": [
            {
              "internalType": "uint256",
              "name": "tokenId",
              "type": "uint256"
            },
            {
              "internalType": "uint128",
              "name": "liquidity",
              "type": "uint128"
            },
            {
              "internalType": "uint256",
              "name": "amount0Min",
              "type": "uint256"
            },
            {
              "internalType": "uint256",
              "name": "amount1Min",
              "type": "uint256"
            },
            {
              "internalType": "uint256",
              "name": "deadline",
              "type": "uint256"
            }
          ],
          "internalType": "struct INonfungiblePositionManager.DecreaseLiquidityParams",
          "name": "params",
          "type": "tuple"
        }
      ],
      "name": "removeLiquidityPositionAfterShutdown",
      "outputs": [
        {
          "internalType": "uint256",
          "name": "amount0",
          "type": "uint256"
        },
        {
          "internalType": "uint256",
          "name": "amount1",
          "type": "uint256"
        }
      ],
      "stateMutability": "nonpayable",
      "type": "function"
    },
    {
      "inputs": [
        {
          "internalType": "contract IUniswapV3Pool",
          "name": "pool",
          "type": "address"
        }
      ],
      "name": "removeReferencePool",
      "outputs": [],
      "stateMutability": "nonpayable",
      "type": "function"
    },
    {
      "inputs": [
        {
          "internalType": "bool",
          "name": "authorized",
          "type": "bool"
        }
      ],
      "name": "requireAuthorized",
      "outputs": [],
      "stateMutability": "pure",
      "type": "function"
    },
    {
      "inputs": [
        {
          "internalType": "uint256",
          "name": "__zhuCount",
          "type": "uint256"
        }
      ],
      "name": "requirePositionLargeEnough",
      "outputs": [],
      "stateMutability": "view",
      "type": "function"
    },
    {
      "inputs": [
        {
          "internalType": "uint256",
          "name": "penalty",
          "type": "uint256"
        }
      ],
      "name": "setLiquidationPenalty",
      "outputs": [],
      "stateMutability": "nonpayable",
      "type": "function"
    },
    {
      "inputs": [
        {
          "internalType": "uint256",
          "name": "decreasePortion",
          "type": "uint256"
        }
      ],
      "name": "setMaxLiquidityDecreasePerPeriod",
      "outputs": [],
      "stateMutability": "nonpayable",
      "type": "function"
    },
    {
      "inputs": [
        {
          "internalType": "uint64",
          "name": "min",
          "type": "uint64"
        }
      ],
      "name": "setMinLiquidityProvideDuration",
      "outputs": [],
      "stateMutability": "nonpayable",
      "type": "function"
    },
    {
      "inputs": [
        {
          "internalType": "uint128",
          "name": "min",
          "type": "uint128"
        }
      ],
      "name": "setMinZhuCountPerPosition",
      "outputs": [],
      "stateMutability": "nonpayable",
      "type": "function"
    },
    {
      "inputs": [
        {
          "internalType": "uint256",
          "name": "_protocol",
          "type": "uint256"
        },
        {
          "internalType": "uint256",
          "name": "_collateral",
          "type": "uint256"
        },
        {
          "internalType": "uint256",
          "name": "_reference",
          "type": "uint256"
        }
      ],
      "name": "setRewardsPortions",
      "outputs": [],
      "stateMutability": "nonpayable",
      "type": "function"
    },
    {
      "inputs": [
        {
          "internalType": "uint32",
          "name": "duration",
          "type": "uint32"
        }
      ],
      "name": "setTwapDuration",
      "outputs": [],
      "stateMutability": "nonpayable",
      "type": "function"
    },
    {
      "inputs": [],
      "name": "stop",
      "outputs": [],
      "stateMutability": "nonpayable",
      "type": "function"
    },
    {
      "inputs": [],
      "name": "stopped",
      "outputs": [
        {
          "internalType": "bool",
          "name": "",
          "type": "bool"
        }
      ],
      "stateMutability": "view",
      "type": "function"
    },
    {
      "inputs": [],
      "name": "twapDuration",
      "outputs": [
        {
          "internalType": "uint32",
          "name": "",
          "type": "uint32"
        }
      ],
      "stateMutability": "view",
      "type": "function"
    },
    {
      "inputs": [
        {
          "internalType": "bytes4",
          "name": "",
          "type": "bytes4"
        }
      ],
      "name": "validUpdate",
      "outputs": [
        {
          "internalType": "bool",
          "name": "",
          "type": "bool"
        }
      ],
      "stateMutability": "view",
      "type": "function"
    }
  ],
  "bytecode": "0x6101206040526001600660005090905567016345785d8a00006007600050909055670214e8348c4f0000600860005090905567016345785d8a00006009600050909055670905438e60010000600a60005090905567016345785d8a0000600b60005090905566d529ae9e860000600c600050909055683635c9adc5dea00000600d60006101000a8154816fffffffffffffffffffffffffffffffff02191690836fffffffffffffffffffffffffffffffff160217905550610708600d60106101000a81548167ffffffffffffffff021916908367ffffffffffffffff160217905550610e10600d60186101000a81548163ffffffff021916908363ffffffff1602179055506001601160006101000a81548161ffff021916908361ffff160217905550348015620001305760006000fd5b506040516200902d3803806200902d833981810160405281019062000156919062000392565b5b8282825b6138405b5b33600160006101000a81548173ffffffffffffffffffffffffffffffffffffffff021916908373ffffffffffffffffffffffffffffffffffffffff1602179055505b60018167ffffffffffffffff16620001bf620002d760201b60201c565b67ffffffffffffffff16811515620001d357fe5b040367ffffffffffffffff1660a08167ffffffffffffffff1660c01b815260080150508067ffffffffffffffff1660808167ffffffffffffffff1660c01b815260080150505b508273ffffffffffffffffffffffffffffffffffffffff1660e08173ffffffffffffffffffffffffffffffffffffffff1660601b815260140150508173ffffffffffffffffffffffffffffffffffffffff166101008173ffffffffffffffffffffffffffffffffffffffff1660601b815260140150508073ffffffffffffffffffffffffffffffffffffffff1660c08173ffffffffffffffffffffffffffffffffffffffff1660601b815260140150505b5050505b50505062000407565b6000620002f142620002f960201b62002f8017909060201c565b905080505b90565b600068010000000000000000821015156200037f576040517f08c379a00000000000000000000000000000000000000000000000000000000081526004018080602001828103825260118152602001807f6d6f7265207468616e203634206269747300000000000000000000000000000081526020015060200191505060405180910390fd5b81905062000388565b9190505662000406565b60006000600060608486031215620003a8578283fd5b8351620003b581620003e9565b809350506020840151620003c981620003e9565b809250506040840151620003dd81620003e9565b809150505b9250925092565b6001600160a01b03811681141515620004025760006000fd5b5b50565b5b60805160c01c60a05160c01c60c05160601c60e05160601c6101005160601c618b966200049760003980613235525080611a0452806133de5280613b5052806147f85280614d025280614df95280615a1152806167fc52806168cc5250806156dd5280615740525080612ebe5280613e94528061598e525080612ee25280613eb552806159af5250618b966000f3fe6080604052600436106103215760003560e01c806349447c00116101a55780638d545450116100ec578063c4e3a63b11610095578063e2e824751161006f578063e2e8247514610b5f578063eeb90ad114610b8b578063fb640e0e14610bb7578063ff0eccf614610bf557610321565b8063c4e3a63b14610adb578063d2ca211514610b07578063d5f3948814610b3357610321565b8063b848d568116100c6578063b848d56814610a5d578063c381c1e614610a87578063c433c80a14610ab157610321565b80638d545450146109c85780638efaed8914610a07578063a0e8ed3a14610a3157610321565b806372218da61161014e5780638396cf69116101285780638396cf691461094657806384333cc7146109725780638aea8f71146109b057610321565b806372218da61461089e57806375f12b21146108dc578063818bc6491461090857610321565b806363bf66d21161017f57806363bf66d21461080b5780636bb0d4851461084a5780636fbb4c481461087457610321565b806349447c00146107645780634b829573146107a35780635d130e89146107e157610321565b8063150147d71161026957806323f5589a1161021257806328323694116101ec57806328323694146106dc578063322c42da1461070c5780633beb9d331461073857610321565b806323f5589a1461065a57806326d89545146106865780632806a743146106b257610321565b80631afdbce4116102435780631afdbce4146105d75780631e0a221c146105ef578063237f822a1461061b57610321565b8063150147d71461054457806315398ae71461056e57806319ab453c146105ad57610321565b80630962ef79116102cb5780630dae9f52116102a55780630dae9f52146104b0578063113cf1ab146104dc5780631421b91c1461051a57610321565b80630962ef791461042e5780630a86f109146104585780630c340a241461048457610321565b806306040618116102fc57806306040618146103ac57806307da68f5146103d85780630806ce23146103f057610321565b806273235e14610327578063039d10e81461035857806303a853881461038257610321565b60006000fd5b610341600480360381019061033c9190617750565b610c21565b60405161034f9291906188df565b60405180910390f35b3480156103655760006000fd5b50610380600480360381019061037b919061754d565b610fe1565b005b34801561038f5760006000fd5b506103aa60048036038101906103a59190617b9b565b61157e565b005b3480156103b95760006000fd5b506103c261163c565b6040516103cf9190618a00565b60405180910390f35b3480156103e55760006000fd5b506103ee611654565b005b3480156103fd5760006000fd5b5061041860048036038101906104139190617ad1565b611674565b604051610425919061813f565b60405180910390f35b34801561043b5760006000fd5b5061045660048036038101906104519190617af8565b6116ac565b005b3480156104655760006000fd5b5061046e6118b3565b60405161047b919061887d565b60405180910390f35b3480156104915760006000fd5b5061049a6118bc565b6040516104a79190618117565b60405180910390f35b3480156104bd5760006000fd5b506104c66118e2565b6040516104d39190618a00565b60405180910390f35b3480156104e95760006000fd5b5061050460048036038101906104ff9190617416565b6118fc565b6040516105119190618103565b60405180910390f35b3480156105275760006000fd5b50610542600480360381019061053d9190617624565b611921565b005b3480156105515760006000fd5b5061056c600480360381019061056791906174ff565b611b1e565b005b34801561057b5760006000fd5b50610596600480360381019061059191906176a5565b611c11565b6040516105a4929190618958565b60405180910390f35b3480156105ba5760006000fd5b506105d560048036038101906105d0919061748a565b611d37565b005b3480156105e45760006000fd5b506105ed6120f5565b005b3480156105fc5760006000fd5b50610605612132565b604051610612919061887d565b60405180910390f35b3480156106285760006000fd5b50610643600480360381019061063e91906176a5565b61213b565b604051610651929190618958565b60405180910390f35b3480156106675760006000fd5b50610670612372565b60405161067d919061887d565b60405180910390f35b3480156106935760006000fd5b5061069c61237b565b6040516106a991906189cc565b60405180910390f35b3480156106bf5760006000fd5b506106da60048036038101906106d59190617af8565b612391565b005b6106f660048036038101906106f19190617735565b612412565b60405161070391906187f7565b60405180910390f35b3480156107195760006000fd5b5061072261267a565b60405161072f91906187f7565b60405180910390f35b3480156107455760006000fd5b5061074e61269c565b60405161075b919061887d565b60405180910390f35b3480156107715760006000fd5b5061078c600480360381019061078791906174ff565b6126a5565b60405161079a929190618a1c565b60405180910390f35b3480156107b05760006000fd5b506107cb60048036038101906107c691906174ff565b612704565b6040516107d8919061883f565b60405180910390f35b3480156107ee5760006000fd5b5061080960048036038101906108049190617a70565b61272a565b005b3480156108185760006000fd5b50610833600480360381019061082e91906176a5565b6127c1565b604051610841929190618958565b60405180910390f35b3480156108575760006000fd5b50610872600480360381019061086d9190617bfb565b6129c8565b005b3480156108815760006000fd5b5061089c60048036038101906108979190617af8565b612a4f565b005b3480156108ab5760006000fd5b506108c660048036038101906108c191906178db565b612aeb565b6040516108d3919061887d565b60405180910390f35b3480156108e95760006000fd5b506108f2612b0e565b6040516108ff9190618103565b60405180910390f35b3480156109155760006000fd5b50610930600480360381019061092b9190617ad1565b612b21565b60405161093d9190618103565b60405180910390f35b3480156109535760006000fd5b5061095c612b46565b604051610969919061883f565b60405180910390f35b34801561097f5760006000fd5b5061099a60048036038101906109959190617af8565b612b5a565b6040516109a7919061883f565b60405180910390f35b3480156109bd5760006000fd5b506109c6612b98565b005b3480156109d55760006000fd5b506109f060048036038101906109eb919061797d565b612d5e565b6040516109fe9291906187d5565b60405180910390f35b348015610a145760006000fd5b50610a2f6004803603810190610a2a91906173c8565b612d8a565b005b348015610a3e5760006000fd5b50610a47612d9d565b604051610a54919061887d565b60405180910390f35b348015610a6a5760006000fd5b50610a856004803603810190610a809190617af8565b612da6565b005b348015610a945760006000fd5b50610aaf6004803603810190610aaa91906174ff565b612db9565b005b348015610abe5760006000fd5b50610ad96004803603810190610ad49190617bca565b612e25565b005b348015610ae85760006000fd5b50610af1612ebc565b604051610afe9190618a00565b60405180910390f35b348015610b145760006000fd5b50610b1d612ee0565b604051610b2a9190618a00565b60405180910390f35b348015610b405760006000fd5b50610b49612f04565b604051610b569190617fac565b60405180910390f35b348015610b6c5760006000fd5b50610b75612f2a565b604051610b82919061887d565b60405180910390f35b348015610b985760006000fd5b50610ba1612f33565b604051610bae9190618a00565b60405180910390f35b348015610bc45760006000fd5b50610bdf6004803603810190610bda9190617942565b612f4d565b604051610bec9190618103565b60405180910390f35b348015610c025760006000fd5b50610c0b612f6c565b604051610c18919061883f565b60405180910390f35b60006000610c3361301263ffffffff16565b610c416130f163ffffffff16565b6000610c6085600001518660200151876040015161322a63ffffffff16565b9050601460005060008261ffff1661ffff16815260200190815260200160002060009054906101000a900460ff161515610ccf576040517f08c379a0000000000000000000000000000000000000000000000000000000008152600401610cc6906185f3565b60405180910390fd5b610cd7616f9b565b600060009054906101000a900473ffffffffffffffffffffffffffffffffffffffff1673ffffffffffffffffffffffffffffffffffffffff1663fa117b4d33876040518363ffffffff1660e01b8152600401610d34929190617fd4565b60206040518083038186803b158015610d4d5760006000fd5b505afa158015610d62573d600060003e3d6000fd5b505050506040513d601f19601f82011682018060405250810190610d8691906173ef565b816000019015159081151581526020015050806000015115610f2857600260009054906101000a900473ffffffffffffffffffffffffffffffffffffffff1673ffffffffffffffffffffffffffffffffffffffff1663afff2b3e33846040518363ffffffff1660e01b8152600401610dff929190618026565b60206040518083038186803b158015610e185760006000fd5b505afa158015610e2d573d600060003e3d6000fd5b505050506040513d601f19601f82011682018060405250810190610e5191906173ef565b151515610e93576040517f08c379a0000000000000000000000000000000000000000000000000000000008152600401610e8a906183bc565b60405180910390fd5b600260009054906101000a900473ffffffffffffffffffffffffffffffffffffffff1673ffffffffffffffffffffffffffffffffffffffff1663e276e8f3338460016040518463ffffffff1660e01b8152600401610ef393929190618059565b600060405180830381600087803b158015610f0e5760006000fd5b505af1158015610f23573d600060003e3d6000fd5b505050505b610f378661333963ffffffff16565b8094508195505050610f5b84838860600151896080015187866134bd63ffffffff16565b838261ffff163373ffffffffffffffffffffffffffffffffffffffff167f87c666eb8f5e2d1a47a2af419127c84ea830d86b5f75e12ca3dafa33323d912289606001518a6080015188604051610fb393929190618249565b60405180910390a48383935093505050610fca5650505b5b610fd961360263ffffffff16565b5b9250929050565b610fef61301263ffffffff16565b610ffd6130f163ffffffff16565b6000601360005060008573ffffffffffffffffffffffffffffffffffffffff1673ffffffffffffffffffffffffffffffffffffffff16815260200190815260200160002060009054906101000a900461ffff16905060008161ffff1611151561109b576040517f08c379a0000000000000000000000000000000000000000000000000000000008152600401611092906182ff565b60405180910390fd5b60003390506110a8616fcf565b600085859050905060008773ffffffffffffffffffffffffffffffffffffffff16630dfe16816040518163ffffffff1660e01b815260040160206040518083038186803b1580156110f95760006000fd5b505afa15801561110e573d600060003e3d6000fd5b505050506040513d601f19601f8201168201806040525081019061113291906172e8565b905060008873ffffffffffffffffffffffffffffffffffffffff1663d21220a76040518163ffffffff1660e01b815260040160206040518083038186803b15801561117d5760006000fd5b505afa158015611192573d600060003e3d6000fd5b505050506040513d601f19601f820116820180604052508101906111b691906172e8565b90506000600060006111cc61369663ffffffff16565b9050600060009054906101000a900473ffffffffffffffffffffffffffffffffffffffff1673ffffffffffffffffffffffffffffffffffffffff1663d3419bf36040518163ffffffff1660e01b815260040160206040518083038186803b1580156112375760006000fd5b505afa15801561124c573d600060003e3d6000fd5b505050506040513d601f19601f8201168201806040525081019061127091906174b1565b73ffffffffffffffffffffffffffffffffffffffff1663fcebd71c8d600d60189054906101000a900463ffffffff166040518363ffffffff1660e01b81526004016112bc929190618214565b60206040518083038186803b1580156112d55760006000fd5b505afa1580156112ea573d600060003e3d6000fd5b505050506040513d601f19601f8201168201806040525081019061130e91906175fd565b816060019060020b908160020b8152602001505060018160400190151590811515815260200150506000600090505b8681101561155e57600260009054906101000a900473ffffffffffffffffffffffffffffffffffffffff1673ffffffffffffffffffffffffffffffffffffffff1663f34348f18d8d84818110151561139157fe5b905060200201356040518263ffffffff1660e01b81526004016113b4919061887d565b6101206040518083038186803b1580156113ce5760006000fd5b505afa1580156113e3573d600060003e3d6000fd5b505050506040513d601f19601f820116820180604052508101906114079190617832565b975087508961ffff16886020015161ffff1614151561142557611551565b61143988836060015161375c63ffffffff16565b1561144357611551565b6114d06114558961378e63ffffffff16565b6040518060a001604052808f8f86818110151561146e57fe5b9050602002013581526020018b61010001516fffffffffffffffffffffffffffffffff16815260200160008152602001600081526020016114b3613a0663ffffffff16565b67ffffffffffffffff168152602001503085613a2163ffffffff16565b80945081955050506114ed868a8a60000151613bf363ffffffff16565b611502858a8a60000151613bf363ffffffff16565b8b8b82818110151561151057fe5b905060200201357fd606f13f519715bb4411edb6272f4f71cbf32d833557d19f0dfcf5a4b7f342968585604051611548929190618958565b60405180910390a25b808060010191505061133d565b505050505050505050505b5b61157861360263ffffffff16565b5b505050565b61158c613ce963ffffffff16565b6115cb6115b4826115a68587613d7e90919063ffffffff16565b613d7e90919063ffffffff16565b670de0b6b3a7640000613e0790919063ffffffff16565b600a6000508190909055508260076000508190909055508160086000508190909055508060096000508190909055507f8c217e55a331915ef034e15ec5419d5d1608219367483101082157e04ed9ab1483838360405161162d93929190618971565b60405180910390a15b5b505050565b600061164c613e9063ffffffff16565b905080505b90565b611662613ce963ffffffff16565b611670613f0963ffffffff16565b5b5b565b601260005060205280600052604060002060009150909054906101000a900473ffffffffffffffffffffffffffffffffffffffff1681565b6116ba61301263ffffffff16565b6116c8613f5363ffffffff16565b6000600260009054906101000a900473ffffffffffffffffffffffffffffffffffffffff1673ffffffffffffffffffffffffffffffffffffffff1663f34348f1836040518263ffffffff1660e01b8152600401611725919061887d565b6101206040518083038186803b15801561173f5760006000fd5b505afa158015611754573d600060003e3d6000fd5b505050506040513d601f19601f820116820180604052508101906117789190617832565b90506117bb816000015173ffffffffffffffffffffffffffffffffffffffff163373ffffffffffffffffffffffffffffffffffffffff1614613fa863ffffffff16565b600260009054906101000a900473ffffffffffffffffffffffffffffffffffffffff1673ffffffffffffffffffffffffffffffffffffffff1663022f6bb0836118098461378e63ffffffff16565b6040518363ffffffff1660e01b81526004016118269291906188be565b600060405180830381600087803b1580156118415760006000fd5b505af1158015611856573d600060003e3d6000fd5b50505050813373ffffffffffffffffffffffffffffffffffffffff167f8317cf6343eca83fa703bc7956cd094c3d1e5fbf6478631eea9b7a102737024e60405160405180910390a3505b5b6118af61360263ffffffff16565b5b50565b600a6000505481565b600060009054906101000a900473ffffffffffffffffffffffffffffffffffffffff1681565b600f60009054906101000a900467ffffffffffffffff1681565b600560005060205280600052604060002060009150909054906101000a900460ff1681565b61192f61301263ffffffff16565b61193d613f5363ffffffff16565b6119fe600260009054906101000a900473ffffffffffffffffffffffffffffffffffffffff1673ffffffffffffffffffffffffffffffffffffffff16631a206e918360000151336040518363ffffffff1660e01b81526004016119a192919061888f565b60206040518083038186803b1580156119ba5760006000fd5b505afa1580156119cf573d600060003e3d6000fd5b505050506040513d601f19601f820116820180604052508101906119f391906173ef565b613fa863ffffffff16565b600060007f000000000000000000000000000000000000000000000000000000000000000073ffffffffffffffffffffffffffffffffffffffff1663fc6f7865846040518263ffffffff1660e01b8152600401611a5b9190618632565b604060405180830381600087803b158015611a765760006000fd5b505af1158015611a8b573d600060003e3d6000fd5b505050506040513d601f19601f82011682018060405250810190611aaf9190617b75565b9150915082600001513373ffffffffffffffffffffffffffffffffffffffff167fc4400c332bf10f731e8a707ec7bd95cea012bfeca431edc03dc605c73c520a3c8484604051611b00929190618958565b60405180910390a350505b5b611b1a61360263ffffffff16565b5b50565b611b2c613ce963ffffffff16565b611b3a613fee63ffffffff16565b600060146000506000601360005060008573ffffffffffffffffffffffffffffffffffffffff1673ffffffffffffffffffffffffffffffffffffffff16815260200190815260200160002060009054906101000a900461ffff1661ffff1661ffff16815260200190815260200160002060006101000a81548160ff021916908315150217905550604051611bcd90617f4a565b60405180910390207f78caada2f560033c9479d8c5e33f045f2e611faebe6b6d8a73874c80ec2dd3a282604051611c049190617fac565b60405180910390a25b5b50565b60006000611c2361301263ffffffff16565b611c316130f163ffffffff16565b6000611c46846000013561419263ffffffff16565b9050611c89816000015173ffffffffffffffffffffffffffffffffffffffff163373ffffffffffffffffffffffffffffffffffffffff1614613fa863ffffffff16565b611c9c8160a0015161426263ffffffff16565b611ccf8185803603810190611cb191906176c0565b8360000151611cc461369663ffffffff16565b613a2163ffffffff16565b809350819450505083600001357f1bd2c24817047e88025a4688c0fba3903e750cc05d80857de4201f42ec59bcf28484604051611d0d929190618958565b60405180910390a282829250925050611d2256505b5b611d3161360263ffffffff16565b5b915091565b600160009054906101000a900473ffffffffffffffffffffffffffffffffffffffff1673ffffffffffffffffffffffffffffffffffffffff163373ffffffffffffffffffffffffffffffffffffffff16141515611d945760006000fd5b600160006101000a81549073ffffffffffffffffffffffffffffffffffffffff021916905580600060006101000a81548173ffffffffffffffffffffffffffffffffffffffff021916908373ffffffffffffffffffffffffffffffffffffffff160217905550600060009054906101000a900473ffffffffffffffffffffffffffffffffffffffff1673ffffffffffffffffffffffffffffffffffffffff16639624e83e6040518163ffffffff1660e01b815260040160206040518083038186803b158015611e635760006000fd5b505afa158015611e78573d600060003e3d6000fd5b505050506040513d601f19601f82011682018060405250810190611e9c9190617463565b600260006101000a81548173ffffffffffffffffffffffffffffffffffffffff021916908373ffffffffffffffffffffffffffffffffffffffff160217905550600060009054906101000a900473ffffffffffffffffffffffffffffffffffffffff1673ffffffffffffffffffffffffffffffffffffffff16638a15fcf36040518163ffffffff1660e01b815260040160206040518083038186803b158015611f455760006000fd5b505afa158015611f5a573d600060003e3d6000fd5b505050506040513d601f19601f82011682018060405250810190611f7e91906175d6565b600360006101000a81548173ffffffffffffffffffffffffffffffffffffffff021916908373ffffffffffffffffffffffffffffffffffffffff160217905550600060009054906101000a900473ffffffffffffffffffffffffffffffffffffffff1673ffffffffffffffffffffffffffffffffffffffff1663d478b0876040518163ffffffff1660e01b815260040160206040518083038186803b1580156120275760006000fd5b505afa15801561203c573d600060003e3d6000fd5b505050506040513d601f19601f8201168201806040525081019061206091906174d8565b600460006101000a81548173ffffffffffffffffffffffffffffffffffffffff021916908373ffffffffffffffffffffffffffffffffffffffff1602179055506120ae6142aa63ffffffff16565b8073ffffffffffffffffffffffffffffffffffffffff167f908408e307fc569b417f6cbec5d5a06f44a0a505ac0479b47d421a4b2fd6a1e660405160405180910390a25b50565b61210361301263ffffffff16565b612111613f5363ffffffff16565b61211f61452663ffffffff16565b5b5b61212f61360263ffffffff16565b5b565b60086000505481565b6000600061214d61301263ffffffff16565b61215b6130f163ffffffff16565b6002600060009054906101000a900473ffffffffffffffffffffffffffffffffffffffff1673ffffffffffffffffffffffffffffffffffffffff1663055ad42e6040518163ffffffff1660e01b815260040160206040518083038186803b1580156121c65760006000fd5b505afa1580156121db573d600060003e3d6000fd5b505050506040513d601f19601f820116820180604052508101906121ff9190617c49565b60ff168160ff1611151515612249576040517f08c379a0000000000000000000000000000000000000000000000000000000008152600401612240906184b8565b60405180910390fd5b600061225e856000013561419263ffffffff16565b90506122a1816000015173ffffffffffffffffffffffffffffffffffffffff163373ffffffffffffffffffffffffffffffffffffffff1614613fa863ffffffff16565b6122b48160a0015161426263ffffffff16565b6122d3858036038101906122c891906176c0565b6147f263ffffffff16565b80945081955050506123108186600001358760200160208101906122f79190617a70565b6123056148b163ffffffff16565b6148bd63ffffffff16565b84600001357ffafb1711250bf0d3906bfd9c4386a9a5a5fdf9ac1facdc9dfd2addad7d3f72e78585604051612346929190618958565b60405180910390a28283935093505061235b56505b5b505b61236c61360263ffffffff16565b5b915091565b600c6000505481565b600d60189054906101000a900463ffffffff1681565b61239f613ce963ffffffff16565b6706f05b59d3b20000811015156123b65760006000fd5b80600c6000508190909055506040516123ce90617e55565b60405180910390207f3a64504f0bc0c335e2aecb78638a257e0351a3fe0370861fd54ee4190b92093382604051612405919061887d565b60405180910390a25b5b50565b600061242261301263ffffffff16565b6124306130f163ffffffff16565b6002600060009054906101000a900473ffffffffffffffffffffffffffffffffffffffff1673ffffffffffffffffffffffffffffffffffffffff1663055ad42e6040518163ffffffff1660e01b815260040160206040518083038186803b15801561249b5760006000fd5b505afa1580156124b0573d600060003e3d6000fd5b505050506040513d601f19601f820116820180604052508101906124d49190617c49565b60ff168160ff161115151561251e576040517f08c379a0000000000000000000000000000000000000000000000000000000008152600401612515906184b8565b60405180910390fd5b6000612533846000013561419263ffffffff16565b9050612576816000015173ffffffffffffffffffffffffffffffffffffffff163373ffffffffffffffffffffffffffffffffffffffff1614613fa863ffffffff16565b60146000506000826020015161ffff1661ffff16815260200190815260200160002060009054906101000a900460ff1615156125e7576040517f08c379a00000000000000000000000000000000000000000000000000000000081526004016125de90618575565b60405180910390fd5b6125f684614cfa63ffffffff16565b9250825061261d818560000135856126126148b163ffffffff16565b614ed663ffffffff16565b83600001357fcc5b49b47bfd2f61894e4c8977343543aa054a11ae847be904355459ce55dcd98460405161265191906187f7565b60405180910390a28292505061266356505b5b505b61267461360263ffffffff16565b5b919050565b600d60009054906101000a90046fffffffffffffffffffffffffffffffff1681565b60076000505481565b600e6000506020528060005260406000206000915090508060000160009054906101000a900467ffffffffffffffff16908060000160089054906101000a900477ffffffffffffffffffffffffffffffffffffffffffffffff16905082565b601360005060205280600052604060002060009150909054906101000a900461ffff1681565b612738613ce963ffffffff16565b80600d60006101000a8154816fffffffffffffffffffffffffffffffff02191690836fffffffffffffffffffffffffffffffff16021790555060405161277d90617e86565b60405180910390207f5dcbeda12d93d481d59e4737a9a13ecea80702296bebdded1a20a76d645829c2826040516127b4919061881b565b60405180910390a25b5b50565b600060006127d361301263ffffffff16565b6127e1613f5363ffffffff16565b600060009054906101000a900473ffffffffffffffffffffffffffffffffffffffff1673ffffffffffffffffffffffffffffffffffffffff1663bf86d6906040518163ffffffff1660e01b815260040160206040518083038186803b15801561284a5760006000fd5b505afa15801561285f573d600060003e3d6000fd5b505050506040513d601f19601f8201168201806040525081019061288391906173ef565b15156128c4576040517f08c379a00000000000000000000000000000000000000000000000000000000081526004016128bb906185b4565b60405180910390fd5b60006128d9846000013561419263ffffffff16565b905061291c816000015173ffffffffffffffffffffffffffffffffffffffff163373ffffffffffffffffffffffffffffffffffffffff1614613fa863ffffffff16565b612924616f9b565b600181602001901515908115158152602001505061295e828680360381019061294d91906176c0565b846000015184613a2163ffffffff16565b809450819550505084600001357f1bd2c24817047e88025a4688c0fba3903e750cc05d80857de4201f42ec59bcf2858560405161299c929190618958565b60405180910390a283839350935050506129b35650505b5b6129c261360263ffffffff16565b5b915091565b6129d6613ce963ffffffff16565b80600d60106101000a81548167ffffffffffffffff021916908367ffffffffffffffff160217905550604051612a0b90617f19565b60405180910390207f8c68b65494af3e62909307c1f245424bec70c9d997e783ed41fdee7f54d7b4c082604051612a4291906189e4565b60405180910390a25b5b50565b612a5d613ce963ffffffff16565b80600b6000508190909055506000600b60005054111515612a7e5760006000fd5b670de0b6b3a7640000600b6000505411151515612a9b5760006000fd5b604051612aa790617ee8565b60405180910390207f3a64504f0bc0c335e2aecb78638a257e0351a3fe0370861fd54ee4190b92093382604051612ade919061887d565b60405180910390a25b5b50565b6000612aff858585856152f063ffffffff16565b9050612b06565b949350505050565b600060149054906101000a900460ff1681565b601460005060205280600052604060002060009150909054906101000a900460ff1681565b600f60089054906101000a900461ffff1681565b60106000508181548110612b6d57600080fd5b90600052602060002090601091828204019190066002025b9150909054906101000a900461ffff1681565b612ba6613ce963ffffffff16565b612c56600060009054906101000a900473ffffffffffffffffffffffffffffffffffffffff1673ffffffffffffffffffffffffffffffffffffffff16638396cf696040518163ffffffff1660e01b815260040160206040518083038186803b158015612c125760006000fd5b505afa158015612c27573d600060003e3d6000fd5b505050506040513d601f19601f82011682018060405250810190612c4b9190617526565b61545163ffffffff16565b600f60086101000a81548161ffff021916908361ffff160217905550612d22600060009054906101000a900473ffffffffffffffffffffffffffffffffffffffff1673ffffffffffffffffffffffffffffffffffffffff1663ff0eccf66040518163ffffffff1660e01b815260040160206040518083038186803b158015612cde5760006000fd5b505afa158015612cf3573d600060003e3d6000fd5b505050506040513d601f19601f82011682018060405250810190612d179190617526565b61545163ffffffff16565b600f600a6101000a81548161ffff021916908361ffff160217905550612d4c613fee63ffffffff16565b612d5a61452663ffffffff16565b5b5b565b612d66616fcf565b6000612d7985858561550d63ffffffff16565b91509150612d82565b935093915050565b612d9981613fa863ffffffff16565b5b50565b60096000505481565b612db58161564763ffffffff16565b5b50565b612dc7613ce963ffffffff16565b612dd5613fee63ffffffff16565b604051612de190617f7b565b60405180910390207f78caada2f560033c9479d8c5e33f045f2e611faebe6b6d8a73874c80ec2dd3a282604051612e189190617fac565b60405180910390a25b5b50565b612e33613ce963ffffffff16565b61012c8163ffffffff1610151515612e4b5760006000fd5b80600d60186101000a81548163ffffffff021916908363ffffffff160217905550604051612e7890617eb7565b60405180910390207f182c40dc868824a9ba74a72504cd7ec63c58ed862a8ffe9f935d6ff47bd3731482604051612eaf91906189b4565b60405180910390a25b5b50565b7f000000000000000000000000000000000000000000000000000000000000000081565b7f000000000000000000000000000000000000000000000000000000000000000081565b600160009054906101000a900473ffffffffffffffffffffffffffffffffffffffff1681565b600b6000505481565b600d60109054906101000a900467ffffffffffffffff1681565b6000612f5f838361375c63ffffffff16565b9050612f66565b92915050565b600f600a9054906101000a900461ffff1681565b60006801000000000000000082101515613005576040517f08c379a00000000000000000000000000000000000000000000000000000000081526004018080602001828103825260118152602001807f6d6f7265207468616e203634206269747300000000000000000000000000000081526020015060200191505060405180910390fd5b81905061300d565b919050565b600460009054906101000a900473ffffffffffffffffffffffffffffffffffffffff1673ffffffffffffffffffffffffffffffffffffffff1663e97dcb626040518163ffffffff1660e01b8152600401600060405180830381600087803b15801561307d5760006000fd5b505af1158015613092573d600060003e3d6000fd5b505050506002600660005054141515156130e1576040517f08c379a00000000000000000000000000000000000000000000000000000000081526004016130d89061843a565b60405180910390fd5b600260066000508190909055505b565b600060149054906101000a900460ff16151515613143576040517f08c379a000000000000000000000000000000000000000000000000000000000815260040161313a906184f7565b60405180910390fd5b600060009054906101000a900473ffffffffffffffffffffffffffffffffffffffff1673ffffffffffffffffffffffffffffffffffffffff1663bf86d6906040518163ffffffff1660e01b815260040160206040518083038186803b1580156131ac5760006000fd5b505afa1580156131c1573d600060003e3d6000fd5b505050506040513d601f19601f820116820180604052508101906131e591906173ef565b151515613227576040517f08c379a000000000000000000000000000000000000000000000000000000000815260040161321e90618281565b60405180910390fd5b5b565b6000601360005060007f000000000000000000000000000000000000000000000000000000000000000073ffffffffffffffffffffffffffffffffffffffff16631698ee828787876040518463ffffffff1660e01b8152600401613290939291906180c4565b60206040518083038186803b1580156132a95760006000fd5b505afa1580156132be573d600060003e3d6000fd5b505050506040513d601f19601f820116820180604052508101906132e291906172e8565b73ffffffffffffffffffffffffffffffffffffffff1673ffffffffffffffffffffffffffffffffffffffff16815260200190815260200160002060009054906101000a900461ffff169050613332565b9392505050565b60006000600083600001519050600084602001519050600033905061336983828860a001516156cb63ffffffff16565b61337e82828860c001516156cb63ffffffff16565b600260009054906101000a900473ffffffffffffffffffffffffffffffffffffffff1686610120019073ffffffffffffffffffffffffffffffffffffffff16908173ffffffffffffffffffffffffffffffffffffffff16815260200150507f000000000000000000000000000000000000000000000000000000000000000073ffffffffffffffffffffffffffffffffffffffff166388316456876040518263ffffffff1660e01b81526004016134359190618723565b608060405180830381600087803b1580156134505760006000fd5b505af1158015613465573d600060003e3d6000fd5b505050506040513d601f19601f820116820180604052508101906134899190617b30565b90505080955081965050506134a483826157e063ffffffff16565b6134b482826157e063ffffffff16565b5050505b915091565b600260009054906101000a900473ffffffffffffffffffffffffffffffffffffffff1673ffffffffffffffffffffffffffffffffffffffff16639586fe8d87878787336040518663ffffffff1660e01b815260040161352095949392919061890a565b600060405180830381600087803b15801561353b5760006000fd5b505af1158015613550573d600060003e3d6000fd5b5050505061355c616fcf565b33816000019073ffffffffffffffffffffffffffffffffffffffff16908173ffffffffffffffffffffffffffffffffffffffff168152602001505085816020019061ffff16908161ffff1681526020015050848160c0019060020b908160020b81526020015050838160e0019060020b908160020b815260200150506135f86135ea8261378e63ffffffff16565b888585614ed663ffffffff16565b505b505050505050565b60016006600050819090905550600460009054906101000a900473ffffffffffffffffffffffffffffffffffffffff1673ffffffffffffffffffffffffffffffffffffffff1663e9fad8ee6040518163ffffffff1660e01b8152600401600060405180830381600087803b15801561367a5760006000fd5b505af115801561368f573d600060003e3d6000fd5b505050505b565b61369e616f9b565b6002600060009054906101000a900473ffffffffffffffffffffffffffffffffffffffff1673ffffffffffffffffffffffffffffffffffffffff1663055ad42e6040518163ffffffff1660e01b815260040160206040518083038186803b1580156137095760006000fd5b505afa15801561371e573d600060003e3d6000fd5b505050506040513d601f19601f820116820180604052508101906137429190617c49565b60ff16108160000190151590811515815260200150505b90565b60008160020b8360c0015160020b1315801561378157508260e0015160020b8260020b125b9050613788565b92915050565b613796616fcf565b60006137a661589063ffffffff16565b905060006137b98261598763ffffffff16565b9050600084608001519050600060008267ffffffffffffffff16146137ec576137e78261598763ffffffff16565b6137ef565b60005b90508067ffffffffffffffff168367ffffffffffffffff1611151561381a5785945050505050613a01565b61382861452663ffffffff16565b60006138eb87600260009054906101000a900473ffffffffffffffffffffffffffffffffffffffff1673ffffffffffffffffffffffffffffffffffffffff166351ad51f78a602001516040518263ffffffff1660e01b815260040161388d919061883f565b60406040518083038186803b1580156138a65760006000fd5b505afa1580156138bb573d600060003e3d6000fd5b505050506040513d601f19601f820116820180604052508101906138df9190617a24565b8761550d63ffffffff16565b809250819750505060008111156139ef57600060009054906101000a900473ffffffffffffffffffffffffffffffffffffffff1673ffffffffffffffffffffffffffffffffffffffff1663b216cd948760000151836040518363ffffffff1660e01b815260040161395d929190618095565b600060405180830381600087803b1580156139785760006000fd5b505af115801561398d573d600060003e3d6000fd5b505050508367ffffffffffffffff16866000015173ffffffffffffffffffffffffffffffffffffffff167f1eb16395a04fa619de6652884eb223f33b9598c6b730904df55d7e9e35211f45836040516139e6919061887d565b60405180910390a35b8595505050505050613a015650505050505b919050565b6000613a1942612f80909063ffffffff16565b905080505b90565b6000600085610100015185602001906fffffffffffffffffffffffffffffffff1690816fffffffffffffffffffffffffffffffff1681526020015050613a7585600001518760000151615a0f63ffffffff16565b613a84856147f263ffffffff16565b8092508193505050613aa0856000015185615a0f63ffffffff16565b613abb868660000151886101000151866148bd63ffffffff16565b600260009054906101000a900473ffffffffffffffffffffffffffffffffffffffff1673ffffffffffffffffffffffffffffffffffffffff166326879a4e86600001516040518263ffffffff1660e01b8152600401613b1a919061887d565b600060405180830381600087803b158015613b355760006000fd5b505af1158015613b4a573d600060003e3d6000fd5b505050507f000000000000000000000000000000000000000000000000000000000000000073ffffffffffffffffffffffffffffffffffffffff166342966c6886600001516040518263ffffffff1660e01b8152600401613bab919061887d565b600060405180830381600087803b158015613bc65760006000fd5b505af1158015613bdb573d600060003e3d6000fd5b50505050818191509150613bea565b94509492505050565b60008373ffffffffffffffffffffffffffffffffffffffff166370a08231306040518263ffffffff1660e01b8152600401613c2e9190617fac565b60206040518083038186803b158015613c475760006000fd5b505afa158015613c5c573d600060003e3d6000fd5b505050506040513d601f19601f82011682018060405250810190613c809190617b14565b90506000811415613c915750613ce4565b6000613cab600c6000505483615b4090919063ffffffff16565b9050613cd08584613cc58486613e0790919063ffffffff16565b615b6663ffffffff16565b613ce1858583615b6663ffffffff16565b50505b505050565b600060009054906101000a900473ffffffffffffffffffffffffffffffffffffffff1673ffffffffffffffffffffffffffffffffffffffff163373ffffffffffffffffffffffffffffffffffffffff16141515613d7b576040517f08c379a0000000000000000000000000000000000000000000000000000000008152600401613d72906183fb565b60405180910390fd5b5b565b60008282840191508110151515613e00576040517f08c379a000000000000000000000000000000000000000000000000000000000815260040180806020018281038252600c8152602001807f6164642d6f766572666c6f77000000000000000000000000000000000000000081526020015060200191505060405180910390fd5b5b92915050565b60008282840391508111151515613e89576040517f08c379a000000000000000000000000000000000000000000000000000000000815260040180806020018281038252600d8152602001807f7375622d756e646572666c6f770000000000000000000000000000000000000081526020015060200191505060405180910390fd5b5b92915050565b60007f00000000000000000000000000000000000000000000000000000000000000007f000000000000000000000000000000000000000000000000000000000000000067ffffffffffffffff16613eec613a0663ffffffff16565b67ffffffffffffffff16811515613eff57fe5b0403905080505b90565b6001600060146101000a81548160ff0219169083151502179055507f7acc84e34091ae817647a4c49116f5cc07f319078ba80f8f5fde37ea7e25cbd660405160405180910390a15b565b600060149054906101000a900460ff16151515613fa5576040517f08c379a0000000000000000000000000000000000000000000000000000000008152600401613f9c906184f7565b60405180910390fd5b5b565b801515613fea576040517f08c379a0000000000000000000000000000000000000000000000000000000008152600401613fe1906183fb565b60405180910390fd5b5b50565b613ffc61452663ffffffff16565b6000600060009054906101000a900473ffffffffffffffffffffffffffffffffffffffff1673ffffffffffffffffffffffffffffffffffffffff1663ab658be26040518163ffffffff1660e01b815260040160006040518083038186803b1580156140675760006000fd5b505afa15801561407c573d600060003e3d6000fd5b505050506040513d6000823e3d601f19601f820116820180604052508101906140a5919061730f565b9050805167ffffffffffffffff811180156140c05760006000fd5b506040519080825280602002602001820160405280156140ef5781602001602082028036833780820191505090505b506010600050908051906020019061410892919061705a565b506000600090505b815181101561418d5761413d828281518110151561412a57fe5b602002602001015161545163ffffffff16565b60106000508281548110151561414f57fe5b90600052602060002090601091828204019190066002025b6101000a81548161ffff021916908361ffff1602179055505b8080600101915050614110565b50505b565b61419a616fcf565b614256600260009054906101000a900473ffffffffffffffffffffffffffffffffffffffff1673ffffffffffffffffffffffffffffffffffffffff1663f34348f1846040518263ffffffff1660e01b81526004016141f8919061887d565b6101206040518083038186803b1580156142125760006000fd5b505afa158015614227573d600060003e3d6000fd5b505050506040513d601f19601f8201168201806040525081019061424b9190617832565b61378e63ffffffff16565b905061425d565b919050565b43811015156142a6576040517f08c379a000000000000000000000000000000000000000000000000000000000815260040161429d90618536565b60405180910390fd5b5b50565b60006040518060c001604052806303a8538860e01b7bffffffffffffffffffffffffffffffffffffffffffffffffffffffff19167bffffffffffffffffffffffffffffffffffffffffffffffffffffffff19168152602001636fbb4c4860e01b7bffffffffffffffffffffffffffffffffffffffffffffffffffffffff19167bffffffffffffffffffffffffffffffffffffffffffffffffffffffff19168152602001635d130e8960e01b7bffffffffffffffffffffffffffffffffffffffffffffffffffffffff19167bffffffffffffffffffffffffffffffffffffffffffffffffffffffff1916815260200163c433c80a60e01b7bffffffffffffffffffffffffffffffffffffffffffffffffffffffff19167bffffffffffffffffffffffffffffffffffffffffffffffffffffffff19168152602001632806a74360e01b7bffffffffffffffffffffffffffffffffffffffffffffffffffffffff19167bffffffffffffffffffffffffffffffffffffffffffffffffffffffff19168152602001636bb0d48560e01b7bffffffffffffffffffffffffffffffffffffffffffffffffffffffff19167bffffffffffffffffffffffffffffffffffffffffffffffffffffffff1916815260200150905060008150600690506000600090505b818110156145205760016005600050600085846006811015156144aa57fe5b60200201517bffffffffffffffffffffffffffffffffffffffffffffffffffffffff19167bffffffffffffffffffffffffffffffffffffffffffffffffffffffff1916815260200190815260200160002060006101000a81548160ff0219169083151502179055505b808060010191505061448b565b5050505b565b6000614536615d7263ffffffff16565b9050600f60009054906101000a900467ffffffffffffffff1667ffffffffffffffff168167ffffffffffffffff1611151561457157506147f0565b6000600f60009054906101000a900467ffffffffffffffff1682039050600061384067ffffffffffffffff16620151808115156145aa57fe5b0467ffffffffffffffff166146738367ffffffffffffffff16600060009054906101000a900473ffffffffffffffffffffffffffffffffffffffff1673ffffffffffffffffffffffffffffffffffffffff1663c375e6ed6040518163ffffffff1660e01b815260040160206040518083038186803b15801561462c5760006000fd5b505afa158015614641573d600060003e3d6000fd5b505050506040513d601f19601f820116820180604052508101906146659190617b14565b615d9890919063ffffffff16565b81151561467c57fe5b0490506146b7600f60089054906101000a900461ffff166146ab60076000505484615b4090919063ffffffff16565b84615e3663ffffffff16565b6146ef600f600a9054906101000a900461ffff166146e360086000505484615b4090919063ffffffff16565b84615e3663ffffffff16565b6000601060005080549050905060008161471760096000505485615b4090919063ffffffff16565b81151561472057fe5b0490506000600090505b828110156147875761477960106000508281548110151561474757fe5b90600052602060002090601091828204019190066002025b9054906101000a900461ffff168387615e3663ffffffff16565b5b808060010191505061472a565b5084600f60006101000a81548167ffffffffffffffff021916908367ffffffffffffffff1602179055507f095a67d1e9698fe0eebf9cff79a22f6423cebcb4e386a0bdd7e12330d86381ed83856040516147e2929190618991565b60405180910390a150505050505b565b600060007f000000000000000000000000000000000000000000000000000000000000000073ffffffffffffffffffffffffffffffffffffffff16630c49ccbe846040518263ffffffff1660e01b815260040161484f9190618691565b604060405180830381600087803b15801561486a5760006000fd5b505af115801561487f573d600060003e3d6000fd5b505050506040513d601f19601f820116820180604052508101906148a39190617b75565b915091506148ac565b915091565b6148b9616f9b565b5b90565b6000846020015190506000601260005060008361ffff1661ffff16815260200190815260200160002060009054906101000a900473ffffffffffffffffffffffffffffffffffffffff16905060008360400151614a5957600060009054906101000a900473ffffffffffffffffffffffffffffffffffffffff1673ffffffffffffffffffffffffffffffffffffffff1663d3419bf36040518163ffffffff1660e01b815260040160206040518083038186803b15801561497d5760006000fd5b505afa158015614992573d600060003e3d6000fd5b505050506040513d601f19601f820116820180604052508101906149b691906174b1565b73ffffffffffffffffffffffffffffffffffffffff1663fcebd71c83600d60189054906101000a900463ffffffff166040518363ffffffff1660e01b8152600401614a02929190618214565b60206040518083038186803b158015614a1b5760006000fd5b505afa158015614a30573d600060003e3d6000fd5b505050506040513d601f19601f82011682018060405250810190614a5491906175fd565b614a5f565b83606001515b90506000614a9e888484614a938a8d61010001516fffffffffffffffffffffffffffffffff166160c890919063ffffffff16565b6152f063ffffffff16565b9050614aaf8161564763ffffffff16565b8460200151158015614acd5750614acc888361375c63ffffffff16565b5b8015614af15750600f60089054906101000a900461ffff1661ffff168461ffff1614155b15614b2a57614b0783600061617563ffffffff16565b614b2983876fffffffffffffffffffffffffffffffff1661640d63ffffffff16565b5b846000015115614bcd57600260009054906101000a900473ffffffffffffffffffffffffffffffffffffffff1673ffffffffffffffffffffffffffffffffffffffff1663e276e8f389600001518660006040518463ffffffff1660e01b8152600401614b9893929190618059565b600060405180830381600087803b158015614bb35760006000fd5b505af1158015614bc8573d600060003e3d6000fd5b505050505b600260009054906101000a900473ffffffffffffffffffffffffffffffffffffffff1673ffffffffffffffffffffffffffffffffffffffff1663530c1ccb84886040518363ffffffff1660e01b8152600401614c2a9291906181d3565b600060405180830381600087803b158015614c455760006000fd5b505af1158015614c5a573d600060003e3d6000fd5b50505050600260009054906101000a900473ffffffffffffffffffffffffffffffffffffffff1673ffffffffffffffffffffffffffffffffffffffff1663022f6bb0888a6040518363ffffffff1660e01b8152600401614cbb9291906188be565b600060405180830381600087803b158015614cd65760006000fd5b505af1158015614ceb573d600060003e3d6000fd5b50505050505050505b50505050565b6000600060007f000000000000000000000000000000000000000000000000000000000000000073ffffffffffffffffffffffffffffffffffffffff166399fbab8885600001356040518263ffffffff1660e01b8152600401614d5d919061887d565b6101806040518083038186803b158015614d775760006000fd5b505afa158015614d8c573d600060003e3d6000fd5b505050506040513d601f19601f82011682018060405250810190614db09190617c70565b5050505050505050935093505050600060008383915091506000339050614de2838289602001356156cb63ffffffff16565b614df7828289604001356156cb63ffffffff16565b7f000000000000000000000000000000000000000000000000000000000000000073ffffffffffffffffffffffffffffffffffffffff1663219f5d17886040518263ffffffff1660e01b8152600401614e5091906186de565b606060405180830381600087803b158015614e6b5760006000fd5b505af1158015614e80573d600060003e3d6000fd5b505050506040513d601f19601f82011682018060405250810190614ea49190617a97565b90505080965050614ebb83826157e063ffffffff16565b614ecb82826157e063ffffffff16565b50505050505b919050565b6000846020015190506000601260005060008361ffff1661ffff16815260200190815260200160002060009054906101000a900473ffffffffffffffffffffffffffffffffffffffff1690506000600060009054906101000a900473ffffffffffffffffffffffffffffffffffffffff1673ffffffffffffffffffffffffffffffffffffffff1663d3419bf36040518163ffffffff1660e01b815260040160206040518083038186803b158015614f8d5760006000fd5b505afa158015614fa2573d600060003e3d6000fd5b505050506040513d601f19601f82011682018060405250810190614fc691906174b1565b73ffffffffffffffffffffffffffffffffffffffff1663fcebd71c83600d60189054906101000a900463ffffffff166040518363ffffffff1660e01b8152600401615012929190618214565b60206040518083038186803b15801561502b5760006000fd5b505afa158015615040573d600060003e3d6000fd5b505050506040513d601f19601f8201168201806040525081019061506491906175fd565b905060006150a38884846150988a8d61010001516fffffffffffffffffffffffffffffffff1661659b90919063ffffffff16565b6152f063ffffffff16565b90506150b5888361375c63ffffffff16565b15156150f6576040517f08c379a00000000000000000000000000000000000000000000000000000000081526004016150ed906182c0565b60405180910390fd5b6151058161564763ffffffff16565b84600001511561517057683ba1910bf341b000006fffffffffffffffffffffffffffffffff16811115151561516f576040517f08c379a00000000000000000000000000000000000000000000000000000000081526004016151669061837d565b60405180910390fd5b5b600f60089054906101000a900461ffff1661ffff168461ffff161415156151b4576151b383876fffffffffffffffffffffffffffffffff1661617563ffffffff16565b5b600260009054906101000a900473ffffffffffffffffffffffffffffffffffffffff1673ffffffffffffffffffffffffffffffffffffffff16631428561d84886040518363ffffffff1660e01b81526004016152119291906181d3565b600060405180830381600087803b15801561522c5760006000fd5b505af1158015615241573d600060003e3d6000fd5b50505050438860a00190908181526020015050600260009054906101000a900473ffffffffffffffffffffffffffffffffffffffff1673ffffffffffffffffffffffffffffffffffffffff1663022f6bb0888a6040518363ffffffff1660e01b81526004016152b19291906188be565b600060405180830381600087803b1580156152cc5760006000fd5b505af11580156152e1573d600060003e3d6000fd5b50505050505050505b50505050565b6000600060009054906101000a900473ffffffffffffffffffffffffffffffffffffffff1673ffffffffffffffffffffffffffffffffffffffff1663d3419bf36040518163ffffffff1660e01b815260040160206040518083038186803b15801561535b5760006000fd5b505afa158015615370573d600060003e3d6000fd5b505050506040513d601f19601f8201168201806040525081019061539491906174b1565b73ffffffffffffffffffffffffffffffffffffffff16637ce3b2dc85858860c001518960e0015187600d60189054906101000a900463ffffffff166040518763ffffffff1660e01b81526004016153f096959493929190618167565b60206040518083038186803b1580156154095760006000fd5b505afa15801561541e573d600060003e3d6000fd5b505050506040513d601f19601f820116820180604052508101906154429190617b14565b9050615449565b949350505050565b6000601360005060008373ffffffffffffffffffffffffffffffffffffffff1673ffffffffffffffffffffffffffffffffffffffff16815260200190815260200160002060009054906101000a900461ffff169050805060008161ffff1614156154c9576154c48261664863ffffffff16565b905080505b6001601460005060008361ffff1661ffff16815260200190815260200160002060006101000a81548160ff021916908315150217905550809050615508565b919050565b615515616fcf565b6000849150815060008261010001516fffffffffffffffffffffffffffffffff1611156155eb576155e661556083608001518567ffffffffffffffff1661692490919063ffffffff16565b67ffffffffffffffff1661384067ffffffffffffffff166155d761559586606001518960000151613e0790919063ffffffff16565b6155b087604001518a60200151613e0790919063ffffffff16565b8761010001516fffffffffffffffffffffffffffffffff166169c19092919063ffffffff16565b6169c19092919063ffffffff16565b905080505b836000015182606001909081815260200150508360200151826040019090818152602001505082826080019067ffffffffffffffff16908167ffffffffffffffff168152602001505081819150915061563f565b935093915050565b60008114806156865750600d60009054906101000a90046fffffffffffffffffffffffffffffffff166fffffffffffffffffffffffffffffffff168110155b15156156c7576040517f08c379a00000000000000000000000000000000000000000000000000000000081526004016156be90618479565b60405180910390fd5b5b50565b60008114156156d9576157db565b60007f000000000000000000000000000000000000000000000000000000000000000073ffffffffffffffffffffffffffffffffffffffff168473ffffffffffffffffffffffffffffffffffffffff161480156157395750814791508110155b156157c6577f000000000000000000000000000000000000000000000000000000000000000073ffffffffffffffffffffffffffffffffffffffff1663d0e30db0826040518263ffffffff1660e01b81526004016000604051808303818588803b1580156157a75760006000fd5b505af11580156157bc573d600060003e3d6000fd5b50505050506157d9565b6157d884843085616ac263ffffffff16565b5b505b505050565b60008273ffffffffffffffffffffffffffffffffffffffff166370a08231306040518263ffffffff1660e01b815260040161581b9190617fac565b60206040518083038186803b1580156158345760006000fd5b505afa158015615849573d600060003e3d6000fd5b505050506040513d601f19601f8201168201806040525081019061586d9190617b14565b9050600081111561588a57615889838383615b6663ffffffff16565b5b505b5050565b60006158a0613a0663ffffffff16565b905080506000600060009054906101000a900473ffffffffffffffffffffffffffffffffffffffff1673ffffffffffffffffffffffffffffffffffffffff1663585690816040518163ffffffff1660e01b815260040160206040518083038186803b15801561590f5760006000fd5b505afa158015615924573d600060003e3d6000fd5b505050506040513d601f19601f820116820180604052508101906159489190617c22565b905060008167ffffffffffffffff1611801561597757508167ffffffffffffffff168167ffffffffffffffff16105b156159825780915081505b505b90565b6000615a057f00000000000000000000000000000000000000000000000000000000000000007f000000000000000000000000000000000000000000000000000000000000000067ffffffffffffffff168467ffffffffffffffff168115156159ec57fe5b0467ffffffffffffffff1661692490919063ffffffff16565b905080505b919050565b7f000000000000000000000000000000000000000000000000000000000000000073ffffffffffffffffffffffffffffffffffffffff1663fc6f786560405180608001604052808581526020018473ffffffffffffffffffffffffffffffffffffffff1681526020016fffffffffffffffffffffffffffffffff6fffffffffffffffffffffffffffffffff1681526020016fffffffffffffffffffffffffffffffff6fffffffffffffffffffffffffffffffff168152602001506040518263ffffffff1660e01b8152600401615ae59190618632565b604060405180830381600087803b158015615b005760006000fd5b505af1158015615b15573d600060003e3d6000fd5b505050506040513d601f19601f82011682018060405250810190615b399190617b75565b50505b5050565b6000615b5b8383670de0b6b3a76400006169c163ffffffff16565b905080505b92915050565b600060008473ffffffffffffffffffffffffffffffffffffffff1663a9059cbb60e01b8585604051602401808373ffffffffffffffffffffffffffffffffffffffff16815260200182815260200192505050604051602081830303815290604052907bffffffffffffffffffffffffffffffffffffffffffffffffffffffff19166020820180517bffffffffffffffffffffffffffffffffffffffffffffffffffffffff83818316178352505050506040518082805190602001908083835b602083101515615c4b57805182525b602082019150602081019050602083039250615c25565b6001836020036101000a0380198251168184511680821785525050505050509050019150506000604051808303816000865af19150503d8060008114615cad576040519150601f19603f3d011682016040523d82523d6000602084013e615cb2565b606091505b5091509150818015615cf35750600081511480615cf25750808060200190516020811015615ce05760006000fd5b81019080805190602001909291905050505b5b1515615d6a576040517f08c379a00000000000000000000000000000000000000000000000000000000081526004018080602001828103825260028152602001807f535400000000000000000000000000000000000000000000000000000000000081526020015060200191505060405180910390fd5b50505b505050565b6000615d90615d8561589063ffffffff16565b61598763ffffffff16565b905080505b90565b60006000821480615db857508282838502925082811515615db557fe5b04145b1515615e2f576040517f08c379a000000000000000000000000000000000000000000000000000000000815260040180806020018281038252600c8152602001807f6d756c2d6f766572666c6f77000000000000000000000000000000000000000081526020015060200191505060405180910390fd5b5b92915050565b6000600260009054906101000a900473ffffffffffffffffffffffffffffffffffffffff1673ffffffffffffffffffffffffffffffffffffffff166351ad51f7856040518263ffffffff1660e01b8152600401615e93919061883f565b60406040518083038186803b158015615eac5760006000fd5b505afa158015615ec1573d600060003e3d6000fd5b505050506040513d601f19601f82011682018060405250810190615ee59190617a24565b9050600260009054906101000a900473ffffffffffffffffffffffffffffffffffffffff1673ffffffffffffffffffffffffffffffffffffffff1663f7099607856040518060400160405280615f48888760000151613d7e90919063ffffffff16565b815260200161606a6160578867ffffffffffffffff16600260009054906101000a900473ffffffffffffffffffffffffffffffffffffffff1673ffffffffffffffffffffffffffffffffffffffff1663a135ef17601260005060008f61ffff1661ffff16815260200190815260200160002060009054906101000a900473ffffffffffffffffffffffffffffffffffffffff166040518263ffffffff1660e01b8152600401615ff7919061813f565b60206040518083038186803b1580156160105760006000fd5b505afa158015616025573d600060003e3d6000fd5b505050506040513d601f19601f820116820180604052508101906160499190617b14565b615d9890919063ffffffff16565b8760200151613d7e90919063ffffffff16565b8152602001506040518363ffffffff1660e01b815260040161608d929190618855565b600060405180830381600087803b1580156160a85760006000fd5b505af11580156160bd573d600060003e3d6000fd5b50505050505b505050565b6000826fffffffffffffffffffffffffffffffff168284039150816fffffffffffffffffffffffffffffffff161115151561616e576040517f08c379a000000000000000000000000000000000000000000000000000000000815260040180806020018281038252600d8152602001807f7375622d756e646572666c6f770000000000000000000000000000000000000081526020015060200191505060405180910390fd5b5b92915050565b6000616185613e9063ffffffff16565b90508067ffffffffffffffff16600e60005060008573ffffffffffffffffffffffffffffffffffffffff1673ffffffffffffffffffffffffffffffffffffffff16815260200190815260200160002060005060000160009054906101000a900467ffffffffffffffff1667ffffffffffffffff1610156164075760006163016162f4616227600b60005054670de0b6b3a7640000613e0790919063ffffffff16565b6162e686600260009054906101000a900473ffffffffffffffffffffffffffffffffffffffff1673ffffffffffffffffffffffffffffffffffffffff1663a135ef178a6040518263ffffffff1660e01b8152600401616286919061813f565b60206040518083038186803b15801561629f5760006000fd5b505afa1580156162b4573d600060003e3d6000fd5b505050506040513d601f19601f820116820180604052508101906162d89190617b14565b613d7e90919063ffffffff16565b615b4090919063ffffffff16565b616ced909063ffffffff16565b905060405180604001604052808367ffffffffffffffff1681526020018277ffffffffffffffffffffffffffffffffffffffffffffffff16815260200150600e60005060008673ffffffffffffffffffffffffffffffffffffffff1673ffffffffffffffffffffffffffffffffffffffff16815260200190815260200160002060005060008201518160000160006101000a81548167ffffffffffffffff021916908367ffffffffffffffff16021790555060208201518160000160086101000a81548177ffffffffffffffffffffffffffffffffffffffffffffffff021916908377ffffffffffffffffffffffffffffffffffffffffffffffff160217905550905050505b505b5050565b600e60005060008373ffffffffffffffffffffffffffffffffffffffff1673ffffffffffffffffffffffffffffffffffffffff16815260200190815260200160002060005060000160089054906101000a900477ffffffffffffffffffffffffffffffffffffffffffffffff1677ffffffffffffffffffffffffffffffffffffffffffffffff1661655382600260009054906101000a900473ffffffffffffffffffffffffffffffffffffffff1673ffffffffffffffffffffffffffffffffffffffff1663a135ef17866040518263ffffffff1660e01b81526004016164f3919061813f565b60206040518083038186803b15801561650c5760006000fd5b505afa158015616521573d600060003e3d6000fd5b505050506040513d601f19601f820116820180604052508101906165459190617b14565b613e0790919063ffffffff16565b10151515616596576040517f08c379a000000000000000000000000000000000000000000000000000000000815260040161658d9061833e565b60405180910390fd5b5b5050565b6000826fffffffffffffffffffffffffffffffff168284019150816fffffffffffffffffffffffffffffffff1610151515616641576040517f08c379a000000000000000000000000000000000000000000000000000000000815260040180806020018281038252600c8152602001807f6164642d6f766572666c6f77000000000000000000000000000000000000000081526020015060200191505060405180910390fd5b5b92915050565b600061ffff61ffff16601160009054906101000a900461ffff1661ffff161015156166735760006000fd5b601160009054906101000a900461ffff16905080506011600081819054906101000a900461ffff168092919060010191906101000a81548161ffff021916908361ffff1602179055505081601260005060008361ffff1661ffff16815260200190815260200160002060006101000a81548173ffffffffffffffffffffffffffffffffffffffff021916908373ffffffffffffffffffffffffffffffffffffffff16021790555080601360005060008473ffffffffffffffffffffffffffffffffffffffff1673ffffffffffffffffffffffffffffffffffffffff16815260200190815260200160002060006101000a81548161ffff021916908361ffff1602179055506168478273ffffffffffffffffffffffffffffffffffffffff16630dfe16816040518163ffffffff1660e01b815260040160206040518083038186803b1580156167c15760006000fd5b505afa1580156167d6573d600060003e3d6000fd5b505050506040513d601f19601f820116820180604052508101906167fa91906172e8565b7f00000000000000000000000000000000000000000000000000000000000000007fffffffffffffffffffffffffffffffffffffffffffffffffffffffffffffffff616d8f63ffffffff16565b6169178273ffffffffffffffffffffffffffffffffffffffff1663d21220a76040518163ffffffff1660e01b815260040160206040518083038186803b1580156168915760006000fd5b505afa1580156168a6573d600060003e3d6000fd5b505050506040513d601f19601f820116820180604052508101906168ca91906172e8565b7f00000000000000000000000000000000000000000000000000000000000000007fffffffffffffffffffffffffffffffffffffffffffffffffffffffffffffffff616d8f63ffffffff16565b80905061691f565b919050565b60008267ffffffffffffffff1682840391508167ffffffffffffffff16111515156169ba576040517f08c379a000000000000000000000000000000000000000000000000000000000815260040180806020018281038252600d8152602001807f7375622d756e646572666c6f770000000000000000000000000000000000000081526020015060200191505060405180910390fd5b5b92915050565b6000600060006000198587098587029250828110838203039150506000811415616a04576000841115156169f55760006000fd5b83820492508292505050616abb565b8084111515616a135760006000fd5b6000848688099050828111820391508083039250600085866000031690508086049550808404935060018182600003040190508083028417935083506000600287600302189050808702600203810290508050808702600203810290508050808702600203810290508050808702600203810290508050808702600203810290508050808702600203810290508050808502955085508595505050505050616abb5650505050505b9392505050565b600060008573ffffffffffffffffffffffffffffffffffffffff166323b872dd60e01b868686604051602401808473ffffffffffffffffffffffffffffffffffffffff1681526020018373ffffffffffffffffffffffffffffffffffffffff1681526020018281526020019350505050604051602081830303815290604052907bffffffffffffffffffffffffffffffffffffffffffffffffffffffff19166020820180517bffffffffffffffffffffffffffffffffffffffffffffffffffffffff83818316178352505050506040518082805190602001908083835b602083101515616bc557805182525b602082019150602081019050602083039250616b9f565b6001836020036101000a0380198251168184511680821785525050505050509050019150506000604051808303816000865af19150503d8060008114616c27576040519150601f19603f3d011682016040523d82523d6000602084013e616c2c565b606091505b5091509150818015616c6d5750600081511480616c6c5750808060200190516020811015616c5a5760006000fd5b81019080805190602001909291905050505b5b1515616ce4576040517f08c379a00000000000000000000000000000000000000000000000000000000081526004018080602001828103825260038152602001807f535446000000000000000000000000000000000000000000000000000000000081526020015060200191505060405180910390fd5b50505b50505050565b6000780100000000000000000000000000000000000000000000000082101515616d82576040517f08c379a00000000000000000000000000000000000000000000000000000000081526004018080602001828103825260128152602001807f6d6f7265207468616e203139322062697473000000000000000000000000000081526020015060200191505060405180910390fd5b819050616d8a565b919050565b600060008473ffffffffffffffffffffffffffffffffffffffff1663095ea7b360e01b8585604051602401808373ffffffffffffffffffffffffffffffffffffffff16815260200182815260200192505050604051602081830303815290604052907bffffffffffffffffffffffffffffffffffffffffffffffffffffffff19166020820180517bffffffffffffffffffffffffffffffffffffffffffffffffffffffff83818316178352505050506040518082805190602001908083835b602083101515616e7457805182525b602082019150602081019050602083039250616e4e565b6001836020036101000a0380198251168184511680821785525050505050509050019150506000604051808303816000865af19150503d8060008114616ed6576040519150601f19603f3d011682016040523d82523d6000602084013e616edb565b606091505b5091509150818015616f1c5750600081511480616f1b5750808060200190516020811015616f095760006000fd5b81019080805190602001909291905050505b5b1515616f93576040517f08c379a00000000000000000000000000000000000000000000000000000000081526004018080602001828103825260028152602001807f534100000000000000000000000000000000000000000000000000000000000081526020015060200191505060405180910390fd5b50505b505050565b6040518060800160405280600015158152602001600015158152602001600015158152602001600060020b81526020015090565b604051806101200160405280600073ffffffffffffffffffffffffffffffffffffffff168152602001600061ffff1681526020016000815260200160008152602001600067ffffffffffffffff16815260200160008152602001600060020b8152602001600060020b815260200160006fffffffffffffffffffffffffffffffff1681526020015090565b82805482825590600052602060002090600f016010900481019282156170f35791602002820160005b838211156170c357835183826101000a81548161ffff021916908361ffff1602179055509260200192600201602081600101049283019260010302617083565b80156170f15782816101000a81549061ffff02191690556002016020816001010492830192600103026170c3565b505b5090506171009190617104565b5090565b617109565b808211156171235760008181506000905550600101617109565b509056618b5f565b60008135905061713a81618a84565b5b919050565b60008151905061714f81618a84565b5b919050565b60008135905061716481618ac2565b5b919050565b60008151905061717981618ac2565b5b919050565b600060608284031215617190578081fd5b8190505b92915050565b60006101208083850312156171ad578182fd5b6171b681618a59565b9150506171c28261712b565b81526171d06020830161726a565b602082015260408201356040820152606082013560608201526171f5608083016172be565b608082015260a082013560a082015261721060c08301617155565b60c082015261722160e08301617155565b60e0820152610100617234818401617240565b81830152505b92915050565b60008135905061724f81618ad8565b5b919050565b60008151905061726481618ad8565b5b919050565b60008135905061727981618afd565b5b919050565b60008151905061728e81618afd565b5b919050565b6000813590506172a381618b14565b5b919050565b6000815190506172b881618b14565b5b919050565b6000813590506172cd81618b2c565b5b919050565b6000815190506172e281618b2c565b5b919050565b6000602082840312156172f9578081fd5b815161730481618a84565b809150505b92915050565b60006020808385031215617321578182fd5b825167ffffffffffffffff80821115617338578384fd5b818501915085601f830112151561734d578384fd5b81518181111561735957fe5b8381029150617369848301618a59565b8082825285820191508585018987868801011115617385578788fd5b8795505b838610156173b7578051945061739e85618a84565b848352868301925086810190505b600186019550617389565b508096505050505050505b92915050565b6000602082840312156173d9578081fd5b81356173e481618aad565b809150505b92915050565b600060208284031215617400578081fd5b815161740b81618aad565b809150505b92915050565b600060208284031215617427578081fd5b81357fffffffff00000000000000000000000000000000000000000000000000000000811681141515617458578182fd5b809150505b92915050565b600060208284031215617474578081fd5b815161747f81618a84565b809150505b92915050565b60006020828403121561749b578081fd5b81356174a681618a84565b809150505b92915050565b6000602082840312156174c2578081fd5b81516174cd81618a84565b809150505b92915050565b6000602082840312156174e9578081fd5b81516174f481618a84565b809150505b92915050565b600060208284031215617510578081fd5b813561751b81618a84565b809150505b92915050565b600060208284031215617537578081fd5b815161754281618a84565b809150505b92915050565b60006000600060408486031215617562578182fd5b833561756d81618a84565b80935050602084013567ffffffffffffffff8082111561758b578384fd5b818601915086601f83011215156175a0578384fd5b8135818111156175ae578485fd5b8760206020830285010111156175c2578485fd5b6020830194508093505050505b9250925092565b6000602082840312156175e7578081fd5b81516175f281618a84565b809150505b92915050565b60006020828403121561760e578081fd5b815161761981618ac2565b809150505b92915050565b600060808284031215617635578081fd5b6040516080810181811067ffffffffffffffff8211171561765257fe5b806040525082358152602083013561766981618a84565b80602083015250604083013561767e81618ad8565b80604083015250606083013561769381618ad8565b80606083015250809150505b92915050565b600060a082840312156176b6578081fd5b8190505b92915050565b600060a082840312156176d1578081fd5b60405160a0810181811067ffffffffffffffff821117156176ee57fe5b806040525082358152602083013561770581618ad8565b80602083015250604083013560408201526060830135606082015260808301356080820152809150505b92915050565b600060c08284031215617746578081fd5b8190505b92915050565b600060008284036101c0811215617765578283fd5b61016080821215617774578384fd5b61777d81618a59565b91506177888561712b565b82526177966020860161712b565b60208301526177a760408601617294565b60408301526177b860608601617155565b60608301526177c960808601617155565b608083015260a085013560a083015260c085013560c083015260e085013560e083015261010080860135818401525061012061780681870161712b565b81840152506101408086013581840152508193506178268682870161717f565b925050505b9250929050565b6000610120808385031215617845578182fd5b61784e81618a59565b905061785983617140565b81526178676020840161727f565b6020820152604083015160408201526060830151606082015261788c608084016172d3565b608082015260a083015160a08201526178a760c0840161716a565b60c08201526178b860e0840161716a565b60e08201526101006178cb818501617255565b8183015250809150505b92915050565b600060006000600061018085870312156178f3578182fd5b6178fd868661719a565b935061012085013561790e81618a84565b8093505061014085013561792181618ac2565b8092505061016085013561793481618ad8565b809150505b92959194509250565b600060006101408385031215617956578182fd5b617960848461719a565b915061012083013561797181618ac2565b809150505b9250929050565b600060006000838503610180811215617994578182fd5b61799e868661719a565b935060407ffffffffffffffffffffffffffffffffffffffffffffffffffffffffffffffee0820112156179cf578182fd5b506040516040810181811067ffffffffffffffff821117156179ed57fe5b80604052506101208501358152610140850135602082015280925050610160840135617a1881618b2c565b809150505b9250925092565b600060408284031215617a35578081fd5b6040516040810181811067ffffffffffffffff82111715617a5257fe5b80604052508251815260208301516020820152809150505b92915050565b600060208284031215617a81578081fd5b8135617a8c81618ad8565b809150505b92915050565b60006000600060608486031215617aac578081fd5b8351617ab781618ad8565b8093505060208401519150604084015190505b9250925092565b600060208284031215617ae2578081fd5b8135617aed81618afd565b809150505b92915050565b600060208284031215617b09578081fd5b813590505b92915050565b600060208284031215617b25578081fd5b815190505b92915050565b600060006000600060808587031215617b47578182fd5b845193506020850151617b5981618ad8565b8093505060408501519150606085015190505b92959194509250565b6000600060408385031215617b88578182fd5b82519150602083015190505b9250929050565b60006000600060608486031215617bb0578081fd5b8335925060208401359150604084013590505b9250925092565b600060208284031215617bdb578081fd5b813563ffffffff811681141515617bf0578182fd5b809150505b92915050565b600060208284031215617c0c578081fd5b8135617c1781618b2c565b809150505b92915050565b600060208284031215617c33578081fd5b8151617c3e81618b2c565b809150505b92915050565b600060208284031215617c5a578081fd5b8151617c6581618b49565b809150505b92915050565b6000600060006000600060006000600060006000600060006101808d8f031215617c9857898afd5b8c516bffffffffffffffffffffffff811681141515617cb5578a8bfd5b809c5050617cc560208e01617140565b9a50617cd360408e01617140565b9950617ce160608e01617140565b9850617cef60808e016172a9565b9750617cfd60a08e0161716a565b9650617d0b60c08e0161716a565b9550617d1960e08e01617255565b94506101008d015193506101208d01519250617d386101408e01617255565b9150617d476101608e01617255565b90505b9295989b509295989b509295989b565b73ffffffffffffffffffffffffffffffffffffffff811682525b5050565b8060020b82525b5050565b73ffffffffffffffffffffffffffffffffffffffff815116825261ffff602082015116602083015260408101516040830152606081015160608301526080810151617dd16080840182617e43565b5060a081015160a083015260c0810151617dee60c0840182617d78565b5060e0810151617e0160e0840182617d78565b5061010080820151617e1582850182617e1c565b50505b5050565b6fffffffffffffffffffffffffffffffff811682525b5050565b62ffffff811682525b5050565b67ffffffffffffffff811682525b5050565b60007f6c69717569646174696f6e50656e616c7479000000000000000000000000000082526012820190505b919050565b60007f6d696e5a6875436f756e74506572506f736974696f6e0000000000000000000082526016820190505b919050565b60007f747761704475726174696f6e00000000000000000000000000000000000000008252600c820190505b919050565b60007f6d61784c69717569646974794465637265617365506572506572696f640000008252601d820190505b919050565b60007f6d696e4c697175696469747950726f766964654475726174696f6e00000000008252601b820190505b919050565b60007f72656d6f76655265666572656e6365506f6f6c0000000000000000000000000082526013820190505b919050565b60007f6164645265666572656e6365506f6f6c0000000000000000000000000000000082526010820190505b919050565b600060208201905073ffffffffffffffffffffffffffffffffffffffff831682525b92915050565b600060808201905073ffffffffffffffffffffffffffffffffffffffff84168252823561800081618b49565b60ff811660208401525060208301356040830152604083013560608301525b9392505050565b600060408201905073ffffffffffffffffffffffffffffffffffffffff8416825261ffff831660208301525b9392505050565b600060608201905073ffffffffffffffffffffffffffffffffffffffff8516825261ffff8416602083015282151560408301525b949350505050565b600060408201905073ffffffffffffffffffffffffffffffffffffffff841682528260208301525b9392505050565b600060608201905073ffffffffffffffffffffffffffffffffffffffff808616835280851660208401525062ffffff831660408301525b949350505050565b600060208201905082151582525b92915050565b600060208201905073ffffffffffffffffffffffffffffffffffffffff831682525b92915050565b600060208201905073ffffffffffffffffffffffffffffffffffffffff831682525b92915050565b600060c08201905073ffffffffffffffffffffffffffffffffffffffff881682528660020b60208301528560020b60408301528460020b60608301526fffffffffffffffffffffffffffffffff8416608083015263ffffffff831660a08301525b979650505050505050565b600060408201905073ffffffffffffffffffffffffffffffffffffffff841682526fffffffffffffffffffffffffffffffff831660208301525b9392505050565b600060408201905073ffffffffffffffffffffffffffffffffffffffff8416825263ffffffff831660208301525b9392505050565b60006060820190508460020b82528360020b60208301526fffffffffffffffffffffffffffffffff831660408301525b949350505050565b600060208252601160208301527f50726f746f636f6c2073687574646f776e00000000000000000000000000000060408301526060820190505b919050565b600060208252601660208301527f4c6971756964697479206e6f7420696e2072616e67650000000000000000000060408301526060820190505b919050565b600060208252600c60208301527f556e6b6e6f776e20706f6f6c000000000000000000000000000000000000000060408301526060820190505b919050565b600060208252601c60208301527f4d617820706572696f642077697468647261772065786365656465640000000060408301526060820190505b919050565b600060208252601560208301527f457863656564732067656e65736973206c696d6974000000000000000000000060408301526060820190505b919050565b600060208252601460208301527f416c72656164792070617274696369706174656400000000000000000000000060408301526060820190505b919050565b600060208252600e60208301527f4e6f7420417574686f72697a656400000000000000000000000000000000000060408301526060820190505b919050565b600060208252600d60208301527f4c50205265656e7472616e63790000000000000000000000000000000000000060408301526060820190505b919050565b600060208252601260208301527f506f736974696f6e20746f6f20736d616c6c000000000000000000000000000060408301526060820190505b919050565b600060208252601560208301527f416374696f6e20617661696c61626c6520736f6f6e000000000000000000000060408301526060820190505b919050565b600060208252601360208301527f436f6e74726163742069732073746f707065640000000000000000000000000060408301526060820190505b919050565b600060208252601260208301527f4e6f20666c617368206c6971756964697479000000000000000000000000000060408301526060820190505b919050565b600060208252601160208301527f43616e206f6e6c7920646563726561736500000000000000000000000000000060408301526060820190505b919050565b600060208252600c60208301527f4e6f742073687574646f776e000000000000000000000000000000000000000060408301526060820190505b919050565b600060208252600c60208301527f496e76616c696420706f6f6c000000000000000000000000000000000000000060408301526060820190505b919050565b60006080820190508251825273ffffffffffffffffffffffffffffffffffffffff602084015116602083015260408301516fffffffffffffffffffffffffffffffff808216604085015280606086015116606085015250505b92915050565b600060a082019050825182526fffffffffffffffffffffffffffffffff60208401511660208301526040830151604083015260608301516060830152608083015160808301525b92915050565b600060c082019050823582526020830135602083015260408301356040830152606083013560608301526080830135608083015260a083013560a08301525b92915050565b600061016082019050618737828451617d5a565b60208301516187496020840182617d5a565b50604083015161875c6040840182617e36565b50606083015161876f6060840182617d78565b5060808301516187826080840182617d78565b5060a083015160a083015260c083015160c083015260e083015160e0830152610100808401518184015250610120808401516187c082850182617d5a565b50506101408084015181840152505b92915050565b6000610140820190506187e88285617d83565b826101208301525b9392505050565b60006020820190506fffffffffffffffffffffffffffffffff831682525b92915050565b60006020820190506fffffffffffffffffffffffffffffffff831682525b92915050565b600060208201905061ffff831682525b92915050565b600060608201905061ffff8416825282516020830152602083015160408301525b9392505050565b60006020820190508282525b92915050565b600060408201905083825273ffffffffffffffffffffffffffffffffffffffff831660208301525b9392505050565b6000610140820190508382526188d76020830184617d83565b5b9392505050565b60006040820190508382526fffffffffffffffffffffffffffffffff831660208301525b9392505050565b600060a08201905086825261ffff861660208301528460020b60408301528360020b606083015273ffffffffffffffffffffffffffffffffffffffff831660808301525b9695505050505050565b60006040820190508382528260208301525b9392505050565b60006060820190508482528360208301528260408301525b949350505050565b600060408201905083825267ffffffffffffffff831660208301525b9392505050565b600060208201905063ffffffff831682525b92915050565b600060208201905063ffffffff831682525b92915050565b600060208201905067ffffffffffffffff831682525b92915050565b600060208201905067ffffffffffffffff831682525b92915050565b600060408201905067ffffffffffffffff8416825277ffffffffffffffffffffffffffffffffffffffffffffffff831660208301525b9392505050565b6000604051905081810181811067ffffffffffffffff82111715618a7957fe5b80604052505b919050565b73ffffffffffffffffffffffffffffffffffffffff811681141515618aa95760006000fd5b5b50565b80151581141515618abe5760006000fd5b5b50565b8060020b81141515618ad45760006000fd5b5b50565b6fffffffffffffffffffffffffffffffff811681141515618af95760006000fd5b5b50565b61ffff811681141515618b105760006000fd5b5b50565b62ffffff811681141515618b285760006000fd5b5b50565b67ffffffffffffffff811681141515618b455760006000fd5b5b50565b60ff811681141515618b5b5760006000fd5b5b50565bfea264697066735822122042fd031338718e4c96a7f565dc824157276784568c8e6f68f919d9618631188664736f6c63430007060033",
  "linkReferences": {},
  "deployedLinkReferences": {}
}