{
  "contracts/core/utils/ProtocolLock.sol": {
    "ProtocolLock": {
      "abi": [
        {
          "inputs": [
            {
              "internalType": "contract IGovernor",
              "name": "_governor",
              "type": "address"
            }
          ],
          "stateMutability": "nonpayable",
          "type": "constructor"
        },
        {
          "anonymous": false,
          "inputs": [
            {
              "indexed": true,
              "internalType": "address",
              "name": "caller",
              "type": "address"
            }
          ],
          "name": "CallerAuthorized",
          "type": "event"
        },
        {
          "anonymous": false,
          "inputs": [
            {
              "indexed": true,
              "internalType": "address",
              "name": "caller",
              "type": "address"
            }
          ],
          "name": "CallerUnauthorized",
          "type": "event"
        },
        {
          "inputs": [
            {
              "internalType": "address",
              "name": "caller",
              "type": "address"
            }
          ],
          "name": "authorizeCaller",
          "outputs": [],
          "stateMutability": "nonpayable",
          "type": "function"
        },
        {
          "inputs": [],
          "name": "enter",
          "outputs": [],
          "stateMutability": "nonpayable",
          "type": "function"
        },
        {
          "inputs": [],
          "name": "exit",
          "outputs": [],
          "stateMutability": "nonpayable",
          "type": "function"
        },
        {
          "inputs": [],
          "name": "governor",
          "outputs": [
            {
              "internalType": "contract IGovernor",
              "name": "",
              "type": "address"
            }
          ],
          "stateMutability": "view",
          "type": "function"
        },
        {
          "inputs": [
            {
              "internalType": "address",
              "name": "caller",
              "type": "address"
            }
          ],
          "name": "unauthorizeCaller",
          "outputs": [],
          "stateMutability": "nonpayable",
          "type": "function"
        }
      ],
      "evm": {
        "bytecode": {
          "linkReferences": {},
          "object": "60806040526001600260005090905534801561001b5760006000fd5b506040516106a73803806106a78339818101604052602081101561003f5760006000fd5b81019080805190602001909291905050505b80600060006101000a81548173ffffffffffffffffffffffffffffffffffffffff021916908373ffffffffffffffffffffffffffffffffffffffff1602179055505b50610099565b6105ff806100a86000396000f3fe60806040523480156100115760006000fd5b506004361061006c5760003560e01c80634ac8c5ae116100515780634ac8c5ae146100eb578063e97dcb6214610130578063e9fad8ee1461013a5761006c565b80630c340a24146100725780632c388d5d146100a65761006c565b60006000fd5b61007a610144565b604051808273ffffffffffffffffffffffffffffffffffffffff16815260200191505060405180910390f35b6100e9600480360360208110156100bd5760006000fd5b81019080803573ffffffffffffffffffffffffffffffffffffffff16906020019092919050505061016a565b005b61012e600480360360208110156101025760006000fd5b81019080803573ffffffffffffffffffffffffffffffffffffffff16906020019092919050505061026c565b005b61013861036e565b005b61014261045e565b005b600060009054906101000a900473ffffffffffffffffffffffffffffffffffffffff1681565b6101c9600060009054906101000a900473ffffffffffffffffffffffffffffffffffffffff1673ffffffffffffffffffffffffffffffffffffffff163373ffffffffffffffffffffffffffffffffffffffff161461054d63ffffffff16565b6001600160005060008373ffffffffffffffffffffffffffffffffffffffff1673ffffffffffffffffffffffffffffffffffffffff16815260200190815260200160002060006101000a81548160ff0219169083151502179055508073ffffffffffffffffffffffffffffffffffffffff167f6acfd92212f0ec670af78f8ba2273e4a85ac17023475650c25be0440602bff2d60405160405180910390a25b5b50565b6102cb600060009054906101000a900473ffffffffffffffffffffffffffffffffffffffff1673ffffffffffffffffffffffffffffffffffffffff163373ffffffffffffffffffffffffffffffffffffffff161461054d63ffffffff16565b6000600160005060008373ffffffffffffffffffffffffffffffffffffffff1673ffffffffffffffffffffffffffffffffffffffff16815260200190815260200160002060006101000a81548160ff0219169083151502179055508073ffffffffffffffffffffffffffffffffffffffff167f37967118b05f7af84a44112f7e4b59ab8aa3a73cebb4154828b43b934224522a60405160405180910390a25b5b50565b6103cc600160005060003373ffffffffffffffffffffffffffffffffffffffff1673ffffffffffffffffffffffffffffffffffffffff16815260200190815260200160002060009054906101000a900460ff1661054d63ffffffff16565b60026002600050541415151561044d576040517f08c379a000000000000000000000000000000000000000000000000000000000815260040180806020018281038252600d8152602001807f504c205265656e7472616e63790000000000000000000000000000000000000081526020015060200191505060405180910390fd5b600260026000508190909055505b5b565b6104bc600160005060003373ffffffffffffffffffffffffffffffffffffffff1673ffffffffffffffffffffffffffffffffffffffff16815260200190815260200160002060009054906101000a900460ff1661054d63ffffffff16565b600260026000505414151561053c576040517f08c379a00000000000000000000000000000000000000000000000000000000081526004018080602001828103825260088152602001807f504c206572726f7200000000000000000000000000000000000000000000000081526020015060200191505060405180910390fd5b600160026000508190909055505b5b565b8015156105c5576040517f08c379a00000000000000000000000000000000000000000000000000000000081526004018080602001828103825260128152602001807f504c3a204e6f7420417574686f72697a6564000000000000000000000000000081526020015060200191505060405180910390fd5b5b5056fea26469706673582212200fd119a1b9fe24c196fd9a26850132b96f6797e5dbf35950b682307fa256e5a264736f6c63430007060033",
          "opcodes": "PUSH1 0x80 PUSH1 0x40 MSTORE PUSH1 0x1 PUSH1 0x2 PUSH1 0x0 POP SWAP1 SWAP1 SSTORE CALLVALUE DUP1 ISZERO PUSH2 0x1B JUMPI PUSH1 0x0 PUSH1 0x0 REVERT JUMPDEST POP PUSH1 0x40 MLOAD PUSH2 0x6A7 CODESIZE SUB DUP1 PUSH2 0x6A7 DUP4 CODECOPY DUP2 DUP2 ADD PUSH1 0x40 MSTORE PUSH1 0x20 DUP2 LT ISZERO PUSH2 0x3F JUMPI PUSH1 0x0 PUSH1 0x0 REVERT JUMPDEST DUP2 ADD SWAP1 DUP1 DUP1 MLOAD SWAP1 PUSH1 0x20 ADD SWAP1 SWAP3 SWAP2 SWAP1 POP POP POP JUMPDEST DUP1 PUSH1 0x0 PUSH1 0x0 PUSH2 0x100 EXP DUP2 SLOAD DUP2 PUSH20 0xFFFFFFFFFFFFFFFFFFFFFFFFFFFFFFFFFFFFFFFF MUL NOT AND SWAP1 DUP4 PUSH20 0xFFFFFFFFFFFFFFFFFFFFFFFFFFFFFFFFFFFFFFFF AND MUL OR SWAP1 SSTORE POP JUMPDEST POP PUSH2 0x99 JUMP JUMPDEST PUSH2 0x5FF DUP1 PUSH2 0xA8 PUSH1 0x0 CODECOPY PUSH1 0x0 RETURN INVALID PUSH1 0x80 PUSH1 0x40 MSTORE CALLVALUE DUP1 ISZERO PUSH2 0x11 JUMPI PUSH1 0x0 PUSH1 0x0 REVERT JUMPDEST POP PUSH1 0x4 CALLDATASIZE LT PUSH2 0x6C JUMPI PUSH1 0x0 CALLDATALOAD PUSH1 0xE0 SHR DUP1 PUSH4 0x4AC8C5AE GT PUSH2 0x51 JUMPI DUP1 PUSH4 0x4AC8C5AE EQ PUSH2 0xEB JUMPI DUP1 PUSH4 0xE97DCB62 EQ PUSH2 0x130 JUMPI DUP1 PUSH4 0xE9FAD8EE EQ PUSH2 0x13A JUMPI PUSH2 0x6C JUMP JUMPDEST DUP1 PUSH4 0xC340A24 EQ PUSH2 0x72 JUMPI DUP1 PUSH4 0x2C388D5D EQ PUSH2 0xA6 JUMPI PUSH2 0x6C JUMP JUMPDEST PUSH1 0x0 PUSH1 0x0 REVERT JUMPDEST PUSH2 0x7A PUSH2 0x144 JUMP JUMPDEST PUSH1 0x40 MLOAD DUP1 DUP3 PUSH20 0xFFFFFFFFFFFFFFFFFFFFFFFFFFFFFFFFFFFFFFFF AND DUP2 MSTORE PUSH1 0x20 ADD SWAP2 POP POP PUSH1 0x40 MLOAD DUP1 SWAP2 SUB SWAP1 RETURN JUMPDEST PUSH2 0xE9 PUSH1 0x4 DUP1 CALLDATASIZE SUB PUSH1 0x20 DUP2 LT ISZERO PUSH2 0xBD JUMPI PUSH1 0x0 PUSH1 0x0 REVERT JUMPDEST DUP2 ADD SWAP1 DUP1 DUP1 CALLDATALOAD PUSH20 0xFFFFFFFFFFFFFFFFFFFFFFFFFFFFFFFFFFFFFFFF AND SWAP1 PUSH1 0x20 ADD SWAP1 SWAP3 SWAP2 SWAP1 POP POP POP PUSH2 0x16A JUMP JUMPDEST STOP JUMPDEST PUSH2 0x12E PUSH1 0x4 DUP1 CALLDATASIZE SUB PUSH1 0x20 DUP2 LT ISZERO PUSH2 0x102 JUMPI PUSH1 0x0 PUSH1 0x0 REVERT JUMPDEST DUP2 ADD SWAP1 DUP1 DUP1 CALLDATALOAD PUSH20 0xFFFFFFFFFFFFFFFFFFFFFFFFFFFFFFFFFFFFFFFF AND SWAP1 PUSH1 0x20 ADD SWAP1 SWAP3 SWAP2 SWAP1 POP POP POP PUSH2 0x26C JUMP JUMPDEST STOP JUMPDEST PUSH2 0x138 PUSH2 0x36E JUMP JUMPDEST STOP JUMPDEST PUSH2 0x142 PUSH2 0x45E JUMP JUMPDEST STOP JUMPDEST PUSH1 0x0 PUSH1 0x0 SWAP1 SLOAD SWAP1 PUSH2 0x100 EXP SWAP1 DIV PUSH20 0xFFFFFFFFFFFFFFFFFFFFFFFFFFFFFFFFFFFFFFFF AND DUP2 JUMP JUMPDEST PUSH2 0x1C9 PUSH1 0x0 PUSH1 0x0 SWAP1 SLOAD SWAP1 PUSH2 0x100 EXP SWAP1 DIV PUSH20 0xFFFFFFFFFFFFFFFFFFFFFFFFFFFFFFFFFFFFFFFF AND PUSH20 0xFFFFFFFFFFFFFFFFFFFFFFFFFFFFFFFFFFFFFFFF AND CALLER PUSH20 0xFFFFFFFFFFFFFFFFFFFFFFFFFFFFFFFFFFFFFFFF AND EQ PUSH2 0x54D PUSH4 0xFFFFFFFF AND JUMP JUMPDEST PUSH1 0x1 PUSH1 0x1 PUSH1 0x0 POP PUSH1 0x0 DUP4 PUSH20 0xFFFFFFFFFFFFFFFFFFFFFFFFFFFFFFFFFFFFFFFF AND PUSH20 0xFFFFFFFFFFFFFFFFFFFFFFFFFFFFFFFFFFFFFFFF AND DUP2 MSTORE PUSH1 0x20 ADD SWAP1 DUP2 MSTORE PUSH1 0x20 ADD PUSH1 0x0 KECCAK256 PUSH1 0x0 PUSH2 0x100 EXP DUP2 SLOAD DUP2 PUSH1 0xFF MUL NOT AND SWAP1 DUP4 ISZERO ISZERO MUL OR SWAP1 SSTORE POP DUP1 PUSH20 0xFFFFFFFFFFFFFFFFFFFFFFFFFFFFFFFFFFFFFFFF AND PUSH32 0x6ACFD92212F0EC670AF78F8BA2273E4A85AC17023475650C25BE0440602BFF2D PUSH1 0x40 MLOAD PUSH1 0x40 MLOAD DUP1 SWAP2 SUB SWAP1 LOG2 JUMPDEST JUMPDEST POP JUMP JUMPDEST PUSH2 0x2CB PUSH1 0x0 PUSH1 0x0 SWAP1 SLOAD SWAP1 PUSH2 0x100 EXP SWAP1 DIV PUSH20 0xFFFFFFFFFFFFFFFFFFFFFFFFFFFFFFFFFFFFFFFF AND PUSH20 0xFFFFFFFFFFFFFFFFFFFFFFFFFFFFFFFFFFFFFFFF AND CALLER PUSH20 0xFFFFFFFFFFFFFFFFFFFFFFFFFFFFFFFFFFFFFFFF AND EQ PUSH2 0x54D PUSH4 0xFFFFFFFF AND JUMP JUMPDEST PUSH1 0x0 PUSH1 0x1 PUSH1 0x0 POP PUSH1 0x0 DUP4 PUSH20 0xFFFFFFFFFFFFFFFFFFFFFFFFFFFFFFFFFFFFFFFF AND PUSH20 0xFFFFFFFFFFFFFFFFFFFFFFFFFFFFFFFFFFFFFFFF AND DUP2 MSTORE PUSH1 0x20 ADD SWAP1 DUP2 MSTORE PUSH1 0x20 ADD PUSH1 0x0 KECCAK256 PUSH1 0x0 PUSH2 0x100 EXP DUP2 SLOAD DUP2 PUSH1 0xFF MUL NOT AND SWAP1 DUP4 ISZERO ISZERO MUL OR SWAP1 SSTORE POP DUP1 PUSH20 0xFFFFFFFFFFFFFFFFFFFFFFFFFFFFFFFFFFFFFFFF AND PUSH32 0x37967118B05F7AF84A44112F7E4B59AB8AA3A73CEBB4154828B43B934224522A PUSH1 0x40 MLOAD PUSH1 0x40 MLOAD DUP1 SWAP2 SUB SWAP1 LOG2 JUMPDEST JUMPDEST POP JUMP JUMPDEST PUSH2 0x3CC PUSH1 0x1 PUSH1 0x0 POP PUSH1 0x0 CALLER PUSH20 0xFFFFFFFFFFFFFFFFFFFFFFFFFFFFFFFFFFFFFFFF AND PUSH20 0xFFFFFFFFFFFFFFFFFFFFFFFFFFFFFFFFFFFFFFFF AND DUP2 MSTORE PUSH1 0x20 ADD SWAP1 DUP2 MSTORE PUSH1 0x20 ADD PUSH1 0x0 KECCAK256 PUSH1 0x0 SWAP1 SLOAD SWAP1 PUSH2 0x100 EXP SWAP1 DIV PUSH1 0xFF AND PUSH2 0x54D PUSH4 0xFFFFFFFF AND JUMP JUMPDEST PUSH1 0x2 PUSH1 0x2 PUSH1 0x0 POP SLOAD EQ ISZERO ISZERO ISZERO PUSH2 0x44D JUMPI PUSH1 0x40 MLOAD PUSH32 0x8C379A000000000000000000000000000000000000000000000000000000000 DUP2 MSTORE PUSH1 0x4 ADD DUP1 DUP1 PUSH1 0x20 ADD DUP3 DUP2 SUB DUP3 MSTORE PUSH1 0xD DUP2 MSTORE PUSH1 0x20 ADD DUP1 PUSH32 0x504C205265656E7472616E637900000000000000000000000000000000000000 DUP2 MSTORE PUSH1 0x20 ADD POP PUSH1 0x20 ADD SWAP2 POP POP PUSH1 0x40 MLOAD DUP1 SWAP2 SUB SWAP1 REVERT JUMPDEST PUSH1 0x2 PUSH1 0x2 PUSH1 0x0 POP DUP2 SWAP1 SWAP1 SWAP1 SSTORE POP JUMPDEST JUMPDEST JUMP JUMPDEST PUSH2 0x4BC PUSH1 0x1 PUSH1 0x0 POP PUSH1 0x0 CALLER PUSH20 0xFFFFFFFFFFFFFFFFFFFFFFFFFFFFFFFFFFFFFFFF AND PUSH20 0xFFFFFFFFFFFFFFFFFFFFFFFFFFFFFFFFFFFFFFFF AND DUP2 MSTORE PUSH1 0x20 ADD SWAP1 DUP2 MSTORE PUSH1 0x20 ADD PUSH1 0x0 KECCAK256 PUSH1 0x0 SWAP1 SLOAD SWAP1 PUSH2 0x100 EXP SWAP1 DIV PUSH1 0xFF AND PUSH2 0x54D PUSH4 0xFFFFFFFF AND JUMP JUMPDEST PUSH1 0x2 PUSH1 0x2 PUSH1 0x0 POP SLOAD EQ ISZERO ISZERO PUSH2 0x53C JUMPI PUSH1 0x40 MLOAD PUSH32 0x8C379A000000000000000000000000000000000000000000000000000000000 DUP2 MSTORE PUSH1 0x4 ADD DUP1 DUP1 PUSH1 0x20 ADD DUP3 DUP2 SUB DUP3 MSTORE PUSH1 0x8 DUP2 MSTORE PUSH1 0x20 ADD DUP1 PUSH32 0x504C206572726F72000000000000000000000000000000000000000000000000 DUP2 MSTORE PUSH1 0x20 ADD POP PUSH1 0x20 ADD SWAP2 POP POP PUSH1 0x40 MLOAD DUP1 SWAP2 SUB SWAP1 REVERT JUMPDEST PUSH1 0x1 PUSH1 0x2 PUSH1 0x0 POP DUP2 SWAP1 SWAP1 SWAP1 SSTORE POP JUMPDEST JUMPDEST JUMP JUMPDEST DUP1 ISZERO ISZERO PUSH2 0x5C5 JUMPI PUSH1 0x40 MLOAD PUSH32 0x8C379A000000000000000000000000000000000000000000000000000000000 DUP2 MSTORE PUSH1 0x4 ADD DUP1 DUP1 PUSH1 0x20 ADD DUP3 DUP2 SUB DUP3 MSTORE PUSH1 0x12 DUP2 MSTORE PUSH1 0x20 ADD DUP1 PUSH32 0x504C3A204E6F7420417574686F72697A65640000000000000000000000000000 DUP2 MSTORE PUSH1 0x20 ADD POP PUSH1 0x20 ADD SWAP2 POP POP PUSH1 0x40 MLOAD DUP1 SWAP2 SUB SWAP1 REVERT JUMPDEST JUMPDEST POP JUMP INVALID LOG2 PUSH5 0x6970667358 0x22 SLT KECCAK256 0xF 0xD1 NOT LOG1 0xB9 INVALID 0x24 0xC1 SWAP7 REVERT SWAP11 0x26 DUP6 ADD ORIGIN 0xB9 PUSH16 0x6797E5DBF35950B682307FA256E5A264 PUSH20 0x6F6C634300070600330000000000000000000000 "
        },
        "methodIdentifiers": {
          "authorizeCaller(address)": "2c388d5d",
          "enter()": "e97dcb62",
          "exit()": "e9fad8ee",
          "governor()": "0c340a24",
          "unauthorizeCaller(address)": "4ac8c5ae"
        }
      }
    }
  }
}