{
  "contracts/core/utils/CoinSafeMath.sol": {
    "CoinSafeMath": {
      "abi": [
        {
          "inputs": [],
          "name": "ONE",
          "outputs": [
            {
              "internalType": "uint256",
              "name": "",
              "type": "uint256"
            }
          ],
          "stateMutability": "view",
          "type": "function"
        }
      ],
      "evm": {
        "bytecode": {
          "linkReferences": {},
          "object": "609a610027600b82828239805160001a6073141515601957fe5b30600052607381538281f350fe730000000000000000000000000000000000000000301460806040526004361060365760003560e01c8063c2ee3a0814603c576036565b60006000fd5b60426058565b6040518082815260200191505060405180910390f35b670de0b6b3a76400008156fea2646970667358221220e039562fd72e4980621173d3c5a5bcc8e30ddddd180698357d14ba04081fc94964736f6c63430007060033",
          "opcodes": "PUSH1 0x9A PUSH2 0x27 PUSH1 0xB DUP3 DUP3 DUP3 CODECOPY DUP1 MLOAD PUSH1 0x0 BYTE PUSH1 0x73 EQ ISZERO ISZERO PUSH1 0x19 JUMPI INVALID JUMPDEST ADDRESS PUSH1 0x0 MSTORE PUSH1 0x73 DUP2 MSTORE8 DUP3 DUP2 RETURN POP INVALID PUSH20 0x0 ADDRESS EQ PUSH1 0x80 PUSH1 0x40 MSTORE PUSH1 0x4 CALLDATASIZE LT PUSH1 0x36 JUMPI PUSH1 0x0 CALLDATALOAD PUSH1 0xE0 SHR DUP1 PUSH4 0xC2EE3A08 EQ PUSH1 0x3C JUMPI PUSH1 0x36 JUMP JUMPDEST PUSH1 0x0 PUSH1 0x0 REVERT JUMPDEST PUSH1 0x42 PUSH1 0x58 JUMP JUMPDEST PUSH1 0x40 MLOAD DUP1 DUP3 DUP2 MSTORE PUSH1 0x20 ADD SWAP2 POP POP PUSH1 0x40 MLOAD DUP1 SWAP2 SUB SWAP1 RETURN JUMPDEST PUSH8 0xDE0B6B3A7640000 DUP2 JUMP INVALID LOG2 PUSH5 0x6970667358 0x22 SLT KECCAK256 0xE0 CODECOPY JUMP 0x2F 0xD7 0x2E 0x49 DUP1 PUSH3 0x1173D3 0xC5 0xA5 0xBC 0xC8 0xE3 0xD 0xDD 0xDD XOR MOD SWAP9 CALLDATALOAD PUSH30 0x14BA04081FC94964736F6C63430007060033000000000000000000000000 "
        },
        "methodIdentifiers": {
          "ONE()": "c2ee3a08"
        }
      }
    }
  }
}