{
  "_format": "hh-sol-artifact-1",
  "contractName": "Prices",
  "sourceName": "contracts/core/logic/Prices.sol",
  "abi": [
    {
      "anonymous": false,
      "inputs": [
        {
          "indexed": true,
          "internalType": "address",
          "name": "governor",
          "type": "address"
        }
      ],
      "name": "Initialized",
      "type": "event"
    },
    {
      "anonymous": false,
      "inputs": [
        {
          "indexed": true,
          "internalType": "string",
          "name": "paramName",
          "type": "string"
        },
        {
          "indexed": false,
          "internalType": "uint64",
          "name": "value",
          "type": "uint64"
        }
      ],
      "name": "ParameterUpdated64",
      "type": "event"
    },
    {
      "anonymous": false,
      "inputs": [
        {
          "indexed": true,
          "internalType": "address",
          "name": "pair",
          "type": "address"
        },
        {
          "indexed": false,
          "internalType": "uint256",
          "name": "price",
          "type": "uint256"
        },
        {
          "indexed": false,
          "internalType": "uint256",
          "name": "cumulative",
          "type": "uint256"
        },
        {
          "indexed": false,
          "internalType": "uint64",
          "name": "twapTime",
          "type": "uint64"
        }
      ],
      "name": "PriceUpdated",
      "type": "event"
    },
    {
      "anonymous": false,
      "inputs": [],
      "name": "Stopped",
      "type": "event"
    },
    {
      "inputs": [],
      "name": "collateralPairMinTwapTime",
      "outputs": [
        {
          "internalType": "uint64",
          "name": "",
          "type": "uint64"
        }
      ],
      "stateMutability": "view",
      "type": "function"
    },
    {
      "inputs": [],
      "name": "completeSetup",
      "outputs": [],
      "stateMutability": "nonpayable",
      "type": "function"
    },
    {
      "inputs": [],
      "name": "deployer",
      "outputs": [
        {
          "internalType": "address",
          "name": "",
          "type": "address"
        }
      ],
      "stateMutability": "view",
      "type": "function"
    },
    {
      "inputs": [],
      "name": "governor",
      "outputs": [
        {
          "internalType": "contract IGovernor",
          "name": "",
          "type": "address"
        }
      ],
      "stateMutability": "view",
      "type": "function"
    },
    {
      "inputs": [
        {
          "internalType": "contract IGovernor",
          "name": "_governor",
          "type": "address"
        }
      ],
      "name": "init",
      "outputs": [],
      "stateMutability": "nonpayable",
      "type": "function"
    },
    {
      "inputs": [
        {
          "internalType": "contract IUniswapV2Pair",
          "name": "",
          "type": "address"
        }
      ],
      "name": "priceInfo",
      "outputs": [
        {
          "internalType": "uint256",
          "name": "price",
          "type": "uint256"
        },
        {
          "internalType": "uint256",
          "name": "cumulative",
          "type": "uint256"
        },
        {
          "internalType": "uint64",
          "name": "priceTime",
          "type": "uint64"
        },
        {
          "internalType": "uint64",
          "name": "twapTime",
          "type": "uint64"
        },
        {
          "internalType": "uint256",
          "name": "t0DecimalMultiplier",
          "type": "uint256"
        },
        {
          "internalType": "uint256",
          "name": "t1DecimalMultiplier",
          "type": "uint256"
        },
        {
          "internalType": "bool",
          "name": "coinIsToken0",
          "type": "bool"
        }
      ],
      "stateMutability": "view",
      "type": "function"
    },
    {
      "inputs": [],
      "name": "referencePairMinTwapTime",
      "outputs": [
        {
          "internalType": "uint64",
          "name": "",
          "type": "uint64"
        }
      ],
      "stateMutability": "view",
      "type": "function"
    },
    {
      "inputs": [
        {
          "internalType": "uint64",
          "name": "time",
          "type": "uint64"
        }
      ],
      "name": "setCollateralPairMinTwapTime",
      "outputs": [],
      "stateMutability": "nonpayable",
      "type": "function"
    },
    {
      "inputs": [
        {
          "internalType": "uint64",
          "name": "time",
          "type": "uint64"
        }
      ],
      "name": "setReferencePairMinTwapTime",
      "outputs": [],
      "stateMutability": "nonpayable",
      "type": "function"
    },
    {
      "inputs": [],
      "name": "stop",
      "outputs": [],
      "stateMutability": "nonpayable",
      "type": "function"
    },
    {
      "inputs": [],
      "name": "stopped",
      "outputs": [
        {
          "internalType": "bool",
          "name": "",
          "type": "bool"
        }
      ],
      "stateMutability": "view",
      "type": "function"
    },
    {
      "inputs": [
        {
          "internalType": "contract IUniswapV2Pair",
          "name": "pair",
          "type": "address"
        },
        {
          "internalType": "uint64",
          "name": "maxTwapTime",
          "type": "uint64"
        },
        {
          "internalType": "uint64",
          "name": "maxPriceAge",
          "type": "uint64"
        },
        {
          "internalType": "bool",
          "name": "normalizeDecimals",
          "type": "bool"
        }
      ],
      "name": "systemObtainPrice",
      "outputs": [
        {
          "internalType": "uint256",
          "name": "price",
          "type": "uint256"
        },
        {
          "internalType": "uint64",
          "name": "priceTime",
          "type": "uint64"
        }
      ],
      "stateMutability": "nonpayable",
      "type": "function"
    },
    {
      "inputs": [
        {
          "internalType": "contract IUniswapV2Pair",
          "name": "pair",
          "type": "address"
        }
      ],
      "name": "updatePrice",
      "outputs": [],
      "stateMutability": "nonpayable",
      "type": "function"
    },
    {
      "inputs": [
        {
          "internalType": "bytes4",
          "name": "action",
          "type": "bytes4"
        }
      ],
      "name": "validUpdate",
      "outputs": [
        {
          "internalType": "bool",
          "name": "",
          "type": "bool"
        }
      ],
      "stateMutability": "view",
      "type": "function"
    },
    {
      "inputs": [
        {
          "internalType": "contract IUniswapV2Pair",
          "name": "pair",
          "type": "address"
        },
        {
          "internalType": "bool",
          "name": "normalizeDecimals",
          "type": "bool"
        }
      ],
      "name": "viewPrice",
      "outputs": [
        {
          "internalType": "uint256",
          "name": "price",
          "type": "uint256"
        },
        {
          "internalType": "uint64",
          "name": "priceTime",
          "type": "uint64"
        },
        {
          "internalType": "uint64",
          "name": "twapTime",
          "type": "uint64"
        }
      ],
      "stateMutability": "view",
      "type": "function"
    }
  ],
  "bytecode": "0x6080604052610e10600760006101000a81548167ffffffffffffffff021916908367ffffffffffffffff160217905550610e10600760086101000a81548167ffffffffffffffff021916908367ffffffffffffffff16021790555034801561006657600080fd5b5033600160006101000a81548173ffffffffffffffffffffffffffffffffffffffff021916908373ffffffffffffffffffffffffffffffffffffffff16021790555060016006819055506131d2806100bf6000396000f3fe608060405234801561001057600080fd5b50600436106100f55760003560e01c80636d048d531161009757806396e85ced1161006657806396e85ced14610434578063c31ff2db14610478578063d5f39488146104a0578063e2b22a41146104d4576100f5565b80636d048d531461033a57806375f12b21146103d25780638aea8f71146103f257806392d73b53146103fc576100f5565b8063113cf1ab116100d3578063113cf1ab1461017057806319ab453c146101d357806338cdc1f5146102175780633c4b9faf1461029d576100f5565b806307da68f5146100fa57806309d0933b146101045780630c340a241461013c575b600080fd5b6101026104fc565b005b61013a6004803603602081101561011a57600080fd5b81019080803567ffffffffffffffff1690602001909291905050506105c7565b005b610144610758565b604051808273ffffffffffffffffffffffffffffffffffffffff16815260200191505060405180910390f35b6101bb6004803603602081101561018657600080fd5b8101908080357bffffffffffffffffffffffffffffffffffffffffffffffffffffffff1916906020019092919050505061077c565b60405180821515815260200191505060405180910390f35b610215600480360360208110156101e957600080fd5b81019080803573ffffffffffffffffffffffffffffffffffffffff1690602001909291905050506107e4565b005b6102656004803603604081101561022d57600080fd5b81019080803573ffffffffffffffffffffffffffffffffffffffff169060200190929190803515159060200190929190505050610bfd565b604051808481526020018367ffffffffffffffff1681526020018267ffffffffffffffff168152602001935050505060405180910390f35b610313600480360360808110156102b357600080fd5b81019080803573ffffffffffffffffffffffffffffffffffffffff169060200190929190803567ffffffffffffffff169060200190929190803567ffffffffffffffff169060200190929190803515159060200190929190505050610dfe565b604051808381526020018267ffffffffffffffff1681526020019250505060405180910390f35b61037c6004803603602081101561035057600080fd5b81019080803573ffffffffffffffffffffffffffffffffffffffff1690602001909291905050506110de565b604051808881526020018781526020018667ffffffffffffffff1681526020018567ffffffffffffffff168152602001848152602001838152602001821515815260200197505050505050505060405180910390f35b6103da611155565b60405180821515815260200191505060405180910390f35b6103fa611168565b005b6104326004803603602081101561041257600080fd5b81019080803567ffffffffffffffff16906020019092919050505061155c565b005b6104766004803603602081101561044a57600080fd5b81019080803573ffffffffffffffffffffffffffffffffffffffff1690602001909291905050506116ed565b005b610480611a25565b604051808267ffffffffffffffff16815260200191505060405180910390f35b6104a8611a3f565b604051808273ffffffffffffffffffffffffffffffffffffffff16815260200191505060405180910390f35b6104dc611a65565b604051808267ffffffffffffffff16815260200191505060405180910390f35b60008054906101000a900473ffffffffffffffffffffffffffffffffffffffff1673ffffffffffffffffffffffffffffffffffffffff163373ffffffffffffffffffffffffffffffffffffffff16146105bd576040517f08c379a00000000000000000000000000000000000000000000000000000000081526004018080602001828103825260198152602001807f476f7665726e65643a204e6f7420417574686f72697a65642e0000000000000081525060200191505060405180910390fd5b6105c5611a7f565b565b60008054906101000a900473ffffffffffffffffffffffffffffffffffffffff1673ffffffffffffffffffffffffffffffffffffffff163373ffffffffffffffffffffffffffffffffffffffff1614610688576040517f08c379a00000000000000000000000000000000000000000000000000000000081526004018080602001828103825260198152602001807f476f7665726e65643a204e6f7420417574686f72697a65642e0000000000000081525060200191505060405180910390fd5b80600760086101000a81548167ffffffffffffffff021916908367ffffffffffffffff1602179055506000600760089054906101000a900467ffffffffffffffff1667ffffffffffffffff16116106de57600080fd5b60405180807f636f6c6c61746572616c506169724d696e5477617054696d6500000000000000815250601901905060405180910390207f6293347933ad2997134e224ac8cd2e39908a4a22aeed9af52127b4bbf765297882604051808267ffffffffffffffff16815260200191505060405180910390a250565b60008054906101000a900473ffffffffffffffffffffffffffffffffffffffff1681565b600060056000837bffffffffffffffffffffffffffffffffffffffffffffffffffffffff19167bffffffffffffffffffffffffffffffffffffffffffffffffffffffff1916815260200190815260200160002060009054906101000a900460ff169050919050565b600160009054906101000a900473ffffffffffffffffffffffffffffffffffffffff1673ffffffffffffffffffffffffffffffffffffffff163373ffffffffffffffffffffffffffffffffffffffff16146108a7576040517f08c379a000000000000000000000000000000000000000000000000000000000815260040180806020018281038252601e8152602001807f476f7665726e65643a20496e6974206e6f7420617574686f72697a65642e000081525060200191505060405180910390fd5b600160006101000a81549073ffffffffffffffffffffffffffffffffffffffff0219169055806000806101000a81548173ffffffffffffffffffffffffffffffffffffffff021916908373ffffffffffffffffffffffffffffffffffffffff16021790555060008054906101000a900473ffffffffffffffffffffffffffffffffffffffff1673ffffffffffffffffffffffffffffffffffffffff16639624e83e6040518163ffffffff1660e01b815260040160206040518083038186803b15801561097257600080fd5b505afa158015610986573d6000803e3d6000fd5b505050506040513d602081101561099c57600080fd5b8101908080519060200190929190505050600260006101000a81548173ffffffffffffffffffffffffffffffffffffffff021916908373ffffffffffffffffffffffffffffffffffffffff16021790555060008054906101000a900473ffffffffffffffffffffffffffffffffffffffff1673ffffffffffffffffffffffffffffffffffffffff166311df99956040518163ffffffff1660e01b815260040160206040518083038186803b158015610a5357600080fd5b505afa158015610a67573d6000803e3d6000fd5b505050506040513d6020811015610a7d57600080fd5b8101908080519060200190929190505050600360006101000a81548173ffffffffffffffffffffffffffffffffffffffff021916908373ffffffffffffffffffffffffffffffffffffffff16021790555060008054906101000a900473ffffffffffffffffffffffffffffffffffffffff1673ffffffffffffffffffffffffffffffffffffffff1663d478b0876040518163ffffffff1660e01b815260040160206040518083038186803b158015610b3457600080fd5b505afa158015610b48573d6000803e3d6000fd5b505050506040513d6020811015610b5e57600080fd5b8101908080519060200190929190505050600460006101000a81548173ffffffffffffffffffffffffffffffffffffffff021916908373ffffffffffffffffffffffffffffffffffffffff160217905550610bb7611ac8565b8073ffffffffffffffffffffffffffffffffffffffff167f908408e307fc569b417f6cbec5d5a06f44a0a505ac0479b47d421a4b2fd6a1e660405160405180910390a250565b600080600084600a60008273ffffffffffffffffffffffffffffffffffffffff1673ffffffffffffffffffffffffffffffffffffffff16815260200190815260200160002060009054906101000a900460ff1680610ca45750600960008273ffffffffffffffffffffffffffffffffffffffff1673ffffffffffffffffffffffffffffffffffffffff16815260200190815260200160002060009054906101000a900460ff165b610d16576040517f08c379a000000000000000000000000000000000000000000000000000000000815260040180806020018281038252600d8152602001807f496e76616c696420706169722e0000000000000000000000000000000000000081525060200191505060405180910390fd5b6000600860008873ffffffffffffffffffffffffffffffffffffffff1673ffffffffffffffffffffffffffffffffffffffff1681526020019081526020016000209050806000015494508060020160009054906101000a900467ffffffffffffffff1693508060020160089054906101000a900467ffffffffffffffff1692508515610df5578060050160009054906101000a900460ff16610dd457610dcf8160040154826003015487611bac9092919063ffffffff16565b610df2565b610df18160030154826004015487611bac9092919063ffffffff16565b5b94505b50509250925092565b60008060026006541415610e7a576040517f08c379a000000000000000000000000000000000000000000000000000000000815260040180806020018281038252601d8152602001807f4c6f636b436f6e74726163743a207265656e7472616e742063616c6c2e00000081525060200191505060405180910390fd5b6002600681905550600060149054906101000a900460ff1615610f05576040517f08c379a000000000000000000000000000000000000000000000000000000000815260040180806020018281038252601e8152602001807f476f7665726e65643a20436f6e74726163742069732073746f707065642e000081525060200191505060405180910390fd5b85600a60008273ffffffffffffffffffffffffffffffffffffffff1673ffffffffffffffffffffffffffffffffffffffff16815260200190815260200160002060009054906101000a900460ff1680610fa75750600960008273ffffffffffffffffffffffffffffffffffffffff1673ffffffffffffffffffffffffffffffffffffffff16815260200190815260200160002060009054906101000a900460ff165b611019576040517f08c379a000000000000000000000000000000000000000000000000000000000815260040180806020018281038252600d8152602001807f496e76616c696420706169722e0000000000000000000000000000000000000081525060200191505060405180910390fd5b60008054906101000a900473ffffffffffffffffffffffffffffffffffffffff1673ffffffffffffffffffffffffffffffffffffffff1663815c6c7b336040518263ffffffff1660e01b8152600401808273ffffffffffffffffffffffffffffffffffffffff16815260200191505060006040518083038186803b1580156110a057600080fd5b505afa1580156110b4573d6000803e3d6000fd5b505050506110c487878787611cbb565b809350819450505050600160068190555094509492505050565b60086020528060005260406000206000915090508060000154908060010154908060020160009054906101000a900467ffffffffffffffff16908060020160089054906101000a900467ffffffffffffffff16908060030154908060040154908060050160009054906101000a900460ff16905087565b600060149054906101000a900460ff1681565b60008054906101000a900473ffffffffffffffffffffffffffffffffffffffff1673ffffffffffffffffffffffffffffffffffffffff163373ffffffffffffffffffffffffffffffffffffffff1614611229576040517f08c379a00000000000000000000000000000000000000000000000000000000081526004018080602001828103825260198152602001807f476f7665726e65643a204e6f7420417574686f72697a65642e0000000000000081525060200191505060405180910390fd5b600b60009054906101000a900460ff161561124357600080fd5b6001600b60006101000a81548160ff021916908315150217905550606060008054906101000a900473ffffffffffffffffffffffffffffffffffffffff1673ffffffffffffffffffffffffffffffffffffffff166311e742386040518163ffffffff1660e01b815260040160006040518083038186803b1580156112c657600080fd5b505afa1580156112da573d6000803e3d6000fd5b505050506040513d6000823e3d601f19601f82011682018060405250602081101561130457600080fd5b810190808051604051939291908464010000000082111561132457600080fd5b8382019150602082018581111561133a57600080fd5b825186602082028301116401000000008211171561135757600080fd5b8083526020830192505050908051906020019060200280838360005b8381101561138e578082015181840152602081019050611373565b505050509050016040525050509050606060008054906101000a900473ffffffffffffffffffffffffffffffffffffffff1673ffffffffffffffffffffffffffffffffffffffff16635a50aaf26040518163ffffffff1660e01b815260040160006040518083038186803b15801561140557600080fd5b505afa158015611419573d6000803e3d6000fd5b505050506040513d6000823e3d601f19601f82011682018060405250602081101561144357600080fd5b810190808051604051939291908464010000000082111561146357600080fd5b8382019150602082018581111561147957600080fd5b825186602082028301116401000000008211171561149657600080fd5b8083526020830192505050908051906020019060200280838360005b838110156114cd5780820151818401526020810190506114b2565b50505050905001604052505050905060005b82518160ff1610156115195761150c838260ff16815181106114fd57fe5b6020026020010151600161223c565b80806001019150506114df565b5060005b81518160ff1610156115575761154a828260ff168151811061153b57fe5b6020026020010151600061223c565b808060010191505061151d565b505050565b60008054906101000a900473ffffffffffffffffffffffffffffffffffffffff1673ffffffffffffffffffffffffffffffffffffffff163373ffffffffffffffffffffffffffffffffffffffff161461161d576040517f08c379a00000000000000000000000000000000000000000000000000000000081526004018080602001828103825260198152602001807f476f7665726e65643a204e6f7420417574686f72697a65642e0000000000000081525060200191505060405180910390fd5b80600760006101000a81548167ffffffffffffffff021916908367ffffffffffffffff1602179055506000600760009054906101000a900467ffffffffffffffff1667ffffffffffffffff161161167357600080fd5b60405180807f7265666572656e6365506169724d696e5477617054696d650000000000000000815250601801905060405180910390207f6293347933ad2997134e224ac8cd2e39908a4a22aeed9af52127b4bbf765297882604051808267ffffffffffffffff16815260200191505060405180910390a250565b600460009054906101000a900473ffffffffffffffffffffffffffffffffffffffff1673ffffffffffffffffffffffffffffffffffffffff1663e97dcb626040518163ffffffff1660e01b8152600401600060405180830381600087803b15801561175757600080fd5b505af115801561176b573d6000803e3d6000fd5b50505050600260065414156117e8576040517f08c379a000000000000000000000000000000000000000000000000000000000815260040180806020018281038252601d8152602001807f4c6f636b436f6e74726163743a207265656e7472616e742063616c6c2e00000081525060200191505060405180910390fd5b6002600681905550600060149054906101000a900460ff1615611873576040517f08c379a000000000000000000000000000000000000000000000000000000000815260040180806020018281038252601e8152602001807f476f7665726e65643a20436f6e74726163742069732073746f707065642e000081525060200191505060405180910390fd5b80600a60008273ffffffffffffffffffffffffffffffffffffffff1673ffffffffffffffffffffffffffffffffffffffff16815260200190815260200160002060009054906101000a900460ff16806119155750600960008273ffffffffffffffffffffffffffffffffffffffff1673ffffffffffffffffffffffffffffffffffffffff16815260200190815260200160002060009054906101000a900460ff165b611987576040517f08c379a000000000000000000000000000000000000000000000000000000000815260040180806020018281038252600d8152602001807f496e76616c696420706169722e0000000000000000000000000000000000000081525060200191505060405180910390fd5b611995826000806000611cbb565b5050506001600681905550600460009054906101000a900473ffffffffffffffffffffffffffffffffffffffff1673ffffffffffffffffffffffffffffffffffffffff1663e9fad8ee6040518163ffffffff1660e01b8152600401600060405180830381600087803b158015611a0a57600080fd5b505af1158015611a1e573d6000803e3d6000fd5b5050505050565b600760009054906101000a900467ffffffffffffffff1681565b600160009054906101000a900473ffffffffffffffffffffffffffffffffffffffff1681565b600760089054906101000a900467ffffffffffffffff1681565b6001600060146101000a81548160ff0219169083151502179055507f7acc84e34091ae817647a4c49116f5cc07f319078ba80f8f5fde37ea7e25cbd660405160405180910390a1565b6001600560006392d73b5360e01b7bffffffffffffffffffffffffffffffffffffffffffffffffffffffff19167bffffffffffffffffffffffffffffffffffffffffffffffffffffffff1916815260200190815260200160002060006101000a81548160ff0219169083151502179055506001600560006309d0933b60e01b7bffffffffffffffffffffffffffffffffffffffffffffffffffffffff19167bffffffffffffffffffffffffffffffffffffffffffffffffffffffff1916815260200190815260200160002060006101000a81548160ff021916908315150217905550565b600080841480611bbc5750600083145b15611bca5760009050611cb4565b6000821415611c41576040517f08c379a000000000000000000000000000000000000000000000000000000000815260040180806020018281038252601b8152602001807f536166654d6174683a206469766973696f6e206279207a65726f2e000000000081525060200191505060405180910390fd5b828402905082848281611c5057fe5b0414611ca7576040517f08c379a00000000000000000000000000000000000000000000000000000000081526004018080602001828103825260228152602001806131556022913960400191505060405180910390fd5b818181611cb057fe5b0490505b9392505050565b600080611cc6613101565b600860008873ffffffffffffffffffffffffffffffffffffffff1673ffffffffffffffffffffffffffffffffffffffff1681526020019081526020016000206040518060e001604052908160008201548152602001600182015481526020016002820160009054906101000a900467ffffffffffffffff1667ffffffffffffffff1667ffffffffffffffff1681526020016002820160089054906101000a900467ffffffffffffffff1667ffffffffffffffff1667ffffffffffffffff16815260200160038201548152602001600482015481526020016005820160009054906101000a900460ff16151515158152505090506000600a60008973ffffffffffffffffffffffffffffffffffffffff1673ffffffffffffffffffffffffffffffffffffffff16815260200190815260200160002060009054906101000a900460ff169050600081611e2d57600760009054906101000a900467ffffffffffffffff16611e45565b600760089054906101000a900467ffffffffffffffff165b90506000611e51612822565b90506000846000015114158015611e8057508867ffffffffffffffff16846060015167ffffffffffffffff1611155b8015611ec05750611ea888856040015167ffffffffffffffff1661283290919063ffffffff16565b67ffffffffffffffff168167ffffffffffffffff1611155b15611ed45783600001519550836040015194505b8067ffffffffffffffff16611f0083866040015167ffffffffffffffff1661283290919063ffffffff16565b67ffffffffffffffff1610156121d0576000611f218b8660c00151846128ce565b9050600085604001518303905060008167ffffffffffffffff16611f52886020015185612b4090919063ffffffff16565b81611f5957fe5b049050600081146120b85785156120945760008054906101000a900473ffffffffffffffffffffffffffffffffffffffff1673ffffffffffffffffffffffffffffffffffffffff166380f556056040518163ffffffff1660e01b815260040160206040518083038186803b158015611fd057600080fd5b505afa158015611fe4573d6000803e3d6000fd5b505050506040513d6020811015611ffa57600080fd5b810190808051906020019092919050505073ffffffffffffffffffffffffffffffffffffffff16637a9158ae8e836040518363ffffffff1660e01b8152600401808373ffffffffffffffffffffffffffffffffffffffff16815260200182815260200192505050600060405180830381600087803b15801561207b57600080fd5b505af115801561208f573d6000803e3d6000fd5b505050505b8b67ffffffffffffffff168267ffffffffffffffff1610156120b7578098508397505b5b6000600860008f73ffffffffffffffffffffffffffffffffffffffff1673ffffffffffffffffffffffffffffffffffffffff1681526020019081526020016000209050818160000181905550838160010181905550848160020160006101000a81548167ffffffffffffffff021916908367ffffffffffffffff160217905550828160020160086101000a81548167ffffffffffffffff021916908367ffffffffffffffff1602179055508d73ffffffffffffffffffffffffffffffffffffffff167f5484d7a2f04f94d6d62ceb044bcc5acb71686eae2a490f39dd1a3195ba7f4ea0838686604051808481526020018381526020018267ffffffffffffffff168152602001935050505060405180910390a2505050505b600086141580156121de5750865b1561222f578360c0015161220e576122098460a00151856080015188611bac9092919063ffffffff16565b61222c565b61222b84608001518560a0015188611bac9092919063ffffffff16565b5b95505b5050505094509492505050565b6000808373ffffffffffffffffffffffffffffffffffffffff16630902f1ac6040518163ffffffff1660e01b815260040160606040518083038186803b15801561228557600080fd5b505afa158015612299573d6000803e3d6000fd5b505050506040513d60608110156122af57600080fd5b8101908080519060200190929190805190602001909291908051906020019092919050505050915091506000826dffffffffffffffffffffffffffff161415801561230b57506000816dffffffffffffffffffffffffffff1614155b61237d576040517f08c379a000000000000000000000000000000000000000000000000000000000815260040180806020018281038252600c8152602001807f4e6f2072657365727665732e000000000000000000000000000000000000000081525060200191505060405180910390fd5b826123de576001600960008673ffffffffffffffffffffffffffffffffffffffff1673ffffffffffffffffffffffffffffffffffffffff16815260200190815260200160002060006101000a81548160ff0219169083151502179055612436565b6001600a60008673ffffffffffffffffffffffffffffffffffffffff1673ffffffffffffffffffffffffffffffffffffffff16815260200190815260200160002060006101000a81548160ff02191690831515021790555b5060008473ffffffffffffffffffffffffffffffffffffffff16630dfe16816040518163ffffffff1660e01b815260040160206040518083038186803b15801561247f57600080fd5b505afa158015612493573d6000803e3d6000fd5b505050506040513d60208110156124a957600080fd5b810190808051906020019092919050505073ffffffffffffffffffffffffffffffffffffffff1663313ce5676040518163ffffffff1660e01b815260040160206040518083038186803b1580156124ff57600080fd5b505afa158015612513573d6000803e3d6000fd5b505050506040513d602081101561252957600080fd5b8101908080519060200190929190505050905060008573ffffffffffffffffffffffffffffffffffffffff1663d21220a76040518163ffffffff1660e01b815260040160206040518083038186803b15801561258457600080fd5b505afa158015612598573d6000803e3d6000fd5b505050506040513d60208110156125ae57600080fd5b810190808051906020019092919050505073ffffffffffffffffffffffffffffffffffffffff1663313ce5676040518163ffffffff1660e01b815260040160206040518083038186803b15801561260457600080fd5b505afa158015612618573d6000803e3d6000fd5b505050506040513d602081101561262e57600080fd5b8101908080519060200190929190505050905060128260ff1611158015612659575060128160ff1611155b6126cb576040517f08c379a00000000000000000000000000000000000000000000000000000000081526004018080602001828103825260128152602001807f546f6f206d616e7920646563696d616c732e000000000000000000000000000081525060200191505060405180910390fd5b6040518060e001604052806000815260200160008152602001600067ffffffffffffffff168152602001600067ffffffffffffffff1681526020018360120360ff16600a0a81526020018260120360ff16600a0a815260200161272d88612b8a565b1515815250600860008873ffffffffffffffffffffffffffffffffffffffff1673ffffffffffffffffffffffffffffffffffffffff168152602001908152602001600020600082015181600001556020820151816001015560408201518160020160006101000a81548167ffffffffffffffff021916908367ffffffffffffffff16021790555060608201518160020160086101000a81548167ffffffffffffffff021916908367ffffffffffffffff1602179055506080820151816003015560a0820151816004015560c08201518160050160006101000a81548160ff021916908315150217905550905050505050505050565b600061282d42612dad565b905090565b60008082840190508367ffffffffffffffff168167ffffffffffffffff1610156128c4576040517f08c379a000000000000000000000000000000000000000000000000000000000815260040180806020018281038252601b8152602001807f536166654d6174683a206164646974696f6e206f766572666c6f77000000000081525060200191505060405180910390fd5b8091505092915050565b60008261295b578373ffffffffffffffffffffffffffffffffffffffff16635909c0d56040518163ffffffff1660e01b815260040160206040518083038186803b15801561291b57600080fd5b505afa15801561292f573d6000803e3d6000fd5b505050506040513d602081101561294557600080fd5b81019080805190602001909291905050506129dd565b8373ffffffffffffffffffffffffffffffffffffffff16635a3d54936040518163ffffffff1660e01b815260040160206040518083038186803b1580156129a157600080fd5b505afa1580156129b5573d6000803e3d6000fd5b505050506040513d60208110156129cb57600080fd5b81019080805190602001909291905050505b905060008060008673ffffffffffffffffffffffffffffffffffffffff16630902f1ac6040518163ffffffff1660e01b815260040160606040518083038186803b158015612a2a57600080fd5b505afa158015612a3e573d6000803e3d6000fd5b505050506040513d6060811015612a5457600080fd5b8101908080519060200190929190805190602001909291908051906020019092919050505092506dffffffffffffffffffffffffffff1692506dffffffffffffffffffffffffffff1692508467ffffffffffffffff168163ffffffff1614612b1257612b0f86612ae1578163ffffffff16860367ffffffffffffffff16612adb8486612e18565b02612b00565b8163ffffffff16860367ffffffffffffffff16612afe8585612e18565b025b85612ea690919063ffffffff16565b93505b612b346e01000000000000000000000000000085612f2e90919063ffffffff16565b93505050509392505050565b6000612b8283836040518060400160405280601e81526020017f536166654d6174683a207375627472616374696f6e206f766572666c6f770000815250613041565b905092915050565b6000600360009054906101000a900473ffffffffffffffffffffffffffffffffffffffff1673ffffffffffffffffffffffffffffffffffffffff168273ffffffffffffffffffffffffffffffffffffffff16630dfe16816040518163ffffffff1660e01b815260040160206040518083038186803b158015612c0b57600080fd5b505afa158015612c1f573d6000803e3d6000fd5b505050506040513d6020811015612c3557600080fd5b810190808051906020019092919050505073ffffffffffffffffffffffffffffffffffffffff1614905080612da857600360009054906101000a900473ffffffffffffffffffffffffffffffffffffffff1673ffffffffffffffffffffffffffffffffffffffff168273ffffffffffffffffffffffffffffffffffffffff1663d21220a76040518163ffffffff1660e01b815260040160206040518083038186803b158015612ce357600080fd5b505afa158015612cf7573d6000803e3d6000fd5b505050506040513d6020811015612d0d57600080fd5b810190808051906020019092919050505073ffffffffffffffffffffffffffffffffffffffff1614612da7576040517f08c379a000000000000000000000000000000000000000000000000000000000815260040180806020018281038252600d8152602001807f4d697373696e6720436f696e2e0000000000000000000000000000000000000081525060200191505060405180910390fd5b5b919050565b6000680100000000000000008210612e10576040517f08c379a00000000000000000000000000000000000000000000000000000000081526004018080602001828103825260268152602001806131776026913960400191505060405180910390fd5b819050919050565b600080821415612e90576040517f08c379a00000000000000000000000000000000000000000000000000000000081526004018080602001828103825260178152602001807f4669786564506f696e743a204449565f42595f5a45524f00000000000000000081525060200191505060405180910390fd5b81607084901b81612e9d57fe5b04905092915050565b600080828401905083811015612f24576040517f08c379a000000000000000000000000000000000000000000000000000000000815260040180806020018281038252601b8152602001807f536166654d6174683a206164646974696f6e206f766572666c6f77000000000081525060200191505060405180910390fd5b8091505092915050565b600080831415612f41576000905061303b565b6000821415612fb8576040517f08c379a000000000000000000000000000000000000000000000000000000000815260040180806020018281038252601b8152602001807f536166654d6174683a206469766973696f6e206279207a65726f2e000000000081525060200191505060405180910390fd5b670de0b6b3a764000083029050670de0b6b3a7640000838281612fd757fe5b041461302e576040517f08c379a00000000000000000000000000000000000000000000000000000000081526004018080602001828103825260228152602001806131556022913960400191505060405180910390fd5b81818161303757fe5b0490505b92915050565b60008383111582906130ee576040517f08c379a00000000000000000000000000000000000000000000000000000000081526004018080602001828103825283818151815260200191508051906020019080838360005b838110156130b3578082015181840152602081019050613098565b50505050905090810190601f1680156130e05780820380516001836020036101000a031916815260200191505b509250505060405180910390fd5b5060008385039050809150509392505050565b6040518060e001604052806000815260200160008152602001600067ffffffffffffffff168152602001600067ffffffffffffffff1681526020016000815260200160008152602001600015158152509056fe536166654d6174683a206d756c7469706c69636174696f6e206f766572666c6f772e53616665436173743a2076616c756520646f65736e27742066697420696e2036342062697473a26469706673582212207060cb7f5adadf8bd1d879adf4a9db7eb06e242a0a4067986c0cb8f7e0e12f7364736f6c63430007040033",
  "linkReferences": {},
  "deployedLinkReferences": {}
}