{
  "_format": "hh-sol-artifact-1",
  "contractName": "Prices",
  "sourceName": "contracts/core/logic/Prices.sol",
  "abi": [
    {
      "inputs": [
        {
          "components": [
            {
              "internalType": "contract IGovernor",
              "name": "Governor",
              "type": "address"
            },
            {
              "internalType": "address",
              "name": "Weth",
              "type": "address"
            },
            {
              "internalType": "address",
              "name": "Tcp",
              "type": "address"
            },
            {
              "internalType": "address",
              "name": "Hue",
              "type": "address"
            },
            {
              "internalType": "contract IUniswapV3Pool",
              "name": "CollateralPool",
              "type": "address"
            },
            {
              "internalType": "contract IUniswapV3Pool",
              "name": "ProtocolPool",
              "type": "address"
            }
          ],
          "internalType": "struct IPrices.ConstructorParams",
          "name": "params",
          "type": "tuple"
        }
      ],
      "stateMutability": "nonpayable",
      "type": "constructor"
    },
    {
      "anonymous": false,
      "inputs": [
        {
          "indexed": true,
          "internalType": "address",
          "name": "pool",
          "type": "address"
        },
        {
          "indexed": false,
          "internalType": "uint256",
          "name": "price",
          "type": "uint256"
        },
        {
          "indexed": false,
          "internalType": "int24",
          "name": "tick",
          "type": "int24"
        }
      ],
      "name": "PriceUpdated",
      "type": "event"
    },
    {
      "anonymous": false,
      "inputs": [],
      "name": "Stopped",
      "type": "event"
    },
    {
      "inputs": [
        {
          "internalType": "uint32",
          "name": "twapDuration",
          "type": "uint32"
        }
      ],
      "name": "calculateInstantCollateralPrice",
      "outputs": [
        {
          "internalType": "uint256",
          "name": "",
          "type": "uint256"
        }
      ],
      "stateMutability": "view",
      "type": "function"
    },
    {
      "inputs": [
        {
          "internalType": "contract IUniswapV3Pool",
          "name": "pool",
          "type": "address"
        },
        {
          "internalType": "uint32",
          "name": "twapDuration",
          "type": "uint32"
        }
      ],
      "name": "calculateInstantTwappedPrice",
      "outputs": [
        {
          "internalType": "uint256",
          "name": "",
          "type": "uint256"
        }
      ],
      "stateMutability": "view",
      "type": "function"
    },
    {
      "inputs": [
        {
          "internalType": "contract IUniswapV3Pool",
          "name": "pool",
          "type": "address"
        },
        {
          "internalType": "uint32",
          "name": "twapDuration",
          "type": "uint32"
        }
      ],
      "name": "calculateInstantTwappedTick",
      "outputs": [
        {
          "internalType": "int24",
          "name": "tick",
          "type": "int24"
        }
      ],
      "stateMutability": "view",
      "type": "function"
    },
    {
      "inputs": [
        {
          "internalType": "contract IUniswapV3Pool",
          "name": "pool",
          "type": "address"
        },
        {
          "internalType": "bool",
          "name": "normalizeDecimals",
          "type": "bool"
        }
      ],
      "name": "calculateTwappedPrice",
      "outputs": [
        {
          "internalType": "uint256",
          "name": "price",
          "type": "uint256"
        }
      ],
      "stateMutability": "view",
      "type": "function"
    },
    {
      "inputs": [],
      "name": "collateralPool",
      "outputs": [
        {
          "internalType": "contract IUniswapV3Pool",
          "name": "",
          "type": "address"
        }
      ],
      "stateMutability": "view",
      "type": "function"
    },
    {
      "inputs": [],
      "name": "deployer",
      "outputs": [
        {
          "internalType": "address",
          "name": "",
          "type": "address"
        }
      ],
      "stateMutability": "view",
      "type": "function"
    },
    {
      "inputs": [
        {
          "internalType": "contract IUniswapV3Pool",
          "name": "pool",
          "type": "address"
        },
        {
          "internalType": "int24",
          "name": "tick",
          "type": "int24"
        },
        {
          "internalType": "int24",
          "name": "tickLower",
          "type": "int24"
        },
        {
          "internalType": "int24",
          "name": "tickUpper",
          "type": "int24"
        },
        {
          "internalType": "uint128",
          "name": "liquidity",
          "type": "uint128"
        },
        {
          "internalType": "uint32",
          "name": "twapDuration",
          "type": "uint32"
        }
      ],
      "name": "getRealHueCountForSinglePoolPosition",
      "outputs": [
        {
          "internalType": "uint256",
          "name": "",
          "type": "uint256"
        }
      ],
      "stateMutability": "view",
      "type": "function"
    },
    {
      "inputs": [],
      "name": "governor",
      "outputs": [
        {
          "internalType": "contract IGovernor",
          "name": "",
          "type": "address"
        }
      ],
      "stateMutability": "view",
      "type": "function"
    },
    {
      "inputs": [
        {
          "internalType": "uint32",
          "name": "twapDuration",
          "type": "uint32"
        }
      ],
      "name": "hueTcpPrice",
      "outputs": [
        {
          "internalType": "uint256",
          "name": "",
          "type": "uint256"
        }
      ],
      "stateMutability": "view",
      "type": "function"
    },
    {
      "inputs": [],
      "name": "init",
      "outputs": [],
      "stateMutability": "nonpayable",
      "type": "function"
    },
    {
      "inputs": [
        {
          "internalType": "contract IUniswapV3Pool",
          "name": "pool",
          "type": "address"
        }
      ],
      "name": "initializePool",
      "outputs": [],
      "stateMutability": "nonpayable",
      "type": "function"
    },
    {
      "inputs": [
        {
          "internalType": "contract IUniswapV3Pool",
          "name": "pool",
          "type": "address"
        }
      ],
      "name": "initializeWethPool",
      "outputs": [],
      "stateMutability": "nonpayable",
      "type": "function"
    },
    {
      "inputs": [
        {
          "internalType": "contract IUniswapV3Pool",
          "name": "pool",
          "type": "address"
        }
      ],
      "name": "isPoolInitialized",
      "outputs": [
        {
          "internalType": "bool",
          "name": "",
          "type": "bool"
        }
      ],
      "stateMutability": "view",
      "type": "function"
    },
    {
      "inputs": [
        {
          "internalType": "contract IUniswapV3Pool",
          "name": "",
          "type": "address"
        }
      ],
      "name": "priceInfo",
      "outputs": [
        {
          "internalType": "uint64",
          "name": "startTime",
          "type": "uint64"
        },
        {
          "internalType": "int56",
          "name": "tickCumulative",
          "type": "int56"
        },
        {
          "internalType": "int24",
          "name": "tick",
          "type": "int24"
        },
        {
          "internalType": "uint8",
          "name": "otherTokenDecimals",
          "type": "uint8"
        },
        {
          "internalType": "bool",
          "name": "isToken0",
          "type": "bool"
        },
        {
          "internalType": "bool",
          "name": "valid",
          "type": "bool"
        }
      ],
      "stateMutability": "view",
      "type": "function"
    },
    {
      "inputs": [],
      "name": "protocolPool",
      "outputs": [
        {
          "internalType": "contract IUniswapV3Pool",
          "name": "",
          "type": "address"
        }
      ],
      "stateMutability": "view",
      "type": "function"
    },
    {
      "inputs": [],
      "name": "stop",
      "outputs": [],
      "stateMutability": "nonpayable",
      "type": "function"
    },
    {
      "inputs": [],
      "name": "stopped",
      "outputs": [
        {
          "internalType": "bool",
          "name": "",
          "type": "bool"
        }
      ],
      "stateMutability": "view",
      "type": "function"
    },
    {
      "inputs": [
        {
          "internalType": "contract IUniswapV3Pool",
          "name": "pool",
          "type": "address"
        }
      ],
      "name": "systemObtainReferencePrice",
      "outputs": [
        {
          "internalType": "uint256",
          "name": "",
          "type": "uint256"
        }
      ],
      "stateMutability": "nonpayable",
      "type": "function"
    },
    {
      "inputs": [
        {
          "internalType": "bytes4",
          "name": "",
          "type": "bytes4"
        }
      ],
      "name": "validUpdate",
      "outputs": [
        {
          "internalType": "bool",
          "name": "",
          "type": "bool"
        }
      ],
      "stateMutability": "view",
      "type": "function"
    }
  ],
  "bytecode": "0x610140604052600160026000509090553480156200001d5760006000fd5b5060405162003dfa38038062003dfa833981810160405281019062000043919062000223565b5b80600001515b8073ffffffffffffffffffffffffffffffffffffffff1660808173ffffffffffffffffffffffffffffffffffffffff1660601b815260140150505b50806020015173ffffffffffffffffffffffffffffffffffffffff1660e08173ffffffffffffffffffffffffffffffffffffffff1660601b81526014015050806040015173ffffffffffffffffffffffffffffffffffffffff166101008173ffffffffffffffffffffffffffffffffffffffff1660601b81526014015050806060015173ffffffffffffffffffffffffffffffffffffffff166101208173ffffffffffffffffffffffffffffffffffffffff1660601b81526014015050806080015173ffffffffffffffffffffffffffffffffffffffff1660a08173ffffffffffffffffffffffffffffffffffffffff1660601b815260140150508060a0015173ffffffffffffffffffffffffffffffffffffffff1660c08173ffffffffffffffffffffffffffffffffffffffff1660601b8152601401505033600460006101000a81548173ffffffffffffffffffffffffffffffffffffffff021916908373ffffffffffffffffffffffffffffffffffffffff1602179055505b50620002f856620002f7565b6000815190506200021d81620002da565b5b919050565b600060c0828403121562000235578081fd5b60405160c081018181106001600160401b03821117156200025257fe5b806040525082516200026481620002da565b8082525060208301516200027881620002da565b8060208301525060408301516200028f81620002da565b80604083015250620002a4606084016200020c565b6060820152620002b7608084016200020c565b6080820152620002ca60a084016200020c565b60a0820152809150505b92915050565b6001600160a01b03811681141515620002f35760006000fd5b5b50565b5b60805160601c60a05160601c60c05160601c60e05160601c6101005160601c6101205160601c613a4c620003ae60003980610d4e5280610d83528061180952806118595250806108c25280610e225280610e575250806108275280610db85280610ded52806110bd52508061091c52806110ed5280611116528061183852508061088152806117e8528061188d52806118e55250806104455280610c3b5280610faa528061115f528061190c5250613a4c6000f3fe60806040523480156100115760006000fd5b50600436106101565760003560e01c80637c5b9011116100ce578063d97e640011610082578063fa42dcf411610067578063fa42dcf4146103a5578063fcebd71c146103d5578063ff0eccf61461040557610156565b8063d97e64001461036b578063e1c7392a1461039b57610156565b80638d02a08a116100b35780638d02a08a146102ed578063ce403c131461031d578063d5f394881461034d57610156565b80637c5b9011146102b35780638396cf69146102cf57610156565b80633c63a9cd11610125578063532cec7c1161010a578063532cec7c146102305780636d048d531461026057806375f12b211461029557610156565b80633c63a9cd146101e4578063407431f71461021457610156565b806307da68f51461015c5780630c340a2414610166578063113cf1ab146101845780631fab230e146101b457610156565b60006000fd5b610164610423565b005b61016e610443565b60405161017b9190613759565b60405180910390f35b61019e60048036038101906101999190613417565b610467565b6040516101ab9190613745565b60405180910390f35b6101ce60048036038101906101c99190613515565b61048c565b6040516101db91906138f9565b60405180910390f35b6101fe60048036038101906101f991906134d9565b610979565b60405161020b91906138f9565b60405180910390f35b61022e600480360381019061022991906134b2565b610c39565b005b61024a600480360381019061024591906134b2565b610e9d565b6040516102579190613745565b60405180910390f35b61027a600480360381019061027591906134b2565b610f01565b60405161028c96959493929190613927565b60405180910390f35b61029d610f95565b6040516102aa9190613745565b60405180910390f35b6102cd60048036038101906102c891906134b2565b610fa8565b005b6102d76110eb565b6040516102e49190613781565b60405180910390f35b61030760048036038101906103029190613683565b61110f565b60405161031491906138f9565b60405180910390f35b610337600480360381019061033291906134b2565b61114d565b60405161034491906138f9565b60405180910390f35b61035561171a565b60405161036291906136c9565b60405180910390f35b610385600480360381019061038091906135b6565b611740565b60405161039291906138f9565b60405180910390f35b6103a361175f565b005b6103bf60048036038101906103ba9190613683565b611886565b6040516103cc91906138f9565b60405180910390f35b6103ef60048036038101906103ea91906135b6565b6118c4565b6040516103fc91906137a9565b60405180910390f35b61040d6118e3565b60405161041a9190613781565b60405180910390f35b61043161190763ffffffff16565b61043f61196763ffffffff16565b5b5b565b7f000000000000000000000000000000000000000000000000000000000000000081565b600160005060205280600052604060002060009150909054906101000a900460ff1681565b60006000600360005060008973ffffffffffffffffffffffffffffffffffffffff1673ffffffffffffffffffffffffffffffffffffffff1681526020019081526020016000206000506040518060c00160405290816000820160009054906101000a900467ffffffffffffffff1667ffffffffffffffff1667ffffffffffffffff1681526020016000820160089054906101000a900460060b60060b60060b815260200160008201600f9054906101000a900460020b60020b60020b81526020016000820160129054906101000a900460ff1660ff1660ff1681526020016000820160139054906101000a900460ff161515151581526020016000820160149054906101000a900460ff16151515158152602001505090506105b78160a001516119b163ffffffff16565b60006105c8886119f763ffffffff16565b9050600060006105fc836105e18b6119f763ffffffff16565b6105f08b6119f763ffffffff16565b8a611e8e63ffffffff16565b91509150600084608001516106115781610613565b825b905061070e85608001516106925761068d6106638673ffffffffffffffffffffffffffffffffffffffff168773ffffffffffffffffffffffffffffffffffffffff16611fa490919063ffffffff16565b7801000000000000000000000000000000000000000000000000866120429092919063ffffffff16565b6106ff565b6106fe78010000000000000000000000000000000000000000000000006106ee8773ffffffffffffffffffffffffffffffffffffffff168873ffffffffffffffffffffffffffffffffffffffff16611fa490919063ffffffff16565b856120429092919063ffffffff16565b5b8261214390919063ffffffff16565b90508050600085608001516107a2578c73ffffffffffffffffffffffffffffffffffffffff1663d21220a76040518163ffffffff1660e01b815260040160206040518083038186803b1580156107645760006000fd5b505afa158015610779573d600060003e3d6000fd5b505050506040513d601f19601f8201168201806040525081019061079d9190613314565b610823565b8c73ffffffffffffffffffffffffffffffffffffffff16630dfe16816040518163ffffffff1660e01b815260040160206040518083038186803b1580156107e95760006000fd5b505afa1580156107fe573d600060003e3d6000fd5b505050506040513d601f19601f820116820180604052508101906108229190613314565b5b90507f000000000000000000000000000000000000000000000000000000000000000073ffffffffffffffffffffffffffffffffffffffff168173ffffffffffffffffffffffffffffffffffffffff1614156108c0576108bb6108ac7f00000000000000000000000000000000000000000000000000000000000000008a6121cc63ffffffff16565b8361229b90919063ffffffff16565b915081505b7f000000000000000000000000000000000000000000000000000000000000000073ffffffffffffffffffffffffffffffffffffffff168173ffffffffffffffffffffffffffffffffffffffff16141561095b576109566109477f00000000000000000000000000000000000000000000000000000000000000008a6121cc63ffffffff16565b8361229b90919063ffffffff16565b915081505b81965050505050505061096f565050505050505b9695505050505050565b60006000600360005060008573ffffffffffffffffffffffffffffffffffffffff1673ffffffffffffffffffffffffffffffffffffffff1681526020019081526020016000206000506040518060c00160405290816000820160009054906101000a900467ffffffffffffffff1667ffffffffffffffff1667ffffffffffffffff1681526020016000820160089054906101000a900460060b60060b60060b815260200160008201600f9054906101000a900460020b60020b60020b81526020016000820160129054906101000a900460ff1660ff1660ff1681526020016000820160139054906101000a900460ff161515151581526020016000820160149054906101000a900460ff1615151515815260200150509050610aa48160a001516119b163ffffffff16565b6000610ab46122c163ffffffff16565b90508067ffffffffffffffff16826000015167ffffffffffffffff16101515610b12576040517f08c379a0000000000000000000000000000000000000000000000000000000008152600401610b099061383c565b60405180910390fd5b60008573ffffffffffffffffffffffffffffffffffffffff1663883bdbfd610b3e6122dc63ffffffff16565b6040518263ffffffff1660e01b8152600401610b5a91906136f1565b60006040518083038186803b158015610b735760006000fd5b505afa158015610b88573d600060003e3d6000fd5b505050506040513d6000823e3d601f19601f82011682018060405250810190610bb1919061333b565b509050610c06610bf68460200151836000815181101515610bce57fe5b6020026020010151610beb8760000151870361235d63ffffffff16565b6123bf63ffffffff16565b846080015161242e63ffffffff16565b9350835084610c155783610c26565b610c25848461246963ffffffff16565b5b9350505050610c33565050505b92915050565b7f000000000000000000000000000000000000000000000000000000000000000073ffffffffffffffffffffffffffffffffffffffff16639ec5a8946040518163ffffffff1660e01b815260040160206040518083038186803b158015610ca05760006000fd5b505afa158015610cb5573d600060003e3d6000fd5b505050506040513d601f19601f82011682018060405250810190610cd9919061348b565b73ffffffffffffffffffffffffffffffffffffffff163373ffffffffffffffffffffffffffffffffffffffff16141515610d48576040517f08c379a0000000000000000000000000000000000000000000000000000000008152600401610d3f906137fd565b60405180910390fd5b610d78817f00000000000000000000000000000000000000000000000000000000000000006124fe63ffffffff16565b15610db257610dad817f000000000000000000000000000000000000000000000000000000000000000061267063ffffffff16565b610e99565b610de2817f00000000000000000000000000000000000000000000000000000000000000006124fe63ffffffff16565b15610e1c57610e17817f000000000000000000000000000000000000000000000000000000000000000061267063ffffffff16565b610e98565b610e4c817f00000000000000000000000000000000000000000000000000000000000000006124fe63ffffffff16565b15610e8657610e81817f000000000000000000000000000000000000000000000000000000000000000061267063ffffffff16565b610e97565b610e9660006119b163ffffffff16565b5b5b5b5b50565b6000600360005060008373ffffffffffffffffffffffffffffffffffffffff1673ffffffffffffffffffffffffffffffffffffffff16815260200190815260200160002060005060000160149054906101000a900460ff169050610efc565b919050565b60036000506020528060005260406000206000915090508060000160009054906101000a900467ffffffffffffffff16908060000160089054906101000a900460060b9080600001600f9054906101000a900460020b908060000160129054906101000a900460ff16908060000160139054906101000a900460ff16908060000160149054906101000a900460ff16905086565b600060009054906101000a900460ff1681565b7f000000000000000000000000000000000000000000000000000000000000000073ffffffffffffffffffffffffffffffffffffffff166343f48fbd6040518163ffffffff1660e01b815260040160206040518083038186803b15801561100f5760006000fd5b505afa158015611024573d600060003e3d6000fd5b505050506040513d601f19601f820116820180604052508101906110489190613464565b73ffffffffffffffffffffffffffffffffffffffff163373ffffffffffffffffffffffffffffffffffffffff161415156110b7576040517f08c379a00000000000000000000000000000000000000000000000000000000081526004016110ae906137fd565b60405180910390fd5b6110e7817f000000000000000000000000000000000000000000000000000000000000000061267063ffffffff16565b5b50565b7f000000000000000000000000000000000000000000000000000000000000000081565b60006111417f0000000000000000000000000000000000000000000000000000000000000000836121cc63ffffffff16565b9050611148565b919050565b600061115d612bc463ffffffff16565b7f000000000000000000000000000000000000000000000000000000000000000073ffffffffffffffffffffffffffffffffffffffff166343f48fbd6040518163ffffffff1660e01b815260040160206040518083038186803b1580156111c45760006000fd5b505afa1580156111d9573d600060003e3d6000fd5b505050506040513d601f19601f820116820180604052508101906111fd9190613464565b73ffffffffffffffffffffffffffffffffffffffff163373ffffffffffffffffffffffffffffffffffffffff1614151561126c576040517f08c379a0000000000000000000000000000000000000000000000000000000008152600401611263906137fd565b60405180910390fd5b6000600360005060008473ffffffffffffffffffffffffffffffffffffffff1673ffffffffffffffffffffffffffffffffffffffff1681526020019081526020016000206000506040518060c00160405290816000820160009054906101000a900467ffffffffffffffff1667ffffffffffffffff1667ffffffffffffffff1681526020016000820160089054906101000a900460060b60060b60060b815260200160008201600f9054906101000a900460020b60020b60020b81526020016000820160129054906101000a900460ff1660ff1660ff1681526020016000820160139054906101000a900460ff161515151581526020016000820160149054906101000a900460ff16151515158152602001505090506113958160a001516119b163ffffffff16565b60006113a56122c163ffffffff16565b90508067ffffffffffffffff16826000015167ffffffffffffffff16101515611403576040517f08c379a00000000000000000000000000000000000000000000000000000000081526004016113fa9061383c565b60405180910390fd5b60008473ffffffffffffffffffffffffffffffffffffffff1663883bdbfd61142f6122dc63ffffffff16565b6040518263ffffffff1660e01b815260040161144b91906136f1565b60006040518083038186803b1580156114645760006000fd5b505afa158015611479573d600060003e3d6000fd5b505050506040513d6000823e3d601f19601f820116820180604052508101906114a2919061333b565b5090506114e483602001518260008151811015156114bc57fe5b60200260200101516114d98660000151860361235d63ffffffff16565b6123bf63ffffffff16565b836040019060020b908160020b8152602001505080600081518110151561150757fe5b6020026020010151836020019060060b908160060b8152602001505081836000019067ffffffffffffffff16908167ffffffffffffffff168152602001505082600360005060008773ffffffffffffffffffffffffffffffffffffffff1673ffffffffffffffffffffffffffffffffffffffff16815260200190815260200160002060005060008201518160000160006101000a81548167ffffffffffffffff021916908367ffffffffffffffff16021790555060208201518160000160086101000a81548166ffffffffffffff021916908360060b66ffffffffffffff160217905550604082015181600001600f6101000a81548162ffffff021916908360020b62ffffff16021790555060608201518160000160126101000a81548160ff021916908360ff16021790555060808201518160000160136101000a81548160ff02191690831515021790555060a08201518160000160146101000a81548160ff02191690831515021790555090505060006116a06116948560400151866080015161242e63ffffffff16565b8561246963ffffffff16565b90508573ffffffffffffffffffffffffffffffffffffffff167f4aec2babed558ca204f263d79ac04efaccd05cd4b7bebfa21beeb221330062d38286604001516040516116ee92919061390b565b60405180910390a28094505050505061170656505050505b611714612c5563ffffffff16565b5b919050565b600460009054906101000a900473ffffffffffffffffffffffffffffffffffffffff1681565b600061175283836121cc63ffffffff16565b9050611759565b92915050565b6117be600460009054906101000a900473ffffffffffffffffffffffffffffffffffffffff1673ffffffffffffffffffffffffffffffffffffffff163373ffffffffffffffffffffffffffffffffffffffff1614612c6563ffffffff16565b600460006101000a81549073ffffffffffffffffffffffffffffffffffffffff02191690556118337f00000000000000000000000000000000000000000000000000000000000000007f000000000000000000000000000000000000000000000000000000000000000061267063ffffffff16565b6118837f00000000000000000000000000000000000000000000000000000000000000007f000000000000000000000000000000000000000000000000000000000000000061267063ffffffff16565b5b565b60006118b87f0000000000000000000000000000000000000000000000000000000000000000836121cc63ffffffff16565b90506118bf565b919050565b60006118d68383612ce163ffffffff16565b90506118dd565b92915050565b7f000000000000000000000000000000000000000000000000000000000000000081565b6119647f000000000000000000000000000000000000000000000000000000000000000073ffffffffffffffffffffffffffffffffffffffff163373ffffffffffffffffffffffffffffffffffffffff1614612c6563ffffffff16565b5b565b6001600060006101000a81548160ff0219169083151502179055507f7acc84e34091ae817647a4c49116f5cc07f319078ba80f8f5fde37ea7e25cbd660405160405180910390a15b565b8015156119f3576040517f08c379a00000000000000000000000000000000000000000000000000000000081526004016119ea906138ba565b60405180910390fd5b5b50565b6000600060008360020b12611a0f578260020b611a17565b8260020b6000035b90507ffffffffffffffffffffffffffffffffffffffffffffffffffffffffffff2761860000360020b8111151515611aba576040517f08c379a00000000000000000000000000000000000000000000000000000000081526004018080602001828103825260018152602001807f540000000000000000000000000000000000000000000000000000000000000081526020015060200191505060405180910390fd5b60006000600183161415611adf57700100000000000000000000000000000000611af1565b6ffffcb933bd6fad37aa2d162d1a5940015b70ffffffffffffffffffffffffffffffffff169050600060028316141515611b2f5760806ffff97272373d413259a46990580e213a8202901c905080505b600060048316141515611b585760806ffff2e50f5f656932ef12357cf3c7fdcc8202901c905080505b600060088316141515611b815760806fffe5caca7e10e4e61c3624eaa0941cd08202901c905080505b600060108316141515611baa5760806fffcb9843d60f6159c9db58835c9266448202901c905080505b600060208316141515611bd35760806fff973b41fa98c081472e6896dfb254c08202901c905080505b600060408316141515611bfc5760806fff2ea16466c96a3843ec78b326b528618202901c905080505b600060808316141515611c255760806ffe5dee046a99a2a811c461f1969c30538202901c905080505b60006101008316141515611c4f5760806ffcbe86c7900a88aedcffc83b479aa3a48202901c905080505b60006102008316141515611c795760806ff987a7253ac413176f2b074cf7815e548202901c905080505b60006104008316141515611ca35760806ff3392b0822b70005940c7a398e4b70f38202901c905080505b60006108008316141515611ccd5760806fe7159475a2c29b7443b29c7fa6e889d98202901c905080505b60006110008316141515611cf75760806fd097f3bdfd2022b8845ad8f792aa58258202901c905080505b60006120008316141515611d215760806fa9f746462d870fdf8a65dc1f90e061e58202901c905080505b60006140008316141515611d4b5760806f70d869a156d2a1b890bb3df62baf32f78202901c905080505b60006180008316141515611d755760806f31be135f97d08fd981231505542fcfa68202901c905080505b6000620100008316141515611da05760806f09aa508b5b7a84e1c677de54f3e99bc98202901c905080505b6000620200008316141515611dca5760806e5d6af8dedb81196699c329225ee6048202901c905080505b6000620400008316141515611df35760806d2216e584f5fa1ea926041bedfe988202901c905080505b6000620800008316141515611e1a5760806b048a170391f7dc42444e8fa28202901c905080505b60008460020b1315611e5757807fffffffffffffffffffffffffffffffffffffffffffffffffffffffffffffffff811515611e5157fe5b04905080505b600064010000000082811515611e6957fe5b0614611e76576001611e79565b60005b60ff16602082901c019250825050505b919050565b600060008373ffffffffffffffffffffffffffffffffffffffff168573ffffffffffffffffffffffffffffffffffffffff161115611ed157838580955081965050505b8473ffffffffffffffffffffffffffffffffffffffff168673ffffffffffffffffffffffffffffffffffffffff16111515611f2057611f17858585612eb963ffffffff16565b91508150611f9a565b8373ffffffffffffffffffffffffffffffffffffffff168673ffffffffffffffffffffffffffffffffffffffff161015611f8357611f65868585612eb963ffffffff16565b91508150611f7a858785612f8163ffffffff16565b90508050611f99565b611f94858585612f8163ffffffff16565b905080505b5b5b94509492505050565b60006000821480611fc457508282838502925082811515611fc157fe5b04145b151561203b576040517f08c379a000000000000000000000000000000000000000000000000000000000815260040180806020018281038252600c8152602001807f6d756c2d6f766572666c6f77000000000000000000000000000000000000000081526020015060200191505060405180910390fd5b5b92915050565b6000600060006000198587098587029250828110838203039150506000811415612085576000841115156120765760006000fd5b8382049250829250505061213c565b80841115156120945760006000fd5b600084868809905082811182039150808303925060008586600003169050808604955080840493506001818260000304019050808302841793508350600060028760030218905080870260020381029050805080870260020381029050805080870260020381029050805080870260020381029050805080870260020381029050805080870260020381029050805080850295508550859550505050505061213c5650505050505b9392505050565b600082828401915081101515156121c5576040517f08c379a000000000000000000000000000000000000000000000000000000000815260040180806020018281038252600c8152602001807f6164642d6f766572666c6f77000000000000000000000000000000000000000081526020015060200191505060405180910390fd5b5b92915050565b600060006122446121e38585612ce163ffffffff16565b600360005060008773ffffffffffffffffffffffffffffffffffffffff1673ffffffffffffffffffffffffffffffffffffffff16815260200190815260200160002060005060000160139054906101000a900460ff1661242e63ffffffff16565b905060008111151561228b576040517f08c379a0000000000000000000000000000000000000000000000000000000008152600401612282906137be565b60405180910390fd5b8091505061229556505b92915050565b60006122b68383670de0b6b3a764000061204263ffffffff16565b905080505b92915050565b60006122d442613018909063ffffffff16565b905080505b90565b6060600167ffffffffffffffff811180156122f75760006000fd5b506040519080825280602002602001820160405280156123265781602001602082028036833780820191505090505b5090508050600081600081518110151561233c57fe5b602002602001019063ffffffff16908163ffffffff16815260200150505b90565b60006401000000008267ffffffffffffffff161015156123b2576040517f08c379a00000000000000000000000000000000000000000000000000000000081526004016123a99061387b565b60405180910390fd5b8190506123ba565b919050565b60006000848403905060008363ffffffff168260060b8115156123de57fe5b05905060008260060b12801561240c575060008463ffffffff168360060b81151561240557fe5b0760060b14155b1561241b578080600190039150505b80925050506124275650505b9392505050565b600061245c612451836124415784612446565b846000035b6119f763ffffffff16565b6130aa63ffffffff16565b9050612463565b92915050565b6000601260ff16826060015160ff161415612486578290506124f8565b6000601260ff16836060015160ff161090506000816124ac5760128460600151036124b5565b83606001516012035b9050816124da576124d58160ff16600a0a86611fa490919063ffffffff16565b6124ed565b8060ff16600a0a858115156124eb57fe5b045b925050506124f85650505b92915050565b60008173ffffffffffffffffffffffffffffffffffffffff168373ffffffffffffffffffffffffffffffffffffffff16630dfe16816040518163ffffffff1660e01b815260040160206040518083038186803b15801561255e5760006000fd5b505afa158015612573573d600060003e3d6000fd5b505050506040513d601f19601f820116820180604052508101906125979190613314565b73ffffffffffffffffffffffffffffffffffffffff16148061266357508173ffffffffffffffffffffffffffffffffffffffff168373ffffffffffffffffffffffffffffffffffffffff1663d21220a76040518163ffffffff1660e01b815260040160206040518083038186803b1580156126125760006000fd5b505afa158015612627573d600060003e3d6000fd5b505050506040513d601f19601f8201168201806040525081019061264b9190613314565b73ffffffffffffffffffffffffffffffffffffffff16145b905061266a565b92915050565b61268e61268383836124fe63ffffffff16565b6119b163ffffffff16565b600060008373ffffffffffffffffffffffffffffffffffffffff16633850c7bd6040518163ffffffff1660e01b815260040160e06040518083038186803b1580156126d95760006000fd5b505afa1580156126ee573d600060003e3d6000fd5b505050506040513d601f19601f8201168201806040525081019061271291906135ee565b50505050509150915061274360008373ffffffffffffffffffffffffffffffffffffffff16116119b163ffffffff16565b60008473ffffffffffffffffffffffffffffffffffffffff1663883bdbfd61276f6122dc63ffffffff16565b6040518263ffffffff1660e01b815260040161278b91906136f1565b60006040518083038186803b1580156127a45760006000fd5b505afa1580156127b9573d600060003e3d6000fd5b505050506040513d6000823e3d601f19601f820116820180604052508101906127e2919061333b565b50905060008473ffffffffffffffffffffffffffffffffffffffff168673ffffffffffffffffffffffffffffffffffffffff16630dfe16816040518163ffffffff1660e01b815260040160206040518083038186803b1580156128455760006000fd5b505afa15801561285a573d600060003e3d6000fd5b505050506040513d601f19601f8201168201806040525081019061287e9190613314565b73ffffffffffffffffffffffffffffffffffffffff161490506040518060c001604052806128b06122c163ffffffff16565b67ffffffffffffffff1681526020018360008151811015156128ce57fe5b602002602001015160060b81526020018460020b815260200182612971578773ffffffffffffffffffffffffffffffffffffffff16630dfe16816040518163ffffffff1660e01b815260040160206040518083038186803b1580156129335760006000fd5b505afa158015612948573d600060003e3d6000fd5b505050506040513d601f19601f8201168201806040525081019061296c9190613314565b6129f2565b8773ffffffffffffffffffffffffffffffffffffffff1663d21220a76040518163ffffffff1660e01b815260040160206040518083038186803b1580156129b85760006000fd5b505afa1580156129cd573d600060003e3d6000fd5b505050506040513d601f19601f820116820180604052508101906129f19190613314565b5b73ffffffffffffffffffffffffffffffffffffffff1663313ce5676040518163ffffffff1660e01b815260040160206040518083038186803b158015612a385760006000fd5b505afa158015612a4d573d600060003e3d6000fd5b505050506040513d601f19601f82011682018060405250810190612a7191906136a6565b60ff168152602001821515815260200160011515815260200150600360005060008873ffffffffffffffffffffffffffffffffffffffff1673ffffffffffffffffffffffffffffffffffffffff16815260200190815260200160002060005060008201518160000160006101000a81548167ffffffffffffffff021916908367ffffffffffffffff16021790555060208201518160000160086101000a81548166ffffffffffffff021916908360060b66ffffffffffffff160217905550604082015181600001600f6101000a81548162ffffff021916908360020b62ffffff16021790555060608201518160000160126101000a81548160ff021916908360ff16021790555060808201518160000160136101000a81548160ff02191690831515021790555060a08201518160000160146101000a81548160ff021916908315150217905550905050505050505b5050565b600260026000505414151515612c45576040517f08c379a000000000000000000000000000000000000000000000000000000000815260040180806020018281038252600d8152602001807f4c43205265656e7472616e63790000000000000000000000000000000000000081526020015060200191505060405180910390fd5b600260026000508190909055505b565b600160026000508190909055505b565b801515612cdd576040517f08c379a000000000000000000000000000000000000000000000000000000000815260040180806020018281038252600e8152602001807f4e6f7420417574686f72697a656400000000000000000000000000000000000081526020015060200191505060405180910390fd5b5b50565b600060008263ffffffff16111515612d2e576040517f08c379a0000000000000000000000000000000000000000000000000000000008152600401612d259061383c565b60405180910390fd5b6000600267ffffffffffffffff81118015612d495760006000fd5b50604051908082528060200260200182016040528015612d785781602001602082028036833780820191505090505b50905082816000815181101515612d8b57fe5b602002602001019063ffffffff16908163ffffffff16815260200150506000816001815181101515612db957fe5b602002602001019063ffffffff16908163ffffffff168152602001505060008473ffffffffffffffffffffffffffffffffffffffff1663883bdbfd836040518263ffffffff1660e01b8152600401612e1191906136f1565b60006040518083038186803b158015612e2a5760006000fd5b505afa158015612e3f573d600060003e3d6000fd5b505050506040513d6000823e3d601f19601f82011682018060405250810190612e68919061333b565b509050612ea8816000815181101515612e7d57fe5b6020026020010151826001815181101515612e9457fe5b6020026020010151866123bf63ffffffff16565b92505050612eb35650505b92915050565b60008273ffffffffffffffffffffffffffffffffffffffff168473ffffffffffffffffffffffffffffffffffffffff161115612efa57828480945081955050505b8373ffffffffffffffffffffffffffffffffffffffff16612f69606060ff16846fffffffffffffffffffffffffffffffff16901b86860373ffffffffffffffffffffffffffffffffffffffff168673ffffffffffffffffffffffffffffffffffffffff1661310763ffffffff16565b811515612f7257fe5b049050612f7a565b9392505050565b60008273ffffffffffffffffffffffffffffffffffffffff168473ffffffffffffffffffffffffffffffffffffffff161115612fc257828480945081955050505b61300a826fffffffffffffffffffffffffffffffff1685850373ffffffffffffffffffffffffffffffffffffffff166c0100000000000000000000000061310763ffffffff16565b9050613011565b9392505050565b6000680100000000000000008210151561309d576040517f08c379a00000000000000000000000000000000000000000000000000000000081526004018080602001828103825260118152602001807f6d6f7265207468616e203634206269747300000000000000000000000000000081526020015060200191505060405180910390fd5b8190506130a5565b919050565b600060006130e46c010000000000000000000000008473ffffffffffffffffffffffffffffffffffffffff1661320890919063ffffffff16565b90506130f9818261229b90919063ffffffff16565b91505061310256505b919050565b600060006000600019858709858702925082811083820303915050600081141561314a5760008411151561313b5760006000fd5b83820492508292505050613201565b80841115156131595760006000fd5b60008486880990508281118203915080830392506000858660000316905080860495508084049350600181826000030401905080830284179350835060006002876003021890508087026002038102905080508087026002038102905080508087026002038102905080508087026002038102905080508087026002038102905080508087026002038102905080508085029550855085955050505050506132015650505050505b9392505050565b600061322383670de0b6b3a76400008461204263ffffffff16565b905080505b9291505056613a15565b600082601f8301121515613244578081fd5b815160206132596132548361399e565b613973565b80838252828201915082860187848587028901011115613277578586fd5b855b858110156132a657815161328c816139c1565b80855250848401935084820191505b600181019050613279565b5050809450505050505b92915050565b60008151905061ffff8116811415156132cf5760006000fd5b5b919050565b60008135905063ffffffff8116811415156132f05760006000fd5b5b919050565b60008151905060ff81168114151561330e5760006000fd5b5b919050565b600060208284031215613325578081fd5b8151613330816139c1565b809150505b92915050565b600060006040838503121561334e578081fd5b825167ffffffffffffffff80821115613365578283fd5b818501915085601f830112151561337a578283fd5b8151602061338f61338a8361399e565b613973565b8083825282820191508286018a8485870289010111156133ad578788fd5b8796505b848710156133e55780518060060b811415156133cb578889fd5b80845250838301925083810190505b6001870196506133b1565b5080975050508087015193505050808211156133ff578283fd5b5061340c85828601613232565b9150505b9250929050565b600060208284031215613428578081fd5b81357fffffffff00000000000000000000000000000000000000000000000000000000811681141515613459578182fd5b809150505b92915050565b600060208284031215613475578081fd5b8151613480816139c1565b809150505b92915050565b60006020828403121561349c578081fd5b81516134a7816139c1565b809150505b92915050565b6000602082840312156134c3578081fd5b81356134ce816139c1565b809150505b92915050565b60006000604083850312156134ec578182fd5b82356134f7816139c1565b809250506020830135613509816139ea565b809150505b9250929050565b60006000600060006000600060c08789031215613530578182fd5b863561353b816139c1565b80965050602087013561354d816139ff565b80955050604087013561355f816139ff565b809450506060870135613571816139ff565b8093505060808701356fffffffffffffffffffffffffffffffff811681141515613599578283fd5b809250506135a960a088016132d5565b90505b9295509295509295565b60006000604083850312156135c9578182fd5b82356135d4816139c1565b809250506135e4602084016132d5565b90505b9250929050565b600060006000600060006000600060e0888a03121561360b578485fd5b8751613616816139c1565b809750506020880151613628816139ff565b80965050613638604089016132b6565b9450613646606089016132b6565b9350613654608089016132b6565b925061366260a089016132f6565b915060c0880151613672816139ea565b809150505b92959891949750929550565b600060208284031215613694578081fd5b61369d826132d5565b90505b92915050565b6000602082840312156136b7578081fd5b6136c0826132f6565b90505b92915050565b600060208201905073ffffffffffffffffffffffffffffffffffffffff831682525b92915050565b600060208083018184528085518083526040860191508387019250845b818110156137365763ffffffff8451168352848301925084840193505b60018101905061370e565b50508093505050505b92915050565b600060208201905082151582525b92915050565b600060208201905073ffffffffffffffffffffffffffffffffffffffff831682525b92915050565b600060208201905073ffffffffffffffffffffffffffffffffffffffff831682525b92915050565b60006020820190508260020b82525b92915050565b600060208252600260208301527f504500000000000000000000000000000000000000000000000000000000000060408301526060820190505b919050565b600060208252600e60208301527f4e6f7420417574686f72697a656400000000000000000000000000000000000060408301526060820190505b919050565b600060208252600260208301527f544500000000000000000000000000000000000000000000000000000000000060408301526060820190505b919050565b600060208252601360208301527f626967676572207468616e20333220626974730000000000000000000000000060408301526060820190505b919050565b600060208252600c60208301527f496e76616c696420706f6f6c000000000000000000000000000000000000000060408301526060820190505b919050565b60006020820190508282525b92915050565b60006040820190508382528260020b60208301525b9392505050565b600060c08201905067ffffffffffffffff881682528660060b60208301528560020b604083015260ff85166060830152831515608083015282151560a08301525b979650505050505050565b6000604051905081810181811067ffffffffffffffff8211171561399357fe5b80604052505b919050565b600067ffffffffffffffff8211156139b257fe5b6020602083020190505b919050565b73ffffffffffffffffffffffffffffffffffffffff8116811415156139e65760006000fd5b5b50565b801515811415156139fb5760006000fd5b5b50565b8060020b81141515613a115760006000fd5b5b50565bfea26469706673582212208c01c72eae96b7d1d1591f2ca2c46451107248ea01bbab94c0d73df25c61f56464736f6c63430007060033",
  "linkReferences": {},
  "deployedLinkReferences": {}
}