{
  "_format": "hh-sol-artifact-1",
  "contractName": "DelayedRewards",
  "sourceName": "contracts/core/logic/DelayedRewards.sol",
  "abi": [
    {
      "anonymous": false,
      "inputs": [
        {
          "indexed": true,
          "internalType": "address",
          "name": "governor",
          "type": "address"
        }
      ],
      "name": "Initialized",
      "type": "event"
    },
    {
      "anonymous": false,
      "inputs": [
        {
          "indexed": true,
          "internalType": "string",
          "name": "paramName",
          "type": "string"
        },
        {
          "indexed": false,
          "internalType": "uint64",
          "name": "value",
          "type": "uint64"
        }
      ],
      "name": "ParameterUpdated64",
      "type": "event"
    },
    {
      "anonymous": false,
      "inputs": [
        {
          "indexed": true,
          "internalType": "uint64",
          "name": "period",
          "type": "uint64"
        },
        {
          "indexed": true,
          "internalType": "address",
          "name": "account",
          "type": "address"
        },
        {
          "indexed": false,
          "internalType": "uint256",
          "name": "amount",
          "type": "uint256"
        }
      ],
      "name": "RewardsClaimed",
      "type": "event"
    },
    {
      "anonymous": false,
      "inputs": [
        {
          "indexed": true,
          "internalType": "address",
          "name": "account",
          "type": "address"
        },
        {
          "indexed": false,
          "internalType": "uint256",
          "name": "amount",
          "type": "uint256"
        }
      ],
      "name": "RewardsClaimedInstantly",
      "type": "event"
    },
    {
      "anonymous": false,
      "inputs": [
        {
          "indexed": true,
          "internalType": "uint64",
          "name": "period",
          "type": "uint64"
        },
        {
          "indexed": true,
          "internalType": "address",
          "name": "account",
          "type": "address"
        },
        {
          "indexed": false,
          "internalType": "uint256",
          "name": "amount",
          "type": "uint256"
        }
      ],
      "name": "RewardsRegistered",
      "type": "event"
    },
    {
      "anonymous": false,
      "inputs": [],
      "name": "Stopped",
      "type": "event"
    },
    {
      "inputs": [],
      "name": "REWARD_DELAY",
      "outputs": [
        {
          "internalType": "uint64",
          "name": "",
          "type": "uint64"
        }
      ],
      "stateMutability": "view",
      "type": "function"
    },
    {
      "inputs": [
        {
          "internalType": "address",
          "name": "account",
          "type": "address"
        },
        {
          "internalType": "uint64",
          "name": "periodsForward",
          "type": "uint64"
        }
      ],
      "name": "checkFutureRewards",
      "outputs": [
        {
          "internalType": "uint64[]",
          "name": "periods",
          "type": "uint64[]"
        },
        {
          "internalType": "uint256",
          "name": "totalRewards",
          "type": "uint256"
        }
      ],
      "stateMutability": "view",
      "type": "function"
    },
    {
      "inputs": [
        {
          "internalType": "address",
          "name": "account",
          "type": "address"
        },
        {
          "internalType": "uint64",
          "name": "periodsBack",
          "type": "uint64"
        }
      ],
      "name": "checkRewardsAvailable",
      "outputs": [
        {
          "internalType": "uint64[]",
          "name": "periods",
          "type": "uint64[]"
        },
        {
          "internalType": "uint256",
          "name": "totalRewards",
          "type": "uint256"
        }
      ],
      "stateMutability": "view",
      "type": "function"
    },
    {
      "inputs": [
        {
          "internalType": "uint64[]",
          "name": "periods",
          "type": "uint64[]"
        }
      ],
      "name": "claimRewards",
      "outputs": [],
      "stateMutability": "nonpayable",
      "type": "function"
    },
    {
      "inputs": [],
      "name": "cnp",
      "outputs": [
        {
          "internalType": "contract ICNP",
          "name": "",
          "type": "address"
        }
      ],
      "stateMutability": "view",
      "type": "function"
    },
    {
      "inputs": [],
      "name": "governor",
      "outputs": [
        {
          "internalType": "contract IGovernor",
          "name": "",
          "type": "address"
        }
      ],
      "stateMutability": "view",
      "type": "function"
    },
    {
      "inputs": [
        {
          "internalType": "contract IGovernor",
          "name": "governor_",
          "type": "address"
        }
      ],
      "name": "init",
      "outputs": [],
      "stateMutability": "nonpayable",
      "type": "function"
    },
    {
      "inputs": [
        {
          "internalType": "address",
          "name": "",
          "type": "address"
        }
      ],
      "name": "lockupContracts",
      "outputs": [
        {
          "internalType": "contract RewardLockup",
          "name": "",
          "type": "address"
        }
      ],
      "stateMutability": "view",
      "type": "function"
    },
    {
      "inputs": [],
      "name": "lockupStart",
      "outputs": [
        {
          "internalType": "uint64",
          "name": "",
          "type": "uint64"
        }
      ],
      "stateMutability": "view",
      "type": "function"
    },
    {
      "inputs": [
        {
          "internalType": "uint64",
          "name": "",
          "type": "uint64"
        },
        {
          "internalType": "address",
          "name": "",
          "type": "address"
        }
      ],
      "name": "pendingRewards",
      "outputs": [
        {
          "internalType": "uint256",
          "name": "",
          "type": "uint256"
        }
      ],
      "stateMutability": "view",
      "type": "function"
    },
    {
      "inputs": [],
      "name": "periodLength",
      "outputs": [
        {
          "internalType": "uint64",
          "name": "",
          "type": "uint64"
        }
      ],
      "stateMutability": "view",
      "type": "function"
    },
    {
      "inputs": [
        {
          "internalType": "uint64",
          "name": "rewardTime",
          "type": "uint64"
        },
        {
          "internalType": "address",
          "name": "account",
          "type": "address"
        },
        {
          "internalType": "uint256",
          "name": "amount",
          "type": "uint256"
        }
      ],
      "name": "registerRewards",
      "outputs": [],
      "stateMutability": "nonpayable",
      "type": "function"
    }
  ],
  "bytecode": "0x60c06040523480156200001157600080fd5b5062093a808067ffffffffffffffff1660011080156200003e57506301e285008167ffffffffffffffff16105b620000b1576040517f08c379a000000000000000000000000000000000000000000000000000000000815260040180806020018281038252601c8152602001807f54696d653a20496e76616c696420706572696f64206c656e6774682e0000000081525060200191505060405180910390fd5b60018167ffffffffffffffff16620000ce6200016f60201b60201c565b67ffffffffffffffff1681620000e057fe5b040367ffffffffffffffff1660a08167ffffffffffffffff1660c01b815250508067ffffffffffffffff1660808167ffffffffffffffff1660c01b815250505033600560006101000a81548173ffffffffffffffffffffffffffffffffffffffff021916908373ffffffffffffffffffffffffffffffffffffffff1602179055506001600681905550620001f9565b600062000187426200018c60201b620014621760201c565b905090565b6000680100000000000000008210620001f1576040517f08c379a000000000000000000000000000000000000000000000000000000000815260040180806020018281038252602681526020018062002b156026913960400191505060405180910390fd5b819050919050565b60805160c01c60a05160c01c6128de62000237600039806114d152806119e1525080611319528061144052806114f25280611a0252506128de6000f3fe608060405234801561001057600080fd5b50600436106100d45760003560e01c806345770d0011610081578063a568c5a71161005b578063a568c5a714610207578063d135c16a14610237578063d2ca211514610267576100d4565b806345770d00146101ad578063976ab20f146101cb57806399eeec95146101e9576100d4565b80631e644f3d116100b25780631e644f3d14610144578063302fbf571461016057806339a322021461017c576100d4565b80630c340a24146100d957806315afcaa2146100f757806319ab453c14610128575b600080fd5b6100e1610285565b6040516100ee91906120e5565b60405180910390f35b610111600480360381019061010c9190611c7d565b6102a9565b60405161011f92919061209a565b60405180910390f35b610142600480360381019061013d9190611d23565b61030e565b005b61015e60048036038101906101599190611cb9565b610808565b005b61017a60048036038101906101759190611dda565b610c06565b005b61019660048036038101906101919190611c7d565b6112ff565b6040516101a492919061209a565b60405180910390f35b6101b561139f565b6040516101c291906121d6565b60405180910390f35b6101d36113b9565b6040516101e091906121d6565b60405180910390f35b6101f16113c0565b6040516101fe91906120ca565b60405180910390f35b610221600480360381019061021c9190611d9e565b6113e6565b60405161022e91906121bb565b60405180910390f35b610251600480360381019061024c9190611c54565b61140b565b60405161025e9190612100565b60405180910390f35b61026f61143e565b60405161027c91906121d6565b60405180910390f35b60008054906101000a900473ffffffffffffffffffffffffffffffffffffffff1681565b60606000806102b66114cd565b90506000808567ffffffffffffffff16146102ed576102e8858367ffffffffffffffff1661153b90919063ffffffff16565b6102f0565b60005b90506102fd868284611585565b809450819550505050509250929050565b600560009054906101000a900473ffffffffffffffffffffffffffffffffffffffff1673ffffffffffffffffffffffffffffffffffffffff163373ffffffffffffffffffffffffffffffffffffffff16146103d1576040517f08c379a000000000000000000000000000000000000000000000000000000000815260040180806020018281038252601e8152602001807f476f7665726e65643a20496e6974206e6f7420617574686f72697a65642e000081525060200191505060405180910390fd5b600560006101000a81549073ffffffffffffffffffffffffffffffffffffffff02191690558073ffffffffffffffffffffffffffffffffffffffff167f908408e307fc569b417f6cbec5d5a06f44a0a505ac0479b47d421a4b2fd6a1e660405160405180910390a2806000806101000a81548173ffffffffffffffffffffffffffffffffffffffff021916908373ffffffffffffffffffffffffffffffffffffffff16021790555060008054906101000a900473ffffffffffffffffffffffffffffffffffffffff1673ffffffffffffffffffffffffffffffffffffffff16639624e83e6040518163ffffffff1660e01b815260040160206040518083038186803b1580156104df57600080fd5b505afa1580156104f3573d6000803e3d6000fd5b505050506040513d602081101561050957600080fd5b8101908080519060200190929190505050600160006101000a81548173ffffffffffffffffffffffffffffffffffffffff021916908373ffffffffffffffffffffffffffffffffffffffff16021790555060008054906101000a900473ffffffffffffffffffffffffffffffffffffffff1673ffffffffffffffffffffffffffffffffffffffff166311df99956040518163ffffffff1660e01b815260040160206040518083038186803b1580156105c057600080fd5b505afa1580156105d4573d6000803e3d6000fd5b505050506040513d60208110156105ea57600080fd5b8101908080519060200190929190505050600260006101000a81548173ffffffffffffffffffffffffffffffffffffffff021916908373ffffffffffffffffffffffffffffffffffffffff16021790555060008054906101000a900473ffffffffffffffffffffffffffffffffffffffff1673ffffffffffffffffffffffffffffffffffffffff1663d478b0876040518163ffffffff1660e01b815260040160206040518083038186803b1580156106a157600080fd5b505afa1580156106b5573d6000803e3d6000fd5b505050506040513d60208110156106cb57600080fd5b8101908080519060200190929190505050600360006101000a81548173ffffffffffffffffffffffffffffffffffffffff021916908373ffffffffffffffffffffffffffffffffffffffff16021790555060008054906101000a900473ffffffffffffffffffffffffffffffffffffffff1673ffffffffffffffffffffffffffffffffffffffff16633fc8cef36040518163ffffffff1660e01b815260040160206040518083038186803b15801561078257600080fd5b505afa158015610796573d6000803e3d6000fd5b505050506040513d60208110156107ac57600080fd5b8101908080519060200190929190505050600460006101000a81548173ffffffffffffffffffffffffffffffffffffffff021916908373ffffffffffffffffffffffffffffffffffffffff1602179055506108056117c6565b50565b60026006541415610881576040517f08c379a000000000000000000000000000000000000000000000000000000000815260040180806020018281038252601d8152602001807f4c6f636b436f6e74726163743a207265656e7472616e742063616c6c2e00000081525060200191505060405180910390fd5b600260068190555060008151905060008114156108d3576040517f08c379a00000000000000000000000000000000000000000000000000000000081526004016108ca9061217b565b60405180910390fd5b60003390506000600960008373ffffffffffffffffffffffffffffffffffffffff1673ffffffffffffffffffffffffffffffffffffffff16815260200190815260200160002060009054906101000a900473ffffffffffffffffffffffffffffffffffffffff169050600073ffffffffffffffffffffffffffffffffffffffff168173ffffffffffffffffffffffffffffffffffffffff1614156109ac576040517f08c379a00000000000000000000000000000000000000000000000000000000081526004016109a39061219b565b60405180910390fd5b60006109b66114cd565b905060008060005b86811015610aec578781815181106109d257fe5b602002602001015192508367ffffffffffffffff168367ffffffffffffffff1611156109fd57610adf565b610a74600760008567ffffffffffffffff1667ffffffffffffffff16815260200190815260200160002060008873ffffffffffffffffffffffffffffffffffffffff1673ffffffffffffffffffffffffffffffffffffffff16815260200190815260200160002054836118a690919063ffffffff16565b9150600760008467ffffffffffffffff1667ffffffffffffffff16815260200190815260200160002060008773ffffffffffffffffffffffffffffffffffffffff1673ffffffffffffffffffffffffffffffffffffffff168152602001908152602001600020600090555b80806001019150506109be565b506000811415610b31576040517f08c379a0000000000000000000000000000000000000000000000000000000008152600401610b289061213b565b60405180910390fd5b8373ffffffffffffffffffffffffffffffffffffffff166391c05b0b826040518263ffffffff1660e01b8152600401610b6a91906121bb565b600060405180830381600087803b158015610b8457600080fd5b505af1158015610b98573d6000803e3d6000fd5b505050508473ffffffffffffffffffffffffffffffffffffffff168367ffffffffffffffff167ffff3d9821e89591725804007b3d7480cc9e6471ffaea3979d62afba3dbdd75f183604051610bed91906121bb565b60405180910390a3505050505050600160068190555050565b60026006541415610c7f576040517f08c379a000000000000000000000000000000000000000000000000000000000815260040180806020018281038252601d8152602001807f4c6f636b436f6e74726163743a207265656e7472616e742063616c6c2e00000081525060200191505060405180910390fd5b600260068190555060008054906101000a900473ffffffffffffffffffffffffffffffffffffffff1673ffffffffffffffffffffffffffffffffffffffff166380f556056040518163ffffffff1660e01b815260040160206040518083038186803b158015610ced57600080fd5b505afa158015610d01573d6000803e3d6000fd5b505050506040513d601f19601f82011682018060405250810190610d259190611d4c565b73ffffffffffffffffffffffffffffffffffffffff163373ffffffffffffffffffffffffffffffffffffffff161480610e26575060008054906101000a900473ffffffffffffffffffffffffffffffffffffffff1673ffffffffffffffffffffffffffffffffffffffff16639ec5a8946040518163ffffffff1660e01b815260040160206040518083038186803b158015610dbf57600080fd5b505afa158015610dd3573d6000803e3d6000fd5b505050506040513d601f19601f82011682018060405250810190610df79190611d75565b73ffffffffffffffffffffffffffffffffffffffff163373ffffffffffffffffffffffffffffffffffffffff16145b610e65576040517f08c379a0000000000000000000000000000000000000000000000000000000008152600401610e5c9061211b565b60405180910390fd5b6000811415610e73576112f2565b600860009054906101000a900467ffffffffffffffff1667ffffffffffffffff16610e9c61192e565b67ffffffffffffffff161015610f8c5760008054906101000a900473ffffffffffffffffffffffffffffffffffffffff1673ffffffffffffffffffffffffffffffffffffffff1663a99acb1783836040518363ffffffff1660e01b8152600401610f07929190612071565b600060405180830381600087803b158015610f2157600080fd5b505af1158015610f35573d6000803e3d6000fd5b505050508173ffffffffffffffffffffffffffffffffffffffff167fa5bc5ae89ac3812b5cbcf37f574e6226c168a90ca5f3285edf238740259f276482604051610f7f91906121bb565b60405180910390a26112f2565b6000600960008473ffffffffffffffffffffffffffffffffffffffff1673ffffffffffffffffffffffffffffffffffffffff16815260200190815260200160002060009054906101000a900473ffffffffffffffffffffffffffffffffffffffff169050600073ffffffffffffffffffffffffffffffffffffffff168173ffffffffffffffffffffffffffffffffffffffff1614156110fe5782600a60009054906101000a900473ffffffffffffffffffffffffffffffffffffffff1660405161105590611b31565b611060929190612048565b604051809103906000f08015801561107c573d6000803e3d6000fd5b50905080600960008573ffffffffffffffffffffffffffffffffffffffff1673ffffffffffffffffffffffffffffffffffffffff16815260200190815260200160002060006101000a81548173ffffffffffffffffffffffffffffffffffffffff021916908373ffffffffffffffffffffffffffffffffffffffff1602179055505b600061112861112362eff1008767ffffffffffffffff1661193e90919063ffffffff16565b6119da565b90506111a183600760008467ffffffffffffffff1667ffffffffffffffff16815260200190815260200160002060008773ffffffffffffffffffffffffffffffffffffffff1673ffffffffffffffffffffffffffffffffffffffff168152602001908152602001600020546118a690919063ffffffff16565b600760008367ffffffffffffffff1667ffffffffffffffff16815260200190815260200160002060008673ffffffffffffffffffffffffffffffffffffffff1673ffffffffffffffffffffffffffffffffffffffff1681526020019081526020016000208190555060008054906101000a900473ffffffffffffffffffffffffffffffffffffffff1673ffffffffffffffffffffffffffffffffffffffff1663a99acb1783856040518363ffffffff1660e01b8152600401611264929190612071565b600060405180830381600087803b15801561127e57600080fd5b505af1158015611292573d6000803e3d6000fd5b505050508373ffffffffffffffffffffffffffffffffffffffff168167ffffffffffffffff167f41e5d9e3fe88f27fc38691e2ef4f85304b6ba6094720df914bb5a6a971b1e0c1856040516112e791906121bb565b60405180910390a350505b6001600681905550505050565b60606000808367ffffffffffffffff16141561135c5760017f000000000000000000000000000000000000000000000000000000000000000067ffffffffffffffff1662eff10067ffffffffffffffff168161135757fe5b040192505b60006113666114cd565b905061138f858261138a878567ffffffffffffffff1661193e90919063ffffffff16565b611585565b8093508194505050509250929050565b600860009054906101000a900467ffffffffffffffff1681565b62eff10081565b600a60009054906101000a900473ffffffffffffffffffffffffffffffffffffffff1681565b6007602052816000526040600020602052806000526040600020600091509150505481565b60096020528060005260406000206000915054906101000a900473ffffffffffffffffffffffffffffffffffffffff1681565b7f000000000000000000000000000000000000000000000000000000000000000081565b60006801000000000000000082106114c5576040517f08c379a00000000000000000000000000000000000000000000000000000000081526004018080602001828103825260268152602001806128836026913960400191505060405180910390fd5b819050919050565b60007f00000000000000000000000000000000000000000000000000000000000000007f000000000000000000000000000000000000000000000000000000000000000067ffffffffffffffff1661152361192e565b67ffffffffffffffff168161153457fe5b0403905090565b600061157d83836040518060400160405280601e81526020017f536166654d6174683a207375627472616374696f6e206f766572666c6f770000815250611a5d565b905092915050565b606060008267ffffffffffffffff168467ffffffffffffffff16106115df576040517f08c379a00000000000000000000000000000000000000000000000000000000081526004016115d69061215b565b60405180910390fd5b6000808590505b8467ffffffffffffffff168167ffffffffffffffff1611611683576000600760008367ffffffffffffffff1667ffffffffffffffff16815260200190815260200160002060008973ffffffffffffffffffffffffffffffffffffffff1673ffffffffffffffffffffffffffffffffffffffff16815260200190815260200160002054146116765781806001019250505b80806001019150506115e6565b508067ffffffffffffffff8111801561169b57600080fd5b506040519080825280602002602001820160405280156116ca5781602001602082028036833780820191505090505b50925060008060008790505b8667ffffffffffffffff168167ffffffffffffffff16116117ba57600760008267ffffffffffffffff1667ffffffffffffffff16815260200190815260200160002060008a73ffffffffffffffffffffffffffffffffffffffff1673ffffffffffffffffffffffffffffffffffffffff168152602001908152602001600020549150600082146117ad5761177382866118a690919063ffffffff16565b94508086848151811061178257fe5b602002602001019067ffffffffffffffff16908167ffffffffffffffff168152505082806001019350505b80806001019150506116d6565b50505050935093915050565b60008054906101000a900473ffffffffffffffffffffffffffffffffffffffff1673ffffffffffffffffffffffffffffffffffffffff166399eeec956040518163ffffffff1660e01b815260040160206040518083038186803b15801561182c57600080fd5b505afa158015611840573d6000803e3d6000fd5b505050506040513d601f19601f820116820180604052508101906118649190611cfa565b600a60006101000a81548173ffffffffffffffffffffffffffffffffffffffff021916908373ffffffffffffffffffffffffffffffffffffffff160217905550565b600080828401905083811015611924576040517f08c379a000000000000000000000000000000000000000000000000000000000815260040180806020018281038252601b8152602001807f536166654d6174683a206164646974696f6e206f766572666c6f77000000000081525060200191505060405180910390fd5b8091505092915050565b600061193942611462565b905090565b60008082840190508367ffffffffffffffff168167ffffffffffffffff1610156119d0576040517f08c379a000000000000000000000000000000000000000000000000000000000815260040180806020018281038252601b8152602001807f536166654d6174683a206164646974696f6e206f766572666c6f77000000000081525060200191505060405180910390fd5b8091505092915050565b6000611a567f00000000000000000000000000000000000000000000000000000000000000007f000000000000000000000000000000000000000000000000000000000000000067ffffffffffffffff168467ffffffffffffffff1681611a3d57fe5b0467ffffffffffffffff1661153b90919063ffffffff16565b9050919050565b60008367ffffffffffffffff168367ffffffffffffffff1611158290611b1e576040517f08c379a00000000000000000000000000000000000000000000000000000000081526004018080602001828103825283818151815260200191508051906020019080838360005b83811015611ae3578082015181840152602081019050611ac8565b50505050905090810190601f168015611b105780820380516001836020036101000a031916815260200191505b509250505060405180910390fd5b5060008385039050809150509392505050565b6104438061244083390190565b600081359050611b4d8161239e565b92915050565b600082601f830112611b6457600080fd5b8135611b77611b7282612222565b6121f1565b91508181835260208401935060208101905083856020840282011115611b9c57600080fd5b60005b83811015611bcc5781611bb28882611c3f565b845260208401935060208301925050600181019050611b9f565b5050505092915050565b600081519050611be5816123b5565b92915050565b600081359050611bfa816123cc565b92915050565b600081519050611c0f816123e3565b92915050565b600081519050611c24816123fa565b92915050565b600081359050611c3981612411565b92915050565b600081359050611c4e81612428565b92915050565b600060208284031215611c6657600080fd5b6000611c7484828501611b3e565b91505092915050565b60008060408385031215611c9057600080fd5b6000611c9e85828601611b3e565b9250506020611caf85828601611c3f565b9150509250929050565b600060208284031215611ccb57600080fd5b600082013567ffffffffffffffff811115611ce557600080fd5b611cf184828501611b53565b91505092915050565b600060208284031215611d0c57600080fd5b6000611d1a84828501611bd6565b91505092915050565b600060208284031215611d3557600080fd5b6000611d4384828501611beb565b91505092915050565b600060208284031215611d5e57600080fd5b6000611d6c84828501611c00565b91505092915050565b600060208284031215611d8757600080fd5b6000611d9584828501611c15565b91505092915050565b60008060408385031215611db157600080fd5b6000611dbf85828601611c3f565b9250506020611dd085828601611b3e565b9150509250929050565b600080600060608486031215611def57600080fd5b6000611dfd86828701611c3f565b9350506020611e0e86828701611b3e565b9250506040611e1f86828701611c2a565b9150509250925092565b6000611e35838361202a565b60208301905092915050565b611e4a81612298565b82525050565b6000611e5b8261225e565b611e658185612276565b9350611e708361224e565b8060005b83811015611ea1578151611e888882611e29565b9750611e9383612269565b925050600181019050611e74565b5085935050505092915050565b611eb781612330565b82525050565b611ec681612354565b82525050565b611ed581612378565b82525050565b6000611ee8600f83612287565b91507f4e6f7420417574686f72697a65642e00000000000000000000000000000000006000830152602082019050919050565b6000611f28600b83612287565b91507f4e6f20726577617264732e0000000000000000000000000000000000000000006000830152602082019050919050565b6000611f68600d83612287565b91507f506572696f64206572726f722e000000000000000000000000000000000000006000830152602082019050919050565b6000611fa8601483612287565b91507f4e6f20706572696f64732070726f76696465642e0000000000000000000000006000830152602082019050919050565b6000611fe8601283612287565b91507f4e6f206c6f636b656420726577617264732e00000000000000000000000000006000830152602082019050919050565b61202481612312565b82525050565b6120338161231c565b82525050565b6120428161231c565b82525050565b600060408201905061205d6000830185611e41565b61206a6020830184611eae565b9392505050565b60006040820190506120866000830185611e41565b612093602083018461201b565b9392505050565b600060408201905081810360008301526120b48185611e50565b90506120c3602083018461201b565b9392505050565b60006020820190506120df6000830184611eae565b92915050565b60006020820190506120fa6000830184611ebd565b92915050565b60006020820190506121156000830184611ecc565b92915050565b6000602082019050818103600083015261213481611edb565b9050919050565b6000602082019050818103600083015261215481611f1b565b9050919050565b6000602082019050818103600083015261217481611f5b565b9050919050565b6000602082019050818103600083015261219481611f9b565b9050919050565b600060208201905081810360008301526121b481611fdb565b9050919050565b60006020820190506121d0600083018461201b565b92915050565b60006020820190506121eb6000830184612039565b92915050565b6000604051905081810181811067ffffffffffffffff821117156122185761221761239c565b5b8060405250919050565b600067ffffffffffffffff82111561223d5761223c61239c565b5b602082029050602081019050919050565b6000819050602082019050919050565b600081519050919050565b6000602082019050919050565b600082825260208201905092915050565b600082825260208201905092915050565b60006122a3826122f2565b9050919050565b60006122b582612298565b9050919050565b60006122c782612298565b9050919050565b60006122d982612298565b9050919050565b60006122eb82612298565b9050919050565b600073ffffffffffffffffffffffffffffffffffffffff82169050919050565b6000819050919050565b600067ffffffffffffffff82169050919050565b600061233b82612342565b9050919050565b600061234d826122f2565b9050919050565b600061235f82612366565b9050919050565b6000612371826122f2565b9050919050565b60006123838261238a565b9050919050565b6000612395826122f2565b9050919050565bfe5b6123a781612298565b81146123b257600080fd5b50565b6123be816122aa565b81146123c957600080fd5b50565b6123d5816122bc565b81146123e057600080fd5b50565b6123ec816122ce565b81146123f757600080fd5b50565b612403816122e0565b811461240e57600080fd5b50565b61241a81612312565b811461242557600080fd5b50565b6124318161231c565b811461243c57600080fd5b5056fe60e060405234801561001057600080fd5b506040516104433803806104438339818101604052604081101561003357600080fd5b8101908080519060200190929190805190602001909291905050503373ffffffffffffffffffffffffffffffffffffffff1660808173ffffffffffffffffffffffffffffffffffffffff1660601b815250508173ffffffffffffffffffffffffffffffffffffffff1660a08173ffffffffffffffffffffffffffffffffffffffff1660601b815250508073ffffffffffffffffffffffffffffffffffffffff1660c08173ffffffffffffffffffffffffffffffffffffffff1660601b81525050505060805160601c60a05160601c60c05160601c61030c6101376000398060cd528061021552508061010952806101bd52806102515250806075525061030c6000f3fe608060405234801561001057600080fd5b50600436106100365760003560e01c806391c05b0b1461003b578063c89e436114610069575b600080fd5b6100676004803603602081101561005157600080fd5b8101908080359060200190929190505050610073565b005b6100716101bb565b005b7f000000000000000000000000000000000000000000000000000000000000000073ffffffffffffffffffffffffffffffffffffffff163373ffffffffffffffffffffffffffffffffffffffff16146100cb57600080fd5b7f000000000000000000000000000000000000000000000000000000000000000073ffffffffffffffffffffffffffffffffffffffff1663a9059cbb7f0000000000000000000000000000000000000000000000000000000000000000836040518363ffffffff1660e01b8152600401808373ffffffffffffffffffffffffffffffffffffffff16815260200182815260200192505050602060405180830381600087803b15801561017c57600080fd5b505af1158015610190573d6000803e3d6000fd5b505050506040513d60208110156101a657600080fd5b81019080805190602001909291905050505050565b7f000000000000000000000000000000000000000000000000000000000000000073ffffffffffffffffffffffffffffffffffffffff163373ffffffffffffffffffffffffffffffffffffffff161461021357600080fd5b7f000000000000000000000000000000000000000000000000000000000000000073ffffffffffffffffffffffffffffffffffffffff16635c19a95c7f00000000000000000000000000000000000000000000000000000000000000006040518263ffffffff1660e01b8152600401808273ffffffffffffffffffffffffffffffffffffffff168152602001915050600060405180830381600087803b1580156102bc57600080fd5b505af11580156102d0573d6000803e3d6000fd5b5050505056fea264697066735822122023f4f85bf65936125d0d2e42c4c54af5d9a0d9a7b0ecd5597fc708a04861cba164736f6c6343000704003353616665436173743a2076616c756520646f65736e27742066697420696e2036342062697473a264697066735822122019cde8fd1a16445cf471d98df6087818307f87b5dc7478e0bcebd8cfafa38d8864736f6c6343000704003353616665436173743a2076616c756520646f65736e27742066697420696e2036342062697473",
  "linkReferences": {},
  "deployedLinkReferences": {}
}