{
  "_format": "hh-sol-artifact-1",
  "contractName": "VerifyBitMathMsb",
  "sourceName": "contracts/uniswap/uniswap-v3-core/audits/tob/contracts/crytic/manticore/001.sol",
  "abi": [
    {
      "inputs": [
        {
          "internalType": "uint256",
          "name": "x",
          "type": "uint256"
        }
      ],
      "name": "verify",
      "outputs": [],
      "stateMutability": "nonpayable",
      "type": "function"
    }
  ],
  "bytecode": "0x60806040523480156100115760006000fd5b50610017565b6101fa806100266000396000f3fe60806040523480156100115760006000fd5b50600436106100305760003560e01c80638753367f1461003657610030565b60006000fd5b6100636004803603602081101561004d5760006000fd5b8101908080359060200190929190505050610065565b005b6000610076826100b663ffffffff16565b60ff16905060008160020a83101580156100a0575060ff82148061009f57506001820160020a83105b5b9050801515156100b05760006000fd5b50505b50565b60006000821115156100c85760006000fd5b700100000000000000000000000000000000821015156100f457608082901c9150815060808101905080505b680100000000000000008210151561011857604082901c9150815060408101905080505b6401000000008210151561013857602082901c9150815060208101905080505b620100008210151561015657601082901c9150815060108101905080505b6101008210151561017357600882901c9150815060088101905080505b60108210151561018f57600482901c9150815060048101905080505b6004821015156101ab57600282901c9150815060028101905080505b6002821015156101be5760018101905080505b5b91905056fea2646970667358221220f84d4cfc2244ddb48a205ceba5b5e3720dfd67e05c6b7eaf850975a14df8c4cf64736f6c63430007060033",
  "linkReferences": {},
  "deployedLinkReferences": {}
}