{
  "_format": "hh-sol-artifact-1",
  "contractName": "AuctionsTestable",
  "sourceName": "contracts/mocks/AuctionsTestable.sol",
  "abi": [
    {
      "anonymous": false,
      "inputs": [
        {
          "indexed": true,
          "internalType": "uint64",
          "name": "auctionID",
          "type": "uint64"
        },
        {
          "indexed": true,
          "internalType": "address",
          "name": "bidder",
          "type": "address"
        },
        {
          "indexed": false,
          "internalType": "uint256",
          "name": "bid",
          "type": "uint256"
        }
      ],
      "name": "DeficitAuctionBid",
      "type": "event"
    },
    {
      "anonymous": false,
      "inputs": [
        {
          "indexed": true,
          "internalType": "uint64",
          "name": "auctionID",
          "type": "uint64"
        },
        {
          "indexed": true,
          "internalType": "address",
          "name": "winner",
          "type": "address"
        }
      ],
      "name": "DeficitAuctionSettled",
      "type": "event"
    },
    {
      "anonymous": false,
      "inputs": [
        {
          "indexed": true,
          "internalType": "uint64",
          "name": "auctionID",
          "type": "uint64"
        },
        {
          "indexed": true,
          "internalType": "uint256",
          "name": "count",
          "type": "uint256"
        },
        {
          "indexed": false,
          "internalType": "uint64",
          "name": "maxEndTime",
          "type": "uint64"
        }
      ],
      "name": "DeficitAuctionStarted",
      "type": "event"
    },
    {
      "anonymous": false,
      "inputs": [
        {
          "indexed": true,
          "internalType": "address",
          "name": "governor",
          "type": "address"
        }
      ],
      "name": "Initialized",
      "type": "event"
    },
    {
      "anonymous": false,
      "inputs": [
        {
          "indexed": true,
          "internalType": "string",
          "name": "paramName",
          "type": "string"
        },
        {
          "indexed": false,
          "internalType": "uint256",
          "name": "value",
          "type": "uint256"
        }
      ],
      "name": "ParameterUpdated",
      "type": "event"
    },
    {
      "anonymous": false,
      "inputs": [
        {
          "indexed": true,
          "internalType": "string",
          "name": "paramName",
          "type": "string"
        },
        {
          "indexed": false,
          "internalType": "uint64",
          "name": "value",
          "type": "uint64"
        }
      ],
      "name": "ParameterUpdated64",
      "type": "event"
    },
    {
      "anonymous": false,
      "inputs": [],
      "name": "Stopped",
      "type": "event"
    },
    {
      "anonymous": false,
      "inputs": [
        {
          "indexed": true,
          "internalType": "uint64",
          "name": "auctionID",
          "type": "uint64"
        },
        {
          "indexed": true,
          "internalType": "address",
          "name": "bidder",
          "type": "address"
        },
        {
          "indexed": false,
          "internalType": "uint256",
          "name": "bid",
          "type": "uint256"
        }
      ],
      "name": "SurplusAuctionBid",
      "type": "event"
    },
    {
      "anonymous": false,
      "inputs": [
        {
          "indexed": true,
          "internalType": "uint64",
          "name": "auctionID",
          "type": "uint64"
        },
        {
          "indexed": true,
          "internalType": "address",
          "name": "winner",
          "type": "address"
        }
      ],
      "name": "SurplusAuctionSettled",
      "type": "event"
    },
    {
      "anonymous": false,
      "inputs": [
        {
          "indexed": true,
          "internalType": "uint64",
          "name": "auctionID",
          "type": "uint64"
        },
        {
          "indexed": true,
          "internalType": "uint256",
          "name": "count",
          "type": "uint256"
        },
        {
          "indexed": false,
          "internalType": "uint64",
          "name": "maxEndTime",
          "type": "uint64"
        }
      ],
      "name": "SurplusAuctionStarted",
      "type": "event"
    },
    {
      "inputs": [
        {
          "internalType": "uint256",
          "name": "amtIn",
          "type": "uint256"
        },
        {
          "internalType": "uint256",
          "name": "lotSize",
          "type": "uint256"
        }
      ],
      "name": "aggregateAuctionSize",
      "outputs": [
        {
          "internalType": "uint256",
          "name": "size",
          "type": "uint256"
        }
      ],
      "stateMutability": "view",
      "type": "function"
    },
    {
      "inputs": [
        {
          "internalType": "uint64",
          "name": "auctionID",
          "type": "uint64"
        },
        {
          "internalType": "uint128",
          "name": "bid",
          "type": "uint128"
        }
      ],
      "name": "bidDeficitAuction",
      "outputs": [],
      "stateMutability": "nonpayable",
      "type": "function"
    },
    {
      "inputs": [
        {
          "internalType": "uint64",
          "name": "auctionID",
          "type": "uint64"
        },
        {
          "internalType": "uint128",
          "name": "bid",
          "type": "uint128"
        }
      ],
      "name": "bidSurplusAuction",
      "outputs": [],
      "stateMutability": "nonpayable",
      "type": "function"
    },
    {
      "inputs": [],
      "name": "checkReservesAndStartAuctions",
      "outputs": [],
      "stateMutability": "nonpayable",
      "type": "function"
    },
    {
      "inputs": [],
      "name": "completeSetup",
      "outputs": [],
      "stateMutability": "nonpayable",
      "type": "function"
    },
    {
      "inputs": [
        {
          "internalType": "uint64",
          "name": "",
          "type": "uint64"
        }
      ],
      "name": "deficitAuction",
      "outputs": [
        {
          "internalType": "uint128",
          "name": "count",
          "type": "uint128"
        },
        {
          "internalType": "uint128",
          "name": "bid",
          "type": "uint128"
        },
        {
          "internalType": "address",
          "name": "bidder",
          "type": "address"
        },
        {
          "internalType": "uint48",
          "name": "endTime",
          "type": "uint48"
        },
        {
          "internalType": "uint48",
          "name": "maxEndTime",
          "type": "uint48"
        }
      ],
      "stateMutability": "view",
      "type": "function"
    },
    {
      "inputs": [
        {
          "internalType": "uint64",
          "name": "auctionID",
          "type": "uint64"
        }
      ],
      "name": "deficitAuctionComplete",
      "outputs": [
        {
          "internalType": "bool",
          "name": "",
          "type": "bool"
        }
      ],
      "stateMutability": "view",
      "type": "function"
    },
    {
      "inputs": [],
      "name": "deficitAuctionCount",
      "outputs": [
        {
          "internalType": "uint64",
          "name": "",
          "type": "uint64"
        }
      ],
      "stateMutability": "view",
      "type": "function"
    },
    {
      "inputs": [
        {
          "internalType": "uint64",
          "name": "id",
          "type": "uint64"
        }
      ],
      "name": "deficitAuctionExists",
      "outputs": [
        {
          "internalType": "bool",
          "name": "",
          "type": "bool"
        }
      ],
      "stateMutability": "view",
      "type": "function"
    },
    {
      "inputs": [
        {
          "internalType": "uint64",
          "name": "auctionID",
          "type": "uint64"
        }
      ],
      "name": "deficitAuctionLive",
      "outputs": [
        {
          "internalType": "bool",
          "name": "",
          "type": "bool"
        }
      ],
      "stateMutability": "view",
      "type": "function"
    },
    {
      "inputs": [],
      "name": "deployer",
      "outputs": [
        {
          "internalType": "address",
          "name": "",
          "type": "address"
        }
      ],
      "stateMutability": "view",
      "type": "function"
    },
    {
      "inputs": [],
      "name": "extensionPerBid",
      "outputs": [
        {
          "internalType": "uint64",
          "name": "",
          "type": "uint64"
        }
      ],
      "stateMutability": "view",
      "type": "function"
    },
    {
      "inputs": [
        {
          "internalType": "uint64",
          "name": "start",
          "type": "uint64"
        },
        {
          "internalType": "bool",
          "name": "surplus",
          "type": "bool"
        }
      ],
      "name": "getAllAuctions",
      "outputs": [
        {
          "components": [
            {
              "internalType": "uint128",
              "name": "count",
              "type": "uint128"
            },
            {
              "internalType": "uint128",
              "name": "bid",
              "type": "uint128"
            },
            {
              "internalType": "address",
              "name": "bidder",
              "type": "address"
            },
            {
              "internalType": "uint48",
              "name": "endTime",
              "type": "uint48"
            },
            {
              "internalType": "uint48",
              "name": "maxEndTime",
              "type": "uint48"
            }
          ],
          "internalType": "struct IAuctions.Auction[]",
          "name": "_auctions",
          "type": "tuple[]"
        },
        {
          "internalType": "uint256[]",
          "name": "_auctionIDs",
          "type": "uint256[]"
        },
        {
          "internalType": "bool[]",
          "name": "_isComplete",
          "type": "bool[]"
        }
      ],
      "stateMutability": "view",
      "type": "function"
    },
    {
      "inputs": [],
      "name": "governor",
      "outputs": [
        {
          "internalType": "contract IGovernor",
          "name": "",
          "type": "address"
        }
      ],
      "stateMutability": "view",
      "type": "function"
    },
    {
      "inputs": [
        {
          "internalType": "contract IGovernor",
          "name": "_governor",
          "type": "address"
        }
      ],
      "name": "init",
      "outputs": [],
      "stateMutability": "nonpayable",
      "type": "function"
    },
    {
      "inputs": [],
      "name": "latestAuctionCompletionTime",
      "outputs": [
        {
          "internalType": "uint64",
          "name": "",
          "type": "uint64"
        }
      ],
      "stateMutability": "view",
      "type": "function"
    },
    {
      "inputs": [],
      "name": "maxAuctionDuration",
      "outputs": [
        {
          "internalType": "uint64",
          "name": "",
          "type": "uint64"
        }
      ],
      "stateMutability": "view",
      "type": "function"
    },
    {
      "inputs": [],
      "name": "maxBatchSize",
      "outputs": [
        {
          "internalType": "uint64",
          "name": "",
          "type": "uint64"
        }
      ],
      "stateMutability": "view",
      "type": "function"
    },
    {
      "inputs": [],
      "name": "maxDeficitLotSize",
      "outputs": [
        {
          "internalType": "uint256",
          "name": "",
          "type": "uint256"
        }
      ],
      "stateMutability": "view",
      "type": "function"
    },
    {
      "inputs": [],
      "name": "maxSurplusLotSize",
      "outputs": [
        {
          "internalType": "uint256",
          "name": "",
          "type": "uint256"
        }
      ],
      "stateMutability": "view",
      "type": "function"
    },
    {
      "inputs": [],
      "name": "minAuctionDuration",
      "outputs": [
        {
          "internalType": "uint64",
          "name": "",
          "type": "uint64"
        }
      ],
      "stateMutability": "view",
      "type": "function"
    },
    {
      "inputs": [],
      "name": "minBidDelta",
      "outputs": [
        {
          "internalType": "uint256",
          "name": "",
          "type": "uint256"
        }
      ],
      "stateMutability": "view",
      "type": "function"
    },
    {
      "inputs": [],
      "name": "minLotSize",
      "outputs": [
        {
          "internalType": "uint256",
          "name": "",
          "type": "uint256"
        }
      ],
      "stateMutability": "view",
      "type": "function"
    },
    {
      "inputs": [],
      "name": "reservesBufferLowerBound",
      "outputs": [
        {
          "internalType": "uint256",
          "name": "",
          "type": "uint256"
        }
      ],
      "stateMutability": "view",
      "type": "function"
    },
    {
      "inputs": [],
      "name": "reservesBufferUpperBound",
      "outputs": [
        {
          "internalType": "uint256",
          "name": "",
          "type": "uint256"
        }
      ],
      "stateMutability": "view",
      "type": "function"
    },
    {
      "inputs": [
        {
          "internalType": "uint64",
          "name": "extension",
          "type": "uint64"
        }
      ],
      "name": "setExtensionPerBid",
      "outputs": [],
      "stateMutability": "nonpayable",
      "type": "function"
    },
    {
      "inputs": [
        {
          "internalType": "uint64",
          "name": "duration",
          "type": "uint64"
        }
      ],
      "name": "setMaxAuctionDuration",
      "outputs": [],
      "stateMutability": "nonpayable",
      "type": "function"
    },
    {
      "inputs": [
        {
          "internalType": "uint64",
          "name": "size",
          "type": "uint64"
        }
      ],
      "name": "setMaxBatchSize",
      "outputs": [],
      "stateMutability": "nonpayable",
      "type": "function"
    },
    {
      "inputs": [
        {
          "internalType": "uint256",
          "name": "size",
          "type": "uint256"
        }
      ],
      "name": "setMaxDeficitLotSize",
      "outputs": [],
      "stateMutability": "nonpayable",
      "type": "function"
    },
    {
      "inputs": [
        {
          "internalType": "uint256",
          "name": "size",
          "type": "uint256"
        }
      ],
      "name": "setMaxSurplusLotSize",
      "outputs": [],
      "stateMutability": "nonpayable",
      "type": "function"
    },
    {
      "inputs": [
        {
          "internalType": "uint64",
          "name": "duration",
          "type": "uint64"
        }
      ],
      "name": "setMinAuctionDuration",
      "outputs": [],
      "stateMutability": "nonpayable",
      "type": "function"
    },
    {
      "inputs": [
        {
          "internalType": "uint256",
          "name": "delta",
          "type": "uint256"
        }
      ],
      "name": "setMinBidDelta",
      "outputs": [],
      "stateMutability": "nonpayable",
      "type": "function"
    },
    {
      "inputs": [
        {
          "internalType": "uint256",
          "name": "size",
          "type": "uint256"
        }
      ],
      "name": "setMinLotSize",
      "outputs": [],
      "stateMutability": "nonpayable",
      "type": "function"
    },
    {
      "inputs": [
        {
          "internalType": "uint256",
          "name": "bound",
          "type": "uint256"
        }
      ],
      "name": "setReservesBufferLowerBound",
      "outputs": [],
      "stateMutability": "nonpayable",
      "type": "function"
    },
    {
      "inputs": [
        {
          "internalType": "uint256",
          "name": "bound",
          "type": "uint256"
        }
      ],
      "name": "setReservesBufferUpperBound",
      "outputs": [],
      "stateMutability": "nonpayable",
      "type": "function"
    },
    {
      "inputs": [
        {
          "internalType": "uint32",
          "name": "duration",
          "type": "uint32"
        }
      ],
      "name": "setTwapDuration",
      "outputs": [],
      "stateMutability": "nonpayable",
      "type": "function"
    },
    {
      "inputs": [
        {
          "internalType": "uint64",
          "name": "auctionID",
          "type": "uint64"
        }
      ],
      "name": "settleDeficitAuction",
      "outputs": [],
      "stateMutability": "nonpayable",
      "type": "function"
    },
    {
      "inputs": [
        {
          "internalType": "uint64",
          "name": "auctionID",
          "type": "uint64"
        }
      ],
      "name": "settleSurplusAuction",
      "outputs": [],
      "stateMutability": "nonpayable",
      "type": "function"
    },
    {
      "inputs": [],
      "name": "shouldStartAuctions",
      "outputs": [
        {
          "internalType": "uint256",
          "name": "surplusAmount",
          "type": "uint256"
        },
        {
          "internalType": "uint256",
          "name": "deficitAmount",
          "type": "uint256"
        }
      ],
      "stateMutability": "view",
      "type": "function"
    },
    {
      "inputs": [
        {
          "internalType": "uint256",
          "name": "count",
          "type": "uint256"
        },
        {
          "internalType": "bool",
          "name": "isSurplus",
          "type": "bool"
        }
      ],
      "name": "startAuction",
      "outputs": [],
      "stateMutability": "nonpayable",
      "type": "function"
    },
    {
      "inputs": [
        {
          "internalType": "uint256",
          "name": "amt",
          "type": "uint256"
        },
        {
          "internalType": "bool",
          "name": "isSurplus",
          "type": "bool"
        }
      ],
      "name": "startAuctions",
      "outputs": [],
      "stateMutability": "nonpayable",
      "type": "function"
    },
    {
      "inputs": [],
      "name": "stop",
      "outputs": [],
      "stateMutability": "nonpayable",
      "type": "function"
    },
    {
      "inputs": [],
      "name": "stopped",
      "outputs": [
        {
          "internalType": "bool",
          "name": "",
          "type": "bool"
        }
      ],
      "stateMutability": "view",
      "type": "function"
    },
    {
      "inputs": [
        {
          "internalType": "uint64",
          "name": "",
          "type": "uint64"
        }
      ],
      "name": "surplusAuction",
      "outputs": [
        {
          "internalType": "uint128",
          "name": "count",
          "type": "uint128"
        },
        {
          "internalType": "uint128",
          "name": "bid",
          "type": "uint128"
        },
        {
          "internalType": "address",
          "name": "bidder",
          "type": "address"
        },
        {
          "internalType": "uint48",
          "name": "endTime",
          "type": "uint48"
        },
        {
          "internalType": "uint48",
          "name": "maxEndTime",
          "type": "uint48"
        }
      ],
      "stateMutability": "view",
      "type": "function"
    },
    {
      "inputs": [
        {
          "internalType": "uint64",
          "name": "auctionID",
          "type": "uint64"
        }
      ],
      "name": "surplusAuctionComplete",
      "outputs": [
        {
          "internalType": "bool",
          "name": "",
          "type": "bool"
        }
      ],
      "stateMutability": "view",
      "type": "function"
    },
    {
      "inputs": [],
      "name": "surplusAuctionCount",
      "outputs": [
        {
          "internalType": "uint64",
          "name": "",
          "type": "uint64"
        }
      ],
      "stateMutability": "view",
      "type": "function"
    },
    {
      "inputs": [
        {
          "internalType": "uint64",
          "name": "id",
          "type": "uint64"
        }
      ],
      "name": "surplusAuctionExists",
      "outputs": [
        {
          "internalType": "bool",
          "name": "",
          "type": "bool"
        }
      ],
      "stateMutability": "view",
      "type": "function"
    },
    {
      "inputs": [
        {
          "internalType": "uint64",
          "name": "auctionID",
          "type": "uint64"
        }
      ],
      "name": "surplusAuctionLive",
      "outputs": [
        {
          "internalType": "bool",
          "name": "",
          "type": "bool"
        }
      ],
      "stateMutability": "view",
      "type": "function"
    },
    {
      "inputs": [],
      "name": "tcp",
      "outputs": [
        {
          "internalType": "contract ITCP",
          "name": "",
          "type": "address"
        }
      ],
      "stateMutability": "view",
      "type": "function"
    },
    {
      "inputs": [],
      "name": "twapDuration",
      "outputs": [
        {
          "internalType": "uint32",
          "name": "",
          "type": "uint32"
        }
      ],
      "stateMutability": "view",
      "type": "function"
    },
    {
      "inputs": [
        {
          "internalType": "bytes4",
          "name": "",
          "type": "bytes4"
        }
      ],
      "name": "validUpdate",
      "outputs": [
        {
          "internalType": "bool",
          "name": "",
          "type": "bool"
        }
      ],
      "stateMutability": "view",
      "type": "function"
    },
    {
      "inputs": [],
      "name": "zhuToBeBought",
      "outputs": [
        {
          "internalType": "uint256",
          "name": "",
          "type": "uint256"
        }
      ],
      "stateMutability": "view",
      "type": "function"
    },
    {
      "inputs": [],
      "name": "zhuToBeSold",
      "outputs": [
        {
          "internalType": "uint256",
          "name": "",
          "type": "uint256"
        }
      ],
      "stateMutability": "view",
      "type": "function"
    }
  ],
  "bytecode": "0x608060405260016006600050909055670e4b4b8af6a70000600760005090905568878678326eac900000600860005090905569043c33c1937564800000600960005090905569043c33c1937564800000600a600050909055662386f26fc10000600b60005090905566b1a2bc2ec50000600c6000509090556005600d60006101000a81548167ffffffffffffffff021916908367ffffffffffffffff160217905550610708600d60086101000a81548167ffffffffffffffff021916908367ffffffffffffffff16021790555062015180600d60106101000a81548167ffffffffffffffff021916908367ffffffffffffffff1602179055506202a300600d60186101000a81548167ffffffffffffffff021916908367ffffffffffffffff160217905550610e10601060186101000a81548163ffffffff021916908363ffffffff160217905550348015620001555760006000fd5b505b33600160006101000a81548173ffffffffffffffffffffffffffffffffffffffff021916908373ffffffffffffffffffffffffffffffffffffffff1602179055505b6200019f565b6162da80620001af6000396000f3fe60806040523480156100115760006000fd5b506004361061035c5760003560e01c8063597e899f116101c957806399e1998f11610105578063caa98b60116100a3578063d5f394881161007d578063d5f3948814610995578063d7abba0c146109b3578063ddf31e67146109cf578063faf95d2d146109eb5761035c565b8063caa98b601461092d578063cdbd373b1461095d578063d005d2eb146109795761035c565b8063a958c033116100df578063a958c033146108cd578063afea44ef146108d7578063c2b6722a146108f3578063c433c80a146109115761035c565b806399e1998f146108655780639d53185714610881578063a65c030a1461089d5761035c565b80637d69535111610172578063887c67d91161014c578063887c67d9146108055780638aea8f71146108215780638d56248a1461082b5780639052537e146108475761035c565b80637d695351146107975780637e9eeaa2146107c95780637eb12af7146107e75761035c565b8063651cf64d116101a3578063651cf64d1461072957806375d0ef521461075d57806375f12b21146107795761035c565b8063597e899f146106bd57806360aad9bf146106ed578063616cb0cf1461070b5761035c565b806336fc02f41161029857806348c9581e116102415780634ae8470d1161021b5780634ae8470d14610647578063541348761461066357806354cccf081461068157806354f634fb1461069f5761035c565b806348c9581e146105ef57806349830f161461060d5780634a2304b11461062b5761035c565b806340601add1161027257806340601add1461055f5780634079b8fc1461058f57806343799227146105bf5761035c565b806336fc02f41461050957806337ca44fc146105275780633a3a63df146105435761035c565b806319ab453c1161030557806326d89545116102df57806326d895451461047d5780632913daa01461049b5780633427c4ef146104b957806334b14475146104ed5761035c565b806319ab453c146104245780631b8757681461044057806325df95381461045e5761035c565b80630fb4e2b3116103365780630fb4e2b3146103ba5780630fe86907146103d6578063113cf1ab146103f45761035c565b806307da68f5146103625780630c340a241461036c5780630d5cd0e11461038a5761035c565b60006000fd5b61036a610a09565b005b610374610a29565b6040516103819190615e38565b60405180910390f35b6103a4600480360381019061039f9190615966565b610a4f565b6040516103b19190615e24565b60405180910390f35b6103d460048036038101906103cf9190615966565b610a6c565b005b6103de610af3565b6040516103eb9190616206565b60405180910390f35b61040e60048036038101906104099190615721565b610afc565b60405161041b9190615e24565b60405180910390f35b61043e600480360381019061043991906157bc565b610b21565b005b610448610edf565b6040516104559190616249565b60405180910390f35b610466610ef9565b604051610474929190616218565b60405180910390f35b61048561124c565b6040516104929190616231565b60405180910390f35b6104a3611262565b6040516104b09190616249565b60405180910390f35b6104d360048036038101906104ce9190615966565b61127c565b6040516104e49594939291906161a0565b60405180910390f35b610507600480360381019061050291906158a6565b611331565b005b6105116113e2565b60405161051e9190615e60565b60405180910390f35b610541600480360381019061053c9190615966565b611408565b005b61055d600480360381019061055891906158a6565b6114de565b005b61057960048036038101906105749190615966565b611561565b6040516105869190615e24565b60405180910390f35b6105a960048036038101906105a49190615966565b6115c6565b6040516105b69190615e24565b60405180910390f35b6105d960048036038101906105d4919061590f565b61162b565b6040516105e69190616206565b60405180910390f35b6105f7611648565b6040516106049190616249565b60405180910390f35b610615611662565b6040516106229190616206565b60405180910390f35b61064560048036038101906106409190615966565b61166b565b005b610661600480360381019061065c91906158a6565b611ac0565b005b61066b611b5f565b6040516106789190616249565b60405180910390f35b610689611b79565b6040516106969190616206565b60405180910390f35b6106a7611b82565b6040516106b49190616206565b60405180910390f35b6106d760048036038101906106d29190615966565b611b8b565b6040516106e49190615e24565b60405180910390f35b6106f5611bef565b6040516107029190616206565b60405180910390f35b610713611bf8565b6040516107209190616206565b60405180910390f35b610743600480360381019061073e9190615966565b611c01565b6040516107549594939291906161a0565b60405180910390f35b61077760048036038101906107729190615966565b611cb6565b005b610781611d8c565b60405161078e9190615e24565b60405180910390f35b6107b160048036038101906107ac9190615989565b611d9f565b6040516107c093929190615d4a565b60405180910390f35b6107d161239b565b6040516107de9190616206565b60405180910390f35b6107ef6123a4565b6040516107fc9190616249565b60405180910390f35b61081f600480360381019061081a91906158a6565b6123be565b005b610829612441565b005b610845600480360381019061084091906158a6565b612617565b005b61084f61269a565b60405161085c9190616206565b60405180910390f35b61087f600480360381019061087a91906159c1565b6126a3565b005b61089b600480360381019061089691906158de565b612d45565b005b6108b760048036038101906108b29190615966565b612d5a565b6040516108c49190615e24565b60405180910390f35b6108d5612d77565b005b6108f160048036038101906108ec9190615966565b612e38565b005b6108fb612eef565b6040516109089190616249565b60405180910390f35b61092b60048036038101906109269190615935565b612f09565b005b61094760048036038101906109429190615966565b612fa6565b6040516109549190615e24565b60405180910390f35b610977600480360381019061097291906158de565b61300a565b005b610993600480360381019061098e9190615966565b61301f565b005b61099d61344d565b6040516109aa9190615cb2565b60405180910390f35b6109cd60048036038101906109c891906159c1565b613473565b005b6109e960048036038101906109e491906158a6565b613bbc565b005b6109f3613c42565b604051610a009190616249565b60405180910390f35b610a17613c5c63ffffffff16565b610a25613cf163ffffffff16565b5b5b565b600060009054906101000a900473ffffffffffffffffffffffffffffffffffffffff1681565b6000610a6082613d3b63ffffffff16565b9050610a67565b919050565b610a7a613c5c63ffffffff16565b80600d60086101000a81548167ffffffffffffffff021916908367ffffffffffffffff160217905550604051610aaf90615ac8565b60405180910390207f6293347933ad2997134e224ac8cd2e39908a4a22aeed9af52127b4bbf765297882604051610ae69190616249565b60405180910390a25b5b50565b600a6000505481565b600560005060205280600052604060002060009150909054906101000a900460ff1681565b600160009054906101000a900473ffffffffffffffffffffffffffffffffffffffff1673ffffffffffffffffffffffffffffffffffffffff163373ffffffffffffffffffffffffffffffffffffffff16141515610b7e5760006000fd5b600160006101000a81549073ffffffffffffffffffffffffffffffffffffffff021916905580600060006101000a81548173ffffffffffffffffffffffffffffffffffffffff021916908373ffffffffffffffffffffffffffffffffffffffff160217905550600060009054906101000a900473ffffffffffffffffffffffffffffffffffffffff1673ffffffffffffffffffffffffffffffffffffffff16639624e83e6040518163ffffffff1660e01b815260040160206040518083038186803b158015610c4d5760006000fd5b505afa158015610c62573d600060003e3d6000fd5b505050506040513d601f19601f82011682018060405250810190610c86919061576e565b600260006101000a81548173ffffffffffffffffffffffffffffffffffffffff021916908373ffffffffffffffffffffffffffffffffffffffff160217905550600060009054906101000a900473ffffffffffffffffffffffffffffffffffffffff1673ffffffffffffffffffffffffffffffffffffffff16638a15fcf36040518163ffffffff1660e01b815260040160206040518083038186803b158015610d2f5760006000fd5b505afa158015610d44573d600060003e3d6000fd5b505050506040513d601f19601f82011682018060405250810190610d68919061587f565b600360006101000a81548173ffffffffffffffffffffffffffffffffffffffff021916908373ffffffffffffffffffffffffffffffffffffffff160217905550600060009054906101000a900473ffffffffffffffffffffffffffffffffffffffff1673ffffffffffffffffffffffffffffffffffffffff1663d478b0876040518163ffffffff1660e01b815260040160206040518083038186803b158015610e115760006000fd5b505afa158015610e26573d600060003e3d6000fd5b505050506040513d601f19601f82011682018060405250810190610e4a919061580a565b600460006101000a81548173ffffffffffffffffffffffffffffffffffffffff021916908373ffffffffffffffffffffffffffffffffffffffff160217905550610e98613dab63ffffffff16565b8073ffffffffffffffffffffffffffffffffffffffff167f908408e307fc569b417f6cbec5d5a06f44a0a505ac0479b47d421a4b2fd6a1e660405160405180910390a25b50565b601060109054906101000a900467ffffffffffffffff1681565b600060003073ffffffffffffffffffffffffffffffffffffffff16600060009054906101000a900473ffffffffffffffffffffffffffffffffffffffff1673ffffffffffffffffffffffffffffffffffffffff166385aa61036040518163ffffffff1660e01b815260040160206040518083038186803b158015610f7d5760006000fd5b505afa158015610f92573d600060003e3d6000fd5b505050506040513d601f19601f82011682018060405250810190610fb69190615795565b73ffffffffffffffffffffffffffffffffffffffff1614151561100e576040517f08c379a000000000000000000000000000000000000000000000000000000000815260040161100590615f84565b60405180910390fd5b6000600360009054906101000a900473ffffffffffffffffffffffffffffffffffffffff1673ffffffffffffffffffffffffffffffffffffffff166375172a8b6040518163ffffffff1660e01b815260040160206040518083038186803b1580156110795760006000fd5b505afa15801561108e573d600060003e3d6000fd5b505050506040513d601f19601f820116820180604052508101906110b291906158c2565b90506000600260009054906101000a900473ffffffffffffffffffffffffffffffffffffffff1673ffffffffffffffffffffffffffffffffffffffff16630dca59c16040518163ffffffff1660e01b815260040160206040518083038186803b15801561111f5760006000fd5b505afa158015611134573d600060003e3d6000fd5b505050506040513d601f19601f8201168201806040525081019061115891906158c2565b90506000611174600c600050548361427b90919063ffffffff16565b90506000611190600b600050548461427b90919063ffffffff16565b90506000600a6111a983856142a190919063ffffffff16565b8115156111b257fe5b049050826111ce601160005054876142a190919063ffffffff16565b11156111fd57808360116000505487030301965086506008600050548710156111f8576000965086505b611242565b816112166012600050548761432a90919063ffffffff16565b10156112415780601260005054860183030195508550600860005054861015611240576000955085505b5b5b50505050505b9091565b601060189054906101000a900463ffffffff1681565b600d60009054906101000a900467ffffffffffffffff1681565b600e6000506020528060005260406000206000915090508060000160009054906101000a90046fffffffffffffffffffffffffffffffff16908060000160109054906101000a90046fffffffffffffffffffffffffffffffff16908060010160009054906101000a900473ffffffffffffffffffffffffffffffffffffffff16908060010160149054906101000a900465ffffffffffff169080600101601a9054906101000a900465ffffffffffff16905085565b61133f613c5c63ffffffff16565b80600860005081909090555060086000505460001015156113605760006000fd5b6009600050546008600050541015156113795760006000fd5b600a600050546008600050541015156113925760006000fd5b60405161139e90615c1f565b60405180910390207f3a64504f0bc0c335e2aecb78638a257e0351a3fe0370861fd54ee4190b920933826040516113d59190616206565b60405180910390a25b5b50565b601360009054906101000a900473ffffffffffffffffffffffffffffffffffffffff1681565b611416613c5c63ffffffff16565b80600d60186101000a81548167ffffffffffffffff021916908367ffffffffffffffff160217905550600d60189054906101000a900467ffffffffffffffff1667ffffffffffffffff16600d60109054906101000a900467ffffffffffffffff1667ffffffffffffffff1610151561148e5760006000fd5b60405161149a90615b5b565b60405180910390207f6293347933ad2997134e224ac8cd2e39908a4a22aeed9af52127b4bbf7652978826040516114d19190616249565b60405180910390a25b5b50565b6114ec613c5c63ffffffff16565b80600a600050819090905550600a600050546008600050541015156115115760006000fd5b60405161151d90615b2a565b60405180910390207f3a64504f0bc0c335e2aecb78638a257e0351a3fe0370861fd54ee4190b920933826040516115549190616206565b60405180910390a25b5b50565b600061157282613d3b63ffffffff16565b61157d5760006115ba565b6115b8600f60005060008467ffffffffffffffff1667ffffffffffffffff1681526020019081526020016000206000506143b363ffffffff16565b155b90506115c1565b919050565b60006115d78261443263ffffffff16565b6115e257600061161f565b61161d600e60005060008467ffffffffffffffff1667ffffffffffffffff1681526020019081526020016000206000506143b363ffffffff16565b155b9050611626565b919050565b600061163d83836144a263ffffffff16565b905080505b92915050565b600d60189054906101000a900467ffffffffffffffff1681565b60116000505481565b61167961452b63ffffffff16565b61168761460a63ffffffff16565b61169681611b8b63ffffffff16565b15156116d7576040517f08c379a00000000000000000000000000000000000000000000000000000000081526004016116ce90615f06565b60405180910390fd5b6000600f60005060008367ffffffffffffffff1667ffffffffffffffff1681526020019081526020016000206000506040518060a00160405290816000820160009054906101000a90046fffffffffffffffffffffffffffffffff166fffffffffffffffffffffffffffffffff166fffffffffffffffffffffffffffffffff1681526020016000820160109054906101000a90046fffffffffffffffffffffffffffffffff166fffffffffffffffffffffffffffffffff166fffffffffffffffffffffffffffffffff1681526020016001820160009054906101000a900473ffffffffffffffffffffffffffffffffffffffff1673ffffffffffffffffffffffffffffffffffffffff1673ffffffffffffffffffffffffffffffffffffffff1681526020016001820160149054906101000a900465ffffffffffff1665ffffffffffff1665ffffffffffff16815260200160018201601a9054906101000a900465ffffffffffff1665ffffffffffff1665ffffffffffff16815260200150509050600073ffffffffffffffffffffffffffffffffffffffff16816040015173ffffffffffffffffffffffffffffffffffffffff16141580156118af5750600081602001516fffffffffffffffffffffffffffffffff16115b1561195257600060009054906101000a900473ffffffffffffffffffffffffffffffffffffffff1673ffffffffffffffffffffffffffffffffffffffff1663ef7a7cfa826040015183602001516040518363ffffffff1660e01b8152600401611919929190615cda565b600060405180830381600087803b1580156119345760006000fd5b505af1158015611949573d600060003e3d6000fd5b5050505061198c565b61198081600001516fffffffffffffffffffffffffffffffff166012600050546142a190919063ffffffff16565b60126000508190909055505b806040015173ffffffffffffffffffffffffffffffffffffffff168267ffffffffffffffff167fd1b34ce351dc1a4cb6c40bb878ba19a12c4c44d35e7bdbeca7b5ebe947da312f60405160405180910390a3600f60005060008367ffffffffffffffff1667ffffffffffffffff16815260200190815260200160002060006000820160006101000a8154906fffffffffffffffffffffffffffffffff02191690556000820160106101000a8154906fffffffffffffffffffffffffffffffff02191690556001820160006101000a81549073ffffffffffffffffffffffffffffffffffffffff02191690556001820160146101000a81549065ffffffffffff021916905560018201601a6101000a81549065ffffffffffff02191690555050505b5b611abc61465f63ffffffff16565b5b50565b611ace613c5c63ffffffff16565b80600c600050819090905550600c60005054600b60005054101515611af35760006000fd5b670de0b6b3a7640000600c60005054101515611b0f5760006000fd5b604051611b1b90615c81565b60405180910390207f3a64504f0bc0c335e2aecb78638a257e0351a3fe0370861fd54ee4190b92093382604051611b529190616206565b60405180910390a25b5b50565b600d60109054906101000a900467ffffffffffffffff1681565b600c6000505481565b60076000505481565b6000611b9c82613d3b63ffffffff16565b611ba7576000611be3565b611be2600f60005060008467ffffffffffffffff1667ffffffffffffffff1681526020019081526020016000206000506143b363ffffffff16565b5b9050611bea565b919050565b60096000505481565b600b6000505481565b600f6000506020528060005260406000206000915090508060000160009054906101000a90046fffffffffffffffffffffffffffffffff16908060000160109054906101000a90046fffffffffffffffffffffffffffffffff16908060010160009054906101000a900473ffffffffffffffffffffffffffffffffffffffff16908060010160149054906101000a900465ffffffffffff169080600101601a9054906101000a900465ffffffffffff16905085565b611cc4613c5c63ffffffff16565b80600d60106101000a81548167ffffffffffffffff021916908367ffffffffffffffff160217905550600d60189054906101000a900467ffffffffffffffff1667ffffffffffffffff16600d60109054906101000a900467ffffffffffffffff1667ffffffffffffffff16101515611d3c5760006000fd5b604051611d4890615bbd565b60405180910390207f6293347933ad2997134e224ac8cd2e39908a4a22aeed9af52127b4bbf765297882604051611d7f9190616249565b60405180910390a25b5b50565b600060149054906101000a900460ff1681565b606060606060600084611dc857601060089054906101000a900467ffffffffffffffff16611de0565b601060009054906101000a900467ffffffffffffffff165b67ffffffffffffffff169050600060008790505b828167ffffffffffffffff161015611e4b5786611e1f57611e1a81613d3b63ffffffff16565b611e2f565b611e2e8161443263ffffffff16565b5b15611e3d5781806001019250505b5b8080600101915050611df4565b508067ffffffffffffffff81118015611e645760006000fd5b50604051908082528060200260200182016040528015611e9e57816020015b611e8b615655565b815260200190600190039081611e835790505b50945084508067ffffffffffffffff81118015611ebb5760006000fd5b50604051908082528060200260200182016040528015611eea5781602001602082028036833780820191505090505b50935083508067ffffffffffffffff81118015611f075760006000fd5b50604051908082528060200260200182016040528015611f365781602001602082028036833780820191505090505b5092508250600060008890505b838167ffffffffffffffff16101561238f57871561216c57611f6a8161443263ffffffff16565b1515611f7557612382565b600e60005060008267ffffffffffffffff1667ffffffffffffffff1681526020019081526020016000206000506040518060a00160405290816000820160009054906101000a90046fffffffffffffffffffffffffffffffff166fffffffffffffffffffffffffffffffff166fffffffffffffffffffffffffffffffff1681526020016000820160109054906101000a90046fffffffffffffffffffffffffffffffff166fffffffffffffffffffffffffffffffff166fffffffffffffffffffffffffffffffff1681526020016001820160009054906101000a900473ffffffffffffffffffffffffffffffffffffffff1673ffffffffffffffffffffffffffffffffffffffff1673ffffffffffffffffffffffffffffffffffffffff1681526020016001820160149054906101000a900465ffffffffffff1665ffffffffffff1665ffffffffffff16815260200160018201601a9054906101000a900465ffffffffffff1665ffffffffffff1665ffffffffffff1681526020015050878381518110151561210057fe5b60200260200101819052508067ffffffffffffffff16868381518110151561212457fe5b602002602001019090818152602001505061214481612fa663ffffffff16565b858381518110151561215257fe5b602002602001019015159081151581526020015050612379565b61217b81613d3b63ffffffff16565b151561218657612382565b600f60005060008267ffffffffffffffff1667ffffffffffffffff1681526020019081526020016000206000506040518060a00160405290816000820160009054906101000a90046fffffffffffffffffffffffffffffffff166fffffffffffffffffffffffffffffffff166fffffffffffffffffffffffffffffffff1681526020016000820160109054906101000a90046fffffffffffffffffffffffffffffffff166fffffffffffffffffffffffffffffffff166fffffffffffffffffffffffffffffffff1681526020016001820160009054906101000a900473ffffffffffffffffffffffffffffffffffffffff1673ffffffffffffffffffffffffffffffffffffffff1673ffffffffffffffffffffffffffffffffffffffff1681526020016001820160149054906101000a900465ffffffffffff1665ffffffffffff1665ffffffffffff16815260200160018201601a9054906101000a900465ffffffffffff1665ffffffffffff1665ffffffffffff1681526020015050878381518110151561231157fe5b60200260200101819052508067ffffffffffffffff16868381518110151561233557fe5b602002602001019090818152602001505061235581611b8b63ffffffff16565b858381518110151561236357fe5b6020026020010190151590811515815260200150505b81806001019250505b8080600101915050611f43565b505050505b9250925092565b60126000505481565b601060089054906101000a900467ffffffffffffffff1681565b6123cc613c5c63ffffffff16565b80600b600050819090905550600c60005054600b600050541015156123f15760006000fd5b6040516123fd90615c50565b60405180910390207f3a64504f0bc0c335e2aecb78638a257e0351a3fe0370861fd54ee4190b920933826040516124349190616206565b60405180910390a25b5b50565b61244f613c5c63ffffffff16565b600060009054906101000a900473ffffffffffffffffffffffffffffffffffffffff1673ffffffffffffffffffffffffffffffffffffffff16638396cf696040518163ffffffff1660e01b815260040160206040518083038186803b1580156124b85760006000fd5b505afa1580156124cd573d600060003e3d6000fd5b505050506040513d601f19601f820116820180604052508101906124f19190615858565b601460006101000a81548173ffffffffffffffffffffffffffffffffffffffff021916908373ffffffffffffffffffffffffffffffffffffffff160217905550600060009054906101000a900473ffffffffffffffffffffffffffffffffffffffff1673ffffffffffffffffffffffffffffffffffffffff1663ff0eccf66040518163ffffffff1660e01b815260040160206040518083038186803b15801561259a5760006000fd5b505afa1580156125af573d600060003e3d6000fd5b505050506040513d601f19601f820116820180604052508101906125d39190615858565b601560006101000a81548173ffffffffffffffffffffffffffffffffffffffff021916908373ffffffffffffffffffffffffffffffffffffffff1602179055505b5b565b612625613c5c63ffffffff16565b80600960005081909090555060096000505460086000505410151561264a5760006000fd5b60405161265690615b8c565b60405180910390207f3a64504f0bc0c335e2aecb78638a257e0351a3fe0370861fd54ee4190b9209338260405161268d9190616206565b60405180910390a25b5b50565b60086000505481565b6126b161452b63ffffffff16565b6126bf61460a63ffffffff16565b6126ce8261156163ffffffff16565b151561270f576040517f08c379a00000000000000000000000000000000000000000000000000000000081526004016127069061613d565b60405180910390fd5b6000600f60005060008467ffffffffffffffff1667ffffffffffffffff1681526020019081526020016000206000506040518060a00160405290816000820160009054906101000a90046fffffffffffffffffffffffffffffffff166fffffffffffffffffffffffffffffffff166fffffffffffffffffffffffffffffffff1681526020016000820160109054906101000a90046fffffffffffffffffffffffffffffffff166fffffffffffffffffffffffffffffffff166fffffffffffffffffffffffffffffffff1681526020016001820160009054906101000a900473ffffffffffffffffffffffffffffffffffffffff1673ffffffffffffffffffffffffffffffffffffffff1673ffffffffffffffffffffffffffffffffffffffff1681526020016001820160149054906101000a900465ffffffffffff1665ffffffffffff1665ffffffffffff16815260200160018201601a9054906101000a900465ffffffffffff1665ffffffffffff1665ffffffffffff1681526020015050905060003390506000600073ffffffffffffffffffffffffffffffffffffffff16836040015173ffffffffffffffffffffffffffffffffffffffff1614156129c257612908600a6128fa85600001516fffffffffffffffffffffffffffffffff166146f363ffffffff16565b61485190919063ffffffff16565b846fffffffffffffffffffffffffffffffff1610151561295d576040517f08c379a000000000000000000000000000000000000000000000000000000000815260040161295490616080565b60405180910390fd5b61298b83600001516fffffffffffffffffffffffffffffffff166012600050546142a190919063ffffffff16565b6012600050819090905550600360009054906101000a900473ffffffffffffffffffffffffffffffffffffffff1690508050612a50565b6129f060076000505484602001516fffffffffffffffffffffffffffffffff166148ef90919063ffffffff16565b846fffffffffffffffffffffffffffffffff1611151515612a46576040517f08c379a0000000000000000000000000000000000000000000000000000000008152600401612a3d90615f45565b60405180910390fd5b8260400151905080505b81836040019073ffffffffffffffffffffffffffffffffffffffff16908173ffffffffffffffffffffffffffffffffffffffff16815260200150508383602001906fffffffffffffffffffffffffffffffff1690816fffffffffffffffffffffffffffffffff16815260200150506000612aff612ae8600d60089054906101000a900467ffffffffffffffff1661491563ffffffff16565b67ffffffffffffffff1661494b909063ffffffff16565b90508065ffffffffffff16846060015165ffffffffffff161015612b3d5780846060019065ffffffffffff16908165ffffffffffff16815260200150505b83600f60005060008867ffffffffffffffff1667ffffffffffffffff16815260200190815260200160002060005060008201518160000160006101000a8154816fffffffffffffffffffffffffffffffff02191690836fffffffffffffffffffffffffffffffff16021790555060208201518160000160106101000a8154816fffffffffffffffffffffffffffffffff02191690836fffffffffffffffffffffffffffffffff16021790555060408201518160010160006101000a81548173ffffffffffffffffffffffffffffffffffffffff021916908373ffffffffffffffffffffffffffffffffffffffff16021790555060608201518160010160146101000a81548165ffffffffffff021916908365ffffffffffff160217905550608082015181600101601a6101000a81548165ffffffffffff021916908365ffffffffffff160217905550905050612cd3600360009054906101000a900473ffffffffffffffffffffffffffffffffffffffff16848487600001516fffffffffffffffffffffffffffffffff166149db63ffffffff16565b8273ffffffffffffffffffffffffffffffffffffffff168667ffffffffffffffff167f3e40664282966c0a42567d60514e22e8d06206cbcaa7d79f53dc8fcd8c72424687604051612d24919061617c565b60405180910390a3505050505b5b612d4061465f63ffffffff16565b5b5050565b612d558282614c0663ffffffff16565b5b5050565b6000612d6b8261443263ffffffff16565b9050612d72565b919050565b612d8561452b63ffffffff16565b612d9361515463ffffffff16565b60006000612da5610ef963ffffffff16565b915091506000821115612dc857612dc382600161528d63ffffffff16565b612e23565b6000811115612de757612de281600061528d63ffffffff16565b612e22565b6040517f08c379a0000000000000000000000000000000000000000000000000000000008152600401612e19906160fe565b60405180910390fd5b5b50505b5b612e3561465f63ffffffff16565b5b565b612e46613c5c63ffffffff16565b80600d60006101000a81548167ffffffffffffffff021916908367ffffffffffffffff1602179055506000600d60009054906101000a900467ffffffffffffffff1667ffffffffffffffff16111515612e9f5760006000fd5b604051612eab90615a97565b60405180910390207f6293347933ad2997134e224ac8cd2e39908a4a22aeed9af52127b4bbf765297882604051612ee29190616249565b60405180910390a25b5b50565b601060009054906101000a900467ffffffffffffffff1681565b612f17613c5c63ffffffff16565b61012c8163ffffffff1610151515612f2f5760006000fd5b80601060186101000a81548163ffffffff021916908363ffffffff160217905550604051612f5c90615af9565b60405180910390207f6293347933ad2997134e224ac8cd2e39908a4a22aeed9af52127b4bbf76529788263ffffffff16604051612f999190616249565b60405180910390a25b5b50565b6000612fb78261443263ffffffff16565b612fc2576000612ffe565b612ffd600e60005060008467ffffffffffffffff1667ffffffffffffffff1681526020019081526020016000206000506143b363ffffffff16565b5b9050613005565b919050565b61301a828261528d63ffffffff16565b5b5050565b61302d61452b63ffffffff16565b61303b61460a63ffffffff16565b61304a81612fa663ffffffff16565b151561308b576040517f08c379a000000000000000000000000000000000000000000000000000000000815260040161308290615f06565b60405180910390fd5b6000600e60005060008367ffffffffffffffff1667ffffffffffffffff1681526020019081526020016000206000506040518060a00160405290816000820160009054906101000a90046fffffffffffffffffffffffffffffffff166fffffffffffffffffffffffffffffffff166fffffffffffffffffffffffffffffffff1681526020016000820160109054906101000a90046fffffffffffffffffffffffffffffffff166fffffffffffffffffffffffffffffffff166fffffffffffffffffffffffffffffffff1681526020016001820160009054906101000a900473ffffffffffffffffffffffffffffffffffffffff1673ffffffffffffffffffffffffffffffffffffffff1673ffffffffffffffffffffffffffffffffffffffff1681526020016001820160149054906101000a900465ffffffffffff1665ffffffffffff1665ffffffffffff16815260200160018201601a9054906101000a900465ffffffffffff1665ffffffffffff1665ffffffffffff1681526020015050905061323a81600001516fffffffffffffffffffffffffffffffff166011600050546142a190919063ffffffff16565b6011600050819090905550600073ffffffffffffffffffffffffffffffffffffffff16816040015173ffffffffffffffffffffffffffffffffffffffff1614151561331957600360009054906101000a900473ffffffffffffffffffffffffffffffffffffffff1673ffffffffffffffffffffffffffffffffffffffff166316f9428f826040015183600001516040518363ffffffff1660e01b81526004016132e4929190615cda565b600060405180830381600087803b1580156132ff5760006000fd5b505af1158015613314573d600060003e3d6000fd5b505050505b806040015173ffffffffffffffffffffffffffffffffffffffff168267ffffffffffffffff167f596e5ff4197d4a01b2406d4c0717653cbc9166cf6ab2bdf78272eb99d191a09360405160405180910390a3600e60005060008367ffffffffffffffff1667ffffffffffffffff16815260200190815260200160002060006000820160006101000a8154906fffffffffffffffffffffffffffffffff02191690556000820160106101000a8154906fffffffffffffffffffffffffffffffff02191690556001820160006101000a81549073ffffffffffffffffffffffffffffffffffffffff02191690556001820160146101000a81549065ffffffffffff021916905560018201601a6101000a81549065ffffffffffff02191690555050505b5b61344961465f63ffffffff16565b5b50565b600160009054906101000a900473ffffffffffffffffffffffffffffffffffffffff1681565b61348161452b63ffffffff16565b61348f61460a63ffffffff16565b61349e826115c663ffffffff16565b15156134df576040517f08c379a00000000000000000000000000000000000000000000000000000000081526004016134d69061613d565b60405180910390fd5b60003390506000600e60005060008567ffffffffffffffff1667ffffffffffffffff1681526020019081526020016000206000506040518060a00160405290816000820160009054906101000a90046fffffffffffffffffffffffffffffffff166fffffffffffffffffffffffffffffffff166fffffffffffffffffffffffffffffffff1681526020016000820160109054906101000a90046fffffffffffffffffffffffffffffffff166fffffffffffffffffffffffffffffffff166fffffffffffffffffffffffffffffffff1681526020016001820160009054906101000a900473ffffffffffffffffffffffffffffffffffffffff1673ffffffffffffffffffffffffffffffffffffffff1673ffffffffffffffffffffffffffffffffffffffff1681526020016001820160149054906101000a900465ffffffffffff1665ffffffffffff1665ffffffffffff16815260200160018201601a9054906101000a900465ffffffffffff1665ffffffffffff1665ffffffffffff16815260200150509050600060006000600073ffffffffffffffffffffffffffffffffffffffff16846040015173ffffffffffffffffffffffffffffffffffffffff16141561374657600a6136cb85600001516fffffffffffffffffffffffffffffffff166146f363ffffffff16565b8115156136d457fe5b04866fffffffffffffffffffffffffffffffff1611151561372a576040517f08c379a000000000000000000000000000000000000000000000000000000000815260040161372190615ec7565b60405180910390fd5b856fffffffffffffffffffffffffffffffff169250825061381c565b61377460076000505485602001516fffffffffffffffffffffffffffffffff1661427b90919063ffffffff16565b866fffffffffffffffffffffffffffffffff16101515156137ca576040517f08c379a00000000000000000000000000000000000000000000000000000000081526004016137c190615fc3565b60405180910390fd5b83602001519150815083604001519050805061381784602001516fffffffffffffffffffffffffffffffff16876fffffffffffffffffffffffffffffffff166142a190919063ffffffff16565b925082505b84846040019073ffffffffffffffffffffffffffffffffffffffff16908173ffffffffffffffffffffffffffffffffffffffff16815260200150508584602001906fffffffffffffffffffffffffffffffff1690816fffffffffffffffffffffffffffffffff168152602001505060006138cb6138b4600d60089054906101000a900467ffffffffffffffff1661491563ffffffff16565b67ffffffffffffffff1661494b909063ffffffff16565b90508065ffffffffffff16856060015165ffffffffffff1610156139095780856060019065ffffffffffff16908165ffffffffffff16815260200150505b84600e60005060008a67ffffffffffffffff1667ffffffffffffffff16815260200190815260200160002060005060008201518160000160006101000a8154816fffffffffffffffffffffffffffffffff02191690836fffffffffffffffffffffffffffffffff16021790555060208201518160000160106101000a8154816fffffffffffffffffffffffffffffffff02191690836fffffffffffffffffffffffffffffffff16021790555060408201518160010160006101000a81548173ffffffffffffffffffffffffffffffffffffffff021916908373ffffffffffffffffffffffffffffffffffffffff16021790555060608201518160010160146101000a81548165ffffffffffff021916908365ffffffffffff160217905550608082015181600101601a6101000a81548165ffffffffffff021916908365ffffffffffff1602179055509050506000836fffffffffffffffffffffffffffffffff161115613ab757613ab6601360009054906101000a900473ffffffffffffffffffffffffffffffffffffffff168784866fffffffffffffffffffffffffffffffff166149db63ffffffff16565b5b601360009054906101000a900473ffffffffffffffffffffffffffffffffffffffff1673ffffffffffffffffffffffffffffffffffffffff166379cc679087866040518363ffffffff1660e01b8152600401613b14929190615d1b565b600060405180830381600087803b158015613b2f5760006000fd5b505af1158015613b44573d600060003e3d6000fd5b505050508573ffffffffffffffffffffffffffffffffffffffff168867ffffffffffffffff167fd428196c29fb7877242c66ff296d926b10a5051d369acf8fe5eb3ea21bb6ec9889604051613b99919061617c565b60405180910390a35050505050505b5b613bb761465f63ffffffff16565b5b5050565b613bca613c5c63ffffffff16565b806007600050819090905550670de0b6b3a7640000600760005054111515613bf25760006000fd5b604051613bfe90615bee565b60405180910390207f3a64504f0bc0c335e2aecb78638a257e0351a3fe0370861fd54ee4190b92093382604051613c359190616206565b60405180910390a25b5b50565b600d60089054906101000a900467ffffffffffffffff1681565b600060009054906101000a900473ffffffffffffffffffffffffffffffffffffffff1673ffffffffffffffffffffffffffffffffffffffff163373ffffffffffffffffffffffffffffffffffffffff16141515613cee576040517f08c379a0000000000000000000000000000000000000000000000000000000008152600401613ce590616002565b60405180910390fd5b5b565b6001600060146101000a81548160ff0219169083151502179055507f7acc84e34091ae817647a4c49116f5cc07f319078ba80f8f5fde37ea7e25cbd660405160405180910390a15b565b60006000600f60005060008467ffffffffffffffff1667ffffffffffffffff16815260200190815260200160002060005060000160009054906101000a90046fffffffffffffffffffffffffffffffff166fffffffffffffffffffffffffffffffff16119050613da6565b919050565b600060009054906101000a900473ffffffffffffffffffffffffffffffffffffffff1673ffffffffffffffffffffffffffffffffffffffff166336fc02f46040518163ffffffff1660e01b815260040160206040518083038186803b158015613e145760006000fd5b505afa158015613e29573d600060003e3d6000fd5b505050506040513d601f19601f82011682018060405250810190613e4d9190615831565b601360006101000a81548173ffffffffffffffffffffffffffffffffffffffff021916908373ffffffffffffffffffffffffffffffffffffffff160217905550600060405180610160016040528063ddf31e6760e01b7bffffffffffffffffffffffffffffffffffffffffffffffffffffffff19167bffffffffffffffffffffffffffffffffffffffffffffffffffffffff191681526020016334b1447560e01b7bffffffffffffffffffffffffffffffffffffffffffffffffffffffff19167bffffffffffffffffffffffffffffffffffffffffffffffffffffffff19168152602001638d56248a60e01b7bffffffffffffffffffffffffffffffffffffffffffffffffffffffff19167bffffffffffffffffffffffffffffffffffffffffffffffffffffffff19168152602001633a3a63df60e01b7bffffffffffffffffffffffffffffffffffffffffffffffffffffffff19167bffffffffffffffffffffffffffffffffffffffffffffffffffffffff1916815260200163887c67d960e01b7bffffffffffffffffffffffffffffffffffffffffffffffffffffffff19167bffffffffffffffffffffffffffffffffffffffffffffffffffffffff19168152602001634ae8470d60e01b7bffffffffffffffffffffffffffffffffffffffffffffffffffffffff19167bffffffffffffffffffffffffffffffffffffffffffffffffffffffff1916815260200163afea44ef60e01b7bffffffffffffffffffffffffffffffffffffffffffffffffffffffff19167bffffffffffffffffffffffffffffffffffffffffffffffffffffffff19168152602001630fb4e2b360e01b7bffffffffffffffffffffffffffffffffffffffffffffffffffffffff19167bffffffffffffffffffffffffffffffffffffffffffffffffffffffff191681526020016375d0ef5260e01b7bffffffffffffffffffffffffffffffffffffffffffffffffffffffff19167bffffffffffffffffffffffffffffffffffffffffffffffffffffffff191681526020016337ca44fc60e01b7bffffffffffffffffffffffffffffffffffffffffffffffffffffffff19167bffffffffffffffffffffffffffffffffffffffffffffffffffffffff1916815260200163c433c80a60e01b7bffffffffffffffffffffffffffffffffffffffffffffffffffffffff19167bffffffffffffffffffffffffffffffffffffffffffffffffffffffff191681526020015090506000600090505b8150600b811015614276576001600560005060008484600b8110151561420057fe5b60200201517bffffffffffffffffffffffffffffffffffffffffffffffffffffffff19167bffffffffffffffffffffffffffffffffffffffffffffffffffffffff1916815260200190815260200160002060006101000a81548160ff0219169083151502179055505b80806001019150506141de565b50505b565b60006142968383670de0b6b3a764000061535263ffffffff16565b905080505b92915050565b60008282840391508111151515614323576040517f08c379a000000000000000000000000000000000000000000000000000000000815260040180806020018281038252600d8152602001807f7375622d756e646572666c6f770000000000000000000000000000000000000081526020015060200191505060405180910390fd5b5b92915050565b600082828401915081101515156143ac576040517f08c379a000000000000000000000000000000000000000000000000000000000815260040180806020018281038252600c8152602001807f6164642d6f766572666c6f77000000000000000000000000000000000000000081526020015060200191505060405180910390fd5b5b92915050565b600060006143c561545363ffffffff16565b90508067ffffffffffffffff168360010160149054906101000a900465ffffffffffff1665ffffffffffff16108061442457508067ffffffffffffffff1683600101601a9054906101000a900465ffffffffffff1665ffffffffffff16105b91505061442d56505b919050565b60006000600e60005060008467ffffffffffffffff1667ffffffffffffffff16815260200190815260200160002060005060000160009054906101000a90046fffffffffffffffffffffffffffffffff166fffffffffffffffffffffffffffffffff1611905061449d565b919050565b600060006144d9600d60009054906101000a900467ffffffffffffffff1667ffffffffffffffff168461485190919063ffffffff16565b9050600083858115156144e857fe5b069050600060086000505482106144ff5785614503565b8186035b9050614518818461546e90919063ffffffff16565b9350505050614525565050505b92915050565b600460009054906101000a900473ffffffffffffffffffffffffffffffffffffffff1673ffffffffffffffffffffffffffffffffffffffff1663e97dcb626040518163ffffffff1660e01b8152600401600060405180830381600087803b1580156145965760006000fd5b505af11580156145ab573d600060003e3d6000fd5b505050506002600660005054141515156145fa576040517f08c379a00000000000000000000000000000000000000000000000000000000081526004016145f190616041565b60405180910390fd5b600260066000508190909055505b565b600060149054906101000a900460ff1615151561465c576040517f08c379a0000000000000000000000000000000000000000000000000000000008152600401614653906160bf565b60405180910390fd5b5b565b60016006600050819090905550600460009054906101000a900473ffffffffffffffffffffffffffffffffffffffff1673ffffffffffffffffffffffffffffffffffffffff1663e9fad8ee6040518163ffffffff1660e01b8152600401600060405180830381600087803b1580156146d75760006000fd5b505af11580156146ec573d600060003e3d6000fd5b505050505b565b6000614845600060009054906101000a900473ffffffffffffffffffffffffffffffffffffffff1673ffffffffffffffffffffffffffffffffffffffff1663d3419bf36040518163ffffffff1660e01b815260040160206040518083038186803b1580156147615760006000fd5b505afa158015614776573d600060003e3d6000fd5b505050506040513d601f19601f8201168201806040525081019061479a91906157e3565b73ffffffffffffffffffffffffffffffffffffffff1663cb75e31b601060189054906101000a900463ffffffff166040518263ffffffff1660e01b81526004016147e49190616231565b60206040518083038186803b1580156147fd5760006000fd5b505afa158015614812573d600060003e3d6000fd5b505050506040513d601f19601f8201168201806040525081019061483691906158c2565b836148ef90919063ffffffff16565b905061484c565b919050565b600060008214806148715750828283850292508281151561486e57fe5b04145b15156148e8576040517f08c379a000000000000000000000000000000000000000000000000000000000815260040180806020018281038252600c8152602001807f6d756c2d6f766572666c6f77000000000000000000000000000000000000000081526020015060200191505060405180910390fd5b5b92915050565b600061490a83670de0b6b3a76400008461535263ffffffff16565b905080505b92915050565b60006149418261492961545363ffffffff16565b67ffffffffffffffff1661548c90919063ffffffff16565b905080505b919050565b60006601000000000000821015156149ce576040517f08c379a00000000000000000000000000000000000000000000000000000000081526004018080602001828103825260118152602001807f6d6f7265207468616e203438206269747300000000000000000000000000000081526020015060200191505060405180910390fd5b8190506149d6565b919050565b600060008573ffffffffffffffffffffffffffffffffffffffff166323b872dd60e01b868686604051602401808473ffffffffffffffffffffffffffffffffffffffff1681526020018373ffffffffffffffffffffffffffffffffffffffff1681526020018281526020019350505050604051602081830303815290604052907bffffffffffffffffffffffffffffffffffffffffffffffffffffffff19166020820180517bffffffffffffffffffffffffffffffffffffffffffffffffffffffff83818316178352505050506040518082805190602001908083835b602083101515614ade57805182525b602082019150602081019050602083039250614ab8565b6001836020036101000a0380198251168184511680821785525050505050509050019150506000604051808303816000865af19150503d8060008114614b40576040519150601f19603f3d011682016040523d82523d6000602084013e614b45565b606091505b5091509150818015614b865750600081511480614b855750808060200190516020811015614b735760006000fd5b81019080805190602001909291905050505b5b1515614bfd576040517f08c379a00000000000000000000000000000000000000000000000000000000081526004018080602001828103825260038152602001807f535446000000000000000000000000000000000000000000000000000000000081526020015060200191505060405180910390fd5b50505b50505050565b6000614c2d600d60189054906101000a900467ffffffffffffffff1661491563ffffffff16565b90508067ffffffffffffffff16601060109054906101000a900467ffffffffffffffff1667ffffffffffffffff161015614c8b5780601060106101000a81548167ffffffffffffffff021916908367ffffffffffffffff1602179055505b60006040518060a00160405280614ca986615529909063ffffffff16565b6fffffffffffffffffffffffffffffffff16815260200160006fffffffffffffffffffffffffffffffff168152602001600073ffffffffffffffffffffffffffffffffffffffff168152602001614d35614d1e600d60109054906101000a900467ffffffffffffffff1661491563ffffffff16565b67ffffffffffffffff1661494b909063ffffffff16565b65ffffffffffff168152602001614d5d8467ffffffffffffffff1661494b909063ffffffff16565b65ffffffffffff1681526020015090508215614f625780600e6000506000601060009054906101000a900467ffffffffffffffff1667ffffffffffffffff1667ffffffffffffffff16815260200190815260200160002060005060008201518160000160006101000a8154816fffffffffffffffffffffffffffffffff02191690836fffffffffffffffffffffffffffffffff16021790555060208201518160000160106101000a8154816fffffffffffffffffffffffffffffffff02191690836fffffffffffffffffffffffffffffffff16021790555060408201518160010160006101000a81548173ffffffffffffffffffffffffffffffffffffffff021916908373ffffffffffffffffffffffffffffffffffffffff16021790555060608201518160010160146101000a81548165ffffffffffff021916908365ffffffffffff160217905550608082015181600101601a6101000a81548165ffffffffffff021916908365ffffffffffff160217905550905050836010600081819054906101000a900467ffffffffffffffff168092919060010191906101000a81548167ffffffffffffffff021916908367ffffffffffffffff16021790555067ffffffffffffffff167fb706108f90fb9e0fadc5f3feaa02b4c23b9d569ad7b46408c64eb4f224eba7cd84604051614f559190616249565b60405180910390a361514d565b80600f6000506000601060089054906101000a900467ffffffffffffffff1667ffffffffffffffff1667ffffffffffffffff16815260200190815260200160002060005060008201518160000160006101000a8154816fffffffffffffffffffffffffffffffff02191690836fffffffffffffffffffffffffffffffff16021790555060208201518160000160106101000a8154816fffffffffffffffffffffffffffffffff02191690836fffffffffffffffffffffffffffffffff16021790555060408201518160010160006101000a81548173ffffffffffffffffffffffffffffffffffffffff021916908373ffffffffffffffffffffffffffffffffffffffff16021790555060608201518160010160146101000a81548165ffffffffffff021916908365ffffffffffff160217905550608082015181600101601a6101000a81548165ffffffffffff021916908365ffffffffffff160217905550905050836010600881819054906101000a900467ffffffffffffffff168092919060010191906101000a81548167ffffffffffffffff021916908367ffffffffffffffff16021790555067ffffffffffffffff167f4e673c0fa7786d8c4c1cba0d1678d726ef2cb772cc6abbe3cea73c1a6d9a681e846040516151449190616249565b60405180910390a35b50505b5050565b600060149054906101000a900460ff161515156151a6576040517f08c379a000000000000000000000000000000000000000000000000000000000815260040161519d906160bf565b60405180910390fd5b600060009054906101000a900473ffffffffffffffffffffffffffffffffffffffff1673ffffffffffffffffffffffffffffffffffffffff1663bf86d6906040518163ffffffff1660e01b815260040160206040518083038186803b15801561520f5760006000fd5b505afa158015615224573d600060003e3d6000fd5b505050506040513d601f19601f8201168201806040525081019061524891906156fa565b15151561528a576040517f08c379a000000000000000000000000000000000000000000000000000000000815260040161528190615e88565b60405180910390fd5b5b565b60008161529f57600a600050546152a6565b6009600050545b90506152b883826144a263ffffffff16565b9250825081156152ea576152da8360116000505461432a90919063ffffffff16565b601160005081909090555061530e565b6153028360126000505461432a90919063ffffffff16565b60126000508190909055505b60005b615324828561546e90919063ffffffff16565b905080506153388184614c0663ffffffff16565b808403935083505b600084111515615311575b50505b5050565b6000600060006000198587098587029250828110838203039150506000811415615395576000841115156153865760006000fd5b8382049250829250505061544c565b80841115156153a45760006000fd5b600084868809905082811182039150808303925060008586600003169050808604955080840493506001818260000304019050808302841793508350600060028760030218905080870260020381029050805080870260020381029050805080870260020381029050805080870260020381029050805080870260020381029050805080870260020381029050805080850295508550859550505050505061544c5650505050505b9392505050565b6000615466426155c3909063ffffffff16565b905080505b90565b600081831061547d578161547f565b825b9050615486565b92915050565b60008267ffffffffffffffff1682840191508167ffffffffffffffff1610151515615522576040517f08c379a000000000000000000000000000000000000000000000000000000000815260040180806020018281038252600c8152602001807f6164642d6f766572666c6f77000000000000000000000000000000000000000081526020015060200191505060405180910390fd5b5b92915050565b6000700100000000000000000000000000000000821015156155b6576040517f08c379a00000000000000000000000000000000000000000000000000000000081526004018080602001828103825260128152602001807f6d6f7265207468616e203132382062697473000000000000000000000000000081526020015060200191505060405180910390fd5b8190506155be565b919050565b60006801000000000000000082101515615648576040517f08c379a00000000000000000000000000000000000000000000000000000000081526004018080602001828103825260118152602001807f6d6f7265207468616e203634206269747300000000000000000000000000000081526020015060200191505060405180910390fd5b819050615650565b919050565b6040518060a0016040528060006fffffffffffffffffffffffffffffffff16815260200160006fffffffffffffffffffffffffffffffff168152602001600073ffffffffffffffffffffffffffffffffffffffff168152602001600065ffffffffffff168152602001600065ffffffffffff1681526020015090566162a3565b60008135905067ffffffffffffffff8116811415156156f45760006000fd5b5b919050565b60006020828403121561570b578081fd5b815161571681616265565b809150505b92915050565b600060208284031215615732578081fd5b81357fffffffff00000000000000000000000000000000000000000000000000000000811681141515615763578182fd5b809150505b92915050565b60006020828403121561577f578081fd5b815161578a8161627a565b809150505b92915050565b6000602082840312156157a6578081fd5b81516157b18161627a565b809150505b92915050565b6000602082840312156157cd578081fd5b81356157d88161627a565b809150505b92915050565b6000602082840312156157f4578081fd5b81516157ff8161627a565b809150505b92915050565b60006020828403121561581b578081fd5b81516158268161627a565b809150505b92915050565b600060208284031215615842578081fd5b815161584d8161627a565b809150505b92915050565b600060208284031215615869578081fd5b81516158748161627a565b809150505b92915050565b600060208284031215615890578081fd5b815161589b8161627a565b809150505b92915050565b6000602082840312156158b7578081fd5b813590505b92915050565b6000602082840312156158d3578081fd5b815190505b92915050565b60006000604083850312156158f1578081fd5b82359150602083013561590381616265565b809150505b9250929050565b6000600060408385031215615922578182fd5b82359150602083013590505b9250929050565b600060208284031215615946578081fd5b813563ffffffff81168114151561595b578182fd5b809150505b92915050565b600060208284031215615977578081fd5b615980826156d5565b90505b92915050565b600060006040838503121561599c578182fd5b6159a5836156d5565b915060208301356159b581616265565b809150505b9250929050565b60006000604083850312156159d4578182fd5b6159dd836156d5565b915060208301356fffffffffffffffffffffffffffffffff811681141515615a03578182fd5b809150505b9250929050565b6000815180845260208085019450808401835b83811015615a4657815115158752828701965082820191505b600181019050615a22565b505050508290505b92915050565b6000815180845260208085019450808401835b83811015615a895781518752828701965082820191505b600181019050615a67565b505050508290505b92915050565b60007f6d6178426174636853697a6500000000000000000000000000000000000000008252600c820190505b919050565b60007f657874656e73696f6e50657242696400000000000000000000000000000000008252600f820190505b919050565b60007f747761704475726174696f6e00000000000000000000000000000000000000008252600c820190505b919050565b60007f6d6178446566696369744c6f7453697a6500000000000000000000000000000082526011820190505b919050565b60007f6d617841756374696f6e4475726174696f6e000000000000000000000000000082526012820190505b919050565b60007f6d6178537572706c75734c6f7453697a6500000000000000000000000000000082526011820190505b919050565b60007f6d696e41756374696f6e4475726174696f6e000000000000000000000000000082526012820190505b919050565b60007f6d696e42696444656c74610000000000000000000000000000000000000000008252600b820190505b919050565b60007f6d696e4c6f7453697a65000000000000000000000000000000000000000000008252600a820190505b919050565b60007f72657365727665734275666665724c6f776572426f756e64000000000000000082526018820190505b919050565b60007f72657365727665734275666665725570706572426f756e64000000000000000082526018820190505b919050565b600060208201905073ffffffffffffffffffffffffffffffffffffffff831682525b92915050565b600060408201905073ffffffffffffffffffffffffffffffffffffffff841682526fffffffffffffffffffffffffffffffff831660208301525b9392505050565b600060408201905073ffffffffffffffffffffffffffffffffffffffff841682528260208301525b9392505050565b600060608083018184528087518083526080925082860191506020808a01865b83811015615ded5781516fffffffffffffffffffffffffffffffff8082511687528085830151168588015250604073ffffffffffffffffffffffffffffffffffffffff818301511681880152508781015165ffffffffffff8082168a8901528089840151168989015250505060a08501945082820191505b600181019050615d6a565b5050868303818801525050615e028188615a54565b925050508281036040840152615e188185615a0f565b9150505b949350505050565b600060208201905082151582525b92915050565b600060208201905073ffffffffffffffffffffffffffffffffffffffff831682525b92915050565b600060208201905073ffffffffffffffffffffffffffffffffffffffff831682525b92915050565b600060208252601160208301527f50726f746f636f6c2073687574646f776e00000000000000000000000000000060408301526060820190505b919050565b600060208252600b60208301527f42696420746f6f206c6f7700000000000000000000000000000000000000000060408301526060820190505b919050565b600060208252601460208301527f41756374696f6e206e6f7420636f6d706c65746500000000000000000000000060408301526060820190505b919050565b600060208252601160208301527f446964206e6f7420756e6465722062696400000000000000000000000000000060408301526060820190505b919050565b600060208252601360208301527f557365206c617465737420636f6e74726163740000000000000000000000000060408301526060820190505b919050565b600060208252600f60208301527f446964206e6f74206f757420626964000000000000000000000000000000000060408301526060820190505b919050565b600060208252600e60208301527f4e6f7420417574686f72697a656400000000000000000000000000000000000060408301526060820190505b919050565b600060208252600d60208301527f4c50205265656e7472616e63790000000000000000000000000000000000000060408301526060820190505b919050565b600060208252600c60208301527f42696420746f6f2068696768000000000000000000000000000000000000000060408301526060820190505b919050565b600060208252601360208301527f436f6e74726163742069732073746f707065640000000000000000000000000060408301526060820190505b919050565b600060208252601460208301527f4e6f2061756374696f6e7320746f20737461727400000000000000000000000060408301526060820190505b919050565b600060208252601060208301527f41756374696f6e206e6f74206c6976650000000000000000000000000000000060408301526060820190505b919050565b60006020820190506fffffffffffffffffffffffffffffffff831682525b92915050565b600060a0820190506fffffffffffffffffffffffffffffffff808816835280871660208401525073ffffffffffffffffffffffffffffffffffffffff8516604083015265ffffffffffff80851660608401528084166080840152505b9695505050505050565b60006020820190508282525b92915050565b60006040820190508382528260208301525b9392505050565b600060208201905063ffffffff831682525b92915050565b600060208201905067ffffffffffffffff831682525b92915050565b801515811415156162765760006000fd5b5b50565b73ffffffffffffffffffffffffffffffffffffffff81168114151561629f5760006000fd5b5b50565bfea2646970667358221220c95041b6b8767dc351daed166fe676821c1fc968fe9c57e425b41f02028da7a864736f6c63430007060033",
  "linkReferences": {},
  "deployedLinkReferences": {}
}