{
  "_format": "hh-sol-artifact-1",
  "contractName": "AuctionsTestable",
  "sourceName": "contracts/mocks/AuctionsTestable.sol",
  "abi": [
    {
      "anonymous": false,
      "inputs": [
        {
          "indexed": true,
          "internalType": "uint64",
          "name": "auctionID",
          "type": "uint64"
        },
        {
          "indexed": true,
          "internalType": "address",
          "name": "bidder",
          "type": "address"
        },
        {
          "indexed": false,
          "internalType": "uint256",
          "name": "bid",
          "type": "uint256"
        }
      ],
      "name": "DeficitAuctionBid",
      "type": "event"
    },
    {
      "anonymous": false,
      "inputs": [
        {
          "indexed": true,
          "internalType": "uint64",
          "name": "auctionID",
          "type": "uint64"
        },
        {
          "indexed": true,
          "internalType": "address",
          "name": "winner",
          "type": "address"
        }
      ],
      "name": "DeficitAuctionSettled",
      "type": "event"
    },
    {
      "anonymous": false,
      "inputs": [
        {
          "indexed": true,
          "internalType": "uint64",
          "name": "auctionID",
          "type": "uint64"
        },
        {
          "indexed": true,
          "internalType": "uint256",
          "name": "count",
          "type": "uint256"
        },
        {
          "indexed": false,
          "internalType": "uint64",
          "name": "maxEndTime",
          "type": "uint64"
        }
      ],
      "name": "DeficitAuctionStarted",
      "type": "event"
    },
    {
      "anonymous": false,
      "inputs": [
        {
          "indexed": true,
          "internalType": "address",
          "name": "governor",
          "type": "address"
        }
      ],
      "name": "Initialized",
      "type": "event"
    },
    {
      "anonymous": false,
      "inputs": [
        {
          "indexed": true,
          "internalType": "string",
          "name": "paramName",
          "type": "string"
        },
        {
          "indexed": false,
          "internalType": "uint256",
          "name": "value",
          "type": "uint256"
        }
      ],
      "name": "ParameterUpdated",
      "type": "event"
    },
    {
      "anonymous": false,
      "inputs": [
        {
          "indexed": true,
          "internalType": "string",
          "name": "paramName",
          "type": "string"
        },
        {
          "indexed": false,
          "internalType": "uint64",
          "name": "value",
          "type": "uint64"
        }
      ],
      "name": "ParameterUpdated64",
      "type": "event"
    },
    {
      "anonymous": false,
      "inputs": [],
      "name": "Stopped",
      "type": "event"
    },
    {
      "anonymous": false,
      "inputs": [
        {
          "indexed": true,
          "internalType": "uint64",
          "name": "auctionID",
          "type": "uint64"
        },
        {
          "indexed": true,
          "internalType": "address",
          "name": "bidder",
          "type": "address"
        },
        {
          "indexed": false,
          "internalType": "uint256",
          "name": "bid",
          "type": "uint256"
        }
      ],
      "name": "SurplusAuctionBid",
      "type": "event"
    },
    {
      "anonymous": false,
      "inputs": [
        {
          "indexed": true,
          "internalType": "uint64",
          "name": "auctionID",
          "type": "uint64"
        },
        {
          "indexed": true,
          "internalType": "address",
          "name": "winner",
          "type": "address"
        }
      ],
      "name": "SurplusAuctionSettled",
      "type": "event"
    },
    {
      "anonymous": false,
      "inputs": [
        {
          "indexed": true,
          "internalType": "uint64",
          "name": "auctionID",
          "type": "uint64"
        },
        {
          "indexed": true,
          "internalType": "uint256",
          "name": "count",
          "type": "uint256"
        },
        {
          "indexed": false,
          "internalType": "uint64",
          "name": "maxEndTime",
          "type": "uint64"
        }
      ],
      "name": "SurplusAuctionStarted",
      "type": "event"
    },
    {
      "inputs": [],
      "name": "CNP_COIN_VALUE_MULTIPLIER",
      "outputs": [
        {
          "internalType": "uint256",
          "name": "",
          "type": "uint256"
        }
      ],
      "stateMutability": "view",
      "type": "function"
    },
    {
      "inputs": [],
      "name": "COIN_CNP_VALUE_MULTIPLIER",
      "outputs": [
        {
          "internalType": "uint256",
          "name": "",
          "type": "uint256"
        }
      ],
      "stateMutability": "view",
      "type": "function"
    },
    {
      "inputs": [
        {
          "internalType": "uint256",
          "name": "coinCount",
          "type": "uint256"
        }
      ],
      "name": "approximateCNPEquivalent",
      "outputs": [
        {
          "internalType": "uint256",
          "name": "",
          "type": "uint256"
        }
      ],
      "stateMutability": "view",
      "type": "function"
    },
    {
      "inputs": [
        {
          "internalType": "uint256",
          "name": "amtIn",
          "type": "uint256"
        },
        {
          "internalType": "uint256",
          "name": "lotSize",
          "type": "uint256"
        }
      ],
      "name": "auctionSize",
      "outputs": [
        {
          "internalType": "uint256",
          "name": "size",
          "type": "uint256"
        }
      ],
      "stateMutability": "view",
      "type": "function"
    },
    {
      "inputs": [
        {
          "internalType": "uint64",
          "name": "auctionID",
          "type": "uint64"
        },
        {
          "internalType": "uint256",
          "name": "bid",
          "type": "uint256"
        }
      ],
      "name": "bidDeficitAuction",
      "outputs": [],
      "stateMutability": "nonpayable",
      "type": "function"
    },
    {
      "inputs": [
        {
          "internalType": "uint64",
          "name": "auctionID",
          "type": "uint64"
        },
        {
          "internalType": "uint256",
          "name": "bid",
          "type": "uint256"
        }
      ],
      "name": "bidSurplusAuction",
      "outputs": [],
      "stateMutability": "nonpayable",
      "type": "function"
    },
    {
      "inputs": [],
      "name": "checkReservesAndStartAuctions",
      "outputs": [],
      "stateMutability": "nonpayable",
      "type": "function"
    },
    {
      "inputs": [],
      "name": "cnp",
      "outputs": [
        {
          "internalType": "contract ICNP",
          "name": "",
          "type": "address"
        }
      ],
      "stateMutability": "view",
      "type": "function"
    },
    {
      "inputs": [],
      "name": "coinToBeBought",
      "outputs": [
        {
          "internalType": "uint256",
          "name": "",
          "type": "uint256"
        }
      ],
      "stateMutability": "view",
      "type": "function"
    },
    {
      "inputs": [],
      "name": "coinToBeSold",
      "outputs": [
        {
          "internalType": "uint256",
          "name": "",
          "type": "uint256"
        }
      ],
      "stateMutability": "view",
      "type": "function"
    },
    {
      "inputs": [
        {
          "internalType": "uint64",
          "name": "",
          "type": "uint64"
        }
      ],
      "name": "deficitAuction",
      "outputs": [
        {
          "internalType": "uint256",
          "name": "count",
          "type": "uint256"
        },
        {
          "internalType": "uint256",
          "name": "bid",
          "type": "uint256"
        },
        {
          "internalType": "address",
          "name": "bidder",
          "type": "address"
        },
        {
          "internalType": "uint64",
          "name": "endTime",
          "type": "uint64"
        },
        {
          "internalType": "uint64",
          "name": "maxEndTime",
          "type": "uint64"
        }
      ],
      "stateMutability": "view",
      "type": "function"
    },
    {
      "inputs": [
        {
          "internalType": "uint64",
          "name": "auctionID",
          "type": "uint64"
        }
      ],
      "name": "deficitAuctionComplete",
      "outputs": [
        {
          "internalType": "bool",
          "name": "",
          "type": "bool"
        }
      ],
      "stateMutability": "view",
      "type": "function"
    },
    {
      "inputs": [],
      "name": "deficitAuctionCount",
      "outputs": [
        {
          "internalType": "uint64",
          "name": "",
          "type": "uint64"
        }
      ],
      "stateMutability": "view",
      "type": "function"
    },
    {
      "inputs": [
        {
          "internalType": "uint64",
          "name": "auctionID",
          "type": "uint64"
        }
      ],
      "name": "deficitAuctionLive",
      "outputs": [
        {
          "internalType": "bool",
          "name": "",
          "type": "bool"
        }
      ],
      "stateMutability": "view",
      "type": "function"
    },
    {
      "inputs": [],
      "name": "deployer",
      "outputs": [
        {
          "internalType": "address",
          "name": "",
          "type": "address"
        }
      ],
      "stateMutability": "view",
      "type": "function"
    },
    {
      "inputs": [],
      "name": "extensionPerBid",
      "outputs": [
        {
          "internalType": "uint64",
          "name": "",
          "type": "uint64"
        }
      ],
      "stateMutability": "view",
      "type": "function"
    },
    {
      "inputs": [
        {
          "internalType": "uint64",
          "name": "start",
          "type": "uint64"
        },
        {
          "internalType": "bool",
          "name": "surplus",
          "type": "bool"
        }
      ],
      "name": "getAllAuctions",
      "outputs": [
        {
          "components": [
            {
              "internalType": "uint256",
              "name": "count",
              "type": "uint256"
            },
            {
              "internalType": "uint256",
              "name": "bid",
              "type": "uint256"
            },
            {
              "internalType": "address",
              "name": "bidder",
              "type": "address"
            },
            {
              "internalType": "uint64",
              "name": "endTime",
              "type": "uint64"
            },
            {
              "internalType": "uint64",
              "name": "maxEndTime",
              "type": "uint64"
            }
          ],
          "internalType": "struct IAuctions.Auction[]",
          "name": "_auctions",
          "type": "tuple[]"
        },
        {
          "internalType": "uint256[]",
          "name": "_auctionIDs",
          "type": "uint256[]"
        },
        {
          "internalType": "bool[]",
          "name": "_isComplete",
          "type": "bool[]"
        }
      ],
      "stateMutability": "view",
      "type": "function"
    },
    {
      "inputs": [],
      "name": "governor",
      "outputs": [
        {
          "internalType": "contract IGovernor",
          "name": "",
          "type": "address"
        }
      ],
      "stateMutability": "view",
      "type": "function"
    },
    {
      "inputs": [
        {
          "internalType": "contract IGovernor",
          "name": "_governor",
          "type": "address"
        }
      ],
      "name": "init",
      "outputs": [],
      "stateMutability": "nonpayable",
      "type": "function"
    },
    {
      "inputs": [],
      "name": "latestAuctionCompletionTime",
      "outputs": [
        {
          "internalType": "uint64",
          "name": "",
          "type": "uint64"
        }
      ],
      "stateMutability": "view",
      "type": "function"
    },
    {
      "inputs": [],
      "name": "maxAuctionDuration",
      "outputs": [
        {
          "internalType": "uint64",
          "name": "",
          "type": "uint64"
        }
      ],
      "stateMutability": "view",
      "type": "function"
    },
    {
      "inputs": [],
      "name": "maxBatchSize",
      "outputs": [
        {
          "internalType": "uint64",
          "name": "",
          "type": "uint64"
        }
      ],
      "stateMutability": "view",
      "type": "function"
    },
    {
      "inputs": [],
      "name": "maxDeficitLotSize",
      "outputs": [
        {
          "internalType": "uint256",
          "name": "",
          "type": "uint256"
        }
      ],
      "stateMutability": "view",
      "type": "function"
    },
    {
      "inputs": [],
      "name": "maxSurplusLotSize",
      "outputs": [
        {
          "internalType": "uint256",
          "name": "",
          "type": "uint256"
        }
      ],
      "stateMutability": "view",
      "type": "function"
    },
    {
      "inputs": [],
      "name": "minAuctionDuration",
      "outputs": [
        {
          "internalType": "uint64",
          "name": "",
          "type": "uint64"
        }
      ],
      "stateMutability": "view",
      "type": "function"
    },
    {
      "inputs": [],
      "name": "minBidDelta",
      "outputs": [
        {
          "internalType": "uint256",
          "name": "",
          "type": "uint256"
        }
      ],
      "stateMutability": "view",
      "type": "function"
    },
    {
      "inputs": [],
      "name": "minLotSize",
      "outputs": [
        {
          "internalType": "uint256",
          "name": "",
          "type": "uint256"
        }
      ],
      "stateMutability": "view",
      "type": "function"
    },
    {
      "inputs": [],
      "name": "reservesBufferLowerBound",
      "outputs": [
        {
          "internalType": "uint256",
          "name": "",
          "type": "uint256"
        }
      ],
      "stateMutability": "view",
      "type": "function"
    },
    {
      "inputs": [],
      "name": "reservesBufferUpperBound",
      "outputs": [
        {
          "internalType": "uint256",
          "name": "",
          "type": "uint256"
        }
      ],
      "stateMutability": "view",
      "type": "function"
    },
    {
      "inputs": [
        {
          "internalType": "uint64",
          "name": "extension",
          "type": "uint64"
        }
      ],
      "name": "setExtensionPerBid",
      "outputs": [],
      "stateMutability": "nonpayable",
      "type": "function"
    },
    {
      "inputs": [
        {
          "internalType": "uint64",
          "name": "duration",
          "type": "uint64"
        }
      ],
      "name": "setMaxAuctionDuration",
      "outputs": [],
      "stateMutability": "nonpayable",
      "type": "function"
    },
    {
      "inputs": [
        {
          "internalType": "uint64",
          "name": "size",
          "type": "uint64"
        }
      ],
      "name": "setMaxBatchSize",
      "outputs": [],
      "stateMutability": "nonpayable",
      "type": "function"
    },
    {
      "inputs": [
        {
          "internalType": "uint256",
          "name": "size",
          "type": "uint256"
        }
      ],
      "name": "setMaxDeficitLotSize",
      "outputs": [],
      "stateMutability": "nonpayable",
      "type": "function"
    },
    {
      "inputs": [
        {
          "internalType": "uint256",
          "name": "size",
          "type": "uint256"
        }
      ],
      "name": "setMaxSurplusLotSize",
      "outputs": [],
      "stateMutability": "nonpayable",
      "type": "function"
    },
    {
      "inputs": [
        {
          "internalType": "uint64",
          "name": "duration",
          "type": "uint64"
        }
      ],
      "name": "setMinAuctionDuration",
      "outputs": [],
      "stateMutability": "nonpayable",
      "type": "function"
    },
    {
      "inputs": [
        {
          "internalType": "uint256",
          "name": "delta",
          "type": "uint256"
        }
      ],
      "name": "setMinBidDelta",
      "outputs": [],
      "stateMutability": "nonpayable",
      "type": "function"
    },
    {
      "inputs": [
        {
          "internalType": "uint256",
          "name": "size",
          "type": "uint256"
        }
      ],
      "name": "setMinLotSize",
      "outputs": [],
      "stateMutability": "nonpayable",
      "type": "function"
    },
    {
      "inputs": [
        {
          "internalType": "uint256",
          "name": "bound",
          "type": "uint256"
        }
      ],
      "name": "setReservesBufferLowerBound",
      "outputs": [],
      "stateMutability": "nonpayable",
      "type": "function"
    },
    {
      "inputs": [
        {
          "internalType": "uint256",
          "name": "bound",
          "type": "uint256"
        }
      ],
      "name": "setReservesBufferUpperBound",
      "outputs": [],
      "stateMutability": "nonpayable",
      "type": "function"
    },
    {
      "inputs": [
        {
          "internalType": "uint64",
          "name": "auctionID",
          "type": "uint64"
        }
      ],
      "name": "settleDeficitAuction",
      "outputs": [],
      "stateMutability": "nonpayable",
      "type": "function"
    },
    {
      "inputs": [
        {
          "internalType": "uint64",
          "name": "auctionID",
          "type": "uint64"
        }
      ],
      "name": "settleSurplusAuction",
      "outputs": [],
      "stateMutability": "nonpayable",
      "type": "function"
    },
    {
      "inputs": [],
      "name": "shouldStartAuctions",
      "outputs": [
        {
          "internalType": "uint256",
          "name": "surplusAmount",
          "type": "uint256"
        },
        {
          "internalType": "uint256",
          "name": "deficitAmount",
          "type": "uint256"
        }
      ],
      "stateMutability": "view",
      "type": "function"
    },
    {
      "inputs": [
        {
          "internalType": "uint256",
          "name": "count",
          "type": "uint256"
        },
        {
          "internalType": "bool",
          "name": "isSurplus",
          "type": "bool"
        }
      ],
      "name": "startAuction",
      "outputs": [],
      "stateMutability": "nonpayable",
      "type": "function"
    },
    {
      "inputs": [
        {
          "internalType": "uint256",
          "name": "amt",
          "type": "uint256"
        },
        {
          "internalType": "bool",
          "name": "isSurplus",
          "type": "bool"
        }
      ],
      "name": "startAuctions",
      "outputs": [],
      "stateMutability": "nonpayable",
      "type": "function"
    },
    {
      "inputs": [],
      "name": "stop",
      "outputs": [],
      "stateMutability": "nonpayable",
      "type": "function"
    },
    {
      "inputs": [],
      "name": "stopped",
      "outputs": [
        {
          "internalType": "bool",
          "name": "",
          "type": "bool"
        }
      ],
      "stateMutability": "view",
      "type": "function"
    },
    {
      "inputs": [
        {
          "internalType": "uint64",
          "name": "",
          "type": "uint64"
        }
      ],
      "name": "surplusAuction",
      "outputs": [
        {
          "internalType": "uint256",
          "name": "count",
          "type": "uint256"
        },
        {
          "internalType": "uint256",
          "name": "bid",
          "type": "uint256"
        },
        {
          "internalType": "address",
          "name": "bidder",
          "type": "address"
        },
        {
          "internalType": "uint64",
          "name": "endTime",
          "type": "uint64"
        },
        {
          "internalType": "uint64",
          "name": "maxEndTime",
          "type": "uint64"
        }
      ],
      "stateMutability": "view",
      "type": "function"
    },
    {
      "inputs": [
        {
          "internalType": "uint64",
          "name": "auctionID",
          "type": "uint64"
        }
      ],
      "name": "surplusAuctionComplete",
      "outputs": [
        {
          "internalType": "bool",
          "name": "",
          "type": "bool"
        }
      ],
      "stateMutability": "view",
      "type": "function"
    },
    {
      "inputs": [],
      "name": "surplusAuctionCount",
      "outputs": [
        {
          "internalType": "uint64",
          "name": "",
          "type": "uint64"
        }
      ],
      "stateMutability": "view",
      "type": "function"
    },
    {
      "inputs": [
        {
          "internalType": "uint64",
          "name": "auctionID",
          "type": "uint64"
        }
      ],
      "name": "surplusAuctionLive",
      "outputs": [
        {
          "internalType": "bool",
          "name": "",
          "type": "bool"
        }
      ],
      "stateMutability": "view",
      "type": "function"
    },
    {
      "inputs": [
        {
          "internalType": "bytes4",
          "name": "",
          "type": "bytes4"
        }
      ],
      "name": "validUpdate",
      "outputs": [
        {
          "internalType": "bool",
          "name": "",
          "type": "bool"
        }
      ],
      "stateMutability": "view",
      "type": "function"
    }
  ],
  "bytecode": "0x608060405260016006600050909055670e4b4b8af6a70000600760005090905568878678326eac900000600860005090905569043c33c1937564800000600960005090905569043c33c1937564800000600a600050909055662386f26fc10000600b60005090905566b1a2bc2ec50000600c6000509090556005600d60006101000a81548167ffffffffffffffff021916908367ffffffffffffffff160217905550610708600d60086101000a81548167ffffffffffffffff021916908367ffffffffffffffff16021790555062015180600d60106101000a81548167ffffffffffffffff021916908367ffffffffffffffff1602179055506202a300600d60186101000a81548167ffffffffffffffff021916908367ffffffffffffffff1602179055503480156101315760006000fd5b505b33600160006101000a81548173ffffffffffffffffffffffffffffffffffffffff021916908373ffffffffffffffffffffffffffffffffffffffff1602179055505b61017a565b61539f806200018a6000396000f3fe60806040523480156100115760006000fd5b50600436106103465760003560e01c8063616cb0cf116101be578063a4f00883116100fa578063cdbd373b116100a3578063ddf31e671161007d578063ddf31e6714610945578063ee3528f014610961578063f50e2b0c1461097f578063faf95d2d1461099d57610346565b8063cdbd373b146108ef578063d005d2eb1461090b578063d5f394881461092757610346565b8063bfa5b286116100d4578063bfa5b28614610871578063c2b6722a146108a1578063caa98b60146108bf57610346565b8063a4f008831461082f578063a958c0331461084b578063afea44ef1461085557610346565b80637eb12af7116101675780639052537e116101415780639052537e146107a75780639210b35d146107c557806399eeec95146107f55780639d5318571461081357610346565b80637eb12af714610751578063887c67d91461076f5780638d56248a1461078b57610346565b806375d0ef521161019857806375d0ef52146106e557806375f12b21146107015780637d6953511461071f57610346565b8063616cb0cf14610675578063651cf64d1461069357806368c5f9c2146106c757610346565b806337ca44fc1161028d5780634a2304b11161023657806354cccf081161021057806354cccf08146105eb57806354f634fb14610609578063597e899f1461062757806360aad9bf1461065757610346565b80634a2304b1146105955780634ae8470d146105b157806354134876146105cd57610346565b806340601add1161026757806340601add146105175780634079b8fc1461054757806348c9581e1461057757610346565b806337ca44fc146104c15780633a3a63df146104dd5780633db966a6146104f957610346565b80631b875768116102ef5780632e748d55116102c95780632e748d55146104555780633427c4ef1461047157806334b14475146104a557610346565b80631b875768146103fa57806325df9538146104185780632913daa01461043757610346565b80630fe86907116103205780630fe8690714610390578063113cf1ab146103ae57806319ab453c146103de57610346565b806307da68f51461034c5780630c340a24146103565780630fb4e2b31461037457610346565b60006000fd5b6103546109bb565b005b61035e6109db565b60405161036b9190614f4f565b60405180910390f35b61038e60048036038101906103899190614a93565b610a01565b005b610398610a88565b6040516103a5919061526b565b60405180910390f35b6103c860048036038101906103c391906148cd565b610a91565b6040516103d59190614f13565b60405180910390f35b6103f860048036038101906103f391906149b6565b610ab6565b005b610402610e74565b60405161040f91906152e8565b60405180910390f35b610420610e8e565b60405161042e92919061527d565b60405180910390f35b61043f611274565b60405161044c91906152e8565b60405180910390f35b61046f600480360381019061046a9190614aee565b61128e565b005b61048b60048036038101906104869190614a93565b611736565b60405161049c959493929190615296565b60405180910390f35b6104bf60048036038101906104ba9190614a04565b6117bd565b005b6104db60048036038101906104d69190614a93565b61186e565b005b6104f760048036038101906104f29190614a04565b611944565b005b6105016119c7565b60405161050e919061526b565b60405180910390f35b610531600480360381019061052c9190614a93565b6119d0565b60405161053e9190614f13565b60405180910390f35b610561600480360381019061055c9190614a93565b611a35565b60405161056e9190614f13565b60405180910390f35b61057f611a9a565b60405161058c91906152e8565b60405180910390f35b6105af60048036038101906105aa9190614a93565b611ab4565b005b6105cb60048036038101906105c69190614a04565b611d8f565b005b6105d5611e2e565b6040516105e291906152e8565b60405180910390f35b6105f3611e48565b604051610600919061526b565b60405180910390f35b610611611e51565b60405161061e919061526b565b60405180910390f35b610641600480360381019061063c9190614a93565b611e5a565b60405161064e9190614f13565b60405180910390f35b61065f611ebe565b60405161066c919061526b565b60405180910390f35b61067d611ec7565b60405161068a919061526b565b60405180910390f35b6106ad60048036038101906106a89190614a93565b611ed0565b6040516106be959493929190615296565b60405180910390f35b6106cf611f57565b6040516106dc919061526b565b60405180910390f35b6106ff60048036038101906106fa9190614a93565b611f5d565b005b610709612033565b6040516107169190614f13565b60405180910390f35b61073960048036038101906107349190614ab6565b612046565b60405161074893929190614e4d565b60405180910390f35b610759612566565b60405161076691906152e8565b60405180910390f35b61078960048036038101906107849190614a04565b612580565b005b6107a560048036038101906107a09190614a04565b612603565b005b6107af612686565b6040516107bc919061526b565b60405180910390f35b6107df60048036038101906107da9190614a6d565b61268f565b6040516107ec919061526b565b60405180910390f35b6107fd6126ac565b60405161080a9190614f27565b60405180910390f35b61082d60048036038101906108289190614a3c565b6126d2565b005b61084960048036038101906108449190614aee565b6126e7565b005b610853612b37565b005b61086f600480360381019061086a9190614a93565b612bf8565b005b61088b60048036038101906108869190614a04565b612caf565b604051610898919061526b565b60405180910390f35b6108a9612e14565b6040516108b691906152e8565b60405180910390f35b6108d960048036038101906108d49190614a93565b612e2e565b6040516108e69190614f13565b60405180910390f35b61090960048036038101906109049190614a3c565b612e92565b005b61092560048036038101906109209190614a93565b612ea7565b005b61092f61316a565b60405161093c9190614d8d565b60405180910390f35b61095f600480360381019061095a9190614a04565b613190565b005b610969613216565b604051610976919061526b565b60405180910390f35b61098761321f565b604051610994919061526b565b60405180910390f35b6109a5613224565b6040516109b291906152e8565b60405180910390f35b6109c961323e63ffffffff16565b6109d76132d363ffffffff16565b5b5b565b600060009054906101000a900473ffffffffffffffffffffffffffffffffffffffff1681565b610a0f61323e63ffffffff16565b80600d60086101000a81548167ffffffffffffffff021916908367ffffffffffffffff160217905550604051610a4490614bd4565b60405180910390207f6293347933ad2997134e224ac8cd2e39908a4a22aeed9af52127b4bbf765297882604051610a7b91906152e8565b60405180910390a25b5b50565b600a6000505481565b600560005060205280600052604060002060009150909054906101000a900460ff1681565b600160009054906101000a900473ffffffffffffffffffffffffffffffffffffffff1673ffffffffffffffffffffffffffffffffffffffff163373ffffffffffffffffffffffffffffffffffffffff16141515610b135760006000fd5b600160006101000a81549073ffffffffffffffffffffffffffffffffffffffff021916905580600060006101000a81548173ffffffffffffffffffffffffffffffffffffffff021916908373ffffffffffffffffffffffffffffffffffffffff160217905550600060009054906101000a900473ffffffffffffffffffffffffffffffffffffffff1673ffffffffffffffffffffffffffffffffffffffff16639624e83e6040518163ffffffff1660e01b815260040160206040518083038186803b158015610be25760006000fd5b505afa158015610bf7573d600060003e3d6000fd5b505050506040513d601f19601f82011682018060405250810190610c1b919061491a565b600260006101000a81548173ffffffffffffffffffffffffffffffffffffffff021916908373ffffffffffffffffffffffffffffffffffffffff160217905550600060009054906101000a900473ffffffffffffffffffffffffffffffffffffffff1673ffffffffffffffffffffffffffffffffffffffff166311df99956040518163ffffffff1660e01b815260040160206040518083038186803b158015610cc45760006000fd5b505afa158015610cd9573d600060003e3d6000fd5b505050506040513d601f19601f82011682018060405250810190610cfd919061498f565b600360006101000a81548173ffffffffffffffffffffffffffffffffffffffff021916908373ffffffffffffffffffffffffffffffffffffffff160217905550600060009054906101000a900473ffffffffffffffffffffffffffffffffffffffff1673ffffffffffffffffffffffffffffffffffffffff1663d478b0876040518163ffffffff1660e01b815260040160206040518083038186803b158015610da65760006000fd5b505afa158015610dbb573d600060003e3d6000fd5b505050506040513d601f19601f82011682018060405250810190610ddf91906149dd565b600460006101000a81548173ffffffffffffffffffffffffffffffffffffffff021916908373ffffffffffffffffffffffffffffffffffffffff160217905550610e2d61331d63ffffffff16565b8073ffffffffffffffffffffffffffffffffffffffff167f908408e307fc569b417f6cbec5d5a06f44a0a505ac0479b47d421a4b2fd6a1e660405160405180910390a25b50565b601060109054906101000a900467ffffffffffffffff1681565b600060003073ffffffffffffffffffffffffffffffffffffffff16600060009054906101000a900473ffffffffffffffffffffffffffffffffffffffff1673ffffffffffffffffffffffffffffffffffffffff166385aa61036040518163ffffffff1660e01b815260040160206040518083038186803b158015610f125760006000fd5b505afa158015610f27573d600060003e3d6000fd5b505050506040513d601f19601f82011682018060405250810190610f4b9190614941565b73ffffffffffffffffffffffffffffffffffffffff16141515610fa3576040517f08c379a0000000000000000000000000000000000000000000000000000000008152600401610f9a906151ae565b60405180910390fd5b6000600360009054906101000a900473ffffffffffffffffffffffffffffffffffffffff1673ffffffffffffffffffffffffffffffffffffffff166375172a8b6040518163ffffffff1660e01b815260040160206040518083038186803b15801561100e5760006000fd5b505afa158015611023573d600060003e3d6000fd5b505050506040513d601f19601f820116820180604052508101906110479190614a20565b90506000600260009054906101000a900473ffffffffffffffffffffffffffffffffffffffff1673ffffffffffffffffffffffffffffffffffffffff16630dca59c16040518163ffffffff1660e01b815260040160206040518083038186803b1580156110b45760006000fd5b505afa1580156110c9573d600060003e3d6000fd5b505050506040513d601f19601f820116820180604052508101906110ed9190614a20565b90506000611109600c60005054836137a890919063ffffffff16565b90506000611125600b60005054846137a890919063ffffffff16565b90506000600a61113e83856137ce90919063ffffffff16565b81151561114757fe5b0490506111936040518060400160405280601381526020017f73686f756c64537461727441756374696f6e7300000000000000000000000000815260200150868661385763ffffffff16565b6111dd6040518060400160405280601381526020017f73686f756c64537461727441756374696f6e730000000000000000000000000081526020015084848461396f63ffffffff16565b826111f6601160005054876137ce90919063ffffffff16565b11156112255780836011600050548703030196508650600860005054871015611220576000965086505b61126a565b8161123e60126000505487613a9090919063ffffffff16565b10156112695780601260005054860183030195508550600860005054861015611268576000955085505b5b5b50505050505b9091565b600d60009054906101000a900467ffffffffffffffff1681565b61129c613b1963ffffffff16565b6112aa613bf863ffffffff16565b6112b982611a3563ffffffff16565b15156112fa576040517f08c379a00000000000000000000000000000000000000000000000000000000081526004016112f19061522c565b60405180910390fd5b6000600e60005060008467ffffffffffffffff1667ffffffffffffffff168152602001908152602001600020600050905060008160020160009054906101000a900473ffffffffffffffffffffffffffffffffffffffff16905060008260010160005054905060006000600073ffffffffffffffffffffffffffffffffffffffff168473ffffffffffffffffffffffffffffffffffffffff161415611409576103e86113b28660000160005054612caf63ffffffff16565b8115156113bb57fe5b04861115156113ff576040517f08c379a00000000000000000000000000000000000000000000000000000000081526004016113f690614fb6565b60405180910390fd5b8591508150611482565b611421600760005054846137a890919063ffffffff16565b8610151515611465576040517f08c379a000000000000000000000000000000000000000000000000000000000815260040161145c90615034565b60405180910390fd5b829050805061147d83876137ce90919063ffffffff16565b915081505b338560020160006101000a81548173ffffffffffffffffffffffffffffffffffffffff021916908373ffffffffffffffffffffffffffffffffffffffff160217905550858560010160005081909090555060006114fa600d60089054906101000a900467ffffffffffffffff16613c4d63ffffffff16565b90508067ffffffffffffffff168660020160149054906101000a900467ffffffffffffffff1667ffffffffffffffff16101561155c57808660020160146101000a81548167ffffffffffffffff021916908367ffffffffffffffff1602179055505b600082111561162557601360009054906101000a900473ffffffffffffffffffffffffffffffffffffffff1673ffffffffffffffffffffffffffffffffffffffff166323b872dd3387856040518463ffffffff1660e01b81526004016115c493929190614db5565b602060405180830381600087803b1580156115df5760006000fd5b505af11580156115f4573d600060003e3d6000fd5b505050506040513d601f19601f8201168201806040525081019061161891906148a6565b15156116245760006000fd5b5b60008311151561163157fe5b601360009054906101000a900473ffffffffffffffffffffffffffffffffffffffff1673ffffffffffffffffffffffffffffffffffffffff166379cc679033856040518363ffffffff1660e01b815260040161168e929190614def565b600060405180830381600087803b1580156116a95760006000fd5b505af11580156116be573d600060003e3d6000fd5b505050503373ffffffffffffffffffffffffffffffffffffffff168867ffffffffffffffff167fd428196c29fb7877242c66ff296d926b10a5051d369acf8fe5eb3ea21bb6ec9889604051611713919061526b565b60405180910390a35050505050505b5b611731613c8363ffffffff16565b5b5050565b600e6000506020528060005260406000206000915090508060000160005054908060010160005054908060020160009054906101000a900473ffffffffffffffffffffffffffffffffffffffff16908060020160149054906101000a900467ffffffffffffffff16908060030160009054906101000a900467ffffffffffffffff16905085565b6117cb61323e63ffffffff16565b80600860005081909090555060086000505460001015156117ec5760006000fd5b6009600050546008600050541015156118055760006000fd5b600a6000505460086000505410151561181e5760006000fd5b60405161182a90614cfa565b60405180910390207f3a64504f0bc0c335e2aecb78638a257e0351a3fe0370861fd54ee4190b92093382604051611861919061526b565b60405180910390a25b5b50565b61187c61323e63ffffffff16565b80600d60186101000a81548167ffffffffffffffff021916908367ffffffffffffffff160217905550600d60189054906101000a900467ffffffffffffffff1667ffffffffffffffff16600d60109054906101000a900467ffffffffffffffff1667ffffffffffffffff161015156118f45760006000fd5b60405161190090614c36565b60405180910390207f6293347933ad2997134e224ac8cd2e39908a4a22aeed9af52127b4bbf76529788260405161193791906152e8565b60405180910390a25b5b50565b61195261323e63ffffffff16565b80600a600050819090905550600a600050546008600050541015156119775760006000fd5b60405161198390614c05565b60405180910390207f3a64504f0bc0c335e2aecb78638a257e0351a3fe0370861fd54ee4190b920933826040516119ba919061526b565b60405180910390a25b5b50565b60126000505481565b60006119e182613d1763ffffffff16565b6119ec576000611a29565b611a27600f60005060008467ffffffffffffffff1667ffffffffffffffff168152602001908152602001600020600050613d5c63ffffffff16565b155b9050611a30565b919050565b6000611a4682613de363ffffffff16565b611a51576000611a8e565b611a8c600e60005060008467ffffffffffffffff1667ffffffffffffffff168152602001908152602001600020600050613d5c63ffffffff16565b155b9050611a95565b919050565b600d60189054906101000a900467ffffffffffffffff1681565b611ac2613b1963ffffffff16565b611ad0613bf863ffffffff16565b611adf81611e5a63ffffffff16565b1515611b20576040517f08c379a0000000000000000000000000000000000000000000000000000000008152600401611b17906150f1565b60405180910390fd5b6000600f60005060008367ffffffffffffffff1667ffffffffffffffff168152602001908152602001600020600050905060008160020160009054906101000a900473ffffffffffffffffffffffffffffffffffffffff169050600082600101600050549050600073ffffffffffffffffffffffffffffffffffffffff168273ffffffffffffffffffffffffffffffffffffffff1614158015611bc35750600081115b15611c5e57600060009054906101000a900473ffffffffffffffffffffffffffffffffffffffff1673ffffffffffffffffffffffffffffffffffffffff1663a99acb1783836040518363ffffffff1660e01b8152600401611c25929190614e1e565b600060405180830381600087803b158015611c405760006000fd5b505af1158015611c55573d600060003e3d6000fd5b50505050611c89565b611c7d83600001600050546012600050546137ce90919063ffffffff16565b60126000508190909055505b600f60005060008567ffffffffffffffff1667ffffffffffffffff1681526020019081526020016000206000600082016000506000905560018201600050600090556002820160006101000a81549073ffffffffffffffffffffffffffffffffffffffff02191690556002820160146101000a81549067ffffffffffffffff02191690556003820160006101000a81549067ffffffffffffffff021916905550508173ffffffffffffffffffffffffffffffffffffffff168467ffffffffffffffff167fd1b34ce351dc1a4cb6c40bb878ba19a12c4c44d35e7bdbeca7b5ebe947da312f60405160405180910390a35050505b5b611d8b613c8363ffffffff16565b5b50565b611d9d61323e63ffffffff16565b80600c600050819090905550600c60005054600b60005054101515611dc25760006000fd5b670de0b6b3a7640000600c60005054101515611dde5760006000fd5b604051611dea90614d5c565b60405180910390207f3a64504f0bc0c335e2aecb78638a257e0351a3fe0370861fd54ee4190b92093382604051611e21919061526b565b60405180910390a25b5b50565b600d60109054906101000a900467ffffffffffffffff1681565b600c6000505481565b60076000505481565b6000611e6b82613d1763ffffffff16565b611e76576000611eb2565b611eb1600f60005060008467ffffffffffffffff1667ffffffffffffffff168152602001908152602001600020600050613d5c63ffffffff16565b5b9050611eb9565b919050565b60096000505481565b600b6000505481565b600f6000506020528060005260406000206000915090508060000160005054908060010160005054908060020160009054906101000a900473ffffffffffffffffffffffffffffffffffffffff16908060020160149054906101000a900467ffffffffffffffff16908060030160009054906101000a900467ffffffffffffffff16905085565b6103e881565b611f6b61323e63ffffffff16565b80600d60106101000a81548167ffffffffffffffff021916908367ffffffffffffffff160217905550600d60189054906101000a900467ffffffffffffffff1667ffffffffffffffff16600d60109054906101000a900467ffffffffffffffff1667ffffffffffffffff16101515611fe35760006000fd5b604051611fef90614c98565b60405180910390207f6293347933ad2997134e224ac8cd2e39908a4a22aeed9af52127b4bbf76529788260405161202691906152e8565b60405180910390a25b5b50565b600060149054906101000a900460ff1681565b60606060606060008461206f57601060089054906101000a900467ffffffffffffffff16612087565b601060009054906101000a900467ffffffffffffffff165b67ffffffffffffffff169050600060008790505b828167ffffffffffffffff1610156120f257866120c6576120c181613d1763ffffffff16565b6120d6565b6120d581613de363ffffffff16565b5b156120e45781806001019250505b5b808060010191505061209b565b508067ffffffffffffffff8111801561210b5760006000fd5b5060405190808252806020026020018201604052801561214557816020015b612132614821565b81526020019060019003908161212a5790505b50945084508067ffffffffffffffff811180156121625760006000fd5b506040519080825280602002602001820160405280156121915781602001602082028036833780820191505090505b50935083508067ffffffffffffffff811180156121ae5760006000fd5b506040519080825280602002602001820160405280156121dd5781602001602082028036833780820191505090505b5092508250600060008890505b838167ffffffffffffffff16101561255a5787156123a55761221181613de363ffffffff16565b151561221c5761254d565b600e60005060008267ffffffffffffffff1667ffffffffffffffff1681526020019081526020016000206000506040518060a001604052908160008201600050548152602001600182016000505481526020016002820160009054906101000a900473ffffffffffffffffffffffffffffffffffffffff1673ffffffffffffffffffffffffffffffffffffffff1673ffffffffffffffffffffffffffffffffffffffff1681526020016002820160149054906101000a900467ffffffffffffffff1667ffffffffffffffff1667ffffffffffffffff1681526020016003820160009054906101000a900467ffffffffffffffff1667ffffffffffffffff1667ffffffffffffffff1681526020015050878381518110151561233957fe5b60200260200101819052508067ffffffffffffffff16868381518110151561235d57fe5b602002602001019090818152602001505061237d81612e2e63ffffffff16565b858381518110151561238b57fe5b602002602001019015159081151581526020015050612544565b6123b481613d1763ffffffff16565b15156123bf5761254d565b600f60005060008267ffffffffffffffff1667ffffffffffffffff1681526020019081526020016000206000506040518060a001604052908160008201600050548152602001600182016000505481526020016002820160009054906101000a900473ffffffffffffffffffffffffffffffffffffffff1673ffffffffffffffffffffffffffffffffffffffff1673ffffffffffffffffffffffffffffffffffffffff1681526020016002820160149054906101000a900467ffffffffffffffff1667ffffffffffffffff1667ffffffffffffffff1681526020016003820160009054906101000a900467ffffffffffffffff1667ffffffffffffffff1667ffffffffffffffff168152602001505087838151811015156124dc57fe5b60200260200101819052508067ffffffffffffffff16868381518110151561250057fe5b602002602001019090818152602001505061252081611e5a63ffffffff16565b858381518110151561252e57fe5b6020026020010190151590811515815260200150505b81806001019250505b80806001019150506121ea565b505050505b9250925092565b601060089054906101000a900467ffffffffffffffff1681565b61258e61323e63ffffffff16565b80600b600050819090905550600c60005054600b600050541015156125b35760006000fd5b6040516125bf90614d2b565b60405180910390207f3a64504f0bc0c335e2aecb78638a257e0351a3fe0370861fd54ee4190b920933826040516125f6919061526b565b60405180910390a25b5b50565b61261161323e63ffffffff16565b8060096000508190909055506009600050546008600050541015156126365760006000fd5b60405161264290614c67565b60405180910390207f3a64504f0bc0c335e2aecb78638a257e0351a3fe0370861fd54ee4190b92093382604051612679919061526b565b60405180910390a25b5b50565b60086000505481565b60006126a18383613e2863ffffffff16565b905080505b92915050565b601360009054906101000a900473ffffffffffffffffffffffffffffffffffffffff1681565b6126e28282613eb163ffffffff16565b5b5050565b6126f5613b1963ffffffff16565b612703613bf863ffffffff16565b612712826119d063ffffffff16565b1515612753576040517f08c379a000000000000000000000000000000000000000000000000000000000815260040161274a9061522c565b60405180910390fd5b6000600f60005060008467ffffffffffffffff1667ffffffffffffffff16815260200190815260200160002060005090506000600082600001600050549050600073ffffffffffffffffffffffffffffffffffffffff168360020160009054906101000a900473ffffffffffffffffffffffffffffffffffffffff1673ffffffffffffffffffffffffffffffffffffffff16141561289f5761280d60646127ff83612caf63ffffffff16565b6142eb90919063ffffffff16565b84101515612850576040517f08c379a000000000000000000000000000000000000000000000000000000000815260040161284790615130565b60405180910390fd5b612868816012600050546137ce90919063ffffffff16565b6012600050819090905550600360009054906101000a900473ffffffffffffffffffffffffffffffffffffffff169150815061292c565b6128be600760005054846001016000505461438990919063ffffffff16565b8411151515612902576040517f08c379a00000000000000000000000000000000000000000000000000000000081526004016128f990614ff5565b60405180910390fd5b8260020160009054906101000a900473ffffffffffffffffffffffffffffffffffffffff16915081505b338360020160006101000a81548173ffffffffffffffffffffffffffffffffffffffff021916908373ffffffffffffffffffffffffffffffffffffffff160217905550838360010160005081909090555060006129a4600d60089054906101000a900467ffffffffffffffff16613c4d63ffffffff16565b90508067ffffffffffffffff168460020160149054906101000a900467ffffffffffffffff1667ffffffffffffffff161015612a0657808460020160146101000a81548167ffffffffffffffff021916908367ffffffffffffffff1602179055505b600360009054906101000a900473ffffffffffffffffffffffffffffffffffffffff1673ffffffffffffffffffffffffffffffffffffffff166323b872dd3385856040518463ffffffff1660e01b8152600401612a6593929190614db5565b602060405180830381600087803b158015612a805760006000fd5b505af1158015612a95573d600060003e3d6000fd5b505050506040513d601f19601f82011682018060405250810190612ab991906148a6565b1515612ac55760006000fd5b3373ffffffffffffffffffffffffffffffffffffffff168667ffffffffffffffff167f3e40664282966c0a42567d60514e22e8d06206cbcaa7d79f53dc8fcd8c72424687604051612b16919061526b565b60405180910390a3505050505b5b612b32613c8363ffffffff16565b5b5050565b612b45613b1963ffffffff16565b612b536143af63ffffffff16565b60006000612b65610e8e63ffffffff16565b915091506000821115612b8857612b838260016144e863ffffffff16565b612be3565b6000811115612ba757612ba28160006144e863ffffffff16565b612be2565b6040517f08c379a0000000000000000000000000000000000000000000000000000000008152600401612bd9906151ed565b60405180910390fd5b5b50505b5b612bf5613c8363ffffffff16565b5b565b612c0661323e63ffffffff16565b80600d60006101000a81548167ffffffffffffffff021916908367ffffffffffffffff1602179055506000600d60009054906101000a900467ffffffffffffffff1667ffffffffffffffff16111515612c5f5760006000fd5b604051612c6b90614ba3565b60405180910390207f6293347933ad2997134e224ac8cd2e39908a4a22aeed9af52127b4bbf765297882604051612ca291906152e8565b60405180910390a25b5b50565b6000612e08600060009054906101000a900473ffffffffffffffffffffffffffffffffffffffff1673ffffffffffffffffffffffffffffffffffffffff1663875b1fa06040518163ffffffff1660e01b815260040160206040518083038186803b158015612d1d5760006000fd5b505afa158015612d32573d600060003e3d6000fd5b505050506040513d601f19601f82011682018060405250810190612d569190614a20565b600360009054906101000a900473ffffffffffffffffffffffffffffffffffffffff1673ffffffffffffffffffffffffffffffffffffffff166318160ddd6040518163ffffffff1660e01b815260040160206040518083038186803b158015612dbf5760006000fd5b505afa158015612dd4573d600060003e3d6000fd5b505050506040513d601f19601f82011682018060405250810190612df89190614a20565b846145ad9092919063ffffffff16565b9050612e0f565b919050565b601060009054906101000a900467ffffffffffffffff1681565b6000612e3f82613de363ffffffff16565b612e4a576000612e86565b612e85600e60005060008467ffffffffffffffff1667ffffffffffffffff168152602001908152602001600020600050613d5c63ffffffff16565b5b9050612e8d565b919050565b612ea282826144e863ffffffff16565b5b5050565b612eb5613b1963ffffffff16565b612ec3613bf863ffffffff16565b612ed281612e2e63ffffffff16565b1515612f13576040517f08c379a0000000000000000000000000000000000000000000000000000000008152600401612f0a906150f1565b60405180910390fd5b6000600e60005060008367ffffffffffffffff1667ffffffffffffffff168152602001908152602001600020600050905060008160000160005054905060008260020160009054906101000a900473ffffffffffffffffffffffffffffffffffffffff169050612f91826011600050546137ce90919063ffffffff16565b6011600050819090905550600073ffffffffffffffffffffffffffffffffffffffff168173ffffffffffffffffffffffffffffffffffffffff1614151561306457600360009054906101000a900473ffffffffffffffffffffffffffffffffffffffff1673ffffffffffffffffffffffffffffffffffffffff166316f9428f82846040518363ffffffff1660e01b815260040161302f929190614e1e565b600060405180830381600087803b15801561304a5760006000fd5b505af115801561305f573d600060003e3d6000fd5b505050505b600e60005060008567ffffffffffffffff1667ffffffffffffffff1681526020019081526020016000206000600082016000506000905560018201600050600090556002820160006101000a81549073ffffffffffffffffffffffffffffffffffffffff02191690556002820160146101000a81549067ffffffffffffffff02191690556003820160006101000a81549067ffffffffffffffff021916905550508073ffffffffffffffffffffffffffffffffffffffff168467ffffffffffffffff167f596e5ff4197d4a01b2406d4c0717653cbc9166cf6ab2bdf78272eb99d191a09360405160405180910390a35050505b5b613166613c8363ffffffff16565b5b50565b600160009054906101000a900473ffffffffffffffffffffffffffffffffffffffff1681565b61319e61323e63ffffffff16565b806007600050819090905550670de0b6b3a76400006007600050541115156131c65760006000fd5b6040516131d290614cc9565b60405180910390207f3a64504f0bc0c335e2aecb78638a257e0351a3fe0370861fd54ee4190b92093382604051613209919061526b565b60405180910390a25b5b50565b60116000505481565b606481565b600d60089054906101000a900467ffffffffffffffff1681565b600060009054906101000a900473ffffffffffffffffffffffffffffffffffffffff1673ffffffffffffffffffffffffffffffffffffffff163373ffffffffffffffffffffffffffffffffffffffff161415156132d0576040517f08c379a00000000000000000000000000000000000000000000000000000000081526004016132c790615073565b60405180910390fd5b5b565b6001600060146101000a81548160ff0219169083151502179055507f7acc84e34091ae817647a4c49116f5cc07f319078ba80f8f5fde37ea7e25cbd660405160405180910390a15b565b600060009054906101000a900473ffffffffffffffffffffffffffffffffffffffff1673ffffffffffffffffffffffffffffffffffffffff166399eeec956040518163ffffffff1660e01b815260040160206040518083038186803b1580156133865760006000fd5b505afa15801561339b573d600060003e3d6000fd5b505050506040513d601f19601f820116820180604052508101906133bf9190614968565b601360006101000a81548173ffffffffffffffffffffffffffffffffffffffff021916908373ffffffffffffffffffffffffffffffffffffffff160217905550600060405180610140016040528063ddf31e6760e01b7bffffffffffffffffffffffffffffffffffffffffffffffffffffffff19167bffffffffffffffffffffffffffffffffffffffffffffffffffffffff191681526020016334b1447560e01b7bffffffffffffffffffffffffffffffffffffffffffffffffffffffff19167bffffffffffffffffffffffffffffffffffffffffffffffffffffffff19168152602001638d56248a60e01b7bffffffffffffffffffffffffffffffffffffffffffffffffffffffff19167bffffffffffffffffffffffffffffffffffffffffffffffffffffffff19168152602001633a3a63df60e01b7bffffffffffffffffffffffffffffffffffffffffffffffffffffffff19167bffffffffffffffffffffffffffffffffffffffffffffffffffffffff1916815260200163887c67d960e01b7bffffffffffffffffffffffffffffffffffffffffffffffffffffffff19167bffffffffffffffffffffffffffffffffffffffffffffffffffffffff19168152602001634ae8470d60e01b7bffffffffffffffffffffffffffffffffffffffffffffffffffffffff19167bffffffffffffffffffffffffffffffffffffffffffffffffffffffff1916815260200163afea44ef60e01b7bffffffffffffffffffffffffffffffffffffffffffffffffffffffff19167bffffffffffffffffffffffffffffffffffffffffffffffffffffffff19168152602001630fb4e2b360e01b7bffffffffffffffffffffffffffffffffffffffffffffffffffffffff19167bffffffffffffffffffffffffffffffffffffffffffffffffffffffff191681526020016375d0ef5260e01b7bffffffffffffffffffffffffffffffffffffffffffffffffffffffff19167bffffffffffffffffffffffffffffffffffffffffffffffffffffffff191681526020016337ca44fc60e01b7bffffffffffffffffffffffffffffffffffffffffffffffffffffffff19167bffffffffffffffffffffffffffffffffffffffffffffffffffffffff1916815260200150905060008150600a90506000600090505b818110156137a2576001600560005060008584600a8110151561372c57fe5b60200201517bffffffffffffffffffffffffffffffffffffffffffffffffffffffff19167bffffffffffffffffffffffffffffffffffffffffffffffffffffffff1916815260200190815260200160002060006101000a81548160ff0219169083151502179055505b808060010191505061370d565b5050505b565b60006137c38383670de0b6b3a76400006145ad63ffffffff16565b905080505b92915050565b60008282840391508111151515613850576040517f08c379a000000000000000000000000000000000000000000000000000000000815260040180806020018281038252600d8152602001807f7375622d756e646572666c6f770000000000000000000000000000000000000081526020015060200191505060405180910390fd5b5b92915050565b6139698383836040516024018080602001848152602001838152602001828103825285818151815260200191508051906020019080838360005b838110156138ad5780820151818401525b602081019050613891565b50505050905090810190601f1680156138da5780820380516001836020036101000a031916815260200191505b509450505050506040516020818303038152906040527f969cdd03000000000000000000000000000000000000000000000000000000007bffffffffffffffffffffffffffffffffffffffffffffffffffffffff19166020820180517bffffffffffffffffffffffffffffffffffffffffffffffffffffffff83818316178352505050506146ae63ffffffff16565b5b505050565b613a89848484846040516024018080602001858152602001848152602001838152602001828103825286818151815260200191508051906020019080838360005b838110156139cc5780820151818401525b6020810190506139b0565b50505050905090810190601f1680156139f95780820380516001836020036101000a031916815260200191505b50955050505050506040516020818303038152906040527f08ee5666000000000000000000000000000000000000000000000000000000007bffffffffffffffffffffffffffffffffffffffffffffffffffffffff19166020820180517bffffffffffffffffffffffffffffffffffffffffffffffffffffffff83818316178352505050506146ae63ffffffff16565b5b50505050565b60008282840191508110151515613b12576040517f08c379a000000000000000000000000000000000000000000000000000000000815260040180806020018281038252600c8152602001807f6164642d6f766572666c6f77000000000000000000000000000000000000000081526020015060200191505060405180910390fd5b5b92915050565b600460009054906101000a900473ffffffffffffffffffffffffffffffffffffffff1673ffffffffffffffffffffffffffffffffffffffff1663e97dcb626040518163ffffffff1660e01b8152600401600060405180830381600087803b158015613b845760006000fd5b505af1158015613b99573d600060003e3d6000fd5b50505050600260066000505414151515613be8576040517f08c379a0000000000000000000000000000000000000000000000000000000008152600401613bdf906150b2565b60405180910390fd5b600260066000508190909055505b565b600060149054906101000a900460ff16151515613c4a576040517f08c379a0000000000000000000000000000000000000000000000000000000008152600401613c419061516f565b60405180910390fd5b5b565b6000613c7982613c616146d963ffffffff16565b67ffffffffffffffff166146f490919063ffffffff16565b905080505b919050565b60016006600050819090905550600460009054906101000a900473ffffffffffffffffffffffffffffffffffffffff1673ffffffffffffffffffffffffffffffffffffffff1663e9fad8ee6040518163ffffffff1660e01b8152600401600060405180830381600087803b158015613cfb5760006000fd5b505af1158015613d10573d600060003e3d6000fd5b505050505b565b60006000600f60005060008467ffffffffffffffff1667ffffffffffffffff16815260200190815260200160002060005060000160005054119050613d57565b919050565b60006000613d6e6146d963ffffffff16565b90508067ffffffffffffffff168360020160149054906101000a900467ffffffffffffffff1667ffffffffffffffff161080613dd557508067ffffffffffffffff168360030160009054906101000a900467ffffffffffffffff1667ffffffffffffffff16105b915050613dde56505b919050565b60006000600e60005060008467ffffffffffffffff1667ffffffffffffffff16815260200190815260200160002060005060000160005054119050613e23565b919050565b60006000613e5f600d60009054906101000a900467ffffffffffffffff1667ffffffffffffffff16846142eb90919063ffffffff16565b905060008385811515613e6e57fe5b06905060006008600050548210613e855785613e89565b8186035b9050613e9e818461479190919063ffffffff16565b9350505050613eab565050505b92915050565b6000613ed8600d60189054906101000a900467ffffffffffffffff16613c4d63ffffffff16565b90508067ffffffffffffffff16601060109054906101000a900467ffffffffffffffff1667ffffffffffffffff161015613f365780601060106101000a81548167ffffffffffffffff021916908367ffffffffffffffff1602179055505b60006040518060a0016040528085815260200160008152602001600073ffffffffffffffffffffffffffffffffffffffff168152602001613f92600d60109054906101000a900467ffffffffffffffff16613c4d63ffffffff16565b67ffffffffffffffff1681526020018367ffffffffffffffff16815260200150905082156141515780600e6000506000601060009054906101000a900467ffffffffffffffff1667ffffffffffffffff1667ffffffffffffffff16815260200190815260200160002060005060008201518160000160005090905560208201518160010160005090905560408201518160020160006101000a81548173ffffffffffffffffffffffffffffffffffffffff021916908373ffffffffffffffffffffffffffffffffffffffff16021790555060608201518160020160146101000a81548167ffffffffffffffff021916908367ffffffffffffffff16021790555060808201518160030160006101000a81548167ffffffffffffffff021916908367ffffffffffffffff160217905550905050836010600081819054906101000a900467ffffffffffffffff168092919060010191906101000a81548167ffffffffffffffff021916908367ffffffffffffffff16021790555067ffffffffffffffff167fb706108f90fb9e0fadc5f3feaa02b4c23b9d569ad7b46408c64eb4f224eba7cd8460405161414491906152e8565b60405180910390a36142e4565b80600f6000506000601060089054906101000a900467ffffffffffffffff1667ffffffffffffffff1667ffffffffffffffff16815260200190815260200160002060005060008201518160000160005090905560208201518160010160005090905560408201518160020160006101000a81548173ffffffffffffffffffffffffffffffffffffffff021916908373ffffffffffffffffffffffffffffffffffffffff16021790555060608201518160020160146101000a81548167ffffffffffffffff021916908367ffffffffffffffff16021790555060808201518160030160006101000a81548167ffffffffffffffff021916908367ffffffffffffffff160217905550905050836010600881819054906101000a900467ffffffffffffffff168092919060010191906101000a81548167ffffffffffffffff021916908367ffffffffffffffff16021790555067ffffffffffffffff167f4e673c0fa7786d8c4c1cba0d1678d726ef2cb772cc6abbe3cea73c1a6d9a681e846040516142db91906152e8565b60405180910390a35b50505b5050565b6000600082148061430b5750828283850292508281151561430857fe5b04145b1515614382576040517f08c379a000000000000000000000000000000000000000000000000000000000815260040180806020018281038252600c8152602001807f6d756c2d6f766572666c6f77000000000000000000000000000000000000000081526020015060200191505060405180910390fd5b5b92915050565b60006143a483670de0b6b3a7640000846145ad63ffffffff16565b905080505b92915050565b600060149054906101000a900460ff16151515614401576040517f08c379a00000000000000000000000000000000000000000000000000000000081526004016143f89061516f565b60405180910390fd5b600060009054906101000a900473ffffffffffffffffffffffffffffffffffffffff1673ffffffffffffffffffffffffffffffffffffffff1663bf86d6906040518163ffffffff1660e01b815260040160206040518083038186803b15801561446a5760006000fd5b505afa15801561447f573d600060003e3d6000fd5b505050506040513d601f19601f820116820180604052508101906144a391906148a6565b1515156144e5576040517f08c379a00000000000000000000000000000000000000000000000000000000081526004016144dc90614f77565b60405180910390fd5b5b565b6000816144fa57600a60005054614501565b6009600050545b90506145138382613e2863ffffffff16565b9250825081156145455761453583601160005054613a9090919063ffffffff16565b6011600050819090905550614569565b61455d83601260005054613a9090919063ffffffff16565b60126000508190909055505b60005b61457f828561479190919063ffffffff16565b905080506145938184613eb163ffffffff16565b808403935083505b60008411151561456c575b50505b5050565b60006000600060001985870985870292508281108382030391505060008114156145f0576000841115156145e15760006000fd5b838204925082925050506146a7565b80841115156145ff5760006000fd5b60008486880990508281118203915080830392506000858660000316905080860495508084049350600181826000030401905080830284179350835060006002876003021890508087026002038102905080508087026002038102905080508087026002038102905080508087026002038102905080508087026002038102905080508087026002038102905080508085029550855085955050505050506146a75650505050505b9392505050565b60008151905060006a636f6e736f6c652e6c6f67905060208301600060008483855afa505050505b50565b60006146ec426147af909063ffffffff16565b905080505b90565b60008267ffffffffffffffff1682840191508167ffffffffffffffff161015151561478a576040517f08c379a000000000000000000000000000000000000000000000000000000000815260040180806020018281038252600c8152602001807f6164642d6f766572666c6f77000000000000000000000000000000000000000081526020015060200191505060405180910390fd5b5b92915050565b60008183106147a057816147a2565b825b90506147a9565b92915050565b60006801000000000000000082101515614814576040517f08c379a00000000000000000000000000000000000000000000000000000000081526004018080602001828103825260268152602001806153446026913960400191505060405180910390fd5b81905061481c565b919050565b6040518060a001604052806000815260200160008152602001600073ffffffffffffffffffffffffffffffffffffffff168152602001600067ffffffffffffffff168152602001600067ffffffffffffffff168152602001509056615342565b60008135905067ffffffffffffffff8116811415156148a05760006000fd5b5b919050565b6000602082840312156148b7578081fd5b81516148c281615304565b809150505b92915050565b6000602082840312156148de578081fd5b81357fffffffff0000000000000000000000000000000000000000000000000000000081168114151561490f578182fd5b809150505b92915050565b60006020828403121561492b578081fd5b815161493681615319565b809150505b92915050565b600060208284031215614952578081fd5b815161495d81615319565b809150505b92915050565b600060208284031215614979578081fd5b815161498481615319565b809150505b92915050565b6000602082840312156149a0578081fd5b81516149ab81615319565b809150505b92915050565b6000602082840312156149c7578081fd5b81356149d281615319565b809150505b92915050565b6000602082840312156149ee578081fd5b81516149f981615319565b809150505b92915050565b600060208284031215614a15578081fd5b813590505b92915050565b600060208284031215614a31578081fd5b815190505b92915050565b6000600060408385031215614a4f578081fd5b823591506020830135614a6181615304565b809150505b9250929050565b6000600060408385031215614a80578182fd5b82359150602083013590505b9250929050565b600060208284031215614aa4578081fd5b614aad82614881565b90505b92915050565b6000600060408385031215614ac9578182fd5b614ad283614881565b91506020830135614ae281615304565b809150505b9250929050565b6000600060408385031215614b01578182fd5b614b0a83614881565b9150602083013590505b9250929050565b6000815180845260208085019450808401835b83811015614b5257815115158752828701965082820191505b600181019050614b2e565b505050508290505b92915050565b6000815180845260208085019450808401835b83811015614b955781518752828701965082820191505b600181019050614b73565b505050508290505b92915050565b60007f6d6178426174636853697a6500000000000000000000000000000000000000008252600c820190505b919050565b60007f657874656e73696f6e50657242696400000000000000000000000000000000008252600f820190505b919050565b60007f6d6178446566696369744c6f7453697a6500000000000000000000000000000082526011820190505b919050565b60007f6d617841756374696f6e4475726174696f6e000000000000000000000000000082526012820190505b919050565b60007f6d6178537572706c75734c6f7453697a6500000000000000000000000000000082526011820190505b919050565b60007f6d696e41756374696f6e4475726174696f6e000000000000000000000000000082526012820190505b919050565b60007f6d696e42696444656c74610000000000000000000000000000000000000000008252600b820190505b919050565b60007f6d696e4c6f7453697a65000000000000000000000000000000000000000000008252600a820190505b919050565b60007f72657365727665734275666665724c6f776572426f756e64000000000000000082526018820190505b919050565b60007f72657365727665734275666665725570706572426f756e64000000000000000082526018820190505b919050565b600060208201905073ffffffffffffffffffffffffffffffffffffffff831682525b92915050565b600060608201905073ffffffffffffffffffffffffffffffffffffffff80861683528085166020840152508260408301525b949350505050565b600060408201905073ffffffffffffffffffffffffffffffffffffffff841682528260208301525b9392505050565b600060408201905073ffffffffffffffffffffffffffffffffffffffff841682528260208301525b9392505050565b600060608083018184528087518083526080925082860191506020808a01865b83811015614edc578151805186528381015184870152604073ffffffffffffffffffffffffffffffffffffffff818301511681880152508781015167ffffffffffffffff8082168a8901528089840151168989015250505060a08501945082820191505b600181019050614e6d565b5050868303818801525050614ef18188614b60565b925050508281036040840152614f078185614b1b565b9150505b949350505050565b600060208201905082151582525b92915050565b600060208201905073ffffffffffffffffffffffffffffffffffffffff831682525b92915050565b600060208201905073ffffffffffffffffffffffffffffffffffffffff831682525b92915050565b600060208252601160208301527f50726f746f636f6c2073687574646f776e00000000000000000000000000000060408301526060820190505b919050565b600060208252600b60208301527f42696420746f6f206c6f7700000000000000000000000000000000000000000060408301526060820190505b919050565b600060208252601160208301527f446964206e6f7420756e6465722062696400000000000000000000000000000060408301526060820190505b919050565b600060208252600f60208301527f446964206e6f74206f757420626964000000000000000000000000000000000060408301526060820190505b919050565b600060208252600e60208301527f4e6f7420417574686f72697a656400000000000000000000000000000000000060408301526060820190505b919050565b600060208252600d60208301527f4c50205265656e7472616e63790000000000000000000000000000000000000060408301526060820190505b919050565b600060208252601860208301527f43616e7420736574746c6520746869732061756374696f6e000000000000000060408301526060820190505b919050565b600060208252600c60208301527f42696420746f6f2068696768000000000000000000000000000000000000000060408301526060820190505b919050565b600060208252601360208301527f436f6e74726163742069732073746f707065640000000000000000000000000060408301526060820190505b919050565b600060208252601c60208301527f557365206c61746573742041756374696f6e7320636f6e74726163740000000060408301526060820190505b919050565b600060208252601460208301527f4e6f2061756374696f6e7320746f20737461727400000000000000000000000060408301526060820190505b919050565b600060208252601060208301527f41756374696f6e206e6f74206c6976650000000000000000000000000000000060408301526060820190505b919050565b60006020820190508282525b92915050565b60006040820190508382528260208301525b9392505050565b600060a08201905086825285602083015273ffffffffffffffffffffffffffffffffffffffff8516604083015267ffffffffffffffff80851660608401528084166080840152505b9695505050505050565b600060208201905067ffffffffffffffff831682525b92915050565b801515811415156153155760006000fd5b5b50565b73ffffffffffffffffffffffffffffffffffffffff81168114151561533e5760006000fd5b5b50565bfe53616665436173743a2076616c756520646f65736e27742066697420696e2036342062697473a2646970667358221220bb4832bbb7db7a4a1c81a9e8d8b18ab9fef9fac240266b0247e409dd078d324464736f6c63430007060033",
  "linkReferences": {},
  "deployedLinkReferences": {}
}