{
  "_format": "hh-sol-artifact-1",
  "contractName": "AuctionsTestable",
  "sourceName": "contracts/mocks/AuctionsTestable.sol",
  "abi": [
    {
      "anonymous": false,
      "inputs": [
        {
          "indexed": true,
          "internalType": "uint64",
          "name": "auctionID",
          "type": "uint64"
        },
        {
          "indexed": true,
          "internalType": "address",
          "name": "bidder",
          "type": "address"
        },
        {
          "indexed": false,
          "internalType": "uint256",
          "name": "bid",
          "type": "uint256"
        }
      ],
      "name": "DeficitAuctionBid",
      "type": "event"
    },
    {
      "anonymous": false,
      "inputs": [
        {
          "indexed": true,
          "internalType": "uint64",
          "name": "auctionID",
          "type": "uint64"
        },
        {
          "indexed": true,
          "internalType": "address",
          "name": "winner",
          "type": "address"
        }
      ],
      "name": "DeficitAuctionSettled",
      "type": "event"
    },
    {
      "anonymous": false,
      "inputs": [
        {
          "indexed": true,
          "internalType": "uint64",
          "name": "auctionID",
          "type": "uint64"
        },
        {
          "indexed": true,
          "internalType": "uint256",
          "name": "count",
          "type": "uint256"
        },
        {
          "indexed": false,
          "internalType": "uint64",
          "name": "maxEndTime",
          "type": "uint64"
        }
      ],
      "name": "DeficitAuctionStarted",
      "type": "event"
    },
    {
      "anonymous": false,
      "inputs": [
        {
          "indexed": true,
          "internalType": "address",
          "name": "governor",
          "type": "address"
        }
      ],
      "name": "Initialized",
      "type": "event"
    },
    {
      "anonymous": false,
      "inputs": [
        {
          "indexed": true,
          "internalType": "string",
          "name": "paramName",
          "type": "string"
        },
        {
          "indexed": false,
          "internalType": "uint256",
          "name": "value",
          "type": "uint256"
        }
      ],
      "name": "ParameterUpdated",
      "type": "event"
    },
    {
      "anonymous": false,
      "inputs": [
        {
          "indexed": true,
          "internalType": "string",
          "name": "paramName",
          "type": "string"
        },
        {
          "indexed": false,
          "internalType": "uint64",
          "name": "value",
          "type": "uint64"
        }
      ],
      "name": "ParameterUpdated64",
      "type": "event"
    },
    {
      "anonymous": false,
      "inputs": [],
      "name": "Stopped",
      "type": "event"
    },
    {
      "anonymous": false,
      "inputs": [
        {
          "indexed": true,
          "internalType": "uint64",
          "name": "auctionID",
          "type": "uint64"
        },
        {
          "indexed": true,
          "internalType": "address",
          "name": "bidder",
          "type": "address"
        },
        {
          "indexed": false,
          "internalType": "uint256",
          "name": "bid",
          "type": "uint256"
        }
      ],
      "name": "SurplusAuctionBid",
      "type": "event"
    },
    {
      "anonymous": false,
      "inputs": [
        {
          "indexed": true,
          "internalType": "uint64",
          "name": "auctionID",
          "type": "uint64"
        },
        {
          "indexed": true,
          "internalType": "address",
          "name": "winner",
          "type": "address"
        }
      ],
      "name": "SurplusAuctionSettled",
      "type": "event"
    },
    {
      "anonymous": false,
      "inputs": [
        {
          "indexed": true,
          "internalType": "uint64",
          "name": "auctionID",
          "type": "uint64"
        },
        {
          "indexed": true,
          "internalType": "uint256",
          "name": "count",
          "type": "uint256"
        },
        {
          "indexed": false,
          "internalType": "uint64",
          "name": "maxEndTime",
          "type": "uint64"
        }
      ],
      "name": "SurplusAuctionStarted",
      "type": "event"
    },
    {
      "inputs": [],
      "name": "CNP_COIN_VALUE_MULTIPLIER",
      "outputs": [
        {
          "internalType": "uint256",
          "name": "",
          "type": "uint256"
        }
      ],
      "stateMutability": "view",
      "type": "function"
    },
    {
      "inputs": [],
      "name": "COIN_CNP_VALUE_MULTIPLIER",
      "outputs": [
        {
          "internalType": "uint256",
          "name": "",
          "type": "uint256"
        }
      ],
      "stateMutability": "view",
      "type": "function"
    },
    {
      "inputs": [
        {
          "internalType": "uint256",
          "name": "coinCount",
          "type": "uint256"
        }
      ],
      "name": "approximateCNPEquivalent",
      "outputs": [
        {
          "internalType": "uint256",
          "name": "",
          "type": "uint256"
        }
      ],
      "stateMutability": "view",
      "type": "function"
    },
    {
      "inputs": [
        {
          "internalType": "uint256",
          "name": "amtIn",
          "type": "uint256"
        },
        {
          "internalType": "uint256",
          "name": "lotSize",
          "type": "uint256"
        }
      ],
      "name": "auctionSize",
      "outputs": [
        {
          "internalType": "uint256",
          "name": "size",
          "type": "uint256"
        }
      ],
      "stateMutability": "view",
      "type": "function"
    },
    {
      "inputs": [
        {
          "internalType": "uint64",
          "name": "auctionID",
          "type": "uint64"
        },
        {
          "internalType": "uint256",
          "name": "bid",
          "type": "uint256"
        }
      ],
      "name": "bidDeficitAuction",
      "outputs": [],
      "stateMutability": "nonpayable",
      "type": "function"
    },
    {
      "inputs": [
        {
          "internalType": "uint64",
          "name": "auctionID",
          "type": "uint64"
        },
        {
          "internalType": "uint256",
          "name": "bid",
          "type": "uint256"
        }
      ],
      "name": "bidSurplusAuction",
      "outputs": [],
      "stateMutability": "nonpayable",
      "type": "function"
    },
    {
      "inputs": [],
      "name": "checkReservesAndStartAuctions",
      "outputs": [],
      "stateMutability": "nonpayable",
      "type": "function"
    },
    {
      "inputs": [],
      "name": "cnp",
      "outputs": [
        {
          "internalType": "contract ICNP",
          "name": "",
          "type": "address"
        }
      ],
      "stateMutability": "view",
      "type": "function"
    },
    {
      "inputs": [],
      "name": "coinToBeBought",
      "outputs": [
        {
          "internalType": "uint256",
          "name": "",
          "type": "uint256"
        }
      ],
      "stateMutability": "view",
      "type": "function"
    },
    {
      "inputs": [],
      "name": "coinToBeSold",
      "outputs": [
        {
          "internalType": "uint256",
          "name": "",
          "type": "uint256"
        }
      ],
      "stateMutability": "view",
      "type": "function"
    },
    {
      "inputs": [
        {
          "internalType": "uint64",
          "name": "",
          "type": "uint64"
        }
      ],
      "name": "deficitAuction",
      "outputs": [
        {
          "internalType": "uint256",
          "name": "count",
          "type": "uint256"
        },
        {
          "internalType": "uint256",
          "name": "bid",
          "type": "uint256"
        },
        {
          "internalType": "address",
          "name": "bidder",
          "type": "address"
        },
        {
          "internalType": "uint64",
          "name": "endTime",
          "type": "uint64"
        },
        {
          "internalType": "uint64",
          "name": "maxEndTime",
          "type": "uint64"
        }
      ],
      "stateMutability": "view",
      "type": "function"
    },
    {
      "inputs": [
        {
          "internalType": "uint64",
          "name": "auctionID",
          "type": "uint64"
        }
      ],
      "name": "deficitAuctionComplete",
      "outputs": [
        {
          "internalType": "bool",
          "name": "",
          "type": "bool"
        }
      ],
      "stateMutability": "view",
      "type": "function"
    },
    {
      "inputs": [],
      "name": "deficitAuctionCount",
      "outputs": [
        {
          "internalType": "uint64",
          "name": "",
          "type": "uint64"
        }
      ],
      "stateMutability": "view",
      "type": "function"
    },
    {
      "inputs": [
        {
          "internalType": "uint64",
          "name": "auctionID",
          "type": "uint64"
        }
      ],
      "name": "deficitAuctionLive",
      "outputs": [
        {
          "internalType": "bool",
          "name": "",
          "type": "bool"
        }
      ],
      "stateMutability": "view",
      "type": "function"
    },
    {
      "inputs": [],
      "name": "deployer",
      "outputs": [
        {
          "internalType": "address",
          "name": "",
          "type": "address"
        }
      ],
      "stateMutability": "view",
      "type": "function"
    },
    {
      "inputs": [],
      "name": "extensionPerBid",
      "outputs": [
        {
          "internalType": "uint64",
          "name": "",
          "type": "uint64"
        }
      ],
      "stateMutability": "view",
      "type": "function"
    },
    {
      "inputs": [
        {
          "internalType": "uint64",
          "name": "start",
          "type": "uint64"
        },
        {
          "internalType": "bool",
          "name": "surplus",
          "type": "bool"
        }
      ],
      "name": "getAllAuctions",
      "outputs": [
        {
          "components": [
            {
              "internalType": "uint256",
              "name": "count",
              "type": "uint256"
            },
            {
              "internalType": "uint256",
              "name": "bid",
              "type": "uint256"
            },
            {
              "internalType": "address",
              "name": "bidder",
              "type": "address"
            },
            {
              "internalType": "uint64",
              "name": "endTime",
              "type": "uint64"
            },
            {
              "internalType": "uint64",
              "name": "maxEndTime",
              "type": "uint64"
            }
          ],
          "internalType": "struct IAuctions.Auction[]",
          "name": "_auctions",
          "type": "tuple[]"
        },
        {
          "internalType": "uint256[]",
          "name": "_auctionIDs",
          "type": "uint256[]"
        },
        {
          "internalType": "bool[]",
          "name": "_isComplete",
          "type": "bool[]"
        }
      ],
      "stateMutability": "view",
      "type": "function"
    },
    {
      "inputs": [],
      "name": "governor",
      "outputs": [
        {
          "internalType": "contract IGovernor",
          "name": "",
          "type": "address"
        }
      ],
      "stateMutability": "view",
      "type": "function"
    },
    {
      "inputs": [
        {
          "internalType": "contract IGovernor",
          "name": "_governor",
          "type": "address"
        }
      ],
      "name": "init",
      "outputs": [],
      "stateMutability": "nonpayable",
      "type": "function"
    },
    {
      "inputs": [],
      "name": "latestAuctionCompletionTime",
      "outputs": [
        {
          "internalType": "uint64",
          "name": "",
          "type": "uint64"
        }
      ],
      "stateMutability": "view",
      "type": "function"
    },
    {
      "inputs": [],
      "name": "maxAuctionDuration",
      "outputs": [
        {
          "internalType": "uint64",
          "name": "",
          "type": "uint64"
        }
      ],
      "stateMutability": "view",
      "type": "function"
    },
    {
      "inputs": [],
      "name": "maxBatchSize",
      "outputs": [
        {
          "internalType": "uint64",
          "name": "",
          "type": "uint64"
        }
      ],
      "stateMutability": "view",
      "type": "function"
    },
    {
      "inputs": [],
      "name": "maxDeficitLotSize",
      "outputs": [
        {
          "internalType": "uint256",
          "name": "",
          "type": "uint256"
        }
      ],
      "stateMutability": "view",
      "type": "function"
    },
    {
      "inputs": [],
      "name": "maxSurplusLotSize",
      "outputs": [
        {
          "internalType": "uint256",
          "name": "",
          "type": "uint256"
        }
      ],
      "stateMutability": "view",
      "type": "function"
    },
    {
      "inputs": [],
      "name": "minAuctionDuration",
      "outputs": [
        {
          "internalType": "uint64",
          "name": "",
          "type": "uint64"
        }
      ],
      "stateMutability": "view",
      "type": "function"
    },
    {
      "inputs": [],
      "name": "minBidDelta",
      "outputs": [
        {
          "internalType": "uint256",
          "name": "",
          "type": "uint256"
        }
      ],
      "stateMutability": "view",
      "type": "function"
    },
    {
      "inputs": [],
      "name": "minLotSize",
      "outputs": [
        {
          "internalType": "uint256",
          "name": "",
          "type": "uint256"
        }
      ],
      "stateMutability": "view",
      "type": "function"
    },
    {
      "inputs": [],
      "name": "reservesBufferLowerBound",
      "outputs": [
        {
          "internalType": "uint256",
          "name": "",
          "type": "uint256"
        }
      ],
      "stateMutability": "view",
      "type": "function"
    },
    {
      "inputs": [],
      "name": "reservesBufferUpperBound",
      "outputs": [
        {
          "internalType": "uint256",
          "name": "",
          "type": "uint256"
        }
      ],
      "stateMutability": "view",
      "type": "function"
    },
    {
      "inputs": [
        {
          "internalType": "uint64",
          "name": "extension",
          "type": "uint64"
        }
      ],
      "name": "setExtensionPerBid",
      "outputs": [],
      "stateMutability": "nonpayable",
      "type": "function"
    },
    {
      "inputs": [
        {
          "internalType": "uint64",
          "name": "duration",
          "type": "uint64"
        }
      ],
      "name": "setMaxAuctionDuration",
      "outputs": [],
      "stateMutability": "nonpayable",
      "type": "function"
    },
    {
      "inputs": [
        {
          "internalType": "uint64",
          "name": "size",
          "type": "uint64"
        }
      ],
      "name": "setMaxBatchSize",
      "outputs": [],
      "stateMutability": "nonpayable",
      "type": "function"
    },
    {
      "inputs": [
        {
          "internalType": "uint256",
          "name": "size",
          "type": "uint256"
        }
      ],
      "name": "setMaxDeficitLotSize",
      "outputs": [],
      "stateMutability": "nonpayable",
      "type": "function"
    },
    {
      "inputs": [
        {
          "internalType": "uint256",
          "name": "size",
          "type": "uint256"
        }
      ],
      "name": "setMaxSurplusLotSize",
      "outputs": [],
      "stateMutability": "nonpayable",
      "type": "function"
    },
    {
      "inputs": [
        {
          "internalType": "uint64",
          "name": "duration",
          "type": "uint64"
        }
      ],
      "name": "setMinAuctionDuration",
      "outputs": [],
      "stateMutability": "nonpayable",
      "type": "function"
    },
    {
      "inputs": [
        {
          "internalType": "uint256",
          "name": "delta",
          "type": "uint256"
        }
      ],
      "name": "setMinBidDelta",
      "outputs": [],
      "stateMutability": "nonpayable",
      "type": "function"
    },
    {
      "inputs": [
        {
          "internalType": "uint256",
          "name": "size",
          "type": "uint256"
        }
      ],
      "name": "setMinLotSize",
      "outputs": [],
      "stateMutability": "nonpayable",
      "type": "function"
    },
    {
      "inputs": [
        {
          "internalType": "uint256",
          "name": "bound",
          "type": "uint256"
        }
      ],
      "name": "setReservesBufferLowerBound",
      "outputs": [],
      "stateMutability": "nonpayable",
      "type": "function"
    },
    {
      "inputs": [
        {
          "internalType": "uint256",
          "name": "bound",
          "type": "uint256"
        }
      ],
      "name": "setReservesBufferUpperBound",
      "outputs": [],
      "stateMutability": "nonpayable",
      "type": "function"
    },
    {
      "inputs": [
        {
          "internalType": "uint64",
          "name": "auctionID",
          "type": "uint64"
        }
      ],
      "name": "settleDeficitAuction",
      "outputs": [],
      "stateMutability": "nonpayable",
      "type": "function"
    },
    {
      "inputs": [
        {
          "internalType": "uint64",
          "name": "auctionID",
          "type": "uint64"
        }
      ],
      "name": "settleSurplusAuction",
      "outputs": [],
      "stateMutability": "nonpayable",
      "type": "function"
    },
    {
      "inputs": [],
      "name": "shouldStartAuctions",
      "outputs": [
        {
          "internalType": "uint256",
          "name": "surplusAmount",
          "type": "uint256"
        },
        {
          "internalType": "uint256",
          "name": "deficitAmount",
          "type": "uint256"
        }
      ],
      "stateMutability": "view",
      "type": "function"
    },
    {
      "inputs": [
        {
          "internalType": "uint256",
          "name": "count",
          "type": "uint256"
        },
        {
          "internalType": "bool",
          "name": "isSurplus",
          "type": "bool"
        }
      ],
      "name": "startAuction",
      "outputs": [],
      "stateMutability": "nonpayable",
      "type": "function"
    },
    {
      "inputs": [
        {
          "internalType": "uint256",
          "name": "amt",
          "type": "uint256"
        },
        {
          "internalType": "bool",
          "name": "isSurplus",
          "type": "bool"
        }
      ],
      "name": "startAuctions",
      "outputs": [],
      "stateMutability": "nonpayable",
      "type": "function"
    },
    {
      "inputs": [],
      "name": "stop",
      "outputs": [],
      "stateMutability": "nonpayable",
      "type": "function"
    },
    {
      "inputs": [],
      "name": "stopped",
      "outputs": [
        {
          "internalType": "bool",
          "name": "",
          "type": "bool"
        }
      ],
      "stateMutability": "view",
      "type": "function"
    },
    {
      "inputs": [
        {
          "internalType": "uint64",
          "name": "",
          "type": "uint64"
        }
      ],
      "name": "surplusAuction",
      "outputs": [
        {
          "internalType": "uint256",
          "name": "count",
          "type": "uint256"
        },
        {
          "internalType": "uint256",
          "name": "bid",
          "type": "uint256"
        },
        {
          "internalType": "address",
          "name": "bidder",
          "type": "address"
        },
        {
          "internalType": "uint64",
          "name": "endTime",
          "type": "uint64"
        },
        {
          "internalType": "uint64",
          "name": "maxEndTime",
          "type": "uint64"
        }
      ],
      "stateMutability": "view",
      "type": "function"
    },
    {
      "inputs": [
        {
          "internalType": "uint64",
          "name": "auctionID",
          "type": "uint64"
        }
      ],
      "name": "surplusAuctionComplete",
      "outputs": [
        {
          "internalType": "bool",
          "name": "",
          "type": "bool"
        }
      ],
      "stateMutability": "view",
      "type": "function"
    },
    {
      "inputs": [],
      "name": "surplusAuctionCount",
      "outputs": [
        {
          "internalType": "uint64",
          "name": "",
          "type": "uint64"
        }
      ],
      "stateMutability": "view",
      "type": "function"
    },
    {
      "inputs": [
        {
          "internalType": "uint64",
          "name": "auctionID",
          "type": "uint64"
        }
      ],
      "name": "surplusAuctionLive",
      "outputs": [
        {
          "internalType": "bool",
          "name": "",
          "type": "bool"
        }
      ],
      "stateMutability": "view",
      "type": "function"
    },
    {
      "inputs": [
        {
          "internalType": "bytes4",
          "name": "",
          "type": "bytes4"
        }
      ],
      "name": "validUpdate",
      "outputs": [
        {
          "internalType": "bool",
          "name": "",
          "type": "bool"
        }
      ],
      "stateMutability": "view",
      "type": "function"
    }
  ],
  "bytecode": "0x608060405260016006600050909055670e4b4b8af6a70000600760005090905568878678326eac900000600860005090905569043c33c1937564800000600960005090905569043c33c1937564800000600a600050909055662386f26fc10000600b60005090905566b1a2bc2ec50000600c6000509090556005600d60006101000a81548167ffffffffffffffff021916908367ffffffffffffffff160217905550610708600d60086101000a81548167ffffffffffffffff021916908367ffffffffffffffff16021790555062015180600d60106101000a81548167ffffffffffffffff021916908367ffffffffffffffff1602179055506202a300600d60186101000a81548167ffffffffffffffff021916908367ffffffffffffffff1602179055503480156101315760006000fd5b505b33600160006101000a81548173ffffffffffffffffffffffffffffffffffffffff021916908373ffffffffffffffffffffffffffffffffffffffff1602179055505b61017a565b6150a8806200018a6000396000f3fe60806040523480156100115760006000fd5b50600436106103465760003560e01c8063616cb0cf116101be578063a4f00883116100fa578063cdbd373b116100a3578063ddf31e671161007d578063ddf31e6714610945578063ee3528f014610961578063f50e2b0c1461097f578063faf95d2d1461099d57610346565b8063cdbd373b146108ef578063d005d2eb1461090b578063d5f394881461092757610346565b8063bfa5b286116100d4578063bfa5b28614610871578063c2b6722a146108a1578063caa98b60146108bf57610346565b8063a4f008831461082f578063a958c0331461084b578063afea44ef1461085557610346565b80637eb12af7116101675780639052537e116101415780639052537e146107a75780639210b35d146107c557806399eeec95146107f55780639d5318571461081357610346565b80637eb12af714610751578063887c67d91461076f5780638d56248a1461078b57610346565b806375d0ef521161019857806375d0ef52146106e557806375f12b21146107015780637d6953511461071f57610346565b8063616cb0cf14610675578063651cf64d1461069357806368c5f9c2146106c757610346565b806337ca44fc1161028d5780634a2304b11161023657806354cccf081161021057806354cccf08146105eb57806354f634fb14610609578063597e899f1461062757806360aad9bf1461065757610346565b80634a2304b1146105955780634ae8470d146105b157806354134876146105cd57610346565b806340601add1161026757806340601add146105175780634079b8fc1461054757806348c9581e1461057757610346565b806337ca44fc146104c15780633a3a63df146104dd5780633db966a6146104f957610346565b80631b875768116102ef5780632e748d55116102c95780632e748d55146104555780633427c4ef1461047157806334b14475146104a557610346565b80631b875768146103fa57806325df9538146104185780632913daa01461043757610346565b80630fe86907116103205780630fe8690714610390578063113cf1ab146103ae57806319ab453c146103de57610346565b806307da68f51461034c5780630c340a24146103565780630fb4e2b31461037457610346565b60006000fd5b6103546109bb565b005b61035e6109db565b60405161036b9190614c58565b60405180910390f35b61038e6004803603810190610389919061479c565b610a01565b005b610398610a88565b6040516103a59190614f74565b60405180910390f35b6103c860048036038101906103c391906145d6565b610a91565b6040516103d59190614c1c565b60405180910390f35b6103f860048036038101906103f391906146bf565b610ab6565b005b610402610e74565b60405161040f9190614ff1565b60405180910390f35b610420610e8e565b60405161042e929190614f86565b60405180910390f35b61043f6111e1565b60405161044c9190614ff1565b60405180910390f35b61046f600480360381019061046a91906147f7565b6111fb565b005b61048b6004803603810190610486919061479c565b6116a3565b60405161049c959493929190614f9f565b60405180910390f35b6104bf60048036038101906104ba919061470d565b61172a565b005b6104db60048036038101906104d6919061479c565b6117db565b005b6104f760048036038101906104f2919061470d565b6118b1565b005b610501611934565b60405161050e9190614f74565b60405180910390f35b610531600480360381019061052c919061479c565b61193d565b60405161053e9190614c1c565b60405180910390f35b610561600480360381019061055c919061479c565b6119a2565b60405161056e9190614c1c565b60405180910390f35b61057f611a07565b60405161058c9190614ff1565b60405180910390f35b6105af60048036038101906105aa919061479c565b611a21565b005b6105cb60048036038101906105c6919061470d565b611cfc565b005b6105d5611d9b565b6040516105e29190614ff1565b60405180910390f35b6105f3611db5565b6040516106009190614f74565b60405180910390f35b610611611dbe565b60405161061e9190614f74565b60405180910390f35b610641600480360381019061063c919061479c565b611dc7565b60405161064e9190614c1c565b60405180910390f35b61065f611e2b565b60405161066c9190614f74565b60405180910390f35b61067d611e34565b60405161068a9190614f74565b60405180910390f35b6106ad60048036038101906106a8919061479c565b611e3d565b6040516106be959493929190614f9f565b60405180910390f35b6106cf611ec4565b6040516106dc9190614f74565b60405180910390f35b6106ff60048036038101906106fa919061479c565b611eca565b005b610709611fa0565b6040516107169190614c1c565b60405180910390f35b610739600480360381019061073491906147bf565b611fb3565b60405161074893929190614b56565b60405180910390f35b6107596124d3565b6040516107669190614ff1565b60405180910390f35b6107896004803603810190610784919061470d565b6124ed565b005b6107a560048036038101906107a0919061470d565b612570565b005b6107af6125f3565b6040516107bc9190614f74565b60405180910390f35b6107df60048036038101906107da9190614776565b6125fc565b6040516107ec9190614f74565b60405180910390f35b6107fd612619565b60405161080a9190614c30565b60405180910390f35b61082d60048036038101906108289190614745565b61263f565b005b610849600480360381019061084491906147f7565b612654565b005b610853612aa4565b005b61086f600480360381019061086a919061479c565b612b65565b005b61088b6004803603810190610886919061470d565b612c1c565b6040516108989190614f74565b60405180910390f35b6108a9612d81565b6040516108b69190614ff1565b60405180910390f35b6108d960048036038101906108d4919061479c565b612d9b565b6040516108e69190614c1c565b60405180910390f35b61090960048036038101906109049190614745565b612dff565b005b6109256004803603810190610920919061479c565b612e14565b005b61092f6130d7565b60405161093c9190614a96565b60405180910390f35b61095f600480360381019061095a919061470d565b6130fd565b005b610969613183565b6040516109769190614f74565b60405180910390f35b61098761318c565b6040516109949190614f74565b60405180910390f35b6109a5613191565b6040516109b29190614ff1565b60405180910390f35b6109c96131ab63ffffffff16565b6109d761324063ffffffff16565b5b5b565b600060009054906101000a900473ffffffffffffffffffffffffffffffffffffffff1681565b610a0f6131ab63ffffffff16565b80600d60086101000a81548167ffffffffffffffff021916908367ffffffffffffffff160217905550604051610a44906148dd565b60405180910390207f6293347933ad2997134e224ac8cd2e39908a4a22aeed9af52127b4bbf765297882604051610a7b9190614ff1565b60405180910390a25b5b50565b600a6000505481565b600560005060205280600052604060002060009150909054906101000a900460ff1681565b600160009054906101000a900473ffffffffffffffffffffffffffffffffffffffff1673ffffffffffffffffffffffffffffffffffffffff163373ffffffffffffffffffffffffffffffffffffffff16141515610b135760006000fd5b600160006101000a81549073ffffffffffffffffffffffffffffffffffffffff021916905580600060006101000a81548173ffffffffffffffffffffffffffffffffffffffff021916908373ffffffffffffffffffffffffffffffffffffffff160217905550600060009054906101000a900473ffffffffffffffffffffffffffffffffffffffff1673ffffffffffffffffffffffffffffffffffffffff16639624e83e6040518163ffffffff1660e01b815260040160206040518083038186803b158015610be25760006000fd5b505afa158015610bf7573d600060003e3d6000fd5b505050506040513d601f19601f82011682018060405250810190610c1b9190614623565b600260006101000a81548173ffffffffffffffffffffffffffffffffffffffff021916908373ffffffffffffffffffffffffffffffffffffffff160217905550600060009054906101000a900473ffffffffffffffffffffffffffffffffffffffff1673ffffffffffffffffffffffffffffffffffffffff166311df99956040518163ffffffff1660e01b815260040160206040518083038186803b158015610cc45760006000fd5b505afa158015610cd9573d600060003e3d6000fd5b505050506040513d601f19601f82011682018060405250810190610cfd9190614698565b600360006101000a81548173ffffffffffffffffffffffffffffffffffffffff021916908373ffffffffffffffffffffffffffffffffffffffff160217905550600060009054906101000a900473ffffffffffffffffffffffffffffffffffffffff1673ffffffffffffffffffffffffffffffffffffffff1663d478b0876040518163ffffffff1660e01b815260040160206040518083038186803b158015610da65760006000fd5b505afa158015610dbb573d600060003e3d6000fd5b505050506040513d601f19601f82011682018060405250810190610ddf91906146e6565b600460006101000a81548173ffffffffffffffffffffffffffffffffffffffff021916908373ffffffffffffffffffffffffffffffffffffffff160217905550610e2d61328a63ffffffff16565b8073ffffffffffffffffffffffffffffffffffffffff167f908408e307fc569b417f6cbec5d5a06f44a0a505ac0479b47d421a4b2fd6a1e660405160405180910390a25b50565b601060109054906101000a900467ffffffffffffffff1681565b600060003073ffffffffffffffffffffffffffffffffffffffff16600060009054906101000a900473ffffffffffffffffffffffffffffffffffffffff1673ffffffffffffffffffffffffffffffffffffffff166385aa61036040518163ffffffff1660e01b815260040160206040518083038186803b158015610f125760006000fd5b505afa158015610f27573d600060003e3d6000fd5b505050506040513d601f19601f82011682018060405250810190610f4b919061464a565b73ffffffffffffffffffffffffffffffffffffffff16141515610fa3576040517f08c379a0000000000000000000000000000000000000000000000000000000008152600401610f9a90614eb7565b60405180910390fd5b6000600360009054906101000a900473ffffffffffffffffffffffffffffffffffffffff1673ffffffffffffffffffffffffffffffffffffffff166375172a8b6040518163ffffffff1660e01b815260040160206040518083038186803b15801561100e5760006000fd5b505afa158015611023573d600060003e3d6000fd5b505050506040513d601f19601f820116820180604052508101906110479190614729565b90506000600260009054906101000a900473ffffffffffffffffffffffffffffffffffffffff1673ffffffffffffffffffffffffffffffffffffffff16630dca59c16040518163ffffffff1660e01b815260040160206040518083038186803b1580156110b45760006000fd5b505afa1580156110c9573d600060003e3d6000fd5b505050506040513d601f19601f820116820180604052508101906110ed9190614729565b90506000611109600c600050548361371590919063ffffffff16565b90506000611125600b600050548461371590919063ffffffff16565b90506000600a61113e838561373b90919063ffffffff16565b81151561114757fe5b049050826111636011600050548761373b90919063ffffffff16565b1115611192578083601160005054870303019650865060086000505487101561118d576000965086505b6111d7565b816111ab601260005054876137c490919063ffffffff16565b10156111d657806012600050548601830301955085506008600050548610156111d5576000955085505b5b5b50505050505b9091565b600d60009054906101000a900467ffffffffffffffff1681565b61120961384d63ffffffff16565b61121761392c63ffffffff16565b611226826119a263ffffffff16565b1515611267576040517f08c379a000000000000000000000000000000000000000000000000000000000815260040161125e90614f35565b60405180910390fd5b6000600e60005060008467ffffffffffffffff1667ffffffffffffffff168152602001908152602001600020600050905060008160020160009054906101000a900473ffffffffffffffffffffffffffffffffffffffff16905060008260010160005054905060006000600073ffffffffffffffffffffffffffffffffffffffff168473ffffffffffffffffffffffffffffffffffffffff161415611376576103e861131f8660000160005054612c1c63ffffffff16565b81151561132857fe5b048611151561136c576040517f08c379a000000000000000000000000000000000000000000000000000000000815260040161136390614cbf565b60405180910390fd5b85915081506113ef565b61138e6007600050548461371590919063ffffffff16565b86101515156113d2576040517f08c379a00000000000000000000000000000000000000000000000000000000081526004016113c990614d3d565b60405180910390fd5b82905080506113ea838761373b90919063ffffffff16565b915081505b338560020160006101000a81548173ffffffffffffffffffffffffffffffffffffffff021916908373ffffffffffffffffffffffffffffffffffffffff16021790555085856001016000508190909055506000611467600d60089054906101000a900467ffffffffffffffff1661398163ffffffff16565b90508067ffffffffffffffff168660020160149054906101000a900467ffffffffffffffff1667ffffffffffffffff1610156114c957808660020160146101000a81548167ffffffffffffffff021916908367ffffffffffffffff1602179055505b600082111561159257601360009054906101000a900473ffffffffffffffffffffffffffffffffffffffff1673ffffffffffffffffffffffffffffffffffffffff166323b872dd3387856040518463ffffffff1660e01b815260040161153193929190614abe565b602060405180830381600087803b15801561154c5760006000fd5b505af1158015611561573d600060003e3d6000fd5b505050506040513d601f19601f8201168201806040525081019061158591906145af565b15156115915760006000fd5b5b60008311151561159e57fe5b601360009054906101000a900473ffffffffffffffffffffffffffffffffffffffff1673ffffffffffffffffffffffffffffffffffffffff166379cc679033856040518363ffffffff1660e01b81526004016115fb929190614af8565b600060405180830381600087803b1580156116165760006000fd5b505af115801561162b573d600060003e3d6000fd5b505050503373ffffffffffffffffffffffffffffffffffffffff168867ffffffffffffffff167fd428196c29fb7877242c66ff296d926b10a5051d369acf8fe5eb3ea21bb6ec98896040516116809190614f74565b60405180910390a35050505050505b5b61169e6139b763ffffffff16565b5b5050565b600e6000506020528060005260406000206000915090508060000160005054908060010160005054908060020160009054906101000a900473ffffffffffffffffffffffffffffffffffffffff16908060020160149054906101000a900467ffffffffffffffff16908060030160009054906101000a900467ffffffffffffffff16905085565b6117386131ab63ffffffff16565b80600860005081909090555060086000505460001015156117595760006000fd5b6009600050546008600050541015156117725760006000fd5b600a6000505460086000505410151561178b5760006000fd5b60405161179790614a03565b60405180910390207f3a64504f0bc0c335e2aecb78638a257e0351a3fe0370861fd54ee4190b920933826040516117ce9190614f74565b60405180910390a25b5b50565b6117e96131ab63ffffffff16565b80600d60186101000a81548167ffffffffffffffff021916908367ffffffffffffffff160217905550600d60189054906101000a900467ffffffffffffffff1667ffffffffffffffff16600d60109054906101000a900467ffffffffffffffff1667ffffffffffffffff161015156118615760006000fd5b60405161186d9061493f565b60405180910390207f6293347933ad2997134e224ac8cd2e39908a4a22aeed9af52127b4bbf7652978826040516118a49190614ff1565b60405180910390a25b5b50565b6118bf6131ab63ffffffff16565b80600a600050819090905550600a600050546008600050541015156118e45760006000fd5b6040516118f09061490e565b60405180910390207f3a64504f0bc0c335e2aecb78638a257e0351a3fe0370861fd54ee4190b920933826040516119279190614f74565b60405180910390a25b5b50565b60126000505481565b600061194e82613a4b63ffffffff16565b611959576000611996565b611994600f60005060008467ffffffffffffffff1667ffffffffffffffff168152602001908152602001600020600050613a9063ffffffff16565b155b905061199d565b919050565b60006119b382613b1763ffffffff16565b6119be5760006119fb565b6119f9600e60005060008467ffffffffffffffff1667ffffffffffffffff168152602001908152602001600020600050613a9063ffffffff16565b155b9050611a02565b919050565b600d60189054906101000a900467ffffffffffffffff1681565b611a2f61384d63ffffffff16565b611a3d61392c63ffffffff16565b611a4c81611dc763ffffffff16565b1515611a8d576040517f08c379a0000000000000000000000000000000000000000000000000000000008152600401611a8490614dfa565b60405180910390fd5b6000600f60005060008367ffffffffffffffff1667ffffffffffffffff168152602001908152602001600020600050905060008160020160009054906101000a900473ffffffffffffffffffffffffffffffffffffffff169050600082600101600050549050600073ffffffffffffffffffffffffffffffffffffffff168273ffffffffffffffffffffffffffffffffffffffff1614158015611b305750600081115b15611bcb57600060009054906101000a900473ffffffffffffffffffffffffffffffffffffffff1673ffffffffffffffffffffffffffffffffffffffff1663a99acb1783836040518363ffffffff1660e01b8152600401611b92929190614b27565b600060405180830381600087803b158015611bad5760006000fd5b505af1158015611bc2573d600060003e3d6000fd5b50505050611bf6565b611bea836000016000505460126000505461373b90919063ffffffff16565b60126000508190909055505b600f60005060008567ffffffffffffffff1667ffffffffffffffff1681526020019081526020016000206000600082016000506000905560018201600050600090556002820160006101000a81549073ffffffffffffffffffffffffffffffffffffffff02191690556002820160146101000a81549067ffffffffffffffff02191690556003820160006101000a81549067ffffffffffffffff021916905550508173ffffffffffffffffffffffffffffffffffffffff168467ffffffffffffffff167fd1b34ce351dc1a4cb6c40bb878ba19a12c4c44d35e7bdbeca7b5ebe947da312f60405160405180910390a35050505b5b611cf86139b763ffffffff16565b5b50565b611d0a6131ab63ffffffff16565b80600c600050819090905550600c60005054600b60005054101515611d2f5760006000fd5b670de0b6b3a7640000600c60005054101515611d4b5760006000fd5b604051611d5790614a65565b60405180910390207f3a64504f0bc0c335e2aecb78638a257e0351a3fe0370861fd54ee4190b92093382604051611d8e9190614f74565b60405180910390a25b5b50565b600d60109054906101000a900467ffffffffffffffff1681565b600c6000505481565b60076000505481565b6000611dd882613a4b63ffffffff16565b611de3576000611e1f565b611e1e600f60005060008467ffffffffffffffff1667ffffffffffffffff168152602001908152602001600020600050613a9063ffffffff16565b5b9050611e26565b919050565b60096000505481565b600b6000505481565b600f6000506020528060005260406000206000915090508060000160005054908060010160005054908060020160009054906101000a900473ffffffffffffffffffffffffffffffffffffffff16908060020160149054906101000a900467ffffffffffffffff16908060030160009054906101000a900467ffffffffffffffff16905085565b6103e881565b611ed86131ab63ffffffff16565b80600d60106101000a81548167ffffffffffffffff021916908367ffffffffffffffff160217905550600d60189054906101000a900467ffffffffffffffff1667ffffffffffffffff16600d60109054906101000a900467ffffffffffffffff1667ffffffffffffffff16101515611f505760006000fd5b604051611f5c906149a1565b60405180910390207f6293347933ad2997134e224ac8cd2e39908a4a22aeed9af52127b4bbf765297882604051611f939190614ff1565b60405180910390a25b5b50565b600060149054906101000a900460ff1681565b606060606060600084611fdc57601060089054906101000a900467ffffffffffffffff16611ff4565b601060009054906101000a900467ffffffffffffffff165b67ffffffffffffffff169050600060008790505b828167ffffffffffffffff16101561205f57866120335761202e81613a4b63ffffffff16565b612043565b61204281613b1763ffffffff16565b5b156120515781806001019250505b5b8080600101915050612008565b508067ffffffffffffffff811180156120785760006000fd5b506040519080825280602002602001820160405280156120b257816020015b61209f61452a565b8152602001906001900390816120975790505b50945084508067ffffffffffffffff811180156120cf5760006000fd5b506040519080825280602002602001820160405280156120fe5781602001602082028036833780820191505090505b50935083508067ffffffffffffffff8111801561211b5760006000fd5b5060405190808252806020026020018201604052801561214a5781602001602082028036833780820191505090505b5092508250600060008890505b838167ffffffffffffffff1610156124c75787156123125761217e81613b1763ffffffff16565b1515612189576124ba565b600e60005060008267ffffffffffffffff1667ffffffffffffffff1681526020019081526020016000206000506040518060a001604052908160008201600050548152602001600182016000505481526020016002820160009054906101000a900473ffffffffffffffffffffffffffffffffffffffff1673ffffffffffffffffffffffffffffffffffffffff1673ffffffffffffffffffffffffffffffffffffffff1681526020016002820160149054906101000a900467ffffffffffffffff1667ffffffffffffffff1667ffffffffffffffff1681526020016003820160009054906101000a900467ffffffffffffffff1667ffffffffffffffff1667ffffffffffffffff168152602001505087838151811015156122a657fe5b60200260200101819052508067ffffffffffffffff1686838151811015156122ca57fe5b60200260200101909081815260200150506122ea81612d9b63ffffffff16565b85838151811015156122f857fe5b6020026020010190151590811515815260200150506124b1565b61232181613a4b63ffffffff16565b151561232c576124ba565b600f60005060008267ffffffffffffffff1667ffffffffffffffff1681526020019081526020016000206000506040518060a001604052908160008201600050548152602001600182016000505481526020016002820160009054906101000a900473ffffffffffffffffffffffffffffffffffffffff1673ffffffffffffffffffffffffffffffffffffffff1673ffffffffffffffffffffffffffffffffffffffff1681526020016002820160149054906101000a900467ffffffffffffffff1667ffffffffffffffff1667ffffffffffffffff1681526020016003820160009054906101000a900467ffffffffffffffff1667ffffffffffffffff1667ffffffffffffffff1681526020015050878381518110151561244957fe5b60200260200101819052508067ffffffffffffffff16868381518110151561246d57fe5b602002602001019090818152602001505061248d81611dc763ffffffff16565b858381518110151561249b57fe5b6020026020010190151590811515815260200150505b81806001019250505b8080600101915050612157565b505050505b9250925092565b601060089054906101000a900467ffffffffffffffff1681565b6124fb6131ab63ffffffff16565b80600b600050819090905550600c60005054600b600050541015156125205760006000fd5b60405161252c90614a34565b60405180910390207f3a64504f0bc0c335e2aecb78638a257e0351a3fe0370861fd54ee4190b920933826040516125639190614f74565b60405180910390a25b5b50565b61257e6131ab63ffffffff16565b8060096000508190909055506009600050546008600050541015156125a35760006000fd5b6040516125af90614970565b60405180910390207f3a64504f0bc0c335e2aecb78638a257e0351a3fe0370861fd54ee4190b920933826040516125e69190614f74565b60405180910390a25b5b50565b60086000505481565b600061260e8383613b5c63ffffffff16565b905080505b92915050565b601360009054906101000a900473ffffffffffffffffffffffffffffffffffffffff1681565b61264f8282613be563ffffffff16565b5b5050565b61266261384d63ffffffff16565b61267061392c63ffffffff16565b61267f8261193d63ffffffff16565b15156126c0576040517f08c379a00000000000000000000000000000000000000000000000000000000081526004016126b790614f35565b60405180910390fd5b6000600f60005060008467ffffffffffffffff1667ffffffffffffffff16815260200190815260200160002060005090506000600082600001600050549050600073ffffffffffffffffffffffffffffffffffffffff168360020160009054906101000a900473ffffffffffffffffffffffffffffffffffffffff1673ffffffffffffffffffffffffffffffffffffffff16141561280c5761277a606461276c83612c1c63ffffffff16565b61401f90919063ffffffff16565b841015156127bd576040517f08c379a00000000000000000000000000000000000000000000000000000000081526004016127b490614e39565b60405180910390fd5b6127d58160126000505461373b90919063ffffffff16565b6012600050819090905550600360009054906101000a900473ffffffffffffffffffffffffffffffffffffffff1691508150612899565b61282b60076000505484600101600050546140bd90919063ffffffff16565b841115151561286f576040517f08c379a000000000000000000000000000000000000000000000000000000000815260040161286690614cfe565b60405180910390fd5b8260020160009054906101000a900473ffffffffffffffffffffffffffffffffffffffff16915081505b338360020160006101000a81548173ffffffffffffffffffffffffffffffffffffffff021916908373ffffffffffffffffffffffffffffffffffffffff16021790555083836001016000508190909055506000612911600d60089054906101000a900467ffffffffffffffff1661398163ffffffff16565b90508067ffffffffffffffff168460020160149054906101000a900467ffffffffffffffff1667ffffffffffffffff16101561297357808460020160146101000a81548167ffffffffffffffff021916908367ffffffffffffffff1602179055505b600360009054906101000a900473ffffffffffffffffffffffffffffffffffffffff1673ffffffffffffffffffffffffffffffffffffffff166323b872dd3385856040518463ffffffff1660e01b81526004016129d293929190614abe565b602060405180830381600087803b1580156129ed5760006000fd5b505af1158015612a02573d600060003e3d6000fd5b505050506040513d601f19601f82011682018060405250810190612a2691906145af565b1515612a325760006000fd5b3373ffffffffffffffffffffffffffffffffffffffff168667ffffffffffffffff167f3e40664282966c0a42567d60514e22e8d06206cbcaa7d79f53dc8fcd8c72424687604051612a839190614f74565b60405180910390a3505050505b5b612a9f6139b763ffffffff16565b5b5050565b612ab261384d63ffffffff16565b612ac06140e363ffffffff16565b60006000612ad2610e8e63ffffffff16565b915091506000821115612af557612af082600161421c63ffffffff16565b612b50565b6000811115612b1457612b0f81600061421c63ffffffff16565b612b4f565b6040517f08c379a0000000000000000000000000000000000000000000000000000000008152600401612b4690614ef6565b60405180910390fd5b5b50505b5b612b626139b763ffffffff16565b5b565b612b736131ab63ffffffff16565b80600d60006101000a81548167ffffffffffffffff021916908367ffffffffffffffff1602179055506000600d60009054906101000a900467ffffffffffffffff1667ffffffffffffffff16111515612bcc5760006000fd5b604051612bd8906148ac565b60405180910390207f6293347933ad2997134e224ac8cd2e39908a4a22aeed9af52127b4bbf765297882604051612c0f9190614ff1565b60405180910390a25b5b50565b6000612d75600060009054906101000a900473ffffffffffffffffffffffffffffffffffffffff1673ffffffffffffffffffffffffffffffffffffffff1663875b1fa06040518163ffffffff1660e01b815260040160206040518083038186803b158015612c8a5760006000fd5b505afa158015612c9f573d600060003e3d6000fd5b505050506040513d601f19601f82011682018060405250810190612cc39190614729565b600360009054906101000a900473ffffffffffffffffffffffffffffffffffffffff1673ffffffffffffffffffffffffffffffffffffffff166318160ddd6040518163ffffffff1660e01b815260040160206040518083038186803b158015612d2c5760006000fd5b505afa158015612d41573d600060003e3d6000fd5b505050506040513d601f19601f82011682018060405250810190612d659190614729565b846142e19092919063ffffffff16565b9050612d7c565b919050565b601060009054906101000a900467ffffffffffffffff1681565b6000612dac82613b1763ffffffff16565b612db7576000612df3565b612df2600e60005060008467ffffffffffffffff1667ffffffffffffffff168152602001908152602001600020600050613a9063ffffffff16565b5b9050612dfa565b919050565b612e0f828261421c63ffffffff16565b5b5050565b612e2261384d63ffffffff16565b612e3061392c63ffffffff16565b612e3f81612d9b63ffffffff16565b1515612e80576040517f08c379a0000000000000000000000000000000000000000000000000000000008152600401612e7790614dfa565b60405180910390fd5b6000600e60005060008367ffffffffffffffff1667ffffffffffffffff168152602001908152602001600020600050905060008160000160005054905060008260020160009054906101000a900473ffffffffffffffffffffffffffffffffffffffff169050612efe8260116000505461373b90919063ffffffff16565b6011600050819090905550600073ffffffffffffffffffffffffffffffffffffffff168173ffffffffffffffffffffffffffffffffffffffff16141515612fd157600360009054906101000a900473ffffffffffffffffffffffffffffffffffffffff1673ffffffffffffffffffffffffffffffffffffffff166316f9428f82846040518363ffffffff1660e01b8152600401612f9c929190614b27565b600060405180830381600087803b158015612fb75760006000fd5b505af1158015612fcc573d600060003e3d6000fd5b505050505b600e60005060008567ffffffffffffffff1667ffffffffffffffff1681526020019081526020016000206000600082016000506000905560018201600050600090556002820160006101000a81549073ffffffffffffffffffffffffffffffffffffffff02191690556002820160146101000a81549067ffffffffffffffff02191690556003820160006101000a81549067ffffffffffffffff021916905550508073ffffffffffffffffffffffffffffffffffffffff168467ffffffffffffffff167f596e5ff4197d4a01b2406d4c0717653cbc9166cf6ab2bdf78272eb99d191a09360405160405180910390a35050505b5b6130d36139b763ffffffff16565b5b50565b600160009054906101000a900473ffffffffffffffffffffffffffffffffffffffff1681565b61310b6131ab63ffffffff16565b806007600050819090905550670de0b6b3a76400006007600050541115156131335760006000fd5b60405161313f906149d2565b60405180910390207f3a64504f0bc0c335e2aecb78638a257e0351a3fe0370861fd54ee4190b920933826040516131769190614f74565b60405180910390a25b5b50565b60116000505481565b606481565b600d60089054906101000a900467ffffffffffffffff1681565b600060009054906101000a900473ffffffffffffffffffffffffffffffffffffffff1673ffffffffffffffffffffffffffffffffffffffff163373ffffffffffffffffffffffffffffffffffffffff1614151561323d576040517f08c379a000000000000000000000000000000000000000000000000000000000815260040161323490614d7c565b60405180910390fd5b5b565b6001600060146101000a81548160ff0219169083151502179055507f7acc84e34091ae817647a4c49116f5cc07f319078ba80f8f5fde37ea7e25cbd660405160405180910390a15b565b600060009054906101000a900473ffffffffffffffffffffffffffffffffffffffff1673ffffffffffffffffffffffffffffffffffffffff166399eeec956040518163ffffffff1660e01b815260040160206040518083038186803b1580156132f35760006000fd5b505afa158015613308573d600060003e3d6000fd5b505050506040513d601f19601f8201168201806040525081019061332c9190614671565b601360006101000a81548173ffffffffffffffffffffffffffffffffffffffff021916908373ffffffffffffffffffffffffffffffffffffffff160217905550600060405180610140016040528063ddf31e6760e01b7bffffffffffffffffffffffffffffffffffffffffffffffffffffffff19167bffffffffffffffffffffffffffffffffffffffffffffffffffffffff191681526020016334b1447560e01b7bffffffffffffffffffffffffffffffffffffffffffffffffffffffff19167bffffffffffffffffffffffffffffffffffffffffffffffffffffffff19168152602001638d56248a60e01b7bffffffffffffffffffffffffffffffffffffffffffffffffffffffff19167bffffffffffffffffffffffffffffffffffffffffffffffffffffffff19168152602001633a3a63df60e01b7bffffffffffffffffffffffffffffffffffffffffffffffffffffffff19167bffffffffffffffffffffffffffffffffffffffffffffffffffffffff1916815260200163887c67d960e01b7bffffffffffffffffffffffffffffffffffffffffffffffffffffffff19167bffffffffffffffffffffffffffffffffffffffffffffffffffffffff19168152602001634ae8470d60e01b7bffffffffffffffffffffffffffffffffffffffffffffffffffffffff19167bffffffffffffffffffffffffffffffffffffffffffffffffffffffff1916815260200163afea44ef60e01b7bffffffffffffffffffffffffffffffffffffffffffffffffffffffff19167bffffffffffffffffffffffffffffffffffffffffffffffffffffffff19168152602001630fb4e2b360e01b7bffffffffffffffffffffffffffffffffffffffffffffffffffffffff19167bffffffffffffffffffffffffffffffffffffffffffffffffffffffff191681526020016375d0ef5260e01b7bffffffffffffffffffffffffffffffffffffffffffffffffffffffff19167bffffffffffffffffffffffffffffffffffffffffffffffffffffffff191681526020016337ca44fc60e01b7bffffffffffffffffffffffffffffffffffffffffffffffffffffffff19167bffffffffffffffffffffffffffffffffffffffffffffffffffffffff1916815260200150905060008150600a90506000600090505b8181101561370f576001600560005060008584600a8110151561369957fe5b60200201517bffffffffffffffffffffffffffffffffffffffffffffffffffffffff19167bffffffffffffffffffffffffffffffffffffffffffffffffffffffff1916815260200190815260200160002060006101000a81548160ff0219169083151502179055505b808060010191505061367a565b5050505b565b60006137308383670de0b6b3a76400006142e163ffffffff16565b905080505b92915050565b600082828403915081111515156137bd576040517f08c379a000000000000000000000000000000000000000000000000000000000815260040180806020018281038252600d8152602001807f7375622d756e646572666c6f770000000000000000000000000000000000000081526020015060200191505060405180910390fd5b5b92915050565b60008282840191508110151515613846576040517f08c379a000000000000000000000000000000000000000000000000000000000815260040180806020018281038252600c8152602001807f6164642d6f766572666c6f77000000000000000000000000000000000000000081526020015060200191505060405180910390fd5b5b92915050565b600460009054906101000a900473ffffffffffffffffffffffffffffffffffffffff1673ffffffffffffffffffffffffffffffffffffffff1663e97dcb626040518163ffffffff1660e01b8152600401600060405180830381600087803b1580156138b85760006000fd5b505af11580156138cd573d600060003e3d6000fd5b5050505060026006600050541415151561391c576040517f08c379a000000000000000000000000000000000000000000000000000000000815260040161391390614dbb565b60405180910390fd5b600260066000508190909055505b565b600060149054906101000a900460ff1615151561397e576040517f08c379a000000000000000000000000000000000000000000000000000000000815260040161397590614e78565b60405180910390fd5b5b565b60006139ad826139956143e263ffffffff16565b67ffffffffffffffff166143fd90919063ffffffff16565b905080505b919050565b60016006600050819090905550600460009054906101000a900473ffffffffffffffffffffffffffffffffffffffff1673ffffffffffffffffffffffffffffffffffffffff1663e9fad8ee6040518163ffffffff1660e01b8152600401600060405180830381600087803b158015613a2f5760006000fd5b505af1158015613a44573d600060003e3d6000fd5b505050505b565b60006000600f60005060008467ffffffffffffffff1667ffffffffffffffff16815260200190815260200160002060005060000160005054119050613a8b565b919050565b60006000613aa26143e263ffffffff16565b90508067ffffffffffffffff168360020160149054906101000a900467ffffffffffffffff1667ffffffffffffffff161080613b0957508067ffffffffffffffff168360030160009054906101000a900467ffffffffffffffff1667ffffffffffffffff16105b915050613b1256505b919050565b60006000600e60005060008467ffffffffffffffff1667ffffffffffffffff16815260200190815260200160002060005060000160005054119050613b57565b919050565b60006000613b93600d60009054906101000a900467ffffffffffffffff1667ffffffffffffffff168461401f90919063ffffffff16565b905060008385811515613ba257fe5b06905060006008600050548210613bb95785613bbd565b8186035b9050613bd2818461449a90919063ffffffff16565b9350505050613bdf565050505b92915050565b6000613c0c600d60189054906101000a900467ffffffffffffffff1661398163ffffffff16565b90508067ffffffffffffffff16601060109054906101000a900467ffffffffffffffff1667ffffffffffffffff161015613c6a5780601060106101000a81548167ffffffffffffffff021916908367ffffffffffffffff1602179055505b60006040518060a0016040528085815260200160008152602001600073ffffffffffffffffffffffffffffffffffffffff168152602001613cc6600d60109054906101000a900467ffffffffffffffff1661398163ffffffff16565b67ffffffffffffffff1681526020018367ffffffffffffffff1681526020015090508215613e855780600e6000506000601060009054906101000a900467ffffffffffffffff1667ffffffffffffffff1667ffffffffffffffff16815260200190815260200160002060005060008201518160000160005090905560208201518160010160005090905560408201518160020160006101000a81548173ffffffffffffffffffffffffffffffffffffffff021916908373ffffffffffffffffffffffffffffffffffffffff16021790555060608201518160020160146101000a81548167ffffffffffffffff021916908367ffffffffffffffff16021790555060808201518160030160006101000a81548167ffffffffffffffff021916908367ffffffffffffffff160217905550905050836010600081819054906101000a900467ffffffffffffffff168092919060010191906101000a81548167ffffffffffffffff021916908367ffffffffffffffff16021790555067ffffffffffffffff167fb706108f90fb9e0fadc5f3feaa02b4c23b9d569ad7b46408c64eb4f224eba7cd84604051613e789190614ff1565b60405180910390a3614018565b80600f6000506000601060089054906101000a900467ffffffffffffffff1667ffffffffffffffff1667ffffffffffffffff16815260200190815260200160002060005060008201518160000160005090905560208201518160010160005090905560408201518160020160006101000a81548173ffffffffffffffffffffffffffffffffffffffff021916908373ffffffffffffffffffffffffffffffffffffffff16021790555060608201518160020160146101000a81548167ffffffffffffffff021916908367ffffffffffffffff16021790555060808201518160030160006101000a81548167ffffffffffffffff021916908367ffffffffffffffff160217905550905050836010600881819054906101000a900467ffffffffffffffff168092919060010191906101000a81548167ffffffffffffffff021916908367ffffffffffffffff16021790555067ffffffffffffffff167f4e673c0fa7786d8c4c1cba0d1678d726ef2cb772cc6abbe3cea73c1a6d9a681e8460405161400f9190614ff1565b60405180910390a35b50505b5050565b6000600082148061403f5750828283850292508281151561403c57fe5b04145b15156140b6576040517f08c379a000000000000000000000000000000000000000000000000000000000815260040180806020018281038252600c8152602001807f6d756c2d6f766572666c6f77000000000000000000000000000000000000000081526020015060200191505060405180910390fd5b5b92915050565b60006140d883670de0b6b3a7640000846142e163ffffffff16565b905080505b92915050565b600060149054906101000a900460ff16151515614135576040517f08c379a000000000000000000000000000000000000000000000000000000000815260040161412c90614e78565b60405180910390fd5b600060009054906101000a900473ffffffffffffffffffffffffffffffffffffffff1673ffffffffffffffffffffffffffffffffffffffff1663bf86d6906040518163ffffffff1660e01b815260040160206040518083038186803b15801561419e5760006000fd5b505afa1580156141b3573d600060003e3d6000fd5b505050506040513d601f19601f820116820180604052508101906141d791906145af565b151515614219576040517f08c379a000000000000000000000000000000000000000000000000000000000815260040161421090614c80565b60405180910390fd5b5b565b60008161422e57600a60005054614235565b6009600050545b90506142478382613b5c63ffffffff16565b92508250811561427957614269836011600050546137c490919063ffffffff16565b601160005081909090555061429d565b614291836012600050546137c490919063ffffffff16565b60126000508190909055505b60005b6142b3828561449a90919063ffffffff16565b905080506142c78184613be563ffffffff16565b808403935083505b6000841115156142a0575b50505b5050565b6000600060006000198587098587029250828110838203039150506000811415614324576000841115156143155760006000fd5b838204925082925050506143db565b80841115156143335760006000fd5b60008486880990508281118203915080830392506000858660000316905080860495508084049350600181826000030401905080830284179350835060006002876003021890508087026002038102905080508087026002038102905080508087026002038102905080508087026002038102905080508087026002038102905080508087026002038102905080508085029550855085955050505050506143db5650505050505b9392505050565b60006143f5426144b8909063ffffffff16565b905080505b90565b60008267ffffffffffffffff1682840191508167ffffffffffffffff1610151515614493576040517f08c379a000000000000000000000000000000000000000000000000000000000815260040180806020018281038252600c8152602001807f6164642d6f766572666c6f77000000000000000000000000000000000000000081526020015060200191505060405180910390fd5b5b92915050565b60008183106144a957816144ab565b825b90506144b2565b92915050565b6000680100000000000000008210151561451d576040517f08c379a000000000000000000000000000000000000000000000000000000000815260040180806020018281038252602681526020018061504d6026913960400191505060405180910390fd5b819050614525565b919050565b6040518060a001604052806000815260200160008152602001600073ffffffffffffffffffffffffffffffffffffffff168152602001600067ffffffffffffffff168152602001600067ffffffffffffffff16815260200150905661504b565b60008135905067ffffffffffffffff8116811415156145a95760006000fd5b5b919050565b6000602082840312156145c0578081fd5b81516145cb8161500d565b809150505b92915050565b6000602082840312156145e7578081fd5b81357fffffffff00000000000000000000000000000000000000000000000000000000811681141515614618578182fd5b809150505b92915050565b600060208284031215614634578081fd5b815161463f81615022565b809150505b92915050565b60006020828403121561465b578081fd5b815161466681615022565b809150505b92915050565b600060208284031215614682578081fd5b815161468d81615022565b809150505b92915050565b6000602082840312156146a9578081fd5b81516146b481615022565b809150505b92915050565b6000602082840312156146d0578081fd5b81356146db81615022565b809150505b92915050565b6000602082840312156146f7578081fd5b815161470281615022565b809150505b92915050565b60006020828403121561471e578081fd5b813590505b92915050565b60006020828403121561473a578081fd5b815190505b92915050565b6000600060408385031215614758578081fd5b82359150602083013561476a8161500d565b809150505b9250929050565b6000600060408385031215614789578182fd5b82359150602083013590505b9250929050565b6000602082840312156147ad578081fd5b6147b68261458a565b90505b92915050565b60006000604083850312156147d2578182fd5b6147db8361458a565b915060208301356147eb8161500d565b809150505b9250929050565b600060006040838503121561480a578182fd5b6148138361458a565b9150602083013590505b9250929050565b6000815180845260208085019450808401835b8381101561485b57815115158752828701965082820191505b600181019050614837565b505050508290505b92915050565b6000815180845260208085019450808401835b8381101561489e5781518752828701965082820191505b60018101905061487c565b505050508290505b92915050565b60007f6d6178426174636853697a6500000000000000000000000000000000000000008252600c820190505b919050565b60007f657874656e73696f6e50657242696400000000000000000000000000000000008252600f820190505b919050565b60007f6d6178446566696369744c6f7453697a6500000000000000000000000000000082526011820190505b919050565b60007f6d617841756374696f6e4475726174696f6e000000000000000000000000000082526012820190505b919050565b60007f6d6178537572706c75734c6f7453697a6500000000000000000000000000000082526011820190505b919050565b60007f6d696e41756374696f6e4475726174696f6e000000000000000000000000000082526012820190505b919050565b60007f6d696e42696444656c74610000000000000000000000000000000000000000008252600b820190505b919050565b60007f6d696e4c6f7453697a65000000000000000000000000000000000000000000008252600a820190505b919050565b60007f72657365727665734275666665724c6f776572426f756e64000000000000000082526018820190505b919050565b60007f72657365727665734275666665725570706572426f756e64000000000000000082526018820190505b919050565b600060208201905073ffffffffffffffffffffffffffffffffffffffff831682525b92915050565b600060608201905073ffffffffffffffffffffffffffffffffffffffff80861683528085166020840152508260408301525b949350505050565b600060408201905073ffffffffffffffffffffffffffffffffffffffff841682528260208301525b9392505050565b600060408201905073ffffffffffffffffffffffffffffffffffffffff841682528260208301525b9392505050565b600060608083018184528087518083526080925082860191506020808a01865b83811015614be5578151805186528381015184870152604073ffffffffffffffffffffffffffffffffffffffff818301511681880152508781015167ffffffffffffffff8082168a8901528089840151168989015250505060a08501945082820191505b600181019050614b76565b5050868303818801525050614bfa8188614869565b925050508281036040840152614c108185614824565b9150505b949350505050565b600060208201905082151582525b92915050565b600060208201905073ffffffffffffffffffffffffffffffffffffffff831682525b92915050565b600060208201905073ffffffffffffffffffffffffffffffffffffffff831682525b92915050565b600060208252601160208301527f50726f746f636f6c2073687574646f776e00000000000000000000000000000060408301526060820190505b919050565b600060208252600b60208301527f42696420746f6f206c6f7700000000000000000000000000000000000000000060408301526060820190505b919050565b600060208252601160208301527f446964206e6f7420756e6465722062696400000000000000000000000000000060408301526060820190505b919050565b600060208252600f60208301527f446964206e6f74206f757420626964000000000000000000000000000000000060408301526060820190505b919050565b600060208252600e60208301527f4e6f7420417574686f72697a656400000000000000000000000000000000000060408301526060820190505b919050565b600060208252600d60208301527f4c50205265656e7472616e63790000000000000000000000000000000000000060408301526060820190505b919050565b600060208252601860208301527f43616e7420736574746c6520746869732061756374696f6e000000000000000060408301526060820190505b919050565b600060208252600c60208301527f42696420746f6f2068696768000000000000000000000000000000000000000060408301526060820190505b919050565b600060208252601360208301527f436f6e74726163742069732073746f707065640000000000000000000000000060408301526060820190505b919050565b600060208252601c60208301527f557365206c61746573742041756374696f6e7320636f6e74726163740000000060408301526060820190505b919050565b600060208252601460208301527f4e6f2061756374696f6e7320746f20737461727400000000000000000000000060408301526060820190505b919050565b600060208252601060208301527f41756374696f6e206e6f74206c6976650000000000000000000000000000000060408301526060820190505b919050565b60006020820190508282525b92915050565b60006040820190508382528260208301525b9392505050565b600060a08201905086825285602083015273ffffffffffffffffffffffffffffffffffffffff8516604083015267ffffffffffffffff80851660608401528084166080840152505b9695505050505050565b600060208201905067ffffffffffffffff831682525b92915050565b8015158114151561501e5760006000fd5b5b50565b73ffffffffffffffffffffffffffffffffffffffff8116811415156150475760006000fd5b5b50565bfe53616665436173743a2076616c756520646f65736e27742066697420696e2036342062697473a2646970667358221220251a54a93506341febe382364c64804934eb20c4ca9a6af25a3397a1b73e99be64736f6c63430007060033",
  "linkReferences": {},
  "deployedLinkReferences": {}
}