{
  "_format": "hh-sol-artifact-1",
  "contractName": "AuctionsTestable",
  "sourceName": "contracts/mocks/AuctionsTestable.sol",
  "abi": [
    {
      "anonymous": false,
      "inputs": [
        {
          "indexed": true,
          "internalType": "bool",
          "name": "isSurplus",
          "type": "bool"
        },
        {
          "indexed": true,
          "internalType": "uint64",
          "name": "auctionID",
          "type": "uint64"
        },
        {
          "indexed": true,
          "internalType": "address",
          "name": "bidder",
          "type": "address"
        },
        {
          "indexed": false,
          "internalType": "uint256",
          "name": "bid",
          "type": "uint256"
        }
      ],
      "name": "AuctionBid",
      "type": "event"
    },
    {
      "anonymous": false,
      "inputs": [
        {
          "indexed": true,
          "internalType": "bool",
          "name": "isSurplus",
          "type": "bool"
        },
        {
          "indexed": true,
          "internalType": "uint64",
          "name": "auctionID",
          "type": "uint64"
        },
        {
          "indexed": true,
          "internalType": "address",
          "name": "winner",
          "type": "address"
        },
        {
          "indexed": false,
          "internalType": "address",
          "name": "creator",
          "type": "address"
        },
        {
          "indexed": false,
          "internalType": "address",
          "name": "cleaner",
          "type": "address"
        }
      ],
      "name": "AuctionSettled",
      "type": "event"
    },
    {
      "anonymous": false,
      "inputs": [
        {
          "indexed": true,
          "internalType": "bool",
          "name": "isSurplus",
          "type": "bool"
        },
        {
          "indexed": true,
          "internalType": "uint64",
          "name": "auctionID",
          "type": "uint64"
        },
        {
          "indexed": true,
          "internalType": "uint256",
          "name": "count",
          "type": "uint256"
        },
        {
          "indexed": false,
          "internalType": "uint64",
          "name": "maxEndTime",
          "type": "uint64"
        }
      ],
      "name": "AuctionStarted",
      "type": "event"
    },
    {
      "anonymous": false,
      "inputs": [
        {
          "indexed": true,
          "internalType": "address",
          "name": "governor",
          "type": "address"
        }
      ],
      "name": "Initialized",
      "type": "event"
    },
    {
      "anonymous": false,
      "inputs": [
        {
          "indexed": true,
          "internalType": "string",
          "name": "paramName",
          "type": "string"
        },
        {
          "indexed": false,
          "internalType": "uint256",
          "name": "value",
          "type": "uint256"
        }
      ],
      "name": "ParameterUpdated",
      "type": "event"
    },
    {
      "anonymous": false,
      "inputs": [
        {
          "indexed": true,
          "internalType": "string",
          "name": "paramName",
          "type": "string"
        },
        {
          "indexed": false,
          "internalType": "uint64",
          "name": "value",
          "type": "uint64"
        }
      ],
      "name": "ParameterUpdated64",
      "type": "event"
    },
    {
      "anonymous": false,
      "inputs": [],
      "name": "Stopped",
      "type": "event"
    },
    {
      "inputs": [
        {
          "internalType": "uint256",
          "name": "amtIn",
          "type": "uint256"
        },
        {
          "internalType": "uint256",
          "name": "lotSize",
          "type": "uint256"
        }
      ],
      "name": "auctionSize",
      "outputs": [
        {
          "internalType": "uint256",
          "name": "size",
          "type": "uint256"
        }
      ],
      "stateMutability": "view",
      "type": "function"
    },
    {
      "inputs": [],
      "name": "batchSize",
      "outputs": [
        {
          "internalType": "uint64",
          "name": "",
          "type": "uint64"
        }
      ],
      "stateMutability": "view",
      "type": "function"
    },
    {
      "inputs": [
        {
          "internalType": "uint64",
          "name": "auctionID",
          "type": "uint64"
        },
        {
          "internalType": "uint256",
          "name": "bid",
          "type": "uint256"
        }
      ],
      "name": "bidDeficitAuction",
      "outputs": [],
      "stateMutability": "nonpayable",
      "type": "function"
    },
    {
      "inputs": [
        {
          "internalType": "uint64",
          "name": "auctionID",
          "type": "uint64"
        },
        {
          "internalType": "uint256",
          "name": "bid",
          "type": "uint256"
        }
      ],
      "name": "bidSurplusAuction",
      "outputs": [],
      "stateMutability": "nonpayable",
      "type": "function"
    },
    {
      "inputs": [],
      "name": "checkReservesAndStartAuctions",
      "outputs": [],
      "stateMutability": "nonpayable",
      "type": "function"
    },
    {
      "inputs": [],
      "name": "cleanerRewardRatio",
      "outputs": [
        {
          "internalType": "uint256",
          "name": "",
          "type": "uint256"
        }
      ],
      "stateMutability": "view",
      "type": "function"
    },
    {
      "inputs": [],
      "name": "cnp",
      "outputs": [
        {
          "internalType": "contract ICNP",
          "name": "",
          "type": "address"
        }
      ],
      "stateMutability": "view",
      "type": "function"
    },
    {
      "inputs": [],
      "name": "coinToBeBought",
      "outputs": [
        {
          "internalType": "uint256",
          "name": "",
          "type": "uint256"
        }
      ],
      "stateMutability": "view",
      "type": "function"
    },
    {
      "inputs": [],
      "name": "coinToBeSold",
      "outputs": [
        {
          "internalType": "uint256",
          "name": "",
          "type": "uint256"
        }
      ],
      "stateMutability": "view",
      "type": "function"
    },
    {
      "inputs": [],
      "name": "creatorRewardRatio",
      "outputs": [
        {
          "internalType": "uint256",
          "name": "",
          "type": "uint256"
        }
      ],
      "stateMutability": "view",
      "type": "function"
    },
    {
      "inputs": [
        {
          "internalType": "uint64",
          "name": "",
          "type": "uint64"
        }
      ],
      "name": "deficitAuction",
      "outputs": [
        {
          "internalType": "uint256",
          "name": "bid",
          "type": "uint256"
        },
        {
          "internalType": "uint256",
          "name": "count",
          "type": "uint256"
        },
        {
          "internalType": "uint64",
          "name": "endTime",
          "type": "uint64"
        },
        {
          "internalType": "address",
          "name": "bidder",
          "type": "address"
        },
        {
          "internalType": "uint64",
          "name": "maxEndTime",
          "type": "uint64"
        },
        {
          "internalType": "address",
          "name": "creator",
          "type": "address"
        }
      ],
      "stateMutability": "view",
      "type": "function"
    },
    {
      "inputs": [],
      "name": "deficitAuctionCount",
      "outputs": [
        {
          "internalType": "uint64",
          "name": "",
          "type": "uint64"
        }
      ],
      "stateMutability": "view",
      "type": "function"
    },
    {
      "inputs": [],
      "name": "deficitAuctionLotSize",
      "outputs": [
        {
          "internalType": "uint256",
          "name": "",
          "type": "uint256"
        }
      ],
      "stateMutability": "view",
      "type": "function"
    },
    {
      "inputs": [
        {
          "internalType": "uint64",
          "name": "auctionID",
          "type": "uint64"
        }
      ],
      "name": "deficitAuctionReadyToBeSettled",
      "outputs": [
        {
          "internalType": "bool",
          "name": "complete",
          "type": "bool"
        }
      ],
      "stateMutability": "view",
      "type": "function"
    },
    {
      "inputs": [],
      "name": "extensionPerBid",
      "outputs": [
        {
          "internalType": "uint64",
          "name": "",
          "type": "uint64"
        }
      ],
      "stateMutability": "view",
      "type": "function"
    },
    {
      "inputs": [],
      "name": "governor",
      "outputs": [
        {
          "internalType": "contract IGovernor",
          "name": "",
          "type": "address"
        }
      ],
      "stateMutability": "view",
      "type": "function"
    },
    {
      "inputs": [
        {
          "internalType": "contract IGovernor",
          "name": "governor_",
          "type": "address"
        }
      ],
      "name": "init",
      "outputs": [],
      "stateMutability": "nonpayable",
      "type": "function"
    },
    {
      "inputs": [],
      "name": "lastAuctionCompletionTime",
      "outputs": [
        {
          "internalType": "uint64",
          "name": "",
          "type": "uint64"
        }
      ],
      "stateMutability": "view",
      "type": "function"
    },
    {
      "inputs": [],
      "name": "maxAuctionDuration",
      "outputs": [
        {
          "internalType": "uint64",
          "name": "",
          "type": "uint64"
        }
      ],
      "stateMutability": "view",
      "type": "function"
    },
    {
      "inputs": [],
      "name": "minAuctionDuration",
      "outputs": [
        {
          "internalType": "uint64",
          "name": "",
          "type": "uint64"
        }
      ],
      "stateMutability": "view",
      "type": "function"
    },
    {
      "inputs": [],
      "name": "minAuctionLotSize",
      "outputs": [
        {
          "internalType": "uint256",
          "name": "",
          "type": "uint256"
        }
      ],
      "stateMutability": "view",
      "type": "function"
    },
    {
      "inputs": [],
      "name": "minBidDelta",
      "outputs": [
        {
          "internalType": "uint256",
          "name": "",
          "type": "uint256"
        }
      ],
      "stateMutability": "view",
      "type": "function"
    },
    {
      "inputs": [],
      "name": "oldestDeficitAuction",
      "outputs": [
        {
          "internalType": "uint64",
          "name": "",
          "type": "uint64"
        }
      ],
      "stateMutability": "view",
      "type": "function"
    },
    {
      "inputs": [],
      "name": "oldestSurplusAuction",
      "outputs": [
        {
          "internalType": "uint64",
          "name": "",
          "type": "uint64"
        }
      ],
      "stateMutability": "view",
      "type": "function"
    },
    {
      "inputs": [
        {
          "internalType": "uint32",
          "name": "auctionID",
          "type": "uint32"
        }
      ],
      "name": "requireDeficitAuctionExists",
      "outputs": [],
      "stateMutability": "view",
      "type": "function"
    },
    {
      "inputs": [
        {
          "internalType": "uint32",
          "name": "auctionID",
          "type": "uint32"
        }
      ],
      "name": "requireSurplusAuctionExists",
      "outputs": [],
      "stateMutability": "view",
      "type": "function"
    },
    {
      "inputs": [],
      "name": "reservesBufferLowerBound",
      "outputs": [
        {
          "internalType": "uint256",
          "name": "",
          "type": "uint256"
        }
      ],
      "stateMutability": "view",
      "type": "function"
    },
    {
      "inputs": [],
      "name": "reservesBufferUpperBound",
      "outputs": [
        {
          "internalType": "uint256",
          "name": "",
          "type": "uint256"
        }
      ],
      "stateMutability": "view",
      "type": "function"
    },
    {
      "inputs": [
        {
          "internalType": "uint64",
          "name": "size",
          "type": "uint64"
        }
      ],
      "name": "setBatchSize",
      "outputs": [],
      "stateMutability": "nonpayable",
      "type": "function"
    },
    {
      "inputs": [
        {
          "internalType": "uint256",
          "name": "ratio",
          "type": "uint256"
        }
      ],
      "name": "setCleanerRewardRatio",
      "outputs": [],
      "stateMutability": "nonpayable",
      "type": "function"
    },
    {
      "inputs": [
        {
          "internalType": "uint256",
          "name": "ratio",
          "type": "uint256"
        }
      ],
      "name": "setCreatorRewardRatio",
      "outputs": [],
      "stateMutability": "nonpayable",
      "type": "function"
    },
    {
      "inputs": [
        {
          "internalType": "uint256",
          "name": "size",
          "type": "uint256"
        }
      ],
      "name": "setDeficitAuctionLotSize",
      "outputs": [],
      "stateMutability": "nonpayable",
      "type": "function"
    },
    {
      "inputs": [
        {
          "internalType": "uint64",
          "name": "extension",
          "type": "uint64"
        }
      ],
      "name": "setExtensionPerBid",
      "outputs": [],
      "stateMutability": "nonpayable",
      "type": "function"
    },
    {
      "inputs": [
        {
          "internalType": "uint64",
          "name": "duration",
          "type": "uint64"
        }
      ],
      "name": "setMaxAuctionDuration",
      "outputs": [],
      "stateMutability": "nonpayable",
      "type": "function"
    },
    {
      "inputs": [
        {
          "internalType": "uint64",
          "name": "duration",
          "type": "uint64"
        }
      ],
      "name": "setMinAuctionDuration",
      "outputs": [],
      "stateMutability": "nonpayable",
      "type": "function"
    },
    {
      "inputs": [
        {
          "internalType": "uint256",
          "name": "size",
          "type": "uint256"
        }
      ],
      "name": "setMinAuctionLotSize",
      "outputs": [],
      "stateMutability": "nonpayable",
      "type": "function"
    },
    {
      "inputs": [
        {
          "internalType": "uint256",
          "name": "delta",
          "type": "uint256"
        }
      ],
      "name": "setMinBidDelta",
      "outputs": [],
      "stateMutability": "nonpayable",
      "type": "function"
    },
    {
      "inputs": [
        {
          "internalType": "uint256",
          "name": "bound",
          "type": "uint256"
        }
      ],
      "name": "setReservesBufferLowerBound",
      "outputs": [],
      "stateMutability": "nonpayable",
      "type": "function"
    },
    {
      "inputs": [
        {
          "internalType": "uint256",
          "name": "bound",
          "type": "uint256"
        }
      ],
      "name": "setReservesBufferUpperBound",
      "outputs": [],
      "stateMutability": "nonpayable",
      "type": "function"
    },
    {
      "inputs": [
        {
          "internalType": "uint256",
          "name": "size",
          "type": "uint256"
        }
      ],
      "name": "setSurplusAuctionLotSize",
      "outputs": [],
      "stateMutability": "nonpayable",
      "type": "function"
    },
    {
      "inputs": [
        {
          "internalType": "uint64",
          "name": "auctionID",
          "type": "uint64"
        }
      ],
      "name": "settleDeficitAuction",
      "outputs": [],
      "stateMutability": "nonpayable",
      "type": "function"
    },
    {
      "inputs": [
        {
          "internalType": "uint64",
          "name": "auctionID",
          "type": "uint64"
        }
      ],
      "name": "settleSurplusAuction",
      "outputs": [],
      "stateMutability": "nonpayable",
      "type": "function"
    },
    {
      "inputs": [],
      "name": "shouldStartAuctions",
      "outputs": [
        {
          "internalType": "uint256",
          "name": "surplusAmount",
          "type": "uint256"
        },
        {
          "internalType": "uint256",
          "name": "deficitAmount",
          "type": "uint256"
        }
      ],
      "stateMutability": "view",
      "type": "function"
    },
    {
      "inputs": [
        {
          "internalType": "uint256",
          "name": "count",
          "type": "uint256"
        },
        {
          "internalType": "bool",
          "name": "isSurplus",
          "type": "bool"
        }
      ],
      "name": "startAuction",
      "outputs": [],
      "stateMutability": "nonpayable",
      "type": "function"
    },
    {
      "inputs": [
        {
          "internalType": "uint256",
          "name": "amt",
          "type": "uint256"
        },
        {
          "internalType": "bool",
          "name": "isSurplus",
          "type": "bool"
        }
      ],
      "name": "startAuctions",
      "outputs": [],
      "stateMutability": "nonpayable",
      "type": "function"
    },
    {
      "inputs": [],
      "name": "stop",
      "outputs": [],
      "stateMutability": "nonpayable",
      "type": "function"
    },
    {
      "inputs": [
        {
          "internalType": "uint64",
          "name": "",
          "type": "uint64"
        }
      ],
      "name": "surplusAuction",
      "outputs": [
        {
          "internalType": "uint256",
          "name": "bid",
          "type": "uint256"
        },
        {
          "internalType": "uint256",
          "name": "count",
          "type": "uint256"
        },
        {
          "internalType": "uint64",
          "name": "endTime",
          "type": "uint64"
        },
        {
          "internalType": "address",
          "name": "bidder",
          "type": "address"
        },
        {
          "internalType": "uint64",
          "name": "maxEndTime",
          "type": "uint64"
        },
        {
          "internalType": "address",
          "name": "creator",
          "type": "address"
        }
      ],
      "stateMutability": "view",
      "type": "function"
    },
    {
      "inputs": [],
      "name": "surplusAuctionCount",
      "outputs": [
        {
          "internalType": "uint64",
          "name": "",
          "type": "uint64"
        }
      ],
      "stateMutability": "view",
      "type": "function"
    },
    {
      "inputs": [],
      "name": "surplusAuctionLotSize",
      "outputs": [
        {
          "internalType": "uint256",
          "name": "",
          "type": "uint256"
        }
      ],
      "stateMutability": "view",
      "type": "function"
    },
    {
      "inputs": [
        {
          "internalType": "uint64",
          "name": "auctionID",
          "type": "uint64"
        }
      ],
      "name": "surplusAuctionReadyToBeSettled",
      "outputs": [
        {
          "internalType": "bool",
          "name": "complete",
          "type": "bool"
        }
      ],
      "stateMutability": "view",
      "type": "function"
    }
  ],
  "bytecode": "0x6080604052670e4b4b8af6a700006007556611c37937e080006008556611c37937e08000600955683635c9adc5dea00000600a5569021e19e0c9bab2400000600b5569021e19e0c9bab2400000600c5566470de4df820000600d5566d529ae9e860000600e55600a600f60006101000a81548167ffffffffffffffff021916908367ffffffffffffffff160217905550610708600f60086101000a81548167ffffffffffffffff021916908367ffffffffffffffff16021790555061a8c0600f60106101000a81548167ffffffffffffffff021916908367ffffffffffffffff1602179055506201fa40600f60186101000a81548167ffffffffffffffff021916908367ffffffffffffffff16021790555034801561011d57600080fd5b5033600560006101000a81548173ffffffffffffffffffffffffffffffffffffffff021916908373ffffffffffffffffffffffffffffffffffffffff160217905550600160068190555061624480620001776000396000f3fe608060405234801561001057600080fd5b50600436106103365760003560e01c806369071acc116101b2578063c2b6722a116100f9578063dff2d3bb116100a2578063f4daaba11161007c578063f4daaba114610c54578063fac98b3a14610c7c578063faf95d2d14610ca4578063fd9ada6c14610ccc57610336565b8063dff2d3bb14610bea578063ee3528f014610c08578063f3789b1614610c2657610336565b8063d005d2eb116100d3578063d005d2eb14610b56578063dbdd113114610b8e578063ddf31e6714610bbc57610336565b8063c2b6722a14610ad6578063c90a551514610afe578063cdbd373b14610b1c57610336565b806399eeec951161015b578063a958c03311610135578063a958c03314610a56578063af2ed58614610a60578063bd54f41214610aae57610336565b806399eeec95146109a65780639d531857146109da578063a4f0088314610a1457610336565b8063887c67d91161018c578063887c67d91461090e5780638d1fede41461093c5780639210b35d1461095a57610336565b806369071acc1461088057806375d0ef52146108ae5780637eb12af7146108e657610336565b80633db966a611610281578063541348761161022a5780635a35ef07116102045780635a35ef0714610767578063616cb0cf14610785578063651cf64d146107a35780636705be0f1461085257610336565b8063541348761461070357806354cccf081461072b57806354f634fb1461074957610336565b80634ae8470d1161025b5780634ae8470d1461066f5780634d2025fa1461069d57806350a2f0a8146106d557610336565b80633db966a6146105f157806348c9581e1461060f5780634a2304b11461063757610336565b80632f69e0aa116102e357806337ca44fc116102bd57806337ca44fc146105675780633a9b65791461059f5780633d9e6aad146105bd57610336565b80632f69e0aa1461045c57806332d78554146104845780633427c4ef146104b857610336565b806319ab453c1161031457806319ab453c146103b157806325df9538146103f55780632e748d551461041a57610336565b806307da68f51461033b5780630c340a24146103455780630fb4e2b314610379575b600080fd5b610343610d1a565b005b61034d610de5565b604051808273ffffffffffffffffffffffffffffffffffffffff16815260200191505060405180910390f35b6103af6004803603602081101561038f57600080fd5b81019080803567ffffffffffffffff169060200190929190505050610e09565b005b6103f3600480360360208110156103c757600080fd5b81019080803573ffffffffffffffffffffffffffffffffffffffff169060200190929190505050610f6d565b005b6103fd611467565b604051808381526020018281526020019250505060405180910390f35b61045a6004803603604081101561043057600080fd5b81019080803567ffffffffffffffff169060200190929190803590602001909291905050506118c6565b005b6104646120fe565b604051808267ffffffffffffffff16815260200191505060405180910390f35b6104b66004803603602081101561049a57600080fd5b81019080803563ffffffff169060200190929190505050612118565b005b6104ee600480360360208110156104ce57600080fd5b81019080803567ffffffffffffffff16906020019092919050505061212a565b604051808781526020018681526020018567ffffffffffffffff1681526020018473ffffffffffffffffffffffffffffffffffffffff1681526020018367ffffffffffffffff1681526020018273ffffffffffffffffffffffffffffffffffffffff168152602001965050505050505060405180910390f35b61059d6004803603602081101561057d57600080fd5b81019080803567ffffffffffffffff1690602001909291905050506121ce565b005b6105a761237e565b6040518082815260200191505060405180910390f35b6105ef600480360360208110156105d357600080fd5b81019080803563ffffffff169060200190929190505050612384565b005b6105f9612396565b6040518082815260200191505060405180910390f35b61061761239c565b604051808267ffffffffffffffff16815260200191505060405180910390f35b61066d6004803603602081101561064d57600080fd5b81019080803567ffffffffffffffff1690602001909291905050506123b6565b005b61069b6004803603602081101561068557600080fd5b8101908080359060200190929190505050612bf7565b005b6106d3600480360360208110156106b357600080fd5b81019080803567ffffffffffffffff169060200190929190505050612d55565b005b610701600480360360208110156106eb57600080fd5b8101908080359060200190929190505050612ee7565b005b61070b613035565b604051808267ffffffffffffffff16815260200191505060405180910390f35b61073361304f565b6040518082815260200191505060405180910390f35b610751613055565b6040518082815260200191505060405180910390f35b61076f61305b565b6040518082815260200191505060405180910390f35b61078d613061565b6040518082815260200191505060405180910390f35b6107d9600480360360208110156107b957600080fd5b81019080803567ffffffffffffffff169060200190929190505050613067565b604051808781526020018681526020018567ffffffffffffffff1681526020018473ffffffffffffffffffffffffffffffffffffffff1681526020018367ffffffffffffffff1681526020018273ffffffffffffffffffffffffffffffffffffffff168152602001965050505050505060405180910390f35b61087e6004803603602081101561086857600080fd5b810190808035906020019092919050505061310b565b005b6108ac6004803603602081101561089657600080fd5b8101908080359060200190929190505050613253565b005b6108e4600480360360208110156108c457600080fd5b81019080803567ffffffffffffffff16906020019092919050505061339b565b005b6108ee61354b565b604051808267ffffffffffffffff16815260200191505060405180910390f35b61093a6004803603602081101561092457600080fd5b8101908080359060200190929190505050613565565b005b6109446136ad565b6040518082815260200191505060405180910390f35b6109906004803603604081101561097057600080fd5b8101908080359060200190929190803590602001909291905050506136b3565b6040518082815260200191505060405180910390f35b6109ae6136c7565b604051808273ffffffffffffffffffffffffffffffffffffffff16815260200191505060405180910390f35b610a12600480360360408110156109f057600080fd5b81019080803590602001909291908035151590602001909291905050506136ed565b005b610a5460048036036040811015610a2a57600080fd5b81019080803567ffffffffffffffff169060200190929190803590602001909291905050506136fc565b005b610a5e613f27565b005b610a9660048036036020811015610a7657600080fd5b81019080803567ffffffffffffffff1690602001909291905050506142e2565b60405180821515815260200191505060405180910390f35b610ab661432f565b604051808267ffffffffffffffff16815260200191505060405180910390f35b610ade614349565b604051808267ffffffffffffffff16815260200191505060405180910390f35b610b06614363565b6040518082815260200191505060405180910390f35b610b5460048036036040811015610b3257600080fd5b8101908080359060200190929190803515159060200190929190505050614369565b005b610b8c60048036036020811015610b6c57600080fd5b81019080803567ffffffffffffffff169060200190929190505050614378565b005b610bba60048036036020811015610ba457600080fd5b8101908080359060200190929190505050614b9a565b005b610be860048036036020811015610bd257600080fd5b8101908080359060200190929190505050614ce8565b005b610bf2614e36565b6040518082815260200191505060405180910390f35b610c10614e3c565b6040518082815260200191505060405180910390f35b610c5260048036036020811015610c3c57600080fd5b8101908080359060200190929190505050614e42565b005b610c5c614fa9565b604051808267ffffffffffffffff16815260200191505060405180910390f35b610c84614fc3565b604051808267ffffffffffffffff16815260200191505060405180910390f35b610cac614fdd565b604051808267ffffffffffffffff16815260200191505060405180910390f35b610d0260048036036020811015610ce257600080fd5b81019080803567ffffffffffffffff169060200190929190505050614ff7565b60405180821515815260200191505060405180910390f35b60008054906101000a900473ffffffffffffffffffffffffffffffffffffffff1673ffffffffffffffffffffffffffffffffffffffff163373ffffffffffffffffffffffffffffffffffffffff1614610ddb576040517f08c379a00000000000000000000000000000000000000000000000000000000081526004018080602001828103825260198152602001807f476f7665726e65643a204e6f7420417574686f72697a65642e0000000000000081525060200191505060405180910390fd5b610de3615044565b565b60008054906101000a900473ffffffffffffffffffffffffffffffffffffffff1681565b60008054906101000a900473ffffffffffffffffffffffffffffffffffffffff1673ffffffffffffffffffffffffffffffffffffffff163373ffffffffffffffffffffffffffffffffffffffff1614610eca576040517f08c379a00000000000000000000000000000000000000000000000000000000081526004018080602001828103825260198152602001807f476f7665726e65643a204e6f7420417574686f72697a65642e0000000000000081525060200191505060405180910390fd5b80600f60086101000a81548167ffffffffffffffff021916908367ffffffffffffffff16021790555060405180807f657874656e73696f6e5065724269640000000000000000000000000000000000815250600f01905060405180910390207f6293347933ad2997134e224ac8cd2e39908a4a22aeed9af52127b4bbf765297882604051808267ffffffffffffffff16815260200191505060405180910390a250565b600560009054906101000a900473ffffffffffffffffffffffffffffffffffffffff1673ffffffffffffffffffffffffffffffffffffffff163373ffffffffffffffffffffffffffffffffffffffff1614611030576040517f08c379a000000000000000000000000000000000000000000000000000000000815260040180806020018281038252601e8152602001807f476f7665726e65643a20496e6974206e6f7420617574686f72697a65642e000081525060200191505060405180910390fd5b600560006101000a81549073ffffffffffffffffffffffffffffffffffffffff02191690558073ffffffffffffffffffffffffffffffffffffffff167f908408e307fc569b417f6cbec5d5a06f44a0a505ac0479b47d421a4b2fd6a1e660405160405180910390a2806000806101000a81548173ffffffffffffffffffffffffffffffffffffffff021916908373ffffffffffffffffffffffffffffffffffffffff16021790555060008054906101000a900473ffffffffffffffffffffffffffffffffffffffff1673ffffffffffffffffffffffffffffffffffffffff16639624e83e6040518163ffffffff1660e01b815260040160206040518083038186803b15801561113e57600080fd5b505afa158015611152573d6000803e3d6000fd5b505050506040513d602081101561116857600080fd5b8101908080519060200190929190505050600160006101000a81548173ffffffffffffffffffffffffffffffffffffffff021916908373ffffffffffffffffffffffffffffffffffffffff16021790555060008054906101000a900473ffffffffffffffffffffffffffffffffffffffff1673ffffffffffffffffffffffffffffffffffffffff166311df99956040518163ffffffff1660e01b815260040160206040518083038186803b15801561121f57600080fd5b505afa158015611233573d6000803e3d6000fd5b505050506040513d602081101561124957600080fd5b8101908080519060200190929190505050600260006101000a81548173ffffffffffffffffffffffffffffffffffffffff021916908373ffffffffffffffffffffffffffffffffffffffff16021790555060008054906101000a900473ffffffffffffffffffffffffffffffffffffffff1673ffffffffffffffffffffffffffffffffffffffff1663d478b0876040518163ffffffff1660e01b815260040160206040518083038186803b15801561130057600080fd5b505afa158015611314573d6000803e3d6000fd5b505050506040513d602081101561132a57600080fd5b8101908080519060200190929190505050600360006101000a81548173ffffffffffffffffffffffffffffffffffffffff021916908373ffffffffffffffffffffffffffffffffffffffff16021790555060008054906101000a900473ffffffffffffffffffffffffffffffffffffffff1673ffffffffffffffffffffffffffffffffffffffff16633fc8cef36040518163ffffffff1660e01b815260040160206040518083038186803b1580156113e157600080fd5b505afa1580156113f5573d6000803e3d6000fd5b505050506040513d602081101561140b57600080fd5b8101908080519060200190929190505050600460006101000a81548173ffffffffffffffffffffffffffffffffffffffff021916908373ffffffffffffffffffffffffffffffffffffffff16021790555061146461508d565b50565b6000803073ffffffffffffffffffffffffffffffffffffffff1660008054906101000a900473ffffffffffffffffffffffffffffffffffffffff1673ffffffffffffffffffffffffffffffffffffffff166385aa61036040518163ffffffff1660e01b815260040160206040518083038186803b1580156114e757600080fd5b505afa1580156114fb573d6000803e3d6000fd5b505050506040513d602081101561151157600080fd5b810190808051906020019092919050505073ffffffffffffffffffffffffffffffffffffffff16146115ab576040517f08c379a000000000000000000000000000000000000000000000000000000000815260040180806020018281038252601d8152602001807f557365206c61746573742041756374696f6e7320636f6e74726163742e00000081525060200191505060405180910390fd5b60008060009054906101000a900473ffffffffffffffffffffffffffffffffffffffff1673ffffffffffffffffffffffffffffffffffffffff166311df99956040518163ffffffff1660e01b815260040160206040518083038186803b15801561161457600080fd5b505afa158015611628573d6000803e3d6000fd5b505050506040513d602081101561163e57600080fd5b810190808051906020019092919050505073ffffffffffffffffffffffffffffffffffffffff166375172a8b6040518163ffffffff1660e01b815260040160206040518083038186803b15801561169457600080fd5b505afa1580156116a8573d6000803e3d6000fd5b505050506040513d60208110156116be57600080fd5b8101908080519060200190929190505050905060008060009054906101000a900473ffffffffffffffffffffffffffffffffffffffff1673ffffffffffffffffffffffffffffffffffffffff16639624e83e6040518163ffffffff1660e01b815260040160206040518083038186803b15801561173a57600080fd5b505afa15801561174e573d6000803e3d6000fd5b505050506040513d602081101561176457600080fd5b810190808051906020019092919050505073ffffffffffffffffffffffffffffffffffffffff16630dca59c16040518163ffffffff1660e01b815260040160206040518083038186803b1580156117ba57600080fd5b505afa1580156117ce573d6000803e3d6000fd5b505050506040513d60208110156117e457600080fd5b81019080805190602001909291905050509050600061180e600e548361517090919063ffffffff16565b90506000611827600d548461517090919063ffffffff16565b90506000600a611840838561520f90919063ffffffff16565b8161184757fe5b049050826118606014548761520f90919063ffffffff16565b1115611885578083601454870303019650600a5487101561188057600096505b6118bd565b8161189b6015548761525990919063ffffffff16565b10156118bc578060155486018303019550600a548610156118bb57600095505b5b5b50505050509091565b600360009054906101000a900473ffffffffffffffffffffffffffffffffffffffff1673ffffffffffffffffffffffffffffffffffffffff1663e97dcb626040518163ffffffff1660e01b8152600401600060405180830381600087803b15801561193057600080fd5b505af1158015611944573d6000803e3d6000fd5b50505050600260065414156119c1576040517f08c379a000000000000000000000000000000000000000000000000000000000815260040180806020018281038252601d8152602001807f4c6f636b50726f746f636f6c3a207265656e7472616e742063616c6c2e00000081525060200191505060405180910390fd5b6002600681905550600460149054906101000a900460ff1615611a4c576040517f08c379a000000000000000000000000000000000000000000000000000000000815260040180806020018281038252601e8152602001807f476f7665726e65643a20436f6e74726163742069732073746f707065642e000081525060200191505060405180910390fd5b60008054906101000a900473ffffffffffffffffffffffffffffffffffffffff1673ffffffffffffffffffffffffffffffffffffffff1663bf86d6906040518163ffffffff1660e01b815260040160206040518083038186803b158015611ab257600080fd5b505afa158015611ac6573d6000803e3d6000fd5b505050506040513d6020811015611adc57600080fd5b810190808051906020019092919050505015611b43576040517f08c379a00000000000000000000000000000000000000000000000000000000081526004018080602001828103825260288152602001806161a06028913960400191505060405180910390fd5b611b4c826152e1565b6000601060008467ffffffffffffffff1667ffffffffffffffff1681526020019081526020016000209050611b808161535f565b15611bf3576040517f08c379a000000000000000000000000000000000000000000000000000000000815260040180806020018281038252601e8152602001807f41756374696f6e20636f6d706c6574652e2043616c6c20736574746c652e000081525060200191505060405180910390fd5b60008160020160089054906101000a900473ffffffffffffffffffffffffffffffffffffffff169050600082600001549050600080600073ffffffffffffffffffffffffffffffffffffffff168473ffffffffffffffffffffffffffffffffffffffff161415611cf1576103e8611c6d86600101546153d9565b81611c7457fe5b048611611ce9576040517f08c379a000000000000000000000000000000000000000000000000000000000815260040180806020018281038252600c8152602001807f42696420746f6f206c6f772e000000000000000000000000000000000000000081525060200191505060405180910390fd5b859150611d94565b611d066007548461517090919063ffffffff16565b861015611d7b576040517f08c379a00000000000000000000000000000000000000000000000000000000081526004018080602001828103825260108152602001807f446964206e6f74206f7574206269642e0000000000000000000000000000000081525060200191505060405180910390fd5b829050611d91838761520f90919063ffffffff16565b91505b6000611db5600f60089054906101000a900467ffffffffffffffff1661553b565b90508067ffffffffffffffff168660020160009054906101000a900467ffffffffffffffff1667ffffffffffffffff161015611e1757808660020160006101000a81548167ffffffffffffffff021916908367ffffffffffffffff1602179055505b338660020160086101000a81548173ffffffffffffffffffffffffffffffffffffffff021916908373ffffffffffffffffffffffffffffffffffffffff16021790555086866000018190555060008314611f1757601660009054906101000a900473ffffffffffffffffffffffffffffffffffffffff1673ffffffffffffffffffffffffffffffffffffffff166379cc679033856040518363ffffffff1660e01b8152600401808373ffffffffffffffffffffffffffffffffffffffff16815260200182815260200192505050600060405180830381600087803b158015611efe57600080fd5b505af1158015611f12573d6000803e3d6000fd5b505050505b6000821461200d57601660009054906101000a900473ffffffffffffffffffffffffffffffffffffffff1673ffffffffffffffffffffffffffffffffffffffff166323b872dd3387856040518463ffffffff1660e01b8152600401808473ffffffffffffffffffffffffffffffffffffffff1681526020018373ffffffffffffffffffffffffffffffffffffffff1681526020018281526020019350505050602060405180830381600087803b158015611fd057600080fd5b505af1158015611fe4573d6000803e3d6000fd5b505050506040513d6020811015611ffa57600080fd5b8101908080519060200190929190505050505b3373ffffffffffffffffffffffffffffffffffffffff168867ffffffffffffffff16600115157f4042f92f7a93056a4ed1492b7b5a495196ea67839a5934acc9a0d2e59d543d948a6040518082815260200191505060405180910390a45050505050506001600681905550600360009054906101000a900473ffffffffffffffffffffffffffffffffffffffff1673ffffffffffffffffffffffffffffffffffffffff1663e9fad8ee6040518163ffffffff1660e01b8152600401600060405180830381600087803b1580156120e257600080fd5b505af11580156120f6573d6000803e3d6000fd5b505050505050565b601360009054906101000a900467ffffffffffffffff1681565b6121278163ffffffff166152e1565b50565b60106020528060005260406000206000915090508060000154908060010154908060020160009054906101000a900467ffffffffffffffff16908060020160089054906101000a900473ffffffffffffffffffffffffffffffffffffffff16908060030160009054906101000a900467ffffffffffffffff16908060030160089054906101000a900473ffffffffffffffffffffffffffffffffffffffff16905086565b60008054906101000a900473ffffffffffffffffffffffffffffffffffffffff1673ffffffffffffffffffffffffffffffffffffffff163373ffffffffffffffffffffffffffffffffffffffff161461228f576040517f08c379a00000000000000000000000000000000000000000000000000000000081526004018080602001828103825260198152602001807f476f7665726e65643a204e6f7420417574686f72697a65642e0000000000000081525060200191505060405180910390fd5b80600f60186101000a81548167ffffffffffffffff021916908367ffffffffffffffff160217905550600f60189054906101000a900467ffffffffffffffff1667ffffffffffffffff16600f60109054906101000a900467ffffffffffffffff1667ffffffffffffffff161061230457600080fd5b60405180807f6d617841756374696f6e4475726174696f6e0000000000000000000000000000815250601201905060405180910390207f6293347933ad2997134e224ac8cd2e39908a4a22aeed9af52127b4bbf765297882604051808267ffffffffffffffff16815260200191505060405180910390a250565b600b5481565b6123938163ffffffff16615568565b50565b60155481565b600f60189054906101000a900467ffffffffffffffff1681565b600360009054906101000a900473ffffffffffffffffffffffffffffffffffffffff1673ffffffffffffffffffffffffffffffffffffffff1663e97dcb626040518163ffffffff1660e01b8152600401600060405180830381600087803b15801561242057600080fd5b505af1158015612434573d6000803e3d6000fd5b50505050600260065414156124b1576040517f08c379a000000000000000000000000000000000000000000000000000000000815260040180806020018281038252601d8152602001807f4c6f636b50726f746f636f6c3a207265656e7472616e742063616c6c2e00000081525060200191505060405180910390fd5b6002600681905550600460149054906101000a900460ff161561253c576040517f08c379a00000000000000000000000000000000000000000000000000000000081526004018080602001828103825260148152602001807f436f6e74726163742069732073746f707065642e00000000000000000000000081525060200191505060405180910390fd5b61254581615568565b6000601160008367ffffffffffffffff1667ffffffffffffffff16815260200190815260200160002090506125798161535f565b6125eb576040517f08c379a00000000000000000000000000000000000000000000000000000000081526004018080602001828103825260138152602001807f41756374696f6e20696e636f6d706c6574652e0000000000000000000000000081525060200191505060405180910390fd5b60008160020160089054906101000a900473ffffffffffffffffffffffffffffffffffffffff16905060008073ffffffffffffffffffffffffffffffffffffffff168273ffffffffffffffffffffffffffffffffffffffff1614612653578260000154612661565b61266083600101546153d9565b5b905060008054906101000a900473ffffffffffffffffffffffffffffffffffffffff1673ffffffffffffffffffffffffffffffffffffffff1663a99acb178460030160089054906101000a900473ffffffffffffffffffffffffffffffffffffffff166126d96008548561517090919063ffffffff16565b6040518363ffffffff1660e01b8152600401808373ffffffffffffffffffffffffffffffffffffffff16815260200182815260200192505050600060405180830381600087803b15801561272c57600080fd5b505af1158015612740573d6000803e3d6000fd5b5050505060008054906101000a900473ffffffffffffffffffffffffffffffffffffffff1673ffffffffffffffffffffffffffffffffffffffff1663a99acb17336127966009548561517090919063ffffffff16565b6040518363ffffffff1660e01b8152600401808373ffffffffffffffffffffffffffffffffffffffff16815260200182815260200192505050600060405180830381600087803b1580156127e957600080fd5b505af11580156127fd573d6000803e3d6000fd5b50505050600073ffffffffffffffffffffffffffffffffffffffff168273ffffffffffffffffffffffffffffffffffffffff16141561285a5761284f836001015460155461520f90919063ffffffff16565b601581905550612908565b60008054906101000a900473ffffffffffffffffffffffffffffffffffffffff1673ffffffffffffffffffffffffffffffffffffffff1663a99acb178385600001546040518363ffffffff1660e01b8152600401808373ffffffffffffffffffffffffffffffffffffffff16815260200182815260200192505050600060405180830381600087803b1580156128ef57600080fd5b505af1158015612903573d6000803e3d6000fd5b505050505b601160008567ffffffffffffffff1667ffffffffffffffff16815260200190815260200160002060008082016000905560018201600090556002820160006101000a81549067ffffffffffffffff02191690556002820160086101000a81549073ffffffffffffffffffffffffffffffffffffffff02191690556003820160006101000a81549067ffffffffffffffff02191690556003820160086101000a81549073ffffffffffffffffffffffffffffffffffffffff021916905550506000612a386129ff600a601260189054906101000a900467ffffffffffffffff1667ffffffffffffffff166155e690919063ffffffff16565b67ffffffffffffffff16601260109054906101000a900467ffffffffffffffff1667ffffffffffffffff1661568290919063ffffffff16565b90506000601260189054906101000a900467ffffffffffffffff1690505b818167ffffffffffffffff16108015612a755750612a738161569b565b155b15612a87578080600101915050612a56565b80601260186101000a81548167ffffffffffffffff021916908367ffffffffffffffff1602179055508373ffffffffffffffffffffffffffffffffffffffff168667ffffffffffffffff16600015157f0a482bfa50a79be0b248d777bc647874333f7d9b7d6a33ce58fe00db2c14e3bf8860030160089054906101000a900473ffffffffffffffffffffffffffffffffffffffff1633604051808373ffffffffffffffffffffffffffffffffffffffff1681526020018273ffffffffffffffffffffffffffffffffffffffff1681526020019250505060405180910390a450505050506001600681905550600360009054906101000a900473ffffffffffffffffffffffffffffffffffffffff1673ffffffffffffffffffffffffffffffffffffffff1663e9fad8ee6040518163ffffffff1660e01b8152600401600060405180830381600087803b158015612bdc57600080fd5b505af1158015612bf0573d6000803e3d6000fd5b5050505050565b60008054906101000a900473ffffffffffffffffffffffffffffffffffffffff1673ffffffffffffffffffffffffffffffffffffffff163373ffffffffffffffffffffffffffffffffffffffff1614612cb8576040517f08c379a00000000000000000000000000000000000000000000000000000000081526004018080602001828103825260198152602001807f476f7665726e65643a204e6f7420417574686f72697a65642e0000000000000081525060200191505060405180910390fd5b80600e81905550600e54600d5410612ccf57600080fd5b670de0b6b3a7640000600e5410612ce557600080fd5b60405180807f72657365727665734275666665725570706572426f756e640000000000000000815250601801905060405180910390207f3a64504f0bc0c335e2aecb78638a257e0351a3fe0370861fd54ee4190b920933826040518082815260200191505060405180910390a250565b60008054906101000a900473ffffffffffffffffffffffffffffffffffffffff1673ffffffffffffffffffffffffffffffffffffffff163373ffffffffffffffffffffffffffffffffffffffff1614612e16576040517f08c379a00000000000000000000000000000000000000000000000000000000081526004018080602001828103825260198152602001807f476f7665726e65643a204e6f7420417574686f72697a65642e0000000000000081525060200191505060405180910390fd5b80600f60006101000a81548167ffffffffffffffff021916908367ffffffffffffffff1602179055506000600f60009054906101000a900467ffffffffffffffff1667ffffffffffffffff161415612e6d57600080fd5b60405180807f626174636853697a650000000000000000000000000000000000000000000000815250600901905060405180910390207f6293347933ad2997134e224ac8cd2e39908a4a22aeed9af52127b4bbf765297882604051808267ffffffffffffffff16815260200191505060405180910390a250565b60008054906101000a900473ffffffffffffffffffffffffffffffffffffffff1673ffffffffffffffffffffffffffffffffffffffff163373ffffffffffffffffffffffffffffffffffffffff1614612fa8576040517f08c379a00000000000000000000000000000000000000000000000000000000081526004018080602001828103825260198152602001807f476f7665726e65643a204e6f7420417574686f72697a65642e0000000000000081525060200191505060405180910390fd5b80600881905550670de0b6b3a764000060085410612fc557600080fd5b60405180807f63726561746f72526577617264526174696f0000000000000000000000000000815250601201905060405180910390207f3a64504f0bc0c335e2aecb78638a257e0351a3fe0370861fd54ee4190b920933826040518082815260200191505060405180910390a250565b600f60109054906101000a900467ffffffffffffffff1681565b600e5481565b60075481565b600a5481565b600d5481565b60116020528060005260406000206000915090508060000154908060010154908060020160009054906101000a900467ffffffffffffffff16908060020160089054906101000a900473ffffffffffffffffffffffffffffffffffffffff16908060030160009054906101000a900467ffffffffffffffff16908060030160089054906101000a900473ffffffffffffffffffffffffffffffffffffffff16905086565b60008054906101000a900473ffffffffffffffffffffffffffffffffffffffff1673ffffffffffffffffffffffffffffffffffffffff163373ffffffffffffffffffffffffffffffffffffffff16146131cc576040517f08c379a00000000000000000000000000000000000000000000000000000000081526004018080602001828103825260198152602001807f476f7665726e65643a204e6f7420417574686f72697a65642e0000000000000081525060200191505060405180910390fd5b80600b81905550600b54600a54106131e357600080fd5b60405180807f737572706c757341756374696f6e4c6f7453697a650000000000000000000000815250601501905060405180910390207f3a64504f0bc0c335e2aecb78638a257e0351a3fe0370861fd54ee4190b920933826040518082815260200191505060405180910390a250565b60008054906101000a900473ffffffffffffffffffffffffffffffffffffffff1673ffffffffffffffffffffffffffffffffffffffff163373ffffffffffffffffffffffffffffffffffffffff1614613314576040517f08c379a00000000000000000000000000000000000000000000000000000000081526004018080602001828103825260198152602001807f476f7665726e65643a204e6f7420417574686f72697a65642e0000000000000081525060200191505060405180910390fd5b80600c81905550600c54600a541061332b57600080fd5b60405180807f6465666963697441756374696f6e4c6f7453697a650000000000000000000000815250601501905060405180910390207f3a64504f0bc0c335e2aecb78638a257e0351a3fe0370861fd54ee4190b920933826040518082815260200191505060405180910390a250565b60008054906101000a900473ffffffffffffffffffffffffffffffffffffffff1673ffffffffffffffffffffffffffffffffffffffff163373ffffffffffffffffffffffffffffffffffffffff161461345c576040517f08c379a00000000000000000000000000000000000000000000000000000000081526004018080602001828103825260198152602001807f476f7665726e65643a204e6f7420417574686f72697a65642e0000000000000081525060200191505060405180910390fd5b80600f60106101000a81548167ffffffffffffffff021916908367ffffffffffffffff160217905550600f60189054906101000a900467ffffffffffffffff1667ffffffffffffffff16600f60109054906101000a900467ffffffffffffffff1667ffffffffffffffff16106134d157600080fd5b60405180807f6d696e41756374696f6e4475726174696f6e0000000000000000000000000000815250601201905060405180910390207f6293347933ad2997134e224ac8cd2e39908a4a22aeed9af52127b4bbf765297882604051808267ffffffffffffffff16815260200191505060405180910390a250565b601260109054906101000a900467ffffffffffffffff1681565b60008054906101000a900473ffffffffffffffffffffffffffffffffffffffff1673ffffffffffffffffffffffffffffffffffffffff163373ffffffffffffffffffffffffffffffffffffffff1614613626576040517f08c379a00000000000000000000000000000000000000000000000000000000081526004018080602001828103825260198152602001807f476f7665726e65643a204e6f7420417574686f72697a65642e0000000000000081525060200191505060405180910390fd5b80600d81905550600e54600d541061363d57600080fd5b60405180807f72657365727665734275666665724c6f776572426f756e640000000000000000815250601801905060405180910390207f3a64504f0bc0c335e2aecb78638a257e0351a3fe0370861fd54ee4190b920933826040518082815260200191505060405180910390a250565b60085481565b60006136bf83836156d2565b905092915050565b601660009054906101000a900473ffffffffffffffffffffffffffffffffffffffff1681565b6136f8823383615742565b5050565b600360009054906101000a900473ffffffffffffffffffffffffffffffffffffffff1673ffffffffffffffffffffffffffffffffffffffff1663e97dcb626040518163ffffffff1660e01b8152600401600060405180830381600087803b15801561376657600080fd5b505af115801561377a573d6000803e3d6000fd5b50505050600260065414156137f7576040517f08c379a000000000000000000000000000000000000000000000000000000000815260040180806020018281038252601d8152602001807f4c6f636b50726f746f636f6c3a207265656e7472616e742063616c6c2e00000081525060200191505060405180910390fd5b6002600681905550600460149054906101000a900460ff1615613882576040517f08c379a000000000000000000000000000000000000000000000000000000000815260040180806020018281038252601e8152602001807f476f7665726e65643a20436f6e74726163742069732073746f707065642e000081525060200191505060405180910390fd5b60008054906101000a900473ffffffffffffffffffffffffffffffffffffffff1673ffffffffffffffffffffffffffffffffffffffff1663bf86d6906040518163ffffffff1660e01b815260040160206040518083038186803b1580156138e857600080fd5b505afa1580156138fc573d6000803e3d6000fd5b505050506040513d602081101561391257600080fd5b810190808051906020019092919050505015613979576040517f08c379a00000000000000000000000000000000000000000000000000000000081526004018080602001828103825260288152602001806161a06028913960400191505060405180910390fd5b61398282615568565b6000601160008467ffffffffffffffff1667ffffffffffffffff16815260200190815260200160002090506139b68161535f565b15613a29576040517f08c379a000000000000000000000000000000000000000000000000000000000815260040180806020018281038252601e8152602001807f41756374696f6e20636f6d706c6574652e2043616c6c20736574746c652e000081525060200191505060405180910390fd5b60008060009054906101000a900473ffffffffffffffffffffffffffffffffffffffff1673ffffffffffffffffffffffffffffffffffffffff166311df99956040518163ffffffff1660e01b815260040160206040518083038186803b158015613a9257600080fd5b505afa158015613aa6573d6000803e3d6000fd5b505050506040513d6020811015613abc57600080fd5b8101908080519060200190929190505050905060008073ffffffffffffffffffffffffffffffffffffffff168360020160089054906101000a900473ffffffffffffffffffffffffffffffffffffffff1673ffffffffffffffffffffffffffffffffffffffff161415613be457613b496064613b3b85600101546153d9565b615c4990919063ffffffff16565b8410613bbd576040517f08c379a000000000000000000000000000000000000000000000000000000000815260040180806020018281038252600d8152602001807f42696420746f6f20686967682e0000000000000000000000000000000000000081525060200191505060405180910390fd5b613bd6836001015460155461520f90919063ffffffff16565b601581905550819050613c9a565b613bfd6007548460000154615ccf90919063ffffffff16565b841115613c72576040517f08c379a00000000000000000000000000000000000000000000000000000000081526004018080602001828103825260128152602001807f446964206e6f7420756e646572206269642e000000000000000000000000000081525060200191505060405180910390fd5b8260020160089054906101000a900473ffffffffffffffffffffffffffffffffffffffff1690505b6000613cbb600f60089054906101000a900467ffffffffffffffff1661553b565b90508067ffffffffffffffff168460020160009054906101000a900467ffffffffffffffff1667ffffffffffffffff161015613d1d57808460020160006101000a81548167ffffffffffffffff021916908367ffffffffffffffff1602179055505b338460020160086101000a81548173ffffffffffffffffffffffffffffffffffffffff021916908373ffffffffffffffffffffffffffffffffffffffff1602179055508484600001819055508273ffffffffffffffffffffffffffffffffffffffff166323b872dd338487600101546040518463ffffffff1660e01b8152600401808473ffffffffffffffffffffffffffffffffffffffff1681526020018373ffffffffffffffffffffffffffffffffffffffff1681526020018281526020019350505050602060405180830381600087803b158015613dfc57600080fd5b505af1158015613e10573d6000803e3d6000fd5b505050506040513d6020811015613e2657600080fd5b8101908080519060200190929190505050503373ffffffffffffffffffffffffffffffffffffffff168667ffffffffffffffff16600015157f4042f92f7a93056a4ed1492b7b5a495196ea67839a5934acc9a0d2e59d543d94886040518082815260200191505060405180910390a4505050506001600681905550600360009054906101000a900473ffffffffffffffffffffffffffffffffffffffff1673ffffffffffffffffffffffffffffffffffffffff1663e9fad8ee6040518163ffffffff1660e01b8152600401600060405180830381600087803b158015613f0b57600080fd5b505af1158015613f1f573d6000803e3d6000fd5b505050505050565b600360009054906101000a900473ffffffffffffffffffffffffffffffffffffffff1673ffffffffffffffffffffffffffffffffffffffff1663e97dcb626040518163ffffffff1660e01b8152600401600060405180830381600087803b158015613f9157600080fd5b505af1158015613fa5573d6000803e3d6000fd5b5050505060026006541415614022576040517f08c379a000000000000000000000000000000000000000000000000000000000815260040180806020018281038252601d8152602001807f4c6f636b50726f746f636f6c3a207265656e7472616e742063616c6c2e00000081525060200191505060405180910390fd5b6002600681905550600460149054906101000a900460ff16156140ad576040517f08c379a000000000000000000000000000000000000000000000000000000000815260040180806020018281038252601e8152602001807f476f7665726e65643a20436f6e74726163742069732073746f707065642e000081525060200191505060405180910390fd5b60008054906101000a900473ffffffffffffffffffffffffffffffffffffffff1673ffffffffffffffffffffffffffffffffffffffff1663bf86d6906040518163ffffffff1660e01b815260040160206040518083038186803b15801561411357600080fd5b505afa158015614127573d6000803e3d6000fd5b505050506040513d602081101561413d57600080fd5b8101908080519060200190929190505050156141a4576040517f08c379a00000000000000000000000000000000000000000000000000000000081526004018080602001828103825260288152602001806161a06028913960400191505060405180910390fd5b6000806141af611467565b91509150600082146141cc576141c782336001615de2565b614254565b600081146141e5576141e081336000615de2565b614253565b6040517f08c379a00000000000000000000000000000000000000000000000000000000081526004018080602001828103825260158152602001807f4e6f2061756374696f6e7320746f2073746172742e000000000000000000000081525060200191505060405180910390fd5b5b50506001600681905550600360009054906101000a900473ffffffffffffffffffffffffffffffffffffffff1673ffffffffffffffffffffffffffffffffffffffff1663e9fad8ee6040518163ffffffff1660e01b8152600401600060405180830381600087803b1580156142c857600080fd5b505af11580156142dc573d6000803e3d6000fd5b50505050565b60006142ed82615e86565b6142f8576000614328565b614327601060008467ffffffffffffffff1667ffffffffffffffff16815260200190815260200160002061535f565b5b9050919050565b601260089054906101000a900467ffffffffffffffff1681565b601260009054906101000a900467ffffffffffffffff1681565b60095481565b614374823383615de2565b5050565b600360009054906101000a900473ffffffffffffffffffffffffffffffffffffffff1673ffffffffffffffffffffffffffffffffffffffff1663e97dcb626040518163ffffffff1660e01b8152600401600060405180830381600087803b1580156143e257600080fd5b505af11580156143f6573d6000803e3d6000fd5b5050505060026006541415614473576040517f08c379a000000000000000000000000000000000000000000000000000000000815260040180806020018281038252601d8152602001807f4c6f636b50726f746f636f6c3a207265656e7472616e742063616c6c2e00000081525060200191505060405180910390fd5b6002600681905550600460149054906101000a900460ff16156144fe576040517f08c379a00000000000000000000000000000000000000000000000000000000081526004018080602001828103825260148152602001807f436f6e74726163742069732073746f707065642e00000000000000000000000081525060200191505060405180910390fd5b614507816152e1565b6000601060008367ffffffffffffffff1667ffffffffffffffff168152602001908152602001600020905061453b8161535f565b6145ad576040517f08c379a00000000000000000000000000000000000000000000000000000000081526004018080602001828103825260138152602001807f41756374696f6e20696e636f6d706c6574652e0000000000000000000000000081525060200191505060405180910390fd5b60008060009054906101000a900473ffffffffffffffffffffffffffffffffffffffff1673ffffffffffffffffffffffffffffffffffffffff166311df99956040518163ffffffff1660e01b815260040160206040518083038186803b15801561461657600080fd5b505afa15801561462a573d6000803e3d6000fd5b505050506040513d602081101561464057600080fd5b8101908080519060200190929190505050905060008260010154905060008360020160089054906101000a900473ffffffffffffffffffffffffffffffffffffffff16905060008460030160089054906101000a900473ffffffffffffffffffffffffffffffffffffffff16905060006146c56008548561517090919063ffffffff16565b905060006146de6009548661517090919063ffffffff16565b90506146f58560145461520f90919063ffffffff16565b6014819055508573ffffffffffffffffffffffffffffffffffffffff166316f9428f84846040518363ffffffff1660e01b8152600401808373ffffffffffffffffffffffffffffffffffffffff16815260200182815260200192505050600060405180830381600087803b15801561476c57600080fd5b505af1158015614780573d6000803e3d6000fd5b505050508573ffffffffffffffffffffffffffffffffffffffff166316f9428f33836040518363ffffffff1660e01b8152600401808373ffffffffffffffffffffffffffffffffffffffff16815260200182815260200192505050600060405180830381600087803b1580156147f557600080fd5b505af1158015614809573d6000803e3d6000fd5b50505050600073ffffffffffffffffffffffffffffffffffffffff168473ffffffffffffffffffffffffffffffffffffffff16146148cb578573ffffffffffffffffffffffffffffffffffffffff166316f9428f85876040518363ffffffff1660e01b8152600401808373ffffffffffffffffffffffffffffffffffffffff16815260200182815260200192505050600060405180830381600087803b1580156148b257600080fd5b505af11580156148c6573d6000803e3d6000fd5b505050505b601060008967ffffffffffffffff1667ffffffffffffffff16815260200190815260200160002060008082016000905560018201600090556002820160006101000a81549067ffffffffffffffff02191690556002820160086101000a81549073ffffffffffffffffffffffffffffffffffffffff02191690556003820160006101000a81549067ffffffffffffffff02191690556003820160086101000a81549073ffffffffffffffffffffffffffffffffffffffff0219169055505060006149fb6149c2600a601260089054906101000a900467ffffffffffffffff1667ffffffffffffffff166155e690919063ffffffff16565b67ffffffffffffffff16601260009054906101000a900467ffffffffffffffff1667ffffffffffffffff1661568290919063ffffffff16565b90506000601260089054906101000a900467ffffffffffffffff1690505b818167ffffffffffffffff16108015614a385750614a3681615e86565b155b15614a4a578080600101915050614a19565b80601260086101000a81548167ffffffffffffffff021916908367ffffffffffffffff1602179055508573ffffffffffffffffffffffffffffffffffffffff168a67ffffffffffffffff16600115157f0a482bfa50a79be0b248d777bc647874333f7d9b7d6a33ce58fe00db2c14e3bf8833604051808373ffffffffffffffffffffffffffffffffffffffff1681526020018273ffffffffffffffffffffffffffffffffffffffff1681526020019250505060405180910390a45050505050505050506001600681905550600360009054906101000a900473ffffffffffffffffffffffffffffffffffffffff1673ffffffffffffffffffffffffffffffffffffffff1663e9fad8ee6040518163ffffffff1660e01b8152600401600060405180830381600087803b158015614b7f57600080fd5b505af1158015614b93573d6000803e3d6000fd5b5050505050565b60008054906101000a900473ffffffffffffffffffffffffffffffffffffffff1673ffffffffffffffffffffffffffffffffffffffff163373ffffffffffffffffffffffffffffffffffffffff1614614c5b576040517f08c379a00000000000000000000000000000000000000000000000000000000081526004018080602001828103825260198152602001807f476f7665726e65643a204e6f7420417574686f72697a65642e0000000000000081525060200191505060405180910390fd5b80600981905550670de0b6b3a764000060095410614c7857600080fd5b60405180807f636c65616e6572526577617264526174696f0000000000000000000000000000815250601201905060405180910390207f3a64504f0bc0c335e2aecb78638a257e0351a3fe0370861fd54ee4190b920933826040518082815260200191505060405180910390a250565b60008054906101000a900473ffffffffffffffffffffffffffffffffffffffff1673ffffffffffffffffffffffffffffffffffffffff163373ffffffffffffffffffffffffffffffffffffffff1614614da9576040517f08c379a00000000000000000000000000000000000000000000000000000000081526004018080602001828103825260198152602001807f476f7665726e65643a204e6f7420417574686f72697a65642e0000000000000081525060200191505060405180910390fd5b80600781905550670de0b6b3a764000060075411614dc657600080fd5b60405180807f6d696e42696444656c7461000000000000000000000000000000000000000000815250600b01905060405180910390207f3a64504f0bc0c335e2aecb78638a257e0351a3fe0370861fd54ee4190b920933826040518082815260200191505060405180910390a250565b600c5481565b60145481565b60008054906101000a900473ffffffffffffffffffffffffffffffffffffffff1673ffffffffffffffffffffffffffffffffffffffff163373ffffffffffffffffffffffffffffffffffffffff1614614f03576040517f08c379a00000000000000000000000000000000000000000000000000000000081526004018080602001828103825260198152602001807f476f7665726e65643a204e6f7420417574686f72697a65642e0000000000000081525060200191505060405180910390fd5b80600a81905550600a54600010614f1957600080fd5b600b54600a5410614f2957600080fd5b600c54600a5410614f3957600080fd5b60405180807f6d696e41756374696f6e4c6f7453697a65000000000000000000000000000000815250601101905060405180910390207f3a64504f0bc0c335e2aecb78638a257e0351a3fe0370861fd54ee4190b920933826040518082815260200191505060405180910390a250565b600f60009054906101000a900467ffffffffffffffff1681565b601260189054906101000a900467ffffffffffffffff1681565b600f60089054906101000a900467ffffffffffffffff1681565b60006150028261569b565b61500d57600061503d565b61503c601160008467ffffffffffffffff1667ffffffffffffffff16815260200190815260200160002061535f565b5b9050919050565b6001600460146101000a81548160ff0219169083151502179055507f7acc84e34091ae817647a4c49116f5cc07f319078ba80f8f5fde37ea7e25cbd660405160405180910390a1565b60008054906101000a900473ffffffffffffffffffffffffffffffffffffffff1673ffffffffffffffffffffffffffffffffffffffff166399eeec956040518163ffffffff1660e01b815260040160206040518083038186803b1580156150f357600080fd5b505afa158015615107573d6000803e3d6000fd5b505050506040513d602081101561511d57600080fd5b8101908080519060200190929190505050601660006101000a81548173ffffffffffffffffffffffffffffffffffffffff021916908373ffffffffffffffffffffffffffffffffffffffff160217905550565b6000808314806151805750600082145b1561518e5760009050615209565b81830290508183828161519d57fe5b04146151f4576040517f08c379a000000000000000000000000000000000000000000000000000000000815260040180806020018281038252602281526020018061617e6022913960400191505060405180910390fd5b670de0b6b3a7640000818161520557fe5b0490505b92915050565b600061525183836040518060400160405280601e81526020017f536166654d6174683a207375627472616374696f6e206f766572666c6f770000815250615ebd565b905092915050565b6000808284019050838110156152d7576040517f08c379a000000000000000000000000000000000000000000000000000000000815260040180806020018281038252601b8152602001807f536166654d6174683a206164646974696f6e206f766572666c6f77000000000081525060200191505060405180910390fd5b8091505092915050565b6152ea81615e86565b61535c576040517f08c379a00000000000000000000000000000000000000000000000000000000081526004018080602001828103825260178152602001807f41756374696f6e20646f6573206e6f742065786973742e00000000000000000081525060200191505060405180910390fd5b50565b60008061536a615f7d565b90508067ffffffffffffffff168360020160009054906101000a900467ffffffffffffffff1667ffffffffffffffff1610806153d157508067ffffffffffffffff168360030160009054906101000a900467ffffffffffffffff1667ffffffffffffffff16105b915050919050565b6000615534601660009054906101000a900473ffffffffffffffffffffffffffffffffffffffff1673ffffffffffffffffffffffffffffffffffffffff166318160ddd6040518163ffffffff1660e01b815260040160206040518083038186803b15801561544657600080fd5b505afa15801561545a573d6000803e3d6000fd5b505050506040513d602081101561547057600080fd5b8101908080519060200190929190505050600260009054906101000a900473ffffffffffffffffffffffffffffffffffffffff1673ffffffffffffffffffffffffffffffffffffffff166318160ddd6040518163ffffffff1660e01b815260040160206040518083038186803b1580156154e957600080fd5b505afa1580156154fd573d6000803e3d6000fd5b505050506040513d602081101561551357600080fd5b810190808051906020019092919050505084615f8d9092919063ffffffff16565b9050919050565b600061556182615549615f7d565b67ffffffffffffffff166155e690919063ffffffff16565b9050919050565b6155718161569b565b6155e3576040517f08c379a00000000000000000000000000000000000000000000000000000000081526004018080602001828103825260178152602001807f41756374696f6e20646f6573206e6f742065786973742e00000000000000000081525060200191505060405180910390fd5b50565b60008082840190508367ffffffffffffffff168167ffffffffffffffff161015615678576040517f08c379a000000000000000000000000000000000000000000000000000000000815260040180806020018281038252601b8152602001807f536166654d6174683a206164646974696f6e206f766572666c6f77000000000081525060200191505060405180910390fd5b8091505092915050565b60008183106156915781615693565b825b905092915050565b600080601160008467ffffffffffffffff1667ffffffffffffffff1681526020019081526020016000206001015414159050919050565b6000808284816156de57fe5b069050615739600a5482106156f45760006156f6565b815b850361572b600f60009054906101000a900467ffffffffffffffff1667ffffffffffffffff1686615c4990919063ffffffff16565b61568290919063ffffffff16565b91505092915050565b6000615763600f60189054906101000a900467ffffffffffffffff1661553b565b90508067ffffffffffffffff16601360009054906101000a900467ffffffffffffffff1667ffffffffffffffff1610156157c15780601360006101000a81548167ffffffffffffffff021916908367ffffffffffffffff1602179055505b6157c9616107565b6040518060c0016040528060008152602001868152602001615800600f60109054906101000a900467ffffffffffffffff1661553b565b67ffffffffffffffff168152602001600073ffffffffffffffffffffffffffffffffffffffff1681526020018367ffffffffffffffff1681526020018573ffffffffffffffffffffffffffffffffffffffff1681525090508215615a52578060106000601260009054906101000a900467ffffffffffffffff1667ffffffffffffffff1667ffffffffffffffff168152602001908152602001600020600082015181600001556020820151816001015560408201518160020160006101000a81548167ffffffffffffffff021916908367ffffffffffffffff16021790555060608201518160020160086101000a81548173ffffffffffffffffffffffffffffffffffffffff021916908373ffffffffffffffffffffffffffffffffffffffff16021790555060808201518160030160006101000a81548167ffffffffffffffff021916908367ffffffffffffffff16021790555060a08201518160030160086101000a81548173ffffffffffffffffffffffffffffffffffffffff021916908373ffffffffffffffffffffffffffffffffffffffff16021790555090505084601260009054906101000a900467ffffffffffffffff1667ffffffffffffffff16600115157fc19ebfd17eb8be856cffa00c86424e745fc3228c0d116b824f598079f2d04a5d85604051808267ffffffffffffffff16815260200191505060405180910390a46012600081819054906101000a900467ffffffffffffffff168092919060010191906101000a81548167ffffffffffffffff021916908367ffffffffffffffff16021790555050615c42565b8060116000601260109054906101000a900467ffffffffffffffff1667ffffffffffffffff1667ffffffffffffffff168152602001908152602001600020600082015181600001556020820151816001015560408201518160020160006101000a81548167ffffffffffffffff021916908367ffffffffffffffff16021790555060608201518160020160086101000a81548173ffffffffffffffffffffffffffffffffffffffff021916908373ffffffffffffffffffffffffffffffffffffffff16021790555060808201518160030160006101000a81548167ffffffffffffffff021916908367ffffffffffffffff16021790555060a08201518160030160086101000a81548173ffffffffffffffffffffffffffffffffffffffff021916908373ffffffffffffffffffffffffffffffffffffffff16021790555090505084601260109054906101000a900467ffffffffffffffff1667ffffffffffffffff16600015157fc19ebfd17eb8be856cffa00c86424e745fc3228c0d116b824f598079f2d04a5d85604051808267ffffffffffffffff16815260200191505060405180910390a46012601081819054906101000a900467ffffffffffffffff168092919060010191906101000a81548167ffffffffffffffff021916908367ffffffffffffffff160217905550505b5050505050565b600080831415615c5c5760009050615cc9565b6000828402905082848281615c6d57fe5b0414615cc4576040517f08c379a00000000000000000000000000000000000000000000000000000000081526004018080602001828103825260218152602001806161c86021913960400191505060405180910390fd5b809150505b92915050565b600080831415615ce25760009050615ddc565b6000821415615d59576040517f08c379a000000000000000000000000000000000000000000000000000000000815260040180806020018281038252601b8152602001807f536166654d6174683a206469766973696f6e206279207a65726f2e000000000081525060200191505060405180910390fd5b670de0b6b3a764000083029050670de0b6b3a7640000838281615d7857fe5b0414615dcf576040517f08c379a000000000000000000000000000000000000000000000000000000000815260040180806020018281038252602281526020018061617e6022913960400191505060405180910390fd5b818181615dd857fe5b0490505b92915050565b615dfc8382615df357600c54615df7565b600b545b6156d2565b92508015615e2457615e198360145461525990919063ffffffff16565b601481905550615e40565b615e398360155461525990919063ffffffff16565b6015819055505b60005b615e6682615e5357600c54615e57565b600b545b8561568290919063ffffffff16565b9050615e73818484615742565b808403935060008411615e435750505050565b600080601060008467ffffffffffffffff1667ffffffffffffffff1681526020019081526020016000206001015414159050919050565b6000838311158290615f6a576040517f08c379a00000000000000000000000000000000000000000000000000000000081526004018080602001828103825283818151815260200191508051906020019080838360005b83811015615f2f578082015181840152602081019050615f14565b50505050905090810190601f168015615f5c5780820380516001836020036101000a031916815260200191505b509250505060405180910390fd5b5060008385039050809150509392505050565b6000615f884261609c565b905090565b600080841480615f9d5750600083145b15615fab5760009050616095565b6000821415616022576040517f08c379a000000000000000000000000000000000000000000000000000000000815260040180806020018281038252601b8152602001807f536166654d6174683a206469766973696f6e206279207a65726f2e000000000081525060200191505060405180910390fd5b82840290508284828161603157fe5b0414616088576040517f08c379a000000000000000000000000000000000000000000000000000000000815260040180806020018281038252602281526020018061617e6022913960400191505060405180910390fd5b81818161609157fe5b0490505b9392505050565b60006801000000000000000082106160ff576040517f08c379a00000000000000000000000000000000000000000000000000000000081526004018080602001828103825260268152602001806161e96026913960400191505060405180910390fd5b819050919050565b6040518060c001604052806000815260200160008152602001600067ffffffffffffffff168152602001600073ffffffffffffffffffffffffffffffffffffffff168152602001600067ffffffffffffffff168152602001600073ffffffffffffffffffffffffffffffffffffffff168152509056fe536166654d6174683a206d756c7469706c69636174696f6e206f766572666c6f772e476f7665726e65643a204e6f7420617661696c61626c6520647572696e672073687574646f776e2e536166654d6174683a206d756c7469706c69636174696f6e206f766572666c6f7753616665436173743a2076616c756520646f65736e27742066697420696e2036342062697473a2646970667358221220ff973f8e3f0e06d6f37202d81d9b27f25f709cf3c64f1259d05baf975f7d41ad64736f6c63430007040033",
  "linkReferences": {},
  "deployedLinkReferences": {}
}