{
  "_format": "hh-sol-artifact-1",
  "contractName": "AuctionsTestable",
  "sourceName": "contracts/mocks/AuctionsTestable.sol",
  "abi": [
    {
      "anonymous": false,
      "inputs": [
        {
          "indexed": true,
          "internalType": "bool",
          "name": "isSurplus",
          "type": "bool"
        },
        {
          "indexed": true,
          "internalType": "uint64",
          "name": "auctionID",
          "type": "uint64"
        },
        {
          "indexed": true,
          "internalType": "address",
          "name": "bidder",
          "type": "address"
        },
        {
          "indexed": false,
          "internalType": "uint256",
          "name": "bid",
          "type": "uint256"
        }
      ],
      "name": "AuctionBid",
      "type": "event"
    },
    {
      "anonymous": false,
      "inputs": [
        {
          "indexed": true,
          "internalType": "bool",
          "name": "isSurplus",
          "type": "bool"
        },
        {
          "indexed": true,
          "internalType": "uint64",
          "name": "auctionID",
          "type": "uint64"
        },
        {
          "indexed": true,
          "internalType": "address",
          "name": "winner",
          "type": "address"
        },
        {
          "indexed": false,
          "internalType": "address",
          "name": "creator",
          "type": "address"
        },
        {
          "indexed": false,
          "internalType": "address",
          "name": "cleaner",
          "type": "address"
        }
      ],
      "name": "AuctionSettled",
      "type": "event"
    },
    {
      "anonymous": false,
      "inputs": [
        {
          "indexed": true,
          "internalType": "bool",
          "name": "isSurplus",
          "type": "bool"
        },
        {
          "indexed": true,
          "internalType": "uint64",
          "name": "auctionID",
          "type": "uint64"
        },
        {
          "indexed": true,
          "internalType": "uint256",
          "name": "count",
          "type": "uint256"
        },
        {
          "indexed": false,
          "internalType": "uint64",
          "name": "maxEndTime",
          "type": "uint64"
        }
      ],
      "name": "AuctionStarted",
      "type": "event"
    },
    {
      "anonymous": false,
      "inputs": [
        {
          "indexed": true,
          "internalType": "address",
          "name": "governor",
          "type": "address"
        }
      ],
      "name": "Initialized",
      "type": "event"
    },
    {
      "anonymous": false,
      "inputs": [
        {
          "indexed": true,
          "internalType": "string",
          "name": "paramName",
          "type": "string"
        },
        {
          "indexed": false,
          "internalType": "uint256",
          "name": "value",
          "type": "uint256"
        }
      ],
      "name": "ParameterUpdated",
      "type": "event"
    },
    {
      "anonymous": false,
      "inputs": [
        {
          "indexed": true,
          "internalType": "string",
          "name": "paramName",
          "type": "string"
        },
        {
          "indexed": false,
          "internalType": "uint64",
          "name": "value",
          "type": "uint64"
        }
      ],
      "name": "ParameterUpdated64",
      "type": "event"
    },
    {
      "anonymous": false,
      "inputs": [],
      "name": "Stopped",
      "type": "event"
    },
    {
      "inputs": [
        {
          "internalType": "uint256",
          "name": "amtIn",
          "type": "uint256"
        },
        {
          "internalType": "uint256",
          "name": "lotSize",
          "type": "uint256"
        }
      ],
      "name": "auctionSize",
      "outputs": [
        {
          "internalType": "uint256",
          "name": "size",
          "type": "uint256"
        }
      ],
      "stateMutability": "view",
      "type": "function"
    },
    {
      "inputs": [],
      "name": "batchSize",
      "outputs": [
        {
          "internalType": "uint64",
          "name": "",
          "type": "uint64"
        }
      ],
      "stateMutability": "view",
      "type": "function"
    },
    {
      "inputs": [
        {
          "internalType": "uint64",
          "name": "auctionID",
          "type": "uint64"
        },
        {
          "internalType": "uint256",
          "name": "bid",
          "type": "uint256"
        }
      ],
      "name": "bidDeficitAuction",
      "outputs": [],
      "stateMutability": "nonpayable",
      "type": "function"
    },
    {
      "inputs": [
        {
          "internalType": "uint64",
          "name": "auctionID",
          "type": "uint64"
        },
        {
          "internalType": "uint256",
          "name": "bid",
          "type": "uint256"
        }
      ],
      "name": "bidSurplusAuction",
      "outputs": [],
      "stateMutability": "nonpayable",
      "type": "function"
    },
    {
      "inputs": [],
      "name": "checkReservesAndStartAuctions",
      "outputs": [],
      "stateMutability": "nonpayable",
      "type": "function"
    },
    {
      "inputs": [],
      "name": "cleanerRewardRatio",
      "outputs": [
        {
          "internalType": "uint256",
          "name": "",
          "type": "uint256"
        }
      ],
      "stateMutability": "view",
      "type": "function"
    },
    {
      "inputs": [],
      "name": "cnp",
      "outputs": [
        {
          "internalType": "contract ICNP",
          "name": "",
          "type": "address"
        }
      ],
      "stateMutability": "view",
      "type": "function"
    },
    {
      "inputs": [],
      "name": "coinToBeBought",
      "outputs": [
        {
          "internalType": "uint256",
          "name": "",
          "type": "uint256"
        }
      ],
      "stateMutability": "view",
      "type": "function"
    },
    {
      "inputs": [],
      "name": "coinToBeSold",
      "outputs": [
        {
          "internalType": "uint256",
          "name": "",
          "type": "uint256"
        }
      ],
      "stateMutability": "view",
      "type": "function"
    },
    {
      "inputs": [],
      "name": "creatorRewardRatio",
      "outputs": [
        {
          "internalType": "uint256",
          "name": "",
          "type": "uint256"
        }
      ],
      "stateMutability": "view",
      "type": "function"
    },
    {
      "inputs": [
        {
          "internalType": "uint64",
          "name": "",
          "type": "uint64"
        }
      ],
      "name": "deficitAuction",
      "outputs": [
        {
          "internalType": "uint256",
          "name": "bid",
          "type": "uint256"
        },
        {
          "internalType": "uint256",
          "name": "count",
          "type": "uint256"
        },
        {
          "internalType": "uint64",
          "name": "endTime",
          "type": "uint64"
        },
        {
          "internalType": "address",
          "name": "bidder",
          "type": "address"
        },
        {
          "internalType": "uint64",
          "name": "maxEndTime",
          "type": "uint64"
        },
        {
          "internalType": "address",
          "name": "creator",
          "type": "address"
        }
      ],
      "stateMutability": "view",
      "type": "function"
    },
    {
      "inputs": [],
      "name": "deficitAuctionCount",
      "outputs": [
        {
          "internalType": "uint64",
          "name": "",
          "type": "uint64"
        }
      ],
      "stateMutability": "view",
      "type": "function"
    },
    {
      "inputs": [],
      "name": "deficitAuctionLotSize",
      "outputs": [
        {
          "internalType": "uint256",
          "name": "",
          "type": "uint256"
        }
      ],
      "stateMutability": "view",
      "type": "function"
    },
    {
      "inputs": [
        {
          "internalType": "uint64",
          "name": "auctionID",
          "type": "uint64"
        }
      ],
      "name": "deficitAuctionReadyToBeSettled",
      "outputs": [
        {
          "internalType": "bool",
          "name": "complete",
          "type": "bool"
        }
      ],
      "stateMutability": "view",
      "type": "function"
    },
    {
      "inputs": [],
      "name": "extensionPerBid",
      "outputs": [
        {
          "internalType": "uint64",
          "name": "",
          "type": "uint64"
        }
      ],
      "stateMutability": "view",
      "type": "function"
    },
    {
      "inputs": [],
      "name": "governor",
      "outputs": [
        {
          "internalType": "contract IGovernor",
          "name": "",
          "type": "address"
        }
      ],
      "stateMutability": "view",
      "type": "function"
    },
    {
      "inputs": [
        {
          "internalType": "contract IGovernor",
          "name": "governor_",
          "type": "address"
        }
      ],
      "name": "init",
      "outputs": [],
      "stateMutability": "nonpayable",
      "type": "function"
    },
    {
      "inputs": [],
      "name": "lastAuctionCompletionTime",
      "outputs": [
        {
          "internalType": "uint64",
          "name": "",
          "type": "uint64"
        }
      ],
      "stateMutability": "view",
      "type": "function"
    },
    {
      "inputs": [],
      "name": "maxAuctionDuration",
      "outputs": [
        {
          "internalType": "uint64",
          "name": "",
          "type": "uint64"
        }
      ],
      "stateMutability": "view",
      "type": "function"
    },
    {
      "inputs": [],
      "name": "minAuctionDuration",
      "outputs": [
        {
          "internalType": "uint64",
          "name": "",
          "type": "uint64"
        }
      ],
      "stateMutability": "view",
      "type": "function"
    },
    {
      "inputs": [],
      "name": "minAuctionLotSize",
      "outputs": [
        {
          "internalType": "uint256",
          "name": "",
          "type": "uint256"
        }
      ],
      "stateMutability": "view",
      "type": "function"
    },
    {
      "inputs": [],
      "name": "minBidDelta",
      "outputs": [
        {
          "internalType": "uint256",
          "name": "",
          "type": "uint256"
        }
      ],
      "stateMutability": "view",
      "type": "function"
    },
    {
      "inputs": [],
      "name": "oldestDeficitAuction",
      "outputs": [
        {
          "internalType": "uint64",
          "name": "",
          "type": "uint64"
        }
      ],
      "stateMutability": "view",
      "type": "function"
    },
    {
      "inputs": [],
      "name": "oldestSurplusAuction",
      "outputs": [
        {
          "internalType": "uint64",
          "name": "",
          "type": "uint64"
        }
      ],
      "stateMutability": "view",
      "type": "function"
    },
    {
      "inputs": [
        {
          "internalType": "uint32",
          "name": "auctionID",
          "type": "uint32"
        }
      ],
      "name": "requireDeficitAuctionExists",
      "outputs": [],
      "stateMutability": "view",
      "type": "function"
    },
    {
      "inputs": [
        {
          "internalType": "uint32",
          "name": "auctionID",
          "type": "uint32"
        }
      ],
      "name": "requireSurplusAuctionExists",
      "outputs": [],
      "stateMutability": "view",
      "type": "function"
    },
    {
      "inputs": [],
      "name": "reservesBufferLowerBound",
      "outputs": [
        {
          "internalType": "uint256",
          "name": "",
          "type": "uint256"
        }
      ],
      "stateMutability": "view",
      "type": "function"
    },
    {
      "inputs": [],
      "name": "reservesBufferUpperBound",
      "outputs": [
        {
          "internalType": "uint256",
          "name": "",
          "type": "uint256"
        }
      ],
      "stateMutability": "view",
      "type": "function"
    },
    {
      "inputs": [
        {
          "internalType": "uint64",
          "name": "size",
          "type": "uint64"
        }
      ],
      "name": "setBatchSize",
      "outputs": [],
      "stateMutability": "nonpayable",
      "type": "function"
    },
    {
      "inputs": [
        {
          "internalType": "uint256",
          "name": "ratio",
          "type": "uint256"
        }
      ],
      "name": "setCleanerRewardRatio",
      "outputs": [],
      "stateMutability": "nonpayable",
      "type": "function"
    },
    {
      "inputs": [
        {
          "internalType": "uint256",
          "name": "ratio",
          "type": "uint256"
        }
      ],
      "name": "setCreatorRewardRatio",
      "outputs": [],
      "stateMutability": "nonpayable",
      "type": "function"
    },
    {
      "inputs": [
        {
          "internalType": "uint256",
          "name": "size",
          "type": "uint256"
        }
      ],
      "name": "setDeficitAuctionLotSize",
      "outputs": [],
      "stateMutability": "nonpayable",
      "type": "function"
    },
    {
      "inputs": [
        {
          "internalType": "uint64",
          "name": "extension",
          "type": "uint64"
        }
      ],
      "name": "setExtensionPerBid",
      "outputs": [],
      "stateMutability": "nonpayable",
      "type": "function"
    },
    {
      "inputs": [
        {
          "internalType": "uint64",
          "name": "duration",
          "type": "uint64"
        }
      ],
      "name": "setMaxAuctionDuration",
      "outputs": [],
      "stateMutability": "nonpayable",
      "type": "function"
    },
    {
      "inputs": [
        {
          "internalType": "uint64",
          "name": "duration",
          "type": "uint64"
        }
      ],
      "name": "setMinAuctionDuration",
      "outputs": [],
      "stateMutability": "nonpayable",
      "type": "function"
    },
    {
      "inputs": [
        {
          "internalType": "uint256",
          "name": "size",
          "type": "uint256"
        }
      ],
      "name": "setMinAuctionLotSize",
      "outputs": [],
      "stateMutability": "nonpayable",
      "type": "function"
    },
    {
      "inputs": [
        {
          "internalType": "uint256",
          "name": "delta",
          "type": "uint256"
        }
      ],
      "name": "setMinBidDelta",
      "outputs": [],
      "stateMutability": "nonpayable",
      "type": "function"
    },
    {
      "inputs": [
        {
          "internalType": "uint256",
          "name": "bound",
          "type": "uint256"
        }
      ],
      "name": "setReservesBufferLowerBound",
      "outputs": [],
      "stateMutability": "nonpayable",
      "type": "function"
    },
    {
      "inputs": [
        {
          "internalType": "uint256",
          "name": "bound",
          "type": "uint256"
        }
      ],
      "name": "setReservesBufferUpperBound",
      "outputs": [],
      "stateMutability": "nonpayable",
      "type": "function"
    },
    {
      "inputs": [
        {
          "internalType": "uint256",
          "name": "size",
          "type": "uint256"
        }
      ],
      "name": "setSurplusAuctionLotSize",
      "outputs": [],
      "stateMutability": "nonpayable",
      "type": "function"
    },
    {
      "inputs": [
        {
          "internalType": "uint64",
          "name": "auctionID",
          "type": "uint64"
        }
      ],
      "name": "settleDeficitAuction",
      "outputs": [],
      "stateMutability": "nonpayable",
      "type": "function"
    },
    {
      "inputs": [
        {
          "internalType": "uint64",
          "name": "auctionID",
          "type": "uint64"
        }
      ],
      "name": "settleSurplusAuction",
      "outputs": [],
      "stateMutability": "nonpayable",
      "type": "function"
    },
    {
      "inputs": [],
      "name": "shouldStartAuctions",
      "outputs": [
        {
          "internalType": "uint256",
          "name": "surplusAmount",
          "type": "uint256"
        },
        {
          "internalType": "uint256",
          "name": "deficitAmount",
          "type": "uint256"
        }
      ],
      "stateMutability": "view",
      "type": "function"
    },
    {
      "inputs": [
        {
          "internalType": "uint256",
          "name": "count",
          "type": "uint256"
        },
        {
          "internalType": "bool",
          "name": "isSurplus",
          "type": "bool"
        }
      ],
      "name": "startAuction",
      "outputs": [],
      "stateMutability": "nonpayable",
      "type": "function"
    },
    {
      "inputs": [
        {
          "internalType": "uint256",
          "name": "amt",
          "type": "uint256"
        },
        {
          "internalType": "bool",
          "name": "isSurplus",
          "type": "bool"
        }
      ],
      "name": "startAuctions",
      "outputs": [],
      "stateMutability": "nonpayable",
      "type": "function"
    },
    {
      "inputs": [],
      "name": "stop",
      "outputs": [],
      "stateMutability": "nonpayable",
      "type": "function"
    },
    {
      "inputs": [
        {
          "internalType": "uint64",
          "name": "",
          "type": "uint64"
        }
      ],
      "name": "surplusAuction",
      "outputs": [
        {
          "internalType": "uint256",
          "name": "bid",
          "type": "uint256"
        },
        {
          "internalType": "uint256",
          "name": "count",
          "type": "uint256"
        },
        {
          "internalType": "uint64",
          "name": "endTime",
          "type": "uint64"
        },
        {
          "internalType": "address",
          "name": "bidder",
          "type": "address"
        },
        {
          "internalType": "uint64",
          "name": "maxEndTime",
          "type": "uint64"
        },
        {
          "internalType": "address",
          "name": "creator",
          "type": "address"
        }
      ],
      "stateMutability": "view",
      "type": "function"
    },
    {
      "inputs": [],
      "name": "surplusAuctionCount",
      "outputs": [
        {
          "internalType": "uint64",
          "name": "",
          "type": "uint64"
        }
      ],
      "stateMutability": "view",
      "type": "function"
    },
    {
      "inputs": [],
      "name": "surplusAuctionLotSize",
      "outputs": [
        {
          "internalType": "uint256",
          "name": "",
          "type": "uint256"
        }
      ],
      "stateMutability": "view",
      "type": "function"
    },
    {
      "inputs": [
        {
          "internalType": "uint64",
          "name": "auctionID",
          "type": "uint64"
        }
      ],
      "name": "surplusAuctionReadyToBeSettled",
      "outputs": [
        {
          "internalType": "bool",
          "name": "complete",
          "type": "bool"
        }
      ],
      "stateMutability": "view",
      "type": "function"
    }
  ],
  "bytecode": "0x6080604052670e4b4b8af6a700006007556611c37937e080006008556611c37937e08000600955683635c9adc5dea00000600a5569021e19e0c9bab2400000600b5569021e19e0c9bab2400000600c5566470de4df820000600d5566d529ae9e860000600e55600a600f60006101000a81548167ffffffffffffffff021916908367ffffffffffffffff160217905550610708600f60086101000a81548167ffffffffffffffff021916908367ffffffffffffffff16021790555061a8c0600f60106101000a81548167ffffffffffffffff021916908367ffffffffffffffff1602179055506201fa40600f60186101000a81548167ffffffffffffffff021916908367ffffffffffffffff16021790555034801561011d57600080fd5b5033600560006101000a81548173ffffffffffffffffffffffffffffffffffffffff021916908373ffffffffffffffffffffffffffffffffffffffff160217905550600160068190555061622680620001776000396000f3fe608060405234801561001057600080fd5b50600436106103365760003560e01c806369071acc116101b2578063c2b6722a116100f9578063dff2d3bb116100a2578063f4daaba11161007c578063f4daaba114610c54578063fac98b3a14610c7c578063faf95d2d14610ca4578063fd9ada6c14610ccc57610336565b8063dff2d3bb14610bea578063ee3528f014610c08578063f3789b1614610c2657610336565b8063d005d2eb116100d3578063d005d2eb14610b56578063dbdd113114610b8e578063ddf31e6714610bbc57610336565b8063c2b6722a14610ad6578063c90a551514610afe578063cdbd373b14610b1c57610336565b806399eeec951161015b578063a958c03311610135578063a958c03314610a56578063af2ed58614610a60578063bd54f41214610aae57610336565b806399eeec95146109a65780639d531857146109da578063a4f0088314610a1457610336565b8063887c67d91161018c578063887c67d91461090e5780638d1fede41461093c5780639210b35d1461095a57610336565b806369071acc1461088057806375d0ef52146108ae5780637eb12af7146108e657610336565b80633db966a611610281578063541348761161022a5780635a35ef07116102045780635a35ef0714610767578063616cb0cf14610785578063651cf64d146107a35780636705be0f1461085257610336565b8063541348761461070357806354cccf081461072b57806354f634fb1461074957610336565b80634ae8470d1161025b5780634ae8470d1461066f5780634d2025fa1461069d57806350a2f0a8146106d557610336565b80633db966a6146105f157806348c9581e1461060f5780634a2304b11461063757610336565b80632f69e0aa116102e357806337ca44fc116102bd57806337ca44fc146105675780633a9b65791461059f5780633d9e6aad146105bd57610336565b80632f69e0aa1461045c57806332d78554146104845780633427c4ef146104b857610336565b806319ab453c1161031457806319ab453c146103b157806325df9538146103f55780632e748d551461041a57610336565b806307da68f51461033b5780630c340a24146103455780630fb4e2b314610379575b600080fd5b610343610d1a565b005b61034d610de5565b604051808273ffffffffffffffffffffffffffffffffffffffff16815260200191505060405180910390f35b6103af6004803603602081101561038f57600080fd5b81019080803567ffffffffffffffff169060200190929190505050610e09565b005b6103f3600480360360208110156103c757600080fd5b81019080803573ffffffffffffffffffffffffffffffffffffffff169060200190929190505050610f6d565b005b6103fd611467565b604051808381526020018281526020019250505060405180910390f35b61045a6004803603604081101561043057600080fd5b81019080803567ffffffffffffffff169060200190929190803590602001909291905050506118a8565b005b6104646120e0565b604051808267ffffffffffffffff16815260200191505060405180910390f35b6104b66004803603602081101561049a57600080fd5b81019080803563ffffffff1690602001909291905050506120fa565b005b6104ee600480360360208110156104ce57600080fd5b81019080803567ffffffffffffffff16906020019092919050505061210c565b604051808781526020018681526020018567ffffffffffffffff1681526020018473ffffffffffffffffffffffffffffffffffffffff1681526020018367ffffffffffffffff1681526020018273ffffffffffffffffffffffffffffffffffffffff168152602001965050505050505060405180910390f35b61059d6004803603602081101561057d57600080fd5b81019080803567ffffffffffffffff1690602001909291905050506121b0565b005b6105a7612360565b6040518082815260200191505060405180910390f35b6105ef600480360360208110156105d357600080fd5b81019080803563ffffffff169060200190929190505050612366565b005b6105f9612378565b6040518082815260200191505060405180910390f35b61061761237e565b604051808267ffffffffffffffff16815260200191505060405180910390f35b61066d6004803603602081101561064d57600080fd5b81019080803567ffffffffffffffff169060200190929190505050612398565b005b61069b6004803603602081101561068557600080fd5b8101908080359060200190929190505050612bd9565b005b6106d3600480360360208110156106b357600080fd5b81019080803567ffffffffffffffff169060200190929190505050612d37565b005b610701600480360360208110156106eb57600080fd5b8101908080359060200190929190505050612ec9565b005b61070b613017565b604051808267ffffffffffffffff16815260200191505060405180910390f35b610733613031565b6040518082815260200191505060405180910390f35b610751613037565b6040518082815260200191505060405180910390f35b61076f61303d565b6040518082815260200191505060405180910390f35b61078d613043565b6040518082815260200191505060405180910390f35b6107d9600480360360208110156107b957600080fd5b81019080803567ffffffffffffffff169060200190929190505050613049565b604051808781526020018681526020018567ffffffffffffffff1681526020018473ffffffffffffffffffffffffffffffffffffffff1681526020018367ffffffffffffffff1681526020018273ffffffffffffffffffffffffffffffffffffffff168152602001965050505050505060405180910390f35b61087e6004803603602081101561086857600080fd5b81019080803590602001909291905050506130ed565b005b6108ac6004803603602081101561089657600080fd5b8101908080359060200190929190505050613235565b005b6108e4600480360360208110156108c457600080fd5b81019080803567ffffffffffffffff16906020019092919050505061337d565b005b6108ee61352d565b604051808267ffffffffffffffff16815260200191505060405180910390f35b61093a6004803603602081101561092457600080fd5b8101908080359060200190929190505050613547565b005b61094461368f565b6040518082815260200191505060405180910390f35b6109906004803603604081101561097057600080fd5b810190808035906020019092919080359060200190929190505050613695565b6040518082815260200191505060405180910390f35b6109ae6136a9565b604051808273ffffffffffffffffffffffffffffffffffffffff16815260200191505060405180910390f35b610a12600480360360408110156109f057600080fd5b81019080803590602001909291908035151590602001909291905050506136cf565b005b610a5460048036036040811015610a2a57600080fd5b81019080803567ffffffffffffffff169060200190929190803590602001909291905050506136de565b005b610a5e613f09565b005b610a9660048036036020811015610a7657600080fd5b81019080803567ffffffffffffffff1690602001909291905050506142c4565b60405180821515815260200191505060405180910390f35b610ab6614311565b604051808267ffffffffffffffff16815260200191505060405180910390f35b610ade61432b565b604051808267ffffffffffffffff16815260200191505060405180910390f35b610b06614345565b6040518082815260200191505060405180910390f35b610b5460048036036040811015610b3257600080fd5b810190808035906020019092919080351515906020019092919050505061434b565b005b610b8c60048036036020811015610b6c57600080fd5b81019080803567ffffffffffffffff16906020019092919050505061435a565b005b610bba60048036036020811015610ba457600080fd5b8101908080359060200190929190505050614b7c565b005b610be860048036036020811015610bd257600080fd5b8101908080359060200190929190505050614cca565b005b610bf2614e18565b6040518082815260200191505060405180910390f35b610c10614e1e565b6040518082815260200191505060405180910390f35b610c5260048036036020811015610c3c57600080fd5b8101908080359060200190929190505050614e24565b005b610c5c614f8b565b604051808267ffffffffffffffff16815260200191505060405180910390f35b610c84614fa5565b604051808267ffffffffffffffff16815260200191505060405180910390f35b610cac614fbf565b604051808267ffffffffffffffff16815260200191505060405180910390f35b610d0260048036036020811015610ce257600080fd5b81019080803567ffffffffffffffff169060200190929190505050614fd9565b60405180821515815260200191505060405180910390f35b60008054906101000a900473ffffffffffffffffffffffffffffffffffffffff1673ffffffffffffffffffffffffffffffffffffffff163373ffffffffffffffffffffffffffffffffffffffff1614610ddb576040517f08c379a00000000000000000000000000000000000000000000000000000000081526004018080602001828103825260198152602001807f476f7665726e65643a204e6f7420417574686f72697a65642e0000000000000081525060200191505060405180910390fd5b610de3615026565b565b60008054906101000a900473ffffffffffffffffffffffffffffffffffffffff1681565b60008054906101000a900473ffffffffffffffffffffffffffffffffffffffff1673ffffffffffffffffffffffffffffffffffffffff163373ffffffffffffffffffffffffffffffffffffffff1614610eca576040517f08c379a00000000000000000000000000000000000000000000000000000000081526004018080602001828103825260198152602001807f476f7665726e65643a204e6f7420417574686f72697a65642e0000000000000081525060200191505060405180910390fd5b80600f60086101000a81548167ffffffffffffffff021916908367ffffffffffffffff16021790555060405180807f657874656e73696f6e5065724269640000000000000000000000000000000000815250600f01905060405180910390207f6293347933ad2997134e224ac8cd2e39908a4a22aeed9af52127b4bbf765297882604051808267ffffffffffffffff16815260200191505060405180910390a250565b600560009054906101000a900473ffffffffffffffffffffffffffffffffffffffff1673ffffffffffffffffffffffffffffffffffffffff163373ffffffffffffffffffffffffffffffffffffffff1614611030576040517f08c379a000000000000000000000000000000000000000000000000000000000815260040180806020018281038252601e8152602001807f476f7665726e65643a20496e6974206e6f7420617574686f72697a65642e000081525060200191505060405180910390fd5b600560006101000a81549073ffffffffffffffffffffffffffffffffffffffff02191690558073ffffffffffffffffffffffffffffffffffffffff167f908408e307fc569b417f6cbec5d5a06f44a0a505ac0479b47d421a4b2fd6a1e660405160405180910390a2806000806101000a81548173ffffffffffffffffffffffffffffffffffffffff021916908373ffffffffffffffffffffffffffffffffffffffff16021790555060008054906101000a900473ffffffffffffffffffffffffffffffffffffffff1673ffffffffffffffffffffffffffffffffffffffff16639624e83e6040518163ffffffff1660e01b815260040160206040518083038186803b15801561113e57600080fd5b505afa158015611152573d6000803e3d6000fd5b505050506040513d602081101561116857600080fd5b8101908080519060200190929190505050600160006101000a81548173ffffffffffffffffffffffffffffffffffffffff021916908373ffffffffffffffffffffffffffffffffffffffff16021790555060008054906101000a900473ffffffffffffffffffffffffffffffffffffffff1673ffffffffffffffffffffffffffffffffffffffff166311df99956040518163ffffffff1660e01b815260040160206040518083038186803b15801561121f57600080fd5b505afa158015611233573d6000803e3d6000fd5b505050506040513d602081101561124957600080fd5b8101908080519060200190929190505050600260006101000a81548173ffffffffffffffffffffffffffffffffffffffff021916908373ffffffffffffffffffffffffffffffffffffffff16021790555060008054906101000a900473ffffffffffffffffffffffffffffffffffffffff1673ffffffffffffffffffffffffffffffffffffffff1663d478b0876040518163ffffffff1660e01b815260040160206040518083038186803b15801561130057600080fd5b505afa158015611314573d6000803e3d6000fd5b505050506040513d602081101561132a57600080fd5b8101908080519060200190929190505050600360006101000a81548173ffffffffffffffffffffffffffffffffffffffff021916908373ffffffffffffffffffffffffffffffffffffffff16021790555060008054906101000a900473ffffffffffffffffffffffffffffffffffffffff1673ffffffffffffffffffffffffffffffffffffffff16633fc8cef36040518163ffffffff1660e01b815260040160206040518083038186803b1580156113e157600080fd5b505afa1580156113f5573d6000803e3d6000fd5b505050506040513d602081101561140b57600080fd5b8101908080519060200190929190505050600460006101000a81548173ffffffffffffffffffffffffffffffffffffffff021916908373ffffffffffffffffffffffffffffffffffffffff16021790555061146461506f565b50565b6000803073ffffffffffffffffffffffffffffffffffffffff1660008054906101000a900473ffffffffffffffffffffffffffffffffffffffff1673ffffffffffffffffffffffffffffffffffffffff166385aa61036040518163ffffffff1660e01b815260040160206040518083038186803b1580156114e757600080fd5b505afa1580156114fb573d6000803e3d6000fd5b505050506040513d602081101561151157600080fd5b810190808051906020019092919050505073ffffffffffffffffffffffffffffffffffffffff16146115ab576040517f08c379a000000000000000000000000000000000000000000000000000000000815260040180806020018281038252601d8152602001807f557365206c61746573742041756374696f6e7320636f6e74726163742e00000081525060200191505060405180910390fd5b60008060009054906101000a900473ffffffffffffffffffffffffffffffffffffffff1673ffffffffffffffffffffffffffffffffffffffff166311df99956040518163ffffffff1660e01b815260040160206040518083038186803b15801561161457600080fd5b505afa158015611628573d6000803e3d6000fd5b505050506040513d602081101561163e57600080fd5b810190808051906020019092919050505073ffffffffffffffffffffffffffffffffffffffff166375172a8b6040518163ffffffff1660e01b815260040160206040518083038186803b15801561169457600080fd5b505afa1580156116a8573d6000803e3d6000fd5b505050506040513d60208110156116be57600080fd5b8101908080519060200190929190505050905060008060009054906101000a900473ffffffffffffffffffffffffffffffffffffffff1673ffffffffffffffffffffffffffffffffffffffff16639624e83e6040518163ffffffff1660e01b815260040160206040518083038186803b15801561173a57600080fd5b505afa15801561174e573d6000803e3d6000fd5b505050506040513d602081101561176457600080fd5b810190808051906020019092919050505073ffffffffffffffffffffffffffffffffffffffff16630dca59c16040518163ffffffff1660e01b815260040160206040518083038186803b1580156117ba57600080fd5b505afa1580156117ce573d6000803e3d6000fd5b505050506040513d60208110156117e457600080fd5b81019080805190602001909291905050509050600061180e600e548361515290919063ffffffff16565b90506000611827600d548461515290919063ffffffff16565b90506000600a61184083856151f190919063ffffffff16565b8161184757fe5b04905082611860601454876151f190919063ffffffff16565b111561187657808360145487030301965061189f565b8161188c6015548761523b90919063ffffffff16565b101561189e5780601554860183030195505b5b50505050509091565b600360009054906101000a900473ffffffffffffffffffffffffffffffffffffffff1673ffffffffffffffffffffffffffffffffffffffff1663e97dcb626040518163ffffffff1660e01b8152600401600060405180830381600087803b15801561191257600080fd5b505af1158015611926573d6000803e3d6000fd5b50505050600260065414156119a3576040517f08c379a000000000000000000000000000000000000000000000000000000000815260040180806020018281038252601d8152602001807f4c6f636b50726f746f636f6c3a207265656e7472616e742063616c6c2e00000081525060200191505060405180910390fd5b6002600681905550600460149054906101000a900460ff1615611a2e576040517f08c379a000000000000000000000000000000000000000000000000000000000815260040180806020018281038252601e8152602001807f476f7665726e65643a20436f6e74726163742069732073746f707065642e000081525060200191505060405180910390fd5b60008054906101000a900473ffffffffffffffffffffffffffffffffffffffff1673ffffffffffffffffffffffffffffffffffffffff1663bf86d6906040518163ffffffff1660e01b815260040160206040518083038186803b158015611a9457600080fd5b505afa158015611aa8573d6000803e3d6000fd5b505050506040513d6020811015611abe57600080fd5b810190808051906020019092919050505015611b25576040517f08c379a00000000000000000000000000000000000000000000000000000000081526004018080602001828103825260288152602001806161826028913960400191505060405180910390fd5b611b2e826152c3565b6000601060008467ffffffffffffffff1667ffffffffffffffff1681526020019081526020016000209050611b6281615341565b15611bd5576040517f08c379a000000000000000000000000000000000000000000000000000000000815260040180806020018281038252601e8152602001807f41756374696f6e20636f6d706c6574652e2043616c6c20736574746c652e000081525060200191505060405180910390fd5b60008160020160089054906101000a900473ffffffffffffffffffffffffffffffffffffffff169050600082600001549050600080600073ffffffffffffffffffffffffffffffffffffffff168473ffffffffffffffffffffffffffffffffffffffff161415611cd3576103e8611c4f86600101546153bb565b81611c5657fe5b048611611ccb576040517f08c379a000000000000000000000000000000000000000000000000000000000815260040180806020018281038252600c8152602001807f42696420746f6f206c6f772e000000000000000000000000000000000000000081525060200191505060405180910390fd5b859150611d76565b611ce86007548461515290919063ffffffff16565b861015611d5d576040517f08c379a00000000000000000000000000000000000000000000000000000000081526004018080602001828103825260108152602001807f446964206e6f74206f7574206269642e0000000000000000000000000000000081525060200191505060405180910390fd5b829050611d7383876151f190919063ffffffff16565b91505b6000611d97600f60089054906101000a900467ffffffffffffffff1661551d565b90508067ffffffffffffffff168660020160009054906101000a900467ffffffffffffffff1667ffffffffffffffff161015611df957808660020160006101000a81548167ffffffffffffffff021916908367ffffffffffffffff1602179055505b338660020160086101000a81548173ffffffffffffffffffffffffffffffffffffffff021916908373ffffffffffffffffffffffffffffffffffffffff16021790555086866000018190555060008314611ef957601660009054906101000a900473ffffffffffffffffffffffffffffffffffffffff1673ffffffffffffffffffffffffffffffffffffffff166379cc679033856040518363ffffffff1660e01b8152600401808373ffffffffffffffffffffffffffffffffffffffff16815260200182815260200192505050600060405180830381600087803b158015611ee057600080fd5b505af1158015611ef4573d6000803e3d6000fd5b505050505b60008214611fef57601660009054906101000a900473ffffffffffffffffffffffffffffffffffffffff1673ffffffffffffffffffffffffffffffffffffffff166323b872dd3387856040518463ffffffff1660e01b8152600401808473ffffffffffffffffffffffffffffffffffffffff1681526020018373ffffffffffffffffffffffffffffffffffffffff1681526020018281526020019350505050602060405180830381600087803b158015611fb257600080fd5b505af1158015611fc6573d6000803e3d6000fd5b505050506040513d6020811015611fdc57600080fd5b8101908080519060200190929190505050505b3373ffffffffffffffffffffffffffffffffffffffff168867ffffffffffffffff16600115157f4042f92f7a93056a4ed1492b7b5a495196ea67839a5934acc9a0d2e59d543d948a6040518082815260200191505060405180910390a45050505050506001600681905550600360009054906101000a900473ffffffffffffffffffffffffffffffffffffffff1673ffffffffffffffffffffffffffffffffffffffff1663e9fad8ee6040518163ffffffff1660e01b8152600401600060405180830381600087803b1580156120c457600080fd5b505af11580156120d8573d6000803e3d6000fd5b505050505050565b601360009054906101000a900467ffffffffffffffff1681565b6121098163ffffffff166152c3565b50565b60106020528060005260406000206000915090508060000154908060010154908060020160009054906101000a900467ffffffffffffffff16908060020160089054906101000a900473ffffffffffffffffffffffffffffffffffffffff16908060030160009054906101000a900467ffffffffffffffff16908060030160089054906101000a900473ffffffffffffffffffffffffffffffffffffffff16905086565b60008054906101000a900473ffffffffffffffffffffffffffffffffffffffff1673ffffffffffffffffffffffffffffffffffffffff163373ffffffffffffffffffffffffffffffffffffffff1614612271576040517f08c379a00000000000000000000000000000000000000000000000000000000081526004018080602001828103825260198152602001807f476f7665726e65643a204e6f7420417574686f72697a65642e0000000000000081525060200191505060405180910390fd5b80600f60186101000a81548167ffffffffffffffff021916908367ffffffffffffffff160217905550600f60189054906101000a900467ffffffffffffffff1667ffffffffffffffff16600f60109054906101000a900467ffffffffffffffff1667ffffffffffffffff16106122e657600080fd5b60405180807f6d617841756374696f6e4475726174696f6e0000000000000000000000000000815250601201905060405180910390207f6293347933ad2997134e224ac8cd2e39908a4a22aeed9af52127b4bbf765297882604051808267ffffffffffffffff16815260200191505060405180910390a250565b600b5481565b6123758163ffffffff1661554a565b50565b60155481565b600f60189054906101000a900467ffffffffffffffff1681565b600360009054906101000a900473ffffffffffffffffffffffffffffffffffffffff1673ffffffffffffffffffffffffffffffffffffffff1663e97dcb626040518163ffffffff1660e01b8152600401600060405180830381600087803b15801561240257600080fd5b505af1158015612416573d6000803e3d6000fd5b5050505060026006541415612493576040517f08c379a000000000000000000000000000000000000000000000000000000000815260040180806020018281038252601d8152602001807f4c6f636b50726f746f636f6c3a207265656e7472616e742063616c6c2e00000081525060200191505060405180910390fd5b6002600681905550600460149054906101000a900460ff161561251e576040517f08c379a00000000000000000000000000000000000000000000000000000000081526004018080602001828103825260148152602001807f436f6e74726163742069732073746f707065642e00000000000000000000000081525060200191505060405180910390fd5b6125278161554a565b6000601160008367ffffffffffffffff1667ffffffffffffffff168152602001908152602001600020905061255b81615341565b6125cd576040517f08c379a00000000000000000000000000000000000000000000000000000000081526004018080602001828103825260138152602001807f41756374696f6e20696e636f6d706c6574652e0000000000000000000000000081525060200191505060405180910390fd5b60008160020160089054906101000a900473ffffffffffffffffffffffffffffffffffffffff16905060008073ffffffffffffffffffffffffffffffffffffffff168273ffffffffffffffffffffffffffffffffffffffff1614612635578260000154612643565b61264283600101546153bb565b5b905060008054906101000a900473ffffffffffffffffffffffffffffffffffffffff1673ffffffffffffffffffffffffffffffffffffffff1663a99acb178460030160089054906101000a900473ffffffffffffffffffffffffffffffffffffffff166126bb6008548561515290919063ffffffff16565b6040518363ffffffff1660e01b8152600401808373ffffffffffffffffffffffffffffffffffffffff16815260200182815260200192505050600060405180830381600087803b15801561270e57600080fd5b505af1158015612722573d6000803e3d6000fd5b5050505060008054906101000a900473ffffffffffffffffffffffffffffffffffffffff1673ffffffffffffffffffffffffffffffffffffffff1663a99acb17336127786009548561515290919063ffffffff16565b6040518363ffffffff1660e01b8152600401808373ffffffffffffffffffffffffffffffffffffffff16815260200182815260200192505050600060405180830381600087803b1580156127cb57600080fd5b505af11580156127df573d6000803e3d6000fd5b50505050600073ffffffffffffffffffffffffffffffffffffffff168273ffffffffffffffffffffffffffffffffffffffff16141561283c5761283183600101546015546151f190919063ffffffff16565b6015819055506128ea565b60008054906101000a900473ffffffffffffffffffffffffffffffffffffffff1673ffffffffffffffffffffffffffffffffffffffff1663a99acb178385600001546040518363ffffffff1660e01b8152600401808373ffffffffffffffffffffffffffffffffffffffff16815260200182815260200192505050600060405180830381600087803b1580156128d157600080fd5b505af11580156128e5573d6000803e3d6000fd5b505050505b601160008567ffffffffffffffff1667ffffffffffffffff16815260200190815260200160002060008082016000905560018201600090556002820160006101000a81549067ffffffffffffffff02191690556002820160086101000a81549073ffffffffffffffffffffffffffffffffffffffff02191690556003820160006101000a81549067ffffffffffffffff02191690556003820160086101000a81549073ffffffffffffffffffffffffffffffffffffffff021916905550506000612a1a6129e1600a601260189054906101000a900467ffffffffffffffff1667ffffffffffffffff166155c890919063ffffffff16565b67ffffffffffffffff16601260109054906101000a900467ffffffffffffffff1667ffffffffffffffff1661566490919063ffffffff16565b90506000601260189054906101000a900467ffffffffffffffff1690505b818167ffffffffffffffff16108015612a575750612a558161567d565b155b15612a69578080600101915050612a38565b80601260186101000a81548167ffffffffffffffff021916908367ffffffffffffffff1602179055508373ffffffffffffffffffffffffffffffffffffffff168667ffffffffffffffff16600015157f0a482bfa50a79be0b248d777bc647874333f7d9b7d6a33ce58fe00db2c14e3bf8860030160089054906101000a900473ffffffffffffffffffffffffffffffffffffffff1633604051808373ffffffffffffffffffffffffffffffffffffffff1681526020018273ffffffffffffffffffffffffffffffffffffffff1681526020019250505060405180910390a450505050506001600681905550600360009054906101000a900473ffffffffffffffffffffffffffffffffffffffff1673ffffffffffffffffffffffffffffffffffffffff1663e9fad8ee6040518163ffffffff1660e01b8152600401600060405180830381600087803b158015612bbe57600080fd5b505af1158015612bd2573d6000803e3d6000fd5b5050505050565b60008054906101000a900473ffffffffffffffffffffffffffffffffffffffff1673ffffffffffffffffffffffffffffffffffffffff163373ffffffffffffffffffffffffffffffffffffffff1614612c9a576040517f08c379a00000000000000000000000000000000000000000000000000000000081526004018080602001828103825260198152602001807f476f7665726e65643a204e6f7420417574686f72697a65642e0000000000000081525060200191505060405180910390fd5b80600e81905550600e54600d5410612cb157600080fd5b670de0b6b3a7640000600e5410612cc757600080fd5b60405180807f72657365727665734275666665725570706572426f756e640000000000000000815250601801905060405180910390207f3a64504f0bc0c335e2aecb78638a257e0351a3fe0370861fd54ee4190b920933826040518082815260200191505060405180910390a250565b60008054906101000a900473ffffffffffffffffffffffffffffffffffffffff1673ffffffffffffffffffffffffffffffffffffffff163373ffffffffffffffffffffffffffffffffffffffff1614612df8576040517f08c379a00000000000000000000000000000000000000000000000000000000081526004018080602001828103825260198152602001807f476f7665726e65643a204e6f7420417574686f72697a65642e0000000000000081525060200191505060405180910390fd5b80600f60006101000a81548167ffffffffffffffff021916908367ffffffffffffffff1602179055506000600f60009054906101000a900467ffffffffffffffff1667ffffffffffffffff161415612e4f57600080fd5b60405180807f626174636853697a650000000000000000000000000000000000000000000000815250600901905060405180910390207f6293347933ad2997134e224ac8cd2e39908a4a22aeed9af52127b4bbf765297882604051808267ffffffffffffffff16815260200191505060405180910390a250565b60008054906101000a900473ffffffffffffffffffffffffffffffffffffffff1673ffffffffffffffffffffffffffffffffffffffff163373ffffffffffffffffffffffffffffffffffffffff1614612f8a576040517f08c379a00000000000000000000000000000000000000000000000000000000081526004018080602001828103825260198152602001807f476f7665726e65643a204e6f7420417574686f72697a65642e0000000000000081525060200191505060405180910390fd5b80600881905550670de0b6b3a764000060085410612fa757600080fd5b60405180807f63726561746f72526577617264526174696f0000000000000000000000000000815250601201905060405180910390207f3a64504f0bc0c335e2aecb78638a257e0351a3fe0370861fd54ee4190b920933826040518082815260200191505060405180910390a250565b600f60109054906101000a900467ffffffffffffffff1681565b600e5481565b60075481565b600a5481565b600d5481565b60116020528060005260406000206000915090508060000154908060010154908060020160009054906101000a900467ffffffffffffffff16908060020160089054906101000a900473ffffffffffffffffffffffffffffffffffffffff16908060030160009054906101000a900467ffffffffffffffff16908060030160089054906101000a900473ffffffffffffffffffffffffffffffffffffffff16905086565b60008054906101000a900473ffffffffffffffffffffffffffffffffffffffff1673ffffffffffffffffffffffffffffffffffffffff163373ffffffffffffffffffffffffffffffffffffffff16146131ae576040517f08c379a00000000000000000000000000000000000000000000000000000000081526004018080602001828103825260198152602001807f476f7665726e65643a204e6f7420417574686f72697a65642e0000000000000081525060200191505060405180910390fd5b80600b81905550600b54600a54106131c557600080fd5b60405180807f737572706c757341756374696f6e4c6f7453697a650000000000000000000000815250601501905060405180910390207f3a64504f0bc0c335e2aecb78638a257e0351a3fe0370861fd54ee4190b920933826040518082815260200191505060405180910390a250565b60008054906101000a900473ffffffffffffffffffffffffffffffffffffffff1673ffffffffffffffffffffffffffffffffffffffff163373ffffffffffffffffffffffffffffffffffffffff16146132f6576040517f08c379a00000000000000000000000000000000000000000000000000000000081526004018080602001828103825260198152602001807f476f7665726e65643a204e6f7420417574686f72697a65642e0000000000000081525060200191505060405180910390fd5b80600c81905550600c54600a541061330d57600080fd5b60405180807f6465666963697441756374696f6e4c6f7453697a650000000000000000000000815250601501905060405180910390207f3a64504f0bc0c335e2aecb78638a257e0351a3fe0370861fd54ee4190b920933826040518082815260200191505060405180910390a250565b60008054906101000a900473ffffffffffffffffffffffffffffffffffffffff1673ffffffffffffffffffffffffffffffffffffffff163373ffffffffffffffffffffffffffffffffffffffff161461343e576040517f08c379a00000000000000000000000000000000000000000000000000000000081526004018080602001828103825260198152602001807f476f7665726e65643a204e6f7420417574686f72697a65642e0000000000000081525060200191505060405180910390fd5b80600f60106101000a81548167ffffffffffffffff021916908367ffffffffffffffff160217905550600f60189054906101000a900467ffffffffffffffff1667ffffffffffffffff16600f60109054906101000a900467ffffffffffffffff1667ffffffffffffffff16106134b357600080fd5b60405180807f6d696e41756374696f6e4475726174696f6e0000000000000000000000000000815250601201905060405180910390207f6293347933ad2997134e224ac8cd2e39908a4a22aeed9af52127b4bbf765297882604051808267ffffffffffffffff16815260200191505060405180910390a250565b601260109054906101000a900467ffffffffffffffff1681565b60008054906101000a900473ffffffffffffffffffffffffffffffffffffffff1673ffffffffffffffffffffffffffffffffffffffff163373ffffffffffffffffffffffffffffffffffffffff1614613608576040517f08c379a00000000000000000000000000000000000000000000000000000000081526004018080602001828103825260198152602001807f476f7665726e65643a204e6f7420417574686f72697a65642e0000000000000081525060200191505060405180910390fd5b80600d81905550600e54600d541061361f57600080fd5b60405180807f72657365727665734275666665724c6f776572426f756e640000000000000000815250601801905060405180910390207f3a64504f0bc0c335e2aecb78638a257e0351a3fe0370861fd54ee4190b920933826040518082815260200191505060405180910390a250565b60085481565b60006136a183836156b4565b905092915050565b601660009054906101000a900473ffffffffffffffffffffffffffffffffffffffff1681565b6136da823383615724565b5050565b600360009054906101000a900473ffffffffffffffffffffffffffffffffffffffff1673ffffffffffffffffffffffffffffffffffffffff1663e97dcb626040518163ffffffff1660e01b8152600401600060405180830381600087803b15801561374857600080fd5b505af115801561375c573d6000803e3d6000fd5b50505050600260065414156137d9576040517f08c379a000000000000000000000000000000000000000000000000000000000815260040180806020018281038252601d8152602001807f4c6f636b50726f746f636f6c3a207265656e7472616e742063616c6c2e00000081525060200191505060405180910390fd5b6002600681905550600460149054906101000a900460ff1615613864576040517f08c379a000000000000000000000000000000000000000000000000000000000815260040180806020018281038252601e8152602001807f476f7665726e65643a20436f6e74726163742069732073746f707065642e000081525060200191505060405180910390fd5b60008054906101000a900473ffffffffffffffffffffffffffffffffffffffff1673ffffffffffffffffffffffffffffffffffffffff1663bf86d6906040518163ffffffff1660e01b815260040160206040518083038186803b1580156138ca57600080fd5b505afa1580156138de573d6000803e3d6000fd5b505050506040513d60208110156138f457600080fd5b81019080805190602001909291905050501561395b576040517f08c379a00000000000000000000000000000000000000000000000000000000081526004018080602001828103825260288152602001806161826028913960400191505060405180910390fd5b6139648261554a565b6000601160008467ffffffffffffffff1667ffffffffffffffff168152602001908152602001600020905061399881615341565b15613a0b576040517f08c379a000000000000000000000000000000000000000000000000000000000815260040180806020018281038252601e8152602001807f41756374696f6e20636f6d706c6574652e2043616c6c20736574746c652e000081525060200191505060405180910390fd5b60008060009054906101000a900473ffffffffffffffffffffffffffffffffffffffff1673ffffffffffffffffffffffffffffffffffffffff166311df99956040518163ffffffff1660e01b815260040160206040518083038186803b158015613a7457600080fd5b505afa158015613a88573d6000803e3d6000fd5b505050506040513d6020811015613a9e57600080fd5b8101908080519060200190929190505050905060008073ffffffffffffffffffffffffffffffffffffffff168360020160089054906101000a900473ffffffffffffffffffffffffffffffffffffffff1673ffffffffffffffffffffffffffffffffffffffff161415613bc657613b2b6064613b1d85600101546153bb565b615c2b90919063ffffffff16565b8410613b9f576040517f08c379a000000000000000000000000000000000000000000000000000000000815260040180806020018281038252600d8152602001807f42696420746f6f20686967682e0000000000000000000000000000000000000081525060200191505060405180910390fd5b613bb883600101546015546151f190919063ffffffff16565b601581905550819050613c7c565b613bdf6007548460000154615cb190919063ffffffff16565b841115613c54576040517f08c379a00000000000000000000000000000000000000000000000000000000081526004018080602001828103825260128152602001807f446964206e6f7420756e646572206269642e000000000000000000000000000081525060200191505060405180910390fd5b8260020160089054906101000a900473ffffffffffffffffffffffffffffffffffffffff1690505b6000613c9d600f60089054906101000a900467ffffffffffffffff1661551d565b90508067ffffffffffffffff168460020160009054906101000a900467ffffffffffffffff1667ffffffffffffffff161015613cff57808460020160006101000a81548167ffffffffffffffff021916908367ffffffffffffffff1602179055505b338460020160086101000a81548173ffffffffffffffffffffffffffffffffffffffff021916908373ffffffffffffffffffffffffffffffffffffffff1602179055508484600001819055508273ffffffffffffffffffffffffffffffffffffffff166323b872dd338487600101546040518463ffffffff1660e01b8152600401808473ffffffffffffffffffffffffffffffffffffffff1681526020018373ffffffffffffffffffffffffffffffffffffffff1681526020018281526020019350505050602060405180830381600087803b158015613dde57600080fd5b505af1158015613df2573d6000803e3d6000fd5b505050506040513d6020811015613e0857600080fd5b8101908080519060200190929190505050503373ffffffffffffffffffffffffffffffffffffffff168667ffffffffffffffff16600015157f4042f92f7a93056a4ed1492b7b5a495196ea67839a5934acc9a0d2e59d543d94886040518082815260200191505060405180910390a4505050506001600681905550600360009054906101000a900473ffffffffffffffffffffffffffffffffffffffff1673ffffffffffffffffffffffffffffffffffffffff1663e9fad8ee6040518163ffffffff1660e01b8152600401600060405180830381600087803b158015613eed57600080fd5b505af1158015613f01573d6000803e3d6000fd5b505050505050565b600360009054906101000a900473ffffffffffffffffffffffffffffffffffffffff1673ffffffffffffffffffffffffffffffffffffffff1663e97dcb626040518163ffffffff1660e01b8152600401600060405180830381600087803b158015613f7357600080fd5b505af1158015613f87573d6000803e3d6000fd5b5050505060026006541415614004576040517f08c379a000000000000000000000000000000000000000000000000000000000815260040180806020018281038252601d8152602001807f4c6f636b50726f746f636f6c3a207265656e7472616e742063616c6c2e00000081525060200191505060405180910390fd5b6002600681905550600460149054906101000a900460ff161561408f576040517f08c379a000000000000000000000000000000000000000000000000000000000815260040180806020018281038252601e8152602001807f476f7665726e65643a20436f6e74726163742069732073746f707065642e000081525060200191505060405180910390fd5b60008054906101000a900473ffffffffffffffffffffffffffffffffffffffff1673ffffffffffffffffffffffffffffffffffffffff1663bf86d6906040518163ffffffff1660e01b815260040160206040518083038186803b1580156140f557600080fd5b505afa158015614109573d6000803e3d6000fd5b505050506040513d602081101561411f57600080fd5b810190808051906020019092919050505015614186576040517f08c379a00000000000000000000000000000000000000000000000000000000081526004018080602001828103825260288152602001806161826028913960400191505060405180910390fd5b600080614191611467565b91509150600082146141ae576141a982336001615dc4565b614236565b600081146141c7576141c281336000615dc4565b614235565b6040517f08c379a00000000000000000000000000000000000000000000000000000000081526004018080602001828103825260158152602001807f4e6f2061756374696f6e7320746f2073746172742e000000000000000000000081525060200191505060405180910390fd5b5b50506001600681905550600360009054906101000a900473ffffffffffffffffffffffffffffffffffffffff1673ffffffffffffffffffffffffffffffffffffffff1663e9fad8ee6040518163ffffffff1660e01b8152600401600060405180830381600087803b1580156142aa57600080fd5b505af11580156142be573d6000803e3d6000fd5b50505050565b60006142cf82615e68565b6142da57600061430a565b614309601060008467ffffffffffffffff1667ffffffffffffffff168152602001908152602001600020615341565b5b9050919050565b601260089054906101000a900467ffffffffffffffff1681565b601260009054906101000a900467ffffffffffffffff1681565b60095481565b614356823383615dc4565b5050565b600360009054906101000a900473ffffffffffffffffffffffffffffffffffffffff1673ffffffffffffffffffffffffffffffffffffffff1663e97dcb626040518163ffffffff1660e01b8152600401600060405180830381600087803b1580156143c457600080fd5b505af11580156143d8573d6000803e3d6000fd5b5050505060026006541415614455576040517f08c379a000000000000000000000000000000000000000000000000000000000815260040180806020018281038252601d8152602001807f4c6f636b50726f746f636f6c3a207265656e7472616e742063616c6c2e00000081525060200191505060405180910390fd5b6002600681905550600460149054906101000a900460ff16156144e0576040517f08c379a00000000000000000000000000000000000000000000000000000000081526004018080602001828103825260148152602001807f436f6e74726163742069732073746f707065642e00000000000000000000000081525060200191505060405180910390fd5b6144e9816152c3565b6000601060008367ffffffffffffffff1667ffffffffffffffff168152602001908152602001600020905061451d81615341565b61458f576040517f08c379a00000000000000000000000000000000000000000000000000000000081526004018080602001828103825260138152602001807f41756374696f6e20696e636f6d706c6574652e0000000000000000000000000081525060200191505060405180910390fd5b60008060009054906101000a900473ffffffffffffffffffffffffffffffffffffffff1673ffffffffffffffffffffffffffffffffffffffff166311df99956040518163ffffffff1660e01b815260040160206040518083038186803b1580156145f857600080fd5b505afa15801561460c573d6000803e3d6000fd5b505050506040513d602081101561462257600080fd5b8101908080519060200190929190505050905060008260010154905060008360020160089054906101000a900473ffffffffffffffffffffffffffffffffffffffff16905060008460030160089054906101000a900473ffffffffffffffffffffffffffffffffffffffff16905060006146a76008548561515290919063ffffffff16565b905060006146c06009548661515290919063ffffffff16565b90506146d7856014546151f190919063ffffffff16565b6014819055508573ffffffffffffffffffffffffffffffffffffffff166316f9428f84846040518363ffffffff1660e01b8152600401808373ffffffffffffffffffffffffffffffffffffffff16815260200182815260200192505050600060405180830381600087803b15801561474e57600080fd5b505af1158015614762573d6000803e3d6000fd5b505050508573ffffffffffffffffffffffffffffffffffffffff166316f9428f33836040518363ffffffff1660e01b8152600401808373ffffffffffffffffffffffffffffffffffffffff16815260200182815260200192505050600060405180830381600087803b1580156147d757600080fd5b505af11580156147eb573d6000803e3d6000fd5b50505050600073ffffffffffffffffffffffffffffffffffffffff168473ffffffffffffffffffffffffffffffffffffffff16146148ad578573ffffffffffffffffffffffffffffffffffffffff166316f9428f85876040518363ffffffff1660e01b8152600401808373ffffffffffffffffffffffffffffffffffffffff16815260200182815260200192505050600060405180830381600087803b15801561489457600080fd5b505af11580156148a8573d6000803e3d6000fd5b505050505b601060008967ffffffffffffffff1667ffffffffffffffff16815260200190815260200160002060008082016000905560018201600090556002820160006101000a81549067ffffffffffffffff02191690556002820160086101000a81549073ffffffffffffffffffffffffffffffffffffffff02191690556003820160006101000a81549067ffffffffffffffff02191690556003820160086101000a81549073ffffffffffffffffffffffffffffffffffffffff0219169055505060006149dd6149a4600a601260089054906101000a900467ffffffffffffffff1667ffffffffffffffff166155c890919063ffffffff16565b67ffffffffffffffff16601260009054906101000a900467ffffffffffffffff1667ffffffffffffffff1661566490919063ffffffff16565b90506000601260089054906101000a900467ffffffffffffffff1690505b818167ffffffffffffffff16108015614a1a5750614a1881615e68565b155b15614a2c5780806001019150506149fb565b80601260086101000a81548167ffffffffffffffff021916908367ffffffffffffffff1602179055508573ffffffffffffffffffffffffffffffffffffffff168a67ffffffffffffffff16600115157f0a482bfa50a79be0b248d777bc647874333f7d9b7d6a33ce58fe00db2c14e3bf8833604051808373ffffffffffffffffffffffffffffffffffffffff1681526020018273ffffffffffffffffffffffffffffffffffffffff1681526020019250505060405180910390a45050505050505050506001600681905550600360009054906101000a900473ffffffffffffffffffffffffffffffffffffffff1673ffffffffffffffffffffffffffffffffffffffff1663e9fad8ee6040518163ffffffff1660e01b8152600401600060405180830381600087803b158015614b6157600080fd5b505af1158015614b75573d6000803e3d6000fd5b5050505050565b60008054906101000a900473ffffffffffffffffffffffffffffffffffffffff1673ffffffffffffffffffffffffffffffffffffffff163373ffffffffffffffffffffffffffffffffffffffff1614614c3d576040517f08c379a00000000000000000000000000000000000000000000000000000000081526004018080602001828103825260198152602001807f476f7665726e65643a204e6f7420417574686f72697a65642e0000000000000081525060200191505060405180910390fd5b80600981905550670de0b6b3a764000060095410614c5a57600080fd5b60405180807f636c65616e6572526577617264526174696f0000000000000000000000000000815250601201905060405180910390207f3a64504f0bc0c335e2aecb78638a257e0351a3fe0370861fd54ee4190b920933826040518082815260200191505060405180910390a250565b60008054906101000a900473ffffffffffffffffffffffffffffffffffffffff1673ffffffffffffffffffffffffffffffffffffffff163373ffffffffffffffffffffffffffffffffffffffff1614614d8b576040517f08c379a00000000000000000000000000000000000000000000000000000000081526004018080602001828103825260198152602001807f476f7665726e65643a204e6f7420417574686f72697a65642e0000000000000081525060200191505060405180910390fd5b80600781905550670de0b6b3a764000060075411614da857600080fd5b60405180807f6d696e42696444656c7461000000000000000000000000000000000000000000815250600b01905060405180910390207f3a64504f0bc0c335e2aecb78638a257e0351a3fe0370861fd54ee4190b920933826040518082815260200191505060405180910390a250565b600c5481565b60145481565b60008054906101000a900473ffffffffffffffffffffffffffffffffffffffff1673ffffffffffffffffffffffffffffffffffffffff163373ffffffffffffffffffffffffffffffffffffffff1614614ee5576040517f08c379a00000000000000000000000000000000000000000000000000000000081526004018080602001828103825260198152602001807f476f7665726e65643a204e6f7420417574686f72697a65642e0000000000000081525060200191505060405180910390fd5b80600a81905550600a54600010614efb57600080fd5b600b54600a5410614f0b57600080fd5b600c54600a5410614f1b57600080fd5b60405180807f6d696e41756374696f6e4c6f7453697a65000000000000000000000000000000815250601101905060405180910390207f3a64504f0bc0c335e2aecb78638a257e0351a3fe0370861fd54ee4190b920933826040518082815260200191505060405180910390a250565b600f60009054906101000a900467ffffffffffffffff1681565b601260189054906101000a900467ffffffffffffffff1681565b600f60089054906101000a900467ffffffffffffffff1681565b6000614fe48261567d565b614fef57600061501f565b61501e601160008467ffffffffffffffff1667ffffffffffffffff168152602001908152602001600020615341565b5b9050919050565b6001600460146101000a81548160ff0219169083151502179055507f7acc84e34091ae817647a4c49116f5cc07f319078ba80f8f5fde37ea7e25cbd660405160405180910390a1565b60008054906101000a900473ffffffffffffffffffffffffffffffffffffffff1673ffffffffffffffffffffffffffffffffffffffff166399eeec956040518163ffffffff1660e01b815260040160206040518083038186803b1580156150d557600080fd5b505afa1580156150e9573d6000803e3d6000fd5b505050506040513d60208110156150ff57600080fd5b8101908080519060200190929190505050601660006101000a81548173ffffffffffffffffffffffffffffffffffffffff021916908373ffffffffffffffffffffffffffffffffffffffff160217905550565b6000808314806151625750600082145b1561517057600090506151eb565b81830290508183828161517f57fe5b04146151d6576040517f08c379a00000000000000000000000000000000000000000000000000000000081526004018080602001828103825260228152602001806161606022913960400191505060405180910390fd5b670de0b6b3a764000081816151e757fe5b0490505b92915050565b600061523383836040518060400160405280601e81526020017f536166654d6174683a207375627472616374696f6e206f766572666c6f770000815250615e9f565b905092915050565b6000808284019050838110156152b9576040517f08c379a000000000000000000000000000000000000000000000000000000000815260040180806020018281038252601b8152602001807f536166654d6174683a206164646974696f6e206f766572666c6f77000000000081525060200191505060405180910390fd5b8091505092915050565b6152cc81615e68565b61533e576040517f08c379a00000000000000000000000000000000000000000000000000000000081526004018080602001828103825260178152602001807f41756374696f6e20646f6573206e6f742065786973742e00000000000000000081525060200191505060405180910390fd5b50565b60008061534c615f5f565b90508067ffffffffffffffff168360020160009054906101000a900467ffffffffffffffff1667ffffffffffffffff1610806153b357508067ffffffffffffffff168360030160009054906101000a900467ffffffffffffffff1667ffffffffffffffff16105b915050919050565b6000615516601660009054906101000a900473ffffffffffffffffffffffffffffffffffffffff1673ffffffffffffffffffffffffffffffffffffffff166318160ddd6040518163ffffffff1660e01b815260040160206040518083038186803b15801561542857600080fd5b505afa15801561543c573d6000803e3d6000fd5b505050506040513d602081101561545257600080fd5b8101908080519060200190929190505050600260009054906101000a900473ffffffffffffffffffffffffffffffffffffffff1673ffffffffffffffffffffffffffffffffffffffff166318160ddd6040518163ffffffff1660e01b815260040160206040518083038186803b1580156154cb57600080fd5b505afa1580156154df573d6000803e3d6000fd5b505050506040513d60208110156154f557600080fd5b810190808051906020019092919050505084615f6f9092919063ffffffff16565b9050919050565b60006155438261552b615f5f565b67ffffffffffffffff166155c890919063ffffffff16565b9050919050565b6155538161567d565b6155c5576040517f08c379a00000000000000000000000000000000000000000000000000000000081526004018080602001828103825260178152602001807f41756374696f6e20646f6573206e6f742065786973742e00000000000000000081525060200191505060405180910390fd5b50565b60008082840190508367ffffffffffffffff168167ffffffffffffffff16101561565a576040517f08c379a000000000000000000000000000000000000000000000000000000000815260040180806020018281038252601b8152602001807f536166654d6174683a206164646974696f6e206f766572666c6f77000000000081525060200191505060405180910390fd5b8091505092915050565b60008183106156735781615675565b825b905092915050565b600080601160008467ffffffffffffffff1667ffffffffffffffff1681526020019081526020016000206001015414159050919050565b6000808284816156c057fe5b06905061571b600a5482106156d65760006156d8565b815b850361570d600f60009054906101000a900467ffffffffffffffff1667ffffffffffffffff1686615c2b90919063ffffffff16565b61566490919063ffffffff16565b91505092915050565b6000615745600f60189054906101000a900467ffffffffffffffff1661551d565b90508067ffffffffffffffff16601360009054906101000a900467ffffffffffffffff1667ffffffffffffffff1610156157a35780601360006101000a81548167ffffffffffffffff021916908367ffffffffffffffff1602179055505b6157ab6160e9565b6040518060c00160405280600081526020018681526020016157e2600f60109054906101000a900467ffffffffffffffff1661551d565b67ffffffffffffffff168152602001600073ffffffffffffffffffffffffffffffffffffffff1681526020018367ffffffffffffffff1681526020018573ffffffffffffffffffffffffffffffffffffffff1681525090508215615a34578060106000601260009054906101000a900467ffffffffffffffff1667ffffffffffffffff1667ffffffffffffffff168152602001908152602001600020600082015181600001556020820151816001015560408201518160020160006101000a81548167ffffffffffffffff021916908367ffffffffffffffff16021790555060608201518160020160086101000a81548173ffffffffffffffffffffffffffffffffffffffff021916908373ffffffffffffffffffffffffffffffffffffffff16021790555060808201518160030160006101000a81548167ffffffffffffffff021916908367ffffffffffffffff16021790555060a08201518160030160086101000a81548173ffffffffffffffffffffffffffffffffffffffff021916908373ffffffffffffffffffffffffffffffffffffffff16021790555090505084601260009054906101000a900467ffffffffffffffff1667ffffffffffffffff16600115157fc19ebfd17eb8be856cffa00c86424e745fc3228c0d116b824f598079f2d04a5d85604051808267ffffffffffffffff16815260200191505060405180910390a46012600081819054906101000a900467ffffffffffffffff168092919060010191906101000a81548167ffffffffffffffff021916908367ffffffffffffffff16021790555050615c24565b8060116000601260109054906101000a900467ffffffffffffffff1667ffffffffffffffff1667ffffffffffffffff168152602001908152602001600020600082015181600001556020820151816001015560408201518160020160006101000a81548167ffffffffffffffff021916908367ffffffffffffffff16021790555060608201518160020160086101000a81548173ffffffffffffffffffffffffffffffffffffffff021916908373ffffffffffffffffffffffffffffffffffffffff16021790555060808201518160030160006101000a81548167ffffffffffffffff021916908367ffffffffffffffff16021790555060a08201518160030160086101000a81548173ffffffffffffffffffffffffffffffffffffffff021916908373ffffffffffffffffffffffffffffffffffffffff16021790555090505084601260109054906101000a900467ffffffffffffffff1667ffffffffffffffff16600015157fc19ebfd17eb8be856cffa00c86424e745fc3228c0d116b824f598079f2d04a5d85604051808267ffffffffffffffff16815260200191505060405180910390a46012601081819054906101000a900467ffffffffffffffff168092919060010191906101000a81548167ffffffffffffffff021916908367ffffffffffffffff160217905550505b5050505050565b600080831415615c3e5760009050615cab565b6000828402905082848281615c4f57fe5b0414615ca6576040517f08c379a00000000000000000000000000000000000000000000000000000000081526004018080602001828103825260218152602001806161aa6021913960400191505060405180910390fd5b809150505b92915050565b600080831415615cc45760009050615dbe565b6000821415615d3b576040517f08c379a000000000000000000000000000000000000000000000000000000000815260040180806020018281038252601b8152602001807f536166654d6174683a206469766973696f6e206279207a65726f2e000000000081525060200191505060405180910390fd5b670de0b6b3a764000083029050670de0b6b3a7640000838281615d5a57fe5b0414615db1576040517f08c379a00000000000000000000000000000000000000000000000000000000081526004018080602001828103825260228152602001806161606022913960400191505060405180910390fd5b818181615dba57fe5b0490505b92915050565b615dde8382615dd557600c54615dd9565b600b545b6156b4565b92508015615e0657615dfb8360145461523b90919063ffffffff16565b601481905550615e22565b615e1b8360155461523b90919063ffffffff16565b6015819055505b60005b615e4882615e3557600c54615e39565b600b545b8561566490919063ffffffff16565b9050615e55818484615724565b808403935060008411615e255750505050565b600080601060008467ffffffffffffffff1667ffffffffffffffff1681526020019081526020016000206001015414159050919050565b6000838311158290615f4c576040517f08c379a00000000000000000000000000000000000000000000000000000000081526004018080602001828103825283818151815260200191508051906020019080838360005b83811015615f11578082015181840152602081019050615ef6565b50505050905090810190601f168015615f3e5780820380516001836020036101000a031916815260200191505b509250505060405180910390fd5b5060008385039050809150509392505050565b6000615f6a4261607e565b905090565b600080841480615f7f5750600083145b15615f8d5760009050616077565b6000821415616004576040517f08c379a000000000000000000000000000000000000000000000000000000000815260040180806020018281038252601b8152602001807f536166654d6174683a206469766973696f6e206279207a65726f2e000000000081525060200191505060405180910390fd5b82840290508284828161601357fe5b041461606a576040517f08c379a00000000000000000000000000000000000000000000000000000000081526004018080602001828103825260228152602001806161606022913960400191505060405180910390fd5b81818161607357fe5b0490505b9392505050565b60006801000000000000000082106160e1576040517f08c379a00000000000000000000000000000000000000000000000000000000081526004018080602001828103825260268152602001806161cb6026913960400191505060405180910390fd5b819050919050565b6040518060c001604052806000815260200160008152602001600067ffffffffffffffff168152602001600073ffffffffffffffffffffffffffffffffffffffff168152602001600067ffffffffffffffff168152602001600073ffffffffffffffffffffffffffffffffffffffff168152509056fe536166654d6174683a206d756c7469706c69636174696f6e206f766572666c6f772e476f7665726e65643a204e6f7420617661696c61626c6520647572696e672073687574646f776e2e536166654d6174683a206d756c7469706c69636174696f6e206f766572666c6f7753616665436173743a2076616c756520646f65736e27742066697420696e2036342062697473a264697066735822122057d9d8b0bb2dcb55bf0046930ffabe2f284cc8e82b5f365a29d6372153e7c05964736f6c63430007040033",
  "linkReferences": {},
  "deployedLinkReferences": {}
}