{
  "_format": "hh-sol-artifact-1",
  "contractName": "CoinLiquidator",
  "sourceName": "contracts/core/utils/CoinLiquidator.sol",
  "abi": [
    {
      "inputs": [
        {
          "internalType": "contract IGovernor",
          "name": "_governor",
          "type": "address"
        },
        {
          "internalType": "contract IUniswapV2Router02",
          "name": "_router",
          "type": "address"
        }
      ],
      "stateMutability": "nonpayable",
      "type": "constructor"
    },
    {
      "anonymous": false,
      "inputs": [
        {
          "indexed": true,
          "internalType": "address",
          "name": "liquidations",
          "type": "address"
        },
        {
          "indexed": true,
          "internalType": "address",
          "name": "caller",
          "type": "address"
        },
        {
          "indexed": true,
          "internalType": "enum IAccounting.Collateral",
          "name": "collateralType",
          "type": "uint8"
        },
        {
          "indexed": false,
          "internalType": "uint256",
          "name": "minPrice",
          "type": "uint256"
        },
        {
          "indexed": false,
          "internalType": "uint256",
          "name": "collateralSent",
          "type": "uint256"
        },
        {
          "indexed": false,
          "internalType": "uint256",
          "name": "baseTokensToRepay",
          "type": "uint256"
        }
      ],
      "name": "Completed",
      "type": "event"
    },
    {
      "inputs": [
        {
          "internalType": "uint256",
          "name": "collateralSent",
          "type": "uint256"
        },
        {
          "internalType": "uint256",
          "name": "baseTokensToRepay",
          "type": "uint256"
        }
      ],
      "name": "executeOnFlashLiquidate",
      "outputs": [],
      "stateMutability": "nonpayable",
      "type": "function"
    },
    {
      "inputs": [],
      "name": "governor",
      "outputs": [
        {
          "internalType": "contract IGovernor",
          "name": "",
          "type": "address"
        }
      ],
      "stateMutability": "view",
      "type": "function"
    },
    {
      "inputs": [
        {
          "internalType": "enum IAccounting.Collateral",
          "name": "_collateralType",
          "type": "uint8"
        },
        {
          "internalType": "uint256",
          "name": "_minPrice",
          "type": "uint256"
        },
        {
          "internalType": "uint256",
          "name": "_debt",
          "type": "uint256"
        }
      ],
      "name": "liquidate",
      "outputs": [],
      "stateMutability": "nonpayable",
      "type": "function"
    },
    {
      "inputs": [],
      "name": "router",
      "outputs": [
        {
          "internalType": "contract IUniswapV2Router02",
          "name": "",
          "type": "address"
        }
      ],
      "stateMutability": "view",
      "type": "function"
    }
  ],
  "bytecode": "0x60c06040523480156200001157600080fd5b5060405162001da438038062001da48339818101604052810190620000379190620000db565b8173ffffffffffffffffffffffffffffffffffffffff1660808173ffffffffffffffffffffffffffffffffffffffff1660601b815250508073ffffffffffffffffffffffffffffffffffffffff1660a08173ffffffffffffffffffffffffffffffffffffffff1660601b815250505050620001ac565b600081519050620000be8162000178565b92915050565b600081519050620000d58162000192565b92915050565b60008060408385031215620000ef57600080fd5b6000620000ff85828601620000ad565b92505060206200011285828601620000c4565b9150509250929050565b6000620001298262000158565b9050919050565b60006200013d826200011c565b9050919050565b600062000151826200011c565b9050919050565b600073ffffffffffffffffffffffffffffffffffffffff82169050919050565b620001838162000130565b81146200018f57600080fd5b50565b6200019d8162000144565b8114620001a957600080fd5b50565b60805160601c60a05160601c611b9d62000207600039806109cd5280610b435280610fb852508060c9528061016b52806104bb52806105e35280610607528061071452806107e052806108835280610cfc5250611b9d6000f3fe608060405234801561001057600080fd5b506004361061004c5760003560e01c8063093ff0ce146100515780630c340a241461006d578063acd1736b1461008b578063f887ea40146100a7575b600080fd5b61006b60048036038101906100669190611386565b6100c5565b005b6100756105e1565b6040516100829190611712565b60405180910390f35b6100a560048036038101906100a09190611427565b610605565b005b6100af610fb6565b6040516100bc919061172d565b60405180910390f35b60007f000000000000000000000000000000000000000000000000000000000000000073ffffffffffffffffffffffffffffffffffffffff16639624e83e6040518163ffffffff1660e01b815260040160206040518083038186803b15801561012d57600080fd5b505afa158015610141573d6000803e3d6000fd5b505050506040513d601f19601f8201168201806040525081019061016591906112b9565b905060007f000000000000000000000000000000000000000000000000000000000000000073ffffffffffffffffffffffffffffffffffffffff166380f556056040518163ffffffff1660e01b815260040160206040518083038186803b1580156101cf57600080fd5b505afa1580156101e3573d6000803e3d6000fd5b505050506040513d601f19601f82011682018060405250810190610207919061135d565b905060008173ffffffffffffffffffffffffffffffffffffffff1663b6ae213a6040518163ffffffff1660e01b815260040160206040518083038186803b15801561025157600080fd5b505afa158015610265573d6000803e3d6000fd5b505050506040513d601f19601f820116820180604052508101906102899190611463565b905060008273ffffffffffffffffffffffffffffffffffffffff1663060406186040518163ffffffff1660e01b815260040160206040518083038186803b1580156102d357600080fd5b505afa1580156102e7573d6000803e3d6000fd5b505050506040513d601f19601f8201168201806040525081019061030b9190611463565b90508067ffffffffffffffff168267ffffffffffffffff1614610363576040517f08c379a000000000000000000000000000000000000000000000000000000000815260040161035a906117ac565b60405180910390fd5b61036b611079565b8473ffffffffffffffffffffffffffffffffffffffff16636d0f6917896040518263ffffffff1660e01b81526004016103a49190611748565b60606040518083038186803b1580156103bc57600080fd5b505afa1580156103d0573d6000803e3d6000fd5b505050506040513d601f19601f820116820180604052508101906103f491906113d5565b9050600081602001511415801561041057506000816040015114155b61044f576040517f08c379a0000000000000000000000000000000000000000000000000000000008152600401610446906117ec565b60405180910390fd5b876000806101000a81548160ff0219169083600181111561046c57fe5b02179055508660018190555033600260006101000a81548173ffffffffffffffffffffffffffffffffffffffff021916908373ffffffffffffffffffffffffffffffffffffffff1602179055507f000000000000000000000000000000000000000000000000000000000000000073ffffffffffffffffffffffffffffffffffffffff16639a371c846040518163ffffffff1660e01b815260040160206040518083038186803b15801561051f57600080fd5b505afa158015610533573d6000803e3d6000fd5b505050506040513d601f19601f820116820180604052508101906105579190611334565b73ffffffffffffffffffffffffffffffffffffffff16637634a1a3896000891415610586578360200151610588565b885b6040518363ffffffff1660e01b81526004016105a5929190611763565b600060405180830381600087803b1580156105bf57600080fd5b505af11580156105d3573d6000803e3d6000fd5b505050505050505050505050565b7f000000000000000000000000000000000000000000000000000000000000000081565b7f000000000000000000000000000000000000000000000000000000000000000073ffffffffffffffffffffffffffffffffffffffff16639a371c846040518163ffffffff1660e01b815260040160206040518083038186803b15801561066b57600080fd5b505afa15801561067f573d6000803e3d6000fd5b505050506040513d601f19601f820116820180604052508101906106a39190611334565b73ffffffffffffffffffffffffffffffffffffffff163373ffffffffffffffffffffffffffffffffffffffff1614610710576040517f08c379a00000000000000000000000000000000000000000000000000000000081526004016107079061178c565b60405180910390fd5b60007f000000000000000000000000000000000000000000000000000000000000000073ffffffffffffffffffffffffffffffffffffffff166311df99956040518163ffffffff1660e01b815260040160206040518083038186803b15801561077857600080fd5b505afa15801561078c573d6000803e3d6000fd5b505050506040513d601f19601f820116820180604052508101906107b091906112e2565b905060008060018111156107c057fe5b60008054906101000a900460ff1660018111156107d957fe5b14610881577f000000000000000000000000000000000000000000000000000000000000000073ffffffffffffffffffffffffffffffffffffffff1663a28d57d86040518163ffffffff1660e01b815260040160206040518083038186803b15801561084457600080fd5b505afa158015610858573d6000803e3d6000fd5b505050506040513d601f19601f8201168201806040525081019061087c919061130b565b610920565b7f000000000000000000000000000000000000000000000000000000000000000073ffffffffffffffffffffffffffffffffffffffff16633fc8cef36040518163ffffffff1660e01b815260040160206040518083038186803b1580156108e757600080fd5b505afa1580156108fb573d6000803e3d6000fd5b505050506040513d601f19601f8201168201806040525081019061091f919061130b565b5b905060008173ffffffffffffffffffffffffffffffffffffffff166370a08231306040518263ffffffff1660e01b815260040161095d91906116ce565b60206040518083038186803b15801561097557600080fd5b505afa158015610989573d6000803e3d6000fd5b505050506040513d601f19601f820116820180604052508101906109ad91906113fe565b90508173ffffffffffffffffffffffffffffffffffffffff1663095ea7b37f0000000000000000000000000000000000000000000000000000000000000000836040518363ffffffff1660e01b8152600401610a0a9291906116e9565b602060405180830381600087803b158015610a2457600080fd5b505af1158015610a38573d6000803e3d6000fd5b505050506040513d601f19601f82011682018060405250810190610a5c9190611290565b610a6557600080fd5b6060600267ffffffffffffffff81118015610a7f57600080fd5b50604051908082528060200260200182016040528015610aae5781602001602082028036833780820191505090505b5090508281600081518110610abf57fe5b602002602001019073ffffffffffffffffffffffffffffffffffffffff16908173ffffffffffffffffffffffffffffffffffffffff16815250508381600181518110610b0757fe5b602002602001019073ffffffffffffffffffffffffffffffffffffffff16908173ffffffffffffffffffffffffffffffffffffffff16815250507f000000000000000000000000000000000000000000000000000000000000000073ffffffffffffffffffffffffffffffffffffffff166338ed173983610b9360015486610fda90919063ffffffff16565b8430426040518663ffffffff1660e01b8152600401610bb695949392919061180c565b600060405180830381600087803b158015610bd057600080fd5b505af1158015610be4573d6000803e3d6000fd5b505050506040513d6000823e3d601f19601f82011682018060405250810190610c0d919061124f565b5060008473ffffffffffffffffffffffffffffffffffffffff166370a08231306040518263ffffffff1660e01b8152600401610c4991906116ce565b60206040518083038186803b158015610c6157600080fd5b505afa158015610c75573d6000803e3d6000fd5b505050506040513d601f19601f82011682018060405250810190610c9991906113fe565b905085811015610cde576040517f08c379a0000000000000000000000000000000000000000000000000000000008152600401610cd5906117cc565b60405180910390fd5b8473ffffffffffffffffffffffffffffffffffffffff1663095ea7b37f000000000000000000000000000000000000000000000000000000000000000073ffffffffffffffffffffffffffffffffffffffff16639a371c846040518163ffffffff1660e01b815260040160206040518083038186803b158015610d6057600080fd5b505afa158015610d74573d6000803e3d6000fd5b505050506040513d601f19601f82011682018060405250810190610d989190611334565b886040518363ffffffff1660e01b8152600401610db69291906116e9565b602060405180830381600087803b158015610dd057600080fd5b505af1158015610de4573d6000803e3d6000fd5b505050506040513d601f19601f82011682018060405250810190610e089190611290565b610e1157600080fd5b8473ffffffffffffffffffffffffffffffffffffffff1663a9059cbb600260009054906101000a900473ffffffffffffffffffffffffffffffffffffffff168884036040518363ffffffff1660e01b8152600401610e709291906116e9565b602060405180830381600087803b158015610e8a57600080fd5b505af1158015610e9e573d6000803e3d6000fd5b505050506040513d601f19601f82011682018060405250810190610ec29190611290565b610ecb57600080fd5b60008054906101000a900460ff166001811115610ee457fe5b600260009054906101000a900473ffffffffffffffffffffffffffffffffffffffff1673ffffffffffffffffffffffffffffffffffffffff163373ffffffffffffffffffffffffffffffffffffffff167fa99d4262db9c37fa3626f488506a97c7f36345133be447ef745b7362590aa5c96001548b8b604051610f6993929190611866565b60405180910390a4600260006101000a81549073ffffffffffffffffffffffffffffffffffffffff02191690556001600090556000806101000a81549060ff021916905550505050505050565b7f000000000000000000000000000000000000000000000000000000000000000081565b600080831480610fea5750600082145b15610ff85760009050611073565b81830290508183828161100757fe5b041461105e576040517f08c379a0000000000000000000000000000000000000000000000000000000008152600401808060200182810382526022815260200180611b466022913960400191505060405180910390fd5b670de0b6b3a7640000818161106f57fe5b0490505b92915050565b60405180606001604052806000815260200160008152602001600081525090565b600082601f8301126110ab57600080fd5b81516110be6110b9826118ce565b61189d565b915081818352602084019350602081019050838560208402820111156110e357600080fd5b60005b8381101561111357816110f98882611225565b8452602084019350602083019250506001810190506110e6565b5050505092915050565b60008151905061112c81611a7d565b92915050565b60008151905061114181611a94565b92915050565b60008151905061115681611aab565b92915050565b60008151905061116b81611ac2565b92915050565b60008151905061118081611ad9565b92915050565b60008151905061119581611af0565b92915050565b6000813590506111aa81611b07565b92915050565b6000606082840312156111c257600080fd5b6111cc606061189d565b905060006111dc84828501611225565b60008301525060206111f084828501611225565b602083015250604061120484828501611225565b60408301525092915050565b60008135905061121f81611b17565b92915050565b60008151905061123481611b17565b92915050565b60008151905061124981611b2e565b92915050565b60006020828403121561126157600080fd5b600082015167ffffffffffffffff81111561127b57600080fd5b6112878482850161109a565b91505092915050565b6000602082840312156112a257600080fd5b60006112b08482850161111d565b91505092915050565b6000602082840312156112cb57600080fd5b60006112d984828501611132565b91505092915050565b6000602082840312156112f457600080fd5b600061130284828501611147565b91505092915050565b60006020828403121561131d57600080fd5b600061132b8482850161115c565b91505092915050565b60006020828403121561134657600080fd5b600061135484828501611171565b91505092915050565b60006020828403121561136f57600080fd5b600061137d84828501611186565b91505092915050565b60008060006060848603121561139b57600080fd5b60006113a98682870161119b565b93505060206113ba86828701611210565b92505060406113cb86828701611210565b9150509250925092565b6000606082840312156113e757600080fd5b60006113f5848285016111b0565b91505092915050565b60006020828403121561141057600080fd5b600061141e84828501611225565b91505092915050565b6000806040838503121561143a57600080fd5b600061144885828601611210565b925050602061145985828601611210565b9150509250929050565b60006020828403121561147557600080fd5b60006114838482850161123a565b91505092915050565b600061149883836114a4565b60208301905092915050565b6114ad81611944565b82525050565b6114bc81611944565b82525050565b60006114cd8261190a565b6114d78185611922565b93506114e2836118fa565b8060005b838110156115135781516114fa888261148c565b975061150583611915565b9250506001810190506114e6565b5085935050505092915050565b61152981611a0d565b82525050565b61153881611a31565b82525050565b61154781611a55565b82525050565b600061155a602883611933565b91507f436f696e4c697175696461746f723a2063616c6c206c6971756964617465207460008301527f6f20626567696e2e0000000000000000000000000000000000000000000000006020830152604082019050919050565b60006115c0601f83611933565b91507f4d61726b657420696e746572657374206e6f742075702d746f2d646174652e006000830152602082019050919050565b6000611600603483611933565b91507f436f696e4c69717569646174653a204c69717569646174696f6e20646964206e60008301527f6f7420726573756c7420696e2070726f6669742e0000000000000000000000006020830152604082019050919050565b6000611666602a83611933565b91507f436f696e4c69717569646174653a204e6f206c69717569646174696f6e206f7060008301527f706f7274756e6974792e000000000000000000000000000000000000000000006020830152604082019050919050565b6116c8816119ef565b82525050565b60006020820190506116e360008301846114b3565b92915050565b60006040820190506116fe60008301856114b3565b61170b60208301846116bf565b9392505050565b60006020820190506117276000830184611520565b92915050565b6000602082019050611742600083018461152f565b92915050565b600060208201905061175d600083018461153e565b92915050565b6000604082019050611778600083018561153e565b61178560208301846116bf565b9392505050565b600060208201905081810360008301526117a58161154d565b9050919050565b600060208201905081810360008301526117c5816115b3565b9050919050565b600060208201905081810360008301526117e5816115f3565b9050919050565b6000602082019050818103600083015261180581611659565b9050919050565b600060a08201905061182160008301886116bf565b61182e60208301876116bf565b818103604083015261184081866114c2565b905061184f60608301856114b3565b61185c60808301846116bf565b9695505050505050565b600060608201905061187b60008301866116bf565b61188860208301856116bf565b61189560408301846116bf565b949350505050565b6000604051905081810181811067ffffffffffffffff821117156118c4576118c3611a67565b5b8060405250919050565b600067ffffffffffffffff8211156118e9576118e8611a67565b5b602082029050602081019050919050565b6000819050602082019050919050565b600081519050919050565b6000602082019050919050565b600082825260208201905092915050565b600082825260208201905092915050565b600061194f826119cf565b9050919050565b60008115159050919050565b600061196d82611944565b9050919050565b600061197f82611944565b9050919050565b600061199182611944565b9050919050565b60006119a382611944565b9050919050565b60006119b582611944565b9050919050565b60008190506119ca82611a69565b919050565b600073ffffffffffffffffffffffffffffffffffffffff82169050919050565b6000819050919050565b600067ffffffffffffffff82169050919050565b6000611a1882611a1f565b9050919050565b6000611a2a826119cf565b9050919050565b6000611a3c82611a43565b9050919050565b6000611a4e826119cf565b9050919050565b6000611a60826119bc565b9050919050565bfe5b60028110611a7a57611a79611a67565b5b50565b611a8681611956565b8114611a9157600080fd5b50565b611a9d81611962565b8114611aa857600080fd5b50565b611ab481611974565b8114611abf57600080fd5b50565b611acb81611986565b8114611ad657600080fd5b50565b611ae281611998565b8114611aed57600080fd5b50565b611af9816119aa565b8114611b0457600080fd5b50565b60028110611b1457600080fd5b50565b611b20816119ef565b8114611b2b57600080fd5b50565b611b37816119f9565b8114611b4257600080fd5b5056fe536166654d6174683a206d756c7469706c69636174696f6e206f766572666c6f772ea2646970667358221220e6b5f7b9731578fc6df643c89f742c1138cae26f1854c540425564e512127a5864736f6c63430007040033",
  "linkReferences": {},
  "deployedLinkReferences": {}
}