{
  "_format": "hh-sol-artifact-1",
  "contractName": "PegManager",
  "sourceName": "contracts/core/logic/PegManager.sol",
  "abi": [
    {
      "anonymous": false,
      "inputs": [
        {
          "indexed": true,
          "internalType": "address",
          "name": "governor",
          "type": "address"
        }
      ],
      "name": "Initialized",
      "type": "event"
    },
    {
      "anonymous": false,
      "inputs": [
        {
          "indexed": true,
          "internalType": "string",
          "name": "paramName",
          "type": "string"
        },
        {
          "indexed": false,
          "internalType": "uint128",
          "name": "value",
          "type": "uint128"
        }
      ],
      "name": "ParameterUpdated128",
      "type": "event"
    },
    {
      "anonymous": false,
      "inputs": [
        {
          "indexed": true,
          "internalType": "string",
          "name": "paramName",
          "type": "string"
        },
        {
          "indexed": false,
          "internalType": "uint64",
          "name": "value",
          "type": "uint64"
        }
      ],
      "name": "ParameterUpdated64",
      "type": "event"
    },
    {
      "anonymous": false,
      "inputs": [
        {
          "indexed": true,
          "internalType": "string",
          "name": "paramName",
          "type": "string"
        },
        {
          "indexed": false,
          "internalType": "int128",
          "name": "value",
          "type": "int128"
        }
      ],
      "name": "ParameterUpdatedInt128",
      "type": "event"
    },
    {
      "anonymous": false,
      "inputs": [
        {
          "indexed": false,
          "internalType": "int256",
          "name": "interestRate",
          "type": "int256"
        },
        {
          "indexed": false,
          "internalType": "uint256",
          "name": "price",
          "type": "uint256"
        },
        {
          "indexed": false,
          "internalType": "uint256",
          "name": "rewardCount",
          "type": "uint256"
        },
        {
          "indexed": false,
          "internalType": "uint64",
          "name": "nextUpdateTime",
          "type": "uint64"
        }
      ],
      "name": "RateUpdated",
      "type": "event"
    },
    {
      "anonymous": false,
      "inputs": [],
      "name": "Stopped",
      "type": "event"
    },
    {
      "inputs": [],
      "name": "acceptableError",
      "outputs": [
        {
          "internalType": "uint128",
          "name": "",
          "type": "uint128"
        }
      ],
      "stateMutability": "view",
      "type": "function"
    },
    {
      "inputs": [
        {
          "internalType": "uint256",
          "name": "price0",
          "type": "uint256"
        },
        {
          "internalType": "uint256",
          "name": "price1",
          "type": "uint256"
        },
        {
          "internalType": "uint256",
          "name": "price2",
          "type": "uint256"
        }
      ],
      "name": "calculatePrice",
      "outputs": [
        {
          "internalType": "uint256",
          "name": "price",
          "type": "uint256"
        }
      ],
      "stateMutability": "view",
      "type": "function"
    },
    {
      "inputs": [],
      "name": "completeSetup",
      "outputs": [],
      "stateMutability": "nonpayable",
      "type": "function"
    },
    {
      "inputs": [],
      "name": "errorInterval",
      "outputs": [
        {
          "internalType": "uint128",
          "name": "",
          "type": "uint128"
        }
      ],
      "stateMutability": "view",
      "type": "function"
    },
    {
      "inputs": [],
      "name": "getRewardCount",
      "outputs": [
        {
          "internalType": "uint256",
          "name": "newRewardCount",
          "type": "uint256"
        }
      ],
      "stateMutability": "view",
      "type": "function"
    },
    {
      "inputs": [],
      "name": "governor",
      "outputs": [
        {
          "internalType": "contract IGovernor",
          "name": "",
          "type": "address"
        }
      ],
      "stateMutability": "view",
      "type": "function"
    },
    {
      "inputs": [
        {
          "internalType": "contract IGovernor",
          "name": "governor_",
          "type": "address"
        }
      ],
      "name": "init",
      "outputs": [],
      "stateMutability": "nonpayable",
      "type": "function"
    },
    {
      "inputs": [],
      "name": "interestRate",
      "outputs": [
        {
          "internalType": "uint256",
          "name": "",
          "type": "uint256"
        }
      ],
      "stateMutability": "view",
      "type": "function"
    },
    {
      "inputs": [],
      "name": "interestRateStep",
      "outputs": [
        {
          "internalType": "uint128",
          "name": "",
          "type": "uint128"
        }
      ],
      "stateMutability": "view",
      "type": "function"
    },
    {
      "inputs": [],
      "name": "maxPriceAge",
      "outputs": [
        {
          "internalType": "uint64",
          "name": "",
          "type": "uint64"
        }
      ],
      "stateMutability": "view",
      "type": "function"
    },
    {
      "inputs": [],
      "name": "maxSteps",
      "outputs": [
        {
          "internalType": "uint64",
          "name": "",
          "type": "uint64"
        }
      ],
      "stateMutability": "view",
      "type": "function"
    },
    {
      "inputs": [],
      "name": "maxTwapTime",
      "outputs": [
        {
          "internalType": "uint64",
          "name": "",
          "type": "uint64"
        }
      ],
      "stateMutability": "view",
      "type": "function"
    },
    {
      "inputs": [],
      "name": "minRate",
      "outputs": [
        {
          "internalType": "int128",
          "name": "",
          "type": "int128"
        }
      ],
      "stateMutability": "view",
      "type": "function"
    },
    {
      "inputs": [],
      "name": "minTimeBetweenUpdates",
      "outputs": [
        {
          "internalType": "uint64",
          "name": "",
          "type": "uint64"
        }
      ],
      "stateMutability": "view",
      "type": "function"
    },
    {
      "inputs": [
        {
          "internalType": "uint256",
          "name": "",
          "type": "uint256"
        }
      ],
      "name": "pairs",
      "outputs": [
        {
          "internalType": "contract IUniswapV2Pair",
          "name": "",
          "type": "address"
        }
      ],
      "stateMutability": "view",
      "type": "function"
    },
    {
      "inputs": [],
      "name": "positiveInterestRate",
      "outputs": [
        {
          "internalType": "bool",
          "name": "",
          "type": "bool"
        }
      ],
      "stateMutability": "view",
      "type": "function"
    },
    {
      "inputs": [],
      "name": "rd",
      "outputs": [
        {
          "internalType": "int256",
          "name": "rate",
          "type": "int256"
        },
        {
          "internalType": "uint64",
          "name": "stepsOff",
          "type": "uint64"
        },
        {
          "internalType": "uint64",
          "name": "nextUpdateTime",
          "type": "uint64"
        },
        {
          "internalType": "uint128",
          "name": "rewardCount",
          "type": "uint128"
        }
      ],
      "stateMutability": "view",
      "type": "function"
    },
    {
      "inputs": [
        {
          "internalType": "uint128",
          "name": "error",
          "type": "uint128"
        }
      ],
      "name": "setAcceptableError",
      "outputs": [],
      "stateMutability": "nonpayable",
      "type": "function"
    },
    {
      "inputs": [
        {
          "internalType": "uint128",
          "name": "interval",
          "type": "uint128"
        }
      ],
      "name": "setErrorInterval",
      "outputs": [],
      "stateMutability": "nonpayable",
      "type": "function"
    },
    {
      "inputs": [
        {
          "internalType": "uint128",
          "name": "step",
          "type": "uint128"
        }
      ],
      "name": "setInterestRateStep",
      "outputs": [],
      "stateMutability": "nonpayable",
      "type": "function"
    },
    {
      "inputs": [
        {
          "internalType": "uint64",
          "name": "age",
          "type": "uint64"
        }
      ],
      "name": "setMaxPriceAge",
      "outputs": [],
      "stateMutability": "nonpayable",
      "type": "function"
    },
    {
      "inputs": [
        {
          "internalType": "uint64",
          "name": "steps",
          "type": "uint64"
        }
      ],
      "name": "setMaxSteps",
      "outputs": [],
      "stateMutability": "nonpayable",
      "type": "function"
    },
    {
      "inputs": [
        {
          "internalType": "uint64",
          "name": "time",
          "type": "uint64"
        }
      ],
      "name": "setMaxTwapTime",
      "outputs": [],
      "stateMutability": "nonpayable",
      "type": "function"
    },
    {
      "inputs": [
        {
          "internalType": "int128",
          "name": "min",
          "type": "int128"
        }
      ],
      "name": "setMinRate",
      "outputs": [],
      "stateMutability": "nonpayable",
      "type": "function"
    },
    {
      "inputs": [
        {
          "internalType": "uint64",
          "name": "time",
          "type": "uint64"
        }
      ],
      "name": "setMinTimeBetweenUpdates",
      "outputs": [],
      "stateMutability": "nonpayable",
      "type": "function"
    },
    {
      "inputs": [
        {
          "internalType": "uint128",
          "name": "range",
          "type": "uint128"
        }
      ],
      "name": "setValidRange",
      "outputs": [],
      "stateMutability": "nonpayable",
      "type": "function"
    },
    {
      "inputs": [],
      "name": "stepsOff",
      "outputs": [
        {
          "internalType": "uint64",
          "name": "",
          "type": "uint64"
        }
      ],
      "stateMutability": "view",
      "type": "function"
    },
    {
      "inputs": [],
      "name": "stop",
      "outputs": [],
      "stateMutability": "nonpayable",
      "type": "function"
    },
    {
      "inputs": [],
      "name": "update",
      "outputs": [],
      "stateMutability": "nonpayable",
      "type": "function"
    },
    {
      "inputs": [],
      "name": "validRange",
      "outputs": [
        {
          "internalType": "uint128",
          "name": "",
          "type": "uint128"
        }
      ],
      "stateMutability": "view",
      "type": "function"
    }
  ],
  "bytecode": "0x60806040526702c68af0bb140000600760006101000a8154816fffffffffffffffffffffffffffffffff02191690836fffffffffffffffffffffffffffffffff16021790555066071afd498d0000600760106101000a8154816fffffffffffffffffffffffffffffffff02191690836fffffffffffffffffffffffffffffffff160217905550662386f26fc10000600860006101000a8154816fffffffffffffffffffffffffffffffff02191690836fffffffffffffffffffffffffffffffff160217905550662386f26fc10000600860106101000a8154816fffffffffffffffffffffffffffffffff02191690836fffffffffffffffffffffffffffffffff1602179055507ffffffffffffffffffffffffffffffffffffffffffffffffffe9cba87a2760000600960006101000a8154816fffffffffffffffffffffffffffffffff0219169083600f0b6fffffffffffffffffffffffffffffffff1602179055506005600960106101000a81548167ffffffffffffffff021916908367ffffffffffffffff16021790555061a1b8600960186101000a81548167ffffffffffffffff021916908367ffffffffffffffff16021790555062015180600a60006101000a81548167ffffffffffffffff021916908367ffffffffffffffff160217905550612a30600a60086101000a81548167ffffffffffffffff021916908367ffffffffffffffff16021790555034801561021957600080fd5b5033600560006101000a81548173ffffffffffffffffffffffffffffffffffffffff021916908373ffffffffffffffffffffffffffffffffffffffff1602179055506001600681905550613f37806102726000396000f3fe608060405234801561001057600080fd5b50600436106101da5760003560e01c80636d7fa66411610104578063a7df1ff9116100a2578063d076c38911610071578063d076c389146106ab578063d3ab3888146106d3578063e015c62a1461070b578063ee47304d14610761576101da565b8063a7df1ff9146105bb578063b7bbba85146105eb578063b91ac78814610623578063b9805af51461067b576101da565b80637e7e8eec116100de5780637e7e8eec1461054957806380ddbdb4146105675780638aea8f71146105a7578063a2e62045146105b1576101da565b80636d7fa664146104cb5780636e16ead2146104eb5780637c3a00fd1461052b576101da565b80631dddad421161017c5780633cbb0d221161014b5780633cbb0d22146103fb578063538cebd41461042b5780635d8350b4146104535780635fd019ad1461048b576101da565b80631dddad421461030257806329b426aa146103425780633840ffe31461036a5780633ca36f88146103a2576101da565b80630cb60443116101b85780630cb604431461024d5780631584410a1461026e57806319a6e9e61461029657806319ab453c146102be576101da565b806307da68f5146101df5780630bce570a146101e95780630c340a2414610219575b600080fd5b6101e7610792565b005b6101f161085d565b60405180826fffffffffffffffffffffffffffffffff16815260200191505060405180910390f35b61022161087f565b604051808273ffffffffffffffffffffffffffffffffffffffff16815260200191505060405180910390f35b6102556108a3565b6040518082600f0b815260200191505060405180910390f35b6102766108b6565b604051808267ffffffffffffffff16815260200191505060405180910390f35b61029e6108d0565b604051808267ffffffffffffffff16815260200191505060405180910390f35b610300600480360360208110156102d457600080fd5b81019080803573ffffffffffffffffffffffffffffffffffffffff1690602001909291905050506108ea565b005b6103406004803603602081101561031857600080fd5b8101908080356fffffffffffffffffffffffffffffffff169060200190929190505050610de4565b005b61034a61100d565b604051808267ffffffffffffffff16815260200191505060405180910390f35b6103a06004803603602081101561038057600080fd5b81019080803567ffffffffffffffff169060200190929190505050611027565b005b6103aa61134d565b604051808581526020018467ffffffffffffffff1681526020018367ffffffffffffffff168152602001826fffffffffffffffffffffffffffffffff16815260200194505050505060405180910390f35b6104036113af565b60405180826fffffffffffffffffffffffffffffffff16815260200191505060405180910390f35b6104336113d1565b604051808267ffffffffffffffff16815260200191505060405180910390f35b6104896004803603602081101561046957600080fd5b81019080803567ffffffffffffffff1690602001909291905050506113f2565b005b6104c9600480360360208110156104a157600080fd5b8101908080356fffffffffffffffffffffffffffffffff1690602001909291905050506115ec565b005b6104d3611815565b60405180821515815260200191505060405180910390f35b6105296004803603602081101561050157600080fd5b8101908080356fffffffffffffffffffffffffffffffff169060200190929190505050611824565b005b610533611a4d565b6040518082815260200191505060405180910390f35b610551611a71565b6040518082815260200191505060405180910390f35b6105a56004803603602081101561057d57600080fd5b8101908080356fffffffffffffffffffffffffffffffff169060200190929190505050611b5c565b005b6105af611d85565b005b6105b9611fce565b005b6105c3612d40565b60405180826fffffffffffffffffffffffffffffffff16815260200191505060405180910390f35b6106216004803603602081101561060157600080fd5b81019080803567ffffffffffffffff169060200190929190505050612d62565b005b61064f6004803603602081101561063957600080fd5b8101908080359060200190929190505050612ec6565b604051808273ffffffffffffffffffffffffffffffffffffffff16815260200191505060405180910390f35b610683612f05565b60405180826fffffffffffffffffffffffffffffffff16815260200191505060405180910390f35b6106b3612f27565b604051808267ffffffffffffffff16815260200191505060405180910390f35b610709600480360360208110156106e957600080fd5b81019080803567ffffffffffffffff169060200190929190505050612f41565b005b61074b6004803603606081101561072157600080fd5b810190808035906020019092919080359060200190929190803590602001909291905050506130a5565b6040518082815260200191505060405180910390f35b6107906004803603602081101561077757600080fd5b810190808035600f0b90602001909291905050506130ec565b005b60008054906101000a900473ffffffffffffffffffffffffffffffffffffffff1673ffffffffffffffffffffffffffffffffffffffff163373ffffffffffffffffffffffffffffffffffffffff1614610853576040517f08c379a00000000000000000000000000000000000000000000000000000000081526004018080602001828103825260198152602001807f476f7665726e65643a204e6f7420417574686f72697a65642e0000000000000081525060200191505060405180910390fd5b61085b61325c565b565b600760109054906101000a90046fffffffffffffffffffffffffffffffff1681565b60008054906101000a900473ffffffffffffffffffffffffffffffffffffffff1681565b600960009054906101000a9004600f0b81565b600a60089054906101000a900467ffffffffffffffff1681565b600960189054906101000a900467ffffffffffffffff1681565b600560009054906101000a900473ffffffffffffffffffffffffffffffffffffffff1673ffffffffffffffffffffffffffffffffffffffff163373ffffffffffffffffffffffffffffffffffffffff16146109ad576040517f08c379a000000000000000000000000000000000000000000000000000000000815260040180806020018281038252601e8152602001807f476f7665726e65643a20496e6974206e6f7420617574686f72697a65642e000081525060200191505060405180910390fd5b600560006101000a81549073ffffffffffffffffffffffffffffffffffffffff02191690558073ffffffffffffffffffffffffffffffffffffffff167f908408e307fc569b417f6cbec5d5a06f44a0a505ac0479b47d421a4b2fd6a1e660405160405180910390a2806000806101000a81548173ffffffffffffffffffffffffffffffffffffffff021916908373ffffffffffffffffffffffffffffffffffffffff16021790555060008054906101000a900473ffffffffffffffffffffffffffffffffffffffff1673ffffffffffffffffffffffffffffffffffffffff16639624e83e6040518163ffffffff1660e01b815260040160206040518083038186803b158015610abb57600080fd5b505afa158015610acf573d6000803e3d6000fd5b505050506040513d6020811015610ae557600080fd5b8101908080519060200190929190505050600160006101000a81548173ffffffffffffffffffffffffffffffffffffffff021916908373ffffffffffffffffffffffffffffffffffffffff16021790555060008054906101000a900473ffffffffffffffffffffffffffffffffffffffff1673ffffffffffffffffffffffffffffffffffffffff166311df99956040518163ffffffff1660e01b815260040160206040518083038186803b158015610b9c57600080fd5b505afa158015610bb0573d6000803e3d6000fd5b505050506040513d6020811015610bc657600080fd5b8101908080519060200190929190505050600260006101000a81548173ffffffffffffffffffffffffffffffffffffffff021916908373ffffffffffffffffffffffffffffffffffffffff16021790555060008054906101000a900473ffffffffffffffffffffffffffffffffffffffff1673ffffffffffffffffffffffffffffffffffffffff1663d478b0876040518163ffffffff1660e01b815260040160206040518083038186803b158015610c7d57600080fd5b505afa158015610c91573d6000803e3d6000fd5b505050506040513d6020811015610ca757600080fd5b8101908080519060200190929190505050600360006101000a81548173ffffffffffffffffffffffffffffffffffffffff021916908373ffffffffffffffffffffffffffffffffffffffff16021790555060008054906101000a900473ffffffffffffffffffffffffffffffffffffffff1673ffffffffffffffffffffffffffffffffffffffff16633fc8cef36040518163ffffffff1660e01b815260040160206040518083038186803b158015610d5e57600080fd5b505afa158015610d72573d6000803e3d6000fd5b505050506040513d6020811015610d8857600080fd5b8101908080519060200190929190505050600460006101000a81548173ffffffffffffffffffffffffffffffffffffffff021916908373ffffffffffffffffffffffffffffffffffffffff160217905550610de16132a5565b50565b60008054906101000a900473ffffffffffffffffffffffffffffffffffffffff1673ffffffffffffffffffffffffffffffffffffffff163373ffffffffffffffffffffffffffffffffffffffff1614610ea5576040517f08c379a00000000000000000000000000000000000000000000000000000000081526004018080602001828103825260198152602001807f476f7665726e65643a204e6f7420417574686f72697a65642e0000000000000081525060200191505060405180910390fd5b80600760006101000a8154816fffffffffffffffffffffffffffffffff02191690836fffffffffffffffffffffffffffffffff160217905550670de0b6b3a7640000600760009054906101000a90046fffffffffffffffffffffffffffffffff166fffffffffffffffffffffffffffffffff1610610f8b576040517f08c379a000000000000000000000000000000000000000000000000000000000815260040180806020018281038252600d8152602001807f496e76616c69642076616c75650000000000000000000000000000000000000081525060200191505060405180910390fd5b60405180807f76616c696452616e676500000000000000000000000000000000000000000000815250600a01905060405180910390207ff92f7fc8addd796154d83393012a119e212b31cb3dc9776133129db4c5747fcc8260405180826fffffffffffffffffffffffffffffffff16815260200191505060405180910390a250565b600a60009054906101000a900467ffffffffffffffff1681565b60008054906101000a900473ffffffffffffffffffffffffffffffffffffffff1673ffffffffffffffffffffffffffffffffffffffff163373ffffffffffffffffffffffffffffffffffffffff16146110e8576040517f08c379a00000000000000000000000000000000000000000000000000000000081526004018080602001828103825260198152602001807f476f7665726e65643a204e6f7420417574686f72697a65642e0000000000000081525060200191505060405180910390fd5b80600a60006101000a81548167ffffffffffffffff021916908367ffffffffffffffff160217905550600260008054906101000a900473ffffffffffffffffffffffffffffffffffffffff1673ffffffffffffffffffffffffffffffffffffffff1663d3419bf36040518163ffffffff1660e01b815260040160206040518083038186803b15801561117957600080fd5b505afa15801561118d573d6000803e3d6000fd5b505050506040513d60208110156111a357600080fd5b810190808051906020019092919050505073ffffffffffffffffffffffffffffffffffffffff1663c31ff2db6040518163ffffffff1660e01b815260040160206040518083038186803b1580156111f957600080fd5b505afa15801561120d573d6000803e3d6000fd5b505050506040513d602081101561122357600080fd5b81019080805190602001909291905050500267ffffffffffffffff16600a60009054906101000a900467ffffffffffffffff1667ffffffffffffffff16116112d3576040517f08c379a000000000000000000000000000000000000000000000000000000000815260040180806020018281038252600d8152602001807f496e76616c69642076616c75650000000000000000000000000000000000000081525060200191505060405180910390fd5b60405180807f6d61785477617054696d65000000000000000000000000000000000000000000815250600b01905060405180910390207f6293347933ad2997134e224ac8cd2e39908a4a22aeed9af52127b4bbf765297882604051808267ffffffffffffffff16815260200191505060405180910390a250565b600b8060000154908060010160009054906101000a900467ffffffffffffffff16908060010160089054906101000a900467ffffffffffffffff16908060010160109054906101000a90046fffffffffffffffffffffffffffffffff16905084565b600860009054906101000a90046fffffffffffffffffffffffffffffffff1681565b6000600b60010160009054906101000a900467ffffffffffffffff16905090565b60008054906101000a900473ffffffffffffffffffffffffffffffffffffffff1673ffffffffffffffffffffffffffffffffffffffff163373ffffffffffffffffffffffffffffffffffffffff16146114b3576040517f08c379a00000000000000000000000000000000000000000000000000000000081526004018080602001828103825260198152602001807f476f7665726e65643a204e6f7420417574686f72697a65642e0000000000000081525060200191505060405180910390fd5b80600960186101000a81548167ffffffffffffffff021916908367ffffffffffffffff1602179055506000600960189054906101000a900467ffffffffffffffff1667ffffffffffffffff1611611572576040517f08c379a000000000000000000000000000000000000000000000000000000000815260040180806020018281038252600d8152602001807f496e76616c69642076616c75650000000000000000000000000000000000000081525060200191505060405180910390fd5b60405180807f6d696e54696d654265747765656e557064617465730000000000000000000000815250601501905060405180910390207f6293347933ad2997134e224ac8cd2e39908a4a22aeed9af52127b4bbf765297882604051808267ffffffffffffffff16815260200191505060405180910390a250565b60008054906101000a900473ffffffffffffffffffffffffffffffffffffffff1673ffffffffffffffffffffffffffffffffffffffff163373ffffffffffffffffffffffffffffffffffffffff16146116ad576040517f08c379a00000000000000000000000000000000000000000000000000000000081526004018080602001828103825260198152602001807f476f7665726e65643a204e6f7420417574686f72697a65642e0000000000000081525060200191505060405180910390fd5b80600860006101000a8154816fffffffffffffffffffffffffffffffff02191690836fffffffffffffffffffffffffffffffff160217905550670de0b6b3a7640000600860009054906101000a90046fffffffffffffffffffffffffffffffff166fffffffffffffffffffffffffffffffff1610611793576040517f08c379a000000000000000000000000000000000000000000000000000000000815260040180806020018281038252600d8152602001807f496e76616c69642076616c75650000000000000000000000000000000000000081525060200191505060405180910390fd5b60405180807f6572726f72496e74657276616c00000000000000000000000000000000000000815250600d01905060405180910390207ff92f7fc8addd796154d83393012a119e212b31cb3dc9776133129db4c5747fcc8260405180826fffffffffffffffffffffffffffffffff16815260200191505060405180910390a250565b600080600b6000015413905090565b60008054906101000a900473ffffffffffffffffffffffffffffffffffffffff1673ffffffffffffffffffffffffffffffffffffffff163373ffffffffffffffffffffffffffffffffffffffff16146118e5576040517f08c379a00000000000000000000000000000000000000000000000000000000081526004018080602001828103825260198152602001807f476f7665726e65643a204e6f7420417574686f72697a65642e0000000000000081525060200191505060405180910390fd5b80600860106101000a8154816fffffffffffffffffffffffffffffffff02191690836fffffffffffffffffffffffffffffffff160217905550670de0b6b3a7640000600860109054906101000a90046fffffffffffffffffffffffffffffffff166fffffffffffffffffffffffffffffffff16106119cb576040517f08c379a000000000000000000000000000000000000000000000000000000000815260040180806020018281038252600d8152602001807f496e76616c69642076616c75650000000000000000000000000000000000000081525060200191505060405180910390fd5b60405180807f696e746572657374526174655374657000000000000000000000000000000000815250601001905060405180910390207ff92f7fc8addd796154d83393012a119e212b31cb3dc9776133129db4c5747fcc8260405180826fffffffffffffffffffffffffffffffff16815260200191505060405180910390a250565b600080600b60000154905060008112611a665780611a6b565b806000035b91505090565b600080611a7c6133b2565b90506000600b60010160089054906101000a900467ffffffffffffffff1690506000600b60010160109054906101000a90046fffffffffffffffffffffffffffffffff166fffffffffffffffffffffffffffffffff169050600060028281611ae057fe5b0490508267ffffffffffffffff168467ffffffffffffffff1610611b2857611b2183850367ffffffffffffffff16610708836133c29092919063ffffffff16565b8101611b2b565b60005b9450611b53611b446005846134d190919063ffffffff16565b8661355790919063ffffffff16565b94505050505090565b60008054906101000a900473ffffffffffffffffffffffffffffffffffffffff1673ffffffffffffffffffffffffffffffffffffffff163373ffffffffffffffffffffffffffffffffffffffff1614611c1d576040517f08c379a00000000000000000000000000000000000000000000000000000000081526004018080602001828103825260198152602001807f476f7665726e65643a204e6f7420417574686f72697a65642e0000000000000081525060200191505060405180910390fd5b80600760106101000a8154816fffffffffffffffffffffffffffffffff02191690836fffffffffffffffffffffffffffffffff160217905550670de0b6b3a7640000600760109054906101000a90046fffffffffffffffffffffffffffffffff166fffffffffffffffffffffffffffffffff1610611d03576040517f08c379a000000000000000000000000000000000000000000000000000000000815260040180806020018281038252600d8152602001807f496e76616c69642076616c75650000000000000000000000000000000000000081525060200191505060405180910390fd5b60405180807f61636365707461626c654572726f720000000000000000000000000000000000815250600f01905060405180910390207ff92f7fc8addd796154d83393012a119e212b31cb3dc9776133129db4c5747fcc8260405180826fffffffffffffffffffffffffffffffff16815260200191505060405180910390a250565b60008054906101000a900473ffffffffffffffffffffffffffffffffffffffff1673ffffffffffffffffffffffffffffffffffffffff163373ffffffffffffffffffffffffffffffffffffffff1614611e46576040517f08c379a00000000000000000000000000000000000000000000000000000000081526004018080602001828103825260198152602001807f476f7665726e65643a204e6f7420417574686f72697a65642e0000000000000081525060200191505060405180910390fd5b600e60009054906101000a900460ff1615611e6057600080fd5b6001600e60006101000a81548160ff02191690831515021790555060008054906101000a900473ffffffffffffffffffffffffffffffffffffffff1673ffffffffffffffffffffffffffffffffffffffff16635a50aaf26040518163ffffffff1660e01b815260040160006040518083038186803b158015611ee157600080fd5b505afa158015611ef5573d6000803e3d6000fd5b505050506040513d6000823e3d601f19601f820116820180604052506020811015611f1f57600080fd5b8101908080516040519392919084640100000000821115611f3f57600080fd5b83820191506020820185811115611f5557600080fd5b8251866020820283011164010000000082111715611f7257600080fd5b8083526020830192505050908051906020019060200280838360005b83811015611fa9578082015181840152602081019050611f8e565b50505050905001604052505050600d9080519060200190611fcb929190613cc3565b50565b600360009054906101000a900473ffffffffffffffffffffffffffffffffffffffff1673ffffffffffffffffffffffffffffffffffffffff1663e97dcb626040518163ffffffff1660e01b8152600401600060405180830381600087803b15801561203857600080fd5b505af115801561204c573d6000803e3d6000fd5b50505050600260065414156120c9576040517f08c379a000000000000000000000000000000000000000000000000000000000815260040180806020018281038252601d8152602001807f4c6f636b50726f746f636f6c3a207265656e7472616e742063616c6c2e00000081525060200191505060405180910390fd5b6002600681905550600460149054906101000a900460ff1615612154576040517f08c379a000000000000000000000000000000000000000000000000000000000815260040180806020018281038252601e8152602001807f476f7665726e65643a20436f6e74726163742069732073746f707065642e000081525060200191505060405180910390fd5b60008054906101000a900473ffffffffffffffffffffffffffffffffffffffff1673ffffffffffffffffffffffffffffffffffffffff1663bf86d6906040518163ffffffff1660e01b815260040160206040518083038186803b1580156121ba57600080fd5b505afa1580156121ce573d6000803e3d6000fd5b505050506040513d60208110156121e457600080fd5b81019080805190602001909291905050501561224b576040517f08c379a0000000000000000000000000000000000000000000000000000000008152600401808060200182810382526028815260200180613e236028913960400191505060405180910390fd5b6122536133b2565b67ffffffffffffffff16600b60010160089054906101000a900467ffffffffffffffff1667ffffffffffffffff1611156122d8576040517f08c379a0000000000000000000000000000000000000000000000000000000008152600401808060200182810382526024815260200180613e4b6024913960400191505060405180910390fd5b60008060009054906101000a900473ffffffffffffffffffffffffffffffffffffffff1673ffffffffffffffffffffffffffffffffffffffff1663d3419bf36040518163ffffffff1660e01b815260040160206040518083038186803b15801561234157600080fd5b505afa158015612355573d6000803e3d6000fd5b505050506040513d602081101561236b57600080fd5b8101908080519060200190929190505050905060008173ffffffffffffffffffffffffffffffffffffffff1663fb5bb243600d6000815481106123aa57fe5b9060005260206000200160009054906101000a900473ffffffffffffffffffffffffffffffffffffffff16600a60009054906101000a900467ffffffffffffffff16600a60089054906101000a900467ffffffffffffffff1660016040518563ffffffff1660e01b8152600401808573ffffffffffffffffffffffffffffffffffffffff1681526020018467ffffffffffffffff1681526020018367ffffffffffffffff16815260200182151581526020019450505050506040805180830381600087803b15801561247b57600080fd5b505af115801561248f573d6000803e3d6000fd5b505050506040513d60408110156124a557600080fd5b81019080805190602001909291908051906020019092919050505050905060008273ffffffffffffffffffffffffffffffffffffffff1663fb5bb243600d6001815481106124ef57fe5b9060005260206000200160009054906101000a900473ffffffffffffffffffffffffffffffffffffffff16600a60009054906101000a900467ffffffffffffffff16600a60089054906101000a900467ffffffffffffffff1660016040518563ffffffff1660e01b8152600401808573ffffffffffffffffffffffffffffffffffffffff1681526020018467ffffffffffffffff1681526020018367ffffffffffffffff16815260200182151581526020019450505050506040805180830381600087803b1580156125c057600080fd5b505af11580156125d4573d6000803e3d6000fd5b505050506040513d60408110156125ea57600080fd5b81019080805190602001909291908051906020019092919050505050905060008373ffffffffffffffffffffffffffffffffffffffff1663fb5bb243600d60028154811061263457fe5b9060005260206000200160009054906101000a900473ffffffffffffffffffffffffffffffffffffffff16600a60009054906101000a900467ffffffffffffffff16600a60089054906101000a900467ffffffffffffffff1660016040518563ffffffff1660e01b8152600401808573ffffffffffffffffffffffffffffffffffffffff1681526020018467ffffffffffffffff1681526020018367ffffffffffffffff16815260200182151581526020019450505050506040805180830381600087803b15801561270557600080fd5b505af1158015612719573d6000803e3d6000fd5b505050506040513d604081101561272f57600080fd5b810190808051906020019092919080519060200190929190505050509050600061275a8484846130a5565b9050600081141561276f575050505050612cb4565b6000670de0b6b3a7640000851190506000816127955782670de0b6b3a7640000036127a1565b670de0b6b3a764000083035b90506127ab613d4d565b600b604051806080016040529081600082015481526020016001820160009054906101000a900467ffffffffffffffff1667ffffffffffffffff1667ffffffffffffffff1681526020016001820160089054906101000a900467ffffffffffffffff1667ffffffffffffffff1667ffffffffffffffff1681526020016001820160109054906101000a90046fffffffffffffffffffffffffffffffff166fffffffffffffffffffffffffffffffff166fffffffffffffffffffffffffffffffff16815250509050600760109054906101000a90046fffffffffffffffffffffffffffffffff166fffffffffffffffffffffffffffffffff168210156128d0576000816020019067ffffffffffffffff16908167ffffffffffffffff1681525050612a07565b6129476129426001600860009054906101000a90046fffffffffffffffffffffffffffffffff166fffffffffffffffffffffffffffffffff16858161291157fe5b0401600960109054906101000a900467ffffffffffffffff1667ffffffffffffffff1661355790919063ffffffff16565b613570565b816020019067ffffffffffffffff16908167ffffffffffffffff168152505060006129c16129bc836020015167ffffffffffffffff16600860109054906101000a90046fffffffffffffffffffffffffffffffff166fffffffffffffffffffffffffffffffff166134d190919063ffffffff16565b6135db565b9050836129e4576129df81836000015161365d90919063ffffffff16565b6129fc565b6129fb8183600001516136eb90919063ffffffff16565b5b826000018181525050505b600960009054906101000a9004600f0b600f0b816000015112612a2e578060000151612a42565b600960009054906101000a9004600f0b600f0b5b816000018181525050612a5b612a56611a71565b613779565b81606001906fffffffffffffffffffffffffffffffff1690816fffffffffffffffffffffffffffffffff1681525050612aa9600960189054906101000a900467ffffffffffffffff166137ec565b816040019067ffffffffffffffff16908167ffffffffffffffff168152505080600b6000820151816000015560208201518160010160006101000a81548167ffffffffffffffff021916908367ffffffffffffffff16021790555060408201518160010160086101000a81548167ffffffffffffffff021916908367ffffffffffffffff16021790555060608201518160010160106101000a8154816fffffffffffffffffffffffffffffffff02191690836fffffffffffffffffffffffffffffffff16021790555090505060008054906101000a900473ffffffffffffffffffffffffffffffffffffffff1673ffffffffffffffffffffffffffffffffffffffff1663a99acb173383606001516040518363ffffffff1660e01b8152600401808373ffffffffffffffffffffffffffffffffffffffff168152602001826fffffffffffffffffffffffffffffffff16815260200192505050600060405180830381600087803b158015612c1c57600080fd5b505af1158015612c30573d6000803e3d6000fd5b505050507f9f912bcb7b057a4f10fbbee5785670aecb2ab545144237646e17398d55de72dc8160000151858360600151846040015160405180858152602001848152602001836fffffffffffffffffffffffffffffffff1681526020018267ffffffffffffffff16815260200194505050505060405180910390a150505050505050505b6001600681905550600360009054906101000a900473ffffffffffffffffffffffffffffffffffffffff1673ffffffffffffffffffffffffffffffffffffffff1663e9fad8ee6040518163ffffffff1660e01b8152600401600060405180830381600087803b158015612d2657600080fd5b505af1158015612d3a573d6000803e3d6000fd5b50505050565b600760009054906101000a90046fffffffffffffffffffffffffffffffff1681565b60008054906101000a900473ffffffffffffffffffffffffffffffffffffffff1673ffffffffffffffffffffffffffffffffffffffff163373ffffffffffffffffffffffffffffffffffffffff1614612e23576040517f08c379a00000000000000000000000000000000000000000000000000000000081526004018080602001828103825260198152602001807f476f7665726e65643a204e6f7420417574686f72697a65642e0000000000000081525060200191505060405180910390fd5b80600a60086101000a81548167ffffffffffffffff021916908367ffffffffffffffff16021790555060405180807f6d61785072696365416765000000000000000000000000000000000000000000815250600b01905060405180910390207f6293347933ad2997134e224ac8cd2e39908a4a22aeed9af52127b4bbf765297882604051808267ffffffffffffffff16815260200191505060405180910390a250565b600d8181548110612ed657600080fd5b906000526020600020016000915054906101000a900473ffffffffffffffffffffffffffffffffffffffff1681565b600860109054906101000a90046fffffffffffffffffffffffffffffffff1681565b600960109054906101000a900467ffffffffffffffff1681565b60008054906101000a900473ffffffffffffffffffffffffffffffffffffffff1673ffffffffffffffffffffffffffffffffffffffff163373ffffffffffffffffffffffffffffffffffffffff1614613002576040517f08c379a00000000000000000000000000000000000000000000000000000000081526004018080602001828103825260198152602001807f476f7665726e65643a204e6f7420417574686f72697a65642e0000000000000081525060200191505060405180910390fd5b80600960106101000a81548167ffffffffffffffff021916908367ffffffffffffffff16021790555060405180807f6d61785374657073000000000000000000000000000000000000000000000000815250600801905060405180910390207f6293347933ad2997134e224ac8cd2e39908a4a22aeed9af52127b4bbf765297882604051808267ffffffffffffffff16815260200191505060405180910390a250565b60006130e3848484600760009054906101000a90046fffffffffffffffffffffffffffffffff166fffffffffffffffffffffffffffffffff16613819565b90509392505050565b60008054906101000a900473ffffffffffffffffffffffffffffffffffffffff1673ffffffffffffffffffffffffffffffffffffffff163373ffffffffffffffffffffffffffffffffffffffff16146131ad576040517f08c379a00000000000000000000000000000000000000000000000000000000081526004018080602001828103825260198152602001807f476f7665726e65643a204e6f7420417574686f72697a65642e0000000000000081525060200191505060405180910390fd5b80600960006101000a8154816fffffffffffffffffffffffffffffffff0219169083600f0b6fffffffffffffffffffffffffffffffff16021790555060405180807f6d696e5261746500000000000000000000000000000000000000000000000000815250600701905060405180910390207f73372e841856ef3f75f5070dea5fbba697b24bf1b513158c125d0c7bbcc62fd2826040518082600f0b815260200191505060405180910390a250565b6001600460146101000a81548160ff0219169083151502179055507f7acc84e34091ae817647a4c49116f5cc07f319078ba80f8f5fde37ea7e25cbd660405160405180910390a1565b6040518060800160405280666a94d74f4300008152602001600067ffffffffffffffff1681526020016132d66133b2565b67ffffffffffffffff168152602001686c6b935b8bbd4000006fffffffffffffffffffffffffffffffff16815250600b6000820151816000015560208201518160010160006101000a81548167ffffffffffffffff021916908367ffffffffffffffff16021790555060408201518160010160086101000a81548167ffffffffffffffff021916908367ffffffffffffffff16021790555060608201518160010160106101000a8154816fffffffffffffffffffffffffffffffff02191690836fffffffffffffffffffffffffffffffff160217905550905050565b60006133bd42613570565b905090565b6000808414806133d25750600083145b156133e057600090506134ca565b6000821415613457576040517f08c379a000000000000000000000000000000000000000000000000000000000815260040180806020018281038252601b8152602001807f536166654d6174683a206469766973696f6e206279207a65726f2e000000000081525060200191505060405180910390fd5b82840290508284828161346657fe5b04146134bd576040517f08c379a0000000000000000000000000000000000000000000000000000000008152600401808060200182810382526022815260200180613db96022913960400191505060405180910390fd5b8181816134c657fe5b0490505b9392505050565b6000808314156134e45760009050613551565b60008284029050828482816134f557fe5b041461354c576040517f08c379a0000000000000000000000000000000000000000000000000000000008152600401808060200182810382526021815260200180613e6f6021913960400191505060405180910390fd5b809150505b92915050565b60008183106135665781613568565b825b905092915050565b60006801000000000000000082106135d3576040517f08c379a0000000000000000000000000000000000000000000000000000000008152600401808060200182810382526026815260200180613e906026913960400191505060405180910390fd5b819050919050565b60007f80000000000000000000000000000000000000000000000000000000000000008210613655576040517f08c379a0000000000000000000000000000000000000000000000000000000008152600401808060200182810382526028815260200180613eb66028913960400191505060405180910390fd5b819050919050565b6000808284039050600083121580156136765750838113155b8061368c575060008312801561368b57508381135b5b6136e1576040517f08c379a0000000000000000000000000000000000000000000000000000000008152600401808060200182810382526024815260200180613ede6024913960400191505060405180910390fd5b8091505092915050565b6000808284019050600083121580156137045750838112155b8061371a575060008312801561371957508381125b5b61376f576040517f08c379a0000000000000000000000000000000000000000000000000000000008152600401808060200182810382526021815260200180613e026021913960400191505060405180910390fd5b8091505092915050565b600070010000000000000000000000000000000082106137e4576040517f08c379a0000000000000000000000000000000000000000000000000000000008152600401808060200182810382526027815260200180613ddb6027913960400191505060405180910390fd5b819050919050565b6000613812826137fa6133b2565b67ffffffffffffffff16613a5390919063ffffffff16565b9050919050565b60008061383783670de0b6b3a7640000613aef90919063ffffffff16565b9050600061385684670de0b6b3a7640000613b3990919063ffffffff16565b90506000806000808a8610801561386c5750848b105b1561387e576001935080806001019150505b898610801561388c5750848a105b1561389e576001925080806001019150505b88861080156138ac57508489105b156138be576001915080806001019150505b60038114806138cd5750600081145b1561391957898b11156138e557898b809b50819c5050505b888a11156138f857888a809a50819b5050505b898b111561390b57898b809b50819c5050505b899650505050505050613a4b565b600281141561399657836139475761393a898b613bc190919063ffffffff16565b9650505050505050613a4b565b8261396c5761395f898c613bc190919063ffffffff16565b9650505050505050613a4b565b81613991576139848a8c613bc190919063ffffffff16565b9650505050505050613a4b565b6139dd565b60018114156139dc5783156139b3578a9650505050505050613a4b565b82156139c757899650505050505050613a4b565b81156139db57889650505050505050613a4b565b5b5b6040517f08c379a000000000000000000000000000000000000000000000000000000000815260040180806020018281038252600f8152602001807f4e6f2076616c69642070726963652e000000000000000000000000000000000081525060200191505060405180910390fd5b949350505050565b60008082840190508367ffffffffffffffff168167ffffffffffffffff161015613ae5576040517f08c379a000000000000000000000000000000000000000000000000000000000815260040180806020018281038252601b8152602001807f536166654d6174683a206164646974696f6e206f766572666c6f77000000000081525060200191505060405180910390fd5b8091505092915050565b6000613b3183836040518060400160405280601e81526020017f536166654d6174683a207375627472616374696f6e206f766572666c6f770000815250613c03565b905092915050565b600080828401905083811015613bb7576040517f08c379a000000000000000000000000000000000000000000000000000000000815260040180806020018281038252601b8152602001807f536166654d6174683a206164646974696f6e206f766572666c6f77000000000081525060200191505060405180910390fd5b8091505092915050565b60006002808381613bce57fe5b0660028581613bd957fe5b060181613be257fe5b0460028381613bed57fe5b0460028581613bf857fe5b040101905092915050565b6000838311158290613cb0576040517f08c379a00000000000000000000000000000000000000000000000000000000081526004018080602001828103825283818151815260200191508051906020019080838360005b83811015613c75578082015181840152602081019050613c5a565b50505050905090810190601f168015613ca25780820380516001836020036101000a031916815260200191505b509250505060405180910390fd5b5060008385039050809150509392505050565b828054828255906000526020600020908101928215613d3c579160200282015b82811115613d3b5782518260006101000a81548173ffffffffffffffffffffffffffffffffffffffff021916908373ffffffffffffffffffffffffffffffffffffffff16021790555091602001919060010190613ce3565b5b509050613d499190613d9b565b5090565b604051806080016040528060008152602001600067ffffffffffffffff168152602001600067ffffffffffffffff16815260200160006fffffffffffffffffffffffffffffffff1681525090565b5b80821115613db4576000816000905550600101613d9c565b509056fe536166654d6174683a206d756c7469706c69636174696f6e206f766572666c6f772e53616665436173743a2076616c756520646f65736e27742066697420696e2031323820626974735369676e6564536166654d6174683a206164646974696f6e206f766572666c6f77476f7665726e65643a204e6f7420617661696c61626c6520647572696e672073687574646f776e2e5065674d616e616765722f7570646174653a20557064617465206e6f742072656164792e536166654d6174683a206d756c7469706c69636174696f6e206f766572666c6f7753616665436173743a2076616c756520646f65736e27742066697420696e203634206269747353616665436173743a2076616c756520646f65736e27742066697420696e20616e20696e743235365369676e6564536166654d6174683a207375627472616374696f6e206f766572666c6f77a2646970667358221220f53bfd5955697da91198691655cc9e2937d4631956a444a22b85bed5b4435c6664736f6c63430007040033",
  "linkReferences": {},
  "deployedLinkReferences": {}
}