{
  "_format": "hh-sol-artifact-1",
  "contractName": "PegManager",
  "sourceName": "contracts/core/logic/PegManager.sol",
  "abi": [
    {
      "anonymous": false,
      "inputs": [
        {
          "indexed": true,
          "internalType": "address",
          "name": "governor",
          "type": "address"
        }
      ],
      "name": "Initialized",
      "type": "event"
    },
    {
      "anonymous": false,
      "inputs": [
        {
          "indexed": true,
          "internalType": "string",
          "name": "paramName",
          "type": "string"
        },
        {
          "indexed": false,
          "internalType": "uint128",
          "name": "value",
          "type": "uint128"
        }
      ],
      "name": "ParameterUpdated128",
      "type": "event"
    },
    {
      "anonymous": false,
      "inputs": [
        {
          "indexed": true,
          "internalType": "string",
          "name": "paramName",
          "type": "string"
        },
        {
          "indexed": false,
          "internalType": "uint64",
          "name": "value",
          "type": "uint64"
        }
      ],
      "name": "ParameterUpdated64",
      "type": "event"
    },
    {
      "anonymous": false,
      "inputs": [
        {
          "indexed": true,
          "internalType": "string",
          "name": "paramName",
          "type": "string"
        },
        {
          "indexed": false,
          "internalType": "int128",
          "name": "value",
          "type": "int128"
        }
      ],
      "name": "ParameterUpdatedInt128",
      "type": "event"
    },
    {
      "anonymous": false,
      "inputs": [
        {
          "indexed": false,
          "internalType": "int256",
          "name": "interestRate",
          "type": "int256"
        },
        {
          "indexed": false,
          "internalType": "uint256",
          "name": "price",
          "type": "uint256"
        },
        {
          "indexed": false,
          "internalType": "uint256",
          "name": "rewardCount",
          "type": "uint256"
        },
        {
          "indexed": false,
          "internalType": "uint64",
          "name": "nextUpdateTime",
          "type": "uint64"
        }
      ],
      "name": "RateUpdated",
      "type": "event"
    },
    {
      "anonymous": false,
      "inputs": [],
      "name": "Stopped",
      "type": "event"
    },
    {
      "inputs": [],
      "name": "acceptableError",
      "outputs": [
        {
          "internalType": "uint128",
          "name": "",
          "type": "uint128"
        }
      ],
      "stateMutability": "view",
      "type": "function"
    },
    {
      "inputs": [
        {
          "internalType": "uint256",
          "name": "price0",
          "type": "uint256"
        },
        {
          "internalType": "uint256",
          "name": "price1",
          "type": "uint256"
        },
        {
          "internalType": "uint256",
          "name": "price2",
          "type": "uint256"
        }
      ],
      "name": "calculatePrice",
      "outputs": [
        {
          "internalType": "uint256",
          "name": "price",
          "type": "uint256"
        }
      ],
      "stateMutability": "view",
      "type": "function"
    },
    {
      "inputs": [],
      "name": "errorInterval",
      "outputs": [
        {
          "internalType": "uint128",
          "name": "",
          "type": "uint128"
        }
      ],
      "stateMutability": "view",
      "type": "function"
    },
    {
      "inputs": [],
      "name": "getRewardCount",
      "outputs": [
        {
          "internalType": "uint256",
          "name": "newRewardCount",
          "type": "uint256"
        }
      ],
      "stateMutability": "view",
      "type": "function"
    },
    {
      "inputs": [],
      "name": "governor",
      "outputs": [
        {
          "internalType": "contract IGovernor",
          "name": "",
          "type": "address"
        }
      ],
      "stateMutability": "view",
      "type": "function"
    },
    {
      "inputs": [
        {
          "internalType": "contract IGovernor",
          "name": "governor_",
          "type": "address"
        }
      ],
      "name": "init",
      "outputs": [],
      "stateMutability": "nonpayable",
      "type": "function"
    },
    {
      "inputs": [],
      "name": "interestRate",
      "outputs": [
        {
          "internalType": "uint256",
          "name": "",
          "type": "uint256"
        }
      ],
      "stateMutability": "view",
      "type": "function"
    },
    {
      "inputs": [],
      "name": "interestRateStep",
      "outputs": [
        {
          "internalType": "uint128",
          "name": "",
          "type": "uint128"
        }
      ],
      "stateMutability": "view",
      "type": "function"
    },
    {
      "inputs": [],
      "name": "maxPriceAge",
      "outputs": [
        {
          "internalType": "uint64",
          "name": "",
          "type": "uint64"
        }
      ],
      "stateMutability": "view",
      "type": "function"
    },
    {
      "inputs": [],
      "name": "maxSteps",
      "outputs": [
        {
          "internalType": "uint64",
          "name": "",
          "type": "uint64"
        }
      ],
      "stateMutability": "view",
      "type": "function"
    },
    {
      "inputs": [],
      "name": "maxTwapTime",
      "outputs": [
        {
          "internalType": "uint64",
          "name": "",
          "type": "uint64"
        }
      ],
      "stateMutability": "view",
      "type": "function"
    },
    {
      "inputs": [],
      "name": "minRate",
      "outputs": [
        {
          "internalType": "int128",
          "name": "",
          "type": "int128"
        }
      ],
      "stateMutability": "view",
      "type": "function"
    },
    {
      "inputs": [],
      "name": "minTimeBetweenUpdates",
      "outputs": [
        {
          "internalType": "uint64",
          "name": "",
          "type": "uint64"
        }
      ],
      "stateMutability": "view",
      "type": "function"
    },
    {
      "inputs": [
        {
          "internalType": "uint256",
          "name": "",
          "type": "uint256"
        }
      ],
      "name": "pairs",
      "outputs": [
        {
          "internalType": "contract IUniswapV2Pair",
          "name": "",
          "type": "address"
        }
      ],
      "stateMutability": "view",
      "type": "function"
    },
    {
      "inputs": [],
      "name": "positiveInterestRate",
      "outputs": [
        {
          "internalType": "bool",
          "name": "",
          "type": "bool"
        }
      ],
      "stateMutability": "view",
      "type": "function"
    },
    {
      "inputs": [],
      "name": "rd",
      "outputs": [
        {
          "internalType": "int256",
          "name": "rate",
          "type": "int256"
        },
        {
          "internalType": "uint64",
          "name": "stepsOff",
          "type": "uint64"
        },
        {
          "internalType": "uint64",
          "name": "nextUpdateTime",
          "type": "uint64"
        },
        {
          "internalType": "uint128",
          "name": "rewardCount",
          "type": "uint128"
        }
      ],
      "stateMutability": "view",
      "type": "function"
    },
    {
      "inputs": [
        {
          "internalType": "uint128",
          "name": "error",
          "type": "uint128"
        }
      ],
      "name": "setAcceptableError",
      "outputs": [],
      "stateMutability": "nonpayable",
      "type": "function"
    },
    {
      "inputs": [
        {
          "internalType": "uint128",
          "name": "interval",
          "type": "uint128"
        }
      ],
      "name": "setErrorInterval",
      "outputs": [],
      "stateMutability": "nonpayable",
      "type": "function"
    },
    {
      "inputs": [
        {
          "internalType": "uint128",
          "name": "step",
          "type": "uint128"
        }
      ],
      "name": "setInterestRateStep",
      "outputs": [],
      "stateMutability": "nonpayable",
      "type": "function"
    },
    {
      "inputs": [
        {
          "internalType": "uint64",
          "name": "age",
          "type": "uint64"
        }
      ],
      "name": "setMaxPriceAge",
      "outputs": [],
      "stateMutability": "nonpayable",
      "type": "function"
    },
    {
      "inputs": [
        {
          "internalType": "uint64",
          "name": "steps",
          "type": "uint64"
        }
      ],
      "name": "setMaxSteps",
      "outputs": [],
      "stateMutability": "nonpayable",
      "type": "function"
    },
    {
      "inputs": [
        {
          "internalType": "uint64",
          "name": "time",
          "type": "uint64"
        }
      ],
      "name": "setMaxTwapTime",
      "outputs": [],
      "stateMutability": "nonpayable",
      "type": "function"
    },
    {
      "inputs": [
        {
          "internalType": "int128",
          "name": "min",
          "type": "int128"
        }
      ],
      "name": "setMinRate",
      "outputs": [],
      "stateMutability": "nonpayable",
      "type": "function"
    },
    {
      "inputs": [
        {
          "internalType": "uint64",
          "name": "time",
          "type": "uint64"
        }
      ],
      "name": "setMinTimeBetweenUpdates",
      "outputs": [],
      "stateMutability": "nonpayable",
      "type": "function"
    },
    {
      "inputs": [
        {
          "internalType": "uint128",
          "name": "range",
          "type": "uint128"
        }
      ],
      "name": "setValidRange",
      "outputs": [],
      "stateMutability": "nonpayable",
      "type": "function"
    },
    {
      "inputs": [],
      "name": "stepsOff",
      "outputs": [
        {
          "internalType": "uint64",
          "name": "",
          "type": "uint64"
        }
      ],
      "stateMutability": "view",
      "type": "function"
    },
    {
      "inputs": [],
      "name": "stop",
      "outputs": [],
      "stateMutability": "nonpayable",
      "type": "function"
    },
    {
      "inputs": [],
      "name": "update",
      "outputs": [],
      "stateMutability": "nonpayable",
      "type": "function"
    },
    {
      "inputs": [],
      "name": "validRange",
      "outputs": [
        {
          "internalType": "uint128",
          "name": "",
          "type": "uint128"
        }
      ],
      "stateMutability": "view",
      "type": "function"
    }
  ],
  "bytecode": "0x60806040526702c68af0bb140000600760006101000a8154816fffffffffffffffffffffffffffffffff02191690836fffffffffffffffffffffffffffffffff16021790555066071afd498d0000600760106101000a8154816fffffffffffffffffffffffffffffffff02191690836fffffffffffffffffffffffffffffffff160217905550662386f26fc10000600860006101000a8154816fffffffffffffffffffffffffffffffff02191690836fffffffffffffffffffffffffffffffff160217905550662386f26fc10000600860106101000a8154816fffffffffffffffffffffffffffffffff02191690836fffffffffffffffffffffffffffffffff1602179055507ffffffffffffffffffffffffffffffffffffffffffffffffffe9cba87a2760000600960006101000a8154816fffffffffffffffffffffffffffffffff0219169083600f0b6fffffffffffffffffffffffffffffffff1602179055506005600960106101000a81548167ffffffffffffffff021916908367ffffffffffffffff16021790555061a1b8600960186101000a81548167ffffffffffffffff021916908367ffffffffffffffff16021790555062015180600a60006101000a81548167ffffffffffffffff021916908367ffffffffffffffff160217905550612a30600a60086101000a81548167ffffffffffffffff021916908367ffffffffffffffff16021790555034801561021957600080fd5b5033600560006101000a81548173ffffffffffffffffffffffffffffffffffffffff021916908373ffffffffffffffffffffffffffffffffffffffff1602179055506001600681905550613e2a806102726000396000f3fe608060405234801561001057600080fd5b50600436106101cf5760003560e01c80635fd019ad11610104578063a7df1ff9116100a2578063d076c38911610071578063d076c38914610696578063d3ab3888146106be578063e015c62a146106f6578063ee47304d1461074c576101cf565b8063a7df1ff9146105a6578063b7bbba85146105d6578063b91ac7881461060e578063b9805af514610666576101cf565b80637c3a00fd116100de5780637c3a00fd146105205780637e7e8eec1461053e57806380ddbdb41461055c578063a2e620451461059c576101cf565b80635fd019ad146104805780636d7fa664146104c05780636e16ead2146104e0576101cf565b80631dddad42116101715780633ca36f881161014b5780633ca36f88146103975780633cbb0d22146103f0578063538cebd4146104205780635d8350b414610448576101cf565b80631dddad42146102f757806329b426aa146103375780633840ffe31461035f576101cf565b80630cb60443116101ad5780630cb60443146102425780631584410a1461026357806319a6e9e61461028b57806319ab453c146102b3576101cf565b806307da68f5146101d45780630bce570a146101de5780630c340a241461020e575b600080fd5b6101dc61077d565b005b6101e6610848565b60405180826fffffffffffffffffffffffffffffffff16815260200191505060405180910390f35b61021661086a565b604051808273ffffffffffffffffffffffffffffffffffffffff16815260200191505060405180910390f35b61024a61088e565b6040518082600f0b815260200191505060405180910390f35b61026b6108a1565b604051808267ffffffffffffffff16815260200191505060405180910390f35b6102936108bb565b604051808267ffffffffffffffff16815260200191505060405180910390f35b6102f5600480360360208110156102c957600080fd5b81019080803573ffffffffffffffffffffffffffffffffffffffff1690602001909291905050506108d5565b005b6103356004803603602081101561030d57600080fd5b8101908080356fffffffffffffffffffffffffffffffff169060200190929190505050610dcf565b005b61033f610ff8565b604051808267ffffffffffffffff16815260200191505060405180910390f35b6103956004803603602081101561037557600080fd5b81019080803567ffffffffffffffff169060200190929190505050611012565b005b61039f611338565b604051808581526020018467ffffffffffffffff1681526020018367ffffffffffffffff168152602001826fffffffffffffffffffffffffffffffff16815260200194505050505060405180910390f35b6103f861139a565b60405180826fffffffffffffffffffffffffffffffff16815260200191505060405180910390f35b6104286113bc565b604051808267ffffffffffffffff16815260200191505060405180910390f35b61047e6004803603602081101561045e57600080fd5b81019080803567ffffffffffffffff1690602001909291905050506113dd565b005b6104be6004803603602081101561049657600080fd5b8101908080356fffffffffffffffffffffffffffffffff1690602001909291905050506115d7565b005b6104c8611800565b60405180821515815260200191505060405180910390f35b61051e600480360360208110156104f657600080fd5b8101908080356fffffffffffffffffffffffffffffffff16906020019092919050505061180f565b005b610528611a38565b6040518082815260200191505060405180910390f35b610546611a5c565b6040518082815260200191505060405180910390f35b61059a6004803603602081101561057257600080fd5b8101908080356fffffffffffffffffffffffffffffffff169060200190929190505050611b47565b005b6105a4611d70565b005b6105ae612ae2565b60405180826fffffffffffffffffffffffffffffffff16815260200191505060405180910390f35b61060c600480360360208110156105ec57600080fd5b81019080803567ffffffffffffffff169060200190929190505050612b04565b005b61063a6004803603602081101561062457600080fd5b8101908080359060200190929190505050612c68565b604051808273ffffffffffffffffffffffffffffffffffffffff16815260200191505060405180910390f35b61066e612ca7565b60405180826fffffffffffffffffffffffffffffffff16815260200191505060405180910390f35b61069e612cc9565b604051808267ffffffffffffffff16815260200191505060405180910390f35b6106f4600480360360208110156106d457600080fd5b81019080803567ffffffffffffffff169060200190929190505050612ce3565b005b6107366004803603606081101561070c57600080fd5b81019080803590602001909291908035906020019092919080359060200190929190505050612e47565b6040518082815260200191505060405180910390f35b61077b6004803603602081101561076257600080fd5b810190808035600f0b9060200190929190505050612e8e565b005b60008054906101000a900473ffffffffffffffffffffffffffffffffffffffff1673ffffffffffffffffffffffffffffffffffffffff163373ffffffffffffffffffffffffffffffffffffffff161461083e576040517f08c379a00000000000000000000000000000000000000000000000000000000081526004018080602001828103825260198152602001807f476f7665726e65643a204e6f7420417574686f72697a65642e0000000000000081525060200191505060405180910390fd5b610846612ffe565b565b600760109054906101000a90046fffffffffffffffffffffffffffffffff1681565b60008054906101000a900473ffffffffffffffffffffffffffffffffffffffff1681565b600960009054906101000a9004600f0b81565b600a60089054906101000a900467ffffffffffffffff1681565b600960189054906101000a900467ffffffffffffffff1681565b600560009054906101000a900473ffffffffffffffffffffffffffffffffffffffff1673ffffffffffffffffffffffffffffffffffffffff163373ffffffffffffffffffffffffffffffffffffffff1614610998576040517f08c379a000000000000000000000000000000000000000000000000000000000815260040180806020018281038252601e8152602001807f476f7665726e65643a20496e6974206e6f7420617574686f72697a65642e000081525060200191505060405180910390fd5b600560006101000a81549073ffffffffffffffffffffffffffffffffffffffff02191690558073ffffffffffffffffffffffffffffffffffffffff167f908408e307fc569b417f6cbec5d5a06f44a0a505ac0479b47d421a4b2fd6a1e660405160405180910390a2806000806101000a81548173ffffffffffffffffffffffffffffffffffffffff021916908373ffffffffffffffffffffffffffffffffffffffff16021790555060008054906101000a900473ffffffffffffffffffffffffffffffffffffffff1673ffffffffffffffffffffffffffffffffffffffff16639624e83e6040518163ffffffff1660e01b815260040160206040518083038186803b158015610aa657600080fd5b505afa158015610aba573d6000803e3d6000fd5b505050506040513d6020811015610ad057600080fd5b8101908080519060200190929190505050600160006101000a81548173ffffffffffffffffffffffffffffffffffffffff021916908373ffffffffffffffffffffffffffffffffffffffff16021790555060008054906101000a900473ffffffffffffffffffffffffffffffffffffffff1673ffffffffffffffffffffffffffffffffffffffff166311df99956040518163ffffffff1660e01b815260040160206040518083038186803b158015610b8757600080fd5b505afa158015610b9b573d6000803e3d6000fd5b505050506040513d6020811015610bb157600080fd5b8101908080519060200190929190505050600260006101000a81548173ffffffffffffffffffffffffffffffffffffffff021916908373ffffffffffffffffffffffffffffffffffffffff16021790555060008054906101000a900473ffffffffffffffffffffffffffffffffffffffff1673ffffffffffffffffffffffffffffffffffffffff1663d478b0876040518163ffffffff1660e01b815260040160206040518083038186803b158015610c6857600080fd5b505afa158015610c7c573d6000803e3d6000fd5b505050506040513d6020811015610c9257600080fd5b8101908080519060200190929190505050600360006101000a81548173ffffffffffffffffffffffffffffffffffffffff021916908373ffffffffffffffffffffffffffffffffffffffff16021790555060008054906101000a900473ffffffffffffffffffffffffffffffffffffffff1673ffffffffffffffffffffffffffffffffffffffff16633fc8cef36040518163ffffffff1660e01b815260040160206040518083038186803b158015610d4957600080fd5b505afa158015610d5d573d6000803e3d6000fd5b505050506040513d6020811015610d7357600080fd5b8101908080519060200190929190505050600460006101000a81548173ffffffffffffffffffffffffffffffffffffffff021916908373ffffffffffffffffffffffffffffffffffffffff160217905550610dcc613047565b50565b60008054906101000a900473ffffffffffffffffffffffffffffffffffffffff1673ffffffffffffffffffffffffffffffffffffffff163373ffffffffffffffffffffffffffffffffffffffff1614610e90576040517f08c379a00000000000000000000000000000000000000000000000000000000081526004018080602001828103825260198152602001807f476f7665726e65643a204e6f7420417574686f72697a65642e0000000000000081525060200191505060405180910390fd5b80600760006101000a8154816fffffffffffffffffffffffffffffffff02191690836fffffffffffffffffffffffffffffffff160217905550670de0b6b3a7640000600760009054906101000a90046fffffffffffffffffffffffffffffffff166fffffffffffffffffffffffffffffffff1610610f76576040517f08c379a000000000000000000000000000000000000000000000000000000000815260040180806020018281038252600d8152602001807f496e76616c69642076616c75650000000000000000000000000000000000000081525060200191505060405180910390fd5b60405180807f76616c696452616e676500000000000000000000000000000000000000000000815250600a01905060405180910390207ff92f7fc8addd796154d83393012a119e212b31cb3dc9776133129db4c5747fcc8260405180826fffffffffffffffffffffffffffffffff16815260200191505060405180910390a250565b600a60009054906101000a900467ffffffffffffffff1681565b60008054906101000a900473ffffffffffffffffffffffffffffffffffffffff1673ffffffffffffffffffffffffffffffffffffffff163373ffffffffffffffffffffffffffffffffffffffff16146110d3576040517f08c379a00000000000000000000000000000000000000000000000000000000081526004018080602001828103825260198152602001807f476f7665726e65643a204e6f7420417574686f72697a65642e0000000000000081525060200191505060405180910390fd5b80600a60006101000a81548167ffffffffffffffff021916908367ffffffffffffffff160217905550600260008054906101000a900473ffffffffffffffffffffffffffffffffffffffff1673ffffffffffffffffffffffffffffffffffffffff1663d3419bf36040518163ffffffff1660e01b815260040160206040518083038186803b15801561116457600080fd5b505afa158015611178573d6000803e3d6000fd5b505050506040513d602081101561118e57600080fd5b810190808051906020019092919050505073ffffffffffffffffffffffffffffffffffffffff1663c31ff2db6040518163ffffffff1660e01b815260040160206040518083038186803b1580156111e457600080fd5b505afa1580156111f8573d6000803e3d6000fd5b505050506040513d602081101561120e57600080fd5b81019080805190602001909291905050500267ffffffffffffffff16600a60009054906101000a900467ffffffffffffffff1667ffffffffffffffff16116112be576040517f08c379a000000000000000000000000000000000000000000000000000000000815260040180806020018281038252600d8152602001807f496e76616c69642076616c75650000000000000000000000000000000000000081525060200191505060405180910390fd5b60405180807f6d61785477617054696d65000000000000000000000000000000000000000000815250600b01905060405180910390207f6293347933ad2997134e224ac8cd2e39908a4a22aeed9af52127b4bbf765297882604051808267ffffffffffffffff16815260200191505060405180910390a250565b600b8060000154908060010160009054906101000a900467ffffffffffffffff16908060010160089054906101000a900467ffffffffffffffff16908060010160109054906101000a90046fffffffffffffffffffffffffffffffff16905084565b600860009054906101000a90046fffffffffffffffffffffffffffffffff1681565b6000600b60010160009054906101000a900467ffffffffffffffff16905090565b60008054906101000a900473ffffffffffffffffffffffffffffffffffffffff1673ffffffffffffffffffffffffffffffffffffffff163373ffffffffffffffffffffffffffffffffffffffff161461149e576040517f08c379a00000000000000000000000000000000000000000000000000000000081526004018080602001828103825260198152602001807f476f7665726e65643a204e6f7420417574686f72697a65642e0000000000000081525060200191505060405180910390fd5b80600960186101000a81548167ffffffffffffffff021916908367ffffffffffffffff1602179055506000600960189054906101000a900467ffffffffffffffff1667ffffffffffffffff161161155d576040517f08c379a000000000000000000000000000000000000000000000000000000000815260040180806020018281038252600d8152602001807f496e76616c69642076616c75650000000000000000000000000000000000000081525060200191505060405180910390fd5b60405180807f6d696e54696d654265747765656e557064617465730000000000000000000000815250601501905060405180910390207f6293347933ad2997134e224ac8cd2e39908a4a22aeed9af52127b4bbf765297882604051808267ffffffffffffffff16815260200191505060405180910390a250565b60008054906101000a900473ffffffffffffffffffffffffffffffffffffffff1673ffffffffffffffffffffffffffffffffffffffff163373ffffffffffffffffffffffffffffffffffffffff1614611698576040517f08c379a00000000000000000000000000000000000000000000000000000000081526004018080602001828103825260198152602001807f476f7665726e65643a204e6f7420417574686f72697a65642e0000000000000081525060200191505060405180910390fd5b80600860006101000a8154816fffffffffffffffffffffffffffffffff02191690836fffffffffffffffffffffffffffffffff160217905550670de0b6b3a7640000600860009054906101000a90046fffffffffffffffffffffffffffffffff166fffffffffffffffffffffffffffffffff161061177e576040517f08c379a000000000000000000000000000000000000000000000000000000000815260040180806020018281038252600d8152602001807f496e76616c69642076616c75650000000000000000000000000000000000000081525060200191505060405180910390fd5b60405180807f6572726f72496e74657276616c00000000000000000000000000000000000000815250600d01905060405180910390207ff92f7fc8addd796154d83393012a119e212b31cb3dc9776133129db4c5747fcc8260405180826fffffffffffffffffffffffffffffffff16815260200191505060405180910390a250565b600080600b6000015413905090565b60008054906101000a900473ffffffffffffffffffffffffffffffffffffffff1673ffffffffffffffffffffffffffffffffffffffff163373ffffffffffffffffffffffffffffffffffffffff16146118d0576040517f08c379a00000000000000000000000000000000000000000000000000000000081526004018080602001828103825260198152602001807f476f7665726e65643a204e6f7420417574686f72697a65642e0000000000000081525060200191505060405180910390fd5b80600860106101000a8154816fffffffffffffffffffffffffffffffff02191690836fffffffffffffffffffffffffffffffff160217905550670de0b6b3a7640000600860109054906101000a90046fffffffffffffffffffffffffffffffff166fffffffffffffffffffffffffffffffff16106119b6576040517f08c379a000000000000000000000000000000000000000000000000000000000815260040180806020018281038252600d8152602001807f496e76616c69642076616c75650000000000000000000000000000000000000081525060200191505060405180910390fd5b60405180807f696e746572657374526174655374657000000000000000000000000000000000815250601001905060405180910390207ff92f7fc8addd796154d83393012a119e212b31cb3dc9776133129db4c5747fcc8260405180826fffffffffffffffffffffffffffffffff16815260200191505060405180910390a250565b600080600b60000154905060008112611a515780611a56565b806000035b91505090565b600080611a676132a5565b90506000600b60010160089054906101000a900467ffffffffffffffff1690506000600b60010160109054906101000a90046fffffffffffffffffffffffffffffffff166fffffffffffffffffffffffffffffffff169050600060028281611acb57fe5b0490508267ffffffffffffffff168467ffffffffffffffff1610611b1357611b0c83850367ffffffffffffffff16610708836132b59092919063ffffffff16565b8101611b16565b60005b9450611b3e611b2f6005846133c490919063ffffffff16565b8661344a90919063ffffffff16565b94505050505090565b60008054906101000a900473ffffffffffffffffffffffffffffffffffffffff1673ffffffffffffffffffffffffffffffffffffffff163373ffffffffffffffffffffffffffffffffffffffff1614611c08576040517f08c379a00000000000000000000000000000000000000000000000000000000081526004018080602001828103825260198152602001807f476f7665726e65643a204e6f7420417574686f72697a65642e0000000000000081525060200191505060405180910390fd5b80600760106101000a8154816fffffffffffffffffffffffffffffffff02191690836fffffffffffffffffffffffffffffffff160217905550670de0b6b3a7640000600760109054906101000a90046fffffffffffffffffffffffffffffffff166fffffffffffffffffffffffffffffffff1610611cee576040517f08c379a000000000000000000000000000000000000000000000000000000000815260040180806020018281038252600d8152602001807f496e76616c69642076616c75650000000000000000000000000000000000000081525060200191505060405180910390fd5b60405180807f61636365707461626c654572726f720000000000000000000000000000000000815250600f01905060405180910390207ff92f7fc8addd796154d83393012a119e212b31cb3dc9776133129db4c5747fcc8260405180826fffffffffffffffffffffffffffffffff16815260200191505060405180910390a250565b600360009054906101000a900473ffffffffffffffffffffffffffffffffffffffff1673ffffffffffffffffffffffffffffffffffffffff1663e97dcb626040518163ffffffff1660e01b8152600401600060405180830381600087803b158015611dda57600080fd5b505af1158015611dee573d6000803e3d6000fd5b5050505060026006541415611e6b576040517f08c379a000000000000000000000000000000000000000000000000000000000815260040180806020018281038252601d8152602001807f4c6f636b50726f746f636f6c3a207265656e7472616e742063616c6c2e00000081525060200191505060405180910390fd5b6002600681905550600460149054906101000a900460ff1615611ef6576040517f08c379a000000000000000000000000000000000000000000000000000000000815260040180806020018281038252601e8152602001807f476f7665726e65643a20436f6e74726163742069732073746f707065642e000081525060200191505060405180910390fd5b60008054906101000a900473ffffffffffffffffffffffffffffffffffffffff1673ffffffffffffffffffffffffffffffffffffffff1663bf86d6906040518163ffffffff1660e01b815260040160206040518083038186803b158015611f5c57600080fd5b505afa158015611f70573d6000803e3d6000fd5b505050506040513d6020811015611f8657600080fd5b810190808051906020019092919050505015611fed576040517f08c379a0000000000000000000000000000000000000000000000000000000008152600401808060200182810382526028815260200180613d166028913960400191505060405180910390fd5b611ff56132a5565b67ffffffffffffffff16600b60010160089054906101000a900467ffffffffffffffff1667ffffffffffffffff16111561207a576040517f08c379a0000000000000000000000000000000000000000000000000000000008152600401808060200182810382526024815260200180613d3e6024913960400191505060405180910390fd5b60008060009054906101000a900473ffffffffffffffffffffffffffffffffffffffff1673ffffffffffffffffffffffffffffffffffffffff1663d3419bf36040518163ffffffff1660e01b815260040160206040518083038186803b1580156120e357600080fd5b505afa1580156120f7573d6000803e3d6000fd5b505050506040513d602081101561210d57600080fd5b8101908080519060200190929190505050905060008173ffffffffffffffffffffffffffffffffffffffff1663fb5bb243600d60008154811061214c57fe5b9060005260206000200160009054906101000a900473ffffffffffffffffffffffffffffffffffffffff16600a60009054906101000a900467ffffffffffffffff16600a60089054906101000a900467ffffffffffffffff1660016040518563ffffffff1660e01b8152600401808573ffffffffffffffffffffffffffffffffffffffff1681526020018467ffffffffffffffff1681526020018367ffffffffffffffff16815260200182151581526020019450505050506040805180830381600087803b15801561221d57600080fd5b505af1158015612231573d6000803e3d6000fd5b505050506040513d604081101561224757600080fd5b81019080805190602001909291908051906020019092919050505050905060008273ffffffffffffffffffffffffffffffffffffffff1663fb5bb243600d60018154811061229157fe5b9060005260206000200160009054906101000a900473ffffffffffffffffffffffffffffffffffffffff16600a60009054906101000a900467ffffffffffffffff16600a60089054906101000a900467ffffffffffffffff1660016040518563ffffffff1660e01b8152600401808573ffffffffffffffffffffffffffffffffffffffff1681526020018467ffffffffffffffff1681526020018367ffffffffffffffff16815260200182151581526020019450505050506040805180830381600087803b15801561236257600080fd5b505af1158015612376573d6000803e3d6000fd5b505050506040513d604081101561238c57600080fd5b81019080805190602001909291908051906020019092919050505050905060008373ffffffffffffffffffffffffffffffffffffffff1663fb5bb243600d6002815481106123d657fe5b9060005260206000200160009054906101000a900473ffffffffffffffffffffffffffffffffffffffff16600a60009054906101000a900467ffffffffffffffff16600a60089054906101000a900467ffffffffffffffff1660016040518563ffffffff1660e01b8152600401808573ffffffffffffffffffffffffffffffffffffffff1681526020018467ffffffffffffffff1681526020018367ffffffffffffffff16815260200182151581526020019450505050506040805180830381600087803b1580156124a757600080fd5b505af11580156124bb573d6000803e3d6000fd5b505050506040513d60408110156124d157600080fd5b81019080805190602001909291908051906020019092919050505050905060006124fc848484612e47565b90506000811415612511575050505050612a56565b6000670de0b6b3a7640000851190506000816125375782670de0b6b3a764000003612543565b670de0b6b3a764000083035b905061254d613bb6565b600b604051806080016040529081600082015481526020016001820160009054906101000a900467ffffffffffffffff1667ffffffffffffffff1667ffffffffffffffff1681526020016001820160089054906101000a900467ffffffffffffffff1667ffffffffffffffff1667ffffffffffffffff1681526020016001820160109054906101000a90046fffffffffffffffffffffffffffffffff166fffffffffffffffffffffffffffffffff166fffffffffffffffffffffffffffffffff16815250509050600760109054906101000a90046fffffffffffffffffffffffffffffffff166fffffffffffffffffffffffffffffffff16821015612672576000816020019067ffffffffffffffff16908167ffffffffffffffff16815250506127a9565b6126e96126e46001600860009054906101000a90046fffffffffffffffffffffffffffffffff166fffffffffffffffffffffffffffffffff1685816126b357fe5b0401600960109054906101000a900467ffffffffffffffff1667ffffffffffffffff1661344a90919063ffffffff16565b613463565b816020019067ffffffffffffffff16908167ffffffffffffffff1681525050600061276361275e836020015167ffffffffffffffff16600860109054906101000a90046fffffffffffffffffffffffffffffffff166fffffffffffffffffffffffffffffffff166133c490919063ffffffff16565b6134ce565b9050836127865761278181836000015161355090919063ffffffff16565b61279e565b61279d8183600001516135de90919063ffffffff16565b5b826000018181525050505b600960009054906101000a9004600f0b600f0b8160000151126127d05780600001516127e4565b600960009054906101000a9004600f0b600f0b5b8160000181815250506127fd6127f8611a5c565b61366c565b81606001906fffffffffffffffffffffffffffffffff1690816fffffffffffffffffffffffffffffffff168152505061284b600960189054906101000a900467ffffffffffffffff166136df565b816040019067ffffffffffffffff16908167ffffffffffffffff168152505080600b6000820151816000015560208201518160010160006101000a81548167ffffffffffffffff021916908367ffffffffffffffff16021790555060408201518160010160086101000a81548167ffffffffffffffff021916908367ffffffffffffffff16021790555060608201518160010160106101000a8154816fffffffffffffffffffffffffffffffff02191690836fffffffffffffffffffffffffffffffff16021790555090505060008054906101000a900473ffffffffffffffffffffffffffffffffffffffff1673ffffffffffffffffffffffffffffffffffffffff1663a99acb173383606001516040518363ffffffff1660e01b8152600401808373ffffffffffffffffffffffffffffffffffffffff168152602001826fffffffffffffffffffffffffffffffff16815260200192505050600060405180830381600087803b1580156129be57600080fd5b505af11580156129d2573d6000803e3d6000fd5b505050507f9f912bcb7b057a4f10fbbee5785670aecb2ab545144237646e17398d55de72dc8160000151858360600151846040015160405180858152602001848152602001836fffffffffffffffffffffffffffffffff1681526020018267ffffffffffffffff16815260200194505050505060405180910390a150505050505050505b6001600681905550600360009054906101000a900473ffffffffffffffffffffffffffffffffffffffff1673ffffffffffffffffffffffffffffffffffffffff1663e9fad8ee6040518163ffffffff1660e01b8152600401600060405180830381600087803b158015612ac857600080fd5b505af1158015612adc573d6000803e3d6000fd5b50505050565b600760009054906101000a90046fffffffffffffffffffffffffffffffff1681565b60008054906101000a900473ffffffffffffffffffffffffffffffffffffffff1673ffffffffffffffffffffffffffffffffffffffff163373ffffffffffffffffffffffffffffffffffffffff1614612bc5576040517f08c379a00000000000000000000000000000000000000000000000000000000081526004018080602001828103825260198152602001807f476f7665726e65643a204e6f7420417574686f72697a65642e0000000000000081525060200191505060405180910390fd5b80600a60086101000a81548167ffffffffffffffff021916908367ffffffffffffffff16021790555060405180807f6d61785072696365416765000000000000000000000000000000000000000000815250600b01905060405180910390207f6293347933ad2997134e224ac8cd2e39908a4a22aeed9af52127b4bbf765297882604051808267ffffffffffffffff16815260200191505060405180910390a250565b600d8181548110612c7857600080fd5b906000526020600020016000915054906101000a900473ffffffffffffffffffffffffffffffffffffffff1681565b600860109054906101000a90046fffffffffffffffffffffffffffffffff1681565b600960109054906101000a900467ffffffffffffffff1681565b60008054906101000a900473ffffffffffffffffffffffffffffffffffffffff1673ffffffffffffffffffffffffffffffffffffffff163373ffffffffffffffffffffffffffffffffffffffff1614612da4576040517f08c379a00000000000000000000000000000000000000000000000000000000081526004018080602001828103825260198152602001807f476f7665726e65643a204e6f7420417574686f72697a65642e0000000000000081525060200191505060405180910390fd5b80600960106101000a81548167ffffffffffffffff021916908367ffffffffffffffff16021790555060405180807f6d61785374657073000000000000000000000000000000000000000000000000815250600801905060405180910390207f6293347933ad2997134e224ac8cd2e39908a4a22aeed9af52127b4bbf765297882604051808267ffffffffffffffff16815260200191505060405180910390a250565b6000612e85848484600760009054906101000a90046fffffffffffffffffffffffffffffffff166fffffffffffffffffffffffffffffffff1661370c565b90509392505050565b60008054906101000a900473ffffffffffffffffffffffffffffffffffffffff1673ffffffffffffffffffffffffffffffffffffffff163373ffffffffffffffffffffffffffffffffffffffff1614612f4f576040517f08c379a00000000000000000000000000000000000000000000000000000000081526004018080602001828103825260198152602001807f476f7665726e65643a204e6f7420417574686f72697a65642e0000000000000081525060200191505060405180910390fd5b80600960006101000a8154816fffffffffffffffffffffffffffffffff0219169083600f0b6fffffffffffffffffffffffffffffffff16021790555060405180807f6d696e5261746500000000000000000000000000000000000000000000000000815250600701905060405180910390207f73372e841856ef3f75f5070dea5fbba697b24bf1b513158c125d0c7bbcc62fd2826040518082600f0b815260200191505060405180910390a250565b6001600460146101000a81548160ff0219169083151502179055507f7acc84e34091ae817647a4c49116f5cc07f319078ba80f8f5fde37ea7e25cbd660405160405180910390a1565b60008054906101000a900473ffffffffffffffffffffffffffffffffffffffff1673ffffffffffffffffffffffffffffffffffffffff16635a50aaf26040518163ffffffff1660e01b815260040160006040518083038186803b1580156130ad57600080fd5b505afa1580156130c1573d6000803e3d6000fd5b505050506040513d6000823e3d601f19601f8201168201806040525060208110156130eb57600080fd5b810190808051604051939291908464010000000082111561310b57600080fd5b8382019150602082018581111561312157600080fd5b825186602082028301116401000000008211171561313e57600080fd5b8083526020830192505050908051906020019060200280838360005b8381101561317557808201518184015260208101905061315a565b50505050905001604052505050600d9080519060200190613197929190613c04565b506040518060800160405280666a94d74f4300008152602001600067ffffffffffffffff1681526020016131c96132a5565b67ffffffffffffffff168152602001686c6b935b8bbd4000006fffffffffffffffffffffffffffffffff16815250600b6000820151816000015560208201518160010160006101000a81548167ffffffffffffffff021916908367ffffffffffffffff16021790555060408201518160010160086101000a81548167ffffffffffffffff021916908367ffffffffffffffff16021790555060608201518160010160106101000a8154816fffffffffffffffffffffffffffffffff02191690836fffffffffffffffffffffffffffffffff160217905550905050565b60006132b042613463565b905090565b6000808414806132c55750600083145b156132d357600090506133bd565b600082141561334a576040517f08c379a000000000000000000000000000000000000000000000000000000000815260040180806020018281038252601b8152602001807f536166654d6174683a206469766973696f6e206279207a65726f2e000000000081525060200191505060405180910390fd5b82840290508284828161335957fe5b04146133b0576040517f08c379a0000000000000000000000000000000000000000000000000000000008152600401808060200182810382526022815260200180613cac6022913960400191505060405180910390fd5b8181816133b957fe5b0490505b9392505050565b6000808314156133d75760009050613444565b60008284029050828482816133e857fe5b041461343f576040517f08c379a0000000000000000000000000000000000000000000000000000000008152600401808060200182810382526021815260200180613d626021913960400191505060405180910390fd5b809150505b92915050565b6000818310613459578161345b565b825b905092915050565b60006801000000000000000082106134c6576040517f08c379a0000000000000000000000000000000000000000000000000000000008152600401808060200182810382526026815260200180613d836026913960400191505060405180910390fd5b819050919050565b60007f80000000000000000000000000000000000000000000000000000000000000008210613548576040517f08c379a0000000000000000000000000000000000000000000000000000000008152600401808060200182810382526028815260200180613da96028913960400191505060405180910390fd5b819050919050565b6000808284039050600083121580156135695750838113155b8061357f575060008312801561357e57508381135b5b6135d4576040517f08c379a0000000000000000000000000000000000000000000000000000000008152600401808060200182810382526024815260200180613dd16024913960400191505060405180910390fd5b8091505092915050565b6000808284019050600083121580156135f75750838112155b8061360d575060008312801561360c57508381125b5b613662576040517f08c379a0000000000000000000000000000000000000000000000000000000008152600401808060200182810382526021815260200180613cf56021913960400191505060405180910390fd5b8091505092915050565b600070010000000000000000000000000000000082106136d7576040517f08c379a0000000000000000000000000000000000000000000000000000000008152600401808060200182810382526027815260200180613cce6027913960400191505060405180910390fd5b819050919050565b6000613705826136ed6132a5565b67ffffffffffffffff1661394690919063ffffffff16565b9050919050565b60008061372a83670de0b6b3a76400006139e290919063ffffffff16565b9050600061374984670de0b6b3a7640000613a2c90919063ffffffff16565b90506000806000808a8610801561375f5750848b105b15613771576001935080806001019150505b898610801561377f5750848a105b15613791576001925080806001019150505b888610801561379f57508489105b156137b1576001915080806001019150505b60038114806137c05750600081145b1561380c57898b11156137d857898b809b50819c5050505b888a11156137eb57888a809a50819b5050505b898b11156137fe57898b809b50819c5050505b89965050505050505061393e565b6002811415613889578361383a5761382d898b613ab490919063ffffffff16565b965050505050505061393e565b8261385f57613852898c613ab490919063ffffffff16565b965050505050505061393e565b81613884576138778a8c613ab490919063ffffffff16565b965050505050505061393e565b6138d0565b60018114156138cf5783156138a6578a965050505050505061393e565b82156138ba5789965050505050505061393e565b81156138ce5788965050505050505061393e565b5b5b6040517f08c379a000000000000000000000000000000000000000000000000000000000815260040180806020018281038252600f8152602001807f4e6f2076616c69642070726963652e000000000000000000000000000000000081525060200191505060405180910390fd5b949350505050565b60008082840190508367ffffffffffffffff168167ffffffffffffffff1610156139d8576040517f08c379a000000000000000000000000000000000000000000000000000000000815260040180806020018281038252601b8152602001807f536166654d6174683a206164646974696f6e206f766572666c6f77000000000081525060200191505060405180910390fd5b8091505092915050565b6000613a2483836040518060400160405280601e81526020017f536166654d6174683a207375627472616374696f6e206f766572666c6f770000815250613af6565b905092915050565b600080828401905083811015613aaa576040517f08c379a000000000000000000000000000000000000000000000000000000000815260040180806020018281038252601b8152602001807f536166654d6174683a206164646974696f6e206f766572666c6f77000000000081525060200191505060405180910390fd5b8091505092915050565b60006002808381613ac157fe5b0660028581613acc57fe5b060181613ad557fe5b0460028381613ae057fe5b0460028581613aeb57fe5b040101905092915050565b6000838311158290613ba3576040517f08c379a00000000000000000000000000000000000000000000000000000000081526004018080602001828103825283818151815260200191508051906020019080838360005b83811015613b68578082015181840152602081019050613b4d565b50505050905090810190601f168015613b955780820380516001836020036101000a031916815260200191505b509250505060405180910390fd5b5060008385039050809150509392505050565b604051806080016040528060008152602001600067ffffffffffffffff168152602001600067ffffffffffffffff16815260200160006fffffffffffffffffffffffffffffffff1681525090565b828054828255906000526020600020908101928215613c7d579160200282015b82811115613c7c5782518260006101000a81548173ffffffffffffffffffffffffffffffffffffffff021916908373ffffffffffffffffffffffffffffffffffffffff16021790555091602001919060010190613c24565b5b509050613c8a9190613c8e565b5090565b5b80821115613ca7576000816000905550600101613c8f565b509056fe536166654d6174683a206d756c7469706c69636174696f6e206f766572666c6f772e53616665436173743a2076616c756520646f65736e27742066697420696e2031323820626974735369676e6564536166654d6174683a206164646974696f6e206f766572666c6f77476f7665726e65643a204e6f7420617661696c61626c6520647572696e672073687574646f776e2e5065674d616e616765722f7570646174653a20557064617465206e6f742072656164792e536166654d6174683a206d756c7469706c69636174696f6e206f766572666c6f7753616665436173743a2076616c756520646f65736e27742066697420696e203634206269747353616665436173743a2076616c756520646f65736e27742066697420696e20616e20696e743235365369676e6564536166654d6174683a207375627472616374696f6e206f766572666c6f77a2646970667358221220e8a117890403600b7079ac4d0d8a3c0b1c9403ba7e733754f082491557179c1f64736f6c63430007040033",
  "linkReferences": {},
  "deployedLinkReferences": {}
}