{
  "_format": "hh-sol-artifact-1",
  "contractName": "CoinLiquidator",
  "sourceName": "contracts/core/utils/FlashCoinLiquidator.sol",
  "abi": [
    {
      "inputs": [
        {
          "internalType": "contract IGovernor",
          "name": "_governor",
          "type": "address"
        },
        {
          "internalType": "contract IUniswapV2Router02",
          "name": "_router",
          "type": "address"
        }
      ],
      "stateMutability": "nonpayable",
      "type": "constructor"
    },
    {
      "anonymous": false,
      "inputs": [
        {
          "indexed": true,
          "internalType": "address",
          "name": "liquidations",
          "type": "address"
        },
        {
          "indexed": true,
          "internalType": "address",
          "name": "caller",
          "type": "address"
        },
        {
          "indexed": false,
          "internalType": "uint256",
          "name": "minPrice",
          "type": "uint256"
        },
        {
          "indexed": false,
          "internalType": "uint256",
          "name": "collateralSent",
          "type": "uint256"
        },
        {
          "indexed": false,
          "internalType": "uint256",
          "name": "baseTokensToRepay",
          "type": "uint256"
        }
      ],
      "name": "Completed",
      "type": "event"
    },
    {
      "inputs": [
        {
          "internalType": "uint256",
          "name": "collateralSent",
          "type": "uint256"
        },
        {
          "internalType": "uint256",
          "name": "baseTokensToRepay",
          "type": "uint256"
        }
      ],
      "name": "executeOnFlashLiquidate",
      "outputs": [],
      "stateMutability": "nonpayable",
      "type": "function"
    },
    {
      "inputs": [],
      "name": "governor",
      "outputs": [
        {
          "internalType": "contract IGovernor",
          "name": "",
          "type": "address"
        }
      ],
      "stateMutability": "view",
      "type": "function"
    },
    {
      "inputs": [
        {
          "internalType": "uint256",
          "name": "_minPrice",
          "type": "uint256"
        },
        {
          "internalType": "uint256",
          "name": "_debt",
          "type": "uint256"
        }
      ],
      "name": "liquidate",
      "outputs": [],
      "stateMutability": "nonpayable",
      "type": "function"
    },
    {
      "inputs": [],
      "name": "router",
      "outputs": [
        {
          "internalType": "contract IUniswapV2Router02",
          "name": "",
          "type": "address"
        }
      ],
      "stateMutability": "view",
      "type": "function"
    }
  ],
  "bytecode": "0x60c060405234801561001057600080fd5b506040516112e23803806112e28339818101604052604081101561003357600080fd5b8101908080519060200190929190805190602001909291905050508173ffffffffffffffffffffffffffffffffffffffff1660808173ffffffffffffffffffffffffffffffffffffffff1660601b815250508073ffffffffffffffffffffffffffffffffffffffff1660a08173ffffffffffffffffffffffffffffffffffffffff1660601b81525050505060805160601c60a05160601c6111d361010f6000398061047f528061067d528061103452508061012b528061014f5280610275528061031a528061096c5280610d1d5280610dc252506111d36000f3fe608060405234801561001057600080fd5b506004361061004c5760003560e01c80630c340a2414610051578063acd1736b14610085578063d296d1f1146100bd578063f887ea40146100f5575b600080fd5b610059610129565b604051808273ffffffffffffffffffffffffffffffffffffffff16815260200191505060405180910390f35b6100bb6004803603604081101561009b57600080fd5b81019080803590602001909291908035906020019092919050505061014d565b005b6100f3600480360360408110156100d357600080fd5b810190808035906020019092919080359060200190929190505050610d19565b005b6100fd611032565b604051808273ffffffffffffffffffffffffffffffffffffffff16815260200191505060405180910390f35b7f000000000000000000000000000000000000000000000000000000000000000081565b7f000000000000000000000000000000000000000000000000000000000000000073ffffffffffffffffffffffffffffffffffffffff16639a371c846040518163ffffffff1660e01b815260040160206040518083038186803b1580156101b357600080fd5b505afa1580156101c7573d6000803e3d6000fd5b505050506040513d60208110156101dd57600080fd5b810190808051906020019092919050505073ffffffffffffffffffffffffffffffffffffffff163373ffffffffffffffffffffffffffffffffffffffff1614610271576040517f08c379a00000000000000000000000000000000000000000000000000000000081526004018080602001828103825260288152602001806110f66028913960400191505060405180910390fd5b60007f000000000000000000000000000000000000000000000000000000000000000073ffffffffffffffffffffffffffffffffffffffff166311df99956040518163ffffffff1660e01b815260040160206040518083038186803b1580156102d957600080fd5b505afa1580156102ed573d6000803e3d6000fd5b505050506040513d602081101561030357600080fd5b8101908080519060200190929190505050905060007f000000000000000000000000000000000000000000000000000000000000000073ffffffffffffffffffffffffffffffffffffffff16633fc8cef36040518163ffffffff1660e01b815260040160206040518083038186803b15801561037e57600080fd5b505afa158015610392573d6000803e3d6000fd5b505050506040513d60208110156103a857600080fd5b8101908080519060200190929190505050905060008173ffffffffffffffffffffffffffffffffffffffff166370a08231306040518263ffffffff1660e01b8152600401808273ffffffffffffffffffffffffffffffffffffffff16815260200191505060206040518083038186803b15801561042457600080fd5b505afa158015610438573d6000803e3d6000fd5b505050506040513d602081101561044e57600080fd5b810190808051906020019092919050505090508173ffffffffffffffffffffffffffffffffffffffff1663095ea7b37f0000000000000000000000000000000000000000000000000000000000000000836040518363ffffffff1660e01b8152600401808373ffffffffffffffffffffffffffffffffffffffff16815260200182815260200192505050602060405180830381600087803b1580156104f257600080fd5b505af1158015610506573d6000803e3d6000fd5b505050506040513d602081101561051c57600080fd5b810190808051906020019092919050505061059f576040517f08c379a000000000000000000000000000000000000000000000000000000000815260040180806020018281038252601e8152602001807f436f696e4c69717569646174653a20417070726f7665206661696c65642e000081525060200191505060405180910390fd5b6060600267ffffffffffffffff811180156105b957600080fd5b506040519080825280602002602001820160405280156105e85781602001602082028036833780820191505090505b50905082816000815181106105f957fe5b602002602001019073ffffffffffffffffffffffffffffffffffffffff16908173ffffffffffffffffffffffffffffffffffffffff1681525050838160018151811061064157fe5b602002602001019073ffffffffffffffffffffffffffffffffffffffff16908173ffffffffffffffffffffffffffffffffffffffff16815250507f000000000000000000000000000000000000000000000000000000000000000073ffffffffffffffffffffffffffffffffffffffff166338ed1739836106cd6000548661105690919063ffffffff16565b8430426040518663ffffffff1660e01b815260040180868152602001858152602001806020018473ffffffffffffffffffffffffffffffffffffffff168152602001838152602001828103825285818151815260200191508051906020019060200280838360005b83811015610750578082015181840152602081019050610735565b505050509050019650505050505050600060405180830381600087803b15801561077957600080fd5b505af115801561078d573d6000803e3d6000fd5b505050506040513d6000823e3d601f19601f8201168201806040525060208110156107b757600080fd5b81019080805160405193929190846401000000008211156107d757600080fd5b838201915060208201858111156107ed57600080fd5b825186602082028301116401000000008211171561080a57600080fd5b8083526020830192505050908051906020019060200280838360005b83811015610841578082015181840152602081019050610826565b505050509050016040525050505060008473ffffffffffffffffffffffffffffffffffffffff166370a08231306040518263ffffffff1660e01b8152600401808273ffffffffffffffffffffffffffffffffffffffff16815260200191505060206040518083038186803b1580156108b857600080fd5b505afa1580156108cc573d6000803e3d6000fd5b505050506040513d60208110156108e257600080fd5b810190808051906020019092919050505090508581101561094e576040517f08c379a00000000000000000000000000000000000000000000000000000000081526004018080602001828103825260348152602001806111406034913960400191505060405180910390fd5b8473ffffffffffffffffffffffffffffffffffffffff1663095ea7b37f000000000000000000000000000000000000000000000000000000000000000073ffffffffffffffffffffffffffffffffffffffff16639a371c846040518163ffffffff1660e01b815260040160206040518083038186803b1580156109d057600080fd5b505afa1580156109e4573d6000803e3d6000fd5b505050506040513d60208110156109fa57600080fd5b8101908080519060200190929190505050886040518363ffffffff1660e01b8152600401808373ffffffffffffffffffffffffffffffffffffffff16815260200182815260200192505050602060405180830381600087803b158015610a5f57600080fd5b505af1158015610a73573d6000803e3d6000fd5b505050506040513d6020811015610a8957600080fd5b8101908080519060200190929190505050610b0c576040517f08c379a000000000000000000000000000000000000000000000000000000000815260040180806020018281038252601e8152602001807f436f696e4c69717569646174653a20417070726f7665206661696c65642e000081525060200191505060405180910390fd5b8473ffffffffffffffffffffffffffffffffffffffff1663a9059cbb600160009054906101000a900473ffffffffffffffffffffffffffffffffffffffff168884036040518363ffffffff1660e01b8152600401808373ffffffffffffffffffffffffffffffffffffffff16815260200182815260200192505050602060405180830381600087803b158015610ba157600080fd5b505af1158015610bb5573d6000803e3d6000fd5b505050506040513d6020811015610bcb57600080fd5b8101908080519060200190929190505050610c4e576040517f08c379a000000000000000000000000000000000000000000000000000000000815260040180806020018281038252601f8152602001807f436f696e4c69717569646174653a205472616e73666572206661696c65642e0081525060200191505060405180910390fd5b600160009054906101000a900473ffffffffffffffffffffffffffffffffffffffff1673ffffffffffffffffffffffffffffffffffffffff163373ffffffffffffffffffffffffffffffffffffffff167fb1794f9fe71f95d4b068af08c67b106f2fded66644c8aa6dec12a6e2ec68a4956000548a8a60405180848152602001838152602001828152602001935050505060405180910390a3600160006101000a81549073ffffffffffffffffffffffffffffffffffffffff02191690556000805550505050505050565b60007f000000000000000000000000000000000000000000000000000000000000000073ffffffffffffffffffffffffffffffffffffffff16639624e83e6040518163ffffffff1660e01b815260040160206040518083038186803b158015610d8157600080fd5b505afa158015610d95573d6000803e3d6000fd5b505050506040513d6020811015610dab57600080fd5b8101908080519060200190929190505050905060007f000000000000000000000000000000000000000000000000000000000000000073ffffffffffffffffffffffffffffffffffffffff16639a371c846040518163ffffffff1660e01b815260040160206040518083038186803b158015610e2657600080fd5b505afa158015610e3a573d6000803e3d6000fd5b505050506040513d6020811015610e5057600080fd5b810190808051906020019092919050505090506000808373ffffffffffffffffffffffffffffffffffffffff16636594da9f60006040518263ffffffff1660e01b815260040180828152602001915050604080518083038186803b158015610eb757600080fd5b505afa158015610ecb573d6000803e3d6000fd5b505050506040513d6040811015610ee157600080fd5b8101908080519060200190929190805190602001909291905050509150915060008214158015610f12575060008114155b610f67576040517f08c379a000000000000000000000000000000000000000000000000000000000815260040180806020018281038252602a815260200180611174602a913960400191505060405180910390fd5b8560008190555033600160006101000a81548173ffffffffffffffffffffffffffffffffffffffff021916908373ffffffffffffffffffffffffffffffffffffffff1602179055508273ffffffffffffffffffffffffffffffffffffffff16634c8944136000871415610fda5783610fdc565b865b6040518263ffffffff1660e01b815260040180828152602001915050600060405180830381600087803b15801561101257600080fd5b505af1158015611026573d6000803e3d6000fd5b50505050505050505050565b7f000000000000000000000000000000000000000000000000000000000000000081565b6000808314806110665750600082145b1561107457600090506110ef565b81830290508183828161108357fe5b04146110da576040517f08c379a000000000000000000000000000000000000000000000000000000000815260040180806020018281038252602281526020018061111e6022913960400191505060405180910390fd5b670de0b6b3a764000081816110eb57fe5b0490505b9291505056fe436f696e4c697175696461746f723a2063616c6c206c697175696461746520746f20626567696e2e536166654d6174683a206d756c7469706c69636174696f6e206f766572666c6f772e436f696e4c69717569646174653a204c69717569646174696f6e20646964206e6f7420726573756c7420696e2070726f6669742e436f696e4c69717569646174653a204e6f206c69717569646174696f6e206f70706f7274756e6974792ea2646970667358221220c04eb5f3ae2c237c433ec7f9debb10f07e825daf8aeae2fe4cefb276bf86171064736f6c63430007040033",
  "linkReferences": {},
  "deployedLinkReferences": {}
}