{
  "_format": "hh-sol-artifact-1",
  "contractName": "AccountingTestable",
  "sourceName": "contracts/mocks/AccountingTestable.sol",
  "abi": [
    {
      "inputs": [
        {
          "internalType": "contract INonfungiblePositionManager",
          "name": "nftPositionManager",
          "type": "address"
        }
      ],
      "stateMutability": "nonpayable",
      "type": "constructor"
    },
    {
      "anonymous": false,
      "inputs": [],
      "name": "DebtPositionIndexingDisabled",
      "type": "event"
    },
    {
      "anonymous": false,
      "inputs": [
        {
          "indexed": true,
          "internalType": "address",
          "name": "governor",
          "type": "address"
        }
      ],
      "name": "Initialized",
      "type": "event"
    },
    {
      "anonymous": false,
      "inputs": [],
      "name": "PoolPositionIndexingDisabled",
      "type": "event"
    },
    {
      "anonymous": false,
      "inputs": [],
      "name": "Stopped",
      "type": "event"
    },
    {
      "anonymous": false,
      "inputs": [
        {
          "indexed": false,
          "internalType": "uint32[]",
          "name": "uis",
          "type": "uint32[]"
        }
      ],
      "name": "UIsApproved",
      "type": "event"
    },
    {
      "anonymous": false,
      "inputs": [
        {
          "indexed": false,
          "internalType": "uint32[]",
          "name": "uis",
          "type": "uint32[]"
        }
      ],
      "name": "UIsDisapproved",
      "type": "event"
    },
    {
      "inputs": [],
      "name": "TICK_SPACING",
      "outputs": [
        {
          "internalType": "int24",
          "name": "",
          "type": "int24"
        }
      ],
      "stateMutability": "view",
      "type": "function"
    },
    {
      "inputs": [
        {
          "internalType": "address",
          "name": "owner",
          "type": "address"
        },
        {
          "internalType": "uint256",
          "name": "nftID",
          "type": "uint256"
        }
      ],
      "name": "__addPositionToIndex",
      "outputs": [],
      "stateMutability": "nonpayable",
      "type": "function"
    },
    {
      "inputs": [
        {
          "internalType": "address",
          "name": "owner",
          "type": "address"
        },
        {
          "internalType": "uint256",
          "name": "nftID",
          "type": "uint256"
        }
      ],
      "name": "addPositionToIndex",
      "outputs": [],
      "stateMutability": "nonpayable",
      "type": "function"
    },
    {
      "inputs": [
        {
          "internalType": "uint32[]",
          "name": "ids",
          "type": "uint32[]"
        }
      ],
      "name": "approveUIs",
      "outputs": [],
      "stateMutability": "nonpayable",
      "type": "function"
    },
    {
      "inputs": [],
      "name": "debt",
      "outputs": [
        {
          "internalType": "uint256",
          "name": "",
          "type": "uint256"
        }
      ],
      "stateMutability": "view",
      "type": "function"
    },
    {
      "inputs": [],
      "name": "debtPositionIndexingEnabled",
      "outputs": [
        {
          "internalType": "bool",
          "name": "",
          "type": "bool"
        }
      ],
      "stateMutability": "view",
      "type": "function"
    },
    {
      "inputs": [
        {
          "internalType": "uint256",
          "name": "count",
          "type": "uint256"
        }
      ],
      "name": "decreaseDebt",
      "outputs": [],
      "stateMutability": "nonpayable",
      "type": "function"
    },
    {
      "inputs": [
        {
          "internalType": "contract IUniswapV3Pool",
          "name": "pool",
          "type": "address"
        },
        {
          "internalType": "uint256",
          "name": "liquidity",
          "type": "uint256"
        }
      ],
      "name": "decreasePoolLiquidity",
      "outputs": [],
      "stateMutability": "nonpayable",
      "type": "function"
    },
    {
      "inputs": [
        {
          "internalType": "uint256",
          "name": "nftID",
          "type": "uint256"
        }
      ],
      "name": "deletePoolPosition",
      "outputs": [],
      "stateMutability": "nonpayable",
      "type": "function"
    },
    {
      "inputs": [],
      "name": "deployer",
      "outputs": [
        {
          "internalType": "address",
          "name": "",
          "type": "address"
        }
      ],
      "stateMutability": "view",
      "type": "function"
    },
    {
      "inputs": [
        {
          "internalType": "uint32[]",
          "name": "ids",
          "type": "uint32[]"
        }
      ],
      "name": "disapproveUIs",
      "outputs": [],
      "stateMutability": "nonpayable",
      "type": "function"
    },
    {
      "inputs": [
        {
          "internalType": "uint64",
          "name": "positionID",
          "type": "uint64"
        }
      ],
      "name": "getBasicPositionInfo",
      "outputs": [
        {
          "internalType": "uint256",
          "name": "debtCount",
          "type": "uint256"
        },
        {
          "internalType": "uint256",
          "name": "collateralCount",
          "type": "uint256"
        }
      ],
      "stateMutability": "view",
      "type": "function"
    },
    {
      "inputs": [
        {
          "internalType": "uint32",
          "name": "start",
          "type": "uint32"
        },
        {
          "internalType": "uint32",
          "name": "end",
          "type": "uint32"
        }
      ],
      "name": "getLockedNFTIDs",
      "outputs": [
        {
          "internalType": "uint256[]",
          "name": "nftIDs",
          "type": "uint256[]"
        }
      ],
      "stateMutability": "view",
      "type": "function"
    },
    {
      "inputs": [
        {
          "internalType": "uint256",
          "name": "nftID",
          "type": "uint256"
        }
      ],
      "name": "getPoolPosition",
      "outputs": [
        {
          "components": [
            {
              "internalType": "address",
              "name": "owner",
              "type": "address"
            },
            {
              "internalType": "uint16",
              "name": "poolID",
              "type": "uint16"
            },
            {
              "internalType": "uint256",
              "name": "cumulativeLiquidity",
              "type": "uint256"
            },
            {
              "internalType": "uint256",
              "name": "totalRewards",
              "type": "uint256"
            },
            {
              "internalType": "uint256",
              "name": "lastBlockPositionIncreased",
              "type": "uint256"
            },
            {
              "internalType": "uint128",
              "name": "liquidity",
              "type": "uint128"
            },
            {
              "internalType": "uint64",
              "name": "lastTimeRewarded",
              "type": "uint64"
            },
            {
              "internalType": "int24",
              "name": "tickLower",
              "type": "int24"
            },
            {
              "internalType": "int24",
              "name": "tickUpper",
              "type": "int24"
            },
            {
              "internalType": "uint32",
              "name": "ui",
              "type": "uint32"
            },
            {
              "internalType": "address",
              "name": "kickbackDestination",
              "type": "address"
            },
            {
              "internalType": "uint64",
              "name": "kickbackPortion",
              "type": "uint64"
            }
          ],
          "internalType": "struct IAccounting.PoolPosition",
          "name": "pp",
          "type": "tuple"
        }
      ],
      "stateMutability": "view",
      "type": "function"
    },
    {
      "inputs": [
        {
          "internalType": "address",
          "name": "owner",
          "type": "address"
        }
      ],
      "name": "getPoolPositionNftIdsByOwner",
      "outputs": [
        {
          "internalType": "uint128[]",
          "name": "",
          "type": "uint128[]"
        }
      ],
      "stateMutability": "view",
      "type": "function"
    },
    {
      "inputs": [
        {
          "internalType": "uint64",
          "name": "positionID",
          "type": "uint64"
        }
      ],
      "name": "getPosition",
      "outputs": [
        {
          "components": [
            {
              "internalType": "uint256",
              "name": "startCumulativeDebt",
              "type": "uint256"
            },
            {
              "internalType": "uint256",
              "name": "collateral",
              "type": "uint256"
            },
            {
              "internalType": "uint256",
              "name": "debt",
              "type": "uint256"
            },
            {
              "internalType": "uint256",
              "name": "startDebtExchangeRate",
              "type": "uint256"
            },
            {
              "internalType": "uint256",
              "name": "startTCPRewards",
              "type": "uint256"
            },
            {
              "internalType": "uint64",
              "name": "lastTimeUpdated",
              "type": "uint64"
            },
            {
              "internalType": "uint64",
              "name": "lastBorrowTime",
              "type": "uint64"
            },
            {
              "internalType": "int24",
              "name": "tick",
              "type": "int24"
            },
            {
              "internalType": "bool",
              "name": "tickSet",
              "type": "bool"
            },
            {
              "internalType": "uint64",
              "name": "tickIndex",
              "type": "uint64"
            },
            {
              "internalType": "uint32",
              "name": "ui",
              "type": "uint32"
            },
            {
              "internalType": "address",
              "name": "kickbackDestination",
              "type": "address"
            },
            {
              "internalType": "uint64",
              "name": "kickbackPortion",
              "type": "uint64"
            }
          ],
          "internalType": "struct IAccounting.DebtPosition",
          "name": "dp",
          "type": "tuple"
        }
      ],
      "stateMutability": "view",
      "type": "function"
    },
    {
      "inputs": [
        {
          "internalType": "uint16",
          "name": "poolID",
          "type": "uint16"
        }
      ],
      "name": "getRewardStatus",
      "outputs": [
        {
          "components": [
            {
              "internalType": "uint256",
              "name": "totalRewards",
              "type": "uint256"
            },
            {
              "internalType": "uint256",
              "name": "cumulativeLiquidity",
              "type": "uint256"
            }
          ],
          "internalType": "struct IAccounting.RewardStatus",
          "name": "",
          "type": "tuple"
        }
      ],
      "stateMutability": "view",
      "type": "function"
    },
    {
      "inputs": [],
      "name": "getSystemDebtInfo",
      "outputs": [
        {
          "components": [
            {
              "internalType": "uint256",
              "name": "debt",
              "type": "uint256"
            },
            {
              "internalType": "uint256",
              "name": "totalTCPRewards",
              "type": "uint256"
            },
            {
              "internalType": "uint256",
              "name": "cumulativeDebt",
              "type": "uint256"
            },
            {
              "internalType": "uint256",
              "name": "debtExchangeRate",
              "type": "uint256"
            }
          ],
          "internalType": "struct IAccounting.SystemDebtInfo",
          "name": "",
          "type": "tuple"
        }
      ],
      "stateMutability": "view",
      "type": "function"
    },
    {
      "inputs": [
        {
          "internalType": "uint256",
          "name": "collateralCount",
          "type": "uint256"
        },
        {
          "internalType": "uint256",
          "name": "debtCount",
          "type": "uint256"
        }
      ],
      "name": "getTick",
      "outputs": [
        {
          "internalType": "int24",
          "name": "",
          "type": "int24"
        }
      ],
      "stateMutability": "pure",
      "type": "function"
    },
    {
      "inputs": [
        {
          "internalType": "uint32",
          "name": "start",
          "type": "uint32"
        },
        {
          "internalType": "uint32",
          "name": "end",
          "type": "uint32"
        }
      ],
      "name": "getUIs",
      "outputs": [
        {
          "components": [
            {
              "internalType": "address",
              "name": "kickbackDestination",
              "type": "address"
            },
            {
              "internalType": "uint64",
              "name": "kickbackPortion",
              "type": "uint64"
            },
            {
              "internalType": "enum IAccounting.UIGovernanceRating",
              "name": "governanceRating",
              "type": "uint8"
            },
            {
              "internalType": "uint24",
              "name": "tags",
              "type": "uint24"
            },
            {
              "internalType": "string",
              "name": "ipfsHash",
              "type": "string"
            }
          ],
          "internalType": "struct IAccounting.UserInterface[]",
          "name": "uis",
          "type": "tuple[]"
        }
      ],
      "stateMutability": "view",
      "type": "function"
    },
    {
      "inputs": [],
      "name": "governor",
      "outputs": [
        {
          "internalType": "contract IGovernor",
          "name": "",
          "type": "address"
        }
      ],
      "stateMutability": "view",
      "type": "function"
    },
    {
      "inputs": [
        {
          "internalType": "uint256",
          "name": "count",
          "type": "uint256"
        }
      ],
      "name": "increaseDebt",
      "outputs": [],
      "stateMutability": "nonpayable",
      "type": "function"
    },
    {
      "inputs": [
        {
          "internalType": "uint256",
          "name": "count",
          "type": "uint256"
        }
      ],
      "name": "increaseLentHue",
      "outputs": [],
      "stateMutability": "nonpayable",
      "type": "function"
    },
    {
      "inputs": [
        {
          "internalType": "contract IUniswapV3Pool",
          "name": "pool",
          "type": "address"
        },
        {
          "internalType": "uint256",
          "name": "liquidity",
          "type": "uint256"
        }
      ],
      "name": "increasePoolLiquidity",
      "outputs": [],
      "stateMutability": "nonpayable",
      "type": "function"
    },
    {
      "inputs": [
        {
          "internalType": "contract IGovernor",
          "name": "_governor",
          "type": "address"
        }
      ],
      "name": "init",
      "outputs": [],
      "stateMutability": "nonpayable",
      "type": "function"
    },
    {
      "inputs": [
        {
          "internalType": "uint256",
          "name": "nftID",
          "type": "uint256"
        },
        {
          "internalType": "address",
          "name": "addressToCheck",
          "type": "address"
        }
      ],
      "name": "isPositionOwner",
      "outputs": [
        {
          "internalType": "bool",
          "name": "",
          "type": "bool"
        }
      ],
      "stateMutability": "view",
      "type": "function"
    },
    {
      "inputs": [],
      "name": "lentHue",
      "outputs": [
        {
          "internalType": "uint256",
          "name": "",
          "type": "uint256"
        }
      ],
      "stateMutability": "view",
      "type": "function"
    },
    {
      "inputs": [],
      "name": "nextUserInterfaceID",
      "outputs": [
        {
          "internalType": "uint32",
          "name": "",
          "type": "uint32"
        }
      ],
      "stateMutability": "view",
      "type": "function"
    },
    {
      "inputs": [
        {
          "internalType": "address",
          "name": "",
          "type": "address"
        },
        {
          "internalType": "address",
          "name": "",
          "type": "address"
        },
        {
          "internalType": "uint256",
          "name": "",
          "type": "uint256"
        },
        {
          "internalType": "bytes",
          "name": "",
          "type": "bytes"
        }
      ],
      "name": "onERC721Received",
      "outputs": [
        {
          "internalType": "bytes4",
          "name": "",
          "type": "bytes4"
        }
      ],
      "stateMutability": "pure",
      "type": "function"
    },
    {
      "inputs": [
        {
          "internalType": "address",
          "name": "newRewards",
          "type": "address"
        }
      ],
      "name": "onRewardsUpgrade",
      "outputs": [],
      "stateMutability": "nonpayable",
      "type": "function"
    },
    {
      "inputs": [
        {
          "internalType": "contract IUniswapV3Pool",
          "name": "",
          "type": "address"
        }
      ],
      "name": "poolLiquidity",
      "outputs": [
        {
          "internalType": "uint256",
          "name": "",
          "type": "uint256"
        }
      ],
      "stateMutability": "view",
      "type": "function"
    },
    {
      "inputs": [
        {
          "internalType": "uint256",
          "name": "",
          "type": "uint256"
        }
      ],
      "name": "poolPosition",
      "outputs": [
        {
          "internalType": "address",
          "name": "owner",
          "type": "address"
        },
        {
          "internalType": "uint16",
          "name": "poolID",
          "type": "uint16"
        },
        {
          "internalType": "uint32",
          "name": "ui",
          "type": "uint32"
        },
        {
          "internalType": "uint256",
          "name": "cumulativeLiquidity",
          "type": "uint256"
        },
        {
          "internalType": "uint176",
          "name": "totalRewards",
          "type": "uint176"
        },
        {
          "internalType": "uint40",
          "name": "lastTimeRewarded",
          "type": "uint40"
        },
        {
          "internalType": "uint40",
          "name": "lastBlockPositionIncreased",
          "type": "uint40"
        }
      ],
      "stateMutability": "view",
      "type": "function"
    },
    {
      "inputs": [],
      "name": "poolPositionIndexingEnabled",
      "outputs": [
        {
          "internalType": "bool",
          "name": "",
          "type": "bool"
        }
      ],
      "stateMutability": "view",
      "type": "function"
    },
    {
      "inputs": [
        {
          "internalType": "uint64[]",
          "name": "positionIDs",
          "type": "uint64[]"
        }
      ],
      "name": "positionsCollateralization",
      "outputs": [
        {
          "internalType": "uint256[]",
          "name": "collateralizations",
          "type": "uint256[]"
        }
      ],
      "stateMutability": "view",
      "type": "function"
    },
    {
      "inputs": [
        {
          "internalType": "int24",
          "name": "tick",
          "type": "int24"
        }
      ],
      "name": "positionsForTick",
      "outputs": [
        {
          "internalType": "uint64[]",
          "name": "",
          "type": "uint64[]"
        }
      ],
      "stateMutability": "view",
      "type": "function"
    },
    {
      "inputs": [
        {
          "internalType": "uint64",
          "name": "kickbackPortion",
          "type": "uint64"
        },
        {
          "internalType": "uint24",
          "name": "tags",
          "type": "uint24"
        },
        {
          "internalType": "string",
          "name": "ipfsHash",
          "type": "string"
        }
      ],
      "name": "registerUI",
      "outputs": [
        {
          "internalType": "uint32",
          "name": "",
          "type": "uint32"
        }
      ],
      "stateMutability": "nonpayable",
      "type": "function"
    },
    {
      "inputs": [
        {
          "internalType": "address payable",
          "name": "dest",
          "type": "address"
        },
        {
          "internalType": "uint256",
          "name": "count",
          "type": "uint256"
        }
      ],
      "name": "sendCollateral",
      "outputs": [],
      "stateMutability": "nonpayable",
      "type": "function"
    },
    {
      "inputs": [
        {
          "internalType": "address",
          "name": "dest",
          "type": "address"
        },
        {
          "internalType": "uint256",
          "name": "count",
          "type": "uint256"
        }
      ],
      "name": "sendLentHue",
      "outputs": [],
      "stateMutability": "nonpayable",
      "type": "function"
    },
    {
      "inputs": [
        {
          "internalType": "uint256",
          "name": "nftID",
          "type": "uint256"
        },
        {
          "components": [
            {
              "internalType": "address",
              "name": "owner",
              "type": "address"
            },
            {
              "internalType": "uint16",
              "name": "poolID",
              "type": "uint16"
            },
            {
              "internalType": "uint256",
              "name": "cumulativeLiquidity",
              "type": "uint256"
            },
            {
              "internalType": "uint256",
              "name": "totalRewards",
              "type": "uint256"
            },
            {
              "internalType": "uint256",
              "name": "lastBlockPositionIncreased",
              "type": "uint256"
            },
            {
              "internalType": "uint128",
              "name": "liquidity",
              "type": "uint128"
            },
            {
              "internalType": "uint64",
              "name": "lastTimeRewarded",
              "type": "uint64"
            },
            {
              "internalType": "int24",
              "name": "tickLower",
              "type": "int24"
            },
            {
              "internalType": "int24",
              "name": "tickUpper",
              "type": "int24"
            },
            {
              "internalType": "uint32",
              "name": "ui",
              "type": "uint32"
            },
            {
              "internalType": "address",
              "name": "kickbackDestination",
              "type": "address"
            },
            {
              "internalType": "uint64",
              "name": "kickbackPortion",
              "type": "uint64"
            }
          ],
          "internalType": "struct IAccounting.PoolPosition",
          "name": "pp",
          "type": "tuple"
        }
      ],
      "name": "setPoolPosition",
      "outputs": [],
      "stateMutability": "nonpayable",
      "type": "function"
    },
    {
      "inputs": [
        {
          "internalType": "uint64",
          "name": "positionID",
          "type": "uint64"
        },
        {
          "components": [
            {
              "internalType": "uint256",
              "name": "startCumulativeDebt",
              "type": "uint256"
            },
            {
              "internalType": "uint256",
              "name": "collateral",
              "type": "uint256"
            },
            {
              "internalType": "uint256",
              "name": "debt",
              "type": "uint256"
            },
            {
              "internalType": "uint256",
              "name": "startDebtExchangeRate",
              "type": "uint256"
            },
            {
              "internalType": "uint256",
              "name": "startTCPRewards",
              "type": "uint256"
            },
            {
              "internalType": "uint64",
              "name": "lastTimeUpdated",
              "type": "uint64"
            },
            {
              "internalType": "uint64",
              "name": "lastBorrowTime",
              "type": "uint64"
            },
            {
              "internalType": "int24",
              "name": "tick",
              "type": "int24"
            },
            {
              "internalType": "bool",
              "name": "tickSet",
              "type": "bool"
            },
            {
              "internalType": "uint64",
              "name": "tickIndex",
              "type": "uint64"
            },
            {
              "internalType": "uint32",
              "name": "ui",
              "type": "uint32"
            },
            {
              "internalType": "address",
              "name": "kickbackDestination",
              "type": "address"
            },
            {
              "internalType": "uint64",
              "name": "kickbackPortion",
              "type": "uint64"
            }
          ],
          "internalType": "struct IAccounting.DebtPosition",
          "name": "dp",
          "type": "tuple"
        }
      ],
      "name": "setPosition",
      "outputs": [],
      "stateMutability": "nonpayable",
      "type": "function"
    },
    {
      "inputs": [
        {
          "internalType": "uint16",
          "name": "poolID",
          "type": "uint16"
        },
        {
          "components": [
            {
              "internalType": "uint256",
              "name": "totalRewards",
              "type": "uint256"
            },
            {
              "internalType": "uint256",
              "name": "cumulativeLiquidity",
              "type": "uint256"
            }
          ],
          "internalType": "struct IAccounting.RewardStatus",
          "name": "rs",
          "type": "tuple"
        }
      ],
      "name": "setRewardStatus",
      "outputs": [],
      "stateMutability": "nonpayable",
      "type": "function"
    },
    {
      "inputs": [
        {
          "components": [
            {
              "internalType": "uint256",
              "name": "debt",
              "type": "uint256"
            },
            {
              "internalType": "uint256",
              "name": "totalTCPRewards",
              "type": "uint256"
            },
            {
              "internalType": "uint256",
              "name": "cumulativeDebt",
              "type": "uint256"
            },
            {
              "internalType": "uint256",
              "name": "debtExchangeRate",
              "type": "uint256"
            }
          ],
          "internalType": "struct IAccounting.SystemDebtInfo",
          "name": "_sdi",
          "type": "tuple"
        }
      ],
      "name": "setSystemDebtInfo",
      "outputs": [],
      "stateMutability": "nonpayable",
      "type": "function"
    },
    {
      "inputs": [
        {
          "internalType": "int24",
          "name": "rawTick",
          "type": "int24"
        },
        {
          "internalType": "int24",
          "name": "tickSpacing",
          "type": "int24"
        }
      ],
      "name": "snapRawTickToSpacing",
      "outputs": [
        {
          "internalType": "int24",
          "name": "",
          "type": "int24"
        }
      ],
      "stateMutability": "pure",
      "type": "function"
    },
    {
      "inputs": [],
      "name": "stopIndexingDebtPositions",
      "outputs": [],
      "stateMutability": "nonpayable",
      "type": "function"
    },
    {
      "inputs": [],
      "name": "stopIndexingPoolPositions",
      "outputs": [],
      "stateMutability": "nonpayable",
      "type": "function"
    },
    {
      "inputs": [],
      "name": "stopped",
      "outputs": [
        {
          "internalType": "bool",
          "name": "",
          "type": "bool"
        }
      ],
      "stateMutability": "view",
      "type": "function"
    },
    {
      "inputs": [],
      "name": "sweepHue",
      "outputs": [],
      "stateMutability": "nonpayable",
      "type": "function"
    },
    {
      "inputs": [
        {
          "internalType": "uint256",
          "name": "",
          "type": "uint256"
        }
      ],
      "name": "userInterfaces",
      "outputs": [
        {
          "internalType": "address",
          "name": "kickbackDestination",
          "type": "address"
        },
        {
          "internalType": "uint64",
          "name": "kickbackPortion",
          "type": "uint64"
        },
        {
          "internalType": "enum IAccounting.UIGovernanceRating",
          "name": "governanceRating",
          "type": "uint8"
        },
        {
          "internalType": "uint24",
          "name": "tags",
          "type": "uint24"
        },
        {
          "internalType": "string",
          "name": "ipfsHash",
          "type": "string"
        }
      ],
      "stateMutability": "view",
      "type": "function"
    },
    {
      "inputs": [
        {
          "internalType": "bytes4",
          "name": "",
          "type": "bytes4"
        }
      ],
      "name": "validUpdate",
      "outputs": [
        {
          "internalType": "bool",
          "name": "",
          "type": "bool"
        }
      ],
      "stateMutability": "view",
      "type": "function"
    },
    {
      "stateMutability": "payable",
      "type": "receive"
    }
  ],
  "bytecode": "0x60a0604052600160066000509090556001600860006101000a81548160ff0219169083151502179055506001600860016101000a81548160ff0219169083151502179055506001601260006101000a81548163ffffffff021916908363ffffffff160217905550348015620000745760006000fd5b506040516200827a3803806200827a83398181016040528101906200009a919062000129565b5b805b5b33600160006101000a81548173ffffffffffffffffffffffffffffffffffffffff021916908373ffffffffffffffffffffffffffffffffffffffff1602179055505b8073ffffffffffffffffffffffffffffffffffffffff1660808173ffffffffffffffffffffffffffffffffffffffff1660601b815260140150505b505b5062000160566200015f565b6000602082840312156200013b578081fd5b81516001600160a01b0381168114151562000154578182fd5b809150505b92915050565b5b60805160601c6180f26200018860003980612b965280613802528061549052506180f26000f3fe6080604052600436106103225760003560e01c8063602db56b116101a5578063b241bbac116100ec578063d5f3948811610095578063e2b1e9e31161006f578063e2b1e9e314610ca4578063f34348f114610cd0578063f709960714610d0e578063fd9c749214610d3857610403565b8063d5f3948814610bfc578063d99f572614610c28578063dd88486314610c6657610403565b8063c3c837ba116100c6578063c3c837ba14610b42578063c7711db414610b80578063d159b4ae14610bbe57610403565b8063b241bbac14610ac2578063b87e8d5814610aec578063bdb2a49614610b2a57610403565b80637f250c611161014e578063a04ebaec11610128578063a04ebaec14610a1c578063a135ef1714610a5a578063a678f33614610a9857610403565b80637f250c6114610982578063816aaa25146109ae57806384eb7b93146109d857610403565b806375ea13ca1161017f57806375ea13ca1461090257806375f12b211461092c57806378efc6b01461095857610403565b8063602db56b1461088157806362502169146108995780636594da9f146108c357610403565b8063230173e011610269578063461054a311610212578063530c1ccb116101ec578063530c1ccb146107ef5780635a6beaf4146108195780635e016b901461084357610403565b8063461054a31461076d57806346ca626b1461078557806351ad51f7146107b157610403565b80632b7c7b11116102435780632b7c7b11146106ef5780632c73f09e14610719578063397d35921461074357610403565b8063230173e01461067157806326879a4e1461069b5780632a7ba1f7146106c557610403565b8063113cf1ab116102cb57806318a15e79116102a557806318a15e79146105c757806319ab453c146106095780631a206e911461063357610403565b8063113cf1ab146105215780631428561d1461055f578063150b7a021461058957610403565b80630c340a24116102fc5780630c340a241461048b5780630dca59c1146104b75780630f85fc5a146104e357610403565b806306ef2d8014610409578063092a26c3146104355780630b218d241461046157610403565b36610403575b600060009054906101000a900473ffffffffffffffffffffffffffffffffffffffff1673ffffffffffffffffffffffffffffffffffffffff166380f556056040518163ffffffff1660e01b815260040160206040518083038186803b1580156103915760006000fd5b505afa1580156103a6573d600060003e3d6000fd5b505050506040513d601f19601f820116820180604052508101906103ca9190616fe1565b73ffffffffffffffffffffffffffffffffffffffff163373ffffffffffffffffffffffffffffffffffffffff1614151561040057fe5b5b005b60006000fd5b3480156104165760006000fd5b5061041f610d64565b60405161042c9190617f7d565b60405180910390f35b3480156104425760006000fd5b5061044b610d84565b6040516104589190617be9565b60405180910390f35b34801561046e5760006000fd5b5061048960048036038101906104849190616dc9565b610d97565b005b3480156104985760006000fd5b506104a1610e59565b6040516104ae9190617c31565b60405180910390f35b3480156104c45760006000fd5b506104cd610e7f565b6040516104da9190617fae565b60405180910390f35b3480156104f05760006000fd5b5061050b60048036038101906105069190617403565b610ec2565b6040516105189190617da9565b60405180910390f35b34801561052e5760006000fd5b5061054960048036038101906105449190616f1f565b610fe1565b6040516105569190617be9565b60405180910390f35b34801561056c5760006000fd5b506105876004803603810190610582919061707d565b611006565b005b3480156105965760006000fd5b506105b160048036038101906105ac9190616cf2565b6111a9565b6040516105be9190617bfd565b60405180910390f35b3480156105d45760006000fd5b506105ef60048036038101906105ea9190617222565b6111ef565b604051610600959493929190617941565b60405180910390f35b3480156106165760006000fd5b50610631600480360381019061062c9190616f93565b611313565b005b3480156106405760006000fd5b5061065b6004803603810190610656919061725a565b611725565b6040516106689190617be9565b60405180910390f35b34801561067e5760006000fd5b5061069960048036038101906106949190616d98565b61179f565b005b3480156106a85760006000fd5b506106c360048036038101906106be9190617222565b6117b4565b005b3480156106d25760006000fd5b506106ed60048036038101906106e89190617222565b611a28565b005b3480156106fc5760006000fd5b5061071760048036038101906107129190617222565b611aee565b005b3480156107265760006000fd5b50610741600480360381019061073c9190617222565b611c84565b005b3480156107505760006000fd5b5061076b60048036038101906107669190616dc9565b611da6565b005b34801561077a5760006000fd5b50610783611e68565b005b3480156107925760006000fd5b5061079b611ec1565b6040516107a89190617c59565b60405180910390f35b3480156107be5760006000fd5b506107d960048036038101906107d49190617171565b611ec6565b6040516107e69190617f60565b60405180910390f35b3480156107fc5760006000fd5b506108176004803603810190610812919061707d565b611f23565b005b3480156108265760006000fd5b50610841600480360381019061083c9190617426565b6120c6565b005b3480156108505760006000fd5b5061086b60048036038101906108669190616e74565b6122c1565b6040516108789190617aef565b60405180910390f35b34801561088e5760006000fd5b50610897612496565b005b3480156108a65760006000fd5b506108c160048036038101906108bc9190616cc1565b6124ef565b005b3480156108d05760006000fd5b506108eb60048036038101906108e69190617403565b612567565b6040516108f9929190617fc0565b60405180910390f35b34801561090f5760006000fd5b5061092a60048036038101906109259190616d98565b6126fa565b005b3480156109395760006000fd5b50610942612808565b60405161094f9190617be9565b60405180910390f35b3480156109655760006000fd5b50610980600480360381019061097b9190617111565b61281b565b005b34801561098f5760006000fd5b50610998612929565b6040516109a59190617fae565b60405180910390f35b3480156109bb5760006000fd5b506109d660048036038101906109d1919061728b565b612932565b005b3480156109e55760006000fd5b50610a0060048036038101906109fb9190617222565b612a42565b604051610a1397969594939291906178c2565b60405180910390f35b348015610a295760006000fd5b50610a446004803603810190610a3f91906173cf565b612b0c565b604051610a519190617aef565b60405180910390f35b348015610a675760006000fd5b50610a826004803603810190610a7d9190617056565b612c79565b604051610a8f9190617fae565b60405180910390f35b348015610aa55760006000fd5b50610ac06004803603810190610abb9190616c9a565b612c94565b005b348015610acf5760006000fd5b50610aea6004803603810190610ae59190616d98565b612cb6565b005b348015610af95760006000fd5b50610b146004803603810190610b0f9190616c9a565b612e0c565b604051610b219190617a8f565b60405180910390f35b348015610b375760006000fd5b50610b40612e6f565b005b348015610b4f5760006000fd5b50610b6a6004803603810190610b6591906173cf565b612fa7565b604051610b7791906179a5565b60405180910390f35b348015610b8d5760006000fd5b50610ba86004803603810190610ba391906170ae565b613216565b604051610bb59190617b91565b60405180910390f35b348015610bcb5760006000fd5b50610be66004803603810190610be191906173a9565b6132d6565b604051610bf39190617c59565b60405180910390f35b348015610c095760006000fd5b50610c12613393565b604051610c1f919061780c565b60405180910390f35b348015610c355760006000fd5b50610c506004803603810190610c4b91906170d5565b6133b9565b604051610c5d9190617c59565b60405180910390f35b348015610c735760006000fd5b50610c8e6004803603810190610c899190617551565b61342a565b604051610c9b9190617fd9565b60405180910390f35b348015610cb15760006000fd5b50610cba61368b565b604051610cc79190617fd9565b60405180910390f35b348015610cdd5760006000fd5b50610cf86004803603810190610cf39190617222565b6136a1565b604051610d059190617e87565b60405180910390f35b348015610d1b5760006000fd5b50610d366004803603810190610d319190617194565b613949565b005b348015610d455760006000fd5b50610d4e613a8c565b604051610d5b9190617be9565b60405180910390f35b610d6c6168a7565b610d7a613a9f63ffffffff16565b9050610d81565b90565b600860009054906101000a900460ff1681565b610da5613c1f63ffffffff16565b6000600090505b8151811015610e1c576002601360005060008484815181101515610dcc57fe5b602002602001015163ffffffff168152602001908152602001600020600050600001601c6101000a81548160ff02191690836002811115610e0957fe5b02179055505b8080600101915050610dac565b507f7264e0084cbb7692193b834f40153b973ff4f827f8ed45da32ae6d8e486bb0c781604051610e4c9190617b3d565b60405180910390a15b5b50565b600060009054906101000a900473ffffffffffffffffffffffffffffffffffffffff1681565b6000600b60005060010160009054906101000a90046fffffffffffffffffffffffffffffffff166fffffffffffffffffffffffffffffffff169050610ebf565b90565b610eca6168d2565b610ed982613cb463ffffffff16565b90508050600081610140015163ffffffff161115610fd4576013600050600082610140015163ffffffff16815260200190815260200160002060005060000160009054906101000a900473ffffffffffffffffffffffffffffffffffffffff1681610160019073ffffffffffffffffffffffffffffffffffffffff16908173ffffffffffffffffffffffffffffffffffffffff16815260200150506013600050600082610140015163ffffffff16815260200190815260200160002060005060000160149054906101000a900467ffffffffffffffff1681610180019067ffffffffffffffff16908167ffffffffffffffff16815260200150505b809050610fdc565b919050565b600560005060205280600052604060002060009150909054906101000a900460ff1681565b61101461405063ffffffff16565b6110f2600060009054906101000a900473ffffffffffffffffffffffffffffffffffffffff1673ffffffffffffffffffffffffffffffffffffffff16639ec5a8946040518163ffffffff1660e01b815260040160206040518083038186803b1580156110805760006000fd5b505afa158015611095573d600060003e3d6000fd5b505050506040513d601f19601f820116820180604052508101906110b9919061702f565b73ffffffffffffffffffffffffffffffffffffffff163373ffffffffffffffffffffffffffffffffffffffff16146140ab63ffffffff16565b61114a81601060005060008573ffffffffffffffffffffffffffffffffffffffff1673ffffffffffffffffffffffffffffffffffffffff168152602001908152602001600020600050546140f190919063ffffffff16565b601060005060008473ffffffffffffffffffffffffffffffffffffffff1673ffffffffffffffffffffffffffffffffffffffff1681526020019081526020016000206000508190909055505b6111a461417a63ffffffff16565b5b5050565b60006040517f08c379a00000000000000000000000000000000000000000000000000000000081526004016111dd90617d2b565b60405180910390fd5b95945050505050565b60136000506020528060005260406000206000915090508060000160009054906101000a900473ffffffffffffffffffffffffffffffffffffffff16908060000160149054906101000a900467ffffffffffffffff169080600001601c9054906101000a900460ff169080600001601d9054906101000a900462ffffff1690806001016000508054600181600116156101000203166002900480601f0160208091040260200160405190810160405280929190818152602001828054600181600116156101000203166002900480156113095780601f106112de57610100808354040283529160200191611309565b820191906000526020600020905b8154815290600101906020018083116112ec57829003601f168201915b5050505050905085565b600160009054906101000a900473ffffffffffffffffffffffffffffffffffffffff1673ffffffffffffffffffffffffffffffffffffffff163373ffffffffffffffffffffffffffffffffffffffff161415156113705760006000fd5b600160159054906101000a900460ff1615151561138d5760006000fd5b80600060006101000a81548173ffffffffffffffffffffffffffffffffffffffff021916908373ffffffffffffffffffffffffffffffffffffffff160217905550600060009054906101000a900473ffffffffffffffffffffffffffffffffffffffff1673ffffffffffffffffffffffffffffffffffffffff16639624e83e6040518163ffffffff1660e01b815260040160206040518083038186803b1580156114375760006000fd5b505afa15801561144c573d600060003e3d6000fd5b505050506040513d601f19601f820116820180604052508101906114709190616f6c565b600260006101000a81548173ffffffffffffffffffffffffffffffffffffffff021916908373ffffffffffffffffffffffffffffffffffffffff160217905550600060009054906101000a900473ffffffffffffffffffffffffffffffffffffffff1673ffffffffffffffffffffffffffffffffffffffff1663323741746040518163ffffffff1660e01b815260040160206040518083038186803b1580156115195760006000fd5b505afa15801561152e573d600060003e3d6000fd5b505050506040513d601f19601f820116820180604052508101906115529190616fba565b600360006101000a81548173ffffffffffffffffffffffffffffffffffffffff021916908373ffffffffffffffffffffffffffffffffffffffff160217905550600060009054906101000a900473ffffffffffffffffffffffffffffffffffffffff1673ffffffffffffffffffffffffffffffffffffffff1663d478b0876040518163ffffffff1660e01b815260040160206040518083038186803b1580156115fb5760006000fd5b505afa158015611610573d600060003e3d6000fd5b505050506040513d601f19601f820116820180604052508101906116349190617008565b600460006101000a81548173ffffffffffffffffffffffffffffffffffffffff021916908373ffffffffffffffffffffffffffffffffffffffff16021790555061168261418a63ffffffff16565b600160149054906101000a900460ff1615156116c257600160006101000a81549073ffffffffffffffffffffffffffffffffffffffff02191690556116de565b6001600160156101000a81548160ff0219169083151502179055505b8073ffffffffffffffffffffffffffffffffffffffff167f908408e307fc569b417f6cbec5d5a06f44a0a505ac0479b47d421a4b2fd6a1e660405160405180910390a25b50565b60008173ffffffffffffffffffffffffffffffffffffffff16600f600050600085815260200190815260200160002060005060000160009054906101000a900473ffffffffffffffffffffffffffffffffffffffff1673ffffffffffffffffffffffffffffffffffffffff16149050611799565b92915050565b6117af828261446463ffffffff16565b5b5050565b6117c261405063ffffffff16565b6118a0600060009054906101000a900473ffffffffffffffffffffffffffffffffffffffff1673ffffffffffffffffffffffffffffffffffffffff16639ec5a8946040518163ffffffff1660e01b815260040160206040518083038186803b15801561182e5760006000fd5b505afa158015611843573d600060003e3d6000fd5b505050506040513d601f19601f82011682018060405250810190611867919061702f565b73ffffffffffffffffffffffffffffffffffffffff163373ffffffffffffffffffffffffffffffffffffffff16146140ab63ffffffff16565b6119436118b4826144d1909063ffffffff16565b60116000506000600f600050600086815260200190815260200160002060005060000160009054906101000a900473ffffffffffffffffffffffffffffffffffffffff1673ffffffffffffffffffffffffffffffffffffffff1673ffffffffffffffffffffffffffffffffffffffff16815260200190815260200160002060005061456b90919063ffffffff16565b50600f600050600082815260200190815260200160002060006000820160006101000a81549073ffffffffffffffffffffffffffffffffffffffff02191690556000820160146101000a81549061ffff02191690556000820160166101000a81549063ffffffff021916905560018201600050600090556002820160006101000a81549075ffffffffffffffffffffffffffffffffffffffffffff02191690556002820160166101000a81549064ffffffffff021916905560028201601b6101000a81549064ffffffffff021916905550505b611a2461417a63ffffffff16565b5b50565b611a3661405063ffffffff16565b611a4461478263ffffffff16565b611a9d611a9082600b60005060010160009054906101000a90046fffffffffffffffffffffffffffffffff166fffffffffffffffffffffffffffffffff1661481290919063ffffffff16565b6144d1909063ffffffff16565b600b60005060010160006101000a8154816fffffffffffffffffffffffffffffffff02191690836fffffffffffffffffffffffffffffffff1602179055505b611aea61417a63ffffffff16565b5b50565b611afc61405063ffffffff16565b611bda600060009054906101000a900473ffffffffffffffffffffffffffffffffffffffff1673ffffffffffffffffffffffffffffffffffffffff166380f556056040518163ffffffff1660e01b815260040160206040518083038186803b158015611b685760006000fd5b505afa158015611b7d573d600060003e3d6000fd5b505050506040513d601f19601f82011682018060405250810190611ba19190616fe1565b73ffffffffffffffffffffffffffffffffffffffff163373ffffffffffffffffffffffffffffffffffffffff16146140ab63ffffffff16565b611c33611c2682600b60005060010160009054906101000a90046fffffffffffffffffffffffffffffffff166fffffffffffffffffffffffffffffffff166140f190919063ffffffff16565b6144d1909063ffffffff16565b600b60005060010160006101000a8154816fffffffffffffffffffffffffffffffff02191690836fffffffffffffffffffffffffffffffff1602179055505b611c8061417a63ffffffff16565b5b50565b611c9261405063ffffffff16565b611d70600060009054906101000a900473ffffffffffffffffffffffffffffffffffffffff1673ffffffffffffffffffffffffffffffffffffffff166380f556056040518163ffffffff1660e01b815260040160206040518083038186803b158015611cfe5760006000fd5b505afa158015611d13573d600060003e3d6000fd5b505050506040513d601f19601f82011682018060405250810190611d379190616fe1565b73ffffffffffffffffffffffffffffffffffffffff163373ffffffffffffffffffffffffffffffffffffffff16146140ab63ffffffff16565b611d8881600a600050546140f190919063ffffffff16565b600a6000508190909055505b611da261417a63ffffffff16565b5b50565b611db4613c1f63ffffffff16565b6000600090505b8151811015611e2b576001601360005060008484815181101515611ddb57fe5b602002602001015163ffffffff168152602001908152602001600020600050600001601c6101000a81548160ff02191690836002811115611e1857fe5b02179055505b8080600101915050611dbb565b507f2e54370527117fb69828eac075cb3ed33fe59712134dfd3ef6efc9bd8b60c1ec81604051611e5b9190617b3d565b60405180910390a15b5b50565b611e76613c1f63ffffffff16565b6000600860006101000a81548160ff0219169083151502179055507f262b602ad12e3e551a407d5246b500f4ca5a01cc76bbf03e925db643a62a692f60405160405180910390a15b5b565b60c881565b611ece616986565b600e60005060008361ffff1661ffff168152602001908152602001600020600050604051806040016040529081600082016000505481526020016001820160005054815260200150509050611f1e565b919050565b611f3161405063ffffffff16565b61200f600060009054906101000a900473ffffffffffffffffffffffffffffffffffffffff1673ffffffffffffffffffffffffffffffffffffffff16639ec5a8946040518163ffffffff1660e01b815260040160206040518083038186803b158015611f9d5760006000fd5b505afa158015611fb2573d600060003e3d6000fd5b505050506040513d601f19601f82011682018060405250810190611fd6919061702f565b73ffffffffffffffffffffffffffffffffffffffff163373ffffffffffffffffffffffffffffffffffffffff16146140ab63ffffffff16565b61206781601060005060008573ffffffffffffffffffffffffffffffffffffffff1673ffffffffffffffffffffffffffffffffffffffff1681526020019081526020016000206000505461481290919063ffffffff16565b601060005060008473ffffffffffffffffffffffffffffffffffffffff1673ffffffffffffffffffffffffffffffffffffffff1681526020019081526020016000206000508190909055505b6120c161417a63ffffffff16565b5b5050565b6120d461405063ffffffff16565b6120e261478263ffffffff16565b600860009054906101000a900460ff168015612109575060008267ffffffffffffffff1614155b156121235761211e828261489b63ffffffff16565b905080505b6000816020015114801561213b575060008160400151145b1561229c57600760005060008367ffffffffffffffff1667ffffffffffffffff168152602001908152602001600020600060008201600050600090556001820160006101000a8154906fffffffffffffffffffffffffffffffff02191690556001820160106101000a8154906fffffffffffffffffffffffffffffffff02191690556002820160006101000a8154906fffffffffffffffffffffffffffffffff02191690556002820160106101000a8154906fffffffffffffffffffffffffffffffff02191690556003820160006101000a81549067ffffffffffffffff02191690556003820160086101000a81549067ffffffffffffffff02191690556003820160106101000a81549062ffffff02191690556003820160136101000a81549060ff02191690556003820160146101000a81549067ffffffffffffffff021916905560038201601c6101000a81549063ffffffff021916905550506122ad565b6122ac8282614c5663ffffffff16565b5b5b6122bc61417a63ffffffff16565b5b5050565b6060815167ffffffffffffffff811180156122dc5760006000fd5b5060405190808252806020026020018201604052801561230b5781602001602082028036833780820191505090505b509050805060006000600b60005060010160109054906101000a90046fffffffffffffffffffffffffffffffff166fffffffffffffffffffffffffffffffff1690506000600090505b845181101561248d5760076000506000868381518110151561237257fe5b602002602001015167ffffffffffffffff1667ffffffffffffffff1681526020019081526020016000206000509250825061246061241f838560020160009054906101000a90046fffffffffffffffffffffffffffffffff166fffffffffffffffffffffffffffffffff168660010160109054906101000a90046fffffffffffffffffffffffffffffffff166fffffffffffffffffffffffffffffffff16614fc49092919063ffffffff16565b8460010160009054906101000a90046fffffffffffffffffffffffffffffffff166fffffffffffffffffffffffffffffffff166150c590919063ffffffff16565b848281518110151561246e57fe5b60200260200101909081815260200150505b8080600101915050612354565b5050505b919050565b6124a4613c1f63ffffffff16565b6000600860016101000a81548160ff0219169083151502179055507fc4f6661464541d662c51191d4da5a7a1cc8bca2631698fd030e21b52520a549c60405160405180910390a15b5b565b6124fd61405063ffffffff16565b61250b61478263ffffffff16565b8173ffffffffffffffffffffffffffffffffffffffff166108fc829081150290604051600060405180830381858888f19350505050158015612552573d600060003e3d6000fd5b505b61256261417a63ffffffff16565b5b5050565b60006000600760005060008467ffffffffffffffff1667ffffffffffffffff16815260200190815260200160002060005060010160109054906101000a90046fffffffffffffffffffffffffffffffff166fffffffffffffffffffffffffffffffff1691508150600760005060008467ffffffffffffffff1667ffffffffffffffff16815260200190815260200160002060005060010160009054906101000a90046fffffffffffffffffffffffffffffffff166fffffffffffffffffffffffffffffffff16905080506000600760005060008567ffffffffffffffff1667ffffffffffffffff16815260200190815260200160002060005060020160009054906101000a90046fffffffffffffffffffffffffffffffff166fffffffffffffffffffffffffffffffff1690506000600b60005060010160109054906101000a90046fffffffffffffffffffffffffffffffff166fffffffffffffffffffffffffffffffff16905080821415156126f2576126ed818386614fc49092919063ffffffff16565b935083505b50505b915091565b600860019054906101000a900460ff16151561271557612804565b6127f3600060009054906101000a900473ffffffffffffffffffffffffffffffffffffffff1673ffffffffffffffffffffffffffffffffffffffff16639ec5a8946040518163ffffffff1660e01b815260040160206040518083038186803b1580156127815760006000fd5b505afa158015612796573d600060003e3d6000fd5b505050506040513d601f19601f820116820180604052508101906127ba919061702f565b73ffffffffffffffffffffffffffffffffffffffff163373ffffffffffffffffffffffffffffffffffffffff16146140ab63ffffffff16565b612803828261446463ffffffff16565b5b5050565b600060149054906101000a900460ff1681565b61282961405063ffffffff16565b612907600060009054906101000a900473ffffffffffffffffffffffffffffffffffffffff1673ffffffffffffffffffffffffffffffffffffffff166380f556056040518163ffffffff1660e01b815260040160206040518083038186803b1580156128955760006000fd5b505afa1580156128aa573d600060003e3d6000fd5b505050506040513d601f19601f820116820180604052508101906128ce9190616fe1565b73ffffffffffffffffffffffffffffffffffffffff163373ffffffffffffffffffffffffffffffffffffffff16146140ab63ffffffff16565b612916816150eb63ffffffff16565b5b61292561417a63ffffffff16565b5b50565b600a6000505481565b61294061405063ffffffff16565b612a1e600060009054906101000a900473ffffffffffffffffffffffffffffffffffffffff1673ffffffffffffffffffffffffffffffffffffffff16639ec5a8946040518163ffffffff1660e01b815260040160206040518083038186803b1580156129ac5760006000fd5b505afa1580156129c1573d600060003e3d6000fd5b505050506040513d601f19601f820116820180604052508101906129e5919061702f565b73ffffffffffffffffffffffffffffffffffffffff163373ffffffffffffffffffffffffffffffffffffffff16146140ab63ffffffff16565b612a2e828261525d63ffffffff16565b5b612a3d61417a63ffffffff16565b5b5050565b600f6000506020528060005260406000206000915090508060000160009054906101000a900473ffffffffffffffffffffffffffffffffffffffff16908060000160149054906101000a900461ffff16908060000160169054906101000a900463ffffffff16908060010160005054908060020160009054906101000a900475ffffffffffffffffffffffffffffffffffffffffffff16908060020160169054906101000a900464ffffffffff169080600201601b9054906101000a900464ffffffffff16905087565b60608163ffffffff168363ffffffff16101515612b295760006000fd5b82820363ffffffff1667ffffffffffffffff81118015612b495760006000fd5b50604051908082528060200260200182016040528015612b785781602001602082028036833780820191505090505b509050805060005b8263ffffffff168463ffffffff161015612c71577f000000000000000000000000000000000000000000000000000000000000000073ffffffffffffffffffffffffffffffffffffffff16632f745c5930868060010197506040518363ffffffff1660e01b8152600401612bf592919061785c565b60206040518083038186803b158015612c0e5760006000fd5b505afa158015612c23573d600060003e3d6000fd5b505050506040513d601f19601f82011682018060405250810190612c47919061723e565b8282806001019350815181101515612c5b57fe5b6020026020010190908181526020015050612b80565b505b92915050565b60106000506020528060005260406000206000915090505481565b612ca2613c1f63ffffffff16565b612cb18161548e63ffffffff16565b5b5b50565b612cc461405063ffffffff16565b612da2600060009054906101000a900473ffffffffffffffffffffffffffffffffffffffff1673ffffffffffffffffffffffffffffffffffffffff166380f556056040518163ffffffff1660e01b815260040160206040518083038186803b158015612d305760006000fd5b505afa158015612d45573d600060003e3d6000fd5b505050506040513d601f19601f82011682018060405250810190612d699190616fe1565b73ffffffffffffffffffffffffffffffffffffffff163373ffffffffffffffffffffffffffffffffffffffff16146140ab63ffffffff16565b612dba81600a6000505461481290919063ffffffff16565b600a600050819090905550612df8600360009054906101000a900473ffffffffffffffffffffffffffffffffffffffff16838361552263ffffffff16565b5b612e0761417a63ffffffff16565b5b5050565b6060612e63601160005060008473ffffffffffffffffffffffffffffffffffffffff1673ffffffffffffffffffffffffffffffffffffffff16815260200190815260200160002060005061572e909063ffffffff16565b9050612e6a565b919050565b612e7d61405063ffffffff16565b612f95600360009054906101000a900473ffffffffffffffffffffffffffffffffffffffff16600360009054906101000a900473ffffffffffffffffffffffffffffffffffffffff16612f8a600a60005054600360009054906101000a900473ffffffffffffffffffffffffffffffffffffffff1673ffffffffffffffffffffffffffffffffffffffff166370a08231306040518263ffffffff1660e01b8152600401612f2a9190617834565b60206040518083038186803b158015612f435760006000fd5b505afa158015612f58573d600060003e3d6000fd5b505050506040513d601f19601f82011682018060405250810190612f7c919061723e565b61481290919063ffffffff16565b61552263ffffffff16565b5b612fa461417a63ffffffff16565b5b565b60608163ffffffff168363ffffffff16101515612fc45760006000fd5b82820363ffffffff1667ffffffffffffffff81118015612fe45760006000fd5b5060405190808252806020026020018201604052801561301e57816020015b61300b6169a3565b8152602001906001900390816130035790505b509050805060005b8263ffffffff168463ffffffff16101561320e57601360005060008580600101965063ffffffff1681526020019081526020016000206000506040518060a00160405290816000820160009054906101000a900473ffffffffffffffffffffffffffffffffffffffff1673ffffffffffffffffffffffffffffffffffffffff1673ffffffffffffffffffffffffffffffffffffffff1681526020016000820160149054906101000a900467ffffffffffffffff1667ffffffffffffffff1667ffffffffffffffff16815260200160008201601c9054906101000a900460ff16600281111561311057fe5b600281111561311b57fe5b815260200160008201601d9054906101000a900462ffffff1662ffffff1662ffffff168152602001600182016000508054600181600116156101000203166002900480601f0160208091040260200160405190810160405280929190818152602001828054600181600116156101000203166002900480156131de5780601f106131b3576101008083540402835291602001916131de565b820191906000526020600020905b8154815290600101906020018083116131c157829003601f168201915b50505050508152602001505082828060010193508151811015156131fe57fe5b6020026020010181905250613026565b505b92915050565b6060600960005060006132308460c86133b963ffffffff16565b60020b60020b81526020019081526020016000206000508054806020026020016040519081016040528092919081815260200182805480156132c557602002820191906000526020600020906000905b82829054906101000a900467ffffffffffffffff1667ffffffffffffffff16815260200190600801906020826007010492830192600103820291508084116132805790505b505050505090506132d1565b919050565b600060008314806132e75750600082145b156132f757627fffff905061338d565b60006133346133298461331b670de0b6b3a7640000886157d490919063ffffffff16565b6150c590919063ffffffff16565b61587263ffffffff16565b905061338461337761336c61335f6c01000000000000000000000000856158e590919063ffffffff16565b61590b909063ffffffff16565b6159a963ffffffff16565b60c86133b963ffffffff16565b91505061338d56505b92915050565b600160009054906101000a900473ffffffffffffffffffffffffffffffffffffffff1681565b600060008360020b905060008360020b828115156133d357fe5b07905060008114156133e9578492505050613424565b600060008313613400578460020b82840303613404565b8183035b905061341781615dbd909063ffffffff16565b9350505050613424565050505b92915050565b600061343a61405063ffffffff16565b6703782dace9d9000067ffffffffffffffff168467ffffffffffffffff161115151561349b576040517f08c379a000000000000000000000000000000000000000000000000000000000815260040161349290617d6a565b60405180910390fd5b63ffffffff63ffffffff16601260009054906101000a900463ffffffff1663ffffffff161015156134cc5760006000fd5b60006012600081819054906101000a900463ffffffff168092919060010191906101000a81548163ffffffff021916908363ffffffff16021790555090506040518060a001604052803373ffffffffffffffffffffffffffffffffffffffff1681526020018667ffffffffffffffff1681526020016000600281111561354e57fe5b81526020018562ffffff16815260200184815260200150601360005060008363ffffffff16815260200190815260200160002060005060008201518160000160006101000a81548173ffffffffffffffffffffffffffffffffffffffff021916908373ffffffffffffffffffffffffffffffffffffffff16021790555060208201518160000160146101000a81548167ffffffffffffffff021916908367ffffffffffffffff160217905550604082015181600001601c6101000a81548160ff0219169083600281111561361e57fe5b0217905550606082015181600001601d6101000a81548162ffffff021916908362ffffff1602179055506080820151816001016000509080519060200190613667929190616a05565b509050508091505061367556505b61368361417a63ffffffff16565b5b9392505050565b601260009054906101000a900463ffffffff1681565b6136a9616a98565b6136b882615e7563ffffffff16565b905080506000816020015161ffff16111515613709576040517f08c379a000000000000000000000000000000000000000000000000000000000815260040161370090617cec565b60405180910390fd5b600081610120015163ffffffff161115613800576013600050600082610120015163ffffffff16815260200190815260200160002060005060000160149054906101000a900467ffffffffffffffff1681610160019067ffffffffffffffff16908167ffffffffffffffff16815260200150506013600050600082610120015163ffffffff16815260200190815260200160002060005060000160009054906101000a900473ffffffffffffffffffffffffffffffffffffffff1681610140019073ffffffffffffffffffffffffffffffffffffffff16908173ffffffffffffffffffffffffffffffffffffffff16815260200150505b7f000000000000000000000000000000000000000000000000000000000000000073ffffffffffffffffffffffffffffffffffffffff166399fbab88836040518263ffffffff1660e01b81526004016138599190617fae565b6101806040518083038186803b1580156138735760006000fd5b505afa158015613888573d600060003e3d6000fd5b505050506040513d601f19601f820116820180604052508101906138ac9190617622565b909192939495969798999a509091929394959697989950909192939495969798509091929394959697509091929394959650909192509091509050508360e00184610100018560a0018390906fffffffffffffffffffffffffffffffff166fffffffffffffffffffffffffffffffff1681526020015083909060020b60020b81526020015083909060020b60020b8152602001505050505b919050565b61395761405063ffffffff16565b613a35600060009054906101000a900473ffffffffffffffffffffffffffffffffffffffff1673ffffffffffffffffffffffffffffffffffffffff16639ec5a8946040518163ffffffff1660e01b815260040160206040518083038186803b1580156139c35760006000fd5b505afa1580156139d8573d600060003e3d6000fd5b505050506040513d601f19601f820116820180604052508101906139fc919061702f565b73ffffffffffffffffffffffffffffffffffffffff163373ffffffffffffffffffffffffffffffffffffffff16146140ab63ffffffff16565b80600e60005060008461ffff1661ffff1681526020019081526020016000206000506000820151816000016000509090556020820151816001016000509090559050505b613a8761417a63ffffffff16565b5b5050565b600860019054906101000a900460ff1681565b613aa76168a7565b6000600b600050604051806080016040529081600082016000505481526020016001820160009054906101000a90046fffffffffffffffffffffffffffffffff166fffffffffffffffffffffffffffffffff166fffffffffffffffffffffffffffffffff1681526020016001820160109054906101000a90046fffffffffffffffffffffffffffffffff166fffffffffffffffffffffffffffffffff166fffffffffffffffffffffffffffffffff1681526020016002820160009054906101000a90046fffffffffffffffffffffffffffffffff166fffffffffffffffffffffffffffffffff166fffffffffffffffffffffffffffffffff16815260200150509050604051806080016040528082602001516fffffffffffffffffffffffffffffffff16815260200182606001516fffffffffffffffffffffffffffffffff1681526020018260000151815260200182604001516fffffffffffffffffffffffffffffffff16815260200150915050613c1c56505b90565b600060009054906101000a900473ffffffffffffffffffffffffffffffffffffffff1673ffffffffffffffffffffffffffffffffffffffff163373ffffffffffffffffffffffffffffffffffffffff16141515613cb1576040517f08c379a0000000000000000000000000000000000000000000000000000000008152600401613ca890617cad565b60405180910390fd5b5b565b613cbc6168d2565b6000600760005060008467ffffffffffffffff1667ffffffffffffffff16815260200190815260200160002060005060405180610160016040529081600082016000505481526020016001820160009054906101000a90046fffffffffffffffffffffffffffffffff166fffffffffffffffffffffffffffffffff166fffffffffffffffffffffffffffffffff1681526020016001820160109054906101000a90046fffffffffffffffffffffffffffffffff166fffffffffffffffffffffffffffffffff166fffffffffffffffffffffffffffffffff1681526020016002820160009054906101000a90046fffffffffffffffffffffffffffffffff166fffffffffffffffffffffffffffffffff166fffffffffffffffffffffffffffffffff1681526020016002820160109054906101000a90046fffffffffffffffffffffffffffffffff166fffffffffffffffffffffffffffffffff166fffffffffffffffffffffffffffffffff1681526020016003820160009054906101000a900467ffffffffffffffff1667ffffffffffffffff1667ffffffffffffffff1681526020016003820160089054906101000a900467ffffffffffffffff1667ffffffffffffffff1667ffffffffffffffff1681526020016003820160109054906101000a900460020b60020b60020b81526020016003820160139054906101000a900460ff161515151581526020016003820160149054906101000a900467ffffffffffffffff1667ffffffffffffffff1667ffffffffffffffff16815260200160038201601c9054906101000a900463ffffffff1663ffffffff1663ffffffff16815260200150509050604051806101a001604052808260000151815260200182602001516fffffffffffffffffffffffffffffffff16815260200182604001516fffffffffffffffffffffffffffffffff16815260200182606001516fffffffffffffffffffffffffffffffff16815260200182608001516fffffffffffffffffffffffffffffffff1681526020018260a0015167ffffffffffffffff1681526020018260c0015167ffffffffffffffff1681526020018260e0015160020b81526020018261010001511515815260200182610120015167ffffffffffffffff16815260200182610140015163ffffffff168152602001600073ffffffffffffffffffffffffffffffffffffffff168152602001600067ffffffffffffffff1681526020015091505061404b56505b919050565b60026006600050541415151561409b576040517f08c379a000000000000000000000000000000000000000000000000000000000815260040161409290617c6e565b60405180910390fd5b600260066000508190909055505b565b8015156140ed576040517f08c379a00000000000000000000000000000000000000000000000000000000081526004016140e490617cad565b60405180910390fd5b5b50565b60008282840191508110151515614173576040517f08c379a000000000000000000000000000000000000000000000000000000000815260040180806020018281038252600c8152602001807f6164642d6f766572666c6f77000000000000000000000000000000000000000081526020015060200191505060405180910390fd5b5b92915050565b600160066000508190909055505b565b6141a3670de0b6b3a76400006144d1909063ffffffff16565b600b60005060010160106101000a8154816fffffffffffffffffffffffffffffffff02191690836fffffffffffffffffffffffffffffffff160217905550614291600060009054906101000a900473ffffffffffffffffffffffffffffffffffffffff1673ffffffffffffffffffffffffffffffffffffffff16639ec5a8946040518163ffffffff1660e01b815260040160206040518083038186803b15801561424d5760006000fd5b505afa158015614262573d600060003e3d6000fd5b505050506040513d601f19601f82011682018060405250810190614286919061702f565b61548e63ffffffff16565b60016005600050600063461054a360e01b7bffffffffffffffffffffffffffffffffffffffffffffffffffffffff19167bffffffffffffffffffffffffffffffffffffffffffffffffffffffff1916815260200190815260200160002060006101000a81548160ff02191690831515021790555060016005600050600063602db56b60e01b7bffffffffffffffffffffffffffffffffffffffffffffffffffffffff19167bffffffffffffffffffffffffffffffffffffffffffffffffffffffff1916815260200190815260200160002060006101000a81548160ff02191690831515021790555060016005600050600063397d359260e01b7bffffffffffffffffffffffffffffffffffffffffffffffffffffffff19167bffffffffffffffffffffffffffffffffffffffffffffffffffffffff1916815260200190815260200160002060006101000a81548160ff021916908315150217905550600160056000506000630b218d2460e01b7bffffffffffffffffffffffffffffffffffffffffffffffffffffffff19167bffffffffffffffffffffffffffffffffffffffffffffffffffffffff1916815260200190815260200160002060006101000a81548160ff0219169083151502179055505b565b6144cb614478826144d1909063ffffffff16565b601160005060008573ffffffffffffffffffffffffffffffffffffffff1673ffffffffffffffffffffffffffffffffffffffff16815260200190815260200160002060005061610b90919063ffffffff16565b505b5050565b60007001000000000000000000000000000000008210151561455e576040517f08c379a00000000000000000000000000000000000000000000000000000000081526004018080602001828103825260128152602001807f6d6f7265207468616e203132382062697473000000000000000000000000000081526020015060200191505060405180910390fd5b819050614566565b919050565b60006000836001016000506000846fffffffffffffffffffffffffffffffff166fffffffffffffffffffffffffffffffff168152602001908152602001600020600050549050600081141515614770576000600182039050600060018660000160005080549050039050600086600001600050828154811015156145eb57fe5b90600052602060002090600291828204019190066010025b9054906101000a90046fffffffffffffffffffffffffffffffff16905080876000016000508481548110151561463557fe5b90600052602060002090600291828204019190066010025b6101000a8154816fffffffffffffffffffffffffffffffff02191690836fffffffffffffffffffffffffffffffff16021790555060018301876001016000506000836fffffffffffffffffffffffffffffffff166fffffffffffffffffffffffffffffffff1681526020019081526020016000206000508190909055508660000160005080548015156146dc57fe5b60019003818190600052602060002090600291828204019190066010025b6101000a8154906fffffffffffffffffffffffffffffffff02191690559055866001016000506000876fffffffffffffffffffffffffffffffff166fffffffffffffffffffffffffffffffff16815260200190815260200160002060005060009055600194505050505061477c5650505061477a565b600091505061477c565b505b92915050565b600060009054906101000a900473ffffffffffffffffffffffffffffffffffffffff1673ffffffffffffffffffffffffffffffffffffffff16637c114fed336040518263ffffffff1660e01b81526004016147dd9190617834565b60006040518083038186803b1580156147f65760006000fd5b505afa15801561480b573d600060003e3d6000fd5b505050505b565b60008282840391508111151515614894576040517f08c379a000000000000000000000000000000000000000000000000000000000815260040180806020018281038252600d8152602001807f7375622d756e646572666c6f770000000000000000000000000000000000000081526020015060200191505060405180910390fd5b5b92915050565b6148a36168d2565b6000600760005060008567ffffffffffffffff1667ffffffffffffffff16815260200190815260200160002060005060030160139054906101000a900460ff1690506000816148f557627fffff614934565b600760005060008667ffffffffffffffff1667ffffffffffffffff16815260200190815260200160002060005060030160109054906101000a900460020b5b90506000600760005060008767ffffffffffffffff1667ffffffffffffffff16815260200190815260200160002060005060030160149054906101000a900467ffffffffffffffff1690506000614999866020015187604001516132d663ffffffff16565b90508060020b8360020b141515614c4057808660e0019060020b908160020b815260200150506000627fffff60020b8460020b1215614b6657600960005060008560020b60020b8152602001908152602001600020600050905080506000614a0f60018380549050036161fc909063ffffffff16565b90508067ffffffffffffffff168467ffffffffffffffff16141515614b23576000828267ffffffffffffffff16815481101515614a4857fe5b90600052602060002090600491828204019190066008025b9054906101000a900467ffffffffffffffff16905080838667ffffffffffffffff16815481101515614a8e57fe5b90600052602060002090600491828204019190066008025b6101000a81548167ffffffffffffffff021916908367ffffffffffffffff16021790555084600760005060008367ffffffffffffffff1667ffffffffffffffff16815260200190815260200160002060005060030160146101000a81548167ffffffffffffffff021916908367ffffffffffffffff160217905550505b818054801515614b2f57fe5b60019003818190600052602060002090600491828204019190066008025b6101000a81549067ffffffffffffffff02191690559055505b627fffff60020b8260020b1215614c3e57600960005060008360020b60020b815260200190815260200160002060005090508050614baf81805490506161fc909063ffffffff16565b87610120019067ffffffffffffffff16908167ffffffffffffffff1681526020015050600187610100019015159081151581526020015050808890806001815401808255809150506001900390600052602060002090600491828204019190066008025b9091909190916101000a81548167ffffffffffffffff021916908367ffffffffffffffff1602179055505b505b85945050505050614c5056505050505b92915050565b60405180610160016040528082600001518152602001614c8183602001516144d1909063ffffffff16565b6fffffffffffffffffffffffffffffffff168152602001614cad83604001516144d1909063ffffffff16565b6fffffffffffffffffffffffffffffffff168152602001614cd983606001516144d1909063ffffffff16565b6fffffffffffffffffffffffffffffffff168152602001614d0583608001516144d1909063ffffffff16565b6fffffffffffffffffffffffffffffffff1681526020018260a0015167ffffffffffffffff1681526020018260c0015167ffffffffffffffff1681526020018260e0015160020b81526020018261010001511515815260200182610120015167ffffffffffffffff16815260200182610140015163ffffffff16815260200150600760005060008467ffffffffffffffff1667ffffffffffffffff16815260200190815260200160002060005060008201518160000160005090905560208201518160010160006101000a8154816fffffffffffffffffffffffffffffffff02191690836fffffffffffffffffffffffffffffffff16021790555060408201518160010160106101000a8154816fffffffffffffffffffffffffffffffff02191690836fffffffffffffffffffffffffffffffff16021790555060608201518160020160006101000a8154816fffffffffffffffffffffffffffffffff02191690836fffffffffffffffffffffffffffffffff16021790555060808201518160020160106101000a8154816fffffffffffffffffffffffffffffffff02191690836fffffffffffffffffffffffffffffffff16021790555060a08201518160030160006101000a81548167ffffffffffffffff021916908367ffffffffffffffff16021790555060c08201518160030160086101000a81548167ffffffffffffffff021916908367ffffffffffffffff16021790555060e08201518160030160106101000a81548162ffffff021916908360020b62ffffff1602179055506101008201518160030160136101000a81548160ff0219169083151502179055506101208201518160030160146101000a81548167ffffffffffffffff021916908367ffffffffffffffff16021790555061014082015181600301601c6101000a81548163ffffffff021916908363ffffffff1602179055509050505b5050565b600060006000600019858709858702925082811083820303915050600081141561500757600084111515614ff85760006000fd5b838204925082925050506150be565b80841115156150165760006000fd5b60008486880990508281118203915080830392506000858660000316905080860495508084049350600181826000030401905080830284179350835060006002876003021890508087026002038102905080508087026002038102905080508087026002038102905080508087026002038102905080508087026002038102905080508087026002038102905080508085029550855085955050505050506150be5650505050505b9392505050565b60006150e083670de0b6b3a764000084614fc463ffffffff16565b905080505b92915050565b60405180608001604052808260400151815260200161511583600001516144d1909063ffffffff16565b6fffffffffffffffffffffffffffffffff16815260200161514183606001516144d1909063ffffffff16565b6fffffffffffffffffffffffffffffffff16815260200161516d83602001516144d1909063ffffffff16565b6fffffffffffffffffffffffffffffffff16815260200150600b60005060008201518160000160005090905560208201518160010160006101000a8154816fffffffffffffffffffffffffffffffff02191690836fffffffffffffffffffffffffffffffff16021790555060408201518160010160106101000a8154816fffffffffffffffffffffffffffffffff02191690836fffffffffffffffffffffffffffffffff16021790555060608201518160020160006101000a8154816fffffffffffffffffffffffffffffffff02191690836fffffffffffffffffffffffffffffffff1602179055509050505b50565b6040518060e00160405280826000015173ffffffffffffffffffffffffffffffffffffffff168152602001826020015161ffff16815260200182610120015163ffffffff168152602001826040015181526020016152c6836060015161628e909063ffffffff16565b75ffffffffffffffffffffffffffffffffffffffffffff1681526020016153028360c0015167ffffffffffffffff1661632e909063ffffffff16565b64ffffffffff168152602001615323836080015161632e909063ffffffff16565b64ffffffffff16815260200150600f600050600084815260200190815260200160002060005060008201518160000160006101000a81548173ffffffffffffffffffffffffffffffffffffffff021916908373ffffffffffffffffffffffffffffffffffffffff16021790555060208201518160000160146101000a81548161ffff021916908361ffff16021790555060408201518160000160166101000a81548163ffffffff021916908363ffffffff16021790555060608201518160010160005090905560808201518160020160006101000a81548175ffffffffffffffffffffffffffffffffffffffffffff021916908375ffffffffffffffffffffffffffffffffffffffffffff16021790555060a08201518160020160166101000a81548164ffffffffff021916908364ffffffffff16021790555060c082015181600201601b6101000a81548164ffffffffff021916908364ffffffffff1602179055509050505b5050565b7f000000000000000000000000000000000000000000000000000000000000000073ffffffffffffffffffffffffffffffffffffffff1663a22cb4658260016040518363ffffffff1660e01b81526004016154ea929190617891565b600060405180830381600087803b1580156155055760006000fd5b505af115801561551a573d600060003e3d6000fd5b505050505b50565b600060008473ffffffffffffffffffffffffffffffffffffffff1663a9059cbb60e01b8585604051602401808373ffffffffffffffffffffffffffffffffffffffff16815260200182815260200192505050604051602081830303815290604052907bffffffffffffffffffffffffffffffffffffffffffffffffffffffff19166020820180517bffffffffffffffffffffffffffffffffffffffffffffffffffffffff83818316178352505050506040518082805190602001908083835b60208310151561560757805182525b6020820191506020810190506020830392506155e1565b6001836020036101000a0380198251168184511680821785525050505050509050019150506000604051808303816000865af19150503d8060008114615669576040519150601f19603f3d011682016040523d82523d6000602084013e61566e565b606091505b50915091508180156156af57506000815114806156ae575080806020019051602081101561569c5760006000fd5b81019080805190602001909291905050505b5b1515615726576040517f08c379a00000000000000000000000000000000000000000000000000000000081526004018080602001828103825260028152602001807f535400000000000000000000000000000000000000000000000000000000000081526020015060200191505060405180910390fd5b50505b505050565b6060816000016000508054806020026020016040519081016040528092919081815260200182805480156157c557602002820191906000526020600020906000905b82829054906101000a90046fffffffffffffffffffffffffffffffff166fffffffffffffffffffffffffffffffff1681526020019060100190602082600f010492830192600103820291508084116157705790505b5050505050905080505b919050565b600060008214806157f4575082828385029250828115156157f157fe5b04145b151561586b576040517f08c379a000000000000000000000000000000000000000000000000000000000815260040180806020018281038252600c8152602001807f6d756c2d6f766572666c6f77000000000000000000000000000000000000000081526020015060200191505060405180910390fd5b5b92915050565b600060038211156158cd5781905080506000600160028481151561589257fe5b040190505b818110156158c757809150815060028182858115156158b257fe5b04018115156158bd57fe5b0490508050615897565b506158df565b6000821415156158de576001905080505b5b5b919050565b60006159008383670de0b6b3a7640000614fc463ffffffff16565b905080505b92915050565b6000740100000000000000000000000000000000000000008210151561599c576040517f08c379a00000000000000000000000000000000000000000000000000000000081526004018080602001828103825260128152602001807f6d6f7265207468616e203136302062697473000000000000000000000000000081526020015060200191505060405180910390fd5b8190506159a4565b919050565b60006401000276a373ffffffffffffffffffffffffffffffffffffffff168273ffffffffffffffffffffffffffffffffffffffff1610158015615a2b575073fffd8963efd1fc6a506488495d951d5263988d2673ffffffffffffffffffffffffffffffffffffffff168273ffffffffffffffffffffffffffffffffffffffff16105b1515615aa2576040517f08c379a00000000000000000000000000000000000000000000000000000000081526004018080602001828103825260018152602001807f520000000000000000000000000000000000000000000000000000000000000081526020015060200191505060405180910390fd5b600060208373ffffffffffffffffffffffffffffffffffffffff16901b905060008190506000600090506fffffffffffffffffffffffffffffffff821160071b808217915082811c92505067ffffffffffffffff821160061b808217915082811c92505063ffffffff821160051b808217915082811c92505061ffff821160041b808217915082811c92505060ff821160031b808217915082811c925050600f821160021b808217915082811c9250506003821160011b808217915082811c92505060018211808217915050608081101515615b8857607f810383901c91508150615b94565b80607f0383901b915081505b6000604060808303901b9050828302607f1c92508260801c80603f1b8217915083811c935050828302607f1c92508260801c80603e1b8217915083811c935050828302607f1c92508260801c80603d1b8217915083811c935050828302607f1c92508260801c80603c1b8217915083811c935050828302607f1c92508260801c80603b1b8217915083811c935050828302607f1c92508260801c80603a1b8217915083811c935050828302607f1c92508260801c8060391b8217915083811c935050828302607f1c92508260801c8060381b8217915083811c935050828302607f1c92508260801c8060371b8217915083811c935050828302607f1c92508260801c8060361b8217915083811c935050828302607f1c92508260801c8060351b8217915083811c935050828302607f1c92508260801c8060341b8217915083811c935050828302607f1c92508260801c8060331b8217915083811c935050828302607f1c92508260801c8060321b82179150506000693627a301d71055774c8582029050600060806f028f6481ab7f045a5af012a19d003aaa8303901d9050600060806fdb2df09e81959a81455e260799a0632f8401901d90508060020b8260020b14615daa578873ffffffffffffffffffffffffffffffffffffffff16615d81826163bd63ffffffff16565b73ffffffffffffffffffffffffffffffffffffffff161115615da35781615da5565b805b615dac565b815b97508750505050505050505b919050565b60007fffffffffffffffffffffffffffffffffffffffffffffffffffffffffff8000008212158015615df157506280000082125b1515615e68576040517f08c379a00000000000000000000000000000000000000000000000000000000081526004018080602001828103825260118152602001807f6d6f7265207468616e203234206269747300000000000000000000000000000081526020015060200191505060405180910390fd5b819050615e70565b919050565b615e7d616a98565b6000600f60005060008481526020019081526020016000206000506040518060e00160405290816000820160009054906101000a900473ffffffffffffffffffffffffffffffffffffffff1673ffffffffffffffffffffffffffffffffffffffff1673ffffffffffffffffffffffffffffffffffffffff1681526020016000820160149054906101000a900461ffff1661ffff1661ffff1681526020016000820160169054906101000a900463ffffffff1663ffffffff1663ffffffff168152602001600182016000505481526020016002820160009054906101000a900475ffffffffffffffffffffffffffffffffffffffffffff1675ffffffffffffffffffffffffffffffffffffffffffff1675ffffffffffffffffffffffffffffffffffffffffffff1681526020016002820160169054906101000a900464ffffffffff1664ffffffffff1664ffffffffff16815260200160028201601b9054906101000a900464ffffffffff1664ffffffffff1664ffffffffff16815260200150509050604051806101800160405280826000015173ffffffffffffffffffffffffffffffffffffffff168152602001826020015161ffff16815260200182606001518152602001826080015175ffffffffffffffffffffffffffffffffffffffffffff1681526020018260c0015164ffffffffff16815260200160006fffffffffffffffffffffffffffffffff1681526020018260a0015164ffffffffff1667ffffffffffffffff168152602001600060020b8152602001600060020b8152602001826040015163ffffffff168152602001600073ffffffffffffffffffffffffffffffffffffffff168152602001600067ffffffffffffffff1681526020015091505061610656505b919050565b600061611d838361685463ffffffff16565b15156161ec57826000016000508290806001815401808255809150506001900390600052602060002090600291828204019190066010025b9091909190916101000a8154816fffffffffffffffffffffffffffffffff02191690836fffffffffffffffffffffffffffffffff1602179055508260000160005080549050836001016000506000846fffffffffffffffffffffffffffffffff166fffffffffffffffffffffffffffffffff168152602001908152602001600020600050819090905550600190506161f6566161f5565b600090506161f6565b5b92915050565b60006801000000000000000082101515616281576040517f08c379a00000000000000000000000000000000000000000000000000000000081526004018080602001828103825260118152602001807f6d6f7265207468616e203634206269747300000000000000000000000000000081526020015060200191505060405180910390fd5b819050616289565b919050565b600076010000000000000000000000000000000000000000000082101515616321576040517f08c379a00000000000000000000000000000000000000000000000000000000081526004018080602001828103825260128152602001807f6d6f7265207468616e203137362062697473000000000000000000000000000081526020015060200191505060405180910390fd5b819050616329565b919050565b600065010000000000821015156163b0576040517f08c379a00000000000000000000000000000000000000000000000000000000081526004018080602001828103825260118152602001807f6d6f7265207468616e203430206269747300000000000000000000000000000081526020015060200191505060405180910390fd5b8190506163b8565b919050565b6000600060008360020b126163d5578260020b6163dd565b8260020b6000035b90507ffffffffffffffffffffffffffffffffffffffffffffffffffffffffffff2761860000360020b8111151515616480576040517f08c379a00000000000000000000000000000000000000000000000000000000081526004018080602001828103825260018152602001807f540000000000000000000000000000000000000000000000000000000000000081526020015060200191505060405180910390fd5b600060006001831614156164a5577001000000000000000000000000000000006164b7565b6ffffcb933bd6fad37aa2d162d1a5940015b70ffffffffffffffffffffffffffffffffff1690506000600283161415156164f55760806ffff97272373d413259a46990580e213a8202901c905080505b60006004831614151561651e5760806ffff2e50f5f656932ef12357cf3c7fdcc8202901c905080505b6000600883161415156165475760806fffe5caca7e10e4e61c3624eaa0941cd08202901c905080505b6000601083161415156165705760806fffcb9843d60f6159c9db58835c9266448202901c905080505b6000602083161415156165995760806fff973b41fa98c081472e6896dfb254c08202901c905080505b6000604083161415156165c25760806fff2ea16466c96a3843ec78b326b528618202901c905080505b6000608083161415156165eb5760806ffe5dee046a99a2a811c461f1969c30538202901c905080505b600061010083161415156166155760806ffcbe86c7900a88aedcffc83b479aa3a48202901c905080505b6000610200831614151561663f5760806ff987a7253ac413176f2b074cf7815e548202901c905080505b600061040083161415156166695760806ff3392b0822b70005940c7a398e4b70f38202901c905080505b600061080083161415156166935760806fe7159475a2c29b7443b29c7fa6e889d98202901c905080505b600061100083161415156166bd5760806fd097f3bdfd2022b8845ad8f792aa58258202901c905080505b600061200083161415156166e75760806fa9f746462d870fdf8a65dc1f90e061e58202901c905080505b600061400083161415156167115760806f70d869a156d2a1b890bb3df62baf32f78202901c905080505b6000618000831614151561673b5760806f31be135f97d08fd981231505542fcfa68202901c905080505b60006201000083161415156167665760806f09aa508b5b7a84e1c677de54f3e99bc98202901c905080505b60006202000083161415156167905760806e5d6af8dedb81196699c329225ee6048202901c905080505b60006204000083161415156167b95760806d2216e584f5fa1ea926041bedfe988202901c905080505b60006208000083161415156167e05760806b048a170391f7dc42444e8fa28202901c905080505b60008460020b131561681d57807fffffffffffffffffffffffffffffffffffffffffffffffffffffffffffffffff81151561681757fe5b04905080505b60006401000000008281151561682f57fe5b061461683c57600161683f565b60005b60ff16602082901c019250825050505b919050565b60006000836001016000506000846fffffffffffffffffffffffffffffffff166fffffffffffffffffffffffffffffffff16815260200190815260200160002060005054141590506168a1565b92915050565b6040518060800160405280600081526020016000815260200160008152602001600081526020015090565b604051806101a001604052806000815260200160008152602001600081526020016000815260200160008152602001600067ffffffffffffffff168152602001600067ffffffffffffffff168152602001600060020b8152602001600015158152602001600067ffffffffffffffff168152602001600063ffffffff168152602001600073ffffffffffffffffffffffffffffffffffffffff168152602001600067ffffffffffffffff1681526020015090565b604051806040016040528060008152602001600081526020015090565b6040518060a00160405280600073ffffffffffffffffffffffffffffffffffffffff168152602001600067ffffffffffffffff168152602001600060028111156169e957fe5b8152602001600062ffffff168152602001606081526020015090565b828054600181600116156101000203166002900490600052602060002090601f016020900481019282616a3b5760008555616a87565b82601f10616a5457805160ff1916838001178555616a87565b82800160010185558215616a87579182015b82811115616a865782518260005090905591602001919060010190616a66565b5b509050616a949190616b5e565b5090565b604051806101800160405280600073ffffffffffffffffffffffffffffffffffffffff168152602001600061ffff16815260200160008152602001600081526020016000815260200160006fffffffffffffffffffffffffffffffff168152602001600067ffffffffffffffff168152602001600060020b8152602001600060020b8152602001600063ffffffff168152602001600073ffffffffffffffffffffffffffffffffffffffff168152602001600067ffffffffffffffff1681526020015090565b616b63565b80821115616b7d5760008181506000905550600101616b63565b5090566180bb565b600081359050616b948161803f565b5b919050565b600081519050616ba98161803f565b5b919050565b60008135905080151581141515616bc65760006000fd5b5b919050565b600081359050616bdb81618068565b5b919050565b600081519050616bf081618068565b5b919050565b600081359050616c058161807e565b5b919050565b600081519050616c1a8161807e565b5b919050565b60008135905061ffff811681141515616c395760006000fd5b5b919050565b600081519050616c4e816180a3565b5b919050565b60008135905063ffffffff811681141515616c6f5760006000fd5b5b919050565b60008135905067ffffffffffffffff811681141515616c945760006000fd5b5b919050565b600060208284031215616cab578081fd5b8135616cb68161803f565b809150505b92915050565b6000600060408385031215616cd4578081fd5b8235616cdf8161803f565b80925050602083013590505b9250929050565b6000600060006000600060808688031215616d0b578081fd5b8535616d168161803f565b809550506020860135616d288161803f565b8094505060408601359250606086013567ffffffffffffffff80821115616d4d578283fd5b818801915088601f8301121515616d62578283fd5b813581811115616d70578384fd5b896020828501011115616d81578384fd5b6020830194508093505050505b9295509295909350565b6000600060408385031215616dab578182fd5b8235616db68161803f565b80925050602083013590505b9250929050565b60006020808385031215616ddb578182fd5b823567ffffffffffffffff811115616df1578283fd5b808401905084601f8201121515616e06578283fd5b8035616e19616e148261801c565b617ff1565b80828252848201915084840188868786028701011115616e37578687fd5b8694505b83851015616e6457616e4c81616c54565b8352858301925085810190505b600185019450616e3b565b5080955050505050505b92915050565b60006020808385031215616e86578182fd5b823567ffffffffffffffff811115616e9c578283fd5b808401905084601f8201121515616eb1578283fd5b8035616ec4616ebf8261801c565b617ff1565b80828252848201915084840188868786028701011115616ee2578687fd5b8694505b83851015616f0f57616ef781616c75565b8352858301925085810190505b600185019450616ee6565b5080955050505050505b92915050565b600060208284031215616f30578081fd5b81357fffffffff00000000000000000000000000000000000000000000000000000000811681141515616f61578182fd5b809150505b92915050565b600060208284031215616f7d578081fd5b8151616f888161803f565b809150505b92915050565b600060208284031215616fa4578081fd5b8135616faf8161803f565b809150505b92915050565b600060208284031215616fcb578081fd5b8151616fd68161803f565b809150505b92915050565b600060208284031215616ff2578081fd5b8151616ffd8161803f565b809150505b92915050565b600060208284031215617019578081fd5b81516170248161803f565b809150505b92915050565b600060208284031215617040578081fd5b815161704b8161803f565b809150505b92915050565b600060208284031215617067578081fd5b81356170728161803f565b809150505b92915050565b6000600060408385031215617090578182fd5b823561709b8161803f565b80925050602083013590505b9250929050565b6000602082840312156170bf578081fd5b81356170ca81618068565b809150505b92915050565b60006000604083850312156170e8578182fd5b82356170f381618068565b80925050602083013561710581618068565b809150505b9250929050565b600060808284031215617122578081fd5b6040516080810181811067ffffffffffffffff8211171561713f57fe5b806040525082358152602083013560208201526040830135604082015260608301356060820152809150505b92915050565b600060208284031215617182578081fd5b61718b82616c20565b90505b92915050565b6000600082840360608112156171a8578283fd5b6171b184616c20565b925060407fffffffffffffffffffffffffffffffffffffffffffffffffffffffffffffffe0820112156171e2578182fd5b506040516040810181811067ffffffffffffffff8211171561720057fe5b80604052506020840135815260408401356020820152809150505b9250929050565b600060208284031215617233578081fd5b813590505b92915050565b60006020828403121561724f578081fd5b815190505b92915050565b600060006040838503121561726d578182fd5b82359150602083013561727f8161803f565b809150505b9250929050565b600060008284036101a08112156172a0578283fd5b83359250610180807fffffffffffffffffffffffffffffffffffffffffffffffffffffffffffffffe0830112156172d5578283fd5b6172de81617ff1565b91506172ec60208601616b85565b82526172fa60408601616c20565b6020830152606085013560408301526080850135606083015260a0850135608083015261732960c08601616bf6565b60a083015261733a60e08601616c75565b60c083015261010061734d818701616bcc565b60e0840152610120617360818801616bcc565b828501526101409150617374828801616c54565b8185015250610160617387818801616b85565b82850152617396838801616c75565b81850152505050809150505b9250929050565b60006000604083850312156173bc578182fd5b82359150602083013590505b9250929050565b60006000604083850312156173e2578182fd5b6173eb83616c54565b91506173f960208401616c54565b90505b9250929050565b600060208284031215617414578081fd5b61741d82616c75565b90505b92915050565b600060008284036101c081121561743b578283fd5b61744484616c75565b92506101a0807fffffffffffffffffffffffffffffffffffffffffffffffffffffffffffffffe083011215617477578283fd5b61748081617ff1565b91506020850135825260408501356020830152606085013560408301526080850135606083015260a085013560808301526174bd60c08601616c75565b60a08301526174ce60e08601616c75565b60c08301526101006174e1818701616bcc565b60e08401526101206174f4818801616baf565b828501526101409150617508828801616c75565b818501525061016061751b818801616c54565b82850152610180915061752f828801616b85565b818501525061753f828701616c75565b818401525050809150505b9250929050565b60006000600060608486031215617566578081fd5b61756f84616c75565b9250602080850135617580816180a3565b80935050604085013567ffffffffffffffff8082111561759e578384fd5b818701915087601f83011215156175b3578384fd5b8135818111156175bf57fe5b6175ef847fffffffffffffffffffffffffffffffffffffffffffffffffffffffffffffffe0601f84011601617ff1565b91508082528884828501011115617604578485fd5b808484018584013784848284010152508093505050505b9250925092565b6000600060006000600060006000600060006000600060006101808d8f03121561764a57898afd5b8c516bffffffffffffffffffffffff811681141515617667578a8bfd5b809c505061767760208e01616b9a565b9a5061768560408e01616b9a565b995061769360608e01616b9a565b98506176a160808e01616c3f565b97506176af60a08e01616be1565b96506176bd60c08e01616be1565b95506176cb60e08e01616c0b565b94506101008d015193506101208d015192506176ea6101408e01616c0b565b91506176f96101608e01616c0b565b90505b9295989b509295989b509295989b565b73ffffffffffffffffffffffffffffffffffffffff811682525b5050565b80151582525b5050565b60038110151561774057fe5b8082525b5050565b8060020b82525b5050565b60008151808452815b8181101561777f576020808286010151818388010152505b60208101905061775c565b818111156177905782602083870101525b5060207fffffffffffffffffffffffffffffffffffffffffffffffffffffffffffffffe0601f8301168501019150505b92915050565b6fffffffffffffffffffffffffffffffff811682525b5050565b61ffff811682525b5050565b63ffffffff811682525b5050565b67ffffffffffffffff811682525b5050565b600060208201905073ffffffffffffffffffffffffffffffffffffffff831682525b92915050565b600060208201905073ffffffffffffffffffffffffffffffffffffffff831682525b92915050565b600060408201905073ffffffffffffffffffffffffffffffffffffffff8416825263ffffffff831660208301525b9392505050565b600060408201905073ffffffffffffffffffffffffffffffffffffffff8416825282151560208301525b9392505050565b600060e08201905073ffffffffffffffffffffffffffffffffffffffff8916825261ffff8816602083015263ffffffff8716604083015285606083015275ffffffffffffffffffffffffffffffffffffffffffff8516608083015264ffffffffff80851660a084015280841660c0840152505b98975050505050505050565b600073ffffffffffffffffffffffffffffffffffffffff8716825267ffffffffffffffff861660208301526179796040830186617734565b62ffffff8416606083015260a0608083015261799860a0830184617753565b90505b9695505050505050565b6000602080830181845280855180835260409250828601915082848202870101848801865b83811015617a7e577fffffffffffffffffffffffffffffffffffffffffffffffffffffffffffffffc0898403018552815160a073ffffffffffffffffffffffffffffffffffffffff825116855267ffffffffffffffff89830151168986015287820151617a3989870182617734565b50606062ffffff818401511681870152506080808301519250818187015250617a6481860183617753565b94505050868201915086850194505b6001810190506179ca565b505080955050505050505b92915050565b600060208083018184528085518083526040860191508387019250845b81811015617ae0576fffffffffffffffffffffffffffffffff8451168352848301925084840193505b600181019050617aac565b50508093505050505b92915050565b600060208083018184528085518083526040860191508387019250845b81811015617b2e5783518352848301925084840193505b600181019050617b0c565b50508093505050505b92915050565b600060208083018184528085518083526040860191508387019250845b81811015617b825763ffffffff8451168352848301925084840193505b600181019050617b5a565b50508093505050505b92915050565b600060208083018184528085518083526040860191508387019250845b81811015617bda5767ffffffffffffffff8451168352848301925084840193505b600181019050617bae565b50508093505050505b92915050565b600060208201905082151582525b92915050565b60006020820190507fffffffff00000000000000000000000000000000000000000000000000000000831682525b92915050565b600060208201905073ffffffffffffffffffffffffffffffffffffffff831682525b92915050565b60006020820190508260020b82525b92915050565b600060208252600d60208301527f4c43205265656e7472616e63790000000000000000000000000000000000000060408301526060820190505b919050565b600060208252600e60208301527f4e6f7420417574686f72697a656400000000000000000000000000000000000060408301526060820190505b919050565b600060208252600c60208301527f506f736974696f6e20444e45000000000000000000000000000000000000000060408301526060820190505b919050565b600060208252601d60208301527f446f6573206e6f7420616363657074204e465473206469726563746c7900000060408301526060820190505b919050565b600060208252601560208301527f4d6178206b69636b6261636b206578636565646564000000000000000000000060408301526060820190505b919050565b60006101a082019050825182526020830151602083015260408301516040830152606083015160608301526080830151608083015260a0830151617df060a08401826177fa565b5060c0830151617e0360c08401826177fa565b5060e0830151617e1660e0840182617748565b5061010080840151617e2a8285018261772a565b505061012080840151617e3f828501826177fa565b505061014080840151617e54828501826177ec565b505061016080840151617e698285018261770c565b505061018080840151617e7e828501826177fa565b50505b92915050565b600061018082019050617e9b82845161770c565b6020830151617ead60208401826177e0565b5060408301516040830152606083015160608301526080830151608083015260a0830151617ede60a08401826177c6565b5060c0830151617ef160c08401826177fa565b5060e0830151617f0460e0840182617748565b5061010080840151617f1882850182617748565b505061012080840151617f2d828501826177ec565b505061014080840151617f428285018261770c565b505061016080840151617f57828501826177fa565b50505b92915050565b600060408201905082518252602083015160208301525b92915050565b6000608082019050825182526020830151602083015260408301516040830152606083015160608301525b92915050565b60006020820190508282525b92915050565b60006040820190508382528260208301525b9392505050565b600060208201905063ffffffff831682525b92915050565b6000604051905081810181811067ffffffffffffffff8211171561801157fe5b80604052505b919050565b600067ffffffffffffffff82111561803057fe5b6020602083020190505b919050565b73ffffffffffffffffffffffffffffffffffffffff8116811415156180645760006000fd5b5b50565b8060020b8114151561807a5760006000fd5b5b50565b6fffffffffffffffffffffffffffffffff81168114151561809f5760006000fd5b5b50565b62ffffff8116811415156180b75760006000fd5b5b50565bfea26469706673582212202d1a91422a3383eb45199c1a5d7224d2fefced221a8425c23e466cf48592cd8864736f6c63430007060033",
  "linkReferences": {},
  "deployedLinkReferences": {}
}