{
  "_format": "hh-sol-artifact-1",
  "contractName": "AccountingTestable",
  "sourceName": "contracts/mocks/AccountingTestable.sol",
  "abi": [
    {
      "inputs": [
        {
          "internalType": "contract INonfungiblePositionManager",
          "name": "nftPositionManager",
          "type": "address"
        }
      ],
      "stateMutability": "nonpayable",
      "type": "constructor"
    },
    {
      "anonymous": false,
      "inputs": [],
      "name": "DebtPositionIndexingDisabled",
      "type": "event"
    },
    {
      "anonymous": false,
      "inputs": [
        {
          "indexed": true,
          "internalType": "address",
          "name": "governor",
          "type": "address"
        }
      ],
      "name": "Initialized",
      "type": "event"
    },
    {
      "anonymous": false,
      "inputs": [],
      "name": "PoolPositionIndexingDisabled",
      "type": "event"
    },
    {
      "anonymous": false,
      "inputs": [],
      "name": "Stopped",
      "type": "event"
    },
    {
      "anonymous": false,
      "inputs": [
        {
          "indexed": false,
          "internalType": "uint32[]",
          "name": "uis",
          "type": "uint32[]"
        }
      ],
      "name": "UIsApproved",
      "type": "event"
    },
    {
      "anonymous": false,
      "inputs": [
        {
          "indexed": false,
          "internalType": "uint32[]",
          "name": "uis",
          "type": "uint32[]"
        }
      ],
      "name": "UIsDisapproved",
      "type": "event"
    },
    {
      "inputs": [],
      "name": "TICK_SPACING",
      "outputs": [
        {
          "internalType": "int24",
          "name": "",
          "type": "int24"
        }
      ],
      "stateMutability": "view",
      "type": "function"
    },
    {
      "inputs": [
        {
          "internalType": "address",
          "name": "owner",
          "type": "address"
        },
        {
          "internalType": "uint256",
          "name": "nftID",
          "type": "uint256"
        }
      ],
      "name": "__addPositionToIndex",
      "outputs": [],
      "stateMutability": "nonpayable",
      "type": "function"
    },
    {
      "inputs": [
        {
          "internalType": "address",
          "name": "owner",
          "type": "address"
        },
        {
          "internalType": "uint256",
          "name": "nftID",
          "type": "uint256"
        }
      ],
      "name": "addPositionToIndex",
      "outputs": [],
      "stateMutability": "nonpayable",
      "type": "function"
    },
    {
      "inputs": [
        {
          "internalType": "uint32[]",
          "name": "ids",
          "type": "uint32[]"
        }
      ],
      "name": "approveUIs",
      "outputs": [],
      "stateMutability": "nonpayable",
      "type": "function"
    },
    {
      "inputs": [],
      "name": "debt",
      "outputs": [
        {
          "internalType": "uint256",
          "name": "",
          "type": "uint256"
        }
      ],
      "stateMutability": "view",
      "type": "function"
    },
    {
      "inputs": [],
      "name": "debtPositionIndexingEnabled",
      "outputs": [
        {
          "internalType": "bool",
          "name": "",
          "type": "bool"
        }
      ],
      "stateMutability": "view",
      "type": "function"
    },
    {
      "inputs": [
        {
          "internalType": "uint256",
          "name": "count",
          "type": "uint256"
        }
      ],
      "name": "decreaseDebt",
      "outputs": [],
      "stateMutability": "nonpayable",
      "type": "function"
    },
    {
      "inputs": [
        {
          "internalType": "contract IUniswapV3Pool",
          "name": "pool",
          "type": "address"
        },
        {
          "internalType": "uint256",
          "name": "liquidity",
          "type": "uint256"
        }
      ],
      "name": "decreasePoolLiquidity",
      "outputs": [],
      "stateMutability": "nonpayable",
      "type": "function"
    },
    {
      "inputs": [
        {
          "internalType": "uint256",
          "name": "nftID",
          "type": "uint256"
        }
      ],
      "name": "deletePoolPosition",
      "outputs": [],
      "stateMutability": "nonpayable",
      "type": "function"
    },
    {
      "inputs": [],
      "name": "deployer",
      "outputs": [
        {
          "internalType": "address",
          "name": "",
          "type": "address"
        }
      ],
      "stateMutability": "view",
      "type": "function"
    },
    {
      "inputs": [
        {
          "internalType": "uint32[]",
          "name": "ids",
          "type": "uint32[]"
        }
      ],
      "name": "disapproveUIs",
      "outputs": [],
      "stateMutability": "nonpayable",
      "type": "function"
    },
    {
      "inputs": [
        {
          "internalType": "uint64",
          "name": "positionID",
          "type": "uint64"
        }
      ],
      "name": "getBasicPositionInfo",
      "outputs": [
        {
          "internalType": "uint256",
          "name": "debtCount",
          "type": "uint256"
        },
        {
          "internalType": "uint256",
          "name": "collateralCount",
          "type": "uint256"
        }
      ],
      "stateMutability": "view",
      "type": "function"
    },
    {
      "inputs": [
        {
          "internalType": "uint256",
          "name": "nftID",
          "type": "uint256"
        }
      ],
      "name": "getPoolPosition",
      "outputs": [
        {
          "components": [
            {
              "internalType": "address",
              "name": "owner",
              "type": "address"
            },
            {
              "internalType": "uint16",
              "name": "poolID",
              "type": "uint16"
            },
            {
              "internalType": "uint256",
              "name": "cumulativeLiquidity",
              "type": "uint256"
            },
            {
              "internalType": "uint256",
              "name": "totalRewards",
              "type": "uint256"
            },
            {
              "internalType": "uint256",
              "name": "lastBlockPositionIncreased",
              "type": "uint256"
            },
            {
              "internalType": "uint128",
              "name": "liquidity",
              "type": "uint128"
            },
            {
              "internalType": "uint64",
              "name": "lastTimeRewarded",
              "type": "uint64"
            },
            {
              "internalType": "int24",
              "name": "tickLower",
              "type": "int24"
            },
            {
              "internalType": "int24",
              "name": "tickUpper",
              "type": "int24"
            },
            {
              "internalType": "uint32",
              "name": "ui",
              "type": "uint32"
            },
            {
              "internalType": "address",
              "name": "kickbackDestination",
              "type": "address"
            },
            {
              "internalType": "uint64",
              "name": "kickbackPortion",
              "type": "uint64"
            }
          ],
          "internalType": "struct IAccounting.PoolPosition",
          "name": "pp",
          "type": "tuple"
        }
      ],
      "stateMutability": "view",
      "type": "function"
    },
    {
      "inputs": [
        {
          "internalType": "address",
          "name": "owner",
          "type": "address"
        }
      ],
      "name": "getPoolPositionNftIdsByOwner",
      "outputs": [
        {
          "internalType": "uint128[]",
          "name": "",
          "type": "uint128[]"
        }
      ],
      "stateMutability": "view",
      "type": "function"
    },
    {
      "inputs": [
        {
          "internalType": "uint64",
          "name": "positionID",
          "type": "uint64"
        }
      ],
      "name": "getPosition",
      "outputs": [
        {
          "components": [
            {
              "internalType": "uint256",
              "name": "startCumulativeDebt",
              "type": "uint256"
            },
            {
              "internalType": "uint256",
              "name": "collateral",
              "type": "uint256"
            },
            {
              "internalType": "uint256",
              "name": "debt",
              "type": "uint256"
            },
            {
              "internalType": "uint256",
              "name": "startDebtExchangeRate",
              "type": "uint256"
            },
            {
              "internalType": "uint256",
              "name": "startTCPRewards",
              "type": "uint256"
            },
            {
              "internalType": "uint64",
              "name": "lastTimeUpdated",
              "type": "uint64"
            },
            {
              "internalType": "uint64",
              "name": "lastBorrowTime",
              "type": "uint64"
            },
            {
              "internalType": "int24",
              "name": "tick",
              "type": "int24"
            },
            {
              "internalType": "bool",
              "name": "tickSet",
              "type": "bool"
            },
            {
              "internalType": "uint64",
              "name": "tickIndex",
              "type": "uint64"
            },
            {
              "internalType": "uint32",
              "name": "ui",
              "type": "uint32"
            },
            {
              "internalType": "address",
              "name": "kickbackDestination",
              "type": "address"
            },
            {
              "internalType": "uint64",
              "name": "kickbackPortion",
              "type": "uint64"
            }
          ],
          "internalType": "struct IAccounting.DebtPosition",
          "name": "dp",
          "type": "tuple"
        }
      ],
      "stateMutability": "view",
      "type": "function"
    },
    {
      "inputs": [
        {
          "internalType": "uint16",
          "name": "poolID",
          "type": "uint16"
        }
      ],
      "name": "getRewardStatus",
      "outputs": [
        {
          "components": [
            {
              "internalType": "uint256",
              "name": "totalRewards",
              "type": "uint256"
            },
            {
              "internalType": "uint256",
              "name": "cumulativeLiquidity",
              "type": "uint256"
            }
          ],
          "internalType": "struct IAccounting.RewardStatus",
          "name": "",
          "type": "tuple"
        }
      ],
      "stateMutability": "view",
      "type": "function"
    },
    {
      "inputs": [],
      "name": "getSystemDebtInfo",
      "outputs": [
        {
          "components": [
            {
              "internalType": "uint256",
              "name": "debt",
              "type": "uint256"
            },
            {
              "internalType": "uint256",
              "name": "totalTCPRewards",
              "type": "uint256"
            },
            {
              "internalType": "uint256",
              "name": "cumulativeDebt",
              "type": "uint256"
            },
            {
              "internalType": "uint256",
              "name": "debtExchangeRate",
              "type": "uint256"
            }
          ],
          "internalType": "struct IAccounting.SystemDebtInfo",
          "name": "",
          "type": "tuple"
        }
      ],
      "stateMutability": "view",
      "type": "function"
    },
    {
      "inputs": [
        {
          "internalType": "uint256",
          "name": "collateralCount",
          "type": "uint256"
        },
        {
          "internalType": "uint256",
          "name": "debtCount",
          "type": "uint256"
        }
      ],
      "name": "getTick",
      "outputs": [
        {
          "internalType": "int24",
          "name": "",
          "type": "int24"
        }
      ],
      "stateMutability": "pure",
      "type": "function"
    },
    {
      "inputs": [
        {
          "internalType": "uint32",
          "name": "start",
          "type": "uint32"
        },
        {
          "internalType": "uint32",
          "name": "end",
          "type": "uint32"
        }
      ],
      "name": "getUIs",
      "outputs": [
        {
          "components": [
            {
              "internalType": "address",
              "name": "kickbackDestination",
              "type": "address"
            },
            {
              "internalType": "uint64",
              "name": "kickbackPortion",
              "type": "uint64"
            },
            {
              "internalType": "enum IAccounting.UIGovernanceRating",
              "name": "governanceRating",
              "type": "uint8"
            },
            {
              "internalType": "uint24",
              "name": "tags",
              "type": "uint24"
            },
            {
              "internalType": "string",
              "name": "ipfsHash",
              "type": "string"
            }
          ],
          "internalType": "struct IAccounting.UserInterface[]",
          "name": "uis",
          "type": "tuple[]"
        }
      ],
      "stateMutability": "view",
      "type": "function"
    },
    {
      "inputs": [],
      "name": "governor",
      "outputs": [
        {
          "internalType": "contract IGovernor",
          "name": "",
          "type": "address"
        }
      ],
      "stateMutability": "view",
      "type": "function"
    },
    {
      "inputs": [
        {
          "internalType": "uint256",
          "name": "count",
          "type": "uint256"
        }
      ],
      "name": "increaseDebt",
      "outputs": [],
      "stateMutability": "nonpayable",
      "type": "function"
    },
    {
      "inputs": [
        {
          "internalType": "uint256",
          "name": "count",
          "type": "uint256"
        }
      ],
      "name": "increaseLentHue",
      "outputs": [],
      "stateMutability": "nonpayable",
      "type": "function"
    },
    {
      "inputs": [
        {
          "internalType": "contract IUniswapV3Pool",
          "name": "pool",
          "type": "address"
        },
        {
          "internalType": "uint256",
          "name": "liquidity",
          "type": "uint256"
        }
      ],
      "name": "increasePoolLiquidity",
      "outputs": [],
      "stateMutability": "nonpayable",
      "type": "function"
    },
    {
      "inputs": [
        {
          "internalType": "contract IGovernor",
          "name": "_governor",
          "type": "address"
        }
      ],
      "name": "init",
      "outputs": [],
      "stateMutability": "nonpayable",
      "type": "function"
    },
    {
      "inputs": [],
      "name": "lentHue",
      "outputs": [
        {
          "internalType": "uint256",
          "name": "",
          "type": "uint256"
        }
      ],
      "stateMutability": "view",
      "type": "function"
    },
    {
      "inputs": [],
      "name": "lowestTick",
      "outputs": [
        {
          "internalType": "int24",
          "name": "",
          "type": "int24"
        }
      ],
      "stateMutability": "view",
      "type": "function"
    },
    {
      "inputs": [],
      "name": "nextUserInterfaceID",
      "outputs": [
        {
          "internalType": "uint32",
          "name": "",
          "type": "uint32"
        }
      ],
      "stateMutability": "view",
      "type": "function"
    },
    {
      "inputs": [
        {
          "internalType": "address",
          "name": "",
          "type": "address"
        },
        {
          "internalType": "address",
          "name": "",
          "type": "address"
        },
        {
          "internalType": "uint256",
          "name": "",
          "type": "uint256"
        },
        {
          "internalType": "bytes",
          "name": "",
          "type": "bytes"
        }
      ],
      "name": "onERC721Received",
      "outputs": [
        {
          "internalType": "bytes4",
          "name": "",
          "type": "bytes4"
        }
      ],
      "stateMutability": "pure",
      "type": "function"
    },
    {
      "inputs": [
        {
          "internalType": "address",
          "name": "newRewards",
          "type": "address"
        }
      ],
      "name": "onRewardsUpgrade",
      "outputs": [],
      "stateMutability": "nonpayable",
      "type": "function"
    },
    {
      "inputs": [
        {
          "internalType": "contract IUniswapV3Pool",
          "name": "",
          "type": "address"
        }
      ],
      "name": "poolLiquidity",
      "outputs": [
        {
          "internalType": "uint256",
          "name": "",
          "type": "uint256"
        }
      ],
      "stateMutability": "view",
      "type": "function"
    },
    {
      "inputs": [],
      "name": "poolPositionIndexingEnabled",
      "outputs": [
        {
          "internalType": "bool",
          "name": "",
          "type": "bool"
        }
      ],
      "stateMutability": "view",
      "type": "function"
    },
    {
      "inputs": [
        {
          "internalType": "int24",
          "name": "tick",
          "type": "int24"
        }
      ],
      "name": "positionsForTick",
      "outputs": [
        {
          "internalType": "uint64[]",
          "name": "",
          "type": "uint64[]"
        }
      ],
      "stateMutability": "view",
      "type": "function"
    },
    {
      "inputs": [
        {
          "internalType": "uint64",
          "name": "kickbackPortion",
          "type": "uint64"
        },
        {
          "internalType": "uint24",
          "name": "tags",
          "type": "uint24"
        },
        {
          "internalType": "string",
          "name": "ipfsHash",
          "type": "string"
        }
      ],
      "name": "registerUI",
      "outputs": [
        {
          "internalType": "uint32",
          "name": "",
          "type": "uint32"
        }
      ],
      "stateMutability": "nonpayable",
      "type": "function"
    },
    {
      "inputs": [
        {
          "internalType": "address payable",
          "name": "dest",
          "type": "address"
        },
        {
          "internalType": "uint256",
          "name": "count",
          "type": "uint256"
        }
      ],
      "name": "sendCollateral",
      "outputs": [],
      "stateMutability": "nonpayable",
      "type": "function"
    },
    {
      "inputs": [
        {
          "internalType": "address",
          "name": "dest",
          "type": "address"
        },
        {
          "internalType": "uint256",
          "name": "count",
          "type": "uint256"
        }
      ],
      "name": "sendLentHue",
      "outputs": [],
      "stateMutability": "nonpayable",
      "type": "function"
    },
    {
      "inputs": [
        {
          "internalType": "uint256",
          "name": "nftID",
          "type": "uint256"
        },
        {
          "components": [
            {
              "internalType": "address",
              "name": "owner",
              "type": "address"
            },
            {
              "internalType": "uint16",
              "name": "poolID",
              "type": "uint16"
            },
            {
              "internalType": "uint256",
              "name": "cumulativeLiquidity",
              "type": "uint256"
            },
            {
              "internalType": "uint256",
              "name": "totalRewards",
              "type": "uint256"
            },
            {
              "internalType": "uint256",
              "name": "lastBlockPositionIncreased",
              "type": "uint256"
            },
            {
              "internalType": "uint128",
              "name": "liquidity",
              "type": "uint128"
            },
            {
              "internalType": "uint64",
              "name": "lastTimeRewarded",
              "type": "uint64"
            },
            {
              "internalType": "int24",
              "name": "tickLower",
              "type": "int24"
            },
            {
              "internalType": "int24",
              "name": "tickUpper",
              "type": "int24"
            },
            {
              "internalType": "uint32",
              "name": "ui",
              "type": "uint32"
            },
            {
              "internalType": "address",
              "name": "kickbackDestination",
              "type": "address"
            },
            {
              "internalType": "uint64",
              "name": "kickbackPortion",
              "type": "uint64"
            }
          ],
          "internalType": "struct IAccounting.PoolPosition",
          "name": "pp",
          "type": "tuple"
        }
      ],
      "name": "setPoolPosition",
      "outputs": [],
      "stateMutability": "nonpayable",
      "type": "function"
    },
    {
      "inputs": [
        {
          "internalType": "uint64",
          "name": "positionID",
          "type": "uint64"
        },
        {
          "components": [
            {
              "internalType": "uint256",
              "name": "startCumulativeDebt",
              "type": "uint256"
            },
            {
              "internalType": "uint256",
              "name": "collateral",
              "type": "uint256"
            },
            {
              "internalType": "uint256",
              "name": "debt",
              "type": "uint256"
            },
            {
              "internalType": "uint256",
              "name": "startDebtExchangeRate",
              "type": "uint256"
            },
            {
              "internalType": "uint256",
              "name": "startTCPRewards",
              "type": "uint256"
            },
            {
              "internalType": "uint64",
              "name": "lastTimeUpdated",
              "type": "uint64"
            },
            {
              "internalType": "uint64",
              "name": "lastBorrowTime",
              "type": "uint64"
            },
            {
              "internalType": "int24",
              "name": "tick",
              "type": "int24"
            },
            {
              "internalType": "bool",
              "name": "tickSet",
              "type": "bool"
            },
            {
              "internalType": "uint64",
              "name": "tickIndex",
              "type": "uint64"
            },
            {
              "internalType": "uint32",
              "name": "ui",
              "type": "uint32"
            },
            {
              "internalType": "address",
              "name": "kickbackDestination",
              "type": "address"
            },
            {
              "internalType": "uint64",
              "name": "kickbackPortion",
              "type": "uint64"
            }
          ],
          "internalType": "struct IAccounting.DebtPosition",
          "name": "dp",
          "type": "tuple"
        }
      ],
      "name": "setPosition",
      "outputs": [],
      "stateMutability": "nonpayable",
      "type": "function"
    },
    {
      "inputs": [
        {
          "internalType": "uint16",
          "name": "poolID",
          "type": "uint16"
        },
        {
          "components": [
            {
              "internalType": "uint256",
              "name": "totalRewards",
              "type": "uint256"
            },
            {
              "internalType": "uint256",
              "name": "cumulativeLiquidity",
              "type": "uint256"
            }
          ],
          "internalType": "struct IAccounting.RewardStatus",
          "name": "rs",
          "type": "tuple"
        }
      ],
      "name": "setRewardStatus",
      "outputs": [],
      "stateMutability": "nonpayable",
      "type": "function"
    },
    {
      "inputs": [
        {
          "components": [
            {
              "internalType": "uint256",
              "name": "debt",
              "type": "uint256"
            },
            {
              "internalType": "uint256",
              "name": "totalTCPRewards",
              "type": "uint256"
            },
            {
              "internalType": "uint256",
              "name": "cumulativeDebt",
              "type": "uint256"
            },
            {
              "internalType": "uint256",
              "name": "debtExchangeRate",
              "type": "uint256"
            }
          ],
          "internalType": "struct IAccounting.SystemDebtInfo",
          "name": "_sdi",
          "type": "tuple"
        }
      ],
      "name": "setSystemDebtInfo",
      "outputs": [],
      "stateMutability": "nonpayable",
      "type": "function"
    },
    {
      "inputs": [
        {
          "internalType": "int24",
          "name": "rawTick",
          "type": "int24"
        },
        {
          "internalType": "int24",
          "name": "tickSpacing",
          "type": "int24"
        }
      ],
      "name": "snapRawTickToSpacing",
      "outputs": [
        {
          "internalType": "int24",
          "name": "",
          "type": "int24"
        }
      ],
      "stateMutability": "pure",
      "type": "function"
    },
    {
      "inputs": [],
      "name": "stopIndexingDebtPositions",
      "outputs": [],
      "stateMutability": "nonpayable",
      "type": "function"
    },
    {
      "inputs": [],
      "name": "stopIndexingPoolPositions",
      "outputs": [],
      "stateMutability": "nonpayable",
      "type": "function"
    },
    {
      "inputs": [],
      "name": "stopped",
      "outputs": [
        {
          "internalType": "bool",
          "name": "",
          "type": "bool"
        }
      ],
      "stateMutability": "view",
      "type": "function"
    },
    {
      "inputs": [],
      "name": "sweepHue",
      "outputs": [],
      "stateMutability": "nonpayable",
      "type": "function"
    },
    {
      "inputs": [
        {
          "internalType": "uint256",
          "name": "",
          "type": "uint256"
        }
      ],
      "name": "userInterfaces",
      "outputs": [
        {
          "internalType": "address",
          "name": "kickbackDestination",
          "type": "address"
        },
        {
          "internalType": "uint64",
          "name": "kickbackPortion",
          "type": "uint64"
        },
        {
          "internalType": "enum IAccounting.UIGovernanceRating",
          "name": "governanceRating",
          "type": "uint8"
        },
        {
          "internalType": "uint24",
          "name": "tags",
          "type": "uint24"
        },
        {
          "internalType": "string",
          "name": "ipfsHash",
          "type": "string"
        }
      ],
      "stateMutability": "view",
      "type": "function"
    },
    {
      "inputs": [
        {
          "internalType": "bytes4",
          "name": "",
          "type": "bytes4"
        }
      ],
      "name": "validUpdate",
      "outputs": [
        {
          "internalType": "bool",
          "name": "",
          "type": "bool"
        }
      ],
      "stateMutability": "view",
      "type": "function"
    },
    {
      "stateMutability": "payable",
      "type": "receive"
    }
  ],
  "bytecode": "0x60a060405260016006600050909055627fffff600760006101000a81548162ffffff021916908360020b62ffffff1602179055506001600960006101000a81548160ff0219169083151502179055506001600960016101000a81548160ff0219169083151502179055506001601360006101000a81548163ffffffff021916908363ffffffff160217905550348015620000995760006000fd5b5060405162007c6438038062007c648339818101604052810190620000bf91906200014e565b5b805b5b33600160006101000a81548173ffffffffffffffffffffffffffffffffffffffff021916908373ffffffffffffffffffffffffffffffffffffffff1602179055505b8073ffffffffffffffffffffffffffffffffffffffff1660808173ffffffffffffffffffffffffffffffffffffffff1660601b815260140150505b505b50620001855662000184565b60006020828403121562000160578081fd5b81516001600160a01b0381168114151562000179578182fd5b809150505b92915050565b5b60805160601c617abc620001a8600039806132745280614eec5250617abc6000f3fe6080604052600436106103015760003560e01c8063625021691161018f578063b87e8d58116100e1578063d99f57261161008a578063f34348f111610064578063f34348f114610bdd578063f709960714610c1b578063fd9c749214610c45576103e2565b8063d99f572614610b35578063dd88486314610b73578063e2b1e9e314610bb1576103e2565b8063c7711db4116100bb578063c7711db414610a8d578063d159b4ae14610acb578063d5f3948814610b09576103e2565b8063b87e8d58146109f9578063bdb2a49614610a37578063c3c837ba14610a4f576103e2565b80637f250c6111610143578063a135ef171161011d578063a135ef1714610967578063a678f336146109a5578063b241bbac146109cf576103e2565b80637f250c61146108e5578063816aaa2514610911578063a0bf0e221461093b576103e2565b806375ea13ca1161017457806375ea13ca1461086557806375f12b211461088f57806378efc6b0146108bb576103e2565b806362502169146107fc5780636594da9f14610826576103e2565b8063230173e011610253578063461054a3116101fc578063530c1ccb116101d6578063530c1ccb146107905780635a6beaf4146107ba578063602db56b146107e4576103e2565b8063461054a31461070e57806346ca626b1461072657806351ad51f714610752576103e2565b80632b7c7b111161022d5780632b7c7b11146106905780632c73f09e146106ba578063397d3592146106e4576103e2565b8063230173e01461061257806326879a4e1461063c5780632a7ba1f714610666576103e2565b80630f85fc5a116102b5578063150b7a021161028f578063150b7a021461056857806318a15e79146105a657806319ab453c146105e8576103e2565b80630f85fc5a146104c2578063113cf1ab146105005780631428561d1461053e576103e2565b80630b218d24116102e65780630b218d24146104405780630c340a241461046a5780630dca59c114610496576103e2565b806306ef2d80146103e8578063092a26c314610414576103e2565b366103e2575b600060009054906101000a900473ffffffffffffffffffffffffffffffffffffffff1673ffffffffffffffffffffffffffffffffffffffff166380f556056040518163ffffffff1660e01b815260040160206040518083038186803b1580156103705760006000fd5b505afa158015610385573d600060003e3d6000fd5b505050506040513d601f19601f820116820180604052508101906103a99190616ac2565b73ffffffffffffffffffffffffffffffffffffffff163373ffffffffffffffffffffffffffffffffffffffff161415156103df57fe5b5b005b60006000fd5b3480156103f55760006000fd5b506103fe610c71565b60405161040b919061796a565b60405180910390f35b3480156104215760006000fd5b5061042a610c91565b6040516104379190617597565b60405180910390f35b34801561044d5760006000fd5b506104686004803603810190610463919061694c565b610ca4565b005b3480156104775760006000fd5b50610480610d66565b60405161048d91906175df565b60405180910390f35b3480156104a35760006000fd5b506104ac610d8c565b6040516104b9919061799b565b60405180910390f35b3480156104cf5760006000fd5b506104ea60048036038101906104e59190616eb3565b610dcf565b6040516104f79190617796565b60405180910390f35b34801561050d5760006000fd5b5061052860048036038101906105239190616a00565b610eee565b6040516105359190617597565b60405180910390f35b34801561054b5760006000fd5b5061056660048036038101906105619190616b5e565b610f13565b005b3480156105755760006000fd5b50610590600480360381019061058b9190616875565b6110b6565b60405161059d91906175ab565b60405180910390f35b3480156105b35760006000fd5b506105ce60048036038101906105c99190616d03565b6110fc565b6040516105df95949392919061733d565b60405180910390f35b3480156105f55760006000fd5b50610610600480360381019061060b9190616a74565b611220565b005b34801561061f5760006000fd5b5061063a6004803603810190610635919061691b565b611631565b005b3480156106495760006000fd5b50610664600480360381019061065f9190616d03565b611646565b005b3480156106735760006000fd5b5061068e60048036038101906106899190616d03565b6118ba565b005b34801561069d5760006000fd5b506106b860048036038101906106b39190616d03565b611980565b005b3480156106c75760006000fd5b506106e260048036038101906106dd9190616d03565b611b16565b005b3480156106f15760006000fd5b5061070c6004803603810190610707919061694c565b611c38565b005b34801561071b5760006000fd5b50610724611cfa565b005b3480156107335760006000fd5b5061073c611d53565b6040516107499190617607565b60405180910390f35b34801561075f5760006000fd5b5061077a60048036038101906107759190616c52565b611d58565b604051610787919061794d565b60405180910390f35b34801561079d5760006000fd5b506107b860048036038101906107b39190616b5e565b611db5565b005b3480156107c75760006000fd5b506107e260048036038101906107dd9190616ed6565b611f58565b005b3480156107f15760006000fd5b506107fa612153565b005b3480156108095760006000fd5b50610824600480360381019061081f9190616844565b6121ac565b005b3480156108335760006000fd5b5061084e60048036038101906108499190616eb3565b612224565b60405161085c9291906179ad565b60405180910390f35b3480156108725760006000fd5b5061088d6004803603810190610888919061691b565b6123b7565b005b34801561089c5760006000fd5b506108a56124c5565b6040516108b29190617597565b60405180910390f35b3480156108c85760006000fd5b506108e360048036038101906108de9190616bf2565b6124d8565b005b3480156108f25760006000fd5b506108fb6125e6565b604051610908919061799b565b60405180910390f35b34801561091e5760006000fd5b5061093960048036038101906109349190616d3b565b6125ef565b005b3480156109485760006000fd5b506109516126ff565b60405161095e9190617607565b60405180910390f35b3480156109745760006000fd5b5061098f600480360381019061098a9190616b37565b612712565b60405161099c919061799b565b60405180910390f35b3480156109b25760006000fd5b506109cd60048036038101906109c8919061681d565b61272d565b005b3480156109dc5760006000fd5b506109f760048036038101906109f2919061691b565b61274f565b005b348015610a065760006000fd5b50610a216004803603810190610a1c919061681d565b6128a5565b604051610a2e919061748b565b60405180910390f35b348015610a445760006000fd5b50610a4d612908565b005b348015610a5c5760006000fd5b50610a776004803603810190610a729190616e7f565b612a40565b604051610a8491906173a1565b60405180910390f35b348015610a9a5760006000fd5b50610ab56004803603810190610ab09190616b8f565b612caf565b604051610ac2919061753f565b60405180910390f35b348015610ad85760006000fd5b50610af36004803603810190610aee9190616e59565b612d6f565b604051610b009190617607565b60405180910390f35b348015610b165760006000fd5b50610b1f612e05565b604051610b2c91906172bc565b60405180910390f35b348015610b425760006000fd5b50610b5d6004803603810190610b589190616bb6565b612e2b565b604051610b6a9190617607565b60405180910390f35b348015610b805760006000fd5b50610b9b6004803603810190610b969190617001565b612e9c565b604051610ba891906179c6565b60405180910390f35b348015610bbe5760006000fd5b50610bc76130fd565b604051610bd491906179c6565b60405180910390f35b348015610bea5760006000fd5b50610c056004803603810190610c009190616d03565b613113565b604051610c129190617874565b60405180910390f35b348015610c285760006000fd5b50610c436004803603810190610c3e9190616c75565b6133bb565b005b348015610c525760006000fd5b50610c5b6134fe565b604051610c689190617597565b60405180910390f35b610c7961642a565b610c8761351163ffffffff16565b9050610c8e565b90565b600960009054906101000a900460ff1681565b610cb261369163ffffffff16565b6000600090505b8151811015610d29576002601460005060008484815181101515610cd957fe5b602002602001015163ffffffff168152602001908152602001600020600050600001601c6101000a81548160ff02191690836002811115610d1657fe5b02179055505b8080600101915050610cb9565b507f7264e0084cbb7692193b834f40153b973ff4f827f8ed45da32ae6d8e486bb0c781604051610d5991906174eb565b60405180910390a15b5b50565b600060009054906101000a900473ffffffffffffffffffffffffffffffffffffffff1681565b6000600c60005060010160009054906101000a90046fffffffffffffffffffffffffffffffff166fffffffffffffffffffffffffffffffff169050610dcc565b90565b610dd7616455565b610de68261372663ffffffff16565b90508050600081610140015163ffffffff161115610ee1576014600050600082610140015163ffffffff16815260200190815260200160002060005060000160009054906101000a900473ffffffffffffffffffffffffffffffffffffffff1681610160019073ffffffffffffffffffffffffffffffffffffffff16908173ffffffffffffffffffffffffffffffffffffffff16815260200150506014600050600082610140015163ffffffff16815260200190815260200160002060005060000160149054906101000a900467ffffffffffffffff1681610180019067ffffffffffffffff16908167ffffffffffffffff16815260200150505b809050610ee9565b919050565b600560005060205280600052604060002060009150909054906101000a900460ff1681565b610f21613ac263ffffffff16565b610fff600060009054906101000a900473ffffffffffffffffffffffffffffffffffffffff1673ffffffffffffffffffffffffffffffffffffffff16639ec5a8946040518163ffffffff1660e01b815260040160206040518083038186803b158015610f8d5760006000fd5b505afa158015610fa2573d600060003e3d6000fd5b505050506040513d601f19601f82011682018060405250810190610fc69190616b10565b73ffffffffffffffffffffffffffffffffffffffff163373ffffffffffffffffffffffffffffffffffffffff1614613b1d63ffffffff16565b61105781601160005060008573ffffffffffffffffffffffffffffffffffffffff1673ffffffffffffffffffffffffffffffffffffffff16815260200190815260200160002060005054613b6390919063ffffffff16565b601160005060008473ffffffffffffffffffffffffffffffffffffffff1673ffffffffffffffffffffffffffffffffffffffff1681526020019081526020016000206000508190909055505b6110b1613bec63ffffffff16565b5b5050565b60006040517f08c379a00000000000000000000000000000000000000000000000000000000081526004016110ea90617718565b60405180910390fd5b95945050505050565b60146000506020528060005260406000206000915090508060000160009054906101000a900473ffffffffffffffffffffffffffffffffffffffff16908060000160149054906101000a900467ffffffffffffffff169080600001601c9054906101000a900460ff169080600001601d9054906101000a900462ffffff1690806001016000508054600181600116156101000203166002900480601f0160208091040260200160405190810160405280929190818152602001828054600181600116156101000203166002900480156112165780601f106111eb57610100808354040283529160200191611216565b820191906000526020600020905b8154815290600101906020018083116111f957829003601f168201915b5050505050905085565b600160009054906101000a900473ffffffffffffffffffffffffffffffffffffffff1673ffffffffffffffffffffffffffffffffffffffff163373ffffffffffffffffffffffffffffffffffffffff1614151561127d5760006000fd5b600160159054906101000a900460ff1615151561129a5760006000fd5b80600060006101000a81548173ffffffffffffffffffffffffffffffffffffffff021916908373ffffffffffffffffffffffffffffffffffffffff160217905550600060009054906101000a900473ffffffffffffffffffffffffffffffffffffffff1673ffffffffffffffffffffffffffffffffffffffff16639624e83e6040518163ffffffff1660e01b815260040160206040518083038186803b1580156113445760006000fd5b505afa158015611359573d600060003e3d6000fd5b505050506040513d601f19601f8201168201806040525081019061137d9190616a4d565b600260006101000a81548173ffffffffffffffffffffffffffffffffffffffff021916908373ffffffffffffffffffffffffffffffffffffffff160217905550600060009054906101000a900473ffffffffffffffffffffffffffffffffffffffff1673ffffffffffffffffffffffffffffffffffffffff1663323741746040518163ffffffff1660e01b815260040160206040518083038186803b1580156114265760006000fd5b505afa15801561143b573d600060003e3d6000fd5b505050506040513d601f19601f8201168201806040525081019061145f9190616a9b565b600360006101000a81548173ffffffffffffffffffffffffffffffffffffffff021916908373ffffffffffffffffffffffffffffffffffffffff160217905550600060009054906101000a900473ffffffffffffffffffffffffffffffffffffffff1673ffffffffffffffffffffffffffffffffffffffff1663d478b0876040518163ffffffff1660e01b815260040160206040518083038186803b1580156115085760006000fd5b505afa15801561151d573d600060003e3d6000fd5b505050506040513d601f19601f820116820180604052508101906115419190616ae9565b600460006101000a81548173ffffffffffffffffffffffffffffffffffffffff021916908373ffffffffffffffffffffffffffffffffffffffff16021790555061158f613bfc63ffffffff16565b600160149054906101000a900460ff16156115c4576001600160156101000a81548160ff0219169083151502179055506115ea565b600160006101000a81549073ffffffffffffffffffffffffffffffffffffffff02191690555b8073ffffffffffffffffffffffffffffffffffffffff167f908408e307fc569b417f6cbec5d5a06f44a0a505ac0479b47d421a4b2fd6a1e660405160405180910390a25b50565b6116418282613ed663ffffffff16565b5b5050565b611654613ac263ffffffff16565b611732600060009054906101000a900473ffffffffffffffffffffffffffffffffffffffff1673ffffffffffffffffffffffffffffffffffffffff16639ec5a8946040518163ffffffff1660e01b815260040160206040518083038186803b1580156116c05760006000fd5b505afa1580156116d5573d600060003e3d6000fd5b505050506040513d601f19601f820116820180604052508101906116f99190616b10565b73ffffffffffffffffffffffffffffffffffffffff163373ffffffffffffffffffffffffffffffffffffffff1614613b1d63ffffffff16565b6117d561174682613f43909063ffffffff16565b601260005060006010600050600086815260200190815260200160002060005060000160009054906101000a900473ffffffffffffffffffffffffffffffffffffffff1673ffffffffffffffffffffffffffffffffffffffff1673ffffffffffffffffffffffffffffffffffffffff168152602001908152602001600020600050613fdd90919063ffffffff16565b506010600050600082815260200190815260200160002060006000820160006101000a81549073ffffffffffffffffffffffffffffffffffffffff02191690556000820160146101000a81549061ffff02191690556000820160166101000a81549063ffffffff021916905560018201600050600090556002820160006101000a81549075ffffffffffffffffffffffffffffffffffffffffffff02191690556002820160166101000a81549064ffffffffff021916905560028201601b6101000a81549064ffffffffff021916905550505b6118b6613bec63ffffffff16565b5b50565b6118c8613ac263ffffffff16565b6118d66141f463ffffffff16565b61192f61192282600c60005060010160009054906101000a90046fffffffffffffffffffffffffffffffff166fffffffffffffffffffffffffffffffff1661428490919063ffffffff16565b613f43909063ffffffff16565b600c60005060010160006101000a8154816fffffffffffffffffffffffffffffffff02191690836fffffffffffffffffffffffffffffffff1602179055505b61197c613bec63ffffffff16565b5b50565b61198e613ac263ffffffff16565b611a6c600060009054906101000a900473ffffffffffffffffffffffffffffffffffffffff1673ffffffffffffffffffffffffffffffffffffffff166380f556056040518163ffffffff1660e01b815260040160206040518083038186803b1580156119fa5760006000fd5b505afa158015611a0f573d600060003e3d6000fd5b505050506040513d601f19601f82011682018060405250810190611a339190616ac2565b73ffffffffffffffffffffffffffffffffffffffff163373ffffffffffffffffffffffffffffffffffffffff1614613b1d63ffffffff16565b611ac5611ab882600c60005060010160009054906101000a90046fffffffffffffffffffffffffffffffff166fffffffffffffffffffffffffffffffff16613b6390919063ffffffff16565b613f43909063ffffffff16565b600c60005060010160006101000a8154816fffffffffffffffffffffffffffffffff02191690836fffffffffffffffffffffffffffffffff1602179055505b611b12613bec63ffffffff16565b5b50565b611b24613ac263ffffffff16565b611c02600060009054906101000a900473ffffffffffffffffffffffffffffffffffffffff1673ffffffffffffffffffffffffffffffffffffffff166380f556056040518163ffffffff1660e01b815260040160206040518083038186803b158015611b905760006000fd5b505afa158015611ba5573d600060003e3d6000fd5b505050506040513d601f19601f82011682018060405250810190611bc99190616ac2565b73ffffffffffffffffffffffffffffffffffffffff163373ffffffffffffffffffffffffffffffffffffffff1614613b1d63ffffffff16565b611c1a81600b60005054613b6390919063ffffffff16565b600b6000508190909055505b611c34613bec63ffffffff16565b5b50565b611c4661369163ffffffff16565b6000600090505b8151811015611cbd576001601460005060008484815181101515611c6d57fe5b602002602001015163ffffffff168152602001908152602001600020600050600001601c6101000a81548160ff02191690836002811115611caa57fe5b02179055505b8080600101915050611c4d565b507f2e54370527117fb69828eac075cb3ed33fe59712134dfd3ef6efc9bd8b60c1ec81604051611ced91906174eb565b60405180910390a15b5b50565b611d0861369163ffffffff16565b6000600960006101000a81548160ff0219169083151502179055507f262b602ad12e3e551a407d5246b500f4ca5a01cc76bbf03e925db643a62a692f60405160405180910390a15b5b565b60c881565b611d60616509565b600f60005060008361ffff1661ffff168152602001908152602001600020600050604051806040016040529081600082016000505481526020016001820160005054815260200150509050611db0565b919050565b611dc3613ac263ffffffff16565b611ea1600060009054906101000a900473ffffffffffffffffffffffffffffffffffffffff1673ffffffffffffffffffffffffffffffffffffffff16639ec5a8946040518163ffffffff1660e01b815260040160206040518083038186803b158015611e2f5760006000fd5b505afa158015611e44573d600060003e3d6000fd5b505050506040513d601f19601f82011682018060405250810190611e689190616b10565b73ffffffffffffffffffffffffffffffffffffffff163373ffffffffffffffffffffffffffffffffffffffff1614613b1d63ffffffff16565b611ef981601160005060008573ffffffffffffffffffffffffffffffffffffffff1673ffffffffffffffffffffffffffffffffffffffff1681526020019081526020016000206000505461428490919063ffffffff16565b601160005060008473ffffffffffffffffffffffffffffffffffffffff1673ffffffffffffffffffffffffffffffffffffffff1681526020019081526020016000206000508190909055505b611f53613bec63ffffffff16565b5b5050565b611f66613ac263ffffffff16565b611f746141f463ffffffff16565b600960009054906101000a900460ff168015611f9b575060008267ffffffffffffffff1614155b15611fb557611fb0828261430d63ffffffff16565b905080505b60008160200151148015611fcd575060008160400151145b1561212e57600860005060008367ffffffffffffffff1667ffffffffffffffff168152602001908152602001600020600060008201600050600090556001820160006101000a8154906fffffffffffffffffffffffffffffffff02191690556001820160106101000a8154906fffffffffffffffffffffffffffffffff02191690556002820160006101000a8154906fffffffffffffffffffffffffffffffff02191690556002820160106101000a8154906fffffffffffffffffffffffffffffffff02191690556003820160006101000a81549067ffffffffffffffff02191690556003820160086101000a81549067ffffffffffffffff02191690556003820160106101000a81549062ffffff02191690556003820160136101000a81549060ff02191690556003820160146101000a81549067ffffffffffffffff021916905560038201601c6101000a81549063ffffffff0219169055505061213f565b61213e82826146d863ffffffff16565b5b5b61214e613bec63ffffffff16565b5b5050565b61216161369163ffffffff16565b6000600960016101000a81548160ff0219169083151502179055507fc4f6661464541d662c51191d4da5a7a1cc8bca2631698fd030e21b52520a549c60405160405180910390a15b5b565b6121ba613ac263ffffffff16565b6121c86141f463ffffffff16565b8173ffffffffffffffffffffffffffffffffffffffff166108fc829081150290604051600060405180830381858888f1935050505015801561220f573d600060003e3d6000fd5b505b61221f613bec63ffffffff16565b5b5050565b60006000600860005060008467ffffffffffffffff1667ffffffffffffffff16815260200190815260200160002060005060010160109054906101000a90046fffffffffffffffffffffffffffffffff166fffffffffffffffffffffffffffffffff1691508150600860005060008467ffffffffffffffff1667ffffffffffffffff16815260200190815260200160002060005060010160009054906101000a90046fffffffffffffffffffffffffffffffff166fffffffffffffffffffffffffffffffff16905080506000600860005060008567ffffffffffffffff1667ffffffffffffffff16815260200190815260200160002060005060020160009054906101000a90046fffffffffffffffffffffffffffffffff166fffffffffffffffffffffffffffffffff1690506000600c60005060010160109054906101000a90046fffffffffffffffffffffffffffffffff166fffffffffffffffffffffffffffffffff16905080821415156123af576123aa818386614a469092919063ffffffff16565b935083505b50505b915091565b600960019054906101000a900460ff1615156123d2576124c1565b6124b0600060009054906101000a900473ffffffffffffffffffffffffffffffffffffffff1673ffffffffffffffffffffffffffffffffffffffff16639ec5a8946040518163ffffffff1660e01b815260040160206040518083038186803b15801561243e5760006000fd5b505afa158015612453573d600060003e3d6000fd5b505050506040513d601f19601f820116820180604052508101906124779190616b10565b73ffffffffffffffffffffffffffffffffffffffff163373ffffffffffffffffffffffffffffffffffffffff1614613b1d63ffffffff16565b6124c08282613ed663ffffffff16565b5b5050565b600060149054906101000a900460ff1681565b6124e6613ac263ffffffff16565b6125c4600060009054906101000a900473ffffffffffffffffffffffffffffffffffffffff1673ffffffffffffffffffffffffffffffffffffffff166380f556056040518163ffffffff1660e01b815260040160206040518083038186803b1580156125525760006000fd5b505afa158015612567573d600060003e3d6000fd5b505050506040513d601f19601f8201168201806040525081019061258b9190616ac2565b73ffffffffffffffffffffffffffffffffffffffff163373ffffffffffffffffffffffffffffffffffffffff1614613b1d63ffffffff16565b6125d381614b4763ffffffff16565b5b6125e2613bec63ffffffff16565b5b50565b600b6000505481565b6125fd613ac263ffffffff16565b6126db600060009054906101000a900473ffffffffffffffffffffffffffffffffffffffff1673ffffffffffffffffffffffffffffffffffffffff16639ec5a8946040518163ffffffff1660e01b815260040160206040518083038186803b1580156126695760006000fd5b505afa15801561267e573d600060003e3d6000fd5b505050506040513d601f19601f820116820180604052508101906126a29190616b10565b73ffffffffffffffffffffffffffffffffffffffff163373ffffffffffffffffffffffffffffffffffffffff1614613b1d63ffffffff16565b6126eb8282614cb963ffffffff16565b5b6126fa613bec63ffffffff16565b5b5050565b600760009054906101000a900460020b81565b60116000506020528060005260406000206000915090505481565b61273b61369163ffffffff16565b61274a81614eea63ffffffff16565b5b5b50565b61275d613ac263ffffffff16565b61283b600060009054906101000a900473ffffffffffffffffffffffffffffffffffffffff1673ffffffffffffffffffffffffffffffffffffffff166380f556056040518163ffffffff1660e01b815260040160206040518083038186803b1580156127c95760006000fd5b505afa1580156127de573d600060003e3d6000fd5b505050506040513d601f19601f820116820180604052508101906128029190616ac2565b73ffffffffffffffffffffffffffffffffffffffff163373ffffffffffffffffffffffffffffffffffffffff1614613b1d63ffffffff16565b61285381600b6000505461428490919063ffffffff16565b600b600050819090905550612891600360009054906101000a900473ffffffffffffffffffffffffffffffffffffffff168383614f7e63ffffffff16565b5b6128a0613bec63ffffffff16565b5b5050565b60606128fc601260005060008473ffffffffffffffffffffffffffffffffffffffff1673ffffffffffffffffffffffffffffffffffffffff16815260200190815260200160002060005061518a909063ffffffff16565b9050612903565b919050565b612916613ac263ffffffff16565b612a2e600360009054906101000a900473ffffffffffffffffffffffffffffffffffffffff16600360009054906101000a900473ffffffffffffffffffffffffffffffffffffffff16612a23600b60005054600360009054906101000a900473ffffffffffffffffffffffffffffffffffffffff1673ffffffffffffffffffffffffffffffffffffffff166370a08231306040518263ffffffff1660e01b81526004016129c391906172e4565b60206040518083038186803b1580156129dc5760006000fd5b505afa1580156129f1573d600060003e3d6000fd5b505050506040513d601f19601f82011682018060405250810190612a159190616d1f565b61428490919063ffffffff16565b614f7e63ffffffff16565b5b612a3d613bec63ffffffff16565b5b565b60608163ffffffff168363ffffffff16101515612a5d5760006000fd5b82820363ffffffff1667ffffffffffffffff81118015612a7d5760006000fd5b50604051908082528060200260200182016040528015612ab757816020015b612aa4616526565b815260200190600190039081612a9c5790505b509050805060005b8263ffffffff168463ffffffff161015612ca757601460005060008580600101965063ffffffff1681526020019081526020016000206000506040518060a00160405290816000820160009054906101000a900473ffffffffffffffffffffffffffffffffffffffff1673ffffffffffffffffffffffffffffffffffffffff1673ffffffffffffffffffffffffffffffffffffffff1681526020016000820160149054906101000a900467ffffffffffffffff1667ffffffffffffffff1667ffffffffffffffff16815260200160008201601c9054906101000a900460ff166002811115612ba957fe5b6002811115612bb457fe5b815260200160008201601d9054906101000a900462ffffff1662ffffff1662ffffff168152602001600182016000508054600181600116156101000203166002900480601f016020809104026020016040519081016040528092919081815260200182805460018160011615610100020316600290048015612c775780601f10612c4c57610100808354040283529160200191612c77565b820191906000526020600020905b815481529060010190602001808311612c5a57829003601f168201915b5050505050815260200150508282806001019350815181101515612c9757fe5b6020026020010181905250612abf565b505b92915050565b6060600a6000506000612cc98460c8612e2b63ffffffff16565b60020b60020b8152602001908152602001600020600050805480602002602001604051908101604052809291908181526020018280548015612d5e57602002820191906000526020600020906000905b82829054906101000a900467ffffffffffffffff1667ffffffffffffffff1681526020019060080190602082600701049283019260010382029150808411612d195790505b50505050509050612d6a565b919050565b60006000821415612d8557627fffff9050612dff565b600083111515612dca576040517f08c379a0000000000000000000000000000000000000000000000000000000008152600401612dc1906176d9565b60405180910390fd5b612df8612deb612de0858561523063ffffffff16565b61529863ffffffff16565b60c8612e2b63ffffffff16565b9050612dff565b92915050565b600160009054906101000a900473ffffffffffffffffffffffffffffffffffffffff1681565b600060008360020b905060008360020b82811515612e4557fe5b0790506000811415612e5b578492505050612e96565b600060008313612e72578460020b82840303612e76565b8183035b9050612e89816156ac909063ffffffff16565b9350505050612e96565050505b92915050565b6000612eac613ac263ffffffff16565b6703782dace9d9000067ffffffffffffffff168467ffffffffffffffff1611151515612f0d576040517f08c379a0000000000000000000000000000000000000000000000000000000008152600401612f0490617757565b60405180910390fd5b63ffffffff63ffffffff16601360009054906101000a900463ffffffff1663ffffffff16101515612f3e5760006000fd5b60006013600081819054906101000a900463ffffffff168092919060010191906101000a81548163ffffffff021916908363ffffffff16021790555090506040518060a001604052803373ffffffffffffffffffffffffffffffffffffffff1681526020018667ffffffffffffffff16815260200160006002811115612fc057fe5b81526020018562ffffff16815260200184815260200150601460005060008363ffffffff16815260200190815260200160002060005060008201518160000160006101000a81548173ffffffffffffffffffffffffffffffffffffffff021916908373ffffffffffffffffffffffffffffffffffffffff16021790555060208201518160000160146101000a81548167ffffffffffffffff021916908367ffffffffffffffff160217905550604082015181600001601c6101000a81548160ff0219169083600281111561309057fe5b0217905550606082015181600001601d6101000a81548162ffffff021916908362ffffff16021790555060808201518160010160005090805190602001906130d9929190616588565b50905050809150506130e756505b6130f5613bec63ffffffff16565b5b9392505050565b601360009054906101000a900463ffffffff1681565b61311b61661b565b61312a8261576463ffffffff16565b905080506000816020015161ffff1611151561317b576040517f08c379a00000000000000000000000000000000000000000000000000000000081526004016131729061769a565b60405180910390fd5b600081610120015163ffffffff161115613272576014600050600082610120015163ffffffff16815260200190815260200160002060005060000160149054906101000a900467ffffffffffffffff1681610160019067ffffffffffffffff16908167ffffffffffffffff16815260200150506014600050600082610120015163ffffffff16815260200190815260200160002060005060000160009054906101000a900473ffffffffffffffffffffffffffffffffffffffff1681610140019073ffffffffffffffffffffffffffffffffffffffff16908173ffffffffffffffffffffffffffffffffffffffff16815260200150505b7f000000000000000000000000000000000000000000000000000000000000000073ffffffffffffffffffffffffffffffffffffffff166399fbab88836040518263ffffffff1660e01b81526004016132cb919061799b565b6101806040518083038186803b1580156132e55760006000fd5b505afa1580156132fa573d600060003e3d6000fd5b505050506040513d601f19601f8201168201806040525081019061331e91906170d2565b909192939495969798999a509091929394959697989950909192939495969798509091929394959697509091929394959650909192509091509050508360e00184610100018560a0018390906fffffffffffffffffffffffffffffffff166fffffffffffffffffffffffffffffffff1681526020015083909060020b60020b81526020015083909060020b60020b8152602001505050505b919050565b6133c9613ac263ffffffff16565b6134a7600060009054906101000a900473ffffffffffffffffffffffffffffffffffffffff1673ffffffffffffffffffffffffffffffffffffffff16639ec5a8946040518163ffffffff1660e01b815260040160206040518083038186803b1580156134355760006000fd5b505afa15801561344a573d600060003e3d6000fd5b505050506040513d601f19601f8201168201806040525081019061346e9190616b10565b73ffffffffffffffffffffffffffffffffffffffff163373ffffffffffffffffffffffffffffffffffffffff1614613b1d63ffffffff16565b80600f60005060008461ffff1661ffff1681526020019081526020016000206000506000820151816000016000509090556020820151816001016000509090559050505b6134f9613bec63ffffffff16565b5b5050565b600960019054906101000a900460ff1681565b61351961642a565b6000600c600050604051806080016040529081600082016000505481526020016001820160009054906101000a90046fffffffffffffffffffffffffffffffff166fffffffffffffffffffffffffffffffff166fffffffffffffffffffffffffffffffff1681526020016001820160109054906101000a90046fffffffffffffffffffffffffffffffff166fffffffffffffffffffffffffffffffff166fffffffffffffffffffffffffffffffff1681526020016002820160009054906101000a90046fffffffffffffffffffffffffffffffff166fffffffffffffffffffffffffffffffff166fffffffffffffffffffffffffffffffff16815260200150509050604051806080016040528082602001516fffffffffffffffffffffffffffffffff16815260200182606001516fffffffffffffffffffffffffffffffff1681526020018260000151815260200182604001516fffffffffffffffffffffffffffffffff1681526020015091505061368e56505b90565b600060009054906101000a900473ffffffffffffffffffffffffffffffffffffffff1673ffffffffffffffffffffffffffffffffffffffff163373ffffffffffffffffffffffffffffffffffffffff16141515613723576040517f08c379a000000000000000000000000000000000000000000000000000000000815260040161371a9061765b565b60405180910390fd5b5b565b61372e616455565b6000600860005060008467ffffffffffffffff1667ffffffffffffffff16815260200190815260200160002060005060405180610160016040529081600082016000505481526020016001820160009054906101000a90046fffffffffffffffffffffffffffffffff166fffffffffffffffffffffffffffffffff166fffffffffffffffffffffffffffffffff1681526020016001820160109054906101000a90046fffffffffffffffffffffffffffffffff166fffffffffffffffffffffffffffffffff166fffffffffffffffffffffffffffffffff1681526020016002820160009054906101000a90046fffffffffffffffffffffffffffffffff166fffffffffffffffffffffffffffffffff166fffffffffffffffffffffffffffffffff1681526020016002820160109054906101000a90046fffffffffffffffffffffffffffffffff166fffffffffffffffffffffffffffffffff166fffffffffffffffffffffffffffffffff1681526020016003820160009054906101000a900467ffffffffffffffff1667ffffffffffffffff1667ffffffffffffffff1681526020016003820160089054906101000a900467ffffffffffffffff1667ffffffffffffffff1667ffffffffffffffff1681526020016003820160109054906101000a900460020b60020b60020b81526020016003820160139054906101000a900460ff161515151581526020016003820160149054906101000a900467ffffffffffffffff1667ffffffffffffffff1667ffffffffffffffff16815260200160038201601c9054906101000a900463ffffffff1663ffffffff1663ffffffff16815260200150509050604051806101a001604052808260000151815260200182602001516fffffffffffffffffffffffffffffffff16815260200182604001516fffffffffffffffffffffffffffffffff16815260200182606001516fffffffffffffffffffffffffffffffff16815260200182608001516fffffffffffffffffffffffffffffffff1681526020018260a0015167ffffffffffffffff1681526020018260c0015167ffffffffffffffff1681526020018260e0015160020b81526020018261010001511515815260200182610120015167ffffffffffffffff16815260200182610140015163ffffffff168152602001600073ffffffffffffffffffffffffffffffffffffffff168152602001600067ffffffffffffffff16815260200150915050613abd56505b919050565b600260066000505414151515613b0d576040517f08c379a0000000000000000000000000000000000000000000000000000000008152600401613b049061761c565b60405180910390fd5b600260066000508190909055505b565b801515613b5f576040517f08c379a0000000000000000000000000000000000000000000000000000000008152600401613b569061765b565b60405180910390fd5b5b50565b60008282840191508110151515613be5576040517f08c379a000000000000000000000000000000000000000000000000000000000815260040180806020018281038252600c8152602001807f6164642d6f766572666c6f77000000000000000000000000000000000000000081526020015060200191505060405180910390fd5b5b92915050565b600160066000508190909055505b565b613c15670de0b6b3a7640000613f43909063ffffffff16565b600c60005060010160106101000a8154816fffffffffffffffffffffffffffffffff02191690836fffffffffffffffffffffffffffffffff160217905550613d03600060009054906101000a900473ffffffffffffffffffffffffffffffffffffffff1673ffffffffffffffffffffffffffffffffffffffff16639ec5a8946040518163ffffffff1660e01b815260040160206040518083038186803b158015613cbf5760006000fd5b505afa158015613cd4573d600060003e3d6000fd5b505050506040513d601f19601f82011682018060405250810190613cf89190616b10565b614eea63ffffffff16565b60016005600050600063461054a360e01b7bffffffffffffffffffffffffffffffffffffffffffffffffffffffff19167bffffffffffffffffffffffffffffffffffffffffffffffffffffffff1916815260200190815260200160002060006101000a81548160ff02191690831515021790555060016005600050600063602db56b60e01b7bffffffffffffffffffffffffffffffffffffffffffffffffffffffff19167bffffffffffffffffffffffffffffffffffffffffffffffffffffffff1916815260200190815260200160002060006101000a81548160ff02191690831515021790555060016005600050600063397d359260e01b7bffffffffffffffffffffffffffffffffffffffffffffffffffffffff19167bffffffffffffffffffffffffffffffffffffffffffffffffffffffff1916815260200190815260200160002060006101000a81548160ff021916908315150217905550600160056000506000630b218d2460e01b7bffffffffffffffffffffffffffffffffffffffffffffffffffffffff19167bffffffffffffffffffffffffffffffffffffffffffffffffffffffff1916815260200190815260200160002060006101000a81548160ff0219169083151502179055505b565b613f3d613eea82613f43909063ffffffff16565b601260005060008573ffffffffffffffffffffffffffffffffffffffff1673ffffffffffffffffffffffffffffffffffffffff1681526020019081526020016000206000506159fa90919063ffffffff16565b505b5050565b600070010000000000000000000000000000000082101515613fd0576040517f08c379a00000000000000000000000000000000000000000000000000000000081526004018080602001828103825260128152602001807f6d6f7265207468616e203132382062697473000000000000000000000000000081526020015060200191505060405180910390fd5b819050613fd8565b919050565b60006000836001016000506000846fffffffffffffffffffffffffffffffff166fffffffffffffffffffffffffffffffff1681526020019081526020016000206000505490506000811415156141e25760006001820390506000600186600001600050805490500390506000866000016000508281548110151561405d57fe5b90600052602060002090600291828204019190066010025b9054906101000a90046fffffffffffffffffffffffffffffffff1690508087600001600050848154811015156140a757fe5b90600052602060002090600291828204019190066010025b6101000a8154816fffffffffffffffffffffffffffffffff02191690836fffffffffffffffffffffffffffffffff16021790555060018301876001016000506000836fffffffffffffffffffffffffffffffff166fffffffffffffffffffffffffffffffff16815260200190815260200160002060005081909090555086600001600050805480151561414e57fe5b60019003818190600052602060002090600291828204019190066010025b6101000a8154906fffffffffffffffffffffffffffffffff02191690559055866001016000506000876fffffffffffffffffffffffffffffffff166fffffffffffffffffffffffffffffffff1681526020019081526020016000206000506000905560019450505050506141ee565050506141ec565b60009150506141ee565b505b92915050565b600060009054906101000a900473ffffffffffffffffffffffffffffffffffffffff1673ffffffffffffffffffffffffffffffffffffffff16637c114fed336040518263ffffffff1660e01b815260040161424f91906172e4565b60006040518083038186803b1580156142685760006000fd5b505afa15801561427d573d600060003e3d6000fd5b505050505b565b60008282840391508111151515614306576040517f08c379a000000000000000000000000000000000000000000000000000000000815260040180806020018281038252600d8152602001807f7375622d756e646572666c6f770000000000000000000000000000000000000081526020015060200191505060405180910390fd5b5b92915050565b614315616455565b6000600860005060008567ffffffffffffffff1667ffffffffffffffff16815260200190815260200160002060005060030160139054906101000a900460ff16905060008161436757627fffff6143a6565b600860005060008667ffffffffffffffff1667ffffffffffffffff16815260200190815260200160002060005060030160109054906101000a900460020b5b90506000600860005060008767ffffffffffffffff1667ffffffffffffffff16815260200190815260200160002060005060030160149054906101000a900467ffffffffffffffff169050600061440b86602001518760400151612d6f63ffffffff16565b90508060020b8360020b1415156146c257808660e0019060020b908160020b815260200150506000627fffff60020b8460020b12156145d857600a60005060008560020b60020b81526020019081526020016000206000509050805060006144816001838054905003615aeb909063ffffffff16565b90508067ffffffffffffffff168467ffffffffffffffff16141515614595576000828267ffffffffffffffff168154811015156144ba57fe5b90600052602060002090600491828204019190066008025b9054906101000a900467ffffffffffffffff16905080838667ffffffffffffffff1681548110151561450057fe5b90600052602060002090600491828204019190066008025b6101000a81548167ffffffffffffffff021916908367ffffffffffffffff16021790555084600860005060008367ffffffffffffffff1667ffffffffffffffff16815260200190815260200160002060005060030160146101000a81548167ffffffffffffffff021916908367ffffffffffffffff160217905550505b8180548015156145a157fe5b60019003818190600052602060002090600491828204019190066008025b6101000a81549067ffffffffffffffff02191690559055505b627fffff60020b8260020b12156146b057600a60005060008360020b60020b8152602001908152602001600020600050905080506146218180549050615aeb909063ffffffff16565b87610120019067ffffffffffffffff16908167ffffffffffffffff1681526020015050600187610100019015159081151581526020015050808890806001815401808255809150506001900390600052602060002090600491828204019190066008025b9091909190916101000a81548167ffffffffffffffff021916908367ffffffffffffffff1602179055505b6146c08483615b7d63ffffffff16565b505b859450505050506146d256505050505b92915050565b604051806101600160405280826000015181526020016147038360200151613f43909063ffffffff16565b6fffffffffffffffffffffffffffffffff16815260200161472f8360400151613f43909063ffffffff16565b6fffffffffffffffffffffffffffffffff16815260200161475b8360600151613f43909063ffffffff16565b6fffffffffffffffffffffffffffffffff1681526020016147878360800151613f43909063ffffffff16565b6fffffffffffffffffffffffffffffffff1681526020018260a0015167ffffffffffffffff1681526020018260c0015167ffffffffffffffff1681526020018260e0015160020b81526020018261010001511515815260200182610120015167ffffffffffffffff16815260200182610140015163ffffffff16815260200150600860005060008467ffffffffffffffff1667ffffffffffffffff16815260200190815260200160002060005060008201518160000160005090905560208201518160010160006101000a8154816fffffffffffffffffffffffffffffffff02191690836fffffffffffffffffffffffffffffffff16021790555060408201518160010160106101000a8154816fffffffffffffffffffffffffffffffff02191690836fffffffffffffffffffffffffffffffff16021790555060608201518160020160006101000a8154816fffffffffffffffffffffffffffffffff02191690836fffffffffffffffffffffffffffffffff16021790555060808201518160020160106101000a8154816fffffffffffffffffffffffffffffffff02191690836fffffffffffffffffffffffffffffffff16021790555060a08201518160030160006101000a81548167ffffffffffffffff021916908367ffffffffffffffff16021790555060c08201518160030160086101000a81548167ffffffffffffffff021916908367ffffffffffffffff16021790555060e08201518160030160106101000a81548162ffffff021916908360020b62ffffff1602179055506101008201518160030160136101000a81548160ff0219169083151502179055506101208201518160030160146101000a81548167ffffffffffffffff021916908367ffffffffffffffff16021790555061014082015181600301601c6101000a81548163ffffffff021916908363ffffffff1602179055509050505b5050565b6000600060006000198587098587029250828110838203039150506000811415614a8957600084111515614a7a5760006000fd5b83820492508292505050614b40565b8084111515614a985760006000fd5b6000848688099050828111820391508083039250600085866000031690508086049550808404935060018182600003040190508083028417935083506000600287600302189050808702600203810290508050808702600203810290508050808702600203810290508050808702600203810290508050808702600203810290508050808702600203810290508050808502955085508595505050505050614b405650505050505b9392505050565b604051806080016040528082604001518152602001614b718360000151613f43909063ffffffff16565b6fffffffffffffffffffffffffffffffff168152602001614b9d8360600151613f43909063ffffffff16565b6fffffffffffffffffffffffffffffffff168152602001614bc98360200151613f43909063ffffffff16565b6fffffffffffffffffffffffffffffffff16815260200150600c60005060008201518160000160005090905560208201518160010160006101000a8154816fffffffffffffffffffffffffffffffff02191690836fffffffffffffffffffffffffffffffff16021790555060408201518160010160106101000a8154816fffffffffffffffffffffffffffffffff02191690836fffffffffffffffffffffffffffffffff16021790555060608201518160020160006101000a8154816fffffffffffffffffffffffffffffffff02191690836fffffffffffffffffffffffffffffffff1602179055509050505b50565b6040518060e00160405280826000015173ffffffffffffffffffffffffffffffffffffffff168152602001826020015161ffff16815260200182610120015163ffffffff16815260200182604001518152602001614d228360600151615c62909063ffffffff16565b75ffffffffffffffffffffffffffffffffffffffffffff168152602001614d5e8360c0015167ffffffffffffffff16615d02909063ffffffff16565b64ffffffffff168152602001614d7f8360800151615d02909063ffffffff16565b64ffffffffff168152602001506010600050600084815260200190815260200160002060005060008201518160000160006101000a81548173ffffffffffffffffffffffffffffffffffffffff021916908373ffffffffffffffffffffffffffffffffffffffff16021790555060208201518160000160146101000a81548161ffff021916908361ffff16021790555060408201518160000160166101000a81548163ffffffff021916908363ffffffff16021790555060608201518160010160005090905560808201518160020160006101000a81548175ffffffffffffffffffffffffffffffffffffffffffff021916908375ffffffffffffffffffffffffffffffffffffffffffff16021790555060a08201518160020160166101000a81548164ffffffffff021916908364ffffffffff16021790555060c082015181600201601b6101000a81548164ffffffffff021916908364ffffffffff1602179055509050505b5050565b7f000000000000000000000000000000000000000000000000000000000000000073ffffffffffffffffffffffffffffffffffffffff1663a22cb4658260016040518363ffffffff1660e01b8152600401614f4692919061730c565b600060405180830381600087803b158015614f615760006000fd5b505af1158015614f76573d600060003e3d6000fd5b505050505b50565b600060008473ffffffffffffffffffffffffffffffffffffffff1663a9059cbb60e01b8585604051602401808373ffffffffffffffffffffffffffffffffffffffff16815260200182815260200192505050604051602081830303815290604052907bffffffffffffffffffffffffffffffffffffffffffffffffffffffff19166020820180517bffffffffffffffffffffffffffffffffffffffffffffffffffffffff83818316178352505050506040518082805190602001908083835b60208310151561506357805182525b60208201915060208101905060208303925061503d565b6001836020036101000a0380198251168184511680821785525050505050509050019150506000604051808303816000865af19150503d80600081146150c5576040519150601f19603f3d011682016040523d82523d6000602084013e6150ca565b606091505b509150915081801561510b575060008151148061510a57508080602001905160208110156150f85760006000fd5b81019080805190602001909291905050505b5b1515615182576040517f08c379a00000000000000000000000000000000000000000000000000000000081526004018080602001828103825260028152602001807f535400000000000000000000000000000000000000000000000000000000000081526020015060200191505060405180910390fd5b50505b505050565b60608160000160005080548060200260200160405190810160405280929190818152602001828054801561522157602002820191906000526020600020906000905b82829054906101000a90046fffffffffffffffffffffffffffffffff166fffffffffffffffffffffffffffffffff1681526020019060100190602082600f010492830192600103820291508084116151cc5790505b5050505050905080505b919050565b600061528b61527e66010000000000006152706152656c010000000000000000000000008789614a469092919063ffffffff16565b615d9163ffffffff16565b615e0490919063ffffffff16565b615ea2909063ffffffff16565b9050615292565b92915050565b60006401000276a373ffffffffffffffffffffffffffffffffffffffff168273ffffffffffffffffffffffffffffffffffffffff161015801561531a575073fffd8963efd1fc6a506488495d951d5263988d2673ffffffffffffffffffffffffffffffffffffffff168273ffffffffffffffffffffffffffffffffffffffff16105b1515615391576040517f08c379a00000000000000000000000000000000000000000000000000000000081526004018080602001828103825260018152602001807f520000000000000000000000000000000000000000000000000000000000000081526020015060200191505060405180910390fd5b600060208373ffffffffffffffffffffffffffffffffffffffff16901b905060008190506000600090506fffffffffffffffffffffffffffffffff821160071b808217915082811c92505067ffffffffffffffff821160061b808217915082811c92505063ffffffff821160051b808217915082811c92505061ffff821160041b808217915082811c92505060ff821160031b808217915082811c925050600f821160021b808217915082811c9250506003821160011b808217915082811c9250506001821180821791505060808110151561547757607f810383901c91508150615483565b80607f0383901b915081505b6000604060808303901b9050828302607f1c92508260801c80603f1b8217915083811c935050828302607f1c92508260801c80603e1b8217915083811c935050828302607f1c92508260801c80603d1b8217915083811c935050828302607f1c92508260801c80603c1b8217915083811c935050828302607f1c92508260801c80603b1b8217915083811c935050828302607f1c92508260801c80603a1b8217915083811c935050828302607f1c92508260801c8060391b8217915083811c935050828302607f1c92508260801c8060381b8217915083811c935050828302607f1c92508260801c8060371b8217915083811c935050828302607f1c92508260801c8060361b8217915083811c935050828302607f1c92508260801c8060351b8217915083811c935050828302607f1c92508260801c8060341b8217915083811c935050828302607f1c92508260801c8060331b8217915083811c935050828302607f1c92508260801c8060321b82179150506000693627a301d71055774c8582029050600060806f028f6481ab7f045a5af012a19d003aaa8303901d9050600060806fdb2df09e81959a81455e260799a0632f8401901d90508060020b8260020b14615699578873ffffffffffffffffffffffffffffffffffffffff1661567082615f4063ffffffff16565b73ffffffffffffffffffffffffffffffffffffffff1611156156925781615694565b805b61569b565b815b97508750505050505050505b919050565b60007fffffffffffffffffffffffffffffffffffffffffffffffffffffffffff80000082121580156156e057506280000082125b1515615757576040517f08c379a00000000000000000000000000000000000000000000000000000000081526004018080602001828103825260118152602001807f6d6f7265207468616e203234206269747300000000000000000000000000000081526020015060200191505060405180910390fd5b81905061575f565b919050565b61576c61661b565b6000601060005060008481526020019081526020016000206000506040518060e00160405290816000820160009054906101000a900473ffffffffffffffffffffffffffffffffffffffff1673ffffffffffffffffffffffffffffffffffffffff1673ffffffffffffffffffffffffffffffffffffffff1681526020016000820160149054906101000a900461ffff1661ffff1661ffff1681526020016000820160169054906101000a900463ffffffff1663ffffffff1663ffffffff168152602001600182016000505481526020016002820160009054906101000a900475ffffffffffffffffffffffffffffffffffffffffffff1675ffffffffffffffffffffffffffffffffffffffffffff1675ffffffffffffffffffffffffffffffffffffffffffff1681526020016002820160169054906101000a900464ffffffffff1664ffffffffff1664ffffffffff16815260200160028201601b9054906101000a900464ffffffffff1664ffffffffff1664ffffffffff16815260200150509050604051806101800160405280826000015173ffffffffffffffffffffffffffffffffffffffff168152602001826020015161ffff16815260200182606001518152602001826080015175ffffffffffffffffffffffffffffffffffffffffffff1681526020018260c0015164ffffffffff16815260200160006fffffffffffffffffffffffffffffffff1681526020018260a0015164ffffffffff1667ffffffffffffffff168152602001600060020b8152602001600060020b8152602001826040015163ffffffff168152602001600073ffffffffffffffffffffffffffffffffffffffff168152602001600067ffffffffffffffff168152602001509150506159f556505b919050565b6000615a0c83836163d763ffffffff16565b1515615adb57826000016000508290806001815401808255809150506001900390600052602060002090600291828204019190066010025b9091909190916101000a8154816fffffffffffffffffffffffffffffffff02191690836fffffffffffffffffffffffffffffffff1602179055508260000160005080549050836001016000506000846fffffffffffffffffffffffffffffffff166fffffffffffffffffffffffffffffffff16815260200190815260200160002060005081909090555060019050615ae556615ae4565b60009050615ae5565b5b92915050565b60006801000000000000000082101515615b70576040517f08c379a00000000000000000000000000000000000000000000000000000000081526004018080602001828103825260118152602001807f6d6f7265207468616e203634206269747300000000000000000000000000000081526020015060200191505060405180910390fd5b819050615b78565b919050565b600760009054906101000a900460020b60020b8160020b131515615bc25780600760006101000a81548162ffffff021916908360020b62ffffff160217905550615c5e565b6000600760009054906101000a900460020b90508060020b8360020b1315615bea5750615c5e565b5b6000600a60005060008360020b60020b815260200190815260200160002060005080549050148015615c28575060c8627fffff0360020b8160020b125b15615c3a5760c8810190508050615beb565b80600760006101000a81548162ffffff021916908360020b62ffffff160217905550505b5050565b600076010000000000000000000000000000000000000000000082101515615cf5576040517f08c379a00000000000000000000000000000000000000000000000000000000081526004018080602001828103825260128152602001807f6d6f7265207468616e203137362062697473000000000000000000000000000081526020015060200191505060405180910390fd5b819050615cfd565b919050565b60006501000000000082101515615d84576040517f08c379a00000000000000000000000000000000000000000000000000000000081526004018080602001828103825260118152602001807f6d6f7265207468616e203430206269747300000000000000000000000000000081526020015060200191505060405180910390fd5b819050615d8c565b919050565b60006003821115615dec57819050805060006001600284811515615db157fe5b040190505b81811015615de65780915081506002818285811515615dd157fe5b0401811515615ddc57fe5b0490508050615db6565b50615dfe565b600082141515615dfd576001905080505b5b5b919050565b60006000821480615e2457508282838502925082811515615e2157fe5b04145b1515615e9b576040517f08c379a000000000000000000000000000000000000000000000000000000000815260040180806020018281038252600c8152602001807f6d756c2d6f766572666c6f77000000000000000000000000000000000000000081526020015060200191505060405180910390fd5b5b92915050565b60007401000000000000000000000000000000000000000082101515615f33576040517f08c379a00000000000000000000000000000000000000000000000000000000081526004018080602001828103825260128152602001807f6d6f7265207468616e203136302062697473000000000000000000000000000081526020015060200191505060405180910390fd5b819050615f3b565b919050565b6000600060008360020b12615f58578260020b615f60565b8260020b6000035b90507ffffffffffffffffffffffffffffffffffffffffffffffffffffffffffff2761860000360020b8111151515616003576040517f08c379a00000000000000000000000000000000000000000000000000000000081526004018080602001828103825260018152602001807f540000000000000000000000000000000000000000000000000000000000000081526020015060200191505060405180910390fd5b600060006001831614156160285770010000000000000000000000000000000061603a565b6ffffcb933bd6fad37aa2d162d1a5940015b70ffffffffffffffffffffffffffffffffff1690506000600283161415156160785760806ffff97272373d413259a46990580e213a8202901c905080505b6000600483161415156160a15760806ffff2e50f5f656932ef12357cf3c7fdcc8202901c905080505b6000600883161415156160ca5760806fffe5caca7e10e4e61c3624eaa0941cd08202901c905080505b6000601083161415156160f35760806fffcb9843d60f6159c9db58835c9266448202901c905080505b60006020831614151561611c5760806fff973b41fa98c081472e6896dfb254c08202901c905080505b6000604083161415156161455760806fff2ea16466c96a3843ec78b326b528618202901c905080505b60006080831614151561616e5760806ffe5dee046a99a2a811c461f1969c30538202901c905080505b600061010083161415156161985760806ffcbe86c7900a88aedcffc83b479aa3a48202901c905080505b600061020083161415156161c25760806ff987a7253ac413176f2b074cf7815e548202901c905080505b600061040083161415156161ec5760806ff3392b0822b70005940c7a398e4b70f38202901c905080505b600061080083161415156162165760806fe7159475a2c29b7443b29c7fa6e889d98202901c905080505b600061100083161415156162405760806fd097f3bdfd2022b8845ad8f792aa58258202901c905080505b6000612000831614151561626a5760806fa9f746462d870fdf8a65dc1f90e061e58202901c905080505b600061400083161415156162945760806f70d869a156d2a1b890bb3df62baf32f78202901c905080505b600061800083161415156162be5760806f31be135f97d08fd981231505542fcfa68202901c905080505b60006201000083161415156162e95760806f09aa508b5b7a84e1c677de54f3e99bc98202901c905080505b60006202000083161415156163135760806e5d6af8dedb81196699c329225ee6048202901c905080505b600062040000831614151561633c5760806d2216e584f5fa1ea926041bedfe988202901c905080505b60006208000083161415156163635760806b048a170391f7dc42444e8fa28202901c905080505b60008460020b13156163a057807fffffffffffffffffffffffffffffffffffffffffffffffffffffffffffffffff81151561639a57fe5b04905080505b6000640100000000828115156163b257fe5b06146163bf5760016163c2565b60005b60ff16602082901c019250825050505b919050565b60006000836001016000506000846fffffffffffffffffffffffffffffffff166fffffffffffffffffffffffffffffffff1681526020019081526020016000206000505414159050616424565b92915050565b6040518060800160405280600081526020016000815260200160008152602001600081526020015090565b604051806101a001604052806000815260200160008152602001600081526020016000815260200160008152602001600067ffffffffffffffff168152602001600067ffffffffffffffff168152602001600060020b8152602001600015158152602001600067ffffffffffffffff168152602001600063ffffffff168152602001600073ffffffffffffffffffffffffffffffffffffffff168152602001600067ffffffffffffffff1681526020015090565b604051806040016040528060008152602001600081526020015090565b6040518060a00160405280600073ffffffffffffffffffffffffffffffffffffffff168152602001600067ffffffffffffffff1681526020016000600281111561656c57fe5b8152602001600062ffffff168152602001606081526020015090565b828054600181600116156101000203166002900490600052602060002090601f0160209004810192826165be576000855561660a565b82601f106165d757805160ff191683800117855561660a565b8280016001018555821561660a579182015b8281111561660957825182600050909055916020019190600101906165e9565b5b50905061661791906166e1565b5090565b604051806101800160405280600073ffffffffffffffffffffffffffffffffffffffff168152602001600061ffff16815260200160008152602001600081526020016000815260200160006fffffffffffffffffffffffffffffffff168152602001600067ffffffffffffffff168152602001600060020b8152602001600060020b8152602001600063ffffffff168152602001600073ffffffffffffffffffffffffffffffffffffffff168152602001600067ffffffffffffffff1681526020015090565b6166e6565b8082111561670057600081815060009055506001016166e6565b509056617a85565b60008135905061671781617a09565b5b919050565b60008151905061672c81617a09565b5b919050565b600081359050801515811415156167495760006000fd5b5b919050565b60008135905061675e81617a32565b5b919050565b60008151905061677381617a32565b5b919050565b60008135905061678881617a48565b5b919050565b60008151905061679d81617a48565b5b919050565b60008135905061ffff8116811415156167bc5760006000fd5b5b919050565b6000815190506167d181617a6d565b5b919050565b60008135905063ffffffff8116811415156167f25760006000fd5b5b919050565b60008135905067ffffffffffffffff8116811415156168175760006000fd5b5b919050565b60006020828403121561682e578081fd5b813561683981617a09565b809150505b92915050565b6000600060408385031215616857578081fd5b823561686281617a09565b80925050602083013590505b9250929050565b600060006000600060006080868803121561688e578081fd5b853561689981617a09565b8095505060208601356168ab81617a09565b8094505060408601359250606086013567ffffffffffffffff808211156168d0578283fd5b818801915088601f83011215156168e5578283fd5b8135818111156168f3578384fd5b896020828501011115616904578384fd5b6020830194508093505050505b9295509295909350565b600060006040838503121561692e578182fd5b823561693981617a09565b80925050602083013590505b9250929050565b6000602080838503121561695e578182fd5b823567ffffffffffffffff80821115616975578384fd5b818501915085601f830112151561698a578384fd5b81358181111561699657fe5b83810291506169a68483016179de565b80828252858201915085850189878688010111156169c2578788fd5b8795505b838610156169ef576169d7816167d7565b8352868301925086810190505b6001860195506169c6565b508096505050505050505b92915050565b600060208284031215616a11578081fd5b81357fffffffff00000000000000000000000000000000000000000000000000000000811681141515616a42578182fd5b809150505b92915050565b600060208284031215616a5e578081fd5b8151616a6981617a09565b809150505b92915050565b600060208284031215616a85578081fd5b8135616a9081617a09565b809150505b92915050565b600060208284031215616aac578081fd5b8151616ab781617a09565b809150505b92915050565b600060208284031215616ad3578081fd5b8151616ade81617a09565b809150505b92915050565b600060208284031215616afa578081fd5b8151616b0581617a09565b809150505b92915050565b600060208284031215616b21578081fd5b8151616b2c81617a09565b809150505b92915050565b600060208284031215616b48578081fd5b8135616b5381617a09565b809150505b92915050565b6000600060408385031215616b71578182fd5b8235616b7c81617a09565b80925050602083013590505b9250929050565b600060208284031215616ba0578081fd5b8135616bab81617a32565b809150505b92915050565b6000600060408385031215616bc9578182fd5b8235616bd481617a32565b809250506020830135616be681617a32565b809150505b9250929050565b600060808284031215616c03578081fd5b6040516080810181811067ffffffffffffffff82111715616c2057fe5b806040525082358152602083013560208201526040830135604082015260608301356060820152809150505b92915050565b600060208284031215616c63578081fd5b616c6c826167a3565b90505b92915050565b600060008284036060811215616c89578283fd5b616c92846167a3565b925060407fffffffffffffffffffffffffffffffffffffffffffffffffffffffffffffffe082011215616cc3578182fd5b506040516040810181811067ffffffffffffffff82111715616ce157fe5b80604052506020840135815260408401356020820152809150505b9250929050565b600060208284031215616d14578081fd5b813590505b92915050565b600060208284031215616d30578081fd5b815190505b92915050565b600060008284036101a0811215616d50578283fd5b83359250610180807fffffffffffffffffffffffffffffffffffffffffffffffffffffffffffffffe083011215616d85578283fd5b616d8e816179de565b9150616d9c60208601616708565b8252616daa604086016167a3565b6020830152606085013560408301526080850135606083015260a08501356080830152616dd960c08601616779565b60a0830152616dea60e086016167f8565b60c0830152610100616dfd81870161674f565b60e0840152610120616e1081880161674f565b828501526101409150616e248288016167d7565b8185015250610160616e37818801616708565b82850152616e468388016167f8565b81850152505050809150505b9250929050565b6000600060408385031215616e6c578182fd5b82359150602083013590505b9250929050565b6000600060408385031215616e92578182fd5b616e9b836167d7565b9150616ea9602084016167d7565b90505b9250929050565b600060208284031215616ec4578081fd5b616ecd826167f8565b90505b92915050565b600060008284036101c0811215616eeb578283fd5b616ef4846167f8565b92506101a0807fffffffffffffffffffffffffffffffffffffffffffffffffffffffffffffffe083011215616f27578283fd5b616f30816179de565b91506020850135825260408501356020830152606085013560408301526080850135606083015260a08501356080830152616f6d60c086016167f8565b60a0830152616f7e60e086016167f8565b60c0830152610100616f9181870161674f565b60e0840152610120616fa4818801616732565b828501526101409150616fb88288016167f8565b8185015250610160616fcb8188016167d7565b828501526101809150616fdf828801616708565b8185015250616fef8287016167f8565b818401525050809150505b9250929050565b60006000600060608486031215617016578081fd5b61701f846167f8565b925060208085013561703081617a6d565b80935050604085013567ffffffffffffffff8082111561704e578384fd5b818701915087601f8301121515617063578384fd5b81358181111561706f57fe5b61709f847fffffffffffffffffffffffffffffffffffffffffffffffffffffffffffffffe0601f840116016179de565b915080825288848285010111156170b4578485fd5b808484018584013784848284010152508093505050505b9250925092565b6000600060006000600060006000600060006000600060006101808d8f0312156170fa57898afd5b8c516bffffffffffffffffffffffff811681141515617117578a8bfd5b809c505061712760208e0161671d565b9a5061713560408e0161671d565b995061714360608e0161671d565b985061715160808e016167c2565b975061715f60a08e01616764565b965061716d60c08e01616764565b955061717b60e08e0161678e565b94506101008d015193506101208d0151925061719a6101408e0161678e565b91506171a96101608e0161678e565b90505b9295989b509295989b509295989b565b73ffffffffffffffffffffffffffffffffffffffff811682525b5050565b80151582525b5050565b6003811015156171f057fe5b8082525b5050565b8060020b82525b5050565b60008151808452815b8181101561722f576020808286010151818388010152505b60208101905061720c565b818111156172405782602083870101525b5060207fffffffffffffffffffffffffffffffffffffffffffffffffffffffffffffffe0601f8301168501019150505b92915050565b6fffffffffffffffffffffffffffffffff811682525b5050565b61ffff811682525b5050565b63ffffffff811682525b5050565b67ffffffffffffffff811682525b5050565b600060208201905073ffffffffffffffffffffffffffffffffffffffff831682525b92915050565b600060208201905073ffffffffffffffffffffffffffffffffffffffff831682525b92915050565b600060408201905073ffffffffffffffffffffffffffffffffffffffff8416825282151560208301525b9392505050565b600073ffffffffffffffffffffffffffffffffffffffff8716825267ffffffffffffffff8616602083015261737560408301866171e4565b62ffffff8416606083015260a0608083015261739460a0830184617203565b90505b9695505050505050565b6000602080830181845280855180835260409250828601915082848202870101848801865b8381101561747a577fffffffffffffffffffffffffffffffffffffffffffffffffffffffffffffffc0898403018552815160a073ffffffffffffffffffffffffffffffffffffffff825116855267ffffffffffffffff89830151168986015287820151617435898701826171e4565b50606062ffffff81840151168187015250608080830151925081818701525061746081860183617203565b94505050868201915086850194505b6001810190506173c6565b505080955050505050505b92915050565b600060208083018184528085518083526040860191508387019250845b818110156174dc576fffffffffffffffffffffffffffffffff8451168352848301925084840193505b6001810190506174a8565b50508093505050505b92915050565b600060208083018184528085518083526040860191508387019250845b818110156175305763ffffffff8451168352848301925084840193505b600181019050617508565b50508093505050505b92915050565b600060208083018184528085518083526040860191508387019250845b818110156175885767ffffffffffffffff8451168352848301925084840193505b60018101905061755c565b50508093505050505b92915050565b600060208201905082151582525b92915050565b60006020820190507fffffffff00000000000000000000000000000000000000000000000000000000831682525b92915050565b600060208201905073ffffffffffffffffffffffffffffffffffffffff831682525b92915050565b60006020820190508260020b82525b92915050565b600060208252600d60208301527f4c43205265656e7472616e63790000000000000000000000000000000000000060408301526060820190505b919050565b600060208252600e60208301527f4e6f7420417574686f72697a656400000000000000000000000000000000000060408301526060820190505b919050565b600060208252600c60208301527f506f736974696f6e20444e45000000000000000000000000000000000000000060408301526060820190505b919050565b600060208252601760208301527f4465627420776974686f757420636f6c6c61746572616c00000000000000000060408301526060820190505b919050565b600060208252601d60208301527f446f6573206e6f7420616363657074204e465473206469726563746c7900000060408301526060820190505b919050565b600060208252601560208301527f4d6178206b69636b6261636b206578636565646564000000000000000000000060408301526060820190505b919050565b60006101a082019050825182526020830151602083015260408301516040830152606083015160608301526080830151608083015260a08301516177dd60a08401826172aa565b5060c08301516177f060c08401826172aa565b5060e083015161780360e08401826171f8565b5061010080840151617817828501826171da565b50506101208084015161782c828501826172aa565b5050610140808401516178418285018261729c565b505061016080840151617856828501826171bc565b50506101808084015161786b828501826172aa565b50505b92915050565b6000610180820190506178888284516171bc565b602083015161789a6020840182617290565b5060408301516040830152606083015160608301526080830151608083015260a08301516178cb60a0840182617276565b5060c08301516178de60c08401826172aa565b5060e08301516178f160e08401826171f8565b5061010080840151617905828501826171f8565b50506101208084015161791a8285018261729c565b50506101408084015161792f828501826171bc565b505061016080840151617944828501826172aa565b50505b92915050565b600060408201905082518252602083015160208301525b92915050565b6000608082019050825182526020830151602083015260408301516040830152606083015160608301525b92915050565b60006020820190508282525b92915050565b60006040820190508382528260208301525b9392505050565b600060208201905063ffffffff831682525b92915050565b6000604051905081810181811067ffffffffffffffff821117156179fe57fe5b80604052505b919050565b73ffffffffffffffffffffffffffffffffffffffff811681141515617a2e5760006000fd5b5b50565b8060020b81141515617a445760006000fd5b5b50565b6fffffffffffffffffffffffffffffffff811681141515617a695760006000fd5b5b50565b62ffffff811681141515617a815760006000fd5b5b50565bfea264697066735822122085efa36d37b97921d24b799973d06c0a1b176bdce715f88ceb6cd823dd92a17c64736f6c63430007060033",
  "linkReferences": {},
  "deployedLinkReferences": {}
}