{
  "_format": "hh-sol-artifact-1",
  "contractName": "AccountingTestable",
  "sourceName": "contracts/mocks/AccountingTestable.sol",
  "abi": [
    {
      "inputs": [
        {
          "internalType": "contract INonfungiblePositionManager",
          "name": "nftPositionManager",
          "type": "address"
        }
      ],
      "stateMutability": "nonpayable",
      "type": "constructor"
    },
    {
      "anonymous": false,
      "inputs": [],
      "name": "DebtPositionIndexingDisabled",
      "type": "event"
    },
    {
      "anonymous": false,
      "inputs": [
        {
          "indexed": true,
          "internalType": "address",
          "name": "governor",
          "type": "address"
        }
      ],
      "name": "Initialized",
      "type": "event"
    },
    {
      "anonymous": false,
      "inputs": [],
      "name": "PoolPositionIndexingDisabled",
      "type": "event"
    },
    {
      "anonymous": false,
      "inputs": [],
      "name": "Stopped",
      "type": "event"
    },
    {
      "anonymous": false,
      "inputs": [
        {
          "indexed": false,
          "internalType": "uint32[]",
          "name": "uis",
          "type": "uint32[]"
        }
      ],
      "name": "UIsApproved",
      "type": "event"
    },
    {
      "anonymous": false,
      "inputs": [
        {
          "indexed": false,
          "internalType": "uint32[]",
          "name": "uis",
          "type": "uint32[]"
        }
      ],
      "name": "UIsDisapproved",
      "type": "event"
    },
    {
      "inputs": [],
      "name": "TICK_SPACING",
      "outputs": [
        {
          "internalType": "int24",
          "name": "",
          "type": "int24"
        }
      ],
      "stateMutability": "view",
      "type": "function"
    },
    {
      "inputs": [
        {
          "internalType": "address",
          "name": "owner",
          "type": "address"
        },
        {
          "internalType": "uint256",
          "name": "nftID",
          "type": "uint256"
        }
      ],
      "name": "__addPositionToIndex",
      "outputs": [],
      "stateMutability": "nonpayable",
      "type": "function"
    },
    {
      "inputs": [
        {
          "internalType": "address",
          "name": "owner",
          "type": "address"
        },
        {
          "internalType": "uint256",
          "name": "nftID",
          "type": "uint256"
        }
      ],
      "name": "addPositionToIndex",
      "outputs": [],
      "stateMutability": "nonpayable",
      "type": "function"
    },
    {
      "inputs": [
        {
          "internalType": "uint32[]",
          "name": "ids",
          "type": "uint32[]"
        }
      ],
      "name": "approveUIs",
      "outputs": [],
      "stateMutability": "nonpayable",
      "type": "function"
    },
    {
      "inputs": [],
      "name": "debt",
      "outputs": [
        {
          "internalType": "uint256",
          "name": "",
          "type": "uint256"
        }
      ],
      "stateMutability": "view",
      "type": "function"
    },
    {
      "inputs": [],
      "name": "debtPositionIndexingEnabled",
      "outputs": [
        {
          "internalType": "bool",
          "name": "",
          "type": "bool"
        }
      ],
      "stateMutability": "view",
      "type": "function"
    },
    {
      "inputs": [
        {
          "internalType": "uint256",
          "name": "count",
          "type": "uint256"
        }
      ],
      "name": "decreaseDebt",
      "outputs": [],
      "stateMutability": "nonpayable",
      "type": "function"
    },
    {
      "inputs": [
        {
          "internalType": "contract IUniswapV3Pool",
          "name": "pool",
          "type": "address"
        },
        {
          "internalType": "uint256",
          "name": "liquidity",
          "type": "uint256"
        }
      ],
      "name": "decreasePoolLiquidity",
      "outputs": [],
      "stateMutability": "nonpayable",
      "type": "function"
    },
    {
      "inputs": [
        {
          "internalType": "uint256",
          "name": "nftID",
          "type": "uint256"
        }
      ],
      "name": "deletePoolPosition",
      "outputs": [],
      "stateMutability": "nonpayable",
      "type": "function"
    },
    {
      "inputs": [],
      "name": "deployer",
      "outputs": [
        {
          "internalType": "address",
          "name": "",
          "type": "address"
        }
      ],
      "stateMutability": "view",
      "type": "function"
    },
    {
      "inputs": [
        {
          "internalType": "uint32[]",
          "name": "ids",
          "type": "uint32[]"
        }
      ],
      "name": "disapproveUIs",
      "outputs": [],
      "stateMutability": "nonpayable",
      "type": "function"
    },
    {
      "inputs": [
        {
          "internalType": "uint64",
          "name": "positionID",
          "type": "uint64"
        }
      ],
      "name": "getBasicPositionInfo",
      "outputs": [
        {
          "internalType": "uint256",
          "name": "debtCount",
          "type": "uint256"
        },
        {
          "internalType": "uint256",
          "name": "collateralCount",
          "type": "uint256"
        }
      ],
      "stateMutability": "view",
      "type": "function"
    },
    {
      "inputs": [
        {
          "internalType": "uint256",
          "name": "nftID",
          "type": "uint256"
        }
      ],
      "name": "getPoolPosition",
      "outputs": [
        {
          "components": [
            {
              "internalType": "address",
              "name": "owner",
              "type": "address"
            },
            {
              "internalType": "uint16",
              "name": "poolID",
              "type": "uint16"
            },
            {
              "internalType": "uint256",
              "name": "cumulativeLiquidity",
              "type": "uint256"
            },
            {
              "internalType": "uint256",
              "name": "totalRewards",
              "type": "uint256"
            },
            {
              "internalType": "uint256",
              "name": "lastBlockPositionIncreased",
              "type": "uint256"
            },
            {
              "internalType": "uint128",
              "name": "liquidity",
              "type": "uint128"
            },
            {
              "internalType": "uint64",
              "name": "lastTimeRewarded",
              "type": "uint64"
            },
            {
              "internalType": "int24",
              "name": "tickLower",
              "type": "int24"
            },
            {
              "internalType": "int24",
              "name": "tickUpper",
              "type": "int24"
            },
            {
              "internalType": "uint32",
              "name": "ui",
              "type": "uint32"
            },
            {
              "internalType": "address",
              "name": "kickbackDestination",
              "type": "address"
            },
            {
              "internalType": "uint64",
              "name": "kickbackPortion",
              "type": "uint64"
            }
          ],
          "internalType": "struct IAccounting.PoolPosition",
          "name": "pp",
          "type": "tuple"
        }
      ],
      "stateMutability": "view",
      "type": "function"
    },
    {
      "inputs": [
        {
          "internalType": "address",
          "name": "owner",
          "type": "address"
        }
      ],
      "name": "getPoolPositionNftIdsByOwner",
      "outputs": [
        {
          "internalType": "uint128[]",
          "name": "",
          "type": "uint128[]"
        }
      ],
      "stateMutability": "view",
      "type": "function"
    },
    {
      "inputs": [
        {
          "internalType": "uint64",
          "name": "positionID",
          "type": "uint64"
        }
      ],
      "name": "getPosition",
      "outputs": [
        {
          "components": [
            {
              "internalType": "uint256",
              "name": "startCumulativeDebt",
              "type": "uint256"
            },
            {
              "internalType": "uint256",
              "name": "collateral",
              "type": "uint256"
            },
            {
              "internalType": "uint256",
              "name": "debt",
              "type": "uint256"
            },
            {
              "internalType": "uint256",
              "name": "startDebtExchangeRate",
              "type": "uint256"
            },
            {
              "internalType": "uint256",
              "name": "startTCPRewards",
              "type": "uint256"
            },
            {
              "internalType": "uint64",
              "name": "lastTimeUpdated",
              "type": "uint64"
            },
            {
              "internalType": "uint64",
              "name": "lastBorrowTime",
              "type": "uint64"
            },
            {
              "internalType": "int24",
              "name": "tick",
              "type": "int24"
            },
            {
              "internalType": "bool",
              "name": "tickSet",
              "type": "bool"
            },
            {
              "internalType": "uint64",
              "name": "tickIndex",
              "type": "uint64"
            },
            {
              "internalType": "uint32",
              "name": "ui",
              "type": "uint32"
            },
            {
              "internalType": "address",
              "name": "kickbackDestination",
              "type": "address"
            },
            {
              "internalType": "uint64",
              "name": "kickbackPortion",
              "type": "uint64"
            }
          ],
          "internalType": "struct IAccounting.DebtPosition",
          "name": "dp",
          "type": "tuple"
        }
      ],
      "stateMutability": "view",
      "type": "function"
    },
    {
      "inputs": [
        {
          "internalType": "uint16",
          "name": "poolID",
          "type": "uint16"
        }
      ],
      "name": "getRewardStatus",
      "outputs": [
        {
          "components": [
            {
              "internalType": "uint256",
              "name": "totalRewards",
              "type": "uint256"
            },
            {
              "internalType": "uint256",
              "name": "cumulativeLiquidity",
              "type": "uint256"
            }
          ],
          "internalType": "struct IAccounting.RewardStatus",
          "name": "",
          "type": "tuple"
        }
      ],
      "stateMutability": "view",
      "type": "function"
    },
    {
      "inputs": [],
      "name": "getSystemDebtInfo",
      "outputs": [
        {
          "components": [
            {
              "internalType": "uint256",
              "name": "debt",
              "type": "uint256"
            },
            {
              "internalType": "uint256",
              "name": "totalTCPRewards",
              "type": "uint256"
            },
            {
              "internalType": "uint256",
              "name": "cumulativeDebt",
              "type": "uint256"
            },
            {
              "internalType": "uint256",
              "name": "debtExchangeRate",
              "type": "uint256"
            }
          ],
          "internalType": "struct IAccounting.SystemDebtInfo",
          "name": "",
          "type": "tuple"
        }
      ],
      "stateMutability": "view",
      "type": "function"
    },
    {
      "inputs": [
        {
          "internalType": "uint256",
          "name": "collateralCount",
          "type": "uint256"
        },
        {
          "internalType": "uint256",
          "name": "debtCount",
          "type": "uint256"
        }
      ],
      "name": "getTick",
      "outputs": [
        {
          "internalType": "int24",
          "name": "",
          "type": "int24"
        }
      ],
      "stateMutability": "pure",
      "type": "function"
    },
    {
      "inputs": [
        {
          "internalType": "uint32",
          "name": "start",
          "type": "uint32"
        },
        {
          "internalType": "uint32",
          "name": "end",
          "type": "uint32"
        }
      ],
      "name": "getUIs",
      "outputs": [
        {
          "components": [
            {
              "internalType": "address",
              "name": "kickbackDestination",
              "type": "address"
            },
            {
              "internalType": "uint64",
              "name": "kickbackPortion",
              "type": "uint64"
            },
            {
              "internalType": "enum IAccounting.UIGovernanceRating",
              "name": "governanceRating",
              "type": "uint8"
            },
            {
              "internalType": "uint24",
              "name": "tags",
              "type": "uint24"
            },
            {
              "internalType": "string",
              "name": "ipfsHash",
              "type": "string"
            }
          ],
          "internalType": "struct IAccounting.UserInterface[]",
          "name": "uis",
          "type": "tuple[]"
        }
      ],
      "stateMutability": "view",
      "type": "function"
    },
    {
      "inputs": [],
      "name": "governor",
      "outputs": [
        {
          "internalType": "contract IGovernor",
          "name": "",
          "type": "address"
        }
      ],
      "stateMutability": "view",
      "type": "function"
    },
    {
      "inputs": [
        {
          "internalType": "uint256",
          "name": "count",
          "type": "uint256"
        }
      ],
      "name": "increaseDebt",
      "outputs": [],
      "stateMutability": "nonpayable",
      "type": "function"
    },
    {
      "inputs": [
        {
          "internalType": "uint256",
          "name": "count",
          "type": "uint256"
        }
      ],
      "name": "increaseLentHue",
      "outputs": [],
      "stateMutability": "nonpayable",
      "type": "function"
    },
    {
      "inputs": [
        {
          "internalType": "contract IUniswapV3Pool",
          "name": "pool",
          "type": "address"
        },
        {
          "internalType": "uint256",
          "name": "liquidity",
          "type": "uint256"
        }
      ],
      "name": "increasePoolLiquidity",
      "outputs": [],
      "stateMutability": "nonpayable",
      "type": "function"
    },
    {
      "inputs": [
        {
          "internalType": "contract IGovernor",
          "name": "_governor",
          "type": "address"
        }
      ],
      "name": "init",
      "outputs": [],
      "stateMutability": "nonpayable",
      "type": "function"
    },
    {
      "inputs": [
        {
          "internalType": "uint256",
          "name": "nftID",
          "type": "uint256"
        },
        {
          "internalType": "address",
          "name": "addressToCheck",
          "type": "address"
        }
      ],
      "name": "isPositionOwner",
      "outputs": [
        {
          "internalType": "bool",
          "name": "",
          "type": "bool"
        }
      ],
      "stateMutability": "view",
      "type": "function"
    },
    {
      "inputs": [],
      "name": "lentHue",
      "outputs": [
        {
          "internalType": "uint256",
          "name": "",
          "type": "uint256"
        }
      ],
      "stateMutability": "view",
      "type": "function"
    },
    {
      "inputs": [],
      "name": "nextUserInterfaceID",
      "outputs": [
        {
          "internalType": "uint32",
          "name": "",
          "type": "uint32"
        }
      ],
      "stateMutability": "view",
      "type": "function"
    },
    {
      "inputs": [
        {
          "internalType": "address",
          "name": "",
          "type": "address"
        },
        {
          "internalType": "address",
          "name": "",
          "type": "address"
        },
        {
          "internalType": "uint256",
          "name": "",
          "type": "uint256"
        },
        {
          "internalType": "bytes",
          "name": "",
          "type": "bytes"
        }
      ],
      "name": "onERC721Received",
      "outputs": [
        {
          "internalType": "bytes4",
          "name": "",
          "type": "bytes4"
        }
      ],
      "stateMutability": "pure",
      "type": "function"
    },
    {
      "inputs": [
        {
          "internalType": "address",
          "name": "newRewards",
          "type": "address"
        }
      ],
      "name": "onRewardsUpgrade",
      "outputs": [],
      "stateMutability": "nonpayable",
      "type": "function"
    },
    {
      "inputs": [
        {
          "internalType": "contract IUniswapV3Pool",
          "name": "",
          "type": "address"
        }
      ],
      "name": "poolLiquidity",
      "outputs": [
        {
          "internalType": "uint256",
          "name": "",
          "type": "uint256"
        }
      ],
      "stateMutability": "view",
      "type": "function"
    },
    {
      "inputs": [
        {
          "internalType": "uint256",
          "name": "",
          "type": "uint256"
        }
      ],
      "name": "poolPosition",
      "outputs": [
        {
          "internalType": "address",
          "name": "owner",
          "type": "address"
        },
        {
          "internalType": "uint16",
          "name": "poolID",
          "type": "uint16"
        },
        {
          "internalType": "uint32",
          "name": "ui",
          "type": "uint32"
        },
        {
          "internalType": "uint256",
          "name": "cumulativeLiquidity",
          "type": "uint256"
        },
        {
          "internalType": "uint176",
          "name": "totalRewards",
          "type": "uint176"
        },
        {
          "internalType": "uint40",
          "name": "lastTimeRewarded",
          "type": "uint40"
        },
        {
          "internalType": "uint40",
          "name": "lastBlockPositionIncreased",
          "type": "uint40"
        }
      ],
      "stateMutability": "view",
      "type": "function"
    },
    {
      "inputs": [],
      "name": "poolPositionIndexingEnabled",
      "outputs": [
        {
          "internalType": "bool",
          "name": "",
          "type": "bool"
        }
      ],
      "stateMutability": "view",
      "type": "function"
    },
    {
      "inputs": [
        {
          "internalType": "int24",
          "name": "tick",
          "type": "int24"
        }
      ],
      "name": "positionsForTick",
      "outputs": [
        {
          "internalType": "uint64[]",
          "name": "",
          "type": "uint64[]"
        }
      ],
      "stateMutability": "view",
      "type": "function"
    },
    {
      "inputs": [
        {
          "internalType": "uint64",
          "name": "kickbackPortion",
          "type": "uint64"
        },
        {
          "internalType": "uint24",
          "name": "tags",
          "type": "uint24"
        },
        {
          "internalType": "string",
          "name": "ipfsHash",
          "type": "string"
        }
      ],
      "name": "registerUI",
      "outputs": [
        {
          "internalType": "uint32",
          "name": "",
          "type": "uint32"
        }
      ],
      "stateMutability": "nonpayable",
      "type": "function"
    },
    {
      "inputs": [
        {
          "internalType": "address payable",
          "name": "dest",
          "type": "address"
        },
        {
          "internalType": "uint256",
          "name": "count",
          "type": "uint256"
        }
      ],
      "name": "sendCollateral",
      "outputs": [],
      "stateMutability": "nonpayable",
      "type": "function"
    },
    {
      "inputs": [
        {
          "internalType": "address",
          "name": "dest",
          "type": "address"
        },
        {
          "internalType": "uint256",
          "name": "count",
          "type": "uint256"
        }
      ],
      "name": "sendLentHue",
      "outputs": [],
      "stateMutability": "nonpayable",
      "type": "function"
    },
    {
      "inputs": [
        {
          "internalType": "uint256",
          "name": "nftID",
          "type": "uint256"
        },
        {
          "components": [
            {
              "internalType": "address",
              "name": "owner",
              "type": "address"
            },
            {
              "internalType": "uint16",
              "name": "poolID",
              "type": "uint16"
            },
            {
              "internalType": "uint256",
              "name": "cumulativeLiquidity",
              "type": "uint256"
            },
            {
              "internalType": "uint256",
              "name": "totalRewards",
              "type": "uint256"
            },
            {
              "internalType": "uint256",
              "name": "lastBlockPositionIncreased",
              "type": "uint256"
            },
            {
              "internalType": "uint128",
              "name": "liquidity",
              "type": "uint128"
            },
            {
              "internalType": "uint64",
              "name": "lastTimeRewarded",
              "type": "uint64"
            },
            {
              "internalType": "int24",
              "name": "tickLower",
              "type": "int24"
            },
            {
              "internalType": "int24",
              "name": "tickUpper",
              "type": "int24"
            },
            {
              "internalType": "uint32",
              "name": "ui",
              "type": "uint32"
            },
            {
              "internalType": "address",
              "name": "kickbackDestination",
              "type": "address"
            },
            {
              "internalType": "uint64",
              "name": "kickbackPortion",
              "type": "uint64"
            }
          ],
          "internalType": "struct IAccounting.PoolPosition",
          "name": "pp",
          "type": "tuple"
        }
      ],
      "name": "setPoolPosition",
      "outputs": [],
      "stateMutability": "nonpayable",
      "type": "function"
    },
    {
      "inputs": [
        {
          "internalType": "uint64",
          "name": "positionID",
          "type": "uint64"
        },
        {
          "components": [
            {
              "internalType": "uint256",
              "name": "startCumulativeDebt",
              "type": "uint256"
            },
            {
              "internalType": "uint256",
              "name": "collateral",
              "type": "uint256"
            },
            {
              "internalType": "uint256",
              "name": "debt",
              "type": "uint256"
            },
            {
              "internalType": "uint256",
              "name": "startDebtExchangeRate",
              "type": "uint256"
            },
            {
              "internalType": "uint256",
              "name": "startTCPRewards",
              "type": "uint256"
            },
            {
              "internalType": "uint64",
              "name": "lastTimeUpdated",
              "type": "uint64"
            },
            {
              "internalType": "uint64",
              "name": "lastBorrowTime",
              "type": "uint64"
            },
            {
              "internalType": "int24",
              "name": "tick",
              "type": "int24"
            },
            {
              "internalType": "bool",
              "name": "tickSet",
              "type": "bool"
            },
            {
              "internalType": "uint64",
              "name": "tickIndex",
              "type": "uint64"
            },
            {
              "internalType": "uint32",
              "name": "ui",
              "type": "uint32"
            },
            {
              "internalType": "address",
              "name": "kickbackDestination",
              "type": "address"
            },
            {
              "internalType": "uint64",
              "name": "kickbackPortion",
              "type": "uint64"
            }
          ],
          "internalType": "struct IAccounting.DebtPosition",
          "name": "dp",
          "type": "tuple"
        }
      ],
      "name": "setPosition",
      "outputs": [],
      "stateMutability": "nonpayable",
      "type": "function"
    },
    {
      "inputs": [
        {
          "internalType": "uint16",
          "name": "poolID",
          "type": "uint16"
        },
        {
          "components": [
            {
              "internalType": "uint256",
              "name": "totalRewards",
              "type": "uint256"
            },
            {
              "internalType": "uint256",
              "name": "cumulativeLiquidity",
              "type": "uint256"
            }
          ],
          "internalType": "struct IAccounting.RewardStatus",
          "name": "rs",
          "type": "tuple"
        }
      ],
      "name": "setRewardStatus",
      "outputs": [],
      "stateMutability": "nonpayable",
      "type": "function"
    },
    {
      "inputs": [
        {
          "components": [
            {
              "internalType": "uint256",
              "name": "debt",
              "type": "uint256"
            },
            {
              "internalType": "uint256",
              "name": "totalTCPRewards",
              "type": "uint256"
            },
            {
              "internalType": "uint256",
              "name": "cumulativeDebt",
              "type": "uint256"
            },
            {
              "internalType": "uint256",
              "name": "debtExchangeRate",
              "type": "uint256"
            }
          ],
          "internalType": "struct IAccounting.SystemDebtInfo",
          "name": "_sdi",
          "type": "tuple"
        }
      ],
      "name": "setSystemDebtInfo",
      "outputs": [],
      "stateMutability": "nonpayable",
      "type": "function"
    },
    {
      "inputs": [
        {
          "internalType": "int24",
          "name": "rawTick",
          "type": "int24"
        },
        {
          "internalType": "int24",
          "name": "tickSpacing",
          "type": "int24"
        }
      ],
      "name": "snapRawTickToSpacing",
      "outputs": [
        {
          "internalType": "int24",
          "name": "",
          "type": "int24"
        }
      ],
      "stateMutability": "pure",
      "type": "function"
    },
    {
      "inputs": [],
      "name": "stopIndexingDebtPositions",
      "outputs": [],
      "stateMutability": "nonpayable",
      "type": "function"
    },
    {
      "inputs": [],
      "name": "stopIndexingPoolPositions",
      "outputs": [],
      "stateMutability": "nonpayable",
      "type": "function"
    },
    {
      "inputs": [],
      "name": "stopped",
      "outputs": [
        {
          "internalType": "bool",
          "name": "",
          "type": "bool"
        }
      ],
      "stateMutability": "view",
      "type": "function"
    },
    {
      "inputs": [],
      "name": "sweepHue",
      "outputs": [],
      "stateMutability": "nonpayable",
      "type": "function"
    },
    {
      "inputs": [
        {
          "internalType": "uint256",
          "name": "",
          "type": "uint256"
        }
      ],
      "name": "userInterfaces",
      "outputs": [
        {
          "internalType": "address",
          "name": "kickbackDestination",
          "type": "address"
        },
        {
          "internalType": "uint64",
          "name": "kickbackPortion",
          "type": "uint64"
        },
        {
          "internalType": "enum IAccounting.UIGovernanceRating",
          "name": "governanceRating",
          "type": "uint8"
        },
        {
          "internalType": "uint24",
          "name": "tags",
          "type": "uint24"
        },
        {
          "internalType": "string",
          "name": "ipfsHash",
          "type": "string"
        }
      ],
      "stateMutability": "view",
      "type": "function"
    },
    {
      "inputs": [
        {
          "internalType": "bytes4",
          "name": "",
          "type": "bytes4"
        }
      ],
      "name": "validUpdate",
      "outputs": [
        {
          "internalType": "bool",
          "name": "",
          "type": "bool"
        }
      ],
      "stateMutability": "view",
      "type": "function"
    },
    {
      "stateMutability": "payable",
      "type": "receive"
    }
  ],
  "bytecode": "0x60a0604052600160066000509090556001600860006101000a81548160ff0219169083151502179055506001600860016101000a81548160ff0219169083151502179055506001601260006101000a81548163ffffffff021916908363ffffffff160217905550348015620000745760006000fd5b5060405162007d5938038062007d5983398181016040528101906200009a919062000129565b5b805b5b33600160006101000a81548173ffffffffffffffffffffffffffffffffffffffff021916908373ffffffffffffffffffffffffffffffffffffffff1602179055505b8073ffffffffffffffffffffffffffffffffffffffff1660808173ffffffffffffffffffffffffffffffffffffffff1660601b815260140150505b505b5062000160566200015f565b6000602082840312156200013b578081fd5b81516001600160a01b0381168114151562000154578182fd5b809150505b92915050565b5b60805160601c617bd6620001836000398061342e52806150965250617bd66000f3fe60806040526004361061030c5760003560e01c8063602db56b1161019a578063b87e8d58116100e1578063d99f57261161008a578063f34348f111610064578063f34348f114610c3e578063f709960714610c7c578063fd9c749214610ca6576103ed565b8063d99f572614610b96578063dd88486314610bd4578063e2b1e9e314610c12576103ed565b8063c7711db4116100bb578063c7711db414610aee578063d159b4ae14610b2c578063d5f3948814610b6a576103ed565b8063b87e8d5814610a5a578063bdb2a49614610a98578063c3c837ba14610ab0576103ed565b80637f250c6111610143578063a135ef171161011d578063a135ef17146109c8578063a678f33614610a06578063b241bbac14610a30576103ed565b80637f250c611461092e578063816aaa251461095a57806384eb7b9314610984576103ed565b806375ea13ca1161017457806375ea13ca146108ae57806375f12b21146108d857806378efc6b014610904576103ed565b8063602db56b1461082d57806362502169146108455780636594da9f1461086f576103ed565b80631a206e911161025e578063397d35921161020757806351ad51f7116101e157806351ad51f71461079b578063530c1ccb146107d95780635a6beaf414610803576103ed565b8063397d35921461072d578063461054a31461075757806346ca626b1461076f576103ed565b80632a7ba1f7116102385780632a7ba1f7146106af5780632b7c7b11146106d95780632c73f09e14610703576103ed565b80631a206e911461061d578063230173e01461065b57806326879a4e14610685576103ed565b80630f85fc5a116102c0578063150b7a021161029a578063150b7a021461057357806318a15e79146105b157806319ab453c146105f3576103ed565b80630f85fc5a146104cd578063113cf1ab1461050b5780631428561d14610549576103ed565b80630b218d24116102f15780630b218d241461044b5780630c340a24146104755780630dca59c1146104a1576103ed565b806306ef2d80146103f3578063092a26c31461041f576103ed565b366103ed575b600060009054906101000a900473ffffffffffffffffffffffffffffffffffffffff1673ffffffffffffffffffffffffffffffffffffffff166380f556056040518163ffffffff1660e01b815260040160206040518083038186803b15801561037b5760006000fd5b505afa158015610390573d600060003e3d6000fd5b505050506040513d601f19601f820116820180604052508101906103b49190616b6b565b73ffffffffffffffffffffffffffffffffffffffff163373ffffffffffffffffffffffffffffffffffffffff161415156103ea57fe5b5b005b60006000fd5b3480156104005760006000fd5b50610409610cd2565b6040516104169190617a84565b60405180910390f35b34801561042c5760006000fd5b50610435610cf2565b60405161044291906176f0565b60405180910390f35b3480156104585760006000fd5b50610473600480360381019061046e91906169f5565b610d05565b005b3480156104825760006000fd5b5061048b610dc7565b6040516104989190617738565b60405180910390f35b3480156104ae5760006000fd5b506104b7610ded565b6040516104c49190617ab5565b60405180910390f35b3480156104da5760006000fd5b506104f560048036038101906104f09190616f8d565b610e30565b60405161050291906178b0565b60405180910390f35b3480156105185760006000fd5b50610533600480360381019061052e9190616aa9565b610f4f565b60405161054091906176f0565b60405180910390f35b3480156105565760006000fd5b50610571600480360381019061056c9190616c07565b610f74565b005b3480156105805760006000fd5b5061059b6004803603810190610596919061691e565b611117565b6040516105a89190617704565b60405180910390f35b3480156105be5760006000fd5b506105d960048036038101906105d49190616dac565b61115d565b6040516105ea959493929190617496565b60405180910390f35b3480156106005760006000fd5b5061061b60048036038101906106169190616b1d565b611281565b005b34801561062a5760006000fd5b5061064560048036038101906106409190616de4565b611693565b60405161065291906176f0565b60405180910390f35b3480156106685760006000fd5b50610683600480360381019061067e91906169c4565b61170d565b005b3480156106925760006000fd5b506106ad60048036038101906106a89190616dac565b611722565b005b3480156106bc5760006000fd5b506106d760048036038101906106d29190616dac565b611996565b005b3480156106e65760006000fd5b5061070160048036038101906106fc9190616dac565b611a5c565b005b3480156107105760006000fd5b5061072b60048036038101906107269190616dac565b611bf2565b005b34801561073a5760006000fd5b50610755600480360381019061075091906169f5565b611d14565b005b3480156107645760006000fd5b5061076d611dd6565b005b34801561077c5760006000fd5b50610785611e2f565b6040516107929190617760565b60405180910390f35b3480156107a85760006000fd5b506107c360048036038101906107be9190616cfb565b611e34565b6040516107d09190617a67565b60405180910390f35b3480156107e65760006000fd5b5061080160048036038101906107fc9190616c07565b611e91565b005b3480156108105760006000fd5b5061082b60048036038101906108269190616fb0565b612034565b005b34801561083a5760006000fd5b5061084361222f565b005b3480156108525760006000fd5b5061086d600480360381019061086891906168ed565b612288565b005b34801561087c5760006000fd5b5061089760048036038101906108929190616f8d565b612300565b6040516108a5929190617ac7565b60405180910390f35b3480156108bb5760006000fd5b506108d660048036038101906108d191906169c4565b612493565b005b3480156108e55760006000fd5b506108ee6125a1565b6040516108fb91906176f0565b60405180910390f35b3480156109115760006000fd5b5061092c60048036038101906109279190616c9b565b6125b4565b005b34801561093b5760006000fd5b506109446126c2565b6040516109519190617ab5565b60405180910390f35b3480156109675760006000fd5b50610982600480360381019061097d9190616e15565b6126cb565b005b3480156109915760006000fd5b506109ac60048036038101906109a79190616dac565b6127db565b6040516109bf9796959493929190617417565b60405180910390f35b3480156109d55760006000fd5b506109f060048036038101906109eb9190616be0565b6128a5565b6040516109fd9190617ab5565b60405180910390f35b348015610a135760006000fd5b50610a2e6004803603810190610a2991906168c6565b6128c0565b005b348015610a3d5760006000fd5b50610a586004803603810190610a5391906169c4565b6128e2565b005b348015610a675760006000fd5b50610a826004803603810190610a7d91906168c6565b612a38565b604051610a8f91906175e4565b60405180910390f35b348015610aa55760006000fd5b50610aae612a9b565b005b348015610abd5760006000fd5b50610ad86004803603810190610ad39190616f59565b612bd3565b604051610ae591906174fa565b60405180910390f35b348015610afb5760006000fd5b50610b166004803603810190610b119190616c38565b612e42565b604051610b239190617698565b60405180910390f35b348015610b395760006000fd5b50610b546004803603810190610b4f9190616f33565b612f02565b604051610b619190617760565b60405180910390f35b348015610b775760006000fd5b50610b80612fbf565b604051610b8d9190617396565b60405180910390f35b348015610ba35760006000fd5b50610bbe6004803603810190610bb99190616c5f565b612fe5565b604051610bcb9190617760565b60405180910390f35b348015610be15760006000fd5b50610bfc6004803603810190610bf791906170db565b613056565b604051610c099190617ae0565b60405180910390f35b348015610c1f5760006000fd5b50610c286132b7565b604051610c359190617ae0565b60405180910390f35b348015610c4b5760006000fd5b50610c666004803603810190610c619190616dac565b6132cd565b604051610c73919061798e565b60405180910390f35b348015610c895760006000fd5b50610ca46004803603810190610c9f9190616d1e565b613575565b005b348015610cb35760006000fd5b50610cbc6136b8565b604051610cc991906176f0565b60405180910390f35b610cda6164d3565b610ce86136cb63ffffffff16565b9050610cef565b90565b600860009054906101000a900460ff1681565b610d1361384b63ffffffff16565b6000600090505b8151811015610d8a576002601360005060008484815181101515610d3a57fe5b602002602001015163ffffffff168152602001908152602001600020600050600001601c6101000a81548160ff02191690836002811115610d7757fe5b02179055505b8080600101915050610d1a565b507f7264e0084cbb7692193b834f40153b973ff4f827f8ed45da32ae6d8e486bb0c781604051610dba9190617644565b60405180910390a15b5b50565b600060009054906101000a900473ffffffffffffffffffffffffffffffffffffffff1681565b6000600b60005060010160009054906101000a90046fffffffffffffffffffffffffffffffff166fffffffffffffffffffffffffffffffff169050610e2d565b90565b610e386164fe565b610e47826138e063ffffffff16565b90508050600081610140015163ffffffff161115610f42576013600050600082610140015163ffffffff16815260200190815260200160002060005060000160009054906101000a900473ffffffffffffffffffffffffffffffffffffffff1681610160019073ffffffffffffffffffffffffffffffffffffffff16908173ffffffffffffffffffffffffffffffffffffffff16815260200150506013600050600082610140015163ffffffff16815260200190815260200160002060005060000160149054906101000a900467ffffffffffffffff1681610180019067ffffffffffffffff16908167ffffffffffffffff16815260200150505b809050610f4a565b919050565b600560005060205280600052604060002060009150909054906101000a900460ff1681565b610f82613c7c63ffffffff16565b611060600060009054906101000a900473ffffffffffffffffffffffffffffffffffffffff1673ffffffffffffffffffffffffffffffffffffffff16639ec5a8946040518163ffffffff1660e01b815260040160206040518083038186803b158015610fee5760006000fd5b505afa158015611003573d600060003e3d6000fd5b505050506040513d601f19601f820116820180604052508101906110279190616bb9565b73ffffffffffffffffffffffffffffffffffffffff163373ffffffffffffffffffffffffffffffffffffffff1614613cd763ffffffff16565b6110b881601060005060008573ffffffffffffffffffffffffffffffffffffffff1673ffffffffffffffffffffffffffffffffffffffff16815260200190815260200160002060005054613d1d90919063ffffffff16565b601060005060008473ffffffffffffffffffffffffffffffffffffffff1673ffffffffffffffffffffffffffffffffffffffff1681526020019081526020016000206000508190909055505b611112613da663ffffffff16565b5b5050565b60006040517f08c379a000000000000000000000000000000000000000000000000000000000815260040161114b90617832565b60405180910390fd5b95945050505050565b60136000506020528060005260406000206000915090508060000160009054906101000a900473ffffffffffffffffffffffffffffffffffffffff16908060000160149054906101000a900467ffffffffffffffff169080600001601c9054906101000a900460ff169080600001601d9054906101000a900462ffffff1690806001016000508054600181600116156101000203166002900480601f0160208091040260200160405190810160405280929190818152602001828054600181600116156101000203166002900480156112775780601f1061124c57610100808354040283529160200191611277565b820191906000526020600020905b81548152906001019060200180831161125a57829003601f168201915b5050505050905085565b600160009054906101000a900473ffffffffffffffffffffffffffffffffffffffff1673ffffffffffffffffffffffffffffffffffffffff163373ffffffffffffffffffffffffffffffffffffffff161415156112de5760006000fd5b600160159054906101000a900460ff161515156112fb5760006000fd5b80600060006101000a81548173ffffffffffffffffffffffffffffffffffffffff021916908373ffffffffffffffffffffffffffffffffffffffff160217905550600060009054906101000a900473ffffffffffffffffffffffffffffffffffffffff1673ffffffffffffffffffffffffffffffffffffffff16639624e83e6040518163ffffffff1660e01b815260040160206040518083038186803b1580156113a55760006000fd5b505afa1580156113ba573d600060003e3d6000fd5b505050506040513d601f19601f820116820180604052508101906113de9190616af6565b600260006101000a81548173ffffffffffffffffffffffffffffffffffffffff021916908373ffffffffffffffffffffffffffffffffffffffff160217905550600060009054906101000a900473ffffffffffffffffffffffffffffffffffffffff1673ffffffffffffffffffffffffffffffffffffffff1663323741746040518163ffffffff1660e01b815260040160206040518083038186803b1580156114875760006000fd5b505afa15801561149c573d600060003e3d6000fd5b505050506040513d601f19601f820116820180604052508101906114c09190616b44565b600360006101000a81548173ffffffffffffffffffffffffffffffffffffffff021916908373ffffffffffffffffffffffffffffffffffffffff160217905550600060009054906101000a900473ffffffffffffffffffffffffffffffffffffffff1673ffffffffffffffffffffffffffffffffffffffff1663d478b0876040518163ffffffff1660e01b815260040160206040518083038186803b1580156115695760006000fd5b505afa15801561157e573d600060003e3d6000fd5b505050506040513d601f19601f820116820180604052508101906115a29190616b92565b600460006101000a81548173ffffffffffffffffffffffffffffffffffffffff021916908373ffffffffffffffffffffffffffffffffffffffff1602179055506115f0613db663ffffffff16565b600160149054906101000a900460ff16151561163057600160006101000a81549073ffffffffffffffffffffffffffffffffffffffff021916905561164c565b6001600160156101000a81548160ff0219169083151502179055505b8073ffffffffffffffffffffffffffffffffffffffff167f908408e307fc569b417f6cbec5d5a06f44a0a505ac0479b47d421a4b2fd6a1e660405160405180910390a25b50565b60008173ffffffffffffffffffffffffffffffffffffffff16600f600050600085815260200190815260200160002060005060000160009054906101000a900473ffffffffffffffffffffffffffffffffffffffff1673ffffffffffffffffffffffffffffffffffffffff16149050611707565b92915050565b61171d828261409063ffffffff16565b5b5050565b611730613c7c63ffffffff16565b61180e600060009054906101000a900473ffffffffffffffffffffffffffffffffffffffff1673ffffffffffffffffffffffffffffffffffffffff16639ec5a8946040518163ffffffff1660e01b815260040160206040518083038186803b15801561179c5760006000fd5b505afa1580156117b1573d600060003e3d6000fd5b505050506040513d601f19601f820116820180604052508101906117d59190616bb9565b73ffffffffffffffffffffffffffffffffffffffff163373ffffffffffffffffffffffffffffffffffffffff1614613cd763ffffffff16565b6118b1611822826140fd909063ffffffff16565b60116000506000600f600050600086815260200190815260200160002060005060000160009054906101000a900473ffffffffffffffffffffffffffffffffffffffff1673ffffffffffffffffffffffffffffffffffffffff1673ffffffffffffffffffffffffffffffffffffffff16815260200190815260200160002060005061419790919063ffffffff16565b50600f600050600082815260200190815260200160002060006000820160006101000a81549073ffffffffffffffffffffffffffffffffffffffff02191690556000820160146101000a81549061ffff02191690556000820160166101000a81549063ffffffff021916905560018201600050600090556002820160006101000a81549075ffffffffffffffffffffffffffffffffffffffffffff02191690556002820160166101000a81549064ffffffffff021916905560028201601b6101000a81549064ffffffffff021916905550505b611992613da663ffffffff16565b5b50565b6119a4613c7c63ffffffff16565b6119b26143ae63ffffffff16565b611a0b6119fe82600b60005060010160009054906101000a90046fffffffffffffffffffffffffffffffff166fffffffffffffffffffffffffffffffff1661443e90919063ffffffff16565b6140fd909063ffffffff16565b600b60005060010160006101000a8154816fffffffffffffffffffffffffffffffff02191690836fffffffffffffffffffffffffffffffff1602179055505b611a58613da663ffffffff16565b5b50565b611a6a613c7c63ffffffff16565b611b48600060009054906101000a900473ffffffffffffffffffffffffffffffffffffffff1673ffffffffffffffffffffffffffffffffffffffff166380f556056040518163ffffffff1660e01b815260040160206040518083038186803b158015611ad65760006000fd5b505afa158015611aeb573d600060003e3d6000fd5b505050506040513d601f19601f82011682018060405250810190611b0f9190616b6b565b73ffffffffffffffffffffffffffffffffffffffff163373ffffffffffffffffffffffffffffffffffffffff1614613cd763ffffffff16565b611ba1611b9482600b60005060010160009054906101000a90046fffffffffffffffffffffffffffffffff166fffffffffffffffffffffffffffffffff16613d1d90919063ffffffff16565b6140fd909063ffffffff16565b600b60005060010160006101000a8154816fffffffffffffffffffffffffffffffff02191690836fffffffffffffffffffffffffffffffff1602179055505b611bee613da663ffffffff16565b5b50565b611c00613c7c63ffffffff16565b611cde600060009054906101000a900473ffffffffffffffffffffffffffffffffffffffff1673ffffffffffffffffffffffffffffffffffffffff166380f556056040518163ffffffff1660e01b815260040160206040518083038186803b158015611c6c5760006000fd5b505afa158015611c81573d600060003e3d6000fd5b505050506040513d601f19601f82011682018060405250810190611ca59190616b6b565b73ffffffffffffffffffffffffffffffffffffffff163373ffffffffffffffffffffffffffffffffffffffff1614613cd763ffffffff16565b611cf681600a60005054613d1d90919063ffffffff16565b600a6000508190909055505b611d10613da663ffffffff16565b5b50565b611d2261384b63ffffffff16565b6000600090505b8151811015611d99576001601360005060008484815181101515611d4957fe5b602002602001015163ffffffff168152602001908152602001600020600050600001601c6101000a81548160ff02191690836002811115611d8657fe5b02179055505b8080600101915050611d29565b507f2e54370527117fb69828eac075cb3ed33fe59712134dfd3ef6efc9bd8b60c1ec81604051611dc99190617644565b60405180910390a15b5b50565b611de461384b63ffffffff16565b6000600860006101000a81548160ff0219169083151502179055507f262b602ad12e3e551a407d5246b500f4ca5a01cc76bbf03e925db643a62a692f60405160405180910390a15b5b565b60c881565b611e3c6165b2565b600e60005060008361ffff1661ffff168152602001908152602001600020600050604051806040016040529081600082016000505481526020016001820160005054815260200150509050611e8c565b919050565b611e9f613c7c63ffffffff16565b611f7d600060009054906101000a900473ffffffffffffffffffffffffffffffffffffffff1673ffffffffffffffffffffffffffffffffffffffff16639ec5a8946040518163ffffffff1660e01b815260040160206040518083038186803b158015611f0b5760006000fd5b505afa158015611f20573d600060003e3d6000fd5b505050506040513d601f19601f82011682018060405250810190611f449190616bb9565b73ffffffffffffffffffffffffffffffffffffffff163373ffffffffffffffffffffffffffffffffffffffff1614613cd763ffffffff16565b611fd581601060005060008573ffffffffffffffffffffffffffffffffffffffff1673ffffffffffffffffffffffffffffffffffffffff1681526020019081526020016000206000505461443e90919063ffffffff16565b601060005060008473ffffffffffffffffffffffffffffffffffffffff1673ffffffffffffffffffffffffffffffffffffffff1681526020019081526020016000206000508190909055505b61202f613da663ffffffff16565b5b5050565b612042613c7c63ffffffff16565b6120506143ae63ffffffff16565b600860009054906101000a900460ff168015612077575060008267ffffffffffffffff1614155b156120915761208c82826144c763ffffffff16565b905080505b600081602001511480156120a9575060008160400151145b1561220a57600760005060008367ffffffffffffffff1667ffffffffffffffff168152602001908152602001600020600060008201600050600090556001820160006101000a8154906fffffffffffffffffffffffffffffffff02191690556001820160106101000a8154906fffffffffffffffffffffffffffffffff02191690556002820160006101000a8154906fffffffffffffffffffffffffffffffff02191690556002820160106101000a8154906fffffffffffffffffffffffffffffffff02191690556003820160006101000a81549067ffffffffffffffff02191690556003820160086101000a81549067ffffffffffffffff02191690556003820160106101000a81549062ffffff02191690556003820160136101000a81549060ff02191690556003820160146101000a81549067ffffffffffffffff021916905560038201601c6101000a81549063ffffffff0219169055505061221b565b61221a828261488263ffffffff16565b5b5b61222a613da663ffffffff16565b5b5050565b61223d61384b63ffffffff16565b6000600860016101000a81548160ff0219169083151502179055507fc4f6661464541d662c51191d4da5a7a1cc8bca2631698fd030e21b52520a549c60405160405180910390a15b5b565b612296613c7c63ffffffff16565b6122a46143ae63ffffffff16565b8173ffffffffffffffffffffffffffffffffffffffff166108fc829081150290604051600060405180830381858888f193505050501580156122eb573d600060003e3d6000fd5b505b6122fb613da663ffffffff16565b5b5050565b60006000600760005060008467ffffffffffffffff1667ffffffffffffffff16815260200190815260200160002060005060010160109054906101000a90046fffffffffffffffffffffffffffffffff166fffffffffffffffffffffffffffffffff1691508150600760005060008467ffffffffffffffff1667ffffffffffffffff16815260200190815260200160002060005060010160009054906101000a90046fffffffffffffffffffffffffffffffff166fffffffffffffffffffffffffffffffff16905080506000600760005060008567ffffffffffffffff1667ffffffffffffffff16815260200190815260200160002060005060020160009054906101000a90046fffffffffffffffffffffffffffffffff166fffffffffffffffffffffffffffffffff1690506000600b60005060010160109054906101000a90046fffffffffffffffffffffffffffffffff166fffffffffffffffffffffffffffffffff169050808214151561248b57612486818386614bf09092919063ffffffff16565b935083505b50505b915091565b600860019054906101000a900460ff1615156124ae5761259d565b61258c600060009054906101000a900473ffffffffffffffffffffffffffffffffffffffff1673ffffffffffffffffffffffffffffffffffffffff16639ec5a8946040518163ffffffff1660e01b815260040160206040518083038186803b15801561251a5760006000fd5b505afa15801561252f573d600060003e3d6000fd5b505050506040513d601f19601f820116820180604052508101906125539190616bb9565b73ffffffffffffffffffffffffffffffffffffffff163373ffffffffffffffffffffffffffffffffffffffff1614613cd763ffffffff16565b61259c828261409063ffffffff16565b5b5050565b600060149054906101000a900460ff1681565b6125c2613c7c63ffffffff16565b6126a0600060009054906101000a900473ffffffffffffffffffffffffffffffffffffffff1673ffffffffffffffffffffffffffffffffffffffff166380f556056040518163ffffffff1660e01b815260040160206040518083038186803b15801561262e5760006000fd5b505afa158015612643573d600060003e3d6000fd5b505050506040513d601f19601f820116820180604052508101906126679190616b6b565b73ffffffffffffffffffffffffffffffffffffffff163373ffffffffffffffffffffffffffffffffffffffff1614613cd763ffffffff16565b6126af81614cf163ffffffff16565b5b6126be613da663ffffffff16565b5b50565b600a6000505481565b6126d9613c7c63ffffffff16565b6127b7600060009054906101000a900473ffffffffffffffffffffffffffffffffffffffff1673ffffffffffffffffffffffffffffffffffffffff16639ec5a8946040518163ffffffff1660e01b815260040160206040518083038186803b1580156127455760006000fd5b505afa15801561275a573d600060003e3d6000fd5b505050506040513d601f19601f8201168201806040525081019061277e9190616bb9565b73ffffffffffffffffffffffffffffffffffffffff163373ffffffffffffffffffffffffffffffffffffffff1614613cd763ffffffff16565b6127c78282614e6363ffffffff16565b5b6127d6613da663ffffffff16565b5b5050565b600f6000506020528060005260406000206000915090508060000160009054906101000a900473ffffffffffffffffffffffffffffffffffffffff16908060000160149054906101000a900461ffff16908060000160169054906101000a900463ffffffff16908060010160005054908060020160009054906101000a900475ffffffffffffffffffffffffffffffffffffffffffff16908060020160169054906101000a900464ffffffffff169080600201601b9054906101000a900464ffffffffff16905087565b60106000506020528060005260406000206000915090505481565b6128ce61384b63ffffffff16565b6128dd8161509463ffffffff16565b5b5b50565b6128f0613c7c63ffffffff16565b6129ce600060009054906101000a900473ffffffffffffffffffffffffffffffffffffffff1673ffffffffffffffffffffffffffffffffffffffff166380f556056040518163ffffffff1660e01b815260040160206040518083038186803b15801561295c5760006000fd5b505afa158015612971573d600060003e3d6000fd5b505050506040513d601f19601f820116820180604052508101906129959190616b6b565b73ffffffffffffffffffffffffffffffffffffffff163373ffffffffffffffffffffffffffffffffffffffff1614613cd763ffffffff16565b6129e681600a6000505461443e90919063ffffffff16565b600a600050819090905550612a24600360009054906101000a900473ffffffffffffffffffffffffffffffffffffffff16838361512863ffffffff16565b5b612a33613da663ffffffff16565b5b5050565b6060612a8f601160005060008473ffffffffffffffffffffffffffffffffffffffff1673ffffffffffffffffffffffffffffffffffffffff168152602001908152602001600020600050615334909063ffffffff16565b9050612a96565b919050565b612aa9613c7c63ffffffff16565b612bc1600360009054906101000a900473ffffffffffffffffffffffffffffffffffffffff16600360009054906101000a900473ffffffffffffffffffffffffffffffffffffffff16612bb6600a60005054600360009054906101000a900473ffffffffffffffffffffffffffffffffffffffff1673ffffffffffffffffffffffffffffffffffffffff166370a08231306040518263ffffffff1660e01b8152600401612b5691906173be565b60206040518083038186803b158015612b6f5760006000fd5b505afa158015612b84573d600060003e3d6000fd5b505050506040513d601f19601f82011682018060405250810190612ba89190616dc8565b61443e90919063ffffffff16565b61512863ffffffff16565b5b612bd0613da663ffffffff16565b5b565b60608163ffffffff168363ffffffff16101515612bf05760006000fd5b82820363ffffffff1667ffffffffffffffff81118015612c105760006000fd5b50604051908082528060200260200182016040528015612c4a57816020015b612c376165cf565b815260200190600190039081612c2f5790505b509050805060005b8263ffffffff168463ffffffff161015612e3a57601360005060008580600101965063ffffffff1681526020019081526020016000206000506040518060a00160405290816000820160009054906101000a900473ffffffffffffffffffffffffffffffffffffffff1673ffffffffffffffffffffffffffffffffffffffff1673ffffffffffffffffffffffffffffffffffffffff1681526020016000820160149054906101000a900467ffffffffffffffff1667ffffffffffffffff1667ffffffffffffffff16815260200160008201601c9054906101000a900460ff166002811115612d3c57fe5b6002811115612d4757fe5b815260200160008201601d9054906101000a900462ffffff1662ffffff1662ffffff168152602001600182016000508054600181600116156101000203166002900480601f016020809104026020016040519081016040528092919081815260200182805460018160011615610100020316600290048015612e0a5780601f10612ddf57610100808354040283529160200191612e0a565b820191906000526020600020905b815481529060010190602001808311612ded57829003601f168201915b5050505050815260200150508282806001019350815181101515612e2a57fe5b6020026020010181905250612c52565b505b92915050565b606060096000506000612e5c8460c8612fe563ffffffff16565b60020b60020b8152602001908152602001600020600050805480602002602001604051908101604052809291908181526020018280548015612ef157602002820191906000526020600020906000905b82829054906101000a900467ffffffffffffffff1667ffffffffffffffff1681526020019060080190602082600701049283019260010382029150808411612eac5790505b50505050509050612efd565b919050565b60006000831480612f135750600082145b15612f2357627fffff9050612fb9565b6000612f60612f5584612f47670de0b6b3a7640000886153da90919063ffffffff16565b61547890919063ffffffff16565b61549e63ffffffff16565b9050612fb0612fa3612f98612f8b6c010000000000000000000000008561551190919063ffffffff16565b615537909063ffffffff16565b6155d563ffffffff16565b60c8612fe563ffffffff16565b915050612fb956505b92915050565b600160009054906101000a900473ffffffffffffffffffffffffffffffffffffffff1681565b600060008360020b905060008360020b82811515612fff57fe5b0790506000811415613015578492505050613050565b60006000831361302c578460020b82840303613030565b8183035b9050613043816159e9909063ffffffff16565b9350505050613050565050505b92915050565b6000613066613c7c63ffffffff16565b6703782dace9d9000067ffffffffffffffff168467ffffffffffffffff16111515156130c7576040517f08c379a00000000000000000000000000000000000000000000000000000000081526004016130be90617871565b60405180910390fd5b63ffffffff63ffffffff16601260009054906101000a900463ffffffff1663ffffffff161015156130f85760006000fd5b60006012600081819054906101000a900463ffffffff168092919060010191906101000a81548163ffffffff021916908363ffffffff16021790555090506040518060a001604052803373ffffffffffffffffffffffffffffffffffffffff1681526020018667ffffffffffffffff1681526020016000600281111561317a57fe5b81526020018562ffffff16815260200184815260200150601360005060008363ffffffff16815260200190815260200160002060005060008201518160000160006101000a81548173ffffffffffffffffffffffffffffffffffffffff021916908373ffffffffffffffffffffffffffffffffffffffff16021790555060208201518160000160146101000a81548167ffffffffffffffff021916908367ffffffffffffffff160217905550604082015181600001601c6101000a81548160ff0219169083600281111561324a57fe5b0217905550606082015181600001601d6101000a81548162ffffff021916908362ffffff1602179055506080820151816001016000509080519060200190613293929190616631565b50905050809150506132a156505b6132af613da663ffffffff16565b5b9392505050565b601260009054906101000a900463ffffffff1681565b6132d56166c4565b6132e482615aa163ffffffff16565b905080506000816020015161ffff16111515613335576040517f08c379a000000000000000000000000000000000000000000000000000000000815260040161332c906177f3565b60405180910390fd5b600081610120015163ffffffff16111561342c576013600050600082610120015163ffffffff16815260200190815260200160002060005060000160149054906101000a900467ffffffffffffffff1681610160019067ffffffffffffffff16908167ffffffffffffffff16815260200150506013600050600082610120015163ffffffff16815260200190815260200160002060005060000160009054906101000a900473ffffffffffffffffffffffffffffffffffffffff1681610140019073ffffffffffffffffffffffffffffffffffffffff16908173ffffffffffffffffffffffffffffffffffffffff16815260200150505b7f000000000000000000000000000000000000000000000000000000000000000073ffffffffffffffffffffffffffffffffffffffff166399fbab88836040518263ffffffff1660e01b81526004016134859190617ab5565b6101806040518083038186803b15801561349f5760006000fd5b505afa1580156134b4573d600060003e3d6000fd5b505050506040513d601f19601f820116820180604052508101906134d891906171ac565b909192939495969798999a509091929394959697989950909192939495969798509091929394959697509091929394959650909192509091509050508360e00184610100018560a0018390906fffffffffffffffffffffffffffffffff166fffffffffffffffffffffffffffffffff1681526020015083909060020b60020b81526020015083909060020b60020b8152602001505050505b919050565b613583613c7c63ffffffff16565b613661600060009054906101000a900473ffffffffffffffffffffffffffffffffffffffff1673ffffffffffffffffffffffffffffffffffffffff16639ec5a8946040518163ffffffff1660e01b815260040160206040518083038186803b1580156135ef5760006000fd5b505afa158015613604573d600060003e3d6000fd5b505050506040513d601f19601f820116820180604052508101906136289190616bb9565b73ffffffffffffffffffffffffffffffffffffffff163373ffffffffffffffffffffffffffffffffffffffff1614613cd763ffffffff16565b80600e60005060008461ffff1661ffff1681526020019081526020016000206000506000820151816000016000509090556020820151816001016000509090559050505b6136b3613da663ffffffff16565b5b5050565b600860019054906101000a900460ff1681565b6136d36164d3565b6000600b600050604051806080016040529081600082016000505481526020016001820160009054906101000a90046fffffffffffffffffffffffffffffffff166fffffffffffffffffffffffffffffffff166fffffffffffffffffffffffffffffffff1681526020016001820160109054906101000a90046fffffffffffffffffffffffffffffffff166fffffffffffffffffffffffffffffffff166fffffffffffffffffffffffffffffffff1681526020016002820160009054906101000a90046fffffffffffffffffffffffffffffffff166fffffffffffffffffffffffffffffffff166fffffffffffffffffffffffffffffffff16815260200150509050604051806080016040528082602001516fffffffffffffffffffffffffffffffff16815260200182606001516fffffffffffffffffffffffffffffffff1681526020018260000151815260200182604001516fffffffffffffffffffffffffffffffff1681526020015091505061384856505b90565b600060009054906101000a900473ffffffffffffffffffffffffffffffffffffffff1673ffffffffffffffffffffffffffffffffffffffff163373ffffffffffffffffffffffffffffffffffffffff161415156138dd576040517f08c379a00000000000000000000000000000000000000000000000000000000081526004016138d4906177b4565b60405180910390fd5b5b565b6138e86164fe565b6000600760005060008467ffffffffffffffff1667ffffffffffffffff16815260200190815260200160002060005060405180610160016040529081600082016000505481526020016001820160009054906101000a90046fffffffffffffffffffffffffffffffff166fffffffffffffffffffffffffffffffff166fffffffffffffffffffffffffffffffff1681526020016001820160109054906101000a90046fffffffffffffffffffffffffffffffff166fffffffffffffffffffffffffffffffff166fffffffffffffffffffffffffffffffff1681526020016002820160009054906101000a90046fffffffffffffffffffffffffffffffff166fffffffffffffffffffffffffffffffff166fffffffffffffffffffffffffffffffff1681526020016002820160109054906101000a90046fffffffffffffffffffffffffffffffff166fffffffffffffffffffffffffffffffff166fffffffffffffffffffffffffffffffff1681526020016003820160009054906101000a900467ffffffffffffffff1667ffffffffffffffff1667ffffffffffffffff1681526020016003820160089054906101000a900467ffffffffffffffff1667ffffffffffffffff1667ffffffffffffffff1681526020016003820160109054906101000a900460020b60020b60020b81526020016003820160139054906101000a900460ff161515151581526020016003820160149054906101000a900467ffffffffffffffff1667ffffffffffffffff1667ffffffffffffffff16815260200160038201601c9054906101000a900463ffffffff1663ffffffff1663ffffffff16815260200150509050604051806101a001604052808260000151815260200182602001516fffffffffffffffffffffffffffffffff16815260200182604001516fffffffffffffffffffffffffffffffff16815260200182606001516fffffffffffffffffffffffffffffffff16815260200182608001516fffffffffffffffffffffffffffffffff1681526020018260a0015167ffffffffffffffff1681526020018260c0015167ffffffffffffffff1681526020018260e0015160020b81526020018261010001511515815260200182610120015167ffffffffffffffff16815260200182610140015163ffffffff168152602001600073ffffffffffffffffffffffffffffffffffffffff168152602001600067ffffffffffffffff16815260200150915050613c7756505b919050565b600260066000505414151515613cc7576040517f08c379a0000000000000000000000000000000000000000000000000000000008152600401613cbe90617775565b60405180910390fd5b600260066000508190909055505b565b801515613d19576040517f08c379a0000000000000000000000000000000000000000000000000000000008152600401613d10906177b4565b60405180910390fd5b5b50565b60008282840191508110151515613d9f576040517f08c379a000000000000000000000000000000000000000000000000000000000815260040180806020018281038252600c8152602001807f6164642d6f766572666c6f77000000000000000000000000000000000000000081526020015060200191505060405180910390fd5b5b92915050565b600160066000508190909055505b565b613dcf670de0b6b3a76400006140fd909063ffffffff16565b600b60005060010160106101000a8154816fffffffffffffffffffffffffffffffff02191690836fffffffffffffffffffffffffffffffff160217905550613ebd600060009054906101000a900473ffffffffffffffffffffffffffffffffffffffff1673ffffffffffffffffffffffffffffffffffffffff16639ec5a8946040518163ffffffff1660e01b815260040160206040518083038186803b158015613e795760006000fd5b505afa158015613e8e573d600060003e3d6000fd5b505050506040513d601f19601f82011682018060405250810190613eb29190616bb9565b61509463ffffffff16565b60016005600050600063461054a360e01b7bffffffffffffffffffffffffffffffffffffffffffffffffffffffff19167bffffffffffffffffffffffffffffffffffffffffffffffffffffffff1916815260200190815260200160002060006101000a81548160ff02191690831515021790555060016005600050600063602db56b60e01b7bffffffffffffffffffffffffffffffffffffffffffffffffffffffff19167bffffffffffffffffffffffffffffffffffffffffffffffffffffffff1916815260200190815260200160002060006101000a81548160ff02191690831515021790555060016005600050600063397d359260e01b7bffffffffffffffffffffffffffffffffffffffffffffffffffffffff19167bffffffffffffffffffffffffffffffffffffffffffffffffffffffff1916815260200190815260200160002060006101000a81548160ff021916908315150217905550600160056000506000630b218d2460e01b7bffffffffffffffffffffffffffffffffffffffffffffffffffffffff19167bffffffffffffffffffffffffffffffffffffffffffffffffffffffff1916815260200190815260200160002060006101000a81548160ff0219169083151502179055505b565b6140f76140a4826140fd909063ffffffff16565b601160005060008573ffffffffffffffffffffffffffffffffffffffff1673ffffffffffffffffffffffffffffffffffffffff168152602001908152602001600020600050615d3790919063ffffffff16565b505b5050565b60007001000000000000000000000000000000008210151561418a576040517f08c379a00000000000000000000000000000000000000000000000000000000081526004018080602001828103825260128152602001807f6d6f7265207468616e203132382062697473000000000000000000000000000081526020015060200191505060405180910390fd5b819050614192565b919050565b60006000836001016000506000846fffffffffffffffffffffffffffffffff166fffffffffffffffffffffffffffffffff16815260200190815260200160002060005054905060008114151561439c5760006001820390506000600186600001600050805490500390506000866000016000508281548110151561421757fe5b90600052602060002090600291828204019190066010025b9054906101000a90046fffffffffffffffffffffffffffffffff16905080876000016000508481548110151561426157fe5b90600052602060002090600291828204019190066010025b6101000a8154816fffffffffffffffffffffffffffffffff02191690836fffffffffffffffffffffffffffffffff16021790555060018301876001016000506000836fffffffffffffffffffffffffffffffff166fffffffffffffffffffffffffffffffff16815260200190815260200160002060005081909090555086600001600050805480151561430857fe5b60019003818190600052602060002090600291828204019190066010025b6101000a8154906fffffffffffffffffffffffffffffffff02191690559055866001016000506000876fffffffffffffffffffffffffffffffff166fffffffffffffffffffffffffffffffff1681526020019081526020016000206000506000905560019450505050506143a8565050506143a6565b60009150506143a8565b505b92915050565b600060009054906101000a900473ffffffffffffffffffffffffffffffffffffffff1673ffffffffffffffffffffffffffffffffffffffff16637c114fed336040518263ffffffff1660e01b815260040161440991906173be565b60006040518083038186803b1580156144225760006000fd5b505afa158015614437573d600060003e3d6000fd5b505050505b565b600082828403915081111515156144c0576040517f08c379a000000000000000000000000000000000000000000000000000000000815260040180806020018281038252600d8152602001807f7375622d756e646572666c6f770000000000000000000000000000000000000081526020015060200191505060405180910390fd5b5b92915050565b6144cf6164fe565b6000600760005060008567ffffffffffffffff1667ffffffffffffffff16815260200190815260200160002060005060030160139054906101000a900460ff16905060008161452157627fffff614560565b600760005060008667ffffffffffffffff1667ffffffffffffffff16815260200190815260200160002060005060030160109054906101000a900460020b5b90506000600760005060008767ffffffffffffffff1667ffffffffffffffff16815260200190815260200160002060005060030160149054906101000a900467ffffffffffffffff16905060006145c586602001518760400151612f0263ffffffff16565b90508060020b8360020b14151561486c57808660e0019060020b908160020b815260200150506000627fffff60020b8460020b121561479257600960005060008560020b60020b815260200190815260200160002060005090508050600061463b6001838054905003615e28909063ffffffff16565b90508067ffffffffffffffff168467ffffffffffffffff1614151561474f576000828267ffffffffffffffff1681548110151561467457fe5b90600052602060002090600491828204019190066008025b9054906101000a900467ffffffffffffffff16905080838667ffffffffffffffff168154811015156146ba57fe5b90600052602060002090600491828204019190066008025b6101000a81548167ffffffffffffffff021916908367ffffffffffffffff16021790555084600760005060008367ffffffffffffffff1667ffffffffffffffff16815260200190815260200160002060005060030160146101000a81548167ffffffffffffffff021916908367ffffffffffffffff160217905550505b81805480151561475b57fe5b60019003818190600052602060002090600491828204019190066008025b6101000a81549067ffffffffffffffff02191690559055505b627fffff60020b8260020b121561486a57600960005060008360020b60020b8152602001908152602001600020600050905080506147db8180549050615e28909063ffffffff16565b87610120019067ffffffffffffffff16908167ffffffffffffffff1681526020015050600187610100019015159081151581526020015050808890806001815401808255809150506001900390600052602060002090600491828204019190066008025b9091909190916101000a81548167ffffffffffffffff021916908367ffffffffffffffff1602179055505b505b8594505050505061487c56505050505b92915050565b604051806101600160405280826000015181526020016148ad83602001516140fd909063ffffffff16565b6fffffffffffffffffffffffffffffffff1681526020016148d983604001516140fd909063ffffffff16565b6fffffffffffffffffffffffffffffffff16815260200161490583606001516140fd909063ffffffff16565b6fffffffffffffffffffffffffffffffff16815260200161493183608001516140fd909063ffffffff16565b6fffffffffffffffffffffffffffffffff1681526020018260a0015167ffffffffffffffff1681526020018260c0015167ffffffffffffffff1681526020018260e0015160020b81526020018261010001511515815260200182610120015167ffffffffffffffff16815260200182610140015163ffffffff16815260200150600760005060008467ffffffffffffffff1667ffffffffffffffff16815260200190815260200160002060005060008201518160000160005090905560208201518160010160006101000a8154816fffffffffffffffffffffffffffffffff02191690836fffffffffffffffffffffffffffffffff16021790555060408201518160010160106101000a8154816fffffffffffffffffffffffffffffffff02191690836fffffffffffffffffffffffffffffffff16021790555060608201518160020160006101000a8154816fffffffffffffffffffffffffffffffff02191690836fffffffffffffffffffffffffffffffff16021790555060808201518160020160106101000a8154816fffffffffffffffffffffffffffffffff02191690836fffffffffffffffffffffffffffffffff16021790555060a08201518160030160006101000a81548167ffffffffffffffff021916908367ffffffffffffffff16021790555060c08201518160030160086101000a81548167ffffffffffffffff021916908367ffffffffffffffff16021790555060e08201518160030160106101000a81548162ffffff021916908360020b62ffffff1602179055506101008201518160030160136101000a81548160ff0219169083151502179055506101208201518160030160146101000a81548167ffffffffffffffff021916908367ffffffffffffffff16021790555061014082015181600301601c6101000a81548163ffffffff021916908363ffffffff1602179055509050505b5050565b6000600060006000198587098587029250828110838203039150506000811415614c3357600084111515614c245760006000fd5b83820492508292505050614cea565b8084111515614c425760006000fd5b6000848688099050828111820391508083039250600085866000031690508086049550808404935060018182600003040190508083028417935083506000600287600302189050808702600203810290508050808702600203810290508050808702600203810290508050808702600203810290508050808702600203810290508050808702600203810290508050808502955085508595505050505050614cea5650505050505b9392505050565b604051806080016040528082604001518152602001614d1b83600001516140fd909063ffffffff16565b6fffffffffffffffffffffffffffffffff168152602001614d4783606001516140fd909063ffffffff16565b6fffffffffffffffffffffffffffffffff168152602001614d7383602001516140fd909063ffffffff16565b6fffffffffffffffffffffffffffffffff16815260200150600b60005060008201518160000160005090905560208201518160010160006101000a8154816fffffffffffffffffffffffffffffffff02191690836fffffffffffffffffffffffffffffffff16021790555060408201518160010160106101000a8154816fffffffffffffffffffffffffffffffff02191690836fffffffffffffffffffffffffffffffff16021790555060608201518160020160006101000a8154816fffffffffffffffffffffffffffffffff02191690836fffffffffffffffffffffffffffffffff1602179055509050505b50565b6040518060e00160405280826000015173ffffffffffffffffffffffffffffffffffffffff168152602001826020015161ffff16815260200182610120015163ffffffff16815260200182604001518152602001614ecc8360600151615eba909063ffffffff16565b75ffffffffffffffffffffffffffffffffffffffffffff168152602001614f088360c0015167ffffffffffffffff16615f5a909063ffffffff16565b64ffffffffff168152602001614f298360800151615f5a909063ffffffff16565b64ffffffffff16815260200150600f600050600084815260200190815260200160002060005060008201518160000160006101000a81548173ffffffffffffffffffffffffffffffffffffffff021916908373ffffffffffffffffffffffffffffffffffffffff16021790555060208201518160000160146101000a81548161ffff021916908361ffff16021790555060408201518160000160166101000a81548163ffffffff021916908363ffffffff16021790555060608201518160010160005090905560808201518160020160006101000a81548175ffffffffffffffffffffffffffffffffffffffffffff021916908375ffffffffffffffffffffffffffffffffffffffffffff16021790555060a08201518160020160166101000a81548164ffffffffff021916908364ffffffffff16021790555060c082015181600201601b6101000a81548164ffffffffff021916908364ffffffffff1602179055509050505b5050565b7f000000000000000000000000000000000000000000000000000000000000000073ffffffffffffffffffffffffffffffffffffffff1663a22cb4658260016040518363ffffffff1660e01b81526004016150f09291906173e6565b600060405180830381600087803b15801561510b5760006000fd5b505af1158015615120573d600060003e3d6000fd5b505050505b50565b600060008473ffffffffffffffffffffffffffffffffffffffff1663a9059cbb60e01b8585604051602401808373ffffffffffffffffffffffffffffffffffffffff16815260200182815260200192505050604051602081830303815290604052907bffffffffffffffffffffffffffffffffffffffffffffffffffffffff19166020820180517bffffffffffffffffffffffffffffffffffffffffffffffffffffffff83818316178352505050506040518082805190602001908083835b60208310151561520d57805182525b6020820191506020810190506020830392506151e7565b6001836020036101000a0380198251168184511680821785525050505050509050019150506000604051808303816000865af19150503d806000811461526f576040519150601f19603f3d011682016040523d82523d6000602084013e615274565b606091505b50915091508180156152b557506000815114806152b457508080602001905160208110156152a25760006000fd5b81019080805190602001909291905050505b5b151561532c576040517f08c379a00000000000000000000000000000000000000000000000000000000081526004018080602001828103825260028152602001807f535400000000000000000000000000000000000000000000000000000000000081526020015060200191505060405180910390fd5b50505b505050565b6060816000016000508054806020026020016040519081016040528092919081815260200182805480156153cb57602002820191906000526020600020906000905b82829054906101000a90046fffffffffffffffffffffffffffffffff166fffffffffffffffffffffffffffffffff1681526020019060100190602082600f010492830192600103820291508084116153765790505b5050505050905080505b919050565b600060008214806153fa575082828385029250828115156153f757fe5b04145b1515615471576040517f08c379a000000000000000000000000000000000000000000000000000000000815260040180806020018281038252600c8152602001807f6d756c2d6f766572666c6f77000000000000000000000000000000000000000081526020015060200191505060405180910390fd5b5b92915050565b600061549383670de0b6b3a764000084614bf063ffffffff16565b905080505b92915050565b600060038211156154f9578190508050600060016002848115156154be57fe5b040190505b818110156154f357809150815060028182858115156154de57fe5b04018115156154e957fe5b04905080506154c3565b5061550b565b60008214151561550a576001905080505b5b5b919050565b600061552c8383670de0b6b3a7640000614bf063ffffffff16565b905080505b92915050565b600074010000000000000000000000000000000000000000821015156155c8576040517f08c379a00000000000000000000000000000000000000000000000000000000081526004018080602001828103825260128152602001807f6d6f7265207468616e203136302062697473000000000000000000000000000081526020015060200191505060405180910390fd5b8190506155d0565b919050565b60006401000276a373ffffffffffffffffffffffffffffffffffffffff168273ffffffffffffffffffffffffffffffffffffffff1610158015615657575073fffd8963efd1fc6a506488495d951d5263988d2673ffffffffffffffffffffffffffffffffffffffff168273ffffffffffffffffffffffffffffffffffffffff16105b15156156ce576040517f08c379a00000000000000000000000000000000000000000000000000000000081526004018080602001828103825260018152602001807f520000000000000000000000000000000000000000000000000000000000000081526020015060200191505060405180910390fd5b600060208373ffffffffffffffffffffffffffffffffffffffff16901b905060008190506000600090506fffffffffffffffffffffffffffffffff821160071b808217915082811c92505067ffffffffffffffff821160061b808217915082811c92505063ffffffff821160051b808217915082811c92505061ffff821160041b808217915082811c92505060ff821160031b808217915082811c925050600f821160021b808217915082811c9250506003821160011b808217915082811c925050600182118082179150506080811015156157b457607f810383901c915081506157c0565b80607f0383901b915081505b6000604060808303901b9050828302607f1c92508260801c80603f1b8217915083811c935050828302607f1c92508260801c80603e1b8217915083811c935050828302607f1c92508260801c80603d1b8217915083811c935050828302607f1c92508260801c80603c1b8217915083811c935050828302607f1c92508260801c80603b1b8217915083811c935050828302607f1c92508260801c80603a1b8217915083811c935050828302607f1c92508260801c8060391b8217915083811c935050828302607f1c92508260801c8060381b8217915083811c935050828302607f1c92508260801c8060371b8217915083811c935050828302607f1c92508260801c8060361b8217915083811c935050828302607f1c92508260801c8060351b8217915083811c935050828302607f1c92508260801c8060341b8217915083811c935050828302607f1c92508260801c8060331b8217915083811c935050828302607f1c92508260801c8060321b82179150506000693627a301d71055774c8582029050600060806f028f6481ab7f045a5af012a19d003aaa8303901d9050600060806fdb2df09e81959a81455e260799a0632f8401901d90508060020b8260020b146159d6578873ffffffffffffffffffffffffffffffffffffffff166159ad82615fe963ffffffff16565b73ffffffffffffffffffffffffffffffffffffffff1611156159cf57816159d1565b805b6159d8565b815b97508750505050505050505b919050565b60007fffffffffffffffffffffffffffffffffffffffffffffffffffffffffff8000008212158015615a1d57506280000082125b1515615a94576040517f08c379a00000000000000000000000000000000000000000000000000000000081526004018080602001828103825260118152602001807f6d6f7265207468616e203234206269747300000000000000000000000000000081526020015060200191505060405180910390fd5b819050615a9c565b919050565b615aa96166c4565b6000600f60005060008481526020019081526020016000206000506040518060e00160405290816000820160009054906101000a900473ffffffffffffffffffffffffffffffffffffffff1673ffffffffffffffffffffffffffffffffffffffff1673ffffffffffffffffffffffffffffffffffffffff1681526020016000820160149054906101000a900461ffff1661ffff1661ffff1681526020016000820160169054906101000a900463ffffffff1663ffffffff1663ffffffff168152602001600182016000505481526020016002820160009054906101000a900475ffffffffffffffffffffffffffffffffffffffffffff1675ffffffffffffffffffffffffffffffffffffffffffff1675ffffffffffffffffffffffffffffffffffffffffffff1681526020016002820160169054906101000a900464ffffffffff1664ffffffffff1664ffffffffff16815260200160028201601b9054906101000a900464ffffffffff1664ffffffffff1664ffffffffff16815260200150509050604051806101800160405280826000015173ffffffffffffffffffffffffffffffffffffffff168152602001826020015161ffff16815260200182606001518152602001826080015175ffffffffffffffffffffffffffffffffffffffffffff1681526020018260c0015164ffffffffff16815260200160006fffffffffffffffffffffffffffffffff1681526020018260a0015164ffffffffff1667ffffffffffffffff168152602001600060020b8152602001600060020b8152602001826040015163ffffffff168152602001600073ffffffffffffffffffffffffffffffffffffffff168152602001600067ffffffffffffffff16815260200150915050615d3256505b919050565b6000615d49838361648063ffffffff16565b1515615e1857826000016000508290806001815401808255809150506001900390600052602060002090600291828204019190066010025b9091909190916101000a8154816fffffffffffffffffffffffffffffffff02191690836fffffffffffffffffffffffffffffffff1602179055508260000160005080549050836001016000506000846fffffffffffffffffffffffffffffffff166fffffffffffffffffffffffffffffffff16815260200190815260200160002060005081909090555060019050615e2256615e21565b60009050615e22565b5b92915050565b60006801000000000000000082101515615ead576040517f08c379a00000000000000000000000000000000000000000000000000000000081526004018080602001828103825260118152602001807f6d6f7265207468616e203634206269747300000000000000000000000000000081526020015060200191505060405180910390fd5b819050615eb5565b919050565b600076010000000000000000000000000000000000000000000082101515615f4d576040517f08c379a00000000000000000000000000000000000000000000000000000000081526004018080602001828103825260128152602001807f6d6f7265207468616e203137362062697473000000000000000000000000000081526020015060200191505060405180910390fd5b819050615f55565b919050565b60006501000000000082101515615fdc576040517f08c379a00000000000000000000000000000000000000000000000000000000081526004018080602001828103825260118152602001807f6d6f7265207468616e203430206269747300000000000000000000000000000081526020015060200191505060405180910390fd5b819050615fe4565b919050565b6000600060008360020b12616001578260020b616009565b8260020b6000035b90507ffffffffffffffffffffffffffffffffffffffffffffffffffffffffffff2761860000360020b81111515156160ac576040517f08c379a00000000000000000000000000000000000000000000000000000000081526004018080602001828103825260018152602001807f540000000000000000000000000000000000000000000000000000000000000081526020015060200191505060405180910390fd5b600060006001831614156160d1577001000000000000000000000000000000006160e3565b6ffffcb933bd6fad37aa2d162d1a5940015b70ffffffffffffffffffffffffffffffffff1690506000600283161415156161215760806ffff97272373d413259a46990580e213a8202901c905080505b60006004831614151561614a5760806ffff2e50f5f656932ef12357cf3c7fdcc8202901c905080505b6000600883161415156161735760806fffe5caca7e10e4e61c3624eaa0941cd08202901c905080505b60006010831614151561619c5760806fffcb9843d60f6159c9db58835c9266448202901c905080505b6000602083161415156161c55760806fff973b41fa98c081472e6896dfb254c08202901c905080505b6000604083161415156161ee5760806fff2ea16466c96a3843ec78b326b528618202901c905080505b6000608083161415156162175760806ffe5dee046a99a2a811c461f1969c30538202901c905080505b600061010083161415156162415760806ffcbe86c7900a88aedcffc83b479aa3a48202901c905080505b6000610200831614151561626b5760806ff987a7253ac413176f2b074cf7815e548202901c905080505b600061040083161415156162955760806ff3392b0822b70005940c7a398e4b70f38202901c905080505b600061080083161415156162bf5760806fe7159475a2c29b7443b29c7fa6e889d98202901c905080505b600061100083161415156162e95760806fd097f3bdfd2022b8845ad8f792aa58258202901c905080505b600061200083161415156163135760806fa9f746462d870fdf8a65dc1f90e061e58202901c905080505b6000614000831614151561633d5760806f70d869a156d2a1b890bb3df62baf32f78202901c905080505b600061800083161415156163675760806f31be135f97d08fd981231505542fcfa68202901c905080505b60006201000083161415156163925760806f09aa508b5b7a84e1c677de54f3e99bc98202901c905080505b60006202000083161415156163bc5760806e5d6af8dedb81196699c329225ee6048202901c905080505b60006204000083161415156163e55760806d2216e584f5fa1ea926041bedfe988202901c905080505b600062080000831614151561640c5760806b048a170391f7dc42444e8fa28202901c905080505b60008460020b131561644957807fffffffffffffffffffffffffffffffffffffffffffffffffffffffffffffffff81151561644357fe5b04905080505b60006401000000008281151561645b57fe5b061461646857600161646b565b60005b60ff16602082901c019250825050505b919050565b60006000836001016000506000846fffffffffffffffffffffffffffffffff166fffffffffffffffffffffffffffffffff16815260200190815260200160002060005054141590506164cd565b92915050565b6040518060800160405280600081526020016000815260200160008152602001600081526020015090565b604051806101a001604052806000815260200160008152602001600081526020016000815260200160008152602001600067ffffffffffffffff168152602001600067ffffffffffffffff168152602001600060020b8152602001600015158152602001600067ffffffffffffffff168152602001600063ffffffff168152602001600073ffffffffffffffffffffffffffffffffffffffff168152602001600067ffffffffffffffff1681526020015090565b604051806040016040528060008152602001600081526020015090565b6040518060a00160405280600073ffffffffffffffffffffffffffffffffffffffff168152602001600067ffffffffffffffff1681526020016000600281111561661557fe5b8152602001600062ffffff168152602001606081526020015090565b828054600181600116156101000203166002900490600052602060002090601f01602090048101928261666757600085556166b3565b82601f1061668057805160ff19168380011785556166b3565b828001600101855582156166b3579182015b828111156166b25782518260005090905591602001919060010190616692565b5b5090506166c0919061678a565b5090565b604051806101800160405280600073ffffffffffffffffffffffffffffffffffffffff168152602001600061ffff16815260200160008152602001600081526020016000815260200160006fffffffffffffffffffffffffffffffff168152602001600067ffffffffffffffff168152602001600060020b8152602001600060020b8152602001600063ffffffff168152602001600073ffffffffffffffffffffffffffffffffffffffff168152602001600067ffffffffffffffff1681526020015090565b61678f565b808211156167a9576000818150600090555060010161678f565b509056617b9f565b6000813590506167c081617b23565b5b919050565b6000815190506167d581617b23565b5b919050565b600081359050801515811415156167f25760006000fd5b5b919050565b60008135905061680781617b4c565b5b919050565b60008151905061681c81617b4c565b5b919050565b60008135905061683181617b62565b5b919050565b60008151905061684681617b62565b5b919050565b60008135905061ffff8116811415156168655760006000fd5b5b919050565b60008151905061687a81617b87565b5b919050565b60008135905063ffffffff81168114151561689b5760006000fd5b5b919050565b60008135905067ffffffffffffffff8116811415156168c05760006000fd5b5b919050565b6000602082840312156168d7578081fd5b81356168e281617b23565b809150505b92915050565b6000600060408385031215616900578081fd5b823561690b81617b23565b80925050602083013590505b9250929050565b6000600060006000600060808688031215616937578081fd5b853561694281617b23565b80955050602086013561695481617b23565b8094505060408601359250606086013567ffffffffffffffff80821115616979578283fd5b818801915088601f830112151561698e578283fd5b81358181111561699c578384fd5b8960208285010111156169ad578384fd5b6020830194508093505050505b9295509295909350565b60006000604083850312156169d7578182fd5b82356169e281617b23565b80925050602083013590505b9250929050565b60006020808385031215616a07578182fd5b823567ffffffffffffffff80821115616a1e578384fd5b818501915085601f8301121515616a33578384fd5b813581811115616a3f57fe5b8381029150616a4f848301617af8565b8082825285820191508585018987868801011115616a6b578788fd5b8795505b83861015616a9857616a8081616880565b8352868301925086810190505b600186019550616a6f565b508096505050505050505b92915050565b600060208284031215616aba578081fd5b81357fffffffff00000000000000000000000000000000000000000000000000000000811681141515616aeb578182fd5b809150505b92915050565b600060208284031215616b07578081fd5b8151616b1281617b23565b809150505b92915050565b600060208284031215616b2e578081fd5b8135616b3981617b23565b809150505b92915050565b600060208284031215616b55578081fd5b8151616b6081617b23565b809150505b92915050565b600060208284031215616b7c578081fd5b8151616b8781617b23565b809150505b92915050565b600060208284031215616ba3578081fd5b8151616bae81617b23565b809150505b92915050565b600060208284031215616bca578081fd5b8151616bd581617b23565b809150505b92915050565b600060208284031215616bf1578081fd5b8135616bfc81617b23565b809150505b92915050565b6000600060408385031215616c1a578182fd5b8235616c2581617b23565b80925050602083013590505b9250929050565b600060208284031215616c49578081fd5b8135616c5481617b4c565b809150505b92915050565b6000600060408385031215616c72578182fd5b8235616c7d81617b4c565b809250506020830135616c8f81617b4c565b809150505b9250929050565b600060808284031215616cac578081fd5b6040516080810181811067ffffffffffffffff82111715616cc957fe5b806040525082358152602083013560208201526040830135604082015260608301356060820152809150505b92915050565b600060208284031215616d0c578081fd5b616d158261684c565b90505b92915050565b600060008284036060811215616d32578283fd5b616d3b8461684c565b925060407fffffffffffffffffffffffffffffffffffffffffffffffffffffffffffffffe082011215616d6c578182fd5b506040516040810181811067ffffffffffffffff82111715616d8a57fe5b80604052506020840135815260408401356020820152809150505b9250929050565b600060208284031215616dbd578081fd5b813590505b92915050565b600060208284031215616dd9578081fd5b815190505b92915050565b6000600060408385031215616df7578182fd5b823591506020830135616e0981617b23565b809150505b9250929050565b600060008284036101a0811215616e2a578283fd5b83359250610180807fffffffffffffffffffffffffffffffffffffffffffffffffffffffffffffffe083011215616e5f578283fd5b616e6881617af8565b9150616e76602086016167b1565b8252616e846040860161684c565b6020830152606085013560408301526080850135606083015260a08501356080830152616eb360c08601616822565b60a0830152616ec460e086016168a1565b60c0830152610100616ed78187016167f8565b60e0840152610120616eea8188016167f8565b828501526101409150616efe828801616880565b8185015250610160616f118188016167b1565b82850152616f208388016168a1565b81850152505050809150505b9250929050565b6000600060408385031215616f46578182fd5b82359150602083013590505b9250929050565b6000600060408385031215616f6c578182fd5b616f7583616880565b9150616f8360208401616880565b90505b9250929050565b600060208284031215616f9e578081fd5b616fa7826168a1565b90505b92915050565b600060008284036101c0811215616fc5578283fd5b616fce846168a1565b92506101a0807fffffffffffffffffffffffffffffffffffffffffffffffffffffffffffffffe083011215617001578283fd5b61700a81617af8565b91506020850135825260408501356020830152606085013560408301526080850135606083015260a0850135608083015261704760c086016168a1565b60a083015261705860e086016168a1565b60c083015261010061706b8187016167f8565b60e084015261012061707e8188016167db565b8285015261014091506170928288016168a1565b81850152506101606170a5818801616880565b8285015261018091506170b98288016167b1565b81850152506170c98287016168a1565b818401525050809150505b9250929050565b600060006000606084860312156170f0578081fd5b6170f9846168a1565b925060208085013561710a81617b87565b80935050604085013567ffffffffffffffff80821115617128578384fd5b818701915087601f830112151561713d578384fd5b81358181111561714957fe5b617179847fffffffffffffffffffffffffffffffffffffffffffffffffffffffffffffffe0601f84011601617af8565b9150808252888482850101111561718e578485fd5b808484018584013784848284010152508093505050505b9250925092565b6000600060006000600060006000600060006000600060006101808d8f0312156171d457898afd5b8c516bffffffffffffffffffffffff8116811415156171f1578a8bfd5b809c505061720160208e016167c6565b9a5061720f60408e016167c6565b995061721d60608e016167c6565b985061722b60808e0161686b565b975061723960a08e0161680d565b965061724760c08e0161680d565b955061725560e08e01616837565b94506101008d015193506101208d015192506172746101408e01616837565b91506172836101608e01616837565b90505b9295989b509295989b509295989b565b73ffffffffffffffffffffffffffffffffffffffff811682525b5050565b80151582525b5050565b6003811015156172ca57fe5b8082525b5050565b8060020b82525b5050565b60008151808452815b81811015617309576020808286010151818388010152505b6020810190506172e6565b8181111561731a5782602083870101525b5060207fffffffffffffffffffffffffffffffffffffffffffffffffffffffffffffffe0601f8301168501019150505b92915050565b6fffffffffffffffffffffffffffffffff811682525b5050565b61ffff811682525b5050565b63ffffffff811682525b5050565b67ffffffffffffffff811682525b5050565b600060208201905073ffffffffffffffffffffffffffffffffffffffff831682525b92915050565b600060208201905073ffffffffffffffffffffffffffffffffffffffff831682525b92915050565b600060408201905073ffffffffffffffffffffffffffffffffffffffff8416825282151560208301525b9392505050565b600060e08201905073ffffffffffffffffffffffffffffffffffffffff8916825261ffff8816602083015263ffffffff8716604083015285606083015275ffffffffffffffffffffffffffffffffffffffffffff8516608083015264ffffffffff80851660a084015280841660c0840152505b98975050505050505050565b600073ffffffffffffffffffffffffffffffffffffffff8716825267ffffffffffffffff861660208301526174ce60408301866172be565b62ffffff8416606083015260a060808301526174ed60a08301846172dd565b90505b9695505050505050565b6000602080830181845280855180835260409250828601915082848202870101848801865b838110156175d3577fffffffffffffffffffffffffffffffffffffffffffffffffffffffffffffffc0898403018552815160a073ffffffffffffffffffffffffffffffffffffffff825116855267ffffffffffffffff8983015116898601528782015161758e898701826172be565b50606062ffffff8184015116818701525060808083015192508181870152506175b9818601836172dd565b94505050868201915086850194505b60018101905061751f565b505080955050505050505b92915050565b600060208083018184528085518083526040860191508387019250845b81811015617635576fffffffffffffffffffffffffffffffff8451168352848301925084840193505b600181019050617601565b50508093505050505b92915050565b600060208083018184528085518083526040860191508387019250845b818110156176895763ffffffff8451168352848301925084840193505b600181019050617661565b50508093505050505b92915050565b600060208083018184528085518083526040860191508387019250845b818110156176e15767ffffffffffffffff8451168352848301925084840193505b6001810190506176b5565b50508093505050505b92915050565b600060208201905082151582525b92915050565b60006020820190507fffffffff00000000000000000000000000000000000000000000000000000000831682525b92915050565b600060208201905073ffffffffffffffffffffffffffffffffffffffff831682525b92915050565b60006020820190508260020b82525b92915050565b600060208252600d60208301527f4c43205265656e7472616e63790000000000000000000000000000000000000060408301526060820190505b919050565b600060208252600e60208301527f4e6f7420417574686f72697a656400000000000000000000000000000000000060408301526060820190505b919050565b600060208252600c60208301527f506f736974696f6e20444e45000000000000000000000000000000000000000060408301526060820190505b919050565b600060208252601d60208301527f446f6573206e6f7420616363657074204e465473206469726563746c7900000060408301526060820190505b919050565b600060208252601560208301527f4d6178206b69636b6261636b206578636565646564000000000000000000000060408301526060820190505b919050565b60006101a082019050825182526020830151602083015260408301516040830152606083015160608301526080830151608083015260a08301516178f760a0840182617384565b5060c083015161790a60c0840182617384565b5060e083015161791d60e08401826172d2565b5061010080840151617931828501826172b4565b50506101208084015161794682850182617384565b50506101408084015161795b82850182617376565b50506101608084015161797082850182617296565b50506101808084015161798582850182617384565b50505b92915050565b6000610180820190506179a2828451617296565b60208301516179b4602084018261736a565b5060408301516040830152606083015160608301526080830151608083015260a08301516179e560a0840182617350565b5060c08301516179f860c0840182617384565b5060e0830151617a0b60e08401826172d2565b5061010080840151617a1f828501826172d2565b505061012080840151617a3482850182617376565b505061014080840151617a4982850182617296565b505061016080840151617a5e82850182617384565b50505b92915050565b600060408201905082518252602083015160208301525b92915050565b6000608082019050825182526020830151602083015260408301516040830152606083015160608301525b92915050565b60006020820190508282525b92915050565b60006040820190508382528260208301525b9392505050565b600060208201905063ffffffff831682525b92915050565b6000604051905081810181811067ffffffffffffffff82111715617b1857fe5b80604052505b919050565b73ffffffffffffffffffffffffffffffffffffffff811681141515617b485760006000fd5b5b50565b8060020b81141515617b5e5760006000fd5b5b50565b6fffffffffffffffffffffffffffffffff811681141515617b835760006000fd5b5b50565b62ffffff811681141515617b9b5760006000fd5b5b50565bfea2646970667358221220f021d33835131fe2cd27cd37c0334078f167d0b876e5501814dbe513530c6c0564736f6c63430007060033",
  "linkReferences": {},
  "deployedLinkReferences": {}
}