{
  "_format": "hh-sol-artifact-1",
  "contractName": "GovernorAlpha",
  "sourceName": "contracts/core/governance/GovernorAlpha.sol",
  "abi": [
    {
      "inputs": [
        {
          "internalType": "address",
          "name": "timelock_",
          "type": "address"
        },
        {
          "internalType": "address",
          "name": "cnp_",
          "type": "address"
        },
        {
          "internalType": "address",
          "name": "guardian_",
          "type": "address"
        },
        {
          "internalType": "contract ActionValidator",
          "name": "governor_",
          "type": "address"
        },
        {
          "internalType": "uint64",
          "name": "votingPeriodBlocks_",
          "type": "uint64"
        }
      ],
      "payable": false,
      "stateMutability": "nonpayable",
      "type": "constructor"
    },
    {
      "anonymous": false,
      "inputs": [
        {
          "indexed": true,
          "internalType": "uint256",
          "name": "id",
          "type": "uint256"
        }
      ],
      "name": "ProposalCanceled",
      "type": "event"
    },
    {
      "anonymous": false,
      "inputs": [
        {
          "indexed": true,
          "internalType": "uint256",
          "name": "id",
          "type": "uint256"
        },
        {
          "indexed": true,
          "internalType": "address",
          "name": "proposer",
          "type": "address"
        },
        {
          "indexed": false,
          "internalType": "address[]",
          "name": "targets",
          "type": "address[]"
        },
        {
          "indexed": false,
          "internalType": "uint256[]",
          "name": "values",
          "type": "uint256[]"
        },
        {
          "indexed": false,
          "internalType": "string[]",
          "name": "signatures",
          "type": "string[]"
        },
        {
          "indexed": false,
          "internalType": "bytes[]",
          "name": "calldatas",
          "type": "bytes[]"
        },
        {
          "indexed": false,
          "internalType": "uint256",
          "name": "startBlock",
          "type": "uint256"
        },
        {
          "indexed": false,
          "internalType": "uint256",
          "name": "endBlock",
          "type": "uint256"
        },
        {
          "indexed": false,
          "internalType": "string",
          "name": "description",
          "type": "string"
        }
      ],
      "name": "ProposalCreated",
      "type": "event"
    },
    {
      "anonymous": false,
      "inputs": [
        {
          "indexed": true,
          "internalType": "uint256",
          "name": "id",
          "type": "uint256"
        }
      ],
      "name": "ProposalExecuted",
      "type": "event"
    },
    {
      "anonymous": false,
      "inputs": [
        {
          "indexed": true,
          "internalType": "uint256",
          "name": "id",
          "type": "uint256"
        },
        {
          "indexed": false,
          "internalType": "uint256",
          "name": "eta",
          "type": "uint256"
        }
      ],
      "name": "ProposalQueued",
      "type": "event"
    },
    {
      "anonymous": false,
      "inputs": [
        {
          "indexed": true,
          "internalType": "address",
          "name": "voter",
          "type": "address"
        },
        {
          "indexed": true,
          "internalType": "uint256",
          "name": "proposalId",
          "type": "uint256"
        },
        {
          "indexed": true,
          "internalType": "bool",
          "name": "support",
          "type": "bool"
        },
        {
          "indexed": false,
          "internalType": "uint256",
          "name": "votes",
          "type": "uint256"
        }
      ],
      "name": "VoteCast",
      "type": "event"
    },
    {
      "constant": true,
      "inputs": [],
      "name": "BALLOT_TYPEHASH",
      "outputs": [
        {
          "internalType": "bytes32",
          "name": "",
          "type": "bytes32"
        }
      ],
      "payable": false,
      "stateMutability": "view",
      "type": "function"
    },
    {
      "constant": true,
      "inputs": [],
      "name": "DOMAIN_TYPEHASH",
      "outputs": [
        {
          "internalType": "bytes32",
          "name": "",
          "type": "bytes32"
        }
      ],
      "payable": false,
      "stateMutability": "view",
      "type": "function"
    },
    {
      "constant": false,
      "inputs": [],
      "name": "__abdicate",
      "outputs": [],
      "payable": false,
      "stateMutability": "nonpayable",
      "type": "function"
    },
    {
      "constant": false,
      "inputs": [],
      "name": "__acceptAdmin",
      "outputs": [],
      "payable": false,
      "stateMutability": "nonpayable",
      "type": "function"
    },
    {
      "constant": false,
      "inputs": [
        {
          "internalType": "address",
          "name": "newPendingAdmin",
          "type": "address"
        },
        {
          "internalType": "uint256",
          "name": "eta",
          "type": "uint256"
        }
      ],
      "name": "__executeSetTimelockPendingAdmin",
      "outputs": [],
      "payable": false,
      "stateMutability": "nonpayable",
      "type": "function"
    },
    {
      "constant": false,
      "inputs": [
        {
          "internalType": "address",
          "name": "newPendingAdmin",
          "type": "address"
        },
        {
          "internalType": "uint256",
          "name": "eta",
          "type": "uint256"
        }
      ],
      "name": "__queueSetTimelockPendingAdmin",
      "outputs": [],
      "payable": false,
      "stateMutability": "nonpayable",
      "type": "function"
    },
    {
      "constant": false,
      "inputs": [
        {
          "internalType": "uint256",
          "name": "proposalId",
          "type": "uint256"
        }
      ],
      "name": "cancel",
      "outputs": [],
      "payable": false,
      "stateMutability": "nonpayable",
      "type": "function"
    },
    {
      "constant": false,
      "inputs": [
        {
          "internalType": "uint256",
          "name": "proposalId",
          "type": "uint256"
        },
        {
          "internalType": "bool",
          "name": "support",
          "type": "bool"
        }
      ],
      "name": "castVote",
      "outputs": [],
      "payable": false,
      "stateMutability": "nonpayable",
      "type": "function"
    },
    {
      "constant": false,
      "inputs": [
        {
          "internalType": "uint256",
          "name": "proposalId",
          "type": "uint256"
        },
        {
          "internalType": "bool",
          "name": "support",
          "type": "bool"
        },
        {
          "internalType": "uint8",
          "name": "v",
          "type": "uint8"
        },
        {
          "internalType": "bytes32",
          "name": "r",
          "type": "bytes32"
        },
        {
          "internalType": "bytes32",
          "name": "s",
          "type": "bytes32"
        }
      ],
      "name": "castVoteBySig",
      "outputs": [],
      "payable": false,
      "stateMutability": "nonpayable",
      "type": "function"
    },
    {
      "constant": true,
      "inputs": [],
      "name": "cnp",
      "outputs": [
        {
          "internalType": "contract CnpInterface",
          "name": "",
          "type": "address"
        }
      ],
      "payable": false,
      "stateMutability": "view",
      "type": "function"
    },
    {
      "constant": false,
      "inputs": [
        {
          "internalType": "uint256",
          "name": "proposalId",
          "type": "uint256"
        }
      ],
      "name": "execute",
      "outputs": [],
      "payable": false,
      "stateMutability": "nonpayable",
      "type": "function"
    },
    {
      "constant": true,
      "inputs": [
        {
          "internalType": "uint256",
          "name": "proposalId",
          "type": "uint256"
        }
      ],
      "name": "getActions",
      "outputs": [
        {
          "internalType": "address[]",
          "name": "targets",
          "type": "address[]"
        },
        {
          "internalType": "uint256[]",
          "name": "values",
          "type": "uint256[]"
        },
        {
          "internalType": "string[]",
          "name": "signatures",
          "type": "string[]"
        },
        {
          "internalType": "bytes[]",
          "name": "calldatas",
          "type": "bytes[]"
        }
      ],
      "payable": false,
      "stateMutability": "view",
      "type": "function"
    },
    {
      "constant": true,
      "inputs": [
        {
          "internalType": "uint256",
          "name": "proposalId",
          "type": "uint256"
        },
        {
          "internalType": "address",
          "name": "voter",
          "type": "address"
        }
      ],
      "name": "getReceipt",
      "outputs": [
        {
          "components": [
            {
              "internalType": "bool",
              "name": "hasVoted",
              "type": "bool"
            },
            {
              "internalType": "bool",
              "name": "support",
              "type": "bool"
            },
            {
              "internalType": "uint256",
              "name": "votes",
              "type": "uint256"
            }
          ],
          "internalType": "struct GovernorAlpha.Receipt",
          "name": "",
          "type": "tuple"
        }
      ],
      "payable": false,
      "stateMutability": "view",
      "type": "function"
    },
    {
      "constant": true,
      "inputs": [],
      "name": "governor",
      "outputs": [
        {
          "internalType": "contract ActionValidator",
          "name": "",
          "type": "address"
        }
      ],
      "payable": false,
      "stateMutability": "view",
      "type": "function"
    },
    {
      "constant": true,
      "inputs": [],
      "name": "guardian",
      "outputs": [
        {
          "internalType": "address",
          "name": "",
          "type": "address"
        }
      ],
      "payable": false,
      "stateMutability": "view",
      "type": "function"
    },
    {
      "constant": true,
      "inputs": [
        {
          "internalType": "address",
          "name": "",
          "type": "address"
        }
      ],
      "name": "latestProposalIds",
      "outputs": [
        {
          "internalType": "uint256",
          "name": "",
          "type": "uint256"
        }
      ],
      "payable": false,
      "stateMutability": "view",
      "type": "function"
    },
    {
      "constant": true,
      "inputs": [],
      "name": "name",
      "outputs": [
        {
          "internalType": "string",
          "name": "",
          "type": "string"
        }
      ],
      "payable": false,
      "stateMutability": "view",
      "type": "function"
    },
    {
      "constant": true,
      "inputs": [],
      "name": "proposalCount",
      "outputs": [
        {
          "internalType": "uint256",
          "name": "",
          "type": "uint256"
        }
      ],
      "payable": false,
      "stateMutability": "view",
      "type": "function"
    },
    {
      "constant": true,
      "inputs": [],
      "name": "proposalMaxOperations",
      "outputs": [
        {
          "internalType": "uint256",
          "name": "",
          "type": "uint256"
        }
      ],
      "payable": false,
      "stateMutability": "pure",
      "type": "function"
    },
    {
      "constant": true,
      "inputs": [],
      "name": "proposalThreshold",
      "outputs": [
        {
          "internalType": "uint256",
          "name": "",
          "type": "uint256"
        }
      ],
      "payable": false,
      "stateMutability": "view",
      "type": "function"
    },
    {
      "constant": true,
      "inputs": [],
      "name": "proposalThresholdPercentage",
      "outputs": [
        {
          "internalType": "uint256",
          "name": "",
          "type": "uint256"
        }
      ],
      "payable": false,
      "stateMutability": "view",
      "type": "function"
    },
    {
      "constant": true,
      "inputs": [
        {
          "internalType": "uint256",
          "name": "",
          "type": "uint256"
        }
      ],
      "name": "proposals",
      "outputs": [
        {
          "internalType": "uint256",
          "name": "id",
          "type": "uint256"
        },
        {
          "internalType": "address",
          "name": "proposer",
          "type": "address"
        },
        {
          "internalType": "uint256",
          "name": "eta",
          "type": "uint256"
        },
        {
          "internalType": "uint256",
          "name": "startBlock",
          "type": "uint256"
        },
        {
          "internalType": "uint256",
          "name": "endBlock",
          "type": "uint256"
        },
        {
          "internalType": "uint256",
          "name": "forVotes",
          "type": "uint256"
        },
        {
          "internalType": "uint256",
          "name": "againstVotes",
          "type": "uint256"
        },
        {
          "internalType": "bool",
          "name": "canceled",
          "type": "bool"
        },
        {
          "internalType": "bool",
          "name": "executed",
          "type": "bool"
        }
      ],
      "payable": false,
      "stateMutability": "view",
      "type": "function"
    },
    {
      "constant": false,
      "inputs": [
        {
          "internalType": "address[]",
          "name": "targets",
          "type": "address[]"
        },
        {
          "internalType": "uint256[]",
          "name": "values",
          "type": "uint256[]"
        },
        {
          "internalType": "string[]",
          "name": "signatures",
          "type": "string[]"
        },
        {
          "internalType": "bytes[]",
          "name": "calldatas",
          "type": "bytes[]"
        },
        {
          "internalType": "string",
          "name": "description",
          "type": "string"
        }
      ],
      "name": "propose",
      "outputs": [
        {
          "internalType": "uint256",
          "name": "",
          "type": "uint256"
        }
      ],
      "payable": false,
      "stateMutability": "nonpayable",
      "type": "function"
    },
    {
      "constant": false,
      "inputs": [
        {
          "internalType": "uint256",
          "name": "proposalId",
          "type": "uint256"
        }
      ],
      "name": "queue",
      "outputs": [],
      "payable": false,
      "stateMutability": "nonpayable",
      "type": "function"
    },
    {
      "constant": true,
      "inputs": [],
      "name": "quorumVotes",
      "outputs": [
        {
          "internalType": "uint256",
          "name": "",
          "type": "uint256"
        }
      ],
      "payable": false,
      "stateMutability": "view",
      "type": "function"
    },
    {
      "constant": true,
      "inputs": [],
      "name": "quorumVotesPercentage",
      "outputs": [
        {
          "internalType": "uint256",
          "name": "",
          "type": "uint256"
        }
      ],
      "payable": false,
      "stateMutability": "view",
      "type": "function"
    },
    {
      "constant": true,
      "inputs": [
        {
          "internalType": "uint256",
          "name": "proposalId",
          "type": "uint256"
        }
      ],
      "name": "state",
      "outputs": [
        {
          "internalType": "enum GovernorAlpha.ProposalState",
          "name": "",
          "type": "uint8"
        }
      ],
      "payable": false,
      "stateMutability": "view",
      "type": "function"
    },
    {
      "constant": true,
      "inputs": [],
      "name": "timelock",
      "outputs": [
        {
          "internalType": "contract TimelockInterface",
          "name": "",
          "type": "address"
        }
      ],
      "payable": false,
      "stateMutability": "view",
      "type": "function"
    },
    {
      "constant": true,
      "inputs": [],
      "name": "votingDelay",
      "outputs": [
        {
          "internalType": "uint256",
          "name": "",
          "type": "uint256"
        }
      ],
      "payable": false,
      "stateMutability": "pure",
      "type": "function"
    },
    {
      "constant": true,
      "inputs": [],
      "name": "votingPeriod",
      "outputs": [
        {
          "internalType": "uint256",
          "name": "",
          "type": "uint256"
        }
      ],
      "payable": false,
      "stateMutability": "view",
      "type": "function"
    },
    {
      "constant": true,
      "inputs": [],
      "name": "votingPeriodBlocks",
      "outputs": [
        {
          "internalType": "uint64",
          "name": "",
          "type": "uint64"
        }
      ],
      "payable": false,
      "stateMutability": "view",
      "type": "function"
    }
  ],
  "bytecode": "0x60806040526143806000806101000a81548167ffffffffffffffff021916908367ffffffffffffffff1602179055503480156200003b57600080fd5b506040516200579238038062005792833981810160405262000061919081019062000206565b84600060086101000a81548173ffffffffffffffffffffffffffffffffffffffff021916908373ffffffffffffffffffffffffffffffffffffffff16021790555083600160006101000a81548173ffffffffffffffffffffffffffffffffffffffff021916908373ffffffffffffffffffffffffffffffffffffffff16021790555082600260006101000a81548173ffffffffffffffffffffffffffffffffffffffff021916908373ffffffffffffffffffffffffffffffffffffffff16021790555081600460006101000a81548173ffffffffffffffffffffffffffffffffffffffff021916908373ffffffffffffffffffffffffffffffffffffffff16021790555060008060009054906101000a900467ffffffffffffffff1667ffffffffffffffff1614620001b657806000806101000a81548167ffffffffffffffff021916908367ffffffffffffffff1602179055505b505050505062000332565b600081519050620001d281620002e4565b92915050565b600081519050620001e981620002fe565b92915050565b600081519050620002008162000318565b92915050565b600080600080600060a086880312156200021f57600080fd5b60006200022f88828901620001c1565b95505060206200024288828901620001c1565b94505060406200025588828901620001c1565b93505060606200026888828901620001d8565b92505060806200027b88828901620001ef565b9150509295509295909350565b60006200029582620002b0565b9050919050565b6000620002a98262000288565b9050919050565b600073ffffffffffffffffffffffffffffffffffffffff82169050919050565b600067ffffffffffffffff82169050919050565b620002ef8162000288565b8114620002fb57600080fd5b50565b62000309816200029c565b81146200031557600080fd5b50565b6200032381620002d0565b81146200032f57600080fd5b50565b61545080620003426000396000f3fe608060405234801561001057600080fd5b50600436106101e55760003560e01c8063760fbc131161010f578063da35c664116100a2578063e1e3288811610071578063e1e3288814610545578063e23a9a5214610563578063f25e6dc314610593578063fe0d94c1146105b1576101e5565b8063da35c664146104bd578063da95691a146104db578063ddf0b0091461050b578063deaaa7cc14610527576101e5565b8063b24b7ffd116100de578063b24b7ffd14610459578063b58131b014610477578063b9a6196114610495578063d33219b41461049f576101e5565b8063760fbc13146103f75780637bdbe4d014610401578063915006711461041f57806399eeec951461043b576101e5565b806321f43e42116101875780633e4f49e6116101565780633e4f49e61461037157806340e58ee5146103a1578063452a9320146103bd5780634634c61f146103db576101e5565b806321f43e42146102e657806324bc1a6414610302578063328dd982146103205780633932abb114610353576101e5565b80630c340a24116101c35780630c340a241461025e57806315373e3d1461027c57806317977c611461029857806320606b70146102c8576101e5565b8063013cf08b146101ea57806302a251a31461022257806306fdde0314610240575b600080fd5b61020460048036036101ff919081019061354c565b6105cd565b60405161021999989796959493929190614e36565b60405180910390f35b61022a610655565b6040516102379190614e1b565b60405180910390f35b61024861067c565b6040516102559190614b1e565b60405180910390f35b6102666106b5565b6040516102739190614ab2565b60405180910390f35b610296600480360361029191908101906135da565b6106db565b005b6102b260048036036102ad9190810190613365565b6106ea565b6040516102bf9190614e1b565b60405180910390f35b6102d0610702565b6040516102dd91906149d6565b60405180910390f35b61030060048036036102fb919081019061338e565b610719565b005b61030a6108a8565b6040516103179190614e1b565b60405180910390f35b61033a6004803603610335919081019061354c565b610970565b60405161034a94939291906148e3565b60405180910390f35b61035b610c4d565b6040516103689190614e1b565b60405180910390f35b61038b6004803603610386919081019061354c565b610c56565b6040516103989190614b03565b60405180910390f35b6103bb60048036036103b6919081019061354c565b610e3b565b005b6103c56111c0565b6040516103d29190614755565b60405180910390f35b6103f560048036036103f09190810190613616565b6111e6565b005b6103ff6113b5565b005b610409611489565b6040516104169190614e1b565b60405180910390f35b6104396004803603610434919081019061338e565b611492565b005b61044361161c565b6040516104509190614acd565b60405180910390f35b610461611642565b60405161046e9190614ec3565b60405180910390f35b61047f61165b565b60405161048c9190614e1b565b60405180910390f35b61049d611723565b005b6104a7611837565b6040516104b49190614ae8565b60405180910390f35b6104c561185d565b6040516104d29190614e1b565b60405180910390f35b6104f560048036036104f091908101906133ca565b611863565b6040516105029190614e1b565b60405180910390f35b6105256004803603610520919081019061354c565b611ef3565b005b61052f612242565b60405161053c91906149d6565b60405180910390f35b61054d612259565b60405161055a9190614e1b565b60405180910390f35b61057d6004803603610578919081019061359e565b612264565b60405161058a9190614e00565b60405180910390f35b61059b612312565b6040516105a89190614e1b565b60405180910390f35b6105cb60048036036105c6919081019061354c565b61231d565b005b60056020528060005260406000206000915090508060000154908060010160009054906101000a900473ffffffffffffffffffffffffffffffffffffffff169080600201549080600701549080600801549080600901549080600a01549080600b0160009054906101000a900460ff169080600b0160019054906101000a900460ff16905089565b60008060009054906101000a900467ffffffffffffffff1667ffffffffffffffff16905090565b6040518060400160405280601c81526020017f436f696e2050726f746f636f6c20476f7665726e6f7220416c7068610000000081525081565b600460009054906101000a900473ffffffffffffffffffffffffffffffffffffffff1681565b6106e6338383612561565b5050565b60066020528060005260406000206000915090505481565b60405161070e9061472b565b604051809103902081565b600260009054906101000a900473ffffffffffffffffffffffffffffffffffffffff1673ffffffffffffffffffffffffffffffffffffffff163373ffffffffffffffffffffffffffffffffffffffff16146107a9576040517f08c379a00000000000000000000000000000000000000000000000000000000081526004016107a090614ba0565b60405180910390fd5b600060089054906101000a900473ffffffffffffffffffffffffffffffffffffffff1673ffffffffffffffffffffffffffffffffffffffff16630825f38f600060089054906101000a900473ffffffffffffffffffffffffffffffffffffffff1660008560405160200161081d9190614755565b604051602081830303815290604052856040518563ffffffff1660e01b815260040161084c9493929190614799565b600060405180830381600087803b15801561086657600080fd5b505af115801561087a573d6000803e3d6000fd5b505050506040513d6000823e3d601f19601f820116820180604052506108a3919081019061350b565b505050565b6000670de0b6b3a7640000610963600160009054906101000a900473ffffffffffffffffffffffffffffffffffffffff1673ffffffffffffffffffffffffffffffffffffffff166318160ddd6040518163ffffffff1660e01b815260040160206040518083038186803b15801561091e57600080fd5b505afa158015610932573d6000803e3d6000fd5b505050506040513d601f19601f820116820180604052506109569190810190613575565b668e1bc9bf0400006127ff565b8161096a57fe5b04905090565b60608060608060006005600087815260200190815260200160002090508060030181600401826005018360060183805480602002602001604051908101604052809291908181526020018280548015610a1e57602002820191906000526020600020905b8160009054906101000a900473ffffffffffffffffffffffffffffffffffffffff1673ffffffffffffffffffffffffffffffffffffffff16815260200190600101908083116109d4575b5050505050935082805480602002602001604051908101604052809291908181526020018280548015610a7057602002820191906000526020600020905b815481526020019060010190808311610a5c575b5050505050925081805480602002602001604051908101604052809291908181526020016000905b82821015610b54578382906000526020600020018054600181600116156101000203166002900480601f016020809104026020016040519081016040528092919081815260200182805460018160011615610100020316600290048015610b405780601f10610b1557610100808354040283529160200191610b40565b820191906000526020600020905b815481529060010190602001808311610b2357829003601f168201915b505050505081526020019060010190610a98565b50505050915080805480602002602001604051908101604052809291908181526020016000905b82821015610c37578382906000526020600020018054600181600116156101000203166002900480601f016020809104026020016040519081016040528092919081815260200182805460018160011615610100020316600290048015610c235780601f10610bf857610100808354040283529160200191610c23565b820191906000526020600020905b815481529060010190602001808311610c0657829003601f168201915b505050505081526020019060010190610b7b565b5050505090509450945094509450509193509193565b60006001905090565b60008160035410158015610c6a5750600082115b610ca9576040517f08c379a0000000000000000000000000000000000000000000000000000000008152600401610ca090614be0565b60405180910390fd5b600060056000848152602001908152602001600020905080600b0160009054906101000a900460ff1615610ce1576002915050610e36565b80600701544311610cf6576000915050610e36565b80600801544311610d0b576001915050610e36565b80600a01548160090154111580610d2c5750610d256108a8565b8160090154105b15610d3b576003915050610e36565b600081600201541415610d52576004915050610e36565b80600b0160019054906101000a900460ff1615610d73576007915050610e36565b610e208160020154600060089054906101000a900473ffffffffffffffffffffffffffffffffffffffff1673ffffffffffffffffffffffffffffffffffffffff1663c1a287e26040518163ffffffff1660e01b815260040160206040518083038186803b158015610de357600080fd5b505afa158015610df7573d6000803e3d6000fd5b505050506040513d601f19601f82011682018060405250610e1b9190810190613575565b612869565b4210610e30576006915050610e36565b60059150505b919050565b6000610e4682610c56565b9050600780811115610e5457fe5b816007811115610e6057fe5b1415610ea1576040517f08c379a0000000000000000000000000000000000000000000000000000000008152600401610e9890614d80565b60405180910390fd5b6000600560008481526020019081526020016000209050600260009054906101000a900473ffffffffffffffffffffffffffffffffffffffff1673ffffffffffffffffffffffffffffffffffffffff163373ffffffffffffffffffffffffffffffffffffffff161480610ff45750610f1761165b565b600160009054906101000a900473ffffffffffffffffffffffffffffffffffffffff1673ffffffffffffffffffffffffffffffffffffffff1663782d6fe18360010160009054906101000a900473ffffffffffffffffffffffffffffffffffffffff16610f854360016128be565b6040518363ffffffff1660e01b8152600401610fa29291906147f8565b60206040518083038186803b158015610fba57600080fd5b505afa158015610fce573d6000803e3d6000fd5b505050506040513d601f19601f82011682018060405250610ff29190810190613575565b105b611033576040517f08c379a000000000000000000000000000000000000000000000000000000000815260040161102a90614cc0565b60405180910390fd5b600181600b0160006101000a81548160ff02191690831515021790555060008090505b816003018054905081101561118d57600060089054906101000a900473ffffffffffffffffffffffffffffffffffffffff1673ffffffffffffffffffffffffffffffffffffffff1663591fcdfe8360030183815481106110b257fe5b9060005260206000200160009054906101000a900473ffffffffffffffffffffffffffffffffffffffff168460040184815481106110ec57fe5b906000526020600020015485600501858154811061110657fe5b9060005260206000200186600601868154811061111f57fe5b9060005260206000200187600201546040518663ffffffff1660e01b815260040161114e959493929190614882565b600060405180830381600087803b15801561116857600080fd5b505af115801561117c573d6000803e3d6000fd5b505050508080600101915050611056565b50827f789cf55be980739dad1d0699b93b58e806b51c9d96619bfa8fe0a28abaa7b30c60405160405180910390a2505050565b600260009054906101000a900473ffffffffffffffffffffffffffffffffffffffff1681565b60006040516111f49061472b565b60405180910390206040518060400160405280601c81526020017f436f696e2050726f746f636f6c20476f7665726e6f7220416c706861000000008152508051906020012061124161290e565b3060405160200161125594939291906149f1565b604051602081830303815290604052805190602001209050600060405161127b90614740565b6040518091039020878760405160200161129793929190614a36565b604051602081830303815290604052805190602001209050600082826040516020016112c49291906146f4565b6040516020818303038152906040528051906020012090506000600182888888604051600081526020016040526040516113019493929190614a6d565b6020604051602081039080840390855afa158015611323573d6000803e3d6000fd5b505050602060405103519050600073ffffffffffffffffffffffffffffffffffffffff168173ffffffffffffffffffffffffffffffffffffffff16141561139f576040517f08c379a000000000000000000000000000000000000000000000000000000000815260040161139690614d40565b60405180910390fd5b6113aa818a8a612561565b505050505050505050565b600260009054906101000a900473ffffffffffffffffffffffffffffffffffffffff1673ffffffffffffffffffffffffffffffffffffffff163373ffffffffffffffffffffffffffffffffffffffff1614611445576040517f08c379a000000000000000000000000000000000000000000000000000000000815260040161143c90614de0565b60405180910390fd5b6000600260006101000a81548173ffffffffffffffffffffffffffffffffffffffff021916908373ffffffffffffffffffffffffffffffffffffffff160217905550565b6000600a905090565b600260009054906101000a900473ffffffffffffffffffffffffffffffffffffffff1673ffffffffffffffffffffffffffffffffffffffff163373ffffffffffffffffffffffffffffffffffffffff1614611522576040517f08c379a000000000000000000000000000000000000000000000000000000000815260040161151990614c40565b60405180910390fd5b600060089054906101000a900473ffffffffffffffffffffffffffffffffffffffff1673ffffffffffffffffffffffffffffffffffffffff16633a66f901600060089054906101000a900473ffffffffffffffffffffffffffffffffffffffff166000856040516020016115969190614755565b604051602081830303815290604052856040518563ffffffff1660e01b81526004016115c59493929190614799565b602060405180830381600087803b1580156115df57600080fd5b505af11580156115f3573d6000803e3d6000fd5b505050506040513d601f19601f8201168201806040525061161791908101906134e2565b505050565b600160009054906101000a900473ffffffffffffffffffffffffffffffffffffffff1681565b6000809054906101000a900467ffffffffffffffff1681565b6000670de0b6b3a7640000611716600160009054906101000a900473ffffffffffffffffffffffffffffffffffffffff1673ffffffffffffffffffffffffffffffffffffffff166318160ddd6040518163ffffffff1660e01b815260040160206040518083038186803b1580156116d157600080fd5b505afa1580156116e5573d6000803e3d6000fd5b505050506040513d601f19601f820116820180604052506117099190810190613575565b6611c37937e080006127ff565b8161171d57fe5b04905090565b600260009054906101000a900473ffffffffffffffffffffffffffffffffffffffff1673ffffffffffffffffffffffffffffffffffffffff163373ffffffffffffffffffffffffffffffffffffffff16146117b3576040517f08c379a00000000000000000000000000000000000000000000000000000000081526004016117aa90614b40565b60405180910390fd5b600060089054906101000a900473ffffffffffffffffffffffffffffffffffffffff1673ffffffffffffffffffffffffffffffffffffffff16630e18b6816040518163ffffffff1660e01b8152600401600060405180830381600087803b15801561181d57600080fd5b505af1158015611831573d6000803e3d6000fd5b50505050565b600060089054906101000a900473ffffffffffffffffffffffffffffffffffffffff1681565b60035481565b600061186d61165b565b600160009054906101000a900473ffffffffffffffffffffffffffffffffffffffff1673ffffffffffffffffffffffffffffffffffffffff1663782d6fe1336118b74360016128be565b6040518363ffffffff1660e01b81526004016118d4929190614770565b60206040518083038186803b1580156118ec57600080fd5b505afa158015611900573d6000803e3d6000fd5b505050506040513d601f19601f820116820180604052506119249190810190613575565b11611964576040517f08c379a000000000000000000000000000000000000000000000000000000000815260040161195b90614d20565b60405180910390fd5b84518651148015611976575083518651145b8015611983575082518651145b6119c2576040517f08c379a00000000000000000000000000000000000000000000000000000000081526004016119b990614ca0565b60405180910390fd5b600086511415611a07576040517f08c379a00000000000000000000000000000000000000000000000000000000081526004016119fe90614d00565b60405180910390fd5b611a0f611489565b86511115611a52576040517f08c379a0000000000000000000000000000000000000000000000000000000008152600401611a4990614c60565b60405180910390fd5b6000600660003373ffffffffffffffffffffffffffffffffffffffff1673ffffffffffffffffffffffffffffffffffffffff16815260200190815260200160002054905060008114611b61576000611aa982610c56565b905060016007811115611ab857fe5b816007811115611ac457fe5b1415611b05576040517f08c379a0000000000000000000000000000000000000000000000000000000008152600401611afc90614d60565b60405180910390fd5b60006007811115611b1257fe5b816007811115611b1e57fe5b1415611b5f576040517f08c379a0000000000000000000000000000000000000000000000000000000008152600401611b5690614c20565b60405180910390fd5b505b60008090505b8551811015611c1d57600460009054906101000a900473ffffffffffffffffffffffffffffffffffffffff1673ffffffffffffffffffffffffffffffffffffffff16639a51b06b878381518110611bba57fe5b60200260200101516040518263ffffffff1660e01b8152600401611bde9190614b1e565b600060405180830381600087803b158015611bf857600080fd5b505af1158015611c0c573d6000803e3d6000fd5b505050508080600101915050611b67565b506000611c3143611c2c610c4d565b612869565b90506000611c4682611c41610655565b612869565b9050600360008154809291906001019190505550611c62612af1565b604051806101a0016040528060035481526020013373ffffffffffffffffffffffffffffffffffffffff168152602001600081526020018b81526020018a815260200189815260200188815260200184815260200183815260200160008152602001600081526020016000151581526020016000151581525090508060056000836000015181526020019081526020016000206000820151816000015560208201518160010160006101000a81548173ffffffffffffffffffffffffffffffffffffffff021916908373ffffffffffffffffffffffffffffffffffffffff160217905550604082015181600201556060820151816003019080519060200190611d6c929190612b73565b506080820151816004019080519060200190611d89929190612bfd565b5060a0820151816005019080519060200190611da6929190612c4a565b5060c0820151816006019080519060200190611dc3929190612caa565b5060e082015181600701556101008201518160080155610120820151816009015561014082015181600a015561016082015181600b0160006101000a81548160ff02191690831515021790555061018082015181600b0160016101000a81548160ff021916908315150217905550905050806000015160066000836020015173ffffffffffffffffffffffffffffffffffffffff1673ffffffffffffffffffffffffffffffffffffffff168152602001908152602001600020819055503373ffffffffffffffffffffffffffffffffffffffff1681600001517f7d84a6263ae0d98d3329bd7b46bb4e8d6f98cd35a7adb45c274c8b7fd5ebd5e08c8c8c8c89898e604051611ed79796959493929190614944565b60405180910390a3806000015194505050505095945050505050565b60046007811115611f0057fe5b611f0982610c56565b6007811115611f1457fe5b14611f54576040517f08c379a0000000000000000000000000000000000000000000000000000000008152600401611f4b90614b60565b60405180910390fd5b6000600560008381526020019081526020016000209050600061201642600060089054906101000a900473ffffffffffffffffffffffffffffffffffffffff1673ffffffffffffffffffffffffffffffffffffffff16636a42b8f86040518163ffffffff1660e01b815260040160206040518083038186803b158015611fd957600080fd5b505afa158015611fed573d6000803e3d6000fd5b505050506040513d601f19601f820116820180604052506120119190810190613575565b612869565b905060008090505b82600301805490508110156121fb576121ee83600301828154811061203f57fe5b9060005260206000200160009054906101000a900473ffffffffffffffffffffffffffffffffffffffff1684600401838154811061207957fe5b906000526020600020015485600501848154811061209357fe5b906000526020600020018054600181600116156101000203166002900480601f0160208091040260200160405190810160405280929190818152602001828054600181600116156101000203166002900480156121315780601f1061210657610100808354040283529160200191612131565b820191906000526020600020905b81548152906001019060200180831161211457829003601f168201915b505050505086600601858154811061214557fe5b906000526020600020018054600181600116156101000203166002900480601f0160208091040260200160405190810160405280929190818152602001828054600181600116156101000203166002900480156121e35780601f106121b8576101008083540402835291602001916121e3565b820191906000526020600020905b8154815290600101906020018083116121c657829003601f168201915b50505050508661291b565b808060010191505061201e565b50808260020181905550827f9a2e42fd6722813d69113e7d0079d3d940171428df7373df9c7f7617cfda2892826040516122359190614e1b565b60405180910390a2505050565b60405161224e90614740565b604051809103902081565b668e1bc9bf04000081565b61226c612d0a565b60056000848152602001908152602001600020600c0160008373ffffffffffffffffffffffffffffffffffffffff1673ffffffffffffffffffffffffffffffffffffffff1681526020019081526020016000206040518060600160405290816000820160009054906101000a900460ff161515151581526020016000820160019054906101000a900460ff16151515158152602001600182015481525050905092915050565b6611c37937e0800081565b6005600781111561232a57fe5b61233382610c56565b600781111561233e57fe5b1461237e576040517f08c379a000000000000000000000000000000000000000000000000000000000815260040161237590614b80565b60405180910390fd5b6000600560008381526020019081526020016000209050600181600b0160016101000a81548160ff02191690831515021790555060008090505b816003018054905081101561252f57600060089054906101000a900473ffffffffffffffffffffffffffffffffffffffff1673ffffffffffffffffffffffffffffffffffffffff16630825f38f83600401838154811061241457fe5b906000526020600020015484600301848154811061242e57fe5b9060005260206000200160009054906101000a900473ffffffffffffffffffffffffffffffffffffffff1685600401858154811061246857fe5b906000526020600020015486600501868154811061248257fe5b9060005260206000200187600601878154811061249b57fe5b9060005260206000200188600201546040518763ffffffff1660e01b81526004016124ca959493929190614882565b6000604051808303818588803b1580156124e357600080fd5b505af11580156124f7573d6000803e3d6000fd5b50505050506040513d6000823e3d601f19601f82011682018060405250612521919081019061350b565b5080806001019150506123b8565b50817f712ae1383f79ac853f8d882153778e0260ef8f03b504e2866e0593e04d2b291f60405160405180910390a25050565b6001600781111561256e57fe5b61257783610c56565b600781111561258257fe5b146125c2576040517f08c379a00000000000000000000000000000000000000000000000000000000081526004016125b990614da0565b60405180910390fd5b6000600560008481526020019081526020016000209050600081600c0160008673ffffffffffffffffffffffffffffffffffffffff1673ffffffffffffffffffffffffffffffffffffffff1681526020019081526020016000209050600015158160000160009054906101000a900460ff16151514612676576040517f08c379a000000000000000000000000000000000000000000000000000000000815260040161266d90614c00565b60405180910390fd5b6000600160009054906101000a900473ffffffffffffffffffffffffffffffffffffffff1673ffffffffffffffffffffffffffffffffffffffff1663782d6fe18785600701546040518363ffffffff1660e01b81526004016126d99291906147f8565b60206040518083038186803b1580156126f157600080fd5b505afa158015612705573d6000803e3d6000fd5b505050506040513d601f19601f820116820180604052506127299190810190613575565b9050831561274c5761273f836009015482612869565b8360090181905550612763565b61275a83600a015482612869565b83600a01819055505b60018260000160006101000a81548160ff021916908315150217905550838260000160016101000a81548160ff021916908315150217905550808260010181905550831515858773ffffffffffffffffffffffffffffffffffffffff167f877856338e13f63d0c36822ff0ef736b80934cd90574a3a5bc9262c39d217c46846040516127ef9190614e1b565b60405180910390a4505050505050565b6000808314156128125760009050612863565b81830290508183828161282157fe5b0414612862576040517f08c379a000000000000000000000000000000000000000000000000000000000815260040161285990614bc0565b60405180910390fd5b5b92915050565b6000808284019050838110156128b4576040517f08c379a00000000000000000000000000000000000000000000000000000000081526004016128ab90614c80565b60405180910390fd5b8091505092915050565b600082821115612903576040517f08c379a00000000000000000000000000000000000000000000000000000000081526004016128fa90614dc0565b60405180910390fd5b818303905092915050565b6000804690508091505090565b600060089054906101000a900473ffffffffffffffffffffffffffffffffffffffff1673ffffffffffffffffffffffffffffffffffffffff1663f2b065378686868686604051602001612972959493929190614821565b604051602081830303815290604052805190602001206040518263ffffffff1660e01b81526004016129a491906149d6565b60206040518083038186803b1580156129bc57600080fd5b505afa1580156129d0573d6000803e3d6000fd5b505050506040513d601f19601f820116820180604052506129f491908101906134b9565b15612a34576040517f08c379a0000000000000000000000000000000000000000000000000000000008152600401612a2b90614ce0565b60405180910390fd5b600060089054906101000a900473ffffffffffffffffffffffffffffffffffffffff1673ffffffffffffffffffffffffffffffffffffffff16633a66f90186868686866040518663ffffffff1660e01b8152600401612a97959493929190614821565b602060405180830381600087803b158015612ab157600080fd5b505af1158015612ac5573d6000803e3d6000fd5b505050506040513d601f19601f82011682018060405250612ae991908101906134e2565b505050505050565b604051806101a0016040528060008152602001600073ffffffffffffffffffffffffffffffffffffffff1681526020016000815260200160608152602001606081526020016060815260200160608152602001600081526020016000815260200160008152602001600081526020016000151581526020016000151581525090565b828054828255906000526020600020908101928215612bec579160200282015b82811115612beb5782518260006101000a81548173ffffffffffffffffffffffffffffffffffffffff021916908373ffffffffffffffffffffffffffffffffffffffff16021790555091602001919060010190612b93565b5b509050612bf99190612d2f565b5090565b828054828255906000526020600020908101928215612c39579160200282015b82811115612c38578251825591602001919060010190612c1d565b5b509050612c469190612d72565b5090565b828054828255906000526020600020908101928215612c99579160200282015b82811115612c98578251829080519060200190612c88929190612d97565b5091602001919060010190612c6a565b5b509050612ca69190612e17565b5090565b828054828255906000526020600020908101928215612cf9579160200282015b82811115612cf8578251829080519060200190612ce8929190612e43565b5091602001919060010190612cca565b5b509050612d069190612ec3565b5090565b6040518060600160405280600015158152602001600015158152602001600081525090565b612d6f91905b80821115612d6b57600081816101000a81549073ffffffffffffffffffffffffffffffffffffffff021916905550600101612d35565b5090565b90565b612d9491905b80821115612d90576000816000905550600101612d78565b5090565b90565b828054600181600116156101000203166002900490600052602060002090601f016020900481019282601f10612dd857805160ff1916838001178555612e06565b82800160010185558215612e06579182015b82811115612e05578251825591602001919060010190612dea565b5b509050612e139190612d72565b5090565b612e4091905b80821115612e3c5760008181612e339190612eef565b50600101612e1d565b5090565b90565b828054600181600116156101000203166002900490600052602060002090601f016020900481019282601f10612e8457805160ff1916838001178555612eb2565b82800160010185558215612eb2579182015b82811115612eb1578251825591602001919060010190612e96565b5b509050612ebf9190612d72565b5090565b612eec91905b80821115612ee85760008181612edf9190612f37565b50600101612ec9565b5090565b90565b50805460018160011615610100020316600290046000825580601f10612f155750612f34565b601f016020900490600052602060002090810190612f339190612d72565b5b50565b50805460018160011615610100020316600290046000825580601f10612f5d5750612f7c565b601f016020900490600052602060002090810190612f7b9190612d72565b5b50565b600081359050612f8e8161539a565b92915050565b600082601f830112612fa557600080fd5b8135612fb8612fb382614f0b565b614ede565b91508181835260208401935060208101905083856020840282011115612fdd57600080fd5b60005b8381101561300d5781612ff38882612f7f565b845260208401935060208301925050600181019050612fe0565b5050505092915050565b600082601f83011261302857600080fd5b813561303b61303682614f33565b614ede565b9150818183526020840193506020810190508360005b83811015613081578135860161306788826131d6565b845260208401935060208301925050600181019050613051565b5050505092915050565b600082601f83011261309c57600080fd5b81356130af6130aa82614f5b565b614ede565b9150818183526020840193506020810190508360005b838110156130f557813586016130db888261327e565b8452602084019350602083019250506001810190506130c5565b5050505092915050565b600082601f83011261311057600080fd5b813561312361311e82614f83565b614ede565b9150818183526020840193506020810190508385602084028201111561314857600080fd5b60005b83811015613178578161315e8882613326565b84526020840193506020830192505060018101905061314b565b5050505092915050565b600081359050613191816153b1565b92915050565b6000815190506131a6816153b1565b92915050565b6000813590506131bb816153c8565b92915050565b6000815190506131d0816153c8565b92915050565b600082601f8301126131e757600080fd5b81356131fa6131f582614fab565b614ede565b9150808252602083016020830185838301111561321657600080fd5b613221838284615330565b50505092915050565b600082601f83011261323b57600080fd5b815161324e61324982614fd7565b614ede565b9150808252602083016020830185838301111561326a57600080fd5b61327583828461533f565b50505092915050565b600082601f83011261328f57600080fd5b81356132a261329d82615003565b614ede565b915080825260208301602083018583830111156132be57600080fd5b6132c9838284615330565b50505092915050565b600082601f8301126132e357600080fd5b81356132f66132f18261502f565b614ede565b9150808252602083016020830185838301111561331257600080fd5b61331d838284615330565b50505092915050565b600081359050613335816153df565b92915050565b60008151905061334a816153df565b92915050565b60008135905061335f816153f6565b92915050565b60006020828403121561337757600080fd5b600061338584828501612f7f565b91505092915050565b600080604083850312156133a157600080fd5b60006133af85828601612f7f565b92505060206133c085828601613326565b9150509250929050565b600080600080600060a086880312156133e257600080fd5b600086013567ffffffffffffffff8111156133fc57600080fd5b61340888828901612f94565b955050602086013567ffffffffffffffff81111561342557600080fd5b613431888289016130ff565b945050604086013567ffffffffffffffff81111561344e57600080fd5b61345a8882890161308b565b935050606086013567ffffffffffffffff81111561347757600080fd5b61348388828901613017565b925050608086013567ffffffffffffffff8111156134a057600080fd5b6134ac888289016132d2565b9150509295509295909350565b6000602082840312156134cb57600080fd5b60006134d984828501613197565b91505092915050565b6000602082840312156134f457600080fd5b6000613502848285016131c1565b91505092915050565b60006020828403121561351d57600080fd5b600082015167ffffffffffffffff81111561353757600080fd5b6135438482850161322a565b91505092915050565b60006020828403121561355e57600080fd5b600061356c84828501613326565b91505092915050565b60006020828403121561358757600080fd5b60006135958482850161333b565b91505092915050565b600080604083850312156135b157600080fd5b60006135bf85828601613326565b92505060206135d085828601612f7f565b9150509250929050565b600080604083850312156135ed57600080fd5b60006135fb85828601613326565b925050602061360c85828601613182565b9150509250929050565b600080600080600060a0868803121561362e57600080fd5b600061363c88828901613326565b955050602061364d88828901613182565b945050604061365e88828901613350565b935050606061366f888289016131ac565b9250506080613680888289016131ac565b9150509295509295909350565b600061369983836136f4565b60208301905092915050565b60006136b18383613935565b905092915050565b60006136c58383613a81565b905092915050565b60006136d983836146b8565b60208301905092915050565b6136ee8161526a565b82525050565b6136fd816151e4565b82525050565b61370c816151e4565b82525050565b600061371d826150c5565b6137278185615151565b93506137328361505b565b8060005b8381101561376357815161374a888261368d565b97506137558361511d565b925050600181019050613736565b5085935050505092915050565b600061377b826150d0565b6137858185615162565b9350836020820285016137978561506b565b8060005b858110156137d357848403895281516137b485826136a5565b94506137bf8361512a565b925060208a0199505060018101905061379b565b50829750879550505050505092915050565b60006137f0826150db565b6137fa8185615173565b93508360208202850161380c8561507b565b8060005b85811015613848578484038952815161382985826136b9565b945061383483615137565b925060208a01995050600181019050613810565b50829750879550505050505092915050565b6000613865826150e6565b61386f8185615184565b935061387a8361508b565b8060005b838110156138ab57815161389288826136cd565b975061389d83615144565b92505060018101905061387e565b5085935050505092915050565b6138c1816151f6565b82525050565b6138d0816151f6565b82525050565b6138df81615202565b82525050565b6138f66138f182615202565b615372565b82525050565b6000613907826150fc565b61391181856151a6565b935061392181856020860161533f565b61392a8161537c565b840191505092915050565b6000613940826150f1565b61394a8185615195565b935061395a81856020860161533f565b6139638161537c565b840191505092915050565b60008154600181166000811461398b57600181146139b1576139f5565b607f600283041661399c81876151a6565b955060ff1983168652602086019350506139f5565b600282046139bf81876151a6565b95506139ca8561509b565b60005b828110156139ec578154818901526001820191506020810190506139cd565b80880195505050505b505092915050565b613a068161527c565b82525050565b613a15816152a0565b82525050565b613a24816152c4565b82525050565b613a33816152e8565b82525050565b613a42816152fa565b82525050565b6000613a5382615112565b613a5d81856151c8565b9350613a6d81856020860161533f565b613a768161537c565b840191505092915050565b6000613a8c82615107565b613a9681856151b7565b9350613aa681856020860161533f565b613aaf8161537c565b840191505092915050565b6000613ac582615107565b613acf81856151c8565b9350613adf81856020860161533f565b613ae88161537c565b840191505092915050565b600081546001811660008114613b105760018114613b3657613b7a565b607f6002830416613b2181876151c8565b955060ff198316865260208601935050613b7a565b60028204613b4481876151c8565b9550613b4f856150b0565b60005b82811015613b7157815481890152600182019150602081019050613b52565b80880195505050505b505092915050565b6000613b8f6039836151c8565b91507f476f7665726e6f72416c7068613a3a5f5f61636365707441646d696e3a20736560008301527f6e646572206d75737420626520676f7620677561726469616e000000000000006020830152604082019050919050565b6000613bf56044836151c8565b91507f476f7665726e6f72416c7068613a3a71756575653a2070726f706f73616c206360008301527f616e206f6e6c792062652071756575656420696620697420697320737563636560208301527f65646564000000000000000000000000000000000000000000000000000000006040830152606082019050919050565b6000613c816045836151c8565b91507f476f7665726e6f72416c7068613a3a657865637574653a2070726f706f73616c60008301527f2063616e206f6e6c79206265206578656375746564206966206974206973207160208301527f75657565640000000000000000000000000000000000000000000000000000006040830152606082019050919050565b6000613d0d6002836151d9565b91507f19010000000000000000000000000000000000000000000000000000000000006000830152600282019050919050565b6000613d4d604c836151c8565b91507f476f7665726e6f72416c7068613a3a5f5f6578656375746553657454696d656c60008301527f6f636b50656e64696e6741646d696e3a2073656e646572206d7573742062652060208301527f676f7620677561726469616e00000000000000000000000000000000000000006040830152606082019050919050565b6000613dd96017836151c8565b91507f6d756c7469706c69636174696f6e206f766572666c6f770000000000000000006000830152602082019050919050565b6000613e196018836151c8565b91507f73657450656e64696e6741646d696e28616464726573732900000000000000006000830152602082019050919050565b6000613e596029836151c8565b91507f476f7665726e6f72416c7068613a3a73746174653a20696e76616c696420707260008301527f6f706f73616c20696400000000000000000000000000000000000000000000006020830152604082019050919050565b6000613ebf602d836151c8565b91507f476f7665726e6f72416c7068613a3a5f63617374566f74653a20766f7465722060008301527f616c726561647920766f746564000000000000000000000000000000000000006020830152604082019050919050565b6000613f256059836151c8565b91507f476f7665726e6f72416c7068613a3a70726f706f73653a206f6e65206c69766560008301527f2070726f706f73616c207065722070726f706f7365722c20666f756e6420616e60208301527f20616c72656164792070656e64696e672070726f706f73616c000000000000006040830152606082019050919050565b6000613fb1604a836151c8565b91507f476f7665726e6f72416c7068613a3a5f5f717565756553657454696d656c6f6360008301527f6b50656e64696e6741646d696e3a2073656e646572206d75737420626520676f60208301527f7620677561726469616e000000000000000000000000000000000000000000006040830152606082019050919050565b600061403d6028836151c8565b91507f476f7665726e6f72416c7068613a3a70726f706f73653a20746f6f206d616e7960008301527f20616374696f6e730000000000000000000000000000000000000000000000006020830152604082019050919050565b60006140a36011836151c8565b91507f6164646974696f6e206f766572666c6f770000000000000000000000000000006000830152602082019050919050565b60006140e36043836151d9565b91507f454950373132446f6d61696e28737472696e67206e616d652c75696e7432353660008301527f20636861696e49642c6164647265737320766572696679696e67436f6e74726160208301527f63742900000000000000000000000000000000000000000000000000000000006040830152604382019050919050565b600061416f6027836151d9565b91507f42616c6c6f742875696e743235362070726f706f73616c49642c626f6f6c207360008301527f7570706f727429000000000000000000000000000000000000000000000000006020830152602782019050919050565b60006141d56044836151c8565b91507f476f7665726e6f72416c7068613a3a70726f706f73653a2070726f706f73616c60008301527f2066756e6374696f6e20696e666f726d6174696f6e206172697479206d69736d60208301527f61746368000000000000000000000000000000000000000000000000000000006040830152606082019050919050565b6000614261602f836151c8565b91507f476f7665726e6f72416c7068613a3a63616e63656c3a2070726f706f7365722060008301527f61626f7665207468726573686f6c6400000000000000000000000000000000006020830152604082019050919050565b60006142c76044836151c8565b91507f476f7665726e6f72416c7068613a3a5f71756575654f725265766572743a207060008301527f726f706f73616c20616374696f6e20616c72656164792071756575656420617460208301527f20657461000000000000000000000000000000000000000000000000000000006040830152606082019050919050565b6000614353602c836151c8565b91507f476f7665726e6f72416c7068613a3a70726f706f73653a206d7573742070726f60008301527f7669646520616374696f6e7300000000000000000000000000000000000000006020830152604082019050919050565b60006143b9603f836151c8565b91507f476f7665726e6f72416c7068613a3a70726f706f73653a2070726f706f73657260008301527f20766f7465732062656c6f772070726f706f73616c207468726573686f6c64006020830152604082019050919050565b600061441f602f836151c8565b91507f476f7665726e6f72416c7068613a3a63617374566f746542795369673a20696e60008301527f76616c6964207369676e617475726500000000000000000000000000000000006020830152604082019050919050565b60006144856058836151c8565b91507f476f7665726e6f72416c7068613a3a70726f706f73653a206f6e65206c69766560008301527f2070726f706f73616c207065722070726f706f7365722c20666f756e6420616e60208301527f20616c7265616479206163746976652070726f706f73616c00000000000000006040830152606082019050919050565b60006145116036836151c8565b91507f476f7665726e6f72416c7068613a3a63616e63656c3a2063616e6e6f7420636160008301527f6e63656c2065786563757465642070726f706f73616c000000000000000000006020830152604082019050919050565b6000614577602a836151c8565b91507f476f7665726e6f72416c7068613a3a5f63617374566f74653a20766f74696e6760008301527f20697320636c6f736564000000000000000000000000000000000000000000006020830152604082019050919050565b60006145dd6015836151c8565b91507f7375627472616374696f6e20756e646572666c6f7700000000000000000000006000830152602082019050919050565b600061461d6036836151c8565b91507f476f7665726e6f72416c7068613a3a5f5f61626469636174653a2073656e646560008301527f72206d75737420626520676f7620677561726469616e000000000000000000006020830152604082019050919050565b60608201600082015161468c60008501826138b8565b50602082015161469f60208501826138b8565b5060408201516146b260408501826146b8565b50505050565b6146c18161523f565b82525050565b6146d08161523f565b82525050565b6146df81615249565b82525050565b6146ee8161525d565b82525050565b60006146ff82613d00565b915061470b82856138e5565b60208201915061471b82846138e5565b6020820191508190509392505050565b6000614736826140d6565b9150819050919050565b600061474b82614162565b9150819050919050565b600060208201905061476a6000830184613703565b92915050565b600060408201905061478560008301856136e5565b61479260208301846146c7565b9392505050565b600060a0820190506147ae6000830187613703565b6147bb6020830186613a39565b81810360408301526147cc81613e0c565b905081810360608301526147e081856138fc565b90506147ef60808301846146c7565b95945050505050565b600060408201905061480d6000830185613703565b61481a60208301846146c7565b9392505050565b600060a0820190506148366000830188613703565b61484360208301876146c7565b81810360408301526148558186613a48565b9050818103606083015261486981856138fc565b905061487860808301846146c7565b9695505050505050565b600060a0820190506148976000830188613703565b6148a460208301876146c7565b81810360408301526148b68186613af3565b905081810360608301526148ca818561396e565b90506148d960808301846146c7565b9695505050505050565b600060808201905081810360008301526148fd8187613712565b90508181036020830152614911818661385a565b9050818103604083015261492581856137e5565b905081810360608301526149398184613770565b905095945050505050565b600060e082019050818103600083015261495e818a613712565b90508181036020830152614972818961385a565b9050818103604083015261498681886137e5565b9050818103606083015261499a8187613770565b90506149a960808301866146c7565b6149b660a08301856146c7565b81810360c08301526149c88184613a48565b905098975050505050505050565b60006020820190506149eb60008301846138d6565b92915050565b6000608082019050614a0660008301876138d6565b614a1360208301866138d6565b614a2060408301856146c7565b614a2d6060830184613703565b95945050505050565b6000606082019050614a4b60008301866138d6565b614a5860208301856146c7565b614a6560408301846138c7565b949350505050565b6000608082019050614a8260008301876138d6565b614a8f60208301866146e5565b614a9c60408301856138d6565b614aa960608301846138d6565b95945050505050565b6000602082019050614ac760008301846139fd565b92915050565b6000602082019050614ae26000830184613a0c565b92915050565b6000602082019050614afd6000830184613a1b565b92915050565b6000602082019050614b186000830184613a2a565b92915050565b60006020820190508181036000830152614b388184613aba565b905092915050565b60006020820190508181036000830152614b5981613b82565b9050919050565b60006020820190508181036000830152614b7981613be8565b9050919050565b60006020820190508181036000830152614b9981613c74565b9050919050565b60006020820190508181036000830152614bb981613d40565b9050919050565b60006020820190508181036000830152614bd981613dcc565b9050919050565b60006020820190508181036000830152614bf981613e4c565b9050919050565b60006020820190508181036000830152614c1981613eb2565b9050919050565b60006020820190508181036000830152614c3981613f18565b9050919050565b60006020820190508181036000830152614c5981613fa4565b9050919050565b60006020820190508181036000830152614c7981614030565b9050919050565b60006020820190508181036000830152614c9981614096565b9050919050565b60006020820190508181036000830152614cb9816141c8565b9050919050565b60006020820190508181036000830152614cd981614254565b9050919050565b60006020820190508181036000830152614cf9816142ba565b9050919050565b60006020820190508181036000830152614d1981614346565b9050919050565b60006020820190508181036000830152614d39816143ac565b9050919050565b60006020820190508181036000830152614d5981614412565b9050919050565b60006020820190508181036000830152614d7981614478565b9050919050565b60006020820190508181036000830152614d9981614504565b9050919050565b60006020820190508181036000830152614db98161456a565b9050919050565b60006020820190508181036000830152614dd9816145d0565b9050919050565b60006020820190508181036000830152614df981614610565b9050919050565b6000606082019050614e156000830184614676565b92915050565b6000602082019050614e3060008301846146c7565b92915050565b600061012082019050614e4c600083018c6146c7565b614e59602083018b613703565b614e66604083018a6146c7565b614e7360608301896146c7565b614e8060808301886146c7565b614e8d60a08301876146c7565b614e9a60c08301866146c7565b614ea760e08301856138c7565b614eb56101008301846138c7565b9a9950505050505050505050565b6000602082019050614ed860008301846146d6565b92915050565b6000604051905081810181811067ffffffffffffffff82111715614f0157600080fd5b8060405250919050565b600067ffffffffffffffff821115614f2257600080fd5b602082029050602081019050919050565b600067ffffffffffffffff821115614f4a57600080fd5b602082029050602081019050919050565b600067ffffffffffffffff821115614f7257600080fd5b602082029050602081019050919050565b600067ffffffffffffffff821115614f9a57600080fd5b602082029050602081019050919050565b600067ffffffffffffffff821115614fc257600080fd5b601f19601f8301169050602081019050919050565b600067ffffffffffffffff821115614fee57600080fd5b601f19601f8301169050602081019050919050565b600067ffffffffffffffff82111561501a57600080fd5b601f19601f8301169050602081019050919050565b600067ffffffffffffffff82111561504657600080fd5b601f19601f8301169050602081019050919050565b6000819050602082019050919050565b6000819050602082019050919050565b6000819050602082019050919050565b6000819050602082019050919050565b60008190508160005260206000209050919050565b60008190508160005260206000209050919050565b600081519050919050565b600081519050919050565b600081519050919050565b600081519050919050565b600081519050919050565b600081519050919050565b600081519050919050565b600081519050919050565b6000602082019050919050565b6000602082019050919050565b6000602082019050919050565b6000602082019050919050565b600082825260208201905092915050565b600082825260208201905092915050565b600082825260208201905092915050565b600082825260208201905092915050565b600082825260208201905092915050565b600082825260208201905092915050565b600082825260208201905092915050565b600082825260208201905092915050565b600081905092915050565b60006151ef8261521f565b9050919050565b60008115159050919050565b6000819050919050565b600081905061521a8261538d565b919050565b600073ffffffffffffffffffffffffffffffffffffffff82169050919050565b6000819050919050565b600067ffffffffffffffff82169050919050565b600060ff82169050919050565b60006152758261530c565b9050919050565b60006152878261528e565b9050919050565b60006152998261521f565b9050919050565b60006152ab826152b2565b9050919050565b60006152bd8261521f565b9050919050565b60006152cf826152d6565b9050919050565b60006152e18261521f565b9050919050565b60006152f38261520c565b9050919050565b60006153058261523f565b9050919050565b60006153178261531e565b9050919050565b60006153298261521f565b9050919050565b82818337600083830152505050565b60005b8381101561535d578082015181840152602081019050615342565b8381111561536c576000848401525b50505050565b6000819050919050565b6000601f19601f8301169050919050565b6008811061539757fe5b50565b6153a3816151e4565b81146153ae57600080fd5b50565b6153ba816151f6565b81146153c557600080fd5b50565b6153d181615202565b81146153dc57600080fd5b50565b6153e88161523f565b81146153f357600080fd5b50565b6153ff8161525d565b811461540a57600080fd5b5056fea365627a7a723158204b48cc7f7a04cfad842c7fad994490a47978ffd098e06c91c38e1e558a43a2e96c6578706572696d656e74616cf564736f6c63430005100040",
  "linkReferences": {},
  "deployedLinkReferences": {}
}