{
  "_format": "hh-sol-artifact-1",
  "contractName": "Rewards",
  "sourceName": "contracts/core/logic/Rewards.sol",
  "abi": [
    {
      "inputs": [
        {
          "internalType": "contract INonfungiblePositionManager",
          "name": "_nftPositionManager",
          "type": "address"
        },
        {
          "internalType": "contract IUniswapV3Factory",
          "name": "_uniswapV3Factory",
          "type": "address"
        },
        {
          "internalType": "contract IWETH9",
          "name": "_weth",
          "type": "address"
        }
      ],
      "stateMutability": "nonpayable",
      "type": "constructor"
    },
    {
      "anonymous": false,
      "inputs": [
        {
          "indexed": true,
          "internalType": "address",
          "name": "owner",
          "type": "address"
        },
        {
          "indexed": true,
          "internalType": "uint256",
          "name": "nftTokenID",
          "type": "uint256"
        },
        {
          "indexed": false,
          "internalType": "uint256",
          "name": "amount0",
          "type": "uint256"
        },
        {
          "indexed": false,
          "internalType": "uint256",
          "name": "amount1",
          "type": "uint256"
        }
      ],
      "name": "FeesCollected",
      "type": "event"
    },
    {
      "anonymous": false,
      "inputs": [
        {
          "indexed": true,
          "internalType": "address",
          "name": "owner",
          "type": "address"
        },
        {
          "indexed": true,
          "internalType": "uint256",
          "name": "nftTokenID",
          "type": "uint256"
        }
      ],
      "name": "InflationRewardsClaimed",
      "type": "event"
    },
    {
      "anonymous": false,
      "inputs": [
        {
          "indexed": true,
          "internalType": "address",
          "name": "governor",
          "type": "address"
        }
      ],
      "name": "Initialized",
      "type": "event"
    },
    {
      "anonymous": false,
      "inputs": [
        {
          "indexed": true,
          "internalType": "address",
          "name": "owner",
          "type": "address"
        },
        {
          "indexed": true,
          "internalType": "uint16",
          "name": "poolID",
          "type": "uint16"
        },
        {
          "indexed": true,
          "internalType": "uint256",
          "name": "nftID",
          "type": "uint256"
        },
        {
          "indexed": false,
          "internalType": "int24",
          "name": "tickLower",
          "type": "int24"
        },
        {
          "indexed": false,
          "internalType": "int24",
          "name": "tickUpper",
          "type": "int24"
        },
        {
          "indexed": false,
          "internalType": "uint128",
          "name": "liquidity",
          "type": "uint128"
        }
      ],
      "name": "LiquidityPositionCreated",
      "type": "event"
    },
    {
      "anonymous": false,
      "inputs": [
        {
          "indexed": true,
          "internalType": "uint256",
          "name": "nftID",
          "type": "uint256"
        },
        {
          "indexed": false,
          "internalType": "uint256",
          "name": "amount0",
          "type": "uint256"
        },
        {
          "indexed": false,
          "internalType": "uint256",
          "name": "amount1",
          "type": "uint256"
        }
      ],
      "name": "LiquidityPositionDecreased",
      "type": "event"
    },
    {
      "anonymous": false,
      "inputs": [
        {
          "indexed": true,
          "internalType": "uint256",
          "name": "nftID",
          "type": "uint256"
        },
        {
          "indexed": false,
          "internalType": "uint128",
          "name": "liquidity",
          "type": "uint128"
        }
      ],
      "name": "LiquidityPositionIncreased",
      "type": "event"
    },
    {
      "anonymous": false,
      "inputs": [
        {
          "indexed": true,
          "internalType": "uint256",
          "name": "nftID",
          "type": "uint256"
        },
        {
          "indexed": false,
          "internalType": "uint256",
          "name": "amount0",
          "type": "uint256"
        },
        {
          "indexed": false,
          "internalType": "uint256",
          "name": "amount1",
          "type": "uint256"
        }
      ],
      "name": "LiquidityPositionLiquidated",
      "type": "event"
    },
    {
      "anonymous": false,
      "inputs": [
        {
          "indexed": true,
          "internalType": "uint256",
          "name": "nftID",
          "type": "uint256"
        },
        {
          "indexed": false,
          "internalType": "uint256",
          "name": "amount0",
          "type": "uint256"
        },
        {
          "indexed": false,
          "internalType": "uint256",
          "name": "amount1",
          "type": "uint256"
        }
      ],
      "name": "LiquidityPositionRemoved",
      "type": "event"
    },
    {
      "anonymous": false,
      "inputs": [
        {
          "indexed": true,
          "internalType": "string",
          "name": "paramName",
          "type": "string"
        },
        {
          "indexed": false,
          "internalType": "uint256",
          "name": "value",
          "type": "uint256"
        }
      ],
      "name": "ParameterUpdated",
      "type": "event"
    },
    {
      "anonymous": false,
      "inputs": [
        {
          "indexed": true,
          "internalType": "string",
          "name": "paramName",
          "type": "string"
        },
        {
          "indexed": false,
          "internalType": "uint256",
          "name": "value",
          "type": "uint256"
        }
      ],
      "name": "ParameterUpdated128",
      "type": "event"
    },
    {
      "anonymous": false,
      "inputs": [
        {
          "indexed": true,
          "internalType": "string",
          "name": "paramName",
          "type": "string"
        },
        {
          "indexed": false,
          "internalType": "uint256",
          "name": "value",
          "type": "uint256"
        }
      ],
      "name": "ParameterUpdated32",
      "type": "event"
    },
    {
      "anonymous": false,
      "inputs": [
        {
          "indexed": true,
          "internalType": "string",
          "name": "paramName",
          "type": "string"
        },
        {
          "indexed": false,
          "internalType": "uint256",
          "name": "value",
          "type": "uint256"
        }
      ],
      "name": "ParameterUpdated64",
      "type": "event"
    },
    {
      "anonymous": false,
      "inputs": [
        {
          "indexed": true,
          "internalType": "string",
          "name": "paramName",
          "type": "string"
        },
        {
          "indexed": false,
          "internalType": "address",
          "name": "value",
          "type": "address"
        }
      ],
      "name": "ParameterUpdatedAddress",
      "type": "event"
    },
    {
      "anonymous": false,
      "inputs": [
        {
          "indexed": true,
          "internalType": "address",
          "name": "pool",
          "type": "address"
        },
        {
          "indexed": true,
          "internalType": "uint16",
          "name": "poolID",
          "type": "uint16"
        },
        {
          "indexed": false,
          "internalType": "uint64",
          "name": "rewardsPortion",
          "type": "uint64"
        }
      ],
      "name": "PoolAdded",
      "type": "event"
    },
    {
      "anonymous": false,
      "inputs": [
        {
          "indexed": true,
          "internalType": "uint16",
          "name": "poolID",
          "type": "uint16"
        },
        {
          "indexed": false,
          "internalType": "uint64",
          "name": "incentive",
          "type": "uint64"
        }
      ],
      "name": "PoolIncentiveUpdated",
      "type": "event"
    },
    {
      "anonymous": false,
      "inputs": [
        {
          "indexed": false,
          "internalType": "uint256",
          "name": "count",
          "type": "uint256"
        },
        {
          "indexed": false,
          "internalType": "uint64",
          "name": "periods",
          "type": "uint64"
        }
      ],
      "name": "RewardsAccrued",
      "type": "event"
    },
    {
      "anonymous": false,
      "inputs": [
        {
          "indexed": true,
          "internalType": "address",
          "name": "account",
          "type": "address"
        },
        {
          "indexed": true,
          "internalType": "bool",
          "name": "isKickback",
          "type": "bool"
        },
        {
          "indexed": false,
          "internalType": "uint256",
          "name": "tcpRewards",
          "type": "uint256"
        }
      ],
      "name": "RewardsDistributed",
      "type": "event"
    },
    {
      "anonymous": false,
      "inputs": [],
      "name": "Stopped",
      "type": "event"
    },
    {
      "inputs": [],
      "name": "accrueRewards",
      "outputs": [],
      "stateMutability": "nonpayable",
      "type": "function"
    },
    {
      "inputs": [
        {
          "internalType": "contract IUniswapV3Pool",
          "name": "pool",
          "type": "address"
        },
        {
          "internalType": "uint64",
          "name": "rewardsPortion",
          "type": "uint64"
        }
      ],
      "name": "addIncentivePool",
      "outputs": [],
      "stateMutability": "nonpayable",
      "type": "function"
    },
    {
      "inputs": [
        {
          "internalType": "uint256",
          "name": "nftTokenID",
          "type": "uint256"
        },
        {
          "internalType": "uint32",
          "name": "ui",
          "type": "uint32"
        }
      ],
      "name": "claimRewards",
      "outputs": [],
      "stateMutability": "nonpayable",
      "type": "function"
    },
    {
      "inputs": [
        {
          "components": [
            {
              "internalType": "uint256",
              "name": "tokenId",
              "type": "uint256"
            },
            {
              "internalType": "address",
              "name": "recipient",
              "type": "address"
            },
            {
              "internalType": "uint128",
              "name": "amount0Max",
              "type": "uint128"
            },
            {
              "internalType": "uint128",
              "name": "amount1Max",
              "type": "uint128"
            }
          ],
          "internalType": "struct INonfungiblePositionManager.CollectParams",
          "name": "params",
          "type": "tuple"
        }
      ],
      "name": "collectPositionFees",
      "outputs": [],
      "stateMutability": "nonpayable",
      "type": "function"
    },
    {
      "inputs": [],
      "name": "countPools",
      "outputs": [
        {
          "internalType": "uint16",
          "name": "",
          "type": "uint16"
        }
      ],
      "stateMutability": "view",
      "type": "function"
    },
    {
      "inputs": [
        {
          "components": [
            {
              "internalType": "address",
              "name": "token0",
              "type": "address"
            },
            {
              "internalType": "address",
              "name": "token1",
              "type": "address"
            },
            {
              "internalType": "uint24",
              "name": "fee",
              "type": "uint24"
            },
            {
              "internalType": "int24",
              "name": "tickLower",
              "type": "int24"
            },
            {
              "internalType": "int24",
              "name": "tickUpper",
              "type": "int24"
            },
            {
              "internalType": "uint256",
              "name": "amount0Desired",
              "type": "uint256"
            },
            {
              "internalType": "uint256",
              "name": "amount1Desired",
              "type": "uint256"
            },
            {
              "internalType": "uint256",
              "name": "amount0Min",
              "type": "uint256"
            },
            {
              "internalType": "uint256",
              "name": "amount1Min",
              "type": "uint256"
            },
            {
              "internalType": "address",
              "name": "recipient",
              "type": "address"
            },
            {
              "internalType": "uint256",
              "name": "deadline",
              "type": "uint256"
            }
          ],
          "internalType": "struct INonfungiblePositionManager.MintParams",
          "name": "params",
          "type": "tuple"
        },
        {
          "internalType": "uint32",
          "name": "ui",
          "type": "uint32"
        }
      ],
      "name": "createLiquidityPosition",
      "outputs": [
        {
          "internalType": "uint256",
          "name": "nftTokenID",
          "type": "uint256"
        },
        {
          "internalType": "uint128",
          "name": "liquidity",
          "type": "uint128"
        }
      ],
      "stateMutability": "payable",
      "type": "function"
    },
    {
      "inputs": [],
      "name": "currentPeriod",
      "outputs": [
        {
          "internalType": "uint64",
          "name": "period",
          "type": "uint64"
        }
      ],
      "stateMutability": "view",
      "type": "function"
    },
    {
      "inputs": [
        {
          "components": [
            {
              "internalType": "uint256",
              "name": "tokenId",
              "type": "uint256"
            },
            {
              "internalType": "uint128",
              "name": "liquidity",
              "type": "uint128"
            },
            {
              "internalType": "uint256",
              "name": "amount0Min",
              "type": "uint256"
            },
            {
              "internalType": "uint256",
              "name": "amount1Min",
              "type": "uint256"
            },
            {
              "internalType": "uint256",
              "name": "deadline",
              "type": "uint256"
            }
          ],
          "internalType": "struct INonfungiblePositionManager.DecreaseLiquidityParams",
          "name": "params",
          "type": "tuple"
        },
        {
          "internalType": "uint32",
          "name": "ui",
          "type": "uint32"
        }
      ],
      "name": "decreaseLiquidityPosition",
      "outputs": [
        {
          "internalType": "uint256",
          "name": "amount0",
          "type": "uint256"
        },
        {
          "internalType": "uint256",
          "name": "amount1",
          "type": "uint256"
        }
      ],
      "stateMutability": "nonpayable",
      "type": "function"
    },
    {
      "inputs": [],
      "name": "deployer",
      "outputs": [
        {
          "internalType": "address",
          "name": "",
          "type": "address"
        }
      ],
      "stateMutability": "view",
      "type": "function"
    },
    {
      "inputs": [
        {
          "internalType": "contract IUniswapV3Pool",
          "name": "_collateralPool",
          "type": "address"
        },
        {
          "internalType": "contract IUniswapV3Pool",
          "name": "_protocolPool",
          "type": "address"
        }
      ],
      "name": "finalizeInitialization",
      "outputs": [],
      "stateMutability": "nonpayable",
      "type": "function"
    },
    {
      "inputs": [],
      "name": "firstPeriod",
      "outputs": [
        {
          "internalType": "uint64",
          "name": "",
          "type": "uint64"
        }
      ],
      "stateMutability": "view",
      "type": "function"
    },
    {
      "inputs": [],
      "name": "governor",
      "outputs": [
        {
          "internalType": "contract IGovernor",
          "name": "",
          "type": "address"
        }
      ],
      "stateMutability": "view",
      "type": "function"
    },
    {
      "inputs": [
        {
          "components": [
            {
              "internalType": "uint256",
              "name": "tokenId",
              "type": "uint256"
            },
            {
              "internalType": "uint256",
              "name": "amount0Desired",
              "type": "uint256"
            },
            {
              "internalType": "uint256",
              "name": "amount1Desired",
              "type": "uint256"
            },
            {
              "internalType": "uint256",
              "name": "amount0Min",
              "type": "uint256"
            },
            {
              "internalType": "uint256",
              "name": "amount1Min",
              "type": "uint256"
            },
            {
              "internalType": "uint256",
              "name": "deadline",
              "type": "uint256"
            }
          ],
          "internalType": "struct INonfungiblePositionManager.IncreaseLiquidityParams",
          "name": "params",
          "type": "tuple"
        },
        {
          "internalType": "uint32",
          "name": "ui",
          "type": "uint32"
        }
      ],
      "name": "increaseLiquidityPosition",
      "outputs": [
        {
          "internalType": "uint128",
          "name": "liquidity",
          "type": "uint128"
        }
      ],
      "stateMutability": "payable",
      "type": "function"
    },
    {
      "inputs": [
        {
          "internalType": "contract IGovernor",
          "name": "_governor",
          "type": "address"
        }
      ],
      "name": "init",
      "outputs": [],
      "stateMutability": "nonpayable",
      "type": "function"
    },
    {
      "inputs": [],
      "name": "lastPeriodGlobalRewardsAccrued",
      "outputs": [
        {
          "internalType": "uint64",
          "name": "",
          "type": "uint64"
        }
      ],
      "stateMutability": "view",
      "type": "function"
    },
    {
      "inputs": [
        {
          "internalType": "contract IUniswapV3Pool",
          "name": "pool",
          "type": "address"
        },
        {
          "internalType": "uint256[]",
          "name": "nftTokenIDs",
          "type": "uint256[]"
        }
      ],
      "name": "liquidateOutofRangePositions",
      "outputs": [],
      "stateMutability": "nonpayable",
      "type": "function"
    },
    {
      "inputs": [],
      "name": "liquidationPenalty",
      "outputs": [
        {
          "internalType": "uint64",
          "name": "",
          "type": "uint64"
        }
      ],
      "stateMutability": "view",
      "type": "function"
    },
    {
      "inputs": [],
      "name": "maxLiquidityDecreasePerPeriod",
      "outputs": [
        {
          "internalType": "uint64",
          "name": "",
          "type": "uint64"
        }
      ],
      "stateMutability": "view",
      "type": "function"
    },
    {
      "inputs": [],
      "name": "minHueCountPerPosition",
      "outputs": [
        {
          "internalType": "uint128",
          "name": "",
          "type": "uint128"
        }
      ],
      "stateMutability": "view",
      "type": "function"
    },
    {
      "inputs": [
        {
          "internalType": "contract IUniswapV3Pool",
          "name": "",
          "type": "address"
        }
      ],
      "name": "minLiquidityByPeriod",
      "outputs": [
        {
          "internalType": "uint64",
          "name": "period",
          "type": "uint64"
        },
        {
          "internalType": "uint192",
          "name": "minLiquidity",
          "type": "uint192"
        }
      ],
      "stateMutability": "view",
      "type": "function"
    },
    {
      "inputs": [],
      "name": "minLiquidityProvideDuration",
      "outputs": [
        {
          "internalType": "uint64",
          "name": "",
          "type": "uint64"
        }
      ],
      "stateMutability": "view",
      "type": "function"
    },
    {
      "inputs": [],
      "name": "periodLength",
      "outputs": [
        {
          "internalType": "uint64",
          "name": "",
          "type": "uint64"
        }
      ],
      "stateMutability": "view",
      "type": "function"
    },
    {
      "inputs": [
        {
          "internalType": "uint16",
          "name": "",
          "type": "uint16"
        }
      ],
      "name": "poolConfigForPoolID",
      "outputs": [
        {
          "internalType": "contract IUniswapV3Pool",
          "name": "pool",
          "type": "address"
        },
        {
          "internalType": "uint64",
          "name": "rewardsPortion",
          "type": "uint64"
        }
      ],
      "stateMutability": "view",
      "type": "function"
    },
    {
      "inputs": [
        {
          "internalType": "contract IUniswapV3Pool",
          "name": "",
          "type": "address"
        }
      ],
      "name": "poolIDForPool",
      "outputs": [
        {
          "internalType": "uint16",
          "name": "",
          "type": "uint16"
        }
      ],
      "stateMutability": "view",
      "type": "function"
    },
    {
      "inputs": [
        {
          "internalType": "uint256",
          "name": "nftTokenID",
          "type": "uint256"
        }
      ],
      "name": "removeKickback",
      "outputs": [],
      "stateMutability": "nonpayable",
      "type": "function"
    },
    {
      "inputs": [
        {
          "components": [
            {
              "internalType": "uint256",
              "name": "tokenId",
              "type": "uint256"
            },
            {
              "internalType": "uint128",
              "name": "liquidity",
              "type": "uint128"
            },
            {
              "internalType": "uint256",
              "name": "amount0Min",
              "type": "uint256"
            },
            {
              "internalType": "uint256",
              "name": "amount1Min",
              "type": "uint256"
            },
            {
              "internalType": "uint256",
              "name": "deadline",
              "type": "uint256"
            }
          ],
          "internalType": "struct INonfungiblePositionManager.DecreaseLiquidityParams",
          "name": "params",
          "type": "tuple"
        }
      ],
      "name": "removeLiquidityPosition",
      "outputs": [
        {
          "internalType": "uint256",
          "name": "amount0",
          "type": "uint256"
        },
        {
          "internalType": "uint256",
          "name": "amount1",
          "type": "uint256"
        }
      ],
      "stateMutability": "nonpayable",
      "type": "function"
    },
    {
      "inputs": [
        {
          "internalType": "uint64",
          "name": "penalty",
          "type": "uint64"
        }
      ],
      "name": "setLiquidationPenalty",
      "outputs": [],
      "stateMutability": "nonpayable",
      "type": "function"
    },
    {
      "inputs": [
        {
          "internalType": "uint64",
          "name": "decreasePortion",
          "type": "uint64"
        }
      ],
      "name": "setMaxLiquidityDecreasePerPeriod",
      "outputs": [],
      "stateMutability": "nonpayable",
      "type": "function"
    },
    {
      "inputs": [
        {
          "internalType": "uint128",
          "name": "min",
          "type": "uint128"
        }
      ],
      "name": "setMinHueCountPerPosition",
      "outputs": [],
      "stateMutability": "nonpayable",
      "type": "function"
    },
    {
      "inputs": [
        {
          "internalType": "uint64",
          "name": "min",
          "type": "uint64"
        }
      ],
      "name": "setMinLiquidityProvideDuration",
      "outputs": [],
      "stateMutability": "nonpayable",
      "type": "function"
    },
    {
      "inputs": [
        {
          "internalType": "uint32",
          "name": "duration",
          "type": "uint32"
        }
      ],
      "name": "setTwapDuration",
      "outputs": [],
      "stateMutability": "nonpayable",
      "type": "function"
    },
    {
      "inputs": [],
      "name": "stop",
      "outputs": [],
      "stateMutability": "nonpayable",
      "type": "function"
    },
    {
      "inputs": [],
      "name": "stopped",
      "outputs": [
        {
          "internalType": "bool",
          "name": "",
          "type": "bool"
        }
      ],
      "stateMutability": "view",
      "type": "function"
    },
    {
      "inputs": [],
      "name": "twapDuration",
      "outputs": [
        {
          "internalType": "uint32",
          "name": "",
          "type": "uint32"
        }
      ],
      "stateMutability": "view",
      "type": "function"
    },
    {
      "inputs": [
        {
          "internalType": "uint16",
          "name": "poolID",
          "type": "uint16"
        },
        {
          "internalType": "uint64",
          "name": "incentive",
          "type": "uint64"
        }
      ],
      "name": "updatePoolIncentive",
      "outputs": [],
      "stateMutability": "nonpayable",
      "type": "function"
    },
    {
      "inputs": [
        {
          "internalType": "bytes4",
          "name": "",
          "type": "bytes4"
        }
      ],
      "name": "validUpdate",
      "outputs": [
        {
          "internalType": "bool",
          "name": "",
          "type": "bool"
        }
      ],
      "stateMutability": "view",
      "type": "function"
    }
  ],
  "bytecode": "0x6101206040526001600660005090905567016345785d8a0000600760006101000a81548167ffffffffffffffff021916908367ffffffffffffffff16021790555066d529ae9e860000600760086101000a81548167ffffffffffffffff021916908367ffffffffffffffff160217905550610708600760106101000a81548167ffffffffffffffff021916908367ffffffffffffffff160217905550686c6b935b8bbd400000600860006101000a8154816fffffffffffffffffffffffffffffffff02191690836fffffffffffffffffffffffffffffffff160217905550610708600860186101000a81548163ffffffff021916908363ffffffff1602179055506000600a60006101000a81548161ffff021916908361ffff1602179055503480156200012c5760006000fd5b50604051620080ef380380620080ef833981810160405281019062000152919062000386565b5b6138405b5b33600160006101000a81548173ffffffffffffffffffffffffffffffffffffffff021916908373ffffffffffffffffffffffffffffffffffffffff1602179055505b60018167ffffffffffffffff16620001b7620002cb60201b60201c565b67ffffffffffffffff16811515620001cb57fe5b040367ffffffffffffffff1660a08167ffffffffffffffff1660c01b815260080150508067ffffffffffffffff1660808167ffffffffffffffff1660c01b815260080150505b508273ffffffffffffffffffffffffffffffffffffffff1660e08173ffffffffffffffffffffffffffffffffffffffff1660601b815260140150508173ffffffffffffffffffffffffffffffffffffffff166101008173ffffffffffffffffffffffffffffffffffffffff1660601b815260140150508073ffffffffffffffffffffffffffffffffffffffff1660c08173ffffffffffffffffffffffffffffffffffffffff1660601b815260140150505b505050620003fb565b6000620002e542620002ed60201b620024a517909060201c565b905080505b90565b6000680100000000000000008210151562000373576040517f08c379a00000000000000000000000000000000000000000000000000000000081526004018080602001828103825260118152602001807f6d6f7265207468616e203634206269747300000000000000000000000000000081526020015060200191505060405180910390fd5b8190506200037c565b91905056620003fa565b600060006000606084860312156200039c578283fd5b8351620003a981620003dd565b809350506020840151620003bd81620003dd565b809250506040840151620003d181620003dd565b809150505b9250925092565b6001600160a01b03811681141515620003f65760006000fd5b5b50565b5b60805160c01c60a05160c01c60c05160601c60e05160601c6101005160601c617c696200048660003980611708525080610f3a5280612e015280613ea85280614187528061427e52806145bd5280614678528061500e5250806154ce52806155315250806121b5528061304d5280614b945250806121d9528061306e5280614bb55250617c696000f3fe6080604052600436106102535760003560e01c80634b82957311610138578063c4e3a63b116100b0578063e2e824751161007f578063f4d8977f11610064578063f4d8977f14610816578063fbc3a64314610855578063fbff7efd1461088157610253565b8063e2e82475146107be578063eeb90ad1146107ea57610253565b8063c4e3a63b14610710578063d2ca21151461073c578063d5f3948814610768578063de8925f51461079457610253565b80636bb0d4851161010757806375f12b21116100ec57806375f12b2114610690578063ae540fb1146106bc578063c433c80a146106e657610253565b80636bb0d4851461063a5780636fcdfed61461066457610253565b80634b8295731461057857806350b40400146105b657806361611890146105e657806361928ecf1461061057610253565b806317c13df6116101cb578063265e8a641161019a57806328d10de81161017f57806328d10de8146104e55780633e9483721461050f57806349447c001461053957610253565b8063265e8a641461048857806326d89545146104b957610253565b806317c13df6146103f057806319ab453c1461041a5780631afdbce41461044457806323f5589a1461045c57610253565b80630c340a2411610222578063113cf1ab11610207578063113cf1ab146103495780631421b91c1461038757806315398ae7146103b157610253565b80630c340a24146102f15780630dae9f521461031d57610253565b8063039d10e814610259578063060406181461028357806307da68f5146102af57806309076531146102c757610253565b60006000fd5b3480156102665760006000fd5b50610281600480360381019061027c9190616791565b6108c0565b005b3480156102905760006000fd5b50610299610d12565b6040516102a69190617ae5565b60405180910390f35b3480156102bc5760006000fd5b506102c5610d2a565b005b3480156102d45760006000fd5b506102ef60048036038101906102ea9190616e19565b610d4a565b005b3480156102fe5760006000fd5b50610307610df2565b604051610314919061719b565b60405180910390f35b34801561032a5760006000fd5b50610333610e18565b6040516103409190617ae5565b60405180910390f35b3480156103565760006000fd5b50610371600480360381019061036c919061665a565b610e32565b60405161037e9190617187565b60405180910390f35b3480156103945760006000fd5b506103af60048036038101906103aa91906168b9565b610e57565b005b3480156103be5760006000fd5b506103d960048036038101906103d4919061693a565b611054565b6040516103e7929190617a5d565b60405180910390f35b3480156103fd5760006000fd5b506104186004803603810190610413919061681a565b611139565b005b3480156104275760006000fd5b50610442600480360381019061043d91906166ce565b611274565b005b3480156104515760006000fd5b5061045a611686565b005b3480156104695760006000fd5b506104726116c3565b60405161047f9190617ae5565b60405180910390f35b6104a2600480360381019061049d9190616a4b565b6116dd565b6040516104b0929190617a32565b60405180910390f35b3480156104c65760006000fd5b506104cf6118d2565b6040516104dc9190617ab1565b60405180910390f35b3480156104f25760006000fd5b5061050d60048036038101906105089190616ce2565b6118e8565b005b34801561051c5760006000fd5b5061053760048036038101906105329190616d1e565b6119f2565b005b3480156105465760006000fd5b50610561600480360381019061055c919061676a565b611ae4565b60405161056f929190617b01565b60405180910390f35b3480156105855760006000fd5b506105a0600480360381019061059b919061676a565b611b43565b6040516105ad91906178ce565b60405180910390f35b6105d060048036038101906105cb9190616a0c565b611b69565b6040516105dd9190617886565b60405180910390f35b3480156105f35760006000fd5b5061060e60048036038101906106099190616856565b611c3e565b005b34801561061d5760006000fd5b5061063860048036038101906106339190616dc1565b611d5b565b005b3480156106475760006000fd5b50610662600480360381019061065d9190616e19565b611f7f565b005b3480156106715760006000fd5b5061067a612006565b60405161068791906178ce565b60405180910390f35b34801561069d5760006000fd5b506106a661201a565b6040516106b39190617187565b60405180910390f35b3480156106c95760006000fd5b506106e460048036038101906106df9190616e19565b61202d565b005b3480156106f35760006000fd5b5061070e60048036038101906107099190616df2565b61211c565b005b34801561071d5760006000fd5b506107266121b3565b6040516107339190617ae5565b60405180910390f35b3480156107495760006000fd5b506107526121d7565b60405161075f9190617ae5565b60405180910390f35b3480156107755760006000fd5b5061077e6121fb565b60405161078b91906170c2565b60405180910390f35b3480156107a15760006000fd5b506107bc60048036038101906107b79190616c5a565b612221565b005b3480156107cb5760006000fd5b506107d46122b8565b6040516107e19190617ae5565b60405180910390f35b3480156107f75760006000fd5b506108006122d2565b60405161080d9190617ae5565b60405180910390f35b3480156108235760006000fd5b5061083e6004803603810190610839919061695e565b6122ec565b60405161084c929190617a5d565b60405180910390f35b3480156108625760006000fd5b5061086b612428565b6040516108789190617886565b60405180910390f35b34801561088e5760006000fd5b506108a960048036038101906108a49190616cbb565b61244a565b6040516108b7929190617300565b60405180910390f35b6108ce61253763ffffffff16565b6108dc61261663ffffffff16565b6000600c60005060008573ffffffffffffffffffffffffffffffffffffffff1673ffffffffffffffffffffffffffffffffffffffff16815260200190815260200160002060009054906101000a900461ffff16905060008161ffff1611151561097a576040517f08c379a0000000000000000000000000000000000000000000000000000000008152600401610971906173ef565b60405180910390fd5b6000339050610987616418565b600085859050905060008773ffffffffffffffffffffffffffffffffffffffff16630dfe16816040518163ffffffff1660e01b815260040160206040518083038186803b1580156109d85760006000fd5b505afa1580156109ed573d600060003e3d6000fd5b505050506040513d601f19601f82011682018060405250810190610a119190616606565b905060008873ffffffffffffffffffffffffffffffffffffffff1663d21220a76040518163ffffffff1660e01b815260040160206040518083038186803b158015610a5c5760006000fd5b505afa158015610a71573d600060003e3d6000fd5b505050506040513d601f19601f82011682018060405250810190610a959190616606565b90506000600060006040518060400160405280600115158152602001610ac08e61270b63ffffffff16565b60020b81526020015090506000600090505b86811015610cf257600260009054906101000a900473ffffffffffffffffffffffffffffffffffffffff1673ffffffffffffffffffffffffffffffffffffffff1663f34348f18d8d848181101515610b2657fe5b905060200201356040518263ffffffff1660e01b8152600401610b49919061790c565b6101806040518083038186803b158015610b635760006000fd5b505afa158015610b78573d600060003e3d6000fd5b505050506040513d601f19601f82011682018060405250810190610b9c9190616b2c565b975087508961ffff16886020015161ffff16141515610bba57610ce5565b610bce88836020015161285963ffffffff16565b15610bd857610ce5565b610c64610bea8961288c63ffffffff16565b6040518060a001604052808f8f868181101515610c0357fe5b9050602002013581526020018b60a001516fffffffffffffffffffffffffffffffff1681526020016000815260200160008152602001610c47612c7f63ffffffff16565b67ffffffffffffffff168152602001503085612c9a63ffffffff16565b8094508195505050610c81868a8a60000151612ea463ffffffff16565b610c96858a8a60000151612ea463ffffffff16565b8b8b828181101515610ca457fe5b905060200201357fd606f13f519715bb4411edb6272f4f71cbf32d833557d19f0dfcf5a4b7f342968585604051610cdc929190617a5d565b60405180910390a25b8080600101915050610ad2565b505050505050505050505b5b610d0c612fb563ffffffff16565b5b505050565b6000610d2261304963ffffffff16565b905080505b90565b610d386130c263ffffffff16565b610d4661315763ffffffff16565b5b5b565b610d586130c263ffffffff16565b6706f05b59d3b200008167ffffffffffffffff16101515610d795760006000fd5b80600760086101000a81548167ffffffffffffffff021916908367ffffffffffffffff160217905550604051610dae90616fcd565b60405180910390207f8c68b65494af3e62909307c1f245424bec70c9d997e783ed41fdee7f54d7b4c082604051610de59190617ac9565b60405180910390a25b5b50565b600060009054906101000a900473ffffffffffffffffffffffffffffffffffffffff1681565b600860109054906101000a900467ffffffffffffffff1681565b600560005060205280600052604060002060009150909054906101000a900460ff1681565b610e6561253763ffffffff16565b610e736131a163ffffffff16565b610f34600260009054906101000a900473ffffffffffffffffffffffffffffffffffffffff1673ffffffffffffffffffffffffffffffffffffffff16631a206e918360000151336040518363ffffffff1660e01b8152600401610ed792919061791e565b60206040518083038186803b158015610ef05760006000fd5b505afa158015610f05573d600060003e3d6000fd5b505050506040513d601f19601f82011682018060405250810190610f29919061662d565b6131f663ffffffff16565b600060007f000000000000000000000000000000000000000000000000000000000000000073ffffffffffffffffffffffffffffffffffffffff1663fc6f7865846040518263ffffffff1660e01b8152600401610f9191906176e3565b604060405180830381600087803b158015610fac5760006000fd5b505af1158015610fc1573d600060003e3d6000fd5b505050506040513d601f19601f82011682018060405250810190610fe59190616d9b565b9150915082600001513373ffffffffffffffffffffffffffffffffffffffff167facf5781f729863816d01e6d77635b13f2998b176b9a3550306ac6363f601bc2b8484604051611036929190617a5d565b60405180910390a350505b5b611050612fb563ffffffff16565b5b50565b6000600061106661253763ffffffff16565b6110746131a163ffffffff16565b6000611089846000013561323c63ffffffff16565b905061109e816080015161335263ffffffff16565b6110d181858036038101906110b39190616997565b83600001516110c661339a63ffffffff16565b612c9a63ffffffff16565b809350819450505083600001357f1bd2c24817047e88025a4688c0fba3903e750cc05d80857de4201f42ec59bcf2848460405161110f929190617a5d565b60405180910390a28282925092505061112456505b5b611133612fb563ffffffff16565b5b915091565b600160149054906101000a900460ff1680156111615750600160159054906101000a900460ff165b80156111ba5750600160009054906101000a900473ffffffffffffffffffffffffffffffffffffffff1673ffffffffffffffffffffffffffffffffffffffff163373ffffffffffffffffffffffffffffffffffffffff16145b15156111c65760006000fd5b600160006101000a81549073ffffffffffffffffffffffffffffffffffffffff0219169055600160156101000a81549060ff0219169055600161ffff1661121583610bb86133a663ffffffff16565b61ffff1614151561125b576040517f08c379a0000000000000000000000000000000000000000000000000000000008152600401611252906176a4565b60405180910390fd5b61126d816103e86133a663ffffffff16565b505b5b5050565b600160009054906101000a900473ffffffffffffffffffffffffffffffffffffffff1673ffffffffffffffffffffffffffffffffffffffff163373ffffffffffffffffffffffffffffffffffffffff161415156112d15760006000fd5b600160159054906101000a900460ff161515156112ee5760006000fd5b80600060006101000a81548173ffffffffffffffffffffffffffffffffffffffff021916908373ffffffffffffffffffffffffffffffffffffffff160217905550600060009054906101000a900473ffffffffffffffffffffffffffffffffffffffff1673ffffffffffffffffffffffffffffffffffffffff16639624e83e6040518163ffffffff1660e01b815260040160206040518083038186803b1580156113985760006000fd5b505afa1580156113ad573d600060003e3d6000fd5b505050506040513d601f19601f820116820180604052508101906113d191906166a7565b600260006101000a81548173ffffffffffffffffffffffffffffffffffffffff021916908373ffffffffffffffffffffffffffffffffffffffff160217905550600060009054906101000a900473ffffffffffffffffffffffffffffffffffffffff1673ffffffffffffffffffffffffffffffffffffffff1663323741746040518163ffffffff1660e01b815260040160206040518083038186803b15801561147a5760006000fd5b505afa15801561148f573d600060003e3d6000fd5b505050506040513d601f19601f820116820180604052508101906114b391906166f5565b600360006101000a81548173ffffffffffffffffffffffffffffffffffffffff021916908373ffffffffffffffffffffffffffffffffffffffff160217905550600060009054906101000a900473ffffffffffffffffffffffffffffffffffffffff1673ffffffffffffffffffffffffffffffffffffffff1663d478b0876040518163ffffffff1660e01b815260040160206040518083038186803b15801561155c5760006000fd5b505afa158015611571573d600060003e3d6000fd5b505050506040513d601f19601f820116820180604052508101906115959190616743565b600460006101000a81548173ffffffffffffffffffffffffffffffffffffffff021916908373ffffffffffffffffffffffffffffffffffffffff1602179055506115e361383663ffffffff16565b600160149054906101000a900460ff16151561162357600160006101000a81549073ffffffffffffffffffffffffffffffffffffffff021916905561163f565b6001600160156101000a81548160ff0219169083151502179055505b8073ffffffffffffffffffffffffffffffffffffffff167f908408e307fc569b417f6cbec5d5a06f44a0a505ac0479b47d421a4b2fd6a1e660405160405180910390a25b50565b61169461253763ffffffff16565b6116a26131a163ffffffff16565b6116b0613b1863ffffffff16565b5b5b6116c0612fb563ffffffff16565b5b565b600760089054906101000a900467ffffffffffffffff1681565b600060006116ef61253763ffffffff16565b6116fd61261663ffffffff16565b6000600c60005060007f000000000000000000000000000000000000000000000000000000000000000073ffffffffffffffffffffffffffffffffffffffff16631698ee82886000015189602001518a604001516040518463ffffffff1660e01b815260040161176f93929190617119565b60206040518083038186803b1580156117885760006000fd5b505afa15801561179d573d600060003e3d6000fd5b505050506040513d601f19601f820116820180604052508101906117c19190616606565b73ffffffffffffffffffffffffffffffffffffffff1673ffffffffffffffffffffffffffffffffffffffff16815260200190815260200160002060009054906101000a900461ffff16905061181b81613d9263ffffffff16565b61182a85613e0363ffffffff16565b809350819450505061184e8382876060015188608001518689613f8763ffffffff16565b828161ffff163373ffffffffffffffffffffffffffffffffffffffff167f87c666eb8f5e2d1a47a2af419127c84ea830d86b5f75e12ca3dafa33323d912288606001518960800151876040516118a693929190617339565b60405180910390a4828292509250506118bb56505b5b6118ca612fb563ffffffff16565b5b9250929050565b600860189054906101000a900463ffffffff1681565b6118f66130c263ffffffff16565b61190582613d9263ffffffff16565b611913613b1863ffffffff16565b80600b60005060008461ffff1661ffff16815260200190815260200160002060005060000160146101000a81548167ffffffffffffffff021916908367ffffffffffffffff160217905550600061196e6140e263ffffffff16565b1115156119b0576040517f08c379a00000000000000000000000000000000000000000000000000000000081526004016119a79061752a565b60405180910390fd5b8161ffff167fcf476913af040a8c0a50588902fc980c73de756444694afb625e05906334404f826040516119e49190617ae5565b60405180910390a25b5b5050565b611a0061253763ffffffff16565b611a0e61261663ffffffff16565b6000611a1f8261323c63ffffffff16565b9050600081610120019063ffffffff16908163ffffffff1681526020015050600260009054906101000a900473ffffffffffffffffffffffffffffffffffffffff1673ffffffffffffffffffffffffffffffffffffffff1663816aaa2583836040518363ffffffff1660e01b8152600401611a9b92919061794d565b600060405180830381600087803b158015611ab65760006000fd5b505af1158015611acb573d600060003e3d6000fd5b50505050505b5b611ae0612fb563ffffffff16565b5b50565b60096000506020528060005260406000206000915090508060000160009054906101000a900467ffffffffffffffff16908060000160089054906101000a900477ffffffffffffffffffffffffffffffffffffffffffffffff16905082565b600c60005060205280600052604060002060009150909054906101000a900461ffff1681565b6000611b7961253763ffffffff16565b611b8761261663ffffffff16565b6000611b9c846000013561323c63ffffffff16565b90508281610120019063ffffffff16908163ffffffff1681526020015050611bc98461417f63ffffffff16565b91508150611be28185600001358461435b63ffffffff16565b83600001357fcc5b49b47bfd2f61894e4c8977343543aa054a11ae847be904355459ce55dcd983604051611c169190617886565b60405180910390a281915050611c2856505b5b611c37612fb563ffffffff16565b5b92915050565b611c4c6130c263ffffffff16565b6000600c60005060008473ffffffffffffffffffffffffffffffffffffffff1673ffffffffffffffffffffffffffffffffffffffff16815260200190815260200160002060009054906101000a900461ffff1661ffff16141515611ce5576040517f08c379a0000000000000000000000000000000000000000000000000000000008152600401611cdc906175a8565b60405180910390fd5b611cf3613b1863ffffffff16565b611d0382826133a663ffffffff16565b61ffff168273ffffffffffffffffffffffffffffffffffffffff167fb42c51dce17f5346a481b9dd503edc20c8b6de38b22e12b35a5c77c131fb38ac83604051611d4d9190617ae5565b60405180910390a35b5b5050565b611d6961253763ffffffff16565b611d776131a163ffffffff16565b6000600260009054906101000a900473ffffffffffffffffffffffffffffffffffffffff1673ffffffffffffffffffffffffffffffffffffffff1663f34348f1846040518263ffffffff1660e01b8152600401611dd4919061790c565b6101806040518083038186803b158015611dee5760006000fd5b505afa158015611e03573d600060003e3d6000fd5b505050506040513d601f19601f82011682018060405250810190611e279190616b2c565b9050611e6a816000015173ffffffffffffffffffffffffffffffffffffffff163373ffffffffffffffffffffffffffffffffffffffff16146131f663ffffffff16565b8181610120019063ffffffff16908163ffffffff1681526020015050600260009054906101000a900473ffffffffffffffffffffffffffffffffffffffff1673ffffffffffffffffffffffffffffffffffffffff1663816aaa2584611ed48461288c63ffffffff16565b6040518363ffffffff1660e01b8152600401611ef192919061794d565b600060405180830381600087803b158015611f0c5760006000fd5b505af1158015611f21573d600060003e3d6000fd5b50505050823373ffffffffffffffffffffffffffffffffffffffff167f8fb2e91976a5634cf8907065151b1b2d77e06915cfecb26cb82f8d926e8d98d960405160405180910390a3505b5b611f7a612fb563ffffffff16565b5b5050565b611f8d6130c263ffffffff16565b80600760106101000a81548167ffffffffffffffff021916908367ffffffffffffffff160217905550604051611fc290617091565b60405180910390207f8c68b65494af3e62909307c1f245424bec70c9d997e783ed41fdee7f54d7b4c082604051611ff99190617ac9565b60405180910390a25b5b50565b600a60009054906101000a900461ffff1681565b600060149054906101000a900460ff1681565b61203b6130c263ffffffff16565b80600760006101000a81548167ffffffffffffffff021916908367ffffffffffffffff160217905550600760009054906101000a900467ffffffffffffffff1667ffffffffffffffff1660001015156120945760006000fd5b670de0b6b3a7640000600760009054906101000a900467ffffffffffffffff1667ffffffffffffffff16111515156120cc5760006000fd5b6040516120d890617060565b60405180910390207f8c68b65494af3e62909307c1f245424bec70c9d997e783ed41fdee7f54d7b4c08260405161210f9190617ac9565b60405180910390a25b5b50565b61212a6130c263ffffffff16565b61012c8163ffffffff16101515156121425760006000fd5b80600860186101000a81548163ffffffff021916908363ffffffff16021790555060405161216f9061702f565b60405180910390207f182c40dc868824a9ba74a72504cd7ec63c58ed862a8ffe9f935d6ff47bd37314826040516121a69190617a99565b60405180910390a25b5b50565b7f000000000000000000000000000000000000000000000000000000000000000081565b7f000000000000000000000000000000000000000000000000000000000000000081565b600160009054906101000a900473ffffffffffffffffffffffffffffffffffffffff1681565b61222f6130c263ffffffff16565b80600860006101000a8154816fffffffffffffffffffffffffffffffff02191690836fffffffffffffffffffffffffffffffff16021790555060405161227490616ffe565b60405180910390207f5dcbeda12d93d481d59e4737a9a13ecea80702296bebdded1a20a76d645829c2826040516122ab91906178aa565b60405180910390a25b5b50565b600760009054906101000a900467ffffffffffffffff1681565b600760109054906101000a900467ffffffffffffffff1681565b600060006122fe61253763ffffffff16565b61230c61261663ffffffff16565b6000612321856000013561323c63ffffffff16565b9050612336816080015161335263ffffffff16565b8381610120019063ffffffff16908163ffffffff1681526020015050612371858036038101906123669190616997565b6145b763ffffffff16565b80935081945050506123918560000135826000015161467663ffffffff16565b6123c68186600001358760200160208101906123ad9190616c5a565b6123bb61339a63ffffffff16565b6147a763ffffffff16565b84600001357ffafb1711250bf0d3906bfd9c4386a9a5a5fdf9ac1facdc9dfd2addad7d3f72e784846040516123fc929190617a5d565b60405180910390a28182925092505061241156505b5b612420612fb563ffffffff16565b5b9250929050565b600860009054906101000a90046fffffffffffffffffffffffffffffffff1681565b600b6000506020528060005260406000206000915090508060000160009054906101000a900473ffffffffffffffffffffffffffffffffffffffff16908060000160149054906101000a900467ffffffffffffffff16905082565b6000680100000000000000008210151561252a576040517f08c379a00000000000000000000000000000000000000000000000000000000081526004018080602001828103825260118152602001807f6d6f7265207468616e203634206269747300000000000000000000000000000081526020015060200191505060405180910390fd5b819050612532565b919050565b600460009054906101000a900473ffffffffffffffffffffffffffffffffffffffff1673ffffffffffffffffffffffffffffffffffffffff1663e97dcb626040518163ffffffff1660e01b8152600401600060405180830381600087803b1580156125a25760006000fd5b505af11580156125b7573d600060003e3d6000fd5b50505050600260066000505414151515612606576040517f08c379a00000000000000000000000000000000000000000000000000000000081526004016125fd906174eb565b60405180910390fd5b600260066000508190909055505b565b6126246131a163ffffffff16565b600060009054906101000a900473ffffffffffffffffffffffffffffffffffffffff1673ffffffffffffffffffffffffffffffffffffffff1663bf86d6906040518163ffffffff1660e01b815260040160206040518083038186803b15801561268d5760006000fd5b505afa1580156126a2573d600060003e3d6000fd5b505050506040513d601f19601f820116820180604052508101906126c6919061662d565b151515612708576040517f08c379a00000000000000000000000000000000000000000000000000000000081526004016126ff90617371565b60405180910390fd5b5b565b6000600060009054906101000a900473ffffffffffffffffffffffffffffffffffffffff1673ffffffffffffffffffffffffffffffffffffffff1663d3419bf36040518163ffffffff1660e01b815260040160206040518083038186803b1580156127765760006000fd5b505afa15801561278b573d600060003e3d6000fd5b505050506040513d601f19601f820116820180604052508101906127af919061671c565b73ffffffffffffffffffffffffffffffffffffffff1663fcebd71c83600860189054906101000a900463ffffffff166040518363ffffffff1660e01b81526004016127fb9291906172cb565b60206040518083038186803b1580156128145760006000fd5b505afa158015612829573d600060003e3d6000fd5b505050506040513d601f19601f8201168201806040525081019061284d9190616892565b9050612854565b919050565b60008160020b8360e0015160020b1315801561287f575082610100015160020b8260020b125b9050612886565b92915050565b612894616418565b60006128a4614a8c63ffffffff16565b905060006128b782614b8d63ffffffff16565b905060008460c001519050600060008267ffffffffffffffff16146128ea576128e582614b8d63ffffffff16565b6128ed565b60005b90508067ffffffffffffffff168367ffffffffffffffff161115156129185785945050505050612c7a565b612926613b1863ffffffff16565b60006129e987600260009054906101000a900473ffffffffffffffffffffffffffffffffffffffff1673ffffffffffffffffffffffffffffffffffffffff166351ad51f78a602001516040518263ffffffff1660e01b815260040161298b91906178ce565b60406040518083038186803b1580156129a45760006000fd5b505afa1580156129b9573d600060003e3d6000fd5b505050506040513d601f19601f820116820180604052508101906129dd9190616c0e565b87614c1563ffffffff16565b80925081975050506000811115612c6857600073ffffffffffffffffffffffffffffffffffffffff1686610140015173ffffffffffffffffffffffffffffffffffffffff1614158015612a4b5750600086610160015167ffffffffffffffff16115b15612b7c576000612a7487610160015167ffffffffffffffff1683614d4d90919063ffffffff16565b9050600060009054906101000a900473ffffffffffffffffffffffffffffffffffffffff1673ffffffffffffffffffffffffffffffffffffffff1663ef7a7cfa886101400151836040518363ffffffff1660e01b8152600401612ad8929190617158565b600060405180830381600087803b158015612af35760006000fd5b505af1158015612b08573d600060003e3d6000fd5b505050506001151587610140015173ffffffffffffffffffffffffffffffffffffffff167f8079a05488a0f375c08504c3ba8b3a1371f5a192b7a141bc9294ef7ad41389d983604051612b5b919061790c565b60405180910390a3612b768183614d7390919063ffffffff16565b91508150505b600060009054906101000a900473ffffffffffffffffffffffffffffffffffffffff1673ffffffffffffffffffffffffffffffffffffffff1663ef7a7cfa8760000151836040518363ffffffff1660e01b8152600401612bdd929190617158565b600060405180830381600087803b158015612bf85760006000fd5b505af1158015612c0d573d600060003e3d6000fd5b5050505060001515866000015173ffffffffffffffffffffffffffffffffffffffff167f8079a05488a0f375c08504c3ba8b3a1371f5a192b7a141bc9294ef7ad41389d983604051612c5f919061790c565b60405180910390a35b8595505050505050612c7a5650505050505b919050565b6000612c92426124a5909063ffffffff16565b905080505b90565b600060008560a0015185602001906fffffffffffffffffffffffffffffffff1690816fffffffffffffffffffffffffffffffff1681526020015050856000015173ffffffffffffffffffffffffffffffffffffffff168473ffffffffffffffffffffffffffffffffffffffff16141515612d2757612d268560000151876000015161467663ffffffff16565b5b612d36856145b763ffffffff16565b8092508193505050612d5285600001518561467663ffffffff16565b612d6c8686600001518860a00151866147a763ffffffff16565b600260009054906101000a900473ffffffffffffffffffffffffffffffffffffffff1673ffffffffffffffffffffffffffffffffffffffff166326879a4e86600001516040518263ffffffff1660e01b8152600401612dcb919061790c565b600060405180830381600087803b158015612de65760006000fd5b505af1158015612dfb573d600060003e3d6000fd5b505050507f000000000000000000000000000000000000000000000000000000000000000073ffffffffffffffffffffffffffffffffffffffff166342966c6886600001516040518263ffffffff1660e01b8152600401612e5c919061790c565b600060405180830381600087803b158015612e775760006000fd5b505af1158015612e8c573d600060003e3d6000fd5b50505050818191509150612e9b565b94509492505050565b60008373ffffffffffffffffffffffffffffffffffffffff166370a08231306040518263ffffffff1660e01b8152600401612edf91906170c2565b60206040518083038186803b158015612ef85760006000fd5b505afa158015612f0d573d600060003e3d6000fd5b505050506040513d601f19601f82011682018060405250810190612f319190616d3a565b90506000811415612f425750612fb0565b6000612f77600760089054906101000a900467ffffffffffffffff1667ffffffffffffffff1683614d4d90919063ffffffff16565b9050612f9c8584612f918486614d7390919063ffffffff16565b614dfc63ffffffff16565b612fad858583614dfc63ffffffff16565b50505b505050565b60016006600050819090905550600460009054906101000a900473ffffffffffffffffffffffffffffffffffffffff1673ffffffffffffffffffffffffffffffffffffffff1663e9fad8ee6040518163ffffffff1660e01b8152600401600060405180830381600087803b15801561302d5760006000fd5b505af1158015613042573d600060003e3d6000fd5b505050505b565b60007f00000000000000000000000000000000000000000000000000000000000000007f000000000000000000000000000000000000000000000000000000000000000067ffffffffffffffff166130a5612c7f63ffffffff16565b67ffffffffffffffff168115156130b857fe5b0403905080505b90565b600060009054906101000a900473ffffffffffffffffffffffffffffffffffffffff1673ffffffffffffffffffffffffffffffffffffffff163373ffffffffffffffffffffffffffffffffffffffff16141515613154576040517f08c379a000000000000000000000000000000000000000000000000000000000815260040161314b906174ac565b60405180910390fd5b5b565b6001600060146101000a81548160ff0219169083151502179055507f7acc84e34091ae817647a4c49116f5cc07f319078ba80f8f5fde37ea7e25cbd660405160405180910390a15b565b600060149054906101000a900460ff161515156131f3576040517f08c379a00000000000000000000000000000000000000000000000000000000081526004016131ea90617626565b60405180910390fd5b5b565b801515613238576040517f08c379a000000000000000000000000000000000000000000000000000000000815260040161322f906174ac565b60405180910390fd5b5b50565b613244616418565b613300600260009054906101000a900473ffffffffffffffffffffffffffffffffffffffff1673ffffffffffffffffffffffffffffffffffffffff1663f34348f1846040518263ffffffff1660e01b81526004016132a2919061790c565b6101806040518083038186803b1580156132bc5760006000fd5b505afa1580156132d1573d600060003e3d6000fd5b505050506040513d601f19601f820116820180604052508101906132f59190616b2c565b61288c63ffffffff16565b90508050613345816000015173ffffffffffffffffffffffffffffffffffffffff163373ffffffffffffffffffffffffffffffffffffffff16146131f663ffffffff16565b80905061334d565b919050565b4381101515613396576040517f08c379a000000000000000000000000000000000000000000000000000000000815260040161338d90617665565b60405180910390fd5b5b50565b6133a26164de565b5b90565b60006000600c60005060008573ffffffffffffffffffffffffffffffffffffffff1673ffffffffffffffffffffffffffffffffffffffff16815260200190815260200160002060009054906101000a900461ffff1661ffff16141515613441576040517f08c379a00000000000000000000000000000000000000000000000000000000081526004016134389061746d565b60405180910390fd5b61ffff61ffff16600a600081819054906101000a900461ffff1660010191906101000a81548161ffff021916908361ffff160217905561ffff161015156134885760006000fd5b600060009054906101000a900473ffffffffffffffffffffffffffffffffffffffff1673ffffffffffffffffffffffffffffffffffffffff1663d3419bf36040518163ffffffff1660e01b815260040160206040518083038186803b1580156134f15760006000fd5b505afa158015613506573d600060003e3d6000fd5b505050506040513d601f19601f8201168201806040525081019061352a919061671c565b73ffffffffffffffffffffffffffffffffffffffff1663a6c26a0c84600360009054906101000a900473ffffffffffffffffffffffffffffffffffffffff166040518363ffffffff1660e01b81526004016135869291906171eb565b600060405180830381600087803b1580156135a15760006000fd5b505af11580156135b6573d600060003e3d6000fd5b50505050600a60009054906101000a900461ffff169050805060405180604001604052808473ffffffffffffffffffffffffffffffffffffffff1681526020018367ffffffffffffffff16815260200150600b60005060008361ffff1661ffff16815260200190815260200160002060005060008201518160000160006101000a81548173ffffffffffffffffffffffffffffffffffffffff021916908373ffffffffffffffffffffffffffffffffffffffff16021790555060208201518160000160146101000a81548167ffffffffffffffff021916908367ffffffffffffffff16021790555090505080600c60005060008573ffffffffffffffffffffffffffffffffffffffff1673ffffffffffffffffffffffffffffffffffffffff16815260200190815260200160002060006101000a81548161ffff021916908361ffff16021790555061378c8373ffffffffffffffffffffffffffffffffffffffff16630dfe16816040518163ffffffff1660e01b815260040160206040518083038186803b1580156137485760006000fd5b505afa15801561375d573d600060003e3d6000fd5b505050506040513d601f19601f820116820180604052508101906137819190616606565b61500863ffffffff16565b61381a8373ffffffffffffffffffffffffffffffffffffffff1663d21220a76040518163ffffffff1660e01b815260040160206040518083038186803b1580156137d65760006000fd5b505afa1580156137eb573d600060003e3d6000fd5b505050506040513d601f19601f8201168201806040525081019061380f9190616606565b61500863ffffffff16565b613828613b1863ffffffff16565b809050613830565b92915050565b60006040518060e00160405280636161189060e01b7bffffffffffffffffffffffffffffffffffffffffffffffffffffffff19167bffffffffffffffffffffffffffffffffffffffffffffffffffffffff191681526020016328d10de860e01b7bffffffffffffffffffffffffffffffffffffffffffffffffffffffff19167bffffffffffffffffffffffffffffffffffffffffffffffffffffffff1916815260200163ae540fb160e01b7bffffffffffffffffffffffffffffffffffffffffffffffffffffffff19167bffffffffffffffffffffffffffffffffffffffffffffffffffffffff1916815260200163de8925f560e01b7bffffffffffffffffffffffffffffffffffffffffffffffffffffffff19167bffffffffffffffffffffffffffffffffffffffffffffffffffffffff1916815260200163c433c80a60e01b7bffffffffffffffffffffffffffffffffffffffffffffffffffffffff19167bffffffffffffffffffffffffffffffffffffffffffffffffffffffff19168152602001630907653160e01b7bffffffffffffffffffffffffffffffffffffffffffffffffffffffff19167bffffffffffffffffffffffffffffffffffffffffffffffffffffffff19168152602001636bb0d48560e01b7bffffffffffffffffffffffffffffffffffffffffffffffffffffffff19167bffffffffffffffffffffffffffffffffffffffffffffffffffffffff1916815260200150905060008150600790506000600090505b81811015613af7576001600560005060008584600781101515613a8157fe5b60200201517bffffffffffffffffffffffffffffffffffffffffffffffffffffffff19167bffffffffffffffffffffffffffffffffffffffffffffffffffffffff1916815260200190815260200160002060006101000a81548160ff0219169083151502179055505b8080600101915050613a62565b506001600160146101000a81548160ff02191690831515021790555050505b565b6000613b2861505d63ffffffff16565b9050600860109054906101000a900467ffffffffffffffff1667ffffffffffffffff168167ffffffffffffffff16111515613b635750613d90565b6000600860109054906101000a900467ffffffffffffffff1682039050600061384067ffffffffffffffff1662015180811515613b9c57fe5b0467ffffffffffffffff16613c658367ffffffffffffffff16600060009054906101000a900473ffffffffffffffffffffffffffffffffffffffff1673ffffffffffffffffffffffffffffffffffffffff1663d714b88a6040518163ffffffff1660e01b815260040160206040518083038186803b158015613c1e5760006000fd5b505afa158015613c33573d600060003e3d6000fd5b505050506040513d601f19601f82011682018060405250810190613c579190616d3a565b61508590919063ffffffff16565b811515613c6e57fe5b0490506000600a60009054906101000a900461ffff16905060006000613c986140e263ffffffff16565b90506001915081505b8261ffff168261ffff16111515613d2757613d1982613d0d600b60005060008661ffff1661ffff16815260200190815260200160002060005060000160149054906101000a900467ffffffffffffffff1667ffffffffffffffff1684886151239092919063ffffffff16565b8761522463ffffffff16565b5b8180600101925050613ca1565b85600860106101000a81548167ffffffffffffffff021916908367ffffffffffffffff1602179055507f095a67d1e9698fe0eebf9cff79a22f6423cebcb4e386a0bdd7e12330d86381ed8486604051613d81929190617a76565b60405180910390a15050505050505b565b8061ffff166000108015613dbe5750600a60009054906101000a900461ffff1661ffff168161ffff1611155b1515613dff576040517f08c379a0000000000000000000000000000000000000000000000000000000008152600401613df6906175e7565b60405180910390fd5b5b50565b600060006000836000015190506000846020015190506000339050613e3383828860a001516154bc63ffffffff16565b613e4882828860c001516154bc63ffffffff16565b600260009054906101000a900473ffffffffffffffffffffffffffffffffffffffff1686610120019073ffffffffffffffffffffffffffffffffffffffff16908173ffffffffffffffffffffffffffffffffffffffff16815260200150507f000000000000000000000000000000000000000000000000000000000000000073ffffffffffffffffffffffffffffffffffffffff166388316456876040518263ffffffff1660e01b8152600401613eff91906177d4565b608060405180830381600087803b158015613f1a5760006000fd5b505af1158015613f2f573d600060003e3d6000fd5b505050506040513d601f19601f82011682018060405250810190613f539190616d56565b9050508095508196505050613f6e83826155d163ffffffff16565b613f7e82826155d163ffffffff16565b5050505b915091565b600260009054906101000a900473ffffffffffffffffffffffffffffffffffffffff1673ffffffffffffffffffffffffffffffffffffffff166375ea13ca33886040518363ffffffff1660e01b8152600401613fe49291906170ea565b600060405180830381600087803b158015613fff5760006000fd5b505af1158015614014573d600060003e3d6000fd5b50505050614020616418565b33816000019073ffffffffffffffffffffffffffffffffffffffff16908173ffffffffffffffffffffffffffffffffffffffff168152602001505085816020019061ffff16908161ffff1681526020015050848160e0019060020b908160020b815260200150508381610100019060020b908160020b815260200150508181610120019063ffffffff16908163ffffffff16815260200150506140d86140cb8261288c63ffffffff16565b888561435b63ffffffff16565b505b505050505050565b60006000600190505b600a60009054906101000a900461ffff1661ffff168161ffff1611151561417357614161600b60005060008361ffff1661ffff16815260200190815260200160002060005060000160149054906101000a900467ffffffffffffffff1667ffffffffffffffff168361568190919063ffffffff16565b915081505b80806001019150506140eb565b5080905061417c565b90565b6000600060007f000000000000000000000000000000000000000000000000000000000000000073ffffffffffffffffffffffffffffffffffffffff166399fbab8885600001356040518263ffffffff1660e01b81526004016141e2919061790c565b6101806040518083038186803b1580156141fc5760006000fd5b505afa158015614211573d600060003e3d6000fd5b505050506040513d601f19601f820116820180604052508101906142359190616e67565b5050505050505050935093505050600060008383915091506000339050614267838289602001356154bc63ffffffff16565b61427c828289604001356154bc63ffffffff16565b7f000000000000000000000000000000000000000000000000000000000000000073ffffffffffffffffffffffffffffffffffffffff1663219f5d17886040518263ffffffff1660e01b81526004016142d5919061778f565b606060405180830381600087803b1580156142f05760006000fd5b505af1158015614305573d600060003e3d6000fd5b505050506040513d601f19601f820116820180604052508101906143299190616c81565b9050508096505061434083826155d163ffffffff16565b61435082826155d163ffffffff16565b50505050505b919050565b6000600b6000506000856020015161ffff1661ffff16815260200190815260200160002060005060000160009054906101000a900473ffffffffffffffffffffffffffffffffffffffff16905060006143b98261270b63ffffffff16565b90506143cb858261285963ffffffff16565b151561440c576040517f08c379a0000000000000000000000000000000000000000000000000000000008152600401614403906173b0565b60405180910390fd5b61444685828461443b878a60a001516fffffffffffffffffffffffffffffffff1661570a90919063ffffffff16565b6157b763ffffffff16565b600161ffff16856020015161ffff16141561447e5761447d82846fffffffffffffffffffffffffffffffff166159b463ffffffff16565b5b600260009054906101000a900473ffffffffffffffffffffffffffffffffffffffff1673ffffffffffffffffffffffffffffffffffffffff16631428561d83856040518363ffffffff1660e01b81526004016144db92919061728a565b600060405180830381600087803b1580156144f65760006000fd5b505af115801561450b573d600060003e3d6000fd5b50505050438560800190908181526020015050600260009054906101000a900473ffffffffffffffffffffffffffffffffffffffff1673ffffffffffffffffffffffffffffffffffffffff1663816aaa2585876040518363ffffffff1660e01b815260040161457b92919061794d565b600060405180830381600087803b1580156145965760006000fd5b505af11580156145ab573d600060003e3d6000fd5b5050505050505b505050565b600060007f000000000000000000000000000000000000000000000000000000000000000073ffffffffffffffffffffffffffffffffffffffff16630c49ccbe846040518263ffffffff1660e01b81526004016146149190617742565b604060405180830381600087803b15801561462f5760006000fd5b505af1158015614644573d600060003e3d6000fd5b505050506040513d601f19601f820116820180604052508101906146689190616d9b565b91509150614671565b915091565b7f000000000000000000000000000000000000000000000000000000000000000073ffffffffffffffffffffffffffffffffffffffff1663fc6f786560405180608001604052808581526020018473ffffffffffffffffffffffffffffffffffffffff1681526020016fffffffffffffffffffffffffffffffff6fffffffffffffffffffffffffffffffff1681526020016fffffffffffffffffffffffffffffffff6fffffffffffffffffffffffffffffffff168152602001506040518263ffffffff1660e01b815260040161474c91906176e3565b604060405180830381600087803b1580156147675760006000fd5b505af115801561477c573d600060003e3d6000fd5b505050506040513d601f19601f820116820180604052508101906147a09190616d9b565b50505b5050565b6000600b6000506000866020015161ffff1661ffff16815260200190815260200160002060005060000160009054906101000a900473ffffffffffffffffffffffffffffffffffffffff169050600082600001516148135761480e8261270b63ffffffff16565b614819565b82602001515b905061485586828461484a888b60a001516fffffffffffffffffffffffffffffffff16615c6790919063ffffffff16565b6157b763ffffffff16565b600161ffff16866020015161ffff1614801561487d575061487c868261285963ffffffff16565b5b80156149285750600060009054906101000a900473ffffffffffffffffffffffffffffffffffffffff1673ffffffffffffffffffffffffffffffffffffffff1663bf86d6906040518163ffffffff1660e01b815260040160206040518083038186803b1580156148ed5760006000fd5b505afa158015614902573d600060003e3d6000fd5b505050506040513d601f19601f82011682018060405250810190614926919061662d565b155b156149615761493e8260006159b463ffffffff16565b61496082856fffffffffffffffffffffffffffffffff16615d1463ffffffff16565b5b600260009054906101000a900473ffffffffffffffffffffffffffffffffffffffff1673ffffffffffffffffffffffffffffffffffffffff1663530c1ccb83866040518363ffffffff1660e01b81526004016149be92919061728a565b600060405180830381600087803b1580156149d95760006000fd5b505af11580156149ee573d600060003e3d6000fd5b50505050600260009054906101000a900473ffffffffffffffffffffffffffffffffffffffff1673ffffffffffffffffffffffffffffffffffffffff1663816aaa2586886040518363ffffffff1660e01b8152600401614a4f92919061794d565b600060405180830381600087803b158015614a6a5760006000fd5b505af1158015614a7f573d600060003e3d6000fd5b5050505050505b50505050565b60006000614a9e612c7f63ffffffff16565b90506000600060009054906101000a900473ffffffffffffffffffffffffffffffffffffffff1673ffffffffffffffffffffffffffffffffffffffff1663585690816040518163ffffffff1660e01b815260040160206040518083038186803b158015614b0b5760006000fd5b505afa158015614b20573d600060003e3d6000fd5b505050506040513d601f19601f82011682018060405250810190614b449190616e40565b90508067ffffffffffffffff166000108015614b7357508167ffffffffffffffff168167ffffffffffffffff16105b614b7d5781614b7f565b805b92505050614b8a5650505b90565b6000614c0b7f00000000000000000000000000000000000000000000000000000000000000007f000000000000000000000000000000000000000000000000000000000000000067ffffffffffffffff168467ffffffffffffffff16811515614bf257fe5b0467ffffffffffffffff16615ea290919063ffffffff16565b905080505b919050565b614c1d616418565b6000849150815060008260a001516fffffffffffffffffffffffffffffffff161115614cf157614cec614c678360c001518567ffffffffffffffff16615ea290919063ffffffff16565b67ffffffffffffffff1661384067ffffffffffffffff16614cdd614c9c86606001518960000151614d7390919063ffffffff16565b614cb787604001518a60200151614d7390919063ffffffff16565b8760a001516fffffffffffffffffffffffffffffffff166151239092919063ffffffff16565b6151239092919063ffffffff16565b905080505b8360000151826060019090818152602001505083602001518260400190908181526020015050828260c0019067ffffffffffffffff16908167ffffffffffffffff1681526020015050818191509150614d45565b935093915050565b6000614d688383670de0b6b3a764000061512363ffffffff16565b905080505b92915050565b60008282840391508111151515614df5576040517f08c379a000000000000000000000000000000000000000000000000000000000815260040180806020018281038252600d8152602001807f7375622d756e646572666c6f770000000000000000000000000000000000000081526020015060200191505060405180910390fd5b5b92915050565b600060008473ffffffffffffffffffffffffffffffffffffffff1663a9059cbb60e01b8585604051602401808373ffffffffffffffffffffffffffffffffffffffff16815260200182815260200192505050604051602081830303815290604052907bffffffffffffffffffffffffffffffffffffffffffffffffffffffff19166020820180517bffffffffffffffffffffffffffffffffffffffffffffffffffffffff83818316178352505050506040518082805190602001908083835b602083101515614ee157805182525b602082019150602081019050602083039250614ebb565b6001836020036101000a0380198251168184511680821785525050505050509050019150506000604051808303816000865af19150503d8060008114614f43576040519150601f19603f3d011682016040523d82523d6000602084013e614f48565b606091505b5091509150818015614f895750600081511480614f885750808060200190516020811015614f765760006000fd5b81019080805190602001909291905050505b5b1515615000576040517f08c379a00000000000000000000000000000000000000000000000000000000081526004018080602001828103825260028152602001807f535400000000000000000000000000000000000000000000000000000000000081526020015060200191505060405180910390fd5b50505b505050565b615059817f00000000000000000000000000000000000000000000000000000000000000007fffffffffffffffffffffffffffffffffffffffffffffffffffffffffffffffff615f3f63ffffffff16565b5b50565b600061507b615070614a8c63ffffffff16565b614b8d63ffffffff16565b9050615082565b90565b600060008214806150a5575082828385029250828115156150a257fe5b04145b151561511c576040517f08c379a000000000000000000000000000000000000000000000000000000000815260040180806020018281038252600c8152602001807f6d756c2d6f766572666c6f77000000000000000000000000000000000000000081526020015060200191505060405180910390fd5b5b92915050565b6000600060006000198587098587029250828110838203039150506000811415615166576000841115156151575760006000fd5b8382049250829250505061521d565b80841115156151755760006000fd5b600084868809905082811182039150808303925060008586600003169050808604955080840493506001818260000304019050808302841793508350600060028760030218905080870260020381029050805080870260020381029050805080870260020381029050805080870260020381029050805080870260020381029050805080870260020381029050805080850295508550859550505050505061521d5650505050505b9392505050565b6000600260009054906101000a900473ffffffffffffffffffffffffffffffffffffffff1673ffffffffffffffffffffffffffffffffffffffff166351ad51f7856040518263ffffffff1660e01b815260040161528191906178ce565b60406040518083038186803b15801561529a5760006000fd5b505afa1580156152af573d600060003e3d6000fd5b505050506040513d601f19601f820116820180604052508101906152d39190616c0e565b9050600260009054906101000a900473ffffffffffffffffffffffffffffffffffffffff1673ffffffffffffffffffffffffffffffffffffffff1663f709960785604051806040016040528061533688876000015161568190919063ffffffff16565b815260200161545e61544b8867ffffffffffffffff16600260009054906101000a900473ffffffffffffffffffffffffffffffffffffffff1673ffffffffffffffffffffffffffffffffffffffff1663a135ef17600b60005060008f61ffff1661ffff16815260200190815260200160002060005060000160009054906101000a900473ffffffffffffffffffffffffffffffffffffffff166040518263ffffffff1660e01b81526004016153eb91906171c3565b60206040518083038186803b1580156154045760006000fd5b505afa158015615419573d600060003e3d6000fd5b505050506040513d601f19601f8201168201806040525081019061543d9190616d3a565b61508590919063ffffffff16565b876020015161568190919063ffffffff16565b8152602001506040518363ffffffff1660e01b81526004016154819291906178e4565b600060405180830381600087803b15801561549c5760006000fd5b505af11580156154b1573d600060003e3d6000fd5b50505050505b505050565b60008114156154ca576155cc565b60007f000000000000000000000000000000000000000000000000000000000000000073ffffffffffffffffffffffffffffffffffffffff168473ffffffffffffffffffffffffffffffffffffffff1614801561552a5750814791508110155b156155b7577f000000000000000000000000000000000000000000000000000000000000000073ffffffffffffffffffffffffffffffffffffffff1663d0e30db0826040518263ffffffff1660e01b81526004016000604051808303818588803b1580156155985760006000fd5b505af11580156155ad573d600060003e3d6000fd5b50505050506155ca565b6155c98484308561614b63ffffffff16565b5b505b505050565b60008273ffffffffffffffffffffffffffffffffffffffff166370a08231306040518263ffffffff1660e01b815260040161560c91906170c2565b60206040518083038186803b1580156156255760006000fd5b505afa15801561563a573d600060003e3d6000fd5b505050506040513d601f19601f8201168201806040525081019061565e9190616d3a565b9050600081111561567b5761567a838383614dfc63ffffffff16565b5b505b5050565b60008282840191508110151515615703576040517f08c379a000000000000000000000000000000000000000000000000000000000815260040180806020018281038252600c8152602001807f6164642d6f766572666c6f77000000000000000000000000000000000000000081526020015060200191505060405180910390fd5b5b92915050565b6000826fffffffffffffffffffffffffffffffff168284019150816fffffffffffffffffffffffffffffffff16101515156157b0576040517f08c379a000000000000000000000000000000000000000000000000000000000815260040180806020018281038252600c8152602001807f6164642d6f766572666c6f77000000000000000000000000000000000000000081526020015060200191505060405180910390fd5b5b92915050565b6000816fffffffffffffffffffffffffffffffff1614156157d7576159ae565b6000600060009054906101000a900473ffffffffffffffffffffffffffffffffffffffff1673ffffffffffffffffffffffffffffffffffffffff1663d3419bf36040518163ffffffff1660e01b815260040160206040518083038186803b1580156158425760006000fd5b505afa158015615857573d600060003e3d6000fd5b505050506040513d601f19601f8201168201806040525081019061587b919061671c565b73ffffffffffffffffffffffffffffffffffffffff16631fab230e84868860e0015189610100015187600860189054906101000a900463ffffffff166040518763ffffffff1660e01b81526004016158d89695949392919061721e565b60206040518083038186803b1580156158f15760006000fd5b505afa158015615906573d600060003e3d6000fd5b505050506040513d601f19601f8201168201806040525081019061592a9190616d3a565b9050600860009054906101000a90046fffffffffffffffffffffffffffffffff166fffffffffffffffffffffffffffffffff168110158061596b5750600081145b15156159ac576040517f08c379a00000000000000000000000000000000000000000000000000000000081526004016159a390617569565b60405180910390fd5b505b50505050565b60006159c461304963ffffffff16565b90508067ffffffffffffffff16600960005060008573ffffffffffffffffffffffffffffffffffffffff1673ffffffffffffffffffffffffffffffffffffffff16815260200190815260200160002060005060000160009054906101000a900467ffffffffffffffff1667ffffffffffffffff161015615c61576000615b5b615b4e615a81600760009054906101000a900467ffffffffffffffff1667ffffffffffffffff16670de0b6b3a7640000614d7390919063ffffffff16565b615b4086600260009054906101000a900473ffffffffffffffffffffffffffffffffffffffff1673ffffffffffffffffffffffffffffffffffffffff1663a135ef178a6040518263ffffffff1660e01b8152600401615ae091906171c3565b60206040518083038186803b158015615af95760006000fd5b505afa158015615b0e573d600060003e3d6000fd5b505050506040513d601f19601f82011682018060405250810190615b329190616d3a565b61568190919063ffffffff16565b614d4d90919063ffffffff16565b616376909063ffffffff16565b905060405180604001604052808367ffffffffffffffff1681526020018277ffffffffffffffffffffffffffffffffffffffffffffffff16815260200150600960005060008673ffffffffffffffffffffffffffffffffffffffff1673ffffffffffffffffffffffffffffffffffffffff16815260200190815260200160002060005060008201518160000160006101000a81548167ffffffffffffffff021916908367ffffffffffffffff16021790555060208201518160000160086101000a81548177ffffffffffffffffffffffffffffffffffffffffffffffff021916908377ffffffffffffffffffffffffffffffffffffffffffffffff160217905550905050505b505b5050565b6000826fffffffffffffffffffffffffffffffff168284039150816fffffffffffffffffffffffffffffffff1611151515615d0d576040517f08c379a000000000000000000000000000000000000000000000000000000000815260040180806020018281038252600d8152602001807f7375622d756e646572666c6f770000000000000000000000000000000000000081526020015060200191505060405180910390fd5b5b92915050565b600960005060008373ffffffffffffffffffffffffffffffffffffffff1673ffffffffffffffffffffffffffffffffffffffff16815260200190815260200160002060005060000160089054906101000a900477ffffffffffffffffffffffffffffffffffffffffffffffff1677ffffffffffffffffffffffffffffffffffffffffffffffff16615e5a82600260009054906101000a900473ffffffffffffffffffffffffffffffffffffffff1673ffffffffffffffffffffffffffffffffffffffff1663a135ef17866040518263ffffffff1660e01b8152600401615dfa91906171c3565b60206040518083038186803b158015615e135760006000fd5b505afa158015615e28573d600060003e3d6000fd5b505050506040513d601f19601f82011682018060405250810190615e4c9190616d3a565b614d7390919063ffffffff16565b10151515615e9d576040517f08c379a0000000000000000000000000000000000000000000000000000000008152600401615e949061742e565b60405180910390fd5b5b5050565b60008267ffffffffffffffff1682840391508167ffffffffffffffff1611151515615f38576040517f08c379a000000000000000000000000000000000000000000000000000000000815260040180806020018281038252600d8152602001807f7375622d756e646572666c6f770000000000000000000000000000000000000081526020015060200191505060405180910390fd5b5b92915050565b600060008473ffffffffffffffffffffffffffffffffffffffff1663095ea7b360e01b8585604051602401808373ffffffffffffffffffffffffffffffffffffffff16815260200182815260200192505050604051602081830303815290604052907bffffffffffffffffffffffffffffffffffffffffffffffffffffffff19166020820180517bffffffffffffffffffffffffffffffffffffffffffffffffffffffff83818316178352505050506040518082805190602001908083835b60208310151561602457805182525b602082019150602081019050602083039250615ffe565b6001836020036101000a0380198251168184511680821785525050505050509050019150506000604051808303816000865af19150503d8060008114616086576040519150601f19603f3d011682016040523d82523d6000602084013e61608b565b606091505b50915091508180156160cc57506000815114806160cb57508080602001905160208110156160b95760006000fd5b81019080805190602001909291905050505b5b1515616143576040517f08c379a00000000000000000000000000000000000000000000000000000000081526004018080602001828103825260028152602001807f534100000000000000000000000000000000000000000000000000000000000081526020015060200191505060405180910390fd5b50505b505050565b600060008573ffffffffffffffffffffffffffffffffffffffff166323b872dd60e01b868686604051602401808473ffffffffffffffffffffffffffffffffffffffff1681526020018373ffffffffffffffffffffffffffffffffffffffff1681526020018281526020019350505050604051602081830303815290604052907bffffffffffffffffffffffffffffffffffffffffffffffffffffffff19166020820180517bffffffffffffffffffffffffffffffffffffffffffffffffffffffff83818316178352505050506040518082805190602001908083835b60208310151561624e57805182525b602082019150602081019050602083039250616228565b6001836020036101000a0380198251168184511680821785525050505050509050019150506000604051808303816000865af19150503d80600081146162b0576040519150601f19603f3d011682016040523d82523d6000602084013e6162b5565b606091505b50915091508180156162f657506000815114806162f557508080602001905160208110156162e35760006000fd5b81019080805190602001909291905050505b5b151561636d576040517f08c379a00000000000000000000000000000000000000000000000000000000081526004018080602001828103825260038152602001807f535446000000000000000000000000000000000000000000000000000000000081526020015060200191505060405180910390fd5b50505b50505050565b600078010000000000000000000000000000000000000000000000008210151561640b576040517f08c379a00000000000000000000000000000000000000000000000000000000081526004018080602001828103825260128152602001807f6d6f7265207468616e203139322062697473000000000000000000000000000081526020015060200191505060405180910390fd5b819050616413565b919050565b604051806101800160405280600073ffffffffffffffffffffffffffffffffffffffff168152602001600061ffff16815260200160008152602001600081526020016000815260200160006fffffffffffffffffffffffffffffffff168152602001600067ffffffffffffffff168152602001600060020b8152602001600060020b8152602001600063ffffffff168152602001600073ffffffffffffffffffffffffffffffffffffffff168152602001600067ffffffffffffffff1681526020015090565b6040518060400160405280600015158152602001600060020b8152602001509056617c32565b60008135905061651381617b69565b5b919050565b60008151905061652881617b69565b5b919050565b60008135905061653d81617b92565b5b919050565b60008151905061655281617b92565b5b919050565b600060a08284031215616569578081fd5b8190505b92915050565b60008151905061658281617ba8565b5b919050565b60008151905061659781617bcd565b5b919050565b6000813590506165ac81617be4565b5b919050565b6000815190506165c181617be4565b5b919050565b6000813590506165d681617bfc565b5b919050565b6000815190506165eb81617bfc565b5b919050565b60008151905061660081617c15565b5b919050565b600060208284031215616617578081fd5b815161662281617b69565b809150505b92915050565b60006020828403121561663e578081fd5b81518015158114151561664f578182fd5b809150505b92915050565b60006020828403121561666b578081fd5b81357fffffffff0000000000000000000000000000000000000000000000000000000081168114151561669c578182fd5b809150505b92915050565b6000602082840312156166b8578081fd5b81516166c381617b69565b809150505b92915050565b6000602082840312156166df578081fd5b81356166ea81617b69565b809150505b92915050565b600060208284031215616706578081fd5b815161671181617b69565b809150505b92915050565b60006020828403121561672d578081fd5b815161673881617b69565b809150505b92915050565b600060208284031215616754578081fd5b815161675f81617b69565b809150505b92915050565b60006020828403121561677b578081fd5b813561678681617b69565b809150505b92915050565b600060006000604084860312156167a6578182fd5b83356167b181617b69565b80935050602084013567ffffffffffffffff808211156167cf578384fd5b818601915086601f83011215156167e4578384fd5b8135818111156167f2578485fd5b876020602083028501011115616806578485fd5b6020830194508093505050505b9250925092565b600060006040838503121561682d578182fd5b823561683881617b69565b80925050602083013561684a81617b69565b809150505b9250929050565b6000600060408385031215616869578182fd5b823561687481617b69565b80925050602083013561688681617c15565b809150505b9250929050565b6000602082840312156168a3578081fd5b81516168ae81617b92565b809150505b92915050565b6000608082840312156168ca578081fd5b6040516080810181811067ffffffffffffffff821117156168e757fe5b80604052508235815260208301356168fe81617b69565b80602083015250604083013561691381617ba8565b80604083015250606083013561692881617ba8565b80606083015250809150505b92915050565b600060a0828403121561694b578081fd5b6169558383616558565b90505b92915050565b6000600060c08385031215616971578182fd5b61697b8484616558565b915060a083013561698b81617bfc565b809150505b9250929050565b600060a082840312156169a8578081fd5b60405160a0810181811067ffffffffffffffff821117156169c557fe5b80604052508235815260208301356169dc81617ba8565b80602083015250604083013560408201526060830135606082015260808301356080820152809150505b92915050565b6000600082840360e0811215616a20578283fd5b60c0811215616a2d578283fd5b5082915060c0830135616a3f81617bfc565b809150505b9250929050565b60006000828403610180811215616a60578283fd5b61016080821215616a6f578384fd5b616a7881617b3e565b9150616a8385616504565b8252616a9160208601616504565b6020830152616aa26040860161659d565b6040830152616ab36060860161652e565b6060830152616ac46080860161652e565b608083015260a085013560a083015260c085013560c083015260e085013560e0830152610100808601358184015250610120616b01818701616504565b8184015250610140808601358184015250819350616b208186016165c7565b925050505b9250929050565b6000610180808385031215616b3f578182fd5b616b4881617b3e565b9050616b5383616519565b8152616b6160208401616588565b6020820152604083015160408201526060830151606082015260808301516080820152616b9060a08401616573565b60a0820152616ba160c084016165f1565b60c0820152616bb260e08401616543565b60e0820152610100616bc5818501616543565b8183015250610120616bd88185016165dc565b8183015250610140616beb818501616519565b8183015250610160616bfe8185016165f1565b8183015250809150505b92915050565b600060408284031215616c1f578081fd5b6040516040810181811067ffffffffffffffff82111715616c3c57fe5b80604052508251815260208301516020820152809150505b92915050565b600060208284031215616c6b578081fd5b8135616c7681617ba8565b809150505b92915050565b60006000600060608486031215616c96578081fd5b8351616ca181617ba8565b8093505060208401519150604084015190505b9250925092565b600060208284031215616ccc578081fd5b8135616cd781617bcd565b809150505b92915050565b6000600060408385031215616cf5578182fd5b8235616d0081617bcd565b809250506020830135616d1281617c15565b809150505b9250929050565b600060208284031215616d2f578081fd5b813590505b92915050565b600060208284031215616d4b578081fd5b815190505b92915050565b600060006000600060808587031215616d6d578182fd5b845193506020850151616d7f81617ba8565b8093505060408501519150606085015190505b92959194509250565b6000600060408385031215616dae578182fd5b82519150602083015190505b9250929050565b6000600060408385031215616dd4578182fd5b823591506020830135616de681617bfc565b809150505b9250929050565b600060208284031215616e03578081fd5b8135616e0e81617bfc565b809150505b92915050565b600060208284031215616e2a578081fd5b8135616e3581617c15565b809150505b92915050565b600060208284031215616e51578081fd5b8151616e5c81617c15565b809150505b92915050565b6000600060006000600060006000600060006000600060006101808d8f031215616e8f57898afd5b8c516bffffffffffffffffffffffff811681141515616eac578a8bfd5b809c5050616ebc60208e01616519565b9a50616eca60408e01616519565b9950616ed860608e01616519565b9850616ee660808e016165b2565b9750616ef460a08e01616543565b9650616f0260c08e01616543565b9550616f1060e08e01616573565b94506101008d015193506101208d01519250616f2f6101408e01616573565b9150616f3e6101608e01616573565b90505b9295989b509295989b509295989b565b73ffffffffffffffffffffffffffffffffffffffff811682525b5050565b8060020b82525b5050565b6fffffffffffffffffffffffffffffffff811682525b5050565b61ffff811682525b5050565b62ffffff811682525b5050565b63ffffffff811682525b5050565b67ffffffffffffffff811682525b5050565b60007f6c69717569646174696f6e50656e616c7479000000000000000000000000000082526012820190505b919050565b60007f6d696e487565436f756e74506572506f736974696f6e0000000000000000000082526016820190505b919050565b60007f747761704475726174696f6e00000000000000000000000000000000000000008252600c820190505b919050565b60007f6d61784c69717569646974794465637265617365506572506572696f640000008252601d820190505b919050565b60007f6d696e4c697175696469747950726f766964654475726174696f6e00000000008252601b820190505b919050565b600060208201905073ffffffffffffffffffffffffffffffffffffffff831682525b92915050565b600060408201905073ffffffffffffffffffffffffffffffffffffffff841682528260208301525b9392505050565b600060608201905073ffffffffffffffffffffffffffffffffffffffff808616835280851660208401525062ffffff831660408301525b949350505050565b600060408201905073ffffffffffffffffffffffffffffffffffffffff841682528260208301525b9392505050565b600060208201905082151582525b92915050565b600060208201905073ffffffffffffffffffffffffffffffffffffffff831682525b92915050565b600060208201905073ffffffffffffffffffffffffffffffffffffffff831682525b92915050565b600060408201905073ffffffffffffffffffffffffffffffffffffffff80851683528084166020840152505b9392505050565b600060c08201905073ffffffffffffffffffffffffffffffffffffffff881682528660020b60208301528560020b60408301528460020b60608301526fffffffffffffffffffffffffffffffff8416608083015263ffffffff831660a08301525b979650505050505050565b600060408201905073ffffffffffffffffffffffffffffffffffffffff841682526fffffffffffffffffffffffffffffffff831660208301525b9392505050565b600060408201905073ffffffffffffffffffffffffffffffffffffffff8416825263ffffffff831660208301525b9392505050565b600060408201905073ffffffffffffffffffffffffffffffffffffffff8416825267ffffffffffffffff831660208301525b9392505050565b60006060820190508460020b82528360020b60208301526fffffffffffffffffffffffffffffffff831660408301525b949350505050565b600060208252601160208301527f50726f746f636f6c2073687574646f776e00000000000000000000000000000060408301526060820190505b919050565b600060208252601660208301527f4c6971756964697479206e6f7420696e2072616e67650000000000000000000060408301526060820190505b919050565b600060208252600c60208301527f556e6b6e6f776e20706f6f6c000000000000000000000000000000000000000060408301526060820190505b919050565b600060208252601c60208301527f4d617820706572696f642077697468647261772065786365656465640000000060408301526060820190505b919050565b600060208252601260208301527f416c72656164792072656769737465726564000000000000000000000000000060408301526060820190505b919050565b600060208252600e60208301527f4e6f7420417574686f72697a656400000000000000000000000000000000000060408301526060820190505b919050565b600060208252600d60208301527f4c50205265656e7472616e63790000000000000000000000000000000000000060408301526060820190505b919050565b600060208252601460208301527f496e63656e7469766520746f74616c206973203000000000000000000000000060408301526060820190505b919050565b600060208252601260208301527f506f736974696f6e20746f6f20736d616c6c000000000000000000000000000060408301526060820190505b919050565b600060208252600b60208301527f506f6f6c2065786973747300000000000000000000000000000000000000000060408301526060820190505b919050565b600060208252600e60208301527f496e76616c696420706f6f6c494400000000000000000000000000000000000060408301526060820190505b919050565b600060208252601360208301527f436f6e74726163742069732073746f707065640000000000000000000000000060408301526060820190505b919050565b600060208252601260208301527f4e6f20666c617368206c6971756964697479000000000000000000000000000060408301526060820190505b919050565b600060208252600760208301527f496e76616c69640000000000000000000000000000000000000000000000000060408301526060820190505b919050565b60006080820190508251825273ffffffffffffffffffffffffffffffffffffffff602084015116602083015260408301516fffffffffffffffffffffffffffffffff808216604085015280606086015116606085015250505b92915050565b600060a082019050825182526fffffffffffffffffffffffffffffffff60208401511660208301526040830151604083015260608301516060830152608083015160808301525b92915050565b600060c082019050823582526020830135602083015260408301356040830152606083013560608301526080830135608083015260a083013560a08301525b92915050565b6000610160820190506177e8828451616f51565b60208301516177fa6020840182616f51565b50604083015161780d6040840182616fa0565b5060608301516178206060840182616f6f565b5060808301516178336080840182616f6f565b5060a083015160a083015260c083015160c083015260e083015160e08301526101008084015181840152506101208084015161787182850182616f51565b50506101408084015181840152505b92915050565b60006020820190506fffffffffffffffffffffffffffffffff831682525b92915050565b60006020820190506fffffffffffffffffffffffffffffffff831682525b92915050565b600060208201905061ffff831682525b92915050565b600060608201905061ffff8416825282516020830152602083015160408301525b9392505050565b60006020820190508282525b92915050565b600060408201905083825273ffffffffffffffffffffffffffffffffffffffff831660208301525b9392505050565b60006101a082019050838252617967602083018451616f51565b60208301516179796040840182616f94565b506040830151606083015260608301516080830152608083015160a083015260a08301516179aa60c0840182616f7a565b5060c08301516179bd60e0840182616fbb565b5060e08301516101006179d281850183616f6f565b808501519150506101206179e881850183616f6f565b808501519150506101406179fe81850183616fad565b80850151915050610160617a1481850183616f51565b80850151915050617a29610180840182616fbb565b505b9392505050565b60006040820190508382526fffffffffffffffffffffffffffffffff831660208301525b9392505050565b60006040820190508382528260208301525b9392505050565b600060408201905083825267ffffffffffffffff831660208301525b9392505050565b600060208201905063ffffffff831682525b92915050565b600060208201905063ffffffff831682525b92915050565b600060208201905067ffffffffffffffff831682525b92915050565b600060208201905067ffffffffffffffff831682525b92915050565b600060408201905067ffffffffffffffff8416825277ffffffffffffffffffffffffffffffffffffffffffffffff831660208301525b9392505050565b6000604051905081810181811067ffffffffffffffff82111715617b5e57fe5b80604052505b919050565b73ffffffffffffffffffffffffffffffffffffffff811681141515617b8e5760006000fd5b5b50565b8060020b81141515617ba45760006000fd5b5b50565b6fffffffffffffffffffffffffffffffff811681141515617bc95760006000fd5b5b50565b61ffff811681141515617be05760006000fd5b5b50565b62ffffff811681141515617bf85760006000fd5b5b50565b63ffffffff811681141515617c115760006000fd5b5b50565b67ffffffffffffffff811681141515617c2e5760006000fd5b5b50565bfea2646970667358221220eee1fdc4d547c19b03dba78a4add8f4ae91c5c0e821f8cb48d6aa8b42543c36564736f6c63430007060033",
  "linkReferences": {},
  "deployedLinkReferences": {}
}