{
  "_format": "hh-sol-artifact-1",
  "contractName": "Rewards",
  "sourceName": "contracts/core/logic/Rewards.sol",
  "abi": [
    {
      "anonymous": false,
      "inputs": [
        {
          "indexed": true,
          "internalType": "address",
          "name": "governor",
          "type": "address"
        }
      ],
      "name": "Initialized",
      "type": "event"
    },
    {
      "anonymous": false,
      "inputs": [
        {
          "indexed": true,
          "internalType": "address",
          "name": "sender",
          "type": "address"
        },
        {
          "indexed": true,
          "internalType": "address",
          "name": "pair",
          "type": "address"
        },
        {
          "indexed": false,
          "internalType": "uint256",
          "name": "count",
          "type": "uint256"
        },
        {
          "indexed": false,
          "internalType": "uint64",
          "name": "unlockPeriod",
          "type": "uint64"
        }
      ],
      "name": "PairTokensLocked",
      "type": "event"
    },
    {
      "anonymous": false,
      "inputs": [
        {
          "indexed": true,
          "internalType": "address",
          "name": "sender",
          "type": "address"
        },
        {
          "indexed": true,
          "internalType": "address",
          "name": "pair",
          "type": "address"
        },
        {
          "indexed": false,
          "internalType": "uint256",
          "name": "count",
          "type": "uint256"
        }
      ],
      "name": "PairTokensUnlocked",
      "type": "event"
    },
    {
      "anonymous": false,
      "inputs": [
        {
          "indexed": true,
          "internalType": "string",
          "name": "paramName",
          "type": "string"
        },
        {
          "indexed": false,
          "internalType": "uint256",
          "name": "value",
          "type": "uint256"
        }
      ],
      "name": "ParameterUpdated",
      "type": "event"
    },
    {
      "anonymous": false,
      "inputs": [
        {
          "indexed": true,
          "internalType": "string",
          "name": "paramName",
          "type": "string"
        },
        {
          "indexed": false,
          "internalType": "uint64",
          "name": "value",
          "type": "uint64"
        }
      ],
      "name": "ParameterUpdated64",
      "type": "event"
    },
    {
      "anonymous": false,
      "inputs": [
        {
          "indexed": false,
          "internalType": "uint256",
          "name": "count",
          "type": "uint256"
        },
        {
          "indexed": false,
          "internalType": "uint64",
          "name": "periods",
          "type": "uint64"
        }
      ],
      "name": "RewardsAccrued",
      "type": "event"
    },
    {
      "anonymous": false,
      "inputs": [
        {
          "indexed": true,
          "internalType": "address",
          "name": "account",
          "type": "address"
        },
        {
          "indexed": true,
          "internalType": "address",
          "name": "pair",
          "type": "address"
        },
        {
          "indexed": true,
          "internalType": "uint64",
          "name": "period",
          "type": "uint64"
        },
        {
          "indexed": false,
          "internalType": "uint64",
          "name": "periods",
          "type": "uint64"
        },
        {
          "indexed": false,
          "internalType": "uint256",
          "name": "rewards",
          "type": "uint256"
        }
      ],
      "name": "RewardsDistributed",
      "type": "event"
    },
    {
      "anonymous": false,
      "inputs": [
        {
          "indexed": true,
          "internalType": "address",
          "name": "sender",
          "type": "address"
        },
        {
          "indexed": true,
          "internalType": "address",
          "name": "pair",
          "type": "address"
        },
        {
          "indexed": false,
          "internalType": "uint256",
          "name": "count",
          "type": "uint256"
        }
      ],
      "name": "ShutdownPairTokensUnlocked",
      "type": "event"
    },
    {
      "anonymous": false,
      "inputs": [],
      "name": "Stopped",
      "type": "event"
    },
    {
      "inputs": [],
      "name": "accrueRewards",
      "outputs": [],
      "stateMutability": "nonpayable",
      "type": "function"
    },
    {
      "inputs": [
        {
          "internalType": "contract IUniswapV2Pair",
          "name": "pair",
          "type": "address"
        }
      ],
      "name": "approximateAdditionalPairTokensAllowed",
      "outputs": [
        {
          "internalType": "uint256",
          "name": "",
          "type": "uint256"
        }
      ],
      "stateMutability": "view",
      "type": "function"
    },
    {
      "inputs": [],
      "name": "borrowRewardsPortion",
      "outputs": [
        {
          "internalType": "uint256",
          "name": "portion",
          "type": "uint256"
        }
      ],
      "stateMutability": "view",
      "type": "function"
    },
    {
      "inputs": [],
      "name": "collateralPairRewardsPortion",
      "outputs": [
        {
          "internalType": "uint256",
          "name": "",
          "type": "uint256"
        }
      ],
      "stateMutability": "view",
      "type": "function"
    },
    {
      "inputs": [],
      "name": "completeSetup",
      "outputs": [],
      "stateMutability": "nonpayable",
      "type": "function"
    },
    {
      "inputs": [
        {
          "internalType": "contract IUniswapV2Pair",
          "name": "pair",
          "type": "address"
        }
      ],
      "name": "daysRemainingUntilUnlock",
      "outputs": [
        {
          "internalType": "uint256",
          "name": "daysRemaining",
          "type": "uint256"
        }
      ],
      "stateMutability": "view",
      "type": "function"
    },
    {
      "inputs": [
        {
          "internalType": "uint256",
          "name": "debt",
          "type": "uint256"
        }
      ],
      "name": "ensureMinimumCollateralLiquidity",
      "outputs": [],
      "stateMutability": "nonpayable",
      "type": "function"
    },
    {
      "inputs": [
        {
          "internalType": "uint256",
          "name": "debt",
          "type": "uint256"
        }
      ],
      "name": "ensureMinimumReferenceLiquidity",
      "outputs": [],
      "stateMutability": "nonpayable",
      "type": "function"
    },
    {
      "inputs": [
        {
          "internalType": "contract IUniswapV2Pair",
          "name": "pair",
          "type": "address"
        }
      ],
      "name": "getRewards",
      "outputs": [],
      "stateMutability": "nonpayable",
      "type": "function"
    },
    {
      "inputs": [],
      "name": "governor",
      "outputs": [
        {
          "internalType": "contract IGovernor",
          "name": "",
          "type": "address"
        }
      ],
      "stateMutability": "view",
      "type": "function"
    },
    {
      "inputs": [
        {
          "internalType": "contract IGovernor",
          "name": "governor_",
          "type": "address"
        }
      ],
      "name": "init",
      "outputs": [],
      "stateMutability": "nonpayable",
      "type": "function"
    },
    {
      "inputs": [
        {
          "internalType": "contract IUniswapV2Pair",
          "name": "pair",
          "type": "address"
        },
        {
          "internalType": "uint256",
          "name": "count",
          "type": "uint256"
        }
      ],
      "name": "lockPairTokens",
      "outputs": [],
      "stateMutability": "nonpayable",
      "type": "function"
    },
    {
      "inputs": [],
      "name": "maxCollateralPoolLiquidity",
      "outputs": [
        {
          "internalType": "uint256",
          "name": "",
          "type": "uint256"
        }
      ],
      "stateMutability": "view",
      "type": "function"
    },
    {
      "inputs": [],
      "name": "maxPriceAge",
      "outputs": [
        {
          "internalType": "uint64",
          "name": "",
          "type": "uint64"
        }
      ],
      "stateMutability": "view",
      "type": "function"
    },
    {
      "inputs": [],
      "name": "maxReferencePoolLiquidity",
      "outputs": [
        {
          "internalType": "uint256",
          "name": "",
          "type": "uint256"
        }
      ],
      "stateMutability": "view",
      "type": "function"
    },
    {
      "inputs": [],
      "name": "maxTwapTime",
      "outputs": [
        {
          "internalType": "uint64",
          "name": "",
          "type": "uint64"
        }
      ],
      "stateMutability": "view",
      "type": "function"
    },
    {
      "inputs": [],
      "name": "minCollateralPoolLiquidity",
      "outputs": [
        {
          "internalType": "uint256",
          "name": "",
          "type": "uint256"
        }
      ],
      "stateMutability": "view",
      "type": "function"
    },
    {
      "inputs": [],
      "name": "minReferencePoolLiquidity",
      "outputs": [
        {
          "internalType": "uint256",
          "name": "",
          "type": "uint256"
        }
      ],
      "stateMutability": "view",
      "type": "function"
    },
    {
      "inputs": [],
      "name": "periodLength",
      "outputs": [
        {
          "internalType": "uint64",
          "name": "",
          "type": "uint64"
        }
      ],
      "stateMutability": "view",
      "type": "function"
    },
    {
      "inputs": [],
      "name": "protocolInitialized",
      "outputs": [],
      "stateMutability": "nonpayable",
      "type": "function"
    },
    {
      "inputs": [],
      "name": "referencePairRewardsPortion",
      "outputs": [
        {
          "internalType": "uint256",
          "name": "",
          "type": "uint256"
        }
      ],
      "stateMutability": "view",
      "type": "function"
    },
    {
      "inputs": [],
      "name": "referenceRewardsOffPegSensitivity",
      "outputs": [
        {
          "internalType": "uint256",
          "name": "",
          "type": "uint256"
        }
      ],
      "stateMutability": "view",
      "type": "function"
    },
    {
      "inputs": [
        {
          "internalType": "uint256",
          "name": "portion",
          "type": "uint256"
        }
      ],
      "name": "setCollateralPairRewardsPortion",
      "outputs": [],
      "stateMutability": "nonpayable",
      "type": "function"
    },
    {
      "inputs": [
        {
          "internalType": "uint256",
          "name": "max",
          "type": "uint256"
        }
      ],
      "name": "setMaxCollateralPoolLiquidity",
      "outputs": [],
      "stateMutability": "nonpayable",
      "type": "function"
    },
    {
      "inputs": [
        {
          "internalType": "uint64",
          "name": "age",
          "type": "uint64"
        }
      ],
      "name": "setMaxPriceAge",
      "outputs": [],
      "stateMutability": "nonpayable",
      "type": "function"
    },
    {
      "inputs": [
        {
          "internalType": "uint64",
          "name": "time",
          "type": "uint64"
        }
      ],
      "name": "setMaxTwapTime",
      "outputs": [],
      "stateMutability": "nonpayable",
      "type": "function"
    },
    {
      "inputs": [
        {
          "internalType": "uint256",
          "name": "min",
          "type": "uint256"
        }
      ],
      "name": "setMinCollateralPoolLiquidity",
      "outputs": [],
      "stateMutability": "nonpayable",
      "type": "function"
    },
    {
      "inputs": [
        {
          "internalType": "uint64",
          "name": "periods",
          "type": "uint64"
        }
      ],
      "name": "setPeriodsLocked",
      "outputs": [],
      "stateMutability": "nonpayable",
      "type": "function"
    },
    {
      "inputs": [
        {
          "internalType": "uint256",
          "name": "max",
          "type": "uint256"
        }
      ],
      "name": "setmaxReferencePoolLiquidity",
      "outputs": [],
      "stateMutability": "nonpayable",
      "type": "function"
    },
    {
      "inputs": [
        {
          "internalType": "uint256",
          "name": "min",
          "type": "uint256"
        }
      ],
      "name": "setminReferencePoolLiquidity",
      "outputs": [],
      "stateMutability": "nonpayable",
      "type": "function"
    },
    {
      "inputs": [
        {
          "internalType": "uint256",
          "name": "portion",
          "type": "uint256"
        }
      ],
      "name": "setreferencePairRewardsPortion",
      "outputs": [],
      "stateMutability": "nonpayable",
      "type": "function"
    },
    {
      "inputs": [
        {
          "internalType": "uint256",
          "name": "sensitivity",
          "type": "uint256"
        }
      ],
      "name": "setreferenceRewardsOffPegSensitivity",
      "outputs": [],
      "stateMutability": "nonpayable",
      "type": "function"
    },
    {
      "inputs": [],
      "name": "stop",
      "outputs": [],
      "stateMutability": "nonpayable",
      "type": "function"
    },
    {
      "inputs": [
        {
          "internalType": "contract IUniswapV2Pair",
          "name": "pair",
          "type": "address"
        },
        {
          "internalType": "uint256",
          "name": "count",
          "type": "uint256"
        }
      ],
      "name": "unlockPairTokens",
      "outputs": [],
      "stateMutability": "nonpayable",
      "type": "function"
    },
    {
      "inputs": [
        {
          "internalType": "contract IUniswapV2Pair",
          "name": "pair",
          "type": "address"
        }
      ],
      "name": "unlockTokensAfterShutdown",
      "outputs": [],
      "stateMutability": "nonpayable",
      "type": "function"
    }
  ],
  "bytecode": "0x60c0604052603c600760006101000a81548167ffffffffffffffff021916908367ffffffffffffffff160217905550668e1bc9bf0400006008556702386f26fc10000060095566470de4df820000600a5567011c37937e080000600b55670429d069189e0000600c5567058d15e176280000600d556706f05b59d3b20000600e5562015180600f60006101000a81548167ffffffffffffffff021916908367ffffffffffffffff160217905550615460600f60086101000a81548167ffffffffffffffff021916908367ffffffffffffffff160217905550348015620000e457600080fd5b506201518033600560006101000a81548173ffffffffffffffffffffffffffffffffffffffff021916908373ffffffffffffffffffffffffffffffffffffffff16021790555060016006819055508067ffffffffffffffff1660011080156200015a57506301e285008167ffffffffffffffff16105b620001cd576040517f08c379a000000000000000000000000000000000000000000000000000000000815260040180806020018281038252601c8152602001807f54696d653a20496e76616c696420706572696f64206c656e6774682e0000000081525060200191505060405180910390fd5b60018167ffffffffffffffff16620001ea6200024260201b60201c565b67ffffffffffffffff1681620001fc57fe5b040367ffffffffffffffff1660a08167ffffffffffffffff1660c01b815250508067ffffffffffffffff1660808167ffffffffffffffff1660c01b8152505050620002cc565b60006200025a426200025f60201b62003ea61760201c565b905090565b6000680100000000000000008210620002c4576040517f08c379a00000000000000000000000000000000000000000000000000000000081526004018080602001828103825260268152602001806200790d6026913960400191505060405180910390fd5b819050919050565b60805160c01c60a05160c01c6175fe6200030f60003980614aaa5280615c2d5280615d7152508061363e5280614acb5280615c665280615d9252506175fe6000f3fe608060405234801561001057600080fd5b50600436106102415760003560e01c806379ee54f711610145578063bccfa49e116100bd578063ebee21451161008c578063ed17507111610071578063ed175071146105b8578063f567a8e4146105d6578063fcd65945146105f457610241565b8063ebee214514610580578063ec576b0e1461059c57610241565b8063bccfa49e1461050c578063d2ca211514610528578063dd9732fe14610546578063e92b26ae1461056457610241565b8063982dca4411610114578063b7bbba85116100f9578063b7bbba85146104b8578063b8560f1b146104d4578063b8b8865b146104f057610241565b8063982dca4414610480578063b32d21161461049c57610241565b806379ee54f71461041e578063895ffd8f1461043a5780638aea8f7114610458578063963258191461046257610241565b80632dd0fc14116101d8578063588cebac116101a75780636450f09e1161018c5780636450f09e146103c8578063679ddc47146103e45780637678293b1461041457610241565b8063588cebac1461039057806360258ba0146103ac57610241565b80632dd0fc141461030c5780632fab26e314610328578063316dc604146103585780633840ffe31461037457610241565b806319ab453c1161021457806319ab453c146102aa5780631afdbce4146102c657806321e1dc5a146102d057806329b426aa146102ee57610241565b806307da68f5146102465780630a86f109146102505780630c340a241461026e5780631584410a1461028c575b600080fd5b61024e610612565b005b6102586106dd565b604051610265919061716e565b60405180910390f35b610276610715565b6040516102839190616fce565b60405180910390f35b610294610739565b6040516102a191906171b2565b60405180910390f35b6102c460048036038101906102bf9190616551565b610753565b005b6102ce610c4d565b005b6102d8610f5e565b6040516102e5919061716e565b60405180910390f35b6102f6610f64565b60405161030391906171b2565b60405180910390f35b610326600480360381019061032191906166d2565b610f7e565b005b610342600480360381019061033d91906165cc565b6110a4565b60405161034f919061716e565b60405180910390f35b610372600480360381019061036d919061661e565b6111c5565b005b61038e60048036038101906103899190616760565b6119fb565b005b6103aa60048036038101906103a591906166d2565b611b33565b005b6103c660048036038101906103c1919061661e565b611c73565b005b6103e260048036038101906103dd91906166d2565b61232f565b005b6103fe60048036038101906103f991906165cc565b612455565b60405161040b919061716e565b60405180910390f35b61041c612632565b005b610438600480360381019061043391906165cc565b61264f565b005b610442612b36565b60405161044f919061716e565b60405180910390f35b610460612b3c565b005b61046a612eef565b604051610477919061716e565b60405180910390f35b61049a600480360381019061049591906166d2565b612ef5565b005b6104b660048036038101906104b19190616760565b613040565b005b6104d260048036038101906104cd9190616760565b613178565b005b6104ee60048036038101906104e991906166d2565b6132b0565b005b61050a600480360381019061050591906166d2565b6133f0565b005b610526600480360381019061052191906166d2565b613516565b005b61053061363c565b60405161053d91906171b2565b60405180910390f35b61054e613660565b60405161055b919061716e565b60405180910390f35b61057e600480360381019061057991906166d2565b613666565b005b61059a600480360381019061059591906165cc565b613772565b005b6105b660048036038101906105b191906166d2565b613d67565b005b6105c0613e94565b6040516105cd919061716e565b60405180910390f35b6105de613e9a565b6040516105eb919061716e565b60405180910390f35b6105fc613ea0565b604051610609919061716e565b60405180910390f35b60008054906101000a900473ffffffffffffffffffffffffffffffffffffffff1673ffffffffffffffffffffffffffffffffffffffff163373ffffffffffffffffffffffffffffffffffffffff16146106d3576040517f08c379a00000000000000000000000000000000000000000000000000000000081526004018080602001828103825260198152602001807f476f7665726e65643a204e6f7420417574686f72697a65642e0000000000000081525060200191505060405180910390fd5b6106db613f11565b565b60006107106106f9600d54600c54613f5a90919063ffffffff16565b670de0b6b3a7640000613fe290919063ffffffff16565b905090565b60008054906101000a900473ffffffffffffffffffffffffffffffffffffffff1681565b600f60089054906101000a900467ffffffffffffffff1681565b600560009054906101000a900473ffffffffffffffffffffffffffffffffffffffff1673ffffffffffffffffffffffffffffffffffffffff163373ffffffffffffffffffffffffffffffffffffffff1614610816576040517f08c379a000000000000000000000000000000000000000000000000000000000815260040180806020018281038252601e8152602001807f476f7665726e65643a20496e6974206e6f7420617574686f72697a65642e000081525060200191505060405180910390fd5b600560006101000a81549073ffffffffffffffffffffffffffffffffffffffff02191690558073ffffffffffffffffffffffffffffffffffffffff167f908408e307fc569b417f6cbec5d5a06f44a0a505ac0479b47d421a4b2fd6a1e660405160405180910390a2806000806101000a81548173ffffffffffffffffffffffffffffffffffffffff021916908373ffffffffffffffffffffffffffffffffffffffff16021790555060008054906101000a900473ffffffffffffffffffffffffffffffffffffffff1673ffffffffffffffffffffffffffffffffffffffff16639624e83e6040518163ffffffff1660e01b815260040160206040518083038186803b15801561092457600080fd5b505afa158015610938573d6000803e3d6000fd5b505050506040513d602081101561094e57600080fd5b8101908080519060200190929190505050600160006101000a81548173ffffffffffffffffffffffffffffffffffffffff021916908373ffffffffffffffffffffffffffffffffffffffff16021790555060008054906101000a900473ffffffffffffffffffffffffffffffffffffffff1673ffffffffffffffffffffffffffffffffffffffff166311df99956040518163ffffffff1660e01b815260040160206040518083038186803b158015610a0557600080fd5b505afa158015610a19573d6000803e3d6000fd5b505050506040513d6020811015610a2f57600080fd5b8101908080519060200190929190505050600260006101000a81548173ffffffffffffffffffffffffffffffffffffffff021916908373ffffffffffffffffffffffffffffffffffffffff16021790555060008054906101000a900473ffffffffffffffffffffffffffffffffffffffff1673ffffffffffffffffffffffffffffffffffffffff1663d478b0876040518163ffffffff1660e01b815260040160206040518083038186803b158015610ae657600080fd5b505afa158015610afa573d6000803e3d6000fd5b505050506040513d6020811015610b1057600080fd5b8101908080519060200190929190505050600360006101000a81548173ffffffffffffffffffffffffffffffffffffffff021916908373ffffffffffffffffffffffffffffffffffffffff16021790555060008054906101000a900473ffffffffffffffffffffffffffffffffffffffff1673ffffffffffffffffffffffffffffffffffffffff16633fc8cef36040518163ffffffff1660e01b815260040160206040518083038186803b158015610bc757600080fd5b505afa158015610bdb573d6000803e3d6000fd5b505050506040513d6020811015610bf157600080fd5b8101908080519060200190929190505050600460006101000a81548173ffffffffffffffffffffffffffffffffffffffff021916908373ffffffffffffffffffffffffffffffffffffffff160217905550610c4a61402c565b50565b600360009054906101000a900473ffffffffffffffffffffffffffffffffffffffff1673ffffffffffffffffffffffffffffffffffffffff1663e97dcb626040518163ffffffff1660e01b8152600401600060405180830381600087803b158015610cb757600080fd5b505af1158015610ccb573d6000803e3d6000fd5b5050505060026006541415610d48576040517f08c379a000000000000000000000000000000000000000000000000000000000815260040180806020018281038252601d8152602001807f4c6f636b50726f746f636f6c3a207265656e7472616e742063616c6c2e00000081525060200191505060405180910390fd5b6002600681905550600460149054906101000a900460ff1615610dd3576040517f08c379a000000000000000000000000000000000000000000000000000000000815260040180806020018281038252601e8152602001807f476f7665726e65643a20436f6e74726163742069732073746f707065642e000081525060200191505060405180910390fd5b60008054906101000a900473ffffffffffffffffffffffffffffffffffffffff1673ffffffffffffffffffffffffffffffffffffffff1663bf86d6906040518163ffffffff1660e01b815260040160206040518083038186803b158015610e3957600080fd5b505afa158015610e4d573d6000803e3d6000fd5b505050506040513d6020811015610e6357600080fd5b810190808051906020019092919050505015610eca576040517f08c379a00000000000000000000000000000000000000000000000000000000081526004018080602001828103825260288152602001806175336028913960400191505060405180910390fd5b610ed2614169565b6001600681905550600360009054906101000a900473ffffffffffffffffffffffffffffffffffffffff1673ffffffffffffffffffffffffffffffffffffffff1663e9fad8ee6040518163ffffffff1660e01b8152600401600060405180830381600087803b158015610f4457600080fd5b505af1158015610f58573d6000803e3d6000fd5b50505050565b600d5481565b600f60009054906101000a900467ffffffffffffffff1681565b60008054906101000a900473ffffffffffffffffffffffffffffffffffffffff1673ffffffffffffffffffffffffffffffffffffffff163373ffffffffffffffffffffffffffffffffffffffff161461103f576040517f08c379a00000000000000000000000000000000000000000000000000000000081526004018080602001828103825260198152602001807f476f7665726e65643a204e6f7420417574686f72697a65642e0000000000000081525060200191505060405180910390fd5b80600b81905550600b54600a541061105657600080fd5b60405161106290616e91565b60405180910390207f3a64504f0bc0c335e2aecb78638a257e0351a3fe0370861fd54ee4190b92093382604051611099919061716e565b60405180910390a250565b600081601460008273ffffffffffffffffffffffffffffffffffffffff1673ffffffffffffffffffffffffffffffffffffffff16815260200190815260200160002060009054906101000a900460ff16611133576040517f08c379a000000000000000000000000000000000000000000000000000000000815260040161112a9061704e565b60405180910390fd5b6111bd83601160008673ffffffffffffffffffffffffffffffffffffffff1673ffffffffffffffffffffffffffffffffffffffff16815260200190815260200160002060000160009054906101000a900477ffffffffffffffffffffffffffffffffffffffffffffffff1677ffffffffffffffffffffffffffffffffffffffffffffffff16614302565b915050919050565b600360009054906101000a900473ffffffffffffffffffffffffffffffffffffffff1673ffffffffffffffffffffffffffffffffffffffff1663e97dcb626040518163ffffffff1660e01b8152600401600060405180830381600087803b15801561122f57600080fd5b505af1158015611243573d6000803e3d6000fd5b50505050600260065414156112c0576040517f08c379a000000000000000000000000000000000000000000000000000000000815260040180806020018281038252601d8152602001807f4c6f636b50726f746f636f6c3a207265656e7472616e742063616c6c2e00000081525060200191505060405180910390fd5b6002600681905550600460149054906101000a900460ff161561134b576040517f08c379a000000000000000000000000000000000000000000000000000000000815260040180806020018281038252601e8152602001807f476f7665726e65643a20436f6e74726163742069732073746f707065642e000081525060200191505060405180910390fd5b60008054906101000a900473ffffffffffffffffffffffffffffffffffffffff1673ffffffffffffffffffffffffffffffffffffffff1663bf86d6906040518163ffffffff1660e01b815260040160206040518083038186803b1580156113b157600080fd5b505afa1580156113c5573d6000803e3d6000fd5b505050506040513d60208110156113db57600080fd5b810190808051906020019092919050505015611442576040517f08c379a00000000000000000000000000000000000000000000000000000000081526004018080602001828103825260288152602001806175336028913960400191505060405180910390fd5b81601460008273ffffffffffffffffffffffffffffffffffffffff1673ffffffffffffffffffffffffffffffffffffffff16815260200190815260200160002060009054906101000a900460ff166114cf576040517f08c379a00000000000000000000000000000000000000000000000000000000081526004016114c69061704e565b60405180910390fd5b6000821415611513576040517f08c379a000000000000000000000000000000000000000000000000000000000815260040161150a9061712e565b60405180910390fd5b6000601560149054906101000a900460ff16156115415761153c84611537866145ad565b614302565b611563565b7fffffffffffffffffffffffffffffffffffffffffffffffffffffffffffffffff5b9050808311156115a8576040517f08c379a000000000000000000000000000000000000000000000000000000000815260040161159f9061702e565b60405180910390fd5b6115b06161b8565b600160009054906101000a900473ffffffffffffffffffffffffffffffffffffffff1673ffffffffffffffffffffffffffffffffffffffff16634d83e74733876040518363ffffffff1660e01b815260040161160d929190616f37565b60a06040518083038186803b15801561162557600080fd5b505afa158015611639573d6000803e3d6000fd5b505050506040513d601f19601f8201168201806040525081019061165d919061665a565b9050600061169b600760009054906101000a900467ffffffffffffffff16611683614aa6565b67ffffffffffffffff16614b1490919063ffffffff16565b90506116a5614169565b6116b0338784614bb0565b91506000826020015114156116ee5780826080019067ffffffffffffffff16908167ffffffffffffffff1681525050848260200181815250506117b3565b6000611715836080015167ffffffffffffffff168460200151614de590919063ffffffff16565b905060006117368367ffffffffffffffff1688614de590919063ffffffff16565b90506000611751888660200151613f5a90919063ffffffff16565b9050600061177a8261176c8587613f5a90919063ffffffff16565b614e6b90919063ffffffff16565b905061178581613ea6565b866080019067ffffffffffffffff16908167ffffffffffffffff168152505081866020018181525050505050505b600160009054906101000a900473ffffffffffffffffffffffffffffffffffffffff1673ffffffffffffffffffffffffffffffffffffffff1663827b78ba3388856040518463ffffffff1660e01b815260040161181293929190616f60565b600060405180830381600087803b15801561182c57600080fd5b505af1158015611840573d6000803e3d6000fd5b505050508573ffffffffffffffffffffffffffffffffffffffff166323b872dd33600160009054906101000a900473ffffffffffffffffffffffffffffffffffffffff16886040518463ffffffff1660e01b81526004016118a393929190616f00565b602060405180830381600087803b1580156118bd57600080fd5b505af11580156118d1573d6000803e3d6000fd5b505050506040513d601f19601f820116820180604052508101906118f591906164ff565b6118fe57600080fd5b8573ffffffffffffffffffffffffffffffffffffffff163373ffffffffffffffffffffffffffffffffffffffff167f5d7652ff5a000c06e0b511633aed7460b519d5c1a597423a7f88c3e367ac5899878560800151604051611961929190617189565b60405180910390a3505050506001600681905550600360009054906101000a900473ffffffffffffffffffffffffffffffffffffffff1673ffffffffffffffffffffffffffffffffffffffff1663e9fad8ee6040518163ffffffff1660e01b8152600401600060405180830381600087803b1580156119df57600080fd5b505af11580156119f3573d6000803e3d6000fd5b505050505050565b60008054906101000a900473ffffffffffffffffffffffffffffffffffffffff1673ffffffffffffffffffffffffffffffffffffffff163373ffffffffffffffffffffffffffffffffffffffff1614611abc576040517f08c379a00000000000000000000000000000000000000000000000000000000081526004018080602001828103825260198152602001807f476f7665726e65643a204e6f7420417574686f72697a65642e0000000000000081525060200191505060405180910390fd5b80600f60006101000a81548167ffffffffffffffff021916908367ffffffffffffffff160217905550604051611af190616e28565b60405180910390207f6293347933ad2997134e224ac8cd2e39908a4a22aeed9af52127b4bbf765297882604051611b2891906171b2565b60405180910390a250565b60008054906101000a900473ffffffffffffffffffffffffffffffffffffffff1673ffffffffffffffffffffffffffffffffffffffff163373ffffffffffffffffffffffffffffffffffffffff1614611bf4576040517f08c379a00000000000000000000000000000000000000000000000000000000081526004018080602001828103825260198152602001807f476f7665726e65643a204e6f7420417574686f72697a65642e0000000000000081525060200191505060405180910390fd5b80600d81905550670de0b6b3a7640000611c1b600d54600c54613f5a90919063ffffffff16565b10611c2557600080fd5b604051611c3190616e7c565b60405180910390207f3a64504f0bc0c335e2aecb78638a257e0351a3fe0370861fd54ee4190b92093382604051611c68919061716e565b60405180910390a250565b600360009054906101000a900473ffffffffffffffffffffffffffffffffffffffff1673ffffffffffffffffffffffffffffffffffffffff1663e97dcb626040518163ffffffff1660e01b8152600401600060405180830381600087803b158015611cdd57600080fd5b505af1158015611cf1573d6000803e3d6000fd5b5050505060026006541415611d6e576040517f08c379a000000000000000000000000000000000000000000000000000000000815260040180806020018281038252601d8152602001807f4c6f636b50726f746f636f6c3a207265656e7472616e742063616c6c2e00000081525060200191505060405180910390fd5b6002600681905550600460149054906101000a900460ff1615611df9576040517f08c379a000000000000000000000000000000000000000000000000000000000815260040180806020018281038252601e8152602001807f476f7665726e65643a20436f6e74726163742069732073746f707065642e000081525060200191505060405180910390fd5b60008054906101000a900473ffffffffffffffffffffffffffffffffffffffff1673ffffffffffffffffffffffffffffffffffffffff1663bf86d6906040518163ffffffff1660e01b815260040160206040518083038186803b158015611e5f57600080fd5b505afa158015611e73573d6000803e3d6000fd5b505050506040513d6020811015611e8957600080fd5b810190808051906020019092919050505015611ef0576040517f08c379a00000000000000000000000000000000000000000000000000000000081526004018080602001828103825260288152602001806175336028913960400191505060405180910390fd5b81601460008273ffffffffffffffffffffffffffffffffffffffff1673ffffffffffffffffffffffffffffffffffffffff16815260200190815260200160002060009054906101000a900460ff16611f7d576040517f08c379a0000000000000000000000000000000000000000000000000000000008152600401611f749061704e565b60405180910390fd5b6000821415611fc1576040517f08c379a0000000000000000000000000000000000000000000000000000000008152600401611fb89061712e565b60405180910390fd5b611fc96161b8565b600160009054906101000a900473ffffffffffffffffffffffffffffffffffffffff1673ffffffffffffffffffffffffffffffffffffffff16634d83e74733866040518363ffffffff1660e01b8152600401612026929190616f37565b60a06040518083038186803b15801561203e57600080fd5b505afa158015612052573d6000803e3d6000fd5b505050506040513d601f19601f82011682018060405250810190612076919061665a565b9050612080614aa6565b67ffffffffffffffff16816080015167ffffffffffffffff1611156120da576040517f08c379a00000000000000000000000000000000000000000000000000000000081526004016120d19061714e565b60405180910390fd5b6120e2614169565b6120ed338583614bb0565b9050612106816020015184614eb590919063ffffffff16565b925082816020018181510391508181525050600160009054906101000a900473ffffffffffffffffffffffffffffffffffffffff1673ffffffffffffffffffffffffffffffffffffffff1663827b78ba3386846040518463ffffffff1660e01b815260040161217793929190616f60565b600060405180830381600087803b15801561219157600080fd5b505af11580156121a5573d6000803e3d6000fd5b50505050600160009054906101000a900473ffffffffffffffffffffffffffffffffffffffff1673ffffffffffffffffffffffffffffffffffffffff16633ef736c53386866040518463ffffffff1660e01b815260040161220893929190616f97565b600060405180830381600087803b15801561222257600080fd5b505af1158015612236573d6000803e3d6000fd5b505050508373ffffffffffffffffffffffffffffffffffffffff163373ffffffffffffffffffffffffffffffffffffffff167f5ea4d2e6dba4080eb624d4c1278c8c3f91ab7c7ab380dd8023331dfaeba8990f85604051612297919061716e565b60405180910390a350506001600681905550600360009054906101000a900473ffffffffffffffffffffffffffffffffffffffff1673ffffffffffffffffffffffffffffffffffffffff1663e9fad8ee6040518163ffffffff1660e01b8152600401600060405180830381600087803b15801561231357600080fd5b505af1158015612327573d6000803e3d6000fd5b505050505050565b60008054906101000a900473ffffffffffffffffffffffffffffffffffffffff1673ffffffffffffffffffffffffffffffffffffffff163373ffffffffffffffffffffffffffffffffffffffff16146123f0576040517f08c379a00000000000000000000000000000000000000000000000000000000081526004018080602001828103825260198152602001807f476f7665726e65643a204e6f7420417574686f72697a65642e0000000000000081525060200191505060405180910390fd5b806009819055506009546008541061240757600080fd5b60405161241390616ebb565b60405180910390207f3a64504f0bc0c335e2aecb78638a257e0351a3fe0370861fd54ee4190b9209338260405161244a919061716e565b60405180910390a250565b600081601460008273ffffffffffffffffffffffffffffffffffffffff1673ffffffffffffffffffffffffffffffffffffffff16815260200190815260200160002060009054906101000a900460ff166124e4576040517f08c379a00000000000000000000000000000000000000000000000000000000081526004016124db9061704e565b60405180910390fd5b6124ec6161b8565b600160009054906101000a900473ffffffffffffffffffffffffffffffffffffffff1673ffffffffffffffffffffffffffffffffffffffff16634d83e74733866040518363ffffffff1660e01b8152600401612549929190616f37565b60a06040518083038186803b15801561256157600080fd5b505afa158015612575573d6000803e3d6000fd5b505050506040513d601f19601f82011682018060405250810190612599919061665a565b90506000816020015114156125e3576040517f08c379a00000000000000000000000000000000000000000000000000000000081526004016125da9061710e565b60405180910390fd5b60006125ed614aa6565b90508067ffffffffffffffff16826080015167ffffffffffffffff16111561261b578082608001510361261e565b60005b67ffffffffffffffff169350505050919050565b6001601560146101000a81548160ff021916908315150217905550565b600360009054906101000a900473ffffffffffffffffffffffffffffffffffffffff1673ffffffffffffffffffffffffffffffffffffffff1663e97dcb626040518163ffffffff1660e01b8152600401600060405180830381600087803b1580156126b957600080fd5b505af11580156126cd573d6000803e3d6000fd5b505050506002600654141561274a576040517f08c379a000000000000000000000000000000000000000000000000000000000815260040180806020018281038252601d8152602001807f4c6f636b50726f746f636f6c3a207265656e7472616e742063616c6c2e00000081525060200191505060405180910390fd5b6002600681905550600460149054906101000a900460ff16156127d5576040517f08c379a000000000000000000000000000000000000000000000000000000000815260040180806020018281038252601e8152602001807f476f7665726e65643a20436f6e74726163742069732073746f707065642e000081525060200191505060405180910390fd5b60008054906101000a900473ffffffffffffffffffffffffffffffffffffffff1673ffffffffffffffffffffffffffffffffffffffff1663bf86d6906040518163ffffffff1660e01b815260040160206040518083038186803b15801561283b57600080fd5b505afa15801561284f573d6000803e3d6000fd5b505050506040513d602081101561286557600080fd5b8101908080519060200190929190505050156128cc576040517f08c379a00000000000000000000000000000000000000000000000000000000081526004018080602001828103825260288152602001806175336028913960400191505060405180910390fd5b80601460008273ffffffffffffffffffffffffffffffffffffffff1673ffffffffffffffffffffffffffffffffffffffff16815260200190815260200160002060009054906101000a900460ff16612959576040517f08c379a00000000000000000000000000000000000000000000000000000000081526004016129509061704e565b60405180910390fd5b612961614169565b600160009054906101000a900473ffffffffffffffffffffffffffffffffffffffff1673ffffffffffffffffffffffffffffffffffffffff1663827b78ba3384612a583387600160009054906101000a900473ffffffffffffffffffffffffffffffffffffffff1673ffffffffffffffffffffffffffffffffffffffff16634d83e747338b6040518363ffffffff1660e01b8152600401612a03929190616f37565b60a06040518083038186803b158015612a1b57600080fd5b505afa158015612a2f573d6000803e3d6000fd5b505050506040513d601f19601f82011682018060405250810190612a53919061665a565b614bb0565b6040518463ffffffff1660e01b8152600401612a7693929190616f60565b600060405180830381600087803b158015612a9057600080fd5b505af1158015612aa4573d6000803e3d6000fd5b50505050506001600681905550600360009054906101000a900473ffffffffffffffffffffffffffffffffffffffff1673ffffffffffffffffffffffffffffffffffffffff1663e9fad8ee6040518163ffffffff1660e01b8152600401600060405180830381600087803b158015612b1b57600080fd5b505af1158015612b2f573d6000803e3d6000fd5b5050505050565b600c5481565b60008054906101000a900473ffffffffffffffffffffffffffffffffffffffff1673ffffffffffffffffffffffffffffffffffffffff163373ffffffffffffffffffffffffffffffffffffffff1614612bfd576040517f08c379a00000000000000000000000000000000000000000000000000000000081526004018080602001828103825260198152602001807f476f7665726e65643a204e6f7420417574686f72697a65642e0000000000000081525060200191505060405180910390fd5b60158054906101000a900460ff1615612c1557600080fd5b60016015806101000a81548160ff02191690831515021790555060008054906101000a900473ffffffffffffffffffffffffffffffffffffffff1673ffffffffffffffffffffffffffffffffffffffff16637429d7dd6040518163ffffffff1660e01b815260040160206040518083038186803b158015612c9557600080fd5b505afa158015612ca9573d6000803e3d6000fd5b505050506040513d601f19601f82011682018060405250810190612ccd91906165f5565b601260006101000a81548173ffffffffffffffffffffffffffffffffffffffff021916908373ffffffffffffffffffffffffffffffffffffffff160217905550600160146000601260009054906101000a900473ffffffffffffffffffffffffffffffffffffffff1673ffffffffffffffffffffffffffffffffffffffff1673ffffffffffffffffffffffffffffffffffffffff16815260200190815260200160002060006101000a81548160ff02191690831515021790555060008054906101000a900473ffffffffffffffffffffffffffffffffffffffff1673ffffffffffffffffffffffffffffffffffffffff16635a50aaf26040518163ffffffff1660e01b815260040160006040518083038186803b158015612ded57600080fd5b505afa158015612e01573d6000803e3d6000fd5b505050506040513d6000823e3d601f19601f82011682018060405250810190612e2a91906164be565b60139080519060200190612e3f9291906161fb565b5060005b601380549050811015612eec5760016014600060138481548110612e6357fe5b9060005260206000200160009054906101000a900473ffffffffffffffffffffffffffffffffffffffff1673ffffffffffffffffffffffffffffffffffffffff1673ffffffffffffffffffffffffffffffffffffffff16815260200190815260200160002060006101000a81548160ff0219169083151502179055508080600101915050612e43565b50565b60095481565b60026006541415612f6e576040517f08c379a000000000000000000000000000000000000000000000000000000000815260040180806020018281038252601d8152602001807f4c6f636b436f6e74726163743a207265656e7472616e742063616c6c2e00000081525060200191505060405180910390fd5b60026006819055506000612f8d600a5483614ece90919063ffffffff16565b905060005b6013805490508160ff1610156130335781612fe660138360ff1681548110612fb657fe5b9060005260206000200160009054906101000a900473ffffffffffffffffffffffffffffffffffffffff16614f6d565b11613026576040517f08c379a000000000000000000000000000000000000000000000000000000000815260040161301d906170ee565b60405180910390fd5b8080600101915050612f92565b5050600160068190555050565b60008054906101000a900473ffffffffffffffffffffffffffffffffffffffff1673ffffffffffffffffffffffffffffffffffffffff163373ffffffffffffffffffffffffffffffffffffffff1614613101576040517f08c379a00000000000000000000000000000000000000000000000000000000081526004018080602001828103825260198152602001807f476f7665726e65643a204e6f7420417574686f72697a65642e0000000000000081525060200191505060405180910390fd5b80600760006101000a81548167ffffffffffffffff021916908367ffffffffffffffff16021790555060405161313690616ea6565b60405180910390207f6293347933ad2997134e224ac8cd2e39908a4a22aeed9af52127b4bbf76529788260405161316d91906171b2565b60405180910390a250565b60008054906101000a900473ffffffffffffffffffffffffffffffffffffffff1673ffffffffffffffffffffffffffffffffffffffff163373ffffffffffffffffffffffffffffffffffffffff1614613239576040517f08c379a00000000000000000000000000000000000000000000000000000000081526004018080602001828103825260198152602001807f476f7665726e65643a204e6f7420417574686f72697a65642e0000000000000081525060200191505060405180910390fd5b80600f60086101000a81548167ffffffffffffffff021916908367ffffffffffffffff16021790555060405161326e90616e52565b60405180910390207f6293347933ad2997134e224ac8cd2e39908a4a22aeed9af52127b4bbf7652978826040516132a591906171b2565b60405180910390a250565b60008054906101000a900473ffffffffffffffffffffffffffffffffffffffff1673ffffffffffffffffffffffffffffffffffffffff163373ffffffffffffffffffffffffffffffffffffffff1614613371576040517f08c379a00000000000000000000000000000000000000000000000000000000081526004018080602001828103825260198152602001807f476f7665726e65643a204e6f7420417574686f72697a65642e0000000000000081525060200191505060405180910390fd5b80600c81905550670de0b6b3a7640000613398600d54600c54613f5a90919063ffffffff16565b106133a257600080fd5b6040516133ae90616ed0565b60405180910390207f3a64504f0bc0c335e2aecb78638a257e0351a3fe0370861fd54ee4190b920933826040516133e5919061716e565b60405180910390a250565b60008054906101000a900473ffffffffffffffffffffffffffffffffffffffff1673ffffffffffffffffffffffffffffffffffffffff163373ffffffffffffffffffffffffffffffffffffffff16146134b1576040517f08c379a00000000000000000000000000000000000000000000000000000000081526004018080602001828103825260198152602001807f476f7665726e65643a204e6f7420417574686f72697a65642e0000000000000081525060200191505060405180910390fd5b80600a81905550600b54600a54106134c857600080fd5b6040516134d490616e67565b60405180910390207f3a64504f0bc0c335e2aecb78638a257e0351a3fe0370861fd54ee4190b9209338260405161350b919061716e565b60405180910390a250565b60008054906101000a900473ffffffffffffffffffffffffffffffffffffffff1673ffffffffffffffffffffffffffffffffffffffff163373ffffffffffffffffffffffffffffffffffffffff16146135d7576040517f08c379a00000000000000000000000000000000000000000000000000000000081526004018080602001828103825260198152602001807f476f7665726e65643a204e6f7420417574686f72697a65642e0000000000000081525060200191505060405180910390fd5b80600881905550600954600854106135ee57600080fd5b6040516135fa90616e3d565b60405180910390207f3a64504f0bc0c335e2aecb78638a257e0351a3fe0370861fd54ee4190b92093382604051613631919061716e565b60405180910390a250565b7f000000000000000000000000000000000000000000000000000000000000000081565b600b5481565b600260065414156136df576040517f08c379a000000000000000000000000000000000000000000000000000000000815260040180806020018281038252601d8152602001807f4c6f636b436f6e74726163743a207265656e7472616e742063616c6c2e00000081525060200191505060405180910390fd5b60026006819055506136fc60085482614ece90919063ffffffff16565b613727601260009054906101000a900473ffffffffffffffffffffffffffffffffffffffff16614f6d565b11613767576040517f08c379a000000000000000000000000000000000000000000000000000000000815260040161375e9061708e565b60405180910390fd5b600160068190555050565b600360009054906101000a900473ffffffffffffffffffffffffffffffffffffffff1673ffffffffffffffffffffffffffffffffffffffff1663e97dcb626040518163ffffffff1660e01b8152600401600060405180830381600087803b1580156137dc57600080fd5b505af11580156137f0573d6000803e3d6000fd5b505050506002600654141561386d576040517f08c379a000000000000000000000000000000000000000000000000000000000815260040180806020018281038252601d8152602001807f4c6f636b50726f746f636f6c3a207265656e7472616e742063616c6c2e00000081525060200191505060405180910390fd5b600260068190555080601460008273ffffffffffffffffffffffffffffffffffffffff1673ffffffffffffffffffffffffffffffffffffffff16815260200190815260200160002060009054906101000a900460ff16613902576040517f08c379a00000000000000000000000000000000000000000000000000000000081526004016138f99061704e565b60405180910390fd5b600460149054906101000a900460ff1615613952576040517f08c379a00000000000000000000000000000000000000000000000000000000081526004016139499061706e565b60405180910390fd5b60008054906101000a900473ffffffffffffffffffffffffffffffffffffffff1673ffffffffffffffffffffffffffffffffffffffff1663bf86d6906040518163ffffffff1660e01b815260040160206040518083038186803b1580156139b857600080fd5b505afa1580156139cc573d6000803e3d6000fd5b505050506040513d601f19601f820116820180604052508101906139f091906164ff565b613a2f576040517f08c379a0000000000000000000000000000000000000000000000000000000008152600401613a26906170ce565b60405180910390fd5b613a37614169565b613a3f6161b8565b613af63384600160009054906101000a900473ffffffffffffffffffffffffffffffffffffffff1673ffffffffffffffffffffffffffffffffffffffff16634d83e74733886040518363ffffffff1660e01b8152600401613aa1929190616f37565b60a06040518083038186803b158015613ab957600080fd5b505afa158015613acd573d6000803e3d6000fd5b505050506040513d601f19601f82011682018060405250810190613af1919061665a565b614bb0565b90506000816020015190506000811415613b45576040517f08c379a0000000000000000000000000000000000000000000000000000000008152600401613b3c906170ae565b60405180910390fd5b6000826020018181525050600160009054906101000a900473ffffffffffffffffffffffffffffffffffffffff1673ffffffffffffffffffffffffffffffffffffffff1663827b78ba3386856040518463ffffffff1660e01b8152600401613baf93929190616f60565b600060405180830381600087803b158015613bc957600080fd5b505af1158015613bdd573d6000803e3d6000fd5b50505050600160009054906101000a900473ffffffffffffffffffffffffffffffffffffffff1673ffffffffffffffffffffffffffffffffffffffff16633ef736c53386846040518463ffffffff1660e01b8152600401613c4093929190616f97565b600060405180830381600087803b158015613c5a57600080fd5b505af1158015613c6e573d6000803e3d6000fd5b505050508373ffffffffffffffffffffffffffffffffffffffff163373ffffffffffffffffffffffffffffffffffffffff167f0843acf46762de15f462d5bcf14c988f823aeecd01073ba05344c1ace6be9c7a83604051613ccf919061716e565b60405180910390a35050506001600681905550600360009054906101000a900473ffffffffffffffffffffffffffffffffffffffff1673ffffffffffffffffffffffffffffffffffffffff1663e9fad8ee6040518163ffffffff1660e01b8152600401600060405180830381600087803b158015613d4c57600080fd5b505af1158015613d60573d6000803e3d6000fd5b5050505050565b60008054906101000a900473ffffffffffffffffffffffffffffffffffffffff1673ffffffffffffffffffffffffffffffffffffffff163373ffffffffffffffffffffffffffffffffffffffff1614613e28576040517f08c379a00000000000000000000000000000000000000000000000000000000081526004018080602001828103825260198152602001807f476f7665726e65643a204e6f7420417574686f72697a65642e0000000000000081525060200191505060405180910390fd5b80600e81905550670de0b6b3a7640000600e541115613e4657600080fd5b604051613e5290616e13565b60405180910390207f3a64504f0bc0c335e2aecb78638a257e0351a3fe0370861fd54ee4190b92093382604051613e89919061716e565b60405180910390a250565b600e5481565b600a5481565b60085481565b6000680100000000000000008210613f09576040517f08c379a000000000000000000000000000000000000000000000000000000000815260040180806020018281038252602681526020018061757c6026913960400191505060405180910390fd5b819050919050565b6001600460146101000a81548160ff0219169083151502179055507f7acc84e34091ae817647a4c49116f5cc07f319078ba80f8f5fde37ea7e25cbd660405160405180910390a1565b600080828401905083811015613fd8576040517f08c379a000000000000000000000000000000000000000000000000000000000815260040180806020018281038252601b8152602001807f536166654d6174683a206164646974696f6e206f766572666c6f77000000000081525060200191505060405180910390fd5b8091505092915050565b600061402483836040518060400160405280601e81526020017f536166654d6174683a207375627472616374696f6e206f766572666c6f77000081525061503b565b905092915050565b614034614aa6565b600f60106101000a81548167ffffffffffffffff021916908367ffffffffffffffff1602179055506001600f60109054906101000a900467ffffffffffffffff1667ffffffffffffffff161461408957600080fd5b60008054906101000a900473ffffffffffffffffffffffffffffffffffffffff1673ffffffffffffffffffffffffffffffffffffffff1663866541146040518163ffffffff1660e01b815260040160206040518083038186803b1580156140ef57600080fd5b505afa158015614103573d6000803e3d6000fd5b505050506040513d601f19601f820116820180604052508101906141279190616528565b601560006101000a81548173ffffffffffffffffffffffffffffffffffffffff021916908373ffffffffffffffffffffffffffffffffffffffff160217905550565b60006141736150fb565b9050600f60109054906101000a900467ffffffffffffffff1667ffffffffffffffff168167ffffffffffffffff16116141ac5750614300565b6000600f60109054906101000a900467ffffffffffffffff168203905060006142858267ffffffffffffffff1660008054906101000a900473ffffffffffffffffffffffffffffffffffffffff1673ffffffffffffffffffffffffffffffffffffffff1663c375e6ed6040518163ffffffff1660e01b815260040160206040518083038186803b15801561423f57600080fd5b505afa158015614253573d6000803e3d6000fd5b505050506040513d601f19601f8201168201806040525081019061427791906166fb565b614de590919063ffffffff16565b90506142a561429f600c5483614ece90919063ffffffff16565b836151ef565b6142c36142bd600d5483614ece90919063ffffffff16565b83615452565b7f095a67d1e9698fe0eebf9cff79a22f6423cebcb4e386a0bdd7e12330d86381ed81836040516142f4929190617189565b60405180910390a15050505b565b600080601260009054906101000a900473ffffffffffffffffffffffffffffffffffffffff1673ffffffffffffffffffffffffffffffffffffffff168473ffffffffffffffffffffffffffffffffffffffff16146144135761440e600b54600160009054906101000a900473ffffffffffffffffffffffffffffffffffffffff1673ffffffffffffffffffffffffffffffffffffffff16630dca59c16040518163ffffffff1660e01b815260040160206040518083038186803b1580156143c857600080fd5b505afa1580156143dc573d6000803e3d6000fd5b505050506040513d601f19601f8201168201806040525081019061440091906166fb565b614ece90919063ffffffff16565b6144c8565b6144c7600954600160009054906101000a900473ffffffffffffffffffffffffffffffffffffffff1673ffffffffffffffffffffffffffffffffffffffff16630dca59c16040518163ffffffff1660e01b815260040160206040518083038186803b15801561448157600080fd5b505afa158015614495573d6000803e3d6000fd5b505050506040513d601f19601f820116820180604052508101906144b991906166fb565b614ece90919063ffffffff16565b5b905060006144df8483614ece90919063ffffffff16565b905060008573ffffffffffffffffffffffffffffffffffffffff166370a08231600160009054906101000a900473ffffffffffffffffffffffffffffffffffffffff166040518263ffffffff1660e01b815260040161453e9190616ee5565b60206040518083038186803b15801561455657600080fd5b505afa15801561456a573d6000803e3d6000fd5b505050506040513d601f19601f8201168201806040525081019061458e91906166fb565b905081811061459e5760006145a2565b8082035b935050505092915050565b6000601160008373ffffffffffffffffffffffffffffffffffffffff1673ffffffffffffffffffffffffffffffffffffffff16815260200190815260200160002060000160009054906101000a900477ffffffffffffffffffffffffffffffffffffffffffffffff1677ffffffffffffffffffffffffffffffffffffffffffffffff16905061463a615875565b67ffffffffffffffff16601160008473ffffffffffffffffffffffffffffffffffffffff1673ffffffffffffffffffffffffffffffffffffffff16815260200190815260200160002060000160189054906101000a900467ffffffffffffffff1667ffffffffffffffff161015614aa15760008060009054906101000a900473ffffffffffffffffffffffffffffffffffffffff1673ffffffffffffffffffffffffffffffffffffffff1663d3419bf36040518163ffffffff1660e01b815260040160206040518083038186803b15801561471457600080fd5b505afa158015614728573d6000803e3d6000fd5b505050506040513d601f19601f8201168201806040525081019061474c91906165a3565b73ffffffffffffffffffffffffffffffffffffffff1663fb5bb24384600f60009054906101000a900467ffffffffffffffff16600f60089054906101000a900467ffffffffffffffff1660006040518563ffffffff1660e01b81526004016147b79493929190616fe9565b6040805180830381600087803b1580156147d057600080fd5b505af11580156147e4573d6000803e3d6000fd5b505050506040513d601f19601f820116820180604052508101906148089190616724565b50905060008114614a9f576000808473ffffffffffffffffffffffffffffffffffffffff16630902f1ac6040518163ffffffff1660e01b815260040160606040518083038186803b15801561485c57600080fd5b505afa158015614870573d6000803e3d6000fd5b505050506040513d601f19601f820116820180604052508101906148949190616683565b506dffffffffffffffffffffffffffff1691506dffffffffffffffffffffffffffff16915060006148e86148e3856148d58587614de590919063ffffffff16565b614ece90919063ffffffff16565b615885565b905061497a818773ffffffffffffffffffffffffffffffffffffffff166318160ddd6040518163ffffffff1660e01b815260040160206040518083038186803b15801561493457600080fd5b505afa158015614948573d6000803e3d6000fd5b505050506040513d601f19601f8201168201806040525081019061496c91906166fb565b6158e790919063ffffffff16565b94506040518060400160405280614990876159fa565b77ffffffffffffffffffffffffffffffffffffffffffffffff1681526020016149ce600f60089054906101000a900467ffffffffffffffff16615a75565b67ffffffffffffffff16815250601160008873ffffffffffffffffffffffffffffffffffffffff1673ffffffffffffffffffffffffffffffffffffffff16815260200190815260200160002060008201518160000160006101000a81548177ffffffffffffffffffffffffffffffffffffffffffffffff021916908377ffffffffffffffffffffffffffffffffffffffffffffffff16021790555060208201518160000160186101000a81548167ffffffffffffffff021916908367ffffffffffffffff1602179055509050505050505b505b919050565b60007f00000000000000000000000000000000000000000000000000000000000000007f000000000000000000000000000000000000000000000000000000000000000067ffffffffffffffff16614afc615875565b67ffffffffffffffff1681614b0d57fe5b0403905090565b60008082840190508367ffffffffffffffff168167ffffffffffffffff161015614ba6576040517f08c379a000000000000000000000000000000000000000000000000000000000815260040180806020018281038252601b8152602001807f536166654d6174683a206164646974696f6e206f766572666c6f77000000000081525060200191505060405180910390fd5b8091505092915050565b614bb86161b8565b600080614cb384614bc76150fb565b601060008973ffffffffffffffffffffffffffffffffffffffff1673ffffffffffffffffffffffffffffffffffffffff1681526020019081526020016000206040518060400160405290816000820160009054906101000a90046bffffffffffffffffffffffff166bffffffffffffffffffffffff166bffffffffffffffffffffffff16815260200160008201600c9054906101000a900473ffffffffffffffffffffffffffffffffffffffff1673ffffffffffffffffffffffffffffffffffffffff1673ffffffffffffffffffffffffffffffffffffffff1681525050614cae896145ad565b615aa2565b80935081945082955050505060008214614ddc5760008054906101000a900473ffffffffffffffffffffffffffffffffffffffff1673ffffffffffffffffffffffffffffffffffffffff1663866541146040518163ffffffff1660e01b815260040160206040518083038186803b158015614d2d57600080fd5b505afa158015614d41573d6000803e3d6000fd5b505050506040513d601f19601f82011682018060405250810190614d659190616528565b73ffffffffffffffffffffffffffffffffffffffff1663302fbf57614d8983615c22565b88856040518463ffffffff1660e01b8152600401614da9939291906171cd565b600060405180830381600087803b158015614dc357600080fd5b505af1158015614dd7573d6000803e3d6000fd5b505050505b50509392505050565b600080831415614df85760009050614e65565b6000828402905082848281614e0957fe5b0414614e60576040517f08c379a000000000000000000000000000000000000000000000000000000000815260040180806020018281038252602181526020018061755b6021913960400191505060405180910390fd5b809150505b92915050565b6000614ead83836040518060400160405280601a81526020017f536166654d6174683a206469766973696f6e206279207a65726f000000000000815250615ca4565b905092915050565b6000818310614ec45781614ec6565b825b905092915050565b600080831480614ede5750600082145b15614eec5760009050614f67565b818302905081838281614efb57fe5b0414614f52576040517f08c379a00000000000000000000000000000000000000000000000000000000081526004018080602001828103825260228152602001806175116022913960400191505060405180910390fd5b670de0b6b3a76400008181614f6357fe5b0490505b92915050565b6000615034614f7b836145ad565b8373ffffffffffffffffffffffffffffffffffffffff166370a08231600160009054906101000a900473ffffffffffffffffffffffffffffffffffffffff166040518263ffffffff1660e01b8152600401614fd69190616ee5565b60206040518083038186803b158015614fee57600080fd5b505afa158015615002573d6000803e3d6000fd5b505050506040513d601f19601f8201168201806040525081019061502691906166fb565b6158e790919063ffffffff16565b9050919050565b60008383111582906150e8576040517f08c379a00000000000000000000000000000000000000000000000000000000081526004018080602001828103825283818151815260200191508051906020019080838360005b838110156150ad578082015181840152602081019050615092565b50505050905090810190601f1680156150da5780820380516001836020036101000a031916815260200191505b509250505060405180910390fd5b5060008385039050809150509392505050565b6000615105614aa6565b905060008060009054906101000a900473ffffffffffffffffffffffffffffffffffffffff1673ffffffffffffffffffffffffffffffffffffffff1663585690816040518163ffffffff1660e01b815260040160206040518083038186803b15801561517057600080fd5b505afa158015615184573d6000803e3d6000fd5b505050506040513d601f19601f820116820180604052508101906151a89190616789565b905060008167ffffffffffffffff16146151eb5760006151c782615d6a565b90508267ffffffffffffffff168167ffffffffffffffff1610156151e9578092505b505b5090565b600060106000601260009054906101000a900473ffffffffffffffffffffffffffffffffffffffff1673ffffffffffffffffffffffffffffffffffffffff1673ffffffffffffffffffffffffffffffffffffffff168152602001908152602001600020905060405180604001604052806152a461529f8460000160009054906101000a90046bffffffffffffffffffffffff166bffffffffffffffffffffffff1687613f5a90919063ffffffff16565b615ded565b6bffffffffffffffffffffffff16815260200161535261534d84600001600c9054906101000a900473ffffffffffffffffffffffffffffffffffffffff1673ffffffffffffffffffffffffffffffffffffffff1661533f8767ffffffffffffffff16615331601260009054906101000a900473ffffffffffffffffffffffffffffffffffffffff16614f6d565b614de590919063ffffffff16565b613f5a90919063ffffffff16565b615e5c565b73ffffffffffffffffffffffffffffffffffffffff1681525060106000601260009054906101000a900473ffffffffffffffffffffffffffffffffffffffff1673ffffffffffffffffffffffffffffffffffffffff1673ffffffffffffffffffffffffffffffffffffffff16815260200190815260200160002060008201518160000160006101000a8154816bffffffffffffffffffffffff02191690836bffffffffffffffffffffffff160217905550602082015181600001600c6101000a81548173ffffffffffffffffffffffffffffffffffffffff021916908373ffffffffffffffffffffffffffffffffffffffff160217905550905050505050565b6000600e541461568c5760008060009054906101000a900473ffffffffffffffffffffffffffffffffffffffff1673ffffffffffffffffffffffffffffffffffffffff1663571fb1d86040518163ffffffff1660e01b815260040160206040518083038186803b1580156154c557600080fd5b505afa1580156154d9573d6000803e3d6000fd5b505050506040513d601f19601f820116820180604052508101906154fd919061657a565b905060006155b7600e546155a98473ffffffffffffffffffffffffffffffffffffffff1663d076c3896040518163ffffffff1660e01b815260040160206040518083038186803b15801561555057600080fd5b505afa158015615564573d6000803e3d6000fd5b505050506040513d601f19601f820116820180604052508101906155889190616789565b67ffffffffffffffff16670de0b6b3a7640000614de590919063ffffffff16565b6158e790919063ffffffff16565b9050600061565d8373ffffffffffffffffffffffffffffffffffffffff1663538cebd46040518163ffffffff1660e01b815260040160206040518083038186803b15801561560457600080fd5b505afa158015615618573d6000803e3d6000fd5b505050506040513d601f19601f8201168201806040525081019061563c9190616789565b67ffffffffffffffff16670de0b6b3a7640000614de590919063ffffffff16565b90506156866156758284613fe290919063ffffffff16565b8387615ed39092919063ffffffff16565b94505050505b6000601380549050905060008184816156a157fe5b04905060008060005b8481101561586c57601381815481106156bf57fe5b9060005260206000200160009054906101000a900473ffffffffffffffffffffffffffffffffffffffff169150601060008373ffffffffffffffffffffffffffffffffffffffff1673ffffffffffffffffffffffffffffffffffffffff168152602001908152602001600020925061577261576d8460000160009054906101000a90046bffffffffffffffffffffffff166bffffffffffffffffffffffff1686613f5a90919063ffffffff16565b615ded565b8360000160006101000a8154816bffffffffffffffffffffffff02191690836bffffffffffffffffffffffff16021790555061581d61581884600001600c9054906101000a900473ffffffffffffffffffffffffffffffffffffffff1673ffffffffffffffffffffffffffffffffffffffff1661580a8967ffffffffffffffff166157fc87614f6d565b614de590919063ffffffff16565b613f5a90919063ffffffff16565b615e5c565b83600001600c6101000a81548173ffffffffffffffffffffffffffffffffffffffff021916908373ffffffffffffffffffffffffffffffffffffffff16021790555080806001019150506156aa565b50505050505050565b600061588042613ea6565b905090565b600060038211156158d45781905060006001600284816158a157fe5b040190505b818110156158ce578091506002818285816158bd57fe5b0401816158c657fe5b0490506158a6565b506158e2565b600082146158e157600190505b5b919050565b6000808314156158fa57600090506159f4565b6000821415615971576040517f08c379a000000000000000000000000000000000000000000000000000000000815260040180806020018281038252601b8152602001807f536166654d6174683a206469766973696f6e206279207a65726f2e000000000081525060200191505060405180910390fd5b670de0b6b3a764000083029050670de0b6b3a764000083828161599057fe5b04146159e7576040517f08c379a00000000000000000000000000000000000000000000000000000000081526004018080602001828103825260228152602001806175116022913960400191505060405180910390fd5b8181816159f057fe5b0490505b92915050565b600078010000000000000000000000000000000000000000000000008210615a6d576040517f08c379a00000000000000000000000000000000000000000000000000000000081526004018080602001828103825260278152602001806174ea6027913960400191505060405180910390fd5b819050919050565b6000615a9b82615a83615875565b67ffffffffffffffff16614b1490919063ffffffff16565b9050919050565b615aaa6161b8565b600080866060015167ffffffffffffffff168667ffffffffffffffff1611615adb5786600080925092509250615c18565b86925060008360600151870390506000846020015114615b945760008167ffffffffffffffff16615b338660400151896020015173ffffffffffffffffffffffffffffffffffffffff16613fe290919063ffffffff16565b81615b3a57fe5b049050615b90615b69866000015189600001516bffffffffffffffffffffffff16613fe290919063ffffffff16565b82615b818989602001516158e790919063ffffffff16565b615ed39092919063ffffffff16565b9350505b85600001516bffffffffffffffffffffffff16846000018181525050856020015173ffffffffffffffffffffffffffffffffffffffff1684604001818152505086846060019067ffffffffffffffff16908167ffffffffffffffff168152505060008314615c165760028167ffffffffffffffff1681615c1057fe5b04870391505b505b9450945094915050565b6000615c9d615c64837f000000000000000000000000000000000000000000000000000000000000000067ffffffffffffffff16614b1490919063ffffffff16565b7f000000000000000000000000000000000000000000000000000000000000000067ffffffffffffffff16615fe290919063ffffffff16565b9050919050565b60008083118290615d50576040517f08c379a00000000000000000000000000000000000000000000000000000000081526004018080602001828103825283818151815260200191508051906020019080838360005b83811015615d15578082015181840152602081019050615cfa565b50505050905090810190601f168015615d425780820380516001836020036101000a031916815260200191505b509250505060405180910390fd5b506000838581615d5c57fe5b049050809150509392505050565b6000615de67f00000000000000000000000000000000000000000000000000000000000000007f000000000000000000000000000000000000000000000000000000000000000067ffffffffffffffff168467ffffffffffffffff1681615dcd57fe5b0467ffffffffffffffff1661609a90919063ffffffff16565b9050919050565b60006c010000000000000000000000008210615e54576040517f08c379a00000000000000000000000000000000000000000000000000000000081526004018080602001828103825260268152602001806174c46026913960400191505060405180910390fd5b819050919050565b6000740100000000000000000000000000000000000000008210615ecb576040517f08c379a00000000000000000000000000000000000000000000000000000000081526004018080602001828103825260278152602001806175a26027913960400191505060405180910390fd5b819050919050565b600080841480615ee35750600083145b15615ef15760009050615fdb565b6000821415615f68576040517f08c379a000000000000000000000000000000000000000000000000000000000815260040180806020018281038252601b8152602001807f536166654d6174683a206469766973696f6e206279207a65726f2e000000000081525060200191505060405180910390fd5b828402905082848281615f7757fe5b0414615fce576040517f08c379a00000000000000000000000000000000000000000000000000000000081526004018080602001828103825260228152602001806175116022913960400191505060405180910390fd5b818181615fd757fe5b0490505b9392505050565b6000808367ffffffffffffffff161415615fff5760009050616094565b600082840290508267ffffffffffffffff168467ffffffffffffffff168267ffffffffffffffff168161602e57fe5b0467ffffffffffffffff161461608f576040517f08c379a000000000000000000000000000000000000000000000000000000000815260040180806020018281038252602181526020018061755b6021913960400191505060405180910390fd5b809150505b92915050565b60006160dc83836040518060400160405280601e81526020017f536166654d6174683a207375627472616374696f6e206f766572666c6f7700008152506160e4565b905092915050565b60008367ffffffffffffffff168367ffffffffffffffff16111582906161a5576040517f08c379a00000000000000000000000000000000000000000000000000000000081526004018080602001828103825283818151815260200191508051906020019080838360005b8381101561616a57808201518184015260208101905061614f565b50505050905090810190601f1680156161975780820380516001836020036101000a031916815260200191505b509250505060405180910390fd5b5060008385039050809150509392505050565b6040518060a00160405280600081526020016000815260200160008152602001600067ffffffffffffffff168152602001600067ffffffffffffffff1681525090565b828054828255906000526020600020908101928215616274579160200282015b828111156162735782518260006101000a81548173ffffffffffffffffffffffffffffffffffffffff021916908373ffffffffffffffffffffffffffffffffffffffff1602179055509160200191906001019061621b565b5b5090506162819190616285565b5090565b5b8082111561629e576000816000905550600101616286565b5090565b600082601f8301126162b357600080fd5b81516162c66162c182617235565b617204565b915081818352602084019350602081019050838560208402820111156162eb57600080fd5b60005b8381101561631b578161630188826163a3565b8452602084019350602083019250506001810190506162ee565b5050505092915050565b600081519050616334816173dd565b92915050565b600081519050616349816173f4565b92915050565b60008135905061635e8161740b565b92915050565b60008151905061637381617422565b92915050565b60008151905061638881617439565b92915050565b60008135905061639d81617450565b92915050565b6000815190506163b281617450565b92915050565b600060a082840312156163ca57600080fd5b6163d460a0617204565b905060006163e48482850161646a565b60008301525060206163f88482850161646a565b602083015250604061640c8482850161646a565b6040830152506060616420848285016164a9565b6060830152506080616434848285016164a9565b60808301525092915050565b60008151905061644f81617467565b92915050565b6000813590506164648161747e565b92915050565b6000815190506164798161747e565b92915050565b60008151905061648e81617495565b92915050565b6000813590506164a3816174ac565b92915050565b6000815190506164b8816174ac565b92915050565b6000602082840312156164d057600080fd5b600082015167ffffffffffffffff8111156164ea57600080fd5b6164f6848285016162a2565b91505092915050565b60006020828403121561651157600080fd5b600061651f84828501616325565b91505092915050565b60006020828403121561653a57600080fd5b60006165488482850161633a565b91505092915050565b60006020828403121561656357600080fd5b60006165718482850161634f565b91505092915050565b60006020828403121561658c57600080fd5b600061659a84828501616364565b91505092915050565b6000602082840312156165b557600080fd5b60006165c384828501616379565b91505092915050565b6000602082840312156165de57600080fd5b60006165ec8482850161638e565b91505092915050565b60006020828403121561660757600080fd5b6000616615848285016163a3565b91505092915050565b6000806040838503121561663157600080fd5b600061663f8582860161638e565b925050602061665085828601616455565b9150509250929050565b600060a0828403121561666c57600080fd5b600061667a848285016163b8565b91505092915050565b60008060006060848603121561669857600080fd5b60006166a686828701616440565b93505060206166b786828701616440565b92505060406166c88682870161647f565b9150509250925092565b6000602082840312156166e457600080fd5b60006166f284828501616455565b91505092915050565b60006020828403121561670d57600080fd5b600061671b8482850161646a565b91505092915050565b6000806040838503121561673757600080fd5b60006167458582860161646a565b9250506020616756858286016164a9565b9150509250929050565b60006020828403121561677257600080fd5b600061678084828501616494565b91505092915050565b60006020828403121561679b57600080fd5b60006167a9848285016164a9565b91505092915050565b6167bb8161735d565b82525050565b6167ca8161727d565b82525050565b6167d98161728f565b82525050565b6167e88161736f565b82525050565b6167f781617393565b82525050565b600061680a602183617272565b91507f7265666572656e6365526577617264734f666650656753656e7369746976697460008301527f79000000000000000000000000000000000000000000000000000000000000006020830152602182019050919050565b6000616870601383617261565b91507f546f6f206d756368206c69717569646974792e000000000000000000000000006000830152602082019050919050565b60006168b0600d83617261565b91507f496e76616c696420706169722e000000000000000000000000000000000000006000830152602082019050919050565b60006168f0601483617261565b91507f436f6e74726163742069732073746f707065642e0000000000000000000000006000830152602082019050919050565b6000616930600b83617272565b91507f6d61785477617054696d650000000000000000000000000000000000000000006000830152600b82019050919050565b6000616970601a83617272565b91507f6d696e436f6c6c61746572616c506f6f6c4c69717569646974790000000000006000830152601a82019050919050565b60006169b0602283617261565b91507f496e73756666696369656e7420636f6c6c61746572616c206c6971756964697460008301527f792e0000000000000000000000000000000000000000000000000000000000006020830152604082019050919050565b6000616a16600b83617272565b91507f6d617850726963654167650000000000000000000000000000000000000000006000830152600b82019050919050565b6000616a56601483617261565b91507f4e6f20746f6b656e7320746f2072657475726e2e0000000000000000000000006000830152602082019050919050565b6000616a96602083617261565b91507f4f6e6c7920617574686f72697a656420647572696e672073687574646f776e2e6000830152602082019050919050565b6000616ad6601983617272565b91507f6d696e5265666572656e6365506f6f6c4c6971756964697479000000000000006000830152601982019050919050565b6000616b16602183617261565b91507f496e73756666696369656e74207265666572656e6365206c697175696469747960008301527f2e000000000000000000000000000000000000000000000000000000000000006020830152604082019050919050565b6000616b7c601b83617272565b91507f7265666572656e63655061697252657761726473506f7274696f6e00000000006000830152601b82019050919050565b6000616bbc601983617272565b91507f6d61785265666572656e6365506f6f6c4c6971756964697479000000000000006000830152601982019050919050565b6000616bfc601183617261565b91507f4e6f20746f6b656e73206c6f636b65642e0000000000000000000000000000006000830152602082019050919050565b6000616c3c600583617261565b91507f4e6f6f702e0000000000000000000000000000000000000000000000000000006000830152602082019050919050565b6000616c7c600d83617272565b91507f706572696f64734c6f636b6564000000000000000000000000000000000000006000830152600d82019050919050565b6000616cbc601a83617272565b91507f6d6178436f6c6c61746572616c506f6f6c4c69717569646974790000000000006000830152601a82019050919050565b6000616cfc601483617261565b91507f546f6b656e73207374696c6c206c6f636b65642e0000000000000000000000006000830152602082019050919050565b6000616d3c601c83617272565b91507f636f6c6c61746572616c5061697252657761726473506f7274696f6e000000006000830152601c82019050919050565b60a082016000820151616d856000850182616dd7565b506020820151616d986020850182616dd7565b506040820151616dab6040850182616dd7565b506060820151616dbe6060850182616df5565b506080820151616dd16080850182616df5565b50505050565b616de08161732f565b82525050565b616def8161732f565b82525050565b616dfe81617349565b82525050565b616e0d81617349565b82525050565b6000616e1e826167fd565b9150819050919050565b6000616e3382616923565b9150819050919050565b6000616e4882616963565b9150819050919050565b6000616e5d82616a09565b9150819050919050565b6000616e7282616ac9565b9150819050919050565b6000616e8782616b6f565b9150819050919050565b6000616e9c82616baf565b9150819050919050565b6000616eb182616c6f565b9150819050919050565b6000616ec682616caf565b9150819050919050565b6000616edb82616d2f565b9150819050919050565b6000602082019050616efa60008301846167c1565b92915050565b6000606082019050616f1560008301866167b2565b616f2260208301856167c1565b616f2f6040830184616de6565b949350505050565b6000604082019050616f4c60008301856167b2565b616f5960208301846167ee565b9392505050565b600060e082019050616f7560008301866167b2565b616f8260208301856167ee565b616f8f6040830184616d6f565b949350505050565b6000606082019050616fac60008301866167b2565b616fb960208301856167ee565b616fc66040830184616de6565b949350505050565b6000602082019050616fe360008301846167df565b92915050565b6000608082019050616ffe60008301876167ee565b61700b6020830186616e04565b6170186040830185616e04565b61702560608301846167d0565b95945050505050565b6000602082019050818103600083015261704781616863565b9050919050565b60006020820190508181036000830152617067816168a3565b9050919050565b60006020820190508181036000830152617087816168e3565b9050919050565b600060208201905081810360008301526170a7816169a3565b9050919050565b600060208201905081810360008301526170c781616a49565b9050919050565b600060208201905081810360008301526170e781616a89565b9050919050565b6000602082019050818103600083015261710781616b09565b9050919050565b6000602082019050818103600083015261712781616bef565b9050919050565b6000602082019050818103600083015261714781616c2f565b9050919050565b6000602082019050818103600083015261716781616cef565b9050919050565b60006020820190506171836000830184616de6565b92915050565b600060408201905061719e6000830185616de6565b6171ab6020830184616e04565b9392505050565b60006020820190506171c76000830184616e04565b92915050565b60006060820190506171e26000830186616e04565b6171ef60208301856167c1565b6171fc6040830184616de6565b949350505050565b6000604051905081810181811067ffffffffffffffff8211171561722b5761722a6173db565b5b8060405250919050565b600067ffffffffffffffff8211156172505761724f6173db565b5b602082029050602081019050919050565b600082825260208201905092915050565b600081905092915050565b60006172888261730f565b9050919050565b60008115159050919050565b60006172a68261727d565b9050919050565b60006172b88261727d565b9050919050565b60006172ca8261727d565b9050919050565b60006172dc8261727d565b9050919050565b60006172ee8261727d565b9050919050565b60006dffffffffffffffffffffffffffff82169050919050565b600073ffffffffffffffffffffffffffffffffffffffff82169050919050565b6000819050919050565b600063ffffffff82169050919050565b600067ffffffffffffffff82169050919050565b6000617368826173b7565b9050919050565b600061737a82617381565b9050919050565b600061738c8261730f565b9050919050565b600061739e826173a5565b9050919050565b60006173b08261730f565b9050919050565b60006173c2826173c9565b9050919050565b60006173d48261730f565b9050919050565bfe5b6173e68161728f565b81146173f157600080fd5b50565b6173fd8161729b565b811461740857600080fd5b50565b617414816172ad565b811461741f57600080fd5b50565b61742b816172bf565b811461743657600080fd5b50565b617442816172d1565b811461744d57600080fd5b50565b617459816172e3565b811461746457600080fd5b50565b617470816172f5565b811461747b57600080fd5b50565b6174878161732f565b811461749257600080fd5b50565b61749e81617339565b81146174a957600080fd5b50565b6174b581617349565b81146174c057600080fd5b5056fe53616665436173743a2076616c756520646f65736e27742066697420696e203936206269747353616665436173743a2076616c756520646f65736e27742066697420696e203139322062697473536166654d6174683a206d756c7469706c69636174696f6e206f766572666c6f772e476f7665726e65643a204e6f7420617661696c61626c6520647572696e672073687574646f776e2e536166654d6174683a206d756c7469706c69636174696f6e206f766572666c6f7753616665436173743a2076616c756520646f65736e27742066697420696e203634206269747353616665436173743a2076616c756520646f65736e27742066697420696e203136302062697473a2646970667358221220e400b21e25eb27e064e2d2b55c5079a90a5c28c789e8bbc4f7010cf9543df20764736f6c6343000704003353616665436173743a2076616c756520646f65736e27742066697420696e2036342062697473",
  "linkReferences": {},
  "deployedLinkReferences": {}
}