{
  "_format": "hh-sol-artifact-1",
  "contractName": "Rewards",
  "sourceName": "contracts/core/logic/Rewards.sol",
  "abi": [
    {
      "inputs": [
        {
          "internalType": "contract INonfungiblePositionManager",
          "name": "_nftPositionManager",
          "type": "address"
        },
        {
          "internalType": "contract IUniswapV3Factory",
          "name": "_uniswapV3Factory",
          "type": "address"
        },
        {
          "internalType": "contract IWETH9",
          "name": "_weth",
          "type": "address"
        }
      ],
      "stateMutability": "nonpayable",
      "type": "constructor"
    },
    {
      "anonymous": false,
      "inputs": [
        {
          "indexed": true,
          "internalType": "address",
          "name": "owner",
          "type": "address"
        },
        {
          "indexed": true,
          "internalType": "uint256",
          "name": "nftTokenID",
          "type": "uint256"
        },
        {
          "indexed": false,
          "internalType": "uint256",
          "name": "amount0",
          "type": "uint256"
        },
        {
          "indexed": false,
          "internalType": "uint256",
          "name": "amount1",
          "type": "uint256"
        }
      ],
      "name": "FeesCollected",
      "type": "event"
    },
    {
      "anonymous": false,
      "inputs": [
        {
          "indexed": true,
          "internalType": "address",
          "name": "owner",
          "type": "address"
        },
        {
          "indexed": true,
          "internalType": "uint256",
          "name": "nftTokenID",
          "type": "uint256"
        }
      ],
      "name": "InflationRewardsClaimed",
      "type": "event"
    },
    {
      "anonymous": false,
      "inputs": [
        {
          "indexed": true,
          "internalType": "address",
          "name": "governor",
          "type": "address"
        }
      ],
      "name": "Initialized",
      "type": "event"
    },
    {
      "anonymous": false,
      "inputs": [
        {
          "indexed": true,
          "internalType": "address",
          "name": "owner",
          "type": "address"
        },
        {
          "indexed": true,
          "internalType": "uint16",
          "name": "poolID",
          "type": "uint16"
        },
        {
          "indexed": true,
          "internalType": "uint256",
          "name": "nftID",
          "type": "uint256"
        },
        {
          "indexed": false,
          "internalType": "int24",
          "name": "tickLower",
          "type": "int24"
        },
        {
          "indexed": false,
          "internalType": "int24",
          "name": "tickUpper",
          "type": "int24"
        },
        {
          "indexed": false,
          "internalType": "uint128",
          "name": "liquidity",
          "type": "uint128"
        }
      ],
      "name": "LiquidityPositionCreated",
      "type": "event"
    },
    {
      "anonymous": false,
      "inputs": [
        {
          "indexed": true,
          "internalType": "uint256",
          "name": "nftID",
          "type": "uint256"
        },
        {
          "indexed": false,
          "internalType": "uint256",
          "name": "amount0",
          "type": "uint256"
        },
        {
          "indexed": false,
          "internalType": "uint256",
          "name": "amount1",
          "type": "uint256"
        }
      ],
      "name": "LiquidityPositionDecreased",
      "type": "event"
    },
    {
      "anonymous": false,
      "inputs": [
        {
          "indexed": true,
          "internalType": "uint256",
          "name": "nftID",
          "type": "uint256"
        },
        {
          "indexed": false,
          "internalType": "uint128",
          "name": "liquidity",
          "type": "uint128"
        }
      ],
      "name": "LiquidityPositionIncreased",
      "type": "event"
    },
    {
      "anonymous": false,
      "inputs": [
        {
          "indexed": true,
          "internalType": "uint256",
          "name": "nftID",
          "type": "uint256"
        },
        {
          "indexed": false,
          "internalType": "uint256",
          "name": "amount0",
          "type": "uint256"
        },
        {
          "indexed": false,
          "internalType": "uint256",
          "name": "amount1",
          "type": "uint256"
        }
      ],
      "name": "LiquidityPositionLiquidated",
      "type": "event"
    },
    {
      "anonymous": false,
      "inputs": [
        {
          "indexed": true,
          "internalType": "uint256",
          "name": "nftID",
          "type": "uint256"
        },
        {
          "indexed": false,
          "internalType": "uint256",
          "name": "amount0",
          "type": "uint256"
        },
        {
          "indexed": false,
          "internalType": "uint256",
          "name": "amount1",
          "type": "uint256"
        }
      ],
      "name": "LiquidityPositionRemoved",
      "type": "event"
    },
    {
      "anonymous": false,
      "inputs": [
        {
          "indexed": true,
          "internalType": "string",
          "name": "paramName",
          "type": "string"
        },
        {
          "indexed": false,
          "internalType": "uint256",
          "name": "value",
          "type": "uint256"
        }
      ],
      "name": "ParameterUpdated",
      "type": "event"
    },
    {
      "anonymous": false,
      "inputs": [
        {
          "indexed": true,
          "internalType": "string",
          "name": "paramName",
          "type": "string"
        },
        {
          "indexed": false,
          "internalType": "uint256",
          "name": "value",
          "type": "uint256"
        }
      ],
      "name": "ParameterUpdated128",
      "type": "event"
    },
    {
      "anonymous": false,
      "inputs": [
        {
          "indexed": true,
          "internalType": "string",
          "name": "paramName",
          "type": "string"
        },
        {
          "indexed": false,
          "internalType": "uint256",
          "name": "value",
          "type": "uint256"
        }
      ],
      "name": "ParameterUpdated32",
      "type": "event"
    },
    {
      "anonymous": false,
      "inputs": [
        {
          "indexed": true,
          "internalType": "string",
          "name": "paramName",
          "type": "string"
        },
        {
          "indexed": false,
          "internalType": "uint256",
          "name": "value",
          "type": "uint256"
        }
      ],
      "name": "ParameterUpdated64",
      "type": "event"
    },
    {
      "anonymous": false,
      "inputs": [
        {
          "indexed": true,
          "internalType": "string",
          "name": "paramName",
          "type": "string"
        },
        {
          "indexed": false,
          "internalType": "address",
          "name": "value",
          "type": "address"
        }
      ],
      "name": "ParameterUpdatedAddress",
      "type": "event"
    },
    {
      "anonymous": false,
      "inputs": [
        {
          "indexed": true,
          "internalType": "address",
          "name": "pool",
          "type": "address"
        },
        {
          "indexed": true,
          "internalType": "uint16",
          "name": "poolID",
          "type": "uint16"
        },
        {
          "indexed": false,
          "internalType": "uint64",
          "name": "rewardsPortion",
          "type": "uint64"
        }
      ],
      "name": "PoolAdded",
      "type": "event"
    },
    {
      "anonymous": false,
      "inputs": [
        {
          "indexed": true,
          "internalType": "uint16",
          "name": "poolID",
          "type": "uint16"
        },
        {
          "indexed": false,
          "internalType": "uint64",
          "name": "incentive",
          "type": "uint64"
        }
      ],
      "name": "PoolIncentiveUpdated",
      "type": "event"
    },
    {
      "anonymous": false,
      "inputs": [
        {
          "indexed": false,
          "internalType": "uint256",
          "name": "count",
          "type": "uint256"
        },
        {
          "indexed": false,
          "internalType": "uint64",
          "name": "periods",
          "type": "uint64"
        }
      ],
      "name": "RewardsAccrued",
      "type": "event"
    },
    {
      "anonymous": false,
      "inputs": [
        {
          "indexed": true,
          "internalType": "address",
          "name": "account",
          "type": "address"
        },
        {
          "indexed": true,
          "internalType": "bool",
          "name": "isKickback",
          "type": "bool"
        },
        {
          "indexed": false,
          "internalType": "uint256",
          "name": "tcpRewards",
          "type": "uint256"
        }
      ],
      "name": "RewardsDistributed",
      "type": "event"
    },
    {
      "anonymous": false,
      "inputs": [],
      "name": "Stopped",
      "type": "event"
    },
    {
      "inputs": [],
      "name": "accrueRewards",
      "outputs": [],
      "stateMutability": "nonpayable",
      "type": "function"
    },
    {
      "inputs": [
        {
          "internalType": "contract IUniswapV3Pool",
          "name": "pool",
          "type": "address"
        },
        {
          "internalType": "uint64",
          "name": "rewardsPortion",
          "type": "uint64"
        }
      ],
      "name": "addIncentivePool",
      "outputs": [],
      "stateMutability": "nonpayable",
      "type": "function"
    },
    {
      "inputs": [],
      "name": "borrowRewardsPortion",
      "outputs": [
        {
          "internalType": "uint64",
          "name": "",
          "type": "uint64"
        }
      ],
      "stateMutability": "view",
      "type": "function"
    },
    {
      "inputs": [
        {
          "internalType": "uint256",
          "name": "nftTokenID",
          "type": "uint256"
        },
        {
          "internalType": "uint32",
          "name": "ui",
          "type": "uint32"
        }
      ],
      "name": "claimRewards",
      "outputs": [],
      "stateMutability": "nonpayable",
      "type": "function"
    },
    {
      "inputs": [
        {
          "components": [
            {
              "internalType": "uint256",
              "name": "tokenId",
              "type": "uint256"
            },
            {
              "internalType": "address",
              "name": "recipient",
              "type": "address"
            },
            {
              "internalType": "uint128",
              "name": "amount0Max",
              "type": "uint128"
            },
            {
              "internalType": "uint128",
              "name": "amount1Max",
              "type": "uint128"
            }
          ],
          "internalType": "struct INonfungiblePositionManager.CollectParams",
          "name": "params",
          "type": "tuple"
        }
      ],
      "name": "collectPositionFees",
      "outputs": [],
      "stateMutability": "nonpayable",
      "type": "function"
    },
    {
      "inputs": [
        {
          "components": [
            {
              "internalType": "address",
              "name": "token0",
              "type": "address"
            },
            {
              "internalType": "address",
              "name": "token1",
              "type": "address"
            },
            {
              "internalType": "uint24",
              "name": "fee",
              "type": "uint24"
            },
            {
              "internalType": "int24",
              "name": "tickLower",
              "type": "int24"
            },
            {
              "internalType": "int24",
              "name": "tickUpper",
              "type": "int24"
            },
            {
              "internalType": "uint256",
              "name": "amount0Desired",
              "type": "uint256"
            },
            {
              "internalType": "uint256",
              "name": "amount1Desired",
              "type": "uint256"
            },
            {
              "internalType": "uint256",
              "name": "amount0Min",
              "type": "uint256"
            },
            {
              "internalType": "uint256",
              "name": "amount1Min",
              "type": "uint256"
            },
            {
              "internalType": "address",
              "name": "recipient",
              "type": "address"
            },
            {
              "internalType": "uint256",
              "name": "deadline",
              "type": "uint256"
            }
          ],
          "internalType": "struct INonfungiblePositionManager.MintParams",
          "name": "params",
          "type": "tuple"
        },
        {
          "internalType": "uint32",
          "name": "ui",
          "type": "uint32"
        }
      ],
      "name": "createLiquidityPosition",
      "outputs": [
        {
          "internalType": "uint256",
          "name": "nftTokenID",
          "type": "uint256"
        },
        {
          "internalType": "uint128",
          "name": "liquidity",
          "type": "uint128"
        }
      ],
      "stateMutability": "payable",
      "type": "function"
    },
    {
      "inputs": [],
      "name": "currentPeriod",
      "outputs": [
        {
          "internalType": "uint64",
          "name": "period",
          "type": "uint64"
        }
      ],
      "stateMutability": "view",
      "type": "function"
    },
    {
      "inputs": [
        {
          "components": [
            {
              "internalType": "uint256",
              "name": "tokenId",
              "type": "uint256"
            },
            {
              "internalType": "uint128",
              "name": "liquidity",
              "type": "uint128"
            },
            {
              "internalType": "uint256",
              "name": "amount0Min",
              "type": "uint256"
            },
            {
              "internalType": "uint256",
              "name": "amount1Min",
              "type": "uint256"
            },
            {
              "internalType": "uint256",
              "name": "deadline",
              "type": "uint256"
            }
          ],
          "internalType": "struct INonfungiblePositionManager.DecreaseLiquidityParams",
          "name": "params",
          "type": "tuple"
        },
        {
          "internalType": "uint32",
          "name": "ui",
          "type": "uint32"
        }
      ],
      "name": "decreaseLiquidityPosition",
      "outputs": [
        {
          "internalType": "uint256",
          "name": "amount0",
          "type": "uint256"
        },
        {
          "internalType": "uint256",
          "name": "amount1",
          "type": "uint256"
        }
      ],
      "stateMutability": "nonpayable",
      "type": "function"
    },
    {
      "inputs": [],
      "name": "deployer",
      "outputs": [
        {
          "internalType": "address",
          "name": "",
          "type": "address"
        }
      ],
      "stateMutability": "view",
      "type": "function"
    },
    {
      "inputs": [
        {
          "internalType": "contract IUniswapV3Pool",
          "name": "_collateralPool",
          "type": "address"
        },
        {
          "internalType": "contract IUniswapV3Pool",
          "name": "_protocolPool",
          "type": "address"
        }
      ],
      "name": "finalizeInitialization",
      "outputs": [],
      "stateMutability": "nonpayable",
      "type": "function"
    },
    {
      "inputs": [],
      "name": "firstPeriod",
      "outputs": [
        {
          "internalType": "uint64",
          "name": "",
          "type": "uint64"
        }
      ],
      "stateMutability": "view",
      "type": "function"
    },
    {
      "inputs": [],
      "name": "governor",
      "outputs": [
        {
          "internalType": "contract IGovernor",
          "name": "",
          "type": "address"
        }
      ],
      "stateMutability": "view",
      "type": "function"
    },
    {
      "inputs": [
        {
          "components": [
            {
              "internalType": "uint256",
              "name": "tokenId",
              "type": "uint256"
            },
            {
              "internalType": "uint256",
              "name": "amount0Desired",
              "type": "uint256"
            },
            {
              "internalType": "uint256",
              "name": "amount1Desired",
              "type": "uint256"
            },
            {
              "internalType": "uint256",
              "name": "amount0Min",
              "type": "uint256"
            },
            {
              "internalType": "uint256",
              "name": "amount1Min",
              "type": "uint256"
            },
            {
              "internalType": "uint256",
              "name": "deadline",
              "type": "uint256"
            }
          ],
          "internalType": "struct INonfungiblePositionManager.IncreaseLiquidityParams",
          "name": "params",
          "type": "tuple"
        },
        {
          "internalType": "uint32",
          "name": "ui",
          "type": "uint32"
        }
      ],
      "name": "increaseLiquidityPosition",
      "outputs": [
        {
          "internalType": "uint128",
          "name": "liquidity",
          "type": "uint128"
        }
      ],
      "stateMutability": "payable",
      "type": "function"
    },
    {
      "inputs": [
        {
          "internalType": "contract IGovernor",
          "name": "_governor",
          "type": "address"
        }
      ],
      "name": "init",
      "outputs": [],
      "stateMutability": "nonpayable",
      "type": "function"
    },
    {
      "inputs": [],
      "name": "lastPeriodGlobalRewardsAccrued",
      "outputs": [
        {
          "internalType": "uint64",
          "name": "",
          "type": "uint64"
        }
      ],
      "stateMutability": "view",
      "type": "function"
    },
    {
      "inputs": [
        {
          "internalType": "contract IUniswapV3Pool",
          "name": "pool",
          "type": "address"
        },
        {
          "internalType": "uint256[]",
          "name": "nftTokenIDs",
          "type": "uint256[]"
        }
      ],
      "name": "liquidateOutofRangePositions",
      "outputs": [],
      "stateMutability": "nonpayable",
      "type": "function"
    },
    {
      "inputs": [],
      "name": "liquidationPenalty",
      "outputs": [
        {
          "internalType": "uint64",
          "name": "",
          "type": "uint64"
        }
      ],
      "stateMutability": "view",
      "type": "function"
    },
    {
      "inputs": [],
      "name": "maxLiquidityDecreasePerPeriod",
      "outputs": [
        {
          "internalType": "uint64",
          "name": "",
          "type": "uint64"
        }
      ],
      "stateMutability": "view",
      "type": "function"
    },
    {
      "inputs": [],
      "name": "minHueCountPerPosition",
      "outputs": [
        {
          "internalType": "uint128",
          "name": "",
          "type": "uint128"
        }
      ],
      "stateMutability": "view",
      "type": "function"
    },
    {
      "inputs": [
        {
          "internalType": "contract IUniswapV3Pool",
          "name": "",
          "type": "address"
        }
      ],
      "name": "minLiquidityByPeriod",
      "outputs": [
        {
          "internalType": "uint64",
          "name": "period",
          "type": "uint64"
        },
        {
          "internalType": "uint192",
          "name": "minLiquidity",
          "type": "uint192"
        }
      ],
      "stateMutability": "view",
      "type": "function"
    },
    {
      "inputs": [],
      "name": "minLiquidityProvideDuration",
      "outputs": [
        {
          "internalType": "uint64",
          "name": "",
          "type": "uint64"
        }
      ],
      "stateMutability": "view",
      "type": "function"
    },
    {
      "inputs": [],
      "name": "periodLength",
      "outputs": [
        {
          "internalType": "uint64",
          "name": "",
          "type": "uint64"
        }
      ],
      "stateMutability": "view",
      "type": "function"
    },
    {
      "inputs": [
        {
          "internalType": "uint16",
          "name": "",
          "type": "uint16"
        }
      ],
      "name": "poolConfigForPoolID",
      "outputs": [
        {
          "internalType": "contract IUniswapV3Pool",
          "name": "pool",
          "type": "address"
        },
        {
          "internalType": "uint64",
          "name": "rewardsPortion",
          "type": "uint64"
        }
      ],
      "stateMutability": "view",
      "type": "function"
    },
    {
      "inputs": [
        {
          "internalType": "contract IUniswapV3Pool",
          "name": "",
          "type": "address"
        }
      ],
      "name": "poolIDForPool",
      "outputs": [
        {
          "internalType": "uint16",
          "name": "",
          "type": "uint16"
        }
      ],
      "stateMutability": "view",
      "type": "function"
    },
    {
      "inputs": [
        {
          "internalType": "uint256",
          "name": "nftTokenID",
          "type": "uint256"
        }
      ],
      "name": "removeKickback",
      "outputs": [],
      "stateMutability": "nonpayable",
      "type": "function"
    },
    {
      "inputs": [
        {
          "components": [
            {
              "internalType": "uint256",
              "name": "tokenId",
              "type": "uint256"
            },
            {
              "internalType": "uint128",
              "name": "liquidity",
              "type": "uint128"
            },
            {
              "internalType": "uint256",
              "name": "amount0Min",
              "type": "uint256"
            },
            {
              "internalType": "uint256",
              "name": "amount1Min",
              "type": "uint256"
            },
            {
              "internalType": "uint256",
              "name": "deadline",
              "type": "uint256"
            }
          ],
          "internalType": "struct INonfungiblePositionManager.DecreaseLiquidityParams",
          "name": "params",
          "type": "tuple"
        }
      ],
      "name": "removeLiquidityPosition",
      "outputs": [
        {
          "internalType": "uint256",
          "name": "amount0",
          "type": "uint256"
        },
        {
          "internalType": "uint256",
          "name": "amount1",
          "type": "uint256"
        }
      ],
      "stateMutability": "nonpayable",
      "type": "function"
    },
    {
      "inputs": [
        {
          "internalType": "uint64",
          "name": "penalty",
          "type": "uint64"
        }
      ],
      "name": "setLiquidationPenalty",
      "outputs": [],
      "stateMutability": "nonpayable",
      "type": "function"
    },
    {
      "inputs": [
        {
          "internalType": "uint64",
          "name": "decreasePortion",
          "type": "uint64"
        }
      ],
      "name": "setMaxLiquidityDecreasePerPeriod",
      "outputs": [],
      "stateMutability": "nonpayable",
      "type": "function"
    },
    {
      "inputs": [
        {
          "internalType": "uint128",
          "name": "min",
          "type": "uint128"
        }
      ],
      "name": "setMinHueCountPerPosition",
      "outputs": [],
      "stateMutability": "nonpayable",
      "type": "function"
    },
    {
      "inputs": [
        {
          "internalType": "uint64",
          "name": "min",
          "type": "uint64"
        }
      ],
      "name": "setMinLiquidityProvideDuration",
      "outputs": [],
      "stateMutability": "nonpayable",
      "type": "function"
    },
    {
      "inputs": [
        {
          "internalType": "uint32",
          "name": "duration",
          "type": "uint32"
        }
      ],
      "name": "setTwapDuration",
      "outputs": [],
      "stateMutability": "nonpayable",
      "type": "function"
    },
    {
      "inputs": [],
      "name": "stop",
      "outputs": [],
      "stateMutability": "nonpayable",
      "type": "function"
    },
    {
      "inputs": [],
      "name": "stopped",
      "outputs": [
        {
          "internalType": "bool",
          "name": "",
          "type": "bool"
        }
      ],
      "stateMutability": "view",
      "type": "function"
    },
    {
      "inputs": [],
      "name": "twapDuration",
      "outputs": [
        {
          "internalType": "uint32",
          "name": "",
          "type": "uint32"
        }
      ],
      "stateMutability": "view",
      "type": "function"
    },
    {
      "inputs": [
        {
          "internalType": "uint16",
          "name": "poolID",
          "type": "uint16"
        },
        {
          "internalType": "uint64",
          "name": "incentive",
          "type": "uint64"
        }
      ],
      "name": "updatePoolIncentive",
      "outputs": [],
      "stateMutability": "nonpayable",
      "type": "function"
    },
    {
      "inputs": [
        {
          "internalType": "bytes4",
          "name": "",
          "type": "bytes4"
        }
      ],
      "name": "validUpdate",
      "outputs": [
        {
          "internalType": "bool",
          "name": "",
          "type": "bool"
        }
      ],
      "stateMutability": "view",
      "type": "function"
    }
  ],
  "bytecode": "0x61012060405260016006600050909055670905438e60010000600760006101000a81548167ffffffffffffffff021916908367ffffffffffffffff16021790555067016345785d8a0000600760086101000a81548167ffffffffffffffff021916908367ffffffffffffffff16021790555066d529ae9e860000600760106101000a81548167ffffffffffffffff021916908367ffffffffffffffff160217905550610708600760186101000a81548167ffffffffffffffff021916908367ffffffffffffffff160217905550686c6b935b8bbd400000600860006101000a8154816fffffffffffffffffffffffffffffffff02191690836fffffffffffffffffffffffffffffffff160217905550610708600860186101000a81548163ffffffff021916908363ffffffff1602179055506000600a60006101000a81548161ffff021916908361ffff1602179055503480156200015d5760006000fd5b5060405162007f1938038062007f198339818101604052810190620001839190620003b7565b5b6138405b5b33600160006101000a81548173ffffffffffffffffffffffffffffffffffffffff021916908373ffffffffffffffffffffffffffffffffffffffff1602179055505b60018167ffffffffffffffff16620001e8620002fc60201b60201c565b67ffffffffffffffff16811515620001fc57fe5b040367ffffffffffffffff1660a08167ffffffffffffffff1660c01b815260080150508067ffffffffffffffff1660808167ffffffffffffffff1660c01b815260080150505b508273ffffffffffffffffffffffffffffffffffffffff1660e08173ffffffffffffffffffffffffffffffffffffffff1660601b815260140150508173ffffffffffffffffffffffffffffffffffffffff166101008173ffffffffffffffffffffffffffffffffffffffff1660601b815260140150508073ffffffffffffffffffffffffffffffffffffffff1660c08173ffffffffffffffffffffffffffffffffffffffff1660601b815260140150505b5050506200042c565b600062000316426200031e60201b620023f617909060201c565b905080505b90565b60006801000000000000000082101515620003a4576040517f08c379a00000000000000000000000000000000000000000000000000000000081526004018080602001828103825260118152602001807f6d6f7265207468616e203634206269747300000000000000000000000000000081526020015060200191505060405180910390fd5b819050620003ad565b919050566200042b565b60006000600060608486031215620003cd578283fd5b8351620003da816200040e565b809350506020840151620003ee816200040e565b80925050604084015162000402816200040e565b809150505b9250925092565b6001600160a01b03811681141515620004275760006000fd5b5b50565b5b60805160c01c60a05160c01c60c05160601c60e05160601c6101005160601c617a62620004b760003980611722525080610f545280612d525280613d135280613ff252806140e9528061442852806144e35280614e79525080615339528061539c5250806121065280612f9e52806149ff52508061212a5280612fbf5280614a205250617a626000f3fe6080604052600436106102535760003560e01c806349447c0011610138578063c4e3a63b116100b0578063e2e824751161007f578063f4d8977f11610064578063f4d8977f14610816578063fbc3a64314610855578063fbff7efd1461088157610253565b8063e2e82475146107be578063eeb90ad1146107ea57610253565b8063c4e3a63b14610710578063d2ca21151461073c578063d5f3948814610768578063de8925f51461079457610253565b806361928ecf1161010757806375f12b21116100ec57806375f12b2114610690578063ae540fb1146106bc578063c433c80a146106e657610253565b806361928ecf1461063c5780636bb0d4851461066657610253565b806349447c00146105655780634b829573146105a457806350b40400146105e2578063616118901461061257610253565b806315398ae7116101cb57806323f5589a1161019a57806326d895451161017f57806326d89545146104e557806328d10de8146105115780633e9483721461053b57610253565b806323f5589a14610488578063265e8a64146104b457610253565b806315398ae7146103dd57806317c13df61461041c57806319ab453c146104465780631afdbce41461047057610253565b80630a86f109116102225780630dae9f52116102075780630dae9f5214610349578063113cf1ab146103755780631421b91c146103b357610253565b80630a86f109146102f15780630c340a241461031d57610253565b8063039d10e814610259578063060406181461028357806307da68f5146102af57806309076531146102c757610253565b60006000fd5b3480156102665760006000fd5b50610281600480360381019061027c91906165fc565b6108c0565b005b3480156102905760006000fd5b50610299610d12565b6040516102a691906178de565b60405180910390f35b3480156102bc5760006000fd5b506102c5610d2a565b005b3480156102d45760006000fd5b506102ef60048036038101906102ea9190616c84565b610d4a565b005b3480156102fe5760006000fd5b50610307610df2565b60405161031491906178de565b60405180910390f35b34801561032a5760006000fd5b50610333610e0c565b6040516103409190617006565b60405180910390f35b3480156103565760006000fd5b5061035f610e32565b60405161036c91906178de565b60405180910390f35b3480156103825760006000fd5b5061039d600480360381019061039891906164c5565b610e4c565b6040516103aa9190616ff2565b60405180910390f35b3480156103c05760006000fd5b506103db60048036038101906103d69190616724565b610e71565b005b3480156103ea5760006000fd5b50610405600480360381019061040091906167a5565b61106e565b604051610413929190617856565b60405180910390f35b3480156104295760006000fd5b50610444600480360381019061043f9190616685565b611153565b005b3480156104535760006000fd5b5061046e60048036038101906104699190616539565b61128e565b005b34801561047d5760006000fd5b506104866116a0565b005b3480156104955760006000fd5b5061049e6116dd565b6040516104ab91906178de565b60405180910390f35b6104ce60048036038101906104c991906168b6565b6116f7565b6040516104dc92919061782b565b60405180910390f35b3480156104f25760006000fd5b506104fb6118ec565b60405161050891906178aa565b60405180910390f35b34801561051e5760006000fd5b5061053960048036038101906105349190616b4d565b611902565b005b3480156105485760006000fd5b50610563600480360381019061055e9190616b89565b6119fe565b005b3480156105725760006000fd5b5061058d600480360381019061058891906165d5565b611af0565b60405161059b9291906178fa565b60405180910390f35b3480156105b15760006000fd5b506105cc60048036038101906105c791906165d5565b611b4f565b6040516105d991906176c7565b60405180910390f35b6105fc60048036038101906105f79190616877565b611b75565b604051610609919061767f565b60405180910390f35b34801561061f5760006000fd5b5061063a600480360381019061063591906166c1565b611c4a565b005b3480156106495760006000fd5b50610664600480360381019061065f9190616c2c565b611cc0565b005b3480156106735760006000fd5b5061068e60048036038101906106899190616c84565b611ee4565b005b34801561069d5760006000fd5b506106a6611f6b565b6040516106b39190616ff2565b60405180910390f35b3480156106c95760006000fd5b506106e460048036038101906106df9190616c84565b611f7e565b005b3480156106f35760006000fd5b5061070e60048036038101906107099190616c5d565b61206d565b005b34801561071d5760006000fd5b50610726612104565b60405161073391906178de565b60405180910390f35b3480156107495760006000fd5b50610752612128565b60405161075f91906178de565b60405180910390f35b3480156107755760006000fd5b5061077e61214c565b60405161078b9190616f2d565b60405180910390f35b3480156107a15760006000fd5b506107bc60048036038101906107b79190616ac5565b612172565b005b3480156107cb5760006000fd5b506107d4612209565b6040516107e191906178de565b60405180910390f35b3480156107f75760006000fd5b50610800612223565b60405161080d91906178de565b60405180910390f35b3480156108235760006000fd5b5061083e600480360381019061083991906167c9565b61223d565b60405161084c929190617856565b60405180910390f35b3480156108625760006000fd5b5061086b612379565b604051610878919061767f565b60405180910390f35b34801561088e5760006000fd5b506108a960048036038101906108a49190616b26565b61239b565b6040516108b7929190617138565b60405180910390f35b6108ce61248863ffffffff16565b6108dc61256763ffffffff16565b6000600c60005060008573ffffffffffffffffffffffffffffffffffffffff1673ffffffffffffffffffffffffffffffffffffffff16815260200190815260200160002060009054906101000a900461ffff16905060008161ffff1611151561097a576040517f08c379a000000000000000000000000000000000000000000000000000000000815260040161097190617227565b60405180910390fd5b6000339050610987616283565b600085859050905060008773ffffffffffffffffffffffffffffffffffffffff16630dfe16816040518163ffffffff1660e01b815260040160206040518083038186803b1580156109d85760006000fd5b505afa1580156109ed573d600060003e3d6000fd5b505050506040513d601f19601f82011682018060405250810190610a119190616471565b905060008873ffffffffffffffffffffffffffffffffffffffff1663d21220a76040518163ffffffff1660e01b815260040160206040518083038186803b158015610a5c5760006000fd5b505afa158015610a71573d600060003e3d6000fd5b505050506040513d601f19601f82011682018060405250810190610a959190616471565b90506000600060006040518060400160405280600115158152602001610ac08e61265c63ffffffff16565b60020b81526020015090506000600090505b86811015610cf257600260009054906101000a900473ffffffffffffffffffffffffffffffffffffffff1673ffffffffffffffffffffffffffffffffffffffff1663f34348f18d8d848181101515610b2657fe5b905060200201356040518263ffffffff1660e01b8152600401610b499190617705565b6101806040518083038186803b158015610b635760006000fd5b505afa158015610b78573d600060003e3d6000fd5b505050506040513d601f19601f82011682018060405250810190610b9c9190616997565b975087508961ffff16886020015161ffff16141515610bba57610ce5565b610bce8883602001516127aa63ffffffff16565b15610bd857610ce5565b610c64610bea896127dd63ffffffff16565b6040518060a001604052808f8f868181101515610c0357fe5b9050602002013581526020018b60a001516fffffffffffffffffffffffffffffffff1681526020016000815260200160008152602001610c47612bd063ffffffff16565b67ffffffffffffffff168152602001503085612beb63ffffffff16565b8094508195505050610c81868a8a60000151612df563ffffffff16565b610c96858a8a60000151612df563ffffffff16565b8b8b828181101515610ca457fe5b905060200201357fd606f13f519715bb4411edb6272f4f71cbf32d833557d19f0dfcf5a4b7f342968585604051610cdc929190617856565b60405180910390a25b8080600101915050610ad2565b505050505050505050505b5b610d0c612f0663ffffffff16565b5b505050565b6000610d22612f9a63ffffffff16565b905080505b90565b610d3861301363ffffffff16565b610d466130a863ffffffff16565b5b5b565b610d5861301363ffffffff16565b6706f05b59d3b200008167ffffffffffffffff16101515610d795760006000fd5b80600760106101000a81548167ffffffffffffffff021916908367ffffffffffffffff160217905550604051610dae90616e38565b60405180910390207f8c68b65494af3e62909307c1f245424bec70c9d997e783ed41fdee7f54d7b4c082604051610de591906178c2565b60405180910390a25b5b50565b600760009054906101000a900467ffffffffffffffff1681565b600060009054906101000a900473ffffffffffffffffffffffffffffffffffffffff1681565b600860109054906101000a900467ffffffffffffffff1681565b600560005060205280600052604060002060009150909054906101000a900460ff1681565b610e7f61248863ffffffff16565b610e8d6130f263ffffffff16565b610f4e600260009054906101000a900473ffffffffffffffffffffffffffffffffffffffff1673ffffffffffffffffffffffffffffffffffffffff16631a206e918360000151336040518363ffffffff1660e01b8152600401610ef1929190617717565b60206040518083038186803b158015610f0a5760006000fd5b505afa158015610f1f573d600060003e3d6000fd5b505050506040513d601f19601f82011682018060405250810190610f439190616498565b61314763ffffffff16565b600060007f000000000000000000000000000000000000000000000000000000000000000073ffffffffffffffffffffffffffffffffffffffff1663fc6f7865846040518263ffffffff1660e01b8152600401610fab91906174dc565b604060405180830381600087803b158015610fc65760006000fd5b505af1158015610fdb573d600060003e3d6000fd5b505050506040513d601f19601f82011682018060405250810190610fff9190616c06565b9150915082600001513373ffffffffffffffffffffffffffffffffffffffff167facf5781f729863816d01e6d77635b13f2998b176b9a3550306ac6363f601bc2b8484604051611050929190617856565b60405180910390a350505b5b61106a612f0663ffffffff16565b5b50565b6000600061108061248863ffffffff16565b61108e6130f263ffffffff16565b60006110a3846000013561318d63ffffffff16565b90506110b881608001516132a363ffffffff16565b6110eb81858036038101906110cd9190616802565b83600001516110e06132eb63ffffffff16565b612beb63ffffffff16565b809350819450505083600001357f1bd2c24817047e88025a4688c0fba3903e750cc05d80857de4201f42ec59bcf28484604051611129929190617856565b60405180910390a28282925092505061113e56505b5b61114d612f0663ffffffff16565b5b915091565b600160149054906101000a900460ff16801561117b5750600160159054906101000a900460ff165b80156111d45750600160009054906101000a900473ffffffffffffffffffffffffffffffffffffffff1673ffffffffffffffffffffffffffffffffffffffff163373ffffffffffffffffffffffffffffffffffffffff16145b15156111e05760006000fd5b600160006101000a81549073ffffffffffffffffffffffffffffffffffffffff0219169055600160156101000a81549060ff0219169055600161ffff1661122f83610bb86132f763ffffffff16565b61ffff16141515611275576040517f08c379a000000000000000000000000000000000000000000000000000000000815260040161126c9061749d565b60405180910390fd5b611287816103e86132f763ffffffff16565b505b5b5050565b600160009054906101000a900473ffffffffffffffffffffffffffffffffffffffff1673ffffffffffffffffffffffffffffffffffffffff163373ffffffffffffffffffffffffffffffffffffffff161415156112eb5760006000fd5b600160159054906101000a900460ff161515156113085760006000fd5b80600060006101000a81548173ffffffffffffffffffffffffffffffffffffffff021916908373ffffffffffffffffffffffffffffffffffffffff160217905550600060009054906101000a900473ffffffffffffffffffffffffffffffffffffffff1673ffffffffffffffffffffffffffffffffffffffff16639624e83e6040518163ffffffff1660e01b815260040160206040518083038186803b1580156113b25760006000fd5b505afa1580156113c7573d600060003e3d6000fd5b505050506040513d601f19601f820116820180604052508101906113eb9190616512565b600260006101000a81548173ffffffffffffffffffffffffffffffffffffffff021916908373ffffffffffffffffffffffffffffffffffffffff160217905550600060009054906101000a900473ffffffffffffffffffffffffffffffffffffffff1673ffffffffffffffffffffffffffffffffffffffff1663323741746040518163ffffffff1660e01b815260040160206040518083038186803b1580156114945760006000fd5b505afa1580156114a9573d600060003e3d6000fd5b505050506040513d601f19601f820116820180604052508101906114cd9190616560565b600360006101000a81548173ffffffffffffffffffffffffffffffffffffffff021916908373ffffffffffffffffffffffffffffffffffffffff160217905550600060009054906101000a900473ffffffffffffffffffffffffffffffffffffffff1673ffffffffffffffffffffffffffffffffffffffff1663d478b0876040518163ffffffff1660e01b815260040160206040518083038186803b1580156115765760006000fd5b505afa15801561158b573d600060003e3d6000fd5b505050506040513d601f19601f820116820180604052508101906115af91906165ae565b600460006101000a81548173ffffffffffffffffffffffffffffffffffffffff021916908373ffffffffffffffffffffffffffffffffffffffff1602179055506115fd61365563ffffffff16565b600160149054906101000a900460ff16151561163d57600160006101000a81549073ffffffffffffffffffffffffffffffffffffffff0219169055611659565b6001600160156101000a81548160ff0219169083151502179055505b8073ffffffffffffffffffffffffffffffffffffffff167f908408e307fc569b417f6cbec5d5a06f44a0a505ac0479b47d421a4b2fd6a1e660405160405180910390a25b50565b6116ae61248863ffffffff16565b6116bc6130f263ffffffff16565b6116ca61393763ffffffff16565b5b5b6116da612f0663ffffffff16565b5b565b600760109054906101000a900467ffffffffffffffff1681565b6000600061170961248863ffffffff16565b61171761256763ffffffff16565b6000600c60005060007f000000000000000000000000000000000000000000000000000000000000000073ffffffffffffffffffffffffffffffffffffffff16631698ee82886000015189602001518a604001516040518463ffffffff1660e01b815260040161178993929190616f84565b60206040518083038186803b1580156117a25760006000fd5b505afa1580156117b7573d600060003e3d6000fd5b505050506040513d601f19601f820116820180604052508101906117db9190616471565b73ffffffffffffffffffffffffffffffffffffffff1673ffffffffffffffffffffffffffffffffffffffff16815260200190815260200160002060009054906101000a900461ffff16905061183581613bfd63ffffffff16565b61184485613c6e63ffffffff16565b80935081945050506118688382876060015188608001518689613df263ffffffff16565b828161ffff163373ffffffffffffffffffffffffffffffffffffffff167f87c666eb8f5e2d1a47a2af419127c84ea830d86b5f75e12ca3dafa33323d912288606001518960800151876040516118c093929190617171565b60405180910390a4828292509250506118d556505b5b6118e4612f0663ffffffff16565b5b9250929050565b600860189054906101000a900463ffffffff1681565b61191061301363ffffffff16565b61191f82613bfd63ffffffff16565b80600b60005060008461ffff1661ffff16815260200190815260200160002060005060000160146101000a81548167ffffffffffffffff021916908367ffffffffffffffff160217905550600061197a613f4d63ffffffff16565b1115156119bc576040517f08c379a00000000000000000000000000000000000000000000000000000000081526004016119b390617362565b60405180910390fd5b8161ffff167fcf476913af040a8c0a50588902fc980c73de756444694afb625e05906334404f826040516119f091906178de565b60405180910390a25b5b5050565b611a0c61248863ffffffff16565b611a1a61256763ffffffff16565b6000611a2b8261318d63ffffffff16565b9050600081610120019063ffffffff16908163ffffffff1681526020015050600260009054906101000a900473ffffffffffffffffffffffffffffffffffffffff1673ffffffffffffffffffffffffffffffffffffffff1663816aaa2583836040518363ffffffff1660e01b8152600401611aa7929190617746565b600060405180830381600087803b158015611ac25760006000fd5b505af1158015611ad7573d600060003e3d6000fd5b50505050505b5b611aec612f0663ffffffff16565b5b50565b60096000506020528060005260406000206000915090508060000160009054906101000a900467ffffffffffffffff16908060000160089054906101000a900477ffffffffffffffffffffffffffffffffffffffffffffffff16905082565b600c60005060205280600052604060002060009150909054906101000a900461ffff1681565b6000611b8561248863ffffffff16565b611b9361256763ffffffff16565b6000611ba8846000013561318d63ffffffff16565b90508281610120019063ffffffff16908163ffffffff1681526020015050611bd584613fea63ffffffff16565b91508150611bee818560000135846141c663ffffffff16565b83600001357fcc5b49b47bfd2f61894e4c8977343543aa054a11ae847be904355459ce55dcd983604051611c22919061767f565b60405180910390a281915050611c3456505b5b611c43612f0663ffffffff16565b5b92915050565b611c5861301363ffffffff16565b611c6882826132f763ffffffff16565b61ffff168273ffffffffffffffffffffffffffffffffffffffff167fb42c51dce17f5346a481b9dd503edc20c8b6de38b22e12b35a5c77c131fb38ac83604051611cb291906178de565b60405180910390a35b5b5050565b611cce61248863ffffffff16565b611cdc6130f263ffffffff16565b6000600260009054906101000a900473ffffffffffffffffffffffffffffffffffffffff1673ffffffffffffffffffffffffffffffffffffffff1663f34348f1846040518263ffffffff1660e01b8152600401611d399190617705565b6101806040518083038186803b158015611d535760006000fd5b505afa158015611d68573d600060003e3d6000fd5b505050506040513d601f19601f82011682018060405250810190611d8c9190616997565b9050611dcf816000015173ffffffffffffffffffffffffffffffffffffffff163373ffffffffffffffffffffffffffffffffffffffff161461314763ffffffff16565b8181610120019063ffffffff16908163ffffffff1681526020015050600260009054906101000a900473ffffffffffffffffffffffffffffffffffffffff1673ffffffffffffffffffffffffffffffffffffffff1663816aaa2584611e39846127dd63ffffffff16565b6040518363ffffffff1660e01b8152600401611e56929190617746565b600060405180830381600087803b158015611e715760006000fd5b505af1158015611e86573d600060003e3d6000fd5b50505050823373ffffffffffffffffffffffffffffffffffffffff167f8fb2e91976a5634cf8907065151b1b2d77e06915cfecb26cb82f8d926e8d98d960405160405180910390a3505b5b611edf612f0663ffffffff16565b5b5050565b611ef261301363ffffffff16565b80600760186101000a81548167ffffffffffffffff021916908367ffffffffffffffff160217905550604051611f2790616efc565b60405180910390207f8c68b65494af3e62909307c1f245424bec70c9d997e783ed41fdee7f54d7b4c082604051611f5e91906178c2565b60405180910390a25b5b50565b600060149054906101000a900460ff1681565b611f8c61301363ffffffff16565b80600760086101000a81548167ffffffffffffffff021916908367ffffffffffffffff160217905550600760089054906101000a900467ffffffffffffffff1667ffffffffffffffff166000101515611fe55760006000fd5b670de0b6b3a7640000600760089054906101000a900467ffffffffffffffff1667ffffffffffffffff161115151561201d5760006000fd5b60405161202990616ecb565b60405180910390207f8c68b65494af3e62909307c1f245424bec70c9d997e783ed41fdee7f54d7b4c08260405161206091906178c2565b60405180910390a25b5b50565b61207b61301363ffffffff16565b61012c8163ffffffff16101515156120935760006000fd5b80600860186101000a81548163ffffffff021916908363ffffffff1602179055506040516120c090616e9a565b60405180910390207f182c40dc868824a9ba74a72504cd7ec63c58ed862a8ffe9f935d6ff47bd37314826040516120f79190617892565b60405180910390a25b5b50565b7f000000000000000000000000000000000000000000000000000000000000000081565b7f000000000000000000000000000000000000000000000000000000000000000081565b600160009054906101000a900473ffffffffffffffffffffffffffffffffffffffff1681565b61218061301363ffffffff16565b80600860006101000a8154816fffffffffffffffffffffffffffffffff02191690836fffffffffffffffffffffffffffffffff1602179055506040516121c590616e69565b60405180910390207f5dcbeda12d93d481d59e4737a9a13ecea80702296bebdded1a20a76d645829c2826040516121fc91906176a3565b60405180910390a25b5b50565b600760089054906101000a900467ffffffffffffffff1681565b600760189054906101000a900467ffffffffffffffff1681565b6000600061224f61248863ffffffff16565b61225d61256763ffffffff16565b6000612272856000013561318d63ffffffff16565b905061228781608001516132a363ffffffff16565b8381610120019063ffffffff16908163ffffffff16815260200150506122c2858036038101906122b79190616802565b61442263ffffffff16565b80935081945050506122e2856000013582600001516144e163ffffffff16565b6123178186600001358760200160208101906122fe9190616ac5565b61230c6132eb63ffffffff16565b61461263ffffffff16565b84600001357ffafb1711250bf0d3906bfd9c4386a9a5a5fdf9ac1facdc9dfd2addad7d3f72e7848460405161234d929190617856565b60405180910390a28182925092505061236256505b5b612371612f0663ffffffff16565b5b9250929050565b600860009054906101000a90046fffffffffffffffffffffffffffffffff1681565b600b6000506020528060005260406000206000915090508060000160009054906101000a900473ffffffffffffffffffffffffffffffffffffffff16908060000160149054906101000a900467ffffffffffffffff16905082565b6000680100000000000000008210151561247b576040517f08c379a00000000000000000000000000000000000000000000000000000000081526004018080602001828103825260118152602001807f6d6f7265207468616e203634206269747300000000000000000000000000000081526020015060200191505060405180910390fd5b819050612483565b919050565b600460009054906101000a900473ffffffffffffffffffffffffffffffffffffffff1673ffffffffffffffffffffffffffffffffffffffff1663e97dcb626040518163ffffffff1660e01b8152600401600060405180830381600087803b1580156124f35760006000fd5b505af1158015612508573d600060003e3d6000fd5b50505050600260066000505414151515612557576040517f08c379a000000000000000000000000000000000000000000000000000000000815260040161254e90617323565b60405180910390fd5b600260066000508190909055505b565b6125756130f263ffffffff16565b600060009054906101000a900473ffffffffffffffffffffffffffffffffffffffff1673ffffffffffffffffffffffffffffffffffffffff1663bf86d6906040518163ffffffff1660e01b815260040160206040518083038186803b1580156125de5760006000fd5b505afa1580156125f3573d600060003e3d6000fd5b505050506040513d601f19601f820116820180604052508101906126179190616498565b151515612659576040517f08c379a0000000000000000000000000000000000000000000000000000000008152600401612650906171a9565b60405180910390fd5b5b565b6000600060009054906101000a900473ffffffffffffffffffffffffffffffffffffffff1673ffffffffffffffffffffffffffffffffffffffff1663d3419bf36040518163ffffffff1660e01b815260040160206040518083038186803b1580156126c75760006000fd5b505afa1580156126dc573d600060003e3d6000fd5b505050506040513d601f19601f820116820180604052508101906127009190616587565b73ffffffffffffffffffffffffffffffffffffffff1663fcebd71c83600860189054906101000a900463ffffffff166040518363ffffffff1660e01b815260040161274c929190617103565b60206040518083038186803b1580156127655760006000fd5b505afa15801561277a573d600060003e3d6000fd5b505050506040513d601f19601f8201168201806040525081019061279e91906166fd565b90506127a5565b919050565b60008160020b8360e0015160020b131580156127d0575082610100015160020b8260020b125b90506127d7565b92915050565b6127e5616283565b60006127f56148f763ffffffff16565b90506000612808826149f863ffffffff16565b905060008460c001519050600060008267ffffffffffffffff161461283b57612836826149f863ffffffff16565b61283e565b60005b90508067ffffffffffffffff168367ffffffffffffffff161115156128695785945050505050612bcb565b61287761393763ffffffff16565b600061293a87600260009054906101000a900473ffffffffffffffffffffffffffffffffffffffff1673ffffffffffffffffffffffffffffffffffffffff166351ad51f78a602001516040518263ffffffff1660e01b81526004016128dc91906176c7565b60406040518083038186803b1580156128f55760006000fd5b505afa15801561290a573d600060003e3d6000fd5b505050506040513d601f19601f8201168201806040525081019061292e9190616a79565b87614a8063ffffffff16565b80925081975050506000811115612bb957600073ffffffffffffffffffffffffffffffffffffffff1686610140015173ffffffffffffffffffffffffffffffffffffffff161415801561299c5750600086610160015167ffffffffffffffff16115b15612acd5760006129c587610160015167ffffffffffffffff1683614bb890919063ffffffff16565b9050600060009054906101000a900473ffffffffffffffffffffffffffffffffffffffff1673ffffffffffffffffffffffffffffffffffffffff1663ef7a7cfa886101400151836040518363ffffffff1660e01b8152600401612a29929190616fc3565b600060405180830381600087803b158015612a445760006000fd5b505af1158015612a59573d600060003e3d6000fd5b505050506001151587610140015173ffffffffffffffffffffffffffffffffffffffff167f8079a05488a0f375c08504c3ba8b3a1371f5a192b7a141bc9294ef7ad41389d983604051612aac9190617705565b60405180910390a3612ac78183614bde90919063ffffffff16565b91508150505b600060009054906101000a900473ffffffffffffffffffffffffffffffffffffffff1673ffffffffffffffffffffffffffffffffffffffff1663ef7a7cfa8760000151836040518363ffffffff1660e01b8152600401612b2e929190616fc3565b600060405180830381600087803b158015612b495760006000fd5b505af1158015612b5e573d600060003e3d6000fd5b5050505060001515866000015173ffffffffffffffffffffffffffffffffffffffff167f8079a05488a0f375c08504c3ba8b3a1371f5a192b7a141bc9294ef7ad41389d983604051612bb09190617705565b60405180910390a35b8595505050505050612bcb5650505050505b919050565b6000612be3426123f6909063ffffffff16565b905080505b90565b600060008560a0015185602001906fffffffffffffffffffffffffffffffff1690816fffffffffffffffffffffffffffffffff1681526020015050856000015173ffffffffffffffffffffffffffffffffffffffff168473ffffffffffffffffffffffffffffffffffffffff16141515612c7857612c77856000015187600001516144e163ffffffff16565b5b612c878561442263ffffffff16565b8092508193505050612ca38560000151856144e163ffffffff16565b612cbd8686600001518860a001518661461263ffffffff16565b600260009054906101000a900473ffffffffffffffffffffffffffffffffffffffff1673ffffffffffffffffffffffffffffffffffffffff166326879a4e86600001516040518263ffffffff1660e01b8152600401612d1c9190617705565b600060405180830381600087803b158015612d375760006000fd5b505af1158015612d4c573d600060003e3d6000fd5b505050507f000000000000000000000000000000000000000000000000000000000000000073ffffffffffffffffffffffffffffffffffffffff166342966c6886600001516040518263ffffffff1660e01b8152600401612dad9190617705565b600060405180830381600087803b158015612dc85760006000fd5b505af1158015612ddd573d600060003e3d6000fd5b50505050818191509150612dec565b94509492505050565b60008373ffffffffffffffffffffffffffffffffffffffff166370a08231306040518263ffffffff1660e01b8152600401612e309190616f2d565b60206040518083038186803b158015612e495760006000fd5b505afa158015612e5e573d600060003e3d6000fd5b505050506040513d601f19601f82011682018060405250810190612e829190616ba5565b90506000811415612e935750612f01565b6000612ec8600760109054906101000a900467ffffffffffffffff1667ffffffffffffffff1683614bb890919063ffffffff16565b9050612eed8584612ee28486614bde90919063ffffffff16565b614c6763ffffffff16565b612efe858583614c6763ffffffff16565b50505b505050565b60016006600050819090905550600460009054906101000a900473ffffffffffffffffffffffffffffffffffffffff1673ffffffffffffffffffffffffffffffffffffffff1663e9fad8ee6040518163ffffffff1660e01b8152600401600060405180830381600087803b158015612f7e5760006000fd5b505af1158015612f93573d600060003e3d6000fd5b505050505b565b60007f00000000000000000000000000000000000000000000000000000000000000007f000000000000000000000000000000000000000000000000000000000000000067ffffffffffffffff16612ff6612bd063ffffffff16565b67ffffffffffffffff1681151561300957fe5b0403905080505b90565b600060009054906101000a900473ffffffffffffffffffffffffffffffffffffffff1673ffffffffffffffffffffffffffffffffffffffff163373ffffffffffffffffffffffffffffffffffffffff161415156130a5576040517f08c379a000000000000000000000000000000000000000000000000000000000815260040161309c906172e4565b60405180910390fd5b5b565b6001600060146101000a81548160ff0219169083151502179055507f7acc84e34091ae817647a4c49116f5cc07f319078ba80f8f5fde37ea7e25cbd660405160405180910390a15b565b600060149054906101000a900460ff16151515613144576040517f08c379a000000000000000000000000000000000000000000000000000000000815260040161313b9061741f565b60405180910390fd5b5b565b801515613189576040517f08c379a0000000000000000000000000000000000000000000000000000000008152600401613180906172e4565b60405180910390fd5b5b50565b613195616283565b613251600260009054906101000a900473ffffffffffffffffffffffffffffffffffffffff1673ffffffffffffffffffffffffffffffffffffffff1663f34348f1846040518263ffffffff1660e01b81526004016131f39190617705565b6101806040518083038186803b15801561320d5760006000fd5b505afa158015613222573d600060003e3d6000fd5b505050506040513d601f19601f820116820180604052508101906132469190616997565b6127dd63ffffffff16565b90508050613296816000015173ffffffffffffffffffffffffffffffffffffffff163373ffffffffffffffffffffffffffffffffffffffff161461314763ffffffff16565b80905061329e565b919050565b43811015156132e7576040517f08c379a00000000000000000000000000000000000000000000000000000000081526004016132de9061745e565b60405180910390fd5b5b50565b6132f3616349565b5b90565b60006000600c60005060008573ffffffffffffffffffffffffffffffffffffffff1673ffffffffffffffffffffffffffffffffffffffff16815260200190815260200160002060009054906101000a900461ffff1661ffff16141515613392576040517f08c379a0000000000000000000000000000000000000000000000000000000008152600401613389906172a5565b60405180910390fd5b61ffff61ffff16600a600081819054906101000a900461ffff1660010191906101000a81548161ffff021916908361ffff160217905561ffff161015156133d95760006000fd5b600a60009054906101000a900461ffff169050805060405180604001604052808473ffffffffffffffffffffffffffffffffffffffff1681526020018367ffffffffffffffff16815260200150600b60005060008361ffff1661ffff16815260200190815260200160002060005060008201518160000160006101000a81548173ffffffffffffffffffffffffffffffffffffffff021916908373ffffffffffffffffffffffffffffffffffffffff16021790555060208201518160000160146101000a81548167ffffffffffffffff021916908367ffffffffffffffff16021790555090505080600c60005060008573ffffffffffffffffffffffffffffffffffffffff1673ffffffffffffffffffffffffffffffffffffffff16815260200190815260200160002060006101000a81548161ffff021916908361ffff1602179055506135ab8373ffffffffffffffffffffffffffffffffffffffff16630dfe16816040518163ffffffff1660e01b815260040160206040518083038186803b1580156135675760006000fd5b505afa15801561357c573d600060003e3d6000fd5b505050506040513d601f19601f820116820180604052508101906135a09190616471565b614e7363ffffffff16565b6136398373ffffffffffffffffffffffffffffffffffffffff1663d21220a76040518163ffffffff1660e01b815260040160206040518083038186803b1580156135f55760006000fd5b505afa15801561360a573d600060003e3d6000fd5b505050506040513d601f19601f8201168201806040525081019061362e9190616471565b614e7363ffffffff16565b61364761393763ffffffff16565b80905061364f565b92915050565b60006040518060e00160405280636161189060e01b7bffffffffffffffffffffffffffffffffffffffffffffffffffffffff19167bffffffffffffffffffffffffffffffffffffffffffffffffffffffff191681526020016328d10de860e01b7bffffffffffffffffffffffffffffffffffffffffffffffffffffffff19167bffffffffffffffffffffffffffffffffffffffffffffffffffffffff1916815260200163ae540fb160e01b7bffffffffffffffffffffffffffffffffffffffffffffffffffffffff19167bffffffffffffffffffffffffffffffffffffffffffffffffffffffff1916815260200163de8925f560e01b7bffffffffffffffffffffffffffffffffffffffffffffffffffffffff19167bffffffffffffffffffffffffffffffffffffffffffffffffffffffff1916815260200163c433c80a60e01b7bffffffffffffffffffffffffffffffffffffffffffffffffffffffff19167bffffffffffffffffffffffffffffffffffffffffffffffffffffffff19168152602001630907653160e01b7bffffffffffffffffffffffffffffffffffffffffffffffffffffffff19167bffffffffffffffffffffffffffffffffffffffffffffffffffffffff19168152602001636bb0d48560e01b7bffffffffffffffffffffffffffffffffffffffffffffffffffffffff19167bffffffffffffffffffffffffffffffffffffffffffffffffffffffff1916815260200150905060008150600790506000600090505b818110156139165760016005600050600085846007811015156138a057fe5b60200201517bffffffffffffffffffffffffffffffffffffffffffffffffffffffff19167bffffffffffffffffffffffffffffffffffffffffffffffffffffffff1916815260200190815260200160002060006101000a81548160ff0219169083151502179055505b8080600101915050613881565b506001600160146101000a81548160ff02191690831515021790555050505b565b6000613947614ec863ffffffff16565b9050600860109054906101000a900467ffffffffffffffff1667ffffffffffffffff168167ffffffffffffffff161115156139825750613bfb565b6000600860109054906101000a900467ffffffffffffffff1682039050600061384067ffffffffffffffff16620151808115156139bb57fe5b0467ffffffffffffffff16613ad08367ffffffffffffffff16613ac2613a12600760009054906101000a900467ffffffffffffffff1667ffffffffffffffff16670de0b6b3a7640000614bde90919063ffffffff16565b600060009054906101000a900473ffffffffffffffffffffffffffffffffffffffff1673ffffffffffffffffffffffffffffffffffffffff1663c375e6ed6040518163ffffffff1660e01b815260040160206040518083038186803b158015613a7b5760006000fd5b505afa158015613a90573d600060003e3d6000fd5b505050506040513d601f19601f82011682018060405250810190613ab49190616ba5565b614bb890919063ffffffff16565b614ef090919063ffffffff16565b811515613ad957fe5b0490506000600a60009054906101000a900461ffff16905060006000613b03613f4d63ffffffff16565b90506001915081505b8261ffff168261ffff16111515613b9257613b8482613b78600b60005060008661ffff1661ffff16815260200190815260200160002060005060000160149054906101000a900467ffffffffffffffff1667ffffffffffffffff168488614f8e9092919063ffffffff16565b8761508f63ffffffff16565b5b8180600101925050613b0c565b85600860106101000a81548167ffffffffffffffff021916908367ffffffffffffffff1602179055507f095a67d1e9698fe0eebf9cff79a22f6423cebcb4e386a0bdd7e12330d86381ed8486604051613bec92919061786f565b60405180910390a15050505050505b565b8061ffff166000108015613c295750600a60009054906101000a900461ffff1661ffff168161ffff1611155b1515613c6a576040517f08c379a0000000000000000000000000000000000000000000000000000000008152600401613c61906173e0565b60405180910390fd5b5b50565b600060006000836000015190506000846020015190506000339050613c9e83828860a0015161532763ffffffff16565b613cb382828860c0015161532763ffffffff16565b600260009054906101000a900473ffffffffffffffffffffffffffffffffffffffff1686610120019073ffffffffffffffffffffffffffffffffffffffff16908173ffffffffffffffffffffffffffffffffffffffff16815260200150507f000000000000000000000000000000000000000000000000000000000000000073ffffffffffffffffffffffffffffffffffffffff166388316456876040518263ffffffff1660e01b8152600401613d6a91906175cd565b608060405180830381600087803b158015613d855760006000fd5b505af1158015613d9a573d600060003e3d6000fd5b505050506040513d601f19601f82011682018060405250810190613dbe9190616bc1565b9050508095508196505050613dd9838261543c63ffffffff16565b613de9828261543c63ffffffff16565b5050505b915091565b600260009054906101000a900473ffffffffffffffffffffffffffffffffffffffff1673ffffffffffffffffffffffffffffffffffffffff166375ea13ca33886040518363ffffffff1660e01b8152600401613e4f929190616f55565b600060405180830381600087803b158015613e6a5760006000fd5b505af1158015613e7f573d600060003e3d6000fd5b50505050613e8b616283565b33816000019073ffffffffffffffffffffffffffffffffffffffff16908173ffffffffffffffffffffffffffffffffffffffff168152602001505085816020019061ffff16908161ffff1681526020015050848160e0019060020b908160020b815260200150508381610100019060020b908160020b815260200150508181610120019063ffffffff16908163ffffffff1681526020015050613f43613f36826127dd63ffffffff16565b88856141c663ffffffff16565b505b505050505050565b60006000600190505b600a60009054906101000a900461ffff1661ffff168161ffff16111515613fde57613fcc600b60005060008361ffff1661ffff16815260200190815260200160002060005060000160149054906101000a900467ffffffffffffffff1667ffffffffffffffff16836154ec90919063ffffffff16565b915081505b8080600101915050613f56565b50809050613fe7565b90565b6000600060007f000000000000000000000000000000000000000000000000000000000000000073ffffffffffffffffffffffffffffffffffffffff166399fbab8885600001356040518263ffffffff1660e01b815260040161404d9190617705565b6101806040518083038186803b1580156140675760006000fd5b505afa15801561407c573d600060003e3d6000fd5b505050506040513d601f19601f820116820180604052508101906140a09190616cd2565b50505050505050509350935050506000600083839150915060003390506140d28382896020013561532763ffffffff16565b6140e78282896040013561532763ffffffff16565b7f000000000000000000000000000000000000000000000000000000000000000073ffffffffffffffffffffffffffffffffffffffff1663219f5d17886040518263ffffffff1660e01b81526004016141409190617588565b606060405180830381600087803b15801561415b5760006000fd5b505af1158015614170573d600060003e3d6000fd5b505050506040513d601f19601f820116820180604052508101906141949190616aec565b905050809650506141ab838261543c63ffffffff16565b6141bb828261543c63ffffffff16565b50505050505b919050565b6000600b6000506000856020015161ffff1661ffff16815260200190815260200160002060005060000160009054906101000a900473ffffffffffffffffffffffffffffffffffffffff16905060006142248261265c63ffffffff16565b905061423685826127aa63ffffffff16565b1515614277576040517f08c379a000000000000000000000000000000000000000000000000000000000815260040161426e906171e8565b60405180910390fd5b6142b18582846142a6878a60a001516fffffffffffffffffffffffffffffffff1661557590919063ffffffff16565b61562263ffffffff16565b600161ffff16856020015161ffff1614156142e9576142e882846fffffffffffffffffffffffffffffffff1661581f63ffffffff16565b5b600260009054906101000a900473ffffffffffffffffffffffffffffffffffffffff1673ffffffffffffffffffffffffffffffffffffffff16631428561d83856040518363ffffffff1660e01b81526004016143469291906170c2565b600060405180830381600087803b1580156143615760006000fd5b505af1158015614376573d600060003e3d6000fd5b50505050438560800190908181526020015050600260009054906101000a900473ffffffffffffffffffffffffffffffffffffffff1673ffffffffffffffffffffffffffffffffffffffff1663816aaa2585876040518363ffffffff1660e01b81526004016143e6929190617746565b600060405180830381600087803b1580156144015760006000fd5b505af1158015614416573d600060003e3d6000fd5b5050505050505b505050565b600060007f000000000000000000000000000000000000000000000000000000000000000073ffffffffffffffffffffffffffffffffffffffff16630c49ccbe846040518263ffffffff1660e01b815260040161447f919061753b565b604060405180830381600087803b15801561449a5760006000fd5b505af11580156144af573d600060003e3d6000fd5b505050506040513d601f19601f820116820180604052508101906144d39190616c06565b915091506144dc565b915091565b7f000000000000000000000000000000000000000000000000000000000000000073ffffffffffffffffffffffffffffffffffffffff1663fc6f786560405180608001604052808581526020018473ffffffffffffffffffffffffffffffffffffffff1681526020016fffffffffffffffffffffffffffffffff6fffffffffffffffffffffffffffffffff1681526020016fffffffffffffffffffffffffffffffff6fffffffffffffffffffffffffffffffff168152602001506040518263ffffffff1660e01b81526004016145b791906174dc565b604060405180830381600087803b1580156145d25760006000fd5b505af11580156145e7573d600060003e3d6000fd5b505050506040513d601f19601f8201168201806040525081019061460b9190616c06565b50505b5050565b6000600b6000506000866020015161ffff1661ffff16815260200190815260200160002060005060000160009054906101000a900473ffffffffffffffffffffffffffffffffffffffff1690506000826000015161467e576146798261265c63ffffffff16565b614684565b82602001515b90506146c08682846146b5888b60a001516fffffffffffffffffffffffffffffffff16615ad290919063ffffffff16565b61562263ffffffff16565b600161ffff16866020015161ffff161480156146e857506146e786826127aa63ffffffff16565b5b80156147935750600060009054906101000a900473ffffffffffffffffffffffffffffffffffffffff1673ffffffffffffffffffffffffffffffffffffffff1663bf86d6906040518163ffffffff1660e01b815260040160206040518083038186803b1580156147585760006000fd5b505afa15801561476d573d600060003e3d6000fd5b505050506040513d601f19601f820116820180604052508101906147919190616498565b155b156147cc576147a982600061581f63ffffffff16565b6147cb82856fffffffffffffffffffffffffffffffff16615b7f63ffffffff16565b5b600260009054906101000a900473ffffffffffffffffffffffffffffffffffffffff1673ffffffffffffffffffffffffffffffffffffffff1663530c1ccb83866040518363ffffffff1660e01b81526004016148299291906170c2565b600060405180830381600087803b1580156148445760006000fd5b505af1158015614859573d600060003e3d6000fd5b50505050600260009054906101000a900473ffffffffffffffffffffffffffffffffffffffff1673ffffffffffffffffffffffffffffffffffffffff1663816aaa2586886040518363ffffffff1660e01b81526004016148ba929190617746565b600060405180830381600087803b1580156148d55760006000fd5b505af11580156148ea573d600060003e3d6000fd5b5050505050505b50505050565b60006000614909612bd063ffffffff16565b90506000600060009054906101000a900473ffffffffffffffffffffffffffffffffffffffff1673ffffffffffffffffffffffffffffffffffffffff1663585690816040518163ffffffff1660e01b815260040160206040518083038186803b1580156149765760006000fd5b505afa15801561498b573d600060003e3d6000fd5b505050506040513d601f19601f820116820180604052508101906149af9190616cab565b90508067ffffffffffffffff1660001080156149de57508167ffffffffffffffff168167ffffffffffffffff16105b6149e857816149ea565b805b925050506149f55650505b90565b6000614a767f00000000000000000000000000000000000000000000000000000000000000007f000000000000000000000000000000000000000000000000000000000000000067ffffffffffffffff168467ffffffffffffffff16811515614a5d57fe5b0467ffffffffffffffff16615d0d90919063ffffffff16565b905080505b919050565b614a88616283565b6000849150815060008260a001516fffffffffffffffffffffffffffffffff161115614b5c57614b57614ad28360c001518567ffffffffffffffff16615d0d90919063ffffffff16565b67ffffffffffffffff1661384067ffffffffffffffff16614b48614b0786606001518960000151614bde90919063ffffffff16565b614b2287604001518a60200151614bde90919063ffffffff16565b8760a001516fffffffffffffffffffffffffffffffff16614f8e9092919063ffffffff16565b614f8e9092919063ffffffff16565b905080505b8360000151826060019090818152602001505083602001518260400190908181526020015050828260c0019067ffffffffffffffff16908167ffffffffffffffff1681526020015050818191509150614bb0565b935093915050565b6000614bd38383670de0b6b3a7640000614f8e63ffffffff16565b905080505b92915050565b60008282840391508111151515614c60576040517f08c379a000000000000000000000000000000000000000000000000000000000815260040180806020018281038252600d8152602001807f7375622d756e646572666c6f770000000000000000000000000000000000000081526020015060200191505060405180910390fd5b5b92915050565b600060008473ffffffffffffffffffffffffffffffffffffffff1663a9059cbb60e01b8585604051602401808373ffffffffffffffffffffffffffffffffffffffff16815260200182815260200192505050604051602081830303815290604052907bffffffffffffffffffffffffffffffffffffffffffffffffffffffff19166020820180517bffffffffffffffffffffffffffffffffffffffffffffffffffffffff83818316178352505050506040518082805190602001908083835b602083101515614d4c57805182525b602082019150602081019050602083039250614d26565b6001836020036101000a0380198251168184511680821785525050505050509050019150506000604051808303816000865af19150503d8060008114614dae576040519150601f19603f3d011682016040523d82523d6000602084013e614db3565b606091505b5091509150818015614df45750600081511480614df35750808060200190516020811015614de15760006000fd5b81019080805190602001909291905050505b5b1515614e6b576040517f08c379a00000000000000000000000000000000000000000000000000000000081526004018080602001828103825260028152602001807f535400000000000000000000000000000000000000000000000000000000000081526020015060200191505060405180910390fd5b50505b505050565b614ec4817f00000000000000000000000000000000000000000000000000000000000000007fffffffffffffffffffffffffffffffffffffffffffffffffffffffffffffffff615daa63ffffffff16565b5b50565b6000614ee6614edb6148f763ffffffff16565b6149f863ffffffff16565b9050614eed565b90565b60006000821480614f1057508282838502925082811515614f0d57fe5b04145b1515614f87576040517f08c379a000000000000000000000000000000000000000000000000000000000815260040180806020018281038252600c8152602001807f6d756c2d6f766572666c6f77000000000000000000000000000000000000000081526020015060200191505060405180910390fd5b5b92915050565b6000600060006000198587098587029250828110838203039150506000811415614fd157600084111515614fc25760006000fd5b83820492508292505050615088565b8084111515614fe05760006000fd5b60008486880990508281118203915080830392506000858660000316905080860495508084049350600181826000030401905080830284179350835060006002876003021890508087026002038102905080508087026002038102905080508087026002038102905080508087026002038102905080508087026002038102905080508087026002038102905080508085029550855085955050505050506150885650505050505b9392505050565b6000600260009054906101000a900473ffffffffffffffffffffffffffffffffffffffff1673ffffffffffffffffffffffffffffffffffffffff166351ad51f7856040518263ffffffff1660e01b81526004016150ec91906176c7565b60406040518083038186803b1580156151055760006000fd5b505afa15801561511a573d600060003e3d6000fd5b505050506040513d601f19601f8201168201806040525081019061513e9190616a79565b9050600260009054906101000a900473ffffffffffffffffffffffffffffffffffffffff1673ffffffffffffffffffffffffffffffffffffffff1663f70996078560405180604001604052806151a18887600001516154ec90919063ffffffff16565b81526020016152c96152b68867ffffffffffffffff16600260009054906101000a900473ffffffffffffffffffffffffffffffffffffffff1673ffffffffffffffffffffffffffffffffffffffff1663a135ef17600b60005060008f61ffff1661ffff16815260200190815260200160002060005060000160009054906101000a900473ffffffffffffffffffffffffffffffffffffffff166040518263ffffffff1660e01b8152600401615256919061702e565b60206040518083038186803b15801561526f5760006000fd5b505afa158015615284573d600060003e3d6000fd5b505050506040513d601f19601f820116820180604052508101906152a89190616ba5565b614ef090919063ffffffff16565b87602001516154ec90919063ffffffff16565b8152602001506040518363ffffffff1660e01b81526004016152ec9291906176dd565b600060405180830381600087803b1580156153075760006000fd5b505af115801561531c573d600060003e3d6000fd5b50505050505b505050565b600081141561533557615437565b60007f000000000000000000000000000000000000000000000000000000000000000073ffffffffffffffffffffffffffffffffffffffff168473ffffffffffffffffffffffffffffffffffffffff161480156153955750814791508110155b15615422577f000000000000000000000000000000000000000000000000000000000000000073ffffffffffffffffffffffffffffffffffffffff1663d0e30db0826040518263ffffffff1660e01b81526004016000604051808303818588803b1580156154035760006000fd5b505af1158015615418573d600060003e3d6000fd5b5050505050615435565b61543484843085615fb663ffffffff16565b5b505b505050565b60008273ffffffffffffffffffffffffffffffffffffffff166370a08231306040518263ffffffff1660e01b81526004016154779190616f2d565b60206040518083038186803b1580156154905760006000fd5b505afa1580156154a5573d600060003e3d6000fd5b505050506040513d601f19601f820116820180604052508101906154c99190616ba5565b905060008111156154e6576154e5838383614c6763ffffffff16565b5b505b5050565b6000828284019150811015151561556e576040517f08c379a000000000000000000000000000000000000000000000000000000000815260040180806020018281038252600c8152602001807f6164642d6f766572666c6f77000000000000000000000000000000000000000081526020015060200191505060405180910390fd5b5b92915050565b6000826fffffffffffffffffffffffffffffffff168284019150816fffffffffffffffffffffffffffffffff161015151561561b576040517f08c379a000000000000000000000000000000000000000000000000000000000815260040180806020018281038252600c8152602001807f6164642d6f766572666c6f77000000000000000000000000000000000000000081526020015060200191505060405180910390fd5b5b92915050565b6000816fffffffffffffffffffffffffffffffff16141561564257615819565b6000600060009054906101000a900473ffffffffffffffffffffffffffffffffffffffff1673ffffffffffffffffffffffffffffffffffffffff1663d3419bf36040518163ffffffff1660e01b815260040160206040518083038186803b1580156156ad5760006000fd5b505afa1580156156c2573d600060003e3d6000fd5b505050506040513d601f19601f820116820180604052508101906156e69190616587565b73ffffffffffffffffffffffffffffffffffffffff16631fab230e84868860e0015189610100015187600860189054906101000a900463ffffffff166040518763ffffffff1660e01b815260040161574396959493929190617056565b60206040518083038186803b15801561575c5760006000fd5b505afa158015615771573d600060003e3d6000fd5b505050506040513d601f19601f820116820180604052508101906157959190616ba5565b9050600860009054906101000a90046fffffffffffffffffffffffffffffffff166fffffffffffffffffffffffffffffffff16811015806157d65750600081145b1515615817576040517f08c379a000000000000000000000000000000000000000000000000000000000815260040161580e906173a1565b60405180910390fd5b505b50505050565b600061582f612f9a63ffffffff16565b90508067ffffffffffffffff16600960005060008573ffffffffffffffffffffffffffffffffffffffff1673ffffffffffffffffffffffffffffffffffffffff16815260200190815260200160002060005060000160009054906101000a900467ffffffffffffffff1667ffffffffffffffff161015615acc5760006159c66159b96158ec600760089054906101000a900467ffffffffffffffff1667ffffffffffffffff16670de0b6b3a7640000614bde90919063ffffffff16565b6159ab86600260009054906101000a900473ffffffffffffffffffffffffffffffffffffffff1673ffffffffffffffffffffffffffffffffffffffff1663a135ef178a6040518263ffffffff1660e01b815260040161594b919061702e565b60206040518083038186803b1580156159645760006000fd5b505afa158015615979573d600060003e3d6000fd5b505050506040513d601f19601f8201168201806040525081019061599d9190616ba5565b6154ec90919063ffffffff16565b614bb890919063ffffffff16565b6161e1909063ffffffff16565b905060405180604001604052808367ffffffffffffffff1681526020018277ffffffffffffffffffffffffffffffffffffffffffffffff16815260200150600960005060008673ffffffffffffffffffffffffffffffffffffffff1673ffffffffffffffffffffffffffffffffffffffff16815260200190815260200160002060005060008201518160000160006101000a81548167ffffffffffffffff021916908367ffffffffffffffff16021790555060208201518160000160086101000a81548177ffffffffffffffffffffffffffffffffffffffffffffffff021916908377ffffffffffffffffffffffffffffffffffffffffffffffff160217905550905050505b505b5050565b6000826fffffffffffffffffffffffffffffffff168284039150816fffffffffffffffffffffffffffffffff1611151515615b78576040517f08c379a000000000000000000000000000000000000000000000000000000000815260040180806020018281038252600d8152602001807f7375622d756e646572666c6f770000000000000000000000000000000000000081526020015060200191505060405180910390fd5b5b92915050565b600960005060008373ffffffffffffffffffffffffffffffffffffffff1673ffffffffffffffffffffffffffffffffffffffff16815260200190815260200160002060005060000160089054906101000a900477ffffffffffffffffffffffffffffffffffffffffffffffff1677ffffffffffffffffffffffffffffffffffffffffffffffff16615cc582600260009054906101000a900473ffffffffffffffffffffffffffffffffffffffff1673ffffffffffffffffffffffffffffffffffffffff1663a135ef17866040518263ffffffff1660e01b8152600401615c65919061702e565b60206040518083038186803b158015615c7e5760006000fd5b505afa158015615c93573d600060003e3d6000fd5b505050506040513d601f19601f82011682018060405250810190615cb79190616ba5565b614bde90919063ffffffff16565b10151515615d08576040517f08c379a0000000000000000000000000000000000000000000000000000000008152600401615cff90617266565b60405180910390fd5b5b5050565b60008267ffffffffffffffff1682840391508167ffffffffffffffff1611151515615da3576040517f08c379a000000000000000000000000000000000000000000000000000000000815260040180806020018281038252600d8152602001807f7375622d756e646572666c6f770000000000000000000000000000000000000081526020015060200191505060405180910390fd5b5b92915050565b600060008473ffffffffffffffffffffffffffffffffffffffff1663095ea7b360e01b8585604051602401808373ffffffffffffffffffffffffffffffffffffffff16815260200182815260200192505050604051602081830303815290604052907bffffffffffffffffffffffffffffffffffffffffffffffffffffffff19166020820180517bffffffffffffffffffffffffffffffffffffffffffffffffffffffff83818316178352505050506040518082805190602001908083835b602083101515615e8f57805182525b602082019150602081019050602083039250615e69565b6001836020036101000a0380198251168184511680821785525050505050509050019150506000604051808303816000865af19150503d8060008114615ef1576040519150601f19603f3d011682016040523d82523d6000602084013e615ef6565b606091505b5091509150818015615f375750600081511480615f365750808060200190516020811015615f245760006000fd5b81019080805190602001909291905050505b5b1515615fae576040517f08c379a00000000000000000000000000000000000000000000000000000000081526004018080602001828103825260028152602001807f534100000000000000000000000000000000000000000000000000000000000081526020015060200191505060405180910390fd5b50505b505050565b600060008573ffffffffffffffffffffffffffffffffffffffff166323b872dd60e01b868686604051602401808473ffffffffffffffffffffffffffffffffffffffff1681526020018373ffffffffffffffffffffffffffffffffffffffff1681526020018281526020019350505050604051602081830303815290604052907bffffffffffffffffffffffffffffffffffffffffffffffffffffffff19166020820180517bffffffffffffffffffffffffffffffffffffffffffffffffffffffff83818316178352505050506040518082805190602001908083835b6020831015156160b957805182525b602082019150602081019050602083039250616093565b6001836020036101000a0380198251168184511680821785525050505050509050019150506000604051808303816000865af19150503d806000811461611b576040519150601f19603f3d011682016040523d82523d6000602084013e616120565b606091505b50915091508180156161615750600081511480616160575080806020019051602081101561614e5760006000fd5b81019080805190602001909291905050505b5b15156161d8576040517f08c379a00000000000000000000000000000000000000000000000000000000081526004018080602001828103825260038152602001807f535446000000000000000000000000000000000000000000000000000000000081526020015060200191505060405180910390fd5b50505b50505050565b6000780100000000000000000000000000000000000000000000000082101515616276576040517f08c379a00000000000000000000000000000000000000000000000000000000081526004018080602001828103825260128152602001807f6d6f7265207468616e203139322062697473000000000000000000000000000081526020015060200191505060405180910390fd5b81905061627e565b919050565b604051806101800160405280600073ffffffffffffffffffffffffffffffffffffffff168152602001600061ffff16815260200160008152602001600081526020016000815260200160006fffffffffffffffffffffffffffffffff168152602001600067ffffffffffffffff168152602001600060020b8152602001600060020b8152602001600063ffffffff168152602001600073ffffffffffffffffffffffffffffffffffffffff168152602001600067ffffffffffffffff1681526020015090565b6040518060400160405280600015158152602001600060020b8152602001509056617a2b565b60008135905061637e81617962565b5b919050565b60008151905061639381617962565b5b919050565b6000813590506163a88161798b565b5b919050565b6000815190506163bd8161798b565b5b919050565b600060a082840312156163d4578081fd5b8190505b92915050565b6000815190506163ed816179a1565b5b919050565b600081519050616402816179c6565b5b919050565b600081359050616417816179dd565b5b919050565b60008151905061642c816179dd565b5b919050565b600081359050616441816179f5565b5b919050565b600081519050616456816179f5565b5b919050565b60008151905061646b81617a0e565b5b919050565b600060208284031215616482578081fd5b815161648d81617962565b809150505b92915050565b6000602082840312156164a9578081fd5b8151801515811415156164ba578182fd5b809150505b92915050565b6000602082840312156164d6578081fd5b81357fffffffff00000000000000000000000000000000000000000000000000000000811681141515616507578182fd5b809150505b92915050565b600060208284031215616523578081fd5b815161652e81617962565b809150505b92915050565b60006020828403121561654a578081fd5b813561655581617962565b809150505b92915050565b600060208284031215616571578081fd5b815161657c81617962565b809150505b92915050565b600060208284031215616598578081fd5b81516165a381617962565b809150505b92915050565b6000602082840312156165bf578081fd5b81516165ca81617962565b809150505b92915050565b6000602082840312156165e6578081fd5b81356165f181617962565b809150505b92915050565b60006000600060408486031215616611578182fd5b833561661c81617962565b80935050602084013567ffffffffffffffff8082111561663a578384fd5b818601915086601f830112151561664f578384fd5b81358181111561665d578485fd5b876020602083028501011115616671578485fd5b6020830194508093505050505b9250925092565b6000600060408385031215616698578182fd5b82356166a381617962565b8092505060208301356166b581617962565b809150505b9250929050565b60006000604083850312156166d4578182fd5b82356166df81617962565b8092505060208301356166f181617a0e565b809150505b9250929050565b60006020828403121561670e578081fd5b81516167198161798b565b809150505b92915050565b600060808284031215616735578081fd5b6040516080810181811067ffffffffffffffff8211171561675257fe5b806040525082358152602083013561676981617962565b80602083015250604083013561677e816179a1565b806040830152506060830135616793816179a1565b80606083015250809150505b92915050565b600060a082840312156167b6578081fd5b6167c083836163c3565b90505b92915050565b6000600060c083850312156167dc578182fd5b6167e684846163c3565b915060a08301356167f6816179f5565b809150505b9250929050565b600060a08284031215616813578081fd5b60405160a0810181811067ffffffffffffffff8211171561683057fe5b8060405250823581526020830135616847816179a1565b80602083015250604083013560408201526060830135606082015260808301356080820152809150505b92915050565b6000600082840360e081121561688b578283fd5b60c0811215616898578283fd5b5082915060c08301356168aa816179f5565b809150505b9250929050565b600060008284036101808112156168cb578283fd5b610160808212156168da578384fd5b6168e381617937565b91506168ee8561636f565b82526168fc6020860161636f565b602083015261690d60408601616408565b604083015261691e60608601616399565b606083015261692f60808601616399565b608083015260a085013560a083015260c085013560c083015260e085013560e083015261010080860135818401525061012061696c81870161636f565b818401525061014080860135818401525081935061698b818601616432565b925050505b9250929050565b60006101808083850312156169aa578182fd5b6169b381617937565b90506169be83616384565b81526169cc602084016163f3565b60208201526040830151604082015260608301516060820152608083015160808201526169fb60a084016163de565b60a0820152616a0c60c0840161645c565b60c0820152616a1d60e084016163ae565b60e0820152610100616a308185016163ae565b8183015250610120616a43818501616447565b8183015250610140616a56818501616384565b8183015250610160616a6981850161645c565b8183015250809150505b92915050565b600060408284031215616a8a578081fd5b6040516040810181811067ffffffffffffffff82111715616aa757fe5b80604052508251815260208301516020820152809150505b92915050565b600060208284031215616ad6578081fd5b8135616ae1816179a1565b809150505b92915050565b60006000600060608486031215616b01578081fd5b8351616b0c816179a1565b8093505060208401519150604084015190505b9250925092565b600060208284031215616b37578081fd5b8135616b42816179c6565b809150505b92915050565b6000600060408385031215616b60578182fd5b8235616b6b816179c6565b809250506020830135616b7d81617a0e565b809150505b9250929050565b600060208284031215616b9a578081fd5b813590505b92915050565b600060208284031215616bb6578081fd5b815190505b92915050565b600060006000600060808587031215616bd8578182fd5b845193506020850151616bea816179a1565b8093505060408501519150606085015190505b92959194509250565b6000600060408385031215616c19578182fd5b82519150602083015190505b9250929050565b6000600060408385031215616c3f578182fd5b823591506020830135616c51816179f5565b809150505b9250929050565b600060208284031215616c6e578081fd5b8135616c79816179f5565b809150505b92915050565b600060208284031215616c95578081fd5b8135616ca081617a0e565b809150505b92915050565b600060208284031215616cbc578081fd5b8151616cc781617a0e565b809150505b92915050565b6000600060006000600060006000600060006000600060006101808d8f031215616cfa57898afd5b8c516bffffffffffffffffffffffff811681141515616d17578a8bfd5b809c5050616d2760208e01616384565b9a50616d3560408e01616384565b9950616d4360608e01616384565b9850616d5160808e0161641d565b9750616d5f60a08e016163ae565b9650616d6d60c08e016163ae565b9550616d7b60e08e016163de565b94506101008d015193506101208d01519250616d9a6101408e016163de565b9150616da96101608e016163de565b90505b9295989b509295989b509295989b565b73ffffffffffffffffffffffffffffffffffffffff811682525b5050565b8060020b82525b5050565b6fffffffffffffffffffffffffffffffff811682525b5050565b61ffff811682525b5050565b62ffffff811682525b5050565b63ffffffff811682525b5050565b67ffffffffffffffff811682525b5050565b60007f6c69717569646174696f6e50656e616c7479000000000000000000000000000082526012820190505b919050565b60007f6d696e487565436f756e74506572506f736974696f6e0000000000000000000082526016820190505b919050565b60007f747761704475726174696f6e00000000000000000000000000000000000000008252600c820190505b919050565b60007f6d61784c69717569646974794465637265617365506572506572696f640000008252601d820190505b919050565b60007f6d696e4c697175696469747950726f766964654475726174696f6e00000000008252601b820190505b919050565b600060208201905073ffffffffffffffffffffffffffffffffffffffff831682525b92915050565b600060408201905073ffffffffffffffffffffffffffffffffffffffff841682528260208301525b9392505050565b600060608201905073ffffffffffffffffffffffffffffffffffffffff808616835280851660208401525062ffffff831660408301525b949350505050565b600060408201905073ffffffffffffffffffffffffffffffffffffffff841682528260208301525b9392505050565b600060208201905082151582525b92915050565b600060208201905073ffffffffffffffffffffffffffffffffffffffff831682525b92915050565b600060208201905073ffffffffffffffffffffffffffffffffffffffff831682525b92915050565b600060c08201905073ffffffffffffffffffffffffffffffffffffffff881682528660020b60208301528560020b60408301528460020b60608301526fffffffffffffffffffffffffffffffff8416608083015263ffffffff831660a08301525b979650505050505050565b600060408201905073ffffffffffffffffffffffffffffffffffffffff841682526fffffffffffffffffffffffffffffffff831660208301525b9392505050565b600060408201905073ffffffffffffffffffffffffffffffffffffffff8416825263ffffffff831660208301525b9392505050565b600060408201905073ffffffffffffffffffffffffffffffffffffffff8416825267ffffffffffffffff831660208301525b9392505050565b60006060820190508460020b82528360020b60208301526fffffffffffffffffffffffffffffffff831660408301525b949350505050565b600060208252601160208301527f50726f746f636f6c2073687574646f776e00000000000000000000000000000060408301526060820190505b919050565b600060208252601660208301527f4c6971756964697479206e6f7420696e2072616e67650000000000000000000060408301526060820190505b919050565b600060208252600c60208301527f556e6b6e6f776e20706f6f6c000000000000000000000000000000000000000060408301526060820190505b919050565b600060208252601c60208301527f4d617820706572696f642077697468647261772065786365656465640000000060408301526060820190505b919050565b600060208252601260208301527f416c72656164792072656769737465726564000000000000000000000000000060408301526060820190505b919050565b600060208252600e60208301527f4e6f7420417574686f72697a656400000000000000000000000000000000000060408301526060820190505b919050565b600060208252600d60208301527f4c50205265656e7472616e63790000000000000000000000000000000000000060408301526060820190505b919050565b600060208252601460208301527f496e63656e7469766520746f74616c206973203000000000000000000000000060408301526060820190505b919050565b600060208252601260208301527f506f736974696f6e20746f6f20736d616c6c000000000000000000000000000060408301526060820190505b919050565b600060208252600e60208301527f496e76616c696420706f6f6c494400000000000000000000000000000000000060408301526060820190505b919050565b600060208252601360208301527f436f6e74726163742069732073746f707065640000000000000000000000000060408301526060820190505b919050565b600060208252601260208301527f4e6f20666c617368206c6971756964697479000000000000000000000000000060408301526060820190505b919050565b600060208252600760208301527f496e76616c69640000000000000000000000000000000000000000000000000060408301526060820190505b919050565b60006080820190508251825273ffffffffffffffffffffffffffffffffffffffff602084015116602083015260408301516fffffffffffffffffffffffffffffffff808216604085015280606086015116606085015250505b92915050565b600060a082019050825182526fffffffffffffffffffffffffffffffff60208401511660208301526040830151604083015260608301516060830152608083015160808301525b92915050565b600060c082019050823582526020830135602083015260408301356040830152606083013560608301526080830135608083015260a083013560a08301525b92915050565b6000610160820190506175e1828451616dbc565b60208301516175f36020840182616dbc565b5060408301516176066040840182616e0b565b5060608301516176196060840182616dda565b50608083015161762c6080840182616dda565b5060a083015160a083015260c083015160c083015260e083015160e08301526101008084015181840152506101208084015161766a82850182616dbc565b50506101408084015181840152505b92915050565b60006020820190506fffffffffffffffffffffffffffffffff831682525b92915050565b60006020820190506fffffffffffffffffffffffffffffffff831682525b92915050565b600060208201905061ffff831682525b92915050565b600060608201905061ffff8416825282516020830152602083015160408301525b9392505050565b60006020820190508282525b92915050565b600060408201905083825273ffffffffffffffffffffffffffffffffffffffff831660208301525b9392505050565b60006101a082019050838252617760602083018451616dbc565b60208301516177726040840182616dff565b506040830151606083015260608301516080830152608083015160a083015260a08301516177a360c0840182616de5565b5060c08301516177b660e0840182616e26565b5060e08301516101006177cb81850183616dda565b808501519150506101206177e181850183616dda565b808501519150506101406177f781850183616e18565b8085015191505061016061780d81850183616dbc565b80850151915050617822610180840182616e26565b505b9392505050565b60006040820190508382526fffffffffffffffffffffffffffffffff831660208301525b9392505050565b60006040820190508382528260208301525b9392505050565b600060408201905083825267ffffffffffffffff831660208301525b9392505050565b600060208201905063ffffffff831682525b92915050565b600060208201905063ffffffff831682525b92915050565b600060208201905067ffffffffffffffff831682525b92915050565b600060208201905067ffffffffffffffff831682525b92915050565b600060408201905067ffffffffffffffff8416825277ffffffffffffffffffffffffffffffffffffffffffffffff831660208301525b9392505050565b6000604051905081810181811067ffffffffffffffff8211171561795757fe5b80604052505b919050565b73ffffffffffffffffffffffffffffffffffffffff8116811415156179875760006000fd5b5b50565b8060020b8114151561799d5760006000fd5b5b50565b6fffffffffffffffffffffffffffffffff8116811415156179c25760006000fd5b5b50565b61ffff8116811415156179d95760006000fd5b5b50565b62ffffff8116811415156179f15760006000fd5b5b50565b63ffffffff811681141515617a0a5760006000fd5b5b50565b67ffffffffffffffff811681141515617a275760006000fd5b5b50565bfea2646970667358221220be202e0f090c385130fe4ff3b50a87ddbe6ab328386fd44b5ae0e71202a8cc2d64736f6c63430007060033",
  "linkReferences": {},
  "deployedLinkReferences": {}
}