{
  "_format": "hh-sol-artifact-1",
  "contractName": "MockTimeNonfungiblePositionManager",
  "sourceName": "contracts/uniswap/uniswap-v3-periphery/contracts/test/MockTimeNonfungiblePositionManager.sol",
  "abi": [
    {
      "inputs": [
        {
          "internalType": "address",
          "name": "_factory",
          "type": "address"
        },
        {
          "internalType": "address",
          "name": "_WETH9",
          "type": "address"
        },
        {
          "internalType": "address",
          "name": "_tokenDescriptor",
          "type": "address"
        }
      ],
      "stateMutability": "nonpayable",
      "type": "constructor"
    },
    {
      "anonymous": false,
      "inputs": [
        {
          "indexed": true,
          "internalType": "address",
          "name": "owner",
          "type": "address"
        },
        {
          "indexed": true,
          "internalType": "address",
          "name": "approved",
          "type": "address"
        },
        {
          "indexed": true,
          "internalType": "uint256",
          "name": "tokenId",
          "type": "uint256"
        }
      ],
      "name": "Approval",
      "type": "event"
    },
    {
      "anonymous": false,
      "inputs": [
        {
          "indexed": true,
          "internalType": "address",
          "name": "owner",
          "type": "address"
        },
        {
          "indexed": true,
          "internalType": "address",
          "name": "operator",
          "type": "address"
        },
        {
          "indexed": false,
          "internalType": "bool",
          "name": "approved",
          "type": "bool"
        }
      ],
      "name": "ApprovalForAll",
      "type": "event"
    },
    {
      "anonymous": false,
      "inputs": [
        {
          "indexed": true,
          "internalType": "address",
          "name": "from",
          "type": "address"
        },
        {
          "indexed": true,
          "internalType": "address",
          "name": "to",
          "type": "address"
        },
        {
          "indexed": true,
          "internalType": "uint256",
          "name": "tokenId",
          "type": "uint256"
        }
      ],
      "name": "Transfer",
      "type": "event"
    },
    {
      "inputs": [],
      "name": "DOMAIN_SEPARATOR",
      "outputs": [
        {
          "internalType": "bytes32",
          "name": "",
          "type": "bytes32"
        }
      ],
      "stateMutability": "view",
      "type": "function"
    },
    {
      "inputs": [],
      "name": "PERMIT_TYPEHASH",
      "outputs": [
        {
          "internalType": "bytes32",
          "name": "",
          "type": "bytes32"
        }
      ],
      "stateMutability": "view",
      "type": "function"
    },
    {
      "inputs": [],
      "name": "WETH9",
      "outputs": [
        {
          "internalType": "address",
          "name": "",
          "type": "address"
        }
      ],
      "stateMutability": "view",
      "type": "function"
    },
    {
      "inputs": [
        {
          "internalType": "address",
          "name": "to",
          "type": "address"
        },
        {
          "internalType": "uint256",
          "name": "tokenId",
          "type": "uint256"
        }
      ],
      "name": "approve",
      "outputs": [],
      "stateMutability": "nonpayable",
      "type": "function"
    },
    {
      "inputs": [
        {
          "internalType": "address",
          "name": "owner",
          "type": "address"
        }
      ],
      "name": "balanceOf",
      "outputs": [
        {
          "internalType": "uint256",
          "name": "",
          "type": "uint256"
        }
      ],
      "stateMutability": "view",
      "type": "function"
    },
    {
      "inputs": [],
      "name": "baseURI",
      "outputs": [
        {
          "internalType": "string",
          "name": "",
          "type": "string"
        }
      ],
      "stateMutability": "pure",
      "type": "function"
    },
    {
      "inputs": [
        {
          "internalType": "uint256",
          "name": "tokenId",
          "type": "uint256"
        }
      ],
      "name": "burn",
      "outputs": [],
      "stateMutability": "payable",
      "type": "function"
    },
    {
      "inputs": [
        {
          "internalType": "uint256",
          "name": "tokenId",
          "type": "uint256"
        },
        {
          "internalType": "address",
          "name": "recipient",
          "type": "address"
        },
        {
          "internalType": "uint128",
          "name": "amount0Max",
          "type": "uint128"
        },
        {
          "internalType": "uint128",
          "name": "amount1Max",
          "type": "uint128"
        }
      ],
      "name": "collect",
      "outputs": [
        {
          "internalType": "uint256",
          "name": "amount0",
          "type": "uint256"
        },
        {
          "internalType": "uint256",
          "name": "amount1",
          "type": "uint256"
        }
      ],
      "stateMutability": "payable",
      "type": "function"
    },
    {
      "inputs": [
        {
          "internalType": "address",
          "name": "tokenA",
          "type": "address"
        },
        {
          "internalType": "address",
          "name": "tokenB",
          "type": "address"
        },
        {
          "internalType": "uint24",
          "name": "fee",
          "type": "uint24"
        },
        {
          "internalType": "uint160",
          "name": "sqrtPriceX96",
          "type": "uint160"
        }
      ],
      "name": "createAndInitializePoolIfNecessary",
      "outputs": [
        {
          "internalType": "address",
          "name": "pool",
          "type": "address"
        }
      ],
      "stateMutability": "payable",
      "type": "function"
    },
    {
      "inputs": [
        {
          "internalType": "uint256",
          "name": "tokenId",
          "type": "uint256"
        },
        {
          "internalType": "uint128",
          "name": "amount",
          "type": "uint128"
        },
        {
          "internalType": "uint256",
          "name": "amount0Min",
          "type": "uint256"
        },
        {
          "internalType": "uint256",
          "name": "amount1Min",
          "type": "uint256"
        },
        {
          "internalType": "uint256",
          "name": "deadline",
          "type": "uint256"
        }
      ],
      "name": "decreaseLiquidity",
      "outputs": [
        {
          "internalType": "uint256",
          "name": "amount0",
          "type": "uint256"
        },
        {
          "internalType": "uint256",
          "name": "amount1",
          "type": "uint256"
        }
      ],
      "stateMutability": "payable",
      "type": "function"
    },
    {
      "inputs": [],
      "name": "factory",
      "outputs": [
        {
          "internalType": "address",
          "name": "",
          "type": "address"
        }
      ],
      "stateMutability": "view",
      "type": "function"
    },
    {
      "inputs": [
        {
          "internalType": "uint256",
          "name": "tokenId",
          "type": "uint256"
        }
      ],
      "name": "getApproved",
      "outputs": [
        {
          "internalType": "address",
          "name": "",
          "type": "address"
        }
      ],
      "stateMutability": "view",
      "type": "function"
    },
    {
      "inputs": [
        {
          "internalType": "uint256",
          "name": "tokenId",
          "type": "uint256"
        },
        {
          "internalType": "uint128",
          "name": "amount",
          "type": "uint128"
        },
        {
          "internalType": "uint256",
          "name": "amount0Max",
          "type": "uint256"
        },
        {
          "internalType": "uint256",
          "name": "amount1Max",
          "type": "uint256"
        },
        {
          "internalType": "uint256",
          "name": "deadline",
          "type": "uint256"
        }
      ],
      "name": "increaseLiquidity",
      "outputs": [
        {
          "internalType": "uint256",
          "name": "amount0",
          "type": "uint256"
        },
        {
          "internalType": "uint256",
          "name": "amount1",
          "type": "uint256"
        }
      ],
      "stateMutability": "payable",
      "type": "function"
    },
    {
      "inputs": [
        {
          "internalType": "address",
          "name": "owner",
          "type": "address"
        },
        {
          "internalType": "address",
          "name": "operator",
          "type": "address"
        }
      ],
      "name": "isApprovedForAll",
      "outputs": [
        {
          "internalType": "bool",
          "name": "",
          "type": "bool"
        }
      ],
      "stateMutability": "view",
      "type": "function"
    },
    {
      "inputs": [
        {
          "components": [
            {
              "internalType": "address",
              "name": "token0",
              "type": "address"
            },
            {
              "internalType": "address",
              "name": "token1",
              "type": "address"
            },
            {
              "internalType": "uint24",
              "name": "fee",
              "type": "uint24"
            },
            {
              "internalType": "int24",
              "name": "tickLower",
              "type": "int24"
            },
            {
              "internalType": "int24",
              "name": "tickUpper",
              "type": "int24"
            },
            {
              "internalType": "uint128",
              "name": "amount",
              "type": "uint128"
            },
            {
              "internalType": "uint256",
              "name": "amount0Max",
              "type": "uint256"
            },
            {
              "internalType": "uint256",
              "name": "amount1Max",
              "type": "uint256"
            },
            {
              "internalType": "address",
              "name": "recipient",
              "type": "address"
            },
            {
              "internalType": "uint256",
              "name": "deadline",
              "type": "uint256"
            }
          ],
          "internalType": "struct INonfungiblePositionManager.MintParams",
          "name": "params",
          "type": "tuple"
        }
      ],
      "name": "mint",
      "outputs": [
        {
          "internalType": "uint256",
          "name": "tokenId",
          "type": "uint256"
        },
        {
          "internalType": "uint256",
          "name": "amount0",
          "type": "uint256"
        },
        {
          "internalType": "uint256",
          "name": "amount1",
          "type": "uint256"
        }
      ],
      "stateMutability": "payable",
      "type": "function"
    },
    {
      "inputs": [
        {
          "internalType": "bytes[]",
          "name": "data",
          "type": "bytes[]"
        }
      ],
      "name": "multicall",
      "outputs": [
        {
          "internalType": "bytes[]",
          "name": "results",
          "type": "bytes[]"
        }
      ],
      "stateMutability": "payable",
      "type": "function"
    },
    {
      "inputs": [],
      "name": "name",
      "outputs": [
        {
          "internalType": "string",
          "name": "",
          "type": "string"
        }
      ],
      "stateMutability": "view",
      "type": "function"
    },
    {
      "inputs": [
        {
          "internalType": "uint256",
          "name": "tokenId",
          "type": "uint256"
        }
      ],
      "name": "ownerOf",
      "outputs": [
        {
          "internalType": "address",
          "name": "",
          "type": "address"
        }
      ],
      "stateMutability": "view",
      "type": "function"
    },
    {
      "inputs": [
        {
          "internalType": "address",
          "name": "spender",
          "type": "address"
        },
        {
          "internalType": "uint256",
          "name": "tokenId",
          "type": "uint256"
        },
        {
          "internalType": "uint256",
          "name": "deadline",
          "type": "uint256"
        },
        {
          "internalType": "uint8",
          "name": "v",
          "type": "uint8"
        },
        {
          "internalType": "bytes32",
          "name": "r",
          "type": "bytes32"
        },
        {
          "internalType": "bytes32",
          "name": "s",
          "type": "bytes32"
        }
      ],
      "name": "permit",
      "outputs": [],
      "stateMutability": "payable",
      "type": "function"
    },
    {
      "inputs": [
        {
          "internalType": "uint256",
          "name": "tokenId",
          "type": "uint256"
        }
      ],
      "name": "positions",
      "outputs": [
        {
          "internalType": "uint96",
          "name": "nonce",
          "type": "uint96"
        },
        {
          "internalType": "address",
          "name": "operator",
          "type": "address"
        },
        {
          "internalType": "address",
          "name": "token0",
          "type": "address"
        },
        {
          "internalType": "address",
          "name": "token1",
          "type": "address"
        },
        {
          "internalType": "uint24",
          "name": "fee",
          "type": "uint24"
        },
        {
          "internalType": "int24",
          "name": "tickLower",
          "type": "int24"
        },
        {
          "internalType": "int24",
          "name": "tickUpper",
          "type": "int24"
        },
        {
          "internalType": "uint128",
          "name": "liquidity",
          "type": "uint128"
        },
        {
          "internalType": "uint256",
          "name": "feeGrowthInside0LastX128",
          "type": "uint256"
        },
        {
          "internalType": "uint256",
          "name": "feeGrowthInside1LastX128",
          "type": "uint256"
        },
        {
          "internalType": "uint128",
          "name": "tokensOwed0",
          "type": "uint128"
        },
        {
          "internalType": "uint128",
          "name": "tokensOwed1",
          "type": "uint128"
        }
      ],
      "stateMutability": "view",
      "type": "function"
    },
    {
      "inputs": [
        {
          "internalType": "address",
          "name": "from",
          "type": "address"
        },
        {
          "internalType": "address",
          "name": "to",
          "type": "address"
        },
        {
          "internalType": "uint256",
          "name": "tokenId",
          "type": "uint256"
        }
      ],
      "name": "safeTransferFrom",
      "outputs": [],
      "stateMutability": "nonpayable",
      "type": "function"
    },
    {
      "inputs": [
        {
          "internalType": "address",
          "name": "from",
          "type": "address"
        },
        {
          "internalType": "address",
          "name": "to",
          "type": "address"
        },
        {
          "internalType": "uint256",
          "name": "tokenId",
          "type": "uint256"
        },
        {
          "internalType": "bytes",
          "name": "_data",
          "type": "bytes"
        }
      ],
      "name": "safeTransferFrom",
      "outputs": [],
      "stateMutability": "nonpayable",
      "type": "function"
    },
    {
      "inputs": [
        {
          "internalType": "address",
          "name": "token",
          "type": "address"
        },
        {
          "internalType": "uint256",
          "name": "value",
          "type": "uint256"
        },
        {
          "internalType": "uint256",
          "name": "deadline",
          "type": "uint256"
        },
        {
          "internalType": "uint8",
          "name": "v",
          "type": "uint8"
        },
        {
          "internalType": "bytes32",
          "name": "r",
          "type": "bytes32"
        },
        {
          "internalType": "bytes32",
          "name": "s",
          "type": "bytes32"
        }
      ],
      "name": "selfPermit",
      "outputs": [],
      "stateMutability": "payable",
      "type": "function"
    },
    {
      "inputs": [
        {
          "internalType": "address",
          "name": "token",
          "type": "address"
        },
        {
          "internalType": "uint256",
          "name": "nonce",
          "type": "uint256"
        },
        {
          "internalType": "uint256",
          "name": "expiry",
          "type": "uint256"
        },
        {
          "internalType": "uint8",
          "name": "v",
          "type": "uint8"
        },
        {
          "internalType": "bytes32",
          "name": "r",
          "type": "bytes32"
        },
        {
          "internalType": "bytes32",
          "name": "s",
          "type": "bytes32"
        }
      ],
      "name": "selfPermitAllowed",
      "outputs": [],
      "stateMutability": "payable",
      "type": "function"
    },
    {
      "inputs": [
        {
          "internalType": "address",
          "name": "token",
          "type": "address"
        },
        {
          "internalType": "uint256",
          "name": "nonce",
          "type": "uint256"
        },
        {
          "internalType": "uint256",
          "name": "expiry",
          "type": "uint256"
        },
        {
          "internalType": "uint8",
          "name": "v",
          "type": "uint8"
        },
        {
          "internalType": "bytes32",
          "name": "r",
          "type": "bytes32"
        },
        {
          "internalType": "bytes32",
          "name": "s",
          "type": "bytes32"
        }
      ],
      "name": "selfPermitAllowedIfNecessary",
      "outputs": [],
      "stateMutability": "payable",
      "type": "function"
    },
    {
      "inputs": [
        {
          "internalType": "address",
          "name": "token",
          "type": "address"
        },
        {
          "internalType": "uint256",
          "name": "value",
          "type": "uint256"
        },
        {
          "internalType": "uint256",
          "name": "deadline",
          "type": "uint256"
        },
        {
          "internalType": "uint8",
          "name": "v",
          "type": "uint8"
        },
        {
          "internalType": "bytes32",
          "name": "r",
          "type": "bytes32"
        },
        {
          "internalType": "bytes32",
          "name": "s",
          "type": "bytes32"
        }
      ],
      "name": "selfPermitIfNecessary",
      "outputs": [],
      "stateMutability": "payable",
      "type": "function"
    },
    {
      "inputs": [
        {
          "internalType": "address",
          "name": "operator",
          "type": "address"
        },
        {
          "internalType": "bool",
          "name": "approved",
          "type": "bool"
        }
      ],
      "name": "setApprovalForAll",
      "outputs": [],
      "stateMutability": "nonpayable",
      "type": "function"
    },
    {
      "inputs": [
        {
          "internalType": "uint256",
          "name": "_time",
          "type": "uint256"
        }
      ],
      "name": "setTime",
      "outputs": [],
      "stateMutability": "nonpayable",
      "type": "function"
    },
    {
      "inputs": [
        {
          "internalType": "bytes4",
          "name": "interfaceId",
          "type": "bytes4"
        }
      ],
      "name": "supportsInterface",
      "outputs": [
        {
          "internalType": "bool",
          "name": "",
          "type": "bool"
        }
      ],
      "stateMutability": "view",
      "type": "function"
    },
    {
      "inputs": [
        {
          "internalType": "address",
          "name": "token",
          "type": "address"
        },
        {
          "internalType": "uint256",
          "name": "amountMinimum",
          "type": "uint256"
        },
        {
          "internalType": "address",
          "name": "recipient",
          "type": "address"
        }
      ],
      "name": "sweepToken",
      "outputs": [],
      "stateMutability": "payable",
      "type": "function"
    },
    {
      "inputs": [],
      "name": "symbol",
      "outputs": [
        {
          "internalType": "string",
          "name": "",
          "type": "string"
        }
      ],
      "stateMutability": "view",
      "type": "function"
    },
    {
      "inputs": [
        {
          "internalType": "uint256",
          "name": "index",
          "type": "uint256"
        }
      ],
      "name": "tokenByIndex",
      "outputs": [
        {
          "internalType": "uint256",
          "name": "",
          "type": "uint256"
        }
      ],
      "stateMutability": "view",
      "type": "function"
    },
    {
      "inputs": [
        {
          "internalType": "address",
          "name": "owner",
          "type": "address"
        },
        {
          "internalType": "uint256",
          "name": "index",
          "type": "uint256"
        }
      ],
      "name": "tokenOfOwnerByIndex",
      "outputs": [
        {
          "internalType": "uint256",
          "name": "",
          "type": "uint256"
        }
      ],
      "stateMutability": "view",
      "type": "function"
    },
    {
      "inputs": [
        {
          "internalType": "uint256",
          "name": "tokenId",
          "type": "uint256"
        }
      ],
      "name": "tokenURI",
      "outputs": [
        {
          "internalType": "string",
          "name": "",
          "type": "string"
        }
      ],
      "stateMutability": "view",
      "type": "function"
    },
    {
      "inputs": [],
      "name": "totalSupply",
      "outputs": [
        {
          "internalType": "uint256",
          "name": "",
          "type": "uint256"
        }
      ],
      "stateMutability": "view",
      "type": "function"
    },
    {
      "inputs": [
        {
          "internalType": "address",
          "name": "from",
          "type": "address"
        },
        {
          "internalType": "address",
          "name": "to",
          "type": "address"
        },
        {
          "internalType": "uint256",
          "name": "tokenId",
          "type": "uint256"
        }
      ],
      "name": "transferFrom",
      "outputs": [],
      "stateMutability": "nonpayable",
      "type": "function"
    },
    {
      "inputs": [
        {
          "internalType": "uint256",
          "name": "amount0Owed",
          "type": "uint256"
        },
        {
          "internalType": "uint256",
          "name": "amount1Owed",
          "type": "uint256"
        },
        {
          "internalType": "bytes",
          "name": "data",
          "type": "bytes"
        }
      ],
      "name": "uniswapV3MintCallback",
      "outputs": [],
      "stateMutability": "nonpayable",
      "type": "function"
    },
    {
      "inputs": [
        {
          "internalType": "uint256",
          "name": "amountMinimum",
          "type": "uint256"
        },
        {
          "internalType": "address",
          "name": "recipient",
          "type": "address"
        }
      ],
      "name": "unwrapWETH9",
      "outputs": [],
      "stateMutability": "payable",
      "type": "function"
    },
    {
      "stateMutability": "payable",
      "type": "receive"
    }
  ],
  "bytecode": "0x6101206040526001600d60006101000a81548175ffffffffffffffffffffffffffffffffffffffffffff021916908375ffffffffffffffffffffffffffffffffffffffffffff1602179055506001600d60166101000a81548169ffffffffffffffffffff021916908369ffffffffffffffffffff160217905550348015620000875760006000fd5b506040516200873e3803806200873e8339818101604052810190620000ad9190620004f8565b5b8282825b82825b6040518060400160405280601b81526020017f556e697377617020563320506f736974696f6e73204e46542d563100000000008152602001506040518060400160405280600a81526020017f554e492d56332d504f53000000000000000000000000000000000000000000008152602001506040518060400160405280600181526020017f31000000000000000000000000000000000000000000000000000000000000008152602001505b82825b5b6200017d6301ffc9a760e01b620002f960201b60201c565b5b8160066000509080519060200190620001999291906200040c565b508060076000509080519060200190620001b59291906200040c565b50620001ce6380ac58cd60e01b620002f960201b60201c565b620001e6635b5e139f60e01b620002f960201b60201c565b620001fe63780e9d6360e01b620002f960201b60201c565b5b5050828051906020012060001916608081600019168152602001505080805190602001206000191660a08160001916815260200150505b5050508173ffffffffffffffffffffffffffffffffffffffff1660c08173ffffffffffffffffffffffffffffffffffffffff1660601b815260140150508073ffffffffffffffffffffffffffffffffffffffff1660e08173ffffffffffffffffffffffffffffffffffffffff1660601b815260140150505b50508073ffffffffffffffffffffffffffffffffffffffff166101008173ffffffffffffffffffffffffffffffffffffffff1660601b815260140150505b5050505b50505062000544565b63ffffffff60e01b817bffffffffffffffffffffffffffffffffffffffffffffffffffffffff1916141515156200039b576040517f08c379a000000000000000000000000000000000000000000000000000000000815260040180806020018281038252601c8152602001807f4552433136353a20696e76616c696420696e746572666163652069640000000081526020015060200191505060405180910390fd5b600160006000506000837bffffffffffffffffffffffffffffffffffffffffffffffffffffffff19167bffffffffffffffffffffffffffffffffffffffffffffffffffffffff1916815260200190815260200160002060006101000a81548160ff0219169083151502179055505b50565b828054600181600116156101000203166002900490600052602060002090601f01602090048101928262000444576000855562000495565b82601f106200045f57805160ff191683800117855562000495565b8280016001018555821562000495579182015b8281111562000494578251826000509090559160200191906001019062000472565b5b509050620004a49190620004a8565b5090565b620004ae565b80821115620004ca5760008181506000905550600101620004ae565b50905662000543565b6000815190506001600160a01b03811681141515620004f25760006000fd5b5b919050565b600060006000606084860312156200050e578283fd5b6200051984620004d3565b92506200052960208501620004d3565b91506200053960408501620004d3565b90505b9250925092565b5b60805160a05160c05160601c60e05160601c6101005160601c618175620005c9600039806144345250806102915280612a255280612b7a5280612c1e5280615ab85280615b1b5280615b9e525080610ce352806113695280611451528061192952806143f352806145085280615034525080611f00525080611edf52506181756000f3fe6080604052600436106102895760003560e01c80634f6ccce711610153578063a4a78f0c116100cb578063c87b56dd1161007f578063df2ab5bb11610064578063df2ab5bb146109ac578063e985e9c5146109c8578063f3995c6714610a0657610358565b8063c87b56dd14610944578063d34879971461098257610358565b8063b88d4fde116100b0578063b88d4fde146108d2578063c2e3140a146108fc578063c45a01551461091857610358565b8063a4a78f0c14610886578063ac9650d8146108a257610358565b806370a082311161012257806395d89b411161010757806395d89b41146107e757806399fbab8814610813578063a22cb4651461085c57610358565b806370a082311461078d5780637ac2ff7b146107cb57610358565b80634f6ccce7146106b45780635889b477146106f25780636352211e146107235780636c0360eb1461076157610358565b80632f745c591161020157806342842e0e116101b55780634659a4941161019a5780634659a4941461065057806349404b7c1461066c5780634aa4a4fc1461068857610358565b806342842e0e1461060a57806342966c681461063457610358565b80633644e515116101e65780633644e515146105825780633a3a6dc8146105ae5780633beb26c4146105e057610358565b80632f745c591461051857806330adf81f1461055657610358565b8063095ea7b31161025857806318160ddd1161023d57806318160ddd1461049157806323b872dd146104bd578063260e12b0146104e757610358565b8063095ea7b31461043757806313ead5621461046157610358565b806301ffc9a71461035e57806303a3f2ab1461039c57806306fdde03146103cd578063081812fc146103f957610358565b36610358575b7f000000000000000000000000000000000000000000000000000000000000000073ffffffffffffffffffffffffffffffffffffffff163373ffffffffffffffffffffffffffffffffffffffff16141515610355576040517f08c379a00000000000000000000000000000000000000000000000000000000081526004018080602001828103825260098152602001807f4e6f74205745544839000000000000000000000000000000000000000000000081526020015060200191505060405180910390fd5b5b005b60006000fd5b34801561036b5760006000fd5b50610386600480360381019061038191906172d9565b610a22565b6040516103939190617a01565b60405180910390f35b6103b660048036038101906103b191906176c8565b610a92565b6040516103c4929190617c93565b60405180910390f35b3480156103da5760006000fd5b506103e36110b9565b6040516103f09190617ac6565b60405180910390f35b3480156104065760006000fd5b50610421600480360381019061041c9190617620565b611163565b60405161042e919061784d565b60405180910390f35b3480156104445760006000fd5b5061045f600480360381019061045a919061718b565b6111fe565b005b61047b60048036038101906104769190616ff2565b611365565b604051610488919061784d565b60405180910390f35b34801561049e5760006000fd5b506104a7611698565b6040516104b49190617c81565b60405180910390f35b3480156104ca5760006000fd5b506104e560048036038101906104e09190617054565b6116b9565b005b61050160048036038101906104fc919061766d565b611744565b60405161050f929190617c93565b60405180910390f35b3480156105255760006000fd5b50610540600480360381019061053b919061718b565b611e28565b60405161054d9190617c81565b60405180910390f35b3480156105635760006000fd5b5061056c611e8e565b6040516105799190617a15565b60405180910390f35b34801561058f5760006000fd5b50610598611eb5565b6040516105a59190617a15565b60405180910390f35b6105c860048036038101906105c39190617480565b611f8d565b6040516105d793929190617cac565b60405180910390f35b3480156105ed5760006000fd5b5061060860048036038101906106039190617620565b61265f565b005b3480156106175760006000fd5b50610632600480360381019061062d9190617054565b61266f565b005b61064e60048036038101906106499190617620565b612699565b005b61066a60048036038101906106659190617201565b612939565b005b6106866004803603810190610681919061763c565b612a21565b005b3480156106955760006000fd5b5061069e612c1c565b6040516106ab919061784d565b60405180910390f35b3480156106c15760006000fd5b506106dc60048036038101906106d79190617620565b612c40565b6040516106e99190617c81565b60405180910390f35b61070c600480360381019061070791906176c8565b612c6d565b60405161071a929190617c93565b60405180910390f35b3480156107305760006000fd5b5061074b60048036038101906107469190617620565b613219565b604051610758919061784d565b60405180910390f35b34801561076e5760006000fd5b50610777613258565b6040516107849190617ac6565b60405180910390f35b34801561079a5760006000fd5b506107b560048036038101906107b09190616f68565b61325e565b6040516107c29190617c81565b60405180910390f35b6107e560048036038101906107e09190617201565b613349565b005b3480156107f45760006000fd5b506107fd613945565b60405161080a9190617ac6565b60405180910390f35b3480156108205760006000fd5b5061083b60048036038101906108369190617620565b6139ef565b6040516108539c9b9a99989796959493929190617ccc565b60405180910390f35b3480156108695760006000fd5b50610884600480360381019061087f919061714f565b613e0b565b005b6108a0600480360381019061089b9190617201565b613fdf565b005b6108bc60048036038101906108b79190617264565b6140e7565b6040516108c9919061797a565b60405180910390f35b3480156108df5760006000fd5b506108fa60048036038101906108f59190617099565b61427c565b005b61091660048036038101906109119190617201565b614309565b005b3480156109255760006000fd5b5061092e6143f1565b60405161093b919061784d565b60405180910390f35b3480156109515760006000fd5b5061096c60048036038101906109679190617620565b614415565b6040516109799190617ac6565b60405180910390f35b34801561098f5760006000fd5b506109aa60048036038101906109a5919061773d565b6144f0565b005b6109c660048036038101906109c191906171bc565b614590565b005b3480156109d55760006000fd5b506109f060048036038101906109eb9190616fb6565b6146e0565b6040516109fd9190617a01565b60405180910390f35b610a206004803603810190610a1b9190617201565b61477f565b005b600060006000506000837bffffffffffffffffffffffffffffffffffffffffffffffffffffffff19167bffffffffffffffffffffffffffffffffffffffffffffffffffffffff1916815260200190815260200160002060009054906101000a900460ff169050610a8d565b919050565b6000600086610aa7338261485c63ffffffff16565b1515610ae8576040517f08c379a0000000000000000000000000000000000000000000000000000000008152600401610adf90617ae2565b60405180910390fd5b8380610af861497063ffffffff16565b11151515610b71576040517f08c379a00000000000000000000000000000000000000000000000000000000081526004018080602001828103825260138152602001807f5472616e73616374696f6e20746f6f206f6c640000000000000000000000000081526020015060200191505060405180910390fd5b6000886fffffffffffffffffffffffffffffffff16111515610b935760006000fd5b6000600c60005060008b815260200190815260200160002060005090506000600b60005060008360010160009054906101000a900469ffffffffffffffffffff1669ffffffffffffffffffff1669ffffffffffffffffffff1681526020019081526020016000206000506040518060600160405290816000820160009054906101000a900473ffffffffffffffffffffffffffffffffffffffff1673ffffffffffffffffffffffffffffffffffffffff1673ffffffffffffffffffffffffffffffffffffffff1681526020016001820160009054906101000a900473ffffffffffffffffffffffffffffffffffffffff1673ffffffffffffffffffffffffffffffffffffffff1673ffffffffffffffffffffffffffffffffffffffff1681526020016001820160149054906101000a900462ffffff1662ffffff1662ffffff168152602001505090506000610d0e7f00000000000000000000000000000000000000000000000000000000000000008361498263ffffffff16565b90508073ffffffffffffffffffffffffffffffffffffffff1663a34123a784600101600a9054906101000a900460020b85600101600d9054906101000a900460020b8e6040518463ffffffff1660e01b8152600401610d6f93929190617a8e565b604060405180830381600087803b158015610d8a5760006000fd5b505af1158015610d9f573d600060003e3d6000fd5b505050506040513d601f19601f82011682018060405250810190610dc39190617717565b8097508198505050898710151515610ddb5760006000fd5b888610151515610deb5760006000fd5b6000610e203085600101600a9054906101000a900460020b86600101600d9054906101000a900460020b614aae63ffffffff16565b9050600060008373ffffffffffffffffffffffffffffffffffffffff1663514ea4bf846040518263ffffffff1660e01b8152600401610e5f9190617a15565b60a06040518083038186803b158015610e785760006000fd5b505afa158015610e8d573d600060003e3d6000fd5b505050506040513d601f19601f82011682018060405250810190610eb191906174ff565b50509250925050610f15866002016000505483038760010160109054906101000a90046fffffffffffffffffffffffffffffffff166fffffffffffffffffffffffffffffffff16700100000000000000000000000000000000614b1a63ffffffff16565b8a018660040160008282829054906101000a90046fffffffffffffffffffffffffffffffff160192506101000a8154816fffffffffffffffffffffffffffffffff02191690836fffffffffffffffffffffffffffffffff160217905550610fcf866003016000505482038760010160109054906101000a90046fffffffffffffffffffffffffffffffff166fffffffffffffffffffffffffffffffff16700100000000000000000000000000000000614b1a63ffffffff16565b89018660040160108282829054906101000a90046fffffffffffffffffffffffffffffffff160192506101000a8154816fffffffffffffffffffffffffffffffff02191690836fffffffffffffffffffffffffffffffff160217905550818660020160005081909090555080866003016000508190909055508d8660010160108282829054906101000a90046fffffffffffffffffffffffffffffffff160392506101000a8154816fffffffffffffffffffffffffffffffff02191690836fffffffffffffffffffffffffffffffff1602179055505050505050505b5b505b509550959350505050565b606060066000508054600181600116156101000203166002900480601f0160208091040260200160405190810160405280929190818152602001828054600181600116156101000203166002900480156111545780601f1061112957610100808354040283529160200191611154565b820191906000526020600020905b81548152906001019060200180831161113757829003601f168201915b50505050509050611160565b90565b600061117482614c1b63ffffffff16565b15156111b5576040517f08c379a00000000000000000000000000000000000000000000000000000000081526004016111ac90617b21565b60405180910390fd5b600c6000506000838152602001908152602001600020600050600001600c9054906101000a900473ffffffffffffffffffffffffffffffffffffffff1690506111f9565b919050565b600061120f8261321963ffffffff16565b90508073ffffffffffffffffffffffffffffffffffffffff168373ffffffffffffffffffffffffffffffffffffffff1614151515611298576040517f08c379a00000000000000000000000000000000000000000000000000000000081526004018080602001828103825260218152602001806180ee6021913960400191505060405180910390fd5b8073ffffffffffffffffffffffffffffffffffffffff166112bd614c4063ffffffff16565b73ffffffffffffffffffffffffffffffffffffffff1614806112f857506112f7816112ec614c4063ffffffff16565b6146e063ffffffff16565b5b151561134f576040517f08c379a00000000000000000000000000000000000000000000000000000000081526004018080602001828103825260388152602001806180186038913960400191505060405180910390fd5b61135f8383614c4d63ffffffff16565b505b5050565b60007f000000000000000000000000000000000000000000000000000000000000000073ffffffffffffffffffffffffffffffffffffffff16631698ee828686866040518463ffffffff1660e01b81526004016113c493929190617875565b60206040518083038186803b1580156113dd5760006000fd5b505afa1580156113f2573d600060003e3d6000fd5b505050506040513d601f19601f820116820180604052508101906114169190616f8f565b90508050600073ffffffffffffffffffffffffffffffffffffffff168173ffffffffffffffffffffffffffffffffffffffff161415611576577f000000000000000000000000000000000000000000000000000000000000000073ffffffffffffffffffffffffffffffffffffffff1663a16712958686866040518463ffffffff1660e01b81526004016114ac93929190617875565b602060405180830381600087803b1580156114c75760006000fd5b505af11580156114dc573d600060003e3d6000fd5b505050506040513d601f19601f820116820180604052508101906115009190616f8f565b905080508073ffffffffffffffffffffffffffffffffffffffff1663f637731d836040518263ffffffff1660e01b815260040161153d9190617c59565b600060405180830381600087803b1580156115585760006000fd5b505af115801561156d573d600060003e3d6000fd5b5050505061168f565b60008173ffffffffffffffffffffffffffffffffffffffff16633850c7bd6040518163ffffffff1660e01b815260040160e06040518083038186803b1580156115bf5760006000fd5b505afa1580156115d4573d600060003e3d6000fd5b505050506040513d601f19601f820116820180604052508101906115f89190617564565b505050505050905060008173ffffffffffffffffffffffffffffffffffffffff16141561168d578173ffffffffffffffffffffffffffffffffffffffff1663f637731d846040518263ffffffff1660e01b81526004016116589190617c59565b600060405180830381600087803b1580156116735760006000fd5b505af1158015611688573d600060003e3d6000fd5b505050505b505b5b949350505050565b60006116af6002600050614d16909063ffffffff16565b90506116b6565b90565b6116d66116ca614c4063ffffffff16565b8261485c63ffffffff16565b151561172d576040517f08c379a000000000000000000000000000000000000000000000000000000000815260040180806020018281038252603181526020018061810f6031913960400191505060405180910390fd5b61173e838383614d3963ffffffff16565b5b505050565b6000600085611759338261485c63ffffffff16565b151561179a576040517f08c379a000000000000000000000000000000000000000000000000000000000815260040161179190617ae2565b60405180910390fd5b6000856fffffffffffffffffffffffffffffffff1611806117cd57506000846fffffffffffffffffffffffffffffffff16115b15156117d95760006000fd5b6000600c600050600089815260200190815260200160002060005090506000600b60005060008360010160009054906101000a900469ffffffffffffffffffff1669ffffffffffffffffffff1669ffffffffffffffffffff1681526020019081526020016000206000506040518060600160405290816000820160009054906101000a900473ffffffffffffffffffffffffffffffffffffffff1673ffffffffffffffffffffffffffffffffffffffff1673ffffffffffffffffffffffffffffffffffffffff1681526020016001820160009054906101000a900473ffffffffffffffffffffffffffffffffffffffff1673ffffffffffffffffffffffffffffffffffffffff1673ffffffffffffffffffffffffffffffffffffffff1681526020016001820160149054906101000a900462ffffff1662ffffff1662ffffff1681526020015050905060006119547f00000000000000000000000000000000000000000000000000000000000000008361498263ffffffff16565b9050600060008460040160009054906101000a90046fffffffffffffffffffffffffffffffff168560040160109054906101000a90046fffffffffffffffffffffffffffffffff169150915060008560010160109054906101000a90046fffffffffffffffffffffffffffffffff166fffffffffffffffffffffffffffffffff161115611c3e578273ffffffffffffffffffffffffffffffffffffffff1663a34123a786600101600a9054906101000a900460020b87600101600d9054906101000a900460020b60006040518463ffffffff1660e01b8152600401611a3b93929190617a56565b604060405180830381600087803b158015611a565760006000fd5b505af1158015611a6b573d600060003e3d6000fd5b505050506040513d601f19601f82011682018060405250810190611a8f9190617717565b5050600060008473ffffffffffffffffffffffffffffffffffffffff1663514ea4bf611ae4308a600101600a9054906101000a900460020b8b600101600d9054906101000a900460020b614aae63ffffffff16565b6040518263ffffffff1660e01b8152600401611b009190617a15565b60a06040518083038186803b158015611b195760006000fd5b505afa158015611b2e573d600060003e3d6000fd5b505050506040513d601f19601f82011682018060405250810190611b5291906174ff565b50509250925050611bb6876002016000505483038860010160109054906101000a90046fffffffffffffffffffffffffffffffff166fffffffffffffffffffffffffffffffff16700100000000000000000000000000000000614b1a63ffffffff16565b840193508350611c19876003016000505482038860010160109054906101000a90046fffffffffffffffffffffffffffffffff166fffffffffffffffffffffffffffffffff16700100000000000000000000000000000000614b1a63ffffffff16565b8301925082508187600201600050819090905550808760030160005081909090555050505b816fffffffffffffffffffffffffffffffff168a6fffffffffffffffffffffffffffffffff1611611c6f5789611c71565b815b816fffffffffffffffffffffffffffffffff168a6fffffffffffffffffffffffffffffffff1611611ca25789611ca4565b815b809a50819b5050508273ffffffffffffffffffffffffffffffffffffffff16634f1eb3d88c87600101600a9054906101000a900460020b88600101600d9054906101000a900460020b8e8e6040518663ffffffff1660e01b8152600401611d0f95949392919061791a565b604060405180830381600087803b158015611d2a5760006000fd5b505af1158015611d3f573d600060003e3d6000fd5b505050506040513d601f19601f82011682018060405250810190611d6391906174c3565b816fffffffffffffffffffffffffffffffff169150806fffffffffffffffffffffffffffffffff16905080985081995050508982038982038660040160008860040160108491906101000a8154816fffffffffffffffffffffffffffffffff02191690836fffffffffffffffffffffffffffffffff1602179055508391906101000a8154816fffffffffffffffffffffffffffffffff02191690836fffffffffffffffffffffffffffffffff160217905550505050505050505b5b5094509492505050565b6000611e8182600160005060008673ffffffffffffffffffffffffffffffffffffffff1673ffffffffffffffffffffffffffffffffffffffff168152602001908152602001600020600050614fa290919063ffffffff16565b9050611e88565b92915050565b7f49ecf333e5b8c95c40fdafc95c1ad136e8914a8fb55e9dc8bb01eaa83a2df9ad60001b81565b600060004690507f8b73c3c69bb8fe3d512ecc4cf759cc79239f7b179b0ffacaa9a75d522b39400f7f00000000000000000000000000000000000000000000000000000000000000007f000000000000000000000000000000000000000000000000000000000000000083306040516020018086815260200185600019168152602001846000191681526020018381526020018273ffffffffffffffffffffffffffffffffffffffff1681526020019550505050505060405160208183030381529060405280519060200120915050611f8a56505b90565b60006000600083610120013580611fa861497063ffffffff16565b11151515612021576040517f08c379a00000000000000000000000000000000000000000000000000000000081526004018080602001828103825260138152602001807f5472616e73616374696f6e20746f6f206f6c640000000000000000000000000081526020015060200191505060405180910390fd5b60006121476040518061012001604052808860000160208101906120459190616f68565b73ffffffffffffffffffffffffffffffffffffffff1681526020018860200160208101906120739190616f68565b73ffffffffffffffffffffffffffffffffffffffff1681526020018860400160208101906120a191906175fd565b62ffffff1681526020013073ffffffffffffffffffffffffffffffffffffffff1681526020018860600160208101906120da9190617326565b60020b81526020018860800160208101906120f59190617326565b60020b81526020018860a0016020810190612110919061749c565b6fffffffffffffffffffffffffffffffff1681526020018860c0013581526020018860e00135815260200150614fca63ffffffff16565b8093508195508296505050506122008661010001602081019061216a9190616f68565b600d600081819054906101000a900475ffffffffffffffffffffffffffffffffffffffffffff168092919060010191906101000a81548175ffffffffffffffffffffffffffffffffffffffffffff021916908375ffffffffffffffffffffffffffffffffffffffffffff16021790555075ffffffffffffffffffffffffffffffffffffffffffff1696508661518e63ffffffff16565b6000612237308860600160208101906122199190617326565b89608001602081019061222c9190617326565b614aae63ffffffff16565b9050600060008373ffffffffffffffffffffffffffffffffffffffff1663514ea4bf846040518263ffffffff1660e01b81526004016122769190617a15565b60a06040518083038186803b15801561228f5760006000fd5b505afa1580156122a4573d600060003e3d6000fd5b505050506040513d601f19601f820116820180604052508101906122c891906174ff565b5050925092505060006123658560405180606001604052808d60000160208101906122f39190616f68565b73ffffffffffffffffffffffffffffffffffffffff1681526020018d60200160208101906123219190616f68565b73ffffffffffffffffffffffffffffffffffffffff1681526020018d604001602081019061234f91906175fd565b62ffffff168152602001506153a263ffffffff16565b905060405180610140016040528060006bffffffffffffffffffffffff168152602001600073ffffffffffffffffffffffffffffffffffffffff1681526020018269ffffffffffffffffffff1681526020018b60600160208101906123ca9190617326565b60020b81526020018b60800160208101906123e59190617326565b60020b81526020018b60a0016020810190612400919061749c565b6fffffffffffffffffffffffffffffffff16815260200184815260200183815260200160006fffffffffffffffffffffffffffffffff16815260200160006fffffffffffffffffffffffffffffffff16815260200150600c60005060008b815260200190815260200160002060005060008201518160000160006101000a8154816bffffffffffffffffffffffff02191690836bffffffffffffffffffffffff160217905550602082015181600001600c6101000a81548173ffffffffffffffffffffffffffffffffffffffff021916908373ffffffffffffffffffffffffffffffffffffffff16021790555060408201518160010160006101000a81548169ffffffffffffffffffff021916908369ffffffffffffffffffff160217905550606082015181600101600a6101000a81548162ffffff021916908360020b62ffffff160217905550608082015181600101600d6101000a81548162ffffff021916908360020b62ffffff16021790555060a08201518160010160106101000a8154816fffffffffffffffffffffffffffffffff02191690836fffffffffffffffffffffffffffffffff16021790555060c08201518160020160005090905560e0820151816003016000509090556101008201518160040160006101000a8154816fffffffffffffffffffffffffffffffff02191690836fffffffffffffffffffffffffffffffff1602179055506101208201518160040160106101000a8154816fffffffffffffffffffffffffffffffff02191690836fffffffffffffffffffffffffffffffff16021790555090505050505050505b5b509193909250565b80600e6000508190909055505b50565b6126938383836040518060200160405280600081526020015061427c63ffffffff16565b5b505050565b806126aa338261485c63ffffffff16565b15156126eb576040517f08c379a00000000000000000000000000000000000000000000000000000000081526004016126e290617ae2565b60405180910390fd5b6000600c6000506000848152602001908152602001600020600050905060008160010160109054906101000a90046fffffffffffffffffffffffffffffffff166fffffffffffffffffffffffffffffffff1614801561277c575060008160040160009054906101000a90046fffffffffffffffffffffffffffffffff166fffffffffffffffffffffffffffffffff16145b80156127ba575060008160040160109054906101000a90046fffffffffffffffffffffffffffffffff166fffffffffffffffffffffffffffffffff16145b15156127fb576040517f08c379a00000000000000000000000000000000000000000000000000000000081526004016127f290617bc5565b60405180910390fd5b600c600050600084815260200190815260200160002060006000820160006101000a8154906bffffffffffffffffffffffff021916905560008201600c6101000a81549073ffffffffffffffffffffffffffffffffffffffff02191690556001820160006101000a81549069ffffffffffffffffffff021916905560018201600a6101000a81549062ffffff021916905560018201600d6101000a81549062ffffff02191690556001820160106101000a8154906fffffffffffffffffffffffffffffffff0219169055600282016000506000905560038201600050600090556004820160006101000a8154906fffffffffffffffffffffffffffffffff02191690556004820160106101000a8154906fffffffffffffffffffffffffffffffff02191690555050612932836155c163ffffffff16565b505b5b5050565b8573ffffffffffffffffffffffffffffffffffffffff16638fcbaf0c3330888860018989896040518963ffffffff1660e01b8152600401808973ffffffffffffffffffffffffffffffffffffffff1681526020018873ffffffffffffffffffffffffffffffffffffffff16815260200187815260200186815260200185151581526020018460ff168152602001836000191681526020018260001916815260200198505050505050505050600060405180830381600087803b1580156129ff5760006000fd5b505af1158015612a14573d600060003e3d6000fd5b505050505b505050505050565b60007f000000000000000000000000000000000000000000000000000000000000000073ffffffffffffffffffffffffffffffffffffffff166370a08231306040518263ffffffff1660e01b8152600401808273ffffffffffffffffffffffffffffffffffffffff16815260200191505060206040518083038186803b158015612aab5760006000fd5b505afa158015612ac0573d600060003e3d6000fd5b505050506040513d6020811015612ad75760006000fd5b810190808051906020019092919050505090506000831115612b6f57828110151515612b6e576040517f08c379a00000000000000000000000000000000000000000000000000000000081526004018080602001828103825260128152602001807f496e73756666696369656e74205745544839000000000000000000000000000081526020015060200191505060405180910390fd5b5b6000811115612c16577f000000000000000000000000000000000000000000000000000000000000000073ffffffffffffffffffffffffffffffffffffffff16632e1a7d4d826040518263ffffffff1660e01b815260040180828152602001915050600060405180830381600087803b158015612bec5760006000fd5b505af1158015612c01573d600060003e3d6000fd5b50505050612c15828261572263ffffffff16565b5b505b5050565b7f000000000000000000000000000000000000000000000000000000000000000081565b60006000612c5b8360026000506158a890919063ffffffff16565b50905080915050612c6856505b919050565b600060008280612c8161497063ffffffff16565b11151515612cfa576040517f08c379a00000000000000000000000000000000000000000000000000000000081526004018080602001828103825260138152602001807f5472616e73616374696f6e20746f6f206f6c640000000000000000000000000081526020015060200191505060405180910390fd5b6000876fffffffffffffffffffffffffffffffff16111515612d1c5760006000fd5b6000600c60005060008a815260200190815260200160002060005090506000600b60005060008360010160009054906101000a900469ffffffffffffffffffff1669ffffffffffffffffffff1669ffffffffffffffffffff1681526020019081526020016000206000506040518060600160405290816000820160009054906101000a900473ffffffffffffffffffffffffffffffffffffffff1673ffffffffffffffffffffffffffffffffffffffff1673ffffffffffffffffffffffffffffffffffffffff1681526020016001820160009054906101000a900473ffffffffffffffffffffffffffffffffffffffff1673ffffffffffffffffffffffffffffffffffffffff1673ffffffffffffffffffffffffffffffffffffffff1681526020016001820160149054906101000a900462ffffff1662ffffff1662ffffff168152602001505090506000612f45604051806101200160405280846000015173ffffffffffffffffffffffffffffffffffffffff168152602001846020015173ffffffffffffffffffffffffffffffffffffffff168152602001846040015162ffffff1681526020013073ffffffffffffffffffffffffffffffffffffffff16815260200185600101600a9054906101000a900460020b60020b815260200185600101600d9054906101000a900460020b60020b81526020018c6fffffffffffffffffffffffffffffffff1681526020018b81526020018a815260200150614fca63ffffffff16565b8093508197508298505050506000612f863085600101600a9054906101000a900460020b86600101600d9054906101000a900460020b614aae63ffffffff16565b9050600060008373ffffffffffffffffffffffffffffffffffffffff1663514ea4bf846040518263ffffffff1660e01b8152600401612fc59190617a15565b60a06040518083038186803b158015612fde5760006000fd5b505afa158015612ff3573d600060003e3d6000fd5b505050506040513d601f19601f8201168201806040525081019061301791906174ff565b5050925092505061307b866002016000505483038760010160109054906101000a90046fffffffffffffffffffffffffffffffff166fffffffffffffffffffffffffffffffff16700100000000000000000000000000000000614b1a63ffffffff16565b8660040160008282829054906101000a90046fffffffffffffffffffffffffffffffff160192506101000a8154816fffffffffffffffffffffffffffffffff02191690836fffffffffffffffffffffffffffffffff160217905550613133866003016000505482038760010160109054906101000a90046fffffffffffffffffffffffffffffffff166fffffffffffffffffffffffffffffffff16700100000000000000000000000000000000614b1a63ffffffff16565b8660040160108282829054906101000a90046fffffffffffffffffffffffffffffffff160192506101000a8154816fffffffffffffffffffffffffffffffff02191690836fffffffffffffffffffffffffffffffff160217905550818660020160005081909090555080866003016000508190909055508c8660010160108282829054906101000a90046fffffffffffffffffffffffffffffffff160192506101000a8154816fffffffffffffffffffffffffffffffff02191690836fffffffffffffffffffffffffffffffff1602179055505050505050505b5b509550959350505050565b600061324c8260405180606001604052806029815260200161807a6029913960026000506158e99092919063ffffffff16565b9050613253565b919050565b60605b90565b6000600073ffffffffffffffffffffffffffffffffffffffff168273ffffffffffffffffffffffffffffffffffffffff16141515156132e8576040517f08c379a000000000000000000000000000000000000000000000000000000000815260040180806020018281038252602a815260200180618050602a913960400191505060405180910390fd5b61333d600160005060008473ffffffffffffffffffffffffffffffffffffffff1673ffffffffffffffffffffffffffffffffffffffff168152602001908152602001600020600050615916909063ffffffff16565b9050613344565b919050565b8361335861497063ffffffff16565b111515156133d1576040517f08c379a000000000000000000000000000000000000000000000000000000000815260040180806020018281038252600e8152602001807f5065726d6974206578706972656400000000000000000000000000000000000081526020015060200191505060405180910390fd5b60006133e1611eb563ffffffff16565b7f49ecf333e5b8c95c40fdafc95c1ad136e8914a8fb55e9dc8bb01eaa83a2df9ad60001b88886134168a61593963ffffffff16565b8960405160200180866000191681526020018573ffffffffffffffffffffffffffffffffffffffff168152602001848152602001838152602001828152602001955050505050506040516020818303038152906040528051906020012060405160200180807f190100000000000000000000000000000000000000000000000000000000000081526020015060020183600019168152602001826000191681526020019250505060405160208183030381529060405280519060200120905060006134e68761321963ffffffff16565b90508073ffffffffffffffffffffffffffffffffffffffff168873ffffffffffffffffffffffffffffffffffffffff161415151561356f576040517f08c379a0000000000000000000000000000000000000000000000000000000008152600401808060200182810382526027815260200180617f7b6027913960400191505060405180910390fd5b61357e816159c163ffffffff16565b1561376557631626ba7e60e01b8173ffffffffffffffffffffffffffffffffffffffff16631626ba7e8487878a6040516020018084600019168152602001836000191681526020018260ff1660f81b815260010193505050506040516020818303038152906040526040518363ffffffff1660e01b8152600401808360001916815260200180602001828103825283818151815260200191508051906020019080838360005b838110156136405780820151818401525b602081019050613624565b50505050905090810190601f16801561366d5780820380516001836020036101000a031916815260200191505b50935050505060206040518083038186803b15801561368c5760006000fd5b505afa1580156136a1573d600060003e3d6000fd5b505050506040513d60208110156136b85760006000fd5b81019080805190602001909291905050507bffffffffffffffffffffffffffffffffffffffffffffffffffffffff1916141515613760576040517f08c379a000000000000000000000000000000000000000000000000000000000815260040180806020018281038252600c8152602001807f556e617574686f72697a6564000000000000000000000000000000000000000081526020015060200191505060405180910390fd5b61392a565b60006001838787876040516000815260200160405260405180856000191681526020018460ff16815260200183600019168152602001826000191681526020019450505050506020604051602081039080840390855afa1580156137ce573d600060003e3d6000fd5b505050602060405103519050600073ffffffffffffffffffffffffffffffffffffffff168173ffffffffffffffffffffffffffffffffffffffff1614151515613882576040517f08c379a00000000000000000000000000000000000000000000000000000000081526004018080602001828103825260118152602001807f496e76616c6964207369676e617475726500000000000000000000000000000081526020015060200191505060405180910390fd5b8173ffffffffffffffffffffffffffffffffffffffff168173ffffffffffffffffffffffffffffffffffffffff16141515613928576040517f08c379a000000000000000000000000000000000000000000000000000000000815260040180806020018281038252600c8152602001807f556e617574686f72697a6564000000000000000000000000000000000000000081526020015060200191505060405180910390fd5b505b61393a8888614c4d63ffffffff16565b50505b505050505050565b606060076000508054600181600116156101000203166002900480601f0160208091040260200160405190810160405280929190818152602001828054600181600116156101000203166002900480156139e05780601f106139b5576101008083540402835291602001916139e0565b820191906000526020600020905b8154815290600101906020018083116139c357829003601f168201915b505050505090506139ec565b90565b6000600060006000600060006000600060006000600060006000600c60005060008f8152602001908152602001600020600050604051806101400160405290816000820160009054906101000a90046bffffffffffffffffffffffff166bffffffffffffffffffffffff166bffffffffffffffffffffffff16815260200160008201600c9054906101000a900473ffffffffffffffffffffffffffffffffffffffff1673ffffffffffffffffffffffffffffffffffffffff1673ffffffffffffffffffffffffffffffffffffffff1681526020016001820160009054906101000a900469ffffffffffffffffffff1669ffffffffffffffffffff1669ffffffffffffffffffff16815260200160018201600a9054906101000a900460020b60020b60020b815260200160018201600d9054906101000a900460020b60020b60020b81526020016001820160109054906101000a90046fffffffffffffffffffffffffffffffff166fffffffffffffffffffffffffffffffff166fffffffffffffffffffffffffffffffff16815260200160028201600050548152602001600382016000505481526020016004820160009054906101000a90046fffffffffffffffffffffffffffffffff166fffffffffffffffffffffffffffffffff166fffffffffffffffffffffffffffffffff1681526020016004820160109054906101000a90046fffffffffffffffffffffffffffffffff166fffffffffffffffffffffffffffffffff166fffffffffffffffffffffffffffffffff168152602001505090506000816040015169ffffffffffffffffffff1614151515613c87576040517f08c379a0000000000000000000000000000000000000000000000000000000008152600401613c7e90617b86565b60405180910390fd5b6000600b6000506000836040015169ffffffffffffffffffff1669ffffffffffffffffffff1681526020019081526020016000206000506040518060600160405290816000820160009054906101000a900473ffffffffffffffffffffffffffffffffffffffff1673ffffffffffffffffffffffffffffffffffffffff1673ffffffffffffffffffffffffffffffffffffffff1681526020016001820160009054906101000a900473ffffffffffffffffffffffffffffffffffffffff1673ffffffffffffffffffffffffffffffffffffffff1673ffffffffffffffffffffffffffffffffffffffff1681526020016001820160149054906101000a900462ffffff1662ffffff1662ffffff1681526020015050905081600001518260200151826000015183602001518460400151866060015187608001518860a001518960c001518a60e001518b61010001518c61012001519d509d509d509d509d509d509d509d509d509d509d509d505050613dfc5650505b91939597999b5091939597999b565b613e19614c4063ffffffff16565b73ffffffffffffffffffffffffffffffffffffffff168273ffffffffffffffffffffffffffffffffffffffff1614151515613ebf576040517f08c379a00000000000000000000000000000000000000000000000000000000081526004018080602001828103825260198152602001807f4552433732313a20617070726f766520746f2063616c6c65720000000000000081526020015060200191505060405180910390fd5b8060056000506000613ed5614c4063ffffffff16565b73ffffffffffffffffffffffffffffffffffffffff1673ffffffffffffffffffffffffffffffffffffffff16815260200190815260200160002060005060008473ffffffffffffffffffffffffffffffffffffffff1673ffffffffffffffffffffffffffffffffffffffff16815260200190815260200160002060006101000a81548160ff0219169083151502179055508173ffffffffffffffffffffffffffffffffffffffff16613f8b614c4063ffffffff16565b73ffffffffffffffffffffffffffffffffffffffff167f17307eab39ab6107e8899845ad3d59bd9653f200f220920489ca2b5937696c318360405180821515815260200191505060405180910390a35b5050565b7fffffffffffffffffffffffffffffffffffffffffffffffffffffffffffffffff8673ffffffffffffffffffffffffffffffffffffffff1663dd62ed3e33306040518363ffffffff1660e01b8152600401808373ffffffffffffffffffffffffffffffffffffffff1681526020018273ffffffffffffffffffffffffffffffffffffffff1681526020019250505060206040518083038186803b1580156140865760006000fd5b505afa15801561409b573d600060003e3d6000fd5b505050506040513d60208110156140b25760006000fd5b810190808051906020019092919050505010156140de576140dd86868686868661293963ffffffff16565b5b5b505050505050565b60608282905067ffffffffffffffff811180156141045760006000fd5b5060405190808252806020026020018201604052801561413857816020015b60608152602001906001900390816141235790505b50905080506000600090505b8383905081101561427457600060003073ffffffffffffffffffffffffffffffffffffffff16868685818110151561417857fe5b905060200281019061418a9190617d7e565b604051614198929190617835565b600060405180830381855af49150503d80600081146141d3576040519150601f19603f3d011682016040523d82523d6000602084013e6141d8565b606091505b509150915081151561424a576044815110156141f45760006000fd5b6004810190508080602001905181019061420e919061734d565b6040517f08c379a00000000000000000000000000000000000000000000000000000000081526004016142419190617ac6565b60405180910390fd5b80848481518110151561425957fe5b602002602001018190525050505b8080600101915050614144565b505b92915050565b61429961428d614c4063ffffffff16565b8361485c63ffffffff16565b15156142f0576040517f08c379a000000000000000000000000000000000000000000000000000000000815260040180806020018281038252603181526020018061810f6031913960400191505060405180910390fd5b614302848484846159db63ffffffff16565b5b50505050565b848673ffffffffffffffffffffffffffffffffffffffff1663dd62ed3e33306040518363ffffffff1660e01b8152600401808373ffffffffffffffffffffffffffffffffffffffff1681526020018273ffffffffffffffffffffffffffffffffffffffff1681526020019250505060206040518083038186803b1580156143905760006000fd5b505afa1580156143a5573d600060003e3d6000fd5b505050506040513d60208110156143bc5760006000fd5b810190808051906020019092919050505010156143e8576143e786868686868661477f63ffffffff16565b5b5b505050505050565b7f000000000000000000000000000000000000000000000000000000000000000081565b606061442682614c1b63ffffffff16565b15156144325760006000fd5b7f000000000000000000000000000000000000000000000000000000000000000073ffffffffffffffffffffffffffffffffffffffff1663e9dc637530846040518363ffffffff1660e01b815260040161448d929190617a27565b60006040518083038186803b1580156144a65760006000fd5b505afa1580156144bb573d600060003e3d6000fd5b505050506040513d6000823e3d601f19601f820116820180604052508101906144e4919061734d565b90506144eb565b919050565b6000828281019061450191906173ce565b90506145377f00000000000000000000000000000000000000000000000000000000000000008260000151615a5c63ffffffff16565b5060008511156145605761455f81600001516000015182602001513388615ab463ffffffff16565b5b60008411156145885761458781600001516020015182602001513387615ab463ffffffff16565b5b505b50505050565b60008373ffffffffffffffffffffffffffffffffffffffff166370a08231306040518263ffffffff1660e01b8152600401808273ffffffffffffffffffffffffffffffffffffffff16815260200191505060206040518083038186803b1580156145fa5760006000fd5b505afa15801561460f573d600060003e3d6000fd5b505050506040513d60208110156146265760006000fd5b8101908080519060200190929190505050905060008311156146be578281101515156146bd576040517f08c379a00000000000000000000000000000000000000000000000000000000081526004018080602001828103825260128152602001807f496e73756666696369656e7420746f6b656e000000000000000000000000000081526020015060200191505060405180910390fd5b5b60008111156146d9576146d8848383615cd763ffffffff16565b5b505b505050565b6000600560005060008473ffffffffffffffffffffffffffffffffffffffff1673ffffffffffffffffffffffffffffffffffffffff16815260200190815260200160002060005060008373ffffffffffffffffffffffffffffffffffffffff1673ffffffffffffffffffffffffffffffffffffffff16815260200190815260200160002060009054906101000a900460ff169050614779565b92915050565b8573ffffffffffffffffffffffffffffffffffffffff1663d505accf333088888888886040518863ffffffff1660e01b8152600401808873ffffffffffffffffffffffffffffffffffffffff1681526020018773ffffffffffffffffffffffffffffffffffffffff1681526020018681526020018581526020018460ff1681526020018360001916815260200182600019168152602001975050505050505050600060405180830381600087803b15801561483a5760006000fd5b505af115801561484f573d600060003e3d6000fd5b505050505b505050505050565b600061486d82614c1b63ffffffff16565b15156148c4576040517f08c379a000000000000000000000000000000000000000000000000000000000815260040180806020018281038252602c815260200180617fec602c913960400191505060405180910390fd5b60006148d58361321963ffffffff16565b90508073ffffffffffffffffffffffffffffffffffffffff168473ffffffffffffffffffffffffffffffffffffffff16148061494a57508373ffffffffffffffffffffffffffffffffffffffff166149328461116363ffffffff16565b73ffffffffffffffffffffffffffffffffffffffff16145b80614961575061496081856146e063ffffffff16565b5b91505061496a56505b92915050565b6000600e60005054905061497f565b90565b6000816020015173ffffffffffffffffffffffffffffffffffffffff16826000015173ffffffffffffffffffffffffffffffffffffffff161015156149c75760006000fd5b8273ffffffffffffffffffffffffffffffffffffffff16631698ee828360000151846020015185604001516040518463ffffffff1660e01b8152600401808473ffffffffffffffffffffffffffffffffffffffff1681526020018373ffffffffffffffffffffffffffffffffffffffff1681526020018262ffffff168152602001935050505060206040518083038186803b158015614a665760006000fd5b505afa158015614a7b573d600060003e3d6000fd5b505050506040513d6020811015614a925760006000fd5b8101908080519060200190929190505050905080505b92915050565b6000838383604051602001808473ffffffffffffffffffffffffffffffffffffffff1660601b81526014018360020b60e81b81526003018260020b60e81b81526003019350505050604051602081830303815290604052805190602001209050614b13565b9392505050565b6000600060006000198587098587029250828110838203039150506000811415614b5d57600084111515614b4e5760006000fd5b83820492508292505050614c14565b8084111515614b6c5760006000fd5b6000848688099050828111820391508083039250600085866000031690508086049550808404935060018182600003040190508083028417935083506000600287600302189050808702600203810290508050808702600203810290508050808702600203810290508050808702600203810290508050808702600203810290508050808702600203810290508050808502955085508595505050505050614c145650505050505b9392505050565b6000614c34826002600050615ee390919063ffffffff16565b9050614c3b565b919050565b6000339050614c4a565b90565b81600c6000506000838152602001908152602001600020600050600001600c6101000a81548173ffffffffffffffffffffffffffffffffffffffff021916908373ffffffffffffffffffffffffffffffffffffffff160217905550808273ffffffffffffffffffffffffffffffffffffffff16614ccf8361321963ffffffff16565b73ffffffffffffffffffffffffffffffffffffffff167f8c5be1e5ebec7d5bd14f71427d1e84f3dd0314c0f7b2291e5b200ac8c7c3b92560405160405180910390a45b5050565b6000614d2d82600001600050615f0b63ffffffff16565b9050614d34565b919050565b8273ffffffffffffffffffffffffffffffffffffffff16614d5f8261321963ffffffff16565b73ffffffffffffffffffffffffffffffffffffffff16141515614dcd576040517f08c379a00000000000000000000000000000000000000000000000000000000081526004018080602001828103825260298152602001806180c56029913960400191505060405180910390fd5b600073ffffffffffffffffffffffffffffffffffffffff168273ffffffffffffffffffffffffffffffffffffffff1614151515614e55576040517f08c379a0000000000000000000000000000000000000000000000000000000008152600401808060200182810382526024815260200180617fa26024913960400191505060405180910390fd5b614e66838383615f2463ffffffff16565b614e77600082614c4d63ffffffff16565b614ece81600160005060008673ffffffffffffffffffffffffffffffffffffffff1673ffffffffffffffffffffffffffffffffffffffff168152602001908152602001600020600050615f2a90919063ffffffff16565b50614f2681600160005060008573ffffffffffffffffffffffffffffffffffffffff1673ffffffffffffffffffffffffffffffffffffffff168152602001908152602001600020600050615f5290919063ffffffff16565b50614f4081836002600050615f7a9092919063ffffffff16565b50808273ffffffffffffffffffffffffffffffffffffffff168473ffffffffffffffffffffffffffffffffffffffff167fddf252ad1be2c89b69c2b068fc378daa952ba7f163c4a11628f55a4df523b3ef60405160405180910390a45b505050565b6000614fba8360000160005083615fbd63ffffffff16565b60001c9050614fc4565b92915050565b60006000600060006040518060600160405280866000015173ffffffffffffffffffffffffffffffffffffffff168152602001866020015173ffffffffffffffffffffffffffffffffffffffff168152602001866040015162ffffff16815260200150905061505f7f00000000000000000000000000000000000000000000000000000000000000008261498263ffffffff16565b915081508173ffffffffffffffffffffffffffffffffffffffff16633c8a7d8d866060015187608001518860a001518960c0015160405180604001604052808881526020013373ffffffffffffffffffffffffffffffffffffffff168152602001506040516020016150d19190617c04565b6040516020818303038152906040526040518663ffffffff1660e01b81526004016151009594939291906178b4565b604060405180830381600087803b15801561511b5760006000fd5b505af1158015615130573d600060003e3d6000fd5b505050506040513d601f19601f820116820180604052508101906151549190617717565b80945081955050508460e0015184111515156151705760006000fd5b84610100015183111515156151855760006000fd5b505b9193909250565b600073ffffffffffffffffffffffffffffffffffffffff168273ffffffffffffffffffffffffffffffffffffffff1614151515615236576040517f08c379a00000000000000000000000000000000000000000000000000000000081526004018080602001828103825260208152602001807f4552433732313a206d696e7420746f20746865207a65726f206164647265737381526020015060200191505060405180910390fd5b61524581614c1b63ffffffff16565b1515156152bd576040517f08c379a000000000000000000000000000000000000000000000000000000000815260040180806020018281038252601c8152602001807f4552433732313a20746f6b656e20616c7265616479206d696e7465640000000081526020015060200191505060405180910390fd5b6152cf60008383615f2463ffffffff16565b61532681600160005060008573ffffffffffffffffffffffffffffffffffffffff1673ffffffffffffffffffffffffffffffffffffffff168152602001908152602001600020600050615f5290919063ffffffff16565b5061534081836002600050615f7a9092919063ffffffff16565b50808273ffffffffffffffffffffffffffffffffffffffff16600073ffffffffffffffffffffffffffffffffffffffff167fddf252ad1be2c89b69c2b068fc378daa952ba7f163c4a11628f55a4df523b3ef60405160405180910390a45b5050565b6000600a60005060008473ffffffffffffffffffffffffffffffffffffffff1673ffffffffffffffffffffffffffffffffffffffff16815260200190815260200160002060009054906101000a900469ffffffffffffffffffff169050805060008169ffffffffffffffffffff1614156155ba57600d601681819054906101000a900469ffffffffffffffffffff168092919060010191906101000a81548169ffffffffffffffffffff021916908369ffffffffffffffffffff160217905550905080600a60005060008573ffffffffffffffffffffffffffffffffffffffff1673ffffffffffffffffffffffffffffffffffffffff16815260200190815260200160002060006101000a81548169ffffffffffffffffffff021916908369ffffffffffffffffffff16021790555081600b60005060008369ffffffffffffffffffff1669ffffffffffffffffffff16815260200190815260200160002060005060008201518160000160006101000a81548173ffffffffffffffffffffffffffffffffffffffff021916908373ffffffffffffffffffffffffffffffffffffffff16021790555060208201518160010160006101000a81548173ffffffffffffffffffffffffffffffffffffffff021916908373ffffffffffffffffffffffffffffffffffffffff16021790555060408201518160010160146101000a81548162ffffff021916908362ffffff1602179055509050505b5b92915050565b60006155d28261321963ffffffff16565b90506155e681600084615f2463ffffffff16565b6155f7600083614c4d63ffffffff16565b600060086000506000848152602001908152602001600020600050805460018160011615610100020316600290049050141515615651576008600050600083815260200190815260200160002060006156509190616ea5565b5b6156a882600160005060008473ffffffffffffffffffffffffffffffffffffffff1673ffffffffffffffffffffffffffffffffffffffff168152602001908152602001600020600050615f2a90919063ffffffff16565b506156c082600260005061605490919063ffffffff16565b5081600073ffffffffffffffffffffffffffffffffffffffff168273ffffffffffffffffffffffffffffffffffffffff167fddf252ad1be2c89b69c2b068fc378daa952ba7f163c4a11628f55a4df523b3ef60405160405180910390a4505b50565b60008273ffffffffffffffffffffffffffffffffffffffff1682600067ffffffffffffffff811180156157555760006000fd5b506040519080825280601f01601f1916602001820160405280156157885781602001600182028036833780820191505090505b506040518082805190602001908083835b6020831015156157bf57805182525b602082019150602081019050602083039250615799565b6001836020036101000a03801982511681845116808217855250505050505090500191505060006040518083038185875af1925050503d8060008114615821576040519150601f19603f3d011682016040523d82523d6000602084013e615826565b606091505b505090508015156158a2576040517f08c379a00000000000000000000000000000000000000000000000000000000081526004018080602001828103825260038152602001807f535445000000000000000000000000000000000000000000000000000000000081526020015060200191505060405180910390fd5b505b5050565b60006000600060006158c6866000016000508661607c63ffffffff16565b915091508160001c8160001c8090509350935050506158e25650505b9250929050565b6000615905846000016000508460001b8461613063ffffffff16565b60001c905061590f565b9392505050565b600061592d8260000160005061624a63ffffffff16565b9050615934565b919050565b6000600c6000506000838152602001908152602001600020600050600001600081819054906101000a90046bffffffffffffffffffffffff168092919060010191906101000a8154816bffffffffffffffffffffffff02191690836bffffffffffffffffffffffff1602179055506bffffffffffffffffffffffff1690506159bc565b919050565b60006000823b9050600081119150506159d656505b919050565b6159ec848484614d3963ffffffff16565b6159fe8484848461626363ffffffff16565b1515615a55576040517f08c379a0000000000000000000000000000000000000000000000000000000008152600401808060200182810382526032815260200180617f496032913960400191505060405180910390fd5b5b50505050565b6000615a6e838361498263ffffffff16565b905080508073ffffffffffffffffffffffffffffffffffffffff163373ffffffffffffffffffffffffffffffffffffffff16141515615aad5760006000fd5b5b92915050565b60007f000000000000000000000000000000000000000000000000000000000000000073ffffffffffffffffffffffffffffffffffffffff168573ffffffffffffffffffffffffffffffffffffffff16148015615b145750814791508110155b15615c71577f000000000000000000000000000000000000000000000000000000000000000073ffffffffffffffffffffffffffffffffffffffff1663d0e30db0826040518263ffffffff1660e01b81526004016000604051808303818588803b158015615b825760006000fd5b505af1158015615b97573d600060003e3d6000fd5b50505050507f000000000000000000000000000000000000000000000000000000000000000073ffffffffffffffffffffffffffffffffffffffff1663a9059cbb84846040518363ffffffff1660e01b8152600401808373ffffffffffffffffffffffffffffffffffffffff16815260200182815260200192505050602060405180830381600087803b158015615c2e5760006000fd5b505af1158015615c43573d600060003e3d6000fd5b505050506040513d6020811015615c5a5760006000fd5b810190808051906020019092919050505050615ccf565b3073ffffffffffffffffffffffffffffffffffffffff168473ffffffffffffffffffffffffffffffffffffffff161415615cbb57615cb6858484615cd763ffffffff16565b615cce565b615ccd8585858561649463ffffffff16565b5b5b505b50505050565b600060008473ffffffffffffffffffffffffffffffffffffffff1663a9059cbb60e01b8585604051602401808373ffffffffffffffffffffffffffffffffffffffff16815260200182815260200192505050604051602081830303815290604052907bffffffffffffffffffffffffffffffffffffffffffffffffffffffff19166020820180517bffffffffffffffffffffffffffffffffffffffffffffffffffffffff83818316178352505050506040518082805190602001908083835b602083101515615dbc57805182525b602082019150602081019050602083039250615d96565b6001836020036101000a0380198251168184511680821785525050505050509050019150506000604051808303816000865af19150503d8060008114615e1e576040519150601f19603f3d011682016040523d82523d6000602084013e615e23565b606091505b5091509150818015615e645750600081511480615e635750808060200190516020811015615e515760006000fd5b81019080805190602001909291905050505b5b1515615edb576040517f08c379a00000000000000000000000000000000000000000000000000000000081526004018080602001828103825260028152602001807f535400000000000000000000000000000000000000000000000000000000000081526020015060200191505060405180910390fd5b50505b505050565b6000615efe836000016000508360001b6166bf63ffffffff16565b9050615f05565b92915050565b600081600001600050805490509050615f1f565b919050565b5b505050565b6000615f45836000016000508360001b6166f663ffffffff16565b9050615f4c565b92915050565b6000615f6d836000016000508360001b61684163ffffffff16565b9050615f74565b92915050565b6000615faf846000016000508460001b8473ffffffffffffffffffffffffffffffffffffffff1660001b6168e063ffffffff16565b9050615fb6565b9392505050565b6000818360000160005080549050111515616023576040517f08c379a0000000000000000000000000000000000000000000000000000000008152600401808060200182810382526022815260200180617f276022913960400191505060405180910390fd5b826000016000508281548110151561603757fe5b906000526020600020900160005b5054905061604e565b92915050565b600061606f836000016000508360001b616a1b63ffffffff16565b9050616076565b92915050565b600060008284600001600050805490501115156160e4576040517f08c379a00000000000000000000000000000000000000000000000000000000081526004018080602001828103825260228152602001806180a36022913960400191505060405180910390fd5b600084600001600050848154811015156160fa57fe5b906000526020600020906002020160005b50905080600001600050548160010160005054925092505061612956505b9250929050565b600060008460010160005060008560001916600019168152602001908152602001600020600050549050600081141583901515616209576040517f08c379a00000000000000000000000000000000000000000000000000000000081526004018080602001828103825283818151815260200191508051906020019080838360005b838110156161ce5780820151818401525b6020810190506161b2565b50505050905090810190601f1680156161fb5780820380516001836020036101000a031916815260200191505b509250505060405180910390fd5b50846000016000506001820381548110151561622157fe5b906000526020600020906002020160005b506001016000505491505061624356505b9392505050565b60008160000160005080549050905061625e565b919050565b600061628c8473ffffffffffffffffffffffffffffffffffffffff166159c1909063ffffffff16565b151561629b576001905061648c565b600061640c63150b7a0260e01b6162b6614c4063ffffffff16565b888787604051602401808573ffffffffffffffffffffffffffffffffffffffff1681526020018473ffffffffffffffffffffffffffffffffffffffff16815260200183815260200180602001828103825283818151815260200191508051906020019080838360005b8381101561633b5780820151818401525b60208101905061631f565b50505050905090810190601f1680156163685780820380516001836020036101000a031916815260200191505b5095505050505050604051602081830303815290604052907bffffffffffffffffffffffffffffffffffffffffffffffffffffffff19166020820180517bffffffffffffffffffffffffffffffffffffffffffffffffffffffff8381831617835250505050604051806060016040528060328152602001617f49603291398773ffffffffffffffffffffffffffffffffffffffff16616bad9092919063ffffffff16565b905060008180602001905160208110156164265760006000fd5b8101908080519060200190929190505050905063150b7a0260e01b7bffffffffffffffffffffffffffffffffffffffffffffffffffffffff1916817bffffffffffffffffffffffffffffffffffffffffffffffffffffffff1916149250505061648c5650505b949350505050565b600060008573ffffffffffffffffffffffffffffffffffffffff166323b872dd60e01b868686604051602401808473ffffffffffffffffffffffffffffffffffffffff1681526020018373ffffffffffffffffffffffffffffffffffffffff1681526020018281526020019350505050604051602081830303815290604052907bffffffffffffffffffffffffffffffffffffffffffffffffffffffff19166020820180517bffffffffffffffffffffffffffffffffffffffffffffffffffffffff83818316178352505050506040518082805190602001908083835b60208310151561659757805182525b602082019150602081019050602083039250616571565b6001836020036101000a0380198251168184511680821785525050505050509050019150506000604051808303816000865af19150503d80600081146165f9576040519150601f19603f3d011682016040523d82523d6000602084013e6165fe565b606091505b509150915081801561663f575060008151148061663e575080806020019051602081101561662c5760006000fd5b81019080805190602001909291905050505b5b15156166b6576040517f08c379a00000000000000000000000000000000000000000000000000000000081526004018080602001828103825260038152602001807f535446000000000000000000000000000000000000000000000000000000000081526020015060200191505060405180910390fd5b50505b50505050565b60006000836001016000506000846000191660001916815260200190815260200160002060005054141590506166f0565b92915050565b60006000836001016000506000846000191660001916815260200190815260200160002060005054905060008114151561682f5760006001820390506000600186600001600050805490500390506000866000016000508281548110151561675a57fe5b906000526020600020900160005b5054905080876000016000508481548110151561678157fe5b906000526020600020900160005b50819090600019169055506001830187600101600050600083600019166000191681526020019081526020016000206000508190909055508660000160005080548015156167d957fe5b600190038181906000526020600020900160005b50600090559055866001016000506000876000191660001916815260200190815260200160002060005060009055600194505050505061683b56505050616839565b600091505061683b565b505b92915050565b60006168538383616bd063ffffffff16565b15156168d0578260000160005082908060018154018082558091505060019003906000526020600020900160005b909190919091509060001916905582600001600050805490508360010160005060008460001916600019168152602001908152602001600020600050819090905550600190506168da566168d9565b600090506168da565b5b92915050565b60006000846001016000506000856000191660001916815260200190815260200160002060005054905060008114156169ce57846000016000506040518060400160405280866000191681526020018560001916815260200150908060018154018082558091505060019003906000526020600020906002020160005b9091909190915060008201518160000160005090600019169055602082015181600101600050906000191690555050846000016000508054905085600101600050600086600019166000191681526020019081526020016000206000508190909055506001915050616a1456616a12565b8285600001600050600183038154811015156169e657fe5b906000526020600020906002020160005b50600101600050819090600019169055506000915050616a14565b505b9392505050565b600060008360010160005060008460001916600019168152602001908152602001600020600050549050600081141515616b9b57600060018203905060006001866000016000508054905003905060008660000160005082815481101515616a7f57fe5b906000526020600020906002020160005b509050808760000160005084815481101515616aa857fe5b906000526020600020906002020160005b50600082016000505481600001600050906000191690556001820160005054816001016000509060001916905590505060018301876001016000506000836000016000505460001916600019168152602001908152602001600020600050819090905550866000016000508054801515616b2f57fe5b600190038181906000526020600020906002020160005b60008201600050600090556001820160005060009055505090558660010160005060008760001916600019168152602001908152602001600020600050600090556001945050505050616ba756505050616ba5565b6000915050616ba7565b505b92915050565b6060616bc28484600085616c0763ffffffff16565b9050616bc9565b9392505050565b6000600083600101600050600084600019166000191681526020019081526020016000206000505414159050616c01565b92915050565b6060824710151515616c64576040517f08c379a0000000000000000000000000000000000000000000000000000000008152600401808060200182810382526026815260200180617fc66026913960400191505060405180910390fd5b616c73856159c163ffffffff16565b1515616cea576040517f08c379a000000000000000000000000000000000000000000000000000000000815260040180806020018281038252601d8152602001807f416464726573733a2063616c6c20746f206e6f6e2d636f6e747261637400000081526020015060200191505060405180910390fd5b600060008673ffffffffffffffffffffffffffffffffffffffff1685876040518082805190602001908083835b602083101515616d3d57805182525b602082019150602081019050602083039250616d17565b6001836020036101000a03801982511681845116808217855250505050505090500191505060006040518083038185875af1925050503d8060008114616d9f576040519150601f19603f3d011682016040523d82523d6000602084013e616da4565b606091505b5091509150616dba828286616dcd63ffffffff16565b92505050616dc55650505b949350505050565b60608315616de157829050616e9e56616e9d565b600083511115616df95782518084602001fd50616e9c565b816040517f08c379a00000000000000000000000000000000000000000000000000000000081526004018080602001828103825283818151815260200191508051906020019080838360005b83811015616e615780820151818401525b602081019050616e45565b50505050905090810190601f168015616e8e5780820380516001836020036101000a031916815260200191505b509250505060405180910390fd5b5b5b9392505050565b50805460018160011615610100020316600290046000825580601f10616ecb5750616eea565b601f016020900490600052602060002090810190616ee99190616eed565b5b50565b616ef2565b80821115616f0c5760008181506000905550600101616ef2565b509056617f25565b600081359050616f2381617e96565b5b919050565b60008151905061ffff811681141515616f425760006000fd5b5b919050565b60008135905062ffffff811681141515616f625760006000fd5b5b919050565b600060208284031215616f79578081fd5b8135616f8481617e96565b809150505b92915050565b600060208284031215616fa0578081fd5b8151616fab81617e96565b809150505b92915050565b6000600060408385031215616fc9578081fd5b8235616fd481617e96565b809250506020830135616fe681617e96565b809150505b9250929050565b600060006000600060808587031215617009578182fd5b843561701481617e96565b80945050602085013561702681617e96565b8093505061703660408601616f48565b9150606085013561704681617e96565b809150505b92959194509250565b60006000600060608486031215617069578081fd5b833561707481617e96565b80935050602084013561708681617e96565b80925050604084013590505b9250925092565b6000600060006000608085870312156170b0578182fd5b84356170bb81617e96565b8094505060208501356170cd81617e96565b8093505060408501359150606085013567ffffffffffffffff8111156170f1578182fd5b808601905086601f8201121515617106578182fd5b803561711961711482617e1c565b617df1565b81815288602083850101111561712d578384fd5b8160208401602083013783602083830101528093505050505b92959194509250565b6000600060408385031215617162578182fd5b823561716d81617e96565b80925050602083013561717f81617ebf565b809150505b9250929050565b600060006040838503121561719e578182fd5b82356171a981617e96565b80925050602083013590505b9250929050565b600060006000606084860312156171d1578081fd5b83356171dc81617e96565b809350506020840135915060408401356171f581617e96565b809150505b9250925092565b60006000600060006000600060c0878903121561721c578384fd5b863561722781617e96565b809650506020870135945060408701359350606087013561724781617f0f565b809350506080870135915060a087013590505b9295509295509295565b6000600060208385031215617277578182fd5b823567ffffffffffffffff8082111561728e578384fd5b818501915085601f83011215156172a3578384fd5b8135818111156172b1578485fd5b8660206020830285010111156172c5578485fd5b6020830194508093505050505b9250929050565b6000602082840312156172ea578081fd5b81357fffffffff0000000000000000000000000000000000000000000000000000000081168114151561731b578182fd5b809150505b92915050565b600060208284031215617337578081fd5b813561734281617ed4565b809150505b92915050565b60006020828403121561735e578081fd5b815167ffffffffffffffff811115617374578182fd5b808301905083601f8201121515617389578182fd5b805161739c61739782617e1c565b617df1565b8181528560208385010111156173b0578384fd5b6173c1826020830160208601617e61565b8093505050505b92915050565b600081830360808112156173e0578182fd5b6040516040810167ffffffffffffffff82821081831117156173fe57fe5b81604052606084121561740f578485fd5b60a083019350818410818511171561742357fe5b50826040528435925061743583617e96565b8281526020850135925061744883617e96565b82606083015261745a60408601616f48565b60808301528082525061746f60608501616f14565b602082015280925050505b92915050565b60006101408284031215617492578081fd5b8190505b92915050565b6000602082840312156174ad578081fd5b81356174b881617eea565b809150505b92915050565b60006000604083850312156174d6578182fd5b82516174e181617eea565b8092505060208301516174f381617eea565b809150505b9250929050565b6000600060006000600060a08688031215617518578283fd5b855161752381617eea565b809550506020860151935060408601519250606086015161754381617eea565b80925050608086015161755581617eea565b809150505b9295509295909350565b600060006000600060006000600060e0888a031215617581578485fd5b875161758c81617e96565b80975050602088015161759e81617ed4565b809650506175ae60408901616f29565b94506175bc60608901616f29565b93506175ca60808901616f29565b925060a08801516175da81617f0f565b8092505060c08801516175ec81617ebf565b809150505b92959891949750929550565b60006020828403121561760e578081fd5b61761782616f48565b90505b92915050565b600060208284031215617631578081fd5b813590505b92915050565b600060006040838503121561764f578182fd5b82359150602083013561766181617e96565b809150505b9250929050565b600060006000600060808587031215617684578182fd5b84359350602085013561769681617e96565b8093505060408501356176a881617eea565b8092505060608501356176ba81617eea565b809150505b92959194509250565b6000600060006000600060a086880312156176e1578283fd5b8535945060208601356176f381617eea565b809450506040860135925060608601359150608086013590505b9295509295909350565b600060006040838503121561772a578182fd5b82519150602083015190505b9250929050565b600060006000600060608587031215617754578182fd5b8435935060208501359250604085013567ffffffffffffffff80821115617779578384fd5b818701915087601f830112151561778e578384fd5b81358181111561779c578485fd5b8860208285010111156177ad578485fd5b6020830194508093505050505b92959194509250565b600081518084526177db816020860160208601617e61565b60207fffffffffffffffffffffffffffffffffffffffffffffffffffffffffffffffe0601f8301168501019150505b92915050565b8060020b82525b5050565b6fffffffffffffffffffffffffffffffff811682525b5050565b600082848337828201818152809150505b9392505050565b600060208201905073ffffffffffffffffffffffffffffffffffffffff831682525b92915050565b600060608201905073ffffffffffffffffffffffffffffffffffffffff808616835280851660208401525062ffffff831660408301525b949350505050565b600073ffffffffffffffffffffffffffffffffffffffff871682528560020b60208301528460020b60408301526fffffffffffffffffffffffffffffffff8416606083015260a0608083015261790d60a08301846177c3565b90505b9695505050505050565b600060a08201905073ffffffffffffffffffffffffffffffffffffffff871682528560020b60208301528460020b60408301526fffffffffffffffffffffffffffffffff80851660608401528084166080840152505b9695505050505050565b6000602080830181845280855180835260408601915060408482028701019250838701855b828110156179f1577fffffffffffffffffffffffffffffffffffffffffffffffffffffffffffffffc08886030184526179d98583516177c3565b9450858201915085840193505b60018101905061799f565b5050505080925050505b92915050565b600060208201905082151582525b92915050565b60006020820190508282525b92915050565b600060408201905073ffffffffffffffffffffffffffffffffffffffff841682528260208301525b9392505050565b60006060820190508460020b82528360020b60208301526fffffffffffffffffffffffffffffffff831660408301525b949350505050565b60006060820190508460020b82528360020b60208301526fffffffffffffffffffffffffffffffff831660408301525b949350505050565b600060208252617ad960208301846177c3565b90505b92915050565b600060208252600c60208301527f4e6f7420617070726f766564000000000000000000000000000000000000000060408301526060820190505b919050565b600060208252602c60208301527f4552433732313a20617070726f76656420717565727920666f72206e6f6e657860408301527f697374656e7420746f6b656e000000000000000000000000000000000000000060608301526080820190505b919050565b600060208252601060208301527f496e76616c696420746f6b656e2049440000000000000000000000000000000060408301526060820190505b919050565b600060208252600b60208301527f4e6f7420636c656172656400000000000000000000000000000000000000000060408301526060820190505b919050565b6000608082019050825173ffffffffffffffffffffffffffffffffffffffff80825116845280602083015116602085015262ffffff604083015116604085015280602086015116606085015250505b92915050565b600060208201905073ffffffffffffffffffffffffffffffffffffffff831682525b92915050565b60006020820190508282525b92915050565b60006040820190508382528260208301525b9392505050565b60006060820190508482528360208301528260408301525b949350505050565b6000610180820190506bffffffffffffffffffffffff8e16825273ffffffffffffffffffffffffffffffffffffffff808e166020840152808d166040840152808c1660608401525062ffffff8a1660808301528860020b60a0830152617d3560c0830189617810565b617d4260e083018861781b565b8561010083015284610120830152617d5e61014083018561781b565b617d6c61016083018461781b565b5b9d9c50505050505050505050505050565b6000600083357fffffffffffffffffffffffffffffffffffffffffffffffffffffffffffffffe18436030181121515617db5578283fd5b80840190508035915067ffffffffffffffff821115617dd2578283fd5b60208101925050803603821315617de95760006000fd5b5b9250929050565b6000604051905081810181811067ffffffffffffffff82111715617e1157fe5b80604052505b919050565b600067ffffffffffffffff821115617e3057fe5b60207fffffffffffffffffffffffffffffffffffffffffffffffffffffffffffffffe0601f8401160190505b919050565b60005b83811015617e805780820151818401525b602081019050617e64565b83811115617e8f576000848401525b505b505050565b73ffffffffffffffffffffffffffffffffffffffff811681141515617ebb5760006000fd5b5b50565b80151581141515617ed05760006000fd5b5b50565b8060020b81141515617ee65760006000fd5b5b50565b6fffffffffffffffffffffffffffffffff811681141515617f0b5760006000fd5b5b50565b60ff811681141515617f215760006000fd5b5b50565bfe456e756d657261626c655365743a20696e646578206f7574206f6620626f756e64734552433732313a207472616e7366657220746f206e6f6e20455243373231526563656976657220696d706c656d656e7465724552433732315065726d69743a20617070726f76616c20746f2063757272656e74206f776e65724552433732313a207472616e7366657220746f20746865207a65726f2061646472657373416464726573733a20696e73756666696369656e742062616c616e636520666f722063616c6c4552433732313a206f70657261746f7220717565727920666f72206e6f6e6578697374656e7420746f6b656e4552433732313a20617070726f76652063616c6c6572206973206e6f74206f776e6572206e6f7220617070726f76656420666f7220616c6c4552433732313a2062616c616e636520717565727920666f7220746865207a65726f20616464726573734552433732313a206f776e657220717565727920666f72206e6f6e6578697374656e7420746f6b656e456e756d657261626c654d61703a20696e646578206f7574206f6620626f756e64734552433732313a207472616e73666572206f6620746f6b656e2074686174206973206e6f74206f776e4552433732313a20617070726f76616c20746f2063757272656e74206f776e65724552433732313a207472616e736665722063616c6c6572206973206e6f74206f776e6572206e6f7220617070726f766564a2646970667358221220dbf2de4ee85b361972a638310f5b16cab13ec2dd517514ed798ccc3691a6b50c64736f6c63430007060033",
  "linkReferences": {},
  "deployedLinkReferences": {}
}