{
  "_format": "hh-sol-artifact-1",
  "contractName": "V3Migrator",
  "sourceName": "contracts/uniswap/uniswap-v3-periphery/contracts/V3Migrator.sol",
  "abi": [
    {
      "inputs": [
        {
          "internalType": "address",
          "name": "_factory",
          "type": "address"
        },
        {
          "internalType": "address",
          "name": "_WETH9",
          "type": "address"
        },
        {
          "internalType": "address",
          "name": "_nonfungiblePositionManager",
          "type": "address"
        }
      ],
      "stateMutability": "nonpayable",
      "type": "constructor"
    },
    {
      "inputs": [],
      "name": "WETH9",
      "outputs": [
        {
          "internalType": "address",
          "name": "",
          "type": "address"
        }
      ],
      "stateMutability": "view",
      "type": "function"
    },
    {
      "inputs": [
        {
          "internalType": "address",
          "name": "tokenA",
          "type": "address"
        },
        {
          "internalType": "address",
          "name": "tokenB",
          "type": "address"
        },
        {
          "internalType": "uint24",
          "name": "fee",
          "type": "uint24"
        },
        {
          "internalType": "uint160",
          "name": "sqrtPriceX96",
          "type": "uint160"
        }
      ],
      "name": "createAndInitializePoolIfNecessary",
      "outputs": [],
      "stateMutability": "nonpayable",
      "type": "function"
    },
    {
      "inputs": [],
      "name": "factory",
      "outputs": [
        {
          "internalType": "address",
          "name": "",
          "type": "address"
        }
      ],
      "stateMutability": "view",
      "type": "function"
    },
    {
      "inputs": [
        {
          "components": [
            {
              "internalType": "address",
              "name": "pair",
              "type": "address"
            },
            {
              "internalType": "uint256",
              "name": "liquidityToMigrate",
              "type": "uint256"
            },
            {
              "internalType": "address",
              "name": "token0",
              "type": "address"
            },
            {
              "internalType": "address",
              "name": "token1",
              "type": "address"
            },
            {
              "internalType": "uint24",
              "name": "fee",
              "type": "uint24"
            },
            {
              "internalType": "int24",
              "name": "tickLower",
              "type": "int24"
            },
            {
              "internalType": "int24",
              "name": "tickUpper",
              "type": "int24"
            },
            {
              "internalType": "uint256",
              "name": "liquidityV3Min",
              "type": "uint256"
            },
            {
              "internalType": "address",
              "name": "recipient",
              "type": "address"
            },
            {
              "internalType": "uint256",
              "name": "deadline",
              "type": "uint256"
            },
            {
              "internalType": "bool",
              "name": "refundAsETH",
              "type": "bool"
            }
          ],
          "internalType": "struct IV3Migrator.MigrateParams",
          "name": "params",
          "type": "tuple"
        }
      ],
      "name": "migrate",
      "outputs": [],
      "stateMutability": "nonpayable",
      "type": "function"
    },
    {
      "inputs": [
        {
          "internalType": "bytes[]",
          "name": "data",
          "type": "bytes[]"
        }
      ],
      "name": "multicall",
      "outputs": [
        {
          "internalType": "bytes[]",
          "name": "results",
          "type": "bytes[]"
        }
      ],
      "stateMutability": "payable",
      "type": "function"
    },
    {
      "inputs": [],
      "name": "nonfungiblePositionManager",
      "outputs": [
        {
          "internalType": "address",
          "name": "",
          "type": "address"
        }
      ],
      "stateMutability": "view",
      "type": "function"
    },
    {
      "inputs": [
        {
          "internalType": "address",
          "name": "token",
          "type": "address"
        },
        {
          "internalType": "uint256",
          "name": "value",
          "type": "uint256"
        },
        {
          "internalType": "uint256",
          "name": "deadline",
          "type": "uint256"
        },
        {
          "internalType": "uint8",
          "name": "v",
          "type": "uint8"
        },
        {
          "internalType": "bytes32",
          "name": "r",
          "type": "bytes32"
        },
        {
          "internalType": "bytes32",
          "name": "s",
          "type": "bytes32"
        }
      ],
      "name": "selfPermit",
      "outputs": [],
      "stateMutability": "payable",
      "type": "function"
    },
    {
      "inputs": [
        {
          "internalType": "address",
          "name": "token",
          "type": "address"
        },
        {
          "internalType": "uint256",
          "name": "nonce",
          "type": "uint256"
        },
        {
          "internalType": "uint256",
          "name": "expiry",
          "type": "uint256"
        },
        {
          "internalType": "uint8",
          "name": "v",
          "type": "uint8"
        },
        {
          "internalType": "bytes32",
          "name": "r",
          "type": "bytes32"
        },
        {
          "internalType": "bytes32",
          "name": "s",
          "type": "bytes32"
        }
      ],
      "name": "selfPermitAllowed",
      "outputs": [],
      "stateMutability": "payable",
      "type": "function"
    },
    {
      "inputs": [
        {
          "internalType": "address",
          "name": "token",
          "type": "address"
        },
        {
          "internalType": "uint256",
          "name": "nonce",
          "type": "uint256"
        },
        {
          "internalType": "uint256",
          "name": "expiry",
          "type": "uint256"
        },
        {
          "internalType": "uint8",
          "name": "v",
          "type": "uint8"
        },
        {
          "internalType": "bytes32",
          "name": "r",
          "type": "bytes32"
        },
        {
          "internalType": "bytes32",
          "name": "s",
          "type": "bytes32"
        }
      ],
      "name": "selfPermitAllowedIfNecessary",
      "outputs": [],
      "stateMutability": "payable",
      "type": "function"
    },
    {
      "inputs": [
        {
          "internalType": "address",
          "name": "token",
          "type": "address"
        },
        {
          "internalType": "uint256",
          "name": "value",
          "type": "uint256"
        },
        {
          "internalType": "uint256",
          "name": "deadline",
          "type": "uint256"
        },
        {
          "internalType": "uint8",
          "name": "v",
          "type": "uint8"
        },
        {
          "internalType": "bytes32",
          "name": "r",
          "type": "bytes32"
        },
        {
          "internalType": "bytes32",
          "name": "s",
          "type": "bytes32"
        }
      ],
      "name": "selfPermitIfNecessary",
      "outputs": [],
      "stateMutability": "payable",
      "type": "function"
    },
    {
      "stateMutability": "payable",
      "type": "receive"
    }
  ],
  "bytecode": "0x60e0604052348015620000125760006000fd5b5060405162002c6938038062002c69833981810160405281019062000038919062000121565b5b82825b8173ffffffffffffffffffffffffffffffffffffffff1660808173ffffffffffffffffffffffffffffffffffffffff1660601b815260140150508073ffffffffffffffffffffffffffffffffffffffff1660a08173ffffffffffffffffffffffffffffffffffffffff1660601b815260140150505b50508073ffffffffffffffffffffffffffffffffffffffff1660c08173ffffffffffffffffffffffffffffffffffffffff1660601b815260140150505b5050506200016d566200016c565b6000815190506001600160a01b038116811415156200011b5760006000fd5b5b919050565b6000600060006060848603121562000137578283fd5b6200014284620000fc565b92506200015260208501620000fc565b91506200016260408501620000fc565b90505b9250925092565b5b60805160601c60a05160601c60c05160601c612a8b620001de600039806102ce52806106f45280610737528061076852806109915280610b2e528061106152508060bd52806109e15280610a485280610b7e5280610be55280610da05250806104ef528061116d5250612a8b6000f3fe6080604052600436106100b55760003560e01c8063ac9650d811610069578063c2e3140a1161004e578063c2e3140a14610268578063c45a015514610284578063f3995c67146102b05761014e565b8063ac9650d81461020c578063b44a27221461023c5761014e565b80634659a4941161009a5780634659a494146101a85780634aa4a4fc146101c4578063a4a78f0c146101f05761014e565b806313ead562146101545780632180c49f1461017e5761014e565b3661014e575b7f000000000000000000000000000000000000000000000000000000000000000073ffffffffffffffffffffffffffffffffffffffff163373ffffffffffffffffffffffffffffffffffffffff1614151561014b576040517f08c379a000000000000000000000000000000000000000000000000000000000815260040161014290612803565b60405180910390fd5b5b005b60006000fd5b3480156101615760006000fd5b5061017c60048036038101906101779190612240565b6102cc565b005b34801561018b5760006000fd5b506101a660048036038101906101a191906124ac565b610387565b005b6101c260048036038101906101bd91906122a2565b610cb6565b005b3480156101d15760006000fd5b506101da610d9e565b6040516101e7919061268e565b60405180910390f35b61020a600480360381019061020591906122a2565b610dc2565b005b61022660048036038101906102219190612305565b610eca565b6040516102339190612760565b60405180910390f35b3480156102495760006000fd5b5061025261105f565b60405161025f919061268e565b60405180910390f35b610282600480360381019061027d91906122a2565b611083565b005b3480156102915760006000fd5b5061029a61116b565b6040516102a7919061268e565b60405180910390f35b6102ca60048036038101906102c591906122a2565b61118f565b005b7f000000000000000000000000000000000000000000000000000000000000000073ffffffffffffffffffffffffffffffffffffffff166313ead562858585856040518563ffffffff1660e01b815260040161032b9493929190612718565b602060405180830381600087803b1580156103465760006000fd5b505af115801561035b573d600060003e3d6000fd5b505050506040513d601f19601f8201168201806040525081019061037f9190612219565b505b50505050565b80600001602081019061039a91906121f2565b73ffffffffffffffffffffffffffffffffffffffff166323b872dd338360000160208101906103c991906121f2565b84602001356040518463ffffffff1660e01b81526004016103ec939291906126de565b602060405180830381600087803b1580156104075760006000fd5b505af115801561041c573d600060003e3d6000fd5b505050506040513d601f19601f8201168201806040525081019061044091906123a1565b506000600082600001602081019061045891906121f2565b73ffffffffffffffffffffffffffffffffffffffff166389afcb44306040518263ffffffff1660e01b815260040161049091906126b6565b604060405180830381600087803b1580156104ab5760006000fd5b505af11580156104c0573d600060003e3d6000fd5b505050506040513d601f19601f820116820180604052508101906104e49190612584565b91509150600061059e7f0000000000000000000000000000000000000000000000000000000000000000604051806060016040528087604001602081019061052c91906121f2565b73ffffffffffffffffffffffffffffffffffffffff16815260200187606001602081019061055a91906121f2565b73ffffffffffffffffffffffffffffffffffffffff1681526020018760800160208101906105889190612561565b62ffffff1681526020015061126c63ffffffff16565b905060008173ffffffffffffffffffffffffffffffffffffffff16633850c7bd6040518163ffffffff1660e01b815260040160e06040518083038186803b1580156105e95760006000fd5b505afa1580156105fe573d600060003e3d6000fd5b505050506040513d601f19601f8201168201806040525081019061062291906124c8565b5050505050509050600061067f826106518860a001602081019061064691906123c8565b61139863ffffffff16565b6106728960c001602081019061066791906123c8565b61139863ffffffff16565b888861182f63ffffffff16565b90508560e00135816fffffffffffffffffffffffffffffffff16101515156106dc576040517f08c379a00000000000000000000000000000000000000000000000000000000081526004016106d390612842565b60405180910390fd5b61071f8660400160208101906106f291906121f2565b7f00000000000000000000000000000000000000000000000000000000000000008761197b63ffffffff16565b61076286606001602081019061073591906121f2565b7f00000000000000000000000000000000000000000000000000000000000000008661197b63ffffffff16565b600060007f000000000000000000000000000000000000000000000000000000000000000073ffffffffffffffffffffffffffffffffffffffff16633a3a6dc86040518061014001604052808b60400160208101906107c191906121f2565b73ffffffffffffffffffffffffffffffffffffffff1681526020018b60600160208101906107ef91906121f2565b73ffffffffffffffffffffffffffffffffffffffff1681526020018b608001602081019061081d9190612561565b62ffffff1681526020018b60a001602081019061083a91906123c8565b60020b81526020018b60c001602081019061085591906123c8565b60020b8152602001866fffffffffffffffffffffffffffffffff1681526020017fffffffffffffffffffffffffffffffffffffffffffffffffffffffffffffffff81526020017fffffffffffffffffffffffffffffffffffffffffffffffffffffffffffffffff81526020018b6101000160208101906108d591906121f2565b73ffffffffffffffffffffffffffffffffffffffff1681526020018b61012001358152602001506040518263ffffffff1660e01b81526004016109189190612881565b606060405180830381600087803b1580156109335760006000fd5b505af1158015610948573d600060003e3d6000fd5b505050506040513d601f19601f8201168201806040525081019061096c91906125aa565b925092505086821015610b0e576109bd88604001602081019061098f91906121f2565b7f0000000000000000000000000000000000000000000000000000000000000000600061197b63ffffffff16565b60008288039050886101400160208101906109d8919061237a565b8015610a4157507f000000000000000000000000000000000000000000000000000000000000000073ffffffffffffffffffffffffffffffffffffffff16896040016020810190610a2991906121f2565b73ffffffffffffffffffffffffffffffffffffffff16145b15610ae8577f000000000000000000000000000000000000000000000000000000000000000073ffffffffffffffffffffffffffffffffffffffff16632e1a7d4d826040518263ffffffff1660e01b8152600401610a9f9190612930565b600060405180830381600087803b158015610aba5760006000fd5b505af1158015610acf573d600060003e3d6000fd5b50505050610ae33382611b8763ffffffff16565b610b0c565b610b0b896040016020810190610afe91906121f2565b3383611d0d63ffffffff16565b5b505b85811015610cab57610b5a886060016020810190610b2c91906121f2565b7f0000000000000000000000000000000000000000000000000000000000000000600061197b63ffffffff16565b6000818703905088610140016020810190610b75919061237a565b8015610bde57507f000000000000000000000000000000000000000000000000000000000000000073ffffffffffffffffffffffffffffffffffffffff16896060016020810190610bc691906121f2565b73ffffffffffffffffffffffffffffffffffffffff16145b15610c85577f000000000000000000000000000000000000000000000000000000000000000073ffffffffffffffffffffffffffffffffffffffff16632e1a7d4d826040518263ffffffff1660e01b8152600401610c3c9190612930565b600060405180830381600087803b158015610c575760006000fd5b505af1158015610c6c573d600060003e3d6000fd5b50505050610c803382611b8763ffffffff16565b610ca9565b610ca8896060016020810190610c9b91906121f2565b3383611d0d63ffffffff16565b5b505b505050505050505b50565b8573ffffffffffffffffffffffffffffffffffffffff16638fcbaf0c3330888860018989896040518963ffffffff1660e01b8152600401808973ffffffffffffffffffffffffffffffffffffffff1681526020018873ffffffffffffffffffffffffffffffffffffffff16815260200187815260200186815260200185151581526020018460ff168152602001836000191681526020018260001916815260200198505050505050505050600060405180830381600087803b158015610d7c5760006000fd5b505af1158015610d91573d600060003e3d6000fd5b505050505b505050505050565b7f000000000000000000000000000000000000000000000000000000000000000081565b7fffffffffffffffffffffffffffffffffffffffffffffffffffffffffffffffff8673ffffffffffffffffffffffffffffffffffffffff1663dd62ed3e33306040518363ffffffff1660e01b8152600401808373ffffffffffffffffffffffffffffffffffffffff1681526020018273ffffffffffffffffffffffffffffffffffffffff1681526020019250505060206040518083038186803b158015610e695760006000fd5b505afa158015610e7e573d600060003e3d6000fd5b505050506040513d6020811015610e955760006000fd5b81019080805190602001909291905050501015610ec157610ec0868686868686610cb663ffffffff16565b5b5b505050505050565b60608282905067ffffffffffffffff81118015610ee75760006000fd5b50604051908082528060200260200182016040528015610f1b57816020015b6060815260200190600190039081610f065790505b50905080506000600090505b8383905081101561105757600060003073ffffffffffffffffffffffffffffffffffffffff168686858181101515610f5b57fe5b9050602002810190610f6d9190612942565b604051610f7b929190612676565b600060405180830381855af49150503d8060008114610fb6576040519150601f19603f3d011682016040523d82523d6000602084013e610fbb565b606091505b509150915081151561102d57604481511015610fd75760006000fd5b60048101905080806020019051810190610ff191906123ef565b6040517f08c379a000000000000000000000000000000000000000000000000000000000815260040161102491906127e7565b60405180910390fd5b80848481518110151561103c57fe5b602002602001018190525050505b8080600101915050610f27565b505b92915050565b7f000000000000000000000000000000000000000000000000000000000000000081565b848673ffffffffffffffffffffffffffffffffffffffff1663dd62ed3e33306040518363ffffffff1660e01b8152600401808373ffffffffffffffffffffffffffffffffffffffff1681526020018273ffffffffffffffffffffffffffffffffffffffff1681526020019250505060206040518083038186803b15801561110a5760006000fd5b505afa15801561111f573d600060003e3d6000fd5b505050506040513d60208110156111365760006000fd5b810190808051906020019092919050505010156111625761116186868686868661118f63ffffffff16565b5b5b505050505050565b7f000000000000000000000000000000000000000000000000000000000000000081565b8573ffffffffffffffffffffffffffffffffffffffff1663d505accf333088888888886040518863ffffffff1660e01b8152600401808873ffffffffffffffffffffffffffffffffffffffff1681526020018773ffffffffffffffffffffffffffffffffffffffff1681526020018681526020018581526020018460ff1681526020018360001916815260200182600019168152602001975050505050505050600060405180830381600087803b15801561124a5760006000fd5b505af115801561125f573d600060003e3d6000fd5b505050505b505050505050565b6000816020015173ffffffffffffffffffffffffffffffffffffffff16826000015173ffffffffffffffffffffffffffffffffffffffff161015156112b15760006000fd5b8273ffffffffffffffffffffffffffffffffffffffff16631698ee828360000151846020015185604001516040518463ffffffff1660e01b8152600401808473ffffffffffffffffffffffffffffffffffffffff1681526020018373ffffffffffffffffffffffffffffffffffffffff1681526020018262ffffff168152602001935050505060206040518083038186803b1580156113505760006000fd5b505afa158015611365573d600060003e3d6000fd5b505050506040513d602081101561137c5760006000fd5b8101908080519060200190929190505050905080505b92915050565b6000600060008360020b126113b0578260020b6113b8565b8260020b6000035b90507ffffffffffffffffffffffffffffffffffffffffffffffffffffffffffff2761860000360020b811115151561145b576040517f08c379a00000000000000000000000000000000000000000000000000000000081526004018080602001828103825260018152602001807f540000000000000000000000000000000000000000000000000000000000000081526020015060200191505060405180910390fd5b6000600060018316141561148057700100000000000000000000000000000000611492565b6ffffcb933bd6fad37aa2d162d1a5940015b70ffffffffffffffffffffffffffffffffff1690506000600283161415156114d05760806ffff97272373d413259a46990580e213a8202901c905080505b6000600483161415156114f95760806ffff2e50f5f656932ef12357cf3c7fdcc8202901c905080505b6000600883161415156115225760806fffe5caca7e10e4e61c3624eaa0941cd08202901c905080505b60006010831614151561154b5760806fffcb9843d60f6159c9db58835c9266448202901c905080505b6000602083161415156115745760806fff973b41fa98c081472e6896dfb254c08202901c905080505b60006040831614151561159d5760806fff2ea16466c96a3843ec78b326b528618202901c905080505b6000608083161415156115c65760806ffe5dee046a99a2a811c461f1969c30538202901c905080505b600061010083161415156115f05760806ffcbe86c7900a88aedcffc83b479aa3a48202901c905080505b6000610200831614151561161a5760806ff987a7253ac413176f2b074cf7815e548202901c905080505b600061040083161415156116445760806ff3392b0822b70005940c7a398e4b70f38202901c905080505b6000610800831614151561166e5760806fe7159475a2c29b7443b29c7fa6e889d98202901c905080505b600061100083161415156116985760806fd097f3bdfd2022b8845ad8f792aa58258202901c905080505b600061200083161415156116c25760806fa9f746462d870fdf8a65dc1f90e061e58202901c905080505b600061400083161415156116ec5760806f70d869a156d2a1b890bb3df62baf32f78202901c905080505b600061800083161415156117165760806f31be135f97d08fd981231505542fcfa68202901c905080505b60006201000083161415156117415760806f09aa508b5b7a84e1c677de54f3e99bc98202901c905080505b600062020000831614151561176b5760806e5d6af8dedb81196699c329225ee6048202901c905080505b60006204000083161415156117945760806d2216e584f5fa1ea926041bedfe988202901c905080505b60006208000083161415156117bb5760806b048a170391f7dc42444e8fa28202901c905080505b60008460020b13156117f857807fffffffffffffffffffffffffffffffffffffffffffffffffffffffffffffffff8115156117f257fe5b04905080505b60006401000000008281151561180a57fe5b061461181757600161181a565b60005b60ff16602082901c019250825050505b919050565b60008373ffffffffffffffffffffffffffffffffffffffff168573ffffffffffffffffffffffffffffffffffffffff16111561187057838580955081965050505b8473ffffffffffffffffffffffffffffffffffffffff168673ffffffffffffffffffffffffffffffffffffffff1610156118be576118b5858585611f1963ffffffff16565b90508050611971565b8373ffffffffffffffffffffffffffffffffffffffff168673ffffffffffffffffffffffffffffffffffffffff16101561195a576000611905878686611f1963ffffffff16565b9050600061191a878986611fef63ffffffff16565b9050806fffffffffffffffffffffffffffffffff16826fffffffffffffffffffffffffffffffff161061194d578061194f565b815b925082505050611970565b61196b858584611fef63ffffffff16565b905080505b5b5b95945050505050565b600060008473ffffffffffffffffffffffffffffffffffffffff1663095ea7b360e01b8585604051602401808373ffffffffffffffffffffffffffffffffffffffff16815260200182815260200192505050604051602081830303815290604052907bffffffffffffffffffffffffffffffffffffffffffffffffffffffff19166020820180517bffffffffffffffffffffffffffffffffffffffffffffffffffffffff83818316178352505050506040518082805190602001908083835b602083101515611a6057805182525b602082019150602081019050602083039250611a3a565b6001836020036101000a0380198251168184511680821785525050505050509050019150506000604051808303816000865af19150503d8060008114611ac2576040519150601f19603f3d011682016040523d82523d6000602084013e611ac7565b606091505b5091509150818015611b085750600081511480611b075750808060200190516020811015611af55760006000fd5b81019080805190602001909291905050505b5b1515611b7f576040517f08c379a00000000000000000000000000000000000000000000000000000000081526004018080602001828103825260028152602001807f534100000000000000000000000000000000000000000000000000000000000081526020015060200191505060405180910390fd5b50505b505050565b60008273ffffffffffffffffffffffffffffffffffffffff1682600067ffffffffffffffff81118015611bba5760006000fd5b506040519080825280601f01601f191660200182016040528015611bed5781602001600182028036833780820191505090505b506040518082805190602001908083835b602083101515611c2457805182525b602082019150602081019050602083039250611bfe565b6001836020036101000a03801982511681845116808217855250505050505090500191505060006040518083038185875af1925050503d8060008114611c86576040519150601f19603f3d011682016040523d82523d6000602084013e611c8b565b606091505b50509050801515611d07576040517f08c379a00000000000000000000000000000000000000000000000000000000081526004018080602001828103825260038152602001807f535445000000000000000000000000000000000000000000000000000000000081526020015060200191505060405180910390fd5b505b5050565b600060008473ffffffffffffffffffffffffffffffffffffffff1663a9059cbb60e01b8585604051602401808373ffffffffffffffffffffffffffffffffffffffff16815260200182815260200192505050604051602081830303815290604052907bffffffffffffffffffffffffffffffffffffffffffffffffffffffff19166020820180517bffffffffffffffffffffffffffffffffffffffffffffffffffffffff83818316178352505050506040518082805190602001908083835b602083101515611df257805182525b602082019150602081019050602083039250611dcc565b6001836020036101000a0380198251168184511680821785525050505050509050019150506000604051808303816000865af19150503d8060008114611e54576040519150601f19603f3d011682016040523d82523d6000602084013e611e59565b606091505b5091509150818015611e9a5750600081511480611e995750808060200190516020811015611e875760006000fd5b81019080805190602001909291905050505b5b1515611f11576040517f08c379a00000000000000000000000000000000000000000000000000000000081526004018080602001828103825260028152602001807f535400000000000000000000000000000000000000000000000000000000000081526020015060200191505060405180910390fd5b50505b505050565b60008273ffffffffffffffffffffffffffffffffffffffff168473ffffffffffffffffffffffffffffffffffffffff161115611f5a57828480945081955050505b6000611fa68573ffffffffffffffffffffffffffffffffffffffff168573ffffffffffffffffffffffffffffffffffffffff166c0100000000000000000000000061208263ffffffff16565b9050611fdf611fd4848388880373ffffffffffffffffffffffffffffffffffffffff1661208263ffffffff16565b61218363ffffffff16565b915050611fe856505b9392505050565b60008273ffffffffffffffffffffffffffffffffffffffff168473ffffffffffffffffffffffffffffffffffffffff16111561203057828480945081955050505b612074612069836c0100000000000000000000000087870373ffffffffffffffffffffffffffffffffffffffff1661208263ffffffff16565b61218363ffffffff16565b905061207b565b9392505050565b60006000600060001985870985870292508281108382030391505060008114156120c5576000841115156120b65760006000fd5b8382049250829250505061217c565b80841115156120d45760006000fd5b600084868809905082811182039150808303925060008586600003169050808604955080840493506001818260000304019050808302841793508350600060028760030218905080870260020381029050805080870260020381029050805080870260020381029050805080870260020381029050805080870260020381029050805080870260020381029050805080850295508550859550505050505061217c5650505050505b9392505050565b600081829150816fffffffffffffffffffffffffffffffff161415156121a95760006000fd5b5b91905056612a54565b60008151905061ffff8116811415156121cc5760006000fd5b5b919050565b60008135905062ffffff8116811415156121ec5760006000fd5b5b919050565b600060208284031215612203578081fd5b813561220e816129ea565b809150505b92915050565b60006020828403121561222a578081fd5b8151612235816129ea565b809150505b92915050565b600060006000600060808587031215612257578283fd5b8435612262816129ea565b809450506020850135612274816129ea565b80935050612284604086016121d2565b91506060850135612294816129ea565b809150505b92959194509250565b60006000600060006000600060c087890312156122bd578182fd5b86356122c8816129ea565b80965050602087013594506040870135935060608701356122e881612a3e565b809350506080870135915060a087013590505b9295509295509295565b6000600060208385031215612318578182fd5b823567ffffffffffffffff8082111561232f578384fd5b818501915085601f8301121515612344578384fd5b813581811115612352578485fd5b866020602083028501011115612366578485fd5b6020830194508093505050505b9250929050565b60006020828403121561238b578081fd5b813561239681612a13565b809150505b92915050565b6000602082840312156123b2578081fd5b81516123bd81612a13565b809150505b92915050565b6000602082840312156123d9578081fd5b81356123e481612a28565b809150505b92915050565b600060208284031215612400578081fd5b815167ffffffffffffffff80821115612417578283fd5b818401915084601f830112151561242c578283fd5b81518181111561243857fe5b60405160207fffffffffffffffffffffffffffffffffffffffffffffffffffffffffffffffe0601f840116820101818110848211171561247457fe5b806040525081815286602083860101111561248d578485fd5b61249e8260208301602087016129b5565b809450505050505b92915050565b600061016082840312156124be578081fd5b8190505b92915050565b600060006000600060006000600060e0888a0312156124e5578485fd5b87516124f0816129ea565b80975050602088015161250281612a28565b80965050612512604089016121b3565b9450612520606089016121b3565b935061252e608089016121b3565b925060a088015161253e81612a3e565b8092505060c088015161255081612a13565b809150505b92959891949750929550565b600060208284031215612572578081fd5b61257b826121d2565b90505b92915050565b6000600060408385031215612597578182fd5b82519150602083015190505b9250929050565b600060006000606084860312156125bf578081fd5b8351925060208401519150604084015190505b9250925092565b73ffffffffffffffffffffffffffffffffffffffff811682525b5050565b6000815180845261260f8160208601602086016129b5565b60207fffffffffffffffffffffffffffffffffffffffffffffffffffffffffffffffe0601f8301168501019150505b92915050565b8060020b82525b5050565b6fffffffffffffffffffffffffffffffff811682525b5050565b62ffffff811682525b5050565b600082848337828201818152809150505b9392505050565b600060208201905073ffffffffffffffffffffffffffffffffffffffff831682525b92915050565b600060208201905073ffffffffffffffffffffffffffffffffffffffff831682525b92915050565b600060608201905073ffffffffffffffffffffffffffffffffffffffff80861683528085166020840152508260408301525b949350505050565b600060808201905073ffffffffffffffffffffffffffffffffffffffff8087168352808616602084015262ffffff851660408401528084166060840152505b95945050505050565b6000602080830181845280855180835260408601915060408482028701019250838701855b828110156127d7577fffffffffffffffffffffffffffffffffffffffffffffffffffffffffffffffc08886030184526127bf8583516125f7565b9450858201915085840193505b600181019050612785565b5050505080925050505b92915050565b6000602082526127fa60208301846125f7565b90505b92915050565b600060208252600960208301527f4e6f74205745544839000000000000000000000000000000000000000000000060408301526060820190505b919050565b600060208252601660208301527f45786365737369766520707269636520696d706163740000000000000000000060408301526060820190505b919050565b6000610140820190506128958284516125d9565b60208301516128a760208401826125d9565b5060408301516128ba6040840182612669565b5060608301516128cd6060840182612644565b5060808301516128e06080840182612644565b5060a08301516128f360a084018261264f565b5060c083015160c083015260e083015160e08301526101008084015161291b828501826125d9565b50506101208084015181840152505b92915050565b60006020820190508282525b92915050565b6000600083357fffffffffffffffffffffffffffffffffffffffffffffffffffffffffffffffe18436030181121515612979578283fd5b80840190508035915067ffffffffffffffff821115612996578283fd5b602081019250508036038213156129ad5760006000fd5b5b9250929050565b60005b838110156129d45780820151818401525b6020810190506129b8565b838111156129e3576000848401525b505b505050565b73ffffffffffffffffffffffffffffffffffffffff811681141515612a0f5760006000fd5b5b50565b80151581141515612a245760006000fd5b5b50565b8060020b81141515612a3a5760006000fd5b5b50565b60ff811681141515612a505760006000fd5b5b50565bfea26469706673582212200d92166219182a129a0dbdd20edc64476f2650216bc3ecf4e6ad0344aab48fb664736f6c63430007060033",
  "linkReferences": {},
  "deployedLinkReferences": {}
}