{
  "_format": "hh-sol-artifact-1",
  "contractName": "EnforcedDecentralization",
  "sourceName": "contracts/core/governance/EnforcedDecentralization.sol",
  "abi": [
    {
      "inputs": [],
      "stateMutability": "nonpayable",
      "type": "constructor"
    },
    {
      "anonymous": false,
      "inputs": [
        {
          "indexed": true,
          "internalType": "string",
          "name": "signature",
          "type": "string"
        }
      ],
      "name": "ActionBlacklisted",
      "type": "event"
    },
    {
      "anonymous": false,
      "inputs": [
        {
          "indexed": true,
          "internalType": "address",
          "name": "governor",
          "type": "address"
        }
      ],
      "name": "Initialized",
      "type": "event"
    },
    {
      "anonymous": false,
      "inputs": [
        {
          "indexed": false,
          "internalType": "uint64",
          "name": "startTime",
          "type": "uint64"
        }
      ],
      "name": "PhaseOneStartTimeSet",
      "type": "event"
    },
    {
      "anonymous": false,
      "inputs": [
        {
          "indexed": true,
          "internalType": "uint8",
          "name": "phase",
          "type": "uint8"
        },
        {
          "indexed": false,
          "internalType": "uint64",
          "name": "startTime",
          "type": "uint64"
        },
        {
          "indexed": false,
          "internalType": "uint8",
          "name": "delaysRemaining",
          "type": "uint8"
        }
      ],
      "name": "PhaseStartDelayed",
      "type": "event"
    },
    {
      "anonymous": false,
      "inputs": [],
      "name": "Stopped",
      "type": "event"
    },
    {
      "anonymous": false,
      "inputs": [
        {
          "indexed": false,
          "internalType": "uint64",
          "name": "locktime",
          "type": "uint64"
        },
        {
          "indexed": false,
          "internalType": "uint8",
          "name": "delaysRemaining",
          "type": "uint8"
        }
      ],
      "name": "UpdateLockDelayed",
      "type": "event"
    },
    {
      "inputs": [
        {
          "internalType": "string",
          "name": "signature",
          "type": "string"
        }
      ],
      "name": "blacklistAction",
      "outputs": [],
      "stateMutability": "nonpayable",
      "type": "function"
    },
    {
      "inputs": [],
      "name": "currentPhase",
      "outputs": [
        {
          "internalType": "uint8",
          "name": "",
          "type": "uint8"
        }
      ],
      "stateMutability": "view",
      "type": "function"
    },
    {
      "inputs": [
        {
          "internalType": "uint8",
          "name": "phaseNumber",
          "type": "uint8"
        }
      ],
      "name": "delayPhaseStartTime",
      "outputs": [],
      "stateMutability": "nonpayable",
      "type": "function"
    },
    {
      "inputs": [],
      "name": "deployer",
      "outputs": [
        {
          "internalType": "address",
          "name": "",
          "type": "address"
        }
      ],
      "stateMutability": "view",
      "type": "function"
    },
    {
      "inputs": [],
      "name": "governor",
      "outputs": [
        {
          "internalType": "contract IGovernor",
          "name": "",
          "type": "address"
        }
      ],
      "stateMutability": "view",
      "type": "function"
    },
    {
      "inputs": [
        {
          "internalType": "contract IGovernor",
          "name": "_governor",
          "type": "address"
        }
      ],
      "name": "init",
      "outputs": [],
      "stateMutability": "nonpayable",
      "type": "function"
    },
    {
      "inputs": [
        {
          "internalType": "uint8",
          "name": "",
          "type": "uint8"
        }
      ],
      "name": "phaseInfo",
      "outputs": [
        {
          "internalType": "uint64",
          "name": "startTime",
          "type": "uint64"
        },
        {
          "internalType": "uint8",
          "name": "phaseStartDelaysRemaining",
          "type": "uint8"
        }
      ],
      "stateMutability": "view",
      "type": "function"
    },
    {
      "inputs": [
        {
          "internalType": "address",
          "name": "target",
          "type": "address"
        },
        {
          "internalType": "string",
          "name": "signature",
          "type": "string"
        }
      ],
      "name": "requireValidAction",
      "outputs": [],
      "stateMutability": "view",
      "type": "function"
    },
    {
      "inputs": [
        {
          "internalType": "uint64",
          "name": "phaseOneStartTime",
          "type": "uint64"
        }
      ],
      "name": "setPhaseOneStartTime",
      "outputs": [],
      "stateMutability": "nonpayable",
      "type": "function"
    },
    {
      "inputs": [],
      "name": "stopped",
      "outputs": [
        {
          "internalType": "bool",
          "name": "",
          "type": "bool"
        }
      ],
      "stateMutability": "view",
      "type": "function"
    },
    {
      "inputs": [
        {
          "internalType": "bytes4",
          "name": "",
          "type": "bytes4"
        }
      ],
      "name": "validUpdate",
      "outputs": [
        {
          "internalType": "bool",
          "name": "",
          "type": "bool"
        }
      ],
      "stateMutability": "view",
      "type": "function"
    }
  ],
  "bytecode": "0x6080604052600160066000509090553480156200001c5760006000fd5b505b5b33600160006101000a81548173ffffffffffffffffffffffffffffffffffffffff021916908373ffffffffffffffffffffffffffffffffffffffff1602179055505b6200007560006000620000b860201b60201c565b6200008960016000620000b860201b60201c565b6200009d60026003620000b860201b60201c565b620000b160036003620000b860201b60201c565b5b62000155565b6040518060400160405280600067ffffffffffffffff1681526020018260ff16815260200150600760005060008460ff1660ff16815260200190815260200160002060005060008201518160000160006101000a81548167ffffffffffffffff021916908367ffffffffffffffff16021790555060208201518160000160086101000a81548160ff021916908360ff1602179055509050505b5050565b61293180620001656000396000f3fe60806040523480156100115760006000fd5b50600436106100ce5760003560e01c806375f12b2111610082578063b8188c811161005c578063b8188c81146103f2578063d5f394881461042b578063eb0231201461045f576100ce565b806375f12b211461022c578063a43c36af1461024c578063a4718c6a1461032f576100ce565b8063113cf1ab116100b3578063113cf1ab1461012957806319ab453c1461018d578063719e712d146101d2576100ce565b8063055ad42e146100d45780630c340a24146100f5576100ce565b60006000fd5b6100dc610491565b604051808260ff16815260200191505060405180910390f35b6100fd610582565b604051808273ffffffffffffffffffffffffffffffffffffffff16815260200191505060405180910390f35b610175600480360360208110156101405760006000fd5b8101908080357bffffffffffffffffffffffffffffffffffffffffffffffffffffffff191690602001909291905050506105a8565b60405180821515815260200191505060405180910390f35b6101d0600480360360208110156101a45760006000fd5b81019080803573ffffffffffffffffffffffffffffffffffffffff1690602001909291905050506105cd565b005b610202600480360360208110156101e95760006000fd5b81019080803560ff16906020019092919050505061098b565b604051808367ffffffffffffffff1681526020018260ff1681526020019250505060405180910390f35b6102346109d3565b60405180821515815260200191505060405180910390f35b61032d600480360360408110156102635760006000fd5b81019080803573ffffffffffffffffffffffffffffffffffffffff169060200190929190803590602001906401000000008111156102a15760006000fd5b8201836020820111156102b45760006000fd5b803590602001918460018302840111640100000000831117156102d75760006000fd5b91908080601f016020809104026020016040519081016040528093929190818152602001838380828437600081840152601f19601f820116905080830192505050505050509090919290909192905050506109e6565b005b6103f0600480360360208110156103465760006000fd5b81019080803590602001906401000000008111156103645760006000fd5b8201836020820111156103775760006000fd5b8035906020019184600183028401116401000000008311171561039a5760006000fd5b91908080601f016020809104026020016040519081016040528093929190818152602001838380828437600081840152601f19601f82011690508083019250505050505050909091929090919290505050610e57565b005b610429600480360360208110156104095760006000fd5b81019080803567ffffffffffffffff169060200190929190505050610f92565b005b6104336112fa565b604051808273ffffffffffffffffffffffffffffffffffffffff16815260200191505060405180910390f35b61048f600480360360208110156104765760006000fd5b81019080803560ff169060200190929190505050611320565b005b6000600060076000506000600160ff16815260200190815260200160002060005060000160009054906101000a900467ffffffffffffffff1667ffffffffffffffff1614156104e3576000905061057f565b60006104f36117b363ffffffff16565b90506000600390505b60008160ff161115610573578167ffffffffffffffff16600760005060008360ff1660ff16815260200190815260200160002060005060000160009054906101000a900467ffffffffffffffff1667ffffffffffffffff16101561056457809250505061057f565b5b8080600190039150506104fc565b50600091505061057f56505b90565b600060009054906101000a900473ffffffffffffffffffffffffffffffffffffffff1681565b600560005060205280600052604060002060009150909054906101000a900460ff1681565b600160009054906101000a900473ffffffffffffffffffffffffffffffffffffffff1673ffffffffffffffffffffffffffffffffffffffff163373ffffffffffffffffffffffffffffffffffffffff1614151561062a5760006000fd5b600160006101000a81549073ffffffffffffffffffffffffffffffffffffffff021916905580600060006101000a81548173ffffffffffffffffffffffffffffffffffffffff021916908373ffffffffffffffffffffffffffffffffffffffff160217905550600060009054906101000a900473ffffffffffffffffffffffffffffffffffffffff1673ffffffffffffffffffffffffffffffffffffffff16639624e83e6040518163ffffffff1660e01b815260040160206040518083038186803b1580156106f95760006000fd5b505afa15801561070e573d600060003e3d6000fd5b505050506040513d601f19601f8201168201806040525081019061073291906127de565b600260006101000a81548173ffffffffffffffffffffffffffffffffffffffff021916908373ffffffffffffffffffffffffffffffffffffffff160217905550600060009054906101000a900473ffffffffffffffffffffffffffffffffffffffff1673ffffffffffffffffffffffffffffffffffffffff1663323741746040518163ffffffff1660e01b815260040160206040518083038186803b1580156107db5760006000fd5b505afa1580156107f0573d600060003e3d6000fd5b505050506040513d601f19601f820116820180604052508101906108149190612805565b600360006101000a81548173ffffffffffffffffffffffffffffffffffffffff021916908373ffffffffffffffffffffffffffffffffffffffff160217905550600060009054906101000a900473ffffffffffffffffffffffffffffffffffffffff1673ffffffffffffffffffffffffffffffffffffffff1663d478b0876040518163ffffffff1660e01b815260040160206040518083038186803b1580156108bd5760006000fd5b505afa1580156108d2573d600060003e3d6000fd5b505050506040513d601f19601f820116820180604052508101906108f6919061282c565b600460006101000a81548173ffffffffffffffffffffffffffffffffffffffff021916908373ffffffffffffffffffffffffffffffffffffffff1602179055506109446117ce63ffffffff16565b8073ffffffffffffffffffffffffffffffffffffffff167f908408e307fc569b417f6cbec5d5a06f44a0a505ac0479b47d421a4b2fd6a1e660405160405180910390a25b50565b60076000506020528060005260406000206000915090508060000160009054906101000a900467ffffffffffffffff16908060000160089054906101000a900460ff16905082565b600060149054906101000a900460ff1681565b60006109f78261224d63ffffffff16565b905060086000506000827bffffffffffffffffffffffffffffffffffffffffffffffffffffffff19167bffffffffffffffffffffffffffffffffffffffffffffffffffffffff1916815260200190815260200160002060009054906101000a900460ff1615610a665750610e53565b600b6000506000827bffffffffffffffffffffffffffffffffffffffffffffffffffffffff19167bffffffffffffffffffffffffffffffffffffffffffffffffffffffff1916815260200190815260200160002060009054906101000a900460ff16151515610b40576040517f08c379a00000000000000000000000000000000000000000000000000000000081526004018080602001828103825260128152602001807f416374696f6e20626c61636b6c6973746564000000000000000000000000000081526020015060200191505060405180910390fd5b60096000506000827bffffffffffffffffffffffffffffffffffffffffffffffffffffffff19167bffffffffffffffffffffffffffffffffffffffffffffffffffffffff1916815260200190815260200160002060009054906101000a900460ff1615610bad5750610e53565b6000610bbd61049163ffffffff16565b9050600360ff168160ff16101515610c40576040517f08c379a00000000000000000000000000000000000000000000000000000000081526004018080602001828103825260168152602001807f5065726d616e656e7420616374696f6e73206f6e6c790000000000000000000081526020015060200191505060405180910390fd5b600a6000506000837bffffffffffffffffffffffffffffffffffffffffffffffffffffffff19167bffffffffffffffffffffffffffffffffffffffffffffffffffffffff1916815260200190815260200160002060009054906101000a900460ff1615610d2a5760028160ff16101515610d25576040517f08c379a00000000000000000000000000000000000000000000000000000000081526004018080602001828103825260168152602001807f557067726164652077696e646f7720657870697265640000000000000000000081526020015060200191505060405180910390fd5b610e50565b8373ffffffffffffffffffffffffffffffffffffffff1663113cf1ab836040518263ffffffff1660e01b815260040180827bffffffffffffffffffffffffffffffffffffffffffffffffffffffff1916815260200191505060206040518083038186803b158015610d9b5760006000fd5b505afa158015610db0573d600060003e3d6000fd5b505050506040513d6020811015610dc75760006000fd5b81019080805190602001909291905050501515610e4f576040517f08c379a00000000000000000000000000000000000000000000000000000000081526004018080602001828103825260198152602001807f55706461746520616374696f6e206e6f7420616c6c6f7765640000000000000081526020015060200191505060405180910390fd5b5b50505b5050565b610e6561226163ffffffff16565b610e7361234063ffffffff16565b6001600b6000506000610e8b8461224d63ffffffff16565b7bffffffffffffffffffffffffffffffffffffffffffffffffffffffff19167bffffffffffffffffffffffffffffffffffffffffffffffffffffffff1916815260200190815260200160002060006101000a81548160ff021916908315150217905550806040518082805190602001908083835b602083101515610f2557805182525b602082019150602081019050602083039250610eff565b6001836020036101000a03801982511681845116808217855250505050505090500191505060405180910390207f46239f1b0ab54ab50ccd57de67e96c8d11bcca46004913a27d666168ad2fb73460405160405180910390a25b5b610f8e6123d563ffffffff16565b5b50565b610fa061226163ffffffff16565b610fae61234063ffffffff16565b600060076000506000600160ff16815260200190815260200160002060005060000160009054906101000a900467ffffffffffffffff1667ffffffffffffffff16141515611067576040517f08c379a000000000000000000000000000000000000000000000000000000000815260040180806020018281038252600b8152602001807f416c72656164792073657400000000000000000000000000000000000000000081526020015060200191505060405180910390fd5b600061107761049163ffffffff16565b60ff161415156110f2576040517f08c379a000000000000000000000000000000000000000000000000000000000815260040180806020018281038252600b8152602001807f4e6f74207068617365203000000000000000000000000000000000000000000081526020015060200191505060405180910390fd5b8067ffffffffffffffff1661110f6201518061246963ffffffff16565b67ffffffffffffffff16101515611191576040517f08c379a00000000000000000000000000000000000000000000000000000000081526004018080602001828103825260128152602001807f4e6f7420656e6f756768207761726e696e67000000000000000000000000000081526020015060200191505060405180910390fd5b8060076000506000600160ff16815260200190815260200160002060005060000160006101000a81548167ffffffffffffffff021916908367ffffffffffffffff1602179055506111f862f142808267ffffffffffffffff1661249f90919063ffffffff16565b60076000506000600260ff16815260200190815260200160002060005060000160006101000a81548167ffffffffffffffff021916908367ffffffffffffffff16021790555061125f6301e133808267ffffffffffffffff1661249f90919063ffffffff16565b60076000506000600360ff16815260200190815260200160002060005060000160006101000a81548167ffffffffffffffff021916908367ffffffffffffffff1602179055507f18e32a18f3c57a652a4a5c7d49e929120f265175598b362abd1716d0d64c2ad181604051808267ffffffffffffffff16815260200191505060405180910390a15b5b6112f66123d563ffffffff16565b5b50565b600160009054906101000a900473ffffffffffffffffffffffffffffffffffffffff1681565b61132e61226163ffffffff16565b61133c61234063ffffffff16565b60008160ff161115156113ba576040517f08c379a00000000000000000000000000000000000000000000000000000000081526004018080602001828103825260128152602001807f43616e742064656c61792030207068617365000000000000000000000000000081526020015060200191505060405180910390fd5b8060ff1660016113ce61049163ffffffff16565b0160ff1614151561144a576040517f08c379a00000000000000000000000000000000000000000000000000000000081526004018080602001828103825260198152602001807f43616e206f6e6c792064656c6179206e6578742070686173650000000000000081526020015060200191505060405180910390fd5b600360ff168160ff16111515156114cc576040517f08c379a000000000000000000000000000000000000000000000000000000000815260040180806020018281038252600d8152602001807f556e6b6e6f776e2070686173650000000000000000000000000000000000000081526020015060200191505060405180910390fd5b6000600760005060008360ff1660ff1681526020019081526020016000206000506040518060400160405290816000820160009054906101000a900467ffffffffffffffff1667ffffffffffffffff1667ffffffffffffffff1681526020016000820160089054906101000a900460ff1660ff1660ff1681526020015050905061155e62278d0061246963ffffffff16565b67ffffffffffffffff16816000015167ffffffffffffffff161015156115ef576040517f08c379a00000000000000000000000000000000000000000000000000000000081526004018080602001828103825260178152602001807f5068617365207374617274206973206e6f74206e65617200000000000000000081526020015060200191505060405180910390fd5b6000816020015160ff16111515611671576040517f08c379a00000000000000000000000000000000000000000000000000000000081526004018080602001828103825260138152602001807f4e6f2064656c6179732072656d61696e696e670000000000000000000000000081526020015060200191505060405180910390fd5b61169562278d00826000015167ffffffffffffffff1661249f90919063ffffffff16565b816000019067ffffffffffffffff16908167ffffffffffffffff168152602001505080602001805180919060019003909060ff1660ff168152602001505080600760005060008460ff1660ff16815260200190815260200160002060005060008201518160000160006101000a81548167ffffffffffffffff021916908367ffffffffffffffff16021790555060208201518160000160086101000a81548160ff021916908360ff1602179055509050508160ff167f4c5477e514459ab04fc3defdfdc3db8562422e8e9b25a0e0050b1b816297571882600001518360200151604051808367ffffffffffffffff1681526020018260ff1681526020019250505060405180910390a2505b5b6117af6123d563ffffffff16565b5b50565b60006117c64261253c909063ffffffff16565b905080505b90565b6118c6600060009054906101000a900473ffffffffffffffffffffffffffffffffffffffff1673ffffffffffffffffffffffffffffffffffffffff166336fc02f46040518163ffffffff1660e01b815260040160206040518083038186803b15801561183a5760006000fd5b505afa15801561184f573d600060003e3d6000fd5b505050506040513d60208110156118665760006000fd5b8101908080519060200190929190505050600060009054906101000a900473ffffffffffffffffffffffffffffffffffffffff167fffffffffffffffffffffffffffffffffffffffffffffffffffffffffffffffff6125ce63ffffffff16565b60016008600050600063232948ea60e01b7bffffffffffffffffffffffffffffffffffffffffffffffffffffffff19167bffffffffffffffffffffffffffffffffffffffffffffffffffffffff1916815260200190815260200160002060006101000a81548160ff0219169083151502179055506001600860005060006380b5c66560e01b7bffffffffffffffffffffffffffffffffffffffffffffffffffffffff19167bffffffffffffffffffffffffffffffffffffffffffffffffffffffff1916815260200190815260200160002060006101000a81548160ff02191690831515021790555060016008600050600063e4e9bcca60e01b7bffffffffffffffffffffffffffffffffffffffffffffffffffffffff19167bffffffffffffffffffffffffffffffffffffffffffffffffffffffff1916815260200190815260200160002060006101000a81548160ff02191690831515021790555060016008600050600063a4718c6a60e01b7bffffffffffffffffffffffffffffffffffffffffffffffffffffffff19167bffffffffffffffffffffffffffffffffffffffffffffffffffffffff1916815260200190815260200160002060006101000a81548160ff021916908315150217905550600160096000506000636e16ead260e01b7bffffffffffffffffffffffffffffffffffffffffffffffffffffffff19167bffffffffffffffffffffffffffffffffffffffffffffffffffffffff1916815260200190815260200160002060006101000a81548160ff02191690831515021790555060016009600050600063685a1cd660e01b7bffffffffffffffffffffffffffffffffffffffffffffffffffffffff19167bffffffffffffffffffffffffffffffffffffffffffffffffffffffff1916815260200190815260200160002060006101000a81548160ff02191690831515021790555060016009600050600063827015c360e01b7bffffffffffffffffffffffffffffffffffffffffffffffffffffffff19167bffffffffffffffffffffffffffffffffffffffffffffffffffffffff1916815260200190815260200160002060006101000a81548160ff02191690831515021790555060016009600050600063397d359260e01b7bffffffffffffffffffffffffffffffffffffffffffffffffffffffff19167bffffffffffffffffffffffffffffffffffffffffffffffffffffffff1916815260200190815260200160002060006101000a81548160ff021916908315150217905550600160096000506000630b218d2460e01b7bffffffffffffffffffffffffffffffffffffffffffffffffffffffff19167bffffffffffffffffffffffffffffffffffffffffffffffffffffffff1916815260200190815260200160002060006101000a81548160ff0219169083151502179055506001600a600050600063e97a99b660e01b7bffffffffffffffffffffffffffffffffffffffffffffffffffffffff19167bffffffffffffffffffffffffffffffffffffffffffffffffffffffff1916815260200190815260200160002060006101000a81548160ff0219169083151502179055506001600a600050600063b971dc0560e01b7bffffffffffffffffffffffffffffffffffffffffffffffffffffffff19167bffffffffffffffffffffffffffffffffffffffffffffffffffffffff1916815260200190815260200160002060006101000a81548160ff0219169083151502179055506001600a600050600063ff26df7260e01b7bffffffffffffffffffffffffffffffffffffffffffffffffffffffff19167bffffffffffffffffffffffffffffffffffffffffffffffffffffffff1916815260200190815260200160002060006101000a81548160ff0219169083151502179055506001600a600050600063a1c1f90d60e01b7bffffffffffffffffffffffffffffffffffffffffffffffffffffffff19167bffffffffffffffffffffffffffffffffffffffffffffffffffffffff1916815260200190815260200160002060006101000a81548160ff0219169083151502179055506001600a60005060006383208f5360e01b7bffffffffffffffffffffffffffffffffffffffffffffffffffffffff19167bffffffffffffffffffffffffffffffffffffffffffffffffffffffff1916815260200190815260200160002060006101000a81548160ff0219169083151502179055506001600a60005060006380304d0960e01b7bffffffffffffffffffffffffffffffffffffffffffffffffffffffff19167bffffffffffffffffffffffffffffffffffffffffffffffffffffffff1916815260200190815260200160002060006101000a81548160ff0219169083151502179055506001600a6000506000638f40b82f60e01b7bffffffffffffffffffffffffffffffffffffffffffffffffffffffff19167bffffffffffffffffffffffffffffffffffffffffffffffffffffffff1916815260200190815260200160002060006101000a81548160ff0219169083151502179055506001600b6000506000632c388d5d60e01b7bffffffffffffffffffffffffffffffffffffffffffffffffffffffff19167bffffffffffffffffffffffffffffffffffffffffffffffffffffffff1916815260200190815260200160002060006101000a81548160ff0219169083151502179055506001600b6000506000634ac8c5ae60e01b7bffffffffffffffffffffffffffffffffffffffffffffffffffffffff19167bffffffffffffffffffffffffffffffffffffffffffffffffffffffff1916815260200190815260200160002060006101000a81548160ff0219169083151502179055506001600b600050600063e97dcb6260e01b7bffffffffffffffffffffffffffffffffffffffffffffffffffffffff19167bffffffffffffffffffffffffffffffffffffffffffffffffffffffff1916815260200190815260200160002060006101000a81548160ff0219169083151502179055506001600b600050600063e9fad8ee60e01b7bffffffffffffffffffffffffffffffffffffffffffffffffffffffff19167bffffffffffffffffffffffffffffffffffffffffffffffffffffffff1916815260200190815260200160002060006101000a81548160ff02191690831515021790555060016005600050600063eb02312060e01b7bffffffffffffffffffffffffffffffffffffffffffffffffffffffff19167bffffffffffffffffffffffffffffffffffffffffffffffffffffffff1916815260200190815260200160002060006101000a81548160ff0219169083151502179055505b565b60008180519060200120905080505b919050565b600460009054906101000a900473ffffffffffffffffffffffffffffffffffffffff1673ffffffffffffffffffffffffffffffffffffffff1663e97dcb626040518163ffffffff1660e01b8152600401600060405180830381600087803b1580156122cc5760006000fd5b505af11580156122e1573d600060003e3d6000fd5b50505050600260066000505414151515612330576040517f08c379a000000000000000000000000000000000000000000000000000000000815260040161232790612892565b60405180910390fd5b600260066000508190909055505b565b600060009054906101000a900473ffffffffffffffffffffffffffffffffffffffff1673ffffffffffffffffffffffffffffffffffffffff163373ffffffffffffffffffffffffffffffffffffffff161415156123d2576040517f08c379a00000000000000000000000000000000000000000000000000000000081526004016123c990612853565b60405180910390fd5b5b565b60016006600050819090905550600460009054906101000a900473ffffffffffffffffffffffffffffffffffffffff1673ffffffffffffffffffffffffffffffffffffffff1663e9fad8ee6040518163ffffffff1660e01b8152600401600060405180830381600087803b15801561244d5760006000fd5b505af1158015612462573d600060003e3d6000fd5b505050505b565b60006124958261247d6117b363ffffffff16565b67ffffffffffffffff1661249f90919063ffffffff16565b905080505b919050565b60008267ffffffffffffffff1682840191508167ffffffffffffffff1610151515612535576040517f08c379a000000000000000000000000000000000000000000000000000000000815260040180806020018281038252600c8152602001807f6164642d6f766572666c6f77000000000000000000000000000000000000000081526020015060200191505060405180910390fd5b5b92915050565b600068010000000000000000821015156125c1576040517f08c379a00000000000000000000000000000000000000000000000000000000081526004018080602001828103825260118152602001807f6d6f7265207468616e203634206269747300000000000000000000000000000081526020015060200191505060405180910390fd5b8190506125c9565b919050565b600060008473ffffffffffffffffffffffffffffffffffffffff1663095ea7b360e01b8585604051602401808373ffffffffffffffffffffffffffffffffffffffff16815260200182815260200192505050604051602081830303815290604052907bffffffffffffffffffffffffffffffffffffffffffffffffffffffff19166020820180517bffffffffffffffffffffffffffffffffffffffffffffffffffffffff83818316178352505050506040518082805190602001908083835b6020831015156126b357805182525b60208201915060208101905060208303925061268d565b6001836020036101000a0380198251168184511680821785525050505050509050019150506000604051808303816000865af19150503d8060008114612715576040519150601f19603f3d011682016040523d82523d6000602084013e61271a565b606091505b509150915081801561275b575060008151148061275a57508080602001905160208110156127485760006000fd5b81019080805190602001909291905050505b5b15156127d2576040517f08c379a00000000000000000000000000000000000000000000000000000000081526004018080602001828103825260028152602001807f534100000000000000000000000000000000000000000000000000000000000081526020015060200191505060405180910390fd5b50505b505050566128fa565b6000602082840312156127ef578081fd5b81516127fa816128d1565b809150505b92915050565b600060208284031215612816578081fd5b8151612821816128d1565b809150505b92915050565b60006020828403121561283d578081fd5b8151612848816128d1565b809150505b92915050565b600060208252600e60208301527f4e6f7420417574686f72697a656400000000000000000000000000000000000060408301526060820190505b919050565b600060208252600d60208301527f4c50205265656e7472616e63790000000000000000000000000000000000000060408301526060820190505b919050565b73ffffffffffffffffffffffffffffffffffffffff8116811415156128f65760006000fd5b5b50565bfea264697066735822122088618a722f9c96192217d84e89acfb705b303db08da73802b522810dd0dc1f9564736f6c63430007060033",
  "linkReferences": {},
  "deployedLinkReferences": {}
}