{
  "_format": "hh-sol-artifact-1",
  "contractName": "EnforcedDecentralization",
  "sourceName": "contracts/core/governance/EnforcedDecentralization.sol",
  "abi": [
    {
      "anonymous": false,
      "inputs": [
        {
          "indexed": true,
          "internalType": "string",
          "name": "signature",
          "type": "string"
        }
      ],
      "name": "ActionBlacklisted",
      "type": "event"
    },
    {
      "anonymous": false,
      "inputs": [
        {
          "indexed": true,
          "internalType": "address",
          "name": "governor",
          "type": "address"
        }
      ],
      "name": "Initialized",
      "type": "event"
    },
    {
      "anonymous": false,
      "inputs": [],
      "name": "Stopped",
      "type": "event"
    },
    {
      "anonymous": false,
      "inputs": [
        {
          "indexed": false,
          "internalType": "uint64",
          "name": "locktime",
          "type": "uint64"
        },
        {
          "indexed": false,
          "internalType": "uint8",
          "name": "delaysRemaining",
          "type": "uint8"
        }
      ],
      "name": "UpdateLockDelayed",
      "type": "event"
    },
    {
      "anonymous": false,
      "inputs": [
        {
          "indexed": false,
          "internalType": "uint64",
          "name": "locktime",
          "type": "uint64"
        },
        {
          "indexed": false,
          "internalType": "uint8",
          "name": "delaysRemaining",
          "type": "uint8"
        }
      ],
      "name": "UpgradeLockDelayed",
      "type": "event"
    },
    {
      "inputs": [],
      "name": "LOCK_EXTENSION",
      "outputs": [
        {
          "internalType": "uint64",
          "name": "",
          "type": "uint64"
        }
      ],
      "stateMutability": "view",
      "type": "function"
    },
    {
      "inputs": [
        {
          "internalType": "string",
          "name": "signature",
          "type": "string"
        }
      ],
      "name": "blacklistAction",
      "outputs": [],
      "stateMutability": "nonpayable",
      "type": "function"
    },
    {
      "inputs": [],
      "name": "contractUpgradeLockDelaysRemaining",
      "outputs": [
        {
          "internalType": "uint8",
          "name": "",
          "type": "uint8"
        }
      ],
      "stateMutability": "view",
      "type": "function"
    },
    {
      "inputs": [],
      "name": "contractUpgradeLockTime",
      "outputs": [
        {
          "internalType": "uint64",
          "name": "",
          "type": "uint64"
        }
      ],
      "stateMutability": "view",
      "type": "function"
    },
    {
      "inputs": [],
      "name": "delayContractUpgradeExpiration",
      "outputs": [],
      "stateMutability": "nonpayable",
      "type": "function"
    },
    {
      "inputs": [],
      "name": "delayParameterUpdateExpiration",
      "outputs": [],
      "stateMutability": "nonpayable",
      "type": "function"
    },
    {
      "inputs": [],
      "name": "deployer",
      "outputs": [
        {
          "internalType": "address",
          "name": "",
          "type": "address"
        }
      ],
      "stateMutability": "view",
      "type": "function"
    },
    {
      "inputs": [],
      "name": "governor",
      "outputs": [
        {
          "internalType": "contract IGovernor",
          "name": "",
          "type": "address"
        }
      ],
      "stateMutability": "view",
      "type": "function"
    },
    {
      "inputs": [
        {
          "internalType": "contract IGovernor",
          "name": "_governor",
          "type": "address"
        }
      ],
      "name": "init",
      "outputs": [],
      "stateMutability": "nonpayable",
      "type": "function"
    },
    {
      "inputs": [],
      "name": "parameterUpdateLockDelaysRemaining",
      "outputs": [
        {
          "internalType": "uint8",
          "name": "",
          "type": "uint8"
        }
      ],
      "stateMutability": "view",
      "type": "function"
    },
    {
      "inputs": [],
      "name": "parameterUpdateLockTime",
      "outputs": [
        {
          "internalType": "uint64",
          "name": "",
          "type": "uint64"
        }
      ],
      "stateMutability": "view",
      "type": "function"
    },
    {
      "inputs": [],
      "name": "stopped",
      "outputs": [
        {
          "internalType": "bool",
          "name": "",
          "type": "bool"
        }
      ],
      "stateMutability": "view",
      "type": "function"
    },
    {
      "inputs": [
        {
          "internalType": "bytes4",
          "name": "action",
          "type": "bytes4"
        }
      ],
      "name": "validUpdate",
      "outputs": [
        {
          "internalType": "bool",
          "name": "",
          "type": "bool"
        }
      ],
      "stateMutability": "view",
      "type": "function"
    },
    {
      "inputs": [
        {
          "internalType": "address",
          "name": "target",
          "type": "address"
        },
        {
          "internalType": "string",
          "name": "signature",
          "type": "string"
        }
      ],
      "name": "validateAction",
      "outputs": [
        {
          "internalType": "bool",
          "name": "",
          "type": "bool"
        }
      ],
      "stateMutability": "view",
      "type": "function"
    }
  ],
  "bytecode": "0x60806040526003600760106101000a81548160ff021916908360ff1602179055506003600760116101000a81548160ff021916908360ff16021790555034801561004857600080fd5b5033600160006101000a81548173ffffffffffffffffffffffffffffffffffffffff021916908373ffffffffffffffffffffffffffffffffffffffff1602179055506001600681905550612841806100a16000396000f3fe608060405234801561001057600080fd5b50600436106100ea5760003560e01c806375f12b211161008c578063c14f4aea11610066578063c14f4aea14610323578063c24d745f1461034b578063d2da30aa1461043c578063d5f3948814610464576100ea565b806375f12b211461023e5780637b5fd2641461025e578063a4718c6a14610268576100ea565b80631a17b854116100c85780631a17b854146101ca57806339242609146101eb5780634275b2911461020c578063589c7f9c14610234576100ea565b80630c340a24146100ef578063113cf1ab1461012357806319ab453c14610186575b600080fd5b6100f7610498565b604051808273ffffffffffffffffffffffffffffffffffffffff16815260200191505060405180910390f35b61016e6004803603602081101561013957600080fd5b8101908080357bffffffffffffffffffffffffffffffffffffffffffffffffffffffff191690602001909291905050506104bc565b60405180821515815260200191505060405180910390f35b6101c86004803603602081101561019c57600080fd5b81019080803573ffffffffffffffffffffffffffffffffffffffff169060200190929190505050610524565b005b6101d261093d565b604051808260ff16815260200191505060405180910390f35b6101f3610950565b604051808260ff16815260200191505060405180910390f35b610214610963565b604051808267ffffffffffffffff16815260200191505060405180910390f35b61023c61097d565b005b610246610ea8565b60405180821515815260200191505060405180910390f35b610266610ebb565b005b6103216004803603602081101561027e57600080fd5b810190808035906020019064010000000081111561029b57600080fd5b8201836020820111156102ad57600080fd5b803590602001918460018302840111640100000000831117156102cf57600080fd5b91908080601f016020809104026020016040519081016040528093929190818152602001838380828437600081840152601f19601f8201169050808301925050505050505091929192905050506113e6565b005b61032b611736565b604051808267ffffffffffffffff16815260200191505060405180910390f35b6104246004803603604081101561036157600080fd5b81019080803573ffffffffffffffffffffffffffffffffffffffff1690602001909291908035906020019064010000000081111561039e57600080fd5b8201836020820111156103b057600080fd5b803590602001918460018302840111640100000000831117156103d257600080fd5b91908080601f016020809104026020016040519081016040528093929190818152602001838380828437600081840152601f19601f820116905080830192505050505050509192919290505050611750565b60405180821515815260200191505060405180910390f35b610444611bea565b604051808267ffffffffffffffff16815260200191505060405180910390f35b61046c611bf1565b604051808273ffffffffffffffffffffffffffffffffffffffff16815260200191505060405180910390f35b60008054906101000a900473ffffffffffffffffffffffffffffffffffffffff1681565b600060056000837bffffffffffffffffffffffffffffffffffffffffffffffffffffffff19167bffffffffffffffffffffffffffffffffffffffffffffffffffffffff1916815260200190815260200160002060009054906101000a900460ff169050919050565b600160009054906101000a900473ffffffffffffffffffffffffffffffffffffffff1673ffffffffffffffffffffffffffffffffffffffff163373ffffffffffffffffffffffffffffffffffffffff16146105e7576040517f08c379a000000000000000000000000000000000000000000000000000000000815260040180806020018281038252601e8152602001807f476f7665726e65643a20496e6974206e6f7420617574686f72697a65642e000081525060200191505060405180910390fd5b600160006101000a81549073ffffffffffffffffffffffffffffffffffffffff0219169055806000806101000a81548173ffffffffffffffffffffffffffffffffffffffff021916908373ffffffffffffffffffffffffffffffffffffffff16021790555060008054906101000a900473ffffffffffffffffffffffffffffffffffffffff1673ffffffffffffffffffffffffffffffffffffffff16639624e83e6040518163ffffffff1660e01b815260040160206040518083038186803b1580156106b257600080fd5b505afa1580156106c6573d6000803e3d6000fd5b505050506040513d60208110156106dc57600080fd5b8101908080519060200190929190505050600260006101000a81548173ffffffffffffffffffffffffffffffffffffffff021916908373ffffffffffffffffffffffffffffffffffffffff16021790555060008054906101000a900473ffffffffffffffffffffffffffffffffffffffff1673ffffffffffffffffffffffffffffffffffffffff166311df99956040518163ffffffff1660e01b815260040160206040518083038186803b15801561079357600080fd5b505afa1580156107a7573d6000803e3d6000fd5b505050506040513d60208110156107bd57600080fd5b8101908080519060200190929190505050600360006101000a81548173ffffffffffffffffffffffffffffffffffffffff021916908373ffffffffffffffffffffffffffffffffffffffff16021790555060008054906101000a900473ffffffffffffffffffffffffffffffffffffffff1673ffffffffffffffffffffffffffffffffffffffff1663d478b0876040518163ffffffff1660e01b815260040160206040518083038186803b15801561087457600080fd5b505afa158015610888573d6000803e3d6000fd5b505050506040513d602081101561089e57600080fd5b8101908080519060200190929190505050600460006101000a81548173ffffffffffffffffffffffffffffffffffffffff021916908373ffffffffffffffffffffffffffffffffffffffff1602179055506108f7611c17565b8073ffffffffffffffffffffffffffffffffffffffff167f908408e307fc569b417f6cbec5d5a06f44a0a505ac0479b47d421a4b2fd6a1e660405160405180910390a250565b600760109054906101000a900460ff1681565b600760119054906101000a900460ff1681565b600760009054906101000a900467ffffffffffffffff1681565b600460009054906101000a900473ffffffffffffffffffffffffffffffffffffffff1673ffffffffffffffffffffffffffffffffffffffff1663e97dcb626040518163ffffffff1660e01b8152600401600060405180830381600087803b1580156109e757600080fd5b505af11580156109fb573d6000803e3d6000fd5b5050505060026006541415610a78576040517f08c379a000000000000000000000000000000000000000000000000000000000815260040180806020018281038252601d8152602001807f4c6f636b50726f746f636f6c3a207265656e7472616e742063616c6c2e00000081525060200191505060405180910390fd5b600260068190555060008054906101000a900473ffffffffffffffffffffffffffffffffffffffff1673ffffffffffffffffffffffffffffffffffffffff163373ffffffffffffffffffffffffffffffffffffffff1614610b41576040517f08c379a00000000000000000000000000000000000000000000000000000000081526004018080602001828103825260198152602001807f476f7665726e65643a204e6f7420417574686f72697a65642e0000000000000081525060200191505060405180910390fd5b600760089054906101000a900467ffffffffffffffff1667ffffffffffffffff16610b6a61266e565b67ffffffffffffffff1610610be7576040517f08c379a000000000000000000000000000000000000000000000000000000000815260040180806020018281038252600f8152602001807f416c7265616479206c6f636b65642e000000000000000000000000000000000081525060200191505060405180910390fd5b610bf362278d0061267e565b67ffffffffffffffff16600760089054906101000a900467ffffffffffffffff1667ffffffffffffffff1610610c91576040517f08c379a00000000000000000000000000000000000000000000000000000000081526004018080602001828103825260148152602001807f45787069726174696f6e206e6f74206e6561722e00000000000000000000000081525060200191505060405180910390fd5b6000600760119054906101000a900460ff1660ff161415610d1a576040517f08c379a00000000000000000000000000000000000000000000000000000000081526004018080602001828103825260148152602001807f4e6f2064656c6179732072656d61696e696e672e00000000000000000000000081525060200191505060405180910390fd5b610d5062278d00600760089054906101000a900467ffffffffffffffff1667ffffffffffffffff166126ab90919063ffffffff16565b600760086101000a81548167ffffffffffffffff021916908367ffffffffffffffff1602179055506007601181819054906101000a900460ff16809291906001900391906101000a81548160ff021916908360ff160217905550507f9c363fbf73ee737b9a4d8d8c70d975021444b497163c001875ed0e27896d5791600760089054906101000a900467ffffffffffffffff16600760119054906101000a900460ff16604051808367ffffffffffffffff1681526020018260ff1681526020019250505060405180910390a16001600681905550600460009054906101000a900473ffffffffffffffffffffffffffffffffffffffff1673ffffffffffffffffffffffffffffffffffffffff1663e9fad8ee6040518163ffffffff1660e01b8152600401600060405180830381600087803b158015610e8e57600080fd5b505af1158015610ea2573d6000803e3d6000fd5b50505050565b600060149054906101000a900460ff1681565b600460009054906101000a900473ffffffffffffffffffffffffffffffffffffffff1673ffffffffffffffffffffffffffffffffffffffff1663e97dcb626040518163ffffffff1660e01b8152600401600060405180830381600087803b158015610f2557600080fd5b505af1158015610f39573d6000803e3d6000fd5b5050505060026006541415610fb6576040517f08c379a000000000000000000000000000000000000000000000000000000000815260040180806020018281038252601d8152602001807f4c6f636b50726f746f636f6c3a207265656e7472616e742063616c6c2e00000081525060200191505060405180910390fd5b600260068190555060008054906101000a900473ffffffffffffffffffffffffffffffffffffffff1673ffffffffffffffffffffffffffffffffffffffff163373ffffffffffffffffffffffffffffffffffffffff161461107f576040517f08c379a00000000000000000000000000000000000000000000000000000000081526004018080602001828103825260198152602001807f476f7665726e65643a204e6f7420417574686f72697a65642e0000000000000081525060200191505060405180910390fd5b600760009054906101000a900467ffffffffffffffff1667ffffffffffffffff166110a861266e565b67ffffffffffffffff1610611125576040517f08c379a000000000000000000000000000000000000000000000000000000000815260040180806020018281038252600f8152602001807f416c7265616479206c6f636b65642e000000000000000000000000000000000081525060200191505060405180910390fd5b61113162278d0061267e565b67ffffffffffffffff16600760009054906101000a900467ffffffffffffffff1667ffffffffffffffff16106111cf576040517f08c379a00000000000000000000000000000000000000000000000000000000081526004018080602001828103825260148152602001807f45787069726174696f6e206e6f74206e6561722e00000000000000000000000081525060200191505060405180910390fd5b6000600760109054906101000a900460ff1660ff161415611258576040517f08c379a00000000000000000000000000000000000000000000000000000000081526004018080602001828103825260148152602001807f4e6f2064656c6179732072656d61696e696e672e00000000000000000000000081525060200191505060405180910390fd5b61128e62278d00600760009054906101000a900467ffffffffffffffff1667ffffffffffffffff166126ab90919063ffffffff16565b600760006101000a81548167ffffffffffffffff021916908367ffffffffffffffff1602179055506007601081819054906101000a900460ff16809291906001900391906101000a81548160ff021916908360ff160217905550507fd7af0d150188650f0d6947c95c4ce2c495cec35cfae5ab0eb41806ec6595cdb6600760009054906101000a900467ffffffffffffffff16600760109054906101000a900460ff16604051808367ffffffffffffffff1681526020018260ff1681526020019250505060405180910390a16001600681905550600460009054906101000a900473ffffffffffffffffffffffffffffffffffffffff1673ffffffffffffffffffffffffffffffffffffffff1663e9fad8ee6040518163ffffffff1660e01b8152600401600060405180830381600087803b1580156113cc57600080fd5b505af11580156113e0573d6000803e3d6000fd5b50505050565b600460009054906101000a900473ffffffffffffffffffffffffffffffffffffffff1673ffffffffffffffffffffffffffffffffffffffff1663e97dcb626040518163ffffffff1660e01b8152600401600060405180830381600087803b15801561145057600080fd5b505af1158015611464573d6000803e3d6000fd5b50505050600260065414156114e1576040517f08c379a000000000000000000000000000000000000000000000000000000000815260040180806020018281038252601d8152602001807f4c6f636b50726f746f636f6c3a207265656e7472616e742063616c6c2e00000081525060200191505060405180910390fd5b600260068190555060008054906101000a900473ffffffffffffffffffffffffffffffffffffffff1673ffffffffffffffffffffffffffffffffffffffff163373ffffffffffffffffffffffffffffffffffffffff16146115aa576040517f08c379a00000000000000000000000000000000000000000000000000000000081526004018080602001828103825260198152602001807f476f7665726e65643a204e6f7420417574686f72697a65642e0000000000000081525060200191505060405180910390fd5b6001600960006115b984612747565b7bffffffffffffffffffffffffffffffffffffffffffffffffffffffff19167bffffffffffffffffffffffffffffffffffffffffffffffffffffffff1916815260200190815260200160002060006101000a81548160ff021916908315150217905550806040518082805190602001908083835b60208310611650578051825260208201915060208101905060208303925061162d565b6001836020036101000a03801982511681845116808217855250505050505090500191505060405180910390207f46239f1b0ab54ab50ccd57de67e96c8d11bcca46004913a27d666168ad2fb73460405160405180910390a26001600681905550600460009054906101000a900473ffffffffffffffffffffffffffffffffffffffff1673ffffffffffffffffffffffffffffffffffffffff1663e9fad8ee6040518163ffffffff1660e01b8152600401600060405180830381600087803b15801561171b57600080fd5b505af115801561172f573d6000803e3d6000fd5b5050505050565b600760089054906101000a900467ffffffffffffffff1681565b60008061175c83612747565b9050600b6000827bffffffffffffffffffffffffffffffffffffffffffffffffffffffff19167bffffffffffffffffffffffffffffffffffffffffffffffffffffffff1916815260200190815260200160002060009054906101000a900460ff16156117cc576001915050611be4565b60096000827bffffffffffffffffffffffffffffffffffffffffffffffffffffffff19167bffffffffffffffffffffffffffffffffffffffffffffffffffffffff1916815260200190815260200160002060009054906101000a900460ff161561189e576040517f08c379a00000000000000000000000000000000000000000000000000000000081526004018080602001828103825260138152602001807f416374696f6e20626c61636b6c69737465642e0000000000000000000000000081525060200191505060405180910390fd5b600a6000827bffffffffffffffffffffffffffffffffffffffffffffffffffffffff19167bffffffffffffffffffffffffffffffffffffffffffffffffffffffff1916815260200190815260200160002060009054906101000a900460ff161561190c576001915050611be4565b600061191661266e565b9050600760089054906101000a900467ffffffffffffffff1667ffffffffffffffff168167ffffffffffffffff16106119b7576040517f08c379a00000000000000000000000000000000000000000000000000000000081526004018080602001828103825260178152602001807f5065726d616e656e7420616374696f6e73206f6e6c792e00000000000000000081525060200191505060405180910390fd5b60086000837bffffffffffffffffffffffffffffffffffffffffffffffffffffffff19167bffffffffffffffffffffffffffffffffffffffffffffffffffffffff1916815260200190815260200160002060009054906101000a900460ff1615611abf57600760009054906101000a900467ffffffffffffffff1667ffffffffffffffff168167ffffffffffffffff1610611aba576040517f08c379a00000000000000000000000000000000000000000000000000000000081526004018080602001828103825260178152602001807f557067726164652077696e646f7720657870697265642e00000000000000000081525060200191505060405180910390fd5b611bdd565b8473ffffffffffffffffffffffffffffffffffffffff1663113cf1ab836040518263ffffffff1660e01b815260040180827bffffffffffffffffffffffffffffffffffffffffffffffffffffffff1916815260200191505060206040518083038186803b158015611b2f57600080fd5b505afa158015611b43573d6000803e3d6000fd5b505050506040513d6020811015611b5957600080fd5b8101908080519060200190929190505050611bdc576040517f08c379a000000000000000000000000000000000000000000000000000000000815260040180806020018281038252601a8152602001807f55706461746520616374696f6e206e6f7420616c6c6f7765642e00000000000081525060200191505060405180910390fd5b5b6001925050505b92915050565b62278d0081565b600160009054906101000a900473ffffffffffffffffffffffffffffffffffffffff1681565b611c2362eff10061267e565b600760006101000a81548167ffffffffffffffff021916908367ffffffffffffffff160217905550611c586302d1248061267e565b600760086101000a81548167ffffffffffffffff021916908367ffffffffffffffff1602179055506001600b600063232948ea60e01b7bffffffffffffffffffffffffffffffffffffffffffffffffffffffff19167bffffffffffffffffffffffffffffffffffffffffffffffffffffffff1916815260200190815260200160002060006101000a81548160ff0219169083151502179055506001600b60006380b5c66560e01b7bffffffffffffffffffffffffffffffffffffffffffffffffffffffff19167bffffffffffffffffffffffffffffffffffffffffffffffffffffffff1916815260200190815260200160002060006101000a81548160ff0219169083151502179055506001600b600063a4718c6a60e01b7bffffffffffffffffffffffffffffffffffffffffffffffffffffffff19167bffffffffffffffffffffffffffffffffffffffffffffffffffffffff1916815260200190815260200160002060006101000a81548160ff0219169083151502179055506001600b600063eeaadadf60e01b7bffffffffffffffffffffffffffffffffffffffffffffffffffffffff19167bffffffffffffffffffffffffffffffffffffffffffffffffffffffff1916815260200190815260200160002060006101000a81548160ff02191690831515021790555060016008600063e97a99b660e01b7bffffffffffffffffffffffffffffffffffffffffffffffffffffffff19167bffffffffffffffffffffffffffffffffffffffffffffffffffffffff1916815260200190815260200160002060006101000a81548160ff02191690831515021790555060016008600063b971dc0560e01b7bffffffffffffffffffffffffffffffffffffffffffffffffffffffff19167bffffffffffffffffffffffffffffffffffffffffffffffffffffffff1916815260200190815260200160002060006101000a81548160ff02191690831515021790555060016008600063ff26df7260e01b7bffffffffffffffffffffffffffffffffffffffffffffffffffffffff19167bffffffffffffffffffffffffffffffffffffffffffffffffffffffff1916815260200190815260200160002060006101000a81548160ff02191690831515021790555060016008600063a1c1f90d60e01b7bffffffffffffffffffffffffffffffffffffffffffffffffffffffff19167bffffffffffffffffffffffffffffffffffffffffffffffffffffffff1916815260200190815260200160002060006101000a81548160ff0219169083151502179055506001600860006383208f5360e01b7bffffffffffffffffffffffffffffffffffffffffffffffffffffffff19167bffffffffffffffffffffffffffffffffffffffffffffffffffffffff1916815260200190815260200160002060006101000a81548160ff0219169083151502179055506001600860006380304d0960e01b7bffffffffffffffffffffffffffffffffffffffffffffffffffffffff19167bffffffffffffffffffffffffffffffffffffffffffffffffffffffff1916815260200190815260200160002060006101000a81548160ff021916908315150217905550600160086000638f40b82f60e01b7bffffffffffffffffffffffffffffffffffffffffffffffffffffffff19167bffffffffffffffffffffffffffffffffffffffffffffffffffffffff1916815260200190815260200160002060006101000a81548160ff021916908315150217905550600160086000632b5d257360e01b7bffffffffffffffffffffffffffffffffffffffffffffffffffffffff19167bffffffffffffffffffffffffffffffffffffffffffffffffffffffff1916815260200190815260200160002060006101000a81548160ff0219169083151502179055506001600a600063ffd7d98360e01b7bffffffffffffffffffffffffffffffffffffffffffffffffffffffff19167bffffffffffffffffffffffffffffffffffffffffffffffffffffffff1916815260200190815260200160002060006101000a81548160ff0219169083151502179055506001600a600063e4e9bcca60e01b7bffffffffffffffffffffffffffffffffffffffffffffffffffffffff19167bffffffffffffffffffffffffffffffffffffffffffffffffffffffff1916815260200190815260200160002060006101000a81548160ff0219169083151502179055506001600a6000637119a49060e01b7bffffffffffffffffffffffffffffffffffffffffffffffffffffffff19167bffffffffffffffffffffffffffffffffffffffffffffffffffffffff1916815260200190815260200160002060006101000a81548160ff021916908315150217905550600160096000632c388d5d60e01b7bffffffffffffffffffffffffffffffffffffffffffffffffffffffff19167bffffffffffffffffffffffffffffffffffffffffffffffffffffffff1916815260200190815260200160002060006101000a81548160ff021916908315150217905550600160096000634ac8c5ae60e01b7bffffffffffffffffffffffffffffffffffffffffffffffffffffffff19167bffffffffffffffffffffffffffffffffffffffffffffffffffffffff1916815260200190815260200160002060006101000a81548160ff02191690831515021790555060016009600063e97dcb6260e01b7bffffffffffffffffffffffffffffffffffffffffffffffffffffffff19167bffffffffffffffffffffffffffffffffffffffffffffffffffffffff1916815260200190815260200160002060006101000a81548160ff02191690831515021790555060016009600063e9fad8ee60e01b7bffffffffffffffffffffffffffffffffffffffffffffffffffffffff19167bffffffffffffffffffffffffffffffffffffffffffffffffffffffff1916815260200190815260200160002060006101000a81548160ff0219169083151502179055506124eb6127c3565b604051806060016040528063a4718c6a60e01b7bffffffffffffffffffffffffffffffffffffffffffffffffffffffff19167bffffffffffffffffffffffffffffffffffffffffffffffffffffffff19168152602001637b5fd26460e01b7bffffffffffffffffffffffffffffffffffffffffffffffffffffffff19167bffffffffffffffffffffffffffffffffffffffffffffffffffffffff1916815260200163589c7f9c60e01b7bffffffffffffffffffffffffffffffffffffffffffffffffffffffff19167bffffffffffffffffffffffffffffffffffffffffffffffffffffffff1916815250905060005b600381101561266a576001600560008484600381106125f557fe5b60200201517bffffffffffffffffffffffffffffffffffffffffffffffffffffffff19167bffffffffffffffffffffffffffffffffffffffffffffffffffffffff1916815260200190815260200160002060006101000a81548160ff02191690831515021790555080806001019150506125da565b5050565b600061267942612758565b905090565b60006126a48261268c61266e565b67ffffffffffffffff166126ab90919063ffffffff16565b9050919050565b60008082840190508367ffffffffffffffff168167ffffffffffffffff16101561273d576040517f08c379a000000000000000000000000000000000000000000000000000000000815260040180806020018281038252601b8152602001807f536166654d6174683a206164646974696f6e206f766572666c6f77000000000081525060200191505060405180910390fd5b8091505092915050565b600081805190602001209050919050565b60006801000000000000000082106127bb576040517f08c379a00000000000000000000000000000000000000000000000000000000081526004018080602001828103825260268152602001806127e66026913960400191505060405180910390fd5b819050919050565b604051806060016040528060039060208202803683378082019150509050509056fe53616665436173743a2076616c756520646f65736e27742066697420696e2036342062697473a26469706673582212206dbc4dc8d00453c93d2c18a8a8472b925e8dbe4dd1560f96a2b5405fdc66c17164736f6c63430007040033",
  "linkReferences": {},
  "deployedLinkReferences": {}
}