{
  "_format": "hh-sol-artifact-1",
  "contractName": "EnforcedDecentralization",
  "sourceName": "contracts/core/governance/EnforcedDecentralization.sol",
  "abi": [
    {
      "inputs": [],
      "stateMutability": "nonpayable",
      "type": "constructor"
    },
    {
      "anonymous": false,
      "inputs": [
        {
          "indexed": true,
          "internalType": "string",
          "name": "signature",
          "type": "string"
        }
      ],
      "name": "ActionBlacklisted",
      "type": "event"
    },
    {
      "anonymous": false,
      "inputs": [
        {
          "indexed": true,
          "internalType": "address",
          "name": "governor",
          "type": "address"
        }
      ],
      "name": "Initialized",
      "type": "event"
    },
    {
      "anonymous": false,
      "inputs": [
        {
          "indexed": false,
          "internalType": "uint64",
          "name": "startTime",
          "type": "uint64"
        }
      ],
      "name": "PhaseOneStartTimeSet",
      "type": "event"
    },
    {
      "anonymous": false,
      "inputs": [
        {
          "indexed": true,
          "internalType": "uint8",
          "name": "phase",
          "type": "uint8"
        },
        {
          "indexed": false,
          "internalType": "uint64",
          "name": "startTime",
          "type": "uint64"
        },
        {
          "indexed": false,
          "internalType": "uint8",
          "name": "delaysRemaining",
          "type": "uint8"
        }
      ],
      "name": "PhaseStartDelayed",
      "type": "event"
    },
    {
      "anonymous": false,
      "inputs": [],
      "name": "Stopped",
      "type": "event"
    },
    {
      "anonymous": false,
      "inputs": [
        {
          "indexed": false,
          "internalType": "uint64",
          "name": "locktime",
          "type": "uint64"
        },
        {
          "indexed": false,
          "internalType": "uint8",
          "name": "delaysRemaining",
          "type": "uint8"
        }
      ],
      "name": "UpdateLockDelayed",
      "type": "event"
    },
    {
      "inputs": [
        {
          "internalType": "string",
          "name": "signature",
          "type": "string"
        }
      ],
      "name": "blacklistAction",
      "outputs": [],
      "stateMutability": "nonpayable",
      "type": "function"
    },
    {
      "inputs": [],
      "name": "currentPhase",
      "outputs": [
        {
          "internalType": "uint8",
          "name": "",
          "type": "uint8"
        }
      ],
      "stateMutability": "view",
      "type": "function"
    },
    {
      "inputs": [
        {
          "internalType": "uint8",
          "name": "phaseNumber",
          "type": "uint8"
        }
      ],
      "name": "delayPhaseStartTime",
      "outputs": [],
      "stateMutability": "nonpayable",
      "type": "function"
    },
    {
      "inputs": [],
      "name": "deployer",
      "outputs": [
        {
          "internalType": "address",
          "name": "",
          "type": "address"
        }
      ],
      "stateMutability": "view",
      "type": "function"
    },
    {
      "inputs": [],
      "name": "governor",
      "outputs": [
        {
          "internalType": "contract IGovernor",
          "name": "",
          "type": "address"
        }
      ],
      "stateMutability": "view",
      "type": "function"
    },
    {
      "inputs": [
        {
          "internalType": "contract IGovernor",
          "name": "_governor",
          "type": "address"
        }
      ],
      "name": "init",
      "outputs": [],
      "stateMutability": "nonpayable",
      "type": "function"
    },
    {
      "inputs": [
        {
          "internalType": "uint8",
          "name": "",
          "type": "uint8"
        }
      ],
      "name": "phaseInfo",
      "outputs": [
        {
          "internalType": "uint64",
          "name": "startTime",
          "type": "uint64"
        },
        {
          "internalType": "uint8",
          "name": "phaseStartDelaysRemaining",
          "type": "uint8"
        }
      ],
      "stateMutability": "view",
      "type": "function"
    },
    {
      "inputs": [
        {
          "internalType": "uint64",
          "name": "phaseOneStartTime",
          "type": "uint64"
        }
      ],
      "name": "setPhaseOneStartTime",
      "outputs": [],
      "stateMutability": "nonpayable",
      "type": "function"
    },
    {
      "inputs": [],
      "name": "stopped",
      "outputs": [
        {
          "internalType": "bool",
          "name": "",
          "type": "bool"
        }
      ],
      "stateMutability": "view",
      "type": "function"
    },
    {
      "inputs": [],
      "name": "tcp",
      "outputs": [
        {
          "internalType": "contract ITCP",
          "name": "",
          "type": "address"
        }
      ],
      "stateMutability": "view",
      "type": "function"
    },
    {
      "inputs": [
        {
          "internalType": "address",
          "name": "dest",
          "type": "address"
        },
        {
          "internalType": "uint256",
          "name": "count",
          "type": "uint256"
        }
      ],
      "name": "transferEmergencyShutdownTokens",
      "outputs": [],
      "stateMutability": "nonpayable",
      "type": "function"
    },
    {
      "inputs": [
        {
          "internalType": "bytes4",
          "name": "",
          "type": "bytes4"
        }
      ],
      "name": "validUpdate",
      "outputs": [
        {
          "internalType": "bool",
          "name": "",
          "type": "bool"
        }
      ],
      "stateMutability": "view",
      "type": "function"
    },
    {
      "inputs": [
        {
          "internalType": "address",
          "name": "target",
          "type": "address"
        },
        {
          "internalType": "string",
          "name": "signature",
          "type": "string"
        }
      ],
      "name": "validateAction",
      "outputs": [
        {
          "internalType": "bool",
          "name": "",
          "type": "bool"
        }
      ],
      "stateMutability": "view",
      "type": "function"
    }
  ],
  "bytecode": "0x60806040526001600660005090905534801561001b5760006000fd5b505b5b33600160006101000a81548173ffffffffffffffffffffffffffffffffffffffff021916908373ffffffffffffffffffffffffffffffffffffffff1602179055505b600160076000506000600360ff16815260200190815260200160002060005060000160086101000a81548160ff021916908360ff160217905550600360076000506000600460ff16815260200190815260200160002060005060000160086101000a81548160ff021916908360ff160217905550600360076000506000600560ff16815260200190815260200160002060005060000160086101000a81548160ff021916908360ff1602179055505b610114565b612b73806101236000396000f3fe60806040523480156100115760006000fd5b50600436106100e45760003560e01c806375f12b211161008d578063b8188c8111610067578063b8188c81146103a8578063c24d745f146103e1578063d5f39488146104da578063eb0231201461050e576100e4565b806375f12b2114610276578063a4718c6a14610296578063a83d711914610359576100e4565b806319ab453c116100be57806319ab453c146101a357806336fc02f4146101e8578063719e712d1461021c576100e4565b8063055ad42e146100ea5780630c340a241461010b578063113cf1ab1461013f576100e4565b60006000fd5b6100f2610540565b604051808260ff16815260200191505060405180910390f35b610113610631565b604051808273ffffffffffffffffffffffffffffffffffffffff16815260200191505060405180910390f35b61018b600480360360208110156101565760006000fd5b8101908080357bffffffffffffffffffffffffffffffffffffffffffffffffffffffff19169060200190929190505050610657565b60405180821515815260200191505060405180910390f35b6101e6600480360360208110156101ba5760006000fd5b81019080803573ffffffffffffffffffffffffffffffffffffffff16906020019092919050505061067c565b005b6101f0610a3a565b604051808273ffffffffffffffffffffffffffffffffffffffff16815260200191505060405180910390f35b61024c600480360360208110156102335760006000fd5b81019080803560ff169060200190929190505050610a60565b604051808367ffffffffffffffff1681526020018260ff1681526020019250505060405180910390f35b61027e610aa8565b60405180821515815260200191505060405180910390f35b610357600480360360208110156102ad5760006000fd5b81019080803590602001906401000000008111156102cb5760006000fd5b8201836020820111156102de5760006000fd5b803590602001918460018302840111640100000000831117156103015760006000fd5b91908080601f016020809104026020016040519081016040528093929190818152602001838380828437600081840152601f19601f82011690508083019250505050505050909091929090919290505050610abb565b005b6103a6600480360360408110156103705760006000fd5b81019080803573ffffffffffffffffffffffffffffffffffffffff16906020019092919080359060200190929190505050610bf6565b005b6103df600480360360208110156103bf5760006000fd5b81019080803567ffffffffffffffff169060200190929190505050610c5a565b005b6104c2600480360360408110156103f85760006000fd5b81019080803573ffffffffffffffffffffffffffffffffffffffff169060200190929190803590602001906401000000008111156104365760006000fd5b8201836020820111156104495760006000fd5b8035906020019184600183028401116401000000008311171561046c5760006000fd5b91908080601f016020809104026020016040519081016040528093929190818152602001838380828437600081840152601f19601f8201169050808301925050505050505090909192909091929050505061113b565b60405180821515815260200191505060405180910390f35b6104e26115c2565b604051808273ffffffffffffffffffffffffffffffffffffffff16815260200191505060405180910390f35b61053e600480360360208110156105255760006000fd5b81019080803560ff1690602001909291905050506115e8565b005b6000600060076000506000600160ff16815260200190815260200160002060005060000160009054906101000a900467ffffffffffffffff1667ffffffffffffffff161415610592576000905061062e565b60006105a2611a7b63ffffffff16565b90506000600590505b60008160ff161115610622578167ffffffffffffffff16600760005060008360ff1660ff16815260200190815260200160002060005060000160009054906101000a900467ffffffffffffffff1667ffffffffffffffff16101561061357809250505061062e565b5b8080600190039150506105ab565b50600091505061062e56505b90565b600060009054906101000a900473ffffffffffffffffffffffffffffffffffffffff1681565b600560005060205280600052604060002060009150909054906101000a900460ff1681565b600160009054906101000a900473ffffffffffffffffffffffffffffffffffffffff1673ffffffffffffffffffffffffffffffffffffffff163373ffffffffffffffffffffffffffffffffffffffff161415156106d95760006000fd5b600160006101000a81549073ffffffffffffffffffffffffffffffffffffffff021916905580600060006101000a81548173ffffffffffffffffffffffffffffffffffffffff021916908373ffffffffffffffffffffffffffffffffffffffff160217905550600060009054906101000a900473ffffffffffffffffffffffffffffffffffffffff1673ffffffffffffffffffffffffffffffffffffffff16639624e83e6040518163ffffffff1660e01b815260040160206040518083038186803b1580156107a85760006000fd5b505afa1580156107bd573d600060003e3d6000fd5b505050506040513d601f19601f820116820180604052508101906107e19190612a20565b600260006101000a81548173ffffffffffffffffffffffffffffffffffffffff021916908373ffffffffffffffffffffffffffffffffffffffff160217905550600060009054906101000a900473ffffffffffffffffffffffffffffffffffffffff1673ffffffffffffffffffffffffffffffffffffffff16638a15fcf36040518163ffffffff1660e01b815260040160206040518083038186803b15801561088a5760006000fd5b505afa15801561089f573d600060003e3d6000fd5b505050506040513d601f19601f820116820180604052508101906108c39190612a6e565b600360006101000a81548173ffffffffffffffffffffffffffffffffffffffff021916908373ffffffffffffffffffffffffffffffffffffffff160217905550600060009054906101000a900473ffffffffffffffffffffffffffffffffffffffff1673ffffffffffffffffffffffffffffffffffffffff1663d478b0876040518163ffffffff1660e01b815260040160206040518083038186803b15801561096c5760006000fd5b505afa158015610981573d600060003e3d6000fd5b505050506040513d601f19601f820116820180604052508101906109a59190612a47565b600460006101000a81548173ffffffffffffffffffffffffffffffffffffffff021916908373ffffffffffffffffffffffffffffffffffffffff1602179055506109f3611a9663ffffffff16565b8073ffffffffffffffffffffffffffffffffffffffff167f908408e307fc569b417f6cbec5d5a06f44a0a505ac0479b47d421a4b2fd6a1e660405160405180910390a25b50565b600860009054906101000a900473ffffffffffffffffffffffffffffffffffffffff1681565b60076000506020528060005260406000206000915090508060000160009054906101000a900467ffffffffffffffff16908060000160089054906101000a900460ff16905082565b600060149054906101000a900460ff1681565b610ac961248f63ffffffff16565b610ad761256e63ffffffff16565b6001600c6000506000610aef8461260363ffffffff16565b7bffffffffffffffffffffffffffffffffffffffffffffffffffffffff19167bffffffffffffffffffffffffffffffffffffffffffffffffffffffff1916815260200190815260200160002060006101000a81548160ff021916908315150217905550806040518082805190602001908083835b602083101515610b8957805182525b602082019150602081019050602083039250610b63565b6001836020036101000a03801982511681845116808217855250505050505090500191505060405180910390207f46239f1b0ab54ab50ccd57de67e96c8d11bcca46004913a27d666168ad2fb73460405160405180910390a25b5b610bf261261763ffffffff16565b5b50565b610c0461248f63ffffffff16565b610c1261256e63ffffffff16565b610c45600860009054906101000a900473ffffffffffffffffffffffffffffffffffffffff1683836126ab63ffffffff16565b5b5b610c5561261763ffffffff16565b5b5050565b610c6861248f63ffffffff16565b610c7661256e63ffffffff16565b600060076000506000600160ff16815260200190815260200160002060005060000160009054906101000a900467ffffffffffffffff1667ffffffffffffffff16141515610d2f576040517f08c379a000000000000000000000000000000000000000000000000000000000815260040180806020018281038252600b8152602001807f416c72656164792073657400000000000000000000000000000000000000000081526020015060200191505060405180910390fd5b6000610d3f61054063ffffffff16565b60ff16141515610dba576040517f08c379a000000000000000000000000000000000000000000000000000000000815260040180806020018281038252600b8152602001807f4e6f74207068617365203000000000000000000000000000000000000000000081526020015060200191505060405180910390fd5b8067ffffffffffffffff16610dd7620151806128b763ffffffff16565b67ffffffffffffffff16101515610e59576040517f08c379a00000000000000000000000000000000000000000000000000000000081526004018080602001828103825260128152602001807f4e6f7420656e6f756768207761726e696e67000000000000000000000000000081526020015060200191505060405180910390fd5b8060076000506000600160ff16815260200190815260200160002060005060000160006101000a81548167ffffffffffffffff021916908367ffffffffffffffff1602179055506000610f6962015180600060009054906101000a900473ffffffffffffffffffffffffffffffffffffffff1673ffffffffffffffffffffffffffffffffffffffff1663b23612906040518163ffffffff1660e01b815260040160206040518083038186803b158015610f125760006000fd5b505afa158015610f27573d600060003e3d6000fd5b505050506040513d6020811015610f3e5760006000fd5b8101908080519060200190929190505050028367ffffffffffffffff166128ed90919063ffffffff16565b90508060076000506000600260ff16815260200190815260200160002060005060000160006101000a81548167ffffffffffffffff021916908367ffffffffffffffff160217905550610fd262506b808267ffffffffffffffff166128ed90919063ffffffff16565b60076000506000600360ff16815260200190815260200160002060005060000160006101000a81548167ffffffffffffffff021916908367ffffffffffffffff16021790555061103862f142808267ffffffffffffffff166128ed90919063ffffffff16565b60076000506000600460ff16815260200190815260200160002060005060000160006101000a81548167ffffffffffffffff021916908367ffffffffffffffff16021790555061109f6301e133808267ffffffffffffffff166128ed90919063ffffffff16565b60076000506000600560ff16815260200190815260200160002060005060000160006101000a81548167ffffffffffffffff021916908367ffffffffffffffff1602179055507f18e32a18f3c57a652a4a5c7d49e929120f265175598b362abd1716d0d64c2ad182604051808267ffffffffffffffff16815260200191505060405180910390a1505b5b61113761261763ffffffff16565b5b50565b6000600061114e8361260363ffffffff16565b905060096000506000827bffffffffffffffffffffffffffffffffffffffffffffffffffffffff19167bffffffffffffffffffffffffffffffffffffffffffffffffffffffff1916815260200190815260200160002060009054906101000a900460ff16156111c15760019150506115bc565b600c6000506000827bffffffffffffffffffffffffffffffffffffffffffffffffffffffff19167bffffffffffffffffffffffffffffffffffffffffffffffffffffffff1916815260200190815260200160002060009054906101000a900460ff1615151561129b576040517f08c379a00000000000000000000000000000000000000000000000000000000081526004018080602001828103825260128152602001807f416374696f6e20626c61636b6c6973746564000000000000000000000000000081526020015060200191505060405180910390fd5b600a6000506000827bffffffffffffffffffffffffffffffffffffffffffffffffffffffff19167bffffffffffffffffffffffffffffffffffffffffffffffffffffffff1916815260200190815260200160002060009054906101000a900460ff161561130c5760019150506115bc565b600061131c61054063ffffffff16565b9050600560ff168160ff1610151561139f576040517f08c379a00000000000000000000000000000000000000000000000000000000081526004018080602001828103825260168152602001807f5065726d616e656e7420616374696f6e73206f6e6c790000000000000000000081526020015060200191505060405180910390fd5b600b6000506000837bffffffffffffffffffffffffffffffffffffffffffffffffffffffff19167bffffffffffffffffffffffffffffffffffffffffffffffffffffffff1916815260200190815260200160002060009054906101000a900460ff16156114895760048160ff16101515611484576040517f08c379a00000000000000000000000000000000000000000000000000000000081526004018080602001828103825260168152602001807f557067726164652077696e646f7720657870697265640000000000000000000081526020015060200191505060405180910390fd5b6115af565b8473ffffffffffffffffffffffffffffffffffffffff1663113cf1ab836040518263ffffffff1660e01b815260040180827bffffffffffffffffffffffffffffffffffffffffffffffffffffffff1916815260200191505060206040518083038186803b1580156114fa5760006000fd5b505afa15801561150f573d600060003e3d6000fd5b505050506040513d60208110156115265760006000fd5b810190808051906020019092919050505015156115ae576040517f08c379a00000000000000000000000000000000000000000000000000000000081526004018080602001828103825260198152602001807f55706461746520616374696f6e206e6f7420616c6c6f7765640000000000000081526020015060200191505060405180910390fd5b5b6001925050506115bc5650505b92915050565b600160009054906101000a900473ffffffffffffffffffffffffffffffffffffffff1681565b6115f661248f63ffffffff16565b61160461256e63ffffffff16565b60008160ff16111515611682576040517f08c379a00000000000000000000000000000000000000000000000000000000081526004018080602001828103825260128152602001807f43616e742064656c61792030207068617365000000000000000000000000000081526020015060200191505060405180910390fd5b8060ff16600161169661054063ffffffff16565b0160ff16141515611712576040517f08c379a00000000000000000000000000000000000000000000000000000000081526004018080602001828103825260198152602001807f43616e206f6e6c792064656c6179206e6578742070686173650000000000000081526020015060200191505060405180910390fd5b600560ff168160ff1611151515611794576040517f08c379a000000000000000000000000000000000000000000000000000000000815260040180806020018281038252600d8152602001807f556e6b6e6f776e2070686173650000000000000000000000000000000000000081526020015060200191505060405180910390fd5b6000600760005060008360ff1660ff1681526020019081526020016000206000506040518060400160405290816000820160009054906101000a900467ffffffffffffffff1667ffffffffffffffff1667ffffffffffffffff1681526020016000820160089054906101000a900460ff1660ff1660ff1681526020015050905061182662278d006128b763ffffffff16565b67ffffffffffffffff16816000015167ffffffffffffffff161015156118b7576040517f08c379a00000000000000000000000000000000000000000000000000000000081526004018080602001828103825260178152602001807f5068617365207374617274206973206e6f74206e65617200000000000000000081526020015060200191505060405180910390fd5b6000816020015160ff16111515611939576040517f08c379a00000000000000000000000000000000000000000000000000000000081526004018080602001828103825260138152602001807f4e6f2064656c6179732072656d61696e696e670000000000000000000000000081526020015060200191505060405180910390fd5b61195d62278d00826000015167ffffffffffffffff166128ed90919063ffffffff16565b816000019067ffffffffffffffff16908167ffffffffffffffff16815260200150506001816020015103816020019060ff16908160ff168152602001505080600760005060008460ff1660ff16815260200190815260200160002060005060008201518160000160006101000a81548167ffffffffffffffff021916908367ffffffffffffffff16021790555060208201518160000160086101000a81548160ff021916908360ff1602179055509050508160ff167f4c5477e514459ab04fc3defdfdc3db8562422e8e9b25a0e0050b1b816297571882600001518360200151604051808367ffffffffffffffff1681526020018260ff1681526020019250505060405180910390a2505b5b611a7761261763ffffffff16565b5b50565b6000611a8e4261298a909063ffffffff16565b905080505b90565b600060009054906101000a900473ffffffffffffffffffffffffffffffffffffffff1673ffffffffffffffffffffffffffffffffffffffff166336fc02f46040518163ffffffff1660e01b815260040160206040518083038186803b158015611aff5760006000fd5b505afa158015611b14573d600060003e3d6000fd5b505050506040513d6020811015611b2b5760006000fd5b8101908080519060200190929190505050600860006101000a81548173ffffffffffffffffffffffffffffffffffffffff021916908373ffffffffffffffffffffffffffffffffffffffff16021790555060016009600050600063232948ea60e01b7bffffffffffffffffffffffffffffffffffffffffffffffffffffffff19167bffffffffffffffffffffffffffffffffffffffffffffffffffffffff1916815260200190815260200160002060006101000a81548160ff0219169083151502179055506001600960005060006380b5c66560e01b7bffffffffffffffffffffffffffffffffffffffffffffffffffffffff19167bffffffffffffffffffffffffffffffffffffffffffffffffffffffff1916815260200190815260200160002060006101000a81548160ff02191690831515021790555060016009600050600063e4e9bcca60e01b7bffffffffffffffffffffffffffffffffffffffffffffffffffffffff19167bffffffffffffffffffffffffffffffffffffffffffffffffffffffff1916815260200190815260200160002060006101000a81548160ff02191690831515021790555060016009600050600063a4718c6a60e01b7bffffffffffffffffffffffffffffffffffffffffffffffffffffffff19167bffffffffffffffffffffffffffffffffffffffffffffffffffffffff1916815260200190815260200160002060006101000a81548160ff0219169083151502179055506001600a6000506000636e16ead260e01b7bffffffffffffffffffffffffffffffffffffffffffffffffffffffff19167bffffffffffffffffffffffffffffffffffffffffffffffffffffffff1916815260200190815260200160002060006101000a81548160ff0219169083151502179055506001600a600050600063685a1cd660e01b7bffffffffffffffffffffffffffffffffffffffffffffffffffffffff19167bffffffffffffffffffffffffffffffffffffffffffffffffffffffff1916815260200190815260200160002060006101000a81548160ff0219169083151502179055506001600a600050600063827015c360e01b7bffffffffffffffffffffffffffffffffffffffffffffffffffffffff19167bffffffffffffffffffffffffffffffffffffffffffffffffffffffff1916815260200190815260200160002060006101000a81548160ff0219169083151502179055506001600b600050600063e97a99b660e01b7bffffffffffffffffffffffffffffffffffffffffffffffffffffffff19167bffffffffffffffffffffffffffffffffffffffffffffffffffffffff1916815260200190815260200160002060006101000a81548160ff0219169083151502179055506001600b6000506000630b1c7d1f60e01b7bffffffffffffffffffffffffffffffffffffffffffffffffffffffff19167bffffffffffffffffffffffffffffffffffffffffffffffffffffffff1916815260200190815260200160002060006101000a81548160ff0219169083151502179055506001600b600050600063b971dc0560e01b7bffffffffffffffffffffffffffffffffffffffffffffffffffffffff19167bffffffffffffffffffffffffffffffffffffffffffffffffffffffff1916815260200190815260200160002060006101000a81548160ff0219169083151502179055506001600b600050600063ff26df7260e01b7bffffffffffffffffffffffffffffffffffffffffffffffffffffffff19167bffffffffffffffffffffffffffffffffffffffffffffffffffffffff1916815260200190815260200160002060006101000a81548160ff0219169083151502179055506001600b600050600063a1c1f90d60e01b7bffffffffffffffffffffffffffffffffffffffffffffffffffffffff19167bffffffffffffffffffffffffffffffffffffffffffffffffffffffff1916815260200190815260200160002060006101000a81548160ff0219169083151502179055506001600b60005060006383208f5360e01b7bffffffffffffffffffffffffffffffffffffffffffffffffffffffff19167bffffffffffffffffffffffffffffffffffffffffffffffffffffffff1916815260200190815260200160002060006101000a81548160ff0219169083151502179055506001600b60005060006380304d0960e01b7bffffffffffffffffffffffffffffffffffffffffffffffffffffffff19167bffffffffffffffffffffffffffffffffffffffffffffffffffffffff1916815260200190815260200160002060006101000a81548160ff0219169083151502179055506001600b6000506000638f40b82f60e01b7bffffffffffffffffffffffffffffffffffffffffffffffffffffffff19167bffffffffffffffffffffffffffffffffffffffffffffffffffffffff1916815260200190815260200160002060006101000a81548160ff0219169083151502179055506001600c6000506000632c388d5d60e01b7bffffffffffffffffffffffffffffffffffffffffffffffffffffffff19167bffffffffffffffffffffffffffffffffffffffffffffffffffffffff1916815260200190815260200160002060006101000a81548160ff0219169083151502179055506001600c6000506000634ac8c5ae60e01b7bffffffffffffffffffffffffffffffffffffffffffffffffffffffff19167bffffffffffffffffffffffffffffffffffffffffffffffffffffffff1916815260200190815260200160002060006101000a81548160ff0219169083151502179055506001600c600050600063e97dcb6260e01b7bffffffffffffffffffffffffffffffffffffffffffffffffffffffff19167bffffffffffffffffffffffffffffffffffffffffffffffffffffffff1916815260200190815260200160002060006101000a81548160ff0219169083151502179055506001600c600050600063e9fad8ee60e01b7bffffffffffffffffffffffffffffffffffffffffffffffffffffffff19167bffffffffffffffffffffffffffffffffffffffffffffffffffffffff1916815260200190815260200160002060006101000a81548160ff02191690831515021790555060016005600050600063eb02312060e01b7bffffffffffffffffffffffffffffffffffffffffffffffffffffffff19167bffffffffffffffffffffffffffffffffffffffffffffffffffffffff1916815260200190815260200160002060006101000a81548160ff0219169083151502179055505b565b600460009054906101000a900473ffffffffffffffffffffffffffffffffffffffff1673ffffffffffffffffffffffffffffffffffffffff1663e97dcb626040518163ffffffff1660e01b8152600401600060405180830381600087803b1580156124fa5760006000fd5b505af115801561250f573d600060003e3d6000fd5b5050505060026006600050541415151561255e576040517f08c379a000000000000000000000000000000000000000000000000000000000815260040161255590612ad4565b60405180910390fd5b600260066000508190909055505b565b600060009054906101000a900473ffffffffffffffffffffffffffffffffffffffff1673ffffffffffffffffffffffffffffffffffffffff163373ffffffffffffffffffffffffffffffffffffffff16141515612600576040517f08c379a00000000000000000000000000000000000000000000000000000000081526004016125f790612a95565b60405180910390fd5b5b565b60008180519060200120905080505b919050565b60016006600050819090905550600460009054906101000a900473ffffffffffffffffffffffffffffffffffffffff1673ffffffffffffffffffffffffffffffffffffffff1663e9fad8ee6040518163ffffffff1660e01b8152600401600060405180830381600087803b15801561268f5760006000fd5b505af11580156126a4573d600060003e3d6000fd5b505050505b565b600060008473ffffffffffffffffffffffffffffffffffffffff1663a9059cbb60e01b8585604051602401808373ffffffffffffffffffffffffffffffffffffffff16815260200182815260200192505050604051602081830303815290604052907bffffffffffffffffffffffffffffffffffffffffffffffffffffffff19166020820180517bffffffffffffffffffffffffffffffffffffffffffffffffffffffff83818316178352505050506040518082805190602001908083835b60208310151561279057805182525b60208201915060208101905060208303925061276a565b6001836020036101000a0380198251168184511680821785525050505050509050019150506000604051808303816000865af19150503d80600081146127f2576040519150601f19603f3d011682016040523d82523d6000602084013e6127f7565b606091505b5091509150818015612838575060008151148061283757508080602001905160208110156128255760006000fd5b81019080805190602001909291905050505b5b15156128af576040517f08c379a00000000000000000000000000000000000000000000000000000000081526004018080602001828103825260028152602001807f535400000000000000000000000000000000000000000000000000000000000081526020015060200191505060405180910390fd5b50505b505050565b60006128e3826128cb611a7b63ffffffff16565b67ffffffffffffffff166128ed90919063ffffffff16565b905080505b919050565b60008267ffffffffffffffff1682840191508167ffffffffffffffff1610151515612983576040517f08c379a000000000000000000000000000000000000000000000000000000000815260040180806020018281038252600c8152602001807f6164642d6f766572666c6f77000000000000000000000000000000000000000081526020015060200191505060405180910390fd5b5b92915050565b60006801000000000000000082101515612a0f576040517f08c379a00000000000000000000000000000000000000000000000000000000081526004018080602001828103825260118152602001807f6d6f7265207468616e203634206269747300000000000000000000000000000081526020015060200191505060405180910390fd5b819050612a17565b91905056612b3c565b600060208284031215612a31578081fd5b8151612a3c81612b13565b809150505b92915050565b600060208284031215612a58578081fd5b8151612a6381612b13565b809150505b92915050565b600060208284031215612a7f578081fd5b8151612a8a81612b13565b809150505b92915050565b600060208252600e60208301527f4e6f7420417574686f72697a656400000000000000000000000000000000000060408301526060820190505b919050565b600060208252600d60208301527f4c50205265656e7472616e63790000000000000000000000000000000000000060408301526060820190505b919050565b73ffffffffffffffffffffffffffffffffffffffff811681141515612b385760006000fd5b5b50565bfea26469706673582212209fdbbe39dd57f513e9d4d760d9a1a9372e2c672cdc34235644814f34ebd5f25664736f6c63430007060033",
  "linkReferences": {},
  "deployedLinkReferences": {}
}