{
  "_format": "hh-sol-artifact-1",
  "contractName": "RatesTestable",
  "sourceName": "contracts/mocks/RatesTestable.sol",
  "abi": [
    {
      "inputs": [],
      "stateMutability": "nonpayable",
      "type": "constructor"
    },
    {
      "anonymous": false,
      "inputs": [
        {
          "indexed": true,
          "internalType": "address",
          "name": "governor",
          "type": "address"
        }
      ],
      "name": "Initialized",
      "type": "event"
    },
    {
      "anonymous": false,
      "inputs": [
        {
          "indexed": true,
          "internalType": "string",
          "name": "paramName",
          "type": "string"
        },
        {
          "indexed": false,
          "internalType": "uint128",
          "name": "value",
          "type": "uint128"
        }
      ],
      "name": "ParameterUpdated128",
      "type": "event"
    },
    {
      "anonymous": false,
      "inputs": [
        {
          "indexed": true,
          "internalType": "string",
          "name": "paramName",
          "type": "string"
        },
        {
          "indexed": false,
          "internalType": "uint64",
          "name": "value",
          "type": "uint64"
        }
      ],
      "name": "ParameterUpdated64",
      "type": "event"
    },
    {
      "anonymous": false,
      "inputs": [
        {
          "indexed": true,
          "internalType": "string",
          "name": "paramName",
          "type": "string"
        },
        {
          "indexed": true,
          "internalType": "address",
          "name": "addr",
          "type": "address"
        }
      ],
      "name": "ParameterUpdatedAddress",
      "type": "event"
    },
    {
      "anonymous": false,
      "inputs": [
        {
          "indexed": true,
          "internalType": "string",
          "name": "paramName",
          "type": "string"
        },
        {
          "indexed": false,
          "internalType": "int128",
          "name": "value",
          "type": "int128"
        }
      ],
      "name": "ParameterUpdatedInt128",
      "type": "event"
    },
    {
      "anonymous": false,
      "inputs": [
        {
          "indexed": false,
          "internalType": "int256",
          "name": "interestRate",
          "type": "int256"
        },
        {
          "indexed": false,
          "internalType": "uint256",
          "name": "price",
          "type": "uint256"
        },
        {
          "indexed": false,
          "internalType": "uint256",
          "name": "rewardCount",
          "type": "uint256"
        },
        {
          "indexed": false,
          "internalType": "uint64",
          "name": "nextUpdateTime",
          "type": "uint64"
        }
      ],
      "name": "RateUpdated",
      "type": "event"
    },
    {
      "anonymous": false,
      "inputs": [],
      "name": "Stopped",
      "type": "event"
    },
    {
      "inputs": [
        {
          "internalType": "contract IUniswapV3Pool",
          "name": "pool",
          "type": "address"
        }
      ],
      "name": "addReferencePool",
      "outputs": [],
      "stateMutability": "nonpayable",
      "type": "function"
    },
    {
      "inputs": [
        {
          "internalType": "uint256[]",
          "name": "referencePrices",
          "type": "uint256[]"
        },
        {
          "internalType": "uint256",
          "name": "collateralPrice",
          "type": "uint256"
        }
      ],
      "name": "calculatePrice",
      "outputs": [
        {
          "internalType": "uint256",
          "name": "",
          "type": "uint256"
        }
      ],
      "stateMutability": "view",
      "type": "function"
    },
    {
      "inputs": [
        {
          "internalType": "int256",
          "name": "rate",
          "type": "int256"
        },
        {
          "components": [
            {
              "internalType": "uint128",
              "name": "acceptableError",
              "type": "uint128"
            },
            {
              "internalType": "uint128",
              "name": "errorInterval",
              "type": "uint128"
            },
            {
              "internalType": "uint128",
              "name": "interestRateStep",
              "type": "uint128"
            },
            {
              "internalType": "uint64",
              "name": "maxSteps",
              "type": "uint64"
            },
            {
              "internalType": "int128",
              "name": "minRate",
              "type": "int128"
            },
            {
              "internalType": "int128",
              "name": "maxRate",
              "type": "int128"
            }
          ],
          "internalType": "struct Rates.InterestRateParameters",
          "name": "rp",
          "type": "tuple"
        },
        {
          "internalType": "uint256",
          "name": "price",
          "type": "uint256"
        }
      ],
      "name": "calculateRate",
      "outputs": [
        {
          "internalType": "int256",
          "name": "",
          "type": "int256"
        }
      ],
      "stateMutability": "pure",
      "type": "function"
    },
    {
      "inputs": [
        {
          "components": [
            {
              "internalType": "int256",
              "name": "rate",
              "type": "int256"
            },
            {
              "internalType": "uint64",
              "name": "nextUpdateTime",
              "type": "uint64"
            },
            {
              "internalType": "uint128",
              "name": "rewardCount",
              "type": "uint128"
            }
          ],
          "internalType": "struct Rates.RateData",
          "name": "rd",
          "type": "tuple"
        },
        {
          "internalType": "uint64",
          "name": "currentTime",
          "type": "uint64"
        }
      ],
      "name": "calculateRewardCount",
      "outputs": [
        {
          "internalType": "uint256",
          "name": "",
          "type": "uint256"
        }
      ],
      "stateMutability": "pure",
      "type": "function"
    },
    {
      "inputs": [],
      "name": "collateralPool",
      "outputs": [
        {
          "internalType": "contract IUniswapV3Pool",
          "name": "",
          "type": "address"
        }
      ],
      "stateMutability": "view",
      "type": "function"
    },
    {
      "inputs": [
        {
          "internalType": "contract IUniswapV3Pool[]",
          "name": "pools",
          "type": "address[]"
        },
        {
          "internalType": "contract IUniswapV3Pool",
          "name": "pool",
          "type": "address"
        }
      ],
      "name": "contains",
      "outputs": [
        {
          "internalType": "bool",
          "name": "",
          "type": "bool"
        }
      ],
      "stateMutability": "pure",
      "type": "function"
    },
    {
      "inputs": [],
      "name": "currentRateData",
      "outputs": [
        {
          "internalType": "int256",
          "name": "rate",
          "type": "int256"
        },
        {
          "internalType": "uint64",
          "name": "nextUpdateTime",
          "type": "uint64"
        },
        {
          "internalType": "uint128",
          "name": "rewardCount",
          "type": "uint128"
        }
      ],
      "stateMutability": "view",
      "type": "function"
    },
    {
      "inputs": [],
      "name": "deployer",
      "outputs": [
        {
          "internalType": "address",
          "name": "",
          "type": "address"
        }
      ],
      "stateMutability": "view",
      "type": "function"
    },
    {
      "inputs": [
        {
          "internalType": "contract IUniswapV3Pool",
          "name": "_collateralPool",
          "type": "address"
        },
        {
          "internalType": "contract IUniswapV3Pool[]",
          "name": "_referencePools",
          "type": "address[]"
        }
      ],
      "name": "finalizeInitialization",
      "outputs": [],
      "stateMutability": "nonpayable",
      "type": "function"
    },
    {
      "inputs": [],
      "name": "getReferencePools",
      "outputs": [
        {
          "internalType": "contract IUniswapV3Pool[]",
          "name": "",
          "type": "address[]"
        }
      ],
      "stateMutability": "view",
      "type": "function"
    },
    {
      "inputs": [],
      "name": "getRewardCount",
      "outputs": [
        {
          "internalType": "uint256",
          "name": "",
          "type": "uint256"
        }
      ],
      "stateMutability": "view",
      "type": "function"
    },
    {
      "inputs": [],
      "name": "governor",
      "outputs": [
        {
          "internalType": "contract IGovernor",
          "name": "",
          "type": "address"
        }
      ],
      "stateMutability": "view",
      "type": "function"
    },
    {
      "inputs": [
        {
          "internalType": "contract IGovernor",
          "name": "_governor",
          "type": "address"
        }
      ],
      "name": "init",
      "outputs": [],
      "stateMutability": "nonpayable",
      "type": "function"
    },
    {
      "inputs": [],
      "name": "interestRateAbsoluteValue",
      "outputs": [
        {
          "internalType": "uint256",
          "name": "",
          "type": "uint256"
        }
      ],
      "stateMutability": "view",
      "type": "function"
    },
    {
      "inputs": [],
      "name": "interestRateParameters",
      "outputs": [
        {
          "internalType": "uint128",
          "name": "acceptableError",
          "type": "uint128"
        },
        {
          "internalType": "uint128",
          "name": "errorInterval",
          "type": "uint128"
        },
        {
          "internalType": "uint128",
          "name": "interestRateStep",
          "type": "uint128"
        },
        {
          "internalType": "uint64",
          "name": "maxSteps",
          "type": "uint64"
        },
        {
          "internalType": "int128",
          "name": "minRate",
          "type": "int128"
        },
        {
          "internalType": "int128",
          "name": "maxRate",
          "type": "int128"
        }
      ],
      "stateMutability": "view",
      "type": "function"
    },
    {
      "inputs": [
        {
          "internalType": "uint256[]",
          "name": "values",
          "type": "uint256[]"
        }
      ],
      "name": "median",
      "outputs": [
        {
          "internalType": "uint256",
          "name": "",
          "type": "uint256"
        }
      ],
      "stateMutability": "pure",
      "type": "function"
    },
    {
      "inputs": [],
      "name": "minTimeBetweenUpdates",
      "outputs": [
        {
          "internalType": "uint64",
          "name": "",
          "type": "uint64"
        }
      ],
      "stateMutability": "view",
      "type": "function"
    },
    {
      "inputs": [],
      "name": "positiveInterestRate",
      "outputs": [
        {
          "internalType": "bool",
          "name": "",
          "type": "bool"
        }
      ],
      "stateMutability": "view",
      "type": "function"
    },
    {
      "inputs": [],
      "name": "predictInterestRate",
      "outputs": [
        {
          "internalType": "uint256",
          "name": "price",
          "type": "uint256"
        },
        {
          "internalType": "int256",
          "name": "rate",
          "type": "int256"
        }
      ],
      "stateMutability": "view",
      "type": "function"
    },
    {
      "inputs": [
        {
          "internalType": "uint256",
          "name": "",
          "type": "uint256"
        }
      ],
      "name": "referencePools",
      "outputs": [
        {
          "internalType": "contract IUniswapV3Pool",
          "name": "",
          "type": "address"
        }
      ],
      "stateMutability": "view",
      "type": "function"
    },
    {
      "inputs": [
        {
          "internalType": "contract IUniswapV3Pool[]",
          "name": "pools",
          "type": "address[]"
        },
        {
          "internalType": "contract IUniswapV3Pool",
          "name": "pool",
          "type": "address"
        }
      ],
      "name": "removePoolFromPools",
      "outputs": [
        {
          "internalType": "contract IUniswapV3Pool[]",
          "name": "",
          "type": "address[]"
        }
      ],
      "stateMutability": "pure",
      "type": "function"
    },
    {
      "inputs": [
        {
          "internalType": "contract IUniswapV3Pool",
          "name": "pool",
          "type": "address"
        }
      ],
      "name": "removeReferencePool",
      "outputs": [],
      "stateMutability": "nonpayable",
      "type": "function"
    },
    {
      "inputs": [
        {
          "internalType": "uint128",
          "name": "error",
          "type": "uint128"
        }
      ],
      "name": "setAcceptableError",
      "outputs": [],
      "stateMutability": "nonpayable",
      "type": "function"
    },
    {
      "inputs": [
        {
          "internalType": "uint128",
          "name": "interval",
          "type": "uint128"
        }
      ],
      "name": "setErrorInterval",
      "outputs": [],
      "stateMutability": "nonpayable",
      "type": "function"
    },
    {
      "inputs": [
        {
          "internalType": "uint128",
          "name": "step",
          "type": "uint128"
        }
      ],
      "name": "setInterestRateStep",
      "outputs": [],
      "stateMutability": "nonpayable",
      "type": "function"
    },
    {
      "inputs": [
        {
          "internalType": "int128",
          "name": "max",
          "type": "int128"
        }
      ],
      "name": "setMaxRate",
      "outputs": [],
      "stateMutability": "nonpayable",
      "type": "function"
    },
    {
      "inputs": [
        {
          "internalType": "uint64",
          "name": "steps",
          "type": "uint64"
        }
      ],
      "name": "setMaxSteps",
      "outputs": [],
      "stateMutability": "nonpayable",
      "type": "function"
    },
    {
      "inputs": [
        {
          "internalType": "int128",
          "name": "min",
          "type": "int128"
        }
      ],
      "name": "setMinRate",
      "outputs": [],
      "stateMutability": "nonpayable",
      "type": "function"
    },
    {
      "inputs": [
        {
          "internalType": "uint64",
          "name": "time",
          "type": "uint64"
        }
      ],
      "name": "setMinTimeBetweenUpdates",
      "outputs": [],
      "stateMutability": "nonpayable",
      "type": "function"
    },
    {
      "inputs": [],
      "name": "stop",
      "outputs": [],
      "stateMutability": "nonpayable",
      "type": "function"
    },
    {
      "inputs": [],
      "name": "stopped",
      "outputs": [
        {
          "internalType": "bool",
          "name": "",
          "type": "bool"
        }
      ],
      "stateMutability": "view",
      "type": "function"
    },
    {
      "inputs": [],
      "name": "update",
      "outputs": [],
      "stateMutability": "nonpayable",
      "type": "function"
    },
    {
      "inputs": [
        {
          "internalType": "bytes4",
          "name": "",
          "type": "bytes4"
        }
      ],
      "name": "validUpdate",
      "outputs": [
        {
          "internalType": "bool",
          "name": "",
          "type": "bool"
        }
      ],
      "stateMutability": "view",
      "type": "function"
    }
  ],
  "bytecode": "0x60a06040526001600660005090905562014a78600760006101000a81548167ffffffffffffffff021916908367ffffffffffffffff1602179055503480156100475760006000fd5b505b60005b5b33600160006101000a81548173ffffffffffffffffffffffffffffffffffffffff021916908373ffffffffffffffffffffffffffffffffffffffff1602179055505b8073ffffffffffffffffffffffffffffffffffffffff1660808173ffffffffffffffffffffffffffffffffffffffff1660601b815260140150505b505b6100d1565b60805160601c614dda620000ef600039806135cc5250614dda6000f3fe60806040523480156100115760006000fd5b50600436106102105760003560e01c80637e7e8eec1161012b578063bf5d5ae3116100be578063d3ab38881161008d578063ee47304d11610072578063ee47304d146105f8578063eec3f6f114610614578063ff0eccf61461063057610210565b8063d3ab3888146105be578063d5f39488146105da57610210565b8063bf5d5ae314610512578063c381c1e614610542578063ce62a3bf1461055e578063ceec5d6f1461058e57610210565b8063a0fc0eda116100fa578063a0fc0eda146104b0578063a2e62045146104ce578063ab658be2146104d8578063bc22cf5c146104f657610210565b80637e7e8eec1461042357806380ddbdb41461044157806384333cc71461045d57806395563b471461048d57610210565b806319ab453c116101a35780635fd019ad116101725780635fd019ad146103af5780636d7fa664146103cb5780636e16ead2146103e957806375f12b211461040557610210565b806319ab453c146103275780631f244faf146103435780633da80d66146103635780635d8350b41461039357610210565b80631268d3be116101df5780631268d3be1461029e578063150147d7146102ce578063178d1226146102ea57806319a6e9e61461030957610210565b806307da68f5146102165780630c340a2414610220578063113cf1ab1461023e57806311994c291461026e57610210565b60006000fd5b61021e61064e565b005b61022861066e565b604051610235919061484f565b60405180910390f35b610258600480360381019061025391906141ed565b610694565b604051610265919061483b565b60405180910390f35b610288600480360381019061028391906144b3565b6106b9565b6040516102959190614ca0565b60405180910390f35b6102b860048036038101906102b39190614179565b6106d8565b6040516102c59190614ca0565b60405180910390f35b6102e860048036038101906102e391906142fd565b6106f7565b005b6102f2610860565b604051610300929190614cb2565b60405180910390f35b610311610cc0565b60405161031e9190614ccb565b60405180910390f35b610341600480360381019061033c9190614261565b610cda565b005b61034b6110ec565b60405161035a9392919061496d565b60405180910390f35b61037d6004803603810190610378919061407c565b61113a565b60405161038a919061483b565b60405180910390f35b6103ad60048036038101906103a89190614592565b611159565b005b6103c960048036038101906103c49190614537565b611210565b005b6103d36112f4565b6040516103e0919061483b565b60405180910390f35b61040360048036038101906103fe9190614537565b611310565b005b61040d6113d6565b60405161041a919061483b565b60405180910390f35b61042b6113e9565b6040516104389190614ca0565b60405180910390f35b61045b60048036038101906104569190614537565b6114ad565b005b6104776004803603810190610472919061455a565b611573565b6040516104849190614877565b60405180910390f35b6104956115b9565b6040516104a796959493929190614c43565b60405180910390f35b6104b8611668565b6040516104c59190614ca0565b60405180910390f35b6104d6611699565b005b6104e0611e03565b6040516104ed91906147d7565b60405180910390f35b610510600480360381019061050b9190614324565b611e99565b005b61052c6004803603810190610527919061407c565b61218f565b60405161053991906147d7565b60405180910390f35b61055c600480360381019061055791906142fd565b6121ae565b005b6105786004803603810190610573919061413c565b61236a565b6040516105859190614ca0565b60405180910390f35b6105a860048036038101906105a391906143d0565b612387565b6040516105b59190614918565b60405180910390f35b6105d860048036038101906105d39190614592565b6123a8565b005b6105e2612435565b6040516105ef919061476e565b60405180910390f35b610612600480360381019061060d91906143ad565b61245b565b005b61062e600480360381019061062991906143ad565b612525565b005b6106386125ef565b6040516106459190614877565b60405180910390f35b61065c61261563ffffffff16565b61066a6126aa63ffffffff16565b5b5b565b600060009054906101000a900473ffffffffffffffffffffffffffffffffffffffff1681565b600560005060205280600052604060002060009150909054906101000a900460ff1681565b60006106cb83836126f463ffffffff16565b90506106d2565b92915050565b60006106ea83836127d363ffffffff16565b90506106f1565b92915050565b61070561261563ffffffff16565b6001600d60005080549050111515610752576040517f08c379a000000000000000000000000000000000000000000000000000000000815260040161074990614b62565b60405180910390fd5b6107eb600d6000508054806020026020016040519081016040528092919081815260200182805480156107da57602002820191906000526020600020905b8160009054906101000a900473ffffffffffffffffffffffffffffffffffffffff1673ffffffffffffffffffffffffffffffffffffffff1681526020019060010190808311610790575b50505050508261281e63ffffffff16565b600d6000509080519060200190610803929190613e2d565b508073ffffffffffffffffffffffffffffffffffffffff16604051610827906146aa565b60405180910390207f78caada2f560033c9479d8c5e33f045f2e611faebe6b6d8a73874c80ec2dd3a260405160405180910390a35b5b50565b600060006000600060009054906101000a900473ffffffffffffffffffffffffffffffffffffffff1673ffffffffffffffffffffffffffffffffffffffff1663d3419bf36040518163ffffffff1660e01b815260040160206040518083038186803b1580156108cf5760006000fd5b505afa1580156108e4573d600060003e3d6000fd5b505050506040513d601f19601f8201168201806040525081019061090891906142af565b90506000600d60005080549050905060008167ffffffffffffffff811180156109315760006000fd5b506040519080825280602002602001820160405280156109605781602001602082028036833780820191505090505b5090506000600090505b82811015610a6b578373ffffffffffffffffffffffffffffffffffffffff16633c63a9cd600d600050838154811015156109a057fe5b906000526020600020900160005b9054906101000a900473ffffffffffffffffffffffffffffffffffffffff1660016040518363ffffffff1660e01b81526004016109ec9291906148d2565b60206040518083038186803b158015610a055760006000fd5b505afa158015610a1a573d600060003e3d6000fd5b505050506040513d601f19601f82011682018060405250810190610a3e9190614576565b8282815181101515610a4c57fe5b60200260200101909081815260200150505b808060010191505061096a565b50610b2b818473ffffffffffffffffffffffffffffffffffffffff16633c63a9cd600e60009054906101000a900473ffffffffffffffffffffffffffffffffffffffff1660016040518363ffffffff1660e01b8152600401610ace9291906148d2565b60206040518083038186803b158015610ae75760006000fd5b505afa158015610afc573d600060003e3d6000fd5b505050506040513d601f19601f82011682018060405250810190610b209190614576565b6127d363ffffffff16565b94508450610ca7600b6000506000016000505460086000506040518060c00160405290816000820160009054906101000a90046fffffffffffffffffffffffffffffffff166fffffffffffffffffffffffffffffffff166fffffffffffffffffffffffffffffffff1681526020016000820160109054906101000a90046fffffffffffffffffffffffffffffffff166fffffffffffffffffffffffffffffffff166fffffffffffffffffffffffffffffffff1681526020016001820160009054906101000a90046fffffffffffffffffffffffffffffffff166fffffffffffffffffffffffffffffffff166fffffffffffffffffffffffffffffffff1681526020016001820160109054906101000a900467ffffffffffffffff1667ffffffffffffffff1667ffffffffffffffff1681526020016002820160009054906101000a9004600f0b600f0b600f0b81526020016002820160109054906101000a9004600f0b600f0b600f0b81526020015050876129a863ffffffff16565b93508350848494509450505050610cbc565050505b9091565b600760009054906101000a900467ffffffffffffffff1681565b600160009054906101000a900473ffffffffffffffffffffffffffffffffffffffff1673ffffffffffffffffffffffffffffffffffffffff163373ffffffffffffffffffffffffffffffffffffffff16141515610d375760006000fd5b600160159054906101000a900460ff16151515610d545760006000fd5b80600060006101000a81548173ffffffffffffffffffffffffffffffffffffffff021916908373ffffffffffffffffffffffffffffffffffffffff160217905550600060009054906101000a900473ffffffffffffffffffffffffffffffffffffffff1673ffffffffffffffffffffffffffffffffffffffff16639624e83e6040518163ffffffff1660e01b815260040160206040518083038186803b158015610dfe5760006000fd5b505afa158015610e13573d600060003e3d6000fd5b505050506040513d601f19601f82011682018060405250810190610e37919061423a565b600260006101000a81548173ffffffffffffffffffffffffffffffffffffffff021916908373ffffffffffffffffffffffffffffffffffffffff160217905550600060009054906101000a900473ffffffffffffffffffffffffffffffffffffffff1673ffffffffffffffffffffffffffffffffffffffff1663323741746040518163ffffffff1660e01b815260040160206040518083038186803b158015610ee05760006000fd5b505afa158015610ef5573d600060003e3d6000fd5b505050506040513d601f19601f82011682018060405250810190610f199190614288565b600360006101000a81548173ffffffffffffffffffffffffffffffffffffffff021916908373ffffffffffffffffffffffffffffffffffffffff160217905550600060009054906101000a900473ffffffffffffffffffffffffffffffffffffffff1673ffffffffffffffffffffffffffffffffffffffff1663d478b0876040518163ffffffff1660e01b815260040160206040518083038186803b158015610fc25760006000fd5b505afa158015610fd7573d600060003e3d6000fd5b505050506040513d601f19601f82011682018060405250810190610ffb91906142d6565b600460006101000a81548173ffffffffffffffffffffffffffffffffffffffff021916908373ffffffffffffffffffffffffffffffffffffffff160217905550611049612b2063ffffffff16565b600160149054906101000a900460ff16151561108957600160006101000a81549073ffffffffffffffffffffffffffffffffffffffff02191690556110a5565b6001600160156101000a81548160ff0219169083151502179055505b8073ffffffffffffffffffffffffffffffffffffffff167f908408e307fc569b417f6cbec5d5a06f44a0a505ac0479b47d421a4b2fd6a1e660405160405180910390a25b50565b600b6000508060000160005054908060010160009054906101000a900467ffffffffffffffff16908060010160089054906101000a90046fffffffffffffffffffffffffffffffff16905083565b600061114c838361313663ffffffff16565b9050611153565b92915050565b61116761261563ffffffff16565b80600760006101000a81548167ffffffffffffffff021916908367ffffffffffffffff1602179055506000600760009054906101000a900467ffffffffffffffff1667ffffffffffffffff161115156111c05760006000fd5b6040516111cc90614648565b60405180910390207f6293347933ad2997134e224ac8cd2e39908a4a22aeed9af52127b4bbf7652978826040516112039190614ccb565b60405180910390a25b5b50565b61121e61261563ffffffff16565b806fffffffffffffffffffffffffffffffff1660001080156112595750670de0b6b3a7640000816fffffffffffffffffffffffffffffffff16105b15156112655760006000fd5b80600860005060000160106101000a8154816fffffffffffffffffffffffffffffffff02191690836fffffffffffffffffffffffffffffffff1602179055506040516112b0906145e6565b60405180910390207ff92f7fc8addd796154d83393012a119e212b31cb3dc9776133129db4c5747fcc826040516112e79190614c1f565b60405180910390a25b5b50565b60006000600b600050600001600050541215905061130d565b90565b61131e61261563ffffffff16565b670de0b6b3a7640000816fffffffffffffffffffffffffffffffff161015156113475760006000fd5b80600860005060010160006101000a8154816fffffffffffffffffffffffffffffffff02191690836fffffffffffffffffffffffffffffffff160217905550604051611392906146db565b60405180910390207ff92f7fc8addd796154d83393012a119e212b31cb3dc9776133129db4c5747fcc826040516113c99190614c1f565b60405180910390a25b5b50565b600060149054906101000a900460ff1681565b60006114a3600b600050604051806060016040529081600082016000505481526020016001820160009054906101000a900467ffffffffffffffff1667ffffffffffffffff1667ffffffffffffffff1681526020016001820160089054906101000a90046fffffffffffffffffffffffffffffffff166fffffffffffffffffffffffffffffffff166fffffffffffffffffffffffffffffffff16815260200150506114986131b963ffffffff16565b6126f463ffffffff16565b90506114aa565b90565b6114bb61261563ffffffff16565b670de0b6b3a7640000816fffffffffffffffffffffffffffffffff161015156114e45760006000fd5b80600860005060000160006101000a8154816fffffffffffffffffffffffffffffffff02191690836fffffffffffffffffffffffffffffffff16021790555060405161152f90614617565b60405180910390207ff92f7fc8addd796154d83393012a119e212b31cb3dc9776133129db4c5747fcc826040516115669190614c1f565b60405180910390a25b5b50565b600d600050818154811061158657600080fd5b906000526020600020900160005b9150909054906101000a900473ffffffffffffffffffffffffffffffffffffffff1681565b60086000508060000160009054906101000a90046fffffffffffffffffffffffffffffffff16908060000160109054906101000a90046fffffffffffffffffffffffffffffffff16908060010160009054906101000a90046fffffffffffffffffffffffffffffffff16908060010160109054906101000a900467ffffffffffffffff16908060020160009054906101000a9004600f0b908060020160109054906101000a9004600f0b905086565b60006000600b60005060000160005054905060008112611688578061168d565b806000035b91505061169656505b90565b6116a76131d463ffffffff16565b6116b56132b363ffffffff16565b6000600b600050604051806060016040529081600082016000505481526020016001820160009054906101000a900467ffffffffffffffff1667ffffffffffffffff1667ffffffffffffffff1681526020016001820160089054906101000a90046fffffffffffffffffffffffffffffffff166fffffffffffffffffffffffffffffffff166fffffffffffffffffffffffffffffffff168152602001505090506117636131b963ffffffff16565b67ffffffffffffffff16816020015167ffffffffffffffff16111515156117bf576040517f08c379a00000000000000000000000000000000000000000000000000000000081526004016117b690614b23565b60405180910390fd5b6000600060009054906101000a900473ffffffffffffffffffffffffffffffffffffffff1673ffffffffffffffffffffffffffffffffffffffff1663d3419bf36040518163ffffffff1660e01b815260040160206040518083038186803b15801561182a5760006000fd5b505afa15801561183f573d600060003e3d6000fd5b505050506040513d601f19601f8201168201806040525081019061186391906142af565b90506000600d60005080549050905060008167ffffffffffffffff8111801561188c5760006000fd5b506040519080825280602002602001820160405280156118bb5781602001602082028036833780820191505090505b5090506000600090505b828110156119c5578373ffffffffffffffffffffffffffffffffffffffff1663ce403c13600d600050838154811015156118fb57fe5b906000526020600020900160005b9054906101000a900473ffffffffffffffffffffffffffffffffffffffff166040518263ffffffff1660e01b81526004016119449190614877565b602060405180830381600087803b15801561195f5760006000fd5b505af1158015611974573d600060003e3d6000fd5b505050506040513d601f19601f820116820180604052508101906119989190614576565b82828151811015156119a657fe5b60200260200101909081815260200150505b80806001019150506118c5565b506000611a86828573ffffffffffffffffffffffffffffffffffffffff1663ce403c13600e60009054906101000a900473ffffffffffffffffffffffffffffffffffffffff166040518263ffffffff1660e01b8152600401611a279190614877565b602060405180830381600087803b158015611a425760006000fd5b505af1158015611a57573d600060003e3d6000fd5b505050506040513d601f19601f82011682018060405250810190611a7b9190614576565b6127d363ffffffff16565b905060006040518060600160405280611c06886000015160086000506040518060c00160405290816000820160009054906101000a90046fffffffffffffffffffffffffffffffff166fffffffffffffffffffffffffffffffff166fffffffffffffffffffffffffffffffff1681526020016000820160109054906101000a90046fffffffffffffffffffffffffffffffff166fffffffffffffffffffffffffffffffff166fffffffffffffffffffffffffffffffff1681526020016001820160009054906101000a90046fffffffffffffffffffffffffffffffff166fffffffffffffffffffffffffffffffff166fffffffffffffffffffffffffffffffff1681526020016001820160109054906101000a900467ffffffffffffffff1667ffffffffffffffff1667ffffffffffffffff1681526020016002820160009054906101000a9004600f0b600f0b600f0b81526020016002820160109054906101000a9004600f0b600f0b600f0b81526020015050866129a863ffffffff16565b8152602001611c30600760009054906101000a900467ffffffffffffffff166133a863ffffffff16565b67ffffffffffffffff168152602001611c6c611c5f89611c546131b963ffffffff16565b6126f463ffffffff16565b6133de909063ffffffff16565b6fffffffffffffffffffffffffffffffff16815260200150905080600b60005060008201518160000160005090905560208201518160010160006101000a81548167ffffffffffffffff021916908367ffffffffffffffff16021790555060408201518160010160086101000a8154816fffffffffffffffffffffffffffffffff02191690836fffffffffffffffffffffffffffffffff160217905550905050600060009054906101000a900473ffffffffffffffffffffffffffffffffffffffff1673ffffffffffffffffffffffffffffffffffffffff1663ef7a7cfa3383604001516040518363ffffffff1660e01b8152600401611d6d929190614796565b600060405180830381600087803b158015611d885760006000fd5b505af1158015611d9d573d600060003e3d6000fd5b505050507f9f912bcb7b057a4f10fbbee5785670aecb2ab545144237646e17398d55de72dc81600001518383604001518460200151604051611de2949392919061492a565b60405180910390a15050505050505b5b611e0061347863ffffffff16565b5b565b6060600d600050805480602002602001604051908101604052809291908181526020018280548015611e8a57602002820191906000526020600020905b8160009054906101000a900473ffffffffffffffffffffffffffffffffffffffff1673ffffffffffffffffffffffffffffffffffffffff1681526020019060010190808311611e40575b50505050509050611e96565b90565b600160149054906101000a900460ff168015611ec15750600160159054906101000a900460ff165b8015611f1a5750600160009054906101000a900473ffffffffffffffffffffffffffffffffffffffff1673ffffffffffffffffffffffffffffffffffffffff163373ffffffffffffffffffffffffffffffffffffffff16145b1515611f265760006000fd5b600160006101000a81549073ffffffffffffffffffffffffffffffffffffffff0219169055600160156101000a81549060ff02191690556000828290509050600081111515611f755760006000fd5b600060009054906101000a900473ffffffffffffffffffffffffffffffffffffffff1673ffffffffffffffffffffffffffffffffffffffff1663d3419bf36040518163ffffffff1660e01b815260040160206040518083038186803b158015611fde5760006000fd5b505afa158015611ff3573d600060003e3d6000fd5b505050506040513d601f19601f8201168201806040525081019061201791906142af565b73ffffffffffffffffffffffffffffffffffffffff1663532cec7c856040518263ffffffff1660e01b815260040161204f9190614877565b60206040518083038186803b1580156120685760006000fd5b505afa15801561207d573d600060003e3d6000fd5b505050506040513d601f19601f820116820180604052508101906120a191906141c0565b15156120e2576040517f08c379a00000000000000000000000000000000000000000000000000000000081526004016120d990614a27565b60405180910390fd5b6000600090505b8181101561213057612122848483818110151561210257fe5b905060200201602081019061211791906142fd565b61350c63ffffffff16565b5b80806001019150506120e9565b5083600e60006101000a81548173ffffffffffffffffffffffffffffffffffffffff021916908373ffffffffffffffffffffffffffffffffffffffff1602179055508282600d6000509190612186929190613eb7565b50505b5b505050565b60606121a1838361281e63ffffffff16565b90506121a8565b92915050565b6121bc61261563ffffffff16565b612255600d60005080548060200260200160405190810160405280929190818152602001828054801561224457602002820191906000526020600020905b8160009054906101000a900473ffffffffffffffffffffffffffffffffffffffff1673ffffffffffffffffffffffffffffffffffffffff16815260200190600101908083116121fa575b50505050508261313663ffffffff16565b151515612297576040517f08c379a000000000000000000000000000000000000000000000000000000000815260040161228e90614ba1565b60405180910390fd5b6122a68161350c63ffffffff16565b600d60005081908060018154018082558091505060019003906000526020600020900160005b9091909190916101000a81548173ffffffffffffffffffffffffffffffffffffffff021916908373ffffffffffffffffffffffffffffffffffffffff1602179055508073ffffffffffffffffffffffffffffffffffffffff166040516123319061470c565b60405180910390207f78caada2f560033c9479d8c5e33f045f2e611faebe6b6d8a73874c80ec2dd3a260405160405180910390a35b5b50565b600061237b8261364063ffffffff16565b9050612382565b919050565b600061239a8484846129a863ffffffff16565b90506123a1565b9392505050565b6123b661261563ffffffff16565b80600860005060010160106101000a81548167ffffffffffffffff021916908367ffffffffffffffff1602179055506040516123f1906145b5565b60405180910390207f6293347933ad2997134e224ac8cd2e39908a4a22aeed9af52127b4bbf7652978826040516124289190614ccb565b60405180910390a25b5b50565b600160009054906101000a900473ffffffffffffffffffffffffffffffffffffffff1681565b61246961261563ffffffff16565b600860005060020160109054906101000a9004600f0b600f0b81600f0b1215156124935760006000fd5b80600860005060020160006101000a8154816fffffffffffffffffffffffffffffffff0219169083600f0b6fffffffffffffffffffffffffffffffff1602179055506040516124e19061473d565b60405180910390207f73372e841856ef3f75f5070dea5fbba697b24bf1b513158c125d0c7bbcc62fd2826040516125189190614903565b60405180910390a25b5b50565b61253361261563ffffffff16565b80600f0b600860005060020160009054906101000a9004600f0b600f0b12151561255d5760006000fd5b80600860005060020160106101000a8154816fffffffffffffffffffffffffffffffff0219169083600f0b6fffffffffffffffffffffffffffffffff1602179055506040516125ab90614679565b60405180910390207f73372e841856ef3f75f5070dea5fbba697b24bf1b513158c125d0c7bbcc62fd2826040516125e29190614903565b60405180910390a25b5b50565b600e60009054906101000a900473ffffffffffffffffffffffffffffffffffffffff1681565b600060009054906101000a900473ffffffffffffffffffffffffffffffffffffffff1673ffffffffffffffffffffffffffffffffffffffff163373ffffffffffffffffffffffffffffffffffffffff161415156126a7576040517f08c379a000000000000000000000000000000000000000000000000000000000815260040161269e90614a66565b60405180910390fd5b5b565b6001600060146101000a81548160ff0219169083151502179055507f7acc84e34091ae817647a4c49116f5cc07f319078ba80f8f5fde37ea7e25cbd660405160405180910390a15b565b6000826020015167ffffffffffffffff168267ffffffffffffffff1611151561272057600090506127cd565b6000600284604001516fffffffffffffffffffffffffffffffff1681151561274457fe5b046fffffffffffffffffffffffffffffffff16905060006127828560200151850367ffffffffffffffff16610708846138c39092919063ffffffff16565b820190506127c26127b3600587604001516fffffffffffffffffffffffffffffffff166139c490919063ffffffff16565b82613a6290919063ffffffff16565b925050506127cd5650505b92915050565b6000816127e58461364063ffffffff16565b760a70c3c40a64e6c51999090b65f67d924000000000000081151561280657fe5b0481151561281057fe5b049050612818565b92915050565b6060612830838361313663ffffffff16565b1515612871576040517f08c379a0000000000000000000000000000000000000000000000000000000008152600401612868906149e8565b60405180910390fd5b6000600184510367ffffffffffffffff8111801561288f5760006000fd5b506040519080825280602002602001820160405280156128be5781602001602082028036833780820191505090505b50905060006000600090505b8551811015612995578473ffffffffffffffffffffffffffffffffffffffff1686828151811015156128f857fe5b602002602001015173ffffffffffffffffffffffffffffffffffffffff1614151561298757858181518110151561292b57fe5b6020026020010151838381518110151561294157fe5b602002602001019073ffffffffffffffffffffffffffffffffffffffff16908173ffffffffffffffffffffffffffffffffffffffff168152602001505081806001019250505b5b80806001019150506128ca565b5081925050506129a25650505b92915050565b60006000670de0b6b3a7640000831090506000816129d057670de0b6b3a764000084036129dc565b83670de0b6b3a7640000035b905084600001516fffffffffffffffffffffffffffffffff1681101515612ad5576000612a54612a47600188602001516fffffffffffffffffffffffffffffffff1685811515612a2857fe5b0401886060015167ffffffffffffffff16613a6290919063ffffffff16565b613a80909063ffffffff16565b67ffffffffffffffff1690506000612a9b612a8e8389604001516fffffffffffffffffffffffffffffffff166139c490919063ffffffff16565b613b12909063ffffffff16565b905083612aba57612ab58189613bbb90919063ffffffff16565b612ace565b612acd8189613c5290919063ffffffff16565b5b9750875050505b8460800151600f0b861215612af1578460800151600f0b955085505b8460a00151600f0b861315612b0d578460a00151600f0b955085505b8592505050612b195650505b9392505050565b6040518060c0016040528066038d7ea4c680006fffffffffffffffffffffffffffffffff1681526020016611c37937e080006fffffffffffffffffffffffffffffffff1681526020016611c37937e080006fffffffffffffffffffffffffffffffff168152602001600567ffffffffffffffff1681526020017ffffffffffffffffffffffffffffffffffffffffffffffffffdeb17cb73b10000600f0b81526020016706f05b59d3b20000600f0b815260200150600860005060008201518160000160006101000a8154816fffffffffffffffffffffffffffffffff02191690836fffffffffffffffffffffffffffffffff16021790555060208201518160000160106101000a8154816fffffffffffffffffffffffffffffffff02191690836fffffffffffffffffffffffffffffffff16021790555060408201518160010160006101000a8154816fffffffffffffffffffffffffffffffff02191690836fffffffffffffffffffffffffffffffff16021790555060608201518160010160106101000a81548167ffffffffffffffff021916908367ffffffffffffffff16021790555060808201518160020160006101000a8154816fffffffffffffffffffffffffffffffff0219169083600f0b6fffffffffffffffffffffffffffffffff16021790555060a08201518160020160106101000a8154816fffffffffffffffffffffffffffffffff0219169083600f0b6fffffffffffffffffffffffffffffffff160217905550905050604051806060016040528066b1a2bc2ec500008152602001612da4600760009054906101000a900467ffffffffffffffff16612d8c6131b963ffffffff16565b67ffffffffffffffff16613ce990919063ffffffff16565b67ffffffffffffffff16815260200168056bc75e2d631000006fffffffffffffffffffffffffffffffff16815260200150600b60005060008201518160000160005090905560208201518160010160006101000a81548167ffffffffffffffff021916908367ffffffffffffffff16021790555060408201518160010160086101000a8154816fffffffffffffffffffffffffffffffff02191690836fffffffffffffffffffffffffffffffff16021790555090505060006040518060e001604052806380ddbdb460e01b7bffffffffffffffffffffffffffffffffffffffffffffffffffffffff19167bffffffffffffffffffffffffffffffffffffffffffffffffffffffff19168152602001635fd019ad60e01b7bffffffffffffffffffffffffffffffffffffffffffffffffffffffff19167bffffffffffffffffffffffffffffffffffffffffffffffffffffffff19168152602001636e16ead260e01b7bffffffffffffffffffffffffffffffffffffffffffffffffffffffff19167bffffffffffffffffffffffffffffffffffffffffffffffffffffffff19168152602001635d8350b460e01b7bffffffffffffffffffffffffffffffffffffffffffffffffffffffff19167bffffffffffffffffffffffffffffffffffffffffffffffffffffffff1916815260200163d3ab388860e01b7bffffffffffffffffffffffffffffffffffffffffffffffffffffffff19167bffffffffffffffffffffffffffffffffffffffffffffffffffffffff1916815260200163ee47304d60e01b7bffffffffffffffffffffffffffffffffffffffffffffffffffffffff19167bffffffffffffffffffffffffffffffffffffffffffffffffffffffff1916815260200163eec3f6f160e01b7bffffffffffffffffffffffffffffffffffffffffffffffffffffffff19167bffffffffffffffffffffffffffffffffffffffffffffffffffffffff191681526020015090506000600090505b815060078110156131165760016005600050600084846007811015156130a057fe5b60200201517bffffffffffffffffffffffffffffffffffffffffffffffffffffffff19167bffffffffffffffffffffffffffffffffffffffffffffffffffffffff1916815260200190815260200160002060006101000a81548160ff0219169083151502179055505b808060010191505061307e565b506001600160146101000a81548160ff021916908315150217905550505b565b60006000600090505b83518110156131a9578273ffffffffffffffffffffffffffffffffffffffff16848281518110151561316d57fe5b602002602001015173ffffffffffffffffffffffffffffffffffffffff16141561319b5760019150506131b3565b5b808060010191505061313f565b50600090506131b3565b92915050565b60006131cc42613a80909063ffffffff16565b905080505b90565b600460009054906101000a900473ffffffffffffffffffffffffffffffffffffffff1673ffffffffffffffffffffffffffffffffffffffff1663e97dcb626040518163ffffffff1660e01b8152600401600060405180830381600087803b15801561323f5760006000fd5b505af1158015613254573d600060003e3d6000fd5b505050506002600660005054141515156132a3576040517f08c379a000000000000000000000000000000000000000000000000000000000815260040161329a90614aa5565b60405180910390fd5b600260066000508190909055505b565b6132c1613d8663ffffffff16565b600060009054906101000a900473ffffffffffffffffffffffffffffffffffffffff1673ffffffffffffffffffffffffffffffffffffffff1663bf86d6906040518163ffffffff1660e01b815260040160206040518083038186803b15801561332a5760006000fd5b505afa15801561333f573d600060003e3d6000fd5b505050506040513d601f19601f8201168201806040525081019061336391906141c0565b1515156133a5576040517f08c379a000000000000000000000000000000000000000000000000000000000815260040161339c906149a9565b60405180910390fd5b5b565b60006133d4826133bc6131b963ffffffff16565b67ffffffffffffffff16613ce990919063ffffffff16565b905080505b919050565b60007001000000000000000000000000000000008210151561346b576040517f08c379a00000000000000000000000000000000000000000000000000000000081526004018080602001828103825260128152602001807f6d6f7265207468616e203132382062697473000000000000000000000000000081526020015060200191505060405180910390fd5b819050613473565b919050565b60016006600050819090905550600460009054906101000a900473ffffffffffffffffffffffffffffffffffffffff1673ffffffffffffffffffffffffffffffffffffffff1663e9fad8ee6040518163ffffffff1660e01b8152600401600060405180830381600087803b1580156134f05760006000fd5b505af1158015613505573d600060003e3d6000fd5b505050505b565b600060009054906101000a900473ffffffffffffffffffffffffffffffffffffffff1673ffffffffffffffffffffffffffffffffffffffff1663d3419bf36040518163ffffffff1660e01b815260040160206040518083038186803b1580156135755760006000fd5b505afa15801561358a573d600060003e3d6000fd5b505050506040513d601f19601f820116820180604052508101906135ae91906142af565b73ffffffffffffffffffffffffffffffffffffffff1663a6c26a0c827f00000000000000000000000000000000000000000000000000000000000000006040518363ffffffff1660e01b815260040161360892919061489f565b600060405180830381600087803b1580156136235760006000fd5b505af1158015613638573d600060003e3d6000fd5b505050505b50565b600060008251905060008111151561368d576040517f08c379a000000000000000000000000000000000000000000000000000000000815260040161368490614ae4565b60405180910390fd5b6000600060005b6002841115613840578560008151811015156136ac57fe5b6020026020010151915081508560008151811015156136c757fe5b6020026020010151905080506000600190505b848110156137265786818151811015156136f057fe5b6020026020010151935083508284101561370a5783925082505b818411156137185783915081505b5b80806001019150506136da565b508082141561373b57819450505050506138be565b60006002850367ffffffffffffffff811180156137585760006000fd5b506040519080825280602002602001820160405280156137875781602001602082028036833780820191505090505b5090506000600060006000600090505b88811015613829578a818151811015156137ad57fe5b60200260200101519750875086881480156137c6575081155b156137d65760019150815061381b565b85881480156137e3575082155b156137f35760019250825061381a565b87858580600101965081518110151561380857fe5b60200260200101909081815260200150505b5b5b8080600101915050613797565b506002880397508750839950895050505050613694565b600184141561386f5785600081518110151561385857fe5b60200260200101519450505050506138be566138b9565b6138ae86600181518110151561388157fe5b602002602001015187600081518110151561389857fe5b6020026020010151613ddb90919063ffffffff16565b9450505050506138be565b505050505b919050565b6000600060006000198587098587029250828110838203039150506000811415613906576000841115156138f75760006000fd5b838204925082925050506139bd565b80841115156139155760006000fd5b60008486880990508281118203915080830392506000858660000316905080860495508084049350600181826000030401905080830284179350835060006002876003021890508087026002038102905080508087026002038102905080508087026002038102905080508087026002038102905080508087026002038102905080508087026002038102905080508085029550855085955050505050506139bd5650505050505b9392505050565b600060008214806139e4575082828385029250828115156139e157fe5b04145b1515613a5b576040517f08c379a000000000000000000000000000000000000000000000000000000000815260040180806020018281038252600c8152602001807f6d756c2d6f766572666c6f77000000000000000000000000000000000000000081526020015060200191505060405180910390fd5b5b92915050565b6000818310613a715781613a73565b825b9050613a7a565b92915050565b60006801000000000000000082101515613b05576040517f08c379a00000000000000000000000000000000000000000000000000000000081526004018080602001828103825260118152602001807f6d6f7265207468616e203634206269747300000000000000000000000000000081526020015060200191505060405180910390fd5b819050613b0d565b919050565b60007f800000000000000000000000000000000000000000000000000000000000000082101515613bae576040517f08c379a00000000000000000000000000000000000000000000000000000000081526004018080602001828103825260128152602001807f746f6f2062696720666f7220696e74323536000000000000000000000000000081526020015060200191505060405180910390fd5b819050613bb6565b919050565b60006000828403905060008312158015613bd55750838113155b80613beb5750600083128015613bea57508381135b5b1515613c42576040517f08c379a0000000000000000000000000000000000000000000000000000000008152600401808060200182810382526024815260200180614d816024913960400191505060405180910390fd5b80915050613c4c56505b92915050565b60006000828401905060008312158015613c6c5750838112155b80613c825750600083128015613c8157508381125b5b1515613cd9576040517f08c379a0000000000000000000000000000000000000000000000000000000008152600401808060200182810382526021815260200180614d606021913960400191505060405180910390fd5b80915050613ce356505b92915050565b60008267ffffffffffffffff1682840191508167ffffffffffffffff1610151515613d7f576040517f08c379a000000000000000000000000000000000000000000000000000000000815260040180806020018281038252600c8152602001807f6164642d6f766572666c6f77000000000000000000000000000000000000000081526020015060200191505060405180910390fd5b5b92915050565b600060149054906101000a900460ff16151515613dd8576040517f08c379a0000000000000000000000000000000000000000000000000000000008152600401613dcf90614be0565b60405180910390fd5b5b565b60006002600283811515613deb57fe5b06600285811515613df857fe5b0601811515613e0357fe5b04600283811515613e1057fe5b04600285811515613e1d57fe5b0401019050613e27565b92915050565b828054828255906000526020600020908101928215613ea6579160200282015b82811115613ea55782518260006101000a81548173ffffffffffffffffffffffffffffffffffffffff021916908373ffffffffffffffffffffffffffffffffffffffff16021790555091602001919060010190613e4d565b5b509050613eb39190613f57565b5090565b828054828255906000526020600020908101928215613f46579160200282015b82811115613f4557823573ffffffffffffffffffffffffffffffffffffffff168260006101000a81548173ffffffffffffffffffffffffffffffffffffffff021916908373ffffffffffffffffffffffffffffffffffffffff16021790555091602001919060010190613ed7565b5b509050613f539190613f57565b5090565b613f5c565b80821115613f765760008181506000905550600101613f5c565b509056614d5e565b600082601f8301121515613f90578081fd5b81356020613fa5613fa083614d12565b614ce7565b80838252828201915082860187848587028901011115613fc3578586fd5b855b85811015613fe75781358452848401935084820191505b600181019050613fc5565b5050809450505050505b92915050565b60008135905061400681614d35565b5b919050565b60008135905080600f0b811415156140245760006000fd5b5b919050565b6000813590506fffffffffffffffffffffffffffffffff8116811415156140515760006000fd5b5b919050565b60008135905067ffffffffffffffff8116811415156140765760006000fd5b5b919050565b600060006040838503121561408f578182fd5b823567ffffffffffffffff8111156140a5578283fd5b808401905084601f82011215156140ba578283fd5b803560206140cf6140ca83614d12565b614ce7565b808382528282019150828501898485870288010111156140ed578788fd5b8795505b8486101561411e57803561410481614d35565b80845250838301925083810190505b6001860195506140f1565b50809650505061412f818701613ff7565b93505050505b9250929050565b60006020828403121561414d578081fd5b813567ffffffffffffffff811115614163578182fd5b61416f84828501613f7e565b9150505b92915050565b600060006040838503121561418c578182fd5b823567ffffffffffffffff8111156141a2578283fd5b6141ae85828601613f7e565b925050602083013590505b9250929050565b6000602082840312156141d1578081fd5b8151801515811415156141e2578182fd5b809150505b92915050565b6000602082840312156141fe578081fd5b81357fffffffff0000000000000000000000000000000000000000000000000000000081168114151561422f578182fd5b809150505b92915050565b60006020828403121561424b578081fd5b815161425681614d35565b809150505b92915050565b600060208284031215614272578081fd5b813561427d81614d35565b809150505b92915050565b600060208284031215614299578081fd5b81516142a481614d35565b809150505b92915050565b6000602082840312156142c0578081fd5b81516142cb81614d35565b809150505b92915050565b6000602082840312156142e7578081fd5b81516142f281614d35565b809150505b92915050565b60006020828403121561430e578081fd5b813561431981614d35565b809150505b92915050565b60006000600060408486031215614339578081fd5b833561434481614d35565b80935050602084013567ffffffffffffffff80821115614362578283fd5b818601915086601f8301121515614377578283fd5b813581811115614385578384fd5b876020602083028501011115614399578384fd5b6020830194508093505050505b9250925092565b6000602082840312156143be578081fd5b6143c78261400c565b90505b92915050565b6000600060008385036101008112156143e7578182fd5b8435935060c07fffffffffffffffffffffffffffffffffffffffffffffffffffffffffffffffe08201121561441a578182fd5b5060405160c0810181811067ffffffffffffffff8211171561443857fe5b80604052506144496020860161402a565b81526144576040860161402a565b60208201526144686060860161402a565b604082015261447960808601614057565b606082015261448a60a0860161400c565b608082015261449b60c0860161400c565b60a08201528092505060e084013590505b9250925092565b6000600082840360808112156144c7578283fd5b60608112156144d4578283fd5b506040516060810181811067ffffffffffffffff821117156144f257fe5b80604052508335815261450760208501614057565b60208201526145186040850161402a565b60408201528092505061452d60608401614057565b90505b9250929050565b600060208284031215614548578081fd5b6145518261402a565b90505b92915050565b60006020828403121561456b578081fd5b813590505b92915050565b600060208284031215614587578081fd5b815190505b92915050565b6000602082840312156145a3578081fd5b6145ac82614057565b90505b92915050565b60007f6d6178537465707300000000000000000000000000000000000000000000000082526008820190505b919050565b60007f6572726f72496e74657276616c000000000000000000000000000000000000008252600d820190505b919050565b60007f61636365707461626c654572726f7200000000000000000000000000000000008252600f820190505b919050565b60007f6d696e54696d654265747765656e55706461746573000000000000000000000082526015820190505b919050565b60007f6d6178526174650000000000000000000000000000000000000000000000000082526007820190505b919050565b60007f72656d6f76655265666572656e6365506f6f6c0000000000000000000000000082526013820190505b919050565b60007f696e74657265737452617465537465700000000000000000000000000000000082526010820190505b919050565b60007f6164645265666572656e6365506f6f6c0000000000000000000000000000000082526010820190505b919050565b60007f6d696e526174650000000000000000000000000000000000000000000000000082526007820190505b919050565b600060208201905073ffffffffffffffffffffffffffffffffffffffff831682525b92915050565b600060408201905073ffffffffffffffffffffffffffffffffffffffff841682526fffffffffffffffffffffffffffffffff831660208301525b9392505050565b600060208083018184528085518083526040860191508387019250845b8181101561482c5773ffffffffffffffffffffffffffffffffffffffff8451168352848301925084840193505b6001810190506147f4565b50508093505050505b92915050565b600060208201905082151582525b92915050565b600060208201905073ffffffffffffffffffffffffffffffffffffffff831682525b92915050565b600060208201905073ffffffffffffffffffffffffffffffffffffffff831682525b92915050565b600060408201905073ffffffffffffffffffffffffffffffffffffffff80851683528084166020840152505b9392505050565b600060408201905073ffffffffffffffffffffffffffffffffffffffff8416825282151560208301525b9392505050565b600060208201905082600f0b82525b92915050565b60006020820190508282525b92915050565b60006080820190508582528460208301526fffffffffffffffffffffffffffffffff8416604083015267ffffffffffffffff831660608301525b95945050505050565b600060608201905084825267ffffffffffffffff841660208301526fffffffffffffffffffffffffffffffff831660408301525b949350505050565b600060208252601160208301527f50726f746f636f6c2073687574646f776e00000000000000000000000000000060408301526060820190505b919050565b600060208252600960208301527f4e6f7420666f756e64000000000000000000000000000000000000000000000060408301526060820190505b919050565b600060208252601460208301527f506f6f6c206e6f7420696e697469616c697a656400000000000000000000000060408301526060820190505b919050565b600060208252600e60208301527f4e6f7420417574686f72697a656400000000000000000000000000000000000060408301526060820190505b919050565b600060208252600d60208301527f4c50205265656e7472616e63790000000000000000000000000000000000000060408301526060820190505b919050565b600060208252600560208301527f656d70747900000000000000000000000000000000000000000000000000000060408301526060820190505b919050565b600060208252601060208301527f557064617465206e6f742072656164790000000000000000000000000000000060408301526060820190505b919050565b600060208252600d60208301527f4f6e6c79206f6e6520706f6f6c0000000000000000000000000000000000000060408301526060820190505b919050565b600060208252600d60208301527f416c72656164792061646465640000000000000000000000000000000000000060408301526060820190505b919050565b600060208252601360208301527f436f6e74726163742069732073746f707065640000000000000000000000000060408301526060820190505b919050565b60006020820190506fffffffffffffffffffffffffffffffff831682525b92915050565b600060c0820190506fffffffffffffffffffffffffffffffff8089168352808816602084015280871660408401525067ffffffffffffffff8516606083015283600f0b608083015282600f0b60a08301525b979650505050505050565b60006020820190508282525b92915050565b60006040820190508382528260208301525b9392505050565b600060208201905067ffffffffffffffff831682525b92915050565b6000604051905081810181811067ffffffffffffffff82111715614d0757fe5b80604052505b919050565b600067ffffffffffffffff821115614d2657fe5b6020602083020190505b919050565b73ffffffffffffffffffffffffffffffffffffffff811681141515614d5a5760006000fd5b5b50565bfe5369676e6564536166654d6174683a206164646974696f6e206f766572666c6f775369676e6564536166654d6174683a207375627472616374696f6e206f766572666c6f77a26469706673582212205a8dfb6076d0a69a472b8ecaa7e3488f0cbdb3355b53779d3a79e836f4b5b26164736f6c63430007060033",
  "linkReferences": {},
  "deployedLinkReferences": {}
}