{
  "_format": "hh-sol-artifact-1",
  "contractName": "RatesTestable",
  "sourceName": "contracts/mocks/RatesTestable.sol",
  "abi": [
    {
      "inputs": [],
      "stateMutability": "nonpayable",
      "type": "constructor"
    },
    {
      "anonymous": false,
      "inputs": [
        {
          "indexed": true,
          "internalType": "address",
          "name": "governor",
          "type": "address"
        }
      ],
      "name": "Initialized",
      "type": "event"
    },
    {
      "anonymous": false,
      "inputs": [
        {
          "indexed": true,
          "internalType": "string",
          "name": "paramName",
          "type": "string"
        },
        {
          "indexed": false,
          "internalType": "uint128",
          "name": "value",
          "type": "uint128"
        }
      ],
      "name": "ParameterUpdated128",
      "type": "event"
    },
    {
      "anonymous": false,
      "inputs": [
        {
          "indexed": true,
          "internalType": "string",
          "name": "paramName",
          "type": "string"
        },
        {
          "indexed": false,
          "internalType": "uint64",
          "name": "value",
          "type": "uint64"
        }
      ],
      "name": "ParameterUpdated64",
      "type": "event"
    },
    {
      "anonymous": false,
      "inputs": [
        {
          "indexed": true,
          "internalType": "string",
          "name": "paramName",
          "type": "string"
        },
        {
          "indexed": true,
          "internalType": "address",
          "name": "addr",
          "type": "address"
        }
      ],
      "name": "ParameterUpdatedAddress",
      "type": "event"
    },
    {
      "anonymous": false,
      "inputs": [
        {
          "indexed": true,
          "internalType": "string",
          "name": "paramName",
          "type": "string"
        },
        {
          "indexed": false,
          "internalType": "int128",
          "name": "value",
          "type": "int128"
        }
      ],
      "name": "ParameterUpdatedInt128",
      "type": "event"
    },
    {
      "anonymous": false,
      "inputs": [
        {
          "indexed": false,
          "internalType": "int256",
          "name": "interestRate",
          "type": "int256"
        },
        {
          "indexed": false,
          "internalType": "uint256",
          "name": "price",
          "type": "uint256"
        },
        {
          "indexed": false,
          "internalType": "uint256",
          "name": "rewardCount",
          "type": "uint256"
        },
        {
          "indexed": false,
          "internalType": "uint64",
          "name": "nextUpdateTime",
          "type": "uint64"
        }
      ],
      "name": "RateUpdated",
      "type": "event"
    },
    {
      "anonymous": false,
      "inputs": [],
      "name": "Stopped",
      "type": "event"
    },
    {
      "inputs": [
        {
          "internalType": "contract IUniswapV3Pool",
          "name": "pool",
          "type": "address"
        }
      ],
      "name": "addReferencePool",
      "outputs": [],
      "stateMutability": "nonpayable",
      "type": "function"
    },
    {
      "inputs": [
        {
          "internalType": "uint256[]",
          "name": "referencePrices",
          "type": "uint256[]"
        },
        {
          "internalType": "uint256",
          "name": "collateralPrice",
          "type": "uint256"
        }
      ],
      "name": "calculatePrice",
      "outputs": [
        {
          "internalType": "uint256",
          "name": "",
          "type": "uint256"
        }
      ],
      "stateMutability": "pure",
      "type": "function"
    },
    {
      "inputs": [
        {
          "internalType": "int256",
          "name": "rate",
          "type": "int256"
        },
        {
          "components": [
            {
              "internalType": "uint128",
              "name": "acceptableError",
              "type": "uint128"
            },
            {
              "internalType": "uint128",
              "name": "errorInterval",
              "type": "uint128"
            },
            {
              "internalType": "uint128",
              "name": "interestRateStep",
              "type": "uint128"
            },
            {
              "internalType": "uint64",
              "name": "maxSteps",
              "type": "uint64"
            },
            {
              "internalType": "int128",
              "name": "minRate",
              "type": "int128"
            },
            {
              "internalType": "int128",
              "name": "maxRate",
              "type": "int128"
            }
          ],
          "internalType": "struct Rates.InterestRateParameters",
          "name": "rp",
          "type": "tuple"
        },
        {
          "internalType": "uint256",
          "name": "price",
          "type": "uint256"
        }
      ],
      "name": "calculateRate",
      "outputs": [
        {
          "internalType": "int256",
          "name": "",
          "type": "int256"
        }
      ],
      "stateMutability": "pure",
      "type": "function"
    },
    {
      "inputs": [
        {
          "components": [
            {
              "internalType": "int256",
              "name": "rate",
              "type": "int256"
            },
            {
              "internalType": "uint64",
              "name": "nextUpdateTime",
              "type": "uint64"
            },
            {
              "internalType": "uint128",
              "name": "rewardCount",
              "type": "uint128"
            }
          ],
          "internalType": "struct Rates.RateData",
          "name": "rd",
          "type": "tuple"
        },
        {
          "internalType": "uint64",
          "name": "currentTime",
          "type": "uint64"
        }
      ],
      "name": "calculateRewardCount",
      "outputs": [
        {
          "internalType": "uint256",
          "name": "",
          "type": "uint256"
        }
      ],
      "stateMutability": "pure",
      "type": "function"
    },
    {
      "inputs": [],
      "name": "collateralPool",
      "outputs": [
        {
          "internalType": "contract IUniswapV3Pool",
          "name": "",
          "type": "address"
        }
      ],
      "stateMutability": "view",
      "type": "function"
    },
    {
      "inputs": [
        {
          "internalType": "contract IUniswapV3Pool[]",
          "name": "pools",
          "type": "address[]"
        },
        {
          "internalType": "contract IUniswapV3Pool",
          "name": "pool",
          "type": "address"
        }
      ],
      "name": "contains",
      "outputs": [
        {
          "internalType": "bool",
          "name": "",
          "type": "bool"
        }
      ],
      "stateMutability": "pure",
      "type": "function"
    },
    {
      "inputs": [],
      "name": "currentRateData",
      "outputs": [
        {
          "internalType": "int256",
          "name": "rate",
          "type": "int256"
        },
        {
          "internalType": "uint64",
          "name": "nextUpdateTime",
          "type": "uint64"
        },
        {
          "internalType": "uint128",
          "name": "rewardCount",
          "type": "uint128"
        }
      ],
      "stateMutability": "view",
      "type": "function"
    },
    {
      "inputs": [],
      "name": "deployer",
      "outputs": [
        {
          "internalType": "address",
          "name": "",
          "type": "address"
        }
      ],
      "stateMutability": "view",
      "type": "function"
    },
    {
      "inputs": [
        {
          "internalType": "contract IUniswapV3Pool",
          "name": "_collateralPool",
          "type": "address"
        },
        {
          "internalType": "contract IUniswapV3Pool[]",
          "name": "_referencePools",
          "type": "address[]"
        }
      ],
      "name": "finalizeInitialization",
      "outputs": [],
      "stateMutability": "nonpayable",
      "type": "function"
    },
    {
      "inputs": [],
      "name": "getReferencePools",
      "outputs": [
        {
          "internalType": "contract IUniswapV3Pool[]",
          "name": "",
          "type": "address[]"
        }
      ],
      "stateMutability": "view",
      "type": "function"
    },
    {
      "inputs": [],
      "name": "getRewardCount",
      "outputs": [
        {
          "internalType": "uint256",
          "name": "",
          "type": "uint256"
        }
      ],
      "stateMutability": "view",
      "type": "function"
    },
    {
      "inputs": [],
      "name": "governor",
      "outputs": [
        {
          "internalType": "contract IGovernor",
          "name": "",
          "type": "address"
        }
      ],
      "stateMutability": "view",
      "type": "function"
    },
    {
      "inputs": [
        {
          "internalType": "contract IGovernor",
          "name": "_governor",
          "type": "address"
        }
      ],
      "name": "init",
      "outputs": [],
      "stateMutability": "nonpayable",
      "type": "function"
    },
    {
      "inputs": [],
      "name": "interestRateAbsoluteValue",
      "outputs": [
        {
          "internalType": "uint256",
          "name": "",
          "type": "uint256"
        }
      ],
      "stateMutability": "view",
      "type": "function"
    },
    {
      "inputs": [],
      "name": "interestRateParameters",
      "outputs": [
        {
          "internalType": "uint128",
          "name": "acceptableError",
          "type": "uint128"
        },
        {
          "internalType": "uint128",
          "name": "errorInterval",
          "type": "uint128"
        },
        {
          "internalType": "uint128",
          "name": "interestRateStep",
          "type": "uint128"
        },
        {
          "internalType": "uint64",
          "name": "maxSteps",
          "type": "uint64"
        },
        {
          "internalType": "int128",
          "name": "minRate",
          "type": "int128"
        },
        {
          "internalType": "int128",
          "name": "maxRate",
          "type": "int128"
        }
      ],
      "stateMutability": "view",
      "type": "function"
    },
    {
      "inputs": [
        {
          "internalType": "uint256[]",
          "name": "values",
          "type": "uint256[]"
        }
      ],
      "name": "median",
      "outputs": [
        {
          "internalType": "uint256",
          "name": "",
          "type": "uint256"
        }
      ],
      "stateMutability": "pure",
      "type": "function"
    },
    {
      "inputs": [],
      "name": "minTimeBetweenUpdates",
      "outputs": [
        {
          "internalType": "uint64",
          "name": "",
          "type": "uint64"
        }
      ],
      "stateMutability": "view",
      "type": "function"
    },
    {
      "inputs": [],
      "name": "positiveInterestRate",
      "outputs": [
        {
          "internalType": "bool",
          "name": "",
          "type": "bool"
        }
      ],
      "stateMutability": "view",
      "type": "function"
    },
    {
      "inputs": [],
      "name": "predictInterestRate",
      "outputs": [
        {
          "internalType": "uint256",
          "name": "price",
          "type": "uint256"
        },
        {
          "internalType": "int256",
          "name": "rate",
          "type": "int256"
        }
      ],
      "stateMutability": "view",
      "type": "function"
    },
    {
      "inputs": [
        {
          "internalType": "uint256",
          "name": "",
          "type": "uint256"
        }
      ],
      "name": "referencePools",
      "outputs": [
        {
          "internalType": "contract IUniswapV3Pool",
          "name": "",
          "type": "address"
        }
      ],
      "stateMutability": "view",
      "type": "function"
    },
    {
      "inputs": [
        {
          "internalType": "contract IUniswapV3Pool[]",
          "name": "pools",
          "type": "address[]"
        },
        {
          "internalType": "contract IUniswapV3Pool",
          "name": "pool",
          "type": "address"
        }
      ],
      "name": "removePoolFromPools",
      "outputs": [
        {
          "internalType": "contract IUniswapV3Pool[]",
          "name": "",
          "type": "address[]"
        }
      ],
      "stateMutability": "pure",
      "type": "function"
    },
    {
      "inputs": [
        {
          "internalType": "contract IUniswapV3Pool",
          "name": "pool",
          "type": "address"
        }
      ],
      "name": "removeReferencePool",
      "outputs": [],
      "stateMutability": "nonpayable",
      "type": "function"
    },
    {
      "inputs": [
        {
          "internalType": "uint128",
          "name": "error",
          "type": "uint128"
        }
      ],
      "name": "setAcceptableError",
      "outputs": [],
      "stateMutability": "nonpayable",
      "type": "function"
    },
    {
      "inputs": [
        {
          "internalType": "uint128",
          "name": "interval",
          "type": "uint128"
        }
      ],
      "name": "setErrorInterval",
      "outputs": [],
      "stateMutability": "nonpayable",
      "type": "function"
    },
    {
      "inputs": [
        {
          "internalType": "uint128",
          "name": "step",
          "type": "uint128"
        }
      ],
      "name": "setInterestRateStep",
      "outputs": [],
      "stateMutability": "nonpayable",
      "type": "function"
    },
    {
      "inputs": [
        {
          "internalType": "int128",
          "name": "max",
          "type": "int128"
        }
      ],
      "name": "setMaxRate",
      "outputs": [],
      "stateMutability": "nonpayable",
      "type": "function"
    },
    {
      "inputs": [
        {
          "internalType": "uint64",
          "name": "steps",
          "type": "uint64"
        }
      ],
      "name": "setMaxSteps",
      "outputs": [],
      "stateMutability": "nonpayable",
      "type": "function"
    },
    {
      "inputs": [
        {
          "internalType": "int128",
          "name": "min",
          "type": "int128"
        }
      ],
      "name": "setMinRate",
      "outputs": [],
      "stateMutability": "nonpayable",
      "type": "function"
    },
    {
      "inputs": [
        {
          "internalType": "uint64",
          "name": "time",
          "type": "uint64"
        }
      ],
      "name": "setMinTimeBetweenUpdates",
      "outputs": [],
      "stateMutability": "nonpayable",
      "type": "function"
    },
    {
      "inputs": [],
      "name": "stop",
      "outputs": [],
      "stateMutability": "nonpayable",
      "type": "function"
    },
    {
      "inputs": [],
      "name": "stopped",
      "outputs": [
        {
          "internalType": "bool",
          "name": "",
          "type": "bool"
        }
      ],
      "stateMutability": "view",
      "type": "function"
    },
    {
      "inputs": [],
      "name": "update",
      "outputs": [],
      "stateMutability": "nonpayable",
      "type": "function"
    },
    {
      "inputs": [
        {
          "internalType": "bytes4",
          "name": "",
          "type": "bytes4"
        }
      ],
      "name": "validUpdate",
      "outputs": [
        {
          "internalType": "bool",
          "name": "",
          "type": "bool"
        }
      ],
      "stateMutability": "view",
      "type": "function"
    }
  ],
  "bytecode": "0x60a06040526001600660005090905562014a78600760006101000a81548167ffffffffffffffff021916908367ffffffffffffffff1602179055503480156100475760006000fd5b505b60005b5b33600160006101000a81548173ffffffffffffffffffffffffffffffffffffffff021916908373ffffffffffffffffffffffffffffffffffffffff1602179055505b8073ffffffffffffffffffffffffffffffffffffffff1660808173ffffffffffffffffffffffffffffffffffffffff1660601b815260140150505b505b6100d1565b60805160601c614d99620000ef6000398061357e5250614d996000f3fe60806040523480156100115760006000fd5b50600436106102105760003560e01c80637e7e8eec1161012b578063bf5d5ae3116100be578063d3ab38881161008d578063ee47304d11610072578063ee47304d146105f8578063eec3f6f114610614578063ff0eccf61461063057610210565b8063d3ab3888146105be578063d5f39488146105da57610210565b8063bf5d5ae314610512578063c381c1e614610542578063ce62a3bf1461055e578063ceec5d6f1461058e57610210565b8063a0fc0eda116100fa578063a0fc0eda146104b0578063a2e62045146104ce578063ab658be2146104d8578063bc22cf5c146104f657610210565b80637e7e8eec1461042357806380ddbdb41461044157806384333cc71461045d57806395563b471461048d57610210565b806319ab453c116101a35780635fd019ad116101725780635fd019ad146103af5780636d7fa664146103cb5780636e16ead2146103e957806375f12b211461040557610210565b806319ab453c146103275780631f244faf146103435780633da80d66146103635780635d8350b41461039357610210565b80631268d3be116101df5780631268d3be1461029e578063150147d7146102ce578063178d1226146102ea57806319a6e9e61461030957610210565b806307da68f5146102165780630c340a2414610220578063113cf1ab1461023e57806311994c291461026e57610210565b60006000fd5b61021e61064e565b005b61022861066e565b604051610235919061484d565b60405180910390f35b610258600480360381019061025391906141eb565b610694565b6040516102659190614839565b60405180910390f35b610288600480360381019061028391906144b1565b6106b9565b6040516102959190614c5f565b60405180910390f35b6102b860048036038101906102b39190614177565b6106d8565b6040516102c59190614c5f565b60405180910390f35b6102e860048036038101906102e391906142fb565b6106f7565b005b6102f2610813565b604051610300929190614c71565b60405180910390f35b610311610c73565b60405161031e9190614c8a565b60405180910390f35b610341600480360381019061033c919061425f565b610c8d565b005b61034b61109f565b60405161035a9392919061496b565b60405180910390f35b61037d6004803603810190610378919061407a565b6110ed565b60405161038a9190614839565b60405180910390f35b6103ad60048036038101906103a89190614590565b61110c565b005b6103c960048036038101906103c49190614535565b6111c3565b005b6103d36112a7565b6040516103e09190614839565b60405180910390f35b61040360048036038101906103fe9190614535565b6112c3565b005b61040d611389565b60405161041a9190614839565b60405180910390f35b61042b61139c565b6040516104389190614c5f565b60405180910390f35b61045b60048036038101906104569190614535565b611460565b005b61047760048036038101906104729190614558565b611526565b6040516104849190614875565b60405180910390f35b61049561156c565b6040516104a796959493929190614c02565b60405180910390f35b6104b861161b565b6040516104c59190614c5f565b60405180910390f35b6104d661164c565b005b6104e0611db6565b6040516104ed91906147d5565b60405180910390f35b610510600480360381019061050b9190614322565b611e4c565b005b61052c6004803603810190610527919061407a565b612142565b60405161053991906147d5565b60405180910390f35b61055c600480360381019061055791906142fb565b612161565b005b6105786004803603810190610573919061413a565b61231d565b6040516105859190614c5f565b60405180910390f35b6105a860048036038101906105a391906143ce565b61233a565b6040516105b59190614916565b60405180910390f35b6105d860048036038101906105d39190614590565b61235b565b005b6105e26123e8565b6040516105ef919061476c565b60405180910390f35b610612600480360381019061060d91906143ab565b61240e565b005b61062e600480360381019061062991906143ab565b6124d8565b005b6106386125a2565b6040516106459190614875565b60405180910390f35b61065c6125c863ffffffff16565b61066a61265d63ffffffff16565b5b5b565b600060009054906101000a900473ffffffffffffffffffffffffffffffffffffffff1681565b600560005060205280600052604060002060009150909054906101000a900460ff1681565b60006106cb83836126a763ffffffff16565b90506106d2565b92915050565b60006106ea838361278663ffffffff16565b90506106f1565b92915050565b6107056125c863ffffffff16565b61079e600d60005080548060200260200160405190810160405280929190818152602001828054801561078d57602002820191906000526020600020905b8160009054906101000a900473ffffffffffffffffffffffffffffffffffffffff1673ffffffffffffffffffffffffffffffffffffffff1681526020019060010190808311610743575b5050505050826127d063ffffffff16565b600d60005090805190602001906107b6929190613e2b565b508073ffffffffffffffffffffffffffffffffffffffff166040516107da906146a8565b60405180910390207f78caada2f560033c9479d8c5e33f045f2e611faebe6b6d8a73874c80ec2dd3a260405160405180910390a35b5b50565b600060006000600060009054906101000a900473ffffffffffffffffffffffffffffffffffffffff1673ffffffffffffffffffffffffffffffffffffffff1663d3419bf36040518163ffffffff1660e01b815260040160206040518083038186803b1580156108825760006000fd5b505afa158015610897573d600060003e3d6000fd5b505050506040513d601f19601f820116820180604052508101906108bb91906142ad565b90506000600d60005080549050905060008167ffffffffffffffff811180156108e45760006000fd5b506040519080825280602002602001820160405280156109135781602001602082028036833780820191505090505b5090506000600090505b82811015610a1e578373ffffffffffffffffffffffffffffffffffffffff16633c63a9cd600d6000508381548110151561095357fe5b906000526020600020900160005b9054906101000a900473ffffffffffffffffffffffffffffffffffffffff1660016040518363ffffffff1660e01b815260040161099f9291906148d0565b60206040518083038186803b1580156109b85760006000fd5b505afa1580156109cd573d600060003e3d6000fd5b505050506040513d601f19601f820116820180604052508101906109f19190614574565b82828151811015156109ff57fe5b60200260200101909081815260200150505b808060010191505061091d565b50610ade818473ffffffffffffffffffffffffffffffffffffffff16633c63a9cd600e60009054906101000a900473ffffffffffffffffffffffffffffffffffffffff1660016040518363ffffffff1660e01b8152600401610a819291906148d0565b60206040518083038186803b158015610a9a5760006000fd5b505afa158015610aaf573d600060003e3d6000fd5b505050506040513d601f19601f82011682018060405250810190610ad39190614574565b61278663ffffffff16565b94508450610c5a600b6000506000016000505460086000506040518060c00160405290816000820160009054906101000a90046fffffffffffffffffffffffffffffffff166fffffffffffffffffffffffffffffffff166fffffffffffffffffffffffffffffffff1681526020016000820160109054906101000a90046fffffffffffffffffffffffffffffffff166fffffffffffffffffffffffffffffffff166fffffffffffffffffffffffffffffffff1681526020016001820160009054906101000a90046fffffffffffffffffffffffffffffffff166fffffffffffffffffffffffffffffffff166fffffffffffffffffffffffffffffffff1681526020016001820160109054906101000a900467ffffffffffffffff1667ffffffffffffffff1667ffffffffffffffff1681526020016002820160009054906101000a9004600f0b600f0b600f0b81526020016002820160109054906101000a9004600f0b600f0b600f0b815260200150508761295a63ffffffff16565b93508350848494509450505050610c6f565050505b9091565b600760009054906101000a900467ffffffffffffffff1681565b600160009054906101000a900473ffffffffffffffffffffffffffffffffffffffff1673ffffffffffffffffffffffffffffffffffffffff163373ffffffffffffffffffffffffffffffffffffffff16141515610cea5760006000fd5b600160159054906101000a900460ff16151515610d075760006000fd5b80600060006101000a81548173ffffffffffffffffffffffffffffffffffffffff021916908373ffffffffffffffffffffffffffffffffffffffff160217905550600060009054906101000a900473ffffffffffffffffffffffffffffffffffffffff1673ffffffffffffffffffffffffffffffffffffffff16639624e83e6040518163ffffffff1660e01b815260040160206040518083038186803b158015610db15760006000fd5b505afa158015610dc6573d600060003e3d6000fd5b505050506040513d601f19601f82011682018060405250810190610dea9190614238565b600260006101000a81548173ffffffffffffffffffffffffffffffffffffffff021916908373ffffffffffffffffffffffffffffffffffffffff160217905550600060009054906101000a900473ffffffffffffffffffffffffffffffffffffffff1673ffffffffffffffffffffffffffffffffffffffff1663323741746040518163ffffffff1660e01b815260040160206040518083038186803b158015610e935760006000fd5b505afa158015610ea8573d600060003e3d6000fd5b505050506040513d601f19601f82011682018060405250810190610ecc9190614286565b600360006101000a81548173ffffffffffffffffffffffffffffffffffffffff021916908373ffffffffffffffffffffffffffffffffffffffff160217905550600060009054906101000a900473ffffffffffffffffffffffffffffffffffffffff1673ffffffffffffffffffffffffffffffffffffffff1663d478b0876040518163ffffffff1660e01b815260040160206040518083038186803b158015610f755760006000fd5b505afa158015610f8a573d600060003e3d6000fd5b505050506040513d601f19601f82011682018060405250810190610fae91906142d4565b600460006101000a81548173ffffffffffffffffffffffffffffffffffffffff021916908373ffffffffffffffffffffffffffffffffffffffff160217905550610ffc612ad263ffffffff16565b600160149054906101000a900460ff16151561103c57600160006101000a81549073ffffffffffffffffffffffffffffffffffffffff0219169055611058565b6001600160156101000a81548160ff0219169083151502179055505b8073ffffffffffffffffffffffffffffffffffffffff167f908408e307fc569b417f6cbec5d5a06f44a0a505ac0479b47d421a4b2fd6a1e660405160405180910390a25b50565b600b6000508060000160005054908060010160009054906101000a900467ffffffffffffffff16908060010160089054906101000a90046fffffffffffffffffffffffffffffffff16905083565b60006110ff83836130e863ffffffff16565b9050611106565b92915050565b61111a6125c863ffffffff16565b80600760006101000a81548167ffffffffffffffff021916908367ffffffffffffffff1602179055506000600760009054906101000a900467ffffffffffffffff1667ffffffffffffffff161115156111735760006000fd5b60405161117f90614646565b60405180910390207f6293347933ad2997134e224ac8cd2e39908a4a22aeed9af52127b4bbf7652978826040516111b69190614c8a565b60405180910390a25b5b50565b6111d16125c863ffffffff16565b806fffffffffffffffffffffffffffffffff16600010801561120c5750670de0b6b3a7640000816fffffffffffffffffffffffffffffffff16105b15156112185760006000fd5b80600860005060000160106101000a8154816fffffffffffffffffffffffffffffffff02191690836fffffffffffffffffffffffffffffffff160217905550604051611263906145e4565b60405180910390207ff92f7fc8addd796154d83393012a119e212b31cb3dc9776133129db4c5747fcc8260405161129a9190614bde565b60405180910390a25b5b50565b60006000600b60005060000160005054121590506112c0565b90565b6112d16125c863ffffffff16565b670de0b6b3a7640000816fffffffffffffffffffffffffffffffff161015156112fa5760006000fd5b80600860005060010160006101000a8154816fffffffffffffffffffffffffffffffff02191690836fffffffffffffffffffffffffffffffff160217905550604051611345906146d9565b60405180910390207ff92f7fc8addd796154d83393012a119e212b31cb3dc9776133129db4c5747fcc8260405161137c9190614bde565b60405180910390a25b5b50565b600060149054906101000a900460ff1681565b6000611456600b600050604051806060016040529081600082016000505481526020016001820160009054906101000a900467ffffffffffffffff1667ffffffffffffffff1667ffffffffffffffff1681526020016001820160089054906101000a90046fffffffffffffffffffffffffffffffff166fffffffffffffffffffffffffffffffff166fffffffffffffffffffffffffffffffff168152602001505061144b61316b63ffffffff16565b6126a763ffffffff16565b905061145d565b90565b61146e6125c863ffffffff16565b670de0b6b3a7640000816fffffffffffffffffffffffffffffffff161015156114975760006000fd5b80600860005060000160006101000a8154816fffffffffffffffffffffffffffffffff02191690836fffffffffffffffffffffffffffffffff1602179055506040516114e290614615565b60405180910390207ff92f7fc8addd796154d83393012a119e212b31cb3dc9776133129db4c5747fcc826040516115199190614bde565b60405180910390a25b5b50565b600d600050818154811061153957600080fd5b906000526020600020900160005b9150909054906101000a900473ffffffffffffffffffffffffffffffffffffffff1681565b60086000508060000160009054906101000a90046fffffffffffffffffffffffffffffffff16908060000160109054906101000a90046fffffffffffffffffffffffffffffffff16908060010160009054906101000a90046fffffffffffffffffffffffffffffffff16908060010160109054906101000a900467ffffffffffffffff16908060020160009054906101000a9004600f0b908060020160109054906101000a9004600f0b905086565b60006000600b6000506000016000505490506000811261163b5780611640565b806000035b91505061164956505b90565b61165a61318663ffffffff16565b61166861326563ffffffff16565b6000600b600050604051806060016040529081600082016000505481526020016001820160009054906101000a900467ffffffffffffffff1667ffffffffffffffff1667ffffffffffffffff1681526020016001820160089054906101000a90046fffffffffffffffffffffffffffffffff166fffffffffffffffffffffffffffffffff166fffffffffffffffffffffffffffffffff1681526020015050905061171661316b63ffffffff16565b67ffffffffffffffff16816020015167ffffffffffffffff1611151515611772576040517f08c379a000000000000000000000000000000000000000000000000000000000815260040161176990614b21565b60405180910390fd5b6000600060009054906101000a900473ffffffffffffffffffffffffffffffffffffffff1673ffffffffffffffffffffffffffffffffffffffff1663d3419bf36040518163ffffffff1660e01b815260040160206040518083038186803b1580156117dd5760006000fd5b505afa1580156117f2573d600060003e3d6000fd5b505050506040513d601f19601f8201168201806040525081019061181691906142ad565b90506000600d60005080549050905060008167ffffffffffffffff8111801561183f5760006000fd5b5060405190808252806020026020018201604052801561186e5781602001602082028036833780820191505090505b5090506000600090505b82811015611978578373ffffffffffffffffffffffffffffffffffffffff1663ce403c13600d600050838154811015156118ae57fe5b906000526020600020900160005b9054906101000a900473ffffffffffffffffffffffffffffffffffffffff166040518263ffffffff1660e01b81526004016118f79190614875565b602060405180830381600087803b1580156119125760006000fd5b505af1158015611927573d600060003e3d6000fd5b505050506040513d601f19601f8201168201806040525081019061194b9190614574565b828281518110151561195957fe5b60200260200101909081815260200150505b8080600101915050611878565b506000611a39828573ffffffffffffffffffffffffffffffffffffffff1663ce403c13600e60009054906101000a900473ffffffffffffffffffffffffffffffffffffffff166040518263ffffffff1660e01b81526004016119da9190614875565b602060405180830381600087803b1580156119f55760006000fd5b505af1158015611a0a573d600060003e3d6000fd5b505050506040513d601f19601f82011682018060405250810190611a2e9190614574565b61278663ffffffff16565b905060006040518060600160405280611bb9886000015160086000506040518060c00160405290816000820160009054906101000a90046fffffffffffffffffffffffffffffffff166fffffffffffffffffffffffffffffffff166fffffffffffffffffffffffffffffffff1681526020016000820160109054906101000a90046fffffffffffffffffffffffffffffffff166fffffffffffffffffffffffffffffffff166fffffffffffffffffffffffffffffffff1681526020016001820160009054906101000a90046fffffffffffffffffffffffffffffffff166fffffffffffffffffffffffffffffffff166fffffffffffffffffffffffffffffffff1681526020016001820160109054906101000a900467ffffffffffffffff1667ffffffffffffffff1667ffffffffffffffff1681526020016002820160009054906101000a9004600f0b600f0b600f0b81526020016002820160109054906101000a9004600f0b600f0b600f0b815260200150508661295a63ffffffff16565b8152602001611be3600760009054906101000a900467ffffffffffffffff1661335a63ffffffff16565b67ffffffffffffffff168152602001611c1f611c1289611c0761316b63ffffffff16565b6126a763ffffffff16565b613390909063ffffffff16565b6fffffffffffffffffffffffffffffffff16815260200150905080600b60005060008201518160000160005090905560208201518160010160006101000a81548167ffffffffffffffff021916908367ffffffffffffffff16021790555060408201518160010160086101000a8154816fffffffffffffffffffffffffffffffff02191690836fffffffffffffffffffffffffffffffff160217905550905050600060009054906101000a900473ffffffffffffffffffffffffffffffffffffffff1673ffffffffffffffffffffffffffffffffffffffff1663ef7a7cfa3383604001516040518363ffffffff1660e01b8152600401611d20929190614794565b600060405180830381600087803b158015611d3b5760006000fd5b505af1158015611d50573d600060003e3d6000fd5b505050507f9f912bcb7b057a4f10fbbee5785670aecb2ab545144237646e17398d55de72dc81600001518383604001518460200151604051611d959493929190614928565b60405180910390a15050505050505b5b611db361342a63ffffffff16565b5b565b6060600d600050805480602002602001604051908101604052809291908181526020018280548015611e3d57602002820191906000526020600020905b8160009054906101000a900473ffffffffffffffffffffffffffffffffffffffff1673ffffffffffffffffffffffffffffffffffffffff1681526020019060010190808311611df3575b50505050509050611e49565b90565b600160149054906101000a900460ff168015611e745750600160159054906101000a900460ff165b8015611ecd5750600160009054906101000a900473ffffffffffffffffffffffffffffffffffffffff1673ffffffffffffffffffffffffffffffffffffffff163373ffffffffffffffffffffffffffffffffffffffff16145b1515611ed95760006000fd5b600160006101000a81549073ffffffffffffffffffffffffffffffffffffffff0219169055600160156101000a81549060ff02191690556000828290509050600081111515611f285760006000fd5b600060009054906101000a900473ffffffffffffffffffffffffffffffffffffffff1673ffffffffffffffffffffffffffffffffffffffff1663d3419bf36040518163ffffffff1660e01b815260040160206040518083038186803b158015611f915760006000fd5b505afa158015611fa6573d600060003e3d6000fd5b505050506040513d601f19601f82011682018060405250810190611fca91906142ad565b73ffffffffffffffffffffffffffffffffffffffff1663532cec7c856040518263ffffffff1660e01b81526004016120029190614875565b60206040518083038186803b15801561201b5760006000fd5b505afa158015612030573d600060003e3d6000fd5b505050506040513d601f19601f8201168201806040525081019061205491906141be565b1515612095576040517f08c379a000000000000000000000000000000000000000000000000000000000815260040161208c90614a25565b60405180910390fd5b6000600090505b818110156120e3576120d584848381811015156120b557fe5b90506020020160208101906120ca91906142fb565b6134be63ffffffff16565b5b808060010191505061209c565b5083600e60006101000a81548173ffffffffffffffffffffffffffffffffffffffff021916908373ffffffffffffffffffffffffffffffffffffffff1602179055508282600d6000509190612139929190613eb5565b50505b5b505050565b606061215483836127d063ffffffff16565b905061215b565b92915050565b61216f6125c863ffffffff16565b612208600d6000508054806020026020016040519081016040528092919081815260200182805480156121f757602002820191906000526020600020905b8160009054906101000a900473ffffffffffffffffffffffffffffffffffffffff1673ffffffffffffffffffffffffffffffffffffffff16815260200190600101908083116121ad575b5050505050826130e863ffffffff16565b15151561224a576040517f08c379a000000000000000000000000000000000000000000000000000000000815260040161224190614b60565b60405180910390fd5b612259816134be63ffffffff16565b600d60005081908060018154018082558091505060019003906000526020600020900160005b9091909190916101000a81548173ffffffffffffffffffffffffffffffffffffffff021916908373ffffffffffffffffffffffffffffffffffffffff1602179055508073ffffffffffffffffffffffffffffffffffffffff166040516122e49061470a565b60405180910390207f78caada2f560033c9479d8c5e33f045f2e611faebe6b6d8a73874c80ec2dd3a260405160405180910390a35b5b50565b600061232e826135f263ffffffff16565b9050612335565b919050565b600061234d84848461295a63ffffffff16565b9050612354565b9392505050565b6123696125c863ffffffff16565b80600860005060010160106101000a81548167ffffffffffffffff021916908367ffffffffffffffff1602179055506040516123a4906145b3565b60405180910390207f6293347933ad2997134e224ac8cd2e39908a4a22aeed9af52127b4bbf7652978826040516123db9190614c8a565b60405180910390a25b5b50565b600160009054906101000a900473ffffffffffffffffffffffffffffffffffffffff1681565b61241c6125c863ffffffff16565b600860005060020160109054906101000a9004600f0b600f0b81600f0b1215156124465760006000fd5b80600860005060020160006101000a8154816fffffffffffffffffffffffffffffffff0219169083600f0b6fffffffffffffffffffffffffffffffff1602179055506040516124949061473b565b60405180910390207f73372e841856ef3f75f5070dea5fbba697b24bf1b513158c125d0c7bbcc62fd2826040516124cb9190614901565b60405180910390a25b5b50565b6124e66125c863ffffffff16565b80600f0b600860005060020160009054906101000a9004600f0b600f0b1215156125105760006000fd5b80600860005060020160106101000a8154816fffffffffffffffffffffffffffffffff0219169083600f0b6fffffffffffffffffffffffffffffffff16021790555060405161255e90614677565b60405180910390207f73372e841856ef3f75f5070dea5fbba697b24bf1b513158c125d0c7bbcc62fd2826040516125959190614901565b60405180910390a25b5b50565b600e60009054906101000a900473ffffffffffffffffffffffffffffffffffffffff1681565b600060009054906101000a900473ffffffffffffffffffffffffffffffffffffffff1673ffffffffffffffffffffffffffffffffffffffff163373ffffffffffffffffffffffffffffffffffffffff1614151561265a576040517f08c379a000000000000000000000000000000000000000000000000000000000815260040161265190614a64565b60405180910390fd5b5b565b6001600060146101000a81548160ff0219169083151502179055507f7acc84e34091ae817647a4c49116f5cc07f319078ba80f8f5fde37ea7e25cbd660405160405180910390a15b565b6000826020015167ffffffffffffffff168267ffffffffffffffff161115156126d35760009050612780565b6000600284604001516fffffffffffffffffffffffffffffffff168115156126f757fe5b046fffffffffffffffffffffffffffffffff16905060006127358560200151850367ffffffffffffffff16610708846138759092919063ffffffff16565b82019050612775612766600587604001516fffffffffffffffffffffffffffffffff1661397690919063ffffffff16565b82613a1490919063ffffffff16565b925050506127805650505b92915050565b60006127c36127ac61279d856135f263ffffffff16565b84613a3290919063ffffffff16565b670de0b6b3a7640000613a5890919063ffffffff16565b90506127ca565b92915050565b60606127e283836130e863ffffffff16565b1515612823576040517f08c379a000000000000000000000000000000000000000000000000000000000815260040161281a906149e6565b60405180910390fd5b6000600184510367ffffffffffffffff811180156128415760006000fd5b506040519080825280602002602001820160405280156128705781602001602082028036833780820191505090505b50905060006000600090505b8551811015612947578473ffffffffffffffffffffffffffffffffffffffff1686828151811015156128aa57fe5b602002602001015173ffffffffffffffffffffffffffffffffffffffff161415156129395785818151811015156128dd57fe5b602002602001015183838151811015156128f357fe5b602002602001019073ffffffffffffffffffffffffffffffffffffffff16908173ffffffffffffffffffffffffffffffffffffffff168152602001505081806001019250505b5b808060010191505061287c565b5081925050506129545650505b92915050565b60006000670de0b6b3a76400008310905060008161298257670de0b6b3a7640000840361298e565b83670de0b6b3a7640000035b905084600001516fffffffffffffffffffffffffffffffff1681101515612a87576000612a066129f9600188602001516fffffffffffffffffffffffffffffffff16858115156129da57fe5b0401886060015167ffffffffffffffff16613a1490919063ffffffff16565b613a7e909063ffffffff16565b67ffffffffffffffff1690506000612a4d612a408389604001516fffffffffffffffffffffffffffffffff1661397690919063ffffffff16565b613b10909063ffffffff16565b905083612a6c57612a678189613bb990919063ffffffff16565b612a80565b612a7f8189613c5090919063ffffffff16565b5b9750875050505b8460800151600f0b861215612aa3578460800151600f0b955085505b8460a00151600f0b861315612abf578460a00151600f0b955085505b8592505050612acb5650505b9392505050565b6040518060c0016040528066038d7ea4c680006fffffffffffffffffffffffffffffffff1681526020016611c37937e080006fffffffffffffffffffffffffffffffff1681526020016611c37937e080006fffffffffffffffffffffffffffffffff168152602001600567ffffffffffffffff1681526020017ffffffffffffffffffffffffffffffffffffffffffffffffffdeb17cb73b10000600f0b81526020016706f05b59d3b20000600f0b815260200150600860005060008201518160000160006101000a8154816fffffffffffffffffffffffffffffffff02191690836fffffffffffffffffffffffffffffffff16021790555060208201518160000160106101000a8154816fffffffffffffffffffffffffffffffff02191690836fffffffffffffffffffffffffffffffff16021790555060408201518160010160006101000a8154816fffffffffffffffffffffffffffffffff02191690836fffffffffffffffffffffffffffffffff16021790555060608201518160010160106101000a81548167ffffffffffffffff021916908367ffffffffffffffff16021790555060808201518160020160006101000a8154816fffffffffffffffffffffffffffffffff0219169083600f0b6fffffffffffffffffffffffffffffffff16021790555060a08201518160020160106101000a8154816fffffffffffffffffffffffffffffffff0219169083600f0b6fffffffffffffffffffffffffffffffff160217905550905050604051806060016040528066b1a2bc2ec500008152602001612d56600760009054906101000a900467ffffffffffffffff16612d3e61316b63ffffffff16565b67ffffffffffffffff16613ce790919063ffffffff16565b67ffffffffffffffff16815260200168056bc75e2d631000006fffffffffffffffffffffffffffffffff16815260200150600b60005060008201518160000160005090905560208201518160010160006101000a81548167ffffffffffffffff021916908367ffffffffffffffff16021790555060408201518160010160086101000a8154816fffffffffffffffffffffffffffffffff02191690836fffffffffffffffffffffffffffffffff16021790555090505060006040518060e001604052806380ddbdb460e01b7bffffffffffffffffffffffffffffffffffffffffffffffffffffffff19167bffffffffffffffffffffffffffffffffffffffffffffffffffffffff19168152602001635fd019ad60e01b7bffffffffffffffffffffffffffffffffffffffffffffffffffffffff19167bffffffffffffffffffffffffffffffffffffffffffffffffffffffff19168152602001636e16ead260e01b7bffffffffffffffffffffffffffffffffffffffffffffffffffffffff19167bffffffffffffffffffffffffffffffffffffffffffffffffffffffff19168152602001635d8350b460e01b7bffffffffffffffffffffffffffffffffffffffffffffffffffffffff19167bffffffffffffffffffffffffffffffffffffffffffffffffffffffff1916815260200163d3ab388860e01b7bffffffffffffffffffffffffffffffffffffffffffffffffffffffff19167bffffffffffffffffffffffffffffffffffffffffffffffffffffffff1916815260200163ee47304d60e01b7bffffffffffffffffffffffffffffffffffffffffffffffffffffffff19167bffffffffffffffffffffffffffffffffffffffffffffffffffffffff1916815260200163eec3f6f160e01b7bffffffffffffffffffffffffffffffffffffffffffffffffffffffff19167bffffffffffffffffffffffffffffffffffffffffffffffffffffffff191681526020015090506000600090505b815060078110156130c857600160056000506000848460078110151561305257fe5b60200201517bffffffffffffffffffffffffffffffffffffffffffffffffffffffff19167bffffffffffffffffffffffffffffffffffffffffffffffffffffffff1916815260200190815260200160002060006101000a81548160ff0219169083151502179055505b8080600101915050613030565b506001600160146101000a81548160ff021916908315150217905550505b565b60006000600090505b835181101561315b578273ffffffffffffffffffffffffffffffffffffffff16848281518110151561311f57fe5b602002602001015173ffffffffffffffffffffffffffffffffffffffff16141561314d576001915050613165565b5b80806001019150506130f1565b5060009050613165565b92915050565b600061317e42613a7e909063ffffffff16565b905080505b90565b600460009054906101000a900473ffffffffffffffffffffffffffffffffffffffff1673ffffffffffffffffffffffffffffffffffffffff1663e97dcb626040518163ffffffff1660e01b8152600401600060405180830381600087803b1580156131f15760006000fd5b505af1158015613206573d600060003e3d6000fd5b50505050600260066000505414151515613255576040517f08c379a000000000000000000000000000000000000000000000000000000000815260040161324c90614aa3565b60405180910390fd5b600260066000508190909055505b565b613273613d8463ffffffff16565b600060009054906101000a900473ffffffffffffffffffffffffffffffffffffffff1673ffffffffffffffffffffffffffffffffffffffff1663bf86d6906040518163ffffffff1660e01b815260040160206040518083038186803b1580156132dc5760006000fd5b505afa1580156132f1573d600060003e3d6000fd5b505050506040513d601f19601f8201168201806040525081019061331591906141be565b151515613357576040517f08c379a000000000000000000000000000000000000000000000000000000000815260040161334e906149a7565b60405180910390fd5b5b565b60006133868261336e61316b63ffffffff16565b67ffffffffffffffff16613ce790919063ffffffff16565b905080505b919050565b60007001000000000000000000000000000000008210151561341d576040517f08c379a00000000000000000000000000000000000000000000000000000000081526004018080602001828103825260128152602001807f6d6f7265207468616e203132382062697473000000000000000000000000000081526020015060200191505060405180910390fd5b819050613425565b919050565b60016006600050819090905550600460009054906101000a900473ffffffffffffffffffffffffffffffffffffffff1673ffffffffffffffffffffffffffffffffffffffff1663e9fad8ee6040518163ffffffff1660e01b8152600401600060405180830381600087803b1580156134a25760006000fd5b505af11580156134b7573d600060003e3d6000fd5b505050505b565b600060009054906101000a900473ffffffffffffffffffffffffffffffffffffffff1673ffffffffffffffffffffffffffffffffffffffff1663d3419bf36040518163ffffffff1660e01b815260040160206040518083038186803b1580156135275760006000fd5b505afa15801561353c573d600060003e3d6000fd5b505050506040513d601f19601f8201168201806040525081019061356091906142ad565b73ffffffffffffffffffffffffffffffffffffffff1663a6c26a0c827f00000000000000000000000000000000000000000000000000000000000000006040518363ffffffff1660e01b81526004016135ba92919061489d565b600060405180830381600087803b1580156135d55760006000fd5b505af11580156135ea573d600060003e3d6000fd5b505050505b50565b600060008251905060008111151561363f576040517f08c379a000000000000000000000000000000000000000000000000000000000815260040161363690614ae2565b60405180910390fd5b6000600060005b60028411156137f25785600081518110151561365e57fe5b60200260200101519150815085600081518110151561367957fe5b6020026020010151905080506000600190505b848110156136d85786818151811015156136a257fe5b602002602001015193508350828410156136bc5783925082505b818411156136ca5783915081505b5b808060010191505061368c565b50808214156136ed5781945050505050613870565b60006002850367ffffffffffffffff8111801561370a5760006000fd5b506040519080825280602002602001820160405280156137395781602001602082028036833780820191505090505b5090506000600060006000600090505b888110156137db578a8181518110151561375f57fe5b6020026020010151975087508688148015613778575081155b15613788576001915081506137cd565b8588148015613795575082155b156137a5576001925082506137cc565b8785858060010196508151811015156137ba57fe5b60200260200101909081815260200150505b5b5b8080600101915050613749565b506002880397508750839950895050505050613646565b60018414156138215785600081518110151561380a57fe5b60200260200101519450505050506138705661386b565b61386086600181518110151561383357fe5b602002602001015187600081518110151561384a57fe5b6020026020010151613dd990919063ffffffff16565b945050505050613870565b505050505b919050565b60006000600060001985870985870292508281108382030391505060008114156138b8576000841115156138a95760006000fd5b8382049250829250505061396f565b80841115156138c75760006000fd5b600084868809905082811182039150808303925060008586600003169050808604955080840493506001818260000304019050808302841793508350600060028760030218905080870260020381029050805080870260020381029050805080870260020381029050805080870260020381029050805080870260020381029050805080870260020381029050805080850295508550859550505050505061396f5650505050505b9392505050565b600060008214806139965750828283850292508281151561399357fe5b04145b1515613a0d576040517f08c379a000000000000000000000000000000000000000000000000000000000815260040180806020018281038252600c8152602001807f6d756c2d6f766572666c6f77000000000000000000000000000000000000000081526020015060200191505060405180910390fd5b5b92915050565b6000818310613a235781613a25565b825b9050613a2c565b92915050565b6000613a4d8383670de0b6b3a764000061387563ffffffff16565b905080505b92915050565b6000613a7383670de0b6b3a76400008461387563ffffffff16565b905080505b92915050565b60006801000000000000000082101515613b03576040517f08c379a00000000000000000000000000000000000000000000000000000000081526004018080602001828103825260118152602001807f6d6f7265207468616e203634206269747300000000000000000000000000000081526020015060200191505060405180910390fd5b819050613b0b565b919050565b60007f800000000000000000000000000000000000000000000000000000000000000082101515613bac576040517f08c379a00000000000000000000000000000000000000000000000000000000081526004018080602001828103825260128152602001807f746f6f2062696720666f7220696e74323536000000000000000000000000000081526020015060200191505060405180910390fd5b819050613bb4565b919050565b60006000828403905060008312158015613bd35750838113155b80613be95750600083128015613be857508381135b5b1515613c40576040517f08c379a0000000000000000000000000000000000000000000000000000000008152600401808060200182810382526024815260200180614d406024913960400191505060405180910390fd5b80915050613c4a56505b92915050565b60006000828401905060008312158015613c6a5750838112155b80613c805750600083128015613c7f57508381125b5b1515613cd7576040517f08c379a0000000000000000000000000000000000000000000000000000000008152600401808060200182810382526021815260200180614d1f6021913960400191505060405180910390fd5b80915050613ce156505b92915050565b60008267ffffffffffffffff1682840191508167ffffffffffffffff1610151515613d7d576040517f08c379a000000000000000000000000000000000000000000000000000000000815260040180806020018281038252600c8152602001807f6164642d6f766572666c6f77000000000000000000000000000000000000000081526020015060200191505060405180910390fd5b5b92915050565b600060149054906101000a900460ff16151515613dd6576040517f08c379a0000000000000000000000000000000000000000000000000000000008152600401613dcd90614b9f565b60405180910390fd5b5b565b60006002600283811515613de957fe5b06600285811515613df657fe5b0601811515613e0157fe5b04600283811515613e0e57fe5b04600285811515613e1b57fe5b0401019050613e25565b92915050565b828054828255906000526020600020908101928215613ea4579160200282015b82811115613ea35782518260006101000a81548173ffffffffffffffffffffffffffffffffffffffff021916908373ffffffffffffffffffffffffffffffffffffffff16021790555091602001919060010190613e4b565b5b509050613eb19190613f55565b5090565b828054828255906000526020600020908101928215613f44579160200282015b82811115613f4357823573ffffffffffffffffffffffffffffffffffffffff168260006101000a81548173ffffffffffffffffffffffffffffffffffffffff021916908373ffffffffffffffffffffffffffffffffffffffff16021790555091602001919060010190613ed5565b5b509050613f519190613f55565b5090565b613f5a565b80821115613f745760008181506000905550600101613f5a565b509056614d1d565b600082601f8301121515613f8e578081fd5b81356020613fa3613f9e83614cd1565b614ca6565b80838252828201915082860187848587028901011115613fc1578586fd5b855b85811015613fe55781358452848401935084820191505b600181019050613fc3565b5050809450505050505b92915050565b60008135905061400481614cf4565b5b919050565b60008135905080600f0b811415156140225760006000fd5b5b919050565b6000813590506fffffffffffffffffffffffffffffffff81168114151561404f5760006000fd5b5b919050565b60008135905067ffffffffffffffff8116811415156140745760006000fd5b5b919050565b600060006040838503121561408d578182fd5b823567ffffffffffffffff8111156140a3578283fd5b808401905084601f82011215156140b8578283fd5b803560206140cd6140c883614cd1565b614ca6565b808382528282019150828501898485870288010111156140eb578788fd5b8795505b8486101561411c57803561410281614cf4565b80845250838301925083810190505b6001860195506140ef565b50809650505061412d818701613ff5565b93505050505b9250929050565b60006020828403121561414b578081fd5b813567ffffffffffffffff811115614161578182fd5b61416d84828501613f7c565b9150505b92915050565b600060006040838503121561418a578182fd5b823567ffffffffffffffff8111156141a0578283fd5b6141ac85828601613f7c565b925050602083013590505b9250929050565b6000602082840312156141cf578081fd5b8151801515811415156141e0578182fd5b809150505b92915050565b6000602082840312156141fc578081fd5b81357fffffffff0000000000000000000000000000000000000000000000000000000081168114151561422d578182fd5b809150505b92915050565b600060208284031215614249578081fd5b815161425481614cf4565b809150505b92915050565b600060208284031215614270578081fd5b813561427b81614cf4565b809150505b92915050565b600060208284031215614297578081fd5b81516142a281614cf4565b809150505b92915050565b6000602082840312156142be578081fd5b81516142c981614cf4565b809150505b92915050565b6000602082840312156142e5578081fd5b81516142f081614cf4565b809150505b92915050565b60006020828403121561430c578081fd5b813561431781614cf4565b809150505b92915050565b60006000600060408486031215614337578081fd5b833561434281614cf4565b80935050602084013567ffffffffffffffff80821115614360578283fd5b818601915086601f8301121515614375578283fd5b813581811115614383578384fd5b876020602083028501011115614397578384fd5b6020830194508093505050505b9250925092565b6000602082840312156143bc578081fd5b6143c58261400a565b90505b92915050565b6000600060008385036101008112156143e5578182fd5b8435935060c07fffffffffffffffffffffffffffffffffffffffffffffffffffffffffffffffe082011215614418578182fd5b5060405160c0810181811067ffffffffffffffff8211171561443657fe5b806040525061444760208601614028565b815261445560408601614028565b602082015261446660608601614028565b604082015261447760808601614055565b606082015261448860a0860161400a565b608082015261449960c0860161400a565b60a08201528092505060e084013590505b9250925092565b6000600082840360808112156144c5578283fd5b60608112156144d2578283fd5b506040516060810181811067ffffffffffffffff821117156144f057fe5b80604052508335815261450560208501614055565b602082015261451660408501614028565b60408201528092505061452b60608401614055565b90505b9250929050565b600060208284031215614546578081fd5b61454f82614028565b90505b92915050565b600060208284031215614569578081fd5b813590505b92915050565b600060208284031215614585578081fd5b815190505b92915050565b6000602082840312156145a1578081fd5b6145aa82614055565b90505b92915050565b60007f6d6178537465707300000000000000000000000000000000000000000000000082526008820190505b919050565b60007f6572726f72496e74657276616c000000000000000000000000000000000000008252600d820190505b919050565b60007f61636365707461626c654572726f7200000000000000000000000000000000008252600f820190505b919050565b60007f6d696e54696d654265747765656e55706461746573000000000000000000000082526015820190505b919050565b60007f6d6178526174650000000000000000000000000000000000000000000000000082526007820190505b919050565b60007f72656d6f76655265666572656e6365506f6f6c0000000000000000000000000082526013820190505b919050565b60007f696e74657265737452617465537465700000000000000000000000000000000082526010820190505b919050565b60007f6164645265666572656e6365506f6f6c0000000000000000000000000000000082526010820190505b919050565b60007f6d696e526174650000000000000000000000000000000000000000000000000082526007820190505b919050565b600060208201905073ffffffffffffffffffffffffffffffffffffffff831682525b92915050565b600060408201905073ffffffffffffffffffffffffffffffffffffffff841682526fffffffffffffffffffffffffffffffff831660208301525b9392505050565b600060208083018184528085518083526040860191508387019250845b8181101561482a5773ffffffffffffffffffffffffffffffffffffffff8451168352848301925084840193505b6001810190506147f2565b50508093505050505b92915050565b600060208201905082151582525b92915050565b600060208201905073ffffffffffffffffffffffffffffffffffffffff831682525b92915050565b600060208201905073ffffffffffffffffffffffffffffffffffffffff831682525b92915050565b600060408201905073ffffffffffffffffffffffffffffffffffffffff80851683528084166020840152505b9392505050565b600060408201905073ffffffffffffffffffffffffffffffffffffffff8416825282151560208301525b9392505050565b600060208201905082600f0b82525b92915050565b60006020820190508282525b92915050565b60006080820190508582528460208301526fffffffffffffffffffffffffffffffff8416604083015267ffffffffffffffff831660608301525b95945050505050565b600060608201905084825267ffffffffffffffff841660208301526fffffffffffffffffffffffffffffffff831660408301525b949350505050565b600060208252601160208301527f50726f746f636f6c2073687574646f776e00000000000000000000000000000060408301526060820190505b919050565b600060208252600960208301527f4e6f7420666f756e64000000000000000000000000000000000000000000000060408301526060820190505b919050565b600060208252601460208301527f506f6f6c206e6f7420696e697469616c697a656400000000000000000000000060408301526060820190505b919050565b600060208252600e60208301527f4e6f7420417574686f72697a656400000000000000000000000000000000000060408301526060820190505b919050565b600060208252600d60208301527f4c50205265656e7472616e63790000000000000000000000000000000000000060408301526060820190505b919050565b600060208252600560208301527f656d70747900000000000000000000000000000000000000000000000000000060408301526060820190505b919050565b600060208252601060208301527f557064617465206e6f742072656164790000000000000000000000000000000060408301526060820190505b919050565b600060208252600d60208301527f416c72656164792061646465640000000000000000000000000000000000000060408301526060820190505b919050565b600060208252601360208301527f436f6e74726163742069732073746f707065640000000000000000000000000060408301526060820190505b919050565b60006020820190506fffffffffffffffffffffffffffffffff831682525b92915050565b600060c0820190506fffffffffffffffffffffffffffffffff8089168352808816602084015280871660408401525067ffffffffffffffff8516606083015283600f0b608083015282600f0b60a08301525b979650505050505050565b60006020820190508282525b92915050565b60006040820190508382528260208301525b9392505050565b600060208201905067ffffffffffffffff831682525b92915050565b6000604051905081810181811067ffffffffffffffff82111715614cc657fe5b80604052505b919050565b600067ffffffffffffffff821115614ce557fe5b6020602083020190505b919050565b73ffffffffffffffffffffffffffffffffffffffff811681141515614d195760006000fd5b5b50565bfe5369676e6564536166654d6174683a206164646974696f6e206f766572666c6f775369676e6564536166654d6174683a207375627472616374696f6e206f766572666c6f77a2646970667358221220d133d2fbdfd37e61c179305ec20d94d88cbadbdd9dc99c79e8ac49a32f2d0a0864736f6c63430007060033",
  "linkReferences": {},
  "deployedLinkReferences": {}
}