{
  "_format": "hh-sol-artifact-1",
  "contractName": "GovernorTestable",
  "sourceName": "contracts/mocks/GovernorTestable.sol",
  "abi": [
    {
      "inputs": [],
      "stateMutability": "nonpayable",
      "type": "constructor"
    },
    {
      "anonymous": false,
      "inputs": [
        {
          "indexed": true,
          "internalType": "string",
          "name": "contractName",
          "type": "string"
        },
        {
          "indexed": true,
          "internalType": "address",
          "name": "contractAddress",
          "type": "address"
        }
      ],
      "name": "ContractUpgraded",
      "type": "event"
    },
    {
      "anonymous": false,
      "inputs": [
        {
          "indexed": true,
          "internalType": "address",
          "name": "newGovernor",
          "type": "address"
        }
      ],
      "name": "ProtocolUpgraded",
      "type": "event"
    },
    {
      "anonymous": false,
      "inputs": [],
      "name": "ShutdownExecuted",
      "type": "event"
    },
    {
      "anonymous": false,
      "inputs": [
        {
          "indexed": true,
          "internalType": "address",
          "name": "locker",
          "type": "address"
        },
        {
          "indexed": false,
          "internalType": "uint256",
          "name": "count",
          "type": "uint256"
        }
      ],
      "name": "ShutdownTokensLocked",
      "type": "event"
    },
    {
      "anonymous": false,
      "inputs": [
        {
          "indexed": true,
          "internalType": "address",
          "name": "locker",
          "type": "address"
        },
        {
          "indexed": false,
          "internalType": "uint256",
          "name": "count",
          "type": "uint256"
        }
      ],
      "name": "ShutdownTokensUnlocked",
      "type": "event"
    },
    {
      "inputs": [],
      "name": "EMERGENCY_SHUTDOWN_THRESHOLD",
      "outputs": [
        {
          "internalType": "uint256",
          "name": "",
          "type": "uint256"
        }
      ],
      "stateMutability": "view",
      "type": "function"
    },
    {
      "inputs": [],
      "name": "accounting",
      "outputs": [
        {
          "internalType": "contract IAccounting",
          "name": "",
          "type": "address"
        }
      ],
      "stateMutability": "view",
      "type": "function"
    },
    {
      "inputs": [],
      "name": "auctions",
      "outputs": [
        {
          "internalType": "contract IAuctions",
          "name": "",
          "type": "address"
        }
      ],
      "stateMutability": "view",
      "type": "function"
    },
    {
      "inputs": [
        {
          "internalType": "uint64",
          "name": "rewardsPeriod",
          "type": "uint64"
        }
      ],
      "name": "calculateCurrentDailyRewardCount",
      "outputs": [
        {
          "internalType": "uint256",
          "name": "result",
          "type": "uint256"
        }
      ],
      "stateMutability": "pure",
      "type": "function"
    },
    {
      "inputs": [
        {
          "internalType": "uint64",
          "name": "bootsrapPeriod",
          "type": "uint64"
        }
      ],
      "name": "calculateRewardsForBootstrapPeriod",
      "outputs": [
        {
          "internalType": "uint256",
          "name": "result",
          "type": "uint256"
        }
      ],
      "stateMutability": "pure",
      "type": "function"
    },
    {
      "inputs": [],
      "name": "currentDailyRewardCount",
      "outputs": [
        {
          "internalType": "uint256",
          "name": "",
          "type": "uint256"
        }
      ],
      "stateMutability": "view",
      "type": "function"
    },
    {
      "inputs": [],
      "name": "currentPeriod",
      "outputs": [
        {
          "internalType": "uint64",
          "name": "period",
          "type": "uint64"
        }
      ],
      "stateMutability": "view",
      "type": "function"
    },
    {
      "inputs": [],
      "name": "currentPhase",
      "outputs": [
        {
          "internalType": "uint8",
          "name": "",
          "type": "uint8"
        }
      ],
      "stateMutability": "view",
      "type": "function"
    },
    {
      "inputs": [],
      "name": "deployer",
      "outputs": [
        {
          "internalType": "address",
          "name": "",
          "type": "address"
        }
      ],
      "stateMutability": "view",
      "type": "function"
    },
    {
      "inputs": [],
      "name": "emergencyShutdownThresholdMet",
      "outputs": [
        {
          "internalType": "bool",
          "name": "",
          "type": "bool"
        }
      ],
      "stateMutability": "view",
      "type": "function"
    },
    {
      "inputs": [
        {
          "internalType": "address",
          "name": "",
          "type": "address"
        }
      ],
      "name": "emergencyShutdownTokensLocked",
      "outputs": [
        {
          "internalType": "uint256",
          "name": "",
          "type": "uint256"
        }
      ],
      "stateMutability": "view",
      "type": "function"
    },
    {
      "inputs": [],
      "name": "enforcedDecentralization",
      "outputs": [
        {
          "internalType": "contract IEnforcedDecentralization",
          "name": "",
          "type": "address"
        }
      ],
      "stateMutability": "view",
      "type": "function"
    },
    {
      "inputs": [
        {
          "internalType": "address",
          "name": "target",
          "type": "address"
        },
        {
          "internalType": "string",
          "name": "signature",
          "type": "string"
        },
        {
          "internalType": "bytes",
          "name": "data",
          "type": "bytes"
        }
      ],
      "name": "execute",
      "outputs": [
        {
          "internalType": "bool",
          "name": "success",
          "type": "bool"
        },
        {
          "internalType": "bytes",
          "name": "returnData",
          "type": "bytes"
        }
      ],
      "stateMutability": "nonpayable",
      "type": "function"
    },
    {
      "inputs": [],
      "name": "executeEmergencyShutdown",
      "outputs": [],
      "stateMutability": "nonpayable",
      "type": "function"
    },
    {
      "inputs": [],
      "name": "executeShutdown",
      "outputs": [],
      "stateMutability": "nonpayable",
      "type": "function"
    },
    {
      "inputs": [],
      "name": "firstPeriod",
      "outputs": [
        {
          "internalType": "uint64",
          "name": "",
          "type": "uint64"
        }
      ],
      "stateMutability": "view",
      "type": "function"
    },
    {
      "inputs": [],
      "name": "hue",
      "outputs": [
        {
          "internalType": "contract IHue",
          "name": "",
          "type": "address"
        }
      ],
      "stateMutability": "view",
      "type": "function"
    },
    {
      "inputs": [],
      "name": "huePositionNFT",
      "outputs": [
        {
          "internalType": "contract IPositionNFT",
          "name": "",
          "type": "address"
        }
      ],
      "stateMutability": "view",
      "type": "function"
    },
    {
      "inputs": [
        {
          "internalType": "contract IAuctions",
          "name": "_auctions",
          "type": "address"
        },
        {
          "internalType": "contract ITCP",
          "name": "_tcp",
          "type": "address"
        },
        {
          "internalType": "contract ILiquidations",
          "name": "_liquidations",
          "type": "address"
        },
        {
          "internalType": "contract IMarket",
          "name": "_market",
          "type": "address"
        },
        {
          "internalType": "contract IRates",
          "name": "_rates",
          "type": "address"
        },
        {
          "internalType": "contract IPrices",
          "name": "_prices",
          "type": "address"
        },
        {
          "internalType": "contract IProtocolLock",
          "name": "_protocolLock",
          "type": "address"
        },
        {
          "internalType": "contract IRewards",
          "name": "_rewards",
          "type": "address"
        },
        {
          "internalType": "contract ISettlement",
          "name": "_settlement",
          "type": "address"
        }
      ],
      "name": "initialize",
      "outputs": [],
      "stateMutability": "nonpayable",
      "type": "function"
    },
    {
      "inputs": [],
      "name": "isShutdown",
      "outputs": [
        {
          "internalType": "bool",
          "name": "",
          "type": "bool"
        }
      ],
      "stateMutability": "view",
      "type": "function"
    },
    {
      "inputs": [],
      "name": "lendHue",
      "outputs": [
        {
          "internalType": "contract ILendHue",
          "name": "",
          "type": "address"
        }
      ],
      "stateMutability": "view",
      "type": "function"
    },
    {
      "inputs": [],
      "name": "liquidations",
      "outputs": [
        {
          "internalType": "contract ILiquidations",
          "name": "",
          "type": "address"
        }
      ],
      "stateMutability": "view",
      "type": "function"
    },
    {
      "inputs": [
        {
          "internalType": "uint256",
          "name": "count",
          "type": "uint256"
        }
      ],
      "name": "lockTokensForEmergencyShutdown",
      "outputs": [],
      "stateMutability": "nonpayable",
      "type": "function"
    },
    {
      "inputs": [],
      "name": "market",
      "outputs": [
        {
          "internalType": "contract IMarket",
          "name": "",
          "type": "address"
        }
      ],
      "stateMutability": "view",
      "type": "function"
    },
    {
      "inputs": [],
      "name": "mintCapsUnset",
      "outputs": [
        {
          "internalType": "bool",
          "name": "",
          "type": "bool"
        }
      ],
      "stateMutability": "view",
      "type": "function"
    },
    {
      "inputs": [
        {
          "internalType": "address",
          "name": "to",
          "type": "address"
        },
        {
          "internalType": "uint256",
          "name": "count",
          "type": "uint256"
        }
      ],
      "name": "mintIncentive",
      "outputs": [],
      "stateMutability": "nonpayable",
      "type": "function"
    },
    {
      "inputs": [
        {
          "internalType": "address",
          "name": "to",
          "type": "address"
        },
        {
          "internalType": "uint256",
          "name": "count",
          "type": "uint256"
        }
      ],
      "name": "mintTCP",
      "outputs": [],
      "stateMutability": "nonpayable",
      "type": "function"
    },
    {
      "inputs": [],
      "name": "periodLength",
      "outputs": [
        {
          "internalType": "uint64",
          "name": "",
          "type": "uint64"
        }
      ],
      "stateMutability": "view",
      "type": "function"
    },
    {
      "inputs": [],
      "name": "prices",
      "outputs": [
        {
          "internalType": "contract IPrices",
          "name": "",
          "type": "address"
        }
      ],
      "stateMutability": "view",
      "type": "function"
    },
    {
      "inputs": [],
      "name": "protocolLock",
      "outputs": [
        {
          "internalType": "contract IProtocolLock",
          "name": "",
          "type": "address"
        }
      ],
      "stateMutability": "view",
      "type": "function"
    },
    {
      "inputs": [],
      "name": "rates",
      "outputs": [
        {
          "internalType": "contract IRates",
          "name": "",
          "type": "address"
        }
      ],
      "stateMutability": "view",
      "type": "function"
    },
    {
      "inputs": [
        {
          "internalType": "address",
          "name": "caller",
          "type": "address"
        }
      ],
      "name": "requireDebtServicesAccess",
      "outputs": [],
      "stateMutability": "view",
      "type": "function"
    },
    {
      "inputs": [
        {
          "internalType": "address",
          "name": "caller",
          "type": "address"
        }
      ],
      "name": "requireHueReservesBurnAccess",
      "outputs": [],
      "stateMutability": "view",
      "type": "function"
    },
    {
      "inputs": [
        {
          "internalType": "address",
          "name": "caller",
          "type": "address"
        }
      ],
      "name": "requireUpdatePositionAccess",
      "outputs": [],
      "stateMutability": "view",
      "type": "function"
    },
    {
      "inputs": [
        {
          "internalType": "address",
          "name": "target",
          "type": "address"
        },
        {
          "internalType": "string",
          "name": "signature",
          "type": "string"
        }
      ],
      "name": "requireValidAction",
      "outputs": [],
      "stateMutability": "view",
      "type": "function"
    },
    {
      "inputs": [],
      "name": "rewards",
      "outputs": [
        {
          "internalType": "contract IRewards",
          "name": "",
          "type": "address"
        }
      ],
      "stateMutability": "view",
      "type": "function"
    },
    {
      "inputs": [
        {
          "internalType": "uint64",
          "name": "phaseOneStartTime",
          "type": "uint64"
        }
      ],
      "name": "setPhaseOneStartTime",
      "outputs": [],
      "stateMutability": "nonpayable",
      "type": "function"
    },
    {
      "inputs": [
        {
          "internalType": "address[]",
          "name": "tokenIncentiveMinters",
          "type": "address[]"
        },
        {
          "internalType": "uint256[]",
          "name": "caps",
          "type": "uint256[]"
        }
      ],
      "name": "setTokenIncentiveCaps",
      "outputs": [],
      "stateMutability": "nonpayable",
      "type": "function"
    },
    {
      "inputs": [],
      "name": "settlement",
      "outputs": [
        {
          "internalType": "contract ISettlement",
          "name": "",
          "type": "address"
        }
      ],
      "stateMutability": "view",
      "type": "function"
    },
    {
      "inputs": [],
      "name": "shutdownTime",
      "outputs": [
        {
          "internalType": "uint64",
          "name": "",
          "type": "uint64"
        }
      ],
      "stateMutability": "view",
      "type": "function"
    },
    {
      "inputs": [],
      "name": "tcp",
      "outputs": [
        {
          "internalType": "contract ITCP",
          "name": "",
          "type": "address"
        }
      ],
      "stateMutability": "view",
      "type": "function"
    },
    {
      "inputs": [],
      "name": "timelock",
      "outputs": [
        {
          "internalType": "address",
          "name": "",
          "type": "address"
        }
      ],
      "stateMutability": "view",
      "type": "function"
    },
    {
      "inputs": [
        {
          "internalType": "address",
          "name": "",
          "type": "address"
        }
      ],
      "name": "tokenIncentiveMintCaps",
      "outputs": [
        {
          "internalType": "uint256",
          "name": "",
          "type": "uint256"
        }
      ],
      "stateMutability": "view",
      "type": "function"
    },
    {
      "inputs": [],
      "name": "unlockTokensForEmergencyShutdown",
      "outputs": [],
      "stateMutability": "nonpayable",
      "type": "function"
    },
    {
      "inputs": [
        {
          "internalType": "contract IAuctions",
          "name": "_auctions",
          "type": "address"
        }
      ],
      "name": "upgradeAuctions",
      "outputs": [],
      "stateMutability": "nonpayable",
      "type": "function"
    },
    {
      "inputs": [
        {
          "internalType": "contract ILiquidations",
          "name": "_liquidations",
          "type": "address"
        }
      ],
      "name": "upgradeLiquidations",
      "outputs": [],
      "stateMutability": "nonpayable",
      "type": "function"
    },
    {
      "inputs": [
        {
          "internalType": "contract IMarket",
          "name": "_market",
          "type": "address"
        }
      ],
      "name": "upgradeMarket",
      "outputs": [],
      "stateMutability": "nonpayable",
      "type": "function"
    },
    {
      "inputs": [
        {
          "internalType": "contract IPrices",
          "name": "_prices",
          "type": "address"
        }
      ],
      "name": "upgradePrices",
      "outputs": [],
      "stateMutability": "nonpayable",
      "type": "function"
    },
    {
      "inputs": [
        {
          "internalType": "address",
          "name": "newGovernor",
          "type": "address"
        }
      ],
      "name": "upgradeProtocol",
      "outputs": [],
      "stateMutability": "nonpayable",
      "type": "function"
    },
    {
      "inputs": [
        {
          "internalType": "contract IRates",
          "name": "_rates",
          "type": "address"
        }
      ],
      "name": "upgradeRates",
      "outputs": [],
      "stateMutability": "nonpayable",
      "type": "function"
    },
    {
      "inputs": [
        {
          "internalType": "contract IRewards",
          "name": "_rewards",
          "type": "address"
        }
      ],
      "name": "upgradeRewards",
      "outputs": [],
      "stateMutability": "nonpayable",
      "type": "function"
    },
    {
      "inputs": [
        {
          "internalType": "contract ISettlement",
          "name": "_settlement",
          "type": "address"
        }
      ],
      "name": "upgradeSettlement",
      "outputs": [],
      "stateMutability": "nonpayable",
      "type": "function"
    },
    {
      "inputs": [
        {
          "internalType": "bytes4",
          "name": "",
          "type": "bytes4"
        }
      ],
      "name": "validUpdate",
      "outputs": [
        {
          "internalType": "bool",
          "name": "",
          "type": "bool"
        }
      ],
      "stateMutability": "view",
      "type": "function"
    }
  ],
  "bytecode": "0x60c06040526001601560146101000a81548160ff0219169083151502179055507fffffffffffffffffffffffffffffffffffffffffffffffffffffffffffffffff601660005090905560016017600050909055348015620000605760006000fd5b505b61dead61dead61dead61dead61dead61dead5b5b620151805b60018167ffffffffffffffff1662000098620002d660201b60201c565b67ffffffffffffffff16811515620000ac57fe5b040367ffffffffffffffff1660a08167ffffffffffffffff1660c01b815260080150508067ffffffffffffffff1660808167ffffffffffffffff1660c01b815260080150505b50600160006000508190909055505b33601560006101000a81548173ffffffffffffffffffffffffffffffffffffffff021916908373ffffffffffffffffffffffffffffffffffffffff16021790555085600460006101000a81548173ffffffffffffffffffffffffffffffffffffffff021916908373ffffffffffffffffffffffffffffffffffffffff16021790555084600860006101000a81548173ffffffffffffffffffffffffffffffffffffffff021916908373ffffffffffffffffffffffffffffffffffffffff16021790555083600960006101000a81548173ffffffffffffffffffffffffffffffffffffffff021916908373ffffffffffffffffffffffffffffffffffffffff16021790555082600b60006101000a81548173ffffffffffffffffffffffffffffffffffffffff021916908373ffffffffffffffffffffffffffffffffffffffff16021790555081600a60006101000a81548173ffffffffffffffffffffffffffffffffffffffff021916908373ffffffffffffffffffffffffffffffffffffffff16021790555080601360006101000a81548173ffffffffffffffffffffffffffffffffffffffff021916908373ffffffffffffffffffffffffffffffffffffffff1602179055505b5050505050505b6200038c565b6000620002f042620002f860201b62004af617909060201c565b905080505b90565b600068010000000000000000821015156200037e576040517f08c379a00000000000000000000000000000000000000000000000000000000081526004018080602001828103825260118152602001807f6d6f7265207468616e203634206269747300000000000000000000000000000081526020015060200191505060405180910390fd5b81905062000387565b919050565b60805160c01c60a05160c01c616501620003d460003980612eb65280614bd6528061526e52806152fa5250806131835280614bf7528061528f528061533352506165016000f3fe60806040523480156100115760006000fd5b506004361061035c5760003560e01c80639a371c84116101c9578063ce49968211610105578063d683080f116100a3578063f5e95acb1161007d578063f5e95acb14610945578063f6fbc19214610961578063fe4772771461096b578063ff26df72146109895761035c565b8063d683080f146108f1578063e97a99b61461090d578063ef7a7cfa146109295761035c565b8063d33219b4116100df578063d33219b414610879578063d3419bf314610897578063d478b087146108b5578063d5f39488146108d35761035c565b8063ce49968214610833578063d0d8ab9a14610851578063d2ca21151461085b5761035c565b8063b6b0ea3811610172578063bf86d6901161014c578063bf86d690146107a9578063c375e6ed146107c7578063c4e3a63b146107e5578063cb9b7b7f146108035761035c565b8063b6b0ea3814610753578063b8188c8114610771578063b971dc051461078d5761035c565b8063a1c1f90d116101a3578063a1c1f90d146106fd578063a43c36af14610719578063a89f51ae146107355761035c565b80639a371c84146106915780639d35b3f2146106af5780639ec5a894146106df5761035c565b8063511606301161029857806380f556051161024157806388a4bfb71161021b57806388a4bfb71461061f5780638f40b82f1461063b5780639622cd8f146106575780639624e83e146106735761035c565b806380f55605146105c757806383208f53146105e557806385aa6103146106015761035c565b80637c114fed116102725780637c114fed1461057357806380304d091461058f57806380b5c665146105ab5761035c565b8063511606301461051b5780635856908114610539578063734875a8146105575761035c565b806332374174116103055780633f88b0c5116102df5780633f88b0c51461049357806343f48fbd146104c35780634b414e32146104e15780634cd7a315146104ff5761035c565b8063323741741461042657806333daf5d41461044457806336fc02f4146104755761035c565b8063113cf1ab11610336578063113cf1ab146103ce578063232948ea146103fe5780632cae0269146104085761035c565b80630132ebc014610362578063055ad42e1461039257806306040618146103b05761035c565b60006000fd5b61037c60048036038101906103779190615c3e565b6109a5565b6040516103899190616429565b60405180910390f35b61039a6109c0565b6040516103a79190616457565b60405180910390f35b6103b8610a6e565b6040516103c5919061643b565b60405180910390f35b6103e860048036038101906103e391906159d8565b610a86565b6040516103f59190615fac565b60405180910390f35b610406610aab565b005b610410610b96565b60405161041d9190616085565b60405180910390f35b61042e610bbc565b60405161043b919061605d565b60405180910390f35b61045e60048036038101906104599190615889565b610be2565b60405161046c929190615fc0565b60405180910390f35b61047d610e27565b60405161048a91906161ed565b60405180910390f35b6104ad60048036038101906104a891906157dc565b610e4d565b6040516104ba9190616429565b60405180910390f35b6104cb610e68565b6040516104d89190616175565b60405180910390f35b6104e9610e8e565b6040516104f69190616035565b60405180910390f35b61051960048036038101906105149190615930565b610eb4565b005b610523611089565b60405161053091906161c5565b60405180910390f35b6105416110af565b60405161054e919061643b565b60405180910390f35b610571600480360381019061056c91906157dc565b6110c9565b005b61058d600480360381019061058891906157dc565b611184565b005b6105a960048036038101906105a49190615bb8565b611297565b005b6105c560048036038101906105c091906157dc565b6116c6565b005b6105cf6118db565b6040516105dc91906160d5565b60405180910390f35b6105ff60048036038101906105fa9190615b6a565b611901565b005b610609611c7f565b604051610616919061600d565b60405180910390f35b61063960048036038101906106349190615c06565b611ca5565b005b61065560048036038101906106509190615bdf565b611ee5565b005b610671600480360381019061066c91906157dc565b612263565b005b61067b61231e565b6040516106889190615fe5565b60405180910390f35b610699612344565b6040516106a691906160ad565b60405180910390f35b6106c960048036038101906106c491906157dc565b61236a565b6040516106d69190616429565b60405180910390f35b6106e7612385565b6040516106f4919061619d565b60405180910390f35b61071760048036038101906107129190615b91565b6123ab565b005b610733600480360381019061072e9190615803565b612729565b005b61073d6127c0565b60405161074a91906160fd565b60405180910390f35b61075b6127e6565b6040516107689190615fac565b60405180910390f35b61078b60048036038101906107869190615c3e565b6127f9565b005b6107a760048036038101906107a29190615b1c565b612a26565b005b6107b1612da4565b6040516107be9190615fac565b60405180910390f35b6107cf612dd4565b6040516107dc9190616429565b60405180910390f35b6107ed612eb4565b6040516107fa919061643b565b60405180910390f35b61081d60048036038101906108189190615c3e565b612ed8565b60405161082a9190616429565b60405180910390f35b61083b612ef3565b6040516108489190615fac565b60405180910390f35b61085961308b565b005b610863613181565b604051610870919061643b565b60405180910390f35b6108816131a5565b60405161088e9190615eaf565b60405180910390f35b61089f6131cb565b6040516108ac9190616125565b60405180910390f35b6108bd6131f1565b6040516108ca919061614d565b60405180910390f35b6108db613217565b6040516108e89190615eaf565b60405180910390f35b61090b60048036038101906109069190615961565b61323d565b005b61092760048036038101906109229190615a25565b6133c3565b005b610943600480360381019061093e9190615930565b6137fd565b005b61095f600480360381019061095a9190615a4c565b613a96565b005b610969614538565b005b61097361476c565b6040516109809190616429565b60405180910390f35b6109a3600480360381019061099e9190615b43565b614778565b005b60006109b682614b8863ffffffff16565b905080505b919050565b6000600a60009054906101000a900473ffffffffffffffffffffffffffffffffffffffff1673ffffffffffffffffffffffffffffffffffffffff1663055ad42e6040518163ffffffff1660e01b815260040160206040518083038186803b158015610a2b5760006000fd5b505afa158015610a40573d600060003e3d6000fd5b505050506040513d601f19601f82011682018060405250810190610a649190615c73565b9050610a6b565b90565b6000610a7e614bd263ffffffff16565b905080505b90565b601460005060205280600052604060002060009150909054906101000a900460ff1681565b600260006000505414151515610b2c576040517f08c379a000000000000000000000000000000000000000000000000000000000815260040180806020018281038252601f8152602001807f5265656e7472616e637947756172643a207265656e7472616e742063616c6c0081526020015060200191505060405180910390fd5b60026000600050819090905550610b763073ffffffffffffffffffffffffffffffffffffffff163373ffffffffffffffffffffffffffffffffffffffff1614614c4b63ffffffff16565b610b84614c9163ffffffff16565b5b5b600160006000508190909055505b565b600b60009054906101000a900473ffffffffffffffffffffffffffffffffffffffff1681565b600860009054906101000a900473ffffffffffffffffffffffffffffffffffffffff1681565b600060606001601760005054141515610c30576040517f08c379a0000000000000000000000000000000000000000000000000000000008152600401610c27906163ea565b60405180910390fd5b60006017600050819090905550610c9c601360009054906101000a900473ffffffffffffffffffffffffffffffffffffffff1673ffffffffffffffffffffffffffffffffffffffff163373ffffffffffffffffffffffffffffffffffffffff1614614c4b63ffffffff16565b600a60009054906101000a900473ffffffffffffffffffffffffffffffffffffffff1673ffffffffffffffffffffffffffffffffffffffff1663a43c36af86866040518363ffffffff1660e01b8152600401610cf9929190615f44565b60006040518083038186803b158015610d125760006000fd5b505afa158015610d27573d600060003e3d6000fd5b505050508473ffffffffffffffffffffffffffffffffffffffff16610d5185614e6363ffffffff16565b84604051602001610d63929190615cee565b604051602081830303815290604052604051610d7f9190615d39565b6000604051808303816000865af19150503d8060008114610dbc576040519150601f19603f3d011682016040523d82523d6000602084013e610dc1565b606091505b5080925081935050508181901515610e0f576040517f08c379a0000000000000000000000000000000000000000000000000000000008152600401610e069190616215565b60405180910390fd5b505b600160176000508190909055505b935093915050565b600760009054906101000a900473ffffffffffffffffffffffffffffffffffffffff1681565b60026000506020528060005260406000206000915090505481565b601060009054906101000a900473ffffffffffffffffffffffffffffffffffffffff1681565b600a60009054906101000a900473ffffffffffffffffffffffffffffffffffffffff1681565b600260006000505414151515610f35576040517f08c379a000000000000000000000000000000000000000000000000000000000815260040180806020018281038252601f8152602001807f5265656e7472616e637947756172643a207265656e7472616e742063616c6c0081526020015060200191505060405180910390fd5b60026000600050819090905550610f9a81600360005060003373ffffffffffffffffffffffffffffffffffffffff1673ffffffffffffffffffffffffffffffffffffffff16815260200190815260200160002060005054614e7990919063ffffffff16565b600360005060003373ffffffffffffffffffffffffffffffffffffffff1673ffffffffffffffffffffffffffffffffffffffff168152602001908152602001600020600050819090905550600760009054906101000a900473ffffffffffffffffffffffffffffffffffffffff1673ffffffffffffffffffffffffffffffffffffffff1663449a52f883836040518363ffffffff1660e01b8152600401611042929190615f7d565b600060405180830381600087803b15801561105d5760006000fd5b505af1158015611072573d600060003e3d6000fd5b505050505b600160006000508190909055505b5050565b601260009054906101000a900473ffffffffffffffffffffffffffffffffffffffff1681565b600160009054906101000a900467ffffffffffffffff1681565b611180600d60009054906101000a900473ffffffffffffffffffffffffffffffffffffffff1673ffffffffffffffffffffffffffffffffffffffff168273ffffffffffffffffffffffffffffffffffffffff1614806111755750600c60009054906101000a900473ffffffffffffffffffffffffffffffffffffffff1673ffffffffffffffffffffffffffffffffffffffff168273ffffffffffffffffffffffffffffffffffffffff16145b614c4b63ffffffff16565b5b50565b611293600d60009054906101000a900473ffffffffffffffffffffffffffffffffffffffff1673ffffffffffffffffffffffffffffffffffffffff168273ffffffffffffffffffffffffffffffffffffffff1614806112305750600c60009054906101000a900473ffffffffffffffffffffffffffffffffffffffff1673ffffffffffffffffffffffffffffffffffffffff168273ffffffffffffffffffffffffffffffffffffffff16145b806112885750601260009054906101000a900473ffffffffffffffffffffffffffffffffffffffff1673ffffffffffffffffffffffffffffffffffffffff168273ffffffffffffffffffffffffffffffffffffffff16145b614c4b63ffffffff16565b5b50565b600260006000505414151515611318576040517f08c379a000000000000000000000000000000000000000000000000000000000815260040180806020018281038252601f8152602001807f5265656e7472616e637947756172643a207265656e7472616e742063616c6c0081526020015060200191505060405180910390fd5b600260006000508190909055506113623073ffffffffffffffffffffffffffffffffffffffff163373ffffffffffffffffffffffffffffffffffffffff1614614c4b63ffffffff16565b600f60009054906101000a900473ffffffffffffffffffffffffffffffffffffffff1673ffffffffffffffffffffffffffffffffffffffff16634ac8c5ae601160009054906101000a900473ffffffffffffffffffffffffffffffffffffffff166040518263ffffffff1660e01b81526004016113df9190615eaf565b600060405180830381600087803b1580156113fa5760006000fd5b505af115801561140f573d600060003e3d6000fd5b50505050601160009054906101000a900473ffffffffffffffffffffffffffffffffffffffff1673ffffffffffffffffffffffffffffffffffffffff166307da68f56040518163ffffffff1660e01b8152600401600060405180830381600087803b15801561147e5760006000fd5b505af1158015611493573d600060003e3d6000fd5b5050505080601160006101000a81548173ffffffffffffffffffffffffffffffffffffffff021916908373ffffffffffffffffffffffffffffffffffffffff160217905550600f60009054906101000a900473ffffffffffffffffffffffffffffffffffffffff1673ffffffffffffffffffffffffffffffffffffffff16632c388d5d601160009054906101000a900473ffffffffffffffffffffffffffffffffffffffff166040518263ffffffff1660e01b81526004016115559190615eaf565b600060405180830381600087803b1580156115705760006000fd5b505af1158015611585573d600060003e3d6000fd5b50505050600460009054906101000a900473ffffffffffffffffffffffffffffffffffffffff1673ffffffffffffffffffffffffffffffffffffffff1663a678f336601160009054906101000a900473ffffffffffffffffffffffffffffffffffffffff166040518263ffffffff1660e01b81526004016116069190615eaf565b600060405180830381600087803b1580156116215760006000fd5b505af1158015611636573d600060003e3d6000fd5b50505050601160009054906101000a900473ffffffffffffffffffffffffffffffffffffffff1673ffffffffffffffffffffffffffffffffffffffff1660405161167f90615d58565b60405180910390207f2b51ff7c4cc8e6fe1c72e9d9685b7d2a88a5d82ad3a644afbdceb0272c89c1c360405160405180910390a35b5b600160006000508190909055505b50565b600260006000505414151515611747576040517f08c379a000000000000000000000000000000000000000000000000000000000815260040180806020018281038252601f8152602001807f5265656e7472616e637947756172643a207265656e7472616e742063616c6c0081526020015060200191505060405180910390fd5b600260006000508190909055506117913073ffffffffffffffffffffffffffffffffffffffff163373ffffffffffffffffffffffffffffffffffffffff1614614c4b63ffffffff16565b6000600160009054906101000a900467ffffffffffffffff1667ffffffffffffffff161115156117f6576040517f08c379a00000000000000000000000000000000000000000000000000000000081526004016117ed906163ab565b60405180910390fd5b600760009054906101000a900473ffffffffffffffffffffffffffffffffffffffff1673ffffffffffffffffffffffffffffffffffffffff16633c4a25d0826040518263ffffffff1660e01b81526004016118519190615eaf565b600060405180830381600087803b15801561186c5760006000fd5b505af1158015611881573d600060003e3d6000fd5b505050508073ffffffffffffffffffffffffffffffffffffffff167f078ca541eec5b410213fc65330fc5a7324eb56fe692344e7bc1b8be56bd3c16960405160405180910390a25b5b600160006000508190909055505b50565b600d60009054906101000a900473ffffffffffffffffffffffffffffffffffffffff1681565b600260006000505414151515611982576040517f08c379a000000000000000000000000000000000000000000000000000000000815260040180806020018281038252601f8152602001807f5265656e7472616e637947756172643a207265656e7472616e742063616c6c0081526020015060200191505060405180910390fd5b600260006000508190909055506119cc3073ffffffffffffffffffffffffffffffffffffffff163373ffffffffffffffffffffffffffffffffffffffff1614614c4b63ffffffff16565b600f60009054906101000a900473ffffffffffffffffffffffffffffffffffffffff1673ffffffffffffffffffffffffffffffffffffffff16634ac8c5ae600e60009054906101000a900473ffffffffffffffffffffffffffffffffffffffff166040518263ffffffff1660e01b8152600401611a499190615eaf565b600060405180830381600087803b158015611a645760006000fd5b505af1158015611a79573d600060003e3d6000fd5b50505050600e60009054906101000a900473ffffffffffffffffffffffffffffffffffffffff1673ffffffffffffffffffffffffffffffffffffffff166307da68f56040518163ffffffff1660e01b8152600401600060405180830381600087803b158015611ae85760006000fd5b505af1158015611afd573d600060003e3d6000fd5b5050505080600e60006101000a81548173ffffffffffffffffffffffffffffffffffffffff021916908373ffffffffffffffffffffffffffffffffffffffff160217905550600f60009054906101000a900473ffffffffffffffffffffffffffffffffffffffff1673ffffffffffffffffffffffffffffffffffffffff16632c388d5d600e60009054906101000a900473ffffffffffffffffffffffffffffffffffffffff166040518263ffffffff1660e01b8152600401611bbf9190615eaf565b600060405180830381600087803b158015611bda5760006000fd5b505af1158015611bef573d600060003e3d6000fd5b50505050600e60009054906101000a900473ffffffffffffffffffffffffffffffffffffffff1673ffffffffffffffffffffffffffffffffffffffff16604051611c3890615e7e565b60405180910390207f2b51ff7c4cc8e6fe1c72e9d9685b7d2a88a5d82ad3a644afbdceb0272c89c1c360405160405180910390a35b5b600160006000508190909055505b50565b600560009054906101000a900473ffffffffffffffffffffffffffffffffffffffff1681565b600260006000505414151515611d26576040517f08c379a000000000000000000000000000000000000000000000000000000000815260040180806020018281038252601f8152602001807f5265656e7472616e637947756172643a207265656e7472616e742063616c6c0081526020015060200191505060405180910390fd5b600260006000508190909055506000339050600082111515611d7d576040517f08c379a0000000000000000000000000000000000000000000000000000000008152600401611d74906162af565b60405180910390fd5b611dd582600260005060008473ffffffffffffffffffffffffffffffffffffffff1673ffffffffffffffffffffffffffffffffffffffff16815260200190815260200160002060005054614f0290919063ffffffff16565b600260005060008373ffffffffffffffffffffffffffffffffffffffff1673ffffffffffffffffffffffffffffffffffffffff168152602001908152602001600020600050819090905550611e76600760009054906101000a900473ffffffffffffffffffffffffffffffffffffffff1682600a60009054906101000a900473ffffffffffffffffffffffffffffffffffffffff1685614f8b63ffffffff16565b611e846151b663ffffffff16565b8073ffffffffffffffffffffffffffffffffffffffff167f6f076ad9d1927fd5f792070276b90549d2433311ff94fe0d7afba682c150817a83604051611eca9190616429565b60405180910390a2505b600160006000508190909055505b50565b600260006000505414151515611f66576040517f08c379a000000000000000000000000000000000000000000000000000000000815260040180806020018281038252601f8152602001807f5265656e7472616e637947756172643a207265656e7472616e742063616c6c0081526020015060200191505060405180910390fd5b60026000600050819090905550611fb03073ffffffffffffffffffffffffffffffffffffffff163373ffffffffffffffffffffffffffffffffffffffff1614614c4b63ffffffff16565b600f60009054906101000a900473ffffffffffffffffffffffffffffffffffffffff1673ffffffffffffffffffffffffffffffffffffffff16634ac8c5ae601260009054906101000a900473ffffffffffffffffffffffffffffffffffffffff166040518263ffffffff1660e01b815260040161202d9190615eaf565b600060405180830381600087803b1580156120485760006000fd5b505af115801561205d573d600060003e3d6000fd5b50505050601260009054906101000a900473ffffffffffffffffffffffffffffffffffffffff1673ffffffffffffffffffffffffffffffffffffffff166307da68f56040518163ffffffff1660e01b8152600401600060405180830381600087803b1580156120cc5760006000fd5b505af11580156120e1573d600060003e3d6000fd5b5050505080601260006101000a81548173ffffffffffffffffffffffffffffffffffffffff021916908373ffffffffffffffffffffffffffffffffffffffff160217905550600f60009054906101000a900473ffffffffffffffffffffffffffffffffffffffff1673ffffffffffffffffffffffffffffffffffffffff16632c388d5d601260009054906101000a900473ffffffffffffffffffffffffffffffffffffffff166040518263ffffffff1660e01b81526004016121a39190615eaf565b600060405180830381600087803b1580156121be5760006000fd5b505af11580156121d3573d600060003e3d6000fd5b50505050601260009054906101000a900473ffffffffffffffffffffffffffffffffffffffff1673ffffffffffffffffffffffffffffffffffffffff1660405161221c90615dba565b60405180910390207f2b51ff7c4cc8e6fe1c72e9d9685b7d2a88a5d82ad3a644afbdceb0272c89c1c360405160405180910390a35b5b600160006000508190909055505b50565b61231a600c60009054906101000a900473ffffffffffffffffffffffffffffffffffffffff1673ffffffffffffffffffffffffffffffffffffffff168273ffffffffffffffffffffffffffffffffffffffff16148061230f5750601260009054906101000a900473ffffffffffffffffffffffffffffffffffffffff1673ffffffffffffffffffffffffffffffffffffffff168273ffffffffffffffffffffffffffffffffffffffff16145b614c4b63ffffffff16565b5b50565b600460009054906101000a900473ffffffffffffffffffffffffffffffffffffffff1681565b600c60009054906101000a900473ffffffffffffffffffffffffffffffffffffffff1681565b60036000506020528060005260406000206000915090505481565b601160009054906101000a900473ffffffffffffffffffffffffffffffffffffffff1681565b60026000600050541415151561242c576040517f08c379a000000000000000000000000000000000000000000000000000000000815260040180806020018281038252601f8152602001807f5265656e7472616e637947756172643a207265656e7472616e742063616c6c0081526020015060200191505060405180910390fd5b600260006000508190909055506124763073ffffffffffffffffffffffffffffffffffffffff163373ffffffffffffffffffffffffffffffffffffffff1614614c4b63ffffffff16565b600f60009054906101000a900473ffffffffffffffffffffffffffffffffffffffff1673ffffffffffffffffffffffffffffffffffffffff16634ac8c5ae601060009054906101000a900473ffffffffffffffffffffffffffffffffffffffff166040518263ffffffff1660e01b81526004016124f39190615eaf565b600060405180830381600087803b15801561250e5760006000fd5b505af1158015612523573d600060003e3d6000fd5b50505050601060009054906101000a900473ffffffffffffffffffffffffffffffffffffffff1673ffffffffffffffffffffffffffffffffffffffff166307da68f56040518163ffffffff1660e01b8152600401600060405180830381600087803b1580156125925760006000fd5b505af11580156125a7573d600060003e3d6000fd5b5050505080601060006101000a81548173ffffffffffffffffffffffffffffffffffffffff021916908373ffffffffffffffffffffffffffffffffffffffff160217905550600f60009054906101000a900473ffffffffffffffffffffffffffffffffffffffff1673ffffffffffffffffffffffffffffffffffffffff16632c388d5d601060009054906101000a900473ffffffffffffffffffffffffffffffffffffffff166040518263ffffffff1660e01b81526004016126699190615eaf565b600060405180830381600087803b1580156126845760006000fd5b505af1158015612699573d600060003e3d6000fd5b50505050601060009054906101000a900473ffffffffffffffffffffffffffffffffffffffff1673ffffffffffffffffffffffffffffffffffffffff166040516126e290615d89565b60405180910390207f2b51ff7c4cc8e6fe1c72e9d9685b7d2a88a5d82ad3a644afbdceb0272c89c1c360405160405180910390a35b5b600160006000508190909055505b50565b600a60009054906101000a900473ffffffffffffffffffffffffffffffffffffffff1673ffffffffffffffffffffffffffffffffffffffff1663a43c36af8484846040518463ffffffff1660e01b815260040161278893929190615ed7565b60006040518083038186803b1580156127a15760006000fd5b505afa1580156127b6573d600060003e3d6000fd5b505050505b505050565b600960009054906101000a900473ffffffffffffffffffffffffffffffffffffffff1681565b601560149054906101000a900460ff1681565b60026000600050541415151561287a576040517f08c379a000000000000000000000000000000000000000000000000000000000815260040180806020018281038252601f8152602001807f5265656e7472616e637947756172643a207265656e7472616e742063616c6c0081526020015060200191505060405180910390fd5b600260006000508190909055506128c43073ffffffffffffffffffffffffffffffffffffffff163373ffffffffffffffffffffffffffffffffffffffff1614614c4b63ffffffff16565b6000601860009054906101000a900467ffffffffffffffff1667ffffffffffffffff16141515612929576040517f08c379a0000000000000000000000000000000000000000000000000000000008152600401612920906162ee565b60405180910390fd5b6129388161526763ffffffff16565b601860006101000a81548167ffffffffffffffff021916908367ffffffffffffffff160217905550600a60009054906101000a900473ffffffffffffffffffffffffffffffffffffffff1673ffffffffffffffffffffffffffffffffffffffff1663b8188c816129c3601860009054906101000a900467ffffffffffffffff166152ef63ffffffff16565b6040518263ffffffff1660e01b81526004016129df919061643b565b600060405180830381600087803b1580156129fa5760006000fd5b505af1158015612a0f573d600060003e3d6000fd5b505050505b5b600160006000508190909055505b50565b600260006000505414151515612aa7576040517f08c379a000000000000000000000000000000000000000000000000000000000815260040180806020018281038252601f8152602001807f5265656e7472616e637947756172643a207265656e7472616e742063616c6c0081526020015060200191505060405180910390fd5b60026000600050819090905550612af13073ffffffffffffffffffffffffffffffffffffffff163373ffffffffffffffffffffffffffffffffffffffff1614614c4b63ffffffff16565b600f60009054906101000a900473ffffffffffffffffffffffffffffffffffffffff1673ffffffffffffffffffffffffffffffffffffffff16634ac8c5ae600c60009054906101000a900473ffffffffffffffffffffffffffffffffffffffff166040518263ffffffff1660e01b8152600401612b6e9190615eaf565b600060405180830381600087803b158015612b895760006000fd5b505af1158015612b9e573d600060003e3d6000fd5b50505050600c60009054906101000a900473ffffffffffffffffffffffffffffffffffffffff1673ffffffffffffffffffffffffffffffffffffffff166307da68f56040518163ffffffff1660e01b8152600401600060405180830381600087803b158015612c0d5760006000fd5b505af1158015612c22573d600060003e3d6000fd5b5050505080600c60006101000a81548173ffffffffffffffffffffffffffffffffffffffff021916908373ffffffffffffffffffffffffffffffffffffffff160217905550600f60009054906101000a900473ffffffffffffffffffffffffffffffffffffffff1673ffffffffffffffffffffffffffffffffffffffff16632c388d5d600c60009054906101000a900473ffffffffffffffffffffffffffffffffffffffff166040518263ffffffff1660e01b8152600401612ce49190615eaf565b600060405180830381600087803b158015612cff5760006000fd5b505af1158015612d14573d600060003e3d6000fd5b50505050600c60009054906101000a900473ffffffffffffffffffffffffffffffffffffffff1673ffffffffffffffffffffffffffffffffffffffff16604051612d5d90615e4d565b60405180910390207f2b51ff7c4cc8e6fe1c72e9d9685b7d2a88a5d82ad3a644afbdceb0272c89c1c360405160405180910390a35b5b600160006000508190909055505b50565b60006000600160009054906101000a900467ffffffffffffffff1667ffffffffffffffff16119050612dd1565b90565b60006000600160009054906101000a900467ffffffffffffffff1667ffffffffffffffff161115612e085760009050612eb1565b6000612e18614bd263ffffffff16565b90506000601860009054906101000a900467ffffffffffffffff1667ffffffffffffffff161480612e725750601860009054906101000a900467ffffffffffffffff1667ffffffffffffffff168167ffffffffffffffff16105b15612e81576000915050612eb1565b612ea8601860009054906101000a900467ffffffffffffffff16820361537463ffffffff16565b915050612eb156505b90565b7f000000000000000000000000000000000000000000000000000000000000000081565b6000612ee98261537463ffffffff16565b905080505b919050565b6000612fb1670214e8348c4f0000600760009054906101000a900473ffffffffffffffffffffffffffffffffffffffff1673ffffffffffffffffffffffffffffffffffffffff166318160ddd6040518163ffffffff1660e01b815260040160206040518083038186803b158015612f6a5760006000fd5b505afa158015612f7f573d600060003e3d6000fd5b505050506040513d601f19601f82011682018060405250810190612fa39190615c22565b6153b690919063ffffffff16565b600760009054906101000a900473ffffffffffffffffffffffffffffffffffffffff1673ffffffffffffffffffffffffffffffffffffffff166370a08231600a60009054906101000a900473ffffffffffffffffffffffffffffffffffffffff166040518263ffffffff1660e01b815260040161302e9190615eaf565b60206040518083038186803b1580156130475760006000fd5b505afa15801561305c573d600060003e3d6000fd5b505050506040513d601f19601f820116820180604052508101906130809190615c22565b119050613088565b90565b60026000600050541415151561310c576040517f08c379a000000000000000000000000000000000000000000000000000000000815260040180806020018281038252601f8152602001807f5265656e7472616e637947756172643a207265656e7472616e742063616c6c0081526020015060200191505060405180910390fd5b6002600060005081909090555043601660005054101515613162576040517f08c379a00000000000000000000000000000000000000000000000000000000081526004016131599061632d565b60405180910390fd5b613170614c9163ffffffff16565b5b600160006000508190909055505b565b7f000000000000000000000000000000000000000000000000000000000000000081565b601360009054906101000a900473ffffffffffffffffffffffffffffffffffffffff1681565b600e60009054906101000a900473ffffffffffffffffffffffffffffffffffffffff1681565b600f60009054906101000a900473ffffffffffffffffffffffffffffffffffffffff1681565b601560009054906101000a900473ffffffffffffffffffffffffffffffffffffffff1681565b6132b4601560009054906101000a900473ffffffffffffffffffffffffffffffffffffffff1673ffffffffffffffffffffffffffffffffffffffff163373ffffffffffffffffffffffffffffffffffffffff161480156132a95750601560149054906101000a900460ff165b614c4b63ffffffff16565b6000601560146101000a81548160ff0219169083151502179055508181905084849050141515613319576040517f08c379a000000000000000000000000000000000000000000000000000000000815260040161331090616231565b60405180910390fd5b6000600090505b848490508110156133bb57828282818110151561333957fe5b9050602002013560036000506000878785818110151561335557fe5b905060200201602081019061336a91906157dc565b73ffffffffffffffffffffffffffffffffffffffff1673ffffffffffffffffffffffffffffffffffffffff1681526020019081526020016000206000508190909055505b8080600101915050613320565b505b50505050565b600260006000505414151515613444576040517f08c379a000000000000000000000000000000000000000000000000000000000815260040180806020018281038252601f8152602001807f5265656e7472616e637947756172643a207265656e7472616e742063616c6c0081526020015060200191505060405180910390fd5b6002600060005081909090555061348e3073ffffffffffffffffffffffffffffffffffffffff163373ffffffffffffffffffffffffffffffffffffffff1614614c4b63ffffffff16565b600073ffffffffffffffffffffffffffffffffffffffff16600660009054906101000a900473ffffffffffffffffffffffffffffffffffffffff1673ffffffffffffffffffffffffffffffffffffffff1614151561361c57600f60009054906101000a900473ffffffffffffffffffffffffffffffffffffffff1673ffffffffffffffffffffffffffffffffffffffff16634ac8c5ae600660009054906101000a900473ffffffffffffffffffffffffffffffffffffffff166040518263ffffffff1660e01b81526004016135639190615eaf565b600060405180830381600087803b15801561357e5760006000fd5b505af1158015613593573d600060003e3d6000fd5b50505050600660009054906101000a900473ffffffffffffffffffffffffffffffffffffffff1673ffffffffffffffffffffffffffffffffffffffff166307da68f56040518163ffffffff1660e01b8152600401600060405180830381600087803b1580156136025760006000fd5b505af1158015613617573d600060003e3d6000fd5b505050505b600560009054906101000a900473ffffffffffffffffffffffffffffffffffffffff16600660006101000a81548173ffffffffffffffffffffffffffffffffffffffff021916908373ffffffffffffffffffffffffffffffffffffffff16021790555080600560006101000a81548173ffffffffffffffffffffffffffffffffffffffff021916908373ffffffffffffffffffffffffffffffffffffffff160217905550600f60009054906101000a900473ffffffffffffffffffffffffffffffffffffffff1673ffffffffffffffffffffffffffffffffffffffff16632c388d5d600560009054906101000a900473ffffffffffffffffffffffffffffffffffffffff166040518263ffffffff1660e01b815260040161373d9190615eaf565b600060405180830381600087803b1580156137585760006000fd5b505af115801561376d573d600060003e3d6000fd5b50505050600560009054906101000a900473ffffffffffffffffffffffffffffffffffffffff1673ffffffffffffffffffffffffffffffffffffffff166040516137b690615e1c565b60405180910390207f2b51ff7c4cc8e6fe1c72e9d9685b7d2a88a5d82ad3a644afbdceb0272c89c1c360405160405180910390a35b5b600160006000508190909055505b50565b60026000600050541415151561387e576040517f08c379a000000000000000000000000000000000000000000000000000000000815260040180806020018281038252601f8152602001807f5265656e7472616e637947756172643a207265656e7472616e742063616c6c0081526020015060200191505060405180910390fd5b600260006000508190909055506139f2600d60009054906101000a900473ffffffffffffffffffffffffffffffffffffffff1673ffffffffffffffffffffffffffffffffffffffff163373ffffffffffffffffffffffffffffffffffffffff1614806139375750601160009054906101000a900473ffffffffffffffffffffffffffffffffffffffff1673ffffffffffffffffffffffffffffffffffffffff163373ffffffffffffffffffffffffffffffffffffffff16145b8061398f5750600560009054906101000a900473ffffffffffffffffffffffffffffffffffffffff1673ffffffffffffffffffffffffffffffffffffffff163373ffffffffffffffffffffffffffffffffffffffff16145b806139e75750601060009054906101000a900473ffffffffffffffffffffffffffffffffffffffff1673ffffffffffffffffffffffffffffffffffffffff163373ffffffffffffffffffffffffffffffffffffffff16145b614c4b63ffffffff16565b600760009054906101000a900473ffffffffffffffffffffffffffffffffffffffff1673ffffffffffffffffffffffffffffffffffffffff1663449a52f883836040518363ffffffff1660e01b8152600401613a4f929190615f7d565b600060405180830381600087803b158015613a6a5760006000fd5b505af1158015613a7f573d600060003e3d6000fd5b505050505b600160006000508190909055505b5050565b613b0e601560009054906101000a900473ffffffffffffffffffffffffffffffffffffffff1673ffffffffffffffffffffffffffffffffffffffff163373ffffffffffffffffffffffffffffffffffffffff16148015613b035750601560149054906101000a900460ff16155b614c4b63ffffffff16565b601560006101000a81549073ffffffffffffffffffffffffffffffffffffffff021916905582600f60006101000a81548173ffffffffffffffffffffffffffffffffffffffff021916908373ffffffffffffffffffffffffffffffffffffffff160217905550600f60009054906101000a900473ffffffffffffffffffffffffffffffffffffffff1673ffffffffffffffffffffffffffffffffffffffff16632c388d5d306040518263ffffffff1660e01b8152600401613bcf9190615eaf565b600060405180830381600087803b158015613bea5760006000fd5b505af1158015613bff573d600060003e3d6000fd5b50505050600f60009054906101000a900473ffffffffffffffffffffffffffffffffffffffff1673ffffffffffffffffffffffffffffffffffffffff16632c388d5d600a60009054906101000a900473ffffffffffffffffffffffffffffffffffffffff166040518263ffffffff1660e01b8152600401613c809190615eaf565b600060405180830381600087803b158015613c9b5760006000fd5b505af1158015613cb0573d600060003e3d6000fd5b5050505088600560006101000a81548173ffffffffffffffffffffffffffffffffffffffff021916908373ffffffffffffffffffffffffffffffffffffffff160217905550600f60009054906101000a900473ffffffffffffffffffffffffffffffffffffffff1673ffffffffffffffffffffffffffffffffffffffff16632c388d5d600560009054906101000a900473ffffffffffffffffffffffffffffffffffffffff166040518263ffffffff1660e01b8152600401613d729190615eaf565b600060405180830381600087803b158015613d8d5760006000fd5b505af1158015613da2573d600060003e3d6000fd5b5050505087600760006101000a81548173ffffffffffffffffffffffffffffffffffffffff021916908373ffffffffffffffffffffffffffffffffffffffff160217905550600f60009054906101000a900473ffffffffffffffffffffffffffffffffffffffff1673ffffffffffffffffffffffffffffffffffffffff16632c388d5d600860009054906101000a900473ffffffffffffffffffffffffffffffffffffffff166040518263ffffffff1660e01b8152600401613e649190615eaf565b600060405180830381600087803b158015613e7f5760006000fd5b505af1158015613e94573d600060003e3d6000fd5b5050505086600c60006101000a81548173ffffffffffffffffffffffffffffffffffffffff021916908373ffffffffffffffffffffffffffffffffffffffff160217905550600f60009054906101000a900473ffffffffffffffffffffffffffffffffffffffff1673ffffffffffffffffffffffffffffffffffffffff16632c388d5d600c60009054906101000a900473ffffffffffffffffffffffffffffffffffffffff166040518263ffffffff1660e01b8152600401613f569190615eaf565b600060405180830381600087803b158015613f715760006000fd5b505af1158015613f86573d600060003e3d6000fd5b5050505085600d60006101000a81548173ffffffffffffffffffffffffffffffffffffffff021916908373ffffffffffffffffffffffffffffffffffffffff160217905550600f60009054906101000a900473ffffffffffffffffffffffffffffffffffffffff1673ffffffffffffffffffffffffffffffffffffffff16632c388d5d600d60009054906101000a900473ffffffffffffffffffffffffffffffffffffffff166040518263ffffffff1660e01b81526004016140489190615eaf565b600060405180830381600087803b1580156140635760006000fd5b505af1158015614078573d600060003e3d6000fd5b5050505083600e60006101000a81548173ffffffffffffffffffffffffffffffffffffffff021916908373ffffffffffffffffffffffffffffffffffffffff160217905550600f60009054906101000a900473ffffffffffffffffffffffffffffffffffffffff1673ffffffffffffffffffffffffffffffffffffffff16632c388d5d600e60009054906101000a900473ffffffffffffffffffffffffffffffffffffffff166040518263ffffffff1660e01b815260040161413a9190615eaf565b600060405180830381600087803b1580156141555760006000fd5b505af115801561416a573d600060003e3d6000fd5b5050505084601060006101000a81548173ffffffffffffffffffffffffffffffffffffffff021916908373ffffffffffffffffffffffffffffffffffffffff160217905550600f60009054906101000a900473ffffffffffffffffffffffffffffffffffffffff1673ffffffffffffffffffffffffffffffffffffffff16632c388d5d601060009054906101000a900473ffffffffffffffffffffffffffffffffffffffff166040518263ffffffff1660e01b815260040161422c9190615eaf565b600060405180830381600087803b1580156142475760006000fd5b505af115801561425c573d600060003e3d6000fd5b5050505081601160006101000a81548173ffffffffffffffffffffffffffffffffffffffff021916908373ffffffffffffffffffffffffffffffffffffffff160217905550600f60009054906101000a900473ffffffffffffffffffffffffffffffffffffffff1673ffffffffffffffffffffffffffffffffffffffff16632c388d5d601160009054906101000a900473ffffffffffffffffffffffffffffffffffffffff166040518263ffffffff1660e01b815260040161431e9190615eaf565b600060405180830381600087803b1580156143395760006000fd5b505af115801561434e573d600060003e3d6000fd5b5050505080601260006101000a81548173ffffffffffffffffffffffffffffffffffffffff021916908373ffffffffffffffffffffffffffffffffffffffff160217905550600f60009054906101000a900473ffffffffffffffffffffffffffffffffffffffff1673ffffffffffffffffffffffffffffffffffffffff16632c388d5d601260009054906101000a900473ffffffffffffffffffffffffffffffffffffffff166040518263ffffffff1660e01b81526004016144109190615eaf565b600060405180830381600087803b15801561442b5760006000fd5b505af1158015614440573d600060003e3d6000fd5b5050505060016014600050600063232948ea60e01b7bffffffffffffffffffffffffffffffffffffffffffffffffffffffff19167bffffffffffffffffffffffffffffffffffffffffffffffffffffffff1916815260200190815260200160002060006101000a81548160ff02191690831515021790555060016014600050600063b8188c8160e01b7bffffffffffffffffffffffffffffffffffffffffffffffffffffffff19167bffffffffffffffffffffffffffffffffffffffffffffffffffffffff1916815260200190815260200160002060006101000a81548160ff0219169083151502179055505b505050505050505050565b6002600060005054141515156145b9576040517f08c379a000000000000000000000000000000000000000000000000000000000815260040180806020018281038252601f8152602001807f5265656e7472616e637947756172643a207265656e7472616e742063616c6c0081526020015060200191505060405180910390fd5b6002600060005081909090555060003390506000600260005060008373ffffffffffffffffffffffffffffffffffffffff1673ffffffffffffffffffffffffffffffffffffffff16815260200190815260200160002060005054905060008111151561465a576040517f08c379a0000000000000000000000000000000000000000000000000000000008152600401614651906162af565b60405180910390fd5b6000600260005060008473ffffffffffffffffffffffffffffffffffffffff1673ffffffffffffffffffffffffffffffffffffffff1681526020019081526020016000206000508190909055506146fd600760009054906101000a900473ffffffffffffffffffffffffffffffffffffffff16600a60009054906101000a900473ffffffffffffffffffffffffffffffffffffffff168484614f8b63ffffffff16565b61470b6151b663ffffffff16565b8173ffffffffffffffffffffffffffffffffffffffff167fbfaf8d2920f9287ed71a7e47234c2043522ae8ffd246577b929897e0f2b3c075826040516147519190616429565b60405180910390a250505b600160006000508190909055505b565b670214e8348c4f000081565b6002600060005054141515156147f9576040517f08c379a000000000000000000000000000000000000000000000000000000000815260040180806020018281038252601f8152602001807f5265656e7472616e637947756172643a207265656e7472616e742063616c6c0081526020015060200191505060405180910390fd5b600260006000508190909055506148433073ffffffffffffffffffffffffffffffffffffffff163373ffffffffffffffffffffffffffffffffffffffff1614614c4b63ffffffff16565b600f60009054906101000a900473ffffffffffffffffffffffffffffffffffffffff1673ffffffffffffffffffffffffffffffffffffffff16634ac8c5ae600d60009054906101000a900473ffffffffffffffffffffffffffffffffffffffff166040518263ffffffff1660e01b81526004016148c09190615eaf565b600060405180830381600087803b1580156148db5760006000fd5b505af11580156148f0573d600060003e3d6000fd5b50505050600d60009054906101000a900473ffffffffffffffffffffffffffffffffffffffff1673ffffffffffffffffffffffffffffffffffffffff166307da68f56040518163ffffffff1660e01b8152600401600060405180830381600087803b15801561495f5760006000fd5b505af1158015614974573d600060003e3d6000fd5b5050505080600d60006101000a81548173ffffffffffffffffffffffffffffffffffffffff021916908373ffffffffffffffffffffffffffffffffffffffff160217905550600f60009054906101000a900473ffffffffffffffffffffffffffffffffffffffff1673ffffffffffffffffffffffffffffffffffffffff16632c388d5d600d60009054906101000a900473ffffffffffffffffffffffffffffffffffffffff166040518263ffffffff1660e01b8152600401614a369190615eaf565b600060405180830381600087803b158015614a515760006000fd5b505af1158015614a66573d600060003e3d6000fd5b50505050600d60009054906101000a900473ffffffffffffffffffffffffffffffffffffffff1673ffffffffffffffffffffffffffffffffffffffff16604051614aaf90615deb565b60405180910390207f2b51ff7c4cc8e6fe1c72e9d9685b7d2a88a5d82ad3a644afbdceb0272c89c1c360405160405180910390a35b5b600160006000508190909055505b50565b60006801000000000000000082101515614b7b576040517f08c379a00000000000000000000000000000000000000000000000000000000081526004018080602001828103825260118152602001807f6d6f7265207468616e203634206269747300000000000000000000000000000081526020015060200191505060405180910390fd5b819050614b83565b919050565b60008167ffffffffffffffff166102da69021e19e0c9bab240000069152d02c7e14af680000003811515614bb857fe5b040269152d02c7e14af6800000039050614bcd565b919050565b60007f00000000000000000000000000000000000000000000000000000000000000007f000000000000000000000000000000000000000000000000000000000000000067ffffffffffffffff16614c2e6153dc63ffffffff16565b67ffffffffffffffff16811515614c4157fe5b0403905080505b90565b801515614c8d576040517f08c379a0000000000000000000000000000000000000000000000000000000008152600401614c8490616270565b60405180910390fd5b5b50565b6000600160009054906101000a900467ffffffffffffffff1667ffffffffffffffff16141515614cf6576040517f08c379a0000000000000000000000000000000000000000000000000000000008152600401614ced9061636c565b60405180910390fd5b600d60009054906101000a900473ffffffffffffffffffffffffffffffffffffffff1673ffffffffffffffffffffffffffffffffffffffff1663a6afed956040518163ffffffff1660e01b8152600401600060405180830381600087803b158015614d615760006000fd5b505af1158015614d76573d600060003e3d6000fd5b50505050601160009054906101000a900473ffffffffffffffffffffffffffffffffffffffff1673ffffffffffffffffffffffffffffffffffffffff16631afdbce46040518163ffffffff1660e01b8152600401600060405180830381600087803b158015614de55760006000fd5b505af1158015614dfa573d600060003e3d6000fd5b50505050614e0c6153dc63ffffffff16565b600160006101000a81548167ffffffffffffffff021916908367ffffffffffffffff1602179055507f5a05a29d5ecece2d4f30720adf1a7449fc1ecb9a884a14629d08d3d2257ab90560405160405180910390a15b565b600081805190602001209050614e74565b919050565b60008282840391508111151515614efb576040517f08c379a000000000000000000000000000000000000000000000000000000000815260040180806020018281038252600d8152602001807f7375622d756e646572666c6f770000000000000000000000000000000000000081526020015060200191505060405180910390fd5b5b92915050565b60008282840191508110151515614f84576040517f08c379a000000000000000000000000000000000000000000000000000000000815260040180806020018281038252600c8152602001807f6164642d6f766572666c6f77000000000000000000000000000000000000000081526020015060200191505060405180910390fd5b5b92915050565b600060008573ffffffffffffffffffffffffffffffffffffffff166323b872dd60e01b868686604051602401808473ffffffffffffffffffffffffffffffffffffffff1681526020018373ffffffffffffffffffffffffffffffffffffffff1681526020018281526020019350505050604051602081830303815290604052907bffffffffffffffffffffffffffffffffffffffffffffffffffffffff19166020820180517bffffffffffffffffffffffffffffffffffffffffffffffffffffffff83818316178352505050506040518082805190602001908083835b60208310151561508e57805182525b602082019150602081019050602083039250615068565b6001836020036101000a0380198251168184511680821785525050505050509050019150506000604051808303816000865af19150503d80600081146150f0576040519150601f19603f3d011682016040523d82523d6000602084013e6150f5565b606091505b5091509150818015615136575060008151148061513557508080602001905160208110156151235760006000fd5b81019080805190602001909291905050505b5b15156151ad576040517f08c379a00000000000000000000000000000000000000000000000000000000081526004018080602001828103825260038152602001807f535446000000000000000000000000000000000000000000000000000000000081526020015060200191505060405180910390fd5b50505b50505050565b6151c4612ef363ffffffff16565b15615208577fffffffffffffffffffffffffffffffffffffffffffffffffffffffffffffffff6016600050541415615203574360166000508190909055505b615264565b7fffffffffffffffffffffffffffffffffffffffffffffffffffffffffffffffff601660005054141515615263577fffffffffffffffffffffffffffffffffffffffffffffffffffffffffffffffff60166000508190909055505b5b5b565b60006152e57f00000000000000000000000000000000000000000000000000000000000000007f000000000000000000000000000000000000000000000000000000000000000067ffffffffffffffff168467ffffffffffffffff168115156152cc57fe5b0467ffffffffffffffff166153f790919063ffffffff16565b905080505b919050565b600061536a615331837f000000000000000000000000000000000000000000000000000000000000000067ffffffffffffffff1661549490919063ffffffff16565b7f000000000000000000000000000000000000000000000000000000000000000067ffffffffffffffff1661553190919063ffffffff16565b905080505b919050565b60006102da8267ffffffffffffffff16101561539e5761539982614b8863ffffffff16565b6153aa565b69021e19e0c9bab24000005b90506153b1565b919050565b60006153d18383670de0b6b3a764000061560163ffffffff16565b905080505b92915050565b60006153ef42614af6909063ffffffff16565b905080505b90565b60008267ffffffffffffffff1682840391508167ffffffffffffffff161115151561548d576040517f08c379a000000000000000000000000000000000000000000000000000000000815260040180806020018281038252600d8152602001807f7375622d756e646572666c6f770000000000000000000000000000000000000081526020015060200191505060405180910390fd5b5b92915050565b60008267ffffffffffffffff1682840191508167ffffffffffffffff161015151561552a576040517f08c379a000000000000000000000000000000000000000000000000000000000815260040180806020018281038252600c8152602001807f6164642d6f766572666c6f77000000000000000000000000000000000000000081526020015060200191505060405180910390fd5b5b92915050565b600060008267ffffffffffffffff16148061558357508267ffffffffffffffff168267ffffffffffffffff1683850292508267ffffffffffffffff1681151561557657fe5b0467ffffffffffffffff16145b15156155fa576040517f08c379a000000000000000000000000000000000000000000000000000000000815260040180806020018281038252600c8152602001807f6d756c2d6f766572666c6f77000000000000000000000000000000000000000081526020015060200191505060405180910390fd5b5b92915050565b6000600060006000198587098587029250828110838203039150506000811415615644576000841115156156355760006000fd5b838204925082925050506156fb565b80841115156156535760006000fd5b60008486880990508281118203915080830392506000858660000316905080860495508084049350600181826000030401905080830284179350835060006002876003021890508087026002038102905080508087026002038102905080508087026002038102905080508087026002038102905080508087026002038102905080508087026002038102905080508085029550855085955050505050506156fb5650505050505b9392505050566164ca565b600067ffffffffffffffff8084111561571b57fe5b60405160207fffffffffffffffffffffffffffffffffffffffffffffffffffffffffffffffe0601f870116820101818110838211171561575757fe5b80604052508092508481528585850111156157725760006000fd5b8484602083013760006020868301015250505b9392505050565b6000600083601f84011215156157a0578081fd5b8235905067ffffffffffffffff8111156157b8578182fd5b6020830191508360206020830285010111156157d45760006000fd5b5b9250929050565b6000602082840312156157ed578081fd5b81356157f8816164a1565b809150505b92915050565b60006000600060408486031215615818578182fd5b8335615823816164a1565b80935050602084013567ffffffffffffffff80821115615841578384fd5b818601915086601f8301121515615856578384fd5b813581811115615864578485fd5b876020828501011115615875578485fd5b6020830194508093505050505b9250925092565b6000600060006060848603121561589e578283fd5b83356158a9816164a1565b80935050602084013567ffffffffffffffff808211156158c7578384fd5b818601915086601f83011215156158dc578384fd5b6158eb87833560208501615706565b93506040860135915080821115615900578283fd5b50808501905085601f8201121515615916578182fd5b61592586823560208401615706565b9150505b9250925092565b6000600060408385031215615943578182fd5b823561594e816164a1565b80925050602083013590505b9250929050565b600060006000600060408587031215615978578081fd5b843567ffffffffffffffff8082111561598f578283fd5b61599b8883890161578c565b92508096505081945060208701359150808211156159b7578283fd5b506159c48782880161578c565b915080935050809150505b92959194509250565b6000602082840312156159e9578081fd5b81357fffffffff00000000000000000000000000000000000000000000000000000000811681141515615a1a578182fd5b809150505b92915050565b600060208284031215615a36578081fd5b8135615a41816164a1565b809150505b92915050565b6000600060006000600060006000600060006101208a8c031215615a6e578687fd5b8935615a79816164a1565b8099505060208a0135615a8b816164a1565b8098505060408a0135615a9d816164a1565b8097505060608a0135615aaf816164a1565b8096505060808a0135615ac1816164a1565b8095505060a08a0135615ad3816164a1565b8094505060c08a0135615ae5816164a1565b8093505060e08a0135615af7816164a1565b809250506101008a0135615b0a816164a1565b809150505b9295985092959850929598565b600060208284031215615b2d578081fd5b8135615b38816164a1565b809150505b92915050565b600060208284031215615b54578081fd5b8135615b5f816164a1565b809150505b92915050565b600060208284031215615b7b578081fd5b8135615b86816164a1565b809150505b92915050565b600060208284031215615ba2578081fd5b8135615bad816164a1565b809150505b92915050565b600060208284031215615bc9578081fd5b8135615bd4816164a1565b809150505b92915050565b600060208284031215615bf0578081fd5b8135615bfb816164a1565b809150505b92915050565b600060208284031215615c17578081fd5b813590505b92915050565b600060208284031215615c33578081fd5b815190505b92915050565b600060208284031215615c4f578081fd5b813567ffffffffffffffff811681141515615c68578182fd5b809150505b92915050565b600060208284031215615c84578081fd5b815160ff811681141515615c96578182fd5b809150505b92915050565b60008151808452615cb981602086016020860161646c565b60207fffffffffffffffffffffffffffffffffffffffffffffffffffffffffffffffe0601f8301168501019150505b92915050565b60007fffffffff00000000000000000000000000000000000000000000000000000000841682528251615d2881600485016020870161646c565b6004818401019150505b9392505050565b60008251615d4b81846020870161646c565b8083019150505b92915050565b60007f726577617264730000000000000000000000000000000000000000000000000082526007820190505b919050565b60007f726174657300000000000000000000000000000000000000000000000000000082526005820190505b919050565b60007f736574746c656d656e74000000000000000000000000000000000000000000008252600a820190505b919050565b60007f6d61726b6574000000000000000000000000000000000000000000000000000082526006820190505b919050565b60007f61756374696f6e7300000000000000000000000000000000000000000000000082526008820190505b919050565b60007f6c69717569646174696f6e7300000000000000000000000000000000000000008252600c820190505b919050565b60007f707269636573000000000000000000000000000000000000000000000000000082526006820190505b919050565b600060208201905073ffffffffffffffffffffffffffffffffffffffff831682525b92915050565b600073ffffffffffffffffffffffffffffffffffffffff851682526040602083015282604083015282846060840137806060848401015260607fffffffffffffffffffffffffffffffffffffffffffffffffffffffffffffffe0601f85011683010190505b949350505050565b600073ffffffffffffffffffffffffffffffffffffffff8416825260406020830152615f736040830184615ca1565b90505b9392505050565b600060408201905073ffffffffffffffffffffffffffffffffffffffff841682528260208301525b9392505050565b600060208201905082151582525b92915050565b6000831515825260406020830152615fdb6040830184615ca1565b90505b9392505050565b600060208201905073ffffffffffffffffffffffffffffffffffffffff831682525b92915050565b600060208201905073ffffffffffffffffffffffffffffffffffffffff831682525b92915050565b600060208201905073ffffffffffffffffffffffffffffffffffffffff831682525b92915050565b600060208201905073ffffffffffffffffffffffffffffffffffffffff831682525b92915050565b600060208201905073ffffffffffffffffffffffffffffffffffffffff831682525b92915050565b600060208201905073ffffffffffffffffffffffffffffffffffffffff831682525b92915050565b600060208201905073ffffffffffffffffffffffffffffffffffffffff831682525b92915050565b600060208201905073ffffffffffffffffffffffffffffffffffffffff831682525b92915050565b600060208201905073ffffffffffffffffffffffffffffffffffffffff831682525b92915050565b600060208201905073ffffffffffffffffffffffffffffffffffffffff831682525b92915050565b600060208201905073ffffffffffffffffffffffffffffffffffffffff831682525b92915050565b600060208201905073ffffffffffffffffffffffffffffffffffffffff831682525b92915050565b600060208201905073ffffffffffffffffffffffffffffffffffffffff831682525b92915050565b600060208201905073ffffffffffffffffffffffffffffffffffffffff831682525b92915050565b6000602082526162286020830184615ca1565b90505b92915050565b600060208252600e60208301527f6172697479206d69736d6174636800000000000000000000000000000000000060408301526060820190505b919050565b600060208252600e60208301527f4e6f7420417574686f72697a656400000000000000000000000000000000000060408301526060820190505b919050565b600060208252600460208301527f4e6f6f700000000000000000000000000000000000000000000000000000000060408301526060820190505b919050565b600060208252600b60208301527f416c72656164792073657400000000000000000000000000000000000000000060408301526060820190505b919050565b600060208252601760208301527f496e73756666696369656e7420544350204c6f636b656400000000000000000060408301526060820190505b919050565b600060208252601060208301527f416c72656164792073687574646f776e0000000000000000000000000000000060408301526060820190505b919050565b600060208252600c60208301527f4e6f742073687574646f776e000000000000000000000000000000000000000060408301526060820190505b919050565b600060208252600660208301527f4c4f434b4544000000000000000000000000000000000000000000000000000060408301526060820190505b919050565b60006020820190508282525b92915050565b600060208201905067ffffffffffffffff831682525b92915050565b600060208201905060ff831682525b92915050565b60005b8381101561648b5780820151818401525b60208101905061646f565b8381111561649a576000848401525b505b505050565b73ffffffffffffffffffffffffffffffffffffffff8116811415156164c65760006000fd5b5b50565bfea2646970667358221220c87145799753ad57f73e68f06573d905db43663abff157e6d7a0dead9f86727864736f6c63430007060033",
  "linkReferences": {},
  "deployedLinkReferences": {}
}