{
  "_format": "hh-sol-artifact-1",
  "contractName": "GovernorTestable",
  "sourceName": "contracts/mocks/GovernorTestable.sol",
  "abi": [
    {
      "inputs": [],
      "stateMutability": "nonpayable",
      "type": "constructor"
    },
    {
      "anonymous": false,
      "inputs": [
        {
          "indexed": true,
          "internalType": "address",
          "name": "from",
          "type": "address"
        },
        {
          "indexed": true,
          "internalType": "address",
          "name": "to",
          "type": "address"
        }
      ],
      "name": "AdminUpdated",
      "type": "event"
    },
    {
      "anonymous": false,
      "inputs": [
        {
          "indexed": true,
          "internalType": "string",
          "name": "contractName",
          "type": "string"
        },
        {
          "indexed": true,
          "internalType": "address",
          "name": "contractAddress",
          "type": "address"
        }
      ],
      "name": "ContractUpgraded",
      "type": "event"
    },
    {
      "anonymous": false,
      "inputs": [
        {
          "indexed": false,
          "internalType": "uint64",
          "name": "shutdownTime",
          "type": "uint64"
        }
      ],
      "name": "EmergencyShutdownExecuted",
      "type": "event"
    },
    {
      "anonymous": false,
      "inputs": [
        {
          "indexed": true,
          "internalType": "address",
          "name": "newGovernor",
          "type": "address"
        }
      ],
      "name": "ProtocolUpgraded",
      "type": "event"
    },
    {
      "anonymous": false,
      "inputs": [],
      "name": "ShutdownExecuted",
      "type": "event"
    },
    {
      "anonymous": false,
      "inputs": [
        {
          "indexed": true,
          "internalType": "address",
          "name": "locker",
          "type": "address"
        },
        {
          "indexed": false,
          "internalType": "uint256",
          "name": "count",
          "type": "uint256"
        }
      ],
      "name": "ShutdownTokensLocked",
      "type": "event"
    },
    {
      "anonymous": false,
      "inputs": [
        {
          "indexed": true,
          "internalType": "address",
          "name": "locker",
          "type": "address"
        },
        {
          "indexed": false,
          "internalType": "uint256",
          "name": "count",
          "type": "uint256"
        }
      ],
      "name": "ShutdownTokensUnlocked",
      "type": "event"
    },
    {
      "inputs": [],
      "name": "EMERGENCY_SHUTDOWN_THRESHOLD",
      "outputs": [
        {
          "internalType": "uint256",
          "name": "",
          "type": "uint256"
        }
      ],
      "stateMutability": "view",
      "type": "function"
    },
    {
      "inputs": [],
      "name": "GENESIS_PERIODS",
      "outputs": [
        {
          "internalType": "uint64",
          "name": "",
          "type": "uint64"
        }
      ],
      "stateMutability": "view",
      "type": "function"
    },
    {
      "inputs": [],
      "name": "NAME",
      "outputs": [
        {
          "internalType": "string",
          "name": "",
          "type": "string"
        }
      ],
      "stateMutability": "view",
      "type": "function"
    },
    {
      "inputs": [],
      "name": "accounting",
      "outputs": [
        {
          "internalType": "contract IAccounting",
          "name": "",
          "type": "address"
        }
      ],
      "stateMutability": "view",
      "type": "function"
    },
    {
      "inputs": [
        {
          "internalType": "contract IUniswapV3Pool",
          "name": "pool",
          "type": "address"
        }
      ],
      "name": "addReferencePoolToProtocol",
      "outputs": [],
      "stateMutability": "nonpayable",
      "type": "function"
    },
    {
      "inputs": [],
      "name": "auctions",
      "outputs": [
        {
          "internalType": "contract IAuctions",
          "name": "",
          "type": "address"
        }
      ],
      "stateMutability": "view",
      "type": "function"
    },
    {
      "inputs": [
        {
          "internalType": "uint64",
          "name": "rewardsPeriod",
          "type": "uint64"
        }
      ],
      "name": "calculateCurrentDailyRewardCount",
      "outputs": [
        {
          "internalType": "uint256",
          "name": "result",
          "type": "uint256"
        }
      ],
      "stateMutability": "pure",
      "type": "function"
    },
    {
      "inputs": [
        {
          "internalType": "uint64",
          "name": "bootsrapPeriod",
          "type": "uint64"
        }
      ],
      "name": "calculateRewardsForBootstrapPeriod",
      "outputs": [
        {
          "internalType": "uint256",
          "name": "result",
          "type": "uint256"
        }
      ],
      "stateMutability": "pure",
      "type": "function"
    },
    {
      "inputs": [
        {
          "internalType": "uint64",
          "name": "rewardsPeriod",
          "type": "uint64"
        }
      ],
      "name": "calculateTotalLiquidityRewards",
      "outputs": [
        {
          "internalType": "uint256",
          "name": "result",
          "type": "uint256"
        }
      ],
      "stateMutability": "pure",
      "type": "function"
    },
    {
      "inputs": [],
      "name": "collateralPool",
      "outputs": [
        {
          "internalType": "contract IUniswapV3Pool",
          "name": "",
          "type": "address"
        }
      ],
      "stateMutability": "view",
      "type": "function"
    },
    {
      "inputs": [
        {
          "internalType": "contract IUniswapV3Pool[]",
          "name": "pools",
          "type": "address[]"
        },
        {
          "internalType": "contract IUniswapV3Pool",
          "name": "pool",
          "type": "address"
        }
      ],
      "name": "contains",
      "outputs": [
        {
          "internalType": "bool",
          "name": "",
          "type": "bool"
        }
      ],
      "stateMutability": "pure",
      "type": "function"
    },
    {
      "inputs": [],
      "name": "contractsInitialized",
      "outputs": [
        {
          "internalType": "bool",
          "name": "",
          "type": "bool"
        }
      ],
      "stateMutability": "view",
      "type": "function"
    },
    {
      "inputs": [],
      "name": "currentDailyRewardCount",
      "outputs": [
        {
          "internalType": "uint256",
          "name": "",
          "type": "uint256"
        }
      ],
      "stateMutability": "view",
      "type": "function"
    },
    {
      "inputs": [],
      "name": "currentPeriod",
      "outputs": [
        {
          "internalType": "uint64",
          "name": "period",
          "type": "uint64"
        }
      ],
      "stateMutability": "view",
      "type": "function"
    },
    {
      "inputs": [],
      "name": "currentPhase",
      "outputs": [
        {
          "internalType": "uint8",
          "name": "",
          "type": "uint8"
        }
      ],
      "stateMutability": "view",
      "type": "function"
    },
    {
      "inputs": [
        {
          "internalType": "address",
          "name": "to",
          "type": "address"
        },
        {
          "internalType": "uint256",
          "name": "count",
          "type": "uint256"
        }
      ],
      "name": "distributeLiquidityRewards",
      "outputs": [],
      "stateMutability": "nonpayable",
      "type": "function"
    },
    {
      "inputs": [],
      "name": "distributedTCP",
      "outputs": [
        {
          "internalType": "uint256",
          "name": "",
          "type": "uint256"
        }
      ],
      "stateMutability": "view",
      "type": "function"
    },
    {
      "inputs": [],
      "name": "distributionScheduleTokens",
      "outputs": [
        {
          "internalType": "uint256",
          "name": "",
          "type": "uint256"
        }
      ],
      "stateMutability": "view",
      "type": "function"
    },
    {
      "inputs": [],
      "name": "emergencyShutdownThresholdMet",
      "outputs": [
        {
          "internalType": "bool",
          "name": "",
          "type": "bool"
        }
      ],
      "stateMutability": "view",
      "type": "function"
    },
    {
      "inputs": [
        {
          "internalType": "address",
          "name": "",
          "type": "address"
        }
      ],
      "name": "emergencyShutdownTokensLocked",
      "outputs": [
        {
          "internalType": "uint256",
          "name": "",
          "type": "uint256"
        }
      ],
      "stateMutability": "view",
      "type": "function"
    },
    {
      "inputs": [],
      "name": "enforcedDecentralization",
      "outputs": [
        {
          "internalType": "contract IEnforcedDecentralization",
          "name": "",
          "type": "address"
        }
      ],
      "stateMutability": "view",
      "type": "function"
    },
    {
      "inputs": [
        {
          "internalType": "address",
          "name": "target",
          "type": "address"
        },
        {
          "internalType": "string",
          "name": "signature",
          "type": "string"
        },
        {
          "internalType": "bytes",
          "name": "data",
          "type": "bytes"
        }
      ],
      "name": "execute",
      "outputs": [
        {
          "internalType": "bool",
          "name": "success",
          "type": "bool"
        },
        {
          "internalType": "bytes",
          "name": "returnData",
          "type": "bytes"
        }
      ],
      "stateMutability": "nonpayable",
      "type": "function"
    },
    {
      "inputs": [],
      "name": "executeEmergencyShutdown",
      "outputs": [],
      "stateMutability": "nonpayable",
      "type": "function"
    },
    {
      "inputs": [],
      "name": "executeShutdown",
      "outputs": [],
      "stateMutability": "nonpayable",
      "type": "function"
    },
    {
      "inputs": [],
      "name": "firstPeriod",
      "outputs": [
        {
          "internalType": "uint64",
          "name": "",
          "type": "uint64"
        }
      ],
      "stateMutability": "view",
      "type": "function"
    },
    {
      "inputs": [],
      "name": "getReferencePools",
      "outputs": [
        {
          "internalType": "contract IUniswapV3Pool[]",
          "name": "",
          "type": "address[]"
        }
      ],
      "stateMutability": "view",
      "type": "function"
    },
    {
      "inputs": [
        {
          "internalType": "address",
          "name": "userAddress",
          "type": "address"
        }
      ],
      "name": "getSignaturePayloadForUserAddress",
      "outputs": [
        {
          "internalType": "bytes32",
          "name": "",
          "type": "bytes32"
        }
      ],
      "stateMutability": "view",
      "type": "function"
    },
    {
      "inputs": [
        {
          "internalType": "uint256",
          "name": "count",
          "type": "uint256"
        }
      ],
      "name": "increaseLiquidationAccountRewards",
      "outputs": [],
      "stateMutability": "nonpayable",
      "type": "function"
    },
    {
      "inputs": [
        {
          "internalType": "contract IAuctions",
          "name": "_auctions",
          "type": "address"
        },
        {
          "internalType": "contract ITCP",
          "name": "_tcp",
          "type": "address"
        },
        {
          "internalType": "contract ILend",
          "name": "_lend",
          "type": "address"
        },
        {
          "internalType": "contract ILiquidations",
          "name": "_liquidations",
          "type": "address"
        },
        {
          "internalType": "contract IMarket",
          "name": "_market",
          "type": "address"
        },
        {
          "internalType": "contract IRates",
          "name": "_rates",
          "type": "address"
        },
        {
          "internalType": "contract IPrices",
          "name": "_prices",
          "type": "address"
        },
        {
          "internalType": "contract IProtocolLock",
          "name": "_protocolLock",
          "type": "address"
        },
        {
          "internalType": "contract IRewards",
          "name": "_rewards",
          "type": "address"
        },
        {
          "internalType": "contract ISettlement",
          "name": "_settlement",
          "type": "address"
        }
      ],
      "name": "initContracts",
      "outputs": [],
      "stateMutability": "nonpayable",
      "type": "function"
    },
    {
      "inputs": [
        {
          "internalType": "contract IUniswapV3Pool",
          "name": "_protocolPool",
          "type": "address"
        },
        {
          "internalType": "contract IUniswapV3Pool",
          "name": "_collateralPool",
          "type": "address"
        },
        {
          "internalType": "contract IUniswapV3Pool[]",
          "name": "_referencePool",
          "type": "address[]"
        }
      ],
      "name": "initPools",
      "outputs": [],
      "stateMutability": "nonpayable",
      "type": "function"
    },
    {
      "inputs": [],
      "name": "isShutdown",
      "outputs": [
        {
          "internalType": "bool",
          "name": "",
          "type": "bool"
        }
      ],
      "stateMutability": "view",
      "type": "function"
    },
    {
      "inputs": [],
      "name": "lend",
      "outputs": [
        {
          "internalType": "contract ILend",
          "name": "",
          "type": "address"
        }
      ],
      "stateMutability": "view",
      "type": "function"
    },
    {
      "inputs": [],
      "name": "lendZhu",
      "outputs": [
        {
          "internalType": "contract ILendZhu",
          "name": "",
          "type": "address"
        }
      ],
      "stateMutability": "view",
      "type": "function"
    },
    {
      "inputs": [],
      "name": "liquidationAccountRewards",
      "outputs": [
        {
          "internalType": "uint256",
          "name": "",
          "type": "uint256"
        }
      ],
      "stateMutability": "view",
      "type": "function"
    },
    {
      "inputs": [],
      "name": "liquidations",
      "outputs": [
        {
          "internalType": "contract ILiquidations",
          "name": "",
          "type": "address"
        }
      ],
      "stateMutability": "view",
      "type": "function"
    },
    {
      "inputs": [
        {
          "internalType": "uint256",
          "name": "count",
          "type": "uint256"
        }
      ],
      "name": "lockTokensForEmergencyShutdown",
      "outputs": [],
      "stateMutability": "nonpayable",
      "type": "function"
    },
    {
      "inputs": [],
      "name": "market",
      "outputs": [
        {
          "internalType": "contract IMarket",
          "name": "",
          "type": "address"
        }
      ],
      "stateMutability": "view",
      "type": "function"
    },
    {
      "inputs": [
        {
          "internalType": "address",
          "name": "to",
          "type": "address"
        },
        {
          "internalType": "uint256",
          "name": "count",
          "type": "uint256"
        }
      ],
      "name": "mintTCP",
      "outputs": [],
      "stateMutability": "nonpayable",
      "type": "function"
    },
    {
      "inputs": [],
      "name": "periodLength",
      "outputs": [
        {
          "internalType": "uint64",
          "name": "",
          "type": "uint64"
        }
      ],
      "stateMutability": "view",
      "type": "function"
    },
    {
      "inputs": [],
      "name": "pricePoolsInitialized",
      "outputs": [
        {
          "internalType": "bool",
          "name": "",
          "type": "bool"
        }
      ],
      "stateMutability": "view",
      "type": "function"
    },
    {
      "inputs": [],
      "name": "prices",
      "outputs": [
        {
          "internalType": "contract IPrices",
          "name": "",
          "type": "address"
        }
      ],
      "stateMutability": "view",
      "type": "function"
    },
    {
      "inputs": [],
      "name": "protocolDeployer",
      "outputs": [
        {
          "internalType": "address",
          "name": "",
          "type": "address"
        }
      ],
      "stateMutability": "view",
      "type": "function"
    },
    {
      "inputs": [],
      "name": "protocolLock",
      "outputs": [
        {
          "internalType": "contract IProtocolLock",
          "name": "",
          "type": "address"
        }
      ],
      "stateMutability": "view",
      "type": "function"
    },
    {
      "inputs": [],
      "name": "protocolPool",
      "outputs": [
        {
          "internalType": "contract IUniswapV3Pool",
          "name": "",
          "type": "address"
        }
      ],
      "stateMutability": "view",
      "type": "function"
    },
    {
      "inputs": [],
      "name": "rates",
      "outputs": [
        {
          "internalType": "contract IRates",
          "name": "",
          "type": "address"
        }
      ],
      "stateMutability": "view",
      "type": "function"
    },
    {
      "inputs": [
        {
          "internalType": "uint256",
          "name": "",
          "type": "uint256"
        }
      ],
      "name": "referencePool",
      "outputs": [
        {
          "internalType": "contract IUniswapV3Pool",
          "name": "",
          "type": "address"
        }
      ],
      "stateMutability": "view",
      "type": "function"
    },
    {
      "inputs": [
        {
          "internalType": "contract IUniswapV3Pool[]",
          "name": "pools",
          "type": "address[]"
        },
        {
          "internalType": "contract IUniswapV3Pool",
          "name": "pool",
          "type": "address"
        }
      ],
      "name": "removePoolFromPools",
      "outputs": [
        {
          "internalType": "contract IUniswapV3Pool[]",
          "name": "",
          "type": "address[]"
        }
      ],
      "stateMutability": "pure",
      "type": "function"
    },
    {
      "inputs": [
        {
          "internalType": "contract IUniswapV3Pool",
          "name": "pool",
          "type": "address"
        }
      ],
      "name": "removeReferencePoolFromProtocol",
      "outputs": [],
      "stateMutability": "nonpayable",
      "type": "function"
    },
    {
      "inputs": [
        {
          "internalType": "address",
          "name": "caller",
          "type": "address"
        }
      ],
      "name": "requireDecreaseDebtAccess",
      "outputs": [],
      "stateMutability": "view",
      "type": "function"
    },
    {
      "inputs": [
        {
          "internalType": "address",
          "name": "caller",
          "type": "address"
        },
        {
          "components": [
            {
              "internalType": "uint8",
              "name": "v",
              "type": "uint8"
            },
            {
              "internalType": "bytes32",
              "name": "r",
              "type": "bytes32"
            },
            {
              "internalType": "bytes32",
              "name": "s",
              "type": "bytes32"
            }
          ],
          "internalType": "struct IGovernor.GenesisAuth",
          "name": "ga",
          "type": "tuple"
        }
      ],
      "name": "requireGenesisAuthenticated",
      "outputs": [
        {
          "internalType": "bool",
          "name": "isGenesis",
          "type": "bool"
        }
      ],
      "stateMutability": "view",
      "type": "function"
    },
    {
      "inputs": [
        {
          "internalType": "address",
          "name": "caller",
          "type": "address"
        }
      ],
      "name": "requireLentZhuCountAccess",
      "outputs": [],
      "stateMutability": "view",
      "type": "function"
    },
    {
      "inputs": [
        {
          "internalType": "address",
          "name": "caller",
          "type": "address"
        }
      ],
      "name": "requirePositionWriteAccess",
      "outputs": [],
      "stateMutability": "view",
      "type": "function"
    },
    {
      "inputs": [
        {
          "internalType": "address",
          "name": "caller",
          "type": "address"
        }
      ],
      "name": "requireStoredCollateralAccess",
      "outputs": [],
      "stateMutability": "view",
      "type": "function"
    },
    {
      "inputs": [
        {
          "internalType": "address",
          "name": "caller",
          "type": "address"
        }
      ],
      "name": "requireUpdatePositionAccess",
      "outputs": [],
      "stateMutability": "view",
      "type": "function"
    },
    {
      "inputs": [
        {
          "internalType": "address",
          "name": "caller",
          "type": "address"
        }
      ],
      "name": "requireZhuMintingAccess",
      "outputs": [],
      "stateMutability": "view",
      "type": "function"
    },
    {
      "inputs": [
        {
          "internalType": "address",
          "name": "caller",
          "type": "address"
        }
      ],
      "name": "requireZhuReservesBurnAccess",
      "outputs": [],
      "stateMutability": "view",
      "type": "function"
    },
    {
      "inputs": [],
      "name": "rewards",
      "outputs": [
        {
          "internalType": "contract IRewards",
          "name": "",
          "type": "address"
        }
      ],
      "stateMutability": "view",
      "type": "function"
    },
    {
      "inputs": [
        {
          "internalType": "uint64",
          "name": "phaseOneStartTime",
          "type": "uint64"
        }
      ],
      "name": "setPhaseOneStartTime",
      "outputs": [],
      "stateMutability": "nonpayable",
      "type": "function"
    },
    {
      "inputs": [],
      "name": "settlement",
      "outputs": [
        {
          "internalType": "contract ISettlement",
          "name": "",
          "type": "address"
        }
      ],
      "stateMutability": "view",
      "type": "function"
    },
    {
      "inputs": [],
      "name": "shutdownTime",
      "outputs": [
        {
          "internalType": "uint64",
          "name": "",
          "type": "uint64"
        }
      ],
      "stateMutability": "view",
      "type": "function"
    },
    {
      "inputs": [],
      "name": "tcp",
      "outputs": [
        {
          "internalType": "contract ITCP",
          "name": "",
          "type": "address"
        }
      ],
      "stateMutability": "view",
      "type": "function"
    },
    {
      "inputs": [],
      "name": "tcpMinted",
      "outputs": [
        {
          "internalType": "uint256",
          "name": "",
          "type": "uint256"
        }
      ],
      "stateMutability": "view",
      "type": "function"
    },
    {
      "inputs": [],
      "name": "timelock",
      "outputs": [
        {
          "internalType": "address",
          "name": "",
          "type": "address"
        }
      ],
      "stateMutability": "view",
      "type": "function"
    },
    {
      "inputs": [],
      "name": "totalLiquidityRewards",
      "outputs": [
        {
          "internalType": "uint256",
          "name": "",
          "type": "uint256"
        }
      ],
      "stateMutability": "view",
      "type": "function"
    },
    {
      "inputs": [],
      "name": "unlockTokensForEmergencyShutdown",
      "outputs": [],
      "stateMutability": "nonpayable",
      "type": "function"
    },
    {
      "inputs": [
        {
          "internalType": "contract IAuctions",
          "name": "_auctions",
          "type": "address"
        }
      ],
      "name": "upgradeAuctions",
      "outputs": [],
      "stateMutability": "nonpayable",
      "type": "function"
    },
    {
      "inputs": [
        {
          "internalType": "contract ILend",
          "name": "_lend",
          "type": "address"
        }
      ],
      "name": "upgradeLend",
      "outputs": [],
      "stateMutability": "nonpayable",
      "type": "function"
    },
    {
      "inputs": [
        {
          "internalType": "contract ILiquidations",
          "name": "_liquidations",
          "type": "address"
        }
      ],
      "name": "upgradeLiquidations",
      "outputs": [],
      "stateMutability": "nonpayable",
      "type": "function"
    },
    {
      "inputs": [
        {
          "internalType": "contract IMarket",
          "name": "_market",
          "type": "address"
        }
      ],
      "name": "upgradeMarket",
      "outputs": [],
      "stateMutability": "nonpayable",
      "type": "function"
    },
    {
      "inputs": [
        {
          "internalType": "contract IPrices",
          "name": "_prices",
          "type": "address"
        }
      ],
      "name": "upgradePrices",
      "outputs": [],
      "stateMutability": "nonpayable",
      "type": "function"
    },
    {
      "inputs": [
        {
          "internalType": "address",
          "name": "newGovernor",
          "type": "address"
        }
      ],
      "name": "upgradeProtocol",
      "outputs": [],
      "stateMutability": "nonpayable",
      "type": "function"
    },
    {
      "inputs": [
        {
          "internalType": "contract IRates",
          "name": "_rates",
          "type": "address"
        }
      ],
      "name": "upgradeRates",
      "outputs": [],
      "stateMutability": "nonpayable",
      "type": "function"
    },
    {
      "inputs": [
        {
          "internalType": "contract IRewards",
          "name": "_rewards",
          "type": "address"
        }
      ],
      "name": "upgradeRewards",
      "outputs": [],
      "stateMutability": "nonpayable",
      "type": "function"
    },
    {
      "inputs": [
        {
          "internalType": "contract ISettlement",
          "name": "_settlement",
          "type": "address"
        }
      ],
      "name": "upgradeSettlement",
      "outputs": [],
      "stateMutability": "nonpayable",
      "type": "function"
    },
    {
      "inputs": [
        {
          "internalType": "bytes4",
          "name": "",
          "type": "bytes4"
        }
      ],
      "name": "validUpdate",
      "outputs": [
        {
          "internalType": "bool",
          "name": "",
          "type": "bool"
        }
      ],
      "stateMutability": "view",
      "type": "function"
    },
    {
      "inputs": [
        {
          "internalType": "address",
          "name": "target",
          "type": "address"
        },
        {
          "internalType": "string",
          "name": "signature",
          "type": "string"
        }
      ],
      "name": "validateAction",
      "outputs": [
        {
          "internalType": "bool",
          "name": "",
          "type": "bool"
        }
      ],
      "stateMutability": "view",
      "type": "function"
    },
    {
      "inputs": [],
      "name": "zhu",
      "outputs": [
        {
          "internalType": "contract IZhu",
          "name": "",
          "type": "address"
        }
      ],
      "stateMutability": "view",
      "type": "function"
    },
    {
      "inputs": [],
      "name": "zhuPositionNFT",
      "outputs": [
        {
          "internalType": "contract IPositionNFT",
          "name": "",
          "type": "address"
        }
      ],
      "stateMutability": "view",
      "type": "function"
    }
  ],
  "bytecode": "0x60e06040527fffffffffffffffffffffffffffffffffffffffffffffffffffffffffffffffff601c6000509090556001601d600050909055348015620000455760006000fd5b505b61dead61dead61dead61dead61dead61dead61dead678ac7230489e800005b5b620151805b60018167ffffffffffffffff16620000896200030f60201b60201c565b67ffffffffffffffff168115156200009d57fe5b040367ffffffffffffffff1660a08167ffffffffffffffff1660c01b815260080150508067ffffffffffffffff1660808167ffffffffffffffff1660c01b815260080150505b50600160006000508190909055505b33601b60006101000a81548173ffffffffffffffffffffffffffffffffffffffff021916908373ffffffffffffffffffffffffffffffffffffffff1602179055508173ffffffffffffffffffffffffffffffffffffffff1660c08173ffffffffffffffffffffffffffffffffffffffff1660601b8152601401505087600960006101000a81548173ffffffffffffffffffffffffffffffffffffffff021916908373ffffffffffffffffffffffffffffffffffffffff16021790555086600d60006101000a81548173ffffffffffffffffffffffffffffffffffffffff021916908373ffffffffffffffffffffffffffffffffffffffff16021790555085600e60006101000a81548173ffffffffffffffffffffffffffffffffffffffff021916908373ffffffffffffffffffffffffffffffffffffffff16021790555084601160006101000a81548173ffffffffffffffffffffffffffffffffffffffff021916908373ffffffffffffffffffffffffffffffffffffffff16021790555083600f60006101000a81548173ffffffffffffffffffffffffffffffffffffffff021916908373ffffffffffffffffffffffffffffffffffffffff16021790555082601960006101000a81548173ffffffffffffffffffffffffffffffffffffffff021916908373ffffffffffffffffffffffffffffffffffffffff1602179055508060056000508190909055505b50505050505050505b620003c5565b600062000329426200033160201b62006f8d17909060201c565b905080505b90565b60006801000000000000000082101515620003b7576040517f08c379a00000000000000000000000000000000000000000000000000000000081526004018080602001828103825260118152602001807f6d6f7265207468616e203634206269747300000000000000000000000000000081526020015060200191505060405180910390fd5b819050620003c0565b919050565b60805160c01c60a05160c01c60c05160601c6192d46200040f60003980616b3e525080615b2352806170535280617961525080615e365280617074528061798252506192d46000f3fe60806040523480156100115760006000fd5b506004361061054f5760003560e01c80639ec5a894116102bd578063c4e3a63b11610187578063e3f3522c116100e4578063f7d3fa8411610098578063fe4772771161007d578063fe47727714610e8c578063ff0eccf614610eaa578063ff26df7214610ec85761054f565b8063f7d3fa8414610e3e578063fa117b4d14610e5c5761054f565b8063e97a99b6116100c9578063e97a99b614610dfc578063ef7a7cfa14610e18578063f6fbc19214610e345761054f565b8063e3f3522c14610dc2578063e7c3779914610de05761054f565b8063d33219b41161013b578063d478b08711610120578063d478b08714610d56578063d4f986d714610d74578063da9ee0ed14610d925761054f565b8063d33219b414610d1a578063d3419bf314610d385761054f565b8063ce4996821161016c578063ce49968214610cd4578063d0d8ab9a14610cf2578063d2ca211514610cfc5761054f565b8063c4e3a63b14610c86578063cb9b7b7f14610ca45761054f565b8063b8188c8111610235578063bfec9bf8116101e9578063c24d745f116101ce578063c24d745f14610c1c578063c34cdf7514610c4c578063c375e6ed14610c685761054f565b8063bfec9bf814610be4578063c04be45414610c005761054f565b8063b971dc051161021a578063b971dc0514610b7a578063bf5d5ae314610b96578063bf86d69014610bc65761054f565b8063b8188c8114610b2e578063b8909bb914610b4a5761054f565b8063aa2964871161028c578063b062f9c411610271578063b062f9c414610ad8578063b216cd9414610af4578063b236129014610b105761054f565b8063aa29648714610a9c578063ab658be214610aba5761054f565b80639ec5a89414610a28578063a1c1f90d14610a46578063a3f4df7e14610a62578063a715474714610a805761054f565b80635856908111610419578063879f99d7116103765780639622cd8f1161032a57806397dffc611161030f57806397dffc61146109d05780639a371c84146109ee5780639bd1861614610a0c5761054f565b80639622cd8f146109965780639624e83e146109b25761054f565b80638a15fcf31161035b5780638a15fcf3146109405780638f40b82f1461095e578063921ee9821461097a5761054f565b8063879f99d7146108f457806388a4bfb7146109245761054f565b806380f55605116103cd57806383208f53116103b257806383208f531461089c5780638396cf69146108b857806385aa6103146108d65761054f565b806380f5560514610862578063827015c3146108805761054f565b806377c0f3a4116103fe57806377c0f3a41461080c57806380304d091461082a57806380b5c665146108465761054f565b806358569081146107d2578063685a1cd6146107f05761054f565b8063330c093c116104c757806343f48fbd1161047b5780634cc1f55d116104605780634cc1f55d1461077a578063511606301461079657806355379e56146107b45761054f565b806343f48fbd1461073e5780634b414e321461075c5761054f565b806336fc02f4116104ac57806336fc02f4146106c05780633da80d66146106de5780633f88b0c51461070e5761054f565b8063330c093c1461067157806333daf5d41461068f5761054f565b80630b1c7d1f1161051e57806311b7c6911161050357806311b7c6911461062b578063232948ea1461064957806327481dcc146106535761054f565b80630b1c7d1f146105df578063113cf1ab146105fb5761054f565b80630132ebc01461055557806304f07ea714610585578063055ad42e146105a357806306040618146105c15761054f565b60006000fd5b61056f600480360381019061056a9190618716565b610ee4565b60405161057c9190619177565b60405180910390f35b61058d610eff565b60405161059a9190619177565b60405180910390f35b6105ab610f08565b6040516105b891906191a5565b60405180910390f35b6105c9610fb6565b6040516105d69190619189565b60405180910390f35b6105f960048036038101906105f49190618540565b610fce565b005b610615600480360381019061061091906183e5565b61134c565b6040516106229190618b9c565b60405180910390f35b610633611371565b6040516106409190618b9c565b60405180910390f35b610651611384565b005b61065b611528565b6040516106689190619177565b60405180910390f35b610679611531565b6040516106869190618a3b565b60405180910390f35b6106a960048036038101906106a4919061822d565b611557565b6040516106b7929190618bb0565b60405180910390f35b6106c86117fd565b6040516106d59190618def565b60405180910390f35b6106f860048036038101906106f39190618366565b611823565b6040516107059190618b9c565b60405180910390f35b61072860048036038101906107239190618180565b611842565b6040516107359190619177565b60405180910390f35b61074661185d565b6040516107539190618d77565b60405180910390f35b610764611883565b6040516107719190618c37565b60405180910390f35b610794600480360381019061078f9190618678565b6118a9565b005b61079e611f99565b6040516107ab9190618dc7565b60405180910390f35b6107bc611fbf565b6040516107c99190619177565b60405180910390f35b6107da611fc8565b6040516107e79190619189565b60405180910390f35b61080a60048036038101906108059190618651565b611fe2565b005b6108146124ce565b6040516108219190618c5f565b60405180910390f35b610844600480360381019061083f9190618603565b6124f4565b005b610860600480360381019061085b9190618180565b612923565b005b61086a612c73565b6040516108779190618cd7565b60405180910390f35b61089a60048036038101906108959190618651565b612c99565b005b6108b660048036038101906108b191906185b5565b6130b2565b005b6108c0613430565b6040516108cd9190618e17565b60405180910390f35b6108de613456565b6040516108eb9190618c0f565b60405180910390f35b61090e60048036038101906109099190618180565b61347c565b60405161091b9190618bd5565b60405180910390f35b61093e600480360381019061093991906186de565b6134fc565b005b61094861373c565b6040516109559190618e3f565b60405180910390f35b6109786004803603810190610973919061862a565b613762565b005b610994600480360381019061098f9190618180565b613ae0565b005b6109b060048036038101906109ab9190618180565b613b9b565b005b6109ba613c56565b6040516109c79190618be7565b60405180910390f35b6109d8613c7c565b6040516109e59190618c87565b60405180910390f35b6109f6613ca2565b604051610a039190618caf565b60405180910390f35b610a266004803603810190610a219190618459565b613cc8565b005b610a30614789565b604051610a3d9190618d9f565b60405180910390f35b610a606004803603810190610a5b91906185dc565b6147af565b005b610a6a614b2d565b604051610a779190618e67565b60405180910390f35b610a9a6004803603810190610a959190618180565b614b69565b005b610aa4614c24565b604051610ab19190619177565b60405180910390f35b610ac2614c6c565b604051610acf9190618b38565b60405180910390f35b610af26004803603810190610aed9190618180565b614d02565b005b610b0e6004803603810190610b099190618335565b614dbd565b005b610b186150de565b604051610b259190619189565b60405180910390f35b610b486004803603810190610b439190618716565b6150e3565b005b610b646004803603810190610b5f9190618716565b6152ec565b604051610b719190619177565b60405180910390f35b610b946004803603810190610b8f9190618567565b615307565b005b610bb06004803603810190610bab9190618366565b615685565b604051610bbd9190618b38565b60405180910390f35b610bce6156a4565b604051610bdb9190618b9c565b60405180910390f35b610bfe6004803603810190610bf99190618180565b6156d4565b005b610c1a6004803603810190610c159190618180565b6157e7565b005b610c366004803603810190610c3191906181a7565b6158fa565b604051610c439190618b9c565b60405180910390f35b610c666004803603810190610c6191906186de565b6159bb565b005b610c70615a41565b604051610c7d9190619177565b60405180910390f35b610c8e615b21565b604051610c9b9190619189565b60405180910390f35b610cbe6004803603810190610cb99190618716565b615b45565b604051610ccb9190619177565b60405180910390f35b610cdc615b60565b604051610ce99190618b9c565b60405180910390f35b610cfa615c64565b005b610d04615e34565b604051610d119190619189565b60405180910390f35b610d22615e58565b604051610d2f9190618a3b565b60405180910390f35b610d40615e7e565b604051610d4d9190618d27565b60405180910390f35b610d5e615ea4565b604051610d6b9190618d4f565b60405180910390f35b610d7c615eca565b604051610d899190618b9c565b60405180910390f35b610dac6004803603810190610da791906186de565b615edd565b604051610db99190618e17565b60405180910390f35b610dca615f23565b604051610dd79190618cff565b60405180910390f35b610dfa6004803603810190610df59190618180565b615f49565b005b610e166004803603810190610e119190618432565b61605c565b005b610e326004803603810190610e2d9190618335565b616496565b005b610e3c6166a8565b005b610e46616917565b604051610e539190619177565b60405180910390f35b610e766004803603810190610e7191906182d4565b616a2f565b604051610e839190618b9c565b60405180910390f35b610e94616bdd565b604051610ea19190619177565b60405180910390f35b610eb2616be9565b604051610ebf9190618e17565b60405180910390f35b610ee26004803603810190610edd919061858e565b616c0f565b005b6000610ef58261701f63ffffffff16565b905080505b919050565b60046000505481565b6000600f60009054906101000a900473ffffffffffffffffffffffffffffffffffffffff1673ffffffffffffffffffffffffffffffffffffffff1663055ad42e6040518163ffffffff1660e01b815260040160206040518083038186803b158015610f735760006000fd5b505afa158015610f88573d600060003e3d6000fd5b505050506040513d601f19601f82011682018060405250810190610fac9190618772565b9050610fb3565b90565b6000610fc661704f63ffffffff16565b905080505b90565b60026000600050541415151561104f576040517f08c379a000000000000000000000000000000000000000000000000000000000815260040180806020018281038252601f8152602001807f5265656e7472616e637947756172643a207265656e7472616e742063616c6c0081526020015060200191505060405180910390fd5b600260006000508190909055506110993073ffffffffffffffffffffffffffffffffffffffff163373ffffffffffffffffffffffffffffffffffffffff16146170c863ffffffff16565b601560009054906101000a900473ffffffffffffffffffffffffffffffffffffffff1673ffffffffffffffffffffffffffffffffffffffff16634ac8c5ae601060009054906101000a900473ffffffffffffffffffffffffffffffffffffffff166040518263ffffffff1660e01b81526004016111169190618a3b565b600060405180830381600087803b1580156111315760006000fd5b505af1158015611146573d600060003e3d6000fd5b50505050601060009054906101000a900473ffffffffffffffffffffffffffffffffffffffff1673ffffffffffffffffffffffffffffffffffffffff166307da68f56040518163ffffffff1660e01b8152600401600060405180830381600087803b1580156111b55760006000fd5b505af11580156111ca573d600060003e3d6000fd5b5050505080601060006101000a81548173ffffffffffffffffffffffffffffffffffffffff021916908373ffffffffffffffffffffffffffffffffffffffff160217905550601560009054906101000a900473ffffffffffffffffffffffffffffffffffffffff1673ffffffffffffffffffffffffffffffffffffffff16632c388d5d601060009054906101000a900473ffffffffffffffffffffffffffffffffffffffff166040518263ffffffff1660e01b815260040161128c9190618a3b565b600060405180830381600087803b1580156112a75760006000fd5b505af11580156112bc573d600060003e3d6000fd5b50505050601060009054906101000a900473ffffffffffffffffffffffffffffffffffffffff1673ffffffffffffffffffffffffffffffffffffffff1660405161130590618977565b60405180910390207f2b51ff7c4cc8e6fe1c72e9d9685b7d2a88a5d82ad3a644afbdceb0272c89c1c360405160405180910390a35b5b600160006000508190909055505b50565b601a60005060205280600052604060002060009150909054906101000a900460ff1681565b601b60159054906101000a900460ff1681565b600260006000505414151515611405576040517f08c379a000000000000000000000000000000000000000000000000000000000815260040180806020018281038252601f8152602001807f5265656e7472616e637947756172643a207265656e7472616e742063616c6c0081526020015060200191505060405180910390fd5b6002600060005081909090555061144f3073ffffffffffffffffffffffffffffffffffffffff163373ffffffffffffffffffffffffffffffffffffffff16146170c863ffffffff16565b6000600160009054906101000a900467ffffffffffffffff1667ffffffffffffffff161415156114b4576040517f08c379a00000000000000000000000000000000000000000000000000000000081526004016114ab906190ba565b60405180910390fd5b6114c261710e63ffffffff16565b600160006101000a81548167ffffffffffffffff021916908367ffffffffffffffff1602179055507f5a05a29d5ecece2d4f30720adf1a7449fc1ecb9a884a14629d08d3d2257ab90560405160405180910390a15b5b600160006000508190909055505b565b60036000505481565b601b60009054906101000a900473ffffffffffffffffffffffffffffffffffffffff1681565b600060606001601d600050541415156115a5576040517f08c379a000000000000000000000000000000000000000000000000000000000815260040161159c90619138565b60405180910390fd5b6000601d600050819090905550611611601960009054906101000a900473ffffffffffffffffffffffffffffffffffffffff1673ffffffffffffffffffffffffffffffffffffffff163373ffffffffffffffffffffffffffffffffffffffff16146170c863ffffffff16565b600f60009054906101000a900473ffffffffffffffffffffffffffffffffffffffff1673ffffffffffffffffffffffffffffffffffffffff1663c24d745f86866040518363ffffffff1660e01b815260040161166e929190618ad0565b60206040518083038186803b1580156116875760006000fd5b505afa15801561169c573d600060003e3d6000fd5b505050506040513d601f19601f820116820180604052508101906116c091906183b8565b1515611701576040517f08c379a00000000000000000000000000000000000000000000000000000000081526004016116f890618f7f565b60405180910390fd5b8473ffffffffffffffffffffffffffffffffffffffff166117278561712963ffffffff16565b846040516020016117399291906187e6565b6040516020818303038152906040526040516117559190618831565b6000604051808303816000865af19150503d8060008114611792576040519150601f19603f3d011682016040523d82523d6000602084013e611797565b606091505b50809250819350505081819015156117e5576040517f08c379a00000000000000000000000000000000000000000000000000000000081526004016117dc9190618e67565b60405180910390fd5b505b6001601d6000508190909055505b935093915050565b600c60009054906101000a900473ffffffffffffffffffffffffffffffffffffffff1681565b6000611835838361713f63ffffffff16565b905061183c565b92915050565b60026000506020528060005260406000206000915090505481565b601660009054906101000a900473ffffffffffffffffffffffffffffffffffffffff1681565b600f60009054906101000a900473ffffffffffffffffffffffffffffffffffffffff1681565b611908601b60009054906101000a900473ffffffffffffffffffffffffffffffffffffffff1673ffffffffffffffffffffffffffffffffffffffff163373ffffffffffffffffffffffffffffffffffffffff16146170c863ffffffff16565b601b60149054906101000a900460ff1680156119315750601b60159054906101000a900460ff16155b151561193d5760006000fd5b6001601b60156101000a81548160ff02191690831515021790555082600660006101000a81548173ffffffffffffffffffffffffffffffffffffffff021916908373ffffffffffffffffffffffffffffffffffffffff16021790555081600760006101000a81548173ffffffffffffffffffffffffffffffffffffffff021916908373ffffffffffffffffffffffffffffffffffffffff16021790555080600860005090805190602001906119f3929190617fca565b50601760009054906101000a900473ffffffffffffffffffffffffffffffffffffffff1673ffffffffffffffffffffffffffffffffffffffff16638aea8f716040518163ffffffff1660e01b8152600401600060405180830381600087803b158015611a5f5760006000fd5b505af1158015611a74573d600060003e3d6000fd5b50505050601060009054906101000a900473ffffffffffffffffffffffffffffffffffffffff1673ffffffffffffffffffffffffffffffffffffffff16638aea8f716040518163ffffffff1660e01b8152600401600060405180830381600087803b158015611ae35760006000fd5b505af1158015611af8573d600060003e3d6000fd5b50505050601460009054906101000a900473ffffffffffffffffffffffffffffffffffffffff1673ffffffffffffffffffffffffffffffffffffffff16638aea8f716040518163ffffffff1660e01b8152600401600060405180830381600087803b158015611b675760006000fd5b505af1158015611b7c573d600060003e3d6000fd5b50505050601660009054906101000a900473ffffffffffffffffffffffffffffffffffffffff1673ffffffffffffffffffffffffffffffffffffffff16638aea8f716040518163ffffffff1660e01b8152600401600060405180830381600087803b158015611beb5760006000fd5b505af1158015611c00573d600060003e3d6000fd5b50505050601260009054906101000a900473ffffffffffffffffffffffffffffffffffffffff1673ffffffffffffffffffffffffffffffffffffffff16638aea8f716040518163ffffffff1660e01b8152600401600060405180830381600087803b158015611c6f5760006000fd5b505af1158015611c84573d600060003e3d6000fd5b50505050600a60009054906101000a900473ffffffffffffffffffffffffffffffffffffffff1673ffffffffffffffffffffffffffffffffffffffff16638aea8f716040518163ffffffff1660e01b8152600401600060405180830381600087803b158015611cf35760006000fd5b505af1158015611d08573d600060003e3d6000fd5b50505050601360009054906101000a900473ffffffffffffffffffffffffffffffffffffffff1673ffffffffffffffffffffffffffffffffffffffff16638aea8f716040518163ffffffff1660e01b8152600401600060405180830381600087803b158015611d775760006000fd5b505af1158015611d8c573d600060003e3d6000fd5b505050506000604051806080016040528063685a1cd660e01b7bffffffffffffffffffffffffffffffffffffffffffffffffffffffff19167bffffffffffffffffffffffffffffffffffffffffffffffffffffffff1916815260200163827015c360e01b7bffffffffffffffffffffffffffffffffffffffffffffffffffffffff19167bffffffffffffffffffffffffffffffffffffffffffffffffffffffff1916815260200163232948ea60e01b7bffffffffffffffffffffffffffffffffffffffffffffffffffffffff19167bffffffffffffffffffffffffffffffffffffffffffffffffffffffff1916815260200163b8188c8160e01b7bffffffffffffffffffffffffffffffffffffffffffffffffffffffff19167bffffffffffffffffffffffffffffffffffffffffffffffffffffffff191681526020015090506000600090505b81506004811015611f6b576001601a60005060008484600481101515611ef557fe5b60200201517bffffffffffffffffffffffffffffffffffffffffffffffffffffffff19167bffffffffffffffffffffffffffffffffffffffffffffffffffffffff1916815260200190815260200160002060006101000a81548160ff0219169083151502179055505b8080600101915050611ed3565b50601b60006101000a81549073ffffffffffffffffffffffffffffffffffffffff0219169055505b5b505050565b601860009054906101000a900473ffffffffffffffffffffffffffffffffffffffff1681565b60056000505481565b600160009054906101000a900467ffffffffffffffff1681565b600260006000505414151515612063576040517f08c379a000000000000000000000000000000000000000000000000000000000815260040180806020018281038252601f8152602001807f5265656e7472616e637947756172643a207265656e7472616e742063616c6c0081526020015060200191505060405180910390fd5b600260006000508190909055506120ad3073ffffffffffffffffffffffffffffffffffffffff163373ffffffffffffffffffffffffffffffffffffffff16146170c863ffffffff16565b612146600860005080548060200260200160405190810160405280929190818152602001828054801561213557602002820191906000526020600020905b8160009054906101000a900473ffffffffffffffffffffffffffffffffffffffff1673ffffffffffffffffffffffffffffffffffffffff16815260200190600101908083116120eb575b50505050508261713f63ffffffff16565b151515612188576040517f08c379a000000000000000000000000000000000000000000000000000000000815260040161217f9061907b565b60405180910390fd5b600860005081908060018154018082558091505060019003906000526020600020900160005b9091909190916101000a81548173ffffffffffffffffffffffffffffffffffffffff021916908373ffffffffffffffffffffffffffffffffffffffff160217905550601360009054906101000a900473ffffffffffffffffffffffffffffffffffffffff1673ffffffffffffffffffffffffffffffffffffffff1663c381c1e6826040518263ffffffff1660e01b815260040161224b9190618e17565b600060405180830381600087803b1580156122665760006000fd5b505af115801561227b573d600060003e3d6000fd5b50505050601060009054906101000a900473ffffffffffffffffffffffffffffffffffffffff1673ffffffffffffffffffffffffffffffffffffffff1663c381c1e6826040518263ffffffff1660e01b81526004016122da9190618e17565b600060405180830381600087803b1580156122f55760006000fd5b505af115801561230a573d600060003e3d6000fd5b50505050601660009054906101000a900473ffffffffffffffffffffffffffffffffffffffff1673ffffffffffffffffffffffffffffffffffffffff1663c381c1e6826040518263ffffffff1660e01b81526004016123699190618e17565b600060405180830381600087803b1580156123845760006000fd5b505af1158015612399573d600060003e3d6000fd5b50505050601760009054906101000a900473ffffffffffffffffffffffffffffffffffffffff1673ffffffffffffffffffffffffffffffffffffffff1663c381c1e6826040518263ffffffff1660e01b81526004016123f89190618e17565b600060405180830381600087803b1580156124135760006000fd5b505af1158015612428573d600060003e3d6000fd5b50505050601460009054906101000a900473ffffffffffffffffffffffffffffffffffffffff1673ffffffffffffffffffffffffffffffffffffffff1663c381c1e6826040518263ffffffff1660e01b81526004016124879190618e17565b600060405180830381600087803b1580156124a25760006000fd5b505af11580156124b7573d600060003e3d6000fd5b505050505b5b600160006000508190909055505b50565b601160009054906101000a900473ffffffffffffffffffffffffffffffffffffffff1681565b600260006000505414151515612575576040517f08c379a000000000000000000000000000000000000000000000000000000000815260040180806020018281038252601f8152602001807f5265656e7472616e637947756172643a207265656e7472616e742063616c6c0081526020015060200191505060405180910390fd5b600260006000508190909055506125bf3073ffffffffffffffffffffffffffffffffffffffff163373ffffffffffffffffffffffffffffffffffffffff16146170c863ffffffff16565b601560009054906101000a900473ffffffffffffffffffffffffffffffffffffffff1673ffffffffffffffffffffffffffffffffffffffff16634ac8c5ae601760009054906101000a900473ffffffffffffffffffffffffffffffffffffffff166040518263ffffffff1660e01b815260040161263c9190618a3b565b600060405180830381600087803b1580156126575760006000fd5b505af115801561266c573d600060003e3d6000fd5b50505050601760009054906101000a900473ffffffffffffffffffffffffffffffffffffffff1673ffffffffffffffffffffffffffffffffffffffff166307da68f56040518163ffffffff1660e01b8152600401600060405180830381600087803b1580156126db5760006000fd5b505af11580156126f0573d600060003e3d6000fd5b5050505080601760006101000a81548173ffffffffffffffffffffffffffffffffffffffff021916908373ffffffffffffffffffffffffffffffffffffffff160217905550601560009054906101000a900473ffffffffffffffffffffffffffffffffffffffff1673ffffffffffffffffffffffffffffffffffffffff16632c388d5d601760009054906101000a900473ffffffffffffffffffffffffffffffffffffffff166040518263ffffffff1660e01b81526004016127b29190618a3b565b600060405180830381600087803b1580156127cd5760006000fd5b505af11580156127e2573d600060003e3d6000fd5b50505050600960009054906101000a900473ffffffffffffffffffffffffffffffffffffffff1673ffffffffffffffffffffffffffffffffffffffff1663a678f336601760009054906101000a900473ffffffffffffffffffffffffffffffffffffffff166040518263ffffffff1660e01b81526004016128639190618a3b565b600060405180830381600087803b15801561287e5760006000fd5b505af1158015612893573d600060003e3d6000fd5b50505050601760009054906101000a900473ffffffffffffffffffffffffffffffffffffffff1673ffffffffffffffffffffffffffffffffffffffff166040516128dc906188b3565b60405180910390207f2b51ff7c4cc8e6fe1c72e9d9685b7d2a88a5d82ad3a644afbdceb0272c89c1c360405160405180910390a35b5b600160006000508190909055505b50565b6002600060005054141515156129a4576040517f08c379a000000000000000000000000000000000000000000000000000000000815260040180806020018281038252601f8152602001807f5265656e7472616e637947756172643a207265656e7472616e742063616c6c0081526020015060200191505060405180910390fd5b600260006000508190909055506129ee3073ffffffffffffffffffffffffffffffffffffffff163373ffffffffffffffffffffffffffffffffffffffff16146170c863ffffffff16565b6000600160009054906101000a900467ffffffffffffffff1667ffffffffffffffff16111515612a53576040517f08c379a0000000000000000000000000000000000000000000000000000000008152600401612a4a906190f9565b60405180910390fd5b600c60009054906101000a900473ffffffffffffffffffffffffffffffffffffffff1673ffffffffffffffffffffffffffffffffffffffff166342966c68600c60009054906101000a900473ffffffffffffffffffffffffffffffffffffffff1673ffffffffffffffffffffffffffffffffffffffff166370a08231306040518263ffffffff1660e01b8152600401612aec9190618a3b565b60206040518083038186803b158015612b055760006000fd5b505afa158015612b1a573d600060003e3d6000fd5b505050506040513d601f19601f82011682018060405250810190612b3e91906186fa565b6040518263ffffffff1660e01b8152600401612b5a9190619177565b600060405180830381600087803b158015612b755760006000fd5b505af1158015612b8a573d600060003e3d6000fd5b50505050600c60009054906101000a900473ffffffffffffffffffffffffffffffffffffffff1673ffffffffffffffffffffffffffffffffffffffff16633c4a25d0826040518263ffffffff1660e01b8152600401612be99190618a3b565b600060405180830381600087803b158015612c045760006000fd5b505af1158015612c19573d600060003e3d6000fd5b505050508073ffffffffffffffffffffffffffffffffffffffff167f078ca541eec5b410213fc65330fc5a7324eb56fe692344e7bc1b8be56bd3c16960405160405180910390a25b5b600160006000508190909055505b50565b601360009054906101000a900473ffffffffffffffffffffffffffffffffffffffff1681565b600260006000505414151515612d1a576040517f08c379a000000000000000000000000000000000000000000000000000000000815260040180806020018281038252601f8152602001807f5265656e7472616e637947756172643a207265656e7472616e742063616c6c0081526020015060200191505060405180910390fd5b60026000600050819090905550612d643073ffffffffffffffffffffffffffffffffffffffff163373ffffffffffffffffffffffffffffffffffffffff16146170c863ffffffff16565b6001600860005080549050111515612db1576040517f08c379a0000000000000000000000000000000000000000000000000000000008152600401612da890618ffd565b60405180910390fd5b612e4a6008600050805480602002602001604051908101604052809291908181526020018280548015612e3957602002820191906000526020600020905b8160009054906101000a900473ffffffffffffffffffffffffffffffffffffffff1673ffffffffffffffffffffffffffffffffffffffff1681526020019060010190808311612def575b5050505050826171c263ffffffff16565b60086000509080519060200190612e62929190617fca565b50601360009054906101000a900473ffffffffffffffffffffffffffffffffffffffff1673ffffffffffffffffffffffffffffffffffffffff1663150147d7826040518263ffffffff1660e01b8152600401612ebe9190618e17565b600060405180830381600087803b158015612ed95760006000fd5b505af1158015612eee573d600060003e3d6000fd5b50505050601060009054906101000a900473ffffffffffffffffffffffffffffffffffffffff1673ffffffffffffffffffffffffffffffffffffffff1663150147d7826040518263ffffffff1660e01b8152600401612f4d9190618e17565b600060405180830381600087803b158015612f685760006000fd5b505af1158015612f7d573d600060003e3d6000fd5b50505050601660009054906101000a900473ffffffffffffffffffffffffffffffffffffffff1673ffffffffffffffffffffffffffffffffffffffff1663150147d7826040518263ffffffff1660e01b8152600401612fdc9190618e17565b600060405180830381600087803b158015612ff75760006000fd5b505af115801561300c573d600060003e3d6000fd5b50505050601760009054906101000a900473ffffffffffffffffffffffffffffffffffffffff1673ffffffffffffffffffffffffffffffffffffffff1663150147d7826040518263ffffffff1660e01b815260040161306b9190618e17565b600060405180830381600087803b1580156130865760006000fd5b505af115801561309b573d600060003e3d6000fd5b505050505b5b600160006000508190909055505b50565b600260006000505414151515613133576040517f08c379a000000000000000000000000000000000000000000000000000000000815260040180806020018281038252601f8152602001807f5265656e7472616e637947756172643a207265656e7472616e742063616c6c0081526020015060200191505060405180910390fd5b6002600060005081909090555061317d3073ffffffffffffffffffffffffffffffffffffffff163373ffffffffffffffffffffffffffffffffffffffff16146170c863ffffffff16565b601560009054906101000a900473ffffffffffffffffffffffffffffffffffffffff1673ffffffffffffffffffffffffffffffffffffffff16634ac8c5ae601460009054906101000a900473ffffffffffffffffffffffffffffffffffffffff166040518263ffffffff1660e01b81526004016131fa9190618a3b565b600060405180830381600087803b1580156132155760006000fd5b505af115801561322a573d600060003e3d6000fd5b50505050601460009054906101000a900473ffffffffffffffffffffffffffffffffffffffff1673ffffffffffffffffffffffffffffffffffffffff166307da68f56040518163ffffffff1660e01b8152600401600060405180830381600087803b1580156132995760006000fd5b505af11580156132ae573d600060003e3d6000fd5b5050505080601460006101000a81548173ffffffffffffffffffffffffffffffffffffffff021916908373ffffffffffffffffffffffffffffffffffffffff160217905550601560009054906101000a900473ffffffffffffffffffffffffffffffffffffffff1673ffffffffffffffffffffffffffffffffffffffff16632c388d5d601460009054906101000a900473ffffffffffffffffffffffffffffffffffffffff166040518263ffffffff1660e01b81526004016133709190618a3b565b600060405180830381600087803b15801561338b5760006000fd5b505af11580156133a0573d600060003e3d6000fd5b50505050601460009054906101000a900473ffffffffffffffffffffffffffffffffffffffff1673ffffffffffffffffffffffffffffffffffffffff166040516133e990618a0a565b60405180910390207f2b51ff7c4cc8e6fe1c72e9d9685b7d2a88a5d82ad3a644afbdceb0272c89c1c360405160405180910390a35b5b600160006000508190909055505b50565b600660009054906101000a900473ffffffffffffffffffffffffffffffffffffffff1681565b600a60009054906101000a900473ffffffffffffffffffffffffffffffffffffffff1681565b60006040518060400160405280601581526020017f5a68752050726f746f636f6c20476f7665726e6f7200000000000000000000008152602001506134c561734c63ffffffff16565b30846040516020016134da9493929190618850565b6040516020818303038152906040528051906020012090506134f7565b919050565b60026000600050541415151561357d576040517f08c379a000000000000000000000000000000000000000000000000000000000815260040180806020018281038252601f8152602001807f5265656e7472616e637947756172643a207265656e7472616e742063616c6c0081526020015060200191505060405180910390fd5b6002600060005081909090555060003390506000821115156135d4576040517f08c379a00000000000000000000000000000000000000000000000000000000081526004016135cb90618f40565b60405180910390fd5b61362c82600260005060008473ffffffffffffffffffffffffffffffffffffffff1673ffffffffffffffffffffffffffffffffffffffff1681526020019081526020016000206000505461736090919063ffffffff16565b600260005060008373ffffffffffffffffffffffffffffffffffffffff1673ffffffffffffffffffffffffffffffffffffffff1681526020019081526020016000206000508190909055506136cd600c60009054906101000a900473ffffffffffffffffffffffffffffffffffffffff1682600f60009054906101000a900473ffffffffffffffffffffffffffffffffffffffff16856173e963ffffffff16565b6136db61761463ffffffff16565b8073ffffffffffffffffffffffffffffffffffffffff167f6f076ad9d1927fd5f792070276b90549d2433311ff94fe0d7afba682c150817a836040516137219190619177565b60405180910390a2505b600160006000508190909055505b50565b600d60009054906101000a900473ffffffffffffffffffffffffffffffffffffffff1681565b6002600060005054141515156137e3576040517f08c379a000000000000000000000000000000000000000000000000000000000815260040180806020018281038252601f8152602001807f5265656e7472616e637947756172643a207265656e7472616e742063616c6c0081526020015060200191505060405180910390fd5b6002600060005081909090555061382d3073ffffffffffffffffffffffffffffffffffffffff163373ffffffffffffffffffffffffffffffffffffffff16146170c863ffffffff16565b601560009054906101000a900473ffffffffffffffffffffffffffffffffffffffff1673ffffffffffffffffffffffffffffffffffffffff16634ac8c5ae601860009054906101000a900473ffffffffffffffffffffffffffffffffffffffff166040518263ffffffff1660e01b81526004016138aa9190618a3b565b600060405180830381600087803b1580156138c55760006000fd5b505af11580156138da573d600060003e3d6000fd5b50505050601860009054906101000a900473ffffffffffffffffffffffffffffffffffffffff1673ffffffffffffffffffffffffffffffffffffffff166307da68f56040518163ffffffff1660e01b8152600401600060405180830381600087803b1580156139495760006000fd5b505af115801561395e573d600060003e3d6000fd5b5050505080601860006101000a81548173ffffffffffffffffffffffffffffffffffffffff021916908373ffffffffffffffffffffffffffffffffffffffff160217905550601560009054906101000a900473ffffffffffffffffffffffffffffffffffffffff1673ffffffffffffffffffffffffffffffffffffffff16632c388d5d601860009054906101000a900473ffffffffffffffffffffffffffffffffffffffff166040518263ffffffff1660e01b8152600401613a209190618a3b565b600060405180830381600087803b158015613a3b5760006000fd5b505af1158015613a50573d600060003e3d6000fd5b50505050601860009054906101000a900473ffffffffffffffffffffffffffffffffffffffff1673ffffffffffffffffffffffffffffffffffffffff16604051613a9990618915565b60405180910390207f2b51ff7c4cc8e6fe1c72e9d9685b7d2a88a5d82ad3a644afbdceb0272c89c1c360405160405180910390a35b5b600160006000508190909055505b50565b613b97601360009054906101000a900473ffffffffffffffffffffffffffffffffffffffff1673ffffffffffffffffffffffffffffffffffffffff168273ffffffffffffffffffffffffffffffffffffffff161480613b8c5750601060009054906101000a900473ffffffffffffffffffffffffffffffffffffffff1673ffffffffffffffffffffffffffffffffffffffff168273ffffffffffffffffffffffffffffffffffffffff16145b6170c863ffffffff16565b5b50565b613c52601260009054906101000a900473ffffffffffffffffffffffffffffffffffffffff1673ffffffffffffffffffffffffffffffffffffffff168273ffffffffffffffffffffffffffffffffffffffff161480613c475750601860009054906101000a900473ffffffffffffffffffffffffffffffffffffffff1673ffffffffffffffffffffffffffffffffffffffff168273ffffffffffffffffffffffffffffffffffffffff16145b6170c863ffffffff16565b5b50565b600960009054906101000a900473ffffffffffffffffffffffffffffffffffffffff1681565b601060009054906101000a900473ffffffffffffffffffffffffffffffffffffffff1681565b601260009054906101000a900473ffffffffffffffffffffffffffffffffffffffff1681565b613d27601b60009054906101000a900473ffffffffffffffffffffffffffffffffffffffff1673ffffffffffffffffffffffffffffffffffffffff163373ffffffffffffffffffffffffffffffffffffffff16146170c863ffffffff16565b601b60149054906101000a900460ff16158015613d515750601b60159054906101000a900460ff16155b1515613d5d5760006000fd5b6001601b60146101000a81548160ff02191690831515021790555082601560006101000a81548173ffffffffffffffffffffffffffffffffffffffff021916908373ffffffffffffffffffffffffffffffffffffffff160217905550601560009054906101000a900473ffffffffffffffffffffffffffffffffffffffff1673ffffffffffffffffffffffffffffffffffffffff16632c388d5d306040518263ffffffff1660e01b8152600401613e149190618a3b565b600060405180830381600087803b158015613e2f5760006000fd5b505af1158015613e44573d600060003e3d6000fd5b50505050601560009054906101000a900473ffffffffffffffffffffffffffffffffffffffff1673ffffffffffffffffffffffffffffffffffffffff16632c388d5d600f60009054906101000a900473ffffffffffffffffffffffffffffffffffffffff166040518263ffffffff1660e01b8152600401613ec59190618a3b565b600060405180830381600087803b158015613ee05760006000fd5b505af1158015613ef5573d600060003e3d6000fd5b5050505089600a60006101000a81548173ffffffffffffffffffffffffffffffffffffffff021916908373ffffffffffffffffffffffffffffffffffffffff160217905550601560009054906101000a900473ffffffffffffffffffffffffffffffffffffffff1673ffffffffffffffffffffffffffffffffffffffff16632c388d5d600a60009054906101000a900473ffffffffffffffffffffffffffffffffffffffff166040518263ffffffff1660e01b8152600401613fb79190618a3b565b600060405180830381600087803b158015613fd25760006000fd5b505af1158015613fe7573d600060003e3d6000fd5b5050505088600c60006101000a81548173ffffffffffffffffffffffffffffffffffffffff021916908373ffffffffffffffffffffffffffffffffffffffff160217905550601560009054906101000a900473ffffffffffffffffffffffffffffffffffffffff1673ffffffffffffffffffffffffffffffffffffffff16632c388d5d600d60009054906101000a900473ffffffffffffffffffffffffffffffffffffffff166040518263ffffffff1660e01b81526004016140a99190618a3b565b600060405180830381600087803b1580156140c45760006000fd5b505af11580156140d9573d600060003e3d6000fd5b5050505087601060006101000a81548173ffffffffffffffffffffffffffffffffffffffff021916908373ffffffffffffffffffffffffffffffffffffffff160217905550601560009054906101000a900473ffffffffffffffffffffffffffffffffffffffff1673ffffffffffffffffffffffffffffffffffffffff16632c388d5d601060009054906101000a900473ffffffffffffffffffffffffffffffffffffffff166040518263ffffffff1660e01b815260040161419b9190618a3b565b600060405180830381600087803b1580156141b65760006000fd5b505af11580156141cb573d600060003e3d6000fd5b5050505086601260006101000a81548173ffffffffffffffffffffffffffffffffffffffff021916908373ffffffffffffffffffffffffffffffffffffffff160217905550601560009054906101000a900473ffffffffffffffffffffffffffffffffffffffff1673ffffffffffffffffffffffffffffffffffffffff16632c388d5d601260009054906101000a900473ffffffffffffffffffffffffffffffffffffffff166040518263ffffffff1660e01b815260040161428d9190618a3b565b600060405180830381600087803b1580156142a85760006000fd5b505af11580156142bd573d600060003e3d6000fd5b5050505085601360006101000a81548173ffffffffffffffffffffffffffffffffffffffff021916908373ffffffffffffffffffffffffffffffffffffffff160217905550601560009054906101000a900473ffffffffffffffffffffffffffffffffffffffff1673ffffffffffffffffffffffffffffffffffffffff16632c388d5d601360009054906101000a900473ffffffffffffffffffffffffffffffffffffffff166040518263ffffffff1660e01b815260040161437f9190618a3b565b600060405180830381600087803b15801561439a5760006000fd5b505af11580156143af573d600060003e3d6000fd5b5050505083601460006101000a81548173ffffffffffffffffffffffffffffffffffffffff021916908373ffffffffffffffffffffffffffffffffffffffff160217905550601560009054906101000a900473ffffffffffffffffffffffffffffffffffffffff1673ffffffffffffffffffffffffffffffffffffffff16632c388d5d601460009054906101000a900473ffffffffffffffffffffffffffffffffffffffff166040518263ffffffff1660e01b81526004016144719190618a3b565b600060405180830381600087803b15801561448c5760006000fd5b505af11580156144a1573d600060003e3d6000fd5b5050505084601660006101000a81548173ffffffffffffffffffffffffffffffffffffffff021916908373ffffffffffffffffffffffffffffffffffffffff160217905550601560009054906101000a900473ffffffffffffffffffffffffffffffffffffffff1673ffffffffffffffffffffffffffffffffffffffff16632c388d5d601660009054906101000a900473ffffffffffffffffffffffffffffffffffffffff166040518263ffffffff1660e01b81526004016145639190618a3b565b600060405180830381600087803b15801561457e5760006000fd5b505af1158015614593573d600060003e3d6000fd5b5050505081601760006101000a81548173ffffffffffffffffffffffffffffffffffffffff021916908373ffffffffffffffffffffffffffffffffffffffff160217905550601560009054906101000a900473ffffffffffffffffffffffffffffffffffffffff1673ffffffffffffffffffffffffffffffffffffffff16632c388d5d601760009054906101000a900473ffffffffffffffffffffffffffffffffffffffff166040518263ffffffff1660e01b81526004016146559190618a3b565b600060405180830381600087803b1580156146705760006000fd5b505af1158015614685573d600060003e3d6000fd5b5050505080601860006101000a81548173ffffffffffffffffffffffffffffffffffffffff021916908373ffffffffffffffffffffffffffffffffffffffff160217905550601560009054906101000a900473ffffffffffffffffffffffffffffffffffffffff1673ffffffffffffffffffffffffffffffffffffffff16632c388d5d601860009054906101000a900473ffffffffffffffffffffffffffffffffffffffff166040518263ffffffff1660e01b81526004016147479190618a3b565b600060405180830381600087803b1580156147625760006000fd5b505af1158015614777573d600060003e3d6000fd5b505050505b5b50505050505050505050565b601760009054906101000a900473ffffffffffffffffffffffffffffffffffffffff1681565b600260006000505414151515614830576040517f08c379a000000000000000000000000000000000000000000000000000000000815260040180806020018281038252601f8152602001807f5265656e7472616e637947756172643a207265656e7472616e742063616c6c0081526020015060200191505060405180910390fd5b6002600060005081909090555061487a3073ffffffffffffffffffffffffffffffffffffffff163373ffffffffffffffffffffffffffffffffffffffff16146170c863ffffffff16565b601560009054906101000a900473ffffffffffffffffffffffffffffffffffffffff1673ffffffffffffffffffffffffffffffffffffffff16634ac8c5ae601660009054906101000a900473ffffffffffffffffffffffffffffffffffffffff166040518263ffffffff1660e01b81526004016148f79190618a3b565b600060405180830381600087803b1580156149125760006000fd5b505af1158015614927573d600060003e3d6000fd5b50505050601660009054906101000a900473ffffffffffffffffffffffffffffffffffffffff1673ffffffffffffffffffffffffffffffffffffffff166307da68f56040518163ffffffff1660e01b8152600401600060405180830381600087803b1580156149965760006000fd5b505af11580156149ab573d600060003e3d6000fd5b5050505080601660006101000a81548173ffffffffffffffffffffffffffffffffffffffff021916908373ffffffffffffffffffffffffffffffffffffffff160217905550601560009054906101000a900473ffffffffffffffffffffffffffffffffffffffff1673ffffffffffffffffffffffffffffffffffffffff16632c388d5d601660009054906101000a900473ffffffffffffffffffffffffffffffffffffffff166040518263ffffffff1660e01b8152600401614a6d9190618a3b565b600060405180830381600087803b158015614a885760006000fd5b505af1158015614a9d573d600060003e3d6000fd5b50505050601660009054906101000a900473ffffffffffffffffffffffffffffffffffffffff1673ffffffffffffffffffffffffffffffffffffffff16604051614ae6906188e4565b60405180910390207f2b51ff7c4cc8e6fe1c72e9d9685b7d2a88a5d82ad3a644afbdceb0272c89c1c360405160405180910390a35b5b600160006000508190909055505b50565b6040518060400160405280601581526020017f5a68752050726f746f636f6c20476f7665726e6f72000000000000000000000081526020015081565b614c20601360009054906101000a900473ffffffffffffffffffffffffffffffffffffffff1673ffffffffffffffffffffffffffffffffffffffff168273ffffffffffffffffffffffffffffffffffffffff161480614c155750601260009054906101000a900473ffffffffffffffffffffffffffffffffffffffff1673ffffffffffffffffffffffffffffffffffffffff168273ffffffffffffffffffffffffffffffffffffffff16145b6170c863ffffffff16565b5b50565b6000614c62600460005054614c54600360005054614c4661691763ffffffff16565b61736090919063ffffffff16565b6176c590919063ffffffff16565b9050614c69565b90565b60606008600050805480602002602001604051908101604052809291908181526020018280548015614cf357602002820191906000526020600020905b8160009054906101000a900473ffffffffffffffffffffffffffffffffffffffff1673ffffffffffffffffffffffffffffffffffffffff1681526020019060010190808311614ca9575b50505050509050614cff565b90565b614db9601360009054906101000a900473ffffffffffffffffffffffffffffffffffffffff1673ffffffffffffffffffffffffffffffffffffffff168273ffffffffffffffffffffffffffffffffffffffff161480614dae5750601060009054906101000a900473ffffffffffffffffffffffffffffffffffffffff1673ffffffffffffffffffffffffffffffffffffffff168273ffffffffffffffffffffffffffffffffffffffff16145b6170c863ffffffff16565b5b50565b600260006000505414151515614e3e576040517f08c379a000000000000000000000000000000000000000000000000000000000815260040180806020018281038252601f8152602001807f5265656e7472616e637947756172643a207265656e7472616e742063616c6c0081526020015060200191505060405180910390fd5b600260006000508190909055506000339050614f07601360009054906101000a900473ffffffffffffffffffffffffffffffffffffffff1673ffffffffffffffffffffffffffffffffffffffff168273ffffffffffffffffffffffffffffffffffffffff161480614efc5750601760009054906101000a900473ffffffffffffffffffffffffffffffffffffffff1673ffffffffffffffffffffffffffffffffffffffff168273ffffffffffffffffffffffffffffffffffffffff16145b6170c863ffffffff16565b6000600c60009054906101000a900473ffffffffffffffffffffffffffffffffffffffff1673ffffffffffffffffffffffffffffffffffffffff166370a08231306040518263ffffffff1660e01b8152600401614f649190618a3b565b60206040518083038186803b158015614f7d5760006000fd5b505afa158015614f92573d600060003e3d6000fd5b505050506040513d601f19601f82011682018060405250810190614fb691906186fa565b905082811015615095576000811115614ffd57614ffc600c60009054906101000a900473ffffffffffffffffffffffffffffffffffffffff16858361774e63ffffffff16565b5b600c60009054906101000a900473ffffffffffffffffffffffffffffffffffffffff1673ffffffffffffffffffffffffffffffffffffffff1663449a52f8858386036040518363ffffffff1660e01b815260040161505c929190618b09565b600060405180830381600087803b1580156150775760006000fd5b505af115801561508c573d600060003e3d6000fd5b505050506150c9565b6150c8600c60009054906101000a900473ffffffffffffffffffffffffffffffffffffffff16858561774e63ffffffff16565b5b50505b600160006000508190909055505b5050565b601481565b600260006000505414151515615164576040517f08c379a000000000000000000000000000000000000000000000000000000000815260040180806020018281038252601f8152602001807f5265656e7472616e637947756172643a207265656e7472616e742063616c6c0081526020015060200191505060405180910390fd5b600260006000508190909055506151ae3073ffffffffffffffffffffffffffffffffffffffff163373ffffffffffffffffffffffffffffffffffffffff16146170c863ffffffff16565b6000601e60009054906101000a900467ffffffffffffffff1667ffffffffffffffff16141515615213576040517f08c379a000000000000000000000000000000000000000000000000000000000815260040161520a90618fbe565b60405180910390fd5b6152228161795a63ffffffff16565b601e60006101000a81548167ffffffffffffffff021916908367ffffffffffffffff160217905550600f60009054906101000a900473ffffffffffffffffffffffffffffffffffffffff1673ffffffffffffffffffffffffffffffffffffffff1663b8188c81826040518263ffffffff1660e01b81526004016152a59190619189565b600060405180830381600087803b1580156152c05760006000fd5b505af11580156152d5573d600060003e3d6000fd5b505050505b5b600160006000508190909055505b50565b60006152fd826179e263ffffffff16565b905080505b919050565b600260006000505414151515615388576040517f08c379a000000000000000000000000000000000000000000000000000000000815260040180806020018281038252601f8152602001807f5265656e7472616e637947756172643a207265656e7472616e742063616c6c0081526020015060200191505060405180910390fd5b600260006000508190909055506153d23073ffffffffffffffffffffffffffffffffffffffff163373ffffffffffffffffffffffffffffffffffffffff16146170c863ffffffff16565b601560009054906101000a900473ffffffffffffffffffffffffffffffffffffffff1673ffffffffffffffffffffffffffffffffffffffff16634ac8c5ae601260009054906101000a900473ffffffffffffffffffffffffffffffffffffffff166040518263ffffffff1660e01b815260040161544f9190618a3b565b600060405180830381600087803b15801561546a5760006000fd5b505af115801561547f573d600060003e3d6000fd5b50505050601260009054906101000a900473ffffffffffffffffffffffffffffffffffffffff1673ffffffffffffffffffffffffffffffffffffffff166307da68f56040518163ffffffff1660e01b8152600401600060405180830381600087803b1580156154ee5760006000fd5b505af1158015615503573d600060003e3d6000fd5b5050505080601260006101000a81548173ffffffffffffffffffffffffffffffffffffffff021916908373ffffffffffffffffffffffffffffffffffffffff160217905550601560009054906101000a900473ffffffffffffffffffffffffffffffffffffffff1673ffffffffffffffffffffffffffffffffffffffff16632c388d5d601260009054906101000a900473ffffffffffffffffffffffffffffffffffffffff166040518263ffffffff1660e01b81526004016155c59190618a3b565b600060405180830381600087803b1580156155e05760006000fd5b505af11580156155f5573d600060003e3d6000fd5b50505050601260009054906101000a900473ffffffffffffffffffffffffffffffffffffffff1673ffffffffffffffffffffffffffffffffffffffff1660405161563e906189d9565b60405180910390207f2b51ff7c4cc8e6fe1c72e9d9685b7d2a88a5d82ad3a644afbdceb0272c89c1c360405160405180910390a35b5b600160006000508190909055505b50565b606061569783836171c263ffffffff16565b905061569e565b92915050565b60006000600160009054906101000a900467ffffffffffffffff1667ffffffffffffffff161190506156d1565b90565b6157e3601360009054906101000a900473ffffffffffffffffffffffffffffffffffffffff1673ffffffffffffffffffffffffffffffffffffffff168273ffffffffffffffffffffffffffffffffffffffff1614806157805750601260009054906101000a900473ffffffffffffffffffffffffffffffffffffffff1673ffffffffffffffffffffffffffffffffffffffff168273ffffffffffffffffffffffffffffffffffffffff16145b806157d85750601860009054906101000a900473ffffffffffffffffffffffffffffffffffffffff1673ffffffffffffffffffffffffffffffffffffffff168273ffffffffffffffffffffffffffffffffffffffff16145b6170c863ffffffff16565b5b50565b6158f6601360009054906101000a900473ffffffffffffffffffffffffffffffffffffffff1673ffffffffffffffffffffffffffffffffffffffff168273ffffffffffffffffffffffffffffffffffffffff1614806158935750601260009054906101000a900473ffffffffffffffffffffffffffffffffffffffff1673ffffffffffffffffffffffffffffffffffffffff168273ffffffffffffffffffffffffffffffffffffffff16145b806158eb5750601860009054906101000a900473ffffffffffffffffffffffffffffffffffffffff1673ffffffffffffffffffffffffffffffffffffffff168273ffffffffffffffffffffffffffffffffffffffff16145b6170c863ffffffff16565b5b50565b6000600f60009054906101000a900473ffffffffffffffffffffffffffffffffffffffff1673ffffffffffffffffffffffffffffffffffffffff1663c24d745f8585856040518463ffffffff1660e01b815260040161595b93929190618a63565b60206040518083038186803b1580156159745760006000fd5b505afa158015615989573d600060003e3d6000fd5b505050506040513d601f19601f820116820180604052508101906159ad91906183b8565b90506159b4565b9392505050565b615a1a601360009054906101000a900473ffffffffffffffffffffffffffffffffffffffff1673ffffffffffffffffffffffffffffffffffffffff163373ffffffffffffffffffffffffffffffffffffffff16146170c863ffffffff16565b615a328160046000505461736090919063ffffffff16565b60046000508190909055505b50565b60006000600160009054906101000a900467ffffffffffffffff1667ffffffffffffffff161115615a755760009050615b1e565b6000615a8561704f63ffffffff16565b90506000601e60009054906101000a900467ffffffffffffffff1667ffffffffffffffff161480615adf5750601e60009054906101000a900467ffffffffffffffff1667ffffffffffffffff168167ffffffffffffffff16105b15615aee576000915050615b1e565b615b15601e60009054906101000a900467ffffffffffffffff168203617b0263ffffffff16565b915050615b1e56505b90565b7f000000000000000000000000000000000000000000000000000000000000000081565b6000615b5682617b0263ffffffff16565b905080505b919050565b6000615b8a6703782dace9d90000615b7c614c2463ffffffff16565b617b8790919063ffffffff16565b600c60009054906101000a900473ffffffffffffffffffffffffffffffffffffffff1673ffffffffffffffffffffffffffffffffffffffff166370a08231600f60009054906101000a900473ffffffffffffffffffffffffffffffffffffffff166040518263ffffffff1660e01b8152600401615c079190618a3b565b60206040518083038186803b158015615c205760006000fd5b505afa158015615c35573d600060003e3d6000fd5b505050506040513d601f19601f82011682018060405250810190615c5991906186fa565b119050615c61565b90565b600260006000505414151515615ce5576040517f08c379a000000000000000000000000000000000000000000000000000000000815260040180806020018281038252601f8152602001807f5265656e7472616e637947756172643a207265656e7472616e742063616c6c0081526020015060200191505060405180910390fd5b600260006000508190909055506000600160009054906101000a900467ffffffffffffffff1667ffffffffffffffff16141515615d57576040517f08c379a0000000000000000000000000000000000000000000000000000000008152600401615d4e906190ba565b60405180910390fd5b43601c60005054101515615da0576040517f08c379a0000000000000000000000000000000000000000000000000000000008152600401615d979061903c565b60405180910390fd5b615dae61710e63ffffffff16565b600160006101000a81548167ffffffffffffffff021916908367ffffffffffffffff1602179055507f5499c7e0bbf883cd5bbfa29c56e0d6c267c92daa4cc90d8ba27fbd97672eaaec600160009054906101000a900467ffffffffffffffff16604051615e1b9190619189565b60405180910390a15b600160006000508190909055505b565b7f000000000000000000000000000000000000000000000000000000000000000081565b601960009054906101000a900473ffffffffffffffffffffffffffffffffffffffff1681565b601460009054906101000a900473ffffffffffffffffffffffffffffffffffffffff1681565b601560009054906101000a900473ffffffffffffffffffffffffffffffffffffffff1681565b601b60149054906101000a900460ff1681565b60086000508181548110615ef057600080fd5b906000526020600020900160005b9150909054906101000a900473ffffffffffffffffffffffffffffffffffffffff1681565b600e60009054906101000a900473ffffffffffffffffffffffffffffffffffffffff1681565b616058601360009054906101000a900473ffffffffffffffffffffffffffffffffffffffff1673ffffffffffffffffffffffffffffffffffffffff168273ffffffffffffffffffffffffffffffffffffffff161480615ff55750601260009054906101000a900473ffffffffffffffffffffffffffffffffffffffff1673ffffffffffffffffffffffffffffffffffffffff168273ffffffffffffffffffffffffffffffffffffffff16145b8061604d5750601860009054906101000a900473ffffffffffffffffffffffffffffffffffffffff1673ffffffffffffffffffffffffffffffffffffffff168273ffffffffffffffffffffffffffffffffffffffff16145b6170c863ffffffff16565b5b50565b6002600060005054141515156160dd576040517f08c379a000000000000000000000000000000000000000000000000000000000815260040180806020018281038252601f8152602001807f5265656e7472616e637947756172643a207265656e7472616e742063616c6c0081526020015060200191505060405180910390fd5b600260006000508190909055506161273073ffffffffffffffffffffffffffffffffffffffff163373ffffffffffffffffffffffffffffffffffffffff16146170c863ffffffff16565b600073ffffffffffffffffffffffffffffffffffffffff16600b60009054906101000a900473ffffffffffffffffffffffffffffffffffffffff1673ffffffffffffffffffffffffffffffffffffffff161415156162b557601560009054906101000a900473ffffffffffffffffffffffffffffffffffffffff1673ffffffffffffffffffffffffffffffffffffffff16634ac8c5ae600b60009054906101000a900473ffffffffffffffffffffffffffffffffffffffff166040518263ffffffff1660e01b81526004016161fc9190618a3b565b600060405180830381600087803b1580156162175760006000fd5b505af115801561622c573d600060003e3d6000fd5b50505050600b60009054906101000a900473ffffffffffffffffffffffffffffffffffffffff1673ffffffffffffffffffffffffffffffffffffffff166307da68f56040518163ffffffff1660e01b8152600401600060405180830381600087803b15801561629b5760006000fd5b505af11580156162b0573d600060003e3d6000fd5b505050505b600a60009054906101000a900473ffffffffffffffffffffffffffffffffffffffff16600b60006101000a81548173ffffffffffffffffffffffffffffffffffffffff021916908373ffffffffffffffffffffffffffffffffffffffff16021790555080600a60006101000a81548173ffffffffffffffffffffffffffffffffffffffff021916908373ffffffffffffffffffffffffffffffffffffffff160217905550601560009054906101000a900473ffffffffffffffffffffffffffffffffffffffff1673ffffffffffffffffffffffffffffffffffffffff16632c388d5d600a60009054906101000a900473ffffffffffffffffffffffffffffffffffffffff166040518263ffffffff1660e01b81526004016163d69190618a3b565b600060405180830381600087803b1580156163f15760006000fd5b505af1158015616406573d600060003e3d6000fd5b50505050600a60009054906101000a900473ffffffffffffffffffffffffffffffffffffffff1673ffffffffffffffffffffffffffffffffffffffff1660405161644f906189a8565b60405180910390207f2b51ff7c4cc8e6fe1c72e9d9685b7d2a88a5d82ad3a644afbdceb0272c89c1c360405160405180910390a35b5b600160006000508190909055505b50565b600260006000505414151515616517576040517f08c379a000000000000000000000000000000000000000000000000000000000815260040180806020018281038252601f8152602001807f5265656e7472616e637947756172643a207265656e7472616e742063616c6c0081526020015060200191505060405180910390fd5b6002600060005081909090555060003390506165e0600a60009054906101000a900473ffffffffffffffffffffffffffffffffffffffff1673ffffffffffffffffffffffffffffffffffffffff168273ffffffffffffffffffffffffffffffffffffffff1614806165d55750601660009054906101000a900473ffffffffffffffffffffffffffffffffffffffff1673ffffffffffffffffffffffffffffffffffffffff168273ffffffffffffffffffffffffffffffffffffffff16145b6170c863ffffffff16565b6165f88260036000505461736090919063ffffffff16565b6003600050819090905550600c60009054906101000a900473ffffffffffffffffffffffffffffffffffffffff1673ffffffffffffffffffffffffffffffffffffffff1663449a52f884846040518363ffffffff1660e01b8152600401616660929190618b09565b600060405180830381600087803b15801561667b5760006000fd5b505af1158015616690573d600060003e3d6000fd5b50505050505b600160006000508190909055505b5050565b600260006000505414151515616729576040517f08c379a000000000000000000000000000000000000000000000000000000000815260040180806020018281038252601f8152602001807f5265656e7472616e637947756172643a207265656e7472616e742063616c6c0081526020015060200191505060405180910390fd5b6002600060005081909090555060003390506000600260005060008373ffffffffffffffffffffffffffffffffffffffff1673ffffffffffffffffffffffffffffffffffffffff1681526020019081526020016000206000505490506000811115156167ca576040517f08c379a00000000000000000000000000000000000000000000000000000000081526004016167c190618f40565b60405180910390fd5b6000600260005060008473ffffffffffffffffffffffffffffffffffffffff1673ffffffffffffffffffffffffffffffffffffffff168152602001908152602001600020600050819090905550600f60009054906101000a900473ffffffffffffffffffffffffffffffffffffffff1673ffffffffffffffffffffffffffffffffffffffff1663a83d711983836040518363ffffffff1660e01b8152600401616874929190618b09565b600060405180830381600087803b15801561688f5760006000fd5b505af11580156168a4573d600060003e3d6000fd5b505050506168b661761463ffffffff16565b8173ffffffffffffffffffffffffffffffffffffffff167fbfaf8d2920f9287ed71a7e47234c2043522ae8ffd246577b929897e0f2b3c075826040516168fc9190619177565b60405180910390a250505b600160006000508190909055505b565b6000600061692961704f63ffffffff16565b90506000600160009054906101000a900467ffffffffffffffff1667ffffffffffffffff16111561697e57616979600160009054906101000a900467ffffffffffffffff1661795a63ffffffff16565b905080505b6000601e60009054906101000a900467ffffffffffffffff1667ffffffffffffffff1614806169d65750601e60009054906101000a900467ffffffffffffffff1667ffffffffffffffff168167ffffffffffffffff16105b156169e5576000915050616a2c565b616a23600560005054616a15601e60009054906101000a900467ffffffffffffffff1684036179e263ffffffff16565b61736090919063ffffffff16565b915050616a2c56505b90565b60006002600f60009054906101000a900473ffffffffffffffffffffffffffffffffffffffff1673ffffffffffffffffffffffffffffffffffffffff1663055ad42e6040518163ffffffff1660e01b815260040160206040518083038186803b158015616a9c5760006000fd5b505afa158015616ab1573d600060003e3d6000fd5b505050506040513d601f19601f82011682018060405250810190616ad59190618772565b60ff16101515616ae85760009050616bd7565b6000616b3a616b0a616aff8661347c63ffffffff16565b617bad63ffffffff16565b846000016020810190616b1d919061874b565b856020013560001916866040013560001916617c1163ffffffff16565b90507f000000000000000000000000000000000000000000000000000000000000000073ffffffffffffffffffffffffffffffffffffffff168173ffffffffffffffffffffffffffffffffffffffff16141515616bcc576040517f08c379a0000000000000000000000000000000000000000000000000000000008152600401616bc390618e83565b60405180910390fd5b6001915050616bd756505b92915050565b6703782dace9d9000081565b600760009054906101000a900473ffffffffffffffffffffffffffffffffffffffff1681565b600260006000505414151515616c90576040517f08c379a000000000000000000000000000000000000000000000000000000000815260040180806020018281038252601f8152602001807f5265656e7472616e637947756172643a207265656e7472616e742063616c6c0081526020015060200191505060405180910390fd5b60026000600050819090905550616cda3073ffffffffffffffffffffffffffffffffffffffff163373ffffffffffffffffffffffffffffffffffffffff16146170c863ffffffff16565b601560009054906101000a900473ffffffffffffffffffffffffffffffffffffffff1673ffffffffffffffffffffffffffffffffffffffff16634ac8c5ae601360009054906101000a900473ffffffffffffffffffffffffffffffffffffffff166040518263ffffffff1660e01b8152600401616d579190618a3b565b600060405180830381600087803b158015616d725760006000fd5b505af1158015616d87573d600060003e3d6000fd5b50505050601360009054906101000a900473ffffffffffffffffffffffffffffffffffffffff1673ffffffffffffffffffffffffffffffffffffffff166307da68f56040518163ffffffff1660e01b8152600401600060405180830381600087803b158015616df65760006000fd5b505af1158015616e0b573d600060003e3d6000fd5b5050505080601360006101000a81548173ffffffffffffffffffffffffffffffffffffffff021916908373ffffffffffffffffffffffffffffffffffffffff160217905550601560009054906101000a900473ffffffffffffffffffffffffffffffffffffffff1673ffffffffffffffffffffffffffffffffffffffff16632c388d5d601360009054906101000a900473ffffffffffffffffffffffffffffffffffffffff166040518263ffffffff1660e01b8152600401616ecd9190618a3b565b600060405180830381600087803b158015616ee85760006000fd5b505af1158015616efd573d600060003e3d6000fd5b50505050601360009054906101000a900473ffffffffffffffffffffffffffffffffffffffff1673ffffffffffffffffffffffffffffffffffffffff16604051616f4690618946565b60405180910390207f2b51ff7c4cc8e6fe1c72e9d9685b7d2a88a5d82ad3a644afbdceb0272c89c1c360405160405180910390a35b5b600160006000508190909055505b50565b60006801000000000000000082101515617012576040517f08c379a00000000000000000000000000000000000000000000000000000000081526004018080602001828103825260118152602001807f6d6f7265207468616e203634206269747300000000000000000000000000000081526020015060200191505060405180910390fd5b81905061701a565b919050565b60008167ffffffffffffffff166885ab33eb9abf3d5eaf0269d3c21bcecceda100000003905061704a565b919050565b60007f00000000000000000000000000000000000000000000000000000000000000007f000000000000000000000000000000000000000000000000000000000000000067ffffffffffffffff166170ab61710e63ffffffff16565b67ffffffffffffffff168115156170be57fe5b0403905080505b90565b80151561710a576040517f08c379a000000000000000000000000000000000000000000000000000000000815260040161710190618f01565b60405180910390fd5b5b50565b600061712142616f8d909063ffffffff16565b905080505b90565b60008180519060200120905061713a565b919050565b60006000600090505b83518110156171b2578273ffffffffffffffffffffffffffffffffffffffff16848281518110151561717657fe5b602002602001015173ffffffffffffffffffffffffffffffffffffffff1614156171a45760019150506171bc565b5b8080600101915050617148565b50600090506171bc565b92915050565b60606171d4838361713f63ffffffff16565b1515617215576040517f08c379a000000000000000000000000000000000000000000000000000000000815260040161720c90618ec2565b60405180910390fd5b6000600184510367ffffffffffffffff811180156172335760006000fd5b506040519080825280602002602001820160405280156172625781602001602082028036833780820191505090505b50905060006000600090505b8551811015617339578473ffffffffffffffffffffffffffffffffffffffff16868281518110151561729c57fe5b602002602001015173ffffffffffffffffffffffffffffffffffffffff1614151561732b5785818151811015156172cf57fe5b602002602001015183838151811015156172e557fe5b602002602001019073ffffffffffffffffffffffffffffffffffffffff16908173ffffffffffffffffffffffffffffffffffffffff168152602001505081806001019250505b5b808060010191505061726e565b5081925050506173465650505b92915050565b600060004690508091505061735d56505b90565b600082828401915081101515156173e2576040517f08c379a000000000000000000000000000000000000000000000000000000000815260040180806020018281038252600c8152602001807f6164642d6f766572666c6f77000000000000000000000000000000000000000081526020015060200191505060405180910390fd5b5b92915050565b600060008573ffffffffffffffffffffffffffffffffffffffff166323b872dd60e01b868686604051602401808473ffffffffffffffffffffffffffffffffffffffff1681526020018373ffffffffffffffffffffffffffffffffffffffff1681526020018281526020019350505050604051602081830303815290604052907bffffffffffffffffffffffffffffffffffffffffffffffffffffffff19166020820180517bffffffffffffffffffffffffffffffffffffffffffffffffffffffff83818316178352505050506040518082805190602001908083835b6020831015156174ec57805182525b6020820191506020810190506020830392506174c6565b6001836020036101000a0380198251168184511680821785525050505050509050019150506000604051808303816000865af19150503d806000811461754e576040519150601f19603f3d011682016040523d82523d6000602084013e617553565b606091505b5091509150818015617594575060008151148061759357508080602001905160208110156175815760006000fd5b81019080805190602001909291905050505b5b151561760b576040517f08c379a00000000000000000000000000000000000000000000000000000000081526004018080602001828103825260038152602001807f535446000000000000000000000000000000000000000000000000000000000081526020015060200191505060405180910390fd5b50505b50505050565b617622615b6063ffffffff16565b15617666577fffffffffffffffffffffffffffffffffffffffffffffffffffffffffffffffff601c6000505414156176615743601c6000508190909055505b6176c2565b7fffffffffffffffffffffffffffffffffffffffffffffffffffffffffffffffff601c600050541415156176c1577fffffffffffffffffffffffffffffffffffffffffffffffffffffffffffffffff601c6000508190909055505b5b5b565b60008282840391508111151515617747576040517f08c379a000000000000000000000000000000000000000000000000000000000815260040180806020018281038252600d8152602001807f7375622d756e646572666c6f770000000000000000000000000000000000000081526020015060200191505060405180910390fd5b5b92915050565b600060008473ffffffffffffffffffffffffffffffffffffffff1663a9059cbb60e01b8585604051602401808373ffffffffffffffffffffffffffffffffffffffff16815260200182815260200192505050604051602081830303815290604052907bffffffffffffffffffffffffffffffffffffffffffffffffffffffff19166020820180517bffffffffffffffffffffffffffffffffffffffffffffffffffffffff83818316178352505050506040518082805190602001908083835b60208310151561783357805182525b60208201915060208101905060208303925061780d565b6001836020036101000a0380198251168184511680821785525050505050509050019150506000604051808303816000865af19150503d8060008114617895576040519150601f19603f3d011682016040523d82523d6000602084013e61789a565b606091505b50915091508180156178db57506000815114806178da57508080602001905160208110156178c85760006000fd5b81019080805190602001909291905050505b5b1515617952576040517f08c379a00000000000000000000000000000000000000000000000000000000081526004018080602001828103825260028152602001807f535400000000000000000000000000000000000000000000000000000000000081526020015060200191505060405180910390fd5b50505b505050565b60006179d87f00000000000000000000000000000000000000000000000000000000000000007f000000000000000000000000000000000000000000000000000000000000000067ffffffffffffffff168467ffffffffffffffff168115156179bf57fe5b0467ffffffffffffffff16617e2c90919063ffffffff16565b905080505b919050565b600061016d60140167ffffffffffffffff168267ffffffffffffffff16101515617a5c576000600161016d601401840301905069152d02c7e14af68000008167ffffffffffffffff16026aa66dc1daeea92956000000601467ffffffffffffffff166a01a784379d99db42000000020101915050617afd56505b601467ffffffffffffffff168267ffffffffffffffff16101515617adb5760006014830390506001810167ffffffffffffffff166002617aa18361701f63ffffffff16565b69d3c21bcecceda100000001811515617ab657fe5b0402601467ffffffffffffffff166a01a784379d99db420000000201915050617afd56505b6a01a784379d99db420000006001830167ffffffffffffffff16029050617afd565b919050565b600061016d60140167ffffffffffffffff168267ffffffffffffffff16101515617b385769152d02c7e14af68000009050617b82565b601467ffffffffffffffff168267ffffffffffffffff16101515617b6f57617b686014830361701f63ffffffff16565b9050617b82565b6a01a784379d99db420000009050617b82565b919050565b6000617ba28383670de0b6b3a7640000617ec963ffffffff16565b905080505b92915050565b60008160405160200180807f19457468657265756d205369676e6564204d6573736167653a0a333200000000815260200150601c0182600019168152602001915050604051602081830303815290604052805190602001209050617c0c565b919050565b60007f7fffffffffffffffffffffffffffffff5d576e7357a4501ddfe92f46681b20a08260001c11151515617c91576040517f08c379a000000000000000000000000000000000000000000000000000000000815260040180806020018281038252602281526020018061925b6022913960400191505060405180910390fd5b601b8460ff161480617ca65750601c8460ff16145b1515617cfd576040517f08c379a000000000000000000000000000000000000000000000000000000000815260040180806020018281038252602281526020018061927d6022913960400191505060405180910390fd5b60006001868686866040516000815260200160405260405180856000191681526020018460ff16815260200183600019168152602001826000191681526020019450505050506020604051602081039080840390855afa158015617d66573d600060003e3d6000fd5b505050602060405103519050600073ffffffffffffffffffffffffffffffffffffffff168173ffffffffffffffffffffffffffffffffffffffff1614151515617e1a576040517f08c379a00000000000000000000000000000000000000000000000000000000081526004018080602001828103825260188152602001807f45434453413a20696e76616c6964207369676e6174757265000000000000000081526020015060200191505060405180910390fd5b80915050617e2456505b949350505050565b60008267ffffffffffffffff1682840391508167ffffffffffffffff1611151515617ec2576040517f08c379a000000000000000000000000000000000000000000000000000000000815260040180806020018281038252600d8152602001807f7375622d756e646572666c6f770000000000000000000000000000000000000081526020015060200191505060405180910390fd5b5b92915050565b6000600060006000198587098587029250828110838203039150506000811415617f0c57600084111515617efd5760006000fd5b83820492508292505050617fc3565b8084111515617f1b5760006000fd5b6000848688099050828111820391508083039250600085866000031690508086049550808404935060018182600003040190508083028417935083506000600287600302189050808702600203810290508050808702600203810290508050808702600203810290508050808702600203810290508050808702600203810290508050808702600203810290508050808502955085508595505050505050617fc35650505050505b9392505050565b828054828255906000526020600020908101928215618043579160200282015b828111156180425782518260006101000a81548173ffffffffffffffffffffffffffffffffffffffff021916908373ffffffffffffffffffffffffffffffffffffffff16021790555091602001919060010190617fea565b5b5090506180509190618054565b5090565b618059565b808211156180735760008181506000905550600101618059565b509056619259565b600067ffffffffffffffff83111561808f57fe5b6180c060207fffffffffffffffffffffffffffffffffffffffffffffffffffffffffffffffe0601f860116016191ba565b90508281528383830111156180d55760006000fd5b828260208301376000602084830101525b9392505050565b600082601f83011215156180ff578081fd5b8135602067ffffffffffffffff82111561811557fe5b8082026181238282016191ba565b8084825283820191508387018885858a0101111561813f578687fd5b8693505b858410156181705780356181568161921a565b80845250848301925084810190505b600184019350618143565b5080955050505050505b92915050565b600060208284031215618191578081fd5b813561819c8161921a565b809150505b92915050565b600060006000604084860312156181bc578182fd5b83356181c78161921a565b80935050602084013567ffffffffffffffff808211156181e5578384fd5b818601915086601f83011215156181fa578384fd5b813581811115618208578485fd5b876020828501011115618219578485fd5b6020830194508093505050505b9250925092565b60006000600060608486031215618242578283fd5b833561824d8161921a565b80935050602084013567ffffffffffffffff8082111561826b578384fd5b818601915086601f8301121515618280578384fd5b61828f8783356020850161807b565b935060408601359150808211156182a4578283fd5b50808501905085601f82011215156182ba578182fd5b6182c98682356020840161807b565b9150505b9250925092565b6000600082840360808112156182e8578283fd5b83356182f38161921a565b8093505060607fffffffffffffffffffffffffffffffffffffffffffffffffffffffffffffffe082011215618326578182fd5b506020830190505b9250929050565b6000600060408385031215618348578182fd5b82356183538161921a565b80925050602083013590505b9250929050565b6000600060408385031215618379578182fd5b823567ffffffffffffffff81111561838f578283fd5b61839b858286016180ed565b92505060208301356183ac8161921a565b809150505b9250929050565b6000602082840312156183c9578081fd5b8151801515811415156183da578182fd5b809150505b92915050565b6000602082840312156183f6578081fd5b81357fffffffff00000000000000000000000000000000000000000000000000000000811681141515618427578182fd5b809150505b92915050565b600060208284031215618443578081fd5b813561844e8161921a565b809150505b92915050565b60006000600060006000600060006000600060006101408b8d03121561847d578788fd5b8a356184888161921a565b809a505060208b013561849a8161921a565b8099505060408b01356184ac8161921a565b8098505060608b01356184be8161921a565b8097505060808b01356184d08161921a565b8096505060a08b01356184e28161921a565b8095505060c08b01356184f48161921a565b8094505060e08b01356185068161921a565b809350506101008b01356185198161921a565b809250506101208b013561852c8161921a565b809150505b9295989b9194979a5092959850565b600060208284031215618551578081fd5b813561855c8161921a565b809150505b92915050565b600060208284031215618578578081fd5b81356185838161921a565b809150505b92915050565b60006020828403121561859f578081fd5b81356185aa8161921a565b809150505b92915050565b6000602082840312156185c6578081fd5b81356185d18161921a565b809150505b92915050565b6000602082840312156185ed578081fd5b81356185f88161921a565b809150505b92915050565b600060208284031215618614578081fd5b813561861f8161921a565b809150505b92915050565b60006020828403121561863b578081fd5b81356186468161921a565b809150505b92915050565b600060208284031215618662578081fd5b813561866d8161921a565b809150505b92915050565b6000600060006060848603121561868d578081fd5b83356186988161921a565b8093505060208401356186aa8161921a565b80925050604084013567ffffffffffffffff8111156186c7578182fd5b6186d3868287016180ed565b9150505b9250925092565b6000602082840312156186ef578081fd5b813590505b92915050565b60006020828403121561870b578081fd5b815190505b92915050565b600060208284031215618727578081fd5b813567ffffffffffffffff811681141515618740578182fd5b809150505b92915050565b60006020828403121561875c578081fd5b813561876781619243565b809150505b92915050565b600060208284031215618783578081fd5b815161878e81619243565b809150505b92915050565b600081518084526187b18160208601602086016191e5565b60207fffffffffffffffffffffffffffffffffffffffffffffffffffffffffffffffe0601f8301168501019150505b92915050565b60007fffffffff000000000000000000000000000000000000000000000000000000008416825282516188208160048501602087016191e5565b6004818401019150505b9392505050565b600082516188438184602087016191e5565b8083019150505b92915050565b60008551618862818460208a016191e5565b80830190508581527fffffffffffffffffffffffffffffffffffffffff000000000000000000000000808660601b166020830152808560601b16603483015250604881019150505b95945050505050565b60007f726577617264730000000000000000000000000000000000000000000000000082526007820190505b919050565b60007f726174657300000000000000000000000000000000000000000000000000000082526005820190505b919050565b60007f736574746c656d656e74000000000000000000000000000000000000000000008252600a820190505b919050565b60007f6d61726b6574000000000000000000000000000000000000000000000000000082526006820190505b919050565b60007f6c656e640000000000000000000000000000000000000000000000000000000082526004820190505b919050565b60007f61756374696f6e7300000000000000000000000000000000000000000000000082526008820190505b919050565b60007f6c69717569646174696f6e7300000000000000000000000000000000000000008252600c820190505b919050565b60007f707269636573000000000000000000000000000000000000000000000000000082526006820190505b919050565b600060208201905073ffffffffffffffffffffffffffffffffffffffff831682525b92915050565b600073ffffffffffffffffffffffffffffffffffffffff851682526040602083015282604083015282846060840137806060848401015260607fffffffffffffffffffffffffffffffffffffffffffffffffffffffffffffffe0601f85011683010190505b949350505050565b600073ffffffffffffffffffffffffffffffffffffffff8416825260406020830152618aff6040830184618799565b90505b9392505050565b600060408201905073ffffffffffffffffffffffffffffffffffffffff841682528260208301525b9392505050565b600060208083018184528085518083526040860191508387019250845b81811015618b8d5773ffffffffffffffffffffffffffffffffffffffff8451168352848301925084840193505b600181019050618b55565b50508093505050505b92915050565b600060208201905082151582525b92915050565b6000831515825260406020830152618bcb6040830184618799565b90505b9392505050565b60006020820190508282525b92915050565b600060208201905073ffffffffffffffffffffffffffffffffffffffff831682525b92915050565b600060208201905073ffffffffffffffffffffffffffffffffffffffff831682525b92915050565b600060208201905073ffffffffffffffffffffffffffffffffffffffff831682525b92915050565b600060208201905073ffffffffffffffffffffffffffffffffffffffff831682525b92915050565b600060208201905073ffffffffffffffffffffffffffffffffffffffff831682525b92915050565b600060208201905073ffffffffffffffffffffffffffffffffffffffff831682525b92915050565b600060208201905073ffffffffffffffffffffffffffffffffffffffff831682525b92915050565b600060208201905073ffffffffffffffffffffffffffffffffffffffff831682525b92915050565b600060208201905073ffffffffffffffffffffffffffffffffffffffff831682525b92915050565b600060208201905073ffffffffffffffffffffffffffffffffffffffff831682525b92915050565b600060208201905073ffffffffffffffffffffffffffffffffffffffff831682525b92915050565b600060208201905073ffffffffffffffffffffffffffffffffffffffff831682525b92915050565b600060208201905073ffffffffffffffffffffffffffffffffffffffff831682525b92915050565b600060208201905073ffffffffffffffffffffffffffffffffffffffff831682525b92915050565b600060208201905073ffffffffffffffffffffffffffffffffffffffff831682525b92915050565b600060208201905073ffffffffffffffffffffffffffffffffffffffff831682525b92915050565b600060208252618e7a6020830184618799565b90505b92915050565b600060208252601260208301527f47656e6573697341757468206661696c6564000000000000000000000000000060408301526060820190505b919050565b600060208252600960208301527f4e6f7420666f756e64000000000000000000000000000000000000000000000060408301526060820190505b919050565b600060208252600e60208301527f4e6f7420417574686f72697a656400000000000000000000000000000000000060408301526060820190505b919050565b600060208252600460208301527f4e6f6f700000000000000000000000000000000000000000000000000000000060408301526060820190505b919050565b600060208252600e60208301527f496e76616c696420616374696f6e00000000000000000000000000000000000060408301526060820190505b919050565b600060208252600b60208301527f416c72656164792073657400000000000000000000000000000000000000000060408301526060820190505b919050565b600060208252600d60208301527f4f6e6c79206f6e6520706f6f6c0000000000000000000000000000000000000060408301526060820190505b919050565b600060208252601760208301527f496e73756666696369656e7420544350204c6f636b656400000000000000000060408301526060820190505b919050565b600060208252600d60208301527f416c72656164792061646465640000000000000000000000000000000000000060408301526060820190505b919050565b600060208252601060208301527f416c72656164792073687574646f776e0000000000000000000000000000000060408301526060820190505b919050565b600060208252600c60208301527f4e6f742073687574646f776e000000000000000000000000000000000000000060408301526060820190505b919050565b600060208252600660208301527f4c4f434b4544000000000000000000000000000000000000000000000000000060408301526060820190505b919050565b60006020820190508282525b92915050565b600060208201905067ffffffffffffffff831682525b92915050565b600060208201905060ff831682525b92915050565b6000604051905081810181811067ffffffffffffffff821117156191da57fe5b80604052505b919050565b60005b838110156192045780820151818401525b6020810190506191e8565b83811115619213576000848401525b505b505050565b73ffffffffffffffffffffffffffffffffffffffff81168114151561923f5760006000fd5b5b50565b60ff8116811415156192555760006000fd5b5b50565bfe45434453413a20696e76616c6964207369676e6174757265202773272076616c756545434453413a20696e76616c6964207369676e6174757265202776272076616c7565a264697066735822122036f3ec1f3d5203d5dcf553a36592a26fda3d177ad07ee15c49e144b9ad005b5864736f6c63430007060033",
  "linkReferences": {},
  "deployedLinkReferences": {}
}