{
  "_format": "hh-sol-artifact-1",
  "contractName": "GovernorTestable",
  "sourceName": "contracts/mocks/GovernorTestable.sol",
  "abi": [
    {
      "inputs": [],
      "stateMutability": "nonpayable",
      "type": "constructor"
    },
    {
      "anonymous": false,
      "inputs": [
        {
          "indexed": true,
          "internalType": "string",
          "name": "contractName",
          "type": "string"
        },
        {
          "indexed": true,
          "internalType": "address",
          "name": "contractAddress",
          "type": "address"
        }
      ],
      "name": "ContractUpgraded",
      "type": "event"
    },
    {
      "anonymous": false,
      "inputs": [
        {
          "indexed": true,
          "internalType": "address",
          "name": "newGovernor",
          "type": "address"
        }
      ],
      "name": "ProtocolUpgraded",
      "type": "event"
    },
    {
      "anonymous": false,
      "inputs": [],
      "name": "ShutdownExecuted",
      "type": "event"
    },
    {
      "anonymous": false,
      "inputs": [
        {
          "indexed": true,
          "internalType": "address",
          "name": "locker",
          "type": "address"
        },
        {
          "indexed": false,
          "internalType": "uint256",
          "name": "count",
          "type": "uint256"
        }
      ],
      "name": "ShutdownTokensLocked",
      "type": "event"
    },
    {
      "anonymous": false,
      "inputs": [
        {
          "indexed": true,
          "internalType": "address",
          "name": "locker",
          "type": "address"
        },
        {
          "indexed": false,
          "internalType": "uint256",
          "name": "count",
          "type": "uint256"
        }
      ],
      "name": "ShutdownTokensUnlocked",
      "type": "event"
    },
    {
      "inputs": [],
      "name": "EMERGENCY_SHUTDOWN_THRESHOLD",
      "outputs": [
        {
          "internalType": "uint256",
          "name": "",
          "type": "uint256"
        }
      ],
      "stateMutability": "view",
      "type": "function"
    },
    {
      "inputs": [],
      "name": "accounting",
      "outputs": [
        {
          "internalType": "contract IAccounting",
          "name": "",
          "type": "address"
        }
      ],
      "stateMutability": "view",
      "type": "function"
    },
    {
      "inputs": [],
      "name": "auctions",
      "outputs": [
        {
          "internalType": "contract IAuctions",
          "name": "",
          "type": "address"
        }
      ],
      "stateMutability": "view",
      "type": "function"
    },
    {
      "inputs": [],
      "name": "borrowRewardsPortion",
      "outputs": [
        {
          "internalType": "uint64",
          "name": "",
          "type": "uint64"
        }
      ],
      "stateMutability": "view",
      "type": "function"
    },
    {
      "inputs": [],
      "name": "calculateCurrentDailyRewardCount",
      "outputs": [
        {
          "internalType": "uint256",
          "name": "result",
          "type": "uint256"
        }
      ],
      "stateMutability": "view",
      "type": "function"
    },
    {
      "inputs": [
        {
          "internalType": "uint64",
          "name": "rewardsPeriod",
          "type": "uint64"
        }
      ],
      "name": "calculateCurrentDailyRewardCountImpl",
      "outputs": [
        {
          "internalType": "uint256",
          "name": "result",
          "type": "uint256"
        }
      ],
      "stateMutability": "pure",
      "type": "function"
    },
    {
      "inputs": [
        {
          "internalType": "uint64",
          "name": "bootsrapPeriod",
          "type": "uint64"
        }
      ],
      "name": "calculateRewardsForBootstrapPeriod",
      "outputs": [
        {
          "internalType": "uint256",
          "name": "result",
          "type": "uint256"
        }
      ],
      "stateMutability": "pure",
      "type": "function"
    },
    {
      "inputs": [],
      "name": "currentDailyDebtRewardCount",
      "outputs": [
        {
          "internalType": "uint256",
          "name": "",
          "type": "uint256"
        }
      ],
      "stateMutability": "view",
      "type": "function"
    },
    {
      "inputs": [],
      "name": "currentDailyLiquidityRewardCount",
      "outputs": [
        {
          "internalType": "uint256",
          "name": "",
          "type": "uint256"
        }
      ],
      "stateMutability": "view",
      "type": "function"
    },
    {
      "inputs": [],
      "name": "currentPeriod",
      "outputs": [
        {
          "internalType": "uint64",
          "name": "period",
          "type": "uint64"
        }
      ],
      "stateMutability": "view",
      "type": "function"
    },
    {
      "inputs": [],
      "name": "currentPhase",
      "outputs": [
        {
          "internalType": "uint8",
          "name": "",
          "type": "uint8"
        }
      ],
      "stateMutability": "view",
      "type": "function"
    },
    {
      "inputs": [],
      "name": "deployer",
      "outputs": [
        {
          "internalType": "address",
          "name": "",
          "type": "address"
        }
      ],
      "stateMutability": "view",
      "type": "function"
    },
    {
      "inputs": [],
      "name": "emergencyShutdownThresholdMet",
      "outputs": [
        {
          "internalType": "bool",
          "name": "",
          "type": "bool"
        }
      ],
      "stateMutability": "view",
      "type": "function"
    },
    {
      "inputs": [
        {
          "internalType": "address",
          "name": "",
          "type": "address"
        }
      ],
      "name": "emergencyShutdownTokensLocked",
      "outputs": [
        {
          "internalType": "uint256",
          "name": "",
          "type": "uint256"
        }
      ],
      "stateMutability": "view",
      "type": "function"
    },
    {
      "inputs": [],
      "name": "enforcedDecentralization",
      "outputs": [
        {
          "internalType": "contract IEnforcedDecentralization",
          "name": "",
          "type": "address"
        }
      ],
      "stateMutability": "view",
      "type": "function"
    },
    {
      "inputs": [
        {
          "internalType": "address",
          "name": "target",
          "type": "address"
        },
        {
          "internalType": "string",
          "name": "signature",
          "type": "string"
        },
        {
          "internalType": "bytes",
          "name": "data",
          "type": "bytes"
        }
      ],
      "name": "execute",
      "outputs": [
        {
          "internalType": "bool",
          "name": "success",
          "type": "bool"
        },
        {
          "internalType": "bytes",
          "name": "returnData",
          "type": "bytes"
        }
      ],
      "stateMutability": "nonpayable",
      "type": "function"
    },
    {
      "inputs": [],
      "name": "executeEmergencyShutdown",
      "outputs": [],
      "stateMutability": "nonpayable",
      "type": "function"
    },
    {
      "inputs": [],
      "name": "executeShutdown",
      "outputs": [],
      "stateMutability": "nonpayable",
      "type": "function"
    },
    {
      "inputs": [],
      "name": "firstPeriod",
      "outputs": [
        {
          "internalType": "uint64",
          "name": "",
          "type": "uint64"
        }
      ],
      "stateMutability": "view",
      "type": "function"
    },
    {
      "inputs": [],
      "name": "hue",
      "outputs": [
        {
          "internalType": "contract IHue",
          "name": "",
          "type": "address"
        }
      ],
      "stateMutability": "view",
      "type": "function"
    },
    {
      "inputs": [],
      "name": "huePositionNFT",
      "outputs": [
        {
          "internalType": "contract IPositionNFT",
          "name": "",
          "type": "address"
        }
      ],
      "stateMutability": "view",
      "type": "function"
    },
    {
      "inputs": [
        {
          "internalType": "contract IAuctions",
          "name": "_auctions",
          "type": "address"
        },
        {
          "internalType": "contract ITCP",
          "name": "_tcp",
          "type": "address"
        },
        {
          "internalType": "contract ILiquidations",
          "name": "_liquidations",
          "type": "address"
        },
        {
          "internalType": "contract IMarket",
          "name": "_market",
          "type": "address"
        },
        {
          "internalType": "contract IRates",
          "name": "_rates",
          "type": "address"
        },
        {
          "internalType": "contract IPrices",
          "name": "_prices",
          "type": "address"
        },
        {
          "internalType": "contract IProtocolLock",
          "name": "_protocolLock",
          "type": "address"
        },
        {
          "internalType": "contract IRewards",
          "name": "_rewards",
          "type": "address"
        },
        {
          "internalType": "contract ISettlement",
          "name": "_settlement",
          "type": "address"
        }
      ],
      "name": "initialize",
      "outputs": [],
      "stateMutability": "nonpayable",
      "type": "function"
    },
    {
      "inputs": [],
      "name": "isShutdown",
      "outputs": [
        {
          "internalType": "bool",
          "name": "",
          "type": "bool"
        }
      ],
      "stateMutability": "view",
      "type": "function"
    },
    {
      "inputs": [],
      "name": "lendHue",
      "outputs": [
        {
          "internalType": "contract ILendHue",
          "name": "",
          "type": "address"
        }
      ],
      "stateMutability": "view",
      "type": "function"
    },
    {
      "inputs": [],
      "name": "liquidations",
      "outputs": [
        {
          "internalType": "contract ILiquidations",
          "name": "",
          "type": "address"
        }
      ],
      "stateMutability": "view",
      "type": "function"
    },
    {
      "inputs": [
        {
          "internalType": "uint256",
          "name": "count",
          "type": "uint256"
        }
      ],
      "name": "lockTokensForEmergencyShutdown",
      "outputs": [],
      "stateMutability": "nonpayable",
      "type": "function"
    },
    {
      "inputs": [],
      "name": "market",
      "outputs": [
        {
          "internalType": "contract IMarket",
          "name": "",
          "type": "address"
        }
      ],
      "stateMutability": "view",
      "type": "function"
    },
    {
      "inputs": [],
      "name": "mintCapsUnset",
      "outputs": [
        {
          "internalType": "bool",
          "name": "",
          "type": "bool"
        }
      ],
      "stateMutability": "view",
      "type": "function"
    },
    {
      "inputs": [
        {
          "internalType": "address",
          "name": "to",
          "type": "address"
        },
        {
          "internalType": "uint256",
          "name": "count",
          "type": "uint256"
        }
      ],
      "name": "mintIncentive",
      "outputs": [],
      "stateMutability": "nonpayable",
      "type": "function"
    },
    {
      "inputs": [
        {
          "internalType": "address",
          "name": "to",
          "type": "address"
        },
        {
          "internalType": "uint256",
          "name": "count",
          "type": "uint256"
        }
      ],
      "name": "mintTCP",
      "outputs": [],
      "stateMutability": "nonpayable",
      "type": "function"
    },
    {
      "inputs": [],
      "name": "periodLength",
      "outputs": [
        {
          "internalType": "uint64",
          "name": "",
          "type": "uint64"
        }
      ],
      "stateMutability": "view",
      "type": "function"
    },
    {
      "inputs": [],
      "name": "prices",
      "outputs": [
        {
          "internalType": "contract IPrices",
          "name": "",
          "type": "address"
        }
      ],
      "stateMutability": "view",
      "type": "function"
    },
    {
      "inputs": [],
      "name": "protocolLock",
      "outputs": [
        {
          "internalType": "contract IProtocolLock",
          "name": "",
          "type": "address"
        }
      ],
      "stateMutability": "view",
      "type": "function"
    },
    {
      "inputs": [],
      "name": "rates",
      "outputs": [
        {
          "internalType": "contract IRates",
          "name": "",
          "type": "address"
        }
      ],
      "stateMutability": "view",
      "type": "function"
    },
    {
      "inputs": [
        {
          "internalType": "address",
          "name": "caller",
          "type": "address"
        }
      ],
      "name": "requireDebtServicesAccess",
      "outputs": [],
      "stateMutability": "view",
      "type": "function"
    },
    {
      "inputs": [
        {
          "internalType": "address",
          "name": "caller",
          "type": "address"
        }
      ],
      "name": "requireHueReservesBurnAccess",
      "outputs": [],
      "stateMutability": "view",
      "type": "function"
    },
    {
      "inputs": [
        {
          "internalType": "address",
          "name": "caller",
          "type": "address"
        }
      ],
      "name": "requireUpdatePositionAccess",
      "outputs": [],
      "stateMutability": "view",
      "type": "function"
    },
    {
      "inputs": [
        {
          "internalType": "address",
          "name": "target",
          "type": "address"
        },
        {
          "internalType": "string",
          "name": "signature",
          "type": "string"
        }
      ],
      "name": "requireValidAction",
      "outputs": [],
      "stateMutability": "view",
      "type": "function"
    },
    {
      "inputs": [],
      "name": "rewards",
      "outputs": [
        {
          "internalType": "contract IRewards",
          "name": "",
          "type": "address"
        }
      ],
      "stateMutability": "view",
      "type": "function"
    },
    {
      "inputs": [
        {
          "internalType": "uint64",
          "name": "portion",
          "type": "uint64"
        }
      ],
      "name": "setBorrowRewardsPortion",
      "outputs": [],
      "stateMutability": "nonpayable",
      "type": "function"
    },
    {
      "inputs": [
        {
          "internalType": "uint64",
          "name": "phaseOneStartTime",
          "type": "uint64"
        }
      ],
      "name": "setPhaseOneStartTime",
      "outputs": [],
      "stateMutability": "nonpayable",
      "type": "function"
    },
    {
      "inputs": [
        {
          "internalType": "address[]",
          "name": "tokenIncentiveMinters",
          "type": "address[]"
        },
        {
          "internalType": "uint256[]",
          "name": "caps",
          "type": "uint256[]"
        }
      ],
      "name": "setTokenIncentiveCaps",
      "outputs": [],
      "stateMutability": "nonpayable",
      "type": "function"
    },
    {
      "inputs": [],
      "name": "settlement",
      "outputs": [
        {
          "internalType": "contract ISettlement",
          "name": "",
          "type": "address"
        }
      ],
      "stateMutability": "view",
      "type": "function"
    },
    {
      "inputs": [],
      "name": "shutdownTime",
      "outputs": [
        {
          "internalType": "uint64",
          "name": "",
          "type": "uint64"
        }
      ],
      "stateMutability": "view",
      "type": "function"
    },
    {
      "inputs": [],
      "name": "tcp",
      "outputs": [
        {
          "internalType": "contract ITCP",
          "name": "",
          "type": "address"
        }
      ],
      "stateMutability": "view",
      "type": "function"
    },
    {
      "inputs": [],
      "name": "timelock",
      "outputs": [
        {
          "internalType": "address",
          "name": "",
          "type": "address"
        }
      ],
      "stateMutability": "view",
      "type": "function"
    },
    {
      "inputs": [
        {
          "internalType": "address",
          "name": "",
          "type": "address"
        }
      ],
      "name": "tokenIncentiveMintCaps",
      "outputs": [
        {
          "internalType": "uint256",
          "name": "",
          "type": "uint256"
        }
      ],
      "stateMutability": "view",
      "type": "function"
    },
    {
      "inputs": [],
      "name": "unlockTokensForEmergencyShutdown",
      "outputs": [],
      "stateMutability": "nonpayable",
      "type": "function"
    },
    {
      "inputs": [
        {
          "internalType": "contract IAuctions",
          "name": "_auctions",
          "type": "address"
        }
      ],
      "name": "upgradeAuctions",
      "outputs": [],
      "stateMutability": "nonpayable",
      "type": "function"
    },
    {
      "inputs": [
        {
          "internalType": "contract ILiquidations",
          "name": "_liquidations",
          "type": "address"
        }
      ],
      "name": "upgradeLiquidations",
      "outputs": [],
      "stateMutability": "nonpayable",
      "type": "function"
    },
    {
      "inputs": [
        {
          "internalType": "contract IMarket",
          "name": "_market",
          "type": "address"
        }
      ],
      "name": "upgradeMarket",
      "outputs": [],
      "stateMutability": "nonpayable",
      "type": "function"
    },
    {
      "inputs": [
        {
          "internalType": "contract IPrices",
          "name": "_prices",
          "type": "address"
        }
      ],
      "name": "upgradePrices",
      "outputs": [],
      "stateMutability": "nonpayable",
      "type": "function"
    },
    {
      "inputs": [
        {
          "internalType": "address",
          "name": "newGovernor",
          "type": "address"
        }
      ],
      "name": "upgradeProtocol",
      "outputs": [],
      "stateMutability": "nonpayable",
      "type": "function"
    },
    {
      "inputs": [
        {
          "internalType": "contract IRates",
          "name": "_rates",
          "type": "address"
        }
      ],
      "name": "upgradeRates",
      "outputs": [],
      "stateMutability": "nonpayable",
      "type": "function"
    },
    {
      "inputs": [
        {
          "internalType": "contract IRewards",
          "name": "_rewards",
          "type": "address"
        }
      ],
      "name": "upgradeRewards",
      "outputs": [],
      "stateMutability": "nonpayable",
      "type": "function"
    },
    {
      "inputs": [
        {
          "internalType": "contract ISettlement",
          "name": "_settlement",
          "type": "address"
        }
      ],
      "name": "upgradeSettlement",
      "outputs": [],
      "stateMutability": "nonpayable",
      "type": "function"
    },
    {
      "inputs": [
        {
          "internalType": "bytes4",
          "name": "",
          "type": "bytes4"
        }
      ],
      "name": "validUpdate",
      "outputs": [
        {
          "internalType": "bool",
          "name": "",
          "type": "bool"
        }
      ],
      "stateMutability": "view",
      "type": "function"
    }
  ],
  "bytecode": "0x60c06040526706f05b59d3b20000600160006101000a81548167ffffffffffffffff021916908367ffffffffffffffff1602179055506001601560146101000a81548160ff0219169083151502179055507fffffffffffffffffffffffffffffffffffffffffffffffffffffffffffffffff601660005090905560016017600050909055348015620000915760006000fd5b505b61dead61dead61dead61dead61dead61dead5b5b620151805b60018167ffffffffffffffff16620000c96200030760201b60201c565b67ffffffffffffffff16811515620000dd57fe5b040367ffffffffffffffff1660a08167ffffffffffffffff1660c01b815260080150508067ffffffffffffffff1660808167ffffffffffffffff1660c01b815260080150505b50600160006000508190909055505b33601560006101000a81548173ffffffffffffffffffffffffffffffffffffffff021916908373ffffffffffffffffffffffffffffffffffffffff16021790555085600460006101000a81548173ffffffffffffffffffffffffffffffffffffffff021916908373ffffffffffffffffffffffffffffffffffffffff16021790555084600860006101000a81548173ffffffffffffffffffffffffffffffffffffffff021916908373ffffffffffffffffffffffffffffffffffffffff16021790555083600960006101000a81548173ffffffffffffffffffffffffffffffffffffffff021916908373ffffffffffffffffffffffffffffffffffffffff16021790555082600b60006101000a81548173ffffffffffffffffffffffffffffffffffffffff021916908373ffffffffffffffffffffffffffffffffffffffff16021790555081600a60006101000a81548173ffffffffffffffffffffffffffffffffffffffff021916908373ffffffffffffffffffffffffffffffffffffffff16021790555080601360006101000a81548173ffffffffffffffffffffffffffffffffffffffff021916908373ffffffffffffffffffffffffffffffffffffffff1602179055505b5050505050505b620003bd565b600062000321426200032960201b62004d3817909060201c565b905080505b90565b60006801000000000000000082101515620003af576040517f08c379a00000000000000000000000000000000000000000000000000000000081526004018080602001828103825260118152602001807f6d6f7265207468616e203634206269747300000000000000000000000000000081526020015060200191505060405180910390fd5b819050620003b8565b919050565b60805160c01c60a05160c01c61682362000405600039806130395280614e1852806155f852806156845250806132eb5280614e39528061561952806156bd52506168236000f3fe60806040523480156100115760006000fd5b50600436106103885760003560e01c80639622cd8f116101df578063ce49968211610110578063d683080f116100ae578063f5e95acb1161007d578063f5e95acb146109e7578063f6fbc19214610a03578063fe47727714610a0d578063ff26df7214610a2b57610388565b8063d683080f14610975578063d714b88a14610991578063e97a99b6146109af578063ef7a7cfa146109cb57610388565b8063d33219b4116100ea578063d33219b4146108fd578063d3419bf31461091b578063d478b08714610939578063d5f394881461095757610388565b8063ce499682146108b7578063d0d8ab9a146108d5578063d2ca2115146108df57610388565b8063a89f51ae1161017d578063b8188c8111610157578063b8188c8114610843578063b971dc051461085f578063bf86d6901461087b578063c4e3a63b1461089957610388565b8063a89f51ae146107eb578063b4b6882b14610809578063b6b0ea381461082557610388565b80639d35b3f2116101b95780639d35b3f2146107655780639ec5a89414610795578063a1c1f90d146107b3578063a43c36af146107cf57610388565b80639622cd8f1461070d5780639624e83e146107295780639a371c841461074757610388565b806351160630116102b957806380f556051161025757806383d3e9cf1161023157806383d3e9cf1461068757806385aa6103146106b757806388a4bfb7146106d55780638f40b82f146106f157610388565b806380f556051461062f57806383208f531461064d57806383a8641e1461066957610388565b8063734875a811610293578063734875a8146105bf5780637c114fed146105db57806380304d09146105f757806380b5c6651461061357610388565b8063511606301461056557806358569081146105835780635c66d1e6146105a157610388565b806332374174116103265780633f88b0c5116103005780633f88b0c5146104dd57806343f48fbd1461050d5780634b414e321461052b5780634cd7a3151461054957610388565b8063323741741461047057806333daf5d41461048e57806336fc02f4146104bf57610388565b80630a86f109116103625780630a86f109146103fa578063113cf1ab14610418578063232948ea146104485780632cae02691461045257610388565b80630132ebc01461038e578063055ad42e146103be57806306040618146103dc57610388565b60006000fd5b6103a860048036038101906103a39190615f60565b610a47565b6040516103b5919061674b565b60405180910390f35b6103c6610a62565b6040516103d39190616779565b60405180910390f35b6103e4610b10565b6040516103f1919061675d565b60405180910390f35b610402610b28565b60405161040f919061675d565b60405180910390f35b610432600480360381019061042d9190615cfa565b610b42565b60405161043f91906162ce565b60405180910390f35b610450610b67565b005b61045a610c52565b60405161046791906163a7565b60405180910390f35b610478610c78565b604051610485919061637f565b60405180910390f35b6104a860048036038101906104a39190615bab565b610c9e565b6040516104b69291906162e2565b60405180910390f35b6104c7610ee3565b6040516104d4919061650f565b60405180910390f35b6104f760048036038101906104f29190615afe565b610f09565b604051610504919061674b565b60405180910390f35b610515610f24565b6040516105229190616497565b60405180910390f35b610533610f4a565b6040516105409190616357565b60405180910390f35b610563600480360381019061055e9190615c52565b610f70565b005b61056d611145565b60405161057a91906164e7565b60405180910390f35b61058b61116b565b604051610598919061675d565b60405180910390f35b6105a9611185565b6040516105b6919061674b565b60405180910390f35b6105d960048036038101906105d49190615afe565b61119d565b005b6105f560048036038101906105f09190615afe565b611258565b005b610611600480360381019061060c9190615eda565b61136b565b005b61062d60048036038101906106289190615afe565b61179a565b005b6106376119af565b60405161064491906163f7565b60405180910390f35b61066760048036038101906106629190615e8c565b6119d5565b005b610671611d53565b60405161067e919061674b565b60405180910390f35b6106a1600480360381019061069c9190615f60565b611d9f565b6040516106ae919061674b565b60405180910390f35b6106bf611dba565b6040516106cc919061632f565b60405180910390f35b6106ef60048036038101906106ea9190615f28565b611de0565b005b61070b60048036038101906107069190615f01565b612020565b005b61072760048036038101906107229190615afe565b61239e565b005b610731612459565b60405161073e9190616307565b60405180910390f35b61074f61247f565b60405161075c91906163cf565b60405180910390f35b61077f600480360381019061077a9190615afe565b6124a5565b60405161078c919061674b565b60405180910390f35b61079d6124c0565b6040516107aa91906164bf565b60405180910390f35b6107cd60048036038101906107c89190615eb3565b6124e6565b005b6107e960048036038101906107e49190615b25565b612864565b005b6107f36128fb565b604051610800919061641f565b60405180910390f35b610823600480360381019061081e9190615f60565b612921565b005b61082d612a49565b60405161083a91906162ce565b60405180910390f35b61085d60048036038101906108589190615f60565b612a5c565b005b61087960048036038101906108749190615e3e565b612c89565b005b610883613007565b60405161089091906162ce565b60405180910390f35b6108a1613037565b6040516108ae919061675d565b60405180910390f35b6108bf61305b565b6040516108cc91906162ce565b60405180910390f35b6108dd6131f3565b005b6108e76132e9565b6040516108f4919061675d565b60405180910390f35b61090561330d565b60405161091291906161d1565b60405180910390f35b610923613333565b6040516109309190616447565b60405180910390f35b610941613359565b60405161094e919061646f565b60405180910390f35b61095f61337f565b60405161096c91906161d1565b60405180910390f35b61098f600480360381019061098a9190615c83565b6133a5565b005b61099961352b565b6040516109a6919061674b565b60405180910390f35b6109c960048036038101906109c49190615d47565b613591565b005b6109e560048036038101906109e09190615c52565b6139cb565b005b610a0160048036038101906109fc9190615d6e565b613c64565b005b610a0b61477a565b005b610a156149ae565b604051610a22919061674b565b60405180910390f35b610a456004803603810190610a409190615e65565b6149ba565b005b6000610a5882614dca63ffffffff16565b905080505b919050565b6000600a60009054906101000a900473ffffffffffffffffffffffffffffffffffffffff1673ffffffffffffffffffffffffffffffffffffffff1663055ad42e6040518163ffffffff1660e01b815260040160206040518083038186803b158015610acd5760006000fd5b505afa158015610ae2573d600060003e3d6000fd5b505050506040513d601f19601f82011682018060405250810190610b069190615f95565b9050610b0d565b90565b6000610b20614e1463ffffffff16565b905080505b90565b600160009054906101000a900467ffffffffffffffff1681565b601460005060205280600052604060002060009150909054906101000a900460ff1681565b600260006000505414151515610be8576040517f08c379a000000000000000000000000000000000000000000000000000000000815260040180806020018281038252601f8152602001807f5265656e7472616e637947756172643a207265656e7472616e742063616c6c0081526020015060200191505060405180910390fd5b60026000600050819090905550610c323073ffffffffffffffffffffffffffffffffffffffff163373ffffffffffffffffffffffffffffffffffffffff1614614e8d63ffffffff16565b610c40614ed363ffffffff16565b5b5b600160006000508190909055505b565b600b60009054906101000a900473ffffffffffffffffffffffffffffffffffffffff1681565b600860009054906101000a900473ffffffffffffffffffffffffffffffffffffffff1681565b600060606001601760005054141515610cec576040517f08c379a0000000000000000000000000000000000000000000000000000000008152600401610ce39061670c565b60405180910390fd5b60006017600050819090905550610d58601360009054906101000a900473ffffffffffffffffffffffffffffffffffffffff1673ffffffffffffffffffffffffffffffffffffffff163373ffffffffffffffffffffffffffffffffffffffff1614614e8d63ffffffff16565b600a60009054906101000a900473ffffffffffffffffffffffffffffffffffffffff1673ffffffffffffffffffffffffffffffffffffffff1663a43c36af86866040518363ffffffff1660e01b8152600401610db5929190616266565b60006040518083038186803b158015610dce5760006000fd5b505afa158015610de3573d600060003e3d6000fd5b505050508473ffffffffffffffffffffffffffffffffffffffff16610e0d856150a563ffffffff16565b84604051602001610e1f929190616010565b604051602081830303815290604052604051610e3b919061605b565b6000604051808303816000865af19150503d8060008114610e78576040519150601f19603f3d011682016040523d82523d6000602084013e610e7d565b606091505b5080925081935050508181901515610ecb576040517f08c379a0000000000000000000000000000000000000000000000000000000008152600401610ec29190616537565b60405180910390fd5b505b600160176000508190909055505b935093915050565b600760009054906101000a900473ffffffffffffffffffffffffffffffffffffffff1681565b60026000506020528060005260406000206000915090505481565b601060009054906101000a900473ffffffffffffffffffffffffffffffffffffffff1681565b600a60009054906101000a900473ffffffffffffffffffffffffffffffffffffffff1681565b600260006000505414151515610ff1576040517f08c379a000000000000000000000000000000000000000000000000000000000815260040180806020018281038252601f8152602001807f5265656e7472616e637947756172643a207265656e7472616e742063616c6c0081526020015060200191505060405180910390fd5b6002600060005081909090555061105681600360005060003373ffffffffffffffffffffffffffffffffffffffff1673ffffffffffffffffffffffffffffffffffffffff168152602001908152602001600020600050546150bb90919063ffffffff16565b600360005060003373ffffffffffffffffffffffffffffffffffffffff1673ffffffffffffffffffffffffffffffffffffffff168152602001908152602001600020600050819090905550600760009054906101000a900473ffffffffffffffffffffffffffffffffffffffff1673ffffffffffffffffffffffffffffffffffffffff1663449a52f883836040518363ffffffff1660e01b81526004016110fe92919061629f565b600060405180830381600087803b1580156111195760006000fd5b505af115801561112e573d600060003e3d6000fd5b505050505b600160006000508190909055505b5050565b601260009054906101000a900473ffffffffffffffffffffffffffffffffffffffff1681565b600160089054906101000a900467ffffffffffffffff1681565b600061119561514463ffffffff16565b905080505b90565b611254600d60009054906101000a900473ffffffffffffffffffffffffffffffffffffffff1673ffffffffffffffffffffffffffffffffffffffff168273ffffffffffffffffffffffffffffffffffffffff1614806112495750600c60009054906101000a900473ffffffffffffffffffffffffffffffffffffffff1673ffffffffffffffffffffffffffffffffffffffff168273ffffffffffffffffffffffffffffffffffffffff16145b614e8d63ffffffff16565b5b50565b611367600d60009054906101000a900473ffffffffffffffffffffffffffffffffffffffff1673ffffffffffffffffffffffffffffffffffffffff168273ffffffffffffffffffffffffffffffffffffffff1614806113045750600c60009054906101000a900473ffffffffffffffffffffffffffffffffffffffff1673ffffffffffffffffffffffffffffffffffffffff168273ffffffffffffffffffffffffffffffffffffffff16145b8061135c5750601260009054906101000a900473ffffffffffffffffffffffffffffffffffffffff1673ffffffffffffffffffffffffffffffffffffffff168273ffffffffffffffffffffffffffffffffffffffff16145b614e8d63ffffffff16565b5b50565b6002600060005054141515156113ec576040517f08c379a000000000000000000000000000000000000000000000000000000000815260040180806020018281038252601f8152602001807f5265656e7472616e637947756172643a207265656e7472616e742063616c6c0081526020015060200191505060405180910390fd5b600260006000508190909055506114363073ffffffffffffffffffffffffffffffffffffffff163373ffffffffffffffffffffffffffffffffffffffff1614614e8d63ffffffff16565b600f60009054906101000a900473ffffffffffffffffffffffffffffffffffffffff1673ffffffffffffffffffffffffffffffffffffffff16634ac8c5ae601160009054906101000a900473ffffffffffffffffffffffffffffffffffffffff166040518263ffffffff1660e01b81526004016114b391906161d1565b600060405180830381600087803b1580156114ce5760006000fd5b505af11580156114e3573d600060003e3d6000fd5b50505050601160009054906101000a900473ffffffffffffffffffffffffffffffffffffffff1673ffffffffffffffffffffffffffffffffffffffff166307da68f56040518163ffffffff1660e01b8152600401600060405180830381600087803b1580156115525760006000fd5b505af1158015611567573d600060003e3d6000fd5b5050505080601160006101000a81548173ffffffffffffffffffffffffffffffffffffffff021916908373ffffffffffffffffffffffffffffffffffffffff160217905550600f60009054906101000a900473ffffffffffffffffffffffffffffffffffffffff1673ffffffffffffffffffffffffffffffffffffffff16632c388d5d601160009054906101000a900473ffffffffffffffffffffffffffffffffffffffff166040518263ffffffff1660e01b815260040161162991906161d1565b600060405180830381600087803b1580156116445760006000fd5b505af1158015611659573d600060003e3d6000fd5b50505050600460009054906101000a900473ffffffffffffffffffffffffffffffffffffffff1673ffffffffffffffffffffffffffffffffffffffff1663a678f336601160009054906101000a900473ffffffffffffffffffffffffffffffffffffffff166040518263ffffffff1660e01b81526004016116da91906161d1565b600060405180830381600087803b1580156116f55760006000fd5b505af115801561170a573d600060003e3d6000fd5b50505050601160009054906101000a900473ffffffffffffffffffffffffffffffffffffffff1673ffffffffffffffffffffffffffffffffffffffff166040516117539061607a565b60405180910390207f2b51ff7c4cc8e6fe1c72e9d9685b7d2a88a5d82ad3a644afbdceb0272c89c1c360405160405180910390a35b5b600160006000508190909055505b50565b60026000600050541415151561181b576040517f08c379a000000000000000000000000000000000000000000000000000000000815260040180806020018281038252601f8152602001807f5265656e7472616e637947756172643a207265656e7472616e742063616c6c0081526020015060200191505060405180910390fd5b600260006000508190909055506118653073ffffffffffffffffffffffffffffffffffffffff163373ffffffffffffffffffffffffffffffffffffffff1614614e8d63ffffffff16565b6000600160089054906101000a900467ffffffffffffffff1667ffffffffffffffff161115156118ca576040517f08c379a00000000000000000000000000000000000000000000000000000000081526004016118c1906166cd565b60405180910390fd5b600760009054906101000a900473ffffffffffffffffffffffffffffffffffffffff1673ffffffffffffffffffffffffffffffffffffffff16633c4a25d0826040518263ffffffff1660e01b815260040161192591906161d1565b600060405180830381600087803b1580156119405760006000fd5b505af1158015611955573d600060003e3d6000fd5b505050508073ffffffffffffffffffffffffffffffffffffffff167f078ca541eec5b410213fc65330fc5a7324eb56fe692344e7bc1b8be56bd3c16960405160405180910390a25b5b600160006000508190909055505b50565b600d60009054906101000a900473ffffffffffffffffffffffffffffffffffffffff1681565b600260006000505414151515611a56576040517f08c379a000000000000000000000000000000000000000000000000000000000815260040180806020018281038252601f8152602001807f5265656e7472616e637947756172643a207265656e7472616e742063616c6c0081526020015060200191505060405180910390fd5b60026000600050819090905550611aa03073ffffffffffffffffffffffffffffffffffffffff163373ffffffffffffffffffffffffffffffffffffffff1614614e8d63ffffffff16565b600f60009054906101000a900473ffffffffffffffffffffffffffffffffffffffff1673ffffffffffffffffffffffffffffffffffffffff16634ac8c5ae600e60009054906101000a900473ffffffffffffffffffffffffffffffffffffffff166040518263ffffffff1660e01b8152600401611b1d91906161d1565b600060405180830381600087803b158015611b385760006000fd5b505af1158015611b4d573d600060003e3d6000fd5b50505050600e60009054906101000a900473ffffffffffffffffffffffffffffffffffffffff1673ffffffffffffffffffffffffffffffffffffffff166307da68f56040518163ffffffff1660e01b8152600401600060405180830381600087803b158015611bbc5760006000fd5b505af1158015611bd1573d600060003e3d6000fd5b5050505080600e60006101000a81548173ffffffffffffffffffffffffffffffffffffffff021916908373ffffffffffffffffffffffffffffffffffffffff160217905550600f60009054906101000a900473ffffffffffffffffffffffffffffffffffffffff1673ffffffffffffffffffffffffffffffffffffffff16632c388d5d600e60009054906101000a900473ffffffffffffffffffffffffffffffffffffffff166040518263ffffffff1660e01b8152600401611c9391906161d1565b600060405180830381600087803b158015611cae5760006000fd5b505af1158015611cc3573d600060003e3d6000fd5b50505050600e60009054906101000a900473ffffffffffffffffffffffffffffffffffffffff1673ffffffffffffffffffffffffffffffffffffffff16604051611d0c906161a0565b60405180910390207f2b51ff7c4cc8e6fe1c72e9d9685b7d2a88a5d82ad3a644afbdceb0272c89c1c360405160405180910390a35b5b600160006000508190909055505b50565b6000611d95600160009054906101000a900467ffffffffffffffff1667ffffffffffffffff16611d8761514463ffffffff16565b61522490919063ffffffff16565b9050611d9c565b90565b6000611db08261524a63ffffffff16565b905080505b919050565b600560009054906101000a900473ffffffffffffffffffffffffffffffffffffffff1681565b600260006000505414151515611e61576040517f08c379a000000000000000000000000000000000000000000000000000000000815260040180806020018281038252601f8152602001807f5265656e7472616e637947756172643a207265656e7472616e742063616c6c0081526020015060200191505060405180910390fd5b600260006000508190909055506000339050600082111515611eb8576040517f08c379a0000000000000000000000000000000000000000000000000000000008152600401611eaf906165d1565b60405180910390fd5b611f1082600260005060008473ffffffffffffffffffffffffffffffffffffffff1673ffffffffffffffffffffffffffffffffffffffff1681526020019081526020016000206000505461528c90919063ffffffff16565b600260005060008373ffffffffffffffffffffffffffffffffffffffff1673ffffffffffffffffffffffffffffffffffffffff168152602001908152602001600020600050819090905550611fb1600760009054906101000a900473ffffffffffffffffffffffffffffffffffffffff1682600a60009054906101000a900473ffffffffffffffffffffffffffffffffffffffff168561531563ffffffff16565b611fbf61554063ffffffff16565b8073ffffffffffffffffffffffffffffffffffffffff167f6f076ad9d1927fd5f792070276b90549d2433311ff94fe0d7afba682c150817a83604051612005919061674b565b60405180910390a2505b600160006000508190909055505b50565b6002600060005054141515156120a1576040517f08c379a000000000000000000000000000000000000000000000000000000000815260040180806020018281038252601f8152602001807f5265656e7472616e637947756172643a207265656e7472616e742063616c6c0081526020015060200191505060405180910390fd5b600260006000508190909055506120eb3073ffffffffffffffffffffffffffffffffffffffff163373ffffffffffffffffffffffffffffffffffffffff1614614e8d63ffffffff16565b600f60009054906101000a900473ffffffffffffffffffffffffffffffffffffffff1673ffffffffffffffffffffffffffffffffffffffff16634ac8c5ae601260009054906101000a900473ffffffffffffffffffffffffffffffffffffffff166040518263ffffffff1660e01b815260040161216891906161d1565b600060405180830381600087803b1580156121835760006000fd5b505af1158015612198573d600060003e3d6000fd5b50505050601260009054906101000a900473ffffffffffffffffffffffffffffffffffffffff1673ffffffffffffffffffffffffffffffffffffffff166307da68f56040518163ffffffff1660e01b8152600401600060405180830381600087803b1580156122075760006000fd5b505af115801561221c573d600060003e3d6000fd5b5050505080601260006101000a81548173ffffffffffffffffffffffffffffffffffffffff021916908373ffffffffffffffffffffffffffffffffffffffff160217905550600f60009054906101000a900473ffffffffffffffffffffffffffffffffffffffff1673ffffffffffffffffffffffffffffffffffffffff16632c388d5d601260009054906101000a900473ffffffffffffffffffffffffffffffffffffffff166040518263ffffffff1660e01b81526004016122de91906161d1565b600060405180830381600087803b1580156122f95760006000fd5b505af115801561230e573d600060003e3d6000fd5b50505050601260009054906101000a900473ffffffffffffffffffffffffffffffffffffffff1673ffffffffffffffffffffffffffffffffffffffff16604051612357906160dc565b60405180910390207f2b51ff7c4cc8e6fe1c72e9d9685b7d2a88a5d82ad3a644afbdceb0272c89c1c360405160405180910390a35b5b600160006000508190909055505b50565b612455600c60009054906101000a900473ffffffffffffffffffffffffffffffffffffffff1673ffffffffffffffffffffffffffffffffffffffff168273ffffffffffffffffffffffffffffffffffffffff16148061244a5750601260009054906101000a900473ffffffffffffffffffffffffffffffffffffffff1673ffffffffffffffffffffffffffffffffffffffff168273ffffffffffffffffffffffffffffffffffffffff16145b614e8d63ffffffff16565b5b50565b600460009054906101000a900473ffffffffffffffffffffffffffffffffffffffff1681565b600c60009054906101000a900473ffffffffffffffffffffffffffffffffffffffff1681565b60036000506020528060005260406000206000915090505481565b601160009054906101000a900473ffffffffffffffffffffffffffffffffffffffff1681565b600260006000505414151515612567576040517f08c379a000000000000000000000000000000000000000000000000000000000815260040180806020018281038252601f8152602001807f5265656e7472616e637947756172643a207265656e7472616e742063616c6c0081526020015060200191505060405180910390fd5b600260006000508190909055506125b13073ffffffffffffffffffffffffffffffffffffffff163373ffffffffffffffffffffffffffffffffffffffff1614614e8d63ffffffff16565b600f60009054906101000a900473ffffffffffffffffffffffffffffffffffffffff1673ffffffffffffffffffffffffffffffffffffffff16634ac8c5ae601060009054906101000a900473ffffffffffffffffffffffffffffffffffffffff166040518263ffffffff1660e01b815260040161262e91906161d1565b600060405180830381600087803b1580156126495760006000fd5b505af115801561265e573d600060003e3d6000fd5b50505050601060009054906101000a900473ffffffffffffffffffffffffffffffffffffffff1673ffffffffffffffffffffffffffffffffffffffff166307da68f56040518163ffffffff1660e01b8152600401600060405180830381600087803b1580156126cd5760006000fd5b505af11580156126e2573d600060003e3d6000fd5b5050505080601060006101000a81548173ffffffffffffffffffffffffffffffffffffffff021916908373ffffffffffffffffffffffffffffffffffffffff160217905550600f60009054906101000a900473ffffffffffffffffffffffffffffffffffffffff1673ffffffffffffffffffffffffffffffffffffffff16632c388d5d601060009054906101000a900473ffffffffffffffffffffffffffffffffffffffff166040518263ffffffff1660e01b81526004016127a491906161d1565b600060405180830381600087803b1580156127bf5760006000fd5b505af11580156127d4573d600060003e3d6000fd5b50505050601060009054906101000a900473ffffffffffffffffffffffffffffffffffffffff1673ffffffffffffffffffffffffffffffffffffffff1660405161281d906160ab565b60405180910390207f2b51ff7c4cc8e6fe1c72e9d9685b7d2a88a5d82ad3a644afbdceb0272c89c1c360405160405180910390a35b5b600160006000508190909055505b50565b600a60009054906101000a900473ffffffffffffffffffffffffffffffffffffffff1673ffffffffffffffffffffffffffffffffffffffff1663a43c36af8484846040518463ffffffff1660e01b81526004016128c3939291906161f9565b60006040518083038186803b1580156128dc5760006000fd5b505afa1580156128f1573d600060003e3d6000fd5b505050505b505050565b600960009054906101000a900473ffffffffffffffffffffffffffffffffffffffff1681565b6002600060005054141515156129a2576040517f08c379a000000000000000000000000000000000000000000000000000000000815260040180806020018281038252601f8152602001807f5265656e7472616e637947756172643a207265656e7472616e742063616c6c0081526020015060200191505060405180910390fd5b600260006000508190909055506129ec3073ffffffffffffffffffffffffffffffffffffffff163373ffffffffffffffffffffffffffffffffffffffff1614614e8d63ffffffff16565b670de0b6b3a76400008167ffffffffffffffff16101515612a0d5760006000fd5b80600160006101000a81548167ffffffffffffffff021916908367ffffffffffffffff1602179055505b5b600160006000508190909055505b50565b601560149054906101000a900460ff1681565b600260006000505414151515612add576040517f08c379a000000000000000000000000000000000000000000000000000000000815260040180806020018281038252601f8152602001807f5265656e7472616e637947756172643a207265656e7472616e742063616c6c0081526020015060200191505060405180910390fd5b60026000600050819090905550612b273073ffffffffffffffffffffffffffffffffffffffff163373ffffffffffffffffffffffffffffffffffffffff1614614e8d63ffffffff16565b6000601860009054906101000a900467ffffffffffffffff1667ffffffffffffffff16141515612b8c576040517f08c379a0000000000000000000000000000000000000000000000000000000008152600401612b8390616610565b60405180910390fd5b612b9b816155f163ffffffff16565b601860006101000a81548167ffffffffffffffff021916908367ffffffffffffffff160217905550600a60009054906101000a900473ffffffffffffffffffffffffffffffffffffffff1673ffffffffffffffffffffffffffffffffffffffff1663b8188c81612c26601860009054906101000a900467ffffffffffffffff1661567963ffffffff16565b6040518263ffffffff1660e01b8152600401612c42919061675d565b600060405180830381600087803b158015612c5d5760006000fd5b505af1158015612c72573d600060003e3d6000fd5b505050505b5b600160006000508190909055505b50565b600260006000505414151515612d0a576040517f08c379a000000000000000000000000000000000000000000000000000000000815260040180806020018281038252601f8152602001807f5265656e7472616e637947756172643a207265656e7472616e742063616c6c0081526020015060200191505060405180910390fd5b60026000600050819090905550612d543073ffffffffffffffffffffffffffffffffffffffff163373ffffffffffffffffffffffffffffffffffffffff1614614e8d63ffffffff16565b600f60009054906101000a900473ffffffffffffffffffffffffffffffffffffffff1673ffffffffffffffffffffffffffffffffffffffff16634ac8c5ae600c60009054906101000a900473ffffffffffffffffffffffffffffffffffffffff166040518263ffffffff1660e01b8152600401612dd191906161d1565b600060405180830381600087803b158015612dec5760006000fd5b505af1158015612e01573d600060003e3d6000fd5b50505050600c60009054906101000a900473ffffffffffffffffffffffffffffffffffffffff1673ffffffffffffffffffffffffffffffffffffffff166307da68f56040518163ffffffff1660e01b8152600401600060405180830381600087803b158015612e705760006000fd5b505af1158015612e85573d600060003e3d6000fd5b5050505080600c60006101000a81548173ffffffffffffffffffffffffffffffffffffffff021916908373ffffffffffffffffffffffffffffffffffffffff160217905550600f60009054906101000a900473ffffffffffffffffffffffffffffffffffffffff1673ffffffffffffffffffffffffffffffffffffffff16632c388d5d600c60009054906101000a900473ffffffffffffffffffffffffffffffffffffffff166040518263ffffffff1660e01b8152600401612f4791906161d1565b600060405180830381600087803b158015612f625760006000fd5b505af1158015612f77573d600060003e3d6000fd5b50505050600c60009054906101000a900473ffffffffffffffffffffffffffffffffffffffff1673ffffffffffffffffffffffffffffffffffffffff16604051612fc09061616f565b60405180910390207f2b51ff7c4cc8e6fe1c72e9d9685b7d2a88a5d82ad3a644afbdceb0272c89c1c360405160405180910390a35b5b600160006000508190909055505b50565b60006000600160089054906101000a900467ffffffffffffffff1667ffffffffffffffff16119050613034565b90565b7f000000000000000000000000000000000000000000000000000000000000000081565b6000613119670214e8348c4f0000600760009054906101000a900473ffffffffffffffffffffffffffffffffffffffff1673ffffffffffffffffffffffffffffffffffffffff166318160ddd6040518163ffffffff1660e01b815260040160206040518083038186803b1580156130d25760006000fd5b505afa1580156130e7573d600060003e3d6000fd5b505050506040513d601f19601f8201168201806040525081019061310b9190615f44565b61522490919063ffffffff16565b600760009054906101000a900473ffffffffffffffffffffffffffffffffffffffff1673ffffffffffffffffffffffffffffffffffffffff166370a08231600a60009054906101000a900473ffffffffffffffffffffffffffffffffffffffff166040518263ffffffff1660e01b815260040161319691906161d1565b60206040518083038186803b1580156131af5760006000fd5b505afa1580156131c4573d600060003e3d6000fd5b505050506040513d601f19601f820116820180604052508101906131e89190615f44565b1190506131f0565b90565b600260006000505414151515613274576040517f08c379a000000000000000000000000000000000000000000000000000000000815260040180806020018281038252601f8152602001807f5265656e7472616e637947756172643a207265656e7472616e742063616c6c0081526020015060200191505060405180910390fd5b60026000600050819090905550436016600050541015156132ca576040517f08c379a00000000000000000000000000000000000000000000000000000000081526004016132c19061664f565b60405180910390fd5b6132d8614ed363ffffffff16565b5b600160006000508190909055505b565b7f000000000000000000000000000000000000000000000000000000000000000081565b601360009054906101000a900473ffffffffffffffffffffffffffffffffffffffff1681565b600e60009054906101000a900473ffffffffffffffffffffffffffffffffffffffff1681565b600f60009054906101000a900473ffffffffffffffffffffffffffffffffffffffff1681565b601560009054906101000a900473ffffffffffffffffffffffffffffffffffffffff1681565b61341c601560009054906101000a900473ffffffffffffffffffffffffffffffffffffffff1673ffffffffffffffffffffffffffffffffffffffff163373ffffffffffffffffffffffffffffffffffffffff161480156134115750601560149054906101000a900460ff165b614e8d63ffffffff16565b6000601560146101000a81548160ff0219169083151502179055508181905084849050141515613481576040517f08c379a000000000000000000000000000000000000000000000000000000000815260040161347890616553565b60405180910390fd5b6000600090505b848490508110156135235782828281811015156134a157fe5b905060200201356003600050600087878581811015156134bd57fe5b90506020020160208101906134d29190615afe565b73ffffffffffffffffffffffffffffffffffffffff1673ffffffffffffffffffffffffffffffffffffffff1681526020019081526020016000206000508190909055505b8080600101915050613488565b505b50505050565b600061358761356b600160009054906101000a900467ffffffffffffffff1667ffffffffffffffff16670de0b6b3a76400006150bb90919063ffffffff16565b61357961514463ffffffff16565b61522490919063ffffffff16565b905061358e565b90565b600260006000505414151515613612576040517f08c379a000000000000000000000000000000000000000000000000000000000815260040180806020018281038252601f8152602001807f5265656e7472616e637947756172643a207265656e7472616e742063616c6c0081526020015060200191505060405180910390fd5b6002600060005081909090555061365c3073ffffffffffffffffffffffffffffffffffffffff163373ffffffffffffffffffffffffffffffffffffffff1614614e8d63ffffffff16565b600073ffffffffffffffffffffffffffffffffffffffff16600660009054906101000a900473ffffffffffffffffffffffffffffffffffffffff1673ffffffffffffffffffffffffffffffffffffffff161415156137ea57600f60009054906101000a900473ffffffffffffffffffffffffffffffffffffffff1673ffffffffffffffffffffffffffffffffffffffff16634ac8c5ae600660009054906101000a900473ffffffffffffffffffffffffffffffffffffffff166040518263ffffffff1660e01b815260040161373191906161d1565b600060405180830381600087803b15801561374c5760006000fd5b505af1158015613761573d600060003e3d6000fd5b50505050600660009054906101000a900473ffffffffffffffffffffffffffffffffffffffff1673ffffffffffffffffffffffffffffffffffffffff166307da68f56040518163ffffffff1660e01b8152600401600060405180830381600087803b1580156137d05760006000fd5b505af11580156137e5573d600060003e3d6000fd5b505050505b600560009054906101000a900473ffffffffffffffffffffffffffffffffffffffff16600660006101000a81548173ffffffffffffffffffffffffffffffffffffffff021916908373ffffffffffffffffffffffffffffffffffffffff16021790555080600560006101000a81548173ffffffffffffffffffffffffffffffffffffffff021916908373ffffffffffffffffffffffffffffffffffffffff160217905550600f60009054906101000a900473ffffffffffffffffffffffffffffffffffffffff1673ffffffffffffffffffffffffffffffffffffffff16632c388d5d600560009054906101000a900473ffffffffffffffffffffffffffffffffffffffff166040518263ffffffff1660e01b815260040161390b91906161d1565b600060405180830381600087803b1580156139265760006000fd5b505af115801561393b573d600060003e3d6000fd5b50505050600560009054906101000a900473ffffffffffffffffffffffffffffffffffffffff1673ffffffffffffffffffffffffffffffffffffffff166040516139849061613e565b60405180910390207f2b51ff7c4cc8e6fe1c72e9d9685b7d2a88a5d82ad3a644afbdceb0272c89c1c360405160405180910390a35b5b600160006000508190909055505b50565b600260006000505414151515613a4c576040517f08c379a000000000000000000000000000000000000000000000000000000000815260040180806020018281038252601f8152602001807f5265656e7472616e637947756172643a207265656e7472616e742063616c6c0081526020015060200191505060405180910390fd5b60026000600050819090905550613bc0600d60009054906101000a900473ffffffffffffffffffffffffffffffffffffffff1673ffffffffffffffffffffffffffffffffffffffff163373ffffffffffffffffffffffffffffffffffffffff161480613b055750601160009054906101000a900473ffffffffffffffffffffffffffffffffffffffff1673ffffffffffffffffffffffffffffffffffffffff163373ffffffffffffffffffffffffffffffffffffffff16145b80613b5d5750600560009054906101000a900473ffffffffffffffffffffffffffffffffffffffff1673ffffffffffffffffffffffffffffffffffffffff163373ffffffffffffffffffffffffffffffffffffffff16145b80613bb55750601060009054906101000a900473ffffffffffffffffffffffffffffffffffffffff1673ffffffffffffffffffffffffffffffffffffffff163373ffffffffffffffffffffffffffffffffffffffff16145b614e8d63ffffffff16565b600760009054906101000a900473ffffffffffffffffffffffffffffffffffffffff1673ffffffffffffffffffffffffffffffffffffffff1663449a52f883836040518363ffffffff1660e01b8152600401613c1d92919061629f565b600060405180830381600087803b158015613c385760006000fd5b505af1158015613c4d573d600060003e3d6000fd5b505050505b600160006000508190909055505b5050565b613cdc601560009054906101000a900473ffffffffffffffffffffffffffffffffffffffff1673ffffffffffffffffffffffffffffffffffffffff163373ffffffffffffffffffffffffffffffffffffffff16148015613cd15750601560149054906101000a900460ff16155b614e8d63ffffffff16565b601560006101000a81549073ffffffffffffffffffffffffffffffffffffffff021916905582600f60006101000a81548173ffffffffffffffffffffffffffffffffffffffff021916908373ffffffffffffffffffffffffffffffffffffffff160217905550600f60009054906101000a900473ffffffffffffffffffffffffffffffffffffffff1673ffffffffffffffffffffffffffffffffffffffff16632c388d5d306040518263ffffffff1660e01b8152600401613d9d91906161d1565b600060405180830381600087803b158015613db85760006000fd5b505af1158015613dcd573d600060003e3d6000fd5b50505050600f60009054906101000a900473ffffffffffffffffffffffffffffffffffffffff1673ffffffffffffffffffffffffffffffffffffffff16632c388d5d600a60009054906101000a900473ffffffffffffffffffffffffffffffffffffffff166040518263ffffffff1660e01b8152600401613e4e91906161d1565b600060405180830381600087803b158015613e695760006000fd5b505af1158015613e7e573d600060003e3d6000fd5b5050505088600560006101000a81548173ffffffffffffffffffffffffffffffffffffffff021916908373ffffffffffffffffffffffffffffffffffffffff160217905550600f60009054906101000a900473ffffffffffffffffffffffffffffffffffffffff1673ffffffffffffffffffffffffffffffffffffffff16632c388d5d600560009054906101000a900473ffffffffffffffffffffffffffffffffffffffff166040518263ffffffff1660e01b8152600401613f4091906161d1565b600060405180830381600087803b158015613f5b5760006000fd5b505af1158015613f70573d600060003e3d6000fd5b5050505087600760006101000a81548173ffffffffffffffffffffffffffffffffffffffff021916908373ffffffffffffffffffffffffffffffffffffffff160217905550600f60009054906101000a900473ffffffffffffffffffffffffffffffffffffffff1673ffffffffffffffffffffffffffffffffffffffff16632c388d5d600860009054906101000a900473ffffffffffffffffffffffffffffffffffffffff166040518263ffffffff1660e01b815260040161403291906161d1565b600060405180830381600087803b15801561404d5760006000fd5b505af1158015614062573d600060003e3d6000fd5b5050505086600c60006101000a81548173ffffffffffffffffffffffffffffffffffffffff021916908373ffffffffffffffffffffffffffffffffffffffff160217905550600f60009054906101000a900473ffffffffffffffffffffffffffffffffffffffff1673ffffffffffffffffffffffffffffffffffffffff16632c388d5d600c60009054906101000a900473ffffffffffffffffffffffffffffffffffffffff166040518263ffffffff1660e01b815260040161412491906161d1565b600060405180830381600087803b15801561413f5760006000fd5b505af1158015614154573d600060003e3d6000fd5b5050505085600d60006101000a81548173ffffffffffffffffffffffffffffffffffffffff021916908373ffffffffffffffffffffffffffffffffffffffff160217905550600f60009054906101000a900473ffffffffffffffffffffffffffffffffffffffff1673ffffffffffffffffffffffffffffffffffffffff16632c388d5d600d60009054906101000a900473ffffffffffffffffffffffffffffffffffffffff166040518263ffffffff1660e01b815260040161421691906161d1565b600060405180830381600087803b1580156142315760006000fd5b505af1158015614246573d600060003e3d6000fd5b5050505083600e60006101000a81548173ffffffffffffffffffffffffffffffffffffffff021916908373ffffffffffffffffffffffffffffffffffffffff160217905550600f60009054906101000a900473ffffffffffffffffffffffffffffffffffffffff1673ffffffffffffffffffffffffffffffffffffffff16632c388d5d600e60009054906101000a900473ffffffffffffffffffffffffffffffffffffffff166040518263ffffffff1660e01b815260040161430891906161d1565b600060405180830381600087803b1580156143235760006000fd5b505af1158015614338573d600060003e3d6000fd5b5050505084601060006101000a81548173ffffffffffffffffffffffffffffffffffffffff021916908373ffffffffffffffffffffffffffffffffffffffff160217905550600f60009054906101000a900473ffffffffffffffffffffffffffffffffffffffff1673ffffffffffffffffffffffffffffffffffffffff16632c388d5d601060009054906101000a900473ffffffffffffffffffffffffffffffffffffffff166040518263ffffffff1660e01b81526004016143fa91906161d1565b600060405180830381600087803b1580156144155760006000fd5b505af115801561442a573d600060003e3d6000fd5b5050505081601160006101000a81548173ffffffffffffffffffffffffffffffffffffffff021916908373ffffffffffffffffffffffffffffffffffffffff160217905550600f60009054906101000a900473ffffffffffffffffffffffffffffffffffffffff1673ffffffffffffffffffffffffffffffffffffffff16632c388d5d601160009054906101000a900473ffffffffffffffffffffffffffffffffffffffff166040518263ffffffff1660e01b81526004016144ec91906161d1565b600060405180830381600087803b1580156145075760006000fd5b505af115801561451c573d600060003e3d6000fd5b5050505080601260006101000a81548173ffffffffffffffffffffffffffffffffffffffff021916908373ffffffffffffffffffffffffffffffffffffffff160217905550600f60009054906101000a900473ffffffffffffffffffffffffffffffffffffffff1673ffffffffffffffffffffffffffffffffffffffff16632c388d5d601260009054906101000a900473ffffffffffffffffffffffffffffffffffffffff166040518263ffffffff1660e01b81526004016145de91906161d1565b600060405180830381600087803b1580156145f95760006000fd5b505af115801561460e573d600060003e3d6000fd5b5050505060016014600050600063232948ea60e01b7bffffffffffffffffffffffffffffffffffffffffffffffffffffffff19167bffffffffffffffffffffffffffffffffffffffffffffffffffffffff1916815260200190815260200160002060006101000a81548160ff02191690831515021790555060016014600050600063b8188c8160e01b7bffffffffffffffffffffffffffffffffffffffffffffffffffffffff19167bffffffffffffffffffffffffffffffffffffffffffffffffffffffff1916815260200190815260200160002060006101000a81548160ff02191690831515021790555060016014600050600063b4b6882b60e01b7bffffffffffffffffffffffffffffffffffffffffffffffffffffffff19167bffffffffffffffffffffffffffffffffffffffffffffffffffffffff1916815260200190815260200160002060006101000a81548160ff0219169083151502179055505b505050505050505050565b6002600060005054141515156147fb576040517f08c379a000000000000000000000000000000000000000000000000000000000815260040180806020018281038252601f8152602001807f5265656e7472616e637947756172643a207265656e7472616e742063616c6c0081526020015060200191505060405180910390fd5b6002600060005081909090555060003390506000600260005060008373ffffffffffffffffffffffffffffffffffffffff1673ffffffffffffffffffffffffffffffffffffffff16815260200190815260200160002060005054905060008111151561489c576040517f08c379a0000000000000000000000000000000000000000000000000000000008152600401614893906165d1565b60405180910390fd5b6000600260005060008473ffffffffffffffffffffffffffffffffffffffff1673ffffffffffffffffffffffffffffffffffffffff16815260200190815260200160002060005081909090555061493f600760009054906101000a900473ffffffffffffffffffffffffffffffffffffffff16600a60009054906101000a900473ffffffffffffffffffffffffffffffffffffffff16848461531563ffffffff16565b61494d61554063ffffffff16565b8173ffffffffffffffffffffffffffffffffffffffff167fbfaf8d2920f9287ed71a7e47234c2043522ae8ffd246577b929897e0f2b3c07582604051614993919061674b565b60405180910390a250505b600160006000508190909055505b565b670214e8348c4f000081565b600260006000505414151515614a3b576040517f08c379a000000000000000000000000000000000000000000000000000000000815260040180806020018281038252601f8152602001807f5265656e7472616e637947756172643a207265656e7472616e742063616c6c0081526020015060200191505060405180910390fd5b60026000600050819090905550614a853073ffffffffffffffffffffffffffffffffffffffff163373ffffffffffffffffffffffffffffffffffffffff1614614e8d63ffffffff16565b600f60009054906101000a900473ffffffffffffffffffffffffffffffffffffffff1673ffffffffffffffffffffffffffffffffffffffff16634ac8c5ae600d60009054906101000a900473ffffffffffffffffffffffffffffffffffffffff166040518263ffffffff1660e01b8152600401614b0291906161d1565b600060405180830381600087803b158015614b1d5760006000fd5b505af1158015614b32573d600060003e3d6000fd5b50505050600d60009054906101000a900473ffffffffffffffffffffffffffffffffffffffff1673ffffffffffffffffffffffffffffffffffffffff166307da68f56040518163ffffffff1660e01b8152600401600060405180830381600087803b158015614ba15760006000fd5b505af1158015614bb6573d600060003e3d6000fd5b5050505080600d60006101000a81548173ffffffffffffffffffffffffffffffffffffffff021916908373ffffffffffffffffffffffffffffffffffffffff160217905550600f60009054906101000a900473ffffffffffffffffffffffffffffffffffffffff1673ffffffffffffffffffffffffffffffffffffffff16632c388d5d600d60009054906101000a900473ffffffffffffffffffffffffffffffffffffffff166040518263ffffffff1660e01b8152600401614c7891906161d1565b600060405180830381600087803b158015614c935760006000fd5b505af1158015614ca8573d600060003e3d6000fd5b50505050600d60009054906101000a900473ffffffffffffffffffffffffffffffffffffffff1673ffffffffffffffffffffffffffffffffffffffff16604051614cf19061610d565b60405180910390207f2b51ff7c4cc8e6fe1c72e9d9685b7d2a88a5d82ad3a644afbdceb0272c89c1c360405160405180910390a35b5b600160006000508190909055505b50565b60006801000000000000000082101515614dbd576040517f08c379a00000000000000000000000000000000000000000000000000000000081526004018080602001828103825260118152602001807f6d6f7265207468616e203634206269747300000000000000000000000000000081526020015060200191505060405180910390fd5b819050614dc5565b919050565b60008167ffffffffffffffff166102da69021e19e0c9bab240000069152d02c7e14af680000003811515614dfa57fe5b040269152d02c7e14af6800000039050614e0f565b919050565b60007f00000000000000000000000000000000000000000000000000000000000000007f000000000000000000000000000000000000000000000000000000000000000067ffffffffffffffff16614e706156fe63ffffffff16565b67ffffffffffffffff16811515614e8357fe5b0403905080505b90565b801515614ecf576040517f08c379a0000000000000000000000000000000000000000000000000000000008152600401614ec690616592565b60405180910390fd5b5b50565b6000600160089054906101000a900467ffffffffffffffff1667ffffffffffffffff16141515614f38576040517f08c379a0000000000000000000000000000000000000000000000000000000008152600401614f2f9061668e565b60405180910390fd5b600d60009054906101000a900473ffffffffffffffffffffffffffffffffffffffff1673ffffffffffffffffffffffffffffffffffffffff1663a6afed956040518163ffffffff1660e01b8152600401600060405180830381600087803b158015614fa35760006000fd5b505af1158015614fb8573d600060003e3d6000fd5b50505050601160009054906101000a900473ffffffffffffffffffffffffffffffffffffffff1673ffffffffffffffffffffffffffffffffffffffff16631afdbce46040518163ffffffff1660e01b8152600401600060405180830381600087803b1580156150275760006000fd5b505af115801561503c573d600060003e3d6000fd5b5050505061504e6156fe63ffffffff16565b600160086101000a81548167ffffffffffffffff021916908367ffffffffffffffff1602179055507f5a05a29d5ecece2d4f30720adf1a7449fc1ecb9a884a14629d08d3d2257ab90560405160405180910390a15b565b6000818051906020012090506150b6565b919050565b6000828284039150811115151561513d576040517f08c379a000000000000000000000000000000000000000000000000000000000815260040180806020018281038252600d8152602001807f7375622d756e646572666c6f770000000000000000000000000000000000000081526020015060200191505060405180910390fd5b5b92915050565b60006000600160089054906101000a900467ffffffffffffffff1667ffffffffffffffff1611156151785760009050615221565b6000615188614e1463ffffffff16565b90506000601860009054906101000a900467ffffffffffffffff1667ffffffffffffffff1614806151e25750601860009054906101000a900467ffffffffffffffff1667ffffffffffffffff168167ffffffffffffffff16105b156151f1576000915050615221565b615218601860009054906101000a900467ffffffffffffffff16820361524a63ffffffff16565b91505061522156505b90565b600061523f8383670de0b6b3a764000061571963ffffffff16565b905080505b92915050565b60006102da8267ffffffffffffffff1610156152745761526f82614dca63ffffffff16565b615280565b69021e19e0c9bab24000005b9050615287565b919050565b6000828284019150811015151561530e576040517f08c379a000000000000000000000000000000000000000000000000000000000815260040180806020018281038252600c8152602001807f6164642d6f766572666c6f77000000000000000000000000000000000000000081526020015060200191505060405180910390fd5b5b92915050565b600060008573ffffffffffffffffffffffffffffffffffffffff166323b872dd60e01b868686604051602401808473ffffffffffffffffffffffffffffffffffffffff1681526020018373ffffffffffffffffffffffffffffffffffffffff1681526020018281526020019350505050604051602081830303815290604052907bffffffffffffffffffffffffffffffffffffffffffffffffffffffff19166020820180517bffffffffffffffffffffffffffffffffffffffffffffffffffffffff83818316178352505050506040518082805190602001908083835b60208310151561541857805182525b6020820191506020810190506020830392506153f2565b6001836020036101000a0380198251168184511680821785525050505050509050019150506000604051808303816000865af19150503d806000811461547a576040519150601f19603f3d011682016040523d82523d6000602084013e61547f565b606091505b50915091508180156154c057506000815114806154bf57508080602001905160208110156154ad5760006000fd5b81019080805190602001909291905050505b5b1515615537576040517f08c379a00000000000000000000000000000000000000000000000000000000081526004018080602001828103825260038152602001807f535446000000000000000000000000000000000000000000000000000000000081526020015060200191505060405180910390fd5b50505b50505050565b61554e61305b63ffffffff16565b15615592577fffffffffffffffffffffffffffffffffffffffffffffffffffffffffffffffff601660005054141561558d574360166000508190909055505b6155ee565b7fffffffffffffffffffffffffffffffffffffffffffffffffffffffffffffffff6016600050541415156155ed577fffffffffffffffffffffffffffffffffffffffffffffffffffffffffffffffff60166000508190909055505b5b5b565b600061566f7f00000000000000000000000000000000000000000000000000000000000000007f000000000000000000000000000000000000000000000000000000000000000067ffffffffffffffff168467ffffffffffffffff1681151561565657fe5b0467ffffffffffffffff1661581a90919063ffffffff16565b905080505b919050565b60006156f46156bb837f000000000000000000000000000000000000000000000000000000000000000067ffffffffffffffff166158b790919063ffffffff16565b7f000000000000000000000000000000000000000000000000000000000000000067ffffffffffffffff1661595490919063ffffffff16565b905080505b919050565b600061571142614d38909063ffffffff16565b905080505b90565b600060006000600019858709858702925082811083820303915050600081141561575c5760008411151561574d5760006000fd5b83820492508292505050615813565b808411151561576b5760006000fd5b60008486880990508281118203915080830392506000858660000316905080860495508084049350600181826000030401905080830284179350835060006002876003021890508087026002038102905080508087026002038102905080508087026002038102905080508087026002038102905080508087026002038102905080508087026002038102905080508085029550855085955050505050506158135650505050505b9392505050565b60008267ffffffffffffffff1682840391508167ffffffffffffffff16111515156158b0576040517f08c379a000000000000000000000000000000000000000000000000000000000815260040180806020018281038252600d8152602001807f7375622d756e646572666c6f770000000000000000000000000000000000000081526020015060200191505060405180910390fd5b5b92915050565b60008267ffffffffffffffff1682840191508167ffffffffffffffff161015151561594d576040517f08c379a000000000000000000000000000000000000000000000000000000000815260040180806020018281038252600c8152602001807f6164642d6f766572666c6f77000000000000000000000000000000000000000081526020015060200191505060405180910390fd5b5b92915050565b600060008267ffffffffffffffff1614806159a657508267ffffffffffffffff168267ffffffffffffffff1683850292508267ffffffffffffffff1681151561599957fe5b0467ffffffffffffffff16145b1515615a1d576040517f08c379a000000000000000000000000000000000000000000000000000000000815260040180806020018281038252600c8152602001807f6d756c2d6f766572666c6f77000000000000000000000000000000000000000081526020015060200191505060405180910390fd5b5b92915050566167ec565b600067ffffffffffffffff80841115615a3d57fe5b60405160207fffffffffffffffffffffffffffffffffffffffffffffffffffffffffffffffe0601f8701168201018181108382111715615a7957fe5b8060405250809250848152858585011115615a945760006000fd5b8484602083013760006020868301015250505b9392505050565b6000600083601f8401121515615ac2578081fd5b8235905067ffffffffffffffff811115615ada578182fd5b602083019150836020602083028501011115615af65760006000fd5b5b9250929050565b600060208284031215615b0f578081fd5b8135615b1a816167c3565b809150505b92915050565b60006000600060408486031215615b3a578182fd5b8335615b45816167c3565b80935050602084013567ffffffffffffffff80821115615b63578384fd5b818601915086601f8301121515615b78578384fd5b813581811115615b86578485fd5b876020828501011115615b97578485fd5b6020830194508093505050505b9250925092565b60006000600060608486031215615bc0578283fd5b8335615bcb816167c3565b80935050602084013567ffffffffffffffff80821115615be9578384fd5b818601915086601f8301121515615bfe578384fd5b615c0d87833560208501615a28565b93506040860135915080821115615c22578283fd5b50808501905085601f8201121515615c38578182fd5b615c4786823560208401615a28565b9150505b9250925092565b6000600060408385031215615c65578182fd5b8235615c70816167c3565b80925050602083013590505b9250929050565b600060006000600060408587031215615c9a578081fd5b843567ffffffffffffffff80821115615cb1578283fd5b615cbd88838901615aae565b9250809650508194506020870135915080821115615cd9578283fd5b50615ce687828801615aae565b915080935050809150505b92959194509250565b600060208284031215615d0b578081fd5b81357fffffffff00000000000000000000000000000000000000000000000000000000811681141515615d3c578182fd5b809150505b92915050565b600060208284031215615d58578081fd5b8135615d63816167c3565b809150505b92915050565b6000600060006000600060006000600060006101208a8c031215615d90578687fd5b8935615d9b816167c3565b8099505060208a0135615dad816167c3565b8098505060408a0135615dbf816167c3565b8097505060608a0135615dd1816167c3565b8096505060808a0135615de3816167c3565b8095505060a08a0135615df5816167c3565b8094505060c08a0135615e07816167c3565b8093505060e08a0135615e19816167c3565b809250506101008a0135615e2c816167c3565b809150505b9295985092959850929598565b600060208284031215615e4f578081fd5b8135615e5a816167c3565b809150505b92915050565b600060208284031215615e76578081fd5b8135615e81816167c3565b809150505b92915050565b600060208284031215615e9d578081fd5b8135615ea8816167c3565b809150505b92915050565b600060208284031215615ec4578081fd5b8135615ecf816167c3565b809150505b92915050565b600060208284031215615eeb578081fd5b8135615ef6816167c3565b809150505b92915050565b600060208284031215615f12578081fd5b8135615f1d816167c3565b809150505b92915050565b600060208284031215615f39578081fd5b813590505b92915050565b600060208284031215615f55578081fd5b815190505b92915050565b600060208284031215615f71578081fd5b813567ffffffffffffffff811681141515615f8a578182fd5b809150505b92915050565b600060208284031215615fa6578081fd5b815160ff811681141515615fb8578182fd5b809150505b92915050565b60008151808452615fdb81602086016020860161678e565b60207fffffffffffffffffffffffffffffffffffffffffffffffffffffffffffffffe0601f8301168501019150505b92915050565b60007fffffffff0000000000000000000000000000000000000000000000000000000084168252825161604a81600485016020870161678e565b6004818401019150505b9392505050565b6000825161606d81846020870161678e565b8083019150505b92915050565b60007f726577617264730000000000000000000000000000000000000000000000000082526007820190505b919050565b60007f726174657300000000000000000000000000000000000000000000000000000082526005820190505b919050565b60007f736574746c656d656e74000000000000000000000000000000000000000000008252600a820190505b919050565b60007f6d61726b6574000000000000000000000000000000000000000000000000000082526006820190505b919050565b60007f61756374696f6e7300000000000000000000000000000000000000000000000082526008820190505b919050565b60007f6c69717569646174696f6e7300000000000000000000000000000000000000008252600c820190505b919050565b60007f707269636573000000000000000000000000000000000000000000000000000082526006820190505b919050565b600060208201905073ffffffffffffffffffffffffffffffffffffffff831682525b92915050565b600073ffffffffffffffffffffffffffffffffffffffff851682526040602083015282604083015282846060840137806060848401015260607fffffffffffffffffffffffffffffffffffffffffffffffffffffffffffffffe0601f85011683010190505b949350505050565b600073ffffffffffffffffffffffffffffffffffffffff84168252604060208301526162956040830184615fc3565b90505b9392505050565b600060408201905073ffffffffffffffffffffffffffffffffffffffff841682528260208301525b9392505050565b600060208201905082151582525b92915050565b60008315158252604060208301526162fd6040830184615fc3565b90505b9392505050565b600060208201905073ffffffffffffffffffffffffffffffffffffffff831682525b92915050565b600060208201905073ffffffffffffffffffffffffffffffffffffffff831682525b92915050565b600060208201905073ffffffffffffffffffffffffffffffffffffffff831682525b92915050565b600060208201905073ffffffffffffffffffffffffffffffffffffffff831682525b92915050565b600060208201905073ffffffffffffffffffffffffffffffffffffffff831682525b92915050565b600060208201905073ffffffffffffffffffffffffffffffffffffffff831682525b92915050565b600060208201905073ffffffffffffffffffffffffffffffffffffffff831682525b92915050565b600060208201905073ffffffffffffffffffffffffffffffffffffffff831682525b92915050565b600060208201905073ffffffffffffffffffffffffffffffffffffffff831682525b92915050565b600060208201905073ffffffffffffffffffffffffffffffffffffffff831682525b92915050565b600060208201905073ffffffffffffffffffffffffffffffffffffffff831682525b92915050565b600060208201905073ffffffffffffffffffffffffffffffffffffffff831682525b92915050565b600060208201905073ffffffffffffffffffffffffffffffffffffffff831682525b92915050565b600060208201905073ffffffffffffffffffffffffffffffffffffffff831682525b92915050565b60006020825261654a6020830184615fc3565b90505b92915050565b600060208252600e60208301527f6172697479206d69736d6174636800000000000000000000000000000000000060408301526060820190505b919050565b600060208252600e60208301527f4e6f7420417574686f72697a656400000000000000000000000000000000000060408301526060820190505b919050565b600060208252600460208301527f4e6f6f700000000000000000000000000000000000000000000000000000000060408301526060820190505b919050565b600060208252600b60208301527f416c72656164792073657400000000000000000000000000000000000000000060408301526060820190505b919050565b600060208252601760208301527f496e73756666696369656e7420544350204c6f636b656400000000000000000060408301526060820190505b919050565b600060208252601060208301527f416c72656164792073687574646f776e0000000000000000000000000000000060408301526060820190505b919050565b600060208252600c60208301527f4e6f742073687574646f776e000000000000000000000000000000000000000060408301526060820190505b919050565b600060208252600660208301527f4c4f434b4544000000000000000000000000000000000000000000000000000060408301526060820190505b919050565b60006020820190508282525b92915050565b600060208201905067ffffffffffffffff831682525b92915050565b600060208201905060ff831682525b92915050565b60005b838110156167ad5780820151818401525b602081019050616791565b838111156167bc576000848401525b505b505050565b73ffffffffffffffffffffffffffffffffffffffff8116811415156167e85760006000fd5b5b50565bfea2646970667358221220d48d6794446e605e296441b8a6e9b9dbbce5012ebd47cbfab2cb40085f9bd82964736f6c63430007060033",
  "linkReferences": {},
  "deployedLinkReferences": {}
}