{
  "_format": "hh-sol-artifact-1",
  "contractName": "GovernorTestable",
  "sourceName": "contracts/mocks/GovernorTestable.sol",
  "abi": [
    {
      "inputs": [],
      "stateMutability": "nonpayable",
      "type": "constructor"
    },
    {
      "anonymous": false,
      "inputs": [
        {
          "indexed": true,
          "internalType": "address",
          "name": "from",
          "type": "address"
        },
        {
          "indexed": true,
          "internalType": "address",
          "name": "to",
          "type": "address"
        }
      ],
      "name": "AdminUpdated",
      "type": "event"
    },
    {
      "anonymous": false,
      "inputs": [
        {
          "indexed": true,
          "internalType": "string",
          "name": "contractName",
          "type": "string"
        },
        {
          "indexed": true,
          "internalType": "address",
          "name": "contractAddress",
          "type": "address"
        }
      ],
      "name": "ContractUpgraded",
      "type": "event"
    },
    {
      "anonymous": false,
      "inputs": [
        {
          "indexed": false,
          "internalType": "uint64",
          "name": "shutdownTime",
          "type": "uint64"
        }
      ],
      "name": "EmergencyShutdownExecuted",
      "type": "event"
    },
    {
      "anonymous": false,
      "inputs": [
        {
          "indexed": true,
          "internalType": "address",
          "name": "newGovernor",
          "type": "address"
        }
      ],
      "name": "ProtocolUpgraded",
      "type": "event"
    },
    {
      "anonymous": false,
      "inputs": [],
      "name": "ShutdownExecuted",
      "type": "event"
    },
    {
      "anonymous": false,
      "inputs": [
        {
          "indexed": true,
          "internalType": "address",
          "name": "locker",
          "type": "address"
        },
        {
          "indexed": false,
          "internalType": "uint256",
          "name": "count",
          "type": "uint256"
        }
      ],
      "name": "ShutdownTokensLocked",
      "type": "event"
    },
    {
      "anonymous": false,
      "inputs": [
        {
          "indexed": true,
          "internalType": "address",
          "name": "locker",
          "type": "address"
        },
        {
          "indexed": false,
          "internalType": "uint256",
          "name": "count",
          "type": "uint256"
        }
      ],
      "name": "ShutdownTokensUnlocked",
      "type": "event"
    },
    {
      "inputs": [],
      "name": "EMERGENCY_SHUTDOWN_THRESHOLD",
      "outputs": [
        {
          "internalType": "uint256",
          "name": "",
          "type": "uint256"
        }
      ],
      "stateMutability": "view",
      "type": "function"
    },
    {
      "inputs": [],
      "name": "accounting",
      "outputs": [
        {
          "internalType": "contract IAccounting",
          "name": "",
          "type": "address"
        }
      ],
      "stateMutability": "view",
      "type": "function"
    },
    {
      "inputs": [
        {
          "internalType": "contract IUniswapV3Pool",
          "name": "pool",
          "type": "address"
        }
      ],
      "name": "addReferencePoolToProtocol",
      "outputs": [],
      "stateMutability": "nonpayable",
      "type": "function"
    },
    {
      "inputs": [],
      "name": "auctions",
      "outputs": [
        {
          "internalType": "contract IAuctions",
          "name": "",
          "type": "address"
        }
      ],
      "stateMutability": "view",
      "type": "function"
    },
    {
      "inputs": [
        {
          "internalType": "uint64",
          "name": "rewardsPeriod",
          "type": "uint64"
        }
      ],
      "name": "calculateCurrentDailyRewardCount",
      "outputs": [
        {
          "internalType": "uint256",
          "name": "result",
          "type": "uint256"
        }
      ],
      "stateMutability": "pure",
      "type": "function"
    },
    {
      "inputs": [
        {
          "internalType": "uint64",
          "name": "bootsrapPeriod",
          "type": "uint64"
        }
      ],
      "name": "calculateRewardsForBootstrapPeriod",
      "outputs": [
        {
          "internalType": "uint256",
          "name": "result",
          "type": "uint256"
        }
      ],
      "stateMutability": "pure",
      "type": "function"
    },
    {
      "inputs": [],
      "name": "collateralPool",
      "outputs": [
        {
          "internalType": "contract IUniswapV3Pool",
          "name": "",
          "type": "address"
        }
      ],
      "stateMutability": "view",
      "type": "function"
    },
    {
      "inputs": [
        {
          "internalType": "contract IUniswapV3Pool[]",
          "name": "pools",
          "type": "address[]"
        },
        {
          "internalType": "contract IUniswapV3Pool",
          "name": "pool",
          "type": "address"
        }
      ],
      "name": "contains",
      "outputs": [
        {
          "internalType": "bool",
          "name": "",
          "type": "bool"
        }
      ],
      "stateMutability": "pure",
      "type": "function"
    },
    {
      "inputs": [],
      "name": "contractsInitialized",
      "outputs": [
        {
          "internalType": "bool",
          "name": "",
          "type": "bool"
        }
      ],
      "stateMutability": "view",
      "type": "function"
    },
    {
      "inputs": [],
      "name": "currentDailyRewardCount",
      "outputs": [
        {
          "internalType": "uint256",
          "name": "",
          "type": "uint256"
        }
      ],
      "stateMutability": "view",
      "type": "function"
    },
    {
      "inputs": [],
      "name": "currentPeriod",
      "outputs": [
        {
          "internalType": "uint64",
          "name": "period",
          "type": "uint64"
        }
      ],
      "stateMutability": "view",
      "type": "function"
    },
    {
      "inputs": [],
      "name": "currentPhase",
      "outputs": [
        {
          "internalType": "uint8",
          "name": "",
          "type": "uint8"
        }
      ],
      "stateMutability": "view",
      "type": "function"
    },
    {
      "inputs": [],
      "name": "emergencyShutdownThresholdMet",
      "outputs": [
        {
          "internalType": "bool",
          "name": "",
          "type": "bool"
        }
      ],
      "stateMutability": "view",
      "type": "function"
    },
    {
      "inputs": [
        {
          "internalType": "address",
          "name": "",
          "type": "address"
        }
      ],
      "name": "emergencyShutdownTokensLocked",
      "outputs": [
        {
          "internalType": "uint256",
          "name": "",
          "type": "uint256"
        }
      ],
      "stateMutability": "view",
      "type": "function"
    },
    {
      "inputs": [],
      "name": "enforcedDecentralization",
      "outputs": [
        {
          "internalType": "contract IEnforcedDecentralization",
          "name": "",
          "type": "address"
        }
      ],
      "stateMutability": "view",
      "type": "function"
    },
    {
      "inputs": [
        {
          "internalType": "address",
          "name": "target",
          "type": "address"
        },
        {
          "internalType": "string",
          "name": "signature",
          "type": "string"
        },
        {
          "internalType": "bytes",
          "name": "data",
          "type": "bytes"
        }
      ],
      "name": "execute",
      "outputs": [
        {
          "internalType": "bool",
          "name": "success",
          "type": "bool"
        },
        {
          "internalType": "bytes",
          "name": "returnData",
          "type": "bytes"
        }
      ],
      "stateMutability": "nonpayable",
      "type": "function"
    },
    {
      "inputs": [],
      "name": "executeEmergencyShutdown",
      "outputs": [],
      "stateMutability": "nonpayable",
      "type": "function"
    },
    {
      "inputs": [],
      "name": "executeShutdown",
      "outputs": [],
      "stateMutability": "nonpayable",
      "type": "function"
    },
    {
      "inputs": [],
      "name": "firstPeriod",
      "outputs": [
        {
          "internalType": "uint64",
          "name": "",
          "type": "uint64"
        }
      ],
      "stateMutability": "view",
      "type": "function"
    },
    {
      "inputs": [],
      "name": "getReferencePools",
      "outputs": [
        {
          "internalType": "contract IUniswapV3Pool[]",
          "name": "",
          "type": "address[]"
        }
      ],
      "stateMutability": "view",
      "type": "function"
    },
    {
      "inputs": [],
      "name": "hue",
      "outputs": [
        {
          "internalType": "contract IHue",
          "name": "",
          "type": "address"
        }
      ],
      "stateMutability": "view",
      "type": "function"
    },
    {
      "inputs": [],
      "name": "huePositionNFT",
      "outputs": [
        {
          "internalType": "contract IPositionNFT",
          "name": "",
          "type": "address"
        }
      ],
      "stateMutability": "view",
      "type": "function"
    },
    {
      "inputs": [
        {
          "internalType": "contract IAuctions",
          "name": "_auctions",
          "type": "address"
        },
        {
          "internalType": "contract ITCP",
          "name": "_tcp",
          "type": "address"
        },
        {
          "internalType": "contract ILiquidations",
          "name": "_liquidations",
          "type": "address"
        },
        {
          "internalType": "contract IMarket",
          "name": "_market",
          "type": "address"
        },
        {
          "internalType": "contract IRates",
          "name": "_rates",
          "type": "address"
        },
        {
          "internalType": "contract IPrices",
          "name": "_prices",
          "type": "address"
        },
        {
          "internalType": "contract IProtocolLock",
          "name": "_protocolLock",
          "type": "address"
        },
        {
          "internalType": "contract IRewards",
          "name": "_rewards",
          "type": "address"
        },
        {
          "internalType": "contract ISettlement",
          "name": "_settlement",
          "type": "address"
        }
      ],
      "name": "initContracts",
      "outputs": [],
      "stateMutability": "nonpayable",
      "type": "function"
    },
    {
      "inputs": [
        {
          "internalType": "contract IUniswapV3Pool",
          "name": "_protocolPool",
          "type": "address"
        },
        {
          "internalType": "contract IUniswapV3Pool",
          "name": "_collateralPool",
          "type": "address"
        },
        {
          "internalType": "contract IUniswapV3Pool[]",
          "name": "_referencePool",
          "type": "address[]"
        },
        {
          "internalType": "address[]",
          "name": "tokenIncentiveMinters",
          "type": "address[]"
        },
        {
          "internalType": "uint256[]",
          "name": "tokenIncentiveMaximums",
          "type": "uint256[]"
        }
      ],
      "name": "initPools",
      "outputs": [],
      "stateMutability": "nonpayable",
      "type": "function"
    },
    {
      "inputs": [],
      "name": "isShutdown",
      "outputs": [
        {
          "internalType": "bool",
          "name": "",
          "type": "bool"
        }
      ],
      "stateMutability": "view",
      "type": "function"
    },
    {
      "inputs": [],
      "name": "lendHue",
      "outputs": [
        {
          "internalType": "contract ILendHue",
          "name": "",
          "type": "address"
        }
      ],
      "stateMutability": "view",
      "type": "function"
    },
    {
      "inputs": [],
      "name": "liquidations",
      "outputs": [
        {
          "internalType": "contract ILiquidations",
          "name": "",
          "type": "address"
        }
      ],
      "stateMutability": "view",
      "type": "function"
    },
    {
      "inputs": [
        {
          "internalType": "uint256",
          "name": "count",
          "type": "uint256"
        }
      ],
      "name": "lockTokensForEmergencyShutdown",
      "outputs": [],
      "stateMutability": "nonpayable",
      "type": "function"
    },
    {
      "inputs": [],
      "name": "market",
      "outputs": [
        {
          "internalType": "contract IMarket",
          "name": "",
          "type": "address"
        }
      ],
      "stateMutability": "view",
      "type": "function"
    },
    {
      "inputs": [
        {
          "internalType": "address",
          "name": "to",
          "type": "address"
        },
        {
          "internalType": "uint256",
          "name": "count",
          "type": "uint256"
        }
      ],
      "name": "mintIncentive",
      "outputs": [],
      "stateMutability": "nonpayable",
      "type": "function"
    },
    {
      "inputs": [
        {
          "internalType": "address",
          "name": "to",
          "type": "address"
        },
        {
          "internalType": "uint256",
          "name": "count",
          "type": "uint256"
        }
      ],
      "name": "mintTCP",
      "outputs": [],
      "stateMutability": "nonpayable",
      "type": "function"
    },
    {
      "inputs": [],
      "name": "periodLength",
      "outputs": [
        {
          "internalType": "uint64",
          "name": "",
          "type": "uint64"
        }
      ],
      "stateMutability": "view",
      "type": "function"
    },
    {
      "inputs": [
        {
          "internalType": "contract IUniswapV3Pool",
          "name": "",
          "type": "address"
        }
      ],
      "name": "poolRemovalTime",
      "outputs": [
        {
          "internalType": "uint64",
          "name": "",
          "type": "uint64"
        }
      ],
      "stateMutability": "view",
      "type": "function"
    },
    {
      "inputs": [],
      "name": "pricePoolsInitialized",
      "outputs": [
        {
          "internalType": "bool",
          "name": "",
          "type": "bool"
        }
      ],
      "stateMutability": "view",
      "type": "function"
    },
    {
      "inputs": [],
      "name": "prices",
      "outputs": [
        {
          "internalType": "contract IPrices",
          "name": "",
          "type": "address"
        }
      ],
      "stateMutability": "view",
      "type": "function"
    },
    {
      "inputs": [],
      "name": "protocolDeployer",
      "outputs": [
        {
          "internalType": "address",
          "name": "",
          "type": "address"
        }
      ],
      "stateMutability": "view",
      "type": "function"
    },
    {
      "inputs": [],
      "name": "protocolLock",
      "outputs": [
        {
          "internalType": "contract IProtocolLock",
          "name": "",
          "type": "address"
        }
      ],
      "stateMutability": "view",
      "type": "function"
    },
    {
      "inputs": [],
      "name": "protocolPool",
      "outputs": [
        {
          "internalType": "contract IUniswapV3Pool",
          "name": "",
          "type": "address"
        }
      ],
      "stateMutability": "view",
      "type": "function"
    },
    {
      "inputs": [],
      "name": "rates",
      "outputs": [
        {
          "internalType": "contract IRates",
          "name": "",
          "type": "address"
        }
      ],
      "stateMutability": "view",
      "type": "function"
    },
    {
      "inputs": [
        {
          "internalType": "uint256",
          "name": "",
          "type": "uint256"
        }
      ],
      "name": "referencePool",
      "outputs": [
        {
          "internalType": "contract IUniswapV3Pool",
          "name": "",
          "type": "address"
        }
      ],
      "stateMutability": "view",
      "type": "function"
    },
    {
      "inputs": [
        {
          "internalType": "address[]",
          "name": "contracts",
          "type": "address[]"
        }
      ],
      "name": "registerTCPHoldingContracts",
      "outputs": [],
      "stateMutability": "nonpayable",
      "type": "function"
    },
    {
      "inputs": [
        {
          "internalType": "contract IUniswapV3Pool[]",
          "name": "pools",
          "type": "address[]"
        },
        {
          "internalType": "contract IUniswapV3Pool",
          "name": "pool",
          "type": "address"
        }
      ],
      "name": "removePoolFromPools",
      "outputs": [
        {
          "internalType": "contract IUniswapV3Pool[]",
          "name": "",
          "type": "address[]"
        }
      ],
      "stateMutability": "pure",
      "type": "function"
    },
    {
      "inputs": [
        {
          "internalType": "contract IUniswapV3Pool",
          "name": "pool",
          "type": "address"
        }
      ],
      "name": "removeReferencePoolFromProtocol",
      "outputs": [],
      "stateMutability": "nonpayable",
      "type": "function"
    },
    {
      "inputs": [
        {
          "internalType": "address",
          "name": "caller",
          "type": "address"
        }
      ],
      "name": "requireDebtServicesAccess",
      "outputs": [],
      "stateMutability": "view",
      "type": "function"
    },
    {
      "inputs": [
        {
          "internalType": "address",
          "name": "caller",
          "type": "address"
        }
      ],
      "name": "requireHueReservesBurnAccess",
      "outputs": [],
      "stateMutability": "view",
      "type": "function"
    },
    {
      "inputs": [
        {
          "internalType": "address",
          "name": "caller",
          "type": "address"
        }
      ],
      "name": "requireUpdatePositionAccess",
      "outputs": [],
      "stateMutability": "view",
      "type": "function"
    },
    {
      "inputs": [
        {
          "internalType": "address",
          "name": "target",
          "type": "address"
        },
        {
          "internalType": "string",
          "name": "signature",
          "type": "string"
        }
      ],
      "name": "requireValidAction",
      "outputs": [],
      "stateMutability": "view",
      "type": "function"
    },
    {
      "inputs": [],
      "name": "rewards",
      "outputs": [
        {
          "internalType": "contract IRewards",
          "name": "",
          "type": "address"
        }
      ],
      "stateMutability": "view",
      "type": "function"
    },
    {
      "inputs": [
        {
          "internalType": "uint64",
          "name": "phaseOneStartTime",
          "type": "uint64"
        }
      ],
      "name": "setPhaseOneStartTime",
      "outputs": [],
      "stateMutability": "nonpayable",
      "type": "function"
    },
    {
      "inputs": [],
      "name": "settlement",
      "outputs": [
        {
          "internalType": "contract ISettlement",
          "name": "",
          "type": "address"
        }
      ],
      "stateMutability": "view",
      "type": "function"
    },
    {
      "inputs": [],
      "name": "shutdownTime",
      "outputs": [
        {
          "internalType": "uint64",
          "name": "",
          "type": "uint64"
        }
      ],
      "stateMutability": "view",
      "type": "function"
    },
    {
      "inputs": [],
      "name": "tcp",
      "outputs": [
        {
          "internalType": "contract ITCP",
          "name": "",
          "type": "address"
        }
      ],
      "stateMutability": "view",
      "type": "function"
    },
    {
      "inputs": [
        {
          "internalType": "uint256",
          "name": "",
          "type": "uint256"
        }
      ],
      "name": "tcpHoldingContracts",
      "outputs": [
        {
          "internalType": "address",
          "name": "",
          "type": "address"
        }
      ],
      "stateMutability": "view",
      "type": "function"
    },
    {
      "inputs": [],
      "name": "timelock",
      "outputs": [
        {
          "internalType": "address",
          "name": "",
          "type": "address"
        }
      ],
      "stateMutability": "view",
      "type": "function"
    },
    {
      "inputs": [
        {
          "internalType": "address",
          "name": "",
          "type": "address"
        }
      ],
      "name": "tokenIncentiveMinterMaximums",
      "outputs": [
        {
          "internalType": "uint256",
          "name": "",
          "type": "uint256"
        }
      ],
      "stateMutability": "view",
      "type": "function"
    },
    {
      "inputs": [],
      "name": "unlockTokensForEmergencyShutdown",
      "outputs": [],
      "stateMutability": "nonpayable",
      "type": "function"
    },
    {
      "inputs": [
        {
          "internalType": "contract IAuctions",
          "name": "_auctions",
          "type": "address"
        }
      ],
      "name": "upgradeAuctions",
      "outputs": [],
      "stateMutability": "nonpayable",
      "type": "function"
    },
    {
      "inputs": [
        {
          "internalType": "contract ILiquidations",
          "name": "_liquidations",
          "type": "address"
        }
      ],
      "name": "upgradeLiquidations",
      "outputs": [],
      "stateMutability": "nonpayable",
      "type": "function"
    },
    {
      "inputs": [
        {
          "internalType": "contract IMarket",
          "name": "_market",
          "type": "address"
        }
      ],
      "name": "upgradeMarket",
      "outputs": [],
      "stateMutability": "nonpayable",
      "type": "function"
    },
    {
      "inputs": [
        {
          "internalType": "contract IPrices",
          "name": "_prices",
          "type": "address"
        }
      ],
      "name": "upgradePrices",
      "outputs": [],
      "stateMutability": "nonpayable",
      "type": "function"
    },
    {
      "inputs": [
        {
          "internalType": "address",
          "name": "newGovernor",
          "type": "address"
        }
      ],
      "name": "upgradeProtocol",
      "outputs": [],
      "stateMutability": "nonpayable",
      "type": "function"
    },
    {
      "inputs": [
        {
          "internalType": "contract IRates",
          "name": "_rates",
          "type": "address"
        }
      ],
      "name": "upgradeRates",
      "outputs": [],
      "stateMutability": "nonpayable",
      "type": "function"
    },
    {
      "inputs": [
        {
          "internalType": "contract IRewards",
          "name": "_rewards",
          "type": "address"
        }
      ],
      "name": "upgradeRewards",
      "outputs": [],
      "stateMutability": "nonpayable",
      "type": "function"
    },
    {
      "inputs": [
        {
          "internalType": "contract ISettlement",
          "name": "_settlement",
          "type": "address"
        }
      ],
      "name": "upgradeSettlement",
      "outputs": [],
      "stateMutability": "nonpayable",
      "type": "function"
    },
    {
      "inputs": [
        {
          "internalType": "bytes4",
          "name": "",
          "type": "bytes4"
        }
      ],
      "name": "validUpdate",
      "outputs": [
        {
          "internalType": "bool",
          "name": "",
          "type": "bool"
        }
      ],
      "stateMutability": "view",
      "type": "function"
    }
  ],
  "bytecode": "0x60c06040527fffffffffffffffffffffffffffffffffffffffffffffffffffffffffffffffff601a6000509090556001601c600050909055348015620000455760006000fd5b505b61dead61dead61dead61dead61dead61dead5b5b620151805b60018167ffffffffffffffff166200007d620002bb60201b60201c565b67ffffffffffffffff168115156200009157fe5b040367ffffffffffffffff1660a08167ffffffffffffffff1660c01b815260080150508067ffffffffffffffff1660808167ffffffffffffffff1660c01b815260080150505b50600160006000508190909055505b33601960006101000a81548173ffffffffffffffffffffffffffffffffffffffff021916908373ffffffffffffffffffffffffffffffffffffffff16021790555085600760006101000a81548173ffffffffffffffffffffffffffffffffffffffff021916908373ffffffffffffffffffffffffffffffffffffffff16021790555084600b60006101000a81548173ffffffffffffffffffffffffffffffffffffffff021916908373ffffffffffffffffffffffffffffffffffffffff16021790555083600c60006101000a81548173ffffffffffffffffffffffffffffffffffffffff021916908373ffffffffffffffffffffffffffffffffffffffff16021790555082600e60006101000a81548173ffffffffffffffffffffffffffffffffffffffff021916908373ffffffffffffffffffffffffffffffffffffffff16021790555081600d60006101000a81548173ffffffffffffffffffffffffffffffffffffffff021916908373ffffffffffffffffffffffffffffffffffffffff16021790555080601660006101000a81548173ffffffffffffffffffffffffffffffffffffffff021916908373ffffffffffffffffffffffffffffffffffffffff1602179055505b5050505050505b62000371565b6000620002d542620002dd60201b62005e7617909060201c565b905080505b90565b6000680100000000000000008210151562000363576040517f08c379a00000000000000000000000000000000000000000000000000000000081526004018080602001828103825260118152602001807f6d6f7265207468616e203634206269747300000000000000000000000000000081526020015060200191505060405180910390fd5b8190506200036c565b919050565b60805160c01c60a05160c01c618025620003b9600039806143f15280615f56528061681652806168a25250806146be5280615f77528061683752806168db52506180256000f3fe60806040523480156100115760006000fd5b50600436106103f05760003560e01c806388a4bfb71161021b578063cb9b7b7f11610136578063da9ee0ed116100c9578063f3b07da811610098578063fe4772771161007d578063fe47727714610b9d578063ff0eccf614610bbb578063ff26df7214610bd9576103f0565b8063f3b07da814610b77578063f6fbc19214610b93576103f0565b8063da9ee0ed14610adf578063de69465814610b0f578063e97a99b614610b3f578063ef7a7cfa14610b5b576103f0565b8063d33219b411610105578063d33219b414610a67578063d3419bf314610a85578063d478b08714610aa3578063d4f986d714610ac1576103f0565b8063cb9b7b7f146109f1578063ce49968214610a21578063d0d8ab9a14610a3f578063d2ca211514610a49576103f0565b8063a89f51ae116101ae578063bf5d5ae31161017d578063bf5d5ae314610967578063bf86d69014610997578063c375e6ed146109b5578063c4e3a63b146109d3576103f0565b8063a89f51ae146108f3578063ab658be214610911578063b8188c811461092f578063b971dc051461094b576103f0565b80639a371c84116101ea5780639a371c841461087f5780639ec5a8941461089d578063a1c1f90d146108bb578063a43c36af146108d7576103f0565b806388a4bfb71461080d5780638f40b82f146108295780639622cd8f146108455780639624e83e14610861576103f0565b80634b414e321161030b5780637c114fed1161029e578063827015c31161026d578063827015c31461079957806383208f53146107b55780638396cf69146107d157806385aa6103146107ef576103f0565b80637c114fed1461072757806380304d091461074357806380b5c6651461075f57806380f556051461077b576103f0565b80635f87277b116102da5780635f87277b146106a3578063685a1cd6146106d35780636db4f01f146106ef578063734875a81461070b576103f0565b80634b414e321461062d5780634cd7a3151461064b57806351160630146106675780635856908114610685576103f0565b80632cae02691161038357806336fc02f41161035257806336fc02f4146105915780633da80d66146105af5780633f88b0c5146105df57806343f48fbd1461060f576103f0565b80632cae0269146105065780633237417414610524578063330c093c1461054257806333daf5d414610560576103f0565b806311b7c691116103bf57806311b7c6911461049257806317424a44146104b0578063232948ea146104e057806324cc8fbb146104ea576103f0565b80630132ebc0146103f6578063055ad42e146104265780630604061814610444578063113cf1ab14610462576103f0565b60006000fd5b610410600480360381019061040b9190617570565b610bf5565b60405161041d9190617f22565b60405180910390f35b61042e610c10565b60405161043b9190617f50565b60405180910390f35b61044c610cbe565b6040516104599190617f34565b60405180910390f35b61047c60048036038101906104779190617214565b610cd6565b6040516104899190617942565b60405180910390f35b61049a610cfb565b6040516104a79190617942565b60405180910390f35b6104ca60048036038101906104c59190617442565b610d0e565b6040516104d79190617f34565b60405180910390f35b6104e8610d3a565b005b61050460048036038101906104ff9190617469565b610e25565b005b61050e61157e565b60405161051b9190617a1b565b60405180910390f35b61052c6115a4565b60405161053991906179f3565b60405180910390f35b61054a6115ca565b60405161055791906177e1565b60405180910390f35b61057a6004803603810190610575919061702b565b6115f0565b604051610588929190617956565b60405180910390f35b610599611835565b6040516105a69190617b83565b60405180910390f35b6105c960048036038101906105c4919061714a565b61185b565b6040516105d69190617942565b60405180910390f35b6105f960048036038101906105f49190616f57565b61187a565b6040516106069190617f22565b60405180910390f35b610617611895565b6040516106249190617b0b565b60405180910390f35b6106356118bb565b60405161064291906179cb565b60405180910390f35b610665600480360381019061066091906170d2565b6118e1565b005b61066f611ab6565b60405161067c9190617b5b565b60405180910390f35b61068d611adc565b60405161069a9190617f34565b60405180910390f35b6106bd60048036038101906106b89190616f57565b611af6565b6040516106ca9190617f22565b60405180910390f35b6106ed60048036038101906106e89190617442565b611b11565b005b61070960048036038101906107049190617103565b61216c565b005b61072560048036038101906107209190616f57565b6121e6565b005b610741600480360381019061073c9190616f57565b6122a1565b005b61075d600480360381019061075891906173f4565b6123b4565b005b61077960048036038101906107749190616f57565b6127e3565b005b6107836129f8565b6040516107909190617a6b565b60405180910390f35b6107b360048036038101906107ae9190617442565b612a1e565b005b6107cf60048036038101906107ca91906173a6565b612d8f565b005b6107d961310d565b6040516107e69190617bab565b60405180910390f35b6107f7613133565b60405161080491906179a3565b60405180910390f35b61082760048036038101906108229190617538565b613159565b005b610843600480360381019061083e919061741b565b613399565b005b61085f600480360381019061085a9190616f57565b613717565b005b6108696137d2565b604051610876919061797b565b60405180910390f35b6108876137f8565b6040516108949190617a43565b60405180910390f35b6108a561381e565b6040516108b29190617b33565b60405180910390f35b6108d560048036038101906108d091906173cd565b613844565b005b6108f160048036038101906108ec9190616fa5565b613bc2565b005b6108fb613c59565b6040516109089190617a93565b60405180910390f35b610919613c7f565b60405161092691906178de565b60405180910390f35b61094960048036038101906109449190617570565b613d15565b005b61096560048036038101906109609190617358565b613f42565b005b610981600480360381019061097c919061714a565b6142c0565b60405161098e91906178de565b60405180910390f35b61099f6142df565b6040516109ac9190617942565b60405180910390f35b6109bd61430f565b6040516109ca9190617f22565b60405180910390f35b6109db6143ef565b6040516109e89190617f34565b60405180910390f35b610a0b6004803603810190610a069190617570565b614413565b604051610a189190617f22565b60405180910390f35b610a2961442e565b604051610a369190617942565b60405180910390f35b610a476145c6565b005b610a516146bc565b604051610a5e9190617f34565b60405180910390f35b610a6f6146e0565b604051610a7c91906177e1565b60405180910390f35b610a8d614706565b604051610a9a9190617abb565b60405180910390f35b610aab61472c565b604051610ab89190617ae3565b60405180910390f35b610ac9614752565b604051610ad69190617942565b60405180910390f35b610af96004803603810190610af49190617538565b614765565b604051610b069190617bab565b60405180910390f35b610b296004803603810190610b249190617538565b6147ab565b604051610b3691906177e1565b60405180910390f35b610b596004803603810190610b549190617261565b6147f1565b005b610b756004803603810190610b7091906170d2565b614c2b565b005b610b916004803603810190610b8c9190617288565b614ec4565b005b610b9b615892565b005b610ba5615ac6565b604051610bb29190617f22565b60405180910390f35b610bc3615ad2565b604051610bd09190617bab565b60405180910390f35b610bf36004803603810190610bee919061737f565b615af8565b005b6000610c0682615f0863ffffffff16565b905080505b919050565b6000600d60009054906101000a900473ffffffffffffffffffffffffffffffffffffffff1673ffffffffffffffffffffffffffffffffffffffff1663055ad42e6040518163ffffffff1660e01b815260040160206040518083038186803b158015610c7b5760006000fd5b505afa158015610c90573d600060003e3d6000fd5b505050506040513d601f19601f82011682018060405250810190610cb491906175a5565b9050610cbb565b90565b6000610cce615f5263ffffffff16565b905080505b90565b601860005060205280600052604060002060009150909054906101000a900460ff1681565b601960159054906101000a900460ff1681565b601b60005060205280600052604060002060009150909054906101000a900467ffffffffffffffff1681565b600260006000505414151515610dbb576040517f08c379a000000000000000000000000000000000000000000000000000000000815260040180806020018281038252601f8152602001807f5265656e7472616e637947756172643a207265656e7472616e742063616c6c0081526020015060200191505060405180910390fd5b60026000600050819090905550610e053073ffffffffffffffffffffffffffffffffffffffff163373ffffffffffffffffffffffffffffffffffffffff1614615fcb63ffffffff16565b610e1361601163ffffffff16565b5b5b600160006000508190909055505b565b610e84601960009054906101000a900473ffffffffffffffffffffffffffffffffffffffff1673ffffffffffffffffffffffffffffffffffffffff163373ffffffffffffffffffffffffffffffffffffffff1614615fcb63ffffffff16565b601960149054906101000a900460ff168015610ead5750601960159054906101000a900460ff16155b1515610eb95760006000fd5b6001601960156101000a81548160ff021916908315150217905550601960006101000a81549073ffffffffffffffffffffffffffffffffffffffff021916905587600460006101000a81548173ffffffffffffffffffffffffffffffffffffffff021916908373ffffffffffffffffffffffffffffffffffffffff16021790555086600560006101000a81548173ffffffffffffffffffffffffffffffffffffffff021916908373ffffffffffffffffffffffffffffffffffffffff160217905550858560066000509190610f8f929190616c8f565b50601460009054906101000a900473ffffffffffffffffffffffffffffffffffffffff1673ffffffffffffffffffffffffffffffffffffffff16638aea8f716040518163ffffffff1660e01b8152600401600060405180830381600087803b158015610ffb5760006000fd5b505af1158015611010573d600060003e3d6000fd5b50505050601160009054906101000a900473ffffffffffffffffffffffffffffffffffffffff1673ffffffffffffffffffffffffffffffffffffffff16638aea8f716040518163ffffffff1660e01b8152600401600060405180830381600087803b15801561107f5760006000fd5b505af1158015611094573d600060003e3d6000fd5b50505050601360009054906101000a900473ffffffffffffffffffffffffffffffffffffffff1673ffffffffffffffffffffffffffffffffffffffff16638aea8f716040518163ffffffff1660e01b8152600401600060405180830381600087803b1580156111035760006000fd5b505af1158015611118573d600060003e3d6000fd5b50505050600f60009054906101000a900473ffffffffffffffffffffffffffffffffffffffff1673ffffffffffffffffffffffffffffffffffffffff16638aea8f716040518163ffffffff1660e01b8152600401600060405180830381600087803b1580156111875760006000fd5b505af115801561119c573d600060003e3d6000fd5b50505050600860009054906101000a900473ffffffffffffffffffffffffffffffffffffffff1673ffffffffffffffffffffffffffffffffffffffff16638aea8f716040518163ffffffff1660e01b8152600401600060405180830381600087803b15801561120b5760006000fd5b505af1158015611220573d600060003e3d6000fd5b50505050601060009054906101000a900473ffffffffffffffffffffffffffffffffffffffff1673ffffffffffffffffffffffffffffffffffffffff16638aea8f716040518163ffffffff1660e01b8152600401600060405180830381600087803b15801561128f5760006000fd5b505af11580156112a4573d600060003e3d6000fd5b505050506000604051806080016040528063685a1cd660e01b7bffffffffffffffffffffffffffffffffffffffffffffffffffffffff19167bffffffffffffffffffffffffffffffffffffffffffffffffffffffff1916815260200163827015c360e01b7bffffffffffffffffffffffffffffffffffffffffffffffffffffffff19167bffffffffffffffffffffffffffffffffffffffffffffffffffffffff1916815260200163232948ea60e01b7bffffffffffffffffffffffffffffffffffffffffffffffffffffffff19167bffffffffffffffffffffffffffffffffffffffffffffffffffffffff1916815260200163b8188c8160e01b7bffffffffffffffffffffffffffffffffffffffffffffffffffffffff19167bffffffffffffffffffffffffffffffffffffffffffffffffffffffff191681526020015090506000600090505b8150600481101561148357600160186000506000848460048110151561140d57fe5b60200201517bffffffffffffffffffffffffffffffffffffffffffffffffffffffff19167bffffffffffffffffffffffffffffffffffffffffffffffffffffffff1916815260200190815260200160002060006101000a81548160ff0219169083151502179055505b80806001019150506113eb565b5082829050858590501415156114ce576040517f08c379a00000000000000000000000000000000000000000000000000000000081526004016114c590617bef565b60405180910390fd5b6000600090505b858590508110156115705783838281811015156114ee57fe5b9050602002013560036000506000888885818110151561150a57fe5b905060200201602081019061151f9190616f57565b73ffffffffffffffffffffffffffffffffffffffff1673ffffffffffffffffffffffffffffffffffffffff1681526020019081526020016000206000508190909055505b80806001019150506114d5565b50505b5b5050505050505050565b600e60009054906101000a900473ffffffffffffffffffffffffffffffffffffffff1681565b600b60009054906101000a900473ffffffffffffffffffffffffffffffffffffffff1681565b601960009054906101000a900473ffffffffffffffffffffffffffffffffffffffff1681565b600060606001601c6000505414151561163e576040517f08c379a000000000000000000000000000000000000000000000000000000000815260040161163590617ee3565b60405180910390fd5b6000601c6000508190909055506116aa601660009054906101000a900473ffffffffffffffffffffffffffffffffffffffff1673ffffffffffffffffffffffffffffffffffffffff163373ffffffffffffffffffffffffffffffffffffffff1614615fcb63ffffffff16565b600d60009054906101000a900473ffffffffffffffffffffffffffffffffffffffff1673ffffffffffffffffffffffffffffffffffffffff1663a43c36af86866040518363ffffffff1660e01b8152600401611707929190617876565b60006040518083038186803b1580156117205760006000fd5b505afa158015611735573d600060003e3d6000fd5b505050508473ffffffffffffffffffffffffffffffffffffffff1661175f856161e363ffffffff16565b84604051602001611771929190617620565b60405160208183030381529060405260405161178d919061766b565b6000604051808303816000865af19150503d80600081146117ca576040519150601f19603f3d011682016040523d82523d6000602084013e6117cf565b606091505b508092508193505050818190151561181d576040517f08c379a00000000000000000000000000000000000000000000000000000000081526004016118149190617bd3565b60405180910390fd5b505b6001601c6000508190909055505b935093915050565b600a60009054906101000a900473ffffffffffffffffffffffffffffffffffffffff1681565b600061186d83836161f963ffffffff16565b9050611874565b92915050565b60026000506020528060005260406000206000915090505481565b601360009054906101000a900473ffffffffffffffffffffffffffffffffffffffff1681565b600d60009054906101000a900473ffffffffffffffffffffffffffffffffffffffff1681565b600260006000505414151515611962576040517f08c379a000000000000000000000000000000000000000000000000000000000815260040180806020018281038252601f8152602001807f5265656e7472616e637947756172643a207265656e7472616e742063616c6c0081526020015060200191505060405180910390fd5b600260006000508190909055506119c781600360005060003373ffffffffffffffffffffffffffffffffffffffff1673ffffffffffffffffffffffffffffffffffffffff1681526020019081526020016000206000505461627c90919063ffffffff16565b600360005060003373ffffffffffffffffffffffffffffffffffffffff1673ffffffffffffffffffffffffffffffffffffffff168152602001908152602001600020600050819090905550600a60009054906101000a900473ffffffffffffffffffffffffffffffffffffffff1673ffffffffffffffffffffffffffffffffffffffff1663449a52f883836040518363ffffffff1660e01b8152600401611a6f9291906178af565b600060405180830381600087803b158015611a8a5760006000fd5b505af1158015611a9f573d600060003e3d6000fd5b505050505b600160006000508190909055505b5050565b601560009054906101000a900473ffffffffffffffffffffffffffffffffffffffff1681565b600160009054906101000a900467ffffffffffffffff1681565b60036000506020528060005260406000206000915090505481565b600260006000505414151515611b92576040517f08c379a000000000000000000000000000000000000000000000000000000000815260040180806020018281038252601f8152602001807f5265656e7472616e637947756172643a207265656e7472616e742063616c6c0081526020015060200191505060405180910390fd5b60026000600050819090905550611bdc3073ffffffffffffffffffffffffffffffffffffffff163373ffffffffffffffffffffffffffffffffffffffff1614615fcb63ffffffff16565b611c756006600050805480602002602001604051908101604052809291908181526020018280548015611c6457602002820191906000526020600020905b8160009054906101000a900473ffffffffffffffffffffffffffffffffffffffff1673ffffffffffffffffffffffffffffffffffffffff1681526020019060010190808311611c1a575b5050505050826161f963ffffffff16565b151515611cb7576040517f08c379a0000000000000000000000000000000000000000000000000000000008152600401611cae90617de7565b60405180910390fd5b6000601b60005060008373ffffffffffffffffffffffffffffffffffffffff1673ffffffffffffffffffffffffffffffffffffffff16815260200190815260200160002060009054906101000a900467ffffffffffffffff1667ffffffffffffffff16141515611d5c576040517f08c379a0000000000000000000000000000000000000000000000000000000008152600401611d5390617cac565b60405180910390fd5b600b60009054906101000a900473ffffffffffffffffffffffffffffffffffffffff1673ffffffffffffffffffffffffffffffffffffffff168173ffffffffffffffffffffffffffffffffffffffff16630dfe16816040518163ffffffff1660e01b815260040160206040518083038186803b158015611ddc5760006000fd5b505afa158015611df1573d600060003e3d6000fd5b505050506040513d601f19601f82011682018060405250810190611e159190616f7e565b73ffffffffffffffffffffffffffffffffffffffff16141515611f4457600b60009054906101000a900473ffffffffffffffffffffffffffffffffffffffff1673ffffffffffffffffffffffffffffffffffffffff168173ffffffffffffffffffffffffffffffffffffffff1663d21220a76040518163ffffffff1660e01b815260040160206040518083038186803b158015611eb25760006000fd5b505afa158015611ec7573d600060003e3d6000fd5b505050506040513d601f19601f82011682018060405250810190611eeb9190616f7e565b73ffffffffffffffffffffffffffffffffffffffff16141515611f43576040517f08c379a0000000000000000000000000000000000000000000000000000000008152600401611f3a90617e26565b60405180910390fd5b5b600660005081908060018154018082558091505060019003906000526020600020900160005b9091909190916101000a81548173ffffffffffffffffffffffffffffffffffffffff021916908373ffffffffffffffffffffffffffffffffffffffff160217905550601360009054906101000a900473ffffffffffffffffffffffffffffffffffffffff1673ffffffffffffffffffffffffffffffffffffffff1663c381c1e6826040518263ffffffff1660e01b81526004016120079190617bab565b600060405180830381600087803b1580156120225760006000fd5b505af1158015612037573d600060003e3d6000fd5b50505050601460009054906101000a900473ffffffffffffffffffffffffffffffffffffffff1673ffffffffffffffffffffffffffffffffffffffff1663c381c1e6826040518263ffffffff1660e01b81526004016120969190617bab565b600060405180830381600087803b1580156120b15760006000fd5b505af11580156120c6573d600060003e3d6000fd5b50505050601160009054906101000a900473ffffffffffffffffffffffffffffffffffffffff1673ffffffffffffffffffffffffffffffffffffffff1663c381c1e6826040518263ffffffff1660e01b81526004016121259190617bab565b600060405180830381600087803b1580156121405760006000fd5b505af1158015612155573d600060003e3d6000fd5b505050505b5b600160006000508190909055505b50565b6121cb601960009054906101000a900473ffffffffffffffffffffffffffffffffffffffff1673ffffffffffffffffffffffffffffffffffffffff163373ffffffffffffffffffffffffffffffffffffffff1614615fcb63ffffffff16565b8181601760005091906121df929190616d2f565b505b5b5050565b61229d601060009054906101000a900473ffffffffffffffffffffffffffffffffffffffff1673ffffffffffffffffffffffffffffffffffffffff168273ffffffffffffffffffffffffffffffffffffffff1614806122925750600f60009054906101000a900473ffffffffffffffffffffffffffffffffffffffff1673ffffffffffffffffffffffffffffffffffffffff168273ffffffffffffffffffffffffffffffffffffffff16145b615fcb63ffffffff16565b5b50565b6123b0601060009054906101000a900473ffffffffffffffffffffffffffffffffffffffff1673ffffffffffffffffffffffffffffffffffffffff168273ffffffffffffffffffffffffffffffffffffffff16148061234d5750600f60009054906101000a900473ffffffffffffffffffffffffffffffffffffffff1673ffffffffffffffffffffffffffffffffffffffff168273ffffffffffffffffffffffffffffffffffffffff16145b806123a55750601560009054906101000a900473ffffffffffffffffffffffffffffffffffffffff1673ffffffffffffffffffffffffffffffffffffffff168273ffffffffffffffffffffffffffffffffffffffff16145b615fcb63ffffffff16565b5b50565b600260006000505414151515612435576040517f08c379a000000000000000000000000000000000000000000000000000000000815260040180806020018281038252601f8152602001807f5265656e7472616e637947756172643a207265656e7472616e742063616c6c0081526020015060200191505060405180910390fd5b6002600060005081909090555061247f3073ffffffffffffffffffffffffffffffffffffffff163373ffffffffffffffffffffffffffffffffffffffff1614615fcb63ffffffff16565b601260009054906101000a900473ffffffffffffffffffffffffffffffffffffffff1673ffffffffffffffffffffffffffffffffffffffff16634ac8c5ae601460009054906101000a900473ffffffffffffffffffffffffffffffffffffffff166040518263ffffffff1660e01b81526004016124fc91906177e1565b600060405180830381600087803b1580156125175760006000fd5b505af115801561252c573d600060003e3d6000fd5b50505050601460009054906101000a900473ffffffffffffffffffffffffffffffffffffffff1673ffffffffffffffffffffffffffffffffffffffff166307da68f56040518163ffffffff1660e01b8152600401600060405180830381600087803b15801561259b5760006000fd5b505af11580156125b0573d600060003e3d6000fd5b5050505080601460006101000a81548173ffffffffffffffffffffffffffffffffffffffff021916908373ffffffffffffffffffffffffffffffffffffffff160217905550601260009054906101000a900473ffffffffffffffffffffffffffffffffffffffff1673ffffffffffffffffffffffffffffffffffffffff16632c388d5d601460009054906101000a900473ffffffffffffffffffffffffffffffffffffffff166040518263ffffffff1660e01b815260040161267291906177e1565b600060405180830381600087803b15801561268d5760006000fd5b505af11580156126a2573d600060003e3d6000fd5b50505050600760009054906101000a900473ffffffffffffffffffffffffffffffffffffffff1673ffffffffffffffffffffffffffffffffffffffff1663a678f336601460009054906101000a900473ffffffffffffffffffffffffffffffffffffffff166040518263ffffffff1660e01b815260040161272391906177e1565b600060405180830381600087803b15801561273e5760006000fd5b505af1158015612753573d600060003e3d6000fd5b50505050601460009054906101000a900473ffffffffffffffffffffffffffffffffffffffff1673ffffffffffffffffffffffffffffffffffffffff1660405161279c9061768a565b60405180910390207f2b51ff7c4cc8e6fe1c72e9d9685b7d2a88a5d82ad3a644afbdceb0272c89c1c360405160405180910390a35b5b600160006000508190909055505b50565b600260006000505414151515612864576040517f08c379a000000000000000000000000000000000000000000000000000000000815260040180806020018281038252601f8152602001807f5265656e7472616e637947756172643a207265656e7472616e742063616c6c0081526020015060200191505060405180910390fd5b600260006000508190909055506128ae3073ffffffffffffffffffffffffffffffffffffffff163373ffffffffffffffffffffffffffffffffffffffff1614615fcb63ffffffff16565b6000600160009054906101000a900467ffffffffffffffff1667ffffffffffffffff16111515612913576040517f08c379a000000000000000000000000000000000000000000000000000000000815260040161290a90617ea4565b60405180910390fd5b600a60009054906101000a900473ffffffffffffffffffffffffffffffffffffffff1673ffffffffffffffffffffffffffffffffffffffff16633c4a25d0826040518263ffffffff1660e01b815260040161296e91906177e1565b600060405180830381600087803b1580156129895760006000fd5b505af115801561299e573d600060003e3d6000fd5b505050508073ffffffffffffffffffffffffffffffffffffffff167f078ca541eec5b410213fc65330fc5a7324eb56fe692344e7bc1b8be56bd3c16960405160405180910390a25b5b600160006000508190909055505b50565b601060009054906101000a900473ffffffffffffffffffffffffffffffffffffffff1681565b600260006000505414151515612a9f576040517f08c379a000000000000000000000000000000000000000000000000000000000815260040180806020018281038252601f8152602001807f5265656e7472616e637947756172643a207265656e7472616e742063616c6c0081526020015060200191505060405180910390fd5b60026000600050819090905550612ae93073ffffffffffffffffffffffffffffffffffffffff163373ffffffffffffffffffffffffffffffffffffffff1614615fcb63ffffffff16565b6001600660005080549050111515612b36576040517f08c379a0000000000000000000000000000000000000000000000000000000008152600401612b2d90617d69565b60405180910390fd5b612b4461630563ffffffff16565b601b60005060008373ffffffffffffffffffffffffffffffffffffffff1673ffffffffffffffffffffffffffffffffffffffff16815260200190815260200160002060006101000a81548167ffffffffffffffff021916908367ffffffffffffffff160217905550612c456006600050805480602002602001604051908101604052809291908181526020018280548015612c3457602002820191906000526020600020905b8160009054906101000a900473ffffffffffffffffffffffffffffffffffffffff1673ffffffffffffffffffffffffffffffffffffffff1681526020019060010190808311612bea575b50505050508261632063ffffffff16565b60066000509080519060200190612c5d929190616dcf565b50601360009054906101000a900473ffffffffffffffffffffffffffffffffffffffff1673ffffffffffffffffffffffffffffffffffffffff1663150147d7826040518263ffffffff1660e01b8152600401612cb99190617bab565b600060405180830381600087803b158015612cd45760006000fd5b505af1158015612ce9573d600060003e3d6000fd5b50505050601460009054906101000a900473ffffffffffffffffffffffffffffffffffffffff1673ffffffffffffffffffffffffffffffffffffffff1663150147d7826040518263ffffffff1660e01b8152600401612d489190617bab565b600060405180830381600087803b158015612d635760006000fd5b505af1158015612d78573d600060003e3d6000fd5b505050505b5b600160006000508190909055505b50565b600260006000505414151515612e10576040517f08c379a000000000000000000000000000000000000000000000000000000000815260040180806020018281038252601f8152602001807f5265656e7472616e637947756172643a207265656e7472616e742063616c6c0081526020015060200191505060405180910390fd5b60026000600050819090905550612e5a3073ffffffffffffffffffffffffffffffffffffffff163373ffffffffffffffffffffffffffffffffffffffff1614615fcb63ffffffff16565b601260009054906101000a900473ffffffffffffffffffffffffffffffffffffffff1673ffffffffffffffffffffffffffffffffffffffff16634ac8c5ae601160009054906101000a900473ffffffffffffffffffffffffffffffffffffffff166040518263ffffffff1660e01b8152600401612ed791906177e1565b600060405180830381600087803b158015612ef25760006000fd5b505af1158015612f07573d600060003e3d6000fd5b50505050601160009054906101000a900473ffffffffffffffffffffffffffffffffffffffff1673ffffffffffffffffffffffffffffffffffffffff166307da68f56040518163ffffffff1660e01b8152600401600060405180830381600087803b158015612f765760006000fd5b505af1158015612f8b573d600060003e3d6000fd5b5050505080601160006101000a81548173ffffffffffffffffffffffffffffffffffffffff021916908373ffffffffffffffffffffffffffffffffffffffff160217905550601260009054906101000a900473ffffffffffffffffffffffffffffffffffffffff1673ffffffffffffffffffffffffffffffffffffffff16632c388d5d601160009054906101000a900473ffffffffffffffffffffffffffffffffffffffff166040518263ffffffff1660e01b815260040161304d91906177e1565b600060405180830381600087803b1580156130685760006000fd5b505af115801561307d573d600060003e3d6000fd5b50505050601160009054906101000a900473ffffffffffffffffffffffffffffffffffffffff1673ffffffffffffffffffffffffffffffffffffffff166040516130c6906177b0565b60405180910390207f2b51ff7c4cc8e6fe1c72e9d9685b7d2a88a5d82ad3a644afbdceb0272c89c1c360405160405180910390a35b5b600160006000508190909055505b50565b600460009054906101000a900473ffffffffffffffffffffffffffffffffffffffff1681565b600860009054906101000a900473ffffffffffffffffffffffffffffffffffffffff1681565b6002600060005054141515156131da576040517f08c379a000000000000000000000000000000000000000000000000000000000815260040180806020018281038252601f8152602001807f5265656e7472616e637947756172643a207265656e7472616e742063616c6c0081526020015060200191505060405180910390fd5b600260006000508190909055506000339050600082111515613231576040517f08c379a000000000000000000000000000000000000000000000000000000000815260040161322890617ceb565b60405180910390fd5b61328982600260005060008473ffffffffffffffffffffffffffffffffffffffff1673ffffffffffffffffffffffffffffffffffffffff168152602001908152602001600020600050546164aa90919063ffffffff16565b600260005060008373ffffffffffffffffffffffffffffffffffffffff1673ffffffffffffffffffffffffffffffffffffffff16815260200190815260200160002060005081909090555061332a600a60009054906101000a900473ffffffffffffffffffffffffffffffffffffffff1682600d60009054906101000a900473ffffffffffffffffffffffffffffffffffffffff168561653363ffffffff16565b61333861675e63ffffffff16565b8073ffffffffffffffffffffffffffffffffffffffff167f6f076ad9d1927fd5f792070276b90549d2433311ff94fe0d7afba682c150817a8360405161337e9190617f22565b60405180910390a2505b600160006000508190909055505b50565b60026000600050541415151561341a576040517f08c379a000000000000000000000000000000000000000000000000000000000815260040180806020018281038252601f8152602001807f5265656e7472616e637947756172643a207265656e7472616e742063616c6c0081526020015060200191505060405180910390fd5b600260006000508190909055506134643073ffffffffffffffffffffffffffffffffffffffff163373ffffffffffffffffffffffffffffffffffffffff1614615fcb63ffffffff16565b601260009054906101000a900473ffffffffffffffffffffffffffffffffffffffff1673ffffffffffffffffffffffffffffffffffffffff16634ac8c5ae601560009054906101000a900473ffffffffffffffffffffffffffffffffffffffff166040518263ffffffff1660e01b81526004016134e191906177e1565b600060405180830381600087803b1580156134fc5760006000fd5b505af1158015613511573d600060003e3d6000fd5b50505050601560009054906101000a900473ffffffffffffffffffffffffffffffffffffffff1673ffffffffffffffffffffffffffffffffffffffff166307da68f56040518163ffffffff1660e01b8152600401600060405180830381600087803b1580156135805760006000fd5b505af1158015613595573d600060003e3d6000fd5b5050505080601560006101000a81548173ffffffffffffffffffffffffffffffffffffffff021916908373ffffffffffffffffffffffffffffffffffffffff160217905550601260009054906101000a900473ffffffffffffffffffffffffffffffffffffffff1673ffffffffffffffffffffffffffffffffffffffff16632c388d5d601560009054906101000a900473ffffffffffffffffffffffffffffffffffffffff166040518263ffffffff1660e01b815260040161365791906177e1565b600060405180830381600087803b1580156136725760006000fd5b505af1158015613687573d600060003e3d6000fd5b50505050601560009054906101000a900473ffffffffffffffffffffffffffffffffffffffff1673ffffffffffffffffffffffffffffffffffffffff166040516136d0906176ec565b60405180910390207f2b51ff7c4cc8e6fe1c72e9d9685b7d2a88a5d82ad3a644afbdceb0272c89c1c360405160405180910390a35b5b600160006000508190909055505b50565b6137ce600f60009054906101000a900473ffffffffffffffffffffffffffffffffffffffff1673ffffffffffffffffffffffffffffffffffffffff168273ffffffffffffffffffffffffffffffffffffffff1614806137c35750601560009054906101000a900473ffffffffffffffffffffffffffffffffffffffff1673ffffffffffffffffffffffffffffffffffffffff168273ffffffffffffffffffffffffffffffffffffffff16145b615fcb63ffffffff16565b5b50565b600760009054906101000a900473ffffffffffffffffffffffffffffffffffffffff1681565b600f60009054906101000a900473ffffffffffffffffffffffffffffffffffffffff1681565b601460009054906101000a900473ffffffffffffffffffffffffffffffffffffffff1681565b6002600060005054141515156138c5576040517f08c379a000000000000000000000000000000000000000000000000000000000815260040180806020018281038252601f8152602001807f5265656e7472616e637947756172643a207265656e7472616e742063616c6c0081526020015060200191505060405180910390fd5b6002600060005081909090555061390f3073ffffffffffffffffffffffffffffffffffffffff163373ffffffffffffffffffffffffffffffffffffffff1614615fcb63ffffffff16565b601260009054906101000a900473ffffffffffffffffffffffffffffffffffffffff1673ffffffffffffffffffffffffffffffffffffffff16634ac8c5ae601360009054906101000a900473ffffffffffffffffffffffffffffffffffffffff166040518263ffffffff1660e01b815260040161398c91906177e1565b600060405180830381600087803b1580156139a75760006000fd5b505af11580156139bc573d600060003e3d6000fd5b50505050601360009054906101000a900473ffffffffffffffffffffffffffffffffffffffff1673ffffffffffffffffffffffffffffffffffffffff166307da68f56040518163ffffffff1660e01b8152600401600060405180830381600087803b158015613a2b5760006000fd5b505af1158015613a40573d600060003e3d6000fd5b5050505080601360006101000a81548173ffffffffffffffffffffffffffffffffffffffff021916908373ffffffffffffffffffffffffffffffffffffffff160217905550601260009054906101000a900473ffffffffffffffffffffffffffffffffffffffff1673ffffffffffffffffffffffffffffffffffffffff16632c388d5d601360009054906101000a900473ffffffffffffffffffffffffffffffffffffffff166040518263ffffffff1660e01b8152600401613b0291906177e1565b600060405180830381600087803b158015613b1d5760006000fd5b505af1158015613b32573d600060003e3d6000fd5b50505050601360009054906101000a900473ffffffffffffffffffffffffffffffffffffffff1673ffffffffffffffffffffffffffffffffffffffff16604051613b7b906176bb565b60405180910390207f2b51ff7c4cc8e6fe1c72e9d9685b7d2a88a5d82ad3a644afbdceb0272c89c1c360405160405180910390a35b5b600160006000508190909055505b50565b600d60009054906101000a900473ffffffffffffffffffffffffffffffffffffffff1673ffffffffffffffffffffffffffffffffffffffff1663a43c36af8484846040518463ffffffff1660e01b8152600401613c2193929190617809565b60006040518083038186803b158015613c3a5760006000fd5b505afa158015613c4f573d600060003e3d6000fd5b505050505b505050565b600c60009054906101000a900473ffffffffffffffffffffffffffffffffffffffff1681565b60606006600050805480602002602001604051908101604052809291908181526020018280548015613d0657602002820191906000526020600020905b8160009054906101000a900473ffffffffffffffffffffffffffffffffffffffff1673ffffffffffffffffffffffffffffffffffffffff1681526020019060010190808311613cbc575b50505050509050613d12565b90565b600260006000505414151515613d96576040517f08c379a000000000000000000000000000000000000000000000000000000000815260040180806020018281038252601f8152602001807f5265656e7472616e637947756172643a207265656e7472616e742063616c6c0081526020015060200191505060405180910390fd5b60026000600050819090905550613de03073ffffffffffffffffffffffffffffffffffffffff163373ffffffffffffffffffffffffffffffffffffffff1614615fcb63ffffffff16565b6000601d60009054906101000a900467ffffffffffffffff1667ffffffffffffffff16141515613e45576040517f08c379a0000000000000000000000000000000000000000000000000000000008152600401613e3c90617d2a565b60405180910390fd5b613e548161680f63ffffffff16565b601d60006101000a81548167ffffffffffffffff021916908367ffffffffffffffff160217905550600d60009054906101000a900473ffffffffffffffffffffffffffffffffffffffff1673ffffffffffffffffffffffffffffffffffffffff1663b8188c81613edf601d60009054906101000a900467ffffffffffffffff1661689763ffffffff16565b6040518263ffffffff1660e01b8152600401613efb9190617f34565b600060405180830381600087803b158015613f165760006000fd5b505af1158015613f2b573d600060003e3d6000fd5b505050505b5b600160006000508190909055505b50565b600260006000505414151515613fc3576040517f08c379a000000000000000000000000000000000000000000000000000000000815260040180806020018281038252601f8152602001807f5265656e7472616e637947756172643a207265656e7472616e742063616c6c0081526020015060200191505060405180910390fd5b6002600060005081909090555061400d3073ffffffffffffffffffffffffffffffffffffffff163373ffffffffffffffffffffffffffffffffffffffff1614615fcb63ffffffff16565b601260009054906101000a900473ffffffffffffffffffffffffffffffffffffffff1673ffffffffffffffffffffffffffffffffffffffff16634ac8c5ae600f60009054906101000a900473ffffffffffffffffffffffffffffffffffffffff166040518263ffffffff1660e01b815260040161408a91906177e1565b600060405180830381600087803b1580156140a55760006000fd5b505af11580156140ba573d600060003e3d6000fd5b50505050600f60009054906101000a900473ffffffffffffffffffffffffffffffffffffffff1673ffffffffffffffffffffffffffffffffffffffff166307da68f56040518163ffffffff1660e01b8152600401600060405180830381600087803b1580156141295760006000fd5b505af115801561413e573d600060003e3d6000fd5b5050505080600f60006101000a81548173ffffffffffffffffffffffffffffffffffffffff021916908373ffffffffffffffffffffffffffffffffffffffff160217905550601260009054906101000a900473ffffffffffffffffffffffffffffffffffffffff1673ffffffffffffffffffffffffffffffffffffffff16632c388d5d600f60009054906101000a900473ffffffffffffffffffffffffffffffffffffffff166040518263ffffffff1660e01b815260040161420091906177e1565b600060405180830381600087803b15801561421b5760006000fd5b505af1158015614230573d600060003e3d6000fd5b50505050600f60009054906101000a900473ffffffffffffffffffffffffffffffffffffffff1673ffffffffffffffffffffffffffffffffffffffff166040516142799061777f565b60405180910390207f2b51ff7c4cc8e6fe1c72e9d9685b7d2a88a5d82ad3a644afbdceb0272c89c1c360405160405180910390a35b5b600160006000508190909055505b50565b60606142d2838361632063ffffffff16565b90506142d9565b92915050565b60006000600160009054906101000a900467ffffffffffffffff1667ffffffffffffffff1611905061430c565b90565b60006000600160009054906101000a900467ffffffffffffffff1667ffffffffffffffff16111561434357600090506143ec565b6000614353615f5263ffffffff16565b90506000601d60009054906101000a900467ffffffffffffffff1667ffffffffffffffff1614806143ad5750601d60009054906101000a900467ffffffffffffffff1667ffffffffffffffff168167ffffffffffffffff16105b156143bc5760009150506143ec565b6143e3601d60009054906101000a900467ffffffffffffffff16820361691c63ffffffff16565b9150506143ec56505b90565b7f000000000000000000000000000000000000000000000000000000000000000081565b60006144248261691c63ffffffff16565b905080505b919050565b60006144ec670214e8348c4f0000600a60009054906101000a900473ffffffffffffffffffffffffffffffffffffffff1673ffffffffffffffffffffffffffffffffffffffff166318160ddd6040518163ffffffff1660e01b815260040160206040518083038186803b1580156144a55760006000fd5b505afa1580156144ba573d600060003e3d6000fd5b505050506040513d601f19601f820116820180604052508101906144de9190617554565b61695e90919063ffffffff16565b600a60009054906101000a900473ffffffffffffffffffffffffffffffffffffffff1673ffffffffffffffffffffffffffffffffffffffff166370a08231600d60009054906101000a900473ffffffffffffffffffffffffffffffffffffffff166040518263ffffffff1660e01b815260040161456991906177e1565b60206040518083038186803b1580156145825760006000fd5b505afa158015614597573d600060003e3d6000fd5b505050506040513d601f19601f820116820180604052508101906145bb9190617554565b1190506145c3565b90565b600260006000505414151515614647576040517f08c379a000000000000000000000000000000000000000000000000000000000815260040180806020018281038252601f8152602001807f5265656e7472616e637947756172643a207265656e7472616e742063616c6c0081526020015060200191505060405180910390fd5b6002600060005081909090555043601a6000505410151561469d576040517f08c379a000000000000000000000000000000000000000000000000000000000815260040161469490617da8565b60405180910390fd5b6146ab61601163ffffffff16565b5b600160006000508190909055505b565b7f000000000000000000000000000000000000000000000000000000000000000081565b601660009054906101000a900473ffffffffffffffffffffffffffffffffffffffff1681565b601160009054906101000a900473ffffffffffffffffffffffffffffffffffffffff1681565b601260009054906101000a900473ffffffffffffffffffffffffffffffffffffffff1681565b601960149054906101000a900460ff1681565b6006600050818154811061477857600080fd5b906000526020600020900160005b9150909054906101000a900473ffffffffffffffffffffffffffffffffffffffff1681565b601760005081815481106147be57600080fd5b906000526020600020900160005b9150909054906101000a900473ffffffffffffffffffffffffffffffffffffffff1681565b600260006000505414151515614872576040517f08c379a000000000000000000000000000000000000000000000000000000000815260040180806020018281038252601f8152602001807f5265656e7472616e637947756172643a207265656e7472616e742063616c6c0081526020015060200191505060405180910390fd5b600260006000508190909055506148bc3073ffffffffffffffffffffffffffffffffffffffff163373ffffffffffffffffffffffffffffffffffffffff1614615fcb63ffffffff16565b600073ffffffffffffffffffffffffffffffffffffffff16600960009054906101000a900473ffffffffffffffffffffffffffffffffffffffff1673ffffffffffffffffffffffffffffffffffffffff16141515614a4a57601260009054906101000a900473ffffffffffffffffffffffffffffffffffffffff1673ffffffffffffffffffffffffffffffffffffffff16634ac8c5ae600960009054906101000a900473ffffffffffffffffffffffffffffffffffffffff166040518263ffffffff1660e01b815260040161499191906177e1565b600060405180830381600087803b1580156149ac5760006000fd5b505af11580156149c1573d600060003e3d6000fd5b50505050600960009054906101000a900473ffffffffffffffffffffffffffffffffffffffff1673ffffffffffffffffffffffffffffffffffffffff166307da68f56040518163ffffffff1660e01b8152600401600060405180830381600087803b158015614a305760006000fd5b505af1158015614a45573d600060003e3d6000fd5b505050505b600860009054906101000a900473ffffffffffffffffffffffffffffffffffffffff16600960006101000a81548173ffffffffffffffffffffffffffffffffffffffff021916908373ffffffffffffffffffffffffffffffffffffffff16021790555080600860006101000a81548173ffffffffffffffffffffffffffffffffffffffff021916908373ffffffffffffffffffffffffffffffffffffffff160217905550601260009054906101000a900473ffffffffffffffffffffffffffffffffffffffff1673ffffffffffffffffffffffffffffffffffffffff16632c388d5d600860009054906101000a900473ffffffffffffffffffffffffffffffffffffffff166040518263ffffffff1660e01b8152600401614b6b91906177e1565b600060405180830381600087803b158015614b865760006000fd5b505af1158015614b9b573d600060003e3d6000fd5b50505050600860009054906101000a900473ffffffffffffffffffffffffffffffffffffffff1673ffffffffffffffffffffffffffffffffffffffff16604051614be49061774e565b60405180910390207f2b51ff7c4cc8e6fe1c72e9d9685b7d2a88a5d82ad3a644afbdceb0272c89c1c360405160405180910390a35b5b600160006000508190909055505b50565b600260006000505414151515614cac576040517f08c379a000000000000000000000000000000000000000000000000000000000815260040180806020018281038252601f8152602001807f5265656e7472616e637947756172643a207265656e7472616e742063616c6c0081526020015060200191505060405180910390fd5b60026000600050819090905550614e20601060009054906101000a900473ffffffffffffffffffffffffffffffffffffffff1673ffffffffffffffffffffffffffffffffffffffff163373ffffffffffffffffffffffffffffffffffffffff161480614d655750601460009054906101000a900473ffffffffffffffffffffffffffffffffffffffff1673ffffffffffffffffffffffffffffffffffffffff163373ffffffffffffffffffffffffffffffffffffffff16145b80614dbd5750600860009054906101000a900473ffffffffffffffffffffffffffffffffffffffff1673ffffffffffffffffffffffffffffffffffffffff163373ffffffffffffffffffffffffffffffffffffffff16145b80614e155750601360009054906101000a900473ffffffffffffffffffffffffffffffffffffffff1673ffffffffffffffffffffffffffffffffffffffff163373ffffffffffffffffffffffffffffffffffffffff16145b615fcb63ffffffff16565b600a60009054906101000a900473ffffffffffffffffffffffffffffffffffffffff1673ffffffffffffffffffffffffffffffffffffffff1663449a52f883836040518363ffffffff1660e01b8152600401614e7d9291906178af565b600060405180830381600087803b158015614e985760006000fd5b505af1158015614ead573d600060003e3d6000fd5b505050505b600160006000508190909055505b5050565b614f23601960009054906101000a900473ffffffffffffffffffffffffffffffffffffffff1673ffffffffffffffffffffffffffffffffffffffff163373ffffffffffffffffffffffffffffffffffffffff1614615fcb63ffffffff16565b601960149054906101000a900460ff16158015614f4d5750601960159054906101000a900460ff16155b1515614f595760006000fd5b6001601960146101000a81548160ff02191690831515021790555082601260006101000a81548173ffffffffffffffffffffffffffffffffffffffff021916908373ffffffffffffffffffffffffffffffffffffffff160217905550601260009054906101000a900473ffffffffffffffffffffffffffffffffffffffff1673ffffffffffffffffffffffffffffffffffffffff16632c388d5d306040518263ffffffff1660e01b815260040161501091906177e1565b600060405180830381600087803b15801561502b5760006000fd5b505af1158015615040573d600060003e3d6000fd5b50505050601260009054906101000a900473ffffffffffffffffffffffffffffffffffffffff1673ffffffffffffffffffffffffffffffffffffffff16632c388d5d600d60009054906101000a900473ffffffffffffffffffffffffffffffffffffffff166040518263ffffffff1660e01b81526004016150c191906177e1565b600060405180830381600087803b1580156150dc5760006000fd5b505af11580156150f1573d600060003e3d6000fd5b5050505088600860006101000a81548173ffffffffffffffffffffffffffffffffffffffff021916908373ffffffffffffffffffffffffffffffffffffffff160217905550601260009054906101000a900473ffffffffffffffffffffffffffffffffffffffff1673ffffffffffffffffffffffffffffffffffffffff16632c388d5d600860009054906101000a900473ffffffffffffffffffffffffffffffffffffffff166040518263ffffffff1660e01b81526004016151b391906177e1565b600060405180830381600087803b1580156151ce5760006000fd5b505af11580156151e3573d600060003e3d6000fd5b5050505087600a60006101000a81548173ffffffffffffffffffffffffffffffffffffffff021916908373ffffffffffffffffffffffffffffffffffffffff160217905550601260009054906101000a900473ffffffffffffffffffffffffffffffffffffffff1673ffffffffffffffffffffffffffffffffffffffff16632c388d5d600b60009054906101000a900473ffffffffffffffffffffffffffffffffffffffff166040518263ffffffff1660e01b81526004016152a591906177e1565b600060405180830381600087803b1580156152c05760006000fd5b505af11580156152d5573d600060003e3d6000fd5b5050505086600f60006101000a81548173ffffffffffffffffffffffffffffffffffffffff021916908373ffffffffffffffffffffffffffffffffffffffff160217905550601260009054906101000a900473ffffffffffffffffffffffffffffffffffffffff1673ffffffffffffffffffffffffffffffffffffffff16632c388d5d600f60009054906101000a900473ffffffffffffffffffffffffffffffffffffffff166040518263ffffffff1660e01b815260040161539791906177e1565b600060405180830381600087803b1580156153b25760006000fd5b505af11580156153c7573d600060003e3d6000fd5b5050505085601060006101000a81548173ffffffffffffffffffffffffffffffffffffffff021916908373ffffffffffffffffffffffffffffffffffffffff160217905550601260009054906101000a900473ffffffffffffffffffffffffffffffffffffffff1673ffffffffffffffffffffffffffffffffffffffff16632c388d5d601060009054906101000a900473ffffffffffffffffffffffffffffffffffffffff166040518263ffffffff1660e01b815260040161548991906177e1565b600060405180830381600087803b1580156154a45760006000fd5b505af11580156154b9573d600060003e3d6000fd5b5050505083601160006101000a81548173ffffffffffffffffffffffffffffffffffffffff021916908373ffffffffffffffffffffffffffffffffffffffff160217905550601260009054906101000a900473ffffffffffffffffffffffffffffffffffffffff1673ffffffffffffffffffffffffffffffffffffffff16632c388d5d601160009054906101000a900473ffffffffffffffffffffffffffffffffffffffff166040518263ffffffff1660e01b815260040161557b91906177e1565b600060405180830381600087803b1580156155965760006000fd5b505af11580156155ab573d600060003e3d6000fd5b5050505084601360006101000a81548173ffffffffffffffffffffffffffffffffffffffff021916908373ffffffffffffffffffffffffffffffffffffffff160217905550601260009054906101000a900473ffffffffffffffffffffffffffffffffffffffff1673ffffffffffffffffffffffffffffffffffffffff16632c388d5d601360009054906101000a900473ffffffffffffffffffffffffffffffffffffffff166040518263ffffffff1660e01b815260040161566d91906177e1565b600060405180830381600087803b1580156156885760006000fd5b505af115801561569d573d600060003e3d6000fd5b5050505081601460006101000a81548173ffffffffffffffffffffffffffffffffffffffff021916908373ffffffffffffffffffffffffffffffffffffffff160217905550601260009054906101000a900473ffffffffffffffffffffffffffffffffffffffff1673ffffffffffffffffffffffffffffffffffffffff16632c388d5d601460009054906101000a900473ffffffffffffffffffffffffffffffffffffffff166040518263ffffffff1660e01b815260040161575f91906177e1565b600060405180830381600087803b15801561577a5760006000fd5b505af115801561578f573d600060003e3d6000fd5b5050505080601560006101000a81548173ffffffffffffffffffffffffffffffffffffffff021916908373ffffffffffffffffffffffffffffffffffffffff160217905550601260009054906101000a900473ffffffffffffffffffffffffffffffffffffffff1673ffffffffffffffffffffffffffffffffffffffff16632c388d5d601560009054906101000a900473ffffffffffffffffffffffffffffffffffffffff166040518263ffffffff1660e01b815260040161585191906177e1565b600060405180830381600087803b15801561586c5760006000fd5b505af1158015615881573d600060003e3d6000fd5b505050505b5b505050505050505050565b600260006000505414151515615913576040517f08c379a000000000000000000000000000000000000000000000000000000000815260040180806020018281038252601f8152602001807f5265656e7472616e637947756172643a207265656e7472616e742063616c6c0081526020015060200191505060405180910390fd5b6002600060005081909090555060003390506000600260005060008373ffffffffffffffffffffffffffffffffffffffff1673ffffffffffffffffffffffffffffffffffffffff1681526020019081526020016000206000505490506000811115156159b4576040517f08c379a00000000000000000000000000000000000000000000000000000000081526004016159ab90617ceb565b60405180910390fd5b6000600260005060008473ffffffffffffffffffffffffffffffffffffffff1673ffffffffffffffffffffffffffffffffffffffff168152602001908152602001600020600050819090905550615a57600a60009054906101000a900473ffffffffffffffffffffffffffffffffffffffff16600d60009054906101000a900473ffffffffffffffffffffffffffffffffffffffff16848461653363ffffffff16565b615a6561675e63ffffffff16565b8173ffffffffffffffffffffffffffffffffffffffff167fbfaf8d2920f9287ed71a7e47234c2043522ae8ffd246577b929897e0f2b3c07582604051615aab9190617f22565b60405180910390a250505b600160006000508190909055505b565b670214e8348c4f000081565b600560009054906101000a900473ffffffffffffffffffffffffffffffffffffffff1681565b600260006000505414151515615b79576040517f08c379a000000000000000000000000000000000000000000000000000000000815260040180806020018281038252601f8152602001807f5265656e7472616e637947756172643a207265656e7472616e742063616c6c0081526020015060200191505060405180910390fd5b60026000600050819090905550615bc33073ffffffffffffffffffffffffffffffffffffffff163373ffffffffffffffffffffffffffffffffffffffff1614615fcb63ffffffff16565b601260009054906101000a900473ffffffffffffffffffffffffffffffffffffffff1673ffffffffffffffffffffffffffffffffffffffff16634ac8c5ae601060009054906101000a900473ffffffffffffffffffffffffffffffffffffffff166040518263ffffffff1660e01b8152600401615c4091906177e1565b600060405180830381600087803b158015615c5b5760006000fd5b505af1158015615c70573d600060003e3d6000fd5b50505050601060009054906101000a900473ffffffffffffffffffffffffffffffffffffffff1673ffffffffffffffffffffffffffffffffffffffff166307da68f56040518163ffffffff1660e01b8152600401600060405180830381600087803b158015615cdf5760006000fd5b505af1158015615cf4573d600060003e3d6000fd5b5050505080601060006101000a81548173ffffffffffffffffffffffffffffffffffffffff021916908373ffffffffffffffffffffffffffffffffffffffff160217905550601260009054906101000a900473ffffffffffffffffffffffffffffffffffffffff1673ffffffffffffffffffffffffffffffffffffffff16632c388d5d601060009054906101000a900473ffffffffffffffffffffffffffffffffffffffff166040518263ffffffff1660e01b8152600401615db691906177e1565b600060405180830381600087803b158015615dd15760006000fd5b505af1158015615de6573d600060003e3d6000fd5b50505050601060009054906101000a900473ffffffffffffffffffffffffffffffffffffffff1673ffffffffffffffffffffffffffffffffffffffff16604051615e2f9061771d565b60405180910390207f2b51ff7c4cc8e6fe1c72e9d9685b7d2a88a5d82ad3a644afbdceb0272c89c1c360405160405180910390a35b5b600160006000508190909055505b50565b60006801000000000000000082101515615efb576040517f08c379a00000000000000000000000000000000000000000000000000000000081526004018080602001828103825260118152602001807f6d6f7265207468616e203634206269747300000000000000000000000000000081526020015060200191505060405180910390fd5b819050615f03565b919050565b60008167ffffffffffffffff166102da69021e19e0c9bab240000069152d02c7e14af680000003811515615f3857fe5b040269152d02c7e14af6800000039050615f4d565b919050565b60007f00000000000000000000000000000000000000000000000000000000000000007f000000000000000000000000000000000000000000000000000000000000000067ffffffffffffffff16615fae61630563ffffffff16565b67ffffffffffffffff16811515615fc157fe5b0403905080505b90565b80151561600d576040517f08c379a000000000000000000000000000000000000000000000000000000000815260040161600490617c6d565b60405180910390fd5b5b50565b6000600160009054906101000a900467ffffffffffffffff1667ffffffffffffffff16141515616076576040517f08c379a000000000000000000000000000000000000000000000000000000000815260040161606d90617e65565b60405180910390fd5b601060009054906101000a900473ffffffffffffffffffffffffffffffffffffffff1673ffffffffffffffffffffffffffffffffffffffff1663a6afed956040518163ffffffff1660e01b8152600401600060405180830381600087803b1580156160e15760006000fd5b505af11580156160f6573d600060003e3d6000fd5b50505050601460009054906101000a900473ffffffffffffffffffffffffffffffffffffffff1673ffffffffffffffffffffffffffffffffffffffff16631afdbce46040518163ffffffff1660e01b8152600401600060405180830381600087803b1580156161655760006000fd5b505af115801561617a573d600060003e3d6000fd5b5050505061618c61630563ffffffff16565b600160006101000a81548167ffffffffffffffff021916908367ffffffffffffffff1602179055507f5a05a29d5ecece2d4f30720adf1a7449fc1ecb9a884a14629d08d3d2257ab90560405160405180910390a15b565b6000818051906020012090506161f4565b919050565b60006000600090505b835181101561626c578273ffffffffffffffffffffffffffffffffffffffff16848281518110151561623057fe5b602002602001015173ffffffffffffffffffffffffffffffffffffffff16141561625e576001915050616276565b5b8080600101915050616202565b5060009050616276565b92915050565b600082828403915081111515156162fe576040517f08c379a000000000000000000000000000000000000000000000000000000000815260040180806020018281038252600d8152602001807f7375622d756e646572666c6f770000000000000000000000000000000000000081526020015060200191505060405180910390fd5b5b92915050565b600061631842615e76909063ffffffff16565b905080505b90565b606061633283836161f963ffffffff16565b1515616373576040517f08c379a000000000000000000000000000000000000000000000000000000000815260040161636a90617c2e565b60405180910390fd5b6000600184510367ffffffffffffffff811180156163915760006000fd5b506040519080825280602002602001820160405280156163c05781602001602082028036833780820191505090505b50905060006000600090505b8551811015616497578473ffffffffffffffffffffffffffffffffffffffff1686828151811015156163fa57fe5b602002602001015173ffffffffffffffffffffffffffffffffffffffff1614151561648957858181518110151561642d57fe5b6020026020010151838381518110151561644357fe5b602002602001019073ffffffffffffffffffffffffffffffffffffffff16908173ffffffffffffffffffffffffffffffffffffffff168152602001505081806001019250505b5b80806001019150506163cc565b5081925050506164a45650505b92915050565b6000828284019150811015151561652c576040517f08c379a000000000000000000000000000000000000000000000000000000000815260040180806020018281038252600c8152602001807f6164642d6f766572666c6f77000000000000000000000000000000000000000081526020015060200191505060405180910390fd5b5b92915050565b600060008573ffffffffffffffffffffffffffffffffffffffff166323b872dd60e01b868686604051602401808473ffffffffffffffffffffffffffffffffffffffff1681526020018373ffffffffffffffffffffffffffffffffffffffff1681526020018281526020019350505050604051602081830303815290604052907bffffffffffffffffffffffffffffffffffffffffffffffffffffffff19166020820180517bffffffffffffffffffffffffffffffffffffffffffffffffffffffff83818316178352505050506040518082805190602001908083835b60208310151561663657805182525b602082019150602081019050602083039250616610565b6001836020036101000a0380198251168184511680821785525050505050509050019150506000604051808303816000865af19150503d8060008114616698576040519150601f19603f3d011682016040523d82523d6000602084013e61669d565b606091505b50915091508180156166de57506000815114806166dd57508080602001905160208110156166cb5760006000fd5b81019080805190602001909291905050505b5b1515616755576040517f08c379a00000000000000000000000000000000000000000000000000000000081526004018080602001828103825260038152602001807f535446000000000000000000000000000000000000000000000000000000000081526020015060200191505060405180910390fd5b50505b50505050565b61676c61442e63ffffffff16565b156167b0577fffffffffffffffffffffffffffffffffffffffffffffffffffffffffffffffff601a6000505414156167ab5743601a6000508190909055505b61680c565b7fffffffffffffffffffffffffffffffffffffffffffffffffffffffffffffffff601a6000505414151561680b577fffffffffffffffffffffffffffffffffffffffffffffffffffffffffffffffff601a6000508190909055505b5b5b565b600061688d7f00000000000000000000000000000000000000000000000000000000000000007f000000000000000000000000000000000000000000000000000000000000000067ffffffffffffffff168467ffffffffffffffff1681151561687457fe5b0467ffffffffffffffff1661698490919063ffffffff16565b905080505b919050565b60006169126168d9837f000000000000000000000000000000000000000000000000000000000000000067ffffffffffffffff16616a2190919063ffffffff16565b7f000000000000000000000000000000000000000000000000000000000000000067ffffffffffffffff16616abe90919063ffffffff16565b905080505b919050565b60006102da8267ffffffffffffffff1610156169465761694182615f0863ffffffff16565b616952565b69021e19e0c9bab24000005b9050616959565b919050565b60006169798383670de0b6b3a7640000616b8e63ffffffff16565b905080505b92915050565b60008267ffffffffffffffff1682840391508167ffffffffffffffff1611151515616a1a576040517f08c379a000000000000000000000000000000000000000000000000000000000815260040180806020018281038252600d8152602001807f7375622d756e646572666c6f770000000000000000000000000000000000000081526020015060200191505060405180910390fd5b5b92915050565b60008267ffffffffffffffff1682840191508167ffffffffffffffff1610151515616ab7576040517f08c379a000000000000000000000000000000000000000000000000000000000815260040180806020018281038252600c8152602001807f6164642d6f766572666c6f77000000000000000000000000000000000000000081526020015060200191505060405180910390fd5b5b92915050565b600060008267ffffffffffffffff161480616b1057508267ffffffffffffffff168267ffffffffffffffff1683850292508267ffffffffffffffff16811515616b0357fe5b0467ffffffffffffffff16145b1515616b87576040517f08c379a000000000000000000000000000000000000000000000000000000000815260040180806020018281038252600c8152602001807f6d756c2d6f766572666c6f77000000000000000000000000000000000000000081526020015060200191505060405180910390fd5b5b92915050565b6000600060006000198587098587029250828110838203039150506000811415616bd157600084111515616bc25760006000fd5b83820492508292505050616c88565b8084111515616be05760006000fd5b6000848688099050828111820391508083039250600085866000031690508086049550808404935060018182600003040190508083028417935083506000600287600302189050808702600203810290508050808702600203810290508050808702600203810290508050808702600203810290508050808702600203810290508050808702600203810290508050808502955085508595505050505050616c885650505050505b9392505050565b828054828255906000526020600020908101928215616d1e579160200282015b82811115616d1d57823573ffffffffffffffffffffffffffffffffffffffff168260006101000a81548173ffffffffffffffffffffffffffffffffffffffff021916908373ffffffffffffffffffffffffffffffffffffffff16021790555091602001919060010190616caf565b5b509050616d2b9190616e59565b5090565b828054828255906000526020600020908101928215616dbe579160200282015b82811115616dbd57823573ffffffffffffffffffffffffffffffffffffffff168260006101000a81548173ffffffffffffffffffffffffffffffffffffffff021916908373ffffffffffffffffffffffffffffffffffffffff16021790555091602001919060010190616d4f565b5b509050616dcb9190616e59565b5090565b828054828255906000526020600020908101928215616e48579160200282015b82811115616e475782518260006101000a81548173ffffffffffffffffffffffffffffffffffffffff021916908373ffffffffffffffffffffffffffffffffffffffff16021790555091602001919060010190616def565b5b509050616e559190616e59565b5090565b616e5e565b80821115616e785760008181506000905550600101616e5e565b509056617fee565b600067ffffffffffffffff831115616e9457fe5b616ec560207fffffffffffffffffffffffffffffffffffffffffffffffffffffffffffffffe0601f86011601617f65565b9050828152838383011115616eda5760006000fd5b828260208301376000602084830101525b9392505050565b6000600083601f8401121515616f06578182fd5b8235905067ffffffffffffffff811115616f1e578182fd5b602083019150836020602083028501011115616f3a5760006000fd5b5b9250929050565b600081359050616f5181617fc5565b5b919050565b600060208284031215616f68578081fd5b8135616f7381617fc5565b809150505b92915050565b600060208284031215616f8f578081fd5b8151616f9a81617fc5565b809150505b92915050565b60006000600060408486031215616fba578182fd5b8335616fc581617fc5565b80935050602084013567ffffffffffffffff80821115616fe3578384fd5b818601915086601f8301121515616ff8578384fd5b813581811115617006578485fd5b876020828501011115617017578485fd5b6020830194508093505050505b9250925092565b60006000600060608486031215617040578081fd5b833561704b81617fc5565b80935050602084013567ffffffffffffffff80821115617069578283fd5b818601915086601f830112151561707e578283fd5b61708d87833560208501616e80565b935060408601359150808211156170a2578283fd5b50808501905085601f82011215156170b8578182fd5b6170c786823560208401616e80565b9150505b9250925092565b60006000604083850312156170e5578182fd5b82356170f081617fc5565b80925050602083013590505b9250929050565b6000600060208385031215617116578182fd5b823567ffffffffffffffff81111561712c578283fd5b61713885828601616ef2565b915080935050809150505b9250929050565b600060006040838503121561715d578182fd5b823567ffffffffffffffff80821115617174578384fd5b818501915085601f8301121515617189578384fd5b813560208282111561719757fe5b80820292506171a7818401617f65565b8083825282820191508286018a848789010111156171c3578889fd5b8896505b848710156171f557803595506171dc86617fc5565b858352838301925083810190505b6001870196506171c7565b508097505050617206818801616f42565b9450505050505b9250929050565b600060208284031215617225578081fd5b81357fffffffff00000000000000000000000000000000000000000000000000000000811681141515617256578182fd5b809150505b92915050565b600060208284031215617272578081fd5b813561727d81617fc5565b809150505b92915050565b6000600060006000600060006000600060006101208a8c0312156172aa578687fd5b89356172b581617fc5565b8099505060208a01356172c781617fc5565b8098505060408a01356172d981617fc5565b8097505060608a01356172eb81617fc5565b8096505060808a01356172fd81617fc5565b8095505060a08a013561730f81617fc5565b8094505060c08a013561732181617fc5565b8093505060e08a013561733381617fc5565b809250506101008a013561734681617fc5565b809150505b9295985092959850929598565b600060208284031215617369578081fd5b813561737481617fc5565b809150505b92915050565b600060208284031215617390578081fd5b813561739b81617fc5565b809150505b92915050565b6000602082840312156173b7578081fd5b81356173c281617fc5565b809150505b92915050565b6000602082840312156173de578081fd5b81356173e981617fc5565b809150505b92915050565b600060208284031215617405578081fd5b813561741081617fc5565b809150505b92915050565b60006020828403121561742c578081fd5b813561743781617fc5565b809150505b92915050565b600060208284031215617453578081fd5b813561745e81617fc5565b809150505b92915050565b6000600060006000600060006000600060a0898b031215617488578182fd5b883561749381617fc5565b8098505060208901356174a581617fc5565b80975050604089013567ffffffffffffffff808211156174c3578384fd5b6174cf8c838d01616ef2565b92508098505081965060608b01359150808211156174eb578384fd5b6174f78c838d01616ef2565b92508096505081945060808b0135915080821115617513578384fd5b506175208b828c01616ef2565b915080935050809150505b9295985092959890939650565b600060208284031215617549578081fd5b813590505b92915050565b600060208284031215617565578081fd5b815190505b92915050565b600060208284031215617581578081fd5b813567ffffffffffffffff81168114151561759a578182fd5b809150505b92915050565b6000602082840312156175b6578081fd5b815160ff8116811415156175c8578182fd5b809150505b92915050565b600081518084526175eb816020860160208601617f90565b60207fffffffffffffffffffffffffffffffffffffffffffffffffffffffffffffffe0601f8301168501019150505b92915050565b60007fffffffff0000000000000000000000000000000000000000000000000000000084168252825161765a816004850160208701617f90565b6004818401019150505b9392505050565b6000825161767d818460208701617f90565b8083019150505b92915050565b60007f726577617264730000000000000000000000000000000000000000000000000082526007820190505b919050565b60007f726174657300000000000000000000000000000000000000000000000000000082526005820190505b919050565b60007f736574746c656d656e74000000000000000000000000000000000000000000008252600a820190505b919050565b60007f6d61726b6574000000000000000000000000000000000000000000000000000082526006820190505b919050565b60007f61756374696f6e7300000000000000000000000000000000000000000000000082526008820190505b919050565b60007f6c69717569646174696f6e7300000000000000000000000000000000000000008252600c820190505b919050565b60007f707269636573000000000000000000000000000000000000000000000000000082526006820190505b919050565b600060208201905073ffffffffffffffffffffffffffffffffffffffff831682525b92915050565b600073ffffffffffffffffffffffffffffffffffffffff851682526040602083015282604083015282846060840137806060848401015260607fffffffffffffffffffffffffffffffffffffffffffffffffffffffffffffffe0601f85011683010190505b949350505050565b600073ffffffffffffffffffffffffffffffffffffffff84168252604060208301526178a560408301846175d3565b90505b9392505050565b600060408201905073ffffffffffffffffffffffffffffffffffffffff841682528260208301525b9392505050565b600060208083018184528085518083526040860191508387019250845b818110156179335773ffffffffffffffffffffffffffffffffffffffff8451168352848301925084840193505b6001810190506178fb565b50508093505050505b92915050565b600060208201905082151582525b92915050565b600083151582526040602083015261797160408301846175d3565b90505b9392505050565b600060208201905073ffffffffffffffffffffffffffffffffffffffff831682525b92915050565b600060208201905073ffffffffffffffffffffffffffffffffffffffff831682525b92915050565b600060208201905073ffffffffffffffffffffffffffffffffffffffff831682525b92915050565b600060208201905073ffffffffffffffffffffffffffffffffffffffff831682525b92915050565b600060208201905073ffffffffffffffffffffffffffffffffffffffff831682525b92915050565b600060208201905073ffffffffffffffffffffffffffffffffffffffff831682525b92915050565b600060208201905073ffffffffffffffffffffffffffffffffffffffff831682525b92915050565b600060208201905073ffffffffffffffffffffffffffffffffffffffff831682525b92915050565b600060208201905073ffffffffffffffffffffffffffffffffffffffff831682525b92915050565b600060208201905073ffffffffffffffffffffffffffffffffffffffff831682525b92915050565b600060208201905073ffffffffffffffffffffffffffffffffffffffff831682525b92915050565b600060208201905073ffffffffffffffffffffffffffffffffffffffff831682525b92915050565b600060208201905073ffffffffffffffffffffffffffffffffffffffff831682525b92915050565b600060208201905073ffffffffffffffffffffffffffffffffffffffff831682525b92915050565b600060208201905073ffffffffffffffffffffffffffffffffffffffff831682525b92915050565b600060208252617be660208301846175d3565b90505b92915050565b600060208252600e60208301527f6172697479206d69736d6174636800000000000000000000000000000000000060408301526060820190505b919050565b600060208252600960208301527f4e6f7420666f756e64000000000000000000000000000000000000000000000060408301526060820190505b919050565b600060208252600e60208301527f4e6f7420417574686f72697a656400000000000000000000000000000000000060408301526060820190505b919050565b600060208252601260208301527f50726576696f75736c792072656d6f766564000000000000000000000000000060408301526060820190505b919050565b600060208252600460208301527f4e6f6f700000000000000000000000000000000000000000000000000000000060408301526060820190505b919050565b600060208252600b60208301527f416c72656164792073657400000000000000000000000000000000000000000060408301526060820190505b919050565b600060208252600d60208301527f4f6e6c79206f6e6520706f6f6c0000000000000000000000000000000000000060408301526060820190505b919050565b600060208252601760208301527f496e73756666696369656e7420544350204c6f636b656400000000000000000060408301526060820190505b919050565b600060208252600d60208301527f416c72656164792061646465640000000000000000000000000000000000000060408301526060820190505b919050565b600060208252600e60208301527f487565206e6f7420666f756e642e00000000000000000000000000000000000060408301526060820190505b919050565b600060208252601060208301527f416c72656164792073687574646f776e0000000000000000000000000000000060408301526060820190505b919050565b600060208252600c60208301527f4e6f742073687574646f776e000000000000000000000000000000000000000060408301526060820190505b919050565b600060208252600660208301527f4c4f434b4544000000000000000000000000000000000000000000000000000060408301526060820190505b919050565b60006020820190508282525b92915050565b600060208201905067ffffffffffffffff831682525b92915050565b600060208201905060ff831682525b92915050565b6000604051905081810181811067ffffffffffffffff82111715617f8557fe5b80604052505b919050565b60005b83811015617faf5780820151818401525b602081019050617f93565b83811115617fbe576000848401525b505b505050565b73ffffffffffffffffffffffffffffffffffffffff811681141515617fea5760006000fd5b5b50565bfea2646970667358221220a48305a210cf0bf29924c3e008c1b7a1e2c33edb402b6c1126626a583f02883064736f6c63430007060033",
  "linkReferences": {},
  "deployedLinkReferences": {}
}