{
  "_format": "hh-sol-artifact-1",
  "contractName": "Rates",
  "sourceName": "contracts/core/logic/Rates.sol",
  "abi": [
    {
      "anonymous": false,
      "inputs": [
        {
          "indexed": true,
          "internalType": "address",
          "name": "governor",
          "type": "address"
        }
      ],
      "name": "Initialized",
      "type": "event"
    },
    {
      "anonymous": false,
      "inputs": [
        {
          "indexed": true,
          "internalType": "string",
          "name": "paramName",
          "type": "string"
        },
        {
          "indexed": false,
          "internalType": "uint128",
          "name": "value",
          "type": "uint128"
        }
      ],
      "name": "ParameterUpdated128",
      "type": "event"
    },
    {
      "anonymous": false,
      "inputs": [
        {
          "indexed": true,
          "internalType": "string",
          "name": "paramName",
          "type": "string"
        },
        {
          "indexed": false,
          "internalType": "uint64",
          "name": "value",
          "type": "uint64"
        }
      ],
      "name": "ParameterUpdated64",
      "type": "event"
    },
    {
      "anonymous": false,
      "inputs": [
        {
          "indexed": true,
          "internalType": "string",
          "name": "paramName",
          "type": "string"
        },
        {
          "indexed": true,
          "internalType": "address",
          "name": "addr",
          "type": "address"
        }
      ],
      "name": "ParameterUpdatedAddress",
      "type": "event"
    },
    {
      "anonymous": false,
      "inputs": [
        {
          "indexed": true,
          "internalType": "string",
          "name": "paramName",
          "type": "string"
        },
        {
          "indexed": false,
          "internalType": "int128",
          "name": "value",
          "type": "int128"
        }
      ],
      "name": "ParameterUpdatedInt128",
      "type": "event"
    },
    {
      "anonymous": false,
      "inputs": [
        {
          "indexed": false,
          "internalType": "int256",
          "name": "interestRate",
          "type": "int256"
        },
        {
          "indexed": false,
          "internalType": "uint256",
          "name": "price",
          "type": "uint256"
        },
        {
          "indexed": false,
          "internalType": "uint256",
          "name": "rewardCount",
          "type": "uint256"
        },
        {
          "indexed": false,
          "internalType": "uint64",
          "name": "nextUpdateTime",
          "type": "uint64"
        }
      ],
      "name": "RateUpdated",
      "type": "event"
    },
    {
      "anonymous": false,
      "inputs": [],
      "name": "Stopped",
      "type": "event"
    },
    {
      "inputs": [
        {
          "internalType": "contract IUniswapV3Pool",
          "name": "pool",
          "type": "address"
        }
      ],
      "name": "addReferencePool",
      "outputs": [],
      "stateMutability": "nonpayable",
      "type": "function"
    },
    {
      "inputs": [],
      "name": "completeSetup",
      "outputs": [],
      "stateMutability": "nonpayable",
      "type": "function"
    },
    {
      "inputs": [],
      "name": "currentRateData",
      "outputs": [
        {
          "internalType": "int256",
          "name": "rate",
          "type": "int256"
        },
        {
          "internalType": "uint64",
          "name": "nextUpdateTime",
          "type": "uint64"
        },
        {
          "internalType": "uint128",
          "name": "rewardCount",
          "type": "uint128"
        }
      ],
      "stateMutability": "view",
      "type": "function"
    },
    {
      "inputs": [],
      "name": "deployer",
      "outputs": [
        {
          "internalType": "address",
          "name": "",
          "type": "address"
        }
      ],
      "stateMutability": "view",
      "type": "function"
    },
    {
      "inputs": [],
      "name": "getRewardCount",
      "outputs": [
        {
          "internalType": "uint256",
          "name": "",
          "type": "uint256"
        }
      ],
      "stateMutability": "view",
      "type": "function"
    },
    {
      "inputs": [],
      "name": "governor",
      "outputs": [
        {
          "internalType": "contract IGovernor",
          "name": "",
          "type": "address"
        }
      ],
      "stateMutability": "view",
      "type": "function"
    },
    {
      "inputs": [
        {
          "internalType": "contract IGovernor",
          "name": "_governor",
          "type": "address"
        }
      ],
      "name": "init",
      "outputs": [],
      "stateMutability": "nonpayable",
      "type": "function"
    },
    {
      "inputs": [],
      "name": "interestRateAbsoluteValue",
      "outputs": [
        {
          "internalType": "uint256",
          "name": "",
          "type": "uint256"
        }
      ],
      "stateMutability": "view",
      "type": "function"
    },
    {
      "inputs": [],
      "name": "interestRateParameters",
      "outputs": [
        {
          "internalType": "uint128",
          "name": "acceptableError",
          "type": "uint128"
        },
        {
          "internalType": "uint128",
          "name": "errorInterval",
          "type": "uint128"
        },
        {
          "internalType": "uint128",
          "name": "interestRateStep",
          "type": "uint128"
        },
        {
          "internalType": "uint64",
          "name": "maxSteps",
          "type": "uint64"
        },
        {
          "internalType": "int128",
          "name": "minRate",
          "type": "int128"
        },
        {
          "internalType": "int128",
          "name": "maxRate",
          "type": "int128"
        }
      ],
      "stateMutability": "view",
      "type": "function"
    },
    {
      "inputs": [],
      "name": "minTimeBetweenUpdates",
      "outputs": [
        {
          "internalType": "uint64",
          "name": "",
          "type": "uint64"
        }
      ],
      "stateMutability": "view",
      "type": "function"
    },
    {
      "inputs": [],
      "name": "positiveInterestRate",
      "outputs": [
        {
          "internalType": "bool",
          "name": "",
          "type": "bool"
        }
      ],
      "stateMutability": "view",
      "type": "function"
    },
    {
      "inputs": [],
      "name": "predictInterestRate",
      "outputs": [
        {
          "internalType": "uint256",
          "name": "price",
          "type": "uint256"
        },
        {
          "internalType": "int256",
          "name": "rate",
          "type": "int256"
        }
      ],
      "stateMutability": "view",
      "type": "function"
    },
    {
      "inputs": [
        {
          "internalType": "uint256",
          "name": "",
          "type": "uint256"
        }
      ],
      "name": "referencePools",
      "outputs": [
        {
          "internalType": "contract IUniswapV3Pool",
          "name": "",
          "type": "address"
        }
      ],
      "stateMutability": "view",
      "type": "function"
    },
    {
      "inputs": [
        {
          "internalType": "contract IUniswapV3Pool",
          "name": "pool",
          "type": "address"
        }
      ],
      "name": "removeReferencePool",
      "outputs": [],
      "stateMutability": "nonpayable",
      "type": "function"
    },
    {
      "inputs": [
        {
          "internalType": "uint128",
          "name": "error",
          "type": "uint128"
        }
      ],
      "name": "setAcceptableError",
      "outputs": [],
      "stateMutability": "nonpayable",
      "type": "function"
    },
    {
      "inputs": [
        {
          "internalType": "uint128",
          "name": "interval",
          "type": "uint128"
        }
      ],
      "name": "setErrorInterval",
      "outputs": [],
      "stateMutability": "nonpayable",
      "type": "function"
    },
    {
      "inputs": [
        {
          "internalType": "uint128",
          "name": "step",
          "type": "uint128"
        }
      ],
      "name": "setInterestRateStep",
      "outputs": [],
      "stateMutability": "nonpayable",
      "type": "function"
    },
    {
      "inputs": [
        {
          "internalType": "int128",
          "name": "max",
          "type": "int128"
        }
      ],
      "name": "setMaxRate",
      "outputs": [],
      "stateMutability": "nonpayable",
      "type": "function"
    },
    {
      "inputs": [
        {
          "internalType": "uint64",
          "name": "steps",
          "type": "uint64"
        }
      ],
      "name": "setMaxSteps",
      "outputs": [],
      "stateMutability": "nonpayable",
      "type": "function"
    },
    {
      "inputs": [
        {
          "internalType": "int128",
          "name": "min",
          "type": "int128"
        }
      ],
      "name": "setMinRate",
      "outputs": [],
      "stateMutability": "nonpayable",
      "type": "function"
    },
    {
      "inputs": [
        {
          "internalType": "uint64",
          "name": "time",
          "type": "uint64"
        }
      ],
      "name": "setMinTimeBetweenUpdates",
      "outputs": [],
      "stateMutability": "nonpayable",
      "type": "function"
    },
    {
      "inputs": [],
      "name": "stop",
      "outputs": [],
      "stateMutability": "nonpayable",
      "type": "function"
    },
    {
      "inputs": [],
      "name": "stopped",
      "outputs": [
        {
          "internalType": "bool",
          "name": "",
          "type": "bool"
        }
      ],
      "stateMutability": "view",
      "type": "function"
    },
    {
      "inputs": [],
      "name": "update",
      "outputs": [],
      "stateMutability": "nonpayable",
      "type": "function"
    },
    {
      "inputs": [
        {
          "internalType": "bytes4",
          "name": "",
          "type": "bytes4"
        }
      ],
      "name": "validUpdate",
      "outputs": [
        {
          "internalType": "bool",
          "name": "",
          "type": "bool"
        }
      ],
      "stateMutability": "view",
      "type": "function"
    }
  ],
  "bytecode": "0x60806040526001600660005090905562014a78600760006101000a81548167ffffffffffffffff021916908367ffffffffffffffff1602179055503480156100475760006000fd5b505b33600160006101000a81548173ffffffffffffffffffffffffffffffffffffffff021916908373ffffffffffffffffffffffffffffffffffffffff1602179055505b610090565b613ce78061009f6000396000f3fe60806040523480156100115760006000fd5b50600436106101a85760003560e01c806375f12b21116100ef578063a0fc0eda11610098578063d3ab388811610072578063d3ab388814610406578063d5f3948814610422578063ee47304d14610440578063eec3f6f11461045c576101a8565b8063a0fc0eda146103c2578063a2e62045146103e0578063c381c1e6146103ea576101a8565b806384333cc7116100c957806384333cc7146103655780638aea8f711461039557806395563b471461039f576101a8565b806375f12b211461030d5780637e7e8eec1461032b57806380ddbdb414610349576101a8565b806319ab453c116101515780635fd019ad1161012b5780635fd019ad146102b75780636d7fa664146102d35780636e16ead2146102f1576101a8565b806319ab453c1461025f5780631f244faf1461027b5780635d8350b41461029b576101a8565b8063150147d711610182578063150147d714610206578063178d12261461022257806319a6e9e614610241576101a8565b806307da68f5146101ae5780630c340a24146101b8578063113cf1ab146101d6576101a8565b60006000fd5b6101b6610478565b005b6101c0610498565b6040516101cd91906138eb565b60405180910390f35b6101f060048036038101906101eb91906134a6565b6104be565b6040516101fd91906138d7565b60405180910390f35b610220600480360381019061021b91906135b6565b6104e3565b005b61022a61060d565b604051610238929190613c0d565b60405180910390f35b6102496109bd565b6040516102569190613c26565b60405180910390f35b6102796004803603810190610274919061351a565b6109d7565b005b610283610d95565b604051610292939291906139c4565b60405180910390f35b6102b560048036038101906102b09190613680565b610de3565b005b6102d160048036038101906102cc919061360b565b610e9a565b005b6102db610f7e565b6040516102e891906138d7565b60405180910390f35b61030b6004803603810190610306919061360b565b610f9a565b005b610315611060565b60405161032291906138d7565b60405180910390f35b610333611073565b6040516103409190613bfb565b60405180910390f35b610363600480360381019061035e919061360b565b611137565b005b61037f600480360381019061037a9190613648565b6111fd565b60405161038c9190613913565b60405180910390f35b61039d611243565b005b6103a7611315565b6040516103b996959493929190613b9e565b60405180910390f35b6103ca6113c4565b6040516103d79190613bfb565b60405180910390f35b6103e86113f5565b005b61040460048036038101906103ff91906135b6565b611ab0565b005b610420600480360381019061041b9190613680565b611bda565b005b61042a611c67565b604051610437919061386e565b60405180910390f35b61045a600480360381019061045591906135dd565b611c8d565b005b610476600480360381019061047191906135dd565b611d57565b005b610486611e2163ffffffff16565b610494611eb663ffffffff16565b5b5b565b600060009054906101000a900473ffffffffffffffffffffffffffffffffffffffff1681565b600560005060205280600052604060002060009150909054906101000a900460ff1681565b6104f1611e2163ffffffff16565b600060009054906101000a900473ffffffffffffffffffffffffffffffffffffffff1673ffffffffffffffffffffffffffffffffffffffff1663ab658be26040518163ffffffff1660e01b815260040160006040518083038186803b15801561055a5760006000fd5b505afa15801561056f573d600060003e3d6000fd5b505050506040513d6000823e3d601f19601f8201168201806040525081019061059891906133b5565b600d60005090805190602001906105b09291906132ef565b508073ffffffffffffffffffffffffffffffffffffffff166040516105d4906137aa565b60405180910390207f78caada2f560033c9479d8c5e33f045f2e611faebe6b6d8a73874c80ec2dd3a260405160405180910390a35b5b50565b600060006000600060009054906101000a900473ffffffffffffffffffffffffffffffffffffffff1673ffffffffffffffffffffffffffffffffffffffff1663d3419bf36040518163ffffffff1660e01b815260040160206040518083038186803b15801561067c5760006000fd5b505afa158015610691573d600060003e3d6000fd5b505050506040513d601f19601f820116820180604052508101906106b59190613568565b90506000600d60005080549050905060008167ffffffffffffffff811180156106de5760006000fd5b5060405190808252806020026020018201604052801561070d5781602001602082028036833780820191505090505b5090506000600090505b82811015610818578373ffffffffffffffffffffffffffffffffffffffff16633c63a9cd600d6000508381548110151561074d57fe5b906000526020600020900160005b9054906101000a900473ffffffffffffffffffffffffffffffffffffffff1660016040518363ffffffff1660e01b815260040161079992919061393b565b60206040518083038186803b1580156107b25760006000fd5b505afa1580156107c7573d600060003e3d6000fd5b505050506040513d601f19601f820116820180604052508101906107eb9190613664565b82828151811015156107f957fe5b60200260200101909081815260200150505b8080600101915050610717565b5061082881611f0063ffffffff16565b945084506109a4600b6000506000016000505460086000506040518060c00160405290816000820160009054906101000a90046fffffffffffffffffffffffffffffffff166fffffffffffffffffffffffffffffffff166fffffffffffffffffffffffffffffffff1681526020016000820160109054906101000a90046fffffffffffffffffffffffffffffffff166fffffffffffffffffffffffffffffffff166fffffffffffffffffffffffffffffffff1681526020016001820160009054906101000a90046fffffffffffffffffffffffffffffffff166fffffffffffffffffffffffffffffffff166fffffffffffffffffffffffffffffffff1681526020016001820160109054906101000a900467ffffffffffffffff1667ffffffffffffffff1667ffffffffffffffff1681526020016002820160009054906101000a9004600f0b600f0b600f0b81526020016002820160109054906101000a9004600f0b600f0b600f0b8152602001505087611f3763ffffffff16565b935083508484945094505050506109b9565050505b9091565b600760009054906101000a900467ffffffffffffffff1681565b600160009054906101000a900473ffffffffffffffffffffffffffffffffffffffff1673ffffffffffffffffffffffffffffffffffffffff163373ffffffffffffffffffffffffffffffffffffffff16141515610a345760006000fd5b600160006101000a81549073ffffffffffffffffffffffffffffffffffffffff021916905580600060006101000a81548173ffffffffffffffffffffffffffffffffffffffff021916908373ffffffffffffffffffffffffffffffffffffffff160217905550600060009054906101000a900473ffffffffffffffffffffffffffffffffffffffff1673ffffffffffffffffffffffffffffffffffffffff16639624e83e6040518163ffffffff1660e01b815260040160206040518083038186803b158015610b035760006000fd5b505afa158015610b18573d600060003e3d6000fd5b505050506040513d601f19601f82011682018060405250810190610b3c91906134f3565b600260006101000a81548173ffffffffffffffffffffffffffffffffffffffff021916908373ffffffffffffffffffffffffffffffffffffffff160217905550600060009054906101000a900473ffffffffffffffffffffffffffffffffffffffff1673ffffffffffffffffffffffffffffffffffffffff1663323741746040518163ffffffff1660e01b815260040160206040518083038186803b158015610be55760006000fd5b505afa158015610bfa573d600060003e3d6000fd5b505050506040513d601f19601f82011682018060405250810190610c1e9190613541565b600360006101000a81548173ffffffffffffffffffffffffffffffffffffffff021916908373ffffffffffffffffffffffffffffffffffffffff160217905550600060009054906101000a900473ffffffffffffffffffffffffffffffffffffffff1673ffffffffffffffffffffffffffffffffffffffff1663d478b0876040518163ffffffff1660e01b815260040160206040518083038186803b158015610cc75760006000fd5b505afa158015610cdc573d600060003e3d6000fd5b505050506040513d601f19601f82011682018060405250810190610d00919061358f565b600460006101000a81548173ffffffffffffffffffffffffffffffffffffffff021916908373ffffffffffffffffffffffffffffffffffffffff160217905550610d4e6120af63ffffffff16565b8073ffffffffffffffffffffffffffffffffffffffff167f908408e307fc569b417f6cbec5d5a06f44a0a505ac0479b47d421a4b2fd6a1e660405160405180910390a25b50565b600b6000508060000160005054908060010160009054906101000a900467ffffffffffffffff16908060010160089054906101000a90046fffffffffffffffffffffffffffffffff16905083565b610df1611e2163ffffffff16565b80600760006101000a81548167ffffffffffffffff021916908367ffffffffffffffff1602179055506000600760009054906101000a900467ffffffffffffffff1667ffffffffffffffff16111515610e4a5760006000fd5b604051610e5690613748565b60405180910390207f6293347933ad2997134e224ac8cd2e39908a4a22aeed9af52127b4bbf765297882604051610e8d9190613c26565b60405180910390a25b5b50565b610ea8611e2163ffffffff16565b806fffffffffffffffffffffffffffffffff166000108015610ee35750670de0b6b3a7640000816fffffffffffffffffffffffffffffffff16105b1515610eef5760006000fd5b80600860005060000160106101000a8154816fffffffffffffffffffffffffffffffff02191690836fffffffffffffffffffffffffffffffff160217905550604051610f3a906136e6565b60405180910390207ff92f7fc8addd796154d83393012a119e212b31cb3dc9776133129db4c5747fcc82604051610f719190613b7a565b60405180910390a25b5b50565b60006000600b6000506000016000505412159050610f97565b90565b610fa8611e2163ffffffff16565b670de0b6b3a7640000816fffffffffffffffffffffffffffffffff16101515610fd15760006000fd5b80600860005060010160006101000a8154816fffffffffffffffffffffffffffffffff02191690836fffffffffffffffffffffffffffffffff16021790555060405161101c906137db565b60405180910390207ff92f7fc8addd796154d83393012a119e212b31cb3dc9776133129db4c5747fcc826040516110539190613b7a565b60405180910390a25b5b50565b600060149054906101000a900460ff1681565b600061112d600b600050604051806060016040529081600082016000505481526020016001820160009054906101000a900467ffffffffffffffff1667ffffffffffffffff1667ffffffffffffffff1681526020016001820160089054906101000a90046fffffffffffffffffffffffffffffffff166fffffffffffffffffffffffffffffffff166fffffffffffffffffffffffffffffffff16815260200150506111226126aa63ffffffff16565b6126c563ffffffff16565b9050611134565b90565b611145611e2163ffffffff16565b670de0b6b3a7640000816fffffffffffffffffffffffffffffffff1610151561116e5760006000fd5b80600860005060000160006101000a8154816fffffffffffffffffffffffffffffffff02191690836fffffffffffffffffffffffffffffffff1602179055506040516111b990613717565b60405180910390207ff92f7fc8addd796154d83393012a119e212b31cb3dc9776133129db4c5747fcc826040516111f09190613b7a565b60405180910390a25b5b50565b600d600050818154811061121057600080fd5b906000526020600020900160005b9150909054906101000a900473ffffffffffffffffffffffffffffffffffffffff1681565b611251611e2163ffffffff16565b600060009054906101000a900473ffffffffffffffffffffffffffffffffffffffff1673ffffffffffffffffffffffffffffffffffffffff1663ab658be26040518163ffffffff1660e01b815260040160006040518083038186803b1580156112ba5760006000fd5b505afa1580156112cf573d600060003e3d6000fd5b505050506040513d6000823e3d601f19601f820116820180604052508101906112f891906133b5565b600d60005090805190602001906113109291906132ef565b505b5b565b60086000508060000160009054906101000a90046fffffffffffffffffffffffffffffffff16908060000160109054906101000a90046fffffffffffffffffffffffffffffffff16908060010160009054906101000a90046fffffffffffffffffffffffffffffffff16908060010160109054906101000a900467ffffffffffffffff16908060020160009054906101000a9004600f0b908060020160109054906101000a9004600f0b905086565b60006000600b600050600001600050549050600081126113e457806113e9565b806000035b9150506113f256505b90565b6114036127a463ffffffff16565b61141161288363ffffffff16565b6000600b600050604051806060016040529081600082016000505481526020016001820160009054906101000a900467ffffffffffffffff1667ffffffffffffffff1667ffffffffffffffff1681526020016001820160089054906101000a90046fffffffffffffffffffffffffffffffff166fffffffffffffffffffffffffffffffff166fffffffffffffffffffffffffffffffff168152602001505090506114bf6126aa63ffffffff16565b67ffffffffffffffff16816020015167ffffffffffffffff161115151561151b576040517f08c379a000000000000000000000000000000000000000000000000000000000815260040161151290613afc565b60405180910390fd5b6000600060009054906101000a900473ffffffffffffffffffffffffffffffffffffffff1673ffffffffffffffffffffffffffffffffffffffff1663d3419bf36040518163ffffffff1660e01b815260040160206040518083038186803b1580156115865760006000fd5b505afa15801561159b573d600060003e3d6000fd5b505050506040513d601f19601f820116820180604052508101906115bf9190613568565b90506000600d60005080549050905060008167ffffffffffffffff811180156115e85760006000fd5b506040519080825280602002602001820160405280156116175781602001602082028036833780820191505090505b5090506000600090505b82811015611721578373ffffffffffffffffffffffffffffffffffffffff1663ce403c13600d6000508381548110151561165757fe5b906000526020600020900160005b9054906101000a900473ffffffffffffffffffffffffffffffffffffffff166040518263ffffffff1660e01b81526004016116a09190613913565b602060405180830381600087803b1580156116bb5760006000fd5b505af11580156116d0573d600060003e3d6000fd5b505050506040513d601f19601f820116820180604052508101906116f49190613664565b828281518110151561170257fe5b60200260200101909081815260200150505b8080600101915050611621565b50600061173382611f0063ffffffff16565b9050600060405180606001604052806118b3886000015160086000506040518060c00160405290816000820160009054906101000a90046fffffffffffffffffffffffffffffffff166fffffffffffffffffffffffffffffffff166fffffffffffffffffffffffffffffffff1681526020016000820160109054906101000a90046fffffffffffffffffffffffffffffffff166fffffffffffffffffffffffffffffffff166fffffffffffffffffffffffffffffffff1681526020016001820160009054906101000a90046fffffffffffffffffffffffffffffffff166fffffffffffffffffffffffffffffffff166fffffffffffffffffffffffffffffffff1681526020016001820160109054906101000a900467ffffffffffffffff1667ffffffffffffffff1667ffffffffffffffff1681526020016002820160009054906101000a9004600f0b600f0b600f0b81526020016002820160109054906101000a9004600f0b600f0b600f0b8152602001505086611f3763ffffffff16565b81526020016118dd600760009054906101000a900467ffffffffffffffff1661297863ffffffff16565b67ffffffffffffffff16815260200161191961190c896119016126aa63ffffffff16565b6126c563ffffffff16565b6129ae909063ffffffff16565b6fffffffffffffffffffffffffffffffff16815260200150905080600b60005060008201518160000160005090905560208201518160010160006101000a81548167ffffffffffffffff021916908367ffffffffffffffff16021790555060408201518160010160086101000a8154816fffffffffffffffffffffffffffffffff02191690836fffffffffffffffffffffffffffffffff160217905550905050600060009054906101000a900473ffffffffffffffffffffffffffffffffffffffff1673ffffffffffffffffffffffffffffffffffffffff1663ef7a7cfa3383604001516040518363ffffffff1660e01b8152600401611a1a929190613896565b600060405180830381600087803b158015611a355760006000fd5b505af1158015611a4a573d600060003e3d6000fd5b505050507f9f912bcb7b057a4f10fbbee5785670aecb2ab545144237646e17398d55de72dc81600001518383604001518460200151604051611a8f9493929190613981565b60405180910390a15050505050505b5b611aad612a4863ffffffff16565b5b565b611abe611e2163ffffffff16565b600060009054906101000a900473ffffffffffffffffffffffffffffffffffffffff1673ffffffffffffffffffffffffffffffffffffffff1663ab658be26040518163ffffffff1660e01b815260040160006040518083038186803b158015611b275760006000fd5b505afa158015611b3c573d600060003e3d6000fd5b505050506040513d6000823e3d601f19601f82011682018060405250810190611b6591906133b5565b600d6000509080519060200190611b7d9291906132ef565b508073ffffffffffffffffffffffffffffffffffffffff16604051611ba19061380c565b60405180910390207f78caada2f560033c9479d8c5e33f045f2e611faebe6b6d8a73874c80ec2dd3a260405160405180910390a35b5b50565b611be8611e2163ffffffff16565b80600860005060010160106101000a81548167ffffffffffffffff021916908367ffffffffffffffff160217905550604051611c23906136b5565b60405180910390207f6293347933ad2997134e224ac8cd2e39908a4a22aeed9af52127b4bbf765297882604051611c5a9190613c26565b60405180910390a25b5b50565b600160009054906101000a900473ffffffffffffffffffffffffffffffffffffffff1681565b611c9b611e2163ffffffff16565b600860005060020160109054906101000a9004600f0b600f0b81600f0b121515611cc55760006000fd5b80600860005060020160006101000a8154816fffffffffffffffffffffffffffffffff0219169083600f0b6fffffffffffffffffffffffffffffffff160217905550604051611d139061383d565b60405180910390207f73372e841856ef3f75f5070dea5fbba697b24bf1b513158c125d0c7bbcc62fd282604051611d4a919061396c565b60405180910390a25b5b50565b611d65611e2163ffffffff16565b80600f0b600860005060020160009054906101000a9004600f0b600f0b121515611d8f5760006000fd5b80600860005060020160106101000a8154816fffffffffffffffffffffffffffffffff0219169083600f0b6fffffffffffffffffffffffffffffffff160217905550604051611ddd90613779565b60405180910390207f73372e841856ef3f75f5070dea5fbba697b24bf1b513158c125d0c7bbcc62fd282604051611e14919061396c565b60405180910390a25b5b50565b600060009054906101000a900473ffffffffffffffffffffffffffffffffffffffff1673ffffffffffffffffffffffffffffffffffffffff163373ffffffffffffffffffffffffffffffffffffffff16141515611eb3576040517f08c379a0000000000000000000000000000000000000000000000000000000008152600401611eaa90613a7e565b60405180910390fd5b5b565b6001600060146101000a81548160ff0219169083151502179055507f7acc84e34091ae817647a4c49116f5cc07f319078ba80f8f5fde37ea7e25cbd660405160405180910390a15b565b6000611f2b611f1483612adc63ffffffff16565b670de0b6b3a7640000612d5f90919063ffffffff16565b9050611f32565b919050565b60006000670de0b6b3a764000083109050600081611f5f57670de0b6b3a76400008403611f6b565b83670de0b6b3a7640000035b905084600001516fffffffffffffffffffffffffffffffff1681101515612064576000611fe3611fd6600188602001516fffffffffffffffffffffffffffffffff1685811515611fb757fe5b0401886060015167ffffffffffffffff16612d8590919063ffffffff16565b612da3909063ffffffff16565b67ffffffffffffffff169050600061202a61201d8389604001516fffffffffffffffffffffffffffffffff16612e3590919063ffffffff16565b612ed3909063ffffffff16565b905083612049576120448189612f7c90919063ffffffff16565b61205d565b61205c818961301390919063ffffffff16565b5b9750875050505b8460800151600f0b861215612080578460800151600f0b955085505b8460a00151600f0b86131561209c578460a00151600f0b955085505b85925050506120a85650505b9392505050565b6040518060c0016040528066038d7ea4c680006fffffffffffffffffffffffffffffffff1681526020016611c37937e080006fffffffffffffffffffffffffffffffff1681526020016611c37937e080006fffffffffffffffffffffffffffffffff168152602001600567ffffffffffffffff1681526020017ffffffffffffffffffffffffffffffffffffffffffffffffffdeb17cb73b10000600f0b81526020016706f05b59d3b20000600f0b815260200150600860005060008201518160000160006101000a8154816fffffffffffffffffffffffffffffffff02191690836fffffffffffffffffffffffffffffffff16021790555060208201518160000160106101000a8154816fffffffffffffffffffffffffffffffff02191690836fffffffffffffffffffffffffffffffff16021790555060408201518160010160006101000a8154816fffffffffffffffffffffffffffffffff02191690836fffffffffffffffffffffffffffffffff16021790555060608201518160010160106101000a81548167ffffffffffffffff021916908367ffffffffffffffff16021790555060808201518160020160006101000a8154816fffffffffffffffffffffffffffffffff0219169083600f0b6fffffffffffffffffffffffffffffffff16021790555060a08201518160020160106101000a8154816fffffffffffffffffffffffffffffffff0219169083600f0b6fffffffffffffffffffffffffffffffff160217905550905050604051806060016040528066b1a2bc2ec500008152602001612333600760009054906101000a900467ffffffffffffffff1661231b6126aa63ffffffff16565b67ffffffffffffffff166130aa90919063ffffffff16565b67ffffffffffffffff16815260200168056bc75e2d631000006fffffffffffffffffffffffffffffffff16815260200150600b60005060008201518160000160005090905560208201518160010160006101000a81548167ffffffffffffffff021916908367ffffffffffffffff16021790555060408201518160010160086101000a8154816fffffffffffffffffffffffffffffffff02191690836fffffffffffffffffffffffffffffffff16021790555090505060006040518060e001604052806380ddbdb460e01b7bffffffffffffffffffffffffffffffffffffffffffffffffffffffff19167bffffffffffffffffffffffffffffffffffffffffffffffffffffffff19168152602001635fd019ad60e01b7bffffffffffffffffffffffffffffffffffffffffffffffffffffffff19167bffffffffffffffffffffffffffffffffffffffffffffffffffffffff19168152602001636e16ead260e01b7bffffffffffffffffffffffffffffffffffffffffffffffffffffffff19167bffffffffffffffffffffffffffffffffffffffffffffffffffffffff19168152602001635d8350b460e01b7bffffffffffffffffffffffffffffffffffffffffffffffffffffffff19167bffffffffffffffffffffffffffffffffffffffffffffffffffffffff1916815260200163d3ab388860e01b7bffffffffffffffffffffffffffffffffffffffffffffffffffffffff19167bffffffffffffffffffffffffffffffffffffffffffffffffffffffff1916815260200163ee47304d60e01b7bffffffffffffffffffffffffffffffffffffffffffffffffffffffff19167bffffffffffffffffffffffffffffffffffffffffffffffffffffffff1916815260200163eec3f6f160e01b7bffffffffffffffffffffffffffffffffffffffffffffffffffffffff19167bffffffffffffffffffffffffffffffffffffffffffffffffffffffff191681526020015090506000600090505b815060078110156126a557600160056000506000848460078110151561262f57fe5b60200201517bffffffffffffffffffffffffffffffffffffffffffffffffffffffff19167bffffffffffffffffffffffffffffffffffffffffffffffffffffffff1916815260200190815260200160002060006101000a81548160ff0219169083151502179055505b808060010191505061260d565b50505b565b60006126bd42612da3909063ffffffff16565b905080505b90565b6000826020015167ffffffffffffffff168267ffffffffffffffff161115156126f1576000905061279e565b6000600284604001516fffffffffffffffffffffffffffffffff1681151561271557fe5b046fffffffffffffffffffffffffffffffff16905060006127538560200151850367ffffffffffffffff16610708846131479092919063ffffffff16565b82019050612793612784600587604001516fffffffffffffffffffffffffffffffff16612e3590919063ffffffff16565b82612d8590919063ffffffff16565b9250505061279e5650505b92915050565b600460009054906101000a900473ffffffffffffffffffffffffffffffffffffffff1673ffffffffffffffffffffffffffffffffffffffff1663e97dcb626040518163ffffffff1660e01b8152600401600060405180830381600087803b15801561280f5760006000fd5b505af1158015612824573d600060003e3d6000fd5b50505050600260066000505414151515612873576040517f08c379a000000000000000000000000000000000000000000000000000000000815260040161286a90613abd565b60405180910390fd5b600260066000508190909055505b565b61289161324863ffffffff16565b600060009054906101000a900473ffffffffffffffffffffffffffffffffffffffff1673ffffffffffffffffffffffffffffffffffffffff1663bf86d6906040518163ffffffff1660e01b815260040160206040518083038186803b1580156128fa5760006000fd5b505afa15801561290f573d600060003e3d6000fd5b505050506040513d601f19601f820116820180604052508101906129339190613479565b151515612975576040517f08c379a000000000000000000000000000000000000000000000000000000000815260040161296c90613a00565b60405180910390fd5b5b565b60006129a48261298c6126aa63ffffffff16565b67ffffffffffffffff166130aa90919063ffffffff16565b905080505b919050565b600070010000000000000000000000000000000082101515612a3b576040517f08c379a00000000000000000000000000000000000000000000000000000000081526004018080602001828103825260128152602001807f6d6f7265207468616e203132382062697473000000000000000000000000000081526020015060200191505060405180910390fd5b819050612a43565b919050565b60016006600050819090905550600460009054906101000a900473ffffffffffffffffffffffffffffffffffffffff1673ffffffffffffffffffffffffffffffffffffffff1663e9fad8ee6040518163ffffffff1660e01b8152600401600060405180830381600087803b158015612ac05760006000fd5b505af1158015612ad5573d600060003e3d6000fd5b505050505b565b6000600082519050600081111515612b29576040517f08c379a0000000000000000000000000000000000000000000000000000000008152600401612b2090613a3f565b60405180910390fd5b6000600060005b6002841115612cdc57856000815181101515612b4857fe5b602002602001015191508150856000815181101515612b6357fe5b6020026020010151905080506000600190505b84811015612bc2578681815181101515612b8c57fe5b60200260200101519350835082841015612ba65783925082505b81841115612bb45783915081505b5b8080600101915050612b76565b5080821415612bd75781945050505050612d5a565b60006002850367ffffffffffffffff81118015612bf45760006000fd5b50604051908082528060200260200182016040528015612c235781602001602082028036833780820191505090505b5090506000600060006000600090505b88811015612cc5578a81815181101515612c4957fe5b6020026020010151975087508688148015612c62575081155b15612c7257600191508150612cb7565b8588148015612c7f575082155b15612c8f57600192508250612cb6565b878585806001019650815181101515612ca457fe5b60200260200101909081815260200150505b5b5b8080600101915050612c33565b506002880397508750839950895050505050612b30565b6001841415612d0b57856000815181101515612cf457fe5b6020026020010151945050505050612d5a56612d55565b612d4a866001815181101515612d1d57fe5b6020026020010151876000815181101515612d3457fe5b602002602001015161329d90919063ffffffff16565b945050505050612d5a565b505050505b919050565b6000612d7a83670de0b6b3a76400008461314763ffffffff16565b905080505b92915050565b6000818310612d945781612d96565b825b9050612d9d565b92915050565b60006801000000000000000082101515612e28576040517f08c379a00000000000000000000000000000000000000000000000000000000081526004018080602001828103825260118152602001807f6d6f7265207468616e203634206269747300000000000000000000000000000081526020015060200191505060405180910390fd5b819050612e30565b919050565b60006000821480612e5557508282838502925082811515612e5257fe5b04145b1515612ecc576040517f08c379a000000000000000000000000000000000000000000000000000000000815260040180806020018281038252600c8152602001807f6d756c2d6f766572666c6f77000000000000000000000000000000000000000081526020015060200191505060405180910390fd5b5b92915050565b60007f800000000000000000000000000000000000000000000000000000000000000082101515612f6f576040517f08c379a00000000000000000000000000000000000000000000000000000000081526004018080602001828103825260128152602001807f746f6f2062696720666f7220696e74323536000000000000000000000000000081526020015060200191505060405180910390fd5b819050612f77565b919050565b60006000828403905060008312158015612f965750838113155b80612fac5750600083128015612fab57508381135b5b1515613003576040517f08c379a0000000000000000000000000000000000000000000000000000000008152600401808060200182810382526024815260200180613c8e6024913960400191505060405180910390fd5b8091505061300d56505b92915050565b6000600082840190506000831215801561302d5750838112155b80613043575060008312801561304257508381125b5b151561309a576040517f08c379a0000000000000000000000000000000000000000000000000000000008152600401808060200182810382526021815260200180613c6d6021913960400191505060405180910390fd5b809150506130a456505b92915050565b60008267ffffffffffffffff1682840191508167ffffffffffffffff1610151515613140576040517f08c379a000000000000000000000000000000000000000000000000000000000815260040180806020018281038252600c8152602001807f6164642d6f766572666c6f77000000000000000000000000000000000000000081526020015060200191505060405180910390fd5b5b92915050565b600060006000600019858709858702925082811083820303915050600081141561318a5760008411151561317b5760006000fd5b83820492508292505050613241565b80841115156131995760006000fd5b60008486880990508281118203915080830392506000858660000316905080860495508084049350600181826000030401905080830284179350835060006002876003021890508087026002038102905080508087026002038102905080508087026002038102905080508087026002038102905080508087026002038102905080508087026002038102905080508085029550855085955050505050506132415650505050505b9392505050565b600060149054906101000a900460ff1615151561329a576040517f08c379a000000000000000000000000000000000000000000000000000000000815260040161329190613b3b565b60405180910390fd5b5b565b600060026002838115156132ad57fe5b066002858115156132ba57fe5b06018115156132c557fe5b046002838115156132d257fe5b046002858115156132df57fe5b04010190506132e9565b92915050565b828054828255906000526020600020908101928215613368579160200282015b828111156133675782518260006101000a81548173ffffffffffffffffffffffffffffffffffffffff021916908373ffffffffffffffffffffffffffffffffffffffff1602179055509160200191906001019061330f565b5b5090506133759190613379565b5090565b61337e565b80821115613398576000818150600090555060010161337e565b509056613c6b565b6000815190506133af81613c42565b5b919050565b600060208083850312156133c7578182fd5b825167ffffffffffffffff808211156133de578384fd5b818501915085601f83011215156133f3578384fd5b8151818111156133ff57fe5b8381026040518582820101818110858211171561341857fe5b80604052508093508281528581019350858501898784880101111561343b578788fd5b8795505b8386101561346857613450816133a0565b8552868501945086810190505b60018601955061343f565b508096505050505050505b92915050565b60006020828403121561348a578081fd5b81518015158114151561349b578182fd5b809150505b92915050565b6000602082840312156134b7578081fd5b81357fffffffff000000000000000000000000000000000000000000000000000000008116811415156134e8578182fd5b809150505b92915050565b600060208284031215613504578081fd5b815161350f81613c42565b809150505b92915050565b60006020828403121561352b578081fd5b813561353681613c42565b809150505b92915050565b600060208284031215613552578081fd5b815161355d81613c42565b809150505b92915050565b600060208284031215613579578081fd5b815161358481613c42565b809150505b92915050565b6000602082840312156135a0578081fd5b81516135ab81613c42565b809150505b92915050565b6000602082840312156135c7578081fd5b81356135d281613c42565b809150505b92915050565b6000602082840312156135ee578081fd5b813580600f0b81141515613600578182fd5b809150505b92915050565b60006020828403121561361c578081fd5b81356fffffffffffffffffffffffffffffffff81168114151561363d578182fd5b809150505b92915050565b600060208284031215613659578081fd5b813590505b92915050565b600060208284031215613675578081fd5b815190505b92915050565b600060208284031215613691578081fd5b813567ffffffffffffffff8116811415156136aa578182fd5b809150505b92915050565b60007f6d6178537465707300000000000000000000000000000000000000000000000082526008820190505b919050565b60007f6572726f72496e74657276616c000000000000000000000000000000000000008252600d820190505b919050565b60007f61636365707461626c654572726f7200000000000000000000000000000000008252600f820190505b919050565b60007f6d696e54696d654265747765656e55706461746573000000000000000000000082526015820190505b919050565b60007f6d6178526174650000000000000000000000000000000000000000000000000082526007820190505b919050565b60007f72656d6f76655265666572656e6365506f6f6c0000000000000000000000000082526013820190505b919050565b60007f696e74657265737452617465537465700000000000000000000000000000000082526010820190505b919050565b60007f6164645265666572656e6365506f6f6c0000000000000000000000000000000082526010820190505b919050565b60007f6d696e526174650000000000000000000000000000000000000000000000000082526007820190505b919050565b600060208201905073ffffffffffffffffffffffffffffffffffffffff831682525b92915050565b600060408201905073ffffffffffffffffffffffffffffffffffffffff841682526fffffffffffffffffffffffffffffffff831660208301525b9392505050565b600060208201905082151582525b92915050565b600060208201905073ffffffffffffffffffffffffffffffffffffffff831682525b92915050565b600060208201905073ffffffffffffffffffffffffffffffffffffffff831682525b92915050565b600060408201905073ffffffffffffffffffffffffffffffffffffffff8416825282151560208301525b9392505050565b600060208201905082600f0b82525b92915050565b60006080820190508582528460208301526fffffffffffffffffffffffffffffffff8416604083015267ffffffffffffffff831660608301525b95945050505050565b600060608201905084825267ffffffffffffffff841660208301526fffffffffffffffffffffffffffffffff831660408301525b949350505050565b600060208252601160208301527f50726f746f636f6c2073687574646f776e00000000000000000000000000000060408301526060820190505b919050565b600060208252600960208301527f4e6f20707269636573000000000000000000000000000000000000000000000060408301526060820190505b919050565b600060208252600e60208301527f4e6f7420417574686f72697a656400000000000000000000000000000000000060408301526060820190505b919050565b600060208252600d60208301527f4c50205265656e7472616e63790000000000000000000000000000000000000060408301526060820190505b919050565b600060208252601060208301527f557064617465206e6f742072656164790000000000000000000000000000000060408301526060820190505b919050565b600060208252601360208301527f436f6e74726163742069732073746f707065640000000000000000000000000060408301526060820190505b919050565b60006020820190506fffffffffffffffffffffffffffffffff831682525b92915050565b600060c0820190506fffffffffffffffffffffffffffffffff8089168352808816602084015280871660408401525067ffffffffffffffff8516606083015283600f0b608083015282600f0b60a08301525b979650505050505050565b60006020820190508282525b92915050565b60006040820190508382528260208301525b9392505050565b600060208201905067ffffffffffffffff831682525b92915050565b73ffffffffffffffffffffffffffffffffffffffff811681141515613c675760006000fd5b5b50565bfe5369676e6564536166654d6174683a206164646974696f6e206f766572666c6f775369676e6564536166654d6174683a207375627472616374696f6e206f766572666c6f77a2646970667358221220700a94ce005cfac1d356fa5d3ab3eb37ef88db44ffd115645fdb316544ec619c64736f6c63430007060033",
  "linkReferences": {},
  "deployedLinkReferences": {}
}