{
  "_format": "hh-sol-artifact-1",
  "contractName": "Rates",
  "sourceName": "contracts/core/logic/Rates.sol",
  "abi": [
    {
      "anonymous": false,
      "inputs": [
        {
          "indexed": true,
          "internalType": "address",
          "name": "governor",
          "type": "address"
        }
      ],
      "name": "Initialized",
      "type": "event"
    },
    {
      "anonymous": false,
      "inputs": [
        {
          "indexed": true,
          "internalType": "string",
          "name": "paramName",
          "type": "string"
        },
        {
          "indexed": false,
          "internalType": "uint128",
          "name": "value",
          "type": "uint128"
        }
      ],
      "name": "ParameterUpdated128",
      "type": "event"
    },
    {
      "anonymous": false,
      "inputs": [
        {
          "indexed": true,
          "internalType": "string",
          "name": "paramName",
          "type": "string"
        },
        {
          "indexed": false,
          "internalType": "uint64",
          "name": "value",
          "type": "uint64"
        }
      ],
      "name": "ParameterUpdated64",
      "type": "event"
    },
    {
      "anonymous": false,
      "inputs": [
        {
          "indexed": true,
          "internalType": "string",
          "name": "paramName",
          "type": "string"
        },
        {
          "indexed": false,
          "internalType": "int128",
          "name": "value",
          "type": "int128"
        }
      ],
      "name": "ParameterUpdatedInt128",
      "type": "event"
    },
    {
      "anonymous": false,
      "inputs": [
        {
          "indexed": false,
          "internalType": "int256",
          "name": "interestRate",
          "type": "int256"
        },
        {
          "indexed": false,
          "internalType": "uint256",
          "name": "price",
          "type": "uint256"
        },
        {
          "indexed": false,
          "internalType": "uint256",
          "name": "rewardCount",
          "type": "uint256"
        },
        {
          "indexed": false,
          "internalType": "uint64",
          "name": "nextUpdateTime",
          "type": "uint64"
        }
      ],
      "name": "RateUpdated",
      "type": "event"
    },
    {
      "anonymous": false,
      "inputs": [],
      "name": "Stopped",
      "type": "event"
    },
    {
      "inputs": [
        {
          "internalType": "uint256",
          "name": "price0",
          "type": "uint256"
        },
        {
          "internalType": "uint256",
          "name": "price1",
          "type": "uint256"
        },
        {
          "internalType": "uint256",
          "name": "price2",
          "type": "uint256"
        }
      ],
      "name": "calculatePrice",
      "outputs": [
        {
          "internalType": "uint256",
          "name": "price",
          "type": "uint256"
        }
      ],
      "stateMutability": "view",
      "type": "function"
    },
    {
      "inputs": [],
      "name": "completeSetup",
      "outputs": [],
      "stateMutability": "nonpayable",
      "type": "function"
    },
    {
      "inputs": [],
      "name": "deployer",
      "outputs": [
        {
          "internalType": "address",
          "name": "",
          "type": "address"
        }
      ],
      "stateMutability": "view",
      "type": "function"
    },
    {
      "inputs": [],
      "name": "getRewardCount",
      "outputs": [
        {
          "internalType": "uint256",
          "name": "newRewardCount",
          "type": "uint256"
        }
      ],
      "stateMutability": "view",
      "type": "function"
    },
    {
      "inputs": [],
      "name": "governor",
      "outputs": [
        {
          "internalType": "contract IGovernor",
          "name": "",
          "type": "address"
        }
      ],
      "stateMutability": "view",
      "type": "function"
    },
    {
      "inputs": [
        {
          "internalType": "contract IGovernor",
          "name": "_governor",
          "type": "address"
        }
      ],
      "name": "init",
      "outputs": [],
      "stateMutability": "nonpayable",
      "type": "function"
    },
    {
      "inputs": [],
      "name": "interestRateAbsoluteValue",
      "outputs": [
        {
          "internalType": "uint256",
          "name": "",
          "type": "uint256"
        }
      ],
      "stateMutability": "view",
      "type": "function"
    },
    {
      "inputs": [],
      "name": "maxPriceAge",
      "outputs": [
        {
          "internalType": "uint64",
          "name": "",
          "type": "uint64"
        }
      ],
      "stateMutability": "view",
      "type": "function"
    },
    {
      "inputs": [],
      "name": "maxSteps",
      "outputs": [
        {
          "internalType": "uint64",
          "name": "",
          "type": "uint64"
        }
      ],
      "stateMutability": "view",
      "type": "function"
    },
    {
      "inputs": [],
      "name": "maxTwapTime",
      "outputs": [
        {
          "internalType": "uint64",
          "name": "",
          "type": "uint64"
        }
      ],
      "stateMutability": "view",
      "type": "function"
    },
    {
      "inputs": [],
      "name": "minTimeBetweenUpdates",
      "outputs": [
        {
          "internalType": "uint64",
          "name": "",
          "type": "uint64"
        }
      ],
      "stateMutability": "view",
      "type": "function"
    },
    {
      "inputs": [
        {
          "internalType": "uint256",
          "name": "",
          "type": "uint256"
        }
      ],
      "name": "pairs",
      "outputs": [
        {
          "internalType": "contract IUniswapV2Pair",
          "name": "",
          "type": "address"
        }
      ],
      "stateMutability": "view",
      "type": "function"
    },
    {
      "inputs": [],
      "name": "positiveInterestRate",
      "outputs": [
        {
          "internalType": "bool",
          "name": "",
          "type": "bool"
        }
      ],
      "stateMutability": "view",
      "type": "function"
    },
    {
      "inputs": [],
      "name": "rateConfig",
      "outputs": [
        {
          "internalType": "uint128",
          "name": "acceptableError",
          "type": "uint128"
        },
        {
          "internalType": "uint128",
          "name": "errorInterval",
          "type": "uint128"
        },
        {
          "internalType": "uint128",
          "name": "interestRateStep",
          "type": "uint128"
        },
        {
          "internalType": "uint64",
          "name": "maxSteps",
          "type": "uint64"
        },
        {
          "internalType": "int128",
          "name": "minRate",
          "type": "int128"
        }
      ],
      "stateMutability": "view",
      "type": "function"
    },
    {
      "inputs": [
        {
          "internalType": "uint128",
          "name": "error",
          "type": "uint128"
        }
      ],
      "name": "setAcceptableError",
      "outputs": [],
      "stateMutability": "nonpayable",
      "type": "function"
    },
    {
      "inputs": [
        {
          "internalType": "uint128",
          "name": "interval",
          "type": "uint128"
        }
      ],
      "name": "setErrorInterval",
      "outputs": [],
      "stateMutability": "nonpayable",
      "type": "function"
    },
    {
      "inputs": [
        {
          "internalType": "uint128",
          "name": "step",
          "type": "uint128"
        }
      ],
      "name": "setInterestRateStep",
      "outputs": [],
      "stateMutability": "nonpayable",
      "type": "function"
    },
    {
      "inputs": [
        {
          "internalType": "uint64",
          "name": "age",
          "type": "uint64"
        }
      ],
      "name": "setMaxPriceAge",
      "outputs": [],
      "stateMutability": "nonpayable",
      "type": "function"
    },
    {
      "inputs": [
        {
          "internalType": "uint64",
          "name": "steps",
          "type": "uint64"
        }
      ],
      "name": "setMaxSteps",
      "outputs": [],
      "stateMutability": "nonpayable",
      "type": "function"
    },
    {
      "inputs": [
        {
          "internalType": "uint64",
          "name": "time",
          "type": "uint64"
        }
      ],
      "name": "setMaxTwapTime",
      "outputs": [],
      "stateMutability": "nonpayable",
      "type": "function"
    },
    {
      "inputs": [
        {
          "internalType": "int128",
          "name": "min",
          "type": "int128"
        }
      ],
      "name": "setMinRate",
      "outputs": [],
      "stateMutability": "nonpayable",
      "type": "function"
    },
    {
      "inputs": [
        {
          "internalType": "uint64",
          "name": "time",
          "type": "uint64"
        }
      ],
      "name": "setMinTimeBetweenUpdates",
      "outputs": [],
      "stateMutability": "nonpayable",
      "type": "function"
    },
    {
      "inputs": [
        {
          "internalType": "uint128",
          "name": "range",
          "type": "uint128"
        }
      ],
      "name": "setValidRangeForRawPrices",
      "outputs": [],
      "stateMutability": "nonpayable",
      "type": "function"
    },
    {
      "inputs": [],
      "name": "stepsOff",
      "outputs": [
        {
          "internalType": "uint64",
          "name": "",
          "type": "uint64"
        }
      ],
      "stateMutability": "view",
      "type": "function"
    },
    {
      "inputs": [],
      "name": "stop",
      "outputs": [],
      "stateMutability": "nonpayable",
      "type": "function"
    },
    {
      "inputs": [],
      "name": "stopped",
      "outputs": [
        {
          "internalType": "bool",
          "name": "",
          "type": "bool"
        }
      ],
      "stateMutability": "view",
      "type": "function"
    },
    {
      "inputs": [],
      "name": "storedRateData",
      "outputs": [
        {
          "internalType": "int256",
          "name": "rate",
          "type": "int256"
        },
        {
          "internalType": "uint64",
          "name": "stepsOff",
          "type": "uint64"
        },
        {
          "internalType": "uint64",
          "name": "nextUpdateTime",
          "type": "uint64"
        },
        {
          "internalType": "uint128",
          "name": "rewardCount",
          "type": "uint128"
        }
      ],
      "stateMutability": "view",
      "type": "function"
    },
    {
      "inputs": [],
      "name": "update",
      "outputs": [],
      "stateMutability": "nonpayable",
      "type": "function"
    },
    {
      "inputs": [],
      "name": "validRangeForRawPrices",
      "outputs": [
        {
          "internalType": "uint128",
          "name": "",
          "type": "uint128"
        }
      ],
      "stateMutability": "view",
      "type": "function"
    },
    {
      "inputs": [
        {
          "internalType": "bytes4",
          "name": "action",
          "type": "bytes4"
        }
      ],
      "name": "validUpdate",
      "outputs": [
        {
          "internalType": "bool",
          "name": "",
          "type": "bool"
        }
      ],
      "stateMutability": "view",
      "type": "function"
    }
  ],
  "bytecode": "0x60806040526702c68af0bb140000600760006101000a8154816fffffffffffffffffffffffffffffffff02191690836fffffffffffffffffffffffffffffffff16021790555061a1b8600760106101000a81548167ffffffffffffffff021916908367ffffffffffffffff16021790555062015180600760186101000a81548167ffffffffffffffff021916908367ffffffffffffffff160217905550612a30600860006101000a81548167ffffffffffffffff021916908367ffffffffffffffff1602179055503480156100d357600080fd5b5033600160006101000a81548173ffffffffffffffffffffffffffffffffffffffff021916908373ffffffffffffffffffffffffffffffffffffffff160217905550600160068190555061456e8061012c6000396000f3fe608060405234801561001057600080fd5b50600436106101da5760003560e01c806375f12b2111610104578063b7bbba85116100a2578063d3ab388811610071578063d3ab388814610722578063d5f394881461075a578063e015c62a1461078e578063ee47304d146107e4576101da565b8063b7bbba851461062a578063b91ac78814610662578063c737ea62146106ba578063d076c389146106fa576101da565b806380ddbdb4116100de57806380ddbdb4146105b85780638aea8f71146105f8578063a0fc0eda14610602578063a2e6204514610620576101da565b806375f12b211461054a57806377a354421461056a5780637e7e8eec1461059a576101da565b806329b426aa1161017c5780635d8350b41161014b5780635d8350b4146104725780635fd019ad146104aa5780636d7fa664146104ea5780636e16ead21461050a576101da565b806329b426aa1461036d578063372b0728146103955780633840ffe314610412578063538cebd41461044a576101da565b8063129bc3cb116101b8578063129bc3cb146102805780631584410a146102d957806319a6e9e61461030157806319ab453c14610329576101da565b806307da68f5146101df5780630c340a24146101e9578063113cf1ab1461021d575b600080fd5b6101e7610815565b005b6101f16108e0565b604051808273ffffffffffffffffffffffffffffffffffffffff16815260200191505060405180910390f35b6102686004803603602081101561023357600080fd5b8101908080357bffffffffffffffffffffffffffffffffffffffffffffffffffffffff19169060200190929190505050610904565b60405180821515815260200191505060405180910390f35b61028861096c565b604051808581526020018467ffffffffffffffff1681526020018367ffffffffffffffff168152602001826fffffffffffffffffffffffffffffffff16815260200194505050505060405180910390f35b6102e16109ce565b604051808267ffffffffffffffff16815260200191505060405180910390f35b6103096109e8565b604051808267ffffffffffffffff16815260200191505060405180910390f35b61036b6004803603602081101561033f57600080fd5b81019080803573ffffffffffffffffffffffffffffffffffffffff169060200190929190505050610a02565b005b610375610e1b565b604051808267ffffffffffffffff16815260200191505060405180910390f35b61039d610e35565b60405180866fffffffffffffffffffffffffffffffff168152602001856fffffffffffffffffffffffffffffffff168152602001846fffffffffffffffffffffffffffffffff1681526020018367ffffffffffffffff16815260200182600f0b81526020019550505050505060405180910390f35b6104486004803603602081101561042857600080fd5b81019080803567ffffffffffffffff169060200190929190505050610ece565b005b6104526111f4565b604051808267ffffffffffffffff16815260200191505060405180910390f35b6104a86004803603602081101561048857600080fd5b81019080803567ffffffffffffffff169060200190929190505050611215565b005b6104e8600480360360208110156104c057600080fd5b8101908080356fffffffffffffffffffffffffffffffff16906020019092919050505061140f565b005b6104f261161d565b60405180821515815260200191505060405180910390f35b6105486004803603602081101561052057600080fd5b8101908080356fffffffffffffffffffffffffffffffff16906020019092919050505061162c565b005b61055261183a565b60405180821515815260200191505060405180910390f35b61057261184d565b60405180826fffffffffffffffffffffffffffffffff16815260200191505060405180910390f35b6105a261186f565b6040518082815260200191505060405180910390f35b6105f6600480360360208110156105ce57600080fd5b8101908080356fffffffffffffffffffffffffffffffff16906020019092919050505061195a565b005b610600611b68565b005b61060a611db1565b6040518082815260200191505060405180910390f35b610628611dd5565b005b6106606004803603602081101561064057600080fd5b81019080803567ffffffffffffffff169060200190929190505050612a7b565b005b61068e6004803603602081101561067857600080fd5b8101908080359060200190929190505050612bdf565b604051808273ffffffffffffffffffffffffffffffffffffffff16815260200191505060405180910390f35b6106f8600480360360208110156106d057600080fd5b8101908080356fffffffffffffffffffffffffffffffff169060200190929190505050612c1e565b005b610702612e47565b604051808267ffffffffffffffff16815260200191505060405180910390f35b6107586004803603602081101561073857600080fd5b81019080803567ffffffffffffffff169060200190929190505050612e68565b005b610762612fcf565b604051808273ffffffffffffffffffffffffffffffffffffffff16815260200191505060405180910390f35b6107ce600480360360608110156107a457600080fd5b81019080803590602001909291908035906020019092919080359060200190929190505050612ff5565b6040518082815260200191505060405180910390f35b610813600480360360208110156107fa57600080fd5b810190808035600f0b906020019092919050505061303c565b005b60008054906101000a900473ffffffffffffffffffffffffffffffffffffffff1673ffffffffffffffffffffffffffffffffffffffff163373ffffffffffffffffffffffffffffffffffffffff16146108d6576040517f08c379a00000000000000000000000000000000000000000000000000000000081526004018080602001828103825260198152602001807f476f7665726e65643a204e6f7420417574686f72697a65642e0000000000000081525060200191505060405180910390fd5b6108de6131af565b565b60008054906101000a900473ffffffffffffffffffffffffffffffffffffffff1681565b600060056000837bffffffffffffffffffffffffffffffffffffffffffffffffffffffff19167bffffffffffffffffffffffffffffffffffffffffffffffffffffffff1916815260200190815260200160002060009054906101000a900460ff169050919050565b600c8060000154908060010160009054906101000a900467ffffffffffffffff16908060010160089054906101000a900467ffffffffffffffff16908060010160109054906101000a90046fffffffffffffffffffffffffffffffff16905084565b600860009054906101000a900467ffffffffffffffff1681565b600760109054906101000a900467ffffffffffffffff1681565b600160009054906101000a900473ffffffffffffffffffffffffffffffffffffffff1673ffffffffffffffffffffffffffffffffffffffff163373ffffffffffffffffffffffffffffffffffffffff1614610ac5576040517f08c379a000000000000000000000000000000000000000000000000000000000815260040180806020018281038252601e8152602001807f476f7665726e65643a20496e6974206e6f7420617574686f72697a65642e000081525060200191505060405180910390fd5b600160006101000a81549073ffffffffffffffffffffffffffffffffffffffff0219169055806000806101000a81548173ffffffffffffffffffffffffffffffffffffffff021916908373ffffffffffffffffffffffffffffffffffffffff16021790555060008054906101000a900473ffffffffffffffffffffffffffffffffffffffff1673ffffffffffffffffffffffffffffffffffffffff16639624e83e6040518163ffffffff1660e01b815260040160206040518083038186803b158015610b9057600080fd5b505afa158015610ba4573d6000803e3d6000fd5b505050506040513d6020811015610bba57600080fd5b8101908080519060200190929190505050600260006101000a81548173ffffffffffffffffffffffffffffffffffffffff021916908373ffffffffffffffffffffffffffffffffffffffff16021790555060008054906101000a900473ffffffffffffffffffffffffffffffffffffffff1673ffffffffffffffffffffffffffffffffffffffff166311df99956040518163ffffffff1660e01b815260040160206040518083038186803b158015610c7157600080fd5b505afa158015610c85573d6000803e3d6000fd5b505050506040513d6020811015610c9b57600080fd5b8101908080519060200190929190505050600360006101000a81548173ffffffffffffffffffffffffffffffffffffffff021916908373ffffffffffffffffffffffffffffffffffffffff16021790555060008054906101000a900473ffffffffffffffffffffffffffffffffffffffff1673ffffffffffffffffffffffffffffffffffffffff1663d478b0876040518163ffffffff1660e01b815260040160206040518083038186803b158015610d5257600080fd5b505afa158015610d66573d6000803e3d6000fd5b505050506040513d6020811015610d7c57600080fd5b8101908080519060200190929190505050600460006101000a81548173ffffffffffffffffffffffffffffffffffffffff021916908373ffffffffffffffffffffffffffffffffffffffff160217905550610dd56131f8565b8073ffffffffffffffffffffffffffffffffffffffff167f908408e307fc569b417f6cbec5d5a06f44a0a505ac0479b47d421a4b2fd6a1e660405160405180910390a250565b600760189054906101000a900467ffffffffffffffff1681565b60098060000160009054906101000a90046fffffffffffffffffffffffffffffffff16908060000160109054906101000a90046fffffffffffffffffffffffffffffffff16908060010160009054906101000a90046fffffffffffffffffffffffffffffffff16908060010160109054906101000a900467ffffffffffffffff16908060020160009054906101000a9004600f0b905085565b60008054906101000a900473ffffffffffffffffffffffffffffffffffffffff1673ffffffffffffffffffffffffffffffffffffffff163373ffffffffffffffffffffffffffffffffffffffff1614610f8f576040517f08c379a00000000000000000000000000000000000000000000000000000000081526004018080602001828103825260198152602001807f476f7665726e65643a204e6f7420417574686f72697a65642e0000000000000081525060200191505060405180910390fd5b80600760186101000a81548167ffffffffffffffff021916908367ffffffffffffffff160217905550600260008054906101000a900473ffffffffffffffffffffffffffffffffffffffff1673ffffffffffffffffffffffffffffffffffffffff1663d3419bf36040518163ffffffff1660e01b815260040160206040518083038186803b15801561102057600080fd5b505afa158015611034573d6000803e3d6000fd5b505050506040513d602081101561104a57600080fd5b810190808051906020019092919050505073ffffffffffffffffffffffffffffffffffffffff1663c31ff2db6040518163ffffffff1660e01b815260040160206040518083038186803b1580156110a057600080fd5b505afa1580156110b4573d6000803e3d6000fd5b505050506040513d60208110156110ca57600080fd5b81019080805190602001909291905050500267ffffffffffffffff16600760189054906101000a900467ffffffffffffffff1667ffffffffffffffff161161117a576040517f08c379a000000000000000000000000000000000000000000000000000000000815260040180806020018281038252600d8152602001807f496e76616c69642076616c75650000000000000000000000000000000000000081525060200191505060405180910390fd5b60405180807f6d61785477617054696d65000000000000000000000000000000000000000000815250600b01905060405180910390207f6293347933ad2997134e224ac8cd2e39908a4a22aeed9af52127b4bbf765297882604051808267ffffffffffffffff16815260200191505060405180910390a250565b6000600c60010160009054906101000a900467ffffffffffffffff16905090565b60008054906101000a900473ffffffffffffffffffffffffffffffffffffffff1673ffffffffffffffffffffffffffffffffffffffff163373ffffffffffffffffffffffffffffffffffffffff16146112d6576040517f08c379a00000000000000000000000000000000000000000000000000000000081526004018080602001828103825260198152602001807f476f7665726e65643a204e6f7420417574686f72697a65642e0000000000000081525060200191505060405180910390fd5b80600760106101000a81548167ffffffffffffffff021916908367ffffffffffffffff1602179055506000600760109054906101000a900467ffffffffffffffff1667ffffffffffffffff1611611395576040517f08c379a000000000000000000000000000000000000000000000000000000000815260040180806020018281038252600d8152602001807f496e76616c69642076616c75650000000000000000000000000000000000000081525060200191505060405180910390fd5b60405180807f6d696e54696d654265747765656e557064617465730000000000000000000000815250601501905060405180910390207f6293347933ad2997134e224ac8cd2e39908a4a22aeed9af52127b4bbf765297882604051808267ffffffffffffffff16815260200191505060405180910390a250565b60008054906101000a900473ffffffffffffffffffffffffffffffffffffffff1673ffffffffffffffffffffffffffffffffffffffff163373ffffffffffffffffffffffffffffffffffffffff16146114d0576040517f08c379a00000000000000000000000000000000000000000000000000000000081526004018080602001828103825260198152602001807f476f7665726e65643a204e6f7420417574686f72697a65642e0000000000000081525060200191505060405180910390fd5b670de0b6b3a7640000816fffffffffffffffffffffffffffffffff161061155f576040517f08c379a000000000000000000000000000000000000000000000000000000000815260040180806020018281038252600d8152602001807f496e76616c69642076616c75650000000000000000000000000000000000000081525060200191505060405180910390fd5b80600960000160106101000a8154816fffffffffffffffffffffffffffffffff02191690836fffffffffffffffffffffffffffffffff16021790555060405180807f6572726f72496e74657276616c00000000000000000000000000000000000000815250600d01905060405180910390207ff92f7fc8addd796154d83393012a119e212b31cb3dc9776133129db4c5747fcc8260405180826fffffffffffffffffffffffffffffffff16815260200191505060405180910390a250565b600080600c6000015413905090565b60008054906101000a900473ffffffffffffffffffffffffffffffffffffffff1673ffffffffffffffffffffffffffffffffffffffff163373ffffffffffffffffffffffffffffffffffffffff16146116ed576040517f08c379a00000000000000000000000000000000000000000000000000000000081526004018080602001828103825260198152602001807f476f7665726e65643a204e6f7420417574686f72697a65642e0000000000000081525060200191505060405180910390fd5b670de0b6b3a7640000816fffffffffffffffffffffffffffffffff161061177c576040517f08c379a000000000000000000000000000000000000000000000000000000000815260040180806020018281038252600d8152602001807f496e76616c69642076616c75650000000000000000000000000000000000000081525060200191505060405180910390fd5b80600960010160006101000a8154816fffffffffffffffffffffffffffffffff02191690836fffffffffffffffffffffffffffffffff16021790555060405180807f696e746572657374526174655374657000000000000000000000000000000000815250601001905060405180910390207ff92f7fc8addd796154d83393012a119e212b31cb3dc9776133129db4c5747fcc8260405180826fffffffffffffffffffffffffffffffff16815260200191505060405180910390a250565b600060149054906101000a900460ff1681565b600760009054906101000a90046fffffffffffffffffffffffffffffffff1681565b60008061187a613824565b90506000600c60010160089054906101000a900467ffffffffffffffff1690506000600c60010160109054906101000a90046fffffffffffffffffffffffffffffffff166fffffffffffffffffffffffffffffffff1690506000600282816118de57fe5b0490508267ffffffffffffffff168467ffffffffffffffff16106119265761191f83850367ffffffffffffffff16610708836138349092919063ffffffff16565b8101611929565b60005b9450611951611942600a8461394390919063ffffffff16565b866139c990919063ffffffff16565b94505050505090565b60008054906101000a900473ffffffffffffffffffffffffffffffffffffffff1673ffffffffffffffffffffffffffffffffffffffff163373ffffffffffffffffffffffffffffffffffffffff1614611a1b576040517f08c379a00000000000000000000000000000000000000000000000000000000081526004018080602001828103825260198152602001807f476f7665726e65643a204e6f7420417574686f72697a65642e0000000000000081525060200191505060405180910390fd5b670de0b6b3a7640000816fffffffffffffffffffffffffffffffff1610611aaa576040517f08c379a000000000000000000000000000000000000000000000000000000000815260040180806020018281038252600d8152602001807f496e76616c69642076616c75650000000000000000000000000000000000000081525060200191505060405180910390fd5b80600960000160006101000a8154816fffffffffffffffffffffffffffffffff02191690836fffffffffffffffffffffffffffffffff16021790555060405180807f61636365707461626c654572726f720000000000000000000000000000000000815250600f01905060405180910390207ff92f7fc8addd796154d83393012a119e212b31cb3dc9776133129db4c5747fcc8260405180826fffffffffffffffffffffffffffffffff16815260200191505060405180910390a250565b60008054906101000a900473ffffffffffffffffffffffffffffffffffffffff1673ffffffffffffffffffffffffffffffffffffffff163373ffffffffffffffffffffffffffffffffffffffff1614611c29576040517f08c379a00000000000000000000000000000000000000000000000000000000081526004018080602001828103825260198152602001807f476f7665726e65643a204e6f7420417574686f72697a65642e0000000000000081525060200191505060405180910390fd5b600f60009054906101000a900460ff1615611c4357600080fd5b6001600f60006101000a81548160ff02191690831515021790555060008054906101000a900473ffffffffffffffffffffffffffffffffffffffff1673ffffffffffffffffffffffffffffffffffffffff16635a50aaf26040518163ffffffff1660e01b815260040160006040518083038186803b158015611cc457600080fd5b505afa158015611cd8573d6000803e3d6000fd5b505050506040513d6000823e3d601f19601f820116820180604052506020811015611d0257600080fd5b8101908080516040519392919084640100000000821115611d2257600080fd5b83820191506020820185811115611d3857600080fd5b8251866020820283011164010000000082111715611d5557600080fd5b8083526020830192505050908051906020019060200280838360005b83811015611d8c578082015181840152602081019050611d71565b50505050905001604052505050600e9080519060200190611dae9291906142d7565b50565b600080600c60000154905060008112611dca5780611dcf565b806000035b91505090565b600460009054906101000a900473ffffffffffffffffffffffffffffffffffffffff1673ffffffffffffffffffffffffffffffffffffffff1663e97dcb626040518163ffffffff1660e01b8152600401600060405180830381600087803b158015611e3f57600080fd5b505af1158015611e53573d6000803e3d6000fd5b5050505060026006541415611ed0576040517f08c379a000000000000000000000000000000000000000000000000000000000815260040180806020018281038252601d8152602001807f4c6f636b50726f746f636f6c3a207265656e7472616e742063616c6c2e00000081525060200191505060405180910390fd5b6002600681905550600060149054906101000a900460ff1615611f5b576040517f08c379a000000000000000000000000000000000000000000000000000000000815260040180806020018281038252601e8152602001807f476f7665726e65643a20436f6e74726163742069732073746f707065642e000081525060200191505060405180910390fd5b60008054906101000a900473ffffffffffffffffffffffffffffffffffffffff1673ffffffffffffffffffffffffffffffffffffffff1663bf86d6906040518163ffffffff1660e01b815260040160206040518083038186803b158015611fc157600080fd5b505afa158015611fd5573d6000803e3d6000fd5b505050506040513d6020811015611feb57600080fd5b810190808051906020019092919050505015612052576040517f08c379a000000000000000000000000000000000000000000000000000000000815260040180806020018281038252602881526020018061445a6028913960400191505060405180910390fd5b61205a613824565b67ffffffffffffffff16600c60010160089054906101000a900467ffffffffffffffff1667ffffffffffffffff1611156120df576040517f08c379a00000000000000000000000000000000000000000000000000000000081526004018080602001828103825260248152602001806144826024913960400191505060405180910390fd5b60008060009054906101000a900473ffffffffffffffffffffffffffffffffffffffff1673ffffffffffffffffffffffffffffffffffffffff1663d3419bf36040518163ffffffff1660e01b815260040160206040518083038186803b15801561214857600080fd5b505afa15801561215c573d6000803e3d6000fd5b505050506040513d602081101561217257600080fd5b8101908080519060200190929190505050905060008173ffffffffffffffffffffffffffffffffffffffff1663fb5bb243600e6000815481106121b157fe5b9060005260206000200160009054906101000a900473ffffffffffffffffffffffffffffffffffffffff16600760189054906101000a900467ffffffffffffffff16600860009054906101000a900467ffffffffffffffff1660016040518563ffffffff1660e01b8152600401808573ffffffffffffffffffffffffffffffffffffffff1681526020018467ffffffffffffffff1681526020018367ffffffffffffffff16815260200182151581526020019450505050506040805180830381600087803b15801561228257600080fd5b505af1158015612296573d6000803e3d6000fd5b505050506040513d60408110156122ac57600080fd5b81019080805190602001909291908051906020019092919050505050905060008273ffffffffffffffffffffffffffffffffffffffff1663fb5bb243600e6001815481106122f657fe5b9060005260206000200160009054906101000a900473ffffffffffffffffffffffffffffffffffffffff16600760189054906101000a900467ffffffffffffffff16600860009054906101000a900467ffffffffffffffff1660016040518563ffffffff1660e01b8152600401808573ffffffffffffffffffffffffffffffffffffffff1681526020018467ffffffffffffffff1681526020018367ffffffffffffffff16815260200182151581526020019450505050506040805180830381600087803b1580156123c757600080fd5b505af11580156123db573d6000803e3d6000fd5b505050506040513d60408110156123f157600080fd5b81019080805190602001909291908051906020019092919050505050905060008373ffffffffffffffffffffffffffffffffffffffff1663fb5bb243600e60028154811061243b57fe5b9060005260206000200160009054906101000a900473ffffffffffffffffffffffffffffffffffffffff16600760189054906101000a900467ffffffffffffffff16600860009054906101000a900467ffffffffffffffff1660016040518563ffffffff1660e01b8152600401808573ffffffffffffffffffffffffffffffffffffffff1681526020018467ffffffffffffffff1681526020018367ffffffffffffffff16815260200182151581526020019450505050506040805180830381600087803b15801561250c57600080fd5b505af1158015612520573d6000803e3d6000fd5b505050506040513d604081101561253657600080fd5b8101908080519060200190929190805190602001909291905050505090506000612561848484612ff5565b905060008114156125765750505050506129ef565b61257e614361565b612786600c604051806080016040529081600082015481526020016001820160009054906101000a900467ffffffffffffffff1667ffffffffffffffff1667ffffffffffffffff1681526020016001820160089054906101000a900467ffffffffffffffff1667ffffffffffffffff1667ffffffffffffffff1681526020016001820160109054906101000a90046fffffffffffffffffffffffffffffffff166fffffffffffffffffffffffffffffffff166fffffffffffffffffffffffffffffffff168152505060096040518060a00160405290816000820160009054906101000a90046fffffffffffffffffffffffffffffffff166fffffffffffffffffffffffffffffffff166fffffffffffffffffffffffffffffffff1681526020016000820160109054906101000a90046fffffffffffffffffffffffffffffffff166fffffffffffffffffffffffffffffffff166fffffffffffffffffffffffffffffffff1681526020016001820160009054906101000a90046fffffffffffffffffffffffffffffffff166fffffffffffffffffffffffffffffffff166fffffffffffffffffffffffffffffffff1681526020016001820160109054906101000a900467ffffffffffffffff1667ffffffffffffffff1667ffffffffffffffff1681526020016002820160009054906101000a9004600f0b600f0b600f0b81525050846139e2565b905061279861279361186f565b613b84565b81606001906fffffffffffffffffffffffffffffffff1690816fffffffffffffffffffffffffffffffff16815250506127e6600760109054906101000a900467ffffffffffffffff16613bf7565b816040019067ffffffffffffffff16908167ffffffffffffffff168152505080600c6000820151816000015560208201518160010160006101000a81548167ffffffffffffffff021916908367ffffffffffffffff16021790555060408201518160010160086101000a81548167ffffffffffffffff021916908367ffffffffffffffff16021790555060608201518160010160106101000a8154816fffffffffffffffffffffffffffffffff02191690836fffffffffffffffffffffffffffffffff16021790555090505060008054906101000a900473ffffffffffffffffffffffffffffffffffffffff1673ffffffffffffffffffffffffffffffffffffffff1663a99acb173383606001516040518363ffffffff1660e01b8152600401808373ffffffffffffffffffffffffffffffffffffffff168152602001826fffffffffffffffffffffffffffffffff16815260200192505050600060405180830381600087803b15801561295957600080fd5b505af115801561296d573d6000803e3d6000fd5b505050507f9f912bcb7b057a4f10fbbee5785670aecb2ab545144237646e17398d55de72dc8160000151838360600151846040015160405180858152602001848152602001836fffffffffffffffffffffffffffffffff1681526020018267ffffffffffffffff16815260200194505050505060405180910390a15050505050505b6001600681905550600460009054906101000a900473ffffffffffffffffffffffffffffffffffffffff1673ffffffffffffffffffffffffffffffffffffffff1663e9fad8ee6040518163ffffffff1660e01b8152600401600060405180830381600087803b158015612a6157600080fd5b505af1158015612a75573d6000803e3d6000fd5b50505050565b60008054906101000a900473ffffffffffffffffffffffffffffffffffffffff1673ffffffffffffffffffffffffffffffffffffffff163373ffffffffffffffffffffffffffffffffffffffff1614612b3c576040517f08c379a00000000000000000000000000000000000000000000000000000000081526004018080602001828103825260198152602001807f476f7665726e65643a204e6f7420417574686f72697a65642e0000000000000081525060200191505060405180910390fd5b80600860006101000a81548167ffffffffffffffff021916908367ffffffffffffffff16021790555060405180807f6d61785072696365416765000000000000000000000000000000000000000000815250600b01905060405180910390207f6293347933ad2997134e224ac8cd2e39908a4a22aeed9af52127b4bbf765297882604051808267ffffffffffffffff16815260200191505060405180910390a250565b600e8181548110612bef57600080fd5b906000526020600020016000915054906101000a900473ffffffffffffffffffffffffffffffffffffffff1681565b60008054906101000a900473ffffffffffffffffffffffffffffffffffffffff1673ffffffffffffffffffffffffffffffffffffffff163373ffffffffffffffffffffffffffffffffffffffff1614612cdf576040517f08c379a00000000000000000000000000000000000000000000000000000000081526004018080602001828103825260198152602001807f476f7665726e65643a204e6f7420417574686f72697a65642e0000000000000081525060200191505060405180910390fd5b80600760006101000a8154816fffffffffffffffffffffffffffffffff02191690836fffffffffffffffffffffffffffffffff160217905550670de0b6b3a7640000600760009054906101000a90046fffffffffffffffffffffffffffffffff166fffffffffffffffffffffffffffffffff1610612dc5576040517f08c379a000000000000000000000000000000000000000000000000000000000815260040180806020018281038252600d8152602001807f496e76616c69642076616c75650000000000000000000000000000000000000081525060200191505060405180910390fd5b60405180807f76616c696452616e6765466f7252617750726963657300000000000000000000815250601601905060405180910390207ff92f7fc8addd796154d83393012a119e212b31cb3dc9776133129db4c5747fcc8260405180826fffffffffffffffffffffffffffffffff16815260200191505060405180910390a250565b6000600960010160109054906101000a900467ffffffffffffffff16905090565b60008054906101000a900473ffffffffffffffffffffffffffffffffffffffff1673ffffffffffffffffffffffffffffffffffffffff163373ffffffffffffffffffffffffffffffffffffffff1614612f29576040517f08c379a00000000000000000000000000000000000000000000000000000000081526004018080602001828103825260198152602001807f476f7665726e65643a204e6f7420417574686f72697a65642e0000000000000081525060200191505060405180910390fd5b80600960010160106101000a81548167ffffffffffffffff021916908367ffffffffffffffff16021790555060405180807f6d61785374657073000000000000000000000000000000000000000000000000815250600801905060405180910390207f6293347933ad2997134e224ac8cd2e39908a4a22aeed9af52127b4bbf765297882604051808267ffffffffffffffff16815260200191505060405180910390a250565b600160009054906101000a900473ffffffffffffffffffffffffffffffffffffffff1681565b6000613033848484600760009054906101000a90046fffffffffffffffffffffffffffffffff166fffffffffffffffffffffffffffffffff16613c24565b90509392505050565b60008054906101000a900473ffffffffffffffffffffffffffffffffffffffff1673ffffffffffffffffffffffffffffffffffffffff163373ffffffffffffffffffffffffffffffffffffffff16146130fd576040517f08c379a00000000000000000000000000000000000000000000000000000000081526004018080602001828103825260198152602001807f476f7665726e65643a204e6f7420417574686f72697a65642e0000000000000081525060200191505060405180910390fd5b80600960020160006101000a8154816fffffffffffffffffffffffffffffffff0219169083600f0b6fffffffffffffffffffffffffffffffff16021790555060405180807f6d696e5261746500000000000000000000000000000000000000000000000000815250600701905060405180910390207f73372e841856ef3f75f5070dea5fbba697b24bf1b513158c125d0c7bbcc62fd2826040518082600f0b815260200191505060405180910390a250565b6001600060146101000a81548160ff0219169083151502179055507f7acc84e34091ae817647a4c49116f5cc07f319078ba80f8f5fde37ea7e25cbd660405160405180910390a1565b6040518060a0016040528066071afd498d00006fffffffffffffffffffffffffffffffff168152602001662386f26fc100006fffffffffffffffffffffffffffffffff168152602001662386f26fc100006fffffffffffffffffffffffffffffffff168152602001600567ffffffffffffffff1681526020017ffffffffffffffffffffffffffffffffffffffffffffffffffe9cba87a2760000600f0b815250600960008201518160000160006101000a8154816fffffffffffffffffffffffffffffffff02191690836fffffffffffffffffffffffffffffffff16021790555060208201518160000160106101000a8154816fffffffffffffffffffffffffffffffff02191690836fffffffffffffffffffffffffffffffff16021790555060408201518160010160006101000a8154816fffffffffffffffffffffffffffffffff02191690836fffffffffffffffffffffffffffffffff16021790555060608201518160010160106101000a81548167ffffffffffffffff021916908367ffffffffffffffff16021790555060808201518160020160006101000a8154816fffffffffffffffffffffffffffffffff0219169083600f0b6fffffffffffffffffffffffffffffffff1602179055509050506040518060800160405280666a94d74f4300008152602001600067ffffffffffffffff1681526020016133fc613824565b67ffffffffffffffff168152602001686c6b935b8bbd4000006fffffffffffffffffffffffffffffffff16815250600c6000820151816000015560208201518160010160006101000a81548167ffffffffffffffff021916908367ffffffffffffffff16021790555060408201518160010160086101000a81548167ffffffffffffffff021916908367ffffffffffffffff16021790555060608201518160010160106101000a8154816fffffffffffffffffffffffffffffffff02191690836fffffffffffffffffffffffffffffffff1602179055509050506134de6143af565b60405180610120016040528063c737ea6260e01b7bffffffffffffffffffffffffffffffffffffffffffffffffffffffff19167bffffffffffffffffffffffffffffffffffffffffffffffffffffffff191681526020016380ddbdb460e01b7bffffffffffffffffffffffffffffffffffffffffffffffffffffffff19167bffffffffffffffffffffffffffffffffffffffffffffffffffffffff19168152602001635fd019ad60e01b7bffffffffffffffffffffffffffffffffffffffffffffffffffffffff19167bffffffffffffffffffffffffffffffffffffffffffffffffffffffff19168152602001636e16ead260e01b7bffffffffffffffffffffffffffffffffffffffffffffffffffffffff19167bffffffffffffffffffffffffffffffffffffffffffffffffffffffff19168152602001635d8350b460e01b7bffffffffffffffffffffffffffffffffffffffffffffffffffffffff19167bffffffffffffffffffffffffffffffffffffffffffffffffffffffff1916815260200163d3ab388860e01b7bffffffffffffffffffffffffffffffffffffffffffffffffffffffff19167bffffffffffffffffffffffffffffffffffffffffffffffffffffffff19168152602001633840ffe360e01b7bffffffffffffffffffffffffffffffffffffffffffffffffffffffff19167bffffffffffffffffffffffffffffffffffffffffffffffffffffffff1916815260200163b7bbba8560e01b7bffffffffffffffffffffffffffffffffffffffffffffffffffffffff19167bffffffffffffffffffffffffffffffffffffffffffffffffffffffff1916815260200163ee47304d60e01b7bffffffffffffffffffffffffffffffffffffffffffffffffffffffff19167bffffffffffffffffffffffffffffffffffffffffffffffffffffffff1916815250905060005b6009811015613820576001600560008484600981106137ab57fe5b60200201517bffffffffffffffffffffffffffffffffffffffffffffffffffffffff19167bffffffffffffffffffffffffffffffffffffffffffffffffffffffff1916815260200190815260200160002060006101000a81548160ff0219169083151502179055508080600101915050613790565b5050565b600061382f42613e5e565b905090565b6000808414806138445750600083145b15613852576000905061393c565b60008214156138c9576040517f08c379a000000000000000000000000000000000000000000000000000000000815260040180806020018281038252601b8152602001807f536166654d6174683a206469766973696f6e206279207a65726f2e000000000081525060200191505060405180910390fd5b8284029050828482816138d857fe5b041461392f576040517f08c379a00000000000000000000000000000000000000000000000000000000081526004018080602001828103825260228152602001806143f06022913960400191505060405180910390fd5b81818161393857fe5b0490505b9392505050565b60008083141561395657600090506139c3565b600082840290508284828161396757fe5b04146139be576040517f08c379a00000000000000000000000000000000000000000000000000000000081526004018080602001828103825260218152602001806144a66021913960400191505060405180910390fd5b809150505b92915050565b60008183106139d857816139da565b825b905092915050565b6139ea614361565b8390506000670de0b6b3a764000083119050600081613a135783670de0b6b3a764000003613a1f565b670de0b6b3a764000084035b905084600001516fffffffffffffffffffffffffffffffff16811015613a65576000836020019067ffffffffffffffff16908167ffffffffffffffff1681525050613b56565b613ab0613aab600187602001516fffffffffffffffffffffffffffffffff168481613a8c57fe5b0401876060015167ffffffffffffffff166139c990919063ffffffff16565b613e5e565b836020019067ffffffffffffffff16908167ffffffffffffffff16815250506000613b10613b0b856020015167ffffffffffffffff1688604001516fffffffffffffffffffffffffffffffff1661394390919063ffffffff16565b613ec9565b905082613b3357613b2e818560000151613f4b90919063ffffffff16565b613b4b565b613b4a818560000151613fd990919063ffffffff16565b5b846000018181525050505b8460800151600f0b83600001511215613b7b578460800151600f0b8360000181815250505b50509392505050565b60007001000000000000000000000000000000008210613bef576040517f08c379a00000000000000000000000000000000000000000000000000000000081526004018080602001828103825260278152602001806144126027913960400191505060405180910390fd5b819050919050565b6000613c1d82613c05613824565b67ffffffffffffffff1661406790919063ffffffff16565b9050919050565b600080613c4283670de0b6b3a764000061410390919063ffffffff16565b90506000613c6184670de0b6b3a764000061414d90919063ffffffff16565b90506000806000808a86108015613c775750848b105b15613c89576001935080806001019150505b8986108015613c975750848a105b15613ca9576001925080806001019150505b8886108015613cb757508489105b15613cc9576001915080806001019150505b6003811480613cd85750600081145b15613d2457898b1115613cf057898b809b50819c5050505b888a1115613d0357888a809a50819b5050505b898b1115613d1657898b809b50819c5050505b899650505050505050613e56565b6002811415613da15783613d5257613d45898b6141d590919063ffffffff16565b9650505050505050613e56565b82613d7757613d6a898c6141d590919063ffffffff16565b9650505050505050613e56565b81613d9c57613d8f8a8c6141d590919063ffffffff16565b9650505050505050613e56565b613de8565b6001811415613de7578315613dbe578a9650505050505050613e56565b8215613dd257899650505050505050613e56565b8115613de657889650505050505050613e56565b5b5b6040517f08c379a000000000000000000000000000000000000000000000000000000000815260040180806020018281038252600f8152602001807f4e6f2076616c69642070726963652e000000000000000000000000000000000081525060200191505060405180910390fd5b949350505050565b6000680100000000000000008210613ec1576040517f08c379a00000000000000000000000000000000000000000000000000000000081526004018080602001828103825260268152602001806144c76026913960400191505060405180910390fd5b819050919050565b60007f80000000000000000000000000000000000000000000000000000000000000008210613f43576040517f08c379a00000000000000000000000000000000000000000000000000000000081526004018080602001828103825260288152602001806144ed6028913960400191505060405180910390fd5b819050919050565b600080828403905060008312158015613f645750838113155b80613f7a5750600083128015613f7957508381135b5b613fcf576040517f08c379a00000000000000000000000000000000000000000000000000000000081526004018080602001828103825260248152602001806145156024913960400191505060405180910390fd5b8091505092915050565b600080828401905060008312158015613ff25750838112155b80614008575060008312801561400757508381125b5b61405d576040517f08c379a00000000000000000000000000000000000000000000000000000000081526004018080602001828103825260218152602001806144396021913960400191505060405180910390fd5b8091505092915050565b60008082840190508367ffffffffffffffff168167ffffffffffffffff1610156140f9576040517f08c379a000000000000000000000000000000000000000000000000000000000815260040180806020018281038252601b8152602001807f536166654d6174683a206164646974696f6e206f766572666c6f77000000000081525060200191505060405180910390fd5b8091505092915050565b600061414583836040518060400160405280601e81526020017f536166654d6174683a207375627472616374696f6e206f766572666c6f770000815250614217565b905092915050565b6000808284019050838110156141cb576040517f08c379a000000000000000000000000000000000000000000000000000000000815260040180806020018281038252601b8152602001807f536166654d6174683a206164646974696f6e206f766572666c6f77000000000081525060200191505060405180910390fd5b8091505092915050565b600060028083816141e257fe5b06600285816141ed57fe5b0601816141f657fe5b046002838161420157fe5b046002858161420c57fe5b040101905092915050565b60008383111582906142c4576040517f08c379a00000000000000000000000000000000000000000000000000000000081526004018080602001828103825283818151815260200191508051906020019080838360005b8381101561428957808201518184015260208101905061426e565b50505050905090810190601f1680156142b65780820380516001836020036101000a031916815260200191505b509250505060405180910390fd5b5060008385039050809150509392505050565b828054828255906000526020600020908101928215614350579160200282015b8281111561434f5782518260006101000a81548173ffffffffffffffffffffffffffffffffffffffff021916908373ffffffffffffffffffffffffffffffffffffffff160217905550916020019190600101906142f7565b5b50905061435d91906143d2565b5090565b604051806080016040528060008152602001600067ffffffffffffffff168152602001600067ffffffffffffffff16815260200160006fffffffffffffffffffffffffffffffff1681525090565b604051806101200160405280600990602082028036833780820191505090505090565b5b808211156143eb5760008160009055506001016143d3565b509056fe536166654d6174683a206d756c7469706c69636174696f6e206f766572666c6f772e53616665436173743a2076616c756520646f65736e27742066697420696e2031323820626974735369676e6564536166654d6174683a206164646974696f6e206f766572666c6f77476f7665726e65643a204e6f7420617661696c61626c6520647572696e672073687574646f776e2e5065674d616e616765722f7570646174653a20557064617465206e6f742072656164792e536166654d6174683a206d756c7469706c69636174696f6e206f766572666c6f7753616665436173743a2076616c756520646f65736e27742066697420696e203634206269747353616665436173743a2076616c756520646f65736e27742066697420696e20616e20696e743235365369676e6564536166654d6174683a207375627472616374696f6e206f766572666c6f77a2646970667358221220765c7f9126a868cebc2bd41934eb0f665e3ac1b12852d860a269596555a6891264736f6c63430007040033",
  "linkReferences": {},
  "deployedLinkReferences": {}
}