{
  "_format": "hh-sol-artifact-1",
  "contractName": "Rates",
  "sourceName": "contracts/core/logic/Rates.sol",
  "abi": [
    {
      "anonymous": false,
      "inputs": [
        {
          "indexed": true,
          "internalType": "address",
          "name": "governor",
          "type": "address"
        }
      ],
      "name": "Initialized",
      "type": "event"
    },
    {
      "anonymous": false,
      "inputs": [
        {
          "indexed": true,
          "internalType": "string",
          "name": "paramName",
          "type": "string"
        },
        {
          "indexed": false,
          "internalType": "uint128",
          "name": "value",
          "type": "uint128"
        }
      ],
      "name": "ParameterUpdated128",
      "type": "event"
    },
    {
      "anonymous": false,
      "inputs": [
        {
          "indexed": true,
          "internalType": "string",
          "name": "paramName",
          "type": "string"
        },
        {
          "indexed": false,
          "internalType": "uint64",
          "name": "value",
          "type": "uint64"
        }
      ],
      "name": "ParameterUpdated64",
      "type": "event"
    },
    {
      "anonymous": false,
      "inputs": [
        {
          "indexed": true,
          "internalType": "string",
          "name": "paramName",
          "type": "string"
        },
        {
          "indexed": true,
          "internalType": "address",
          "name": "addr",
          "type": "address"
        }
      ],
      "name": "ParameterUpdatedAddress",
      "type": "event"
    },
    {
      "anonymous": false,
      "inputs": [
        {
          "indexed": true,
          "internalType": "string",
          "name": "paramName",
          "type": "string"
        },
        {
          "indexed": false,
          "internalType": "int128",
          "name": "value",
          "type": "int128"
        }
      ],
      "name": "ParameterUpdatedInt128",
      "type": "event"
    },
    {
      "anonymous": false,
      "inputs": [
        {
          "indexed": false,
          "internalType": "int256",
          "name": "interestRate",
          "type": "int256"
        },
        {
          "indexed": false,
          "internalType": "uint256",
          "name": "price",
          "type": "uint256"
        },
        {
          "indexed": false,
          "internalType": "uint256",
          "name": "rewardCount",
          "type": "uint256"
        },
        {
          "indexed": false,
          "internalType": "uint64",
          "name": "nextUpdateTime",
          "type": "uint64"
        }
      ],
      "name": "RateUpdated",
      "type": "event"
    },
    {
      "anonymous": false,
      "inputs": [],
      "name": "Stopped",
      "type": "event"
    },
    {
      "inputs": [
        {
          "internalType": "contract IUniswapV3Pool",
          "name": "pool",
          "type": "address"
        }
      ],
      "name": "addReferencePool",
      "outputs": [],
      "stateMutability": "nonpayable",
      "type": "function"
    },
    {
      "inputs": [],
      "name": "completeSetup",
      "outputs": [],
      "stateMutability": "nonpayable",
      "type": "function"
    },
    {
      "inputs": [],
      "name": "currentRateData",
      "outputs": [
        {
          "internalType": "int256",
          "name": "rate",
          "type": "int256"
        },
        {
          "internalType": "uint64",
          "name": "nextUpdateTime",
          "type": "uint64"
        },
        {
          "internalType": "uint128",
          "name": "rewardCount",
          "type": "uint128"
        }
      ],
      "stateMutability": "view",
      "type": "function"
    },
    {
      "inputs": [],
      "name": "deployer",
      "outputs": [
        {
          "internalType": "address",
          "name": "",
          "type": "address"
        }
      ],
      "stateMutability": "view",
      "type": "function"
    },
    {
      "inputs": [],
      "name": "getRewardCount",
      "outputs": [
        {
          "internalType": "uint256",
          "name": "",
          "type": "uint256"
        }
      ],
      "stateMutability": "view",
      "type": "function"
    },
    {
      "inputs": [],
      "name": "governor",
      "outputs": [
        {
          "internalType": "contract IGovernor",
          "name": "",
          "type": "address"
        }
      ],
      "stateMutability": "view",
      "type": "function"
    },
    {
      "inputs": [
        {
          "internalType": "contract IGovernor",
          "name": "_governor",
          "type": "address"
        }
      ],
      "name": "init",
      "outputs": [],
      "stateMutability": "nonpayable",
      "type": "function"
    },
    {
      "inputs": [],
      "name": "interestRateAbsoluteValue",
      "outputs": [
        {
          "internalType": "uint256",
          "name": "",
          "type": "uint256"
        }
      ],
      "stateMutability": "view",
      "type": "function"
    },
    {
      "inputs": [],
      "name": "interestRateParameters",
      "outputs": [
        {
          "internalType": "uint128",
          "name": "acceptableError",
          "type": "uint128"
        },
        {
          "internalType": "uint128",
          "name": "errorInterval",
          "type": "uint128"
        },
        {
          "internalType": "uint128",
          "name": "interestRateStep",
          "type": "uint128"
        },
        {
          "internalType": "uint64",
          "name": "maxSteps",
          "type": "uint64"
        },
        {
          "internalType": "int128",
          "name": "minRate",
          "type": "int128"
        },
        {
          "internalType": "int128",
          "name": "maxRate",
          "type": "int128"
        }
      ],
      "stateMutability": "view",
      "type": "function"
    },
    {
      "inputs": [],
      "name": "minTimeBetweenUpdates",
      "outputs": [
        {
          "internalType": "uint64",
          "name": "",
          "type": "uint64"
        }
      ],
      "stateMutability": "view",
      "type": "function"
    },
    {
      "inputs": [],
      "name": "positiveInterestRate",
      "outputs": [
        {
          "internalType": "bool",
          "name": "",
          "type": "bool"
        }
      ],
      "stateMutability": "view",
      "type": "function"
    },
    {
      "inputs": [],
      "name": "predictInterestRate",
      "outputs": [
        {
          "internalType": "uint256",
          "name": "price",
          "type": "uint256"
        },
        {
          "internalType": "int256",
          "name": "rate",
          "type": "int256"
        }
      ],
      "stateMutability": "view",
      "type": "function"
    },
    {
      "inputs": [
        {
          "internalType": "uint256",
          "name": "",
          "type": "uint256"
        }
      ],
      "name": "referencePools",
      "outputs": [
        {
          "internalType": "contract IUniswapV3Pool",
          "name": "",
          "type": "address"
        }
      ],
      "stateMutability": "view",
      "type": "function"
    },
    {
      "inputs": [
        {
          "internalType": "contract IUniswapV3Pool",
          "name": "pool",
          "type": "address"
        }
      ],
      "name": "removeReferencePool",
      "outputs": [],
      "stateMutability": "nonpayable",
      "type": "function"
    },
    {
      "inputs": [
        {
          "internalType": "uint128",
          "name": "error",
          "type": "uint128"
        }
      ],
      "name": "setAcceptableError",
      "outputs": [],
      "stateMutability": "nonpayable",
      "type": "function"
    },
    {
      "inputs": [
        {
          "internalType": "uint128",
          "name": "interval",
          "type": "uint128"
        }
      ],
      "name": "setErrorInterval",
      "outputs": [],
      "stateMutability": "nonpayable",
      "type": "function"
    },
    {
      "inputs": [
        {
          "internalType": "uint128",
          "name": "step",
          "type": "uint128"
        }
      ],
      "name": "setInterestRateStep",
      "outputs": [],
      "stateMutability": "nonpayable",
      "type": "function"
    },
    {
      "inputs": [
        {
          "internalType": "int128",
          "name": "max",
          "type": "int128"
        }
      ],
      "name": "setMaxRate",
      "outputs": [],
      "stateMutability": "nonpayable",
      "type": "function"
    },
    {
      "inputs": [
        {
          "internalType": "uint64",
          "name": "steps",
          "type": "uint64"
        }
      ],
      "name": "setMaxSteps",
      "outputs": [],
      "stateMutability": "nonpayable",
      "type": "function"
    },
    {
      "inputs": [
        {
          "internalType": "int128",
          "name": "min",
          "type": "int128"
        }
      ],
      "name": "setMinRate",
      "outputs": [],
      "stateMutability": "nonpayable",
      "type": "function"
    },
    {
      "inputs": [
        {
          "internalType": "uint64",
          "name": "time",
          "type": "uint64"
        }
      ],
      "name": "setMinTimeBetweenUpdates",
      "outputs": [],
      "stateMutability": "nonpayable",
      "type": "function"
    },
    {
      "inputs": [
        {
          "internalType": "uint128",
          "name": "range",
          "type": "uint128"
        }
      ],
      "name": "setValidRangeForRawPrices",
      "outputs": [],
      "stateMutability": "nonpayable",
      "type": "function"
    },
    {
      "inputs": [],
      "name": "stop",
      "outputs": [],
      "stateMutability": "nonpayable",
      "type": "function"
    },
    {
      "inputs": [],
      "name": "stopped",
      "outputs": [
        {
          "internalType": "bool",
          "name": "",
          "type": "bool"
        }
      ],
      "stateMutability": "view",
      "type": "function"
    },
    {
      "inputs": [],
      "name": "testContractLock",
      "outputs": [],
      "stateMutability": "nonpayable",
      "type": "function"
    },
    {
      "inputs": [],
      "name": "testContractLock2",
      "outputs": [],
      "stateMutability": "nonpayable",
      "type": "function"
    },
    {
      "inputs": [],
      "name": "testProtocolLock",
      "outputs": [],
      "stateMutability": "nonpayable",
      "type": "function"
    },
    {
      "inputs": [],
      "name": "testProtocolLock2",
      "outputs": [],
      "stateMutability": "nonpayable",
      "type": "function"
    },
    {
      "inputs": [],
      "name": "update",
      "outputs": [],
      "stateMutability": "nonpayable",
      "type": "function"
    },
    {
      "inputs": [],
      "name": "validRangeForRawPrices",
      "outputs": [
        {
          "internalType": "uint128",
          "name": "",
          "type": "uint128"
        }
      ],
      "stateMutability": "view",
      "type": "function"
    },
    {
      "inputs": [
        {
          "internalType": "bytes4",
          "name": "",
          "type": "bytes4"
        }
      ],
      "name": "validUpdate",
      "outputs": [
        {
          "internalType": "bool",
          "name": "",
          "type": "bool"
        }
      ],
      "stateMutability": "view",
      "type": "function"
    }
  ],
  "bytecode": "0x6080604052600160066000509090556702c68af0bb140000600760006101000a8154816fffffffffffffffffffffffffffffffff02191690836fffffffffffffffffffffffffffffffff16021790555062014a78600760106101000a81548167ffffffffffffffff021916908367ffffffffffffffff1602179055503480156100885760006000fd5b505b33600160006101000a81548173ffffffffffffffffffffffffffffffffffffffff021916908373ffffffffffffffffffffffffffffffffffffffff1602179055505b6100d1565b61427480620000e16000396000f3fe60806040523480156100115760006000fd5b50600436106101ea5760003560e01c806375f12b2111610110578063a2e62045116100a3578063d5f3948811610072578063d5f39488146104bc578063dd3f58ca146104da578063ee47304d146104e4578063eec3f6f114610500576101ea565b8063a2e620451461045e578063c381c1e614610468578063c737ea6214610484578063d3ab3888146104a0576101ea565b806384333cc7116100df57806384333cc7146103e35780638aea8f711461041357806395563b471461041d578063a0fc0eda14610440576101ea565b806375f12b211461036d57806377a354421461038b5780637e7e8eec146103a957806380ddbdb4146103c7576101ea565b80631f244faf116101885780635d8350b4116101575780635d8350b4146102fb5780635fd019ad146103175780636d7fa664146103335780636e16ead214610351576101ea565b80631f244faf146102bd5780633a7e95cb146102dd5780635a190e1c146102e75780635cfff02f146102f1576101ea565b8063150147d7116101c4578063150147d714610248578063178d12261461026457806319a6e9e61461028357806319ab453c146102a1576101ea565b806307da68f5146101f05780630c340a24146101fa578063113cf1ab14610218576101ea565b60006000fd5b6101f861051c565b005b61020261053c565b60405161020f9190613e78565b60405180910390f35b610232600480360381019061022d9190613a02565b610562565b60405161023f9190613e64565b60405180910390f35b610262600480360381019061025d9190613aeb565b610587565b005b61026c6106b1565b60405161027a92919061419a565b60405180910390f35b61028b610a92565b60405161029891906141b3565b60405180910390f35b6102bb60048036038101906102b69190613a76565b610aac565b005b6102c5610e6a565b6040516102d493929190613f51565b60405180910390f35b6102e5610eb8565b005b6102ef610ed8565b005b6102f9610f06565b005b61031560048036038101906103109190613bdc565b610f34565b005b610331600480360381019061032c9190613b67565b610feb565b005b61033b6110cf565b6040516103489190613e64565b60405180910390f35b61036b60048036038101906103669190613b67565b6110eb565b005b6103756111b1565b6040516103829190613e64565b60405180910390f35b6103936111c4565b6040516103a09190614107565b60405180910390f35b6103b16111e6565b6040516103be9190614188565b60405180910390f35b6103e160048036038101906103dc9190613b67565b6112aa565b005b6103fd60048036038101906103f89190613ba4565b611370565b60405161040a9190613ea0565b60405180910390f35b61041b6113b6565b005b610425611488565b6040516104379695949392919061412b565b60405180910390f35b610448611537565b6040516104559190614188565b60405180910390f35b610466611568565b005b610482600480360381019061047d9190613aeb565b611c54565b005b61049e60048036038101906104999190613b67565b611d7e565b005b6104ba60048036038101906104b59190613bdc565b611e5c565b005b6104c4611ee9565b6040516104d19190613dfb565b60405180910390f35b6104e2611f0f565b005b6104fe60048036038101906104f99190613b39565b611f2f565b005b61051a60048036038101906105159190613b39565b611ff9565b005b61052a6120c363ffffffff16565b61053861215863ffffffff16565b5b5b565b600060009054906101000a900473ffffffffffffffffffffffffffffffffffffffff1681565b600560005060205280600052604060002060009150909054906101000a900460ff1681565b6105956120c363ffffffff16565b600060009054906101000a900473ffffffffffffffffffffffffffffffffffffffff1673ffffffffffffffffffffffffffffffffffffffff1663ab658be26040518163ffffffff1660e01b815260040160006040518083038186803b1580156105fe5760006000fd5b505afa158015610613573d600060003e3d6000fd5b505050506040513d6000823e3d601f19601f8201168201806040525081019061063c9190613911565b600d600050908051906020019061065492919061384b565b508073ffffffffffffffffffffffffffffffffffffffff1660405161067890613d06565b60405180910390207f78caada2f560033c9479d8c5e33f045f2e611faebe6b6d8a73874c80ec2dd3a260405160405180910390a35b5b50565b600060006000600060009054906101000a900473ffffffffffffffffffffffffffffffffffffffff1673ffffffffffffffffffffffffffffffffffffffff1663d3419bf36040518163ffffffff1660e01b815260040160206040518083038186803b1580156107205760006000fd5b505afa158015610735573d600060003e3d6000fd5b505050506040513d601f19601f820116820180604052508101906107599190613a9d565b90506000600d60005080549050905060008167ffffffffffffffff811180156107825760006000fd5b506040519080825280602002602001820160405280156107b15781602001602082028036833780820191505090505b5090506000600090505b828110156108bc578373ffffffffffffffffffffffffffffffffffffffff16633c63a9cd600d600050838154811015156107f157fe5b906000526020600020900160005b9054906101000a900473ffffffffffffffffffffffffffffffffffffffff1660016040518363ffffffff1660e01b815260040161083d929190613ec8565b60206040518083038186803b1580156108565760006000fd5b505afa15801561086b573d600060003e3d6000fd5b505050506040513d601f19601f8201168201806040525081019061088f9190613bc0565b828281518110151561089d57fe5b60200260200101909081815260200150505b80806001019150506107bb565b506108fd81600760009054906101000a90046fffffffffffffffffffffffffffffffff166fffffffffffffffffffffffffffffffff166121a263ffffffff16565b94508450610a79600b6000506000016000505460086000506040518060c00160405290816000820160009054906101000a90046fffffffffffffffffffffffffffffffff166fffffffffffffffffffffffffffffffff166fffffffffffffffffffffffffffffffff1681526020016000820160109054906101000a90046fffffffffffffffffffffffffffffffff166fffffffffffffffffffffffffffffffff166fffffffffffffffffffffffffffffffff1681526020016001820160009054906101000a90046fffffffffffffffffffffffffffffffff166fffffffffffffffffffffffffffffffff166fffffffffffffffffffffffffffffffff1681526020016001820160109054906101000a900467ffffffffffffffff1667ffffffffffffffff1667ffffffffffffffff1681526020016002820160009054906101000a9004600f0b600f0b600f0b81526020016002820160109054906101000a9004600f0b600f0b600f0b81526020015050876121db63ffffffff16565b93508350848494509450505050610a8e565050505b9091565b600760109054906101000a900467ffffffffffffffff1681565b600160009054906101000a900473ffffffffffffffffffffffffffffffffffffffff1673ffffffffffffffffffffffffffffffffffffffff163373ffffffffffffffffffffffffffffffffffffffff16141515610b095760006000fd5b600160006101000a81549073ffffffffffffffffffffffffffffffffffffffff021916905580600060006101000a81548173ffffffffffffffffffffffffffffffffffffffff021916908373ffffffffffffffffffffffffffffffffffffffff160217905550600060009054906101000a900473ffffffffffffffffffffffffffffffffffffffff1673ffffffffffffffffffffffffffffffffffffffff16639624e83e6040518163ffffffff1660e01b815260040160206040518083038186803b158015610bd85760006000fd5b505afa158015610bed573d600060003e3d6000fd5b505050506040513d601f19601f82011682018060405250810190610c119190613a4f565b600260006101000a81548173ffffffffffffffffffffffffffffffffffffffff021916908373ffffffffffffffffffffffffffffffffffffffff160217905550600060009054906101000a900473ffffffffffffffffffffffffffffffffffffffff1673ffffffffffffffffffffffffffffffffffffffff16638a15fcf36040518163ffffffff1660e01b815260040160206040518083038186803b158015610cba5760006000fd5b505afa158015610ccf573d600060003e3d6000fd5b505050506040513d601f19601f82011682018060405250810190610cf39190613b12565b600360006101000a81548173ffffffffffffffffffffffffffffffffffffffff021916908373ffffffffffffffffffffffffffffffffffffffff160217905550600060009054906101000a900473ffffffffffffffffffffffffffffffffffffffff1673ffffffffffffffffffffffffffffffffffffffff1663d478b0876040518163ffffffff1660e01b815260040160206040518083038186803b158015610d9c5760006000fd5b505afa158015610db1573d600060003e3d6000fd5b505050506040513d601f19601f82011682018060405250810190610dd59190613ac4565b600460006101000a81548173ffffffffffffffffffffffffffffffffffffffff021916908373ffffffffffffffffffffffffffffffffffffffff160217905550610e2361235363ffffffff16565b8073ffffffffffffffffffffffffffffffffffffffff167f908408e307fc569b417f6cbec5d5a06f44a0a505ac0479b47d421a4b2fd6a1e660405160405180910390a25b50565b600b6000508060000160005054908060010160009054906101000a900467ffffffffffffffff16908060010160089054906101000a90046fffffffffffffffffffffffffffffffff16905083565b610ec661299a63ffffffff16565b5b610ed5612a7963ffffffff16565b5b565b610ee661299a63ffffffff16565b610ef4610eb863ffffffff16565b5b610f03612a7963ffffffff16565b5b565b610f14612b0d63ffffffff16565b610f22611f0f63ffffffff16565b5b610f31612b6863ffffffff16565b5b565b610f426120c363ffffffff16565b80600760106101000a81548167ffffffffffffffff021916908367ffffffffffffffff1602179055506000600760109054906101000a900467ffffffffffffffff1667ffffffffffffffff16111515610f9b5760006000fd5b604051610fa790613ca4565b60405180910390207f6293347933ad2997134e224ac8cd2e39908a4a22aeed9af52127b4bbf765297882604051610fde91906141b3565b60405180910390a25b5b50565b610ff96120c363ffffffff16565b806fffffffffffffffffffffffffffffffff1660001080156110345750670de0b6b3a7640000816fffffffffffffffffffffffffffffffff16105b15156110405760006000fd5b80600860005060000160106101000a8154816fffffffffffffffffffffffffffffffff02191690836fffffffffffffffffffffffffffffffff16021790555060405161108b90613c42565b60405180910390207ff92f7fc8addd796154d83393012a119e212b31cb3dc9776133129db4c5747fcc826040516110c29190614107565b60405180910390a25b5b50565b60006000600b60005060000160005054121590506110e8565b90565b6110f96120c363ffffffff16565b670de0b6b3a7640000816fffffffffffffffffffffffffffffffff161015156111225760006000fd5b80600860005060010160006101000a8154816fffffffffffffffffffffffffffffffff02191690836fffffffffffffffffffffffffffffffff16021790555060405161116d90613d37565b60405180910390207ff92f7fc8addd796154d83393012a119e212b31cb3dc9776133129db4c5747fcc826040516111a49190614107565b60405180910390a25b5b50565b600060149054906101000a900460ff1681565b600760009054906101000a90046fffffffffffffffffffffffffffffffff1681565b60006112a0600b600050604051806060016040529081600082016000505481526020016001820160009054906101000a900467ffffffffffffffff1667ffffffffffffffff1667ffffffffffffffff1681526020016001820160089054906101000a90046fffffffffffffffffffffffffffffffff166fffffffffffffffffffffffffffffffff166fffffffffffffffffffffffffffffffff1681526020015050611295612b7863ffffffff16565b612b9363ffffffff16565b90506112a7565b90565b6112b86120c363ffffffff16565b670de0b6b3a7640000816fffffffffffffffffffffffffffffffff161015156112e15760006000fd5b80600860005060000160006101000a8154816fffffffffffffffffffffffffffffffff02191690836fffffffffffffffffffffffffffffffff16021790555060405161132c90613c73565b60405180910390207ff92f7fc8addd796154d83393012a119e212b31cb3dc9776133129db4c5747fcc826040516113639190614107565b60405180910390a25b5b50565b600d600050818154811061138357600080fd5b906000526020600020900160005b9150909054906101000a900473ffffffffffffffffffffffffffffffffffffffff1681565b6113c46120c363ffffffff16565b600060009054906101000a900473ffffffffffffffffffffffffffffffffffffffff1673ffffffffffffffffffffffffffffffffffffffff1663ab658be26040518163ffffffff1660e01b815260040160006040518083038186803b15801561142d5760006000fd5b505afa158015611442573d600060003e3d6000fd5b505050506040513d6000823e3d601f19601f8201168201806040525081019061146b9190613911565b600d600050908051906020019061148392919061384b565b505b5b565b60086000508060000160009054906101000a90046fffffffffffffffffffffffffffffffff16908060000160109054906101000a90046fffffffffffffffffffffffffffffffff16908060010160009054906101000a90046fffffffffffffffffffffffffffffffff16908060010160109054906101000a900467ffffffffffffffff16908060020160009054906101000a9004600f0b908060020160109054906101000a9004600f0b905086565b60006000600b60005060000160005054905060008112611557578061155c565b806000035b91505061156556505b90565b61157661299a63ffffffff16565b611584612c7263ffffffff16565b6000600b600050604051806060016040529081600082016000505481526020016001820160009054906101000a900467ffffffffffffffff1667ffffffffffffffff1667ffffffffffffffff1681526020016001820160089054906101000a90046fffffffffffffffffffffffffffffffff166fffffffffffffffffffffffffffffffff166fffffffffffffffffffffffffffffffff16815260200150509050611632612b7863ffffffff16565b67ffffffffffffffff16816020015167ffffffffffffffff161115151561168e576040517f08c379a000000000000000000000000000000000000000000000000000000000815260040161168590614089565b60405180910390fd5b6000600060009054906101000a900473ffffffffffffffffffffffffffffffffffffffff1673ffffffffffffffffffffffffffffffffffffffff1663d3419bf36040518163ffffffff1660e01b815260040160206040518083038186803b1580156116f95760006000fd5b505afa15801561170e573d600060003e3d6000fd5b505050506040513d601f19601f820116820180604052508101906117329190613a9d565b90506000600d60005080549050905060008167ffffffffffffffff8111801561175b5760006000fd5b5060405190808252806020026020018201604052801561178a5781602001602082028036833780820191505090505b5090506000600090505b82811015611894578373ffffffffffffffffffffffffffffffffffffffff1663ce403c13600d600050838154811015156117ca57fe5b906000526020600020900160005b9054906101000a900473ffffffffffffffffffffffffffffffffffffffff166040518263ffffffff1660e01b81526004016118139190613ea0565b602060405180830381600087803b15801561182e5760006000fd5b505af1158015611843573d600060003e3d6000fd5b505050506040513d601f19601f820116820180604052508101906118679190613bc0565b828281518110151561187557fe5b60200260200101909081815260200150505b8080600101915050611794565b5060006118d782600760009054906101000a90046fffffffffffffffffffffffffffffffff166fffffffffffffffffffffffffffffffff166121a263ffffffff16565b905060006040518060600160405280611a57886000015160086000506040518060c00160405290816000820160009054906101000a90046fffffffffffffffffffffffffffffffff166fffffffffffffffffffffffffffffffff166fffffffffffffffffffffffffffffffff1681526020016000820160109054906101000a90046fffffffffffffffffffffffffffffffff166fffffffffffffffffffffffffffffffff166fffffffffffffffffffffffffffffffff1681526020016001820160009054906101000a90046fffffffffffffffffffffffffffffffff166fffffffffffffffffffffffffffffffff166fffffffffffffffffffffffffffffffff1681526020016001820160109054906101000a900467ffffffffffffffff1667ffffffffffffffff1667ffffffffffffffff1681526020016002820160009054906101000a9004600f0b600f0b600f0b81526020016002820160109054906101000a9004600f0b600f0b600f0b81526020015050866121db63ffffffff16565b8152602001611a81600760109054906101000a900467ffffffffffffffff16612dab63ffffffff16565b67ffffffffffffffff168152602001611abd611ab089611aa5612b7863ffffffff16565b612b9363ffffffff16565b612de1909063ffffffff16565b6fffffffffffffffffffffffffffffffff16815260200150905080600b60005060008201518160000160005090905560208201518160010160006101000a81548167ffffffffffffffff021916908367ffffffffffffffff16021790555060408201518160010160086101000a8154816fffffffffffffffffffffffffffffffff02191690836fffffffffffffffffffffffffffffffff160217905550905050600060009054906101000a900473ffffffffffffffffffffffffffffffffffffffff1673ffffffffffffffffffffffffffffffffffffffff1663ef7a7cfa3383604001516040518363ffffffff1660e01b8152600401611bbe929190613e23565b600060405180830381600087803b158015611bd95760006000fd5b505af1158015611bee573d600060003e3d6000fd5b505050507f9f912bcb7b057a4f10fbbee5785670aecb2ab545144237646e17398d55de72dc81600001518383604001518460200151604051611c339493929190613f0e565b60405180910390a15050505050505b5b611c51612a7963ffffffff16565b5b565b611c626120c363ffffffff16565b600060009054906101000a900473ffffffffffffffffffffffffffffffffffffffff1673ffffffffffffffffffffffffffffffffffffffff1663ab658be26040518163ffffffff1660e01b815260040160006040518083038186803b158015611ccb5760006000fd5b505afa158015611ce0573d600060003e3d6000fd5b505050506040513d6000823e3d601f19601f82011682018060405250810190611d099190613911565b600d6000509080519060200190611d2192919061384b565b508073ffffffffffffffffffffffffffffffffffffffff16604051611d4590613d99565b60405180910390207f78caada2f560033c9479d8c5e33f045f2e611faebe6b6d8a73874c80ec2dd3a260405160405180910390a35b5b50565b611d8c6120c363ffffffff16565b80600760006101000a8154816fffffffffffffffffffffffffffffffff02191690836fffffffffffffffffffffffffffffffff160217905550670de0b6b3a7640000600760009054906101000a90046fffffffffffffffffffffffffffffffff166fffffffffffffffffffffffffffffffff16101515611e0c5760006000fd5b604051611e1890613d68565b60405180910390207ff92f7fc8addd796154d83393012a119e212b31cb3dc9776133129db4c5747fcc82604051611e4f9190614107565b60405180910390a25b5b50565b611e6a6120c363ffffffff16565b80600860005060010160106101000a81548167ffffffffffffffff021916908367ffffffffffffffff160217905550604051611ea590613c11565b60405180910390207f6293347933ad2997134e224ac8cd2e39908a4a22aeed9af52127b4bbf765297882604051611edc91906141b3565b60405180910390a25b5b50565b600160009054906101000a900473ffffffffffffffffffffffffffffffffffffffff1681565b611f1d612b0d63ffffffff16565b5b611f2c612b6863ffffffff16565b5b565b611f3d6120c363ffffffff16565b600860005060020160109054906101000a9004600f0b600f0b81600f0b121515611f675760006000fd5b80600860005060020160006101000a8154816fffffffffffffffffffffffffffffffff0219169083600f0b6fffffffffffffffffffffffffffffffff160217905550604051611fb590613dca565b60405180910390207f73372e841856ef3f75f5070dea5fbba697b24bf1b513158c125d0c7bbcc62fd282604051611fec9190613ef9565b60405180910390a25b5b50565b6120076120c363ffffffff16565b80600f0b600860005060020160009054906101000a9004600f0b600f0b1215156120315760006000fd5b80600860005060020160106101000a8154816fffffffffffffffffffffffffffffffff0219169083600f0b6fffffffffffffffffffffffffffffffff16021790555060405161207f90613cd5565b60405180910390207f73372e841856ef3f75f5070dea5fbba697b24bf1b513158c125d0c7bbcc62fd2826040516120b69190613ef9565b60405180910390a25b5b50565b600060009054906101000a900473ffffffffffffffffffffffffffffffffffffffff1673ffffffffffffffffffffffffffffffffffffffff163373ffffffffffffffffffffffffffffffffffffffff16141515612155576040517f08c379a000000000000000000000000000000000000000000000000000000000815260040161214c9061400b565b60405180910390fd5b5b565b6001600060146101000a81548160ff0219169083151502179055507f7acc84e34091ae817647a4c49116f5cc07f319078ba80f8f5fde37ea7e25cbd660405160405180910390a15b565b60006121ce6121b78484612e7b63ffffffff16565b670de0b6b3a76400006131fe90919063ffffffff16565b90506121d5565b92915050565b60006000670de0b6b3a76400008310905060008161220357670de0b6b3a7640000840361220f565b83670de0b6b3a7640000035b905084600001516fffffffffffffffffffffffffffffffff168110151561230857600061228761227a600188602001516fffffffffffffffffffffffffffffffff168581151561225b57fe5b0401886060015167ffffffffffffffff1661322490919063ffffffff16565b613242909063ffffffff16565b67ffffffffffffffff16905060006122ce6122c18389604001516fffffffffffffffffffffffffffffffff166132d490919063ffffffff16565b613372909063ffffffff16565b9050836122ed576122e8818961341b90919063ffffffff16565b612301565b61230081896134b290919063ffffffff16565b5b9750875050505b8460800151600f0b861215612324578460800151600f0b955085505b8460a00151600f0b861315612340578460a00151600f0b955085505b859250505061234c5650505b9392505050565b6040518060c0016040528066038d7ea4c680006fffffffffffffffffffffffffffffffff1681526020016611c37937e080006fffffffffffffffffffffffffffffffff1681526020016611c37937e080006fffffffffffffffffffffffffffffffff168152602001600567ffffffffffffffff1681526020017ffffffffffffffffffffffffffffffffffffffffffffffffffdeb17cb73b10000600f0b81526020016706f05b59d3b20000600f0b815260200150600860005060008201518160000160006101000a8154816fffffffffffffffffffffffffffffffff02191690836fffffffffffffffffffffffffffffffff16021790555060208201518160000160106101000a8154816fffffffffffffffffffffffffffffffff02191690836fffffffffffffffffffffffffffffffff16021790555060408201518160010160006101000a8154816fffffffffffffffffffffffffffffffff02191690836fffffffffffffffffffffffffffffffff16021790555060608201518160010160106101000a81548167ffffffffffffffff021916908367ffffffffffffffff16021790555060808201518160020160006101000a8154816fffffffffffffffffffffffffffffffff0219169083600f0b6fffffffffffffffffffffffffffffffff16021790555060a08201518160020160106101000a8154816fffffffffffffffffffffffffffffffff0219169083600f0b6fffffffffffffffffffffffffffffffff160217905550905050604051806060016040528066b1a2bc2ec5000081526020016125d7600760109054906101000a900467ffffffffffffffff166125bf612b7863ffffffff16565b67ffffffffffffffff1661354990919063ffffffff16565b67ffffffffffffffff16815260200168056bc75e2d631000006fffffffffffffffffffffffffffffffff16815260200150600b60005060008201518160000160005090905560208201518160010160006101000a81548167ffffffffffffffff021916908367ffffffffffffffff16021790555060408201518160010160086101000a8154816fffffffffffffffffffffffffffffffff02191690836fffffffffffffffffffffffffffffffff160217905550905050600060405180610100016040528063c737ea6260e01b7bffffffffffffffffffffffffffffffffffffffffffffffffffffffff19167bffffffffffffffffffffffffffffffffffffffffffffffffffffffff191681526020016380ddbdb460e01b7bffffffffffffffffffffffffffffffffffffffffffffffffffffffff19167bffffffffffffffffffffffffffffffffffffffffffffffffffffffff19168152602001635fd019ad60e01b7bffffffffffffffffffffffffffffffffffffffffffffffffffffffff19167bffffffffffffffffffffffffffffffffffffffffffffffffffffffff19168152602001636e16ead260e01b7bffffffffffffffffffffffffffffffffffffffffffffffffffffffff19167bffffffffffffffffffffffffffffffffffffffffffffffffffffffff19168152602001635d8350b460e01b7bffffffffffffffffffffffffffffffffffffffffffffffffffffffff19167bffffffffffffffffffffffffffffffffffffffffffffffffffffffff1916815260200163d3ab388860e01b7bffffffffffffffffffffffffffffffffffffffffffffffffffffffff19167bffffffffffffffffffffffffffffffffffffffffffffffffffffffff1916815260200163ee47304d60e01b7bffffffffffffffffffffffffffffffffffffffffffffffffffffffff19167bffffffffffffffffffffffffffffffffffffffffffffffffffffffff1916815260200163eec3f6f160e01b7bffffffffffffffffffffffffffffffffffffffffffffffffffffffff19167bffffffffffffffffffffffffffffffffffffffffffffffffffffffff191681526020015090506000600090505b8150600881101561299557600160056000506000848460088110151561291f57fe5b60200201517bffffffffffffffffffffffffffffffffffffffffffffffffffffffff19167bffffffffffffffffffffffffffffffffffffffffffffffffffffffff1916815260200190815260200160002060006101000a81548160ff0219169083151502179055505b80806001019150506128fd565b50505b565b600460009054906101000a900473ffffffffffffffffffffffffffffffffffffffff1673ffffffffffffffffffffffffffffffffffffffff1663e97dcb626040518163ffffffff1660e01b8152600401600060405180830381600087803b158015612a055760006000fd5b505af1158015612a1a573d600060003e3d6000fd5b50505050600260066000505414151515612a69576040517f08c379a0000000000000000000000000000000000000000000000000000000008152600401612a609061404a565b60405180910390fd5b600260066000508190909055505b565b60016006600050819090905550600460009054906101000a900473ffffffffffffffffffffffffffffffffffffffff1673ffffffffffffffffffffffffffffffffffffffff1663e9fad8ee6040518163ffffffff1660e01b8152600401600060405180830381600087803b158015612af15760006000fd5b505af1158015612b06573d600060003e3d6000fd5b505050505b565b600260066000505414151515612b58576040517f08c379a0000000000000000000000000000000000000000000000000000000008152600401612b4f90613fcc565b60405180910390fd5b600260066000508190909055505b565b600160066000508190909055505b565b6000612b8b42613242909063ffffffff16565b905080505b90565b6000826020015167ffffffffffffffff168267ffffffffffffffff16111515612bbf5760009050612c6c565b6000600284604001516fffffffffffffffffffffffffffffffff16811515612be357fe5b046fffffffffffffffffffffffffffffffff1690506000612c218560200151850367ffffffffffffffff16610708846135e69092919063ffffffff16565b82019050612c61612c52600587604001516fffffffffffffffffffffffffffffffff166132d490919063ffffffff16565b8261322490919063ffffffff16565b92505050612c6c5650505b92915050565b600060149054906101000a900460ff16151515612cc4576040517f08c379a0000000000000000000000000000000000000000000000000000000008152600401612cbb906140c8565b60405180910390fd5b600060009054906101000a900473ffffffffffffffffffffffffffffffffffffffff1673ffffffffffffffffffffffffffffffffffffffff1663bf86d6906040518163ffffffff1660e01b815260040160206040518083038186803b158015612d2d5760006000fd5b505afa158015612d42573d600060003e3d6000fd5b505050506040513d601f19601f82011682018060405250810190612d6691906139d5565b151515612da8576040517f08c379a0000000000000000000000000000000000000000000000000000000008152600401612d9f90613f8d565b60405180910390fd5b5b565b6000612dd782612dbf612b7863ffffffff16565b67ffffffffffffffff1661354990919063ffffffff16565b905080505b919050565b600070010000000000000000000000000000000082101515612e6e576040517f08c379a00000000000000000000000000000000000000000000000000000000081526004018080602001828103825260128152602001807f6d6f7265207468616e203132382062697473000000000000000000000000000081526020015060200191505060405180910390fd5b819050612e76565b919050565b60006000612e9a83670de0b6b3a76400006136e790919063ffffffff16565b90506000612eb984670de0b6b3a764000061377090919063ffffffff16565b9050600085519050600081111515612ed15760006000fd5b60008167ffffffffffffffff81118015612eeb5760006000fd5b50604051908082528060200260200182016040528015612f1a5781602001602082028036833780820191505090505b5090506000600060006000600090505b85811015612f9c578a81815181101515612f4057fe5b6020026020010151915081508188108015612f5a57508682105b15612f8e578380600101945050818584806001019550815181101515612f7c57fe5b60200260200101909081815260200150505b5b8080600101915050612f2a565b506000831415612fb25789519250825089935083505b600060005b600285111561316b57856000815181101515612fcf57fe5b602002602001015191508150856001815181101515612fea57fe5b6020026020010151905080506000600190505b8581101561304957868181518110151561301357fe5b6020026020010151935083508284101561302d5783925082505b8184111561303b5783915081505b5b8080600101915050612ffd565b5080821415613063578199505050505050505050506131f8565b60006002860367ffffffffffffffff811180156130805760006000fd5b506040519080825280602002602001820160405280156130af5781602001602082028036833780820191505090505b509050600094508450600060006000600090505b888110156131555789818151811015156130d957fe5b60200260200101519650865084871480156130f2575082155b1561310257600192508250613147565b858714801561310f575081155b1561311f57600191508150613146565b868489806001019a5081518110151561313457fe5b60200260200101909081815260200150505b5b5b80806001019150506130c3565b5060028803975087508298508850505050612fb7565b600185141561319f5785600081518110151561318357fe5b602002602001015199505050505050505050506131f8566131ee565b6131de8660018151811015156131b157fe5b60200260200101518760008151811015156131c857fe5b60200260200101516137f990919063ffffffff16565b99505050505050505050506131f8565b5050505050505050505b92915050565b600061321983670de0b6b3a7640000846135e663ffffffff16565b905080505b92915050565b60008183106132335781613235565b825b905061323c565b92915050565b600068010000000000000000821015156132c7576040517f08c379a00000000000000000000000000000000000000000000000000000000081526004018080602001828103825260118152602001807f6d6f7265207468616e203634206269747300000000000000000000000000000081526020015060200191505060405180910390fd5b8190506132cf565b919050565b600060008214806132f4575082828385029250828115156132f157fe5b04145b151561336b576040517f08c379a000000000000000000000000000000000000000000000000000000000815260040180806020018281038252600c8152602001807f6d756c2d6f766572666c6f77000000000000000000000000000000000000000081526020015060200191505060405180910390fd5b5b92915050565b60007f80000000000000000000000000000000000000000000000000000000000000008210151561340e576040517f08c379a00000000000000000000000000000000000000000000000000000000081526004018080602001828103825260128152602001807f746f6f2062696720666f7220696e74323536000000000000000000000000000081526020015060200191505060405180910390fd5b819050613416565b919050565b600060008284039050600083121580156134355750838113155b8061344b575060008312801561344a57508381135b5b15156134a2576040517f08c379a000000000000000000000000000000000000000000000000000000000815260040180806020018281038252602481526020018061421b6024913960400191505060405180910390fd5b809150506134ac56505b92915050565b600060008284019050600083121580156134cc5750838112155b806134e257506000831280156134e157508381125b5b1515613539576040517f08c379a00000000000000000000000000000000000000000000000000000000081526004018080602001828103825260218152602001806141fa6021913960400191505060405180910390fd5b8091505061354356505b92915050565b60008267ffffffffffffffff1682840191508167ffffffffffffffff16101515156135df576040517f08c379a000000000000000000000000000000000000000000000000000000000815260040180806020018281038252600c8152602001807f6164642d6f766572666c6f77000000000000000000000000000000000000000081526020015060200191505060405180910390fd5b5b92915050565b60006000600060001985870985870292508281108382030391505060008114156136295760008411151561361a5760006000fd5b838204925082925050506136e0565b80841115156136385760006000fd5b60008486880990508281118203915080830392506000858660000316905080860495508084049350600181826000030401905080830284179350835060006002876003021890508087026002038102905080508087026002038102905080508087026002038102905080508087026002038102905080508087026002038102905080508087026002038102905080508085029550855085955050505050506136e05650505050505b9392505050565b60008282840391508111151515613769576040517f08c379a000000000000000000000000000000000000000000000000000000000815260040180806020018281038252600d8152602001807f7375622d756e646572666c6f770000000000000000000000000000000000000081526020015060200191505060405180910390fd5b5b92915050565b600082828401915081101515156137f2576040517f08c379a000000000000000000000000000000000000000000000000000000000815260040180806020018281038252600c8152602001807f6164642d6f766572666c6f77000000000000000000000000000000000000000081526020015060200191505060405180910390fd5b5b92915050565b6000600260028381151561380957fe5b0660028581151561381657fe5b060181151561382157fe5b0460028381151561382e57fe5b0460028581151561383b57fe5b0401019050613845565b92915050565b8280548282559060005260206000209081019282156138c4579160200282015b828111156138c35782518260006101000a81548173ffffffffffffffffffffffffffffffffffffffff021916908373ffffffffffffffffffffffffffffffffffffffff1602179055509160200191906001019061386b565b5b5090506138d191906138d5565b5090565b6138da565b808211156138f457600081815060009055506001016138da565b5090566141f8565b60008151905061390b816141cf565b5b919050565b60006020808385031215613923578182fd5b825167ffffffffffffffff8082111561393a578384fd5b818501915085601f830112151561394f578384fd5b81518181111561395b57fe5b8381026040518582820101818110858211171561397457fe5b806040525080935082815285810193508585018987848801011115613997578788fd5b8795505b838610156139c4576139ac816138fc565b8552868501945086810190505b60018601955061399b565b508096505050505050505b92915050565b6000602082840312156139e6578081fd5b8151801515811415156139f7578182fd5b809150505b92915050565b600060208284031215613a13578081fd5b81357fffffffff00000000000000000000000000000000000000000000000000000000811681141515613a44578182fd5b809150505b92915050565b600060208284031215613a60578081fd5b8151613a6b816141cf565b809150505b92915050565b600060208284031215613a87578081fd5b8135613a92816141cf565b809150505b92915050565b600060208284031215613aae578081fd5b8151613ab9816141cf565b809150505b92915050565b600060208284031215613ad5578081fd5b8151613ae0816141cf565b809150505b92915050565b600060208284031215613afc578081fd5b8135613b07816141cf565b809150505b92915050565b600060208284031215613b23578081fd5b8151613b2e816141cf565b809150505b92915050565b600060208284031215613b4a578081fd5b813580600f0b81141515613b5c578182fd5b809150505b92915050565b600060208284031215613b78578081fd5b81356fffffffffffffffffffffffffffffffff811681141515613b99578182fd5b809150505b92915050565b600060208284031215613bb5578081fd5b813590505b92915050565b600060208284031215613bd1578081fd5b815190505b92915050565b600060208284031215613bed578081fd5b813567ffffffffffffffff811681141515613c06578182fd5b809150505b92915050565b60007f6d6178537465707300000000000000000000000000000000000000000000000082526008820190505b919050565b60007f6572726f72496e74657276616c000000000000000000000000000000000000008252600d820190505b919050565b60007f61636365707461626c654572726f7200000000000000000000000000000000008252600f820190505b919050565b60007f6d696e54696d654265747765656e55706461746573000000000000000000000082526015820190505b919050565b60007f6d6178526174650000000000000000000000000000000000000000000000000082526007820190505b919050565b60007f72656d6f76655265666572656e6365506f6f6c0000000000000000000000000082526013820190505b919050565b60007f696e74657265737452617465537465700000000000000000000000000000000082526010820190505b919050565b60007f76616c696452616e6765466f725261775072696365730000000000000000000082526016820190505b919050565b60007f6164645265666572656e6365506f6f6c0000000000000000000000000000000082526010820190505b919050565b60007f6d696e526174650000000000000000000000000000000000000000000000000082526007820190505b919050565b600060208201905073ffffffffffffffffffffffffffffffffffffffff831682525b92915050565b600060408201905073ffffffffffffffffffffffffffffffffffffffff841682526fffffffffffffffffffffffffffffffff831660208301525b9392505050565b600060208201905082151582525b92915050565b600060208201905073ffffffffffffffffffffffffffffffffffffffff831682525b92915050565b600060208201905073ffffffffffffffffffffffffffffffffffffffff831682525b92915050565b600060408201905073ffffffffffffffffffffffffffffffffffffffff8416825282151560208301525b9392505050565b600060208201905082600f0b82525b92915050565b60006080820190508582528460208301526fffffffffffffffffffffffffffffffff8416604083015267ffffffffffffffff831660608301525b95945050505050565b600060608201905084825267ffffffffffffffff841660208301526fffffffffffffffffffffffffffffffff831660408301525b949350505050565b600060208252601160208301527f50726f746f636f6c2073687574646f776e00000000000000000000000000000060408301526060820190505b919050565b600060208252600d60208301527f4c43205265656e7472616e63790000000000000000000000000000000000000060408301526060820190505b919050565b600060208252600e60208301527f4e6f7420417574686f72697a656400000000000000000000000000000000000060408301526060820190505b919050565b600060208252600d60208301527f4c50205265656e7472616e63790000000000000000000000000000000000000060408301526060820190505b919050565b600060208252601060208301527f557064617465206e6f742072656164790000000000000000000000000000000060408301526060820190505b919050565b600060208252601360208301527f436f6e74726163742069732073746f707065640000000000000000000000000060408301526060820190505b919050565b60006020820190506fffffffffffffffffffffffffffffffff831682525b92915050565b600060c0820190506fffffffffffffffffffffffffffffffff8089168352808816602084015280871660408401525067ffffffffffffffff8516606083015283600f0b608083015282600f0b60a08301525b979650505050505050565b60006020820190508282525b92915050565b60006040820190508382528260208301525b9392505050565b600060208201905067ffffffffffffffff831682525b92915050565b73ffffffffffffffffffffffffffffffffffffffff8116811415156141f45760006000fd5b5b50565bfe5369676e6564536166654d6174683a206164646974696f6e206f766572666c6f775369676e6564536166654d6174683a207375627472616374696f6e206f766572666c6f77a2646970667358221220b0f204e6ed6e53aa24dc194d74ade26c30e066314a905dcec86320c7f08a533164736f6c63430007060033",
  "linkReferences": {},
  "deployedLinkReferences": {}
}