{
  "_format": "hh-sol-artifact-1",
  "contractName": "Rates",
  "sourceName": "contracts/core/logic/Rates.sol",
  "abi": [
    {
      "inputs": [
        {
          "internalType": "address",
          "name": "_weth",
          "type": "address"
        }
      ],
      "stateMutability": "nonpayable",
      "type": "constructor"
    },
    {
      "anonymous": false,
      "inputs": [
        {
          "indexed": true,
          "internalType": "address",
          "name": "governor",
          "type": "address"
        }
      ],
      "name": "Initialized",
      "type": "event"
    },
    {
      "anonymous": false,
      "inputs": [
        {
          "indexed": true,
          "internalType": "string",
          "name": "paramName",
          "type": "string"
        },
        {
          "indexed": false,
          "internalType": "uint128",
          "name": "value",
          "type": "uint128"
        }
      ],
      "name": "ParameterUpdated128",
      "type": "event"
    },
    {
      "anonymous": false,
      "inputs": [
        {
          "indexed": true,
          "internalType": "string",
          "name": "paramName",
          "type": "string"
        },
        {
          "indexed": false,
          "internalType": "uint64",
          "name": "value",
          "type": "uint64"
        }
      ],
      "name": "ParameterUpdated64",
      "type": "event"
    },
    {
      "anonymous": false,
      "inputs": [
        {
          "indexed": true,
          "internalType": "string",
          "name": "paramName",
          "type": "string"
        },
        {
          "indexed": true,
          "internalType": "address",
          "name": "addr",
          "type": "address"
        }
      ],
      "name": "ParameterUpdatedAddress",
      "type": "event"
    },
    {
      "anonymous": false,
      "inputs": [
        {
          "indexed": true,
          "internalType": "string",
          "name": "paramName",
          "type": "string"
        },
        {
          "indexed": false,
          "internalType": "int128",
          "name": "value",
          "type": "int128"
        }
      ],
      "name": "ParameterUpdatedInt128",
      "type": "event"
    },
    {
      "anonymous": false,
      "inputs": [
        {
          "indexed": false,
          "internalType": "int256",
          "name": "interestRate",
          "type": "int256"
        },
        {
          "indexed": false,
          "internalType": "uint256",
          "name": "price",
          "type": "uint256"
        },
        {
          "indexed": false,
          "internalType": "uint256",
          "name": "rewardCount",
          "type": "uint256"
        },
        {
          "indexed": false,
          "internalType": "uint64",
          "name": "nextUpdateTime",
          "type": "uint64"
        }
      ],
      "name": "RateUpdated",
      "type": "event"
    },
    {
      "anonymous": false,
      "inputs": [],
      "name": "Stopped",
      "type": "event"
    },
    {
      "inputs": [
        {
          "internalType": "contract IUniswapV3Pool",
          "name": "pool",
          "type": "address"
        }
      ],
      "name": "addReferencePool",
      "outputs": [],
      "stateMutability": "nonpayable",
      "type": "function"
    },
    {
      "inputs": [],
      "name": "currentRateData",
      "outputs": [
        {
          "internalType": "int256",
          "name": "rate",
          "type": "int256"
        },
        {
          "internalType": "uint64",
          "name": "nextUpdateTime",
          "type": "uint64"
        },
        {
          "internalType": "uint128",
          "name": "rewardCount",
          "type": "uint128"
        }
      ],
      "stateMutability": "view",
      "type": "function"
    },
    {
      "inputs": [],
      "name": "deployer",
      "outputs": [
        {
          "internalType": "address",
          "name": "",
          "type": "address"
        }
      ],
      "stateMutability": "view",
      "type": "function"
    },
    {
      "inputs": [
        {
          "internalType": "contract IUniswapV3Pool[]",
          "name": "_referencePools",
          "type": "address[]"
        }
      ],
      "name": "finalizeInitialization",
      "outputs": [],
      "stateMutability": "nonpayable",
      "type": "function"
    },
    {
      "inputs": [],
      "name": "getReferencePools",
      "outputs": [
        {
          "internalType": "contract IUniswapV3Pool[]",
          "name": "",
          "type": "address[]"
        }
      ],
      "stateMutability": "view",
      "type": "function"
    },
    {
      "inputs": [],
      "name": "getRewardCount",
      "outputs": [
        {
          "internalType": "uint256",
          "name": "",
          "type": "uint256"
        }
      ],
      "stateMutability": "view",
      "type": "function"
    },
    {
      "inputs": [],
      "name": "governor",
      "outputs": [
        {
          "internalType": "contract IGovernor",
          "name": "",
          "type": "address"
        }
      ],
      "stateMutability": "view",
      "type": "function"
    },
    {
      "inputs": [
        {
          "internalType": "contract IGovernor",
          "name": "_governor",
          "type": "address"
        }
      ],
      "name": "init",
      "outputs": [],
      "stateMutability": "nonpayable",
      "type": "function"
    },
    {
      "inputs": [],
      "name": "interestRateAbsoluteValue",
      "outputs": [
        {
          "internalType": "uint256",
          "name": "",
          "type": "uint256"
        }
      ],
      "stateMutability": "view",
      "type": "function"
    },
    {
      "inputs": [],
      "name": "interestRateParameters",
      "outputs": [
        {
          "internalType": "uint128",
          "name": "acceptableError",
          "type": "uint128"
        },
        {
          "internalType": "uint128",
          "name": "errorInterval",
          "type": "uint128"
        },
        {
          "internalType": "uint128",
          "name": "interestRateStep",
          "type": "uint128"
        },
        {
          "internalType": "uint64",
          "name": "maxSteps",
          "type": "uint64"
        },
        {
          "internalType": "int128",
          "name": "minRate",
          "type": "int128"
        },
        {
          "internalType": "int128",
          "name": "maxRate",
          "type": "int128"
        }
      ],
      "stateMutability": "view",
      "type": "function"
    },
    {
      "inputs": [],
      "name": "minTimeBetweenUpdates",
      "outputs": [
        {
          "internalType": "uint64",
          "name": "",
          "type": "uint64"
        }
      ],
      "stateMutability": "view",
      "type": "function"
    },
    {
      "inputs": [],
      "name": "positiveInterestRate",
      "outputs": [
        {
          "internalType": "bool",
          "name": "",
          "type": "bool"
        }
      ],
      "stateMutability": "view",
      "type": "function"
    },
    {
      "inputs": [],
      "name": "predictInterestRate",
      "outputs": [
        {
          "internalType": "uint256",
          "name": "price",
          "type": "uint256"
        },
        {
          "internalType": "int256",
          "name": "rate",
          "type": "int256"
        }
      ],
      "stateMutability": "view",
      "type": "function"
    },
    {
      "inputs": [
        {
          "internalType": "uint256",
          "name": "",
          "type": "uint256"
        }
      ],
      "name": "referencePools",
      "outputs": [
        {
          "internalType": "contract IUniswapV3Pool",
          "name": "",
          "type": "address"
        }
      ],
      "stateMutability": "view",
      "type": "function"
    },
    {
      "inputs": [
        {
          "internalType": "contract IUniswapV3Pool",
          "name": "pool",
          "type": "address"
        }
      ],
      "name": "removeReferencePool",
      "outputs": [],
      "stateMutability": "nonpayable",
      "type": "function"
    },
    {
      "inputs": [
        {
          "internalType": "uint128",
          "name": "error",
          "type": "uint128"
        }
      ],
      "name": "setAcceptableError",
      "outputs": [],
      "stateMutability": "nonpayable",
      "type": "function"
    },
    {
      "inputs": [
        {
          "internalType": "uint128",
          "name": "interval",
          "type": "uint128"
        }
      ],
      "name": "setErrorInterval",
      "outputs": [],
      "stateMutability": "nonpayable",
      "type": "function"
    },
    {
      "inputs": [
        {
          "internalType": "uint128",
          "name": "step",
          "type": "uint128"
        }
      ],
      "name": "setInterestRateStep",
      "outputs": [],
      "stateMutability": "nonpayable",
      "type": "function"
    },
    {
      "inputs": [
        {
          "internalType": "int128",
          "name": "max",
          "type": "int128"
        }
      ],
      "name": "setMaxRate",
      "outputs": [],
      "stateMutability": "nonpayable",
      "type": "function"
    },
    {
      "inputs": [
        {
          "internalType": "uint64",
          "name": "steps",
          "type": "uint64"
        }
      ],
      "name": "setMaxSteps",
      "outputs": [],
      "stateMutability": "nonpayable",
      "type": "function"
    },
    {
      "inputs": [
        {
          "internalType": "int128",
          "name": "min",
          "type": "int128"
        }
      ],
      "name": "setMinRate",
      "outputs": [],
      "stateMutability": "nonpayable",
      "type": "function"
    },
    {
      "inputs": [
        {
          "internalType": "uint64",
          "name": "time",
          "type": "uint64"
        }
      ],
      "name": "setMinTimeBetweenUpdates",
      "outputs": [],
      "stateMutability": "nonpayable",
      "type": "function"
    },
    {
      "inputs": [],
      "name": "stop",
      "outputs": [],
      "stateMutability": "nonpayable",
      "type": "function"
    },
    {
      "inputs": [],
      "name": "stopped",
      "outputs": [
        {
          "internalType": "bool",
          "name": "",
          "type": "bool"
        }
      ],
      "stateMutability": "view",
      "type": "function"
    },
    {
      "inputs": [],
      "name": "update",
      "outputs": [],
      "stateMutability": "nonpayable",
      "type": "function"
    },
    {
      "inputs": [
        {
          "internalType": "bytes4",
          "name": "",
          "type": "bytes4"
        }
      ],
      "name": "validUpdate",
      "outputs": [
        {
          "internalType": "bool",
          "name": "",
          "type": "bool"
        }
      ],
      "stateMutability": "view",
      "type": "function"
    }
  ],
  "bytecode": "0x60a06040526001600660005090905562014a78600760006101000a81548167ffffffffffffffff021916908367ffffffffffffffff160217905550348015620000485760006000fd5b50604051620045003803806200450083398181016040528101906200006e9190620000f9565b5b5b33600160006101000a81548173ffffffffffffffffffffffffffffffffffffffff021916908373ffffffffffffffffffffffffffffffffffffffff1602179055505b8073ffffffffffffffffffffffffffffffffffffffff1660808173ffffffffffffffffffffffffffffffffffffffff1660601b815260140150505b5062000130566200012f565b6000602082840312156200010b578081fd5b81516001600160a01b0381168114151562000124578182fd5b809150505b92915050565b5b60805160601c6143b26200014e60003980612b2d52506143b26000f3fe60806040523480156100115760006000fd5b50600436106101b35760003560e01c806375f12b21116100ef578063a2e6204511610098578063d3ab388811610072578063d3ab388814610441578063d5f394881461045d578063ee47304d1461047b578063eec3f6f114610497576101b3565b8063a2e62045146103fd578063ab658be214610407578063c381c1e614610425576101b3565b806384333cc7116100c957806384333cc71461038c57806395563b47146103bc578063a0fc0eda146103df576101b3565b806375f12b21146103345780637e7e8eec1461035257806380ddbdb414610370576101b3565b806319ab453c1161015c5780635d8350b4116101365780635d8350b4146102c25780635fd019ad146102de5780636d7fa664146102fa5780636e16ead214610318576101b3565b806319ab453c1461026a5780631f244faf146102865780635162eb02146102a6576101b3565b8063150147d71161018d578063150147d714610211578063178d12261461022d57806319a6e9e61461024c576101b3565b806307da68f5146101b95780630c340a24146101c3578063113cf1ab146101e1576101b3565b60006000fd5b6101c16104b3565b005b6101cb6104d3565b6040516101d89190613f05565b60405180910390f35b6101fb60048036038101906101f69190613a5c565b6104f9565b6040516102089190613ef1565b60405180910390f35b61022b60048036038101906102269190613b6c565b61051e565b005b61023561063a565b6040516102439291906142d8565b60405180910390f35b6102546109ea565b60405161026191906142f1565b60405180910390f35b610284600480360381019061027f9190613ad0565b610a04565b005b61028e610e16565b60405161029d93929190614011565b60405180910390f35b6102c060048036038101906102bb91906139ba565b610e64565b005b6102dc60048036038101906102d79190613c36565b610fab565b005b6102f860048036038101906102f39190613bc1565b611062565b005b610302611146565b60405161030f9190613ef1565b60405180910390f35b610332600480360381019061032d9190613bc1565b611162565b005b61033c611228565b6040516103499190613ef1565b60405180910390f35b61035a61123b565b60405161036791906142c6565b60405180910390f35b61038a60048036038101906103859190613bc1565b6112ff565b005b6103a660048036038101906103a19190613bfe565b6113c5565b6040516103b39190613f2d565b60405180910390f35b6103c461140b565b6040516103d696959493929190614269565b60405180910390f35b6103e76114ba565b6040516103f491906142c6565b60405180910390f35b6104056114eb565b005b61040f611ba6565b60405161041c9190613e8d565b60405180910390f35b61043f600480360381019061043a9190613b6c565b611c3c565b005b61045b60048036038101906104569190613c36565b611df8565b005b610465611e85565b6040516104729190613e24565b60405180910390f35b61049560048036038101906104909190613b93565b611eab565b005b6104b160048036038101906104ac9190613b93565b611f75565b005b6104c161203f63ffffffff16565b6104cf6120d463ffffffff16565b5b5b565b600060009054906101000a900473ffffffffffffffffffffffffffffffffffffffff1681565b600560005060205280600052604060002060009150909054906101000a900460ff1681565b61052c61203f63ffffffff16565b6105c5600d6000508054806020026020016040519081016040528092919081815260200182805480156105b457602002820191906000526020600020905b8160009054906101000a900473ffffffffffffffffffffffffffffffffffffffff1673ffffffffffffffffffffffffffffffffffffffff168152602001906001019080831161056a575b50505050508261211e63ffffffff16565b600d60005090805190602001906105dd929190613869565b508073ffffffffffffffffffffffffffffffffffffffff1660405161060190613d60565b60405180910390207f78caada2f560033c9479d8c5e33f045f2e611faebe6b6d8a73874c80ec2dd3a260405160405180910390a35b5b50565b600060006000600060009054906101000a900473ffffffffffffffffffffffffffffffffffffffff1673ffffffffffffffffffffffffffffffffffffffff1663d3419bf36040518163ffffffff1660e01b815260040160206040518083038186803b1580156106a95760006000fd5b505afa1580156106be573d600060003e3d6000fd5b505050506040513d601f19601f820116820180604052508101906106e29190613b1e565b90506000600d60005080549050905060008167ffffffffffffffff8111801561070b5760006000fd5b5060405190808252806020026020018201604052801561073a5781602001602082028036833780820191505090505b5090506000600090505b82811015610845578373ffffffffffffffffffffffffffffffffffffffff16633c63a9cd600d6000508381548110151561077a57fe5b906000526020600020900160005b9054906101000a900473ffffffffffffffffffffffffffffffffffffffff1660016040518363ffffffff1660e01b81526004016107c6929190613f88565b60206040518083038186803b1580156107df5760006000fd5b505afa1580156107f4573d600060003e3d6000fd5b505050506040513d601f19601f820116820180604052508101906108189190613c1a565b828281518110151561082657fe5b60200260200101909081815260200150505b8080600101915050610744565b50610855816122a863ffffffff16565b945084506109d1600b6000506000016000505460086000506040518060c00160405290816000820160009054906101000a90046fffffffffffffffffffffffffffffffff166fffffffffffffffffffffffffffffffff166fffffffffffffffffffffffffffffffff1681526020016000820160109054906101000a90046fffffffffffffffffffffffffffffffff166fffffffffffffffffffffffffffffffff166fffffffffffffffffffffffffffffffff1681526020016001820160009054906101000a90046fffffffffffffffffffffffffffffffff166fffffffffffffffffffffffffffffffff166fffffffffffffffffffffffffffffffff1681526020016001820160109054906101000a900467ffffffffffffffff1667ffffffffffffffff1667ffffffffffffffff1681526020016002820160009054906101000a9004600f0b600f0b600f0b81526020016002820160109054906101000a9004600f0b600f0b600f0b81526020015050876122df63ffffffff16565b935083508484945094505050506109e6565050505b9091565b600760009054906101000a900467ffffffffffffffff1681565b600160009054906101000a900473ffffffffffffffffffffffffffffffffffffffff1673ffffffffffffffffffffffffffffffffffffffff163373ffffffffffffffffffffffffffffffffffffffff16141515610a615760006000fd5b600160159054906101000a900460ff16151515610a7e5760006000fd5b80600060006101000a81548173ffffffffffffffffffffffffffffffffffffffff021916908373ffffffffffffffffffffffffffffffffffffffff160217905550600060009054906101000a900473ffffffffffffffffffffffffffffffffffffffff1673ffffffffffffffffffffffffffffffffffffffff16639624e83e6040518163ffffffff1660e01b815260040160206040518083038186803b158015610b285760006000fd5b505afa158015610b3d573d600060003e3d6000fd5b505050506040513d601f19601f82011682018060405250810190610b619190613aa9565b600260006101000a81548173ffffffffffffffffffffffffffffffffffffffff021916908373ffffffffffffffffffffffffffffffffffffffff160217905550600060009054906101000a900473ffffffffffffffffffffffffffffffffffffffff1673ffffffffffffffffffffffffffffffffffffffff1663323741746040518163ffffffff1660e01b815260040160206040518083038186803b158015610c0a5760006000fd5b505afa158015610c1f573d600060003e3d6000fd5b505050506040513d601f19601f82011682018060405250810190610c439190613af7565b600360006101000a81548173ffffffffffffffffffffffffffffffffffffffff021916908373ffffffffffffffffffffffffffffffffffffffff160217905550600060009054906101000a900473ffffffffffffffffffffffffffffffffffffffff1673ffffffffffffffffffffffffffffffffffffffff1663d478b0876040518163ffffffff1660e01b815260040160206040518083038186803b158015610cec5760006000fd5b505afa158015610d01573d600060003e3d6000fd5b505050506040513d601f19601f82011682018060405250810190610d259190613b45565b600460006101000a81548173ffffffffffffffffffffffffffffffffffffffff021916908373ffffffffffffffffffffffffffffffffffffffff160217905550610d7361245763ffffffff16565b600160149054906101000a900460ff161515610db357600160006101000a81549073ffffffffffffffffffffffffffffffffffffffff0219169055610dcf565b6001600160156101000a81548160ff0219169083151502179055505b8073ffffffffffffffffffffffffffffffffffffffff167f908408e307fc569b417f6cbec5d5a06f44a0a505ac0479b47d421a4b2fd6a1e660405160405180910390a25b50565b600b6000508060000160005054908060010160009054906101000a900467ffffffffffffffff16908060010160089054906101000a90046fffffffffffffffffffffffffffffffff16905083565b600160149054906101000a900460ff168015610e8c5750600160159054906101000a900460ff165b8015610ee55750600160009054906101000a900473ffffffffffffffffffffffffffffffffffffffff1673ffffffffffffffffffffffffffffffffffffffff163373ffffffffffffffffffffffffffffffffffffffff16145b1515610ef15760006000fd5b600160006101000a81549073ffffffffffffffffffffffffffffffffffffffff0219169055600160156101000a81549060ff02191690556000828290509050600081111515610f405760006000fd5b6000600090505b81811015610f8e57610f808484838181101515610f6057fe5b9050602002016020810190610f759190613b6c565b612a6d63ffffffff16565b5b8080600101915050610f47565b508282600d6000509190610fa39291906138f3565b50505b5b5050565b610fb961203f63ffffffff16565b80600760006101000a81548167ffffffffffffffff021916908367ffffffffffffffff1602179055506000600760009054906101000a900467ffffffffffffffff1667ffffffffffffffff161115156110125760006000fd5b60405161101e90613cfe565b60405180910390207f6293347933ad2997134e224ac8cd2e39908a4a22aeed9af52127b4bbf76529788260405161105591906142f1565b60405180910390a25b5b50565b61107061203f63ffffffff16565b806fffffffffffffffffffffffffffffffff1660001080156110ab5750670de0b6b3a7640000816fffffffffffffffffffffffffffffffff16105b15156110b75760006000fd5b80600860005060000160106101000a8154816fffffffffffffffffffffffffffffffff02191690836fffffffffffffffffffffffffffffffff16021790555060405161110290613c9c565b60405180910390207ff92f7fc8addd796154d83393012a119e212b31cb3dc9776133129db4c5747fcc826040516111399190614245565b60405180910390a25b5b50565b60006000600b600050600001600050541215905061115f565b90565b61117061203f63ffffffff16565b670de0b6b3a7640000816fffffffffffffffffffffffffffffffff161015156111995760006000fd5b80600860005060010160006101000a8154816fffffffffffffffffffffffffffffffff02191690836fffffffffffffffffffffffffffffffff1602179055506040516111e490613d91565b60405180910390207ff92f7fc8addd796154d83393012a119e212b31cb3dc9776133129db4c5747fcc8260405161121b9190614245565b60405180910390a25b5b50565b600060149054906101000a900460ff1681565b60006112f5600b600050604051806060016040529081600082016000505481526020016001820160009054906101000a900467ffffffffffffffff1667ffffffffffffffff1667ffffffffffffffff1681526020016001820160089054906101000a90046fffffffffffffffffffffffffffffffff166fffffffffffffffffffffffffffffffff166fffffffffffffffffffffffffffffffff16815260200150506112ea612ba163ffffffff16565b612bbc63ffffffff16565b90506112fc565b90565b61130d61203f63ffffffff16565b670de0b6b3a7640000816fffffffffffffffffffffffffffffffff161015156113365760006000fd5b80600860005060000160006101000a8154816fffffffffffffffffffffffffffffffff02191690836fffffffffffffffffffffffffffffffff16021790555060405161138190613ccd565b60405180910390207ff92f7fc8addd796154d83393012a119e212b31cb3dc9776133129db4c5747fcc826040516113b89190614245565b60405180910390a25b5b50565b600d60005081815481106113d857600080fd5b906000526020600020900160005b9150909054906101000a900473ffffffffffffffffffffffffffffffffffffffff1681565b60086000508060000160009054906101000a90046fffffffffffffffffffffffffffffffff16908060000160109054906101000a90046fffffffffffffffffffffffffffffffff16908060010160009054906101000a90046fffffffffffffffffffffffffffffffff16908060010160109054906101000a900467ffffffffffffffff16908060020160009054906101000a9004600f0b908060020160109054906101000a9004600f0b905086565b60006000600b600050600001600050549050600081126114da57806114df565b806000035b9150506114e856505b90565b6114f9612c9b63ffffffff16565b611507612d7a63ffffffff16565b6000600b600050604051806060016040529081600082016000505481526020016001820160009054906101000a900467ffffffffffffffff1667ffffffffffffffff1667ffffffffffffffff1681526020016001820160089054906101000a90046fffffffffffffffffffffffffffffffff166fffffffffffffffffffffffffffffffff166fffffffffffffffffffffffffffffffff168152602001505090506115b5612ba163ffffffff16565b67ffffffffffffffff16816020015167ffffffffffffffff1611151515611611576040517f08c379a000000000000000000000000000000000000000000000000000000000815260040161160890614188565b60405180910390fd5b6000600060009054906101000a900473ffffffffffffffffffffffffffffffffffffffff1673ffffffffffffffffffffffffffffffffffffffff1663d3419bf36040518163ffffffff1660e01b815260040160206040518083038186803b15801561167c5760006000fd5b505afa158015611691573d600060003e3d6000fd5b505050506040513d601f19601f820116820180604052508101906116b59190613b1e565b90506000600d60005080549050905060008167ffffffffffffffff811180156116de5760006000fd5b5060405190808252806020026020018201604052801561170d5781602001602082028036833780820191505090505b5090506000600090505b82811015611817578373ffffffffffffffffffffffffffffffffffffffff1663ce403c13600d6000508381548110151561174d57fe5b906000526020600020900160005b9054906101000a900473ffffffffffffffffffffffffffffffffffffffff166040518263ffffffff1660e01b81526004016117969190613f2d565b602060405180830381600087803b1580156117b15760006000fd5b505af11580156117c6573d600060003e3d6000fd5b505050506040513d601f19601f820116820180604052508101906117ea9190613c1a565b82828151811015156117f857fe5b60200260200101909081815260200150505b8080600101915050611717565b506000611829826122a863ffffffff16565b9050600060405180606001604052806119a9886000015160086000506040518060c00160405290816000820160009054906101000a90046fffffffffffffffffffffffffffffffff166fffffffffffffffffffffffffffffffff166fffffffffffffffffffffffffffffffff1681526020016000820160109054906101000a90046fffffffffffffffffffffffffffffffff166fffffffffffffffffffffffffffffffff166fffffffffffffffffffffffffffffffff1681526020016001820160009054906101000a90046fffffffffffffffffffffffffffffffff166fffffffffffffffffffffffffffffffff166fffffffffffffffffffffffffffffffff1681526020016001820160109054906101000a900467ffffffffffffffff1667ffffffffffffffff1667ffffffffffffffff1681526020016002820160009054906101000a9004600f0b600f0b600f0b81526020016002820160109054906101000a9004600f0b600f0b600f0b81526020015050866122df63ffffffff16565b81526020016119d3600760009054906101000a900467ffffffffffffffff16612e6f63ffffffff16565b67ffffffffffffffff168152602001611a0f611a02896119f7612ba163ffffffff16565b612bbc63ffffffff16565b612ea5909063ffffffff16565b6fffffffffffffffffffffffffffffffff16815260200150905080600b60005060008201518160000160005090905560208201518160010160006101000a81548167ffffffffffffffff021916908367ffffffffffffffff16021790555060408201518160010160086101000a8154816fffffffffffffffffffffffffffffffff02191690836fffffffffffffffffffffffffffffffff160217905550905050600060009054906101000a900473ffffffffffffffffffffffffffffffffffffffff1673ffffffffffffffffffffffffffffffffffffffff1663ef7a7cfa3383604001516040518363ffffffff1660e01b8152600401611b10929190613e4c565b600060405180830381600087803b158015611b2b5760006000fd5b505af1158015611b40573d600060003e3d6000fd5b505050507f9f912bcb7b057a4f10fbbee5785670aecb2ab545144237646e17398d55de72dc81600001518383604001518460200151604051611b859493929190613fce565b60405180910390a15050505050505b5b611ba3612f3f63ffffffff16565b5b565b6060600d600050805480602002602001604051908101604052809291908181526020018280548015611c2d57602002820191906000526020600020905b8160009054906101000a900473ffffffffffffffffffffffffffffffffffffffff1673ffffffffffffffffffffffffffffffffffffffff1681526020019060010190808311611be3575b50505050509050611c39565b90565b611c4a61203f63ffffffff16565b611ce3600d600050805480602002602001604051908101604052809291908181526020018280548015611cd257602002820191906000526020600020905b8160009054906101000a900473ffffffffffffffffffffffffffffffffffffffff1673ffffffffffffffffffffffffffffffffffffffff1681526020019060010190808311611c88575b505050505082612fd363ffffffff16565b151515611d25576040517f08c379a0000000000000000000000000000000000000000000000000000000008152600401611d1c906141c7565b60405180910390fd5b611d3481612a6d63ffffffff16565b600d60005081908060018154018082558091505060019003906000526020600020900160005b9091909190916101000a81548173ffffffffffffffffffffffffffffffffffffffff021916908373ffffffffffffffffffffffffffffffffffffffff1602179055508073ffffffffffffffffffffffffffffffffffffffff16604051611dbf90613dc2565b60405180910390207f78caada2f560033c9479d8c5e33f045f2e611faebe6b6d8a73874c80ec2dd3a260405160405180910390a35b5b50565b611e0661203f63ffffffff16565b80600860005060010160106101000a81548167ffffffffffffffff021916908367ffffffffffffffff160217905550604051611e4190613c6b565b60405180910390207f6293347933ad2997134e224ac8cd2e39908a4a22aeed9af52127b4bbf765297882604051611e7891906142f1565b60405180910390a25b5b50565b600160009054906101000a900473ffffffffffffffffffffffffffffffffffffffff1681565b611eb961203f63ffffffff16565b600860005060020160109054906101000a9004600f0b600f0b81600f0b121515611ee35760006000fd5b80600860005060020160006101000a8154816fffffffffffffffffffffffffffffffff0219169083600f0b6fffffffffffffffffffffffffffffffff160217905550604051611f3190613df3565b60405180910390207f73372e841856ef3f75f5070dea5fbba697b24bf1b513158c125d0c7bbcc62fd282604051611f689190613fb9565b60405180910390a25b5b50565b611f8361203f63ffffffff16565b80600f0b600860005060020160009054906101000a9004600f0b600f0b121515611fad5760006000fd5b80600860005060020160106101000a8154816fffffffffffffffffffffffffffffffff0219169083600f0b6fffffffffffffffffffffffffffffffff160217905550604051611ffb90613d2f565b60405180910390207f73372e841856ef3f75f5070dea5fbba697b24bf1b513158c125d0c7bbcc62fd2826040516120329190613fb9565b60405180910390a25b5b50565b600060009054906101000a900473ffffffffffffffffffffffffffffffffffffffff1673ffffffffffffffffffffffffffffffffffffffff163373ffffffffffffffffffffffffffffffffffffffff161415156120d1576040517f08c379a00000000000000000000000000000000000000000000000000000000081526004016120c89061410a565b60405180910390fd5b5b565b6001600060146101000a81548160ff0219169083151502179055507f7acc84e34091ae817647a4c49116f5cc07f319078ba80f8f5fde37ea7e25cbd660405160405180910390a15b565b60606121308383612fd363ffffffff16565b1515612171576040517f08c379a00000000000000000000000000000000000000000000000000000000081526004016121689061408c565b60405180910390fd5b6000600184510367ffffffffffffffff8111801561218f5760006000fd5b506040519080825280602002602001820160405280156121be5781602001602082028036833780820191505090505b50905060006000600090505b8551811015612295578473ffffffffffffffffffffffffffffffffffffffff1686828151811015156121f857fe5b602002602001015173ffffffffffffffffffffffffffffffffffffffff1614151561228757858181518110151561222b57fe5b6020026020010151838381518110151561224157fe5b602002602001019073ffffffffffffffffffffffffffffffffffffffff16908173ffffffffffffffffffffffffffffffffffffffff168152602001505081806001019250505b5b80806001019150506121ca565b5081925050506122a25650505b92915050565b60006122d36122bc8361305663ffffffff16565b670de0b6b3a76400006132d990919063ffffffff16565b90506122da565b919050565b60006000670de0b6b3a76400008310905060008161230757670de0b6b3a76400008403612313565b83670de0b6b3a7640000035b905084600001516fffffffffffffffffffffffffffffffff168110151561240c57600061238b61237e600188602001516fffffffffffffffffffffffffffffffff168581151561235f57fe5b0401886060015167ffffffffffffffff166132ff90919063ffffffff16565b61331d909063ffffffff16565b67ffffffffffffffff16905060006123d26123c58389604001516fffffffffffffffffffffffffffffffff166133af90919063ffffffff16565b61344d909063ffffffff16565b9050836123f1576123ec81896134f690919063ffffffff16565b612405565b612404818961358d90919063ffffffff16565b5b9750875050505b8460800151600f0b861215612428578460800151600f0b955085505b8460a00151600f0b861315612444578460a00151600f0b955085505b85925050506124505650505b9392505050565b6040518060c0016040528066038d7ea4c680006fffffffffffffffffffffffffffffffff1681526020016611c37937e080006fffffffffffffffffffffffffffffffff1681526020016611c37937e080006fffffffffffffffffffffffffffffffff168152602001600567ffffffffffffffff1681526020017ffffffffffffffffffffffffffffffffffffffffffffffffffdeb17cb73b10000600f0b81526020016706f05b59d3b20000600f0b815260200150600860005060008201518160000160006101000a8154816fffffffffffffffffffffffffffffffff02191690836fffffffffffffffffffffffffffffffff16021790555060208201518160000160106101000a8154816fffffffffffffffffffffffffffffffff02191690836fffffffffffffffffffffffffffffffff16021790555060408201518160010160006101000a8154816fffffffffffffffffffffffffffffffff02191690836fffffffffffffffffffffffffffffffff16021790555060608201518160010160106101000a81548167ffffffffffffffff021916908367ffffffffffffffff16021790555060808201518160020160006101000a8154816fffffffffffffffffffffffffffffffff0219169083600f0b6fffffffffffffffffffffffffffffffff16021790555060a08201518160020160106101000a8154816fffffffffffffffffffffffffffffffff0219169083600f0b6fffffffffffffffffffffffffffffffff160217905550905050604051806060016040528066b1a2bc2ec5000081526020016126db600760009054906101000a900467ffffffffffffffff166126c3612ba163ffffffff16565b67ffffffffffffffff1661362490919063ffffffff16565b67ffffffffffffffff16815260200168056bc75e2d631000006fffffffffffffffffffffffffffffffff16815260200150600b60005060008201518160000160005090905560208201518160010160006101000a81548167ffffffffffffffff021916908367ffffffffffffffff16021790555060408201518160010160086101000a8154816fffffffffffffffffffffffffffffffff02191690836fffffffffffffffffffffffffffffffff16021790555090505060006040518060e001604052806380ddbdb460e01b7bffffffffffffffffffffffffffffffffffffffffffffffffffffffff19167bffffffffffffffffffffffffffffffffffffffffffffffffffffffff19168152602001635fd019ad60e01b7bffffffffffffffffffffffffffffffffffffffffffffffffffffffff19167bffffffffffffffffffffffffffffffffffffffffffffffffffffffff19168152602001636e16ead260e01b7bffffffffffffffffffffffffffffffffffffffffffffffffffffffff19167bffffffffffffffffffffffffffffffffffffffffffffffffffffffff19168152602001635d8350b460e01b7bffffffffffffffffffffffffffffffffffffffffffffffffffffffff19167bffffffffffffffffffffffffffffffffffffffffffffffffffffffff1916815260200163d3ab388860e01b7bffffffffffffffffffffffffffffffffffffffffffffffffffffffff19167bffffffffffffffffffffffffffffffffffffffffffffffffffffffff1916815260200163ee47304d60e01b7bffffffffffffffffffffffffffffffffffffffffffffffffffffffff19167bffffffffffffffffffffffffffffffffffffffffffffffffffffffff1916815260200163eec3f6f160e01b7bffffffffffffffffffffffffffffffffffffffffffffffffffffffff19167bffffffffffffffffffffffffffffffffffffffffffffffffffffffff191681526020015090506000600090505b81506007811015612a4d5760016005600050600084846007811015156129d757fe5b60200201517bffffffffffffffffffffffffffffffffffffffffffffffffffffffff19167bffffffffffffffffffffffffffffffffffffffffffffffffffffffff1916815260200190815260200160002060006101000a81548160ff0219169083151502179055505b80806001019150506129b5565b506001600160146101000a81548160ff021916908315150217905550505b565b600060009054906101000a900473ffffffffffffffffffffffffffffffffffffffff1673ffffffffffffffffffffffffffffffffffffffff1663d3419bf36040518163ffffffff1660e01b815260040160206040518083038186803b158015612ad65760006000fd5b505afa158015612aeb573d600060003e3d6000fd5b505050506040513d601f19601f82011682018060405250810190612b0f9190613b1e565b73ffffffffffffffffffffffffffffffffffffffff1663a6c26a0c827f00000000000000000000000000000000000000000000000000000000000000006040518363ffffffff1660e01b8152600401612b69929190613f55565b600060405180830381600087803b158015612b845760006000fd5b505af1158015612b99573d600060003e3d6000fd5b505050505b50565b6000612bb44261331d909063ffffffff16565b905080505b90565b6000826020015167ffffffffffffffff168267ffffffffffffffff16111515612be85760009050612c95565b6000600284604001516fffffffffffffffffffffffffffffffff16811515612c0c57fe5b046fffffffffffffffffffffffffffffffff1690506000612c4a8560200151850367ffffffffffffffff16610708846136c19092919063ffffffff16565b82019050612c8a612c7b600587604001516fffffffffffffffffffffffffffffffff166133af90919063ffffffff16565b826132ff90919063ffffffff16565b92505050612c955650505b92915050565b600460009054906101000a900473ffffffffffffffffffffffffffffffffffffffff1673ffffffffffffffffffffffffffffffffffffffff1663e97dcb626040518163ffffffff1660e01b8152600401600060405180830381600087803b158015612d065760006000fd5b505af1158015612d1b573d600060003e3d6000fd5b50505050600260066000505414151515612d6a576040517f08c379a0000000000000000000000000000000000000000000000000000000008152600401612d6190614149565b60405180910390fd5b600260066000508190909055505b565b612d886137c263ffffffff16565b600060009054906101000a900473ffffffffffffffffffffffffffffffffffffffff1673ffffffffffffffffffffffffffffffffffffffff1663bf86d6906040518163ffffffff1660e01b815260040160206040518083038186803b158015612df15760006000fd5b505afa158015612e06573d600060003e3d6000fd5b505050506040513d601f19601f82011682018060405250810190612e2a9190613a2f565b151515612e6c576040517f08c379a0000000000000000000000000000000000000000000000000000000008152600401612e639061404d565b60405180910390fd5b5b565b6000612e9b82612e83612ba163ffffffff16565b67ffffffffffffffff1661362490919063ffffffff16565b905080505b919050565b600070010000000000000000000000000000000082101515612f32576040517f08c379a00000000000000000000000000000000000000000000000000000000081526004018080602001828103825260128152602001807f6d6f7265207468616e203132382062697473000000000000000000000000000081526020015060200191505060405180910390fd5b819050612f3a565b919050565b60016006600050819090905550600460009054906101000a900473ffffffffffffffffffffffffffffffffffffffff1673ffffffffffffffffffffffffffffffffffffffff1663e9fad8ee6040518163ffffffff1660e01b8152600401600060405180830381600087803b158015612fb75760006000fd5b505af1158015612fcc573d600060003e3d6000fd5b505050505b565b60006000600090505b8351811015613046578273ffffffffffffffffffffffffffffffffffffffff16848281518110151561300a57fe5b602002602001015173ffffffffffffffffffffffffffffffffffffffff161415613038576001915050613050565b5b8080600101915050612fdc565b5060009050613050565b92915050565b60006000825190506000811115156130a3576040517f08c379a000000000000000000000000000000000000000000000000000000000815260040161309a906140cb565b60405180910390fd5b6000600060005b6002841115613256578560008151811015156130c257fe5b6020026020010151915081508560008151811015156130dd57fe5b6020026020010151905080506000600190505b8481101561313c57868181518110151561310657fe5b602002602001015193508350828410156131205783925082505b8184111561312e5783915081505b5b80806001019150506130f0565b508082141561315157819450505050506132d4565b60006002850367ffffffffffffffff8111801561316e5760006000fd5b5060405190808252806020026020018201604052801561319d5781602001602082028036833780820191505090505b5090506000600060006000600090505b8881101561323f578a818151811015156131c357fe5b60200260200101519750875086881480156131dc575081155b156131ec57600191508150613231565b85881480156131f9575082155b1561320957600192508250613230565b87858580600101965081518110151561321e57fe5b60200260200101909081815260200150505b5b5b80806001019150506131ad565b5060028803975087508399508950505050506130aa565b60018414156132855785600081518110151561326e57fe5b60200260200101519450505050506132d4566132cf565b6132c486600181518110151561329757fe5b60200260200101518760008151811015156132ae57fe5b602002602001015161381790919063ffffffff16565b9450505050506132d4565b505050505b919050565b60006132f483670de0b6b3a7640000846136c163ffffffff16565b905080505b92915050565b600081831061330e5781613310565b825b9050613317565b92915050565b600068010000000000000000821015156133a2576040517f08c379a00000000000000000000000000000000000000000000000000000000081526004018080602001828103825260118152602001807f6d6f7265207468616e203634206269747300000000000000000000000000000081526020015060200191505060405180910390fd5b8190506133aa565b919050565b600060008214806133cf575082828385029250828115156133cc57fe5b04145b1515613446576040517f08c379a000000000000000000000000000000000000000000000000000000000815260040180806020018281038252600c8152602001807f6d756c2d6f766572666c6f77000000000000000000000000000000000000000081526020015060200191505060405180910390fd5b5b92915050565b60007f8000000000000000000000000000000000000000000000000000000000000000821015156134e9576040517f08c379a00000000000000000000000000000000000000000000000000000000081526004018080602001828103825260128152602001807f746f6f2062696720666f7220696e74323536000000000000000000000000000081526020015060200191505060405180910390fd5b8190506134f1565b919050565b600060008284039050600083121580156135105750838113155b80613526575060008312801561352557508381135b5b151561357d576040517f08c379a00000000000000000000000000000000000000000000000000000000081526004018080602001828103825260248152602001806143596024913960400191505060405180910390fd5b8091505061358756505b92915050565b600060008284019050600083121580156135a75750838112155b806135bd57506000831280156135bc57508381125b5b1515613614576040517f08c379a00000000000000000000000000000000000000000000000000000000081526004018080602001828103825260218152602001806143386021913960400191505060405180910390fd5b8091505061361e56505b92915050565b60008267ffffffffffffffff1682840191508167ffffffffffffffff16101515156136ba576040517f08c379a000000000000000000000000000000000000000000000000000000000815260040180806020018281038252600c8152602001807f6164642d6f766572666c6f77000000000000000000000000000000000000000081526020015060200191505060405180910390fd5b5b92915050565b6000600060006000198587098587029250828110838203039150506000811415613704576000841115156136f55760006000fd5b838204925082925050506137bb565b80841115156137135760006000fd5b60008486880990508281118203915080830392506000858660000316905080860495508084049350600181826000030401905080830284179350835060006002876003021890508087026002038102905080508087026002038102905080508087026002038102905080508087026002038102905080508087026002038102905080508087026002038102905080508085029550855085955050505050506137bb5650505050505b9392505050565b600060149054906101000a900460ff16151515613814576040517f08c379a000000000000000000000000000000000000000000000000000000000815260040161380b90614206565b60405180910390fd5b5b565b6000600260028381151561382757fe5b0660028581151561383457fe5b060181151561383f57fe5b0460028381151561384c57fe5b0460028581151561385957fe5b0401019050613863565b92915050565b8280548282559060005260206000209081019282156138e2579160200282015b828111156138e15782518260006101000a81548173ffffffffffffffffffffffffffffffffffffffff021916908373ffffffffffffffffffffffffffffffffffffffff16021790555091602001919060010190613889565b5b5090506138ef9190613993565b5090565b828054828255906000526020600020908101928215613982579160200282015b8281111561398157823573ffffffffffffffffffffffffffffffffffffffff168260006101000a81548173ffffffffffffffffffffffffffffffffffffffff021916908373ffffffffffffffffffffffffffffffffffffffff16021790555091602001919060010190613913565b5b50905061398f9190613993565b5090565b613998565b808211156139b25760008181506000905550600101613998565b509056614336565b60006000602083850312156139cd578182fd5b823567ffffffffffffffff808211156139e4578384fd5b818501915085601f83011215156139f9578384fd5b813581811115613a07578485fd5b866020602083028501011115613a1b578485fd5b6020830194508093505050505b9250929050565b600060208284031215613a40578081fd5b815180151581141515613a51578182fd5b809150505b92915050565b600060208284031215613a6d578081fd5b81357fffffffff00000000000000000000000000000000000000000000000000000000811681141515613a9e578182fd5b809150505b92915050565b600060208284031215613aba578081fd5b8151613ac58161430d565b809150505b92915050565b600060208284031215613ae1578081fd5b8135613aec8161430d565b809150505b92915050565b600060208284031215613b08578081fd5b8151613b138161430d565b809150505b92915050565b600060208284031215613b2f578081fd5b8151613b3a8161430d565b809150505b92915050565b600060208284031215613b56578081fd5b8151613b618161430d565b809150505b92915050565b600060208284031215613b7d578081fd5b8135613b888161430d565b809150505b92915050565b600060208284031215613ba4578081fd5b813580600f0b81141515613bb6578182fd5b809150505b92915050565b600060208284031215613bd2578081fd5b81356fffffffffffffffffffffffffffffffff811681141515613bf3578182fd5b809150505b92915050565b600060208284031215613c0f578081fd5b813590505b92915050565b600060208284031215613c2b578081fd5b815190505b92915050565b600060208284031215613c47578081fd5b813567ffffffffffffffff811681141515613c60578182fd5b809150505b92915050565b60007f6d6178537465707300000000000000000000000000000000000000000000000082526008820190505b919050565b60007f6572726f72496e74657276616c000000000000000000000000000000000000008252600d820190505b919050565b60007f61636365707461626c654572726f7200000000000000000000000000000000008252600f820190505b919050565b60007f6d696e54696d654265747765656e55706461746573000000000000000000000082526015820190505b919050565b60007f6d6178526174650000000000000000000000000000000000000000000000000082526007820190505b919050565b60007f72656d6f76655265666572656e6365506f6f6c0000000000000000000000000082526013820190505b919050565b60007f696e74657265737452617465537465700000000000000000000000000000000082526010820190505b919050565b60007f6164645265666572656e6365506f6f6c0000000000000000000000000000000082526010820190505b919050565b60007f6d696e526174650000000000000000000000000000000000000000000000000082526007820190505b919050565b600060208201905073ffffffffffffffffffffffffffffffffffffffff831682525b92915050565b600060408201905073ffffffffffffffffffffffffffffffffffffffff841682526fffffffffffffffffffffffffffffffff831660208301525b9392505050565b600060208083018184528085518083526040860191508387019250845b81811015613ee25773ffffffffffffffffffffffffffffffffffffffff8451168352848301925084840193505b600181019050613eaa565b50508093505050505b92915050565b600060208201905082151582525b92915050565b600060208201905073ffffffffffffffffffffffffffffffffffffffff831682525b92915050565b600060208201905073ffffffffffffffffffffffffffffffffffffffff831682525b92915050565b600060408201905073ffffffffffffffffffffffffffffffffffffffff80851683528084166020840152505b9392505050565b600060408201905073ffffffffffffffffffffffffffffffffffffffff8416825282151560208301525b9392505050565b600060208201905082600f0b82525b92915050565b60006080820190508582528460208301526fffffffffffffffffffffffffffffffff8416604083015267ffffffffffffffff831660608301525b95945050505050565b600060608201905084825267ffffffffffffffff841660208301526fffffffffffffffffffffffffffffffff831660408301525b949350505050565b600060208252601160208301527f50726f746f636f6c2073687574646f776e00000000000000000000000000000060408301526060820190505b919050565b600060208252600960208301527f4e6f7420666f756e64000000000000000000000000000000000000000000000060408301526060820190505b919050565b600060208252600960208301527f4e6f20707269636573000000000000000000000000000000000000000000000060408301526060820190505b919050565b600060208252600e60208301527f4e6f7420417574686f72697a656400000000000000000000000000000000000060408301526060820190505b919050565b600060208252600d60208301527f4c50205265656e7472616e63790000000000000000000000000000000000000060408301526060820190505b919050565b600060208252601060208301527f557064617465206e6f742072656164790000000000000000000000000000000060408301526060820190505b919050565b600060208252600d60208301527f416c72656164792061646465640000000000000000000000000000000000000060408301526060820190505b919050565b600060208252601360208301527f436f6e74726163742069732073746f707065640000000000000000000000000060408301526060820190505b919050565b60006020820190506fffffffffffffffffffffffffffffffff831682525b92915050565b600060c0820190506fffffffffffffffffffffffffffffffff8089168352808816602084015280871660408401525067ffffffffffffffff8516606083015283600f0b608083015282600f0b60a08301525b979650505050505050565b60006020820190508282525b92915050565b60006040820190508382528260208301525b9392505050565b600060208201905067ffffffffffffffff831682525b92915050565b73ffffffffffffffffffffffffffffffffffffffff8116811415156143325760006000fd5b5b50565bfe5369676e6564536166654d6174683a206164646974696f6e206f766572666c6f775369676e6564536166654d6174683a207375627472616374696f6e206f766572666c6f77a264697066735822122058fa45409740e5c4b42c2a6221d30a8f963c22af4e8c2ca3ea8688c9eff876b564736f6c63430007060033",
  "linkReferences": {},
  "deployedLinkReferences": {}
}