{
  "_format": "hh-sol-artifact-1",
  "contractName": "MockTimeUniswapV3Pool",
  "sourceName": "contracts/uniswap/uniswap-v3-core/contracts/test/MockTimeUniswapV3Pool.sol",
  "abi": [
    {
      "anonymous": false,
      "inputs": [
        {
          "indexed": true,
          "internalType": "address",
          "name": "owner",
          "type": "address"
        },
        {
          "indexed": true,
          "internalType": "int24",
          "name": "tickLower",
          "type": "int24"
        },
        {
          "indexed": true,
          "internalType": "int24",
          "name": "tickUpper",
          "type": "int24"
        },
        {
          "indexed": false,
          "internalType": "uint128",
          "name": "amount",
          "type": "uint128"
        },
        {
          "indexed": false,
          "internalType": "uint256",
          "name": "amount0",
          "type": "uint256"
        },
        {
          "indexed": false,
          "internalType": "uint256",
          "name": "amount1",
          "type": "uint256"
        }
      ],
      "name": "Burn",
      "type": "event"
    },
    {
      "anonymous": false,
      "inputs": [
        {
          "indexed": true,
          "internalType": "address",
          "name": "owner",
          "type": "address"
        },
        {
          "indexed": false,
          "internalType": "address",
          "name": "recipient",
          "type": "address"
        },
        {
          "indexed": true,
          "internalType": "int24",
          "name": "tickLower",
          "type": "int24"
        },
        {
          "indexed": true,
          "internalType": "int24",
          "name": "tickUpper",
          "type": "int24"
        },
        {
          "indexed": false,
          "internalType": "uint128",
          "name": "amount0",
          "type": "uint128"
        },
        {
          "indexed": false,
          "internalType": "uint128",
          "name": "amount1",
          "type": "uint128"
        }
      ],
      "name": "Collect",
      "type": "event"
    },
    {
      "anonymous": false,
      "inputs": [
        {
          "indexed": true,
          "internalType": "address",
          "name": "sender",
          "type": "address"
        },
        {
          "indexed": true,
          "internalType": "address",
          "name": "recipient",
          "type": "address"
        },
        {
          "indexed": false,
          "internalType": "uint128",
          "name": "amount0",
          "type": "uint128"
        },
        {
          "indexed": false,
          "internalType": "uint128",
          "name": "amount1",
          "type": "uint128"
        }
      ],
      "name": "CollectProtocol",
      "type": "event"
    },
    {
      "anonymous": false,
      "inputs": [
        {
          "indexed": true,
          "internalType": "address",
          "name": "sender",
          "type": "address"
        },
        {
          "indexed": true,
          "internalType": "address",
          "name": "recipient",
          "type": "address"
        },
        {
          "indexed": false,
          "internalType": "uint256",
          "name": "amount0",
          "type": "uint256"
        },
        {
          "indexed": false,
          "internalType": "uint256",
          "name": "amount1",
          "type": "uint256"
        },
        {
          "indexed": false,
          "internalType": "uint256",
          "name": "paid0",
          "type": "uint256"
        },
        {
          "indexed": false,
          "internalType": "uint256",
          "name": "paid1",
          "type": "uint256"
        }
      ],
      "name": "Flash",
      "type": "event"
    },
    {
      "anonymous": false,
      "inputs": [
        {
          "indexed": false,
          "internalType": "uint16",
          "name": "observationCardinalityNextOld",
          "type": "uint16"
        },
        {
          "indexed": false,
          "internalType": "uint16",
          "name": "observationCardinalityNextNew",
          "type": "uint16"
        }
      ],
      "name": "IncreaseObservationCardinalityNext",
      "type": "event"
    },
    {
      "anonymous": false,
      "inputs": [
        {
          "indexed": false,
          "internalType": "uint160",
          "name": "sqrtPriceX96",
          "type": "uint160"
        },
        {
          "indexed": false,
          "internalType": "int24",
          "name": "tick",
          "type": "int24"
        }
      ],
      "name": "Initialize",
      "type": "event"
    },
    {
      "anonymous": false,
      "inputs": [
        {
          "indexed": false,
          "internalType": "address",
          "name": "sender",
          "type": "address"
        },
        {
          "indexed": true,
          "internalType": "address",
          "name": "owner",
          "type": "address"
        },
        {
          "indexed": true,
          "internalType": "int24",
          "name": "tickLower",
          "type": "int24"
        },
        {
          "indexed": true,
          "internalType": "int24",
          "name": "tickUpper",
          "type": "int24"
        },
        {
          "indexed": false,
          "internalType": "uint128",
          "name": "amount",
          "type": "uint128"
        },
        {
          "indexed": false,
          "internalType": "uint256",
          "name": "amount0",
          "type": "uint256"
        },
        {
          "indexed": false,
          "internalType": "uint256",
          "name": "amount1",
          "type": "uint256"
        }
      ],
      "name": "Mint",
      "type": "event"
    },
    {
      "anonymous": false,
      "inputs": [
        {
          "indexed": false,
          "internalType": "uint8",
          "name": "feeProtocol0Old",
          "type": "uint8"
        },
        {
          "indexed": false,
          "internalType": "uint8",
          "name": "feeProtocol1Old",
          "type": "uint8"
        },
        {
          "indexed": false,
          "internalType": "uint8",
          "name": "feeProtocol0New",
          "type": "uint8"
        },
        {
          "indexed": false,
          "internalType": "uint8",
          "name": "feeProtocol1New",
          "type": "uint8"
        }
      ],
      "name": "SetFeeProtocol",
      "type": "event"
    },
    {
      "anonymous": false,
      "inputs": [
        {
          "indexed": true,
          "internalType": "address",
          "name": "sender",
          "type": "address"
        },
        {
          "indexed": true,
          "internalType": "address",
          "name": "recipient",
          "type": "address"
        },
        {
          "indexed": false,
          "internalType": "int256",
          "name": "amount0",
          "type": "int256"
        },
        {
          "indexed": false,
          "internalType": "int256",
          "name": "amount1",
          "type": "int256"
        },
        {
          "indexed": false,
          "internalType": "uint160",
          "name": "sqrtPriceX96",
          "type": "uint160"
        },
        {
          "indexed": false,
          "internalType": "int24",
          "name": "tick",
          "type": "int24"
        }
      ],
      "name": "Swap",
      "type": "event"
    },
    {
      "inputs": [
        {
          "internalType": "uint256",
          "name": "by",
          "type": "uint256"
        }
      ],
      "name": "advanceTime",
      "outputs": [],
      "stateMutability": "nonpayable",
      "type": "function"
    },
    {
      "inputs": [
        {
          "internalType": "int24",
          "name": "tickLower",
          "type": "int24"
        },
        {
          "internalType": "int24",
          "name": "tickUpper",
          "type": "int24"
        },
        {
          "internalType": "uint128",
          "name": "amount",
          "type": "uint128"
        }
      ],
      "name": "burn",
      "outputs": [
        {
          "internalType": "uint256",
          "name": "amount0",
          "type": "uint256"
        },
        {
          "internalType": "uint256",
          "name": "amount1",
          "type": "uint256"
        }
      ],
      "stateMutability": "nonpayable",
      "type": "function"
    },
    {
      "inputs": [
        {
          "internalType": "address",
          "name": "recipient",
          "type": "address"
        },
        {
          "internalType": "int24",
          "name": "tickLower",
          "type": "int24"
        },
        {
          "internalType": "int24",
          "name": "tickUpper",
          "type": "int24"
        },
        {
          "internalType": "uint128",
          "name": "amount0Requested",
          "type": "uint128"
        },
        {
          "internalType": "uint128",
          "name": "amount1Requested",
          "type": "uint128"
        }
      ],
      "name": "collect",
      "outputs": [
        {
          "internalType": "uint128",
          "name": "amount0",
          "type": "uint128"
        },
        {
          "internalType": "uint128",
          "name": "amount1",
          "type": "uint128"
        }
      ],
      "stateMutability": "nonpayable",
      "type": "function"
    },
    {
      "inputs": [
        {
          "internalType": "address",
          "name": "recipient",
          "type": "address"
        },
        {
          "internalType": "uint128",
          "name": "amount0Requested",
          "type": "uint128"
        },
        {
          "internalType": "uint128",
          "name": "amount1Requested",
          "type": "uint128"
        }
      ],
      "name": "collectProtocol",
      "outputs": [
        {
          "internalType": "uint128",
          "name": "amount0",
          "type": "uint128"
        },
        {
          "internalType": "uint128",
          "name": "amount1",
          "type": "uint128"
        }
      ],
      "stateMutability": "nonpayable",
      "type": "function"
    },
    {
      "inputs": [],
      "name": "factory",
      "outputs": [
        {
          "internalType": "address",
          "name": "",
          "type": "address"
        }
      ],
      "stateMutability": "view",
      "type": "function"
    },
    {
      "inputs": [],
      "name": "fee",
      "outputs": [
        {
          "internalType": "uint24",
          "name": "",
          "type": "uint24"
        }
      ],
      "stateMutability": "view",
      "type": "function"
    },
    {
      "inputs": [],
      "name": "feeGrowthGlobal0X128",
      "outputs": [
        {
          "internalType": "uint256",
          "name": "",
          "type": "uint256"
        }
      ],
      "stateMutability": "view",
      "type": "function"
    },
    {
      "inputs": [],
      "name": "feeGrowthGlobal1X128",
      "outputs": [
        {
          "internalType": "uint256",
          "name": "",
          "type": "uint256"
        }
      ],
      "stateMutability": "view",
      "type": "function"
    },
    {
      "inputs": [
        {
          "internalType": "address",
          "name": "recipient",
          "type": "address"
        },
        {
          "internalType": "uint256",
          "name": "amount0",
          "type": "uint256"
        },
        {
          "internalType": "uint256",
          "name": "amount1",
          "type": "uint256"
        },
        {
          "internalType": "bytes",
          "name": "data",
          "type": "bytes"
        }
      ],
      "name": "flash",
      "outputs": [],
      "stateMutability": "nonpayable",
      "type": "function"
    },
    {
      "inputs": [
        {
          "internalType": "uint16",
          "name": "observationCardinalityNext",
          "type": "uint16"
        }
      ],
      "name": "increaseObservationCardinalityNext",
      "outputs": [],
      "stateMutability": "nonpayable",
      "type": "function"
    },
    {
      "inputs": [
        {
          "internalType": "uint160",
          "name": "sqrtPriceX96",
          "type": "uint160"
        }
      ],
      "name": "initialize",
      "outputs": [],
      "stateMutability": "nonpayable",
      "type": "function"
    },
    {
      "inputs": [],
      "name": "liquidity",
      "outputs": [
        {
          "internalType": "uint128",
          "name": "",
          "type": "uint128"
        }
      ],
      "stateMutability": "view",
      "type": "function"
    },
    {
      "inputs": [],
      "name": "maxLiquidityPerTick",
      "outputs": [
        {
          "internalType": "uint128",
          "name": "",
          "type": "uint128"
        }
      ],
      "stateMutability": "view",
      "type": "function"
    },
    {
      "inputs": [
        {
          "internalType": "address",
          "name": "recipient",
          "type": "address"
        },
        {
          "internalType": "int24",
          "name": "tickLower",
          "type": "int24"
        },
        {
          "internalType": "int24",
          "name": "tickUpper",
          "type": "int24"
        },
        {
          "internalType": "uint128",
          "name": "amount",
          "type": "uint128"
        },
        {
          "internalType": "bytes",
          "name": "data",
          "type": "bytes"
        }
      ],
      "name": "mint",
      "outputs": [
        {
          "internalType": "uint256",
          "name": "amount0",
          "type": "uint256"
        },
        {
          "internalType": "uint256",
          "name": "amount1",
          "type": "uint256"
        }
      ],
      "stateMutability": "nonpayable",
      "type": "function"
    },
    {
      "inputs": [
        {
          "internalType": "uint256",
          "name": "",
          "type": "uint256"
        }
      ],
      "name": "observations",
      "outputs": [
        {
          "internalType": "uint32",
          "name": "blockTimestamp",
          "type": "uint32"
        },
        {
          "internalType": "int56",
          "name": "tickCumulative",
          "type": "int56"
        },
        {
          "internalType": "uint160",
          "name": "liquidityCumulative",
          "type": "uint160"
        },
        {
          "internalType": "bool",
          "name": "initialized",
          "type": "bool"
        }
      ],
      "stateMutability": "view",
      "type": "function"
    },
    {
      "inputs": [
        {
          "internalType": "uint32[]",
          "name": "secondsAgos",
          "type": "uint32[]"
        }
      ],
      "name": "observe",
      "outputs": [
        {
          "internalType": "int56[]",
          "name": "tickCumulatives",
          "type": "int56[]"
        },
        {
          "internalType": "uint160[]",
          "name": "liquidityCumulatives",
          "type": "uint160[]"
        }
      ],
      "stateMutability": "view",
      "type": "function"
    },
    {
      "inputs": [
        {
          "internalType": "bytes32",
          "name": "",
          "type": "bytes32"
        }
      ],
      "name": "positions",
      "outputs": [
        {
          "internalType": "uint128",
          "name": "liquidity",
          "type": "uint128"
        },
        {
          "internalType": "uint256",
          "name": "feeGrowthInside0LastX128",
          "type": "uint256"
        },
        {
          "internalType": "uint256",
          "name": "feeGrowthInside1LastX128",
          "type": "uint256"
        },
        {
          "internalType": "uint128",
          "name": "tokensOwed0",
          "type": "uint128"
        },
        {
          "internalType": "uint128",
          "name": "tokensOwed1",
          "type": "uint128"
        }
      ],
      "stateMutability": "view",
      "type": "function"
    },
    {
      "inputs": [],
      "name": "protocolFees",
      "outputs": [
        {
          "internalType": "uint128",
          "name": "token0",
          "type": "uint128"
        },
        {
          "internalType": "uint128",
          "name": "token1",
          "type": "uint128"
        }
      ],
      "stateMutability": "view",
      "type": "function"
    },
    {
      "inputs": [
        {
          "internalType": "int24",
          "name": "tickLower",
          "type": "int24"
        },
        {
          "internalType": "int24",
          "name": "tickUpper",
          "type": "int24"
        }
      ],
      "name": "secondsInside",
      "outputs": [
        {
          "internalType": "uint32",
          "name": "",
          "type": "uint32"
        }
      ],
      "stateMutability": "view",
      "type": "function"
    },
    {
      "inputs": [
        {
          "internalType": "int24",
          "name": "",
          "type": "int24"
        }
      ],
      "name": "secondsOutside",
      "outputs": [
        {
          "internalType": "uint256",
          "name": "",
          "type": "uint256"
        }
      ],
      "stateMutability": "view",
      "type": "function"
    },
    {
      "inputs": [
        {
          "internalType": "uint256",
          "name": "_feeGrowthGlobal0X128",
          "type": "uint256"
        }
      ],
      "name": "setFeeGrowthGlobal0X128",
      "outputs": [],
      "stateMutability": "nonpayable",
      "type": "function"
    },
    {
      "inputs": [
        {
          "internalType": "uint256",
          "name": "_feeGrowthGlobal1X128",
          "type": "uint256"
        }
      ],
      "name": "setFeeGrowthGlobal1X128",
      "outputs": [],
      "stateMutability": "nonpayable",
      "type": "function"
    },
    {
      "inputs": [
        {
          "internalType": "uint8",
          "name": "feeProtocol0",
          "type": "uint8"
        },
        {
          "internalType": "uint8",
          "name": "feeProtocol1",
          "type": "uint8"
        }
      ],
      "name": "setFeeProtocol",
      "outputs": [],
      "stateMutability": "nonpayable",
      "type": "function"
    },
    {
      "inputs": [],
      "name": "slot0",
      "outputs": [
        {
          "internalType": "uint160",
          "name": "sqrtPriceX96",
          "type": "uint160"
        },
        {
          "internalType": "int24",
          "name": "tick",
          "type": "int24"
        },
        {
          "internalType": "uint16",
          "name": "observationIndex",
          "type": "uint16"
        },
        {
          "internalType": "uint16",
          "name": "observationCardinality",
          "type": "uint16"
        },
        {
          "internalType": "uint16",
          "name": "observationCardinalityNext",
          "type": "uint16"
        },
        {
          "internalType": "uint8",
          "name": "feeProtocol",
          "type": "uint8"
        },
        {
          "internalType": "bool",
          "name": "unlocked",
          "type": "bool"
        }
      ],
      "stateMutability": "view",
      "type": "function"
    },
    {
      "inputs": [
        {
          "internalType": "address",
          "name": "recipient",
          "type": "address"
        },
        {
          "internalType": "bool",
          "name": "zeroForOne",
          "type": "bool"
        },
        {
          "internalType": "int256",
          "name": "amountSpecified",
          "type": "int256"
        },
        {
          "internalType": "uint160",
          "name": "sqrtPriceLimitX96",
          "type": "uint160"
        },
        {
          "internalType": "bytes",
          "name": "data",
          "type": "bytes"
        }
      ],
      "name": "swap",
      "outputs": [
        {
          "internalType": "int256",
          "name": "amount0",
          "type": "int256"
        },
        {
          "internalType": "int256",
          "name": "amount1",
          "type": "int256"
        }
      ],
      "stateMutability": "nonpayable",
      "type": "function"
    },
    {
      "inputs": [
        {
          "internalType": "int16",
          "name": "",
          "type": "int16"
        }
      ],
      "name": "tickBitmap",
      "outputs": [
        {
          "internalType": "uint256",
          "name": "",
          "type": "uint256"
        }
      ],
      "stateMutability": "view",
      "type": "function"
    },
    {
      "inputs": [],
      "name": "tickSpacing",
      "outputs": [
        {
          "internalType": "int24",
          "name": "",
          "type": "int24"
        }
      ],
      "stateMutability": "view",
      "type": "function"
    },
    {
      "inputs": [
        {
          "internalType": "int24",
          "name": "",
          "type": "int24"
        }
      ],
      "name": "ticks",
      "outputs": [
        {
          "internalType": "uint128",
          "name": "liquidityGross",
          "type": "uint128"
        },
        {
          "internalType": "int128",
          "name": "liquidityNet",
          "type": "int128"
        },
        {
          "internalType": "uint256",
          "name": "feeGrowthOutside0X128",
          "type": "uint256"
        },
        {
          "internalType": "uint256",
          "name": "feeGrowthOutside1X128",
          "type": "uint256"
        }
      ],
      "stateMutability": "view",
      "type": "function"
    },
    {
      "inputs": [],
      "name": "time",
      "outputs": [
        {
          "internalType": "uint256",
          "name": "",
          "type": "uint256"
        }
      ],
      "stateMutability": "view",
      "type": "function"
    },
    {
      "inputs": [],
      "name": "token0",
      "outputs": [
        {
          "internalType": "address",
          "name": "",
          "type": "address"
        }
      ],
      "stateMutability": "view",
      "type": "function"
    },
    {
      "inputs": [],
      "name": "token1",
      "outputs": [
        {
          "internalType": "address",
          "name": "",
          "type": "address"
        }
      ],
      "stateMutability": "view",
      "type": "function"
    }
  ],
  "bytecode": "0x610160604052635f7b26e062010008600050909055348015620000225760006000fd5b505b5b3073ffffffffffffffffffffffffffffffffffffffff1660808173ffffffffffffffffffffffffffffffffffffffff1660601b815260140150505b60003373ffffffffffffffffffffffffffffffffffffffff1663890357306040518163ffffffff1660e01b815260040160a06040518083038186803b158015620000aa5760006000fd5b505afa158015620000c0573d600060003e3d6000fd5b505050506040513d60a0811015620000d85760006000fd5b8101908080519060200190929190805190602001909291908051906020019092919080519060200190929190805190602001909291905050508095508162ffffff166101009062ffffff1660e81b8152600301508273ffffffffffffffffffffffffffffffffffffffff1660e09073ffffffffffffffffffffffffffffffffffffffff1660601b8152601401508373ffffffffffffffffffffffffffffffffffffffff1660c09073ffffffffffffffffffffffffffffffffffffffff1660601b8152601401508473ffffffffffffffffffffffffffffffffffffffff1660a09073ffffffffffffffffffffffffffffffffffffffff1660601b81526014015050505050508060020b6101208160020b60e81b8152600301505062000207816200024160201b620046851760201c565b6fffffffffffffffffffffffffffffffff16610140816fffffffffffffffffffffffffffffffff1660801b81526010015050505b6200031b565b60006000828360020b7ffffffffffffffffffffffffffffffffffffffffffffffffffffffffffff2761860020b8115156200027857fe5b050290506000838460020b7ffffffffffffffffffffffffffffffffffffffffffffffffffffffffffff2761860000360020b811515620002b457fe5b05029050600060018560020b84840360020b811515620002d057fe5b050190508062ffffff166fffffffffffffffffffffffffffffffff6fffffffffffffffffffffffffffffffff168115156200030757fe5b04935050505062000316565050505b919050565b60805160601c60a05160601c60c05160601c60e05160601c6101005160e81c6101205160e81c6101405160801c618e7c62000406600039806134a3528061734e5280617396525080611374528061188d528061423d52806142b552806173de5280617418528061745b5280617495528061753b528061759252508061158c5280612a065280612a43528061430d525080611d0f5280612ae552806132e65280613c1052806142d95280615ef7525080610dc55280611ea85280612aaa528061322b5280613af75280615d205250806135755280613843528061429152508061475c5250618e7c6000f3fe60806040523480156100115760006000fd5b50600436106101ea5760003560e01c806370cf754a11610110578063d0c93a7c116100a3578063f305839911610072578063f305839914610ca7578063f30dba9314610cc5578063f637731d14610d35578063f6eb760f14610d7a576101ea565b8063d0c93a7c14610c00578063d21220a714610c21578063d380c67914610c55578063ddca3f4314610c84576101ea565b8063a34123a7116100df578063a34123a714610ab7578063a757e4fd14610b2d578063b81fdcfb14610b73578063c45a015514610bcc576101ea565b806370cf754a1461086e5780638206a4d11461089e57806385b66729146108dd578063883bdbfd14610999576101ea565b806332148f6711610188578063490e6cbc11610157578063490e6cbc146106065780634f1eb3d8146106b9578063514ea4bf1461078f5780635339c29614610828576101ea565b806332148f67146104535780633850c7bd146104865780633c8a7d8d146104f857806346141319146105e8576101ea565b806316ada547116101c457806316ada547146103435780631a686502146103615780631ad8b03b14610391578063252c09d7146103da576101ea565b806307e32f0a146101f05780630dfe16811461021f578063128acb0814610253576101ea565b60006000fd5b61021d600480360360208110156102075760006000fd5b8101908080359060200190929190505050610da9565b005b610227610dc3565b604051808273ffffffffffffffffffffffffffffffffffffffff16815260200191505060405180910390f35b610326600480360360a081101561026a5760006000fd5b81019080803573ffffffffffffffffffffffffffffffffffffffff16906020019092919080351515906020019092919080359060200190929190803573ffffffffffffffffffffffffffffffffffffffff169060200190929190803590602001906401000000008111156102de5760006000fd5b8201836020820111156102f15760006000fd5b803590602001918460018302840111640100000000831117156103145760006000fd5b90919293909091929390505050610de7565b604051808381526020018281526020019250505060405180910390f35b61034b6120ff565b6040518082815260200191505060405180910390f35b61036961210a565b60405180826fffffffffffffffffffffffffffffffff16815260200191505060405180910390f35b61039961212c565b60405180836fffffffffffffffffffffffffffffffff168152602001826fffffffffffffffffffffffffffffffff1681526020019250505060405180910390f35b610407600480360360208110156103f15760006000fd5b8101908080359060200190929190505050612179565b604051808563ffffffff1681526020018460060b81526020018373ffffffffffffffffffffffffffffffffffffffff168152602001821515815260200194505050505060405180910390f35b6104846004803603602081101561046a5760006000fd5b81019080803561ffff1690602001909291905050506121fd565b005b61048e612396565b604051808873ffffffffffffffffffffffffffffffffffffffff1681526020018760020b81526020018661ffff1681526020018561ffff1681526020018461ffff1681526020018360ff168152602001821515815260200197505050505050505060405180910390f35b6105cb600480360360a081101561050f5760006000fd5b81019080803573ffffffffffffffffffffffffffffffffffffffff169060200190929190803560020b9060200190929190803560020b906020019092919080356fffffffffffffffffffffffffffffffff169060200190929190803590602001906401000000008111156105835760006000fd5b8201836020820111156105965760006000fd5b803590602001918460018302840111640100000000831117156105b95760006000fd5b9091929390909192939050505061243a565b604051808381526020018281526020019250505060405180910390f35b6105f0612889565b6040518082815260200191505060405180910390f35b6106b76004803603608081101561061d5760006000fd5b81019080803573ffffffffffffffffffffffffffffffffffffffff16906020019092919080359060200190929190803590602001909291908035906020019064010000000081111561066f5760006000fd5b8201836020820111156106825760006000fd5b803590602001918460018302840111640100000000831117156106a55760006000fd5b90919293909091929390505050612892565b005b61074e600480360360a08110156106d05760006000fd5b81019080803573ffffffffffffffffffffffffffffffffffffffff169060200190929190803560020b9060200190929190803560020b906020019092919080356fffffffffffffffffffffffffffffffff16906020019092919080356fffffffffffffffffffffffffffffffff169060200190929190505050612ff0565b60405180836fffffffffffffffffffffffffffffffff168152602001826fffffffffffffffffffffffffffffffff1681526020019250505060405180910390f35b6107c0600480360360208110156107a65760006000fd5b8101908080356000191690602001909291905050506133f3565b60405180866fffffffffffffffffffffffffffffffff168152602001858152602001848152602001836fffffffffffffffffffffffffffffffff168152602001826fffffffffffffffffffffffffffffffff1681526020019550505050505060405180910390f35b6108586004803603602081101561083f5760006000fd5b81019080803560010b9060200190929190505050613486565b6040518082815260200191505060405180910390f35b6108766134a1565b60405180826fffffffffffffffffffffffffffffffff16815260200191505060405180910390f35b6108db600480360360408110156108b55760006000fd5b81019080803560ff169060200190929190803560ff1690602001909291905050506134c5565b005b610958600480360360608110156108f45760006000fd5b81019080803573ffffffffffffffffffffffffffffffffffffffff16906020019092919080356fffffffffffffffffffffffffffffffff16906020019092919080356fffffffffffffffffffffffffffffffff16906020019092919050505061378f565b60405180836fffffffffffffffffffffffffffffffff168152602001826fffffffffffffffffffffffffffffffff1681526020019250505060405180910390f35b610a16600480360360208110156109b05760006000fd5b81019080803590602001906401000000008111156109ce5760006000fd5b8201836020820111156109e15760006000fd5b80359060200191846020830284011164010000000083111715610a045760006000fd5b90919293909091929390505050613d0c565b604051808060200180602001838103835285818151815260200191508051906020019060200280838360005b83811015610a5e5780820151818401525b602081019050610a42565b50505050905001838103825284818151815260200191508051906020019060200280838360005b83811015610aa15780820151818401525b602081019050610a85565b5050505090500194505050505060405180910390f35b610b1060048036036060811015610ace5760006000fd5b81019080803560020b9060200190929190803560020b906020019092919080356fffffffffffffffffffffffffffffffff169060200190929190505050613dfd565b604051808381526020018281526020019250505060405180910390f35b610b5d60048036036020811015610b445760006000fd5b81019080803560020b90602001909291905050506140be565b6040518082815260200191505060405180910390f35b610bb060048036036040811015610b8a5760006000fd5b81019080803560020b9060200190929190803560020b90602001909291905050506140d9565b604051808263ffffffff16815260200191505060405180910390f35b610bd461428f565b604051808273ffffffffffffffffffffffffffffffffffffffff16815260200191505060405180910390f35b610c086142b3565b604051808260020b815260200191505060405180910390f35b610c296142d7565b604051808273ffffffffffffffffffffffffffffffffffffffff16815260200191505060405180910390f35b610c8260048036036020811015610c6c5760006000fd5b81019080803590602001909291905050506142fb565b005b610c8c61430b565b604051808262ffffff16815260200191505060405180910390f35b610caf61432f565b6040518082815260200191505060405180910390f35b610cf560048036036020811015610cdc5760006000fd5b81019080803560020b9060200190929190505050614338565b60405180856fffffffffffffffffffffffffffffffff16815260200184600f0b815260200183815260200182815260200194505050505060405180910390f35b610d7860048036036020811015610d4c5760006000fd5b81019080803573ffffffffffffffffffffffffffffffffffffffff16906020019092919050505061439a565b005b610da760048036036020811015610d915760006000fd5b8101908080359060200190929190505050614675565b005b806201000860008282825054019250508190909055505b50565b7f000000000000000000000000000000000000000000000000000000000000000081565b60006000610df961475a63ffffffff16565b60008614151515610e75576040517f08c379a00000000000000000000000000000000000000000000000000000000081526004018080602001828103825260028152602001807f415300000000000000000000000000000000000000000000000000000000000081526020015060200191505060405180910390fd5b600060006000506040518060e00160405290816000820160009054906101000a900473ffffffffffffffffffffffffffffffffffffffff1673ffffffffffffffffffffffffffffffffffffffff1673ffffffffffffffffffffffffffffffffffffffff1681526020016000820160149054906101000a900460020b60020b60020b81526020016000820160179054906101000a900461ffff1661ffff1661ffff1681526020016000820160199054906101000a900461ffff1661ffff1661ffff16815260200160008201601b9054906101000a900461ffff1661ffff1661ffff16815260200160008201601d9054906101000a900460ff1660ff1660ff16815260200160008201601e9054906101000a900460ff16151515158152602001505090508060c001511515611013576040517f08c379a00000000000000000000000000000000000000000000000000000000081526004018080602001828103825260038152602001807f4c4f4b000000000000000000000000000000000000000000000000000000000081526020015060200191505060405180910390fd5b8761109b57806000015173ffffffffffffffffffffffffffffffffffffffff168673ffffffffffffffffffffffffffffffffffffffff16118015611096575073fffd8963efd1fc6a506488495d951d5263988d2673ffffffffffffffffffffffffffffffffffffffff168673ffffffffffffffffffffffffffffffffffffffff16105b61110b565b806000015173ffffffffffffffffffffffffffffffffffffffff168673ffffffffffffffffffffffffffffffffffffffff1610801561110a57506401000276a373ffffffffffffffffffffffffffffffffffffffff168673ffffffffffffffffffffffffffffffffffffffff16115b5b1515611182576040517f08c379a00000000000000000000000000000000000000000000000000000000081526004018080602001828103825260038152602001807f53504c000000000000000000000000000000000000000000000000000000000081526020015060200191505060405180910390fd5b60006000600050600001601e6101000a81548160ff021916908315150217905550600060405180606001604052808a6111c65760048460a0015160ff16901c6111db565b60108460a0015160ff168115156111d957fe5b065b60ff168152602001600460009054906101000a90046fffffffffffffffffffffffffffffffff166fffffffffffffffffffffffffffffffff1681526020016112276147b863ffffffff16565b63ffffffff168152602001509050600060008913905060006040518060e001604052808b815260200160008152602001856000015173ffffffffffffffffffffffffffffffffffffffff168152602001856020015160020b81526020018c6112945760026000505461129b565b6001600050545b815260200160006fffffffffffffffffffffffffffffffff16815260200184602001516fffffffffffffffffffffffffffffffff1681526020015090505b600081600001511415801561131e57508873ffffffffffffffffffffffffffffffffffffffff16816040015173ffffffffffffffffffffffffffffffffffffffff1614155b156119ab5761132b618d89565b8160400151816000019073ffffffffffffffffffffffffffffffffffffffff16908173ffffffffffffffffffffffffffffffffffffffff16815260200150506113a982606001517f00000000000000000000000000000000000000000000000000000000000000008e60066000506147cc909392919063ffffffff16565b82602001836040018290901515151581526020015082909060020b60020b81526020015050507ffffffffffffffffffffffffffffffffffffffffffffffffffffffffffff2761860020b816020015160020b121561143b577ffffffffffffffffffffffffffffffffffffffffffffffffffffffffffff27618816020019060020b908160020b815260200150506114aa565b7ffffffffffffffffffffffffffffffffffffffffffffffffffffffffffff2761860000360020b816020015160020b13156114a9577ffffffffffffffffffffffffffffffffffffffffffffffffffffffffffff27618600003816020019060020b908160020b815260200150505b5b6114bd816020015161495263ffffffff16565b816060019073ffffffffffffffffffffffffffffffffffffffff16908173ffffffffffffffffffffffffffffffffffffffff16815260200150506115b682604001518d61153c578b73ffffffffffffffffffffffffffffffffffffffff16836060015173ffffffffffffffffffffffffffffffffffffffff1611611570565b8b73ffffffffffffffffffffffffffffffffffffffff16836060015173ffffffffffffffffffffffffffffffffffffffff16105b61157e578260600151611580565b8b5b8460c0015185600001517f0000000000000000000000000000000000000000000000000000000000000000614de963ffffffff16565b85604001856080018660a0018760c00184909081526020015084909081526020015084909081526020015084909073ffffffffffffffffffffffffffffffffffffffff1673ffffffffffffffffffffffffffffffffffffffff1681526020015050505050821561168d5761163b8160c001518260800151016150af909063ffffffff16565b826000018181510391509090818152602001505061167a6116678260a001516150af909063ffffffff16565b83602001516150eb90919063ffffffff16565b82602001909081815260200150506116f6565b6116a28160a001516150af909063ffffffff16565b82600001818151019150909081815260200150506116e76116d48260c001518360800151016150af909063ffffffff16565b836020015161511390919063ffffffff16565b82602001909081815260200150505b6000846000015160ff161115611771576000846000015160ff168260c0015181151561171e57fe5b049050808260c00181815103915090908181526020015050808360a001818151019150906fffffffffffffffffffffffffffffffff1690816fffffffffffffffffffffffffffffffff1681526020015050505b60008260c001516fffffffffffffffffffffffffffffffff1611156117e1576117cc8160c001517001000000000000000000000000000000008460c001516fffffffffffffffffffffffffffffffff1661513b63ffffffff16565b82608001818151019150909081815260200150505b806060015173ffffffffffffffffffffffffffffffffffffffff16826040015173ffffffffffffffffffffffffffffffffffffffff16141561193f5780604001511561190e57600061187282602001518e61184157600160005054611847565b84608001515b8f61185657856080015161185d565b6002600050545b600560005061523c909392919063ffffffff16565b90508c156118835780600003905080505b6118c682602001517f0000000000000000000000000000000000000000000000000000000000000000876040015160076000506152ab909392919063ffffffff16565b6118da8360c001518261533f63ffffffff16565b8360c001906fffffffffffffffffffffffffffffffff1690816fffffffffffffffffffffffffffffffff1681526020015050505b8b61191d578060200151611926565b60018160200151035b826060019060020b908160020b815260200150506119a5565b806000015173ffffffffffffffffffffffffffffffffffffffff16826040015173ffffffffffffffffffffffffffffffffffffffff161415156119a45761198f82604001516154a463ffffffff16565b826060019060020b908160020b815260200150505b5b506112d9565b836020015160020b816060015160020b141515611ad757600060006119ff86604001518660400151886020015188602001518a606001518b6080015160096000506158b8909695949392919063ffffffff16565b91509150826040015183606001518383600060005060000160006000600050600001601460006000506000016017600060005060000160198891906101000a81548161ffff021916908361ffff1602179055508791906101000a81548161ffff021916908361ffff1602179055508691906101000a81548162ffffff021916908360020b62ffffff1602179055508591906101000a81548173ffffffffffffffffffffffffffffffffffffffff021916908373ffffffffffffffffffffffffffffffffffffffff160217905550505050505050611b23565b8060400151600060005060000160006101000a81548173ffffffffffffffffffffffffffffffffffffffff021916908373ffffffffffffffffffffffffffffffffffffffff1602179055505b8060c001516fffffffffffffffffffffffffffffffff1683602001516fffffffffffffffffffffffffffffffff16141515611b96578060c00151600460006101000a8154816fffffffffffffffffffffffffffffffff02191690836fffffffffffffffffffffffffffffffff1602179055505b8a15611c35578060800151600160005081909090555060008160a001516fffffffffffffffffffffffffffffffff161115611c30578060a00151600360005060000160008282829054906101000a90046fffffffffffffffffffffffffffffffff160192506101000a8154816fffffffffffffffffffffffffffffffff02191690836fffffffffffffffffffffffffffffffff1602179055505b611cca565b8060800151600260005081909090555060008160a001516fffffffffffffffffffffffffffffffff161115611cc9578060a00151600360005060000160108282829054906101000a90046fffffffffffffffffffffffffffffffff160192506101000a8154816fffffffffffffffffffffffffffffffff02191690836fffffffffffffffffffffffffffffffff1602179055505b5b8115158b151514611ce657806020015181600001518b03611cf3565b80600001518a0381602001515b80965081975050508a15611e9a576000851215611d3f57611d3e7f00000000000000000000000000000000000000000000000000000000000000008d87600003615b0c63ffffffff16565b5b6000611d4f615d1863ffffffff16565b90503373ffffffffffffffffffffffffffffffffffffffff1663fa461e3388888c8c6040518563ffffffff1660e01b815260040180858152602001848152602001806020018281038252848482818152602001925080828437600081840152601f19601f82011690508083019250505095505050505050600060405180830381600087803b158015611de15760006000fd5b505af1158015611df6573d600060003e3d6000fd5b50505050611e08615d1863ffffffff16565b611e1b8883615ed190919063ffffffff16565b11151515611e94576040517f08c379a00000000000000000000000000000000000000000000000000000000081526004018080602001828103825260038152602001807f494941000000000000000000000000000000000000000000000000000000000081526020015060200191505060405180910390fd5b5061202f565b6000861215611ed857611ed77f00000000000000000000000000000000000000000000000000000000000000008d88600003615b0c63ffffffff16565b5b6000611ee8615eef63ffffffff16565b90503373ffffffffffffffffffffffffffffffffffffffff1663fa461e3388888c8c6040518563ffffffff1660e01b815260040180858152602001848152602001806020018281038252848482818152602001925080828437600081840152601f19601f82011690508083019250505095505050505050600060405180830381600087803b158015611f7a5760006000fd5b505af1158015611f8f573d600060003e3d6000fd5b50505050611fa1615eef63ffffffff16565b611fb48783615ed190919063ffffffff16565b1115151561202d576040517f08c379a00000000000000000000000000000000000000000000000000000000081526004018080602001828103825260038152602001807f494941000000000000000000000000000000000000000000000000000000000081526020015060200191505060405180910390fd5b505b8b73ffffffffffffffffffffffffffffffffffffffff163373ffffffffffffffffffffffffffffffffffffffff167f41e82c9c8c68651be91e14fa6bb6d577822b5f6b66fda7d7f365faed56e2855e888885604001518660600151604051808581526020018481526020018373ffffffffffffffffffffffffffffffffffffffff1681526020018260020b815260200194505050505060405180910390a360016000600050600001601e6101000a81548160ff021916908315150217905550505050505b5b965096945050505050565b620100086000505481565b600460009054906101000a90046fffffffffffffffffffffffffffffffff1681565b60036000508060000160009054906101000a90046fffffffffffffffffffffffffffffffff16908060000160109054906101000a90046fffffffffffffffffffffffffffffffff16905082565b60096000508161ffff811061218d57600080fd5b90900160005b915090508060000160009054906101000a900463ffffffff16908060000160049054906101000a900460060b9080600001600b9054906101000a900473ffffffffffffffffffffffffffffffffffffffff169080600001601f9054906101000a900460ff16905084565b6000600050600001601e9054906101000a900460ff16151561228a576040517f08c379a00000000000000000000000000000000000000000000000000000000081526004018080602001828103825260038152602001807f4c4f4b000000000000000000000000000000000000000000000000000000000081526020015060200191505060405180910390fd5b60006000600050600001601e6101000a81548160ff0219169083151502179055506122b961475a63ffffffff16565b60006000600050600001601b9054906101000a900461ffff16905060006122ef828460096000506160a89092919063ffffffff16565b9050806000600050600001601b6101000a81548161ffff021916908361ffff1602179055508061ffff168261ffff1614151561236d577fac49e518f90a358f652e4400164f05a5d8f7e35e7747279bc3a93dbf584e125a8282604051808361ffff1681526020018261ffff1681526020019250505060405180910390a15b50505b5b60016000600050600001601e6101000a81548160ff0219169083151502179055505b50565b60006000508060000160009054906101000a900473ffffffffffffffffffffffffffffffffffffffff16908060000160149054906101000a900460020b908060000160179054906101000a900461ffff16908060000160199054906101000a900461ffff169080600001601b9054906101000a900461ffff169080600001601d9054906101000a900460ff169080600001601e9054906101000a900460ff16905087565b600060006000600050600001601e9054906101000a900460ff1615156124cb576040517f08c379a00000000000000000000000000000000000000000000000000000000081526004018080602001828103825260038152602001807f4c4f4b000000000000000000000000000000000000000000000000000000000081526020015060200191505060405180910390fd5b60006000600050600001601e6101000a81548160ff0219169083151502179055506000856fffffffffffffffffffffffffffffffff1611151561250e5760006000fd5b6000600061258560405180608001604052808c73ffffffffffffffffffffffffffffffffffffffff1681526020018b60020b81526020018a60020b81526020016125718a6fffffffffffffffffffffffffffffffff166161b3909063ffffffff16565b600f0b8152602001506161d063ffffffff16565b9250925050819350835080925082506000600060008611156125b4576125af615d1863ffffffff16565b915081505b60008511156125d0576125cb615eef63ffffffff16565b905080505b3373ffffffffffffffffffffffffffffffffffffffff1663d348799787878b8b6040518563ffffffff1660e01b815260040180858152602001848152602001806020018281038252848482818152602001925080828437600081840152601f19601f82011690508083019250505095505050505050600060405180830381600087803b1580156126605760006000fd5b505af1158015612675573d600060003e3d6000fd5b50505050600086111561271d57612690615d1863ffffffff16565b6126a38784615ed190919063ffffffff16565b1115151561271c576040517f08c379a00000000000000000000000000000000000000000000000000000000081526004018080602001828103825260028152602001807f4d3000000000000000000000000000000000000000000000000000000000000081526020015060200191505060405180910390fd5b5b60008511156127c157612734615eef63ffffffff16565b6127478683615ed190919063ffffffff16565b111515156127c0576040517f08c379a00000000000000000000000000000000000000000000000000000000081526004018080602001828103825260028152602001807f4d3100000000000000000000000000000000000000000000000000000000000081526020015060200191505060405180910390fd5b5b8960020b8b60020b8d73ffffffffffffffffffffffffffffffffffffffff167f7a53080ba414158be7ec69b987b5fb7d07dee101fe85488f0853ae16239d0bde338d8b8b604051808573ffffffffffffffffffffffffffffffffffffffff168152602001846fffffffffffffffffffffffffffffffff16815260200183815260200182815260200194505050505060405180910390a4505050505b60016000600050600001601e6101000a81548160ff0219169083151502179055505b965096945050505050565b60026000505481565b6000600050600001601e9054906101000a900460ff16151561291f576040517f08c379a00000000000000000000000000000000000000000000000000000000081526004018080602001828103825260038152602001807f4c4f4b000000000000000000000000000000000000000000000000000000000081526020015060200191505060405180910390fd5b60006000600050600001601e6101000a81548160ff02191690831515021790555061294e61475a63ffffffff16565b6000600460009054906101000a90046fffffffffffffffffffffffffffffffff1690506000816fffffffffffffffffffffffffffffffff161115156129fe576040517f08c379a00000000000000000000000000000000000000000000000000000000081526004018080602001828103825260018152602001807f4c0000000000000000000000000000000000000000000000000000000000000081526020015060200191505060405180910390fd5b6000612a39867f000000000000000000000000000000000000000000000000000000000000000062ffffff16620f424061656f63ffffffff16565b90506000612a76867f000000000000000000000000000000000000000000000000000000000000000062ffffff16620f424061656f63ffffffff16565b90506000612a88615d1863ffffffff16565b90506000612a9a615eef63ffffffff16565b90506000891115612ad757612ad67f00000000000000000000000000000000000000000000000000000000000000008b8b615b0c63ffffffff16565b5b6000881115612b1257612b117f00000000000000000000000000000000000000000000000000000000000000008b8a615b0c63ffffffff16565b5b3373ffffffffffffffffffffffffffffffffffffffff1663e9cbafb085858a8a6040518563ffffffff1660e01b815260040180858152602001848152602001806020018281038252848482818152602001925080828437600081840152601f19601f82011690508083019250505095505050505050600060405180830381600087803b158015612ba25760006000fd5b505af1158015612bb7573d600060003e3d6000fd5b505050506000612bcb615d1863ffffffff16565b90506000612bdd615eef63ffffffff16565b905081612bf38786615ed190919063ffffffff16565b11151515612c6c576040517f08c379a00000000000000000000000000000000000000000000000000000000081526004018080602001828103825260028152602001807f463000000000000000000000000000000000000000000000000000000000000081526020015060200191505060405180910390fd5b80612c808685615ed190919063ffffffff16565b11151515612cf9576040517f08c379a00000000000000000000000000000000000000000000000000000000081526004018080602001828103825260028152602001807f463100000000000000000000000000000000000000000000000000000000000081526020015060200191505060405180910390fd5b60008483039050600084830390506000821115612e2757600060106000600050600001601d9054906101000a900460ff1660ff16811515612d3657fe5b069050600060008260ff1614612d5a578160ff1684811515612d5457fe5b04612d5d565b60005b90506000816fffffffffffffffffffffffffffffffff161115612ddb5780600360005060000160008282829054906101000a90046fffffffffffffffffffffffffffffffff160192506101000a8154816fffffffffffffffffffffffffffffffff02191690836fffffffffffffffffffffffffffffffff1602179055505b612e118185037001000000000000000000000000000000008d6fffffffffffffffffffffffffffffffff1661513b63ffffffff16565b6001600082828250540192505081909090555050505b6000811115612f3f57600060046000600050600001601d9054906101000a900460ff1660ff16901c9050600060008260ff1614612e72578160ff1683811515612e6c57fe5b04612e75565b60005b90506000816fffffffffffffffffffffffffffffffff161115612ef35780600360005060000160108282829054906101000a90046fffffffffffffffffffffffffffffffff160192506101000a8154816fffffffffffffffffffffffffffffffff02191690836fffffffffffffffffffffffffffffffff1602179055505b612f298184037001000000000000000000000000000000008d6fffffffffffffffffffffffffffffffff1661513b63ffffffff16565b6002600082828250540192505081909090555050505b8d73ffffffffffffffffffffffffffffffffffffffff163373ffffffffffffffffffffffffffffffffffffffff167fbdbdb71d7860376ba52b25a5028beea23581364a40522f6bcfb86bb1f2dca6338f8f86866040518085815260200184815260200183815260200182815260200194505050505060405180910390a35050505050505050505b5b60016000600050600001601e6101000a81548160ff0219169083151502179055505b5050505050565b600060006000600050600001601e9054906101000a900460ff161515613081576040517f08c379a00000000000000000000000000000000000000000000000000000000081526004018080602001828103825260038152602001807f4c4f4b000000000000000000000000000000000000000000000000000000000081526020015060200191505060405180910390fd5b60006000600050600001601e6101000a81548160ff02191690831515021790555060006130bf33888860086000506165db909392919063ffffffff16565b90508060030160009054906101000a90046fffffffffffffffffffffffffffffffff166fffffffffffffffffffffffffffffffff16856fffffffffffffffffffffffffffffffff16116131125784613134565b8060030160009054906101000a90046fffffffffffffffffffffffffffffffff165b925082508060030160109054906101000a90046fffffffffffffffffffffffffffffffff166fffffffffffffffffffffffffffffffff16846fffffffffffffffffffffffffffffffff161161318957836131ab565b8060030160109054906101000a90046fffffffffffffffffffffffffffffffff165b915081506000836fffffffffffffffffffffffffffffffff16111561326a57828160030160008282829054906101000a90046fffffffffffffffffffffffffffffffff160392506101000a8154816fffffffffffffffffffffffffffffffff02191690836fffffffffffffffffffffffffffffffff1602179055506132697f000000000000000000000000000000000000000000000000000000000000000089856fffffffffffffffffffffffffffffffff16615b0c63ffffffff16565b5b6000826fffffffffffffffffffffffffffffffff16111561332557818160030160108282829054906101000a90046fffffffffffffffffffffffffffffffff160392506101000a8154816fffffffffffffffffffffffffffffffff02191690836fffffffffffffffffffffffffffffffff1602179055506133247f000000000000000000000000000000000000000000000000000000000000000089846fffffffffffffffffffffffffffffffff16615b0c63ffffffff16565b5b8560020b8760020b3373ffffffffffffffffffffffffffffffffffffffff167f70935338e69775456a85ddef226c395fb668b63fa0115f5f20610b388e6ca9c08b8787604051808473ffffffffffffffffffffffffffffffffffffffff168152602001836fffffffffffffffffffffffffffffffff168152602001826fffffffffffffffffffffffffffffffff168152602001935050505060405180910390a4505b60016000600050600001601e6101000a81548160ff0219169083151502179055505b9550959350505050565b60086000506020528060005260406000206000915090508060000160009054906101000a90046fffffffffffffffffffffffffffffffff16908060010160005054908060020160005054908060030160009054906101000a90046fffffffffffffffffffffffffffffffff16908060030160109054906101000a90046fffffffffffffffffffffffffffffffff16905085565b60066000506020528060005260406000206000915090505481565b7f000000000000000000000000000000000000000000000000000000000000000081565b6000600050600001601e9054906101000a900460ff161515613552576040517f08c379a00000000000000000000000000000000000000000000000000000000081526004018080602001828103825260038152602001807f4c4f4b000000000000000000000000000000000000000000000000000000000081526020015060200191505060405180910390fd5b60006000600050600001601e6101000a81548160ff0219169083151502179055507f000000000000000000000000000000000000000000000000000000000000000073ffffffffffffffffffffffffffffffffffffffff16638da5cb5b6040518163ffffffff1660e01b815260040160206040518083038186803b1580156135da5760006000fd5b505afa1580156135ef573d600060003e3d6000fd5b505050506040513d60208110156136065760006000fd5b810190808051906020019092919050505073ffffffffffffffffffffffffffffffffffffffff163373ffffffffffffffffffffffffffffffffffffffff161415156136515760006000fd5b60008260ff161480613677575060048260ff16101580156136765750600a8260ff1611155b5b80156136a5575060008160ff1614806136a4575060048160ff16101580156136a35750600a8160ff1611155b5b5b15156136b15760006000fd5b60006000600050600001601d9054906101000a900460ff16905060048260ff16901b83016000600050600001601d6101000a81548160ff021916908360ff1602179055507f973d8d92bb299f4af6ce49b52a8adb85ae46b9f214c4c4fc06ac77401237b13360108260ff1681151561372557fe5b0660048360ff16901c8585604051808560ff1681526020018460ff1681526020018360ff1681526020018260ff16815260200194505050505060405180910390a1505b5b60016000600050600001601e6101000a81548160ff0219169083151502179055505b5050565b600060006000600050600001601e9054906101000a900460ff161515613820576040517f08c379a00000000000000000000000000000000000000000000000000000000081526004018080602001828103825260038152602001807f4c4f4b000000000000000000000000000000000000000000000000000000000081526020015060200191505060405180910390fd5b60006000600050600001601e6101000a81548160ff0219169083151502179055507f000000000000000000000000000000000000000000000000000000000000000073ffffffffffffffffffffffffffffffffffffffff16638da5cb5b6040518163ffffffff1660e01b815260040160206040518083038186803b1580156138a85760006000fd5b505afa1580156138bd573d600060003e3d6000fd5b505050506040513d60208110156138d45760006000fd5b810190808051906020019092919050505073ffffffffffffffffffffffffffffffffffffffff163373ffffffffffffffffffffffffffffffffffffffff1614151561391f5760006000fd5b600360005060000160009054906101000a90046fffffffffffffffffffffffffffffffff166fffffffffffffffffffffffffffffffff16846fffffffffffffffffffffffffffffffff1611613974578361399a565b600360005060000160009054906101000a90046fffffffffffffffffffffffffffffffff165b91508150600360005060000160109054906101000a90046fffffffffffffffffffffffffffffffff166fffffffffffffffffffffffffffffffff16836fffffffffffffffffffffffffffffffff16116139f35782613a19565b600360005060000160109054906101000a90046fffffffffffffffffffffffffffffffff165b905080506000826fffffffffffffffffffffffffffffffff161115613b3657600360005060000160009054906101000a90046fffffffffffffffffffffffffffffffff166fffffffffffffffffffffffffffffffff16826fffffffffffffffffffffffffffffffff161415613a92578180600190039250505b81600360005060000160008282829054906101000a90046fffffffffffffffffffffffffffffffff160392506101000a8154816fffffffffffffffffffffffffffffffff02191690836fffffffffffffffffffffffffffffffff160217905550613b357f000000000000000000000000000000000000000000000000000000000000000086846fffffffffffffffffffffffffffffffff16615b0c63ffffffff16565b5b6000816fffffffffffffffffffffffffffffffff161115613c4f57600360005060000160109054906101000a90046fffffffffffffffffffffffffffffffff166fffffffffffffffffffffffffffffffff16816fffffffffffffffffffffffffffffffff161415613bab578080600190039150505b80600360005060000160108282829054906101000a90046fffffffffffffffffffffffffffffffff160392506101000a8154816fffffffffffffffffffffffffffffffff02191690836fffffffffffffffffffffffffffffffff160217905550613c4e7f000000000000000000000000000000000000000000000000000000000000000086836fffffffffffffffffffffffffffffffff16615b0c63ffffffff16565b5b8473ffffffffffffffffffffffffffffffffffffffff163373ffffffffffffffffffffffffffffffffffffffff167f596b573906218d3411850b26a6b437d6c4522fdb43d2d2386263f86d50b8b151848460405180836fffffffffffffffffffffffffffffffff168152602001826fffffffffffffffffffffffffffffffff1681526020019250505060405180910390a35b5b60016000600050600001601e6101000a81548160ff0219169083151502179055505b935093915050565b60606060613d1e61475a63ffffffff16565b613dec613d2f6147b863ffffffff16565b858580806020026020016040519081016040528093929190818152602001838360200280828437600081840152601f19601f82011690508083019250505050505050600060005060000160149054906101000a900460020b600060005060000160179054906101000a900461ffff16600460009054906101000a90046fffffffffffffffffffffffffffffffff16600060005060000160199054906101000a900461ffff166009600050616662909695949392919063ffffffff16565b91509150613df5565b5b9250929050565b600060006000600050600001601e9054906101000a900460ff161515613e8e576040517f08c379a00000000000000000000000000000000000000000000000000000000081526004018080602001828103825260038152602001807f4c4f4b000000000000000000000000000000000000000000000000000000000081526020015060200191505060405180910390fd5b60006000600050600001601e6101000a81548160ff021916908315150217905550600060006000613f2b60405180608001604052803373ffffffffffffffffffffffffffffffffffffffff1681526020018a60020b81526020018960020b8152602001613f14896fffffffffffffffffffffffffffffffff166161b3909063ffffffff16565b600003600f0b8152602001506161d063ffffffff16565b925092509250816000039450845080600003935083506000851180613f505750600084115b1561401857848360030160009054906101000a90046fffffffffffffffffffffffffffffffff1601848460030160109054906101000a90046fffffffffffffffffffffffffffffffff16018460030160008660030160108491906101000a8154816fffffffffffffffffffffffffffffffff02191690836fffffffffffffffffffffffffffffffff1602179055508391906101000a8154816fffffffffffffffffffffffffffffffff02191690836fffffffffffffffffffffffffffffffff16021790555050505b8660020b8860020b3373ffffffffffffffffffffffffffffffffffffffff167f0c396cd989a39f4459b5fa1aed6a9a8dcdbc45908acfd67e028cd568da98982c89898960405180846fffffffffffffffffffffffffffffffff168152602001838152602001828152602001935050505060405180910390a45050505b60016000600050600001601e6101000a81548160ff0219169083151502179055505b935093915050565b60076000506020528060005260406000206000915090505481565b60006140e961475a63ffffffff16565b6140f9838361684563ffffffff16565b6000600560005060008560020b60020b815260200190815260200160002060005060000160009054906101000a90046fffffffffffffffffffffffffffffffff166fffffffffffffffffffffffffffffffff161180156141a957506000600560005060008460020b60020b815260200190815260200160002060005060000160009054906101000a90046fffffffffffffffffffffffffffffffff166fffffffffffffffffffffffffffffffff16115b1515614220576040517f08c379a00000000000000000000000000000000000000000000000000000000081526004018080602001828103825260018152602001807f580000000000000000000000000000000000000000000000000000000000000081526020015060200191505060405180910390fd5b6142818383600060005060000160149054906101000a900460020b7f000000000000000000000000000000000000000000000000000000000000000061426a6147b863ffffffff16565b6007600050616a0f9095949392919063ffffffff16565b9050614288565b5b92915050565b7f000000000000000000000000000000000000000000000000000000000000000081565b7f000000000000000000000000000000000000000000000000000000000000000081565b7f000000000000000000000000000000000000000000000000000000000000000081565b8060016000508190909055505b50565b7f000000000000000000000000000000000000000000000000000000000000000081565b60016000505481565b60056000506020528060005260406000206000915090508060000160009054906101000a90046fffffffffffffffffffffffffffffffff16908060000160109054906101000a9004600f0b908060010160005054908060020160005054905084565b6000600060005060000160009054906101000a900473ffffffffffffffffffffffffffffffffffffffff1673ffffffffffffffffffffffffffffffffffffffff16141515614453576040517f08c379a00000000000000000000000000000000000000000000000000000000081526004018080602001828103825260028152602001807f414900000000000000000000000000000000000000000000000000000000000081526020015060200191505060405180910390fd5b6000614464826154a463ffffffff16565b90506000600061448e61447b6147b863ffffffff16565b6009600050616ab090919063ffffffff16565b915091506040518060e001604052808573ffffffffffffffffffffffffffffffffffffffff1681526020018460020b8152602001600061ffff1681526020018361ffff1681526020018261ffff168152602001600060ff16815260200160011515815260200150600060005060008201518160000160006101000a81548173ffffffffffffffffffffffffffffffffffffffff021916908373ffffffffffffffffffffffffffffffffffffffff16021790555060208201518160000160146101000a81548162ffffff021916908360020b62ffffff16021790555060408201518160000160176101000a81548161ffff021916908361ffff16021790555060608201518160000160196101000a81548161ffff021916908361ffff160217905550608082015181600001601b6101000a81548161ffff021916908361ffff16021790555060a082015181600001601d6101000a81548160ff021916908360ff16021790555060c082015181600001601e6101000a81548160ff0219169083151502179055509050507f98636036cb66a9c19a37435efc1e90142190214e8abeb821bdba3f2990dd4c958484604051808373ffffffffffffffffffffffffffffffffffffffff1681526020018260020b81526020019250505060405180910390a15050505b50565b8060026000508190909055505b50565b60006000828360020b7ffffffffffffffffffffffffffffffffffffffffffffffffffffffffffff2761860020b8115156146bb57fe5b050290506000838460020b7ffffffffffffffffffffffffffffffffffffffffffffffffffffffffffff2761860000360020b8115156146f657fe5b05029050600060018560020b84840360020b81151561471157fe5b050190508062ffffff166fffffffffffffffffffffffffffffffff6fffffffffffffffffffffffffffffffff1681151561474757fe5b049350505050614755565050505b919050565b7f000000000000000000000000000000000000000000000000000000000000000073ffffffffffffffffffffffffffffffffffffffff163073ffffffffffffffffffffffffffffffffffffffff161415156147b55760006000fd5b5b565b6000620100086000505490506147c9565b90565b6000600060008460020b8660020b8115156147e357fe5b05905060008660020b12801561480e575060008560020b8760020b81151561480757fe5b0760020b14155b1561481d578080600190039150505b83156148b5576000600061483683616bee63ffffffff16565b9150915060008160ff166001901b60018360ff166001901b030190506000818b60008660010b60010b8152602001908152602001600020600050541690506000811415955085508561488f57888360ff168603026148a8565b8861489f82616c1963ffffffff16565b840360ff168603025b9650865050505050614947565b600060006148cb60018401616bee63ffffffff16565b91509150600060018260ff166001901b031990506000818b60008660010b60010b8152602001908152602001600020600050541690506000811415955085508561492257888360ff0360ff1660018701010261493e565b888361493383616d2763ffffffff16565b0360ff166001870101025b96508650505050505b505b94509492505050565b6000600060008360020b1261496a578260020b614972565b8260020b6000035b90507ffffffffffffffffffffffffffffffffffffffffffffffffffffffffffff2761860000360020b8111151515614a15576040517f08c379a00000000000000000000000000000000000000000000000000000000081526004018080602001828103825260018152602001807f540000000000000000000000000000000000000000000000000000000000000081526020015060200191505060405180910390fd5b60006000600183161415614a3a57700100000000000000000000000000000000614a4c565b6ffffcb933bd6fad37aa2d162d1a5940015b70ffffffffffffffffffffffffffffffffff169050600060028316141515614a8a5760806ffff97272373d413259a46990580e213a8202901c905080505b600060048316141515614ab35760806ffff2e50f5f656932ef12357cf3c7fdcc8202901c905080505b600060088316141515614adc5760806fffe5caca7e10e4e61c3624eaa0941cd08202901c905080505b600060108316141515614b055760806fffcb9843d60f6159c9db58835c9266448202901c905080505b600060208316141515614b2e5760806fff973b41fa98c081472e6896dfb254c08202901c905080505b600060408316141515614b575760806fff2ea16466c96a3843ec78b326b528618202901c905080505b600060808316141515614b805760806ffe5dee046a99a2a811c461f1969c30538202901c905080505b60006101008316141515614baa5760806ffcbe86c7900a88aedcffc83b479aa3a48202901c905080505b60006102008316141515614bd45760806ff987a7253ac413176f2b074cf7815e548202901c905080505b60006104008316141515614bfe5760806ff3392b0822b70005940c7a398e4b70f38202901c905080505b60006108008316141515614c285760806fe7159475a2c29b7443b29c7fa6e889d98202901c905080505b60006110008316141515614c525760806fd097f3bdfd2022b8845ad8f792aa58258202901c905080505b60006120008316141515614c7c5760806fa9f746462d870fdf8a65dc1f90e061e58202901c905080505b60006140008316141515614ca65760806f70d869a156d2a1b890bb3df62baf32f78202901c905080505b60006180008316141515614cd05760806f31be135f97d08fd981231505542fcfa68202901c905080505b6000620100008316141515614cfb5760806f09aa508b5b7a84e1c677de54f3e99bc98202901c905080505b6000620200008316141515614d255760806e5d6af8dedb81196699c329225ee6048202901c905080505b6000620400008316141515614d4e5760806d2216e584f5fa1ea926041bedfe988202901c905080505b6000620800008316141515614d755760806b048a170391f7dc42444e8fa28202901c905080505b60008460020b1315614db257807fffffffffffffffffffffffffffffffffffffffffffffffffffffffffffffffff811515614dac57fe5b04905080505b600064010000000082811515614dc457fe5b0614614dd1576001614dd4565b60005b60ff16602082901c019250825050505b919050565b600060006000600060008873ffffffffffffffffffffffffffffffffffffffff168a73ffffffffffffffffffffffffffffffffffffffff16101590506000600088121590508015614ebb576000614e548989620f42400362ffffff16620f424061513b63ffffffff16565b905082614e7357614e6e8c8c8c6001616e9263ffffffff16565b614e87565b614e868b8d8c6001616f7d63ffffffff16565b5b955085508581101515614e9e578a96508650614eb5565b614eb08c8b83866170d163ffffffff16565b965086505b50614f21565b81614ed857614ed38b8b8b6000616f7d63ffffffff16565b614eec565b614eeb8a8c8b6000616e9263ffffffff16565b5b935083508388600003101515614f06578995508550614f20565b614f1b8b8a8a6000038561715b63ffffffff16565b955085505b5b60008673ffffffffffffffffffffffffffffffffffffffff168b73ffffffffffffffffffffffffffffffffffffffff161490508215614fb857808015614f645750815b614f8057614f7b878d8c6001616f7d63ffffffff16565b614f82565b855b95508550808015614f91575081155b614fad57614fa8878d8c6000616e9263ffffffff16565b614faf565b845b94508450615012565b808015614fc25750815b614fde57614fd98c888c6001616e9263ffffffff16565b614fe0565b855b95508550808015614fef575081155b61500b576150068c888c6000616f7d63ffffffff16565b61500d565b845b945084505b8115801561502257508860000385115b156150305788600003945084505b81801561506957508a73ffffffffffffffffffffffffffffffffffffffff168773ffffffffffffffffffffffffffffffffffffffff1614155b1561507a578589039350835061509f565b61509a868962ffffff168a620f42400362ffffff1661656f63ffffffff16565b935083505b5050505b95509550955095915050565b60007f8000000000000000000000000000000000000000000000000000000000000000821015156150e05760006000fd5b81905080505b919050565b600060008212151515838385039250821315151514151561510c5760006000fd5b5b92915050565b60006000821215151583838501925082121515151415156151345760006000fd5b5b92915050565b600060006000600019858709858702925082811083820303915050600081141561517e5760008411151561516f5760006000fd5b83820492508292505050615235565b808411151561518d5760006000fd5b60008486880990508281118203915080830392506000858660000316905080860495508084049350600181826000030401905080830284179350835060006002876003021890508087026002038102905080508087026002038102905080508087026002038102905080508087026002038102905080508087026002038102905080508087026002038102905080508085029550855085955050505050506152355650505050505b9392505050565b600060008560008660020b60020b81526020019081526020016000206000509050806001016000505484038160010160005081909090555080600201600050548303816002016000508190909055508060000160109054906101000a9004600f0b91508150505b949350505050565b600060006152bf85856171e563ffffffff16565b9150915060008660008460020b60020b815260200190815260200160002060005054905060008260ff1682901c9050600081860390508360ff168163ffffffff16901b8460ff168363ffffffff16901b8418178960008760020b60020b815260200190815260200160002060005081909090555050505050505b50505050565b6000600082600f0b12156153f857826fffffffffffffffffffffffffffffffff168260000384039150816fffffffffffffffffffffffffffffffff161015156153f3576040517f08c379a00000000000000000000000000000000000000000000000000000000081526004018080602001828103825260028152602001807f4c5300000000000000000000000000000000000000000000000000000000000081526020015060200191505060405180910390fd5b61549d565b826fffffffffffffffffffffffffffffffff168284019150816fffffffffffffffffffffffffffffffff161015151561549c576040517f08c379a00000000000000000000000000000000000000000000000000000000081526004018080602001828103825260028152602001807f4c4100000000000000000000000000000000000000000000000000000000000081526020015060200191505060405180910390fd5b5b5b92915050565b60006401000276a373ffffffffffffffffffffffffffffffffffffffff168273ffffffffffffffffffffffffffffffffffffffff1610158015615526575073fffd8963efd1fc6a506488495d951d5263988d2673ffffffffffffffffffffffffffffffffffffffff168273ffffffffffffffffffffffffffffffffffffffff16105b151561559d576040517f08c379a00000000000000000000000000000000000000000000000000000000081526004018080602001828103825260018152602001807f520000000000000000000000000000000000000000000000000000000000000081526020015060200191505060405180910390fd5b600060208373ffffffffffffffffffffffffffffffffffffffff16901b905060008190506000600090506fffffffffffffffffffffffffffffffff821160071b808217915082811c92505067ffffffffffffffff821160061b808217915082811c92505063ffffffff821160051b808217915082811c92505061ffff821160041b808217915082811c92505060ff821160031b808217915082811c925050600f821160021b808217915082811c9250506003821160011b808217915082811c9250506001821180821791505060808110151561568357607f810383901c9150815061568f565b80607f0383901b915081505b6000604060808303901b9050828302607f1c92508260801c80603f1b8217915083811c935050828302607f1c92508260801c80603e1b8217915083811c935050828302607f1c92508260801c80603d1b8217915083811c935050828302607f1c92508260801c80603c1b8217915083811c935050828302607f1c92508260801c80603b1b8217915083811c935050828302607f1c92508260801c80603a1b8217915083811c935050828302607f1c92508260801c8060391b8217915083811c935050828302607f1c92508260801c8060381b8217915083811c935050828302607f1c92508260801c8060371b8217915083811c935050828302607f1c92508260801c8060361b8217915083811c935050828302607f1c92508260801c8060351b8217915083811c935050828302607f1c92508260801c8060341b8217915083811c935050828302607f1c92508260801c8060331b8217915083811c935050828302607f1c92508260801c8060321b82179150506000693627a301d71055774c8582029050600060806f028f6481ab7f045a5af012a19d003aaa8303901d9050600060806fdb2df09e81959a81455e260799a0632f8401901d90508060020b8260020b146158a5578873ffffffffffffffffffffffffffffffffffffffff1661587c8261495263ffffffff16565b73ffffffffffffffffffffffffffffffffffffffff16111561589e57816158a0565b805b6158a7565b815b97508750505050505050505b919050565b600060006000898961ffff1661ffff811015156158d157fe5b90900160005b506040518060800160405290816000820160009054906101000a900463ffffffff1663ffffffff1663ffffffff1681526020016000820160049054906101000a900460060b60060b60060b815260200160008201600b9054906101000a900473ffffffffffffffffffffffffffffffffffffffff1673ffffffffffffffffffffffffffffffffffffffff1673ffffffffffffffffffffffffffffffffffffffff16815260200160008201601f9054906101000a900460ff16151515158152602001505090508763ffffffff16816000015163ffffffff1614156159c05788859250925050615b00565b8461ffff168461ffff161180156159e157506001850361ffff168961ffff16145b156159f05783915081506159f6565b84915081505b8161ffff1660018a0161ffff16811515615a0c57fe5b0692508250615a238189898961724f63ffffffff16565b8a8461ffff1661ffff81101515615a3657fe5b90900160005b5060008201518160000160006101000a81548163ffffffff021916908363ffffffff16021790555060208201518160000160046101000a81548166ffffffffffffff021916908360060b66ffffffffffffff160217905550604082015181600001600b6101000a81548173ffffffffffffffffffffffffffffffffffffffff021916908373ffffffffffffffffffffffffffffffffffffffff160217905550606082015181600001601f6101000a81548160ff021916908315150217905550905050505b97509795505050505050565b600060008473ffffffffffffffffffffffffffffffffffffffff1663a9059cbb60e01b8585604051602401808373ffffffffffffffffffffffffffffffffffffffff16815260200182815260200192505050604051602081830303815290604052907bffffffffffffffffffffffffffffffffffffffffffffffffffffffff19166020820180517bffffffffffffffffffffffffffffffffffffffffffffffffffffffff83818316178352505050506040518082805190602001908083835b602083101515615bf157805182525b602082019150602081019050602083039250615bcb565b6001836020036101000a0380198251168184511680821785525050505050509050019150506000604051808303816000865af19150503d8060008114615c53576040519150601f19603f3d011682016040523d82523d6000602084013e615c58565b606091505b5091509150818015615c995750600081511480615c985750808060200190516020811015615c865760006000fd5b81019080805190602001909291905050505b5b1515615d10576040517f08c379a00000000000000000000000000000000000000000000000000000000081526004018080602001828103825260028152602001807f544600000000000000000000000000000000000000000000000000000000000081526020015060200191505060405180910390fd5b50505b505050565b6000600060007f000000000000000000000000000000000000000000000000000000000000000073ffffffffffffffffffffffffffffffffffffffff166370a0823160e01b30604051602401808273ffffffffffffffffffffffffffffffffffffffff168152602001915050604051602081830303815290604052907bffffffffffffffffffffffffffffffffffffffffffffffffffffffff19166020820180517bffffffffffffffffffffffffffffffffffffffffffffffffffffffff83818316178352505050506040518082805190602001908083835b602083101515615e1757805182525b602082019150602081019050602083039250615df1565b6001836020036101000a038019825116818451168082178552505050505050905001915050600060405180830381855afa9150503d8060008114615e77576040519150601f19603f3d011682016040523d82523d6000602084013e615e7c565b606091505b5091509150818015615e9057506020815110155b1515615e9c5760006000fd5b808060200190516020811015615eb25760006000fd5b810190808051906020019092919050505092505050615ece5650505b90565b60008282840191508110151515615ee85760006000fd5b5b92915050565b6000600060007f000000000000000000000000000000000000000000000000000000000000000073ffffffffffffffffffffffffffffffffffffffff166370a0823160e01b30604051602401808273ffffffffffffffffffffffffffffffffffffffff168152602001915050604051602081830303815290604052907bffffffffffffffffffffffffffffffffffffffffffffffffffffffff19166020820180517bffffffffffffffffffffffffffffffffffffffffffffffffffffffff83818316178352505050506040518082805190602001908083835b602083101515615fee57805182525b602082019150602081019050602083039250615fc8565b6001836020036101000a038019825116818451168082178552505050505050905001915050600060405180830381855afa9150503d806000811461604e576040519150601f19603f3d011682016040523d82523d6000602084013e616053565b606091505b509150915081801561606757506020815110155b15156160735760006000fd5b8080602001905160208110156160895760006000fd5b8101908080519060200190929190505050925050506160a55650505b90565b600060008361ffff16111515616129576040517f08c379a00000000000000000000000000000000000000000000000000000000081526004018080602001828103825260018152602001807f490000000000000000000000000000000000000000000000000000000000000081526020015060200191505060405180910390fd5b8261ffff168261ffff16111515616142578290506161ac565b60008390505b8261ffff168161ffff1610156161a3576001858261ffff1661ffff8110151561616d57fe5b90900160005b5060000160006101000a81548163ffffffff021916908363ffffffff1602179055505b8080600101915050616148565b508190506161ac565b9392505050565b60008182915081600f0b1415156161ca5760006000fd5b5b919050565b6000600060006161e461475a63ffffffff16565b6161fc8460200151856040015161684563ffffffff16565b600060006000506040518060e00160405290816000820160009054906101000a900473ffffffffffffffffffffffffffffffffffffffff1673ffffffffffffffffffffffffffffffffffffffff1673ffffffffffffffffffffffffffffffffffffffff1681526020016000820160149054906101000a900460020b60020b60020b81526020016000820160179054906101000a900461ffff1661ffff1661ffff1681526020016000820160199054906101000a900461ffff1661ffff1661ffff16815260200160008201601b9054906101000a900461ffff1661ffff1661ffff16815260200160008201601d9054906101000a900460ff1660ff1660ff16815260200160008201601e9054906101000a900460ff1615151515815260200150509050616345856000015186602001518760400151886060015185602001516172ea63ffffffff16565b9350835060008560600151600f0b14151561656557846020015160020b816020015160020b12156163b2576163a9616386866020015161495263ffffffff16565b616399876040015161495263ffffffff16565b87606001516175d763ffffffff16565b92508250616564565b846040015160020b816020015160020b1215616525576000600460009054906101000a90046fffffffffffffffffffffffffffffffff16905061642982604001516164016147b863ffffffff16565b8460200151848660600151876080015160096000506158b8909695949392919063ffffffff16565b60006000506000016017600060005060000160198491906101000a81548161ffff021916908361ffff1602179055508391906101000a81548161ffff021916908361ffff16021790555050506164a08260000151616490886040015161495263ffffffff16565b88606001516175d763ffffffff16565b935083506164cf6164ba876020015161495263ffffffff16565b8360000151886060015161764463ffffffff16565b925082506164e781876060015161533f63ffffffff16565b600460006101000a8154816fffffffffffffffffffffffffffffffff02191690836fffffffffffffffffffffffffffffffff16021790555050616563565b61655e61653b866020015161495263ffffffff16565b61654e876040015161495263ffffffff16565b876060015161764463ffffffff16565b915081505b5b5b505b5b9193909250565b600061658284848461513b63ffffffff16565b9050805060008280151561659257fe5b84860911156165d3577fffffffffffffffffffffffffffffffffffffffffffffffffffffffffffffffff811015156165ca5760006000fd5b80806001019150505b5b9392505050565b6000846000858585604051602001808473ffffffffffffffffffffffffffffffffffffffff1660601b81526014018360020b60e81b81526003018260020b60e81b815260030193505050506040516020818303038152906040528051906020012060001916600019168152602001908152602001600020600050905080505b949350505050565b6060606060008361ffff161115156166e5576040517f08c379a00000000000000000000000000000000000000000000000000000000081526004018080602001828103825260018152602001807f490000000000000000000000000000000000000000000000000000000000000081526020015060200191505060405180910390fd5b865167ffffffffffffffff811180156166fe5760006000fd5b5060405190808252806020026020018201604052801561672d5781602001602082028036833780820191505090505b5091508150865167ffffffffffffffff8111801561674b5760006000fd5b5060405190808252806020026020018201604052801561677a5781602001602082028036833780820191505090505b50905080506000600090505b8751811015616837576167b98a8a8a848151811015156167a257fe5b60200260200101518a8a8a8a6176b163ffffffff16565b84838151811015156167c757fe5b6020026020010184848151811015156167dc57fe5b6020026020010182909073ffffffffffffffffffffffffffffffffffffffff1673ffffffffffffffffffffffffffffffffffffffff1681526020015082909060060b60060b81526020015050505b8080600101915050616786565b505b97509795505050505050565b8060020b8260020b1215156168c5576040517f08c379a00000000000000000000000000000000000000000000000000000000081526004018080602001828103825260038152602001807f544c55000000000000000000000000000000000000000000000000000000000081526020015060200191505060405180910390fd5b7ffffffffffffffffffffffffffffffffffffffffffffffffffffffffffff2761860020b8260020b12151515616966576040517f08c379a00000000000000000000000000000000000000000000000000000000081526004018080602001828103825260038152602001807f544c4d000000000000000000000000000000000000000000000000000000000081526020015060200191505060405180910390fd5b7ffffffffffffffffffffffffffffffffffffffffffffffffffffffffffff2761860000360020b8160020b13151515616a0a576040517f08c379a00000000000000000000000000000000000000000000000000000000081526004018080602001828103825260038152602001807f54554d000000000000000000000000000000000000000000000000000000000081526020015060200191505060405180910390fd5b5b5050565b600060008660020b8560020b121515616a3c57616a3388888661790363ffffffff16565b90508050616a54565b616a4d88888661790363ffffffff16565b8303905080505b60008660020b8660020b1215616a7e57616a7589888761790363ffffffff16565b90508050616a96565b616a8f89888761790363ffffffff16565b8403905080505b808285030392505050616aa65650505b9695505050505050565b6000600060405180608001604052808463ffffffff168152602001600060060b8152602001600073ffffffffffffffffffffffffffffffffffffffff1681526020016001151581526020015084600061ffff81101515616b0c57fe5b90900160005b5060008201518160000160006101000a81548163ffffffff021916908363ffffffff16021790555060208201518160000160046101000a81548166ffffffffffffff021916908360060b66ffffffffffffff160217905550604082015181600001600b6101000a81548173ffffffffffffffffffffffffffffffffffffffff021916908373ffffffffffffffffffffffffffffffffffffffff160217905550606082015181600001601f6101000a81548160ff0219169083151502179055509050506001600181915080905091509150616be7565b9250929050565b6000600060088360020b901d915081506101008360020b811515616c0e57fe5b07905080505b915091565b6000600082111515616c2b5760006000fd5b70010000000000000000000000000000000082101515616c5757608082901c9150815060808101905080505b6801000000000000000082101515616c7b57604082901c9150815060408101905080505b64010000000082101515616c9b57602082901c9150815060208101905080505b6201000082101515616cb957601082901c9150815060108101905080505b61010082101515616cd657600882901c9150815060088101905080505b601082101515616cf257600482901c9150815060048101905080505b600482101515616d0e57600282901c9150815060028101905080505b600282101515616d215760018101905080505b5b919050565b6000600082111515616d395760006000fd5b60ff9050805060006fffffffffffffffffffffffffffffffff6fffffffffffffffffffffffffffffffff1683161115616d79576080810390508050616d83565b608082901c915081505b600067ffffffffffffffff67ffffffffffffffff1683161115616dad576040810390508050616db7565b604082901c915081505b600063ffffffff63ffffffff1683161115616dd9576020810390508050616de3565b602082901c915081505b600061ffff61ffff1683161115616e01576010810390508050616e0b565b601082901c915081505b600060ff60ff1683161115616e27576008810390508050616e31565b600882901c915081505b6000600f83161115616e4a576004810390508050616e54565b600482901c915081505b6000600383161115616e6d576002810390508050616e77565b600282901c915081505b6000600183161115616e8c5760018103905080505b5b919050565b60008373ffffffffffffffffffffffffffffffffffffffff168573ffffffffffffffffffffffffffffffffffffffff161115616ed357838580955081965050505b81616f2557616f20836fffffffffffffffffffffffffffffffff1686860373ffffffffffffffffffffffffffffffffffffffff166c0100000000000000000000000061513b63ffffffff16565b616f6e565b616f6d836fffffffffffffffffffffffffffffffff1686860373ffffffffffffffffffffffffffffffffffffffff166c0100000000000000000000000061656f63ffffffff16565b5b9050616f75565b949350505050565b60008373ffffffffffffffffffffffffffffffffffffffff168573ffffffffffffffffffffffffffffffffffffffff161115616fbe57838580955081965050505b6000606060ff16846fffffffffffffffffffffffffffffffff16901b9050600086860373ffffffffffffffffffffffffffffffffffffffff16905060008773ffffffffffffffffffffffffffffffffffffffff1611151561701f5760006000fd5b83617071578673ffffffffffffffffffffffffffffffffffffffff1661706283838973ffffffffffffffffffffffffffffffffffffffff1661513b63ffffffff16565b81151561706b57fe5b046170be565b6170bd61709b83838973ffffffffffffffffffffffffffffffffffffffff1661656f63ffffffff16565b8873ffffffffffffffffffffffffffffffffffffffff1661795863ffffffff16565b5b925050506170c95650505b949350505050565b600060008573ffffffffffffffffffffffffffffffffffffffff161115156170f95760006000fd5b6000846fffffffffffffffffffffffffffffffff1611151561711b5760006000fd5b8161713857617133858585600161796d63ffffffff16565b61714c565b61714b8585856001617b3163ffffffff16565b5b9050617153565b949350505050565b600060008573ffffffffffffffffffffffffffffffffffffffff161115156171835760006000fd5b6000846fffffffffffffffffffffffffffffffff161115156171a55760006000fd5b816171c2576171bd8585856000617b3163ffffffff16565b6171d6565b6171d5858585600061796d63ffffffff16565b5b90506171dd565b949350505050565b6000600060008360020b8560020b8115156171fc57fe5b0760020b14151561720d5760006000fd5b60008360020b8560020b81151561722057fe5b05905060038160020b901d92508250602060088260020b81151561724057fe5b070291508150505b9250929050565b617257618dfa565b600085600001518503905060405180608001604052808663ffffffff1681526020018263ffffffff168660020b0288602001510160060b81526020018263ffffffff16856fffffffffffffffffffffffffffffffff160288604001510173ffffffffffffffffffffffffffffffffffffffff168152602001600115158152602001509150506172e256505b949350505050565b600061730786868660086000506165db909392919063ffffffff16565b90508050600060016000505490506000600260005054905060006000600087600f0b1415156174ce5760006173406147b863ffffffff16565b90506173868a888a888860007f00000000000000000000000000000000000000000000000000000000000000006005600050617cee90979695949392919063ffffffff16565b925082506173ce89888a888860017f00000000000000000000000000000000000000000000000000000000000000006005600050617cee90979695949392919063ffffffff16565b91508150821561744f576174118a7f00000000000000000000000000000000000000000000000000000000000000006006600050617f6c9092919063ffffffff16565b61744e8a887f0000000000000000000000000000000000000000000000000000000000000000846007600050617ff790949392919063ffffffff16565b5b81156174cc5761748e897f00000000000000000000000000000000000000000000000000000000000000006006600050617f6c9092919063ffffffff16565b6174cb89887f0000000000000000000000000000000000000000000000000000000000000000846007600050617ff790949392919063ffffffff16565b5b505b600060006174f18b8b8a8989600560005061805f9095949392919063ffffffff16565b9150915061750c8983838a61815e909392919063ffffffff16565b600089600f0b12156175c757831561756f576175358b600560005061851490919063ffffffff16565b61756e8b7f000000000000000000000000000000000000000000000000000000000000000060076000506185919092919063ffffffff16565b5b82156175c65761758c8a600560005061851490919063ffffffff16565b6175c58a7f000000000000000000000000000000000000000000000000000000000000000060076000506185919092919063ffffffff16565b5b5b5050505050505b95945050505050565b6000600082600f0b1261760c576176076175fa8585856001616f7d63ffffffff16565b6150af909063ffffffff16565b617636565b6176326176258585856000036000616f7d63ffffffff16565b6150af909063ffffffff16565b6000035b905061763d565b9392505050565b6000600082600f0b12617679576176746176678585856001616e9263ffffffff16565b6150af909063ffffffff16565b6176a3565b61769f6176928585856000036000616e9263ffffffff16565b6150af909063ffffffff16565b6000035b90506176aa565b9392505050565b6000600060008763ffffffff1614156177e9576000898661ffff1661ffff811015156176d957fe5b90900160005b506040518060800160405290816000820160009054906101000a900463ffffffff1663ffffffff1663ffffffff1681526020016000820160049054906101000a900460060b60060b60060b815260200160008201600b9054906101000a900473ffffffffffffffffffffffffffffffffffffffff1673ffffffffffffffffffffffffffffffffffffffff1673ffffffffffffffffffffffffffffffffffffffff16815260200160008201601f9054906101000a900460ff16151515158152602001505090508863ffffffff16816000015163ffffffff161415156177d4576177cf818a898861724f63ffffffff16565b905080505b8060200151816040015192509250506178f756505b60008789039050600060006178098c8c858c8c8c8c6185ec63ffffffff16565b91509150617815618dfa565b826000015163ffffffff168463ffffffff1614156178375782905080506178dc565b816000015163ffffffff168463ffffffff1614156178595781905080506178db565b60008360000151836000015103905060008163ffffffff16856020015185602001510360060b81151561788857fe5b05905060008263ffffffff16866040015186604001510373ffffffffffffffffffffffffffffffffffffffff168115156178be57fe5b0490506178d38688848461724f63ffffffff16565b935083505050505b5b8060200151816040015195509550505050506178f756505050505b97509795505050505050565b60006000600061791985856171e563ffffffff16565b9150915060008660008460020b60020b81526020019081526020016000206000505490508160ff1681901c9350505050617951565050505b9392505050565b60006000828406118284040190505b92915050565b60008115617a4c57600073ffffffffffffffffffffffffffffffffffffffff73ffffffffffffffffffffffffffffffffffffffff168411156179de576179d9846c01000000000000000000000000876fffffffffffffffffffffffffffffffff1661513b63ffffffff16565b617a04565b846fffffffffffffffffffffffffffffffff16606060ff1685901b811515617a0257fe5b045b9050617a3f617a32828873ffffffffffffffffffffffffffffffffffffffff16615ed190919063ffffffff16565b6189cd909063ffffffff16565b915050617b295650617b28565b600073ffffffffffffffffffffffffffffffffffffffff73ffffffffffffffffffffffffffffffffffffffff16841115617ab557617ab0846c01000000000000000000000000876fffffffffffffffffffffffffffffffff1661656f63ffffffff16565b617adf565b617ade606060ff1685901b866fffffffffffffffffffffffffffffffff1661795863ffffffff16565b5b9050808673ffffffffffffffffffffffffffffffffffffffff16111515617b065760006000fd5b808673ffffffffffffffffffffffffffffffffffffffff1603915050617b2956505b5b949350505050565b60006000831415617b4457849050617ce6565b6000606060ff16856fffffffffffffffffffffffffffffffff16901b90508215617c425760008673ffffffffffffffffffffffffffffffffffffffff16858873ffffffffffffffffffffffffffffffffffffffff168702925082811515617ba757fe5b041415617bf157600081830190508281101515617bef57617be5838973ffffffffffffffffffffffffffffffffffffffff168361656f63ffffffff16565b9350505050617ce6565b505b617c3482617c29878a73ffffffffffffffffffffffffffffffffffffffff1686811515617c1a57fe5b04615ed190919063ffffffff16565b61795863ffffffff16565b92505050617ce65650617ce4565b60008673ffffffffffffffffffffffffffffffffffffffff16858873ffffffffffffffffffffffffffffffffffffffff168702925082811515617c8157fe5b04148015617c8e57508082115b1515617c9a5760006000fd5b60008183039050617cd8617ccb848a73ffffffffffffffffffffffffffffffffffffffff168461656f63ffffffff16565b6189cd909063ffffffff16565b9350505050617ce65650505b505b949350505050565b600060008960008a60020b60020b8152602001908152602001600020600050905060008160000160009054906101000a90046fffffffffffffffffffffffffffffffff1690506000617d46828a61533f63ffffffff16565b9050846fffffffffffffffffffffffffffffffff16816fffffffffffffffffffffffffffffffff1611151515617de7576040517f08c379a00000000000000000000000000000000000000000000000000000000081526004018080602001828103825260028152602001807f4c4f00000000000000000000000000000000000000000000000000000000000081526020015060200191505060405180910390fd5b6000826fffffffffffffffffffffffffffffffff161415156000826fffffffffffffffffffffffffffffffff161415151415935083506000826fffffffffffffffffffffffffffffffff161415617e65578960020b8b60020b131515617e6457878360010160005081909090555086836002016000508190909055505b5b808360000160006101000a8154816fffffffffffffffffffffffffffffffff02191690836fffffffffffffffffffffffffffffffff16021790555085617ee457617edf617ed28a600f0b8560000160109054906101000a9004600f0b600f0b61511390919063ffffffff16565b6161b3909063ffffffff16565b617f1f565b617f1e617f118a600f0b8560000160109054906101000a9004600f0b600f0b6150eb90919063ffffffff16565b6161b3909063ffffffff16565b5b8360000160106101000a8154816fffffffffffffffffffffffffffffffff0219169083600f0b6fffffffffffffffffffffffffffffffff1602179055505050505b98975050505050505050565b60008160020b8360020b811515617f7f57fe5b0760020b141515617f905760006000fd5b60006000617fb48360020b8560020b811515617fa857fe5b05616bee63ffffffff16565b9150915060008160ff166001901b9050808660008560010b60010b815260200190815260200160002060008282825054189250508190909055505050505b505050565b8260020b8460020b131515618057576000600061801a86856171e563ffffffff16565b915091508060ff168363ffffffff16901b8760008460020b60020b8152602001908152602001600020600082828250541792505081909090555050505b5b5050505050565b6000600060008860008960020b60020b8152602001908152602001600020600050905060008960008960020b60020b81526020019081526020016000206000509050600060008a60020b8960020b1215156180d1578360010160005054915081508360020160005054905080506180ee565b836001016000505488039150815083600201600050548703905080505b600060008b60020b8b60020b121561811d5784600101600050549150815084600201600050549050805061813a565b84600101600050548a039150815084600201600050548903905080505b81848b03039750875080838a0303965086505050505050505b965096945050505050565b6000846040518060a00160405290816000820160009054906101000a90046fffffffffffffffffffffffffffffffff166fffffffffffffffffffffffffffffffff166fffffffffffffffffffffffffffffffff16815260200160018201600050548152602001600282016000505481526020016003820160009054906101000a90046fffffffffffffffffffffffffffffffff166fffffffffffffffffffffffffffffffff166fffffffffffffffffffffffffffffffff1681526020016003820160109054906101000a90046fffffffffffffffffffffffffffffffff166fffffffffffffffffffffffffffffffff166fffffffffffffffffffffffffffffffff168152602001505090506000600085600f0b141561831657600082600001516fffffffffffffffffffffffffffffffff16111515618308576040517f08c379a00000000000000000000000000000000000000000000000000000000081526004018080602001828103825260028152602001807f4e5000000000000000000000000000000000000000000000000000000000000081526020015060200191505060405180910390fd5b81600001519050805061832f565b61832a82600001518661533f63ffffffff16565b905080505b600061836f8360200151860384600001516fffffffffffffffffffffffffffffffff1670010000000000000000000000000000000061513b63ffffffff16565b905060006183b18460400151860385600001516fffffffffffffffffffffffffffffffff1670010000000000000000000000000000000061513b63ffffffff16565b9050600087600f0b1415156183fc57828860000160006101000a8154816fffffffffffffffffffffffffffffffff02191690836fffffffffffffffffffffffffffffffff1602179055505b858860010160005081909090555084886002016000508190909055506000826fffffffffffffffffffffffffffffffff16118061844b57506000816fffffffffffffffffffffffffffffffff16115b1561850957818860030160008282829054906101000a90046fffffffffffffffffffffffffffffffff160192506101000a8154816fffffffffffffffffffffffffffffffff02191690836fffffffffffffffffffffffffffffffff160217905550808860030160108282829054906101000a90046fffffffffffffffffffffffffffffffff160192506101000a8154816fffffffffffffffffffffffffffffffff02191690836fffffffffffffffffffffffffffffffff1602179055505b505050505b50505050565b8160008260020b60020b815260200190815260200160002060006000820160006101000a8154906fffffffffffffffffffffffffffffffff02191690556000820160106101000a8154906fffffffffffffffffffffffffffffffff02191690556001820160005060009055600282016000506000905550505b5050565b600060006185a584846171e563ffffffff16565b915091508060ff1663ffffffff63ffffffff16901b198560008460020b60020b8152602001908152602001600020600082828250541692505081909090555050505b505050565b6185f4618dfa565b6185fc618dfa565b888561ffff1661ffff8110151561860f57fe5b90900160005b506040518060800160405290816000820160009054906101000a900463ffffffff1663ffffffff1663ffffffff1681526020016000820160049054906101000a900460060b60060b60060b815260200160008201600b9054906101000a900473ffffffffffffffffffffffffffffffffffffffff1673ffffffffffffffffffffffffffffffffffffffff1673ffffffffffffffffffffffffffffffffffffffff16815260200160008201601f9054906101000a900460ff161515151581526020015050915081506186f1888360000151896189fd63ffffffff16565b1561873a578663ffffffff16826000015163ffffffff16141561871d578181915091506189c156618739565b816187308389898861724f63ffffffff16565b915091506189c1565b5b888361ffff166001870161ffff1681151561875157fe5b0661ffff1661ffff8110151561876357fe5b90900160005b506040518060800160405290816000820160009054906101000a900463ffffffff1663ffffffff1663ffffffff1681526020016000820160049054906101000a900460060b60060b60060b815260200160008201600b9054906101000a900473ffffffffffffffffffffffffffffffffffffffff1673ffffffffffffffffffffffffffffffffffffffff1673ffffffffffffffffffffffffffffffffffffffff16815260200160008201601f9054906101000a900460ff16151515158152602001505091508150816060015115156189195788600061ffff8110151561884b57fe5b90900160005b506040518060800160405290816000820160009054906101000a900463ffffffff1663ffffffff1663ffffffff1681526020016000820160049054906101000a900460060b60060b60060b815260200160008201600b9054906101000a900473ffffffffffffffffffffffffffffffffffffffff1673ffffffffffffffffffffffffffffffffffffffff1673ffffffffffffffffffffffffffffffffffffffff16815260200160008201601f9054906101000a900460ff161515151581526020015050915081505b61892e888360000151896189fd63ffffffff16565b15156189a5576040517f08c379a00000000000000000000000000000000000000000000000000000000081526004018080602001828103825260038152602001807f4f4c44000000000000000000000000000000000000000000000000000000000081526020015060200191505060405180910390fd5b6189b88989898887618acb63ffffffff16565b915091506189c1565b97509795505050505050565b6000818291508173ffffffffffffffffffffffffffffffffffffffff161415156189f75760006000fd5b5b919050565b60008363ffffffff168363ffffffff1611158015618a2757508363ffffffff168263ffffffff1611155b15618a43578163ffffffff168363ffffffff1611159050618ac4565b60008463ffffffff168463ffffffff1611618a6b576401000000008463ffffffff1601618a73565b8363ffffffff165b64ffffffffff16905060008563ffffffff168463ffffffff1611618aa4576401000000008463ffffffff1601618aac565b8363ffffffff165b64ffffffffff1690508082111592505050618ac45650505b9392505050565b618ad3618dfa565b618adb618dfa565b60008361ffff166001860161ffff16811515618af357fe5b0661ffff169050600060018561ffff16830103905060005b600115618d7b576002828401811515618b2057fe5b0490508050898661ffff1682811515618b3557fe5b0661ffff81101515618b4357fe5b90900160005b506040518060800160405290816000820160009054906101000a900463ffffffff1663ffffffff1663ffffffff1681526020016000820160049054906101000a900460060b60060b60060b815260200160008201600b9054906101000a900473ffffffffffffffffffffffffffffffffffffffff1673ffffffffffffffffffffffffffffffffffffffff1673ffffffffffffffffffffffffffffffffffffffff16815260200160008201601f9054906101000a900460ff1615151515815260200150509450845084606001511515618c28576001810192508250618b0b565b898661ffff1660018301811515618c3b57fe5b0661ffff81101515618c4957fe5b90900160005b506040518060800160405290816000820160009054906101000a900463ffffffff1663ffffffff1663ffffffff1681526020016000820160049054906101000a900460060b60060b60060b815260200160008201600b9054906101000a900473ffffffffffffffffffffffffffffffffffffffff1673ffffffffffffffffffffffffffffffffffffffff1673ffffffffffffffffffffffffffffffffffffffff16815260200160008201601f9054906101000a900460ff161515151581526020015050935083506000618d2d8a87600001518b6189fd63ffffffff16565b9050808015618d4d5750618d4c8a8a87600001516189fd63ffffffff16565b5b15618d585750618d7b565b801515618d6c576001820392508250618d75565b60018201935083505b50618b0b565b5050505b9550959350505050565b6040518060e00160405280600073ffffffffffffffffffffffffffffffffffffffff168152602001600060020b8152602001600015158152602001600073ffffffffffffffffffffffffffffffffffffffff1681526020016000815260200160008152602001600081526020015090565b6040518060800160405280600063ffffffff168152602001600060060b8152602001600073ffffffffffffffffffffffffffffffffffffffff168152602001600015158152602001509056fea2646970667358221220b33a529baaf9a80d4ec3e12645d171384ab654e29b3fc1d1ebc08991e93f712f64736f6c63430007060033",
  "linkReferences": {},
  "deployedLinkReferences": {}
}