{
  "_format": "hh-sol-artifact-1",
  "contractName": "Governor",
  "sourceName": "contracts/core/governance/Governor.sol",
  "abi": [
    {
      "inputs": [
        {
          "internalType": "contract IAccounting",
          "name": "_accounting",
          "type": "address"
        },
        {
          "internalType": "contract IHue",
          "name": "_hue",
          "type": "address"
        },
        {
          "internalType": "contract IPositionNFT",
          "name": "_hueNFT",
          "type": "address"
        },
        {
          "internalType": "contract ILendHue",
          "name": "_lendHue",
          "type": "address"
        },
        {
          "internalType": "contract IEnforcedDecentralization",
          "name": "_enforcedDecentralization",
          "type": "address"
        },
        {
          "internalType": "address",
          "name": "_timelock",
          "type": "address"
        }
      ],
      "stateMutability": "nonpayable",
      "type": "constructor"
    },
    {
      "anonymous": false,
      "inputs": [
        {
          "indexed": true,
          "internalType": "string",
          "name": "contractName",
          "type": "string"
        },
        {
          "indexed": true,
          "internalType": "address",
          "name": "contractAddress",
          "type": "address"
        }
      ],
      "name": "ContractUpgraded",
      "type": "event"
    },
    {
      "anonymous": false,
      "inputs": [
        {
          "indexed": true,
          "internalType": "address",
          "name": "newGovernor",
          "type": "address"
        }
      ],
      "name": "ProtocolUpgraded",
      "type": "event"
    },
    {
      "anonymous": false,
      "inputs": [],
      "name": "ShutdownExecuted",
      "type": "event"
    },
    {
      "anonymous": false,
      "inputs": [
        {
          "indexed": true,
          "internalType": "address",
          "name": "locker",
          "type": "address"
        },
        {
          "indexed": false,
          "internalType": "uint256",
          "name": "count",
          "type": "uint256"
        }
      ],
      "name": "ShutdownTokensLocked",
      "type": "event"
    },
    {
      "anonymous": false,
      "inputs": [
        {
          "indexed": true,
          "internalType": "address",
          "name": "locker",
          "type": "address"
        },
        {
          "indexed": false,
          "internalType": "uint256",
          "name": "count",
          "type": "uint256"
        }
      ],
      "name": "ShutdownTokensUnlocked",
      "type": "event"
    },
    {
      "inputs": [],
      "name": "EMERGENCY_SHUTDOWN_THRESHOLD",
      "outputs": [
        {
          "internalType": "uint256",
          "name": "",
          "type": "uint256"
        }
      ],
      "stateMutability": "view",
      "type": "function"
    },
    {
      "inputs": [],
      "name": "accounting",
      "outputs": [
        {
          "internalType": "contract IAccounting",
          "name": "",
          "type": "address"
        }
      ],
      "stateMutability": "view",
      "type": "function"
    },
    {
      "inputs": [],
      "name": "auctions",
      "outputs": [
        {
          "internalType": "contract IAuctions",
          "name": "",
          "type": "address"
        }
      ],
      "stateMutability": "view",
      "type": "function"
    },
    {
      "inputs": [],
      "name": "borrowRewardsPortion",
      "outputs": [
        {
          "internalType": "uint64",
          "name": "",
          "type": "uint64"
        }
      ],
      "stateMutability": "view",
      "type": "function"
    },
    {
      "inputs": [],
      "name": "currentDailyDebtRewardCount",
      "outputs": [
        {
          "internalType": "uint256",
          "name": "",
          "type": "uint256"
        }
      ],
      "stateMutability": "view",
      "type": "function"
    },
    {
      "inputs": [],
      "name": "currentDailyLiquidityRewardCount",
      "outputs": [
        {
          "internalType": "uint256",
          "name": "",
          "type": "uint256"
        }
      ],
      "stateMutability": "view",
      "type": "function"
    },
    {
      "inputs": [],
      "name": "currentPeriod",
      "outputs": [
        {
          "internalType": "uint64",
          "name": "period",
          "type": "uint64"
        }
      ],
      "stateMutability": "view",
      "type": "function"
    },
    {
      "inputs": [],
      "name": "currentPhase",
      "outputs": [
        {
          "internalType": "uint8",
          "name": "",
          "type": "uint8"
        }
      ],
      "stateMutability": "view",
      "type": "function"
    },
    {
      "inputs": [],
      "name": "deployer",
      "outputs": [
        {
          "internalType": "address",
          "name": "",
          "type": "address"
        }
      ],
      "stateMutability": "view",
      "type": "function"
    },
    {
      "inputs": [],
      "name": "emergencyShutdownThresholdMet",
      "outputs": [
        {
          "internalType": "bool",
          "name": "",
          "type": "bool"
        }
      ],
      "stateMutability": "view",
      "type": "function"
    },
    {
      "inputs": [
        {
          "internalType": "address",
          "name": "",
          "type": "address"
        }
      ],
      "name": "emergencyShutdownTokensLocked",
      "outputs": [
        {
          "internalType": "uint256",
          "name": "",
          "type": "uint256"
        }
      ],
      "stateMutability": "view",
      "type": "function"
    },
    {
      "inputs": [],
      "name": "enforcedDecentralization",
      "outputs": [
        {
          "internalType": "contract IEnforcedDecentralization",
          "name": "",
          "type": "address"
        }
      ],
      "stateMutability": "view",
      "type": "function"
    },
    {
      "inputs": [
        {
          "internalType": "address",
          "name": "target",
          "type": "address"
        },
        {
          "internalType": "string",
          "name": "signature",
          "type": "string"
        },
        {
          "internalType": "bytes",
          "name": "data",
          "type": "bytes"
        }
      ],
      "name": "execute",
      "outputs": [
        {
          "internalType": "bool",
          "name": "success",
          "type": "bool"
        },
        {
          "internalType": "bytes",
          "name": "returnData",
          "type": "bytes"
        }
      ],
      "stateMutability": "nonpayable",
      "type": "function"
    },
    {
      "inputs": [],
      "name": "executeEmergencyShutdown",
      "outputs": [],
      "stateMutability": "nonpayable",
      "type": "function"
    },
    {
      "inputs": [],
      "name": "executeShutdown",
      "outputs": [],
      "stateMutability": "nonpayable",
      "type": "function"
    },
    {
      "inputs": [],
      "name": "firstPeriod",
      "outputs": [
        {
          "internalType": "uint64",
          "name": "",
          "type": "uint64"
        }
      ],
      "stateMutability": "view",
      "type": "function"
    },
    {
      "inputs": [],
      "name": "hue",
      "outputs": [
        {
          "internalType": "contract IHue",
          "name": "",
          "type": "address"
        }
      ],
      "stateMutability": "view",
      "type": "function"
    },
    {
      "inputs": [],
      "name": "huePositionNFT",
      "outputs": [
        {
          "internalType": "contract IPositionNFT",
          "name": "",
          "type": "address"
        }
      ],
      "stateMutability": "view",
      "type": "function"
    },
    {
      "inputs": [
        {
          "internalType": "contract IAuctions",
          "name": "_auctions",
          "type": "address"
        },
        {
          "internalType": "contract ITCP",
          "name": "_tcp",
          "type": "address"
        },
        {
          "internalType": "contract ILiquidations",
          "name": "_liquidations",
          "type": "address"
        },
        {
          "internalType": "contract IMarket",
          "name": "_market",
          "type": "address"
        },
        {
          "internalType": "contract IRates",
          "name": "_rates",
          "type": "address"
        },
        {
          "internalType": "contract IPrices",
          "name": "_prices",
          "type": "address"
        },
        {
          "internalType": "contract IProtocolLock",
          "name": "_protocolLock",
          "type": "address"
        },
        {
          "internalType": "contract IRewards",
          "name": "_rewards",
          "type": "address"
        },
        {
          "internalType": "contract ISettlement",
          "name": "_settlement",
          "type": "address"
        }
      ],
      "name": "initialize",
      "outputs": [],
      "stateMutability": "nonpayable",
      "type": "function"
    },
    {
      "inputs": [],
      "name": "isShutdown",
      "outputs": [
        {
          "internalType": "bool",
          "name": "",
          "type": "bool"
        }
      ],
      "stateMutability": "view",
      "type": "function"
    },
    {
      "inputs": [],
      "name": "lendHue",
      "outputs": [
        {
          "internalType": "contract ILendHue",
          "name": "",
          "type": "address"
        }
      ],
      "stateMutability": "view",
      "type": "function"
    },
    {
      "inputs": [],
      "name": "liquidations",
      "outputs": [
        {
          "internalType": "contract ILiquidations",
          "name": "",
          "type": "address"
        }
      ],
      "stateMutability": "view",
      "type": "function"
    },
    {
      "inputs": [
        {
          "internalType": "uint256",
          "name": "count",
          "type": "uint256"
        }
      ],
      "name": "lockTokensForEmergencyShutdown",
      "outputs": [],
      "stateMutability": "nonpayable",
      "type": "function"
    },
    {
      "inputs": [],
      "name": "market",
      "outputs": [
        {
          "internalType": "contract IMarket",
          "name": "",
          "type": "address"
        }
      ],
      "stateMutability": "view",
      "type": "function"
    },
    {
      "inputs": [],
      "name": "mintCapsUnset",
      "outputs": [
        {
          "internalType": "bool",
          "name": "",
          "type": "bool"
        }
      ],
      "stateMutability": "view",
      "type": "function"
    },
    {
      "inputs": [
        {
          "internalType": "address",
          "name": "to",
          "type": "address"
        },
        {
          "internalType": "uint256",
          "name": "count",
          "type": "uint256"
        }
      ],
      "name": "mintIncentive",
      "outputs": [],
      "stateMutability": "nonpayable",
      "type": "function"
    },
    {
      "inputs": [
        {
          "internalType": "address",
          "name": "to",
          "type": "address"
        },
        {
          "internalType": "uint256",
          "name": "count",
          "type": "uint256"
        }
      ],
      "name": "mintTCP",
      "outputs": [],
      "stateMutability": "nonpayable",
      "type": "function"
    },
    {
      "inputs": [],
      "name": "periodLength",
      "outputs": [
        {
          "internalType": "uint64",
          "name": "",
          "type": "uint64"
        }
      ],
      "stateMutability": "view",
      "type": "function"
    },
    {
      "inputs": [],
      "name": "prices",
      "outputs": [
        {
          "internalType": "contract IPrices",
          "name": "",
          "type": "address"
        }
      ],
      "stateMutability": "view",
      "type": "function"
    },
    {
      "inputs": [],
      "name": "protocolLock",
      "outputs": [
        {
          "internalType": "contract IProtocolLock",
          "name": "",
          "type": "address"
        }
      ],
      "stateMutability": "view",
      "type": "function"
    },
    {
      "inputs": [],
      "name": "rates",
      "outputs": [
        {
          "internalType": "contract IRates",
          "name": "",
          "type": "address"
        }
      ],
      "stateMutability": "view",
      "type": "function"
    },
    {
      "inputs": [
        {
          "internalType": "address",
          "name": "caller",
          "type": "address"
        }
      ],
      "name": "requireDebtServicesAccess",
      "outputs": [],
      "stateMutability": "view",
      "type": "function"
    },
    {
      "inputs": [
        {
          "internalType": "address",
          "name": "caller",
          "type": "address"
        }
      ],
      "name": "requireHueReservesBurnAccess",
      "outputs": [],
      "stateMutability": "view",
      "type": "function"
    },
    {
      "inputs": [
        {
          "internalType": "address",
          "name": "caller",
          "type": "address"
        }
      ],
      "name": "requireUpdatePositionAccess",
      "outputs": [],
      "stateMutability": "view",
      "type": "function"
    },
    {
      "inputs": [
        {
          "internalType": "address",
          "name": "target",
          "type": "address"
        },
        {
          "internalType": "string",
          "name": "signature",
          "type": "string"
        }
      ],
      "name": "requireValidAction",
      "outputs": [],
      "stateMutability": "view",
      "type": "function"
    },
    {
      "inputs": [],
      "name": "rewards",
      "outputs": [
        {
          "internalType": "contract IRewards",
          "name": "",
          "type": "address"
        }
      ],
      "stateMutability": "view",
      "type": "function"
    },
    {
      "inputs": [
        {
          "internalType": "uint64",
          "name": "portion",
          "type": "uint64"
        }
      ],
      "name": "setBorrowRewardsPortion",
      "outputs": [],
      "stateMutability": "nonpayable",
      "type": "function"
    },
    {
      "inputs": [
        {
          "internalType": "uint64",
          "name": "phaseOneStartTime",
          "type": "uint64"
        }
      ],
      "name": "setPhaseOneStartTime",
      "outputs": [],
      "stateMutability": "nonpayable",
      "type": "function"
    },
    {
      "inputs": [
        {
          "internalType": "address[]",
          "name": "tokenIncentiveMinters",
          "type": "address[]"
        },
        {
          "internalType": "uint256[]",
          "name": "caps",
          "type": "uint256[]"
        }
      ],
      "name": "setTokenIncentiveCaps",
      "outputs": [],
      "stateMutability": "nonpayable",
      "type": "function"
    },
    {
      "inputs": [],
      "name": "settlement",
      "outputs": [
        {
          "internalType": "contract ISettlement",
          "name": "",
          "type": "address"
        }
      ],
      "stateMutability": "view",
      "type": "function"
    },
    {
      "inputs": [],
      "name": "shutdownTime",
      "outputs": [
        {
          "internalType": "uint64",
          "name": "",
          "type": "uint64"
        }
      ],
      "stateMutability": "view",
      "type": "function"
    },
    {
      "inputs": [],
      "name": "tcp",
      "outputs": [
        {
          "internalType": "contract ITCP",
          "name": "",
          "type": "address"
        }
      ],
      "stateMutability": "view",
      "type": "function"
    },
    {
      "inputs": [],
      "name": "timelock",
      "outputs": [
        {
          "internalType": "address",
          "name": "",
          "type": "address"
        }
      ],
      "stateMutability": "view",
      "type": "function"
    },
    {
      "inputs": [
        {
          "internalType": "address",
          "name": "",
          "type": "address"
        }
      ],
      "name": "tokenIncentiveMintCaps",
      "outputs": [
        {
          "internalType": "uint256",
          "name": "",
          "type": "uint256"
        }
      ],
      "stateMutability": "view",
      "type": "function"
    },
    {
      "inputs": [],
      "name": "unlockTokensForEmergencyShutdown",
      "outputs": [],
      "stateMutability": "nonpayable",
      "type": "function"
    },
    {
      "inputs": [
        {
          "internalType": "contract IAuctions",
          "name": "_auctions",
          "type": "address"
        }
      ],
      "name": "upgradeAuctions",
      "outputs": [],
      "stateMutability": "nonpayable",
      "type": "function"
    },
    {
      "inputs": [
        {
          "internalType": "contract ILiquidations",
          "name": "_liquidations",
          "type": "address"
        }
      ],
      "name": "upgradeLiquidations",
      "outputs": [],
      "stateMutability": "nonpayable",
      "type": "function"
    },
    {
      "inputs": [
        {
          "internalType": "contract IMarket",
          "name": "_market",
          "type": "address"
        }
      ],
      "name": "upgradeMarket",
      "outputs": [],
      "stateMutability": "nonpayable",
      "type": "function"
    },
    {
      "inputs": [
        {
          "internalType": "contract IPrices",
          "name": "_prices",
          "type": "address"
        }
      ],
      "name": "upgradePrices",
      "outputs": [],
      "stateMutability": "nonpayable",
      "type": "function"
    },
    {
      "inputs": [
        {
          "internalType": "address",
          "name": "newGovernor",
          "type": "address"
        }
      ],
      "name": "upgradeProtocol",
      "outputs": [],
      "stateMutability": "nonpayable",
      "type": "function"
    },
    {
      "inputs": [
        {
          "internalType": "contract IRates",
          "name": "_rates",
          "type": "address"
        }
      ],
      "name": "upgradeRates",
      "outputs": [],
      "stateMutability": "nonpayable",
      "type": "function"
    },
    {
      "inputs": [
        {
          "internalType": "contract IRewards",
          "name": "_rewards",
          "type": "address"
        }
      ],
      "name": "upgradeRewards",
      "outputs": [],
      "stateMutability": "nonpayable",
      "type": "function"
    },
    {
      "inputs": [
        {
          "internalType": "contract ISettlement",
          "name": "_settlement",
          "type": "address"
        }
      ],
      "name": "upgradeSettlement",
      "outputs": [],
      "stateMutability": "nonpayable",
      "type": "function"
    },
    {
      "inputs": [
        {
          "internalType": "bytes4",
          "name": "",
          "type": "bytes4"
        }
      ],
      "name": "validUpdate",
      "outputs": [
        {
          "internalType": "bool",
          "name": "",
          "type": "bool"
        }
      ],
      "stateMutability": "view",
      "type": "function"
    }
  ],
  "bytecode": "0x60c06040526706f05b59d3b20000600160006101000a81548167ffffffffffffffff021916908367ffffffffffffffff1602179055506001601560146101000a81548160ff0219169083151502179055507fffffffffffffffffffffffffffffffffffffffffffffffffffffffffffffffff601660005090905560016017600050909055348015620000915760006000fd5b5060405162006c0b38038062006c0b8339818101604052810190620000b79190620003d3565b5b5b620151805b60018167ffffffffffffffff16620000db6200031860201b60201c565b67ffffffffffffffff16811515620000ef57fe5b040367ffffffffffffffff1660a08167ffffffffffffffff1660c01b815260080150508067ffffffffffffffff1660808167ffffffffffffffff1660c01b815260080150505b50600160006000508190909055505b33601560006101000a81548173ffffffffffffffffffffffffffffffffffffffff021916908373ffffffffffffffffffffffffffffffffffffffff16021790555085600460006101000a81548173ffffffffffffffffffffffffffffffffffffffff021916908373ffffffffffffffffffffffffffffffffffffffff16021790555084600860006101000a81548173ffffffffffffffffffffffffffffffffffffffff021916908373ffffffffffffffffffffffffffffffffffffffff16021790555083600960006101000a81548173ffffffffffffffffffffffffffffffffffffffff021916908373ffffffffffffffffffffffffffffffffffffffff16021790555082600b60006101000a81548173ffffffffffffffffffffffffffffffffffffffff021916908373ffffffffffffffffffffffffffffffffffffffff16021790555081600a60006101000a81548173ffffffffffffffffffffffffffffffffffffffff021916908373ffffffffffffffffffffffffffffffffffffffff16021790555080601360006101000a81548173ffffffffffffffffffffffffffffffffffffffff021916908373ffffffffffffffffffffffffffffffffffffffff1602179055505b5050505050506200048d565b600062000332426200033a60201b62004c4b17909060201c565b905080505b90565b60006801000000000000000082101515620003c0576040517f08c379a00000000000000000000000000000000000000000000000000000000081526004018080602001828103825260118152602001807f6d6f7265207468616e203634206269747300000000000000000000000000000081526020015060200191505060405180910390fd5b819050620003c9565b919050566200048c565b60006000600060006000600060c08789031215620003ef578182fd5b8651620003fc816200046f565b80965050602087015162000410816200046f565b80955050604087015162000424816200046f565b80945050606087015162000438816200046f565b8093505060808701516200044c816200046f565b8092505060a087015162000460816200046f565b809150505b9295509295509295565b6001600160a01b03811681141515620004885760006000fd5b5b50565b5b60805160c01c60a05160c01c616736620004d560003980612f4c5280614ce1528061547f528061550b5250806131fe5280614d0252806154a0528061554452506167366000f3fe60806040523480156100115760006000fd5b50600436106103675760003560e01c80639a371c84116101c9578063d0d8ab9a11610105578063d714b88a116100a3578063f5e95acb1161007d578063f5e95acb14610948578063f6fbc19214610964578063fe4772771461096e578063ff26df721461098c57610367565b8063d714b88a146108f2578063e97a99b614610910578063ef7a7cfa1461092c57610367565b8063d3419bf3116100df578063d3419bf31461087c578063d478b0871461089a578063d5f39488146108b8578063d683080f146108d657610367565b8063d0d8ab9a14610836578063d2ca211514610840578063d33219b41461085e57610367565b8063b4b6882b11610172578063b971dc051161014c578063b971dc05146107c0578063bf86d690146107dc578063c4e3a63b146107fa578063ce4996821461081857610367565b8063b4b6882b1461076a578063b6b0ea3814610786578063b8188c81146107a457610367565b8063a1c1f90d116101a3578063a1c1f90d14610714578063a43c36af14610730578063a89f51ae1461074c57610367565b80639a371c84146106a85780639d35b3f2146106c65780639ec5a894146106f657610367565b806351160630116102a357806383208f531161024157806388a4bfb71161021b57806388a4bfb7146106365780638f40b82f146106525780639622cd8f1461066e5780639624e83e1461068a57610367565b806383208f53146105de57806383a8641e146105fa57806385aa61031461061857610367565b80637c114fed1161027d5780637c114fed1461056c57806380304d091461058857806380b5c665146105a457806380f55605146105c057610367565b806351160630146105145780635856908114610532578063734875a81461055057610367565b806332374174116103105780633f88b0c5116102ea5780633f88b0c51461048c57806343f48fbd146104bc5780634b414e32146104da5780634cd7a315146104f857610367565b8063323741741461041f57806333daf5d41461043d57806336fc02f41461046e57610367565b8063113cf1ab11610341578063113cf1ab146103c7578063232948ea146103f75780632cae02691461040157610367565b8063055ad42e1461036d578063060406181461038b5780630a86f109146103a957610367565b60006000fd5b6103756109a8565b604051610382919061668c565b60405180910390f35b610393610a56565b6040516103a09190616670565b60405180910390f35b6103b1610a6e565b6040516103be9190616670565b60405180910390f35b6103e160048036038101906103dc9190615c0d565b610a88565b6040516103ee91906161e1565b60405180910390f35b6103ff610aad565b005b610409610b98565b60405161041691906162ba565b60405180910390f35b610427610bbe565b6040516104349190616292565b60405180910390f35b61045760048036038101906104529190615abe565b610be4565b6040516104659291906161f5565b60405180910390f35b610476610e29565b6040516104839190616422565b60405180910390f35b6104a660048036038101906104a19190615a11565b610e4f565b6040516104b3919061665e565b60405180910390f35b6104c4610e6a565b6040516104d191906163aa565b60405180910390f35b6104e2610e90565b6040516104ef919061626a565b60405180910390f35b610512600480360381019061050d9190615b65565b610eb6565b005b61051c61108b565b60405161052991906163fa565b60405180910390f35b61053a6110b1565b6040516105479190616670565b60405180910390f35b61056a60048036038101906105659190615a11565b6110cb565b005b61058660048036038101906105819190615a11565b611186565b005b6105a2600480360381019061059d9190615ded565b611299565b005b6105be60048036038101906105b99190615a11565b6116c8565b005b6105c86118dd565b6040516105d5919061630a565b60405180910390f35b6105f860048036038101906105f39190615d9f565b611903565b005b610602611c81565b60405161060f919061665e565b60405180910390f35b610620611ccd565b60405161062d9190616242565b60405180910390f35b610650600480360381019061064b9190615e3b565b611cf3565b005b61066c60048036038101906106679190615e14565b611f33565b005b61068860048036038101906106839190615a11565b6122b1565b005b61069261236c565b60405161069f919061621a565b60405180910390f35b6106b0612392565b6040516106bd91906162e2565b60405180910390f35b6106e060048036038101906106db9190615a11565b6123b8565b6040516106ed919061665e565b60405180910390f35b6106fe6123d3565b60405161070b91906163d2565b60405180910390f35b61072e60048036038101906107299190615dc6565b6123f9565b005b61074a60048036038101906107459190615a38565b612777565b005b61075461280e565b6040516107619190616332565b60405180910390f35b610784600480360381019061077f9190615e73565b612834565b005b61078e61295c565b60405161079b91906161e1565b60405180910390f35b6107be60048036038101906107b99190615e73565b61296f565b005b6107da60048036038101906107d59190615d51565b612b9c565b005b6107e4612f1a565b6040516107f191906161e1565b60405180910390f35b610802612f4a565b60405161080f9190616670565b60405180910390f35b610820612f6e565b60405161082d91906161e1565b60405180910390f35b61083e613106565b005b6108486131fc565b6040516108559190616670565b60405180910390f35b610866613220565b60405161087391906160e4565b60405180910390f35b610884613246565b604051610891919061635a565b60405180910390f35b6108a261326c565b6040516108af9190616382565b60405180910390f35b6108c0613292565b6040516108cd91906160e4565b60405180910390f35b6108f060048036038101906108eb9190615b96565b6132b8565b005b6108fa61343e565b604051610907919061665e565b60405180910390f35b61092a60048036038101906109259190615c5a565b6134a4565b005b61094660048036038101906109419190615b65565b6138de565b005b610962600480360381019061095d9190615c81565b613b77565b005b61096c61468d565b005b6109766148c1565b604051610983919061665e565b60405180910390f35b6109a660048036038101906109a19190615d78565b6148cd565b005b6000600a60009054906101000a900473ffffffffffffffffffffffffffffffffffffffff1673ffffffffffffffffffffffffffffffffffffffff1663055ad42e6040518163ffffffff1660e01b815260040160206040518083038186803b158015610a135760006000fd5b505afa158015610a28573d600060003e3d6000fd5b505050506040513d601f19601f82011682018060405250810190610a4c9190615ea8565b9050610a53565b90565b6000610a66614cdd63ffffffff16565b905080505b90565b600160009054906101000a900467ffffffffffffffff1681565b601460005060205280600052604060002060009150909054906101000a900460ff1681565b600260006000505414151515610b2e576040517f08c379a000000000000000000000000000000000000000000000000000000000815260040180806020018281038252601f8152602001807f5265656e7472616e637947756172643a207265656e7472616e742063616c6c0081526020015060200191505060405180910390fd5b60026000600050819090905550610b783073ffffffffffffffffffffffffffffffffffffffff163373ffffffffffffffffffffffffffffffffffffffff1614614d5663ffffffff16565b610b86614d9c63ffffffff16565b5b5b600160006000508190909055505b565b600b60009054906101000a900473ffffffffffffffffffffffffffffffffffffffff1681565b600860009054906101000a900473ffffffffffffffffffffffffffffffffffffffff1681565b600060606001601760005054141515610c32576040517f08c379a0000000000000000000000000000000000000000000000000000000008152600401610c299061661f565b60405180910390fd5b60006017600050819090905550610c9e601360009054906101000a900473ffffffffffffffffffffffffffffffffffffffff1673ffffffffffffffffffffffffffffffffffffffff163373ffffffffffffffffffffffffffffffffffffffff1614614d5663ffffffff16565b600a60009054906101000a900473ffffffffffffffffffffffffffffffffffffffff1673ffffffffffffffffffffffffffffffffffffffff1663a43c36af86866040518363ffffffff1660e01b8152600401610cfb929190616179565b60006040518083038186803b158015610d145760006000fd5b505afa158015610d29573d600060003e3d6000fd5b505050508473ffffffffffffffffffffffffffffffffffffffff16610d5385614f6e63ffffffff16565b84604051602001610d65929190615f23565b604051602081830303815290604052604051610d819190615f6e565b6000604051808303816000865af19150503d8060008114610dbe576040519150601f19603f3d011682016040523d82523d6000602084013e610dc3565b606091505b5080925081935050508181901515610e11576040517f08c379a0000000000000000000000000000000000000000000000000000000008152600401610e08919061644a565b60405180910390fd5b505b600160176000508190909055505b935093915050565b600760009054906101000a900473ffffffffffffffffffffffffffffffffffffffff1681565b60026000506020528060005260406000206000915090505481565b601060009054906101000a900473ffffffffffffffffffffffffffffffffffffffff1681565b600a60009054906101000a900473ffffffffffffffffffffffffffffffffffffffff1681565b600260006000505414151515610f37576040517f08c379a000000000000000000000000000000000000000000000000000000000815260040180806020018281038252601f8152602001807f5265656e7472616e637947756172643a207265656e7472616e742063616c6c0081526020015060200191505060405180910390fd5b60026000600050819090905550610f9c81600360005060003373ffffffffffffffffffffffffffffffffffffffff1673ffffffffffffffffffffffffffffffffffffffff16815260200190815260200160002060005054614f8490919063ffffffff16565b600360005060003373ffffffffffffffffffffffffffffffffffffffff1673ffffffffffffffffffffffffffffffffffffffff168152602001908152602001600020600050819090905550600760009054906101000a900473ffffffffffffffffffffffffffffffffffffffff1673ffffffffffffffffffffffffffffffffffffffff1663449a52f883836040518363ffffffff1660e01b81526004016110449291906161b2565b600060405180830381600087803b15801561105f5760006000fd5b505af1158015611074573d600060003e3d6000fd5b505050505b600160006000508190909055505b5050565b601260009054906101000a900473ffffffffffffffffffffffffffffffffffffffff1681565b600160089054906101000a900467ffffffffffffffff1681565b611182600d60009054906101000a900473ffffffffffffffffffffffffffffffffffffffff1673ffffffffffffffffffffffffffffffffffffffff168273ffffffffffffffffffffffffffffffffffffffff1614806111775750600c60009054906101000a900473ffffffffffffffffffffffffffffffffffffffff1673ffffffffffffffffffffffffffffffffffffffff168273ffffffffffffffffffffffffffffffffffffffff16145b614d5663ffffffff16565b5b50565b611295600d60009054906101000a900473ffffffffffffffffffffffffffffffffffffffff1673ffffffffffffffffffffffffffffffffffffffff168273ffffffffffffffffffffffffffffffffffffffff1614806112325750600c60009054906101000a900473ffffffffffffffffffffffffffffffffffffffff1673ffffffffffffffffffffffffffffffffffffffff168273ffffffffffffffffffffffffffffffffffffffff16145b8061128a5750601260009054906101000a900473ffffffffffffffffffffffffffffffffffffffff1673ffffffffffffffffffffffffffffffffffffffff168273ffffffffffffffffffffffffffffffffffffffff16145b614d5663ffffffff16565b5b50565b60026000600050541415151561131a576040517f08c379a000000000000000000000000000000000000000000000000000000000815260040180806020018281038252601f8152602001807f5265656e7472616e637947756172643a207265656e7472616e742063616c6c0081526020015060200191505060405180910390fd5b600260006000508190909055506113643073ffffffffffffffffffffffffffffffffffffffff163373ffffffffffffffffffffffffffffffffffffffff1614614d5663ffffffff16565b600f60009054906101000a900473ffffffffffffffffffffffffffffffffffffffff1673ffffffffffffffffffffffffffffffffffffffff16634ac8c5ae601160009054906101000a900473ffffffffffffffffffffffffffffffffffffffff166040518263ffffffff1660e01b81526004016113e191906160e4565b600060405180830381600087803b1580156113fc5760006000fd5b505af1158015611411573d600060003e3d6000fd5b50505050601160009054906101000a900473ffffffffffffffffffffffffffffffffffffffff1673ffffffffffffffffffffffffffffffffffffffff166307da68f56040518163ffffffff1660e01b8152600401600060405180830381600087803b1580156114805760006000fd5b505af1158015611495573d600060003e3d6000fd5b5050505080601160006101000a81548173ffffffffffffffffffffffffffffffffffffffff021916908373ffffffffffffffffffffffffffffffffffffffff160217905550600f60009054906101000a900473ffffffffffffffffffffffffffffffffffffffff1673ffffffffffffffffffffffffffffffffffffffff16632c388d5d601160009054906101000a900473ffffffffffffffffffffffffffffffffffffffff166040518263ffffffff1660e01b815260040161155791906160e4565b600060405180830381600087803b1580156115725760006000fd5b505af1158015611587573d600060003e3d6000fd5b50505050600460009054906101000a900473ffffffffffffffffffffffffffffffffffffffff1673ffffffffffffffffffffffffffffffffffffffff1663a678f336601160009054906101000a900473ffffffffffffffffffffffffffffffffffffffff166040518263ffffffff1660e01b815260040161160891906160e4565b600060405180830381600087803b1580156116235760006000fd5b505af1158015611638573d600060003e3d6000fd5b50505050601160009054906101000a900473ffffffffffffffffffffffffffffffffffffffff1673ffffffffffffffffffffffffffffffffffffffff1660405161168190615f8d565b60405180910390207f2b51ff7c4cc8e6fe1c72e9d9685b7d2a88a5d82ad3a644afbdceb0272c89c1c360405160405180910390a35b5b600160006000508190909055505b50565b600260006000505414151515611749576040517f08c379a000000000000000000000000000000000000000000000000000000000815260040180806020018281038252601f8152602001807f5265656e7472616e637947756172643a207265656e7472616e742063616c6c0081526020015060200191505060405180910390fd5b600260006000508190909055506117933073ffffffffffffffffffffffffffffffffffffffff163373ffffffffffffffffffffffffffffffffffffffff1614614d5663ffffffff16565b6000600160089054906101000a900467ffffffffffffffff1667ffffffffffffffff161115156117f8576040517f08c379a00000000000000000000000000000000000000000000000000000000081526004016117ef906165e0565b60405180910390fd5b600760009054906101000a900473ffffffffffffffffffffffffffffffffffffffff1673ffffffffffffffffffffffffffffffffffffffff16633c4a25d0826040518263ffffffff1660e01b815260040161185391906160e4565b600060405180830381600087803b15801561186e5760006000fd5b505af1158015611883573d600060003e3d6000fd5b505050508073ffffffffffffffffffffffffffffffffffffffff167f078ca541eec5b410213fc65330fc5a7324eb56fe692344e7bc1b8be56bd3c16960405160405180910390a25b5b600160006000508190909055505b50565b600d60009054906101000a900473ffffffffffffffffffffffffffffffffffffffff1681565b600260006000505414151515611984576040517f08c379a000000000000000000000000000000000000000000000000000000000815260040180806020018281038252601f8152602001807f5265656e7472616e637947756172643a207265656e7472616e742063616c6c0081526020015060200191505060405180910390fd5b600260006000508190909055506119ce3073ffffffffffffffffffffffffffffffffffffffff163373ffffffffffffffffffffffffffffffffffffffff1614614d5663ffffffff16565b600f60009054906101000a900473ffffffffffffffffffffffffffffffffffffffff1673ffffffffffffffffffffffffffffffffffffffff16634ac8c5ae600e60009054906101000a900473ffffffffffffffffffffffffffffffffffffffff166040518263ffffffff1660e01b8152600401611a4b91906160e4565b600060405180830381600087803b158015611a665760006000fd5b505af1158015611a7b573d600060003e3d6000fd5b50505050600e60009054906101000a900473ffffffffffffffffffffffffffffffffffffffff1673ffffffffffffffffffffffffffffffffffffffff166307da68f56040518163ffffffff1660e01b8152600401600060405180830381600087803b158015611aea5760006000fd5b505af1158015611aff573d600060003e3d6000fd5b5050505080600e60006101000a81548173ffffffffffffffffffffffffffffffffffffffff021916908373ffffffffffffffffffffffffffffffffffffffff160217905550600f60009054906101000a900473ffffffffffffffffffffffffffffffffffffffff1673ffffffffffffffffffffffffffffffffffffffff16632c388d5d600e60009054906101000a900473ffffffffffffffffffffffffffffffffffffffff166040518263ffffffff1660e01b8152600401611bc191906160e4565b600060405180830381600087803b158015611bdc5760006000fd5b505af1158015611bf1573d600060003e3d6000fd5b50505050600e60009054906101000a900473ffffffffffffffffffffffffffffffffffffffff1673ffffffffffffffffffffffffffffffffffffffff16604051611c3a906160b3565b60405180910390207f2b51ff7c4cc8e6fe1c72e9d9685b7d2a88a5d82ad3a644afbdceb0272c89c1c360405160405180910390a35b5b600160006000508190909055505b50565b6000611cc3600160009054906101000a900467ffffffffffffffff1667ffffffffffffffff16611cb561500d63ffffffff16565b6150ed90919063ffffffff16565b9050611cca565b90565b600560009054906101000a900473ffffffffffffffffffffffffffffffffffffffff1681565b600260006000505414151515611d74576040517f08c379a000000000000000000000000000000000000000000000000000000000815260040180806020018281038252601f8152602001807f5265656e7472616e637947756172643a207265656e7472616e742063616c6c0081526020015060200191505060405180910390fd5b600260006000508190909055506000339050600082111515611dcb576040517f08c379a0000000000000000000000000000000000000000000000000000000008152600401611dc2906164e4565b60405180910390fd5b611e2382600260005060008473ffffffffffffffffffffffffffffffffffffffff1673ffffffffffffffffffffffffffffffffffffffff1681526020019081526020016000206000505461511390919063ffffffff16565b600260005060008373ffffffffffffffffffffffffffffffffffffffff1673ffffffffffffffffffffffffffffffffffffffff168152602001908152602001600020600050819090905550611ec4600760009054906101000a900473ffffffffffffffffffffffffffffffffffffffff1682600a60009054906101000a900473ffffffffffffffffffffffffffffffffffffffff168561519c63ffffffff16565b611ed26153c763ffffffff16565b8073ffffffffffffffffffffffffffffffffffffffff167f6f076ad9d1927fd5f792070276b90549d2433311ff94fe0d7afba682c150817a83604051611f18919061665e565b60405180910390a2505b600160006000508190909055505b50565b600260006000505414151515611fb4576040517f08c379a000000000000000000000000000000000000000000000000000000000815260040180806020018281038252601f8152602001807f5265656e7472616e637947756172643a207265656e7472616e742063616c6c0081526020015060200191505060405180910390fd5b60026000600050819090905550611ffe3073ffffffffffffffffffffffffffffffffffffffff163373ffffffffffffffffffffffffffffffffffffffff1614614d5663ffffffff16565b600f60009054906101000a900473ffffffffffffffffffffffffffffffffffffffff1673ffffffffffffffffffffffffffffffffffffffff16634ac8c5ae601260009054906101000a900473ffffffffffffffffffffffffffffffffffffffff166040518263ffffffff1660e01b815260040161207b91906160e4565b600060405180830381600087803b1580156120965760006000fd5b505af11580156120ab573d600060003e3d6000fd5b50505050601260009054906101000a900473ffffffffffffffffffffffffffffffffffffffff1673ffffffffffffffffffffffffffffffffffffffff166307da68f56040518163ffffffff1660e01b8152600401600060405180830381600087803b15801561211a5760006000fd5b505af115801561212f573d600060003e3d6000fd5b5050505080601260006101000a81548173ffffffffffffffffffffffffffffffffffffffff021916908373ffffffffffffffffffffffffffffffffffffffff160217905550600f60009054906101000a900473ffffffffffffffffffffffffffffffffffffffff1673ffffffffffffffffffffffffffffffffffffffff16632c388d5d601260009054906101000a900473ffffffffffffffffffffffffffffffffffffffff166040518263ffffffff1660e01b81526004016121f191906160e4565b600060405180830381600087803b15801561220c5760006000fd5b505af1158015612221573d600060003e3d6000fd5b50505050601260009054906101000a900473ffffffffffffffffffffffffffffffffffffffff1673ffffffffffffffffffffffffffffffffffffffff1660405161226a90615fef565b60405180910390207f2b51ff7c4cc8e6fe1c72e9d9685b7d2a88a5d82ad3a644afbdceb0272c89c1c360405160405180910390a35b5b600160006000508190909055505b50565b612368600c60009054906101000a900473ffffffffffffffffffffffffffffffffffffffff1673ffffffffffffffffffffffffffffffffffffffff168273ffffffffffffffffffffffffffffffffffffffff16148061235d5750601260009054906101000a900473ffffffffffffffffffffffffffffffffffffffff1673ffffffffffffffffffffffffffffffffffffffff168273ffffffffffffffffffffffffffffffffffffffff16145b614d5663ffffffff16565b5b50565b600460009054906101000a900473ffffffffffffffffffffffffffffffffffffffff1681565b600c60009054906101000a900473ffffffffffffffffffffffffffffffffffffffff1681565b60036000506020528060005260406000206000915090505481565b601160009054906101000a900473ffffffffffffffffffffffffffffffffffffffff1681565b60026000600050541415151561247a576040517f08c379a000000000000000000000000000000000000000000000000000000000815260040180806020018281038252601f8152602001807f5265656e7472616e637947756172643a207265656e7472616e742063616c6c0081526020015060200191505060405180910390fd5b600260006000508190909055506124c43073ffffffffffffffffffffffffffffffffffffffff163373ffffffffffffffffffffffffffffffffffffffff1614614d5663ffffffff16565b600f60009054906101000a900473ffffffffffffffffffffffffffffffffffffffff1673ffffffffffffffffffffffffffffffffffffffff16634ac8c5ae601060009054906101000a900473ffffffffffffffffffffffffffffffffffffffff166040518263ffffffff1660e01b815260040161254191906160e4565b600060405180830381600087803b15801561255c5760006000fd5b505af1158015612571573d600060003e3d6000fd5b50505050601060009054906101000a900473ffffffffffffffffffffffffffffffffffffffff1673ffffffffffffffffffffffffffffffffffffffff166307da68f56040518163ffffffff1660e01b8152600401600060405180830381600087803b1580156125e05760006000fd5b505af11580156125f5573d600060003e3d6000fd5b5050505080601060006101000a81548173ffffffffffffffffffffffffffffffffffffffff021916908373ffffffffffffffffffffffffffffffffffffffff160217905550600f60009054906101000a900473ffffffffffffffffffffffffffffffffffffffff1673ffffffffffffffffffffffffffffffffffffffff16632c388d5d601060009054906101000a900473ffffffffffffffffffffffffffffffffffffffff166040518263ffffffff1660e01b81526004016126b791906160e4565b600060405180830381600087803b1580156126d25760006000fd5b505af11580156126e7573d600060003e3d6000fd5b50505050601060009054906101000a900473ffffffffffffffffffffffffffffffffffffffff1673ffffffffffffffffffffffffffffffffffffffff1660405161273090615fbe565b60405180910390207f2b51ff7c4cc8e6fe1c72e9d9685b7d2a88a5d82ad3a644afbdceb0272c89c1c360405160405180910390a35b5b600160006000508190909055505b50565b600a60009054906101000a900473ffffffffffffffffffffffffffffffffffffffff1673ffffffffffffffffffffffffffffffffffffffff1663a43c36af8484846040518463ffffffff1660e01b81526004016127d69392919061610c565b60006040518083038186803b1580156127ef5760006000fd5b505afa158015612804573d600060003e3d6000fd5b505050505b505050565b600960009054906101000a900473ffffffffffffffffffffffffffffffffffffffff1681565b6002600060005054141515156128b5576040517f08c379a000000000000000000000000000000000000000000000000000000000815260040180806020018281038252601f8152602001807f5265656e7472616e637947756172643a207265656e7472616e742063616c6c0081526020015060200191505060405180910390fd5b600260006000508190909055506128ff3073ffffffffffffffffffffffffffffffffffffffff163373ffffffffffffffffffffffffffffffffffffffff1614614d5663ffffffff16565b670de0b6b3a76400008167ffffffffffffffff161015156129205760006000fd5b80600160006101000a81548167ffffffffffffffff021916908367ffffffffffffffff1602179055505b5b600160006000508190909055505b50565b601560149054906101000a900460ff1681565b6002600060005054141515156129f0576040517f08c379a000000000000000000000000000000000000000000000000000000000815260040180806020018281038252601f8152602001807f5265656e7472616e637947756172643a207265656e7472616e742063616c6c0081526020015060200191505060405180910390fd5b60026000600050819090905550612a3a3073ffffffffffffffffffffffffffffffffffffffff163373ffffffffffffffffffffffffffffffffffffffff1614614d5663ffffffff16565b6000601860009054906101000a900467ffffffffffffffff1667ffffffffffffffff16141515612a9f576040517f08c379a0000000000000000000000000000000000000000000000000000000008152600401612a9690616523565b60405180910390fd5b612aae8161547863ffffffff16565b601860006101000a81548167ffffffffffffffff021916908367ffffffffffffffff160217905550600a60009054906101000a900473ffffffffffffffffffffffffffffffffffffffff1673ffffffffffffffffffffffffffffffffffffffff1663b8188c81612b39601860009054906101000a900467ffffffffffffffff1661550063ffffffff16565b6040518263ffffffff1660e01b8152600401612b559190616670565b600060405180830381600087803b158015612b705760006000fd5b505af1158015612b85573d600060003e3d6000fd5b505050505b5b600160006000508190909055505b50565b600260006000505414151515612c1d576040517f08c379a000000000000000000000000000000000000000000000000000000000815260040180806020018281038252601f8152602001807f5265656e7472616e637947756172643a207265656e7472616e742063616c6c0081526020015060200191505060405180910390fd5b60026000600050819090905550612c673073ffffffffffffffffffffffffffffffffffffffff163373ffffffffffffffffffffffffffffffffffffffff1614614d5663ffffffff16565b600f60009054906101000a900473ffffffffffffffffffffffffffffffffffffffff1673ffffffffffffffffffffffffffffffffffffffff16634ac8c5ae600c60009054906101000a900473ffffffffffffffffffffffffffffffffffffffff166040518263ffffffff1660e01b8152600401612ce491906160e4565b600060405180830381600087803b158015612cff5760006000fd5b505af1158015612d14573d600060003e3d6000fd5b50505050600c60009054906101000a900473ffffffffffffffffffffffffffffffffffffffff1673ffffffffffffffffffffffffffffffffffffffff166307da68f56040518163ffffffff1660e01b8152600401600060405180830381600087803b158015612d835760006000fd5b505af1158015612d98573d600060003e3d6000fd5b5050505080600c60006101000a81548173ffffffffffffffffffffffffffffffffffffffff021916908373ffffffffffffffffffffffffffffffffffffffff160217905550600f60009054906101000a900473ffffffffffffffffffffffffffffffffffffffff1673ffffffffffffffffffffffffffffffffffffffff16632c388d5d600c60009054906101000a900473ffffffffffffffffffffffffffffffffffffffff166040518263ffffffff1660e01b8152600401612e5a91906160e4565b600060405180830381600087803b158015612e755760006000fd5b505af1158015612e8a573d600060003e3d6000fd5b50505050600c60009054906101000a900473ffffffffffffffffffffffffffffffffffffffff1673ffffffffffffffffffffffffffffffffffffffff16604051612ed390616082565b60405180910390207f2b51ff7c4cc8e6fe1c72e9d9685b7d2a88a5d82ad3a644afbdceb0272c89c1c360405160405180910390a35b5b600160006000508190909055505b50565b60006000600160089054906101000a900467ffffffffffffffff1667ffffffffffffffff16119050612f47565b90565b7f000000000000000000000000000000000000000000000000000000000000000081565b600061302c670214e8348c4f0000600760009054906101000a900473ffffffffffffffffffffffffffffffffffffffff1673ffffffffffffffffffffffffffffffffffffffff166318160ddd6040518163ffffffff1660e01b815260040160206040518083038186803b158015612fe55760006000fd5b505afa158015612ffa573d600060003e3d6000fd5b505050506040513d601f19601f8201168201806040525081019061301e9190615e57565b6150ed90919063ffffffff16565b600760009054906101000a900473ffffffffffffffffffffffffffffffffffffffff1673ffffffffffffffffffffffffffffffffffffffff166370a08231600a60009054906101000a900473ffffffffffffffffffffffffffffffffffffffff166040518263ffffffff1660e01b81526004016130a991906160e4565b60206040518083038186803b1580156130c25760006000fd5b505afa1580156130d7573d600060003e3d6000fd5b505050506040513d601f19601f820116820180604052508101906130fb9190615e57565b119050613103565b90565b600260006000505414151515613187576040517f08c379a000000000000000000000000000000000000000000000000000000000815260040180806020018281038252601f8152602001807f5265656e7472616e637947756172643a207265656e7472616e742063616c6c0081526020015060200191505060405180910390fd5b60026000600050819090905550436016600050541015156131dd576040517f08c379a00000000000000000000000000000000000000000000000000000000081526004016131d490616562565b60405180910390fd5b6131eb614d9c63ffffffff16565b5b600160006000508190909055505b565b7f000000000000000000000000000000000000000000000000000000000000000081565b601360009054906101000a900473ffffffffffffffffffffffffffffffffffffffff1681565b600e60009054906101000a900473ffffffffffffffffffffffffffffffffffffffff1681565b600f60009054906101000a900473ffffffffffffffffffffffffffffffffffffffff1681565b601560009054906101000a900473ffffffffffffffffffffffffffffffffffffffff1681565b61332f601560009054906101000a900473ffffffffffffffffffffffffffffffffffffffff1673ffffffffffffffffffffffffffffffffffffffff163373ffffffffffffffffffffffffffffffffffffffff161480156133245750601560149054906101000a900460ff165b614d5663ffffffff16565b6000601560146101000a81548160ff0219169083151502179055508181905084849050141515613394576040517f08c379a000000000000000000000000000000000000000000000000000000000815260040161338b90616466565b60405180910390fd5b6000600090505b848490508110156134365782828281811015156133b457fe5b905060200201356003600050600087878581811015156133d057fe5b90506020020160208101906133e59190615a11565b73ffffffffffffffffffffffffffffffffffffffff1673ffffffffffffffffffffffffffffffffffffffff1681526020019081526020016000206000508190909055505b808060010191505061339b565b505b50505050565b600061349a61347e600160009054906101000a900467ffffffffffffffff1667ffffffffffffffff16670de0b6b3a7640000614f8490919063ffffffff16565b61348c61500d63ffffffff16565b6150ed90919063ffffffff16565b90506134a1565b90565b600260006000505414151515613525576040517f08c379a000000000000000000000000000000000000000000000000000000000815260040180806020018281038252601f8152602001807f5265656e7472616e637947756172643a207265656e7472616e742063616c6c0081526020015060200191505060405180910390fd5b6002600060005081909090555061356f3073ffffffffffffffffffffffffffffffffffffffff163373ffffffffffffffffffffffffffffffffffffffff1614614d5663ffffffff16565b600073ffffffffffffffffffffffffffffffffffffffff16600660009054906101000a900473ffffffffffffffffffffffffffffffffffffffff1673ffffffffffffffffffffffffffffffffffffffff161415156136fd57600f60009054906101000a900473ffffffffffffffffffffffffffffffffffffffff1673ffffffffffffffffffffffffffffffffffffffff16634ac8c5ae600660009054906101000a900473ffffffffffffffffffffffffffffffffffffffff166040518263ffffffff1660e01b815260040161364491906160e4565b600060405180830381600087803b15801561365f5760006000fd5b505af1158015613674573d600060003e3d6000fd5b50505050600660009054906101000a900473ffffffffffffffffffffffffffffffffffffffff1673ffffffffffffffffffffffffffffffffffffffff166307da68f56040518163ffffffff1660e01b8152600401600060405180830381600087803b1580156136e35760006000fd5b505af11580156136f8573d600060003e3d6000fd5b505050505b600560009054906101000a900473ffffffffffffffffffffffffffffffffffffffff16600660006101000a81548173ffffffffffffffffffffffffffffffffffffffff021916908373ffffffffffffffffffffffffffffffffffffffff16021790555080600560006101000a81548173ffffffffffffffffffffffffffffffffffffffff021916908373ffffffffffffffffffffffffffffffffffffffff160217905550600f60009054906101000a900473ffffffffffffffffffffffffffffffffffffffff1673ffffffffffffffffffffffffffffffffffffffff16632c388d5d600560009054906101000a900473ffffffffffffffffffffffffffffffffffffffff166040518263ffffffff1660e01b815260040161381e91906160e4565b600060405180830381600087803b1580156138395760006000fd5b505af115801561384e573d600060003e3d6000fd5b50505050600560009054906101000a900473ffffffffffffffffffffffffffffffffffffffff1673ffffffffffffffffffffffffffffffffffffffff1660405161389790616051565b60405180910390207f2b51ff7c4cc8e6fe1c72e9d9685b7d2a88a5d82ad3a644afbdceb0272c89c1c360405160405180910390a35b5b600160006000508190909055505b50565b60026000600050541415151561395f576040517f08c379a000000000000000000000000000000000000000000000000000000000815260040180806020018281038252601f8152602001807f5265656e7472616e637947756172643a207265656e7472616e742063616c6c0081526020015060200191505060405180910390fd5b60026000600050819090905550613ad3600d60009054906101000a900473ffffffffffffffffffffffffffffffffffffffff1673ffffffffffffffffffffffffffffffffffffffff163373ffffffffffffffffffffffffffffffffffffffff161480613a185750601160009054906101000a900473ffffffffffffffffffffffffffffffffffffffff1673ffffffffffffffffffffffffffffffffffffffff163373ffffffffffffffffffffffffffffffffffffffff16145b80613a705750600560009054906101000a900473ffffffffffffffffffffffffffffffffffffffff1673ffffffffffffffffffffffffffffffffffffffff163373ffffffffffffffffffffffffffffffffffffffff16145b80613ac85750601060009054906101000a900473ffffffffffffffffffffffffffffffffffffffff1673ffffffffffffffffffffffffffffffffffffffff163373ffffffffffffffffffffffffffffffffffffffff16145b614d5663ffffffff16565b600760009054906101000a900473ffffffffffffffffffffffffffffffffffffffff1673ffffffffffffffffffffffffffffffffffffffff1663449a52f883836040518363ffffffff1660e01b8152600401613b309291906161b2565b600060405180830381600087803b158015613b4b5760006000fd5b505af1158015613b60573d600060003e3d6000fd5b505050505b600160006000508190909055505b5050565b613bef601560009054906101000a900473ffffffffffffffffffffffffffffffffffffffff1673ffffffffffffffffffffffffffffffffffffffff163373ffffffffffffffffffffffffffffffffffffffff16148015613be45750601560149054906101000a900460ff16155b614d5663ffffffff16565b601560006101000a81549073ffffffffffffffffffffffffffffffffffffffff021916905582600f60006101000a81548173ffffffffffffffffffffffffffffffffffffffff021916908373ffffffffffffffffffffffffffffffffffffffff160217905550600f60009054906101000a900473ffffffffffffffffffffffffffffffffffffffff1673ffffffffffffffffffffffffffffffffffffffff16632c388d5d306040518263ffffffff1660e01b8152600401613cb091906160e4565b600060405180830381600087803b158015613ccb5760006000fd5b505af1158015613ce0573d600060003e3d6000fd5b50505050600f60009054906101000a900473ffffffffffffffffffffffffffffffffffffffff1673ffffffffffffffffffffffffffffffffffffffff16632c388d5d600a60009054906101000a900473ffffffffffffffffffffffffffffffffffffffff166040518263ffffffff1660e01b8152600401613d6191906160e4565b600060405180830381600087803b158015613d7c5760006000fd5b505af1158015613d91573d600060003e3d6000fd5b5050505088600560006101000a81548173ffffffffffffffffffffffffffffffffffffffff021916908373ffffffffffffffffffffffffffffffffffffffff160217905550600f60009054906101000a900473ffffffffffffffffffffffffffffffffffffffff1673ffffffffffffffffffffffffffffffffffffffff16632c388d5d600560009054906101000a900473ffffffffffffffffffffffffffffffffffffffff166040518263ffffffff1660e01b8152600401613e5391906160e4565b600060405180830381600087803b158015613e6e5760006000fd5b505af1158015613e83573d600060003e3d6000fd5b5050505087600760006101000a81548173ffffffffffffffffffffffffffffffffffffffff021916908373ffffffffffffffffffffffffffffffffffffffff160217905550600f60009054906101000a900473ffffffffffffffffffffffffffffffffffffffff1673ffffffffffffffffffffffffffffffffffffffff16632c388d5d600860009054906101000a900473ffffffffffffffffffffffffffffffffffffffff166040518263ffffffff1660e01b8152600401613f4591906160e4565b600060405180830381600087803b158015613f605760006000fd5b505af1158015613f75573d600060003e3d6000fd5b5050505086600c60006101000a81548173ffffffffffffffffffffffffffffffffffffffff021916908373ffffffffffffffffffffffffffffffffffffffff160217905550600f60009054906101000a900473ffffffffffffffffffffffffffffffffffffffff1673ffffffffffffffffffffffffffffffffffffffff16632c388d5d600c60009054906101000a900473ffffffffffffffffffffffffffffffffffffffff166040518263ffffffff1660e01b815260040161403791906160e4565b600060405180830381600087803b1580156140525760006000fd5b505af1158015614067573d600060003e3d6000fd5b5050505085600d60006101000a81548173ffffffffffffffffffffffffffffffffffffffff021916908373ffffffffffffffffffffffffffffffffffffffff160217905550600f60009054906101000a900473ffffffffffffffffffffffffffffffffffffffff1673ffffffffffffffffffffffffffffffffffffffff16632c388d5d600d60009054906101000a900473ffffffffffffffffffffffffffffffffffffffff166040518263ffffffff1660e01b815260040161412991906160e4565b600060405180830381600087803b1580156141445760006000fd5b505af1158015614159573d600060003e3d6000fd5b5050505083600e60006101000a81548173ffffffffffffffffffffffffffffffffffffffff021916908373ffffffffffffffffffffffffffffffffffffffff160217905550600f60009054906101000a900473ffffffffffffffffffffffffffffffffffffffff1673ffffffffffffffffffffffffffffffffffffffff16632c388d5d600e60009054906101000a900473ffffffffffffffffffffffffffffffffffffffff166040518263ffffffff1660e01b815260040161421b91906160e4565b600060405180830381600087803b1580156142365760006000fd5b505af115801561424b573d600060003e3d6000fd5b5050505084601060006101000a81548173ffffffffffffffffffffffffffffffffffffffff021916908373ffffffffffffffffffffffffffffffffffffffff160217905550600f60009054906101000a900473ffffffffffffffffffffffffffffffffffffffff1673ffffffffffffffffffffffffffffffffffffffff16632c388d5d601060009054906101000a900473ffffffffffffffffffffffffffffffffffffffff166040518263ffffffff1660e01b815260040161430d91906160e4565b600060405180830381600087803b1580156143285760006000fd5b505af115801561433d573d600060003e3d6000fd5b5050505081601160006101000a81548173ffffffffffffffffffffffffffffffffffffffff021916908373ffffffffffffffffffffffffffffffffffffffff160217905550600f60009054906101000a900473ffffffffffffffffffffffffffffffffffffffff1673ffffffffffffffffffffffffffffffffffffffff16632c388d5d601160009054906101000a900473ffffffffffffffffffffffffffffffffffffffff166040518263ffffffff1660e01b81526004016143ff91906160e4565b600060405180830381600087803b15801561441a5760006000fd5b505af115801561442f573d600060003e3d6000fd5b5050505080601260006101000a81548173ffffffffffffffffffffffffffffffffffffffff021916908373ffffffffffffffffffffffffffffffffffffffff160217905550600f60009054906101000a900473ffffffffffffffffffffffffffffffffffffffff1673ffffffffffffffffffffffffffffffffffffffff16632c388d5d601260009054906101000a900473ffffffffffffffffffffffffffffffffffffffff166040518263ffffffff1660e01b81526004016144f191906160e4565b600060405180830381600087803b15801561450c5760006000fd5b505af1158015614521573d600060003e3d6000fd5b5050505060016014600050600063232948ea60e01b7bffffffffffffffffffffffffffffffffffffffffffffffffffffffff19167bffffffffffffffffffffffffffffffffffffffffffffffffffffffff1916815260200190815260200160002060006101000a81548160ff02191690831515021790555060016014600050600063b8188c8160e01b7bffffffffffffffffffffffffffffffffffffffffffffffffffffffff19167bffffffffffffffffffffffffffffffffffffffffffffffffffffffff1916815260200190815260200160002060006101000a81548160ff02191690831515021790555060016014600050600063b4b6882b60e01b7bffffffffffffffffffffffffffffffffffffffffffffffffffffffff19167bffffffffffffffffffffffffffffffffffffffffffffffffffffffff1916815260200190815260200160002060006101000a81548160ff0219169083151502179055505b505050505050505050565b60026000600050541415151561470e576040517f08c379a000000000000000000000000000000000000000000000000000000000815260040180806020018281038252601f8152602001807f5265656e7472616e637947756172643a207265656e7472616e742063616c6c0081526020015060200191505060405180910390fd5b6002600060005081909090555060003390506000600260005060008373ffffffffffffffffffffffffffffffffffffffff1673ffffffffffffffffffffffffffffffffffffffff1681526020019081526020016000206000505490506000811115156147af576040517f08c379a00000000000000000000000000000000000000000000000000000000081526004016147a6906164e4565b60405180910390fd5b6000600260005060008473ffffffffffffffffffffffffffffffffffffffff1673ffffffffffffffffffffffffffffffffffffffff168152602001908152602001600020600050819090905550614852600760009054906101000a900473ffffffffffffffffffffffffffffffffffffffff16600a60009054906101000a900473ffffffffffffffffffffffffffffffffffffffff16848461519c63ffffffff16565b6148606153c763ffffffff16565b8173ffffffffffffffffffffffffffffffffffffffff167fbfaf8d2920f9287ed71a7e47234c2043522ae8ffd246577b929897e0f2b3c075826040516148a6919061665e565b60405180910390a250505b600160006000508190909055505b565b670214e8348c4f000081565b60026000600050541415151561494e576040517f08c379a000000000000000000000000000000000000000000000000000000000815260040180806020018281038252601f8152602001807f5265656e7472616e637947756172643a207265656e7472616e742063616c6c0081526020015060200191505060405180910390fd5b600260006000508190909055506149983073ffffffffffffffffffffffffffffffffffffffff163373ffffffffffffffffffffffffffffffffffffffff1614614d5663ffffffff16565b600f60009054906101000a900473ffffffffffffffffffffffffffffffffffffffff1673ffffffffffffffffffffffffffffffffffffffff16634ac8c5ae600d60009054906101000a900473ffffffffffffffffffffffffffffffffffffffff166040518263ffffffff1660e01b8152600401614a1591906160e4565b600060405180830381600087803b158015614a305760006000fd5b505af1158015614a45573d600060003e3d6000fd5b50505050600d60009054906101000a900473ffffffffffffffffffffffffffffffffffffffff1673ffffffffffffffffffffffffffffffffffffffff166307da68f56040518163ffffffff1660e01b8152600401600060405180830381600087803b158015614ab45760006000fd5b505af1158015614ac9573d600060003e3d6000fd5b5050505080600d60006101000a81548173ffffffffffffffffffffffffffffffffffffffff021916908373ffffffffffffffffffffffffffffffffffffffff160217905550600f60009054906101000a900473ffffffffffffffffffffffffffffffffffffffff1673ffffffffffffffffffffffffffffffffffffffff16632c388d5d600d60009054906101000a900473ffffffffffffffffffffffffffffffffffffffff166040518263ffffffff1660e01b8152600401614b8b91906160e4565b600060405180830381600087803b158015614ba65760006000fd5b505af1158015614bbb573d600060003e3d6000fd5b50505050600d60009054906101000a900473ffffffffffffffffffffffffffffffffffffffff1673ffffffffffffffffffffffffffffffffffffffff16604051614c0490616020565b60405180910390207f2b51ff7c4cc8e6fe1c72e9d9685b7d2a88a5d82ad3a644afbdceb0272c89c1c360405160405180910390a35b5b600160006000508190909055505b50565b60006801000000000000000082101515614cd0576040517f08c379a00000000000000000000000000000000000000000000000000000000081526004018080602001828103825260118152602001807f6d6f7265207468616e203634206269747300000000000000000000000000000081526020015060200191505060405180910390fd5b819050614cd8565b919050565b60007f00000000000000000000000000000000000000000000000000000000000000007f000000000000000000000000000000000000000000000000000000000000000067ffffffffffffffff16614d3961558563ffffffff16565b67ffffffffffffffff16811515614d4c57fe5b0403905080505b90565b801515614d98576040517f08c379a0000000000000000000000000000000000000000000000000000000008152600401614d8f906164a5565b60405180910390fd5b5b50565b6000600160089054906101000a900467ffffffffffffffff1667ffffffffffffffff16141515614e01576040517f08c379a0000000000000000000000000000000000000000000000000000000008152600401614df8906165a1565b60405180910390fd5b600d60009054906101000a900473ffffffffffffffffffffffffffffffffffffffff1673ffffffffffffffffffffffffffffffffffffffff1663a6afed956040518163ffffffff1660e01b8152600401600060405180830381600087803b158015614e6c5760006000fd5b505af1158015614e81573d600060003e3d6000fd5b50505050601160009054906101000a900473ffffffffffffffffffffffffffffffffffffffff1673ffffffffffffffffffffffffffffffffffffffff16631afdbce46040518163ffffffff1660e01b8152600401600060405180830381600087803b158015614ef05760006000fd5b505af1158015614f05573d600060003e3d6000fd5b50505050614f1761558563ffffffff16565b600160086101000a81548167ffffffffffffffff021916908367ffffffffffffffff1602179055507f5a05a29d5ecece2d4f30720adf1a7449fc1ecb9a884a14629d08d3d2257ab90560405160405180910390a15b565b600081805190602001209050614f7f565b919050565b60008282840391508111151515615006576040517f08c379a000000000000000000000000000000000000000000000000000000000815260040180806020018281038252600d8152602001807f7375622d756e646572666c6f770000000000000000000000000000000000000081526020015060200191505060405180910390fd5b5b92915050565b60006000600160089054906101000a900467ffffffffffffffff1667ffffffffffffffff16111561504157600090506150ea565b6000615051614cdd63ffffffff16565b90506000601860009054906101000a900467ffffffffffffffff1667ffffffffffffffff1614806150ab5750601860009054906101000a900467ffffffffffffffff1667ffffffffffffffff168167ffffffffffffffff16105b156150ba5760009150506150ea565b6150e1601860009054906101000a900467ffffffffffffffff1682036155a063ffffffff16565b9150506150ea56505b90565b60006151088383670de0b6b3a76400006155e263ffffffff16565b905080505b92915050565b60008282840191508110151515615195576040517f08c379a000000000000000000000000000000000000000000000000000000000815260040180806020018281038252600c8152602001807f6164642d6f766572666c6f77000000000000000000000000000000000000000081526020015060200191505060405180910390fd5b5b92915050565b600060008573ffffffffffffffffffffffffffffffffffffffff166323b872dd60e01b868686604051602401808473ffffffffffffffffffffffffffffffffffffffff1681526020018373ffffffffffffffffffffffffffffffffffffffff1681526020018281526020019350505050604051602081830303815290604052907bffffffffffffffffffffffffffffffffffffffffffffffffffffffff19166020820180517bffffffffffffffffffffffffffffffffffffffffffffffffffffffff83818316178352505050506040518082805190602001908083835b60208310151561529f57805182525b602082019150602081019050602083039250615279565b6001836020036101000a0380198251168184511680821785525050505050509050019150506000604051808303816000865af19150503d8060008114615301576040519150601f19603f3d011682016040523d82523d6000602084013e615306565b606091505b5091509150818015615347575060008151148061534657508080602001905160208110156153345760006000fd5b81019080805190602001909291905050505b5b15156153be576040517f08c379a00000000000000000000000000000000000000000000000000000000081526004018080602001828103825260038152602001807f535446000000000000000000000000000000000000000000000000000000000081526020015060200191505060405180910390fd5b50505b50505050565b6153d5612f6e63ffffffff16565b15615419577fffffffffffffffffffffffffffffffffffffffffffffffffffffffffffffffff6016600050541415615414574360166000508190909055505b615475565b7fffffffffffffffffffffffffffffffffffffffffffffffffffffffffffffffff601660005054141515615474577fffffffffffffffffffffffffffffffffffffffffffffffffffffffffffffffff60166000508190909055505b5b5b565b60006154f67f00000000000000000000000000000000000000000000000000000000000000007f000000000000000000000000000000000000000000000000000000000000000067ffffffffffffffff168467ffffffffffffffff168115156154dd57fe5b0467ffffffffffffffff166156e390919063ffffffff16565b905080505b919050565b600061557b615542837f000000000000000000000000000000000000000000000000000000000000000067ffffffffffffffff1661578090919063ffffffff16565b7f000000000000000000000000000000000000000000000000000000000000000067ffffffffffffffff1661581d90919063ffffffff16565b905080505b919050565b600061559842614c4b909063ffffffff16565b905080505b90565b60006102da8267ffffffffffffffff1610156155ca576155c5826158ed63ffffffff16565b6155d6565b69021e19e0c9bab24000005b90506155dd565b919050565b6000600060006000198587098587029250828110838203039150506000811415615625576000841115156156165760006000fd5b838204925082925050506156dc565b80841115156156345760006000fd5b60008486880990508281118203915080830392506000858660000316905080860495508084049350600181826000030401905080830284179350835060006002876003021890508087026002038102905080508087026002038102905080508087026002038102905080508087026002038102905080508087026002038102905080508087026002038102905080508085029550855085955050505050506156dc5650505050505b9392505050565b60008267ffffffffffffffff1682840391508167ffffffffffffffff1611151515615779576040517f08c379a000000000000000000000000000000000000000000000000000000000815260040180806020018281038252600d8152602001807f7375622d756e646572666c6f770000000000000000000000000000000000000081526020015060200191505060405180910390fd5b5b92915050565b60008267ffffffffffffffff1682840191508167ffffffffffffffff1610151515615816576040517f08c379a000000000000000000000000000000000000000000000000000000000815260040180806020018281038252600c8152602001807f6164642d6f766572666c6f77000000000000000000000000000000000000000081526020015060200191505060405180910390fd5b5b92915050565b600060008267ffffffffffffffff16148061586f57508267ffffffffffffffff168267ffffffffffffffff1683850292508267ffffffffffffffff1681151561586257fe5b0467ffffffffffffffff16145b15156158e6576040517f08c379a000000000000000000000000000000000000000000000000000000000815260040180806020018281038252600c8152602001807f6d756c2d6f766572666c6f77000000000000000000000000000000000000000081526020015060200191505060405180910390fd5b5b92915050565b60008167ffffffffffffffff166102da69021e19e0c9bab240000069152d02c7e14af68000000381151561591d57fe5b040269152d02c7e14af6800000039050615932565b919050566166ff565b600067ffffffffffffffff8084111561595057fe5b60405160207fffffffffffffffffffffffffffffffffffffffffffffffffffffffffffffffe0601f870116820101818110838211171561598c57fe5b80604052508092508481528585850111156159a75760006000fd5b8484602083013760006020868301015250505b9392505050565b6000600083601f84011215156159d5578081fd5b8235905067ffffffffffffffff8111156159ed578182fd5b602083019150836020602083028501011115615a095760006000fd5b5b9250929050565b600060208284031215615a22578081fd5b8135615a2d816166d6565b809150505b92915050565b60006000600060408486031215615a4d578182fd5b8335615a58816166d6565b80935050602084013567ffffffffffffffff80821115615a76578384fd5b818601915086601f8301121515615a8b578384fd5b813581811115615a99578485fd5b876020828501011115615aaa578485fd5b6020830194508093505050505b9250925092565b60006000600060608486031215615ad3578283fd5b8335615ade816166d6565b80935050602084013567ffffffffffffffff80821115615afc578384fd5b818601915086601f8301121515615b11578384fd5b615b208783356020850161593b565b93506040860135915080821115615b35578283fd5b50808501905085601f8201121515615b4b578182fd5b615b5a8682356020840161593b565b9150505b9250925092565b6000600060408385031215615b78578182fd5b8235615b83816166d6565b80925050602083013590505b9250929050565b600060006000600060408587031215615bad578081fd5b843567ffffffffffffffff80821115615bc4578283fd5b615bd0888389016159c1565b9250809650508194506020870135915080821115615bec578283fd5b50615bf9878288016159c1565b915080935050809150505b92959194509250565b600060208284031215615c1e578081fd5b81357fffffffff00000000000000000000000000000000000000000000000000000000811681141515615c4f578182fd5b809150505b92915050565b600060208284031215615c6b578081fd5b8135615c76816166d6565b809150505b92915050565b6000600060006000600060006000600060006101208a8c031215615ca3578687fd5b8935615cae816166d6565b8099505060208a0135615cc0816166d6565b8098505060408a0135615cd2816166d6565b8097505060608a0135615ce4816166d6565b8096505060808a0135615cf6816166d6565b8095505060a08a0135615d08816166d6565b8094505060c08a0135615d1a816166d6565b8093505060e08a0135615d2c816166d6565b809250506101008a0135615d3f816166d6565b809150505b9295985092959850929598565b600060208284031215615d62578081fd5b8135615d6d816166d6565b809150505b92915050565b600060208284031215615d89578081fd5b8135615d94816166d6565b809150505b92915050565b600060208284031215615db0578081fd5b8135615dbb816166d6565b809150505b92915050565b600060208284031215615dd7578081fd5b8135615de2816166d6565b809150505b92915050565b600060208284031215615dfe578081fd5b8135615e09816166d6565b809150505b92915050565b600060208284031215615e25578081fd5b8135615e30816166d6565b809150505b92915050565b600060208284031215615e4c578081fd5b813590505b92915050565b600060208284031215615e68578081fd5b815190505b92915050565b600060208284031215615e84578081fd5b813567ffffffffffffffff811681141515615e9d578182fd5b809150505b92915050565b600060208284031215615eb9578081fd5b815160ff811681141515615ecb578182fd5b809150505b92915050565b60008151808452615eee8160208601602086016166a1565b60207fffffffffffffffffffffffffffffffffffffffffffffffffffffffffffffffe0601f8301168501019150505b92915050565b60007fffffffff00000000000000000000000000000000000000000000000000000000841682528251615f5d8160048501602087016166a1565b6004818401019150505b9392505050565b60008251615f808184602087016166a1565b8083019150505b92915050565b60007f726577617264730000000000000000000000000000000000000000000000000082526007820190505b919050565b60007f726174657300000000000000000000000000000000000000000000000000000082526005820190505b919050565b60007f736574746c656d656e74000000000000000000000000000000000000000000008252600a820190505b919050565b60007f6d61726b6574000000000000000000000000000000000000000000000000000082526006820190505b919050565b60007f61756374696f6e7300000000000000000000000000000000000000000000000082526008820190505b919050565b60007f6c69717569646174696f6e7300000000000000000000000000000000000000008252600c820190505b919050565b60007f707269636573000000000000000000000000000000000000000000000000000082526006820190505b919050565b600060208201905073ffffffffffffffffffffffffffffffffffffffff831682525b92915050565b600073ffffffffffffffffffffffffffffffffffffffff851682526040602083015282604083015282846060840137806060848401015260607fffffffffffffffffffffffffffffffffffffffffffffffffffffffffffffffe0601f85011683010190505b949350505050565b600073ffffffffffffffffffffffffffffffffffffffff84168252604060208301526161a86040830184615ed6565b90505b9392505050565b600060408201905073ffffffffffffffffffffffffffffffffffffffff841682528260208301525b9392505050565b600060208201905082151582525b92915050565b60008315158252604060208301526162106040830184615ed6565b90505b9392505050565b600060208201905073ffffffffffffffffffffffffffffffffffffffff831682525b92915050565b600060208201905073ffffffffffffffffffffffffffffffffffffffff831682525b92915050565b600060208201905073ffffffffffffffffffffffffffffffffffffffff831682525b92915050565b600060208201905073ffffffffffffffffffffffffffffffffffffffff831682525b92915050565b600060208201905073ffffffffffffffffffffffffffffffffffffffff831682525b92915050565b600060208201905073ffffffffffffffffffffffffffffffffffffffff831682525b92915050565b600060208201905073ffffffffffffffffffffffffffffffffffffffff831682525b92915050565b600060208201905073ffffffffffffffffffffffffffffffffffffffff831682525b92915050565b600060208201905073ffffffffffffffffffffffffffffffffffffffff831682525b92915050565b600060208201905073ffffffffffffffffffffffffffffffffffffffff831682525b92915050565b600060208201905073ffffffffffffffffffffffffffffffffffffffff831682525b92915050565b600060208201905073ffffffffffffffffffffffffffffffffffffffff831682525b92915050565b600060208201905073ffffffffffffffffffffffffffffffffffffffff831682525b92915050565b600060208201905073ffffffffffffffffffffffffffffffffffffffff831682525b92915050565b60006020825261645d6020830184615ed6565b90505b92915050565b600060208252600e60208301527f6172697479206d69736d6174636800000000000000000000000000000000000060408301526060820190505b919050565b600060208252600e60208301527f4e6f7420417574686f72697a656400000000000000000000000000000000000060408301526060820190505b919050565b600060208252600460208301527f4e6f6f700000000000000000000000000000000000000000000000000000000060408301526060820190505b919050565b600060208252600b60208301527f416c72656164792073657400000000000000000000000000000000000000000060408301526060820190505b919050565b600060208252601760208301527f496e73756666696369656e7420544350204c6f636b656400000000000000000060408301526060820190505b919050565b600060208252601060208301527f416c72656164792073687574646f776e0000000000000000000000000000000060408301526060820190505b919050565b600060208252600c60208301527f4e6f742073687574646f776e000000000000000000000000000000000000000060408301526060820190505b919050565b600060208252600660208301527f4c4f434b4544000000000000000000000000000000000000000000000000000060408301526060820190505b919050565b60006020820190508282525b92915050565b600060208201905067ffffffffffffffff831682525b92915050565b600060208201905060ff831682525b92915050565b60005b838110156166c05780820151818401525b6020810190506166a4565b838111156166cf576000848401525b505b505050565b73ffffffffffffffffffffffffffffffffffffffff8116811415156166fb5760006000fd5b5b50565bfea264697066735822122047707c9e84e5a1042687930231af07d0f7f32bdb4c174f7b5b106eef0465f0f164736f6c63430007060033",
  "linkReferences": {},
  "deployedLinkReferences": {}
}