{
  "_format": "hh-sol-artifact-1",
  "contractName": "Governor",
  "sourceName": "contracts/core/governance/Governor.sol",
  "abi": [
    {
      "inputs": [
        {
          "internalType": "contract IAccounting",
          "name": "_accounting",
          "type": "address"
        },
        {
          "internalType": "contract IHue",
          "name": "_hue",
          "type": "address"
        },
        {
          "internalType": "contract IPositionNFT",
          "name": "_hueNFT",
          "type": "address"
        },
        {
          "internalType": "contract ILendHue",
          "name": "_lendHue",
          "type": "address"
        },
        {
          "internalType": "contract IEnforcedDecentralization",
          "name": "_enforcedDecentralization",
          "type": "address"
        },
        {
          "internalType": "address",
          "name": "_timelock",
          "type": "address"
        },
        {
          "internalType": "address",
          "name": "_genesisAuthenticator",
          "type": "address"
        },
        {
          "internalType": "uint256",
          "name": "_distributionScheduleTokens",
          "type": "uint256"
        }
      ],
      "stateMutability": "nonpayable",
      "type": "constructor"
    },
    {
      "anonymous": false,
      "inputs": [
        {
          "indexed": true,
          "internalType": "address",
          "name": "from",
          "type": "address"
        },
        {
          "indexed": true,
          "internalType": "address",
          "name": "to",
          "type": "address"
        }
      ],
      "name": "AdminUpdated",
      "type": "event"
    },
    {
      "anonymous": false,
      "inputs": [
        {
          "indexed": true,
          "internalType": "string",
          "name": "contractName",
          "type": "string"
        },
        {
          "indexed": true,
          "internalType": "address",
          "name": "contractAddress",
          "type": "address"
        }
      ],
      "name": "ContractUpgraded",
      "type": "event"
    },
    {
      "anonymous": false,
      "inputs": [
        {
          "indexed": false,
          "internalType": "uint64",
          "name": "shutdownTime",
          "type": "uint64"
        }
      ],
      "name": "EmergencyShutdownExecuted",
      "type": "event"
    },
    {
      "anonymous": false,
      "inputs": [
        {
          "indexed": true,
          "internalType": "address",
          "name": "newGovernor",
          "type": "address"
        }
      ],
      "name": "ProtocolUpgraded",
      "type": "event"
    },
    {
      "anonymous": false,
      "inputs": [],
      "name": "ShutdownExecuted",
      "type": "event"
    },
    {
      "anonymous": false,
      "inputs": [
        {
          "indexed": true,
          "internalType": "address",
          "name": "locker",
          "type": "address"
        },
        {
          "indexed": false,
          "internalType": "uint256",
          "name": "count",
          "type": "uint256"
        }
      ],
      "name": "ShutdownTokensLocked",
      "type": "event"
    },
    {
      "anonymous": false,
      "inputs": [
        {
          "indexed": true,
          "internalType": "address",
          "name": "locker",
          "type": "address"
        },
        {
          "indexed": false,
          "internalType": "uint256",
          "name": "count",
          "type": "uint256"
        }
      ],
      "name": "ShutdownTokensUnlocked",
      "type": "event"
    },
    {
      "inputs": [],
      "name": "EMERGENCY_SHUTDOWN_THRESHOLD",
      "outputs": [
        {
          "internalType": "uint256",
          "name": "",
          "type": "uint256"
        }
      ],
      "stateMutability": "view",
      "type": "function"
    },
    {
      "inputs": [],
      "name": "GENESIS_PERIODS",
      "outputs": [
        {
          "internalType": "uint64",
          "name": "",
          "type": "uint64"
        }
      ],
      "stateMutability": "view",
      "type": "function"
    },
    {
      "inputs": [],
      "name": "NAME",
      "outputs": [
        {
          "internalType": "string",
          "name": "",
          "type": "string"
        }
      ],
      "stateMutability": "view",
      "type": "function"
    },
    {
      "inputs": [],
      "name": "accounting",
      "outputs": [
        {
          "internalType": "contract IAccounting",
          "name": "",
          "type": "address"
        }
      ],
      "stateMutability": "view",
      "type": "function"
    },
    {
      "inputs": [
        {
          "internalType": "contract IUniswapV3Pool",
          "name": "pool",
          "type": "address"
        }
      ],
      "name": "addReferencePoolToProtocol",
      "outputs": [],
      "stateMutability": "nonpayable",
      "type": "function"
    },
    {
      "inputs": [],
      "name": "auctions",
      "outputs": [
        {
          "internalType": "contract IAuctions",
          "name": "",
          "type": "address"
        }
      ],
      "stateMutability": "view",
      "type": "function"
    },
    {
      "inputs": [],
      "name": "collateralPool",
      "outputs": [
        {
          "internalType": "contract IUniswapV3Pool",
          "name": "",
          "type": "address"
        }
      ],
      "stateMutability": "view",
      "type": "function"
    },
    {
      "inputs": [],
      "name": "contractsInitialized",
      "outputs": [
        {
          "internalType": "bool",
          "name": "",
          "type": "bool"
        }
      ],
      "stateMutability": "view",
      "type": "function"
    },
    {
      "inputs": [],
      "name": "currentDailyRewardCount",
      "outputs": [
        {
          "internalType": "uint256",
          "name": "",
          "type": "uint256"
        }
      ],
      "stateMutability": "view",
      "type": "function"
    },
    {
      "inputs": [],
      "name": "currentPeriod",
      "outputs": [
        {
          "internalType": "uint64",
          "name": "period",
          "type": "uint64"
        }
      ],
      "stateMutability": "view",
      "type": "function"
    },
    {
      "inputs": [],
      "name": "currentPhase",
      "outputs": [
        {
          "internalType": "uint8",
          "name": "",
          "type": "uint8"
        }
      ],
      "stateMutability": "view",
      "type": "function"
    },
    {
      "inputs": [
        {
          "internalType": "address",
          "name": "to",
          "type": "address"
        },
        {
          "internalType": "uint256",
          "name": "count",
          "type": "uint256"
        }
      ],
      "name": "distributeLiquidityRewards",
      "outputs": [],
      "stateMutability": "nonpayable",
      "type": "function"
    },
    {
      "inputs": [],
      "name": "distributedTCP",
      "outputs": [
        {
          "internalType": "uint256",
          "name": "",
          "type": "uint256"
        }
      ],
      "stateMutability": "view",
      "type": "function"
    },
    {
      "inputs": [],
      "name": "distributionScheduleTokens",
      "outputs": [
        {
          "internalType": "uint256",
          "name": "",
          "type": "uint256"
        }
      ],
      "stateMutability": "view",
      "type": "function"
    },
    {
      "inputs": [],
      "name": "emergencyShutdownThresholdMet",
      "outputs": [
        {
          "internalType": "bool",
          "name": "",
          "type": "bool"
        }
      ],
      "stateMutability": "view",
      "type": "function"
    },
    {
      "inputs": [
        {
          "internalType": "address",
          "name": "",
          "type": "address"
        }
      ],
      "name": "emergencyShutdownTokensLocked",
      "outputs": [
        {
          "internalType": "uint256",
          "name": "",
          "type": "uint256"
        }
      ],
      "stateMutability": "view",
      "type": "function"
    },
    {
      "inputs": [],
      "name": "enforcedDecentralization",
      "outputs": [
        {
          "internalType": "contract IEnforcedDecentralization",
          "name": "",
          "type": "address"
        }
      ],
      "stateMutability": "view",
      "type": "function"
    },
    {
      "inputs": [
        {
          "internalType": "address",
          "name": "target",
          "type": "address"
        },
        {
          "internalType": "string",
          "name": "signature",
          "type": "string"
        },
        {
          "internalType": "bytes",
          "name": "data",
          "type": "bytes"
        }
      ],
      "name": "execute",
      "outputs": [
        {
          "internalType": "bool",
          "name": "success",
          "type": "bool"
        },
        {
          "internalType": "bytes",
          "name": "returnData",
          "type": "bytes"
        }
      ],
      "stateMutability": "nonpayable",
      "type": "function"
    },
    {
      "inputs": [],
      "name": "executeEmergencyShutdown",
      "outputs": [],
      "stateMutability": "nonpayable",
      "type": "function"
    },
    {
      "inputs": [],
      "name": "executeShutdown",
      "outputs": [],
      "stateMutability": "nonpayable",
      "type": "function"
    },
    {
      "inputs": [],
      "name": "firstPeriod",
      "outputs": [
        {
          "internalType": "uint64",
          "name": "",
          "type": "uint64"
        }
      ],
      "stateMutability": "view",
      "type": "function"
    },
    {
      "inputs": [
        {
          "internalType": "address",
          "name": "caller",
          "type": "address"
        },
        {
          "components": [
            {
              "internalType": "uint8",
              "name": "v",
              "type": "uint8"
            },
            {
              "internalType": "bytes32",
              "name": "r",
              "type": "bytes32"
            },
            {
              "internalType": "bytes32",
              "name": "s",
              "type": "bytes32"
            }
          ],
          "internalType": "struct IGovernor.GenesisAuth",
          "name": "ga",
          "type": "tuple"
        }
      ],
      "name": "getIsGenesisPhaseAndRequireAuthIfSo",
      "outputs": [
        {
          "internalType": "bool",
          "name": "isGenesis",
          "type": "bool"
        }
      ],
      "stateMutability": "view",
      "type": "function"
    },
    {
      "inputs": [],
      "name": "getReferencePools",
      "outputs": [
        {
          "internalType": "contract IUniswapV3Pool[]",
          "name": "",
          "type": "address[]"
        }
      ],
      "stateMutability": "view",
      "type": "function"
    },
    {
      "inputs": [
        {
          "internalType": "address",
          "name": "userAddress",
          "type": "address"
        }
      ],
      "name": "getSignaturePayloadForUserAddress",
      "outputs": [
        {
          "internalType": "bytes32",
          "name": "",
          "type": "bytes32"
        }
      ],
      "stateMutability": "view",
      "type": "function"
    },
    {
      "inputs": [],
      "name": "hue",
      "outputs": [
        {
          "internalType": "contract IHue",
          "name": "",
          "type": "address"
        }
      ],
      "stateMutability": "view",
      "type": "function"
    },
    {
      "inputs": [],
      "name": "huePositionNFT",
      "outputs": [
        {
          "internalType": "contract IPositionNFT",
          "name": "",
          "type": "address"
        }
      ],
      "stateMutability": "view",
      "type": "function"
    },
    {
      "inputs": [
        {
          "internalType": "uint256",
          "name": "count",
          "type": "uint256"
        }
      ],
      "name": "increaseLiquidationAccountRewards",
      "outputs": [],
      "stateMutability": "nonpayable",
      "type": "function"
    },
    {
      "inputs": [
        {
          "internalType": "contract IAuctions",
          "name": "_auctions",
          "type": "address"
        },
        {
          "internalType": "contract ITCP",
          "name": "_tcp",
          "type": "address"
        },
        {
          "internalType": "contract ILend",
          "name": "_lend",
          "type": "address"
        },
        {
          "internalType": "contract ILiquidations",
          "name": "_liquidations",
          "type": "address"
        },
        {
          "internalType": "contract IMarket",
          "name": "_market",
          "type": "address"
        },
        {
          "internalType": "contract IRates",
          "name": "_rates",
          "type": "address"
        },
        {
          "internalType": "contract IPrices",
          "name": "_prices",
          "type": "address"
        },
        {
          "internalType": "contract IProtocolLock",
          "name": "_protocolLock",
          "type": "address"
        },
        {
          "internalType": "contract IRewards",
          "name": "_rewards",
          "type": "address"
        },
        {
          "internalType": "contract ISettlement",
          "name": "_settlement",
          "type": "address"
        }
      ],
      "name": "initContracts",
      "outputs": [],
      "stateMutability": "nonpayable",
      "type": "function"
    },
    {
      "inputs": [
        {
          "internalType": "contract IUniswapV3Pool",
          "name": "_protocolPool",
          "type": "address"
        },
        {
          "internalType": "contract IUniswapV3Pool",
          "name": "_collateralPool",
          "type": "address"
        },
        {
          "internalType": "contract IUniswapV3Pool[]",
          "name": "_referencePool",
          "type": "address[]"
        }
      ],
      "name": "initPools",
      "outputs": [],
      "stateMutability": "nonpayable",
      "type": "function"
    },
    {
      "inputs": [],
      "name": "isShutdown",
      "outputs": [
        {
          "internalType": "bool",
          "name": "",
          "type": "bool"
        }
      ],
      "stateMutability": "view",
      "type": "function"
    },
    {
      "inputs": [],
      "name": "lend",
      "outputs": [
        {
          "internalType": "contract ILend",
          "name": "",
          "type": "address"
        }
      ],
      "stateMutability": "view",
      "type": "function"
    },
    {
      "inputs": [],
      "name": "lendHue",
      "outputs": [
        {
          "internalType": "contract ILendHue",
          "name": "",
          "type": "address"
        }
      ],
      "stateMutability": "view",
      "type": "function"
    },
    {
      "inputs": [],
      "name": "liquidationAccountRewards",
      "outputs": [
        {
          "internalType": "uint256",
          "name": "",
          "type": "uint256"
        }
      ],
      "stateMutability": "view",
      "type": "function"
    },
    {
      "inputs": [],
      "name": "liquidations",
      "outputs": [
        {
          "internalType": "contract ILiquidations",
          "name": "",
          "type": "address"
        }
      ],
      "stateMutability": "view",
      "type": "function"
    },
    {
      "inputs": [
        {
          "internalType": "uint256",
          "name": "count",
          "type": "uint256"
        }
      ],
      "name": "lockTokensForEmergencyShutdown",
      "outputs": [],
      "stateMutability": "nonpayable",
      "type": "function"
    },
    {
      "inputs": [],
      "name": "market",
      "outputs": [
        {
          "internalType": "contract IMarket",
          "name": "",
          "type": "address"
        }
      ],
      "stateMutability": "view",
      "type": "function"
    },
    {
      "inputs": [
        {
          "internalType": "address",
          "name": "to",
          "type": "address"
        },
        {
          "internalType": "uint256",
          "name": "count",
          "type": "uint256"
        }
      ],
      "name": "mintTCP",
      "outputs": [],
      "stateMutability": "nonpayable",
      "type": "function"
    },
    {
      "inputs": [],
      "name": "periodLength",
      "outputs": [
        {
          "internalType": "uint64",
          "name": "",
          "type": "uint64"
        }
      ],
      "stateMutability": "view",
      "type": "function"
    },
    {
      "inputs": [
        {
          "internalType": "contract IUniswapV3Pool",
          "name": "",
          "type": "address"
        }
      ],
      "name": "poolRemovalTime",
      "outputs": [
        {
          "internalType": "uint64",
          "name": "",
          "type": "uint64"
        }
      ],
      "stateMutability": "view",
      "type": "function"
    },
    {
      "inputs": [],
      "name": "pricePoolsInitialized",
      "outputs": [
        {
          "internalType": "bool",
          "name": "",
          "type": "bool"
        }
      ],
      "stateMutability": "view",
      "type": "function"
    },
    {
      "inputs": [],
      "name": "prices",
      "outputs": [
        {
          "internalType": "contract IPrices",
          "name": "",
          "type": "address"
        }
      ],
      "stateMutability": "view",
      "type": "function"
    },
    {
      "inputs": [],
      "name": "protocolDeployer",
      "outputs": [
        {
          "internalType": "address",
          "name": "",
          "type": "address"
        }
      ],
      "stateMutability": "view",
      "type": "function"
    },
    {
      "inputs": [],
      "name": "protocolLock",
      "outputs": [
        {
          "internalType": "contract IProtocolLock",
          "name": "",
          "type": "address"
        }
      ],
      "stateMutability": "view",
      "type": "function"
    },
    {
      "inputs": [],
      "name": "protocolPool",
      "outputs": [
        {
          "internalType": "contract IUniswapV3Pool",
          "name": "",
          "type": "address"
        }
      ],
      "stateMutability": "view",
      "type": "function"
    },
    {
      "inputs": [],
      "name": "rates",
      "outputs": [
        {
          "internalType": "contract IRates",
          "name": "",
          "type": "address"
        }
      ],
      "stateMutability": "view",
      "type": "function"
    },
    {
      "inputs": [
        {
          "internalType": "uint256",
          "name": "",
          "type": "uint256"
        }
      ],
      "name": "referencePool",
      "outputs": [
        {
          "internalType": "contract IUniswapV3Pool",
          "name": "",
          "type": "address"
        }
      ],
      "stateMutability": "view",
      "type": "function"
    },
    {
      "inputs": [
        {
          "internalType": "contract IUniswapV3Pool",
          "name": "pool",
          "type": "address"
        }
      ],
      "name": "removeReferencePoolFromProtocol",
      "outputs": [],
      "stateMutability": "nonpayable",
      "type": "function"
    },
    {
      "inputs": [
        {
          "internalType": "address",
          "name": "caller",
          "type": "address"
        }
      ],
      "name": "requireDecreaseDebtAccess",
      "outputs": [],
      "stateMutability": "view",
      "type": "function"
    },
    {
      "inputs": [
        {
          "internalType": "address",
          "name": "caller",
          "type": "address"
        }
      ],
      "name": "requireHueMintingAccess",
      "outputs": [],
      "stateMutability": "view",
      "type": "function"
    },
    {
      "inputs": [
        {
          "internalType": "address",
          "name": "caller",
          "type": "address"
        }
      ],
      "name": "requireHueReservesBurnAccess",
      "outputs": [],
      "stateMutability": "view",
      "type": "function"
    },
    {
      "inputs": [
        {
          "internalType": "address",
          "name": "caller",
          "type": "address"
        }
      ],
      "name": "requireLentHueCountAccess",
      "outputs": [],
      "stateMutability": "view",
      "type": "function"
    },
    {
      "inputs": [
        {
          "internalType": "address",
          "name": "caller",
          "type": "address"
        }
      ],
      "name": "requirePositionWriteAccess",
      "outputs": [],
      "stateMutability": "view",
      "type": "function"
    },
    {
      "inputs": [
        {
          "internalType": "address",
          "name": "caller",
          "type": "address"
        }
      ],
      "name": "requireStoredCollateralAccess",
      "outputs": [],
      "stateMutability": "view",
      "type": "function"
    },
    {
      "inputs": [
        {
          "internalType": "address",
          "name": "caller",
          "type": "address"
        }
      ],
      "name": "requireUpdatePositionAccess",
      "outputs": [],
      "stateMutability": "view",
      "type": "function"
    },
    {
      "inputs": [
        {
          "internalType": "address",
          "name": "target",
          "type": "address"
        },
        {
          "internalType": "string",
          "name": "signature",
          "type": "string"
        }
      ],
      "name": "requireValidAction",
      "outputs": [],
      "stateMutability": "view",
      "type": "function"
    },
    {
      "inputs": [],
      "name": "rewards",
      "outputs": [
        {
          "internalType": "contract IRewards",
          "name": "",
          "type": "address"
        }
      ],
      "stateMutability": "view",
      "type": "function"
    },
    {
      "inputs": [
        {
          "internalType": "uint64",
          "name": "phaseOneStartTime",
          "type": "uint64"
        }
      ],
      "name": "setPhaseOneStartTime",
      "outputs": [],
      "stateMutability": "nonpayable",
      "type": "function"
    },
    {
      "inputs": [],
      "name": "settlement",
      "outputs": [
        {
          "internalType": "contract ISettlement",
          "name": "",
          "type": "address"
        }
      ],
      "stateMutability": "view",
      "type": "function"
    },
    {
      "inputs": [],
      "name": "shutdownTime",
      "outputs": [
        {
          "internalType": "uint64",
          "name": "",
          "type": "uint64"
        }
      ],
      "stateMutability": "view",
      "type": "function"
    },
    {
      "inputs": [],
      "name": "tcp",
      "outputs": [
        {
          "internalType": "contract ITCP",
          "name": "",
          "type": "address"
        }
      ],
      "stateMutability": "view",
      "type": "function"
    },
    {
      "inputs": [],
      "name": "tcpMinted",
      "outputs": [
        {
          "internalType": "uint256",
          "name": "",
          "type": "uint256"
        }
      ],
      "stateMutability": "view",
      "type": "function"
    },
    {
      "inputs": [],
      "name": "timelock",
      "outputs": [
        {
          "internalType": "address",
          "name": "",
          "type": "address"
        }
      ],
      "stateMutability": "view",
      "type": "function"
    },
    {
      "inputs": [],
      "name": "totalLiquidityRewards",
      "outputs": [
        {
          "internalType": "uint256",
          "name": "",
          "type": "uint256"
        }
      ],
      "stateMutability": "view",
      "type": "function"
    },
    {
      "inputs": [],
      "name": "unlockTokensForEmergencyShutdown",
      "outputs": [],
      "stateMutability": "nonpayable",
      "type": "function"
    },
    {
      "inputs": [
        {
          "internalType": "contract IAuctions",
          "name": "_auctions",
          "type": "address"
        }
      ],
      "name": "upgradeAuctions",
      "outputs": [],
      "stateMutability": "nonpayable",
      "type": "function"
    },
    {
      "inputs": [
        {
          "internalType": "contract ILend",
          "name": "_lend",
          "type": "address"
        }
      ],
      "name": "upgradeLend",
      "outputs": [],
      "stateMutability": "nonpayable",
      "type": "function"
    },
    {
      "inputs": [
        {
          "internalType": "contract ILiquidations",
          "name": "_liquidations",
          "type": "address"
        }
      ],
      "name": "upgradeLiquidations",
      "outputs": [],
      "stateMutability": "nonpayable",
      "type": "function"
    },
    {
      "inputs": [
        {
          "internalType": "contract IMarket",
          "name": "_market",
          "type": "address"
        }
      ],
      "name": "upgradeMarket",
      "outputs": [],
      "stateMutability": "nonpayable",
      "type": "function"
    },
    {
      "inputs": [
        {
          "internalType": "contract IPrices",
          "name": "_prices",
          "type": "address"
        }
      ],
      "name": "upgradePrices",
      "outputs": [],
      "stateMutability": "nonpayable",
      "type": "function"
    },
    {
      "inputs": [
        {
          "internalType": "address",
          "name": "newGovernor",
          "type": "address"
        }
      ],
      "name": "upgradeProtocol",
      "outputs": [],
      "stateMutability": "nonpayable",
      "type": "function"
    },
    {
      "inputs": [
        {
          "internalType": "contract IRates",
          "name": "_rates",
          "type": "address"
        }
      ],
      "name": "upgradeRates",
      "outputs": [],
      "stateMutability": "nonpayable",
      "type": "function"
    },
    {
      "inputs": [
        {
          "internalType": "contract IRewards",
          "name": "_rewards",
          "type": "address"
        }
      ],
      "name": "upgradeRewards",
      "outputs": [],
      "stateMutability": "nonpayable",
      "type": "function"
    },
    {
      "inputs": [
        {
          "internalType": "contract ISettlement",
          "name": "_settlement",
          "type": "address"
        }
      ],
      "name": "upgradeSettlement",
      "outputs": [],
      "stateMutability": "nonpayable",
      "type": "function"
    },
    {
      "inputs": [
        {
          "internalType": "bytes4",
          "name": "",
          "type": "bytes4"
        }
      ],
      "name": "validUpdate",
      "outputs": [
        {
          "internalType": "bool",
          "name": "",
          "type": "bool"
        }
      ],
      "stateMutability": "view",
      "type": "function"
    }
  ],
  "bytecode": "0x60e06040527fffffffffffffffffffffffffffffffffffffffffffffffffffffffffffffffff601c6000509090556001601e600050909055348015620000455760006000fd5b50604051620095423803806200954283398181016040528101906200006b9190620003cf565b5b5b620151805b60018167ffffffffffffffff166200008f6200031460201b60201c565b67ffffffffffffffff16811515620000a357fe5b040367ffffffffffffffff1660a08167ffffffffffffffff1660c01b815260080150508067ffffffffffffffff1660808167ffffffffffffffff1660c01b815260080150505b50600160006000508190909055505b33601b60006101000a81548173ffffffffffffffffffffffffffffffffffffffff021916908373ffffffffffffffffffffffffffffffffffffffff1602179055508173ffffffffffffffffffffffffffffffffffffffff1660c08173ffffffffffffffffffffffffffffffffffffffff1660601b8152601401505087600960006101000a81548173ffffffffffffffffffffffffffffffffffffffff021916908373ffffffffffffffffffffffffffffffffffffffff16021790555086600d60006101000a81548173ffffffffffffffffffffffffffffffffffffffff021916908373ffffffffffffffffffffffffffffffffffffffff16021790555085600e60006101000a81548173ffffffffffffffffffffffffffffffffffffffff021916908373ffffffffffffffffffffffffffffffffffffffff16021790555084601160006101000a81548173ffffffffffffffffffffffffffffffffffffffff021916908373ffffffffffffffffffffffffffffffffffffffff16021790555083600f60006101000a81548173ffffffffffffffffffffffffffffffffffffffff021916908373ffffffffffffffffffffffffffffffffffffffff16021790555082601960006101000a81548173ffffffffffffffffffffffffffffffffffffffff021916908373ffffffffffffffffffffffffffffffffffffffff1602179055508060056000508190909055505b5050505050505050620004ac565b60006200032e426200033660201b62006bc917909060201c565b905080505b90565b60006801000000000000000082101515620003bc576040517f08c379a00000000000000000000000000000000000000000000000000000000081526004018080602001828103825260118152602001807f6d6f7265207468616e203634206269747300000000000000000000000000000081526020015060200191505060405180910390fd5b819050620003c5565b91905056620004ab565b60006000600060006000600060006000610100898b031215620003f0578384fd5b8851620003fd816200048e565b80985050602089015162000411816200048e565b80975050604089015162000425816200048e565b80965050606089015162000439816200048e565b8095505060808901516200044d816200048e565b8094505060a089015162000461816200048e565b8093505060c089015162000475816200048e565b8092505060e089015190505b9295985092959890939650565b6001600160a01b03811681141515620004a75760006000fd5b5b50565b5b60805160c01c60a05160c01c60c05160601c61904c620004f66000398061524d525080615a285280616c5f528061773f525080615c465280616c805280617760525061904c6000f3fe60806040523480156100115760006000fd5b50600436106104e35760003560e01c80639bd1861611610287578063c34cdf751161016c578063d4f986d7116100e4578063f6fbc19211610098578063fe4772771161007d578063fe47727714610d4c578063ff0eccf614610d6a578063ff26df7214610d88576104e3565b8063f6fbc19214610d24578063f7d3fa8414610d2e576104e3565b8063e7c37799116100c9578063e7c3779914610cd0578063e97a99b614610cec578063ef7a7cfa14610d08576104e3565b8063d4f986d714610c82578063da9ee0ed14610ca0576104e3565b8063d0d8ab9a1161013b578063d33219b411610120578063d33219b414610c28578063d3419bf314610c46578063d478b08714610c64576104e3565b8063d0d8ab9a14610c00578063d2ca211514610c0a576104e3565b8063c34cdf7514610b8a578063c375e6ed14610ba6578063c4e3a63b14610bc4578063ce49968214610be2576104e3565b8063b216cd94116101ff578063b8e57484116101ce578063bf86d690116101b3578063bf86d69014610b34578063bfec9bf814610b52578063c04be45414610b6e576104e3565b8063b8e5748414610ae8578063b971dc0514610b18576104e3565b8063b216cd9414610a76578063b236129014610a92578063b42c75f714610ab0578063b8188c8114610acc576104e3565b8063a3f4df7e11610256578063a89f51ae1161023b578063a89f51ae14610a1c578063aa29648714610a3a578063ab658be214610a58576104e3565b8063a3f4df7e146109e2578063a43c36af14610a00576104e3565b80639bd18616146109705780639ec5a8941461098c5780639ee2c973146109aa578063a1c1f90d146109c6576104e3565b806351160630116103c857806383208f53116103405780638f40b82f116102f45780639624e83e116102d95780639624e83e1461091657806397dffc61146109345780639a371c8414610952576104e3565b80638f40b82f146108de5780639622cd8f146108fa576104e3565b806385aa61031161032557806385aa610314610874578063879f99d71461089257806388a4bfb7146108c2576104e3565b806383208f531461083a5780638396cf6914610856576104e3565b8063734875a81161039757806380b5c6651161037c57806380b5c665146107e457806380f5560514610800578063827015c31461081e576104e3565b8063734875a8146107ac57806380304d09146107c8576104e3565b8063511606301461073657806355379e56146107545780635856908114610772578063685a1cd614610790576104e3565b80632cae02691161045b57806336fc02f41161042a57806343f48fbd1161040f57806343f48fbd146106de5780634b414e32146106fc5780634cc1f55d1461071a576104e3565b806336fc02f4146106905780633f88b0c5146106ae576104e3565b80632cae0269146106055780633237417414610623578063330c093c1461064157806333daf5d41461065f576104e3565b8063113cf1ab116104b257806317424a441161049757806317424a44146105ad578063232948ea146105dd57806327481dcc146105e7576104e3565b8063113cf1ab1461055f57806311b7c6911461058f576104e3565b806304f07ea7146104e9578063055ad42e1461050757806306040618146105255780630b1c7d1f14610543576104e3565b60006000fd5b6104f1610da4565b6040516104fe9190618eef565b60405180910390f35b61050f610dad565b60405161051c9190618f1d565b60405180910390f35b61052d610e5b565b60405161053a9190618f01565b60405180910390f35b61055d6004803603810190610558919061823c565b610e73565b005b610579600480360381019061057491906180e1565b6111f1565b6040516105869190618914565b60405180910390f35b610597611216565b6040516105a49190618914565b60405180910390f35b6105c760048036038101906105c2919061834d565b611229565b6040516105d49190618f01565b60405180910390f35b6105e5611255565b005b6105ef611340565b6040516105fc9190618eef565b60405180910390f35b61060d611349565b60405161061a91906189ff565b60405180910390f35b61062b61136f565b60405161063891906189d7565b60405180910390f35b610649611395565b60405161065691906187b3565b60405180910390f35b61067960048036038101906106749190617fa8565b6113bb565b604051610687929190618928565b60405180910390f35b610698611600565b6040516106a59190618b8f565b60405180910390f35b6106c860048036038101906106c39190617efb565b611626565b6040516106d59190618eef565b60405180910390f35b6106e6611641565b6040516106f39190618b17565b60405180910390f35b610704611667565b60405161071191906189af565b60405180910390f35b610734600480360381019061072f9190618374565b61168d565b005b61073e611d7d565b60405161074b9190618b67565b60405180910390f35b61075c611da3565b6040516107699190618eef565b60405180910390f35b61077a611dac565b6040516107879190618f01565b60405180910390f35b6107aa60048036038101906107a5919061834d565b611dc6565b005b6107c660048036038101906107c19190617efb565b6122c8565b005b6107e260048036038101906107dd91906182ff565b612383565b005b6107fe60048036038101906107f99190617efb565b6127b2565b005b610808612b02565b6040516108159190618a77565b60405180910390f35b6108386004803603810190610833919061834d565b612b28565b005b610854600480360381019061084f91906182b1565b612f28565b005b61085e6132a6565b60405161086b9190618bb7565b60405180910390f35b61087c6132cc565b6040516108899190618987565b60405180910390f35b6108ac60048036038101906108a79190617efb565b6132f2565b6040516108b9919061894d565b60405180910390f35b6108dc60048036038101906108d79190618456565b613372565b005b6108f860048036038101906108f39190618326565b6135b2565b005b610914600480360381019061090f9190617efb565b613930565b005b61091e6139eb565b60405161092b919061895f565b60405180910390f35b61093c613a11565b6040516109499190618a27565b60405180910390f35b61095a613a37565b6040516109679190618a4f565b60405180910390f35b61098a60048036038101906109859190618155565b613a5d565b005b61099461451e565b6040516109a19190618b3f565b60405180910390f35b6109c460048036038101906109bf9190617efb565b614544565b005b6109e060048036038101906109db91906182d8565b6145ff565b005b6109ea61497d565b6040516109f79190618bdf565b60405180910390f35b610a1a6004803603810190610a159190617f22565b6149b9565b005b610a24614a50565b604051610a319190618a9f565b60405180910390f35b610a42614a76565b604051610a4f9190618eef565b60405180910390f35b610a60614abe565b604051610a6d91906188b0565b60405180910390f35b610a906004803603810190610a8b91906180b0565b614b54565b005b610a9a614e75565b604051610aa79190618f01565b60405180910390f35b610aca6004803603810190610ac59190617efb565b614e7a565b005b610ae66004803603810190610ae1919061848e565b614f35565b005b610b026004803603810190610afd919061804f565b61513e565b604051610b0f9190618914565b60405180910390f35b610b326004803603810190610b2d9190618263565b6152ec565b005b610b3c61566a565b604051610b499190618914565b60405180910390f35b610b6c6004803603810190610b679190617efb565b61569a565b005b610b886004803603810190610b839190617efb565b6157ad565b005b610ba46004803603810190610b9f9190618456565b6158c0565b005b610bae615946565b604051610bbb9190618eef565b60405180910390f35b610bcc615a26565b604051610bd99190618f01565b60405180910390f35b610bea615a4a565b604051610bf79190618914565b60405180910390f35b610c08615b4e565b005b610c12615c44565b604051610c1f9190618f01565b60405180910390f35b610c30615c68565b604051610c3d91906187b3565b60405180910390f35b610c4e615c8e565b604051610c5b9190618ac7565b60405180910390f35b610c6c615cb4565b604051610c799190618aef565b60405180910390f35b610c8a615cda565b604051610c979190618914565b60405180910390f35b610cba6004803603810190610cb59190618456565b615ced565b604051610cc79190618bb7565b60405180910390f35b610cea6004803603810190610ce59190617efb565b615d33565b005b610d066004803603810190610d01919061812e565b615e46565b005b610d226004803603810190610d1d91906180b0565b616280565b005b610d2c616492565b005b610d36616701565b604051610d439190618eef565b60405180910390f35b610d54616819565b604051610d619190618eef565b60405180910390f35b610d72616825565b604051610d7f9190618bb7565b60405180910390f35b610da26004803603810190610d9d919061828a565b61684b565b005b60046000505481565b6000600f60009054906101000a900473ffffffffffffffffffffffffffffffffffffffff1673ffffffffffffffffffffffffffffffffffffffff1663055ad42e6040518163ffffffff1660e01b815260040160206040518083038186803b158015610e185760006000fd5b505afa158015610e2d573d600060003e3d6000fd5b505050506040513d601f19601f82011682018060405250810190610e5191906184ea565b9050610e58565b90565b6000610e6b616c5b63ffffffff16565b905080505b90565b600260006000505414151515610ef4576040517f08c379a000000000000000000000000000000000000000000000000000000000815260040180806020018281038252601f8152602001807f5265656e7472616e637947756172643a207265656e7472616e742063616c6c0081526020015060200191505060405180910390fd5b60026000600050819090905550610f3e3073ffffffffffffffffffffffffffffffffffffffff163373ffffffffffffffffffffffffffffffffffffffff1614616cd463ffffffff16565b601560009054906101000a900473ffffffffffffffffffffffffffffffffffffffff1673ffffffffffffffffffffffffffffffffffffffff16634ac8c5ae601060009054906101000a900473ffffffffffffffffffffffffffffffffffffffff166040518263ffffffff1660e01b8152600401610fbb91906187b3565b600060405180830381600087803b158015610fd65760006000fd5b505af1158015610feb573d600060003e3d6000fd5b50505050601060009054906101000a900473ffffffffffffffffffffffffffffffffffffffff1673ffffffffffffffffffffffffffffffffffffffff166307da68f56040518163ffffffff1660e01b8152600401600060405180830381600087803b15801561105a5760006000fd5b505af115801561106f573d600060003e3d6000fd5b5050505080601060006101000a81548173ffffffffffffffffffffffffffffffffffffffff021916908373ffffffffffffffffffffffffffffffffffffffff160217905550601560009054906101000a900473ffffffffffffffffffffffffffffffffffffffff1673ffffffffffffffffffffffffffffffffffffffff16632c388d5d601060009054906101000a900473ffffffffffffffffffffffffffffffffffffffff166040518263ffffffff1660e01b815260040161113191906187b3565b600060405180830381600087803b15801561114c5760006000fd5b505af1158015611161573d600060003e3d6000fd5b50505050601060009054906101000a900473ffffffffffffffffffffffffffffffffffffffff1673ffffffffffffffffffffffffffffffffffffffff166040516111aa906186ef565b60405180910390207f2b51ff7c4cc8e6fe1c72e9d9685b7d2a88a5d82ad3a644afbdceb0272c89c1c360405160405180910390a35b5b600160006000508190909055505b50565b601a60005060205280600052604060002060009150909054906101000a900460ff1681565b601b60159054906101000a900460ff1681565b601d60005060205280600052604060002060009150909054906101000a900467ffffffffffffffff1681565b6002600060005054141515156112d6576040517f08c379a000000000000000000000000000000000000000000000000000000000815260040180806020018281038252601f8152602001807f5265656e7472616e637947756172643a207265656e7472616e742063616c6c0081526020015060200191505060405180910390fd5b600260006000508190909055506113203073ffffffffffffffffffffffffffffffffffffffff163373ffffffffffffffffffffffffffffffffffffffff1614616cd463ffffffff16565b61132e616d1a63ffffffff16565b5b5b600160006000508190909055505b565b60036000505481565b601160009054906101000a900473ffffffffffffffffffffffffffffffffffffffff1681565b600d60009054906101000a900473ffffffffffffffffffffffffffffffffffffffff1681565b601b60009054906101000a900473ffffffffffffffffffffffffffffffffffffffff1681565b600060606001601e60005054141515611409576040517f08c379a000000000000000000000000000000000000000000000000000000000815260040161140090618eb0565b60405180910390fd5b6000601e600050819090905550611475601960009054906101000a900473ffffffffffffffffffffffffffffffffffffffff1673ffffffffffffffffffffffffffffffffffffffff163373ffffffffffffffffffffffffffffffffffffffff1614616cd463ffffffff16565b600f60009054906101000a900473ffffffffffffffffffffffffffffffffffffffff1673ffffffffffffffffffffffffffffffffffffffff1663a43c36af86866040518363ffffffff1660e01b81526004016114d2929190618848565b60006040518083038186803b1580156114eb5760006000fd5b505afa158015611500573d600060003e3d6000fd5b505050508473ffffffffffffffffffffffffffffffffffffffff1661152a85616eec63ffffffff16565b8460405160200161153c92919061855e565b60405160208183030381529060405260405161155891906185a9565b6000604051808303816000865af19150503d8060008114611595576040519150601f19603f3d011682016040523d82523d6000602084013e61159a565b606091505b50809250819350505081819015156115e8576040517f08c379a00000000000000000000000000000000000000000000000000000000081526004016115df9190618bdf565b60405180910390fd5b505b6001601e6000508190909055505b935093915050565b600c60009054906101000a900473ffffffffffffffffffffffffffffffffffffffff1681565b60026000506020528060005260406000206000915090505481565b601660009054906101000a900473ffffffffffffffffffffffffffffffffffffffff1681565b600f60009054906101000a900473ffffffffffffffffffffffffffffffffffffffff1681565b6116ec601b60009054906101000a900473ffffffffffffffffffffffffffffffffffffffff1673ffffffffffffffffffffffffffffffffffffffff163373ffffffffffffffffffffffffffffffffffffffff1614616cd463ffffffff16565b601b60149054906101000a900460ff1680156117155750601b60159054906101000a900460ff16155b15156117215760006000fd5b6001601b60156101000a81548160ff02191690831515021790555082600660006101000a81548173ffffffffffffffffffffffffffffffffffffffff021916908373ffffffffffffffffffffffffffffffffffffffff16021790555081600760006101000a81548173ffffffffffffffffffffffffffffffffffffffff021916908373ffffffffffffffffffffffffffffffffffffffff16021790555080600860005090805190602001906117d7929190617dd8565b50601760009054906101000a900473ffffffffffffffffffffffffffffffffffffffff1673ffffffffffffffffffffffffffffffffffffffff16638aea8f716040518163ffffffff1660e01b8152600401600060405180830381600087803b1580156118435760006000fd5b505af1158015611858573d600060003e3d6000fd5b50505050601060009054906101000a900473ffffffffffffffffffffffffffffffffffffffff1673ffffffffffffffffffffffffffffffffffffffff16638aea8f716040518163ffffffff1660e01b8152600401600060405180830381600087803b1580156118c75760006000fd5b505af11580156118dc573d600060003e3d6000fd5b50505050601460009054906101000a900473ffffffffffffffffffffffffffffffffffffffff1673ffffffffffffffffffffffffffffffffffffffff16638aea8f716040518163ffffffff1660e01b8152600401600060405180830381600087803b15801561194b5760006000fd5b505af1158015611960573d600060003e3d6000fd5b50505050601660009054906101000a900473ffffffffffffffffffffffffffffffffffffffff1673ffffffffffffffffffffffffffffffffffffffff16638aea8f716040518163ffffffff1660e01b8152600401600060405180830381600087803b1580156119cf5760006000fd5b505af11580156119e4573d600060003e3d6000fd5b50505050601260009054906101000a900473ffffffffffffffffffffffffffffffffffffffff1673ffffffffffffffffffffffffffffffffffffffff16638aea8f716040518163ffffffff1660e01b8152600401600060405180830381600087803b158015611a535760006000fd5b505af1158015611a68573d600060003e3d6000fd5b50505050600a60009054906101000a900473ffffffffffffffffffffffffffffffffffffffff1673ffffffffffffffffffffffffffffffffffffffff16638aea8f716040518163ffffffff1660e01b8152600401600060405180830381600087803b158015611ad75760006000fd5b505af1158015611aec573d600060003e3d6000fd5b50505050601360009054906101000a900473ffffffffffffffffffffffffffffffffffffffff1673ffffffffffffffffffffffffffffffffffffffff16638aea8f716040518163ffffffff1660e01b8152600401600060405180830381600087803b158015611b5b5760006000fd5b505af1158015611b70573d600060003e3d6000fd5b505050506000604051806080016040528063685a1cd660e01b7bffffffffffffffffffffffffffffffffffffffffffffffffffffffff19167bffffffffffffffffffffffffffffffffffffffffffffffffffffffff1916815260200163827015c360e01b7bffffffffffffffffffffffffffffffffffffffffffffffffffffffff19167bffffffffffffffffffffffffffffffffffffffffffffffffffffffff1916815260200163232948ea60e01b7bffffffffffffffffffffffffffffffffffffffffffffffffffffffff19167bffffffffffffffffffffffffffffffffffffffffffffffffffffffff1916815260200163b8188c8160e01b7bffffffffffffffffffffffffffffffffffffffffffffffffffffffff19167bffffffffffffffffffffffffffffffffffffffffffffffffffffffff191681526020015090506000600090505b81506004811015611d4f576001601a60005060008484600481101515611cd957fe5b60200201517bffffffffffffffffffffffffffffffffffffffffffffffffffffffff19167bffffffffffffffffffffffffffffffffffffffffffffffffffffffff1916815260200190815260200160002060006101000a81548160ff0219169083151502179055505b8080600101915050611cb7565b50601b60006101000a81549073ffffffffffffffffffffffffffffffffffffffff0219169055505b5b505050565b601860009054906101000a900473ffffffffffffffffffffffffffffffffffffffff1681565b60056000505481565b600160009054906101000a900467ffffffffffffffff1681565b600260006000505414151515611e47576040517f08c379a000000000000000000000000000000000000000000000000000000000815260040180806020018281038252601f8152602001807f5265656e7472616e637947756172643a207265656e7472616e742063616c6c0081526020015060200191505060405180910390fd5b60026000600050819090905550611e913073ffffffffffffffffffffffffffffffffffffffff163373ffffffffffffffffffffffffffffffffffffffff1614616cd463ffffffff16565b611f2a6008600050805480602002602001604051908101604052809291908181526020018280548015611f1957602002820191906000526020600020905b8160009054906101000a900473ffffffffffffffffffffffffffffffffffffffff1673ffffffffffffffffffffffffffffffffffffffff1681526020019060010190808311611ecf575b505050505082616f0263ffffffff16565b151515611f6c576040517f08c379a0000000000000000000000000000000000000000000000000000000008152600401611f6390618df3565b60405180910390fd5b6000601d60005060008373ffffffffffffffffffffffffffffffffffffffff1673ffffffffffffffffffffffffffffffffffffffff16815260200190815260200160002060009054906101000a900467ffffffffffffffff1667ffffffffffffffff16141515612011576040517f08c379a000000000000000000000000000000000000000000000000000000000815260040161200890618cb8565b60405180910390fd5b600860005081908060018154018082558091505060019003906000526020600020900160005b9091909190916101000a81548173ffffffffffffffffffffffffffffffffffffffff021916908373ffffffffffffffffffffffffffffffffffffffff160217905550601060009054906101000a900473ffffffffffffffffffffffffffffffffffffffff1673ffffffffffffffffffffffffffffffffffffffff1663c381c1e6826040518263ffffffff1660e01b81526004016120d49190618bb7565b600060405180830381600087803b1580156120ef5760006000fd5b505af1158015612104573d600060003e3d6000fd5b50505050601660009054906101000a900473ffffffffffffffffffffffffffffffffffffffff1673ffffffffffffffffffffffffffffffffffffffff1663c381c1e6826040518263ffffffff1660e01b81526004016121639190618bb7565b600060405180830381600087803b15801561217e5760006000fd5b505af1158015612193573d600060003e3d6000fd5b50505050601760009054906101000a900473ffffffffffffffffffffffffffffffffffffffff1673ffffffffffffffffffffffffffffffffffffffff1663c381c1e6826040518263ffffffff1660e01b81526004016121f29190618bb7565b600060405180830381600087803b15801561220d5760006000fd5b505af1158015612222573d600060003e3d6000fd5b50505050601460009054906101000a900473ffffffffffffffffffffffffffffffffffffffff1673ffffffffffffffffffffffffffffffffffffffff1663c381c1e6826040518263ffffffff1660e01b81526004016122819190618bb7565b600060405180830381600087803b15801561229c5760006000fd5b505af11580156122b1573d600060003e3d6000fd5b505050505b5b600160006000508190909055505b50565b61237f601360009054906101000a900473ffffffffffffffffffffffffffffffffffffffff1673ffffffffffffffffffffffffffffffffffffffff168273ffffffffffffffffffffffffffffffffffffffff1614806123745750601260009054906101000a900473ffffffffffffffffffffffffffffffffffffffff1673ffffffffffffffffffffffffffffffffffffffff168273ffffffffffffffffffffffffffffffffffffffff16145b616cd463ffffffff16565b5b50565b600260006000505414151515612404576040517f08c379a000000000000000000000000000000000000000000000000000000000815260040180806020018281038252601f8152602001807f5265656e7472616e637947756172643a207265656e7472616e742063616c6c0081526020015060200191505060405180910390fd5b6002600060005081909090555061244e3073ffffffffffffffffffffffffffffffffffffffff163373ffffffffffffffffffffffffffffffffffffffff1614616cd463ffffffff16565b601560009054906101000a900473ffffffffffffffffffffffffffffffffffffffff1673ffffffffffffffffffffffffffffffffffffffff16634ac8c5ae601760009054906101000a900473ffffffffffffffffffffffffffffffffffffffff166040518263ffffffff1660e01b81526004016124cb91906187b3565b600060405180830381600087803b1580156124e65760006000fd5b505af11580156124fb573d600060003e3d6000fd5b50505050601760009054906101000a900473ffffffffffffffffffffffffffffffffffffffff1673ffffffffffffffffffffffffffffffffffffffff166307da68f56040518163ffffffff1660e01b8152600401600060405180830381600087803b15801561256a5760006000fd5b505af115801561257f573d600060003e3d6000fd5b5050505080601760006101000a81548173ffffffffffffffffffffffffffffffffffffffff021916908373ffffffffffffffffffffffffffffffffffffffff160217905550601560009054906101000a900473ffffffffffffffffffffffffffffffffffffffff1673ffffffffffffffffffffffffffffffffffffffff16632c388d5d601760009054906101000a900473ffffffffffffffffffffffffffffffffffffffff166040518263ffffffff1660e01b815260040161264191906187b3565b600060405180830381600087803b15801561265c5760006000fd5b505af1158015612671573d600060003e3d6000fd5b50505050600960009054906101000a900473ffffffffffffffffffffffffffffffffffffffff1673ffffffffffffffffffffffffffffffffffffffff1663a678f336601760009054906101000a900473ffffffffffffffffffffffffffffffffffffffff166040518263ffffffff1660e01b81526004016126f291906187b3565b600060405180830381600087803b15801561270d5760006000fd5b505af1158015612722573d600060003e3d6000fd5b50505050601760009054906101000a900473ffffffffffffffffffffffffffffffffffffffff1673ffffffffffffffffffffffffffffffffffffffff1660405161276b9061862b565b60405180910390207f2b51ff7c4cc8e6fe1c72e9d9685b7d2a88a5d82ad3a644afbdceb0272c89c1c360405160405180910390a35b5b600160006000508190909055505b50565b600260006000505414151515612833576040517f08c379a000000000000000000000000000000000000000000000000000000000815260040180806020018281038252601f8152602001807f5265656e7472616e637947756172643a207265656e7472616e742063616c6c0081526020015060200191505060405180910390fd5b6002600060005081909090555061287d3073ffffffffffffffffffffffffffffffffffffffff163373ffffffffffffffffffffffffffffffffffffffff1614616cd463ffffffff16565b6000600160009054906101000a900467ffffffffffffffff1667ffffffffffffffff161115156128e2576040517f08c379a00000000000000000000000000000000000000000000000000000000081526004016128d990618e71565b60405180910390fd5b600c60009054906101000a900473ffffffffffffffffffffffffffffffffffffffff1673ffffffffffffffffffffffffffffffffffffffff166342966c68600c60009054906101000a900473ffffffffffffffffffffffffffffffffffffffff1673ffffffffffffffffffffffffffffffffffffffff166370a08231306040518263ffffffff1660e01b815260040161297b91906187b3565b60206040518083038186803b1580156129945760006000fd5b505afa1580156129a9573d600060003e3d6000fd5b505050506040513d601f19601f820116820180604052508101906129cd9190618472565b6040518263ffffffff1660e01b81526004016129e99190618eef565b600060405180830381600087803b158015612a045760006000fd5b505af1158015612a19573d600060003e3d6000fd5b50505050600c60009054906101000a900473ffffffffffffffffffffffffffffffffffffffff1673ffffffffffffffffffffffffffffffffffffffff16633c4a25d0826040518263ffffffff1660e01b8152600401612a7891906187b3565b600060405180830381600087803b158015612a935760006000fd5b505af1158015612aa8573d600060003e3d6000fd5b505050508073ffffffffffffffffffffffffffffffffffffffff167f078ca541eec5b410213fc65330fc5a7324eb56fe692344e7bc1b8be56bd3c16960405160405180910390a25b5b600160006000508190909055505b50565b601360009054906101000a900473ffffffffffffffffffffffffffffffffffffffff1681565b600260006000505414151515612ba9576040517f08c379a000000000000000000000000000000000000000000000000000000000815260040180806020018281038252601f8152602001807f5265656e7472616e637947756172643a207265656e7472616e742063616c6c0081526020015060200191505060405180910390fd5b60026000600050819090905550612bf33073ffffffffffffffffffffffffffffffffffffffff163373ffffffffffffffffffffffffffffffffffffffff1614616cd463ffffffff16565b6001600860005080549050111515612c40576040517f08c379a0000000000000000000000000000000000000000000000000000000008152600401612c3790618d75565b60405180910390fd5b612c4e616f8563ffffffff16565b601d60005060008373ffffffffffffffffffffffffffffffffffffffff1673ffffffffffffffffffffffffffffffffffffffff16815260200190815260200160002060006101000a81548167ffffffffffffffff021916908367ffffffffffffffff160217905550612d4f6008600050805480602002602001604051908101604052809291908181526020018280548015612d3e57602002820191906000526020600020905b8160009054906101000a900473ffffffffffffffffffffffffffffffffffffffff1673ffffffffffffffffffffffffffffffffffffffff1681526020019060010190808311612cf4575b505050505082616fa063ffffffff16565b60086000509080519060200190612d67929190617dd8565b50601060009054906101000a900473ffffffffffffffffffffffffffffffffffffffff1673ffffffffffffffffffffffffffffffffffffffff1663150147d7826040518263ffffffff1660e01b8152600401612dc39190618bb7565b600060405180830381600087803b158015612dde5760006000fd5b505af1158015612df3573d600060003e3d6000fd5b50505050601660009054906101000a900473ffffffffffffffffffffffffffffffffffffffff1673ffffffffffffffffffffffffffffffffffffffff1663150147d7826040518263ffffffff1660e01b8152600401612e529190618bb7565b600060405180830381600087803b158015612e6d5760006000fd5b505af1158015612e82573d600060003e3d6000fd5b50505050601760009054906101000a900473ffffffffffffffffffffffffffffffffffffffff1673ffffffffffffffffffffffffffffffffffffffff1663150147d7826040518263ffffffff1660e01b8152600401612ee19190618bb7565b600060405180830381600087803b158015612efc5760006000fd5b505af1158015612f11573d600060003e3d6000fd5b505050505b5b600160006000508190909055505b50565b600260006000505414151515612fa9576040517f08c379a000000000000000000000000000000000000000000000000000000000815260040180806020018281038252601f8152602001807f5265656e7472616e637947756172643a207265656e7472616e742063616c6c0081526020015060200191505060405180910390fd5b60026000600050819090905550612ff33073ffffffffffffffffffffffffffffffffffffffff163373ffffffffffffffffffffffffffffffffffffffff1614616cd463ffffffff16565b601560009054906101000a900473ffffffffffffffffffffffffffffffffffffffff1673ffffffffffffffffffffffffffffffffffffffff16634ac8c5ae601460009054906101000a900473ffffffffffffffffffffffffffffffffffffffff166040518263ffffffff1660e01b815260040161307091906187b3565b600060405180830381600087803b15801561308b5760006000fd5b505af11580156130a0573d600060003e3d6000fd5b50505050601460009054906101000a900473ffffffffffffffffffffffffffffffffffffffff1673ffffffffffffffffffffffffffffffffffffffff166307da68f56040518163ffffffff1660e01b8152600401600060405180830381600087803b15801561310f5760006000fd5b505af1158015613124573d600060003e3d6000fd5b5050505080601460006101000a81548173ffffffffffffffffffffffffffffffffffffffff021916908373ffffffffffffffffffffffffffffffffffffffff160217905550601560009054906101000a900473ffffffffffffffffffffffffffffffffffffffff1673ffffffffffffffffffffffffffffffffffffffff16632c388d5d601460009054906101000a900473ffffffffffffffffffffffffffffffffffffffff166040518263ffffffff1660e01b81526004016131e691906187b3565b600060405180830381600087803b1580156132015760006000fd5b505af1158015613216573d600060003e3d6000fd5b50505050601460009054906101000a900473ffffffffffffffffffffffffffffffffffffffff1673ffffffffffffffffffffffffffffffffffffffff1660405161325f90618782565b60405180910390207f2b51ff7c4cc8e6fe1c72e9d9685b7d2a88a5d82ad3a644afbdceb0272c89c1c360405160405180910390a35b5b600160006000508190909055505b50565b600660009054906101000a900473ffffffffffffffffffffffffffffffffffffffff1681565b600a60009054906101000a900473ffffffffffffffffffffffffffffffffffffffff1681565b60006040518060400160405280601581526020017f4875652050726f746f636f6c20476f7665726e6f72000000000000000000000081526020015061333b61712a63ffffffff16565b308460405160200161335094939291906185c8565b60405160208183030381529060405280519060200120905061336d565b919050565b6002600060005054141515156133f3576040517f08c379a000000000000000000000000000000000000000000000000000000000815260040180806020018281038252601f8152602001807f5265656e7472616e637947756172643a207265656e7472616e742063616c6c0081526020015060200191505060405180910390fd5b60026000600050819090905550600033905060008211151561344a576040517f08c379a000000000000000000000000000000000000000000000000000000000815260040161344190618cf7565b60405180910390fd5b6134a282600260005060008473ffffffffffffffffffffffffffffffffffffffff1673ffffffffffffffffffffffffffffffffffffffff1681526020019081526020016000206000505461713e90919063ffffffff16565b600260005060008373ffffffffffffffffffffffffffffffffffffffff1673ffffffffffffffffffffffffffffffffffffffff168152602001908152602001600020600050819090905550613543600c60009054906101000a900473ffffffffffffffffffffffffffffffffffffffff1682600f60009054906101000a900473ffffffffffffffffffffffffffffffffffffffff16856171c763ffffffff16565b6135516173f263ffffffff16565b8073ffffffffffffffffffffffffffffffffffffffff167f6f076ad9d1927fd5f792070276b90549d2433311ff94fe0d7afba682c150817a836040516135979190618eef565b60405180910390a2505b600160006000508190909055505b50565b600260006000505414151515613633576040517f08c379a000000000000000000000000000000000000000000000000000000000815260040180806020018281038252601f8152602001807f5265656e7472616e637947756172643a207265656e7472616e742063616c6c0081526020015060200191505060405180910390fd5b6002600060005081909090555061367d3073ffffffffffffffffffffffffffffffffffffffff163373ffffffffffffffffffffffffffffffffffffffff1614616cd463ffffffff16565b601560009054906101000a900473ffffffffffffffffffffffffffffffffffffffff1673ffffffffffffffffffffffffffffffffffffffff16634ac8c5ae601860009054906101000a900473ffffffffffffffffffffffffffffffffffffffff166040518263ffffffff1660e01b81526004016136fa91906187b3565b600060405180830381600087803b1580156137155760006000fd5b505af115801561372a573d600060003e3d6000fd5b50505050601860009054906101000a900473ffffffffffffffffffffffffffffffffffffffff1673ffffffffffffffffffffffffffffffffffffffff166307da68f56040518163ffffffff1660e01b8152600401600060405180830381600087803b1580156137995760006000fd5b505af11580156137ae573d600060003e3d6000fd5b5050505080601860006101000a81548173ffffffffffffffffffffffffffffffffffffffff021916908373ffffffffffffffffffffffffffffffffffffffff160217905550601560009054906101000a900473ffffffffffffffffffffffffffffffffffffffff1673ffffffffffffffffffffffffffffffffffffffff16632c388d5d601860009054906101000a900473ffffffffffffffffffffffffffffffffffffffff166040518263ffffffff1660e01b815260040161387091906187b3565b600060405180830381600087803b15801561388b5760006000fd5b505af11580156138a0573d600060003e3d6000fd5b50505050601860009054906101000a900473ffffffffffffffffffffffffffffffffffffffff1673ffffffffffffffffffffffffffffffffffffffff166040516138e99061868d565b60405180910390207f2b51ff7c4cc8e6fe1c72e9d9685b7d2a88a5d82ad3a644afbdceb0272c89c1c360405160405180910390a35b5b600160006000508190909055505b50565b6139e7601260009054906101000a900473ffffffffffffffffffffffffffffffffffffffff1673ffffffffffffffffffffffffffffffffffffffff168273ffffffffffffffffffffffffffffffffffffffff1614806139dc5750601860009054906101000a900473ffffffffffffffffffffffffffffffffffffffff1673ffffffffffffffffffffffffffffffffffffffff168273ffffffffffffffffffffffffffffffffffffffff16145b616cd463ffffffff16565b5b50565b600960009054906101000a900473ffffffffffffffffffffffffffffffffffffffff1681565b601060009054906101000a900473ffffffffffffffffffffffffffffffffffffffff1681565b601260009054906101000a900473ffffffffffffffffffffffffffffffffffffffff1681565b613abc601b60009054906101000a900473ffffffffffffffffffffffffffffffffffffffff1673ffffffffffffffffffffffffffffffffffffffff163373ffffffffffffffffffffffffffffffffffffffff1614616cd463ffffffff16565b601b60149054906101000a900460ff16158015613ae65750601b60159054906101000a900460ff16155b1515613af25760006000fd5b6001601b60146101000a81548160ff02191690831515021790555082601560006101000a81548173ffffffffffffffffffffffffffffffffffffffff021916908373ffffffffffffffffffffffffffffffffffffffff160217905550601560009054906101000a900473ffffffffffffffffffffffffffffffffffffffff1673ffffffffffffffffffffffffffffffffffffffff16632c388d5d306040518263ffffffff1660e01b8152600401613ba991906187b3565b600060405180830381600087803b158015613bc45760006000fd5b505af1158015613bd9573d600060003e3d6000fd5b50505050601560009054906101000a900473ffffffffffffffffffffffffffffffffffffffff1673ffffffffffffffffffffffffffffffffffffffff16632c388d5d600f60009054906101000a900473ffffffffffffffffffffffffffffffffffffffff166040518263ffffffff1660e01b8152600401613c5a91906187b3565b600060405180830381600087803b158015613c755760006000fd5b505af1158015613c8a573d600060003e3d6000fd5b5050505089600a60006101000a81548173ffffffffffffffffffffffffffffffffffffffff021916908373ffffffffffffffffffffffffffffffffffffffff160217905550601560009054906101000a900473ffffffffffffffffffffffffffffffffffffffff1673ffffffffffffffffffffffffffffffffffffffff16632c388d5d600a60009054906101000a900473ffffffffffffffffffffffffffffffffffffffff166040518263ffffffff1660e01b8152600401613d4c91906187b3565b600060405180830381600087803b158015613d675760006000fd5b505af1158015613d7c573d600060003e3d6000fd5b5050505088600c60006101000a81548173ffffffffffffffffffffffffffffffffffffffff021916908373ffffffffffffffffffffffffffffffffffffffff160217905550601560009054906101000a900473ffffffffffffffffffffffffffffffffffffffff1673ffffffffffffffffffffffffffffffffffffffff16632c388d5d600d60009054906101000a900473ffffffffffffffffffffffffffffffffffffffff166040518263ffffffff1660e01b8152600401613e3e91906187b3565b600060405180830381600087803b158015613e595760006000fd5b505af1158015613e6e573d600060003e3d6000fd5b5050505087601060006101000a81548173ffffffffffffffffffffffffffffffffffffffff021916908373ffffffffffffffffffffffffffffffffffffffff160217905550601560009054906101000a900473ffffffffffffffffffffffffffffffffffffffff1673ffffffffffffffffffffffffffffffffffffffff16632c388d5d601060009054906101000a900473ffffffffffffffffffffffffffffffffffffffff166040518263ffffffff1660e01b8152600401613f3091906187b3565b600060405180830381600087803b158015613f4b5760006000fd5b505af1158015613f60573d600060003e3d6000fd5b5050505086601260006101000a81548173ffffffffffffffffffffffffffffffffffffffff021916908373ffffffffffffffffffffffffffffffffffffffff160217905550601560009054906101000a900473ffffffffffffffffffffffffffffffffffffffff1673ffffffffffffffffffffffffffffffffffffffff16632c388d5d601260009054906101000a900473ffffffffffffffffffffffffffffffffffffffff166040518263ffffffff1660e01b815260040161402291906187b3565b600060405180830381600087803b15801561403d5760006000fd5b505af1158015614052573d600060003e3d6000fd5b5050505085601360006101000a81548173ffffffffffffffffffffffffffffffffffffffff021916908373ffffffffffffffffffffffffffffffffffffffff160217905550601560009054906101000a900473ffffffffffffffffffffffffffffffffffffffff1673ffffffffffffffffffffffffffffffffffffffff16632c388d5d601360009054906101000a900473ffffffffffffffffffffffffffffffffffffffff166040518263ffffffff1660e01b815260040161411491906187b3565b600060405180830381600087803b15801561412f5760006000fd5b505af1158015614144573d600060003e3d6000fd5b5050505083601460006101000a81548173ffffffffffffffffffffffffffffffffffffffff021916908373ffffffffffffffffffffffffffffffffffffffff160217905550601560009054906101000a900473ffffffffffffffffffffffffffffffffffffffff1673ffffffffffffffffffffffffffffffffffffffff16632c388d5d601460009054906101000a900473ffffffffffffffffffffffffffffffffffffffff166040518263ffffffff1660e01b815260040161420691906187b3565b600060405180830381600087803b1580156142215760006000fd5b505af1158015614236573d600060003e3d6000fd5b5050505084601660006101000a81548173ffffffffffffffffffffffffffffffffffffffff021916908373ffffffffffffffffffffffffffffffffffffffff160217905550601560009054906101000a900473ffffffffffffffffffffffffffffffffffffffff1673ffffffffffffffffffffffffffffffffffffffff16632c388d5d601660009054906101000a900473ffffffffffffffffffffffffffffffffffffffff166040518263ffffffff1660e01b81526004016142f891906187b3565b600060405180830381600087803b1580156143135760006000fd5b505af1158015614328573d600060003e3d6000fd5b5050505081601760006101000a81548173ffffffffffffffffffffffffffffffffffffffff021916908373ffffffffffffffffffffffffffffffffffffffff160217905550601560009054906101000a900473ffffffffffffffffffffffffffffffffffffffff1673ffffffffffffffffffffffffffffffffffffffff16632c388d5d601760009054906101000a900473ffffffffffffffffffffffffffffffffffffffff166040518263ffffffff1660e01b81526004016143ea91906187b3565b600060405180830381600087803b1580156144055760006000fd5b505af115801561441a573d600060003e3d6000fd5b5050505080601860006101000a81548173ffffffffffffffffffffffffffffffffffffffff021916908373ffffffffffffffffffffffffffffffffffffffff160217905550601560009054906101000a900473ffffffffffffffffffffffffffffffffffffffff1673ffffffffffffffffffffffffffffffffffffffff16632c388d5d601860009054906101000a900473ffffffffffffffffffffffffffffffffffffffff166040518263ffffffff1660e01b81526004016144dc91906187b3565b600060405180830381600087803b1580156144f75760006000fd5b505af115801561450c573d600060003e3d6000fd5b505050505b5b50505050505050505050565b601760009054906101000a900473ffffffffffffffffffffffffffffffffffffffff1681565b6145fb601360009054906101000a900473ffffffffffffffffffffffffffffffffffffffff1673ffffffffffffffffffffffffffffffffffffffff168273ffffffffffffffffffffffffffffffffffffffff1614806145f05750601060009054906101000a900473ffffffffffffffffffffffffffffffffffffffff1673ffffffffffffffffffffffffffffffffffffffff168273ffffffffffffffffffffffffffffffffffffffff16145b616cd463ffffffff16565b5b50565b600260006000505414151515614680576040517f08c379a000000000000000000000000000000000000000000000000000000000815260040180806020018281038252601f8152602001807f5265656e7472616e637947756172643a207265656e7472616e742063616c6c0081526020015060200191505060405180910390fd5b600260006000508190909055506146ca3073ffffffffffffffffffffffffffffffffffffffff163373ffffffffffffffffffffffffffffffffffffffff1614616cd463ffffffff16565b601560009054906101000a900473ffffffffffffffffffffffffffffffffffffffff1673ffffffffffffffffffffffffffffffffffffffff16634ac8c5ae601660009054906101000a900473ffffffffffffffffffffffffffffffffffffffff166040518263ffffffff1660e01b815260040161474791906187b3565b600060405180830381600087803b1580156147625760006000fd5b505af1158015614777573d600060003e3d6000fd5b50505050601660009054906101000a900473ffffffffffffffffffffffffffffffffffffffff1673ffffffffffffffffffffffffffffffffffffffff166307da68f56040518163ffffffff1660e01b8152600401600060405180830381600087803b1580156147e65760006000fd5b505af11580156147fb573d600060003e3d6000fd5b5050505080601660006101000a81548173ffffffffffffffffffffffffffffffffffffffff021916908373ffffffffffffffffffffffffffffffffffffffff160217905550601560009054906101000a900473ffffffffffffffffffffffffffffffffffffffff1673ffffffffffffffffffffffffffffffffffffffff16632c388d5d601660009054906101000a900473ffffffffffffffffffffffffffffffffffffffff166040518263ffffffff1660e01b81526004016148bd91906187b3565b600060405180830381600087803b1580156148d85760006000fd5b505af11580156148ed573d600060003e3d6000fd5b50505050601660009054906101000a900473ffffffffffffffffffffffffffffffffffffffff1673ffffffffffffffffffffffffffffffffffffffff166040516149369061865c565b60405180910390207f2b51ff7c4cc8e6fe1c72e9d9685b7d2a88a5d82ad3a644afbdceb0272c89c1c360405160405180910390a35b5b600160006000508190909055505b50565b6040518060400160405280601581526020017f4875652050726f746f636f6c20476f7665726e6f72000000000000000000000081526020015081565b600f60009054906101000a900473ffffffffffffffffffffffffffffffffffffffff1673ffffffffffffffffffffffffffffffffffffffff1663a43c36af8484846040518463ffffffff1660e01b8152600401614a18939291906187db565b60006040518083038186803b158015614a315760006000fd5b505afa158015614a46573d600060003e3d6000fd5b505050505b505050565b600e60009054906101000a900473ffffffffffffffffffffffffffffffffffffffff1681565b6000614ab4600460005054614aa6600360005054614a9861670163ffffffff16565b61713e90919063ffffffff16565b6174a390919063ffffffff16565b9050614abb565b90565b60606008600050805480602002602001604051908101604052809291908181526020018280548015614b4557602002820191906000526020600020905b8160009054906101000a900473ffffffffffffffffffffffffffffffffffffffff1673ffffffffffffffffffffffffffffffffffffffff1681526020019060010190808311614afb575b50505050509050614b51565b90565b600260006000505414151515614bd5576040517f08c379a000000000000000000000000000000000000000000000000000000000815260040180806020018281038252601f8152602001807f5265656e7472616e637947756172643a207265656e7472616e742063616c6c0081526020015060200191505060405180910390fd5b600260006000508190909055506000339050614c9e601360009054906101000a900473ffffffffffffffffffffffffffffffffffffffff1673ffffffffffffffffffffffffffffffffffffffff168273ffffffffffffffffffffffffffffffffffffffff161480614c935750601760009054906101000a900473ffffffffffffffffffffffffffffffffffffffff1673ffffffffffffffffffffffffffffffffffffffff168273ffffffffffffffffffffffffffffffffffffffff16145b616cd463ffffffff16565b6000600c60009054906101000a900473ffffffffffffffffffffffffffffffffffffffff1673ffffffffffffffffffffffffffffffffffffffff166370a08231306040518263ffffffff1660e01b8152600401614cfb91906187b3565b60206040518083038186803b158015614d145760006000fd5b505afa158015614d29573d600060003e3d6000fd5b505050506040513d601f19601f82011682018060405250810190614d4d9190618472565b905082811015614e2c576000811115614d9457614d93600c60009054906101000a900473ffffffffffffffffffffffffffffffffffffffff16858361752c63ffffffff16565b5b600c60009054906101000a900473ffffffffffffffffffffffffffffffffffffffff1673ffffffffffffffffffffffffffffffffffffffff1663449a52f8858386036040518363ffffffff1660e01b8152600401614df3929190618881565b600060405180830381600087803b158015614e0e5760006000fd5b505af1158015614e23573d600060003e3d6000fd5b50505050614e60565b614e5f600c60009054906101000a900473ffffffffffffffffffffffffffffffffffffffff16858561752c63ffffffff16565b5b50505b600160006000508190909055505b5050565b601481565b614f31601360009054906101000a900473ffffffffffffffffffffffffffffffffffffffff1673ffffffffffffffffffffffffffffffffffffffff168273ffffffffffffffffffffffffffffffffffffffff161480614f265750601060009054906101000a900473ffffffffffffffffffffffffffffffffffffffff1673ffffffffffffffffffffffffffffffffffffffff168273ffffffffffffffffffffffffffffffffffffffff16145b616cd463ffffffff16565b5b50565b600260006000505414151515614fb6576040517f08c379a000000000000000000000000000000000000000000000000000000000815260040180806020018281038252601f8152602001807f5265656e7472616e637947756172643a207265656e7472616e742063616c6c0081526020015060200191505060405180910390fd5b600260006000508190909055506150003073ffffffffffffffffffffffffffffffffffffffff163373ffffffffffffffffffffffffffffffffffffffff1614616cd463ffffffff16565b6000601f60009054906101000a900467ffffffffffffffff1667ffffffffffffffff16141515615065576040517f08c379a000000000000000000000000000000000000000000000000000000000815260040161505c90618d36565b60405180910390fd5b6150748161773863ffffffff16565b601f60006101000a81548167ffffffffffffffff021916908367ffffffffffffffff160217905550600f60009054906101000a900473ffffffffffffffffffffffffffffffffffffffff1673ffffffffffffffffffffffffffffffffffffffff1663b8188c81826040518263ffffffff1660e01b81526004016150f79190618f01565b600060405180830381600087803b1580156151125760006000fd5b505af1158015615127573d600060003e3d6000fd5b505050505b5b600160006000508190909055505b50565b60006002600f60009054906101000a900473ffffffffffffffffffffffffffffffffffffffff1673ffffffffffffffffffffffffffffffffffffffff1663055ad42e6040518163ffffffff1660e01b815260040160206040518083038186803b1580156151ab5760006000fd5b505afa1580156151c0573d600060003e3d6000fd5b505050506040513d601f19601f820116820180604052508101906151e491906184ea565b60ff161015156151f757600090506152e6565b600061524961521961520e866132f263ffffffff16565b6177c063ffffffff16565b84600001602081019061522c91906184c3565b85602001356000191686604001356000191661782463ffffffff16565b90507f000000000000000000000000000000000000000000000000000000000000000073ffffffffffffffffffffffffffffffffffffffff168173ffffffffffffffffffffffffffffffffffffffff161415156152db576040517f08c379a00000000000000000000000000000000000000000000000000000000081526004016152d290618bfb565b60405180910390fd5b60019150506152e656505b92915050565b60026000600050541415151561536d576040517f08c379a000000000000000000000000000000000000000000000000000000000815260040180806020018281038252601f8152602001807f5265656e7472616e637947756172643a207265656e7472616e742063616c6c0081526020015060200191505060405180910390fd5b600260006000508190909055506153b73073ffffffffffffffffffffffffffffffffffffffff163373ffffffffffffffffffffffffffffffffffffffff1614616cd463ffffffff16565b601560009054906101000a900473ffffffffffffffffffffffffffffffffffffffff1673ffffffffffffffffffffffffffffffffffffffff16634ac8c5ae601260009054906101000a900473ffffffffffffffffffffffffffffffffffffffff166040518263ffffffff1660e01b815260040161543491906187b3565b600060405180830381600087803b15801561544f5760006000fd5b505af1158015615464573d600060003e3d6000fd5b50505050601260009054906101000a900473ffffffffffffffffffffffffffffffffffffffff1673ffffffffffffffffffffffffffffffffffffffff166307da68f56040518163ffffffff1660e01b8152600401600060405180830381600087803b1580156154d35760006000fd5b505af11580156154e8573d600060003e3d6000fd5b5050505080601260006101000a81548173ffffffffffffffffffffffffffffffffffffffff021916908373ffffffffffffffffffffffffffffffffffffffff160217905550601560009054906101000a900473ffffffffffffffffffffffffffffffffffffffff1673ffffffffffffffffffffffffffffffffffffffff16632c388d5d601260009054906101000a900473ffffffffffffffffffffffffffffffffffffffff166040518263ffffffff1660e01b81526004016155aa91906187b3565b600060405180830381600087803b1580156155c55760006000fd5b505af11580156155da573d600060003e3d6000fd5b50505050601260009054906101000a900473ffffffffffffffffffffffffffffffffffffffff1673ffffffffffffffffffffffffffffffffffffffff1660405161562390618751565b60405180910390207f2b51ff7c4cc8e6fe1c72e9d9685b7d2a88a5d82ad3a644afbdceb0272c89c1c360405160405180910390a35b5b600160006000508190909055505b50565b60006000600160009054906101000a900467ffffffffffffffff1667ffffffffffffffff16119050615697565b90565b6157a9601360009054906101000a900473ffffffffffffffffffffffffffffffffffffffff1673ffffffffffffffffffffffffffffffffffffffff168273ffffffffffffffffffffffffffffffffffffffff1614806157465750601260009054906101000a900473ffffffffffffffffffffffffffffffffffffffff1673ffffffffffffffffffffffffffffffffffffffff168273ffffffffffffffffffffffffffffffffffffffff16145b8061579e5750601860009054906101000a900473ffffffffffffffffffffffffffffffffffffffff1673ffffffffffffffffffffffffffffffffffffffff168273ffffffffffffffffffffffffffffffffffffffff16145b616cd463ffffffff16565b5b50565b6158bc601360009054906101000a900473ffffffffffffffffffffffffffffffffffffffff1673ffffffffffffffffffffffffffffffffffffffff168273ffffffffffffffffffffffffffffffffffffffff1614806158595750601260009054906101000a900473ffffffffffffffffffffffffffffffffffffffff1673ffffffffffffffffffffffffffffffffffffffff168273ffffffffffffffffffffffffffffffffffffffff16145b806158b15750601860009054906101000a900473ffffffffffffffffffffffffffffffffffffffff1673ffffffffffffffffffffffffffffffffffffffff168273ffffffffffffffffffffffffffffffffffffffff16145b616cd463ffffffff16565b5b50565b61591f601360009054906101000a900473ffffffffffffffffffffffffffffffffffffffff1673ffffffffffffffffffffffffffffffffffffffff163373ffffffffffffffffffffffffffffffffffffffff1614616cd463ffffffff16565b6159378160046000505461713e90919063ffffffff16565b60046000508190909055505b50565b60006000600160009054906101000a900467ffffffffffffffff1667ffffffffffffffff16111561597a5760009050615a23565b600061598a616c5b63ffffffff16565b90506000601f60009054906101000a900467ffffffffffffffff1667ffffffffffffffff1614806159e45750601f60009054906101000a900467ffffffffffffffff1667ffffffffffffffff168167ffffffffffffffff16105b156159f3576000915050615a23565b615a1a601f60009054906101000a900467ffffffffffffffff168203617a3f63ffffffff16565b915050615a2356505b90565b7f000000000000000000000000000000000000000000000000000000000000000081565b6000615a746703782dace9d90000615a66614a7663ffffffff16565b617ac490919063ffffffff16565b600c60009054906101000a900473ffffffffffffffffffffffffffffffffffffffff1673ffffffffffffffffffffffffffffffffffffffff166370a08231600f60009054906101000a900473ffffffffffffffffffffffffffffffffffffffff166040518263ffffffff1660e01b8152600401615af191906187b3565b60206040518083038186803b158015615b0a5760006000fd5b505afa158015615b1f573d600060003e3d6000fd5b505050506040513d601f19601f82011682018060405250810190615b439190618472565b119050615b4b565b90565b600260006000505414151515615bcf576040517f08c379a000000000000000000000000000000000000000000000000000000000815260040180806020018281038252601f8152602001807f5265656e7472616e637947756172643a207265656e7472616e742063616c6c0081526020015060200191505060405180910390fd5b6002600060005081909090555043601c60005054101515615c25576040517f08c379a0000000000000000000000000000000000000000000000000000000008152600401615c1c90618db4565b60405180910390fd5b615c33616d1a63ffffffff16565b5b600160006000508190909055505b565b7f000000000000000000000000000000000000000000000000000000000000000081565b601960009054906101000a900473ffffffffffffffffffffffffffffffffffffffff1681565b601460009054906101000a900473ffffffffffffffffffffffffffffffffffffffff1681565b601560009054906101000a900473ffffffffffffffffffffffffffffffffffffffff1681565b601b60149054906101000a900460ff1681565b60086000508181548110615d0057600080fd5b906000526020600020900160005b9150909054906101000a900473ffffffffffffffffffffffffffffffffffffffff1681565b615e42601360009054906101000a900473ffffffffffffffffffffffffffffffffffffffff1673ffffffffffffffffffffffffffffffffffffffff168273ffffffffffffffffffffffffffffffffffffffff161480615ddf5750601260009054906101000a900473ffffffffffffffffffffffffffffffffffffffff1673ffffffffffffffffffffffffffffffffffffffff168273ffffffffffffffffffffffffffffffffffffffff16145b80615e375750601860009054906101000a900473ffffffffffffffffffffffffffffffffffffffff1673ffffffffffffffffffffffffffffffffffffffff168273ffffffffffffffffffffffffffffffffffffffff16145b616cd463ffffffff16565b5b50565b600260006000505414151515615ec7576040517f08c379a000000000000000000000000000000000000000000000000000000000815260040180806020018281038252601f8152602001807f5265656e7472616e637947756172643a207265656e7472616e742063616c6c0081526020015060200191505060405180910390fd5b60026000600050819090905550615f113073ffffffffffffffffffffffffffffffffffffffff163373ffffffffffffffffffffffffffffffffffffffff1614616cd463ffffffff16565b600073ffffffffffffffffffffffffffffffffffffffff16600b60009054906101000a900473ffffffffffffffffffffffffffffffffffffffff1673ffffffffffffffffffffffffffffffffffffffff1614151561609f57601560009054906101000a900473ffffffffffffffffffffffffffffffffffffffff1673ffffffffffffffffffffffffffffffffffffffff16634ac8c5ae600b60009054906101000a900473ffffffffffffffffffffffffffffffffffffffff166040518263ffffffff1660e01b8152600401615fe691906187b3565b600060405180830381600087803b1580156160015760006000fd5b505af1158015616016573d600060003e3d6000fd5b50505050600b60009054906101000a900473ffffffffffffffffffffffffffffffffffffffff1673ffffffffffffffffffffffffffffffffffffffff166307da68f56040518163ffffffff1660e01b8152600401600060405180830381600087803b1580156160855760006000fd5b505af115801561609a573d600060003e3d6000fd5b505050505b600a60009054906101000a900473ffffffffffffffffffffffffffffffffffffffff16600b60006101000a81548173ffffffffffffffffffffffffffffffffffffffff021916908373ffffffffffffffffffffffffffffffffffffffff16021790555080600a60006101000a81548173ffffffffffffffffffffffffffffffffffffffff021916908373ffffffffffffffffffffffffffffffffffffffff160217905550601560009054906101000a900473ffffffffffffffffffffffffffffffffffffffff1673ffffffffffffffffffffffffffffffffffffffff16632c388d5d600a60009054906101000a900473ffffffffffffffffffffffffffffffffffffffff166040518263ffffffff1660e01b81526004016161c091906187b3565b600060405180830381600087803b1580156161db5760006000fd5b505af11580156161f0573d600060003e3d6000fd5b50505050600a60009054906101000a900473ffffffffffffffffffffffffffffffffffffffff1673ffffffffffffffffffffffffffffffffffffffff1660405161623990618720565b60405180910390207f2b51ff7c4cc8e6fe1c72e9d9685b7d2a88a5d82ad3a644afbdceb0272c89c1c360405160405180910390a35b5b600160006000508190909055505b50565b600260006000505414151515616301576040517f08c379a000000000000000000000000000000000000000000000000000000000815260040180806020018281038252601f8152602001807f5265656e7472616e637947756172643a207265656e7472616e742063616c6c0081526020015060200191505060405180910390fd5b6002600060005081909090555060003390506163ca600a60009054906101000a900473ffffffffffffffffffffffffffffffffffffffff1673ffffffffffffffffffffffffffffffffffffffff168273ffffffffffffffffffffffffffffffffffffffff1614806163bf5750601660009054906101000a900473ffffffffffffffffffffffffffffffffffffffff1673ffffffffffffffffffffffffffffffffffffffff168273ffffffffffffffffffffffffffffffffffffffff16145b616cd463ffffffff16565b6163e28260036000505461713e90919063ffffffff16565b6003600050819090905550600c60009054906101000a900473ffffffffffffffffffffffffffffffffffffffff1673ffffffffffffffffffffffffffffffffffffffff1663449a52f884846040518363ffffffff1660e01b815260040161644a929190618881565b600060405180830381600087803b1580156164655760006000fd5b505af115801561647a573d600060003e3d6000fd5b50505050505b600160006000508190909055505b5050565b600260006000505414151515616513576040517f08c379a000000000000000000000000000000000000000000000000000000000815260040180806020018281038252601f8152602001807f5265656e7472616e637947756172643a207265656e7472616e742063616c6c0081526020015060200191505060405180910390fd5b6002600060005081909090555060003390506000600260005060008373ffffffffffffffffffffffffffffffffffffffff1673ffffffffffffffffffffffffffffffffffffffff1681526020019081526020016000206000505490506000811115156165b4576040517f08c379a00000000000000000000000000000000000000000000000000000000081526004016165ab90618cf7565b60405180910390fd5b6000600260005060008473ffffffffffffffffffffffffffffffffffffffff1673ffffffffffffffffffffffffffffffffffffffff168152602001908152602001600020600050819090905550600f60009054906101000a900473ffffffffffffffffffffffffffffffffffffffff1673ffffffffffffffffffffffffffffffffffffffff1663a83d711983836040518363ffffffff1660e01b815260040161665e929190618881565b600060405180830381600087803b1580156166795760006000fd5b505af115801561668e573d600060003e3d6000fd5b505050506166a06173f263ffffffff16565b8173ffffffffffffffffffffffffffffffffffffffff167fbfaf8d2920f9287ed71a7e47234c2043522ae8ffd246577b929897e0f2b3c075826040516166e69190618eef565b60405180910390a250505b600160006000508190909055505b565b60006000616713616c5b63ffffffff16565b90506000600160009054906101000a900467ffffffffffffffff1667ffffffffffffffff16111561676857616763600160009054906101000a900467ffffffffffffffff1661773863ffffffff16565b905080505b6000601f60009054906101000a900467ffffffffffffffff1667ffffffffffffffff1614806167c05750601f60009054906101000a900467ffffffffffffffff1667ffffffffffffffff168167ffffffffffffffff16105b156167cf576000915050616816565b61680d6005600050546167ff601f60009054906101000a900467ffffffffffffffff168403617aea63ffffffff16565b61713e90919063ffffffff16565b91505061681656505b90565b6703782dace9d9000081565b600760009054906101000a900473ffffffffffffffffffffffffffffffffffffffff1681565b6002600060005054141515156168cc576040517f08c379a000000000000000000000000000000000000000000000000000000000815260040180806020018281038252601f8152602001807f5265656e7472616e637947756172643a207265656e7472616e742063616c6c0081526020015060200191505060405180910390fd5b600260006000508190909055506169163073ffffffffffffffffffffffffffffffffffffffff163373ffffffffffffffffffffffffffffffffffffffff1614616cd463ffffffff16565b601560009054906101000a900473ffffffffffffffffffffffffffffffffffffffff1673ffffffffffffffffffffffffffffffffffffffff16634ac8c5ae601360009054906101000a900473ffffffffffffffffffffffffffffffffffffffff166040518263ffffffff1660e01b815260040161699391906187b3565b600060405180830381600087803b1580156169ae5760006000fd5b505af11580156169c3573d600060003e3d6000fd5b50505050601360009054906101000a900473ffffffffffffffffffffffffffffffffffffffff1673ffffffffffffffffffffffffffffffffffffffff166307da68f56040518163ffffffff1660e01b8152600401600060405180830381600087803b158015616a325760006000fd5b505af1158015616a47573d600060003e3d6000fd5b5050505080601360006101000a81548173ffffffffffffffffffffffffffffffffffffffff021916908373ffffffffffffffffffffffffffffffffffffffff160217905550601560009054906101000a900473ffffffffffffffffffffffffffffffffffffffff1673ffffffffffffffffffffffffffffffffffffffff16632c388d5d601360009054906101000a900473ffffffffffffffffffffffffffffffffffffffff166040518263ffffffff1660e01b8152600401616b0991906187b3565b600060405180830381600087803b158015616b245760006000fd5b505af1158015616b39573d600060003e3d6000fd5b50505050601360009054906101000a900473ffffffffffffffffffffffffffffffffffffffff1673ffffffffffffffffffffffffffffffffffffffff16604051616b82906186be565b60405180910390207f2b51ff7c4cc8e6fe1c72e9d9685b7d2a88a5d82ad3a644afbdceb0272c89c1c360405160405180910390a35b5b600160006000508190909055505b50565b60006801000000000000000082101515616c4e576040517f08c379a00000000000000000000000000000000000000000000000000000000081526004018080602001828103825260118152602001807f6d6f7265207468616e203634206269747300000000000000000000000000000081526020015060200191505060405180910390fd5b819050616c56565b919050565b60007f00000000000000000000000000000000000000000000000000000000000000007f000000000000000000000000000000000000000000000000000000000000000067ffffffffffffffff16616cb7616f8563ffffffff16565b67ffffffffffffffff16811515616cca57fe5b0403905080505b90565b801515616d16576040517f08c379a0000000000000000000000000000000000000000000000000000000008152600401616d0d90618c79565b60405180910390fd5b5b50565b6000600160009054906101000a900467ffffffffffffffff1667ffffffffffffffff16141515616d7f576040517f08c379a0000000000000000000000000000000000000000000000000000000008152600401616d7690618e32565b60405180910390fd5b601360009054906101000a900473ffffffffffffffffffffffffffffffffffffffff1673ffffffffffffffffffffffffffffffffffffffff1663a6afed956040518163ffffffff1660e01b8152600401600060405180830381600087803b158015616dea5760006000fd5b505af1158015616dff573d600060003e3d6000fd5b50505050601760009054906101000a900473ffffffffffffffffffffffffffffffffffffffff1673ffffffffffffffffffffffffffffffffffffffff16631afdbce46040518163ffffffff1660e01b8152600401600060405180830381600087803b158015616e6e5760006000fd5b505af1158015616e83573d600060003e3d6000fd5b50505050616e95616f8563ffffffff16565b600160006101000a81548167ffffffffffffffff021916908367ffffffffffffffff1602179055507f5a05a29d5ecece2d4f30720adf1a7449fc1ecb9a884a14629d08d3d2257ab90560405160405180910390a15b565b600081805190602001209050616efd565b919050565b60006000600090505b8351811015616f75578273ffffffffffffffffffffffffffffffffffffffff168482815181101515616f3957fe5b602002602001015173ffffffffffffffffffffffffffffffffffffffff161415616f67576001915050616f7f565b5b8080600101915050616f0b565b5060009050616f7f565b92915050565b6000616f9842616bc9909063ffffffff16565b905080505b90565b6060616fb28383616f0263ffffffff16565b1515616ff3576040517f08c379a0000000000000000000000000000000000000000000000000000000008152600401616fea90618c3a565b60405180910390fd5b6000600184510367ffffffffffffffff811180156170115760006000fd5b506040519080825280602002602001820160405280156170405781602001602082028036833780820191505090505b50905060006000600090505b8551811015617117578473ffffffffffffffffffffffffffffffffffffffff16868281518110151561707a57fe5b602002602001015173ffffffffffffffffffffffffffffffffffffffff161415156171095785818151811015156170ad57fe5b602002602001015183838151811015156170c357fe5b602002602001019073ffffffffffffffffffffffffffffffffffffffff16908173ffffffffffffffffffffffffffffffffffffffff168152602001505081806001019250505b5b808060010191505061704c565b5081925050506171245650505b92915050565b600060004690508091505061713b56505b90565b600082828401915081101515156171c0576040517f08c379a000000000000000000000000000000000000000000000000000000000815260040180806020018281038252600c8152602001807f6164642d6f766572666c6f77000000000000000000000000000000000000000081526020015060200191505060405180910390fd5b5b92915050565b600060008573ffffffffffffffffffffffffffffffffffffffff166323b872dd60e01b868686604051602401808473ffffffffffffffffffffffffffffffffffffffff1681526020018373ffffffffffffffffffffffffffffffffffffffff1681526020018281526020019350505050604051602081830303815290604052907bffffffffffffffffffffffffffffffffffffffffffffffffffffffff19166020820180517bffffffffffffffffffffffffffffffffffffffffffffffffffffffff83818316178352505050506040518082805190602001908083835b6020831015156172ca57805182525b6020820191506020810190506020830392506172a4565b6001836020036101000a0380198251168184511680821785525050505050509050019150506000604051808303816000865af19150503d806000811461732c576040519150601f19603f3d011682016040523d82523d6000602084013e617331565b606091505b50915091508180156173725750600081511480617371575080806020019051602081101561735f5760006000fd5b81019080805190602001909291905050505b5b15156173e9576040517f08c379a00000000000000000000000000000000000000000000000000000000081526004018080602001828103825260038152602001807f535446000000000000000000000000000000000000000000000000000000000081526020015060200191505060405180910390fd5b50505b50505050565b617400615a4a63ffffffff16565b15617444577fffffffffffffffffffffffffffffffffffffffffffffffffffffffffffffffff601c60005054141561743f5743601c6000508190909055505b6174a0565b7fffffffffffffffffffffffffffffffffffffffffffffffffffffffffffffffff601c6000505414151561749f577fffffffffffffffffffffffffffffffffffffffffffffffffffffffffffffffff601c6000508190909055505b5b5b565b60008282840391508111151515617525576040517f08c379a000000000000000000000000000000000000000000000000000000000815260040180806020018281038252600d8152602001807f7375622d756e646572666c6f770000000000000000000000000000000000000081526020015060200191505060405180910390fd5b5b92915050565b600060008473ffffffffffffffffffffffffffffffffffffffff1663a9059cbb60e01b8585604051602401808373ffffffffffffffffffffffffffffffffffffffff16815260200182815260200192505050604051602081830303815290604052907bffffffffffffffffffffffffffffffffffffffffffffffffffffffff19166020820180517bffffffffffffffffffffffffffffffffffffffffffffffffffffffff83818316178352505050506040518082805190602001908083835b60208310151561761157805182525b6020820191506020810190506020830392506175eb565b6001836020036101000a0380198251168184511680821785525050505050509050019150506000604051808303816000865af19150503d8060008114617673576040519150601f19603f3d011682016040523d82523d6000602084013e617678565b606091505b50915091508180156176b957506000815114806176b857508080602001905160208110156176a65760006000fd5b81019080805190602001909291905050505b5b1515617730576040517f08c379a00000000000000000000000000000000000000000000000000000000081526004018080602001828103825260028152602001807f535400000000000000000000000000000000000000000000000000000000000081526020015060200191505060405180910390fd5b50505b505050565b60006177b67f00000000000000000000000000000000000000000000000000000000000000007f000000000000000000000000000000000000000000000000000000000000000067ffffffffffffffff168467ffffffffffffffff1681151561779d57fe5b0467ffffffffffffffff16617c0a90919063ffffffff16565b905080505b919050565b60008160405160200180807f19457468657265756d205369676e6564204d6573736167653a0a333200000000815260200150601c018260001916815260200191505060405160208183030381529060405280519060200120905061781f565b919050565b60007f7fffffffffffffffffffffffffffffff5d576e7357a4501ddfe92f46681b20a08260001c111515156178a4576040517f08c379a0000000000000000000000000000000000000000000000000000000008152600401808060200182810382526022815260200180618fd36022913960400191505060405180910390fd5b601b8460ff1614806178b95750601c8460ff16145b1515617910576040517f08c379a0000000000000000000000000000000000000000000000000000000008152600401808060200182810382526022815260200180618ff56022913960400191505060405180910390fd5b60006001868686866040516000815260200160405260405180856000191681526020018460ff16815260200183600019168152602001826000191681526020019450505050506020604051602081039080840390855afa158015617979573d600060003e3d6000fd5b505050602060405103519050600073ffffffffffffffffffffffffffffffffffffffff168173ffffffffffffffffffffffffffffffffffffffff1614151515617a2d576040517f08c379a00000000000000000000000000000000000000000000000000000000081526004018080602001828103825260188152602001807f45434453413a20696e76616c6964207369676e6174757265000000000000000081526020015060200191505060405180910390fd5b80915050617a3756505b949350505050565b600061016d60140167ffffffffffffffff168267ffffffffffffffff16101515617a755769152d02c7e14af68000009050617abf565b601467ffffffffffffffff168267ffffffffffffffff16101515617aac57617aa560148303617ca763ffffffff16565b9050617abf565b6a01a784379d99db420000009050617abf565b919050565b6000617adf8383670de0b6b3a7640000617cd763ffffffff16565b905080505b92915050565b600061016d60140167ffffffffffffffff168267ffffffffffffffff16101515617b64576000600161016d601401840301905069152d02c7e14af68000008167ffffffffffffffff16026aa66dc1daeea92956000000601467ffffffffffffffff166a01a784379d99db42000000020101915050617c0556505b601467ffffffffffffffff168267ffffffffffffffff16101515617be35760006014830390506001810167ffffffffffffffff166002617ba983617ca763ffffffff16565b69d3c21bcecceda100000001811515617bbe57fe5b0402601467ffffffffffffffff166a01a784379d99db420000000201915050617c0556505b6a01a784379d99db420000006001830167ffffffffffffffff16029050617c05565b919050565b60008267ffffffffffffffff1682840391508167ffffffffffffffff1611151515617ca0576040517f08c379a000000000000000000000000000000000000000000000000000000000815260040180806020018281038252600d8152602001807f7375622d756e646572666c6f770000000000000000000000000000000000000081526020015060200191505060405180910390fd5b5b92915050565b60008167ffffffffffffffff166885ab33eb9abf3d5eaf0269d3c21bcecceda1000000039050617cd2565b919050565b6000600060006000198587098587029250828110838203039150506000811415617d1a57600084111515617d0b5760006000fd5b83820492508292505050617dd1565b8084111515617d295760006000fd5b6000848688099050828111820391508083039250600085866000031690508086049550808404935060018182600003040190508083028417935083506000600287600302189050808702600203810290508050808702600203810290508050808702600203810290508050808702600203810290508050808702600203810290508050808702600203810290508050808502955085508595505050505050617dd15650505050505b9392505050565b828054828255906000526020600020908101928215617e51579160200282015b82811115617e505782518260006101000a81548173ffffffffffffffffffffffffffffffffffffffff021916908373ffffffffffffffffffffffffffffffffffffffff16021790555091602001919060010190617df8565b5b509050617e5e9190617e62565b5090565b617e67565b80821115617e815760008181506000905550600101617e67565b509056618fd1565b600067ffffffffffffffff831115617e9d57fe5b617ece60207fffffffffffffffffffffffffffffffffffffffffffffffffffffffffffffffe0601f86011601618f32565b9050828152838383011115617ee35760006000fd5b828260208301376000602084830101525b9392505050565b600060208284031215617f0c578081fd5b8135617f1781618f92565b809150505b92915050565b60006000600060408486031215617f37578182fd5b8335617f4281618f92565b80935050602084013567ffffffffffffffff80821115617f60578384fd5b818601915086601f8301121515617f75578384fd5b813581811115617f83578485fd5b876020828501011115617f94578485fd5b6020830194508093505050505b9250925092565b60006000600060608486031215617fbd578283fd5b8335617fc881618f92565b80935050602084013567ffffffffffffffff80821115617fe6578384fd5b818601915086601f8301121515617ffb578384fd5b61800a87833560208501617e89565b9350604086013591508082111561801f578283fd5b50808501905085601f8201121515618035578182fd5b61804486823560208401617e89565b9150505b9250925092565b600060008284036080811215618063578283fd5b833561806e81618f92565b8093505060607fffffffffffffffffffffffffffffffffffffffffffffffffffffffffffffffe0820112156180a1578182fd5b506020830190505b9250929050565b60006000604083850312156180c3578182fd5b82356180ce81618f92565b80925050602083013590505b9250929050565b6000602082840312156180f2578081fd5b81357fffffffff00000000000000000000000000000000000000000000000000000000811681141515618123578182fd5b809150505b92915050565b60006020828403121561813f578081fd5b813561814a81618f92565b809150505b92915050565b60006000600060006000600060006000600060006101408b8d031215618179578788fd5b8a3561818481618f92565b809a505060208b013561819681618f92565b8099505060408b01356181a881618f92565b8098505060608b01356181ba81618f92565b8097505060808b01356181cc81618f92565b8096505060a08b01356181de81618f92565b8095505060c08b01356181f081618f92565b8094505060e08b013561820281618f92565b809350506101008b013561821581618f92565b809250506101208b013561822881618f92565b809150505b9295989b9194979a5092959850565b60006020828403121561824d578081fd5b813561825881618f92565b809150505b92915050565b600060208284031215618274578081fd5b813561827f81618f92565b809150505b92915050565b60006020828403121561829b578081fd5b81356182a681618f92565b809150505b92915050565b6000602082840312156182c2578081fd5b81356182cd81618f92565b809150505b92915050565b6000602082840312156182e9578081fd5b81356182f481618f92565b809150505b92915050565b600060208284031215618310578081fd5b813561831b81618f92565b809150505b92915050565b600060208284031215618337578081fd5b813561834281618f92565b809150505b92915050565b60006020828403121561835e578081fd5b813561836981618f92565b809150505b92915050565b60006000600060608486031215618389578081fd5b833561839481618f92565b809350506020808501356183a781618f92565b80935050604085013567ffffffffffffffff808211156183c5578384fd5b818701915087601f83011215156183da578384fd5b8135818111156183e657fe5b83810291506183f6848301618f32565b8082825285820191508585018b87868801011115618412578788fd5b8795505b83861015618444578035945061842b85618f92565b848352868301925086810190505b600186019550618416565b508096505050505050505b9250925092565b600060208284031215618467578081fd5b813590505b92915050565b600060208284031215618483578081fd5b815190505b92915050565b60006020828403121561849f578081fd5b813567ffffffffffffffff8116811415156184b8578182fd5b809150505b92915050565b6000602082840312156184d4578081fd5b81356184df81618fbb565b809150505b92915050565b6000602082840312156184fb578081fd5b815161850681618fbb565b809150505b92915050565b60008151808452618529816020860160208601618f5d565b60207fffffffffffffffffffffffffffffffffffffffffffffffffffffffffffffffe0601f8301168501019150505b92915050565b60007fffffffff00000000000000000000000000000000000000000000000000000000841682528251618598816004850160208701618f5d565b6004818401019150505b9392505050565b600082516185bb818460208701618f5d565b8083019150505b92915050565b600085516185da818460208a01618f5d565b80830190508581527fffffffffffffffffffffffffffffffffffffffff000000000000000000000000808660601b166020830152808560601b16603483015250604881019150505b95945050505050565b60007f726577617264730000000000000000000000000000000000000000000000000082526007820190505b919050565b60007f726174657300000000000000000000000000000000000000000000000000000082526005820190505b919050565b60007f736574746c656d656e74000000000000000000000000000000000000000000008252600a820190505b919050565b60007f6d61726b6574000000000000000000000000000000000000000000000000000082526006820190505b919050565b60007f6c656e640000000000000000000000000000000000000000000000000000000082526004820190505b919050565b60007f61756374696f6e7300000000000000000000000000000000000000000000000082526008820190505b919050565b60007f6c69717569646174696f6e7300000000000000000000000000000000000000008252600c820190505b919050565b60007f707269636573000000000000000000000000000000000000000000000000000082526006820190505b919050565b600060208201905073ffffffffffffffffffffffffffffffffffffffff831682525b92915050565b600073ffffffffffffffffffffffffffffffffffffffff851682526040602083015282604083015282846060840137806060848401015260607fffffffffffffffffffffffffffffffffffffffffffffffffffffffffffffffe0601f85011683010190505b949350505050565b600073ffffffffffffffffffffffffffffffffffffffff84168252604060208301526188776040830184618511565b90505b9392505050565b600060408201905073ffffffffffffffffffffffffffffffffffffffff841682528260208301525b9392505050565b600060208083018184528085518083526040860191508387019250845b818110156189055773ffffffffffffffffffffffffffffffffffffffff8451168352848301925084840193505b6001810190506188cd565b50508093505050505b92915050565b600060208201905082151582525b92915050565b60008315158252604060208301526189436040830184618511565b90505b9392505050565b60006020820190508282525b92915050565b600060208201905073ffffffffffffffffffffffffffffffffffffffff831682525b92915050565b600060208201905073ffffffffffffffffffffffffffffffffffffffff831682525b92915050565b600060208201905073ffffffffffffffffffffffffffffffffffffffff831682525b92915050565b600060208201905073ffffffffffffffffffffffffffffffffffffffff831682525b92915050565b600060208201905073ffffffffffffffffffffffffffffffffffffffff831682525b92915050565b600060208201905073ffffffffffffffffffffffffffffffffffffffff831682525b92915050565b600060208201905073ffffffffffffffffffffffffffffffffffffffff831682525b92915050565b600060208201905073ffffffffffffffffffffffffffffffffffffffff831682525b92915050565b600060208201905073ffffffffffffffffffffffffffffffffffffffff831682525b92915050565b600060208201905073ffffffffffffffffffffffffffffffffffffffff831682525b92915050565b600060208201905073ffffffffffffffffffffffffffffffffffffffff831682525b92915050565b600060208201905073ffffffffffffffffffffffffffffffffffffffff831682525b92915050565b600060208201905073ffffffffffffffffffffffffffffffffffffffff831682525b92915050565b600060208201905073ffffffffffffffffffffffffffffffffffffffff831682525b92915050565b600060208201905073ffffffffffffffffffffffffffffffffffffffff831682525b92915050565b600060208201905073ffffffffffffffffffffffffffffffffffffffff831682525b92915050565b600060208252618bf26020830184618511565b90505b92915050565b600060208252601260208301527f47656e6573697341757468206661696c6564000000000000000000000000000060408301526060820190505b919050565b600060208252600960208301527f4e6f7420666f756e64000000000000000000000000000000000000000000000060408301526060820190505b919050565b600060208252600e60208301527f4e6f7420417574686f72697a656400000000000000000000000000000000000060408301526060820190505b919050565b600060208252601260208301527f50726576696f75736c792072656d6f766564000000000000000000000000000060408301526060820190505b919050565b600060208252600460208301527f4e6f6f700000000000000000000000000000000000000000000000000000000060408301526060820190505b919050565b600060208252600b60208301527f416c72656164792073657400000000000000000000000000000000000000000060408301526060820190505b919050565b600060208252600d60208301527f4f6e6c79206f6e6520706f6f6c0000000000000000000000000000000000000060408301526060820190505b919050565b600060208252601760208301527f496e73756666696369656e7420544350204c6f636b656400000000000000000060408301526060820190505b919050565b600060208252600d60208301527f416c72656164792061646465640000000000000000000000000000000000000060408301526060820190505b919050565b600060208252601060208301527f416c72656164792073687574646f776e0000000000000000000000000000000060408301526060820190505b919050565b600060208252600c60208301527f4e6f742073687574646f776e000000000000000000000000000000000000000060408301526060820190505b919050565b600060208252600660208301527f4c4f434b4544000000000000000000000000000000000000000000000000000060408301526060820190505b919050565b60006020820190508282525b92915050565b600060208201905067ffffffffffffffff831682525b92915050565b600060208201905060ff831682525b92915050565b6000604051905081810181811067ffffffffffffffff82111715618f5257fe5b80604052505b919050565b60005b83811015618f7c5780820151818401525b602081019050618f60565b83811115618f8b576000848401525b505b505050565b73ffffffffffffffffffffffffffffffffffffffff811681141515618fb75760006000fd5b5b50565b60ff811681141515618fcd5760006000fd5b5b50565bfe45434453413a20696e76616c6964207369676e6174757265202773272076616c756545434453413a20696e76616c6964207369676e6174757265202776272076616c7565a2646970667358221220b724d64e11483c5e12f2863e0f411cc0f3d5c234fe53b8b2c09b686f6756700864736f6c63430007060033",
  "linkReferences": {},
  "deployedLinkReferences": {}
}