{
  "_format": "hh-sol-artifact-1",
  "contractName": "Governor",
  "sourceName": "contracts/core/governance/Governor.sol",
  "abi": [
    {
      "inputs": [
        {
          "internalType": "contract IERC20",
          "name": "_weth",
          "type": "address"
        },
        {
          "internalType": "contract IAccounting",
          "name": "_accounting",
          "type": "address"
        },
        {
          "internalType": "contract ICNP",
          "name": "_cnp",
          "type": "address"
        },
        {
          "internalType": "contract ICoin",
          "name": "_coin",
          "type": "address"
        },
        {
          "internalType": "contract ICoinPositionNFT",
          "name": "_coinNFT",
          "type": "address"
        },
        {
          "internalType": "contract IDelayedRewards",
          "name": "_delayedRewards",
          "type": "address"
        },
        {
          "internalType": "contract ILendCoin",
          "name": "_lendCoin",
          "type": "address"
        },
        {
          "internalType": "contract IEnforcedDecentralization",
          "name": "_enforcedDecentralization",
          "type": "address"
        },
        {
          "internalType": "address",
          "name": "_timelock",
          "type": "address"
        }
      ],
      "stateMutability": "nonpayable",
      "type": "constructor"
    },
    {
      "anonymous": false,
      "inputs": [
        {
          "indexed": true,
          "internalType": "address",
          "name": "from",
          "type": "address"
        },
        {
          "indexed": true,
          "internalType": "address",
          "name": "to",
          "type": "address"
        }
      ],
      "name": "AdminUpdated",
      "type": "event"
    },
    {
      "anonymous": false,
      "inputs": [
        {
          "indexed": true,
          "internalType": "address",
          "name": "allocation",
          "type": "address"
        },
        {
          "indexed": false,
          "internalType": "uint256",
          "name": "allotment",
          "type": "uint256"
        }
      ],
      "name": "AllocationAllotted",
      "type": "event"
    },
    {
      "anonymous": false,
      "inputs": [
        {
          "indexed": true,
          "internalType": "string",
          "name": "contractName",
          "type": "string"
        },
        {
          "indexed": true,
          "internalType": "address",
          "name": "contractAddress",
          "type": "address"
        }
      ],
      "name": "ContractUpgraded",
      "type": "event"
    },
    {
      "anonymous": false,
      "inputs": [
        {
          "indexed": false,
          "internalType": "uint256",
          "name": "emergencyShutdownTokensBurned",
          "type": "uint256"
        }
      ],
      "name": "EmergencyShutdownExecuted",
      "type": "event"
    },
    {
      "anonymous": false,
      "inputs": [
        {
          "indexed": true,
          "internalType": "address",
          "name": "newGovernor",
          "type": "address"
        }
      ],
      "name": "ProtocolUpgraded",
      "type": "event"
    },
    {
      "anonymous": false,
      "inputs": [],
      "name": "ShutdownExecuted",
      "type": "event"
    },
    {
      "anonymous": false,
      "inputs": [
        {
          "indexed": true,
          "internalType": "address",
          "name": "burner",
          "type": "address"
        },
        {
          "indexed": false,
          "internalType": "uint256",
          "name": "count",
          "type": "uint256"
        }
      ],
      "name": "ShutdownTokensBurned",
      "type": "event"
    },
    {
      "inputs": [],
      "name": "EMERGENCY_SHUTDOWN_THRESHOLD",
      "outputs": [
        {
          "internalType": "uint256",
          "name": "",
          "type": "uint256"
        }
      ],
      "stateMutability": "view",
      "type": "function"
    },
    {
      "inputs": [],
      "name": "accounting",
      "outputs": [
        {
          "internalType": "contract IAccounting",
          "name": "",
          "type": "address"
        }
      ],
      "stateMutability": "view",
      "type": "function"
    },
    {
      "inputs": [
        {
          "internalType": "contract ITokenAllocation",
          "name": "allocation",
          "type": "address"
        }
      ],
      "name": "allocate",
      "outputs": [],
      "stateMutability": "nonpayable",
      "type": "function"
    },
    {
      "inputs": [
        {
          "internalType": "contract ITokenAllocation",
          "name": "",
          "type": "address"
        }
      ],
      "name": "allocationAllotted",
      "outputs": [
        {
          "internalType": "bool",
          "name": "",
          "type": "bool"
        }
      ],
      "stateMutability": "view",
      "type": "function"
    },
    {
      "inputs": [],
      "name": "allocationCreator",
      "outputs": [
        {
          "internalType": "contract ITokenAllocationCreator",
          "name": "",
          "type": "address"
        }
      ],
      "stateMutability": "view",
      "type": "function"
    },
    {
      "inputs": [],
      "name": "auctions",
      "outputs": [
        {
          "internalType": "contract IAuctions",
          "name": "",
          "type": "address"
        }
      ],
      "stateMutability": "view",
      "type": "function"
    },
    {
      "inputs": [
        {
          "internalType": "uint256",
          "name": "count",
          "type": "uint256"
        }
      ],
      "name": "burnTokensForEmergencyShutdown",
      "outputs": [],
      "stateMutability": "nonpayable",
      "type": "function"
    },
    {
      "inputs": [],
      "name": "cnp",
      "outputs": [
        {
          "internalType": "contract ICNP",
          "name": "",
          "type": "address"
        }
      ],
      "stateMutability": "view",
      "type": "function"
    },
    {
      "inputs": [],
      "name": "coin",
      "outputs": [
        {
          "internalType": "contract ICoin",
          "name": "",
          "type": "address"
        }
      ],
      "stateMutability": "view",
      "type": "function"
    },
    {
      "inputs": [],
      "name": "coinPositionNFT",
      "outputs": [
        {
          "internalType": "contract ICoinPositionNFT",
          "name": "",
          "type": "address"
        }
      ],
      "stateMutability": "view",
      "type": "function"
    },
    {
      "inputs": [],
      "name": "coinWethPair",
      "outputs": [
        {
          "internalType": "contract IUniswapV2Pair",
          "name": "",
          "type": "address"
        }
      ],
      "stateMutability": "view",
      "type": "function"
    },
    {
      "inputs": [],
      "name": "currentDailyRewardCount",
      "outputs": [
        {
          "internalType": "uint256",
          "name": "count",
          "type": "uint256"
        }
      ],
      "stateMutability": "view",
      "type": "function"
    },
    {
      "inputs": [],
      "name": "delayedRewards",
      "outputs": [
        {
          "internalType": "contract IDelayedRewards",
          "name": "",
          "type": "address"
        }
      ],
      "stateMutability": "view",
      "type": "function"
    },
    {
      "inputs": [],
      "name": "deployer",
      "outputs": [
        {
          "internalType": "address",
          "name": "",
          "type": "address"
        }
      ],
      "stateMutability": "view",
      "type": "function"
    },
    {
      "inputs": [],
      "name": "devAllocation",
      "outputs": [
        {
          "internalType": "uint256",
          "name": "",
          "type": "uint256"
        }
      ],
      "stateMutability": "view",
      "type": "function"
    },
    {
      "inputs": [],
      "name": "emergencyShutdownTokensBurned",
      "outputs": [
        {
          "internalType": "uint256",
          "name": "",
          "type": "uint256"
        }
      ],
      "stateMutability": "view",
      "type": "function"
    },
    {
      "inputs": [],
      "name": "enforcedDecentralization",
      "outputs": [
        {
          "internalType": "contract IEnforcedDecentralization",
          "name": "",
          "type": "address"
        }
      ],
      "stateMutability": "view",
      "type": "function"
    },
    {
      "inputs": [
        {
          "internalType": "address",
          "name": "target",
          "type": "address"
        },
        {
          "internalType": "uint256",
          "name": "value",
          "type": "uint256"
        },
        {
          "internalType": "string",
          "name": "signature",
          "type": "string"
        },
        {
          "internalType": "bytes",
          "name": "data",
          "type": "bytes"
        }
      ],
      "name": "execute",
      "outputs": [
        {
          "internalType": "bool",
          "name": "success",
          "type": "bool"
        },
        {
          "internalType": "bytes",
          "name": "returnData",
          "type": "bytes"
        }
      ],
      "stateMutability": "nonpayable",
      "type": "function"
    },
    {
      "inputs": [],
      "name": "executeEmergencyShutdown",
      "outputs": [],
      "stateMutability": "nonpayable",
      "type": "function"
    },
    {
      "inputs": [],
      "name": "executeShutdown",
      "outputs": [],
      "stateMutability": "nonpayable",
      "type": "function"
    },
    {
      "inputs": [],
      "name": "getReferencePairs",
      "outputs": [
        {
          "internalType": "contract IUniswapV2Pair[]",
          "name": "",
          "type": "address[]"
        }
      ],
      "stateMutability": "view",
      "type": "function"
    },
    {
      "inputs": [
        {
          "internalType": "contract IUniswapV2Pair",
          "name": "_coinWethPair",
          "type": "address"
        },
        {
          "internalType": "contract IUniswapV2Pair[]",
          "name": "_referencePair",
          "type": "address[]"
        }
      ],
      "name": "initPricePairs",
      "outputs": [],
      "stateMutability": "nonpayable",
      "type": "function"
    },
    {
      "inputs": [
        {
          "internalType": "contract IAuctions",
          "name": "_auctions",
          "type": "address"
        },
        {
          "internalType": "contract ILiquidations",
          "name": "_liquidations",
          "type": "address"
        },
        {
          "internalType": "contract IMarket",
          "name": "_market",
          "type": "address"
        },
        {
          "internalType": "contract IPegManager",
          "name": "_pegManager",
          "type": "address"
        },
        {
          "internalType": "contract IPrices",
          "name": "_prices",
          "type": "address"
        },
        {
          "internalType": "contract IProtocolLock",
          "name": "_protocolLock",
          "type": "address"
        },
        {
          "internalType": "contract IRewards",
          "name": "_rewards",
          "type": "address"
        },
        {
          "internalType": "contract ISettlement",
          "name": "_settlement",
          "type": "address"
        },
        {
          "internalType": "contract ITokenAllocationCreator",
          "name": "_allocationCreator",
          "type": "address"
        }
      ],
      "name": "initUpgradeableContracts",
      "outputs": [],
      "stateMutability": "nonpayable",
      "type": "function"
    },
    {
      "inputs": [],
      "name": "isShutdown",
      "outputs": [
        {
          "internalType": "bool",
          "name": "",
          "type": "bool"
        }
      ],
      "stateMutability": "view",
      "type": "function"
    },
    {
      "inputs": [],
      "name": "lendCoin",
      "outputs": [
        {
          "internalType": "contract ILendCoin",
          "name": "",
          "type": "address"
        }
      ],
      "stateMutability": "view",
      "type": "function"
    },
    {
      "inputs": [],
      "name": "liquidations",
      "outputs": [
        {
          "internalType": "contract ILiquidations",
          "name": "",
          "type": "address"
        }
      ],
      "stateMutability": "view",
      "type": "function"
    },
    {
      "inputs": [],
      "name": "market",
      "outputs": [
        {
          "internalType": "contract IMarket",
          "name": "",
          "type": "address"
        }
      ],
      "stateMutability": "view",
      "type": "function"
    },
    {
      "inputs": [
        {
          "internalType": "address",
          "name": "to",
          "type": "address"
        },
        {
          "internalType": "uint256",
          "name": "count",
          "type": "uint256"
        }
      ],
      "name": "mintCNP",
      "outputs": [],
      "stateMutability": "nonpayable",
      "type": "function"
    },
    {
      "inputs": [],
      "name": "pegManager",
      "outputs": [
        {
          "internalType": "contract IPegManager",
          "name": "",
          "type": "address"
        }
      ],
      "stateMutability": "view",
      "type": "function"
    },
    {
      "inputs": [],
      "name": "periodLength",
      "outputs": [
        {
          "internalType": "uint64",
          "name": "",
          "type": "uint64"
        }
      ],
      "stateMutability": "view",
      "type": "function"
    },
    {
      "inputs": [],
      "name": "prices",
      "outputs": [
        {
          "internalType": "contract IPrices",
          "name": "",
          "type": "address"
        }
      ],
      "stateMutability": "view",
      "type": "function"
    },
    {
      "inputs": [],
      "name": "protocolLock",
      "outputs": [
        {
          "internalType": "contract IProtocolLock",
          "name": "",
          "type": "address"
        }
      ],
      "stateMutability": "view",
      "type": "function"
    },
    {
      "inputs": [
        {
          "internalType": "uint256",
          "name": "",
          "type": "uint256"
        }
      ],
      "name": "referencePair",
      "outputs": [
        {
          "internalType": "contract IUniswapV2Pair",
          "name": "",
          "type": "address"
        }
      ],
      "stateMutability": "view",
      "type": "function"
    },
    {
      "inputs": [
        {
          "internalType": "address",
          "name": "caller",
          "type": "address"
        }
      ],
      "name": "requireCoinReservesBurnAccess",
      "outputs": [],
      "stateMutability": "view",
      "type": "function"
    },
    {
      "inputs": [
        {
          "internalType": "address",
          "name": "caller",
          "type": "address"
        }
      ],
      "name": "requireDebtWriteAccess",
      "outputs": [],
      "stateMutability": "view",
      "type": "function"
    },
    {
      "inputs": [
        {
          "internalType": "address",
          "name": "caller",
          "type": "address"
        }
      ],
      "name": "requirePairTokenWriteAccess",
      "outputs": [],
      "stateMutability": "view",
      "type": "function"
    },
    {
      "inputs": [
        {
          "internalType": "address",
          "name": "caller",
          "type": "address"
        }
      ],
      "name": "requirePositionWriteAccess",
      "outputs": [],
      "stateMutability": "view",
      "type": "function"
    },
    {
      "inputs": [
        {
          "internalType": "address",
          "name": "caller",
          "type": "address"
        }
      ],
      "name": "requirePriceAccess",
      "outputs": [],
      "stateMutability": "view",
      "type": "function"
    },
    {
      "inputs": [
        {
          "internalType": "address",
          "name": "caller",
          "type": "address"
        }
      ],
      "name": "requireStoredCollateralAccess",
      "outputs": [],
      "stateMutability": "view",
      "type": "function"
    },
    {
      "inputs": [],
      "name": "rewards",
      "outputs": [
        {
          "internalType": "contract IRewards",
          "name": "",
          "type": "address"
        }
      ],
      "stateMutability": "view",
      "type": "function"
    },
    {
      "inputs": [
        {
          "internalType": "contract IAuctions",
          "name": "_auctions",
          "type": "address"
        }
      ],
      "name": "setAuctions",
      "outputs": [],
      "stateMutability": "nonpayable",
      "type": "function"
    },
    {
      "inputs": [
        {
          "internalType": "contract ILiquidations",
          "name": "_liquidations",
          "type": "address"
        }
      ],
      "name": "setLiquidations",
      "outputs": [],
      "stateMutability": "nonpayable",
      "type": "function"
    },
    {
      "inputs": [
        {
          "internalType": "contract IMarket",
          "name": "_market",
          "type": "address"
        }
      ],
      "name": "setMarket",
      "outputs": [],
      "stateMutability": "nonpayable",
      "type": "function"
    },
    {
      "inputs": [
        {
          "internalType": "contract IPegManager",
          "name": "_pegManager",
          "type": "address"
        }
      ],
      "name": "setPegManager",
      "outputs": [],
      "stateMutability": "nonpayable",
      "type": "function"
    },
    {
      "inputs": [
        {
          "internalType": "contract IPrices",
          "name": "_prices",
          "type": "address"
        }
      ],
      "name": "setPrices",
      "outputs": [],
      "stateMutability": "nonpayable",
      "type": "function"
    },
    {
      "inputs": [
        {
          "internalType": "contract IRewards",
          "name": "_rewards",
          "type": "address"
        }
      ],
      "name": "setRewards",
      "outputs": [],
      "stateMutability": "nonpayable",
      "type": "function"
    },
    {
      "inputs": [
        {
          "internalType": "contract ISettlement",
          "name": "_settlement",
          "type": "address"
        }
      ],
      "name": "setSettlement",
      "outputs": [],
      "stateMutability": "nonpayable",
      "type": "function"
    },
    {
      "inputs": [
        {
          "internalType": "contract ITokenAllocationCreator",
          "name": "_allocationCreator",
          "type": "address"
        }
      ],
      "name": "setTokenAllocationCreator",
      "outputs": [],
      "stateMutability": "nonpayable",
      "type": "function"
    },
    {
      "inputs": [],
      "name": "settlement",
      "outputs": [
        {
          "internalType": "contract ISettlement",
          "name": "",
          "type": "address"
        }
      ],
      "stateMutability": "view",
      "type": "function"
    },
    {
      "inputs": [],
      "name": "shutdownTime",
      "outputs": [
        {
          "internalType": "uint64",
          "name": "",
          "type": "uint64"
        }
      ],
      "stateMutability": "view",
      "type": "function"
    },
    {
      "inputs": [],
      "name": "timelock",
      "outputs": [
        {
          "internalType": "address",
          "name": "",
          "type": "address"
        }
      ],
      "stateMutability": "view",
      "type": "function"
    },
    {
      "inputs": [],
      "name": "unlockProtocolLock",
      "outputs": [],
      "stateMutability": "nonpayable",
      "type": "function"
    },
    {
      "inputs": [
        {
          "internalType": "address",
          "name": "newGovernor",
          "type": "address"
        }
      ],
      "name": "upgradeProtocol",
      "outputs": [],
      "stateMutability": "nonpayable",
      "type": "function"
    },
    {
      "inputs": [
        {
          "internalType": "string",
          "name": "signature",
          "type": "string"
        }
      ],
      "name": "validateAction",
      "outputs": [],
      "stateMutability": "view",
      "type": "function"
    },
    {
      "inputs": [],
      "name": "weth",
      "outputs": [
        {
          "internalType": "contract IERC20",
          "name": "",
          "type": "address"
        }
      ],
      "stateMutability": "view",
      "type": "function"
    }
  ],
  "bytecode": "0x60c06040526a422ca8b0a00a42500000006003556001601a553480156200002557600080fd5b50604051620073103803806200731083398181016040526101208110156200004c57600080fd5b81019080805190602001909291908051906020019092919080519060200190929190805190602001909291908051906020019092919080519060200190929190805190602001909291908051906020019092919080519060200190929190505050620151808067ffffffffffffffff166001108015620000d957506301e285008167ffffffffffffffff16105b6200014c576040517f08c379a000000000000000000000000000000000000000000000000000000000815260040180806020018281038252601c8152602001807f54696d653a20496e76616c696420706572696f64206c656e6774682e0000000081525060200191505060405180910390fd5b60018167ffffffffffffffff16620001696200045c60201b60201c565b67ffffffffffffffff16816200017b57fe5b040367ffffffffffffffff1660a08167ffffffffffffffff1660c01b815250508067ffffffffffffffff1660808167ffffffffffffffff1660c01b8152505050600160008190555033601960006101000a81548173ffffffffffffffffffffffffffffffffffffffff021916908373ffffffffffffffffffffffffffffffffffffffff16021790555088600460006101000a81548173ffffffffffffffffffffffffffffffffffffffff021916908373ffffffffffffffffffffffffffffffffffffffff16021790555087600760006101000a81548173ffffffffffffffffffffffffffffffffffffffff021916908373ffffffffffffffffffffffffffffffffffffffff16021790555086600a60006101000a81548173ffffffffffffffffffffffffffffffffffffffff021916908373ffffffffffffffffffffffffffffffffffffffff16021790555085600b60006101000a81548173ffffffffffffffffffffffffffffffffffffffff021916908373ffffffffffffffffffffffffffffffffffffffff16021790555084600c60006101000a81548173ffffffffffffffffffffffffffffffffffffffff021916908373ffffffffffffffffffffffffffffffffffffffff16021790555083600d60006101000a81548173ffffffffffffffffffffffffffffffffffffffff021916908373ffffffffffffffffffffffffffffffffffffffff16021790555082600f60006101000a81548173ffffffffffffffffffffffffffffffffffffffff021916908373ffffffffffffffffffffffffffffffffffffffff16021790555081600e60006101000a81548173ffffffffffffffffffffffffffffffffffffffff021916908373ffffffffffffffffffffffffffffffffffffffff16021790555080601760006101000a81548173ffffffffffffffffffffffffffffffffffffffff021916908373ffffffffffffffffffffffffffffffffffffffff160217905550505050505050505050620004e6565b600062000474426200047960201b6200657a1760201c565b905090565b6000680100000000000000008210620004de576040517f08c379a0000000000000000000000000000000000000000000000000000000008152600401808060200182810382526026815260200180620072ea6026913960400191505060405180910390fd5b819050919050565b60805160c01c60a05160c01c616dd56200051560003980616708525080614e5352806167295250616dd56000f3fe608060405234801561001057600080fd5b506004361061036d5760003560e01c806385aa6103116101d3578063c546813711610104578063d478b087116100a2578063ec38a8621161007c578063ec38a86214611140578063f35a894714611184578063fe477277146112c9578063ffd7d983146112e75761036d565b8063d478b08714611094578063d5f39488146110c8578063e7c37799146110fc5761036d565b8063d0d8ab9a116100de578063d0d8ab9a14610ffa578063d2ca211514611004578063d33219b41461102c578063d3419bf3146110605761036d565b8063c546813714610e86578063c7bdc5aa14610ede578063cfc60f6414610f225761036d565b80639ec5a89411610171578063ba2481d11161014b578063ba2481d114610dd0578063bf86d69014610e04578063c04be45414610e24578063c375e6ed14610e685761036d565b80639ec5a89414610b50578063a99acb1714610b84578063abf7f5eb14610bd25761036d565b80639624e83e116101ad5780639624e83e146109f957806399eeec9514610a2d5780639a371c8414610a615780639a51b06b14610a955761036d565b806385aa61031461094d57806386654114146109815780638f4e6f37146109b55761036d565b80634c20179e116102ad57806368219d391161024b5780637429d7dd116102255780637429d7dd1461085d57806380b5c6651461089157806380f55605146108d5578063815c6c7b146109095761036d565b806368219d39146107a15780636dcea85f146107e55780637380f679146108295761036d565b806358326dc61161028757806358326dc6146106b857806358569081146106fc5780635a50aaf2146107245780636311b1e0146107835761036d565b80634c20179e146106325780635116063014610650578063571fb1d8146106845761036d565b80632b5d25731161031a57806343861c5a116102f457806343861c5a1461051c5780634559c80814610560578063497ffdd2146105a45780634b414e32146105fe5761036d565b80632b5d25731461049a5780633fc8cef3146104de5780633fec7e40146105125761036d565b80631a92109c1161034b5780631a92109c14610408578063232948ea1461044c5780632453c566146104565761036d565b80630b0de30e1461037257806311b66cdb146103a057806311df9995146103d4575b600080fd5b61039e6004803603602081101561038857600080fd5b810190808035906020019092919050505061132b565b005b6103a86114cb565b604051808273ffffffffffffffffffffffffffffffffffffffff16815260200191505060405180910390f35b6103dc6114f1565b604051808273ffffffffffffffffffffffffffffffffffffffff16815260200191505060405180910390f35b61044a6004803603602081101561041e57600080fd5b81019080803573ffffffffffffffffffffffffffffffffffffffff169060200190929190505050611517565b005b6104546119c9565b005b6104986004803603602081101561046c57600080fd5b81019080803573ffffffffffffffffffffffffffffffffffffffff169060200190929190505050611bca565b005b6104dc600480360360208110156104b057600080fd5b81019080803573ffffffffffffffffffffffffffffffffffffffff169060200190929190505050611c7e565b005b6104e6611ff4565b604051808273ffffffffffffffffffffffffffffffffffffffff16815260200191505060405180910390f35b61051a61201a565b005b61055e6004803603602081101561053257600080fd5b81019080803573ffffffffffffffffffffffffffffffffffffffff169060200190929190505050612122565b005b6105a26004803603602081101561057657600080fd5b81019080803573ffffffffffffffffffffffffffffffffffffffff16906020019092919050505061251a565b005b6105e6600480360360208110156105ba57600080fd5b81019080803573ffffffffffffffffffffffffffffffffffffffff169060200190929190505050612912565b60405180821515815260200191505060405180910390f35b610606612932565b604051808273ffffffffffffffffffffffffffffffffffffffff16815260200191505060405180910390f35b61063a612958565b6040518082815260200191505060405180910390f35b61065861295e565b604051808273ffffffffffffffffffffffffffffffffffffffff16815260200191505060405180910390f35b61068c612984565b604051808273ffffffffffffffffffffffffffffffffffffffff16815260200191505060405180910390f35b6106fa600480360360208110156106ce57600080fd5b81019080803573ffffffffffffffffffffffffffffffffffffffff1690602001909291905050506129aa565b005b610704612da2565b604051808267ffffffffffffffff16815260200191505060405180910390f35b61072c612dbc565b6040518080602001828103825283818151815260200191508051906020019060200280838360005b8381101561076f578082015181840152602081019050610754565b505050509050019250505060405180910390f35b61078b612e4a565b6040518082815260200191505060405180910390f35b6107e3600480360360208110156107b757600080fd5b81019080803573ffffffffffffffffffffffffffffffffffffffff169060200190929190505050612e50565b005b610827600480360360208110156107fb57600080fd5b81019080803573ffffffffffffffffffffffffffffffffffffffff169060200190929190505050612f04565b005b6108316132fc565b604051808273ffffffffffffffffffffffffffffffffffffffff16815260200191505060405180910390f35b610865613322565b604051808273ffffffffffffffffffffffffffffffffffffffff16815260200191505060405180910390f35b6108d3600480360360208110156108a757600080fd5b81019080803573ffffffffffffffffffffffffffffffffffffffff169060200190929190505050613348565b005b6108dd6135b8565b604051808273ffffffffffffffffffffffffffffffffffffffff16815260200191505060405180910390f35b61094b6004803603602081101561091f57600080fd5b81019080803573ffffffffffffffffffffffffffffffffffffffff1690602001909291905050506135de565b005b6109556136ea565b604051808273ffffffffffffffffffffffffffffffffffffffff16815260200191505060405180910390f35b610989613710565b604051808273ffffffffffffffffffffffffffffffffffffffff16815260200191505060405180910390f35b6109f7600480360360208110156109cb57600080fd5b81019080803573ffffffffffffffffffffffffffffffffffffffff169060200190929190505050613736565b005b610a01613b2e565b604051808273ffffffffffffffffffffffffffffffffffffffff16815260200191505060405180910390f35b610a35613b54565b604051808273ffffffffffffffffffffffffffffffffffffffff16815260200191505060405180910390f35b610a69613b7a565b604051808273ffffffffffffffffffffffffffffffffffffffff16815260200191505060405180910390f35b610b4e60048036036020811015610aab57600080fd5b8101908080359060200190640100000000811115610ac857600080fd5b820183602082011115610ada57600080fd5b80359060200191846001830284011164010000000083111715610afc57600080fd5b91908080601f016020809104026020016040519081016040528093929190818152602001838380828437600081840152601f19601f820116905080830192505050505050509192919290505050613ba0565b005b610b58613c93565b604051808273ffffffffffffffffffffffffffffffffffffffff16815260200191505060405180910390f35b610bd060048036036040811015610b9a57600080fd5b81019080803573ffffffffffffffffffffffffffffffffffffffff16906020019092919080359060200190929190505050613cb9565b005b610d4c60048036036080811015610be857600080fd5b81019080803573ffffffffffffffffffffffffffffffffffffffff1690602001909291908035906020019092919080359060200190640100000000811115610c2f57600080fd5b820183602082011115610c4157600080fd5b80359060200191846001830284011164010000000083111715610c6357600080fd5b91908080601f016020809104026020016040519081016040528093929190818152602001838380828437600081840152601f19601f82011690508083019250505050505050919291929080359060200190640100000000811115610cc657600080fd5b820183602082011115610cd857600080fd5b80359060200191846001830284011164010000000083111715610cfa57600080fd5b91908080601f016020809104026020016040519081016040528093929190818152602001838380828437600081840152601f19601f820116905080830192505050505050509192919290505050613f36565b60405180831515815260200180602001828103825283818151815260200191508051906020019080838360005b83811015610d94578082015181840152602081019050610d79565b50505050905090810190601f168015610dc15780820380516001836020036101000a031916815260200191505b50935050505060405180910390f35b610dd8614328565b604051808273ffffffffffffffffffffffffffffffffffffffff16815260200191505060405180910390f35b610e0c61434e565b60405180821515815260200191505060405180910390f35b610e6660048036036020811015610e3a57600080fd5b81019080803573ffffffffffffffffffffffffffffffffffffffff169060200190929190505050614379565b005b610e70614485565b6040518082815260200191505060405180910390f35b610eb260048036036020811015610e9c57600080fd5b81019080803590602001909291905050506144f5565b604051808273ffffffffffffffffffffffffffffffffffffffff16815260200191505060405180910390f35b610f2060048036036020811015610ef457600080fd5b81019080803573ffffffffffffffffffffffffffffffffffffffff169060200190929190505050614534565b005b610ff860048036036040811015610f3857600080fd5b81019080803573ffffffffffffffffffffffffffffffffffffffff16906020019092919080359060200190640100000000811115610f7557600080fd5b820183602082011115610f8757600080fd5b80359060200191846020830284011164010000000083111715610fa957600080fd5b919080806020026020016040519081016040528093929190818152602001838360200280828437600081840152601f19601f8201169050808301925050505050505091929192905050506145e8565b005b611002614b95565b005b61100c614e51565b604051808267ffffffffffffffff16815260200191505060405180910390f35b611034614e75565b604051808273ffffffffffffffffffffffffffffffffffffffff16815260200191505060405180910390f35b611068614e9b565b604051808273ffffffffffffffffffffffffffffffffffffffff16815260200191505060405180910390f35b61109c614ec1565b604051808273ffffffffffffffffffffffffffffffffffffffff16815260200191505060405180910390f35b6110d0614ee7565b604051808273ffffffffffffffffffffffffffffffffffffffff16815260200191505060405180910390f35b61113e6004803603602081101561111257600080fd5b81019080803573ffffffffffffffffffffffffffffffffffffffff169060200190929190505050614f0d565b005b6111826004803603602081101561115657600080fd5b81019080803573ffffffffffffffffffffffffffffffffffffffff169060200190929190505050615019565b005b6112c7600480360361012081101561119b57600080fd5b81019080803573ffffffffffffffffffffffffffffffffffffffff169060200190929190803573ffffffffffffffffffffffffffffffffffffffff169060200190929190803573ffffffffffffffffffffffffffffffffffffffff169060200190929190803573ffffffffffffffffffffffffffffffffffffffff169060200190929190803573ffffffffffffffffffffffffffffffffffffffff169060200190929190803573ffffffffffffffffffffffffffffffffffffffff169060200190929190803573ffffffffffffffffffffffffffffffffffffffff169060200190929190803573ffffffffffffffffffffffffffffffffffffffff169060200190929190803573ffffffffffffffffffffffffffffffffffffffff169060200190929190505050615411565b005b6112d1615e4e565b6040518082815260200191505060405180910390f35b611329600480360360208110156112fd57600080fd5b81019080803573ffffffffffffffffffffffffffffffffffffffff169060200190929190505050615e59565b005b600260005414156113a4576040517f08c379a000000000000000000000000000000000000000000000000000000000815260040180806020018281038252601f8152602001807f5265656e7472616e637947756172643a207265656e7472616e742063616c6c0081525060200191505060405180910390fd5b60026000819055506113c1816002546165e590919063ffffffff16565b600281905550600a60009054906101000a900473ffffffffffffffffffffffffffffffffffffffff1673ffffffffffffffffffffffffffffffffffffffff166379cc679033836040518363ffffffff1660e01b8152600401808373ffffffffffffffffffffffffffffffffffffffff16815260200182815260200192505050600060405180830381600087803b15801561145a57600080fd5b505af115801561146e573d6000803e3d6000fd5b505050503373ffffffffffffffffffffffffffffffffffffffff167fc8ee2f38a393cf6984ae1cf9e0b4411c72c61212050e77885534b5efba34c3e8826040518082815260200191505060405180910390a2600160008190555050565b601860009054906101000a900473ffffffffffffffffffffffffffffffffffffffff1681565b600b60009054906101000a900473ffffffffffffffffffffffffffffffffffffffff1681565b60026000541415611590576040517f08c379a000000000000000000000000000000000000000000000000000000000815260040180806020018281038252601f8152602001807f5265656e7472616e637947756172643a207265656e7472616e742063616c6c0081525060200191505060405180910390fd5b60026000819055503073ffffffffffffffffffffffffffffffffffffffff163373ffffffffffffffffffffffffffffffffffffffff161461161c576040517f08c379a0000000000000000000000000000000000000000000000000000000008152600401808060200182810382526022815260200180616caf6022913960400191505060405180910390fd5b600073ffffffffffffffffffffffffffffffffffffffff16600960009054906101000a900473ffffffffffffffffffffffffffffffffffffffff1673ffffffffffffffffffffffffffffffffffffffff16146117ba57601460009054906101000a900473ffffffffffffffffffffffffffffffffffffffff1673ffffffffffffffffffffffffffffffffffffffff16634ac8c5ae600960009054906101000a900473ffffffffffffffffffffffffffffffffffffffff166040518263ffffffff1660e01b8152600401808273ffffffffffffffffffffffffffffffffffffffff168152602001915050600060405180830381600087803b15801561171f57600080fd5b505af1158015611733573d6000803e3d6000fd5b50505050600960009054906101000a900473ffffffffffffffffffffffffffffffffffffffff1673ffffffffffffffffffffffffffffffffffffffff166307da68f56040518163ffffffff1660e01b8152600401600060405180830381600087803b1580156117a157600080fd5b505af11580156117b5573d6000803e3d6000fd5b505050505b600860009054906101000a900473ffffffffffffffffffffffffffffffffffffffff16600960006101000a81548173ffffffffffffffffffffffffffffffffffffffff021916908373ffffffffffffffffffffffffffffffffffffffff16021790555080600860006101000a81548173ffffffffffffffffffffffffffffffffffffffff021916908373ffffffffffffffffffffffffffffffffffffffff160217905550601460009054906101000a900473ffffffffffffffffffffffffffffffffffffffff1673ffffffffffffffffffffffffffffffffffffffff16632c388d5d600860009054906101000a900473ffffffffffffffffffffffffffffffffffffffff166040518263ffffffff1660e01b8152600401808273ffffffffffffffffffffffffffffffffffffffff168152602001915050600060405180830381600087803b15801561190b57600080fd5b505af115801561191f573d6000803e3d6000fd5b50505050600860009054906101000a900473ffffffffffffffffffffffffffffffffffffffff1673ffffffffffffffffffffffffffffffffffffffff1660405180807f61756374696f6e73000000000000000000000000000000000000000000000000815250600801905060405180910390207f2b51ff7c4cc8e6fe1c72e9d9685b7d2a88a5d82ad3a644afbdceb0272c89c1c360405160405180910390a3600160008190555050565b60026000541415611a42576040517f08c379a000000000000000000000000000000000000000000000000000000000815260040180806020018281038252601f8152602001807f5265656e7472616e637947756172643a207265656e7472616e742063616c6c0081525060200191505060405180910390fd5b60026000819055503073ffffffffffffffffffffffffffffffffffffffff163373ffffffffffffffffffffffffffffffffffffffff1614611ace576040517f08c379a0000000000000000000000000000000000000000000000000000000008152600401808060200182810382526022815260200180616caf6022913960400191505060405180910390fd5b6000600160009054906101000a900467ffffffffffffffff1667ffffffffffffffff1614611b64576040517f08c379a00000000000000000000000000000000000000000000000000000000081526004018080602001828103825260118152602001807f416c72656164792073687574646f776e2e00000000000000000000000000000081525060200191505060405180910390fd5b611b6c61666d565b600160006101000a81548167ffffffffffffffff021916908367ffffffffffffffff1602179055507f5a05a29d5ecece2d4f30720adf1a7449fc1ecb9a884a14629d08d3d2257ab90560405160405180910390a16001600081905550565b611c7b601160009054906101000a900473ffffffffffffffffffffffffffffffffffffffff1673ffffffffffffffffffffffffffffffffffffffff168273ffffffffffffffffffffffffffffffffffffffff161480611c765750601060009054906101000a900473ffffffffffffffffffffffffffffffffffffffff1673ffffffffffffffffffffffffffffffffffffffff168273ffffffffffffffffffffffffffffffffffffffff16145b61667d565b50565b60026000541415611cf7576040517f08c379a000000000000000000000000000000000000000000000000000000000815260040180806020018281038252601f8152602001807f5265656e7472616e637947756172643a207265656e7472616e742063616c6c0081525060200191505060405180910390fd5b60026000819055503073ffffffffffffffffffffffffffffffffffffffff163373ffffffffffffffffffffffffffffffffffffffff1614611d83576040517f08c379a0000000000000000000000000000000000000000000000000000000008152600401808060200182810382526022815260200180616caf6022913960400191505060405180910390fd5b601460009054906101000a900473ffffffffffffffffffffffffffffffffffffffff1673ffffffffffffffffffffffffffffffffffffffff16634ac8c5ae601860009054906101000a900473ffffffffffffffffffffffffffffffffffffffff166040518263ffffffff1660e01b8152600401808273ffffffffffffffffffffffffffffffffffffffff168152602001915050600060405180830381600087803b158015611e3057600080fd5b505af1158015611e44573d6000803e3d6000fd5b5050505080601860006101000a81548173ffffffffffffffffffffffffffffffffffffffff021916908373ffffffffffffffffffffffffffffffffffffffff160217905550601460009054906101000a900473ffffffffffffffffffffffffffffffffffffffff1673ffffffffffffffffffffffffffffffffffffffff16632c388d5d601860009054906101000a900473ffffffffffffffffffffffffffffffffffffffff166040518263ffffffff1660e01b8152600401808273ffffffffffffffffffffffffffffffffffffffff168152602001915050600060405180830381600087803b158015611f3657600080fd5b505af1158015611f4a573d6000803e3d6000fd5b50505050601860009054906101000a900473ffffffffffffffffffffffffffffffffffffffff1673ffffffffffffffffffffffffffffffffffffffff1660405180807f616c6c6f636174696f6e43726561746f72000000000000000000000000000000815250601101905060405180910390207f2b51ff7c4cc8e6fe1c72e9d9685b7d2a88a5d82ad3a644afbdceb0272c89c1c360405160405180910390a3600160008190555050565b600460009054906101000a900473ffffffffffffffffffffffffffffffffffffffff1681565b3073ffffffffffffffffffffffffffffffffffffffff163373ffffffffffffffffffffffffffffffffffffffff161461209e576040517f08c379a0000000000000000000000000000000000000000000000000000000008152600401808060200182810382526022815260200180616caf6022913960400191505060405180910390fd5b601460009054906101000a900473ffffffffffffffffffffffffffffffffffffffff1673ffffffffffffffffffffffffffffffffffffffff1663e9fad8ee6040518163ffffffff1660e01b8152600401600060405180830381600087803b15801561210857600080fd5b505af115801561211c573d6000803e3d6000fd5b50505050565b6002600054141561219b576040517f08c379a000000000000000000000000000000000000000000000000000000000815260040180806020018281038252601f8152602001807f5265656e7472616e637947756172643a207265656e7472616e742063616c6c0081525060200191505060405180910390fd5b60026000819055503073ffffffffffffffffffffffffffffffffffffffff163373ffffffffffffffffffffffffffffffffffffffff1614612227576040517f08c379a0000000000000000000000000000000000000000000000000000000008152600401808060200182810382526022815260200180616caf6022913960400191505060405180910390fd5b601460009054906101000a900473ffffffffffffffffffffffffffffffffffffffff1673ffffffffffffffffffffffffffffffffffffffff16634ac8c5ae601360009054906101000a900473ffffffffffffffffffffffffffffffffffffffff166040518263ffffffff1660e01b8152600401808273ffffffffffffffffffffffffffffffffffffffff168152602001915050600060405180830381600087803b1580156122d457600080fd5b505af11580156122e8573d6000803e3d6000fd5b50505050601360009054906101000a900473ffffffffffffffffffffffffffffffffffffffff1673ffffffffffffffffffffffffffffffffffffffff166307da68f56040518163ffffffff1660e01b8152600401600060405180830381600087803b15801561235657600080fd5b505af115801561236a573d6000803e3d6000fd5b5050505080601360006101000a81548173ffffffffffffffffffffffffffffffffffffffff021916908373ffffffffffffffffffffffffffffffffffffffff160217905550601460009054906101000a900473ffffffffffffffffffffffffffffffffffffffff1673ffffffffffffffffffffffffffffffffffffffff16632c388d5d601360009054906101000a900473ffffffffffffffffffffffffffffffffffffffff166040518263ffffffff1660e01b8152600401808273ffffffffffffffffffffffffffffffffffffffff168152602001915050600060405180830381600087803b15801561245c57600080fd5b505af1158015612470573d6000803e3d6000fd5b50505050601360009054906101000a900473ffffffffffffffffffffffffffffffffffffffff1673ffffffffffffffffffffffffffffffffffffffff1660405180807f7072696365730000000000000000000000000000000000000000000000000000815250600601905060405180910390207f2b51ff7c4cc8e6fe1c72e9d9685b7d2a88a5d82ad3a644afbdceb0272c89c1c360405160405180910390a3600160008190555050565b60026000541415612593576040517f08c379a000000000000000000000000000000000000000000000000000000000815260040180806020018281038252601f8152602001807f5265656e7472616e637947756172643a207265656e7472616e742063616c6c0081525060200191505060405180910390fd5b60026000819055503073ffffffffffffffffffffffffffffffffffffffff163373ffffffffffffffffffffffffffffffffffffffff161461261f576040517f08c379a0000000000000000000000000000000000000000000000000000000008152600401808060200182810382526022815260200180616caf6022913960400191505060405180910390fd5b601460009054906101000a900473ffffffffffffffffffffffffffffffffffffffff1673ffffffffffffffffffffffffffffffffffffffff16634ac8c5ae601060009054906101000a900473ffffffffffffffffffffffffffffffffffffffff166040518263ffffffff1660e01b8152600401808273ffffffffffffffffffffffffffffffffffffffff168152602001915050600060405180830381600087803b1580156126cc57600080fd5b505af11580156126e0573d6000803e3d6000fd5b50505050601060009054906101000a900473ffffffffffffffffffffffffffffffffffffffff1673ffffffffffffffffffffffffffffffffffffffff166307da68f56040518163ffffffff1660e01b8152600401600060405180830381600087803b15801561274e57600080fd5b505af1158015612762573d6000803e3d6000fd5b5050505080601060006101000a81548173ffffffffffffffffffffffffffffffffffffffff021916908373ffffffffffffffffffffffffffffffffffffffff160217905550601460009054906101000a900473ffffffffffffffffffffffffffffffffffffffff1673ffffffffffffffffffffffffffffffffffffffff16632c388d5d601060009054906101000a900473ffffffffffffffffffffffffffffffffffffffff166040518263ffffffff1660e01b8152600401808273ffffffffffffffffffffffffffffffffffffffff168152602001915050600060405180830381600087803b15801561285457600080fd5b505af1158015612868573d6000803e3d6000fd5b50505050601060009054906101000a900473ffffffffffffffffffffffffffffffffffffffff1673ffffffffffffffffffffffffffffffffffffffff1660405180807f6c69717569646174696f6e730000000000000000000000000000000000000000815250600c01905060405180910390207f2b51ff7c4cc8e6fe1c72e9d9685b7d2a88a5d82ad3a644afbdceb0272c89c1c360405160405180910390a3600160008190555050565b601b6020528060005260406000206000915054906101000a900460ff1681565b600e60009054906101000a900473ffffffffffffffffffffffffffffffffffffffff1681565b60035481565b601660009054906101000a900473ffffffffffffffffffffffffffffffffffffffff1681565b601260009054906101000a900473ffffffffffffffffffffffffffffffffffffffff1681565b60026000541415612a23576040517f08c379a000000000000000000000000000000000000000000000000000000000815260040180806020018281038252601f8152602001807f5265656e7472616e637947756172643a207265656e7472616e742063616c6c0081525060200191505060405180910390fd5b60026000819055503073ffffffffffffffffffffffffffffffffffffffff163373ffffffffffffffffffffffffffffffffffffffff1614612aaf576040517f08c379a0000000000000000000000000000000000000000000000000000000008152600401808060200182810382526022815260200180616caf6022913960400191505060405180910390fd5b601460009054906101000a900473ffffffffffffffffffffffffffffffffffffffff1673ffffffffffffffffffffffffffffffffffffffff16634ac8c5ae601260009054906101000a900473ffffffffffffffffffffffffffffffffffffffff166040518263ffffffff1660e01b8152600401808273ffffffffffffffffffffffffffffffffffffffff168152602001915050600060405180830381600087803b158015612b5c57600080fd5b505af1158015612b70573d6000803e3d6000fd5b50505050601260009054906101000a900473ffffffffffffffffffffffffffffffffffffffff1673ffffffffffffffffffffffffffffffffffffffff166307da68f56040518163ffffffff1660e01b8152600401600060405180830381600087803b158015612bde57600080fd5b505af1158015612bf2573d6000803e3d6000fd5b5050505080601260006101000a81548173ffffffffffffffffffffffffffffffffffffffff021916908373ffffffffffffffffffffffffffffffffffffffff160217905550601460009054906101000a900473ffffffffffffffffffffffffffffffffffffffff1673ffffffffffffffffffffffffffffffffffffffff16632c388d5d601260009054906101000a900473ffffffffffffffffffffffffffffffffffffffff166040518263ffffffff1660e01b8152600401808273ffffffffffffffffffffffffffffffffffffffff168152602001915050600060405180830381600087803b158015612ce457600080fd5b505af1158015612cf8573d6000803e3d6000fd5b50505050601260009054906101000a900473ffffffffffffffffffffffffffffffffffffffff1673ffffffffffffffffffffffffffffffffffffffff1660405180807f7065674d616e6167657200000000000000000000000000000000000000000000815250600a01905060405180910390207f2b51ff7c4cc8e6fe1c72e9d9685b7d2a88a5d82ad3a644afbdceb0272c89c1c360405160405180910390a3600160008190555050565b600160009054906101000a900467ffffffffffffffff1681565b60606006805480602002602001604051908101604052809291908181526020018280548015612e4057602002820191906000526020600020905b8160009054906101000a900473ffffffffffffffffffffffffffffffffffffffff1673ffffffffffffffffffffffffffffffffffffffff1681526020019060010190808311612df6575b5050505050905090565b60025481565b612f01601160009054906101000a900473ffffffffffffffffffffffffffffffffffffffff1673ffffffffffffffffffffffffffffffffffffffff168273ffffffffffffffffffffffffffffffffffffffff161480612efc5750601060009054906101000a900473ffffffffffffffffffffffffffffffffffffffff1673ffffffffffffffffffffffffffffffffffffffff168273ffffffffffffffffffffffffffffffffffffffff16145b61667d565b50565b60026000541415612f7d576040517f08c379a000000000000000000000000000000000000000000000000000000000815260040180806020018281038252601f8152602001807f5265656e7472616e637947756172643a207265656e7472616e742063616c6c0081525060200191505060405180910390fd5b60026000819055503073ffffffffffffffffffffffffffffffffffffffff163373ffffffffffffffffffffffffffffffffffffffff1614613009576040517f08c379a0000000000000000000000000000000000000000000000000000000008152600401808060200182810382526022815260200180616caf6022913960400191505060405180910390fd5b601460009054906101000a900473ffffffffffffffffffffffffffffffffffffffff1673ffffffffffffffffffffffffffffffffffffffff16634ac8c5ae601160009054906101000a900473ffffffffffffffffffffffffffffffffffffffff166040518263ffffffff1660e01b8152600401808273ffffffffffffffffffffffffffffffffffffffff168152602001915050600060405180830381600087803b1580156130b657600080fd5b505af11580156130ca573d6000803e3d6000fd5b50505050601160009054906101000a900473ffffffffffffffffffffffffffffffffffffffff1673ffffffffffffffffffffffffffffffffffffffff166307da68f56040518163ffffffff1660e01b8152600401600060405180830381600087803b15801561313857600080fd5b505af115801561314c573d6000803e3d6000fd5b5050505080601160006101000a81548173ffffffffffffffffffffffffffffffffffffffff021916908373ffffffffffffffffffffffffffffffffffffffff160217905550601460009054906101000a900473ffffffffffffffffffffffffffffffffffffffff1673ffffffffffffffffffffffffffffffffffffffff16632c388d5d601160009054906101000a900473ffffffffffffffffffffffffffffffffffffffff166040518263ffffffff1660e01b8152600401808273ffffffffffffffffffffffffffffffffffffffff168152602001915050600060405180830381600087803b15801561323e57600080fd5b505af1158015613252573d6000803e3d6000fd5b50505050601160009054906101000a900473ffffffffffffffffffffffffffffffffffffffff1673ffffffffffffffffffffffffffffffffffffffff1660405180807f6d61726b65740000000000000000000000000000000000000000000000000000815250600601905060405180910390207f2b51ff7c4cc8e6fe1c72e9d9685b7d2a88a5d82ad3a644afbdceb0272c89c1c360405160405180910390a3600160008190555050565b600c60009054906101000a900473ffffffffffffffffffffffffffffffffffffffff1681565b600560009054906101000a900473ffffffffffffffffffffffffffffffffffffffff1681565b600260005414156133c1576040517f08c379a000000000000000000000000000000000000000000000000000000000815260040180806020018281038252601f8152602001807f5265656e7472616e637947756172643a207265656e7472616e742063616c6c0081525060200191505060405180910390fd5b60026000819055503073ffffffffffffffffffffffffffffffffffffffff163373ffffffffffffffffffffffffffffffffffffffff161461344d576040517f08c379a0000000000000000000000000000000000000000000000000000000008152600401808060200182810382526022815260200180616caf6022913960400191505060405180910390fd5b6000600160009054906101000a900467ffffffffffffffff1667ffffffffffffffff1614156134c7576040517f08c379a0000000000000000000000000000000000000000000000000000000008152600401808060200182810382526027815260200180616cd16027913960400191505060405180910390fd5b600a60009054906101000a900473ffffffffffffffffffffffffffffffffffffffff1673ffffffffffffffffffffffffffffffffffffffff1663c3f64284826040518263ffffffff1660e01b8152600401808273ffffffffffffffffffffffffffffffffffffffff168152602001915050600060405180830381600087803b15801561355257600080fd5b505af1158015613566573d6000803e3d6000fd5b505050508073ffffffffffffffffffffffffffffffffffffffff167f078ca541eec5b410213fc65330fc5a7324eb56fe692344e7bc1b8be56bd3c16960405160405180910390a2600160008190555050565b601160009054906101000a900473ffffffffffffffffffffffffffffffffffffffff1681565b6136e7601560009054906101000a900473ffffffffffffffffffffffffffffffffffffffff1673ffffffffffffffffffffffffffffffffffffffff168273ffffffffffffffffffffffffffffffffffffffff16148061368a5750601260009054906101000a900473ffffffffffffffffffffffffffffffffffffffff1673ffffffffffffffffffffffffffffffffffffffff168273ffffffffffffffffffffffffffffffffffffffff16145b806136e25750601060009054906101000a900473ffffffffffffffffffffffffffffffffffffffff1673ffffffffffffffffffffffffffffffffffffffff168273ffffffffffffffffffffffffffffffffffffffff16145b61667d565b50565b600860009054906101000a900473ffffffffffffffffffffffffffffffffffffffff1681565b600d60009054906101000a900473ffffffffffffffffffffffffffffffffffffffff1681565b600260005414156137af576040517f08c379a000000000000000000000000000000000000000000000000000000000815260040180806020018281038252601f8152602001807f5265656e7472616e637947756172643a207265656e7472616e742063616c6c0081525060200191505060405180910390fd5b60026000819055503073ffffffffffffffffffffffffffffffffffffffff163373ffffffffffffffffffffffffffffffffffffffff161461383b576040517f08c379a0000000000000000000000000000000000000000000000000000000008152600401808060200182810382526022815260200180616caf6022913960400191505060405180910390fd5b601460009054906101000a900473ffffffffffffffffffffffffffffffffffffffff1673ffffffffffffffffffffffffffffffffffffffff16634ac8c5ae601660009054906101000a900473ffffffffffffffffffffffffffffffffffffffff166040518263ffffffff1660e01b8152600401808273ffffffffffffffffffffffffffffffffffffffff168152602001915050600060405180830381600087803b1580156138e857600080fd5b505af11580156138fc573d6000803e3d6000fd5b50505050601660009054906101000a900473ffffffffffffffffffffffffffffffffffffffff1673ffffffffffffffffffffffffffffffffffffffff166307da68f56040518163ffffffff1660e01b8152600401600060405180830381600087803b15801561396a57600080fd5b505af115801561397e573d6000803e3d6000fd5b5050505080601660006101000a81548173ffffffffffffffffffffffffffffffffffffffff021916908373ffffffffffffffffffffffffffffffffffffffff160217905550601460009054906101000a900473ffffffffffffffffffffffffffffffffffffffff1673ffffffffffffffffffffffffffffffffffffffff16632c388d5d601660009054906101000a900473ffffffffffffffffffffffffffffffffffffffff166040518263ffffffff1660e01b8152600401808273ffffffffffffffffffffffffffffffffffffffff168152602001915050600060405180830381600087803b158015613a7057600080fd5b505af1158015613a84573d6000803e3d6000fd5b50505050601660009054906101000a900473ffffffffffffffffffffffffffffffffffffffff1673ffffffffffffffffffffffffffffffffffffffff1660405180807f736574746c656d656e7400000000000000000000000000000000000000000000815250600a01905060405180910390207f2b51ff7c4cc8e6fe1c72e9d9685b7d2a88a5d82ad3a644afbdceb0272c89c1c360405160405180910390a3600160008190555050565b600760009054906101000a900473ffffffffffffffffffffffffffffffffffffffff1681565b600a60009054906101000a900473ffffffffffffffffffffffffffffffffffffffff1681565b601060009054906101000a900473ffffffffffffffffffffffffffffffffffffffff1681565b600e60009054906101000a900473ffffffffffffffffffffffffffffffffffffffff1673ffffffffffffffffffffffffffffffffffffffff16639a51b06b826040518263ffffffff1660e01b81526004018080602001828103825283818151815260200191508051906020019080838360005b83811015613c2e578082015181840152602081019050613c13565b50505050905090810190601f168015613c5b5780820380516001836020036101000a031916815260200191505b509250505060006040518083038186803b158015613c7857600080fd5b505afa158015613c8c573d6000803e3d6000fd5b5050505050565b601560009054906101000a900473ffffffffffffffffffffffffffffffffffffffff1681565b60026000541415613d32576040517f08c379a000000000000000000000000000000000000000000000000000000000815260040180806020018281038252601f8152602001807f5265656e7472616e637947756172643a207265656e7472616e742063616c6c0081525060200191505060405180910390fd5b60026000819055506000339050613e7e600d60009054906101000a900473ffffffffffffffffffffffffffffffffffffffff1673ffffffffffffffffffffffffffffffffffffffff168273ffffffffffffffffffffffffffffffffffffffff161480613deb5750600860009054906101000a900473ffffffffffffffffffffffffffffffffffffffff1673ffffffffffffffffffffffffffffffffffffffff168273ffffffffffffffffffffffffffffffffffffffff16145b80613e435750601260009054906101000a900473ffffffffffffffffffffffffffffffffffffffff1673ffffffffffffffffffffffffffffffffffffffff168273ffffffffffffffffffffffffffffffffffffffff16145b80613e7957503073ffffffffffffffffffffffffffffffffffffffff168273ffffffffffffffffffffffffffffffffffffffff16145b61667d565b600a60009054906101000a900473ffffffffffffffffffffffffffffffffffffffff1673ffffffffffffffffffffffffffffffffffffffff1663449a52f884846040518363ffffffff1660e01b8152600401808373ffffffffffffffffffffffffffffffffffffffff16815260200182815260200192505050600060405180830381600087803b158015613f1157600080fd5b505af1158015613f25573d6000803e3d6000fd5b505050505060016000819055505050565b600060606001601a5414613fb2576040517f08c379a00000000000000000000000000000000000000000000000000000000081526004018080602001828103825260068152602001807f4c4f434b4544000000000000000000000000000000000000000000000000000081525060200191505060405180910390fd5b6000601a81905550601760009054906101000a900473ffffffffffffffffffffffffffffffffffffffff1673ffffffffffffffffffffffffffffffffffffffff163373ffffffffffffffffffffffffffffffffffffffff161461407d576040517f08c379a000000000000000000000000000000000000000000000000000000000815260040180806020018281038252600f8152602001807f4e6f7420417574686f72697a65642e000000000000000000000000000000000081525060200191505060405180910390fd5b600e60009054906101000a900473ffffffffffffffffffffffffffffffffffffffff1673ffffffffffffffffffffffffffffffffffffffff16639a51b06b856040518263ffffffff1660e01b81526004018080602001828103825283818151815260200191508051906020019080838360005b8381101561410b5780820151818401526020810190506140f0565b50505050905090810190601f1680156141385780820380516001836020036101000a031916815260200191505b509250505060006040518083038186803b15801561415557600080fd5b505afa158015614169573d6000803e3d6000fd5b505050508573ffffffffffffffffffffffffffffffffffffffff1661418d856166f3565b8460405160200180837bffffffffffffffffffffffffffffffffffffffffffffffffffffffff1916815260040182805190602001908083835b602083106141e957805182526020820191506020810190506020830392506141c6565b6001836020036101000a038019825116818451168082178552505050505050905001925050506040516020818303038152906040526040518082805190602001908083835b60208310614251578051825260208201915060208101905060208303925061422e565b6001836020036101000a0380198251168184511680821785525050505050509050019150506000604051808303816000865af19150503d80600081146142b3576040519150601f19603f3d011682016040523d82523d6000602084013e6142b8565b606091505b50809250819350505081614317576040517f08c379a0000000000000000000000000000000000000000000000000000000008152600401808060200182810382526032815260200180616d6e6032913960400191505060405180910390fd5b6001601a8190555094509492505050565b600f60009054906101000a900473ffffffffffffffffffffffffffffffffffffffff1681565b600080600160009054906101000a900467ffffffffffffffff1667ffffffffffffffff161415905090565b614482601160009054906101000a900473ffffffffffffffffffffffffffffffffffffffff1673ffffffffffffffffffffffffffffffffffffffff168273ffffffffffffffffffffffffffffffffffffffff1614806144255750601060009054906101000a900473ffffffffffffffffffffffffffffffffffffffff1673ffffffffffffffffffffffffffffffffffffffff168273ffffffffffffffffffffffffffffffffffffffff16145b8061447d5750601660009054906101000a900473ffffffffffffffffffffffffffffffffffffffff1673ffffffffffffffffffffffffffffffffffffffff168273ffffffffffffffffffffffffffffffffffffffff16145b61667d565b50565b600080614490616704565b90506102da8167ffffffffffffffff16116144d7578067ffffffffffffffff166842d599ea96dbd5c0000268ffffffffffffffffff1669d3c21bcecceda1000000036144e3565b69152d02c7e14af68000005b69ffffffffffffffffffff1691505090565b6006818154811061450557600080fd5b906000526020600020016000915054906101000a900473ffffffffffffffffffffffffffffffffffffffff1681565b6145e5601560009054906101000a900473ffffffffffffffffffffffffffffffffffffffff1673ffffffffffffffffffffffffffffffffffffffff168273ffffffffffffffffffffffffffffffffffffffff1614806145e05750601660009054906101000a900473ffffffffffffffffffffffffffffffffffffffff1673ffffffffffffffffffffffffffffffffffffffff168273ffffffffffffffffffffffffffffffffffffffff16145b61667d565b50565b614641601960009054906101000a900473ffffffffffffffffffffffffffffffffffffffff1673ffffffffffffffffffffffffffffffffffffffff163373ffffffffffffffffffffffffffffffffffffffff161461667d565b6000601960006101000a81548173ffffffffffffffffffffffffffffffffffffffff021916908373ffffffffffffffffffffffffffffffffffffffff16021790555081600560006101000a81548173ffffffffffffffffffffffffffffffffffffffff021916908373ffffffffffffffffffffffffffffffffffffffff16021790555080600690805190602001906146da929190616c07565b506000614708600560009054906101000a900473ffffffffffffffffffffffffffffffffffffffff16616772565b6147b457600560009054906101000a900473ffffffffffffffffffffffffffffffffffffffff1673ffffffffffffffffffffffffffffffffffffffff16630dfe16816040518163ffffffff1660e01b815260040160206040518083038186803b15801561477457600080fd5b505afa158015614788573d6000803e3d6000fd5b505050506040513d602081101561479e57600080fd5b8101908080519060200190929190505050614858565b600560009054906101000a900473ffffffffffffffffffffffffffffffffffffffff1673ffffffffffffffffffffffffffffffffffffffff1663d21220a76040518163ffffffff1660e01b815260040160206040518083038186803b15801561481c57600080fd5b505afa158015614830573d6000803e3d6000fd5b505050506040513d602081101561484657600080fd5b81019080805190602001909291905050505b9050600460009054906101000a900473ffffffffffffffffffffffffffffffffffffffff1673ffffffffffffffffffffffffffffffffffffffff168173ffffffffffffffffffffffffffffffffffffffff161461491d576040517f08c379a00000000000000000000000000000000000000000000000000000000081526004018080602001828103825260148152602001807f436f6c6c61746572616c206d69736d617463682e00000000000000000000000081525060200191505060405180910390fd5b60005b6006805490508160ff16101561498757600060068260ff168154811061494257fe5b9060005260206000200160009054906101000a900473ffffffffffffffffffffffffffffffffffffffff16905061497881616772565b50508080600101915050614920565b50601360009054906101000a900473ffffffffffffffffffffffffffffffffffffffff1673ffffffffffffffffffffffffffffffffffffffff16638aea8f716040518163ffffffff1660e01b8152600401600060405180830381600087803b1580156149f257600080fd5b505af1158015614a06573d6000803e3d6000fd5b50505050601560009054906101000a900473ffffffffffffffffffffffffffffffffffffffff1673ffffffffffffffffffffffffffffffffffffffff16638aea8f716040518163ffffffff1660e01b8152600401600060405180830381600087803b158015614a7457600080fd5b505af1158015614a88573d6000803e3d6000fd5b50505050601060009054906101000a900473ffffffffffffffffffffffffffffffffffffffff1673ffffffffffffffffffffffffffffffffffffffff16638aea8f716040518163ffffffff1660e01b8152600401600060405180830381600087803b158015614af657600080fd5b505af1158015614b0a573d6000803e3d6000fd5b50505050601260009054906101000a900473ffffffffffffffffffffffffffffffffffffffff1673ffffffffffffffffffffffffffffffffffffffff16638aea8f716040518163ffffffff1660e01b8152600401600060405180830381600087803b158015614b7857600080fd5b505af1158015614b8c573d6000803e3d6000fd5b50505050505050565b60026000541415614c0e576040517f08c379a000000000000000000000000000000000000000000000000000000000815260040180806020018281038252601f8152602001807f5265656e7472616e637947756172643a207265656e7472616e742063616c6c0081525060200191505060405180910390fd5b60026000819055506000600160009054906101000a900467ffffffffffffffff1667ffffffffffffffff1614614cac576040517f08c379a00000000000000000000000000000000000000000000000000000000081526004018080602001828103825260118152602001807f416c72656164792073687574646f776e2e00000000000000000000000000000081525060200191505060405180910390fd5b614d6866b1a2bc2ec50000600a60009054906101000a900473ffffffffffffffffffffffffffffffffffffffff1673ffffffffffffffffffffffffffffffffffffffff166318160ddd6040518163ffffffff1660e01b815260040160206040518083038186803b158015614d1f57600080fd5b505afa158015614d33573d6000803e3d6000fd5b505050506040513d6020811015614d4957600080fd5b810190808051906020019092919050505061699590919063ffffffff16565b60025411614dde576040517f08c379a00000000000000000000000000000000000000000000000000000000081526004018080602001828103825260188152602001807f496e73756666696369656e7420434e50206275726e65642e000000000000000081525060200191505060405180910390fd5b614de661666d565b600160006101000a81548167ffffffffffffffff021916908367ffffffffffffffff1602179055507fed2b89dc1c2375d1baa27a125361502377faf518a533565b44826636f38f6bff6002546040518082815260200191505060405180910390a16001600081905550565b7f000000000000000000000000000000000000000000000000000000000000000081565b601760009054906101000a900473ffffffffffffffffffffffffffffffffffffffff1681565b601360009054906101000a900473ffffffffffffffffffffffffffffffffffffffff1681565b601460009054906101000a900473ffffffffffffffffffffffffffffffffffffffff1681565b601960009054906101000a900473ffffffffffffffffffffffffffffffffffffffff1681565b615016601160009054906101000a900473ffffffffffffffffffffffffffffffffffffffff1673ffffffffffffffffffffffffffffffffffffffff168273ffffffffffffffffffffffffffffffffffffffff161480614fb95750601660009054906101000a900473ffffffffffffffffffffffffffffffffffffffff1673ffffffffffffffffffffffffffffffffffffffff168273ffffffffffffffffffffffffffffffffffffffff16145b806150115750601060009054906101000a900473ffffffffffffffffffffffffffffffffffffffff1673ffffffffffffffffffffffffffffffffffffffff168273ffffffffffffffffffffffffffffffffffffffff16145b61667d565b50565b60026000541415615092576040517f08c379a000000000000000000000000000000000000000000000000000000000815260040180806020018281038252601f8152602001807f5265656e7472616e637947756172643a207265656e7472616e742063616c6c0081525060200191505060405180910390fd5b60026000819055503073ffffffffffffffffffffffffffffffffffffffff163373ffffffffffffffffffffffffffffffffffffffff161461511e576040517f08c379a0000000000000000000000000000000000000000000000000000000008152600401808060200182810382526022815260200180616caf6022913960400191505060405180910390fd5b601460009054906101000a900473ffffffffffffffffffffffffffffffffffffffff1673ffffffffffffffffffffffffffffffffffffffff16634ac8c5ae601560009054906101000a900473ffffffffffffffffffffffffffffffffffffffff166040518263ffffffff1660e01b8152600401808273ffffffffffffffffffffffffffffffffffffffff168152602001915050600060405180830381600087803b1580156151cb57600080fd5b505af11580156151df573d6000803e3d6000fd5b50505050601560009054906101000a900473ffffffffffffffffffffffffffffffffffffffff1673ffffffffffffffffffffffffffffffffffffffff166307da68f56040518163ffffffff1660e01b8152600401600060405180830381600087803b15801561524d57600080fd5b505af1158015615261573d6000803e3d6000fd5b5050505080601560006101000a81548173ffffffffffffffffffffffffffffffffffffffff021916908373ffffffffffffffffffffffffffffffffffffffff160217905550601460009054906101000a900473ffffffffffffffffffffffffffffffffffffffff1673ffffffffffffffffffffffffffffffffffffffff16632c388d5d601560009054906101000a900473ffffffffffffffffffffffffffffffffffffffff166040518263ffffffff1660e01b8152600401808273ffffffffffffffffffffffffffffffffffffffff168152602001915050600060405180830381600087803b15801561535357600080fd5b505af1158015615367573d6000803e3d6000fd5b50505050601560009054906101000a900473ffffffffffffffffffffffffffffffffffffffff1673ffffffffffffffffffffffffffffffffffffffff1660405180807f7265776172647300000000000000000000000000000000000000000000000000815250600701905060405180910390207f2b51ff7c4cc8e6fe1c72e9d9685b7d2a88a5d82ad3a644afbdceb0272c89c1c360405160405180910390a3600160008190555050565b61546a601960009054906101000a900473ffffffffffffffffffffffffffffffffffffffff1673ffffffffffffffffffffffffffffffffffffffff163373ffffffffffffffffffffffffffffffffffffffff161461667d565b83601460006101000a81548173ffffffffffffffffffffffffffffffffffffffff021916908373ffffffffffffffffffffffffffffffffffffffff160217905550601460009054906101000a900473ffffffffffffffffffffffffffffffffffffffff1673ffffffffffffffffffffffffffffffffffffffff16632c388d5d306040518263ffffffff1660e01b8152600401808273ffffffffffffffffffffffffffffffffffffffff168152602001915050600060405180830381600087803b15801561553657600080fd5b505af115801561554a573d6000803e3d6000fd5b50505050601460009054906101000a900473ffffffffffffffffffffffffffffffffffffffff1673ffffffffffffffffffffffffffffffffffffffff16632c388d5d600b60009054906101000a900473ffffffffffffffffffffffffffffffffffffffff166040518263ffffffff1660e01b8152600401808273ffffffffffffffffffffffffffffffffffffffff168152602001915050600060405180830381600087803b1580156155fb57600080fd5b505af115801561560f573d6000803e3d6000fd5b5050505088600860006101000a81548173ffffffffffffffffffffffffffffffffffffffff021916908373ffffffffffffffffffffffffffffffffffffffff160217905550601460009054906101000a900473ffffffffffffffffffffffffffffffffffffffff1673ffffffffffffffffffffffffffffffffffffffff16632c388d5d600860009054906101000a900473ffffffffffffffffffffffffffffffffffffffff166040518263ffffffff1660e01b8152600401808273ffffffffffffffffffffffffffffffffffffffff168152602001915050600060405180830381600087803b15801561570157600080fd5b505af1158015615715573d6000803e3d6000fd5b5050505087601060006101000a81548173ffffffffffffffffffffffffffffffffffffffff021916908373ffffffffffffffffffffffffffffffffffffffff160217905550601460009054906101000a900473ffffffffffffffffffffffffffffffffffffffff1673ffffffffffffffffffffffffffffffffffffffff16632c388d5d601060009054906101000a900473ffffffffffffffffffffffffffffffffffffffff166040518263ffffffff1660e01b8152600401808273ffffffffffffffffffffffffffffffffffffffff168152602001915050600060405180830381600087803b15801561580757600080fd5b505af115801561581b573d6000803e3d6000fd5b5050505086601160006101000a81548173ffffffffffffffffffffffffffffffffffffffff021916908373ffffffffffffffffffffffffffffffffffffffff160217905550601460009054906101000a900473ffffffffffffffffffffffffffffffffffffffff1673ffffffffffffffffffffffffffffffffffffffff16632c388d5d601160009054906101000a900473ffffffffffffffffffffffffffffffffffffffff166040518263ffffffff1660e01b8152600401808273ffffffffffffffffffffffffffffffffffffffff168152602001915050600060405180830381600087803b15801561590d57600080fd5b505af1158015615921573d6000803e3d6000fd5b5050505085601260006101000a81548173ffffffffffffffffffffffffffffffffffffffff021916908373ffffffffffffffffffffffffffffffffffffffff160217905550601460009054906101000a900473ffffffffffffffffffffffffffffffffffffffff1673ffffffffffffffffffffffffffffffffffffffff16632c388d5d601260009054906101000a900473ffffffffffffffffffffffffffffffffffffffff166040518263ffffffff1660e01b8152600401808273ffffffffffffffffffffffffffffffffffffffff168152602001915050600060405180830381600087803b158015615a1357600080fd5b505af1158015615a27573d6000803e3d6000fd5b5050505084601360006101000a81548173ffffffffffffffffffffffffffffffffffffffff021916908373ffffffffffffffffffffffffffffffffffffffff160217905550601460009054906101000a900473ffffffffffffffffffffffffffffffffffffffff1673ffffffffffffffffffffffffffffffffffffffff16632c388d5d601360009054906101000a900473ffffffffffffffffffffffffffffffffffffffff166040518263ffffffff1660e01b8152600401808273ffffffffffffffffffffffffffffffffffffffff168152602001915050600060405180830381600087803b158015615b1957600080fd5b505af1158015615b2d573d6000803e3d6000fd5b5050505082601560006101000a81548173ffffffffffffffffffffffffffffffffffffffff021916908373ffffffffffffffffffffffffffffffffffffffff160217905550601460009054906101000a900473ffffffffffffffffffffffffffffffffffffffff1673ffffffffffffffffffffffffffffffffffffffff16632c388d5d601560009054906101000a900473ffffffffffffffffffffffffffffffffffffffff166040518263ffffffff1660e01b8152600401808273ffffffffffffffffffffffffffffffffffffffff168152602001915050600060405180830381600087803b158015615c1f57600080fd5b505af1158015615c33573d6000803e3d6000fd5b5050505081601660006101000a81548173ffffffffffffffffffffffffffffffffffffffff021916908373ffffffffffffffffffffffffffffffffffffffff160217905550601460009054906101000a900473ffffffffffffffffffffffffffffffffffffffff1673ffffffffffffffffffffffffffffffffffffffff16632c388d5d601660009054906101000a900473ffffffffffffffffffffffffffffffffffffffff166040518263ffffffff1660e01b8152600401808273ffffffffffffffffffffffffffffffffffffffff168152602001915050600060405180830381600087803b158015615d2557600080fd5b505af1158015615d39573d6000803e3d6000fd5b5050505080601860006101000a81548173ffffffffffffffffffffffffffffffffffffffff021916908373ffffffffffffffffffffffffffffffffffffffff160217905550601460009054906101000a900473ffffffffffffffffffffffffffffffffffffffff1673ffffffffffffffffffffffffffffffffffffffff16632c388d5d601860009054906101000a900473ffffffffffffffffffffffffffffffffffffffff166040518263ffffffff1660e01b8152600401808273ffffffffffffffffffffffffffffffffffffffff168152602001915050600060405180830381600087803b158015615e2b57600080fd5b505af1158015615e3f573d6000803e3d6000fd5b50505050505050505050505050565b66b1a2bc2ec5000081565b60026000541415615ed2576040517f08c379a000000000000000000000000000000000000000000000000000000000815260040180806020018281038252601f8152602001807f5265656e7472616e637947756172643a207265656e7472616e742063616c6c0081525060200191505060405180910390fd5b60026000819055503073ffffffffffffffffffffffffffffffffffffffff163373ffffffffffffffffffffffffffffffffffffffff1614615f5e576040517f08c379a0000000000000000000000000000000000000000000000000000000008152600401808060200182810382526022815260200180616caf6022913960400191505060405180910390fd5b601b60008273ffffffffffffffffffffffffffffffffffffffff1673ffffffffffffffffffffffffffffffffffffffff16815260200190815260200160002060009054906101000a900460ff161561601e576040517f08c379a00000000000000000000000000000000000000000000000000000000081526004018080602001828103825260128152602001807f416c726561647920616c6c6f63617465642e000000000000000000000000000081525060200191505060405180910390fd5b6001601b60008373ffffffffffffffffffffffffffffffffffffffff1673ffffffffffffffffffffffffffffffffffffffff16815260200190815260200160002060006101000a81548160ff021916908315150217905550601860009054906101000a900473ffffffffffffffffffffffffffffffffffffffff1673ffffffffffffffffffffffffffffffffffffffff1663a8939f32826040518263ffffffff1660e01b8152600401808273ffffffffffffffffffffffffffffffffffffffff168152602001915050602060405180830381600087803b15801561610157600080fd5b505af1158015616115573d6000803e3d6000fd5b505050506040513d602081101561612b57600080fd5b8101908080519060200190929190505050616191576040517f08c379a000000000000000000000000000000000000000000000000000000000815260040180806020018281038252602e815260200180616d1a602e913960400191505060405180910390fd5b8073ffffffffffffffffffffffffffffffffffffffff166367fe5a0c6040518163ffffffff1660e01b815260040160206040518083038186803b1580156161d757600080fd5b505afa1580156161eb573d6000803e3d6000fd5b505050506040513d602081101561620157600080fd5b8101908080519060200190929190505050616284576040517f08c379a00000000000000000000000000000000000000000000000000000000081526004018080602001828103825260188152602001807f416c6c6f636174696f6e206e6f742061636365707465642e000000000000000081525060200191505060405180910390fd5b8073ffffffffffffffffffffffffffffffffffffffff166378e979256040518163ffffffff1660e01b815260040160206040518083038186803b1580156162ca57600080fd5b505afa1580156162de573d6000803e3d6000fd5b505050506040513d60208110156162f457600080fd5b810190808051906020019092919050505067ffffffffffffffff1661631b62278d00616a34565b67ffffffffffffffff1610616398576040517f08c379a000000000000000000000000000000000000000000000000000000000815260040180806020018281038252601a8152602001807f416c6c6f636174696f6e20737461727420746f6f20736f6f6e2e00000000000081525060200191505060405180910390fd5b60006164f0600a60009054906101000a900473ffffffffffffffffffffffffffffffffffffffff1673ffffffffffffffffffffffffffffffffffffffff166370a08231846040518263ffffffff1660e01b8152600401808273ffffffffffffffffffffffffffffffffffffffff16815260200191505060206040518083038186803b15801561642657600080fd5b505afa15801561643a573d6000803e3d6000fd5b505050506040513d602081101561645057600080fd5b81019080805190602001909291905050508373ffffffffffffffffffffffffffffffffffffffff1663cd8227f96040518163ffffffff1660e01b815260040160206040518083038186803b1580156164a757600080fd5b505afa1580156164bb573d6000803e3d6000fd5b505050506040513d60208110156164d157600080fd5b8101908080519060200190929190505050616a6190919063ffffffff16565b9050600081146165205761650f81600354616a6190919063ffffffff16565b60038190555061651f8282613cb9565b5b8173ffffffffffffffffffffffffffffffffffffffff167fc1cb2c9c44aad7406b7ab027f9a917c54e0ea6adee7ff1cfa8137d16e9dd9731826040518082815260200191505060405180910390a250600160008190555050565b60006801000000000000000082106165dd576040517f08c379a0000000000000000000000000000000000000000000000000000000008152600401808060200182810382526026815260200180616d486026913960400191505060405180910390fd5b819050919050565b600080828401905083811015616663576040517f08c379a000000000000000000000000000000000000000000000000000000000815260040180806020018281038252601b8152602001807f536166654d6174683a206164646974696f6e206f766572666c6f77000000000081525060200191505060405180910390fd5b8091505092915050565b60006166784261657a565b905090565b806166f0576040517f08c379a000000000000000000000000000000000000000000000000000000000815260040180806020018281038252600e8152602001807f4e6f7420417574686f72697a656400000000000000000000000000000000000081525060200191505060405180910390fd5b50565b600081805190602001209050919050565b60007f00000000000000000000000000000000000000000000000000000000000000007f000000000000000000000000000000000000000000000000000000000000000067ffffffffffffffff1661675a61666d565b67ffffffffffffffff168161676b57fe5b0403905090565b6000600b60009054906101000a900473ffffffffffffffffffffffffffffffffffffffff1673ffffffffffffffffffffffffffffffffffffffff168273ffffffffffffffffffffffffffffffffffffffff16630dfe16816040518163ffffffff1660e01b815260040160206040518083038186803b1580156167f357600080fd5b505afa158015616807573d6000803e3d6000fd5b505050506040513d602081101561681d57600080fd5b810190808051906020019092919050505073ffffffffffffffffffffffffffffffffffffffff161490508061699057600b60009054906101000a900473ffffffffffffffffffffffffffffffffffffffff1673ffffffffffffffffffffffffffffffffffffffff168273ffffffffffffffffffffffffffffffffffffffff1663d21220a76040518163ffffffff1660e01b815260040160206040518083038186803b1580156168cb57600080fd5b505afa1580156168df573d6000803e3d6000fd5b505050506040513d60208110156168f557600080fd5b810190808051906020019092919050505073ffffffffffffffffffffffffffffffffffffffff161461698f576040517f08c379a000000000000000000000000000000000000000000000000000000000815260040180806020018281038252600d8152602001807f4d697373696e6720436f696e2e0000000000000000000000000000000000000081525060200191505060405180910390fd5b5b919050565b6000808314806169a55750600082145b156169b35760009050616a2e565b8183029050818382816169c257fe5b0414616a19576040517f08c379a0000000000000000000000000000000000000000000000000000000008152600401808060200182810382526022815260200180616cf86022913960400191505060405180910390fd5b670de0b6b3a76400008181616a2a57fe5b0490505b92915050565b6000616a5a82616a4261666d565b67ffffffffffffffff16616aab90919063ffffffff16565b9050919050565b6000616aa383836040518060400160405280601e81526020017f536166654d6174683a207375627472616374696f6e206f766572666c6f770000815250616b47565b905092915050565b60008082840190508367ffffffffffffffff168167ffffffffffffffff161015616b3d576040517f08c379a000000000000000000000000000000000000000000000000000000000815260040180806020018281038252601b8152602001807f536166654d6174683a206164646974696f6e206f766572666c6f77000000000081525060200191505060405180910390fd5b8091505092915050565b6000838311158290616bf4576040517f08c379a00000000000000000000000000000000000000000000000000000000081526004018080602001828103825283818151815260200191508051906020019080838360005b83811015616bb9578082015181840152602081019050616b9e565b50505050905090810190601f168015616be65780820380516001836020036101000a031916815260200191505b509250505060405180910390fd5b5060008385039050809150509392505050565b828054828255906000526020600020908101928215616c80579160200282015b82811115616c7f5782518260006101000a81548173ffffffffffffffffffffffffffffffffffffffff021916908373ffffffffffffffffffffffffffffffffffffffff16021790555091602001919060010190616c27565b5b509050616c8d9190616c91565b5090565b5b80821115616caa576000816000905550600101616c92565b509056fe476f7665726e6f722f6f6e6c79546869733a204e6f7420417574686f72697a65642e476f7665726e6f722f7570677261646550726f746f636f6c3a204e6f742073687574646f776e2e536166654d6174683a206d756c7469706c69636174696f6e206f766572666c6f772e43726561746520616c6c6f636174696f6e207468726f7567682064657369676e6174656420636f6e74726163742e53616665436173743a2076616c756520646f65736e27742066697420696e2036342062697473476f7665726e6f723a3a657865637574653a205472616e73616374696f6e20657865637574696f6e2072657665727465642ea2646970667358221220213692ac0e26974d015fe685593ba79db9a80470f659c6501abe19268c390abf64736f6c6343000704003353616665436173743a2076616c756520646f65736e27742066697420696e2036342062697473",
  "linkReferences": {},
  "deployedLinkReferences": {}
}