{
  "_format": "hh-sol-artifact-1",
  "contractName": "HuePositionNFT",
  "sourceName": "contracts/core/tokens/HuePositionNFT.sol",
  "abi": [
    {
      "inputs": [],
      "stateMutability": "nonpayable",
      "type": "constructor"
    },
    {
      "anonymous": false,
      "inputs": [
        {
          "indexed": true,
          "internalType": "address",
          "name": "owner",
          "type": "address"
        },
        {
          "indexed": true,
          "internalType": "address",
          "name": "approved",
          "type": "address"
        },
        {
          "indexed": true,
          "internalType": "uint256",
          "name": "tokenId",
          "type": "uint256"
        }
      ],
      "name": "Approval",
      "type": "event"
    },
    {
      "anonymous": false,
      "inputs": [
        {
          "indexed": true,
          "internalType": "address",
          "name": "owner",
          "type": "address"
        },
        {
          "indexed": true,
          "internalType": "address",
          "name": "operator",
          "type": "address"
        },
        {
          "indexed": false,
          "internalType": "bool",
          "name": "approved",
          "type": "bool"
        }
      ],
      "name": "ApprovalForAll",
      "type": "event"
    },
    {
      "anonymous": false,
      "inputs": [
        {
          "indexed": true,
          "internalType": "address",
          "name": "governor",
          "type": "address"
        }
      ],
      "name": "Initialized",
      "type": "event"
    },
    {
      "anonymous": false,
      "inputs": [],
      "name": "Stopped",
      "type": "event"
    },
    {
      "anonymous": false,
      "inputs": [
        {
          "indexed": true,
          "internalType": "address",
          "name": "from",
          "type": "address"
        },
        {
          "indexed": true,
          "internalType": "address",
          "name": "to",
          "type": "address"
        },
        {
          "indexed": true,
          "internalType": "uint256",
          "name": "tokenId",
          "type": "uint256"
        }
      ],
      "name": "Transfer",
      "type": "event"
    },
    {
      "inputs": [
        {
          "internalType": "address",
          "name": "to",
          "type": "address"
        },
        {
          "internalType": "uint256",
          "name": "tokenId",
          "type": "uint256"
        }
      ],
      "name": "approve",
      "outputs": [],
      "stateMutability": "nonpayable",
      "type": "function"
    },
    {
      "inputs": [
        {
          "internalType": "address",
          "name": "owner",
          "type": "address"
        }
      ],
      "name": "balanceOf",
      "outputs": [
        {
          "internalType": "uint256",
          "name": "",
          "type": "uint256"
        }
      ],
      "stateMutability": "view",
      "type": "function"
    },
    {
      "inputs": [],
      "name": "baseURI",
      "outputs": [
        {
          "internalType": "string",
          "name": "",
          "type": "string"
        }
      ],
      "stateMutability": "view",
      "type": "function"
    },
    {
      "inputs": [
        {
          "internalType": "uint64",
          "name": "tokenID",
          "type": "uint64"
        }
      ],
      "name": "burn",
      "outputs": [],
      "stateMutability": "nonpayable",
      "type": "function"
    },
    {
      "inputs": [],
      "name": "deployer",
      "outputs": [
        {
          "internalType": "address",
          "name": "",
          "type": "address"
        }
      ],
      "stateMutability": "view",
      "type": "function"
    },
    {
      "inputs": [
        {
          "internalType": "uint256",
          "name": "tokenId",
          "type": "uint256"
        }
      ],
      "name": "getApproved",
      "outputs": [
        {
          "internalType": "address",
          "name": "",
          "type": "address"
        }
      ],
      "stateMutability": "view",
      "type": "function"
    },
    {
      "inputs": [],
      "name": "governor",
      "outputs": [
        {
          "internalType": "contract IGovernor",
          "name": "",
          "type": "address"
        }
      ],
      "stateMutability": "view",
      "type": "function"
    },
    {
      "inputs": [
        {
          "internalType": "contract IGovernor",
          "name": "_governor",
          "type": "address"
        }
      ],
      "name": "init",
      "outputs": [],
      "stateMutability": "nonpayable",
      "type": "function"
    },
    {
      "inputs": [
        {
          "internalType": "address",
          "name": "owner",
          "type": "address"
        },
        {
          "internalType": "address",
          "name": "operator",
          "type": "address"
        }
      ],
      "name": "isApprovedForAll",
      "outputs": [
        {
          "internalType": "bool",
          "name": "",
          "type": "bool"
        }
      ],
      "stateMutability": "view",
      "type": "function"
    },
    {
      "inputs": [
        {
          "internalType": "address",
          "name": "account",
          "type": "address"
        },
        {
          "internalType": "uint256",
          "name": "tokenID",
          "type": "uint256"
        }
      ],
      "name": "isApprovedOrOwner",
      "outputs": [
        {
          "internalType": "bool",
          "name": "",
          "type": "bool"
        }
      ],
      "stateMutability": "view",
      "type": "function"
    },
    {
      "inputs": [
        {
          "internalType": "address",
          "name": "dest",
          "type": "address"
        }
      ],
      "name": "mintTo",
      "outputs": [
        {
          "internalType": "uint64",
          "name": "id",
          "type": "uint64"
        }
      ],
      "stateMutability": "nonpayable",
      "type": "function"
    },
    {
      "inputs": [],
      "name": "name",
      "outputs": [
        {
          "internalType": "string",
          "name": "",
          "type": "string"
        }
      ],
      "stateMutability": "view",
      "type": "function"
    },
    {
      "inputs": [],
      "name": "nextPositionID",
      "outputs": [
        {
          "internalType": "uint64",
          "name": "",
          "type": "uint64"
        }
      ],
      "stateMutability": "view",
      "type": "function"
    },
    {
      "inputs": [
        {
          "internalType": "uint256",
          "name": "tokenId",
          "type": "uint256"
        }
      ],
      "name": "ownerOf",
      "outputs": [
        {
          "internalType": "address",
          "name": "",
          "type": "address"
        }
      ],
      "stateMutability": "view",
      "type": "function"
    },
    {
      "inputs": [
        {
          "internalType": "address",
          "name": "account",
          "type": "address"
        }
      ],
      "name": "positionIDs",
      "outputs": [
        {
          "internalType": "uint64[]",
          "name": "IDs",
          "type": "uint64[]"
        }
      ],
      "stateMutability": "view",
      "type": "function"
    },
    {
      "inputs": [
        {
          "internalType": "address",
          "name": "from",
          "type": "address"
        },
        {
          "internalType": "address",
          "name": "to",
          "type": "address"
        },
        {
          "internalType": "uint256",
          "name": "tokenId",
          "type": "uint256"
        }
      ],
      "name": "safeTransferFrom",
      "outputs": [],
      "stateMutability": "nonpayable",
      "type": "function"
    },
    {
      "inputs": [
        {
          "internalType": "address",
          "name": "from",
          "type": "address"
        },
        {
          "internalType": "address",
          "name": "to",
          "type": "address"
        },
        {
          "internalType": "uint256",
          "name": "tokenId",
          "type": "uint256"
        },
        {
          "internalType": "bytes",
          "name": "_data",
          "type": "bytes"
        }
      ],
      "name": "safeTransferFrom",
      "outputs": [],
      "stateMutability": "nonpayable",
      "type": "function"
    },
    {
      "inputs": [
        {
          "internalType": "address",
          "name": "operator",
          "type": "address"
        },
        {
          "internalType": "bool",
          "name": "approved",
          "type": "bool"
        }
      ],
      "name": "setApprovalForAll",
      "outputs": [],
      "stateMutability": "nonpayable",
      "type": "function"
    },
    {
      "inputs": [],
      "name": "stopped",
      "outputs": [
        {
          "internalType": "bool",
          "name": "",
          "type": "bool"
        }
      ],
      "stateMutability": "view",
      "type": "function"
    },
    {
      "inputs": [
        {
          "internalType": "bytes4",
          "name": "interfaceId",
          "type": "bytes4"
        }
      ],
      "name": "supportsInterface",
      "outputs": [
        {
          "internalType": "bool",
          "name": "",
          "type": "bool"
        }
      ],
      "stateMutability": "view",
      "type": "function"
    },
    {
      "inputs": [],
      "name": "symbol",
      "outputs": [
        {
          "internalType": "string",
          "name": "",
          "type": "string"
        }
      ],
      "stateMutability": "view",
      "type": "function"
    },
    {
      "inputs": [
        {
          "internalType": "uint256",
          "name": "index",
          "type": "uint256"
        }
      ],
      "name": "tokenByIndex",
      "outputs": [
        {
          "internalType": "uint256",
          "name": "",
          "type": "uint256"
        }
      ],
      "stateMutability": "view",
      "type": "function"
    },
    {
      "inputs": [
        {
          "internalType": "address",
          "name": "owner",
          "type": "address"
        },
        {
          "internalType": "uint256",
          "name": "index",
          "type": "uint256"
        }
      ],
      "name": "tokenOfOwnerByIndex",
      "outputs": [
        {
          "internalType": "uint256",
          "name": "",
          "type": "uint256"
        }
      ],
      "stateMutability": "view",
      "type": "function"
    },
    {
      "inputs": [
        {
          "internalType": "uint256",
          "name": "tokenId",
          "type": "uint256"
        }
      ],
      "name": "tokenURI",
      "outputs": [
        {
          "internalType": "string",
          "name": "",
          "type": "string"
        }
      ],
      "stateMutability": "view",
      "type": "function"
    },
    {
      "inputs": [],
      "name": "totalSupply",
      "outputs": [
        {
          "internalType": "uint256",
          "name": "",
          "type": "uint256"
        }
      ],
      "stateMutability": "view",
      "type": "function"
    },
    {
      "inputs": [
        {
          "internalType": "address",
          "name": "from",
          "type": "address"
        },
        {
          "internalType": "address",
          "name": "to",
          "type": "address"
        },
        {
          "internalType": "uint256",
          "name": "tokenId",
          "type": "uint256"
        }
      ],
      "name": "transferFrom",
      "outputs": [],
      "stateMutability": "nonpayable",
      "type": "function"
    },
    {
      "inputs": [
        {
          "internalType": "bytes4",
          "name": "",
          "type": "bytes4"
        }
      ],
      "name": "validUpdate",
      "outputs": [
        {
          "internalType": "bool",
          "name": "",
          "type": "bool"
        }
      ],
      "stateMutability": "view",
      "type": "function"
    }
  ],
  "bytecode": "0x6080604052600160106000509090553480156200001c5760006000fd5b505b5b6040518060400160405280601b81526020017f48554520546f6b656e697a6564204465627420506f736974696f6e00000000008152602001506040518060400160405280600581526020017f48554544500000000000000000000000000000000000000000000000000000008152602001505b81815b5b620000ae6301ffc9a760e01b6200017e60201b60201c565b5b8160066000509080519060200190620000ca92919062000291565b508060076000509080519060200190620000e692919062000291565b50620000ff6380ac58cd60e01b6200017e60201b60201c565b62000117635b5e139f60e01b6200017e60201b60201c565b6200012f63780e9d6360e01b6200017e60201b60201c565b5b50505b505033600b60006101000a81548173ffffffffffffffffffffffffffffffffffffffff021916908373ffffffffffffffffffffffffffffffffffffffff1602179055505b5b62000353565b63ffffffff60e01b817bffffffffffffffffffffffffffffffffffffffffffffffffffffffff19161415151562000220576040517f08c379a000000000000000000000000000000000000000000000000000000000815260040180806020018281038252601c8152602001807f4552433136353a20696e76616c696420696e746572666163652069640000000081526020015060200191505060405180910390fd5b600160006000506000837bffffffffffffffffffffffffffffffffffffffffffffffffffffffff19167bffffffffffffffffffffffffffffffffffffffffffffffffffffffff1916815260200190815260200160002060006101000a81548160ff0219169083151502179055505b50565b828054600181600116156101000203166002900490600052602060002090601f016020900481019282620002c957600085556200031a565b82601f10620002e457805160ff19168380011785556200031a565b828001600101855582156200031a579182015b82811115620003195782518260005090905591602001919060010190620002f7565b5b5090506200032991906200032d565b5090565b62000333565b808211156200034f576000818150600090555060010162000333565b5090565b613e1180620003636000396000f3fe60806040523480156100115760006000fd5b50600436106101be5760003560e01c80634f6ccce7116100fa57806395d89b4111610098578063b88d4fde11610072578063b88d4fde146109c2578063c87b56dd14610acf578063d5f3948814610b78578063e985e9c514610bac576101be565b806395d89b41146108b45780639dbead4214610938578063a22cb46514610971576101be565b80636c0360eb116100d45780636c0360eb1461075457806370a08231146107d8578063755edd171461083157806375f12b2114610894576101be565b80634f6ccce71461061d5780635a11a9ad146106605780636352211e146106fb576101be565b806318160ddd1161016757806323b872dd1161014157806323b872dd146104775780632f745c59146104e657806342842e0e14610549578063430c2081146105b8576101be565b806318160ddd146103ec57806319ab453c1461040a5780631c8249051461044f576101be565b8063095ea7b311610198578063095ea7b3146103055780630c340a2414610354578063113cf1ab14610388576101be565b806301ffc9a7146101c457806306fdde0314610228578063081812fc146102ac576101be565b60006000fd5b610210600480360360208110156101db5760006000fd5b8101908080357bffffffffffffffffffffffffffffffffffffffffffffffffffffffff19169060200190929190505050610c27565b60405180821515815260200191505060405180910390f35b610230610c97565b6040518080602001828103825283818151815260200191508051906020019080838360005b838110156102715780820151818401525b602081019050610255565b50505050905090810190601f16801561029e5780820380516001836020036101000a031916815260200191505b509250505060405180910390f35b6102d9600480360360208110156102c35760006000fd5b8101908080359060200190929190505050610d41565b604051808273ffffffffffffffffffffffffffffffffffffffff16815260200191505060405180910390f35b6103526004803603604081101561031c5760006000fd5b81019080803573ffffffffffffffffffffffffffffffffffffffff16906020019092919080359060200190929190505050610dec565b005b61035c610f53565b604051808273ffffffffffffffffffffffffffffffffffffffff16815260200191505060405180910390f35b6103d46004803603602081101561039f5760006000fd5b8101908080357bffffffffffffffffffffffffffffffffffffffffffffffffffffffff19169060200190929190505050610f79565b60405180821515815260200191505060405180910390f35b6103f4610f9e565b6040518082815260200191505060405180910390f35b61044d600480360360208110156104215760006000fd5b81019080803573ffffffffffffffffffffffffffffffffffffffff169060200190929190505050610fbf565b005b6104576113d1565b604051808267ffffffffffffffff16815260200191505060405180910390f35b6104e46004803603606081101561048e5760006000fd5b81019080803573ffffffffffffffffffffffffffffffffffffffff169060200190929190803573ffffffffffffffffffffffffffffffffffffffff169060200190929190803590602001909291905050506113eb565b005b610533600480360360408110156104fd5760006000fd5b81019080803573ffffffffffffffffffffffffffffffffffffffff16906020019092919080359060200190929190505050611476565b6040518082815260200191505060405180910390f35b6105b6600480360360608110156105605760006000fd5b81019080803573ffffffffffffffffffffffffffffffffffffffff169060200190929190803573ffffffffffffffffffffffffffffffffffffffff169060200190929190803590602001909291905050506114dc565b005b610605600480360360408110156105cf5760006000fd5b81019080803573ffffffffffffffffffffffffffffffffffffffff16906020019092919080359060200190929190505050611506565b60405180821515815260200191505060405180910390f35b61064a600480360360208110156106345760006000fd5b8101908080359060200190929190505050611525565b6040518082815260200191505060405180910390f35b6106a3600480360360208110156106775760006000fd5b81019080803573ffffffffffffffffffffffffffffffffffffffff169060200190929190505050611552565b6040518080602001828103825283818151815260200191508051906020019060200280838360005b838110156106e75780820151818401525b6020810190506106cb565b505050509050019250505060405180910390f35b610728600480360360208110156107125760006000fd5b810190808035906020019092919050505061161b565b604051808273ffffffffffffffffffffffffffffffffffffffff16815260200191505060405180910390f35b61075c61165a565b6040518080602001828103825283818151815260200191508051906020019080838360005b8381101561079d5780820151818401525b602081019050610781565b50505050905090810190601f1680156107ca5780820380516001836020036101000a031916815260200191505b509250505060405180910390f35b61081b600480360360208110156107ef5760006000fd5b81019080803573ffffffffffffffffffffffffffffffffffffffff169060200190929190505050611704565b6040518082815260200191505060405180910390f35b610874600480360360208110156108485760006000fd5b81019080803573ffffffffffffffffffffffffffffffffffffffff1690602001909291905050506117ef565b604051808267ffffffffffffffff16815260200191505060405180910390f35b61089c6119ac565b60405180821515815260200191505060405180910390f35b6108bc6119bf565b6040518080602001828103825283818151815260200191508051906020019080838360005b838110156108fd5780820151818401525b6020810190506108e1565b50505050905090810190601f16801561092a5780820380516001836020036101000a031916815260200191505b509250505060405180910390f35b61096f6004803603602081101561094f5760006000fd5b81019080803567ffffffffffffffff169060200190929190505050611a69565b005b6109c0600480360360408110156109885760006000fd5b81019080803573ffffffffffffffffffffffffffffffffffffffff169060200190929190803515159060200190929190505050611b0c565b005b610acd600480360360808110156109d95760006000fd5b81019080803573ffffffffffffffffffffffffffffffffffffffff169060200190929190803573ffffffffffffffffffffffffffffffffffffffff1690602001909291908035906020019092919080359060200190640100000000811115610a415760006000fd5b820183602082011115610a545760006000fd5b80359060200191846001830284011164010000000083111715610a775760006000fd5b91908080601f016020809104026020016040519081016040528093929190818152602001838380828437600081840152601f19601f82011690508083019250505050505050909091929090919290505050611ce0565b005b610afc60048036036020811015610ae65760006000fd5b8101908080359060200190929190505050611d6d565b6040518080602001828103825283818151815260200191508051906020019080838360005b83811015610b3d5780820151818401525b602081019050610b21565b50505050905090810190601f168015610b6a5780820380516001836020036101000a031916815260200191505b509250505060405180910390f35b610b8061206c565b604051808273ffffffffffffffffffffffffffffffffffffffff16815260200191505060405180910390f35b610c0f60048036036040811015610bc35760006000fd5b81019080803573ffffffffffffffffffffffffffffffffffffffff169060200190929190803573ffffffffffffffffffffffffffffffffffffffff169060200190929190505050612092565b60405180821515815260200191505060405180910390f35b600060006000506000837bffffffffffffffffffffffffffffffffffffffffffffffffffffffff19167bffffffffffffffffffffffffffffffffffffffffffffffffffffffff1916815260200190815260200160002060009054906101000a900460ff169050610c92565b919050565b606060066000508054600181600116156101000203166002900480601f016020809104026020016040519081016040528092919081815260200182805460018160011615610100020316600290048015610d325780601f10610d0757610100808354040283529160200191610d32565b820191906000526020600020905b815481529060010190602001808311610d1557829003601f168201915b50505050509050610d3e565b90565b6000610d528261213163ffffffff16565b1515610da9576040517f08c379a000000000000000000000000000000000000000000000000000000000815260040180806020018281038252602c815260200180613d06602c913960400191505060405180910390fd5b6004600050600083815260200190815260200160002060009054906101000a900473ffffffffffffffffffffffffffffffffffffffff169050610de7565b919050565b6000610dfd8261161b63ffffffff16565b90508073ffffffffffffffffffffffffffffffffffffffff168373ffffffffffffffffffffffffffffffffffffffff1614151515610e86576040517f08c379a0000000000000000000000000000000000000000000000000000000008152600401808060200182810382526021815260200180613d8a6021913960400191505060405180910390fd5b8073ffffffffffffffffffffffffffffffffffffffff16610eab61215663ffffffff16565b73ffffffffffffffffffffffffffffffffffffffff161480610ee65750610ee581610eda61215663ffffffff16565b61209263ffffffff16565b5b1515610f3d576040517f08c379a0000000000000000000000000000000000000000000000000000000008152600401808060200182810382526038815260200180613c596038913960400191505060405180910390fd5b610f4d838361216363ffffffff16565b505b5050565b600a60089054906101000a900473ffffffffffffffffffffffffffffffffffffffff1681565b600f60005060205280600052604060002060009150909054906101000a900460ff1681565b6000610fb56002600050612226909063ffffffff16565b9050610fbc565b90565b600b60009054906101000a900473ffffffffffffffffffffffffffffffffffffffff1673ffffffffffffffffffffffffffffffffffffffff163373ffffffffffffffffffffffffffffffffffffffff1614151561101c5760006000fd5b600b60159054906101000a900460ff161515156110395760006000fd5b80600a60086101000a81548173ffffffffffffffffffffffffffffffffffffffff021916908373ffffffffffffffffffffffffffffffffffffffff160217905550600a60089054906101000a900473ffffffffffffffffffffffffffffffffffffffff1673ffffffffffffffffffffffffffffffffffffffff16639624e83e6040518163ffffffff1660e01b815260040160206040518083038186803b1580156110e35760006000fd5b505afa1580156110f8573d600060003e3d6000fd5b505050506040513d601f19601f8201168201806040525081019061111c9190613aef565b600c60006101000a81548173ffffffffffffffffffffffffffffffffffffffff021916908373ffffffffffffffffffffffffffffffffffffffff160217905550600a60089054906101000a900473ffffffffffffffffffffffffffffffffffffffff1673ffffffffffffffffffffffffffffffffffffffff1663323741746040518163ffffffff1660e01b815260040160206040518083038186803b1580156111c55760006000fd5b505afa1580156111da573d600060003e3d6000fd5b505050506040513d601f19601f820116820180604052508101906111fe9190613b16565b600d60006101000a81548173ffffffffffffffffffffffffffffffffffffffff021916908373ffffffffffffffffffffffffffffffffffffffff160217905550600a60089054906101000a900473ffffffffffffffffffffffffffffffffffffffff1673ffffffffffffffffffffffffffffffffffffffff1663d478b0876040518163ffffffff1660e01b815260040160206040518083038186803b1580156112a75760006000fd5b505afa1580156112bc573d600060003e3d6000fd5b505050506040513d601f19601f820116820180604052508101906112e09190613b3d565b600e60006101000a81548173ffffffffffffffffffffffffffffffffffffffff021916908373ffffffffffffffffffffffffffffffffffffffff16021790555061132e61224963ffffffff16565b600b60149054906101000a900460ff16151561136e57600b60006101000a81549073ffffffffffffffffffffffffffffffffffffffff021916905561138a565b6001600b60156101000a81548160ff0219169083151502179055505b8073ffffffffffffffffffffffffffffffffffffffff167f908408e307fc569b417f6cbec5d5a06f44a0a505ac0479b47d421a4b2fd6a1e660405160405180910390a25b50565b600a60009054906101000a900467ffffffffffffffff1681565b6114086113fc61215663ffffffff16565b8261224c63ffffffff16565b151561145f576040517f08c379a0000000000000000000000000000000000000000000000000000000008152600401808060200182810382526031815260200180613dab6031913960400191505060405180910390fd5b61147083838361236063ffffffff16565b5b505050565b60006114cf82600160005060008673ffffffffffffffffffffffffffffffffffffffff1673ffffffffffffffffffffffffffffffffffffffff1681526020019081526020016000206000506125c990919063ffffffff16565b90506114d6565b92915050565b61150083838360405180602001604052806000815260200150611ce063ffffffff16565b5b505050565b6000611518838361224c63ffffffff16565b905061151f565b92915050565b600060006115408360026000506125f190919063ffffffff16565b5090508091505061154d56505b919050565b606060006115658361170463ffffffff16565b90508067ffffffffffffffff8111801561157f5760006000fd5b506040519080825280602002602001820160405280156115ae5781602001602082028036833780820191505090505b50915081506000600090505b81811015611613576115d2848261147663ffffffff16565b83828151811015156115e057fe5b602002602001019067ffffffffffffffff16908167ffffffffffffffff16815260200150505b80806001019150506115ba565b50505b919050565b600061164e82604051806060016040528060298152602001613cbb6029913960026000506126329092919063ffffffff16565b9050611655565b919050565b606060096000508054600181600116156101000203166002900480601f0160208091040260200160405190810160405280929190818152602001828054600181600116156101000203166002900480156116f55780601f106116ca576101008083540402835291602001916116f5565b820191906000526020600020905b8154815290600101906020018083116116d857829003601f168201915b50505050509050611701565b90565b6000600073ffffffffffffffffffffffffffffffffffffffff168273ffffffffffffffffffffffffffffffffffffffff161415151561178e576040517f08c379a000000000000000000000000000000000000000000000000000000000815260040180806020018281038252602a815260200180613c91602a913960400191505060405180910390fd5b6117e3600160005060008473ffffffffffffffffffffffffffffffffffffffff1673ffffffffffffffffffffffffffffffffffffffff16815260200190815260200160002060005061265f909063ffffffff16565b90506117ea565b919050565b60006118003361268263ffffffff16565b1515611877576040517f08c379a000000000000000000000000000000000000000000000000000000000815260040180806020018281038252600e8152602001807f4e6f7420417574686f72697a656400000000000000000000000000000000000081526020015060200191505060405180910390fd5b67ffffffffffffffff67ffffffffffffffff16600a60009054906101000a900467ffffffffffffffff1667ffffffffffffffff16101515611923576040517f08c379a00000000000000000000000000000000000000000000000000000000081526004018080602001828103825260088152602001807f4f766572666c6f7700000000000000000000000000000000000000000000000081526020015060200191505060405180910390fd5b600a60009054906101000a900467ffffffffffffffff1690508050600a600081819054906101000a900467ffffffffffffffff168092919060010191906101000a81548167ffffffffffffffff021916908367ffffffffffffffff1602179055505061199f828267ffffffffffffffff1661276463ffffffff16565b8090506119a7565b919050565b600a601c9054906101000a900460ff1681565b606060076000508054600181600116156101000203166002900480601f016020809104026020016040519081016040528092919081815260200182805460018160011615610100020316600290048015611a5a5780601f10611a2f57610100808354040283529160200191611a5a565b820191906000526020600020905b815481529060010190602001808311611a3d57829003601f168201915b50505050509050611a66565b90565b611a783361297863ffffffff16565b1515611aef576040517f08c379a000000000000000000000000000000000000000000000000000000000815260040180806020018281038252600e8152602001807f4e6f7420417574686f72697a656400000000000000000000000000000000000081526020015060200191505060405180910390fd5b611b088167ffffffffffffffff1661298863ffffffff16565b5b50565b611b1a61215663ffffffff16565b73ffffffffffffffffffffffffffffffffffffffff168273ffffffffffffffffffffffffffffffffffffffff1614151515611bc0576040517f08c379a00000000000000000000000000000000000000000000000000000000081526004018080602001828103825260198152602001807f4552433732313a20617070726f766520746f2063616c6c65720000000000000081526020015060200191505060405180910390fd5b8060056000506000611bd661215663ffffffff16565b73ffffffffffffffffffffffffffffffffffffffff1673ffffffffffffffffffffffffffffffffffffffff16815260200190815260200160002060005060008473ffffffffffffffffffffffffffffffffffffffff1673ffffffffffffffffffffffffffffffffffffffff16815260200190815260200160002060006101000a81548160ff0219169083151502179055508173ffffffffffffffffffffffffffffffffffffffff16611c8c61215663ffffffff16565b73ffffffffffffffffffffffffffffffffffffffff167f17307eab39ab6107e8899845ad3d59bd9653f200f220920489ca2b5937696c318360405180821515815260200191505060405180910390a35b5050565b611cfd611cf161215663ffffffff16565b8361224c63ffffffff16565b1515611d54576040517f08c379a0000000000000000000000000000000000000000000000000000000008152600401808060200182810382526031815260200180613dab6031913960400191505060405180910390fd5b611d6684848484612ae963ffffffff16565b5b50505050565b6060611d7e8261213163ffffffff16565b1515611dd5576040517f08c379a000000000000000000000000000000000000000000000000000000000815260040180806020018281038252602f815260200180613d5b602f913960400191505060405180910390fd5b6000600860005060008481526020019081526020016000206000508054600181600116156101000203166002900480601f016020809104026020016040519081016040528092919081815260200182805460018160011615610100020316600290048015611e845780601f10611e5957610100808354040283529160200191611e84565b820191906000526020600020905b815481529060010190602001808311611e6757829003601f168201915b505050505090506000611e9b61165a63ffffffff16565b9050600081511415611eb1578192505050612067565b600082511115611f885780826040516020018083805190602001908083835b602083101515611ef657805182525b602082019150602081019050602083039250611ed0565b6001836020036101000a03801982511681845116808217855250505050505090500182805190602001908083835b602083101515611f4a57805182525b602082019150602081019050602083039250611f24565b6001836020036101000a0380198251168184511680821785525050505050509050019250505060405160208183030381529060405292505050612067565b80611f9a85612b6a909063ffffffff16565b6040516020018083805190602001908083835b602083101515611fd357805182525b602082019150602081019050602083039250611fad565b6001836020036101000a03801982511681845116808217855250505050505090500182805190602001908083835b60208310151561202757805182525b602082019150602081019050602083039250612001565b6001836020036101000a03801982511681845116808217855250505050505090500192505050604051602081830303815290604052925050506120675650505b919050565b600b60009054906101000a900473ffffffffffffffffffffffffffffffffffffffff1681565b6000600560005060008473ffffffffffffffffffffffffffffffffffffffff1673ffffffffffffffffffffffffffffffffffffffff16815260200190815260200160002060005060008373ffffffffffffffffffffffffffffffffffffffff1673ffffffffffffffffffffffffffffffffffffffff16815260200190815260200160002060009054906101000a900460ff16905061212b565b92915050565b600061214a826002600050612ccf90919063ffffffff16565b9050612151565b919050565b6000339050612160565b90565b816004600050600083815260200190815260200160002060006101000a81548173ffffffffffffffffffffffffffffffffffffffff021916908373ffffffffffffffffffffffffffffffffffffffff160217905550808273ffffffffffffffffffffffffffffffffffffffff166121df8361161b63ffffffff16565b73ffffffffffffffffffffffffffffffffffffffff167f8c5be1e5ebec7d5bd14f71427d1e84f3dd0314c0f7b2291e5b200ac8c7c3b92560405160405180910390a45b5050565b600061223d82600001600050612cf763ffffffff16565b9050612244565b919050565b5b565b600061225d8261213163ffffffff16565b15156122b4576040517f08c379a000000000000000000000000000000000000000000000000000000000815260040180806020018281038252602c815260200180613c2d602c913960400191505060405180910390fd5b60006122c58361161b63ffffffff16565b90508073ffffffffffffffffffffffffffffffffffffffff168473ffffffffffffffffffffffffffffffffffffffff16148061233a57508373ffffffffffffffffffffffffffffffffffffffff1661232284610d4163ffffffff16565b73ffffffffffffffffffffffffffffffffffffffff16145b806123515750612350818561209263ffffffff16565b5b91505061235a56505b92915050565b8273ffffffffffffffffffffffffffffffffffffffff166123868261161b63ffffffff16565b73ffffffffffffffffffffffffffffffffffffffff161415156123f4576040517f08c379a0000000000000000000000000000000000000000000000000000000008152600401808060200182810382526029815260200180613d326029913960400191505060405180910390fd5b600073ffffffffffffffffffffffffffffffffffffffff168273ffffffffffffffffffffffffffffffffffffffff161415151561247c576040517f08c379a0000000000000000000000000000000000000000000000000000000008152600401808060200182810382526024815260200180613be36024913960400191505060405180910390fd5b61248d838383612d1063ffffffff16565b61249e60008261216363ffffffff16565b6124f581600160005060008673ffffffffffffffffffffffffffffffffffffffff1673ffffffffffffffffffffffffffffffffffffffff168152602001908152602001600020600050612d1690919063ffffffff16565b5061254d81600160005060008573ffffffffffffffffffffffffffffffffffffffff1673ffffffffffffffffffffffffffffffffffffffff168152602001908152602001600020600050612d3e90919063ffffffff16565b5061256781836002600050612d669092919063ffffffff16565b50808273ffffffffffffffffffffffffffffffffffffffff168473ffffffffffffffffffffffffffffffffffffffff167fddf252ad1be2c89b69c2b068fc378daa952ba7f163c4a11628f55a4df523b3ef60405160405180910390a45b505050565b60006125e18360000160005083612da963ffffffff16565b60001c90506125eb565b92915050565b600060006000600061260f8660000160005086612e4063ffffffff16565b915091508160001c8160001c80905093509350505061262b5650505b9250929050565b600061264e846000016000508460001b84612ef463ffffffff16565b60001c9050612658565b9392505050565b60006126768260000160005061300e63ffffffff16565b905061267d565b919050565b6000600a60089054906101000a900473ffffffffffffffffffffffffffffffffffffffff1673ffffffffffffffffffffffffffffffffffffffff166380f556056040518163ffffffff1660e01b815260040160206040518083038186803b1580156126ed5760006000fd5b505afa158015612702573d600060003e3d6000fd5b505050506040513d60208110156127195760006000fd5b810190808051906020019092919050505073ffffffffffffffffffffffffffffffffffffffff168273ffffffffffffffffffffffffffffffffffffffff1614905061275f565b919050565b600073ffffffffffffffffffffffffffffffffffffffff168273ffffffffffffffffffffffffffffffffffffffff161415151561280c576040517f08c379a00000000000000000000000000000000000000000000000000000000081526004018080602001828103825260208152602001807f4552433732313a206d696e7420746f20746865207a65726f206164647265737381526020015060200191505060405180910390fd5b61281b8161213163ffffffff16565b151515612893576040517f08c379a000000000000000000000000000000000000000000000000000000000815260040180806020018281038252601c8152602001807f4552433732313a20746f6b656e20616c7265616479206d696e7465640000000081526020015060200191505060405180910390fd5b6128a560008383612d1063ffffffff16565b6128fc81600160005060008573ffffffffffffffffffffffffffffffffffffffff1673ffffffffffffffffffffffffffffffffffffffff168152602001908152602001600020600050612d3e90919063ffffffff16565b5061291681836002600050612d669092919063ffffffff16565b50808273ffffffffffffffffffffffffffffffffffffffff16600073ffffffffffffffffffffffffffffffffffffffff167fddf252ad1be2c89b69c2b068fc378daa952ba7f163c4a11628f55a4df523b3ef60405160405180910390a45b5050565b600060009050612983565b919050565b60006129998261161b63ffffffff16565b90506129ad81600084612d1063ffffffff16565b6129be60008361216363ffffffff16565b600060086000506000848152602001908152602001600020600050805460018160011615610100020316600290049050141515612a1857600860005060008381526020019081526020016000206000612a179190613a80565b5b612a6f82600160005060008473ffffffffffffffffffffffffffffffffffffffff1673ffffffffffffffffffffffffffffffffffffffff168152602001908152602001600020600050612d1690919063ffffffff16565b50612a8782600260005061302790919063ffffffff16565b5081600073ffffffffffffffffffffffffffffffffffffffff168273ffffffffffffffffffffffffffffffffffffffff167fddf252ad1be2c89b69c2b068fc378daa952ba7f163c4a11628f55a4df523b3ef60405160405180910390a4505b50565b612afa84848461236063ffffffff16565b612b0c8484848461304f63ffffffff16565b1515612b63576040517f08c379a0000000000000000000000000000000000000000000000000000000008152600401808060200182810382526032815260200180613bb16032913960400191505060405180910390fd5b5b50505050565b60606000821415612bb5576040518060400160405280600181526020017f30000000000000000000000000000000000000000000000000000000000000008152602001509050612cca565b600082905060005b600082141515612be5578080600101915050600a82811515612bdb57fe5b0491508150612bbd565b60008167ffffffffffffffff81118015612bff5760006000fd5b506040519080825280601f01601f191660200182016040528015612c325781602001600182028036833780820191505090505b509050600060018303905085935083505b600084141515612cba57600a84811515612c5957fe5b0660300160f81b828280600190039350815181101515612c7557fe5b60200101907effffffffffffffffffffffffffffffffffffffffffffffffffffffffffffff1916908160001a905350600a84811515612cb057fe5b0493508350612c43565b81945050505050612cca56505050505b919050565b6000612cea836000016000508360001b61328063ffffffff16565b9050612cf1565b92915050565b600081600001600050805490509050612d0b565b919050565b5b505050565b6000612d31836000016000508360001b6132b763ffffffff16565b9050612d38565b92915050565b6000612d59836000016000508360001b61340263ffffffff16565b9050612d60565b92915050565b6000612d9b846000016000508460001b8473ffffffffffffffffffffffffffffffffffffffff1660001b6134a163ffffffff16565b9050612da2565b9392505050565b6000818360000160005080549050111515612e0f576040517f08c379a0000000000000000000000000000000000000000000000000000000008152600401808060200182810382526022815260200180613b8f6022913960400191505060405180910390fd5b8260000160005082815481101515612e2357fe5b906000526020600020900160005b50549050612e3a565b92915050565b60006000828460000160005080549050111515612ea8576040517f08c379a0000000000000000000000000000000000000000000000000000000008152600401808060200182810382526022815260200180613ce46022913960400191505060405180910390fd5b60008460000160005084815481101515612ebe57fe5b906000526020600020906002020160005b509050806000016000505481600101600050549250925050612eed56505b9250929050565b600060008460010160005060008560001916600019168152602001908152602001600020600050549050600081141583901515612fcd576040517f08c379a00000000000000000000000000000000000000000000000000000000081526004018080602001828103825283818151815260200191508051906020019080838360005b83811015612f925780820151818401525b602081019050612f76565b50505050905090810190601f168015612fbf5780820380516001836020036101000a031916815260200191505b509250505060405180910390fd5b508460000160005060018203815481101515612fe557fe5b906000526020600020906002020160005b506001016000505491505061300756505b9392505050565b600081600001600050805490509050613022565b919050565b6000613042836000016000508360001b6135dc63ffffffff16565b9050613049565b92915050565b60006130788473ffffffffffffffffffffffffffffffffffffffff1661376e909063ffffffff16565b15156130875760019050613278565b60006131f863150b7a0260e01b6130a261215663ffffffff16565b888787604051602401808573ffffffffffffffffffffffffffffffffffffffff1681526020018473ffffffffffffffffffffffffffffffffffffffff16815260200183815260200180602001828103825283818151815260200191508051906020019080838360005b838110156131275780820151818401525b60208101905061310b565b50505050905090810190601f1680156131545780820380516001836020036101000a031916815260200191505b5095505050505050604051602081830303815290604052907bffffffffffffffffffffffffffffffffffffffffffffffffffffffff19166020820180517bffffffffffffffffffffffffffffffffffffffffffffffffffffffff8381831617835250505050604051806060016040528060328152602001613bb1603291398773ffffffffffffffffffffffffffffffffffffffff166137889092919063ffffffff16565b905060008180602001905160208110156132125760006000fd5b8101908080519060200190929190505050905063150b7a0260e01b7bffffffffffffffffffffffffffffffffffffffffffffffffffffffff1916817bffffffffffffffffffffffffffffffffffffffffffffffffffffffff191614925050506132785650505b949350505050565b60006000836001016000506000846000191660001916815260200190815260200160002060005054141590506132b1565b92915050565b6000600083600101600050600084600019166000191681526020019081526020016000206000505490506000811415156133f05760006001820390506000600186600001600050805490500390506000866000016000508281548110151561331b57fe5b906000526020600020900160005b5054905080876000016000508481548110151561334257fe5b906000526020600020900160005b508190906000191690555060018301876001016000506000836000191660001916815260200190815260200160002060005081909090555086600001600050805480151561339a57fe5b600190038181906000526020600020900160005b5060009055905586600101600050600087600019166000191681526020019081526020016000206000506000905560019450505050506133fc565050506133fa565b60009150506133fc565b505b92915050565b600061341483836137ab63ffffffff16565b1515613491578260000160005082908060018154018082558091505060019003906000526020600020900160005b9091909190915090600019169055826000016000508054905083600101600050600084600019166000191681526020019081526020016000206000508190909055506001905061349b5661349a565b6000905061349b565b5b92915050565b600060008460010160005060008560001916600019168152602001908152602001600020600050549050600081141561358f57846000016000506040518060400160405280866000191681526020018560001916815260200150908060018154018082558091505060019003906000526020600020906002020160005b90919091909150600082015181600001600050906000191690556020820151816001016000509060001916905550508460000160005080549050856001016000506000866000191660001916815260200190815260200160002060005081909090555060019150506135d5566135d3565b8285600001600050600183038154811015156135a757fe5b906000526020600020906002020160005b506001016000508190906000191690555060009150506135d5565b505b9392505050565b60006000836001016000506000846000191660001916815260200190815260200160002060005054905060008114151561375c5760006001820390506000600186600001600050805490500390506000866000016000508281548110151561364057fe5b906000526020600020906002020160005b50905080876000016000508481548110151561366957fe5b906000526020600020906002020160005b506000820160005054816000016000509060001916905560018201600050548160010160005090600019169055905050600183018760010160005060008360000160005054600019166000191681526020019081526020016000206000508190909055508660000160005080548015156136f057fe5b600190038181906000526020600020906002020160005b6000820160005060009055600182016000506000905550509055866001016000506000876000191660001916815260200190815260200160002060005060009055600194505050505061376856505050613766565b6000915050613768565b505b92915050565b60006000823b90506000811191505061378356505b919050565b606061379d84846000856137e263ffffffff16565b90506137a4565b9392505050565b60006000836001016000506000846000191660001916815260200190815260200160002060005054141590506137dc565b92915050565b606082471015151561383f576040517f08c379a0000000000000000000000000000000000000000000000000000000008152600401808060200182810382526026815260200180613c076026913960400191505060405180910390fd5b61384e8561376e63ffffffff16565b15156138c5576040517f08c379a000000000000000000000000000000000000000000000000000000000815260040180806020018281038252601d8152602001807f416464726573733a2063616c6c20746f206e6f6e2d636f6e747261637400000081526020015060200191505060405180910390fd5b600060008673ffffffffffffffffffffffffffffffffffffffff1685876040518082805190602001908083835b60208310151561391857805182525b6020820191506020810190506020830392506138f2565b6001836020036101000a03801982511681845116808217855250505050505090500191505060006040518083038185875af1925050503d806000811461397a576040519150601f19603f3d011682016040523d82523d6000602084013e61397f565b606091505b50915091506139958282866139a863ffffffff16565b925050506139a05650505b949350505050565b606083156139bc57829050613a7956613a78565b6000835111156139d45782518084602001fd50613a77565b816040517f08c379a00000000000000000000000000000000000000000000000000000000081526004018080602001828103825283818151815260200191508051906020019080838360005b83811015613a3c5780820151818401525b602081019050613a20565b50505050905090810190601f168015613a695780820380516001836020036101000a031916815260200191505b509250505060405180910390fd5b5b5b9392505050565b50805460018160011615610100020316600290046000825580601f10613aa65750613ac5565b601f016020900490600052602060002090810190613ac49190613ac8565b5b50565b613acd565b80821115613ae75760008181506000905550600101613acd565b509056613b8d565b600060208284031215613b00578081fd5b8151613b0b81613b64565b809150505b92915050565b600060208284031215613b27578081fd5b8151613b3281613b64565b809150505b92915050565b600060208284031215613b4e578081fd5b8151613b5981613b64565b809150505b92915050565b73ffffffffffffffffffffffffffffffffffffffff811681141515613b895760006000fd5b5b50565bfe456e756d657261626c655365743a20696e646578206f7574206f6620626f756e64734552433732313a207472616e7366657220746f206e6f6e20455243373231526563656976657220696d706c656d656e7465724552433732313a207472616e7366657220746f20746865207a65726f2061646472657373416464726573733a20696e73756666696369656e742062616c616e636520666f722063616c6c4552433732313a206f70657261746f7220717565727920666f72206e6f6e6578697374656e7420746f6b656e4552433732313a20617070726f76652063616c6c6572206973206e6f74206f776e6572206e6f7220617070726f76656420666f7220616c6c4552433732313a2062616c616e636520717565727920666f7220746865207a65726f20616464726573734552433732313a206f776e657220717565727920666f72206e6f6e6578697374656e7420746f6b656e456e756d657261626c654d61703a20696e646578206f7574206f6620626f756e64734552433732313a20617070726f76656420717565727920666f72206e6f6e6578697374656e7420746f6b656e4552433732313a207472616e73666572206f6620746f6b656e2074686174206973206e6f74206f776e4552433732314d657461646174613a2055524920717565727920666f72206e6f6e6578697374656e7420746f6b656e4552433732313a20617070726f76616c20746f2063757272656e74206f776e65724552433732313a207472616e736665722063616c6c6572206973206e6f74206f776e6572206e6f7220617070726f766564a2646970667358221220659adc5acbf26332cbb5927e9ac8c192975720f65f9a9bd7f6a367d611eceba264736f6c63430007060033",
  "linkReferences": {},
  "deployedLinkReferences": {}
}