{
  "_format": "hh-sol-artifact-1",
  "contractName": "TickLens",
  "sourceName": "contracts/uniswap/uniswap-v3-periphery/contracts/lens/TickLens.sol",
  "abi": [
    {
      "inputs": [
        {
          "internalType": "address",
          "name": "pool",
          "type": "address"
        },
        {
          "internalType": "int16",
          "name": "tickBitmapIndex",
          "type": "int16"
        }
      ],
      "name": "getPopulatedTicksInWord",
      "outputs": [
        {
          "components": [
            {
              "internalType": "int24",
              "name": "tick",
              "type": "int24"
            },
            {
              "internalType": "int128",
              "name": "liquidityNet",
              "type": "int128"
            },
            {
              "internalType": "uint128",
              "name": "liquidityGross",
              "type": "uint128"
            }
          ],
          "internalType": "struct ITickLens.PopulatedTick[]",
          "name": "populatedTicks",
          "type": "tuple[]"
        }
      ],
      "stateMutability": "view",
      "type": "function"
    }
  ],
  "bytecode": "0x60806040523480156100115760006000fd5b50610017565b610578806100266000396000f3fe60806040523480156100115760006000fd5b50600436106100305760003560e01c8063351fb4781461003657610030565b60006000fd5b610050600480360381019061004b9190610387565b610066565b60405161005d919061049b565b60405180910390f35b606060008373ffffffffffffffffffffffffffffffffffffffff16635339c296846040518263ffffffff1660e01b81526004016100a39190610517565b60206040518083038186803b1580156100bc5760006000fd5b505afa1580156100d1573d600060003e3d6000fd5b505050506040513d601f19601f820116820180604052508101906100f5919061047f565b905060006000600090505b610100811015610130576000816001901b841611156101225781806001019250505b5b8080600101915050610100565b5060008573ffffffffffffffffffffffffffffffffffffffff1663d0c93a7c6040518163ffffffff1660e01b815260040160206040518083038186803b15801561017a5760006000fd5b505afa15801561018f573d600060003e3d6000fd5b505050506040513d601f19601f820116820180604052508101906101b391906103e4565b90508167ffffffffffffffff811180156101cd5760006000fd5b5060405190808252806020026020018201604052801561020757816020015b6101f4610347565b8152602001906001900390816101ec5790505b50935083506000600090505b61010081101561033c576000816001901b8516111561032e576000828260088960010b60020b901b01029050600060008973ffffffffffffffffffffffffffffffffffffffff1663f30dba93846040518263ffffffff1660e01b815260040161027c919061052c565b60806040518083038186803b1580156102955760006000fd5b505afa1580156102aa573d600060003e3d6000fd5b505050506040513d601f19601f820116820180604052508101906102ce9190610412565b50509150915060405180606001604052808460020b815260200182600f0b8152602001836fffffffffffffffffffffffffffffffff1681526020015088876001900397508781518110151561031f57fe5b60200260200101819052505050505b5b8080600101915050610213565b505050505b92915050565b6040518060600160405280600060020b81526020016000600f0b815260200160006fffffffffffffffffffffffffffffffff168152602001509056610541565b600060006040838503121561039a578182fd5b823573ffffffffffffffffffffffffffffffffffffffff8116811415156103bf578283fd5b8092505060208301358060010b811415156103d8578182fd5b809150505b9250929050565b6000602082840312156103f5578081fd5b81518060020b81141515610407578182fd5b809150505b92915050565b600060006000600060808587031215610429578182fd5b84516fffffffffffffffffffffffffffffffff81168114151561044a578283fd5b80945050602085015180600f0b81141515610463578283fd5b8093505060408501519150606085015190505b92959194509250565b600060208284031215610490578081fd5b815190505b92915050565b60006020808301818452808551808352604092508286019150838701855b82811015610507578151805160020b855286810151600f0b878601526fffffffffffffffffffffffffffffffff8682015116868601525060608401935085820191505b6001810190506104b9565b5050508093505050505b92915050565b60006020820190508260010b82525b92915050565b60006020820190508260020b82525b92915050565bfea26469706673582212201b9bb9de7e259632dcb187ef11a6e074d0d0cdc56169e711692b4fdbdc3f35b764736f6c63430007060033",
  "linkReferences": {},
  "deployedLinkReferences": {}
}