{
  "_format": "hh-sol-artifact-1",
  "contractName": "UniswapMinter",
  "sourceName": "contracts/uniswap/uniswap-v3-core/audits/tob/contracts/crytic/echidna/Setup.sol",
  "abi": [
    {
      "inputs": [
        {
          "internalType": "contract TestERC20",
          "name": "_token0",
          "type": "address"
        },
        {
          "internalType": "contract TestERC20",
          "name": "_token1",
          "type": "address"
        }
      ],
      "stateMutability": "nonpayable",
      "type": "constructor"
    },
    {
      "inputs": [
        {
          "internalType": "int24",
          "name": "_tickLower",
          "type": "int24"
        },
        {
          "internalType": "int24",
          "name": "_tickUpper",
          "type": "int24"
        },
        {
          "internalType": "uint128",
          "name": "_amount",
          "type": "uint128"
        }
      ],
      "name": "doBurn",
      "outputs": [
        {
          "components": [
            {
              "internalType": "uint128",
              "name": "liq",
              "type": "uint128"
            },
            {
              "internalType": "uint128",
              "name": "tL_liqGross",
              "type": "uint128"
            },
            {
              "internalType": "int128",
              "name": "tL_liqNet",
              "type": "int128"
            },
            {
              "internalType": "uint128",
              "name": "tU_liqGross",
              "type": "uint128"
            },
            {
              "internalType": "int128",
              "name": "tU_liqNet",
              "type": "int128"
            }
          ],
          "internalType": "struct UniswapMinter.MinterStats",
          "name": "bfre",
          "type": "tuple"
        },
        {
          "components": [
            {
              "internalType": "uint128",
              "name": "liq",
              "type": "uint128"
            },
            {
              "internalType": "uint128",
              "name": "tL_liqGross",
              "type": "uint128"
            },
            {
              "internalType": "int128",
              "name": "tL_liqNet",
              "type": "int128"
            },
            {
              "internalType": "uint128",
              "name": "tU_liqGross",
              "type": "uint128"
            },
            {
              "internalType": "int128",
              "name": "tU_liqNet",
              "type": "int128"
            }
          ],
          "internalType": "struct UniswapMinter.MinterStats",
          "name": "aftr",
          "type": "tuple"
        }
      ],
      "stateMutability": "nonpayable",
      "type": "function"
    },
    {
      "inputs": [
        {
          "internalType": "int24",
          "name": "_tickLower",
          "type": "int24"
        },
        {
          "internalType": "int24",
          "name": "_tickUpper",
          "type": "int24"
        },
        {
          "internalType": "uint128",
          "name": "_amount",
          "type": "uint128"
        }
      ],
      "name": "doMint",
      "outputs": [
        {
          "components": [
            {
              "internalType": "uint128",
              "name": "liq",
              "type": "uint128"
            },
            {
              "internalType": "uint128",
              "name": "tL_liqGross",
              "type": "uint128"
            },
            {
              "internalType": "int128",
              "name": "tL_liqNet",
              "type": "int128"
            },
            {
              "internalType": "uint128",
              "name": "tU_liqGross",
              "type": "uint128"
            },
            {
              "internalType": "int128",
              "name": "tU_liqNet",
              "type": "int128"
            }
          ],
          "internalType": "struct UniswapMinter.MinterStats",
          "name": "bfre",
          "type": "tuple"
        },
        {
          "components": [
            {
              "internalType": "uint128",
              "name": "liq",
              "type": "uint128"
            },
            {
              "internalType": "uint128",
              "name": "tL_liqGross",
              "type": "uint128"
            },
            {
              "internalType": "int128",
              "name": "tL_liqNet",
              "type": "int128"
            },
            {
              "internalType": "uint128",
              "name": "tU_liqGross",
              "type": "uint128"
            },
            {
              "internalType": "int128",
              "name": "tU_liqNet",
              "type": "int128"
            }
          ],
          "internalType": "struct UniswapMinter.MinterStats",
          "name": "aftr",
          "type": "tuple"
        }
      ],
      "stateMutability": "nonpayable",
      "type": "function"
    },
    {
      "inputs": [
        {
          "internalType": "contract UniswapV3Pool",
          "name": "_pool",
          "type": "address"
        }
      ],
      "name": "setPool",
      "outputs": [],
      "stateMutability": "nonpayable",
      "type": "function"
    },
    {
      "inputs": [
        {
          "internalType": "uint256",
          "name": "amount0Owed",
          "type": "uint256"
        },
        {
          "internalType": "uint256",
          "name": "amount1Owed",
          "type": "uint256"
        },
        {
          "internalType": "bytes",
          "name": "data",
          "type": "bytes"
        }
      ],
      "name": "uniswapV3MintCallback",
      "outputs": [],
      "stateMutability": "nonpayable",
      "type": "function"
    }
  ],
  "bytecode": "0x60806040523480156100115760006000fd5b50604051610dbd380380610dbd833981810160405281019061003391906100e6565b5b81600160006101000a81548173ffffffffffffffffffffffffffffffffffffffff021916908373ffffffffffffffffffffffffffffffffffffffff16021790555080600260006101000a81548173ffffffffffffffffffffffffffffffffffffffff021916908373ffffffffffffffffffffffffffffffffffffffff1602179055505b505061011b5661011a565b6000815190506001600160a01b038116811415156100e05760006000fd5b5b919050565b60006000604083850312156100f9578182fd5b610102836100c2565b9150610110602084016100c2565b90505b9250929050565b5b610c938061012a6000396000f3fe60806040523480156100115760006000fd5b50600436106100515760003560e01c8063258eb326146100575780634437152a14610088578063d3487997146100a4578063e2899625146100c057610051565b60006000fd5b610071600480360381019061006c919061090f565b6100f1565b60405161007f929190610c0f565b60405180910390f35b6100a2600480360381019061009d91906108ce565b6101e7565b005b6100be60048036038101906100b991906109fb565b61022c565b005b6100da60048036038101906100d5919061090f565b6103ef565b6040516100e8929190610c0f565b60405180910390f35b6100f9610811565b610101610811565b610111858561053563ffffffff16565b91508150600060009054906101000a900473ffffffffffffffffffffffffffffffffffffffff1673ffffffffffffffffffffffffffffffffffffffff1663a34123a78686866040518463ffffffff1660e01b815260040161017493929190610bd7565b604060405180830381600087803b15801561018f5760006000fd5b505af11580156101a4573d600060003e3d6000fd5b505050506040513d601f19601f820116820180604052508101906101c891906109d5565b50506101da858561053563ffffffff16565b905080505b935093915050565b80600060006101000a81548173ffffffffffffffffffffffffffffffffffffffff021916908373ffffffffffffffffffffffffffffffffffffffff1602179055505b50565b600084111561030a57600160009054906101000a900473ffffffffffffffffffffffffffffffffffffffff1673ffffffffffffffffffffffffffffffffffffffff1663a9059cbb600060009054906101000a900473ffffffffffffffffffffffffffffffffffffffff16866040518363ffffffff1660e01b81526004016102b4929190610b93565b602060405180830381600087803b1580156102cf5760006000fd5b505af11580156102e4573d600060003e3d6000fd5b505050506040513d601f19601f8201168201806040525081019061030891906108a1565b505b60008311156103e857600260009054906101000a900473ffffffffffffffffffffffffffffffffffffffff1673ffffffffffffffffffffffffffffffffffffffff1663a9059cbb600060009054906101000a900473ffffffffffffffffffffffffffffffffffffffff16856040518363ffffffff1660e01b8152600401610392929190610b93565b602060405180830381600087803b1580156103ad5760006000fd5b505af11580156103c2573d600060003e3d6000fd5b505050506040513d601f19601f820116820180604052508101906103e691906108a1565b505b5b50505050565b6103f7610811565b6103ff610811565b61040f858561053563ffffffff16565b91508150600060009054906101000a900473ffffffffffffffffffffffffffffffffffffffff1673ffffffffffffffffffffffffffffffffffffffff16633c8a7d8d30878787600067ffffffffffffffff8111801561046e5760006000fd5b506040519080825280601f01601f1916602001820160405280156104a15781602001600182028036833780820191505090505b506040518663ffffffff1660e01b81526004016104c2959493929190610ad0565b604060405180830381600087803b1580156104dd5760006000fd5b505af11580156104f2573d600060003e3d6000fd5b505050506040513d601f19601f8201168201806040525081019061051691906109d5565b5050610528858561053563ffffffff16565b905080505b935093915050565b61053d610811565b6000600060006000610555878761067963ffffffff16565b93509350935093506040518060a00160405280600060009054906101000a900473ffffffffffffffffffffffffffffffffffffffff1673ffffffffffffffffffffffffffffffffffffffff16631a6865026040518163ffffffff1660e01b815260040160206040518083038186803b1580156105d15760006000fd5b505afa1580156105e6573d600060003e3d6000fd5b505050506040513d601f19601f8201168201806040525081019061060a9190610957565b6fffffffffffffffffffffffffffffffff168152602001856fffffffffffffffffffffffffffffffff16815260200184600f0b8152602001836fffffffffffffffffffffffffffffffff16815260200182600f0b81526020015094505050505061067356505050505b92915050565b600060006000600060006000600060009054906101000a900473ffffffffffffffffffffffffffffffffffffffff1673ffffffffffffffffffffffffffffffffffffffff1663f30dba93896040518263ffffffff1660e01b81526004016106e09190610bc2565b60806040518083038186803b1580156106f95760006000fd5b505afa15801561070e573d600060003e3d6000fd5b505050506040513d601f19601f82011682018060405250810190610732919061097e565b50509150915060006000600060009054906101000a900473ffffffffffffffffffffffffffffffffffffffff1673ffffffffffffffffffffffffffffffffffffffff1663f30dba938a6040518263ffffffff1660e01b81526004016107979190610bc2565b60806040518083038186803b1580156107b05760006000fd5b505afa1580156107c5573d600060003e3d6000fd5b505050506040513d601f19601f820116820180604052508101906107e9919061097e565b5050915091508383838397509750975097505050505061080856505050505b92959194509250565b6040518060a0016040528060006fffffffffffffffffffffffffffffffff16815260200160006fffffffffffffffffffffffffffffffff1681526020016000600f0b815260200160006fffffffffffffffffffffffffffffffff1681526020016000600f0b8152602001509056610c5c565b6000813590508060020b8114151561089b5760006000fd5b5b919050565b6000602082840312156108b2578081fd5b8151801515811415156108c3578182fd5b809150505b92915050565b6000602082840312156108df578081fd5b813573ffffffffffffffffffffffffffffffffffffffff811681141515610904578182fd5b809150505b92915050565b60006000600060608486031215610924578182fd5b61092d84610883565b925061093b60208501610883565b9150604084013561094b81610c37565b809150505b9250925092565b600060208284031215610968578081fd5b815161097381610c37565b809150505b92915050565b600060006000600060808587031215610995578081fd5b84516109a081610c37565b80945050602085015180600f0b811415156109b9578182fd5b8093505060408501519150606085015190505b92959194509250565b60006000604083850312156109e8578182fd5b82519150602083015190505b9250929050565b600060006000600060608587031215610a12578384fd5b8435935060208501359250604085013567ffffffffffffffff80821115610a37578384fd5b818701915087601f8301121515610a4c578384fd5b813581811115610a5a578485fd5b886020828501011115610a6b578485fd5b6020830194508093505050505b92959194509250565b6fffffffffffffffffffffffffffffffff8082511683528060208301511660208401526040820151600f0b6040840152806060830151166060840152506080810151600f0b60808301525b5050565b600073ffffffffffffffffffffffffffffffffffffffff8716825260208660020b818401528560020b60408401526fffffffffffffffffffffffffffffffff8516606084015260a0608084015283518060a0850152825b81811015610b475782818701015160c082870101525b8281019050610b27565b81811115610b58578360c083870101525b5060c07fffffffffffffffffffffffffffffffffffffffffffffffffffffffffffffffe0601f830116850101925050505b9695505050505050565b600060408201905073ffffffffffffffffffffffffffffffffffffffff841682528260208301525b9392505050565b60006020820190508260020b82525b92915050565b60006060820190508460020b82528360020b60208301526fffffffffffffffffffffffffffffffff831660408301525b949350505050565b600061014082019050610c228285610a81565b610c2f60a0830184610a81565b5b9392505050565b6fffffffffffffffffffffffffffffffff811681141515610c585760006000fd5b5b50565bfea2646970667358221220b53ba51a1f1aaa8b26cd3394996a23c484032a5898a54be5c3b741534517263564736f6c63430007060033",
  "linkReferences": {},
  "deployedLinkReferences": {}
}