{
  "_format": "hh-sol-artifact-1",
  "contractName": "TimeTestable",
  "sourceName": "contracts/mocks/TimeTestable.sol",
  "abi": [
    {
      "inputs": [
        {
          "internalType": "uint64",
          "name": "periodLength",
          "type": "uint64"
        }
      ],
      "stateMutability": "nonpayable",
      "type": "constructor"
    },
    {
      "inputs": [],
      "name": "currentPeriod",
      "outputs": [
        {
          "internalType": "uint64",
          "name": "period",
          "type": "uint64"
        }
      ],
      "stateMutability": "view",
      "type": "function"
    },
    {
      "inputs": [],
      "name": "currentTime",
      "outputs": [
        {
          "internalType": "uint64",
          "name": "time",
          "type": "uint64"
        }
      ],
      "stateMutability": "view",
      "type": "function"
    },
    {
      "inputs": [],
      "name": "firstPeriod",
      "outputs": [
        {
          "internalType": "uint64",
          "name": "",
          "type": "uint64"
        }
      ],
      "stateMutability": "view",
      "type": "function"
    },
    {
      "inputs": [
        {
          "internalType": "uint64",
          "name": "addition",
          "type": "uint64"
        }
      ],
      "name": "futureTime",
      "outputs": [
        {
          "internalType": "uint64",
          "name": "time",
          "type": "uint64"
        }
      ],
      "stateMutability": "view",
      "type": "function"
    },
    {
      "inputs": [],
      "name": "getPeriodLength",
      "outputs": [
        {
          "internalType": "uint64",
          "name": "length",
          "type": "uint64"
        }
      ],
      "stateMutability": "view",
      "type": "function"
    },
    {
      "inputs": [],
      "name": "periodLength",
      "outputs": [
        {
          "internalType": "uint64",
          "name": "",
          "type": "uint64"
        }
      ],
      "stateMutability": "view",
      "type": "function"
    }
  ],
  "bytecode": "0x60c060405234801561001057600080fd5b506040516106773803806106778339818101604052602081101561003357600080fd5b8101908080519060200190929190505050808067ffffffffffffffff1660001415801561006d57506301e285008167ffffffffffffffff16105b6100df576040517f08c379a000000000000000000000000000000000000000000000000000000000815260040180806020018281038252601c8152602001807f54696d653a20496e76616c696420706572696f64206c656e6774682e0000000081525060200191505060405180910390fd5b60018167ffffffffffffffff166100fa61015160201b60201c565b67ffffffffffffffff168161010b57fe5b040367ffffffffffffffff1660a08167ffffffffffffffff1660c01b815250508067ffffffffffffffff1660808167ffffffffffffffff1660c01b8152505050506101d6565b60006101664261016b60201b6102351760201c565b905090565b60006801000000000000000082106101ce576040517f08c379a00000000000000000000000000000000000000000000000000000000081526004018080602001828103825260268152602001806106516026913960400191505060405180910390fd5b819050919050565b60805160c01c60a05160c01c61044361020e600039806101e052806102a45250806101ba528061021352806102c552506104436000f3fe608060405234801561001057600080fd5b50600436106100725760003560e01c8063c4e3a63b11610050578063c4e3a63b1461011d578063d18e81b314610145578063d2ca21151461016d57610072565b806306040618146100775780631ef293eb1461009f5780638469ddc7146100f5575b600080fd5b61007f610195565b604051808267ffffffffffffffff16815260200191505060405180910390f35b6100d5600480360360208110156100b557600080fd5b81019080803567ffffffffffffffff1690602001909291905050506101a4565b604051808267ffffffffffffffff16815260200191505060405180910390f35b6100fd6101b6565b604051808267ffffffffffffffff16815260200191505060405180910390f35b6101256101de565b604051808267ffffffffffffffff16815260200191505060405180910390f35b61014d610202565b604051808267ffffffffffffffff16815260200191505060405180910390f35b610175610211565b604051808267ffffffffffffffff16815260200191505060405180910390f35b600061019f6102a0565b905090565b60006101af8261030e565b9050919050565b60007f0000000000000000000000000000000000000000000000000000000000000000905090565b7f000000000000000000000000000000000000000000000000000000000000000081565b600061020c61033b565b905090565b7f000000000000000000000000000000000000000000000000000000000000000081565b6000680100000000000000008210610298576040517f08c379a00000000000000000000000000000000000000000000000000000000081526004018080602001828103825260268152602001806103e86026913960400191505060405180910390fd5b819050919050565b60007f00000000000000000000000000000000000000000000000000000000000000007f000000000000000000000000000000000000000000000000000000000000000067ffffffffffffffff166102f661033b565b67ffffffffffffffff168161030757fe5b0403905090565b60006103348261031c61033b565b67ffffffffffffffff1661034b90919063ffffffff16565b9050919050565b600061034642610235565b905090565b60008082840190508367ffffffffffffffff168167ffffffffffffffff1610156103dd576040517f08c379a000000000000000000000000000000000000000000000000000000000815260040180806020018281038252601b8152602001807f536166654d6174683a206164646974696f6e206f766572666c6f77000000000081525060200191505060405180910390fd5b809150509291505056fe53616665436173743a2076616c756520646f65736e27742066697420696e2036342062697473a264697066735822122030fe3cd4be6767b06a2ad3644b048d85cb89c9dca0c2321732f5f0869319851a64736f6c6343000704003353616665436173743a2076616c756520646f65736e27742066697420696e2036342062697473",
  "linkReferences": {},
  "deployedLinkReferences": {}
}