{
  "_format": "hh-sol-artifact-1",
  "contractName": "TickOverflowSafetyEchidnaTest",
  "sourceName": "contracts/uniswap/uniswap-v3-core/contracts/test/TickOverflowSafetyEchidnaTest.sol",
  "abi": [
    {
      "inputs": [
        {
          "internalType": "uint256",
          "name": "amount",
          "type": "uint256"
        }
      ],
      "name": "increaseFeeGrowthGlobal0X128",
      "outputs": [],
      "stateMutability": "nonpayable",
      "type": "function"
    },
    {
      "inputs": [
        {
          "internalType": "uint256",
          "name": "amount",
          "type": "uint256"
        }
      ],
      "name": "increaseFeeGrowthGlobal1X128",
      "outputs": [],
      "stateMutability": "nonpayable",
      "type": "function"
    },
    {
      "inputs": [
        {
          "internalType": "int24",
          "name": "target",
          "type": "int24"
        }
      ],
      "name": "moveToTick",
      "outputs": [],
      "stateMutability": "nonpayable",
      "type": "function"
    },
    {
      "inputs": [
        {
          "internalType": "int24",
          "name": "tickLower",
          "type": "int24"
        },
        {
          "internalType": "int24",
          "name": "tickUpper",
          "type": "int24"
        },
        {
          "internalType": "int128",
          "name": "liquidityDelta",
          "type": "int128"
        }
      ],
      "name": "setPosition",
      "outputs": [],
      "stateMutability": "nonpayable",
      "type": "function"
    }
  ],
  "bytecode": "0x60806040526000600160006101000a81548162ffffff021916908360020b62ffffff1602179055506000600260005090905560027fffffffffffffffffffffffffffffffffffffffffffffffffffffffffffffffff81151561005d57fe5b04600360005090905560027fffffffffffffffffffffffffffffffffffffffffffffffffffffffffffffffff81151561009257fe5b04600460005090905560006005600050909055600060066000509090553480156100bc5760006000fd5b506100c2565b610ce6806100d16000396000f3fe60806040523480156100115760006000fd5b50600436106100515760003560e01c80630b0c061f146100575780633f03e19414610086578063541bdfb1146100b5578063af7593681461010157610051565b60006000fd5b6100846004803603602081101561006e5760006000fd5b8101908080359060200190929190505050610133565b005b6100b36004803603602081101561009d5760006000fd5b810190808035906020019092919050505061017a565b005b6100ff600480360360608110156100cc5760006000fd5b81019080803560020b9060200190929190803560020b90602001909291908035600f0b90602001909291905050506101c1565b005b610131600480360360208110156101185760006000fd5b81019080803560020b9060200190929190505050610529565b005b600560005054816005600050540111151561014e5760006000fd5b806003600082828250540192505081909090555080600560008282825054019250508190909055505b50565b60066000505481600660005054011115156101955760006000fd5b806004600082828250540192505081909090555080600660008282825054019250508190909055505b50565b7ffffffffffffffffffffffffffffffffffffffffffffffffffffffffffffffff060020b8360020b1315156101f65760006000fd5b601060020b8260020b12151561020c5760006000fd5b8160020b8360020b1215156102215760006000fd5b600061028e84600160009054906101000a900460020b84600360005054600460005054600060206fffffffffffffffffffffffffffffffff6fffffffffffffffffffffffffffffffff1681151561027457fe5b04600060005061077490979695949392919063ffffffff16565b905060006102fd84600160009054906101000a900460020b85600360005054600460005054600160206fffffffffffffffffffffffffffffffff6fffffffffffffffffffffffffffffffff168115156102e357fe5b04600060005061077490979695949392919063ffffffff16565b905081156103e757600083600f0b1215610389576000600060005060008760020b60020b815260200190815260200160002060005060000160009054906101000a90046fffffffffffffffffffffffffffffffff166fffffffffffffffffffffffffffffffff1614151561036d57fe5b6103848560006000506109f290919063ffffffff16565b6103e6565b6000600060005060008760020b60020b815260200190815260200160002060005060000160009054906101000a90046fffffffffffffffffffffffffffffffff166fffffffffffffffffffffffffffffffff161115156103e557fe5b5b5b80156104cf57600083600f0b1215610471576000600060005060008660020b60020b815260200190815260200160002060005060000160009054906101000a90046fffffffffffffffffffffffffffffffff166fffffffffffffffffffffffffffffffff1614151561045557fe5b61046c8460006000506109f290919063ffffffff16565b6104ce565b6000600060005060008660020b60020b815260200190815260200160002060005060000160009054906101000a90046fffffffffffffffffffffffffffffffff166fffffffffffffffffffffffffffffffff161115156104cd57fe5b5b5b82600f0b600260008282825054019250508190909055506000600260005054121515156104f857fe5b600060026000505414156105215760006005600050819090905550600060066000508190909055505b50505b505050565b7ffffffffffffffffffffffffffffffffffffffffffffffffffffffffffffffff060020b8160020b13151561055e5760006000fd5b601060020b8160020b1215156105745760006000fd5b5b8060020b600160009054906101000a900460020b60020b141515610770578060020b600160009054906101000a900460020b60020b1215610692576000600060005060006001600160009054906101000a900460020b0160020b60020b815260200190815260200160002060005060000160009054906101000a90046fffffffffffffffffffffffffffffffff166fffffffffffffffffffffffffffffffff161115610654576106526001600160009054906101000a900460020b016003600050546004600050546000600050610a6f909392919063ffffffff16565b505b6001600081819054906101000a900460020b8092919060010191906101000a81548162ffffff021916908360020b62ffffff1602179055505061076b565b600060006000506000600160009054906101000a900460020b60020b60020b815260200190815260200160002060005060000160009054906101000a90046fffffffffffffffffffffffffffffffff166fffffffffffffffffffffffffffffffff1611156107305761072e600160009054906101000a900460020b6003600050546004600050546000600050610a6f909392919063ffffffff16565b505b6001600081819054906101000a900460020b809291906001900391906101000a81548162ffffff021916908360020b62ffffff160217905550505b610575565b5b50565b600060008960008a60020b60020b8152602001908152602001600020600050905060008160000160009054906101000a90046fffffffffffffffffffffffffffffffff16905060006107cc828a610ade63ffffffff16565b9050846fffffffffffffffffffffffffffffffff16816fffffffffffffffffffffffffffffffff161115151561086d576040517f08c379a00000000000000000000000000000000000000000000000000000000081526004018080602001828103825260028152602001807f4c4f00000000000000000000000000000000000000000000000000000000000081526020015060200191505060405180910390fd5b6000826fffffffffffffffffffffffffffffffff161415156000826fffffffffffffffffffffffffffffffff161415151415935083506000826fffffffffffffffffffffffffffffffff1614156108eb578960020b8b60020b1315156108ea57878360010160005081909090555086836002016000508190909055505b5b808360000160006101000a8154816fffffffffffffffffffffffffffffffff02191690836fffffffffffffffffffffffffffffffff1602179055508561096a576109656109588a600f0b8560000160109054906101000a9004600f0b600f0b610c4390919063ffffffff16565b610c6b909063ffffffff16565b6109a5565b6109a46109978a600f0b8560000160109054906101000a9004600f0b600f0b610c8890919063ffffffff16565b610c6b909063ffffffff16565b5b8360000160106101000a8154816fffffffffffffffffffffffffffffffff0219169083600f0b6fffffffffffffffffffffffffffffffff1602179055505050505b98975050505050505050565b8160008260020b60020b815260200190815260200160002060006000820160006101000a8154906fffffffffffffffffffffffffffffffff02191690556000820160106101000a8154906fffffffffffffffffffffffffffffffff02191690556001820160005060009055600282016000506000905550505b5050565b600060008560008660020b60020b81526020019081526020016000206000509050806001016000505484038160010160005081909090555080600201600050548303816002016000508190909055508060000160109054906101000a9004600f0b91508150505b949350505050565b6000600082600f0b1215610b9757826fffffffffffffffffffffffffffffffff168260000384039150816fffffffffffffffffffffffffffffffff16101515610b92576040517f08c379a00000000000000000000000000000000000000000000000000000000081526004018080602001828103825260028152602001807f4c5300000000000000000000000000000000000000000000000000000000000081526020015060200191505060405180910390fd5b610c3c565b826fffffffffffffffffffffffffffffffff168284019150816fffffffffffffffffffffffffffffffff1610151515610c3b576040517f08c379a00000000000000000000000000000000000000000000000000000000081526004018080602001828103825260028152602001807f4c4100000000000000000000000000000000000000000000000000000000000081526020015060200191505060405180910390fd5b5b5b92915050565b6000600082121515158383850192508212151515141515610c645760006000fd5b5b92915050565b60008182915081600f0b141515610c825760006000fd5b5b919050565b6000600082121515158383850392508213151515141515610ca95760006000fd5b5b9291505056fea264697066735822122031a1d2e46424433567565e880a42e100cfa8d81430e646944cb0f762da1e632664736f6c63430007060033",
  "linkReferences": {},
  "deployedLinkReferences": {}
}