{
  "_format": "hh-sol-artifact-1",
  "contractName": "PricesTestable",
  "sourceName": "contracts/mocks/PricesTestable.sol",
  "abi": [
    {
      "anonymous": false,
      "inputs": [
        {
          "indexed": true,
          "internalType": "address",
          "name": "governor",
          "type": "address"
        }
      ],
      "name": "Initialized",
      "type": "event"
    },
    {
      "anonymous": false,
      "inputs": [
        {
          "indexed": true,
          "internalType": "string",
          "name": "paramName",
          "type": "string"
        },
        {
          "indexed": true,
          "internalType": "address",
          "name": "addr",
          "type": "address"
        }
      ],
      "name": "ParameterUpdatedAddress",
      "type": "event"
    },
    {
      "anonymous": false,
      "inputs": [
        {
          "indexed": true,
          "internalType": "address",
          "name": "pool",
          "type": "address"
        },
        {
          "indexed": false,
          "internalType": "uint256",
          "name": "price",
          "type": "uint256"
        },
        {
          "indexed": false,
          "internalType": "int24",
          "name": "tick",
          "type": "int24"
        }
      ],
      "name": "PriceUpdated",
      "type": "event"
    },
    {
      "anonymous": false,
      "inputs": [],
      "name": "Stopped",
      "type": "event"
    },
    {
      "inputs": [
        {
          "internalType": "contract IUniswapV3Pool",
          "name": "pool",
          "type": "address"
        }
      ],
      "name": "addReferencePool",
      "outputs": [],
      "stateMutability": "nonpayable",
      "type": "function"
    },
    {
      "inputs": [
        {
          "internalType": "contract IUniswapV3Pool",
          "name": "pool",
          "type": "address"
        },
        {
          "internalType": "uint32",
          "name": "twapDuration",
          "type": "uint32"
        }
      ],
      "name": "calculateInstantTwappedPrice",
      "outputs": [
        {
          "internalType": "uint256",
          "name": "",
          "type": "uint256"
        }
      ],
      "stateMutability": "view",
      "type": "function"
    },
    {
      "inputs": [
        {
          "internalType": "contract IUniswapV3Pool",
          "name": "pool",
          "type": "address"
        },
        {
          "internalType": "uint32",
          "name": "twapDuration",
          "type": "uint32"
        }
      ],
      "name": "calculateInstantTwappedTick",
      "outputs": [
        {
          "internalType": "int24",
          "name": "tick",
          "type": "int24"
        }
      ],
      "stateMutability": "view",
      "type": "function"
    },
    {
      "inputs": [
        {
          "internalType": "contract IUniswapV3Pool",
          "name": "pool",
          "type": "address"
        },
        {
          "internalType": "bool",
          "name": "normalizeDecimals",
          "type": "bool"
        }
      ],
      "name": "calculateTwappedPrice",
      "outputs": [
        {
          "internalType": "uint256",
          "name": "price",
          "type": "uint256"
        }
      ],
      "stateMutability": "view",
      "type": "function"
    },
    {
      "inputs": [],
      "name": "collateralPool",
      "outputs": [
        {
          "internalType": "contract IUniswapV3Pool",
          "name": "",
          "type": "address"
        }
      ],
      "stateMutability": "view",
      "type": "function"
    },
    {
      "inputs": [],
      "name": "completeSetup",
      "outputs": [],
      "stateMutability": "nonpayable",
      "type": "function"
    },
    {
      "inputs": [
        {
          "internalType": "uint160",
          "name": "sqrtPriceX96",
          "type": "uint160"
        }
      ],
      "name": "convertSqrtPriceX96ToTick",
      "outputs": [
        {
          "internalType": "int24",
          "name": "",
          "type": "int24"
        }
      ],
      "stateMutability": "pure",
      "type": "function"
    },
    {
      "inputs": [
        {
          "internalType": "int24",
          "name": "tick",
          "type": "int24"
        }
      ],
      "name": "convertTickToSqrtPriceX96",
      "outputs": [
        {
          "internalType": "uint160",
          "name": "",
          "type": "uint160"
        }
      ],
      "stateMutability": "pure",
      "type": "function"
    },
    {
      "inputs": [],
      "name": "deployer",
      "outputs": [
        {
          "internalType": "address",
          "name": "",
          "type": "address"
        }
      ],
      "stateMutability": "view",
      "type": "function"
    },
    {
      "inputs": [
        {
          "internalType": "uint160",
          "name": "sqrtPriceX96",
          "type": "uint160"
        }
      ],
      "name": "getE18PriceForSqrtX96Price",
      "outputs": [
        {
          "internalType": "uint256",
          "name": "",
          "type": "uint256"
        }
      ],
      "stateMutability": "pure",
      "type": "function"
    },
    {
      "inputs": [
        {
          "internalType": "int24",
          "name": "tick",
          "type": "int24"
        },
        {
          "internalType": "bool",
          "name": "isToken0",
          "type": "bool"
        }
      ],
      "name": "getPriceForTick",
      "outputs": [
        {
          "internalType": "uint256",
          "name": "price",
          "type": "uint256"
        }
      ],
      "stateMutability": "pure",
      "type": "function"
    },
    {
      "inputs": [
        {
          "internalType": "contract IUniswapV3Pool",
          "name": "pool",
          "type": "address"
        },
        {
          "internalType": "int24",
          "name": "tick",
          "type": "int24"
        },
        {
          "internalType": "int24",
          "name": "tickLower",
          "type": "int24"
        },
        {
          "internalType": "int24",
          "name": "tickUpper",
          "type": "int24"
        },
        {
          "internalType": "uint128",
          "name": "liquidity",
          "type": "uint128"
        },
        {
          "internalType": "uint32",
          "name": "twapDuration",
          "type": "uint32"
        }
      ],
      "name": "getRealZhuCountForSinglePoolPosition",
      "outputs": [
        {
          "internalType": "uint256",
          "name": "",
          "type": "uint256"
        }
      ],
      "stateMutability": "view",
      "type": "function"
    },
    {
      "inputs": [
        {
          "internalType": "int56",
          "name": "tickCumulative0",
          "type": "int56"
        },
        {
          "internalType": "int56",
          "name": "tickCumulative1",
          "type": "int56"
        },
        {
          "internalType": "uint32",
          "name": "timeElapsed",
          "type": "uint32"
        }
      ],
      "name": "getTickForCumulators",
      "outputs": [
        {
          "internalType": "int24",
          "name": "tick",
          "type": "int24"
        }
      ],
      "stateMutability": "pure",
      "type": "function"
    },
    {
      "inputs": [
        {
          "internalType": "contract IUniswapV3Pool",
          "name": "pool",
          "type": "address"
        },
        {
          "internalType": "uint256",
          "name": "liquidity",
          "type": "uint256"
        },
        {
          "internalType": "uint32",
          "name": "twapDuration",
          "type": "uint32"
        }
      ],
      "name": "getVirtualZhuCountForLiquidityAmount",
      "outputs": [
        {
          "internalType": "uint256",
          "name": "",
          "type": "uint256"
        }
      ],
      "stateMutability": "view",
      "type": "function"
    },
    {
      "inputs": [],
      "name": "governor",
      "outputs": [
        {
          "internalType": "contract IGovernor",
          "name": "",
          "type": "address"
        }
      ],
      "stateMutability": "view",
      "type": "function"
    },
    {
      "inputs": [
        {
          "internalType": "contract IGovernor",
          "name": "_governor",
          "type": "address"
        }
      ],
      "name": "init",
      "outputs": [],
      "stateMutability": "nonpayable",
      "type": "function"
    },
    {
      "inputs": [
        {
          "internalType": "uint256",
          "name": "price",
          "type": "uint256"
        },
        {
          "components": [
            {
              "internalType": "uint64",
              "name": "startTime",
              "type": "uint64"
            },
            {
              "internalType": "int56",
              "name": "tickCumulative",
              "type": "int56"
            },
            {
              "internalType": "int24",
              "name": "tick",
              "type": "int24"
            },
            {
              "internalType": "uint8",
              "name": "otherTokenDecimals",
              "type": "uint8"
            },
            {
              "internalType": "bool",
              "name": "isToken0",
              "type": "bool"
            },
            {
              "internalType": "bool",
              "name": "valid",
              "type": "bool"
            }
          ],
          "internalType": "struct IPrices.PriceInfo",
          "name": "pi",
          "type": "tuple"
        }
      ],
      "name": "normalizeDecimals",
      "outputs": [
        {
          "internalType": "uint256",
          "name": "",
          "type": "uint256"
        }
      ],
      "stateMutability": "pure",
      "type": "function"
    },
    {
      "inputs": [],
      "name": "obs0",
      "outputs": [
        {
          "internalType": "uint32[]",
          "name": "times",
          "type": "uint32[]"
        }
      ],
      "stateMutability": "pure",
      "type": "function"
    },
    {
      "inputs": [
        {
          "internalType": "contract IUniswapV3Pool",
          "name": "",
          "type": "address"
        }
      ],
      "name": "priceInfo",
      "outputs": [
        {
          "internalType": "uint64",
          "name": "startTime",
          "type": "uint64"
        },
        {
          "internalType": "int56",
          "name": "tickCumulative",
          "type": "int56"
        },
        {
          "internalType": "int24",
          "name": "tick",
          "type": "int24"
        },
        {
          "internalType": "uint8",
          "name": "otherTokenDecimals",
          "type": "uint8"
        },
        {
          "internalType": "bool",
          "name": "isToken0",
          "type": "bool"
        },
        {
          "internalType": "bool",
          "name": "valid",
          "type": "bool"
        }
      ],
      "stateMutability": "view",
      "type": "function"
    },
    {
      "inputs": [],
      "name": "protocolPool",
      "outputs": [
        {
          "internalType": "contract IUniswapV3Pool",
          "name": "",
          "type": "address"
        }
      ],
      "stateMutability": "view",
      "type": "function"
    },
    {
      "inputs": [
        {
          "internalType": "bool",
          "name": "valid",
          "type": "bool"
        }
      ],
      "name": "requireValidPool",
      "outputs": [],
      "stateMutability": "pure",
      "type": "function"
    },
    {
      "inputs": [],
      "name": "stop",
      "outputs": [],
      "stateMutability": "nonpayable",
      "type": "function"
    },
    {
      "inputs": [],
      "name": "stopped",
      "outputs": [
        {
          "internalType": "bool",
          "name": "",
          "type": "bool"
        }
      ],
      "stateMutability": "view",
      "type": "function"
    },
    {
      "inputs": [
        {
          "internalType": "contract IUniswapV3Pool",
          "name": "pool",
          "type": "address"
        }
      ],
      "name": "systemObtainReferencePrice",
      "outputs": [
        {
          "internalType": "uint256",
          "name": "",
          "type": "uint256"
        }
      ],
      "stateMutability": "nonpayable",
      "type": "function"
    },
    {
      "inputs": [
        {
          "internalType": "bytes4",
          "name": "",
          "type": "bytes4"
        }
      ],
      "name": "validUpdate",
      "outputs": [
        {
          "internalType": "bool",
          "name": "",
          "type": "bool"
        }
      ],
      "stateMutability": "view",
      "type": "function"
    },
    {
      "inputs": [
        {
          "internalType": "uint32",
          "name": "twapDuration",
          "type": "uint32"
        }
      ],
      "name": "zhuTcpPrice",
      "outputs": [
        {
          "internalType": "uint256",
          "name": "",
          "type": "uint256"
        }
      ],
      "stateMutability": "view",
      "type": "function"
    }
  ],
  "bytecode": "0x60806040526001600660005090905534801561001b5760006000fd5b505b33600160006101000a81548173ffffffffffffffffffffffffffffffffffffffff021916908373ffffffffffffffffffffffffffffffffffffffff1602179055505b610064565b614bde80620000746000396000f3fe60806040523480156100115760006000fd5b50600436106101b35760003560e01c8063bd2699e3116100ef578063d370a26411610098578063d97e640011610072578063d97e6400146104fc578063dcaeb11b1461052c578063fcebd71c1461055c578063ff0eccf61461058c576101b3565b8063d370a26414610490578063d423b073146104ae578063d5f39488146104de576101b3565b8063ce137854116100c9578063ce13785414610400578063ce403c1314610430578063d00d0bd614610460576101b3565b8063bd2699e314610384578063c381c1e6146103b4578063cb75e31b146103d0576101b3565b80633c63a9cd1161015c5780637ce3b2dc116101365780637ce3b2dc146102fc5780638396cf691461032c5780638aea8f711461034a5780639ebf54b514610354576101b3565b80633c63a9cd146102795780636d048d53146102a957806375f12b21146102de576101b3565b806319ab453c1161018d57806319ab453c1461021157806321b78b771461022d5780633497dcec1461025d576101b3565b806307da68f5146101b95780630c340a24146101c3578063113cf1ab146101e1576101b3565b60006000fd5b6101c16105aa565b005b6101cb6105ca565b6040516101d89190614a15565b60405180910390f35b6101fb60048036038101906101f69190614564565b6105f0565b6040516102089190614a01565b60405180910390f35b61022b600480360381019061022691906145d8565b610615565b005b610247600480360381019061024291906147dd565b6109d3565b6040516102549190614b20565b60405180910390f35b61027760048036038101906102729190614541565b6109f2565b005b610293600480360381019061028e919061464d565b610a05565b6040516102a09190614b20565b60405180910390f35b6102c360048036038101906102be9190614626565b610e74565b6040516102d596959493929190614b32565b60405180910390f35b6102e6610f08565b6040516102f39190614a01565b60405180910390f35b61031660048036038101906103119190614685565b610f1b565b6040516103239190614b20565b60405180910390f35b61033461118b565b6040516103419190614a3d565b60405180910390f35b6103526111b1565b005b61036e6004803603810190610369919061471a565b611586565b60405161037b9190614b20565b60405180910390f35b61039e600480360381019061039991906147ba565b61172a565b6040516103ab9190614af8565b60405180910390f35b6103ce60048036038101906103c99190614626565b611747565b005b6103ea60048036038101906103e59190614962565b6117e5565b6040516103f79190614b20565b60405180910390f35b61041a60048036038101906104159190614855565b611868565b6040516104279190614b20565b60405180910390f35b61044a60048036038101906104459190614626565b611885565b6040516104579190614b20565b60405180910390f35b61047a60048036038101906104759190614811565b612046565b6040516104879190614a65565b60405180910390f35b610498612067565b6040516104a591906149ad565b60405180910390f35b6104c860048036038101906104c39190614855565b612081565b6040516104d59190614a65565b60405180910390f35b6104e661209e565b6040516104f39190614985565b60405180910390f35b6105166004803603810190610511919061475b565b6120c4565b6040516105239190614b20565b60405180910390f35b6105466004803603810190610541919061487c565b6120e3565b6040516105539190614b20565b60405180910390f35b6105766004803603810190610571919061475b565b612102565b6040516105839190614a65565b60405180910390f35b61059461224c565b6040516105a19190614a3d565b60405180910390f35b6105b861227263ffffffff16565b6105c661230763ffffffff16565b5b5b565b600060009054906101000a900473ffffffffffffffffffffffffffffffffffffffff1681565b600560005060205280600052604060002060009150909054906101000a900460ff1681565b600160009054906101000a900473ffffffffffffffffffffffffffffffffffffffff1673ffffffffffffffffffffffffffffffffffffffff163373ffffffffffffffffffffffffffffffffffffffff161415156106725760006000fd5b600160006101000a81549073ffffffffffffffffffffffffffffffffffffffff021916905580600060006101000a81548173ffffffffffffffffffffffffffffffffffffffff021916908373ffffffffffffffffffffffffffffffffffffffff160217905550600060009054906101000a900473ffffffffffffffffffffffffffffffffffffffff1673ffffffffffffffffffffffffffffffffffffffff16639624e83e6040518163ffffffff1660e01b815260040160206040518083038186803b1580156107415760006000fd5b505afa158015610756573d600060003e3d6000fd5b505050506040513d601f19601f8201168201806040525081019061077a91906145b1565b600260006101000a81548173ffffffffffffffffffffffffffffffffffffffff021916908373ffffffffffffffffffffffffffffffffffffffff160217905550600060009054906101000a900473ffffffffffffffffffffffffffffffffffffffff1673ffffffffffffffffffffffffffffffffffffffff16638a15fcf36040518163ffffffff1660e01b815260040160206040518083038186803b1580156108235760006000fd5b505afa158015610838573d600060003e3d6000fd5b505050506040513d601f19601f8201168201806040525081019061085c9190614793565b600360006101000a81548173ffffffffffffffffffffffffffffffffffffffff021916908373ffffffffffffffffffffffffffffffffffffffff160217905550600060009054906101000a900473ffffffffffffffffffffffffffffffffffffffff1673ffffffffffffffffffffffffffffffffffffffff1663d478b0876040518163ffffffff1660e01b815260040160206040518083038186803b1580156109055760006000fd5b505afa15801561091a573d600060003e3d6000fd5b505050506040513d601f19601f8201168201806040525081019061093e91906145ff565b600460006101000a81548173ffffffffffffffffffffffffffffffffffffffff021916908373ffffffffffffffffffffffffffffffffffffffff16021790555061098c61235163ffffffff16565b8073ffffffffffffffffffffffffffffffffffffffff167f908408e307fc569b417f6cbec5d5a06f44a0a505ac0479b47d421a4b2fd6a1e660405160405180910390a25b50565b60006109e5838361235463ffffffff16565b90506109ec565b92915050565b610a018161238f63ffffffff16565b5b50565b60006000600760005060008573ffffffffffffffffffffffffffffffffffffffff1673ffffffffffffffffffffffffffffffffffffffff1681526020019081526020016000206000506040518060c00160405290816000820160009054906101000a900467ffffffffffffffff1667ffffffffffffffff1667ffffffffffffffff1681526020016000820160089054906101000a900460060b60060b60060b815260200160008201600f9054906101000a900460020b60020b60020b81526020016000820160129054906101000a900460ff1660ff1660ff1681526020016000820160139054906101000a900460ff161515151581526020016000820160149054906101000a900460ff1615151515815260200150509050610b308160a0015161238f63ffffffff16565b6000610b4061240b63ffffffff16565b90508067ffffffffffffffff16826000015167ffffffffffffffff16101515610bd4576040517f08c379a00000000000000000000000000000000000000000000000000000000081526004018080602001828103825260028152602001807f544500000000000000000000000000000000000000000000000000000000000081526020015060200191505060405180910390fd5b60008573ffffffffffffffffffffffffffffffffffffffff1663883bdbfd610c0061242663ffffffff16565b6040518263ffffffff1660e01b81526004018080602001828103825283818151815260200191508051906020019060200280838360005b83811015610c535780820151818401525b602081019050610c37565b505050509050019250505060006040518083038186803b158015610c775760006000fd5b505afa158015610c8c573d600060003e3d6000fd5b505050506040513d6000823e3d601f19601f820116820180604052506040811015610cb75760006000fd5b8101908080516040519392919084640100000000821115610cd85760006000fd5b83820191506020820185811115610cef5760006000fd5b8251866020820283011164010000000082111715610d0d5760006000fd5b8083526020830192505050908051906020019060200280838360005b83811015610d455780820151818401525b602081019050610d29565b5050505090500160405260200180516040519392919084640100000000821115610d6f5760006000fd5b83820191506020820185811115610d865760006000fd5b8251866020820283011164010000000082111715610da45760006000fd5b8083526020830192505050908051906020019060200280838360005b83811015610ddc5780820151818401525b602081019050610dc0565b50505050905001604052602001505050509050610e41610e318460200151836000815181101515610e0957fe5b6020026020010151610e26876000015187036124a763ffffffff16565b61253f63ffffffff16565b846080015161235463ffffffff16565b9350835084610e505783610e61565b610e6084846125ae63ffffffff16565b5b9350505050610e6e565050505b92915050565b60076000506020528060005260406000206000915090508060000160009054906101000a900467ffffffffffffffff16908060000160089054906101000a900460060b9080600001600f9054906101000a900460020b908060000160129054906101000a900460ff16908060000160139054906101000a900460ff16908060000160149054906101000a900460ff16905086565b600060149054906101000a900460ff1681565b60006000600760005060008973ffffffffffffffffffffffffffffffffffffffff1673ffffffffffffffffffffffffffffffffffffffff1681526020019081526020016000206000506040518060c00160405290816000820160009054906101000a900467ffffffffffffffff1667ffffffffffffffff1667ffffffffffffffff1681526020016000820160089054906101000a900460060b60060b60060b815260200160008201600f9054906101000a900460020b60020b60020b81526020016000820160129054906101000a900460ff1660ff1660ff1681526020016000820160139054906101000a900460ff161515151581526020016000820160149054906101000a900460ff16151515158152602001505090506110468160a0015161238f63ffffffff16565b6000600061108661105c8a61264363ffffffff16565b61106b8a61264363ffffffff16565b61107a8a61264363ffffffff16565b89612ada63ffffffff16565b915091506000836080015161109b578161109d565b825b9050600860009054906101000a900473ffffffffffffffffffffffffffffffffffffffff1673ffffffffffffffffffffffffffffffffffffffff168b73ffffffffffffffffffffffffffffffffffffffff1614156111715761116c61112a600960009054906101000a900473ffffffffffffffffffffffffffffffffffffffff1688612bf063ffffffff16565b61115c600860009054906101000a900473ffffffffffffffffffffffffffffffffffffffff1689612bf063ffffffff16565b83612dc59092919063ffffffff16565b905080505b8094505050505061118156505050505b9695505050505050565b600860009054906101000a900473ffffffffffffffffffffffffffffffffffffffff1681565b6111bf61227263ffffffff16565b600060009054906101000a900473ffffffffffffffffffffffffffffffffffffffff1673ffffffffffffffffffffffffffffffffffffffff16638396cf696040518163ffffffff1660e01b815260040160206040518083038186803b1580156112285760006000fd5b505afa15801561123d573d600060003e3d6000fd5b505050506040513d60208110156112545760006000fd5b8101908080519060200190929190505050600860006101000a81548173ffffffffffffffffffffffffffffffffffffffff021916908373ffffffffffffffffffffffffffffffffffffffff1602179055506112d6600860009054906101000a900473ffffffffffffffffffffffffffffffffffffffff16612ec663ffffffff16565b600060009054906101000a900473ffffffffffffffffffffffffffffffffffffffff1673ffffffffffffffffffffffffffffffffffffffff1663ff0eccf66040518163ffffffff1660e01b815260040160206040518083038186803b15801561133f5760006000fd5b505afa158015611354573d600060003e3d6000fd5b505050506040513d602081101561136b5760006000fd5b8101908080519060200190929190505050600960006101000a81548173ffffffffffffffffffffffffffffffffffffffff021916908373ffffffffffffffffffffffffffffffffffffffff1602179055506113ed600960009054906101000a900473ffffffffffffffffffffffffffffffffffffffff16612ec663ffffffff16565b6000600060009054906101000a900473ffffffffffffffffffffffffffffffffffffffff1673ffffffffffffffffffffffffffffffffffffffff1663ab658be26040518163ffffffff1660e01b815260040160006040518083038186803b1580156114585760006000fd5b505afa15801561146d573d600060003e3d6000fd5b505050506040513d6000823e3d601f19601f8201168201806040525060208110156114985760006000fd5b81019080805160405193929190846401000000008211156114b95760006000fd5b838201915060208201858111156114d05760006000fd5b82518660208202830111640100000000821117156114ee5760006000fd5b8083526020830192505050908051906020019060200280838360005b838110156115265780820151818401525b60208101905061150a565b5050505090500160405260200150505090506000600090505b81518160ff16101561158057611572828260ff1681518110151561155f57fe5b6020026020010151612ec663ffffffff16565b5b808060010191505061153f565b50505b5b565b60006000600760005060008673ffffffffffffffffffffffffffffffffffffffff1673ffffffffffffffffffffffffffffffffffffffff1681526020019081526020016000206000506040518060c00160405290816000820160009054906101000a900467ffffffffffffffff1667ffffffffffffffff1667ffffffffffffffff1681526020016000820160089054906101000a900460060b60060b60060b815260200160008201600f9054906101000a900460020b60020b60020b81526020016000820160129054906101000a900460ff1660ff1660ff1681526020016000820160139054906101000a900460ff161515151581526020016000820160149054906101000a900460ff16151515158152602001505090506116b18160a0015161238f63ffffffff16565b60006116c3868561358a63ffffffff16565b905081608001516116f5576116f0816c0100000000000000000000000087612dc59092919063ffffffff16565b611718565b6117176c010000000000000000000000008287612dc59092919063ffffffff16565b5b925050506117235650505b9392505050565b600061173b8261264363ffffffff16565b9050611742565b919050565b61175561227263ffffffff16565b61176481612ec663ffffffff16565b8073ffffffffffffffffffffffffffffffffffffffff1660405180807f6164645265666572656e6365506f6f6c00000000000000000000000000000000815260200150601001905060405180910390207f78caada2f560033c9479d8c5e33f045f2e611faebe6b6d8a73874c80ec2dd3a260405160405180910390a35b5b50565b600061185c61181c600860009054906101000a900473ffffffffffffffffffffffffffffffffffffffff1684612bf063ffffffff16565b61184e600960009054906101000a900473ffffffffffffffffffffffffffffffffffffffff1685612bf063ffffffff16565b6135cd90919063ffffffff16565b9050611863565b919050565b6000611879826135f363ffffffff16565b9050611880565b919050565b600061189561365063ffffffff16565b600060009054906101000a900473ffffffffffffffffffffffffffffffffffffffff1673ffffffffffffffffffffffffffffffffffffffff166343f48fbd6040518163ffffffff1660e01b815260040160206040518083038186803b1580156118fe5760006000fd5b505afa158015611913573d600060003e3d6000fd5b505050506040513d602081101561192a5760006000fd5b810190808051906020019092919050505073ffffffffffffffffffffffffffffffffffffffff163373ffffffffffffffffffffffffffffffffffffffff161415156119e0576040517f08c379a000000000000000000000000000000000000000000000000000000000815260040180806020018281038252600e8152602001807f4e6f7420417574686f72697a656400000000000000000000000000000000000081526020015060200191505060405180910390fd5b6000600760005060008473ffffffffffffffffffffffffffffffffffffffff1673ffffffffffffffffffffffffffffffffffffffff1681526020019081526020016000206000506040518060c00160405290816000820160009054906101000a900467ffffffffffffffff1667ffffffffffffffff1667ffffffffffffffff1681526020016000820160089054906101000a900460060b60060b60060b815260200160008201600f9054906101000a900460020b60020b60020b81526020016000820160129054906101000a900460ff1660ff1660ff1681526020016000820160139054906101000a900460ff161515151581526020016000820160149054906101000a900460ff1615151515815260200150509050611b098160a0015161238f63ffffffff16565b6000611b1961240b63ffffffff16565b90508067ffffffffffffffff16826000015167ffffffffffffffff16101515611bad576040517f08c379a00000000000000000000000000000000000000000000000000000000081526004018080602001828103825260028152602001807f544500000000000000000000000000000000000000000000000000000000000081526020015060200191505060405180910390fd5b60008473ffffffffffffffffffffffffffffffffffffffff1663883bdbfd611bd961242663ffffffff16565b6040518263ffffffff1660e01b81526004018080602001828103825283818151815260200191508051906020019060200280838360005b83811015611c2c5780820151818401525b602081019050611c10565b505050509050019250505060006040518083038186803b158015611c505760006000fd5b505afa158015611c65573d600060003e3d6000fd5b505050506040513d6000823e3d601f19601f820116820180604052506040811015611c905760006000fd5b8101908080516040519392919084640100000000821115611cb15760006000fd5b83820191506020820185811115611cc85760006000fd5b8251866020820283011164010000000082111715611ce65760006000fd5b8083526020830192505050908051906020019060200280838360005b83811015611d1e5780820151818401525b602081019050611d02565b5050505090500160405260200180516040519392919084640100000000821115611d485760006000fd5b83820191506020820185811115611d5f5760006000fd5b8251866020820283011164010000000082111715611d7d5760006000fd5b8083526020830192505050908051906020019060200280838360005b83811015611db55780820151818401525b602081019050611d99565b50505050905001604052602001505050509050611e078360200151826000815181101515611ddf57fe5b6020026020010151611dfc866000015186036124a763ffffffff16565b61253f63ffffffff16565b836040019060020b908160020b81526020015050806000815181101515611e2a57fe5b6020026020010151836020019060060b908160060b8152602001505081836000019067ffffffffffffffff16908167ffffffffffffffff168152602001505082600760005060008773ffffffffffffffffffffffffffffffffffffffff1673ffffffffffffffffffffffffffffffffffffffff16815260200190815260200160002060005060008201518160000160006101000a81548167ffffffffffffffff021916908367ffffffffffffffff16021790555060208201518160000160086101000a81548166ffffffffffffff021916908360060b66ffffffffffffff160217905550604082015181600001600f6101000a81548162ffffff021916908360020b62ffffff16021790555060608201518160000160126101000a81548160ff021916908360ff16021790555060808201518160000160136101000a81548160ff02191690831515021790555060a08201518160000160146101000a81548160ff0219169083151502179055509050506000611fc3611fb78560400151866080015161235463ffffffff16565b856125ae63ffffffff16565b90508573ffffffffffffffffffffffffffffffffffffffff167f4aec2babed558ca204f263d79ac04efaccd05cd4b7bebfa21beeb221330062d3828660400151604051808381526020018260020b81526020019250505060405180910390a28094505050505061203256505050505b6120406136ab63ffffffff16565b5b919050565b600061205984848461253f63ffffffff16565b9050612060565b9392505050565b606061207761242663ffffffff16565b905061207e565b90565b6000612092826136bb63ffffffff16565b9050612099565b919050565b600160009054906101000a900473ffffffffffffffffffffffffffffffffffffffff1681565b60006120d68383612bf063ffffffff16565b90506120dd565b92915050565b60006120f583836125ae63ffffffff16565b90506120fc565b92915050565b60006000600760005060008573ffffffffffffffffffffffffffffffffffffffff1673ffffffffffffffffffffffffffffffffffffffff1681526020019081526020016000206000506040518060c00160405290816000820160009054906101000a900467ffffffffffffffff1667ffffffffffffffff1667ffffffffffffffff1681526020016000820160089054906101000a900460060b60060b60060b815260200160008201600f9054906101000a900460020b60020b60020b81526020016000820160129054906101000a900460ff1660ff1660ff1681526020016000820160139054906101000a900460ff161515151581526020016000820160149054906101000a900460ff161515151581526020015050905061222d8160a0015161238f63ffffffff16565b61223d8484613acf63ffffffff16565b91505061224656505b92915050565b600960009054906101000a900473ffffffffffffffffffffffffffffffffffffffff1681565b600060009054906101000a900473ffffffffffffffffffffffffffffffffffffffff1673ffffffffffffffffffffffffffffffffffffffff163373ffffffffffffffffffffffffffffffffffffffff16141515612304576040517f08c379a00000000000000000000000000000000000000000000000000000000081526004016122fb90614ab9565b60405180910390fd5b5b565b6001600060146101000a81548160ff0219169083151502179055507f7acc84e34091ae817647a4c49116f5cc07f319078ba80f8f5fde37ea7e25cbd660405160405180910390a15b565b5b565b600061238261237783612367578461236c565b846000035b61264363ffffffff16565b6135f363ffffffff16565b9050612389565b92915050565b801515612407576040517f08c379a000000000000000000000000000000000000000000000000000000000815260040180806020018281038252600c8152602001807f496e76616c696420706f6f6c000000000000000000000000000000000000000081526020015060200191505060405180910390fd5b5b50565b600061241e42613e56909063ffffffff16565b905080505b90565b6060600167ffffffffffffffff811180156124415760006000fd5b506040519080825280602002602001820160405280156124705781602001602082028036833780820191505090505b5090508050600081600081518110151561248657fe5b602002602001019063ffffffff16908163ffffffff16815260200150505b90565b60006401000000008267ffffffffffffffff16101515612532576040517f08c379a00000000000000000000000000000000000000000000000000000000081526004018080602001828103825260138152602001807f626967676572207468616e20333220626974730000000000000000000000000081526020015060200191505060405180910390fd5b81905061253a565b919050565b60006000848403905060008363ffffffff168260060b81151561255e57fe5b05905060008260060b12801561258c575060008463ffffffff168360060b81151561258557fe5b0760060b14155b1561259b578080600190039150505b80925050506125a75650505b9392505050565b6000601260ff16826060015160ff1614156125cb5782905061263d565b6000601260ff16836060015160ff161090506000816125f15760128460600151036125fa565b83606001516012035b90508161261f5761261a8160ff16600a0a86613ee890919063ffffffff16565b612632565b8060ff16600a0a8581151561263057fe5b045b9250505061263d5650505b92915050565b6000600060008360020b1261265b578260020b612663565b8260020b6000035b90507ffffffffffffffffffffffffffffffffffffffffffffffffffffffffffff2761860000360020b8111151515612706576040517f08c379a00000000000000000000000000000000000000000000000000000000081526004018080602001828103825260018152602001807f540000000000000000000000000000000000000000000000000000000000000081526020015060200191505060405180910390fd5b6000600060018316141561272b5770010000000000000000000000000000000061273d565b6ffffcb933bd6fad37aa2d162d1a5940015b70ffffffffffffffffffffffffffffffffff16905060006002831614151561277b5760806ffff97272373d413259a46990580e213a8202901c905080505b6000600483161415156127a45760806ffff2e50f5f656932ef12357cf3c7fdcc8202901c905080505b6000600883161415156127cd5760806fffe5caca7e10e4e61c3624eaa0941cd08202901c905080505b6000601083161415156127f65760806fffcb9843d60f6159c9db58835c9266448202901c905080505b60006020831614151561281f5760806fff973b41fa98c081472e6896dfb254c08202901c905080505b6000604083161415156128485760806fff2ea16466c96a3843ec78b326b528618202901c905080505b6000608083161415156128715760806ffe5dee046a99a2a811c461f1969c30538202901c905080505b6000610100831614151561289b5760806ffcbe86c7900a88aedcffc83b479aa3a48202901c905080505b600061020083161415156128c55760806ff987a7253ac413176f2b074cf7815e548202901c905080505b600061040083161415156128ef5760806ff3392b0822b70005940c7a398e4b70f38202901c905080505b600061080083161415156129195760806fe7159475a2c29b7443b29c7fa6e889d98202901c905080505b600061100083161415156129435760806fd097f3bdfd2022b8845ad8f792aa58258202901c905080505b6000612000831614151561296d5760806fa9f746462d870fdf8a65dc1f90e061e58202901c905080505b600061400083161415156129975760806f70d869a156d2a1b890bb3df62baf32f78202901c905080505b600061800083161415156129c15760806f31be135f97d08fd981231505542fcfa68202901c905080505b60006201000083161415156129ec5760806f09aa508b5b7a84e1c677de54f3e99bc98202901c905080505b6000620200008316141515612a165760806e5d6af8dedb81196699c329225ee6048202901c905080505b6000620400008316141515612a3f5760806d2216e584f5fa1ea926041bedfe988202901c905080505b6000620800008316141515612a665760806b048a170391f7dc42444e8fa28202901c905080505b60008460020b1315612aa357807fffffffffffffffffffffffffffffffffffffffffffffffffffffffffffffffff811515612a9d57fe5b04905080505b600064010000000082811515612ab557fe5b0614612ac2576001612ac5565b60005b60ff16602082901c019250825050505b919050565b600060008373ffffffffffffffffffffffffffffffffffffffff168573ffffffffffffffffffffffffffffffffffffffff161115612b1d57838580955081965050505b8473ffffffffffffffffffffffffffffffffffffffff168673ffffffffffffffffffffffffffffffffffffffff16111515612b6c57612b63858585613f8663ffffffff16565b91508150612be6565b8373ffffffffffffffffffffffffffffffffffffffff168673ffffffffffffffffffffffffffffffffffffffff161015612bcf57612bb1868585613f8663ffffffff16565b91508150612bc685878561404e63ffffffff16565b90508050612be5565b612be085858561404e63ffffffff16565b905080505b5b5b94509492505050565b60006000600760005060008573ffffffffffffffffffffffffffffffffffffffff1673ffffffffffffffffffffffffffffffffffffffff1681526020019081526020016000206000506040518060c00160405290816000820160009054906101000a900467ffffffffffffffff1667ffffffffffffffff1667ffffffffffffffff1681526020016000820160089054906101000a900460060b60060b60060b815260200160008201600f9054906101000a900460020b60020b60020b81526020016000820160129054906101000a900460ff1660ff1660ff1681526020016000820160139054906101000a900460ff161515151581526020016000820160149054906101000a900460ff1615151515815260200150509050612d1b8160a0015161238f63ffffffff16565b612d3e612d2e8585613acf63ffffffff16565b826080015161235463ffffffff16565b91508150600082111515612dbd576040517f08c379a00000000000000000000000000000000000000000000000000000000081526004018080602001828103825260028152602001807f504500000000000000000000000000000000000000000000000000000000000081526020015060200191505060405180910390fd5b505b92915050565b6000600060006000198587098587029250828110838203039150506000811415612e0857600084111515612df95760006000fd5b83820492508292505050612ebf565b8084111515612e175760006000fd5b6000848688099050828111820391508083039250600085866000031690508086049550808404935060018182600003040190508083028417935083506000600287600302189050808702600203810290508050808702600203810290508050808702600203810290508050808702600203810290508050808702600203810290508050808702600203810290508050808502955085508595505050505050612ebf5650505050505b9392505050565b600060008273ffffffffffffffffffffffffffffffffffffffff16633850c7bd6040518163ffffffff1660e01b815260040160e06040518083038186803b158015612f115760006000fd5b505afa158015612f26573d600060003e3d6000fd5b505050506040513d60e0811015612f3d5760006000fd5b810190808051906020019092919080519060200190929190805190602001909291908051906020019092919080519060200190929190805190602001909291908051906020019092919050505050505050509150915060008273ffffffffffffffffffffffffffffffffffffffff16111515613024576040517f08c379a000000000000000000000000000000000000000000000000000000000815260040180806020018281038252600f8152602001807f4e6f7420696e697469616c697a6564000000000000000000000000000000000081526020015060200191505060405180910390fd5b6000613035846140e563ffffffff16565b905060008473ffffffffffffffffffffffffffffffffffffffff1663883bdbfd61306361242663ffffffff16565b6040518263ffffffff1660e01b81526004018080602001828103825283818151815260200191508051906020019060200280838360005b838110156130b65780820151818401525b60208101905061309a565b505050509050019250505060006040518083038186803b1580156130da5760006000fd5b505afa1580156130ef573d600060003e3d6000fd5b505050506040513d6000823e3d601f19601f82011682018060405250604081101561311a5760006000fd5b810190808051604051939291908464010000000082111561313b5760006000fd5b838201915060208201858111156131525760006000fd5b82518660208202830111640100000000821117156131705760006000fd5b8083526020830192505050908051906020019060200280838360005b838110156131a85780820151818401525b60208101905061318c565b50505050905001604052602001805160405193929190846401000000008211156131d25760006000fd5b838201915060208201858111156131e95760006000fd5b82518660208202830111640100000000821117156132075760006000fd5b8083526020830192505050908051906020019060200280838360005b8381101561323f5780820151818401525b602081019050613223565b505050509050016040526020015050505090506040518060c0016040528061326b61240b63ffffffff16565b67ffffffffffffffff16815260200182600081518110151561328957fe5b602002602001015160060b81526020018460020b815260200183613330578673ffffffffffffffffffffffffffffffffffffffff16630dfe16816040518163ffffffff1660e01b815260040160206040518083038186803b1580156132ee5760006000fd5b505afa158015613303573d600060003e3d6000fd5b505050506040513d602081101561331a5760006000fd5b81019080805190602001909291905050506133b5565b8673ffffffffffffffffffffffffffffffffffffffff1663d21220a76040518163ffffffff1660e01b815260040160206040518083038186803b1580156133775760006000fd5b505afa15801561338c573d600060003e3d6000fd5b505050506040513d60208110156133a35760006000fd5b81019080805190602001909291905050505b73ffffffffffffffffffffffffffffffffffffffff1663313ce5676040518163ffffffff1660e01b815260040160206040518083038186803b1580156133fb5760006000fd5b505afa158015613410573d600060003e3d6000fd5b505050506040513d60208110156134275760006000fd5b810190808051906020019092919050505060ff168152602001831515815260200160011515815260200150600760005060008773ffffffffffffffffffffffffffffffffffffffff1673ffffffffffffffffffffffffffffffffffffffff16815260200190815260200160002060005060008201518160000160006101000a81548167ffffffffffffffff021916908367ffffffffffffffff16021790555060208201518160000160086101000a81548166ffffffffffffff021916908360060b66ffffffffffffff160217905550604082015181600001600f6101000a81548162ffffff021916908360020b62ffffff16021790555060608201518160000160126101000a81548160ff021916908360ff16021790555060808201518160000160136101000a81548160ff02191690831515021790555060a08201518160000160146101000a81548160ff021916908315150217905550905050505050505b50565b60006135aa61359f8484613acf63ffffffff16565b61264363ffffffff16565b73ffffffffffffffffffffffffffffffffffffffff1690506135c7565b92915050565b60006135e883670de0b6b3a764000084612dc563ffffffff16565b905080505b92915050565b6000600061362d6c010000000000000000000000008473ffffffffffffffffffffffffffffffffffffffff166135cd90919063ffffffff16565b905061364281826141fe90919063ffffffff16565b91505061364b56505b919050565b60026006600050541415151561369b576040517f08c379a000000000000000000000000000000000000000000000000000000000815260040161369290614a7a565b60405180910390fd5b600260066000508190909055505b565b600160066000508190909055505b565b60006401000276a373ffffffffffffffffffffffffffffffffffffffff168273ffffffffffffffffffffffffffffffffffffffff161015801561373d575073fffd8963efd1fc6a506488495d951d5263988d2673ffffffffffffffffffffffffffffffffffffffff168273ffffffffffffffffffffffffffffffffffffffff16105b15156137b4576040517f08c379a00000000000000000000000000000000000000000000000000000000081526004018080602001828103825260018152602001807f520000000000000000000000000000000000000000000000000000000000000081526020015060200191505060405180910390fd5b600060208373ffffffffffffffffffffffffffffffffffffffff16901b905060008190506000600090506fffffffffffffffffffffffffffffffff821160071b808217915082811c92505067ffffffffffffffff821160061b808217915082811c92505063ffffffff821160051b808217915082811c92505061ffff821160041b808217915082811c92505060ff821160031b808217915082811c925050600f821160021b808217915082811c9250506003821160011b808217915082811c9250506001821180821791505060808110151561389a57607f810383901c915081506138a6565b80607f0383901b915081505b6000604060808303901b9050828302607f1c92508260801c80603f1b8217915083811c935050828302607f1c92508260801c80603e1b8217915083811c935050828302607f1c92508260801c80603d1b8217915083811c935050828302607f1c92508260801c80603c1b8217915083811c935050828302607f1c92508260801c80603b1b8217915083811c935050828302607f1c92508260801c80603a1b8217915083811c935050828302607f1c92508260801c8060391b8217915083811c935050828302607f1c92508260801c8060381b8217915083811c935050828302607f1c92508260801c8060371b8217915083811c935050828302607f1c92508260801c8060361b8217915083811c935050828302607f1c92508260801c8060351b8217915083811c935050828302607f1c92508260801c8060341b8217915083811c935050828302607f1c92508260801c8060331b8217915083811c935050828302607f1c92508260801c8060321b82179150506000693627a301d71055774c8582029050600060806f028f6481ab7f045a5af012a19d003aaa8303901d9050600060806fdb2df09e81959a81455e260799a0632f8401901d90508060020b8260020b14613abc578873ffffffffffffffffffffffffffffffffffffffff16613a938261264363ffffffff16565b73ffffffffffffffffffffffffffffffffffffffff161115613ab55781613ab7565b805b613abe565b815b97508750505050505050505b919050565b600060008263ffffffff16111515613b52576040517f08c379a00000000000000000000000000000000000000000000000000000000081526004018080602001828103825260028152602001807f544500000000000000000000000000000000000000000000000000000000000081526020015060200191505060405180910390fd5b6000600267ffffffffffffffff81118015613b6d5760006000fd5b50604051908082528060200260200182016040528015613b9c5781602001602082028036833780820191505090505b50905082816000815181101515613baf57fe5b602002602001019063ffffffff16908163ffffffff16815260200150506000816001815181101515613bdd57fe5b602002602001019063ffffffff16908163ffffffff168152602001505060008473ffffffffffffffffffffffffffffffffffffffff1663883bdbfd836040518263ffffffff1660e01b81526004018080602001828103825283818151815260200191508051906020019060200280838360005b83811015613c6c5780820151818401525b602081019050613c50565b505050509050019250505060006040518083038186803b158015613c905760006000fd5b505afa158015613ca5573d600060003e3d6000fd5b505050506040513d6000823e3d601f19601f820116820180604052506040811015613cd05760006000fd5b8101908080516040519392919084640100000000821115613cf15760006000fd5b83820191506020820185811115613d085760006000fd5b8251866020820283011164010000000082111715613d265760006000fd5b8083526020830192505050908051906020019060200280838360005b83811015613d5e5780820151818401525b602081019050613d42565b5050505090500160405260200180516040519392919084640100000000821115613d885760006000fd5b83820191506020820185811115613d9f5760006000fd5b8251866020820283011164010000000082111715613dbd5760006000fd5b8083526020830192505050908051906020019060200280838360005b83811015613df55780820151818401525b602081019050613dd9565b50505050905001604052602001505050509050613e45816000815181101515613e1a57fe5b6020026020010151826001815181101515613e3157fe5b60200260200101518661253f63ffffffff16565b92505050613e505650505b92915050565b60006801000000000000000082101515613edb576040517f08c379a00000000000000000000000000000000000000000000000000000000081526004018080602001828103825260118152602001807f6d6f7265207468616e203634206269747300000000000000000000000000000081526020015060200191505060405180910390fd5b819050613ee3565b919050565b60006000821480613f0857508282838502925082811515613f0557fe5b04145b1515613f7f576040517f08c379a000000000000000000000000000000000000000000000000000000000815260040180806020018281038252600c8152602001807f6d756c2d6f766572666c6f77000000000000000000000000000000000000000081526020015060200191505060405180910390fd5b5b92915050565b60008273ffffffffffffffffffffffffffffffffffffffff168473ffffffffffffffffffffffffffffffffffffffff161115613fc757828480945081955050505b8373ffffffffffffffffffffffffffffffffffffffff16614036606060ff16846fffffffffffffffffffffffffffffffff16901b86860373ffffffffffffffffffffffffffffffffffffffff168673ffffffffffffffffffffffffffffffffffffffff1661422463ffffffff16565b81151561403f57fe5b049050614047565b9392505050565b60008273ffffffffffffffffffffffffffffffffffffffff168473ffffffffffffffffffffffffffffffffffffffff16111561408f57828480945081955050505b6140d7826fffffffffffffffffffffffffffffffff1685850373ffffffffffffffffffffffffffffffffffffffff166c0100000000000000000000000061422463ffffffff16565b90506140de565b9392505050565b6000600061411b600360009054906101000a900473ffffffffffffffffffffffffffffffffffffffff168461432563ffffffff16565b80925081935050508015156141f7576141df600060009054906101000a900473ffffffffffffffffffffffffffffffffffffffff1673ffffffffffffffffffffffffffffffffffffffff166336fc02f46040518163ffffffff1660e01b815260040160206040518083038186803b1580156141965760006000fd5b505afa1580156141ab573d600060003e3d6000fd5b505050506040513d60208110156141c25760006000fd5b81019080805190602001909291905050508461432563ffffffff16565b80925081935050506141f68161238f63ffffffff16565b5b505b919050565b60006142198383670de0b6b3a7640000612dc563ffffffff16565b905080505b92915050565b6000600060006000198587098587029250828110838203039150506000811415614267576000841115156142585760006000fd5b8382049250829250505061431e565b80841115156142765760006000fd5b600084868809905082811182039150808303925060008586600003169050808604955080840493506001818260000304019050808302841793508350600060028760030218905080870260020381029050805080870260020381029050805080870260020381029050805080870260020381029050805080870260020381029050805080870260020381029050805080850295508550859550505050505061431e5650505050505b9392505050565b600060008373ffffffffffffffffffffffffffffffffffffffff168373ffffffffffffffffffffffffffffffffffffffff16630dfe16816040518163ffffffff1660e01b815260040160206040518083038186803b1580156143875760006000fd5b505afa15801561439c573d600060003e3d6000fd5b505050506040513d60208110156143b35760006000fd5b810190808051906020019092919050505073ffffffffffffffffffffffffffffffffffffffff161491508150818061449957508373ffffffffffffffffffffffffffffffffffffffff168373ffffffffffffffffffffffffffffffffffffffff1663d21220a76040518163ffffffff1660e01b815260040160206040518083038186803b1580156144445760006000fd5b505afa158015614459573d600060003e3d6000fd5b505050506040513d60208110156144705760006000fd5b810190808051906020019092919050505073ffffffffffffffffffffffffffffffffffffffff16145b905080505b925092905056614ba7565b600081359050801515811415156144c05760006000fd5b5b919050565b6000813590508060020b811415156144de5760006000fd5b5b919050565b6000813590508060060b811415156144fc5760006000fd5b5b919050565b60008135905063ffffffff81168114151561451d5760006000fd5b5b919050565b60008135905060ff81168114151561453b5760006000fd5b5b919050565b600060208284031215614552578081fd5b61455b826144a9565b90505b92915050565b600060208284031215614575578081fd5b81357fffffffff000000000000000000000000000000000000000000000000000000008116811415156145a6578182fd5b809150505b92915050565b6000602082840312156145c2578081fd5b81516145cd81614b7e565b809150505b92915050565b6000602082840312156145e9578081fd5b81356145f481614b7e565b809150505b92915050565b600060208284031215614610578081fd5b815161461b81614b7e565b809150505b92915050565b600060208284031215614637578081fd5b813561464281614b7e565b809150505b92915050565b6000600060408385031215614660578081fd5b823561466b81614b7e565b8092505061467b602084016144a9565b90505b9250929050565b60006000600060006000600060c087890312156146a0578182fd5b86356146ab81614b7e565b809650506146bb602088016144c6565b94506146c9604088016144c6565b93506146d7606088016144c6565b925060808701356fffffffffffffffffffffffffffffffff8116811415156146fd578283fd5b8092505061470d60a08801614502565b90505b9295509295509295565b6000600060006060848603121561472f578283fd5b833561473a81614b7e565b809350506020840135915061475160408501614502565b90505b9250925092565b600060006040838503121561476e578182fd5b823561477981614b7e565b8092505061478960208401614502565b90505b9250929050565b6000602082840312156147a4578081fd5b81516147af81614b7e565b809150505b92915050565b6000602082840312156147cb578081fd5b6147d4826144c6565b90505b92915050565b60006000604083850312156147f0578182fd5b6147f9836144c6565b9150614807602084016144a9565b90505b9250929050565b60006000600060608486031215614826578081fd5b61482f846144e4565b925061483d602085016144e4565b915061484b60408501614502565b90505b9250925092565b600060208284031215614866578081fd5b813561487181614b7e565b809150505b92915050565b6000600082840360e0811215614890578283fd5b8335925060c07fffffffffffffffffffffffffffffffffffffffffffffffffffffffffffffffe0820112156148c3578182fd5b5060405160c0810167ffffffffffffffff82821081831117156148e257fe5b8160405260208601359150808216821415156148fc578384fd5b508082525061490d604085016144e4565b602082015261491e606085016144c6565b604082015261492f60808501614523565b606082015261494060a085016144a9565b608082015261495160c085016144a9565b60a0820152809150505b9250929050565b600060208284031215614973578081fd5b61497c82614502565b90505b92915050565b600060208201905073ffffffffffffffffffffffffffffffffffffffff831682525b92915050565b600060208083018184528085518083526040860191508387019250845b818110156149f25763ffffffff8451168352848301925084840193505b6001810190506149ca565b50508093505050505b92915050565b600060208201905082151582525b92915050565b600060208201905073ffffffffffffffffffffffffffffffffffffffff831682525b92915050565b600060208201905073ffffffffffffffffffffffffffffffffffffffff831682525b92915050565b60006020820190508260020b82525b92915050565b600060208252600d60208301527f4c43205265656e7472616e63790000000000000000000000000000000000000060408301526060820190505b919050565b600060208252600e60208301527f4e6f7420417574686f72697a656400000000000000000000000000000000000060408301526060820190505b919050565b600060208201905073ffffffffffffffffffffffffffffffffffffffff831682525b92915050565b60006020820190508282525b92915050565b600060c08201905067ffffffffffffffff881682528660060b60208301528560020b604083015260ff85166060830152831515608083015282151560a08301525b979650505050505050565b73ffffffffffffffffffffffffffffffffffffffff811681141515614ba35760006000fd5b5b50565bfea264697066735822122029a055ed79501bc06ff520fbf5b14bf8477984c36cecca6599c6b11d40aed13d64736f6c63430007060033",
  "linkReferences": {},
  "deployedLinkReferences": {}
}