{
  "_format": "hh-sol-artifact-1",
  "contractName": "PricesTestable",
  "sourceName": "contracts/mocks/PricesTestable.sol",
  "abi": [
    {
      "anonymous": false,
      "inputs": [
        {
          "indexed": true,
          "internalType": "address",
          "name": "governor",
          "type": "address"
        }
      ],
      "name": "Initialized",
      "type": "event"
    },
    {
      "anonymous": false,
      "inputs": [
        {
          "indexed": true,
          "internalType": "address",
          "name": "pool",
          "type": "address"
        },
        {
          "indexed": false,
          "internalType": "uint256",
          "name": "price",
          "type": "uint256"
        },
        {
          "indexed": false,
          "internalType": "int24",
          "name": "tick",
          "type": "int24"
        }
      ],
      "name": "PriceUpdated",
      "type": "event"
    },
    {
      "anonymous": false,
      "inputs": [],
      "name": "Stopped",
      "type": "event"
    },
    {
      "inputs": [],
      "name": "__now",
      "outputs": [
        {
          "internalType": "uint32[]",
          "name": "times",
          "type": "uint32[]"
        }
      ],
      "stateMutability": "pure",
      "type": "function"
    },
    {
      "inputs": [
        {
          "internalType": "uint64",
          "name": "input",
          "type": "uint64"
        }
      ],
      "name": "calculate64To32",
      "outputs": [
        {
          "internalType": "uint32",
          "name": "",
          "type": "uint32"
        }
      ],
      "stateMutability": "pure",
      "type": "function"
    },
    {
      "inputs": [
        {
          "internalType": "uint32",
          "name": "twapDuration",
          "type": "uint32"
        }
      ],
      "name": "calculateInstantCollateralPrice",
      "outputs": [
        {
          "internalType": "uint256",
          "name": "",
          "type": "uint256"
        }
      ],
      "stateMutability": "view",
      "type": "function"
    },
    {
      "inputs": [
        {
          "internalType": "contract IUniswapV3Pool",
          "name": "pool",
          "type": "address"
        },
        {
          "internalType": "uint32",
          "name": "twapDuration",
          "type": "uint32"
        }
      ],
      "name": "calculateInstantTwappedPrice",
      "outputs": [
        {
          "internalType": "uint256",
          "name": "",
          "type": "uint256"
        }
      ],
      "stateMutability": "view",
      "type": "function"
    },
    {
      "inputs": [
        {
          "internalType": "contract IUniswapV3Pool",
          "name": "pool",
          "type": "address"
        },
        {
          "internalType": "uint32",
          "name": "twapDuration",
          "type": "uint32"
        }
      ],
      "name": "calculateInstantTwappedTick",
      "outputs": [
        {
          "internalType": "int24",
          "name": "tick",
          "type": "int24"
        }
      ],
      "stateMutability": "view",
      "type": "function"
    },
    {
      "inputs": [
        {
          "internalType": "contract IUniswapV3Pool",
          "name": "pool",
          "type": "address"
        },
        {
          "internalType": "bool",
          "name": "normalizeDecimals",
          "type": "bool"
        }
      ],
      "name": "calculateTwappedPrice",
      "outputs": [
        {
          "internalType": "uint256",
          "name": "price",
          "type": "uint256"
        }
      ],
      "stateMutability": "view",
      "type": "function"
    },
    {
      "inputs": [],
      "name": "collateralPool",
      "outputs": [
        {
          "internalType": "contract IUniswapV3Pool",
          "name": "",
          "type": "address"
        }
      ],
      "stateMutability": "view",
      "type": "function"
    },
    {
      "inputs": [
        {
          "internalType": "uint160",
          "name": "sqrtPriceX96",
          "type": "uint160"
        }
      ],
      "name": "convertSqrtPriceX96ToTick",
      "outputs": [
        {
          "internalType": "int24",
          "name": "",
          "type": "int24"
        }
      ],
      "stateMutability": "pure",
      "type": "function"
    },
    {
      "inputs": [
        {
          "internalType": "int24",
          "name": "tick",
          "type": "int24"
        }
      ],
      "name": "convertTickToSqrtPriceX96",
      "outputs": [
        {
          "internalType": "uint160",
          "name": "",
          "type": "uint160"
        }
      ],
      "stateMutability": "pure",
      "type": "function"
    },
    {
      "inputs": [],
      "name": "deployer",
      "outputs": [
        {
          "internalType": "address",
          "name": "",
          "type": "address"
        }
      ],
      "stateMutability": "view",
      "type": "function"
    },
    {
      "inputs": [
        {
          "internalType": "contract IUniswapV3Pool",
          "name": "_collateralPool",
          "type": "address"
        },
        {
          "internalType": "contract IUniswapV3Pool",
          "name": "_protocolPool",
          "type": "address"
        }
      ],
      "name": "finalizeInitialization",
      "outputs": [],
      "stateMutability": "nonpayable",
      "type": "function"
    },
    {
      "inputs": [
        {
          "internalType": "uint160",
          "name": "sqrtPriceX96",
          "type": "uint160"
        }
      ],
      "name": "getE18PriceForSqrtX96Price",
      "outputs": [
        {
          "internalType": "uint256",
          "name": "",
          "type": "uint256"
        }
      ],
      "stateMutability": "pure",
      "type": "function"
    },
    {
      "inputs": [
        {
          "internalType": "int24",
          "name": "tick",
          "type": "int24"
        },
        {
          "internalType": "bool",
          "name": "isToken0",
          "type": "bool"
        }
      ],
      "name": "getPriceForTick",
      "outputs": [
        {
          "internalType": "uint256",
          "name": "price",
          "type": "uint256"
        }
      ],
      "stateMutability": "pure",
      "type": "function"
    },
    {
      "inputs": [
        {
          "internalType": "contract IUniswapV3Pool",
          "name": "pool",
          "type": "address"
        },
        {
          "internalType": "int24",
          "name": "tick",
          "type": "int24"
        },
        {
          "internalType": "int24",
          "name": "tickLower",
          "type": "int24"
        },
        {
          "internalType": "int24",
          "name": "tickUpper",
          "type": "int24"
        },
        {
          "internalType": "uint128",
          "name": "liquidity",
          "type": "uint128"
        },
        {
          "internalType": "uint32",
          "name": "twapDuration",
          "type": "uint32"
        }
      ],
      "name": "getRealHueCountForSinglePoolPosition",
      "outputs": [
        {
          "internalType": "uint256",
          "name": "",
          "type": "uint256"
        }
      ],
      "stateMutability": "view",
      "type": "function"
    },
    {
      "inputs": [
        {
          "internalType": "int56",
          "name": "tickCumulative0",
          "type": "int56"
        },
        {
          "internalType": "int56",
          "name": "tickCumulative1",
          "type": "int56"
        },
        {
          "internalType": "uint32",
          "name": "timeElapsed",
          "type": "uint32"
        }
      ],
      "name": "getTickForCumulators",
      "outputs": [
        {
          "internalType": "int24",
          "name": "tick",
          "type": "int24"
        }
      ],
      "stateMutability": "pure",
      "type": "function"
    },
    {
      "inputs": [],
      "name": "governor",
      "outputs": [
        {
          "internalType": "contract IGovernor",
          "name": "",
          "type": "address"
        }
      ],
      "stateMutability": "view",
      "type": "function"
    },
    {
      "inputs": [
        {
          "internalType": "uint32",
          "name": "twapDuration",
          "type": "uint32"
        }
      ],
      "name": "hueTcpPrice",
      "outputs": [
        {
          "internalType": "uint256",
          "name": "",
          "type": "uint256"
        }
      ],
      "stateMutability": "view",
      "type": "function"
    },
    {
      "inputs": [
        {
          "internalType": "contract IGovernor",
          "name": "_governor",
          "type": "address"
        }
      ],
      "name": "init",
      "outputs": [],
      "stateMutability": "nonpayable",
      "type": "function"
    },
    {
      "inputs": [
        {
          "internalType": "contract IUniswapV3Pool",
          "name": "pool",
          "type": "address"
        },
        {
          "internalType": "address",
          "name": "baseToken",
          "type": "address"
        }
      ],
      "name": "initializePool",
      "outputs": [],
      "stateMutability": "nonpayable",
      "type": "function"
    },
    {
      "inputs": [
        {
          "internalType": "contract IUniswapV3Pool",
          "name": "pool",
          "type": "address"
        }
      ],
      "name": "isPoolInitialized",
      "outputs": [
        {
          "internalType": "bool",
          "name": "",
          "type": "bool"
        }
      ],
      "stateMutability": "view",
      "type": "function"
    },
    {
      "inputs": [
        {
          "internalType": "uint256",
          "name": "price",
          "type": "uint256"
        },
        {
          "components": [
            {
              "internalType": "uint64",
              "name": "startTime",
              "type": "uint64"
            },
            {
              "internalType": "int56",
              "name": "tickCumulative",
              "type": "int56"
            },
            {
              "internalType": "int24",
              "name": "tick",
              "type": "int24"
            },
            {
              "internalType": "uint8",
              "name": "otherTokenDecimals",
              "type": "uint8"
            },
            {
              "internalType": "bool",
              "name": "isToken0",
              "type": "bool"
            },
            {
              "internalType": "bool",
              "name": "valid",
              "type": "bool"
            }
          ],
          "internalType": "struct IPrices.PriceInfo",
          "name": "pi",
          "type": "tuple"
        }
      ],
      "name": "normalizeDecimals",
      "outputs": [
        {
          "internalType": "uint256",
          "name": "",
          "type": "uint256"
        }
      ],
      "stateMutability": "pure",
      "type": "function"
    },
    {
      "inputs": [
        {
          "internalType": "contract IUniswapV3Pool",
          "name": "",
          "type": "address"
        }
      ],
      "name": "priceInfo",
      "outputs": [
        {
          "internalType": "uint64",
          "name": "startTime",
          "type": "uint64"
        },
        {
          "internalType": "int56",
          "name": "tickCumulative",
          "type": "int56"
        },
        {
          "internalType": "int24",
          "name": "tick",
          "type": "int24"
        },
        {
          "internalType": "uint8",
          "name": "otherTokenDecimals",
          "type": "uint8"
        },
        {
          "internalType": "bool",
          "name": "isToken0",
          "type": "bool"
        },
        {
          "internalType": "bool",
          "name": "valid",
          "type": "bool"
        }
      ],
      "stateMutability": "view",
      "type": "function"
    },
    {
      "inputs": [],
      "name": "protocolPool",
      "outputs": [
        {
          "internalType": "contract IUniswapV3Pool",
          "name": "",
          "type": "address"
        }
      ],
      "stateMutability": "view",
      "type": "function"
    },
    {
      "inputs": [
        {
          "internalType": "bool",
          "name": "valid",
          "type": "bool"
        }
      ],
      "name": "requireValidPool",
      "outputs": [],
      "stateMutability": "pure",
      "type": "function"
    },
    {
      "inputs": [],
      "name": "stop",
      "outputs": [],
      "stateMutability": "nonpayable",
      "type": "function"
    },
    {
      "inputs": [],
      "name": "stopped",
      "outputs": [
        {
          "internalType": "bool",
          "name": "",
          "type": "bool"
        }
      ],
      "stateMutability": "view",
      "type": "function"
    },
    {
      "inputs": [
        {
          "internalType": "contract IUniswapV3Pool",
          "name": "pool",
          "type": "address"
        }
      ],
      "name": "systemObtainReferencePrice",
      "outputs": [
        {
          "internalType": "uint256",
          "name": "",
          "type": "uint256"
        }
      ],
      "stateMutability": "nonpayable",
      "type": "function"
    },
    {
      "inputs": [
        {
          "internalType": "bytes4",
          "name": "",
          "type": "bytes4"
        }
      ],
      "name": "validUpdate",
      "outputs": [
        {
          "internalType": "bool",
          "name": "",
          "type": "bool"
        }
      ],
      "stateMutability": "view",
      "type": "function"
    }
  ],
  "bytecode": "0x60806040526001600660005090905534801561001b5760006000fd5b505b33600160006101000a81548173ffffffffffffffffffffffffffffffffffffffff021916908373ffffffffffffffffffffffffffffffffffffffff1602179055505b610064565b6148de80620000746000396000f3fe60806040523480156100115760006000fd5b50600436106101c95760003560e01c80638d02a08a116100fa578063d5f3948811610098578063dcaeb11b11610072578063dcaeb11b14610584578063fa42dcf4146105b4578063fcebd71c146105e4578063ff0eccf614610614576101c9565b8063d5f3948814610506578063d97e640014610524578063da6e58ce14610554576101c9565b8063ce137854116100d4578063ce13785414610446578063ce403c1314610476578063d00d0bd6146104a6578063d423b073146104d6576101c9565b80638d02a08a146103ca578063a6c26a0c146103fa578063bd2699e314610416576101c9565b80633497dcec11610167578063532cec7c11610141578063532cec7c146103295780636d048d531461035957806375f12b211461038e5780638396cf69146103ac576101c9565b80633497dcec146102bf5780633c63a9cd146102db57806347453af21461030b576101c9565b806317c13df6116101a357806317c13df61461022757806319ab453c146102435780631fab230e1461025f57806321b78b771461028f576101c9565b806307da68f5146101cf5780630c340a24146101d9578063113cf1ab146101f7576101c9565b60006000fd5b6101d7610632565b005b6101e1610652565b6040516101ee91906146fd565b60405180910390f35b610211600480360381019061020c91906141f4565b610678565b60405161021e91906146e9565b60405180910390f35b610241600480360381019061023c9190614378565b61069d565b005b61025d60048036038101906102589190614268565b61084d565b005b610279600480360381019061027491906143b4565b610c5f565b6040516102869190614808565b60405180910390f35b6102a960048036038101906102a491906144a4565b610fd3565b6040516102b69190614808565b60405180910390f35b6102d960048036038101906102d491906141d1565b610ff2565b005b6102f560048036038101906102f09190614340565b611005565b6040516103029190614808565b60405180910390f35b610313611474565b6040516103209190614695565b60405180910390f35b610343600480360381019061033e91906142dd565b61148e565b60405161035091906146e9565b60405180910390f35b610373600480360381019061036e91906142dd565b6114f2565b60405161038596959493929190614832565b60405180910390f35b610396611586565b6040516103a391906146e9565b60405180910390f35b6103b4611599565b6040516103c19190614725565b60405180910390f35b6103e460048036038101906103df9190614627565b6115bf565b6040516103f19190614808565b60405180910390f35b610414600480360381019061040f9190614304565b6115ff565b005b610430600480360381019061042b9190614481565b611760565b60405161043d91906147e0565b60405180910390f35b610460600480360381019061045b919061451c565b61177d565b60405161046d9190614808565b60405180910390f35b610490600480360381019061048b91906142dd565b61179a565b60405161049d9190614808565b60405180910390f35b6104c060048036038101906104bb91906144d8565b611f5c565b6040516104cd919061474d565b60405180910390f35b6104f060048036038101906104eb919061451c565b611f7d565b6040516104fd919061474d565b60405180910390f35b61050e611f9a565b60405161051b919061466d565b60405180910390f35b61053e60048036038101906105399190614449565b611fc0565b60405161054b9190614808565b60405180910390f35b61056e6004803603810190610569919061464a565b611fdf565b60405161057b919061481a565b60405180910390f35b61059e60048036038101906105999190614543565b611ffc565b6040516105ab9190614808565b60405180910390f35b6105ce60048036038101906105c99190614627565b61201b565b6040516105db9190614808565b60405180910390f35b6105fe60048036038101906105f99190614449565b61205b565b60405161060b919061474d565b60405180910390f35b61061c61207a565b6040516106299190614725565b60405180910390f35b6106406120a063ffffffff16565b61064e61213563ffffffff16565b5b5b565b600060009054906101000a900473ffffffffffffffffffffffffffffffffffffffff1681565b600560005060205280600052604060002060009150909054906101000a900460ff1681565b600160149054906101000a900460ff1680156106c55750600160159054906101000a900460ff165b801561071e5750600160009054906101000a900473ffffffffffffffffffffffffffffffffffffffff1673ffffffffffffffffffffffffffffffffffffffff163373ffffffffffffffffffffffffffffffffffffffff16145b151561072a5760006000fd5b600160006101000a81549073ffffffffffffffffffffffffffffffffffffffff0219169055600160156101000a81549060ff021916905561079382600360009054906101000a900473ffffffffffffffffffffffffffffffffffffffff1661217f63ffffffff16565b6107c581600360009054906101000a900473ffffffffffffffffffffffffffffffffffffffff1661217f63ffffffff16565b81600860006101000a81548173ffffffffffffffffffffffffffffffffffffffff021916908373ffffffffffffffffffffffffffffffffffffffff16021790555080600960006101000a81548173ffffffffffffffffffffffffffffffffffffffff021916908373ffffffffffffffffffffffffffffffffffffffff1602179055505b5b5050565b600160009054906101000a900473ffffffffffffffffffffffffffffffffffffffff1673ffffffffffffffffffffffffffffffffffffffff163373ffffffffffffffffffffffffffffffffffffffff161415156108aa5760006000fd5b600160159054906101000a900460ff161515156108c75760006000fd5b80600060006101000a81548173ffffffffffffffffffffffffffffffffffffffff021916908373ffffffffffffffffffffffffffffffffffffffff160217905550600060009054906101000a900473ffffffffffffffffffffffffffffffffffffffff1673ffffffffffffffffffffffffffffffffffffffff16639624e83e6040518163ffffffff1660e01b815260040160206040518083038186803b1580156109715760006000fd5b505afa158015610986573d600060003e3d6000fd5b505050506040513d601f19601f820116820180604052508101906109aa9190614241565b600260006101000a81548173ffffffffffffffffffffffffffffffffffffffff021916908373ffffffffffffffffffffffffffffffffffffffff160217905550600060009054906101000a900473ffffffffffffffffffffffffffffffffffffffff1673ffffffffffffffffffffffffffffffffffffffff1663323741746040518163ffffffff1660e01b815260040160206040518083038186803b158015610a535760006000fd5b505afa158015610a68573d600060003e3d6000fd5b505050506040513d601f19601f82011682018060405250810190610a8c919061428f565b600360006101000a81548173ffffffffffffffffffffffffffffffffffffffff021916908373ffffffffffffffffffffffffffffffffffffffff160217905550600060009054906101000a900473ffffffffffffffffffffffffffffffffffffffff1673ffffffffffffffffffffffffffffffffffffffff1663d478b0876040518163ffffffff1660e01b815260040160206040518083038186803b158015610b355760006000fd5b505afa158015610b4a573d600060003e3d6000fd5b505050506040513d601f19601f82011682018060405250810190610b6e91906142b6565b600460006101000a81548173ffffffffffffffffffffffffffffffffffffffff021916908373ffffffffffffffffffffffffffffffffffffffff160217905550610bbc6129af63ffffffff16565b600160149054906101000a900460ff161515610bfc57600160006101000a81549073ffffffffffffffffffffffffffffffffffffffff0219169055610c18565b6001600160156101000a81548160ff0219169083151502179055505b8073ffffffffffffffffffffffffffffffffffffffff167f908408e307fc569b417f6cbec5d5a06f44a0a505ac0479b47d421a4b2fd6a1e660405160405180910390a25b50565b60006000600760005060008973ffffffffffffffffffffffffffffffffffffffff1673ffffffffffffffffffffffffffffffffffffffff1681526020019081526020016000206000506040518060c00160405290816000820160009054906101000a900467ffffffffffffffff1667ffffffffffffffff1667ffffffffffffffff1681526020016000820160089054906101000a900460060b60060b60060b815260200160008201600f9054906101000a900460020b60020b60020b81526020016000820160129054906101000a900460ff1660ff1660ff1681526020016000820160139054906101000a900460ff161515151581526020016000820160149054906101000a900460ff1615151515815260200150509050610d8a8160a001516129cd63ffffffff16565b6000610d9b88612a4963ffffffff16565b905060006000610dcf83610db48b612a4963ffffffff16565b610dc38b612a4963ffffffff16565b8a612ee063ffffffff16565b9150915060008460800151610de45781610de6565b825b9050610ee18560800151610e6557610e60610e368673ffffffffffffffffffffffffffffffffffffffff168773ffffffffffffffffffffffffffffffffffffffff16612ff690919063ffffffff16565b7801000000000000000000000000000000000000000000000000866130949092919063ffffffff16565b610ed2565b610ed17801000000000000000000000000000000000000000000000000610ec18773ffffffffffffffffffffffffffffffffffffffff168873ffffffffffffffffffffffffffffffffffffffff16612ff690919063ffffffff16565b856130949092919063ffffffff16565b5b8261319590919063ffffffff16565b90508050600960009054906101000a900473ffffffffffffffffffffffffffffffffffffffff1673ffffffffffffffffffffffffffffffffffffffff168c73ffffffffffffffffffffffffffffffffffffffff161415610fb757610fb2610f70600860009054906101000a900473ffffffffffffffffffffffffffffffffffffffff168961321e63ffffffff16565b610fa2600960009054906101000a900473ffffffffffffffffffffffffffffffffffffffff168a61321e63ffffffff16565b836130949092919063ffffffff16565b905080505b8095505050505050610fc95650505050505b9695505050505050565b6000610fe5838361331a63ffffffff16565b9050610fec565b92915050565b611001816129cd63ffffffff16565b5b50565b60006000600760005060008573ffffffffffffffffffffffffffffffffffffffff1673ffffffffffffffffffffffffffffffffffffffff1681526020019081526020016000206000506040518060c00160405290816000820160009054906101000a900467ffffffffffffffff1667ffffffffffffffff1667ffffffffffffffff1681526020016000820160089054906101000a900460060b60060b60060b815260200160008201600f9054906101000a900460020b60020b60020b81526020016000820160129054906101000a900460ff1660ff1660ff1681526020016000820160139054906101000a900460ff161515151581526020016000820160149054906101000a900460ff16151515158152602001505090506111308160a001516129cd63ffffffff16565b600061114061335563ffffffff16565b90508067ffffffffffffffff16826000015167ffffffffffffffff161015156111d4576040517f08c379a00000000000000000000000000000000000000000000000000000000081526004018080602001828103825260028152602001807f544500000000000000000000000000000000000000000000000000000000000081526020015060200191505060405180910390fd5b60008573ffffffffffffffffffffffffffffffffffffffff1663883bdbfd61120061337063ffffffff16565b6040518263ffffffff1660e01b81526004018080602001828103825283818151815260200191508051906020019060200280838360005b838110156112535780820151818401525b602081019050611237565b505050509050019250505060006040518083038186803b1580156112775760006000fd5b505afa15801561128c573d600060003e3d6000fd5b505050506040513d6000823e3d601f19601f8201168201806040525060408110156112b75760006000fd5b81019080805160405193929190846401000000008211156112d85760006000fd5b838201915060208201858111156112ef5760006000fd5b825186602082028301116401000000008211171561130d5760006000fd5b8083526020830192505050908051906020019060200280838360005b838110156113455780820151818401525b602081019050611329565b505050509050016040526020018051604051939291908464010000000082111561136f5760006000fd5b838201915060208201858111156113865760006000fd5b82518660208202830111640100000000821117156113a45760006000fd5b8083526020830192505050908051906020019060200280838360005b838110156113dc5780820151818401525b6020810190506113c0565b50505050905001604052602001505050509050611441611431846020015183600081518110151561140957fe5b6020026020010151611426876000015187036133f163ffffffff16565b61348963ffffffff16565b846080015161331a63ffffffff16565b93508350846114505783611461565b61146084846134f863ffffffff16565b5b935050505061146e565050505b92915050565b606061148461337063ffffffff16565b905061148b565b90565b6000600760005060008373ffffffffffffffffffffffffffffffffffffffff1673ffffffffffffffffffffffffffffffffffffffff16815260200190815260200160002060005060000160149054906101000a900460ff1690506114ed565b919050565b60076000506020528060005260406000206000915090508060000160009054906101000a900467ffffffffffffffff16908060000160089054906101000a900460060b9080600001600f9054906101000a900460020b908060000160129054906101000a900460ff16908060000160139054906101000a900460ff16908060000160149054906101000a900460ff16905086565b600060149054906101000a900460ff1681565b600960009054906101000a900473ffffffffffffffffffffffffffffffffffffffff1681565b60006115f3600960009054906101000a900473ffffffffffffffffffffffffffffffffffffffff168361321e63ffffffff16565b90506115fa565b919050565b600060009054906101000a900473ffffffffffffffffffffffffffffffffffffffff1673ffffffffffffffffffffffffffffffffffffffff166343f48fbd6040518163ffffffff1660e01b815260040160206040518083038186803b1580156116685760006000fd5b505afa15801561167d573d600060003e3d6000fd5b505050506040513d60208110156116945760006000fd5b810190808051906020019092919050505073ffffffffffffffffffffffffffffffffffffffff163373ffffffffffffffffffffffffffffffffffffffff1614151561174a576040517f08c379a000000000000000000000000000000000000000000000000000000000815260040180806020018281038252600e8152602001807f4e6f7420417574686f72697a656400000000000000000000000000000000000081526020015060200191505060405180910390fd5b61175a828261217f63ffffffff16565b5b5b5050565b600061177182612a4963ffffffff16565b9050611778565b919050565b600061178e8261358d63ffffffff16565b9050611795565b919050565b60006117aa6135ea63ffffffff16565b600060009054906101000a900473ffffffffffffffffffffffffffffffffffffffff1673ffffffffffffffffffffffffffffffffffffffff166343f48fbd6040518163ffffffff1660e01b815260040160206040518083038186803b1580156118135760006000fd5b505afa158015611828573d600060003e3d6000fd5b505050506040513d602081101561183f5760006000fd5b810190808051906020019092919050505073ffffffffffffffffffffffffffffffffffffffff163373ffffffffffffffffffffffffffffffffffffffff161415156118f5576040517f08c379a000000000000000000000000000000000000000000000000000000000815260040180806020018281038252600e8152602001807f4e6f7420417574686f72697a656400000000000000000000000000000000000081526020015060200191505060405180910390fd5b6000600760005060008473ffffffffffffffffffffffffffffffffffffffff1673ffffffffffffffffffffffffffffffffffffffff1681526020019081526020016000206000506040518060c00160405290816000820160009054906101000a900467ffffffffffffffff1667ffffffffffffffff1667ffffffffffffffff1681526020016000820160089054906101000a900460060b60060b60060b815260200160008201600f9054906101000a900460020b60020b60020b81526020016000820160129054906101000a900460ff1660ff1660ff1681526020016000820160139054906101000a900460ff161515151581526020016000820160149054906101000a900460ff1615151515815260200150509050611a1e8160a001516129cd63ffffffff16565b6000611a2e61335563ffffffff16565b90508067ffffffffffffffff16826000015167ffffffffffffffff16101515611ac2576040517f08c379a00000000000000000000000000000000000000000000000000000000081526004018080602001828103825260028152602001807f544500000000000000000000000000000000000000000000000000000000000081526020015060200191505060405180910390fd5b60008473ffffffffffffffffffffffffffffffffffffffff1663883bdbfd611aee61337063ffffffff16565b6040518263ffffffff1660e01b81526004018080602001828103825283818151815260200191508051906020019060200280838360005b83811015611b415780820151818401525b602081019050611b25565b505050509050019250505060006040518083038186803b158015611b655760006000fd5b505afa158015611b7a573d600060003e3d6000fd5b505050506040513d6000823e3d601f19601f820116820180604052506040811015611ba55760006000fd5b8101908080516040519392919084640100000000821115611bc65760006000fd5b83820191506020820185811115611bdd5760006000fd5b8251866020820283011164010000000082111715611bfb5760006000fd5b8083526020830192505050908051906020019060200280838360005b83811015611c335780820151818401525b602081019050611c17565b5050505090500160405260200180516040519392919084640100000000821115611c5d5760006000fd5b83820191506020820185811115611c745760006000fd5b8251866020820283011164010000000082111715611c925760006000fd5b8083526020830192505050908051906020019060200280838360005b83811015611cca5780820151818401525b602081019050611cae565b50505050905001604052602001505050509050611d1c8360200151826000815181101515611cf457fe5b6020026020010151611d11866000015186036133f163ffffffff16565b61348963ffffffff16565b836040019060020b908160020b81526020015050806000815181101515611d3f57fe5b6020026020010151836020019060060b908160060b8152602001505081836000019067ffffffffffffffff16908167ffffffffffffffff168152602001505082600760005060008773ffffffffffffffffffffffffffffffffffffffff1673ffffffffffffffffffffffffffffffffffffffff16815260200190815260200160002060005060008201518160000160006101000a81548167ffffffffffffffff021916908367ffffffffffffffff16021790555060208201518160000160086101000a81548166ffffffffffffff021916908360060b66ffffffffffffff160217905550604082015181600001600f6101000a81548162ffffff021916908360020b62ffffff16021790555060608201518160000160126101000a81548160ff021916908360ff16021790555060808201518160000160136101000a81548160ff02191690831515021790555060a08201518160000160146101000a81548160ff0219169083151502179055509050506000611ed8611ecc8560400151866080015161331a63ffffffff16565b856134f863ffffffff16565b90508573ffffffffffffffffffffffffffffffffffffffff167f4aec2babed558ca204f263d79ac04efaccd05cd4b7bebfa21beeb221330062d3828660400151604051808381526020018260020b81526020019250505060405180910390a280945050505050611f4756505050505b5b611f5661364563ffffffff16565b5b919050565b6000611f6f84848461348963ffffffff16565b9050611f76565b9392505050565b6000611f8e8261365563ffffffff16565b9050611f95565b919050565b600160009054906101000a900473ffffffffffffffffffffffffffffffffffffffff1681565b6000611fd2838361321e63ffffffff16565b9050611fd9565b92915050565b6000611ff0826133f163ffffffff16565b9050611ff7565b919050565b600061200e83836134f863ffffffff16565b9050612015565b92915050565b600061204f600860009054906101000a900473ffffffffffffffffffffffffffffffffffffffff168361321e63ffffffff16565b9050612056565b919050565b600061206d8383613a6963ffffffff16565b9050612074565b92915050565b600860009054906101000a900473ffffffffffffffffffffffffffffffffffffffff1681565b600060009054906101000a900473ffffffffffffffffffffffffffffffffffffffff1673ffffffffffffffffffffffffffffffffffffffff163373ffffffffffffffffffffffffffffffffffffffff16141515612132576040517f08c379a0000000000000000000000000000000000000000000000000000000008152600401612129906147a1565b60405180910390fd5b5b565b6001600060146101000a81548160ff0219169083151502179055507f7acc84e34091ae817647a4c49116f5cc07f319078ba80f8f5fde37ea7e25cbd660405160405180910390a15b565b600060008373ffffffffffffffffffffffffffffffffffffffff16633850c7bd6040518163ffffffff1660e01b815260040160e06040518083038186803b1580156121ca5760006000fd5b505afa1580156121df573d600060003e3d6000fd5b505050506040513d60e08110156121f65760006000fd5b810190808051906020019092919080519060200190929190805190602001909291908051906020019092919080519060200190929190805190602001909291908051906020019092919050505050505050509150915060008273ffffffffffffffffffffffffffffffffffffffff161115156122dd576040517f08c379a000000000000000000000000000000000000000000000000000000000815260040180806020018281038252600f8152602001807f4e6f7420696e697469616c697a6564000000000000000000000000000000000081526020015060200191505060405180910390fd5b60008373ffffffffffffffffffffffffffffffffffffffff168573ffffffffffffffffffffffffffffffffffffffff16630dfe16816040518163ffffffff1660e01b815260040160206040518083038186803b15801561233d5760006000fd5b505afa158015612352573d600060003e3d6000fd5b505050506040513d60208110156123695760006000fd5b810190808051906020019092919050505073ffffffffffffffffffffffffffffffffffffffff1614905080151561245b5761245a8473ffffffffffffffffffffffffffffffffffffffff168673ffffffffffffffffffffffffffffffffffffffff1663d21220a76040518163ffffffff1660e01b815260040160206040518083038186803b1580156123fb5760006000fd5b505afa158015612410573d600060003e3d6000fd5b505050506040513d60208110156124275760006000fd5b810190808051906020019092919050505073ffffffffffffffffffffffffffffffffffffffff16146129cd63ffffffff16565b5b60008573ffffffffffffffffffffffffffffffffffffffff1663883bdbfd61248761337063ffffffff16565b6040518263ffffffff1660e01b81526004018080602001828103825283818151815260200191508051906020019060200280838360005b838110156124da5780820151818401525b6020810190506124be565b505050509050019250505060006040518083038186803b1580156124fe5760006000fd5b505afa158015612513573d600060003e3d6000fd5b505050506040513d6000823e3d601f19601f82011682018060405250604081101561253e5760006000fd5b810190808051604051939291908464010000000082111561255f5760006000fd5b838201915060208201858111156125765760006000fd5b82518660208202830111640100000000821117156125945760006000fd5b8083526020830192505050908051906020019060200280838360005b838110156125cc5780820151818401525b6020810190506125b0565b50505050905001604052602001805160405193929190846401000000008211156125f65760006000fd5b8382019150602082018581111561260d5760006000fd5b825186602082028301116401000000008211171561262b5760006000fd5b8083526020830192505050908051906020019060200280838360005b838110156126635780820151818401525b602081019050612647565b505050509050016040526020015050505090506040518060c0016040528061268f61335563ffffffff16565b67ffffffffffffffff1681526020018260008151811015156126ad57fe5b602002602001015160060b81526020018460020b815260200183612754578773ffffffffffffffffffffffffffffffffffffffff16630dfe16816040518163ffffffff1660e01b815260040160206040518083038186803b1580156127125760006000fd5b505afa158015612727573d600060003e3d6000fd5b505050506040513d602081101561273e5760006000fd5b81019080805190602001909291905050506127d9565b8773ffffffffffffffffffffffffffffffffffffffff1663d21220a76040518163ffffffff1660e01b815260040160206040518083038186803b15801561279b5760006000fd5b505afa1580156127b0573d600060003e3d6000fd5b505050506040513d60208110156127c75760006000fd5b81019080805190602001909291905050505b73ffffffffffffffffffffffffffffffffffffffff1663313ce5676040518163ffffffff1660e01b815260040160206040518083038186803b15801561281f5760006000fd5b505afa158015612834573d600060003e3d6000fd5b505050506040513d602081101561284b5760006000fd5b810190808051906020019092919050505060ff168152602001831515815260200160011515815260200150600760005060008873ffffffffffffffffffffffffffffffffffffffff1673ffffffffffffffffffffffffffffffffffffffff16815260200190815260200160002060005060008201518160000160006101000a81548167ffffffffffffffff021916908367ffffffffffffffff16021790555060208201518160000160086101000a81548166ffffffffffffff021916908360060b66ffffffffffffff160217905550604082015181600001600f6101000a81548162ffffff021916908360020b62ffffff16021790555060608201518160000160126101000a81548160ff021916908360ff16021790555060808201518160000160136101000a81548160ff02191690831515021790555060a08201518160000160146101000a81548160ff021916908315150217905550905050505050505b5050565b6001600160146101000a81548160ff0219169083151502179055505b565b801515612a45576040517f08c379a000000000000000000000000000000000000000000000000000000000815260040180806020018281038252600c8152602001807f496e76616c696420706f6f6c000000000000000000000000000000000000000081526020015060200191505060405180910390fd5b5b50565b6000600060008360020b12612a61578260020b612a69565b8260020b6000035b90507ffffffffffffffffffffffffffffffffffffffffffffffffffffffffffff2761860000360020b8111151515612b0c576040517f08c379a00000000000000000000000000000000000000000000000000000000081526004018080602001828103825260018152602001807f540000000000000000000000000000000000000000000000000000000000000081526020015060200191505060405180910390fd5b60006000600183161415612b3157700100000000000000000000000000000000612b43565b6ffffcb933bd6fad37aa2d162d1a5940015b70ffffffffffffffffffffffffffffffffff169050600060028316141515612b815760806ffff97272373d413259a46990580e213a8202901c905080505b600060048316141515612baa5760806ffff2e50f5f656932ef12357cf3c7fdcc8202901c905080505b600060088316141515612bd35760806fffe5caca7e10e4e61c3624eaa0941cd08202901c905080505b600060108316141515612bfc5760806fffcb9843d60f6159c9db58835c9266448202901c905080505b600060208316141515612c255760806fff973b41fa98c081472e6896dfb254c08202901c905080505b600060408316141515612c4e5760806fff2ea16466c96a3843ec78b326b528618202901c905080505b600060808316141515612c775760806ffe5dee046a99a2a811c461f1969c30538202901c905080505b60006101008316141515612ca15760806ffcbe86c7900a88aedcffc83b479aa3a48202901c905080505b60006102008316141515612ccb5760806ff987a7253ac413176f2b074cf7815e548202901c905080505b60006104008316141515612cf55760806ff3392b0822b70005940c7a398e4b70f38202901c905080505b60006108008316141515612d1f5760806fe7159475a2c29b7443b29c7fa6e889d98202901c905080505b60006110008316141515612d495760806fd097f3bdfd2022b8845ad8f792aa58258202901c905080505b60006120008316141515612d735760806fa9f746462d870fdf8a65dc1f90e061e58202901c905080505b60006140008316141515612d9d5760806f70d869a156d2a1b890bb3df62baf32f78202901c905080505b60006180008316141515612dc75760806f31be135f97d08fd981231505542fcfa68202901c905080505b6000620100008316141515612df25760806f09aa508b5b7a84e1c677de54f3e99bc98202901c905080505b6000620200008316141515612e1c5760806e5d6af8dedb81196699c329225ee6048202901c905080505b6000620400008316141515612e455760806d2216e584f5fa1ea926041bedfe988202901c905080505b6000620800008316141515612e6c5760806b048a170391f7dc42444e8fa28202901c905080505b60008460020b1315612ea957807fffffffffffffffffffffffffffffffffffffffffffffffffffffffffffffffff811515612ea357fe5b04905080505b600064010000000082811515612ebb57fe5b0614612ec8576001612ecb565b60005b60ff16602082901c019250825050505b919050565b600060008373ffffffffffffffffffffffffffffffffffffffff168573ffffffffffffffffffffffffffffffffffffffff161115612f2357838580955081965050505b8473ffffffffffffffffffffffffffffffffffffffff168673ffffffffffffffffffffffffffffffffffffffff16111515612f7257612f69858585613df063ffffffff16565b91508150612fec565b8373ffffffffffffffffffffffffffffffffffffffff168673ffffffffffffffffffffffffffffffffffffffff161015612fd557612fb7868585613df063ffffffff16565b91508150612fcc858785613eb863ffffffff16565b90508050612feb565b612fe6858585613eb863ffffffff16565b905080505b5b5b94509492505050565b600060008214806130165750828283850292508281151561301357fe5b04145b151561308d576040517f08c379a000000000000000000000000000000000000000000000000000000000815260040180806020018281038252600c8152602001807f6d756c2d6f766572666c6f77000000000000000000000000000000000000000081526020015060200191505060405180910390fd5b5b92915050565b60006000600060001985870985870292508281108382030391505060008114156130d7576000841115156130c85760006000fd5b8382049250829250505061318e565b80841115156130e65760006000fd5b600084868809905082811182039150808303925060008586600003169050808604955080840493506001818260000304019050808302841793508350600060028760030218905080870260020381029050805080870260020381029050805080870260020381029050805080870260020381029050805080870260020381029050805080870260020381029050805080850295508550859550505050505061318e5650505050505b9392505050565b60008282840191508110151515613217576040517f08c379a000000000000000000000000000000000000000000000000000000000815260040180806020018281038252600c8152602001807f6164642d6f766572666c6f77000000000000000000000000000000000000000081526020015060200191505060405180910390fd5b5b92915050565b60006132946132338484613a6963ffffffff16565b600760005060008673ffffffffffffffffffffffffffffffffffffffff1673ffffffffffffffffffffffffffffffffffffffff16815260200190815260200160002060005060000160139054906101000a900460ff1661331a63ffffffff16565b90508050600081111515613313576040517f08c379a00000000000000000000000000000000000000000000000000000000081526004018080602001828103825260028152602001807f504500000000000000000000000000000000000000000000000000000000000081526020015060200191505060405180910390fd5b5b92915050565b600061334861333d8361332d5784613332565b846000035b612a4963ffffffff16565b61358d63ffffffff16565b905061334f565b92915050565b600061336842613f4f909063ffffffff16565b905080505b90565b6060600167ffffffffffffffff8111801561338b5760006000fd5b506040519080825280602002602001820160405280156133ba5781602001602082028036833780820191505090505b509050805060008160008151811015156133d057fe5b602002602001019063ffffffff16908163ffffffff16815260200150505b90565b60006401000000008267ffffffffffffffff1610151561347c576040517f08c379a00000000000000000000000000000000000000000000000000000000081526004018080602001828103825260138152602001807f626967676572207468616e20333220626974730000000000000000000000000081526020015060200191505060405180910390fd5b819050613484565b919050565b60006000848403905060008363ffffffff168260060b8115156134a857fe5b05905060008260060b1280156134d6575060008463ffffffff168360060b8115156134cf57fe5b0760060b14155b156134e5578080600190039150505b80925050506134f15650505b9392505050565b6000601260ff16826060015160ff16141561351557829050613587565b6000601260ff16836060015160ff1610905060008161353b576012846060015103613544565b83606001516012035b905081613569576135648160ff16600a0a86612ff690919063ffffffff16565b61357c565b8060ff16600a0a8581151561357a57fe5b045b925050506135875650505b92915050565b600060006135c76c010000000000000000000000008473ffffffffffffffffffffffffffffffffffffffff16613fe190919063ffffffff16565b90506135dc818261400790919063ffffffff16565b9150506135e556505b919050565b600260066000505414151515613635576040517f08c379a000000000000000000000000000000000000000000000000000000000815260040161362c90614762565b60405180910390fd5b600260066000508190909055505b565b600160066000508190909055505b565b60006401000276a373ffffffffffffffffffffffffffffffffffffffff168273ffffffffffffffffffffffffffffffffffffffff16101580156136d7575073fffd8963efd1fc6a506488495d951d5263988d2673ffffffffffffffffffffffffffffffffffffffff168273ffffffffffffffffffffffffffffffffffffffff16105b151561374e576040517f08c379a00000000000000000000000000000000000000000000000000000000081526004018080602001828103825260018152602001807f520000000000000000000000000000000000000000000000000000000000000081526020015060200191505060405180910390fd5b600060208373ffffffffffffffffffffffffffffffffffffffff16901b905060008190506000600090506fffffffffffffffffffffffffffffffff821160071b808217915082811c92505067ffffffffffffffff821160061b808217915082811c92505063ffffffff821160051b808217915082811c92505061ffff821160041b808217915082811c92505060ff821160031b808217915082811c925050600f821160021b808217915082811c9250506003821160011b808217915082811c9250506001821180821791505060808110151561383457607f810383901c91508150613840565b80607f0383901b915081505b6000604060808303901b9050828302607f1c92508260801c80603f1b8217915083811c935050828302607f1c92508260801c80603e1b8217915083811c935050828302607f1c92508260801c80603d1b8217915083811c935050828302607f1c92508260801c80603c1b8217915083811c935050828302607f1c92508260801c80603b1b8217915083811c935050828302607f1c92508260801c80603a1b8217915083811c935050828302607f1c92508260801c8060391b8217915083811c935050828302607f1c92508260801c8060381b8217915083811c935050828302607f1c92508260801c8060371b8217915083811c935050828302607f1c92508260801c8060361b8217915083811c935050828302607f1c92508260801c8060351b8217915083811c935050828302607f1c92508260801c8060341b8217915083811c935050828302607f1c92508260801c8060331b8217915083811c935050828302607f1c92508260801c8060321b82179150506000693627a301d71055774c8582029050600060806f028f6481ab7f045a5af012a19d003aaa8303901d9050600060806fdb2df09e81959a81455e260799a0632f8401901d90508060020b8260020b14613a56578873ffffffffffffffffffffffffffffffffffffffff16613a2d82612a4963ffffffff16565b73ffffffffffffffffffffffffffffffffffffffff161115613a4f5781613a51565b805b613a58565b815b97508750505050505050505b919050565b600060008263ffffffff16111515613aec576040517f08c379a00000000000000000000000000000000000000000000000000000000081526004018080602001828103825260028152602001807f544500000000000000000000000000000000000000000000000000000000000081526020015060200191505060405180910390fd5b6000600267ffffffffffffffff81118015613b075760006000fd5b50604051908082528060200260200182016040528015613b365781602001602082028036833780820191505090505b50905082816000815181101515613b4957fe5b602002602001019063ffffffff16908163ffffffff16815260200150506000816001815181101515613b7757fe5b602002602001019063ffffffff16908163ffffffff168152602001505060008473ffffffffffffffffffffffffffffffffffffffff1663883bdbfd836040518263ffffffff1660e01b81526004018080602001828103825283818151815260200191508051906020019060200280838360005b83811015613c065780820151818401525b602081019050613bea565b505050509050019250505060006040518083038186803b158015613c2a5760006000fd5b505afa158015613c3f573d600060003e3d6000fd5b505050506040513d6000823e3d601f19601f820116820180604052506040811015613c6a5760006000fd5b8101908080516040519392919084640100000000821115613c8b5760006000fd5b83820191506020820185811115613ca25760006000fd5b8251866020820283011164010000000082111715613cc05760006000fd5b8083526020830192505050908051906020019060200280838360005b83811015613cf85780820151818401525b602081019050613cdc565b5050505090500160405260200180516040519392919084640100000000821115613d225760006000fd5b83820191506020820185811115613d395760006000fd5b8251866020820283011164010000000082111715613d575760006000fd5b8083526020830192505050908051906020019060200280838360005b83811015613d8f5780820151818401525b602081019050613d73565b50505050905001604052602001505050509050613ddf816000815181101515613db457fe5b6020026020010151826001815181101515613dcb57fe5b60200260200101518661348963ffffffff16565b92505050613dea5650505b92915050565b60008273ffffffffffffffffffffffffffffffffffffffff168473ffffffffffffffffffffffffffffffffffffffff161115613e3157828480945081955050505b8373ffffffffffffffffffffffffffffffffffffffff16613ea0606060ff16846fffffffffffffffffffffffffffffffff16901b86860373ffffffffffffffffffffffffffffffffffffffff168673ffffffffffffffffffffffffffffffffffffffff1661402d63ffffffff16565b811515613ea957fe5b049050613eb1565b9392505050565b60008273ffffffffffffffffffffffffffffffffffffffff168473ffffffffffffffffffffffffffffffffffffffff161115613ef957828480945081955050505b613f41826fffffffffffffffffffffffffffffffff1685850373ffffffffffffffffffffffffffffffffffffffff166c0100000000000000000000000061402d63ffffffff16565b9050613f48565b9392505050565b60006801000000000000000082101515613fd4576040517f08c379a00000000000000000000000000000000000000000000000000000000081526004018080602001828103825260118152602001807f6d6f7265207468616e203634206269747300000000000000000000000000000081526020015060200191505060405180910390fd5b819050613fdc565b919050565b6000613ffc83670de0b6b3a76400008461309463ffffffff16565b905080505b92915050565b60006140228383670de0b6b3a764000061309463ffffffff16565b905080505b92915050565b6000600060006000198587098587029250828110838203039150506000811415614070576000841115156140615760006000fd5b83820492508292505050614127565b808411151561407f5760006000fd5b60008486880990508281118203915080830392506000858660000316905080860495508084049350600181826000030401905080830284179350835060006002876003021890508087026002038102905080508087026002038102905080508087026002038102905080508087026002038102905080508087026002038102905080508087026002038102905080508085029550855085955050505050506141275650505050505b9392505050566148a7565b600081359050801515811415156141495760006000fd5b5b919050565b6000813590508060020b811415156141675760006000fd5b5b919050565b6000813590508060060b811415156141855760006000fd5b5b919050565b60008135905063ffffffff8116811415156141a65760006000fd5b5b919050565b60008135905067ffffffffffffffff8116811415156141cb5760006000fd5b5b919050565b6000602082840312156141e2578081fd5b6141eb82614132565b90505b92915050565b600060208284031215614205578081fd5b81357fffffffff00000000000000000000000000000000000000000000000000000000811681141515614236578182fd5b809150505b92915050565b600060208284031215614252578081fd5b815161425d8161487e565b809150505b92915050565b600060208284031215614279578081fd5b81356142848161487e565b809150505b92915050565b6000602082840312156142a0578081fd5b81516142ab8161487e565b809150505b92915050565b6000602082840312156142c7578081fd5b81516142d28161487e565b809150505b92915050565b6000602082840312156142ee578081fd5b81356142f98161487e565b809150505b92915050565b6000600060408385031215614317578081fd5b82356143228161487e565b8092505060208301356143348161487e565b809150505b9250929050565b6000600060408385031215614353578182fd5b823561435e8161487e565b8092505061436e60208401614132565b90505b9250929050565b600060006040838503121561438b578182fd5b82356143968161487e565b8092505060208301356143a88161487e565b809150505b9250929050565b60006000600060006000600060c087890312156143cf578182fd5b86356143da8161487e565b809650506143ea6020880161414f565b94506143f86040880161414f565b93506144066060880161414f565b925060808701356fffffffffffffffffffffffffffffffff81168114151561442c578283fd5b8092505061443c60a0880161418b565b90505b9295509295509295565b600060006040838503121561445c578182fd5b82356144678161487e565b809250506144776020840161418b565b90505b9250929050565b600060208284031215614492578081fd5b61449b8261414f565b90505b92915050565b60006000604083850312156144b7578182fd5b6144c08361414f565b91506144ce60208401614132565b90505b9250929050565b600060006000606084860312156144ed578081fd5b6144f68461416d565b92506145046020850161416d565b91506145126040850161418b565b90505b9250925092565b60006020828403121561452d578081fd5b81356145388161487e565b809150505b92915050565b6000600082840360e0811215614557578283fd5b8335925060c07fffffffffffffffffffffffffffffffffffffffffffffffffffffffffffffffe08201121561458a578182fd5b5060405160c0810181811067ffffffffffffffff821117156145a857fe5b80604052506145b9602085016141ac565b81526145c76040850161416d565b60208201526145d86060850161414f565b6040820152608084013560ff8116811415156145f2578283fd5b8060608301525061460560a08501614132565b608082015261461660c08501614132565b60a0820152809150505b9250929050565b600060208284031215614638578081fd5b6146418261418b565b90505b92915050565b60006020828403121561465b578081fd5b614664826141ac565b90505b92915050565b600060208201905073ffffffffffffffffffffffffffffffffffffffff831682525b92915050565b600060208083018184528085518083526040860191508387019250845b818110156146da5763ffffffff8451168352848301925084840193505b6001810190506146b2565b50508093505050505b92915050565b600060208201905082151582525b92915050565b600060208201905073ffffffffffffffffffffffffffffffffffffffff831682525b92915050565b600060208201905073ffffffffffffffffffffffffffffffffffffffff831682525b92915050565b60006020820190508260020b82525b92915050565b600060208252600d60208301527f4c43205265656e7472616e63790000000000000000000000000000000000000060408301526060820190505b919050565b600060208252600e60208301527f4e6f7420417574686f72697a656400000000000000000000000000000000000060408301526060820190505b919050565b600060208201905073ffffffffffffffffffffffffffffffffffffffff831682525b92915050565b60006020820190508282525b92915050565b600060208201905063ffffffff831682525b92915050565b600060c08201905067ffffffffffffffff881682528660060b60208301528560020b604083015260ff85166060830152831515608083015282151560a08301525b979650505050505050565b73ffffffffffffffffffffffffffffffffffffffff8116811415156148a35760006000fd5b5b50565bfea264697066735822122019012538c8634eac7fcd4e2f1e1235fd7216da61b6bfc9f3e804fc71d10024b864736f6c63430007060033",
  "linkReferences": {},
  "deployedLinkReferences": {}
}