{
  "_format": "hh-sol-artifact-1",
  "contractName": "NonfungibleTokenPositionDescriptor",
  "sourceName": "contracts/uniswap/uniswap-v3-periphery/contracts/NonfungibleTokenPositionDescriptor.sol",
  "abi": [
    {
      "anonymous": false,
      "inputs": [
        {
          "indexed": false,
          "internalType": "address",
          "name": "token",
          "type": "address"
        },
        {
          "indexed": false,
          "internalType": "int256",
          "name": "priority",
          "type": "int256"
        }
      ],
      "name": "UpdateTokenRatioPriority",
      "type": "event"
    },
    {
      "inputs": [
        {
          "internalType": "address",
          "name": "token0",
          "type": "address"
        },
        {
          "internalType": "address",
          "name": "token1",
          "type": "address"
        }
      ],
      "name": "flipRatio",
      "outputs": [
        {
          "internalType": "bool",
          "name": "",
          "type": "bool"
        }
      ],
      "stateMutability": "view",
      "type": "function"
    },
    {
      "inputs": [
        {
          "components": [
            {
              "internalType": "address",
              "name": "token",
              "type": "address"
            },
            {
              "internalType": "int256",
              "name": "priority",
              "type": "int256"
            }
          ],
          "internalType": "struct NonfungibleTokenPositionDescriptor.TokenRatioOrderPriority[]",
          "name": "tokens",
          "type": "tuple[]"
        }
      ],
      "name": "initialize",
      "outputs": [],
      "stateMutability": "nonpayable",
      "type": "function"
    },
    {
      "inputs": [
        {
          "internalType": "address",
          "name": "",
          "type": "address"
        }
      ],
      "name": "tokenRatioPriority",
      "outputs": [
        {
          "internalType": "int256",
          "name": "",
          "type": "int256"
        }
      ],
      "stateMutability": "view",
      "type": "function"
    },
    {
      "inputs": [
        {
          "internalType": "contract INonfungiblePositionManager",
          "name": "positionManager",
          "type": "address"
        },
        {
          "internalType": "uint256",
          "name": "tokenId",
          "type": "uint256"
        }
      ],
      "name": "tokenURI",
      "outputs": [
        {
          "internalType": "string",
          "name": "",
          "type": "string"
        }
      ],
      "stateMutability": "view",
      "type": "function"
    }
  ],
  "bytecode": "0x60806040523480156100115760006000fd5b50610017565b6137df806100266000396000f3fe60806040523480156100115760006000fd5b50600436106100515760003560e01c80635253573a146100575780637d4a868914610073578063dee91a2c146100a3578063e9dc6375146100d357610051565b60006000fd5b610071600480360381019061006c91906133f3565b610103565b005b61008d60048036038101906100889190613369565b610255565b60405161009a9190613617565b60405180910390f35b6100bd60048036038101906100b891906133b7565b610270565b6040516100ca9190613603565b60405180910390f35b6100ed60048036038101906100e89190613468565b61030c565b6040516100fa9190613629565b60405180910390f35b600060019054906101000a900460ff1680610128575061012761072f63ffffffff16565b5b806101405750600060009054906101000a900460ff16155b1515610197576040517f08c379a000000000000000000000000000000000000000000000000000000000815260040180806020018281038252602e815260200180613737602e913960400191505060405180910390fd5b6000600060019054906101000a900460ff1615905080156101e9576001600060016101000a81548160ff0219169083151502179055506001600060006101000a81548160ff0219169083151502179055505b6000600090505b8383905081101561022b5761021d848483818110151561020c57fe5b90506040020161074b63ffffffff16565b5b80806001019150506101f0565b505b801561024f576000600060016101000a81548160ff0219169083151502179055505b505b5050565b60016000506020528060005260406000206000915090505481565b6000600160005060008373ffffffffffffffffffffffffffffffffffffffff1673ffffffffffffffffffffffffffffffffffffffff16815260200190815260200160002060005054600160005060008573ffffffffffffffffffffffffffffffffffffffff1673ffffffffffffffffffffffffffffffffffffffff16815260200190815260200160002060005054139050610306565b92915050565b60606000600060006000600060008873ffffffffffffffffffffffffffffffffffffffff166399fbab88896040518263ffffffff1660e01b815260040161035391906136a1565b6101806040518083038186803b15801561036d5760006000fd5b505afa158015610382573d600060003e3d6000fd5b505050506040513d601f19601f820116820180604052508101906103a691906134ea565b50505050975097509750975097509750505060006104978a73ffffffffffffffffffffffffffffffffffffffff1663c45a01556040518163ffffffff1660e01b815260040160206040518083038186803b1580156104045760006000fd5b505afa158015610419573d600060003e3d6000fd5b505050506040513d601f19601f8201168201806040525081019061043d9190613390565b60405180606001604052808a73ffffffffffffffffffffffffffffffffffffffff1681526020018973ffffffffffffffffffffffffffffffffffffffff1681526020018862ffffff1681526020015061080063ffffffff16565b9050610714604051806101a001604052808873ffffffffffffffffffffffffffffffffffffffff1681526020018973ffffffffffffffffffffffffffffffffffffffff1681526020016104ef8a61092c63ffffffff16565b81526020016105038961092c63ffffffff16565b81526020018973ffffffffffffffffffffffffffffffffffffffff1663313ce5676040518163ffffffff1660e01b815260040160206040518083038186803b15801561054f5760006000fd5b505afa158015610564573d600060003e3d6000fd5b505050506040513d601f19601f8201168201806040525081019061058891906134bc565b60ff1681526020018873ffffffffffffffffffffffffffffffffffffffff1663313ce5676040518163ffffffff1660e01b815260040160206040518083038186803b1580156105d75760006000fd5b505afa1580156105ec573d600060003e3d6000fd5b505050506040513d601f19601f8201168201806040525081019061061091906134bc565b60ff1681526020016106288a8a61027063ffffffff16565b151581526020018660020b81526020018560020b81526020018373ffffffffffffffffffffffffffffffffffffffff1663d0c93a7c6040518163ffffffff1660e01b815260040160206040518083038186803b1580156106885760006000fd5b505afa15801561069d573d600060003e3d6000fd5b505050506040513d601f19601f820116820180604052508101906106c19190613499565b60020b81526020018762ffffff168152602001846fffffffffffffffffffffffffffffffff1681526020018373ffffffffffffffffffffffffffffffffffffffff1681526020015061097963ffffffff16565b97505050505050505061072956505050505050505b92915050565b60006107403061107a63ffffffff16565b159050610748565b90565b80602001356001600050600083600001602081019061076a9190613369565b73ffffffffffffffffffffffffffffffffffffffff1673ffffffffffffffffffffffffffffffffffffffff1681526020019081526020016000206000508190909055507f5fd68dea96a9ad4e6dc9cfad3617d7eb84c2070e6352848fb091a254f4629e928160000160208101906107e19190613369565b82602001356040516107f49291906135d4565b60405180910390a15b50565b6000816020015173ffffffffffffffffffffffffffffffffffffffff16826000015173ffffffffffffffffffffffffffffffffffffffff161015156108455760006000fd5b8273ffffffffffffffffffffffffffffffffffffffff16631698ee828360000151846020015185604001516040518463ffffffff1660e01b8152600401808473ffffffffffffffffffffffffffffffffffffffff1681526020018373ffffffffffffffffffffffffffffffffffffffff1681526020018262ffffff168152602001935050505060206040518083038186803b1580156108e45760006000fd5b505afa1580156108f9573d600060003e3d6000fd5b505050506040513d60208110156109105760006000fd5b8101908080519060200190929190505050905080505b92915050565b60606000610947836395d89b4160e01b61109463ffffffff16565b905060008151141561096a576109628361134763ffffffff16565b915050610974565b8091505061097456505b919050565b6060600061099183610140015161136663ffffffff16565b8360c001516109a45783606001516109aa565b83604001515b8460c001516109bd5784604001516109c3565b84606001515b6109eb8660e0015187610120015188608001518960a001518a60c0015161177b63ffffffff16565b610a1487610100015188610120015189608001518a60a001518b60c0015161177b63ffffffff16565b60405160200180807f556e6973776170205633202d2000000000000000000000000000000000000000815260200150600d0186805190602001908083835b602083101515610a7857805182525b602082019150602081019050602083039250610a52565b6001836020036101000a038019825116818451168082178552505050505050905001807f202d20000000000000000000000000000000000000000000000000000000000081526020015060030185805190602001908083835b602083101515610af757805182525b602082019150602081019050602083039250610ad1565b6001836020036101000a038019825116818451168082178552505050505050905001807f2f0000000000000000000000000000000000000000000000000000000000000081526020015060010184805190602001908083835b602083101515610b7657805182525b602082019150602081019050602083039250610b50565b6001836020036101000a038019825116818451168082178552505050505050905001807f202d20000000000000000000000000000000000000000000000000000000000081526020015060030183805190602001908083835b602083101515610bf557805182525b602082019150602081019050602083039250610bcf565b6001836020036101000a038019825116818451168082178552505050505050905001807f3c3e00000000000000000000000000000000000000000000000000000000000081526020015060020182805190602001908083835b602083101515610c7457805182525b602082019150602081019050602083039250610c4e565b6001836020036101000a0380198251168184511680821785525050505050509050019550505050505060405160208183030381529060405290506000610cc6846101600151611927909063ffffffff16565b610cda856101800151611a8c63ffffffff16565b610ced8660200151611a8c63ffffffff16565b610d008760000151611a8c63ffffffff16565b60405160200180806136de60599139605901807f5c6e6c69717569646974793a2000000000000000000000000000000000000000815260200150600d0185805190602001908083835b602083101515610d6f57805182525b602082019150602081019050602083039250610d49565b6001836020036101000a038019825116818451168082178552505050505050905001807f5c6e706f6f6c416464726573733a200000000000000000000000000000000000815260200150600f0184805190602001908083835b602083101515610dee57805182525b602082019150602081019050602083039250610dc8565b6001836020036101000a038019825116818451168082178552505050505050905001807f5c6e746f6b656e30416464726573733a2000000000000000000000000000000081526020015060110183805190602001908083835b602083101515610e6d57805182525b602082019150602081019050602083039250610e47565b6001836020036101000a038019825116818451168082178552505050505050905001807f5c6e746f6b656e31416464726573733a2000000000000000000000000000000081526020015060110182805190602001908083835b602083101515610eec57805182525b602082019150602081019050602083039250610ec6565b6001836020036101000a0380198251168184511680821785525050505050509050019450505050506040516020818303038152906040529050818160405160200180807f646174613a6170706c69636174696f6e2f6a736f6e2c7b226e616d65223a2200815260200150601f0183805190602001908083835b602083101515610f8b57805182525b602082019150602081019050602083039250610f65565b6001836020036101000a038019825116818451168082178552505050505050905001807f222c20226465736372697074696f6e223a22000000000000000000000000000081526020015060120182805190602001908083835b60208310151561100a57805182525b602082019150602081019050602083039250610fe4565b6001836020036101000a038019825116818451168082178552505050505050905001807f227d00000000000000000000000000000000000000000000000000000000000081526020015060020192505050604051602081830303815290604052925050506110755650505b919050565b60006000823b90506000811191505061108f56505b919050565b6060600060008473ffffffffffffffffffffffffffffffffffffffff1684604051602401604051602081830303815290604052907bffffffffffffffffffffffffffffffffffffffffffffffffffffffff19166020820180517bffffffffffffffffffffffffffffffffffffffffffffffffffffffff83818316178352505050506040518082805190602001908083835b60208310151561114b57805182525b602082019150602081019050602083039250611125565b6001836020036101000a038019825116818451168082178552505050505050905001915050600060405180830381855afa9150503d80600081146111ab576040519150601f19603f3d011682016040523d82523d6000602084013e6111b0565b606091505b50915091508115806111c3575060008151145b156111e4576040518060200160405280600081526020015092505050611341565b6020815114156112375760008180602001905160208110156112065760006000fd5b8101908080519060200190929190505050905061122881611ac463ffffffff16565b93505050506113415650611323565b604081511115611322578080602001905160208110156112575760006000fd5b81019080805160405193929190846401000000008211156112785760006000fd5b8382019150602082018581111561128f5760006000fd5b82518660018202830111640100000000821117156112ad5760006000fd5b8083526020830192505050908051906020019080838360005b838110156112e25780820151818401525b6020810190506112c6565b50505050905090810190601f16801561130f5780820380516001836020036101000a031916815260200191505b5060405260200150505092505050611341565b5b60405180602001604052806000815260200150925050506113415650505b92915050565b606061135a826006611ca063ffffffff16565b9050611361565b919050565b606060008262ffffff1614156113b6576040518060400160405280600281526020017f30250000000000000000000000000000000000000000000000000000000000008152602001509050611776565b6000829050600060005b60008362ffffff161415156114355760008160ff1611156113e8578080600101915050611412565b6000600a8462ffffff168115156113fb57fe5b0662ffffff161415156114115780806001019150505b5b8180600101925050600a8362ffffff1681151561142b57fe5b04925082506113c0565b61143d61328a565b60006005841015156115dc57600060046114638560ff1687611eb590919063ffffffff16565b1015611470576001611473565b60005b60ff16905061148f60018560ff16611eb590919063ffffffff16565b6114a3600587611eb590919063ffffffff16565b106114e9576114e46114c260018660ff16611eb590919063ffffffff16565b6114d6600588611eb590919063ffffffff16565b611eb590919063ffffffff16565b6114ec565b60005b9150815083836080019060ff16908160ff1681526020015050611532600161152484866080015160ff16611f4290919063ffffffff16565b611eb590919063ffffffff16565b8360a0019060ff16908160ff1681526020015050611573816115656001866080015160ff16611eb590919063ffffffff16565b611f4290919063ffffffff16565b836040019060ff16908160ff16815260200150506115c2816115b46115a560018860ff16611f4290919063ffffffff16565b85611f4290919063ffffffff16565b611f4290919063ffffffff16565b836020019060ff16908160ff1681526020015050506116cc565b6115f0846005611eb590919063ffffffff16565b905080506002826080019060ff16908160ff16815260200150506116376001611629846080015160ff1684611f4290919063ffffffff16565b611eb590919063ffffffff16565b8260a0019060ff16908160ff168152602001505061167461166560028560ff16611f4290919063ffffffff16565b82611f4290919063ffffffff16565b826020019060ff16908160ff16815260200150506116a36002836020015160ff16611eb590919063ffffffff16565b826040019060ff16908160ff168152602001505060018260c00190151590811515815260200150505b6116fc6116e58460ff1686611eb590919063ffffffff16565b600a0a8862ffffff16611fd690919063ffffffff16565b826000019090818152602001505060018260e00190151590811515815260200150506004841161172d576000611742565b611741600485611eb590919063ffffffff16565b5b826060019060ff16908160ff16815260200150506117658261206c63ffffffff16565b955050505050506117765650505050505b919050565b6060848560020b7ffffffffffffffffffffffffffffffffffffffffffffffffffffffffffff2761860020b8115156117af57fe5b050260020b8660020b1415611802576040518060400160405280600381526020017f4d494e0000000000000000000000000000000000000000000000000000000000815260200150905061191e5661191d565b848560020b7ffffffffffffffffffffffffffffffffffffffffffffffffffffffffffff2761860000360020b81151561183757fe5b050260020b8660020b141561188a576040518060400160405280600381526020017f4d41580000000000000000000000000000000000000000000000000000000000815260200150905061191e5661191c565b600061189b876123e263ffffffff16565b90508215611902576118e58173ffffffffffffffffffffffffffffffffffffffff167801000000000000000000000000000000000000000000000000611fd690919063ffffffff16565b905080506118fa81858761287963ffffffff16565b91505061191e565b61191381868661287963ffffffff16565b91505061191e56505b5b5b95945050505050565b60606000821415611972576040518060400160405280600181526020017f30000000000000000000000000000000000000000000000000000000000000008152602001509050611a87565b600082905060005b6000821415156119a2578080600101915050600a8281151561199857fe5b049150815061197a565b60008167ffffffffffffffff811180156119bc5760006000fd5b506040519080825280601f01601f1916602001820160405280156119ef5781602001600182028036833780820191505090505b509050600060018303905085935083505b600084141515611a7757600a84811515611a1657fe5b0660300160f81b828280600190039350815181101515611a3257fe5b60200101907effffffffffffffffffffffffffffffffffffffffffffffffffffffffffffff1916908160001a905350600a84811515611a6d57fe5b0493508350611a00565b81945050505050611a8756505050505b919050565b6060611ab860148373ffffffffffffffffffffffffffffffffffffffff16612bd090919063ffffffff16565b9050611abf565b919050565b60606000602067ffffffffffffffff81118015611ae15760006000fd5b506040519080825280601f01601f191660200182016040528015611b145781602001600182028036833780820191505090505b5090506000600090506000600090505b6020811015611bc85760008582602081101515611b3d57fe5b1a60f81b9050600060f81b817effffffffffffffffffffffffffffffffffffffffffffffffffffffffffffff1916141515611bb957808484815181101515611b8157fe5b60200101907effffffffffffffffffffffffffffffffffffffffffffffffffffffffffffff1916908160001a90535082806001019350505b505b8080600101915050611b24565b5060008167ffffffffffffffff81118015611be35760006000fd5b506040519080825280601f01601f191660200182016040528015611c165781602001600182028036833780820191505090505b5090506000600090505b82811015611c8c578381815181101515611c3657fe5b602001015160f81c60f81b8282815181101515611c4f57fe5b60200101907effffffffffffffffffffffffffffffffffffffffffffffffffffffffffffff1916908160001a9053505b8080600101915050611c20565b50809350505050611c9b565050505b919050565b60606000600283811515611cb057fe5b06148015611cbe5750600082115b8015611ccb575060288211155b1515611d42576040517f08c379a000000000000000000000000000000000000000000000000000000000815260040180806020018281038252601e8152602001807f41646472657373537472696e675574696c3a20494e56414c49445f4c454e000081526020015060200191505060405180910390fd5b60008267ffffffffffffffff81118015611d5c5760006000fd5b506040519080825280601f01601f191660200182016040528015611d8f5781602001600182028036833780820191505090505b50905060008473ffffffffffffffffffffffffffffffffffffffff1690506000600090505b600285811515611dc057fe5b04811015611ea25760008160130360080283901c9050600060048260ff16901c9050600060048260ff16901b83039050611dff82612e1163ffffffff16565b8685600202815181101515611e1057fe5b60200101907effffffffffffffffffffffffffffffffffffffffffffffffffffffffffffff1916908160001a905350611e4e81612e1163ffffffff16565b8660018660020201815181101515611e6257fe5b60200101907effffffffffffffffffffffffffffffffffffffffffffffffffffffffffffff1916908160001a9053505050505b8080600101915050611db4565b508192505050611eaf5650505b92915050565b6000828211151515611f32576040517f08c379a000000000000000000000000000000000000000000000000000000000815260040180806020018281038252601e8152602001807f536166654d6174683a207375627472616374696f6e206f766572666c6f77000081526020015060200191505060405180910390fd5b8183039050611f3c565b92915050565b600060008284019050838110151515611fc6576040517f08c379a000000000000000000000000000000000000000000000000000000000815260040180806020018281038252601b8152602001807f536166654d6174683a206164646974696f6e206f766572666c6f77000000000081526020015060200191505060405180910390fd5b80915050611fd056505b92915050565b6000600082111515612053576040517f08c379a000000000000000000000000000000000000000000000000000000000815260040180806020018281038252601a8152602001807f536166654d6174683a206469766973696f6e206279207a65726f00000000000081526020015060200191505060405180910390fd5b818381151561205e57fe5b049050612066565b92915050565b60606000826020015160ff1667ffffffffffffffff8111801561208f5760006000fd5b506040519080825280601f01601f1916602001820160405280156120c25781602001600182028036833780820191505090505b5090508260e0015115612132577f250000000000000000000000000000000000000000000000000000000000000081600183510381518110151561210257fe5b60200101907effffffffffffffffffffffffffffffffffffffffffffffffffffffffffffff1916908160001a9053505b8260c00151156121fb577f300000000000000000000000000000000000000000000000000000000000000081600081518110151561216c57fe5b60200101907effffffffffffffffffffffffffffffffffffffffffffffffffffffffffffff1916908160001a9053507f2e000000000000000000000000000000000000000000000000000000000000008160018151811015156121cb57fe5b60200101907effffffffffffffffffffffffffffffffffffffffffffffffffffffffffffff1916908160001a9053505b6000836080015160ff1690505b61222360018560a0015160ff16611f4290919063ffffffff16565b81101561227a57603060f81b828281518110151561223d57fe5b60200101907effffffffffffffffffffffffffffffffffffffffffffffffffffffffffffff1916908160001a9053505b8080600101915050612208565b505b6000836000015111156123d3576000836060015160ff161180156122ad5750826060015160ff16836040015160ff16145b1561232e577f2e000000000000000000000000000000000000000000000000000000000000008184604001805180919060019003909060ff1660ff1681526020015060ff168151811015156122fe57fe5b60200101907effffffffffffffffffffffffffffffffffffffffffffffffffffffffffffff1916908160001a9053505b612352600a846000015181151561234157fe5b066030611f4290919063ffffffff16565b60f81b8184604001805180919060019003909060ff1660ff1681526020015060ff1681518110151561238057fe5b60200101907effffffffffffffffffffffffffffffffffffffffffffffffffffffffffffff1916908160001a905350600a836000018181518115156123c157fe5b0491509090818152602001505061227c565b809150506123dd56505b919050565b6000600060008360020b126123fa578260020b612402565b8260020b6000035b90507ffffffffffffffffffffffffffffffffffffffffffffffffffffffffffff2761860000360020b81111515156124a5576040517f08c379a00000000000000000000000000000000000000000000000000000000081526004018080602001828103825260018152602001807f540000000000000000000000000000000000000000000000000000000000000081526020015060200191505060405180910390fd5b600060006001831614156124ca577001000000000000000000000000000000006124dc565b6ffffcb933bd6fad37aa2d162d1a5940015b70ffffffffffffffffffffffffffffffffff16905060006002831614151561251a5760806ffff97272373d413259a46990580e213a8202901c905080505b6000600483161415156125435760806ffff2e50f5f656932ef12357cf3c7fdcc8202901c905080505b60006008831614151561256c5760806fffe5caca7e10e4e61c3624eaa0941cd08202901c905080505b6000601083161415156125955760806fffcb9843d60f6159c9db58835c9266448202901c905080505b6000602083161415156125be5760806fff973b41fa98c081472e6896dfb254c08202901c905080505b6000604083161415156125e75760806fff2ea16466c96a3843ec78b326b528618202901c905080505b6000608083161415156126105760806ffe5dee046a99a2a811c461f1969c30538202901c905080505b6000610100831614151561263a5760806ffcbe86c7900a88aedcffc83b479aa3a48202901c905080505b600061020083161415156126645760806ff987a7253ac413176f2b074cf7815e548202901c905080505b6000610400831614151561268e5760806ff3392b0822b70005940c7a398e4b70f38202901c905080505b600061080083161415156126b85760806fe7159475a2c29b7443b29c7fa6e889d98202901c905080505b600061100083161415156126e25760806fd097f3bdfd2022b8845ad8f792aa58258202901c905080505b6000612000831614151561270c5760806fa9f746462d870fdf8a65dc1f90e061e58202901c905080505b600061400083161415156127365760806f70d869a156d2a1b890bb3df62baf32f78202901c905080505b600061800083161415156127605760806f31be135f97d08fd981231505542fcfa68202901c905080505b600062010000831614151561278b5760806f09aa508b5b7a84e1c677de54f3e99bc98202901c905080505b60006202000083161415156127b55760806e5d6af8dedb81196699c329225ee6048202901c905080505b60006204000083161415156127de5760806d2216e584f5fa1ea926041bedfe988202901c905080505b60006208000083161415156128055760806b048a170391f7dc42444e8fa28202901c905080505b60008460020b131561284257807fffffffffffffffffffffffffffffffffffffffffffffffffffffffffffffffff81151561283c57fe5b04905080505b60006401000000008281151561285457fe5b0614612861576001612864565b60005b60ff16602082901c019250825050505b919050565b6060600061288e858585612e4563ffffffff16565b905060006128ac828368010000000000000000612f9963ffffffff16565b905060006c01000000000000000000000000831090508015612906576128fd8272047bf19673df52e37f2410011d100000000000700100000000000000000000000000000000612f9963ffffffff16565b91508150612930565b61292b82620186a0700100000000000000000000000000000000612f9963ffffffff16565b915081505b600082905060005b600082141515612960578080600101915050600a8281151561295657fe5b0491508150612938565b60018103905080506000600061297c868461309a63ffffffff16565b91509150801561298f5782806001019350505b61299761328a565b8515612a69576129cd6129ba8560ff16602b60ff16611eb590919063ffffffff16565b600760ff16611f4290919063ffffffff16565b816020019060ff16908160ff16815260200150506002816080019060ff16908160ff1681526020015050612a216001612a138660ff16602b611eb590919063ffffffff16565b611f4290919063ffffffff16565b8160a0019060ff16908160ff1681526020015050612a506001826020015160ff16611eb590919063ffffffff16565b816040019060ff16908160ff1681526020015050612b6d565b60098460ff16101515612b0157612a8d60048560ff16611eb590919063ffffffff16565b816020019060ff16908160ff16815260200150506005816080019060ff16908160ff1681526020015050612ad26001826020015160ff16611eb590919063ffffffff16565b8160a0019060ff16908160ff16815260200150506004816040019060ff16908160ff1681526020015050612b6c565b6006816020019060ff16908160ff16815260200150506005816040019060ff16908160ff1681526020015050612b576001612b4960058760ff16611eb590919063ffffffff16565b611f4290919063ffffffff16565b816060019060ff16908160ff16815260200150505b5b828160000190908181526020015050858160c001901515908115158152602001505060008160e0019015159081151581526020015050612bb28161206c63ffffffff16565b98505050505050505050612bc95650505050505050505b9392505050565b606060006002836002020167ffffffffffffffff81118015612bf25760006000fd5b506040519080825280601f01601f191660200182016040528015612c255781602001600182028036833780820191505090505b5090507f3000000000000000000000000000000000000000000000000000000000000000816000815181101515612c5857fe5b60200101907effffffffffffffffffffffffffffffffffffffffffffffffffffffffffffff1916908160001a9053507f7800000000000000000000000000000000000000000000000000000000000000816001815181101515612cb757fe5b60200101907effffffffffffffffffffffffffffffffffffffffffffffffffffffffffffff1916908160001a90535060006001846002020190505b6001811115612d85577f3031323334353637383961626364656600000000000000000000000000000000600f8616601081101515612d2c57fe5b1a60f81b8282815181101515612d3e57fe5b60200101907effffffffffffffffffffffffffffffffffffffffffffffffffffffffffffff1916908160001a905350600485901c945084505b806001900390508050612cf2565b50600084141515612e01576040517f08c379a00000000000000000000000000000000000000000000000000000000081526004018080602001828103825260208152602001807f537472696e67733a20686578206c656e67746820696e73756666696369656e7481526020015060200191505060405180910390fd5b80915050612e0b56505b92915050565b6000600a8260ff161015612e31576030820160f81b9050612e4056612e3f565b6037820160f81b9050612e40565b5b919050565b60006000612e70612e658460ff168660ff1661314190919063ffffffff16565b6131d863ffffffff16565b9050600081118015612e83575060128111155b15612f74578260ff168460ff161115612ede57612ed5612ead600283611fd690919063ffffffff16565b600a0a8673ffffffffffffffffffffffffffffffffffffffff166131fa90919063ffffffff16565b91508150612f22565b612f1d612ef5600283611fd690919063ffffffff16565b600a0a8673ffffffffffffffffffffffffffffffffffffffff16611fd690919063ffffffff16565b915081505b6001600282811515612f3057fe5b061415612f6f57612f6a827003298b075b4b6a5240945790619b37fd4a700100000000000000000000000000000000612f9963ffffffff16565b915081505b612f90565b8473ffffffffffffffffffffffffffffffffffffffff16915081505b505b9392505050565b6000600060006000198587098587029250828110838203039150506000811415612fdc57600084111515612fcd5760006000fd5b83820492508292505050613093565b8084111515612feb5760006000fd5b60008486880990508281118203915080830392506000858660000316905080860495508084049350600181826000030401905080830284179350835060006002876003021890508087026002038102905080508087026002038102905080508087026002038102905080508087026002038102905080508087026002038102905080508087026002038102905080508085029550855085955050505050506130935650505050505b9392505050565b60006000600060058460ff1611156130cd576130c86005850360ff16600a0a86611fd690919063ffffffff16565b945084505b60006004600a878115156130dd57fe5b061190506130f5600a87611fd690919063ffffffff16565b9550855080156131085760018601955085505b620186a086141561312b57600a8681151561311f57fe5b04955085506001915081505b858293509350505061313a5650505b9250929050565b6000600082840390506000831215801561315b5750838113155b80613171575060008312801561317057508381135b5b15156131c8576040517f08c379a00000000000000000000000000000000000000000000000000000000081526004018080602001828103825260248152602001806137866024913960400191505060405180910390fd5b809150506131d256505b92915050565b600060008212156131ec57816000036131ee565b815b90506131f5565b919050565b6000600083141561320e5760009050613284565b6000828402905082848281151561322157fe5b0414151561327a576040517f08c379a00000000000000000000000000000000000000000000000000000000081526004018080602001828103825260218152602001806137656021913960400191505060405180910390fd5b8091505061328456505b92915050565b60405180610100016040528060008152602001600060ff168152602001600060ff168152602001600060ff168152602001600060ff168152602001600060ff1681526020016000151581526020016000151581526020015090566136dc565b6000815190506132f8816136b3565b5b919050565b6000815190508060020b811415156133165760006000fd5b5b919050565b6000815190506fffffffffffffffffffffffffffffffff8116811415156133435760006000fd5b5b919050565b60008151905062ffffff8116811415156133635760006000fd5b5b919050565b60006020828403121561337a578081fd5b8135613385816136b3565b809150505b92915050565b6000602082840312156133a1578081fd5b81516133ac816136b3565b809150505b92915050565b60006000604083850312156133ca578081fd5b82356133d5816136b3565b8092505060208301356133e7816136b3565b809150505b9250929050565b6000600060208385031215613406578182fd5b823567ffffffffffffffff8082111561341d578384fd5b818501915085601f8301121515613432578384fd5b813581811115613440578485fd5b866020604083028501011115613454578485fd5b6020830194508093505050505b9250929050565b600060006040838503121561347b578182fd5b8235613486816136b3565b80925050602083013590505b9250929050565b6000602082840312156134aa578081fd5b6134b3826132fe565b90505b92915050565b6000602082840312156134cd578081fd5b815160ff8116811415156134df578182fd5b809150505b92915050565b6000600060006000600060006000600060006000600060006101808d8f031215613512578788fd5b8c516bffffffffffffffffffffffff81168114151561352f578889fd5b809c505061353f60208e016132e9565b9a5061354d60408e016132e9565b995061355b60608e016132e9565b985061356960808e01613349565b975061357760a08e016132fe565b965061358560c08e016132fe565b955061359360e08e0161331c565b94506101008d015193506101208d015192506135b26101408e0161331c565b91506135c16101608e0161331c565b90505b9295989b509295989b509295989b565b600060408201905073ffffffffffffffffffffffffffffffffffffffff841682528260208301525b9392505050565b600060208201905082151582525b92915050565b60006020820190508282525b92915050565b6000602080835283518082850152825b8181101561365957828187010151604082870101525b8281019050613639565b8181111561366a5783604083870101525b5060407fffffffffffffffffffffffffffffffffffffffffffffffffffffffffffffffe0601f830116850101925050505b92915050565b60006020820190508282525b92915050565b73ffffffffffffffffffffffffffffffffffffffff8116811415156136d85760006000fd5b5b50565bfe526570726573656e74732061206c697175696469747920706f736974696f6e20696e206120556e697377617020563320706f6f6c2e2052656465656d61626c6520666f72206f776564207265736572766520746f6b656e732e496e697469616c697a61626c653a20636f6e747261637420697320616c726561647920696e697469616c697a6564536166654d6174683a206d756c7469706c69636174696f6e206f766572666c6f775369676e6564536166654d6174683a207375627472616374696f6e206f766572666c6f77a2646970667358221220cdf456e2bfee1127f0e515dac682d0a43b4c0eaa17c5af5a32175ee223582a7064736f6c63430007060033",
  "linkReferences": {},
  "deployedLinkReferences": {}
}