{
  "_format": "hh-sol-artifact-1",
  "contractName": "CoinSafeMathTestable",
  "sourceName": "contracts/mocks/CoinSafeMathTestable.sol",
  "abi": [
    {
      "inputs": [
        {
          "internalType": "uint256",
          "name": "a",
          "type": "uint256"
        },
        {
          "internalType": "uint256",
          "name": "b",
          "type": "uint256"
        }
      ],
      "name": "_div",
      "outputs": [
        {
          "internalType": "uint256",
          "name": "r",
          "type": "uint256"
        }
      ],
      "stateMutability": "pure",
      "type": "function"
    },
    {
      "inputs": [
        {
          "internalType": "uint256",
          "name": "a",
          "type": "uint256"
        },
        {
          "internalType": "uint256",
          "name": "b",
          "type": "uint256"
        }
      ],
      "name": "_mul",
      "outputs": [
        {
          "internalType": "uint256",
          "name": "r",
          "type": "uint256"
        }
      ],
      "stateMutability": "pure",
      "type": "function"
    },
    {
      "inputs": [
        {
          "internalType": "uint256",
          "name": "a",
          "type": "uint256"
        },
        {
          "internalType": "uint256",
          "name": "b",
          "type": "uint256"
        },
        {
          "internalType": "uint256",
          "name": "c",
          "type": "uint256"
        }
      ],
      "name": "_mulDiv",
      "outputs": [
        {
          "internalType": "uint256",
          "name": "r",
          "type": "uint256"
        }
      ],
      "stateMutability": "pure",
      "type": "function"
    },
    {
      "inputs": [
        {
          "internalType": "uint256",
          "name": "a",
          "type": "uint256"
        },
        {
          "internalType": "uint256",
          "name": "b",
          "type": "uint256"
        }
      ],
      "name": "add",
      "outputs": [
        {
          "internalType": "uint256",
          "name": "r",
          "type": "uint256"
        }
      ],
      "stateMutability": "pure",
      "type": "function"
    },
    {
      "inputs": [
        {
          "internalType": "uint256",
          "name": "a",
          "type": "uint256"
        },
        {
          "internalType": "uint256",
          "name": "b",
          "type": "uint256"
        }
      ],
      "name": "div",
      "outputs": [
        {
          "internalType": "uint256",
          "name": "r",
          "type": "uint256"
        }
      ],
      "stateMutability": "pure",
      "type": "function"
    },
    {
      "inputs": [
        {
          "internalType": "uint256",
          "name": "a",
          "type": "uint256"
        },
        {
          "internalType": "uint256",
          "name": "b",
          "type": "uint256"
        }
      ],
      "name": "mul",
      "outputs": [
        {
          "internalType": "uint256",
          "name": "r",
          "type": "uint256"
        }
      ],
      "stateMutability": "pure",
      "type": "function"
    },
    {
      "inputs": [
        {
          "internalType": "uint256",
          "name": "a",
          "type": "uint256"
        },
        {
          "internalType": "uint256",
          "name": "b",
          "type": "uint256"
        }
      ],
      "name": "sub",
      "outputs": [
        {
          "internalType": "uint256",
          "name": "r",
          "type": "uint256"
        }
      ],
      "stateMutability": "pure",
      "type": "function"
    }
  ],
  "bytecode": "0x608060405234801561001057600080fd5b506109d0806100206000396000f3fe608060405234801561001057600080fd5b506004361061007d5760003560e01c8063771602f71161005b578063771602f714610170578063a391c15b146101bc578063b67d77c514610208578063c8a4ac9c146102545761007d565b806329f5278a1461008257806340248bc3146100d85780634bad332714610124575b600080fd5b6100c26004803603606081101561009857600080fd5b810190808035906020019092919080359060200190929190803590602001909291905050506102a0565b6040518082815260200191505060405180910390f35b61010e600480360360408110156100ee57600080fd5b8101908080359060200190929190803590602001909291905050506102c0565b6040518082815260200191505060405180910390f35b61015a6004803603604081101561013a57600080fd5b8101908080359060200190929190803590602001909291905050506102dd565b6040518082815260200191505060405180910390f35b6101a66004803603604081101561018657600080fd5b8101908080359060200190929190803590602001909291905050506102fa565b6040518082815260200191505060405180910390f35b6101f2600480360360408110156101d257600080fd5b810190808035906020019092919080359060200190929190505050610317565b6040518082815260200191505060405180910390f35b61023e6004803603604081101561021e57600080fd5b810190808035906020019092919080359060200190929190505050610334565b6040518082815260200191505060405180910390f35b61028a6004803603604081101561026a57600080fd5b810190808035906020019092919080359060200190929190505050610351565b6040518082815260200191505060405180910390f35b60006102b783838661036e9092919063ffffffff16565b90509392505050565b60006102d5828461047d90919063ffffffff16565b905092915050565b60006102f2828461059090919063ffffffff16565b905092915050565b600061030f828461062f90919063ffffffff16565b905092915050565b600061032c82846106b790919063ffffffff16565b905092915050565b6000610349828461070190919063ffffffff16565b905092915050565b6000610366828461074b90919063ffffffff16565b905092915050565b60008084148061037e5750600083145b1561038c5760009050610476565b6000821415610403576040517f08c379a000000000000000000000000000000000000000000000000000000000815260040180806020018281038252601b8152602001807f536166654d6174683a206469766973696f6e206279207a65726f2e000000000081525060200191505060405180910390fd5b82840290508284828161041257fe5b0414610469576040517f08c379a00000000000000000000000000000000000000000000000000000000081526004018080602001828103825260228152602001806109586022913960400191505060405180910390fd5b81818161047257fe5b0490505b9392505050565b600080831415610490576000905061058a565b6000821415610507576040517f08c379a000000000000000000000000000000000000000000000000000000000815260040180806020018281038252601b8152602001807f536166654d6174683a206469766973696f6e206279207a65726f2e000000000081525060200191505060405180910390fd5b670de0b6b3a764000083029050670de0b6b3a764000083828161052657fe5b041461057d576040517f08c379a00000000000000000000000000000000000000000000000000000000081526004018080602001828103825260228152602001806109586022913960400191505060405180910390fd5b81818161058657fe5b0490505b92915050565b6000808314806105a05750600082145b156105ae5760009050610629565b8183029050818382816105bd57fe5b0414610614576040517f08c379a00000000000000000000000000000000000000000000000000000000081526004018080602001828103825260228152602001806109586022913960400191505060405180910390fd5b670de0b6b3a7640000818161062557fe5b0490505b92915050565b6000808284019050838110156106ad576040517f08c379a000000000000000000000000000000000000000000000000000000000815260040180806020018281038252601b8152602001807f536166654d6174683a206164646974696f6e206f766572666c6f77000000000081525060200191505060405180910390fd5b8091505092915050565b60006106f983836040518060400160405280601a81526020017f536166654d6174683a206469766973696f6e206279207a65726f0000000000008152506107d1565b905092915050565b600061074383836040518060400160405280601e81526020017f536166654d6174683a207375627472616374696f6e206f766572666c6f770000815250610897565b905092915050565b60008083141561075e57600090506107cb565b600082840290508284828161076f57fe5b04146107c6576040517f08c379a000000000000000000000000000000000000000000000000000000000815260040180806020018281038252602181526020018061097a6021913960400191505060405180910390fd5b809150505b92915050565b6000808311829061087d576040517f08c379a00000000000000000000000000000000000000000000000000000000081526004018080602001828103825283818151815260200191508051906020019080838360005b83811015610842578082015181840152602081019050610827565b50505050905090810190601f16801561086f5780820380516001836020036101000a031916815260200191505b509250505060405180910390fd5b50600083858161088957fe5b049050809150509392505050565b6000838311158290610944576040517f08c379a00000000000000000000000000000000000000000000000000000000081526004018080602001828103825283818151815260200191508051906020019080838360005b838110156109095780820151818401526020810190506108ee565b50505050905090810190601f1680156109365780820380516001836020036101000a031916815260200191505b509250505060405180910390fd5b506000838503905080915050939250505056fe536166654d6174683a206d756c7469706c69636174696f6e206f766572666c6f772e536166654d6174683a206d756c7469706c69636174696f6e206f766572666c6f77a2646970667358221220f931cb29c4cd2a96021f0aa6f7ab8394a6176e4218d646441953ece612a6ddaf64736f6c63430007040033",
  "linkReferences": {},
  "deployedLinkReferences": {}
}