{
  "_format": "hh-sol-artifact-1",
  "contractName": "TokenAllocation",
  "sourceName": "contracts/core/allocations/TokenAllocation.sol",
  "abi": [
    {
      "inputs": [
        {
          "internalType": "uint64",
          "name": "_id",
          "type": "uint64"
        },
        {
          "internalType": "contract ICNP",
          "name": "_cnp",
          "type": "address"
        },
        {
          "internalType": "contract IGovernor",
          "name": "_governor",
          "type": "address"
        },
        {
          "internalType": "uint256",
          "name": "_allocationCount",
          "type": "uint256"
        },
        {
          "internalType": "address",
          "name": "_allocatee",
          "type": "address"
        },
        {
          "internalType": "uint64",
          "name": "_startTime",
          "type": "uint64"
        },
        {
          "internalType": "uint64",
          "name": "_endTime",
          "type": "uint64"
        },
        {
          "internalType": "string",
          "name": "_allocationPurposeExplanation",
          "type": "string"
        }
      ],
      "stateMutability": "nonpayable",
      "type": "constructor"
    },
    {
      "anonymous": false,
      "inputs": [],
      "name": "Accepted",
      "type": "event"
    },
    {
      "anonymous": false,
      "inputs": [
        {
          "indexed": false,
          "internalType": "uint256",
          "name": "count",
          "type": "uint256"
        },
        {
          "indexed": false,
          "internalType": "uint256",
          "name": "available",
          "type": "uint256"
        }
      ],
      "name": "Claimed",
      "type": "event"
    },
    {
      "anonymous": false,
      "inputs": [
        {
          "indexed": true,
          "internalType": "address",
          "name": "governor",
          "type": "address"
        },
        {
          "indexed": false,
          "internalType": "uint256",
          "name": "count",
          "type": "uint256"
        }
      ],
      "name": "EmergencyShutdownTokensBurned",
      "type": "event"
    },
    {
      "anonymous": false,
      "inputs": [],
      "name": "Initialized",
      "type": "event"
    },
    {
      "anonymous": false,
      "inputs": [
        {
          "indexed": true,
          "internalType": "address",
          "name": "settlement",
          "type": "address"
        },
        {
          "indexed": false,
          "internalType": "uint256",
          "name": "count",
          "type": "uint256"
        }
      ],
      "name": "StakedTokens",
      "type": "event"
    },
    {
      "anonymous": false,
      "inputs": [
        {
          "indexed": false,
          "internalType": "uint256",
          "name": "count",
          "type": "uint256"
        }
      ],
      "name": "Sweeped",
      "type": "event"
    },
    {
      "anonymous": false,
      "inputs": [
        {
          "indexed": true,
          "internalType": "address",
          "name": "settlement",
          "type": "address"
        },
        {
          "indexed": true,
          "internalType": "uint64",
          "name": "period",
          "type": "uint64"
        }
      ],
      "name": "UnstakedTokens",
      "type": "event"
    },
    {
      "inputs": [],
      "name": "accept",
      "outputs": [],
      "stateMutability": "nonpayable",
      "type": "function"
    },
    {
      "inputs": [],
      "name": "accepted",
      "outputs": [
        {
          "internalType": "bool",
          "name": "",
          "type": "bool"
        }
      ],
      "stateMutability": "view",
      "type": "function"
    },
    {
      "inputs": [],
      "name": "allocatee",
      "outputs": [
        {
          "internalType": "address",
          "name": "",
          "type": "address"
        }
      ],
      "stateMutability": "view",
      "type": "function"
    },
    {
      "inputs": [],
      "name": "allocationCount",
      "outputs": [
        {
          "internalType": "uint256",
          "name": "",
          "type": "uint256"
        }
      ],
      "stateMutability": "view",
      "type": "function"
    },
    {
      "inputs": [],
      "name": "allocationPurposeExplanation",
      "outputs": [
        {
          "internalType": "string",
          "name": "",
          "type": "string"
        }
      ],
      "stateMutability": "view",
      "type": "function"
    },
    {
      "inputs": [],
      "name": "available",
      "outputs": [
        {
          "internalType": "uint256",
          "name": "",
          "type": "uint256"
        }
      ],
      "stateMutability": "view",
      "type": "function"
    },
    {
      "inputs": [
        {
          "internalType": "uint256",
          "name": "count",
          "type": "uint256"
        }
      ],
      "name": "burnTokensForEmergencyShutdown",
      "outputs": [],
      "stateMutability": "nonpayable",
      "type": "function"
    },
    {
      "inputs": [
        {
          "internalType": "uint256",
          "name": "count",
          "type": "uint256"
        }
      ],
      "name": "claim",
      "outputs": [],
      "stateMutability": "nonpayable",
      "type": "function"
    },
    {
      "inputs": [],
      "name": "claimed",
      "outputs": [
        {
          "internalType": "uint256",
          "name": "",
          "type": "uint256"
        }
      ],
      "stateMutability": "view",
      "type": "function"
    },
    {
      "inputs": [],
      "name": "cnp",
      "outputs": [
        {
          "internalType": "contract ICNP",
          "name": "",
          "type": "address"
        }
      ],
      "stateMutability": "view",
      "type": "function"
    },
    {
      "inputs": [],
      "name": "delegate",
      "outputs": [],
      "stateMutability": "nonpayable",
      "type": "function"
    },
    {
      "inputs": [],
      "name": "endTime",
      "outputs": [
        {
          "internalType": "uint64",
          "name": "",
          "type": "uint64"
        }
      ],
      "stateMutability": "view",
      "type": "function"
    },
    {
      "inputs": [],
      "name": "governor",
      "outputs": [
        {
          "internalType": "contract IGovernor",
          "name": "",
          "type": "address"
        }
      ],
      "stateMutability": "view",
      "type": "function"
    },
    {
      "inputs": [],
      "name": "id",
      "outputs": [
        {
          "internalType": "uint64",
          "name": "",
          "type": "uint64"
        }
      ],
      "stateMutability": "view",
      "type": "function"
    },
    {
      "inputs": [
        {
          "internalType": "uint256",
          "name": "count",
          "type": "uint256"
        }
      ],
      "name": "stakeTokensForSettlementPrice",
      "outputs": [],
      "stateMutability": "nonpayable",
      "type": "function"
    },
    {
      "inputs": [],
      "name": "startTime",
      "outputs": [
        {
          "internalType": "uint64",
          "name": "",
          "type": "uint64"
        }
      ],
      "stateMutability": "view",
      "type": "function"
    },
    {
      "inputs": [],
      "name": "sweep",
      "outputs": [],
      "stateMutability": "nonpayable",
      "type": "function"
    },
    {
      "inputs": [
        {
          "internalType": "contract ISettlement",
          "name": "settlement",
          "type": "address"
        },
        {
          "internalType": "uint64",
          "name": "period",
          "type": "uint64"
        }
      ],
      "name": "unstakeTokensForSettlementPrice",
      "outputs": [],
      "stateMutability": "nonpayable",
      "type": "function"
    }
  ],
  "bytecode": "0x6101606040523480156200001257600080fd5b5060405162002b2438038062002b2483398181016040526101008110156200003957600080fd5b810190808051906020019092919080519060200190929190805190602001909291908051906020019092919080519060200190929190805190602001909291908051906020019092919080516040519392919084640100000000821115620000a057600080fd5b83820191506020820185811115620000b757600080fd5b8251866001820283011164010000000082111715620000d557600080fd5b8083526020830192505050908051906020019080838360005b838110156200010b578082015181840152602081019050620000ee565b50505050905090810190601f168015620001395780820380516001836020036101000a031916815260200191505b5060405250505060016000819055508573ffffffffffffffffffffffffffffffffffffffff166311b66cdb6040518163ffffffff1660e01b815260040160206040518083038186803b1580156200018f57600080fd5b505afa158015620001a4573d6000803e3d6000fd5b505050506040513d6020811015620001bb57600080fd5b810190808051906020019092919050505073ffffffffffffffffffffffffffffffffffffffff163373ffffffffffffffffffffffffffffffffffffffff16146200026d576040517f08c379a00000000000000000000000000000000000000000000000000000000081526004018080602001828103825260208152602001807f4465706c6f792066726f6d2064657369676e6174656420636f6e74726163742e81525060200191505060405180910390fd5b8267ffffffffffffffff166200028c624f1a006200062e60201b60201c565b67ffffffffffffffff1610620002ee576040517f08c379a000000000000000000000000000000000000000000000000000000000815260040180806020018281038252603081526020018062002ace6030913960400191505060405180910390fd5b8167ffffffffffffffff166200032062278d008567ffffffffffffffff166200066a60201b62001cfd1790919060201c565b67ffffffffffffffff161062000382576040517f08c379a000000000000000000000000000000000000000000000000000000000815260040180806020018281038252603181526020018062002a9d6031913960400191505060405180910390fd5b6080815111620003de576040517f08c379a000000000000000000000000000000000000000000000000000000000815260040180806020018281038252603681526020018062002a676036913960400191505060405180910390fd5b600085141562000456576040517f08c379a000000000000000000000000000000000000000000000000000000000815260040180806020018281038252600e8152602001807f4e6f20616c6c6f636174696f6e2e00000000000000000000000000000000000081525060200191505060405180910390fd5b600073ffffffffffffffffffffffffffffffffffffffff168473ffffffffffffffffffffffffffffffffffffffff161415620004fa576040517f08c379a00000000000000000000000000000000000000000000000000000000081526004018080602001828103825260128152602001807f496e76616c696420616c6c6f63617465652e000000000000000000000000000081525060200191505060405180910390fd5b8767ffffffffffffffff166101408167ffffffffffffffff1660c01b815250508673ffffffffffffffffffffffffffffffffffffffff1660a08173ffffffffffffffffffffffffffffffffffffffff1660601b815250508573ffffffffffffffffffffffffffffffffffffffff1660808173ffffffffffffffffffffffffffffffffffffffff1660601b815250508460c081815250508373ffffffffffffffffffffffffffffffffffffffff1660e08173ffffffffffffffffffffffffffffffffffffffff1660601b815250508267ffffffffffffffff166101008167ffffffffffffffff1660c01b815250508167ffffffffffffffff166101208167ffffffffffffffff1660c01b8152505080600390805190602001906200061f92919062000791565b50505050505050505062000847565b60006200066382620006456200070760201b60201c565b67ffffffffffffffff166200066a60201b62001cfd1790919060201c565b9050919050565b60008082840190508367ffffffffffffffff168167ffffffffffffffff161015620006fd576040517f08c379a000000000000000000000000000000000000000000000000000000000815260040180806020018281038252601b8152602001807f536166654d6174683a206164646974696f6e206f766572666c6f77000000000081525060200191505060405180910390fd5b8091505092915050565b60006200071f426200072460201b62001d991760201c565b905090565b600068010000000000000000821062000789576040517f08c379a000000000000000000000000000000000000000000000000000000000815260040180806020018281038252602681526020018062002afe6026913960400191505060405180910390fd5b819050919050565b828054600181600116156101000203166002900490600052602060002090601f016020900481019282620007c9576000855562000815565b82601f10620007e457805160ff191683800117855562000815565b8280016001018555821562000815579182015b8281111562000814578251825591602001919060010190620007f7565b5b50905062000824919062000828565b5090565b5b808211156200084357600081600090555060010162000829565b5090565b60805160601c60a05160601c60c05160e05160601c6101005160c01c6101205160c01c6101405160c01c6121336200093460003980611aa45250806109555280610acd52806111a4528061129a525080611106528061124c5280611279528061131d52508061044e52806104f352806107c952806109fa5280610c6d5280610de15280610ff2528061146052806117545280611b495280611c465250806112c65280611cd55250806105b45280610b6d5280610c315280610fb652806116af52806119125280611c0a5250806105f052806106a1528061072c52806107a5528061181752506121336000f3fe608060405234801561001057600080fd5b50600436106101365760003560e01c806378e97925116100b2578063af50f9f511610081578063c89e436111610066578063c89e436114610406578063cd8227f914610410578063e834a8341461042e57610136565b8063af50f9f5146103b0578063af640d0f146103de57610136565b806378e97925146102795780638174153e146102a15780638e0856ae1461032457806399eeec951461037c57610136565b80633197cbb611610109578063379607f5116100ee578063379607f51461020d57806348a0d7541461023b57806367fe5a0c1461025957610136565b80633197cbb6146101db57806335faa4161461020357610136565b8063054ad66d1461013b5780630b0de30e1461016f5780630c340a241461019d5780632852b71c146101d1575b600080fd5b61014361044c565b604051808273ffffffffffffffffffffffffffffffffffffffff16815260200191505060405180910390f35b61019b6004803603602081101561018557600080fd5b8101908080359060200190929190505050610470565b005b6101a56107a3565b604051808273ffffffffffffffffffffffffffffffffffffffff16815260200191505060405180910390f35b6101d96107c7565b005b6101e3610953565b604051808267ffffffffffffffff16815260200191505060405180910390f35b61020b610977565b005b6102396004803603602081101561022357600080fd5b8101908080359060200190929190505050610d5e565b005b6102436110ec565b6040518082815260200191505060405180910390f35b610261611308565b60405180821515815260200191505060405180910390f35b61028161131b565b604051808267ffffffffffffffff16815260200191505060405180910390f35b6102a961133f565b6040518080602001828103825283818151815260200191508051906020019080838360005b838110156102e95780820151818401526020810190506102ce565b50505050905090810190601f1680156103165780820380516001836020036101000a031916815260200191505b509250505060405180910390f35b61037a6004803603604081101561033a57600080fd5b81019080803573ffffffffffffffffffffffffffffffffffffffff169060200190929190803567ffffffffffffffff1690602001909291905050506113dd565b005b6103846116ad565b604051808273ffffffffffffffffffffffffffffffffffffffff16815260200191505060405180910390f35b6103dc600480360360208110156103c657600080fd5b81019080803590602001909291905050506116d1565b005b6103e6611aa2565b604051808267ffffffffffffffff16815260200191505060405180910390f35b61040e611ac6565b005b610418611cd3565b6040518082815260200191505060405180910390f35b610436611cf7565b6040518082815260200191505060405180910390f35b7f000000000000000000000000000000000000000000000000000000000000000081565b600260005414156104e9576040517f08c379a000000000000000000000000000000000000000000000000000000000815260040180806020018281038252601f8152602001807f5265656e7472616e637947756172643a207265656e7472616e742063616c6c0081525060200191505060405180910390fd5b60026000819055507f000000000000000000000000000000000000000000000000000000000000000073ffffffffffffffffffffffffffffffffffffffff163373ffffffffffffffffffffffffffffffffffffffff16146105b2576040517f08c379a000000000000000000000000000000000000000000000000000000000815260040180806020018281038252600f8152602001807f4e6f7420417574686f72697a65642e000000000000000000000000000000000081525060200191505060405180910390fd5b7f000000000000000000000000000000000000000000000000000000000000000073ffffffffffffffffffffffffffffffffffffffff1663095ea7b37f0000000000000000000000000000000000000000000000000000000000000000836040518363ffffffff1660e01b8152600401808373ffffffffffffffffffffffffffffffffffffffff16815260200182815260200192505050602060405180830381600087803b15801561066357600080fd5b505af1158015610677573d6000803e3d6000fd5b505050506040513d602081101561068d57600080fd5b8101908080519060200190929190505050507f000000000000000000000000000000000000000000000000000000000000000073ffffffffffffffffffffffffffffffffffffffff16630b0de30e826040518263ffffffff1660e01b815260040180828152602001915050600060405180830381600087803b15801561071257600080fd5b505af1158015610726573d6000803e3d6000fd5b505050507f000000000000000000000000000000000000000000000000000000000000000073ffffffffffffffffffffffffffffffffffffffff167fc97ce96f25a710b08623b78216d6f4109d0fd81c58779e154b26593b82736752826040518082815260200191505060405180910390a2600160008190555050565b7f000000000000000000000000000000000000000000000000000000000000000081565b7f000000000000000000000000000000000000000000000000000000000000000073ffffffffffffffffffffffffffffffffffffffff163373ffffffffffffffffffffffffffffffffffffffff1614610888576040517f08c379a000000000000000000000000000000000000000000000000000000000815260040180806020018281038252600f8152602001807f4e6f7420417574686f72697a65642e000000000000000000000000000000000081525060200191505060405180910390fd5b600160009054906101000a900460ff161561090b576040517f08c379a00000000000000000000000000000000000000000000000000000000081526004018080602001828103825260118152602001807f416c72656164792061636365707465642e00000000000000000000000000000081525060200191505060405180910390fd5b60018060006101000a81548160ff0219169083151502179055507f33cf58f9d253f0e978ab033531f83d087d5dd176c31e6419a76fbd9a72c8bb8460405160405180910390a1565b7f000000000000000000000000000000000000000000000000000000000000000081565b600260005414156109f0576040517f08c379a000000000000000000000000000000000000000000000000000000000815260040180806020018281038252601f8152602001807f5265656e7472616e637947756172643a207265656e7472616e742063616c6c0081525060200191505060405180910390fd5b60026000819055507f000000000000000000000000000000000000000000000000000000000000000073ffffffffffffffffffffffffffffffffffffffff163373ffffffffffffffffffffffffffffffffffffffff1614610ab9576040517f08c379a000000000000000000000000000000000000000000000000000000000815260040180806020018281038252600f8152602001807f4e6f7420417574686f72697a65642e000000000000000000000000000000000081525060200191505060405180910390fd5b610ac1611e04565b67ffffffffffffffff167f000000000000000000000000000000000000000000000000000000000000000067ffffffffffffffff1610610b69576040517f08c379a000000000000000000000000000000000000000000000000000000000815260040180806020018281038252600b8152602001807f43616c6c20636c61696d2e00000000000000000000000000000000000000000081525060200191505060405180910390fd5b60007f000000000000000000000000000000000000000000000000000000000000000073ffffffffffffffffffffffffffffffffffffffff166370a08231306040518263ffffffff1660e01b8152600401808273ffffffffffffffffffffffffffffffffffffffff16815260200191505060206040518083038186803b158015610bf257600080fd5b505afa158015610c06573d6000803e3d6000fd5b505050506040513d6020811015610c1c57600080fd5b810190808051906020019092919050505090507f000000000000000000000000000000000000000000000000000000000000000073ffffffffffffffffffffffffffffffffffffffff1663a9059cbb7f0000000000000000000000000000000000000000000000000000000000000000836040518363ffffffff1660e01b8152600401808373ffffffffffffffffffffffffffffffffffffffff16815260200182815260200192505050602060405180830381600087803b158015610ce057600080fd5b505af1158015610cf4573d6000803e3d6000fd5b505050506040513d6020811015610d0a57600080fd5b8101908080519060200190929190505050507f1af8872dfd49df473e4872e31a28a49ec368f8ca0e5b859abad4589dd64bac43816040518082815260200191505060405180910390a1506001600081905550565b60026000541415610dd7576040517f08c379a000000000000000000000000000000000000000000000000000000000815260040180806020018281038252601f8152602001807f5265656e7472616e637947756172643a207265656e7472616e742063616c6c0081525060200191505060405180910390fd5b60026000819055507f000000000000000000000000000000000000000000000000000000000000000073ffffffffffffffffffffffffffffffffffffffff163373ffffffffffffffffffffffffffffffffffffffff1614610ea0576040517f08c379a000000000000000000000000000000000000000000000000000000000815260040180806020018281038252600f8152602001807f4e6f7420417574686f72697a65642e000000000000000000000000000000000081525060200191505060405180910390fd5b6000811415610f17576040517f08c379a00000000000000000000000000000000000000000000000000000000081526004018080602001828103825260058152602001807f4e6f6f702e00000000000000000000000000000000000000000000000000000081525060200191505060405180910390fd5b6000610f216110ec565b905080821115610f99576040517f08c379a000000000000000000000000000000000000000000000000000000000815260040180806020018281038252601d8152602001807f496e73756666696369656e7420636c61696d20617661696c61626c652e00000081525060200191505060405180910390fd5b610fae82600254611e1490919063ffffffff16565b6002819055507f000000000000000000000000000000000000000000000000000000000000000073ffffffffffffffffffffffffffffffffffffffff1663a9059cbb7f0000000000000000000000000000000000000000000000000000000000000000846040518363ffffffff1660e01b8152600401808373ffffffffffffffffffffffffffffffffffffffff16815260200182815260200192505050602060405180830381600087803b15801561106557600080fd5b505af1158015611079573d6000803e3d6000fd5b505050506040513d602081101561108f57600080fd5b8101908080519060200190929190505050507fc83b5086ce94ec8d5a88a9f5fea4b18a522bb238ed0d2d8abd959549a80c16b88282604051808381526020018281526020019250505060405180910390a150600160008190555050565b6000806110f7611e04565b67ffffffffffffffff169050807f000000000000000000000000000000000000000000000000000000000000000067ffffffffffffffff16106111a2576040517f08c379a00000000000000000000000000000000000000000000000000000000081526004018080602001828103825260198152602001807f416c6c6f636174696f6e206861736e7420737461727465642e0000000000000081525060200191505060405180910390fd5b7f000000000000000000000000000000000000000000000000000000000000000067ffffffffffffffff168110611241576040517f08c379a000000000000000000000000000000000000000000000000000000000815260040180806020018281038252600b8152602001807f43616c6c2073776565702e00000000000000000000000000000000000000000081525060200191505060405180910390fd5b6113026002546112f47f000000000000000000000000000000000000000000000000000000000000000067ffffffffffffffff1684037f00000000000000000000000000000000000000000000000000000000000000007f00000000000000000000000000000000000000000000000000000000000000000367ffffffffffffffff167f0000000000000000000000000000000000000000000000000000000000000000611e9c9092919063ffffffff16565b611fab90919063ffffffff16565b91505090565b600160009054906101000a900460ff1681565b7f000000000000000000000000000000000000000000000000000000000000000081565b60038054600181600116156101000203166002900480601f0160208091040260200160405190810160405280929190818152602001828054600181600116156101000203166002900480156113d55780601f106113aa576101008083540402835291602001916113d5565b820191906000526020600020905b8154815290600101906020018083116113b857829003601f168201915b505050505081565b60026000541415611456576040517f08c379a000000000000000000000000000000000000000000000000000000000815260040180806020018281038252601f8152602001807f5265656e7472616e637947756172643a207265656e7472616e742063616c6c0081525060200191505060405180910390fd5b60026000819055507f000000000000000000000000000000000000000000000000000000000000000073ffffffffffffffffffffffffffffffffffffffff163373ffffffffffffffffffffffffffffffffffffffff161461151f576040517f08c379a000000000000000000000000000000000000000000000000000000000815260040180806020018281038252600f8152602001807f4e6f7420417574686f72697a65642e000000000000000000000000000000000081525060200191505060405180910390fd5b600460008373ffffffffffffffffffffffffffffffffffffffff1673ffffffffffffffffffffffffffffffffffffffff16815260200190815260200160002060009054906101000a900460ff166115de576040517f08c379a00000000000000000000000000000000000000000000000000000000081526004018080602001828103825260118152602001807f496e76616c696420636f6e74726163742e00000000000000000000000000000081525060200191505060405180910390fd5b8173ffffffffffffffffffffffffffffffffffffffff1663eafa8d93826040518263ffffffff1660e01b8152600401808267ffffffffffffffff168152602001915050600060405180830381600087803b15801561163b57600080fd5b505af115801561164f573d6000803e3d6000fd5b505050508067ffffffffffffffff168273ffffffffffffffffffffffffffffffffffffffff167f949b2c1bcfa2e84cf8442985abc651a4490c5fbd9cfac76ec2a22000da6d14ad60405160405180910390a360016000819055505050565b7f000000000000000000000000000000000000000000000000000000000000000081565b6002600054141561174a576040517f08c379a000000000000000000000000000000000000000000000000000000000815260040180806020018281038252601f8152602001807f5265656e7472616e637947756172643a207265656e7472616e742063616c6c0081525060200191505060405180910390fd5b60026000819055507f000000000000000000000000000000000000000000000000000000000000000073ffffffffffffffffffffffffffffffffffffffff163373ffffffffffffffffffffffffffffffffffffffff1614611813576040517f08c379a000000000000000000000000000000000000000000000000000000000815260040180806020018281038252600f8152602001807f4e6f7420417574686f72697a65642e000000000000000000000000000000000081525060200191505060405180910390fd5b60007f000000000000000000000000000000000000000000000000000000000000000073ffffffffffffffffffffffffffffffffffffffff1663511606306040518163ffffffff1660e01b815260040160206040518083038186803b15801561187b57600080fd5b505afa15801561188f573d6000803e3d6000fd5b505050506040513d60208110156118a557600080fd5b810190808051906020019092919050505090506001600460008373ffffffffffffffffffffffffffffffffffffffff1673ffffffffffffffffffffffffffffffffffffffff16815260200190815260200160002060006101000a81548160ff0219169083151502179055507f000000000000000000000000000000000000000000000000000000000000000073ffffffffffffffffffffffffffffffffffffffff1663095ea7b382846040518363ffffffff1660e01b8152600401808373ffffffffffffffffffffffffffffffffffffffff16815260200182815260200192505050602060405180830381600087803b1580156119a157600080fd5b505af11580156119b5573d6000803e3d6000fd5b505050506040513d60208110156119cb57600080fd5b8101908080519060200190929190505050508073ffffffffffffffffffffffffffffffffffffffff1663af50f9f5836040518263ffffffff1660e01b815260040180828152602001915050600060405180830381600087803b158015611a3057600080fd5b505af1158015611a44573d6000803e3d6000fd5b505050508073ffffffffffffffffffffffffffffffffffffffff167f07ebe4cc0edd899e6e61889dcebbcaeb1e6ae4e97d01019119e07184016bd076836040518082815260200191505060405180910390a250600160008190555050565b7f000000000000000000000000000000000000000000000000000000000000000081565b60026000541415611b3f576040517f08c379a000000000000000000000000000000000000000000000000000000000815260040180806020018281038252601f8152602001807f5265656e7472616e637947756172643a207265656e7472616e742063616c6c0081525060200191505060405180910390fd5b60026000819055507f000000000000000000000000000000000000000000000000000000000000000073ffffffffffffffffffffffffffffffffffffffff163373ffffffffffffffffffffffffffffffffffffffff1614611c08576040517f08c379a000000000000000000000000000000000000000000000000000000000815260040180806020018281038252600f8152602001807f4e6f7420417574686f72697a65642e000000000000000000000000000000000081525060200191505060405180910390fd5b7f000000000000000000000000000000000000000000000000000000000000000073ffffffffffffffffffffffffffffffffffffffff16635c19a95c7f00000000000000000000000000000000000000000000000000000000000000006040518263ffffffff1660e01b8152600401808273ffffffffffffffffffffffffffffffffffffffff168152602001915050600060405180830381600087803b158015611cb157600080fd5b505af1158015611cc5573d6000803e3d6000fd5b505050506001600081905550565b7f000000000000000000000000000000000000000000000000000000000000000081565b60025481565b60008082840190508367ffffffffffffffff168167ffffffffffffffff161015611d8f576040517f08c379a000000000000000000000000000000000000000000000000000000000815260040180806020018281038252601b8152602001807f536166654d6174683a206164646974696f6e206f766572666c6f77000000000081525060200191505060405180910390fd5b8091505092915050565b6000680100000000000000008210611dfc576040517f08c379a00000000000000000000000000000000000000000000000000000000081526004018080602001828103825260268152602001806120d86026913960400191505060405180910390fd5b819050919050565b6000611e0f42611d99565b905090565b600080828401905083811015611e92576040517f08c379a000000000000000000000000000000000000000000000000000000000815260040180806020018281038252601b8152602001807f536166654d6174683a206164646974696f6e206f766572666c6f77000000000081525060200191505060405180910390fd5b8091505092915050565b600080841480611eac5750600083145b15611eba5760009050611fa4565b6000821415611f31576040517f08c379a000000000000000000000000000000000000000000000000000000000815260040180806020018281038252601b8152602001807f536166654d6174683a206469766973696f6e206279207a65726f2e000000000081525060200191505060405180910390fd5b828402905082848281611f4057fe5b0414611f97576040517f08c379a00000000000000000000000000000000000000000000000000000000081526004018080602001828103825260228152602001806120b66022913960400191505060405180910390fd5b818181611fa057fe5b0490505b9392505050565b6000611fed83836040518060400160405280601e81526020017f536166654d6174683a207375627472616374696f6e206f766572666c6f770000815250611ff5565b905092915050565b60008383111582906120a2576040517f08c379a00000000000000000000000000000000000000000000000000000000081526004018080602001828103825283818151815260200191508051906020019080838360005b8381101561206757808201518184015260208101905061204c565b50505050905090810190601f1680156120945780820380516001836020036101000a031916815260200191505b509250505060405180910390fd5b506000838503905080915050939250505056fe536166654d6174683a206d756c7469706c69636174696f6e206f766572666c6f772e53616665436173743a2076616c756520646f65736e27742066697420696e2036342062697473a26469706673582212209142bc7b6575279e1effd86f72cf2913228fbeab564791e80e8af6f3dedfbef864736f6c634300070400334578706c61696e20686f77207468697320616c6c6f6174696f6e2077696c6c2062656e6566697420434f494e2050726f746f636f6c2e416c6c6f636174696f6e206d75737420626520636c61696d6564206f766572206174206c656173742061206d6f6e74682e5374617274206d757374206265206174206c656173742074776f206d6f6e74687320696e20746865206675747572652e53616665436173743a2076616c756520646f65736e27742066697420696e2036342062697473",
  "linkReferences": {},
  "deployedLinkReferences": {}
}