{
  "_format": "hh-sol-artifact-1",
  "contractName": "TokenAllocation",
  "sourceName": "contracts/core/allocations/TokenAllocation.sol",
  "abi": [
    {
      "inputs": [
        {
          "internalType": "uint64",
          "name": "_id",
          "type": "uint64"
        },
        {
          "internalType": "bool",
          "name": "_canAdministerProtocol",
          "type": "bool"
        },
        {
          "internalType": "contract ICNP",
          "name": "_cnp",
          "type": "address"
        },
        {
          "internalType": "contract IGovernor",
          "name": "_governor",
          "type": "address"
        },
        {
          "internalType": "uint256",
          "name": "_allocationCount",
          "type": "uint256"
        },
        {
          "internalType": "address",
          "name": "_allocatee",
          "type": "address"
        },
        {
          "internalType": "uint64",
          "name": "_startTime",
          "type": "uint64"
        },
        {
          "internalType": "uint64",
          "name": "_endTime",
          "type": "uint64"
        },
        {
          "internalType": "string",
          "name": "_allocationPurposeExplanation",
          "type": "string"
        }
      ],
      "stateMutability": "nonpayable",
      "type": "constructor"
    },
    {
      "anonymous": false,
      "inputs": [],
      "name": "Accepted",
      "type": "event"
    },
    {
      "anonymous": false,
      "inputs": [
        {
          "indexed": false,
          "internalType": "uint256",
          "name": "count",
          "type": "uint256"
        },
        {
          "indexed": false,
          "internalType": "uint256",
          "name": "available",
          "type": "uint256"
        }
      ],
      "name": "Claimed",
      "type": "event"
    },
    {
      "anonymous": false,
      "inputs": [
        {
          "indexed": true,
          "internalType": "address",
          "name": "governor",
          "type": "address"
        },
        {
          "indexed": false,
          "internalType": "uint256",
          "name": "count",
          "type": "uint256"
        }
      ],
      "name": "EmergencyShutdownTokensBurned",
      "type": "event"
    },
    {
      "anonymous": false,
      "inputs": [],
      "name": "Initialized",
      "type": "event"
    },
    {
      "anonymous": false,
      "inputs": [
        {
          "indexed": true,
          "internalType": "address",
          "name": "settlement",
          "type": "address"
        },
        {
          "indexed": false,
          "internalType": "uint256",
          "name": "count",
          "type": "uint256"
        }
      ],
      "name": "StakedTokens",
      "type": "event"
    },
    {
      "anonymous": false,
      "inputs": [
        {
          "indexed": false,
          "internalType": "uint256",
          "name": "count",
          "type": "uint256"
        }
      ],
      "name": "Sweeped",
      "type": "event"
    },
    {
      "anonymous": false,
      "inputs": [
        {
          "indexed": true,
          "internalType": "address",
          "name": "settlement",
          "type": "address"
        }
      ],
      "name": "UnstakedTokens",
      "type": "event"
    },
    {
      "inputs": [],
      "name": "accept",
      "outputs": [],
      "stateMutability": "nonpayable",
      "type": "function"
    },
    {
      "inputs": [],
      "name": "accepted",
      "outputs": [
        {
          "internalType": "bool",
          "name": "",
          "type": "bool"
        }
      ],
      "stateMutability": "view",
      "type": "function"
    },
    {
      "inputs": [],
      "name": "allocatee",
      "outputs": [
        {
          "internalType": "address",
          "name": "",
          "type": "address"
        }
      ],
      "stateMutability": "view",
      "type": "function"
    },
    {
      "inputs": [],
      "name": "allocationCount",
      "outputs": [
        {
          "internalType": "uint256",
          "name": "",
          "type": "uint256"
        }
      ],
      "stateMutability": "view",
      "type": "function"
    },
    {
      "inputs": [],
      "name": "allocationPurposeExplanation",
      "outputs": [
        {
          "internalType": "string",
          "name": "",
          "type": "string"
        }
      ],
      "stateMutability": "view",
      "type": "function"
    },
    {
      "inputs": [],
      "name": "available",
      "outputs": [
        {
          "internalType": "uint256",
          "name": "",
          "type": "uint256"
        }
      ],
      "stateMutability": "view",
      "type": "function"
    },
    {
      "inputs": [
        {
          "internalType": "uint256",
          "name": "count",
          "type": "uint256"
        }
      ],
      "name": "burnTokensForEmergencyShutdown",
      "outputs": [],
      "stateMutability": "nonpayable",
      "type": "function"
    },
    {
      "inputs": [],
      "name": "canAdministerProtocol",
      "outputs": [
        {
          "internalType": "bool",
          "name": "",
          "type": "bool"
        }
      ],
      "stateMutability": "view",
      "type": "function"
    },
    {
      "inputs": [
        {
          "internalType": "uint256",
          "name": "count",
          "type": "uint256"
        }
      ],
      "name": "claim",
      "outputs": [],
      "stateMutability": "nonpayable",
      "type": "function"
    },
    {
      "inputs": [],
      "name": "claimed",
      "outputs": [
        {
          "internalType": "uint256",
          "name": "",
          "type": "uint256"
        }
      ],
      "stateMutability": "view",
      "type": "function"
    },
    {
      "inputs": [],
      "name": "cnp",
      "outputs": [
        {
          "internalType": "contract ICNP",
          "name": "",
          "type": "address"
        }
      ],
      "stateMutability": "view",
      "type": "function"
    },
    {
      "inputs": [],
      "name": "delegate",
      "outputs": [],
      "stateMutability": "nonpayable",
      "type": "function"
    },
    {
      "inputs": [],
      "name": "endTime",
      "outputs": [
        {
          "internalType": "uint64",
          "name": "",
          "type": "uint64"
        }
      ],
      "stateMutability": "view",
      "type": "function"
    },
    {
      "inputs": [],
      "name": "governor",
      "outputs": [
        {
          "internalType": "contract IGovernor",
          "name": "",
          "type": "address"
        }
      ],
      "stateMutability": "view",
      "type": "function"
    },
    {
      "inputs": [],
      "name": "id",
      "outputs": [
        {
          "internalType": "uint64",
          "name": "",
          "type": "uint64"
        }
      ],
      "stateMutability": "view",
      "type": "function"
    },
    {
      "inputs": [],
      "name": "locked",
      "outputs": [
        {
          "internalType": "uint256",
          "name": "",
          "type": "uint256"
        }
      ],
      "stateMutability": "view",
      "type": "function"
    },
    {
      "inputs": [
        {
          "internalType": "uint256",
          "name": "countCNPToStake",
          "type": "uint256"
        }
      ],
      "name": "stakeTokensForNoPriceConfidence",
      "outputs": [],
      "stateMutability": "nonpayable",
      "type": "function"
    },
    {
      "inputs": [],
      "name": "startTime",
      "outputs": [
        {
          "internalType": "uint64",
          "name": "",
          "type": "uint64"
        }
      ],
      "stateMutability": "view",
      "type": "function"
    },
    {
      "inputs": [],
      "name": "sweep",
      "outputs": [],
      "stateMutability": "nonpayable",
      "type": "function"
    },
    {
      "inputs": [
        {
          "internalType": "contract ISettlement",
          "name": "settlement",
          "type": "address"
        }
      ],
      "name": "unstakeTokensForNoPriceConfidence",
      "outputs": [],
      "stateMutability": "nonpayable",
      "type": "function"
    }
  ],
  "bytecode": "0x6101806040523480156200001257600080fd5b5060405162002fa438038062002fa483398181016040526101208110156200003957600080fd5b81019080805190602001909291908051906020019092919080519060200190929190805190602001909291908051906020019092919080519060200190929190805190602001909291908051906020019092919080516040519392919084640100000000821115620000aa57600080fd5b83820191506020820185811115620000c157600080fd5b8251866001820283011164010000000082111715620000df57600080fd5b8083526020830192505050908051906020019080838360005b8381101562000115578082015181840152602081019050620000f8565b50505050905090810190601f168015620001435780820380516001836020036101000a031916815260200191505b5060405250505060016000819055508573ffffffffffffffffffffffffffffffffffffffff166311b66cdb6040518163ffffffff1660e01b815260040160206040518083038186803b1580156200019957600080fd5b505afa158015620001ae573d6000803e3d6000fd5b505050506040513d6020811015620001c557600080fd5b810190808051906020019092919050505073ffffffffffffffffffffffffffffffffffffffff163373ffffffffffffffffffffffffffffffffffffffff161462000277576040517f08c379a00000000000000000000000000000000000000000000000000000000081526004018080602001828103825260208152602001807f4465706c6f792066726f6d2064657369676e6174656420636f6e74726163742e81525060200191505060405180910390fd5b8267ffffffffffffffff1662000296624f1a006200064960201b60201c565b67ffffffffffffffff1610620002f8576040517f08c379a000000000000000000000000000000000000000000000000000000000815260040180806020018281038252603081526020018062002f4e6030913960400191505060405180910390fd5b8167ffffffffffffffff166200032a62278d008567ffffffffffffffff166200068560201b620021321790919060201c565b67ffffffffffffffff16106200038c576040517f08c379a000000000000000000000000000000000000000000000000000000000815260040180806020018281038252603181526020018062002f1d6031913960400191505060405180910390fd5b6080815111620003e8576040517f08c379a000000000000000000000000000000000000000000000000000000000815260040180806020018281038252603681526020018062002ee76036913960400191505060405180910390fd5b600085141562000460576040517f08c379a000000000000000000000000000000000000000000000000000000000815260040180806020018281038252600e8152602001807f4e6f20616c6c6f636174696f6e2e00000000000000000000000000000000000081525060200191505060405180910390fd5b600073ffffffffffffffffffffffffffffffffffffffff168473ffffffffffffffffffffffffffffffffffffffff16141562000504576040517f08c379a00000000000000000000000000000000000000000000000000000000081526004018080602001828103825260128152602001807f496e76616c696420616c6c6f63617465652e000000000000000000000000000081525060200191505060405180910390fd5b8867ffffffffffffffff166101608167ffffffffffffffff1660c01b81525050871515608081151560f81b815250508673ffffffffffffffffffffffffffffffffffffffff1660c08173ffffffffffffffffffffffffffffffffffffffff1660601b815250508573ffffffffffffffffffffffffffffffffffffffff1660a08173ffffffffffffffffffffffffffffffffffffffff1660601b815250508460e081815250508373ffffffffffffffffffffffffffffffffffffffff166101008173ffffffffffffffffffffffffffffffffffffffff1660601b815250508267ffffffffffffffff166101208167ffffffffffffffff1660c01b815250508167ffffffffffffffff166101408167ffffffffffffffff1660c01b81525050806003908051906020019062000639929190620007ac565b5050505050505050505062000862565b60006200067e82620006606200072260201b60201c565b67ffffffffffffffff166200068560201b620021321790919060201c565b9050919050565b60008082840190508367ffffffffffffffff168167ffffffffffffffff16101562000718576040517f08c379a000000000000000000000000000000000000000000000000000000000815260040180806020018281038252601b8152602001807f536166654d6174683a206164646974696f6e206f766572666c6f77000000000081525060200191505060405180910390fd5b8091505092915050565b60006200073a426200073f60201b620021ce1760201c565b905090565b6000680100000000000000008210620007a4576040517f08c379a000000000000000000000000000000000000000000000000000000000815260040180806020018281038252602681526020018062002f7e6026913960400191505060405180910390fd5b819050919050565b828054600181600116156101000203166002900490600052602060002090601f016020900481019282620007e4576000855562000830565b82601f10620007ff57805160ff191683800117855562000830565b8280016001018555821562000830579182015b828111156200082f57825182559160200191906001019062000812565b5b5090506200083f919062000843565b5090565b5b808211156200085e57600081600090555060010162000844565b5090565b60805160f81c60a05160601c60c05160601c60e0516101005160601c6101205160c01c6101405160c01c6101605160c01c6125686200097f6000398061197e525080610a6c5280611048528061171f52806118155280611c7e52508061168152806117c752806117f452806118985280611d7f5250806104ae528061055352806108e05280610b115280610f7552806111e8528061135c528061156d5280611a235280611bb35280611e6d5250806118415280611c425250806106a75280610d6252806110e852806111ac5280611531528061195a5280611b775280611cbb5250806106e35280610794528061081f52806108985280610c6752508061061452806108bc5280610bd25280611ae45280611f2e52506125686000f3fe608060405234801561001057600080fd5b506004361061016c5760003560e01c806367fe5a0c116100cd578063c89e436111610081578063cf30901211610066578063cf3090121461042c578063cf4c350c1461044a578063e834a8341461048e5761016c565b8063c89e436114610404578063cd8227f91461040e5761016c565b80638174153e116100b25780638174153e1461032557806399eeec95146103a8578063af640d0f146103dc5761016c565b806367fe5a0c146102dd57806378e97925146102fd5761016c565b80633197cbb61161012457806335faa4161161010957806335faa41614610287578063379607f51461029157806348a0d754146102bf5761016c565b80633197cbb61461023157806335a12e45146102595761016c565b80630c340a24116101555780630c340a24146101d357806319fd65c1146102075780632852b71c146102275761016c565b8063054ad66d146101715780630b0de30e146101a5575b600080fd5b6101796104ac565b604051808273ffffffffffffffffffffffffffffffffffffffff16815260200191505060405180910390f35b6101d1600480360360208110156101bb57600080fd5b81019080803590602001909291905050506104d0565b005b6101db610896565b604051808273ffffffffffffffffffffffffffffffffffffffff16815260200191505060405180910390f35b61020f6108ba565b60405180821515815260200191505060405180910390f35b61022f6108de565b005b610239610a6a565b604051808267ffffffffffffffff16815260200191505060405180910390f35b6102856004803603602081101561026f57600080fd5b8101908080359060200190929190505050610a8e565b005b61028f610ef2565b005b6102bd600480360360208110156102a757600080fd5b81019080803590602001909291905050506112d9565b005b6102c7611667565b6040518082815260200191505060405180910390f35b6102e5611883565b60405180821515815260200191505060405180910390f35b610305611896565b604051808267ffffffffffffffff16815260200191505060405180910390f35b61032d6118ba565b6040518080602001828103825283818151815260200191508051906020019080838360005b8381101561036d578082015181840152602081019050610352565b50505050905090810190601f16801561039a5780820380516001836020036101000a031916815260200191505b509250505060405180910390f35b6103b0611958565b604051808273ffffffffffffffffffffffffffffffffffffffff16815260200191505060405180910390f35b6103e461197c565b604051808267ffffffffffffffff16815260200191505060405180910390f35b61040c6119a0565b005b610416611c40565b6040518082815260200191505060405180910390f35b610434611c64565b6040518082815260200191505060405180910390f35b61048c6004803603602081101561046057600080fd5b81019080803573ffffffffffffffffffffffffffffffffffffffff169060200190929190505050611dea565b005b61049661212c565b6040518082815260200191505060405180910390f35b7f000000000000000000000000000000000000000000000000000000000000000081565b60026000541415610549576040517f08c379a000000000000000000000000000000000000000000000000000000000815260040180806020018281038252601f8152602001807f5265656e7472616e637947756172643a207265656e7472616e742063616c6c0081525060200191505060405180910390fd5b60026000819055507f000000000000000000000000000000000000000000000000000000000000000073ffffffffffffffffffffffffffffffffffffffff163373ffffffffffffffffffffffffffffffffffffffff1614610612576040517f08c379a000000000000000000000000000000000000000000000000000000000815260040180806020018281038252600f8152602001807f4e6f7420417574686f72697a65642e000000000000000000000000000000000081525060200191505060405180910390fd5b7f00000000000000000000000000000000000000000000000000000000000000006106a5576040517f08c379a00000000000000000000000000000000000000000000000000000000081526004018080602001828103825260108152602001807f43616e742061646d696e69737465722e0000000000000000000000000000000081525060200191505060405180910390fd5b7f000000000000000000000000000000000000000000000000000000000000000073ffffffffffffffffffffffffffffffffffffffff1663095ea7b37f0000000000000000000000000000000000000000000000000000000000000000836040518363ffffffff1660e01b8152600401808373ffffffffffffffffffffffffffffffffffffffff16815260200182815260200192505050602060405180830381600087803b15801561075657600080fd5b505af115801561076a573d6000803e3d6000fd5b505050506040513d602081101561078057600080fd5b8101908080519060200190929190505050507f000000000000000000000000000000000000000000000000000000000000000073ffffffffffffffffffffffffffffffffffffffff16630b0de30e826040518263ffffffff1660e01b815260040180828152602001915050600060405180830381600087803b15801561080557600080fd5b505af1158015610819573d6000803e3d6000fd5b505050507f000000000000000000000000000000000000000000000000000000000000000073ffffffffffffffffffffffffffffffffffffffff167fc97ce96f25a710b08623b78216d6f4109d0fd81c58779e154b26593b82736752826040518082815260200191505060405180910390a2600160008190555050565b7f000000000000000000000000000000000000000000000000000000000000000081565b7f000000000000000000000000000000000000000000000000000000000000000081565b7f000000000000000000000000000000000000000000000000000000000000000073ffffffffffffffffffffffffffffffffffffffff163373ffffffffffffffffffffffffffffffffffffffff161461099f576040517f08c379a000000000000000000000000000000000000000000000000000000000815260040180806020018281038252600f8152602001807f4e6f7420417574686f72697a65642e000000000000000000000000000000000081525060200191505060405180910390fd5b600160009054906101000a900460ff1615610a22576040517f08c379a00000000000000000000000000000000000000000000000000000000081526004018080602001828103825260118152602001807f416c72656164792061636365707465642e00000000000000000000000000000081525060200191505060405180910390fd5b60018060006101000a81548160ff0219169083151502179055507f33cf58f9d253f0e978ab033531f83d087d5dd176c31e6419a76fbd9a72c8bb8460405160405180910390a1565b7f000000000000000000000000000000000000000000000000000000000000000081565b60026000541415610b07576040517f08c379a000000000000000000000000000000000000000000000000000000000815260040180806020018281038252601f8152602001807f5265656e7472616e637947756172643a207265656e7472616e742063616c6c0081525060200191505060405180910390fd5b60026000819055507f000000000000000000000000000000000000000000000000000000000000000073ffffffffffffffffffffffffffffffffffffffff163373ffffffffffffffffffffffffffffffffffffffff1614610bd0576040517f08c379a000000000000000000000000000000000000000000000000000000000815260040180806020018281038252600f8152602001807f4e6f7420417574686f72697a65642e000000000000000000000000000000000081525060200191505060405180910390fd5b7f0000000000000000000000000000000000000000000000000000000000000000610c63576040517f08c379a00000000000000000000000000000000000000000000000000000000081526004018080602001828103825260108152602001807f43616e742061646d696e69737465722e0000000000000000000000000000000081525060200191505060405180910390fd5b60007f000000000000000000000000000000000000000000000000000000000000000073ffffffffffffffffffffffffffffffffffffffff1663511606306040518163ffffffff1660e01b815260040160206040518083038186803b158015610ccb57600080fd5b505afa158015610cdf573d6000803e3d6000fd5b505050506040513d6020811015610cf557600080fd5b810190808051906020019092919050505090506001600460008373ffffffffffffffffffffffffffffffffffffffff1673ffffffffffffffffffffffffffffffffffffffff16815260200190815260200160002060006101000a81548160ff0219169083151502179055507f000000000000000000000000000000000000000000000000000000000000000073ffffffffffffffffffffffffffffffffffffffff1663095ea7b382846040518363ffffffff1660e01b8152600401808373ffffffffffffffffffffffffffffffffffffffff16815260200182815260200192505050602060405180830381600087803b158015610df157600080fd5b505af1158015610e05573d6000803e3d6000fd5b505050506040513d6020811015610e1b57600080fd5b8101908080519060200190929190505050508073ffffffffffffffffffffffffffffffffffffffff166335a12e45836040518263ffffffff1660e01b815260040180828152602001915050600060405180830381600087803b158015610e8057600080fd5b505af1158015610e94573d6000803e3d6000fd5b505050508073ffffffffffffffffffffffffffffffffffffffff167f07ebe4cc0edd899e6e61889dcebbcaeb1e6ae4e97d01019119e07184016bd076836040518082815260200191505060405180910390a250600160008190555050565b60026000541415610f6b576040517f08c379a000000000000000000000000000000000000000000000000000000000815260040180806020018281038252601f8152602001807f5265656e7472616e637947756172643a207265656e7472616e742063616c6c0081525060200191505060405180910390fd5b60026000819055507f000000000000000000000000000000000000000000000000000000000000000073ffffffffffffffffffffffffffffffffffffffff163373ffffffffffffffffffffffffffffffffffffffff1614611034576040517f08c379a000000000000000000000000000000000000000000000000000000000815260040180806020018281038252600f8152602001807f4e6f7420417574686f72697a65642e000000000000000000000000000000000081525060200191505060405180910390fd5b61103c612239565b67ffffffffffffffff167f000000000000000000000000000000000000000000000000000000000000000067ffffffffffffffff16106110e4576040517f08c379a000000000000000000000000000000000000000000000000000000000815260040180806020018281038252600b8152602001807f43616c6c20636c61696d2e00000000000000000000000000000000000000000081525060200191505060405180910390fd5b60007f000000000000000000000000000000000000000000000000000000000000000073ffffffffffffffffffffffffffffffffffffffff166370a08231306040518263ffffffff1660e01b8152600401808273ffffffffffffffffffffffffffffffffffffffff16815260200191505060206040518083038186803b15801561116d57600080fd5b505afa158015611181573d6000803e3d6000fd5b505050506040513d602081101561119757600080fd5b810190808051906020019092919050505090507f000000000000000000000000000000000000000000000000000000000000000073ffffffffffffffffffffffffffffffffffffffff1663a9059cbb7f0000000000000000000000000000000000000000000000000000000000000000836040518363ffffffff1660e01b8152600401808373ffffffffffffffffffffffffffffffffffffffff16815260200182815260200192505050602060405180830381600087803b15801561125b57600080fd5b505af115801561126f573d6000803e3d6000fd5b505050506040513d602081101561128557600080fd5b8101908080519060200190929190505050507f1af8872dfd49df473e4872e31a28a49ec368f8ca0e5b859abad4589dd64bac43816040518082815260200191505060405180910390a1506001600081905550565b60026000541415611352576040517f08c379a000000000000000000000000000000000000000000000000000000000815260040180806020018281038252601f8152602001807f5265656e7472616e637947756172643a207265656e7472616e742063616c6c0081525060200191505060405180910390fd5b60026000819055507f000000000000000000000000000000000000000000000000000000000000000073ffffffffffffffffffffffffffffffffffffffff163373ffffffffffffffffffffffffffffffffffffffff161461141b576040517f08c379a000000000000000000000000000000000000000000000000000000000815260040180806020018281038252600f8152602001807f4e6f7420417574686f72697a65642e000000000000000000000000000000000081525060200191505060405180910390fd5b6000811415611492576040517f08c379a00000000000000000000000000000000000000000000000000000000081526004018080602001828103825260058152602001807f4e6f6f702e00000000000000000000000000000000000000000000000000000081525060200191505060405180910390fd5b600061149c611667565b905080821115611514576040517f08c379a000000000000000000000000000000000000000000000000000000000815260040180806020018281038252601d8152602001807f496e73756666696369656e7420636c61696d20617661696c61626c652e00000081525060200191505060405180910390fd5b6115298260025461224990919063ffffffff16565b6002819055507f000000000000000000000000000000000000000000000000000000000000000073ffffffffffffffffffffffffffffffffffffffff1663a9059cbb7f0000000000000000000000000000000000000000000000000000000000000000846040518363ffffffff1660e01b8152600401808373ffffffffffffffffffffffffffffffffffffffff16815260200182815260200192505050602060405180830381600087803b1580156115e057600080fd5b505af11580156115f4573d6000803e3d6000fd5b505050506040513d602081101561160a57600080fd5b8101908080519060200190929190505050507fc83b5086ce94ec8d5a88a9f5fea4b18a522bb238ed0d2d8abd959549a80c16b88282604051808381526020018281526020019250505060405180910390a150600160008190555050565b600080611672612239565b67ffffffffffffffff169050807f000000000000000000000000000000000000000000000000000000000000000067ffffffffffffffff161061171d576040517f08c379a00000000000000000000000000000000000000000000000000000000081526004018080602001828103825260198152602001807f416c6c6f636174696f6e206861736e7420737461727465642e0000000000000081525060200191505060405180910390fd5b7f000000000000000000000000000000000000000000000000000000000000000067ffffffffffffffff1681106117bc576040517f08c379a000000000000000000000000000000000000000000000000000000000815260040180806020018281038252600b8152602001807f43616c6c2073776565702e00000000000000000000000000000000000000000081525060200191505060405180910390fd5b61187d60025461186f7f000000000000000000000000000000000000000000000000000000000000000067ffffffffffffffff1684037f00000000000000000000000000000000000000000000000000000000000000007f00000000000000000000000000000000000000000000000000000000000000000367ffffffffffffffff167f00000000000000000000000000000000000000000000000000000000000000006122d19092919063ffffffff16565b6123e090919063ffffffff16565b91505090565b600160009054906101000a900460ff1681565b7f000000000000000000000000000000000000000000000000000000000000000081565b60038054600181600116156101000203166002900480601f0160208091040260200160405190810160405280929190818152602001828054600181600116156101000203166002900480156119505780601f1061192557610100808354040283529160200191611950565b820191906000526020600020905b81548152906001019060200180831161193357829003601f168201915b505050505081565b7f000000000000000000000000000000000000000000000000000000000000000081565b7f000000000000000000000000000000000000000000000000000000000000000081565b60026000541415611a19576040517f08c379a000000000000000000000000000000000000000000000000000000000815260040180806020018281038252601f8152602001807f5265656e7472616e637947756172643a207265656e7472616e742063616c6c0081525060200191505060405180910390fd5b60026000819055507f000000000000000000000000000000000000000000000000000000000000000073ffffffffffffffffffffffffffffffffffffffff163373ffffffffffffffffffffffffffffffffffffffff1614611ae2576040517f08c379a000000000000000000000000000000000000000000000000000000000815260040180806020018281038252600f8152602001807f4e6f7420417574686f72697a65642e000000000000000000000000000000000081525060200191505060405180910390fd5b7f0000000000000000000000000000000000000000000000000000000000000000611b75576040517f08c379a00000000000000000000000000000000000000000000000000000000081526004018080602001828103825260108152602001807f43616e742061646d696e69737465722e0000000000000000000000000000000081525060200191505060405180910390fd5b7f000000000000000000000000000000000000000000000000000000000000000073ffffffffffffffffffffffffffffffffffffffff16635c19a95c7f00000000000000000000000000000000000000000000000000000000000000006040518263ffffffff1660e01b8152600401808273ffffffffffffffffffffffffffffffffffffffff168152602001915050600060405180830381600087803b158015611c1e57600080fd5b505af1158015611c32573d6000803e3d6000fd5b505050506001600081905550565b7f000000000000000000000000000000000000000000000000000000000000000081565b600080611c6f612239565b90508067ffffffffffffffff167f000000000000000000000000000000000000000000000000000000000000000067ffffffffffffffff161015611cb7576000915050611de7565b60007f000000000000000000000000000000000000000000000000000000000000000073ffffffffffffffffffffffffffffffffffffffff166370a08231306040518263ffffffff1660e01b8152600401808273ffffffffffffffffffffffffffffffffffffffff16815260200191505060206040518083038186803b158015611d4057600080fd5b505afa158015611d54573d6000803e3d6000fd5b505050506040513d6020811015611d6a57600080fd5b810190808051906020019092919050505090507f000000000000000000000000000000000000000000000000000000000000000067ffffffffffffffff168267ffffffffffffffff161015611dc3578092505050611de7565b6000611dcd611667565b9050808211611ddd576000611de1565b8082035b93505050505b90565b60026000541415611e63576040517f08c379a000000000000000000000000000000000000000000000000000000000815260040180806020018281038252601f8152602001807f5265656e7472616e637947756172643a207265656e7472616e742063616c6c0081525060200191505060405180910390fd5b60026000819055507f000000000000000000000000000000000000000000000000000000000000000073ffffffffffffffffffffffffffffffffffffffff163373ffffffffffffffffffffffffffffffffffffffff1614611f2c576040517f08c379a000000000000000000000000000000000000000000000000000000000815260040180806020018281038252600f8152602001807f4e6f7420417574686f72697a65642e000000000000000000000000000000000081525060200191505060405180910390fd5b7f0000000000000000000000000000000000000000000000000000000000000000611fbf576040517f08c379a00000000000000000000000000000000000000000000000000000000081526004018080602001828103825260108152602001807f43616e742061646d696e69737465722e0000000000000000000000000000000081525060200191505060405180910390fd5b600460008273ffffffffffffffffffffffffffffffffffffffff1673ffffffffffffffffffffffffffffffffffffffff16815260200190815260200160002060009054906101000a900460ff1661207e576040517f08c379a00000000000000000000000000000000000000000000000000000000081526004018080602001828103825260118152602001807f496e76616c696420636f6e74726163742e00000000000000000000000000000081525060200191505060405180910390fd5b8073ffffffffffffffffffffffffffffffffffffffff1663e2083a896040518163ffffffff1660e01b8152600401600060405180830381600087803b1580156120c657600080fd5b505af11580156120da573d6000803e3d6000fd5b505050508073ffffffffffffffffffffffffffffffffffffffff167f13c51f946b9543ae816b832d35b94781628d3ca6703e6ba841fc7abe359b20ff60405160405180910390a2600160008190555050565b60025481565b60008082840190508367ffffffffffffffff168167ffffffffffffffff1610156121c4576040517f08c379a000000000000000000000000000000000000000000000000000000000815260040180806020018281038252601b8152602001807f536166654d6174683a206164646974696f6e206f766572666c6f77000000000081525060200191505060405180910390fd5b8091505092915050565b6000680100000000000000008210612231576040517f08c379a000000000000000000000000000000000000000000000000000000000815260040180806020018281038252602681526020018061250d6026913960400191505060405180910390fd5b819050919050565b6000612244426121ce565b905090565b6000808284019050838110156122c7576040517f08c379a000000000000000000000000000000000000000000000000000000000815260040180806020018281038252601b8152602001807f536166654d6174683a206164646974696f6e206f766572666c6f77000000000081525060200191505060405180910390fd5b8091505092915050565b6000808414806122e15750600083145b156122ef57600090506123d9565b6000821415612366576040517f08c379a000000000000000000000000000000000000000000000000000000000815260040180806020018281038252601b8152602001807f536166654d6174683a206469766973696f6e206279207a65726f2e000000000081525060200191505060405180910390fd5b82840290508284828161237557fe5b04146123cc576040517f08c379a00000000000000000000000000000000000000000000000000000000081526004018080602001828103825260228152602001806124eb6022913960400191505060405180910390fd5b8181816123d557fe5b0490505b9392505050565b600061242283836040518060400160405280601e81526020017f536166654d6174683a207375627472616374696f6e206f766572666c6f77000081525061242a565b905092915050565b60008383111582906124d7576040517f08c379a00000000000000000000000000000000000000000000000000000000081526004018080602001828103825283818151815260200191508051906020019080838360005b8381101561249c578082015181840152602081019050612481565b50505050905090810190601f1680156124c95780820380516001836020036101000a031916815260200191505b509250505060405180910390fd5b506000838503905080915050939250505056fe536166654d6174683a206d756c7469706c69636174696f6e206f766572666c6f772e53616665436173743a2076616c756520646f65736e27742066697420696e2036342062697473a264697066735822122093540b1a655b4e226398624d59eaf19cb57784c144a5770a236355a6c4d32fdf64736f6c634300070400334578706c61696e20686f77207468697320616c6c6f6174696f6e2077696c6c2062656e6566697420434f494e2050726f746f636f6c2e416c6c6f636174696f6e206d75737420626520636c61696d6564206f766572206174206c656173742061206d6f6e74682e5374617274206d757374206265206174206c656173742074776f206d6f6e74687320696e20746865206675747572652e53616665436173743a2076616c756520646f65736e27742066697420696e2036342062697473",
  "linkReferences": {},
  "deployedLinkReferences": {}
}