{
  "_format": "hh-sol-artifact-1",
  "contractName": "OracleTest",
  "sourceName": "contracts/uniswap/uniswap-v3-core/contracts/test/OracleTest.sol",
  "abi": [
    {
      "inputs": [
        {
          "internalType": "uint32",
          "name": "by",
          "type": "uint32"
        }
      ],
      "name": "advanceTime",
      "outputs": [],
      "stateMutability": "nonpayable",
      "type": "function"
    },
    {
      "inputs": [
        {
          "components": [
            {
              "internalType": "uint32",
              "name": "advanceTimeBy",
              "type": "uint32"
            },
            {
              "internalType": "int24",
              "name": "tick",
              "type": "int24"
            },
            {
              "internalType": "uint128",
              "name": "liquidity",
              "type": "uint128"
            }
          ],
          "internalType": "struct OracleTest.UpdateParams[]",
          "name": "params",
          "type": "tuple[]"
        }
      ],
      "name": "batchUpdate",
      "outputs": [],
      "stateMutability": "nonpayable",
      "type": "function"
    },
    {
      "inputs": [],
      "name": "cardinality",
      "outputs": [
        {
          "internalType": "uint16",
          "name": "",
          "type": "uint16"
        }
      ],
      "stateMutability": "view",
      "type": "function"
    },
    {
      "inputs": [],
      "name": "cardinalityNext",
      "outputs": [
        {
          "internalType": "uint16",
          "name": "",
          "type": "uint16"
        }
      ],
      "stateMutability": "view",
      "type": "function"
    },
    {
      "inputs": [
        {
          "internalType": "uint32[]",
          "name": "secondsAgos",
          "type": "uint32[]"
        }
      ],
      "name": "getGasCostOfObserve",
      "outputs": [
        {
          "internalType": "uint256",
          "name": "",
          "type": "uint256"
        }
      ],
      "stateMutability": "view",
      "type": "function"
    },
    {
      "inputs": [
        {
          "internalType": "uint16",
          "name": "_cardinalityNext",
          "type": "uint16"
        }
      ],
      "name": "grow",
      "outputs": [],
      "stateMutability": "nonpayable",
      "type": "function"
    },
    {
      "inputs": [],
      "name": "index",
      "outputs": [
        {
          "internalType": "uint16",
          "name": "",
          "type": "uint16"
        }
      ],
      "stateMutability": "view",
      "type": "function"
    },
    {
      "inputs": [
        {
          "components": [
            {
              "internalType": "uint32",
              "name": "time",
              "type": "uint32"
            },
            {
              "internalType": "int24",
              "name": "tick",
              "type": "int24"
            },
            {
              "internalType": "uint128",
              "name": "liquidity",
              "type": "uint128"
            }
          ],
          "internalType": "struct OracleTest.InitializeParams",
          "name": "params",
          "type": "tuple"
        }
      ],
      "name": "initialize",
      "outputs": [],
      "stateMutability": "nonpayable",
      "type": "function"
    },
    {
      "inputs": [],
      "name": "liquidity",
      "outputs": [
        {
          "internalType": "uint128",
          "name": "",
          "type": "uint128"
        }
      ],
      "stateMutability": "view",
      "type": "function"
    },
    {
      "inputs": [
        {
          "internalType": "uint256",
          "name": "",
          "type": "uint256"
        }
      ],
      "name": "observations",
      "outputs": [
        {
          "internalType": "uint32",
          "name": "blockTimestamp",
          "type": "uint32"
        },
        {
          "internalType": "int56",
          "name": "tickCumulative",
          "type": "int56"
        },
        {
          "internalType": "uint160",
          "name": "liquidityCumulative",
          "type": "uint160"
        },
        {
          "internalType": "bool",
          "name": "initialized",
          "type": "bool"
        }
      ],
      "stateMutability": "view",
      "type": "function"
    },
    {
      "inputs": [
        {
          "internalType": "uint32[]",
          "name": "secondsAgos",
          "type": "uint32[]"
        }
      ],
      "name": "observe",
      "outputs": [
        {
          "internalType": "int56[]",
          "name": "tickCumulatives",
          "type": "int56[]"
        },
        {
          "internalType": "uint160[]",
          "name": "liquidityCumulatives",
          "type": "uint160[]"
        }
      ],
      "stateMutability": "view",
      "type": "function"
    },
    {
      "inputs": [],
      "name": "tick",
      "outputs": [
        {
          "internalType": "int24",
          "name": "",
          "type": "int24"
        }
      ],
      "stateMutability": "view",
      "type": "function"
    },
    {
      "inputs": [],
      "name": "time",
      "outputs": [
        {
          "internalType": "uint32",
          "name": "",
          "type": "uint32"
        }
      ],
      "stateMutability": "view",
      "type": "function"
    },
    {
      "inputs": [
        {
          "components": [
            {
              "internalType": "uint32",
              "name": "advanceTimeBy",
              "type": "uint32"
            },
            {
              "internalType": "int24",
              "name": "tick",
              "type": "int24"
            },
            {
              "internalType": "uint128",
              "name": "liquidity",
              "type": "uint128"
            }
          ],
          "internalType": "struct OracleTest.UpdateParams",
          "name": "params",
          "type": "tuple"
        }
      ],
      "name": "update",
      "outputs": [],
      "stateMutability": "nonpayable",
      "type": "function"
    }
  ],
  "bytecode": "0x60806040523480156100115760006000fd5b50610017565b612093806100266000396000f3fe60806040523480156100115760006000fd5b50600436106100ef5760003560e01c8063761eb23e1161008d578063daf50f6b11610067578063daf50f6b14610255578063dbffe9ad14610271578063dd158c181461028f578063f7fd2cfa146102ad576100ef565b8063761eb23e146101ec578063883bdbfd14610208578063d81740db14610239576100ef565b80632986c0e5116100c95780632986c0e5146101645780633eaf5d9f1461018257806365829dc5146101a057806374e69cef146101bc576100ef565b806316ada547146100f55780631a68650214610113578063252c09d714610131576100ef565b60006000fd5b6100fd6102c9565b60405161010a9190611ffc565b60405180910390f35b61011b6102e0565b6040516101289190611fb0565b60405180910390f35b61014b60048036038101906101469190611e67565b610303565b60405161015b9493929190612014565b60405180910390f35b61016c610387565b6040516101799190611fd4565b60405180910390f35b61018a61039c565b6040516101979190611f5c565b60405180910390f35b6101ba60048036038101906101b59190611dd7565b6103b0565b005b6101d660048036038101906101d19190611d10565b61052e565b6040516101e39190611fea565b60405180910390f35b61020660048036038101906102019190611e38565b61062b565b005b610222600480360381019061021d9190611d10565b610676565b604051610230929190611eb4565b60405180910390f35b610253600480360381019061024e9190611c9b565b610750565b005b61026f600480360381019061026a9190611db3565b610973565b005b610279610af1565b6040516102869190611fd4565b60405180910390f35b610297610b06565b6040516102a49190611fd4565b60405180910390f35b6102c760048036038101906102c29190611e83565b610b1b565b005b61ffff60009054906101000a900463ffffffff1681565b61ffff60079054906101000a90046fffffffffffffffffffffffffffffffff1681565b60006000508161ffff811061031757600080fd5b90900160005b915090508060000160009054906101000a900463ffffffff16908060000160049054906101000a900460060b9080600001600b9054906101000a900473ffffffffffffffffffffffffffffffffffffffff169080600001601f9054906101000a900460ff16905084565b61ffff60179054906101000a900461ffff1681565b61ffff60049054906101000a900460020b81565b6103d18160000160208101906103c69190611e83565b610b1b63ffffffff16565b61046761ffff60179054906101000a900461ffff1661ffff60009054906101000a900463ffffffff1661ffff60049054906101000a900460020b61ffff60079054906101000a90046fffffffffffffffffffffffffffffffff1661ffff60199054906101000a900461ffff1661ffff601b9054906101000a900461ffff166000600050610b56909695949392919063ffffffff16565b61ffff601761ffff60198491906101000a81548161ffff021916908361ffff1602179055508391906101000a81548161ffff021916908361ffff16021790555050508060200160208101906104bc9190611d85565b61ffff60046101000a81548162ffffff021916908360020b62ffffff1602179055508060400160208101906104f19190611dfb565b61ffff60076101000a8154816fffffffffffffffffffffffffffffffff02191690836fffffffffffffffffffffffffffffffff1602179055505b50565b6000600060006000600061ffff60009054906101000a900463ffffffff1661ffff60049054906101000a900460020b61ffff60079054906101000a90046fffffffffffffffffffffffffffffffff1661ffff60179054906101000a900461ffff16935093509350935060005a905061060f85898980806020026020016040519081016040528093929190818152602001838360200280828437600081840152601f19601f8201169050808301925050505050505086858761ffff60199054906101000a900461ffff166000600050610daa909695949392919063ffffffff16565b50505a8103955050505050506106255650505050505b92915050565b61065561ffff601b9054906101000a900461ffff16826000600050610f8d9092919063ffffffff16565b61ffff601b6101000a81548161ffff021916908361ffff1602179055505b50565b6060606061074061ffff60009054906101000a900463ffffffff16858580806020026020016040519081016040528093929190818152602001838360200280828437600081840152601f19601f8201169050808301925050505050505061ffff60049054906101000a900460020b61ffff60179054906101000a900461ffff1661ffff60079054906101000a90046fffffffffffffffffffffffffffffffff1661ffff60199054906101000a900461ffff166000600050610daa909695949392919063ffffffff16565b91509150610749565b9250929050565b600061ffff60049054906101000a900460020b9050600061ffff60079054906101000a90046fffffffffffffffffffffffffffffffff169050600061ffff60179054906101000a900461ffff169050600061ffff60199054906101000a900461ffff169050600061ffff601b9054906101000a900461ffff169050600061ffff60009054906101000a900463ffffffff1690506000600090505b888890508110156108ac57888882818110151561080357fe5b905060600201600001602081019061081b9190611e83565b8201915081506108428583898988886000600050610b56909695949392919063ffffffff16565b8095508196505050888882818110151561085857fe5b90506060020160200160208101906108709190611d85565b96508650888882818110151561088257fe5b905060600201604001602081019061089a9190611dfb565b955085505b80806001019150506107ea565b508561ffff60046101000a81548162ffffff021916908360020b62ffffff1602179055508461ffff60076101000a8154816fffffffffffffffffffffffffffffffff02191690836fffffffffffffffffffffffffffffffff1602179055508361ffff60176101000a81548161ffff021916908361ffff1602179055508261ffff60196101000a81548161ffff021916908361ffff1602179055508061ffff60006101000a81548163ffffffff021916908363ffffffff1602179055505050505050505b5050565b600061ffff60199054906101000a900461ffff1661ffff161415156109cd576040517f08c379a00000000000000000000000000000000000000000000000000000000081526004016109c490611f71565b60405180910390fd5b8060000160208101906109e09190611e83565b61ffff60006101000a81548163ffffffff021916908363ffffffff160217905550806020016020810190610a149190611d85565b61ffff60046101000a81548162ffffff021916908360020b62ffffff160217905550806040016020810190610a499190611dfb565b61ffff60076101000a8154816fffffffffffffffffffffffffffffffff02191690836fffffffffffffffffffffffffffffffff160217905550610aab816000016020810190610a989190611e83565b600060005061109890919063ffffffff16565b61ffff601961ffff601b8491906101000a81548161ffff021916908361ffff1602179055508391906101000a81548161ffff021916908361ffff16021790555050505b50565b61ffff60199054906101000a900461ffff1681565b61ffff601b9054906101000a900461ffff1681565b8061ffff60008282829054906101000a900463ffffffff160192506101000a81548163ffffffff021916908363ffffffff1602179055505b50565b600060006000898961ffff1661ffff81101515610b6f57fe5b90900160005b506040518060800160405290816000820160009054906101000a900463ffffffff1663ffffffff1663ffffffff1681526020016000820160049054906101000a900460060b60060b60060b815260200160008201600b9054906101000a900473ffffffffffffffffffffffffffffffffffffffff1673ffffffffffffffffffffffffffffffffffffffff1673ffffffffffffffffffffffffffffffffffffffff16815260200160008201601f9054906101000a900460ff16151515158152602001505090508763ffffffff16816000015163ffffffff161415610c5e5788859250925050610d9e565b8461ffff168461ffff16118015610c7f57506001850361ffff168961ffff16145b15610c8e578391508150610c94565b84915081505b8161ffff1660018a0161ffff16811515610caa57fe5b0692508250610cc1818989896111d663ffffffff16565b8a8461ffff1661ffff81101515610cd457fe5b90900160005b5060008201518160000160006101000a81548163ffffffff021916908363ffffffff16021790555060208201518160000160046101000a81548166ffffffffffffff021916908360060b66ffffffffffffff160217905550604082015181600001600b6101000a81548173ffffffffffffffffffffffffffffffffffffffff021916908373ffffffffffffffffffffffffffffffffffffffff160217905550606082015181600001601f6101000a81548160ff021916908315150217905550905050505b97509795505050505050565b6060606060008361ffff16111515610e2d576040517f08c379a00000000000000000000000000000000000000000000000000000000081526004018080602001828103825260018152602001807f490000000000000000000000000000000000000000000000000000000000000081526020015060200191505060405180910390fd5b865167ffffffffffffffff81118015610e465760006000fd5b50604051908082528060200260200182016040528015610e755781602001602082028036833780820191505090505b5091508150865167ffffffffffffffff81118015610e935760006000fd5b50604051908082528060200260200182016040528015610ec25781602001602082028036833780820191505090505b50905080506000600090505b8751811015610f7f57610f018a8a8a84815181101515610eea57fe5b60200260200101518a8a8a8a61127163ffffffff16565b8483815181101515610f0f57fe5b602002602001018484815181101515610f2457fe5b6020026020010182909073ffffffffffffffffffffffffffffffffffffffff1673ffffffffffffffffffffffffffffffffffffffff1681526020015082909060060b60060b81526020015050505b8080600101915050610ece565b505b97509795505050505050565b600060008361ffff1611151561100e576040517f08c379a00000000000000000000000000000000000000000000000000000000081526004018080602001828103825260018152602001807f490000000000000000000000000000000000000000000000000000000000000081526020015060200191505060405180910390fd5b8261ffff168261ffff1611151561102757829050611091565b60008390505b8261ffff168161ffff161015611088576001858261ffff1661ffff8110151561105257fe5b90900160005b5060000160006101000a81548163ffffffff021916908363ffffffff1602179055505b808060010191505061102d565b50819050611091565b9392505050565b6000600060405180608001604052808463ffffffff168152602001600060060b8152602001600073ffffffffffffffffffffffffffffffffffffffff1681526020016001151581526020015084600061ffff811015156110f457fe5b90900160005b5060008201518160000160006101000a81548163ffffffff021916908363ffffffff16021790555060208201518160000160046101000a81548166ffffffffffffff021916908360060b66ffffffffffffff160217905550604082015181600001600b6101000a81548173ffffffffffffffffffffffffffffffffffffffff021916908373ffffffffffffffffffffffffffffffffffffffff160217905550606082015181600001601f6101000a81548160ff02191690831515021790555090505060016001819150809050915091506111cf565b9250929050565b6111de611c30565b600085600001518503905060405180608001604052808663ffffffff1681526020018263ffffffff168660020b0288602001510160060b81526020018263ffffffff16856fffffffffffffffffffffffffffffffff160288604001510173ffffffffffffffffffffffffffffffffffffffff1681526020016001151581526020015091505061126956505b949350505050565b6000600060008763ffffffff1614156113a9576000898661ffff1661ffff8110151561129957fe5b90900160005b506040518060800160405290816000820160009054906101000a900463ffffffff1663ffffffff1663ffffffff1681526020016000820160049054906101000a900460060b60060b60060b815260200160008201600b9054906101000a900473ffffffffffffffffffffffffffffffffffffffff1673ffffffffffffffffffffffffffffffffffffffff1673ffffffffffffffffffffffffffffffffffffffff16815260200160008201601f9054906101000a900460ff16151515158152602001505090508863ffffffff16816000015163ffffffff161415156113945761138f818a89886111d663ffffffff16565b905080505b8060200151816040015192509250506114b756505b60008789039050600060006113c98c8c858c8c8c8c6114c363ffffffff16565b915091506113d5611c30565b826000015163ffffffff168463ffffffff1614156113f757829050805061149c565b816000015163ffffffff168463ffffffff16141561141957819050805061149b565b60008360000151836000015103905060008163ffffffff16856020015185602001510360060b81151561144857fe5b05905060008263ffffffff16866040015186604001510373ffffffffffffffffffffffffffffffffffffffff1681151561147e57fe5b049050611493868884846111d663ffffffff16565b935083505050505b5b8060200151816040015195509550505050506114b756505050505b97509795505050505050565b6114cb611c30565b6114d3611c30565b888561ffff1661ffff811015156114e657fe5b90900160005b506040518060800160405290816000820160009054906101000a900463ffffffff1663ffffffff1663ffffffff1681526020016000820160049054906101000a900460060b60060b60060b815260200160008201600b9054906101000a900473ffffffffffffffffffffffffffffffffffffffff1673ffffffffffffffffffffffffffffffffffffffff1673ffffffffffffffffffffffffffffffffffffffff16815260200160008201601f9054906101000a900460ff161515151581526020015050915081506115c8888360000151896118a463ffffffff16565b15611611578663ffffffff16826000015163ffffffff1614156115f45781819150915061189856611610565b81611607838989886111d663ffffffff16565b91509150611898565b5b888361ffff166001870161ffff1681151561162857fe5b0661ffff1661ffff8110151561163a57fe5b90900160005b506040518060800160405290816000820160009054906101000a900463ffffffff1663ffffffff1663ffffffff1681526020016000820160049054906101000a900460060b60060b60060b815260200160008201600b9054906101000a900473ffffffffffffffffffffffffffffffffffffffff1673ffffffffffffffffffffffffffffffffffffffff1673ffffffffffffffffffffffffffffffffffffffff16815260200160008201601f9054906101000a900460ff16151515158152602001505091508150816060015115156117f05788600061ffff8110151561172257fe5b90900160005b506040518060800160405290816000820160009054906101000a900463ffffffff1663ffffffff1663ffffffff1681526020016000820160049054906101000a900460060b60060b60060b815260200160008201600b9054906101000a900473ffffffffffffffffffffffffffffffffffffffff1673ffffffffffffffffffffffffffffffffffffffff1673ffffffffffffffffffffffffffffffffffffffff16815260200160008201601f9054906101000a900460ff161515151581526020015050915081505b611805888360000151896118a463ffffffff16565b151561187c576040517f08c379a00000000000000000000000000000000000000000000000000000000081526004018080602001828103825260038152602001807f4f4c44000000000000000000000000000000000000000000000000000000000081526020015060200191505060405180910390fd5b61188f898989888761197263ffffffff16565b91509150611898565b97509795505050505050565b60008363ffffffff168363ffffffff16111580156118ce57508363ffffffff168263ffffffff1611155b156118ea578163ffffffff168363ffffffff161115905061196b565b60008463ffffffff168463ffffffff1611611912576401000000008463ffffffff160161191a565b8363ffffffff165b64ffffffffff16905060008563ffffffff168463ffffffff161161194b576401000000008463ffffffff1601611953565b8363ffffffff165b64ffffffffff169050808211159250505061196b5650505b9392505050565b61197a611c30565b611982611c30565b60008361ffff166001860161ffff1681151561199a57fe5b0661ffff169050600060018561ffff16830103905060005b600115611c225760028284018115156119c757fe5b0490508050898661ffff16828115156119dc57fe5b0661ffff811015156119ea57fe5b90900160005b506040518060800160405290816000820160009054906101000a900463ffffffff1663ffffffff1663ffffffff1681526020016000820160049054906101000a900460060b60060b60060b815260200160008201600b9054906101000a900473ffffffffffffffffffffffffffffffffffffffff1673ffffffffffffffffffffffffffffffffffffffff1673ffffffffffffffffffffffffffffffffffffffff16815260200160008201601f9054906101000a900460ff1615151515815260200150509450845084606001511515611acf5760018101925082506119b2565b898661ffff1660018301811515611ae257fe5b0661ffff81101515611af057fe5b90900160005b506040518060800160405290816000820160009054906101000a900463ffffffff1663ffffffff1663ffffffff1681526020016000820160049054906101000a900460060b60060b60060b815260200160008201600b9054906101000a900473ffffffffffffffffffffffffffffffffffffffff1673ffffffffffffffffffffffffffffffffffffffff1673ffffffffffffffffffffffffffffffffffffffff16815260200160008201601f9054906101000a900460ff161515151581526020015050935083506000611bd48a87600001518b6118a463ffffffff16565b9050808015611bf45750611bf38a8a87600001516118a463ffffffff16565b5b15611bff5750611c22565b801515611c13576001820392508250611c1c565b60018201935083505b506119b2565b5050505b9550959350505050565b6040518060800160405280600063ffffffff168152602001600060060b8152602001600073ffffffffffffffffffffffffffffffffffffffff16815260200160001515815260200150905661205c565b600060608284031215611c91578081fd5b8190505b92915050565b6000600060208385031215611cae578182fd5b823567ffffffffffffffff80821115611cc5578384fd5b818501915085601f8301121515611cda578384fd5b813581811115611ce8578485fd5b866020606083028501011115611cfc578485fd5b6020830194508093505050505b9250929050565b6000600060208385031215611d23578182fd5b823567ffffffffffffffff80821115611d3a578384fd5b818501915085601f8301121515611d4f578384fd5b813581811115611d5d578485fd5b866020602083028501011115611d71578485fd5b6020830194508093505050505b9250929050565b600060208284031215611d96578081fd5b81358060020b81141515611da8578182fd5b809150505b92915050565b600060608284031215611dc4578081fd5b611dce8383611c80565b90505b92915050565b600060608284031215611de8578081fd5b611df28383611c80565b90505b92915050565b600060208284031215611e0c578081fd5b81356fffffffffffffffffffffffffffffffff811681141515611e2d578182fd5b809150505b92915050565b600060208284031215611e49578081fd5b813561ffff811681141515611e5c578182fd5b809150505b92915050565b600060208284031215611e78578081fd5b813590505b92915050565b600060208284031215611e94578081fd5b813563ffffffff811681141515611ea9578182fd5b809150505b92915050565b6000604082016040835280855180835260608501915060209250828701845b82811015611ef857815160060b8452848401935084820191505b600181019050611ed3565b5050508381038285015280855180835283830191508387019250845b81811015611f4c5773ffffffffffffffffffffffffffffffffffffffff8451168352848301925084840193505b600181019050611f14565b50508093505050505b9392505050565b60006020820190508260020b82525b92915050565b600060208252601360208301527f616c726561647920696e697469616c697a65640000000000000000000000000060408301526060820190505b919050565b60006020820190506fffffffffffffffffffffffffffffffff831682525b92915050565b600060208201905061ffff831682525b92915050565b60006020820190508282525b92915050565b600060208201905063ffffffff831682525b92915050565b600060808201905063ffffffff861682528460060b602083015273ffffffffffffffffffffffffffffffffffffffff8416604083015282151560608301525b95945050505050565bfea26469706673582212206ab49403ce7dfad70ef560d6b6c3c601e4195b53ae2bdb5bdaae3602dc2cdf9364736f6c63430007060033",
  "linkReferences": {},
  "deployedLinkReferences": {}
}