{
  "_format": "hh-sol-artifact-1",
  "contractName": "SecondsOutsideTest",
  "sourceName": "contracts/uniswap/uniswap-v3-core/contracts/test/SecondsOutsideTest.sol",
  "abi": [
    {
      "inputs": [
        {
          "internalType": "int24",
          "name": "tick",
          "type": "int24"
        },
        {
          "internalType": "int24",
          "name": "tickSpacing",
          "type": "int24"
        }
      ],
      "name": "clear",
      "outputs": [],
      "stateMutability": "nonpayable",
      "type": "function"
    },
    {
      "inputs": [
        {
          "internalType": "int24",
          "name": "tick",
          "type": "int24"
        },
        {
          "internalType": "int24",
          "name": "tickSpacing",
          "type": "int24"
        },
        {
          "internalType": "uint32",
          "name": "time",
          "type": "uint32"
        }
      ],
      "name": "cross",
      "outputs": [],
      "stateMutability": "nonpayable",
      "type": "function"
    },
    {
      "inputs": [
        {
          "internalType": "int24",
          "name": "tick",
          "type": "int24"
        },
        {
          "internalType": "int24",
          "name": "tickSpacing",
          "type": "int24"
        }
      ],
      "name": "get",
      "outputs": [
        {
          "internalType": "uint32",
          "name": "",
          "type": "uint32"
        }
      ],
      "stateMutability": "view",
      "type": "function"
    },
    {
      "inputs": [
        {
          "internalType": "int24",
          "name": "tick",
          "type": "int24"
        },
        {
          "internalType": "int24",
          "name": "tickCurrent",
          "type": "int24"
        },
        {
          "internalType": "int24",
          "name": "tickSpacing",
          "type": "int24"
        },
        {
          "internalType": "uint32",
          "name": "time",
          "type": "uint32"
        }
      ],
      "name": "initialize",
      "outputs": [],
      "stateMutability": "nonpayable",
      "type": "function"
    },
    {
      "inputs": [
        {
          "internalType": "int24",
          "name": "tickLower",
          "type": "int24"
        },
        {
          "internalType": "int24",
          "name": "tickUpper",
          "type": "int24"
        },
        {
          "internalType": "int24",
          "name": "tickCurrent",
          "type": "int24"
        },
        {
          "internalType": "int24",
          "name": "tickSpacing",
          "type": "int24"
        },
        {
          "internalType": "uint32",
          "name": "time",
          "type": "uint32"
        }
      ],
      "name": "secondsInside",
      "outputs": [
        {
          "internalType": "uint32",
          "name": "",
          "type": "uint32"
        }
      ],
      "stateMutability": "view",
      "type": "function"
    },
    {
      "inputs": [
        {
          "internalType": "int24",
          "name": "",
          "type": "int24"
        }
      ],
      "name": "secondsOutside",
      "outputs": [
        {
          "internalType": "uint256",
          "name": "",
          "type": "uint256"
        }
      ],
      "stateMutability": "view",
      "type": "function"
    }
  ],
  "bytecode": "0x60806040523480156100115760006000fd5b50610017565b61064d806100266000396000f3fe60806040523480156100115760006000fd5b50600436106100775760003560e01c8063a757e4fd11610051578063a757e4fd14610167578063d047b9f4146101ad578063f3feca9e1461023057610077565b806323472a3d1461007d578063303a337e146100bc5780639bb4f56f1461011857610077565b60006000fd5b6100ba600480360360408110156100945760006000fd5b81019080803560020b9060200190929190803560020b9060200190929190505050610289565b005b610116600480360360808110156100d35760006000fd5b81019080803560020b9060200190929190803560020b9060200190929190803560020b9060200190929190803563ffffffff1690602001909291905050506102a7565b005b6101656004803603606081101561012f5760006000fd5b81019080803560020b9060200190929190803560020b9060200190929190803563ffffffff1690602001909291905050506102cb565b005b6101976004803603602081101561017e5760006000fd5b81019080803560020b90602001909291905050506102ec565b6040518082815260200191505060405180910390f35b610214600480360360a08110156101c45760006000fd5b81019080803560020b9060200190929190803560020b9060200190929190803560020b9060200190929190803560020b9060200190929190803563ffffffff169060200190929190505050610307565b604051808263ffffffff16815260200191505060405180910390f35b61026d600480360360408110156102475760006000fd5b81019080803560020b9060200190929190803560020b9060200190929190505050610338565b604051808263ffffffff16815260200191505060405180910390f35b6102a2828260006000506103609092919063ffffffff16565b5b5050565b6102c48484848460006000506103bb90949392919063ffffffff16565b5b50505050565b6102e68383836000600050610423909392919063ffffffff16565b5b505050565b60006000506020528060005260406000206000915090505481565b6000610328868686868660006000506104b79095949392919063ffffffff16565b905061032f565b95945050505050565b6000610353838360006000506105589092919063ffffffff16565b905061035a565b92915050565b6000600061037484846105ad63ffffffff16565b915091508060ff1663ffffffff63ffffffff16901b198560008460020b60020b8152602001908152602001600020600082828250541692505081909090555050505b505050565b8260020b8460020b13151561041b57600060006103de86856105ad63ffffffff16565b915091508060ff168363ffffffff16901b8760008460020b60020b8152602001908152602001600020600082828250541792505081909090555050505b5b5050505050565b6000600061043785856105ad63ffffffff16565b9150915060008660008460020b60020b815260200190815260200160002060005054905060008260ff1682901c9050600081860390508360ff168163ffffffff16901b8460ff168363ffffffff16901b8418178960008760020b60020b815260200190815260200160002060005081909090555050505050505b50505050565b600060008660020b8560020b1215156104e4576104db88888661055863ffffffff16565b905080506104fc565b6104f588888661055863ffffffff16565b8303905080505b60008660020b8660020b12156105265761051d89888761055863ffffffff16565b9050805061053e565b61053789888761055863ffffffff16565b8403905080505b80828503039250505061054e5650505b9695505050505050565b60006000600061056e85856105ad63ffffffff16565b9150915060008660008460020b60020b81526020019081526020016000206000505490508160ff1681901c93505050506105a6565050505b9392505050565b6000600060008360020b8560020b8115156105c457fe5b0760020b1415156105d55760006000fd5b60008360020b8560020b8115156105e857fe5b05905060038160020b901d92508250602060088260020b81151561060857fe5b070291508150505b925092905056fea2646970667358221220abc399b77a0f0b3fe74c0c46cfc60615772c081aac7b1438631bf2c6df59a60164736f6c63430007060033",
  "linkReferences": {},
  "deployedLinkReferences": {}
}