{
  "_format": "hh-sol-artifact-1",
  "contractName": "ProtocolLock",
  "sourceName": "contracts/core/utils/ProtocolLock.sol",
  "abi": [
    {
      "inputs": [
        {
          "internalType": "contract IGovernor",
          "name": "_governor",
          "type": "address"
        }
      ],
      "stateMutability": "nonpayable",
      "type": "constructor"
    },
    {
      "anonymous": false,
      "inputs": [
        {
          "indexed": true,
          "internalType": "address",
          "name": "caller",
          "type": "address"
        }
      ],
      "name": "CallerAuthorized",
      "type": "event"
    },
    {
      "anonymous": false,
      "inputs": [
        {
          "indexed": true,
          "internalType": "address",
          "name": "caller",
          "type": "address"
        }
      ],
      "name": "CallerUnauthorized",
      "type": "event"
    },
    {
      "inputs": [
        {
          "internalType": "address",
          "name": "caller",
          "type": "address"
        }
      ],
      "name": "authorizeCaller",
      "outputs": [],
      "stateMutability": "nonpayable",
      "type": "function"
    },
    {
      "inputs": [],
      "name": "enter",
      "outputs": [],
      "stateMutability": "nonpayable",
      "type": "function"
    },
    {
      "inputs": [],
      "name": "exit",
      "outputs": [],
      "stateMutability": "nonpayable",
      "type": "function"
    },
    {
      "inputs": [],
      "name": "governor",
      "outputs": [
        {
          "internalType": "contract IGovernor",
          "name": "",
          "type": "address"
        }
      ],
      "stateMutability": "view",
      "type": "function"
    },
    {
      "inputs": [
        {
          "internalType": "address",
          "name": "caller",
          "type": "address"
        }
      ],
      "name": "unauthorizeCaller",
      "outputs": [],
      "stateMutability": "nonpayable",
      "type": "function"
    }
  ],
  "bytecode": "0x6080604052600160025534801561001557600080fd5b5060405161076c38038061076c8339818101604052602081101561003857600080fd5b8101908080519060200190929190505050806000806101000a81548173ffffffffffffffffffffffffffffffffffffffff021916908373ffffffffffffffffffffffffffffffffffffffff160217905550506106d3806100996000396000f3fe608060405234801561001057600080fd5b50600436106100675760003560e01c80634ac8c5ae116100505780634ac8c5ae146100e4578063e97dcb6214610128578063e9fad8ee1461013257610067565b80630c340a241461006c5780632c388d5d146100a0575b600080fd5b61007461013c565b604051808273ffffffffffffffffffffffffffffffffffffffff16815260200191505060405180910390f35b6100e2600480360360208110156100b657600080fd5b81019080803573ffffffffffffffffffffffffffffffffffffffff169060200190929190505050610160565b005b610126600480360360208110156100fa57600080fd5b81019080803573ffffffffffffffffffffffffffffffffffffffff1690602001909291905050506102be565b005b61013061041d565b005b61013a61055d565b005b60008054906101000a900473ffffffffffffffffffffffffffffffffffffffff1681565b60008054906101000a900473ffffffffffffffffffffffffffffffffffffffff1673ffffffffffffffffffffffffffffffffffffffff163373ffffffffffffffffffffffffffffffffffffffff1614610221576040517f08c379a000000000000000000000000000000000000000000000000000000000815260040180806020018281038252601c8152602001807f50726f746f636f6c4c6f636b3a204f6e6c7920476f7665726e6f722e0000000081525060200191505060405180910390fd5b60018060008373ffffffffffffffffffffffffffffffffffffffff1673ffffffffffffffffffffffffffffffffffffffff16815260200190815260200160002060006101000a81548160ff0219169083151502179055508073ffffffffffffffffffffffffffffffffffffffff167f6acfd92212f0ec670af78f8ba2273e4a85ac17023475650c25be0440602bff2d60405160405180910390a250565b60008054906101000a900473ffffffffffffffffffffffffffffffffffffffff1673ffffffffffffffffffffffffffffffffffffffff163373ffffffffffffffffffffffffffffffffffffffff161461037f576040517f08c379a000000000000000000000000000000000000000000000000000000000815260040180806020018281038252601c8152602001807f50726f746f636f6c4c6f636b3a204f6e6c7920476f7665726e6f722e0000000081525060200191505060405180910390fd5b6000600160008373ffffffffffffffffffffffffffffffffffffffff1673ffffffffffffffffffffffffffffffffffffffff16815260200190815260200160002060006101000a81548160ff0219169083151502179055508073ffffffffffffffffffffffffffffffffffffffff167f37967118b05f7af84a44112f7e4b59ab8aa3a73cebb4154828b43b934224522a60405160405180910390a250565b600160003373ffffffffffffffffffffffffffffffffffffffff1673ffffffffffffffffffffffffffffffffffffffff16815260200190815260200160002060009054906101000a900460ff166104dc576040517f08c379a000000000000000000000000000000000000000000000000000000000815260040180806020018281038252601d8152602001807f50726f746f636f6c4c6f636b3a204e6f7420417574686f72697a65642e00000081525060200191505060405180910390fd5b600280541415610554576040517f08c379a000000000000000000000000000000000000000000000000000000000815260040180806020018281038252601d8152602001807f50726f746f636f6c4c6f636b3a205265656e7472616e742063616c6c2e00000081525060200191505060405180910390fd5b60028081905550565b600160003373ffffffffffffffffffffffffffffffffffffffff1673ffffffffffffffffffffffffffffffffffffffff16815260200190815260200160002060009054906101000a900460ff1661061c576040517f08c379a000000000000000000000000000000000000000000000000000000000815260040180806020018281038252601d8152602001807f50726f746f636f6c4c6f636b3a204e6f7420417574686f72697a65642e00000081525060200191505060405180910390fd5b6002805414610693576040517f08c379a000000000000000000000000000000000000000000000000000000000815260040180806020018281038252601e8152602001807f50726f746f636f6c4c6f636b3a205265656e7472616e74206572726f722e000081525060200191505060405180910390fd5b600160028190555056fea264697066735822122059471eae1cbab9493f4b2b4e1f15579066affced5c9a1caf73c63a6ef1a9277a64736f6c63430007040033",
  "linkReferences": {},
  "deployedLinkReferences": {}
}