{
  "_format": "hh-sol-artifact-1",
  "contractName": "Quoter",
  "sourceName": "contracts/uniswap/uniswap-v3-periphery/contracts/lens/Quoter.sol",
  "abi": [
    {
      "inputs": [
        {
          "internalType": "address",
          "name": "_factory",
          "type": "address"
        },
        {
          "internalType": "address",
          "name": "_WETH9",
          "type": "address"
        }
      ],
      "stateMutability": "nonpayable",
      "type": "constructor"
    },
    {
      "inputs": [],
      "name": "WETH9",
      "outputs": [
        {
          "internalType": "address",
          "name": "",
          "type": "address"
        }
      ],
      "stateMutability": "view",
      "type": "function"
    },
    {
      "inputs": [],
      "name": "factory",
      "outputs": [
        {
          "internalType": "address",
          "name": "",
          "type": "address"
        }
      ],
      "stateMutability": "view",
      "type": "function"
    },
    {
      "inputs": [
        {
          "internalType": "bytes",
          "name": "path",
          "type": "bytes"
        },
        {
          "internalType": "uint256",
          "name": "amountIn",
          "type": "uint256"
        }
      ],
      "name": "quoteExactInput",
      "outputs": [
        {
          "internalType": "uint256",
          "name": "amountOut",
          "type": "uint256"
        }
      ],
      "stateMutability": "nonpayable",
      "type": "function"
    },
    {
      "inputs": [
        {
          "internalType": "address",
          "name": "tokenIn",
          "type": "address"
        },
        {
          "internalType": "address",
          "name": "tokenOut",
          "type": "address"
        },
        {
          "internalType": "uint24",
          "name": "fee",
          "type": "uint24"
        },
        {
          "internalType": "uint256",
          "name": "amountIn",
          "type": "uint256"
        },
        {
          "internalType": "uint160",
          "name": "sqrtPriceLimitX96",
          "type": "uint160"
        }
      ],
      "name": "quoteExactInputSingle",
      "outputs": [
        {
          "internalType": "uint256",
          "name": "amountOut",
          "type": "uint256"
        }
      ],
      "stateMutability": "nonpayable",
      "type": "function"
    },
    {
      "inputs": [
        {
          "internalType": "bytes",
          "name": "path",
          "type": "bytes"
        },
        {
          "internalType": "uint256",
          "name": "amountOut",
          "type": "uint256"
        }
      ],
      "name": "quoteExactOutput",
      "outputs": [
        {
          "internalType": "uint256",
          "name": "amountIn",
          "type": "uint256"
        }
      ],
      "stateMutability": "nonpayable",
      "type": "function"
    },
    {
      "inputs": [
        {
          "internalType": "address",
          "name": "tokenIn",
          "type": "address"
        },
        {
          "internalType": "address",
          "name": "tokenOut",
          "type": "address"
        },
        {
          "internalType": "uint24",
          "name": "fee",
          "type": "uint24"
        },
        {
          "internalType": "uint256",
          "name": "amountOut",
          "type": "uint256"
        },
        {
          "internalType": "uint160",
          "name": "sqrtPriceLimitX96",
          "type": "uint160"
        }
      ],
      "name": "quoteExactOutputSingle",
      "outputs": [
        {
          "internalType": "uint256",
          "name": "amountIn",
          "type": "uint256"
        }
      ],
      "stateMutability": "nonpayable",
      "type": "function"
    },
    {
      "inputs": [
        {
          "internalType": "int256",
          "name": "amount0Delta",
          "type": "int256"
        },
        {
          "internalType": "int256",
          "name": "amount1Delta",
          "type": "int256"
        },
        {
          "internalType": "bytes",
          "name": "path",
          "type": "bytes"
        }
      ],
      "name": "uniswapV3SwapCallback",
      "outputs": [],
      "stateMutability": "view",
      "type": "function"
    }
  ],
  "bytecode": "0x60c06040523480156100115760006000fd5b506040516200169a3803806200169a833981810160405281019061003591906100e0565b5b81815b8173ffffffffffffffffffffffffffffffffffffffff1660808173ffffffffffffffffffffffffffffffffffffffff1660601b815260140150508073ffffffffffffffffffffffffffffffffffffffff1660a08173ffffffffffffffffffffffffffffffffffffffff1660601b815260140150505b50505b505061011556610114565b6000815190506001600160a01b038116811415156100da5760006000fd5b5b919050565b60006000604083850312156100f3578182fd5b6100fc836100bc565b915061010a602084016100bc565b90505b9250929050565b5b60805160601c60a05160601c61155162000149600039806103f552508061041952806106ad528061083952506115516000f3fe60806040523480156100115760006000fd5b50600436106100825760003560e01c8063c45a01551161005c578063c45a015514610106578063cdca175314610124578063f7729d4314610154578063fa461e331461018457610082565b80632f80bb1d1461008857806330d07f21146100b85780634aa4a4fc146100e857610082565b60006000fd5b6100a2600480360381019061009d919061114b565b6101a0565b6040516100af919061143a565b60405180910390f35b6100d260048036038101906100cd91906110d2565b610288565b6040516100df919061143a565b60405180910390f35b6100f06103f3565b6040516100fd9190611363565b60405180910390f35b61010e610417565b60405161011b9190611363565b60405180910390f35b61013e6004803603810190610139919061114b565b61043b565b60405161014b919061143a565b60405180910390f35b61016e600480360381019061016991906110d2565b610523565b60405161017b919061143a565b60405180910390f35b61019e600480360381019061019991906111b8565b61068b565b005b60005b6001156102815760006101bd8461078b909063ffffffff16565b90506000600060006101d6876107ab909063ffffffff16565b925092509250610248828483898773ffffffffffffffffffffffffffffffffffffffff168773ffffffffffffffffffffffffffffffffffffffff161061023357600173fffd8963efd1fc6a506488495d951d5263988d260361023d565b60016401000276a3015b61028863ffffffff16565b95508550831561026c5761026387610804909063ffffffff16565b96508650610278565b85945050505050610282565b505050506101a3565b5b92915050565b600060008573ffffffffffffffffffffffffffffffffffffffff168773ffffffffffffffffffffffffffffffffffffffff161090506102ce87878761083263ffffffff16565b73ffffffffffffffffffffffffffffffffffffffff1663128acb0830836102fc88610882909063ffffffff16565b600003878b8b8e604051602001610315939291906112f2565b6040516020818303038152906040526040518663ffffffff1660e01b815260040161034495949392919061138b565b604060405180830381600087803b15801561035f5760006000fd5b505af192505050801561039057506040513d601f19601f8201168201806040525081019061038d9190611192565b60015b6103e5575b3d80600081146103c1576040519150601f19603f3d011682016040523d82523d6000602084013e6103c6565b606091505b506103d6816108be63ffffffff16565b925050506103ea56505b6103e8565b50505b505b95945050505050565b7f000000000000000000000000000000000000000000000000000000000000000081565b7f000000000000000000000000000000000000000000000000000000000000000081565b60005b60011561051c5760006104588461078b909063ffffffff16565b9050600060006000610471876107ab909063ffffffff16565b9250925092506104e3838383898673ffffffffffffffffffffffffffffffffffffffff168873ffffffffffffffffffffffffffffffffffffffff16106104ce57600173fffd8963efd1fc6a506488495d951d5263988d26036104d8565b60016401000276a3015b61052363ffffffff16565b955085508315610507576104fe87610804909063ffffffff16565b96508650610513565b8594505050505061051d565b5050505061043e565b5b92915050565b600060008573ffffffffffffffffffffffffffffffffffffffff168773ffffffffffffffffffffffffffffffffffffffff1610905061056987878761083263ffffffff16565b73ffffffffffffffffffffffffffffffffffffffff1663128acb08308361059788610882909063ffffffff16565b878c8b8d6040516020016105ad939291906112f2565b6040516020818303038152906040526040518663ffffffff1660e01b81526004016105dc95949392919061138b565b604060405180830381600087803b1580156105f75760006000fd5b505af192505050801561062857506040513d601f19601f820116820180604052508101906106259190611192565b60015b61067d575b3d8060008114610659576040519150601f19603f3d011682016040523d82523d6000602084013e61065e565b606091505b5061066e816108be63ffffffff16565b9250505061068256505b610680565b50505b505b95945050505050565b6000600060006106a2846107ab909063ffffffff16565b9250925092506106da7f000000000000000000000000000000000000000000000000000000000000000084848461098663ffffffff16565b5060006000600060008913610722578573ffffffffffffffffffffffffffffffffffffffff168573ffffffffffffffffffffffffffffffffffffffff1610888a600003610757565b8473ffffffffffffffffffffffffffffffffffffffff168673ffffffffffffffffffffffffffffffffffffffff161089896000035b925092509250821561077357604051818152602081fd5061077f565b604051828152602081fd505b5050505050505b505050565b600060036014016014600360140101018251101590506107a6565b919050565b6000600060006107c56000856109b790919063ffffffff16565b925082506107dd601485610ae090919063ffffffff16565b905080506107f86003601401856109b790919063ffffffff16565b915081505b9193909250565b60606108266003601401600360140184510384610bfa9092919063ffffffff16565b905061082d565b919050565b60006108747f0000000000000000000000000000000000000000000000000000000000000000610869868686610dfa63ffffffff16565b610e9e63ffffffff16565b905061087b565b9392505050565b60007f8000000000000000000000000000000000000000000000000000000000000000821015156108b35760006000fd5b81905080505b919050565b60006020825114151561096657604482511015610910576040517f08c379a0000000000000000000000000000000000000000000000000000000008152600401610907906113fb565b60405180910390fd5b6004820191508180602001905181019061092a9190611208565b6040517f08c379a000000000000000000000000000000000000000000000000000000000815260040161095d91906113df565b60405180910390fd5b8180602001905181019061097a9190611289565b9050610981565b919050565b60006109a88561099d868686610dfa63ffffffff16565b610fca63ffffffff16565b90506109af565b949350505050565b6000816014830110151515610a37576040517f08c379a00000000000000000000000000000000000000000000000000000000081526004018080602001828103825260128152602001807f746f416464726573735f6f766572666c6f77000000000000000000000000000081526020015060200191505060405180910390fd5b60148201835110151515610ab6576040517f08c379a00000000000000000000000000000000000000000000000000000000081526004018080602001828103825260158152602001807f746f416464726573735f6f75744f66426f756e6473000000000000000000000081526020015060200191505060405180910390fd5b60006c010000000000000000000000008360208601015104905080915050610ada56505b92915050565b6000816003830110151515610b60576040517f08c379a00000000000000000000000000000000000000000000000000000000081526004018080602001828103825260118152602001807f746f55696e7432345f6f766572666c6f7700000000000000000000000000000081526020015060200191505060405180910390fd5b60038201835110151515610bdf576040517f08c379a00000000000000000000000000000000000000000000000000000000081526004018080602001828103825260148152602001807f746f55696e7432345f6f75744f66426f756e647300000000000000000000000081526020015060200191505060405180910390fd5b600082600385010151905080915050610bf456505b92915050565b606081601f830110151515610c7a576040517f08c379a000000000000000000000000000000000000000000000000000000000815260040180806020018281038252600e8152602001807f736c6963655f6f766572666c6f7700000000000000000000000000000000000081526020015060200191505060405180910390fd5b8282840110151515610cf7576040517f08c379a000000000000000000000000000000000000000000000000000000000815260040180806020018281038252600e8152602001807f736c6963655f6f766572666c6f7700000000000000000000000000000000000081526020015060200191505060405180910390fd5b818301845110151515610d75576040517f08c379a00000000000000000000000000000000000000000000000000000000081526004018080602001828103825260118152602001807f736c6963655f6f75744f66426f756e647300000000000000000000000000000081526020015060200191505060405180910390fd5b6060821560008114610d965760405191506000825260208201604052610de8565b6040519150601f8416801560200281840101858101878315602002848b0101015b81831015610dd557805183525b602083019250602081019050610db7565b5050858452601f19601f82011660405250505b5080915050610df356505b9392505050565b610e02611022565b8273ffffffffffffffffffffffffffffffffffffffff168473ffffffffffffffffffffffffffffffffffffffff161115610e4157828480945081955050505b60405180606001604052808573ffffffffffffffffffffffffffffffffffffffff1681526020018473ffffffffffffffffffffffffffffffffffffffff1681526020018362ffffff168152602001509050610e97565b9392505050565b6000816020015173ffffffffffffffffffffffffffffffffffffffff16826000015173ffffffffffffffffffffffffffffffffffffffff16101515610ee35760006000fd5b8273ffffffffffffffffffffffffffffffffffffffff16631698ee828360000151846020015185604001516040518463ffffffff1660e01b8152600401808473ffffffffffffffffffffffffffffffffffffffff1681526020018373ffffffffffffffffffffffffffffffffffffffff1681526020018262ffffff168152602001935050505060206040518083038186803b158015610f825760006000fd5b505afa158015610f97573d600060003e3d6000fd5b505050506040513d6020811015610fae5760006000fd5b8101908080519060200190929190505050905080505b92915050565b6000610fdc8383610e9e63ffffffff16565b905080508073ffffffffffffffffffffffffffffffffffffffff163373ffffffffffffffffffffffffffffffffffffffff1614151561101b5760006000fd5b5b92915050565b6040518060600160405280600073ffffffffffffffffffffffffffffffffffffffff168152602001600073ffffffffffffffffffffffffffffffffffffffff168152602001600062ffffff16815260200150905661151a565b600082601f830112151561108d578081fd5b81356110a061109b82611477565b61144c565b8181528460208386010111156110b4578283fd5b81602085016020830137826020838301015280925050505b92915050565b6000600060006000600060a086880312156110eb578081fd5b85356110f6816114f1565b809550506020860135611108816114f1565b80945050604086013562ffffff811681141515611123578182fd5b8093505060608601359150608086013561113c816114f1565b809150505b9295509295909350565b600060006040838503121561115e578182fd5b823567ffffffffffffffff811115611174578283fd5b6111808582860161107b565b925050602083013590505b9250929050565b60006000604083850312156111a5578182fd5b82519150602083015190505b9250929050565b600060006000606084860312156111cd578283fd5b8335925060208401359150604084013567ffffffffffffffff8111156111f1578182fd5b6111fd8682870161107b565b9150505b9250925092565b600060208284031215611219578081fd5b815167ffffffffffffffff81111561122f578182fd5b808301905083601f8201121515611244578182fd5b805161125761125282611477565b61144c565b81815285602083850101111561126b578384fd5b61127c8260208301602086016114bc565b8093505050505b92915050565b60006020828403121561129a578081fd5b815190505b92915050565b600081518084526112bd8160208601602086016114bc565b60207fffffffffffffffffffffffffffffffffffffffffffffffffffffffffffffffe0601f8301168501019150505b92915050565b60007fffffffffffffffffffffffffffffffffffffffff000000000000000000000000808660601b1683527fffffff00000000000000000000000000000000000000000000000000000000008560e81b166014840152808460601b16601784015250602b820190505b949350505050565b600060208201905073ffffffffffffffffffffffffffffffffffffffff831682525b92915050565b600073ffffffffffffffffffffffffffffffffffffffff8088168352861515602084015285604084015280851660608401525060a060808301526113d260a08301846112a5565b90505b9695505050505050565b6000602082526113f260208301846112a5565b90505b92915050565b600060208252601060208301527f556e6578706563746564206572726f720000000000000000000000000000000060408301526060820190505b919050565b60006020820190508282525b92915050565b6000604051905081810181811067ffffffffffffffff8211171561146c57fe5b80604052505b919050565b600067ffffffffffffffff82111561148b57fe5b60207fffffffffffffffffffffffffffffffffffffffffffffffffffffffffffffffe0601f8401160190505b919050565b60005b838110156114db5780820151818401525b6020810190506114bf565b838111156114ea576000848401525b505b505050565b73ffffffffffffffffffffffffffffffffffffffff8116811415156115165760006000fd5b5b50565bfea26469706673582212205c22401e8b824cf7a5d8e66c46e6ca96cc5495ae8e65e9fbcd5030905ba1661164736f6c63430007060033",
  "linkReferences": {},
  "deployedLinkReferences": {}
}