{
  "_format": "hh-sol-artifact-1",
  "contractName": "MockTimeSwapRouter",
  "sourceName": "contracts/uniswap/uniswap-v3-periphery/contracts/test/MockTimeSwapRouter.sol",
  "abi": [
    {
      "inputs": [
        {
          "internalType": "address",
          "name": "_factory",
          "type": "address"
        },
        {
          "internalType": "address",
          "name": "_WETH9",
          "type": "address"
        }
      ],
      "stateMutability": "nonpayable",
      "type": "constructor"
    },
    {
      "inputs": [],
      "name": "WETH9",
      "outputs": [
        {
          "internalType": "address",
          "name": "",
          "type": "address"
        }
      ],
      "stateMutability": "view",
      "type": "function"
    },
    {
      "inputs": [
        {
          "components": [
            {
              "internalType": "bytes",
              "name": "path",
              "type": "bytes"
            },
            {
              "internalType": "address",
              "name": "recipient",
              "type": "address"
            },
            {
              "internalType": "uint256",
              "name": "deadline",
              "type": "uint256"
            },
            {
              "internalType": "uint256",
              "name": "amountIn",
              "type": "uint256"
            },
            {
              "internalType": "uint256",
              "name": "amountOutMinimum",
              "type": "uint256"
            }
          ],
          "internalType": "struct ISwapRouter.ExactInputParams",
          "name": "params",
          "type": "tuple"
        }
      ],
      "name": "exactInput",
      "outputs": [
        {
          "internalType": "uint256",
          "name": "amountOut",
          "type": "uint256"
        }
      ],
      "stateMutability": "payable",
      "type": "function"
    },
    {
      "inputs": [
        {
          "components": [
            {
              "internalType": "address",
              "name": "tokenIn",
              "type": "address"
            },
            {
              "internalType": "address",
              "name": "tokenOut",
              "type": "address"
            },
            {
              "internalType": "uint24",
              "name": "fee",
              "type": "uint24"
            },
            {
              "internalType": "address",
              "name": "recipient",
              "type": "address"
            },
            {
              "internalType": "uint256",
              "name": "deadline",
              "type": "uint256"
            },
            {
              "internalType": "uint256",
              "name": "amountIn",
              "type": "uint256"
            },
            {
              "internalType": "uint256",
              "name": "amountOutMinimum",
              "type": "uint256"
            },
            {
              "internalType": "uint160",
              "name": "sqrtPriceLimitX96",
              "type": "uint160"
            }
          ],
          "internalType": "struct ISwapRouter.ExactInputSingleParams",
          "name": "params",
          "type": "tuple"
        }
      ],
      "name": "exactInputSingle",
      "outputs": [
        {
          "internalType": "uint256",
          "name": "amountOut",
          "type": "uint256"
        }
      ],
      "stateMutability": "payable",
      "type": "function"
    },
    {
      "inputs": [
        {
          "components": [
            {
              "internalType": "bytes",
              "name": "path",
              "type": "bytes"
            },
            {
              "internalType": "address",
              "name": "recipient",
              "type": "address"
            },
            {
              "internalType": "uint256",
              "name": "deadline",
              "type": "uint256"
            },
            {
              "internalType": "uint256",
              "name": "amountOut",
              "type": "uint256"
            },
            {
              "internalType": "uint256",
              "name": "amountInMaximum",
              "type": "uint256"
            }
          ],
          "internalType": "struct ISwapRouter.ExactOutputParams",
          "name": "params",
          "type": "tuple"
        }
      ],
      "name": "exactOutput",
      "outputs": [
        {
          "internalType": "uint256",
          "name": "amountIn",
          "type": "uint256"
        }
      ],
      "stateMutability": "payable",
      "type": "function"
    },
    {
      "inputs": [
        {
          "components": [
            {
              "internalType": "address",
              "name": "tokenIn",
              "type": "address"
            },
            {
              "internalType": "address",
              "name": "tokenOut",
              "type": "address"
            },
            {
              "internalType": "uint24",
              "name": "fee",
              "type": "uint24"
            },
            {
              "internalType": "address",
              "name": "recipient",
              "type": "address"
            },
            {
              "internalType": "uint256",
              "name": "deadline",
              "type": "uint256"
            },
            {
              "internalType": "uint256",
              "name": "amountOut",
              "type": "uint256"
            },
            {
              "internalType": "uint256",
              "name": "amountInMaximum",
              "type": "uint256"
            },
            {
              "internalType": "uint160",
              "name": "sqrtPriceLimitX96",
              "type": "uint160"
            }
          ],
          "internalType": "struct ISwapRouter.ExactOutputSingleParams",
          "name": "params",
          "type": "tuple"
        }
      ],
      "name": "exactOutputSingle",
      "outputs": [
        {
          "internalType": "uint256",
          "name": "amountIn",
          "type": "uint256"
        }
      ],
      "stateMutability": "payable",
      "type": "function"
    },
    {
      "inputs": [],
      "name": "factory",
      "outputs": [
        {
          "internalType": "address",
          "name": "",
          "type": "address"
        }
      ],
      "stateMutability": "view",
      "type": "function"
    },
    {
      "inputs": [
        {
          "internalType": "bytes[]",
          "name": "data",
          "type": "bytes[]"
        }
      ],
      "name": "multicall",
      "outputs": [
        {
          "internalType": "bytes[]",
          "name": "results",
          "type": "bytes[]"
        }
      ],
      "stateMutability": "payable",
      "type": "function"
    },
    {
      "inputs": [
        {
          "internalType": "address",
          "name": "token",
          "type": "address"
        },
        {
          "internalType": "uint256",
          "name": "value",
          "type": "uint256"
        },
        {
          "internalType": "uint256",
          "name": "deadline",
          "type": "uint256"
        },
        {
          "internalType": "uint8",
          "name": "v",
          "type": "uint8"
        },
        {
          "internalType": "bytes32",
          "name": "r",
          "type": "bytes32"
        },
        {
          "internalType": "bytes32",
          "name": "s",
          "type": "bytes32"
        }
      ],
      "name": "selfPermit",
      "outputs": [],
      "stateMutability": "payable",
      "type": "function"
    },
    {
      "inputs": [
        {
          "internalType": "address",
          "name": "token",
          "type": "address"
        },
        {
          "internalType": "uint256",
          "name": "nonce",
          "type": "uint256"
        },
        {
          "internalType": "uint256",
          "name": "expiry",
          "type": "uint256"
        },
        {
          "internalType": "uint8",
          "name": "v",
          "type": "uint8"
        },
        {
          "internalType": "bytes32",
          "name": "r",
          "type": "bytes32"
        },
        {
          "internalType": "bytes32",
          "name": "s",
          "type": "bytes32"
        }
      ],
      "name": "selfPermitAllowed",
      "outputs": [],
      "stateMutability": "payable",
      "type": "function"
    },
    {
      "inputs": [
        {
          "internalType": "address",
          "name": "token",
          "type": "address"
        },
        {
          "internalType": "uint256",
          "name": "nonce",
          "type": "uint256"
        },
        {
          "internalType": "uint256",
          "name": "expiry",
          "type": "uint256"
        },
        {
          "internalType": "uint8",
          "name": "v",
          "type": "uint8"
        },
        {
          "internalType": "bytes32",
          "name": "r",
          "type": "bytes32"
        },
        {
          "internalType": "bytes32",
          "name": "s",
          "type": "bytes32"
        }
      ],
      "name": "selfPermitAllowedIfNecessary",
      "outputs": [],
      "stateMutability": "payable",
      "type": "function"
    },
    {
      "inputs": [
        {
          "internalType": "address",
          "name": "token",
          "type": "address"
        },
        {
          "internalType": "uint256",
          "name": "value",
          "type": "uint256"
        },
        {
          "internalType": "uint256",
          "name": "deadline",
          "type": "uint256"
        },
        {
          "internalType": "uint8",
          "name": "v",
          "type": "uint8"
        },
        {
          "internalType": "bytes32",
          "name": "r",
          "type": "bytes32"
        },
        {
          "internalType": "bytes32",
          "name": "s",
          "type": "bytes32"
        }
      ],
      "name": "selfPermitIfNecessary",
      "outputs": [],
      "stateMutability": "payable",
      "type": "function"
    },
    {
      "inputs": [
        {
          "internalType": "uint256",
          "name": "_time",
          "type": "uint256"
        }
      ],
      "name": "setTime",
      "outputs": [],
      "stateMutability": "nonpayable",
      "type": "function"
    },
    {
      "inputs": [
        {
          "internalType": "address",
          "name": "token",
          "type": "address"
        },
        {
          "internalType": "uint256",
          "name": "amountMinimum",
          "type": "uint256"
        },
        {
          "internalType": "address",
          "name": "recipient",
          "type": "address"
        }
      ],
      "name": "sweepToken",
      "outputs": [],
      "stateMutability": "payable",
      "type": "function"
    },
    {
      "inputs": [
        {
          "internalType": "int256",
          "name": "amount0Delta",
          "type": "int256"
        },
        {
          "internalType": "int256",
          "name": "amount1Delta",
          "type": "int256"
        },
        {
          "internalType": "bytes",
          "name": "_data",
          "type": "bytes"
        }
      ],
      "name": "uniswapV3SwapCallback",
      "outputs": [],
      "stateMutability": "nonpayable",
      "type": "function"
    },
    {
      "inputs": [
        {
          "internalType": "uint256",
          "name": "amountMinimum",
          "type": "uint256"
        },
        {
          "internalType": "address",
          "name": "recipient",
          "type": "address"
        }
      ],
      "name": "unwrapWETH9",
      "outputs": [],
      "stateMutability": "payable",
      "type": "function"
    },
    {
      "stateMutability": "payable",
      "type": "receive"
    }
  ],
  "bytecode": "0x60c06040527fffffffffffffffffffffffffffffffffffffffffffffffffffffffffffffffff60006000509090553480156200003b5760006000fd5b50604051620034b2380380620034b2833981810160405281019062000061919062000115565b5b81815b81815b8173ffffffffffffffffffffffffffffffffffffffff1660808173ffffffffffffffffffffffffffffffffffffffff1660601b815260140150508073ffffffffffffffffffffffffffffffffffffffff1660a08173ffffffffffffffffffffffffffffffffffffffff1660601b815260140150505b50505b50505b50506200014f566200014e565b6000815190506001600160a01b038116811415156200010f5760006000fd5b5b919050565b600060006040838503121562000129578182fd5b6200013483620000f0565b91506200014460208401620000f0565b90505b9250929050565b5b60805160601c60a05160601c613312620001a06000398060f452806106a552806107fa528061089e5280611db95280611e1c5280611e9f525080610dfb528061147c5280611fdf52506133126000f3fe6080604052600436106100ec5760003560e01c8063c04b8d591161008a578063df2ab5bb11610059578063df2ab5bb14610373578063f28c04981461038f578063f3995c67146103bf578063fa461e33146103db576101bb565b8063c04b8d59146102cb578063c2e3140a146102fb578063c45a015514610317578063db3e219814610343576101bb565b806349404b7c116100c657806349404b7c146102375780634aa4a4fc14610253578063a4a78f0c1461027f578063ac9650d81461029b576101bb565b80633beb26c4146101c1578063414bf389146101eb5780634659a4941461021b576101bb565b366101bb575b7f000000000000000000000000000000000000000000000000000000000000000073ffffffffffffffffffffffffffffffffffffffff163373ffffffffffffffffffffffffffffffffffffffff161415156101b8576040517f08c379a00000000000000000000000000000000000000000000000000000000081526004018080602001828103825260098152602001807f4e6f74205745544839000000000000000000000000000000000000000000000081526020015060200191505060405180910390fd5b5b005b60006000fd5b3480156101ce5760006000fd5b506101e960048036038101906101e49190612e7f565b610405565b005b61020560048036038101906102009190612d02565b610415565b6040516102129190613188565b60405180910390f35b61023560048036038101906102309190612a47565b6105b9565b005b610251600480360381019061024c9190612e9b565b6106a1565b005b3480156102605760006000fd5b5061026961089c565b6040516102769190612fa2565b60405180910390f35b61029960048036038101906102949190612a47565b6108c0565b005b6102b560048036038101906102b09190612ab1565b6109c8565b6040516102c2919061301e565b60405180910390f35b6102e560048036038101906102e09190612c53565b610b5d565b6040516102f29190613188565b60405180910390f35b61031560048036038101906103109190612a47565b610d11565b005b3480156103245760006000fd5b5061032d610df9565b60405161033a9190612fa2565b60405180910390f35b61035d60048036038101906103589190612d6d565b610e1d565b60405161036a9190613188565b60405180910390f35b61038d60048036038101906103889190612a02565b611056565b005b6103a960048036038101906103a49190612d27565b6111a6565b6040516103b69190613188565b60405180910390f35b6103d960048036038101906103d49190612a47565b611366565b005b3480156103e85760006000fd5b5061040360048036038101906103fe9190612b4c565b611443565b005b8060016000508190909055505b50565b600081608001358061042b6115c863ffffffff16565b111515156104a4576040517f08c379a00000000000000000000000000000000000000000000000000000000081526004018080602001828103825260138152602001807f5472616e73616374696f6e20746f6f206f6c640000000000000000000000000081526020015060200191505060405180910390fd5b6105648360a001358460600160208101906104bf91906129db565b8560e00160208101906104d29190612e28565b60405180604001604052808860000160208101906104f091906129db565b8960400160208101906105039190612e4f565b8a602001602081019061051691906129db565b60405160200161052893929190612f19565b60405160208183030381529060405281526020013373ffffffffffffffffffffffffffffffffffffffff168152602001506115da63ffffffff16565b915081508260c0013582101515156105b1576040517f08c379a00000000000000000000000000000000000000000000000000000000081526004016105a890613100565b60405180910390fd5b5b5b50919050565b8573ffffffffffffffffffffffffffffffffffffffff16638fcbaf0c3330888860018989896040518963ffffffff1660e01b8152600401808973ffffffffffffffffffffffffffffffffffffffff1681526020018873ffffffffffffffffffffffffffffffffffffffff16815260200187815260200186815260200185151581526020018460ff168152602001836000191681526020018260001916815260200198505050505050505050600060405180830381600087803b15801561067f5760006000fd5b505af1158015610694573d600060003e3d6000fd5b505050505b505050505050565b60007f000000000000000000000000000000000000000000000000000000000000000073ffffffffffffffffffffffffffffffffffffffff166370a08231306040518263ffffffff1660e01b8152600401808273ffffffffffffffffffffffffffffffffffffffff16815260200191505060206040518083038186803b15801561072b5760006000fd5b505afa158015610740573d600060003e3d6000fd5b505050506040513d60208110156107575760006000fd5b8101908080519060200190929190505050905060008311156107ef578281101515156107ee576040517f08c379a00000000000000000000000000000000000000000000000000000000081526004018080602001828103825260128152602001807f496e73756666696369656e74205745544839000000000000000000000000000081526020015060200191505060405180910390fd5b5b6000811115610896577f000000000000000000000000000000000000000000000000000000000000000073ffffffffffffffffffffffffffffffffffffffff16632e1a7d4d826040518263ffffffff1660e01b815260040180828152602001915050600060405180830381600087803b15801561086c5760006000fd5b505af1158015610881573d600060003e3d6000fd5b50505050610895828261178763ffffffff16565b5b505b5050565b7f000000000000000000000000000000000000000000000000000000000000000081565b7fffffffffffffffffffffffffffffffffffffffffffffffffffffffffffffffff8673ffffffffffffffffffffffffffffffffffffffff1663dd62ed3e33306040518363ffffffff1660e01b8152600401808373ffffffffffffffffffffffffffffffffffffffff1681526020018273ffffffffffffffffffffffffffffffffffffffff1681526020019250505060206040518083038186803b1580156109675760006000fd5b505afa15801561097c573d600060003e3d6000fd5b505050506040513d60208110156109935760006000fd5b810190808051906020019092919050505010156109bf576109be8686868686866105b963ffffffff16565b5b5b505050505050565b60608282905067ffffffffffffffff811180156109e55760006000fd5b50604051908082528060200260200182016040528015610a1957816020015b6060815260200190600190039081610a045790505b50905080506000600090505b83839050811015610b5557600060003073ffffffffffffffffffffffffffffffffffffffff168686858181101515610a5957fe5b9050602002810190610a6b919061319a565b604051610a79929190612f8a565b600060405180830381855af49150503d8060008114610ab4576040519150601f19603f3d011682016040523d82523d6000602084013e610ab9565b606091505b5091509150811515610b2b57604481511015610ad55760006000fd5b60048101905080806020019051810190610aef9190612bd2565b6040517f08c379a0000000000000000000000000000000000000000000000000000000008152600401610b2291906130a5565b60405180910390fd5b808484815181101515610b3a57fe5b602002602001018190525050505b8080600101915050610a25565b505b92915050565b6000816040015180610b736115c863ffffffff16565b11151515610bec576040517f08c379a00000000000000000000000000000000000000000000000000000000081526004018080602001828103825260138152602001807f5472616e73616374696f6e20746f6f206f6c640000000000000000000000000081526020015060200191505060405180910390fd5b5b600115610cc0576000610c0b846000015161190d909063ffffffff16565b9050610c75846060015182610c24578560200151610c26565b305b60006040518060400160405280610c488a6000015161192d909063ffffffff16565b81526020013373ffffffffffffffffffffffffffffffffffffffff168152602001506115da63ffffffff16565b84606001909081815260200150508015610cab57610c9e8460000151611958909063ffffffff16565b8460000181905250610cba565b83606001519250825050610cc0565b50610bed565b82608001518210151515610d09576040517f08c379a0000000000000000000000000000000000000000000000000000000008152600401610d0090613100565b60405180910390fd5b5b5b50919050565b848673ffffffffffffffffffffffffffffffffffffffff1663dd62ed3e33306040518363ffffffff1660e01b8152600401808373ffffffffffffffffffffffffffffffffffffffff1681526020018273ffffffffffffffffffffffffffffffffffffffff1681526020019250505060206040518083038186803b158015610d985760006000fd5b505afa158015610dad573d600060003e3d6000fd5b505050506040513d6020811015610dc45760006000fd5b81019080805190602001909291905050501015610df057610def86868686868661136663ffffffff16565b5b5b505050505050565b7f000000000000000000000000000000000000000000000000000000000000000081565b6000816080013580610e336115c863ffffffff16565b11151515610eac576040517f08c379a00000000000000000000000000000000000000000000000000000000081526004018080602001828103825260138152602001807f5472616e73616374696f6e20746f6f206f6c640000000000000000000000000081526020015060200191505060405180910390fd5b60006000610f708560a00135866060016020810190610ecb91906129db565b8760e0016020810190610ede9190612e28565b60405180604001604052808a6020016020810190610efc91906129db565b8b6040016020810190610f0f9190612e4f565b8c6000016020810190610f2291906129db565b604051602001610f3493929190612f19565b60405160208183030381529060405281526020013373ffffffffffffffffffffffffffffffffffffffff1681526020015061198663ffffffff16565b91509150846020016020810190610f8791906129db565b73ffffffffffffffffffffffffffffffffffffffff16856000016020810190610fb091906129db565b73ffffffffffffffffffffffffffffffffffffffff1610610fd15780610fd3565b815b935083507fffffffffffffffffffffffffffffffffffffffffffffffffffffffffffffffff60006000508190909055508460c00135841115151561104c576040517f08c379a0000000000000000000000000000000000000000000000000000000008152600401611043906130c1565b60405180910390fd5b50505b5b50919050565b60008373ffffffffffffffffffffffffffffffffffffffff166370a08231306040518263ffffffff1660e01b8152600401808273ffffffffffffffffffffffffffffffffffffffff16815260200191505060206040518083038186803b1580156110c05760006000fd5b505afa1580156110d5573d600060003e3d6000fd5b505050506040513d60208110156110ec5760006000fd5b81019080805190602001909291905050509050600083111561118457828110151515611183576040517f08c379a00000000000000000000000000000000000000000000000000000000081526004018080602001828103825260128152602001807f496e73756666696369656e7420746f6b656e000000000000000000000000000081526020015060200191505060405180910390fd5b5b600081111561119f5761119e848383611b1f63ffffffff16565b5b505b505050565b60008160400135806111bc6115c863ffffffff16565b11151515611235576040517f08c379a00000000000000000000000000000000000000000000000000000000081526004018080602001828103825260138152602001807f5472616e73616374696f6e20746f6f206f6c640000000000000000000000000081526020015060200191505060405180910390fd5b6112dd836060013584602001602081019061125091906129db565b6000604051806040016040528088806000019061126d919061319a565b8080601f016020809104026020016040519081016040528093929190818152602001838380828437600081840152601f19601f8201169050808301925050505050505081526020013373ffffffffffffffffffffffffffffffffffffffff1681526020015061198663ffffffff16565b5050600060005054915081507fffffffffffffffffffffffffffffffffffffffffffffffffffffffffffffffff60006000508190909055508260800135821115151561135e576040517f08c379a0000000000000000000000000000000000000000000000000000000008152600401611355906130c1565b60405180910390fd5b5b5b50919050565b8573ffffffffffffffffffffffffffffffffffffffff1663d505accf333088888888886040518863ffffffff1660e01b8152600401808873ffffffffffffffffffffffffffffffffffffffff1681526020018773ffffffffffffffffffffffffffffffffffffffff1681526020018681526020018581526020018460ff1681526020018360001916815260200182600019168152602001975050505050505050600060405180830381600087803b1580156114215760006000fd5b505af1158015611436573d600060003e3d6000fd5b505050505b505050505050565b600082828101906114549190612d92565b90506000600060006114718460000151611d2b909063ffffffff16565b9250925092506114a97f0000000000000000000000000000000000000000000000000000000000000000848484611d8463ffffffff16565b506000600060008a136114eb578473ffffffffffffffffffffffffffffffffffffffff168473ffffffffffffffffffffffffffffffffffffffff16108961151c565b8373ffffffffffffffffffffffffffffffffffffffff168573ffffffffffffffffffffffffffffffffffffffff16108a5b9150915081156115415761153c8587602001513384611db563ffffffff16565b6115bb565b611556866000015161190d909063ffffffff16565b15611592576115708660000151611958909063ffffffff16565b866000018190525061158b813360008961198663ffffffff16565b50506115ba565b80600060005081909090555083945084506115b98587602001513384611db563ffffffff16565b5b5b5050505050505b50505050565b600060016000505490506115d7565b90565b60006000600060006115f78560000151611d2b909063ffffffff16565b92509250925060008273ffffffffffffffffffffffffffffffffffffffff168473ffffffffffffffffffffffffffffffffffffffff1610905060006000611645868686611fd863ffffffff16565b73ffffffffffffffffffffffffffffffffffffffff1663128acb088b856116738f612028909063ffffffff16565b60008e73ffffffffffffffffffffffffffffffffffffffff1614611697578d6116c4565b876116b957600173fffd8963efd1fc6a506488495d951d5263988d26036116c3565b60016401000276a3015b5b8d6040516020016116d5919061313f565b6040516020818303038152906040526040518663ffffffff1660e01b8152600401611704959493929190612fca565b604060405180830381600087803b15801561171f5760006000fd5b505af1158015611734573d600060003e3d6000fd5b505050506040513d601f19601f820116820180604052508101906117589190612b26565b91509150826117675781611769565b805b600003965050505050505061177f565050505050505b949350505050565b60008273ffffffffffffffffffffffffffffffffffffffff1682600067ffffffffffffffff811180156117ba5760006000fd5b506040519080825280601f01601f1916602001820160405280156117ed5781602001600182028036833780820191505090505b506040518082805190602001908083835b60208310151561182457805182525b6020820191506020810190506020830392506117fe565b6001836020036101000a03801982511681845116808217855250505050505090500191505060006040518083038185875af1925050503d8060008114611886576040519150601f19603f3d011682016040523d82523d6000602084013e61188b565b606091505b50509050801515611907576040517f08c379a00000000000000000000000000000000000000000000000000000000081526004018080602001828103825260038152602001807f535445000000000000000000000000000000000000000000000000000000000081526020015060200191505060405180910390fd5b505b5050565b60006003601401601460036014010101825110159050611928565b919050565b606061194c60006014600360140101846120649092919063ffffffff16565b9050611953565b919050565b606061197a60036014016003601401845103846120649092919063ffffffff16565b9050611981565b919050565b600060006000600060006119a58660000151611d2b909063ffffffff16565b92509250925060008373ffffffffffffffffffffffffffffffffffffffff168373ffffffffffffffffffffffffffffffffffffffff161090506119ef838584611fd863ffffffff16565b73ffffffffffffffffffffffffffffffffffffffff1663128acb088a83611a1d8e612028909063ffffffff16565b60000360008d73ffffffffffffffffffffffffffffffffffffffff1614611a44578c611a71565b85611a6657600173fffd8963efd1fc6a506488495d951d5263988d2603611a70565b60016401000276a3015b5b8c604051602001611a82919061313f565b6040516020818303038152906040526040518663ffffffff1660e01b8152600401611ab1959493929190612fca565b604060405180830381600087803b158015611acc5760006000fd5b505af1158015611ae1573d600060003e3d6000fd5b505050506040513d601f19601f82011682018060405250810190611b059190612b26565b9550955050505050611b1656505050505b94509492505050565b600060008473ffffffffffffffffffffffffffffffffffffffff1663a9059cbb60e01b8585604051602401808373ffffffffffffffffffffffffffffffffffffffff16815260200182815260200192505050604051602081830303815290604052907bffffffffffffffffffffffffffffffffffffffffffffffffffffffff19166020820180517bffffffffffffffffffffffffffffffffffffffffffffffffffffffff83818316178352505050506040518082805190602001908083835b602083101515611c0457805182525b602082019150602081019050602083039250611bde565b6001836020036101000a0380198251168184511680821785525050505050509050019150506000604051808303816000865af19150503d8060008114611c66576040519150601f19603f3d011682016040523d82523d6000602084013e611c6b565b606091505b5091509150818015611cac5750600081511480611cab5750808060200190516020811015611c995760006000fd5b81019080805190602001909291905050505b5b1515611d23576040517f08c379a00000000000000000000000000000000000000000000000000000000081526004018080602001828103825260028152602001807f535400000000000000000000000000000000000000000000000000000000000081526020015060200191505060405180910390fd5b50505b505050565b600060006000611d4560008561226490919063ffffffff16565b92508250611d5d60148561238d90919063ffffffff16565b90508050611d7860036014018561226490919063ffffffff16565b915081505b9193909250565b6000611da685611d9b8686866124a763ffffffff16565b61254b63ffffffff16565b9050611dad565b949350505050565b60007f000000000000000000000000000000000000000000000000000000000000000073ffffffffffffffffffffffffffffffffffffffff168573ffffffffffffffffffffffffffffffffffffffff16148015611e155750814791508110155b15611f72577f000000000000000000000000000000000000000000000000000000000000000073ffffffffffffffffffffffffffffffffffffffff1663d0e30db0826040518263ffffffff1660e01b81526004016000604051808303818588803b158015611e835760006000fd5b505af1158015611e98573d600060003e3d6000fd5b50505050507f000000000000000000000000000000000000000000000000000000000000000073ffffffffffffffffffffffffffffffffffffffff1663a9059cbb84846040518363ffffffff1660e01b8152600401808373ffffffffffffffffffffffffffffffffffffffff16815260200182815260200192505050602060405180830381600087803b158015611f2f5760006000fd5b505af1158015611f44573d600060003e3d6000fd5b505050506040513d6020811015611f5b5760006000fd5b810190808051906020019092919050505050611fd0565b3073ffffffffffffffffffffffffffffffffffffffff168473ffffffffffffffffffffffffffffffffffffffff161415611fbc57611fb7858484611b1f63ffffffff16565b611fcf565b611fce858585856125a363ffffffff16565b5b5b505b50505050565b600061201a7f000000000000000000000000000000000000000000000000000000000000000061200f8686866124a763ffffffff16565b6127ce63ffffffff16565b9050612021565b9392505050565b60007f8000000000000000000000000000000000000000000000000000000000000000821015156120595760006000fd5b81905080505b919050565b606081601f8301101515156120e4576040517f08c379a000000000000000000000000000000000000000000000000000000000815260040180806020018281038252600e8152602001807f736c6963655f6f766572666c6f7700000000000000000000000000000000000081526020015060200191505060405180910390fd5b8282840110151515612161576040517f08c379a000000000000000000000000000000000000000000000000000000000815260040180806020018281038252600e8152602001807f736c6963655f6f766572666c6f7700000000000000000000000000000000000081526020015060200191505060405180910390fd5b8183018451101515156121df576040517f08c379a00000000000000000000000000000000000000000000000000000000081526004018080602001828103825260118152602001807f736c6963655f6f75744f66426f756e647300000000000000000000000000000081526020015060200191505060405180910390fd5b60608215600081146122005760405191506000825260208201604052612252565b6040519150601f8416801560200281840101858101878315602002848b0101015b8183101561223f57805183525b602083019250602081019050612221565b5050858452601f19601f82011660405250505b508091505061225d56505b9392505050565b60008160148301101515156122e4576040517f08c379a00000000000000000000000000000000000000000000000000000000081526004018080602001828103825260128152602001807f746f416464726573735f6f766572666c6f77000000000000000000000000000081526020015060200191505060405180910390fd5b60148201835110151515612363576040517f08c379a00000000000000000000000000000000000000000000000000000000081526004018080602001828103825260158152602001807f746f416464726573735f6f75744f66426f756e6473000000000000000000000081526020015060200191505060405180910390fd5b60006c01000000000000000000000000836020860101510490508091505061238756505b92915050565b600081600383011015151561240d576040517f08c379a00000000000000000000000000000000000000000000000000000000081526004018080602001828103825260118152602001807f746f55696e7432345f6f766572666c6f7700000000000000000000000000000081526020015060200191505060405180910390fd5b6003820183511015151561248c576040517f08c379a00000000000000000000000000000000000000000000000000000000081526004018080602001828103825260148152602001807f746f55696e7432345f6f75744f66426f756e647300000000000000000000000081526020015060200191505060405180910390fd5b6000826003850101519050809150506124a156505b92915050565b6124af6128fa565b8273ffffffffffffffffffffffffffffffffffffffff168473ffffffffffffffffffffffffffffffffffffffff1611156124ee57828480945081955050505b60405180606001604052808573ffffffffffffffffffffffffffffffffffffffff1681526020018473ffffffffffffffffffffffffffffffffffffffff1681526020018362ffffff168152602001509050612544565b9392505050565b600061255d83836127ce63ffffffff16565b905080508073ffffffffffffffffffffffffffffffffffffffff163373ffffffffffffffffffffffffffffffffffffffff1614151561259c5760006000fd5b5b92915050565b600060008573ffffffffffffffffffffffffffffffffffffffff166323b872dd60e01b868686604051602401808473ffffffffffffffffffffffffffffffffffffffff1681526020018373ffffffffffffffffffffffffffffffffffffffff1681526020018281526020019350505050604051602081830303815290604052907bffffffffffffffffffffffffffffffffffffffffffffffffffffffff19166020820180517bffffffffffffffffffffffffffffffffffffffffffffffffffffffff83818316178352505050506040518082805190602001908083835b6020831015156126a657805182525b602082019150602081019050602083039250612680565b6001836020036101000a0380198251168184511680821785525050505050509050019150506000604051808303816000865af19150503d8060008114612708576040519150601f19603f3d011682016040523d82523d6000602084013e61270d565b606091505b509150915081801561274e575060008151148061274d575080806020019051602081101561273b5760006000fd5b81019080805190602001909291905050505b5b15156127c5576040517f08c379a00000000000000000000000000000000000000000000000000000000081526004018080602001828103825260038152602001807f535446000000000000000000000000000000000000000000000000000000000081526020015060200191505060405180910390fd5b50505b50505050565b6000816020015173ffffffffffffffffffffffffffffffffffffffff16826000015173ffffffffffffffffffffffffffffffffffffffff161015156128135760006000fd5b8273ffffffffffffffffffffffffffffffffffffffff16631698ee828360000151846020015185604001516040518463ffffffff1660e01b8152600401808473ffffffffffffffffffffffffffffffffffffffff1681526020018373ffffffffffffffffffffffffffffffffffffffff1681526020018262ffffff168152602001935050505060206040518083038186803b1580156128b25760006000fd5b505afa1580156128c7573d600060003e3d6000fd5b505050506040513d60208110156128de5760006000fd5b8101908080519060200190929190505050905080505b92915050565b6040518060600160405280600073ffffffffffffffffffffffffffffffffffffffff168152602001600073ffffffffffffffffffffffffffffffffffffffff168152602001600062ffffff1681526020015090566132db565b600081359050612962816132b2565b5b919050565b600082601f830112151561297a578081fd5b813561298d61298882613238565b61320d565b8181528460208386010111156129a1578283fd5b81602085016020830137826020838301015280925050505b92915050565b600061010082840312156129d1578081fd5b8190505b92915050565b6000602082840312156129ec578081fd5b81356129f7816132b2565b809150505b92915050565b60006000600060608486031215612a17578182fd5b8335612a22816132b2565b80935050602084013591506040840135612a3b816132b2565b809150505b9250925092565b60006000600060006000600060c08789031215612a62578182fd5b8635612a6d816132b2565b809650506020870135945060408701359350606087013560ff811681141515612a94578283fd5b809350506080870135915060a087013590505b9295509295509295565b6000600060208385031215612ac4578182fd5b823567ffffffffffffffff80821115612adb578384fd5b818501915085601f8301121515612af0578384fd5b813581811115612afe578485fd5b866020602083028501011115612b12578485fd5b6020830194508093505050505b9250929050565b6000600060408385031215612b39578182fd5b82519150602083015190505b9250929050565b600060006000600060608587031215612b63578384fd5b8435935060208501359250604085013567ffffffffffffffff80821115612b88578384fd5b818701915087601f8301121515612b9d578384fd5b813581811115612bab578485fd5b886020828501011115612bbc578485fd5b6020830194508093505050505b92959194509250565b600060208284031215612be3578081fd5b815167ffffffffffffffff811115612bf9578182fd5b808301905083601f8201121515612c0e578182fd5b8051612c21612c1c82613238565b61320d565b818152856020838501011115612c35578384fd5b612c4682602083016020860161327d565b8093505050505b92915050565b600060208284031215612c64578081fd5b813567ffffffffffffffff80821115612c7b578283fd5b818401915060a08286031215612c8f578283fd5b60405160a081018181108382111715612ca457fe5b8060405250823582811115612cb7578485fd5b612cc387828601612968565b825250612cd260208401612953565b60208201526040830135604082015260608301356060820152608083013560808201528093505050505b92915050565b60006101008284031215612d14578081fd5b612d1e83836129bf565b90505b92915050565b600060208284031215612d38578081fd5b813567ffffffffffffffff811115612d4e578182fd5b808301905060a08185031215612d62578182fd5b809150505b92915050565b60006101008284031215612d7f578081fd5b612d8983836129bf565b90505b92915050565b600060208284031215612da3578081fd5b813567ffffffffffffffff80821115612dba578283fd5b818401915060408286031215612dce578283fd5b604051604081018181108382111715612de357fe5b8060405250823582811115612df6578485fd5b612e0287828601612968565b82525060208301359250612e15836132b2565b8260208201528093505050505b92915050565b600060208284031215612e39578081fd5b8135612e44816132b2565b809150505b92915050565b600060208284031215612e60578081fd5b813562ffffff811681141515612e74578182fd5b809150505b92915050565b600060208284031215612e90578081fd5b813590505b92915050565b6000600060408385031215612eae578182fd5b823591506020830135612ec0816132b2565b809150505b9250929050565b60008151808452612ee481602086016020860161327d565b60207fffffffffffffffffffffffffffffffffffffffffffffffffffffffffffffffe0601f8301168501019150505b92915050565b60007fffffffffffffffffffffffffffffffffffffffff000000000000000000000000808660601b1683527fffffff00000000000000000000000000000000000000000000000000000000008560e81b166014840152808460601b16601784015250602b820190505b949350505050565b600082848337828201818152809150505b9392505050565b600060208201905073ffffffffffffffffffffffffffffffffffffffff831682525b92915050565b600073ffffffffffffffffffffffffffffffffffffffff8088168352861515602084015285604084015280851660608401525060a0608083015261301160a0830184612ecc565b90505b9695505050505050565b6000602080830181845280855180835260408601915060408482028701019250838701855b82811015613095577fffffffffffffffffffffffffffffffffffffffffffffffffffffffffffffffc088860301845261307d858351612ecc565b9450858201915085840193505b600181019050613043565b5050505080925050505b92915050565b6000602082526130b86020830184612ecc565b90505b92915050565b600060208252601260208301527f546f6f206d75636820726571756573746564000000000000000000000000000060408301526060820190505b919050565b600060208252601360208301527f546f6f206c6974746c652072656365697665640000000000000000000000000060408301526060820190505b919050565b60006020825282516040602084015261315b6060840182612ecc565b905073ffffffffffffffffffffffffffffffffffffffff6020850151166040840152809150505b92915050565b60006020820190508282525b92915050565b6000600083357fffffffffffffffffffffffffffffffffffffffffffffffffffffffffffffffe184360301811215156131d1578283fd5b80840190508035915067ffffffffffffffff8211156131ee578283fd5b602081019250508036038213156132055760006000fd5b5b9250929050565b6000604051905081810181811067ffffffffffffffff8211171561322d57fe5b80604052505b919050565b600067ffffffffffffffff82111561324c57fe5b60207fffffffffffffffffffffffffffffffffffffffffffffffffffffffffffffffe0601f8401160190505b919050565b60005b8381101561329c5780820151818401525b602081019050613280565b838111156132ab576000848401525b505b505050565b73ffffffffffffffffffffffffffffffffffffffff8116811415156132d75760006000fd5b5b50565bfea2646970667358221220f90cd02bf90cc632daeadc8bf4e792d75d2dfe7a0759325bf34795e419b9d1b164736f6c63430007060033",
  "linkReferences": {},
  "deployedLinkReferences": {}
}