{
  "_format": "hh-sol-artifact-1",
  "contractName": "RewardLockup",
  "sourceName": "contracts/core/allocations/RewardLockup.sol",
  "abi": [
    {
      "inputs": [
        {
          "internalType": "address",
          "name": "_allocatee",
          "type": "address"
        },
        {
          "internalType": "contract ICNP",
          "name": "_cnp",
          "type": "address"
        }
      ],
      "stateMutability": "nonpayable",
      "type": "constructor"
    },
    {
      "inputs": [],
      "name": "delegate",
      "outputs": [],
      "stateMutability": "nonpayable",
      "type": "function"
    },
    {
      "inputs": [
        {
          "internalType": "uint256",
          "name": "count",
          "type": "uint256"
        }
      ],
      "name": "distribute",
      "outputs": [],
      "stateMutability": "nonpayable",
      "type": "function"
    }
  ],
  "bytecode": "0x60e060405234801561001057600080fd5b506040516104433803806104438339818101604052604081101561003357600080fd5b8101908080519060200190929190805190602001909291905050503373ffffffffffffffffffffffffffffffffffffffff1660808173ffffffffffffffffffffffffffffffffffffffff1660601b815250508173ffffffffffffffffffffffffffffffffffffffff1660a08173ffffffffffffffffffffffffffffffffffffffff1660601b815250508073ffffffffffffffffffffffffffffffffffffffff1660c08173ffffffffffffffffffffffffffffffffffffffff1660601b81525050505060805160601c60a05160601c60c05160601c61030c6101376000398060cd528061021552508061010952806101bd52806102515250806075525061030c6000f3fe608060405234801561001057600080fd5b50600436106100365760003560e01c806391c05b0b1461003b578063c89e436114610069575b600080fd5b6100676004803603602081101561005157600080fd5b8101908080359060200190929190505050610073565b005b6100716101bb565b005b7f000000000000000000000000000000000000000000000000000000000000000073ffffffffffffffffffffffffffffffffffffffff163373ffffffffffffffffffffffffffffffffffffffff16146100cb57600080fd5b7f000000000000000000000000000000000000000000000000000000000000000073ffffffffffffffffffffffffffffffffffffffff1663a9059cbb7f0000000000000000000000000000000000000000000000000000000000000000836040518363ffffffff1660e01b8152600401808373ffffffffffffffffffffffffffffffffffffffff16815260200182815260200192505050602060405180830381600087803b15801561017c57600080fd5b505af1158015610190573d6000803e3d6000fd5b505050506040513d60208110156101a657600080fd5b81019080805190602001909291905050505050565b7f000000000000000000000000000000000000000000000000000000000000000073ffffffffffffffffffffffffffffffffffffffff163373ffffffffffffffffffffffffffffffffffffffff161461021357600080fd5b7f000000000000000000000000000000000000000000000000000000000000000073ffffffffffffffffffffffffffffffffffffffff16635c19a95c7f00000000000000000000000000000000000000000000000000000000000000006040518263ffffffff1660e01b8152600401808273ffffffffffffffffffffffffffffffffffffffff168152602001915050600060405180830381600087803b1580156102bc57600080fd5b505af11580156102d0573d6000803e3d6000fd5b5050505056fea264697066735822122023f4f85bf65936125d0d2e42c4c54af5d9a0d9a7b0ecd5597fc708a04861cba164736f6c63430007040033",
  "linkReferences": {},
  "deployedLinkReferences": {}
}