{
  "_format": "hh-sol-artifact-1",
  "contractName": "MockGovernor",
  "sourceName": "contracts/mocks/MockGovernor.sol",
  "abi": [
    {
      "inputs": [],
      "name": "currentPhase",
      "outputs": [
        {
          "internalType": "uint8",
          "name": "",
          "type": "uint8"
        }
      ],
      "stateMutability": "view",
      "type": "function"
    },
    {
      "inputs": [],
      "name": "distributedTCP",
      "outputs": [
        {
          "internalType": "uint256",
          "name": "",
          "type": "uint256"
        }
      ],
      "stateMutability": "view",
      "type": "function"
    },
    {
      "inputs": [
        {
          "internalType": "address",
          "name": "",
          "type": "address"
        },
        {
          "internalType": "string",
          "name": "",
          "type": "string"
        },
        {
          "internalType": "bytes",
          "name": "",
          "type": "bytes"
        }
      ],
      "name": "execute",
      "outputs": [
        {
          "internalType": "bool",
          "name": "success",
          "type": "bool"
        },
        {
          "internalType": "bytes",
          "name": "returnData",
          "type": "bytes"
        }
      ],
      "stateMutability": "nonpayable",
      "type": "function"
    },
    {
      "inputs": [
        {
          "internalType": "address",
          "name": "",
          "type": "address"
        },
        {
          "internalType": "string",
          "name": "",
          "type": "string"
        }
      ],
      "name": "validateAction",
      "outputs": [
        {
          "internalType": "bool",
          "name": "",
          "type": "bool"
        }
      ],
      "stateMutability": "view",
      "type": "function"
    }
  ],
  "bytecode": "0x60806040523480156100115760006000fd5b50610017565b6103d5806100266000396000f3fe60806040523480156100115760006000fd5b50600436106100515760003560e01c8063055ad42e1461005757806333daf5d414610078578063aa2964871461027c578063c24d745f1461029a57610051565b60006000fd5b61005f61034f565b604051808260ff16815260200191505060405180910390f35b6101f76004803603606081101561008f5760006000fd5b81019080803573ffffffffffffffffffffffffffffffffffffffff169060200190929190803590602001906401000000008111156100cd5760006000fd5b8201836020820111156100e05760006000fd5b803590602001918460018302840111640100000000831117156101035760006000fd5b91908080601f016020809104026020016040519081016040528093929190818152602001838380828437600081840152601f19601f820116905080830192505050505050509090919290909192908035906020019064010000000081111561016b5760006000fd5b82018360208201111561017e5760006000fd5b803590602001918460018302840111640100000000831117156101a15760006000fd5b91908080601f016020809104026020016040519081016040528093929190818152602001838380828437600081840152601f19601f8201169050808301925050505050505090909192909091929050505061035d565b60405180831515815260200180602001828103825283818151815260200191508051906020019080838360005b838110156102405780820151818401525b602081019050610224565b50505050905090810190601f16801561026d5780820380516001836020036101000a031916815260200191505b50935050505060405180910390f35b610284610375565b6040518082815260200191505060405180910390f35b610337600480360360408110156102b15760006000fd5b81019080803573ffffffffffffffffffffffffffffffffffffffff169060200190929190803590602001906401000000008111156102ef5760006000fd5b8201836020820111156103025760006000fd5b803590602001918460018302840111640100000000831117156103255760006000fd5b9091929390909192939050505061038d565b60405180821515815260200191505060405180910390f35b60006003905061035a565b90565b600060606001819150915061036d565b935093915050565b60006a084595161401484a000000905061038a565b90565b600060019050610398565b939250505056fea26469706673582212208dce3047cb24f1d0eea2f18d35bafbec4401d55cd9ddb1354b6d5da70b4d3d9464736f6c63430007060033",
  "linkReferences": {},
  "deployedLinkReferences": {}
}