{
  "_format": "hh-sol-artifact-1",
  "contractName": "Accounting",
  "sourceName": "contracts/core/storage/Accounting.sol",
  "abi": [
    {
      "anonymous": false,
      "inputs": [
        {
          "indexed": true,
          "internalType": "address",
          "name": "governor",
          "type": "address"
        }
      ],
      "name": "Initialized",
      "type": "event"
    },
    {
      "anonymous": false,
      "inputs": [],
      "name": "Stopped",
      "type": "event"
    },
    {
      "inputs": [
        {
          "internalType": "enum IAccounting.Collateral",
          "name": "collateralType",
          "type": "uint8"
        },
        {
          "internalType": "uint256",
          "name": "count",
          "type": "uint256"
        },
        {
          "internalType": "bool",
          "name": "increase",
          "type": "bool"
        }
      ],
      "name": "adjustDebt",
      "outputs": [
        {
          "internalType": "uint128",
          "name": "ethDebt",
          "type": "uint128"
        },
        {
          "internalType": "uint128",
          "name": "btcDebt",
          "type": "uint128"
        }
      ],
      "stateMutability": "nonpayable",
      "type": "function"
    },
    {
      "inputs": [
        {
          "internalType": "uint256",
          "name": "debtCount",
          "type": "uint256"
        },
        {
          "internalType": "uint256",
          "name": "collateralCount",
          "type": "uint256"
        }
      ],
      "name": "calculateCollateralizationBand",
      "outputs": [
        {
          "internalType": "uint32",
          "name": "band",
          "type": "uint32"
        }
      ],
      "stateMutability": "pure",
      "type": "function"
    },
    {
      "inputs": [
        {
          "internalType": "uint256",
          "name": "c",
          "type": "uint256"
        }
      ],
      "name": "collateralizationBand",
      "outputs": [
        {
          "internalType": "uint32",
          "name": "band",
          "type": "uint32"
        }
      ],
      "stateMutability": "pure",
      "type": "function"
    },
    {
      "inputs": [],
      "name": "debt",
      "outputs": [
        {
          "internalType": "uint256",
          "name": "",
          "type": "uint256"
        }
      ],
      "stateMutability": "view",
      "type": "function"
    },
    {
      "inputs": [
        {
          "internalType": "enum IAccounting.Collateral",
          "name": "collateralType",
          "type": "uint8"
        }
      ],
      "name": "debtByCollateral",
      "outputs": [
        {
          "internalType": "uint256",
          "name": "",
          "type": "uint256"
        }
      ],
      "stateMutability": "view",
      "type": "function"
    },
    {
      "inputs": [],
      "name": "deployer",
      "outputs": [
        {
          "internalType": "address",
          "name": "",
          "type": "address"
        }
      ],
      "stateMutability": "view",
      "type": "function"
    },
    {
      "inputs": [
        {
          "internalType": "address",
          "name": "to",
          "type": "address"
        },
        {
          "internalType": "contract IUniswapV2Pair",
          "name": "pair",
          "type": "address"
        },
        {
          "internalType": "uint256",
          "name": "count",
          "type": "uint256"
        }
      ],
      "name": "distributePairTokens",
      "outputs": [],
      "stateMutability": "nonpayable",
      "type": "function"
    },
    {
      "inputs": [
        {
          "internalType": "uint64",
          "name": "positionID",
          "type": "uint64"
        }
      ],
      "name": "getBasicPositionInfo",
      "outputs": [
        {
          "internalType": "enum IAccounting.Collateral",
          "name": "collateralType",
          "type": "uint8"
        },
        {
          "internalType": "uint256",
          "name": "debtCount",
          "type": "uint256"
        },
        {
          "internalType": "uint256",
          "name": "collateralCount",
          "type": "uint256"
        }
      ],
      "stateMutability": "view",
      "type": "function"
    },
    {
      "inputs": [
        {
          "internalType": "enum IAccounting.Collateral",
          "name": "collateral",
          "type": "uint8"
        }
      ],
      "name": "getLiquidationAccount",
      "outputs": [
        {
          "components": [
            {
              "internalType": "uint256",
              "name": "startDebtExchangeRate",
              "type": "uint256"
            },
            {
              "internalType": "uint256",
              "name": "debt",
              "type": "uint256"
            },
            {
              "internalType": "uint256",
              "name": "collateral",
              "type": "uint256"
            }
          ],
          "internalType": "struct IAccounting.LiquidationAccount",
          "name": "lqAcct",
          "type": "tuple"
        }
      ],
      "stateMutability": "view",
      "type": "function"
    },
    {
      "inputs": [
        {
          "internalType": "address",
          "name": "owner",
          "type": "address"
        },
        {
          "internalType": "contract IUniswapV2Pair",
          "name": "pair",
          "type": "address"
        }
      ],
      "name": "getPairTokenPosition",
      "outputs": [
        {
          "components": [
            {
              "internalType": "uint256",
              "name": "totalRewards",
              "type": "uint256"
            },
            {
              "internalType": "uint256",
              "name": "count",
              "type": "uint256"
            },
            {
              "internalType": "uint256",
              "name": "cumulativePairCoinCount",
              "type": "uint256"
            },
            {
              "internalType": "uint64",
              "name": "lastPeriodRewarded",
              "type": "uint64"
            },
            {
              "internalType": "uint64",
              "name": "unlockPeriod",
              "type": "uint64"
            }
          ],
          "internalType": "struct IAccounting.PairTokenPosition",
          "name": "pt",
          "type": "tuple"
        }
      ],
      "stateMutability": "view",
      "type": "function"
    },
    {
      "inputs": [
        {
          "internalType": "uint64",
          "name": "positionID",
          "type": "uint64"
        }
      ],
      "name": "getPosition",
      "outputs": [
        {
          "components": [
            {
              "internalType": "uint256",
              "name": "startCumulativeDebt",
              "type": "uint256"
            },
            {
              "internalType": "uint256",
              "name": "collateral",
              "type": "uint256"
            },
            {
              "internalType": "uint256",
              "name": "debt",
              "type": "uint256"
            },
            {
              "internalType": "uint256",
              "name": "startDebtExchangeRate",
              "type": "uint256"
            },
            {
              "internalType": "uint256",
              "name": "startCNPRewards",
              "type": "uint256"
            },
            {
              "internalType": "uint64",
              "name": "collateralizationBandIndex",
              "type": "uint64"
            },
            {
              "internalType": "uint64",
              "name": "lastUpdateTime",
              "type": "uint64"
            },
            {
              "internalType": "uint64",
              "name": "lastBorrowTime",
              "type": "uint64"
            },
            {
              "internalType": "uint32",
              "name": "collateralizationBand",
              "type": "uint32"
            },
            {
              "internalType": "enum IAccounting.Collateral",
              "name": "collateralType",
              "type": "uint8"
            }
          ],
          "internalType": "struct IAccounting.DebtPosition",
          "name": "",
          "type": "tuple"
        }
      ],
      "stateMutability": "view",
      "type": "function"
    },
    {
      "inputs": [],
      "name": "getSystemDebtInfo",
      "outputs": [
        {
          "components": [
            {
              "internalType": "uint256",
              "name": "ethDebt",
              "type": "uint256"
            },
            {
              "internalType": "uint256",
              "name": "btcDebt",
              "type": "uint256"
            },
            {
              "internalType": "uint256",
              "name": "totalCNPRewards",
              "type": "uint256"
            },
            {
              "internalType": "uint256",
              "name": "cumulativeDebt",
              "type": "uint256"
            },
            {
              "internalType": "uint256",
              "name": "debtExchangeRate",
              "type": "uint256"
            }
          ],
          "internalType": "struct IAccounting.SystemDebtInfo",
          "name": "",
          "type": "tuple"
        }
      ],
      "stateMutability": "view",
      "type": "function"
    },
    {
      "inputs": [],
      "name": "governor",
      "outputs": [
        {
          "internalType": "contract IGovernor",
          "name": "",
          "type": "address"
        }
      ],
      "stateMutability": "view",
      "type": "function"
    },
    {
      "inputs": [
        {
          "internalType": "contract IGovernor",
          "name": "_governor",
          "type": "address"
        }
      ],
      "name": "init",
      "outputs": [],
      "stateMutability": "nonpayable",
      "type": "function"
    },
    {
      "inputs": [
        {
          "internalType": "uint64[]",
          "name": "positionIDs",
          "type": "uint64[]"
        }
      ],
      "name": "positionsCollateralization",
      "outputs": [
        {
          "internalType": "uint256[]",
          "name": "collateralizations",
          "type": "uint256[]"
        }
      ],
      "stateMutability": "view",
      "type": "function"
    },
    {
      "inputs": [
        {
          "internalType": "enum IAccounting.Collateral",
          "name": "collateralType",
          "type": "uint8"
        },
        {
          "internalType": "uint32",
          "name": "band",
          "type": "uint32"
        }
      ],
      "name": "positionsForBand",
      "outputs": [
        {
          "internalType": "uint64[]",
          "name": "positions",
          "type": "uint64[]"
        }
      ],
      "stateMutability": "view",
      "type": "function"
    },
    {
      "inputs": [
        {
          "internalType": "uint64",
          "name": "positionID",
          "type": "uint64"
        },
        {
          "internalType": "enum IAccounting.Collateral",
          "name": "collateralType",
          "type": "uint8"
        }
      ],
      "name": "registerPosition",
      "outputs": [],
      "stateMutability": "nonpayable",
      "type": "function"
    },
    {
      "inputs": [
        {
          "internalType": "enum IAccounting.Collateral",
          "name": "collateralType",
          "type": "uint8"
        },
        {
          "internalType": "address",
          "name": "dest",
          "type": "address"
        },
        {
          "internalType": "uint256",
          "name": "count",
          "type": "uint256"
        }
      ],
      "name": "sendCollateral",
      "outputs": [],
      "stateMutability": "nonpayable",
      "type": "function"
    },
    {
      "inputs": [
        {
          "internalType": "address",
          "name": "dest",
          "type": "address"
        },
        {
          "internalType": "uint256",
          "name": "count",
          "type": "uint256"
        }
      ],
      "name": "sendLentCoin",
      "outputs": [],
      "stateMutability": "nonpayable",
      "type": "function"
    },
    {
      "inputs": [
        {
          "internalType": "enum IAccounting.Collateral",
          "name": "collateral",
          "type": "uint8"
        },
        {
          "components": [
            {
              "internalType": "uint256",
              "name": "startDebtExchangeRate",
              "type": "uint256"
            },
            {
              "internalType": "uint256",
              "name": "debt",
              "type": "uint256"
            },
            {
              "internalType": "uint256",
              "name": "collateral",
              "type": "uint256"
            }
          ],
          "internalType": "struct IAccounting.LiquidationAccount",
          "name": "lqAcct",
          "type": "tuple"
        }
      ],
      "name": "setLiquidationAccount",
      "outputs": [],
      "stateMutability": "nonpayable",
      "type": "function"
    },
    {
      "inputs": [
        {
          "internalType": "address",
          "name": "owner",
          "type": "address"
        },
        {
          "internalType": "contract IUniswapV2Pair",
          "name": "pair",
          "type": "address"
        },
        {
          "components": [
            {
              "internalType": "uint256",
              "name": "totalRewards",
              "type": "uint256"
            },
            {
              "internalType": "uint256",
              "name": "count",
              "type": "uint256"
            },
            {
              "internalType": "uint256",
              "name": "cumulativePairCoinCount",
              "type": "uint256"
            },
            {
              "internalType": "uint64",
              "name": "lastPeriodRewarded",
              "type": "uint64"
            },
            {
              "internalType": "uint64",
              "name": "unlockPeriod",
              "type": "uint64"
            }
          ],
          "internalType": "struct IAccounting.PairTokenPosition",
          "name": "pt",
          "type": "tuple"
        }
      ],
      "name": "setPairTokenPosition",
      "outputs": [],
      "stateMutability": "nonpayable",
      "type": "function"
    },
    {
      "inputs": [
        {
          "internalType": "uint64",
          "name": "positionID",
          "type": "uint64"
        },
        {
          "components": [
            {
              "internalType": "uint256",
              "name": "startCumulativeDebt",
              "type": "uint256"
            },
            {
              "internalType": "uint256",
              "name": "collateral",
              "type": "uint256"
            },
            {
              "internalType": "uint256",
              "name": "debt",
              "type": "uint256"
            },
            {
              "internalType": "uint256",
              "name": "startDebtExchangeRate",
              "type": "uint256"
            },
            {
              "internalType": "uint256",
              "name": "startCNPRewards",
              "type": "uint256"
            },
            {
              "internalType": "uint64",
              "name": "collateralizationBandIndex",
              "type": "uint64"
            },
            {
              "internalType": "uint64",
              "name": "lastUpdateTime",
              "type": "uint64"
            },
            {
              "internalType": "uint64",
              "name": "lastBorrowTime",
              "type": "uint64"
            },
            {
              "internalType": "uint32",
              "name": "collateralizationBand",
              "type": "uint32"
            },
            {
              "internalType": "enum IAccounting.Collateral",
              "name": "collateralType",
              "type": "uint8"
            }
          ],
          "internalType": "struct IAccounting.DebtPosition",
          "name": "dp",
          "type": "tuple"
        }
      ],
      "name": "setPosition",
      "outputs": [],
      "stateMutability": "nonpayable",
      "type": "function"
    },
    {
      "inputs": [
        {
          "components": [
            {
              "internalType": "uint256",
              "name": "ethDebt",
              "type": "uint256"
            },
            {
              "internalType": "uint256",
              "name": "btcDebt",
              "type": "uint256"
            },
            {
              "internalType": "uint256",
              "name": "totalCNPRewards",
              "type": "uint256"
            },
            {
              "internalType": "uint256",
              "name": "cumulativeDebt",
              "type": "uint256"
            },
            {
              "internalType": "uint256",
              "name": "debtExchangeRate",
              "type": "uint256"
            }
          ],
          "internalType": "struct IAccounting.SystemDebtInfo",
          "name": "_sdi",
          "type": "tuple"
        }
      ],
      "name": "setSystemDebtInfo",
      "outputs": [],
      "stateMutability": "nonpayable",
      "type": "function"
    },
    {
      "inputs": [],
      "name": "stopped",
      "outputs": [
        {
          "internalType": "bool",
          "name": "",
          "type": "bool"
        }
      ],
      "stateMutability": "view",
      "type": "function"
    },
    {
      "inputs": [
        {
          "internalType": "bytes4",
          "name": "action",
          "type": "bytes4"
        }
      ],
      "name": "validUpdate",
      "outputs": [
        {
          "internalType": "bool",
          "name": "",
          "type": "bool"
        }
      ],
      "stateMutability": "view",
      "type": "function"
    }
  ],
  "bytecode": "0x608060405234801561001057600080fd5b5033600160006101000a81548173ffffffffffffffffffffffffffffffffffffffff021916908373ffffffffffffffffffffffffffffffffffffffff1602179055506001600681905550615aaa806200006a6000396000f3fe608060405234801561001057600080fd5b50600436106101a35760003560e01c806355a86b3f116100ee5780637e890dcf11610097578063a075bd0111610071578063a075bd01146104db578063d5f39488146104f7578063db795bca14610515578063f13c16b014610531576101a3565b80637e890dcf14610487578063827b78ba146104a35780638cf99f98146104bf576101a3565b806367ee7307116100c857806367ee7307146104095780636d0f69171461043957806375f12b2114610469576101a3565b806355a86b3f146103775780635e016b90146103a75780636594da9f146103d7576101a3565b80631e70dda8116101505780634b6f31981161012a5780634b6f3198146102e65780634b8c3f37146103175780634d83e74714610347576101a3565b80631e70dda81461027e5780633b1836cb1461029a5780633ef736c5146102ca576101a3565b80630f85fc5a116101815780630f85fc5a14610202578063113cf1ab1461023257806319ab453c14610262576101a3565b806306ef2d80146101a85780630c340a24146101c65780630dca59c1146101e4575b600080fd5b6101b061054d565b6040516101bd9190615588565b60405180910390f35b6101ce6106a1565b6040516101db91906154c4565b60405180910390f35b6101ec6106c5565b6040516101f991906155cc565b60405180910390f35b61021c60048036038101906102179190614fa6565b610745565b6040516102299190615536565b60405180910390f35b61024c60048036038101906102479190614d0c565b6109aa565b60405161025991906154a9565b60405180910390f35b61027c60048036038101906102779190614d5e565b610a12565b005b61029860048036038101906102939190614f18565b610e2b565b005b6102b460048036038101906102af9190614f41565b611054565b6040516102c191906155e7565b60405180910390f35b6102e460048036038101906102df9190614c17565b61142e565b005b61030060048036038101906102fb9190614e8d565b6115db565b60405161030e9291906155a3565b60405180910390f35b610331600480360381019061032c9190614dd9565b61189b565b60405161033e91906155cc565b60405180910390f35b610361600480360381019061035c9190614b8c565b61191d565b60405161036e919061556d565b60405180910390f35b610391600480360381019061038c9190614edc565b611afe565b60405161039e9190615487565b60405180910390f35b6103c160048036038101906103bc9190614ca2565b611bd1565b6040516103ce9190615465565b60405180910390f35b6103f160048036038101906103ec9190614fa6565b611d86565b604051610400939291906154df565b60405180910390f35b610423600480360381019061041e9190614f6a565b611f38565b60405161043091906155e7565b60405180910390f35b610453600480360381019061044e9190614dd9565b611f77565b6040516104609190615552565b60405180910390f35b6104716120d5565b60405161047e91906154a9565b60405180910390f35b6104a1600480360381019061049c9190614fcf565b6120e8565b005b6104bd60048036038101906104b89190614bc8565b6123b1565b005b6104d960048036038101906104d49190614e51565b61279c565b005b6104f560048036038101906104f0919061500b565b612968565b005b6104ff61316a565b60405161050c9190615406565b60405180910390f35b61052f600480360381019061052a9190614c66565b613190565b005b61054b60048036038101906105469190614e02565b6133d8565b005b610555614482565b61069c600c6040518060a00160405290816000820160009054906101000a90046fffffffffffffffffffffffffffffffff166fffffffffffffffffffffffffffffffff166fffffffffffffffffffffffffffffffff1681526020016000820160109054906101000a90046fffffffffffffffffffffffffffffffff166fffffffffffffffffffffffffffffffff166fffffffffffffffffffffffffffffffff1681526020016001820160009054906101000a90046fffffffffffffffffffffffffffffffff166fffffffffffffffffffffffffffffffff166fffffffffffffffffffffffffffffffff1681526020016001820160109054906101000a90046fffffffffffffffffffffffffffffffff166fffffffffffffffffffffffffffffffff166fffffffffffffffffffffffffffffffff1681526020016002820154815250506135f3565b905090565b60008054906101000a900473ffffffffffffffffffffffffffffffffffffffff1681565b6000610740600c60000160109054906101000a90046fffffffffffffffffffffffffffffffff166fffffffffffffffffffffffffffffffff16600c60000160009054906101000a90046fffffffffffffffffffffffffffffffff166fffffffffffffffffffffffffffffffff1661368590919063ffffffff16565b905090565b61074d6144b1565b6109a3600960008467ffffffffffffffff1667ffffffffffffffff16815260200190815260200160002060405180610140016040529081600082015481526020016001820160009054906101000a90046fffffffffffffffffffffffffffffffff166fffffffffffffffffffffffffffffffff166fffffffffffffffffffffffffffffffff1681526020016001820160109054906101000a90046fffffffffffffffffffffffffffffffff166fffffffffffffffffffffffffffffffff166fffffffffffffffffffffffffffffffff1681526020016002820160009054906101000a90046fffffffffffffffffffffffffffffffff166fffffffffffffffffffffffffffffffff166fffffffffffffffffffffffffffffffff1681526020016002820160109054906101000a90046fffffffffffffffffffffffffffffffff166fffffffffffffffffffffffffffffffff166fffffffffffffffffffffffffffffffff1681526020016003820160009054906101000a900467ffffffffffffffff1667ffffffffffffffff1667ffffffffffffffff1681526020016003820160089054906101000a900467ffffffffffffffff1667ffffffffffffffff1667ffffffffffffffff1681526020016003820160109054906101000a900467ffffffffffffffff1667ffffffffffffffff1667ffffffffffffffff1681526020016003820160189054906101000a900463ffffffff1663ffffffff1663ffffffff16815260200160038201601c9054906101000a900460ff16600181111561098f57fe5b600181111561099a57fe5b8152505061370d565b9050919050565b600060056000837bffffffffffffffffffffffffffffffffffffffffffffffffffffffff19167bffffffffffffffffffffffffffffffffffffffffffffffffffffffff1916815260200190815260200160002060009054906101000a900460ff169050919050565b600160009054906101000a900473ffffffffffffffffffffffffffffffffffffffff1673ffffffffffffffffffffffffffffffffffffffff163373ffffffffffffffffffffffffffffffffffffffff1614610ad5576040517f08c379a000000000000000000000000000000000000000000000000000000000815260040180806020018281038252601e8152602001807f476f7665726e65643a20496e6974206e6f7420617574686f72697a65642e000081525060200191505060405180910390fd5b600160006101000a81549073ffffffffffffffffffffffffffffffffffffffff0219169055806000806101000a81548173ffffffffffffffffffffffffffffffffffffffff021916908373ffffffffffffffffffffffffffffffffffffffff16021790555060008054906101000a900473ffffffffffffffffffffffffffffffffffffffff1673ffffffffffffffffffffffffffffffffffffffff16639624e83e6040518163ffffffff1660e01b815260040160206040518083038186803b158015610ba057600080fd5b505afa158015610bb4573d6000803e3d6000fd5b505050506040513d6020811015610bca57600080fd5b8101908080519060200190929190505050600260006101000a81548173ffffffffffffffffffffffffffffffffffffffff021916908373ffffffffffffffffffffffffffffffffffffffff16021790555060008054906101000a900473ffffffffffffffffffffffffffffffffffffffff1673ffffffffffffffffffffffffffffffffffffffff166311df99956040518163ffffffff1660e01b815260040160206040518083038186803b158015610c8157600080fd5b505afa158015610c95573d6000803e3d6000fd5b505050506040513d6020811015610cab57600080fd5b8101908080519060200190929190505050600360006101000a81548173ffffffffffffffffffffffffffffffffffffffff021916908373ffffffffffffffffffffffffffffffffffffffff16021790555060008054906101000a900473ffffffffffffffffffffffffffffffffffffffff1673ffffffffffffffffffffffffffffffffffffffff1663d478b0876040518163ffffffff1660e01b815260040160206040518083038186803b158015610d6257600080fd5b505afa158015610d76573d6000803e3d6000fd5b505050506040513d6020811015610d8c57600080fd5b8101908080519060200190929190505050600460006101000a81548173ffffffffffffffffffffffffffffffffffffffff021916908373ffffffffffffffffffffffffffffffffffffffff160217905550610de5613803565b8073ffffffffffffffffffffffffffffffffffffffff167f908408e307fc569b417f6cbec5d5a06f44a0a505ac0479b47d421a4b2fd6a1e660405160405180910390a250565b60026006541415610ea4576040517f08c379a000000000000000000000000000000000000000000000000000000000815260040180806020018281038252601d8152602001807f4c6f636b436f6e74726163743a207265656e7472616e742063616c6c2e00000081525060200191505060405180910390fd5b600260068190555060008054906101000a900473ffffffffffffffffffffffffffffffffffffffff1673ffffffffffffffffffffffffffffffffffffffff166368219d39336040518263ffffffff1660e01b8152600401610f059190615421565b60006040518083038186803b158015610f1d57600080fd5b505afa158015610f31573d6000803e3d6000fd5b50505050610f3e81613b01565b600c60008201518160000160006101000a8154816fffffffffffffffffffffffffffffffff02191690836fffffffffffffffffffffffffffffffff16021790555060208201518160000160106101000a8154816fffffffffffffffffffffffffffffffff02191690836fffffffffffffffffffffffffffffffff16021790555060408201518160010160006101000a8154816fffffffffffffffffffffffffffffffff02191690836fffffffffffffffffffffffffffffffff16021790555060608201518160010160106101000a8154816fffffffffffffffffffffffffffffffff02191690836fffffffffffffffffffffffffffffffff16021790555060808201518160020155905050600160068190555050565b6000808214156110675760009050611429565b683635c9adc5dea0000082101561120a5768056bc75e2d631000008211156110b1576110aa826103eb69032d26d12e980b600000680821ab0d4414980000613bb3565b9050611429565b678ac7230489e800008211156110e7576110e0826103bc685150ae84a8cdf0000067d02ab486cedc0000613bb3565b9050611429565b670de0b6b3a764000082111561111d576111168261038d680821ab0d44149800006714d1120d7b160000613bb3565b9050611429565b67016345785d8a00008211156111525761114b8261035e67d02ab486cedc0000670214e8348c4f0000613bb3565b9050611429565b662386f26fc100008211156111855761117e8261032f6714d1120d7b16000066354a6ba7a18000613bb3565b9050611429565b66038d7ea4c680008211156111b8576111b182610300670214e8348c4f00006605543df729c000613bb3565b9050611429565b655af3107a40008211156111e8576111e1826102d166354a6ba7a1800065886c98b76000613bb3565b9050611429565b611203826102a26605543df729c000650da475abf000613bb3565b9050611429565b69021e19e0c9bab24000008210156112445761123d8261041a691fc3842bd1f071c00000685150ae84a8cdf00000613bb3565b9050611429565b69152d02c7e14af680000082101561128057611279826104496a013da329b633647180000069032d26d12e980b600000613bb3565b9050611429565b69d3c21bcecceda10000008210156112bc576112b5826104786a0c685fa11e01ec6f000000691fc3842bd1f071c00000613bb3565b9050611429565b6a084595161401484a0000008210156112fa576112f3826104a76a7c13bc4b2c133c560000006a013da329b6336471800000613bb3565b9050611429565b6a52b7d2dcc80cd2e400000082101561133957611332826104d66b04d8c55aefb8c05b5c0000006a0c685fa11e01ec6f000000613bb3565b9050611429565b6b033b2e3c9fd0803ce800000082101561137957611372826105056b3077b58d5d378391980000006a7c13bc4b2c133c56000000613bb3565b9050611429565b6b204fce5e3e250261100000008210156113bb576113b4826105346c01e4ad1785a42b23aff00000006b04d8c55aefb8c05b5c000000613bb3565b9050611429565b6c01431e0fae6d7217caa00000008210156113fe576113f7826105636c12eec2eb3869af64df600000006b3077b58d5d37839198000000613bb3565b9050611429565b611426826105926cbd539d303420d9f0b9c00000006c01e4ad1785a42b23aff0000000613bb3565b90505b919050565b600260065414156114a7576040517f08c379a000000000000000000000000000000000000000000000000000000000815260040180806020018281038252601d8152602001807f4c6f636b436f6e74726163743a207265656e7472616e742063616c6c2e00000081525060200191505060405180910390fd5b600260068190555060008054906101000a900473ffffffffffffffffffffffffffffffffffffffff1673ffffffffffffffffffffffffffffffffffffffff1663c7bdc5aa336040518263ffffffff1660e01b81526004016115089190615421565b60006040518083038186803b15801561152057600080fd5b505afa158015611534573d6000803e3d6000fd5b505050508173ffffffffffffffffffffffffffffffffffffffff1663a9059cbb84836040518363ffffffff1660e01b815260040161157392919061543c565b602060405180830381600087803b15801561158d57600080fd5b505af11580156115a1573d6000803e3d6000fd5b505050506040513d601f19601f820116820180604052508101906115c59190614ce3565b6115ce57600080fd5b6001600681905550505050565b60008060026006541415611657576040517f08c379a000000000000000000000000000000000000000000000000000000000815260040180806020018281038252601d8152602001807f4c6f636b436f6e74726163743a207265656e7472616e742063616c6c2e00000081525060200191505060405180910390fd5b600260068190555060008054906101000a900473ffffffffffffffffffffffffffffffffffffffff1673ffffffffffffffffffffffffffffffffffffffff166368219d39336040518263ffffffff1660e01b81526004016116b89190615421565b60006040518083038186803b1580156116d057600080fd5b505afa1580156116e4573d6000803e3d6000fd5b50505050600c60000160009054906101000a90046fffffffffffffffffffffffffffffffff169150600c60000160109054906101000a90046fffffffffffffffffffffffffffffffff1690506000600181111561173d57fe5b85600181111561174957fe5b14156117ef576117ac836117815761177c85846fffffffffffffffffffffffffffffffff16613bd590919063ffffffff16565b6117a7565b6117a685846fffffffffffffffffffffffffffffffff1661368590919063ffffffff16565b5b613c1f565b915081600c60000160006101000a8154816fffffffffffffffffffffffffffffffff02191690836fffffffffffffffffffffffffffffffff16021790555061188b565b61184c836118215761181c85836fffffffffffffffffffffffffffffffff16613bd590919063ffffffff16565b611847565b61184685836fffffffffffffffffffffffffffffffff1661368590919063ffffffff16565b5b613c1f565b905080600c60000160106101000a8154816fffffffffffffffffffffffffffffffff02191690836fffffffffffffffffffffffffffffffff1602179055505b6001600681905550935093915050565b60008060018111156118a957fe5b8260018111156118b557fe5b146118e157600c60000160109054906101000a90046fffffffffffffffffffffffffffffffff16611904565b600c60000160009054906101000a90046fffffffffffffffffffffffffffffffff165b6fffffffffffffffffffffffffffffffff169050919050565b611925614533565b611af6600f60008573ffffffffffffffffffffffffffffffffffffffff1673ffffffffffffffffffffffffffffffffffffffff16815260200190815260200160002060008473ffffffffffffffffffffffffffffffffffffffff1673ffffffffffffffffffffffffffffffffffffffff1681526020019081526020016000206040518060a00160405290816000820160009054906101000a90046fffffffffffffffffffffffffffffffff166fffffffffffffffffffffffffffffffff166fffffffffffffffffffffffffffffffff1681526020016000820160109054906101000a90046fffffffffffffffffffffffffffffffff166fffffffffffffffffffffffffffffffff166fffffffffffffffffffffffffffffffff1681526020016001820160009054906101000a900477ffffffffffffffffffffffffffffffffffffffffffffffff1677ffffffffffffffffffffffffffffffffffffffffffffffff1677ffffffffffffffffffffffffffffffffffffffffffffffff1681526020016001820160189054906101000a900463ffffffff1663ffffffff1663ffffffff16815260200160018201601c9054906101000a900463ffffffff1663ffffffff1663ffffffff1681525050613c92565b905092915050565b6060600b6000846001811115611b1057fe5b6001811115611b1b57fe5b815260200190815260200160002060008363ffffffff1663ffffffff168152602001908152602001600020805480602002602001604051908101604052809291908181526020018280548015611bc457602002820191906000526020600020906000905b82829054906101000a900467ffffffffffffffff1667ffffffffffffffff1681526020019060080190602082600701049283019260010382029150808411611b7f5790505b5050505050905092915050565b6060815167ffffffffffffffff81118015611beb57600080fd5b50604051908082528060200260200182016040528015611c1a5781602001602082028036833780820191505090505b509050600080600090505b8351811015611d7f5760096000858381518110611c3e57fe5b602002602001015167ffffffffffffffff1667ffffffffffffffff1681526020019081526020016000209150611d5a611d19600c60010160009054906101000a90046fffffffffffffffffffffffffffffffff166fffffffffffffffffffffffffffffffff168460020160009054906101000a90046fffffffffffffffffffffffffffffffff166fffffffffffffffffffffffffffffffff168560010160109054906101000a90046fffffffffffffffffffffffffffffffff166fffffffffffffffffffffffffffffffff16613d3a9092919063ffffffff16565b8360010160009054906101000a90046fffffffffffffffffffffffffffffffff166fffffffffffffffffffffffffffffffff16613e4990919063ffffffff16565b838281518110611d6657fe5b6020026020010181815250508080600101915050611c25565b5050919050565b6000806000600960008567ffffffffffffffff1667ffffffffffffffff168152602001908152602001600020600301601c9054906101000a900460ff169250600960008567ffffffffffffffff1667ffffffffffffffff16815260200190815260200160002060010160109054906101000a90046fffffffffffffffffffffffffffffffff166fffffffffffffffffffffffffffffffff169150600960008567ffffffffffffffff1667ffffffffffffffff16815260200190815260200160002060010160009054906101000a90046fffffffffffffffffffffffffffffffff166fffffffffffffffffffffffffffffffff1690506000600960008667ffffffffffffffff1667ffffffffffffffff16815260200190815260200160002060020160009054906101000a90046fffffffffffffffffffffffffffffffff166fffffffffffffffffffffffffffffffff1690506000600c60010160009054906101000a90046fffffffffffffffffffffffffffffffff166fffffffffffffffffffffffffffffffff169050808214611f2f57611f2c818386613d3a9092919063ffffffff16565b93505b50509193909250565b600080831480611f485750600082145b611f6c57611f67611f628484613e4990919063ffffffff16565b611054565b611f6f565b60005b905092915050565b611f7f614576565b612059600a6000846001811115611f9257fe5b6001811115611f9d57fe5b81526020019081526020016000206040518060600160405290816000820160009054906101000a90046fffffffffffffffffffffffffffffffff166fffffffffffffffffffffffffffffffff166fffffffffffffffffffffffffffffffff1681526020016000820160109054906101000a90046fffffffffffffffffffffffffffffffff166fffffffffffffffffffffffffffffffff166fffffffffffffffffffffffffffffffff168152602001600182015481525050613f5c565b90506000600c60010160009054906101000a90046fffffffffffffffffffffffffffffffff166fffffffffffffffffffffffffffffffff169050816000015181146120cf576120bb8183600001518460200151613d3a9092919063ffffffff16565b826020018181525050808260000181815250505b50919050565b600060149054906101000a900460ff1681565b60008054906101000a900473ffffffffffffffffffffffffffffffffffffffff1673ffffffffffffffffffffffffffffffffffffffff1663c04be454336040518263ffffffff1660e01b81526004016121419190615421565b60006040518083038186803b15801561215957600080fd5b505afa15801561216d573d6000803e3d6000fd5b50505050612179614597565b81816101200190600181111561218b57fe5b9081600181111561219857fe5b8152505080600960008567ffffffffffffffff1667ffffffffffffffff1681526020019081526020016000206000820151816000015560208201518160010160006101000a8154816fffffffffffffffffffffffffffffffff02191690836fffffffffffffffffffffffffffffffff16021790555060408201518160010160106101000a8154816fffffffffffffffffffffffffffffffff02191690836fffffffffffffffffffffffffffffffff16021790555060608201518160020160006101000a8154816fffffffffffffffffffffffffffffffff02191690836fffffffffffffffffffffffffffffffff16021790555060808201518160020160106101000a8154816fffffffffffffffffffffffffffffffff02191690836fffffffffffffffffffffffffffffffff16021790555060a08201518160030160006101000a81548167ffffffffffffffff021916908367ffffffffffffffff16021790555060c08201518160030160086101000a81548167ffffffffffffffff021916908367ffffffffffffffff16021790555060e08201518160030160106101000a81548167ffffffffffffffff021916908367ffffffffffffffff1602179055506101008201518160030160186101000a81548163ffffffff021916908363ffffffff16021790555061012082015181600301601c6101000a81548160ff021916908360018111156123a457fe5b0217905550905050505050565b6002600654141561242a576040517f08c379a000000000000000000000000000000000000000000000000000000000815260040180806020018281038252601d8152602001807f4c6f636b436f6e74726163743a207265656e7472616e742063616c6c2e00000081525060200191505060405180910390fd5b600260068190555060008054906101000a900473ffffffffffffffffffffffffffffffffffffffff1673ffffffffffffffffffffffffffffffffffffffff1663c7bdc5aa336040518263ffffffff1660e01b815260040161248b9190615421565b60006040518083038186803b1580156124a357600080fd5b505afa1580156124b7573d6000803e3d6000fd5b505050506000816020015114156125eb57600f60008473ffffffffffffffffffffffffffffffffffffffff1673ffffffffffffffffffffffffffffffffffffffff16815260200190815260200160002060008373ffffffffffffffffffffffffffffffffffffffff1673ffffffffffffffffffffffffffffffffffffffff168152602001908152602001600020600080820160006101000a8154906fffffffffffffffffffffffffffffffff02191690556000820160106101000a8154906fffffffffffffffffffffffffffffffff02191690556001820160006101000a81549077ffffffffffffffffffffffffffffffffffffffffffffffff02191690556001820160186101000a81549063ffffffff021916905560018201601c6101000a81549063ffffffff0219169055505061278f565b6125f481613fb6565b600f60008573ffffffffffffffffffffffffffffffffffffffff1673ffffffffffffffffffffffffffffffffffffffff16815260200190815260200160002060008473ffffffffffffffffffffffffffffffffffffffff1673ffffffffffffffffffffffffffffffffffffffff16815260200190815260200160002060008201518160000160006101000a8154816fffffffffffffffffffffffffffffffff02191690836fffffffffffffffffffffffffffffffff16021790555060208201518160000160106101000a8154816fffffffffffffffffffffffffffffffff02191690836fffffffffffffffffffffffffffffffff16021790555060408201518160010160006101000a81548177ffffffffffffffffffffffffffffffffffffffffffffffff021916908377ffffffffffffffffffffffffffffffffffffffffffffffff16021790555060608201518160010160186101000a81548163ffffffff021916908363ffffffff160217905550608082015181600101601c6101000a81548163ffffffff021916908363ffffffff1602179055509050505b6001600681905550505050565b60008054906101000a900473ffffffffffffffffffffffffffffffffffffffff1673ffffffffffffffffffffffffffffffffffffffff16639a371c846040518163ffffffff1660e01b815260040160206040518083038186803b15801561280257600080fd5b505afa158015612816573d6000803e3d6000fd5b505050506040513d601f19601f8201168201806040525081019061283a9190614d87565b73ffffffffffffffffffffffffffffffffffffffff163373ffffffffffffffffffffffffffffffffffffffff16146128a7576040517f08c379a000000000000000000000000000000000000000000000000000000000815260040161289e90615516565b60405180910390fd5b6128b081614086565b600a60008460018111156128c057fe5b60018111156128cb57fe5b815260200190815260200160002060008201518160000160006101000a8154816fffffffffffffffffffffffffffffffff02191690836fffffffffffffffffffffffffffffffff16021790555060208201518160000160106101000a8154816fffffffffffffffffffffffffffffffff02191690836fffffffffffffffffffffffffffffffff160217905550604082015181600101559050505050565b600260065414156129e1576040517f08c379a000000000000000000000000000000000000000000000000000000000815260040180806020018281038252601d8152602001807f4c6f636b436f6e74726163743a207265656e7472616e742063616c6c2e00000081525060200191505060405180910390fd5b600260068190555060008054906101000a900473ffffffffffffffffffffffffffffffffffffffff1673ffffffffffffffffffffffffffffffffffffffff1663c04be454336040518263ffffffff1660e01b8152600401612a429190615421565b60006040518083038186803b158015612a5a57600080fd5b505afa158015612a6e573d6000803e3d6000fd5b505050506000600960008467ffffffffffffffff1667ffffffffffffffff16815260200190815260200160002060030160009054906101000a900467ffffffffffffffff1690506000600960008567ffffffffffffffff1667ffffffffffffffff16815260200190815260200160002060030160189054906101000a900463ffffffff1690506000612b0884604001518560200151611f38565b90508063ffffffff168263ffffffff1614612de6578084610100019063ffffffff16908163ffffffff16815250506000808363ffffffff1614612ce057600b60008661012001516001811115612b5a57fe5b6001811115612b6557fe5b815260200190815260200160002060008463ffffffff1663ffffffff16815260200190815260200160002090506000612ba460018380549050036140f0565b67ffffffffffffffff169050808567ffffffffffffffff1614612ca0576000828281548110612bcf57fe5b90600052602060002090600491828204019190066008029054906101000a900467ffffffffffffffff16905080838767ffffffffffffffff1681548110612c1257fe5b90600052602060002090600491828204019190066008026101000a81548167ffffffffffffffff021916908367ffffffffffffffff16021790555085600960008367ffffffffffffffff1667ffffffffffffffff16815260200190815260200160002060030160006101000a81548167ffffffffffffffff021916908367ffffffffffffffff160217905550505b81805480612caa57fe5b60019003818190600052602060002090600491828204019190066008026101000a81549067ffffffffffffffff02191690559055505b60008263ffffffff161415612d155760008560a0019067ffffffffffffffff16908167ffffffffffffffff1681525050612de4565b600b60008661012001516001811115612d2a57fe5b6001811115612d3557fe5b815260200190815260200160002060008363ffffffff1663ffffffff1681526020019081526020016000209050612d6f81805490506140f0565b8560a0019067ffffffffffffffff16908167ffffffffffffffff1681525050808690806001815401808255809150506001900390600052602060002090600491828204019190066008029091909190916101000a81548167ffffffffffffffff021916908367ffffffffffffffff1602179055505b505b60008460200151148015612dfe575060008460400151145b15612f4257600960008667ffffffffffffffff1667ffffffffffffffff1681526020019081526020016000206000808201600090556001820160006101000a8154906fffffffffffffffffffffffffffffffff02191690556001820160106101000a8154906fffffffffffffffffffffffffffffffff02191690556002820160006101000a8154906fffffffffffffffffffffffffffffffff02191690556002820160106101000a8154906fffffffffffffffffffffffffffffffff02191690556003820160006101000a81549067ffffffffffffffff02191690556003820160086101000a81549067ffffffffffffffff02191690556003820160106101000a81549067ffffffffffffffff02191690556003820160186101000a81549063ffffffff021916905560038201601c6101000a81549060ff0219169055505061315b565b612f4b8461415b565b600960008767ffffffffffffffff1667ffffffffffffffff1681526020019081526020016000206000820151816000015560208201518160010160006101000a8154816fffffffffffffffffffffffffffffffff02191690836fffffffffffffffffffffffffffffffff16021790555060408201518160010160106101000a8154816fffffffffffffffffffffffffffffffff02191690836fffffffffffffffffffffffffffffffff16021790555060608201518160020160006101000a8154816fffffffffffffffffffffffffffffffff02191690836fffffffffffffffffffffffffffffffff16021790555060808201518160020160106101000a8154816fffffffffffffffffffffffffffffffff02191690836fffffffffffffffffffffffffffffffff16021790555060a08201518160030160006101000a81548167ffffffffffffffff021916908367ffffffffffffffff16021790555060c08201518160030160086101000a81548167ffffffffffffffff021916908367ffffffffffffffff16021790555060e08201518160030160106101000a81548167ffffffffffffffff021916908367ffffffffffffffff1602179055506101008201518160030160186101000a81548163ffffffff021916908363ffffffff16021790555061012082015181600301601c6101000a81548160ff0219169083600181111561315257fe5b02179055509050505b50505060016006819055505050565b600160009054906101000a900473ffffffffffffffffffffffffffffffffffffffff1681565b60026006541415613209576040517f08c379a000000000000000000000000000000000000000000000000000000000815260040180806020018281038252601d8152602001807f4c6f636b436f6e74726163743a207265656e7472616e742063616c6c2e00000081525060200191505060405180910390fd5b600260068190555060008054906101000a900473ffffffffffffffffffffffffffffffffffffffff1673ffffffffffffffffffffffffffffffffffffffff166380f556056040518163ffffffff1660e01b815260040160206040518083038186803b15801561327757600080fd5b505afa15801561328b573d6000803e3d6000fd5b505050506040513d601f19601f820116820180604052508101906132af9190614db0565b73ffffffffffffffffffffffffffffffffffffffff163373ffffffffffffffffffffffffffffffffffffffff161461331c576040517f08c379a000000000000000000000000000000000000000000000000000000000815260040161331390615516565b60405180910390fd5b600360009054906101000a900473ffffffffffffffffffffffffffffffffffffffff1673ffffffffffffffffffffffffffffffffffffffff1663a9059cbb83836040518363ffffffff1660e01b815260040161337992919061543c565b602060405180830381600087803b15801561339357600080fd5b505af11580156133a7573d6000803e3d6000fd5b505050506040513d601f19601f820116820180604052508101906133cb9190614ce3565b5060016006819055505050565b60026006541415613451576040517f08c379a000000000000000000000000000000000000000000000000000000000815260040180806020018281038252601d8152602001807f4c6f636b436f6e74726163743a207265656e7472616e742063616c6c2e00000081525060200191505060405180910390fd5b600260068190555060008054906101000a900473ffffffffffffffffffffffffffffffffffffffff1673ffffffffffffffffffffffffffffffffffffffff1663e7c37799336040518263ffffffff1660e01b81526004016134b29190615421565b60006040518083038186803b1580156134ca57600080fd5b505afa1580156134de573d6000803e3d6000fd5b5050505060008060018111156134f057fe5b8460018111156134fc57fe5b1461352957600860009054906101000a900473ffffffffffffffffffffffffffffffffffffffff1661354d565b600760009054906101000a900473ffffffffffffffffffffffffffffffffffffffff165b90508073ffffffffffffffffffffffffffffffffffffffff1663a9059cbb84846040518363ffffffff1660e01b815260040161358a92919061543c565b602060405180830381600087803b1580156135a457600080fd5b505af11580156135b8573d6000803e3d6000fd5b505050506040513d601f19601f820116820180604052508101906135dc9190614ce3565b6135e557600080fd5b506001600681905550505050565b6135fb614482565b6040518060a0016040528083600001516fffffffffffffffffffffffffffffffff16815260200183602001516fffffffffffffffffffffffffffffffff16815260200183606001516fffffffffffffffffffffffffffffffff1681526020018360800151815260200183604001516fffffffffffffffffffffffffffffffff168152509050919050565b600080828401905083811015613703576040517f08c379a000000000000000000000000000000000000000000000000000000000815260040180806020018281038252601b8152602001807f536166654d6174683a206164646974696f6e206f766572666c6f77000000000081525060200191505060405180910390fd5b8091505092915050565b6137156144b1565b6040518061014001604052808360000151815260200183602001516fffffffffffffffffffffffffffffffff16815260200183604001516fffffffffffffffffffffffffffffffff16815260200183606001516fffffffffffffffffffffffffffffffff16815260200183608001516fffffffffffffffffffffffffffffffff1681526020018360a0015167ffffffffffffffff1681526020018360c0015167ffffffffffffffff1681526020018360e0015167ffffffffffffffff16815260200183610100015163ffffffff16815260200183610120015160018111156137f957fe5b8152509050919050565b613814670de0b6b3a7640000614271565b6bffffffffffffffffffffffff16600c60010160006101000a8154816fffffffffffffffffffffffffffffffff02191690836fffffffffffffffffffffffffffffffff16021790555061386e670de0b6b3a7640000613c1f565b600a600080600181111561387e57fe5b600181111561388957fe5b815260200190815260200160002060000160006101000a8154816fffffffffffffffffffffffffffffffff02191690836fffffffffffffffffffffffffffffffff1602179055506138e1670de0b6b3a7640000613c1f565b600a60006001808111156138f157fe5b60018111156138fc57fe5b815260200190815260200160002060000160006101000a8154816fffffffffffffffffffffffffffffffff02191690836fffffffffffffffffffffffffffffffff16021790555060008054906101000a900473ffffffffffffffffffffffffffffffffffffffff1673ffffffffffffffffffffffffffffffffffffffff16633fc8cef36040518163ffffffff1660e01b815260040160206040518083038186803b1580156139a957600080fd5b505afa1580156139bd573d6000803e3d6000fd5b505050506040513d601f19601f820116820180604052508101906139e19190614d35565b600760006101000a81548173ffffffffffffffffffffffffffffffffffffffff021916908373ffffffffffffffffffffffffffffffffffffffff16021790555060008054906101000a900473ffffffffffffffffffffffffffffffffffffffff1673ffffffffffffffffffffffffffffffffffffffff1663a28d57d86040518163ffffffff1660e01b815260040160206040518083038186803b158015613a8757600080fd5b505afa158015613a9b573d6000803e3d6000fd5b505050506040513d601f19601f82011682018060405250810190613abf9190614d35565b600860006101000a81548173ffffffffffffffffffffffffffffffffffffffff021916908373ffffffffffffffffffffffffffffffffffffffff160217905550565b613b09614661565b6040518060a00160405280613b218460000151613c1f565b6fffffffffffffffffffffffffffffffff168152602001613b458460200151613c1f565b6fffffffffffffffffffffffffffffffff168152602001613b698460800151613c1f565b6fffffffffffffffffffffffffffffffff168152602001613b8d8460400151613c1f565b6fffffffffffffffffffffffffffffffff16815260200183606001518152509050919050565b6000613bcb8286018481613bc357fe5b0485036142e0565b9050949350505050565b6000613c1783836040518060400160405280601e81526020017f536166654d6174683a207375627472616374696f6e206f766572666c6f770000815250614347565b905092915050565b60007001000000000000000000000000000000008210613c8a576040517f08c379a0000000000000000000000000000000000000000000000000000000008152600401808060200182810382526027815260200180615a026027913960400191505060405180910390fd5b819050919050565b613c9a614533565b6040518060a0016040528083600001516fffffffffffffffffffffffffffffffff16815260200183602001516fffffffffffffffffffffffffffffffff168152602001836040015177ffffffffffffffffffffffffffffffffffffffffffffffff168152602001836060015163ffffffff1667ffffffffffffffff168152602001836080015163ffffffff1667ffffffffffffffff168152509050919050565b600080841480613d4a5750600083145b15613d585760009050613e42565b6000821415613dcf576040517f08c379a000000000000000000000000000000000000000000000000000000000815260040180806020018281038252601b8152602001807f536166654d6174683a206469766973696f6e206279207a65726f2e000000000081525060200191505060405180910390fd5b828402905082848281613dde57fe5b0414613e35576040517f08c379a00000000000000000000000000000000000000000000000000000000081526004018080602001828103825260228152602001806159e06022913960400191505060405180910390fd5b818181613e3e57fe5b0490505b9392505050565b600080831415613e5c5760009050613f56565b6000821415613ed3576040517f08c379a000000000000000000000000000000000000000000000000000000000815260040180806020018281038252601b8152602001807f536166654d6174683a206469766973696f6e206279207a65726f2e000000000081525060200191505060405180910390fd5b670de0b6b3a764000083029050670de0b6b3a7640000838281613ef257fe5b0414613f49576040517f08c379a00000000000000000000000000000000000000000000000000000000081526004018080602001828103825260228152602001806159e06022913960400191505060405180910390fd5b818181613f5257fe5b0490505b92915050565b613f64614576565b604051806060016040528083600001516fffffffffffffffffffffffffffffffff16815260200183602001516fffffffffffffffffffffffffffffffff16815260200183604001518152509050919050565b613fbe6146d8565b6040518060a00160405280613fd68460000151613c1f565b6fffffffffffffffffffffffffffffffff168152602001613ffa8460200151613c1f565b6fffffffffffffffffffffffffffffffff16815260200161401e8460400151614407565b77ffffffffffffffffffffffffffffffffffffffffffffffff168152602001614054846060015167ffffffffffffffff166142e0565b63ffffffff168152602001614076846080015167ffffffffffffffff166142e0565b63ffffffff168152509050919050565b61408e614751565b60405180606001604052806140a68460000151613c1f565b6fffffffffffffffffffffffffffffffff1681526020016140ca8460200151613c1f565b6fffffffffffffffffffffffffffffffff16815260200183604001518152509050919050565b6000680100000000000000008210614153576040517f08c379a0000000000000000000000000000000000000000000000000000000008152600401808060200182810382526026815260200180615a296026913960400191505060405180910390fd5b819050919050565b614163614597565b604051806101400160405280836000015181526020016141868460200151613c1f565b6fffffffffffffffffffffffffffffffff1681526020016141aa8460400151613c1f565b6fffffffffffffffffffffffffffffffff1681526020016141ce8460600151613c1f565b6fffffffffffffffffffffffffffffffff1681526020016141f28460800151613c1f565b6fffffffffffffffffffffffffffffffff1681526020018360a0015167ffffffffffffffff1681526020018360c0015167ffffffffffffffff1681526020018360e0015167ffffffffffffffff16815260200183610100015163ffffffff168152602001836101200151600181111561426757fe5b8152509050919050565b60006c0100000000000000000000000082106142d8576040517f08c379a00000000000000000000000000000000000000000000000000000000081526004018080602001828103825260268152602001806159936026913960400191505060405180910390fd5b819050919050565b6000640100000000821061433f576040517f08c379a0000000000000000000000000000000000000000000000000000000008152600401808060200182810382526026815260200180615a4f6026913960400191505060405180910390fd5b819050919050565b60008383111582906143f4576040517f08c379a00000000000000000000000000000000000000000000000000000000081526004018080602001828103825283818151815260200191508051906020019080838360005b838110156143b957808201518184015260208101905061439e565b50505050905090810190601f1680156143e65780820380516001836020036101000a031916815260200191505b509250505060405180910390fd5b5060008385039050809150509392505050565b60007801000000000000000000000000000000000000000000000000821061447a576040517f08c379a00000000000000000000000000000000000000000000000000000000081526004018080602001828103825260278152602001806159b96027913960400191505060405180910390fd5b819050919050565b6040518060a0016040528060008152602001600081526020016000815260200160008152602001600081525090565b6040518061014001604052806000815260200160008152602001600081526020016000815260200160008152602001600067ffffffffffffffff168152602001600067ffffffffffffffff168152602001600067ffffffffffffffff168152602001600063ffffffff1681526020016000600181111561452d57fe5b81525090565b6040518060a00160405280600081526020016000815260200160008152602001600067ffffffffffffffff168152602001600067ffffffffffffffff1681525090565b60405180606001604052806000815260200160008152602001600081525090565b6040518061014001604052806000815260200160006fffffffffffffffffffffffffffffffff16815260200160006fffffffffffffffffffffffffffffffff16815260200160006fffffffffffffffffffffffffffffffff16815260200160006fffffffffffffffffffffffffffffffff168152602001600067ffffffffffffffff168152602001600067ffffffffffffffff168152602001600067ffffffffffffffff168152602001600063ffffffff1681526020016000600181111561465b57fe5b81525090565b6040518060a0016040528060006fffffffffffffffffffffffffffffffff16815260200160006fffffffffffffffffffffffffffffffff16815260200160006fffffffffffffffffffffffffffffffff16815260200160006fffffffffffffffffffffffffffffffff168152602001600081525090565b6040518060a0016040528060006fffffffffffffffffffffffffffffffff16815260200160006fffffffffffffffffffffffffffffffff168152602001600077ffffffffffffffffffffffffffffffffffffffffffffffff168152602001600063ffffffff168152602001600063ffffffff1681525090565b604051806060016040528060006fffffffffffffffffffffffffffffffff16815260200160006fffffffffffffffffffffffffffffffff168152602001600081525090565b6000813590506147a581615885565b92915050565b600082601f8301126147bc57600080fd5b81356147cf6147ca82615633565b615602565b915081818352602084019350602081019050838560208402820111156147f457600080fd5b60005b83811015614824578161480a8882614b77565b8452602084019350602083019250506001810190506147f7565b5050505092915050565b60008135905061483d8161589c565b92915050565b6000815190506148528161589c565b92915050565b600081359050614867816158b3565b92915050565b60008151905061487c816158ca565b92915050565b600081359050614891816158e1565b92915050565b6000815190506148a6816158f8565b92915050565b6000815190506148bb8161590f565b92915050565b6000813590506148d081615926565b92915050565b6000813590506148e58161593d565b92915050565b600061014082840312156148fe57600080fd5b614909610140615602565b9050600061491984828501614b4d565b600083015250602061492d84828501614b4d565b602083015250604061494184828501614b4d565b604083015250606061495584828501614b4d565b606083015250608061496984828501614b4d565b60808301525060a061497d84828501614b77565b60a08301525060c061499184828501614b77565b60c08301525060e06149a584828501614b77565b60e0830152506101006149ba84828501614b62565b610100830152506101206149d0848285016148d6565b6101208301525092915050565b6000606082840312156149ef57600080fd5b6149f96060615602565b90506000614a0984828501614b4d565b6000830152506020614a1d84828501614b4d565b6020830152506040614a3184828501614b4d565b60408301525092915050565b600060a08284031215614a4f57600080fd5b614a5960a0615602565b90506000614a6984828501614b4d565b6000830152506020614a7d84828501614b4d565b6020830152506040614a9184828501614b4d565b6040830152506060614aa584828501614b77565b6060830152506080614ab984828501614b77565b60808301525092915050565b600060a08284031215614ad757600080fd5b614ae160a0615602565b90506000614af184828501614b4d565b6000830152506020614b0584828501614b4d565b6020830152506040614b1984828501614b4d565b6040830152506060614b2d84828501614b4d565b6060830152506080614b4184828501614b4d565b60808301525092915050565b600081359050614b5c8161594d565b92915050565b600081359050614b7181615964565b92915050565b600081359050614b868161597b565b92915050565b60008060408385031215614b9f57600080fd5b6000614bad85828601614796565b9250506020614bbe858286016148c1565b9150509250929050565b600080600060e08486031215614bdd57600080fd5b6000614beb86828701614796565b9350506020614bfc868287016148c1565b9250506040614c0d86828701614a3d565b9150509250925092565b600080600060608486031215614c2c57600080fd5b6000614c3a86828701614796565b9350506020614c4b868287016148c1565b9250506040614c5c86828701614b4d565b9150509250925092565b60008060408385031215614c7957600080fd5b6000614c8785828601614796565b9250506020614c9885828601614b4d565b9150509250929050565b600060208284031215614cb457600080fd5b600082013567ffffffffffffffff811115614cce57600080fd5b614cda848285016147ab565b91505092915050565b600060208284031215614cf557600080fd5b6000614d0384828501614843565b91505092915050565b600060208284031215614d1e57600080fd5b6000614d2c84828501614858565b91505092915050565b600060208284031215614d4757600080fd5b6000614d558482850161486d565b91505092915050565b600060208284031215614d7057600080fd5b6000614d7e84828501614882565b91505092915050565b600060208284031215614d9957600080fd5b6000614da784828501614897565b91505092915050565b600060208284031215614dc257600080fd5b6000614dd0848285016148ac565b91505092915050565b600060208284031215614deb57600080fd5b6000614df9848285016148d6565b91505092915050565b600080600060608486031215614e1757600080fd5b6000614e25868287016148d6565b9350506020614e3686828701614796565b9250506040614e4786828701614b4d565b9150509250925092565b60008060808385031215614e6457600080fd5b6000614e72858286016148d6565b9250506020614e83858286016149dd565b9150509250929050565b600080600060608486031215614ea257600080fd5b6000614eb0868287016148d6565b9350506020614ec186828701614b4d565b9250506040614ed28682870161482e565b9150509250925092565b60008060408385031215614eef57600080fd5b6000614efd858286016148d6565b9250506020614f0e85828601614b62565b9150509250929050565b600060a08284031215614f2a57600080fd5b6000614f3884828501614ac5565b91505092915050565b600060208284031215614f5357600080fd5b6000614f6184828501614b4d565b91505092915050565b60008060408385031215614f7d57600080fd5b6000614f8b85828601614b4d565b9250506020614f9c85828601614b4d565b9150509250929050565b600060208284031215614fb857600080fd5b6000614fc684828501614b77565b91505092915050565b60008060408385031215614fe257600080fd5b6000614ff085828601614b77565b9250506020615001858286016148d6565b9150509250929050565b600080610160838503121561501f57600080fd5b600061502d85828601614b77565b925050602061503e858286016148eb565b9150509250929050565b600061505483836153bb565b60208301905092915050565b600061506c83836153f7565b60208301905092915050565b61508181615803565b82525050565b615090816156e2565b82525050565b60006150a18261567f565b6150ab81856156af565b93506150b68361565f565b8060005b838110156150e75781516150ce8882615048565b97506150d983615695565b9250506001810190506150ba565b5085935050505092915050565b60006150ff8261568a565b61510981856156c0565b93506151148361566f565b8060005b8381101561514557815161512c8882615060565b9750615137836156a2565b925050600181019050615118565b5085935050505092915050565b61515b816156f4565b82525050565b61516a81615815565b82525050565b61517981615839565b82525050565b61518881615839565b82525050565b600061519b600f836156d1565b91507f4e6f7420417574686f72697a65642e00000000000000000000000000000000006000830152602082019050919050565b610140820160008201516151e560008501826153bb565b5060208201516151f860208501826153bb565b50604082015161520b60408501826153bb565b50606082015161521e60608501826153bb565b50608082015161523160808501826153bb565b5060a082015161524460a08501826153f7565b5060c082015161525760c08501826153f7565b5060e082015161526a60e08501826153f7565b5061010082015161527f6101008501826153d9565b50610120820151615294610120850182615170565b50505050565b6060820160008201516152b060008501826153bb565b5060208201516152c360208501826153bb565b5060408201516152d660408501826153bb565b50505050565b60a0820160008201516152f260008501826153bb565b50602082015161530560208501826153bb565b50604082015161531860408501826153bb565b50606082015161532b60608501826153f7565b50608082015161533e60808501826153f7565b50505050565b60a08201600082015161535a60008501826153bb565b50602082015161536d60208501826153bb565b50604082015161538060408501826153bb565b50606082015161539360608501826153bb565b5060808201516153a660808501826153bb565b50505050565b6153b581615799565b82525050565b6153c4816157d5565b82525050565b6153d3816157d5565b82525050565b6153e2816157df565b82525050565b6153f1816157df565b82525050565b615400816157ef565b82525050565b600060208201905061541b6000830184615087565b92915050565b60006020820190506154366000830184615078565b92915050565b60006040820190506154516000830185615087565b61545e60208301846153ca565b9392505050565b6000602082019050818103600083015261547f8184615096565b905092915050565b600060208201905081810360008301526154a181846150f4565b905092915050565b60006020820190506154be6000830184615152565b92915050565b60006020820190506154d96000830184615161565b92915050565b60006060820190506154f4600083018661517f565b61550160208301856153ca565b61550e60408301846153ca565b949350505050565b6000602082019050818103600083015261552f8161518e565b9050919050565b60006101408201905061554c60008301846151ce565b92915050565b6000606082019050615567600083018461529a565b92915050565b600060a08201905061558260008301846152dc565b92915050565b600060a08201905061559d6000830184615344565b92915050565b60006040820190506155b860008301856153ac565b6155c560208301846153ac565b9392505050565b60006020820190506155e160008301846153ca565b92915050565b60006020820190506155fc60008301846153e8565b92915050565b6000604051905081810181811067ffffffffffffffff821117156156295761562861586f565b5b8060405250919050565b600067ffffffffffffffff82111561564e5761564d61586f565b5b602082029050602081019050919050565b6000819050602082019050919050565b6000819050602082019050919050565b600081519050919050565b600081519050919050565b6000602082019050919050565b6000602082019050919050565b600082825260208201905092915050565b600082825260208201905092915050565b600082825260208201905092915050565b60006156ed826157b5565b9050919050565b60008115159050919050565b60007fffffffff0000000000000000000000000000000000000000000000000000000082169050919050565b6000615737826156e2565b9050919050565b6000615749826156e2565b9050919050565b600061575b826156e2565b9050919050565b600061576d826156e2565b9050919050565b600061577f826156e2565b9050919050565b600081905061579482615871565b919050565b60006fffffffffffffffffffffffffffffffff82169050919050565b600073ffffffffffffffffffffffffffffffffffffffff82169050919050565b6000819050919050565b600063ffffffff82169050919050565b600067ffffffffffffffff82169050919050565b600061580e8261584b565b9050919050565b600061582082615827565b9050919050565b6000615832826157b5565b9050919050565b600061584482615786565b9050919050565b60006158568261585d565b9050919050565b6000615868826157b5565b9050919050565bfe5b600281106158825761588161586f565b5b50565b61588e816156e2565b811461589957600080fd5b50565b6158a5816156f4565b81146158b057600080fd5b50565b6158bc81615700565b81146158c757600080fd5b50565b6158d38161572c565b81146158de57600080fd5b50565b6158ea8161573e565b81146158f557600080fd5b50565b61590181615750565b811461590c57600080fd5b50565b61591881615762565b811461592357600080fd5b50565b61592f81615774565b811461593a57600080fd5b50565b6002811061594a57600080fd5b50565b615956816157d5565b811461596157600080fd5b50565b61596d816157df565b811461597857600080fd5b50565b615984816157ef565b811461598f57600080fd5b5056fe53616665436173743a2076616c756520646f65736e27742066697420696e203936206269747353616665436173743a2076616c756520646f65736e27742066697420696e203139322062697473536166654d6174683a206d756c7469706c69636174696f6e206f766572666c6f772e53616665436173743a2076616c756520646f65736e27742066697420696e20313238206269747353616665436173743a2076616c756520646f65736e27742066697420696e203634206269747353616665436173743a2076616c756520646f65736e27742066697420696e2033322062697473a264697066735822122064efea61a28864af2394fc983fc83abbe90ed64fa0291fd75c783acbc939df4264736f6c63430007040033",
  "linkReferences": {},
  "deployedLinkReferences": {}
}