{
  "_format": "hh-sol-artifact-1",
  "contractName": "Accounting",
  "sourceName": "contracts/core/storage/Accounting.sol",
  "abi": [
    {
      "anonymous": false,
      "inputs": [
        {
          "indexed": true,
          "internalType": "address",
          "name": "governor",
          "type": "address"
        }
      ],
      "name": "Initialized",
      "type": "event"
    },
    {
      "anonymous": false,
      "inputs": [],
      "name": "Stopped",
      "type": "event"
    },
    {
      "inputs": [
        {
          "internalType": "enum IGovernor.Collateral",
          "name": "collateralType",
          "type": "uint8"
        },
        {
          "internalType": "uint256",
          "name": "count",
          "type": "uint256"
        },
        {
          "internalType": "bool",
          "name": "increase",
          "type": "bool"
        }
      ],
      "name": "adjustDebt",
      "outputs": [
        {
          "internalType": "uint128",
          "name": "ethDebt",
          "type": "uint128"
        },
        {
          "internalType": "uint128",
          "name": "btcDebt",
          "type": "uint128"
        }
      ],
      "stateMutability": "nonpayable",
      "type": "function"
    },
    {
      "inputs": [
        {
          "internalType": "uint256",
          "name": "debtCount",
          "type": "uint256"
        },
        {
          "internalType": "uint256",
          "name": "collateralCount",
          "type": "uint256"
        }
      ],
      "name": "calculateCollateralizationBand",
      "outputs": [
        {
          "internalType": "uint32",
          "name": "band",
          "type": "uint32"
        }
      ],
      "stateMutability": "pure",
      "type": "function"
    },
    {
      "inputs": [
        {
          "internalType": "uint256",
          "name": "c",
          "type": "uint256"
        }
      ],
      "name": "collateralizationBand",
      "outputs": [
        {
          "internalType": "uint32",
          "name": "band",
          "type": "uint32"
        }
      ],
      "stateMutability": "pure",
      "type": "function"
    },
    {
      "inputs": [],
      "name": "debt",
      "outputs": [
        {
          "internalType": "uint256",
          "name": "",
          "type": "uint256"
        }
      ],
      "stateMutability": "view",
      "type": "function"
    },
    {
      "inputs": [
        {
          "internalType": "enum IGovernor.Collateral",
          "name": "collateralType",
          "type": "uint8"
        }
      ],
      "name": "debtByCollateral",
      "outputs": [
        {
          "internalType": "uint256",
          "name": "",
          "type": "uint256"
        }
      ],
      "stateMutability": "view",
      "type": "function"
    },
    {
      "inputs": [],
      "name": "deployer",
      "outputs": [
        {
          "internalType": "address",
          "name": "",
          "type": "address"
        }
      ],
      "stateMutability": "view",
      "type": "function"
    },
    {
      "inputs": [
        {
          "internalType": "address",
          "name": "to",
          "type": "address"
        },
        {
          "internalType": "contract IUniswapV2Pair",
          "name": "pair",
          "type": "address"
        },
        {
          "internalType": "uint256",
          "name": "count",
          "type": "uint256"
        }
      ],
      "name": "distributePairTokens",
      "outputs": [],
      "stateMutability": "nonpayable",
      "type": "function"
    },
    {
      "inputs": [
        {
          "internalType": "uint64",
          "name": "positionID",
          "type": "uint64"
        }
      ],
      "name": "getBasicPositionInfo",
      "outputs": [
        {
          "internalType": "enum IGovernor.Collateral",
          "name": "collateralType",
          "type": "uint8"
        },
        {
          "internalType": "uint256",
          "name": "debtCount",
          "type": "uint256"
        },
        {
          "internalType": "uint256",
          "name": "collateralCount",
          "type": "uint256"
        }
      ],
      "stateMutability": "view",
      "type": "function"
    },
    {
      "inputs": [
        {
          "internalType": "enum IGovernor.Collateral",
          "name": "collateralType",
          "type": "uint8"
        }
      ],
      "name": "getLiquidationAccount",
      "outputs": [
        {
          "components": [
            {
              "internalType": "uint256",
              "name": "startDebtExchangeRate",
              "type": "uint256"
            },
            {
              "internalType": "uint256",
              "name": "debt",
              "type": "uint256"
            },
            {
              "internalType": "uint256",
              "name": "collateral",
              "type": "uint256"
            }
          ],
          "internalType": "struct IAccounting.LiquidationAccount",
          "name": "lqAcct",
          "type": "tuple"
        }
      ],
      "stateMutability": "view",
      "type": "function"
    },
    {
      "inputs": [
        {
          "internalType": "address",
          "name": "owner",
          "type": "address"
        },
        {
          "internalType": "contract IUniswapV2Pair",
          "name": "pair",
          "type": "address"
        }
      ],
      "name": "getPairTokenPosition",
      "outputs": [
        {
          "components": [
            {
              "internalType": "uint256",
              "name": "totalRewards",
              "type": "uint256"
            },
            {
              "internalType": "uint256",
              "name": "count",
              "type": "uint256"
            },
            {
              "internalType": "uint256",
              "name": "cumulativePairCoinCount",
              "type": "uint256"
            },
            {
              "internalType": "uint64",
              "name": "lastPeriodRewarded",
              "type": "uint64"
            },
            {
              "internalType": "uint64",
              "name": "unlockPeriod",
              "type": "uint64"
            }
          ],
          "internalType": "struct IAccounting.PairTokenPosition",
          "name": "pt",
          "type": "tuple"
        }
      ],
      "stateMutability": "view",
      "type": "function"
    },
    {
      "inputs": [
        {
          "internalType": "uint64",
          "name": "positionID",
          "type": "uint64"
        }
      ],
      "name": "getPosition",
      "outputs": [
        {
          "components": [
            {
              "internalType": "uint256",
              "name": "startCumulativeDebt",
              "type": "uint256"
            },
            {
              "internalType": "uint256",
              "name": "collateral",
              "type": "uint256"
            },
            {
              "internalType": "uint256",
              "name": "debt",
              "type": "uint256"
            },
            {
              "internalType": "uint256",
              "name": "startDebtExchangeRate",
              "type": "uint256"
            },
            {
              "internalType": "uint256",
              "name": "startCNPRewards",
              "type": "uint256"
            },
            {
              "internalType": "uint64",
              "name": "collateralizationBandIndex",
              "type": "uint64"
            },
            {
              "internalType": "uint64",
              "name": "lastUpdateTime",
              "type": "uint64"
            },
            {
              "internalType": "uint64",
              "name": "lastBorrowTime",
              "type": "uint64"
            },
            {
              "internalType": "uint32",
              "name": "collateralizationBand",
              "type": "uint32"
            },
            {
              "internalType": "enum IGovernor.Collateral",
              "name": "collateralType",
              "type": "uint8"
            }
          ],
          "internalType": "struct IAccounting.DebtPosition",
          "name": "",
          "type": "tuple"
        }
      ],
      "stateMutability": "view",
      "type": "function"
    },
    {
      "inputs": [],
      "name": "getSystemDebtInfo",
      "outputs": [
        {
          "components": [
            {
              "internalType": "uint256",
              "name": "ethDebt",
              "type": "uint256"
            },
            {
              "internalType": "uint256",
              "name": "btcDebt",
              "type": "uint256"
            },
            {
              "internalType": "uint256",
              "name": "totalCNPRewards",
              "type": "uint256"
            },
            {
              "internalType": "uint256",
              "name": "cumulativeDebt",
              "type": "uint256"
            },
            {
              "internalType": "uint256",
              "name": "debtExchangeRate",
              "type": "uint256"
            }
          ],
          "internalType": "struct IAccounting.SystemDebtInfo",
          "name": "",
          "type": "tuple"
        }
      ],
      "stateMutability": "view",
      "type": "function"
    },
    {
      "inputs": [],
      "name": "governor",
      "outputs": [
        {
          "internalType": "contract IGovernor",
          "name": "",
          "type": "address"
        }
      ],
      "stateMutability": "view",
      "type": "function"
    },
    {
      "inputs": [
        {
          "internalType": "contract IGovernor",
          "name": "_governor",
          "type": "address"
        }
      ],
      "name": "init",
      "outputs": [],
      "stateMutability": "nonpayable",
      "type": "function"
    },
    {
      "inputs": [
        {
          "internalType": "uint64[]",
          "name": "positionIDs",
          "type": "uint64[]"
        }
      ],
      "name": "positionsCollateralization",
      "outputs": [
        {
          "internalType": "uint256[]",
          "name": "collateralizations",
          "type": "uint256[]"
        }
      ],
      "stateMutability": "view",
      "type": "function"
    },
    {
      "inputs": [
        {
          "internalType": "enum IGovernor.Collateral",
          "name": "collateralType",
          "type": "uint8"
        },
        {
          "internalType": "uint32",
          "name": "band",
          "type": "uint32"
        }
      ],
      "name": "positionsForBand",
      "outputs": [
        {
          "internalType": "uint64[]",
          "name": "positions",
          "type": "uint64[]"
        }
      ],
      "stateMutability": "view",
      "type": "function"
    },
    {
      "inputs": [
        {
          "internalType": "uint64",
          "name": "positionID",
          "type": "uint64"
        },
        {
          "internalType": "enum IGovernor.Collateral",
          "name": "collateralType",
          "type": "uint8"
        }
      ],
      "name": "registerPosition",
      "outputs": [],
      "stateMutability": "nonpayable",
      "type": "function"
    },
    {
      "inputs": [
        {
          "internalType": "enum IGovernor.Collateral",
          "name": "collateralType",
          "type": "uint8"
        },
        {
          "internalType": "address",
          "name": "dest",
          "type": "address"
        },
        {
          "internalType": "uint256",
          "name": "count",
          "type": "uint256"
        }
      ],
      "name": "sendCollateral",
      "outputs": [],
      "stateMutability": "nonpayable",
      "type": "function"
    },
    {
      "inputs": [
        {
          "internalType": "address",
          "name": "dest",
          "type": "address"
        },
        {
          "internalType": "uint256",
          "name": "count",
          "type": "uint256"
        }
      ],
      "name": "sendLentCoin",
      "outputs": [],
      "stateMutability": "nonpayable",
      "type": "function"
    },
    {
      "inputs": [
        {
          "internalType": "enum IGovernor.Collateral",
          "name": "collateralType",
          "type": "uint8"
        },
        {
          "components": [
            {
              "internalType": "uint256",
              "name": "startDebtExchangeRate",
              "type": "uint256"
            },
            {
              "internalType": "uint256",
              "name": "debt",
              "type": "uint256"
            },
            {
              "internalType": "uint256",
              "name": "collateral",
              "type": "uint256"
            }
          ],
          "internalType": "struct IAccounting.LiquidationAccount",
          "name": "lqAcct",
          "type": "tuple"
        }
      ],
      "name": "setLiquidationAccount",
      "outputs": [],
      "stateMutability": "nonpayable",
      "type": "function"
    },
    {
      "inputs": [
        {
          "internalType": "address",
          "name": "owner",
          "type": "address"
        },
        {
          "internalType": "contract IUniswapV2Pair",
          "name": "pair",
          "type": "address"
        },
        {
          "components": [
            {
              "internalType": "uint256",
              "name": "totalRewards",
              "type": "uint256"
            },
            {
              "internalType": "uint256",
              "name": "count",
              "type": "uint256"
            },
            {
              "internalType": "uint256",
              "name": "cumulativePairCoinCount",
              "type": "uint256"
            },
            {
              "internalType": "uint64",
              "name": "lastPeriodRewarded",
              "type": "uint64"
            },
            {
              "internalType": "uint64",
              "name": "unlockPeriod",
              "type": "uint64"
            }
          ],
          "internalType": "struct IAccounting.PairTokenPosition",
          "name": "pt",
          "type": "tuple"
        }
      ],
      "name": "setPairTokenPosition",
      "outputs": [],
      "stateMutability": "nonpayable",
      "type": "function"
    },
    {
      "inputs": [
        {
          "internalType": "uint64",
          "name": "positionID",
          "type": "uint64"
        },
        {
          "components": [
            {
              "internalType": "uint256",
              "name": "startCumulativeDebt",
              "type": "uint256"
            },
            {
              "internalType": "uint256",
              "name": "collateral",
              "type": "uint256"
            },
            {
              "internalType": "uint256",
              "name": "debt",
              "type": "uint256"
            },
            {
              "internalType": "uint256",
              "name": "startDebtExchangeRate",
              "type": "uint256"
            },
            {
              "internalType": "uint256",
              "name": "startCNPRewards",
              "type": "uint256"
            },
            {
              "internalType": "uint64",
              "name": "collateralizationBandIndex",
              "type": "uint64"
            },
            {
              "internalType": "uint64",
              "name": "lastUpdateTime",
              "type": "uint64"
            },
            {
              "internalType": "uint64",
              "name": "lastBorrowTime",
              "type": "uint64"
            },
            {
              "internalType": "uint32",
              "name": "collateralizationBand",
              "type": "uint32"
            },
            {
              "internalType": "enum IGovernor.Collateral",
              "name": "collateralType",
              "type": "uint8"
            }
          ],
          "internalType": "struct IAccounting.DebtPosition",
          "name": "dp",
          "type": "tuple"
        }
      ],
      "name": "setPosition",
      "outputs": [],
      "stateMutability": "nonpayable",
      "type": "function"
    },
    {
      "inputs": [
        {
          "components": [
            {
              "internalType": "uint256",
              "name": "ethDebt",
              "type": "uint256"
            },
            {
              "internalType": "uint256",
              "name": "btcDebt",
              "type": "uint256"
            },
            {
              "internalType": "uint256",
              "name": "totalCNPRewards",
              "type": "uint256"
            },
            {
              "internalType": "uint256",
              "name": "cumulativeDebt",
              "type": "uint256"
            },
            {
              "internalType": "uint256",
              "name": "debtExchangeRate",
              "type": "uint256"
            }
          ],
          "internalType": "struct IAccounting.SystemDebtInfo",
          "name": "_sdi",
          "type": "tuple"
        }
      ],
      "name": "setSystemDebtInfo",
      "outputs": [],
      "stateMutability": "nonpayable",
      "type": "function"
    },
    {
      "inputs": [],
      "name": "stopped",
      "outputs": [
        {
          "internalType": "bool",
          "name": "",
          "type": "bool"
        }
      ],
      "stateMutability": "view",
      "type": "function"
    },
    {
      "inputs": [
        {
          "internalType": "bytes4",
          "name": "action",
          "type": "bytes4"
        }
      ],
      "name": "validUpdate",
      "outputs": [
        {
          "internalType": "bool",
          "name": "",
          "type": "bool"
        }
      ],
      "stateMutability": "view",
      "type": "function"
    }
  ],
  "bytecode": "0x608060405234801561001057600080fd5b5033600160006101000a81548173ffffffffffffffffffffffffffffffffffffffff021916908373ffffffffffffffffffffffffffffffffffffffff1602179055506001600681905550615bc4806200006a6000396000f3fe608060405234801561001057600080fd5b50600436106101a35760003560e01c806355a86b3f116100ee5780637e890dcf11610097578063a075bd0111610071578063a075bd01146104db578063d5f39488146104f7578063db795bca14610515578063f13c16b014610531576101a3565b80637e890dcf14610487578063827b78ba146104a35780638cf99f98146104bf576101a3565b806367ee7307116100c857806367ee7307146104095780636d0f69171461043957806375f12b2114610469576101a3565b806355a86b3f146103775780635e016b90146103a75780636594da9f146103d7576101a3565b80631e70dda8116101505780634b6f31981161012a5780634b6f3198146102e65780634b8c3f37146103175780634d83e74714610347576101a3565b80631e70dda81461027e5780633b1836cb1461029a5780633ef736c5146102ca576101a3565b80630f85fc5a116101815780630f85fc5a14610202578063113cf1ab1461023257806319ab453c14610262576101a3565b806306ef2d80146101a85780630c340a24146101c65780630dca59c1146101e4575b600080fd5b6101b061054d565b6040516101bd91906156a2565b60405180910390f35b6101ce6106a1565b6040516101db91906155de565b60405180910390f35b6101ec6106c5565b6040516101f991906156e6565b60405180910390f35b61021c600480360381019061021791906150c0565b610745565b6040516102299190615650565b60405180910390f35b61024c60048036038101906102479190614e26565b6109aa565b60405161025991906155c3565b60405180910390f35b61027c60048036038101906102779190614e78565b610a12565b005b61029860048036038101906102939190615032565b610e2b565b005b6102b460048036038101906102af919061505b565b611054565b6040516102c19190615701565b60405180910390f35b6102e460048036038101906102df9190614d31565b61142e565b005b61030060048036038101906102fb9190614fa7565b6115db565b60405161030e9291906156bd565b60405180910390f35b610331600480360381019061032c9190614ef3565b61189b565b60405161033e91906156e6565b60405180910390f35b610361600480360381019061035c9190614ca6565b61191d565b60405161036e9190615687565b60405180910390f35b610391600480360381019061038c9190614ff6565b611afe565b60405161039e91906155a1565b60405180910390f35b6103c160048036038101906103bc9190614dbc565b611bd1565b6040516103ce919061557f565b60405180910390f35b6103f160048036038101906103ec91906150c0565b611d86565b604051610400939291906155f9565b60405180910390f35b610423600480360381019061041e9190615084565b611f38565b6040516104309190615701565b60405180910390f35b610453600480360381019061044e9190614ef3565b611f77565b604051610460919061566c565b60405180910390f35b6104716120d5565b60405161047e91906155c3565b60405180910390f35b6104a1600480360381019061049c91906150e9565b6120e8565b005b6104bd60048036038101906104b89190614ce2565b61243a565b005b6104d960048036038101906104d49190614f6b565b612825565b005b6104f560048036038101906104f09190615125565b612a7a565b005b6104ff61327c565b60405161050c9190615520565b60405180910390f35b61052f600480360381019061052a9190614d80565b6132a2565b005b61054b60048036038101906105469190614f1c565b6134f2565b005b61055561459c565b61069c600c6040518060a00160405290816000820160009054906101000a90046fffffffffffffffffffffffffffffffff166fffffffffffffffffffffffffffffffff166fffffffffffffffffffffffffffffffff1681526020016000820160109054906101000a90046fffffffffffffffffffffffffffffffff166fffffffffffffffffffffffffffffffff166fffffffffffffffffffffffffffffffff1681526020016001820160009054906101000a90046fffffffffffffffffffffffffffffffff166fffffffffffffffffffffffffffffffff166fffffffffffffffffffffffffffffffff1681526020016001820160109054906101000a90046fffffffffffffffffffffffffffffffff166fffffffffffffffffffffffffffffffff166fffffffffffffffffffffffffffffffff16815260200160028201548152505061370d565b905090565b60008054906101000a900473ffffffffffffffffffffffffffffffffffffffff1681565b6000610740600c60000160109054906101000a90046fffffffffffffffffffffffffffffffff166fffffffffffffffffffffffffffffffff16600c60000160009054906101000a90046fffffffffffffffffffffffffffffffff166fffffffffffffffffffffffffffffffff1661379f90919063ffffffff16565b905090565b61074d6145cb565b6109a3600960008467ffffffffffffffff1667ffffffffffffffff16815260200190815260200160002060405180610140016040529081600082015481526020016001820160009054906101000a90046fffffffffffffffffffffffffffffffff166fffffffffffffffffffffffffffffffff166fffffffffffffffffffffffffffffffff1681526020016001820160109054906101000a90046fffffffffffffffffffffffffffffffff166fffffffffffffffffffffffffffffffff166fffffffffffffffffffffffffffffffff1681526020016002820160009054906101000a90046fffffffffffffffffffffffffffffffff166fffffffffffffffffffffffffffffffff166fffffffffffffffffffffffffffffffff1681526020016002820160109054906101000a90046fffffffffffffffffffffffffffffffff166fffffffffffffffffffffffffffffffff166fffffffffffffffffffffffffffffffff1681526020016003820160009054906101000a900467ffffffffffffffff1667ffffffffffffffff1667ffffffffffffffff1681526020016003820160089054906101000a900467ffffffffffffffff1667ffffffffffffffff1667ffffffffffffffff1681526020016003820160109054906101000a900467ffffffffffffffff1667ffffffffffffffff1667ffffffffffffffff1681526020016003820160189054906101000a900463ffffffff1663ffffffff1663ffffffff16815260200160038201601c9054906101000a900460ff16600181111561098f57fe5b600181111561099a57fe5b81525050613827565b9050919050565b600060056000837bffffffffffffffffffffffffffffffffffffffffffffffffffffffff19167bffffffffffffffffffffffffffffffffffffffffffffffffffffffff1916815260200190815260200160002060009054906101000a900460ff169050919050565b600160009054906101000a900473ffffffffffffffffffffffffffffffffffffffff1673ffffffffffffffffffffffffffffffffffffffff163373ffffffffffffffffffffffffffffffffffffffff1614610ad5576040517f08c379a000000000000000000000000000000000000000000000000000000000815260040180806020018281038252601e8152602001807f476f7665726e65643a20496e6974206e6f7420617574686f72697a65642e000081525060200191505060405180910390fd5b600160006101000a81549073ffffffffffffffffffffffffffffffffffffffff0219169055806000806101000a81548173ffffffffffffffffffffffffffffffffffffffff021916908373ffffffffffffffffffffffffffffffffffffffff16021790555060008054906101000a900473ffffffffffffffffffffffffffffffffffffffff1673ffffffffffffffffffffffffffffffffffffffff16639624e83e6040518163ffffffff1660e01b815260040160206040518083038186803b158015610ba057600080fd5b505afa158015610bb4573d6000803e3d6000fd5b505050506040513d6020811015610bca57600080fd5b8101908080519060200190929190505050600260006101000a81548173ffffffffffffffffffffffffffffffffffffffff021916908373ffffffffffffffffffffffffffffffffffffffff16021790555060008054906101000a900473ffffffffffffffffffffffffffffffffffffffff1673ffffffffffffffffffffffffffffffffffffffff166311df99956040518163ffffffff1660e01b815260040160206040518083038186803b158015610c8157600080fd5b505afa158015610c95573d6000803e3d6000fd5b505050506040513d6020811015610cab57600080fd5b8101908080519060200190929190505050600360006101000a81548173ffffffffffffffffffffffffffffffffffffffff021916908373ffffffffffffffffffffffffffffffffffffffff16021790555060008054906101000a900473ffffffffffffffffffffffffffffffffffffffff1673ffffffffffffffffffffffffffffffffffffffff1663d478b0876040518163ffffffff1660e01b815260040160206040518083038186803b158015610d6257600080fd5b505afa158015610d76573d6000803e3d6000fd5b505050506040513d6020811015610d8c57600080fd5b8101908080519060200190929190505050600460006101000a81548173ffffffffffffffffffffffffffffffffffffffff021916908373ffffffffffffffffffffffffffffffffffffffff160217905550610de561391d565b8073ffffffffffffffffffffffffffffffffffffffff167f908408e307fc569b417f6cbec5d5a06f44a0a505ac0479b47d421a4b2fd6a1e660405160405180910390a250565b60026006541415610ea4576040517f08c379a000000000000000000000000000000000000000000000000000000000815260040180806020018281038252601d8152602001807f4c6f636b436f6e74726163743a207265656e7472616e742063616c6c2e00000081525060200191505060405180910390fd5b600260068190555060008054906101000a900473ffffffffffffffffffffffffffffffffffffffff1673ffffffffffffffffffffffffffffffffffffffff166368219d39336040518263ffffffff1660e01b8152600401610f05919061553b565b60006040518083038186803b158015610f1d57600080fd5b505afa158015610f31573d6000803e3d6000fd5b50505050610f3e81613c1b565b600c60008201518160000160006101000a8154816fffffffffffffffffffffffffffffffff02191690836fffffffffffffffffffffffffffffffff16021790555060208201518160000160106101000a8154816fffffffffffffffffffffffffffffffff02191690836fffffffffffffffffffffffffffffffff16021790555060408201518160010160006101000a8154816fffffffffffffffffffffffffffffffff02191690836fffffffffffffffffffffffffffffffff16021790555060608201518160010160106101000a8154816fffffffffffffffffffffffffffffffff02191690836fffffffffffffffffffffffffffffffff16021790555060808201518160020155905050600160068190555050565b6000808214156110675760009050611429565b683635c9adc5dea0000082101561120a5768056bc75e2d631000008211156110b1576110aa826103eb69032d26d12e980b600000680821ab0d4414980000613ccd565b9050611429565b678ac7230489e800008211156110e7576110e0826103bc685150ae84a8cdf0000067d02ab486cedc0000613ccd565b9050611429565b670de0b6b3a764000082111561111d576111168261038d680821ab0d44149800006714d1120d7b160000613ccd565b9050611429565b67016345785d8a00008211156111525761114b8261035e67d02ab486cedc0000670214e8348c4f0000613ccd565b9050611429565b662386f26fc100008211156111855761117e8261032f6714d1120d7b16000066354a6ba7a18000613ccd565b9050611429565b66038d7ea4c680008211156111b8576111b182610300670214e8348c4f00006605543df729c000613ccd565b9050611429565b655af3107a40008211156111e8576111e1826102d166354a6ba7a1800065886c98b76000613ccd565b9050611429565b611203826102a26605543df729c000650da475abf000613ccd565b9050611429565b69021e19e0c9bab24000008210156112445761123d8261041a691fc3842bd1f071c00000685150ae84a8cdf00000613ccd565b9050611429565b69152d02c7e14af680000082101561128057611279826104496a013da329b633647180000069032d26d12e980b600000613ccd565b9050611429565b69d3c21bcecceda10000008210156112bc576112b5826104786a0c685fa11e01ec6f000000691fc3842bd1f071c00000613ccd565b9050611429565b6a084595161401484a0000008210156112fa576112f3826104a76a7c13bc4b2c133c560000006a013da329b6336471800000613ccd565b9050611429565b6a52b7d2dcc80cd2e400000082101561133957611332826104d66b04d8c55aefb8c05b5c0000006a0c685fa11e01ec6f000000613ccd565b9050611429565b6b033b2e3c9fd0803ce800000082101561137957611372826105056b3077b58d5d378391980000006a7c13bc4b2c133c56000000613ccd565b9050611429565b6b204fce5e3e250261100000008210156113bb576113b4826105346c01e4ad1785a42b23aff00000006b04d8c55aefb8c05b5c000000613ccd565b9050611429565b6c01431e0fae6d7217caa00000008210156113fe576113f7826105636c12eec2eb3869af64df600000006b3077b58d5d37839198000000613ccd565b9050611429565b611426826105926cbd539d303420d9f0b9c00000006c01e4ad1785a42b23aff0000000613ccd565b90505b919050565b600260065414156114a7576040517f08c379a000000000000000000000000000000000000000000000000000000000815260040180806020018281038252601d8152602001807f4c6f636b436f6e74726163743a207265656e7472616e742063616c6c2e00000081525060200191505060405180910390fd5b600260068190555060008054906101000a900473ffffffffffffffffffffffffffffffffffffffff1673ffffffffffffffffffffffffffffffffffffffff1663c7bdc5aa336040518263ffffffff1660e01b8152600401611508919061553b565b60006040518083038186803b15801561152057600080fd5b505afa158015611534573d6000803e3d6000fd5b505050508173ffffffffffffffffffffffffffffffffffffffff1663a9059cbb84836040518363ffffffff1660e01b8152600401611573929190615556565b602060405180830381600087803b15801561158d57600080fd5b505af11580156115a1573d6000803e3d6000fd5b505050506040513d601f19601f820116820180604052508101906115c59190614dfd565b6115ce57600080fd5b6001600681905550505050565b60008060026006541415611657576040517f08c379a000000000000000000000000000000000000000000000000000000000815260040180806020018281038252601d8152602001807f4c6f636b436f6e74726163743a207265656e7472616e742063616c6c2e00000081525060200191505060405180910390fd5b600260068190555060008054906101000a900473ffffffffffffffffffffffffffffffffffffffff1673ffffffffffffffffffffffffffffffffffffffff166368219d39336040518263ffffffff1660e01b81526004016116b8919061553b565b60006040518083038186803b1580156116d057600080fd5b505afa1580156116e4573d6000803e3d6000fd5b50505050600c60000160009054906101000a90046fffffffffffffffffffffffffffffffff169150600c60000160109054906101000a90046fffffffffffffffffffffffffffffffff1690506000600181111561173d57fe5b85600181111561174957fe5b14156117ef576117ac836117815761177c85846fffffffffffffffffffffffffffffffff16613cef90919063ffffffff16565b6117a7565b6117a685846fffffffffffffffffffffffffffffffff1661379f90919063ffffffff16565b5b613d39565b915081600c60000160006101000a8154816fffffffffffffffffffffffffffffffff02191690836fffffffffffffffffffffffffffffffff16021790555061188b565b61184c836118215761181c85836fffffffffffffffffffffffffffffffff16613cef90919063ffffffff16565b611847565b61184685836fffffffffffffffffffffffffffffffff1661379f90919063ffffffff16565b5b613d39565b905080600c60000160106101000a8154816fffffffffffffffffffffffffffffffff02191690836fffffffffffffffffffffffffffffffff1602179055505b6001600681905550935093915050565b60008060018111156118a957fe5b8260018111156118b557fe5b146118e157600c60000160109054906101000a90046fffffffffffffffffffffffffffffffff16611904565b600c60000160009054906101000a90046fffffffffffffffffffffffffffffffff165b6fffffffffffffffffffffffffffffffff169050919050565b61192561464d565b611af6600f60008573ffffffffffffffffffffffffffffffffffffffff1673ffffffffffffffffffffffffffffffffffffffff16815260200190815260200160002060008473ffffffffffffffffffffffffffffffffffffffff1673ffffffffffffffffffffffffffffffffffffffff1681526020019081526020016000206040518060a00160405290816000820160009054906101000a90046fffffffffffffffffffffffffffffffff166fffffffffffffffffffffffffffffffff166fffffffffffffffffffffffffffffffff1681526020016000820160109054906101000a90046fffffffffffffffffffffffffffffffff166fffffffffffffffffffffffffffffffff166fffffffffffffffffffffffffffffffff1681526020016001820160009054906101000a900477ffffffffffffffffffffffffffffffffffffffffffffffff1677ffffffffffffffffffffffffffffffffffffffffffffffff1677ffffffffffffffffffffffffffffffffffffffffffffffff1681526020016001820160189054906101000a900463ffffffff1663ffffffff1663ffffffff16815260200160018201601c9054906101000a900463ffffffff1663ffffffff1663ffffffff1681525050613dac565b905092915050565b6060600b6000846001811115611b1057fe5b6001811115611b1b57fe5b815260200190815260200160002060008363ffffffff1663ffffffff168152602001908152602001600020805480602002602001604051908101604052809291908181526020018280548015611bc457602002820191906000526020600020906000905b82829054906101000a900467ffffffffffffffff1667ffffffffffffffff1681526020019060080190602082600701049283019260010382029150808411611b7f5790505b5050505050905092915050565b6060815167ffffffffffffffff81118015611beb57600080fd5b50604051908082528060200260200182016040528015611c1a5781602001602082028036833780820191505090505b509050600080600090505b8351811015611d7f5760096000858381518110611c3e57fe5b602002602001015167ffffffffffffffff1667ffffffffffffffff1681526020019081526020016000209150611d5a611d19600c60010160009054906101000a90046fffffffffffffffffffffffffffffffff166fffffffffffffffffffffffffffffffff168460020160009054906101000a90046fffffffffffffffffffffffffffffffff166fffffffffffffffffffffffffffffffff168560010160109054906101000a90046fffffffffffffffffffffffffffffffff166fffffffffffffffffffffffffffffffff16613e549092919063ffffffff16565b8360010160009054906101000a90046fffffffffffffffffffffffffffffffff166fffffffffffffffffffffffffffffffff16613f6390919063ffffffff16565b838281518110611d6657fe5b6020026020010181815250508080600101915050611c25565b5050919050565b6000806000600960008567ffffffffffffffff1667ffffffffffffffff168152602001908152602001600020600301601c9054906101000a900460ff169250600960008567ffffffffffffffff1667ffffffffffffffff16815260200190815260200160002060010160109054906101000a90046fffffffffffffffffffffffffffffffff166fffffffffffffffffffffffffffffffff169150600960008567ffffffffffffffff1667ffffffffffffffff16815260200190815260200160002060010160009054906101000a90046fffffffffffffffffffffffffffffffff166fffffffffffffffffffffffffffffffff1690506000600960008667ffffffffffffffff1667ffffffffffffffff16815260200190815260200160002060020160009054906101000a90046fffffffffffffffffffffffffffffffff166fffffffffffffffffffffffffffffffff1690506000600c60010160009054906101000a90046fffffffffffffffffffffffffffffffff166fffffffffffffffffffffffffffffffff169050808214611f2f57611f2c818386613e549092919063ffffffff16565b93505b50509193909250565b600080831480611f485750600082145b611f6c57611f67611f628484613f6390919063ffffffff16565b611054565b611f6f565b60005b905092915050565b611f7f614690565b612059600a6000846001811115611f9257fe5b6001811115611f9d57fe5b81526020019081526020016000206040518060600160405290816000820160009054906101000a90046fffffffffffffffffffffffffffffffff166fffffffffffffffffffffffffffffffff166fffffffffffffffffffffffffffffffff1681526020016000820160109054906101000a90046fffffffffffffffffffffffffffffffff166fffffffffffffffffffffffffffffffff166fffffffffffffffffffffffffffffffff168152602001600182015481525050614076565b90506000600c60010160009054906101000a90046fffffffffffffffffffffffffffffffff166fffffffffffffffffffffffffffffffff169050816000015181146120cf576120bb8183600001518460200151613e549092919063ffffffff16565b826020018181525050808260000181815250505b50919050565b600060149054906101000a900460ff1681565b60026006541415612161576040517f08c379a000000000000000000000000000000000000000000000000000000000815260040180806020018281038252601d8152602001807f4c6f636b436f6e74726163743a207265656e7472616e742063616c6c2e00000081525060200191505060405180910390fd5b600260068190555060008054906101000a900473ffffffffffffffffffffffffffffffffffffffff1673ffffffffffffffffffffffffffffffffffffffff1663c04be454336040518263ffffffff1660e01b81526004016121c2919061553b565b60006040518083038186803b1580156121da57600080fd5b505afa1580156121ee573d6000803e3d6000fd5b505050506121fa6146b1565b81816101200190600181111561220c57fe5b9081600181111561221957fe5b8152505080600960008567ffffffffffffffff1667ffffffffffffffff1681526020019081526020016000206000820151816000015560208201518160010160006101000a8154816fffffffffffffffffffffffffffffffff02191690836fffffffffffffffffffffffffffffffff16021790555060408201518160010160106101000a8154816fffffffffffffffffffffffffffffffff02191690836fffffffffffffffffffffffffffffffff16021790555060608201518160020160006101000a8154816fffffffffffffffffffffffffffffffff02191690836fffffffffffffffffffffffffffffffff16021790555060808201518160020160106101000a8154816fffffffffffffffffffffffffffffffff02191690836fffffffffffffffffffffffffffffffff16021790555060a08201518160030160006101000a81548167ffffffffffffffff021916908367ffffffffffffffff16021790555060c08201518160030160086101000a81548167ffffffffffffffff021916908367ffffffffffffffff16021790555060e08201518160030160106101000a81548167ffffffffffffffff021916908367ffffffffffffffff1602179055506101008201518160030160186101000a81548163ffffffff021916908363ffffffff16021790555061012082015181600301601c6101000a81548160ff0219169083600181111561242557fe5b02179055509050505060016006819055505050565b600260065414156124b3576040517f08c379a000000000000000000000000000000000000000000000000000000000815260040180806020018281038252601d8152602001807f4c6f636b436f6e74726163743a207265656e7472616e742063616c6c2e00000081525060200191505060405180910390fd5b600260068190555060008054906101000a900473ffffffffffffffffffffffffffffffffffffffff1673ffffffffffffffffffffffffffffffffffffffff1663c7bdc5aa336040518263ffffffff1660e01b8152600401612514919061553b565b60006040518083038186803b15801561252c57600080fd5b505afa158015612540573d6000803e3d6000fd5b5050505060008160200151141561267457600f60008473ffffffffffffffffffffffffffffffffffffffff1673ffffffffffffffffffffffffffffffffffffffff16815260200190815260200160002060008373ffffffffffffffffffffffffffffffffffffffff1673ffffffffffffffffffffffffffffffffffffffff168152602001908152602001600020600080820160006101000a8154906fffffffffffffffffffffffffffffffff02191690556000820160106101000a8154906fffffffffffffffffffffffffffffffff02191690556001820160006101000a81549077ffffffffffffffffffffffffffffffffffffffffffffffff02191690556001820160186101000a81549063ffffffff021916905560018201601c6101000a81549063ffffffff02191690555050612818565b61267d816140d0565b600f60008573ffffffffffffffffffffffffffffffffffffffff1673ffffffffffffffffffffffffffffffffffffffff16815260200190815260200160002060008473ffffffffffffffffffffffffffffffffffffffff1673ffffffffffffffffffffffffffffffffffffffff16815260200190815260200160002060008201518160000160006101000a8154816fffffffffffffffffffffffffffffffff02191690836fffffffffffffffffffffffffffffffff16021790555060208201518160000160106101000a8154816fffffffffffffffffffffffffffffffff02191690836fffffffffffffffffffffffffffffffff16021790555060408201518160010160006101000a81548177ffffffffffffffffffffffffffffffffffffffffffffffff021916908377ffffffffffffffffffffffffffffffffffffffffffffffff16021790555060608201518160010160186101000a81548163ffffffff021916908363ffffffff160217905550608082015181600101601c6101000a81548163ffffffff021916908363ffffffff1602179055509050505b6001600681905550505050565b6002600654141561289e576040517f08c379a000000000000000000000000000000000000000000000000000000000815260040180806020018281038252601d8152602001807f4c6f636b436f6e74726163743a207265656e7472616e742063616c6c2e00000081525060200191505060405180910390fd5b600260068190555060008054906101000a900473ffffffffffffffffffffffffffffffffffffffff1673ffffffffffffffffffffffffffffffffffffffff16639a371c846040518163ffffffff1660e01b815260040160206040518083038186803b15801561290c57600080fd5b505afa158015612920573d6000803e3d6000fd5b505050506040513d601f19601f820116820180604052508101906129449190614ea1565b73ffffffffffffffffffffffffffffffffffffffff163373ffffffffffffffffffffffffffffffffffffffff16146129b1576040517f08c379a00000000000000000000000000000000000000000000000000000000081526004016129a890615630565b60405180910390fd5b6129ba816141a0565b600a60008460018111156129ca57fe5b60018111156129d557fe5b815260200190815260200160002060008201518160000160006101000a8154816fffffffffffffffffffffffffffffffff02191690836fffffffffffffffffffffffffffffffff16021790555060208201518160000160106101000a8154816fffffffffffffffffffffffffffffffff02191690836fffffffffffffffffffffffffffffffff1602179055506040820151816001015590505060016006819055505050565b60026006541415612af3576040517f08c379a000000000000000000000000000000000000000000000000000000000815260040180806020018281038252601d8152602001807f4c6f636b436f6e74726163743a207265656e7472616e742063616c6c2e00000081525060200191505060405180910390fd5b600260068190555060008054906101000a900473ffffffffffffffffffffffffffffffffffffffff1673ffffffffffffffffffffffffffffffffffffffff1663c04be454336040518263ffffffff1660e01b8152600401612b54919061553b565b60006040518083038186803b158015612b6c57600080fd5b505afa158015612b80573d6000803e3d6000fd5b505050506000600960008467ffffffffffffffff1667ffffffffffffffff16815260200190815260200160002060030160009054906101000a900467ffffffffffffffff1690506000600960008567ffffffffffffffff1667ffffffffffffffff16815260200190815260200160002060030160189054906101000a900463ffffffff1690506000612c1a84604001518560200151611f38565b90508063ffffffff168263ffffffff1614612ef8578084610100019063ffffffff16908163ffffffff16815250506000808363ffffffff1614612df257600b60008661012001516001811115612c6c57fe5b6001811115612c7757fe5b815260200190815260200160002060008463ffffffff1663ffffffff16815260200190815260200160002090506000612cb6600183805490500361420a565b67ffffffffffffffff169050808567ffffffffffffffff1614612db2576000828281548110612ce157fe5b90600052602060002090600491828204019190066008029054906101000a900467ffffffffffffffff16905080838767ffffffffffffffff1681548110612d2457fe5b90600052602060002090600491828204019190066008026101000a81548167ffffffffffffffff021916908367ffffffffffffffff16021790555085600960008367ffffffffffffffff1667ffffffffffffffff16815260200190815260200160002060030160006101000a81548167ffffffffffffffff021916908367ffffffffffffffff160217905550505b81805480612dbc57fe5b60019003818190600052602060002090600491828204019190066008026101000a81549067ffffffffffffffff02191690559055505b60008263ffffffff161415612e275760008560a0019067ffffffffffffffff16908167ffffffffffffffff1681525050612ef6565b600b60008661012001516001811115612e3c57fe5b6001811115612e4757fe5b815260200190815260200160002060008363ffffffff1663ffffffff1681526020019081526020016000209050612e81818054905061420a565b8560a0019067ffffffffffffffff16908167ffffffffffffffff1681525050808690806001815401808255809150506001900390600052602060002090600491828204019190066008029091909190916101000a81548167ffffffffffffffff021916908367ffffffffffffffff1602179055505b505b60008460200151148015612f10575060008460400151145b1561305457600960008667ffffffffffffffff1667ffffffffffffffff1681526020019081526020016000206000808201600090556001820160006101000a8154906fffffffffffffffffffffffffffffffff02191690556001820160106101000a8154906fffffffffffffffffffffffffffffffff02191690556002820160006101000a8154906fffffffffffffffffffffffffffffffff02191690556002820160106101000a8154906fffffffffffffffffffffffffffffffff02191690556003820160006101000a81549067ffffffffffffffff02191690556003820160086101000a81549067ffffffffffffffff02191690556003820160106101000a81549067ffffffffffffffff02191690556003820160186101000a81549063ffffffff021916905560038201601c6101000a81549060ff0219169055505061326d565b61305d84614275565b600960008767ffffffffffffffff1667ffffffffffffffff1681526020019081526020016000206000820151816000015560208201518160010160006101000a8154816fffffffffffffffffffffffffffffffff02191690836fffffffffffffffffffffffffffffffff16021790555060408201518160010160106101000a8154816fffffffffffffffffffffffffffffffff02191690836fffffffffffffffffffffffffffffffff16021790555060608201518160020160006101000a8154816fffffffffffffffffffffffffffffffff02191690836fffffffffffffffffffffffffffffffff16021790555060808201518160020160106101000a8154816fffffffffffffffffffffffffffffffff02191690836fffffffffffffffffffffffffffffffff16021790555060a08201518160030160006101000a81548167ffffffffffffffff021916908367ffffffffffffffff16021790555060c08201518160030160086101000a81548167ffffffffffffffff021916908367ffffffffffffffff16021790555060e08201518160030160106101000a81548167ffffffffffffffff021916908367ffffffffffffffff1602179055506101008201518160030160186101000a81548163ffffffff021916908363ffffffff16021790555061012082015181600301601c6101000a81548160ff0219169083600181111561326457fe5b02179055509050505b50505060016006819055505050565b600160009054906101000a900473ffffffffffffffffffffffffffffffffffffffff1681565b6002600654141561331b576040517f08c379a000000000000000000000000000000000000000000000000000000000815260040180806020018281038252601d8152602001807f4c6f636b436f6e74726163743a207265656e7472616e742063616c6c2e00000081525060200191505060405180910390fd5b600260068190555060008054906101000a900473ffffffffffffffffffffffffffffffffffffffff1673ffffffffffffffffffffffffffffffffffffffff166380f556056040518163ffffffff1660e01b815260040160206040518083038186803b15801561338957600080fd5b505afa15801561339d573d6000803e3d6000fd5b505050506040513d601f19601f820116820180604052508101906133c19190614eca565b73ffffffffffffffffffffffffffffffffffffffff163373ffffffffffffffffffffffffffffffffffffffff161461342e576040517f08c379a000000000000000000000000000000000000000000000000000000000815260040161342590615630565b60405180910390fd5b600360009054906101000a900473ffffffffffffffffffffffffffffffffffffffff1673ffffffffffffffffffffffffffffffffffffffff1663a9059cbb83836040518363ffffffff1660e01b815260040161348b929190615556565b602060405180830381600087803b1580156134a557600080fd5b505af11580156134b9573d6000803e3d6000fd5b505050506040513d601f19601f820116820180604052508101906134dd9190614dfd565b6134e657600080fd5b60016006819055505050565b6002600654141561356b576040517f08c379a000000000000000000000000000000000000000000000000000000000815260040180806020018281038252601d8152602001807f4c6f636b436f6e74726163743a207265656e7472616e742063616c6c2e00000081525060200191505060405180910390fd5b600260068190555060008054906101000a900473ffffffffffffffffffffffffffffffffffffffff1673ffffffffffffffffffffffffffffffffffffffff1663e7c37799336040518263ffffffff1660e01b81526004016135cc919061553b565b60006040518083038186803b1580156135e457600080fd5b505afa1580156135f8573d6000803e3d6000fd5b50505050600080600181111561360a57fe5b84600181111561361657fe5b1461364357600860009054906101000a900473ffffffffffffffffffffffffffffffffffffffff16613667565b600760009054906101000a900473ffffffffffffffffffffffffffffffffffffffff165b90508073ffffffffffffffffffffffffffffffffffffffff1663a9059cbb84846040518363ffffffff1660e01b81526004016136a4929190615556565b602060405180830381600087803b1580156136be57600080fd5b505af11580156136d2573d6000803e3d6000fd5b505050506040513d601f19601f820116820180604052508101906136f69190614dfd565b6136ff57600080fd5b506001600681905550505050565b61371561459c565b6040518060a0016040528083600001516fffffffffffffffffffffffffffffffff16815260200183602001516fffffffffffffffffffffffffffffffff16815260200183606001516fffffffffffffffffffffffffffffffff1681526020018360800151815260200183604001516fffffffffffffffffffffffffffffffff168152509050919050565b60008082840190508381101561381d576040517f08c379a000000000000000000000000000000000000000000000000000000000815260040180806020018281038252601b8152602001807f536166654d6174683a206164646974696f6e206f766572666c6f77000000000081525060200191505060405180910390fd5b8091505092915050565b61382f6145cb565b6040518061014001604052808360000151815260200183602001516fffffffffffffffffffffffffffffffff16815260200183604001516fffffffffffffffffffffffffffffffff16815260200183606001516fffffffffffffffffffffffffffffffff16815260200183608001516fffffffffffffffffffffffffffffffff1681526020018360a0015167ffffffffffffffff1681526020018360c0015167ffffffffffffffff1681526020018360e0015167ffffffffffffffff16815260200183610100015163ffffffff168152602001836101200151600181111561391357fe5b8152509050919050565b61392e670de0b6b3a764000061438b565b6bffffffffffffffffffffffff16600c60010160006101000a8154816fffffffffffffffffffffffffffffffff02191690836fffffffffffffffffffffffffffffffff160217905550613988670de0b6b3a7640000613d39565b600a600080600181111561399857fe5b60018111156139a357fe5b815260200190815260200160002060000160006101000a8154816fffffffffffffffffffffffffffffffff02191690836fffffffffffffffffffffffffffffffff1602179055506139fb670de0b6b3a7640000613d39565b600a6000600180811115613a0b57fe5b6001811115613a1657fe5b815260200190815260200160002060000160006101000a8154816fffffffffffffffffffffffffffffffff02191690836fffffffffffffffffffffffffffffffff16021790555060008054906101000a900473ffffffffffffffffffffffffffffffffffffffff1673ffffffffffffffffffffffffffffffffffffffff16633fc8cef36040518163ffffffff1660e01b815260040160206040518083038186803b158015613ac357600080fd5b505afa158015613ad7573d6000803e3d6000fd5b505050506040513d601f19601f82011682018060405250810190613afb9190614e4f565b600760006101000a81548173ffffffffffffffffffffffffffffffffffffffff021916908373ffffffffffffffffffffffffffffffffffffffff16021790555060008054906101000a900473ffffffffffffffffffffffffffffffffffffffff1673ffffffffffffffffffffffffffffffffffffffff1663a28d57d86040518163ffffffff1660e01b815260040160206040518083038186803b158015613ba157600080fd5b505afa158015613bb5573d6000803e3d6000fd5b505050506040513d601f19601f82011682018060405250810190613bd99190614e4f565b600860006101000a81548173ffffffffffffffffffffffffffffffffffffffff021916908373ffffffffffffffffffffffffffffffffffffffff160217905550565b613c2361477b565b6040518060a00160405280613c3b8460000151613d39565b6fffffffffffffffffffffffffffffffff168152602001613c5f8460200151613d39565b6fffffffffffffffffffffffffffffffff168152602001613c838460800151613d39565b6fffffffffffffffffffffffffffffffff168152602001613ca78460400151613d39565b6fffffffffffffffffffffffffffffffff16815260200183606001518152509050919050565b6000613ce58286018481613cdd57fe5b0485036143fa565b9050949350505050565b6000613d3183836040518060400160405280601e81526020017f536166654d6174683a207375627472616374696f6e206f766572666c6f770000815250614461565b905092915050565b60007001000000000000000000000000000000008210613da4576040517f08c379a0000000000000000000000000000000000000000000000000000000008152600401808060200182810382526027815260200180615b1c6027913960400191505060405180910390fd5b819050919050565b613db461464d565b6040518060a0016040528083600001516fffffffffffffffffffffffffffffffff16815260200183602001516fffffffffffffffffffffffffffffffff168152602001836040015177ffffffffffffffffffffffffffffffffffffffffffffffff168152602001836060015163ffffffff1667ffffffffffffffff168152602001836080015163ffffffff1667ffffffffffffffff168152509050919050565b600080841480613e645750600083145b15613e725760009050613f5c565b6000821415613ee9576040517f08c379a000000000000000000000000000000000000000000000000000000000815260040180806020018281038252601b8152602001807f536166654d6174683a206469766973696f6e206279207a65726f2e000000000081525060200191505060405180910390fd5b828402905082848281613ef857fe5b0414613f4f576040517f08c379a0000000000000000000000000000000000000000000000000000000008152600401808060200182810382526022815260200180615afa6022913960400191505060405180910390fd5b818181613f5857fe5b0490505b9392505050565b600080831415613f765760009050614070565b6000821415613fed576040517f08c379a000000000000000000000000000000000000000000000000000000000815260040180806020018281038252601b8152602001807f536166654d6174683a206469766973696f6e206279207a65726f2e000000000081525060200191505060405180910390fd5b670de0b6b3a764000083029050670de0b6b3a764000083828161400c57fe5b0414614063576040517f08c379a0000000000000000000000000000000000000000000000000000000008152600401808060200182810382526022815260200180615afa6022913960400191505060405180910390fd5b81818161406c57fe5b0490505b92915050565b61407e614690565b604051806060016040528083600001516fffffffffffffffffffffffffffffffff16815260200183602001516fffffffffffffffffffffffffffffffff16815260200183604001518152509050919050565b6140d86147f2565b6040518060a001604052806140f08460000151613d39565b6fffffffffffffffffffffffffffffffff1681526020016141148460200151613d39565b6fffffffffffffffffffffffffffffffff1681526020016141388460400151614521565b77ffffffffffffffffffffffffffffffffffffffffffffffff16815260200161416e846060015167ffffffffffffffff166143fa565b63ffffffff168152602001614190846080015167ffffffffffffffff166143fa565b63ffffffff168152509050919050565b6141a861486b565b60405180606001604052806141c08460000151613d39565b6fffffffffffffffffffffffffffffffff1681526020016141e48460200151613d39565b6fffffffffffffffffffffffffffffffff16815260200183604001518152509050919050565b600068010000000000000000821061426d576040517f08c379a0000000000000000000000000000000000000000000000000000000008152600401808060200182810382526026815260200180615b436026913960400191505060405180910390fd5b819050919050565b61427d6146b1565b604051806101400160405280836000015181526020016142a08460200151613d39565b6fffffffffffffffffffffffffffffffff1681526020016142c48460400151613d39565b6fffffffffffffffffffffffffffffffff1681526020016142e88460600151613d39565b6fffffffffffffffffffffffffffffffff16815260200161430c8460800151613d39565b6fffffffffffffffffffffffffffffffff1681526020018360a0015167ffffffffffffffff1681526020018360c0015167ffffffffffffffff1681526020018360e0015167ffffffffffffffff16815260200183610100015163ffffffff168152602001836101200151600181111561438157fe5b8152509050919050565b60006c0100000000000000000000000082106143f2576040517f08c379a0000000000000000000000000000000000000000000000000000000008152600401808060200182810382526026815260200180615aad6026913960400191505060405180910390fd5b819050919050565b60006401000000008210614459576040517f08c379a0000000000000000000000000000000000000000000000000000000008152600401808060200182810382526026815260200180615b696026913960400191505060405180910390fd5b819050919050565b600083831115829061450e576040517f08c379a00000000000000000000000000000000000000000000000000000000081526004018080602001828103825283818151815260200191508051906020019080838360005b838110156144d35780820151818401526020810190506144b8565b50505050905090810190601f1680156145005780820380516001836020036101000a031916815260200191505b509250505060405180910390fd5b5060008385039050809150509392505050565b600078010000000000000000000000000000000000000000000000008210614594576040517f08c379a0000000000000000000000000000000000000000000000000000000008152600401808060200182810382526027815260200180615ad36027913960400191505060405180910390fd5b819050919050565b6040518060a0016040528060008152602001600081526020016000815260200160008152602001600081525090565b6040518061014001604052806000815260200160008152602001600081526020016000815260200160008152602001600067ffffffffffffffff168152602001600067ffffffffffffffff168152602001600067ffffffffffffffff168152602001600063ffffffff1681526020016000600181111561464757fe5b81525090565b6040518060a00160405280600081526020016000815260200160008152602001600067ffffffffffffffff168152602001600067ffffffffffffffff1681525090565b60405180606001604052806000815260200160008152602001600081525090565b6040518061014001604052806000815260200160006fffffffffffffffffffffffffffffffff16815260200160006fffffffffffffffffffffffffffffffff16815260200160006fffffffffffffffffffffffffffffffff16815260200160006fffffffffffffffffffffffffffffffff168152602001600067ffffffffffffffff168152602001600067ffffffffffffffff168152602001600067ffffffffffffffff168152602001600063ffffffff1681526020016000600181111561477557fe5b81525090565b6040518060a0016040528060006fffffffffffffffffffffffffffffffff16815260200160006fffffffffffffffffffffffffffffffff16815260200160006fffffffffffffffffffffffffffffffff16815260200160006fffffffffffffffffffffffffffffffff168152602001600081525090565b6040518060a0016040528060006fffffffffffffffffffffffffffffffff16815260200160006fffffffffffffffffffffffffffffffff168152602001600077ffffffffffffffffffffffffffffffffffffffffffffffff168152602001600063ffffffff168152602001600063ffffffff1681525090565b604051806060016040528060006fffffffffffffffffffffffffffffffff16815260200160006fffffffffffffffffffffffffffffffff168152602001600081525090565b6000813590506148bf8161599f565b92915050565b600082601f8301126148d657600080fd5b81356148e96148e48261574d565b61571c565b9150818183526020840193506020810190508385602084028201111561490e57600080fd5b60005b8381101561493e57816149248882614c91565b845260208401935060208301925050600181019050614911565b5050505092915050565b600081359050614957816159b6565b92915050565b60008151905061496c816159b6565b92915050565b600081359050614981816159cd565b92915050565b600081519050614996816159e4565b92915050565b6000813590506149ab816159fb565b92915050565b6000815190506149c081615a12565b92915050565b6000815190506149d581615a29565b92915050565b6000813590506149ea81615a40565b92915050565b6000813590506149ff81615a57565b92915050565b60006101408284031215614a1857600080fd5b614a2361014061571c565b90506000614a3384828501614c67565b6000830152506020614a4784828501614c67565b6020830152506040614a5b84828501614c67565b6040830152506060614a6f84828501614c67565b6060830152506080614a8384828501614c67565b60808301525060a0614a9784828501614c91565b60a08301525060c0614aab84828501614c91565b60c08301525060e0614abf84828501614c91565b60e083015250610100614ad484828501614c7c565b61010083015250610120614aea848285016149f0565b6101208301525092915050565b600060608284031215614b0957600080fd5b614b13606061571c565b90506000614b2384828501614c67565b6000830152506020614b3784828501614c67565b6020830152506040614b4b84828501614c67565b60408301525092915050565b600060a08284031215614b6957600080fd5b614b7360a061571c565b90506000614b8384828501614c67565b6000830152506020614b9784828501614c67565b6020830152506040614bab84828501614c67565b6040830152506060614bbf84828501614c91565b6060830152506080614bd384828501614c91565b60808301525092915050565b600060a08284031215614bf157600080fd5b614bfb60a061571c565b90506000614c0b84828501614c67565b6000830152506020614c1f84828501614c67565b6020830152506040614c3384828501614c67565b6040830152506060614c4784828501614c67565b6060830152506080614c5b84828501614c67565b60808301525092915050565b600081359050614c7681615a67565b92915050565b600081359050614c8b81615a7e565b92915050565b600081359050614ca081615a95565b92915050565b60008060408385031215614cb957600080fd5b6000614cc7858286016148b0565b9250506020614cd8858286016149db565b9150509250929050565b600080600060e08486031215614cf757600080fd5b6000614d05868287016148b0565b9350506020614d16868287016149db565b9250506040614d2786828701614b57565b9150509250925092565b600080600060608486031215614d4657600080fd5b6000614d54868287016148b0565b9350506020614d65868287016149db565b9250506040614d7686828701614c67565b9150509250925092565b60008060408385031215614d9357600080fd5b6000614da1858286016148b0565b9250506020614db285828601614c67565b9150509250929050565b600060208284031215614dce57600080fd5b600082013567ffffffffffffffff811115614de857600080fd5b614df4848285016148c5565b91505092915050565b600060208284031215614e0f57600080fd5b6000614e1d8482850161495d565b91505092915050565b600060208284031215614e3857600080fd5b6000614e4684828501614972565b91505092915050565b600060208284031215614e6157600080fd5b6000614e6f84828501614987565b91505092915050565b600060208284031215614e8a57600080fd5b6000614e988482850161499c565b91505092915050565b600060208284031215614eb357600080fd5b6000614ec1848285016149b1565b91505092915050565b600060208284031215614edc57600080fd5b6000614eea848285016149c6565b91505092915050565b600060208284031215614f0557600080fd5b6000614f13848285016149f0565b91505092915050565b600080600060608486031215614f3157600080fd5b6000614f3f868287016149f0565b9350506020614f50868287016148b0565b9250506040614f6186828701614c67565b9150509250925092565b60008060808385031215614f7e57600080fd5b6000614f8c858286016149f0565b9250506020614f9d85828601614af7565b9150509250929050565b600080600060608486031215614fbc57600080fd5b6000614fca868287016149f0565b9350506020614fdb86828701614c67565b9250506040614fec86828701614948565b9150509250925092565b6000806040838503121561500957600080fd5b6000615017858286016149f0565b925050602061502885828601614c7c565b9150509250929050565b600060a0828403121561504457600080fd5b600061505284828501614bdf565b91505092915050565b60006020828403121561506d57600080fd5b600061507b84828501614c67565b91505092915050565b6000806040838503121561509757600080fd5b60006150a585828601614c67565b92505060206150b685828601614c67565b9150509250929050565b6000602082840312156150d257600080fd5b60006150e084828501614c91565b91505092915050565b600080604083850312156150fc57600080fd5b600061510a85828601614c91565b925050602061511b858286016149f0565b9150509250929050565b600080610160838503121561513957600080fd5b600061514785828601614c91565b925050602061515885828601614a05565b9150509250929050565b600061516e83836154d5565b60208301905092915050565b60006151868383615511565b60208301905092915050565b61519b8161591d565b82525050565b6151aa816157fc565b82525050565b60006151bb82615799565b6151c581856157c9565b93506151d083615779565b8060005b838110156152015781516151e88882615162565b97506151f3836157af565b9250506001810190506151d4565b5085935050505092915050565b6000615219826157a4565b61522381856157da565b935061522e83615789565b8060005b8381101561525f578151615246888261517a565b9750615251836157bc565b925050600181019050615232565b5085935050505092915050565b6152758161580e565b82525050565b6152848161592f565b82525050565b61529381615953565b82525050565b6152a281615953565b82525050565b60006152b5600f836157eb565b91507f4e6f7420417574686f72697a65642e00000000000000000000000000000000006000830152602082019050919050565b610140820160008201516152ff60008501826154d5565b50602082015161531260208501826154d5565b50604082015161532560408501826154d5565b50606082015161533860608501826154d5565b50608082015161534b60808501826154d5565b5060a082015161535e60a0850182615511565b5060c082015161537160c0850182615511565b5060e082015161538460e0850182615511565b506101008201516153996101008501826154f3565b506101208201516153ae61012085018261528a565b50505050565b6060820160008201516153ca60008501826154d5565b5060208201516153dd60208501826154d5565b5060408201516153f060408501826154d5565b50505050565b60a08201600082015161540c60008501826154d5565b50602082015161541f60208501826154d5565b50604082015161543260408501826154d5565b5060608201516154456060850182615511565b5060808201516154586080850182615511565b50505050565b60a08201600082015161547460008501826154d5565b50602082015161548760208501826154d5565b50604082015161549a60408501826154d5565b5060608201516154ad60608501826154d5565b5060808201516154c060808501826154d5565b50505050565b6154cf816158b3565b82525050565b6154de816158ef565b82525050565b6154ed816158ef565b82525050565b6154fc816158f9565b82525050565b61550b816158f9565b82525050565b61551a81615909565b82525050565b600060208201905061553560008301846151a1565b92915050565b60006020820190506155506000830184615192565b92915050565b600060408201905061556b60008301856151a1565b61557860208301846154e4565b9392505050565b6000602082019050818103600083015261559981846151b0565b905092915050565b600060208201905081810360008301526155bb818461520e565b905092915050565b60006020820190506155d8600083018461526c565b92915050565b60006020820190506155f3600083018461527b565b92915050565b600060608201905061560e6000830186615299565b61561b60208301856154e4565b61562860408301846154e4565b949350505050565b60006020820190508181036000830152615649816152a8565b9050919050565b60006101408201905061566660008301846152e8565b92915050565b600060608201905061568160008301846153b4565b92915050565b600060a08201905061569c60008301846153f6565b92915050565b600060a0820190506156b7600083018461545e565b92915050565b60006040820190506156d260008301856154c6565b6156df60208301846154c6565b9392505050565b60006020820190506156fb60008301846154e4565b92915050565b60006020820190506157166000830184615502565b92915050565b6000604051905081810181811067ffffffffffffffff8211171561574357615742615989565b5b8060405250919050565b600067ffffffffffffffff82111561576857615767615989565b5b602082029050602081019050919050565b6000819050602082019050919050565b6000819050602082019050919050565b600081519050919050565b600081519050919050565b6000602082019050919050565b6000602082019050919050565b600082825260208201905092915050565b600082825260208201905092915050565b600082825260208201905092915050565b6000615807826158cf565b9050919050565b60008115159050919050565b60007fffffffff0000000000000000000000000000000000000000000000000000000082169050919050565b6000615851826157fc565b9050919050565b6000615863826157fc565b9050919050565b6000615875826157fc565b9050919050565b6000615887826157fc565b9050919050565b6000615899826157fc565b9050919050565b60008190506158ae8261598b565b919050565b60006fffffffffffffffffffffffffffffffff82169050919050565b600073ffffffffffffffffffffffffffffffffffffffff82169050919050565b6000819050919050565b600063ffffffff82169050919050565b600067ffffffffffffffff82169050919050565b600061592882615965565b9050919050565b600061593a82615941565b9050919050565b600061594c826158cf565b9050919050565b600061595e826158a0565b9050919050565b600061597082615977565b9050919050565b6000615982826158cf565b9050919050565bfe5b6002811061599c5761599b615989565b5b50565b6159a8816157fc565b81146159b357600080fd5b50565b6159bf8161580e565b81146159ca57600080fd5b50565b6159d68161581a565b81146159e157600080fd5b50565b6159ed81615846565b81146159f857600080fd5b50565b615a0481615858565b8114615a0f57600080fd5b50565b615a1b8161586a565b8114615a2657600080fd5b50565b615a328161587c565b8114615a3d57600080fd5b50565b615a498161588e565b8114615a5457600080fd5b50565b60028110615a6457600080fd5b50565b615a70816158ef565b8114615a7b57600080fd5b50565b615a87816158f9565b8114615a9257600080fd5b50565b615a9e81615909565b8114615aa957600080fd5b5056fe53616665436173743a2076616c756520646f65736e27742066697420696e203936206269747353616665436173743a2076616c756520646f65736e27742066697420696e203139322062697473536166654d6174683a206d756c7469706c69636174696f6e206f766572666c6f772e53616665436173743a2076616c756520646f65736e27742066697420696e20313238206269747353616665436173743a2076616c756520646f65736e27742066697420696e203634206269747353616665436173743a2076616c756520646f65736e27742066697420696e2033322062697473a2646970667358221220476ee94b1f3bc9389f6224b89c1f555c8f18ecba3cbca754ea53618ec519862d64736f6c63430007040033",
  "linkReferences": {},
  "deployedLinkReferences": {}
}