{
  "_format": "hh-sol-artifact-1",
  "contractName": "Accounting",
  "sourceName": "contracts/core/storage/Accounting.sol",
  "abi": [
    {
      "anonymous": false,
      "inputs": [
        {
          "indexed": true,
          "internalType": "address",
          "name": "governor",
          "type": "address"
        }
      ],
      "name": "Initialized",
      "type": "event"
    },
    {
      "anonymous": false,
      "inputs": [],
      "name": "Stopped",
      "type": "event"
    },
    {
      "inputs": [
        {
          "internalType": "uint256",
          "name": "count",
          "type": "uint256"
        },
        {
          "internalType": "bool",
          "name": "increase",
          "type": "bool"
        }
      ],
      "name": "adjustDebt",
      "outputs": [],
      "stateMutability": "nonpayable",
      "type": "function"
    },
    {
      "inputs": [
        {
          "internalType": "uint256",
          "name": "debtCount",
          "type": "uint256"
        },
        {
          "internalType": "uint256",
          "name": "collateralCount",
          "type": "uint256"
        }
      ],
      "name": "calculateCollateralizationBand",
      "outputs": [
        {
          "internalType": "uint32",
          "name": "band",
          "type": "uint32"
        }
      ],
      "stateMutability": "pure",
      "type": "function"
    },
    {
      "inputs": [
        {
          "internalType": "uint256",
          "name": "c",
          "type": "uint256"
        }
      ],
      "name": "collateralizationBand",
      "outputs": [
        {
          "internalType": "uint32",
          "name": "band",
          "type": "uint32"
        }
      ],
      "stateMutability": "pure",
      "type": "function"
    },
    {
      "inputs": [],
      "name": "debt",
      "outputs": [
        {
          "internalType": "uint256",
          "name": "",
          "type": "uint256"
        }
      ],
      "stateMutability": "view",
      "type": "function"
    },
    {
      "inputs": [
        {
          "internalType": "address",
          "name": "to",
          "type": "address"
        },
        {
          "internalType": "contract IUniswapV2Pair",
          "name": "pair",
          "type": "address"
        },
        {
          "internalType": "uint256",
          "name": "count",
          "type": "uint256"
        }
      ],
      "name": "distributePairTokens",
      "outputs": [],
      "stateMutability": "nonpayable",
      "type": "function"
    },
    {
      "inputs": [
        {
          "internalType": "uint64",
          "name": "id",
          "type": "uint64"
        }
      ],
      "name": "getBasicPositionInfo",
      "outputs": [
        {
          "internalType": "uint256",
          "name": "debtCount",
          "type": "uint256"
        },
        {
          "internalType": "uint256",
          "name": "collateralCount",
          "type": "uint256"
        }
      ],
      "stateMutability": "view",
      "type": "function"
    },
    {
      "inputs": [],
      "name": "getLiquidationAccount",
      "outputs": [
        {
          "components": [
            {
              "internalType": "uint256",
              "name": "startDebtExchangeRate",
              "type": "uint256"
            },
            {
              "internalType": "uint256",
              "name": "debt",
              "type": "uint256"
            },
            {
              "internalType": "uint256",
              "name": "collateral",
              "type": "uint256"
            }
          ],
          "internalType": "struct IAccounting.LiquidationAccount",
          "name": "lqAcct",
          "type": "tuple"
        }
      ],
      "stateMutability": "view",
      "type": "function"
    },
    {
      "inputs": [
        {
          "internalType": "address",
          "name": "owner",
          "type": "address"
        },
        {
          "internalType": "contract IUniswapV2Pair",
          "name": "pair",
          "type": "address"
        }
      ],
      "name": "getPairTokenPosition",
      "outputs": [
        {
          "components": [
            {
              "internalType": "uint256",
              "name": "totalRewards",
              "type": "uint256"
            },
            {
              "internalType": "uint256",
              "name": "count",
              "type": "uint256"
            },
            {
              "internalType": "uint256",
              "name": "cumulativePairCoinCount",
              "type": "uint256"
            },
            {
              "internalType": "uint64",
              "name": "lastPeriodRewarded",
              "type": "uint64"
            },
            {
              "internalType": "uint64",
              "name": "unlockPeriod",
              "type": "uint64"
            }
          ],
          "internalType": "struct IAccounting.PairTokenPosition",
          "name": "pt",
          "type": "tuple"
        }
      ],
      "stateMutability": "view",
      "type": "function"
    },
    {
      "inputs": [
        {
          "internalType": "uint64",
          "name": "id",
          "type": "uint64"
        }
      ],
      "name": "getPosition",
      "outputs": [
        {
          "components": [
            {
              "internalType": "uint256",
              "name": "startCumulativeDebt",
              "type": "uint256"
            },
            {
              "internalType": "uint256",
              "name": "collateral",
              "type": "uint256"
            },
            {
              "internalType": "uint256",
              "name": "debt",
              "type": "uint256"
            },
            {
              "internalType": "uint256",
              "name": "startDebtExchangeRate",
              "type": "uint256"
            },
            {
              "internalType": "uint256",
              "name": "startCNPRewards",
              "type": "uint256"
            },
            {
              "internalType": "uint64",
              "name": "collateralizationBandIndex",
              "type": "uint64"
            },
            {
              "internalType": "uint64",
              "name": "lastUpdateTime",
              "type": "uint64"
            },
            {
              "internalType": "uint64",
              "name": "lastBorrowTime",
              "type": "uint64"
            },
            {
              "internalType": "uint32",
              "name": "collateralizationBand",
              "type": "uint32"
            }
          ],
          "internalType": "struct IAccounting.DebtPosition",
          "name": "",
          "type": "tuple"
        }
      ],
      "stateMutability": "view",
      "type": "function"
    },
    {
      "inputs": [],
      "name": "getSystemDebtInfo",
      "outputs": [
        {
          "components": [
            {
              "internalType": "uint256",
              "name": "debt",
              "type": "uint256"
            },
            {
              "internalType": "uint256",
              "name": "totalCNPRewards",
              "type": "uint256"
            },
            {
              "internalType": "uint256",
              "name": "cumulativeDebt",
              "type": "uint256"
            },
            {
              "internalType": "uint256",
              "name": "debtExchangeRate",
              "type": "uint256"
            }
          ],
          "internalType": "struct IAccounting.SystemDebtInfo",
          "name": "",
          "type": "tuple"
        }
      ],
      "stateMutability": "view",
      "type": "function"
    },
    {
      "inputs": [],
      "name": "governor",
      "outputs": [
        {
          "internalType": "contract IGovernor",
          "name": "",
          "type": "address"
        }
      ],
      "stateMutability": "view",
      "type": "function"
    },
    {
      "inputs": [
        {
          "internalType": "contract IGovernor",
          "name": "governor_",
          "type": "address"
        }
      ],
      "name": "init",
      "outputs": [],
      "stateMutability": "nonpayable",
      "type": "function"
    },
    {
      "inputs": [
        {
          "internalType": "uint64[]",
          "name": "positionIDs",
          "type": "uint64[]"
        }
      ],
      "name": "positionsCollateralization",
      "outputs": [
        {
          "internalType": "uint256[]",
          "name": "collateralizations",
          "type": "uint256[]"
        }
      ],
      "stateMutability": "view",
      "type": "function"
    },
    {
      "inputs": [
        {
          "internalType": "uint32",
          "name": "band",
          "type": "uint32"
        }
      ],
      "name": "positionsForBand",
      "outputs": [
        {
          "internalType": "uint64[]",
          "name": "positions",
          "type": "uint64[]"
        }
      ],
      "stateMutability": "view",
      "type": "function"
    },
    {
      "inputs": [
        {
          "internalType": "address",
          "name": "dest",
          "type": "address"
        },
        {
          "internalType": "uint256",
          "name": "count",
          "type": "uint256"
        }
      ],
      "name": "sendCollateral",
      "outputs": [],
      "stateMutability": "nonpayable",
      "type": "function"
    },
    {
      "inputs": [
        {
          "internalType": "address",
          "name": "dest",
          "type": "address"
        },
        {
          "internalType": "uint256",
          "name": "count",
          "type": "uint256"
        }
      ],
      "name": "sendLentCoin",
      "outputs": [],
      "stateMutability": "nonpayable",
      "type": "function"
    },
    {
      "inputs": [
        {
          "components": [
            {
              "internalType": "uint256",
              "name": "startDebtExchangeRate",
              "type": "uint256"
            },
            {
              "internalType": "uint256",
              "name": "debt",
              "type": "uint256"
            },
            {
              "internalType": "uint256",
              "name": "collateral",
              "type": "uint256"
            }
          ],
          "internalType": "struct IAccounting.LiquidationAccount",
          "name": "lqAcct",
          "type": "tuple"
        }
      ],
      "name": "setLiquidationAccount",
      "outputs": [],
      "stateMutability": "nonpayable",
      "type": "function"
    },
    {
      "inputs": [
        {
          "internalType": "address",
          "name": "owner",
          "type": "address"
        },
        {
          "internalType": "contract IUniswapV2Pair",
          "name": "pair",
          "type": "address"
        },
        {
          "components": [
            {
              "internalType": "uint256",
              "name": "totalRewards",
              "type": "uint256"
            },
            {
              "internalType": "uint256",
              "name": "count",
              "type": "uint256"
            },
            {
              "internalType": "uint256",
              "name": "cumulativePairCoinCount",
              "type": "uint256"
            },
            {
              "internalType": "uint64",
              "name": "lastPeriodRewarded",
              "type": "uint64"
            },
            {
              "internalType": "uint64",
              "name": "unlockPeriod",
              "type": "uint64"
            }
          ],
          "internalType": "struct IAccounting.PairTokenPosition",
          "name": "pt",
          "type": "tuple"
        }
      ],
      "name": "setPairTokenPosition",
      "outputs": [],
      "stateMutability": "nonpayable",
      "type": "function"
    },
    {
      "inputs": [
        {
          "internalType": "uint64",
          "name": "positionID",
          "type": "uint64"
        },
        {
          "components": [
            {
              "internalType": "uint256",
              "name": "startCumulativeDebt",
              "type": "uint256"
            },
            {
              "internalType": "uint256",
              "name": "collateral",
              "type": "uint256"
            },
            {
              "internalType": "uint256",
              "name": "debt",
              "type": "uint256"
            },
            {
              "internalType": "uint256",
              "name": "startDebtExchangeRate",
              "type": "uint256"
            },
            {
              "internalType": "uint256",
              "name": "startCNPRewards",
              "type": "uint256"
            },
            {
              "internalType": "uint64",
              "name": "collateralizationBandIndex",
              "type": "uint64"
            },
            {
              "internalType": "uint64",
              "name": "lastUpdateTime",
              "type": "uint64"
            },
            {
              "internalType": "uint64",
              "name": "lastBorrowTime",
              "type": "uint64"
            },
            {
              "internalType": "uint32",
              "name": "collateralizationBand",
              "type": "uint32"
            }
          ],
          "internalType": "struct IAccounting.DebtPosition",
          "name": "dp",
          "type": "tuple"
        }
      ],
      "name": "setPosition",
      "outputs": [],
      "stateMutability": "nonpayable",
      "type": "function"
    },
    {
      "inputs": [
        {
          "components": [
            {
              "internalType": "uint256",
              "name": "debt",
              "type": "uint256"
            },
            {
              "internalType": "uint256",
              "name": "totalCNPRewards",
              "type": "uint256"
            },
            {
              "internalType": "uint256",
              "name": "cumulativeDebt",
              "type": "uint256"
            },
            {
              "internalType": "uint256",
              "name": "debtExchangeRate",
              "type": "uint256"
            }
          ],
          "internalType": "struct IAccounting.SystemDebtInfo",
          "name": "_sdi",
          "type": "tuple"
        }
      ],
      "name": "setSystemDebtInfo",
      "outputs": [],
      "stateMutability": "nonpayable",
      "type": "function"
    }
  ],
  "bytecode": "0x608060405234801561001057600080fd5b5033600560006101000a81548173ffffffffffffffffffffffffffffffffffffffff021916908373ffffffffffffffffffffffffffffffffffffffff1602179055506001600681905550614e0b806100696000396000f3fe608060405234801561001057600080fd5b506004361061016c5760003560e01c806362502169116100cd578063a31444d411610081578063b6bae30f11610066578063b6bae30f146103e0578063db795bca146103fe578063f4d6243b1461041a5761016c565b8063a31444d4146103a8578063adb539a5146103c45761016c565b806367ee7307116100b257806367ee73071461034057806378efc6b014610370578063827b78ba1461038c5761016c565b806362502169146102f35780636594da9f1461030f5761016c565b806338967bf2116101245780633ef736c5116101095780633ef736c5146102775780634d83e747146102935780635e016b90146102c35761016c565b806338967bf2146102175780633b1836cb146102475761016c565b80630dca59c1116101555780630dca59c1146101ad5780630f85fc5a146101cb57806319ab453c146101fb5761016c565b806306ef2d80146101715780630c340a241461018f575b600080fd5b610179610436565b60405161018691906149ba565b60405180910390f35b610197610500565b6040516101a4919061490d565b60405180910390f35b6101b5610524565b6040516101c291906149d5565b60405180910390f35b6101e560048036038101906101e09190614485565b61055f565b6040516101f29190614968565b60405180910390f35b610215600480360381019061021091906142c5565b610797565b005b610231600480360381019061022c919061445c565b610c91565b60405161023e91906148eb565b60405180910390f35b610261600480360381019061025c9190614392565b610d3c565b60405161026e9190614a19565b60405180910390f35b610291600480360381019061028c91906141d0565b611105565b005b6102ad60048036038101906102a89190614145565b6112b2565b6040516102ba919061499f565b60405180910390f35b6102dd60048036038101906102d8919061425b565b611493565b6040516102ea91906148c9565b60405180910390f35b61030d6004803603810190610308919061421f565b6117a6565b005b61032960048036038101906103249190614485565b611974565b6040516103379291906149f0565b60405180910390f35b61035a60048036038101906103559190614420565b611ae8565b6040516103679190614a19565b60405180910390f35b61038a60048036038101906103859190614369565b611b27565b005b6103a660048036038101906103a19190614181565b611cdc565b005b6103c260048036038101906103bd91906144ae565b6120c7565b005b6103de60048036038101906103d99190614340565b612833565b005b6103e86129d7565b6040516103f59190614984565b60405180910390f35b6104186004803603810190610413919061421f565b612b0c565b005b610434600480360381019061042f91906143e4565b612d54565b005b61043e613ae5565b6104fb600b6040518060800160405290816000820160009054906101000a90046fffffffffffffffffffffffffffffffff166fffffffffffffffffffffffffffffffff166fffffffffffffffffffffffffffffffff1681526020016000820160109054906101000a90046fffffffffffffffffffffffffffffffff166fffffffffffffffffffffffffffffffff166fffffffffffffffffffffffffffffffff16815260200160018201548152602001600282015481525050612f44565b905090565b60008054906101000a900473ffffffffffffffffffffffffffffffffffffffff1681565b6000600b60000160009054906101000a90046fffffffffffffffffffffffffffffffff166fffffffffffffffffffffffffffffffff16905090565b610567613b0d565b610790600760008467ffffffffffffffff1667ffffffffffffffff16815260200190815260200160002060405180610120016040529081600082015481526020016001820160009054906101000a90046fffffffffffffffffffffffffffffffff166fffffffffffffffffffffffffffffffff166fffffffffffffffffffffffffffffffff1681526020016001820160109054906101000a90046fffffffffffffffffffffffffffffffff166fffffffffffffffffffffffffffffffff166fffffffffffffffffffffffffffffffff1681526020016002820160009054906101000a90046fffffffffffffffffffffffffffffffff166fffffffffffffffffffffffffffffffff166fffffffffffffffffffffffffffffffff1681526020016002820160109054906101000a90046fffffffffffffffffffffffffffffffff166fffffffffffffffffffffffffffffffff166fffffffffffffffffffffffffffffffff1681526020016003820160009054906101000a900467ffffffffffffffff1667ffffffffffffffff1667ffffffffffffffff1681526020016003820160089054906101000a900467ffffffffffffffff1667ffffffffffffffff1667ffffffffffffffff1681526020016003820160109054906101000a900467ffffffffffffffff1667ffffffffffffffff1667ffffffffffffffff1681526020016003820160189054906101000a900463ffffffff1663ffffffff1663ffffffff1681525050612fa8565b9050919050565b600560009054906101000a900473ffffffffffffffffffffffffffffffffffffffff1673ffffffffffffffffffffffffffffffffffffffff163373ffffffffffffffffffffffffffffffffffffffff161461085a576040517f08c379a000000000000000000000000000000000000000000000000000000000815260040180806020018281038252601e8152602001807f476f7665726e65643a20496e6974206e6f7420617574686f72697a65642e000081525060200191505060405180910390fd5b600560006101000a81549073ffffffffffffffffffffffffffffffffffffffff02191690558073ffffffffffffffffffffffffffffffffffffffff167f908408e307fc569b417f6cbec5d5a06f44a0a505ac0479b47d421a4b2fd6a1e660405160405180910390a2806000806101000a81548173ffffffffffffffffffffffffffffffffffffffff021916908373ffffffffffffffffffffffffffffffffffffffff16021790555060008054906101000a900473ffffffffffffffffffffffffffffffffffffffff1673ffffffffffffffffffffffffffffffffffffffff16639624e83e6040518163ffffffff1660e01b815260040160206040518083038186803b15801561096857600080fd5b505afa15801561097c573d6000803e3d6000fd5b505050506040513d602081101561099257600080fd5b8101908080519060200190929190505050600160006101000a81548173ffffffffffffffffffffffffffffffffffffffff021916908373ffffffffffffffffffffffffffffffffffffffff16021790555060008054906101000a900473ffffffffffffffffffffffffffffffffffffffff1673ffffffffffffffffffffffffffffffffffffffff166311df99956040518163ffffffff1660e01b815260040160206040518083038186803b158015610a4957600080fd5b505afa158015610a5d573d6000803e3d6000fd5b505050506040513d6020811015610a7357600080fd5b8101908080519060200190929190505050600260006101000a81548173ffffffffffffffffffffffffffffffffffffffff021916908373ffffffffffffffffffffffffffffffffffffffff16021790555060008054906101000a900473ffffffffffffffffffffffffffffffffffffffff1673ffffffffffffffffffffffffffffffffffffffff1663d478b0876040518163ffffffff1660e01b815260040160206040518083038186803b158015610b2a57600080fd5b505afa158015610b3e573d6000803e3d6000fd5b505050506040513d6020811015610b5457600080fd5b8101908080519060200190929190505050600360006101000a81548173ffffffffffffffffffffffffffffffffffffffff021916908373ffffffffffffffffffffffffffffffffffffffff16021790555060008054906101000a900473ffffffffffffffffffffffffffffffffffffffff1673ffffffffffffffffffffffffffffffffffffffff16633fc8cef36040518163ffffffff1660e01b815260040160206040518083038186803b158015610c0b57600080fd5b505afa158015610c1f573d6000803e3d6000fd5b505050506040513d6020811015610c3557600080fd5b8101908080519060200190929190505050600460006101000a81548173ffffffffffffffffffffffffffffffffffffffff021916908373ffffffffffffffffffffffffffffffffffffffff160217905550610c8e613088565b50565b6060600860008363ffffffff1663ffffffff168152602001908152602001600020805480602002602001604051908101604052809291908181526020018280548015610d3057602002820191906000526020600020906000905b82829054906101000a900467ffffffffffffffff1667ffffffffffffffff1681526020019060080190602082600701049283019260010382029150808411610ceb5790505b50505050509050919050565b6000683635c9adc5dea00000821015610ee15768056bc75e2d63100000821115610d8857610d81826103eb69032d26d12e980b600000680821ab0d4414980000613130565b9050611100565b678ac7230489e80000821115610dbe57610db7826103bc685150ae84a8cdf0000067d02ab486cedc0000613130565b9050611100565b670de0b6b3a7640000821115610df457610ded8261038d680821ab0d44149800006714d1120d7b160000613130565b9050611100565b67016345785d8a0000821115610e2957610e228261035e67d02ab486cedc0000670214e8348c4f0000613130565b9050611100565b662386f26fc10000821115610e5c57610e558261032f6714d1120d7b16000066354a6ba7a18000613130565b9050611100565b66038d7ea4c68000821115610e8f57610e8882610300670214e8348c4f00006605543df729c000613130565b9050611100565b655af3107a4000821115610ebf57610eb8826102d166354a6ba7a1800065886c98b76000613130565b9050611100565b610eda826102a26605543df729c000650da475abf000613130565b9050611100565b69021e19e0c9bab2400000821015610f1b57610f148261041a691fc3842bd1f071c00000685150ae84a8cdf00000613130565b9050611100565b69152d02c7e14af6800000821015610f5757610f50826104496a013da329b633647180000069032d26d12e980b600000613130565b9050611100565b69d3c21bcecceda1000000821015610f9357610f8c826104786a0c685fa11e01ec6f000000691fc3842bd1f071c00000613130565b9050611100565b6a084595161401484a000000821015610fd157610fca826104a76a7c13bc4b2c133c560000006a013da329b6336471800000613130565b9050611100565b6a52b7d2dcc80cd2e400000082101561101057611009826104d66b04d8c55aefb8c05b5c0000006a0c685fa11e01ec6f000000613130565b9050611100565b6b033b2e3c9fd0803ce800000082101561105057611049826105056b3077b58d5d378391980000006a7c13bc4b2c133c56000000613130565b9050611100565b6b204fce5e3e250261100000008210156110925761108b826105346c01e4ad1785a42b23aff00000006b04d8c55aefb8c05b5c000000613130565b9050611100565b6c01431e0fae6d7217caa00000008210156110d5576110ce826105636c12eec2eb3869af64df600000006b3077b58d5d37839198000000613130565b9050611100565b6110fd826105926cbd539d303420d9f0b9c00000006c01e4ad1785a42b23aff0000000613130565b90505b919050565b6002600654141561117e576040517f08c379a000000000000000000000000000000000000000000000000000000000815260040180806020018281038252601d8152602001807f4c6f636b436f6e74726163743a207265656e7472616e742063616c6c2e00000081525060200191505060405180910390fd5b600260068190555060008054906101000a900473ffffffffffffffffffffffffffffffffffffffff1673ffffffffffffffffffffffffffffffffffffffff1663c7bdc5aa336040518263ffffffff1660e01b81526004016111df9190614885565b60006040518083038186803b1580156111f757600080fd5b505afa15801561120b573d6000803e3d6000fd5b505050508173ffffffffffffffffffffffffffffffffffffffff1663a9059cbb84836040518363ffffffff1660e01b815260040161124a9291906148a0565b602060405180830381600087803b15801561126457600080fd5b505af1158015611278573d6000803e3d6000fd5b505050506040513d601f19601f8201168201806040525081019061129c919061429c565b6112a557600080fd5b6001600681905550505050565b6112ba613b7d565b61148b600e60008573ffffffffffffffffffffffffffffffffffffffff1673ffffffffffffffffffffffffffffffffffffffff16815260200190815260200160002060008473ffffffffffffffffffffffffffffffffffffffff1673ffffffffffffffffffffffffffffffffffffffff1681526020019081526020016000206040518060a00160405290816000820160009054906101000a90046fffffffffffffffffffffffffffffffff166fffffffffffffffffffffffffffffffff166fffffffffffffffffffffffffffffffff1681526020016000820160109054906101000a90046fffffffffffffffffffffffffffffffff166fffffffffffffffffffffffffffffffff166fffffffffffffffffffffffffffffffff1681526020016001820160009054906101000a900477ffffffffffffffffffffffffffffffffffffffffffffffff1677ffffffffffffffffffffffffffffffffffffffffffffffff1677ffffffffffffffffffffffffffffffffffffffffffffffff1681526020016001820160189054906101000a900463ffffffff1663ffffffff1663ffffffff16815260200160018201601c9054906101000a900463ffffffff1663ffffffff1663ffffffff1681525050613152565b905092915050565b606060008060009054906101000a900473ffffffffffffffffffffffffffffffffffffffff1673ffffffffffffffffffffffffffffffffffffffff166380f556056040518163ffffffff1660e01b815260040160206040518083038186803b1580156114fe57600080fd5b505afa158015611512573d6000803e3d6000fd5b505050506040513d601f19601f820116820180604052508101906115369190614317565b73ffffffffffffffffffffffffffffffffffffffff1663bd3aeef96040518163ffffffff1660e01b815260040160206040518083038186803b15801561157b57600080fd5b505afa15801561158f573d6000803e3d6000fd5b505050506040513d601f19601f820116820180604052508101906115b391906143bb565b146115f3576040517f08c379a00000000000000000000000000000000000000000000000000000000081526004016115ea90614928565b60405180910390fd5b815167ffffffffffffffff8111801561160b57600080fd5b5060405190808252806020026020018201604052801561163a5781602001602082028036833780820191505090505b509050600080600090505b835181101561179f576007600085838151811061165e57fe5b602002602001015167ffffffffffffffff1667ffffffffffffffff168152602001908152602001600020915061177a611739600b60000160109054906101000a90046fffffffffffffffffffffffffffffffff166fffffffffffffffffffffffffffffffff168460020160009054906101000a90046fffffffffffffffffffffffffffffffff166fffffffffffffffffffffffffffffffff168560010160109054906101000a90046fffffffffffffffffffffffffffffffff166fffffffffffffffffffffffffffffffff166131fa9092919063ffffffff16565b8360010160009054906101000a90046fffffffffffffffffffffffffffffffff166fffffffffffffffffffffffffffffffff1661330990919063ffffffff16565b83828151811061178657fe5b6020026020010181815250508080600101915050611645565b5050919050565b6002600654141561181f576040517f08c379a000000000000000000000000000000000000000000000000000000000815260040180806020018281038252601d8152602001807f4c6f636b436f6e74726163743a207265656e7472616e742063616c6c2e00000081525060200191505060405180910390fd5b600260068190555060008054906101000a900473ffffffffffffffffffffffffffffffffffffffff1673ffffffffffffffffffffffffffffffffffffffff1663e7c37799336040518263ffffffff1660e01b81526004016118809190614885565b60006040518083038186803b15801561189857600080fd5b505afa1580156118ac573d6000803e3d6000fd5b50505050600460009054906101000a900473ffffffffffffffffffffffffffffffffffffffff1673ffffffffffffffffffffffffffffffffffffffff1663a9059cbb83836040518363ffffffff1660e01b815260040161190d9291906148a0565b602060405180830381600087803b15801561192757600080fd5b505af115801561193b573d6000803e3d6000fd5b505050506040513d601f19601f8201168201806040525081019061195f919061429c565b61196857600080fd5b60016006819055505050565b600080600760008467ffffffffffffffff1667ffffffffffffffff16815260200190815260200160002060010160009054906101000a90046fffffffffffffffffffffffffffffffff166fffffffffffffffffffffffffffffffff169050600760008467ffffffffffffffff1667ffffffffffffffff16815260200190815260200160002060010160109054906101000a90046fffffffffffffffffffffffffffffffff166fffffffffffffffffffffffffffffffff1691506000600760008567ffffffffffffffff1667ffffffffffffffff16815260200190815260200160002060020160009054906101000a90046fffffffffffffffffffffffffffffffff166fffffffffffffffffffffffffffffffff1690506000600b60000160109054906101000a90046fffffffffffffffffffffffffffffffff166fffffffffffffffffffffffffffffffff169050808214611ae157611ade8183866131fa9092919063ffffffff16565b93505b5050915091565b600080831480611af85750600082145b611b1c57611b17611b12848461330990919063ffffffff16565b610d3c565b611b1f565b60005b905092915050565b60026006541415611ba0576040517f08c379a000000000000000000000000000000000000000000000000000000000815260040180806020018281038252601d8152602001807f4c6f636b436f6e74726163743a207265656e7472616e742063616c6c2e00000081525060200191505060405180910390fd5b600260068190555060008054906101000a900473ffffffffffffffffffffffffffffffffffffffff1673ffffffffffffffffffffffffffffffffffffffff166368219d39336040518263ffffffff1660e01b8152600401611c019190614885565b60006040518083038186803b158015611c1957600080fd5b505afa158015611c2d573d6000803e3d6000fd5b50505050611c3a8161341c565b600b60008201518160000160006101000a8154816fffffffffffffffffffffffffffffffff02191690836fffffffffffffffffffffffffffffffff16021790555060208201518160000160106101000a8154816fffffffffffffffffffffffffffffffff02191690836fffffffffffffffffffffffffffffffff1602179055506040820151816001015560608201518160020155905050600160068190555050565b60026006541415611d55576040517f08c379a000000000000000000000000000000000000000000000000000000000815260040180806020018281038252601d8152602001807f4c6f636b436f6e74726163743a207265656e7472616e742063616c6c2e00000081525060200191505060405180910390fd5b600260068190555060008054906101000a900473ffffffffffffffffffffffffffffffffffffffff1673ffffffffffffffffffffffffffffffffffffffff1663c7bdc5aa336040518263ffffffff1660e01b8152600401611db69190614885565b60006040518083038186803b158015611dce57600080fd5b505afa158015611de2573d6000803e3d6000fd5b50505050600081602001511415611f1657600e60008473ffffffffffffffffffffffffffffffffffffffff1673ffffffffffffffffffffffffffffffffffffffff16815260200190815260200160002060008373ffffffffffffffffffffffffffffffffffffffff1673ffffffffffffffffffffffffffffffffffffffff168152602001908152602001600020600080820160006101000a8154906fffffffffffffffffffffffffffffffff02191690556000820160106101000a8154906fffffffffffffffffffffffffffffffff02191690556001820160006101000a81549077ffffffffffffffffffffffffffffffffffffffffffffffff02191690556001820160186101000a81549063ffffffff021916905560018201601c6101000a81549063ffffffff021916905550506120ba565b611f1f81613490565b600e60008573ffffffffffffffffffffffffffffffffffffffff1673ffffffffffffffffffffffffffffffffffffffff16815260200190815260200160002060008473ffffffffffffffffffffffffffffffffffffffff1673ffffffffffffffffffffffffffffffffffffffff16815260200190815260200160002060008201518160000160006101000a8154816fffffffffffffffffffffffffffffffff02191690836fffffffffffffffffffffffffffffffff16021790555060208201518160000160106101000a8154816fffffffffffffffffffffffffffffffff02191690836fffffffffffffffffffffffffffffffff16021790555060408201518160010160006101000a81548177ffffffffffffffffffffffffffffffffffffffffffffffff021916908377ffffffffffffffffffffffffffffffffffffffffffffffff16021790555060608201518160010160186101000a81548163ffffffff021916908363ffffffff160217905550608082015181600101601c6101000a81548163ffffffff021916908363ffffffff1602179055509050505b6001600681905550505050565b60026006541415612140576040517f08c379a000000000000000000000000000000000000000000000000000000000815260040180806020018281038252601d8152602001807f4c6f636b436f6e74726163743a207265656e7472616e742063616c6c2e00000081525060200191505060405180910390fd5b600260068190555060008054906101000a900473ffffffffffffffffffffffffffffffffffffffff1673ffffffffffffffffffffffffffffffffffffffff1663c04be454336040518263ffffffff1660e01b81526004016121a19190614885565b60006040518083038186803b1580156121b957600080fd5b505afa1580156121cd573d6000803e3d6000fd5b505050506000600760008467ffffffffffffffff1667ffffffffffffffff16815260200190815260200160002060030160009054906101000a900467ffffffffffffffff1690506000600760008567ffffffffffffffff1667ffffffffffffffff16815260200190815260200160002060030160189054906101000a900463ffffffff169050600061226784604001518560200151611ae8565b90508063ffffffff168263ffffffff16146124ed578084610100019063ffffffff16908163ffffffff16815250506000808363ffffffff161461241357600860008463ffffffff1663ffffffff168152602001908152602001600020905060006122d76001838054905003613560565b67ffffffffffffffff169050808567ffffffffffffffff16146123d357600082828154811061230257fe5b90600052602060002090600491828204019190066008029054906101000a900467ffffffffffffffff16905080838767ffffffffffffffff168154811061234557fe5b90600052602060002090600491828204019190066008026101000a81548167ffffffffffffffff021916908367ffffffffffffffff16021790555085600760008367ffffffffffffffff1667ffffffffffffffff16815260200190815260200160002060030160006101000a81548167ffffffffffffffff021916908367ffffffffffffffff160217905550505b818054806123dd57fe5b60019003818190600052602060002090600491828204019190066008026101000a81549067ffffffffffffffff02191690559055505b60008263ffffffff1614156124485760008560a0019067ffffffffffffffff16908167ffffffffffffffff16815250506124eb565b600860008363ffffffff1663ffffffff16815260200190815260200160002090506124768180549050613560565b8560a0019067ffffffffffffffff16908167ffffffffffffffff1681525050808690806001815401808255809150506001900390600052602060002090600491828204019190066008029091909190916101000a81548167ffffffffffffffff021916908367ffffffffffffffff1602179055505b505b60008460200151148015612505575060008460400151145b1561263557600760008667ffffffffffffffff1667ffffffffffffffff1681526020019081526020016000206000808201600090556001820160006101000a8154906fffffffffffffffffffffffffffffffff02191690556001820160106101000a8154906fffffffffffffffffffffffffffffffff02191690556002820160006101000a8154906fffffffffffffffffffffffffffffffff02191690556002820160106101000a8154906fffffffffffffffffffffffffffffffff02191690556003820160006101000a81549067ffffffffffffffff02191690556003820160086101000a81549067ffffffffffffffff02191690556003820160106101000a81549067ffffffffffffffff02191690556003820160186101000a81549063ffffffff02191690555050612824565b61263e846135cb565b600760008767ffffffffffffffff1667ffffffffffffffff1681526020019081526020016000206000820151816000015560208201518160010160006101000a8154816fffffffffffffffffffffffffffffffff02191690836fffffffffffffffffffffffffffffffff16021790555060408201518160010160106101000a8154816fffffffffffffffffffffffffffffffff02191690836fffffffffffffffffffffffffffffffff16021790555060608201518160020160006101000a8154816fffffffffffffffffffffffffffffffff02191690836fffffffffffffffffffffffffffffffff16021790555060808201518160020160106101000a8154816fffffffffffffffffffffffffffffffff02191690836fffffffffffffffffffffffffffffffff16021790555060a08201518160030160006101000a81548167ffffffffffffffff021916908367ffffffffffffffff16021790555060c08201518160030160086101000a81548167ffffffffffffffff021916908367ffffffffffffffff16021790555060e08201518160030160106101000a81548167ffffffffffffffff021916908367ffffffffffffffff1602179055506101008201518160030160186101000a81548163ffffffff021916908363ffffffff1602179055509050505b50505060016006819055505050565b60008054906101000a900473ffffffffffffffffffffffffffffffffffffffff1673ffffffffffffffffffffffffffffffffffffffff16639a371c846040518163ffffffff1660e01b815260040160206040518083038186803b15801561289957600080fd5b505afa1580156128ad573d6000803e3d6000fd5b505050506040513d601f19601f820116820180604052508101906128d191906142ee565b73ffffffffffffffffffffffffffffffffffffffff163373ffffffffffffffffffffffffffffffffffffffff161461293e576040517f08c379a000000000000000000000000000000000000000000000000000000000815260040161293590614948565b60405180910390fd5b612947816136cb565b600960008201518160000160006101000a8154816fffffffffffffffffffffffffffffffff02191690836fffffffffffffffffffffffffffffffff16021790555060208201518160000160106101000a8154816fffffffffffffffffffffffffffffffff02191690836fffffffffffffffffffffffffffffffff1602179055506040820151816001015590505050565b6129df613bc0565b612a9260096040518060600160405290816000820160009054906101000a90046fffffffffffffffffffffffffffffffff166fffffffffffffffffffffffffffffffff166fffffffffffffffffffffffffffffffff1681526020016000820160109054906101000a90046fffffffffffffffffffffffffffffffff166fffffffffffffffffffffffffffffffff166fffffffffffffffffffffffffffffffff168152602001600182015481525050613735565b90506000600b60000160109054906101000a90046fffffffffffffffffffffffffffffffff166fffffffffffffffffffffffffffffffff16905081600001518114612b0857612af481836000015184602001516131fa9092919063ffffffff16565b826020018181525050808260000181815250505b5090565b60026006541415612b85576040517f08c379a000000000000000000000000000000000000000000000000000000000815260040180806020018281038252601d8152602001807f4c6f636b436f6e74726163743a207265656e7472616e742063616c6c2e00000081525060200191505060405180910390fd5b600260068190555060008054906101000a900473ffffffffffffffffffffffffffffffffffffffff1673ffffffffffffffffffffffffffffffffffffffff166380f556056040518163ffffffff1660e01b815260040160206040518083038186803b158015612bf357600080fd5b505afa158015612c07573d6000803e3d6000fd5b505050506040513d601f19601f82011682018060405250810190612c2b9190614317565b73ffffffffffffffffffffffffffffffffffffffff163373ffffffffffffffffffffffffffffffffffffffff1614612c98576040517f08c379a0000000000000000000000000000000000000000000000000000000008152600401612c8f90614948565b60405180910390fd5b600260009054906101000a900473ffffffffffffffffffffffffffffffffffffffff1673ffffffffffffffffffffffffffffffffffffffff1663a9059cbb83836040518363ffffffff1660e01b8152600401612cf59291906148a0565b602060405180830381600087803b158015612d0f57600080fd5b505af1158015612d23573d6000803e3d6000fd5b505050506040513d601f19601f82011682018060405250810190612d47919061429c565b5060016006819055505050565b60026006541415612dcd576040517f08c379a000000000000000000000000000000000000000000000000000000000815260040180806020018281038252601d8152602001807f4c6f636b436f6e74726163743a207265656e7472616e742063616c6c2e00000081525060200191505060405180910390fd5b600260068190555060008054906101000a900473ffffffffffffffffffffffffffffffffffffffff1673ffffffffffffffffffffffffffffffffffffffff166368219d39336040518263ffffffff1660e01b8152600401612e2e9190614885565b60006040518083038186803b158015612e4657600080fd5b505afa158015612e5a573d6000803e3d6000fd5b50505050612efd81612eb157612eac83600b60000160009054906101000a90046fffffffffffffffffffffffffffffffff166fffffffffffffffffffffffffffffffff1661378f90919063ffffffff16565b612ef8565b612ef783600b60000160009054906101000a90046fffffffffffffffffffffffffffffffff166fffffffffffffffffffffffffffffffff166137d990919063ffffffff16565b5b613861565b600b60000160006101000a8154816fffffffffffffffffffffffffffffffff02191690836fffffffffffffffffffffffffffffffff16021790555060016006819055505050565b612f4c613ae5565b604051806080016040528083600001516fffffffffffffffffffffffffffffffff168152602001836040015181526020018360600151815260200183602001516fffffffffffffffffffffffffffffffff168152509050919050565b612fb0613b0d565b6040518061012001604052808360000151815260200183602001516fffffffffffffffffffffffffffffffff16815260200183604001516fffffffffffffffffffffffffffffffff16815260200183606001516fffffffffffffffffffffffffffffffff16815260200183608001516fffffffffffffffffffffffffffffffff1681526020018360a0015167ffffffffffffffff1681526020018360c0015167ffffffffffffffff1681526020018360e0015167ffffffffffffffff16815260200183610100015163ffffffff168152509050919050565b613099670de0b6b3a76400006138d4565b6bffffffffffffffffffffffff16600b60000160106101000a8154816fffffffffffffffffffffffffffffffff02191690836fffffffffffffffffffffffffffffffff1602179055506130f3670de0b6b3a7640000613861565b600960000160006101000a8154816fffffffffffffffffffffffffffffffff02191690836fffffffffffffffffffffffffffffffff160217905550565b6000613148828601848161314057fe5b048503613943565b9050949350505050565b61315a613b7d565b6040518060a0016040528083600001516fffffffffffffffffffffffffffffffff16815260200183602001516fffffffffffffffffffffffffffffffff168152602001836040015177ffffffffffffffffffffffffffffffffffffffffffffffff168152602001836060015163ffffffff1667ffffffffffffffff168152602001836080015163ffffffff1667ffffffffffffffff168152509050919050565b60008084148061320a5750600083145b156132185760009050613302565b600082141561328f576040517f08c379a000000000000000000000000000000000000000000000000000000000815260040180806020018281038252601b8152602001807f536166654d6174683a206469766973696f6e206279207a65726f2e000000000081525060200191505060405180910390fd5b82840290508284828161329e57fe5b04146132f5576040517f08c379a0000000000000000000000000000000000000000000000000000000008152600401808060200182810382526022815260200180614d416022913960400191505060405180910390fd5b8181816132fe57fe5b0490505b9392505050565b60008083141561331c5760009050613416565b6000821415613393576040517f08c379a000000000000000000000000000000000000000000000000000000000815260040180806020018281038252601b8152602001807f536166654d6174683a206469766973696f6e206279207a65726f2e000000000081525060200191505060405180910390fd5b670de0b6b3a764000083029050670de0b6b3a76400008382816133b257fe5b0414613409576040517f08c379a0000000000000000000000000000000000000000000000000000000008152600401808060200182810382526022815260200180614d416022913960400191505060405180910390fd5b81818161341257fe5b0490505b92915050565b613424613be1565b604051806080016040528061343c8460000151613861565b6fffffffffffffffffffffffffffffffff1681526020016134608460600151613861565b6fffffffffffffffffffffffffffffffff1681526020018360200151815260200183604001518152509050919050565b613498613c2d565b6040518060a001604052806134b08460000151613861565b6fffffffffffffffffffffffffffffffff1681526020016134d48460200151613861565b6fffffffffffffffffffffffffffffffff1681526020016134f884604001516139aa565b77ffffffffffffffffffffffffffffffffffffffffffffffff16815260200161352e846060015167ffffffffffffffff16613943565b63ffffffff168152602001613550846080015167ffffffffffffffff16613943565b63ffffffff168152509050919050565b60006801000000000000000082106135c3576040517f08c379a0000000000000000000000000000000000000000000000000000000008152600401808060200182810382526026815260200180614d8a6026913960400191505060405180910390fd5b819050919050565b6135d3613ca6565b604051806101200160405280836000015181526020016135f68460200151613861565b6fffffffffffffffffffffffffffffffff16815260200161361a8460400151613861565b6fffffffffffffffffffffffffffffffff16815260200161363e8460600151613861565b6fffffffffffffffffffffffffffffffff1681526020016136628460800151613861565b6fffffffffffffffffffffffffffffffff1681526020018360a0015167ffffffffffffffff1681526020018360c0015167ffffffffffffffff1681526020018360e0015167ffffffffffffffff16815260200183610100015163ffffffff168152509050919050565b6136d3613d5e565b60405180606001604052806136eb8460000151613861565b6fffffffffffffffffffffffffffffffff16815260200161370f8460200151613861565b6fffffffffffffffffffffffffffffffff16815260200183604001518152509050919050565b61373d613bc0565b604051806060016040528083600001516fffffffffffffffffffffffffffffffff16815260200183602001516fffffffffffffffffffffffffffffffff16815260200183604001518152509050919050565b60006137d183836040518060400160405280601e81526020017f536166654d6174683a207375627472616374696f6e206f766572666c6f770000815250613a25565b905092915050565b600080828401905083811015613857576040517f08c379a000000000000000000000000000000000000000000000000000000000815260040180806020018281038252601b8152602001807f536166654d6174683a206164646974696f6e206f766572666c6f77000000000081525060200191505060405180910390fd5b8091505092915050565b600070010000000000000000000000000000000082106138cc576040517f08c379a0000000000000000000000000000000000000000000000000000000008152600401808060200182810382526027815260200180614d636027913960400191505060405180910390fd5b819050919050565b60006c01000000000000000000000000821061393b576040517f08c379a0000000000000000000000000000000000000000000000000000000008152600401808060200182810382526026815260200180614cf46026913960400191505060405180910390fd5b819050919050565b600064010000000082106139a2576040517f08c379a0000000000000000000000000000000000000000000000000000000008152600401808060200182810382526026815260200180614db06026913960400191505060405180910390fd5b819050919050565b600078010000000000000000000000000000000000000000000000008210613a1d576040517f08c379a0000000000000000000000000000000000000000000000000000000008152600401808060200182810382526027815260200180614d1a6027913960400191505060405180910390fd5b819050919050565b6000838311158290613ad2576040517f08c379a00000000000000000000000000000000000000000000000000000000081526004018080602001828103825283818151815260200191508051906020019080838360005b83811015613a97578082015181840152602081019050613a7c565b50505050905090810190601f168015613ac45780820380516001836020036101000a031916815260200191505b509250505060405180910390fd5b5060008385039050809150509392505050565b6040518060800160405280600081526020016000815260200160008152602001600081525090565b6040518061012001604052806000815260200160008152602001600081526020016000815260200160008152602001600067ffffffffffffffff168152602001600067ffffffffffffffff168152602001600067ffffffffffffffff168152602001600063ffffffff1681525090565b6040518060a00160405280600081526020016000815260200160008152602001600067ffffffffffffffff168152602001600067ffffffffffffffff1681525090565b60405180606001604052806000815260200160008152602001600081525090565b604051806080016040528060006fffffffffffffffffffffffffffffffff16815260200160006fffffffffffffffffffffffffffffffff16815260200160008152602001600081525090565b6040518060a0016040528060006fffffffffffffffffffffffffffffffff16815260200160006fffffffffffffffffffffffffffffffff168152602001600077ffffffffffffffffffffffffffffffffffffffffffffffff168152602001600063ffffffff168152602001600063ffffffff1681525090565b6040518061012001604052806000815260200160006fffffffffffffffffffffffffffffffff16815260200160006fffffffffffffffffffffffffffffffff16815260200160006fffffffffffffffffffffffffffffffff16815260200160006fffffffffffffffffffffffffffffffff168152602001600067ffffffffffffffff168152602001600067ffffffffffffffff168152602001600067ffffffffffffffff168152602001600063ffffffff1681525090565b604051806060016040528060006fffffffffffffffffffffffffffffffff16815260200160006fffffffffffffffffffffffffffffffff168152602001600081525090565b600081359050613db281614c24565b92915050565b600082601f830112613dc957600080fd5b8135613ddc613dd782614a65565b614a34565b91508181835260208401935060208101905083856020840282011115613e0157600080fd5b60005b83811015613e315781613e178882614130565b845260208401935060208301925050600181019050613e04565b5050505092915050565b600081359050613e4a81614c3b565b92915050565b600081519050613e5f81614c3b565b92915050565b600081359050613e7481614c52565b92915050565b600081519050613e8981614c69565b92915050565b600081519050613e9e81614c80565b92915050565b600081359050613eb381614c97565b92915050565b60006101208284031215613ecc57600080fd5b613ed7610120614a34565b90506000613ee7848285016140f1565b6000830152506020613efb848285016140f1565b6020830152506040613f0f848285016140f1565b6040830152506060613f23848285016140f1565b6060830152506080613f37848285016140f1565b60808301525060a0613f4b84828501614130565b60a08301525060c0613f5f84828501614130565b60c08301525060e0613f7384828501614130565b60e083015250610100613f888482850161411b565b6101008301525092915050565b600060608284031215613fa757600080fd5b613fb16060614a34565b90506000613fc1848285016140f1565b6000830152506020613fd5848285016140f1565b6020830152506040613fe9848285016140f1565b60408301525092915050565b600060a0828403121561400757600080fd5b61401160a0614a34565b90506000614021848285016140f1565b6000830152506020614035848285016140f1565b6020830152506040614049848285016140f1565b604083015250606061405d84828501614130565b606083015250608061407184828501614130565b60808301525092915050565b60006080828403121561408f57600080fd5b6140996080614a34565b905060006140a9848285016140f1565b60008301525060206140bd848285016140f1565b60208301525060406140d1848285016140f1565b60408301525060606140e5848285016140f1565b60608301525092915050565b60008135905061410081614cae565b92915050565b60008151905061411581614cae565b92915050565b60008135905061412a81614cc5565b92915050565b60008135905061413f81614cdc565b92915050565b6000806040838503121561415857600080fd5b600061416685828601613da3565b925050602061417785828601613ea4565b9150509250929050565b600080600060e0848603121561419657600080fd5b60006141a486828701613da3565b93505060206141b586828701613ea4565b92505060406141c686828701613ff5565b9150509250925092565b6000806000606084860312156141e557600080fd5b60006141f386828701613da3565b935050602061420486828701613ea4565b9250506040614215868287016140f1565b9150509250925092565b6000806040838503121561423257600080fd5b600061424085828601613da3565b9250506020614251858286016140f1565b9150509250929050565b60006020828403121561426d57600080fd5b600082013567ffffffffffffffff81111561428757600080fd5b61429384828501613db8565b91505092915050565b6000602082840312156142ae57600080fd5b60006142bc84828501613e50565b91505092915050565b6000602082840312156142d757600080fd5b60006142e584828501613e65565b91505092915050565b60006020828403121561430057600080fd5b600061430e84828501613e7a565b91505092915050565b60006020828403121561432957600080fd5b600061433784828501613e8f565b91505092915050565b60006060828403121561435257600080fd5b600061436084828501613f95565b91505092915050565b60006080828403121561437b57600080fd5b60006143898482850161407d565b91505092915050565b6000602082840312156143a457600080fd5b60006143b2848285016140f1565b91505092915050565b6000602082840312156143cd57600080fd5b60006143db84828501614106565b91505092915050565b600080604083850312156143f757600080fd5b6000614405858286016140f1565b925050602061441685828601613e3b565b9150509250929050565b6000806040838503121561443357600080fd5b6000614441858286016140f1565b9250506020614452858286016140f1565b9150509250929050565b60006020828403121561446e57600080fd5b600061447c8482850161411b565b91505092915050565b60006020828403121561449757600080fd5b60006144a584828501614130565b91505092915050565b60008061014083850312156144c257600080fd5b60006144d085828601614130565b92505060206144e185828601613eb9565b9150509250929050565b60006144f7838361483a565b60208301905092915050565b600061450f8383614876565b60208301905092915050565b61452481614bc8565b82525050565b61453381614b14565b82525050565b600061454482614ab1565b61454e8185614ae1565b935061455983614a91565b8060005b8381101561458a57815161457188826144eb565b975061457c83614ac7565b92505060018101905061455d565b5085935050505092915050565b60006145a282614abc565b6145ac8185614af2565b93506145b783614aa1565b8060005b838110156145e85781516145cf8882614503565b97506145da83614ad4565b9250506001810190506145bb565b5085935050505092915050565b6145fe81614bda565b82525050565b6000614611601c83614b03565b91507f43616c6c20616363727565496e74657265737428292066697273742e000000006000830152602082019050919050565b6000614651600f83614b03565b91507f4e6f7420417574686f72697a65642e00000000000000000000000000000000006000830152602082019050919050565b6101208201600082015161469b600085018261483a565b5060208201516146ae602085018261483a565b5060408201516146c1604085018261483a565b5060608201516146d4606085018261483a565b5060808201516146e7608085018261483a565b5060a08201516146fa60a0850182614876565b5060c082015161470d60c0850182614876565b5060e082015161472060e0850182614876565b50610100820151614735610100850182614858565b50505050565b606082016000820151614751600085018261483a565b506020820151614764602085018261483a565b506040820151614777604085018261483a565b50505050565b60a082016000820151614793600085018261483a565b5060208201516147a6602085018261483a565b5060408201516147b9604085018261483a565b5060608201516147cc6060850182614876565b5060808201516147df6080850182614876565b50505050565b6080820160008201516147fb600085018261483a565b50602082015161480e602085018261483a565b506040820151614821604085018261483a565b506060820151614834606085018261483a565b50505050565b61484381614b9a565b82525050565b61485281614b9a565b82525050565b61486181614ba4565b82525050565b61487081614ba4565b82525050565b61487f81614bb4565b82525050565b600060208201905061489a600083018461451b565b92915050565b60006040820190506148b5600083018561452a565b6148c26020830184614849565b9392505050565b600060208201905081810360008301526148e38184614539565b905092915050565b600060208201905081810360008301526149058184614597565b905092915050565b600060208201905061492260008301846145f5565b92915050565b6000602082019050818103600083015261494181614604565b9050919050565b6000602082019050818103600083015261496181614644565b9050919050565b60006101208201905061497e6000830184614684565b92915050565b6000606082019050614999600083018461473b565b92915050565b600060a0820190506149b4600083018461477d565b92915050565b60006080820190506149cf60008301846147e5565b92915050565b60006020820190506149ea6000830184614849565b92915050565b6000604082019050614a056000830185614849565b614a126020830184614849565b9392505050565b6000602082019050614a2e6000830184614867565b92915050565b6000604051905081810181811067ffffffffffffffff82111715614a5b57614a5a614c22565b5b8060405250919050565b600067ffffffffffffffff821115614a8057614a7f614c22565b5b602082029050602081019050919050565b6000819050602082019050919050565b6000819050602082019050919050565b600081519050919050565b600081519050919050565b6000602082019050919050565b6000602082019050919050565b600082825260208201905092915050565b600082825260208201905092915050565b600082825260208201905092915050565b6000614b1f82614b7a565b9050919050565b60008115159050919050565b6000614b3d82614b14565b9050919050565b6000614b4f82614b14565b9050919050565b6000614b6182614b14565b9050919050565b6000614b7382614b14565b9050919050565b600073ffffffffffffffffffffffffffffffffffffffff82169050919050565b6000819050919050565b600063ffffffff82169050919050565b600067ffffffffffffffff82169050919050565b6000614bd382614bfe565b9050919050565b6000614be582614bec565b9050919050565b6000614bf782614b7a565b9050919050565b6000614c0982614c10565b9050919050565b6000614c1b82614b7a565b9050919050565bfe5b614c2d81614b14565b8114614c3857600080fd5b50565b614c4481614b26565b8114614c4f57600080fd5b50565b614c5b81614b32565b8114614c6657600080fd5b50565b614c7281614b44565b8114614c7d57600080fd5b50565b614c8981614b56565b8114614c9457600080fd5b50565b614ca081614b68565b8114614cab57600080fd5b50565b614cb781614b9a565b8114614cc257600080fd5b50565b614cce81614ba4565b8114614cd957600080fd5b50565b614ce581614bb4565b8114614cf057600080fd5b5056fe53616665436173743a2076616c756520646f65736e27742066697420696e203936206269747353616665436173743a2076616c756520646f65736e27742066697420696e203139322062697473536166654d6174683a206d756c7469706c69636174696f6e206f766572666c6f772e53616665436173743a2076616c756520646f65736e27742066697420696e20313238206269747353616665436173743a2076616c756520646f65736e27742066697420696e203634206269747353616665436173743a2076616c756520646f65736e27742066697420696e2033322062697473a26469706673582212208e02d0e627ebe1b83c789f3a1b89498c4ae0dee103fe45be2b86bee7b55f965664736f6c63430007040033",
  "linkReferences": {},
  "deployedLinkReferences": {}
}