{
  "_format": "hh-sol-artifact-1",
  "contractName": "Accounting",
  "sourceName": "contracts/core/storage/Accounting.sol",
  "abi": [
    {
      "inputs": [
        {
          "internalType": "contract INonfungiblePositionManager",
          "name": "_nftPositionManager",
          "type": "address"
        }
      ],
      "stateMutability": "nonpayable",
      "type": "constructor"
    },
    {
      "anonymous": false,
      "inputs": [],
      "name": "DebtPositionIndexingDisabled",
      "type": "event"
    },
    {
      "anonymous": false,
      "inputs": [
        {
          "indexed": true,
          "internalType": "address",
          "name": "governor",
          "type": "address"
        }
      ],
      "name": "Initialized",
      "type": "event"
    },
    {
      "anonymous": false,
      "inputs": [],
      "name": "PoolPositionIndexingDisabled",
      "type": "event"
    },
    {
      "anonymous": false,
      "inputs": [],
      "name": "Stopped",
      "type": "event"
    },
    {
      "anonymous": false,
      "inputs": [
        {
          "indexed": false,
          "internalType": "uint32[]",
          "name": "uis",
          "type": "uint32[]"
        }
      ],
      "name": "UIsApproved",
      "type": "event"
    },
    {
      "anonymous": false,
      "inputs": [
        {
          "indexed": false,
          "internalType": "uint32[]",
          "name": "uis",
          "type": "uint32[]"
        }
      ],
      "name": "UIsDisapproved",
      "type": "event"
    },
    {
      "inputs": [],
      "name": "TICK_SPACING",
      "outputs": [
        {
          "internalType": "int24",
          "name": "",
          "type": "int24"
        }
      ],
      "stateMutability": "view",
      "type": "function"
    },
    {
      "inputs": [
        {
          "internalType": "address",
          "name": "owner",
          "type": "address"
        },
        {
          "internalType": "uint256",
          "name": "nftID",
          "type": "uint256"
        }
      ],
      "name": "addPositionToIndex",
      "outputs": [],
      "stateMutability": "nonpayable",
      "type": "function"
    },
    {
      "inputs": [
        {
          "internalType": "uint32[]",
          "name": "ids",
          "type": "uint32[]"
        }
      ],
      "name": "approveUIs",
      "outputs": [],
      "stateMutability": "nonpayable",
      "type": "function"
    },
    {
      "inputs": [],
      "name": "debt",
      "outputs": [
        {
          "internalType": "uint256",
          "name": "",
          "type": "uint256"
        }
      ],
      "stateMutability": "view",
      "type": "function"
    },
    {
      "inputs": [],
      "name": "debtPositionIndexingEnabled",
      "outputs": [
        {
          "internalType": "bool",
          "name": "",
          "type": "bool"
        }
      ],
      "stateMutability": "view",
      "type": "function"
    },
    {
      "inputs": [
        {
          "internalType": "uint256",
          "name": "count",
          "type": "uint256"
        }
      ],
      "name": "decreaseDebt",
      "outputs": [],
      "stateMutability": "nonpayable",
      "type": "function"
    },
    {
      "inputs": [
        {
          "internalType": "contract IUniswapV3Pool",
          "name": "pool",
          "type": "address"
        },
        {
          "internalType": "uint256",
          "name": "liquidity",
          "type": "uint256"
        }
      ],
      "name": "decreasePoolLiquidity",
      "outputs": [],
      "stateMutability": "nonpayable",
      "type": "function"
    },
    {
      "inputs": [
        {
          "internalType": "uint256",
          "name": "nftID",
          "type": "uint256"
        }
      ],
      "name": "deletePoolPosition",
      "outputs": [],
      "stateMutability": "nonpayable",
      "type": "function"
    },
    {
      "inputs": [],
      "name": "deployer",
      "outputs": [
        {
          "internalType": "address",
          "name": "",
          "type": "address"
        }
      ],
      "stateMutability": "view",
      "type": "function"
    },
    {
      "inputs": [
        {
          "internalType": "uint32[]",
          "name": "ids",
          "type": "uint32[]"
        }
      ],
      "name": "disapproveUIs",
      "outputs": [],
      "stateMutability": "nonpayable",
      "type": "function"
    },
    {
      "inputs": [
        {
          "internalType": "uint64",
          "name": "positionID",
          "type": "uint64"
        }
      ],
      "name": "getBasicPositionInfo",
      "outputs": [
        {
          "internalType": "uint256",
          "name": "debtCount",
          "type": "uint256"
        },
        {
          "internalType": "uint256",
          "name": "collateralCount",
          "type": "uint256"
        }
      ],
      "stateMutability": "view",
      "type": "function"
    },
    {
      "inputs": [
        {
          "internalType": "uint256",
          "name": "nftID",
          "type": "uint256"
        }
      ],
      "name": "getPoolPosition",
      "outputs": [
        {
          "components": [
            {
              "internalType": "address",
              "name": "owner",
              "type": "address"
            },
            {
              "internalType": "uint16",
              "name": "poolID",
              "type": "uint16"
            },
            {
              "internalType": "uint256",
              "name": "cumulativeLiquidity",
              "type": "uint256"
            },
            {
              "internalType": "uint256",
              "name": "totalRewards",
              "type": "uint256"
            },
            {
              "internalType": "uint256",
              "name": "lastBlockPositionIncreased",
              "type": "uint256"
            },
            {
              "internalType": "uint128",
              "name": "liquidity",
              "type": "uint128"
            },
            {
              "internalType": "uint64",
              "name": "lastTimeRewarded",
              "type": "uint64"
            },
            {
              "internalType": "int24",
              "name": "tickLower",
              "type": "int24"
            },
            {
              "internalType": "int24",
              "name": "tickUpper",
              "type": "int24"
            },
            {
              "internalType": "uint32",
              "name": "ui",
              "type": "uint32"
            },
            {
              "internalType": "address",
              "name": "kickbackDestination",
              "type": "address"
            },
            {
              "internalType": "uint64",
              "name": "kickbackPortion",
              "type": "uint64"
            }
          ],
          "internalType": "struct IAccounting.PoolPosition",
          "name": "pp",
          "type": "tuple"
        }
      ],
      "stateMutability": "view",
      "type": "function"
    },
    {
      "inputs": [
        {
          "internalType": "address",
          "name": "owner",
          "type": "address"
        }
      ],
      "name": "getPoolPositionNftIdsByOwner",
      "outputs": [
        {
          "internalType": "uint128[]",
          "name": "",
          "type": "uint128[]"
        }
      ],
      "stateMutability": "view",
      "type": "function"
    },
    {
      "inputs": [
        {
          "internalType": "uint64",
          "name": "positionID",
          "type": "uint64"
        }
      ],
      "name": "getPosition",
      "outputs": [
        {
          "components": [
            {
              "internalType": "uint256",
              "name": "startCumulativeDebt",
              "type": "uint256"
            },
            {
              "internalType": "uint256",
              "name": "collateral",
              "type": "uint256"
            },
            {
              "internalType": "uint256",
              "name": "debt",
              "type": "uint256"
            },
            {
              "internalType": "uint256",
              "name": "startDebtExchangeRate",
              "type": "uint256"
            },
            {
              "internalType": "uint256",
              "name": "startTCPRewards",
              "type": "uint256"
            },
            {
              "internalType": "uint64",
              "name": "lastTimeUpdated",
              "type": "uint64"
            },
            {
              "internalType": "uint64",
              "name": "lastBorrowTime",
              "type": "uint64"
            },
            {
              "internalType": "int24",
              "name": "tick",
              "type": "int24"
            },
            {
              "internalType": "bool",
              "name": "tickSet",
              "type": "bool"
            },
            {
              "internalType": "uint64",
              "name": "tickIndex",
              "type": "uint64"
            },
            {
              "internalType": "uint32",
              "name": "ui",
              "type": "uint32"
            },
            {
              "internalType": "address",
              "name": "kickbackDestination",
              "type": "address"
            },
            {
              "internalType": "uint64",
              "name": "kickbackPortion",
              "type": "uint64"
            }
          ],
          "internalType": "struct IAccounting.DebtPosition",
          "name": "dp",
          "type": "tuple"
        }
      ],
      "stateMutability": "view",
      "type": "function"
    },
    {
      "inputs": [
        {
          "internalType": "uint16",
          "name": "poolID",
          "type": "uint16"
        }
      ],
      "name": "getRewardStatus",
      "outputs": [
        {
          "components": [
            {
              "internalType": "uint256",
              "name": "totalRewards",
              "type": "uint256"
            },
            {
              "internalType": "uint256",
              "name": "cumulativeLiquidity",
              "type": "uint256"
            }
          ],
          "internalType": "struct IAccounting.RewardStatus",
          "name": "",
          "type": "tuple"
        }
      ],
      "stateMutability": "view",
      "type": "function"
    },
    {
      "inputs": [],
      "name": "getSystemDebtInfo",
      "outputs": [
        {
          "components": [
            {
              "internalType": "uint256",
              "name": "debt",
              "type": "uint256"
            },
            {
              "internalType": "uint256",
              "name": "totalTCPRewards",
              "type": "uint256"
            },
            {
              "internalType": "uint256",
              "name": "cumulativeDebt",
              "type": "uint256"
            },
            {
              "internalType": "uint256",
              "name": "debtExchangeRate",
              "type": "uint256"
            }
          ],
          "internalType": "struct IAccounting.SystemDebtInfo",
          "name": "",
          "type": "tuple"
        }
      ],
      "stateMutability": "view",
      "type": "function"
    },
    {
      "inputs": [
        {
          "internalType": "uint256",
          "name": "collateralCount",
          "type": "uint256"
        },
        {
          "internalType": "uint256",
          "name": "debtCount",
          "type": "uint256"
        }
      ],
      "name": "getTick",
      "outputs": [
        {
          "internalType": "int24",
          "name": "",
          "type": "int24"
        }
      ],
      "stateMutability": "pure",
      "type": "function"
    },
    {
      "inputs": [
        {
          "internalType": "uint32",
          "name": "start",
          "type": "uint32"
        },
        {
          "internalType": "uint32",
          "name": "end",
          "type": "uint32"
        }
      ],
      "name": "getUIs",
      "outputs": [
        {
          "components": [
            {
              "internalType": "address",
              "name": "kickbackDestination",
              "type": "address"
            },
            {
              "internalType": "uint64",
              "name": "kickbackPortion",
              "type": "uint64"
            },
            {
              "internalType": "enum IAccounting.UIGovernanceRating",
              "name": "governanceRating",
              "type": "uint8"
            },
            {
              "internalType": "uint24",
              "name": "tags",
              "type": "uint24"
            },
            {
              "internalType": "string",
              "name": "ipfsHash",
              "type": "string"
            }
          ],
          "internalType": "struct IAccounting.UserInterface[]",
          "name": "uis",
          "type": "tuple[]"
        }
      ],
      "stateMutability": "view",
      "type": "function"
    },
    {
      "inputs": [],
      "name": "governor",
      "outputs": [
        {
          "internalType": "contract IGovernor",
          "name": "",
          "type": "address"
        }
      ],
      "stateMutability": "view",
      "type": "function"
    },
    {
      "inputs": [
        {
          "internalType": "uint256",
          "name": "count",
          "type": "uint256"
        }
      ],
      "name": "increaseDebt",
      "outputs": [],
      "stateMutability": "nonpayable",
      "type": "function"
    },
    {
      "inputs": [
        {
          "internalType": "uint256",
          "name": "count",
          "type": "uint256"
        }
      ],
      "name": "increaseLentHue",
      "outputs": [],
      "stateMutability": "nonpayable",
      "type": "function"
    },
    {
      "inputs": [
        {
          "internalType": "contract IUniswapV3Pool",
          "name": "pool",
          "type": "address"
        },
        {
          "internalType": "uint256",
          "name": "liquidity",
          "type": "uint256"
        }
      ],
      "name": "increasePoolLiquidity",
      "outputs": [],
      "stateMutability": "nonpayable",
      "type": "function"
    },
    {
      "inputs": [
        {
          "internalType": "contract IGovernor",
          "name": "_governor",
          "type": "address"
        }
      ],
      "name": "init",
      "outputs": [],
      "stateMutability": "nonpayable",
      "type": "function"
    },
    {
      "inputs": [
        {
          "internalType": "uint256",
          "name": "nftID",
          "type": "uint256"
        },
        {
          "internalType": "address",
          "name": "addressToCheck",
          "type": "address"
        }
      ],
      "name": "isPositionOwner",
      "outputs": [
        {
          "internalType": "bool",
          "name": "",
          "type": "bool"
        }
      ],
      "stateMutability": "view",
      "type": "function"
    },
    {
      "inputs": [],
      "name": "lentHue",
      "outputs": [
        {
          "internalType": "uint256",
          "name": "",
          "type": "uint256"
        }
      ],
      "stateMutability": "view",
      "type": "function"
    },
    {
      "inputs": [],
      "name": "nextUserInterfaceID",
      "outputs": [
        {
          "internalType": "uint32",
          "name": "",
          "type": "uint32"
        }
      ],
      "stateMutability": "view",
      "type": "function"
    },
    {
      "inputs": [
        {
          "internalType": "address",
          "name": "",
          "type": "address"
        },
        {
          "internalType": "address",
          "name": "",
          "type": "address"
        },
        {
          "internalType": "uint256",
          "name": "",
          "type": "uint256"
        },
        {
          "internalType": "bytes",
          "name": "",
          "type": "bytes"
        }
      ],
      "name": "onERC721Received",
      "outputs": [
        {
          "internalType": "bytes4",
          "name": "",
          "type": "bytes4"
        }
      ],
      "stateMutability": "pure",
      "type": "function"
    },
    {
      "inputs": [
        {
          "internalType": "address",
          "name": "newRewards",
          "type": "address"
        }
      ],
      "name": "onRewardsUpgrade",
      "outputs": [],
      "stateMutability": "nonpayable",
      "type": "function"
    },
    {
      "inputs": [
        {
          "internalType": "contract IUniswapV3Pool",
          "name": "",
          "type": "address"
        }
      ],
      "name": "poolLiquidity",
      "outputs": [
        {
          "internalType": "uint256",
          "name": "",
          "type": "uint256"
        }
      ],
      "stateMutability": "view",
      "type": "function"
    },
    {
      "inputs": [
        {
          "internalType": "uint256",
          "name": "",
          "type": "uint256"
        }
      ],
      "name": "poolPosition",
      "outputs": [
        {
          "internalType": "address",
          "name": "owner",
          "type": "address"
        },
        {
          "internalType": "uint16",
          "name": "poolID",
          "type": "uint16"
        },
        {
          "internalType": "uint32",
          "name": "ui",
          "type": "uint32"
        },
        {
          "internalType": "uint256",
          "name": "cumulativeLiquidity",
          "type": "uint256"
        },
        {
          "internalType": "uint176",
          "name": "totalRewards",
          "type": "uint176"
        },
        {
          "internalType": "uint40",
          "name": "lastTimeRewarded",
          "type": "uint40"
        },
        {
          "internalType": "uint40",
          "name": "lastBlockPositionIncreased",
          "type": "uint40"
        }
      ],
      "stateMutability": "view",
      "type": "function"
    },
    {
      "inputs": [],
      "name": "poolPositionIndexingEnabled",
      "outputs": [
        {
          "internalType": "bool",
          "name": "",
          "type": "bool"
        }
      ],
      "stateMutability": "view",
      "type": "function"
    },
    {
      "inputs": [
        {
          "internalType": "int24",
          "name": "tick",
          "type": "int24"
        }
      ],
      "name": "positionsForTick",
      "outputs": [
        {
          "internalType": "uint64[]",
          "name": "",
          "type": "uint64[]"
        }
      ],
      "stateMutability": "view",
      "type": "function"
    },
    {
      "inputs": [
        {
          "internalType": "uint64",
          "name": "kickbackPortion",
          "type": "uint64"
        },
        {
          "internalType": "uint24",
          "name": "tags",
          "type": "uint24"
        },
        {
          "internalType": "string",
          "name": "ipfsHash",
          "type": "string"
        }
      ],
      "name": "registerUI",
      "outputs": [
        {
          "internalType": "uint32",
          "name": "",
          "type": "uint32"
        }
      ],
      "stateMutability": "nonpayable",
      "type": "function"
    },
    {
      "inputs": [
        {
          "internalType": "address payable",
          "name": "dest",
          "type": "address"
        },
        {
          "internalType": "uint256",
          "name": "count",
          "type": "uint256"
        }
      ],
      "name": "sendCollateral",
      "outputs": [],
      "stateMutability": "nonpayable",
      "type": "function"
    },
    {
      "inputs": [
        {
          "internalType": "address",
          "name": "dest",
          "type": "address"
        },
        {
          "internalType": "uint256",
          "name": "count",
          "type": "uint256"
        }
      ],
      "name": "sendLentHue",
      "outputs": [],
      "stateMutability": "nonpayable",
      "type": "function"
    },
    {
      "inputs": [
        {
          "internalType": "uint256",
          "name": "nftID",
          "type": "uint256"
        },
        {
          "components": [
            {
              "internalType": "address",
              "name": "owner",
              "type": "address"
            },
            {
              "internalType": "uint16",
              "name": "poolID",
              "type": "uint16"
            },
            {
              "internalType": "uint256",
              "name": "cumulativeLiquidity",
              "type": "uint256"
            },
            {
              "internalType": "uint256",
              "name": "totalRewards",
              "type": "uint256"
            },
            {
              "internalType": "uint256",
              "name": "lastBlockPositionIncreased",
              "type": "uint256"
            },
            {
              "internalType": "uint128",
              "name": "liquidity",
              "type": "uint128"
            },
            {
              "internalType": "uint64",
              "name": "lastTimeRewarded",
              "type": "uint64"
            },
            {
              "internalType": "int24",
              "name": "tickLower",
              "type": "int24"
            },
            {
              "internalType": "int24",
              "name": "tickUpper",
              "type": "int24"
            },
            {
              "internalType": "uint32",
              "name": "ui",
              "type": "uint32"
            },
            {
              "internalType": "address",
              "name": "kickbackDestination",
              "type": "address"
            },
            {
              "internalType": "uint64",
              "name": "kickbackPortion",
              "type": "uint64"
            }
          ],
          "internalType": "struct IAccounting.PoolPosition",
          "name": "pp",
          "type": "tuple"
        }
      ],
      "name": "setPoolPosition",
      "outputs": [],
      "stateMutability": "nonpayable",
      "type": "function"
    },
    {
      "inputs": [
        {
          "internalType": "uint64",
          "name": "positionID",
          "type": "uint64"
        },
        {
          "components": [
            {
              "internalType": "uint256",
              "name": "startCumulativeDebt",
              "type": "uint256"
            },
            {
              "internalType": "uint256",
              "name": "collateral",
              "type": "uint256"
            },
            {
              "internalType": "uint256",
              "name": "debt",
              "type": "uint256"
            },
            {
              "internalType": "uint256",
              "name": "startDebtExchangeRate",
              "type": "uint256"
            },
            {
              "internalType": "uint256",
              "name": "startTCPRewards",
              "type": "uint256"
            },
            {
              "internalType": "uint64",
              "name": "lastTimeUpdated",
              "type": "uint64"
            },
            {
              "internalType": "uint64",
              "name": "lastBorrowTime",
              "type": "uint64"
            },
            {
              "internalType": "int24",
              "name": "tick",
              "type": "int24"
            },
            {
              "internalType": "bool",
              "name": "tickSet",
              "type": "bool"
            },
            {
              "internalType": "uint64",
              "name": "tickIndex",
              "type": "uint64"
            },
            {
              "internalType": "uint32",
              "name": "ui",
              "type": "uint32"
            },
            {
              "internalType": "address",
              "name": "kickbackDestination",
              "type": "address"
            },
            {
              "internalType": "uint64",
              "name": "kickbackPortion",
              "type": "uint64"
            }
          ],
          "internalType": "struct IAccounting.DebtPosition",
          "name": "dp",
          "type": "tuple"
        }
      ],
      "name": "setPosition",
      "outputs": [],
      "stateMutability": "nonpayable",
      "type": "function"
    },
    {
      "inputs": [
        {
          "internalType": "uint16",
          "name": "poolID",
          "type": "uint16"
        },
        {
          "components": [
            {
              "internalType": "uint256",
              "name": "totalRewards",
              "type": "uint256"
            },
            {
              "internalType": "uint256",
              "name": "cumulativeLiquidity",
              "type": "uint256"
            }
          ],
          "internalType": "struct IAccounting.RewardStatus",
          "name": "rs",
          "type": "tuple"
        }
      ],
      "name": "setRewardStatus",
      "outputs": [],
      "stateMutability": "nonpayable",
      "type": "function"
    },
    {
      "inputs": [
        {
          "components": [
            {
              "internalType": "uint256",
              "name": "debt",
              "type": "uint256"
            },
            {
              "internalType": "uint256",
              "name": "totalTCPRewards",
              "type": "uint256"
            },
            {
              "internalType": "uint256",
              "name": "cumulativeDebt",
              "type": "uint256"
            },
            {
              "internalType": "uint256",
              "name": "debtExchangeRate",
              "type": "uint256"
            }
          ],
          "internalType": "struct IAccounting.SystemDebtInfo",
          "name": "_sdi",
          "type": "tuple"
        }
      ],
      "name": "setSystemDebtInfo",
      "outputs": [],
      "stateMutability": "nonpayable",
      "type": "function"
    },
    {
      "inputs": [
        {
          "internalType": "int24",
          "name": "rawTick",
          "type": "int24"
        },
        {
          "internalType": "int24",
          "name": "tickSpacing",
          "type": "int24"
        }
      ],
      "name": "snapRawTickToSpacing",
      "outputs": [
        {
          "internalType": "int24",
          "name": "",
          "type": "int24"
        }
      ],
      "stateMutability": "pure",
      "type": "function"
    },
    {
      "inputs": [],
      "name": "stopIndexingDebtPositions",
      "outputs": [],
      "stateMutability": "nonpayable",
      "type": "function"
    },
    {
      "inputs": [],
      "name": "stopIndexingPoolPositions",
      "outputs": [],
      "stateMutability": "nonpayable",
      "type": "function"
    },
    {
      "inputs": [],
      "name": "stopped",
      "outputs": [
        {
          "internalType": "bool",
          "name": "",
          "type": "bool"
        }
      ],
      "stateMutability": "view",
      "type": "function"
    },
    {
      "inputs": [],
      "name": "sweepHue",
      "outputs": [],
      "stateMutability": "nonpayable",
      "type": "function"
    },
    {
      "inputs": [
        {
          "internalType": "uint256",
          "name": "",
          "type": "uint256"
        }
      ],
      "name": "userInterfaces",
      "outputs": [
        {
          "internalType": "address",
          "name": "kickbackDestination",
          "type": "address"
        },
        {
          "internalType": "uint64",
          "name": "kickbackPortion",
          "type": "uint64"
        },
        {
          "internalType": "enum IAccounting.UIGovernanceRating",
          "name": "governanceRating",
          "type": "uint8"
        },
        {
          "internalType": "uint24",
          "name": "tags",
          "type": "uint24"
        },
        {
          "internalType": "string",
          "name": "ipfsHash",
          "type": "string"
        }
      ],
      "stateMutability": "view",
      "type": "function"
    },
    {
      "inputs": [
        {
          "internalType": "bytes4",
          "name": "",
          "type": "bytes4"
        }
      ],
      "name": "validUpdate",
      "outputs": [
        {
          "internalType": "bool",
          "name": "",
          "type": "bool"
        }
      ],
      "stateMutability": "view",
      "type": "function"
    },
    {
      "stateMutability": "payable",
      "type": "receive"
    }
  ],
  "bytecode": "0x60a0604052600160066000509090556001600860006101000a81548160ff0219169083151502179055506001600860016101000a81548160ff0219169083151502179055506001601260006101000a81548163ffffffff021916908363ffffffff160217905550348015620000745760006000fd5b5060405162007d0b38038062007d0b83398181016040528101906200009a919062000125565b5b5b33600160006101000a81548173ffffffffffffffffffffffffffffffffffffffff021916908373ffffffffffffffffffffffffffffffffffffffff1602179055505b8073ffffffffffffffffffffffffffffffffffffffff1660808173ffffffffffffffffffffffffffffffffffffffff1660601b815260140150505b506200015c566200015b565b60006020828403121562000137578081fd5b81516001600160a01b0381168114151562000150578182fd5b809150505b92915050565b5b60805160601c617b8c6200017f600039806133e4528061504c5250617b8c6000f3fe6080604052600436106103015760003560e01c8063625021691161018f578063b87e8d58116100e1578063d99f57261161008a578063f34348f111610064578063f34348f114610c09578063f709960714610c47578063fd9c749214610c71576103e2565b8063d99f572614610b61578063dd88486314610b9f578063e2b1e9e314610bdd576103e2565b8063c7711db4116100bb578063c7711db414610ab9578063d159b4ae14610af7578063d5f3948814610b35576103e2565b8063b87e8d5814610a25578063bdb2a49614610a63578063c3c837ba14610a7b576103e2565b80637f250c6111610143578063a135ef171161011d578063a135ef1714610993578063a678f336146109d1578063b241bbac146109fb576103e2565b80637f250c61146108f9578063816aaa251461092557806384eb7b931461094f576103e2565b806375ea13ca1161017457806375ea13ca1461087957806375f12b21146108a357806378efc6b0146108cf576103e2565b806362502169146108105780636594da9f1461083a576103e2565b80631a206e9111610253578063461054a3116101fc578063530c1ccb116101d6578063530c1ccb146107a45780635a6beaf4146107ce578063602db56b146107f8576103e2565b8063461054a31461072257806346ca626b1461073a57806351ad51f714610766576103e2565b80632b7c7b111161022d5780632b7c7b11146106a45780632c73f09e146106ce578063397d3592146106f8576103e2565b80631a206e911461061257806326879a4e146106505780632a7ba1f71461067a576103e2565b80630f85fc5a116102b5578063150b7a021161028f578063150b7a021461056857806318a15e79146105a657806319ab453c146105e8576103e2565b80630f85fc5a146104c2578063113cf1ab146105005780631428561d1461053e576103e2565b80630b218d24116102e65780630b218d24146104405780630c340a241461046a5780630dca59c114610496576103e2565b806306ef2d80146103e8578063092a26c314610414576103e2565b366103e2575b600060009054906101000a900473ffffffffffffffffffffffffffffffffffffffff1673ffffffffffffffffffffffffffffffffffffffff166380f556056040518163ffffffff1660e01b815260040160206040518083038186803b1580156103705760006000fd5b505afa158015610385573d600060003e3d6000fd5b505050506040513d601f19601f820116820180604052508101906103a99190616b21565b73ffffffffffffffffffffffffffffffffffffffff163373ffffffffffffffffffffffffffffffffffffffff161415156103df57fe5b5b005b60006000fd5b3480156103f55760006000fd5b506103fe610c9d565b60405161040b9190617a3a565b60405180910390f35b3480156104215760006000fd5b5061042a610cbd565b60405161043791906176a6565b60405180910390f35b34801561044d5760006000fd5b50610468600480360381019061046391906169ab565b610cd0565b005b3480156104775760006000fd5b50610480610d92565b60405161048d91906176ee565b60405180910390f35b3480156104a35760006000fd5b506104ac610db8565b6040516104b99190617a6b565b60405180910390f35b3480156104cf5760006000fd5b506104ea60048036038101906104e59190616f43565b610dfb565b6040516104f79190617866565b60405180910390f35b34801561050d5760006000fd5b5061052860048036038101906105239190616a5f565b610f1a565b60405161053591906176a6565b60405180910390f35b34801561054b5760006000fd5b5061056660048036038101906105619190616bbd565b610f3f565b005b3480156105755760006000fd5b50610590600480360381019061058b91906168d4565b6110e2565b60405161059d91906176ba565b60405180910390f35b3480156105b35760006000fd5b506105ce60048036038101906105c99190616d62565b611128565b6040516105df95949392919061744c565b60405180910390f35b3480156105f55760006000fd5b50610610600480360381019061060b9190616ad3565b61124c565b005b34801561061f5760006000fd5b5061063a60048036038101906106359190616d9a565b61165e565b60405161064791906176a6565b60405180910390f35b34801561065d5760006000fd5b5061067860048036038101906106739190616d62565b6116d8565b005b3480156106875760006000fd5b506106a2600480360381019061069d9190616d62565b61194c565b005b3480156106b15760006000fd5b506106cc60048036038101906106c79190616d62565b611a12565b005b3480156106db5760006000fd5b506106f660048036038101906106f19190616d62565b611ba8565b005b3480156107055760006000fd5b50610720600480360381019061071b91906169ab565b611cca565b005b34801561072f5760006000fd5b50610738611d8c565b005b3480156107475760006000fd5b50610750611de5565b60405161075d9190617716565b60405180910390f35b3480156107735760006000fd5b5061078e60048036038101906107899190616cb1565b611dea565b60405161079b9190617a1d565b60405180910390f35b3480156107b15760006000fd5b506107cc60048036038101906107c79190616bbd565b611e47565b005b3480156107db5760006000fd5b506107f660048036038101906107f19190616f66565b611fea565b005b3480156108055760006000fd5b5061080e6121e5565b005b34801561081d5760006000fd5b50610838600480360381019061083391906168a3565b61223e565b005b3480156108475760006000fd5b50610862600480360381019061085d9190616f43565b6122b6565b604051610870929190617a7d565b60405180910390f35b3480156108865760006000fd5b506108a1600480360381019061089c919061697a565b612449565b005b3480156108b05760006000fd5b506108b9612557565b6040516108c691906176a6565b60405180910390f35b3480156108dc5760006000fd5b506108f760048036038101906108f29190616c51565b61256a565b005b3480156109065760006000fd5b5061090f612678565b60405161091c9190617a6b565b60405180910390f35b3480156109325760006000fd5b5061094d60048036038101906109489190616dcb565b612681565b005b34801561095c5760006000fd5b5061097760048036038101906109729190616d62565b612791565b60405161098a97969594939291906173cd565b60405180910390f35b3480156109a05760006000fd5b506109bb60048036038101906109b69190616b96565b61285b565b6040516109c89190617a6b565b60405180910390f35b3480156109de5760006000fd5b506109f960048036038101906109f4919061687c565b612876565b005b348015610a085760006000fd5b50610a236004803603810190610a1e919061697a565b612898565b005b348015610a325760006000fd5b50610a4d6004803603810190610a48919061687c565b6129ee565b604051610a5a919061759a565b60405180910390f35b348015610a705760006000fd5b50610a79612a51565b005b348015610a885760006000fd5b50610aa36004803603810190610a9e9190616f0f565b612b89565b604051610ab091906174b0565b60405180910390f35b348015610ac65760006000fd5b50610ae16004803603810190610adc9190616bee565b612df8565b604051610aee919061764e565b60405180910390f35b348015610b045760006000fd5b50610b1f6004803603810190610b1a9190616ee9565b612eb8565b604051610b2c9190617716565b60405180910390f35b348015610b425760006000fd5b50610b4b612f75565b604051610b58919061734c565b60405180910390f35b348015610b6e5760006000fd5b50610b896004803603810190610b849190616c15565b612f9b565b604051610b969190617716565b60405180910390f35b348015610bac5760006000fd5b50610bc76004803603810190610bc29190617091565b61300c565b604051610bd49190617a96565b60405180910390f35b348015610bea5760006000fd5b50610bf361326d565b604051610c009190617a96565b60405180910390f35b348015610c165760006000fd5b50610c316004803603810190610c2c9190616d62565b613283565b604051610c3e9190617944565b60405180910390f35b348015610c545760006000fd5b50610c6f6004803603810190610c6a9190616cd4565b61352b565b005b348015610c7e5760006000fd5b50610c8761366e565b604051610c9491906176a6565b60405180910390f35b610ca5616489565b610cb361368163ffffffff16565b9050610cba565b90565b600860009054906101000a900460ff1681565b610cde61380163ffffffff16565b6000600090505b8151811015610d55576002601360005060008484815181101515610d0557fe5b602002602001015163ffffffff168152602001908152602001600020600050600001601c6101000a81548160ff02191690836002811115610d4257fe5b02179055505b8080600101915050610ce5565b507f7264e0084cbb7692193b834f40153b973ff4f827f8ed45da32ae6d8e486bb0c781604051610d8591906175fa565b60405180910390a15b5b50565b600060009054906101000a900473ffffffffffffffffffffffffffffffffffffffff1681565b6000600b60005060010160009054906101000a90046fffffffffffffffffffffffffffffffff166fffffffffffffffffffffffffffffffff169050610df8565b90565b610e036164b4565b610e128261389663ffffffff16565b90508050600081610140015163ffffffff161115610f0d576013600050600082610140015163ffffffff16815260200190815260200160002060005060000160009054906101000a900473ffffffffffffffffffffffffffffffffffffffff1681610160019073ffffffffffffffffffffffffffffffffffffffff16908173ffffffffffffffffffffffffffffffffffffffff16815260200150506013600050600082610140015163ffffffff16815260200190815260200160002060005060000160149054906101000a900467ffffffffffffffff1681610180019067ffffffffffffffff16908167ffffffffffffffff16815260200150505b809050610f15565b919050565b600560005060205280600052604060002060009150909054906101000a900460ff1681565b610f4d613c3263ffffffff16565b61102b600060009054906101000a900473ffffffffffffffffffffffffffffffffffffffff1673ffffffffffffffffffffffffffffffffffffffff16639ec5a8946040518163ffffffff1660e01b815260040160206040518083038186803b158015610fb95760006000fd5b505afa158015610fce573d600060003e3d6000fd5b505050506040513d601f19601f82011682018060405250810190610ff29190616b6f565b73ffffffffffffffffffffffffffffffffffffffff163373ffffffffffffffffffffffffffffffffffffffff1614613c8d63ffffffff16565b61108381601060005060008573ffffffffffffffffffffffffffffffffffffffff1673ffffffffffffffffffffffffffffffffffffffff16815260200190815260200160002060005054613cd390919063ffffffff16565b601060005060008473ffffffffffffffffffffffffffffffffffffffff1673ffffffffffffffffffffffffffffffffffffffff1681526020019081526020016000206000508190909055505b6110dd613d5c63ffffffff16565b5b5050565b60006040517f08c379a0000000000000000000000000000000000000000000000000000000008152600401611116906177e8565b60405180910390fd5b95945050505050565b60136000506020528060005260406000206000915090508060000160009054906101000a900473ffffffffffffffffffffffffffffffffffffffff16908060000160149054906101000a900467ffffffffffffffff169080600001601c9054906101000a900460ff169080600001601d9054906101000a900462ffffff1690806001016000508054600181600116156101000203166002900480601f0160208091040260200160405190810160405280929190818152602001828054600181600116156101000203166002900480156112425780601f1061121757610100808354040283529160200191611242565b820191906000526020600020905b81548152906001019060200180831161122557829003601f168201915b5050505050905085565b600160009054906101000a900473ffffffffffffffffffffffffffffffffffffffff1673ffffffffffffffffffffffffffffffffffffffff163373ffffffffffffffffffffffffffffffffffffffff161415156112a95760006000fd5b600160159054906101000a900460ff161515156112c65760006000fd5b80600060006101000a81548173ffffffffffffffffffffffffffffffffffffffff021916908373ffffffffffffffffffffffffffffffffffffffff160217905550600060009054906101000a900473ffffffffffffffffffffffffffffffffffffffff1673ffffffffffffffffffffffffffffffffffffffff16639624e83e6040518163ffffffff1660e01b815260040160206040518083038186803b1580156113705760006000fd5b505afa158015611385573d600060003e3d6000fd5b505050506040513d601f19601f820116820180604052508101906113a99190616aac565b600260006101000a81548173ffffffffffffffffffffffffffffffffffffffff021916908373ffffffffffffffffffffffffffffffffffffffff160217905550600060009054906101000a900473ffffffffffffffffffffffffffffffffffffffff1673ffffffffffffffffffffffffffffffffffffffff1663323741746040518163ffffffff1660e01b815260040160206040518083038186803b1580156114525760006000fd5b505afa158015611467573d600060003e3d6000fd5b505050506040513d601f19601f8201168201806040525081019061148b9190616afa565b600360006101000a81548173ffffffffffffffffffffffffffffffffffffffff021916908373ffffffffffffffffffffffffffffffffffffffff160217905550600060009054906101000a900473ffffffffffffffffffffffffffffffffffffffff1673ffffffffffffffffffffffffffffffffffffffff1663d478b0876040518163ffffffff1660e01b815260040160206040518083038186803b1580156115345760006000fd5b505afa158015611549573d600060003e3d6000fd5b505050506040513d601f19601f8201168201806040525081019061156d9190616b48565b600460006101000a81548173ffffffffffffffffffffffffffffffffffffffff021916908373ffffffffffffffffffffffffffffffffffffffff1602179055506115bb613d6c63ffffffff16565b600160149054906101000a900460ff1615156115fb57600160006101000a81549073ffffffffffffffffffffffffffffffffffffffff0219169055611617565b6001600160156101000a81548160ff0219169083151502179055505b8073ffffffffffffffffffffffffffffffffffffffff167f908408e307fc569b417f6cbec5d5a06f44a0a505ac0479b47d421a4b2fd6a1e660405160405180910390a25b50565b60008173ffffffffffffffffffffffffffffffffffffffff16600f600050600085815260200190815260200160002060005060000160009054906101000a900473ffffffffffffffffffffffffffffffffffffffff1673ffffffffffffffffffffffffffffffffffffffff161490506116d2565b92915050565b6116e6613c3263ffffffff16565b6117c4600060009054906101000a900473ffffffffffffffffffffffffffffffffffffffff1673ffffffffffffffffffffffffffffffffffffffff16639ec5a8946040518163ffffffff1660e01b815260040160206040518083038186803b1580156117525760006000fd5b505afa158015611767573d600060003e3d6000fd5b505050506040513d601f19601f8201168201806040525081019061178b9190616b6f565b73ffffffffffffffffffffffffffffffffffffffff163373ffffffffffffffffffffffffffffffffffffffff1614613c8d63ffffffff16565b6118676117d882614046909063ffffffff16565b60116000506000600f600050600086815260200190815260200160002060005060000160009054906101000a900473ffffffffffffffffffffffffffffffffffffffff1673ffffffffffffffffffffffffffffffffffffffff1673ffffffffffffffffffffffffffffffffffffffff1681526020019081526020016000206000506140e090919063ffffffff16565b50600f600050600082815260200190815260200160002060006000820160006101000a81549073ffffffffffffffffffffffffffffffffffffffff02191690556000820160146101000a81549061ffff02191690556000820160166101000a81549063ffffffff021916905560018201600050600090556002820160006101000a81549075ffffffffffffffffffffffffffffffffffffffffffff02191690556002820160166101000a81549064ffffffffff021916905560028201601b6101000a81549064ffffffffff021916905550505b611948613d5c63ffffffff16565b5b50565b61195a613c3263ffffffff16565b6119686142f763ffffffff16565b6119c16119b482600b60005060010160009054906101000a90046fffffffffffffffffffffffffffffffff166fffffffffffffffffffffffffffffffff1661438790919063ffffffff16565b614046909063ffffffff16565b600b60005060010160006101000a8154816fffffffffffffffffffffffffffffffff02191690836fffffffffffffffffffffffffffffffff1602179055505b611a0e613d5c63ffffffff16565b5b50565b611a20613c3263ffffffff16565b611afe600060009054906101000a900473ffffffffffffffffffffffffffffffffffffffff1673ffffffffffffffffffffffffffffffffffffffff166380f556056040518163ffffffff1660e01b815260040160206040518083038186803b158015611a8c5760006000fd5b505afa158015611aa1573d600060003e3d6000fd5b505050506040513d601f19601f82011682018060405250810190611ac59190616b21565b73ffffffffffffffffffffffffffffffffffffffff163373ffffffffffffffffffffffffffffffffffffffff1614613c8d63ffffffff16565b611b57611b4a82600b60005060010160009054906101000a90046fffffffffffffffffffffffffffffffff166fffffffffffffffffffffffffffffffff16613cd390919063ffffffff16565b614046909063ffffffff16565b600b60005060010160006101000a8154816fffffffffffffffffffffffffffffffff02191690836fffffffffffffffffffffffffffffffff1602179055505b611ba4613d5c63ffffffff16565b5b50565b611bb6613c3263ffffffff16565b611c94600060009054906101000a900473ffffffffffffffffffffffffffffffffffffffff1673ffffffffffffffffffffffffffffffffffffffff166380f556056040518163ffffffff1660e01b815260040160206040518083038186803b158015611c225760006000fd5b505afa158015611c37573d600060003e3d6000fd5b505050506040513d601f19601f82011682018060405250810190611c5b9190616b21565b73ffffffffffffffffffffffffffffffffffffffff163373ffffffffffffffffffffffffffffffffffffffff1614613c8d63ffffffff16565b611cac81600a60005054613cd390919063ffffffff16565b600a6000508190909055505b611cc6613d5c63ffffffff16565b5b50565b611cd861380163ffffffff16565b6000600090505b8151811015611d4f576001601360005060008484815181101515611cff57fe5b602002602001015163ffffffff168152602001908152602001600020600050600001601c6101000a81548160ff02191690836002811115611d3c57fe5b02179055505b8080600101915050611cdf565b507f2e54370527117fb69828eac075cb3ed33fe59712134dfd3ef6efc9bd8b60c1ec81604051611d7f91906175fa565b60405180910390a15b5b50565b611d9a61380163ffffffff16565b6000600860006101000a81548160ff0219169083151502179055507f262b602ad12e3e551a407d5246b500f4ca5a01cc76bbf03e925db643a62a692f60405160405180910390a15b5b565b60c881565b611df2616568565b600e60005060008361ffff1661ffff168152602001908152602001600020600050604051806040016040529081600082016000505481526020016001820160005054815260200150509050611e42565b919050565b611e55613c3263ffffffff16565b611f33600060009054906101000a900473ffffffffffffffffffffffffffffffffffffffff1673ffffffffffffffffffffffffffffffffffffffff16639ec5a8946040518163ffffffff1660e01b815260040160206040518083038186803b158015611ec15760006000fd5b505afa158015611ed6573d600060003e3d6000fd5b505050506040513d601f19601f82011682018060405250810190611efa9190616b6f565b73ffffffffffffffffffffffffffffffffffffffff163373ffffffffffffffffffffffffffffffffffffffff1614613c8d63ffffffff16565b611f8b81601060005060008573ffffffffffffffffffffffffffffffffffffffff1673ffffffffffffffffffffffffffffffffffffffff1681526020019081526020016000206000505461438790919063ffffffff16565b601060005060008473ffffffffffffffffffffffffffffffffffffffff1673ffffffffffffffffffffffffffffffffffffffff1681526020019081526020016000206000508190909055505b611fe5613d5c63ffffffff16565b5b5050565b611ff8613c3263ffffffff16565b6120066142f763ffffffff16565b600860009054906101000a900460ff16801561202d575060008267ffffffffffffffff1614155b1561204757612042828261441063ffffffff16565b905080505b6000816020015114801561205f575060008160400151145b156121c057600760005060008367ffffffffffffffff1667ffffffffffffffff168152602001908152602001600020600060008201600050600090556001820160006101000a8154906fffffffffffffffffffffffffffffffff02191690556001820160106101000a8154906fffffffffffffffffffffffffffffffff02191690556002820160006101000a8154906fffffffffffffffffffffffffffffffff02191690556002820160106101000a8154906fffffffffffffffffffffffffffffffff02191690556003820160006101000a81549067ffffffffffffffff02191690556003820160086101000a81549067ffffffffffffffff02191690556003820160106101000a81549062ffffff02191690556003820160136101000a81549060ff02191690556003820160146101000a81549067ffffffffffffffff021916905560038201601c6101000a81549063ffffffff021916905550506121d1565b6121d082826147cb63ffffffff16565b5b5b6121e0613d5c63ffffffff16565b5b5050565b6121f361380163ffffffff16565b6000600860016101000a81548160ff0219169083151502179055507fc4f6661464541d662c51191d4da5a7a1cc8bca2631698fd030e21b52520a549c60405160405180910390a15b5b565b61224c613c3263ffffffff16565b61225a6142f763ffffffff16565b8173ffffffffffffffffffffffffffffffffffffffff166108fc829081150290604051600060405180830381858888f193505050501580156122a1573d600060003e3d6000fd5b505b6122b1613d5c63ffffffff16565b5b5050565b60006000600760005060008467ffffffffffffffff1667ffffffffffffffff16815260200190815260200160002060005060010160109054906101000a90046fffffffffffffffffffffffffffffffff166fffffffffffffffffffffffffffffffff1691508150600760005060008467ffffffffffffffff1667ffffffffffffffff16815260200190815260200160002060005060010160009054906101000a90046fffffffffffffffffffffffffffffffff166fffffffffffffffffffffffffffffffff16905080506000600760005060008567ffffffffffffffff1667ffffffffffffffff16815260200190815260200160002060005060020160009054906101000a90046fffffffffffffffffffffffffffffffff166fffffffffffffffffffffffffffffffff1690506000600b60005060010160109054906101000a90046fffffffffffffffffffffffffffffffff166fffffffffffffffffffffffffffffffff16905080821415156124415761243c818386614b399092919063ffffffff16565b935083505b50505b915091565b600860019054906101000a900460ff16151561246457612553565b612542600060009054906101000a900473ffffffffffffffffffffffffffffffffffffffff1673ffffffffffffffffffffffffffffffffffffffff16639ec5a8946040518163ffffffff1660e01b815260040160206040518083038186803b1580156124d05760006000fd5b505afa1580156124e5573d600060003e3d6000fd5b505050506040513d601f19601f820116820180604052508101906125099190616b6f565b73ffffffffffffffffffffffffffffffffffffffff163373ffffffffffffffffffffffffffffffffffffffff1614613c8d63ffffffff16565b6125528282614c3a63ffffffff16565b5b5050565b600060149054906101000a900460ff1681565b612578613c3263ffffffff16565b612656600060009054906101000a900473ffffffffffffffffffffffffffffffffffffffff1673ffffffffffffffffffffffffffffffffffffffff166380f556056040518163ffffffff1660e01b815260040160206040518083038186803b1580156125e45760006000fd5b505afa1580156125f9573d600060003e3d6000fd5b505050506040513d601f19601f8201168201806040525081019061261d9190616b21565b73ffffffffffffffffffffffffffffffffffffffff163373ffffffffffffffffffffffffffffffffffffffff1614613c8d63ffffffff16565b61266581614ca763ffffffff16565b5b612674613d5c63ffffffff16565b5b50565b600a6000505481565b61268f613c3263ffffffff16565b61276d600060009054906101000a900473ffffffffffffffffffffffffffffffffffffffff1673ffffffffffffffffffffffffffffffffffffffff16639ec5a8946040518163ffffffff1660e01b815260040160206040518083038186803b1580156126fb5760006000fd5b505afa158015612710573d600060003e3d6000fd5b505050506040513d601f19601f820116820180604052508101906127349190616b6f565b73ffffffffffffffffffffffffffffffffffffffff163373ffffffffffffffffffffffffffffffffffffffff1614613c8d63ffffffff16565b61277d8282614e1963ffffffff16565b5b61278c613d5c63ffffffff16565b5b5050565b600f6000506020528060005260406000206000915090508060000160009054906101000a900473ffffffffffffffffffffffffffffffffffffffff16908060000160149054906101000a900461ffff16908060000160169054906101000a900463ffffffff16908060010160005054908060020160009054906101000a900475ffffffffffffffffffffffffffffffffffffffffffff16908060020160169054906101000a900464ffffffffff169080600201601b9054906101000a900464ffffffffff16905087565b60106000506020528060005260406000206000915090505481565b61288461380163ffffffff16565b6128938161504a63ffffffff16565b5b5b50565b6128a6613c3263ffffffff16565b612984600060009054906101000a900473ffffffffffffffffffffffffffffffffffffffff1673ffffffffffffffffffffffffffffffffffffffff166380f556056040518163ffffffff1660e01b815260040160206040518083038186803b1580156129125760006000fd5b505afa158015612927573d600060003e3d6000fd5b505050506040513d601f19601f8201168201806040525081019061294b9190616b21565b73ffffffffffffffffffffffffffffffffffffffff163373ffffffffffffffffffffffffffffffffffffffff1614613c8d63ffffffff16565b61299c81600a6000505461438790919063ffffffff16565b600a6000508190909055506129da600360009054906101000a900473ffffffffffffffffffffffffffffffffffffffff1683836150de63ffffffff16565b5b6129e9613d5c63ffffffff16565b5b5050565b6060612a45601160005060008473ffffffffffffffffffffffffffffffffffffffff1673ffffffffffffffffffffffffffffffffffffffff1681526020019081526020016000206000506152ea909063ffffffff16565b9050612a4c565b919050565b612a5f613c3263ffffffff16565b612b77600360009054906101000a900473ffffffffffffffffffffffffffffffffffffffff16600360009054906101000a900473ffffffffffffffffffffffffffffffffffffffff16612b6c600a60005054600360009054906101000a900473ffffffffffffffffffffffffffffffffffffffff1673ffffffffffffffffffffffffffffffffffffffff166370a08231306040518263ffffffff1660e01b8152600401612b0c9190617374565b60206040518083038186803b158015612b255760006000fd5b505afa158015612b3a573d600060003e3d6000fd5b505050506040513d601f19601f82011682018060405250810190612b5e9190616d7e565b61438790919063ffffffff16565b6150de63ffffffff16565b5b612b86613d5c63ffffffff16565b5b565b60608163ffffffff168363ffffffff16101515612ba65760006000fd5b82820363ffffffff1667ffffffffffffffff81118015612bc65760006000fd5b50604051908082528060200260200182016040528015612c0057816020015b612bed616585565b815260200190600190039081612be55790505b509050805060005b8263ffffffff168463ffffffff161015612df057601360005060008580600101965063ffffffff1681526020019081526020016000206000506040518060a00160405290816000820160009054906101000a900473ffffffffffffffffffffffffffffffffffffffff1673ffffffffffffffffffffffffffffffffffffffff1673ffffffffffffffffffffffffffffffffffffffff1681526020016000820160149054906101000a900467ffffffffffffffff1667ffffffffffffffff1667ffffffffffffffff16815260200160008201601c9054906101000a900460ff166002811115612cf257fe5b6002811115612cfd57fe5b815260200160008201601d9054906101000a900462ffffff1662ffffff1662ffffff168152602001600182016000508054600181600116156101000203166002900480601f016020809104026020016040519081016040528092919081815260200182805460018160011615610100020316600290048015612dc05780601f10612d9557610100808354040283529160200191612dc0565b820191906000526020600020905b815481529060010190602001808311612da357829003601f168201915b5050505050815260200150508282806001019350815181101515612de057fe5b6020026020010181905250612c08565b505b92915050565b606060096000506000612e128460c8612f9b63ffffffff16565b60020b60020b8152602001908152602001600020600050805480602002602001604051908101604052809291908181526020018280548015612ea757602002820191906000526020600020906000905b82829054906101000a900467ffffffffffffffff1667ffffffffffffffff1681526020019060080190602082600701049283019260010382029150808411612e625790505b50505050509050612eb3565b919050565b60006000831480612ec95750600082145b15612ed957627fffff9050612f6f565b6000612f16612f0b84612efd670de0b6b3a76400008861539090919063ffffffff16565b61542e90919063ffffffff16565b61545463ffffffff16565b9050612f66612f59612f4e612f416c01000000000000000000000000856154c790919063ffffffff16565b6154ed909063ffffffff16565b61558b63ffffffff16565b60c8612f9b63ffffffff16565b915050612f6f56505b92915050565b600160009054906101000a900473ffffffffffffffffffffffffffffffffffffffff1681565b600060008360020b905060008360020b82811515612fb557fe5b0790506000811415612fcb578492505050613006565b600060008313612fe2578460020b82840303612fe6565b8183035b9050612ff98161599f909063ffffffff16565b9350505050613006565050505b92915050565b600061301c613c3263ffffffff16565b6703782dace9d9000067ffffffffffffffff168467ffffffffffffffff161115151561307d576040517f08c379a000000000000000000000000000000000000000000000000000000000815260040161307490617827565b60405180910390fd5b63ffffffff63ffffffff16601260009054906101000a900463ffffffff1663ffffffff161015156130ae5760006000fd5b60006012600081819054906101000a900463ffffffff168092919060010191906101000a81548163ffffffff021916908363ffffffff16021790555090506040518060a001604052803373ffffffffffffffffffffffffffffffffffffffff1681526020018667ffffffffffffffff1681526020016000600281111561313057fe5b81526020018562ffffff16815260200184815260200150601360005060008363ffffffff16815260200190815260200160002060005060008201518160000160006101000a81548173ffffffffffffffffffffffffffffffffffffffff021916908373ffffffffffffffffffffffffffffffffffffffff16021790555060208201518160000160146101000a81548167ffffffffffffffff021916908367ffffffffffffffff160217905550604082015181600001601c6101000a81548160ff0219169083600281111561320057fe5b0217905550606082015181600001601d6101000a81548162ffffff021916908362ffffff16021790555060808201518160010160005090805190602001906132499291906165e7565b509050508091505061325756505b613265613d5c63ffffffff16565b5b9392505050565b601260009054906101000a900463ffffffff1681565b61328b61667a565b61329a82615a5763ffffffff16565b905080506000816020015161ffff161115156132eb576040517f08c379a00000000000000000000000000000000000000000000000000000000081526004016132e2906177a9565b60405180910390fd5b600081610120015163ffffffff1611156133e2576013600050600082610120015163ffffffff16815260200190815260200160002060005060000160149054906101000a900467ffffffffffffffff1681610160019067ffffffffffffffff16908167ffffffffffffffff16815260200150506013600050600082610120015163ffffffff16815260200190815260200160002060005060000160009054906101000a900473ffffffffffffffffffffffffffffffffffffffff1681610140019073ffffffffffffffffffffffffffffffffffffffff16908173ffffffffffffffffffffffffffffffffffffffff16815260200150505b7f000000000000000000000000000000000000000000000000000000000000000073ffffffffffffffffffffffffffffffffffffffff166399fbab88836040518263ffffffff1660e01b815260040161343b9190617a6b565b6101806040518083038186803b1580156134555760006000fd5b505afa15801561346a573d600060003e3d6000fd5b505050506040513d601f19601f8201168201806040525081019061348e9190617162565b909192939495969798999a509091929394959697989950909192939495969798509091929394959697509091929394959650909192509091509050508360e00184610100018560a0018390906fffffffffffffffffffffffffffffffff166fffffffffffffffffffffffffffffffff1681526020015083909060020b60020b81526020015083909060020b60020b8152602001505050505b919050565b613539613c3263ffffffff16565b613617600060009054906101000a900473ffffffffffffffffffffffffffffffffffffffff1673ffffffffffffffffffffffffffffffffffffffff16639ec5a8946040518163ffffffff1660e01b815260040160206040518083038186803b1580156135a55760006000fd5b505afa1580156135ba573d600060003e3d6000fd5b505050506040513d601f19601f820116820180604052508101906135de9190616b6f565b73ffffffffffffffffffffffffffffffffffffffff163373ffffffffffffffffffffffffffffffffffffffff1614613c8d63ffffffff16565b80600e60005060008461ffff1661ffff1681526020019081526020016000206000506000820151816000016000509090556020820151816001016000509090559050505b613669613d5c63ffffffff16565b5b5050565b600860019054906101000a900460ff1681565b613689616489565b6000600b600050604051806080016040529081600082016000505481526020016001820160009054906101000a90046fffffffffffffffffffffffffffffffff166fffffffffffffffffffffffffffffffff166fffffffffffffffffffffffffffffffff1681526020016001820160109054906101000a90046fffffffffffffffffffffffffffffffff166fffffffffffffffffffffffffffffffff166fffffffffffffffffffffffffffffffff1681526020016002820160009054906101000a90046fffffffffffffffffffffffffffffffff166fffffffffffffffffffffffffffffffff166fffffffffffffffffffffffffffffffff16815260200150509050604051806080016040528082602001516fffffffffffffffffffffffffffffffff16815260200182606001516fffffffffffffffffffffffffffffffff1681526020018260000151815260200182604001516fffffffffffffffffffffffffffffffff168152602001509150506137fe56505b90565b600060009054906101000a900473ffffffffffffffffffffffffffffffffffffffff1673ffffffffffffffffffffffffffffffffffffffff163373ffffffffffffffffffffffffffffffffffffffff16141515613893576040517f08c379a000000000000000000000000000000000000000000000000000000000815260040161388a9061776a565b60405180910390fd5b5b565b61389e6164b4565b6000600760005060008467ffffffffffffffff1667ffffffffffffffff16815260200190815260200160002060005060405180610160016040529081600082016000505481526020016001820160009054906101000a90046fffffffffffffffffffffffffffffffff166fffffffffffffffffffffffffffffffff166fffffffffffffffffffffffffffffffff1681526020016001820160109054906101000a90046fffffffffffffffffffffffffffffffff166fffffffffffffffffffffffffffffffff166fffffffffffffffffffffffffffffffff1681526020016002820160009054906101000a90046fffffffffffffffffffffffffffffffff166fffffffffffffffffffffffffffffffff166fffffffffffffffffffffffffffffffff1681526020016002820160109054906101000a90046fffffffffffffffffffffffffffffffff166fffffffffffffffffffffffffffffffff166fffffffffffffffffffffffffffffffff1681526020016003820160009054906101000a900467ffffffffffffffff1667ffffffffffffffff1667ffffffffffffffff1681526020016003820160089054906101000a900467ffffffffffffffff1667ffffffffffffffff1667ffffffffffffffff1681526020016003820160109054906101000a900460020b60020b60020b81526020016003820160139054906101000a900460ff161515151581526020016003820160149054906101000a900467ffffffffffffffff1667ffffffffffffffff1667ffffffffffffffff16815260200160038201601c9054906101000a900463ffffffff1663ffffffff1663ffffffff16815260200150509050604051806101a001604052808260000151815260200182602001516fffffffffffffffffffffffffffffffff16815260200182604001516fffffffffffffffffffffffffffffffff16815260200182606001516fffffffffffffffffffffffffffffffff16815260200182608001516fffffffffffffffffffffffffffffffff1681526020018260a0015167ffffffffffffffff1681526020018260c0015167ffffffffffffffff1681526020018260e0015160020b81526020018261010001511515815260200182610120015167ffffffffffffffff16815260200182610140015163ffffffff168152602001600073ffffffffffffffffffffffffffffffffffffffff168152602001600067ffffffffffffffff16815260200150915050613c2d56505b919050565b600260066000505414151515613c7d576040517f08c379a0000000000000000000000000000000000000000000000000000000008152600401613c749061772b565b60405180910390fd5b600260066000508190909055505b565b801515613ccf576040517f08c379a0000000000000000000000000000000000000000000000000000000008152600401613cc69061776a565b60405180910390fd5b5b50565b60008282840191508110151515613d55576040517f08c379a000000000000000000000000000000000000000000000000000000000815260040180806020018281038252600c8152602001807f6164642d6f766572666c6f77000000000000000000000000000000000000000081526020015060200191505060405180910390fd5b5b92915050565b600160066000508190909055505b565b613d85670de0b6b3a7640000614046909063ffffffff16565b600b60005060010160106101000a8154816fffffffffffffffffffffffffffffffff02191690836fffffffffffffffffffffffffffffffff160217905550613e73600060009054906101000a900473ffffffffffffffffffffffffffffffffffffffff1673ffffffffffffffffffffffffffffffffffffffff16639ec5a8946040518163ffffffff1660e01b815260040160206040518083038186803b158015613e2f5760006000fd5b505afa158015613e44573d600060003e3d6000fd5b505050506040513d601f19601f82011682018060405250810190613e689190616b6f565b61504a63ffffffff16565b60016005600050600063461054a360e01b7bffffffffffffffffffffffffffffffffffffffffffffffffffffffff19167bffffffffffffffffffffffffffffffffffffffffffffffffffffffff1916815260200190815260200160002060006101000a81548160ff02191690831515021790555060016005600050600063602db56b60e01b7bffffffffffffffffffffffffffffffffffffffffffffffffffffffff19167bffffffffffffffffffffffffffffffffffffffffffffffffffffffff1916815260200190815260200160002060006101000a81548160ff02191690831515021790555060016005600050600063397d359260e01b7bffffffffffffffffffffffffffffffffffffffffffffffffffffffff19167bffffffffffffffffffffffffffffffffffffffffffffffffffffffff1916815260200190815260200160002060006101000a81548160ff021916908315150217905550600160056000506000630b218d2460e01b7bffffffffffffffffffffffffffffffffffffffffffffffffffffffff19167bffffffffffffffffffffffffffffffffffffffffffffffffffffffff1916815260200190815260200160002060006101000a81548160ff0219169083151502179055505b565b6000700100000000000000000000000000000000821015156140d3576040517f08c379a00000000000000000000000000000000000000000000000000000000081526004018080602001828103825260128152602001807f6d6f7265207468616e203132382062697473000000000000000000000000000081526020015060200191505060405180910390fd5b8190506140db565b919050565b60006000836001016000506000846fffffffffffffffffffffffffffffffff166fffffffffffffffffffffffffffffffff1681526020019081526020016000206000505490506000811415156142e55760006001820390506000600186600001600050805490500390506000866000016000508281548110151561416057fe5b90600052602060002090600291828204019190066010025b9054906101000a90046fffffffffffffffffffffffffffffffff1690508087600001600050848154811015156141aa57fe5b90600052602060002090600291828204019190066010025b6101000a8154816fffffffffffffffffffffffffffffffff02191690836fffffffffffffffffffffffffffffffff16021790555060018301876001016000506000836fffffffffffffffffffffffffffffffff166fffffffffffffffffffffffffffffffff16815260200190815260200160002060005081909090555086600001600050805480151561425157fe5b60019003818190600052602060002090600291828204019190066010025b6101000a8154906fffffffffffffffffffffffffffffffff02191690559055866001016000506000876fffffffffffffffffffffffffffffffff166fffffffffffffffffffffffffffffffff1681526020019081526020016000206000506000905560019450505050506142f1565050506142ef565b60009150506142f1565b505b92915050565b600060009054906101000a900473ffffffffffffffffffffffffffffffffffffffff1673ffffffffffffffffffffffffffffffffffffffff16637c114fed336040518263ffffffff1660e01b81526004016143529190617374565b60006040518083038186803b15801561436b5760006000fd5b505afa158015614380573d600060003e3d6000fd5b505050505b565b60008282840391508111151515614409576040517f08c379a000000000000000000000000000000000000000000000000000000000815260040180806020018281038252600d8152602001807f7375622d756e646572666c6f770000000000000000000000000000000000000081526020015060200191505060405180910390fd5b5b92915050565b6144186164b4565b6000600760005060008567ffffffffffffffff1667ffffffffffffffff16815260200190815260200160002060005060030160139054906101000a900460ff16905060008161446a57627fffff6144a9565b600760005060008667ffffffffffffffff1667ffffffffffffffff16815260200190815260200160002060005060030160109054906101000a900460020b5b90506000600760005060008767ffffffffffffffff1667ffffffffffffffff16815260200190815260200160002060005060030160149054906101000a900467ffffffffffffffff169050600061450e86602001518760400151612eb863ffffffff16565b90508060020b8360020b1415156147b557808660e0019060020b908160020b815260200150506000627fffff60020b8460020b12156146db57600960005060008560020b60020b81526020019081526020016000206000509050805060006145846001838054905003615ced909063ffffffff16565b90508067ffffffffffffffff168467ffffffffffffffff16141515614698576000828267ffffffffffffffff168154811015156145bd57fe5b90600052602060002090600491828204019190066008025b9054906101000a900467ffffffffffffffff16905080838667ffffffffffffffff1681548110151561460357fe5b90600052602060002090600491828204019190066008025b6101000a81548167ffffffffffffffff021916908367ffffffffffffffff16021790555084600760005060008367ffffffffffffffff1667ffffffffffffffff16815260200190815260200160002060005060030160146101000a81548167ffffffffffffffff021916908367ffffffffffffffff160217905550505b8180548015156146a457fe5b60019003818190600052602060002090600491828204019190066008025b6101000a81549067ffffffffffffffff02191690559055505b627fffff60020b8260020b12156147b357600960005060008360020b60020b8152602001908152602001600020600050905080506147248180549050615ced909063ffffffff16565b87610120019067ffffffffffffffff16908167ffffffffffffffff1681526020015050600187610100019015159081151581526020015050808890806001815401808255809150506001900390600052602060002090600491828204019190066008025b9091909190916101000a81548167ffffffffffffffff021916908367ffffffffffffffff1602179055505b505b859450505050506147c556505050505b92915050565b604051806101600160405280826000015181526020016147f68360200151614046909063ffffffff16565b6fffffffffffffffffffffffffffffffff1681526020016148228360400151614046909063ffffffff16565b6fffffffffffffffffffffffffffffffff16815260200161484e8360600151614046909063ffffffff16565b6fffffffffffffffffffffffffffffffff16815260200161487a8360800151614046909063ffffffff16565b6fffffffffffffffffffffffffffffffff1681526020018260a0015167ffffffffffffffff1681526020018260c0015167ffffffffffffffff1681526020018260e0015160020b81526020018261010001511515815260200182610120015167ffffffffffffffff16815260200182610140015163ffffffff16815260200150600760005060008467ffffffffffffffff1667ffffffffffffffff16815260200190815260200160002060005060008201518160000160005090905560208201518160010160006101000a8154816fffffffffffffffffffffffffffffffff02191690836fffffffffffffffffffffffffffffffff16021790555060408201518160010160106101000a8154816fffffffffffffffffffffffffffffffff02191690836fffffffffffffffffffffffffffffffff16021790555060608201518160020160006101000a8154816fffffffffffffffffffffffffffffffff02191690836fffffffffffffffffffffffffffffffff16021790555060808201518160020160106101000a8154816fffffffffffffffffffffffffffffffff02191690836fffffffffffffffffffffffffffffffff16021790555060a08201518160030160006101000a81548167ffffffffffffffff021916908367ffffffffffffffff16021790555060c08201518160030160086101000a81548167ffffffffffffffff021916908367ffffffffffffffff16021790555060e08201518160030160106101000a81548162ffffff021916908360020b62ffffff1602179055506101008201518160030160136101000a81548160ff0219169083151502179055506101208201518160030160146101000a81548167ffffffffffffffff021916908367ffffffffffffffff16021790555061014082015181600301601c6101000a81548163ffffffff021916908363ffffffff1602179055509050505b5050565b6000600060006000198587098587029250828110838203039150506000811415614b7c57600084111515614b6d5760006000fd5b83820492508292505050614c33565b8084111515614b8b5760006000fd5b6000848688099050828111820391508083039250600085866000031690508086049550808404935060018182600003040190508083028417935083506000600287600302189050808702600203810290508050808702600203810290508050808702600203810290508050808702600203810290508050808702600203810290508050808702600203810290508050808502955085508595505050505050614c335650505050505b9392505050565b614ca1614c4e82614046909063ffffffff16565b601160005060008573ffffffffffffffffffffffffffffffffffffffff1673ffffffffffffffffffffffffffffffffffffffff168152602001908152602001600020600050615d7f90919063ffffffff16565b505b5050565b604051806080016040528082604001518152602001614cd18360000151614046909063ffffffff16565b6fffffffffffffffffffffffffffffffff168152602001614cfd8360600151614046909063ffffffff16565b6fffffffffffffffffffffffffffffffff168152602001614d298360200151614046909063ffffffff16565b6fffffffffffffffffffffffffffffffff16815260200150600b60005060008201518160000160005090905560208201518160010160006101000a8154816fffffffffffffffffffffffffffffffff02191690836fffffffffffffffffffffffffffffffff16021790555060408201518160010160106101000a8154816fffffffffffffffffffffffffffffffff02191690836fffffffffffffffffffffffffffffffff16021790555060608201518160020160006101000a8154816fffffffffffffffffffffffffffffffff02191690836fffffffffffffffffffffffffffffffff1602179055509050505b50565b6040518060e00160405280826000015173ffffffffffffffffffffffffffffffffffffffff168152602001826020015161ffff16815260200182610120015163ffffffff16815260200182604001518152602001614e828360600151615e70909063ffffffff16565b75ffffffffffffffffffffffffffffffffffffffffffff168152602001614ebe8360c0015167ffffffffffffffff16615f10909063ffffffff16565b64ffffffffff168152602001614edf8360800151615f10909063ffffffff16565b64ffffffffff16815260200150600f600050600084815260200190815260200160002060005060008201518160000160006101000a81548173ffffffffffffffffffffffffffffffffffffffff021916908373ffffffffffffffffffffffffffffffffffffffff16021790555060208201518160000160146101000a81548161ffff021916908361ffff16021790555060408201518160000160166101000a81548163ffffffff021916908363ffffffff16021790555060608201518160010160005090905560808201518160020160006101000a81548175ffffffffffffffffffffffffffffffffffffffffffff021916908375ffffffffffffffffffffffffffffffffffffffffffff16021790555060a08201518160020160166101000a81548164ffffffffff021916908364ffffffffff16021790555060c082015181600201601b6101000a81548164ffffffffff021916908364ffffffffff1602179055509050505b5050565b7f000000000000000000000000000000000000000000000000000000000000000073ffffffffffffffffffffffffffffffffffffffff1663a22cb4658260016040518363ffffffff1660e01b81526004016150a692919061739c565b600060405180830381600087803b1580156150c15760006000fd5b505af11580156150d6573d600060003e3d6000fd5b505050505b50565b600060008473ffffffffffffffffffffffffffffffffffffffff1663a9059cbb60e01b8585604051602401808373ffffffffffffffffffffffffffffffffffffffff16815260200182815260200192505050604051602081830303815290604052907bffffffffffffffffffffffffffffffffffffffffffffffffffffffff19166020820180517bffffffffffffffffffffffffffffffffffffffffffffffffffffffff83818316178352505050506040518082805190602001908083835b6020831015156151c357805182525b60208201915060208101905060208303925061519d565b6001836020036101000a0380198251168184511680821785525050505050509050019150506000604051808303816000865af19150503d8060008114615225576040519150601f19603f3d011682016040523d82523d6000602084013e61522a565b606091505b509150915081801561526b575060008151148061526a57508080602001905160208110156152585760006000fd5b81019080805190602001909291905050505b5b15156152e2576040517f08c379a00000000000000000000000000000000000000000000000000000000081526004018080602001828103825260028152602001807f535400000000000000000000000000000000000000000000000000000000000081526020015060200191505060405180910390fd5b50505b505050565b60608160000160005080548060200260200160405190810160405280929190818152602001828054801561538157602002820191906000526020600020906000905b82829054906101000a90046fffffffffffffffffffffffffffffffff166fffffffffffffffffffffffffffffffff1681526020019060100190602082600f0104928301926001038202915080841161532c5790505b5050505050905080505b919050565b600060008214806153b0575082828385029250828115156153ad57fe5b04145b1515615427576040517f08c379a000000000000000000000000000000000000000000000000000000000815260040180806020018281038252600c8152602001807f6d756c2d6f766572666c6f77000000000000000000000000000000000000000081526020015060200191505060405180910390fd5b5b92915050565b600061544983670de0b6b3a764000084614b3963ffffffff16565b905080505b92915050565b600060038211156154af5781905080506000600160028481151561547457fe5b040190505b818110156154a9578091508150600281828581151561549457fe5b040181151561549f57fe5b0490508050615479565b506154c1565b6000821415156154c0576001905080505b5b5b919050565b60006154e28383670de0b6b3a7640000614b3963ffffffff16565b905080505b92915050565b6000740100000000000000000000000000000000000000008210151561557e576040517f08c379a00000000000000000000000000000000000000000000000000000000081526004018080602001828103825260128152602001807f6d6f7265207468616e203136302062697473000000000000000000000000000081526020015060200191505060405180910390fd5b819050615586565b919050565b60006401000276a373ffffffffffffffffffffffffffffffffffffffff168273ffffffffffffffffffffffffffffffffffffffff161015801561560d575073fffd8963efd1fc6a506488495d951d5263988d2673ffffffffffffffffffffffffffffffffffffffff168273ffffffffffffffffffffffffffffffffffffffff16105b1515615684576040517f08c379a00000000000000000000000000000000000000000000000000000000081526004018080602001828103825260018152602001807f520000000000000000000000000000000000000000000000000000000000000081526020015060200191505060405180910390fd5b600060208373ffffffffffffffffffffffffffffffffffffffff16901b905060008190506000600090506fffffffffffffffffffffffffffffffff821160071b808217915082811c92505067ffffffffffffffff821160061b808217915082811c92505063ffffffff821160051b808217915082811c92505061ffff821160041b808217915082811c92505060ff821160031b808217915082811c925050600f821160021b808217915082811c9250506003821160011b808217915082811c9250506001821180821791505060808110151561576a57607f810383901c91508150615776565b80607f0383901b915081505b6000604060808303901b9050828302607f1c92508260801c80603f1b8217915083811c935050828302607f1c92508260801c80603e1b8217915083811c935050828302607f1c92508260801c80603d1b8217915083811c935050828302607f1c92508260801c80603c1b8217915083811c935050828302607f1c92508260801c80603b1b8217915083811c935050828302607f1c92508260801c80603a1b8217915083811c935050828302607f1c92508260801c8060391b8217915083811c935050828302607f1c92508260801c8060381b8217915083811c935050828302607f1c92508260801c8060371b8217915083811c935050828302607f1c92508260801c8060361b8217915083811c935050828302607f1c92508260801c8060351b8217915083811c935050828302607f1c92508260801c8060341b8217915083811c935050828302607f1c92508260801c8060331b8217915083811c935050828302607f1c92508260801c8060321b82179150506000693627a301d71055774c8582029050600060806f028f6481ab7f045a5af012a19d003aaa8303901d9050600060806fdb2df09e81959a81455e260799a0632f8401901d90508060020b8260020b1461598c578873ffffffffffffffffffffffffffffffffffffffff1661596382615f9f63ffffffff16565b73ffffffffffffffffffffffffffffffffffffffff1611156159855781615987565b805b61598e565b815b97508750505050505050505b919050565b60007fffffffffffffffffffffffffffffffffffffffffffffffffffffffffff80000082121580156159d357506280000082125b1515615a4a576040517f08c379a00000000000000000000000000000000000000000000000000000000081526004018080602001828103825260118152602001807f6d6f7265207468616e203234206269747300000000000000000000000000000081526020015060200191505060405180910390fd5b819050615a52565b919050565b615a5f61667a565b6000600f60005060008481526020019081526020016000206000506040518060e00160405290816000820160009054906101000a900473ffffffffffffffffffffffffffffffffffffffff1673ffffffffffffffffffffffffffffffffffffffff1673ffffffffffffffffffffffffffffffffffffffff1681526020016000820160149054906101000a900461ffff1661ffff1661ffff1681526020016000820160169054906101000a900463ffffffff1663ffffffff1663ffffffff168152602001600182016000505481526020016002820160009054906101000a900475ffffffffffffffffffffffffffffffffffffffffffff1675ffffffffffffffffffffffffffffffffffffffffffff1675ffffffffffffffffffffffffffffffffffffffffffff1681526020016002820160169054906101000a900464ffffffffff1664ffffffffff1664ffffffffff16815260200160028201601b9054906101000a900464ffffffffff1664ffffffffff1664ffffffffff16815260200150509050604051806101800160405280826000015173ffffffffffffffffffffffffffffffffffffffff168152602001826020015161ffff16815260200182606001518152602001826080015175ffffffffffffffffffffffffffffffffffffffffffff1681526020018260c0015164ffffffffff16815260200160006fffffffffffffffffffffffffffffffff1681526020018260a0015164ffffffffff1667ffffffffffffffff168152602001600060020b8152602001600060020b8152602001826040015163ffffffff168152602001600073ffffffffffffffffffffffffffffffffffffffff168152602001600067ffffffffffffffff16815260200150915050615ce856505b919050565b60006801000000000000000082101515615d72576040517f08c379a00000000000000000000000000000000000000000000000000000000081526004018080602001828103825260118152602001807f6d6f7265207468616e203634206269747300000000000000000000000000000081526020015060200191505060405180910390fd5b819050615d7a565b919050565b6000615d91838361643663ffffffff16565b1515615e6057826000016000508290806001815401808255809150506001900390600052602060002090600291828204019190066010025b9091909190916101000a8154816fffffffffffffffffffffffffffffffff02191690836fffffffffffffffffffffffffffffffff1602179055508260000160005080549050836001016000506000846fffffffffffffffffffffffffffffffff166fffffffffffffffffffffffffffffffff16815260200190815260200160002060005081909090555060019050615e6a56615e69565b60009050615e6a565b5b92915050565b600076010000000000000000000000000000000000000000000082101515615f03576040517f08c379a00000000000000000000000000000000000000000000000000000000081526004018080602001828103825260128152602001807f6d6f7265207468616e203137362062697473000000000000000000000000000081526020015060200191505060405180910390fd5b819050615f0b565b919050565b60006501000000000082101515615f92576040517f08c379a00000000000000000000000000000000000000000000000000000000081526004018080602001828103825260118152602001807f6d6f7265207468616e203430206269747300000000000000000000000000000081526020015060200191505060405180910390fd5b819050615f9a565b919050565b6000600060008360020b12615fb7578260020b615fbf565b8260020b6000035b90507ffffffffffffffffffffffffffffffffffffffffffffffffffffffffffff2761860000360020b8111151515616062576040517f08c379a00000000000000000000000000000000000000000000000000000000081526004018080602001828103825260018152602001807f540000000000000000000000000000000000000000000000000000000000000081526020015060200191505060405180910390fd5b6000600060018316141561608757700100000000000000000000000000000000616099565b6ffffcb933bd6fad37aa2d162d1a5940015b70ffffffffffffffffffffffffffffffffff1690506000600283161415156160d75760806ffff97272373d413259a46990580e213a8202901c905080505b6000600483161415156161005760806ffff2e50f5f656932ef12357cf3c7fdcc8202901c905080505b6000600883161415156161295760806fffe5caca7e10e4e61c3624eaa0941cd08202901c905080505b6000601083161415156161525760806fffcb9843d60f6159c9db58835c9266448202901c905080505b60006020831614151561617b5760806fff973b41fa98c081472e6896dfb254c08202901c905080505b6000604083161415156161a45760806fff2ea16466c96a3843ec78b326b528618202901c905080505b6000608083161415156161cd5760806ffe5dee046a99a2a811c461f1969c30538202901c905080505b600061010083161415156161f75760806ffcbe86c7900a88aedcffc83b479aa3a48202901c905080505b600061020083161415156162215760806ff987a7253ac413176f2b074cf7815e548202901c905080505b6000610400831614151561624b5760806ff3392b0822b70005940c7a398e4b70f38202901c905080505b600061080083161415156162755760806fe7159475a2c29b7443b29c7fa6e889d98202901c905080505b6000611000831614151561629f5760806fd097f3bdfd2022b8845ad8f792aa58258202901c905080505b600061200083161415156162c95760806fa9f746462d870fdf8a65dc1f90e061e58202901c905080505b600061400083161415156162f35760806f70d869a156d2a1b890bb3df62baf32f78202901c905080505b6000618000831614151561631d5760806f31be135f97d08fd981231505542fcfa68202901c905080505b60006201000083161415156163485760806f09aa508b5b7a84e1c677de54f3e99bc98202901c905080505b60006202000083161415156163725760806e5d6af8dedb81196699c329225ee6048202901c905080505b600062040000831614151561639b5760806d2216e584f5fa1ea926041bedfe988202901c905080505b60006208000083161415156163c25760806b048a170391f7dc42444e8fa28202901c905080505b60008460020b13156163ff57807fffffffffffffffffffffffffffffffffffffffffffffffffffffffffffffffff8115156163f957fe5b04905080505b60006401000000008281151561641157fe5b061461641e576001616421565b60005b60ff16602082901c019250825050505b919050565b60006000836001016000506000846fffffffffffffffffffffffffffffffff166fffffffffffffffffffffffffffffffff1681526020019081526020016000206000505414159050616483565b92915050565b6040518060800160405280600081526020016000815260200160008152602001600081526020015090565b604051806101a001604052806000815260200160008152602001600081526020016000815260200160008152602001600067ffffffffffffffff168152602001600067ffffffffffffffff168152602001600060020b8152602001600015158152602001600067ffffffffffffffff168152602001600063ffffffff168152602001600073ffffffffffffffffffffffffffffffffffffffff168152602001600067ffffffffffffffff1681526020015090565b604051806040016040528060008152602001600081526020015090565b6040518060a00160405280600073ffffffffffffffffffffffffffffffffffffffff168152602001600067ffffffffffffffff168152602001600060028111156165cb57fe5b8152602001600062ffffff168152602001606081526020015090565b828054600181600116156101000203166002900490600052602060002090601f01602090048101928261661d5760008555616669565b82601f1061663657805160ff1916838001178555616669565b82800160010185558215616669579182015b828111156166685782518260005090905591602001919060010190616648565b5b5090506166769190616740565b5090565b604051806101800160405280600073ffffffffffffffffffffffffffffffffffffffff168152602001600061ffff16815260200160008152602001600081526020016000815260200160006fffffffffffffffffffffffffffffffff168152602001600067ffffffffffffffff168152602001600060020b8152602001600060020b8152602001600063ffffffff168152602001600073ffffffffffffffffffffffffffffffffffffffff168152602001600067ffffffffffffffff1681526020015090565b616745565b8082111561675f5760008181506000905550600101616745565b509056617b55565b60008135905061677681617ad9565b5b919050565b60008151905061678b81617ad9565b5b919050565b600081359050801515811415156167a85760006000fd5b5b919050565b6000813590506167bd81617b02565b5b919050565b6000815190506167d281617b02565b5b919050565b6000813590506167e781617b18565b5b919050565b6000815190506167fc81617b18565b5b919050565b60008135905061ffff81168114151561681b5760006000fd5b5b919050565b60008151905061683081617b3d565b5b919050565b60008135905063ffffffff8116811415156168515760006000fd5b5b919050565b60008135905067ffffffffffffffff8116811415156168765760006000fd5b5b919050565b60006020828403121561688d578081fd5b813561689881617ad9565b809150505b92915050565b60006000604083850312156168b6578081fd5b82356168c181617ad9565b80925050602083013590505b9250929050565b60006000600060006000608086880312156168ed578081fd5b85356168f881617ad9565b80955050602086013561690a81617ad9565b8094505060408601359250606086013567ffffffffffffffff8082111561692f578283fd5b818801915088601f8301121515616944578283fd5b813581811115616952578384fd5b896020828501011115616963578384fd5b6020830194508093505050505b9295509295909350565b600060006040838503121561698d578182fd5b823561699881617ad9565b80925050602083013590505b9250929050565b600060208083850312156169bd578182fd5b823567ffffffffffffffff808211156169d4578384fd5b818501915085601f83011215156169e9578384fd5b8135818111156169f557fe5b8381029150616a05848301617aae565b8082825285820191508585018987868801011115616a21578788fd5b8795505b83861015616a4e57616a3681616836565b8352868301925086810190505b600186019550616a25565b508096505050505050505b92915050565b600060208284031215616a70578081fd5b81357fffffffff00000000000000000000000000000000000000000000000000000000811681141515616aa1578182fd5b809150505b92915050565b600060208284031215616abd578081fd5b8151616ac881617ad9565b809150505b92915050565b600060208284031215616ae4578081fd5b8135616aef81617ad9565b809150505b92915050565b600060208284031215616b0b578081fd5b8151616b1681617ad9565b809150505b92915050565b600060208284031215616b32578081fd5b8151616b3d81617ad9565b809150505b92915050565b600060208284031215616b59578081fd5b8151616b6481617ad9565b809150505b92915050565b600060208284031215616b80578081fd5b8151616b8b81617ad9565b809150505b92915050565b600060208284031215616ba7578081fd5b8135616bb281617ad9565b809150505b92915050565b6000600060408385031215616bd0578182fd5b8235616bdb81617ad9565b80925050602083013590505b9250929050565b600060208284031215616bff578081fd5b8135616c0a81617b02565b809150505b92915050565b6000600060408385031215616c28578182fd5b8235616c3381617b02565b809250506020830135616c4581617b02565b809150505b9250929050565b600060808284031215616c62578081fd5b6040516080810181811067ffffffffffffffff82111715616c7f57fe5b806040525082358152602083013560208201526040830135604082015260608301356060820152809150505b92915050565b600060208284031215616cc2578081fd5b616ccb82616802565b90505b92915050565b600060008284036060811215616ce8578283fd5b616cf184616802565b925060407fffffffffffffffffffffffffffffffffffffffffffffffffffffffffffffffe082011215616d22578182fd5b506040516040810181811067ffffffffffffffff82111715616d4057fe5b80604052506020840135815260408401356020820152809150505b9250929050565b600060208284031215616d73578081fd5b813590505b92915050565b600060208284031215616d8f578081fd5b815190505b92915050565b6000600060408385031215616dad578182fd5b823591506020830135616dbf81617ad9565b809150505b9250929050565b600060008284036101a0811215616de0578283fd5b83359250610180807fffffffffffffffffffffffffffffffffffffffffffffffffffffffffffffffe083011215616e15578283fd5b616e1e81617aae565b9150616e2c60208601616767565b8252616e3a60408601616802565b6020830152606085013560408301526080850135606083015260a08501356080830152616e6960c086016167d8565b60a0830152616e7a60e08601616857565b60c0830152610100616e8d8187016167ae565b60e0840152610120616ea08188016167ae565b828501526101409150616eb4828801616836565b8185015250610160616ec7818801616767565b82850152616ed6838801616857565b81850152505050809150505b9250929050565b6000600060408385031215616efc578182fd5b82359150602083013590505b9250929050565b6000600060408385031215616f22578182fd5b616f2b83616836565b9150616f3960208401616836565b90505b9250929050565b600060208284031215616f54578081fd5b616f5d82616857565b90505b92915050565b600060008284036101c0811215616f7b578283fd5b616f8484616857565b92506101a0807fffffffffffffffffffffffffffffffffffffffffffffffffffffffffffffffe083011215616fb7578283fd5b616fc081617aae565b91506020850135825260408501356020830152606085013560408301526080850135606083015260a08501356080830152616ffd60c08601616857565b60a083015261700e60e08601616857565b60c08301526101006170218187016167ae565b60e0840152610120617034818801616791565b828501526101409150617048828801616857565b818501525061016061705b818801616836565b82850152610180915061706f828801616767565b818501525061707f828701616857565b818401525050809150505b9250929050565b600060006000606084860312156170a6578081fd5b6170af84616857565b92506020808501356170c081617b3d565b80935050604085013567ffffffffffffffff808211156170de578384fd5b818701915087601f83011215156170f3578384fd5b8135818111156170ff57fe5b61712f847fffffffffffffffffffffffffffffffffffffffffffffffffffffffffffffffe0601f84011601617aae565b91508082528884828501011115617144578485fd5b808484018584013784848284010152508093505050505b9250925092565b6000600060006000600060006000600060006000600060006101808d8f03121561718a57898afd5b8c516bffffffffffffffffffffffff8116811415156171a7578a8bfd5b809c50506171b760208e0161677c565b9a506171c560408e0161677c565b99506171d360608e0161677c565b98506171e160808e01616821565b97506171ef60a08e016167c3565b96506171fd60c08e016167c3565b955061720b60e08e016167ed565b94506101008d015193506101208d0151925061722a6101408e016167ed565b91506172396101608e016167ed565b90505b9295989b509295989b509295989b565b73ffffffffffffffffffffffffffffffffffffffff811682525b5050565b80151582525b5050565b60038110151561728057fe5b8082525b5050565b8060020b82525b5050565b60008151808452815b818110156172bf576020808286010151818388010152505b60208101905061729c565b818111156172d05782602083870101525b5060207fffffffffffffffffffffffffffffffffffffffffffffffffffffffffffffffe0601f8301168501019150505b92915050565b6fffffffffffffffffffffffffffffffff811682525b5050565b61ffff811682525b5050565b63ffffffff811682525b5050565b67ffffffffffffffff811682525b5050565b600060208201905073ffffffffffffffffffffffffffffffffffffffff831682525b92915050565b600060208201905073ffffffffffffffffffffffffffffffffffffffff831682525b92915050565b600060408201905073ffffffffffffffffffffffffffffffffffffffff8416825282151560208301525b9392505050565b600060e08201905073ffffffffffffffffffffffffffffffffffffffff8916825261ffff8816602083015263ffffffff8716604083015285606083015275ffffffffffffffffffffffffffffffffffffffffffff8516608083015264ffffffffff80851660a084015280841660c0840152505b98975050505050505050565b600073ffffffffffffffffffffffffffffffffffffffff8716825267ffffffffffffffff861660208301526174846040830186617274565b62ffffff8416606083015260a060808301526174a360a0830184617293565b90505b9695505050505050565b6000602080830181845280855180835260409250828601915082848202870101848801865b83811015617589577fffffffffffffffffffffffffffffffffffffffffffffffffffffffffffffffc0898403018552815160a073ffffffffffffffffffffffffffffffffffffffff825116855267ffffffffffffffff8983015116898601528782015161754489870182617274565b50606062ffffff81840151168187015250608080830151925081818701525061756f81860183617293565b94505050868201915086850194505b6001810190506174d5565b505080955050505050505b92915050565b600060208083018184528085518083526040860191508387019250845b818110156175eb576fffffffffffffffffffffffffffffffff8451168352848301925084840193505b6001810190506175b7565b50508093505050505b92915050565b600060208083018184528085518083526040860191508387019250845b8181101561763f5763ffffffff8451168352848301925084840193505b600181019050617617565b50508093505050505b92915050565b600060208083018184528085518083526040860191508387019250845b818110156176975767ffffffffffffffff8451168352848301925084840193505b60018101905061766b565b50508093505050505b92915050565b600060208201905082151582525b92915050565b60006020820190507fffffffff00000000000000000000000000000000000000000000000000000000831682525b92915050565b600060208201905073ffffffffffffffffffffffffffffffffffffffff831682525b92915050565b60006020820190508260020b82525b92915050565b600060208252600d60208301527f4c43205265656e7472616e63790000000000000000000000000000000000000060408301526060820190505b919050565b600060208252600e60208301527f4e6f7420417574686f72697a656400000000000000000000000000000000000060408301526060820190505b919050565b600060208252600c60208301527f506f736974696f6e20444e45000000000000000000000000000000000000000060408301526060820190505b919050565b600060208252601d60208301527f446f6573206e6f7420616363657074204e465473206469726563746c7900000060408301526060820190505b919050565b600060208252601560208301527f4d6178206b69636b6261636b206578636565646564000000000000000000000060408301526060820190505b919050565b60006101a082019050825182526020830151602083015260408301516040830152606083015160608301526080830151608083015260a08301516178ad60a084018261733a565b5060c08301516178c060c084018261733a565b5060e08301516178d360e0840182617288565b50610100808401516178e78285018261726a565b5050610120808401516178fc8285018261733a565b5050610140808401516179118285018261732c565b5050610160808401516179268285018261724c565b50506101808084015161793b8285018261733a565b50505b92915050565b60006101808201905061795882845161724c565b602083015161796a6020840182617320565b5060408301516040830152606083015160608301526080830151608083015260a083015161799b60a0840182617306565b5060c08301516179ae60c084018261733a565b5060e08301516179c160e0840182617288565b50610100808401516179d582850182617288565b5050610120808401516179ea8285018261732c565b5050610140808401516179ff8285018261724c565b505061016080840151617a148285018261733a565b50505b92915050565b600060408201905082518252602083015160208301525b92915050565b6000608082019050825182526020830151602083015260408301516040830152606083015160608301525b92915050565b60006020820190508282525b92915050565b60006040820190508382528260208301525b9392505050565b600060208201905063ffffffff831682525b92915050565b6000604051905081810181811067ffffffffffffffff82111715617ace57fe5b80604052505b919050565b73ffffffffffffffffffffffffffffffffffffffff811681141515617afe5760006000fd5b5b50565b8060020b81141515617b145760006000fd5b5b50565b6fffffffffffffffffffffffffffffffff811681141515617b395760006000fd5b5b50565b62ffffff811681141515617b515760006000fd5b5b50565bfea26469706673582212207349de78226c1e96d6f0c0c5012d3cb9044f897233eabd13e49723aeb0503f4964736f6c63430007060033",
  "linkReferences": {},
  "deployedLinkReferences": {}
}