{
  "_format": "hh-sol-artifact-1",
  "contractName": "Accounting",
  "sourceName": "contracts/core/storage/Accounting.sol",
  "abi": [
    {
      "inputs": [
        {
          "internalType": "contract INonfungiblePositionManager",
          "name": "_nftPositionManager",
          "type": "address"
        }
      ],
      "stateMutability": "nonpayable",
      "type": "constructor"
    },
    {
      "anonymous": false,
      "inputs": [],
      "name": "DebtPositionIndexingDisabled",
      "type": "event"
    },
    {
      "anonymous": false,
      "inputs": [
        {
          "indexed": true,
          "internalType": "address",
          "name": "governor",
          "type": "address"
        }
      ],
      "name": "Initialized",
      "type": "event"
    },
    {
      "anonymous": false,
      "inputs": [],
      "name": "PoolPositionIndexingDisabled",
      "type": "event"
    },
    {
      "anonymous": false,
      "inputs": [],
      "name": "Stopped",
      "type": "event"
    },
    {
      "anonymous": false,
      "inputs": [
        {
          "indexed": false,
          "internalType": "uint32[]",
          "name": "uis",
          "type": "uint32[]"
        }
      ],
      "name": "UIsApproved",
      "type": "event"
    },
    {
      "anonymous": false,
      "inputs": [
        {
          "indexed": false,
          "internalType": "uint32[]",
          "name": "uis",
          "type": "uint32[]"
        }
      ],
      "name": "UIsDisapproved",
      "type": "event"
    },
    {
      "inputs": [],
      "name": "TICK_SPACING",
      "outputs": [
        {
          "internalType": "int24",
          "name": "",
          "type": "int24"
        }
      ],
      "stateMutability": "view",
      "type": "function"
    },
    {
      "inputs": [
        {
          "internalType": "address",
          "name": "owner",
          "type": "address"
        },
        {
          "internalType": "uint256",
          "name": "nftID",
          "type": "uint256"
        }
      ],
      "name": "addPositionToIndex",
      "outputs": [],
      "stateMutability": "nonpayable",
      "type": "function"
    },
    {
      "inputs": [
        {
          "internalType": "uint32[]",
          "name": "ids",
          "type": "uint32[]"
        }
      ],
      "name": "approveUIs",
      "outputs": [],
      "stateMutability": "nonpayable",
      "type": "function"
    },
    {
      "inputs": [],
      "name": "debt",
      "outputs": [
        {
          "internalType": "uint256",
          "name": "",
          "type": "uint256"
        }
      ],
      "stateMutability": "view",
      "type": "function"
    },
    {
      "inputs": [],
      "name": "debtPositionIndexingEnabled",
      "outputs": [
        {
          "internalType": "bool",
          "name": "",
          "type": "bool"
        }
      ],
      "stateMutability": "view",
      "type": "function"
    },
    {
      "inputs": [
        {
          "internalType": "uint256",
          "name": "count",
          "type": "uint256"
        }
      ],
      "name": "decreaseDebt",
      "outputs": [],
      "stateMutability": "nonpayable",
      "type": "function"
    },
    {
      "inputs": [
        {
          "internalType": "contract IUniswapV3Pool",
          "name": "pool",
          "type": "address"
        },
        {
          "internalType": "uint256",
          "name": "liquidity",
          "type": "uint256"
        }
      ],
      "name": "decreasePoolLiquidity",
      "outputs": [],
      "stateMutability": "nonpayable",
      "type": "function"
    },
    {
      "inputs": [
        {
          "internalType": "uint256",
          "name": "nftID",
          "type": "uint256"
        }
      ],
      "name": "deletePoolPosition",
      "outputs": [],
      "stateMutability": "nonpayable",
      "type": "function"
    },
    {
      "inputs": [],
      "name": "deployer",
      "outputs": [
        {
          "internalType": "address",
          "name": "",
          "type": "address"
        }
      ],
      "stateMutability": "view",
      "type": "function"
    },
    {
      "inputs": [
        {
          "internalType": "uint32[]",
          "name": "ids",
          "type": "uint32[]"
        }
      ],
      "name": "disapproveUIs",
      "outputs": [],
      "stateMutability": "nonpayable",
      "type": "function"
    },
    {
      "inputs": [
        {
          "internalType": "uint64",
          "name": "positionID",
          "type": "uint64"
        }
      ],
      "name": "getBasicPositionInfo",
      "outputs": [
        {
          "internalType": "uint256",
          "name": "debtCount",
          "type": "uint256"
        },
        {
          "internalType": "uint256",
          "name": "collateralCount",
          "type": "uint256"
        }
      ],
      "stateMutability": "view",
      "type": "function"
    },
    {
      "inputs": [
        {
          "internalType": "uint256",
          "name": "nftID",
          "type": "uint256"
        }
      ],
      "name": "getPoolPosition",
      "outputs": [
        {
          "components": [
            {
              "internalType": "address",
              "name": "owner",
              "type": "address"
            },
            {
              "internalType": "uint16",
              "name": "poolID",
              "type": "uint16"
            },
            {
              "internalType": "uint256",
              "name": "cumulativeLiquidity",
              "type": "uint256"
            },
            {
              "internalType": "uint256",
              "name": "totalRewards",
              "type": "uint256"
            },
            {
              "internalType": "uint256",
              "name": "lastBlockPositionIncreased",
              "type": "uint256"
            },
            {
              "internalType": "uint128",
              "name": "liquidity",
              "type": "uint128"
            },
            {
              "internalType": "uint64",
              "name": "lastTimeRewarded",
              "type": "uint64"
            },
            {
              "internalType": "int24",
              "name": "tickLower",
              "type": "int24"
            },
            {
              "internalType": "int24",
              "name": "tickUpper",
              "type": "int24"
            },
            {
              "internalType": "uint32",
              "name": "ui",
              "type": "uint32"
            },
            {
              "internalType": "address",
              "name": "kickbackDestination",
              "type": "address"
            },
            {
              "internalType": "uint64",
              "name": "kickbackPortion",
              "type": "uint64"
            }
          ],
          "internalType": "struct IAccounting.PoolPosition",
          "name": "pp",
          "type": "tuple"
        }
      ],
      "stateMutability": "view",
      "type": "function"
    },
    {
      "inputs": [
        {
          "internalType": "address",
          "name": "owner",
          "type": "address"
        }
      ],
      "name": "getPoolPositionNftIdsByOwner",
      "outputs": [
        {
          "internalType": "uint128[]",
          "name": "",
          "type": "uint128[]"
        }
      ],
      "stateMutability": "view",
      "type": "function"
    },
    {
      "inputs": [
        {
          "internalType": "uint64",
          "name": "positionID",
          "type": "uint64"
        }
      ],
      "name": "getPosition",
      "outputs": [
        {
          "components": [
            {
              "internalType": "uint256",
              "name": "startCumulativeDebt",
              "type": "uint256"
            },
            {
              "internalType": "uint256",
              "name": "collateral",
              "type": "uint256"
            },
            {
              "internalType": "uint256",
              "name": "debt",
              "type": "uint256"
            },
            {
              "internalType": "uint256",
              "name": "startDebtExchangeRate",
              "type": "uint256"
            },
            {
              "internalType": "uint256",
              "name": "startTCPRewards",
              "type": "uint256"
            },
            {
              "internalType": "uint64",
              "name": "lastTimeUpdated",
              "type": "uint64"
            },
            {
              "internalType": "uint64",
              "name": "lastBorrowTime",
              "type": "uint64"
            },
            {
              "internalType": "int24",
              "name": "tick",
              "type": "int24"
            },
            {
              "internalType": "bool",
              "name": "tickSet",
              "type": "bool"
            },
            {
              "internalType": "uint64",
              "name": "tickIndex",
              "type": "uint64"
            },
            {
              "internalType": "uint32",
              "name": "ui",
              "type": "uint32"
            },
            {
              "internalType": "address",
              "name": "kickbackDestination",
              "type": "address"
            },
            {
              "internalType": "uint64",
              "name": "kickbackPortion",
              "type": "uint64"
            }
          ],
          "internalType": "struct IAccounting.DebtPosition",
          "name": "dp",
          "type": "tuple"
        }
      ],
      "stateMutability": "view",
      "type": "function"
    },
    {
      "inputs": [
        {
          "internalType": "uint16",
          "name": "poolID",
          "type": "uint16"
        }
      ],
      "name": "getRewardStatus",
      "outputs": [
        {
          "components": [
            {
              "internalType": "uint256",
              "name": "totalRewards",
              "type": "uint256"
            },
            {
              "internalType": "uint256",
              "name": "cumulativeLiquidity",
              "type": "uint256"
            }
          ],
          "internalType": "struct IAccounting.RewardStatus",
          "name": "",
          "type": "tuple"
        }
      ],
      "stateMutability": "view",
      "type": "function"
    },
    {
      "inputs": [],
      "name": "getSystemDebtInfo",
      "outputs": [
        {
          "components": [
            {
              "internalType": "uint256",
              "name": "debt",
              "type": "uint256"
            },
            {
              "internalType": "uint256",
              "name": "totalTCPRewards",
              "type": "uint256"
            },
            {
              "internalType": "uint256",
              "name": "cumulativeDebt",
              "type": "uint256"
            },
            {
              "internalType": "uint256",
              "name": "debtExchangeRate",
              "type": "uint256"
            }
          ],
          "internalType": "struct IAccounting.SystemDebtInfo",
          "name": "",
          "type": "tuple"
        }
      ],
      "stateMutability": "view",
      "type": "function"
    },
    {
      "inputs": [
        {
          "internalType": "uint256",
          "name": "collateralCount",
          "type": "uint256"
        },
        {
          "internalType": "uint256",
          "name": "debtCount",
          "type": "uint256"
        }
      ],
      "name": "getTick",
      "outputs": [
        {
          "internalType": "int24",
          "name": "",
          "type": "int24"
        }
      ],
      "stateMutability": "pure",
      "type": "function"
    },
    {
      "inputs": [
        {
          "internalType": "uint32",
          "name": "start",
          "type": "uint32"
        },
        {
          "internalType": "uint32",
          "name": "end",
          "type": "uint32"
        }
      ],
      "name": "getUIs",
      "outputs": [
        {
          "components": [
            {
              "internalType": "address",
              "name": "kickbackDestination",
              "type": "address"
            },
            {
              "internalType": "uint64",
              "name": "kickbackPortion",
              "type": "uint64"
            },
            {
              "internalType": "enum IAccounting.UIGovernanceRating",
              "name": "governanceRating",
              "type": "uint8"
            },
            {
              "internalType": "uint24",
              "name": "tags",
              "type": "uint24"
            },
            {
              "internalType": "string",
              "name": "ipfsHash",
              "type": "string"
            }
          ],
          "internalType": "struct IAccounting.UserInterface[]",
          "name": "uis",
          "type": "tuple[]"
        }
      ],
      "stateMutability": "view",
      "type": "function"
    },
    {
      "inputs": [],
      "name": "governor",
      "outputs": [
        {
          "internalType": "contract IGovernor",
          "name": "",
          "type": "address"
        }
      ],
      "stateMutability": "view",
      "type": "function"
    },
    {
      "inputs": [
        {
          "internalType": "uint256",
          "name": "count",
          "type": "uint256"
        }
      ],
      "name": "increaseDebt",
      "outputs": [],
      "stateMutability": "nonpayable",
      "type": "function"
    },
    {
      "inputs": [
        {
          "internalType": "uint256",
          "name": "count",
          "type": "uint256"
        }
      ],
      "name": "increaseLentHue",
      "outputs": [],
      "stateMutability": "nonpayable",
      "type": "function"
    },
    {
      "inputs": [
        {
          "internalType": "contract IUniswapV3Pool",
          "name": "pool",
          "type": "address"
        },
        {
          "internalType": "uint256",
          "name": "liquidity",
          "type": "uint256"
        }
      ],
      "name": "increasePoolLiquidity",
      "outputs": [],
      "stateMutability": "nonpayable",
      "type": "function"
    },
    {
      "inputs": [
        {
          "internalType": "contract IGovernor",
          "name": "_governor",
          "type": "address"
        }
      ],
      "name": "init",
      "outputs": [],
      "stateMutability": "nonpayable",
      "type": "function"
    },
    {
      "inputs": [
        {
          "internalType": "uint256",
          "name": "nftID",
          "type": "uint256"
        },
        {
          "internalType": "address",
          "name": "addressToCheck",
          "type": "address"
        }
      ],
      "name": "isPositionOwner",
      "outputs": [
        {
          "internalType": "bool",
          "name": "",
          "type": "bool"
        }
      ],
      "stateMutability": "view",
      "type": "function"
    },
    {
      "inputs": [],
      "name": "lentHue",
      "outputs": [
        {
          "internalType": "uint256",
          "name": "",
          "type": "uint256"
        }
      ],
      "stateMutability": "view",
      "type": "function"
    },
    {
      "inputs": [],
      "name": "nextUserInterfaceID",
      "outputs": [
        {
          "internalType": "uint32",
          "name": "",
          "type": "uint32"
        }
      ],
      "stateMutability": "view",
      "type": "function"
    },
    {
      "inputs": [
        {
          "internalType": "address",
          "name": "",
          "type": "address"
        },
        {
          "internalType": "address",
          "name": "",
          "type": "address"
        },
        {
          "internalType": "uint256",
          "name": "",
          "type": "uint256"
        },
        {
          "internalType": "bytes",
          "name": "",
          "type": "bytes"
        }
      ],
      "name": "onERC721Received",
      "outputs": [
        {
          "internalType": "bytes4",
          "name": "",
          "type": "bytes4"
        }
      ],
      "stateMutability": "pure",
      "type": "function"
    },
    {
      "inputs": [
        {
          "internalType": "address",
          "name": "newRewards",
          "type": "address"
        }
      ],
      "name": "onRewardsUpgrade",
      "outputs": [],
      "stateMutability": "nonpayable",
      "type": "function"
    },
    {
      "inputs": [
        {
          "internalType": "contract IUniswapV3Pool",
          "name": "",
          "type": "address"
        }
      ],
      "name": "poolLiquidity",
      "outputs": [
        {
          "internalType": "uint256",
          "name": "",
          "type": "uint256"
        }
      ],
      "stateMutability": "view",
      "type": "function"
    },
    {
      "inputs": [
        {
          "internalType": "uint256",
          "name": "",
          "type": "uint256"
        }
      ],
      "name": "poolPosition",
      "outputs": [
        {
          "internalType": "address",
          "name": "owner",
          "type": "address"
        },
        {
          "internalType": "uint16",
          "name": "poolID",
          "type": "uint16"
        },
        {
          "internalType": "uint32",
          "name": "ui",
          "type": "uint32"
        },
        {
          "internalType": "uint256",
          "name": "cumulativeLiquidity",
          "type": "uint256"
        },
        {
          "internalType": "uint176",
          "name": "totalRewards",
          "type": "uint176"
        },
        {
          "internalType": "uint40",
          "name": "lastTimeRewarded",
          "type": "uint40"
        },
        {
          "internalType": "uint40",
          "name": "lastBlockPositionIncreased",
          "type": "uint40"
        }
      ],
      "stateMutability": "view",
      "type": "function"
    },
    {
      "inputs": [],
      "name": "poolPositionIndexingEnabled",
      "outputs": [
        {
          "internalType": "bool",
          "name": "",
          "type": "bool"
        }
      ],
      "stateMutability": "view",
      "type": "function"
    },
    {
      "inputs": [
        {
          "internalType": "uint64[]",
          "name": "positionIDs",
          "type": "uint64[]"
        }
      ],
      "name": "positionsCollateralization",
      "outputs": [
        {
          "internalType": "uint256[]",
          "name": "collateralizations",
          "type": "uint256[]"
        }
      ],
      "stateMutability": "view",
      "type": "function"
    },
    {
      "inputs": [
        {
          "internalType": "int24",
          "name": "tick",
          "type": "int24"
        }
      ],
      "name": "positionsForTick",
      "outputs": [
        {
          "internalType": "uint64[]",
          "name": "",
          "type": "uint64[]"
        }
      ],
      "stateMutability": "view",
      "type": "function"
    },
    {
      "inputs": [
        {
          "internalType": "uint64",
          "name": "kickbackPortion",
          "type": "uint64"
        },
        {
          "internalType": "uint24",
          "name": "tags",
          "type": "uint24"
        },
        {
          "internalType": "string",
          "name": "ipfsHash",
          "type": "string"
        }
      ],
      "name": "registerUI",
      "outputs": [
        {
          "internalType": "uint32",
          "name": "",
          "type": "uint32"
        }
      ],
      "stateMutability": "nonpayable",
      "type": "function"
    },
    {
      "inputs": [
        {
          "internalType": "address payable",
          "name": "dest",
          "type": "address"
        },
        {
          "internalType": "uint256",
          "name": "count",
          "type": "uint256"
        }
      ],
      "name": "sendCollateral",
      "outputs": [],
      "stateMutability": "nonpayable",
      "type": "function"
    },
    {
      "inputs": [
        {
          "internalType": "address",
          "name": "dest",
          "type": "address"
        },
        {
          "internalType": "uint256",
          "name": "count",
          "type": "uint256"
        }
      ],
      "name": "sendLentHue",
      "outputs": [],
      "stateMutability": "nonpayable",
      "type": "function"
    },
    {
      "inputs": [
        {
          "internalType": "uint256",
          "name": "nftID",
          "type": "uint256"
        },
        {
          "components": [
            {
              "internalType": "address",
              "name": "owner",
              "type": "address"
            },
            {
              "internalType": "uint16",
              "name": "poolID",
              "type": "uint16"
            },
            {
              "internalType": "uint256",
              "name": "cumulativeLiquidity",
              "type": "uint256"
            },
            {
              "internalType": "uint256",
              "name": "totalRewards",
              "type": "uint256"
            },
            {
              "internalType": "uint256",
              "name": "lastBlockPositionIncreased",
              "type": "uint256"
            },
            {
              "internalType": "uint128",
              "name": "liquidity",
              "type": "uint128"
            },
            {
              "internalType": "uint64",
              "name": "lastTimeRewarded",
              "type": "uint64"
            },
            {
              "internalType": "int24",
              "name": "tickLower",
              "type": "int24"
            },
            {
              "internalType": "int24",
              "name": "tickUpper",
              "type": "int24"
            },
            {
              "internalType": "uint32",
              "name": "ui",
              "type": "uint32"
            },
            {
              "internalType": "address",
              "name": "kickbackDestination",
              "type": "address"
            },
            {
              "internalType": "uint64",
              "name": "kickbackPortion",
              "type": "uint64"
            }
          ],
          "internalType": "struct IAccounting.PoolPosition",
          "name": "pp",
          "type": "tuple"
        }
      ],
      "name": "setPoolPosition",
      "outputs": [],
      "stateMutability": "nonpayable",
      "type": "function"
    },
    {
      "inputs": [
        {
          "internalType": "uint64",
          "name": "positionID",
          "type": "uint64"
        },
        {
          "components": [
            {
              "internalType": "uint256",
              "name": "startCumulativeDebt",
              "type": "uint256"
            },
            {
              "internalType": "uint256",
              "name": "collateral",
              "type": "uint256"
            },
            {
              "internalType": "uint256",
              "name": "debt",
              "type": "uint256"
            },
            {
              "internalType": "uint256",
              "name": "startDebtExchangeRate",
              "type": "uint256"
            },
            {
              "internalType": "uint256",
              "name": "startTCPRewards",
              "type": "uint256"
            },
            {
              "internalType": "uint64",
              "name": "lastTimeUpdated",
              "type": "uint64"
            },
            {
              "internalType": "uint64",
              "name": "lastBorrowTime",
              "type": "uint64"
            },
            {
              "internalType": "int24",
              "name": "tick",
              "type": "int24"
            },
            {
              "internalType": "bool",
              "name": "tickSet",
              "type": "bool"
            },
            {
              "internalType": "uint64",
              "name": "tickIndex",
              "type": "uint64"
            },
            {
              "internalType": "uint32",
              "name": "ui",
              "type": "uint32"
            },
            {
              "internalType": "address",
              "name": "kickbackDestination",
              "type": "address"
            },
            {
              "internalType": "uint64",
              "name": "kickbackPortion",
              "type": "uint64"
            }
          ],
          "internalType": "struct IAccounting.DebtPosition",
          "name": "dp",
          "type": "tuple"
        }
      ],
      "name": "setPosition",
      "outputs": [],
      "stateMutability": "nonpayable",
      "type": "function"
    },
    {
      "inputs": [
        {
          "internalType": "uint16",
          "name": "poolID",
          "type": "uint16"
        },
        {
          "components": [
            {
              "internalType": "uint256",
              "name": "totalRewards",
              "type": "uint256"
            },
            {
              "internalType": "uint256",
              "name": "cumulativeLiquidity",
              "type": "uint256"
            }
          ],
          "internalType": "struct IAccounting.RewardStatus",
          "name": "rs",
          "type": "tuple"
        }
      ],
      "name": "setRewardStatus",
      "outputs": [],
      "stateMutability": "nonpayable",
      "type": "function"
    },
    {
      "inputs": [
        {
          "components": [
            {
              "internalType": "uint256",
              "name": "debt",
              "type": "uint256"
            },
            {
              "internalType": "uint256",
              "name": "totalTCPRewards",
              "type": "uint256"
            },
            {
              "internalType": "uint256",
              "name": "cumulativeDebt",
              "type": "uint256"
            },
            {
              "internalType": "uint256",
              "name": "debtExchangeRate",
              "type": "uint256"
            }
          ],
          "internalType": "struct IAccounting.SystemDebtInfo",
          "name": "_sdi",
          "type": "tuple"
        }
      ],
      "name": "setSystemDebtInfo",
      "outputs": [],
      "stateMutability": "nonpayable",
      "type": "function"
    },
    {
      "inputs": [
        {
          "internalType": "int24",
          "name": "rawTick",
          "type": "int24"
        },
        {
          "internalType": "int24",
          "name": "tickSpacing",
          "type": "int24"
        }
      ],
      "name": "snapRawTickToSpacing",
      "outputs": [
        {
          "internalType": "int24",
          "name": "",
          "type": "int24"
        }
      ],
      "stateMutability": "pure",
      "type": "function"
    },
    {
      "inputs": [],
      "name": "stopIndexingDebtPositions",
      "outputs": [],
      "stateMutability": "nonpayable",
      "type": "function"
    },
    {
      "inputs": [],
      "name": "stopIndexingPoolPositions",
      "outputs": [],
      "stateMutability": "nonpayable",
      "type": "function"
    },
    {
      "inputs": [],
      "name": "stopped",
      "outputs": [
        {
          "internalType": "bool",
          "name": "",
          "type": "bool"
        }
      ],
      "stateMutability": "view",
      "type": "function"
    },
    {
      "inputs": [],
      "name": "sweepHue",
      "outputs": [],
      "stateMutability": "nonpayable",
      "type": "function"
    },
    {
      "inputs": [
        {
          "internalType": "uint256",
          "name": "",
          "type": "uint256"
        }
      ],
      "name": "userInterfaces",
      "outputs": [
        {
          "internalType": "address",
          "name": "kickbackDestination",
          "type": "address"
        },
        {
          "internalType": "uint64",
          "name": "kickbackPortion",
          "type": "uint64"
        },
        {
          "internalType": "enum IAccounting.UIGovernanceRating",
          "name": "governanceRating",
          "type": "uint8"
        },
        {
          "internalType": "uint24",
          "name": "tags",
          "type": "uint24"
        },
        {
          "internalType": "string",
          "name": "ipfsHash",
          "type": "string"
        }
      ],
      "stateMutability": "view",
      "type": "function"
    },
    {
      "inputs": [
        {
          "internalType": "bytes4",
          "name": "",
          "type": "bytes4"
        }
      ],
      "name": "validUpdate",
      "outputs": [
        {
          "internalType": "bool",
          "name": "",
          "type": "bool"
        }
      ],
      "stateMutability": "view",
      "type": "function"
    },
    {
      "stateMutability": "payable",
      "type": "receive"
    }
  ],
  "bytecode": "0x60a0604052600160066000509090556001600860006101000a81548160ff0219169083151502179055506001600860016101000a81548160ff0219169083151502179055506001601260006101000a81548163ffffffff021916908363ffffffff160217905550348015620000745760006000fd5b5060405162007fe838038062007fe883398181016040528101906200009a919062000125565b5b5b33600160006101000a81548173ffffffffffffffffffffffffffffffffffffffff021916908373ffffffffffffffffffffffffffffffffffffffff1602179055505b8073ffffffffffffffffffffffffffffffffffffffff1660808173ffffffffffffffffffffffffffffffffffffffff1660601b815260140150505b506200015c566200015b565b60006020828403121562000137578081fd5b81516001600160a01b0381168114151562000150578182fd5b809150505b92915050565b5b60805160601c617e696200017f600039806135ae528061523c5250617e696000f3fe60806040526004361061030c5760003560e01c8063602db56b1161019a578063b87e8d58116100e1578063d99f57261161008a578063f34348f111610064578063f34348f114610c52578063f709960714610c90578063fd9c749214610cba576103ed565b8063d99f572614610baa578063dd88486314610be8578063e2b1e9e314610c26576103ed565b8063c7711db4116100bb578063c7711db414610b02578063d159b4ae14610b40578063d5f3948814610b7e576103ed565b8063b87e8d5814610a6e578063bdb2a49614610aac578063c3c837ba14610ac4576103ed565b80637f250c6111610143578063a135ef171161011d578063a135ef17146109dc578063a678f33614610a1a578063b241bbac14610a44576103ed565b80637f250c6114610942578063816aaa251461096e57806384eb7b9314610998576103ed565b806375ea13ca1161017457806375ea13ca146108c257806375f12b21146108ec57806378efc6b014610918576103ed565b8063602db56b1461084157806362502169146108595780636594da9f14610883576103ed565b80631a206e911161025e578063461054a311610207578063530c1ccb116101e1578063530c1ccb146107af5780635a6beaf4146107d95780635e016b9014610803576103ed565b8063461054a31461072d57806346ca626b1461074557806351ad51f714610771576103ed565b80632b7c7b11116102385780632b7c7b11146106af5780632c73f09e146106d9578063397d359214610703576103ed565b80631a206e911461061d57806326879a4e1461065b5780632a7ba1f714610685576103ed565b80630f85fc5a116102c0578063150b7a021161029a578063150b7a021461057357806318a15e79146105b157806319ab453c146105f3576103ed565b80630f85fc5a146104cd578063113cf1ab1461050b5780631428561d14610549576103ed565b80630b218d24116102f15780630b218d241461044b5780630c340a24146104755780630dca59c1146104a1576103ed565b806306ef2d80146103f3578063092a26c31461041f576103ed565b366103ed575b600060009054906101000a900473ffffffffffffffffffffffffffffffffffffffff1673ffffffffffffffffffffffffffffffffffffffff166380f556056040518163ffffffff1660e01b815260040160206040518083038186803b15801561037b5760006000fd5b505afa158015610390573d600060003e3d6000fd5b505050506040513d601f19601f820116820180604052508101906103b49190616d8d565b73ffffffffffffffffffffffffffffffffffffffff163373ffffffffffffffffffffffffffffffffffffffff161415156103ea57fe5b5b005b60006000fd5b3480156104005760006000fd5b50610409610ce6565b6040516104169190617cf4565b60405180910390f35b34801561042c5760006000fd5b50610435610d06565b6040516104429190617960565b60405180910390f35b3480156104585760006000fd5b50610473600480360381019061046e9190616b75565b610d19565b005b3480156104825760006000fd5b5061048b610ddb565b60405161049891906179a8565b60405180910390f35b3480156104ae5760006000fd5b506104b7610e01565b6040516104c49190617d25565b60405180910390f35b3480156104da5760006000fd5b506104f560048036038101906104f091906171af565b610e44565b6040516105029190617b20565b60405180910390f35b3480156105185760006000fd5b50610533600480360381019061052e9190616ccb565b610f63565b6040516105409190617960565b60405180910390f35b3480156105565760006000fd5b50610571600480360381019061056c9190616e29565b610f88565b005b3480156105805760006000fd5b5061059b60048036038101906105969190616a9e565b61112b565b6040516105a89190617974565b60405180910390f35b3480156105be5760006000fd5b506105d960048036038101906105d49190616fce565b611171565b6040516105ea9594939291906176b8565b60405180910390f35b3480156106005760006000fd5b5061061b60048036038101906106169190616d3f565b611295565b005b34801561062a5760006000fd5b5061064560048036038101906106409190617006565b611653565b6040516106529190617960565b60405180910390f35b3480156106685760006000fd5b50610683600480360381019061067e9190616fce565b6116cd565b005b3480156106925760006000fd5b506106ad60048036038101906106a89190616fce565b611941565b005b3480156106bc5760006000fd5b506106d760048036038101906106d29190616fce565b611a07565b005b3480156106e65760006000fd5b5061070160048036038101906106fc9190616fce565b611b9d565b005b3480156107105760006000fd5b5061072b60048036038101906107269190616b75565b611cbf565b005b34801561073a5760006000fd5b50610743611d81565b005b3480156107525760006000fd5b5061075b611dda565b60405161076891906179d0565b60405180910390f35b34801561077e5760006000fd5b5061079960048036038101906107949190616f1d565b611ddf565b6040516107a69190617cd7565b60405180910390f35b3480156107bc5760006000fd5b506107d760048036038101906107d29190616e29565b611e3c565b005b3480156107e65760006000fd5b5061080160048036038101906107fc91906171d2565b611fdf565b005b3480156108105760006000fd5b5061082b60048036038101906108269190616c20565b6121da565b6040516108389190617866565b60405180910390f35b34801561084e5760006000fd5b506108576123af565b005b3480156108665760006000fd5b50610881600480360381019061087c9190616a6d565b612408565b005b3480156108905760006000fd5b506108ab60048036038101906108a691906171af565b612480565b6040516108b9929190617d37565b60405180910390f35b3480156108cf5760006000fd5b506108ea60048036038101906108e59190616b44565b612613565b005b3480156108f95760006000fd5b50610902612721565b60405161090f9190617960565b60405180910390f35b3480156109255760006000fd5b50610940600480360381019061093b9190616ebd565b612734565b005b34801561094f5760006000fd5b50610958612842565b6040516109659190617d25565b60405180910390f35b34801561097b5760006000fd5b5061099660048036038101906109919190617037565b61284b565b005b3480156109a55760006000fd5b506109c060048036038101906109bb9190616fce565b61295b565b6040516109d39796959493929190617639565b60405180910390f35b3480156109e95760006000fd5b50610a0460048036038101906109ff9190616e02565b612a25565b604051610a119190617d25565b60405180910390f35b348015610a275760006000fd5b50610a426004803603810190610a3d9190616a46565b612a40565b005b348015610a515760006000fd5b50610a6c6004803603810190610a679190616b44565b612a62565b005b348015610a7b5760006000fd5b50610a966004803603810190610a919190616a46565b612bb8565b604051610aa39190617806565b60405180910390f35b348015610ab95760006000fd5b50610ac2612c1b565b005b348015610ad15760006000fd5b50610aec6004803603810190610ae7919061717b565b612d53565b604051610af9919061771c565b60405180910390f35b348015610b0f5760006000fd5b50610b2a6004803603810190610b259190616e5a565b612fc2565b604051610b379190617908565b60405180910390f35b348015610b4d5760006000fd5b50610b686004803603810190610b639190617155565b613082565b604051610b7591906179d0565b60405180910390f35b348015610b8b5760006000fd5b50610b9461313f565b604051610ba191906175b8565b60405180910390f35b348015610bb75760006000fd5b50610bd26004803603810190610bcd9190616e81565b613165565b604051610bdf91906179d0565b60405180910390f35b348015610bf55760006000fd5b50610c106004803603810190610c0b91906172fd565b6131d6565b604051610c1d9190617d50565b60405180910390f35b348015610c335760006000fd5b50610c3c613437565b604051610c499190617d50565b60405180910390f35b348015610c5f5760006000fd5b50610c7a6004803603810190610c759190616fce565b61344d565b604051610c879190617bfe565b60405180910390f35b348015610c9d5760006000fd5b50610cb86004803603810190610cb39190616f40565b6136f5565b005b348015610cc75760006000fd5b50610cd0613838565b604051610cdd9190617960565b60405180910390f35b610cee616653565b610cfc61384b63ffffffff16565b9050610d03565b90565b600860009054906101000a900460ff1681565b610d276139cb63ffffffff16565b6000600090505b8151811015610d9e576002601360005060008484815181101515610d4e57fe5b602002602001015163ffffffff168152602001908152602001600020600050600001601c6101000a81548160ff02191690836002811115610d8b57fe5b02179055505b8080600101915050610d2e565b507f7264e0084cbb7692193b834f40153b973ff4f827f8ed45da32ae6d8e486bb0c781604051610dce91906178b4565b60405180910390a15b5b50565b600060009054906101000a900473ffffffffffffffffffffffffffffffffffffffff1681565b6000600b60005060010160009054906101000a90046fffffffffffffffffffffffffffffffff166fffffffffffffffffffffffffffffffff169050610e41565b90565b610e4c61667e565b610e5b82613a6063ffffffff16565b90508050600081610140015163ffffffff161115610f56576013600050600082610140015163ffffffff16815260200190815260200160002060005060000160009054906101000a900473ffffffffffffffffffffffffffffffffffffffff1681610160019073ffffffffffffffffffffffffffffffffffffffff16908173ffffffffffffffffffffffffffffffffffffffff16815260200150506013600050600082610140015163ffffffff16815260200190815260200160002060005060000160149054906101000a900467ffffffffffffffff1681610180019067ffffffffffffffff16908167ffffffffffffffff16815260200150505b809050610f5e565b919050565b600560005060205280600052604060002060009150909054906101000a900460ff1681565b610f96613dfc63ffffffff16565b611074600060009054906101000a900473ffffffffffffffffffffffffffffffffffffffff1673ffffffffffffffffffffffffffffffffffffffff16639ec5a8946040518163ffffffff1660e01b815260040160206040518083038186803b1580156110025760006000fd5b505afa158015611017573d600060003e3d6000fd5b505050506040513d601f19601f8201168201806040525081019061103b9190616ddb565b73ffffffffffffffffffffffffffffffffffffffff163373ffffffffffffffffffffffffffffffffffffffff1614613e5763ffffffff16565b6110cc81601060005060008573ffffffffffffffffffffffffffffffffffffffff1673ffffffffffffffffffffffffffffffffffffffff16815260200190815260200160002060005054613e9d90919063ffffffff16565b601060005060008473ffffffffffffffffffffffffffffffffffffffff1673ffffffffffffffffffffffffffffffffffffffff1681526020019081526020016000206000508190909055505b611126613f2663ffffffff16565b5b5050565b60006040517f08c379a000000000000000000000000000000000000000000000000000000000815260040161115f90617aa2565b60405180910390fd5b95945050505050565b60136000506020528060005260406000206000915090508060000160009054906101000a900473ffffffffffffffffffffffffffffffffffffffff16908060000160149054906101000a900467ffffffffffffffff169080600001601c9054906101000a900460ff169080600001601d9054906101000a900462ffffff1690806001016000508054600181600116156101000203166002900480601f01602080910402602001604051908101604052809291908181526020018280546001816001161561010002031660029004801561128b5780601f106112605761010080835404028352916020019161128b565b820191906000526020600020905b81548152906001019060200180831161126e57829003601f168201915b5050505050905085565b600160009054906101000a900473ffffffffffffffffffffffffffffffffffffffff1673ffffffffffffffffffffffffffffffffffffffff163373ffffffffffffffffffffffffffffffffffffffff161415156112f25760006000fd5b600160006101000a81549073ffffffffffffffffffffffffffffffffffffffff021916905580600060006101000a81548173ffffffffffffffffffffffffffffffffffffffff021916908373ffffffffffffffffffffffffffffffffffffffff160217905550600060009054906101000a900473ffffffffffffffffffffffffffffffffffffffff1673ffffffffffffffffffffffffffffffffffffffff16639624e83e6040518163ffffffff1660e01b815260040160206040518083038186803b1580156113c15760006000fd5b505afa1580156113d6573d600060003e3d6000fd5b505050506040513d601f19601f820116820180604052508101906113fa9190616d18565b600260006101000a81548173ffffffffffffffffffffffffffffffffffffffff021916908373ffffffffffffffffffffffffffffffffffffffff160217905550600060009054906101000a900473ffffffffffffffffffffffffffffffffffffffff1673ffffffffffffffffffffffffffffffffffffffff1663323741746040518163ffffffff1660e01b815260040160206040518083038186803b1580156114a35760006000fd5b505afa1580156114b8573d600060003e3d6000fd5b505050506040513d601f19601f820116820180604052508101906114dc9190616d66565b600360006101000a81548173ffffffffffffffffffffffffffffffffffffffff021916908373ffffffffffffffffffffffffffffffffffffffff160217905550600060009054906101000a900473ffffffffffffffffffffffffffffffffffffffff1673ffffffffffffffffffffffffffffffffffffffff1663d478b0876040518163ffffffff1660e01b815260040160206040518083038186803b1580156115855760006000fd5b505afa15801561159a573d600060003e3d6000fd5b505050506040513d601f19601f820116820180604052508101906115be9190616db4565b600460006101000a81548173ffffffffffffffffffffffffffffffffffffffff021916908373ffffffffffffffffffffffffffffffffffffffff16021790555061160c613f3663ffffffff16565b8073ffffffffffffffffffffffffffffffffffffffff167f908408e307fc569b417f6cbec5d5a06f44a0a505ac0479b47d421a4b2fd6a1e660405160405180910390a25b50565b60008173ffffffffffffffffffffffffffffffffffffffff16600f600050600085815260200190815260200160002060005060000160009054906101000a900473ffffffffffffffffffffffffffffffffffffffff1673ffffffffffffffffffffffffffffffffffffffff161490506116c7565b92915050565b6116db613dfc63ffffffff16565b6117b9600060009054906101000a900473ffffffffffffffffffffffffffffffffffffffff1673ffffffffffffffffffffffffffffffffffffffff16639ec5a8946040518163ffffffff1660e01b815260040160206040518083038186803b1580156117475760006000fd5b505afa15801561175c573d600060003e3d6000fd5b505050506040513d601f19601f820116820180604052508101906117809190616ddb565b73ffffffffffffffffffffffffffffffffffffffff163373ffffffffffffffffffffffffffffffffffffffff1614613e5763ffffffff16565b61185c6117cd82614210909063ffffffff16565b60116000506000600f600050600086815260200190815260200160002060005060000160009054906101000a900473ffffffffffffffffffffffffffffffffffffffff1673ffffffffffffffffffffffffffffffffffffffff1673ffffffffffffffffffffffffffffffffffffffff1681526020019081526020016000206000506142aa90919063ffffffff16565b50600f600050600082815260200190815260200160002060006000820160006101000a81549073ffffffffffffffffffffffffffffffffffffffff02191690556000820160146101000a81549061ffff02191690556000820160166101000a81549063ffffffff021916905560018201600050600090556002820160006101000a81549075ffffffffffffffffffffffffffffffffffffffffffff02191690556002820160166101000a81549064ffffffffff021916905560028201601b6101000a81549064ffffffffff021916905550505b61193d613f2663ffffffff16565b5b50565b61194f613dfc63ffffffff16565b61195d6144c163ffffffff16565b6119b66119a982600b60005060010160009054906101000a90046fffffffffffffffffffffffffffffffff166fffffffffffffffffffffffffffffffff1661455190919063ffffffff16565b614210909063ffffffff16565b600b60005060010160006101000a8154816fffffffffffffffffffffffffffffffff02191690836fffffffffffffffffffffffffffffffff1602179055505b611a03613f2663ffffffff16565b5b50565b611a15613dfc63ffffffff16565b611af3600060009054906101000a900473ffffffffffffffffffffffffffffffffffffffff1673ffffffffffffffffffffffffffffffffffffffff166380f556056040518163ffffffff1660e01b815260040160206040518083038186803b158015611a815760006000fd5b505afa158015611a96573d600060003e3d6000fd5b505050506040513d601f19601f82011682018060405250810190611aba9190616d8d565b73ffffffffffffffffffffffffffffffffffffffff163373ffffffffffffffffffffffffffffffffffffffff1614613e5763ffffffff16565b611b4c611b3f82600b60005060010160009054906101000a90046fffffffffffffffffffffffffffffffff166fffffffffffffffffffffffffffffffff16613e9d90919063ffffffff16565b614210909063ffffffff16565b600b60005060010160006101000a8154816fffffffffffffffffffffffffffffffff02191690836fffffffffffffffffffffffffffffffff1602179055505b611b99613f2663ffffffff16565b5b50565b611bab613dfc63ffffffff16565b611c89600060009054906101000a900473ffffffffffffffffffffffffffffffffffffffff1673ffffffffffffffffffffffffffffffffffffffff166380f556056040518163ffffffff1660e01b815260040160206040518083038186803b158015611c175760006000fd5b505afa158015611c2c573d600060003e3d6000fd5b505050506040513d601f19601f82011682018060405250810190611c509190616d8d565b73ffffffffffffffffffffffffffffffffffffffff163373ffffffffffffffffffffffffffffffffffffffff1614613e5763ffffffff16565b611ca181600a60005054613e9d90919063ffffffff16565b600a6000508190909055505b611cbb613f2663ffffffff16565b5b50565b611ccd6139cb63ffffffff16565b6000600090505b8151811015611d44576001601360005060008484815181101515611cf457fe5b602002602001015163ffffffff168152602001908152602001600020600050600001601c6101000a81548160ff02191690836002811115611d3157fe5b02179055505b8080600101915050611cd4565b507f2e54370527117fb69828eac075cb3ed33fe59712134dfd3ef6efc9bd8b60c1ec81604051611d7491906178b4565b60405180910390a15b5b50565b611d8f6139cb63ffffffff16565b6000600860006101000a81548160ff0219169083151502179055507f262b602ad12e3e551a407d5246b500f4ca5a01cc76bbf03e925db643a62a692f60405160405180910390a15b5b565b60c881565b611de7616732565b600e60005060008361ffff1661ffff168152602001908152602001600020600050604051806040016040529081600082016000505481526020016001820160005054815260200150509050611e37565b919050565b611e4a613dfc63ffffffff16565b611f28600060009054906101000a900473ffffffffffffffffffffffffffffffffffffffff1673ffffffffffffffffffffffffffffffffffffffff16639ec5a8946040518163ffffffff1660e01b815260040160206040518083038186803b158015611eb65760006000fd5b505afa158015611ecb573d600060003e3d6000fd5b505050506040513d601f19601f82011682018060405250810190611eef9190616ddb565b73ffffffffffffffffffffffffffffffffffffffff163373ffffffffffffffffffffffffffffffffffffffff1614613e5763ffffffff16565b611f8081601060005060008573ffffffffffffffffffffffffffffffffffffffff1673ffffffffffffffffffffffffffffffffffffffff1681526020019081526020016000206000505461455190919063ffffffff16565b601060005060008473ffffffffffffffffffffffffffffffffffffffff1673ffffffffffffffffffffffffffffffffffffffff1681526020019081526020016000206000508190909055505b611fda613f2663ffffffff16565b5b5050565b611fed613dfc63ffffffff16565b611ffb6144c163ffffffff16565b600860009054906101000a900460ff168015612022575060008267ffffffffffffffff1614155b1561203c5761203782826145da63ffffffff16565b905080505b60008160200151148015612054575060008160400151145b156121b557600760005060008367ffffffffffffffff1667ffffffffffffffff168152602001908152602001600020600060008201600050600090556001820160006101000a8154906fffffffffffffffffffffffffffffffff02191690556001820160106101000a8154906fffffffffffffffffffffffffffffffff02191690556002820160006101000a8154906fffffffffffffffffffffffffffffffff02191690556002820160106101000a8154906fffffffffffffffffffffffffffffffff02191690556003820160006101000a81549067ffffffffffffffff02191690556003820160086101000a81549067ffffffffffffffff02191690556003820160106101000a81549062ffffff02191690556003820160136101000a81549060ff02191690556003820160146101000a81549067ffffffffffffffff021916905560038201601c6101000a81549063ffffffff021916905550506121c6565b6121c5828261499563ffffffff16565b5b5b6121d5613f2663ffffffff16565b5b5050565b6060815167ffffffffffffffff811180156121f55760006000fd5b506040519080825280602002602001820160405280156122245781602001602082028036833780820191505090505b509050805060006000600b60005060010160109054906101000a90046fffffffffffffffffffffffffffffffff166fffffffffffffffffffffffffffffffff1690506000600090505b84518110156123a65760076000506000868381518110151561228b57fe5b602002602001015167ffffffffffffffff1667ffffffffffffffff16815260200190815260200160002060005092508250612379612338838560020160009054906101000a90046fffffffffffffffffffffffffffffffff166fffffffffffffffffffffffffffffffff168660010160109054906101000a90046fffffffffffffffffffffffffffffffff166fffffffffffffffffffffffffffffffff16614d039092919063ffffffff16565b8460010160009054906101000a90046fffffffffffffffffffffffffffffffff166fffffffffffffffffffffffffffffffff16614e0490919063ffffffff16565b848281518110151561238757fe5b60200260200101909081815260200150505b808060010191505061226d565b5050505b919050565b6123bd6139cb63ffffffff16565b6000600860016101000a81548160ff0219169083151502179055507fc4f6661464541d662c51191d4da5a7a1cc8bca2631698fd030e21b52520a549c60405160405180910390a15b5b565b612416613dfc63ffffffff16565b6124246144c163ffffffff16565b8173ffffffffffffffffffffffffffffffffffffffff166108fc829081150290604051600060405180830381858888f1935050505015801561246b573d600060003e3d6000fd5b505b61247b613f2663ffffffff16565b5b5050565b60006000600760005060008467ffffffffffffffff1667ffffffffffffffff16815260200190815260200160002060005060010160109054906101000a90046fffffffffffffffffffffffffffffffff166fffffffffffffffffffffffffffffffff1691508150600760005060008467ffffffffffffffff1667ffffffffffffffff16815260200190815260200160002060005060010160009054906101000a90046fffffffffffffffffffffffffffffffff166fffffffffffffffffffffffffffffffff16905080506000600760005060008567ffffffffffffffff1667ffffffffffffffff16815260200190815260200160002060005060020160009054906101000a90046fffffffffffffffffffffffffffffffff166fffffffffffffffffffffffffffffffff1690506000600b60005060010160109054906101000a90046fffffffffffffffffffffffffffffffff166fffffffffffffffffffffffffffffffff169050808214151561260b57612606818386614d039092919063ffffffff16565b935083505b50505b915091565b600860019054906101000a900460ff16151561262e5761271d565b61270c600060009054906101000a900473ffffffffffffffffffffffffffffffffffffffff1673ffffffffffffffffffffffffffffffffffffffff16639ec5a8946040518163ffffffff1660e01b815260040160206040518083038186803b15801561269a5760006000fd5b505afa1580156126af573d600060003e3d6000fd5b505050506040513d601f19601f820116820180604052508101906126d39190616ddb565b73ffffffffffffffffffffffffffffffffffffffff163373ffffffffffffffffffffffffffffffffffffffff1614613e5763ffffffff16565b61271c8282614e2a63ffffffff16565b5b5050565b600060149054906101000a900460ff1681565b612742613dfc63ffffffff16565b612820600060009054906101000a900473ffffffffffffffffffffffffffffffffffffffff1673ffffffffffffffffffffffffffffffffffffffff166380f556056040518163ffffffff1660e01b815260040160206040518083038186803b1580156127ae5760006000fd5b505afa1580156127c3573d600060003e3d6000fd5b505050506040513d601f19601f820116820180604052508101906127e79190616d8d565b73ffffffffffffffffffffffffffffffffffffffff163373ffffffffffffffffffffffffffffffffffffffff1614613e5763ffffffff16565b61282f81614e9763ffffffff16565b5b61283e613f2663ffffffff16565b5b50565b600a6000505481565b612859613dfc63ffffffff16565b612937600060009054906101000a900473ffffffffffffffffffffffffffffffffffffffff1673ffffffffffffffffffffffffffffffffffffffff16639ec5a8946040518163ffffffff1660e01b815260040160206040518083038186803b1580156128c55760006000fd5b505afa1580156128da573d600060003e3d6000fd5b505050506040513d601f19601f820116820180604052508101906128fe9190616ddb565b73ffffffffffffffffffffffffffffffffffffffff163373ffffffffffffffffffffffffffffffffffffffff1614613e5763ffffffff16565b612947828261500963ffffffff16565b5b612956613f2663ffffffff16565b5b5050565b600f6000506020528060005260406000206000915090508060000160009054906101000a900473ffffffffffffffffffffffffffffffffffffffff16908060000160149054906101000a900461ffff16908060000160169054906101000a900463ffffffff16908060010160005054908060020160009054906101000a900475ffffffffffffffffffffffffffffffffffffffffffff16908060020160169054906101000a900464ffffffffff169080600201601b9054906101000a900464ffffffffff16905087565b60106000506020528060005260406000206000915090505481565b612a4e6139cb63ffffffff16565b612a5d8161523a63ffffffff16565b5b5b50565b612a70613dfc63ffffffff16565b612b4e600060009054906101000a900473ffffffffffffffffffffffffffffffffffffffff1673ffffffffffffffffffffffffffffffffffffffff166380f556056040518163ffffffff1660e01b815260040160206040518083038186803b158015612adc5760006000fd5b505afa158015612af1573d600060003e3d6000fd5b505050506040513d601f19601f82011682018060405250810190612b159190616d8d565b73ffffffffffffffffffffffffffffffffffffffff163373ffffffffffffffffffffffffffffffffffffffff1614613e5763ffffffff16565b612b6681600a6000505461455190919063ffffffff16565b600a600050819090905550612ba4600360009054906101000a900473ffffffffffffffffffffffffffffffffffffffff1683836152ce63ffffffff16565b5b612bb3613f2663ffffffff16565b5b5050565b6060612c0f601160005060008473ffffffffffffffffffffffffffffffffffffffff1673ffffffffffffffffffffffffffffffffffffffff1681526020019081526020016000206000506154da909063ffffffff16565b9050612c16565b919050565b612c29613dfc63ffffffff16565b612d41600360009054906101000a900473ffffffffffffffffffffffffffffffffffffffff16600360009054906101000a900473ffffffffffffffffffffffffffffffffffffffff16612d36600a60005054600360009054906101000a900473ffffffffffffffffffffffffffffffffffffffff1673ffffffffffffffffffffffffffffffffffffffff166370a08231306040518263ffffffff1660e01b8152600401612cd691906175e0565b60206040518083038186803b158015612cef5760006000fd5b505afa158015612d04573d600060003e3d6000fd5b505050506040513d601f19601f82011682018060405250810190612d289190616fea565b61455190919063ffffffff16565b6152ce63ffffffff16565b5b612d50613f2663ffffffff16565b5b565b60608163ffffffff168363ffffffff16101515612d705760006000fd5b82820363ffffffff1667ffffffffffffffff81118015612d905760006000fd5b50604051908082528060200260200182016040528015612dca57816020015b612db761674f565b815260200190600190039081612daf5790505b509050805060005b8263ffffffff168463ffffffff161015612fba57601360005060008580600101965063ffffffff1681526020019081526020016000206000506040518060a00160405290816000820160009054906101000a900473ffffffffffffffffffffffffffffffffffffffff1673ffffffffffffffffffffffffffffffffffffffff1673ffffffffffffffffffffffffffffffffffffffff1681526020016000820160149054906101000a900467ffffffffffffffff1667ffffffffffffffff1667ffffffffffffffff16815260200160008201601c9054906101000a900460ff166002811115612ebc57fe5b6002811115612ec757fe5b815260200160008201601d9054906101000a900462ffffff1662ffffff1662ffffff168152602001600182016000508054600181600116156101000203166002900480601f016020809104026020016040519081016040528092919081815260200182805460018160011615610100020316600290048015612f8a5780601f10612f5f57610100808354040283529160200191612f8a565b820191906000526020600020905b815481529060010190602001808311612f6d57829003601f168201915b5050505050815260200150508282806001019350815181101515612faa57fe5b6020026020010181905250612dd2565b505b92915050565b606060096000506000612fdc8460c861316563ffffffff16565b60020b60020b815260200190815260200160002060005080548060200260200160405190810160405280929190818152602001828054801561307157602002820191906000526020600020906000905b82829054906101000a900467ffffffffffffffff1667ffffffffffffffff168152602001906008019060208260070104928301926001038202915080841161302c5790505b5050505050905061307d565b919050565b600060008314806130935750600082145b156130a357627fffff9050613139565b60006130e06130d5846130c7670de0b6b3a76400008861558090919063ffffffff16565b614e0490919063ffffffff16565b61561e63ffffffff16565b905061313061312361311861310b6c010000000000000000000000008561569190919063ffffffff16565b6156b7909063ffffffff16565b61575563ffffffff16565b60c861316563ffffffff16565b91505061313956505b92915050565b600160009054906101000a900473ffffffffffffffffffffffffffffffffffffffff1681565b600060008360020b905060008360020b8281151561317f57fe5b07905060008114156131955784925050506131d0565b6000600083136131ac578460020b828403036131b0565b8183035b90506131c381615b69909063ffffffff16565b93505050506131d0565050505b92915050565b60006131e6613dfc63ffffffff16565b6703782dace9d9000067ffffffffffffffff168467ffffffffffffffff1611151515613247576040517f08c379a000000000000000000000000000000000000000000000000000000000815260040161323e90617ae1565b60405180910390fd5b63ffffffff63ffffffff16601260009054906101000a900463ffffffff1663ffffffff161015156132785760006000fd5b60006012600081819054906101000a900463ffffffff168092919060010191906101000a81548163ffffffff021916908363ffffffff16021790555090506040518060a001604052803373ffffffffffffffffffffffffffffffffffffffff1681526020018667ffffffffffffffff168152602001600060028111156132fa57fe5b81526020018562ffffff16815260200184815260200150601360005060008363ffffffff16815260200190815260200160002060005060008201518160000160006101000a81548173ffffffffffffffffffffffffffffffffffffffff021916908373ffffffffffffffffffffffffffffffffffffffff16021790555060208201518160000160146101000a81548167ffffffffffffffff021916908367ffffffffffffffff160217905550604082015181600001601c6101000a81548160ff021916908360028111156133ca57fe5b0217905550606082015181600001601d6101000a81548162ffffff021916908362ffffff16021790555060808201518160010160005090805190602001906134139291906167b1565b509050508091505061342156505b61342f613f2663ffffffff16565b5b9392505050565b601260009054906101000a900463ffffffff1681565b613455616844565b61346482615c2163ffffffff16565b905080506000816020015161ffff161115156134b5576040517f08c379a00000000000000000000000000000000000000000000000000000000081526004016134ac90617a63565b60405180910390fd5b600081610120015163ffffffff1611156135ac576013600050600082610120015163ffffffff16815260200190815260200160002060005060000160149054906101000a900467ffffffffffffffff1681610160019067ffffffffffffffff16908167ffffffffffffffff16815260200150506013600050600082610120015163ffffffff16815260200190815260200160002060005060000160009054906101000a900473ffffffffffffffffffffffffffffffffffffffff1681610140019073ffffffffffffffffffffffffffffffffffffffff16908173ffffffffffffffffffffffffffffffffffffffff16815260200150505b7f000000000000000000000000000000000000000000000000000000000000000073ffffffffffffffffffffffffffffffffffffffff166399fbab88836040518263ffffffff1660e01b81526004016136059190617d25565b6101806040518083038186803b15801561361f5760006000fd5b505afa158015613634573d600060003e3d6000fd5b505050506040513d601f19601f8201168201806040525081019061365891906173ce565b909192939495969798999a509091929394959697989950909192939495969798509091929394959697509091929394959650909192509091509050508360e00184610100018560a0018390906fffffffffffffffffffffffffffffffff166fffffffffffffffffffffffffffffffff1681526020015083909060020b60020b81526020015083909060020b60020b8152602001505050505b919050565b613703613dfc63ffffffff16565b6137e1600060009054906101000a900473ffffffffffffffffffffffffffffffffffffffff1673ffffffffffffffffffffffffffffffffffffffff16639ec5a8946040518163ffffffff1660e01b815260040160206040518083038186803b15801561376f5760006000fd5b505afa158015613784573d600060003e3d6000fd5b505050506040513d601f19601f820116820180604052508101906137a89190616ddb565b73ffffffffffffffffffffffffffffffffffffffff163373ffffffffffffffffffffffffffffffffffffffff1614613e5763ffffffff16565b80600e60005060008461ffff1661ffff1681526020019081526020016000206000506000820151816000016000509090556020820151816001016000509090559050505b613833613f2663ffffffff16565b5b5050565b600860019054906101000a900460ff1681565b613853616653565b6000600b600050604051806080016040529081600082016000505481526020016001820160009054906101000a90046fffffffffffffffffffffffffffffffff166fffffffffffffffffffffffffffffffff166fffffffffffffffffffffffffffffffff1681526020016001820160109054906101000a90046fffffffffffffffffffffffffffffffff166fffffffffffffffffffffffffffffffff166fffffffffffffffffffffffffffffffff1681526020016002820160009054906101000a90046fffffffffffffffffffffffffffffffff166fffffffffffffffffffffffffffffffff166fffffffffffffffffffffffffffffffff16815260200150509050604051806080016040528082602001516fffffffffffffffffffffffffffffffff16815260200182606001516fffffffffffffffffffffffffffffffff1681526020018260000151815260200182604001516fffffffffffffffffffffffffffffffff168152602001509150506139c856505b90565b600060009054906101000a900473ffffffffffffffffffffffffffffffffffffffff1673ffffffffffffffffffffffffffffffffffffffff163373ffffffffffffffffffffffffffffffffffffffff16141515613a5d576040517f08c379a0000000000000000000000000000000000000000000000000000000008152600401613a5490617a24565b60405180910390fd5b5b565b613a6861667e565b6000600760005060008467ffffffffffffffff1667ffffffffffffffff16815260200190815260200160002060005060405180610160016040529081600082016000505481526020016001820160009054906101000a90046fffffffffffffffffffffffffffffffff166fffffffffffffffffffffffffffffffff166fffffffffffffffffffffffffffffffff1681526020016001820160109054906101000a90046fffffffffffffffffffffffffffffffff166fffffffffffffffffffffffffffffffff166fffffffffffffffffffffffffffffffff1681526020016002820160009054906101000a90046fffffffffffffffffffffffffffffffff166fffffffffffffffffffffffffffffffff166fffffffffffffffffffffffffffffffff1681526020016002820160109054906101000a90046fffffffffffffffffffffffffffffffff166fffffffffffffffffffffffffffffffff166fffffffffffffffffffffffffffffffff1681526020016003820160009054906101000a900467ffffffffffffffff1667ffffffffffffffff1667ffffffffffffffff1681526020016003820160089054906101000a900467ffffffffffffffff1667ffffffffffffffff1667ffffffffffffffff1681526020016003820160109054906101000a900460020b60020b60020b81526020016003820160139054906101000a900460ff161515151581526020016003820160149054906101000a900467ffffffffffffffff1667ffffffffffffffff1667ffffffffffffffff16815260200160038201601c9054906101000a900463ffffffff1663ffffffff1663ffffffff16815260200150509050604051806101a001604052808260000151815260200182602001516fffffffffffffffffffffffffffffffff16815260200182604001516fffffffffffffffffffffffffffffffff16815260200182606001516fffffffffffffffffffffffffffffffff16815260200182608001516fffffffffffffffffffffffffffffffff1681526020018260a0015167ffffffffffffffff1681526020018260c0015167ffffffffffffffff1681526020018260e0015160020b81526020018261010001511515815260200182610120015167ffffffffffffffff16815260200182610140015163ffffffff168152602001600073ffffffffffffffffffffffffffffffffffffffff168152602001600067ffffffffffffffff16815260200150915050613df756505b919050565b600260066000505414151515613e47576040517f08c379a0000000000000000000000000000000000000000000000000000000008152600401613e3e906179e5565b60405180910390fd5b600260066000508190909055505b565b801515613e99576040517f08c379a0000000000000000000000000000000000000000000000000000000008152600401613e9090617a24565b60405180910390fd5b5b50565b60008282840191508110151515613f1f576040517f08c379a000000000000000000000000000000000000000000000000000000000815260040180806020018281038252600c8152602001807f6164642d6f766572666c6f77000000000000000000000000000000000000000081526020015060200191505060405180910390fd5b5b92915050565b600160066000508190909055505b565b613f4f670de0b6b3a7640000614210909063ffffffff16565b600b60005060010160106101000a8154816fffffffffffffffffffffffffffffffff02191690836fffffffffffffffffffffffffffffffff16021790555061403d600060009054906101000a900473ffffffffffffffffffffffffffffffffffffffff1673ffffffffffffffffffffffffffffffffffffffff16639ec5a8946040518163ffffffff1660e01b815260040160206040518083038186803b158015613ff95760006000fd5b505afa15801561400e573d600060003e3d6000fd5b505050506040513d601f19601f820116820180604052508101906140329190616ddb565b61523a63ffffffff16565b60016005600050600063461054a360e01b7bffffffffffffffffffffffffffffffffffffffffffffffffffffffff19167bffffffffffffffffffffffffffffffffffffffffffffffffffffffff1916815260200190815260200160002060006101000a81548160ff02191690831515021790555060016005600050600063602db56b60e01b7bffffffffffffffffffffffffffffffffffffffffffffffffffffffff19167bffffffffffffffffffffffffffffffffffffffffffffffffffffffff1916815260200190815260200160002060006101000a81548160ff02191690831515021790555060016005600050600063397d359260e01b7bffffffffffffffffffffffffffffffffffffffffffffffffffffffff19167bffffffffffffffffffffffffffffffffffffffffffffffffffffffff1916815260200190815260200160002060006101000a81548160ff021916908315150217905550600160056000506000630b218d2460e01b7bffffffffffffffffffffffffffffffffffffffffffffffffffffffff19167bffffffffffffffffffffffffffffffffffffffffffffffffffffffff1916815260200190815260200160002060006101000a81548160ff0219169083151502179055505b565b60007001000000000000000000000000000000008210151561429d576040517f08c379a00000000000000000000000000000000000000000000000000000000081526004018080602001828103825260128152602001807f6d6f7265207468616e203132382062697473000000000000000000000000000081526020015060200191505060405180910390fd5b8190506142a5565b919050565b60006000836001016000506000846fffffffffffffffffffffffffffffffff166fffffffffffffffffffffffffffffffff1681526020019081526020016000206000505490506000811415156144af5760006001820390506000600186600001600050805490500390506000866000016000508281548110151561432a57fe5b90600052602060002090600291828204019190066010025b9054906101000a90046fffffffffffffffffffffffffffffffff16905080876000016000508481548110151561437457fe5b90600052602060002090600291828204019190066010025b6101000a8154816fffffffffffffffffffffffffffffffff02191690836fffffffffffffffffffffffffffffffff16021790555060018301876001016000506000836fffffffffffffffffffffffffffffffff166fffffffffffffffffffffffffffffffff16815260200190815260200160002060005081909090555086600001600050805480151561441b57fe5b60019003818190600052602060002090600291828204019190066010025b6101000a8154906fffffffffffffffffffffffffffffffff02191690559055866001016000506000876fffffffffffffffffffffffffffffffff166fffffffffffffffffffffffffffffffff1681526020019081526020016000206000506000905560019450505050506144bb565050506144b9565b60009150506144bb565b505b92915050565b600060009054906101000a900473ffffffffffffffffffffffffffffffffffffffff1673ffffffffffffffffffffffffffffffffffffffff16637c114fed336040518263ffffffff1660e01b815260040161451c91906175e0565b60006040518083038186803b1580156145355760006000fd5b505afa15801561454a573d600060003e3d6000fd5b505050505b565b600082828403915081111515156145d3576040517f08c379a000000000000000000000000000000000000000000000000000000000815260040180806020018281038252600d8152602001807f7375622d756e646572666c6f770000000000000000000000000000000000000081526020015060200191505060405180910390fd5b5b92915050565b6145e261667e565b6000600760005060008567ffffffffffffffff1667ffffffffffffffff16815260200190815260200160002060005060030160139054906101000a900460ff16905060008161463457627fffff614673565b600760005060008667ffffffffffffffff1667ffffffffffffffff16815260200190815260200160002060005060030160109054906101000a900460020b5b90506000600760005060008767ffffffffffffffff1667ffffffffffffffff16815260200190815260200160002060005060030160149054906101000a900467ffffffffffffffff16905060006146d88660200151876040015161308263ffffffff16565b90508060020b8360020b14151561497f57808660e0019060020b908160020b815260200150506000627fffff60020b8460020b12156148a557600960005060008560020b60020b815260200190815260200160002060005090508050600061474e6001838054905003615eb7909063ffffffff16565b90508067ffffffffffffffff168467ffffffffffffffff16141515614862576000828267ffffffffffffffff1681548110151561478757fe5b90600052602060002090600491828204019190066008025b9054906101000a900467ffffffffffffffff16905080838667ffffffffffffffff168154811015156147cd57fe5b90600052602060002090600491828204019190066008025b6101000a81548167ffffffffffffffff021916908367ffffffffffffffff16021790555084600760005060008367ffffffffffffffff1667ffffffffffffffff16815260200190815260200160002060005060030160146101000a81548167ffffffffffffffff021916908367ffffffffffffffff160217905550505b81805480151561486e57fe5b60019003818190600052602060002090600491828204019190066008025b6101000a81549067ffffffffffffffff02191690559055505b627fffff60020b8260020b121561497d57600960005060008360020b60020b8152602001908152602001600020600050905080506148ee8180549050615eb7909063ffffffff16565b87610120019067ffffffffffffffff16908167ffffffffffffffff1681526020015050600187610100019015159081151581526020015050808890806001815401808255809150506001900390600052602060002090600491828204019190066008025b9091909190916101000a81548167ffffffffffffffff021916908367ffffffffffffffff1602179055505b505b8594505050505061498f56505050505b92915050565b604051806101600160405280826000015181526020016149c08360200151614210909063ffffffff16565b6fffffffffffffffffffffffffffffffff1681526020016149ec8360400151614210909063ffffffff16565b6fffffffffffffffffffffffffffffffff168152602001614a188360600151614210909063ffffffff16565b6fffffffffffffffffffffffffffffffff168152602001614a448360800151614210909063ffffffff16565b6fffffffffffffffffffffffffffffffff1681526020018260a0015167ffffffffffffffff1681526020018260c0015167ffffffffffffffff1681526020018260e0015160020b81526020018261010001511515815260200182610120015167ffffffffffffffff16815260200182610140015163ffffffff16815260200150600760005060008467ffffffffffffffff1667ffffffffffffffff16815260200190815260200160002060005060008201518160000160005090905560208201518160010160006101000a8154816fffffffffffffffffffffffffffffffff02191690836fffffffffffffffffffffffffffffffff16021790555060408201518160010160106101000a8154816fffffffffffffffffffffffffffffffff02191690836fffffffffffffffffffffffffffffffff16021790555060608201518160020160006101000a8154816fffffffffffffffffffffffffffffffff02191690836fffffffffffffffffffffffffffffffff16021790555060808201518160020160106101000a8154816fffffffffffffffffffffffffffffffff02191690836fffffffffffffffffffffffffffffffff16021790555060a08201518160030160006101000a81548167ffffffffffffffff021916908367ffffffffffffffff16021790555060c08201518160030160086101000a81548167ffffffffffffffff021916908367ffffffffffffffff16021790555060e08201518160030160106101000a81548162ffffff021916908360020b62ffffff1602179055506101008201518160030160136101000a81548160ff0219169083151502179055506101208201518160030160146101000a81548167ffffffffffffffff021916908367ffffffffffffffff16021790555061014082015181600301601c6101000a81548163ffffffff021916908363ffffffff1602179055509050505b5050565b6000600060006000198587098587029250828110838203039150506000811415614d4657600084111515614d375760006000fd5b83820492508292505050614dfd565b8084111515614d555760006000fd5b6000848688099050828111820391508083039250600085866000031690508086049550808404935060018182600003040190508083028417935083506000600287600302189050808702600203810290508050808702600203810290508050808702600203810290508050808702600203810290508050808702600203810290508050808702600203810290508050808502955085508595505050505050614dfd5650505050505b9392505050565b6000614e1f83670de0b6b3a764000084614d0363ffffffff16565b905080505b92915050565b614e91614e3e82614210909063ffffffff16565b601160005060008573ffffffffffffffffffffffffffffffffffffffff1673ffffffffffffffffffffffffffffffffffffffff168152602001908152602001600020600050615f4990919063ffffffff16565b505b5050565b604051806080016040528082604001518152602001614ec18360000151614210909063ffffffff16565b6fffffffffffffffffffffffffffffffff168152602001614eed8360600151614210909063ffffffff16565b6fffffffffffffffffffffffffffffffff168152602001614f198360200151614210909063ffffffff16565b6fffffffffffffffffffffffffffffffff16815260200150600b60005060008201518160000160005090905560208201518160010160006101000a8154816fffffffffffffffffffffffffffffffff02191690836fffffffffffffffffffffffffffffffff16021790555060408201518160010160106101000a8154816fffffffffffffffffffffffffffffffff02191690836fffffffffffffffffffffffffffffffff16021790555060608201518160020160006101000a8154816fffffffffffffffffffffffffffffffff02191690836fffffffffffffffffffffffffffffffff1602179055509050505b50565b6040518060e00160405280826000015173ffffffffffffffffffffffffffffffffffffffff168152602001826020015161ffff16815260200182610120015163ffffffff16815260200182604001518152602001615072836060015161603a909063ffffffff16565b75ffffffffffffffffffffffffffffffffffffffffffff1681526020016150ae8360c0015167ffffffffffffffff166160da909063ffffffff16565b64ffffffffff1681526020016150cf83608001516160da909063ffffffff16565b64ffffffffff16815260200150600f600050600084815260200190815260200160002060005060008201518160000160006101000a81548173ffffffffffffffffffffffffffffffffffffffff021916908373ffffffffffffffffffffffffffffffffffffffff16021790555060208201518160000160146101000a81548161ffff021916908361ffff16021790555060408201518160000160166101000a81548163ffffffff021916908363ffffffff16021790555060608201518160010160005090905560808201518160020160006101000a81548175ffffffffffffffffffffffffffffffffffffffffffff021916908375ffffffffffffffffffffffffffffffffffffffffffff16021790555060a08201518160020160166101000a81548164ffffffffff021916908364ffffffffff16021790555060c082015181600201601b6101000a81548164ffffffffff021916908364ffffffffff1602179055509050505b5050565b7f000000000000000000000000000000000000000000000000000000000000000073ffffffffffffffffffffffffffffffffffffffff1663a22cb4658260016040518363ffffffff1660e01b8152600401615296929190617608565b600060405180830381600087803b1580156152b15760006000fd5b505af11580156152c6573d600060003e3d6000fd5b505050505b50565b600060008473ffffffffffffffffffffffffffffffffffffffff1663a9059cbb60e01b8585604051602401808373ffffffffffffffffffffffffffffffffffffffff16815260200182815260200192505050604051602081830303815290604052907bffffffffffffffffffffffffffffffffffffffffffffffffffffffff19166020820180517bffffffffffffffffffffffffffffffffffffffffffffffffffffffff83818316178352505050506040518082805190602001908083835b6020831015156153b357805182525b60208201915060208101905060208303925061538d565b6001836020036101000a0380198251168184511680821785525050505050509050019150506000604051808303816000865af19150503d8060008114615415576040519150601f19603f3d011682016040523d82523d6000602084013e61541a565b606091505b509150915081801561545b575060008151148061545a57508080602001905160208110156154485760006000fd5b81019080805190602001909291905050505b5b15156154d2576040517f08c379a00000000000000000000000000000000000000000000000000000000081526004018080602001828103825260028152602001807f535400000000000000000000000000000000000000000000000000000000000081526020015060200191505060405180910390fd5b50505b505050565b60608160000160005080548060200260200160405190810160405280929190818152602001828054801561557157602002820191906000526020600020906000905b82829054906101000a90046fffffffffffffffffffffffffffffffff166fffffffffffffffffffffffffffffffff1681526020019060100190602082600f0104928301926001038202915080841161551c5790505b5050505050905080505b919050565b600060008214806155a05750828283850292508281151561559d57fe5b04145b1515615617576040517f08c379a000000000000000000000000000000000000000000000000000000000815260040180806020018281038252600c8152602001807f6d756c2d6f766572666c6f77000000000000000000000000000000000000000081526020015060200191505060405180910390fd5b5b92915050565b600060038211156156795781905080506000600160028481151561563e57fe5b040190505b81811015615673578091508150600281828581151561565e57fe5b040181151561566957fe5b0490508050615643565b5061568b565b60008214151561568a576001905080505b5b5b919050565b60006156ac8383670de0b6b3a7640000614d0363ffffffff16565b905080505b92915050565b60007401000000000000000000000000000000000000000082101515615748576040517f08c379a00000000000000000000000000000000000000000000000000000000081526004018080602001828103825260128152602001807f6d6f7265207468616e203136302062697473000000000000000000000000000081526020015060200191505060405180910390fd5b819050615750565b919050565b60006401000276a373ffffffffffffffffffffffffffffffffffffffff168273ffffffffffffffffffffffffffffffffffffffff16101580156157d7575073fffd8963efd1fc6a506488495d951d5263988d2673ffffffffffffffffffffffffffffffffffffffff168273ffffffffffffffffffffffffffffffffffffffff16105b151561584e576040517f08c379a00000000000000000000000000000000000000000000000000000000081526004018080602001828103825260018152602001807f520000000000000000000000000000000000000000000000000000000000000081526020015060200191505060405180910390fd5b600060208373ffffffffffffffffffffffffffffffffffffffff16901b905060008190506000600090506fffffffffffffffffffffffffffffffff821160071b808217915082811c92505067ffffffffffffffff821160061b808217915082811c92505063ffffffff821160051b808217915082811c92505061ffff821160041b808217915082811c92505060ff821160031b808217915082811c925050600f821160021b808217915082811c9250506003821160011b808217915082811c9250506001821180821791505060808110151561593457607f810383901c91508150615940565b80607f0383901b915081505b6000604060808303901b9050828302607f1c92508260801c80603f1b8217915083811c935050828302607f1c92508260801c80603e1b8217915083811c935050828302607f1c92508260801c80603d1b8217915083811c935050828302607f1c92508260801c80603c1b8217915083811c935050828302607f1c92508260801c80603b1b8217915083811c935050828302607f1c92508260801c80603a1b8217915083811c935050828302607f1c92508260801c8060391b8217915083811c935050828302607f1c92508260801c8060381b8217915083811c935050828302607f1c92508260801c8060371b8217915083811c935050828302607f1c92508260801c8060361b8217915083811c935050828302607f1c92508260801c8060351b8217915083811c935050828302607f1c92508260801c8060341b8217915083811c935050828302607f1c92508260801c8060331b8217915083811c935050828302607f1c92508260801c8060321b82179150506000693627a301d71055774c8582029050600060806f028f6481ab7f045a5af012a19d003aaa8303901d9050600060806fdb2df09e81959a81455e260799a0632f8401901d90508060020b8260020b14615b56578873ffffffffffffffffffffffffffffffffffffffff16615b2d8261616963ffffffff16565b73ffffffffffffffffffffffffffffffffffffffff161115615b4f5781615b51565b805b615b58565b815b97508750505050505050505b919050565b60007fffffffffffffffffffffffffffffffffffffffffffffffffffffffffff8000008212158015615b9d57506280000082125b1515615c14576040517f08c379a00000000000000000000000000000000000000000000000000000000081526004018080602001828103825260118152602001807f6d6f7265207468616e203234206269747300000000000000000000000000000081526020015060200191505060405180910390fd5b819050615c1c565b919050565b615c29616844565b6000600f60005060008481526020019081526020016000206000506040518060e00160405290816000820160009054906101000a900473ffffffffffffffffffffffffffffffffffffffff1673ffffffffffffffffffffffffffffffffffffffff1673ffffffffffffffffffffffffffffffffffffffff1681526020016000820160149054906101000a900461ffff1661ffff1661ffff1681526020016000820160169054906101000a900463ffffffff1663ffffffff1663ffffffff168152602001600182016000505481526020016002820160009054906101000a900475ffffffffffffffffffffffffffffffffffffffffffff1675ffffffffffffffffffffffffffffffffffffffffffff1675ffffffffffffffffffffffffffffffffffffffffffff1681526020016002820160169054906101000a900464ffffffffff1664ffffffffff1664ffffffffff16815260200160028201601b9054906101000a900464ffffffffff1664ffffffffff1664ffffffffff16815260200150509050604051806101800160405280826000015173ffffffffffffffffffffffffffffffffffffffff168152602001826020015161ffff16815260200182606001518152602001826080015175ffffffffffffffffffffffffffffffffffffffffffff1681526020018260c0015164ffffffffff16815260200160006fffffffffffffffffffffffffffffffff1681526020018260a0015164ffffffffff1667ffffffffffffffff168152602001600060020b8152602001600060020b8152602001826040015163ffffffff168152602001600073ffffffffffffffffffffffffffffffffffffffff168152602001600067ffffffffffffffff16815260200150915050615eb256505b919050565b60006801000000000000000082101515615f3c576040517f08c379a00000000000000000000000000000000000000000000000000000000081526004018080602001828103825260118152602001807f6d6f7265207468616e203634206269747300000000000000000000000000000081526020015060200191505060405180910390fd5b819050615f44565b919050565b6000615f5b838361660063ffffffff16565b151561602a57826000016000508290806001815401808255809150506001900390600052602060002090600291828204019190066010025b9091909190916101000a8154816fffffffffffffffffffffffffffffffff02191690836fffffffffffffffffffffffffffffffff1602179055508260000160005080549050836001016000506000846fffffffffffffffffffffffffffffffff166fffffffffffffffffffffffffffffffff1681526020019081526020016000206000508190909055506001905061603456616033565b60009050616034565b5b92915050565b6000760100000000000000000000000000000000000000000000821015156160cd576040517f08c379a00000000000000000000000000000000000000000000000000000000081526004018080602001828103825260128152602001807f6d6f7265207468616e203137362062697473000000000000000000000000000081526020015060200191505060405180910390fd5b8190506160d5565b919050565b6000650100000000008210151561615c576040517f08c379a00000000000000000000000000000000000000000000000000000000081526004018080602001828103825260118152602001807f6d6f7265207468616e203430206269747300000000000000000000000000000081526020015060200191505060405180910390fd5b819050616164565b919050565b6000600060008360020b12616181578260020b616189565b8260020b6000035b90507ffffffffffffffffffffffffffffffffffffffffffffffffffffffffffff2761860000360020b811115151561622c576040517f08c379a00000000000000000000000000000000000000000000000000000000081526004018080602001828103825260018152602001807f540000000000000000000000000000000000000000000000000000000000000081526020015060200191505060405180910390fd5b6000600060018316141561625157700100000000000000000000000000000000616263565b6ffffcb933bd6fad37aa2d162d1a5940015b70ffffffffffffffffffffffffffffffffff1690506000600283161415156162a15760806ffff97272373d413259a46990580e213a8202901c905080505b6000600483161415156162ca5760806ffff2e50f5f656932ef12357cf3c7fdcc8202901c905080505b6000600883161415156162f35760806fffe5caca7e10e4e61c3624eaa0941cd08202901c905080505b60006010831614151561631c5760806fffcb9843d60f6159c9db58835c9266448202901c905080505b6000602083161415156163455760806fff973b41fa98c081472e6896dfb254c08202901c905080505b60006040831614151561636e5760806fff2ea16466c96a3843ec78b326b528618202901c905080505b6000608083161415156163975760806ffe5dee046a99a2a811c461f1969c30538202901c905080505b600061010083161415156163c15760806ffcbe86c7900a88aedcffc83b479aa3a48202901c905080505b600061020083161415156163eb5760806ff987a7253ac413176f2b074cf7815e548202901c905080505b600061040083161415156164155760806ff3392b0822b70005940c7a398e4b70f38202901c905080505b6000610800831614151561643f5760806fe7159475a2c29b7443b29c7fa6e889d98202901c905080505b600061100083161415156164695760806fd097f3bdfd2022b8845ad8f792aa58258202901c905080505b600061200083161415156164935760806fa9f746462d870fdf8a65dc1f90e061e58202901c905080505b600061400083161415156164bd5760806f70d869a156d2a1b890bb3df62baf32f78202901c905080505b600061800083161415156164e75760806f31be135f97d08fd981231505542fcfa68202901c905080505b60006201000083161415156165125760806f09aa508b5b7a84e1c677de54f3e99bc98202901c905080505b600062020000831614151561653c5760806e5d6af8dedb81196699c329225ee6048202901c905080505b60006204000083161415156165655760806d2216e584f5fa1ea926041bedfe988202901c905080505b600062080000831614151561658c5760806b048a170391f7dc42444e8fa28202901c905080505b60008460020b13156165c957807fffffffffffffffffffffffffffffffffffffffffffffffffffffffffffffffff8115156165c357fe5b04905080505b6000640100000000828115156165db57fe5b06146165e85760016165eb565b60005b60ff16602082901c019250825050505b919050565b60006000836001016000506000846fffffffffffffffffffffffffffffffff166fffffffffffffffffffffffffffffffff168152602001908152602001600020600050541415905061664d565b92915050565b6040518060800160405280600081526020016000815260200160008152602001600081526020015090565b604051806101a001604052806000815260200160008152602001600081526020016000815260200160008152602001600067ffffffffffffffff168152602001600067ffffffffffffffff168152602001600060020b8152602001600015158152602001600067ffffffffffffffff168152602001600063ffffffff168152602001600073ffffffffffffffffffffffffffffffffffffffff168152602001600067ffffffffffffffff1681526020015090565b604051806040016040528060008152602001600081526020015090565b6040518060a00160405280600073ffffffffffffffffffffffffffffffffffffffff168152602001600067ffffffffffffffff1681526020016000600281111561679557fe5b8152602001600062ffffff168152602001606081526020015090565b828054600181600116156101000203166002900490600052602060002090601f0160209004810192826167e75760008555616833565b82601f1061680057805160ff1916838001178555616833565b82800160010185558215616833579182015b828111156168325782518260005090905591602001919060010190616812565b5b509050616840919061690a565b5090565b604051806101800160405280600073ffffffffffffffffffffffffffffffffffffffff168152602001600061ffff16815260200160008152602001600081526020016000815260200160006fffffffffffffffffffffffffffffffff168152602001600067ffffffffffffffff168152602001600060020b8152602001600060020b8152602001600063ffffffff168152602001600073ffffffffffffffffffffffffffffffffffffffff168152602001600067ffffffffffffffff1681526020015090565b61690f565b80821115616929576000818150600090555060010161690f565b509056617e32565b60008135905061694081617db6565b5b919050565b60008151905061695581617db6565b5b919050565b600081359050801515811415156169725760006000fd5b5b919050565b60008135905061698781617ddf565b5b919050565b60008151905061699c81617ddf565b5b919050565b6000813590506169b181617df5565b5b919050565b6000815190506169c681617df5565b5b919050565b60008135905061ffff8116811415156169e55760006000fd5b5b919050565b6000815190506169fa81617e1a565b5b919050565b60008135905063ffffffff811681141515616a1b5760006000fd5b5b919050565b60008135905067ffffffffffffffff811681141515616a405760006000fd5b5b919050565b600060208284031215616a57578081fd5b8135616a6281617db6565b809150505b92915050565b6000600060408385031215616a80578081fd5b8235616a8b81617db6565b80925050602083013590505b9250929050565b6000600060006000600060808688031215616ab7578081fd5b8535616ac281617db6565b809550506020860135616ad481617db6565b8094505060408601359250606086013567ffffffffffffffff80821115616af9578283fd5b818801915088601f8301121515616b0e578283fd5b813581811115616b1c578384fd5b896020828501011115616b2d578384fd5b6020830194508093505050505b9295509295909350565b6000600060408385031215616b57578182fd5b8235616b6281617db6565b80925050602083013590505b9250929050565b60006020808385031215616b87578182fd5b823567ffffffffffffffff811115616b9d578283fd5b808401905084601f8201121515616bb2578283fd5b8035616bc5616bc082617d93565b617d68565b80828252848201915084840188868786028701011115616be3578687fd5b8694505b83851015616c1057616bf881616a00565b8352858301925085810190505b600185019450616be7565b5080955050505050505b92915050565b60006020808385031215616c32578182fd5b823567ffffffffffffffff811115616c48578283fd5b808401905084601f8201121515616c5d578283fd5b8035616c70616c6b82617d93565b617d68565b80828252848201915084840188868786028701011115616c8e578687fd5b8694505b83851015616cbb57616ca381616a21565b8352858301925085810190505b600185019450616c92565b5080955050505050505b92915050565b600060208284031215616cdc578081fd5b81357fffffffff00000000000000000000000000000000000000000000000000000000811681141515616d0d578182fd5b809150505b92915050565b600060208284031215616d29578081fd5b8151616d3481617db6565b809150505b92915050565b600060208284031215616d50578081fd5b8135616d5b81617db6565b809150505b92915050565b600060208284031215616d77578081fd5b8151616d8281617db6565b809150505b92915050565b600060208284031215616d9e578081fd5b8151616da981617db6565b809150505b92915050565b600060208284031215616dc5578081fd5b8151616dd081617db6565b809150505b92915050565b600060208284031215616dec578081fd5b8151616df781617db6565b809150505b92915050565b600060208284031215616e13578081fd5b8135616e1e81617db6565b809150505b92915050565b6000600060408385031215616e3c578182fd5b8235616e4781617db6565b80925050602083013590505b9250929050565b600060208284031215616e6b578081fd5b8135616e7681617ddf565b809150505b92915050565b6000600060408385031215616e94578182fd5b8235616e9f81617ddf565b809250506020830135616eb181617ddf565b809150505b9250929050565b600060808284031215616ece578081fd5b6040516080810181811067ffffffffffffffff82111715616eeb57fe5b806040525082358152602083013560208201526040830135604082015260608301356060820152809150505b92915050565b600060208284031215616f2e578081fd5b616f37826169cc565b90505b92915050565b600060008284036060811215616f54578283fd5b616f5d846169cc565b925060407fffffffffffffffffffffffffffffffffffffffffffffffffffffffffffffffe082011215616f8e578182fd5b506040516040810181811067ffffffffffffffff82111715616fac57fe5b80604052506020840135815260408401356020820152809150505b9250929050565b600060208284031215616fdf578081fd5b813590505b92915050565b600060208284031215616ffb578081fd5b815190505b92915050565b6000600060408385031215617019578182fd5b82359150602083013561702b81617db6565b809150505b9250929050565b600060008284036101a081121561704c578283fd5b83359250610180807fffffffffffffffffffffffffffffffffffffffffffffffffffffffffffffffe083011215617081578283fd5b61708a81617d68565b915061709860208601616931565b82526170a6604086016169cc565b6020830152606085013560408301526080850135606083015260a085013560808301526170d560c086016169a2565b60a08301526170e660e08601616a21565b60c08301526101006170f9818701616978565b60e084015261012061710c818801616978565b828501526101409150617120828801616a00565b8185015250610160617133818801616931565b82850152617142838801616a21565b81850152505050809150505b9250929050565b6000600060408385031215617168578182fd5b82359150602083013590505b9250929050565b600060006040838503121561718e578182fd5b61719783616a00565b91506171a560208401616a00565b90505b9250929050565b6000602082840312156171c0578081fd5b6171c982616a21565b90505b92915050565b600060008284036101c08112156171e7578283fd5b6171f084616a21565b92506101a0807fffffffffffffffffffffffffffffffffffffffffffffffffffffffffffffffe083011215617223578283fd5b61722c81617d68565b91506020850135825260408501356020830152606085013560408301526080850135606083015260a0850135608083015261726960c08601616a21565b60a083015261727a60e08601616a21565b60c083015261010061728d818701616978565b60e08401526101206172a081880161695b565b8285015261014091506172b4828801616a21565b81850152506101606172c7818801616a00565b8285015261018091506172db828801616931565b81850152506172eb828701616a21565b818401525050809150505b9250929050565b60006000600060608486031215617312578081fd5b61731b84616a21565b925060208085013561732c81617e1a565b80935050604085013567ffffffffffffffff8082111561734a578384fd5b818701915087601f830112151561735f578384fd5b81358181111561736b57fe5b61739b847fffffffffffffffffffffffffffffffffffffffffffffffffffffffffffffffe0601f84011601617d68565b915080825288848285010111156173b0578485fd5b808484018584013784848284010152508093505050505b9250925092565b6000600060006000600060006000600060006000600060006101808d8f0312156173f657898afd5b8c516bffffffffffffffffffffffff811681141515617413578a8bfd5b809c505061742360208e01616946565b9a5061743160408e01616946565b995061743f60608e01616946565b985061744d60808e016169eb565b975061745b60a08e0161698d565b965061746960c08e0161698d565b955061747760e08e016169b7565b94506101008d015193506101208d015192506174966101408e016169b7565b91506174a56101608e016169b7565b90505b9295989b509295989b509295989b565b73ffffffffffffffffffffffffffffffffffffffff811682525b5050565b80151582525b5050565b6003811015156174ec57fe5b8082525b5050565b8060020b82525b5050565b60008151808452815b8181101561752b576020808286010151818388010152505b602081019050617508565b8181111561753c5782602083870101525b5060207fffffffffffffffffffffffffffffffffffffffffffffffffffffffffffffffe0601f8301168501019150505b92915050565b6fffffffffffffffffffffffffffffffff811682525b5050565b61ffff811682525b5050565b63ffffffff811682525b5050565b67ffffffffffffffff811682525b5050565b600060208201905073ffffffffffffffffffffffffffffffffffffffff831682525b92915050565b600060208201905073ffffffffffffffffffffffffffffffffffffffff831682525b92915050565b600060408201905073ffffffffffffffffffffffffffffffffffffffff8416825282151560208301525b9392505050565b600060e08201905073ffffffffffffffffffffffffffffffffffffffff8916825261ffff8816602083015263ffffffff8716604083015285606083015275ffffffffffffffffffffffffffffffffffffffffffff8516608083015264ffffffffff80851660a084015280841660c0840152505b98975050505050505050565b600073ffffffffffffffffffffffffffffffffffffffff8716825267ffffffffffffffff861660208301526176f060408301866174e0565b62ffffff8416606083015260a0608083015261770f60a08301846174ff565b90505b9695505050505050565b6000602080830181845280855180835260409250828601915082848202870101848801865b838110156177f5577fffffffffffffffffffffffffffffffffffffffffffffffffffffffffffffffc0898403018552815160a073ffffffffffffffffffffffffffffffffffffffff825116855267ffffffffffffffff898301511689860152878201516177b0898701826174e0565b50606062ffffff8184015116818701525060808083015192508181870152506177db818601836174ff565b94505050868201915086850194505b600181019050617741565b505080955050505050505b92915050565b600060208083018184528085518083526040860191508387019250845b81811015617857576fffffffffffffffffffffffffffffffff8451168352848301925084840193505b600181019050617823565b50508093505050505b92915050565b600060208083018184528085518083526040860191508387019250845b818110156178a55783518352848301925084840193505b600181019050617883565b50508093505050505b92915050565b600060208083018184528085518083526040860191508387019250845b818110156178f95763ffffffff8451168352848301925084840193505b6001810190506178d1565b50508093505050505b92915050565b600060208083018184528085518083526040860191508387019250845b818110156179515767ffffffffffffffff8451168352848301925084840193505b600181019050617925565b50508093505050505b92915050565b600060208201905082151582525b92915050565b60006020820190507fffffffff00000000000000000000000000000000000000000000000000000000831682525b92915050565b600060208201905073ffffffffffffffffffffffffffffffffffffffff831682525b92915050565b60006020820190508260020b82525b92915050565b600060208252600d60208301527f4c43205265656e7472616e63790000000000000000000000000000000000000060408301526060820190505b919050565b600060208252600e60208301527f4e6f7420417574686f72697a656400000000000000000000000000000000000060408301526060820190505b919050565b600060208252600c60208301527f506f736974696f6e20444e45000000000000000000000000000000000000000060408301526060820190505b919050565b600060208252601d60208301527f446f6573206e6f7420616363657074204e465473206469726563746c7900000060408301526060820190505b919050565b600060208252601560208301527f4d6178206b69636b6261636b206578636565646564000000000000000000000060408301526060820190505b919050565b60006101a082019050825182526020830151602083015260408301516040830152606083015160608301526080830151608083015260a0830151617b6760a08401826175a6565b5060c0830151617b7a60c08401826175a6565b5060e0830151617b8d60e08401826174f4565b5061010080840151617ba1828501826174d6565b505061012080840151617bb6828501826175a6565b505061014080840151617bcb82850182617598565b505061016080840151617be0828501826174b8565b505061018080840151617bf5828501826175a6565b50505b92915050565b600061018082019050617c128284516174b8565b6020830151617c24602084018261758c565b5060408301516040830152606083015160608301526080830151608083015260a0830151617c5560a0840182617572565b5060c0830151617c6860c08401826175a6565b5060e0830151617c7b60e08401826174f4565b5061010080840151617c8f828501826174f4565b505061012080840151617ca482850182617598565b505061014080840151617cb9828501826174b8565b505061016080840151617cce828501826175a6565b50505b92915050565b600060408201905082518252602083015160208301525b92915050565b6000608082019050825182526020830151602083015260408301516040830152606083015160608301525b92915050565b60006020820190508282525b92915050565b60006040820190508382528260208301525b9392505050565b600060208201905063ffffffff831682525b92915050565b6000604051905081810181811067ffffffffffffffff82111715617d8857fe5b80604052505b919050565b600067ffffffffffffffff821115617da757fe5b6020602083020190505b919050565b73ffffffffffffffffffffffffffffffffffffffff811681141515617ddb5760006000fd5b5b50565b8060020b81141515617df15760006000fd5b5b50565b6fffffffffffffffffffffffffffffffff811681141515617e165760006000fd5b5b50565b62ffffff811681141515617e2e5760006000fd5b5b50565bfea2646970667358221220fe2097c528b52c21441aa41b08ee31fcd483f43fa7788da6374fedf13cbd8ac764736f6c63430007060033",
  "linkReferences": {},
  "deployedLinkReferences": {}
}