{
  "_format": "hh-sol-artifact-1",
  "contractName": "Market",
  "sourceName": "contracts/core/logic/Market.sol",
  "abi": [
    {
      "inputs": [],
      "stateMutability": "nonpayable",
      "type": "constructor"
    },
    {
      "anonymous": false,
      "inputs": [
        {
          "indexed": true,
          "internalType": "address",
          "name": "governor",
          "type": "address"
        }
      ],
      "name": "Initialized",
      "type": "event"
    },
    {
      "anonymous": false,
      "inputs": [
        {
          "indexed": true,
          "internalType": "uint64",
          "name": "period",
          "type": "uint64"
        },
        {
          "indexed": false,
          "internalType": "uint64",
          "name": "periods",
          "type": "uint64"
        },
        {
          "indexed": false,
          "internalType": "uint256",
          "name": "newDebt",
          "type": "uint256"
        },
        {
          "indexed": false,
          "internalType": "uint256",
          "name": "rewardCount",
          "type": "uint256"
        },
        {
          "indexed": false,
          "internalType": "uint256",
          "name": "cumulativeDebt",
          "type": "uint256"
        },
        {
          "indexed": false,
          "internalType": "uint256",
          "name": "debtExchangeRate",
          "type": "uint256"
        }
      ],
      "name": "InterestAccrued",
      "type": "event"
    },
    {
      "anonymous": false,
      "inputs": [
        {
          "indexed": true,
          "internalType": "address",
          "name": "creator",
          "type": "address"
        },
        {
          "indexed": true,
          "internalType": "uint64",
          "name": "positionID",
          "type": "uint64"
        }
      ],
      "name": "NewPositionCreated",
      "type": "event"
    },
    {
      "anonymous": false,
      "inputs": [
        {
          "indexed": true,
          "internalType": "string",
          "name": "paramName",
          "type": "string"
        },
        {
          "indexed": false,
          "internalType": "uint256",
          "name": "value",
          "type": "uint256"
        }
      ],
      "name": "ParameterUpdated",
      "type": "event"
    },
    {
      "anonymous": false,
      "inputs": [
        {
          "indexed": true,
          "internalType": "string",
          "name": "paramName",
          "type": "string"
        },
        {
          "indexed": false,
          "internalType": "uint64",
          "name": "value",
          "type": "uint64"
        }
      ],
      "name": "ParameterUpdated64",
      "type": "event"
    },
    {
      "anonymous": false,
      "inputs": [
        {
          "indexed": true,
          "internalType": "string",
          "name": "paramName",
          "type": "string"
        },
        {
          "indexed": false,
          "internalType": "address",
          "name": "value",
          "type": "address"
        }
      ],
      "name": "ParameterUpdatedAddress",
      "type": "event"
    },
    {
      "anonymous": false,
      "inputs": [
        {
          "indexed": true,
          "internalType": "uint64",
          "name": "positionID",
          "type": "uint64"
        },
        {
          "indexed": false,
          "internalType": "int256",
          "name": "debtChange",
          "type": "int256"
        },
        {
          "indexed": false,
          "internalType": "int256",
          "name": "collateralChange",
          "type": "int256"
        }
      ],
      "name": "PositionAdjusted",
      "type": "event"
    },
    {
      "anonymous": false,
      "inputs": [
        {
          "indexed": true,
          "internalType": "uint256",
          "name": "positionID",
          "type": "uint256"
        },
        {
          "indexed": true,
          "internalType": "uint64",
          "name": "period",
          "type": "uint64"
        },
        {
          "indexed": false,
          "internalType": "uint256",
          "name": "debtAfter",
          "type": "uint256"
        },
        {
          "indexed": false,
          "internalType": "uint256",
          "name": "tcpRewards",
          "type": "uint256"
        }
      ],
      "name": "PositionUpdated",
      "type": "event"
    },
    {
      "anonymous": false,
      "inputs": [],
      "name": "Stopped",
      "type": "event"
    },
    {
      "inputs": [],
      "name": "accrueInterest",
      "outputs": [],
      "stateMutability": "nonpayable",
      "type": "function"
    },
    {
      "inputs": [
        {
          "internalType": "contract IUniswapV3Pool",
          "name": "pool",
          "type": "address"
        }
      ],
      "name": "addReferencePool",
      "outputs": [],
      "stateMutability": "nonpayable",
      "type": "function"
    },
    {
      "inputs": [
        {
          "internalType": "uint64",
          "name": "positionID",
          "type": "uint64"
        },
        {
          "internalType": "uint256",
          "name": "collateralDecrease",
          "type": "uint256"
        }
      ],
      "name": "adjustGenesisPositionCollateral",
      "outputs": [],
      "stateMutability": "payable",
      "type": "function"
    },
    {
      "inputs": [
        {
          "internalType": "uint64",
          "name": "positionID",
          "type": "uint64"
        },
        {
          "internalType": "int256",
          "name": "debtChange",
          "type": "int256"
        },
        {
          "internalType": "uint256",
          "name": "collateralDecrease",
          "type": "uint256"
        }
      ],
      "name": "adjustPosition",
      "outputs": [],
      "stateMutability": "payable",
      "type": "function"
    },
    {
      "inputs": [
        {
          "internalType": "uint64",
          "name": "positionID",
          "type": "uint64"
        }
      ],
      "name": "claimRewards",
      "outputs": [],
      "stateMutability": "nonpayable",
      "type": "function"
    },
    {
      "inputs": [],
      "name": "collateralizationRequirement",
      "outputs": [
        {
          "internalType": "uint256",
          "name": "",
          "type": "uint256"
        }
      ],
      "stateMutability": "view",
      "type": "function"
    },
    {
      "inputs": [],
      "name": "completeSetup",
      "outputs": [],
      "stateMutability": "nonpayable",
      "type": "function"
    },
    {
      "inputs": [
        {
          "components": [
            {
              "internalType": "uint8",
              "name": "v",
              "type": "uint8"
            },
            {
              "internalType": "bytes32",
              "name": "r",
              "type": "bytes32"
            },
            {
              "internalType": "bytes32",
              "name": "s",
              "type": "bytes32"
            }
          ],
          "internalType": "struct IGovernor.GenesisAuth",
          "name": "ga",
          "type": "tuple"
        }
      ],
      "name": "createGenesisPosition",
      "outputs": [
        {
          "internalType": "uint64",
          "name": "positionID",
          "type": "uint64"
        }
      ],
      "stateMutability": "payable",
      "type": "function"
    },
    {
      "inputs": [
        {
          "internalType": "uint256",
          "name": "initialDebt",
          "type": "uint256"
        }
      ],
      "name": "createPosition",
      "outputs": [
        {
          "internalType": "uint64",
          "name": "positionID",
          "type": "uint64"
        }
      ],
      "stateMutability": "payable",
      "type": "function"
    },
    {
      "inputs": [],
      "name": "currentPeriod",
      "outputs": [
        {
          "internalType": "uint64",
          "name": "period",
          "type": "uint64"
        }
      ],
      "stateMutability": "view",
      "type": "function"
    },
    {
      "inputs": [],
      "name": "deployer",
      "outputs": [
        {
          "internalType": "address",
          "name": "",
          "type": "address"
        }
      ],
      "stateMutability": "view",
      "type": "function"
    },
    {
      "inputs": [],
      "name": "firstPeriod",
      "outputs": [
        {
          "internalType": "uint64",
          "name": "",
          "type": "uint64"
        }
      ],
      "stateMutability": "view",
      "type": "function"
    },
    {
      "inputs": [],
      "name": "governor",
      "outputs": [
        {
          "internalType": "contract IGovernor",
          "name": "",
          "type": "address"
        }
      ],
      "stateMutability": "view",
      "type": "function"
    },
    {
      "inputs": [
        {
          "internalType": "contract IGovernor",
          "name": "_governor",
          "type": "address"
        }
      ],
      "name": "init",
      "outputs": [],
      "stateMutability": "nonpayable",
      "type": "function"
    },
    {
      "inputs": [],
      "name": "interestPortionToLenders",
      "outputs": [
        {
          "internalType": "uint256",
          "name": "",
          "type": "uint256"
        }
      ],
      "stateMutability": "view",
      "type": "function"
    },
    {
      "inputs": [],
      "name": "lastPeriodGlobalInterestAccrued",
      "outputs": [
        {
          "internalType": "uint64",
          "name": "",
          "type": "uint64"
        }
      ],
      "stateMutability": "view",
      "type": "function"
    },
    {
      "inputs": [],
      "name": "minCollateralPoolLiquidity",
      "outputs": [
        {
          "internalType": "uint256",
          "name": "",
          "type": "uint256"
        }
      ],
      "stateMutability": "view",
      "type": "function"
    },
    {
      "inputs": [],
      "name": "minPositionSize",
      "outputs": [
        {
          "internalType": "uint256",
          "name": "",
          "type": "uint256"
        }
      ],
      "stateMutability": "view",
      "type": "function"
    },
    {
      "inputs": [],
      "name": "minTotalReferencePoolLiquidity",
      "outputs": [
        {
          "internalType": "uint256",
          "name": "",
          "type": "uint256"
        }
      ],
      "stateMutability": "view",
      "type": "function"
    },
    {
      "inputs": [],
      "name": "periodLength",
      "outputs": [
        {
          "internalType": "uint64",
          "name": "",
          "type": "uint64"
        }
      ],
      "stateMutability": "view",
      "type": "function"
    },
    {
      "inputs": [
        {
          "internalType": "uint256",
          "name": "",
          "type": "uint256"
        }
      ],
      "name": "referencePools",
      "outputs": [
        {
          "internalType": "contract IUniswapV3Pool",
          "name": "",
          "type": "address"
        }
      ],
      "stateMutability": "view",
      "type": "function"
    },
    {
      "inputs": [
        {
          "internalType": "uint64",
          "name": "positionID",
          "type": "uint64"
        }
      ],
      "name": "removeGenesisPosition",
      "outputs": [],
      "stateMutability": "nonpayable",
      "type": "function"
    },
    {
      "inputs": [
        {
          "internalType": "contract IUniswapV3Pool",
          "name": "pool",
          "type": "address"
        }
      ],
      "name": "removeReferencePool",
      "outputs": [],
      "stateMutability": "nonpayable",
      "type": "function"
    },
    {
      "inputs": [
        {
          "internalType": "uint256",
          "name": "requirement",
          "type": "uint256"
        }
      ],
      "name": "setCollateralizationRequirement",
      "outputs": [],
      "stateMutability": "nonpayable",
      "type": "function"
    },
    {
      "inputs": [
        {
          "internalType": "uint256",
          "name": "percentage",
          "type": "uint256"
        }
      ],
      "name": "setInterestPortionToLenders",
      "outputs": [],
      "stateMutability": "nonpayable",
      "type": "function"
    },
    {
      "inputs": [
        {
          "internalType": "uint256",
          "name": "min",
          "type": "uint256"
        }
      ],
      "name": "setMinCollateralPoolLiquidity",
      "outputs": [],
      "stateMutability": "nonpayable",
      "type": "function"
    },
    {
      "inputs": [
        {
          "internalType": "uint256",
          "name": "size",
          "type": "uint256"
        }
      ],
      "name": "setMinPositionSize",
      "outputs": [],
      "stateMutability": "nonpayable",
      "type": "function"
    },
    {
      "inputs": [
        {
          "internalType": "uint256",
          "name": "min",
          "type": "uint256"
        }
      ],
      "name": "setMinTotalReferencePoolLiquidity",
      "outputs": [],
      "stateMutability": "nonpayable",
      "type": "function"
    },
    {
      "inputs": [
        {
          "internalType": "uint32",
          "name": "duration",
          "type": "uint32"
        }
      ],
      "name": "setTwapDuration",
      "outputs": [],
      "stateMutability": "nonpayable",
      "type": "function"
    },
    {
      "inputs": [],
      "name": "stop",
      "outputs": [],
      "stateMutability": "nonpayable",
      "type": "function"
    },
    {
      "inputs": [],
      "name": "stopped",
      "outputs": [
        {
          "internalType": "bool",
          "name": "",
          "type": "bool"
        }
      ],
      "stateMutability": "view",
      "type": "function"
    },
    {
      "inputs": [
        {
          "internalType": "uint64",
          "name": "positionID",
          "type": "uint64"
        }
      ],
      "name": "systemGetUpdatedPosition",
      "outputs": [
        {
          "components": [
            {
              "internalType": "uint256",
              "name": "startCumulativeDebt",
              "type": "uint256"
            },
            {
              "internalType": "uint256",
              "name": "collateral",
              "type": "uint256"
            },
            {
              "internalType": "uint256",
              "name": "debt",
              "type": "uint256"
            },
            {
              "internalType": "uint256",
              "name": "startDebtExchangeRate",
              "type": "uint256"
            },
            {
              "internalType": "uint256",
              "name": "startTCPRewards",
              "type": "uint256"
            },
            {
              "internalType": "uint64",
              "name": "lastTimeUpdated",
              "type": "uint64"
            },
            {
              "internalType": "uint64",
              "name": "lastBorrowTime",
              "type": "uint64"
            },
            {
              "internalType": "int24",
              "name": "tick",
              "type": "int24"
            },
            {
              "internalType": "bool",
              "name": "tickSet",
              "type": "bool"
            },
            {
              "internalType": "uint64",
              "name": "tickIndex",
              "type": "uint64"
            }
          ],
          "internalType": "struct IAccounting.DebtPosition",
          "name": "",
          "type": "tuple"
        }
      ],
      "stateMutability": "nonpayable",
      "type": "function"
    },
    {
      "inputs": [],
      "name": "twapDuration",
      "outputs": [
        {
          "internalType": "uint32",
          "name": "",
          "type": "uint32"
        }
      ],
      "stateMutability": "view",
      "type": "function"
    },
    {
      "inputs": [
        {
          "internalType": "bytes4",
          "name": "",
          "type": "bytes4"
        }
      ],
      "name": "validUpdate",
      "outputs": [
        {
          "internalType": "bool",
          "name": "",
          "type": "bool"
        }
      ],
      "stateMutability": "view",
      "type": "function"
    }
  ],
  "bytecode": "0x60c0604052600160066000509090556702c68af0bb14000060076000509090556702c68af0bb14000060086000509090556714d1120d7b160000600960005090905568878678326eac900000600a6000509090556702c68af0bb140000600b600050909055610e10600c60146101000a81548163ffffffff021916908363ffffffff160217905550348015620000955760006000fd5b505b610e105b5b33600160006101000a81548173ffffffffffffffffffffffffffffffffffffffff021916908373ffffffffffffffffffffffffffffffffffffffff1602179055505b60018167ffffffffffffffff16620000fb6200015d60201b60201c565b67ffffffffffffffff168115156200010f57fe5b040367ffffffffffffffff1660a08167ffffffffffffffff1660c01b815260080150508067ffffffffffffffff1660808167ffffffffffffffff1660c01b815260080150505b505b62000213565b600062000177426200017f60201b6200250317909060201c565b905080505b90565b6000680100000000000000008210151562000205576040517f08c379a00000000000000000000000000000000000000000000000000000000081526004018080602001828103825260118152602001807f6d6f7265207468616e203634206269747300000000000000000000000000000081526020015060200191505060405180910390fd5b8190506200020e565b919050565b60805160c01c60a05160c01c616a456200025160003980611e915280612599528061488b525080611eb552806125ba52806148ac5250616a456000f3fe60806040526004361061021d5760003560e01c8063a76e2ca51161011d578063c4e3a63b116100b0578063e6e40afd1161007f578063ef5e1cac11610064578063ef5e1cac14610745578063f6979f291461076f578063fcd659451461079b5761021d565b8063e6e40afd146106dd578063eb6843ce146107075761021d565b8063c4e3a63b1461062f578063d2ca21151461065b578063d4477a3e14610687578063d5f39488146106b15761021d565b8063bccfa49e116100ec578063bccfa49e14610585578063c2765fd8146105af578063c381c1e6146105db578063c433c80a146106055761021d565b8063a76e2ca5146104d3578063ade89a64146104fd578063b6ae213a1461052d578063bb8313c2146105595761021d565b806353bb670c116101b057806375f12b211161017f57806384333cc71161016457806384333cc7146104655780638aea8f71146104a3578063a6afed95146104bb5761021d565b806375f12b211461040957806383730cc3146104355761021d565b806353bb670c1461037b5780635658c012146103975780635a6127a9146103c357806367fd3213146103ed5761021d565b8063113cf1ab116101ec578063113cf1ab146102bd578063150147d7146102fb57806319ab453c1461032557806326d895451461034f5761021d565b8063060406181461022357806306972dcd1461024f57806307da68f5146102795780630c340a24146102915761021d565b60006000fd5b3480156102305760006000fd5b506102396107c7565b6040516102469190616908565b60405180910390f35b34801561025c5760006000fd5b5061027760048036038101906102729190615dcf565b6107df565b005b3480156102865760006000fd5b5061028f610849565b005b34801561029e5760006000fd5b506102a7610869565b6040516102b49190616308565b60405180910390f35b3480156102ca5760006000fd5b506102e560048036038101906102e09190615ad3565b61088f565b6040516102f291906162f4565b60405180910390f35b3480156103085760006000fd5b50610323600480360381019061031e9190615c31565b6108b4565b005b3480156103325760006000fd5b5061034d60048036038101906103489190615b47565b6109d2565b005b34801561035c5760006000fd5b50610365610d90565b60405161037291906168d8565b60405180910390f35b61039560048036038101906103909190615e86565b610da6565b005b3480156103a45760006000fd5b506103ad61105d565b6040516103ba91906168ad565b60405180910390f35b3480156103d05760006000fd5b506103eb60048036038101906103e69190615dcf565b611066565b005b61040760048036038101906104029190615ec0565b6110ed565b005b3480156104165760006000fd5b5061041f6113a3565b60405161042c91906162f4565b60405180910390f35b61044f600480360381019061044a9190615dcf565b6113b6565b60405161045c9190616908565b60405180910390f35b3480156104725760006000fd5b5061048d60048036038101906104889190615dcf565b6114ef565b60405161049a9190616330565b60405180910390f35b3480156104b05760006000fd5b506104b9611535565b005b3480156104c85760006000fd5b506104d16116f7565b005b3480156104e05760006000fd5b506104fb60048036038101906104f69190615e38565b611725565b005b61051760048036038101906105129190615d54565b611969565b6040516105249190616908565b60405180910390f35b34801561053a5760006000fd5b50610543611c28565b6040516105509190616908565b60405180910390f35b3480156105665760006000fd5b5061056f611c42565b60405161057c91906168ad565b60405180910390f35b3480156105925760006000fd5b506105ad60048036038101906105a89190615dcf565b611c4b565b005b3480156105bc5760006000fd5b506105c5611cd1565b6040516105d291906168ad565b60405180910390f35b3480156105e85760006000fd5b5061060360048036038101906105fe9190615c31565b611cda565b005b3480156106125760006000fd5b5061062d60048036038101906106289190615e07565b611df8565b005b34801561063c5760006000fd5b50610645611e8f565b6040516106529190616908565b60405180910390f35b3480156106685760006000fd5b50610671611eb3565b60405161067e9190616908565b60405180910390f35b3480156106945760006000fd5b506106af60048036038101906106aa9190615dcf565b611ed7565b005b3480156106be5760006000fd5b506106c7611f5d565b6040516106d4919061615b565b60405180910390f35b3480156106ea5760006000fd5b5061070560048036038101906107009190615e38565b611f83565b005b3480156107145760006000fd5b5061072f600480360381019061072a9190615e38565b6122ea565b60405161073c9190616862565b60405180910390f35b3480156107525760006000fd5b5061076d60048036038101906107689190615dcf565b61246f565b005b34801561077c5760006000fd5b506107856124f1565b60405161079291906168ad565b60405180910390f35b3480156107a85760006000fd5b506107b16124fa565b6040516107be91906168ad565b60405180910390f35b60006107d761259563ffffffff16565b905080505b90565b6107ed61260e63ffffffff16565b80600a60005081909090555060405161080590615fd3565b60405180910390207f3a64504f0bc0c335e2aecb78638a257e0351a3fe0370861fd54ee4190b9209338260405161083c91906168ad565b60405180910390a25b5b50565b61085761260e63ffffffff16565b6108656126a363ffffffff16565b5b5b565b600060009054906101000a900473ffffffffffffffffffffffffffffffffffffffff1681565b600560005060205280600052604060002060009150909054906101000a900460ff1681565b6108c261260e63ffffffff16565b600060009054906101000a900473ffffffffffffffffffffffffffffffffffffffff1673ffffffffffffffffffffffffffffffffffffffff1663ab658be26040518163ffffffff1660e01b815260040160006040518083038186803b15801561092b5760006000fd5b505afa158015610940573d600060003e3d6000fd5b505050506040513d6000823e3d601f19601f8201168201806040525081019061096991906159f7565b600e6000509080519060200190610981929190615824565b5060405161098e906160c8565b60405180910390207f78caada2f560033c9479d8c5e33f045f2e611faebe6b6d8a73874c80ec2dd3a2826040516109c5919061615b565b60405180910390a25b5b50565b600160009054906101000a900473ffffffffffffffffffffffffffffffffffffffff1673ffffffffffffffffffffffffffffffffffffffff163373ffffffffffffffffffffffffffffffffffffffff16141515610a2f5760006000fd5b600160006101000a81549073ffffffffffffffffffffffffffffffffffffffff021916905580600060006101000a81548173ffffffffffffffffffffffffffffffffffffffff021916908373ffffffffffffffffffffffffffffffffffffffff160217905550600060009054906101000a900473ffffffffffffffffffffffffffffffffffffffff1673ffffffffffffffffffffffffffffffffffffffff16639624e83e6040518163ffffffff1660e01b815260040160206040518083038186803b158015610afe5760006000fd5b505afa158015610b13573d600060003e3d6000fd5b505050506040513d601f19601f82011682018060405250810190610b379190615b20565b600260006101000a81548173ffffffffffffffffffffffffffffffffffffffff021916908373ffffffffffffffffffffffffffffffffffffffff160217905550600060009054906101000a900473ffffffffffffffffffffffffffffffffffffffff1673ffffffffffffffffffffffffffffffffffffffff16638a15fcf36040518163ffffffff1660e01b815260040160206040518083038186803b158015610be05760006000fd5b505afa158015610bf5573d600060003e3d6000fd5b505050506040513d601f19601f82011682018060405250810190610c199190615c7f565b600360006101000a81548173ffffffffffffffffffffffffffffffffffffffff021916908373ffffffffffffffffffffffffffffffffffffffff160217905550600060009054906101000a900473ffffffffffffffffffffffffffffffffffffffff1673ffffffffffffffffffffffffffffffffffffffff1663d478b0876040518163ffffffff1660e01b815260040160206040518083038186803b158015610cc25760006000fd5b505afa158015610cd7573d600060003e3d6000fd5b505050506040513d601f19601f82011682018060405250810190610cfb9190615bbc565b600460006101000a81548173ffffffffffffffffffffffffffffffffffffffff021916908373ffffffffffffffffffffffffffffffffffffffff160217905550610d496126ed63ffffffff16565b8073ffffffffffffffffffffffffffffffffffffffff167f908408e307fc569b417f6cbec5d5a06f44a0a505ac0479b47d421a4b2fd6a1e660405160405180910390a25b50565b600c60149054906101000a900463ffffffff1681565b610db4612bda63ffffffff16565b610dc2612cb963ffffffff16565b6002600060009054906101000a900473ffffffffffffffffffffffffffffffffffffffff1673ffffffffffffffffffffffffffffffffffffffff1663055ad42e6040518163ffffffff1660e01b815260040160206040518083038186803b158015610e2d5760006000fd5b505afa158015610e42573d600060003e3d6000fd5b505050506040513d601f19601f82011682018060405250810190610e669190615ef1565b60ff168160ff1611151515610eb0576040517f08c379a0000000000000000000000000000000000000000000000000000000008152600401610ea790616766565b60405180910390fd5b610f6d600c60009054906101000a900473ffffffffffffffffffffffffffffffffffffffff1673ffffffffffffffffffffffffffffffffffffffff1663430c208133876040518363ffffffff1660e01b8152600401610f1092919061628c565b60206040518083038186803b158015610f295760006000fd5b505afa158015610f3e573d600060003e3d6000fd5b505050506040513d601f19601f82011682018060405250810190610f629190615ab0565b612df263ffffffff16565b6110456110378567ffffffffffffffff16600260009054906101000a900473ffffffffffffffffffffffffffffffffffffffff1673ffffffffffffffffffffffffffffffffffffffff16630f85fc5a886040518263ffffffff1660e01b8152600401610fd99190616908565b6101406040518083038186803b158015610ff35760006000fd5b505afa158015611008573d600060003e3d6000fd5b505050506040513d601f19601f8201168201806040525081019061102c9190615ca6565b612e3863ffffffff16565b8585856131c563ffffffff16565b5b5b505b611057613a0363ffffffff16565b5b505050565b60096000505481565b61107461260e63ffffffff16565b80600b600050819090905550670de0b6b3a7640000600b600050541115151561109d5760006000fd5b6040516110a9906160f9565b60405180910390207f3a64504f0bc0c335e2aecb78638a257e0351a3fe0370861fd54ee4190b920933826040516110e091906168ad565b60405180910390a25b5b50565b6110fb612bda63ffffffff16565b611109612cb963ffffffff16565b60028060ff16600060009054906101000a900473ffffffffffffffffffffffffffffffffffffffff1673ffffffffffffffffffffffffffffffffffffffff1663055ad42e6040518163ffffffff1660e01b815260040160206040518083038186803b1580156111785760006000fd5b505afa15801561118d573d600060003e3d6000fd5b505050506040513d601f19601f820116820180604052508101906111b19190615ef1565b60ff161015156111f6576040517f08c379a00000000000000000000000000000000000000000000000000000000081526004016111ed9061648b565b60405180910390fd5b6112b3600c60009054906101000a900473ffffffffffffffffffffffffffffffffffffffff1673ffffffffffffffffffffffffffffffffffffffff1663430c208133866040518363ffffffff1660e01b815260040161125692919061628c565b60206040518083038186803b15801561126f5760006000fd5b505afa158015611284573d600060003e3d6000fd5b505050506040513d601f19601f820116820180604052508101906112a89190615ab0565b612df263ffffffff16565b61138c61137d8467ffffffffffffffff16600260009054906101000a900473ffffffffffffffffffffffffffffffffffffffff1673ffffffffffffffffffffffffffffffffffffffff16630f85fc5a876040518263ffffffff1660e01b815260040161131f9190616908565b6101406040518083038186803b1580156113395760006000fd5b505afa15801561134e573d600060003e3d6000fd5b505050506040513d601f19601f820116820180604052508101906113729190615ca6565b612e3863ffffffff16565b846000856131c563ffffffff16565b5b5b505b61139e613a0363ffffffff16565b5b5050565b600060149054906101000a900460ff1681565b60006113c6612bda63ffffffff16565b6113d4612cb963ffffffff16565b6002600060009054906101000a900473ffffffffffffffffffffffffffffffffffffffff1673ffffffffffffffffffffffffffffffffffffffff1663055ad42e6040518163ffffffff1660e01b815260040160206040518083038186803b15801561143f5760006000fd5b505afa158015611454573d600060003e3d6000fd5b505050506040513d601f19601f820116820180604052508101906114789190615ef1565b60ff168160ff16111515156114c2576040517f08c379a00000000000000000000000000000000000000000000000000000000081526004016114b990616766565b60405180910390fd5b6114d183613a9763ffffffff16565b91506114d8565b5b505b6114e9613a0363ffffffff16565b5b919050565b600e600050818154811061150257600080fd5b906000526020600020900160005b9150909054906101000a900473ffffffffffffffffffffffffffffffffffffffff1681565b61154361260e63ffffffff16565b600060009054906101000a900473ffffffffffffffffffffffffffffffffffffffff1673ffffffffffffffffffffffffffffffffffffffff1663ff0eccf66040518163ffffffff1660e01b815260040160206040518083038186803b1580156115ac5760006000fd5b505afa1580156115c1573d600060003e3d6000fd5b505050506040513d601f19601f820116820180604052508101906115e59190615c58565b600d60006101000a81548173ffffffffffffffffffffffffffffffffffffffff021916908373ffffffffffffffffffffffffffffffffffffffff160217905550600060009054906101000a900473ffffffffffffffffffffffffffffffffffffffff1673ffffffffffffffffffffffffffffffffffffffff1663ab658be26040518163ffffffff1660e01b815260040160006040518083038186803b15801561168e5760006000fd5b505afa1580156116a3573d600060003e3d6000fd5b505050506040513d6000823e3d601f19601f820116820180604052508101906116cc91906159f7565b600e60005090805190602001906116e4929190615824565b506116f3613c2a63ffffffff16565b5b5b565b61170561460963ffffffff16565b611713613c2a63ffffffff16565b5b61172261466463ffffffff16565b5b565b611733612bda63ffffffff16565b61174161467463ffffffff16565b6117fe600c60009054906101000a900473ffffffffffffffffffffffffffffffffffffffff1673ffffffffffffffffffffffffffffffffffffffff1663430c208133846040518363ffffffff1660e01b81526004016117a192919061628c565b60206040518083038186803b1580156117ba5760006000fd5b505afa1580156117cf573d600060003e3d6000fd5b505050506040513d601f19601f820116820180604052508101906117f39190615ab0565b612df263ffffffff16565b600260009054906101000a900473ffffffffffffffffffffffffffffffffffffffff1673ffffffffffffffffffffffffffffffffffffffff1663f94fffb1826119048467ffffffffffffffff16600260009054906101000a900473ffffffffffffffffffffffffffffffffffffffff1673ffffffffffffffffffffffffffffffffffffffff16630f85fc5a876040518263ffffffff1660e01b81526004016118a69190616908565b6101406040518083038186803b1580156118c05760006000fd5b505afa1580156118d5573d600060003e3d6000fd5b505050506040513d601f19601f820116820180604052508101906118f99190615ca6565b612e3863ffffffff16565b6040518363ffffffff1660e01b8152600401611921929190616924565b600060405180830381600087803b15801561193c5760006000fd5b505af1158015611951573d600060003e3d6000fd5b505050505b5b611965613a0363ffffffff16565b5b50565b6000611979612bda63ffffffff16565b611987612cb963ffffffff16565b600060009054906101000a900473ffffffffffffffffffffffffffffffffffffffff1673ffffffffffffffffffffffffffffffffffffffff1663fa117b4d33846040518363ffffffff1660e01b81526004016119e49291906161dc565b60206040518083038186803b1580156119fd5760006000fd5b505afa158015611a12573d600060003e3d6000fd5b505050506040513d601f19601f82011682018060405250810190611a369190615ab0565b1515611a77576040517f08c379a0000000000000000000000000000000000000000000000000000000008152600401611a6e90616683565b60405180910390fd5b600260009054906101000a900473ffffffffffffffffffffffffffffffffffffffff1673ffffffffffffffffffffffffffffffffffffffff1663afd7c0f2336040518263ffffffff1660e01b8152600401611ad29190616183565b60206040518083038186803b158015611aeb5760006000fd5b505afa158015611b00573d600060003e3d6000fd5b505050506040513d601f19601f82011682018060405250810190611b249190615ab0565b151515611b66576040517f08c379a0000000000000000000000000000000000000000000000000000000008152600401611b5d906164ca565b60405180910390fd5b600260009054906101000a900473ffffffffffffffffffffffffffffffffffffffff1673ffffffffffffffffffffffffffffffffffffffff1663345750e73360016040518363ffffffff1660e01b8152600401611bc49291906161ab565b600060405180830381600087803b158015611bdf5760006000fd5b505af1158015611bf4573d600060003e3d6000fd5b50505050611c0c600a60005054613a9763ffffffff16565b9050611c13565b5b611c22613a0363ffffffff16565b5b919050565b600c60189054906101000a900467ffffffffffffffff1681565b600a6000505481565b611c5961260e63ffffffff16565b8060076000508190909055506706f05b59d3b20000600760005054101515611c815760006000fd5b604051611c8d90616035565b60405180910390207f3a64504f0bc0c335e2aecb78638a257e0351a3fe0370861fd54ee4190b92093382604051611cc491906168ad565b60405180910390a25b5b50565b60086000505481565b611ce861260e63ffffffff16565b600060009054906101000a900473ffffffffffffffffffffffffffffffffffffffff1673ffffffffffffffffffffffffffffffffffffffff1663ab658be26040518163ffffffff1660e01b815260040160006040518083038186803b158015611d515760006000fd5b505afa158015611d66573d600060003e3d6000fd5b505050506040513d6000823e3d601f19601f82011682018060405250810190611d8f91906159f7565b600e6000509080519060200190611da7929190615824565b50604051611db49061612a565b60405180910390207f78caada2f560033c9479d8c5e33f045f2e611faebe6b6d8a73874c80ec2dd3a282604051611deb919061615b565b60405180910390a25b5b50565b611e0661260e63ffffffff16565b61012c8163ffffffff1610151515611e1e5760006000fd5b80600c60146101000a81548163ffffffff021916908363ffffffff160217905550604051611e4b90616066565b60405180910390207f6293347933ad2997134e224ac8cd2e39908a4a22aeed9af52127b4bbf765297882604051611e8291906168f0565b60405180910390a25b5b50565b7f000000000000000000000000000000000000000000000000000000000000000081565b7f000000000000000000000000000000000000000000000000000000000000000081565b611ee561260e63ffffffff16565b8060086000508190909055506706f05b59d3b20000600860005054101515611f0d5760006000fd5b604051611f1990616004565b60405180910390207f3a64504f0bc0c335e2aecb78638a257e0351a3fe0370861fd54ee4190b92093382604051611f5091906168ad565b60405180910390a25b5b50565b600160009054906101000a900473ffffffffffffffffffffffffffffffffffffffff1681565b611f91612bda63ffffffff16565b611f9f612cb963ffffffff16565b60028060ff16600060009054906101000a900473ffffffffffffffffffffffffffffffffffffffff1673ffffffffffffffffffffffffffffffffffffffff1663055ad42e6040518163ffffffff1660e01b815260040160206040518083038186803b15801561200e5760006000fd5b505afa158015612023573d600060003e3d6000fd5b505050506040513d601f19601f820116820180604052508101906120479190615ef1565b60ff1610151561208c576040517f08c379a00000000000000000000000000000000000000000000000000000000081526004016120839061648b565b60405180910390fd5b612149600c60009054906101000a900473ffffffffffffffffffffffffffffffffffffffff1673ffffffffffffffffffffffffffffffffffffffff1663430c208133856040518363ffffffff1660e01b81526004016120ec92919061628c565b60206040518083038186803b1580156121055760006000fd5b505afa15801561211a573d600060003e3d6000fd5b505050506040513d601f19601f8201168201806040525081019061213e9190615ab0565b612df263ffffffff16565b60006122128367ffffffffffffffff16600260009054906101000a900473ffffffffffffffffffffffffffffffffffffffff1673ffffffffffffffffffffffffffffffffffffffff16630f85fc5a866040518263ffffffff1660e01b81526004016121b49190616908565b6101406040518083038186803b1580156121ce5760006000fd5b505afa1580156121e3573d600060003e3d6000fd5b505050506040513d601f19601f820116820180604052508101906122079190615ca6565b612e3863ffffffff16565b9050600260009054906101000a900473ffffffffffffffffffffffffffffffffffffffff1673ffffffffffffffffffffffffffffffffffffffff1663345750e73360006040518363ffffffff1660e01b81526004016122729291906161ab565b600060405180830381600087803b15801561228d5760006000fd5b505af11580156122a2573d600060003e3d6000fd5b505050506122d381846122c084604001516146c9909063ffffffff16565b60000384602001516131c563ffffffff16565b505b5b505b6122e6613a0363ffffffff16565b5b50565b6122f26158ae565b61230061460963ffffffff16565b600060009054906101000a900473ffffffffffffffffffffffffffffffffffffffff1673ffffffffffffffffffffffffffffffffffffffff16639622cd8f336040518263ffffffff1660e01b815260040161235b9190616183565b60006040518083038186803b1580156123745760006000fd5b505afa158015612389573d600060003e3d6000fd5b505050506124548267ffffffffffffffff16600260009054906101000a900473ffffffffffffffffffffffffffffffffffffffff1673ffffffffffffffffffffffffffffffffffffffff16630f85fc5a856040518263ffffffff1660e01b81526004016123f69190616908565b6101406040518083038186803b1580156124105760006000fd5b505afa158015612425573d600060003e3d6000fd5b505050506040513d601f19601f820116820180604052508101906124499190615ca6565b612e3863ffffffff16565b905061245b565b61246961466463ffffffff16565b5b919050565b61247d61260e63ffffffff16565b806009600050819090905550670de0b6b3a764000081101515156124a15760006000fd5b6040516124ad90616097565b60405180910390207f3a64504f0bc0c335e2aecb78638a257e0351a3fe0370861fd54ee4190b920933826040516124e491906168ad565b60405180910390a25b5b50565b600b6000505481565b60076000505481565b60006801000000000000000082101515612588576040517f08c379a00000000000000000000000000000000000000000000000000000000081526004018080602001828103825260118152602001807f6d6f7265207468616e203634206269747300000000000000000000000000000081526020015060200191505060405180910390fd5b819050612590565b919050565b60007f00000000000000000000000000000000000000000000000000000000000000007f000000000000000000000000000000000000000000000000000000000000000067ffffffffffffffff166125f161477263ffffffff16565b67ffffffffffffffff1681151561260457fe5b0403905080505b90565b600060009054906101000a900473ffffffffffffffffffffffffffffffffffffffff1673ffffffffffffffffffffffffffffffffffffffff163373ffffffffffffffffffffffffffffffffffffffff161415156126a0576040517f08c379a000000000000000000000000000000000000000000000000000000000815260040161269790616548565b60405180910390fd5b5b565b6001600060146101000a81548160ff0219169083151502179055507f7acc84e34091ae817647a4c49116f5cc07f319078ba80f8f5fde37ea7e25cbd660405160405180910390a15b565b600060009054906101000a900473ffffffffffffffffffffffffffffffffffffffff1673ffffffffffffffffffffffffffffffffffffffff1663e3f3522c6040518163ffffffff1660e01b815260040160206040518083038186803b1580156127565760006000fd5b505afa15801561276b573d600060003e3d6000fd5b505050506040513d601f19601f8201168201806040525081019061278f9190615b6e565b600c60006101000a81548173ffffffffffffffffffffffffffffffffffffffff021916908373ffffffffffffffffffffffffffffffffffffffff1602179055506000600c60009054906101000a900473ffffffffffffffffffffffffffffffffffffffff1673ffffffffffffffffffffffffffffffffffffffff1663755edd17600260009054906101000a900473ffffffffffffffffffffffffffffffffffffffff166040518263ffffffff1660e01b815260040161284e919061615b565b602060405180830381600087803b1580156128695760006000fd5b505af115801561287e573d600060003e3d6000fd5b505050506040513d601f19601f820116820180604052508101906128a29190615e5f565b67ffffffffffffffff161415156128b95760006000fd5b6128c16158ae565b600260009054906101000a900473ffffffffffffffffffffffffffffffffffffffff1673ffffffffffffffffffffffffffffffffffffffff1663f94fffb16000612912600085612e3863ffffffff16565b6040518363ffffffff1660e01b815260040161292f9291906163e2565b600060405180830381600087803b15801561294a5760006000fd5b505af115801561295f573d600060003e3d6000fd5b5050505060006040518060c0016040528063bccfa49e60e01b7bffffffffffffffffffffffffffffffffffffffffffffffffffffffff19167bffffffffffffffffffffffffffffffffffffffffffffffffffffffff1916815260200163d4477a3e60e01b7bffffffffffffffffffffffffffffffffffffffffffffffffffffffff19167bffffffffffffffffffffffffffffffffffffffffffffffffffffffff1916815260200163ef5e1cac60e01b7bffffffffffffffffffffffffffffffffffffffffffffffffffffffff19167bffffffffffffffffffffffffffffffffffffffffffffffffffffffff1916815260200163c433c80a60e01b7bffffffffffffffffffffffffffffffffffffffffffffffffffffffff19167bffffffffffffffffffffffffffffffffffffffffffffffffffffffff191681526020016306972dcd60e01b7bffffffffffffffffffffffffffffffffffffffffffffffffffffffff19167bffffffffffffffffffffffffffffffffffffffffffffffffffffffff19168152602001635a6127a960e01b7bffffffffffffffffffffffffffffffffffffffffffffffffffffffff19167bffffffffffffffffffffffffffffffffffffffffffffffffffffffff191681526020015090506000600090505b81506006811015612bd4576001600560005060008484600681101515612b5e57fe5b60200201517bffffffffffffffffffffffffffffffffffffffffffffffffffffffff19167bffffffffffffffffffffffffffffffffffffffffffffffffffffffff1916815260200190815260200160002060006101000a81548160ff0219169083151502179055505b8080600101915050612b3c565b5050505b565b600460009054906101000a900473ffffffffffffffffffffffffffffffffffffffff1673ffffffffffffffffffffffffffffffffffffffff1663e97dcb626040518163ffffffff1660e01b8152600401600060405180830381600087803b158015612c455760006000fd5b505af1158015612c5a573d600060003e3d6000fd5b50505050600260066000505414151515612ca9576040517f08c379a0000000000000000000000000000000000000000000000000000000008152600401612ca0906165c6565b60405180910390fd5b600260066000508190909055505b565b600060149054906101000a900460ff16151515612d0b576040517f08c379a0000000000000000000000000000000000000000000000000000000008152600401612d02906167e4565b60405180910390fd5b600060009054906101000a900473ffffffffffffffffffffffffffffffffffffffff1673ffffffffffffffffffffffffffffffffffffffff1663bf86d6906040518163ffffffff1660e01b815260040160206040518083038186803b158015612d745760006000fd5b505afa158015612d89573d600060003e3d6000fd5b505050506040513d601f19601f82011682018060405250810190612dad9190615ab0565b151515612def576040517f08c379a0000000000000000000000000000000000000000000000000000000008152600401612de69061640d565b60405180910390fd5b5b565b801515612e34576040517f08c379a0000000000000000000000000000000000000000000000000000000008152600401612e2b90616548565b60405180910390fd5b5b50565b612e406158ae565b6000612e5061478d63ffffffff16565b90506000612e638261488463ffffffff16565b9050600060008560a0015167ffffffffffffffff1614612e9557612e908560a0015161488463ffffffff16565b612e98565b60005b90508067ffffffffffffffff168267ffffffffffffffff16111515612ec2578493505050506131bf565b612ed0613c2a63ffffffff16565b6000612f8486600260009054906101000a900473ffffffffffffffffffffffffffffffffffffffff1673ffffffffffffffffffffffffffffffffffffffff166306ef2d806040518163ffffffff1660e01b815260040160806040518083038186803b158015612f3f5760006000fd5b505afa158015612f54573d600060003e3d6000fd5b505050506040513d601f19601f82011682018060405250810190612f789190615d6f565b8661490c63ffffffff16565b8092508196505050600081111561317157600087141561303257600060009054906101000a900473ffffffffffffffffffffffffffffffffffffffff1673ffffffffffffffffffffffffffffffffffffffff1663c34cdf75826040518263ffffffff1660e01b8152600401612ff991906168ad565b600060405180830381600087803b1580156130145760006000fd5b505af1158015613029573d600060003e3d6000fd5b50505050613170565b600060009054906101000a900473ffffffffffffffffffffffffffffffffffffffff1673ffffffffffffffffffffffffffffffffffffffff1663b216cd94600c60009054906101000a900473ffffffffffffffffffffffffffffffffffffffff1673ffffffffffffffffffffffffffffffffffffffff16636352211e8a6040518263ffffffff1660e01b81526004016130cb91906168ad565b60206040518083038186803b1580156130e45760006000fd5b505afa1580156130f9573d600060003e3d6000fd5b505050506040513d601f19601f8201168201806040525081019061311d91906159d0565b836040518363ffffffff1660e01b815260040161313b9291906162c5565b600060405180830381600087803b1580156131565760006000fd5b505af115801561316b573d600060003e3d6000fd5b505050505b5b8267ffffffffffffffff16877fc99ac0d15229fa72f1b0756c0eed4e7ede3d80f4e4e0d308ce7a56d1366b8a038760400151846040516131b29291906168bf565b60405180910390a3505050505b92915050565b60003490506000811180156131da5750600082115b15151561321c576040517f08c379a0000000000000000000000000000000000000000000000000000000008152600401613213906166c2565b60405180910390fd5b600061322f826146c9909063ffffffff16565b905060008114156132535761324b836146c9909063ffffffff16565b600003905080505b600084141580613264575060008114155b15156132a5576040517f08c379a000000000000000000000000000000000000000000000000000000000815260040161329c90616587565b60405180910390fd5b60008414151561361557600084131561346957600084905061337f61337482600260009054906101000a900473ffffffffffffffffffffffffffffffffffffffff1673ffffffffffffffffffffffffffffffffffffffff16630dca59c16040518163ffffffff1660e01b815260040160206040518083038186803b15801561332d5760006000fd5b505afa158015613342573d600060003e3d6000fd5b505050506040513d601f19601f820116820180604052508101906133669190615deb565b614a7290919063ffffffff16565b614afb63ffffffff16565b613396818860400151614a7290919063ffffffff16565b87604001909081815260200150506133b261477263ffffffff16565b8760c0019067ffffffffffffffff16908167ffffffffffffffff1681526020015050600260009054906101000a900473ffffffffffffffffffffffffffffffffffffffff1673ffffffffffffffffffffffffffffffffffffffff16632b7c7b11826040518263ffffffff1660e01b815260040161342f91906168ad565b600060405180830381600087803b15801561344a5760006000fd5b505af115801561345f573d600060003e3d6000fd5b5050505050613614565b600086604001511115156134b2576040517f08c379a00000000000000000000000000000000000000000000000000000000081526004016134a9906167a5565b60405180910390fd5b6134c061477263ffffffff16565b67ffffffffffffffff166134f1610708610e10018860c0015167ffffffffffffffff16614b4f90919063ffffffff16565b67ffffffffffffffff1610151561353d576040517f08c379a000000000000000000000000000000000000000000000000000000000815260040161353490616509565b60405180910390fd5b83600003866040015110156135695761356186604001516146c9909063ffffffff16565b600003935083505b836000038660400181815103915090908181526020015050600260009054906101000a900473ffffffffffffffffffffffffffffffffffffffff1673ffffffffffffffffffffffffffffffffffffffff16632a7ba1f7856000036040518263ffffffff1660e01b81526004016135df91906168ad565b600060405180830381600087803b1580156135fa5760006000fd5b505af115801561360f573d600060003e3d6000fd5b505050505b5b60008114151561367c5760008113156136525761363f818760200151614a7290919063ffffffff16565b866020019090818152602001505061367b565b61366c816000038760200151614bec90919063ffffffff16565b86602001909081815260200150505b5b6000866040015114151561370657600a600050548660400151101515156136d8576040517f08c379a00000000000000000000000000000000000000000000000000000000081526004016136cf90616727565b60405180910390fd5b60008112806136e75750600084135b156137055761370486604001518760200151614c7563ffffffff16565b5b5b600260009054906101000a900473ffffffffffffffffffffffffffffffffffffffff1673ffffffffffffffffffffffffffffffffffffffff1663f94fffb186886040518363ffffffff1660e01b8152600401613763929190616924565b600060405180830381600087803b15801561377e5760006000fd5b505af1158015613793573d600060003e3d6000fd5b505050506000841415156138d657600084131561384057600360009054906101000a900473ffffffffffffffffffffffffffffffffffffffff1673ffffffffffffffffffffffffffffffffffffffff1663449a52f833866040518363ffffffff1660e01b815260040161380792919061625d565b600060405180830381600087803b1580156138225760006000fd5b505af1158015613837573d600060003e3d6000fd5b505050506138d5565b600360009054906101000a900473ffffffffffffffffffffffffffffffffffffffff1673ffffffffffffffffffffffffffffffffffffffff166379cc679033866000036040518363ffffffff1660e01b81526004016138a092919061625d565b600060405180830381600087803b1580156138bb5760006000fd5b505af11580156138d0573d600060003e3d6000fd5b505050505b5b6000811415156139b65760008113156139205761391b600260009054906101000a900473ffffffffffffffffffffffffffffffffffffffff1682614e9063ffffffff16565b6139b5565b600260009054906101000a900473ffffffffffffffffffffffffffffffffffffffff1673ffffffffffffffffffffffffffffffffffffffff16636250216933836000036040518363ffffffff1660e01b815260040161398092919061622e565b600060405180830381600087803b15801561399b5760006000fd5b505af11580156139b0573d600060003e3d6000fd5b505050505b5b8467ffffffffffffffff167f0ed8d38fcfdb338f760ae5cf4b84f9ade387db12ea673e89e8da1b25857cc1c185836040516139f29291906163c9565b60405180910390a250505b50505050565b60016006600050819090905550600460009054906101000a900473ffffffffffffffffffffffffffffffffffffffff1673ffffffffffffffffffffffffffffffffffffffff1663e9fad8ee6040518163ffffffff1660e01b8152600401600060405180830381600087803b158015613a7b5760006000fd5b505af1158015613a90573d600060003e3d6000fd5b505050505b565b6000600034111515613ade576040517f08c379a0000000000000000000000000000000000000000000000000000000008152600401613ad590616605565b60405180910390fd5b600c60009054906101000a900473ffffffffffffffffffffffffffffffffffffffff1673ffffffffffffffffffffffffffffffffffffffff1663755edd17336040518263ffffffff1660e01b8152600401613b399190616183565b602060405180830381600087803b158015613b545760006000fd5b505af1158015613b69573d600060003e3d6000fd5b505050506040513d601f19601f82011682018060405250810190613b8d9190615e5f565b90508050613b996158ae565b613bd5613bb68367ffffffffffffffff1683612e3863ffffffff16565b83613bc8866146c9909063ffffffff16565b60006131c563ffffffff16565b8167ffffffffffffffff163373ffffffffffffffffffffffffffffffffffffffff167f5e61a417c052598d1a3e26d3d81c42d9e7a943dccc23a840bc94bbabf9b1d60760405160405180910390a3505b919050565b6000613c3a61501663ffffffff16565b9050600c60189054906101000a900467ffffffffffffffff1667ffffffffffffffff168167ffffffffffffffff16111515613c755750614607565b6000600c60189054906101000a900467ffffffffffffffff16820390506000600260009054906101000a900473ffffffffffffffffffffffffffffffffffffffff1673ffffffffffffffffffffffffffffffffffffffff166306ef2d806040518163ffffffff1660e01b815260040160806040518083038186803b158015613cfd5760006000fd5b505afa158015613d12573d600060003e3d6000fd5b505050506040513d601f19601f82011682018060405250810190613d369190615d6f565b90506000600060009054906101000a900473ffffffffffffffffffffffffffffffffffffffff1673ffffffffffffffffffffffffffffffffffffffff166343f48fbd6040518163ffffffff1660e01b815260040160206040518083038186803b158015613da35760006000fd5b505afa158015613db8573d600060003e3d6000fd5b505050506040513d601f19601f82011682018060405250810190613ddc9190615be3565b90506000613f9883858473ffffffffffffffffffffffffffffffffffffffff1663a0fc0eda6040518163ffffffff1660e01b815260040160206040518083038186803b158015613e2c5760006000fd5b505afa158015613e41573d600060003e3d6000fd5b505050506040513d601f19601f82011682018060405250810190613e659190615deb565b8573ffffffffffffffffffffffffffffffffffffffff16636d7fa6646040518163ffffffff1660e01b815260040160206040518083038186803b158015613eac5760006000fd5b505afa158015613ec1573d600060003e3d6000fd5b505050506040513d601f19601f82011682018060405250810190613ee59190615ab0565b600360009054906101000a900473ffffffffffffffffffffffffffffffffffffffff1673ffffffffffffffffffffffffffffffffffffffff166375172a8b6040518163ffffffff1660e01b815260040160206040518083038186803b158015613f4e5760006000fd5b505afa158015613f63573d600060003e3d6000fd5b505050506040513d601f19601f82011682018060405250810190613f879190615deb565b600b6000505461503c63ffffffff16565b905060006141b28567ffffffffffffffff16610e1067ffffffffffffffff1662015180811515613fc457fe5b0467ffffffffffffffff166141a3600060009054906101000a900473ffffffffffffffffffffffffffffffffffffffff1673ffffffffffffffffffffffffffffffffffffffff16639ec5a8946040518163ffffffff1660e01b815260040160206040518083038186803b15801561403b5760006000fd5b505afa158015614050573d600060003e3d6000fd5b505050506040513d601f19601f820116820180604052508101906140749190615c0a565b73ffffffffffffffffffffffffffffffffffffffff16630a86f1096040518163ffffffff1660e01b815260040160206040518083038186803b1580156140ba5760006000fd5b505afa1580156140cf573d600060003e3d6000fd5b505050506040513d601f19601f820116820180604052508101906140f39190615deb565b600060009054906101000a900473ffffffffffffffffffffffffffffffffffffffff1673ffffffffffffffffffffffffffffffffffffffff1663c375e6ed6040518163ffffffff1660e01b815260040160206040518083038186803b15801561415c5760006000fd5b505afa158015614171573d600060003e3d6000fd5b505050506040513d601f19601f820116820180604052508101906141959190615deb565b61522a90919063ffffffff16565b6152509092919063ffffffff16565b90506040518060800160405280836000015181526020016141e0838760200151614a7290919063ffffffff16565b815260200161421c6142098867ffffffffffffffff16886000015161535190919063ffffffff16565b8760400151614a7290919063ffffffff16565b8152602001836020015181526020015093508350600260009054906101000a900473ffffffffffffffffffffffffffffffffffffffff1673ffffffffffffffffffffffffffffffffffffffff166378efc6b0856040518263ffffffff1660e01b815260040161428b919061687c565b600060405180830381600087803b1580156142a65760006000fd5b505af11580156142bb573d600060003e3d6000fd5b5050505085600c60186101000a81548167ffffffffffffffff021916908367ffffffffffffffff16021790555060008260600151111561444057600260009054906101000a900473ffffffffffffffffffffffffffffffffffffffff1673ffffffffffffffffffffffffffffffffffffffff166379fdf8c583606001516040518263ffffffff1660e01b815260040161435491906168ad565b600060405180830381600087803b15801561436f5760006000fd5b505af1158015614384573d600060003e3d6000fd5b50505050600360009054906101000a900473ffffffffffffffffffffffffffffffffffffffff1673ffffffffffffffffffffffffffffffffffffffff1663449a52f8600260009054906101000a900473ffffffffffffffffffffffffffffffffffffffff1684606001516040518363ffffffff1660e01b815260040161440b9291906162c5565b600060405180830381600087803b1580156144265760006000fd5b505af115801561443b573d600060003e3d6000fd5b505050505b60008260400151111561450557600360009054906101000a900473ffffffffffffffffffffffffffffffffffffffff1673ffffffffffffffffffffffffffffffffffffffff1663449a52f8600360009054906101000a900473ffffffffffffffffffffffffffffffffffffffff1684604001516040518363ffffffff1660e01b81526004016144d09291906162c5565b600060405180830381600087803b1580156144eb5760006000fd5b505af1158015614500573d600060003e3d6000fd5b505050505b6000826080015111156145a657600360009054906101000a900473ffffffffffffffffffffffffffffffffffffffff1673ffffffffffffffffffffffffffffffffffffffff1663c59fb1ab83608001516040518263ffffffff1660e01b815260040161457191906168ad565b600060405180830381600087803b15801561458c5760006000fd5b505af11580156145a1573d600060003e3d6000fd5b505050505b8567ffffffffffffffff167fdfc2183705a66b49f12c66a6d3b2fa5cf3b7c67086e9c6e90d144befc94f436c8686600001518760200151886040015189606001516040516145f895949392919061694f565b60405180910390a25050505050505b565b600260066000505414151515614654576040517f08c379a000000000000000000000000000000000000000000000000000000000815260040161464b9061644c565b60405180910390fd5b600260066000508190909055505b565b600160066000508190909055505b565b600060149054906101000a900460ff161515156146c6576040517f08c379a00000000000000000000000000000000000000000000000000000000081526004016146bd906167e4565b60405180910390fd5b5b565b60007f800000000000000000000000000000000000000000000000000000000000000082101515614765576040517f08c379a00000000000000000000000000000000000000000000000000000000081526004018080602001828103825260128152602001807f746f6f2062696720666f7220696e74323536000000000000000000000000000081526020015060200191505060405180910390fd5b81905061476d565b919050565b600061478542612503909063ffffffff16565b905080505b90565b600061479d61477263ffffffff16565b905080506000600060009054906101000a900473ffffffffffffffffffffffffffffffffffffffff1673ffffffffffffffffffffffffffffffffffffffff1663585690816040518163ffffffff1660e01b815260040160206040518083038186803b15801561480c5760006000fd5b505afa158015614821573d600060003e3d6000fd5b505050506040513d601f19601f820116820180604052508101906148459190615e5f565b905060008167ffffffffffffffff1611801561487457508167ffffffffffffffff168167ffffffffffffffff16105b1561487f5780915081505b505b90565b60006149027f00000000000000000000000000000000000000000000000000000000000000007f000000000000000000000000000000000000000000000000000000000000000067ffffffffffffffff168467ffffffffffffffff168115156148e957fe5b0467ffffffffffffffff166153ef90919063ffffffff16565b905080505b919050565b6149146158ae565b6000849150815060008260a0015167ffffffffffffffff1611801561493d575060008260400151115b15614a0d576149638460600151836060015184604001516152509092919063ffffffff16565b8260400190908181526020015050614a086149958360a001518567ffffffffffffffff166153ef90919063ffffffff16565b67ffffffffffffffff16610e1067ffffffffffffffff166149f96149ca86608001518960200151614bec90919063ffffffff16565b6149e587600001518a60400151614bec90919063ffffffff16565b87604001516152509092919063ffffffff16565b6152509092919063ffffffff16565b905080505b836060015182606001909081815260200150508360200151826080019090818152602001505083604001518260000190908181526020015050828260a0019067ffffffffffffffff16908167ffffffffffffffff16815260200150505b935093915050565b60008282840191508110151515614af4576040517f08c379a000000000000000000000000000000000000000000000000000000000815260040180806020018281038252600c8152602001807f6164642d6f766572666c6f77000000000000000000000000000000000000000081526020015060200191505060405180910390fd5b5b92915050565b614b0a8161548c63ffffffff16565b1515614b4b576040517f08c379a0000000000000000000000000000000000000000000000000000000008152600401614b4290616644565b60405180910390fd5b5b50565b60008267ffffffffffffffff1682840191508167ffffffffffffffff1610151515614be5576040517f08c379a000000000000000000000000000000000000000000000000000000000815260040180806020018281038252600c8152602001807f6164642d6f766572666c6f77000000000000000000000000000000000000000081526020015060200191505060405180910390fd5b5b92915050565b60008282840391508111151515614c6e576040517f08c379a000000000000000000000000000000000000000000000000000000000815260040180806020018281038252600d8152602001807f7375622d756e646572666c6f770000000000000000000000000000000000000081526020015060200191505060405180910390fd5b5b92915050565b6000600d60009054906101000a900473ffffffffffffffffffffffffffffffffffffffff169050600073ffffffffffffffffffffffffffffffffffffffff168173ffffffffffffffffffffffffffffffffffffffff161415614cd75750614e8c565b6000600060009054906101000a900473ffffffffffffffffffffffffffffffffffffffff1673ffffffffffffffffffffffffffffffffffffffff1663d3419bf36040518163ffffffff1660e01b815260040160206040518083038186803b158015614d425760006000fd5b505afa158015614d57573d600060003e3d6000fd5b505050506040513d601f19601f82011682018060405250810190614d7b9190615b95565b73ffffffffffffffffffffffffffffffffffffffff1663d97e640083600c60149054906101000a900463ffffffff166040518363ffffffff1660e01b8152600401614dc7929190616394565b60206040518083038186803b158015614de05760006000fd5b505afa158015614df5573d600060003e3d6000fd5b505050506040513d601f19601f82011682018060405250810190614e199190615deb565b9050614e338460096000505461535190919063ffffffff16565b614e46828561535190919063ffffffff16565b10151515614e89576040517f08c379a0000000000000000000000000000000000000000000000000000000008152600401614e8090616823565b60405180910390fd5b50505b5050565b60008273ffffffffffffffffffffffffffffffffffffffff1682600067ffffffffffffffff81118015614ec35760006000fd5b506040519080825280601f01601f191660200182016040528015614ef65781602001600182028036833780820191505090505b506040518082805190602001908083835b602083101515614f2d57805182525b602082019150602081019050602083039250614f07565b6001836020036101000a03801982511681845116808217855250505050505090500191505060006040518083038185875af1925050503d8060008114614f8f576040519150601f19603f3d011682016040523d82523d6000602084013e614f94565b606091505b50509050801515615010576040517f08c379a00000000000000000000000000000000000000000000000000000000081526004018080602001828103825260038152602001807f535445000000000000000000000000000000000000000000000000000000000081526020015060200191505060405180910390fd5b505b5050565b600061503461502961478d63ffffffff16565b61488463ffffffff16565b905080505b90565b615044615927565b600085141561507b578660000151816000019090818152602001505086606001518160200190908181526020015050809050615220565b60006150c18767ffffffffffffffff16610e1067ffffffffffffffff166301e133808115156150a657fe5b0467ffffffffffffffff16886152509092919063ffffffff16565b90506000856150ea576150e582670de0b6b3a7640000614bec90919063ffffffff16565b615106565b61510582670de0b6b3a7640000614a7290919063ffffffff16565b5b905061511f818a6060015161522a90919063ffffffff16565b836020019090818152602001505061514e83602001518a606001518b600001516152509092919063ffffffff16565b83600001909081815260200150508860000151836000015111156151b75760008960000151846000015103905061518e858261522a90919063ffffffff16565b84606001909081815260200150508360600151810384604001909081815260200150505061521d565b88600001518360000151101561521c57600083600001518a60000151039050858110151561520a57896000015184600001909081815260200150508960600151846020019090818152602001505061521a565b8084608001909081815260200150505b505b5b50505b9695505050505050565b60006152458383670de0b6b3a764000061525063ffffffff16565b905080505b92915050565b6000600060006000198587098587029250828110838203039150506000811415615293576000841115156152845760006000fd5b8382049250829250505061534a565b80841115156152a25760006000fd5b600084868809905082811182039150808303925060008586600003169050808604955080840493506001818260000304019050808302841793508350600060028760030218905080870260020381029050805080870260020381029050805080870260020381029050805080870260020381029050805080870260020381029050805080870260020381029050805080850295508550859550505050505061534a5650505050505b9392505050565b600060008214806153715750828283850292508281151561536e57fe5b04145b15156153e8576040517f08c379a000000000000000000000000000000000000000000000000000000000815260040180806020018281038252600c8152602001807f6d756c2d6f766572666c6f77000000000000000000000000000000000000000081526020015060200191505060405180910390fd5b5b92915050565b60008267ffffffffffffffff1682840391508167ffffffffffffffff1611151515615485576040517f08c379a000000000000000000000000000000000000000000000000000000000815260040180806020018281038252600d8152602001807f7375622d756e646572666c6f770000000000000000000000000000000000000081526020015060200191505060405180910390fd5b5b92915050565b6000600073ffffffffffffffffffffffffffffffffffffffff16600d60009054906101000a900473ffffffffffffffffffffffffffffffffffffffff1673ffffffffffffffffffffffffffffffffffffffff1614156154ee57600190506155e3565b81615526600d60009054906101000a900473ffffffffffffffffffffffffffffffffffffffff166007600050546155e863ffffffff16565b101561553557600090506155e3565b6000600e60005080549050905060008160086000505481151561555457fe5b0490506000600090505b828110156155d557846155b5600e6000508381548110151561557c57fe5b906000526020600020900160005b9054906101000a900473ffffffffffffffffffffffffffffffffffffffff16846155e863ffffffff16565b10156155c757600093505050506155e3565b5b808060010191505061555e565b506001925050506155e35650505b919050565b60006000600060009054906101000a900473ffffffffffffffffffffffffffffffffffffffff1673ffffffffffffffffffffffffffffffffffffffff1663d3419bf36040518163ffffffff1660e01b815260040160206040518083038186803b1580156156555760006000fd5b505afa15801561566a573d600060003e3d6000fd5b505050506040513d601f19601f8201168201806040525081019061568e9190615b95565b73ffffffffffffffffffffffffffffffffffffffff16639ebf54b585600260009054906101000a900473ffffffffffffffffffffffffffffffffffffffff1673ffffffffffffffffffffffffffffffffffffffff1663a135ef17886040518263ffffffff1660e01b81526004016157059190616330565b60206040518083038186803b15801561571e5760006000fd5b505afa158015615733573d600060003e3d6000fd5b505050506040513d601f19601f820116820180604052508101906157579190615deb565b600c60149054906101000a900463ffffffff166040518463ffffffff1660e01b815260040161578893929190616358565b60206040518083038186803b1580156157a15760006000fd5b505afa1580156157b6573d600060003e3d6000fd5b505050506040513d601f19601f820116820180604052508101906157da9190615deb565b90506157ef83826157fe90919063ffffffff16565b9150506157f856505b92915050565b600061581983670de0b6b3a76400008461525063ffffffff16565b905080505b92915050565b82805482825590600052602060002090810192821561589d579160200282015b8281111561589c5782518260006101000a81548173ffffffffffffffffffffffffffffffffffffffff021916908373ffffffffffffffffffffffffffffffffffffffff16021790555091602001919060010190615844565b5b5090506158aa9190615959565b5090565b6040518061014001604052806000815260200160008152602001600081526020016000815260200160008152602001600067ffffffffffffffff168152602001600067ffffffffffffffff168152602001600060020b8152602001600015158152602001600067ffffffffffffffff1681526020015090565b6040518060a0016040528060008152602001600081526020016000815260200160008152602001600081526020015090565b61595e565b80821115615978576000818150600090555060010161595e565b509056616a0e565b600081519050801515811415156159975760006000fd5b5b919050565b6000815190508060020b811415156159b55760006000fd5b5b919050565b6000815190506159ca816169db565b5b919050565b6000602082840312156159e1578081fd5b81516159ec816169b2565b809150505b92915050565b60006020808385031215615a09578182fd5b825167ffffffffffffffff80821115615a20578384fd5b818501915085601f8301121515615a35578384fd5b815181811115615a4157fe5b8381029150615a51848301616987565b8082825285820191508585018987868801011115615a6d578788fd5b8795505b83861015615a9f5780519450615a86856169b2565b848352868301925086810190505b600186019550615a71565b508096505050505050505b92915050565b600060208284031215615ac1578081fd5b615aca82615980565b90505b92915050565b600060208284031215615ae4578081fd5b81357fffffffff00000000000000000000000000000000000000000000000000000000811681141515615b15578182fd5b809150505b92915050565b600060208284031215615b31578081fd5b8151615b3c816169b2565b809150505b92915050565b600060208284031215615b58578081fd5b8135615b63816169b2565b809150505b92915050565b600060208284031215615b7f578081fd5b8151615b8a816169b2565b809150505b92915050565b600060208284031215615ba6578081fd5b8151615bb1816169b2565b809150505b92915050565b600060208284031215615bcd578081fd5b8151615bd8816169b2565b809150505b92915050565b600060208284031215615bf4578081fd5b8151615bff816169b2565b809150505b92915050565b600060208284031215615c1b578081fd5b8151615c26816169b2565b809150505b92915050565b600060208284031215615c42578081fd5b8135615c4d816169b2565b809150505b92915050565b600060208284031215615c69578081fd5b8151615c74816169b2565b809150505b92915050565b600060208284031215615c90578081fd5b8151615c9b816169b2565b809150505b92915050565b6000610140808385031215615cb9578182fd5b615cc281616987565b90508251815260208301516020820152604083015160408201526060830151606082015260808301516080820152615cfc60a084016159bb565b60a0820152615d0d60c084016159bb565b60c0820152615d1e60e0840161599d565b60e0820152610100615d31818501615980565b8183015250610120615d448185016159bb565b8183015250809150505b92915050565b600060608284031215615d65578081fd5b8190505b92915050565b600060808284031215615d80578081fd5b6040516080810181811067ffffffffffffffff82111715615d9d57fe5b806040525082518152602083015160208201526040830151604082015260608301516060820152809150505b92915050565b600060208284031215615de0578081fd5b813590505b92915050565b600060208284031215615dfc578081fd5b815190505b92915050565b600060208284031215615e18578081fd5b813563ffffffff811681141515615e2d578182fd5b809150505b92915050565b600060208284031215615e49578081fd5b8135615e54816169db565b809150505b92915050565b600060208284031215615e70578081fd5b8151615e7b816169db565b809150505b92915050565b60006000600060608486031215615e9b578182fd5b8335615ea6816169db565b8093505060208401359150604084013590505b9250925092565b6000600060408385031215615ed3578182fd5b8235615ede816169db565b80925050602083013590505b9250929050565b600060208284031215615f02578081fd5b8151615f0d816169f8565b809150505b92915050565b80151582525b5050565b8060020b82525b5050565b805182526020810151602083015260408101516040830152606081015160608301526080810151608083015260a0810151615f6b60a0840182615fc1565b5060c0810151615f7e60c0840182615fc1565b5060e0810151615f9160e0840182615f22565b5061010080820151615fa582850182615f18565b505061012080820151615fba82850182615fc1565b50505b5050565b67ffffffffffffffff811682525b5050565b60007f6d696e506f736974696f6e53697a6500000000000000000000000000000000008252600f820190505b919050565b60007f6d696e546f74616c5265666572656e6365506f6f6c4c697175696469747900008252601e820190505b919050565b60007f6d696e436f6c6c61746572616c506f6f6c4c69717569646974790000000000008252601a820190505b919050565b60007f747761704475726174696f6e00000000000000000000000000000000000000008252600c820190505b919050565b60007f636f6c6c61746572616c697a6174696f6e526571756972656d656e74000000008252601c820190505b919050565b60007f72656d6f76655265666572656e6365506f6f6c0000000000000000000000000082526013820190505b919050565b60007f696e746572657374506f7274696f6e546f4c656e64657273000000000000000082526018820190505b919050565b60007f6164645265666572656e6365506f6f6c0000000000000000000000000000000082526010820190505b919050565b600060208201905073ffffffffffffffffffffffffffffffffffffffff831682525b92915050565b600060208201905073ffffffffffffffffffffffffffffffffffffffff831682525b92915050565b600060408201905073ffffffffffffffffffffffffffffffffffffffff8416825282151560208301525b9392505050565b600060808201905073ffffffffffffffffffffffffffffffffffffffff841682528235616208816169f8565b60ff811660208401525060208301356040830152604083013560608301525b9392505050565b600060408201905073ffffffffffffffffffffffffffffffffffffffff841682528260208301525b9392505050565b600060408201905073ffffffffffffffffffffffffffffffffffffffff841682528260208301525b9392505050565b600060408201905073ffffffffffffffffffffffffffffffffffffffff8416825267ffffffffffffffff831660208301525b9392505050565b600060408201905073ffffffffffffffffffffffffffffffffffffffff841682528260208301525b9392505050565b600060208201905082151582525b92915050565b600060208201905073ffffffffffffffffffffffffffffffffffffffff831682525b92915050565b600060208201905073ffffffffffffffffffffffffffffffffffffffff831682525b92915050565b600060608201905073ffffffffffffffffffffffffffffffffffffffff8516825283602083015263ffffffff831660408301525b949350505050565b600060408201905073ffffffffffffffffffffffffffffffffffffffff8416825263ffffffff831660208301525b9392505050565b60006040820190508382528260208301525b9392505050565b60006101608201905067ffffffffffffffff841682526164056020830184615f2d565b5b9392505050565b600060208252601160208301527f50726f746f636f6c2073687574646f776e00000000000000000000000000000060408301526060820190505b919050565b600060208252600d60208301527f4c43205265656e7472616e63790000000000000000000000000000000000000060408301526060820190505b919050565b600060208252601460208301527f416374696f6e2077696e646f772070617373656400000000000000000000000060408301526060820190505b919050565b600060208252601460208301527f416c72656164792070617274696369706174656400000000000000000000000060408301526060820190505b919050565b600060208252600f60208301527f4e6f20666c61736820626f72726f77000000000000000000000000000000000060408301526060820190505b919050565b600060208252600e60208301527f4e6f7420417574686f72697a656400000000000000000000000000000000000060408301526060820190505b919050565b600060208252600460208301527f4e6f6f700000000000000000000000000000000000000000000000000000000060408301526060820190505b919050565b600060208252600d60208301527f4c50205265656e7472616e63790000000000000000000000000000000000000060408301526060820190505b919050565b600060208252601360208301527f4d7573742061646420636f6c6c61746572616c0000000000000000000000000060408301526060820190505b919050565b600060208252601d60208301527f4465627420756e737570706f72746564206279206c697175696469747900000060408301526060820190505b919050565b600060208252601160208301527f4e6f206c6f6e6765722067656e6573697300000000000000000000000000000060408301526060820190505b919050565b600060208252602360208301527f43616e7420696e637265617365202620646563726561736520636f6c6c61746560408301527f72616c000000000000000000000000000000000000000000000000000000000060608301526080820190505b919050565b600060208252601260208301527f506f736974696f6e20746f6f20736d616c6c000000000000000000000000000060408301526060820190505b919050565b600060208252601560208301527f416374696f6e20617661696c61626c6520736f6f6e000000000000000000000060408301526060820190505b919050565b600060208252601360208301527f4e6f206465627420746f20706179206261636b0000000000000000000000000060408301526060820190505b919050565b600060208252601360208301527f436f6e74726163742069732073746f707065640000000000000000000000000060408301526060820190505b919050565b600060208252601760208301527f496e73756666696369656e7420636f6c6c61746572616c00000000000000000060408301526060820190505b919050565b6000610140820190506168758284615f2d565b5b92915050565b6000608082019050825182526020830151602083015260408301516040830152606083015160608301525b92915050565b60006020820190508282525b92915050565b60006040820190508382528260208301525b9392505050565b600060208201905063ffffffff831682525b92915050565b600060208201905063ffffffff831682525b92915050565b600060208201905067ffffffffffffffff831682525b92915050565b60006101608201905067ffffffffffffffff841682526169476020830184615f2d565b5b9392505050565b600060a08201905067ffffffffffffffff871682528560208301528460408301528360608301528260808301525b9695505050505050565b6000604051905081810181811067ffffffffffffffff821117156169a757fe5b80604052505b919050565b73ffffffffffffffffffffffffffffffffffffffff8116811415156169d75760006000fd5b5b50565b67ffffffffffffffff8116811415156169f45760006000fd5b5b50565b60ff811681141515616a0a5760006000fd5b5b50565bfea26469706673582212208955887e24c2cb49e9623c4d324d44f453ba857664883e8cfc7f5fb2a8c0520e64736f6c63430007060033",
  "linkReferences": {},
  "deployedLinkReferences": {}
}