{
  "_format": "hh-sol-artifact-1",
  "contractName": "Market",
  "sourceName": "contracts/core/logic/Market.sol",
  "abi": [
    {
      "inputs": [],
      "stateMutability": "nonpayable",
      "type": "constructor"
    },
    {
      "anonymous": false,
      "inputs": [
        {
          "indexed": true,
          "internalType": "address",
          "name": "governor",
          "type": "address"
        }
      ],
      "name": "Initialized",
      "type": "event"
    },
    {
      "anonymous": false,
      "inputs": [
        {
          "indexed": true,
          "internalType": "uint64",
          "name": "period",
          "type": "uint64"
        },
        {
          "indexed": false,
          "internalType": "uint64",
          "name": "periods",
          "type": "uint64"
        },
        {
          "indexed": false,
          "internalType": "uint256",
          "name": "newDebt",
          "type": "uint256"
        },
        {
          "indexed": false,
          "internalType": "uint256",
          "name": "rewardCount",
          "type": "uint256"
        },
        {
          "indexed": false,
          "internalType": "uint256",
          "name": "cumulativeDebt",
          "type": "uint256"
        },
        {
          "indexed": false,
          "internalType": "uint256",
          "name": "debtExchangeRate",
          "type": "uint256"
        }
      ],
      "name": "InterestAccrued",
      "type": "event"
    },
    {
      "anonymous": false,
      "inputs": [
        {
          "indexed": true,
          "internalType": "address",
          "name": "account",
          "type": "address"
        },
        {
          "indexed": false,
          "internalType": "uint256",
          "name": "hueCount",
          "type": "uint256"
        },
        {
          "indexed": false,
          "internalType": "uint256",
          "name": "lendTokenCount",
          "type": "uint256"
        }
      ],
      "name": "Lend",
      "type": "event"
    },
    {
      "anonymous": false,
      "inputs": [
        {
          "indexed": true,
          "internalType": "string",
          "name": "paramName",
          "type": "string"
        },
        {
          "indexed": false,
          "internalType": "uint256",
          "name": "value",
          "type": "uint256"
        }
      ],
      "name": "ParameterUpdated",
      "type": "event"
    },
    {
      "anonymous": false,
      "inputs": [
        {
          "indexed": true,
          "internalType": "string",
          "name": "paramName",
          "type": "string"
        },
        {
          "indexed": false,
          "internalType": "uint64",
          "name": "value",
          "type": "uint64"
        }
      ],
      "name": "ParameterUpdated64",
      "type": "event"
    },
    {
      "anonymous": false,
      "inputs": [
        {
          "indexed": true,
          "internalType": "string",
          "name": "paramName",
          "type": "string"
        },
        {
          "indexed": false,
          "internalType": "address",
          "name": "value",
          "type": "address"
        }
      ],
      "name": "ParameterUpdatedAddress",
      "type": "event"
    },
    {
      "anonymous": false,
      "inputs": [
        {
          "indexed": true,
          "internalType": "uint64",
          "name": "positionID",
          "type": "uint64"
        },
        {
          "indexed": false,
          "internalType": "int256",
          "name": "debtChange",
          "type": "int256"
        },
        {
          "indexed": false,
          "internalType": "int256",
          "name": "collateralChange",
          "type": "int256"
        }
      ],
      "name": "PositionAdjusted",
      "type": "event"
    },
    {
      "anonymous": false,
      "inputs": [
        {
          "indexed": true,
          "internalType": "address",
          "name": "creator",
          "type": "address"
        },
        {
          "indexed": true,
          "internalType": "uint64",
          "name": "positionID",
          "type": "uint64"
        }
      ],
      "name": "PositionCreated",
      "type": "event"
    },
    {
      "anonymous": false,
      "inputs": [
        {
          "indexed": true,
          "internalType": "uint256",
          "name": "positionID",
          "type": "uint256"
        },
        {
          "indexed": true,
          "internalType": "uint64",
          "name": "period",
          "type": "uint64"
        },
        {
          "indexed": false,
          "internalType": "uint256",
          "name": "debtAfter",
          "type": "uint256"
        },
        {
          "indexed": false,
          "internalType": "uint256",
          "name": "tcpRewards",
          "type": "uint256"
        }
      ],
      "name": "PositionUpdated",
      "type": "event"
    },
    {
      "anonymous": false,
      "inputs": [
        {
          "indexed": true,
          "internalType": "address",
          "name": "account",
          "type": "address"
        },
        {
          "indexed": true,
          "internalType": "bool",
          "name": "isKickback",
          "type": "bool"
        },
        {
          "indexed": false,
          "internalType": "uint256",
          "name": "tcpRewards",
          "type": "uint256"
        }
      ],
      "name": "RewardsDistributed",
      "type": "event"
    },
    {
      "anonymous": false,
      "inputs": [],
      "name": "Stopped",
      "type": "event"
    },
    {
      "anonymous": false,
      "inputs": [
        {
          "indexed": true,
          "internalType": "address",
          "name": "account",
          "type": "address"
        },
        {
          "indexed": false,
          "internalType": "uint256",
          "name": "hueCount",
          "type": "uint256"
        },
        {
          "indexed": false,
          "internalType": "uint256",
          "name": "lendTokenCount",
          "type": "uint256"
        }
      ],
      "name": "Unlend",
      "type": "event"
    },
    {
      "inputs": [],
      "name": "accrueInterest",
      "outputs": [],
      "stateMutability": "nonpayable",
      "type": "function"
    },
    {
      "inputs": [
        {
          "internalType": "uint64",
          "name": "positionID",
          "type": "uint64"
        },
        {
          "internalType": "int256",
          "name": "debtChange",
          "type": "int256"
        },
        {
          "internalType": "uint256",
          "name": "collateralDecrease",
          "type": "uint256"
        },
        {
          "internalType": "uint32",
          "name": "ui",
          "type": "uint32"
        }
      ],
      "name": "adjustPosition",
      "outputs": [],
      "stateMutability": "payable",
      "type": "function"
    },
    {
      "inputs": [
        {
          "internalType": "uint64",
          "name": "positionID",
          "type": "uint64"
        },
        {
          "internalType": "uint32",
          "name": "ui",
          "type": "uint32"
        }
      ],
      "name": "claimRewards",
      "outputs": [],
      "stateMutability": "nonpayable",
      "type": "function"
    },
    {
      "inputs": [],
      "name": "collateralizationRequirement",
      "outputs": [
        {
          "internalType": "uint256",
          "name": "",
          "type": "uint256"
        }
      ],
      "stateMutability": "view",
      "type": "function"
    },
    {
      "inputs": [
        {
          "internalType": "uint256",
          "name": "initialDebt",
          "type": "uint256"
        },
        {
          "internalType": "uint32",
          "name": "ui",
          "type": "uint32"
        }
      ],
      "name": "createPosition",
      "outputs": [
        {
          "internalType": "uint64",
          "name": "positionID",
          "type": "uint64"
        }
      ],
      "stateMutability": "payable",
      "type": "function"
    },
    {
      "inputs": [],
      "name": "currentPeriod",
      "outputs": [
        {
          "internalType": "uint64",
          "name": "period",
          "type": "uint64"
        }
      ],
      "stateMutability": "view",
      "type": "function"
    },
    {
      "inputs": [],
      "name": "deployer",
      "outputs": [
        {
          "internalType": "address",
          "name": "",
          "type": "address"
        }
      ],
      "stateMutability": "view",
      "type": "function"
    },
    {
      "inputs": [],
      "name": "finalizeInitialization",
      "outputs": [],
      "stateMutability": "nonpayable",
      "type": "function"
    },
    {
      "inputs": [],
      "name": "firstPeriod",
      "outputs": [
        {
          "internalType": "uint64",
          "name": "",
          "type": "uint64"
        }
      ],
      "stateMutability": "view",
      "type": "function"
    },
    {
      "inputs": [],
      "name": "governor",
      "outputs": [
        {
          "internalType": "contract IGovernor",
          "name": "",
          "type": "address"
        }
      ],
      "stateMutability": "view",
      "type": "function"
    },
    {
      "inputs": [],
      "name": "huePositionNFT",
      "outputs": [
        {
          "internalType": "contract IPositionNFT",
          "name": "",
          "type": "address"
        }
      ],
      "stateMutability": "view",
      "type": "function"
    },
    {
      "inputs": [
        {
          "internalType": "contract IGovernor",
          "name": "_governor",
          "type": "address"
        }
      ],
      "name": "init",
      "outputs": [],
      "stateMutability": "nonpayable",
      "type": "function"
    },
    {
      "inputs": [],
      "name": "interestPortionToLenders",
      "outputs": [
        {
          "internalType": "uint256",
          "name": "",
          "type": "uint256"
        }
      ],
      "stateMutability": "view",
      "type": "function"
    },
    {
      "inputs": [],
      "name": "lastPeriodGlobalInterestAccrued",
      "outputs": [
        {
          "internalType": "uint64",
          "name": "",
          "type": "uint64"
        }
      ],
      "stateMutability": "view",
      "type": "function"
    },
    {
      "inputs": [
        {
          "internalType": "uint256",
          "name": "hueCount",
          "type": "uint256"
        }
      ],
      "name": "lend",
      "outputs": [],
      "stateMutability": "nonpayable",
      "type": "function"
    },
    {
      "inputs": [],
      "name": "lendHue",
      "outputs": [
        {
          "internalType": "contract ILendHue",
          "name": "",
          "type": "address"
        }
      ],
      "stateMutability": "view",
      "type": "function"
    },
    {
      "inputs": [],
      "name": "minPositionSize",
      "outputs": [
        {
          "internalType": "uint256",
          "name": "",
          "type": "uint256"
        }
      ],
      "stateMutability": "view",
      "type": "function"
    },
    {
      "inputs": [],
      "name": "periodLength",
      "outputs": [
        {
          "internalType": "uint64",
          "name": "",
          "type": "uint64"
        }
      ],
      "stateMutability": "view",
      "type": "function"
    },
    {
      "inputs": [
        {
          "internalType": "uint64",
          "name": "positionID",
          "type": "uint64"
        }
      ],
      "name": "removeKickback",
      "outputs": [],
      "stateMutability": "nonpayable",
      "type": "function"
    },
    {
      "inputs": [
        {
          "internalType": "uint256",
          "name": "requirement",
          "type": "uint256"
        }
      ],
      "name": "setCollateralizationRequirement",
      "outputs": [],
      "stateMutability": "nonpayable",
      "type": "function"
    },
    {
      "inputs": [
        {
          "internalType": "uint256",
          "name": "percentage",
          "type": "uint256"
        }
      ],
      "name": "setInterestPortionToLenders",
      "outputs": [],
      "stateMutability": "nonpayable",
      "type": "function"
    },
    {
      "inputs": [
        {
          "internalType": "uint256",
          "name": "size",
          "type": "uint256"
        }
      ],
      "name": "setMinPositionSize",
      "outputs": [],
      "stateMutability": "nonpayable",
      "type": "function"
    },
    {
      "inputs": [
        {
          "internalType": "uint32",
          "name": "duration",
          "type": "uint32"
        }
      ],
      "name": "setTwapDuration",
      "outputs": [],
      "stateMutability": "nonpayable",
      "type": "function"
    },
    {
      "inputs": [],
      "name": "stop",
      "outputs": [],
      "stateMutability": "nonpayable",
      "type": "function"
    },
    {
      "inputs": [],
      "name": "stopped",
      "outputs": [
        {
          "internalType": "bool",
          "name": "",
          "type": "bool"
        }
      ],
      "stateMutability": "view",
      "type": "function"
    },
    {
      "inputs": [
        {
          "internalType": "uint64",
          "name": "positionID",
          "type": "uint64"
        }
      ],
      "name": "systemGetUpdatedPosition",
      "outputs": [
        {
          "components": [
            {
              "internalType": "uint256",
              "name": "startCumulativeDebt",
              "type": "uint256"
            },
            {
              "internalType": "uint256",
              "name": "collateral",
              "type": "uint256"
            },
            {
              "internalType": "uint256",
              "name": "debt",
              "type": "uint256"
            },
            {
              "internalType": "uint256",
              "name": "startDebtExchangeRate",
              "type": "uint256"
            },
            {
              "internalType": "uint256",
              "name": "startTCPRewards",
              "type": "uint256"
            },
            {
              "internalType": "uint64",
              "name": "lastTimeUpdated",
              "type": "uint64"
            },
            {
              "internalType": "uint64",
              "name": "lastBorrowTime",
              "type": "uint64"
            },
            {
              "internalType": "int24",
              "name": "tick",
              "type": "int24"
            },
            {
              "internalType": "bool",
              "name": "tickSet",
              "type": "bool"
            },
            {
              "internalType": "uint64",
              "name": "tickIndex",
              "type": "uint64"
            },
            {
              "internalType": "uint32",
              "name": "ui",
              "type": "uint32"
            },
            {
              "internalType": "address",
              "name": "kickbackDestination",
              "type": "address"
            },
            {
              "internalType": "uint64",
              "name": "kickbackPortion",
              "type": "uint64"
            }
          ],
          "internalType": "struct IAccounting.DebtPosition",
          "name": "",
          "type": "tuple"
        }
      ],
      "stateMutability": "nonpayable",
      "type": "function"
    },
    {
      "inputs": [],
      "name": "twapDuration",
      "outputs": [
        {
          "internalType": "uint32",
          "name": "",
          "type": "uint32"
        }
      ],
      "stateMutability": "view",
      "type": "function"
    },
    {
      "inputs": [
        {
          "internalType": "uint256",
          "name": "lendTokenCount",
          "type": "uint256"
        }
      ],
      "name": "unlend",
      "outputs": [],
      "stateMutability": "nonpayable",
      "type": "function"
    },
    {
      "inputs": [
        {
          "internalType": "bytes4",
          "name": "",
          "type": "bytes4"
        }
      ],
      "name": "validUpdate",
      "outputs": [
        {
          "internalType": "bool",
          "name": "",
          "type": "bool"
        }
      ],
      "stateMutability": "view",
      "type": "function"
    },
    {
      "inputs": [
        {
          "internalType": "uint256",
          "name": "lendTokenCount",
          "type": "uint256"
        }
      ],
      "name": "valueOfLendTokensInHue",
      "outputs": [
        {
          "internalType": "uint256",
          "name": "",
          "type": "uint256"
        }
      ],
      "stateMutability": "view",
      "type": "function"
    }
  ],
  "bytecode": "0x60c0604052600160066000509090556714d1120d7b160000600760005090905568878678326eac90000060086000509090556702c68af0bb1400006009600050909055610708600b60146101000a81548163ffffffff021916908363ffffffff160217905550348015620000735760006000fd5b505b610e105b5b33600160006101000a81548173ffffffffffffffffffffffffffffffffffffffff021916908373ffffffffffffffffffffffffffffffffffffffff1602179055505b60018167ffffffffffffffff16620000d96200013b60201b60201c565b67ffffffffffffffff16811515620000ed57fe5b040367ffffffffffffffff1660a08167ffffffffffffffff1660c01b815260080150508067ffffffffffffffff1660808167ffffffffffffffff1660c01b815260080150505b505b620001f1565b600062000155426200015d60201b62001dec17909060201c565b905080505b90565b60006801000000000000000082101515620001e3576040517f08c379a00000000000000000000000000000000000000000000000000000000081526004018080602001828103825260118152602001807f6d6f7265207468616e203634206269747300000000000000000000000000000081526020015060200191505060405180910390fd5b819050620001ec565b919050565b60805160c01c60a05160c01c615d6d6200022f60003980611a6c5280611e82528061437d525080611a905280611ea3528061439e5250615d6d6000f3fe6080604052600436106101d15760003560e01c8063a6aa57ce116100f7578063c4e3a63b11610095578063e11c876211610064578063e11c876214610609578063eb6843ce14610647578063ef5e1cac14610685578063f6979f29146106af576101d1565b8063c4e3a63b1461056d578063d2ca211514610599578063d5f39488146105c5578063d861b0e8146105f1576101d1565b8063b2326b57116100d1578063b2326b57146104c1578063b6ae213a146104eb578063bb8313c214610517578063c433c80a14610543576101d1565b8063a6aa57ce14610453578063a6afed951461047d578063a89f51ae14610495576101d1565b806326d895451161016f5780635a6127a91161013e5780635a6127a9146103b757806375f12b21146103e15780637b809bdd1461040d578063875bbc5114610429576101d1565b806326d89545146103035780632cae02691461032f5780632e6c6f841461035b5780635658c0121461038b576101d1565b80630c340a24116101ab5780630c340a2414610245578063113cf1ab14610271578063197b1bf5146102af57806319ab453c146102d9576101d1565b806306040618146101d757806306972dcd1461020357806307da68f51461022d576101d1565b60006000fd5b3480156101e45760006000fd5b506101ed6106db565b6040516101fa9190615c2d565b60405180910390f35b3480156102105760006000fd5b5061022b60048036038101906102269190615333565b6106f3565b005b34801561023a5760006000fd5b5061024361075d565b005b3480156102525760006000fd5b5061025b61077d565b60405161026891906157b1565b60405180910390f35b34801561027e5760006000fd5b5061029960048036038101906102949190615067565b6107a3565b6040516102a6919061579d565b60405180910390f35b3480156102bc5760006000fd5b506102d760048036038101906102d29190615333565b6107c8565b005b3480156102e65760006000fd5b5061030160048036038101906102fc91906150db565b610996565b005b3480156103105760006000fd5b50610319610da8565b6040516103269190615bfd565b60405180910390f35b34801561033c5760006000fd5b50610345610dbe565b60405161035291906157d9565b60405180910390f35b6103756004803603810190610370919061536b565b610de4565b6040516103829190615c2d565b60405180910390f35b3480156103985760006000fd5b506103a1610fc0565b6040516103ae9190615bd2565b60405180910390f35b3480156103c45760006000fd5b506103df60048036038101906103da9190615333565b610fc9565b005b3480156103ee5760006000fd5b506103f7611050565b604051610404919061579d565b60405180910390f35b61042760048036038101906104229190615411565b611063565b005b3480156104365760006000fd5b50610451600480360381019061044c9190615461565b61124d565b005b3480156104605760006000fd5b5061047b60048036038101906104769190615333565b6114b4565b005b34801561048a5760006000fd5b506104936116f5565b005b3480156104a25760006000fd5b506104ab611723565b6040516104b89190615801565b60405180910390f35b3480156104ce5760006000fd5b506104e960048036038101906104e491906153c3565b611749565b005b3480156104f85760006000fd5b506105016119b0565b60405161050e9190615c2d565b60405180910390f35b3480156105245760006000fd5b5061052d6119ca565b60405161053a9190615bd2565b60405180910390f35b3480156105505760006000fd5b5061056b6004803603810190610566919061539c565b6119d3565b005b34801561057a5760006000fd5b50610583611a6a565b6040516105909190615c2d565b60405180910390f35b3480156105a65760006000fd5b506105af611a8e565b6040516105bc9190615c2d565b60405180910390f35b3480156105d25760006000fd5b506105db611ab2565b6040516105e89190615687565b60405180910390f35b3480156105fe5760006000fd5b50610607611ad8565b005b3480156106165760006000fd5b50610631600480360381019061062c9190615333565b611bae565b60405161063e9190615bd2565b60405180910390f35b3480156106545760006000fd5b5061066f600480360381019061066a91906153c3565b611bdc565b60405161067c9190615b87565b60405180910390f35b3480156106925760006000fd5b506106ad60048036038101906106a89190615333565b611d61565b005b3480156106bc5760006000fd5b506106c5611de3565b6040516106d29190615bd2565b60405180910390f35b60006106eb611e7e63ffffffff16565b905080505b90565b610701611ef763ffffffff16565b806008600050819090905550604051610719906155c3565b60405180910390207f3a64504f0bc0c335e2aecb78638a257e0351a3fe0370861fd54ee4190b920933826040516107509190615bd2565b60405180910390a25b5b50565b61076b611ef763ffffffff16565b610779611f8c63ffffffff16565b5b5b565b600060009054906101000a900473ffffffffffffffffffffffffffffffffffffffff1681565b600560005060205280600052604060002060009150909054906101000a900460ff1681565b6107d6611fd663ffffffff16565b6107e46120b563ffffffff16565b6107f66000821161210a63ffffffff16565b6000339050600061080c83611bae63ffffffff16565b9050600b60009054906101000a900473ffffffffffffffffffffffffffffffffffffffff1673ffffffffffffffffffffffffffffffffffffffff166379cc679083856040518363ffffffff1660e01b815260040161086b92919061576e565b600060405180830381600087803b1580156108865760006000fd5b505af115801561089b573d600060003e3d6000fd5b50505050600260009054906101000a900473ffffffffffffffffffffffffffffffffffffffff1673ffffffffffffffffffffffffffffffffffffffff1663b241bbac83836040518363ffffffff1660e01b81526004016108fc92919061576e565b600060405180830381600087803b1580156109175760006000fd5b505af115801561092c573d600060003e3d6000fd5b505050508173ffffffffffffffffffffffffffffffffffffffff167fefc56a1a7590fc4eb13cd40b6a2ceee41f3869c6ea818d20d9a18f2d6315ca188285604051610978929190615be4565b60405180910390a250505b5b61099261215063ffffffff16565b5b50565b600160009054906101000a900473ffffffffffffffffffffffffffffffffffffffff1673ffffffffffffffffffffffffffffffffffffffff163373ffffffffffffffffffffffffffffffffffffffff161415156109f35760006000fd5b600160159054906101000a900460ff16151515610a105760006000fd5b80600060006101000a81548173ffffffffffffffffffffffffffffffffffffffff021916908373ffffffffffffffffffffffffffffffffffffffff160217905550600060009054906101000a900473ffffffffffffffffffffffffffffffffffffffff1673ffffffffffffffffffffffffffffffffffffffff16639624e83e6040518163ffffffff1660e01b815260040160206040518083038186803b158015610aba5760006000fd5b505afa158015610acf573d600060003e3d6000fd5b505050506040513d601f19601f82011682018060405250810190610af391906150b4565b600260006101000a81548173ffffffffffffffffffffffffffffffffffffffff021916908373ffffffffffffffffffffffffffffffffffffffff160217905550600060009054906101000a900473ffffffffffffffffffffffffffffffffffffffff1673ffffffffffffffffffffffffffffffffffffffff1663323741746040518163ffffffff1660e01b815260040160206040518083038186803b158015610b9c5760006000fd5b505afa158015610bb1573d600060003e3d6000fd5b505050506040513d601f19601f82011682018060405250810190610bd59190615102565b600360006101000a81548173ffffffffffffffffffffffffffffffffffffffff021916908373ffffffffffffffffffffffffffffffffffffffff160217905550600060009054906101000a900473ffffffffffffffffffffffffffffffffffffffff1673ffffffffffffffffffffffffffffffffffffffff1663d478b0876040518163ffffffff1660e01b815260040160206040518083038186803b158015610c7e5760006000fd5b505afa158015610c93573d600060003e3d6000fd5b505050506040513d601f19601f82011682018060405250810190610cb7919061519e565b600460006101000a81548173ffffffffffffffffffffffffffffffffffffffff021916908373ffffffffffffffffffffffffffffffffffffffff160217905550610d056121e463ffffffff16565b600160149054906101000a900460ff161515610d4557600160006101000a81549073ffffffffffffffffffffffffffffffffffffffff0219169055610d61565b6001600160156101000a81548160ff0219169083151502179055505b8073ffffffffffffffffffffffffffffffffffffffff167f908408e307fc569b417f6cbec5d5a06f44a0a505ac0479b47d421a4b2fd6a1e660405160405180910390a25b50565b600b60149054906101000a900463ffffffff1681565b600b60009054906101000a900473ffffffffffffffffffffffffffffffffffffffff1681565b6000610df4611fd663ffffffff16565b610e0261273863ffffffff16565b600034111515610e47576040517f08c379a0000000000000000000000000000000000000000000000000000000008152600401610e3e906159e7565b60405180910390fd5b600a60009054906101000a900473ffffffffffffffffffffffffffffffffffffffff1673ffffffffffffffffffffffffffffffffffffffff1663755edd17336040518263ffffffff1660e01b8152600401610ea291906156af565b602060405180830381600087803b158015610ebd5760006000fd5b505af1158015610ed2573d600060003e3d6000fd5b505050506040513d601f19601f82011682018060405250810190610ef691906153ea565b90508050610f02614eb9565b8281610140019063ffffffff16908163ffffffff1681526020015050610f5a610f3b8367ffffffffffffffff168361282d63ffffffff16565b83610f4d87612d03909063ffffffff16565b6000612dac63ffffffff16565b8167ffffffffffffffff163373ffffffffffffffffffffffffffffffffffffffff167f3bac2cc5a46c2a400f0a6b532080f052814635a76bccdecf39397718b2d554dd60405160405180910390a3505b5b610fb961215063ffffffff16565b5b92915050565b60076000505481565b610fd7611ef763ffffffff16565b806009600050819090905550670de0b6b3a7640000600960005054111515156110005760006000fd5b60405161100c90615656565b60405180910390207f3a64504f0bc0c335e2aecb78638a257e0351a3fe0370861fd54ee4190b920933826040516110439190615bd2565b60405180910390a25b5b50565b600060149054906101000a900460ff1681565b611071611fd663ffffffff16565b61107f61273863ffffffff16565b61113c600a60009054906101000a900473ffffffffffffffffffffffffffffffffffffffff1673ffffffffffffffffffffffffffffffffffffffff1663430c208133876040518363ffffffff1660e01b81526004016110df929190615735565b60206040518083038186803b1580156110f85760006000fd5b505afa15801561110d573d600060003e3d6000fd5b505050506040513d601f19601f820116820180604052508101906111319190615044565b6134f563ffffffff16565b60006112058567ffffffffffffffff16600260009054906101000a900473ffffffffffffffffffffffffffffffffffffffff1673ffffffffffffffffffffffffffffffffffffffff16630f85fc5a886040518263ffffffff1660e01b81526004016111a79190615c2d565b6101a06040518083038186803b1580156111c15760006000fd5b505afa1580156111d6573d600060003e3d6000fd5b505050506040513d601f19601f820116820180604052508101906111fa91906151ec565b61282d63ffffffff16565b90508181610140019063ffffffff16908163ffffffff168152602001505061123581868686612dac63ffffffff16565b505b5b61124661215063ffffffff16565b5b50505050565b61125b611fd663ffffffff16565b6112696120b563ffffffff16565b611326600a60009054906101000a900473ffffffffffffffffffffffffffffffffffffffff1673ffffffffffffffffffffffffffffffffffffffff1663430c208133856040518363ffffffff1660e01b81526004016112c9929190615735565b60206040518083038186803b1580156112e25760006000fd5b505afa1580156112f7573d600060003e3d6000fd5b505050506040513d601f19601f8201168201806040525081019061131b9190615044565b6134f563ffffffff16565b60006113ef8367ffffffffffffffff16600260009054906101000a900473ffffffffffffffffffffffffffffffffffffffff1673ffffffffffffffffffffffffffffffffffffffff16630f85fc5a866040518263ffffffff1660e01b81526004016113919190615c2d565b6101a06040518083038186803b1580156113ab5760006000fd5b505afa1580156113c0573d600060003e3d6000fd5b505050506040513d601f19601f820116820180604052508101906113e491906151ec565b61282d63ffffffff16565b90508181610140019063ffffffff16908163ffffffff1681526020015050600260009054906101000a900473ffffffffffffffffffffffffffffffffffffffff1673ffffffffffffffffffffffffffffffffffffffff16635a6beaf484836040518363ffffffff1660e01b815260040161146a929190615c49565b600060405180830381600087803b1580156114855760006000fd5b505af115801561149a573d600060003e3d6000fd5b50505050505b5b6114af61215063ffffffff16565b5b5050565b6114c2611fd663ffffffff16565b6114d061273863ffffffff16565b6114e26000821161210a63ffffffff16565b60003390506114f561353b63ffffffff16565b6000611517611508613df163ffffffff16565b84613f8290919063ffffffff16565b9050600260009054906101000a900473ffffffffffffffffffffffffffffffffffffffff1673ffffffffffffffffffffffffffffffffffffffff16632c73f09e846040518263ffffffff1660e01b81526004016115749190615bd2565b600060405180830381600087803b15801561158f5760006000fd5b505af11580156115a4573d600060003e3d6000fd5b505050506115fe600360009054906101000a900473ffffffffffffffffffffffffffffffffffffffff1683600260009054906101000a900473ffffffffffffffffffffffffffffffffffffffff1686613fa863ffffffff16565b600b60009054906101000a900473ffffffffffffffffffffffffffffffffffffffff1673ffffffffffffffffffffffffffffffffffffffff1663449a52f883836040518363ffffffff1660e01b815260040161165b92919061576e565b600060405180830381600087803b1580156116765760006000fd5b505af115801561168b573d600060003e3d6000fd5b505050508173ffffffffffffffffffffffffffffffffffffffff167f8fff79b574da9a93d7a5408c2fc00c4a9b2b462321c1659b2fbbb9ff3dd221ff84836040516116d7929190615be4565b60405180910390a250505b5b6116f161215063ffffffff16565b5b50565b6117036141d363ffffffff16565b61171161353b63ffffffff16565b5b61172061422e63ffffffff16565b5b565b600a60009054906101000a900473ffffffffffffffffffffffffffffffffffffffff1681565b611757611fd663ffffffff16565b61176561273863ffffffff16565b611822600a60009054906101000a900473ffffffffffffffffffffffffffffffffffffffff1673ffffffffffffffffffffffffffffffffffffffff1663430c208133846040518363ffffffff1660e01b81526004016117c5929190615735565b60206040518083038186803b1580156117de5760006000fd5b505afa1580156117f3573d600060003e3d6000fd5b505050506040513d601f19601f820116820180604052508101906118179190615044565b6134f563ffffffff16565b60006118eb8267ffffffffffffffff16600260009054906101000a900473ffffffffffffffffffffffffffffffffffffffff1673ffffffffffffffffffffffffffffffffffffffff16630f85fc5a856040518263ffffffff1660e01b815260040161188d9190615c2d565b6101a06040518083038186803b1580156118a75760006000fd5b505afa1580156118bc573d600060003e3d6000fd5b505050506040513d601f19601f820116820180604052508101906118e091906151ec565b61282d63ffffffff16565b9050600081610140019063ffffffff16908163ffffffff1681526020015050600260009054906101000a900473ffffffffffffffffffffffffffffffffffffffff1673ffffffffffffffffffffffffffffffffffffffff16635a6beaf483836040518363ffffffff1660e01b8152600401611967929190615c49565b600060405180830381600087803b1580156119825760006000fd5b505af1158015611997573d600060003e3d6000fd5b50505050505b5b6119ac61215063ffffffff16565b5b50565b600b60189054906101000a900467ffffffffffffffff1681565b60086000505481565b6119e1611ef763ffffffff16565b61012c8163ffffffff16101515156119f95760006000fd5b80600b60146101000a81548163ffffffff021916908363ffffffff160217905550604051611a26906155f4565b60405180910390207f6293347933ad2997134e224ac8cd2e39908a4a22aeed9af52127b4bbf765297882604051611a5d9190615c15565b60405180910390a25b5b50565b7f000000000000000000000000000000000000000000000000000000000000000081565b7f000000000000000000000000000000000000000000000000000000000000000081565b600160009054906101000a900473ffffffffffffffffffffffffffffffffffffffff1681565b600160149054906101000a900460ff168015611b005750600160159054906101000a900460ff165b8015611b595750600160009054906101000a900473ffffffffffffffffffffffffffffffffffffffff1673ffffffffffffffffffffffffffffffffffffffff163373ffffffffffffffffffffffffffffffffffffffff16145b1515611b655760006000fd5b600160006101000a81549073ffffffffffffffffffffffffffffffffffffffff0219169055600160156101000a81549060ff0219169055611baa61353b63ffffffff16565b5b5b565b6000611bd0611bc1613df163ffffffff16565b8361423e90919063ffffffff16565b9050611bd7565b919050565b611be4614eb9565b611bf26141d363ffffffff16565b600060009054906101000a900473ffffffffffffffffffffffffffffffffffffffff1673ffffffffffffffffffffffffffffffffffffffff16639622cd8f336040518263ffffffff1660e01b8152600401611c4d91906156af565b60006040518083038186803b158015611c665760006000fd5b505afa158015611c7b573d600060003e3d6000fd5b50505050611d468267ffffffffffffffff16600260009054906101000a900473ffffffffffffffffffffffffffffffffffffffff1673ffffffffffffffffffffffffffffffffffffffff16630f85fc5a856040518263ffffffff1660e01b8152600401611ce89190615c2d565b6101a06040518083038186803b158015611d025760006000fd5b505afa158015611d17573d600060003e3d6000fd5b505050506040513d601f19601f82011682018060405250810190611d3b91906151ec565b61282d63ffffffff16565b9050611d4d565b611d5b61422e63ffffffff16565b5b919050565b611d6f611ef763ffffffff16565b806007600050819090905550670de0b6b3a76400008110151515611d935760006000fd5b604051611d9f90615625565b60405180910390207f3a64504f0bc0c335e2aecb78638a257e0351a3fe0370861fd54ee4190b92093382604051611dd69190615bd2565b60405180910390a25b5b50565b60096000505481565b60006801000000000000000082101515611e71576040517f08c379a00000000000000000000000000000000000000000000000000000000081526004018080602001828103825260118152602001807f6d6f7265207468616e203634206269747300000000000000000000000000000081526020015060200191505060405180910390fd5b819050611e79565b919050565b60007f00000000000000000000000000000000000000000000000000000000000000007f000000000000000000000000000000000000000000000000000000000000000067ffffffffffffffff16611eda61426463ffffffff16565b67ffffffffffffffff16811515611eed57fe5b0403905080505b90565b600060009054906101000a900473ffffffffffffffffffffffffffffffffffffffff1673ffffffffffffffffffffffffffffffffffffffff163373ffffffffffffffffffffffffffffffffffffffff16141515611f89576040517f08c379a0000000000000000000000000000000000000000000000000000000008152600401611f809061592a565b60405180910390fd5b5b565b6001600060146101000a81548160ff0219169083151502179055507f7acc84e34091ae817647a4c49116f5cc07f319078ba80f8f5fde37ea7e25cbd660405160405180910390a15b565b600460009054906101000a900473ffffffffffffffffffffffffffffffffffffffff1673ffffffffffffffffffffffffffffffffffffffff1663e97dcb626040518163ffffffff1660e01b8152600401600060405180830381600087803b1580156120415760006000fd5b505af1158015612056573d600060003e3d6000fd5b505050506002600660005054141515156120a5576040517f08c379a000000000000000000000000000000000000000000000000000000000815260040161209c906159a8565b60405180910390fd5b600260066000508190909055505b565b600060149054906101000a900460ff16151515612107576040517f08c379a00000000000000000000000000000000000000000000000000000000081526004016120fe90615b09565b60405180910390fd5b5b565b80151561214c576040517f08c379a000000000000000000000000000000000000000000000000000000000815260040161214390615969565b60405180910390fd5b5b50565b60016006600050819090905550600460009054906101000a900473ffffffffffffffffffffffffffffffffffffffff1673ffffffffffffffffffffffffffffffffffffffff1663e9fad8ee6040518163ffffffff1660e01b8152600401600060405180830381600087803b1580156121c85760006000fd5b505af11580156121dd573d600060003e3d6000fd5b505050505b565b600060009054906101000a900473ffffffffffffffffffffffffffffffffffffffff1673ffffffffffffffffffffffffffffffffffffffff1663a89f51ae6040518163ffffffff1660e01b815260040160206040518083038186803b15801561224d5760006000fd5b505afa158015612262573d600060003e3d6000fd5b505050506040513d601f19601f820116820180604052508101906122869190615150565b600a60006101000a81548173ffffffffffffffffffffffffffffffffffffffff021916908373ffffffffffffffffffffffffffffffffffffffff160217905550600060009054906101000a900473ffffffffffffffffffffffffffffffffffffffff1673ffffffffffffffffffffffffffffffffffffffff16632cae02696040518163ffffffff1660e01b815260040160206040518083038186803b15801561232f5760006000fd5b505afa158015612344573d600060003e3d6000fd5b505050506040513d601f19601f820116820180604052508101906123689190615129565b600b60006101000a81548173ffffffffffffffffffffffffffffffffffffffff021916908373ffffffffffffffffffffffffffffffffffffffff1602179055506000600a60009054906101000a900473ffffffffffffffffffffffffffffffffffffffff1673ffffffffffffffffffffffffffffffffffffffff1663755edd17600260009054906101000a900473ffffffffffffffffffffffffffffffffffffffff166040518263ffffffff1660e01b81526004016124279190615687565b602060405180830381600087803b1580156124425760006000fd5b505af1158015612457573d600060003e3d6000fd5b505050506040513d601f19601f8201168201806040525081019061247b91906153ea565b67ffffffffffffffff161415156124925760006000fd5b61249a614eb9565b600260009054906101000a900473ffffffffffffffffffffffffffffffffffffffff1673ffffffffffffffffffffffffffffffffffffffff16635a6beaf460006124eb60008561282d63ffffffff16565b6040518363ffffffff1660e01b8152600401612508929190615842565b600060405180830381600087803b1580156125235760006000fd5b505af1158015612538573d600060003e3d6000fd5b505050506000604051806080016040528063ef5e1cac60e01b7bffffffffffffffffffffffffffffffffffffffffffffffffffffffff19167bffffffffffffffffffffffffffffffffffffffffffffffffffffffff1916815260200163c433c80a60e01b7bffffffffffffffffffffffffffffffffffffffffffffffffffffffff19167bffffffffffffffffffffffffffffffffffffffffffffffffffffffff191681526020016306972dcd60e01b7bffffffffffffffffffffffffffffffffffffffffffffffffffffffff19167bffffffffffffffffffffffffffffffffffffffffffffffffffffffff19168152602001635a6127a960e01b7bffffffffffffffffffffffffffffffffffffffffffffffffffffffff19167bffffffffffffffffffffffffffffffffffffffffffffffffffffffff191681526020015090506000600090505b815060048110156127175760016005600050600084846004811015156126a157fe5b60200201517bffffffffffffffffffffffffffffffffffffffffffffffffffffffff19167bffffffffffffffffffffffffffffffffffffffffffffffffffffffff1916815260200190815260200160002060006101000a81548160ff0219169083151502179055505b808060010191505061267f565b506001600160146101000a81548160ff02191690831515021790555050505b565b6127466120b563ffffffff16565b600060009054906101000a900473ffffffffffffffffffffffffffffffffffffffff1673ffffffffffffffffffffffffffffffffffffffff1663bf86d6906040518163ffffffff1660e01b815260040160206040518083038186803b1580156127af5760006000fd5b505afa1580156127c4573d600060003e3d6000fd5b505050506040513d601f19601f820116820180604052508101906127e89190615044565b15151561282a576040517f08c379a00000000000000000000000000000000000000000000000000000000081526004016128219061586d565b60405180910390fd5b5b565b612835614eb9565b600061284561427f63ffffffff16565b905060006128588261437663ffffffff16565b9050600060008560a0015167ffffffffffffffff161461288a576128858560a0015161437663ffffffff16565b61288d565b60005b90508067ffffffffffffffff168267ffffffffffffffff161115156128b757849350505050612cfd565b6128c561353b63ffffffff16565b600061297986600260009054906101000a900473ffffffffffffffffffffffffffffffffffffffff1673ffffffffffffffffffffffffffffffffffffffff166306ef2d806040518163ffffffff1660e01b815260040160806040518083038186803b1580156129345760006000fd5b505afa158015612949573d600060003e3d6000fd5b505050506040513d601f19601f8201168201806040525081019061296d91906152d3565b866143fe63ffffffff16565b8092508196505050600081118015612992575060008714155b15612caf57600073ffffffffffffffffffffffffffffffffffffffff1685610160015173ffffffffffffffffffffffffffffffffffffffff16141580156129e85750600085610180015167ffffffffffffffff16115b15612b19576000612a1186610180015167ffffffffffffffff1683613f8290919063ffffffff16565b9050600060009054906101000a900473ffffffffffffffffffffffffffffffffffffffff1673ffffffffffffffffffffffffffffffffffffffff1663ef7a7cfa876101600151836040518363ffffffff1660e01b8152600401612a7592919061576e565b600060405180830381600087803b158015612a905760006000fd5b505af1158015612aa5573d600060003e3d6000fd5b505050506001151586610160015173ffffffffffffffffffffffffffffffffffffffff167f8079a05488a0f375c08504c3ba8b3a1371f5a192b7a141bc9294ef7ad41389d983604051612af89190615bd2565b60405180910390a3612b13818361456490919063ffffffff16565b91508150505b6000600a60009054906101000a900473ffffffffffffffffffffffffffffffffffffffff1673ffffffffffffffffffffffffffffffffffffffff16636352211e896040518263ffffffff1660e01b8152600401612b769190615bd2565b60206040518083038186803b158015612b8f5760006000fd5b505afa158015612ba4573d600060003e3d6000fd5b505050506040513d601f19601f82011682018060405250810190612bc8919061501d565b9050600060009054906101000a900473ffffffffffffffffffffffffffffffffffffffff1673ffffffffffffffffffffffffffffffffffffffff1663ef7a7cfa82846040518363ffffffff1660e01b8152600401612c2792919061576e565b600060405180830381600087803b158015612c425760006000fd5b505af1158015612c57573d600060003e3d6000fd5b50505050600015158173ffffffffffffffffffffffffffffffffffffffff167f8079a05488a0f375c08504c3ba8b3a1371f5a192b7a141bc9294ef7ad41389d984604051612ca59190615bd2565b60405180910390a3505b8267ffffffffffffffff16877fc99ac0d15229fa72f1b0756c0eed4e7ede3d80f4e4e0d308ce7a56d1366b8a03876040015184604051612cf0929190615be4565b60405180910390a3505050505b92915050565b60007f800000000000000000000000000000000000000000000000000000000000000082101515612d9f576040517f08c379a00000000000000000000000000000000000000000000000000000000081526004018080602001828103825260128152602001807f746f6f2062696720666f7220696e74323536000000000000000000000000000081526020015060200191505060405180910390fd5b819050612da7565b919050565b6000349050600081118015612dc15750600082115b151515612e03576040517f08c379a0000000000000000000000000000000000000000000000000000000008152600401612dfa90615a26565b60405180910390fd5b6000612e1682612d03909063ffffffff16565b90506000811415612e3a57612e3283612d03909063ffffffff16565b600003905080505b612e59600085141580612e4e575060008214155b61210a63ffffffff16565b600084141515613107576000841315612f5b576000849050612e888188604001516145ed90919063ffffffff16565b8760400190908181526020015050612ea461426463ffffffff16565b8760c0019067ffffffffffffffff16908167ffffffffffffffff1681526020015050600260009054906101000a900473ffffffffffffffffffffffffffffffffffffffff1673ffffffffffffffffffffffffffffffffffffffff16632b7c7b11826040518263ffffffff1660e01b8152600401612f219190615bd2565b600060405180830381600087803b158015612f3c5760006000fd5b505af1158015612f51573d600060003e3d6000fd5b5050505050613106565b60008660400151111515612fa4576040517f08c379a0000000000000000000000000000000000000000000000000000000008152600401612f9b90615aca565b60405180910390fd5b612fb261426463ffffffff16565b67ffffffffffffffff16612fe3610708610e10018860c0015167ffffffffffffffff1661467690919063ffffffff16565b67ffffffffffffffff1610151561302f576040517f08c379a0000000000000000000000000000000000000000000000000000000008152600401613026906158eb565b60405180910390fd5b836000038660400151101561305b576130538660400151612d03909063ffffffff16565b600003935083505b836000038660400181815103915090908181526020015050600260009054906101000a900473ffffffffffffffffffffffffffffffffffffffff1673ffffffffffffffffffffffffffffffffffffffff16632a7ba1f7856000036040518263ffffffff1660e01b81526004016130d19190615bd2565b600060405180830381600087803b1580156130ec5760006000fd5b505af1158015613101573d600060003e3d6000fd5b505050505b5b60008114151561316e576000811315613144576131318187602001516145ed90919063ffffffff16565b866020019090818152602001505061316d565b61315e81600003876020015161456490919063ffffffff16565b86602001909081815260200150505b5b600086604001511415156131f8576008600050548660400151101515156131ca576040517f08c379a00000000000000000000000000000000000000000000000000000000081526004016131c190615a8b565b60405180910390fd5b60008112806131d95750600084135b156131f7576131f68660400151876020015161471363ffffffff16565b5b5b600260009054906101000a900473ffffffffffffffffffffffffffffffffffffffff1673ffffffffffffffffffffffffffffffffffffffff16635a6beaf486886040518363ffffffff1660e01b8152600401613255929190615c49565b600060405180830381600087803b1580156132705760006000fd5b505af1158015613285573d600060003e3d6000fd5b505050506000841415156133c857600084131561333257600360009054906101000a900473ffffffffffffffffffffffffffffffffffffffff1673ffffffffffffffffffffffffffffffffffffffff1663449a52f833866040518363ffffffff1660e01b81526004016132f9929190615706565b600060405180830381600087803b1580156133145760006000fd5b505af1158015613329573d600060003e3d6000fd5b505050506133c7565b600360009054906101000a900473ffffffffffffffffffffffffffffffffffffffff1673ffffffffffffffffffffffffffffffffffffffff166379cc679033866000036040518363ffffffff1660e01b8152600401613392929190615706565b600060405180830381600087803b1580156133ad5760006000fd5b505af11580156133c2573d600060003e3d6000fd5b505050505b5b6000811415156134a85760008113156134125761340d600260009054906101000a900473ffffffffffffffffffffffffffffffffffffffff16826148e363ffffffff16565b6134a7565b600260009054906101000a900473ffffffffffffffffffffffffffffffffffffffff1673ffffffffffffffffffffffffffffffffffffffff16636250216933836000036040518363ffffffff1660e01b81526004016134729291906156d7565b600060405180830381600087803b15801561348d5760006000fd5b505af11580156134a2573d600060003e3d6000fd5b505050505b5b8467ffffffffffffffff167f0ed8d38fcfdb338f760ae5cf4b84f9ade387db12ea673e89e8da1b25857cc1c185836040516134e4929190615829565b60405180910390a250505b50505050565b801515613537576040517f08c379a000000000000000000000000000000000000000000000000000000000815260040161352e9061592a565b60405180910390fd5b5b50565b600061354b614a6963ffffffff16565b9050600b60189054906101000a900467ffffffffffffffff1667ffffffffffffffff168167ffffffffffffffff161115156135865750613def565b6000600b60189054906101000a900467ffffffffffffffff16820390506000600260009054906101000a900473ffffffffffffffffffffffffffffffffffffffff1673ffffffffffffffffffffffffffffffffffffffff166306ef2d806040518163ffffffff1660e01b815260040160806040518083038186803b15801561360e5760006000fd5b505afa158015613623573d600060003e3d6000fd5b505050506040513d601f19601f8201168201806040525081019061364791906152d3565b90506000600060009054906101000a900473ffffffffffffffffffffffffffffffffffffffff1673ffffffffffffffffffffffffffffffffffffffff166343f48fbd6040518163ffffffff1660e01b815260040160206040518083038186803b1580156136b45760006000fd5b505afa1580156136c9573d600060003e3d6000fd5b505050506040513d601f19601f820116820180604052508101906136ed91906151c5565b905060006138a983858473ffffffffffffffffffffffffffffffffffffffff1663a0fc0eda6040518163ffffffff1660e01b815260040160206040518083038186803b15801561373d5760006000fd5b505afa158015613752573d600060003e3d6000fd5b505050506040513d601f19601f82011682018060405250810190613776919061534f565b8573ffffffffffffffffffffffffffffffffffffffff16636d7fa6646040518163ffffffff1660e01b815260040160206040518083038186803b1580156137bd5760006000fd5b505afa1580156137d2573d600060003e3d6000fd5b505050506040513d601f19601f820116820180604052508101906137f69190615044565b600360009054906101000a900473ffffffffffffffffffffffffffffffffffffffff1673ffffffffffffffffffffffffffffffffffffffff166375172a8b6040518163ffffffff1660e01b815260040160206040518083038186803b15801561385f5760006000fd5b505afa158015613874573d600060003e3d6000fd5b505050506040513d601f19601f82011682018060405250810190613898919061534f565b600960005054614a8f63ffffffff16565b90506000610e1067ffffffffffffffff16620151808115156138c757fe5b0467ffffffffffffffff166139908667ffffffffffffffff16600060009054906101000a900473ffffffffffffffffffffffffffffffffffffffff1673ffffffffffffffffffffffffffffffffffffffff166383a8641e6040518163ffffffff1660e01b815260040160206040518083038186803b1580156139495760006000fd5b505afa15801561395e573d600060003e3d6000fd5b505050506040513d601f19601f82011682018060405250810190613982919061534f565b614c7d90919063ffffffff16565b81151561399957fe5b0490506040518060800160405280836000015181526020016139c88387602001516145ed90919063ffffffff16565b8152602001613a046139f18867ffffffffffffffff168860000151614c7d90919063ffffffff16565b87604001516145ed90919063ffffffff16565b8152602001836020015181526020015093508350600260009054906101000a900473ffffffffffffffffffffffffffffffffffffffff1673ffffffffffffffffffffffffffffffffffffffff166378efc6b0856040518263ffffffff1660e01b8152600401613a739190615ba1565b600060405180830381600087803b158015613a8e5760006000fd5b505af1158015613aa3573d600060003e3d6000fd5b5050505085600b60186101000a81548167ffffffffffffffff021916908367ffffffffffffffff160217905550600082606001511115613c2857600260009054906101000a900473ffffffffffffffffffffffffffffffffffffffff1673ffffffffffffffffffffffffffffffffffffffff16632c73f09e83606001516040518263ffffffff1660e01b8152600401613b3c9190615bd2565b600060405180830381600087803b158015613b575760006000fd5b505af1158015613b6c573d600060003e3d6000fd5b50505050600360009054906101000a900473ffffffffffffffffffffffffffffffffffffffff1673ffffffffffffffffffffffffffffffffffffffff1663449a52f8600260009054906101000a900473ffffffffffffffffffffffffffffffffffffffff1684606001516040518363ffffffff1660e01b8152600401613bf392919061576e565b600060405180830381600087803b158015613c0e5760006000fd5b505af1158015613c23573d600060003e3d6000fd5b505050505b600082604001511115613ced57600360009054906101000a900473ffffffffffffffffffffffffffffffffffffffff1673ffffffffffffffffffffffffffffffffffffffff1663449a52f8600360009054906101000a900473ffffffffffffffffffffffffffffffffffffffff1684604001516040518363ffffffff1660e01b8152600401613cb892919061576e565b600060405180830381600087803b158015613cd35760006000fd5b505af1158015613ce8573d600060003e3d6000fd5b505050505b600082608001511115613d8e57600360009054906101000a900473ffffffffffffffffffffffffffffffffffffffff1673ffffffffffffffffffffffffffffffffffffffff1663c59fb1ab83608001516040518263ffffffff1660e01b8152600401613d599190615bd2565b600060405180830381600087803b158015613d745760006000fd5b505af1158015613d89573d600060003e3d6000fd5b505050505b8567ffffffffffffffff167fdfc2183705a66b49f12c66a6d3b2fa5cf3b7c67086e9c6e90d144befc94f436c868660000151876020015188604001518960600151604051613de0959493929190615c74565b60405180910390a25050505050505b565b60006000600260009054906101000a900473ffffffffffffffffffffffffffffffffffffffff1673ffffffffffffffffffffffffffffffffffffffff16637f250c616040518163ffffffff1660e01b815260040160206040518083038186803b158015613e5e5760006000fd5b505afa158015613e73573d600060003e3d6000fd5b505050506040513d601f19601f82011682018060405250810190613e97919061534f565b90506000600b60009054906101000a900473ffffffffffffffffffffffffffffffffffffffff1673ffffffffffffffffffffffffffffffffffffffff166318160ddd6040518163ffffffff1660e01b815260040160206040518083038186803b158015613f045760006000fd5b505afa158015613f19573d600060003e3d6000fd5b505050506040513d601f19601f82011682018060405250810190613f3d919061534f565b90506000811480613f4e5750600082145b613f6a57613f65828261423e90919063ffffffff16565b613f74565b670de0b6b3a76400005b92505050613f7f5650505b90565b6000613f9d8383670de0b6b3a7640000614d1b63ffffffff16565b905080505b92915050565b600060008573ffffffffffffffffffffffffffffffffffffffff166323b872dd60e01b868686604051602401808473ffffffffffffffffffffffffffffffffffffffff1681526020018373ffffffffffffffffffffffffffffffffffffffff1681526020018281526020019350505050604051602081830303815290604052907bffffffffffffffffffffffffffffffffffffffffffffffffffffffff19166020820180517bffffffffffffffffffffffffffffffffffffffffffffffffffffffff83818316178352505050506040518082805190602001908083835b6020831015156140ab57805182525b602082019150602081019050602083039250614085565b6001836020036101000a0380198251168184511680821785525050505050509050019150506000604051808303816000865af19150503d806000811461410d576040519150601f19603f3d011682016040523d82523d6000602084013e614112565b606091505b5091509150818015614153575060008151148061415257508080602001905160208110156141405760006000fd5b81019080805190602001909291905050505b5b15156141ca576040517f08c379a00000000000000000000000000000000000000000000000000000000081526004018080602001828103825260038152602001807f535446000000000000000000000000000000000000000000000000000000000081526020015060200191505060405180910390fd5b50505b50505050565b60026006600050541415151561421e576040517f08c379a0000000000000000000000000000000000000000000000000000000008152600401614215906158ac565b60405180910390fd5b600260066000508190909055505b565b600160066000508190909055505b565b600061425983670de0b6b3a764000084614d1b63ffffffff16565b905080505b92915050565b600061427742611dec909063ffffffff16565b905080505b90565b600061428f61426463ffffffff16565b905080506000600060009054906101000a900473ffffffffffffffffffffffffffffffffffffffff1673ffffffffffffffffffffffffffffffffffffffff1663585690816040518163ffffffff1660e01b815260040160206040518083038186803b1580156142fe5760006000fd5b505afa158015614313573d600060003e3d6000fd5b505050506040513d601f19601f8201168201806040525081019061433791906153ea565b905060008167ffffffffffffffff1611801561436657508167ffffffffffffffff168167ffffffffffffffff16105b156143715780915081505b505b90565b60006143f47f00000000000000000000000000000000000000000000000000000000000000007f000000000000000000000000000000000000000000000000000000000000000067ffffffffffffffff168467ffffffffffffffff168115156143db57fe5b0467ffffffffffffffff16614e1c90919063ffffffff16565b905080505b919050565b614406614eb9565b6000849150815060008260a0015167ffffffffffffffff1611801561442f575060008260400151115b156144ff57614455846060015183606001518460400151614d1b9092919063ffffffff16565b82604001909081815260200150506144fa6144878360a001518567ffffffffffffffff16614e1c90919063ffffffff16565b67ffffffffffffffff16610e1067ffffffffffffffff166144eb6144bc8660800151896020015161456490919063ffffffff16565b6144d787600001518a6040015161456490919063ffffffff16565b8760400151614d1b9092919063ffffffff16565b614d1b9092919063ffffffff16565b905080505b836060015182606001909081815260200150508360200151826080019090818152602001505083604001518260000190908181526020015050828260a0019067ffffffffffffffff16908167ffffffffffffffff16815260200150505b935093915050565b600082828403915081111515156145e6576040517f08c379a000000000000000000000000000000000000000000000000000000000815260040180806020018281038252600d8152602001807f7375622d756e646572666c6f770000000000000000000000000000000000000081526020015060200191505060405180910390fd5b5b92915050565b6000828284019150811015151561466f576040517f08c379a000000000000000000000000000000000000000000000000000000000815260040180806020018281038252600c8152602001807f6164642d6f766572666c6f77000000000000000000000000000000000000000081526020015060200191505060405180910390fd5b5b92915050565b60008267ffffffffffffffff1682840191508167ffffffffffffffff161015151561470c576040517f08c379a000000000000000000000000000000000000000000000000000000000815260040180806020018281038252600c8152602001807f6164642d6f766572666c6f77000000000000000000000000000000000000000081526020015060200191505060405180910390fd5b5b92915050565b600160159054906101000a900460ff161561472d576148df565b6000600060009054906101000a900473ffffffffffffffffffffffffffffffffffffffff1673ffffffffffffffffffffffffffffffffffffffff1663d3419bf36040518163ffffffff1660e01b815260040160206040518083038186803b1580156147985760006000fd5b505afa1580156147ad573d600060003e3d6000fd5b505050506040513d601f19601f820116820180604052508101906147d19190615177565b73ffffffffffffffffffffffffffffffffffffffff1663fa42dcf4600b60149054906101000a900463ffffffff166040518263ffffffff1660e01b815260040161481b9190615bfd565b60206040518083038186803b1580156148345760006000fd5b505afa158015614849573d600060003e3d6000fd5b505050506040513d601f19601f8201168201806040525081019061486d919061534f565b905061488783600760005054614c7d90919063ffffffff16565b61489a8284614c7d90919063ffffffff16565b101515156148dd576040517f08c379a00000000000000000000000000000000000000000000000000000000081526004016148d490615b48565b60405180910390fd5b505b5050565b60008273ffffffffffffffffffffffffffffffffffffffff1682600067ffffffffffffffff811180156149165760006000fd5b506040519080825280601f01601f1916602001820160405280156149495781602001600182028036833780820191505090505b506040518082805190602001908083835b60208310151561498057805182525b60208201915060208101905060208303925061495a565b6001836020036101000a03801982511681845116808217855250505050505090500191505060006040518083038185875af1925050503d80600081146149e2576040519150601f19603f3d011682016040523d82523d6000602084013e6149e7565b606091505b50509050801515614a63576040517f08c379a00000000000000000000000000000000000000000000000000000000081526004018080602001828103825260038152602001807f535445000000000000000000000000000000000000000000000000000000000081526020015060200191505060405180910390fd5b505b5050565b6000614a87614a7c61427f63ffffffff16565b61437663ffffffff16565b905080505b90565b614a97614f6d565b6000851415614ace578660000151816000019090818152602001505086606001518160200190908181526020015050809050614c73565b6000614b148767ffffffffffffffff16610e1067ffffffffffffffff166301e13380811515614af957fe5b0467ffffffffffffffff1688614d1b9092919063ffffffff16565b9050600085614b3d57614b3882670de0b6b3a764000061456490919063ffffffff16565b614b59565b614b5882670de0b6b3a76400006145ed90919063ffffffff16565b5b9050614b72818a60600151613f8290919063ffffffff16565b8360200190908181526020015050614ba183602001518a606001518b60000151614d1b9092919063ffffffff16565b8360000190908181526020015050886000015183600001511115614c0a57600089600001518460000151039050614be18582613f8290919063ffffffff16565b846060019090818152602001505083606001518103846040019090818152602001505050614c70565b886000015183600001511015614c6f57600083600001518a600001510390508581101515614c5d578960000151846000019090818152602001505089606001518460200190908181526020015050614c6d565b8084608001909081815260200150505b505b5b50505b9695505050505050565b60006000821480614c9d57508282838502925082811515614c9a57fe5b04145b1515614d14576040517f08c379a000000000000000000000000000000000000000000000000000000000815260040180806020018281038252600c8152602001807f6d756c2d6f766572666c6f77000000000000000000000000000000000000000081526020015060200191505060405180910390fd5b5b92915050565b6000600060006000198587098587029250828110838203039150506000811415614d5e57600084111515614d4f5760006000fd5b83820492508292505050614e15565b8084111515614d6d5760006000fd5b6000848688099050828111820391508083039250600085866000031690508086049550808404935060018182600003040190508083028417935083506000600287600302189050808702600203810290508050808702600203810290508050808702600203810290508050808702600203810290508050808702600203810290508050808702600203810290508050808502955085508595505050505050614e155650505050505b9392505050565b60008267ffffffffffffffff1682840391508167ffffffffffffffff1611151515614eb2576040517f08c379a000000000000000000000000000000000000000000000000000000000815260040180806020018281038252600d8152602001807f7375622d756e646572666c6f770000000000000000000000000000000000000081526020015060200191505060405180910390fd5b5b92915050565b604051806101a001604052806000815260200160008152602001600081526020016000815260200160008152602001600067ffffffffffffffff168152602001600067ffffffffffffffff168152602001600060020b8152602001600015158152602001600067ffffffffffffffff168152602001600063ffffffff168152602001600073ffffffffffffffffffffffffffffffffffffffff168152602001600067ffffffffffffffff1681526020015090565b6040518060a001604052806000815260200160008152602001600081526020016000815260200160008152602001509056615d36565b600081519050614fb281615cd7565b5b919050565b60008151905080151581141515614fcf5760006000fd5b5b919050565b6000815190508060020b81141515614fed5760006000fd5b5b919050565b60008151905061500281615d00565b5b919050565b60008151905061501781615d19565b5b919050565b60006020828403121561502e578081fd5b815161503981615cd7565b809150505b92915050565b600060208284031215615055578081fd5b61505e82614fb8565b90505b92915050565b600060208284031215615078578081fd5b81357fffffffff000000000000000000000000000000000000000000000000000000008116811415156150a9578182fd5b809150505b92915050565b6000602082840312156150c5578081fd5b81516150d081615cd7565b809150505b92915050565b6000602082840312156150ec578081fd5b81356150f781615cd7565b809150505b92915050565b600060208284031215615113578081fd5b815161511e81615cd7565b809150505b92915050565b60006020828403121561513a578081fd5b815161514581615cd7565b809150505b92915050565b600060208284031215615161578081fd5b815161516c81615cd7565b809150505b92915050565b600060208284031215615188578081fd5b815161519381615cd7565b809150505b92915050565b6000602082840312156151af578081fd5b81516151ba81615cd7565b809150505b92915050565b6000602082840312156151d6578081fd5b81516151e181615cd7565b809150505b92915050565b60006101a08083850312156151ff578182fd5b61520881615cac565b9050825181526020830151602082015260408301516040820152606083015160608201526080830151608082015261524260a08401615008565b60a082015261525360c08401615008565b60c082015261526460e08401614fd5565b60e0820152610100615277818501614fb8565b818301525061012061528a818501615008565b818301525061014061529d818501614ff3565b81830152506101606152b0818501614fa3565b81830152506101806152c3818501615008565b8183015250809150505b92915050565b6000608082840312156152e4578081fd5b6040516080810181811067ffffffffffffffff8211171561530157fe5b806040525082518152602083015160208201526040830151604082015260608301516060820152809150505b92915050565b600060208284031215615344578081fd5b813590505b92915050565b600060208284031215615360578081fd5b815190505b92915050565b600060006040838503121561537e578081fd5b82359150602083013561539081615d00565b809150505b9250929050565b6000602082840312156153ad578081fd5b81356153b881615d00565b809150505b92915050565b6000602082840312156153d4578081fd5b81356153df81615d19565b809150505b92915050565b6000602082840312156153fb578081fd5b815161540681615d19565b809150505b92915050565b600060006000600060808587031215615428578182fd5b843561543381615d19565b809450506020850135925060408501359150606085013561545381615d00565b809150505b92959194509250565b6000600060408385031215615474578182fd5b823561547f81615d19565b80925050602083013561549181615d00565b809150505b9250929050565b73ffffffffffffffffffffffffffffffffffffffff811682525b5050565b80151582525b5050565b8060020b82525b5050565b805182526020810151602083015260408101516040830152606081015160608301526080810151608083015260a081015161550e60a08401826155b1565b5060c081015161552160c08401826155b1565b5060e081015161553460e08401826154c5565b5061010080820151615548828501826154bb565b50506101208082015161555d828501826155b1565b505061014080820151615572828501826155a3565b5050610160808201516155878285018261549d565b50506101808082015161559c828501826155b1565b50505b5050565b63ffffffff811682525b5050565b67ffffffffffffffff811682525b5050565b60007f6d696e506f736974696f6e53697a6500000000000000000000000000000000008252600f820190505b919050565b60007f747761704475726174696f6e00000000000000000000000000000000000000008252600c820190505b919050565b60007f636f6c6c61746572616c697a6174696f6e526571756972656d656e74000000008252601c820190505b919050565b60007f696e746572657374506f7274696f6e546f4c656e64657273000000000000000082526018820190505b919050565b600060208201905073ffffffffffffffffffffffffffffffffffffffff831682525b92915050565b600060208201905073ffffffffffffffffffffffffffffffffffffffff831682525b92915050565b600060408201905073ffffffffffffffffffffffffffffffffffffffff841682528260208301525b9392505050565b600060408201905073ffffffffffffffffffffffffffffffffffffffff841682528260208301525b9392505050565b600060408201905073ffffffffffffffffffffffffffffffffffffffff8416825267ffffffffffffffff831660208301525b9392505050565b600060408201905073ffffffffffffffffffffffffffffffffffffffff841682528260208301525b9392505050565b600060208201905082151582525b92915050565b600060208201905073ffffffffffffffffffffffffffffffffffffffff831682525b92915050565b600060208201905073ffffffffffffffffffffffffffffffffffffffff831682525b92915050565b600060208201905073ffffffffffffffffffffffffffffffffffffffff831682525b92915050565b60006040820190508382528260208301525b9392505050565b60006101c08201905067ffffffffffffffff8416825261586560208301846154d0565b5b9392505050565b600060208252601160208301527f50726f746f636f6c2073687574646f776e00000000000000000000000000000060408301526060820190505b919050565b600060208252600d60208301527f4c43205265656e7472616e63790000000000000000000000000000000000000060408301526060820190505b919050565b600060208252600f60208301527f4e6f20666c61736820626f72726f77000000000000000000000000000000000060408301526060820190505b919050565b600060208252600e60208301527f4e6f7420417574686f72697a656400000000000000000000000000000000000060408301526060820190505b919050565b600060208252600460208301527f4e6f6f700000000000000000000000000000000000000000000000000000000060408301526060820190505b919050565b600060208252600d60208301527f4c50205265656e7472616e63790000000000000000000000000000000000000060408301526060820190505b919050565b600060208252601360208301527f4d7573742061646420636f6c6c61746572616c0000000000000000000000000060408301526060820190505b919050565b600060208252602360208301527f43616e7420696e637265617365202620646563726561736520636f6c6c61746560408301527f72616c000000000000000000000000000000000000000000000000000000000060608301526080820190505b919050565b600060208252601260208301527f506f736974696f6e20746f6f20736d616c6c000000000000000000000000000060408301526060820190505b919050565b600060208252601360208301527f4e6f206465627420746f20706179206261636b0000000000000000000000000060408301526060820190505b919050565b600060208252601360208301527f436f6e74726163742069732073746f707065640000000000000000000000000060408301526060820190505b919050565b600060208252601760208301527f496e73756666696369656e7420636f6c6c61746572616c00000000000000000060408301526060820190505b919050565b60006101a082019050615b9a82846154d0565b5b92915050565b6000608082019050825182526020830151602083015260408301516040830152606083015160608301525b92915050565b60006020820190508282525b92915050565b60006040820190508382528260208301525b9392505050565b600060208201905063ffffffff831682525b92915050565b600060208201905063ffffffff831682525b92915050565b600060208201905067ffffffffffffffff831682525b92915050565b60006101c08201905067ffffffffffffffff84168252615c6c60208301846154d0565b5b9392505050565b600060a08201905067ffffffffffffffff871682528560208301528460408301528360608301528260808301525b9695505050505050565b6000604051905081810181811067ffffffffffffffff82111715615ccc57fe5b80604052505b919050565b73ffffffffffffffffffffffffffffffffffffffff811681141515615cfc5760006000fd5b5b50565b63ffffffff811681141515615d155760006000fd5b5b50565b67ffffffffffffffff811681141515615d325760006000fd5b5b50565bfea2646970667358221220e2ef931ddcc9813625806fbc5d2af6d0c6a6b79d5243817c673b401c93aa8e5364736f6c63430007060033",
  "linkReferences": {},
  "deployedLinkReferences": {}
}