{
  "_format": "hh-sol-artifact-1",
  "contractName": "Market",
  "sourceName": "contracts/core/logic/Market.sol",
  "abi": [
    {
      "inputs": [],
      "stateMutability": "nonpayable",
      "type": "constructor"
    },
    {
      "anonymous": false,
      "inputs": [
        {
          "indexed": true,
          "internalType": "address",
          "name": "governor",
          "type": "address"
        }
      ],
      "name": "Initialized",
      "type": "event"
    },
    {
      "anonymous": false,
      "inputs": [
        {
          "indexed": true,
          "internalType": "uint64",
          "name": "period",
          "type": "uint64"
        },
        {
          "indexed": false,
          "internalType": "uint64",
          "name": "periods",
          "type": "uint64"
        },
        {
          "indexed": false,
          "internalType": "uint256",
          "name": "newDebt",
          "type": "uint256"
        },
        {
          "indexed": false,
          "internalType": "uint256",
          "name": "rewardCount",
          "type": "uint256"
        },
        {
          "indexed": false,
          "internalType": "uint256",
          "name": "cumulativeDebt",
          "type": "uint256"
        },
        {
          "indexed": false,
          "internalType": "uint256",
          "name": "debtExchangeRate",
          "type": "uint256"
        }
      ],
      "name": "InterestAccrued",
      "type": "event"
    },
    {
      "anonymous": false,
      "inputs": [
        {
          "indexed": true,
          "internalType": "address",
          "name": "creator",
          "type": "address"
        },
        {
          "indexed": true,
          "internalType": "uint64",
          "name": "positionID",
          "type": "uint64"
        }
      ],
      "name": "NewPositionCreated",
      "type": "event"
    },
    {
      "anonymous": false,
      "inputs": [
        {
          "indexed": true,
          "internalType": "string",
          "name": "paramName",
          "type": "string"
        },
        {
          "indexed": false,
          "internalType": "uint256",
          "name": "value",
          "type": "uint256"
        }
      ],
      "name": "ParameterUpdated",
      "type": "event"
    },
    {
      "anonymous": false,
      "inputs": [
        {
          "indexed": true,
          "internalType": "string",
          "name": "paramName",
          "type": "string"
        },
        {
          "indexed": false,
          "internalType": "uint64",
          "name": "value",
          "type": "uint64"
        }
      ],
      "name": "ParameterUpdated64",
      "type": "event"
    },
    {
      "anonymous": false,
      "inputs": [
        {
          "indexed": true,
          "internalType": "uint64",
          "name": "positionID",
          "type": "uint64"
        },
        {
          "indexed": false,
          "internalType": "int256",
          "name": "debtChange",
          "type": "int256"
        },
        {
          "indexed": false,
          "internalType": "int256",
          "name": "collateralChange",
          "type": "int256"
        }
      ],
      "name": "PositionAdjusted",
      "type": "event"
    },
    {
      "anonymous": false,
      "inputs": [
        {
          "indexed": true,
          "internalType": "uint256",
          "name": "positionID",
          "type": "uint256"
        },
        {
          "indexed": true,
          "internalType": "uint64",
          "name": "period",
          "type": "uint64"
        },
        {
          "indexed": false,
          "internalType": "uint256",
          "name": "debtAfter",
          "type": "uint256"
        },
        {
          "indexed": false,
          "internalType": "uint256",
          "name": "cnpRewards",
          "type": "uint256"
        }
      ],
      "name": "PositionUpdated",
      "type": "event"
    },
    {
      "anonymous": false,
      "inputs": [],
      "name": "Stopped",
      "type": "event"
    },
    {
      "inputs": [],
      "name": "accrueInterest",
      "outputs": [],
      "stateMutability": "nonpayable",
      "type": "function"
    },
    {
      "inputs": [
        {
          "internalType": "uint64",
          "name": "positionID",
          "type": "uint64"
        },
        {
          "internalType": "int256",
          "name": "debtChange",
          "type": "int256"
        },
        {
          "internalType": "uint256",
          "name": "collateralDecrease",
          "type": "uint256"
        }
      ],
      "name": "adjustPosition",
      "outputs": [],
      "stateMutability": "payable",
      "type": "function"
    },
    {
      "inputs": [
        {
          "internalType": "uint64",
          "name": "positionID",
          "type": "uint64"
        }
      ],
      "name": "claimRewards",
      "outputs": [],
      "stateMutability": "nonpayable",
      "type": "function"
    },
    {
      "inputs": [],
      "name": "collateralizationRequirement",
      "outputs": [
        {
          "internalType": "uint256",
          "name": "",
          "type": "uint256"
        }
      ],
      "stateMutability": "view",
      "type": "function"
    },
    {
      "inputs": [
        {
          "components": [
            {
              "internalType": "uint8",
              "name": "v",
              "type": "uint8"
            },
            {
              "internalType": "bytes32",
              "name": "r",
              "type": "bytes32"
            },
            {
              "internalType": "bytes32",
              "name": "s",
              "type": "bytes32"
            }
          ],
          "internalType": "struct IGovernor.GenesisAuth",
          "name": "ga",
          "type": "tuple"
        }
      ],
      "name": "createGenesisPosition",
      "outputs": [
        {
          "internalType": "uint64",
          "name": "positionID",
          "type": "uint64"
        }
      ],
      "stateMutability": "payable",
      "type": "function"
    },
    {
      "inputs": [
        {
          "internalType": "uint256",
          "name": "initialDebt",
          "type": "uint256"
        }
      ],
      "name": "createPosition",
      "outputs": [
        {
          "internalType": "uint64",
          "name": "positionID",
          "type": "uint64"
        }
      ],
      "stateMutability": "payable",
      "type": "function"
    },
    {
      "inputs": [],
      "name": "currentPeriod",
      "outputs": [
        {
          "internalType": "uint64",
          "name": "period",
          "type": "uint64"
        }
      ],
      "stateMutability": "view",
      "type": "function"
    },
    {
      "inputs": [],
      "name": "deployer",
      "outputs": [
        {
          "internalType": "address",
          "name": "",
          "type": "address"
        }
      ],
      "stateMutability": "view",
      "type": "function"
    },
    {
      "inputs": [],
      "name": "firstPeriod",
      "outputs": [
        {
          "internalType": "uint64",
          "name": "",
          "type": "uint64"
        }
      ],
      "stateMutability": "view",
      "type": "function"
    },
    {
      "inputs": [],
      "name": "governor",
      "outputs": [
        {
          "internalType": "contract IGovernor",
          "name": "",
          "type": "address"
        }
      ],
      "stateMutability": "view",
      "type": "function"
    },
    {
      "inputs": [
        {
          "internalType": "contract IGovernor",
          "name": "_governor",
          "type": "address"
        }
      ],
      "name": "init",
      "outputs": [],
      "stateMutability": "nonpayable",
      "type": "function"
    },
    {
      "inputs": [],
      "name": "interestPortionToLenders",
      "outputs": [
        {
          "internalType": "uint256",
          "name": "",
          "type": "uint256"
        }
      ],
      "stateMutability": "view",
      "type": "function"
    },
    {
      "inputs": [],
      "name": "lastPeriodGlobalInterestAccrued",
      "outputs": [
        {
          "internalType": "uint64",
          "name": "",
          "type": "uint64"
        }
      ],
      "stateMutability": "view",
      "type": "function"
    },
    {
      "inputs": [],
      "name": "minBorrowTime",
      "outputs": [
        {
          "internalType": "uint64",
          "name": "",
          "type": "uint64"
        }
      ],
      "stateMutability": "view",
      "type": "function"
    },
    {
      "inputs": [],
      "name": "minCollateralToDebtRatio",
      "outputs": [
        {
          "internalType": "uint256",
          "name": "",
          "type": "uint256"
        }
      ],
      "stateMutability": "view",
      "type": "function"
    },
    {
      "inputs": [],
      "name": "minPositionSize",
      "outputs": [
        {
          "internalType": "uint256",
          "name": "",
          "type": "uint256"
        }
      ],
      "stateMutability": "view",
      "type": "function"
    },
    {
      "inputs": [],
      "name": "periodLength",
      "outputs": [
        {
          "internalType": "uint64",
          "name": "",
          "type": "uint64"
        }
      ],
      "stateMutability": "view",
      "type": "function"
    },
    {
      "inputs": [
        {
          "internalType": "uint64",
          "name": "positionID",
          "type": "uint64"
        }
      ],
      "name": "removeGenesisPosition",
      "outputs": [],
      "stateMutability": "nonpayable",
      "type": "function"
    },
    {
      "inputs": [
        {
          "internalType": "uint256",
          "name": "requirement",
          "type": "uint256"
        }
      ],
      "name": "setCollateralizationRequirement",
      "outputs": [],
      "stateMutability": "nonpayable",
      "type": "function"
    },
    {
      "inputs": [
        {
          "internalType": "uint256",
          "name": "percentage",
          "type": "uint256"
        }
      ],
      "name": "setInterestPortionToLenders",
      "outputs": [],
      "stateMutability": "nonpayable",
      "type": "function"
    },
    {
      "inputs": [
        {
          "internalType": "uint64",
          "name": "time",
          "type": "uint64"
        }
      ],
      "name": "setMinBorrowTime",
      "outputs": [],
      "stateMutability": "nonpayable",
      "type": "function"
    },
    {
      "inputs": [
        {
          "internalType": "uint256",
          "name": "size",
          "type": "uint256"
        }
      ],
      "name": "setMinPositionSize",
      "outputs": [],
      "stateMutability": "nonpayable",
      "type": "function"
    },
    {
      "inputs": [],
      "name": "stop",
      "outputs": [],
      "stateMutability": "nonpayable",
      "type": "function"
    },
    {
      "inputs": [],
      "name": "stopped",
      "outputs": [
        {
          "internalType": "bool",
          "name": "",
          "type": "bool"
        }
      ],
      "stateMutability": "view",
      "type": "function"
    },
    {
      "inputs": [
        {
          "internalType": "uint64",
          "name": "positionID",
          "type": "uint64"
        }
      ],
      "name": "systemGetUpdatedPosition",
      "outputs": [
        {
          "components": [
            {
              "internalType": "uint256",
              "name": "startCumulativeDebt",
              "type": "uint256"
            },
            {
              "internalType": "uint256",
              "name": "collateral",
              "type": "uint256"
            },
            {
              "internalType": "uint256",
              "name": "debt",
              "type": "uint256"
            },
            {
              "internalType": "uint256",
              "name": "startDebtExchangeRate",
              "type": "uint256"
            },
            {
              "internalType": "uint256",
              "name": "startCNPRewards",
              "type": "uint256"
            },
            {
              "internalType": "uint64",
              "name": "lastTimeUpdated",
              "type": "uint64"
            },
            {
              "internalType": "uint64",
              "name": "lastBorrowTime",
              "type": "uint64"
            },
            {
              "internalType": "uint32",
              "name": "collateralizationBand",
              "type": "uint32"
            },
            {
              "internalType": "uint64",
              "name": "collateralizationBandIndex",
              "type": "uint64"
            }
          ],
          "internalType": "struct IAccounting.DebtPosition",
          "name": "position",
          "type": "tuple"
        }
      ],
      "stateMutability": "nonpayable",
      "type": "function"
    },
    {
      "inputs": [
        {
          "internalType": "uint256",
          "name": "price",
          "type": "uint256"
        }
      ],
      "name": "systemNotifyCollateralPriceUpdated",
      "outputs": [],
      "stateMutability": "nonpayable",
      "type": "function"
    },
    {
      "inputs": [
        {
          "internalType": "bytes4",
          "name": "",
          "type": "bytes4"
        }
      ],
      "name": "validUpdate",
      "outputs": [
        {
          "internalType": "bool",
          "name": "",
          "type": "bool"
        }
      ],
      "stateMutability": "view",
      "type": "function"
    }
  ],
  "bytecode": "0x60c0604052600160066000509090556714d1120d7b160000600760005090905568878678326eac90000060096000509090556702c68af0bb140000600a600050909055610708600b60006101000a81548167ffffffffffffffff021916908367ffffffffffffffff1602179055506001600b60086101000a81548167ffffffffffffffff021916908367ffffffffffffffff160217905550348015620000a55760006000fd5b505b6138405b5b33600160006101000a81548173ffffffffffffffffffffffffffffffffffffffff021916908373ffffffffffffffffffffffffffffffffffffffff1602179055505b60018167ffffffffffffffff166200010b6200016d60201b60201c565b67ffffffffffffffff168115156200011f57fe5b040367ffffffffffffffff1660a08167ffffffffffffffff1660c01b815260080150508067ffffffffffffffff1660808167ffffffffffffffff1660c01b815260080150505b505b62000204565b600062000187426200018f60201b62001d8a17909060201c565b905080505b90565b60006801000000000000000082101515620001f6576040517f08c379a000000000000000000000000000000000000000000000000000000000815260040180806020018281038252602681526020018062005ba26026913960400191505060405180910390fd5b819050620001ff565b919050565b60805160c01c60a05160c01c61596062000242600039806116815280611e005280613e145250806116a55280611e215280613e3552506159606000f3fe6080604052600436106101b05760003560e01c8063a6afed95116100ec578063c4e3a63b1161008a578063e6e40afd11610064578063e6e40afd14610580578063eb6843ce146105aa578063ef5e1cac146105e8578063f6979f2914610612576101b0565b8063c4e3a63b146104fc578063d2ca211514610528578063d5f3948814610554576101b0565b8063ade89a64116100c6578063ade89a641461044a578063b6ae213a1461047a578063bb8313c2146104a6578063c2cb0288146104d2576101b0565b8063a6afed95146103de578063a76e2ca5146103f6578063ad51d9ff14610420576101b0565b80633f616330116101595780635a6127a9116101335780635a6127a91461032c5780636ea1cbb81461035657806375f12b211461038257806383730cc3146103ae576101b0565b80633f616330146102b857806353bb670c146102e45780635658c01214610300576101b0565b80630c340a241161018a5780630c340a2414610224578063113cf1ab1461025057806319ab453c1461028e576101b0565b806306040618146101b657806306972dcd146101e257806307da68f51461020c576101b0565b60006000fd5b3480156101c35760006000fd5b506101cc61063e565b6040516101d991906157d5565b60405180910390f35b3480156101ef5760006000fd5b5061020a60048036038101906102059190614e94565b610656565b005b3480156102195760006000fd5b506102226106c0565b005b3480156102315760006000fd5b5061023a6106e0565b604051610247919061528a565b60405180910390f35b34801561025d5760006000fd5b5061027860048036038101906102739190614b66565b610706565b6040516102859190615276565b60405180910390f35b34801561029b5760006000fd5b506102b660048036038101906102b19190614c01565b61072b565b005b3480156102c55760006000fd5b506102ce610ae9565b6040516102db91906157d5565b60405180910390f35b6102fe60048036038101906102f99190614f1a565b610b03565b005b34801561030d5760006000fd5b50610316610dba565b60405161032391906157aa565b60405180910390f35b3480156103395760006000fd5b50610354600480360381019061034f9190614e94565b610dc3565b005b3480156103635760006000fd5b5061036c610e4a565b60405161037991906157aa565b60405180910390f35b34801561038f5760006000fd5b50610398610e53565b6040516103a59190615276565b60405180910390f35b6103c860048036038101906103c39190614e94565b610e66565b6040516103d591906157d5565b60405180910390f35b3480156103eb5760006000fd5b506103f4610f9f565b005b3480156104035760006000fd5b5061041e60048036038101906104199190614ecc565b610fcd565b005b34801561042d5760006000fd5b5061044860048036038101906104439190614ecc565b611211565b005b610464600480360381019061045f9190614dd4565b611298565b60405161047191906157d5565b60405180910390f35b3480156104875760006000fd5b50610490611557565b60405161049d91906157d5565b60405180910390f35b3480156104b35760006000fd5b506104bc611571565b6040516104c991906157aa565b60405180910390f35b3480156104df5760006000fd5b506104fa60048036038101906104f59190614e94565b61157a565b005b3480156105095760006000fd5b5061051261167f565b60405161051f91906157d5565b60405180910390f35b3480156105355760006000fd5b5061053e6116a3565b60405161054b91906157d5565b60405180910390f35b3480156105615760006000fd5b5061056a6116c7565b604051610577919061510c565b60405180910390f35b34801561058d5760006000fd5b506105a860048036038101906105a39190614ecc565b6116ed565b005b3480156105b75760006000fd5b506105d260048036038101906105cd9190614ecc565b611a54565b6040516105df919061575f565b60405180910390f35b3480156105f55760006000fd5b50610610600480360381019061060b9190614e94565b611cff565b005b34801561061f5760006000fd5b50610628611d81565b60405161063591906157aa565b60405180910390f35b600061064e611dfc63ffffffff16565b905080505b90565b610664611e7563ffffffff16565b80600960005081909090555060405161067c90615048565b60405180910390207f3a64504f0bc0c335e2aecb78638a257e0351a3fe0370861fd54ee4190b920933826040516106b391906157aa565b60405180910390a25b5b50565b6106ce611e7563ffffffff16565b6106dc611f0a63ffffffff16565b5b5b565b600060009054906101000a900473ffffffffffffffffffffffffffffffffffffffff1681565b600560005060205280600052604060002060009150909054906101000a900460ff1681565b600160009054906101000a900473ffffffffffffffffffffffffffffffffffffffff1673ffffffffffffffffffffffffffffffffffffffff163373ffffffffffffffffffffffffffffffffffffffff161415156107885760006000fd5b600160006101000a81549073ffffffffffffffffffffffffffffffffffffffff021916905580600060006101000a81548173ffffffffffffffffffffffffffffffffffffffff021916908373ffffffffffffffffffffffffffffffffffffffff160217905550600060009054906101000a900473ffffffffffffffffffffffffffffffffffffffff1673ffffffffffffffffffffffffffffffffffffffff16639624e83e6040518163ffffffff1660e01b815260040160206040518083038186803b1580156108575760006000fd5b505afa15801561086c573d600060003e3d6000fd5b505050506040513d601f19601f820116820180604052508101906108909190614bb3565b600260006101000a81548173ffffffffffffffffffffffffffffffffffffffff021916908373ffffffffffffffffffffffffffffffffffffffff160217905550600060009054906101000a900473ffffffffffffffffffffffffffffffffffffffff1673ffffffffffffffffffffffffffffffffffffffff166311df99956040518163ffffffff1660e01b815260040160206040518083038186803b1580156109395760006000fd5b505afa15801561094e573d600060003e3d6000fd5b505050506040513d601f19601f820116820180604052508101906109729190614bda565b600360006101000a81548173ffffffffffffffffffffffffffffffffffffffff021916908373ffffffffffffffffffffffffffffffffffffffff160217905550600060009054906101000a900473ffffffffffffffffffffffffffffffffffffffff1673ffffffffffffffffffffffffffffffffffffffff1663d478b0876040518163ffffffff1660e01b815260040160206040518083038186803b158015610a1b5760006000fd5b505afa158015610a30573d600060003e3d6000fd5b505050506040513d601f19601f82011682018060405250810190610a549190614c9d565b600460006101000a81548173ffffffffffffffffffffffffffffffffffffffff021916908373ffffffffffffffffffffffffffffffffffffffff160217905550610aa2611f5463ffffffff16565b8073ffffffffffffffffffffffffffffffffffffffff167f908408e307fc569b417f6cbec5d5a06f44a0a505ac0479b47d421a4b2fd6a1e660405160405180910390a25b50565b600b60009054906101000a900467ffffffffffffffff1681565b610b1161221663ffffffff16565b610b1f6122f563ffffffff16565b6002600060009054906101000a900473ffffffffffffffffffffffffffffffffffffffff1673ffffffffffffffffffffffffffffffffffffffff1663055ad42e6040518163ffffffff1660e01b815260040160206040518083038186803b158015610b8a5760006000fd5b505afa158015610b9f573d600060003e3d6000fd5b505050506040513d601f19601f82011682018060405250810190610bc39190614f54565b60ff168160ff1611151515610c0d576040517f08c379a0000000000000000000000000000000000000000000000000000000008152600401610c0490615663565b60405180910390fd5b610cca600c60009054906101000a900473ffffffffffffffffffffffffffffffffffffffff1673ffffffffffffffffffffffffffffffffffffffff1663430c208133876040518363ffffffff1660e01b8152600401610c6d92919061520e565b60206040518083038186803b158015610c865760006000fd5b505afa158015610c9b573d600060003e3d6000fd5b505050506040513d601f19601f82011682018060405250810190610cbf9190614b39565b61242e63ffffffff16565b610da2610d948567ffffffffffffffff16600260009054906101000a900473ffffffffffffffffffffffffffffffffffffffff1673ffffffffffffffffffffffffffffffffffffffff16630f85fc5a886040518263ffffffff1660e01b8152600401610d3691906157d5565b6101206040518083038186803b158015610d505760006000fd5b505afa158015610d65573d600060003e3d6000fd5b505050506040513d601f19601f82011682018060405250810190610d899190614d39565b61247463ffffffff16565b85858561276663ffffffff16565b5b5b505b610db461301963ffffffff16565b5b505050565b60076000505481565b610dd1611e7563ffffffff16565b80600a600050819090905550670de0b6b3a7640000600a6000505411151515610dfa5760006000fd5b604051610e06906150db565b60405180910390207f3a64504f0bc0c335e2aecb78638a257e0351a3fe0370861fd54ee4190b92093382604051610e3d91906157aa565b60405180910390a25b5b50565b60086000505481565b600060149054906101000a900460ff1681565b6000610e7661221663ffffffff16565b610e846122f563ffffffff16565b6002600060009054906101000a900473ffffffffffffffffffffffffffffffffffffffff1673ffffffffffffffffffffffffffffffffffffffff1663055ad42e6040518163ffffffff1660e01b815260040160206040518083038186803b158015610eef5760006000fd5b505afa158015610f04573d600060003e3d6000fd5b505050506040513d601f19601f82011682018060405250810190610f289190614f54565b60ff168160ff1611151515610f72576040517f08c379a0000000000000000000000000000000000000000000000000000000008152600401610f6990615663565b60405180910390fd5b610f81836130ad63ffffffff16565b9150610f88565b5b505b610f9961301963ffffffff16565b5b919050565b610fad61324063ffffffff16565b610fbb61329b63ffffffff16565b5b610fca613be763ffffffff16565b5b565b610fdb61221663ffffffff16565b610fe9613bf763ffffffff16565b6110a6600c60009054906101000a900473ffffffffffffffffffffffffffffffffffffffff1673ffffffffffffffffffffffffffffffffffffffff1663430c208133846040518363ffffffff1660e01b815260040161104992919061520e565b60206040518083038186803b1580156110625760006000fd5b505afa158015611077573d600060003e3d6000fd5b505050506040513d601f19601f8201168201806040525081019061109b9190614b39565b61242e63ffffffff16565b600260009054906101000a900473ffffffffffffffffffffffffffffffffffffffff1673ffffffffffffffffffffffffffffffffffffffff16631def65ab826111ac8467ffffffffffffffff16600260009054906101000a900473ffffffffffffffffffffffffffffffffffffffff1673ffffffffffffffffffffffffffffffffffffffff16630f85fc5a876040518263ffffffff1660e01b815260040161114e91906157d5565b6101206040518083038186803b1580156111685760006000fd5b505afa15801561117d573d600060003e3d6000fd5b505050506040513d601f19601f820116820180604052508101906111a19190614d39565b61247463ffffffff16565b6040518363ffffffff1660e01b81526004016111c99291906157f1565b600060405180830381600087803b1580156111e45760006000fd5b505af11580156111f9573d600060003e3d6000fd5b505050505b5b61120d61301963ffffffff16565b5b50565b61121f611e7563ffffffff16565b80600b60006101000a81548167ffffffffffffffff021916908367ffffffffffffffff16021790555060405161125490615079565b60405180910390207f6293347933ad2997134e224ac8cd2e39908a4a22aeed9af52127b4bbf76529788260405161128b91906157d5565b60405180910390a25b5b50565b60006112a861221663ffffffff16565b6112b66122f563ffffffff16565b600060009054906101000a900473ffffffffffffffffffffffffffffffffffffffff1673ffffffffffffffffffffffffffffffffffffffff1663fa117b4d33846040518363ffffffff1660e01b815260040161131392919061518d565b60206040518083038186803b15801561132c5760006000fd5b505afa158015611341573d600060003e3d6000fd5b505050506040513d601f19601f820116820180604052508101906113659190614b39565b15156113a6576040517f08c379a000000000000000000000000000000000000000000000000000000000815260040161139d90615580565b60405180910390fd5b600260009054906101000a900473ffffffffffffffffffffffffffffffffffffffff1673ffffffffffffffffffffffffffffffffffffffff1663afd7c0f2336040518263ffffffff1660e01b81526004016114019190615134565b60206040518083038186803b15801561141a5760006000fd5b505afa15801561142f573d600060003e3d6000fd5b505050506040513d601f19601f820116820180604052508101906114539190614b39565b151515611495576040517f08c379a000000000000000000000000000000000000000000000000000000000815260040161148c906153c7565b60405180910390fd5b600260009054906101000a900473ffffffffffffffffffffffffffffffffffffffff1673ffffffffffffffffffffffffffffffffffffffff1663345750e73360016040518363ffffffff1660e01b81526004016114f392919061515c565b600060405180830381600087803b15801561150e5760006000fd5b505af1158015611523573d600060003e3d6000fd5b5050505061153b6009600050546130ad63ffffffff16565b9050611542565b5b61155161301963ffffffff16565b5b919050565b600b60089054906101000a900467ffffffffffffffff1681565b60096000505481565b611658600060009054906101000a900473ffffffffffffffffffffffffffffffffffffffff1673ffffffffffffffffffffffffffffffffffffffff1663d3419bf36040518163ffffffff1660e01b815260040160206040518083038186803b1580156115e65760006000fd5b505afa1580156115fb573d600060003e3d6000fd5b505050506040513d601f19601f8201168201806040525081019061161f9190614c76565b73ffffffffffffffffffffffffffffffffffffffff163373ffffffffffffffffffffffffffffffffffffffff161461242e63ffffffff16565b61167081600760005054613c4c90919063ffffffff16565b60086000508190909055505b50565b7f000000000000000000000000000000000000000000000000000000000000000081565b7f000000000000000000000000000000000000000000000000000000000000000081565b600160009054906101000a900473ffffffffffffffffffffffffffffffffffffffff1681565b6116fb61221663ffffffff16565b6117096122f563ffffffff16565b60028060ff16600060009054906101000a900473ffffffffffffffffffffffffffffffffffffffff1673ffffffffffffffffffffffffffffffffffffffff1663055ad42e6040518163ffffffff1660e01b815260040160206040518083038186803b1580156117785760006000fd5b505afa15801561178d573d600060003e3d6000fd5b505050506040513d601f19601f820116820180604052508101906117b19190614f54565b60ff161015156117f6576040517f08c379a00000000000000000000000000000000000000000000000000000000081526004016117ed90615388565b60405180910390fd5b6118b3600c60009054906101000a900473ffffffffffffffffffffffffffffffffffffffff1673ffffffffffffffffffffffffffffffffffffffff1663430c208133856040518363ffffffff1660e01b815260040161185692919061520e565b60206040518083038186803b15801561186f5760006000fd5b505afa158015611884573d600060003e3d6000fd5b505050506040513d601f19601f820116820180604052508101906118a89190614b39565b61242e63ffffffff16565b600061197c8367ffffffffffffffff16600260009054906101000a900473ffffffffffffffffffffffffffffffffffffffff1673ffffffffffffffffffffffffffffffffffffffff16630f85fc5a866040518263ffffffff1660e01b815260040161191e91906157d5565b6101206040518083038186803b1580156119385760006000fd5b505afa15801561194d573d600060003e3d6000fd5b505050506040513d601f19601f820116820180604052508101906119719190614d39565b61247463ffffffff16565b9050600260009054906101000a900473ffffffffffffffffffffffffffffffffffffffff1673ffffffffffffffffffffffffffffffffffffffff1663345750e73360006040518363ffffffff1660e01b81526004016119dc92919061515c565b600060405180830381600087803b1580156119f75760006000fd5b505af1158015611a0c573d600060003e3d6000fd5b50505050611a3d8184611a2a8460400151613c72909063ffffffff16565b600003846020015161276663ffffffff16565b505b5b505b611a5061301963ffffffff16565b5b50565b611a5c614a33565b611a6a61324063ffffffff16565b611c1f600060009054906101000a900473ffffffffffffffffffffffffffffffffffffffff1673ffffffffffffffffffffffffffffffffffffffff16639a371c846040518163ffffffff1660e01b815260040160206040518083038186803b158015611ad65760006000fd5b505afa158015611aeb573d600060003e3d6000fd5b505050506040513d601f19601f82011682018060405250810190611b0f9190614c28565b73ffffffffffffffffffffffffffffffffffffffff163373ffffffffffffffffffffffffffffffffffffffff161480611c145750600060009054906101000a900473ffffffffffffffffffffffffffffffffffffffff1673ffffffffffffffffffffffffffffffffffffffff1663511606306040518163ffffffff1660e01b815260040160206040518083038186803b158015611bac5760006000fd5b505afa158015611bc1573d600060003e3d6000fd5b505050506040513d601f19601f82011682018060405250810190611be59190614d12565b73ffffffffffffffffffffffffffffffffffffffff163373ffffffffffffffffffffffffffffffffffffffff16145b61242e63ffffffff16565b611ce68267ffffffffffffffff16600260009054906101000a900473ffffffffffffffffffffffffffffffffffffffff1673ffffffffffffffffffffffffffffffffffffffff16630f85fc5a856040518263ffffffff1660e01b8152600401611c8891906157d5565b6101206040518083038186803b158015611ca25760006000fd5b505afa158015611cb7573d600060003e3d6000fd5b505050506040513d601f19601f82011682018060405250810190611cdb9190614d39565b61247463ffffffff16565b905080505b611cf9613be763ffffffff16565b5b919050565b611d0d611e7563ffffffff16565b806007600050819090905550670de0b6b3a76400008110151515611d315760006000fd5b604051611d3d906150aa565b60405180910390207f3a64504f0bc0c335e2aecb78638a257e0351a3fe0370861fd54ee4190b92093382604051611d7491906157aa565b60405180910390a25b5b50565b600a6000505481565b60006801000000000000000082101515611def576040517f08c379a00000000000000000000000000000000000000000000000000000000081526004018080602001828103825260268152602001806158dd6026913960400191505060405180910390fd5b819050611df7565b919050565b60007f00000000000000000000000000000000000000000000000000000000000000007f000000000000000000000000000000000000000000000000000000000000000067ffffffffffffffff16611e58613cfb63ffffffff16565b67ffffffffffffffff16811515611e6b57fe5b0403905080505b90565b600060009054906101000a900473ffffffffffffffffffffffffffffffffffffffff1673ffffffffffffffffffffffffffffffffffffffff163373ffffffffffffffffffffffffffffffffffffffff16141515611f07576040517f08c379a0000000000000000000000000000000000000000000000000000000008152600401611efe90615445565b60405180910390fd5b5b565b6001600060146101000a81548160ff0219169083151502179055507f7acc84e34091ae817647a4c49116f5cc07f319078ba80f8f5fde37ea7e25cbd660405160405180910390a15b565b600060009054906101000a900473ffffffffffffffffffffffffffffffffffffffff1673ffffffffffffffffffffffffffffffffffffffff16637380f6796040518163ffffffff1660e01b815260040160206040518083038186803b158015611fbd5760006000fd5b505afa158015611fd2573d600060003e3d6000fd5b505050506040513d601f19601f82011682018060405250810190611ff69190614c4f565b600c60006101000a81548173ffffffffffffffffffffffffffffffffffffffff021916908373ffffffffffffffffffffffffffffffffffffffff1602179055506000604051806080016040528063ef5e1cac60e01b7bffffffffffffffffffffffffffffffffffffffffffffffffffffffff19167bffffffffffffffffffffffffffffffffffffffffffffffffffffffff191681526020016306972dcd60e01b7bffffffffffffffffffffffffffffffffffffffffffffffffffffffff19167bffffffffffffffffffffffffffffffffffffffffffffffffffffffff19168152602001635a6127a960e01b7bffffffffffffffffffffffffffffffffffffffffffffffffffffffff19167bffffffffffffffffffffffffffffffffffffffffffffffffffffffff1916815260200163ad51d9ff60e01b7bffffffffffffffffffffffffffffffffffffffffffffffffffffffff19167bffffffffffffffffffffffffffffffffffffffffffffffffffffffff191681526020015090506000600090505b8150600481101561221157600160056000506000848460048110151561219b57fe5b60200201517bffffffffffffffffffffffffffffffffffffffffffffffffffffffff19167bffffffffffffffffffffffffffffffffffffffffffffffffffffffff1916815260200190815260200160002060006101000a81548160ff0219169083151502179055505b8080600101915050612179565b50505b565b600460009054906101000a900473ffffffffffffffffffffffffffffffffffffffff1673ffffffffffffffffffffffffffffffffffffffff1663e97dcb626040518163ffffffff1660e01b8152600401600060405180830381600087803b1580156122815760006000fd5b505af1158015612296573d600060003e3d6000fd5b505050506002600660005054141515156122e5576040517f08c379a00000000000000000000000000000000000000000000000000000000081526004016122dc906154c3565b60405180910390fd5b600260066000508190909055505b565b600060149054906101000a900460ff16151515612347576040517f08c379a000000000000000000000000000000000000000000000000000000000815260040161233e906156e1565b60405180910390fd5b600060009054906101000a900473ffffffffffffffffffffffffffffffffffffffff1673ffffffffffffffffffffffffffffffffffffffff1663bf86d6906040518163ffffffff1660e01b815260040160206040518083038186803b1580156123b05760006000fd5b505afa1580156123c5573d600060003e3d6000fd5b505050506040513d601f19601f820116820180604052508101906123e99190614b39565b15151561242b576040517f08c379a0000000000000000000000000000000000000000000000000000000008152600401612422906152cb565b60405180910390fd5b5b565b801515612470576040517f08c379a000000000000000000000000000000000000000000000000000000000815260040161246790615445565b60405180910390fd5b5b50565b61247c614a33565b600061248c613d1663ffffffff16565b9050600061249f82613e0d63ffffffff16565b9050600060008560a0015167ffffffffffffffff16146124d1576124cc8560a00151613e0d63ffffffff16565b6124d4565b60005b90508067ffffffffffffffff168267ffffffffffffffff161115156124fe57849350505050612760565b61250c61329b63ffffffff16565b60006125c386600260009054906101000a900473ffffffffffffffffffffffffffffffffffffffff1673ffffffffffffffffffffffffffffffffffffffff166306ef2d806040518163ffffffff1660e01b815260040160806040518083038186803b15801561257b5760006000fd5b505afa158015612590573d600060003e3d6000fd5b505050506040513d601f19601f820116820180604052508101906125b49190614def565b86858703613e9563ffffffff16565b8092508196505050600081111561271257600060009054906101000a900473ffffffffffffffffffffffffffffffffffffffff1673ffffffffffffffffffffffffffffffffffffffff1663b216cd94600c60009054906101000a900473ffffffffffffffffffffffffffffffffffffffff1673ffffffffffffffffffffffffffffffffffffffff16636352211e8a6040518263ffffffff1660e01b815260040161266d91906157aa565b60206040518083038186803b1580156126865760006000fd5b505afa15801561269b573d600060003e3d6000fd5b505050506040513d601f19601f820116820180604052508101906126bf9190614b12565b836040518363ffffffff1660e01b81526004016126dd929190615247565b600060405180830381600087803b1580156126f85760006000fd5b505af115801561270d573d600060003e3d6000fd5b505050505b8267ffffffffffffffff16877fc99ac0d15229fa72f1b0756c0eed4e7ede3d80f4e4e0d308ce7a56d1366b8a038760400151846040516127539291906157bc565b60405180910390a3505050505b92915050565b600034905060008111801561277b5750600082115b1515156127bd576040517f08c379a00000000000000000000000000000000000000000000000000000000081526004016127b4906155bf565b60405180910390fd5b60006127d082613c72909063ffffffff16565b905060008114156127f4576127ec83613c72909063ffffffff16565b600003905080505b600084141580612805575060008114155b1515612846576040517f08c379a000000000000000000000000000000000000000000000000000000000815260040161283d90615484565b60405180910390fd5b600084141515612bb2576000841315612a045761291b61291085600260009054906101000a900473ffffffffffffffffffffffffffffffffffffffff1673ffffffffffffffffffffffffffffffffffffffff16630dca59c16040518163ffffffff1660e01b815260040160206040518083038186803b1580156128c95760006000fd5b505afa1580156128de573d600060003e3d6000fd5b505050506040513d601f19601f820116820180604052508101906129029190614eb0565b61401990919063ffffffff16565b6140a263ffffffff16565b61293284876040015161401990919063ffffffff16565b866040019090818152602001505061294e613cfb63ffffffff16565b8660c0019067ffffffffffffffff16908167ffffffffffffffff1681526020015050600260009054906101000a900473ffffffffffffffffffffffffffffffffffffffff1673ffffffffffffffffffffffffffffffffffffffff16632b7c7b11856040518263ffffffff1660e01b81526004016129cb91906157aa565b600060405180830381600087803b1580156129e65760006000fd5b505af11580156129fb573d600060003e3d6000fd5b50505050612bb1565b60008660400151111515612a4d576040517f08c379a0000000000000000000000000000000000000000000000000000000008152600401612a44906156a2565b60405180910390fd5b612a5b613cfb63ffffffff16565b67ffffffffffffffff16612a9c600b60009054906101000a900467ffffffffffffffff168860c0015167ffffffffffffffff166143d090919063ffffffff16565b67ffffffffffffffff16101515612ae8576040517f08c379a0000000000000000000000000000000000000000000000000000000008152600401612adf90615406565b60405180910390fd5b6000846000039050612b0787604001518261446d90919063ffffffff16565b90508050808760400181815103915090908181526020015050600260009054906101000a900473ffffffffffffffffffffffffffffffffffffffff1673ffffffffffffffffffffffffffffffffffffffff16632a7ba1f7826040518263ffffffff1660e01b8152600401612b7b91906157aa565b600060405180830381600087803b158015612b965760006000fd5b505af1158015612bab573d600060003e3d6000fd5b50505050505b5b600081141515612c19576000811315612bef57612bdc81876020015161401990919063ffffffff16565b8660200190908181526020015050612c18565b612c0981600003876020015161448b90919063ffffffff16565b86602001909081815260200150505b5b612c318660400151876020015161451463ffffffff16565b600260009054906101000a900473ffffffffffffffffffffffffffffffffffffffff1673ffffffffffffffffffffffffffffffffffffffff16631def65ab86886040518363ffffffff1660e01b8152600401612c8e9291906157f1565b600060405180830381600087803b158015612ca95760006000fd5b505af1158015612cbe573d600060003e3d6000fd5b505050506000841315612e00576000841315612d6a57600360009054906101000a900473ffffffffffffffffffffffffffffffffffffffff1673ffffffffffffffffffffffffffffffffffffffff1663449a52f833866040518363ffffffff1660e01b8152600401612d319291906151df565b600060405180830381600087803b158015612d4c5760006000fd5b505af1158015612d61573d600060003e3d6000fd5b50505050612dff565b600360009054906101000a900473ffffffffffffffffffffffffffffffffffffffff1673ffffffffffffffffffffffffffffffffffffffff166379cc679033866000036040518363ffffffff1660e01b8152600401612dca9291906151df565b600060405180830381600087803b158015612de55760006000fd5b505af1158015612dfa573d600060003e3d6000fd5b505050505b5b6000811315612fcc576000811315612f36576000600260009054906101000a900473ffffffffffffffffffffffffffffffffffffffff1673ffffffffffffffffffffffffffffffffffffffff1682600067ffffffffffffffff81118015612e675760006000fd5b506040519080825280601f01601f191660200182016040528015612e9a5781602001600182028036833780820191505090505b50604051612ea89190615007565b60006040518083038185875af1925050503d8060008114612ee5576040519150601f19603f3d011682016040523d82523d6000602084013e612eea565b606091505b50509050801515612f30576040517f08c379a0000000000000000000000000000000000000000000000000000000008152600401612f2790615349565b60405180910390fd5b50612fcb565b600260009054906101000a900473ffffffffffffffffffffffffffffffffffffffff1673ffffffffffffffffffffffffffffffffffffffff16636250216933836000036040518363ffffffff1660e01b8152600401612f969291906151df565b600060405180830381600087803b158015612fb15760006000fd5b505af1158015612fc6573d600060003e3d6000fd5b505050505b5b8467ffffffffffffffff167f0ed8d38fcfdb338f760ae5cf4b84f9ade387db12ea673e89e8da1b25857cc1c185836040516130089291906152b2565b60405180910390a250505b50505050565b60016006600050819090905550600460009054906101000a900473ffffffffffffffffffffffffffffffffffffffff1673ffffffffffffffffffffffffffffffffffffffff1663e9fad8ee6040518163ffffffff1660e01b8152600401600060405180830381600087803b1580156130915760006000fd5b505af11580156130a6573d600060003e3d6000fd5b505050505b565b60006000341115156130f4576040517f08c379a00000000000000000000000000000000000000000000000000000000081526004016130eb90615502565b60405180910390fd5b600c60009054906101000a900473ffffffffffffffffffffffffffffffffffffffff1673ffffffffffffffffffffffffffffffffffffffff1663755edd17336040518263ffffffff1660e01b815260040161314f9190615134565b602060405180830381600087803b15801561316a5760006000fd5b505af115801561317f573d600060003e3d6000fd5b505050506040513d601f19601f820116820180604052508101906131a39190614ef3565b905080506131af614a33565b6131eb6131cc8367ffffffffffffffff168361247463ffffffff16565b836131de86613c72909063ffffffff16565b600061276663ffffffff16565b8167ffffffffffffffff163373ffffffffffffffffffffffffffffffffffffffff167f5e61a417c052598d1a3e26d3d81c42d9e7a943dccc23a840bc94bbabf9b1d60760405160405180910390a3505b919050565b60026006600050541415151561328b576040517f08c379a00000000000000000000000000000000000000000000000000000000081526004016132829061530a565b60405180910390fd5b600260066000508190909055505b565b60006132ab6145c863ffffffff16565b9050600b60089054906101000a900467ffffffffffffffff1667ffffffffffffffff168167ffffffffffffffff161115156132e65750613be5565b6000600b60089054906101000a900467ffffffffffffffff16820390506000600260009054906101000a900473ffffffffffffffffffffffffffffffffffffffff1673ffffffffffffffffffffffffffffffffffffffff166306ef2d806040518163ffffffff1660e01b815260040160806040518083038186803b15801561336e5760006000fd5b505afa158015613383573d600060003e3d6000fd5b505050506040513d601f19601f820116820180604052508101906133a79190614def565b90506000600060009054906101000a900473ffffffffffffffffffffffffffffffffffffffff1673ffffffffffffffffffffffffffffffffffffffff166343f48fbd6040518163ffffffff1660e01b815260040160206040518083038186803b1580156134145760006000fd5b505afa158015613429573d600060003e3d6000fd5b505050506040513d601f19601f8201168201806040525081019061344d9190614cc4565b9050600061360983858473ffffffffffffffffffffffffffffffffffffffff1663a0fc0eda6040518163ffffffff1660e01b815260040160206040518083038186803b15801561349d5760006000fd5b505afa1580156134b2573d600060003e3d6000fd5b505050506040513d601f19601f820116820180604052508101906134d69190614eb0565b8573ffffffffffffffffffffffffffffffffffffffff16636d7fa6646040518163ffffffff1660e01b815260040160206040518083038186803b15801561351d5760006000fd5b505afa158015613532573d600060003e3d6000fd5b505050506040513d601f19601f820116820180604052508101906135569190614b39565b600360009054906101000a900473ffffffffffffffffffffffffffffffffffffffff1673ffffffffffffffffffffffffffffffffffffffff166375172a8b6040518163ffffffff1660e01b815260040160206040518083038186803b1580156135bf5760006000fd5b505afa1580156135d4573d600060003e3d6000fd5b505050506040513d601f19601f820116820180604052508101906135f89190614eb0565b600a600050546145ee63ffffffff16565b905060006138238567ffffffffffffffff1661384067ffffffffffffffff166201518081151561363557fe5b0467ffffffffffffffff16613814600060009054906101000a900473ffffffffffffffffffffffffffffffffffffffff1673ffffffffffffffffffffffffffffffffffffffff16639ec5a8946040518163ffffffff1660e01b815260040160206040518083038186803b1580156136ac5760006000fd5b505afa1580156136c1573d600060003e3d6000fd5b505050506040513d601f19601f820116820180604052508101906136e59190614ceb565b73ffffffffffffffffffffffffffffffffffffffff16630a86f1096040518163ffffffff1660e01b815260040160206040518083038186803b15801561372b5760006000fd5b505afa158015613740573d600060003e3d6000fd5b505050506040513d601f19601f820116820180604052508101906137649190614eb0565b600060009054906101000a900473ffffffffffffffffffffffffffffffffffffffff1673ffffffffffffffffffffffffffffffffffffffff1663c375e6ed6040518163ffffffff1660e01b815260040160206040518083038186803b1580156137cd5760006000fd5b505afa1580156137e2573d600060003e3d6000fd5b505050506040513d601f19601f820116820180604052508101906138069190614eb0565b6147d190919063ffffffff16565b6147f79092919063ffffffff16565b905060405180608001604052808360000151815260200161385183876020015161401990919063ffffffff16565b815260200161388d61387a8867ffffffffffffffff1686600001516148f890919063ffffffff16565b876040015161401990919063ffffffff16565b8152602001836020015181526020015093508350600260009054906101000a900473ffffffffffffffffffffffffffffffffffffffff1673ffffffffffffffffffffffffffffffffffffffff166378efc6b0856040518263ffffffff1660e01b81526004016138fc9190615779565b600060405180830381600087803b1580156139175760006000fd5b505af115801561392c573d600060003e3d6000fd5b5050505085600b60086101000a81548167ffffffffffffffff021916908367ffffffffffffffff160217905550600082606001511115613a1e57600360009054906101000a900473ffffffffffffffffffffffffffffffffffffffff1673ffffffffffffffffffffffffffffffffffffffff1663449a52f8600260009054906101000a900473ffffffffffffffffffffffffffffffffffffffff1684606001516040518363ffffffff1660e01b81526004016139e9929190615247565b600060405180830381600087803b158015613a045760006000fd5b505af1158015613a19573d600060003e3d6000fd5b505050505b600082604001511115613ae357600360009054906101000a900473ffffffffffffffffffffffffffffffffffffffff1673ffffffffffffffffffffffffffffffffffffffff1663449a52f8600360009054906101000a900473ffffffffffffffffffffffffffffffffffffffff1684604001516040518363ffffffff1660e01b8152600401613aae929190615247565b600060405180830381600087803b158015613ac95760006000fd5b505af1158015613ade573d600060003e3d6000fd5b505050505b600082608001511115613b8457600360009054906101000a900473ffffffffffffffffffffffffffffffffffffffff1673ffffffffffffffffffffffffffffffffffffffff1663c59fb1ab83608001516040518263ffffffff1660e01b8152600401613b4f91906157aa565b600060405180830381600087803b158015613b6a5760006000fd5b505af1158015613b7f573d600060003e3d6000fd5b505050505b8567ffffffffffffffff167fdfc2183705a66b49f12c66a6d3b2fa5cf3b7c67086e9c6e90d144befc94f436c868660000151876020015188604001518960600151604051613bd695949392919061581c565b60405180910390a25050505050505b565b600160066000508190909055505b565b600060149054906101000a900460ff16151515613c49576040517f08c379a0000000000000000000000000000000000000000000000000000000008152600401613c40906156e1565b60405180910390fd5b5b565b6000613c6783670de0b6b3a7640000846147f763ffffffff16565b905080505b92915050565b60007f800000000000000000000000000000000000000000000000000000000000000082101515613cee576040517f08c379a00000000000000000000000000000000000000000000000000000000081526004018080602001828103825260288152602001806159036028913960400191505060405180910390fd5b819050613cf6565b919050565b6000613d0e42611d8a909063ffffffff16565b905080505b90565b6000613d26613cfb63ffffffff16565b905080506000600060009054906101000a900473ffffffffffffffffffffffffffffffffffffffff1673ffffffffffffffffffffffffffffffffffffffff1663585690816040518163ffffffff1660e01b815260040160206040518083038186803b158015613d955760006000fd5b505afa158015613daa573d600060003e3d6000fd5b505050506040513d601f19601f82011682018060405250810190613dce9190614ef3565b905060008167ffffffffffffffff16118015613dfd57508167ffffffffffffffff168167ffffffffffffffff16105b15613e085780915081505b505b90565b6000613e8b7f00000000000000000000000000000000000000000000000000000000000000007f000000000000000000000000000000000000000000000000000000000000000067ffffffffffffffff168467ffffffffffffffff16811515613e7257fe5b0467ffffffffffffffff1661499690919063ffffffff16565b905080505b919050565b613e9d614a33565b6000859150815060008260a0015167ffffffffffffffff16118015613ec6575060008260400151115b15613fb357613eec8560600151836060015184604001516147f79092919063ffffffff16565b826040019090818152602001505060008367ffffffffffffffff16613f228460000151886040015161448b90919063ffffffff16565b811515613f2b57fe5b049050613fad613f528460a001518767ffffffffffffffff1661499690919063ffffffff16565b67ffffffffffffffff16856138400267ffffffffffffffff16613f9e613f8987608001518b6020015161448b90919063ffffffff16565b8588604001516147f79092919063ffffffff16565b6147f79092919063ffffffff16565b91508150505b846060015182606001909081815260200150508460200151826080019090818152602001505084604001518260000190908181526020015050838260a0019067ffffffffffffffff16908167ffffffffffffffff16815260200150505b94509492505050565b6000828284019150811015151561409b576040517f08c379a000000000000000000000000000000000000000000000000000000000815260040180806020018281038252600c8152602001807f6164642d6f766572666c6f77000000000000000000000000000000000000000081526020015060200191505060405180910390fd5b5b92915050565b6000600d6000506040518060400160405290816000820160009054906101000a900467ffffffffffffffff1667ffffffffffffffff1667ffffffffffffffff1681526020016000820160089054906101000a900477ffffffffffffffffffffffffffffffffffffffffffffffff1677ffffffffffffffffffffffffffffffffffffffffffffffff1677ffffffffffffffffffffffffffffffffffffffffffffffff16815260200150509050600061415d611dfc63ffffffff16565b90508067ffffffffffffffff16826000015167ffffffffffffffff1610156143675760405180604001604052808267ffffffffffffffff168152602001600060009054906101000a900473ffffffffffffffffffffffffffffffffffffffff1673ffffffffffffffffffffffffffffffffffffffff16639ec5a8946040518163ffffffff1660e01b815260040160206040518083038186803b1580156142035760006000fd5b505afa158015614218573d600060003e3d6000fd5b505050506040513d601f19601f8201168201806040525081019061423c9190614ceb565b73ffffffffffffffffffffffffffffffffffffffff1663781072ca6040518163ffffffff1660e01b815260040160206040518083038186803b1580156142825760006000fd5b505afa158015614297573d600060003e3d6000fd5b505050506040513d601f19601f820116820180604052508101906142bb9190614e4f565b77ffffffffffffffffffffffffffffffffffffffffffffffff168152602001509150815081600d60005060008201518160000160006101000a81548167ffffffffffffffff021916908367ffffffffffffffff16021790555060208201518160000160086101000a81548177ffffffffffffffffffffffffffffffffffffffffffffffff021916908377ffffffffffffffffffffffffffffffffffffffffffffffff1602179055509050505b816020015177ffffffffffffffffffffffffffffffffffffffffffffffff1683111515156143ca576040517f08c379a00000000000000000000000000000000000000000000000000000000081526004016143c190615541565b60405180910390fd5b50505b50565b60008267ffffffffffffffff1682840191508167ffffffffffffffff1610151515614466576040517f08c379a000000000000000000000000000000000000000000000000000000000815260040180806020018281038252600c8152602001807f6164642d6f766572666c6f77000000000000000000000000000000000000000081526020015060200191505060405180910390fd5b5b92915050565b600081831061447c578161447e565b825b9050614485565b92915050565b6000828284039150811115151561450d576040517f08c379a000000000000000000000000000000000000000000000000000000000815260040180806020018281038252600d8152602001807f7375622d756e646572666c6f770000000000000000000000000000000000000081526020015060200191505060405180910390fd5b5b92915050565b60008211156145c3576009600050548210151515614567576040517f08c379a000000000000000000000000000000000000000000000000000000000815260040161455e90615624565b60405180910390fd5b6008600050546145808383613c4c90919063ffffffff16565b1115156145c2576040517f08c379a00000000000000000000000000000000000000000000000000000000081526004016145b990615720565b60405180910390fd5b5b5b5050565b60006145e66145db613d1663ffffffff16565b613e0d63ffffffff16565b905080505b90565b6145f6614aa6565b600085141561462d5786600001518160000190908181526020015050866060015181602001909081815260200150508090506147c7565b600061468d6146768867ffffffffffffffff1661384067ffffffffffffffff166301e1338081151561465b57fe5b0467ffffffffffffffff16896147f79092919063ffffffff16565b670de0b6b3a764000061401990919063ffffffff16565b9050846146b0576146ab818960600151613c4c90919063ffffffff16565b6146c8565b6146c78189606001516147d190919063ffffffff16565b5b82602001909081815260200150506146f7826020015189606001518a600001516147f79092919063ffffffff16565b82600001909081815260200150508760000151826000015111156147605760008860000151836000015103905061473784826147d190919063ffffffff16565b8360600190908181526020015050826060015181038360400190908181526020015050506147c5565b8760000151826000015110156147c457600082600001518960000151039050848111156147b25788600001518360000190908181526020015050886060015183602001909081815260200150506147c2565b8083608001909081815260200150505b505b5b505b9695505050505050565b60006147ec8383670de0b6b3a76400006147f763ffffffff16565b905080505b92915050565b600060006000600019858709858702925082811083820303915050600081141561483a5760008411151561482b5760006000fd5b838204925082925050506148f1565b80841115156148495760006000fd5b60008486880990508281118203915080830392506000858660000316905080860495508084049350600181826000030401905080830284179350835060006002876003021890508087026002038102905080508087026002038102905080508087026002038102905080508087026002038102905080508087026002038102905080508087026002038102905080508085029550855085955050505050506148f15650505050505b9392505050565b600060008214806149185750828283850292508281151561491557fe5b04145b151561498f576040517f08c379a000000000000000000000000000000000000000000000000000000000815260040180806020018281038252600c8152602001807f6d756c2d6f766572666c6f77000000000000000000000000000000000000000081526020015060200191505060405180910390fd5b5b92915050565b60008267ffffffffffffffff1682840391508167ffffffffffffffff1611151515614a2c576040517f08c379a000000000000000000000000000000000000000000000000000000000815260040180806020018281038252600d8152602001807f7375622d756e646572666c6f770000000000000000000000000000000000000081526020015060200191505060405180910390fd5b5b92915050565b6040518061012001604052806000815260200160008152602001600081526020016000815260200160008152602001600067ffffffffffffffff168152602001600067ffffffffffffffff168152602001600063ffffffff168152602001600067ffffffffffffffff1681526020015090565b6040518060a0016040528060008152602001600081526020016000815260200160008152602001600081526020015090566158db565b60008151905063ffffffff811681141515614af75760006000fd5b5b919050565b600081519050614b0c816158a8565b5b919050565b600060208284031215614b23578081fd5b8151614b2e8161587f565b809150505b92915050565b600060208284031215614b4a578081fd5b815180151581141515614b5b578182fd5b809150505b92915050565b600060208284031215614b77578081fd5b81357fffffffff00000000000000000000000000000000000000000000000000000000811681141515614ba8578182fd5b809150505b92915050565b600060208284031215614bc4578081fd5b8151614bcf8161587f565b809150505b92915050565b600060208284031215614beb578081fd5b8151614bf68161587f565b809150505b92915050565b600060208284031215614c12578081fd5b8135614c1d8161587f565b809150505b92915050565b600060208284031215614c39578081fd5b8151614c448161587f565b809150505b92915050565b600060208284031215614c60578081fd5b8151614c6b8161587f565b809150505b92915050565b600060208284031215614c87578081fd5b8151614c928161587f565b809150505b92915050565b600060208284031215614cae578081fd5b8151614cb98161587f565b809150505b92915050565b600060208284031215614cd5578081fd5b8151614ce08161587f565b809150505b92915050565b600060208284031215614cfc578081fd5b8151614d078161587f565b809150505b92915050565b600060208284031215614d23578081fd5b8151614d2e8161587f565b809150505b92915050565b6000610120808385031215614d4c578182fd5b614d5581615854565b90508251815260208301516020820152604083015160408201526060830151606082015260808301516080820152614d8f60a08401614afd565b60a0820152614da060c08401614afd565b60c0820152614db160e08401614adc565b60e0820152610100614dc4818501614afd565b8183015250809150505b92915050565b600060608284031215614de5578081fd5b8190505b92915050565b600060808284031215614e00578081fd5b6040516080810181811067ffffffffffffffff82111715614e1d57fe5b806040525082518152602083015160208201526040830151604082015260608301516060820152809150505b92915050565b600060208284031215614e60578081fd5b815177ffffffffffffffffffffffffffffffffffffffffffffffff811681141515614e89578182fd5b809150505b92915050565b600060208284031215614ea5578081fd5b813590505b92915050565b600060208284031215614ec1578081fd5b815190505b92915050565b600060208284031215614edd578081fd5b8135614ee8816158a8565b809150505b92915050565b600060208284031215614f04578081fd5b8151614f0f816158a8565b809150505b92915050565b60006000600060608486031215614f2f578182fd5b8335614f3a816158a8565b8093505060208401359150604084013590505b9250925092565b600060208284031215614f65578081fd5b8151614f70816158c5565b809150505b92915050565b805182526020810151602083015260408101516040830152606081015160608301526080810151608083015260a081015167ffffffffffffffff80821660a08501528060c08401511660c0850152505063ffffffff60e08201511660e083015261010080820151614fee82850182614ff5565b50505b5050565b67ffffffffffffffff811682525b5050565b60008251815b8181101561502c5760208186010151818501525b60208101905061500d565b8181111561503a5782828501525b508083019150505b92915050565b60007f6d696e506f736974696f6e53697a6500000000000000000000000000000000008252600f820190505b919050565b60007f6d696e426f72726f7754696d65000000000000000000000000000000000000008252600d820190505b919050565b60007f636f6c6c61746572616c697a6174696f6e526571756972656d656e74000000008252601c820190505b919050565b60007f696e746572657374506f7274696f6e546f4c656e64657273000000000000000082526018820190505b919050565b600060208201905073ffffffffffffffffffffffffffffffffffffffff831682525b92915050565b600060208201905073ffffffffffffffffffffffffffffffffffffffff831682525b92915050565b600060408201905073ffffffffffffffffffffffffffffffffffffffff8416825282151560208301525b9392505050565b600060808201905073ffffffffffffffffffffffffffffffffffffffff8416825282356151b9816158c5565b60ff811660208401525060208301356040830152604083013560608301525b9392505050565b600060408201905073ffffffffffffffffffffffffffffffffffffffff841682528260208301525b9392505050565b600060408201905073ffffffffffffffffffffffffffffffffffffffff8416825267ffffffffffffffff831660208301525b9392505050565b600060408201905073ffffffffffffffffffffffffffffffffffffffff841682528260208301525b9392505050565b600060208201905082151582525b92915050565b600060208201905073ffffffffffffffffffffffffffffffffffffffff831682525b92915050565b60006040820190508382528260208301525b9392505050565b600060208252601160208301527f50726f746f636f6c2073687574646f776e00000000000000000000000000000060408301526060820190505b919050565b600060208252600d60208301527f4c43205265656e7472616e63790000000000000000000000000000000000000060408301526060820190505b919050565b600060208252601360208301527f457468207472616e73666572206661696c65640000000000000000000000000060408301526060820190505b919050565b600060208252601460208301527f416374696f6e2077696e646f772070617373656400000000000000000000000060408301526060820190505b919050565b600060208252601460208301527f416c72656164792070617274696369706174656400000000000000000000000060408301526060820190505b919050565b600060208252600f60208301527f4e6f20666c61736820626f72726f77000000000000000000000000000000000060408301526060820190505b919050565b600060208252600e60208301527f4e6f7420417574686f72697a656400000000000000000000000000000000000060408301526060820190505b919050565b600060208252600460208301527f4e6f6f700000000000000000000000000000000000000000000000000000000060408301526060820190505b919050565b600060208252600d60208301527f4c50205265656e7472616e63790000000000000000000000000000000000000060408301526060820190505b919050565b600060208252601360208301527f4d7573742061646420636f6c6c61746572616c0000000000000000000000000060408301526060820190505b919050565b600060208252601d60208301527f4465627420756e737570706f72746564206279206c697175696469747900000060408301526060820190505b919050565b600060208252601160208301527f4e6f206c6f6e6765722067656e6573697300000000000000000000000000000060408301526060820190505b919050565b600060208252602360208301527f43616e7420696e637265617365202620646563726561736520636f6c6c61746560408301527f72616c000000000000000000000000000000000000000000000000000000000060608301526080820190505b919050565b600060208252601260208301527f506f736974696f6e20746f6f20736d616c6c000000000000000000000000000060408301526060820190505b919050565b600060208252601560208301527f416374696f6e20617661696c61626c6520736f6f6e000000000000000000000060408301526060820190505b919050565b600060208252601360208301527f4e6f206465627420746f20706179206261636b0000000000000000000000000060408301526060820190505b919050565b600060208252601360208301527f436f6e74726163742069732073746f707065640000000000000000000000000060408301526060820190505b919050565b600060208252601760208301527f496e73756666696369656e7420636f6c6c61746572616c00000000000000000060408301526060820190505b919050565b6000610120820190506157728284614f7b565b5b92915050565b6000608082019050825182526020830151602083015260408301516040830152606083015160608301525b92915050565b60006020820190508282525b92915050565b60006040820190508382528260208301525b9392505050565b600060208201905067ffffffffffffffff831682525b92915050565b60006101408201905067ffffffffffffffff841682526158146020830184614f7b565b5b9392505050565b600060a08201905067ffffffffffffffff871682528560208301528460408301528360608301528260808301525b9695505050505050565b6000604051905081810181811067ffffffffffffffff8211171561587457fe5b80604052505b919050565b73ffffffffffffffffffffffffffffffffffffffff8116811415156158a45760006000fd5b5b50565b67ffffffffffffffff8116811415156158c15760006000fd5b5b50565b60ff8116811415156158d75760006000fd5b5b50565bfe53616665436173743a2076616c756520646f65736e27742066697420696e203634206269747353616665436173743a2076616c756520646f65736e27742066697420696e20616e20696e74323536a26469706673582212203c140b70de2606f6a4765c459164c81c31ef169ec0b721d05d94265bb211244964736f6c6343000706003353616665436173743a2076616c756520646f65736e27742066697420696e2036342062697473",
  "linkReferences": {},
  "deployedLinkReferences": {}
}