{
  "_format": "hh-sol-artifact-1",
  "contractName": "Market",
  "sourceName": "contracts/core/logic/Market.sol",
  "abi": [
    {
      "inputs": [],
      "stateMutability": "nonpayable",
      "type": "constructor"
    },
    {
      "anonymous": false,
      "inputs": [
        {
          "indexed": true,
          "internalType": "address",
          "name": "borrower",
          "type": "address"
        },
        {
          "indexed": true,
          "internalType": "uint64",
          "name": "positionID",
          "type": "uint64"
        },
        {
          "indexed": false,
          "internalType": "uint256",
          "name": "borrowAmount",
          "type": "uint256"
        },
        {
          "indexed": false,
          "internalType": "uint256",
          "name": "collateralIncrease",
          "type": "uint256"
        }
      ],
      "name": "Borrow",
      "type": "event"
    },
    {
      "anonymous": false,
      "inputs": [
        {
          "indexed": true,
          "internalType": "address",
          "name": "governor",
          "type": "address"
        }
      ],
      "name": "Initialized",
      "type": "event"
    },
    {
      "anonymous": false,
      "inputs": [
        {
          "indexed": true,
          "internalType": "uint64",
          "name": "period",
          "type": "uint64"
        },
        {
          "indexed": false,
          "internalType": "uint64",
          "name": "periods",
          "type": "uint64"
        },
        {
          "indexed": false,
          "internalType": "uint256",
          "name": "newDebt",
          "type": "uint256"
        },
        {
          "indexed": false,
          "internalType": "uint256",
          "name": "rewardCount",
          "type": "uint256"
        }
      ],
      "name": "InterestAccrued",
      "type": "event"
    },
    {
      "anonymous": false,
      "inputs": [
        {
          "indexed": true,
          "internalType": "address",
          "name": "account",
          "type": "address"
        },
        {
          "indexed": false,
          "internalType": "uint256",
          "name": "coinCount",
          "type": "uint256"
        },
        {
          "indexed": false,
          "internalType": "uint256",
          "name": "lendTokenCount",
          "type": "uint256"
        }
      ],
      "name": "Lend",
      "type": "event"
    },
    {
      "anonymous": false,
      "inputs": [
        {
          "indexed": true,
          "internalType": "address",
          "name": "creator",
          "type": "address"
        },
        {
          "indexed": true,
          "internalType": "uint64",
          "name": "positionID",
          "type": "uint64"
        }
      ],
      "name": "NewPositionCreated",
      "type": "event"
    },
    {
      "anonymous": false,
      "inputs": [
        {
          "indexed": true,
          "internalType": "string",
          "name": "paramName",
          "type": "string"
        },
        {
          "indexed": false,
          "internalType": "uint256",
          "name": "value",
          "type": "uint256"
        }
      ],
      "name": "ParameterUpdated",
      "type": "event"
    },
    {
      "anonymous": false,
      "inputs": [
        {
          "indexed": true,
          "internalType": "string",
          "name": "paramName",
          "type": "string"
        },
        {
          "indexed": false,
          "internalType": "uint64",
          "name": "value",
          "type": "uint64"
        }
      ],
      "name": "ParameterUpdated64",
      "type": "event"
    },
    {
      "anonymous": false,
      "inputs": [
        {
          "indexed": true,
          "internalType": "string",
          "name": "paramName",
          "type": "string"
        },
        {
          "indexed": true,
          "internalType": "enum IGovernor.Collateral",
          "name": "collateral",
          "type": "uint8"
        },
        {
          "indexed": false,
          "internalType": "uint256",
          "name": "value",
          "type": "uint256"
        }
      ],
      "name": "ParameterUpdatedByCollateral",
      "type": "event"
    },
    {
      "anonymous": false,
      "inputs": [
        {
          "indexed": true,
          "internalType": "address",
          "name": "caller",
          "type": "address"
        },
        {
          "indexed": true,
          "internalType": "uint64",
          "name": "positionID",
          "type": "uint64"
        },
        {
          "indexed": false,
          "internalType": "uint256",
          "name": "debtPaidBack",
          "type": "uint256"
        },
        {
          "indexed": false,
          "internalType": "uint256",
          "name": "collateralWithdrawn",
          "type": "uint256"
        }
      ],
      "name": "Payback",
      "type": "event"
    },
    {
      "anonymous": false,
      "inputs": [
        {
          "indexed": true,
          "internalType": "uint256",
          "name": "positionID",
          "type": "uint256"
        },
        {
          "indexed": true,
          "internalType": "uint64",
          "name": "period",
          "type": "uint64"
        },
        {
          "indexed": false,
          "internalType": "uint256",
          "name": "debtAfter",
          "type": "uint256"
        },
        {
          "indexed": false,
          "internalType": "uint256",
          "name": "cnpRewards",
          "type": "uint256"
        }
      ],
      "name": "PositionUpdated",
      "type": "event"
    },
    {
      "anonymous": false,
      "inputs": [],
      "name": "Stopped",
      "type": "event"
    },
    {
      "anonymous": false,
      "inputs": [
        {
          "indexed": true,
          "internalType": "address",
          "name": "account",
          "type": "address"
        },
        {
          "indexed": false,
          "internalType": "uint256",
          "name": "coinCount",
          "type": "uint256"
        },
        {
          "indexed": false,
          "internalType": "uint256",
          "name": "lendTokenCount",
          "type": "uint256"
        }
      ],
      "name": "Unlend",
      "type": "event"
    },
    {
      "inputs": [],
      "name": "accrueInterest",
      "outputs": [],
      "stateMutability": "nonpayable",
      "type": "function"
    },
    {
      "inputs": [
        {
          "internalType": "uint64",
          "name": "positionID",
          "type": "uint64"
        },
        {
          "internalType": "uint256",
          "name": "borrowCount",
          "type": "uint256"
        },
        {
          "internalType": "uint256",
          "name": "collateralCount",
          "type": "uint256"
        }
      ],
      "name": "borrow",
      "outputs": [],
      "stateMutability": "nonpayable",
      "type": "function"
    },
    {
      "inputs": [
        {
          "internalType": "enum IGovernor.Collateral",
          "name": "",
          "type": "uint8"
        }
      ],
      "name": "collateralizationRequirement",
      "outputs": [
        {
          "internalType": "uint256",
          "name": "",
          "type": "uint256"
        }
      ],
      "stateMutability": "view",
      "type": "function"
    },
    {
      "inputs": [
        {
          "internalType": "enum IGovernor.Collateral",
          "name": "collateralType",
          "type": "uint8"
        }
      ],
      "name": "createNewPosition",
      "outputs": [
        {
          "internalType": "uint64",
          "name": "positionID",
          "type": "uint64"
        }
      ],
      "stateMutability": "nonpayable",
      "type": "function"
    },
    {
      "inputs": [],
      "name": "currentPeriod",
      "outputs": [
        {
          "internalType": "uint64",
          "name": "period",
          "type": "uint64"
        }
      ],
      "stateMutability": "view",
      "type": "function"
    },
    {
      "inputs": [],
      "name": "deployer",
      "outputs": [
        {
          "internalType": "address",
          "name": "",
          "type": "address"
        }
      ],
      "stateMutability": "view",
      "type": "function"
    },
    {
      "inputs": [],
      "name": "firstPeriod",
      "outputs": [
        {
          "internalType": "uint64",
          "name": "",
          "type": "uint64"
        }
      ],
      "stateMutability": "view",
      "type": "function"
    },
    {
      "inputs": [
        {
          "internalType": "uint64",
          "name": "positionID",
          "type": "uint64"
        }
      ],
      "name": "getRewards",
      "outputs": [],
      "stateMutability": "nonpayable",
      "type": "function"
    },
    {
      "inputs": [],
      "name": "governor",
      "outputs": [
        {
          "internalType": "contract IGovernor",
          "name": "",
          "type": "address"
        }
      ],
      "stateMutability": "view",
      "type": "function"
    },
    {
      "inputs": [
        {
          "internalType": "contract IGovernor",
          "name": "_governor",
          "type": "address"
        }
      ],
      "name": "init",
      "outputs": [],
      "stateMutability": "nonpayable",
      "type": "function"
    },
    {
      "inputs": [],
      "name": "interestPortionToLenders",
      "outputs": [
        {
          "internalType": "uint256",
          "name": "",
          "type": "uint256"
        }
      ],
      "stateMutability": "view",
      "type": "function"
    },
    {
      "inputs": [],
      "name": "lastPeriodGlobalInterestAccrued",
      "outputs": [
        {
          "internalType": "uint64",
          "name": "",
          "type": "uint64"
        }
      ],
      "stateMutability": "view",
      "type": "function"
    },
    {
      "inputs": [
        {
          "internalType": "uint256",
          "name": "coinCount",
          "type": "uint256"
        }
      ],
      "name": "lend",
      "outputs": [],
      "stateMutability": "nonpayable",
      "type": "function"
    },
    {
      "inputs": [
        {
          "internalType": "enum IGovernor.Collateral",
          "name": "",
          "type": "uint8"
        }
      ],
      "name": "maxDebt",
      "outputs": [
        {
          "internalType": "uint256",
          "name": "",
          "type": "uint256"
        }
      ],
      "stateMutability": "view",
      "type": "function"
    },
    {
      "inputs": [],
      "name": "minBorrowTime",
      "outputs": [
        {
          "internalType": "uint64",
          "name": "",
          "type": "uint64"
        }
      ],
      "stateMutability": "view",
      "type": "function"
    },
    {
      "inputs": [
        {
          "internalType": "enum IGovernor.Collateral",
          "name": "",
          "type": "uint8"
        }
      ],
      "name": "minCollateralToDebtRatio",
      "outputs": [
        {
          "internalType": "uint256",
          "name": "",
          "type": "uint256"
        }
      ],
      "stateMutability": "view",
      "type": "function"
    },
    {
      "inputs": [],
      "name": "minPositionSize",
      "outputs": [
        {
          "internalType": "uint256",
          "name": "",
          "type": "uint256"
        }
      ],
      "stateMutability": "view",
      "type": "function"
    },
    {
      "inputs": [
        {
          "internalType": "uint64",
          "name": "positionID",
          "type": "uint64"
        },
        {
          "internalType": "uint256",
          "name": "coinsToPayBack",
          "type": "uint256"
        },
        {
          "internalType": "uint256",
          "name": "collateralToWithdraw",
          "type": "uint256"
        }
      ],
      "name": "payback",
      "outputs": [],
      "stateMutability": "nonpayable",
      "type": "function"
    },
    {
      "inputs": [],
      "name": "periodLength",
      "outputs": [
        {
          "internalType": "uint64",
          "name": "",
          "type": "uint64"
        }
      ],
      "stateMutability": "view",
      "type": "function"
    },
    {
      "inputs": [
        {
          "internalType": "enum IGovernor.Collateral",
          "name": "collateral",
          "type": "uint8"
        },
        {
          "internalType": "uint256",
          "name": "requirement",
          "type": "uint256"
        }
      ],
      "name": "setCollateralizationRequirement",
      "outputs": [],
      "stateMutability": "nonpayable",
      "type": "function"
    },
    {
      "inputs": [
        {
          "internalType": "uint256",
          "name": "percentage",
          "type": "uint256"
        }
      ],
      "name": "setInterestPortionToLenders",
      "outputs": [],
      "stateMutability": "nonpayable",
      "type": "function"
    },
    {
      "inputs": [
        {
          "internalType": "enum IGovernor.Collateral",
          "name": "collateral",
          "type": "uint8"
        },
        {
          "internalType": "uint256",
          "name": "debt",
          "type": "uint256"
        }
      ],
      "name": "setMaxDebt",
      "outputs": [],
      "stateMutability": "nonpayable",
      "type": "function"
    },
    {
      "inputs": [
        {
          "internalType": "uint64",
          "name": "time",
          "type": "uint64"
        }
      ],
      "name": "setMinBorrowTime",
      "outputs": [],
      "stateMutability": "nonpayable",
      "type": "function"
    },
    {
      "inputs": [
        {
          "internalType": "uint256",
          "name": "size",
          "type": "uint256"
        }
      ],
      "name": "setMinPositionSize",
      "outputs": [],
      "stateMutability": "nonpayable",
      "type": "function"
    },
    {
      "inputs": [],
      "name": "stop",
      "outputs": [],
      "stateMutability": "nonpayable",
      "type": "function"
    },
    {
      "inputs": [],
      "name": "stopped",
      "outputs": [
        {
          "internalType": "bool",
          "name": "",
          "type": "bool"
        }
      ],
      "stateMutability": "view",
      "type": "function"
    },
    {
      "inputs": [],
      "name": "systemAccrueInterest",
      "outputs": [],
      "stateMutability": "nonpayable",
      "type": "function"
    },
    {
      "inputs": [
        {
          "internalType": "uint64",
          "name": "positionID",
          "type": "uint64"
        }
      ],
      "name": "systemGetUpdatedPosition",
      "outputs": [
        {
          "components": [
            {
              "internalType": "uint256",
              "name": "startCumulativeDebt",
              "type": "uint256"
            },
            {
              "internalType": "uint256",
              "name": "collateral",
              "type": "uint256"
            },
            {
              "internalType": "uint256",
              "name": "debt",
              "type": "uint256"
            },
            {
              "internalType": "uint256",
              "name": "startDebtExchangeRate",
              "type": "uint256"
            },
            {
              "internalType": "uint256",
              "name": "startCNPRewards",
              "type": "uint256"
            },
            {
              "internalType": "uint64",
              "name": "collateralizationBandIndex",
              "type": "uint64"
            },
            {
              "internalType": "uint64",
              "name": "lastUpdateTime",
              "type": "uint64"
            },
            {
              "internalType": "uint64",
              "name": "lastBorrowTime",
              "type": "uint64"
            },
            {
              "internalType": "uint32",
              "name": "collateralizationBand",
              "type": "uint32"
            },
            {
              "internalType": "enum IGovernor.Collateral",
              "name": "collateralType",
              "type": "uint8"
            }
          ],
          "internalType": "struct IAccounting.DebtPosition",
          "name": "position",
          "type": "tuple"
        }
      ],
      "stateMutability": "nonpayable",
      "type": "function"
    },
    {
      "inputs": [
        {
          "internalType": "contract IUniswapV2Pair",
          "name": "pair",
          "type": "address"
        },
        {
          "internalType": "uint256",
          "name": "price",
          "type": "uint256"
        }
      ],
      "name": "systemNotifyCollateralPriceUpdated",
      "outputs": [],
      "stateMutability": "nonpayable",
      "type": "function"
    },
    {
      "inputs": [
        {
          "internalType": "uint256",
          "name": "lendTokenCount",
          "type": "uint256"
        }
      ],
      "name": "unlend",
      "outputs": [],
      "stateMutability": "nonpayable",
      "type": "function"
    },
    {
      "inputs": [
        {
          "internalType": "bytes4",
          "name": "action",
          "type": "bytes4"
        }
      ],
      "name": "validUpdate",
      "outputs": [
        {
          "internalType": "bool",
          "name": "",
          "type": "bool"
        }
      ],
      "stateMutability": "view",
      "type": "function"
    },
    {
      "inputs": [
        {
          "internalType": "uint256",
          "name": "lendTokenCount",
          "type": "uint256"
        }
      ],
      "name": "valueOfLendTokensInCoin",
      "outputs": [
        {
          "internalType": "uint256",
          "name": "coinCount",
          "type": "uint256"
        }
      ],
      "stateMutability": "view",
      "type": "function"
    }
  ],
  "bytecode": "0x60c0604052680d8d726b7177a80000600a556702c68af0bb140000600b55610708600c60006101000a81548167ffffffffffffffff021916908367ffffffffffffffff1602179055503480156200005557600080fd5b5061088e67ffffffffffffffff166301e13380816200007057fe5b0433600160006101000a81548173ffffffffffffffffffffffffffffffffffffffff021916908373ffffffffffffffffffffffffffffffffffffffff16021790555060016006819055508067ffffffffffffffff16600014158015620000e357506301e285008167ffffffffffffffff16105b62000156576040517f08c379a000000000000000000000000000000000000000000000000000000000815260040180806020018281038252601c8152602001807f54696d653a20496e76616c696420706572696f64206c656e6774682e0000000081525060200191505060405180910390fd5b60018167ffffffffffffffff16620001736200033c60201b60201c565b67ffffffffffffffff16816200018557fe5b040367ffffffffffffffff1660a08167ffffffffffffffff1660c01b815250508067ffffffffffffffff1660808167ffffffffffffffff1660c01b815250505061088e67ffffffffffffffff166301e1338081620001df57fe5b0467ffffffffffffffff16600667ffffffffffffffff1662015180816200020257fe5b0467ffffffffffffffff161462000250576040517f08c379a0000000000000000000000000000000000000000000000000000000008152600401620002479062000408565b60405180910390fd5b6a084595161401484a000000600760008060018111156200026d57fe5b60018111156200027957fe5b8152602001908152602001600020819055506a01a784379d99db4200000060076000600180811115620002a857fe5b6001811115620002b457fe5b8152602001908152602001600020819055506714d1120d7b16000060086000806001811115620002e057fe5b6001811115620002ec57fe5b8152602001908152602001600020819055506714d1120d7b160000600860006001808111156200031857fe5b60018111156200032457fe5b8152602001908152602001600020819055506200043b565b600062000354426200035960201b62003d8a1760201c565b905090565b6000680100000000000000008210620003be576040517f08c379a000000000000000000000000000000000000000000000000000000000815260040180806020018281038252602681526020018062007e076026913960400191505060405180910390fd5b819050919050565b6000620003d56012836200042a565b91507f506572696f642074696d65206572726f722e00000000000000000000000000006000830152602082019050919050565b600060208201905081810360008301526200042381620003c6565b9050919050565b600082825260208201905092915050565b60805160c01c60a05160c01c6179896200047e60003980612d825280613df952806159d8525080612da65280613e1a528061491552806159f952506179896000f3fe608060405234801561001057600080fd5b50600436106101f05760003560e01c80637a9158ae1161010f578063bb8313c2116100a2578063e746451211610071578063e746451214610545578063ea9f348a14610575578063eb6843ce14610591578063f6979f29146105c1576101f0565b8063bb8313c2146104cd578063c4e3a63b146104eb578063d2ca211514610509578063d5f3948814610527576101f0565b8063a6afed95116100de578063a6afed951461046d578063ad51d9ff14610477578063b551a00d14610493578063b6ae213a146104af576101f0565b80637a9158ae146103fb5780637f08a55a146104175780639cd8aea114610421578063a6aa57ce14610451576101f0565b80631b2b3245116101875780635a6127a9116101565780635a6127a9146103755780636768392f1461039157806375f12b21146103ad57806376d1c30e146103cb576101f0565b80631b2b3245146102db5780632b7eba3d1461030b57806332dfe598146103275780633f61633014610357576101f0565b8063113cf1ab116101c3578063113cf1ab1461025757806312cf521914610287578063197b1bf5146102a357806319ab453c146102bf576101f0565b806306040618146101f557806306972dcd1461021357806307da68f51461022f5780630c340a2414610239575b600080fd5b6101fd6105df565b60405161020a9190617406565b60405180910390f35b61022d60048036038101906102289190616a28565b6105ee565b005b610237610704565b005b6102416107cf565b60405161024e91906171be565b60405180910390f35b610271600480360381019061026c9190616735565b6107f3565b60405161027e91906171a3565b60405180910390f35b6102a1600480360381019061029c919061695d565b61085b565b005b6102bd60048036038101906102b89190616a28565b6109ba565b005b6102d960048036038101906102d491906167b0565b610d56565b005b6102f560048036038101906102f09190616a28565b61116f565b60405161030291906173c2565b60405180910390f35b6103256004803603810190610320919061695d565b611192565b005b610341600480360381019061033c919061690b565b6112dc565b60405161034e91906173c2565b60405180910390f35b61035f6112f4565b60405161036c9190617406565b60405180910390f35b61038f600480360381019061038a9190616a28565b61130e565b005b6103ab60048036038101906103a69190616acc565b61143b565b005b6103b5611c6f565b6040516103c291906171a3565b60405180910390f35b6103e560048036038101906103e0919061690b565b611c82565b6040516103f291906173c2565b60405180910390f35b610415600480360381019061041091906168cf565b611c9a565b005b61041f611e8a565b005b61043b6004803603810190610436919061690b565b611ff1565b60405161044891906173c2565b60405180910390f35b61046b60048036038101906104669190616a28565b612009565b005b610475612502565b005b610491600480360381019061048c9190616a7a565b612813565b005b6104ad60048036038101906104a89190616a7a565b61294b565b005b6104b7612d60565b6040516104c49190617406565b60405180910390f35b6104d5612d7a565b6040516104e291906173c2565b60405180910390f35b6104f3612d80565b6040516105009190617406565b60405180910390f35b610511612da4565b60405161051e9190617406565b60405180910390f35b61052f612dc8565b60405161053c91906170bb565b60405180910390f35b61055f600480360381019061055a919061690b565b612dee565b60405161056c9190617406565b60405180910390f35b61058f600480360381019061058a9190616acc565b613288565b005b6105ab60048036038101906105a69190616a7a565b613a86565b6040516105b8919061738b565b60405180910390f35b6105c9613d84565b6040516105d691906173c2565b60405180910390f35b60006105e9613df5565b905090565b60008054906101000a900473ffffffffffffffffffffffffffffffffffffffff1673ffffffffffffffffffffffffffffffffffffffff163373ffffffffffffffffffffffffffffffffffffffff16146106af576040517f08c379a00000000000000000000000000000000000000000000000000000000081526004018080602001828103825260198152602001807f476f7665726e65643a204e6f7420417574686f72697a65642e0000000000000081525060200191505060405180910390fd5b80600a819055506040516106c290617052565b60405180910390207f3a64504f0bc0c335e2aecb78638a257e0351a3fe0370861fd54ee4190b920933826040516106f991906173c2565b60405180910390a250565b60008054906101000a900473ffffffffffffffffffffffffffffffffffffffff1673ffffffffffffffffffffffffffffffffffffffff163373ffffffffffffffffffffffffffffffffffffffff16146107c5576040517f08c379a00000000000000000000000000000000000000000000000000000000081526004018080602001828103825260198152602001807f476f7665726e65643a204e6f7420417574686f72697a65642e0000000000000081525060200191505060405180910390fd5b6107cd613e63565b565b60008054906101000a900473ffffffffffffffffffffffffffffffffffffffff1681565b600060056000837bffffffffffffffffffffffffffffffffffffffffffffffffffffffff19167bffffffffffffffffffffffffffffffffffffffffffffffffffffffff1916815260200190815260200160002060009054906101000a900460ff169050919050565b60008054906101000a900473ffffffffffffffffffffffffffffffffffffffff1673ffffffffffffffffffffffffffffffffffffffff163373ffffffffffffffffffffffffffffffffffffffff161461091c576040517f08c379a00000000000000000000000000000000000000000000000000000000081526004018080602001828103825260198152602001807f476f7665726e65643a204e6f7420417574686f72697a65642e0000000000000081525060200191505060405180910390fd5b806008600084600181111561092d57fe5b600181111561093857fe5b815260200190815260200160002081905550670de0b6b3a764000081101561095f57600080fd5b81600181111561096b57fe5b6040516109779061707c565b60405180910390207f355b8345780dc91749e06eef00c0898e70c7d7adc01ae532c1ff70b6906eec82836040516109ae91906173c2565b60405180910390a35050565b600460009054906101000a900473ffffffffffffffffffffffffffffffffffffffff1673ffffffffffffffffffffffffffffffffffffffff1663e97dcb626040518163ffffffff1660e01b8152600401600060405180830381600087803b158015610a2457600080fd5b505af1158015610a38573d6000803e3d6000fd5b5050505060026006541415610ab5576040517f08c379a000000000000000000000000000000000000000000000000000000000815260040180806020018281038252601d8152602001807f4c6f636b436f6e74726163743a207265656e7472616e742063616c6c2e00000081525060200191505060405180910390fd5b6002600681905550600060149054906101000a900460ff1615610b40576040517f08c379a000000000000000000000000000000000000000000000000000000000815260040180806020018281038252601e8152602001807f476f7665726e65643a20436f6e74726163742069732073746f707065642e000081525060200191505060405180910390fd5b610b4d6000821415613eac565b6000610b588261116f565b9050600e60009054906101000a900473ffffffffffffffffffffffffffffffffffffffff1673ffffffffffffffffffffffffffffffffffffffff166379cc679033846040518363ffffffff1660e01b8152600401610bb7929190617128565b600060405180830381600087803b158015610bd157600080fd5b505af1158015610be5573d6000803e3d6000fd5b50505050600260009054906101000a900473ffffffffffffffffffffffffffffffffffffffff1673ffffffffffffffffffffffffffffffffffffffff1663db795bca33836040518363ffffffff1660e01b8152600401610c46929190617128565b600060405180830381600087803b158015610c6057600080fd5b505af1158015610c74573d6000803e3d6000fd5b505050503373ffffffffffffffffffffffffffffffffffffffff167fefc56a1a7590fc4eb13cd40b6a2ceee41f3869c6ea818d20d9a18f2d6315ca188284604051610cc09291906173dd565b60405180910390a2506001600681905550600460009054906101000a900473ffffffffffffffffffffffffffffffffffffffff1673ffffffffffffffffffffffffffffffffffffffff1663e9fad8ee6040518163ffffffff1660e01b8152600401600060405180830381600087803b158015610d3b57600080fd5b505af1158015610d4f573d6000803e3d6000fd5b5050505050565b600160009054906101000a900473ffffffffffffffffffffffffffffffffffffffff1673ffffffffffffffffffffffffffffffffffffffff163373ffffffffffffffffffffffffffffffffffffffff1614610e19576040517f08c379a000000000000000000000000000000000000000000000000000000000815260040180806020018281038252601e8152602001807f476f7665726e65643a20496e6974206e6f7420617574686f72697a65642e000081525060200191505060405180910390fd5b600160006101000a81549073ffffffffffffffffffffffffffffffffffffffff0219169055806000806101000a81548173ffffffffffffffffffffffffffffffffffffffff021916908373ffffffffffffffffffffffffffffffffffffffff16021790555060008054906101000a900473ffffffffffffffffffffffffffffffffffffffff1673ffffffffffffffffffffffffffffffffffffffff16639624e83e6040518163ffffffff1660e01b815260040160206040518083038186803b158015610ee457600080fd5b505afa158015610ef8573d6000803e3d6000fd5b505050506040513d6020811015610f0e57600080fd5b8101908080519060200190929190505050600260006101000a81548173ffffffffffffffffffffffffffffffffffffffff021916908373ffffffffffffffffffffffffffffffffffffffff16021790555060008054906101000a900473ffffffffffffffffffffffffffffffffffffffff1673ffffffffffffffffffffffffffffffffffffffff166311df99956040518163ffffffff1660e01b815260040160206040518083038186803b158015610fc557600080fd5b505afa158015610fd9573d6000803e3d6000fd5b505050506040513d6020811015610fef57600080fd5b8101908080519060200190929190505050600360006101000a81548173ffffffffffffffffffffffffffffffffffffffff021916908373ffffffffffffffffffffffffffffffffffffffff16021790555060008054906101000a900473ffffffffffffffffffffffffffffffffffffffff1673ffffffffffffffffffffffffffffffffffffffff1663d478b0876040518163ffffffff1660e01b815260040160206040518083038186803b1580156110a657600080fd5b505afa1580156110ba573d6000803e3d6000fd5b505050506040513d60208110156110d057600080fd5b8101908080519060200190929190505050600460006101000a81548173ffffffffffffffffffffffffffffffffffffffff021916908373ffffffffffffffffffffffffffffffffffffffff160217905550611129613eef565b8073ffffffffffffffffffffffffffffffffffffffff167f908408e307fc569b417f6cbec5d5a06f44a0a505ac0479b47d421a4b2fd6a1e660405160405180910390a250565b600061118b61117c6144e5565b8361469790919063ffffffff16565b9050919050565b60008054906101000a900473ffffffffffffffffffffffffffffffffffffffff1673ffffffffffffffffffffffffffffffffffffffff163373ffffffffffffffffffffffffffffffffffffffff1614611253576040517f08c379a00000000000000000000000000000000000000000000000000000000081526004018080602001828103825260198152602001807f476f7665726e65643a204e6f7420417574686f72697a65642e0000000000000081525060200191505060405180910390fd5b806007600084600181111561126457fe5b600181111561126f57fe5b81526020019081526020016000208190555081600181111561128d57fe5b60405161129990617091565b60405180910390207f355b8345780dc91749e06eef00c0898e70c7d7adc01ae532c1ff70b6906eec82836040516112d091906173c2565b60405180910390a35050565b60086020528060005260406000206000915090505481565b600c60009054906101000a900467ffffffffffffffff1681565b60008054906101000a900473ffffffffffffffffffffffffffffffffffffffff1673ffffffffffffffffffffffffffffffffffffffff163373ffffffffffffffffffffffffffffffffffffffff16146113cf576040517f08c379a00000000000000000000000000000000000000000000000000000000081526004018080602001828103825260198152602001807f476f7665726e65643a204e6f7420417574686f72697a65642e0000000000000081525060200191505060405180910390fd5b80600b81905550670de0b6b3a7640000600b5411156113ed57600080fd5b6040516113f9906170a6565b60405180910390207f3a64504f0bc0c335e2aecb78638a257e0351a3fe0370861fd54ee4190b9209338260405161143091906173c2565b60405180910390a250565b600460009054906101000a900473ffffffffffffffffffffffffffffffffffffffff1673ffffffffffffffffffffffffffffffffffffffff1663e97dcb626040518163ffffffff1660e01b8152600401600060405180830381600087803b1580156114a557600080fd5b505af11580156114b9573d6000803e3d6000fd5b5050505060026006541415611536576040517f08c379a000000000000000000000000000000000000000000000000000000000815260040180806020018281038252601d8152602001807f4c6f636b436f6e74726163743a207265656e7472616e742063616c6c2e00000081525060200191505060405180910390fd5b6002600681905550600060149054906101000a900460ff16156115c1576040517f08c379a000000000000000000000000000000000000000000000000000000000815260040180806020018281038252601e8152602001807f476f7665726e65643a20436f6e74726163742069732073746f707065642e000081525060200191505060405180910390fd5b60008054906101000a900473ffffffffffffffffffffffffffffffffffffffff1673ffffffffffffffffffffffffffffffffffffffff1663bf86d6906040518163ffffffff1660e01b815260040160206040518083038186803b15801561162757600080fd5b505afa15801561163b573d6000803e3d6000fd5b505050506040513d602081101561165157600080fd5b8101908080519060200190929190505050156116b8576040517f08c379a00000000000000000000000000000000000000000000000000000000081526004018080602001828103825260288152602001806178e56028913960400191505060405180910390fd5b61176d600d60009054906101000a900473ffffffffffffffffffffffffffffffffffffffff1673ffffffffffffffffffffffffffffffffffffffff1663430c208133866040518363ffffffff1660e01b8152600401611718929190617151565b60206040518083038186803b15801561173057600080fd5b505afa158015611744573d6000803e3d6000fd5b505050506040513d601f19601f82011682018060405250810190611768919061670c565b6147aa565b611786600083141580611781575060008214155b613eac565b61178e6162ae565b61184d8467ffffffffffffffff16600260009054906101000a900473ffffffffffffffffffffffffffffffffffffffff1673ffffffffffffffffffffffffffffffffffffffff16630f85fc5a876040518263ffffffff1660e01b81526004016117f79190617406565b6101406040518083038186803b15801561181057600080fd5b505afa158015611824573d6000803e3d6000fd5b505050506040513d601f19601f820116820180604052508101906118489190616999565b6147ed565b90506000831461197d5760008160400151141561189f576040517f08c379a00000000000000000000000000000000000000000000000000000000081526004016118969061734b565b60405180910390fd5b6118a7614ad5565b67ffffffffffffffff166118e8600c60009054906101000a900467ffffffffffffffff168360e0015167ffffffffffffffff16614ae590919063ffffffff16565b67ffffffffffffffff1610611932576040517f08c379a00000000000000000000000000000000000000000000000000000000081526004016119299061736b565b60405180910390fd5b611949816040015184614b8190919063ffffffff16565b9250611962838260400151614b9a90919063ffffffff16565b81604001818152505061197c816101200151846000614be4565b5b600082146119a65761199c828260200151614b9a90919063ffffffff16565b8160200181815250505b6119be81610120015182604001518360200151614ef1565b600260009054906101000a900473ffffffffffffffffffffffffffffffffffffffff1673ffffffffffffffffffffffffffffffffffffffff1663a075bd0185836040518363ffffffff1660e01b8152600401611a1b92919061744a565b600060405180830381600087803b158015611a3557600080fd5b505af1158015611a49573d6000803e3d6000fd5b5050505060008314611ae557600360009054906101000a900473ffffffffffffffffffffffffffffffffffffffff1673ffffffffffffffffffffffffffffffffffffffff166379cc679033856040518363ffffffff1660e01b8152600401611ab2929190617128565b600060405180830381600087803b158015611acc57600080fd5b505af1158015611ae0573d6000803e3d6000fd5b505050505b60008214611b8457600260009054906101000a900473ffffffffffffffffffffffffffffffffffffffff1673ffffffffffffffffffffffffffffffffffffffff1663f13c16b082610120015133856040518463ffffffff1660e01b8152600401611b51939291906171f4565b600060405180830381600087803b158015611b6b57600080fd5b505af1158015611b7f573d6000803e3d6000fd5b505050505b8367ffffffffffffffff163373ffffffffffffffffffffffffffffffffffffffff167f82586ff5b48028b0dec2b5fabea40d9b18bbb24279ce82c7f2b8a9c6870df7658585604051611bd79291906173dd565b60405180910390a3506001600681905550600460009054906101000a900473ffffffffffffffffffffffffffffffffffffffff1673ffffffffffffffffffffffffffffffffffffffff1663e9fad8ee6040518163ffffffff1660e01b8152600401600060405180830381600087803b158015611c5257600080fd5b505af1158015611c66573d6000803e3d6000fd5b50505050505050565b600060149054906101000a900460ff1681565b60096020528060005260406000206000915090505481565b611d6e60008054906101000a900473ffffffffffffffffffffffffffffffffffffffff1673ffffffffffffffffffffffffffffffffffffffff1663d3419bf36040518163ffffffff1660e01b815260040160206040518083038186803b158015611d0357600080fd5b505afa158015611d17573d6000803e3d6000fd5b505050506040513d601f19601f82011682018060405250810190611d3b919061682b565b73ffffffffffffffffffffffffffffffffffffffff163373ffffffffffffffffffffffffffffffffffffffff16146147aa565b60008060009054906101000a900473ffffffffffffffffffffffffffffffffffffffff1673ffffffffffffffffffffffffffffffffffffffff16632cbf54e4846040518263ffffffff1660e01b8152600401611dca91906171d9565b60206040518083038186803b158015611de257600080fd5b505afa158015611df6573d6000803e3d6000fd5b505050506040513d601f19601f82011682018060405250810190611e1a9190616934565b9050611e588260086000846001811115611e3057fe5b6001811115611e3b57fe5b81526020019081526020016000205461469790919063ffffffff16565b60096000836001811115611e6857fe5b6001811115611e7357fe5b815260200190815260200160002081905550505050565b60026006541415611f03576040517f08c379a000000000000000000000000000000000000000000000000000000000815260040180806020018281038252601d8152602001807f4c6f636b436f6e74726163743a207265656e7472616e742063616c6c2e00000081525060200191505060405180910390fd5b6002600681905550611fdf60008054906101000a900473ffffffffffffffffffffffffffffffffffffffff1673ffffffffffffffffffffffffffffffffffffffff16639a371c846040518163ffffffff1660e01b815260040160206040518083038186803b158015611f7457600080fd5b505afa158015611f88573d6000803e3d6000fd5b505050506040513d601f19601f82011682018060405250810190611fac9190616802565b73ffffffffffffffffffffffffffffffffffffffff163373ffffffffffffffffffffffffffffffffffffffff16146147aa565b611fe7615005565b6001600681905550565b60076020528060005260406000206000915090505481565b600460009054906101000a900473ffffffffffffffffffffffffffffffffffffffff1673ffffffffffffffffffffffffffffffffffffffff1663e97dcb626040518163ffffffff1660e01b8152600401600060405180830381600087803b15801561207357600080fd5b505af1158015612087573d6000803e3d6000fd5b5050505060026006541415612104576040517f08c379a000000000000000000000000000000000000000000000000000000000815260040180806020018281038252601d8152602001807f4c6f636b436f6e74726163743a207265656e7472616e742063616c6c2e00000081525060200191505060405180910390fd5b6002600681905550600060149054906101000a900460ff161561218f576040517f08c379a000000000000000000000000000000000000000000000000000000000815260040180806020018281038252601e8152602001807f476f7665726e65643a20436f6e74726163742069732073746f707065642e000081525060200191505060405180910390fd5b60008054906101000a900473ffffffffffffffffffffffffffffffffffffffff1673ffffffffffffffffffffffffffffffffffffffff1663bf86d6906040518163ffffffff1660e01b815260040160206040518083038186803b1580156121f557600080fd5b505afa158015612209573d6000803e3d6000fd5b505050506040513d602081101561221f57600080fd5b810190808051906020019092919050505015612286576040517f08c379a00000000000000000000000000000000000000000000000000000000081526004018080602001828103825260288152602001806178e56028913960400191505060405180910390fd5b6122936000821415613eac565b61229b615005565b60006122b76122a86144e5565b836158aa90919063ffffffff16565b9050600360009054906101000a900473ffffffffffffffffffffffffffffffffffffffff1673ffffffffffffffffffffffffffffffffffffffff166323b872dd33600260009054906101000a900473ffffffffffffffffffffffffffffffffffffffff16856040518463ffffffff1660e01b815260040161233a939291906170f1565b602060405180830381600087803b15801561235457600080fd5b505af1158015612368573d6000803e3d6000fd5b505050506040513d601f19601f8201168201806040525081019061238c919061670c565b61239557600080fd5b600e60009054906101000a900473ffffffffffffffffffffffffffffffffffffffff1673ffffffffffffffffffffffffffffffffffffffff1663449a52f833836040518363ffffffff1660e01b81526004016123f2929190617128565b600060405180830381600087803b15801561240c57600080fd5b505af1158015612420573d6000803e3d6000fd5b505050503373ffffffffffffffffffffffffffffffffffffffff167f8fff79b574da9a93d7a5408c2fc00c4a9b2b462321c1659b2fbbb9ff3dd221ff838360405161246c9291906173dd565b60405180910390a2506001600681905550600460009054906101000a900473ffffffffffffffffffffffffffffffffffffffff1673ffffffffffffffffffffffffffffffffffffffff1663e9fad8ee6040518163ffffffff1660e01b8152600401600060405180830381600087803b1580156124e757600080fd5b505af11580156124fb573d6000803e3d6000fd5b5050505050565b600460009054906101000a900473ffffffffffffffffffffffffffffffffffffffff1673ffffffffffffffffffffffffffffffffffffffff1663e97dcb626040518163ffffffff1660e01b8152600401600060405180830381600087803b15801561256c57600080fd5b505af1158015612580573d6000803e3d6000fd5b50505050600260065414156125fd576040517f08c379a000000000000000000000000000000000000000000000000000000000815260040180806020018281038252601d8152602001807f4c6f636b436f6e74726163743a207265656e7472616e742063616c6c2e00000081525060200191505060405180910390fd5b6002600681905550600060149054906101000a900460ff1615612688576040517f08c379a000000000000000000000000000000000000000000000000000000000815260040180806020018281038252601e8152602001807f476f7665726e65643a20436f6e74726163742069732073746f707065642e000081525060200191505060405180910390fd5b60008054906101000a900473ffffffffffffffffffffffffffffffffffffffff1673ffffffffffffffffffffffffffffffffffffffff1663bf86d6906040518163ffffffff1660e01b815260040160206040518083038186803b1580156126ee57600080fd5b505afa158015612702573d6000803e3d6000fd5b505050506040513d602081101561271857600080fd5b81019080805190602001909291905050501561277f576040517f08c379a00000000000000000000000000000000000000000000000000000000081526004018080602001828103825260288152602001806178e56028913960400191505060405180910390fd5b612787615005565b6001600681905550600460009054906101000a900473ffffffffffffffffffffffffffffffffffffffff1673ffffffffffffffffffffffffffffffffffffffff1663e9fad8ee6040518163ffffffff1660e01b8152600401600060405180830381600087803b1580156127f957600080fd5b505af115801561280d573d6000803e3d6000fd5b50505050565b60008054906101000a900473ffffffffffffffffffffffffffffffffffffffff1673ffffffffffffffffffffffffffffffffffffffff163373ffffffffffffffffffffffffffffffffffffffff16146128d4576040517f08c379a00000000000000000000000000000000000000000000000000000000081526004018080602001828103825260198152602001807f476f7665726e65643a204e6f7420417574686f72697a65642e0000000000000081525060200191505060405180910390fd5b80600c60006101000a81548167ffffffffffffffff021916908367ffffffffffffffff16021790555060405161290990617067565b60405180910390207f6293347933ad2997134e224ac8cd2e39908a4a22aeed9af52127b4bbf7652978826040516129409190617406565b60405180910390a250565b600460009054906101000a900473ffffffffffffffffffffffffffffffffffffffff1673ffffffffffffffffffffffffffffffffffffffff1663e97dcb626040518163ffffffff1660e01b8152600401600060405180830381600087803b1580156129b557600080fd5b505af11580156129c9573d6000803e3d6000fd5b5050505060026006541415612a46576040517f08c379a000000000000000000000000000000000000000000000000000000000815260040180806020018281038252601d8152602001807f4c6f636b436f6e74726163743a207265656e7472616e742063616c6c2e00000081525060200191505060405180910390fd5b6002600681905550600060149054906101000a900460ff1615612ad1576040517f08c379a000000000000000000000000000000000000000000000000000000000815260040180806020018281038252601e8152602001807f476f7665726e65643a20436f6e74726163742069732073746f707065642e000081525060200191505060405180910390fd5b612b86600d60009054906101000a900473ffffffffffffffffffffffffffffffffffffffff1673ffffffffffffffffffffffffffffffffffffffff1663430c208133846040518363ffffffff1660e01b8152600401612b31929190617151565b60206040518083038186803b158015612b4957600080fd5b505afa158015612b5d573d6000803e3d6000fd5b505050506040513d601f19601f82011682018060405250810190612b81919061670c565b6147aa565b600260009054906101000a900473ffffffffffffffffffffffffffffffffffffffff1673ffffffffffffffffffffffffffffffffffffffff1663a075bd0182612c848467ffffffffffffffff16600260009054906101000a900473ffffffffffffffffffffffffffffffffffffffff1673ffffffffffffffffffffffffffffffffffffffff16630f85fc5a876040518263ffffffff1660e01b8152600401612c2e9190617406565b6101406040518083038186803b158015612c4757600080fd5b505afa158015612c5b573d6000803e3d6000fd5b505050506040513d601f19601f82011682018060405250810190612c7f9190616999565b6147ed565b6040518363ffffffff1660e01b8152600401612ca192919061744a565b600060405180830381600087803b158015612cbb57600080fd5b505af1158015612ccf573d6000803e3d6000fd5b505050506001600681905550600460009054906101000a900473ffffffffffffffffffffffffffffffffffffffff1673ffffffffffffffffffffffffffffffffffffffff1663e9fad8ee6040518163ffffffff1660e01b8152600401600060405180830381600087803b158015612d4557600080fd5b505af1158015612d59573d6000803e3d6000fd5b5050505050565b600c60089054906101000a900467ffffffffffffffff1681565b600a5481565b7f000000000000000000000000000000000000000000000000000000000000000081565b7f000000000000000000000000000000000000000000000000000000000000000081565b600160009054906101000a900473ffffffffffffffffffffffffffffffffffffffff1681565b6000600460009054906101000a900473ffffffffffffffffffffffffffffffffffffffff1673ffffffffffffffffffffffffffffffffffffffff1663e97dcb626040518163ffffffff1660e01b8152600401600060405180830381600087803b158015612e5a57600080fd5b505af1158015612e6e573d6000803e3d6000fd5b5050505060026006541415612eeb576040517f08c379a000000000000000000000000000000000000000000000000000000000815260040180806020018281038252601d8152602001807f4c6f636b436f6e74726163743a207265656e7472616e742063616c6c2e00000081525060200191505060405180910390fd5b6002600681905550600060149054906101000a900460ff1615612f76576040517f08c379a000000000000000000000000000000000000000000000000000000000815260040180806020018281038252601e8152602001807f476f7665726e65643a20436f6e74726163742069732073746f707065642e000081525060200191505060405180910390fd5b60008054906101000a900473ffffffffffffffffffffffffffffffffffffffff1673ffffffffffffffffffffffffffffffffffffffff1663bf86d6906040518163ffffffff1660e01b815260040160206040518083038186803b158015612fdc57600080fd5b505afa158015612ff0573d6000803e3d6000fd5b505050506040513d602081101561300657600080fd5b81019080805190602001909291905050501561306d576040517f08c379a00000000000000000000000000000000000000000000000000000000081526004018080602001828103825260288152602001806178e56028913960400191505060405180910390fd5b600d60009054906101000a900473ffffffffffffffffffffffffffffffffffffffff1673ffffffffffffffffffffffffffffffffffffffff1663755edd17336040518263ffffffff1660e01b81526004016130c891906170d6565b602060405180830381600087803b1580156130e257600080fd5b505af11580156130f6573d6000803e3d6000fd5b505050506040513d601f19601f8201168201806040525081019061311a9190616aa3565b9050600260009054906101000a900473ffffffffffffffffffffffffffffffffffffffff1673ffffffffffffffffffffffffffffffffffffffff16637e890dcf82846040518363ffffffff1660e01b8152600401613179929190617421565b600060405180830381600087803b15801561319357600080fd5b505af11580156131a7573d6000803e3d6000fd5b505050508067ffffffffffffffff163373ffffffffffffffffffffffffffffffffffffffff167f5e61a417c052598d1a3e26d3d81c42d9e7a943dccc23a840bc94bbabf9b1d60760405160405180910390a36001600681905550600460009054906101000a900473ffffffffffffffffffffffffffffffffffffffff1673ffffffffffffffffffffffffffffffffffffffff1663e9fad8ee6040518163ffffffff1660e01b8152600401600060405180830381600087803b15801561326b57600080fd5b505af115801561327f573d6000803e3d6000fd5b50505050919050565b600460009054906101000a900473ffffffffffffffffffffffffffffffffffffffff1673ffffffffffffffffffffffffffffffffffffffff1663e97dcb626040518163ffffffff1660e01b8152600401600060405180830381600087803b1580156132f257600080fd5b505af1158015613306573d6000803e3d6000fd5b5050505060026006541415613383576040517f08c379a000000000000000000000000000000000000000000000000000000000815260040180806020018281038252601d8152602001807f4c6f636b436f6e74726163743a207265656e7472616e742063616c6c2e00000081525060200191505060405180910390fd5b6002600681905550600060149054906101000a900460ff161561340e576040517f08c379a000000000000000000000000000000000000000000000000000000000815260040180806020018281038252601e8152602001807f476f7665726e65643a20436f6e74726163742069732073746f707065642e000081525060200191505060405180910390fd5b60008054906101000a900473ffffffffffffffffffffffffffffffffffffffff1673ffffffffffffffffffffffffffffffffffffffff1663bf86d6906040518163ffffffff1660e01b815260040160206040518083038186803b15801561347457600080fd5b505afa158015613488573d6000803e3d6000fd5b505050506040513d602081101561349e57600080fd5b810190808051906020019092919050505015613505576040517f08c379a00000000000000000000000000000000000000000000000000000000081526004018080602001828103825260288152602001806178e56028913960400191505060405180910390fd5b6135ba600d60009054906101000a900473ffffffffffffffffffffffffffffffffffffffff1673ffffffffffffffffffffffffffffffffffffffff1663430c208133866040518363ffffffff1660e01b8152600401613565929190617151565b60206040518083038186803b15801561357d57600080fd5b505afa158015613591573d6000803e3d6000fd5b505050506040513d601f19601f820116820180604052508101906135b5919061670c565b6147aa565b6135d36000831415806135ce575060008214155b613eac565b6135db6162ae565b61369a8467ffffffffffffffff16600260009054906101000a900473ffffffffffffffffffffffffffffffffffffffff1673ffffffffffffffffffffffffffffffffffffffff16630f85fc5a876040518263ffffffff1660e01b81526004016136449190617406565b6101406040518083038186803b15801561365d57600080fd5b505afa158015613671573d6000803e3d6000fd5b505050506040513d601f19601f820116820180604052508101906136959190616999565b6147ed565b9050600083146136fd576136bb83826040015161594990919063ffffffff16565b8160400181815250506136cc614ad5565b8160e0019067ffffffffffffffff16908167ffffffffffffffff16815250506136fc816101200151846001614be4565b5b600082146137265761371c82826020015161594990919063ffffffff16565b8160200181815250505b61373e81610120015182604001518360200151614ef1565b600260009054906101000a900473ffffffffffffffffffffffffffffffffffffffff1673ffffffffffffffffffffffffffffffffffffffff1663a075bd0185836040518363ffffffff1660e01b815260040161379b92919061744a565b600060405180830381600087803b1580156137b557600080fd5b505af11580156137c9573d6000803e3d6000fd5b50505050600082146139035760008060018111156137e357fe5b82610120015160018111156137f457fe5b1461382157601060009054906101000a900473ffffffffffffffffffffffffffffffffffffffff16613845565b600f60009054906101000a900473ffffffffffffffffffffffffffffffffffffffff165b90508073ffffffffffffffffffffffffffffffffffffffff166323b872dd33600260009054906101000a900473ffffffffffffffffffffffffffffffffffffffff16866040518463ffffffff1660e01b81526004016138a6939291906170f1565b602060405180830381600087803b1580156138c057600080fd5b505af11580156138d4573d6000803e3d6000fd5b505050506040513d601f19601f820116820180604052508101906138f8919061670c565b61390157600080fd5b505b6000831461399b57600360009054906101000a900473ffffffffffffffffffffffffffffffffffffffff1673ffffffffffffffffffffffffffffffffffffffff1663449a52f833856040518363ffffffff1660e01b8152600401613968929190617128565b600060405180830381600087803b15801561398257600080fd5b505af1158015613996573d6000803e3d6000fd5b505050505b8367ffffffffffffffff163373ffffffffffffffffffffffffffffffffffffffff167fa662e83179bdff2a626548818030e7fd90d11c79f0e3eedcf9ba39148c203ae485856040516139ee9291906173dd565b60405180910390a3506001600681905550600460009054906101000a900473ffffffffffffffffffffffffffffffffffffffff1673ffffffffffffffffffffffffffffffffffffffff1663e9fad8ee6040518163ffffffff1660e01b8152600401600060405180830381600087803b158015613a6957600080fd5b505af1158015613a7d573d6000803e3d6000fd5b50505050505050565b613a8e6162ae565b60026006541415613b07576040517f08c379a000000000000000000000000000000000000000000000000000000000815260040180806020018281038252601d8152602001807f4c6f636b436f6e74726163743a207265656e7472616e742063616c6c2e00000081525060200191505060405180910390fd5b6002600681905550613cb660008054906101000a900473ffffffffffffffffffffffffffffffffffffffff1673ffffffffffffffffffffffffffffffffffffffff16639a371c846040518163ffffffff1660e01b815260040160206040518083038186803b158015613b7857600080fd5b505afa158015613b8c573d6000803e3d6000fd5b505050506040513d601f19601f82011682018060405250810190613bb09190616802565b73ffffffffffffffffffffffffffffffffffffffff163373ffffffffffffffffffffffffffffffffffffffff161480613cb1575060008054906101000a900473ffffffffffffffffffffffffffffffffffffffff1673ffffffffffffffffffffffffffffffffffffffff1663511606306040518163ffffffff1660e01b815260040160206040518083038186803b158015613c4a57600080fd5b505afa158015613c5e573d6000803e3d6000fd5b505050506040513d601f19601f82011682018060405250810190613c8291906168a6565b73ffffffffffffffffffffffffffffffffffffffff163373ffffffffffffffffffffffffffffffffffffffff16145b6147aa565b613d758267ffffffffffffffff16600260009054906101000a900473ffffffffffffffffffffffffffffffffffffffff1673ffffffffffffffffffffffffffffffffffffffff16630f85fc5a856040518263ffffffff1660e01b8152600401613d1f9190617406565b6101406040518083038186803b158015613d3857600080fd5b505afa158015613d4c573d6000803e3d6000fd5b505050506040513d601f19601f82011682018060405250810190613d709190616999565b6147ed565b90506001600681905550919050565b600b5481565b6000680100000000000000008210613ded576040517f08c379a000000000000000000000000000000000000000000000000000000000815260040180806020018281038252602681526020018061792e6026913960400191505060405180910390fd5b819050919050565b60007f00000000000000000000000000000000000000000000000000000000000000007f000000000000000000000000000000000000000000000000000000000000000067ffffffffffffffff16613e4b614ad5565b67ffffffffffffffff1681613e5c57fe5b0403905090565b6001600060146101000a81548160ff0219169083151502179055507f7acc84e34091ae817647a4c49116f5cc07f319078ba80f8f5fde37ea7e25cbd660405160405180910390a1565b80613eec576040517f08c379a0000000000000000000000000000000000000000000000000000000008152600401613ee3906172eb565b60405180910390fd5b50565b613ef7613df5565b600c60086101000a81548167ffffffffffffffff021916908367ffffffffffffffff1602179055506001600c60089054906101000a900467ffffffffffffffff1667ffffffffffffffff1614613f4c57600080fd5b60008054906101000a900473ffffffffffffffffffffffffffffffffffffffff1673ffffffffffffffffffffffffffffffffffffffff16637380f6796040518163ffffffff1660e01b815260040160206040518083038186803b158015613fb257600080fd5b505afa158015613fc6573d6000803e3d6000fd5b505050506040513d601f19601f82011682018060405250810190613fea919061675e565b600d60006101000a81548173ffffffffffffffffffffffffffffffffffffffff021916908373ffffffffffffffffffffffffffffffffffffffff16021790555060008054906101000a900473ffffffffffffffffffffffffffffffffffffffff1673ffffffffffffffffffffffffffffffffffffffff1663ba2481d16040518163ffffffff1660e01b815260040160206040518083038186803b15801561409057600080fd5b505afa1580156140a4573d6000803e3d6000fd5b505050506040513d601f19601f820116820180604052508101906140c891906167d9565b600e60006101000a81548173ffffffffffffffffffffffffffffffffffffffff021916908373ffffffffffffffffffffffffffffffffffffffff16021790555060008054906101000a900473ffffffffffffffffffffffffffffffffffffffff1673ffffffffffffffffffffffffffffffffffffffff16633fc8cef36040518163ffffffff1660e01b815260040160206040518083038186803b15801561416e57600080fd5b505afa158015614182573d6000803e3d6000fd5b505050506040513d601f19601f820116820180604052508101906141a69190616787565b600f60006101000a81548173ffffffffffffffffffffffffffffffffffffffff021916908373ffffffffffffffffffffffffffffffffffffffff16021790555060008054906101000a900473ffffffffffffffffffffffffffffffffffffffff1673ffffffffffffffffffffffffffffffffffffffff1663a28d57d86040518163ffffffff1660e01b815260040160206040518083038186803b15801561424c57600080fd5b505afa158015614260573d6000803e3d6000fd5b505050506040513d601f19601f820116820180604052508101906142849190616787565b601060006101000a81548173ffffffffffffffffffffffffffffffffffffffff021916908373ffffffffffffffffffffffffffffffffffffffff1602179055506142cc616330565b6040518060a00160405280632b7eba3d60e01b7bffffffffffffffffffffffffffffffffffffffffffffffffffffffff19167bffffffffffffffffffffffffffffffffffffffffffffffffffffffff191681526020016312cf521960e01b7bffffffffffffffffffffffffffffffffffffffffffffffffffffffff19167bffffffffffffffffffffffffffffffffffffffffffffffffffffffff191681526020016306972dcd60e01b7bffffffffffffffffffffffffffffffffffffffffffffffffffffffff19167bffffffffffffffffffffffffffffffffffffffffffffffffffffffff19168152602001635a6127a960e01b7bffffffffffffffffffffffffffffffffffffffffffffffffffffffff19167bffffffffffffffffffffffffffffffffffffffffffffffffffffffff1916815260200163ad51d9ff60e01b7bffffffffffffffffffffffffffffffffffffffffffffffffffffffff19167bffffffffffffffffffffffffffffffffffffffffffffffffffffffff1916815250905060005b60058110156144e15760016005600084846005811061446c57fe5b60200201517bffffffffffffffffffffffffffffffffffffffffffffffffffffffff19167bffffffffffffffffffffffffffffffffffffffffffffffffffffffff1916815260200190815260200160002060006101000a81548160ff0219169083151502179055508080600101915050614451565b5050565b600080600360009054906101000a900473ffffffffffffffffffffffffffffffffffffffff1673ffffffffffffffffffffffffffffffffffffffff166370a08231600260009054906101000a900473ffffffffffffffffffffffffffffffffffffffff166040518263ffffffff1660e01b815260040161456591906170bb565b60206040518083038186803b15801561457d57600080fd5b505afa158015614591573d6000803e3d6000fd5b505050506040513d601f19601f820116820180604052508101906145b59190616a51565b90506000600e60009054906101000a900473ffffffffffffffffffffffffffffffffffffffff1673ffffffffffffffffffffffffffffffffffffffff166318160ddd6040518163ffffffff1660e01b815260040160206040518083038186803b15801561462157600080fd5b505afa158015614635573d6000803e3d6000fd5b505050506040513d601f19601f820116820180604052508101906146599190616a51565b9050600081148061466a5750600082145b61468657614681828261469790919063ffffffff16565b614690565b670de0b6b3a76400005b9250505090565b6000808314156146aa57600090506147a4565b6000821415614721576040517f08c379a000000000000000000000000000000000000000000000000000000000815260040180806020018281038252601b8152602001807f536166654d6174683a206469766973696f6e206279207a65726f2e000000000081525060200191505060405180910390fd5b670de0b6b3a764000083029050670de0b6b3a764000083828161474057fe5b0414614797576040517f08c379a00000000000000000000000000000000000000000000000000000000081526004018080602001828103825260228152602001806178c36022913960400191505060405180910390fd5b8181816147a057fe5b0490505b92915050565b806147ea576040517f08c379a00000000000000000000000000000000000000000000000000000000081526004016147e19061730b565b60405180910390fd5b50565b6147f56162ae565b6000808360c0015167ffffffffffffffff161461481e576148198360c001516159d1565b614821565b60005b9050600061482d615a54565b9050600061483a826159d1565b90508067ffffffffffffffff168367ffffffffffffffff161061486257849350505050614acf565b61486a615005565b600061493986600260009054906101000a900473ffffffffffffffffffffffffffffffffffffffff1673ffffffffffffffffffffffffffffffffffffffff166306ef2d806040518163ffffffff1660e01b815260040160a06040518083038186803b1580156148d857600080fd5b505afa1580156148ec573d6000803e3d6000fd5b505050506040513d601f19601f8201168201806040525081019061491091906169c3565b8585887f0000000000000000000000000000000000000000000000000000000000000000615b3e565b809250819650505060008114614a815760008054906101000a900473ffffffffffffffffffffffffffffffffffffffff1673ffffffffffffffffffffffffffffffffffffffff16637ccbff96600d60009054906101000a900473ffffffffffffffffffffffffffffffffffffffff1673ffffffffffffffffffffffffffffffffffffffff16636352211e8a6040518263ffffffff1660e01b81526004016149e091906173c2565b60206040518083038186803b1580156149f857600080fd5b505afa158015614a0c573d6000803e3d6000fd5b505050506040513d601f19601f82011682018060405250810190614a3091906166e3565b836040518363ffffffff1660e01b8152600401614a4e92919061717a565b600060405180830381600087803b158015614a6857600080fd5b505af1158015614a7c573d6000803e3d6000fd5b505050505b8167ffffffffffffffff16877fc99ac0d15229fa72f1b0756c0eed4e7ede3d80f4e4e0d308ce7a56d1366b8a03876040015184604051614ac29291906173dd565b60405180910390a3505050505b92915050565b6000614ae042613d8a565b905090565b60008082840190508367ffffffffffffffff168167ffffffffffffffff161015614b77576040517f08c379a000000000000000000000000000000000000000000000000000000000815260040180806020018281038252601b8152602001807f536166654d6174683a206164646974696f6e206f766572666c6f77000000000081525060200191505060405180910390fd5b8091505092915050565b6000818310614b905781614b92565b825b905092915050565b6000614bdc83836040518060400160405280601e81526020017f536166654d6174683a207375627472616374696f6e206f766572666c6f770000815250615cca565b905092915050565b600080600260009054906101000a900473ffffffffffffffffffffffffffffffffffffffff1673ffffffffffffffffffffffffffffffffffffffff16634b6f31988686866040518463ffffffff1660e01b8152600401614c4693929190617254565b6040805180830381600087803b158015614c5f57600080fd5b505af1158015614c73573d6000803e3d6000fd5b505050506040513d601f19601f82011682018060405250810190614c9791906169ec565b6fffffffffffffffffffffffffffffffff1691506fffffffffffffffffffffffffffffffff1691508215614eea5760008060009054906101000a900473ffffffffffffffffffffffffffffffffffffffff1673ffffffffffffffffffffffffffffffffffffffff16639ec5a8946040518163ffffffff1660e01b815260040160206040518083038186803b158015614d2e57600080fd5b505afa158015614d42573d6000803e3d6000fd5b505050506040513d601f19601f82011682018060405250810190614d66919061687d565b90506000806001811115614d7657fe5b876001811115614d8257fe5b14614d8d5782614d8f565b835b905060076000886001811115614da157fe5b6001811115614dac57fe5b815260200190815260200160002054811115614dfd576040517f08c379a0000000000000000000000000000000000000000000000000000000008152600401614df4906172ab565b60405180910390fd5b8173ffffffffffffffffffffffffffffffffffffffff16633d96c93f88836040518363ffffffff1660e01b8152600401614e3892919061722b565b600060405180830381600087803b158015614e5257600080fd5b505af1158015614e66573d6000803e3d6000fd5b505050508173ffffffffffffffffffffffffffffffffffffffff1663f8db46b5614e99858761594990919063ffffffff16565b6040518263ffffffff1660e01b8152600401614eb591906173c2565b600060405180830381600087803b158015614ecf57600080fd5b505af1158015614ee3573d6000803e3d6000fd5b5050505050505b5050505050565b6000821461500057600a54821015614f3e576040517f08c379a0000000000000000000000000000000000000000000000000000000008152600401614f359061732b565b60405180910390fd5b6000811415614f82576040517f08c379a0000000000000000000000000000000000000000000000000000000008152600401614f79906172cb565b60405180910390fd5b60096000846001811115614f9257fe5b6001811115614f9d57fe5b815260200190815260200160002054614fbf838361469790919063ffffffff16565b11614fff576040517f08c379a0000000000000000000000000000000000000000000000000000000008152600401614ff69061728b565b60405180910390fd5b5b505050565b6000615017615012615a54565b6159d1565b9050600c60089054906101000a900467ffffffffffffffff1667ffffffffffffffff168167ffffffffffffffff161161505057506158a8565b6000600c60089054906101000a900467ffffffffffffffff1682039050615075616352565b600260009054906101000a900473ffffffffffffffffffffffffffffffffffffffff1673ffffffffffffffffffffffffffffffffffffffff166306ef2d806040518163ffffffff1660e01b815260040160a06040518083038186803b1580156150dd57600080fd5b505afa1580156150f1573d6000803e3d6000fd5b505050506040513d601f19601f8201168201806040525081019061511591906169c3565b905060008060009054906101000a900473ffffffffffffffffffffffffffffffffffffffff1673ffffffffffffffffffffffffffffffffffffffff166343f48fbd6040518163ffffffff1660e01b815260040160206040518083038186803b15801561518057600080fd5b505afa158015615194573d6000803e3d6000fd5b505050506040513d601f19601f820116820180604052508101906151b89190616854565b90506151c2616381565b61536b83858473ffffffffffffffffffffffffffffffffffffffff1663a0fc0eda6040518163ffffffff1660e01b815260040160206040518083038186803b15801561520d57600080fd5b505afa158015615221573d6000803e3d6000fd5b505050506040513d601f19601f820116820180604052508101906152459190616a51565b8573ffffffffffffffffffffffffffffffffffffffff16636d7fa6646040518163ffffffff1660e01b815260040160206040518083038186803b15801561528b57600080fd5b505afa15801561529f573d6000803e3d6000fd5b505050506040513d601f19601f820116820180604052508101906152c3919061670c565b600360009054906101000a900473ffffffffffffffffffffffffffffffffffffffff1673ffffffffffffffffffffffffffffffffffffffff166375172a8b6040518163ffffffff1660e01b815260040160206040518083038186803b15801561532b57600080fd5b505afa15801561533f573d6000803e3d6000fd5b505050506040513d601f19601f820116820180604052508101906153639190616a51565b600b54615d8a565b9050600061556260008054906101000a900473ffffffffffffffffffffffffffffffffffffffff1673ffffffffffffffffffffffffffffffffffffffff16639ec5a8946040518163ffffffff1660e01b815260040160206040518083038186803b1580156153d857600080fd5b505afa1580156153ec573d6000803e3d6000fd5b505050506040513d601f19601f82011682018060405250810190615410919061687d565b73ffffffffffffffffffffffffffffffffffffffff16630a86f1096040518163ffffffff1660e01b815260040160206040518083038186803b15801561545557600080fd5b505afa158015615469573d6000803e3d6000fd5b505050506040513d601f19601f8201168201806040525081019061548d9190616a51565b6155548767ffffffffffffffff16600667ffffffffffffffff1660008054906101000a900473ffffffffffffffffffffffffffffffffffffffff1673ffffffffffffffffffffffffffffffffffffffff1663c375e6ed6040518163ffffffff1660e01b815260040160206040518083038186803b15801561550d57600080fd5b505afa158015615521573d6000803e3d6000fd5b505050506040513d601f19601f820116820180604052508101906155459190616a51565b615f299092919063ffffffff16565b6158aa90919063ffffffff16565b905061557984868385600001518660200151616038565b9350600260009054906101000a900473ffffffffffffffffffffffffffffffffffffffff1673ffffffffffffffffffffffffffffffffffffffff16631e70dda8856040518263ffffffff1660e01b81526004016155d691906173a7565b600060405180830381600087803b1580156155f057600080fd5b505af1158015615604573d6000803e3d6000fd5b5050505085600c60086101000a81548167ffffffffffffffff021916908367ffffffffffffffff16021790555060008260600151146156f357600360009054906101000a900473ffffffffffffffffffffffffffffffffffffffff1673ffffffffffffffffffffffffffffffffffffffff1663449a52f8600260009054906101000a900473ffffffffffffffffffffffffffffffffffffffff1684606001516040518363ffffffff1660e01b81526004016156c092919061717a565b600060405180830381600087803b1580156156da57600080fd5b505af11580156156ee573d6000803e3d6000fd5b505050505b60008260400151146157b557600360009054906101000a900473ffffffffffffffffffffffffffffffffffffffff1673ffffffffffffffffffffffffffffffffffffffff1663449a52f8600360009054906101000a900473ffffffffffffffffffffffffffffffffffffffff1684604001516040518363ffffffff1660e01b815260040161578292919061717a565b600060405180830381600087803b15801561579c57600080fd5b505af11580156157b0573d6000803e3d6000fd5b505050505b600082608001511461585357600360009054906101000a900473ffffffffffffffffffffffffffffffffffffffff1673ffffffffffffffffffffffffffffffffffffffff1663c59fb1ab83608001516040518263ffffffff1660e01b815260040161582091906173c2565b600060405180830381600087803b15801561583a57600080fd5b505af115801561584e573d6000803e3d6000fd5b505050505b8567ffffffffffffffff167f71da81b0a41aa29a1d29cd931a7a2f61a82516897a262f1c5321ece756659fc1868460000151876040015160405161589993929190617474565b60405180910390a25050505050505b565b6000808314806158ba5750600082145b156158c85760009050615943565b8183029050818382816158d757fe5b041461592e576040517f08c379a00000000000000000000000000000000000000000000000000000000081526004018080602001828103825260228152602001806178c36022913960400191505060405180910390fd5b670de0b6b3a7640000818161593f57fe5b0490505b92915050565b6000808284019050838110156159c7576040517f08c379a000000000000000000000000000000000000000000000000000000000815260040180806020018281038252601b8152602001807f536166654d6174683a206164646974696f6e206f766572666c6f77000000000081525060200191505060405180910390fd5b8091505092915050565b6000615a4d7f00000000000000000000000000000000000000000000000000000000000000007f000000000000000000000000000000000000000000000000000000000000000067ffffffffffffffff168467ffffffffffffffff1681615a3457fe5b0467ffffffffffffffff1661610a90919063ffffffff16565b9050919050565b6000615a5e614ad5565b905060008060009054906101000a900473ffffffffffffffffffffffffffffffffffffffff1673ffffffffffffffffffffffffffffffffffffffff1663585690816040518163ffffffff1660e01b815260040160206040518083038186803b158015615ac957600080fd5b505afa158015615add573d6000803e3d6000fd5b505050506040513d601f19601f82011682018060405250810190615b019190616aa3565b905060008167ffffffffffffffff1614158015615b3157508067ffffffffffffffff168267ffffffffffffffff16115b15615b3a578091505b5090565b615b466162ae565b60008467ffffffffffffffff168467ffffffffffffffff1610615b6f5787600091509150615cbf565b87915060008467ffffffffffffffff1614158015615b9257506000826040015114155b15615c7457615bb8876080015183606001518460400151615f299092919063ffffffff16565b826040018181525050600084860367ffffffffffffffff16615beb84600001518a60600151614b9a90919063ffffffff16565b81615bf257fe5b049050615c70615c198460c001518967ffffffffffffffff1661610a90919063ffffffff16565b67ffffffffffffffff168567ffffffffffffffff16615c61615c4c87608001518d60400151614b9a90919063ffffffff16565b858860400151615f299092919063ffffffff16565b615f299092919063ffffffff16565b9150505b866080015182606001818152505086604001518260800181815250508660600151826000018181525050858260c0019067ffffffffffffffff16908167ffffffffffffffff16815250505b965096945050505050565b6000838311158290615d77576040517f08c379a00000000000000000000000000000000000000000000000000000000081526004018080602001828103825283818151815260200191508051906020019080838360005b83811015615d3c578082015181840152602081019050615d21565b50505050905090810190601f168015615d695780820380516001836020036101000a031916815260200191505b509250505060405180910390fd5b5060008385039050809150509392505050565b615d92616381565b6000615daf8860200151896000015161594990919063ffffffff16565b90506000861415615dd85780826000018181525050876080015182602001818152505050615f1f565b6000615e1f615e088967ffffffffffffffff1661088e67ffffffffffffffff168a615f299092919063ffffffff16565b670de0b6b3a764000061594990919063ffffffff16565b905085615e4257615e3d818a6080015161469790919063ffffffff16565b615e5a565b615e59818a608001516158aa90919063ffffffff16565b5b836020018181525050615e8083602001518a6080015184615f299092919063ffffffff16565b8360000181815250508183600001511115615ed2576000828460000151039050615eb385826158aa90919063ffffffff16565b8460600181815250508360600151810384604001818152505050615f1c565b8183600001511015615f1b57600083600001518303905085811115615f0e57828460000181815250508960800151846020018181525050615f19565b808460800181815250505b505b5b50505b9695505050505050565b600080841480615f395750600083145b15615f475760009050616031565b6000821415615fbe576040517f08c379a000000000000000000000000000000000000000000000000000000000815260040180806020018281038252601b8152602001807f536166654d6174683a206469766973696f6e206279207a65726f2e000000000081525060200191505060405180910390fd5b828402905082848281615fcd57fe5b0414616024576040517f08c379a00000000000000000000000000000000000000000000000000000000081526004018080602001828103825260228152602001806178c36022913960400191505060405180910390fd5b81818161602d57fe5b0490505b9392505050565b616040616352565b85905061605a84826040015161594990919063ffffffff16565b8160400181815250506160966160838667ffffffffffffffff168561615490919063ffffffff16565b826060015161594990919063ffffffff16565b816060018181525050806080015182146160f7576160c78282608001518360000151615f299092919063ffffffff16565b8160000181815250506160ed8282608001518360200151615f299092919063ffffffff16565b8160200181815250505b8181608001818152505095945050505050565b600061614c83836040518060400160405280601e81526020017f536166654d6174683a207375627472616374696f6e206f766572666c6f7700008152506161da565b905092915050565b60008083141561616757600090506161d4565b600082840290508284828161617857fe5b04146161cf576040517f08c379a000000000000000000000000000000000000000000000000000000000815260040180806020018281038252602181526020018061790d6021913960400191505060405180910390fd5b809150505b92915050565b60008367ffffffffffffffff168367ffffffffffffffff161115829061629b576040517f08c379a00000000000000000000000000000000000000000000000000000000081526004018080602001828103825283818151815260200191508051906020019080838360005b83811015616260578082015181840152602081019050616245565b50505050905090810190601f16801561628d5780820380516001836020036101000a031916815260200191505b509250505060405180910390fd5b5060008385039050809150509392505050565b6040518061014001604052806000815260200160008152602001600081526020016000815260200160008152602001600067ffffffffffffffff168152602001600067ffffffffffffffff168152602001600067ffffffffffffffff168152602001600063ffffffff1681526020016000600181111561632a57fe5b81525090565b6040518060a00160405280600590602082028036833780820191505090505090565b6040518060a0016040528060008152602001600081526020016000815260200160008152602001600081525090565b6040518060a0016040528060008152602001600081526020016000815260200160008152602001600081525090565b6000815190506163bf8161772b565b92915050565b6000815190506163d481617742565b92915050565b6000813590506163e981617759565b92915050565b6000815190506163fe81617770565b92915050565b60008151905061641381617787565b92915050565b6000813590506164288161779e565b92915050565b60008151905061643d816177b5565b92915050565b600081519050616452816177cc565b92915050565b600081519050616467816177e3565b92915050565b60008151905061647c816177fa565b92915050565b60008151905061649181617811565b92915050565b6000815190506164a681617828565b92915050565b6000813590506164bb8161783f565b92915050565b6000813590506164d081617856565b92915050565b6000815190506164e581617856565b92915050565b600061014082840312156164fe57600080fd5b6165096101406174ab565b905060006165198482850161668f565b600083015250602061652d8482850161668f565b60208301525060406165418482850161668f565b60408301525060606165558482850161668f565b60608301525060806165698482850161668f565b60808301525060a061657d848285016166ce565b60a08301525060c0616591848285016166ce565b60c08301525060e06165a5848285016166ce565b60e0830152506101006165ba848285016166a4565b610100830152506101206165d0848285016164d6565b6101208301525092915050565b600060a082840312156165ef57600080fd5b6165f960a06174ab565b905060006166098482850161668f565b600083015250602061661d8482850161668f565b60208301525060406166318482850161668f565b60408301525060606166458482850161668f565b60608301525060806166598482850161668f565b60808301525092915050565b60008151905061667481617866565b92915050565b6000813590506166898161787d565b92915050565b60008151905061669e8161787d565b92915050565b6000815190506166b381617894565b92915050565b6000813590506166c8816178ab565b92915050565b6000815190506166dd816178ab565b92915050565b6000602082840312156166f557600080fd5b6000616703848285016163b0565b91505092915050565b60006020828403121561671e57600080fd5b600061672c848285016163c5565b91505092915050565b60006020828403121561674757600080fd5b6000616755848285016163da565b91505092915050565b60006020828403121561677057600080fd5b600061677e848285016163ef565b91505092915050565b60006020828403121561679957600080fd5b60006167a784828501616404565b91505092915050565b6000602082840312156167c257600080fd5b60006167d084828501616419565b91505092915050565b6000602082840312156167eb57600080fd5b60006167f98482850161642e565b91505092915050565b60006020828403121561681457600080fd5b600061682284828501616443565b91505092915050565b60006020828403121561683d57600080fd5b600061684b84828501616458565b91505092915050565b60006020828403121561686657600080fd5b60006168748482850161646d565b91505092915050565b60006020828403121561688f57600080fd5b600061689d84828501616482565b91505092915050565b6000602082840312156168b857600080fd5b60006168c684828501616497565b91505092915050565b600080604083850312156168e257600080fd5b60006168f0858286016164ac565b92505060206169018582860161667a565b9150509250929050565b60006020828403121561691d57600080fd5b600061692b848285016164c1565b91505092915050565b60006020828403121561694657600080fd5b6000616954848285016164d6565b91505092915050565b6000806040838503121561697057600080fd5b600061697e858286016164c1565b925050602061698f8582860161667a565b9150509250929050565b600061014082840312156169ac57600080fd5b60006169ba848285016164eb565b91505092915050565b600060a082840312156169d557600080fd5b60006169e3848285016165dd565b91505092915050565b600080604083850312156169ff57600080fd5b6000616a0d85828601616665565b9250506020616a1e85828601616665565b9150509250929050565b600060208284031215616a3a57600080fd5b6000616a488482850161667a565b91505092915050565b600060208284031215616a6357600080fd5b6000616a718482850161668f565b91505092915050565b600060208284031215616a8c57600080fd5b6000616a9a848285016166b9565b91505092915050565b600060208284031215616ab557600080fd5b6000616ac3848285016166ce565b91505092915050565b600080600060608486031215616ae157600080fd5b6000616aef868287016166b9565b9350506020616b008682870161667a565b9250506040616b118682870161667a565b9150509250925092565b616b2481617673565b82525050565b616b33816174f8565b82525050565b616b428161750a565b82525050565b616b5181617685565b82525050565b616b60816176a9565b82525050565b616b6f816176cd565b82525050565b616b7e816176cd565b82525050565b6000616b916018836174dc565b91507f496e73756666696369656e7420636f6c6c61746572616c2e00000000000000006000830152602082019050919050565b6000616bd16020836174dc565b91507f4d61726b65742f61646a757374446562743a2044656274206365696c696e672e6000830152602082019050919050565b6000616c11600f836174ed565b91507f6d696e506f736974696f6e53697a6500000000000000000000000000000000006000830152600f82019050919050565b6000616c51600e836174dc565b91507f556e6261636b656420646562742e0000000000000000000000000000000000006000830152602082019050919050565b6000616c91601a836174dc565b91507f506172616d65746572732068617665206e6f206566666563742e0000000000006000830152602082019050919050565b6000616cd1600d836174ed565b91507f6d696e426f72726f7754696d65000000000000000000000000000000000000006000830152600d82019050919050565b6000616d11600f836174dc565b91507f4e6f7420417574686f72697a65642e00000000000000000000000000000000006000830152602082019050919050565b6000616d516012836174dc565b91507f4163636f756e7420746f6f20736d616c6c2e00000000000000000000000000006000830152602082019050919050565b6000616d91601c836174ed565b91507f636f6c6c61746572616c697a6174696f6e526571756972656d656e74000000006000830152601c82019050919050565b6000616dd16007836174ed565b91507f6d617844656274000000000000000000000000000000000000000000000000006000830152600782019050919050565b6000616e116018836174ed565b91507f696e746572657374506f7274696f6e546f4c656e6465727300000000000000006000830152601882019050919050565b6000616e516014836174dc565b91507f4e6f206465627420746f20706179206261636b2e0000000000000000000000006000830152602082019050919050565b6000616e916015836174dc565b91507f466c61736820626f72726f77206f6e20436f696e2e00000000000000000000006000830152602082019050919050565b61014082016000820151616edb6000850182616ff8565b506020820151616eee6020850182616ff8565b506040820151616f016040850182616ff8565b506060820151616f146060850182616ff8565b506080820151616f276080850182616ff8565b5060a0820151616f3a60a0850182617034565b5060c0820151616f4d60c0850182617034565b5060e0820151616f6060e0850182617034565b50610100820151616f75610100850182617016565b50610120820151616f8a610120850182616b66565b50505050565b60a082016000820151616fa66000850182616ff8565b506020820151616fb96020850182616ff8565b506040820151616fcc6040850182616ff8565b506060820151616fdf6060850182616ff8565b506080820151616ff26080850182616ff8565b50505050565b61700181617645565b82525050565b61701081617645565b82525050565b61701f8161764f565b82525050565b61702e81617703565b82525050565b61703d8161765f565b82525050565b61704c8161765f565b82525050565b600061705d82616c04565b9150819050919050565b600061707282616cc4565b9150819050919050565b600061708782616d84565b9150819050919050565b600061709c82616dc4565b9150819050919050565b60006170b182616e04565b9150819050919050565b60006020820190506170d06000830184616b2a565b92915050565b60006020820190506170eb6000830184616b1b565b92915050565b60006060820190506171066000830186616b1b565b6171136020830185616b2a565b6171206040830184617007565b949350505050565b600060408201905061713d6000830185616b1b565b61714a6020830184617007565b9392505050565b60006040820190506171666000830185616b1b565b6171736020830184617025565b9392505050565b600060408201905061718f6000830185616b2a565b61719c6020830184617007565b9392505050565b60006020820190506171b86000830184616b39565b92915050565b60006020820190506171d36000830184616b48565b92915050565b60006020820190506171ee6000830184616b57565b92915050565b60006060820190506172096000830186616b75565b6172166020830185616b1b565b6172236040830184617007565b949350505050565b60006040820190506172406000830185616b75565b61724d6020830184617007565b9392505050565b60006060820190506172696000830186616b75565b6172766020830185617007565b6172836040830184616b39565b949350505050565b600060208201905081810360008301526172a481616b84565b9050919050565b600060208201905081810360008301526172c481616bc4565b9050919050565b600060208201905081810360008301526172e481616c44565b9050919050565b6000602082019050818103600083015261730481616c84565b9050919050565b6000602082019050818103600083015261732481616d04565b9050919050565b6000602082019050818103600083015261734481616d44565b9050919050565b6000602082019050818103600083015261736481616e44565b9050919050565b6000602082019050818103600083015261738481616e84565b9050919050565b6000610140820190506173a16000830184616ec4565b92915050565b600060a0820190506173bc6000830184616f90565b92915050565b60006020820190506173d76000830184617007565b92915050565b60006040820190506173f26000830185617007565b6173ff6020830184617007565b9392505050565b600060208201905061741b6000830184617043565b92915050565b60006040820190506174366000830185617043565b6174436020830184616b75565b9392505050565b6000610160820190506174606000830185617043565b61746d6020830184616ec4565b9392505050565b60006060820190506174896000830186617043565b6174966020830185617007565b6174a36040830184617007565b949350505050565b6000604051905081810181811067ffffffffffffffff821117156174d2576174d1617715565b5b8060405250919050565b600082825260208201905092915050565b600081905092915050565b600061750382617625565b9050919050565b60008115159050919050565b60007fffffffff0000000000000000000000000000000000000000000000000000000082169050919050565b600061754d826174f8565b9050919050565b600061755f826174f8565b9050919050565b6000617571826174f8565b9050919050565b6000617583826174f8565b9050919050565b6000617595826174f8565b9050919050565b60006175a7826174f8565b9050919050565b60006175b9826174f8565b9050919050565b60006175cb826174f8565b9050919050565b60006175dd826174f8565b9050919050565b60006175ef826174f8565b9050919050565b600081905061760482617717565b919050565b60006fffffffffffffffffffffffffffffffff82169050919050565b600073ffffffffffffffffffffffffffffffffffffffff82169050919050565b6000819050919050565b600063ffffffff82169050919050565b600067ffffffffffffffff82169050919050565b600061767e826176df565b9050919050565b600061769082617697565b9050919050565b60006176a282617625565b9050919050565b60006176b4826176bb565b9050919050565b60006176c682617625565b9050919050565b60006176d8826175f6565b9050919050565b60006176ea826176f1565b9050919050565b60006176fc82617625565b9050919050565b600061770e8261765f565b9050919050565bfe5b6002811061772857617727617715565b5b50565b617734816174f8565b811461773f57600080fd5b50565b61774b8161750a565b811461775657600080fd5b50565b61776281617516565b811461776d57600080fd5b50565b61777981617542565b811461778457600080fd5b50565b61779081617554565b811461779b57600080fd5b50565b6177a781617566565b81146177b257600080fd5b50565b6177be81617578565b81146177c957600080fd5b50565b6177d58161758a565b81146177e057600080fd5b50565b6177ec8161759c565b81146177f757600080fd5b50565b617803816175ae565b811461780e57600080fd5b50565b61781a816175c0565b811461782557600080fd5b50565b617831816175d2565b811461783c57600080fd5b50565b617848816175e4565b811461785357600080fd5b50565b6002811061786357600080fd5b50565b61786f81617609565b811461787a57600080fd5b50565b61788681617645565b811461789157600080fd5b50565b61789d8161764f565b81146178a857600080fd5b50565b6178b48161765f565b81146178bf57600080fd5b5056fe536166654d6174683a206d756c7469706c69636174696f6e206f766572666c6f772e476f7665726e65643a204e6f7420617661696c61626c6520647572696e672073687574646f776e2e536166654d6174683a206d756c7469706c69636174696f6e206f766572666c6f7753616665436173743a2076616c756520646f65736e27742066697420696e2036342062697473a26469706673582212201ef173b55c8ee151d270d33ded387b77413d67cfbc39b17ddc1728c45b1b4f5f64736f6c6343000704003353616665436173743a2076616c756520646f65736e27742066697420696e2036342062697473",
  "linkReferences": {},
  "deployedLinkReferences": {}
}