{
  "_format": "hh-sol-artifact-1",
  "contractName": "Market",
  "sourceName": "contracts/core/logic/Market.sol",
  "abi": [
    {
      "inputs": [],
      "stateMutability": "nonpayable",
      "type": "constructor"
    },
    {
      "anonymous": false,
      "inputs": [
        {
          "indexed": true,
          "internalType": "address",
          "name": "governor",
          "type": "address"
        }
      ],
      "name": "Initialized",
      "type": "event"
    },
    {
      "anonymous": false,
      "inputs": [
        {
          "indexed": true,
          "internalType": "uint64",
          "name": "period",
          "type": "uint64"
        },
        {
          "indexed": false,
          "internalType": "uint64",
          "name": "periods",
          "type": "uint64"
        },
        {
          "indexed": false,
          "internalType": "uint256",
          "name": "newDebt",
          "type": "uint256"
        },
        {
          "indexed": false,
          "internalType": "uint256",
          "name": "rewardCount",
          "type": "uint256"
        },
        {
          "indexed": false,
          "internalType": "uint256",
          "name": "cumulativeDebt",
          "type": "uint256"
        },
        {
          "indexed": false,
          "internalType": "uint256",
          "name": "debtExchangeRate",
          "type": "uint256"
        }
      ],
      "name": "InterestAccrued",
      "type": "event"
    },
    {
      "anonymous": false,
      "inputs": [
        {
          "indexed": true,
          "internalType": "address",
          "name": "account",
          "type": "address"
        },
        {
          "indexed": false,
          "internalType": "uint256",
          "name": "hueCount",
          "type": "uint256"
        },
        {
          "indexed": false,
          "internalType": "uint256",
          "name": "lendTokenCount",
          "type": "uint256"
        }
      ],
      "name": "Lend",
      "type": "event"
    },
    {
      "anonymous": false,
      "inputs": [
        {
          "indexed": true,
          "internalType": "string",
          "name": "paramName",
          "type": "string"
        },
        {
          "indexed": false,
          "internalType": "uint256",
          "name": "value",
          "type": "uint256"
        }
      ],
      "name": "ParameterUpdated",
      "type": "event"
    },
    {
      "anonymous": false,
      "inputs": [
        {
          "indexed": true,
          "internalType": "string",
          "name": "paramName",
          "type": "string"
        },
        {
          "indexed": false,
          "internalType": "uint64",
          "name": "value",
          "type": "uint64"
        }
      ],
      "name": "ParameterUpdated64",
      "type": "event"
    },
    {
      "anonymous": false,
      "inputs": [
        {
          "indexed": true,
          "internalType": "string",
          "name": "paramName",
          "type": "string"
        },
        {
          "indexed": false,
          "internalType": "address",
          "name": "value",
          "type": "address"
        }
      ],
      "name": "ParameterUpdatedAddress",
      "type": "event"
    },
    {
      "anonymous": false,
      "inputs": [
        {
          "indexed": true,
          "internalType": "uint64",
          "name": "positionID",
          "type": "uint64"
        },
        {
          "indexed": false,
          "internalType": "int256",
          "name": "debtChange",
          "type": "int256"
        },
        {
          "indexed": false,
          "internalType": "int256",
          "name": "collateralChange",
          "type": "int256"
        }
      ],
      "name": "PositionAdjusted",
      "type": "event"
    },
    {
      "anonymous": false,
      "inputs": [
        {
          "indexed": true,
          "internalType": "address",
          "name": "creator",
          "type": "address"
        },
        {
          "indexed": true,
          "internalType": "uint64",
          "name": "positionID",
          "type": "uint64"
        }
      ],
      "name": "PositionCreated",
      "type": "event"
    },
    {
      "anonymous": false,
      "inputs": [
        {
          "indexed": true,
          "internalType": "uint256",
          "name": "positionID",
          "type": "uint256"
        },
        {
          "indexed": true,
          "internalType": "uint64",
          "name": "period",
          "type": "uint64"
        },
        {
          "indexed": false,
          "internalType": "uint256",
          "name": "debtAfter",
          "type": "uint256"
        },
        {
          "indexed": false,
          "internalType": "uint256",
          "name": "tcpRewards",
          "type": "uint256"
        }
      ],
      "name": "PositionUpdated",
      "type": "event"
    },
    {
      "anonymous": false,
      "inputs": [
        {
          "indexed": true,
          "internalType": "address",
          "name": "account",
          "type": "address"
        },
        {
          "indexed": true,
          "internalType": "bool",
          "name": "isKickback",
          "type": "bool"
        },
        {
          "indexed": false,
          "internalType": "uint256",
          "name": "tcpRewards",
          "type": "uint256"
        }
      ],
      "name": "RewardsDistributed",
      "type": "event"
    },
    {
      "anonymous": false,
      "inputs": [],
      "name": "Stopped",
      "type": "event"
    },
    {
      "anonymous": false,
      "inputs": [
        {
          "indexed": true,
          "internalType": "address",
          "name": "account",
          "type": "address"
        },
        {
          "indexed": false,
          "internalType": "uint256",
          "name": "hueCount",
          "type": "uint256"
        },
        {
          "indexed": false,
          "internalType": "uint256",
          "name": "lendTokenCount",
          "type": "uint256"
        }
      ],
      "name": "Unlend",
      "type": "event"
    },
    {
      "inputs": [],
      "name": "accrueInterest",
      "outputs": [],
      "stateMutability": "nonpayable",
      "type": "function"
    },
    {
      "inputs": [
        {
          "internalType": "uint64",
          "name": "positionID",
          "type": "uint64"
        },
        {
          "internalType": "int256",
          "name": "debtChange",
          "type": "int256"
        },
        {
          "internalType": "uint256",
          "name": "collateralDecrease",
          "type": "uint256"
        },
        {
          "internalType": "uint32",
          "name": "ui",
          "type": "uint32"
        }
      ],
      "name": "adjustPosition",
      "outputs": [],
      "stateMutability": "payable",
      "type": "function"
    },
    {
      "inputs": [
        {
          "internalType": "uint64",
          "name": "positionID",
          "type": "uint64"
        },
        {
          "internalType": "uint32",
          "name": "ui",
          "type": "uint32"
        }
      ],
      "name": "claimRewards",
      "outputs": [],
      "stateMutability": "nonpayable",
      "type": "function"
    },
    {
      "inputs": [],
      "name": "collateralizationRequirement",
      "outputs": [
        {
          "internalType": "uint256",
          "name": "",
          "type": "uint256"
        }
      ],
      "stateMutability": "view",
      "type": "function"
    },
    {
      "inputs": [
        {
          "internalType": "uint256",
          "name": "initialDebt",
          "type": "uint256"
        },
        {
          "internalType": "uint32",
          "name": "ui",
          "type": "uint32"
        }
      ],
      "name": "createPosition",
      "outputs": [
        {
          "internalType": "uint64",
          "name": "positionID",
          "type": "uint64"
        }
      ],
      "stateMutability": "payable",
      "type": "function"
    },
    {
      "inputs": [],
      "name": "currentPeriod",
      "outputs": [
        {
          "internalType": "uint64",
          "name": "period",
          "type": "uint64"
        }
      ],
      "stateMutability": "view",
      "type": "function"
    },
    {
      "inputs": [],
      "name": "deployer",
      "outputs": [
        {
          "internalType": "address",
          "name": "",
          "type": "address"
        }
      ],
      "stateMutability": "view",
      "type": "function"
    },
    {
      "inputs": [],
      "name": "finalizeInitialization",
      "outputs": [],
      "stateMutability": "nonpayable",
      "type": "function"
    },
    {
      "inputs": [],
      "name": "firstPeriod",
      "outputs": [
        {
          "internalType": "uint64",
          "name": "",
          "type": "uint64"
        }
      ],
      "stateMutability": "view",
      "type": "function"
    },
    {
      "inputs": [],
      "name": "governor",
      "outputs": [
        {
          "internalType": "contract IGovernor",
          "name": "",
          "type": "address"
        }
      ],
      "stateMutability": "view",
      "type": "function"
    },
    {
      "inputs": [],
      "name": "huePositionNFT",
      "outputs": [
        {
          "internalType": "contract IPositionNFT",
          "name": "",
          "type": "address"
        }
      ],
      "stateMutability": "view",
      "type": "function"
    },
    {
      "inputs": [
        {
          "internalType": "contract IGovernor",
          "name": "_governor",
          "type": "address"
        }
      ],
      "name": "init",
      "outputs": [],
      "stateMutability": "nonpayable",
      "type": "function"
    },
    {
      "inputs": [],
      "name": "interestPortionToLenders",
      "outputs": [
        {
          "internalType": "uint256",
          "name": "",
          "type": "uint256"
        }
      ],
      "stateMutability": "view",
      "type": "function"
    },
    {
      "inputs": [],
      "name": "lastPeriodGlobalInterestAccrued",
      "outputs": [
        {
          "internalType": "uint64",
          "name": "",
          "type": "uint64"
        }
      ],
      "stateMutability": "view",
      "type": "function"
    },
    {
      "inputs": [
        {
          "internalType": "uint256",
          "name": "hueCount",
          "type": "uint256"
        }
      ],
      "name": "lend",
      "outputs": [],
      "stateMutability": "nonpayable",
      "type": "function"
    },
    {
      "inputs": [],
      "name": "lendHue",
      "outputs": [
        {
          "internalType": "contract ILendHue",
          "name": "",
          "type": "address"
        }
      ],
      "stateMutability": "view",
      "type": "function"
    },
    {
      "inputs": [],
      "name": "minPositionSize",
      "outputs": [
        {
          "internalType": "uint256",
          "name": "",
          "type": "uint256"
        }
      ],
      "stateMutability": "view",
      "type": "function"
    },
    {
      "inputs": [],
      "name": "periodLength",
      "outputs": [
        {
          "internalType": "uint64",
          "name": "",
          "type": "uint64"
        }
      ],
      "stateMutability": "view",
      "type": "function"
    },
    {
      "inputs": [
        {
          "internalType": "uint64",
          "name": "positionID",
          "type": "uint64"
        }
      ],
      "name": "removeKickback",
      "outputs": [],
      "stateMutability": "nonpayable",
      "type": "function"
    },
    {
      "inputs": [
        {
          "internalType": "uint256",
          "name": "requirement",
          "type": "uint256"
        }
      ],
      "name": "setCollateralizationRequirement",
      "outputs": [],
      "stateMutability": "nonpayable",
      "type": "function"
    },
    {
      "inputs": [
        {
          "internalType": "uint256",
          "name": "percentage",
          "type": "uint256"
        }
      ],
      "name": "setInterestPortionToLenders",
      "outputs": [],
      "stateMutability": "nonpayable",
      "type": "function"
    },
    {
      "inputs": [
        {
          "internalType": "uint256",
          "name": "size",
          "type": "uint256"
        }
      ],
      "name": "setMinPositionSize",
      "outputs": [],
      "stateMutability": "nonpayable",
      "type": "function"
    },
    {
      "inputs": [
        {
          "internalType": "uint32",
          "name": "duration",
          "type": "uint32"
        }
      ],
      "name": "setTwapDuration",
      "outputs": [],
      "stateMutability": "nonpayable",
      "type": "function"
    },
    {
      "inputs": [],
      "name": "stop",
      "outputs": [],
      "stateMutability": "nonpayable",
      "type": "function"
    },
    {
      "inputs": [],
      "name": "stopped",
      "outputs": [
        {
          "internalType": "bool",
          "name": "",
          "type": "bool"
        }
      ],
      "stateMutability": "view",
      "type": "function"
    },
    {
      "inputs": [
        {
          "internalType": "uint64",
          "name": "positionID",
          "type": "uint64"
        }
      ],
      "name": "systemGetUpdatedPosition",
      "outputs": [
        {
          "components": [
            {
              "internalType": "uint256",
              "name": "startCumulativeDebt",
              "type": "uint256"
            },
            {
              "internalType": "uint256",
              "name": "collateral",
              "type": "uint256"
            },
            {
              "internalType": "uint256",
              "name": "debt",
              "type": "uint256"
            },
            {
              "internalType": "uint256",
              "name": "startDebtExchangeRate",
              "type": "uint256"
            },
            {
              "internalType": "uint256",
              "name": "startTCPRewards",
              "type": "uint256"
            },
            {
              "internalType": "uint64",
              "name": "lastTimeUpdated",
              "type": "uint64"
            },
            {
              "internalType": "uint64",
              "name": "lastBorrowTime",
              "type": "uint64"
            },
            {
              "internalType": "int24",
              "name": "tick",
              "type": "int24"
            },
            {
              "internalType": "bool",
              "name": "tickSet",
              "type": "bool"
            },
            {
              "internalType": "uint64",
              "name": "tickIndex",
              "type": "uint64"
            },
            {
              "internalType": "uint32",
              "name": "ui",
              "type": "uint32"
            },
            {
              "internalType": "address",
              "name": "kickbackDestination",
              "type": "address"
            },
            {
              "internalType": "uint64",
              "name": "kickbackPortion",
              "type": "uint64"
            }
          ],
          "internalType": "struct IAccounting.DebtPosition",
          "name": "",
          "type": "tuple"
        }
      ],
      "stateMutability": "nonpayable",
      "type": "function"
    },
    {
      "inputs": [],
      "name": "twapDuration",
      "outputs": [
        {
          "internalType": "uint32",
          "name": "",
          "type": "uint32"
        }
      ],
      "stateMutability": "view",
      "type": "function"
    },
    {
      "inputs": [
        {
          "internalType": "uint256",
          "name": "lendTokenCount",
          "type": "uint256"
        }
      ],
      "name": "unlend",
      "outputs": [],
      "stateMutability": "nonpayable",
      "type": "function"
    },
    {
      "inputs": [
        {
          "internalType": "bytes4",
          "name": "",
          "type": "bytes4"
        }
      ],
      "name": "validUpdate",
      "outputs": [
        {
          "internalType": "bool",
          "name": "",
          "type": "bool"
        }
      ],
      "stateMutability": "view",
      "type": "function"
    },
    {
      "inputs": [
        {
          "internalType": "uint256",
          "name": "lendTokenCount",
          "type": "uint256"
        }
      ],
      "name": "valueOfLendTokensInHue",
      "outputs": [
        {
          "internalType": "uint256",
          "name": "",
          "type": "uint256"
        }
      ],
      "stateMutability": "view",
      "type": "function"
    }
  ],
  "bytecode": "0x60c0604052600160066000509090556714d1120d7b160000600760005090905568878678326eac90000060086000509090556702c68af0bb1400006009600050909055610708600b60146101000a81548163ffffffff021916908363ffffffff160217905550348015620000735760006000fd5b505b610e105b5b33600160006101000a81548173ffffffffffffffffffffffffffffffffffffffff021916908373ffffffffffffffffffffffffffffffffffffffff1602179055505b60018167ffffffffffffffff16620000d96200013b60201b60201c565b67ffffffffffffffff16811515620000ed57fe5b040367ffffffffffffffff1660a08167ffffffffffffffff1660c01b815260080150508067ffffffffffffffff1660808167ffffffffffffffff1660c01b815260080150505b505b620001f1565b600062000155426200015d60201b62001dec17909060201c565b905080505b90565b60006801000000000000000082101515620001e3576040517f08c379a00000000000000000000000000000000000000000000000000000000081526004018080602001828103825260118152602001807f6d6f7265207468616e203634206269747300000000000000000000000000000081526020015060200191505060405180910390fd5b819050620001ec565b919050565b60805160c01c60a05160c01c615ec76200022f60003980611a6c5280611e8252806144b0525080611a905280611ea352806144d15250615ec76000f3fe6080604052600436106101d15760003560e01c8063a6aa57ce116100f7578063c4e3a63b11610095578063e11c876211610064578063e11c876214610609578063eb6843ce14610647578063ef5e1cac14610685578063f6979f29146106af576101d1565b8063c4e3a63b1461056d578063d2ca211514610599578063d5f39488146105c5578063d861b0e8146105f1576101d1565b8063b2326b57116100d1578063b2326b57146104c1578063b6ae213a146104eb578063bb8313c214610517578063c433c80a14610543576101d1565b8063a6aa57ce14610453578063a6afed951461047d578063a89f51ae14610495576101d1565b806326d895451161016f5780635a6127a91161013e5780635a6127a9146103b757806375f12b21146103e15780637b809bdd1461040d578063875bbc5114610429576101d1565b806326d89545146103035780632cae02691461032f5780632e6c6f841461035b5780635658c0121461038b576101d1565b80630c340a24116101ab5780630c340a2414610245578063113cf1ab14610271578063197b1bf5146102af57806319ab453c146102d9576101d1565b806306040618146101d757806306972dcd1461020357806307da68f51461022d576101d1565b60006000fd5b3480156101e45760006000fd5b506101ed6106db565b6040516101fa9190615d87565b60405180910390f35b3480156102105760006000fd5b5061022b6004803603810190610226919061548d565b6106f3565b005b34801561023a5760006000fd5b5061024361075d565b005b3480156102525760006000fd5b5061025b61077d565b604051610268919061590b565b60405180910390f35b34801561027e5760006000fd5b506102996004803603810190610294919061519a565b6107a3565b6040516102a691906158f7565b60405180910390f35b3480156102bc5760006000fd5b506102d760048036038101906102d2919061548d565b6107c8565b005b3480156102e65760006000fd5b5061030160048036038101906102fc919061520e565b610996565b005b3480156103105760006000fd5b50610319610da8565b6040516103269190615d57565b60405180910390f35b34801561033c5760006000fd5b50610345610dbe565b6040516103529190615933565b60405180910390f35b610375600480360381019061037091906154c5565b610de4565b6040516103829190615d87565b60405180910390f35b3480156103985760006000fd5b506103a1610fc0565b6040516103ae9190615d2c565b60405180910390f35b3480156103c45760006000fd5b506103df60048036038101906103da919061548d565b610fc9565b005b3480156103ee5760006000fd5b506103f7611050565b60405161040491906158f7565b60405180910390f35b6104276004803603810190610422919061556b565b611063565b005b3480156104365760006000fd5b50610451600480360381019061044c91906155bb565b61124d565b005b3480156104605760006000fd5b5061047b6004803603810190610476919061548d565b6114b4565b005b34801561048a5760006000fd5b506104936116f5565b005b3480156104a25760006000fd5b506104ab611723565b6040516104b8919061595b565b60405180910390f35b3480156104ce5760006000fd5b506104e960048036038101906104e4919061551d565b611749565b005b3480156104f85760006000fd5b506105016119b0565b60405161050e9190615d87565b60405180910390f35b3480156105245760006000fd5b5061052d6119ca565b60405161053a9190615d2c565b60405180910390f35b3480156105505760006000fd5b5061056b600480360381019061056691906154f6565b6119d3565b005b34801561057a5760006000fd5b50610583611a6a565b6040516105909190615d87565b60405180910390f35b3480156105a65760006000fd5b506105af611a8e565b6040516105bc9190615d87565b60405180910390f35b3480156105d25760006000fd5b506105db611ab2565b6040516105e891906157e1565b60405180910390f35b3480156105fe5760006000fd5b50610607611ad8565b005b3480156106165760006000fd5b50610631600480360381019061062c919061548d565b611bae565b60405161063e9190615d2c565b60405180910390f35b3480156106545760006000fd5b5061066f600480360381019061066a919061551d565b611bdc565b60405161067c9190615ce1565b60405180910390f35b3480156106925760006000fd5b506106ad60048036038101906106a8919061548d565b611d61565b005b3480156106bc5760006000fd5b506106c5611de3565b6040516106d29190615d2c565b60405180910390f35b60006106eb611e7e63ffffffff16565b905080505b90565b610701611ef763ffffffff16565b8060086000508190909055506040516107199061571d565b60405180910390207f3a64504f0bc0c335e2aecb78638a257e0351a3fe0370861fd54ee4190b920933826040516107509190615d2c565b60405180910390a25b5b50565b61076b611ef763ffffffff16565b610779611f8c63ffffffff16565b5b5b565b600060009054906101000a900473ffffffffffffffffffffffffffffffffffffffff1681565b600560005060205280600052604060002060009150909054906101000a900460ff1681565b6107d6611fd663ffffffff16565b6107e46120b563ffffffff16565b6107f66000821161210a63ffffffff16565b6000339050600061080c83611bae63ffffffff16565b9050600b60009054906101000a900473ffffffffffffffffffffffffffffffffffffffff1673ffffffffffffffffffffffffffffffffffffffff166379cc679083856040518363ffffffff1660e01b815260040161086b9291906158c8565b600060405180830381600087803b1580156108865760006000fd5b505af115801561089b573d600060003e3d6000fd5b50505050600260009054906101000a900473ffffffffffffffffffffffffffffffffffffffff1673ffffffffffffffffffffffffffffffffffffffff1663b241bbac83836040518363ffffffff1660e01b81526004016108fc9291906158c8565b600060405180830381600087803b1580156109175760006000fd5b505af115801561092c573d600060003e3d6000fd5b505050508173ffffffffffffffffffffffffffffffffffffffff167fefc56a1a7590fc4eb13cd40b6a2ceee41f3869c6ea818d20d9a18f2d6315ca188285604051610978929190615d3e565b60405180910390a250505b5b61099261215063ffffffff16565b5b50565b600160009054906101000a900473ffffffffffffffffffffffffffffffffffffffff1673ffffffffffffffffffffffffffffffffffffffff163373ffffffffffffffffffffffffffffffffffffffff161415156109f35760006000fd5b600160159054906101000a900460ff16151515610a105760006000fd5b80600060006101000a81548173ffffffffffffffffffffffffffffffffffffffff021916908373ffffffffffffffffffffffffffffffffffffffff160217905550600060009054906101000a900473ffffffffffffffffffffffffffffffffffffffff1673ffffffffffffffffffffffffffffffffffffffff16639624e83e6040518163ffffffff1660e01b815260040160206040518083038186803b158015610aba5760006000fd5b505afa158015610acf573d600060003e3d6000fd5b505050506040513d601f19601f82011682018060405250810190610af391906151e7565b600260006101000a81548173ffffffffffffffffffffffffffffffffffffffff021916908373ffffffffffffffffffffffffffffffffffffffff160217905550600060009054906101000a900473ffffffffffffffffffffffffffffffffffffffff1673ffffffffffffffffffffffffffffffffffffffff1663323741746040518163ffffffff1660e01b815260040160206040518083038186803b158015610b9c5760006000fd5b505afa158015610bb1573d600060003e3d6000fd5b505050506040513d601f19601f82011682018060405250810190610bd59190615235565b600360006101000a81548173ffffffffffffffffffffffffffffffffffffffff021916908373ffffffffffffffffffffffffffffffffffffffff160217905550600060009054906101000a900473ffffffffffffffffffffffffffffffffffffffff1673ffffffffffffffffffffffffffffffffffffffff1663d478b0876040518163ffffffff1660e01b815260040160206040518083038186803b158015610c7e5760006000fd5b505afa158015610c93573d600060003e3d6000fd5b505050506040513d601f19601f82011682018060405250810190610cb791906152d1565b600460006101000a81548173ffffffffffffffffffffffffffffffffffffffff021916908373ffffffffffffffffffffffffffffffffffffffff160217905550610d056121e463ffffffff16565b600160149054906101000a900460ff161515610d4557600160006101000a81549073ffffffffffffffffffffffffffffffffffffffff0219169055610d61565b6001600160156101000a81548160ff0219169083151502179055505b8073ffffffffffffffffffffffffffffffffffffffff167f908408e307fc569b417f6cbec5d5a06f44a0a505ac0479b47d421a4b2fd6a1e660405160405180910390a25b50565b600b60149054906101000a900463ffffffff1681565b600b60009054906101000a900473ffffffffffffffffffffffffffffffffffffffff1681565b6000610df4611fd663ffffffff16565b610e0261273863ffffffff16565b600034111515610e47576040517f08c379a0000000000000000000000000000000000000000000000000000000008152600401610e3e90615b41565b60405180910390fd5b600a60009054906101000a900473ffffffffffffffffffffffffffffffffffffffff1673ffffffffffffffffffffffffffffffffffffffff1663755edd17336040518263ffffffff1660e01b8152600401610ea29190615809565b602060405180830381600087803b158015610ebd5760006000fd5b505af1158015610ed2573d600060003e3d6000fd5b505050506040513d601f19601f82011682018060405250810190610ef69190615544565b90508050610f02614fec565b8281610140019063ffffffff16908163ffffffff1681526020015050610f5a610f3b8367ffffffffffffffff168361282d63ffffffff16565b83610f4d87612d03909063ffffffff16565b6000612dac63ffffffff16565b8167ffffffffffffffff163373ffffffffffffffffffffffffffffffffffffffff167f3bac2cc5a46c2a400f0a6b532080f052814635a76bccdecf39397718b2d554dd60405160405180910390a3505b5b610fb961215063ffffffff16565b5b92915050565b60076000505481565b610fd7611ef763ffffffff16565b806009600050819090905550670de0b6b3a7640000600960005054111515156110005760006000fd5b60405161100c906157b0565b60405180910390207f3a64504f0bc0c335e2aecb78638a257e0351a3fe0370861fd54ee4190b920933826040516110439190615d2c565b60405180910390a25b5b50565b600060149054906101000a900460ff1681565b611071611fd663ffffffff16565b61107f61273863ffffffff16565b61113c600a60009054906101000a900473ffffffffffffffffffffffffffffffffffffffff1673ffffffffffffffffffffffffffffffffffffffff1663430c208133876040518363ffffffff1660e01b81526004016110df92919061588f565b60206040518083038186803b1580156110f85760006000fd5b505afa15801561110d573d600060003e3d6000fd5b505050506040513d601f19601f820116820180604052508101906111319190615177565b6134f563ffffffff16565b60006112058567ffffffffffffffff16600260009054906101000a900473ffffffffffffffffffffffffffffffffffffffff1673ffffffffffffffffffffffffffffffffffffffff16630f85fc5a886040518263ffffffff1660e01b81526004016111a79190615d87565b6101a06040518083038186803b1580156111c15760006000fd5b505afa1580156111d6573d600060003e3d6000fd5b505050506040513d601f19601f820116820180604052508101906111fa9190615346565b61282d63ffffffff16565b90508181610140019063ffffffff16908163ffffffff168152602001505061123581868686612dac63ffffffff16565b505b5b61124661215063ffffffff16565b5b50505050565b61125b611fd663ffffffff16565b6112696120b563ffffffff16565b611326600a60009054906101000a900473ffffffffffffffffffffffffffffffffffffffff1673ffffffffffffffffffffffffffffffffffffffff1663430c208133856040518363ffffffff1660e01b81526004016112c992919061588f565b60206040518083038186803b1580156112e25760006000fd5b505afa1580156112f7573d600060003e3d6000fd5b505050506040513d601f19601f8201168201806040525081019061131b9190615177565b6134f563ffffffff16565b60006113ef8367ffffffffffffffff16600260009054906101000a900473ffffffffffffffffffffffffffffffffffffffff1673ffffffffffffffffffffffffffffffffffffffff16630f85fc5a866040518263ffffffff1660e01b81526004016113919190615d87565b6101a06040518083038186803b1580156113ab5760006000fd5b505afa1580156113c0573d600060003e3d6000fd5b505050506040513d601f19601f820116820180604052508101906113e49190615346565b61282d63ffffffff16565b90508181610140019063ffffffff16908163ffffffff1681526020015050600260009054906101000a900473ffffffffffffffffffffffffffffffffffffffff1673ffffffffffffffffffffffffffffffffffffffff16635a6beaf484836040518363ffffffff1660e01b815260040161146a929190615da3565b600060405180830381600087803b1580156114855760006000fd5b505af115801561149a573d600060003e3d6000fd5b50505050505b5b6114af61215063ffffffff16565b5b5050565b6114c2611fd663ffffffff16565b6114d061273863ffffffff16565b6114e26000821161210a63ffffffff16565b60003390506114f561353b63ffffffff16565b6000611517611508613f2463ffffffff16565b846140b590919063ffffffff16565b9050600260009054906101000a900473ffffffffffffffffffffffffffffffffffffffff1673ffffffffffffffffffffffffffffffffffffffff16632c73f09e846040518263ffffffff1660e01b81526004016115749190615d2c565b600060405180830381600087803b15801561158f5760006000fd5b505af11580156115a4573d600060003e3d6000fd5b505050506115fe600360009054906101000a900473ffffffffffffffffffffffffffffffffffffffff1683600260009054906101000a900473ffffffffffffffffffffffffffffffffffffffff16866140db63ffffffff16565b600b60009054906101000a900473ffffffffffffffffffffffffffffffffffffffff1673ffffffffffffffffffffffffffffffffffffffff1663449a52f883836040518363ffffffff1660e01b815260040161165b9291906158c8565b600060405180830381600087803b1580156116765760006000fd5b505af115801561168b573d600060003e3d6000fd5b505050508173ffffffffffffffffffffffffffffffffffffffff167f8fff79b574da9a93d7a5408c2fc00c4a9b2b462321c1659b2fbbb9ff3dd221ff84836040516116d7929190615d3e565b60405180910390a250505b5b6116f161215063ffffffff16565b5b50565b61170361430663ffffffff16565b61171161353b63ffffffff16565b5b61172061436163ffffffff16565b5b565b600a60009054906101000a900473ffffffffffffffffffffffffffffffffffffffff1681565b611757611fd663ffffffff16565b61176561273863ffffffff16565b611822600a60009054906101000a900473ffffffffffffffffffffffffffffffffffffffff1673ffffffffffffffffffffffffffffffffffffffff1663430c208133846040518363ffffffff1660e01b81526004016117c592919061588f565b60206040518083038186803b1580156117de5760006000fd5b505afa1580156117f3573d600060003e3d6000fd5b505050506040513d601f19601f820116820180604052508101906118179190615177565b6134f563ffffffff16565b60006118eb8267ffffffffffffffff16600260009054906101000a900473ffffffffffffffffffffffffffffffffffffffff1673ffffffffffffffffffffffffffffffffffffffff16630f85fc5a856040518263ffffffff1660e01b815260040161188d9190615d87565b6101a06040518083038186803b1580156118a75760006000fd5b505afa1580156118bc573d600060003e3d6000fd5b505050506040513d601f19601f820116820180604052508101906118e09190615346565b61282d63ffffffff16565b9050600081610140019063ffffffff16908163ffffffff1681526020015050600260009054906101000a900473ffffffffffffffffffffffffffffffffffffffff1673ffffffffffffffffffffffffffffffffffffffff16635a6beaf483836040518363ffffffff1660e01b8152600401611967929190615da3565b600060405180830381600087803b1580156119825760006000fd5b505af1158015611997573d600060003e3d6000fd5b50505050505b5b6119ac61215063ffffffff16565b5b50565b600b60189054906101000a900467ffffffffffffffff1681565b60086000505481565b6119e1611ef763ffffffff16565b61012c8163ffffffff16101515156119f95760006000fd5b80600b60146101000a81548163ffffffff021916908363ffffffff160217905550604051611a269061574e565b60405180910390207f6293347933ad2997134e224ac8cd2e39908a4a22aeed9af52127b4bbf765297882604051611a5d9190615d6f565b60405180910390a25b5b50565b7f000000000000000000000000000000000000000000000000000000000000000081565b7f000000000000000000000000000000000000000000000000000000000000000081565b600160009054906101000a900473ffffffffffffffffffffffffffffffffffffffff1681565b600160149054906101000a900460ff168015611b005750600160159054906101000a900460ff165b8015611b595750600160009054906101000a900473ffffffffffffffffffffffffffffffffffffffff1673ffffffffffffffffffffffffffffffffffffffff163373ffffffffffffffffffffffffffffffffffffffff16145b1515611b655760006000fd5b600160006101000a81549073ffffffffffffffffffffffffffffffffffffffff0219169055600160156101000a81549060ff0219169055611baa61353b63ffffffff16565b5b5b565b6000611bd0611bc1613f2463ffffffff16565b8361437190919063ffffffff16565b9050611bd7565b919050565b611be4614fec565b611bf261430663ffffffff16565b600060009054906101000a900473ffffffffffffffffffffffffffffffffffffffff1673ffffffffffffffffffffffffffffffffffffffff16639622cd8f336040518263ffffffff1660e01b8152600401611c4d9190615809565b60006040518083038186803b158015611c665760006000fd5b505afa158015611c7b573d600060003e3d6000fd5b50505050611d468267ffffffffffffffff16600260009054906101000a900473ffffffffffffffffffffffffffffffffffffffff1673ffffffffffffffffffffffffffffffffffffffff16630f85fc5a856040518263ffffffff1660e01b8152600401611ce89190615d87565b6101a06040518083038186803b158015611d025760006000fd5b505afa158015611d17573d600060003e3d6000fd5b505050506040513d601f19601f82011682018060405250810190611d3b9190615346565b61282d63ffffffff16565b9050611d4d565b611d5b61436163ffffffff16565b5b919050565b611d6f611ef763ffffffff16565b806007600050819090905550670de0b6b3a76400008110151515611d935760006000fd5b604051611d9f9061577f565b60405180910390207f3a64504f0bc0c335e2aecb78638a257e0351a3fe0370861fd54ee4190b92093382604051611dd69190615d2c565b60405180910390a25b5b50565b60096000505481565b60006801000000000000000082101515611e71576040517f08c379a00000000000000000000000000000000000000000000000000000000081526004018080602001828103825260118152602001807f6d6f7265207468616e203634206269747300000000000000000000000000000081526020015060200191505060405180910390fd5b819050611e79565b919050565b60007f00000000000000000000000000000000000000000000000000000000000000007f000000000000000000000000000000000000000000000000000000000000000067ffffffffffffffff16611eda61439763ffffffff16565b67ffffffffffffffff16811515611eed57fe5b0403905080505b90565b600060009054906101000a900473ffffffffffffffffffffffffffffffffffffffff1673ffffffffffffffffffffffffffffffffffffffff163373ffffffffffffffffffffffffffffffffffffffff16141515611f89576040517f08c379a0000000000000000000000000000000000000000000000000000000008152600401611f8090615a84565b60405180910390fd5b5b565b6001600060146101000a81548160ff0219169083151502179055507f7acc84e34091ae817647a4c49116f5cc07f319078ba80f8f5fde37ea7e25cbd660405160405180910390a15b565b600460009054906101000a900473ffffffffffffffffffffffffffffffffffffffff1673ffffffffffffffffffffffffffffffffffffffff1663e97dcb626040518163ffffffff1660e01b8152600401600060405180830381600087803b1580156120415760006000fd5b505af1158015612056573d600060003e3d6000fd5b505050506002600660005054141515156120a5576040517f08c379a000000000000000000000000000000000000000000000000000000000815260040161209c90615b02565b60405180910390fd5b600260066000508190909055505b565b600060149054906101000a900460ff16151515612107576040517f08c379a00000000000000000000000000000000000000000000000000000000081526004016120fe90615c63565b60405180910390fd5b5b565b80151561214c576040517f08c379a000000000000000000000000000000000000000000000000000000000815260040161214390615ac3565b60405180910390fd5b5b50565b60016006600050819090905550600460009054906101000a900473ffffffffffffffffffffffffffffffffffffffff1673ffffffffffffffffffffffffffffffffffffffff1663e9fad8ee6040518163ffffffff1660e01b8152600401600060405180830381600087803b1580156121c85760006000fd5b505af11580156121dd573d600060003e3d6000fd5b505050505b565b600060009054906101000a900473ffffffffffffffffffffffffffffffffffffffff1673ffffffffffffffffffffffffffffffffffffffff1663a89f51ae6040518163ffffffff1660e01b815260040160206040518083038186803b15801561224d5760006000fd5b505afa158015612262573d600060003e3d6000fd5b505050506040513d601f19601f820116820180604052508101906122869190615283565b600a60006101000a81548173ffffffffffffffffffffffffffffffffffffffff021916908373ffffffffffffffffffffffffffffffffffffffff160217905550600060009054906101000a900473ffffffffffffffffffffffffffffffffffffffff1673ffffffffffffffffffffffffffffffffffffffff16632cae02696040518163ffffffff1660e01b815260040160206040518083038186803b15801561232f5760006000fd5b505afa158015612344573d600060003e3d6000fd5b505050506040513d601f19601f82011682018060405250810190612368919061525c565b600b60006101000a81548173ffffffffffffffffffffffffffffffffffffffff021916908373ffffffffffffffffffffffffffffffffffffffff1602179055506000600a60009054906101000a900473ffffffffffffffffffffffffffffffffffffffff1673ffffffffffffffffffffffffffffffffffffffff1663755edd17600260009054906101000a900473ffffffffffffffffffffffffffffffffffffffff166040518263ffffffff1660e01b815260040161242791906157e1565b602060405180830381600087803b1580156124425760006000fd5b505af1158015612457573d600060003e3d6000fd5b505050506040513d601f19601f8201168201806040525081019061247b9190615544565b67ffffffffffffffff161415156124925760006000fd5b61249a614fec565b600260009054906101000a900473ffffffffffffffffffffffffffffffffffffffff1673ffffffffffffffffffffffffffffffffffffffff16635a6beaf460006124eb60008561282d63ffffffff16565b6040518363ffffffff1660e01b815260040161250892919061599c565b600060405180830381600087803b1580156125235760006000fd5b505af1158015612538573d600060003e3d6000fd5b505050506000604051806080016040528063ef5e1cac60e01b7bffffffffffffffffffffffffffffffffffffffffffffffffffffffff19167bffffffffffffffffffffffffffffffffffffffffffffffffffffffff1916815260200163c433c80a60e01b7bffffffffffffffffffffffffffffffffffffffffffffffffffffffff19167bffffffffffffffffffffffffffffffffffffffffffffffffffffffff191681526020016306972dcd60e01b7bffffffffffffffffffffffffffffffffffffffffffffffffffffffff19167bffffffffffffffffffffffffffffffffffffffffffffffffffffffff19168152602001635a6127a960e01b7bffffffffffffffffffffffffffffffffffffffffffffffffffffffff19167bffffffffffffffffffffffffffffffffffffffffffffffffffffffff191681526020015090506000600090505b815060048110156127175760016005600050600084846004811015156126a157fe5b60200201517bffffffffffffffffffffffffffffffffffffffffffffffffffffffff19167bffffffffffffffffffffffffffffffffffffffffffffffffffffffff1916815260200190815260200160002060006101000a81548160ff0219169083151502179055505b808060010191505061267f565b506001600160146101000a81548160ff02191690831515021790555050505b565b6127466120b563ffffffff16565b600060009054906101000a900473ffffffffffffffffffffffffffffffffffffffff1673ffffffffffffffffffffffffffffffffffffffff1663bf86d6906040518163ffffffff1660e01b815260040160206040518083038186803b1580156127af5760006000fd5b505afa1580156127c4573d600060003e3d6000fd5b505050506040513d601f19601f820116820180604052508101906127e89190615177565b15151561282a576040517f08c379a0000000000000000000000000000000000000000000000000000000008152600401612821906159c7565b60405180910390fd5b5b565b612835614fec565b60006128456143b263ffffffff16565b90506000612858826144a963ffffffff16565b9050600060008560a0015167ffffffffffffffff161461288a576128858560a001516144a963ffffffff16565b61288d565b60005b90508067ffffffffffffffff168267ffffffffffffffff161115156128b757849350505050612cfd565b6128c561353b63ffffffff16565b600061297986600260009054906101000a900473ffffffffffffffffffffffffffffffffffffffff1673ffffffffffffffffffffffffffffffffffffffff166306ef2d806040518163ffffffff1660e01b815260040160806040518083038186803b1580156129345760006000fd5b505afa158015612949573d600060003e3d6000fd5b505050506040513d601f19601f8201168201806040525081019061296d919061542d565b8661453163ffffffff16565b8092508196505050600081118015612992575060008714155b15612caf57600073ffffffffffffffffffffffffffffffffffffffff1685610160015173ffffffffffffffffffffffffffffffffffffffff16141580156129e85750600085610180015167ffffffffffffffff16115b15612b19576000612a1186610180015167ffffffffffffffff16836140b590919063ffffffff16565b9050600060009054906101000a900473ffffffffffffffffffffffffffffffffffffffff1673ffffffffffffffffffffffffffffffffffffffff1663ef7a7cfa876101600151836040518363ffffffff1660e01b8152600401612a759291906158c8565b600060405180830381600087803b158015612a905760006000fd5b505af1158015612aa5573d600060003e3d6000fd5b505050506001151586610160015173ffffffffffffffffffffffffffffffffffffffff167f8079a05488a0f375c08504c3ba8b3a1371f5a192b7a141bc9294ef7ad41389d983604051612af89190615d2c565b60405180910390a3612b13818361469790919063ffffffff16565b91508150505b6000600a60009054906101000a900473ffffffffffffffffffffffffffffffffffffffff1673ffffffffffffffffffffffffffffffffffffffff16636352211e896040518263ffffffff1660e01b8152600401612b769190615d2c565b60206040518083038186803b158015612b8f5760006000fd5b505afa158015612ba4573d600060003e3d6000fd5b505050506040513d601f19601f82011682018060405250810190612bc89190615150565b9050600060009054906101000a900473ffffffffffffffffffffffffffffffffffffffff1673ffffffffffffffffffffffffffffffffffffffff1663ef7a7cfa82846040518363ffffffff1660e01b8152600401612c279291906158c8565b600060405180830381600087803b158015612c425760006000fd5b505af1158015612c57573d600060003e3d6000fd5b50505050600015158173ffffffffffffffffffffffffffffffffffffffff167f8079a05488a0f375c08504c3ba8b3a1371f5a192b7a141bc9294ef7ad41389d984604051612ca59190615d2c565b60405180910390a3505b8267ffffffffffffffff16877fc99ac0d15229fa72f1b0756c0eed4e7ede3d80f4e4e0d308ce7a56d1366b8a03876040015184604051612cf0929190615d3e565b60405180910390a3505050505b92915050565b60007f800000000000000000000000000000000000000000000000000000000000000082101515612d9f576040517f08c379a00000000000000000000000000000000000000000000000000000000081526004018080602001828103825260128152602001807f746f6f2062696720666f7220696e74323536000000000000000000000000000081526020015060200191505060405180910390fd5b819050612da7565b919050565b6000349050600081118015612dc15750600082115b151515612e03576040517f08c379a0000000000000000000000000000000000000000000000000000000008152600401612dfa90615b80565b60405180910390fd5b6000612e1682612d03909063ffffffff16565b90506000811415612e3a57612e3283612d03909063ffffffff16565b600003905080505b612e59600085141580612e4e575060008214155b61210a63ffffffff16565b600084141515613107576000841315612f5b576000849050612e8881886040015161472090919063ffffffff16565b8760400190908181526020015050612ea461439763ffffffff16565b8760c0019067ffffffffffffffff16908167ffffffffffffffff1681526020015050600260009054906101000a900473ffffffffffffffffffffffffffffffffffffffff1673ffffffffffffffffffffffffffffffffffffffff16632b7c7b11826040518263ffffffff1660e01b8152600401612f219190615d2c565b600060405180830381600087803b158015612f3c5760006000fd5b505af1158015612f51573d600060003e3d6000fd5b5050505050613106565b60008660400151111515612fa4576040517f08c379a0000000000000000000000000000000000000000000000000000000008152600401612f9b90615c24565b60405180910390fd5b612fb261439763ffffffff16565b67ffffffffffffffff16612fe3610708610e10018860c0015167ffffffffffffffff166147a990919063ffffffff16565b67ffffffffffffffff1610151561302f576040517f08c379a000000000000000000000000000000000000000000000000000000000815260040161302690615a45565b60405180910390fd5b836000038660400151101561305b576130538660400151612d03909063ffffffff16565b600003935083505b836000038660400181815103915090908181526020015050600260009054906101000a900473ffffffffffffffffffffffffffffffffffffffff1673ffffffffffffffffffffffffffffffffffffffff16632a7ba1f7856000036040518263ffffffff1660e01b81526004016130d19190615d2c565b600060405180830381600087803b1580156130ec5760006000fd5b505af1158015613101573d600060003e3d6000fd5b505050505b5b60008114151561316e5760008113156131445761313181876020015161472090919063ffffffff16565b866020019090818152602001505061316d565b61315e81600003876020015161469790919063ffffffff16565b86602001909081815260200150505b5b600086604001511415156131f8576008600050548660400151101515156131ca576040517f08c379a00000000000000000000000000000000000000000000000000000000081526004016131c190615be5565b60405180910390fd5b60008112806131d95750600084135b156131f7576131f68660400151876020015161484663ffffffff16565b5b5b600260009054906101000a900473ffffffffffffffffffffffffffffffffffffffff1673ffffffffffffffffffffffffffffffffffffffff16635a6beaf486886040518363ffffffff1660e01b8152600401613255929190615da3565b600060405180830381600087803b1580156132705760006000fd5b505af1158015613285573d600060003e3d6000fd5b505050506000841415156133c857600084131561333257600360009054906101000a900473ffffffffffffffffffffffffffffffffffffffff1673ffffffffffffffffffffffffffffffffffffffff1663449a52f833866040518363ffffffff1660e01b81526004016132f9929190615860565b600060405180830381600087803b1580156133145760006000fd5b505af1158015613329573d600060003e3d6000fd5b505050506133c7565b600360009054906101000a900473ffffffffffffffffffffffffffffffffffffffff1673ffffffffffffffffffffffffffffffffffffffff166379cc679033866000036040518363ffffffff1660e01b8152600401613392929190615860565b600060405180830381600087803b1580156133ad5760006000fd5b505af11580156133c2573d600060003e3d6000fd5b505050505b5b6000811415156134a85760008113156134125761340d600260009054906101000a900473ffffffffffffffffffffffffffffffffffffffff1682614a1663ffffffff16565b6134a7565b600260009054906101000a900473ffffffffffffffffffffffffffffffffffffffff1673ffffffffffffffffffffffffffffffffffffffff16636250216933836000036040518363ffffffff1660e01b8152600401613472929190615831565b600060405180830381600087803b15801561348d5760006000fd5b505af11580156134a2573d600060003e3d6000fd5b505050505b5b8467ffffffffffffffff167f0ed8d38fcfdb338f760ae5cf4b84f9ade387db12ea673e89e8da1b25857cc1c185836040516134e4929190615983565b60405180910390a250505b50505050565b801515613537576040517f08c379a000000000000000000000000000000000000000000000000000000000815260040161352e90615a84565b60405180910390fd5b5b50565b600061354b614b9c63ffffffff16565b9050600b60189054906101000a900467ffffffffffffffff1667ffffffffffffffff168167ffffffffffffffff161115156135865750613f22565b6000600b60189054906101000a900467ffffffffffffffff16820390506000600260009054906101000a900473ffffffffffffffffffffffffffffffffffffffff1673ffffffffffffffffffffffffffffffffffffffff166306ef2d806040518163ffffffff1660e01b815260040160806040518083038186803b15801561360e5760006000fd5b505afa158015613623573d600060003e3d6000fd5b505050506040513d601f19601f82011682018060405250810190613647919061542d565b90506000600060009054906101000a900473ffffffffffffffffffffffffffffffffffffffff1673ffffffffffffffffffffffffffffffffffffffff166343f48fbd6040518163ffffffff1660e01b815260040160206040518083038186803b1580156136b45760006000fd5b505afa1580156136c9573d600060003e3d6000fd5b505050506040513d601f19601f820116820180604052508101906136ed91906152f8565b905060006138a983858473ffffffffffffffffffffffffffffffffffffffff1663a0fc0eda6040518163ffffffff1660e01b815260040160206040518083038186803b15801561373d5760006000fd5b505afa158015613752573d600060003e3d6000fd5b505050506040513d601f19601f8201168201806040525081019061377691906154a9565b8573ffffffffffffffffffffffffffffffffffffffff16636d7fa6646040518163ffffffff1660e01b815260040160206040518083038186803b1580156137bd5760006000fd5b505afa1580156137d2573d600060003e3d6000fd5b505050506040513d601f19601f820116820180604052508101906137f69190615177565b600360009054906101000a900473ffffffffffffffffffffffffffffffffffffffff1673ffffffffffffffffffffffffffffffffffffffff166375172a8b6040518163ffffffff1660e01b815260040160206040518083038186803b15801561385f5760006000fd5b505afa158015613874573d600060003e3d6000fd5b505050506040513d601f19601f8201168201806040525081019061389891906154a9565b600960005054614bc263ffffffff16565b90506000613acd8567ffffffffffffffff16610e1067ffffffffffffffff16620151808115156138d557fe5b0467ffffffffffffffff16613abe600060009054906101000a900473ffffffffffffffffffffffffffffffffffffffff1673ffffffffffffffffffffffffffffffffffffffff16639ec5a8946040518163ffffffff1660e01b815260040160206040518083038186803b15801561394c5760006000fd5b505afa158015613961573d600060003e3d6000fd5b505050506040513d601f19601f82011682018060405250810190613985919061531f565b73ffffffffffffffffffffffffffffffffffffffff16630a86f1096040518163ffffffff1660e01b815260040160206040518083038186803b1580156139cb5760006000fd5b505afa1580156139e0573d600060003e3d6000fd5b505050506040513d601f19601f82011682018060405250810190613a049190615544565b67ffffffffffffffff16600060009054906101000a900473ffffffffffffffffffffffffffffffffffffffff1673ffffffffffffffffffffffffffffffffffffffff1663c375e6ed6040518163ffffffff1660e01b815260040160206040518083038186803b158015613a775760006000fd5b505afa158015613a8c573d600060003e3d6000fd5b505050506040513d601f19601f82011682018060405250810190613ab091906154a9565b6140b590919063ffffffff16565b614db09092919063ffffffff16565b9050604051806080016040528083600001518152602001613afb83876020015161472090919063ffffffff16565b8152602001613b37613b248867ffffffffffffffff168860000151614eb190919063ffffffff16565b876040015161472090919063ffffffff16565b8152602001836020015181526020015093508350600260009054906101000a900473ffffffffffffffffffffffffffffffffffffffff1673ffffffffffffffffffffffffffffffffffffffff166378efc6b0856040518263ffffffff1660e01b8152600401613ba69190615cfb565b600060405180830381600087803b158015613bc15760006000fd5b505af1158015613bd6573d600060003e3d6000fd5b5050505085600b60186101000a81548167ffffffffffffffff021916908367ffffffffffffffff160217905550600082606001511115613d5b57600260009054906101000a900473ffffffffffffffffffffffffffffffffffffffff1673ffffffffffffffffffffffffffffffffffffffff16632c73f09e83606001516040518263ffffffff1660e01b8152600401613c6f9190615d2c565b600060405180830381600087803b158015613c8a5760006000fd5b505af1158015613c9f573d600060003e3d6000fd5b50505050600360009054906101000a900473ffffffffffffffffffffffffffffffffffffffff1673ffffffffffffffffffffffffffffffffffffffff1663449a52f8600260009054906101000a900473ffffffffffffffffffffffffffffffffffffffff1684606001516040518363ffffffff1660e01b8152600401613d269291906158c8565b600060405180830381600087803b158015613d415760006000fd5b505af1158015613d56573d600060003e3d6000fd5b505050505b600082604001511115613e2057600360009054906101000a900473ffffffffffffffffffffffffffffffffffffffff1673ffffffffffffffffffffffffffffffffffffffff1663449a52f8600360009054906101000a900473ffffffffffffffffffffffffffffffffffffffff1684604001516040518363ffffffff1660e01b8152600401613deb9291906158c8565b600060405180830381600087803b158015613e065760006000fd5b505af1158015613e1b573d600060003e3d6000fd5b505050505b600082608001511115613ec157600360009054906101000a900473ffffffffffffffffffffffffffffffffffffffff1673ffffffffffffffffffffffffffffffffffffffff1663c59fb1ab83608001516040518263ffffffff1660e01b8152600401613e8c9190615d2c565b600060405180830381600087803b158015613ea75760006000fd5b505af1158015613ebc573d600060003e3d6000fd5b505050505b8567ffffffffffffffff167fdfc2183705a66b49f12c66a6d3b2fa5cf3b7c67086e9c6e90d144befc94f436c868660000151876020015188604001518960600151604051613f13959493929190615dce565b60405180910390a25050505050505b565b60006000600260009054906101000a900473ffffffffffffffffffffffffffffffffffffffff1673ffffffffffffffffffffffffffffffffffffffff16637f250c616040518163ffffffff1660e01b815260040160206040518083038186803b158015613f915760006000fd5b505afa158015613fa6573d600060003e3d6000fd5b505050506040513d601f19601f82011682018060405250810190613fca91906154a9565b90506000600b60009054906101000a900473ffffffffffffffffffffffffffffffffffffffff1673ffffffffffffffffffffffffffffffffffffffff166318160ddd6040518163ffffffff1660e01b815260040160206040518083038186803b1580156140375760006000fd5b505afa15801561404c573d600060003e3d6000fd5b505050506040513d601f19601f8201168201806040525081019061407091906154a9565b905060008114806140815750600082145b61409d57614098828261437190919063ffffffff16565b6140a7565b670de0b6b3a76400005b925050506140b25650505b90565b60006140d08383670de0b6b3a7640000614db063ffffffff16565b905080505b92915050565b600060008573ffffffffffffffffffffffffffffffffffffffff166323b872dd60e01b868686604051602401808473ffffffffffffffffffffffffffffffffffffffff1681526020018373ffffffffffffffffffffffffffffffffffffffff1681526020018281526020019350505050604051602081830303815290604052907bffffffffffffffffffffffffffffffffffffffffffffffffffffffff19166020820180517bffffffffffffffffffffffffffffffffffffffffffffffffffffffff83818316178352505050506040518082805190602001908083835b6020831015156141de57805182525b6020820191506020810190506020830392506141b8565b6001836020036101000a0380198251168184511680821785525050505050509050019150506000604051808303816000865af19150503d8060008114614240576040519150601f19603f3d011682016040523d82523d6000602084013e614245565b606091505b5091509150818015614286575060008151148061428557508080602001905160208110156142735760006000fd5b81019080805190602001909291905050505b5b15156142fd576040517f08c379a00000000000000000000000000000000000000000000000000000000081526004018080602001828103825260038152602001807f535446000000000000000000000000000000000000000000000000000000000081526020015060200191505060405180910390fd5b50505b50505050565b600260066000505414151515614351576040517f08c379a000000000000000000000000000000000000000000000000000000000815260040161434890615a06565b60405180910390fd5b600260066000508190909055505b565b600160066000508190909055505b565b600061438c83670de0b6b3a764000084614db063ffffffff16565b905080505b92915050565b60006143aa42611dec909063ffffffff16565b905080505b90565b60006143c261439763ffffffff16565b905080506000600060009054906101000a900473ffffffffffffffffffffffffffffffffffffffff1673ffffffffffffffffffffffffffffffffffffffff1663585690816040518163ffffffff1660e01b815260040160206040518083038186803b1580156144315760006000fd5b505afa158015614446573d600060003e3d6000fd5b505050506040513d601f19601f8201168201806040525081019061446a9190615544565b905060008167ffffffffffffffff1611801561449957508167ffffffffffffffff168167ffffffffffffffff16105b156144a45780915081505b505b90565b60006145277f00000000000000000000000000000000000000000000000000000000000000007f000000000000000000000000000000000000000000000000000000000000000067ffffffffffffffff168467ffffffffffffffff1681151561450e57fe5b0467ffffffffffffffff16614f4f90919063ffffffff16565b905080505b919050565b614539614fec565b6000849150815060008260a0015167ffffffffffffffff16118015614562575060008260400151115b1561463257614588846060015183606001518460400151614db09092919063ffffffff16565b826040019090818152602001505061462d6145ba8360a001518567ffffffffffffffff16614f4f90919063ffffffff16565b67ffffffffffffffff16610e1067ffffffffffffffff1661461e6145ef8660800151896020015161469790919063ffffffff16565b61460a87600001518a6040015161469790919063ffffffff16565b8760400151614db09092919063ffffffff16565b614db09092919063ffffffff16565b905080505b836060015182606001909081815260200150508360200151826080019090818152602001505083604001518260000190908181526020015050828260a0019067ffffffffffffffff16908167ffffffffffffffff16815260200150505b935093915050565b60008282840391508111151515614719576040517f08c379a000000000000000000000000000000000000000000000000000000000815260040180806020018281038252600d8152602001807f7375622d756e646572666c6f770000000000000000000000000000000000000081526020015060200191505060405180910390fd5b5b92915050565b600082828401915081101515156147a2576040517f08c379a000000000000000000000000000000000000000000000000000000000815260040180806020018281038252600c8152602001807f6164642d6f766572666c6f77000000000000000000000000000000000000000081526020015060200191505060405180910390fd5b5b92915050565b60008267ffffffffffffffff1682840191508167ffffffffffffffff161015151561483f576040517f08c379a000000000000000000000000000000000000000000000000000000000815260040180806020018281038252600c8152602001807f6164642d6f766572666c6f77000000000000000000000000000000000000000081526020015060200191505060405180910390fd5b5b92915050565b600160159054906101000a900460ff161561486057614a12565b6000600060009054906101000a900473ffffffffffffffffffffffffffffffffffffffff1673ffffffffffffffffffffffffffffffffffffffff1663d3419bf36040518163ffffffff1660e01b815260040160206040518083038186803b1580156148cb5760006000fd5b505afa1580156148e0573d600060003e3d6000fd5b505050506040513d601f19601f8201168201806040525081019061490491906152aa565b73ffffffffffffffffffffffffffffffffffffffff1663fa42dcf4600b60149054906101000a900463ffffffff166040518263ffffffff1660e01b815260040161494e9190615d57565b60206040518083038186803b1580156149675760006000fd5b505afa15801561497c573d600060003e3d6000fd5b505050506040513d601f19601f820116820180604052508101906149a091906154a9565b90506149ba83600760005054614eb190919063ffffffff16565b6149cd8284614eb190919063ffffffff16565b10151515614a10576040517f08c379a0000000000000000000000000000000000000000000000000000000008152600401614a0790615ca2565b60405180910390fd5b505b5050565b60008273ffffffffffffffffffffffffffffffffffffffff1682600067ffffffffffffffff81118015614a495760006000fd5b506040519080825280601f01601f191660200182016040528015614a7c5781602001600182028036833780820191505090505b506040518082805190602001908083835b602083101515614ab357805182525b602082019150602081019050602083039250614a8d565b6001836020036101000a03801982511681845116808217855250505050505090500191505060006040518083038185875af1925050503d8060008114614b15576040519150601f19603f3d011682016040523d82523d6000602084013e614b1a565b606091505b50509050801515614b96576040517f08c379a00000000000000000000000000000000000000000000000000000000081526004018080602001828103825260038152602001807f535445000000000000000000000000000000000000000000000000000000000081526020015060200191505060405180910390fd5b505b5050565b6000614bba614baf6143b263ffffffff16565b6144a963ffffffff16565b905080505b90565b614bca6150a0565b6000851415614c01578660000151816000019090818152602001505086606001518160200190908181526020015050809050614da6565b6000614c478767ffffffffffffffff16610e1067ffffffffffffffff166301e13380811515614c2c57fe5b0467ffffffffffffffff1688614db09092919063ffffffff16565b9050600085614c7057614c6b82670de0b6b3a764000061469790919063ffffffff16565b614c8c565b614c8b82670de0b6b3a764000061472090919063ffffffff16565b5b9050614ca5818a606001516140b590919063ffffffff16565b8360200190908181526020015050614cd483602001518a606001518b60000151614db09092919063ffffffff16565b8360000190908181526020015050886000015183600001511115614d3d57600089600001518460000151039050614d1485826140b590919063ffffffff16565b846060019090818152602001505083606001518103846040019090818152602001505050614da3565b886000015183600001511015614da257600083600001518a600001510390508581101515614d90578960000151846000019090818152602001505089606001518460200190908181526020015050614da0565b8084608001909081815260200150505b505b5b50505b9695505050505050565b6000600060006000198587098587029250828110838203039150506000811415614df357600084111515614de45760006000fd5b83820492508292505050614eaa565b8084111515614e025760006000fd5b6000848688099050828111820391508083039250600085866000031690508086049550808404935060018182600003040190508083028417935083506000600287600302189050808702600203810290508050808702600203810290508050808702600203810290508050808702600203810290508050808702600203810290508050808702600203810290508050808502955085508595505050505050614eaa5650505050505b9392505050565b60006000821480614ed157508282838502925082811515614ece57fe5b04145b1515614f48576040517f08c379a000000000000000000000000000000000000000000000000000000000815260040180806020018281038252600c8152602001807f6d756c2d6f766572666c6f77000000000000000000000000000000000000000081526020015060200191505060405180910390fd5b5b92915050565b60008267ffffffffffffffff1682840391508167ffffffffffffffff1611151515614fe5576040517f08c379a000000000000000000000000000000000000000000000000000000000815260040180806020018281038252600d8152602001807f7375622d756e646572666c6f770000000000000000000000000000000000000081526020015060200191505060405180910390fd5b5b92915050565b604051806101a001604052806000815260200160008152602001600081526020016000815260200160008152602001600067ffffffffffffffff168152602001600067ffffffffffffffff168152602001600060020b8152602001600015158152602001600067ffffffffffffffff168152602001600063ffffffff168152602001600073ffffffffffffffffffffffffffffffffffffffff168152602001600067ffffffffffffffff1681526020015090565b6040518060a001604052806000815260200160008152602001600081526020016000815260200160008152602001509056615e90565b6000815190506150e581615e31565b5b919050565b600081519050801515811415156151025760006000fd5b5b919050565b6000815190508060020b811415156151205760006000fd5b5b919050565b60008151905061513581615e5a565b5b919050565b60008151905061514a81615e73565b5b919050565b600060208284031215615161578081fd5b815161516c81615e31565b809150505b92915050565b600060208284031215615188578081fd5b615191826150eb565b90505b92915050565b6000602082840312156151ab578081fd5b81357fffffffff000000000000000000000000000000000000000000000000000000008116811415156151dc578182fd5b809150505b92915050565b6000602082840312156151f8578081fd5b815161520381615e31565b809150505b92915050565b60006020828403121561521f578081fd5b813561522a81615e31565b809150505b92915050565b600060208284031215615246578081fd5b815161525181615e31565b809150505b92915050565b60006020828403121561526d578081fd5b815161527881615e31565b809150505b92915050565b600060208284031215615294578081fd5b815161529f81615e31565b809150505b92915050565b6000602082840312156152bb578081fd5b81516152c681615e31565b809150505b92915050565b6000602082840312156152e2578081fd5b81516152ed81615e31565b809150505b92915050565b600060208284031215615309578081fd5b815161531481615e31565b809150505b92915050565b600060208284031215615330578081fd5b815161533b81615e31565b809150505b92915050565b60006101a0808385031215615359578182fd5b61536281615e06565b9050825181526020830151602082015260408301516040820152606083015160608201526080830151608082015261539c60a0840161513b565b60a08201526153ad60c0840161513b565b60c08201526153be60e08401615108565b60e08201526101006153d18185016150eb565b81830152506101206153e481850161513b565b81830152506101406153f7818501615126565b818301525061016061540a8185016150d6565b818301525061018061541d81850161513b565b8183015250809150505b92915050565b60006080828403121561543e578081fd5b6040516080810181811067ffffffffffffffff8211171561545b57fe5b806040525082518152602083015160208201526040830151604082015260608301516060820152809150505b92915050565b60006020828403121561549e578081fd5b813590505b92915050565b6000602082840312156154ba578081fd5b815190505b92915050565b60006000604083850312156154d8578081fd5b8235915060208301356154ea81615e5a565b809150505b9250929050565b600060208284031215615507578081fd5b813561551281615e5a565b809150505b92915050565b60006020828403121561552e578081fd5b813561553981615e73565b809150505b92915050565b600060208284031215615555578081fd5b815161556081615e73565b809150505b92915050565b600060006000600060808587031215615582578182fd5b843561558d81615e73565b80945050602085013592506040850135915060608501356155ad81615e5a565b809150505b92959194509250565b60006000604083850312156155ce578182fd5b82356155d981615e73565b8092505060208301356155eb81615e5a565b809150505b9250929050565b73ffffffffffffffffffffffffffffffffffffffff811682525b5050565b80151582525b5050565b8060020b82525b5050565b805182526020810151602083015260408101516040830152606081015160608301526080810151608083015260a081015161566860a084018261570b565b5060c081015161567b60c084018261570b565b5060e081015161568e60e084018261561f565b50610100808201516156a282850182615615565b5050610120808201516156b78285018261570b565b5050610140808201516156cc828501826156fd565b5050610160808201516156e1828501826155f7565b5050610180808201516156f68285018261570b565b50505b5050565b63ffffffff811682525b5050565b67ffffffffffffffff811682525b5050565b60007f6d696e506f736974696f6e53697a6500000000000000000000000000000000008252600f820190505b919050565b60007f747761704475726174696f6e00000000000000000000000000000000000000008252600c820190505b919050565b60007f636f6c6c61746572616c697a6174696f6e526571756972656d656e74000000008252601c820190505b919050565b60007f696e746572657374506f7274696f6e546f4c656e64657273000000000000000082526018820190505b919050565b600060208201905073ffffffffffffffffffffffffffffffffffffffff831682525b92915050565b600060208201905073ffffffffffffffffffffffffffffffffffffffff831682525b92915050565b600060408201905073ffffffffffffffffffffffffffffffffffffffff841682528260208301525b9392505050565b600060408201905073ffffffffffffffffffffffffffffffffffffffff841682528260208301525b9392505050565b600060408201905073ffffffffffffffffffffffffffffffffffffffff8416825267ffffffffffffffff831660208301525b9392505050565b600060408201905073ffffffffffffffffffffffffffffffffffffffff841682528260208301525b9392505050565b600060208201905082151582525b92915050565b600060208201905073ffffffffffffffffffffffffffffffffffffffff831682525b92915050565b600060208201905073ffffffffffffffffffffffffffffffffffffffff831682525b92915050565b600060208201905073ffffffffffffffffffffffffffffffffffffffff831682525b92915050565b60006040820190508382528260208301525b9392505050565b60006101c08201905067ffffffffffffffff841682526159bf602083018461562a565b5b9392505050565b600060208252601160208301527f50726f746f636f6c2073687574646f776e00000000000000000000000000000060408301526060820190505b919050565b600060208252600d60208301527f4c43205265656e7472616e63790000000000000000000000000000000000000060408301526060820190505b919050565b600060208252600f60208301527f4e6f20666c61736820626f72726f77000000000000000000000000000000000060408301526060820190505b919050565b600060208252600e60208301527f4e6f7420417574686f72697a656400000000000000000000000000000000000060408301526060820190505b919050565b600060208252600460208301527f4e6f6f700000000000000000000000000000000000000000000000000000000060408301526060820190505b919050565b600060208252600d60208301527f4c50205265656e7472616e63790000000000000000000000000000000000000060408301526060820190505b919050565b600060208252601360208301527f4d7573742061646420636f6c6c61746572616c0000000000000000000000000060408301526060820190505b919050565b600060208252602360208301527f43616e7420696e637265617365202620646563726561736520636f6c6c61746560408301527f72616c000000000000000000000000000000000000000000000000000000000060608301526080820190505b919050565b600060208252601260208301527f506f736974696f6e20746f6f20736d616c6c000000000000000000000000000060408301526060820190505b919050565b600060208252601360208301527f4e6f206465627420746f20706179206261636b0000000000000000000000000060408301526060820190505b919050565b600060208252601360208301527f436f6e74726163742069732073746f707065640000000000000000000000000060408301526060820190505b919050565b600060208252601760208301527f496e73756666696369656e7420636f6c6c61746572616c00000000000000000060408301526060820190505b919050565b60006101a082019050615cf4828461562a565b5b92915050565b6000608082019050825182526020830151602083015260408301516040830152606083015160608301525b92915050565b60006020820190508282525b92915050565b60006040820190508382528260208301525b9392505050565b600060208201905063ffffffff831682525b92915050565b600060208201905063ffffffff831682525b92915050565b600060208201905067ffffffffffffffff831682525b92915050565b60006101c08201905067ffffffffffffffff84168252615dc6602083018461562a565b5b9392505050565b600060a08201905067ffffffffffffffff871682528560208301528460408301528360608301528260808301525b9695505050505050565b6000604051905081810181811067ffffffffffffffff82111715615e2657fe5b80604052505b919050565b73ffffffffffffffffffffffffffffffffffffffff811681141515615e565760006000fd5b5b50565b63ffffffff811681141515615e6f5760006000fd5b5b50565b67ffffffffffffffff811681141515615e8c5760006000fd5b5b50565bfea26469706673582212204f7ff0ef2454606bf4a48ceaf2fb6309e61a8c21de9922b2034bbdc280fe25f964736f6c63430007060033",
  "linkReferences": {},
  "deployedLinkReferences": {}
}