{
  "_format": "hh-sol-artifact-1",
  "contractName": "Market",
  "sourceName": "contracts/core/logic/Market.sol",
  "abi": [
    {
      "inputs": [],
      "stateMutability": "nonpayable",
      "type": "constructor"
    },
    {
      "anonymous": false,
      "inputs": [
        {
          "indexed": true,
          "internalType": "address",
          "name": "governor",
          "type": "address"
        }
      ],
      "name": "Initialized",
      "type": "event"
    },
    {
      "anonymous": false,
      "inputs": [
        {
          "indexed": true,
          "internalType": "uint64",
          "name": "period",
          "type": "uint64"
        },
        {
          "indexed": false,
          "internalType": "uint64",
          "name": "periods",
          "type": "uint64"
        },
        {
          "indexed": false,
          "internalType": "uint256",
          "name": "newDebt",
          "type": "uint256"
        },
        {
          "indexed": false,
          "internalType": "uint256",
          "name": "rewardCount",
          "type": "uint256"
        },
        {
          "indexed": false,
          "internalType": "uint256",
          "name": "cumulativeDebt",
          "type": "uint256"
        },
        {
          "indexed": false,
          "internalType": "uint256",
          "name": "debtExchangeRate",
          "type": "uint256"
        }
      ],
      "name": "InterestAccrued",
      "type": "event"
    },
    {
      "anonymous": false,
      "inputs": [
        {
          "indexed": true,
          "internalType": "address",
          "name": "account",
          "type": "address"
        },
        {
          "indexed": false,
          "internalType": "uint256",
          "name": "hueCount",
          "type": "uint256"
        },
        {
          "indexed": false,
          "internalType": "uint256",
          "name": "lendTokenCount",
          "type": "uint256"
        }
      ],
      "name": "Lend",
      "type": "event"
    },
    {
      "anonymous": false,
      "inputs": [
        {
          "indexed": true,
          "internalType": "string",
          "name": "paramName",
          "type": "string"
        },
        {
          "indexed": false,
          "internalType": "uint256",
          "name": "value",
          "type": "uint256"
        }
      ],
      "name": "ParameterUpdated",
      "type": "event"
    },
    {
      "anonymous": false,
      "inputs": [
        {
          "indexed": true,
          "internalType": "string",
          "name": "paramName",
          "type": "string"
        },
        {
          "indexed": false,
          "internalType": "uint64",
          "name": "value",
          "type": "uint64"
        }
      ],
      "name": "ParameterUpdated64",
      "type": "event"
    },
    {
      "anonymous": false,
      "inputs": [
        {
          "indexed": true,
          "internalType": "string",
          "name": "paramName",
          "type": "string"
        },
        {
          "indexed": false,
          "internalType": "address",
          "name": "value",
          "type": "address"
        }
      ],
      "name": "ParameterUpdatedAddress",
      "type": "event"
    },
    {
      "anonymous": false,
      "inputs": [
        {
          "indexed": true,
          "internalType": "uint64",
          "name": "positionID",
          "type": "uint64"
        },
        {
          "indexed": false,
          "internalType": "int256",
          "name": "debtChange",
          "type": "int256"
        },
        {
          "indexed": false,
          "internalType": "int256",
          "name": "collateralChange",
          "type": "int256"
        }
      ],
      "name": "PositionAdjusted",
      "type": "event"
    },
    {
      "anonymous": false,
      "inputs": [
        {
          "indexed": true,
          "internalType": "address",
          "name": "creator",
          "type": "address"
        },
        {
          "indexed": true,
          "internalType": "uint64",
          "name": "positionID",
          "type": "uint64"
        }
      ],
      "name": "PositionCreated",
      "type": "event"
    },
    {
      "anonymous": false,
      "inputs": [
        {
          "indexed": true,
          "internalType": "uint256",
          "name": "positionID",
          "type": "uint256"
        },
        {
          "indexed": true,
          "internalType": "uint64",
          "name": "period",
          "type": "uint64"
        },
        {
          "indexed": false,
          "internalType": "uint256",
          "name": "debtAfter",
          "type": "uint256"
        },
        {
          "indexed": false,
          "internalType": "uint256",
          "name": "tcpRewards",
          "type": "uint256"
        }
      ],
      "name": "PositionUpdated",
      "type": "event"
    },
    {
      "anonymous": false,
      "inputs": [
        {
          "indexed": true,
          "internalType": "address",
          "name": "account",
          "type": "address"
        },
        {
          "indexed": true,
          "internalType": "bool",
          "name": "isKickback",
          "type": "bool"
        },
        {
          "indexed": false,
          "internalType": "uint256",
          "name": "tcpRewards",
          "type": "uint256"
        }
      ],
      "name": "RewardsDistributed",
      "type": "event"
    },
    {
      "anonymous": false,
      "inputs": [],
      "name": "Stopped",
      "type": "event"
    },
    {
      "anonymous": false,
      "inputs": [
        {
          "indexed": true,
          "internalType": "address",
          "name": "account",
          "type": "address"
        },
        {
          "indexed": false,
          "internalType": "uint256",
          "name": "hueCount",
          "type": "uint256"
        },
        {
          "indexed": false,
          "internalType": "uint256",
          "name": "lendTokenCount",
          "type": "uint256"
        }
      ],
      "name": "Unlend",
      "type": "event"
    },
    {
      "inputs": [],
      "name": "accrueInterest",
      "outputs": [],
      "stateMutability": "nonpayable",
      "type": "function"
    },
    {
      "inputs": [
        {
          "internalType": "uint64",
          "name": "positionID",
          "type": "uint64"
        },
        {
          "internalType": "int256",
          "name": "debtChange",
          "type": "int256"
        },
        {
          "internalType": "uint256",
          "name": "collateralDecrease",
          "type": "uint256"
        },
        {
          "internalType": "uint32",
          "name": "ui",
          "type": "uint32"
        }
      ],
      "name": "adjustPosition",
      "outputs": [],
      "stateMutability": "payable",
      "type": "function"
    },
    {
      "inputs": [
        {
          "internalType": "uint64",
          "name": "positionID",
          "type": "uint64"
        },
        {
          "internalType": "uint32",
          "name": "ui",
          "type": "uint32"
        }
      ],
      "name": "claimRewards",
      "outputs": [],
      "stateMutability": "nonpayable",
      "type": "function"
    },
    {
      "inputs": [],
      "name": "collateralPool",
      "outputs": [
        {
          "internalType": "contract IUniswapV3Pool",
          "name": "",
          "type": "address"
        }
      ],
      "stateMutability": "view",
      "type": "function"
    },
    {
      "inputs": [],
      "name": "collateralizationRequirement",
      "outputs": [
        {
          "internalType": "uint256",
          "name": "",
          "type": "uint256"
        }
      ],
      "stateMutability": "view",
      "type": "function"
    },
    {
      "inputs": [],
      "name": "completeSetup",
      "outputs": [],
      "stateMutability": "nonpayable",
      "type": "function"
    },
    {
      "inputs": [
        {
          "internalType": "uint256",
          "name": "initialDebt",
          "type": "uint256"
        },
        {
          "internalType": "uint32",
          "name": "ui",
          "type": "uint32"
        }
      ],
      "name": "createPosition",
      "outputs": [
        {
          "internalType": "uint64",
          "name": "positionID",
          "type": "uint64"
        }
      ],
      "stateMutability": "payable",
      "type": "function"
    },
    {
      "inputs": [],
      "name": "currentPeriod",
      "outputs": [
        {
          "internalType": "uint64",
          "name": "period",
          "type": "uint64"
        }
      ],
      "stateMutability": "view",
      "type": "function"
    },
    {
      "inputs": [],
      "name": "deployer",
      "outputs": [
        {
          "internalType": "address",
          "name": "",
          "type": "address"
        }
      ],
      "stateMutability": "view",
      "type": "function"
    },
    {
      "inputs": [],
      "name": "firstPeriod",
      "outputs": [
        {
          "internalType": "uint64",
          "name": "",
          "type": "uint64"
        }
      ],
      "stateMutability": "view",
      "type": "function"
    },
    {
      "inputs": [],
      "name": "governor",
      "outputs": [
        {
          "internalType": "contract IGovernor",
          "name": "",
          "type": "address"
        }
      ],
      "stateMutability": "view",
      "type": "function"
    },
    {
      "inputs": [],
      "name": "huePositionNFT",
      "outputs": [
        {
          "internalType": "contract IPositionNFT",
          "name": "",
          "type": "address"
        }
      ],
      "stateMutability": "view",
      "type": "function"
    },
    {
      "inputs": [
        {
          "internalType": "contract IGovernor",
          "name": "_governor",
          "type": "address"
        }
      ],
      "name": "init",
      "outputs": [],
      "stateMutability": "nonpayable",
      "type": "function"
    },
    {
      "inputs": [],
      "name": "interestPortionToLenders",
      "outputs": [
        {
          "internalType": "uint256",
          "name": "",
          "type": "uint256"
        }
      ],
      "stateMutability": "view",
      "type": "function"
    },
    {
      "inputs": [],
      "name": "lastPeriodGlobalInterestAccrued",
      "outputs": [
        {
          "internalType": "uint64",
          "name": "",
          "type": "uint64"
        }
      ],
      "stateMutability": "view",
      "type": "function"
    },
    {
      "inputs": [
        {
          "internalType": "uint256",
          "name": "hueCount",
          "type": "uint256"
        }
      ],
      "name": "lend",
      "outputs": [],
      "stateMutability": "nonpayable",
      "type": "function"
    },
    {
      "inputs": [],
      "name": "lendHue",
      "outputs": [
        {
          "internalType": "contract ILendHue",
          "name": "",
          "type": "address"
        }
      ],
      "stateMutability": "view",
      "type": "function"
    },
    {
      "inputs": [],
      "name": "minPositionSize",
      "outputs": [
        {
          "internalType": "uint256",
          "name": "",
          "type": "uint256"
        }
      ],
      "stateMutability": "view",
      "type": "function"
    },
    {
      "inputs": [],
      "name": "periodLength",
      "outputs": [
        {
          "internalType": "uint64",
          "name": "",
          "type": "uint64"
        }
      ],
      "stateMutability": "view",
      "type": "function"
    },
    {
      "inputs": [
        {
          "internalType": "uint64",
          "name": "positionID",
          "type": "uint64"
        }
      ],
      "name": "removeKickback",
      "outputs": [],
      "stateMutability": "nonpayable",
      "type": "function"
    },
    {
      "inputs": [
        {
          "internalType": "uint256",
          "name": "requirement",
          "type": "uint256"
        }
      ],
      "name": "setCollateralizationRequirement",
      "outputs": [],
      "stateMutability": "nonpayable",
      "type": "function"
    },
    {
      "inputs": [
        {
          "internalType": "uint256",
          "name": "percentage",
          "type": "uint256"
        }
      ],
      "name": "setInterestPortionToLenders",
      "outputs": [],
      "stateMutability": "nonpayable",
      "type": "function"
    },
    {
      "inputs": [
        {
          "internalType": "uint256",
          "name": "size",
          "type": "uint256"
        }
      ],
      "name": "setMinPositionSize",
      "outputs": [],
      "stateMutability": "nonpayable",
      "type": "function"
    },
    {
      "inputs": [
        {
          "internalType": "uint32",
          "name": "duration",
          "type": "uint32"
        }
      ],
      "name": "setTwapDuration",
      "outputs": [],
      "stateMutability": "nonpayable",
      "type": "function"
    },
    {
      "inputs": [],
      "name": "stop",
      "outputs": [],
      "stateMutability": "nonpayable",
      "type": "function"
    },
    {
      "inputs": [],
      "name": "stopped",
      "outputs": [
        {
          "internalType": "bool",
          "name": "",
          "type": "bool"
        }
      ],
      "stateMutability": "view",
      "type": "function"
    },
    {
      "inputs": [
        {
          "internalType": "uint64",
          "name": "positionID",
          "type": "uint64"
        }
      ],
      "name": "systemGetUpdatedPosition",
      "outputs": [
        {
          "components": [
            {
              "internalType": "uint256",
              "name": "startCumulativeDebt",
              "type": "uint256"
            },
            {
              "internalType": "uint256",
              "name": "collateral",
              "type": "uint256"
            },
            {
              "internalType": "uint256",
              "name": "debt",
              "type": "uint256"
            },
            {
              "internalType": "uint256",
              "name": "startDebtExchangeRate",
              "type": "uint256"
            },
            {
              "internalType": "uint256",
              "name": "startTCPRewards",
              "type": "uint256"
            },
            {
              "internalType": "uint64",
              "name": "lastTimeUpdated",
              "type": "uint64"
            },
            {
              "internalType": "uint64",
              "name": "lastBorrowTime",
              "type": "uint64"
            },
            {
              "internalType": "int24",
              "name": "tick",
              "type": "int24"
            },
            {
              "internalType": "bool",
              "name": "tickSet",
              "type": "bool"
            },
            {
              "internalType": "uint64",
              "name": "tickIndex",
              "type": "uint64"
            },
            {
              "internalType": "uint32",
              "name": "ui",
              "type": "uint32"
            },
            {
              "internalType": "address",
              "name": "kickbackDestination",
              "type": "address"
            },
            {
              "internalType": "uint64",
              "name": "kickbackPortion",
              "type": "uint64"
            }
          ],
          "internalType": "struct IAccounting.DebtPosition",
          "name": "",
          "type": "tuple"
        }
      ],
      "stateMutability": "nonpayable",
      "type": "function"
    },
    {
      "inputs": [],
      "name": "twapDuration",
      "outputs": [
        {
          "internalType": "uint32",
          "name": "",
          "type": "uint32"
        }
      ],
      "stateMutability": "view",
      "type": "function"
    },
    {
      "inputs": [
        {
          "internalType": "uint256",
          "name": "lendTokenCount",
          "type": "uint256"
        }
      ],
      "name": "unlend",
      "outputs": [],
      "stateMutability": "nonpayable",
      "type": "function"
    },
    {
      "inputs": [
        {
          "internalType": "bytes4",
          "name": "",
          "type": "bytes4"
        }
      ],
      "name": "validUpdate",
      "outputs": [
        {
          "internalType": "bool",
          "name": "",
          "type": "bool"
        }
      ],
      "stateMutability": "view",
      "type": "function"
    },
    {
      "inputs": [
        {
          "internalType": "uint256",
          "name": "lendTokenCount",
          "type": "uint256"
        }
      ],
      "name": "valueOfLendTokensInHue",
      "outputs": [
        {
          "internalType": "uint256",
          "name": "",
          "type": "uint256"
        }
      ],
      "stateMutability": "view",
      "type": "function"
    }
  ],
  "bytecode": "0x60c0604052600160066000509090556714d1120d7b160000600760005090905568878678326eac90000060086000509090556702c68af0bb1400006009600050909055610708600b60146101000a81548163ffffffff021916908363ffffffff160217905550348015620000735760006000fd5b505b610e105b5b33600160006101000a81548173ffffffffffffffffffffffffffffffffffffffff021916908373ffffffffffffffffffffffffffffffffffffffff1602179055505b60018167ffffffffffffffff16620000d96200013b60201b60201c565b67ffffffffffffffff16811515620000ed57fe5b040367ffffffffffffffff1660a08167ffffffffffffffff1660c01b815260080150508067ffffffffffffffff1660808167ffffffffffffffff1660c01b815260080150505b505b620001f1565b600062000155426200015d60201b62001e2117909060201c565b905080505b90565b60006801000000000000000082101515620001e3576040517f08c379a00000000000000000000000000000000000000000000000000000000081526004018080602001828103825260118152602001807f6d6f7265207468616e203634206269747300000000000000000000000000000081526020015060200191505060405180910390fd5b819050620001ec565b919050565b60805160c01c60a05160c01c615fa66200022f60003980611b515280611eb752806144c0525080611b755280611ed852806144e15250615fa66000f3fe6080604052600436106101dc5760003560e01c80638aea8f7111610102578063c4e3a63b11610095578063eb6843ce11610064578063eb6843ce14610652578063ef5e1cac14610690578063f6979f29146106ba578063ff0eccf6146106e6576101dc565b8063c4e3a63b14610590578063d2ca2115146105bc578063d5f39488146105e8578063e11c876214610614576101dc565b8063b2326b57116100d1578063b2326b57146104e4578063b6ae213a1461050e578063bb8313c21461053a578063c433c80a14610566576101dc565b80638aea8f711461045e578063a6aa57ce14610476578063a6afed95146104a0578063a89f51ae146104b8576101dc565b806326d895451161017a5780635a6127a9116101495780635a6127a9146103c257806375f12b21146103ec5780637b809bdd14610418578063875bbc5114610434576101dc565b806326d895451461030e5780632cae02691461033a5780632e6c6f84146103665780635658c01214610396576101dc565b80630c340a24116101b65780630c340a2414610250578063113cf1ab1461027c578063197b1bf5146102ba57806319ab453c146102e4576101dc565b806306040618146101e257806306972dcd1461020e57806307da68f514610238576101dc565b60006000fd5b3480156101ef5760006000fd5b506101f8610712565b6040516102059190615e66565b60405180910390f35b34801561021b5760006000fd5b506102366004803603810190610231919061550f565b61072a565b005b3480156102455760006000fd5b5061024e610794565b005b34801561025d5760006000fd5b506102666107b4565b604051610273919061598d565b60405180910390f35b3480156102895760006000fd5b506102a4600480360381019061029f91906151f5565b6107da565b6040516102b19190615979565b60405180910390f35b3480156102c75760006000fd5b506102e260048036038101906102dd919061550f565b6107ff565b005b3480156102f15760006000fd5b5061030c60048036038101906103079190615269565b6109cd565b005b34801561031b5760006000fd5b50610324610d8b565b6040516103319190615e36565b60405180910390f35b3480156103475760006000fd5b50610350610da1565b60405161035d91906159b5565b60405180910390f35b610380600480360381019061037b9190615547565b610dc7565b60405161038d9190615e66565b60405180910390f35b3480156103a35760006000fd5b506103ac610fa3565b6040516103b99190615e0b565b60405180910390f35b3480156103cf5760006000fd5b506103ea60048036038101906103e5919061550f565b610fac565b005b3480156103f95760006000fd5b50610402611033565b60405161040f9190615979565b60405180910390f35b610432600480360381019061042d91906155ed565b611046565b005b3480156104415760006000fd5b5061045c6004803603810190610457919061563d565b611230565b005b34801561046b5760006000fd5b50610474611497565b005b3480156104835760006000fd5b5061049e6004803603810190610499919061550f565b611599565b005b3480156104ad5760006000fd5b506104b66117da565b005b3480156104c55760006000fd5b506104ce611808565b6040516104db91906159dd565b60405180910390f35b3480156104f15760006000fd5b5061050c6004803603810190610507919061559f565b61182e565b005b34801561051b5760006000fd5b50610524611a95565b6040516105319190615e66565b60405180910390f35b3480156105475760006000fd5b50610550611aaf565b60405161055d9190615e0b565b60405180910390f35b3480156105735760006000fd5b5061058e60048036038101906105899190615578565b611ab8565b005b34801561059d5760006000fd5b506105a6611b4f565b6040516105b39190615e66565b60405180910390f35b3480156105c95760006000fd5b506105d2611b73565b6040516105df9190615e66565b60405180910390f35b3480156105f55760006000fd5b506105fe611b97565b60405161060b9190615863565b60405180910390f35b3480156106215760006000fd5b5061063c6004803603810190610637919061550f565b611bbd565b6040516106499190615e0b565b60405180910390f35b34801561065f5760006000fd5b5061067a6004803603810190610675919061559f565b611beb565b6040516106879190615dc0565b60405180910390f35b34801561069d5760006000fd5b506106b860048036038101906106b3919061550f565b611d70565b005b3480156106c75760006000fd5b506106d0611df2565b6040516106dd9190615e0b565b60405180910390f35b3480156106f35760006000fd5b506106fc611dfb565b6040516107099190615a05565b60405180910390f35b6000610722611eb363ffffffff16565b905080505b90565b610738611f2c63ffffffff16565b8060086000508190909055506040516107509061579f565b60405180910390207f3a64504f0bc0c335e2aecb78638a257e0351a3fe0370861fd54ee4190b920933826040516107879190615e0b565b60405180910390a25b5b50565b6107a2611f2c63ffffffff16565b6107b0611fc163ffffffff16565b5b5b565b600060009054906101000a900473ffffffffffffffffffffffffffffffffffffffff1681565b600560005060205280600052604060002060009150909054906101000a900460ff1681565b61080d61200b63ffffffff16565b61081b6120ea63ffffffff16565b61082d6000821161213f63ffffffff16565b6000339050600061084383611bbd63ffffffff16565b9050600b60009054906101000a900473ffffffffffffffffffffffffffffffffffffffff1673ffffffffffffffffffffffffffffffffffffffff166379cc679083856040518363ffffffff1660e01b81526004016108a292919061594a565b600060405180830381600087803b1580156108bd5760006000fd5b505af11580156108d2573d600060003e3d6000fd5b50505050600260009054906101000a900473ffffffffffffffffffffffffffffffffffffffff1673ffffffffffffffffffffffffffffffffffffffff1663b241bbac83836040518363ffffffff1660e01b815260040161093392919061594a565b600060405180830381600087803b15801561094e5760006000fd5b505af1158015610963573d600060003e3d6000fd5b505050508173ffffffffffffffffffffffffffffffffffffffff167fefc56a1a7590fc4eb13cd40b6a2ceee41f3869c6ea818d20d9a18f2d6315ca1882856040516109af929190615e1d565b60405180910390a250505b5b6109c961218563ffffffff16565b5b50565b600160009054906101000a900473ffffffffffffffffffffffffffffffffffffffff1673ffffffffffffffffffffffffffffffffffffffff163373ffffffffffffffffffffffffffffffffffffffff16141515610a2a5760006000fd5b600160006101000a81549073ffffffffffffffffffffffffffffffffffffffff021916905580600060006101000a81548173ffffffffffffffffffffffffffffffffffffffff021916908373ffffffffffffffffffffffffffffffffffffffff160217905550600060009054906101000a900473ffffffffffffffffffffffffffffffffffffffff1673ffffffffffffffffffffffffffffffffffffffff16639624e83e6040518163ffffffff1660e01b815260040160206040518083038186803b158015610af95760006000fd5b505afa158015610b0e573d600060003e3d6000fd5b505050506040513d601f19601f82011682018060405250810190610b329190615242565b600260006101000a81548173ffffffffffffffffffffffffffffffffffffffff021916908373ffffffffffffffffffffffffffffffffffffffff160217905550600060009054906101000a900473ffffffffffffffffffffffffffffffffffffffff1673ffffffffffffffffffffffffffffffffffffffff1663323741746040518163ffffffff1660e01b815260040160206040518083038186803b158015610bdb5760006000fd5b505afa158015610bf0573d600060003e3d6000fd5b505050506040513d601f19601f82011682018060405250810190610c149190615290565b600360006101000a81548173ffffffffffffffffffffffffffffffffffffffff021916908373ffffffffffffffffffffffffffffffffffffffff160217905550600060009054906101000a900473ffffffffffffffffffffffffffffffffffffffff1673ffffffffffffffffffffffffffffffffffffffff1663d478b0876040518163ffffffff1660e01b815260040160206040518083038186803b158015610cbd5760006000fd5b505afa158015610cd2573d600060003e3d6000fd5b505050506040513d601f19601f82011682018060405250810190610cf6919061532c565b600460006101000a81548173ffffffffffffffffffffffffffffffffffffffff021916908373ffffffffffffffffffffffffffffffffffffffff160217905550610d4461221963ffffffff16565b8073ffffffffffffffffffffffffffffffffffffffff167f908408e307fc569b417f6cbec5d5a06f44a0a505ac0479b47d421a4b2fd6a1e660405160405180910390a25b50565b600b60149054906101000a900463ffffffff1681565b600b60009054906101000a900473ffffffffffffffffffffffffffffffffffffffff1681565b6000610dd761200b63ffffffff16565b610de561275263ffffffff16565b600034111515610e2a576040517f08c379a0000000000000000000000000000000000000000000000000000000008152600401610e2190615c20565b60405180910390fd5b600a60009054906101000a900473ffffffffffffffffffffffffffffffffffffffff1673ffffffffffffffffffffffffffffffffffffffff1663755edd17336040518263ffffffff1660e01b8152600401610e85919061588b565b602060405180830381600087803b158015610ea05760006000fd5b505af1158015610eb5573d600060003e3d6000fd5b505050506040513d601f19601f82011682018060405250810190610ed991906155c6565b90508050610ee5615047565b8281610140019063ffffffff16908163ffffffff1681526020015050610f3d610f1e8367ffffffffffffffff168361284763ffffffff16565b83610f3087612d1d909063ffffffff16565b6000612dc663ffffffff16565b8167ffffffffffffffff163373ffffffffffffffffffffffffffffffffffffffff167f3bac2cc5a46c2a400f0a6b532080f052814635a76bccdecf39397718b2d554dd60405160405180910390a3505b5b610f9c61218563ffffffff16565b5b92915050565b60076000505481565b610fba611f2c63ffffffff16565b806009600050819090905550670de0b6b3a764000060096000505411151515610fe35760006000fd5b604051610fef90615832565b60405180910390207f3a64504f0bc0c335e2aecb78638a257e0351a3fe0370861fd54ee4190b920933826040516110269190615e0b565b60405180910390a25b5b50565b600060149054906101000a900460ff1681565b61105461200b63ffffffff16565b61106261275263ffffffff16565b61111f600a60009054906101000a900473ffffffffffffffffffffffffffffffffffffffff1673ffffffffffffffffffffffffffffffffffffffff1663430c208133876040518363ffffffff1660e01b81526004016110c2929190615911565b60206040518083038186803b1580156110db5760006000fd5b505afa1580156110f0573d600060003e3d6000fd5b505050506040513d601f19601f8201168201806040525081019061111491906151d2565b61350f63ffffffff16565b60006111e88567ffffffffffffffff16600260009054906101000a900473ffffffffffffffffffffffffffffffffffffffff1673ffffffffffffffffffffffffffffffffffffffff16630f85fc5a886040518263ffffffff1660e01b815260040161118a9190615e66565b6101a06040518083038186803b1580156111a45760006000fd5b505afa1580156111b9573d600060003e3d6000fd5b505050506040513d601f19601f820116820180604052508101906111dd91906153c8565b61284763ffffffff16565b90508181610140019063ffffffff16908163ffffffff168152602001505061121881868686612dc663ffffffff16565b505b5b61122961218563ffffffff16565b5b50505050565b61123e61200b63ffffffff16565b61124c6120ea63ffffffff16565b611309600a60009054906101000a900473ffffffffffffffffffffffffffffffffffffffff1673ffffffffffffffffffffffffffffffffffffffff1663430c208133856040518363ffffffff1660e01b81526004016112ac929190615911565b60206040518083038186803b1580156112c55760006000fd5b505afa1580156112da573d600060003e3d6000fd5b505050506040513d601f19601f820116820180604052508101906112fe91906151d2565b61350f63ffffffff16565b60006113d28367ffffffffffffffff16600260009054906101000a900473ffffffffffffffffffffffffffffffffffffffff1673ffffffffffffffffffffffffffffffffffffffff16630f85fc5a866040518263ffffffff1660e01b81526004016113749190615e66565b6101a06040518083038186803b15801561138e5760006000fd5b505afa1580156113a3573d600060003e3d6000fd5b505050506040513d601f19601f820116820180604052508101906113c791906153c8565b61284763ffffffff16565b90508181610140019063ffffffff16908163ffffffff1681526020015050600260009054906101000a900473ffffffffffffffffffffffffffffffffffffffff1673ffffffffffffffffffffffffffffffffffffffff16635a6beaf484836040518363ffffffff1660e01b815260040161144d929190615e82565b600060405180830381600087803b1580156114685760006000fd5b505af115801561147d573d600060003e3d6000fd5b50505050505b5b61149261218563ffffffff16565b5b5050565b6114a5611f2c63ffffffff16565b600060009054906101000a900473ffffffffffffffffffffffffffffffffffffffff1673ffffffffffffffffffffffffffffffffffffffff1663ff0eccf66040518163ffffffff1660e01b815260040160206040518083038186803b15801561150e5760006000fd5b505afa158015611523573d600060003e3d6000fd5b505050506040513d601f19601f8201168201806040525081019061154791906153a1565b600c60006101000a81548173ffffffffffffffffffffffffffffffffffffffff021916908373ffffffffffffffffffffffffffffffffffffffff16021790555061159561355563ffffffff16565b5b5b565b6115a761200b63ffffffff16565b6115b561275263ffffffff16565b6115c76000821161213f63ffffffff16565b60003390506115da61355563ffffffff16565b60006115fc6115ed613f3463ffffffff16565b846140c590919063ffffffff16565b9050600260009054906101000a900473ffffffffffffffffffffffffffffffffffffffff1673ffffffffffffffffffffffffffffffffffffffff16632c73f09e846040518263ffffffff1660e01b81526004016116599190615e0b565b600060405180830381600087803b1580156116745760006000fd5b505af1158015611689573d600060003e3d6000fd5b505050506116e3600360009054906101000a900473ffffffffffffffffffffffffffffffffffffffff1683600260009054906101000a900473ffffffffffffffffffffffffffffffffffffffff16866140eb63ffffffff16565b600b60009054906101000a900473ffffffffffffffffffffffffffffffffffffffff1673ffffffffffffffffffffffffffffffffffffffff1663449a52f883836040518363ffffffff1660e01b815260040161174092919061594a565b600060405180830381600087803b15801561175b5760006000fd5b505af1158015611770573d600060003e3d6000fd5b505050508173ffffffffffffffffffffffffffffffffffffffff167f8fff79b574da9a93d7a5408c2fc00c4a9b2b462321c1659b2fbbb9ff3dd221ff84836040516117bc929190615e1d565b60405180910390a250505b5b6117d661218563ffffffff16565b5b50565b6117e861431663ffffffff16565b6117f661355563ffffffff16565b5b61180561437163ffffffff16565b5b565b600a60009054906101000a900473ffffffffffffffffffffffffffffffffffffffff1681565b61183c61200b63ffffffff16565b61184a61275263ffffffff16565b611907600a60009054906101000a900473ffffffffffffffffffffffffffffffffffffffff1673ffffffffffffffffffffffffffffffffffffffff1663430c208133846040518363ffffffff1660e01b81526004016118aa929190615911565b60206040518083038186803b1580156118c35760006000fd5b505afa1580156118d8573d600060003e3d6000fd5b505050506040513d601f19601f820116820180604052508101906118fc91906151d2565b61350f63ffffffff16565b60006119d08267ffffffffffffffff16600260009054906101000a900473ffffffffffffffffffffffffffffffffffffffff1673ffffffffffffffffffffffffffffffffffffffff16630f85fc5a856040518263ffffffff1660e01b81526004016119729190615e66565b6101a06040518083038186803b15801561198c5760006000fd5b505afa1580156119a1573d600060003e3d6000fd5b505050506040513d601f19601f820116820180604052508101906119c591906153c8565b61284763ffffffff16565b9050600081610140019063ffffffff16908163ffffffff1681526020015050600260009054906101000a900473ffffffffffffffffffffffffffffffffffffffff1673ffffffffffffffffffffffffffffffffffffffff16635a6beaf483836040518363ffffffff1660e01b8152600401611a4c929190615e82565b600060405180830381600087803b158015611a675760006000fd5b505af1158015611a7c573d600060003e3d6000fd5b50505050505b5b611a9161218563ffffffff16565b5b50565b600b60189054906101000a900467ffffffffffffffff1681565b60086000505481565b611ac6611f2c63ffffffff16565b61012c8163ffffffff1610151515611ade5760006000fd5b80600b60146101000a81548163ffffffff021916908363ffffffff160217905550604051611b0b906157d0565b60405180910390207f6293347933ad2997134e224ac8cd2e39908a4a22aeed9af52127b4bbf765297882604051611b429190615e4e565b60405180910390a25b5b50565b7f000000000000000000000000000000000000000000000000000000000000000081565b7f000000000000000000000000000000000000000000000000000000000000000081565b600160009054906101000a900473ffffffffffffffffffffffffffffffffffffffff1681565b6000611bdf611bd0613f3463ffffffff16565b8361438190919063ffffffff16565b9050611be6565b919050565b611bf3615047565b611c0161431663ffffffff16565b600060009054906101000a900473ffffffffffffffffffffffffffffffffffffffff1673ffffffffffffffffffffffffffffffffffffffff16639622cd8f336040518263ffffffff1660e01b8152600401611c5c919061588b565b60006040518083038186803b158015611c755760006000fd5b505afa158015611c8a573d600060003e3d6000fd5b50505050611d558267ffffffffffffffff16600260009054906101000a900473ffffffffffffffffffffffffffffffffffffffff1673ffffffffffffffffffffffffffffffffffffffff16630f85fc5a856040518263ffffffff1660e01b8152600401611cf79190615e66565b6101a06040518083038186803b158015611d115760006000fd5b505afa158015611d26573d600060003e3d6000fd5b505050506040513d601f19601f82011682018060405250810190611d4a91906153c8565b61284763ffffffff16565b9050611d5c565b611d6a61437163ffffffff16565b5b919050565b611d7e611f2c63ffffffff16565b806007600050819090905550670de0b6b3a76400008110151515611da25760006000fd5b604051611dae90615801565b60405180910390207f3a64504f0bc0c335e2aecb78638a257e0351a3fe0370861fd54ee4190b92093382604051611de59190615e0b565b60405180910390a25b5b50565b60096000505481565b600c60009054906101000a900473ffffffffffffffffffffffffffffffffffffffff1681565b60006801000000000000000082101515611ea6576040517f08c379a00000000000000000000000000000000000000000000000000000000081526004018080602001828103825260118152602001807f6d6f7265207468616e203634206269747300000000000000000000000000000081526020015060200191505060405180910390fd5b819050611eae565b919050565b60007f00000000000000000000000000000000000000000000000000000000000000007f000000000000000000000000000000000000000000000000000000000000000067ffffffffffffffff16611f0f6143a763ffffffff16565b67ffffffffffffffff16811515611f2257fe5b0403905080505b90565b600060009054906101000a900473ffffffffffffffffffffffffffffffffffffffff1673ffffffffffffffffffffffffffffffffffffffff163373ffffffffffffffffffffffffffffffffffffffff16141515611fbe576040517f08c379a0000000000000000000000000000000000000000000000000000000008152600401611fb590615b63565b60405180910390fd5b5b565b6001600060146101000a81548160ff0219169083151502179055507f7acc84e34091ae817647a4c49116f5cc07f319078ba80f8f5fde37ea7e25cbd660405160405180910390a15b565b600460009054906101000a900473ffffffffffffffffffffffffffffffffffffffff1673ffffffffffffffffffffffffffffffffffffffff1663e97dcb626040518163ffffffff1660e01b8152600401600060405180830381600087803b1580156120765760006000fd5b505af115801561208b573d600060003e3d6000fd5b505050506002600660005054141515156120da576040517f08c379a00000000000000000000000000000000000000000000000000000000081526004016120d190615be1565b60405180910390fd5b600260066000508190909055505b565b600060149054906101000a900460ff1615151561213c576040517f08c379a000000000000000000000000000000000000000000000000000000000815260040161213390615d42565b60405180910390fd5b5b565b801515612181576040517f08c379a000000000000000000000000000000000000000000000000000000000815260040161217890615ba2565b60405180910390fd5b5b50565b60016006600050819090905550600460009054906101000a900473ffffffffffffffffffffffffffffffffffffffff1673ffffffffffffffffffffffffffffffffffffffff1663e9fad8ee6040518163ffffffff1660e01b8152600401600060405180830381600087803b1580156121fd5760006000fd5b505af1158015612212573d600060003e3d6000fd5b505050505b565b600060009054906101000a900473ffffffffffffffffffffffffffffffffffffffff1673ffffffffffffffffffffffffffffffffffffffff1663a89f51ae6040518163ffffffff1660e01b815260040160206040518083038186803b1580156122825760006000fd5b505afa158015612297573d600060003e3d6000fd5b505050506040513d601f19601f820116820180604052508101906122bb91906152de565b600a60006101000a81548173ffffffffffffffffffffffffffffffffffffffff021916908373ffffffffffffffffffffffffffffffffffffffff160217905550600060009054906101000a900473ffffffffffffffffffffffffffffffffffffffff1673ffffffffffffffffffffffffffffffffffffffff16632cae02696040518163ffffffff1660e01b815260040160206040518083038186803b1580156123645760006000fd5b505afa158015612379573d600060003e3d6000fd5b505050506040513d601f19601f8201168201806040525081019061239d91906152b7565b600b60006101000a81548173ffffffffffffffffffffffffffffffffffffffff021916908373ffffffffffffffffffffffffffffffffffffffff1602179055506000600a60009054906101000a900473ffffffffffffffffffffffffffffffffffffffff1673ffffffffffffffffffffffffffffffffffffffff1663755edd17600260009054906101000a900473ffffffffffffffffffffffffffffffffffffffff166040518263ffffffff1660e01b815260040161245c9190615863565b602060405180830381600087803b1580156124775760006000fd5b505af115801561248c573d600060003e3d6000fd5b505050506040513d601f19601f820116820180604052508101906124b091906155c6565b67ffffffffffffffff161415156124c75760006000fd5b6124cf615047565b600260009054906101000a900473ffffffffffffffffffffffffffffffffffffffff1673ffffffffffffffffffffffffffffffffffffffff16635a6beaf4600061252060008561284763ffffffff16565b6040518363ffffffff1660e01b815260040161253d929190615a7b565b600060405180830381600087803b1580156125585760006000fd5b505af115801561256d573d600060003e3d6000fd5b505050506000604051806080016040528063ef5e1cac60e01b7bffffffffffffffffffffffffffffffffffffffffffffffffffffffff19167bffffffffffffffffffffffffffffffffffffffffffffffffffffffff1916815260200163c433c80a60e01b7bffffffffffffffffffffffffffffffffffffffffffffffffffffffff19167bffffffffffffffffffffffffffffffffffffffffffffffffffffffff191681526020016306972dcd60e01b7bffffffffffffffffffffffffffffffffffffffffffffffffffffffff19167bffffffffffffffffffffffffffffffffffffffffffffffffffffffff19168152602001635a6127a960e01b7bffffffffffffffffffffffffffffffffffffffffffffffffffffffff19167bffffffffffffffffffffffffffffffffffffffffffffffffffffffff191681526020015090506000600090505b8150600481101561274c5760016005600050600084846004811015156126d657fe5b60200201517bffffffffffffffffffffffffffffffffffffffffffffffffffffffff19167bffffffffffffffffffffffffffffffffffffffffffffffffffffffff1916815260200190815260200160002060006101000a81548160ff0219169083151502179055505b80806001019150506126b4565b5050505b565b6127606120ea63ffffffff16565b600060009054906101000a900473ffffffffffffffffffffffffffffffffffffffff1673ffffffffffffffffffffffffffffffffffffffff1663bf86d6906040518163ffffffff1660e01b815260040160206040518083038186803b1580156127c95760006000fd5b505afa1580156127de573d600060003e3d6000fd5b505050506040513d601f19601f8201168201806040525081019061280291906151d2565b151515612844576040517f08c379a000000000000000000000000000000000000000000000000000000000815260040161283b90615aa6565b60405180910390fd5b5b565b61284f615047565b600061285f6143c263ffffffff16565b90506000612872826144b963ffffffff16565b9050600060008560a0015167ffffffffffffffff16146128a45761289f8560a001516144b963ffffffff16565b6128a7565b60005b90508067ffffffffffffffff168267ffffffffffffffff161115156128d157849350505050612d17565b6128df61355563ffffffff16565b600061299386600260009054906101000a900473ffffffffffffffffffffffffffffffffffffffff1673ffffffffffffffffffffffffffffffffffffffff166306ef2d806040518163ffffffff1660e01b815260040160806040518083038186803b15801561294e5760006000fd5b505afa158015612963573d600060003e3d6000fd5b505050506040513d601f19601f8201168201806040525081019061298791906154af565b8661454163ffffffff16565b80925081965050506000811180156129ac575060008714155b15612cc957600073ffffffffffffffffffffffffffffffffffffffff1685610160015173ffffffffffffffffffffffffffffffffffffffff1614158015612a025750600085610180015167ffffffffffffffff16115b15612b33576000612a2b86610180015167ffffffffffffffff16836140c590919063ffffffff16565b9050600060009054906101000a900473ffffffffffffffffffffffffffffffffffffffff1673ffffffffffffffffffffffffffffffffffffffff1663ef7a7cfa876101600151836040518363ffffffff1660e01b8152600401612a8f92919061594a565b600060405180830381600087803b158015612aaa5760006000fd5b505af1158015612abf573d600060003e3d6000fd5b505050506001151586610160015173ffffffffffffffffffffffffffffffffffffffff167f8079a05488a0f375c08504c3ba8b3a1371f5a192b7a141bc9294ef7ad41389d983604051612b129190615e0b565b60405180910390a3612b2d81836146a790919063ffffffff16565b91508150505b6000600a60009054906101000a900473ffffffffffffffffffffffffffffffffffffffff1673ffffffffffffffffffffffffffffffffffffffff16636352211e896040518263ffffffff1660e01b8152600401612b909190615e0b565b60206040518083038186803b158015612ba95760006000fd5b505afa158015612bbe573d600060003e3d6000fd5b505050506040513d601f19601f82011682018060405250810190612be291906151ab565b9050600060009054906101000a900473ffffffffffffffffffffffffffffffffffffffff1673ffffffffffffffffffffffffffffffffffffffff1663ef7a7cfa82846040518363ffffffff1660e01b8152600401612c4192919061594a565b600060405180830381600087803b158015612c5c5760006000fd5b505af1158015612c71573d600060003e3d6000fd5b50505050600015158173ffffffffffffffffffffffffffffffffffffffff167f8079a05488a0f375c08504c3ba8b3a1371f5a192b7a141bc9294ef7ad41389d984604051612cbf9190615e0b565b60405180910390a3505b8267ffffffffffffffff16877fc99ac0d15229fa72f1b0756c0eed4e7ede3d80f4e4e0d308ce7a56d1366b8a03876040015184604051612d0a929190615e1d565b60405180910390a3505050505b92915050565b60007f800000000000000000000000000000000000000000000000000000000000000082101515612db9576040517f08c379a00000000000000000000000000000000000000000000000000000000081526004018080602001828103825260128152602001807f746f6f2062696720666f7220696e74323536000000000000000000000000000081526020015060200191505060405180910390fd5b819050612dc1565b919050565b6000349050600081118015612ddb5750600082115b151515612e1d576040517f08c379a0000000000000000000000000000000000000000000000000000000008152600401612e1490615c5f565b60405180910390fd5b6000612e3082612d1d909063ffffffff16565b90506000811415612e5457612e4c83612d1d909063ffffffff16565b600003905080505b612e73600085141580612e68575060008214155b61213f63ffffffff16565b600084141515613121576000841315612f75576000849050612ea281886040015161473090919063ffffffff16565b8760400190908181526020015050612ebe6143a763ffffffff16565b8760c0019067ffffffffffffffff16908167ffffffffffffffff1681526020015050600260009054906101000a900473ffffffffffffffffffffffffffffffffffffffff1673ffffffffffffffffffffffffffffffffffffffff16632b7c7b11826040518263ffffffff1660e01b8152600401612f3b9190615e0b565b600060405180830381600087803b158015612f565760006000fd5b505af1158015612f6b573d600060003e3d6000fd5b5050505050613120565b60008660400151111515612fbe576040517f08c379a0000000000000000000000000000000000000000000000000000000008152600401612fb590615d03565b60405180910390fd5b612fcc6143a763ffffffff16565b67ffffffffffffffff16612ffd610708610e10018860c0015167ffffffffffffffff166147b990919063ffffffff16565b67ffffffffffffffff16101515613049576040517f08c379a000000000000000000000000000000000000000000000000000000000815260040161304090615b24565b60405180910390fd5b83600003866040015110156130755761306d8660400151612d1d909063ffffffff16565b600003935083505b836000038660400181815103915090908181526020015050600260009054906101000a900473ffffffffffffffffffffffffffffffffffffffff1673ffffffffffffffffffffffffffffffffffffffff16632a7ba1f7856000036040518263ffffffff1660e01b81526004016130eb9190615e0b565b600060405180830381600087803b1580156131065760006000fd5b505af115801561311b573d600060003e3d6000fd5b505050505b5b60008114151561318857600081131561315e5761314b81876020015161473090919063ffffffff16565b8660200190908181526020015050613187565b6131788160000387602001516146a790919063ffffffff16565b86602001909081815260200150505b5b60008660400151141515613212576008600050548660400151101515156131e4576040517f08c379a00000000000000000000000000000000000000000000000000000000081526004016131db90615cc4565b60405180910390fd5b60008112806131f35750600084135b15613211576132108660400151876020015161485663ffffffff16565b5b5b600260009054906101000a900473ffffffffffffffffffffffffffffffffffffffff1673ffffffffffffffffffffffffffffffffffffffff16635a6beaf486886040518363ffffffff1660e01b815260040161326f929190615e82565b600060405180830381600087803b15801561328a5760006000fd5b505af115801561329f573d600060003e3d6000fd5b505050506000841415156133e257600084131561334c57600360009054906101000a900473ffffffffffffffffffffffffffffffffffffffff1673ffffffffffffffffffffffffffffffffffffffff1663449a52f833866040518363ffffffff1660e01b81526004016133139291906158e2565b600060405180830381600087803b15801561332e5760006000fd5b505af1158015613343573d600060003e3d6000fd5b505050506133e1565b600360009054906101000a900473ffffffffffffffffffffffffffffffffffffffff1673ffffffffffffffffffffffffffffffffffffffff166379cc679033866000036040518363ffffffff1660e01b81526004016133ac9291906158e2565b600060405180830381600087803b1580156133c75760006000fd5b505af11580156133dc573d600060003e3d6000fd5b505050505b5b6000811415156134c257600081131561342c57613427600260009054906101000a900473ffffffffffffffffffffffffffffffffffffffff1682614a7163ffffffff16565b6134c1565b600260009054906101000a900473ffffffffffffffffffffffffffffffffffffffff1673ffffffffffffffffffffffffffffffffffffffff16636250216933836000036040518363ffffffff1660e01b815260040161348c9291906158b3565b600060405180830381600087803b1580156134a75760006000fd5b505af11580156134bc573d600060003e3d6000fd5b505050505b5b8467ffffffffffffffff167f0ed8d38fcfdb338f760ae5cf4b84f9ade387db12ea673e89e8da1b25857cc1c185836040516134fe929190615a62565b60405180910390a250505b50505050565b801515613551576040517f08c379a000000000000000000000000000000000000000000000000000000000815260040161354890615b63565b60405180910390fd5b5b50565b6000613565614bf763ffffffff16565b9050600b60189054906101000a900467ffffffffffffffff1667ffffffffffffffff168167ffffffffffffffff161115156135a05750613f32565b6000600b60189054906101000a900467ffffffffffffffff16820390506000600260009054906101000a900473ffffffffffffffffffffffffffffffffffffffff1673ffffffffffffffffffffffffffffffffffffffff166306ef2d806040518163ffffffff1660e01b815260040160806040518083038186803b1580156136285760006000fd5b505afa15801561363d573d600060003e3d6000fd5b505050506040513d601f19601f8201168201806040525081019061366191906154af565b90506000600060009054906101000a900473ffffffffffffffffffffffffffffffffffffffff1673ffffffffffffffffffffffffffffffffffffffff166343f48fbd6040518163ffffffff1660e01b815260040160206040518083038186803b1580156136ce5760006000fd5b505afa1580156136e3573d600060003e3d6000fd5b505050506040513d601f19601f820116820180604052508101906137079190615353565b905060006138c383858473ffffffffffffffffffffffffffffffffffffffff1663a0fc0eda6040518163ffffffff1660e01b815260040160206040518083038186803b1580156137575760006000fd5b505afa15801561376c573d600060003e3d6000fd5b505050506040513d601f19601f82011682018060405250810190613790919061552b565b8573ffffffffffffffffffffffffffffffffffffffff16636d7fa6646040518163ffffffff1660e01b815260040160206040518083038186803b1580156137d75760006000fd5b505afa1580156137ec573d600060003e3d6000fd5b505050506040513d601f19601f8201168201806040525081019061381091906151d2565b600360009054906101000a900473ffffffffffffffffffffffffffffffffffffffff1673ffffffffffffffffffffffffffffffffffffffff166375172a8b6040518163ffffffff1660e01b815260040160206040518083038186803b1580156138795760006000fd5b505afa15801561388e573d600060003e3d6000fd5b505050506040513d601f19601f820116820180604052508101906138b2919061552b565b600960005054614c1d63ffffffff16565b90506000613add8567ffffffffffffffff16610e1067ffffffffffffffff16620151808115156138ef57fe5b0467ffffffffffffffff16613ace600060009054906101000a900473ffffffffffffffffffffffffffffffffffffffff1673ffffffffffffffffffffffffffffffffffffffff16639ec5a8946040518163ffffffff1660e01b815260040160206040518083038186803b1580156139665760006000fd5b505afa15801561397b573d600060003e3d6000fd5b505050506040513d601f19601f8201168201806040525081019061399f919061537a565b73ffffffffffffffffffffffffffffffffffffffff16630a86f1096040518163ffffffff1660e01b815260040160206040518083038186803b1580156139e55760006000fd5b505afa1580156139fa573d600060003e3d6000fd5b505050506040513d601f19601f82011682018060405250810190613a1e919061552b565b600060009054906101000a900473ffffffffffffffffffffffffffffffffffffffff1673ffffffffffffffffffffffffffffffffffffffff1663c375e6ed6040518163ffffffff1660e01b815260040160206040518083038186803b158015613a875760006000fd5b505afa158015613a9c573d600060003e3d6000fd5b505050506040513d601f19601f82011682018060405250810190613ac0919061552b565b6140c590919063ffffffff16565b614e0b9092919063ffffffff16565b9050604051806080016040528083600001518152602001613b0b83876020015161473090919063ffffffff16565b8152602001613b47613b348867ffffffffffffffff168860000151614f0c90919063ffffffff16565b876040015161473090919063ffffffff16565b8152602001836020015181526020015093508350600260009054906101000a900473ffffffffffffffffffffffffffffffffffffffff1673ffffffffffffffffffffffffffffffffffffffff166378efc6b0856040518263ffffffff1660e01b8152600401613bb69190615dda565b600060405180830381600087803b158015613bd15760006000fd5b505af1158015613be6573d600060003e3d6000fd5b5050505085600b60186101000a81548167ffffffffffffffff021916908367ffffffffffffffff160217905550600082606001511115613d6b57600260009054906101000a900473ffffffffffffffffffffffffffffffffffffffff1673ffffffffffffffffffffffffffffffffffffffff16632c73f09e83606001516040518263ffffffff1660e01b8152600401613c7f9190615e0b565b600060405180830381600087803b158015613c9a5760006000fd5b505af1158015613caf573d600060003e3d6000fd5b50505050600360009054906101000a900473ffffffffffffffffffffffffffffffffffffffff1673ffffffffffffffffffffffffffffffffffffffff1663449a52f8600260009054906101000a900473ffffffffffffffffffffffffffffffffffffffff1684606001516040518363ffffffff1660e01b8152600401613d3692919061594a565b600060405180830381600087803b158015613d515760006000fd5b505af1158015613d66573d600060003e3d6000fd5b505050505b600082604001511115613e3057600360009054906101000a900473ffffffffffffffffffffffffffffffffffffffff1673ffffffffffffffffffffffffffffffffffffffff1663449a52f8600360009054906101000a900473ffffffffffffffffffffffffffffffffffffffff1684604001516040518363ffffffff1660e01b8152600401613dfb92919061594a565b600060405180830381600087803b158015613e165760006000fd5b505af1158015613e2b573d600060003e3d6000fd5b505050505b600082608001511115613ed157600360009054906101000a900473ffffffffffffffffffffffffffffffffffffffff1673ffffffffffffffffffffffffffffffffffffffff1663c59fb1ab83608001516040518263ffffffff1660e01b8152600401613e9c9190615e0b565b600060405180830381600087803b158015613eb75760006000fd5b505af1158015613ecc573d600060003e3d6000fd5b505050505b8567ffffffffffffffff167fdfc2183705a66b49f12c66a6d3b2fa5cf3b7c67086e9c6e90d144befc94f436c868660000151876020015188604001518960600151604051613f23959493929190615ead565b60405180910390a25050505050505b565b60006000600260009054906101000a900473ffffffffffffffffffffffffffffffffffffffff1673ffffffffffffffffffffffffffffffffffffffff16637f250c616040518163ffffffff1660e01b815260040160206040518083038186803b158015613fa15760006000fd5b505afa158015613fb6573d600060003e3d6000fd5b505050506040513d601f19601f82011682018060405250810190613fda919061552b565b90506000600b60009054906101000a900473ffffffffffffffffffffffffffffffffffffffff1673ffffffffffffffffffffffffffffffffffffffff166318160ddd6040518163ffffffff1660e01b815260040160206040518083038186803b1580156140475760006000fd5b505afa15801561405c573d600060003e3d6000fd5b505050506040513d601f19601f82011682018060405250810190614080919061552b565b905060008114806140915750600082145b6140ad576140a8828261438190919063ffffffff16565b6140b7565b670de0b6b3a76400005b925050506140c25650505b90565b60006140e08383670de0b6b3a7640000614e0b63ffffffff16565b905080505b92915050565b600060008573ffffffffffffffffffffffffffffffffffffffff166323b872dd60e01b868686604051602401808473ffffffffffffffffffffffffffffffffffffffff1681526020018373ffffffffffffffffffffffffffffffffffffffff1681526020018281526020019350505050604051602081830303815290604052907bffffffffffffffffffffffffffffffffffffffffffffffffffffffff19166020820180517bffffffffffffffffffffffffffffffffffffffffffffffffffffffff83818316178352505050506040518082805190602001908083835b6020831015156141ee57805182525b6020820191506020810190506020830392506141c8565b6001836020036101000a0380198251168184511680821785525050505050509050019150506000604051808303816000865af19150503d8060008114614250576040519150601f19603f3d011682016040523d82523d6000602084013e614255565b606091505b5091509150818015614296575060008151148061429557508080602001905160208110156142835760006000fd5b81019080805190602001909291905050505b5b151561430d576040517f08c379a00000000000000000000000000000000000000000000000000000000081526004018080602001828103825260038152602001807f535446000000000000000000000000000000000000000000000000000000000081526020015060200191505060405180910390fd5b50505b50505050565b600260066000505414151515614361576040517f08c379a000000000000000000000000000000000000000000000000000000000815260040161435890615ae5565b60405180910390fd5b600260066000508190909055505b565b600160066000508190909055505b565b600061439c83670de0b6b3a764000084614e0b63ffffffff16565b905080505b92915050565b60006143ba42611e21909063ffffffff16565b905080505b90565b60006143d26143a763ffffffff16565b905080506000600060009054906101000a900473ffffffffffffffffffffffffffffffffffffffff1673ffffffffffffffffffffffffffffffffffffffff1663585690816040518163ffffffff1660e01b815260040160206040518083038186803b1580156144415760006000fd5b505afa158015614456573d600060003e3d6000fd5b505050506040513d601f19601f8201168201806040525081019061447a91906155c6565b905060008167ffffffffffffffff161180156144a957508167ffffffffffffffff168167ffffffffffffffff16105b156144b45780915081505b505b90565b60006145377f00000000000000000000000000000000000000000000000000000000000000007f000000000000000000000000000000000000000000000000000000000000000067ffffffffffffffff168467ffffffffffffffff1681151561451e57fe5b0467ffffffffffffffff16614faa90919063ffffffff16565b905080505b919050565b614549615047565b6000849150815060008260a0015167ffffffffffffffff16118015614572575060008260400151115b1561464257614598846060015183606001518460400151614e0b9092919063ffffffff16565b826040019090818152602001505061463d6145ca8360a001518567ffffffffffffffff16614faa90919063ffffffff16565b67ffffffffffffffff16610e1067ffffffffffffffff1661462e6145ff866080015189602001516146a790919063ffffffff16565b61461a87600001518a604001516146a790919063ffffffff16565b8760400151614e0b9092919063ffffffff16565b614e0b9092919063ffffffff16565b905080505b836060015182606001909081815260200150508360200151826080019090818152602001505083604001518260000190908181526020015050828260a0019067ffffffffffffffff16908167ffffffffffffffff16815260200150505b935093915050565b60008282840391508111151515614729576040517f08c379a000000000000000000000000000000000000000000000000000000000815260040180806020018281038252600d8152602001807f7375622d756e646572666c6f770000000000000000000000000000000000000081526020015060200191505060405180910390fd5b5b92915050565b600082828401915081101515156147b2576040517f08c379a000000000000000000000000000000000000000000000000000000000815260040180806020018281038252600c8152602001807f6164642d6f766572666c6f77000000000000000000000000000000000000000081526020015060200191505060405180910390fd5b5b92915050565b60008267ffffffffffffffff1682840191508167ffffffffffffffff161015151561484f576040517f08c379a000000000000000000000000000000000000000000000000000000000815260040180806020018281038252600c8152602001807f6164642d6f766572666c6f77000000000000000000000000000000000000000081526020015060200191505060405180910390fd5b5b92915050565b6000600c60009054906101000a900473ffffffffffffffffffffffffffffffffffffffff169050600073ffffffffffffffffffffffffffffffffffffffff168173ffffffffffffffffffffffffffffffffffffffff1614156148b85750614a6d565b6000600060009054906101000a900473ffffffffffffffffffffffffffffffffffffffff1673ffffffffffffffffffffffffffffffffffffffff1663d3419bf36040518163ffffffff1660e01b815260040160206040518083038186803b1580156149235760006000fd5b505afa158015614938573d600060003e3d6000fd5b505050506040513d601f19601f8201168201806040525081019061495c9190615305565b73ffffffffffffffffffffffffffffffffffffffff1663d97e640083600b60149054906101000a900463ffffffff166040518363ffffffff1660e01b81526004016149a8929190615a2d565b60206040518083038186803b1580156149c15760006000fd5b505afa1580156149d6573d600060003e3d6000fd5b505050506040513d601f19601f820116820180604052508101906149fa919061552b565b9050614a1484600760005054614f0c90919063ffffffff16565b614a278285614f0c90919063ffffffff16565b10151515614a6a576040517f08c379a0000000000000000000000000000000000000000000000000000000008152600401614a6190615d81565b60405180910390fd5b50505b5050565b60008273ffffffffffffffffffffffffffffffffffffffff1682600067ffffffffffffffff81118015614aa45760006000fd5b506040519080825280601f01601f191660200182016040528015614ad75781602001600182028036833780820191505090505b506040518082805190602001908083835b602083101515614b0e57805182525b602082019150602081019050602083039250614ae8565b6001836020036101000a03801982511681845116808217855250505050505090500191505060006040518083038185875af1925050503d8060008114614b70576040519150601f19603f3d011682016040523d82523d6000602084013e614b75565b606091505b50509050801515614bf1576040517f08c379a00000000000000000000000000000000000000000000000000000000081526004018080602001828103825260038152602001807f535445000000000000000000000000000000000000000000000000000000000081526020015060200191505060405180910390fd5b505b5050565b6000614c15614c0a6143c263ffffffff16565b6144b963ffffffff16565b905080505b90565b614c256150fb565b6000851415614c5c578660000151816000019090818152602001505086606001518160200190908181526020015050809050614e01565b6000614ca28767ffffffffffffffff16610e1067ffffffffffffffff166301e13380811515614c8757fe5b0467ffffffffffffffff1688614e0b9092919063ffffffff16565b9050600085614ccb57614cc682670de0b6b3a76400006146a790919063ffffffff16565b614ce7565b614ce682670de0b6b3a764000061473090919063ffffffff16565b5b9050614d00818a606001516140c590919063ffffffff16565b8360200190908181526020015050614d2f83602001518a606001518b60000151614e0b9092919063ffffffff16565b8360000190908181526020015050886000015183600001511115614d9857600089600001518460000151039050614d6f85826140c590919063ffffffff16565b846060019090818152602001505083606001518103846040019090818152602001505050614dfe565b886000015183600001511015614dfd57600083600001518a600001510390508581101515614deb578960000151846000019090818152602001505089606001518460200190908181526020015050614dfb565b8084608001909081815260200150505b505b5b50505b9695505050505050565b6000600060006000198587098587029250828110838203039150506000811415614e4e57600084111515614e3f5760006000fd5b83820492508292505050614f05565b8084111515614e5d5760006000fd5b6000848688099050828111820391508083039250600085866000031690508086049550808404935060018182600003040190508083028417935083506000600287600302189050808702600203810290508050808702600203810290508050808702600203810290508050808702600203810290508050808702600203810290508050808702600203810290508050808502955085508595505050505050614f055650505050505b9392505050565b60006000821480614f2c57508282838502925082811515614f2957fe5b04145b1515614fa3576040517f08c379a000000000000000000000000000000000000000000000000000000000815260040180806020018281038252600c8152602001807f6d756c2d6f766572666c6f77000000000000000000000000000000000000000081526020015060200191505060405180910390fd5b5b92915050565b60008267ffffffffffffffff1682840391508167ffffffffffffffff1611151515615040576040517f08c379a000000000000000000000000000000000000000000000000000000000815260040180806020018281038252600d8152602001807f7375622d756e646572666c6f770000000000000000000000000000000000000081526020015060200191505060405180910390fd5b5b92915050565b604051806101a001604052806000815260200160008152602001600081526020016000815260200160008152602001600067ffffffffffffffff168152602001600067ffffffffffffffff168152602001600060020b8152602001600015158152602001600067ffffffffffffffff168152602001600063ffffffff168152602001600073ffffffffffffffffffffffffffffffffffffffff168152602001600067ffffffffffffffff1681526020015090565b6040518060a001604052806000815260200160008152602001600081526020016000815260200160008152602001509056615f6f565b60008151905061514081615f10565b5b919050565b6000815190508015158114151561515d5760006000fd5b5b919050565b6000815190508060020b8114151561517b5760006000fd5b5b919050565b60008151905061519081615f39565b5b919050565b6000815190506151a581615f52565b5b919050565b6000602082840312156151bc578081fd5b81516151c781615f10565b809150505b92915050565b6000602082840312156151e3578081fd5b6151ec82615146565b90505b92915050565b600060208284031215615206578081fd5b81357fffffffff00000000000000000000000000000000000000000000000000000000811681141515615237578182fd5b809150505b92915050565b600060208284031215615253578081fd5b815161525e81615f10565b809150505b92915050565b60006020828403121561527a578081fd5b813561528581615f10565b809150505b92915050565b6000602082840312156152a1578081fd5b81516152ac81615f10565b809150505b92915050565b6000602082840312156152c8578081fd5b81516152d381615f10565b809150505b92915050565b6000602082840312156152ef578081fd5b81516152fa81615f10565b809150505b92915050565b600060208284031215615316578081fd5b815161532181615f10565b809150505b92915050565b60006020828403121561533d578081fd5b815161534881615f10565b809150505b92915050565b600060208284031215615364578081fd5b815161536f81615f10565b809150505b92915050565b60006020828403121561538b578081fd5b815161539681615f10565b809150505b92915050565b6000602082840312156153b2578081fd5b81516153bd81615f10565b809150505b92915050565b60006101a08083850312156153db578182fd5b6153e481615ee5565b9050825181526020830151602082015260408301516040820152606083015160608201526080830151608082015261541e60a08401615196565b60a082015261542f60c08401615196565b60c082015261544060e08401615163565b60e0820152610100615453818501615146565b8183015250610120615466818501615196565b8183015250610140615479818501615181565b818301525061016061548c818501615131565b818301525061018061549f818501615196565b8183015250809150505b92915050565b6000608082840312156154c0578081fd5b6040516080810181811067ffffffffffffffff821117156154dd57fe5b806040525082518152602083015160208201526040830151604082015260608301516060820152809150505b92915050565b600060208284031215615520578081fd5b813590505b92915050565b60006020828403121561553c578081fd5b815190505b92915050565b600060006040838503121561555a578081fd5b82359150602083013561556c81615f39565b809150505b9250929050565b600060208284031215615589578081fd5b813561559481615f39565b809150505b92915050565b6000602082840312156155b0578081fd5b81356155bb81615f52565b809150505b92915050565b6000602082840312156155d7578081fd5b81516155e281615f52565b809150505b92915050565b600060006000600060808587031215615604578182fd5b843561560f81615f52565b809450506020850135925060408501359150606085013561562f81615f39565b809150505b92959194509250565b6000600060408385031215615650578182fd5b823561565b81615f52565b80925050602083013561566d81615f39565b809150505b9250929050565b73ffffffffffffffffffffffffffffffffffffffff811682525b5050565b80151582525b5050565b8060020b82525b5050565b805182526020810151602083015260408101516040830152606081015160608301526080810151608083015260a08101516156ea60a084018261578d565b5060c08101516156fd60c084018261578d565b5060e081015161571060e08401826156a1565b506101008082015161572482850182615697565b5050610120808201516157398285018261578d565b50506101408082015161574e8285018261577f565b50506101608082015161576382850182615679565b5050610180808201516157788285018261578d565b50505b5050565b63ffffffff811682525b5050565b67ffffffffffffffff811682525b5050565b60007f6d696e506f736974696f6e53697a6500000000000000000000000000000000008252600f820190505b919050565b60007f747761704475726174696f6e00000000000000000000000000000000000000008252600c820190505b919050565b60007f636f6c6c61746572616c697a6174696f6e526571756972656d656e74000000008252601c820190505b919050565b60007f696e746572657374506f7274696f6e546f4c656e64657273000000000000000082526018820190505b919050565b600060208201905073ffffffffffffffffffffffffffffffffffffffff831682525b92915050565b600060208201905073ffffffffffffffffffffffffffffffffffffffff831682525b92915050565b600060408201905073ffffffffffffffffffffffffffffffffffffffff841682528260208301525b9392505050565b600060408201905073ffffffffffffffffffffffffffffffffffffffff841682528260208301525b9392505050565b600060408201905073ffffffffffffffffffffffffffffffffffffffff8416825267ffffffffffffffff831660208301525b9392505050565b600060408201905073ffffffffffffffffffffffffffffffffffffffff841682528260208301525b9392505050565b600060208201905082151582525b92915050565b600060208201905073ffffffffffffffffffffffffffffffffffffffff831682525b92915050565b600060208201905073ffffffffffffffffffffffffffffffffffffffff831682525b92915050565b600060208201905073ffffffffffffffffffffffffffffffffffffffff831682525b92915050565b600060208201905073ffffffffffffffffffffffffffffffffffffffff831682525b92915050565b600060408201905073ffffffffffffffffffffffffffffffffffffffff8416825263ffffffff831660208301525b9392505050565b60006040820190508382528260208301525b9392505050565b60006101c08201905067ffffffffffffffff84168252615a9e60208301846156ac565b5b9392505050565b600060208252601160208301527f50726f746f636f6c2073687574646f776e00000000000000000000000000000060408301526060820190505b919050565b600060208252600d60208301527f4c43205265656e7472616e63790000000000000000000000000000000000000060408301526060820190505b919050565b600060208252600f60208301527f4e6f20666c61736820626f72726f77000000000000000000000000000000000060408301526060820190505b919050565b600060208252600e60208301527f4e6f7420417574686f72697a656400000000000000000000000000000000000060408301526060820190505b919050565b600060208252600460208301527f4e6f6f700000000000000000000000000000000000000000000000000000000060408301526060820190505b919050565b600060208252600d60208301527f4c50205265656e7472616e63790000000000000000000000000000000000000060408301526060820190505b919050565b600060208252601360208301527f4d7573742061646420636f6c6c61746572616c0000000000000000000000000060408301526060820190505b919050565b600060208252602360208301527f43616e7420696e637265617365202620646563726561736520636f6c6c61746560408301527f72616c000000000000000000000000000000000000000000000000000000000060608301526080820190505b919050565b600060208252601260208301527f506f736974696f6e20746f6f20736d616c6c000000000000000000000000000060408301526060820190505b919050565b600060208252601360208301527f4e6f206465627420746f20706179206261636b0000000000000000000000000060408301526060820190505b919050565b600060208252601360208301527f436f6e74726163742069732073746f707065640000000000000000000000000060408301526060820190505b919050565b600060208252601760208301527f496e73756666696369656e7420636f6c6c61746572616c00000000000000000060408301526060820190505b919050565b60006101a082019050615dd382846156ac565b5b92915050565b6000608082019050825182526020830151602083015260408301516040830152606083015160608301525b92915050565b60006020820190508282525b92915050565b60006040820190508382528260208301525b9392505050565b600060208201905063ffffffff831682525b92915050565b600060208201905063ffffffff831682525b92915050565b600060208201905067ffffffffffffffff831682525b92915050565b60006101c08201905067ffffffffffffffff84168252615ea560208301846156ac565b5b9392505050565b600060a08201905067ffffffffffffffff871682528560208301528460408301528360608301528260808301525b9695505050505050565b6000604051905081810181811067ffffffffffffffff82111715615f0557fe5b80604052505b919050565b73ffffffffffffffffffffffffffffffffffffffff811681141515615f355760006000fd5b5b50565b63ffffffff811681141515615f4e5760006000fd5b5b50565b67ffffffffffffffff811681141515615f6b5760006000fd5b5b50565bfea2646970667358221220607e195cbab855bb0aade90bf459a12aa9e26b9dc7eac86b6a03ae8947484d7564736f6c63430007060033",
  "linkReferences": {},
  "deployedLinkReferences": {}
}