{
  "_format": "hh-sol-artifact-1",
  "contractName": "Market",
  "sourceName": "contracts/core/logic/Market.sol",
  "abi": [
    {
      "inputs": [],
      "stateMutability": "nonpayable",
      "type": "constructor"
    },
    {
      "anonymous": false,
      "inputs": [
        {
          "indexed": true,
          "internalType": "address",
          "name": "borrower",
          "type": "address"
        },
        {
          "indexed": true,
          "internalType": "uint64",
          "name": "positionID",
          "type": "uint64"
        },
        {
          "indexed": false,
          "internalType": "uint256",
          "name": "borrowAmount",
          "type": "uint256"
        },
        {
          "indexed": false,
          "internalType": "uint256",
          "name": "collateralIncrease",
          "type": "uint256"
        }
      ],
      "name": "Borrow",
      "type": "event"
    },
    {
      "anonymous": false,
      "inputs": [
        {
          "indexed": true,
          "internalType": "address",
          "name": "governor",
          "type": "address"
        }
      ],
      "name": "Initialized",
      "type": "event"
    },
    {
      "anonymous": false,
      "inputs": [
        {
          "indexed": true,
          "internalType": "uint64",
          "name": "period",
          "type": "uint64"
        },
        {
          "indexed": false,
          "internalType": "uint64",
          "name": "periods",
          "type": "uint64"
        },
        {
          "indexed": false,
          "internalType": "uint256",
          "name": "oldDebt",
          "type": "uint256"
        },
        {
          "indexed": false,
          "internalType": "uint256",
          "name": "newDebt",
          "type": "uint256"
        },
        {
          "indexed": false,
          "internalType": "uint256",
          "name": "rewardCount",
          "type": "uint256"
        }
      ],
      "name": "InterestAccrued",
      "type": "event"
    },
    {
      "anonymous": false,
      "inputs": [
        {
          "indexed": true,
          "internalType": "address",
          "name": "account",
          "type": "address"
        },
        {
          "indexed": false,
          "internalType": "uint256",
          "name": "coinCount",
          "type": "uint256"
        },
        {
          "indexed": false,
          "internalType": "uint256",
          "name": "lendTokenCount",
          "type": "uint256"
        }
      ],
      "name": "Lend",
      "type": "event"
    },
    {
      "anonymous": false,
      "inputs": [
        {
          "indexed": true,
          "internalType": "address",
          "name": "creator",
          "type": "address"
        },
        {
          "indexed": true,
          "internalType": "uint64",
          "name": "positionID",
          "type": "uint64"
        }
      ],
      "name": "NewPositionCreated",
      "type": "event"
    },
    {
      "anonymous": false,
      "inputs": [
        {
          "indexed": true,
          "internalType": "string",
          "name": "paramName",
          "type": "string"
        },
        {
          "indexed": false,
          "internalType": "uint256",
          "name": "value",
          "type": "uint256"
        }
      ],
      "name": "ParameterUpdated",
      "type": "event"
    },
    {
      "anonymous": false,
      "inputs": [
        {
          "indexed": true,
          "internalType": "string",
          "name": "paramName",
          "type": "string"
        },
        {
          "indexed": false,
          "internalType": "uint64",
          "name": "value",
          "type": "uint64"
        }
      ],
      "name": "ParameterUpdated64",
      "type": "event"
    },
    {
      "anonymous": false,
      "inputs": [
        {
          "indexed": true,
          "internalType": "string",
          "name": "paramName",
          "type": "string"
        },
        {
          "indexed": false,
          "internalType": "uint8",
          "name": "key",
          "type": "uint8"
        },
        {
          "indexed": false,
          "internalType": "uint256",
          "name": "value",
          "type": "uint256"
        }
      ],
      "name": "ParameterUpdatedMapping",
      "type": "event"
    },
    {
      "anonymous": false,
      "inputs": [
        {
          "indexed": true,
          "internalType": "address",
          "name": "caller",
          "type": "address"
        },
        {
          "indexed": true,
          "internalType": "uint64",
          "name": "positionID",
          "type": "uint64"
        },
        {
          "indexed": false,
          "internalType": "uint256",
          "name": "debtPaidBack",
          "type": "uint256"
        },
        {
          "indexed": false,
          "internalType": "uint256",
          "name": "collateralWithdrawn",
          "type": "uint256"
        }
      ],
      "name": "Payback",
      "type": "event"
    },
    {
      "anonymous": false,
      "inputs": [
        {
          "indexed": true,
          "internalType": "uint256",
          "name": "positionID",
          "type": "uint256"
        },
        {
          "indexed": true,
          "internalType": "uint64",
          "name": "period",
          "type": "uint64"
        },
        {
          "indexed": false,
          "internalType": "uint64",
          "name": "periods",
          "type": "uint64"
        },
        {
          "indexed": false,
          "internalType": "uint256",
          "name": "debtAfter",
          "type": "uint256"
        },
        {
          "indexed": false,
          "internalType": "uint256",
          "name": "govRewards",
          "type": "uint256"
        }
      ],
      "name": "PositionUpdated",
      "type": "event"
    },
    {
      "anonymous": false,
      "inputs": [],
      "name": "Stopped",
      "type": "event"
    },
    {
      "anonymous": false,
      "inputs": [
        {
          "indexed": true,
          "internalType": "address",
          "name": "account",
          "type": "address"
        },
        {
          "indexed": false,
          "internalType": "uint256",
          "name": "coinCount",
          "type": "uint256"
        },
        {
          "indexed": false,
          "internalType": "uint256",
          "name": "lendTokenCount",
          "type": "uint256"
        }
      ],
      "name": "Unlend",
      "type": "event"
    },
    {
      "inputs": [],
      "name": "accrueInterest",
      "outputs": [],
      "stateMutability": "nonpayable",
      "type": "function"
    },
    {
      "inputs": [
        {
          "internalType": "uint64",
          "name": "positionID",
          "type": "uint64"
        },
        {
          "internalType": "uint256",
          "name": "borrowCount",
          "type": "uint256"
        },
        {
          "internalType": "uint256",
          "name": "collateralCount",
          "type": "uint256"
        }
      ],
      "name": "borrow",
      "outputs": [],
      "stateMutability": "nonpayable",
      "type": "function"
    },
    {
      "inputs": [],
      "name": "collateralizationRequirement",
      "outputs": [
        {
          "internalType": "uint256",
          "name": "",
          "type": "uint256"
        }
      ],
      "stateMutability": "view",
      "type": "function"
    },
    {
      "inputs": [],
      "name": "createNewPosition",
      "outputs": [
        {
          "internalType": "uint64",
          "name": "positionID",
          "type": "uint64"
        }
      ],
      "stateMutability": "nonpayable",
      "type": "function"
    },
    {
      "inputs": [],
      "name": "dsrPercentage",
      "outputs": [
        {
          "internalType": "uint256",
          "name": "",
          "type": "uint256"
        }
      ],
      "stateMutability": "view",
      "type": "function"
    },
    {
      "inputs": [],
      "name": "governor",
      "outputs": [
        {
          "internalType": "contract IGovernor",
          "name": "",
          "type": "address"
        }
      ],
      "stateMutability": "view",
      "type": "function"
    },
    {
      "inputs": [
        {
          "internalType": "contract IGovernor",
          "name": "governor_",
          "type": "address"
        }
      ],
      "name": "init",
      "outputs": [],
      "stateMutability": "nonpayable",
      "type": "function"
    },
    {
      "inputs": [
        {
          "internalType": "uint256",
          "name": "coinCount",
          "type": "uint256"
        }
      ],
      "name": "lend",
      "outputs": [],
      "stateMutability": "nonpayable",
      "type": "function"
    },
    {
      "inputs": [
        {
          "internalType": "uint256",
          "name": "lendTokenCount",
          "type": "uint256"
        }
      ],
      "name": "lendTokenValue",
      "outputs": [
        {
          "internalType": "uint256",
          "name": "coinCount",
          "type": "uint256"
        }
      ],
      "stateMutability": "view",
      "type": "function"
    },
    {
      "inputs": [],
      "name": "maxDebt",
      "outputs": [
        {
          "internalType": "uint256",
          "name": "",
          "type": "uint256"
        }
      ],
      "stateMutability": "view",
      "type": "function"
    },
    {
      "inputs": [],
      "name": "minBorrowTime",
      "outputs": [
        {
          "internalType": "uint64",
          "name": "",
          "type": "uint64"
        }
      ],
      "stateMutability": "view",
      "type": "function"
    },
    {
      "inputs": [],
      "name": "minCollateralToDebtRatio",
      "outputs": [
        {
          "internalType": "uint256",
          "name": "",
          "type": "uint256"
        }
      ],
      "stateMutability": "view",
      "type": "function"
    },
    {
      "inputs": [],
      "name": "minPositionSize",
      "outputs": [
        {
          "internalType": "uint256",
          "name": "",
          "type": "uint256"
        }
      ],
      "stateMutability": "view",
      "type": "function"
    },
    {
      "inputs": [
        {
          "internalType": "uint64",
          "name": "positionID",
          "type": "uint64"
        },
        {
          "internalType": "uint256",
          "name": "coinsToPayBack",
          "type": "uint256"
        },
        {
          "internalType": "uint256",
          "name": "collateralToWithdraw",
          "type": "uint256"
        }
      ],
      "name": "payback",
      "outputs": [],
      "stateMutability": "nonpayable",
      "type": "function"
    },
    {
      "inputs": [],
      "name": "periodLength",
      "outputs": [
        {
          "internalType": "uint64",
          "name": "",
          "type": "uint64"
        }
      ],
      "stateMutability": "view",
      "type": "function"
    },
    {
      "inputs": [],
      "name": "periodsBehind",
      "outputs": [
        {
          "internalType": "uint256",
          "name": "periods",
          "type": "uint256"
        }
      ],
      "stateMutability": "view",
      "type": "function"
    },
    {
      "inputs": [],
      "name": "protocolInitialized",
      "outputs": [],
      "stateMutability": "nonpayable",
      "type": "function"
    },
    {
      "inputs": [
        {
          "internalType": "uint256",
          "name": "requirement",
          "type": "uint256"
        }
      ],
      "name": "setCollateralizationRequirement",
      "outputs": [],
      "stateMutability": "nonpayable",
      "type": "function"
    },
    {
      "inputs": [
        {
          "internalType": "uint256",
          "name": "percentage",
          "type": "uint256"
        }
      ],
      "name": "setDsrPercentage",
      "outputs": [],
      "stateMutability": "nonpayable",
      "type": "function"
    },
    {
      "inputs": [
        {
          "internalType": "uint256",
          "name": "debt",
          "type": "uint256"
        }
      ],
      "name": "setMaxDebt",
      "outputs": [],
      "stateMutability": "nonpayable",
      "type": "function"
    },
    {
      "inputs": [
        {
          "internalType": "uint64",
          "name": "time",
          "type": "uint64"
        }
      ],
      "name": "setMinBorrowTime",
      "outputs": [],
      "stateMutability": "nonpayable",
      "type": "function"
    },
    {
      "inputs": [
        {
          "internalType": "uint256",
          "name": "size",
          "type": "uint256"
        }
      ],
      "name": "setMinPositionSize",
      "outputs": [],
      "stateMutability": "nonpayable",
      "type": "function"
    },
    {
      "inputs": [],
      "name": "stop",
      "outputs": [],
      "stateMutability": "nonpayable",
      "type": "function"
    },
    {
      "inputs": [],
      "name": "systemAccrueInterest",
      "outputs": [],
      "stateMutability": "nonpayable",
      "type": "function"
    },
    {
      "inputs": [
        {
          "internalType": "uint64",
          "name": "positionID",
          "type": "uint64"
        }
      ],
      "name": "systemGetUpdatedPosition",
      "outputs": [
        {
          "components": [
            {
              "internalType": "uint256",
              "name": "startCumulativeDebt",
              "type": "uint256"
            },
            {
              "internalType": "uint256",
              "name": "collateral",
              "type": "uint256"
            },
            {
              "internalType": "uint256",
              "name": "debt",
              "type": "uint256"
            },
            {
              "internalType": "uint256",
              "name": "startDebtExchangeRate",
              "type": "uint256"
            },
            {
              "internalType": "uint256",
              "name": "startCNPRewards",
              "type": "uint256"
            },
            {
              "internalType": "uint64",
              "name": "collateralizationBandIndex",
              "type": "uint64"
            },
            {
              "internalType": "uint64",
              "name": "lastUpdateTime",
              "type": "uint64"
            },
            {
              "internalType": "uint64",
              "name": "lastBorrowTime",
              "type": "uint64"
            },
            {
              "internalType": "uint32",
              "name": "collateralizationBand",
              "type": "uint32"
            }
          ],
          "internalType": "struct IAccounting.DebtPosition",
          "name": "position",
          "type": "tuple"
        }
      ],
      "stateMutability": "nonpayable",
      "type": "function"
    },
    {
      "inputs": [
        {
          "internalType": "uint256",
          "name": "price",
          "type": "uint256"
        }
      ],
      "name": "systemNotifyCollateralPriceUpdated",
      "outputs": [],
      "stateMutability": "nonpayable",
      "type": "function"
    },
    {
      "inputs": [
        {
          "internalType": "uint256",
          "name": "lendTokenCount",
          "type": "uint256"
        }
      ],
      "name": "unlend",
      "outputs": [],
      "stateMutability": "nonpayable",
      "type": "function"
    },
    {
      "inputs": [
        {
          "internalType": "uint64",
          "name": "positionID",
          "type": "uint64"
        }
      ],
      "name": "updatePositionAndRegisterRewards",
      "outputs": [],
      "stateMutability": "nonpayable",
      "type": "function"
    }
  ],
  "bytecode": "0x60c060405269d3c21bcecceda10000006007556714d1120d7b160000600855680ad78ebc5ac6200000600a556706f05b59d3b20000600b553480156200004457600080fd5b5061088e67ffffffffffffffff166301e13380816200005f57fe5b0433600560006101000a81548173ffffffffffffffffffffffffffffffffffffffff021916908373ffffffffffffffffffffffffffffffffffffffff16021790555060016006819055508067ffffffffffffffff166001108015620000d157506301e285008167ffffffffffffffff16105b62000144576040517f08c379a000000000000000000000000000000000000000000000000000000000815260040180806020018281038252601c8152602001807f54696d653a20496e76616c696420706572696f64206c656e6774682e0000000081525060200191505060405180910390fd5b60018167ffffffffffffffff16620001616200024460201b60201c565b67ffffffffffffffff16816200017357fe5b040367ffffffffffffffff1660a08167ffffffffffffffff1660c01b815250508067ffffffffffffffff1660808167ffffffffffffffff1660c01b815250505061088e67ffffffffffffffff166301e1338081620001cd57fe5b0467ffffffffffffffff16600667ffffffffffffffff166201518081620001f057fe5b0467ffffffffffffffff16146200023e576040517f08c379a0000000000000000000000000000000000000000000000000000000008152600401620002359062000310565b60405180910390fd5b62000343565b60006200025c426200026160201b62003b351760201c565b905090565b6000680100000000000000008210620002c6576040517f08c379a00000000000000000000000000000000000000000000000000000000081526004018080602001828103825260268152602001806200763d6026913960400191505060405180910390fd5b819050919050565b6000620002dd60128362000332565b91507f506572696f642074696d65206572726f722e00000000000000000000000000006000830152602082019050919050565b600060208201905081810360008301526200032b81620002ce565b9050919050565b600082825260208201905092915050565b60805160c01c60a05160c01c6172b26200038b60003980614fba52806150b352806153cd525080612f5e52806143565280614fdb52806150d4528061540652506172b26000f3fe608060405234801561001057600080fd5b50600436106101c45760003560e01c80637678293b116100f9578063bd3aeef911610097578063d2ca211511610071578063d2ca211514610447578063ea9f348a14610465578063eb6843ce14610481578063ef5e1cac146104b1576101c4565b8063bd3aeef9146103ef578063c2cb02881461040d578063d0064c0014610429576101c4565b8063a6aa57ce116100d3578063a6aa57ce1461038f578063a6afed95146103ab578063ad51d9ff146103b5578063bb8313c2146103d1576101c4565b80637678293b1461035d5780637f08a55a146103675780639fb5dd8f14610371576101c4565b80633f616330116101665780636768392f116101405780636768392f146102e95780636ea1cbb8146103055780637140da0e1461032357806371902bf314610341576101c4565b80633f616330146102915780635658c012146102af5780636526941b146102cd576101c4565b80630c340a24116101a25780630c340a241461021f578063197b1bf51461023d57806319ab453c146102595780631cc76c0d14610275576101c4565b806306972dcd146101c957806307da68f5146101e55780630897a5e4146101ef575b600080fd5b6101e360048036038101906101de9190616454565b6104cd565b005b6101ed6105e3565b005b61020960048036038101906102049190616454565b6106ae565b6040516102169190616db2565b60405180910390f35b6102276106d1565b6040516102349190616c20565b60405180910390f35b61025760048036038101906102529190616454565b6106f5565b005b610273600480360381019061026e91906162e2565b610a5e565b005b61028f600480360381019061028a9190616454565b610f58565b005b610299611085565b6040516102a69190616e1f565b60405180910390f35b6102b761109f565b6040516102c49190616db2565b60405180910390f35b6102e760048036038101906102e29190616454565b6110a5565b005b61030360048036038101906102fe91906164f8565b6111bb565b005b61030d6119dc565b60405161031a9190616db2565b60405180910390f35b61032b6119e2565b6040516103389190616db2565b60405180910390f35b61035b600480360381019061035691906164a6565b6119e8565b005b610365611ef4565b005b61036f611f11565b005b610379612078565b6040516103869190616e1f565b60405180910390f35b6103a960048036038101906103a49190616454565b612481565b005b6103b3612972565b005b6103cf60048036038101906103ca91906164a6565b612c83565b005b6103d9612dbb565b6040516103e69190616db2565b60405180910390f35b6103f7612dc1565b6040516104049190616db2565b60405180910390f35b61042760048036038101906104229190616454565b612e64565b005b610431612f56565b60405161043e9190616db2565b60405180910390f35b61044f612f5c565b60405161045c9190616e1f565b60405180910390f35b61047f600480360381019061047a91906164f8565b612f80565b005b61049b600480360381019061049691906164a6565b613721565b6040516104a89190616d7b565b60405180910390f35b6104cb60048036038101906104c69190616454565b613a1f565b005b60008054906101000a900473ffffffffffffffffffffffffffffffffffffffff1673ffffffffffffffffffffffffffffffffffffffff163373ffffffffffffffffffffffffffffffffffffffff161461058e576040517f08c379a00000000000000000000000000000000000000000000000000000000081526004018080602001828103825260198152602001807f476f7665726e65643a204e6f7420417574686f72697a65642e0000000000000081525060200191505060405180910390fd5b80600a819055506040516105a190616ae4565b60405180910390207f3a64504f0bc0c335e2aecb78638a257e0351a3fe0370861fd54ee4190b920933826040516105d89190616db2565b60405180910390a250565b60008054906101000a900473ffffffffffffffffffffffffffffffffffffffff1673ffffffffffffffffffffffffffffffffffffffff163373ffffffffffffffffffffffffffffffffffffffff16146106a4576040517f08c379a00000000000000000000000000000000000000000000000000000000081526004018080602001828103825260198152602001807f476f7665726e65643a204e6f7420417574686f72697a65642e0000000000000081525060200191505060405180910390fd5b6106ac613ba0565b565b60006106ca6106bb613be9565b83613d9b90919063ffffffff16565b9050919050565b60008054906101000a900473ffffffffffffffffffffffffffffffffffffffff1681565b600360009054906101000a900473ffffffffffffffffffffffffffffffffffffffff1673ffffffffffffffffffffffffffffffffffffffff1663e97dcb626040518163ffffffff1660e01b8152600401600060405180830381600087803b15801561075f57600080fd5b505af1158015610773573d6000803e3d6000fd5b50505050600260065414156107f0576040517f08c379a000000000000000000000000000000000000000000000000000000000815260040180806020018281038252601d8152602001807f4c6f636b50726f746f636f6c3a207265656e7472616e742063616c6c2e00000081525060200191505060405180910390fd5b6002600681905550600460149054906101000a900460ff1615610848576040517f08c379a000000000000000000000000000000000000000000000000000000000815260040161083f90616c7b565b60405180910390fd5b6108556000821415613eae565b6000610860826106ae565b9050600e60009054906101000a900473ffffffffffffffffffffffffffffffffffffffff1673ffffffffffffffffffffffffffffffffffffffff166379cc679033846040518363ffffffff1660e01b81526004016108bf929190616ba5565b600060405180830381600087803b1580156108d957600080fd5b505af11580156108ed573d6000803e3d6000fd5b50505050600160009054906101000a900473ffffffffffffffffffffffffffffffffffffffff1673ffffffffffffffffffffffffffffffffffffffff1663db795bca33836040518363ffffffff1660e01b815260040161094e929190616ba5565b600060405180830381600087803b15801561096857600080fd5b505af115801561097c573d6000803e3d6000fd5b505050503373ffffffffffffffffffffffffffffffffffffffff167fefc56a1a7590fc4eb13cd40b6a2ceee41f3869c6ea818d20d9a18f2d6315ca1882846040516109c8929190616df6565b60405180910390a2506001600681905550600360009054906101000a900473ffffffffffffffffffffffffffffffffffffffff1673ffffffffffffffffffffffffffffffffffffffff1663e9fad8ee6040518163ffffffff1660e01b8152600401600060405180830381600087803b158015610a4357600080fd5b505af1158015610a57573d6000803e3d6000fd5b5050505050565b600560009054906101000a900473ffffffffffffffffffffffffffffffffffffffff1673ffffffffffffffffffffffffffffffffffffffff163373ffffffffffffffffffffffffffffffffffffffff1614610b21576040517f08c379a000000000000000000000000000000000000000000000000000000000815260040180806020018281038252601e8152602001807f476f7665726e65643a20496e6974206e6f7420617574686f72697a65642e000081525060200191505060405180910390fd5b600560006101000a81549073ffffffffffffffffffffffffffffffffffffffff02191690558073ffffffffffffffffffffffffffffffffffffffff167f908408e307fc569b417f6cbec5d5a06f44a0a505ac0479b47d421a4b2fd6a1e660405160405180910390a2806000806101000a81548173ffffffffffffffffffffffffffffffffffffffff021916908373ffffffffffffffffffffffffffffffffffffffff16021790555060008054906101000a900473ffffffffffffffffffffffffffffffffffffffff1673ffffffffffffffffffffffffffffffffffffffff16639624e83e6040518163ffffffff1660e01b815260040160206040518083038186803b158015610c2f57600080fd5b505afa158015610c43573d6000803e3d6000fd5b505050506040513d6020811015610c5957600080fd5b8101908080519060200190929190505050600160006101000a81548173ffffffffffffffffffffffffffffffffffffffff021916908373ffffffffffffffffffffffffffffffffffffffff16021790555060008054906101000a900473ffffffffffffffffffffffffffffffffffffffff1673ffffffffffffffffffffffffffffffffffffffff166311df99956040518163ffffffff1660e01b815260040160206040518083038186803b158015610d1057600080fd5b505afa158015610d24573d6000803e3d6000fd5b505050506040513d6020811015610d3a57600080fd5b8101908080519060200190929190505050600260006101000a81548173ffffffffffffffffffffffffffffffffffffffff021916908373ffffffffffffffffffffffffffffffffffffffff16021790555060008054906101000a900473ffffffffffffffffffffffffffffffffffffffff1673ffffffffffffffffffffffffffffffffffffffff1663d478b0876040518163ffffffff1660e01b815260040160206040518083038186803b158015610df157600080fd5b505afa158015610e05573d6000803e3d6000fd5b505050506040513d6020811015610e1b57600080fd5b8101908080519060200190929190505050600360006101000a81548173ffffffffffffffffffffffffffffffffffffffff021916908373ffffffffffffffffffffffffffffffffffffffff16021790555060008054906101000a900473ffffffffffffffffffffffffffffffffffffffff1673ffffffffffffffffffffffffffffffffffffffff16633fc8cef36040518163ffffffff1660e01b815260040160206040518083038186803b158015610ed257600080fd5b505afa158015610ee6573d6000803e3d6000fd5b505050506040513d6020811015610efc57600080fd5b8101908080519060200190929190505050600460006101000a81548173ffffffffffffffffffffffffffffffffffffffff021916908373ffffffffffffffffffffffffffffffffffffffff160217905550610f55613ef1565b50565b60008054906101000a900473ffffffffffffffffffffffffffffffffffffffff1673ffffffffffffffffffffffffffffffffffffffff163373ffffffffffffffffffffffffffffffffffffffff1614611019576040517f08c379a00000000000000000000000000000000000000000000000000000000081526004018080602001828103825260198152602001807f476f7665726e65643a204e6f7420417574686f72697a65642e0000000000000081525060200191505060405180910390fd5b80600b81905550670de0b6b3a7640000600b54111561103757600080fd5b60405161104390616acf565b60405180910390207f3a64504f0bc0c335e2aecb78638a257e0351a3fe0370861fd54ee4190b9209338260405161107a9190616db2565b60405180910390a250565b600c60089054906101000a900467ffffffffffffffff1681565b60085481565b60008054906101000a900473ffffffffffffffffffffffffffffffffffffffff1673ffffffffffffffffffffffffffffffffffffffff163373ffffffffffffffffffffffffffffffffffffffff1614611166576040517f08c379a00000000000000000000000000000000000000000000000000000000081526004018080602001828103825260198152602001807f476f7665726e65643a204e6f7420417574686f72697a65642e0000000000000081525060200191505060405180910390fd5b8060078190555060405161117990616b23565b60405180910390207f3a64504f0bc0c335e2aecb78638a257e0351a3fe0370861fd54ee4190b920933826040516111b09190616db2565b60405180910390a250565b600360009054906101000a900473ffffffffffffffffffffffffffffffffffffffff1673ffffffffffffffffffffffffffffffffffffffff1663e97dcb626040518163ffffffff1660e01b8152600401600060405180830381600087803b15801561122557600080fd5b505af1158015611239573d6000803e3d6000fd5b50505050600260065414156112b6576040517f08c379a000000000000000000000000000000000000000000000000000000000815260040180806020018281038252601d8152602001807f4c6f636b50726f746f636f6c3a207265656e7472616e742063616c6c2e00000081525060200191505060405180910390fd5b6002600681905550600460149054906101000a900460ff1615611341576040517f08c379a000000000000000000000000000000000000000000000000000000000815260040180806020018281038252601e8152602001807f476f7665726e65643a20436f6e74726163742069732073746f707065642e000081525060200191505060405180910390fd5b60008054906101000a900473ffffffffffffffffffffffffffffffffffffffff1673ffffffffffffffffffffffffffffffffffffffff1663bf86d6906040518163ffffffff1660e01b815260040160206040518083038186803b1580156113a757600080fd5b505afa1580156113bb573d6000803e3d6000fd5b505050506040513d60208110156113d157600080fd5b810190808051906020019092919050505015611438576040517f08c379a000000000000000000000000000000000000000000000000000000000815260040180806020018281038252602881526020018061720e6028913960400191505060405180910390fd5b6114ed600d60009054906101000a900473ffffffffffffffffffffffffffffffffffffffff1673ffffffffffffffffffffffffffffffffffffffff1663430c208133866040518363ffffffff1660e01b8152600401611498929190616bce565b60206040518083038186803b1580156114b057600080fd5b505afa1580156114c4573d6000803e3d6000fd5b505050506040513d601f19601f820116820180604052508101906114e89190616267565b6141ea565b611506600083141580611501575060008214155b613eae565b61150e615ed7565b6115cd8467ffffffffffffffff16600160009054906101000a900473ffffffffffffffffffffffffffffffffffffffff1673ffffffffffffffffffffffffffffffffffffffff16630f85fc5a876040518263ffffffff1660e01b81526004016115779190616e1f565b6101206040518083038186803b15801561159057600080fd5b505afa1580156115a4573d6000803e3d6000fd5b505050506040513d601f19601f820116820180604052508101906115c89190616401565b61422d565b9050600083146116f75760008160400151141561161f576040517f08c379a000000000000000000000000000000000000000000000000000000000815260040161161690616d3b565b60405180910390fd5b6116276144f7565b67ffffffffffffffff16611668600c60089054906101000a900467ffffffffffffffff168360e0015167ffffffffffffffff1661450790919063ffffffff16565b67ffffffffffffffff16106116b2576040517f08c379a00000000000000000000000000000000000000000000000000000000081526004016116a990616d5b565b60405180910390fd5b6116c98160400151846145a390919063ffffffff16565b92506116e28382604001516145bc90919063ffffffff16565b8160400181815250506116f6836000614606565b5b60008214611720576117168282602001516145bc90919063ffffffff16565b8160200181815250505b6117328160400151826020015161491a565b600160009054906101000a900473ffffffffffffffffffffffffffffffffffffffff1673ffffffffffffffffffffffffffffffffffffffff1663a31444d485836040518363ffffffff1660e01b815260040161178f929190616e71565b600060405180830381600087803b1580156117a957600080fd5b505af11580156117bd573d6000803e3d6000fd5b505050506000831461185957600260009054906101000a900473ffffffffffffffffffffffffffffffffffffffff1673ffffffffffffffffffffffffffffffffffffffff166379cc679033856040518363ffffffff1660e01b8152600401611826929190616ba5565b600060405180830381600087803b15801561184057600080fd5b505af1158015611854573d6000803e3d6000fd5b505050505b600082146118f157600160009054906101000a900473ffffffffffffffffffffffffffffffffffffffff1673ffffffffffffffffffffffffffffffffffffffff16636250216933846040518363ffffffff1660e01b81526004016118be929190616ba5565b600060405180830381600087803b1580156118d857600080fd5b505af11580156118ec573d6000803e3d6000fd5b505050505b8367ffffffffffffffff163373ffffffffffffffffffffffffffffffffffffffff167f82586ff5b48028b0dec2b5fabea40d9b18bbb24279ce82c7f2b8a9c6870df7658585604051611944929190616df6565b60405180910390a3506001600681905550600360009054906101000a900473ffffffffffffffffffffffffffffffffffffffff1673ffffffffffffffffffffffffffffffffffffffff1663e9fad8ee6040518163ffffffff1660e01b8152600401600060405180830381600087803b1580156119bf57600080fd5b505af11580156119d3573d6000803e3d6000fd5b50505050505050565b60095481565b600b5481565b600360009054906101000a900473ffffffffffffffffffffffffffffffffffffffff1673ffffffffffffffffffffffffffffffffffffffff1663e97dcb626040518163ffffffff1660e01b8152600401600060405180830381600087803b158015611a5257600080fd5b505af1158015611a66573d6000803e3d6000fd5b5050505060026006541415611ae3576040517f08c379a000000000000000000000000000000000000000000000000000000000815260040180806020018281038252601d8152602001807f4c6f636b50726f746f636f6c3a207265656e7472616e742063616c6c2e00000081525060200191505060405180910390fd5b6002600681905550600460149054906101000a900460ff1615611b6e576040517f08c379a000000000000000000000000000000000000000000000000000000000815260040180806020018281038252601e8152602001807f476f7665726e65643a20436f6e74726163742069732073746f707065642e000081525060200191505060405180910390fd5b60008054906101000a900473ffffffffffffffffffffffffffffffffffffffff1673ffffffffffffffffffffffffffffffffffffffff1663bf86d6906040518163ffffffff1660e01b815260040160206040518083038186803b158015611bd457600080fd5b505afa158015611be8573d6000803e3d6000fd5b505050506040513d6020811015611bfe57600080fd5b810190808051906020019092919050505015611c65576040517f08c379a000000000000000000000000000000000000000000000000000000000815260040180806020018281038252602881526020018061720e6028913960400191505060405180910390fd5b611d1a600d60009054906101000a900473ffffffffffffffffffffffffffffffffffffffff1673ffffffffffffffffffffffffffffffffffffffff1663430c208133846040518363ffffffff1660e01b8152600401611cc5929190616bce565b60206040518083038186803b158015611cdd57600080fd5b505afa158015611cf1573d6000803e3d6000fd5b505050506040513d601f19601f82011682018060405250810190611d159190616267565b6141ea565b600160009054906101000a900473ffffffffffffffffffffffffffffffffffffffff1673ffffffffffffffffffffffffffffffffffffffff1663a31444d482611e188467ffffffffffffffff16600160009054906101000a900473ffffffffffffffffffffffffffffffffffffffff1673ffffffffffffffffffffffffffffffffffffffff16630f85fc5a876040518263ffffffff1660e01b8152600401611dc29190616e1f565b6101206040518083038186803b158015611ddb57600080fd5b505afa158015611def573d6000803e3d6000fd5b505050506040513d601f19601f82011682018060405250810190611e139190616401565b61422d565b6040518363ffffffff1660e01b8152600401611e35929190616e71565b600060405180830381600087803b158015611e4f57600080fd5b505af1158015611e63573d6000803e3d6000fd5b505050506001600681905550600360009054906101000a900473ffffffffffffffffffffffffffffffffffffffff1673ffffffffffffffffffffffffffffffffffffffff1663e9fad8ee6040518163ffffffff1660e01b8152600401600060405180830381600087803b158015611ed957600080fd5b505af1158015611eed573d6000803e3d6000fd5b5050505050565b6001600f60146101000a81548160ff021916908315150217905550565b60026006541415611f8a576040517f08c379a000000000000000000000000000000000000000000000000000000000815260040180806020018281038252601d8152602001807f4c6f636b436f6e74726163743a207265656e7472616e742063616c6c2e00000081525060200191505060405180910390fd5b600260068190555061206660008054906101000a900473ffffffffffffffffffffffffffffffffffffffff1673ffffffffffffffffffffffffffffffffffffffff16639a371c846040518163ffffffff1660e01b815260040160206040518083038186803b158015611ffb57600080fd5b505afa15801561200f573d6000803e3d6000fd5b505050506040513d601f19601f820116820180604052508101906120339190616334565b73ffffffffffffffffffffffffffffffffffffffff163373ffffffffffffffffffffffffffffffffffffffff16146141ea565b61206e614a06565b6001600681905550565b6000600360009054906101000a900473ffffffffffffffffffffffffffffffffffffffff1673ffffffffffffffffffffffffffffffffffffffff1663e97dcb626040518163ffffffff1660e01b8152600401600060405180830381600087803b1580156120e457600080fd5b505af11580156120f8573d6000803e3d6000fd5b5050505060026006541415612175576040517f08c379a000000000000000000000000000000000000000000000000000000000815260040180806020018281038252601d8152602001807f4c6f636b50726f746f636f6c3a207265656e7472616e742063616c6c2e00000081525060200191505060405180910390fd5b6002600681905550600460149054906101000a900460ff1615612200576040517f08c379a000000000000000000000000000000000000000000000000000000000815260040180806020018281038252601e8152602001807f476f7665726e65643a20436f6e74726163742069732073746f707065642e000081525060200191505060405180910390fd5b60008054906101000a900473ffffffffffffffffffffffffffffffffffffffff1673ffffffffffffffffffffffffffffffffffffffff1663bf86d6906040518163ffffffff1660e01b815260040160206040518083038186803b15801561226657600080fd5b505afa15801561227a573d6000803e3d6000fd5b505050506040513d602081101561229057600080fd5b8101908080519060200190929190505050156122f7576040517f08c379a000000000000000000000000000000000000000000000000000000000815260040180806020018281038252602881526020018061720e6028913960400191505060405180910390fd5b600d60009054906101000a900473ffffffffffffffffffffffffffffffffffffffff1673ffffffffffffffffffffffffffffffffffffffff1663755edd17336040518263ffffffff1660e01b81526004016123529190616b53565b602060405180830381600087803b15801561236c57600080fd5b505af1158015612380573d6000803e3d6000fd5b505050506040513d601f19601f820116820180604052508101906123a491906164cf565b90508067ffffffffffffffff163373ffffffffffffffffffffffffffffffffffffffff167f5e61a417c052598d1a3e26d3d81c42d9e7a943dccc23a840bc94bbabf9b1d60760405160405180910390a36001600681905550600360009054906101000a900473ffffffffffffffffffffffffffffffffffffffff1673ffffffffffffffffffffffffffffffffffffffff1663e9fad8ee6040518163ffffffff1660e01b8152600401600060405180830381600087803b15801561246657600080fd5b505af115801561247a573d6000803e3d6000fd5b5050505090565b600360009054906101000a900473ffffffffffffffffffffffffffffffffffffffff1673ffffffffffffffffffffffffffffffffffffffff1663e97dcb626040518163ffffffff1660e01b8152600401600060405180830381600087803b1580156124eb57600080fd5b505af11580156124ff573d6000803e3d6000fd5b505050506002600654141561257c576040517f08c379a000000000000000000000000000000000000000000000000000000000815260040180806020018281038252601d8152602001807f4c6f636b50726f746f636f6c3a207265656e7472616e742063616c6c2e00000081525060200191505060405180910390fd5b6002600681905550600460149054906101000a900460ff1615612607576040517f08c379a000000000000000000000000000000000000000000000000000000000815260040180806020018281038252601e8152602001807f476f7665726e65643a20436f6e74726163742069732073746f707065642e000081525060200191505060405180910390fd5b60008054906101000a900473ffffffffffffffffffffffffffffffffffffffff1673ffffffffffffffffffffffffffffffffffffffff1663bf86d6906040518163ffffffff1660e01b815260040160206040518083038186803b15801561266d57600080fd5b505afa158015612681573d6000803e3d6000fd5b505050506040513d602081101561269757600080fd5b8101908080519060200190929190505050156126fe576040517f08c379a000000000000000000000000000000000000000000000000000000000815260040180806020018281038252602881526020018061720e6028913960400191505060405180910390fd5b61270b6000821415613eae565b612713614a06565b600061272f612720613be9565b83614f1790919063ffffffff16565b9050600260009054906101000a900473ffffffffffffffffffffffffffffffffffffffff1673ffffffffffffffffffffffffffffffffffffffff166323b872dd33600160009054906101000a900473ffffffffffffffffffffffffffffffffffffffff16856040518463ffffffff1660e01b81526004016127b293929190616b6e565b602060405180830381600087803b1580156127cc57600080fd5b505af11580156127e0573d6000803e3d6000fd5b505050506040513d601f19601f820116820180604052508101906128049190616267565b50600e60009054906101000a900473ffffffffffffffffffffffffffffffffffffffff1673ffffffffffffffffffffffffffffffffffffffff1663449a52f833836040518363ffffffff1660e01b8152600401612862929190616ba5565b600060405180830381600087803b15801561287c57600080fd5b505af1158015612890573d6000803e3d6000fd5b505050503373ffffffffffffffffffffffffffffffffffffffff167f8fff79b574da9a93d7a5408c2fc00c4a9b2b462321c1659b2fbbb9ff3dd221ff83836040516128dc929190616df6565b60405180910390a2506001600681905550600360009054906101000a900473ffffffffffffffffffffffffffffffffffffffff1673ffffffffffffffffffffffffffffffffffffffff1663e9fad8ee6040518163ffffffff1660e01b8152600401600060405180830381600087803b15801561295757600080fd5b505af115801561296b573d6000803e3d6000fd5b5050505050565b600360009054906101000a900473ffffffffffffffffffffffffffffffffffffffff1673ffffffffffffffffffffffffffffffffffffffff1663e97dcb626040518163ffffffff1660e01b8152600401600060405180830381600087803b1580156129dc57600080fd5b505af11580156129f0573d6000803e3d6000fd5b5050505060026006541415612a6d576040517f08c379a000000000000000000000000000000000000000000000000000000000815260040180806020018281038252601d8152602001807f4c6f636b50726f746f636f6c3a207265656e7472616e742063616c6c2e00000081525060200191505060405180910390fd5b6002600681905550600460149054906101000a900460ff1615612af8576040517f08c379a000000000000000000000000000000000000000000000000000000000815260040180806020018281038252601e8152602001807f476f7665726e65643a20436f6e74726163742069732073746f707065642e000081525060200191505060405180910390fd5b60008054906101000a900473ffffffffffffffffffffffffffffffffffffffff1673ffffffffffffffffffffffffffffffffffffffff1663bf86d6906040518163ffffffff1660e01b815260040160206040518083038186803b158015612b5e57600080fd5b505afa158015612b72573d6000803e3d6000fd5b505050506040513d6020811015612b8857600080fd5b810190808051906020019092919050505015612bef576040517f08c379a000000000000000000000000000000000000000000000000000000000815260040180806020018281038252602881526020018061720e6028913960400191505060405180910390fd5b612bf7614a06565b6001600681905550600360009054906101000a900473ffffffffffffffffffffffffffffffffffffffff1673ffffffffffffffffffffffffffffffffffffffff1663e9fad8ee6040518163ffffffff1660e01b8152600401600060405180830381600087803b158015612c6957600080fd5b505af1158015612c7d573d6000803e3d6000fd5b50505050565b60008054906101000a900473ffffffffffffffffffffffffffffffffffffffff1673ffffffffffffffffffffffffffffffffffffffff163373ffffffffffffffffffffffffffffffffffffffff1614612d44576040517f08c379a00000000000000000000000000000000000000000000000000000000081526004018080602001828103825260198152602001807f476f7665726e65643a204e6f7420417574686f72697a65642e0000000000000081525060200191505060405180910390fd5b80600c60086101000a81548167ffffffffffffffff021916908367ffffffffffffffff160217905550604051612d7990616af9565b60405180910390207f6293347933ad2997134e224ac8cd2e39908a4a22aeed9af52127b4bbf765297882604051612db09190616e1f565b60405180910390a250565b600a5481565b600080612dcc614fb6565b90508067ffffffffffffffff16600c60009054906101000a900467ffffffffffffffff1667ffffffffffffffff161115612e3b576040517f08c379a0000000000000000000000000000000000000000000000000000000008152600401612e3290616cdb565b60405180910390fd5b600c60009054906101000a900467ffffffffffffffff16810367ffffffffffffffff1691505090565b612f3860008054906101000a900473ffffffffffffffffffffffffffffffffffffffff1673ffffffffffffffffffffffffffffffffffffffff1663d3419bf36040518163ffffffff1660e01b815260040160206040518083038186803b158015612ecd57600080fd5b505afa158015612ee1573d6000803e3d6000fd5b505050506040513d601f19601f82011682018060405250810190612f059190616386565b73ffffffffffffffffffffffffffffffffffffffff163373ffffffffffffffffffffffffffffffffffffffff16146141ea565b612f4d81600854613d9b90919063ffffffff16565b60098190555050565b60075481565b7f000000000000000000000000000000000000000000000000000000000000000081565b600360009054906101000a900473ffffffffffffffffffffffffffffffffffffffff1673ffffffffffffffffffffffffffffffffffffffff1663e97dcb626040518163ffffffff1660e01b8152600401600060405180830381600087803b158015612fea57600080fd5b505af1158015612ffe573d6000803e3d6000fd5b505050506002600654141561307b576040517f08c379a000000000000000000000000000000000000000000000000000000000815260040180806020018281038252601d8152602001807f4c6f636b50726f746f636f6c3a207265656e7472616e742063616c6c2e00000081525060200191505060405180910390fd5b6002600681905550600460149054906101000a900460ff1615613106576040517f08c379a000000000000000000000000000000000000000000000000000000000815260040180806020018281038252601e8152602001807f476f7665726e65643a20436f6e74726163742069732073746f707065642e000081525060200191505060405180910390fd5b60008054906101000a900473ffffffffffffffffffffffffffffffffffffffff1673ffffffffffffffffffffffffffffffffffffffff1663bf86d6906040518163ffffffff1660e01b815260040160206040518083038186803b15801561316c57600080fd5b505afa158015613180573d6000803e3d6000fd5b505050506040513d602081101561319657600080fd5b8101908080519060200190929190505050156131fd576040517f08c379a000000000000000000000000000000000000000000000000000000000815260040180806020018281038252602881526020018061720e6028913960400191505060405180910390fd5b6132b2600d60009054906101000a900473ffffffffffffffffffffffffffffffffffffffff1673ffffffffffffffffffffffffffffffffffffffff1663430c208133866040518363ffffffff1660e01b815260040161325d929190616bce565b60206040518083038186803b15801561327557600080fd5b505afa158015613289573d6000803e3d6000fd5b505050506040513d601f19601f820116820180604052508101906132ad9190616267565b6141ea565b6132cb6000831415806132c6575060008214155b613eae565b6132d3615ed7565b6133928467ffffffffffffffff16600160009054906101000a900473ffffffffffffffffffffffffffffffffffffffff1673ffffffffffffffffffffffffffffffffffffffff16630f85fc5a876040518263ffffffff1660e01b815260040161333c9190616e1f565b6101206040518083038186803b15801561335557600080fd5b505afa158015613369573d6000803e3d6000fd5b505050506040513d601f19601f8201168201806040525081019061338d9190616401565b61422d565b9050600083146133ef576133b383826040015161502490919063ffffffff16565b8160400181815250506133c46144f7565b8160e0019067ffffffffffffffff16908167ffffffffffffffff16815250506133ee836001614606565b5b600082146134185761340e82826020015161502490919063ffffffff16565b8160200181815250505b61342a8160400151826020015161491a565b600160009054906101000a900473ffffffffffffffffffffffffffffffffffffffff1673ffffffffffffffffffffffffffffffffffffffff1663a31444d485836040518363ffffffff1660e01b8152600401613487929190616e71565b600060405180830381600087803b1580156134a157600080fd5b505af11580156134b5573d6000803e3d6000fd5b505050506000821461359e57600460009054906101000a900473ffffffffffffffffffffffffffffffffffffffff1673ffffffffffffffffffffffffffffffffffffffff166323b872dd33600160009054906101000a900473ffffffffffffffffffffffffffffffffffffffff16856040518463ffffffff1660e01b815260040161354293929190616b6e565b602060405180830381600087803b15801561355c57600080fd5b505af1158015613570573d6000803e3d6000fd5b505050506040513d601f19601f820116820180604052508101906135949190616267565b61359d57600080fd5b5b6000831461363657600260009054906101000a900473ffffffffffffffffffffffffffffffffffffffff1673ffffffffffffffffffffffffffffffffffffffff1663449a52f833856040518363ffffffff1660e01b8152600401613603929190616ba5565b600060405180830381600087803b15801561361d57600080fd5b505af1158015613631573d6000803e3d6000fd5b505050505b8367ffffffffffffffff163373ffffffffffffffffffffffffffffffffffffffff167fa662e83179bdff2a626548818030e7fd90d11c79f0e3eedcf9ba39148c203ae48585604051613689929190616df6565b60405180910390a3506001600681905550600360009054906101000a900473ffffffffffffffffffffffffffffffffffffffff1673ffffffffffffffffffffffffffffffffffffffff1663e9fad8ee6040518163ffffffff1660e01b8152600401600060405180830381600087803b15801561370457600080fd5b505af1158015613718573d6000803e3d6000fd5b50505050505050565b613729615ed7565b600260065414156137a2576040517f08c379a000000000000000000000000000000000000000000000000000000000815260040180806020018281038252601d8152602001807f4c6f636b436f6e74726163743a207265656e7472616e742063616c6c2e00000081525060200191505060405180910390fd5b600260068190555061395160008054906101000a900473ffffffffffffffffffffffffffffffffffffffff1673ffffffffffffffffffffffffffffffffffffffff16639a371c846040518163ffffffff1660e01b815260040160206040518083038186803b15801561381357600080fd5b505afa158015613827573d6000803e3d6000fd5b505050506040513d601f19601f8201168201806040525081019061384b9190616334565b73ffffffffffffffffffffffffffffffffffffffff163373ffffffffffffffffffffffffffffffffffffffff16148061394c575060008054906101000a900473ffffffffffffffffffffffffffffffffffffffff1673ffffffffffffffffffffffffffffffffffffffff1663511606306040518163ffffffff1660e01b815260040160206040518083038186803b1580156138e557600080fd5b505afa1580156138f9573d6000803e3d6000fd5b505050506040513d601f19601f8201168201806040525081019061391d91906163d8565b73ffffffffffffffffffffffffffffffffffffffff163373ffffffffffffffffffffffffffffffffffffffff16145b6141ea565b613a108267ffffffffffffffff16600160009054906101000a900473ffffffffffffffffffffffffffffffffffffffff1673ffffffffffffffffffffffffffffffffffffffff16630f85fc5a856040518263ffffffff1660e01b81526004016139ba9190616e1f565b6101206040518083038186803b1580156139d357600080fd5b505afa1580156139e7573d6000803e3d6000fd5b505050506040513d601f19601f82011682018060405250810190613a0b9190616401565b61422d565b90506001600681905550919050565b60008054906101000a900473ffffffffffffffffffffffffffffffffffffffff1673ffffffffffffffffffffffffffffffffffffffff163373ffffffffffffffffffffffffffffffffffffffff1614613ae0576040517f08c379a00000000000000000000000000000000000000000000000000000000081526004018080602001828103825260198152602001807f476f7665726e65643a204e6f7420417574686f72697a65642e0000000000000081525060200191505060405180910390fd5b80600881905550604051613af390616b0e565b60405180910390207f3a64504f0bc0c335e2aecb78638a257e0351a3fe0370861fd54ee4190b92093382604051613b2a9190616db2565b60405180910390a250565b6000680100000000000000008210613b98576040517f08c379a00000000000000000000000000000000000000000000000000000000081526004018080602001828103825260268152602001806172576026913960400191505060405180910390fd5b819050919050565b6001600460146101000a81548160ff0219169083151502179055507f7acc84e34091ae817647a4c49116f5cc07f319078ba80f8f5fde37ea7e25cbd660405160405180910390a1565b600080600260009054906101000a900473ffffffffffffffffffffffffffffffffffffffff1673ffffffffffffffffffffffffffffffffffffffff166370a08231600160009054906101000a900473ffffffffffffffffffffffffffffffffffffffff166040518263ffffffff1660e01b8152600401613c699190616b38565b60206040518083038186803b158015613c8157600080fd5b505afa158015613c95573d6000803e3d6000fd5b505050506040513d601f19601f82011682018060405250810190613cb9919061647d565b90506000600e60009054906101000a900473ffffffffffffffffffffffffffffffffffffffff1673ffffffffffffffffffffffffffffffffffffffff166318160ddd6040518163ffffffff1660e01b815260040160206040518083038186803b158015613d2557600080fd5b505afa158015613d39573d6000803e3d6000fd5b505050506040513d601f19601f82011682018060405250810190613d5d919061647d565b90506000811480613d6e5750600082145b613d8a57613d858282613d9b90919063ffffffff16565b613d94565b670de0b6b3a76400005b9250505090565b600080831415613dae5760009050613ea8565b6000821415613e25576040517f08c379a000000000000000000000000000000000000000000000000000000000815260040180806020018281038252601b8152602001807f536166654d6174683a206469766973696f6e206279207a65726f2e000000000081525060200191505060405180910390fd5b670de0b6b3a764000083029050670de0b6b3a7640000838281613e4457fe5b0414613e9b576040517f08c379a00000000000000000000000000000000000000000000000000000000081526004018080602001828103825260228152602001806171ec6022913960400191505060405180910390fd5b818181613ea457fe5b0490505b92915050565b80613eee576040517f08c379a0000000000000000000000000000000000000000000000000000000008152600401613ee590616cbb565b60405180910390fd5b50565b613ef9614fb6565b600c60006101000a81548167ffffffffffffffff021916908367ffffffffffffffff1602179055506001600c60009054906101000a900467ffffffffffffffff1667ffffffffffffffff1614613f4e57600080fd5b60008054906101000a900473ffffffffffffffffffffffffffffffffffffffff1673ffffffffffffffffffffffffffffffffffffffff16637380f6796040518163ffffffff1660e01b815260040160206040518083038186803b158015613fb457600080fd5b505afa158015613fc8573d6000803e3d6000fd5b505050506040513d601f19601f82011682018060405250810190613fec9190616290565b600d60006101000a81548173ffffffffffffffffffffffffffffffffffffffff021916908373ffffffffffffffffffffffffffffffffffffffff16021790555060008054906101000a900473ffffffffffffffffffffffffffffffffffffffff1673ffffffffffffffffffffffffffffffffffffffff1663ba2481d16040518163ffffffff1660e01b815260040160206040518083038186803b15801561409257600080fd5b505afa1580156140a6573d6000803e3d6000fd5b505050506040513d601f19601f820116820180604052508101906140ca919061630b565b600e60006101000a81548173ffffffffffffffffffffffffffffffffffffffff021916908373ffffffffffffffffffffffffffffffffffffffff16021790555060008054906101000a900473ffffffffffffffffffffffffffffffffffffffff1673ffffffffffffffffffffffffffffffffffffffff1663866541146040518163ffffffff1660e01b815260040160206040518083038186803b15801561417057600080fd5b505afa158015614184573d6000803e3d6000fd5b505050506040513d601f19601f820116820180604052508101906141a891906162b9565b600f60006101000a81548173ffffffffffffffffffffffffffffffffffffffff021916908373ffffffffffffffffffffffffffffffffffffffff160217905550565b8061422a576040517f08c379a000000000000000000000000000000000000000000000000000000000815260040161422190616cfb565b60405180910390fd5b50565b614235615ed7565b8190506000808260c0015167ffffffffffffffff16146142615761425c8260c001516150ac565b614264565b60005b9050600061427061512f565b9050600061427d826150ac565b90508067ffffffffffffffff168367ffffffffffffffff16106142a2575050506144f1565b6142aa614a06565b60008061437a86600160009054906101000a900473ffffffffffffffffffffffffffffffffffffffff1673ffffffffffffffffffffffffffffffffffffffff166306ef2d806040518163ffffffff1660e01b815260040160806040518083038186803b15801561431957600080fd5b505afa15801561432d573d6000803e3d6000fd5b505050506040513d601f19601f82011682018060405250810190614351919061642b565b8686897f0000000000000000000000000000000000000000000000000000000000000000615219565b809350819450829850505050600082141580156143a2575060008167ffffffffffffffff1614155b156144eb57600f60009054906101000a900473ffffffffffffffffffffffffffffffffffffffff1673ffffffffffffffffffffffffffffffffffffffff1663302fbf576143ee836153c2565b600d60009054906101000a900473ffffffffffffffffffffffffffffffffffffffff1673ffffffffffffffffffffffffffffffffffffffff16636352211e8c6040518263ffffffff1660e01b81526004016144499190616db2565b60206040518083038186803b15801561446157600080fd5b505afa158015614475573d6000803e3d6000fd5b505050506040513d601f19601f82011682018060405250810190614499919061623e565b856040518463ffffffff1660e01b81526004016144b893929190616e3a565b600060405180830381600087803b1580156144d257600080fd5b505af11580156144e6573d6000803e3d6000fd5b505050505b50505050505b92915050565b600061450242613b35565b905090565b60008082840190508367ffffffffffffffff168167ffffffffffffffff161015614599576040517f08c379a000000000000000000000000000000000000000000000000000000000815260040180806020018281038252601b8152602001807f536166654d6174683a206164646974696f6e206f766572666c6f77000000000081525060200191505060405180910390fd5b8091505092915050565b60008183106145b257816145b4565b825b905092915050565b60006145fe83836040518060400160405280601e81526020017f536166654d6174683a207375627472616374696f6e206f766572666c6f770000815250615444565b905092915050565b600160009054906101000a900473ffffffffffffffffffffffffffffffffffffffff1673ffffffffffffffffffffffffffffffffffffffff1663f4d6243b83836040518363ffffffff1660e01b8152600401614663929190616dcd565b600060405180830381600087803b15801561467d57600080fd5b505af1158015614691573d6000803e3d6000fd5b505050508015614916576000600160009054906101000a900473ffffffffffffffffffffffffffffffffffffffff1673ffffffffffffffffffffffffffffffffffffffff16630dca59c16040518163ffffffff1660e01b815260040160206040518083038186803b15801561470557600080fd5b505afa158015614719573d6000803e3d6000fd5b505050506040513d601f19601f8201168201806040525081019061473d919061647d565b9050600754811115614784576040517f08c379a000000000000000000000000000000000000000000000000000000000815260040161477b90616c5b565b60405180910390fd5b60008060009054906101000a900473ffffffffffffffffffffffffffffffffffffffff1673ffffffffffffffffffffffffffffffffffffffff16639ec5a8946040518163ffffffff1660e01b815260040160206040518083038186803b1580156147ed57600080fd5b505afa158015614801573d6000803e3d6000fd5b505050506040513d601f19601f8201168201806040525081019061482591906163af565b9050600f60149054906101000a900460ff16156148a8578073ffffffffffffffffffffffffffffffffffffffff1663e92b26ae836040518263ffffffff1660e01b81526004016148759190616db2565b600060405180830381600087803b15801561488f57600080fd5b505af11580156148a3573d6000803e3d6000fd5b505050505b8073ffffffffffffffffffffffffffffffffffffffff1663982dca44836040518263ffffffff1660e01b81526004016148e19190616db2565b600060405180830381600087803b1580156148fb57600080fd5b505af115801561490f573d6000803e3d6000fd5b5050505050505b5050565b60008214614a0257600a54821015614967576040517f08c379a000000000000000000000000000000000000000000000000000000000815260040161495e90616d1b565b60405180910390fd5b60008114156149ab576040517f08c379a00000000000000000000000000000000000000000000000000000000081526004016149a290616c9b565b60405180910390fd5b6009546149c18383613d9b90919063ffffffff16565b11614a01576040517f08c379a00000000000000000000000000000000000000000000000000000000081526004016149f890616c3b565b60405180910390fd5b5b5050565b6000614a18614a1361512f565b6150ac565b9050600c60009054906101000a900467ffffffffffffffff1667ffffffffffffffff168167ffffffffffffffff1611614a515750614f15565b6000600c60009054906101000a900467ffffffffffffffff1682039050614a76615f47565b600160009054906101000a900473ffffffffffffffffffffffffffffffffffffffff1673ffffffffffffffffffffffffffffffffffffffff166306ef2d806040518163ffffffff1660e01b815260040160806040518083038186803b158015614ade57600080fd5b505afa158015614af2573d6000803e3d6000fd5b505050506040513d601f19601f82011682018060405250810190614b16919061642b565b90506000600160009054906101000a900473ffffffffffffffffffffffffffffffffffffffff1673ffffffffffffffffffffffffffffffffffffffff16630dca59c16040518163ffffffff1660e01b815260040160206040518083038186803b158015614b8257600080fd5b505afa158015614b96573d6000803e3d6000fd5b505050506040513d601f19601f82011682018060405250810190614bba919061647d565b9050614bc4615f6f565b614bcf838386615504565b9050614be58385836000015184602001516158c6565b9250600160009054906101000a900473ffffffffffffffffffffffffffffffffffffffff1673ffffffffffffffffffffffffffffffffffffffff166378efc6b0846040518263ffffffff1660e01b8152600401614c429190616d97565b600060405180830381600087803b158015614c5c57600080fd5b505af1158015614c70573d6000803e3d6000fd5b5050505084600c60006101000a81548167ffffffffffffffff021916908367ffffffffffffffff1602179055506000816060015114614d5f57600260009054906101000a900473ffffffffffffffffffffffffffffffffffffffff1673ffffffffffffffffffffffffffffffffffffffff1663449a52f8600160009054906101000a900473ffffffffffffffffffffffffffffffffffffffff1683606001516040518363ffffffff1660e01b8152600401614d2c929190616bf7565b600060405180830381600087803b158015614d4657600080fd5b505af1158015614d5a573d6000803e3d6000fd5b505050505b6000816040015114614e2157600260009054906101000a900473ffffffffffffffffffffffffffffffffffffffff1673ffffffffffffffffffffffffffffffffffffffff1663449a52f8600260009054906101000a900473ffffffffffffffffffffffffffffffffffffffff1683604001516040518363ffffffff1660e01b8152600401614dee929190616bf7565b600060405180830381600087803b158015614e0857600080fd5b505af1158015614e1c573d6000803e3d6000fd5b505050505b6000816080015114614ebf57600260009054906101000a900473ffffffffffffffffffffffffffffffffffffffff1673ffffffffffffffffffffffffffffffffffffffff1663c59fb1ab82608001516040518263ffffffff1660e01b8152600401614e8c9190616db2565b600060405180830381600087803b158015614ea657600080fd5b505af1158015614eba573d6000803e3d6000fd5b505050505b8467ffffffffffffffff167f68ccfbdc2dc048fc586bfa6985399d7465b27fbc9b66ea3b0cde2b6d25ee56fe858484600001518760200151604051614f079493929190616e9b565b60405180910390a250505050505b565b600080831480614f275750600082145b15614f355760009050614fb0565b818302905081838281614f4457fe5b0414614f9b576040517f08c379a00000000000000000000000000000000000000000000000000000000081526004018080602001828103825260228152602001806171ec6022913960400191505060405180910390fd5b670de0b6b3a76400008181614fac57fe5b0490505b92915050565b60007f00000000000000000000000000000000000000000000000000000000000000007f000000000000000000000000000000000000000000000000000000000000000067ffffffffffffffff1661500c6144f7565b67ffffffffffffffff168161501d57fe5b0403905090565b6000808284019050838110156150a2576040517f08c379a000000000000000000000000000000000000000000000000000000000815260040180806020018281038252601b8152602001807f536166654d6174683a206164646974696f6e206f766572666c6f77000000000081525060200191505060405180910390fd5b8091505092915050565b60006151287f00000000000000000000000000000000000000000000000000000000000000007f000000000000000000000000000000000000000000000000000000000000000067ffffffffffffffff168467ffffffffffffffff168161510f57fe5b0467ffffffffffffffff16615b6c90919063ffffffff16565b9050919050565b60006151396144f7565b905060008060009054906101000a900473ffffffffffffffffffffffffffffffffffffffff1673ffffffffffffffffffffffffffffffffffffffff1663585690816040518163ffffffff1660e01b815260040160206040518083038186803b1580156151a457600080fd5b505afa1580156151b8573d6000803e3d6000fd5b505050506040513d601f19601f820116820180604052508101906151dc91906164cf565b905060008167ffffffffffffffff161415801561520c57508167ffffffffffffffff168167ffffffffffffffff16105b15615215578091505b5090565b615221615ed7565b6000808567ffffffffffffffff168567ffffffffffffffff161061524e57886000809250925092506153b6565b8892506000808667ffffffffffffffff161461536a578587039050600084604001511461536957615296896060015185606001518660400151615bb69092919063ffffffff16565b84604001818152505060008167ffffffffffffffff166152c786600001518c604001516145bc90919063ffffffff16565b816152ce57fe5b04905061534c6152f58660c001518b67ffffffffffffffff16615b6c90919063ffffffff16565b67ffffffffffffffff168767ffffffffffffffff1661533d61532889608001518f602001516145bc90919063ffffffff16565b858a60400151615bb69092919063ffffffff16565b615bb69092919063ffffffff16565b935060028267ffffffffffffffff168161536257fe5b0488039250505b5b886060015184606001818152505088602001518460800181815250508860400151846000018181525050878460c0019067ffffffffffffffff16908167ffffffffffffffff1681525050505b96509650969350505050565b600061543d615404837f000000000000000000000000000000000000000000000000000000000000000067ffffffffffffffff1661450790919063ffffffff16565b7f000000000000000000000000000000000000000000000000000000000000000067ffffffffffffffff16615cc590919063ffffffff16565b9050919050565b60008383111582906154f1576040517f08c379a00000000000000000000000000000000000000000000000000000000081526004018080602001828103825283818151815260200191508051906020019080838360005b838110156154b657808201518184015260208101905061549b565b50505050905090810190601f1680156154e35780820380516001836020036101000a031916815260200191505b509250505060405180910390fd5b5060008385039050809150509392505050565b61550c615f6f565b60008060009054906101000a900473ffffffffffffffffffffffffffffffffffffffff1673ffffffffffffffffffffffffffffffffffffffff1663571fb1d86040518163ffffffff1660e01b815260040160206040518083038186803b15801561557557600080fd5b505afa158015615589573d6000803e3d6000fd5b505050506040513d601f19601f820116820180604052508101906155ad919061635d565b905060008173ffffffffffffffffffffffffffffffffffffffff16637c3a00fd6040518163ffffffff1660e01b815260040160206040518083038186803b1580156155f757600080fd5b505afa15801561560b573d6000803e3d6000fd5b505050506040513d601f19601f8201168201806040525081019061562f919061647d565b905060008114156156595784836000018181525050856060015183602001818152505050506158bf565b60006156a06156898667ffffffffffffffff1661088e67ffffffffffffffff1685615bb69092919063ffffffff16565b670de0b6b3a764000061502490919063ffffffff16565b90508273ffffffffffffffffffffffffffffffffffffffff16636d7fa6646040518163ffffffff1660e01b815260040160206040518083038186803b1580156156e857600080fd5b505afa1580156156fc573d6000803e3d6000fd5b505050506040513d601f19601f820116820180604052508101906157209190616267565b6157405761573b818860600151613d9b90919063ffffffff16565b615758565b615757818860600151614f1790919063ffffffff16565b5b84602001818152505061577e8460200151886060015188615bb69092919063ffffffff16565b84600001818152505085846000015111156157d25760008685600001510390506157b3600b5482614f1790919063ffffffff16565b85606001818152505084606001518103856040018181525050506158bb565b85846000015110156158ba576000846000015187039050600260009054906101000a900473ffffffffffffffffffffffffffffffffffffffff1673ffffffffffffffffffffffffffffffffffffffff166375172a8b6040518163ffffffff1660e01b815260040160206040518083038186803b15801561585157600080fd5b505afa158015615865573d6000803e3d6000fd5b505050506040513d601f19601f82011682018060405250810190615889919061647d565b8111156158ad578685600001818152505087606001518560200181815250506158b8565b808560800181815250505b505b5b5050505b9392505050565b6158ce615f47565b849050600061599a8567ffffffffffffffff16600667ffffffffffffffff1660008054906101000a900473ffffffffffffffffffffffffffffffffffffffff1673ffffffffffffffffffffffffffffffffffffffff1663c375e6ed6040518163ffffffff1660e01b815260040160206040518083038186803b15801561595357600080fd5b505afa158015615967573d6000803e3d6000fd5b505050506040513d601f19601f8201168201806040525081019061598b919061647d565b615bb69092919063ffffffff16565b9050615ac960008054906101000a900473ffffffffffffffffffffffffffffffffffffffff1673ffffffffffffffffffffffffffffffffffffffff16639ec5a8946040518163ffffffff1660e01b815260040160206040518083038186803b158015615a0557600080fd5b505afa158015615a19573d6000803e3d6000fd5b505050506040513d601f19601f82011682018060405250810190615a3d91906163af565b73ffffffffffffffffffffffffffffffffffffffff16630a86f1096040518163ffffffff1660e01b815260040160206040518083038186803b158015615a8257600080fd5b505afa158015615a96573d6000803e3d6000fd5b505050506040513d601f19601f82011682018060405250810190615aba919061647d565b82614f1790919063ffffffff16565b9050615ae281836020015161502490919063ffffffff16565b826020018181525050615b1e615b0b8667ffffffffffffffff1686615d7d90919063ffffffff16565b836040015161502490919063ffffffff16565b82604001818152505081606001518314615b5957615b4f8383606001518460000151615bb69092919063ffffffff16565b8260000181815250505b8282606001818152505050949350505050565b6000615bae83836040518060400160405280601e81526020017f536166654d6174683a207375627472616374696f6e206f766572666c6f770000815250615e03565b905092915050565b600080841480615bc65750600083145b15615bd45760009050615cbe565b6000821415615c4b576040517f08c379a000000000000000000000000000000000000000000000000000000000815260040180806020018281038252601b8152602001807f536166654d6174683a206469766973696f6e206279207a65726f2e000000000081525060200191505060405180910390fd5b828402905082848281615c5a57fe5b0414615cb1576040517f08c379a00000000000000000000000000000000000000000000000000000000081526004018080602001828103825260228152602001806171ec6022913960400191505060405180910390fd5b818181615cba57fe5b0490505b9392505050565b6000808367ffffffffffffffff161415615ce25760009050615d77565b600082840290508267ffffffffffffffff168467ffffffffffffffff168267ffffffffffffffff1681615d1157fe5b0467ffffffffffffffff1614615d72576040517f08c379a00000000000000000000000000000000000000000000000000000000081526004018080602001828103825260218152602001806172366021913960400191505060405180910390fd5b809150505b92915050565b600080831415615d905760009050615dfd565b6000828402905082848281615da157fe5b0414615df8576040517f08c379a00000000000000000000000000000000000000000000000000000000081526004018080602001828103825260218152602001806172366021913960400191505060405180910390fd5b809150505b92915050565b60008367ffffffffffffffff168367ffffffffffffffff1611158290615ec4576040517f08c379a00000000000000000000000000000000000000000000000000000000081526004018080602001828103825283818151815260200191508051906020019080838360005b83811015615e89578082015181840152602081019050615e6e565b50505050905090810190601f168015615eb65780820380516001836020036101000a031916815260200191505b509250505060405180910390fd5b5060008385039050809150509392505050565b6040518061012001604052806000815260200160008152602001600081526020016000815260200160008152602001600067ffffffffffffffff168152602001600067ffffffffffffffff168152602001600067ffffffffffffffff168152602001600063ffffffff1681525090565b6040518060800160405280600081526020016000815260200160008152602001600081525090565b6040518060a0016040528060008152602001600081526020016000815260200160008152602001600081525090565b600081519050615fad816170a9565b92915050565b600081519050615fc2816170c0565b92915050565b600081519050615fd7816170d7565b92915050565b600081519050615fec816170ee565b92915050565b60008135905061600181617105565b92915050565b6000815190506160168161711c565b92915050565b60008151905061602b81617133565b92915050565b6000815190506160408161714a565b92915050565b60008151905061605581617161565b92915050565b60008151905061606a81617178565b92915050565b60008151905061607f8161718f565b92915050565b6000610120828403121561609857600080fd5b6160a3610120616ee0565b905060006160b3848285016161ea565b60008301525060206160c7848285016161ea565b60208301525060406160db848285016161ea565b60408301525060606160ef848285016161ea565b6060830152506080616103848285016161ea565b60808301525060a061611784828501616229565b60a08301525060c061612b84828501616229565b60c08301525060e061613f84828501616229565b60e083015250610100616154848285016161ff565b6101008301525092915050565b60006080828403121561617357600080fd5b61617d6080616ee0565b9050600061618d848285016161ea565b60008301525060206161a1848285016161ea565b60208301525060406161b5848285016161ea565b60408301525060606161c9848285016161ea565b60608301525092915050565b6000813590506161e4816171a6565b92915050565b6000815190506161f9816171a6565b92915050565b60008151905061620e816171bd565b92915050565b600081359050616223816171d4565b92915050565b600081519050616238816171d4565b92915050565b60006020828403121561625057600080fd5b600061625e84828501615f9e565b91505092915050565b60006020828403121561627957600080fd5b600061628784828501615fb3565b91505092915050565b6000602082840312156162a257600080fd5b60006162b084828501615fc8565b91505092915050565b6000602082840312156162cb57600080fd5b60006162d984828501615fdd565b91505092915050565b6000602082840312156162f457600080fd5b600061630284828501615ff2565b91505092915050565b60006020828403121561631d57600080fd5b600061632b84828501616007565b91505092915050565b60006020828403121561634657600080fd5b60006163548482850161601c565b91505092915050565b60006020828403121561636f57600080fd5b600061637d84828501616031565b91505092915050565b60006020828403121561639857600080fd5b60006163a684828501616046565b91505092915050565b6000602082840312156163c157600080fd5b60006163cf8482850161605b565b91505092915050565b6000602082840312156163ea57600080fd5b60006163f884828501616070565b91505092915050565b6000610120828403121561641457600080fd5b600061642284828501616085565b91505092915050565b60006080828403121561643d57600080fd5b600061644b84828501616161565b91505092915050565b60006020828403121561646657600080fd5b6000616474848285016161d5565b91505092915050565b60006020828403121561648f57600080fd5b600061649d848285016161ea565b91505092915050565b6000602082840312156164b857600080fd5b60006164c684828501616214565b91505092915050565b6000602082840312156164e157600080fd5b60006164ef84828501616229565b91505092915050565b60008060006060848603121561650d57600080fd5b600061651b86828701616214565b935050602061652c868287016161d5565b925050604061653d868287016161d5565b9150509250925092565b6165508161703b565b82525050565b61655f81616f2d565b82525050565b61656e81616f3f565b82525050565b61657d8161704d565b82525050565b6000616590601883616f11565b91507f496e73756666696369656e7420636f6c6c61746572616c2e00000000000000006000830152602082019050919050565b60006165d0600d83616f22565b91507f64737250657263656e74616765000000000000000000000000000000000000006000830152600d82019050919050565b6000616610602083616f11565b91507f4d61726b65742f61646a757374446562743a2044656274206365696c696e672e6000830152602082019050919050565b6000616650600f83616f22565b91507f6d696e506f736974696f6e53697a6500000000000000000000000000000000006000830152600f82019050919050565b6000616690601983616f11565b91507f5468697320636f6e74726163742069732073746f707065642e000000000000006000830152602082019050919050565b60006166d0600e83616f11565b91507f556e6261636b656420646562742e0000000000000000000000000000000000006000830152602082019050919050565b6000616710601a83616f11565b91507f506172616d65746572732068617665206e6f206566666563742e0000000000006000830152602082019050919050565b6000616750602183616f11565b91507f4d61726b65742f706572696f6473426568696e643a2054696d65206572726f7260008301527f2e000000000000000000000000000000000000000000000000000000000000006020830152604082019050919050565b60006167b6600d83616f22565b91507f6d696e426f72726f7754696d65000000000000000000000000000000000000006000830152600d82019050919050565b60006167f6600f83616f11565b91507f4e6f7420417574686f72697a65642e00000000000000000000000000000000006000830152602082019050919050565b6000616836601283616f11565b91507f4163636f756e7420746f6f20736d616c6c2e00000000000000000000000000006000830152602082019050919050565b6000616876601c83616f22565b91507f636f6c6c61746572616c697a6174696f6e526571756972656d656e74000000006000830152601c82019050919050565b60006168b6600783616f22565b91507f6d617844656274000000000000000000000000000000000000000000000000006000830152600782019050919050565b60006168f6601483616f11565b91507f4e6f206465627420746f20706179206261636b2e0000000000000000000000006000830152602082019050919050565b6000616936601583616f11565b91507f466c61736820626f72726f77206f6e20436f696e2e00000000000000000000006000830152602082019050919050565b610120820160008201516169806000850182616a75565b5060208201516169936020850182616a75565b5060408201516169a66040850182616a75565b5060608201516169b96060850182616a75565b5060808201516169cc6080850182616a75565b5060a08201516169df60a0850182616ab1565b5060c08201516169f260c0850182616ab1565b5060e0820151616a0560e0850182616ab1565b50610100820151616a1a610100850182616a93565b50505050565b608082016000820151616a366000850182616a75565b506020820151616a496020850182616a75565b506040820151616a5c6040850182616a75565b506060820151616a6f6060850182616a75565b50505050565b616a7e8161700d565b82525050565b616a8d8161700d565b82525050565b616a9c81617017565b82525050565b616aab81617095565b82525050565b616aba81617027565b82525050565b616ac981617027565b82525050565b6000616ada826165c3565b9150819050919050565b6000616aef82616643565b9150819050919050565b6000616b04826167a9565b9150819050919050565b6000616b1982616869565b9150819050919050565b6000616b2e826168a9565b9150819050919050565b6000602082019050616b4d6000830184616556565b92915050565b6000602082019050616b686000830184616547565b92915050565b6000606082019050616b836000830186616547565b616b906020830185616556565b616b9d6040830184616a84565b949350505050565b6000604082019050616bba6000830185616547565b616bc76020830184616a84565b9392505050565b6000604082019050616be36000830185616547565b616bf06020830184616aa2565b9392505050565b6000604082019050616c0c6000830185616556565b616c196020830184616a84565b9392505050565b6000602082019050616c356000830184616574565b92915050565b60006020820190508181036000830152616c5481616583565b9050919050565b60006020820190508181036000830152616c7481616603565b9050919050565b60006020820190508181036000830152616c9481616683565b9050919050565b60006020820190508181036000830152616cb4816166c3565b9050919050565b60006020820190508181036000830152616cd481616703565b9050919050565b60006020820190508181036000830152616cf481616743565b9050919050565b60006020820190508181036000830152616d14816167e9565b9050919050565b60006020820190508181036000830152616d3481616829565b9050919050565b60006020820190508181036000830152616d54816168e9565b9050919050565b60006020820190508181036000830152616d7481616929565b9050919050565b600061012082019050616d916000830184616969565b92915050565b6000608082019050616dac6000830184616a20565b92915050565b6000602082019050616dc76000830184616a84565b92915050565b6000604082019050616de26000830185616a84565b616def6020830184616565565b9392505050565b6000604082019050616e0b6000830185616a84565b616e186020830184616a84565b9392505050565b6000602082019050616e346000830184616ac0565b92915050565b6000606082019050616e4f6000830186616ac0565b616e5c6020830185616556565b616e696040830184616a84565b949350505050565b600061014082019050616e876000830185616ac0565b616e946020830184616969565b9392505050565b6000608082019050616eb06000830187616ac0565b616ebd6020830186616a84565b616eca6040830185616a84565b616ed76060830184616a84565b95945050505050565b6000604051905081810181811067ffffffffffffffff82111715616f0757616f066170a7565b5b8060405250919050565b600082825260208201905092915050565b600081905092915050565b6000616f3882616fed565b9050919050565b60008115159050919050565b6000616f5682616f2d565b9050919050565b6000616f6882616f2d565b9050919050565b6000616f7a82616f2d565b9050919050565b6000616f8c82616f2d565b9050919050565b6000616f9e82616f2d565b9050919050565b6000616fb082616f2d565b9050919050565b6000616fc282616f2d565b9050919050565b6000616fd482616f2d565b9050919050565b6000616fe682616f2d565b9050919050565b600073ffffffffffffffffffffffffffffffffffffffff82169050919050565b6000819050919050565b600063ffffffff82169050919050565b600067ffffffffffffffff82169050919050565b600061704682617071565b9050919050565b60006170588261705f565b9050919050565b600061706a82616fed565b9050919050565b600061707c82617083565b9050919050565b600061708e82616fed565b9050919050565b60006170a082617027565b9050919050565bfe5b6170b281616f2d565b81146170bd57600080fd5b50565b6170c981616f3f565b81146170d457600080fd5b50565b6170e081616f4b565b81146170eb57600080fd5b50565b6170f781616f5d565b811461710257600080fd5b50565b61710e81616f6f565b811461711957600080fd5b50565b61712581616f81565b811461713057600080fd5b50565b61713c81616f93565b811461714757600080fd5b50565b61715381616fa5565b811461715e57600080fd5b50565b61716a81616fb7565b811461717557600080fd5b50565b61718181616fc9565b811461718c57600080fd5b50565b61719881616fdb565b81146171a357600080fd5b50565b6171af8161700d565b81146171ba57600080fd5b50565b6171c681617017565b81146171d157600080fd5b50565b6171dd81617027565b81146171e857600080fd5b5056fe536166654d6174683a206d756c7469706c69636174696f6e206f766572666c6f772e476f7665726e65643a204e6f7420617661696c61626c6520647572696e672073687574646f776e2e536166654d6174683a206d756c7469706c69636174696f6e206f766572666c6f7753616665436173743a2076616c756520646f65736e27742066697420696e2036342062697473a2646970667358221220f358d937567ed42f6aa778b06e950bd08f8a4b45f7806f10a86fbd0ce4b61b8564736f6c6343000704003353616665436173743a2076616c756520646f65736e27742066697420696e2036342062697473",
  "linkReferences": {},
  "deployedLinkReferences": {}
}