{
  "_format": "hh-sol-artifact-1",
  "contractName": "Settlement",
  "sourceName": "contracts/core/logic/Settlement.sol",
  "abi": [
    {
      "inputs": [
        {
          "internalType": "contract IPriceProvider",
          "name": "_ethPriceProvider",
          "type": "address"
        }
      ],
      "stateMutability": "nonpayable",
      "type": "constructor"
    },
    {
      "anonymous": false,
      "inputs": [
        {
          "indexed": true,
          "internalType": "address",
          "name": "governor",
          "type": "address"
        }
      ],
      "name": "Initialized",
      "type": "event"
    },
    {
      "anonymous": false,
      "inputs": [
        {
          "indexed": true,
          "internalType": "address",
          "name": "account",
          "type": "address"
        }
      ],
      "name": "NoConfidenceConfirmed",
      "type": "event"
    },
    {
      "anonymous": false,
      "inputs": [
        {
          "indexed": true,
          "internalType": "string",
          "name": "paramName",
          "type": "string"
        },
        {
          "indexed": true,
          "internalType": "address",
          "name": "_address",
          "type": "address"
        }
      ],
      "name": "ParameterUpdatedAddress",
      "type": "event"
    },
    {
      "anonymous": false,
      "inputs": [
        {
          "indexed": true,
          "internalType": "uint64",
          "name": "positionID",
          "type": "uint64"
        },
        {
          "indexed": true,
          "internalType": "address",
          "name": "caller",
          "type": "address"
        },
        {
          "indexed": false,
          "internalType": "uint256",
          "name": "hueCount",
          "type": "uint256"
        },
        {
          "indexed": false,
          "internalType": "uint256",
          "name": "collateralCount",
          "type": "uint256"
        }
      ],
      "name": "SettlementCollateralForHue",
      "type": "event"
    },
    {
      "anonymous": false,
      "inputs": [
        {
          "indexed": false,
          "internalType": "uint256",
          "name": "settlementDiscoveryStartTime",
          "type": "uint256"
        }
      ],
      "name": "SettlementInitialized",
      "type": "event"
    },
    {
      "anonymous": false,
      "inputs": [
        {
          "indexed": true,
          "internalType": "uint64",
          "name": "positionID",
          "type": "uint64"
        },
        {
          "indexed": true,
          "internalType": "address",
          "name": "owner",
          "type": "address"
        },
        {
          "indexed": false,
          "internalType": "uint256",
          "name": "collateralToWithdraw",
          "type": "uint256"
        }
      ],
      "name": "SettlementWithdrawCollateral",
      "type": "event"
    },
    {
      "anonymous": false,
      "inputs": [
        {
          "indexed": true,
          "internalType": "address",
          "name": "account",
          "type": "address"
        },
        {
          "indexed": false,
          "internalType": "uint256",
          "name": "count",
          "type": "uint256"
        }
      ],
      "name": "StakedNoConfidenceTokens",
      "type": "event"
    },
    {
      "anonymous": false,
      "inputs": [],
      "name": "Stopped",
      "type": "event"
    },
    {
      "anonymous": false,
      "inputs": [
        {
          "indexed": true,
          "internalType": "address",
          "name": "account",
          "type": "address"
        },
        {
          "indexed": false,
          "internalType": "uint256",
          "name": "count",
          "type": "uint256"
        }
      ],
      "name": "UnstakedNoConfidenceTokens",
      "type": "event"
    },
    {
      "inputs": [],
      "name": "SETTLEMENT_PRICE_NO_CONFIDENCE_THRESHOLD",
      "outputs": [
        {
          "internalType": "uint256",
          "name": "",
          "type": "uint256"
        }
      ],
      "stateMutability": "view",
      "type": "function"
    },
    {
      "inputs": [],
      "name": "confirmNoPriceConfidence",
      "outputs": [],
      "stateMutability": "nonpayable",
      "type": "function"
    },
    {
      "inputs": [],
      "name": "confirmPrice",
      "outputs": [],
      "stateMutability": "nonpayable",
      "type": "function"
    },
    {
      "inputs": [],
      "name": "deployer",
      "outputs": [
        {
          "internalType": "address",
          "name": "",
          "type": "address"
        }
      ],
      "stateMutability": "view",
      "type": "function"
    },
    {
      "inputs": [],
      "name": "ethPriceProvider",
      "outputs": [
        {
          "internalType": "contract IPriceProvider",
          "name": "",
          "type": "address"
        }
      ],
      "stateMutability": "view",
      "type": "function"
    },
    {
      "inputs": [
        {
          "internalType": "uint64",
          "name": "positionID",
          "type": "uint64"
        },
        {
          "internalType": "uint256",
          "name": "hueCount",
          "type": "uint256"
        }
      ],
      "name": "getCollateralForHue",
      "outputs": [],
      "stateMutability": "nonpayable",
      "type": "function"
    },
    {
      "inputs": [],
      "name": "getRecentPrice",
      "outputs": [
        {
          "internalType": "uint256",
          "name": "ethPrice",
          "type": "uint256"
        }
      ],
      "stateMutability": "view",
      "type": "function"
    },
    {
      "inputs": [],
      "name": "governor",
      "outputs": [
        {
          "internalType": "contract IGovernor",
          "name": "",
          "type": "address"
        }
      ],
      "stateMutability": "view",
      "type": "function"
    },
    {
      "inputs": [
        {
          "internalType": "contract IGovernor",
          "name": "_governor",
          "type": "address"
        }
      ],
      "name": "init",
      "outputs": [],
      "stateMutability": "nonpayable",
      "type": "function"
    },
    {
      "inputs": [],
      "name": "initializeSettlement",
      "outputs": [],
      "stateMutability": "nonpayable",
      "type": "function"
    },
    {
      "inputs": [
        {
          "internalType": "address",
          "name": "",
          "type": "address"
        }
      ],
      "name": "noPriceConfidenceUserVotes",
      "outputs": [
        {
          "internalType": "uint256",
          "name": "",
          "type": "uint256"
        }
      ],
      "stateMutability": "view",
      "type": "function"
    },
    {
      "inputs": [],
      "name": "priceConfidence",
      "outputs": [
        {
          "internalType": "bool",
          "name": "",
          "type": "bool"
        }
      ],
      "stateMutability": "view",
      "type": "function"
    },
    {
      "inputs": [],
      "name": "priceDiscoveryStartTime",
      "outputs": [
        {
          "internalType": "uint64",
          "name": "",
          "type": "uint64"
        }
      ],
      "stateMutability": "view",
      "type": "function"
    },
    {
      "inputs": [
        {
          "internalType": "contract IPriceProvider",
          "name": "provider",
          "type": "address"
        }
      ],
      "name": "setEthPriceProvider",
      "outputs": [],
      "stateMutability": "nonpayable",
      "type": "function"
    },
    {
      "inputs": [],
      "name": "settlementPrice",
      "outputs": [
        {
          "internalType": "uint256",
          "name": "",
          "type": "uint256"
        }
      ],
      "stateMutability": "view",
      "type": "function"
    },
    {
      "inputs": [],
      "name": "settlementStage",
      "outputs": [
        {
          "internalType": "enum ISettlement.SettlementStage",
          "name": "",
          "type": "uint8"
        }
      ],
      "stateMutability": "view",
      "type": "function"
    },
    {
      "inputs": [
        {
          "internalType": "uint256",
          "name": "countTCPToStake",
          "type": "uint256"
        }
      ],
      "name": "stakeTokensForNoPriceConfidence",
      "outputs": [],
      "stateMutability": "nonpayable",
      "type": "function"
    },
    {
      "inputs": [],
      "name": "stop",
      "outputs": [],
      "stateMutability": "nonpayable",
      "type": "function"
    },
    {
      "inputs": [],
      "name": "stopped",
      "outputs": [
        {
          "internalType": "bool",
          "name": "",
          "type": "bool"
        }
      ],
      "stateMutability": "view",
      "type": "function"
    },
    {
      "inputs": [],
      "name": "tcp",
      "outputs": [
        {
          "internalType": "contract ITCP",
          "name": "",
          "type": "address"
        }
      ],
      "stateMutability": "view",
      "type": "function"
    },
    {
      "inputs": [],
      "name": "thresholdMet",
      "outputs": [
        {
          "internalType": "bool",
          "name": "",
          "type": "bool"
        }
      ],
      "stateMutability": "view",
      "type": "function"
    },
    {
      "inputs": [],
      "name": "unstakeTokensForNoPriceConfidence",
      "outputs": [],
      "stateMutability": "nonpayable",
      "type": "function"
    },
    {
      "inputs": [
        {
          "internalType": "bytes4",
          "name": "",
          "type": "bytes4"
        }
      ],
      "name": "validUpdate",
      "outputs": [
        {
          "internalType": "bool",
          "name": "",
          "type": "bool"
        }
      ],
      "stateMutability": "view",
      "type": "function"
    },
    {
      "inputs": [
        {
          "internalType": "uint64",
          "name": "positionID",
          "type": "uint64"
        }
      ],
      "name": "withdrawCollateral",
      "outputs": [],
      "stateMutability": "nonpayable",
      "type": "function"
    }
  ],
  "bytecode": "0x6080604052600160066000509090556001600960146101000a81548160ff0219169083151502179055507fffffffffffffffffffffffffffffffffffffffffffffffffffffffffffffffff600b600050909055348015620000605760006000fd5b5060405162003c1a38038062003c1a833981810160405281019062000086919062000118565b5b5b33600160006101000a81548173ffffffffffffffffffffffffffffffffffffffff021916908373ffffffffffffffffffffffffffffffffffffffff1602179055505b80600760006101000a81548173ffffffffffffffffffffffffffffffffffffffff021916908373ffffffffffffffffffffffffffffffffffffffff1602179055505b506200014f566200014e565b6000602082840312156200012a578081fd5b81516001600160a01b0381168114151562000143578182fd5b809150505b92915050565b5b613abb806200015f6000396000f3fe60806040523480156100115760006000fd5b506004361061019d5760003560e01c806378e8f96e116100e4578063db7f7f1d1161008d578063e4e9bcca11610067578063e4e9bcca146103e5578063f214a2a214610401578063f348e8b21461040b5761019d565b8063db7f7f1d146103b3578063e2083a89146103bd578063e41f7dc1146103c75761019d565b8063997aba1a116100be578063997aba1a1461036d578063bde5cdb11461038b578063d5f39488146103955761019d565b806378e8f96e146103015780639410eb861461031f57806398cd845b1461033d5761019d565b806336fc02f4116101465780635130e763116101205780635130e763146102a957806356850960146102c757806375f12b21146102e35761019d565b806336fc02f4146102515780633ee8b30f1461026f57806342c5ddc41461028b5761019d565b806315b7ef9b1161017757806315b7ef9b146101fb57806319ab453c1461021957806335a12e45146102355761019d565b806307da68f5146101a35780630c340a24146101ad578063113cf1ab146101cb5761019d565b60006000fd5b6101ab610429565b005b6101b5610449565b6040516101c29190613531565b60405180910390f35b6101e560048036038101906101e09190613010565b61046f565b6040516101f2919061351d565b60405180910390f35b610203610494565b60405161021091906138bb565b60405180910390f35b610233600480360381019061022e91906130ab565b6106cb565b005b61024f600480360381019061024a91906132a3565b610add565b005b610259610c86565b6040516102669190613581565b60405180910390f35b61028960048036038101906102849190613329565b610cac565b005b610293611188565b6040516102a0919061351d565b60405180910390f35b6102b16112ff565b6040516102be919061351d565b60405180910390f35b6102e160048036038101906102dc91906132db565b611312565b005b6102eb6118e6565b6040516102f8919061351d565b60405180910390f35b6103096118f9565b60405161031691906135a9565b60405180910390f35b610327611a83565b60405161033491906138bb565b60405180910390f35b61035760048036038101906103529190612f9f565b611a8f565b60405161036491906138bb565b60405180910390f35b610375611aaa565b6040516103829190613902565b60405180910390f35b610393611ac4565b005b61039d611b0d565b6040516103aa919061345e565b60405180910390f35b6103bb611b33565b005b6103c5611c0a565b005b6103cf611d96565b6040516103dc9190613559565b60405180910390f35b6103ff60048036038101906103fa9190613147565b611dbc565b005b610409611f88565b005b61041361223c565b60405161042091906138bb565b60405180910390f35b61043761224563ffffffff16565b6104456122da63ffffffff16565b5b5b565b600060009054906101000a900473ffffffffffffffffffffffffffffffffffffffff1681565b600560005060205280600052604060002060009150909054906101000a900460ff1681565b600060006000600760009054906101000a900473ffffffffffffffffffffffffffffffffffffffff1673ffffffffffffffffffffffffffffffffffffffff1663feaf968c6040518163ffffffff1660e01b815260040160a06040518083038186803b1580156105035760006000fd5b505afa158015610518573d600060003e3d6000fd5b505050506040513d601f19601f8201168201806040525081019061053c919061335a565b5093505092505061055161232463ffffffff16565b67ffffffffffffffff16610570610e108361233f90919063ffffffff16565b1115156105b2576040517f08c379a00000000000000000000000000000000000000000000000000000000081526004016105a9906135c7565b60405180910390fd5b6000821315156105f7576040517f08c379a00000000000000000000000000000000000000000000000000000000081526004016105ee90613780565b60405180910390fd5b6106c1600760009054906101000a900473ffffffffffffffffffffffffffffffffffffffff1673ffffffffffffffffffffffffffffffffffffffff1663313ce5676040518163ffffffff1660e01b815260040160206040518083038186803b1580156106635760006000fd5b505afa158015610678573d600060003e3d6000fd5b505050506040513d601f19601f8201168201806040525081019061069c91906133ac565b60ff16600a0a6106b3846123c8909063ffffffff16565b61245390919063ffffffff16565b9250825050505b90565b600160009054906101000a900473ffffffffffffffffffffffffffffffffffffffff1673ffffffffffffffffffffffffffffffffffffffff163373ffffffffffffffffffffffffffffffffffffffff161415156107285760006000fd5b600160159054906101000a900460ff161515156107455760006000fd5b80600060006101000a81548173ffffffffffffffffffffffffffffffffffffffff021916908373ffffffffffffffffffffffffffffffffffffffff160217905550600060009054906101000a900473ffffffffffffffffffffffffffffffffffffffff1673ffffffffffffffffffffffffffffffffffffffff16639624e83e6040518163ffffffff1660e01b815260040160206040518083038186803b1580156107ef5760006000fd5b505afa158015610804573d600060003e3d6000fd5b505050506040513d601f19601f82011682018060405250810190610828919061305d565b600260006101000a81548173ffffffffffffffffffffffffffffffffffffffff021916908373ffffffffffffffffffffffffffffffffffffffff160217905550600060009054906101000a900473ffffffffffffffffffffffffffffffffffffffff1673ffffffffffffffffffffffffffffffffffffffff1663323741746040518163ffffffff1660e01b815260040160206040518083038186803b1580156108d15760006000fd5b505afa1580156108e6573d600060003e3d6000fd5b505050506040513d601f19601f8201168201806040525081019061090a91906130d2565b600360006101000a81548173ffffffffffffffffffffffffffffffffffffffff021916908373ffffffffffffffffffffffffffffffffffffffff160217905550600060009054906101000a900473ffffffffffffffffffffffffffffffffffffffff1673ffffffffffffffffffffffffffffffffffffffff1663d478b0876040518163ffffffff1660e01b815260040160206040518083038186803b1580156109b35760006000fd5b505afa1580156109c8573d600060003e3d6000fd5b505050506040513d601f19601f820116820180604052508101906109ec919061316e565b600460006101000a81548173ffffffffffffffffffffffffffffffffffffffff021916908373ffffffffffffffffffffffffffffffffffffffff160217905550610a3a61247963ffffffff16565b600160149054906101000a900460ff161515610a7a57600160006101000a81549073ffffffffffffffffffffffffffffffffffffffff0219169055610a96565b6001600160156101000a81548160ff0219169083151502179055505b8073ffffffffffffffffffffffffffffffffffffffff167f908408e307fc569b417f6cbec5d5a06f44a0a505ac0479b47d421a4b2fd6a1e660405160405180910390a25b50565b610aeb6125d263ffffffff16565b610afb60036126b163ffffffff16565b600081111515610b40576040517f08c379a0000000000000000000000000000000000000000000000000000000008152600401610b37906136c3565b60405180910390fd5b610b9881600a60005060003373ffffffffffffffffffffffffffffffffffffffff1673ffffffffffffffffffffffffffffffffffffffff1681526020019081526020016000206000505461233f90919063ffffffff16565b600a60005060003373ffffffffffffffffffffffffffffffffffffffff1673ffffffffffffffffffffffffffffffffffffffff168152602001908152602001600020600050819090905550610c17600960009054906101000a900473ffffffffffffffffffffffffffffffffffffffff1633308461271c63ffffffff16565b610c2561294763ffffffff16565b3373ffffffffffffffffffffffffffffffffffffffff167fedbb4f9340677b55be1420c0b8b3bac9f5b41e08db266f57cfd8befc9fe480d582604051610c6b91906138bb565b60405180910390a25b610c826129f863ffffffff16565b5b50565b600960009054906101000a900473ffffffffffffffffffffffffffffffffffffffff1681565b610cba6125d263ffffffff16565b610cca60066126b163ffffffff16565b6000600060009054906101000a900473ffffffffffffffffffffffffffffffffffffffff1673ffffffffffffffffffffffffffffffffffffffff166380f556056040518163ffffffff1660e01b815260040160206040518083038186803b158015610d355760006000fd5b505afa158015610d4a573d600060003e3d6000fd5b505050506040513d601f19601f82011682018060405250810190610d6e91906130f9565b73ffffffffffffffffffffffffffffffffffffffff1663eb6843ce846040518263ffffffff1660e01b8152600401610da69190613902565b6101a060405180830381600087803b158015610dc25760006000fd5b505af1158015610dd7573d600060003e3d6000fd5b505050506040513d601f19601f82011682018060405250810190610dfb91906131bc565b905081816040015110151515610e46576040517f08c379a0000000000000000000000000000000000000000000000000000000008152600401610e3d906137fe565b60405180910390fd5b6000610e606008600050548461245390919063ffffffff16565b905080826020015110151515610eab576040517f08c379a0000000000000000000000000000000000000000000000000000000008152600401610ea29061383d565b60405180910390fd5b808260200181815103915090908181526020015050828260400181815103915090908181526020015050600260009054906101000a900473ffffffffffffffffffffffffffffffffffffffff1673ffffffffffffffffffffffffffffffffffffffff16635a6beaf485846040518363ffffffff1660e01b8152600401610f3292919061391e565b600060405180830381600087803b158015610f4d5760006000fd5b505af1158015610f62573d600060003e3d6000fd5b50505050600260009054906101000a900473ffffffffffffffffffffffffffffffffffffffff1673ffffffffffffffffffffffffffffffffffffffff16632a7ba1f7846040518263ffffffff1660e01b8152600401610fc191906138bb565b600060405180830381600087803b158015610fdc5760006000fd5b505af1158015610ff1573d600060003e3d6000fd5b50505050600360009054906101000a900473ffffffffffffffffffffffffffffffffffffffff1673ffffffffffffffffffffffffffffffffffffffff166379cc679033856040518363ffffffff1660e01b81526004016110529291906134b5565b600060405180830381600087803b15801561106d5760006000fd5b505af1158015611082573d600060003e3d6000fd5b50505050600260009054906101000a900473ffffffffffffffffffffffffffffffffffffffff1673ffffffffffffffffffffffffffffffffffffffff16636250216933836040518363ffffffff1660e01b81526004016110e3929190613486565b600060405180830381600087803b1580156110fe5760006000fd5b505af1158015611113573d600060003e3d6000fd5b505050503373ffffffffffffffffffffffffffffffffffffffff168467ffffffffffffffff167f0d5247bd1efbd67f96fc7a1e9a2a62a42dc9f0279ff6711038be53633079f3f9858460405161116a9291906138cd565b60405180910390a350505b6111836129f863ffffffff16565b5b5050565b600061124667016345785d8a0000600960009054906101000a900473ffffffffffffffffffffffffffffffffffffffff1673ffffffffffffffffffffffffffffffffffffffff166318160ddd6040518163ffffffff1660e01b815260040160206040518083038186803b1580156111ff5760006000fd5b505afa158015611214573d600060003e3d6000fd5b505050506040513d601f19601f8201168201806040525081019061123891906132bf565b612a8c90919063ffffffff16565b600960009054906101000a900473ffffffffffffffffffffffffffffffffffffffff1673ffffffffffffffffffffffffffffffffffffffff166370a08231306040518263ffffffff1660e01b81526004016112a1919061345e565b60206040518083038186803b1580156112ba5760006000fd5b505afa1580156112cf573d600060003e3d6000fd5b505050506040513d601f19601f820116820180604052508101906112f391906132bf565b101590506112fc565b90565b600960149054906101000a900460ff1681565b6113206125d263ffffffff16565b61133060066126b163ffffffff16565b6000600060009054906101000a900473ffffffffffffffffffffffffffffffffffffffff1673ffffffffffffffffffffffffffffffffffffffff1663a89f51ae6040518163ffffffff1660e01b815260040160206040518083038186803b15801561139b5760006000fd5b505afa1580156113b0573d600060003e3d6000fd5b505050506040513d601f19601f820116820180604052508101906113d49190613120565b90508073ffffffffffffffffffffffffffffffffffffffff1663430c208133846040518363ffffffff1660e01b81526004016114119291906134e4565b60206040518083038186803b15801561142a5760006000fd5b505afa15801561143f573d600060003e3d6000fd5b505050506040513d601f19601f820116820180604052508101906114639190612fed565b15156114a4576040517f08c379a000000000000000000000000000000000000000000000000000000000815260040161149b90613684565b60405180910390fd5b6000600060009054906101000a900473ffffffffffffffffffffffffffffffffffffffff1673ffffffffffffffffffffffffffffffffffffffff166380f556056040518163ffffffff1660e01b815260040160206040518083038186803b15801561150f5760006000fd5b505afa158015611524573d600060003e3d6000fd5b505050506040513d601f19601f8201168201806040525081019061154891906130f9565b73ffffffffffffffffffffffffffffffffffffffff1663eb6843ce846040518263ffffffff1660e01b81526004016115809190613902565b6101a060405180830381600087803b15801561159c5760006000fd5b505af11580156115b1573d600060003e3d6000fd5b505050506040513d601f19601f820116820180604052508101906115d591906131bc565b905060008160200151111515611620576040517f08c379a000000000000000000000000000000000000000000000000000000000815260040161161790613741565b60405180910390fd5b600060009050600082604001511415611641578160200151905080506116b6565b600061165f600860005054846040015161245390919063ffffffff16565b90508260200151811015156116a9576040517f08c379a00000000000000000000000000000000000000000000000000000000081526004016116a0906137bf565b60405180910390fd5b8083602001510391508150505b808260200181815103915090908181526020015050600260009054906101000a900473ffffffffffffffffffffffffffffffffffffffff1673ffffffffffffffffffffffffffffffffffffffff16635a6beaf485846040518363ffffffff1660e01b815260040161172892919061391e565b600060405180830381600087803b1580156117435760006000fd5b505af1158015611758573d600060003e3d6000fd5b50505050600260009054906101000a900473ffffffffffffffffffffffffffffffffffffffff1673ffffffffffffffffffffffffffffffffffffffff1663625021698473ffffffffffffffffffffffffffffffffffffffff16636352211e876040518263ffffffff1660e01b81526004016117d391906138e6565b60206040518083038186803b1580156117ec5760006000fd5b505afa158015611801573d600060003e3d6000fd5b505050506040513d601f19601f820116820180604052508101906118259190612fc6565b836040518363ffffffff1660e01b8152600401611843929190613486565b600060405180830381600087803b15801561185e5760006000fd5b505af1158015611873573d600060003e3d6000fd5b505050503373ffffffffffffffffffffffffffffffffffffffff168467ffffffffffffffff167fea981567b9c640fd744f52ff99859dc343bdb3752f8f6542b014a546ffa0863b836040516118c891906138bb565b60405180910390a35050505b6118e26129f863ffffffff16565b5b50565b600060149054906101000a900460ff1681565b6000600060149054906101000a900460ff16156119195760009050611a80565b600060009054906101000a900473ffffffffffffffffffffffffffffffffffffffff1673ffffffffffffffffffffffffffffffffffffffff1663bf86d6906040518163ffffffff1660e01b815260040160206040518083038186803b1580156119825760006000fd5b505afa158015611997573d600060003e3d6000fd5b505050506040513d601f19601f820116820180604052508101906119bb9190612fed565b15156119ca5760019050611a80565b6000600960159054906101000a900467ffffffffffffffff1667ffffffffffffffff1614156119fc5760029050611a80565b600960159054906101000a900467ffffffffffffffff1667ffffffffffffffff16611a2b61232463ffffffff16565b67ffffffffffffffff161015611a445760039050611a80565b60006008600050541115611a5b5760069050611a80565b600960149054906101000a900460ff16611a76576004611a79565b60055b9050611a80565b90565b67016345785d8a000081565b600a6000506020528060005260406000206000915090505481565b600960159054906101000a900467ffffffffffffffff1681565b611ad26125d263ffffffff16565b611ae260056126b163ffffffff16565b611af061049463ffffffff16565b60086000508190909055505b611b0a6129f863ffffffff16565b5b565b600160009054906101000a900473ffffffffffffffffffffffffffffffffffffffff1681565b611b416125d263ffffffff16565b611b5160036126b163ffffffff16565b43600b60005054101515611b9a576040517f08c379a0000000000000000000000000000000000000000000000000000000008152600401611b919061387c565b60405180910390fd5b6000600960146101000a81548160ff0219169083151502179055503373ffffffffffffffffffffffffffffffffffffffff167fcaf37a95bc2985ab407c11d2c65eb92feb22c303997f953e8b2f33a86533ea7a60405160405180910390a25b611c076129f863ffffffff16565b5b565b611c186125d263ffffffff16565b6000600a60005060003373ffffffffffffffffffffffffffffffffffffffff1673ffffffffffffffffffffffffffffffffffffffff168152602001908152602001600020600050549050600081111515611ca7576040517f08c379a0000000000000000000000000000000000000000000000000000000008152600401611c9e90613606565b60405180910390fd5b6000600a60005060003373ffffffffffffffffffffffffffffffffffffffff1673ffffffffffffffffffffffffffffffffffffffff168152602001908152602001600020600050819090905550611d27600960009054906101000a900473ffffffffffffffffffffffffffffffffffffffff163383612ab263ffffffff16565b611d3561294763ffffffff16565b3373ffffffffffffffffffffffffffffffffffffffff167f02cdad8fe595d5f15cdf217aa61a8d7002f148da0abc88d26a93eb3122cf0d5982604051611d7b91906138bb565b60405180910390a2505b611d936129f863ffffffff16565b5b565b600760009054906101000a900473ffffffffffffffffffffffffffffffffffffffff1681565b611dca61224563ffffffff16565b8073ffffffffffffffffffffffffffffffffffffffff1663313ce5676040518163ffffffff1660e01b815260040160206040518083038186803b158015611e115760006000fd5b505afa158015611e26573d600060003e3d6000fd5b505050506040513d601f19601f82011682018060405250810190611e4a91906133ac565b508073ffffffffffffffffffffffffffffffffffffffff1663feaf968c6040518163ffffffff1660e01b815260040160a06040518083038186803b158015611e925760006000fd5b505afa158015611ea7573d600060003e3d6000fd5b505050506040513d601f19601f82011682018060405250810190611ecb919061335a565b505050505080600760006101000a81548173ffffffffffffffffffffffffffffffffffffffff021916908373ffffffffffffffffffffffffffffffffffffffff1602179055506001600960146101000a81548160ff0219169083151502179055508073ffffffffffffffffffffffffffffffffffffffff16604051611f4f9061342d565b60405180910390207f78caada2f560033c9479d8c5e33f045f2e611faebe6b6d8a73874c80ec2dd3a260405160405180910390a35b5b50565b611f966125d263ffffffff16565b611fa660026126b163ffffffff16565b6000600060009054906101000a900473ffffffffffffffffffffffffffffffffffffffff1673ffffffffffffffffffffffffffffffffffffffff166385aa61036040518163ffffffff1660e01b815260040160206040518083038186803b1580156120115760006000fd5b505afa158015612026573d600060003e3d6000fd5b505050506040513d601f19601f8201168201806040525081019061204a9190613084565b73ffffffffffffffffffffffffffffffffffffffff16631b8757686040518163ffffffff1660e01b815260040160206040518083038186803b1580156120905760006000fd5b505afa1580156120a5573d600060003e3d6000fd5b505050506040513d601f19601f820116820180604052508101906120c99190613302565b9050600061218e6202a300600060009054906101000a900473ffffffffffffffffffffffffffffffffffffffff1673ffffffffffffffffffffffffffffffffffffffff1663585690816040518163ffffffff1660e01b815260040160206040518083038186803b15801561213d5760006000fd5b505afa158015612152573d600060003e3d6000fd5b505050506040513d601f19601f820116820180604052508101906121769190613302565b67ffffffffffffffff16612cbe90919063ffffffff16565b90508067ffffffffffffffff168267ffffffffffffffff16106121b157816121b3565b805b600960156101000a81548167ffffffffffffffff021916908367ffffffffffffffff1602179055507f34bf3e2c7325e60cfaee127ed77fc0af0b6f642909e032bac8eab42419e22ca7600960159054906101000a900467ffffffffffffffff1660405161222091906138e6565b60405180910390a150505b6122396129f863ffffffff16565b5b565b60086000505481565b600060009054906101000a900473ffffffffffffffffffffffffffffffffffffffff1673ffffffffffffffffffffffffffffffffffffffff163373ffffffffffffffffffffffffffffffffffffffff161415156122d7576040517f08c379a00000000000000000000000000000000000000000000000000000000081526004016122ce90613684565b60405180910390fd5b5b565b6001600060146101000a81548160ff0219169083151502179055507f7acc84e34091ae817647a4c49116f5cc07f319078ba80f8f5fde37ea7e25cbd660405160405180910390a15b565b600061233742612d5b909063ffffffff16565b905080505b90565b600082828401915081101515156123c1576040517f08c379a000000000000000000000000000000000000000000000000000000000815260040180806020018281038252600c8152602001807f6164642d6f766572666c6f77000000000000000000000000000000000000000081526020015060200191505060405180910390fd5b5b92915050565b600060008212151515612446576040517f08c379a00000000000000000000000000000000000000000000000000000000081526004018080602001828103825260128152602001807f76616c7565206e6f7420706f736974697665000000000000000000000000000081526020015060200191505060405180910390fd5b81905061244e565b919050565b600061246e83670de0b6b3a764000084612ded63ffffffff16565b905080505b92915050565b600060009054906101000a900473ffffffffffffffffffffffffffffffffffffffff1673ffffffffffffffffffffffffffffffffffffffff166336fc02f46040518163ffffffff1660e01b815260040160206040518083038186803b1580156124e25760006000fd5b505afa1580156124f7573d600060003e3d6000fd5b505050506040513d601f19601f8201168201806040525081019061251b9190613195565b600960006101000a81548173ffffffffffffffffffffffffffffffffffffffff021916908373ffffffffffffffffffffffffffffffffffffffff16021790555060016005600050600063e4e9bcca60e01b7bffffffffffffffffffffffffffffffffffffffffffffffffffffffff19167bffffffffffffffffffffffffffffffffffffffffffffffffffffffff1916815260200190815260200160002060006101000a81548160ff0219169083151502179055505b565b600460009054906101000a900473ffffffffffffffffffffffffffffffffffffffff1673ffffffffffffffffffffffffffffffffffffffff1663e97dcb626040518163ffffffff1660e01b8152600401600060405180830381600087803b15801561263d5760006000fd5b505af1158015612652573d600060003e3d6000fd5b505050506002600660005054141515156126a1576040517f08c379a000000000000000000000000000000000000000000000000000000000815260040161269890613702565b60405180910390fd5b600260066000508190909055505b565b8060068111156126bd57fe5b6126cb6118f963ffffffff16565b60068111156126d657fe5b141515612718576040517f08c379a000000000000000000000000000000000000000000000000000000000815260040161270f90613645565b60405180910390fd5b5b50565b600060008573ffffffffffffffffffffffffffffffffffffffff166323b872dd60e01b868686604051602401808473ffffffffffffffffffffffffffffffffffffffff1681526020018373ffffffffffffffffffffffffffffffffffffffff1681526020018281526020019350505050604051602081830303815290604052907bffffffffffffffffffffffffffffffffffffffffffffffffffffffff19166020820180517bffffffffffffffffffffffffffffffffffffffffffffffffffffffff83818316178352505050506040518082805190602001908083835b60208310151561281f57805182525b6020820191506020810190506020830392506127f9565b6001836020036101000a0380198251168184511680821785525050505050509050019150506000604051808303816000865af19150503d8060008114612881576040519150601f19603f3d011682016040523d82523d6000602084013e612886565b606091505b50915091508180156128c757506000815114806128c657508080602001905160208110156128b45760006000fd5b81019080805190602001909291905050505b5b151561293e576040517f08c379a00000000000000000000000000000000000000000000000000000000081526004018080602001828103825260038152602001807f535446000000000000000000000000000000000000000000000000000000000081526020015060200191505060405180910390fd5b50505b50505050565b61295561118863ffffffff16565b15612999577fffffffffffffffffffffffffffffffffffffffffffffffffffffffffffffffff600b6000505414156129945743600b6000508190909055505b6129f5565b7fffffffffffffffffffffffffffffffffffffffffffffffffffffffffffffffff600b600050541415156129f4577fffffffffffffffffffffffffffffffffffffffffffffffffffffffffffffffff600b6000508190909055505b5b5b565b60016006600050819090905550600460009054906101000a900473ffffffffffffffffffffffffffffffffffffffff1673ffffffffffffffffffffffffffffffffffffffff1663e9fad8ee6040518163ffffffff1660e01b8152600401600060405180830381600087803b158015612a705760006000fd5b505af1158015612a85573d600060003e3d6000fd5b505050505b565b6000612aa78383670de0b6b3a7640000612ded63ffffffff16565b905080505b92915050565b600060008473ffffffffffffffffffffffffffffffffffffffff1663a9059cbb60e01b8585604051602401808373ffffffffffffffffffffffffffffffffffffffff16815260200182815260200192505050604051602081830303815290604052907bffffffffffffffffffffffffffffffffffffffffffffffffffffffff19166020820180517bffffffffffffffffffffffffffffffffffffffffffffffffffffffff83818316178352505050506040518082805190602001908083835b602083101515612b9757805182525b602082019150602081019050602083039250612b71565b6001836020036101000a0380198251168184511680821785525050505050509050019150506000604051808303816000865af19150503d8060008114612bf9576040519150601f19603f3d011682016040523d82523d6000602084013e612bfe565b606091505b5091509150818015612c3f5750600081511480612c3e5750808060200190516020811015612c2c5760006000fd5b81019080805190602001909291905050505b5b1515612cb6576040517f08c379a00000000000000000000000000000000000000000000000000000000081526004018080602001828103825260028152602001807f535400000000000000000000000000000000000000000000000000000000000081526020015060200191505060405180910390fd5b50505b505050565b60008267ffffffffffffffff1682840191508167ffffffffffffffff1610151515612d54576040517f08c379a000000000000000000000000000000000000000000000000000000000815260040180806020018281038252600c8152602001807f6164642d6f766572666c6f77000000000000000000000000000000000000000081526020015060200191505060405180910390fd5b5b92915050565b60006801000000000000000082101515612de0576040517f08c379a00000000000000000000000000000000000000000000000000000000081526004018080602001828103825260118152602001807f6d6f7265207468616e203634206269747300000000000000000000000000000081526020015060200191505060405180910390fd5b819050612de8565b919050565b6000600060006000198587098587029250828110838203039150506000811415612e3057600084111515612e215760006000fd5b83820492508292505050612ee7565b8084111515612e3f5760006000fd5b6000848688099050828111820391508083039250600085866000031690508086049550808404935060018182600003040190508083028417935083506000600287600302189050808702600203810290508050808702600203810290508050808702600203810290508050808702600203810290508050808702600203810290508050808702600203810290508050808502955085508595505050505050612ee75650505050505b939250505056613a84565b600081519050612f0181613a3e565b5b919050565b60008151905080151581141515612f1e5760006000fd5b5b919050565b6000815190508060020b81141515612f3c5760006000fd5b5b919050565b60008151905063ffffffff811681141515612f5d5760006000fd5b5b919050565b600081519050612f7281613a67565b5b919050565b60008151905069ffffffffffffffffffff811681141515612f995760006000fd5b5b919050565b600060208284031215612fb0578081fd5b8135612fbb81613a3e565b809150505b92915050565b600060208284031215612fd7578081fd5b8151612fe281613a3e565b809150505b92915050565b600060208284031215612ffe578081fd5b61300782612f07565b90505b92915050565b600060208284031215613021578081fd5b81357fffffffff00000000000000000000000000000000000000000000000000000000811681141515613052578182fd5b809150505b92915050565b60006020828403121561306e578081fd5b815161307981613a3e565b809150505b92915050565b600060208284031215613095578081fd5b81516130a081613a3e565b809150505b92915050565b6000602082840312156130bc578081fd5b81356130c781613a3e565b809150505b92915050565b6000602082840312156130e3578081fd5b81516130ee81613a3e565b809150505b92915050565b60006020828403121561310a578081fd5b815161311581613a3e565b809150505b92915050565b600060208284031215613131578081fd5b815161313c81613a3e565b809150505b92915050565b600060208284031215613158578081fd5b813561316381613a3e565b809150505b92915050565b60006020828403121561317f578081fd5b815161318a81613a3e565b809150505b92915050565b6000602082840312156131a6578081fd5b81516131b181613a3e565b809150505b92915050565b60006101a08083850312156131cf578182fd5b6131d881613a13565b9050825181526020830151602082015260408301516040820152606083015160608201526080830151608082015261321260a08401612f63565b60a082015261322360c08401612f63565b60c082015261323460e08401612f24565b60e0820152610100613247818501612f07565b818301525061012061325a818501612f63565b818301525061014061326d818501612f42565b8183015250610160613280818501612ef2565b8183015250610180613293818501612f63565b8183015250809150505b92915050565b6000602082840312156132b4578081fd5b813590505b92915050565b6000602082840312156132d0578081fd5b815190505b92915050565b6000602082840312156132ec578081fd5b81356132f781613a67565b809150505b92915050565b600060208284031215613313578081fd5b815161331e81613a67565b809150505b92915050565b600060006040838503121561333c578081fd5b823561334781613a67565b80925050602083013590505b9250929050565b6000600060006000600060a08688031215613373578081fd5b61337c86612f78565b945060208601519350604086015192506060860151915061339f60808701612f78565b90505b9295509295909350565b6000602082840312156133bd578081fd5b815160ff8116811415156133cf578182fd5b809150505b92915050565b73ffffffffffffffffffffffffffffffffffffffff811682525b5050565b80151582525b5050565b8060020b82525b5050565b63ffffffff811682525b5050565b67ffffffffffffffff811682525b5050565b60007f657468507269636550726f76696465720000000000000000000000000000000082526010820190505b919050565b600060208201905073ffffffffffffffffffffffffffffffffffffffff831682525b92915050565b600060408201905073ffffffffffffffffffffffffffffffffffffffff841682528260208301525b9392505050565b600060408201905073ffffffffffffffffffffffffffffffffffffffff841682528260208301525b9392505050565b600060408201905073ffffffffffffffffffffffffffffffffffffffff8416825267ffffffffffffffff831660208301525b9392505050565b600060208201905082151582525b92915050565b600060208201905073ffffffffffffffffffffffffffffffffffffffff831682525b92915050565b600060208201905073ffffffffffffffffffffffffffffffffffffffff831682525b92915050565b600060208201905073ffffffffffffffffffffffffffffffffffffffff831682525b92915050565b60006020820190506007831015156135bd57fe5b8282525b92915050565b600060208252601260208301527f457468207072696365206973207374616c65000000000000000000000000000060408301526060820190505b919050565b600060208252601060208301527f4e6f20746f6b656e73207374616b65640000000000000000000000000000000060408301526060820190505b919050565b600060208252600f60208301527f496e636f7272656374207374616765000000000000000000000000000000000060408301526060820190505b919050565b600060208252600e60208301527f4e6f7420417574686f72697a656400000000000000000000000000000000000060408301526060820190505b919050565b600060208252600460208301527f4e6f6f700000000000000000000000000000000000000000000000000000000060408301526060820190505b919050565b600060208252600d60208301527f4c50205265656e7472616e63790000000000000000000000000000000000000060408301526060820190505b919050565b600060208252600d60208301527f4e6f20636f6c6c61746572616c0000000000000000000000000000000000000060408301526060820190505b919050565b600060208252601160208301527f45746820707269636520696e76616c696400000000000000000000000000000060408301526060820190505b919050565b600060208252601d60208301527f4e6f20636f6c6c61746572616c20746f2077697468647261772e5b315d00000060408301526060820190505b919050565b600060208252600c60208301527f457863656564732064656274000000000000000000000000000000000000000060408301526060820190505b919050565b600060208252601760208301527f496e73756666696369656e7420636f6c6c61746572616c00000000000000000060408301526060820190505b919050565b600060208252602060208301527f496e73756666696369656e74206e6f20636f6e666964656e636520766f74657360408301526060820190505b919050565b60006020820190508282525b92915050565b60006040820190508382528260208301525b9392505050565b600060208201905067ffffffffffffffff831682525b92915050565b600060208201905067ffffffffffffffff831682525b92915050565b60006101c08201905067ffffffffffffffff8416825282516020830152602083015160408301526040830151606083015260608301516080830152608083015160a083015260a083015161397560c084018261341b565b5060c083015161398860e084018261341b565b5060e083015161010061399d81850183613402565b808501519150506101206139b3818501836133f8565b808501519150506101406139c98185018361341b565b808501519150506101606139df8185018361340d565b808501519150506101806139f5818501836133da565b80850151915050613a0a6101a084018261341b565b505b9392505050565b6000604051905081810181811067ffffffffffffffff82111715613a3357fe5b80604052505b919050565b73ffffffffffffffffffffffffffffffffffffffff811681141515613a635760006000fd5b5b50565b67ffffffffffffffff811681141515613a805760006000fd5b5b50565bfea2646970667358221220fd775c18e7a8dc7fe9e36b38c9c31c5a09669b90bbb2899a4a542284a5ddc1c364736f6c63430007060033",
  "linkReferences": {},
  "deployedLinkReferences": {}
}