{
  "_format": "hh-sol-artifact-1",
  "contractName": "Settlement",
  "sourceName": "contracts/core/logic/Settlement.sol",
  "abi": [
    {
      "inputs": [
        {
          "internalType": "contract IPriceProvider",
          "name": "_ethPriceProvider",
          "type": "address"
        },
        {
          "internalType": "contract IPriceProvider",
          "name": "_btcPriceProvider",
          "type": "address"
        }
      ],
      "stateMutability": "nonpayable",
      "type": "constructor"
    },
    {
      "anonymous": false,
      "inputs": [
        {
          "indexed": true,
          "internalType": "address",
          "name": "governor",
          "type": "address"
        }
      ],
      "name": "Initialized",
      "type": "event"
    },
    {
      "anonymous": false,
      "inputs": [
        {
          "indexed": true,
          "internalType": "address",
          "name": "account",
          "type": "address"
        }
      ],
      "name": "NoConfidenceConfirmed",
      "type": "event"
    },
    {
      "anonymous": false,
      "inputs": [
        {
          "indexed": true,
          "internalType": "string",
          "name": "paramName",
          "type": "string"
        },
        {
          "indexed": false,
          "internalType": "uint256",
          "name": "value",
          "type": "uint256"
        }
      ],
      "name": "ParameterUpdated",
      "type": "event"
    },
    {
      "anonymous": false,
      "inputs": [
        {
          "indexed": true,
          "internalType": "string",
          "name": "paramName",
          "type": "string"
        },
        {
          "indexed": true,
          "internalType": "address",
          "name": "_address",
          "type": "address"
        }
      ],
      "name": "ParameterUpdatedAddress",
      "type": "event"
    },
    {
      "anonymous": false,
      "inputs": [
        {
          "indexed": true,
          "internalType": "uint64",
          "name": "positionID",
          "type": "uint64"
        },
        {
          "indexed": true,
          "internalType": "address",
          "name": "caller",
          "type": "address"
        },
        {
          "indexed": false,
          "internalType": "uint256",
          "name": "coinCount",
          "type": "uint256"
        },
        {
          "indexed": false,
          "internalType": "uint256",
          "name": "collateralCount",
          "type": "uint256"
        }
      ],
      "name": "SettlementCollateralForCoin",
      "type": "event"
    },
    {
      "anonymous": false,
      "inputs": [
        {
          "indexed": false,
          "internalType": "uint256",
          "name": "settlementDiscoveryStartTime",
          "type": "uint256"
        }
      ],
      "name": "SettlementInitialized",
      "type": "event"
    },
    {
      "anonymous": false,
      "inputs": [
        {
          "indexed": true,
          "internalType": "uint64",
          "name": "positionID",
          "type": "uint64"
        },
        {
          "indexed": true,
          "internalType": "address",
          "name": "owner",
          "type": "address"
        },
        {
          "indexed": false,
          "internalType": "uint256",
          "name": "collateralToWithdraw",
          "type": "uint256"
        }
      ],
      "name": "SettlementWithdrawCollateral",
      "type": "event"
    },
    {
      "anonymous": false,
      "inputs": [
        {
          "indexed": true,
          "internalType": "address",
          "name": "account",
          "type": "address"
        },
        {
          "indexed": false,
          "internalType": "uint256",
          "name": "count",
          "type": "uint256"
        }
      ],
      "name": "StakedNoConfidenceTokens",
      "type": "event"
    },
    {
      "anonymous": false,
      "inputs": [],
      "name": "Stopped",
      "type": "event"
    },
    {
      "anonymous": false,
      "inputs": [
        {
          "indexed": true,
          "internalType": "address",
          "name": "account",
          "type": "address"
        },
        {
          "indexed": false,
          "internalType": "uint256",
          "name": "count",
          "type": "uint256"
        }
      ],
      "name": "UnstakedNoConfidenceTokens",
      "type": "event"
    },
    {
      "inputs": [],
      "name": "SETTLEMENT_PRICE_NO_CONFIDENCE_THRESHOLD",
      "outputs": [
        {
          "internalType": "uint256",
          "name": "",
          "type": "uint256"
        }
      ],
      "stateMutability": "view",
      "type": "function"
    },
    {
      "inputs": [],
      "name": "btcPriceProvider",
      "outputs": [
        {
          "internalType": "contract IPriceProvider",
          "name": "",
          "type": "address"
        }
      ],
      "stateMutability": "view",
      "type": "function"
    },
    {
      "inputs": [],
      "name": "cnp",
      "outputs": [
        {
          "internalType": "contract ICNP",
          "name": "",
          "type": "address"
        }
      ],
      "stateMutability": "view",
      "type": "function"
    },
    {
      "inputs": [],
      "name": "confirmNoPriceConfidence",
      "outputs": [],
      "stateMutability": "nonpayable",
      "type": "function"
    },
    {
      "inputs": [],
      "name": "confirmPrices",
      "outputs": [],
      "stateMutability": "nonpayable",
      "type": "function"
    },
    {
      "inputs": [],
      "name": "deployer",
      "outputs": [
        {
          "internalType": "address",
          "name": "",
          "type": "address"
        }
      ],
      "stateMutability": "view",
      "type": "function"
    },
    {
      "inputs": [],
      "name": "ethPriceProvider",
      "outputs": [
        {
          "internalType": "contract IPriceProvider",
          "name": "",
          "type": "address"
        }
      ],
      "stateMutability": "view",
      "type": "function"
    },
    {
      "inputs": [
        {
          "internalType": "uint64",
          "name": "positionID",
          "type": "uint64"
        },
        {
          "internalType": "uint256",
          "name": "coinCount",
          "type": "uint256"
        }
      ],
      "name": "getCollateralForCoin",
      "outputs": [],
      "stateMutability": "nonpayable",
      "type": "function"
    },
    {
      "inputs": [],
      "name": "getRecentPrices",
      "outputs": [
        {
          "internalType": "uint256",
          "name": "ethPrice",
          "type": "uint256"
        },
        {
          "internalType": "uint256",
          "name": "btcPrice",
          "type": "uint256"
        }
      ],
      "stateMutability": "view",
      "type": "function"
    },
    {
      "inputs": [],
      "name": "governor",
      "outputs": [
        {
          "internalType": "contract IGovernor",
          "name": "",
          "type": "address"
        }
      ],
      "stateMutability": "view",
      "type": "function"
    },
    {
      "inputs": [
        {
          "internalType": "contract IGovernor",
          "name": "_governor",
          "type": "address"
        }
      ],
      "name": "init",
      "outputs": [],
      "stateMutability": "nonpayable",
      "type": "function"
    },
    {
      "inputs": [],
      "name": "initializeSettlement",
      "outputs": [],
      "stateMutability": "nonpayable",
      "type": "function"
    },
    {
      "inputs": [
        {
          "internalType": "address",
          "name": "",
          "type": "address"
        }
      ],
      "name": "noPriceConfidenceUserVotes",
      "outputs": [
        {
          "internalType": "uint256",
          "name": "",
          "type": "uint256"
        }
      ],
      "stateMutability": "view",
      "type": "function"
    },
    {
      "inputs": [],
      "name": "noPriceConfidenceVotes",
      "outputs": [
        {
          "internalType": "uint256",
          "name": "",
          "type": "uint256"
        }
      ],
      "stateMutability": "view",
      "type": "function"
    },
    {
      "inputs": [],
      "name": "priceConfidence",
      "outputs": [
        {
          "internalType": "bool",
          "name": "",
          "type": "bool"
        }
      ],
      "stateMutability": "view",
      "type": "function"
    },
    {
      "inputs": [],
      "name": "priceDiscoveryStartTime",
      "outputs": [
        {
          "internalType": "uint64",
          "name": "",
          "type": "uint64"
        }
      ],
      "stateMutability": "view",
      "type": "function"
    },
    {
      "inputs": [
        {
          "internalType": "contract IPriceProvider",
          "name": "provider",
          "type": "address"
        }
      ],
      "name": "setBtcPriceProvider",
      "outputs": [],
      "stateMutability": "nonpayable",
      "type": "function"
    },
    {
      "inputs": [
        {
          "internalType": "contract IPriceProvider",
          "name": "provider",
          "type": "address"
        }
      ],
      "name": "setEthPriceProvider",
      "outputs": [],
      "stateMutability": "nonpayable",
      "type": "function"
    },
    {
      "inputs": [
        {
          "internalType": "contract IPriceProvider",
          "name": "ethProvider",
          "type": "address"
        },
        {
          "internalType": "contract IPriceProvider",
          "name": "btcProvider",
          "type": "address"
        }
      ],
      "name": "setNewPriceProviders",
      "outputs": [],
      "stateMutability": "nonpayable",
      "type": "function"
    },
    {
      "inputs": [
        {
          "internalType": "enum IGovernor.Collateral",
          "name": "",
          "type": "uint8"
        }
      ],
      "name": "settlementPrice",
      "outputs": [
        {
          "internalType": "uint256",
          "name": "",
          "type": "uint256"
        }
      ],
      "stateMutability": "view",
      "type": "function"
    },
    {
      "inputs": [
        {
          "internalType": "uint256",
          "name": "countCNPToStake",
          "type": "uint256"
        }
      ],
      "name": "stakeTokensForNoPriceConfidence",
      "outputs": [],
      "stateMutability": "nonpayable",
      "type": "function"
    },
    {
      "inputs": [],
      "name": "stop",
      "outputs": [],
      "stateMutability": "nonpayable",
      "type": "function"
    },
    {
      "inputs": [],
      "name": "stopped",
      "outputs": [
        {
          "internalType": "bool",
          "name": "",
          "type": "bool"
        }
      ],
      "stateMutability": "view",
      "type": "function"
    },
    {
      "inputs": [],
      "name": "unstakeTokensForNoPriceConfidence",
      "outputs": [],
      "stateMutability": "nonpayable",
      "type": "function"
    },
    {
      "inputs": [
        {
          "internalType": "bytes4",
          "name": "action",
          "type": "bytes4"
        }
      ],
      "name": "validUpdate",
      "outputs": [
        {
          "internalType": "bool",
          "name": "",
          "type": "bool"
        }
      ],
      "stateMutability": "view",
      "type": "function"
    },
    {
      "inputs": [
        {
          "internalType": "uint64",
          "name": "positionID",
          "type": "uint64"
        }
      ],
      "name": "withdrawCollateral",
      "outputs": [],
      "stateMutability": "nonpayable",
      "type": "function"
    }
  ],
  "bytecode": "0x60806040526001600a601c6101000a81548160ff0219169083151502179055503480156200002c57600080fd5b5060405162005fe438038062005fe483398181016040528101906200005291906200013c565b33600160006101000a81548173ffffffffffffffffffffffffffffffffffffffff021916908373ffffffffffffffffffffffffffffffffffffffff160217905550600160068190555081600760006101000a81548173ffffffffffffffffffffffffffffffffffffffff021916908373ffffffffffffffffffffffffffffffffffffffff16021790555080600860006101000a81548173ffffffffffffffffffffffffffffffffffffffff021916908373ffffffffffffffffffffffffffffffffffffffff1602179055505050620001df565b6000815190506200013681620001c5565b92915050565b600080604083850312156200015057600080fd5b6000620001608582860162000125565b9250506020620001738582860162000125565b9150509250929050565b60006200018a82620001a5565b9050919050565b60006200019e826200017d565b9050919050565b600073ffffffffffffffffffffffffffffffffffffffff82169050919050565b620001d08162000191565b8114620001dc57600080fd5b50565b615df580620001ef6000396000f3fe608060405234801561001057600080fd5b50600436106101ae5760003560e01c8063997aba1a116100ee578063e2083a8911610097578063e4e9bcca11610071578063e4e9bcca14610412578063eeaadadf1461042e578063f214a2a21461044a578063f4943f4a14610454576101ae565b8063e2083a89146103cc578063e41f7dc1146103d6578063e4b4d225146103f4576101ae565b8063d5f39488116100c8578063d5f3948814610388578063db7f7f1d146103a6578063de151980146103b0576101ae565b8063997aba1a1461032e57806399eeec951461034c578063c4b6c2f31461036a576101ae565b8063568509601161015b57806375f12b211161013557806375f12b21146102a35780637b769b21146102c15780639410eb86146102e057806398cd845b146102fe576101ae565b806356850960146102615780635c439fc21461027d5780637119a49014610287576101ae565b806319ab453c1161018c57806319ab453c1461020b57806335a12e45146102275780635130e76314610243576101ae565b806307da68f5146101b35780630c340a24146101bd578063113cf1ab146101db575b600080fd5b6101bb610484565b005b6101c561054f565b6040516101d29190615586565b60405180910390f35b6101f560048036038101906101f09190614994565b610573565b6040516102029190615550565b60405180910390f35b61022560048036038101906102209190614a38565b6105db565b005b610241600480360381019061023c9190614b7e565b6109f4565b005b61024b610fcc565b6040516102589190615550565b60405180910390f35b61027b60048036038101906102769190614bd0565b610fdf565b005b610285611805565b005b6102a1600480360381019061029c9190614a8a565b611c99565b005b6102ab611df5565b6040516102b89190615550565b60405180910390f35b6102c9611e08565b6040516102d79291906158e5565b60405180910390f35b6102e861223f565b6040516102f591906158ca565b60405180910390f35b61031860048036038101906103139190614942565b61224b565b60405161032591906158ca565b60405180910390f35b610336612263565b6040516103439190615929565b60405180910390f35b61035461227d565b604051610361919061556b565b60405180910390f35b6103726122a3565b60405161037f91906155a1565b60405180910390f35b6103906122c9565b60405161039d91906154ac565b60405180910390f35b6103ae6122ef565b005b6103ca60048036038101906103c59190614c22565b612830565b005b6103d4613024565b005b6103de6133a2565b6040516103eb91906155a1565b60405180910390f35b6103fc6133c8565b60405161040991906158ca565b60405180910390f35b61042c60048036038101906104279190614a8a565b6133ce565b005b61044860048036038101906104439190614ab3565b61352a565b005b6104526138b7565b005b61046e60048036038101906104699190614aef565b613e51565b60405161047b91906158ca565b60405180910390f35b60008054906101000a900473ffffffffffffffffffffffffffffffffffffffff1673ffffffffffffffffffffffffffffffffffffffff163373ffffffffffffffffffffffffffffffffffffffff1614610545576040517f08c379a00000000000000000000000000000000000000000000000000000000081526004018080602001828103825260198152602001807f476f7665726e65643a204e6f7420417574686f72697a65642e0000000000000081525060200191505060405180910390fd5b61054d613e69565b565b60008054906101000a900473ffffffffffffffffffffffffffffffffffffffff1681565b600060056000837bffffffffffffffffffffffffffffffffffffffffffffffffffffffff19167bffffffffffffffffffffffffffffffffffffffffffffffffffffffff1916815260200190815260200160002060009054906101000a900460ff169050919050565b600160009054906101000a900473ffffffffffffffffffffffffffffffffffffffff1673ffffffffffffffffffffffffffffffffffffffff163373ffffffffffffffffffffffffffffffffffffffff161461069e576040517f08c379a000000000000000000000000000000000000000000000000000000000815260040180806020018281038252601e8152602001807f476f7665726e65643a20496e6974206e6f7420617574686f72697a65642e000081525060200191505060405180910390fd5b600160006101000a81549073ffffffffffffffffffffffffffffffffffffffff0219169055806000806101000a81548173ffffffffffffffffffffffffffffffffffffffff021916908373ffffffffffffffffffffffffffffffffffffffff16021790555060008054906101000a900473ffffffffffffffffffffffffffffffffffffffff1673ffffffffffffffffffffffffffffffffffffffff16639624e83e6040518163ffffffff1660e01b815260040160206040518083038186803b15801561076957600080fd5b505afa15801561077d573d6000803e3d6000fd5b505050506040513d602081101561079357600080fd5b8101908080519060200190929190505050600260006101000a81548173ffffffffffffffffffffffffffffffffffffffff021916908373ffffffffffffffffffffffffffffffffffffffff16021790555060008054906101000a900473ffffffffffffffffffffffffffffffffffffffff1673ffffffffffffffffffffffffffffffffffffffff166311df99956040518163ffffffff1660e01b815260040160206040518083038186803b15801561084a57600080fd5b505afa15801561085e573d6000803e3d6000fd5b505050506040513d602081101561087457600080fd5b8101908080519060200190929190505050600360006101000a81548173ffffffffffffffffffffffffffffffffffffffff021916908373ffffffffffffffffffffffffffffffffffffffff16021790555060008054906101000a900473ffffffffffffffffffffffffffffffffffffffff1673ffffffffffffffffffffffffffffffffffffffff1663d478b0876040518163ffffffff1660e01b815260040160206040518083038186803b15801561092b57600080fd5b505afa15801561093f573d6000803e3d6000fd5b505050506040513d602081101561095557600080fd5b8101908080519060200190929190505050600460006101000a81548173ffffffffffffffffffffffffffffffffffffffff021916908373ffffffffffffffffffffffffffffffffffffffff1602179055506109ae613eb2565b8073ffffffffffffffffffffffffffffffffffffffff167f908408e307fc569b417f6cbec5d5a06f44a0a505ac0479b47d421a4b2fd6a1e660405160405180910390a250565b600460009054906101000a900473ffffffffffffffffffffffffffffffffffffffff1673ffffffffffffffffffffffffffffffffffffffff1663e97dcb626040518163ffffffff1660e01b8152600401600060405180830381600087803b158015610a5e57600080fd5b505af1158015610a72573d6000803e3d6000fd5b5050505060026006541415610aef576040517f08c379a000000000000000000000000000000000000000000000000000000000815260040180806020018281038252601d8152602001807f4c6f636b436f6e74726163743a207265656e7472616e742063616c6c2e00000081525060200191505060405180910390fd5b6002600681905550600060149054906101000a900460ff1615610b47576040517f08c379a0000000000000000000000000000000000000000000000000000000008152600401610b3e9061568a565b60405180910390fd5b60008054906101000a900473ffffffffffffffffffffffffffffffffffffffff1673ffffffffffffffffffffffffffffffffffffffff1663bf86d6906040518163ffffffff1660e01b815260040160206040518083038186803b158015610bad57600080fd5b505afa158015610bc1573d6000803e3d6000fd5b505050506040513d601f19601f82011682018060405250810190610be5919061496b565b610c24576040517f08c379a0000000000000000000000000000000000000000000000000000000008152600401610c1b9061576a565b60405180910390fd5b610c2c6140e5565b15610c6c576040517f08c379a0000000000000000000000000000000000000000000000000000000008152600401610c639061574a565b60405180910390fd5b6000811415610cb0576040517f08c379a0000000000000000000000000000000000000000000000000000000008152600401610ca79061566a565b60405180910390fd5b6000600a60009054906101000a900467ffffffffffffffff1667ffffffffffffffff161415610d14576040517f08c379a0000000000000000000000000000000000000000000000000000000008152600401610d0b906157ca565b60405180910390fd5b600a60009054906101000a900467ffffffffffffffff1667ffffffffffffffff16610d3d61414f565b67ffffffffffffffff1610610d87576040517f08c379a0000000000000000000000000000000000000000000000000000000008152600401610d7e906157ea565b60405180910390fd5b610dd981600c60003373ffffffffffffffffffffffffffffffffffffffff1673ffffffffffffffffffffffffffffffffffffffff1681526020019081526020016000205461415f90919063ffffffff16565b600c60003373ffffffffffffffffffffffffffffffffffffffff1673ffffffffffffffffffffffffffffffffffffffff16815260200190815260200160002081905550610e3181600b5461415f90919063ffffffff16565b600b81905550600a60089054906101000a900473ffffffffffffffffffffffffffffffffffffffff1673ffffffffffffffffffffffffffffffffffffffff166323b872dd3330846040518463ffffffff1660e01b8152600401610e96939291906154c7565b602060405180830381600087803b158015610eb057600080fd5b505af1158015610ec4573d6000803e3d6000fd5b505050506040513d601f19601f82011682018060405250810190610ee8919061496b565b610ef157600080fd5b3373ffffffffffffffffffffffffffffffffffffffff167fedbb4f9340677b55be1420c0b8b3bac9f5b41e08db266f57cfd8befc9fe480d582604051610f3791906158ca565b60405180910390a26001600681905550600460009054906101000a900473ffffffffffffffffffffffffffffffffffffffff1673ffffffffffffffffffffffffffffffffffffffff1663e9fad8ee6040518163ffffffff1660e01b8152600401600060405180830381600087803b158015610fb157600080fd5b505af1158015610fc5573d6000803e3d6000fd5b5050505050565b600a601c9054906101000a900460ff1681565b600460009054906101000a900473ffffffffffffffffffffffffffffffffffffffff1673ffffffffffffffffffffffffffffffffffffffff1663e97dcb626040518163ffffffff1660e01b8152600401600060405180830381600087803b15801561104957600080fd5b505af115801561105d573d6000803e3d6000fd5b50505050600260065414156110da576040517f08c379a000000000000000000000000000000000000000000000000000000000815260040180806020018281038252601d8152602001807f4c6f636b436f6e74726163743a207265656e7472616e742063616c6c2e00000081525060200191505060405180910390fd5b6002600681905550600060149054906101000a900460ff1615611132576040517f08c379a00000000000000000000000000000000000000000000000000000000081526004016111299061568a565b60405180910390fd5b60008054906101000a900473ffffffffffffffffffffffffffffffffffffffff1673ffffffffffffffffffffffffffffffffffffffff1663bf86d6906040518163ffffffff1660e01b815260040160206040518083038186803b15801561119857600080fd5b505afa1580156111ac573d6000803e3d6000fd5b505050506040513d601f19601f820116820180604052508101906111d0919061496b565b61120f576040517f08c379a00000000000000000000000000000000000000000000000000000000081526004016112069061576a565b60405180910390fd5b6112176140e5565b611256576040517f08c379a000000000000000000000000000000000000000000000000000000000815260040161124d9061578a565b60405180910390fd5b60008054906101000a900473ffffffffffffffffffffffffffffffffffffffff1673ffffffffffffffffffffffffffffffffffffffff16637380f6796040518163ffffffff1660e01b815260040160206040518083038186803b1580156112bc57600080fd5b505afa1580156112d0573d6000803e3d6000fd5b505050506040513d601f19601f820116820180604052508101906112f49190614a0f565b73ffffffffffffffffffffffffffffffffffffffff1663430c208133836040518363ffffffff1660e01b815260040161132e929190615527565b60206040518083038186803b15801561134657600080fd5b505afa15801561135a573d6000803e3d6000fd5b505050506040513d601f19601f8201168201806040525081019061137e919061496b565b6113bd576040517f08c379a00000000000000000000000000000000000000000000000000000000081526004016113b4906156ea565b60405180910390fd5b6113c561462a565b60008054906101000a900473ffffffffffffffffffffffffffffffffffffffff1673ffffffffffffffffffffffffffffffffffffffff166380f556056040518163ffffffff1660e01b815260040160206040518083038186803b15801561142b57600080fd5b505afa15801561143f573d6000803e3d6000fd5b505050506040513d601f19601f820116820180604052508101906114639190614a61565b73ffffffffffffffffffffffffffffffffffffffff1663eb6843ce836040518263ffffffff1660e01b815260040161149b9190615929565b61014060405180830381600087803b1580156114b657600080fd5b505af11580156114ca573d6000803e3d6000fd5b505050506040513d601f19601f820116820180604052508101906114ee9190614b18565b90506000808260400151141561150a57816020015190506115a4565b600061155160096000856101200151600181111561152457fe5b600181111561152f57fe5b81526020019081526020016000205484604001516141e790919063ffffffff16565b905082602001518110611599576040517f08c379a00000000000000000000000000000000000000000000000000000000081526004016115909061580a565b60405180910390fd5b808360200151039150505b60008114156115e8576040517f08c379a00000000000000000000000000000000000000000000000000000000081526004016115df9061570a565b60405180910390fd5b80826020018181510391508181525050600260009054906101000a900473ffffffffffffffffffffffffffffffffffffffff1673ffffffffffffffffffffffffffffffffffffffff1663a075bd0184846040518363ffffffff1660e01b8152600401611655929190615944565b600060405180830381600087803b15801561166f57600080fd5b505af1158015611683573d6000803e3d6000fd5b50505050600260009054906101000a900473ffffffffffffffffffffffffffffffffffffffff1673ffffffffffffffffffffffffffffffffffffffff1663f13c16b083610120015133846040518463ffffffff1660e01b81526004016116eb939291906155bc565b600060405180830381600087803b15801561170557600080fd5b505af1158015611719573d6000803e3d6000fd5b505050503373ffffffffffffffffffffffffffffffffffffffff168367ffffffffffffffff167fea981567b9c640fd744f52ff99859dc343bdb3752f8f6542b014a546ffa0863b8360405161176e91906158ca565b60405180910390a350506001600681905550600460009054906101000a900473ffffffffffffffffffffffffffffffffffffffff1673ffffffffffffffffffffffffffffffffffffffff1663e9fad8ee6040518163ffffffff1660e01b8152600401600060405180830381600087803b1580156117ea57600080fd5b505af11580156117fe573d6000803e3d6000fd5b5050505050565b600460009054906101000a900473ffffffffffffffffffffffffffffffffffffffff1673ffffffffffffffffffffffffffffffffffffffff1663e97dcb626040518163ffffffff1660e01b8152600401600060405180830381600087803b15801561186f57600080fd5b505af1158015611883573d6000803e3d6000fd5b5050505060026006541415611900576040517f08c379a000000000000000000000000000000000000000000000000000000000815260040180806020018281038252601d8152602001807f4c6f636b436f6e74726163743a207265656e7472616e742063616c6c2e00000081525060200191505060405180910390fd5b6002600681905550600060149054906101000a900460ff1615611958576040517f08c379a000000000000000000000000000000000000000000000000000000000815260040161194f9061568a565b60405180910390fd5b60008054906101000a900473ffffffffffffffffffffffffffffffffffffffff1673ffffffffffffffffffffffffffffffffffffffff1663bf86d6906040518163ffffffff1660e01b815260040160206040518083038186803b1580156119be57600080fd5b505afa1580156119d2573d6000803e3d6000fd5b505050506040513d601f19601f820116820180604052508101906119f6919061496b565b611a35576040517f08c379a0000000000000000000000000000000000000000000000000000000008152600401611a2c9061576a565b60405180910390fd5b611a3d6140e5565b15611a7d576040517f08c379a0000000000000000000000000000000000000000000000000000000008152600401611a749061574a565b60405180910390fd5b600a601c9054906101000a900460ff16611acc576040517f08c379a0000000000000000000000000000000000000000000000000000000008152600401611ac39061562a565b60405180910390fd5b6000600a60009054906101000a900467ffffffffffffffff1667ffffffffffffffff161415611b30576040517f08c379a0000000000000000000000000000000000000000000000000000000008152600401611b27906157ca565b60405180910390fd5b611b3861414f565b67ffffffffffffffff16600a60009054906101000a900467ffffffffffffffff1667ffffffffffffffff1610611ba3576040517f08c379a0000000000000000000000000000000000000000000000000000000008152600401611b9a9061586a565b60405180910390fd5b611bab611e08565b60096000806001811115611bbb57fe5b6001811115611bc657fe5b8152602001908152602001600020600060096000600180811115611be657fe5b6001811115611bf157fe5b815260200190815260200160002060008491905055839190505550506001600681905550600460009054906101000a900473ffffffffffffffffffffffffffffffffffffffff1673ffffffffffffffffffffffffffffffffffffffff1663e9fad8ee6040518163ffffffff1660e01b8152600401600060405180830381600087803b158015611c7f57600080fd5b505af1158015611c93573d6000803e3d6000fd5b50505050565b60008054906101000a900473ffffffffffffffffffffffffffffffffffffffff1673ffffffffffffffffffffffffffffffffffffffff163373ffffffffffffffffffffffffffffffffffffffff1614611d5a576040517f08c379a00000000000000000000000000000000000000000000000000000000081526004018080602001828103825260198152602001807f476f7665726e65643a204e6f7420417574686f72697a65642e0000000000000081525060200191505060405180910390fd5b80600860006101000a81548173ffffffffffffffffffffffffffffffffffffffff021916908373ffffffffffffffffffffffffffffffffffffffff1602179055508073ffffffffffffffffffffffffffffffffffffffff16604051611dbe90615482565b60405180910390207f78caada2f560033c9479d8c5e33f045f2e611faebe6b6d8a73874c80ec2dd3a260405160405180910390a350565b600060149054906101000a900460ff1681565b600080600080600760009054906101000a900473ffffffffffffffffffffffffffffffffffffffff1673ffffffffffffffffffffffffffffffffffffffff1663feaf968c6040518163ffffffff1660e01b815260040160a06040518083038186803b158015611e7657600080fd5b505afa158015611e8a573d6000803e3d6000fd5b505050506040513d601f19601f82011682018060405250810190611eae9190614c5e565b50935050925050600080600860009054906101000a900473ffffffffffffffffffffffffffffffffffffffff1673ffffffffffffffffffffffffffffffffffffffff1663feaf968c6040518163ffffffff1660e01b815260040160a06040518083038186803b158015611f2057600080fd5b505afa158015611f34573d6000803e3d6000fd5b505050506040513d601f19601f82011682018060405250810190611f589190614c5e565b50935050925050611f6761414f565b67ffffffffffffffff16611f86610e108561415f90919063ffffffff16565b11611fc6576040517f08c379a0000000000000000000000000000000000000000000000000000000008152600401611fbd9061584a565b60405180910390fd5b611fce61414f565b67ffffffffffffffff16611fed610e108361415f90919063ffffffff16565b1161202d576040517f08c379a00000000000000000000000000000000000000000000000000000000081526004016120249061572a565b60405180910390fd5b60008413612070576040517f08c379a0000000000000000000000000000000000000000000000000000000008152600401612067906157aa565b60405180910390fd5b600082136120b3576040517f08c379a00000000000000000000000000000000000000000000000000000000081526004016120aa9061582a565b60405180910390fd5b612173600760009054906101000a900473ffffffffffffffffffffffffffffffffffffffff1673ffffffffffffffffffffffffffffffffffffffff1663313ce5676040518163ffffffff1660e01b815260040160206040518083038186803b15801561211e57600080fd5b505afa158015612132573d6000803e3d6000fd5b505050506040513d601f19601f820116820180604052508101906121569190614cd5565b60ff16600a0a612165866142fa565b6141e790919063ffffffff16565b9550612235600860009054906101000a900473ffffffffffffffffffffffffffffffffffffffff1673ffffffffffffffffffffffffffffffffffffffff1663313ce5676040518163ffffffff1660e01b815260040160206040518083038186803b1580156121e057600080fd5b505afa1580156121f4573d6000803e3d6000fd5b505050506040513d601f19601f820116820180604052508101906122189190614cd5565b60ff16600a0a612227846142fa565b6141e790919063ffffffff16565b9450505050509091565b67016345785d8a000081565b600c6020528060005260406000206000915090505481565b600a60009054906101000a900467ffffffffffffffff1681565b600a60089054906101000a900473ffffffffffffffffffffffffffffffffffffffff1681565b600860009054906101000a900473ffffffffffffffffffffffffffffffffffffffff1681565b600160009054906101000a900473ffffffffffffffffffffffffffffffffffffffff1681565b600460009054906101000a900473ffffffffffffffffffffffffffffffffffffffff1673ffffffffffffffffffffffffffffffffffffffff1663e97dcb626040518163ffffffff1660e01b8152600401600060405180830381600087803b15801561235957600080fd5b505af115801561236d573d6000803e3d6000fd5b50505050600260065414156123ea576040517f08c379a000000000000000000000000000000000000000000000000000000000815260040180806020018281038252601d8152602001807f4c6f636b436f6e74726163743a207265656e7472616e742063616c6c2e00000081525060200191505060405180910390fd5b6002600681905550600060149054906101000a900460ff1615612442576040517f08c379a00000000000000000000000000000000000000000000000000000000081526004016124399061568a565b60405180910390fd5b60008054906101000a900473ffffffffffffffffffffffffffffffffffffffff1673ffffffffffffffffffffffffffffffffffffffff1663bf86d6906040518163ffffffff1660e01b815260040160206040518083038186803b1580156124a857600080fd5b505afa1580156124bc573d6000803e3d6000fd5b505050506040513d601f19601f820116820180604052508101906124e0919061496b565b61251f576040517f08c379a00000000000000000000000000000000000000000000000000000000081526004016125169061576a565b60405180910390fd5b600a601c9054906101000a900460ff1661256e576040517f08c379a00000000000000000000000000000000000000000000000000000000081526004016125659061588a565b60405180910390fd5b6000600a60009054906101000a900467ffffffffffffffff1667ffffffffffffffff1614156125d2576040517f08c379a00000000000000000000000000000000000000000000000000000000081526004016125c9906157ca565b60405180910390fd5b600a60009054906101000a900467ffffffffffffffff1667ffffffffffffffff166125fb61414f565b67ffffffffffffffff1610612645576040517f08c379a000000000000000000000000000000000000000000000000000000000815260040161263c906157ea565b60405180910390fd5b60006126ff67016345785d8a000060008054906101000a900473ffffffffffffffffffffffffffffffffffffffff1673ffffffffffffffffffffffffffffffffffffffff1663260377506040518163ffffffff1660e01b815260040160206040518083038186803b1580156126b957600080fd5b505afa1580156126cd573d6000803e3d6000fd5b505050506040513d601f19601f820116820180604052508101906126f19190614ba7565b61437a90919063ffffffff16565b905080600b5411612745576040517f08c379a000000000000000000000000000000000000000000000000000000000815260040161273c906156ca565b60405180910390fd5b6000600a601c6101000a81548160ff0219169083151502179055503373ffffffffffffffffffffffffffffffffffffffff167fcaf37a95bc2985ab407c11d2c65eb92feb22c303997f953e8b2f33a86533ea7a60405160405180910390a2506001600681905550600460009054906101000a900473ffffffffffffffffffffffffffffffffffffffff1673ffffffffffffffffffffffffffffffffffffffff1663e9fad8ee6040518163ffffffff1660e01b8152600401600060405180830381600087803b15801561281657600080fd5b505af115801561282a573d6000803e3d6000fd5b50505050565b600460009054906101000a900473ffffffffffffffffffffffffffffffffffffffff1673ffffffffffffffffffffffffffffffffffffffff1663e97dcb626040518163ffffffff1660e01b8152600401600060405180830381600087803b15801561289a57600080fd5b505af11580156128ae573d6000803e3d6000fd5b505050506002600654141561292b576040517f08c379a000000000000000000000000000000000000000000000000000000000815260040180806020018281038252601d8152602001807f4c6f636b436f6e74726163743a207265656e7472616e742063616c6c2e00000081525060200191505060405180910390fd5b6002600681905550600060149054906101000a900460ff1615612983576040517f08c379a000000000000000000000000000000000000000000000000000000000815260040161297a9061568a565b60405180910390fd5b60008054906101000a900473ffffffffffffffffffffffffffffffffffffffff1673ffffffffffffffffffffffffffffffffffffffff1663bf86d6906040518163ffffffff1660e01b815260040160206040518083038186803b1580156129e957600080fd5b505afa1580156129fd573d6000803e3d6000fd5b505050506040513d601f19601f82011682018060405250810190612a21919061496b565b612a60576040517f08c379a0000000000000000000000000000000000000000000000000000000008152600401612a579061576a565b60405180910390fd5b612a686140e5565b612aa7576040517f08c379a0000000000000000000000000000000000000000000000000000000008152600401612a9e9061578a565b60405180910390fd5b612aaf61462a565b60008054906101000a900473ffffffffffffffffffffffffffffffffffffffff1673ffffffffffffffffffffffffffffffffffffffff166380f556056040518163ffffffff1660e01b815260040160206040518083038186803b158015612b1557600080fd5b505afa158015612b29573d6000803e3d6000fd5b505050506040513d601f19601f82011682018060405250810190612b4d9190614a61565b73ffffffffffffffffffffffffffffffffffffffff1663eb6843ce846040518263ffffffff1660e01b8152600401612b859190615929565b61014060405180830381600087803b158015612ba057600080fd5b505af1158015612bb4573d6000803e3d6000fd5b505050506040513d601f19601f82011682018060405250810190612bd89190614b18565b90506000612c1d600960008461012001516001811115612bf457fe5b6001811115612bff57fe5b815260200190815260200160002054846141e790919063ffffffff16565b9050612c6d816040518060400160405280601881526020017f496e73756666696369656e7420636f6c6c61746572616c2e000000000000000081525084602001516144199092919063ffffffff16565b826020018181525050612cc4836040518060400160405280600c81526020017f457863656564732064656274000000000000000000000000000000000000000081525084604001516144199092919063ffffffff16565b826040018181525050600260009054906101000a900473ffffffffffffffffffffffffffffffffffffffff1673ffffffffffffffffffffffffffffffffffffffff1663a075bd0185846040518363ffffffff1660e01b8152600401612d2a929190615944565b600060405180830381600087803b158015612d4457600080fd5b505af1158015612d58573d6000803e3d6000fd5b50505050600260009054906101000a900473ffffffffffffffffffffffffffffffffffffffff1673ffffffffffffffffffffffffffffffffffffffff16634b6f31988361012001518560006040518463ffffffff1660e01b8152600401612dc1939291906155f3565b6040805180830381600087803b158015612dda57600080fd5b505af1158015612dee573d6000803e3d6000fd5b505050506040513d601f19601f82011682018060405250810190612e129190614b42565b5050600360009054906101000a900473ffffffffffffffffffffffffffffffffffffffff1673ffffffffffffffffffffffffffffffffffffffff166379cc679033856040518363ffffffff1660e01b8152600401612e719291906154fe565b600060405180830381600087803b158015612e8b57600080fd5b505af1158015612e9f573d6000803e3d6000fd5b50505050600260009054906101000a900473ffffffffffffffffffffffffffffffffffffffff1673ffffffffffffffffffffffffffffffffffffffff1663f13c16b083610120015133846040518463ffffffff1660e01b8152600401612f07939291906155bc565b600060405180830381600087803b158015612f2157600080fd5b505af1158015612f35573d6000803e3d6000fd5b505050503373ffffffffffffffffffffffffffffffffffffffff168467ffffffffffffffff167fae7c3aaae4b86264a014faf6ea1ef9979b8dde995d652232b73f953ef77a57d68584604051612f8c9291906158e5565b60405180910390a350506001600681905550600460009054906101000a900473ffffffffffffffffffffffffffffffffffffffff1673ffffffffffffffffffffffffffffffffffffffff1663e9fad8ee6040518163ffffffff1660e01b8152600401600060405180830381600087803b15801561300857600080fd5b505af115801561301c573d6000803e3d6000fd5b505050505050565b600460009054906101000a900473ffffffffffffffffffffffffffffffffffffffff1673ffffffffffffffffffffffffffffffffffffffff1663e97dcb626040518163ffffffff1660e01b8152600401600060405180830381600087803b15801561308e57600080fd5b505af11580156130a2573d6000803e3d6000fd5b505050506002600654141561311f576040517f08c379a000000000000000000000000000000000000000000000000000000000815260040180806020018281038252601d8152602001807f4c6f636b436f6e74726163743a207265656e7472616e742063616c6c2e00000081525060200191505060405180910390fd5b60026006819055506000600c60003373ffffffffffffffffffffffffffffffffffffffff1673ffffffffffffffffffffffffffffffffffffffff16815260200190815260200160002054905060008114156131af576040517f08c379a00000000000000000000000000000000000000000000000000000000081526004016131a69061564a565b60405180910390fd5b6000600c60003373ffffffffffffffffffffffffffffffffffffffff1673ffffffffffffffffffffffffffffffffffffffff1681526020019081526020016000208190555061320981600b546144d990919063ffffffff16565b600b81905550600a60089054906101000a900473ffffffffffffffffffffffffffffffffffffffff1673ffffffffffffffffffffffffffffffffffffffff1663a9059cbb33836040518363ffffffff1660e01b815260040161326c9291906154fe565b602060405180830381600087803b15801561328657600080fd5b505af115801561329a573d6000803e3d6000fd5b505050506040513d601f19601f820116820180604052508101906132be919061496b565b6132c757600080fd5b3373ffffffffffffffffffffffffffffffffffffffff167f02cdad8fe595d5f15cdf217aa61a8d7002f148da0abc88d26a93eb3122cf0d598260405161330d91906158ca565b60405180910390a2506001600681905550600460009054906101000a900473ffffffffffffffffffffffffffffffffffffffff1673ffffffffffffffffffffffffffffffffffffffff1663e9fad8ee6040518163ffffffff1660e01b8152600401600060405180830381600087803b15801561338857600080fd5b505af115801561339c573d6000803e3d6000fd5b50505050565b600760009054906101000a900473ffffffffffffffffffffffffffffffffffffffff1681565b600b5481565b60008054906101000a900473ffffffffffffffffffffffffffffffffffffffff1673ffffffffffffffffffffffffffffffffffffffff163373ffffffffffffffffffffffffffffffffffffffff161461348f576040517f08c379a00000000000000000000000000000000000000000000000000000000081526004018080602001828103825260198152602001807f476f7665726e65643a204e6f7420417574686f72697a65642e0000000000000081525060200191505060405180910390fd5b80600760006101000a81548173ffffffffffffffffffffffffffffffffffffffff021916908373ffffffffffffffffffffffffffffffffffffffff1602179055508073ffffffffffffffffffffffffffffffffffffffff166040516134f390615497565b60405180910390207f78caada2f560033c9479d8c5e33f045f2e611faebe6b6d8a73874c80ec2dd3a260405160405180910390a350565b60008054906101000a900473ffffffffffffffffffffffffffffffffffffffff1673ffffffffffffffffffffffffffffffffffffffff163373ffffffffffffffffffffffffffffffffffffffff16146135eb576040517f08c379a00000000000000000000000000000000000000000000000000000000081526004018080602001828103825260198152602001807f476f7665726e65643a204e6f7420417574686f72697a65642e0000000000000081525060200191505060405180910390fd5b600060149054906101000a900460ff161561363b576040517f08c379a00000000000000000000000000000000000000000000000000000000081526004016136329061568a565b60405180910390fd5b60008054906101000a900473ffffffffffffffffffffffffffffffffffffffff1673ffffffffffffffffffffffffffffffffffffffff1663bf86d6906040518163ffffffff1660e01b815260040160206040518083038186803b1580156136a157600080fd5b505afa1580156136b5573d6000803e3d6000fd5b505050506040513d601f19601f820116820180604052508101906136d9919061496b565b613718576040517f08c379a000000000000000000000000000000000000000000000000000000000815260040161370f9061576a565b60405180910390fd5b600a601c9054906101000a900460ff1615613768576040517f08c379a000000000000000000000000000000000000000000000000000000000815260040161375f906158aa565b60405180910390fd5b6001600a601c6101000a81548160ff02191690831515021790555081600760006101000a81548173ffffffffffffffffffffffffffffffffffffffff021916908373ffffffffffffffffffffffffffffffffffffffff16021790555080600860006101000a81548173ffffffffffffffffffffffffffffffffffffffff021916908373ffffffffffffffffffffffffffffffffffffffff1602179055508173ffffffffffffffffffffffffffffffffffffffff1660405161382890615497565b60405180910390207f78caada2f560033c9479d8c5e33f045f2e611faebe6b6d8a73874c80ec2dd3a260405160405180910390a38073ffffffffffffffffffffffffffffffffffffffff1660405161387f90615482565b60405180910390207f78caada2f560033c9479d8c5e33f045f2e611faebe6b6d8a73874c80ec2dd3a260405160405180910390a35050565b600460009054906101000a900473ffffffffffffffffffffffffffffffffffffffff1673ffffffffffffffffffffffffffffffffffffffff1663e97dcb626040518163ffffffff1660e01b8152600401600060405180830381600087803b15801561392157600080fd5b505af1158015613935573d6000803e3d6000fd5b50505050600260065414156139b2576040517f08c379a000000000000000000000000000000000000000000000000000000000815260040180806020018281038252601d8152602001807f4c6f636b436f6e74726163743a207265656e7472616e742063616c6c2e00000081525060200191505060405180910390fd5b6002600681905550600060149054906101000a900460ff1615613a0a576040517f08c379a0000000000000000000000000000000000000000000000000000000008152600401613a019061568a565b60405180910390fd5b60008054906101000a900473ffffffffffffffffffffffffffffffffffffffff1673ffffffffffffffffffffffffffffffffffffffff1663bf86d6906040518163ffffffff1660e01b815260040160206040518083038186803b158015613a7057600080fd5b505afa158015613a84573d6000803e3d6000fd5b505050506040513d601f19601f82011682018060405250810190613aa8919061496b565b613ae7576040517f08c379a0000000000000000000000000000000000000000000000000000000008152600401613ade9061576a565b60405180910390fd5b6000600a60009054906101000a900467ffffffffffffffff1667ffffffffffffffff1614613b4a576040517f08c379a0000000000000000000000000000000000000000000000000000000008152600401613b41906156aa565b60405180910390fd5b60008060009054906101000a900473ffffffffffffffffffffffffffffffffffffffff1673ffffffffffffffffffffffffffffffffffffffff166385aa61036040518163ffffffff1660e01b815260040160206040518083038186803b158015613bb357600080fd5b505afa158015613bc7573d6000803e3d6000fd5b505050506040513d601f19601f82011682018060405250810190613beb91906149bd565b73ffffffffffffffffffffffffffffffffffffffff16631b8757686040518163ffffffff1660e01b815260040160206040518083038186803b158015613c3057600080fd5b505afa158015613c44573d6000803e3d6000fd5b505050506040513d601f19601f82011682018060405250810190613c689190614bf9565b90506000613d296202a30060008054906101000a900473ffffffffffffffffffffffffffffffffffffffff1673ffffffffffffffffffffffffffffffffffffffff1663585690816040518163ffffffff1660e01b815260040160206040518083038186803b158015613cd957600080fd5b505afa158015613ced573d6000803e3d6000fd5b505050506040513d601f19601f82011682018060405250810190613d119190614bf9565b67ffffffffffffffff1661452390919063ffffffff16565b90508067ffffffffffffffff168267ffffffffffffffff1610613d4c5781613d4e565b805b600a60006101000a81548167ffffffffffffffff021916908367ffffffffffffffff1602179055507f34bf3e2c7325e60cfaee127ed77fc0af0b6f642909e032bac8eab42419e22ca7600a60009054906101000a900467ffffffffffffffff16604051613dbb919061590e565b60405180910390a150506001600681905550600460009054906101000a900473ffffffffffffffffffffffffffffffffffffffff1673ffffffffffffffffffffffffffffffffffffffff1663e9fad8ee6040518163ffffffff1660e01b8152600401600060405180830381600087803b158015613e3757600080fd5b505af1158015613e4b573d6000803e3d6000fd5b50505050565b60096020528060005260406000206000915090505481565b6001600060146101000a81548160ff0219169083151502179055507f7acc84e34091ae817647a4c49116f5cc07f319078ba80f8f5fde37ea7e25cbd660405160405180910390a1565b60008054906101000a900473ffffffffffffffffffffffffffffffffffffffff1673ffffffffffffffffffffffffffffffffffffffff166399eeec956040518163ffffffff1660e01b815260040160206040518083038186803b158015613f1857600080fd5b505afa158015613f2c573d6000803e3d6000fd5b505050506040513d601f19601f82011682018060405250810190613f5091906149e6565b600a60086101000a81548173ffffffffffffffffffffffffffffffffffffffff021916908373ffffffffffffffffffffffffffffffffffffffff16021790555060016005600063e4e9bcca60e01b7bffffffffffffffffffffffffffffffffffffffffffffffffffffffff19167bffffffffffffffffffffffffffffffffffffffffffffffffffffffff1916815260200190815260200160002060006101000a81548160ff021916908315150217905550600160056000637119a49060e01b7bffffffffffffffffffffffffffffffffffffffffffffffffffffffff19167bffffffffffffffffffffffffffffffffffffffffffffffffffffffff1916815260200190815260200160002060006101000a81548160ff02191690831515021790555060016005600063eeaadadf60e01b7bffffffffffffffffffffffffffffffffffffffffffffffffffffffff19167bffffffffffffffffffffffffffffffffffffffffffffffffffffffff1916815260200190815260200160002060006101000a81548160ff021916908315150217905550565b600080600960008060018111156140f857fe5b600181111561410357fe5b8152602001908152602001600020541415801561414a575060006009600060018081111561412d57fe5b600181111561413857fe5b81526020019081526020016000205414155b905090565b600061415a426145bf565b905090565b6000808284019050838110156141dd576040517f08c379a000000000000000000000000000000000000000000000000000000000815260040180806020018281038252601b8152602001807f536166654d6174683a206164646974696f6e206f766572666c6f77000000000081525060200191505060405180910390fd5b8091505092915050565b6000808314156141fa57600090506142f4565b6000821415614271576040517f08c379a000000000000000000000000000000000000000000000000000000000815260040180806020018281038252601b8152602001807f536166654d6174683a206469766973696f6e206279207a65726f2e000000000081525060200191505060405180910390fd5b670de0b6b3a764000083029050670de0b6b3a764000083828161429057fe5b04146142e7576040517f08c379a0000000000000000000000000000000000000000000000000000000008152600401808060200182810382526022815260200180615d786022913960400191505060405180910390fd5b8181816142f057fe5b0490505b92915050565b600080821215614372576040517f08c379a00000000000000000000000000000000000000000000000000000000081526004018080602001828103825260208152602001807f53616665436173743a2076616c7565206d75737420626520706f73697469766581525060200191505060405180910390fd5b819050919050565b60008083148061438a5750600082145b156143985760009050614413565b8183029050818382816143a757fe5b04146143fe576040517f08c379a0000000000000000000000000000000000000000000000000000000008152600401808060200182810382526022815260200180615d786022913960400191505060405180910390fd5b670de0b6b3a7640000818161440f57fe5b0490505b92915050565b60008383111582906144c6576040517f08c379a00000000000000000000000000000000000000000000000000000000081526004018080602001828103825283818151815260200191508051906020019080838360005b8381101561448b578082015181840152602081019050614470565b50505050905090810190601f1680156144b85780820380516001836020036101000a031916815260200191505b509250505060405180910390fd5b5060008385039050809150509392505050565b600061451b83836040518060400160405280601e81526020017f536166654d6174683a207375627472616374696f6e206f766572666c6f770000815250614419565b905092915050565b60008082840190508367ffffffffffffffff168167ffffffffffffffff1610156145b5576040517f08c379a000000000000000000000000000000000000000000000000000000000815260040180806020018281038252601b8152602001807f536166654d6174683a206164646974696f6e206f766572666c6f77000000000081525060200191505060405180910390fd5b8091505092915050565b6000680100000000000000008210614622576040517f08c379a0000000000000000000000000000000000000000000000000000000008152600401808060200182810382526026815260200180615d9a6026913960400191505060405180910390fd5b819050919050565b6040518061014001604052806000815260200160008152602001600081526020016000815260200160008152602001600067ffffffffffffffff168152602001600067ffffffffffffffff168152602001600067ffffffffffffffff168152602001600063ffffffff168152602001600060018111156146a657fe5b81525090565b6000813590506146bb81615bf7565b92915050565b6000815190506146d081615c0e565b92915050565b6000813590506146e581615c25565b92915050565b6000815190506146fa81615c3c565b92915050565b60008151905061470f81615c53565b92915050565b60008151905061472481615c6a565b92915050565b60008135905061473981615c81565b92915050565b60008151905061474e81615c98565b92915050565b60008135905061476381615caf565b92915050565b60008135905061477881615cc6565b92915050565b60008151905061478d81615cc6565b92915050565b6000815190506147a281615cd6565b92915050565b600061014082840312156147bb57600080fd5b6147c661014061596e565b905060006147d6848285016148c4565b60008301525060206147ea848285016148c4565b60208301525060406147fe848285016148c4565b6040830152506060614812848285016148c4565b6060830152506080614826848285016148c4565b60808301525060a061483a84828501614903565b60a08301525060c061484e84828501614903565b60c08301525060e061486284828501614903565b60e083015250610100614877848285016148d9565b6101008301525061012061488d8482850161477e565b6101208301525092915050565b6000815190506148a981615ced565b92915050565b6000813590506148be81615d04565b92915050565b6000815190506148d381615d04565b92915050565b6000815190506148e881615d1b565b92915050565b6000813590506148fd81615d32565b92915050565b60008151905061491281615d32565b92915050565b60008151905061492781615d60565b92915050565b60008151905061493c81615d49565b92915050565b60006020828403121561495457600080fd5b6000614962848285016146ac565b91505092915050565b60006020828403121561497d57600080fd5b600061498b848285016146c1565b91505092915050565b6000602082840312156149a657600080fd5b60006149b4848285016146d6565b91505092915050565b6000602082840312156149cf57600080fd5b60006149dd848285016146eb565b91505092915050565b6000602082840312156149f857600080fd5b6000614a0684828501614700565b91505092915050565b600060208284031215614a2157600080fd5b6000614a2f84828501614715565b91505092915050565b600060208284031215614a4a57600080fd5b6000614a588482850161472a565b91505092915050565b600060208284031215614a7357600080fd5b6000614a818482850161473f565b91505092915050565b600060208284031215614a9c57600080fd5b6000614aaa84828501614754565b91505092915050565b60008060408385031215614ac657600080fd5b6000614ad485828601614754565b9250506020614ae585828601614754565b9150509250929050565b600060208284031215614b0157600080fd5b6000614b0f84828501614769565b91505092915050565b60006101408284031215614b2b57600080fd5b6000614b39848285016147a8565b91505092915050565b60008060408385031215614b5557600080fd5b6000614b638582860161489a565b9250506020614b748582860161489a565b9150509250929050565b600060208284031215614b9057600080fd5b6000614b9e848285016148af565b91505092915050565b600060208284031215614bb957600080fd5b6000614bc7848285016148c4565b91505092915050565b600060208284031215614be257600080fd5b6000614bf0848285016148ee565b91505092915050565b600060208284031215614c0b57600080fd5b6000614c1984828501614903565b91505092915050565b60008060408385031215614c3557600080fd5b6000614c43858286016148ee565b9250506020614c54858286016148af565b9150509250929050565b600080600080600060a08688031215614c7657600080fd5b6000614c8488828901614918565b9550506020614c9588828901614793565b9450506040614ca6888289016148c4565b9350506060614cb7888289016148c4565b9250506080614cc888828901614918565b9150509295509295909350565b600060208284031215614ce757600080fd5b6000614cf58482850161492d565b91505092915050565b614d0781615b1b565b82525050565b614d16816159bb565b82525050565b614d25816159cd565b82525050565b614d3481615b2d565b82525050565b614d4381615b51565b82525050565b614d5281615b75565b82525050565b614d6181615b99565b82525050565b614d7081615b99565b82525050565b6000614d8360148361599f565b91507f4e6f20707269636520636f6e666964656e63652e0000000000000000000000006000830152602082019050919050565b6000614dc360118361599f565b91507f4e6f20746f6b656e73207374616b65642e0000000000000000000000000000006000830152602082019050919050565b6000614e036010836159b0565b91507f627463507269636550726f7669646572000000000000000000000000000000006000830152601082019050919050565b6000614e43600a8361599f565b91507f4e6f206566666563742e000000000000000000000000000000000000000000006000830152602082019050919050565b6000614e836010836159b0565b91507f657468507269636550726f7669646572000000000000000000000000000000006000830152601082019050919050565b6000614ec360148361599f565b91507f436f6e74726163742069732073746f707065642e0000000000000000000000006000830152602082019050919050565b6000614f0360148361599f565b91507f416c726561647920696e697469616c697a65642e0000000000000000000000006000830152602082019050919050565b6000614f4360218361599f565b91507f496e73756666696369656e74206e6f20636f6e666964656e636520766f74657360008301527f2e000000000000000000000000000000000000000000000000000000000000006020830152604082019050919050565b6000614fa9600f8361599f565b91507f4e6f7420417574686f72697a65642e00000000000000000000000000000000006000830152602082019050919050565b6000614fe9601d8361599f565b91507f4e6f20636f6c6c61746572616c20746f2077697468647261772e5b325d0000006000830152602082019050919050565b600061502960138361599f565b91507f427463207072696365206973207374616c652e000000000000000000000000006000830152602082019050919050565b600061506960188361599f565b91507f50726963657320616c726561647920636f6d706c6574652e00000000000000006000830152602082019050919050565b60006150a960208361599f565b91507f4f6e6c7920617574686f72697a656420647572696e672073687574646f776e2e6000830152602082019050919050565b60006150e960148361599f565b91507f507269636573206e6f7420636f6d706c6574652e0000000000000000000000006000830152602082019050919050565b600061512960128361599f565b91507f45746820707269636520696e76616c69642e00000000000000000000000000006000830152602082019050919050565b600061516960108361599f565b91507f4e6f7420696e697469616c697a65642e000000000000000000000000000000006000830152602082019050919050565b60006151a9601c8361599f565b91507f4e6f20636f6e666964656e63652077696e646f77207061737365642e000000006000830152602082019050919050565b60006151e9601d8361599f565b91507f4e6f20636f6c6c61746572616c20746f2077697468647261772e5b315d0000006000830152602082019050919050565b600061522960128361599f565b91507f42746320707269636520696e76616c69642e00000000000000000000000000006000830152602082019050919050565b600061526960138361599f565b91507f457468207072696365206973207374616c652e000000000000000000000000006000830152602082019050919050565b60006152a960158361599f565b91507f4e6f7420726561647920666f72207072696365732e00000000000000000000006000830152602082019050919050565b60006152e9601c8361599f565b91507f416c7265616479206e6f20707269636520636f6e666964656e63652e000000006000830152602082019050919050565b600061532960158361599f565b91507f48617320707269636520636f6e666964656e63652e00000000000000000000006000830152602082019050919050565b610140820160008201516153736000850182615428565b5060208201516153866020850182615428565b5060408201516153996040850182615428565b5060608201516153ac6060850182615428565b5060808201516153bf6080850182615428565b5060a08201516153d260a0850182615464565b5060c08201516153e560c0850182615464565b5060e08201516153f860e0850182615464565b5061010082015161540d610100850182615446565b50610120820151615422610120850182614d58565b50505050565b61543181615aca565b82525050565b61544081615aca565b82525050565b61544f81615ad4565b82525050565b61545e81615bcf565b82525050565b61546d81615ae4565b82525050565b61547c81615ae4565b82525050565b600061548d82614df6565b9150819050919050565b60006154a282614e76565b9150819050919050565b60006020820190506154c16000830184614d0d565b92915050565b60006060820190506154dc6000830186614cfe565b6154e96020830185614d0d565b6154f66040830184615437565b949350505050565b60006040820190506155136000830185614cfe565b6155206020830184615437565b9392505050565b600060408201905061553c6000830185614cfe565b6155496020830184615455565b9392505050565b60006020820190506155656000830184614d1c565b92915050565b60006020820190506155806000830184614d2b565b92915050565b600060208201905061559b6000830184614d3a565b92915050565b60006020820190506155b66000830184614d49565b92915050565b60006060820190506155d16000830186614d67565b6155de6020830185614cfe565b6155eb6040830184615437565b949350505050565b60006060820190506156086000830186614d67565b6156156020830185615437565b6156226040830184614d1c565b949350505050565b6000602082019050818103600083015261564381614d76565b9050919050565b6000602082019050818103600083015261566381614db6565b9050919050565b6000602082019050818103600083015261568381614e36565b9050919050565b600060208201905081810360008301526156a381614eb6565b9050919050565b600060208201905081810360008301526156c381614ef6565b9050919050565b600060208201905081810360008301526156e381614f36565b9050919050565b6000602082019050818103600083015261570381614f9c565b9050919050565b6000602082019050818103600083015261572381614fdc565b9050919050565b600060208201905081810360008301526157438161501c565b9050919050565b600060208201905081810360008301526157638161505c565b9050919050565b600060208201905081810360008301526157838161509c565b9050919050565b600060208201905081810360008301526157a3816150dc565b9050919050565b600060208201905081810360008301526157c38161511c565b9050919050565b600060208201905081810360008301526157e38161515c565b9050919050565b600060208201905081810360008301526158038161519c565b9050919050565b60006020820190508181036000830152615823816151dc565b9050919050565b600060208201905081810360008301526158438161521c565b9050919050565b600060208201905081810360008301526158638161525c565b9050919050565b600060208201905081810360008301526158838161529c565b9050919050565b600060208201905081810360008301526158a3816152dc565b9050919050565b600060208201905081810360008301526158c38161531c565b9050919050565b60006020820190506158df6000830184615437565b92915050565b60006040820190506158fa6000830185615437565b6159076020830184615437565b9392505050565b60006020820190506159236000830184615455565b92915050565b600060208201905061593e6000830184615473565b92915050565b60006101608201905061595a6000830185615473565b615967602083018461535c565b9392505050565b6000604051905081810181811067ffffffffffffffff8211171561599557615994615be1565b5b8060405250919050565b600082825260208201905092915050565b600081905092915050565b60006159c682615aaa565b9050919050565b60008115159050919050565b60007fffffffff0000000000000000000000000000000000000000000000000000000082169050919050565b6000615a10826159bb565b9050919050565b6000615a22826159bb565b9050919050565b6000615a34826159bb565b9050919050565b6000615a46826159bb565b9050919050565b6000615a58826159bb565b9050919050565b6000615a6a826159bb565b9050919050565b6000819050615a7f82615be3565b919050565b6000819050919050565b60006fffffffffffffffffffffffffffffffff82169050919050565b600073ffffffffffffffffffffffffffffffffffffffff82169050919050565b6000819050919050565b600063ffffffff82169050919050565b600067ffffffffffffffff82169050919050565b600060ff82169050919050565b600069ffffffffffffffffffff82169050919050565b6000615b2682615bab565b9050919050565b6000615b3882615b3f565b9050919050565b6000615b4a82615aaa565b9050919050565b6000615b5c82615b63565b9050919050565b6000615b6e82615aaa565b9050919050565b6000615b8082615b87565b9050919050565b6000615b9282615aaa565b9050919050565b6000615ba482615a71565b9050919050565b6000615bb682615bbd565b9050919050565b6000615bc882615aaa565b9050919050565b6000615bda82615ae4565b9050919050565bfe5b60028110615bf457615bf3615be1565b5b50565b615c00816159bb565b8114615c0b57600080fd5b50565b615c17816159cd565b8114615c2257600080fd5b50565b615c2e816159d9565b8114615c3957600080fd5b50565b615c4581615a05565b8114615c5057600080fd5b50565b615c5c81615a17565b8114615c6757600080fd5b50565b615c7381615a29565b8114615c7e57600080fd5b50565b615c8a81615a3b565b8114615c9557600080fd5b50565b615ca181615a4d565b8114615cac57600080fd5b50565b615cb881615a5f565b8114615cc357600080fd5b50565b60028110615cd357600080fd5b50565b615cdf81615a84565b8114615cea57600080fd5b50565b615cf681615a8e565b8114615d0157600080fd5b50565b615d0d81615aca565b8114615d1857600080fd5b50565b615d2481615ad4565b8114615d2f57600080fd5b50565b615d3b81615ae4565b8114615d4657600080fd5b50565b615d5281615af8565b8114615d5d57600080fd5b50565b615d6981615b05565b8114615d7457600080fd5b5056fe536166654d6174683a206d756c7469706c69636174696f6e206f766572666c6f772e53616665436173743a2076616c756520646f65736e27742066697420696e2036342062697473a2646970667358221220cb6a3a13174516840f33933c22480e0c73c8404f1a7c8126970fb752e6873c5864736f6c63430007040033",
  "linkReferences": {},
  "deployedLinkReferences": {}
}