{
  "_format": "hh-sol-artifact-1",
  "contractName": "Settlement",
  "sourceName": "contracts/core/logic/Settlement.sol",
  "abi": [
    {
      "inputs": [
        {
          "internalType": "contract IPriceProvider",
          "name": "_ethPriceProvider",
          "type": "address"
        }
      ],
      "stateMutability": "nonpayable",
      "type": "constructor"
    },
    {
      "anonymous": false,
      "inputs": [
        {
          "indexed": true,
          "internalType": "address",
          "name": "governor",
          "type": "address"
        }
      ],
      "name": "Initialized",
      "type": "event"
    },
    {
      "anonymous": false,
      "inputs": [
        {
          "indexed": true,
          "internalType": "address",
          "name": "account",
          "type": "address"
        }
      ],
      "name": "NoConfidenceConfirmed",
      "type": "event"
    },
    {
      "anonymous": false,
      "inputs": [
        {
          "indexed": true,
          "internalType": "string",
          "name": "paramName",
          "type": "string"
        },
        {
          "indexed": true,
          "internalType": "address",
          "name": "_address",
          "type": "address"
        }
      ],
      "name": "ParameterUpdatedAddress",
      "type": "event"
    },
    {
      "anonymous": false,
      "inputs": [
        {
          "indexed": true,
          "internalType": "uint64",
          "name": "positionID",
          "type": "uint64"
        },
        {
          "indexed": true,
          "internalType": "address",
          "name": "caller",
          "type": "address"
        },
        {
          "indexed": false,
          "internalType": "uint256",
          "name": "hueCount",
          "type": "uint256"
        },
        {
          "indexed": false,
          "internalType": "uint256",
          "name": "collateralCount",
          "type": "uint256"
        }
      ],
      "name": "SettlementCollateralForHue",
      "type": "event"
    },
    {
      "anonymous": false,
      "inputs": [
        {
          "indexed": false,
          "internalType": "uint256",
          "name": "settlementDiscoveryStartTime",
          "type": "uint256"
        }
      ],
      "name": "SettlementInitialized",
      "type": "event"
    },
    {
      "anonymous": false,
      "inputs": [
        {
          "indexed": true,
          "internalType": "uint64",
          "name": "positionID",
          "type": "uint64"
        },
        {
          "indexed": true,
          "internalType": "address",
          "name": "owner",
          "type": "address"
        },
        {
          "indexed": false,
          "internalType": "uint256",
          "name": "collateralToWithdraw",
          "type": "uint256"
        }
      ],
      "name": "SettlementWithdrawCollateral",
      "type": "event"
    },
    {
      "anonymous": false,
      "inputs": [
        {
          "indexed": true,
          "internalType": "address",
          "name": "account",
          "type": "address"
        },
        {
          "indexed": false,
          "internalType": "uint256",
          "name": "count",
          "type": "uint256"
        }
      ],
      "name": "StakedNoConfidenceTokens",
      "type": "event"
    },
    {
      "anonymous": false,
      "inputs": [],
      "name": "Stopped",
      "type": "event"
    },
    {
      "anonymous": false,
      "inputs": [
        {
          "indexed": true,
          "internalType": "address",
          "name": "account",
          "type": "address"
        },
        {
          "indexed": false,
          "internalType": "uint256",
          "name": "count",
          "type": "uint256"
        }
      ],
      "name": "UnstakedNoConfidenceTokens",
      "type": "event"
    },
    {
      "inputs": [],
      "name": "SETTLEMENT_PRICE_NO_CONFIDENCE_THRESHOLD",
      "outputs": [
        {
          "internalType": "uint256",
          "name": "",
          "type": "uint256"
        }
      ],
      "stateMutability": "view",
      "type": "function"
    },
    {
      "inputs": [],
      "name": "confirmNoPriceConfidence",
      "outputs": [],
      "stateMutability": "nonpayable",
      "type": "function"
    },
    {
      "inputs": [],
      "name": "confirmPrice",
      "outputs": [],
      "stateMutability": "nonpayable",
      "type": "function"
    },
    {
      "inputs": [],
      "name": "deployer",
      "outputs": [
        {
          "internalType": "address",
          "name": "",
          "type": "address"
        }
      ],
      "stateMutability": "view",
      "type": "function"
    },
    {
      "inputs": [],
      "name": "ethPriceProvider",
      "outputs": [
        {
          "internalType": "contract IPriceProvider",
          "name": "",
          "type": "address"
        }
      ],
      "stateMutability": "view",
      "type": "function"
    },
    {
      "inputs": [
        {
          "internalType": "uint64",
          "name": "positionID",
          "type": "uint64"
        },
        {
          "internalType": "uint256",
          "name": "hueCount",
          "type": "uint256"
        }
      ],
      "name": "getCollateralForHue",
      "outputs": [],
      "stateMutability": "nonpayable",
      "type": "function"
    },
    {
      "inputs": [],
      "name": "getRecentPrice",
      "outputs": [
        {
          "internalType": "uint256",
          "name": "ethPrice",
          "type": "uint256"
        }
      ],
      "stateMutability": "view",
      "type": "function"
    },
    {
      "inputs": [],
      "name": "governor",
      "outputs": [
        {
          "internalType": "contract IGovernor",
          "name": "",
          "type": "address"
        }
      ],
      "stateMutability": "view",
      "type": "function"
    },
    {
      "inputs": [
        {
          "internalType": "contract IGovernor",
          "name": "_governor",
          "type": "address"
        }
      ],
      "name": "init",
      "outputs": [],
      "stateMutability": "nonpayable",
      "type": "function"
    },
    {
      "inputs": [],
      "name": "initializeSettlement",
      "outputs": [],
      "stateMutability": "nonpayable",
      "type": "function"
    },
    {
      "inputs": [
        {
          "internalType": "address",
          "name": "",
          "type": "address"
        }
      ],
      "name": "noPriceConfidenceUserVotes",
      "outputs": [
        {
          "internalType": "uint256",
          "name": "",
          "type": "uint256"
        }
      ],
      "stateMutability": "view",
      "type": "function"
    },
    {
      "inputs": [],
      "name": "priceConfidence",
      "outputs": [
        {
          "internalType": "bool",
          "name": "",
          "type": "bool"
        }
      ],
      "stateMutability": "view",
      "type": "function"
    },
    {
      "inputs": [],
      "name": "priceDiscoveryStartTime",
      "outputs": [
        {
          "internalType": "uint64",
          "name": "",
          "type": "uint64"
        }
      ],
      "stateMutability": "view",
      "type": "function"
    },
    {
      "inputs": [
        {
          "internalType": "contract IPriceProvider",
          "name": "provider",
          "type": "address"
        }
      ],
      "name": "setEthPriceProvider",
      "outputs": [],
      "stateMutability": "nonpayable",
      "type": "function"
    },
    {
      "inputs": [],
      "name": "settlementPrice",
      "outputs": [
        {
          "internalType": "uint256",
          "name": "",
          "type": "uint256"
        }
      ],
      "stateMutability": "view",
      "type": "function"
    },
    {
      "inputs": [],
      "name": "settlementStage",
      "outputs": [
        {
          "internalType": "enum ISettlement.SettlementStage",
          "name": "",
          "type": "uint8"
        }
      ],
      "stateMutability": "view",
      "type": "function"
    },
    {
      "inputs": [
        {
          "internalType": "uint256",
          "name": "countTCPToStake",
          "type": "uint256"
        }
      ],
      "name": "stakeTokensForNoPriceConfidence",
      "outputs": [],
      "stateMutability": "nonpayable",
      "type": "function"
    },
    {
      "inputs": [],
      "name": "stop",
      "outputs": [],
      "stateMutability": "nonpayable",
      "type": "function"
    },
    {
      "inputs": [],
      "name": "stopped",
      "outputs": [
        {
          "internalType": "bool",
          "name": "",
          "type": "bool"
        }
      ],
      "stateMutability": "view",
      "type": "function"
    },
    {
      "inputs": [],
      "name": "tcp",
      "outputs": [
        {
          "internalType": "contract ITCP",
          "name": "",
          "type": "address"
        }
      ],
      "stateMutability": "view",
      "type": "function"
    },
    {
      "inputs": [],
      "name": "thresholdMet",
      "outputs": [
        {
          "internalType": "bool",
          "name": "",
          "type": "bool"
        }
      ],
      "stateMutability": "view",
      "type": "function"
    },
    {
      "inputs": [],
      "name": "unstakeTokensForNoPriceConfidence",
      "outputs": [],
      "stateMutability": "nonpayable",
      "type": "function"
    },
    {
      "inputs": [
        {
          "internalType": "bytes4",
          "name": "",
          "type": "bytes4"
        }
      ],
      "name": "validUpdate",
      "outputs": [
        {
          "internalType": "bool",
          "name": "",
          "type": "bool"
        }
      ],
      "stateMutability": "view",
      "type": "function"
    },
    {
      "inputs": [
        {
          "internalType": "uint64",
          "name": "positionID",
          "type": "uint64"
        }
      ],
      "name": "withdrawCollateral",
      "outputs": [],
      "stateMutability": "nonpayable",
      "type": "function"
    }
  ],
  "bytecode": "0x6080604052600160066000509090556001600960146101000a81548160ff0219169083151502179055507fffffffffffffffffffffffffffffffffffffffffffffffffffffffffffffffff600b600050909055348015620000605760006000fd5b5060405162003bc638038062003bc6833981810160405281019062000086919062000118565b5b5b33600160006101000a81548173ffffffffffffffffffffffffffffffffffffffff021916908373ffffffffffffffffffffffffffffffffffffffff1602179055505b80600760006101000a81548173ffffffffffffffffffffffffffffffffffffffff021916908373ffffffffffffffffffffffffffffffffffffffff1602179055505b506200014f566200014e565b6000602082840312156200012a578081fd5b81516001600160a01b0381168114151562000143578182fd5b809150505b92915050565b5b613a67806200015f6000396000f3fe60806040523480156100115760006000fd5b506004361061019d5760003560e01c806378e8f96e116100e4578063db7f7f1d1161008d578063e4e9bcca11610067578063e4e9bcca146103e5578063f214a2a214610401578063f348e8b21461040b5761019d565b8063db7f7f1d146103b3578063e2083a89146103bd578063e41f7dc1146103c75761019d565b8063997aba1a116100be578063997aba1a1461036d578063bde5cdb11461038b578063d5f39488146103955761019d565b806378e8f96e146103015780639410eb861461031f57806398cd845b1461033d5761019d565b806336fc02f4116101465780635130e763116101205780635130e763146102a957806356850960146102c757806375f12b21146102e35761019d565b806336fc02f4146102515780633ee8b30f1461026f57806342c5ddc41461028b5761019d565b806315b7ef9b1161017757806315b7ef9b146101fb57806319ab453c1461021957806335a12e45146102355761019d565b806307da68f5146101a35780630c340a24146101ad578063113cf1ab146101cb5761019d565b60006000fd5b6101ab610429565b005b6101b5610449565b6040516101c291906134dd565b60405180910390f35b6101e560048036038101906101e09190612fbc565b61046f565b6040516101f291906134c9565b60405180910390f35b610203610494565b6040516102109190613867565b60405180910390f35b610233600480360381019061022e9190613057565b6106cb565b005b61024f600480360381019061024a919061324f565b610a89565b005b610259610c32565b604051610266919061352d565b60405180910390f35b610289600480360381019061028491906132d5565b610c58565b005b610293611134565b6040516102a091906134c9565b60405180910390f35b6102b16112ab565b6040516102be91906134c9565b60405180910390f35b6102e160048036038101906102dc9190613287565b6112be565b005b6102eb611892565b6040516102f891906134c9565b60405180910390f35b6103096118a5565b6040516103169190613555565b60405180910390f35b610327611a2f565b6040516103349190613867565b60405180910390f35b61035760048036038101906103529190612f4b565b611a3b565b6040516103649190613867565b60405180910390f35b610375611a56565b60405161038291906138ae565b60405180910390f35b610393611a70565b005b61039d611ab9565b6040516103aa919061340a565b60405180910390f35b6103bb611adf565b005b6103c5611bb6565b005b6103cf611d42565b6040516103dc9190613505565b60405180910390f35b6103ff60048036038101906103fa91906130f3565b611d68565b005b610409611f34565b005b6104136121e8565b6040516104209190613867565b60405180910390f35b6104376121f163ffffffff16565b61044561228663ffffffff16565b5b5b565b600060009054906101000a900473ffffffffffffffffffffffffffffffffffffffff1681565b600560005060205280600052604060002060009150909054906101000a900460ff1681565b600060006000600760009054906101000a900473ffffffffffffffffffffffffffffffffffffffff1673ffffffffffffffffffffffffffffffffffffffff1663feaf968c6040518163ffffffff1660e01b815260040160a06040518083038186803b1580156105035760006000fd5b505afa158015610518573d600060003e3d6000fd5b505050506040513d601f19601f8201168201806040525081019061053c9190613306565b509350509250506105516122d063ffffffff16565b67ffffffffffffffff16610570610e10836122eb90919063ffffffff16565b1115156105b2576040517f08c379a00000000000000000000000000000000000000000000000000000000081526004016105a990613573565b60405180910390fd5b6000821315156105f7576040517f08c379a00000000000000000000000000000000000000000000000000000000081526004016105ee9061372c565b60405180910390fd5b6106c1600760009054906101000a900473ffffffffffffffffffffffffffffffffffffffff1673ffffffffffffffffffffffffffffffffffffffff1663313ce5676040518163ffffffff1660e01b815260040160206040518083038186803b1580156106635760006000fd5b505afa158015610678573d600060003e3d6000fd5b505050506040513d601f19601f8201168201806040525081019061069c9190613358565b60ff16600a0a6106b384612374909063ffffffff16565b6123ff90919063ffffffff16565b9250825050505b90565b600160009054906101000a900473ffffffffffffffffffffffffffffffffffffffff1673ffffffffffffffffffffffffffffffffffffffff163373ffffffffffffffffffffffffffffffffffffffff161415156107285760006000fd5b600160006101000a81549073ffffffffffffffffffffffffffffffffffffffff021916905580600060006101000a81548173ffffffffffffffffffffffffffffffffffffffff021916908373ffffffffffffffffffffffffffffffffffffffff160217905550600060009054906101000a900473ffffffffffffffffffffffffffffffffffffffff1673ffffffffffffffffffffffffffffffffffffffff16639624e83e6040518163ffffffff1660e01b815260040160206040518083038186803b1580156107f75760006000fd5b505afa15801561080c573d600060003e3d6000fd5b505050506040513d601f19601f820116820180604052508101906108309190613009565b600260006101000a81548173ffffffffffffffffffffffffffffffffffffffff021916908373ffffffffffffffffffffffffffffffffffffffff160217905550600060009054906101000a900473ffffffffffffffffffffffffffffffffffffffff1673ffffffffffffffffffffffffffffffffffffffff1663323741746040518163ffffffff1660e01b815260040160206040518083038186803b1580156108d95760006000fd5b505afa1580156108ee573d600060003e3d6000fd5b505050506040513d601f19601f82011682018060405250810190610912919061307e565b600360006101000a81548173ffffffffffffffffffffffffffffffffffffffff021916908373ffffffffffffffffffffffffffffffffffffffff160217905550600060009054906101000a900473ffffffffffffffffffffffffffffffffffffffff1673ffffffffffffffffffffffffffffffffffffffff1663d478b0876040518163ffffffff1660e01b815260040160206040518083038186803b1580156109bb5760006000fd5b505afa1580156109d0573d600060003e3d6000fd5b505050506040513d601f19601f820116820180604052508101906109f4919061311a565b600460006101000a81548173ffffffffffffffffffffffffffffffffffffffff021916908373ffffffffffffffffffffffffffffffffffffffff160217905550610a4261242563ffffffff16565b8073ffffffffffffffffffffffffffffffffffffffff167f908408e307fc569b417f6cbec5d5a06f44a0a505ac0479b47d421a4b2fd6a1e660405160405180910390a25b50565b610a9761257e63ffffffff16565b610aa7600361265d63ffffffff16565b600081111515610aec576040517f08c379a0000000000000000000000000000000000000000000000000000000008152600401610ae39061366f565b60405180910390fd5b610b4481600a60005060003373ffffffffffffffffffffffffffffffffffffffff1673ffffffffffffffffffffffffffffffffffffffff168152602001908152602001600020600050546122eb90919063ffffffff16565b600a60005060003373ffffffffffffffffffffffffffffffffffffffff1673ffffffffffffffffffffffffffffffffffffffff168152602001908152602001600020600050819090905550610bc3600960009054906101000a900473ffffffffffffffffffffffffffffffffffffffff163330846126c863ffffffff16565b610bd16128f363ffffffff16565b3373ffffffffffffffffffffffffffffffffffffffff167fedbb4f9340677b55be1420c0b8b3bac9f5b41e08db266f57cfd8befc9fe480d582604051610c179190613867565b60405180910390a25b610c2e6129a463ffffffff16565b5b50565b600960009054906101000a900473ffffffffffffffffffffffffffffffffffffffff1681565b610c6661257e63ffffffff16565b610c76600661265d63ffffffff16565b6000600060009054906101000a900473ffffffffffffffffffffffffffffffffffffffff1673ffffffffffffffffffffffffffffffffffffffff166380f556056040518163ffffffff1660e01b815260040160206040518083038186803b158015610ce15760006000fd5b505afa158015610cf6573d600060003e3d6000fd5b505050506040513d601f19601f82011682018060405250810190610d1a91906130a5565b73ffffffffffffffffffffffffffffffffffffffff1663eb6843ce846040518263ffffffff1660e01b8152600401610d5291906138ae565b6101a060405180830381600087803b158015610d6e5760006000fd5b505af1158015610d83573d600060003e3d6000fd5b505050506040513d601f19601f82011682018060405250810190610da79190613168565b905081816040015110151515610df2576040517f08c379a0000000000000000000000000000000000000000000000000000000008152600401610de9906137aa565b60405180910390fd5b6000610e0c600860005054846123ff90919063ffffffff16565b905080826020015110151515610e57576040517f08c379a0000000000000000000000000000000000000000000000000000000008152600401610e4e906137e9565b60405180910390fd5b808260200181815103915090908181526020015050828260400181815103915090908181526020015050600260009054906101000a900473ffffffffffffffffffffffffffffffffffffffff1673ffffffffffffffffffffffffffffffffffffffff16635a6beaf485846040518363ffffffff1660e01b8152600401610ede9291906138ca565b600060405180830381600087803b158015610ef95760006000fd5b505af1158015610f0e573d600060003e3d6000fd5b50505050600260009054906101000a900473ffffffffffffffffffffffffffffffffffffffff1673ffffffffffffffffffffffffffffffffffffffff16632a7ba1f7846040518263ffffffff1660e01b8152600401610f6d9190613867565b600060405180830381600087803b158015610f885760006000fd5b505af1158015610f9d573d600060003e3d6000fd5b50505050600360009054906101000a900473ffffffffffffffffffffffffffffffffffffffff1673ffffffffffffffffffffffffffffffffffffffff166379cc679033856040518363ffffffff1660e01b8152600401610ffe929190613461565b600060405180830381600087803b1580156110195760006000fd5b505af115801561102e573d600060003e3d6000fd5b50505050600260009054906101000a900473ffffffffffffffffffffffffffffffffffffffff1673ffffffffffffffffffffffffffffffffffffffff16636250216933836040518363ffffffff1660e01b815260040161108f929190613432565b600060405180830381600087803b1580156110aa5760006000fd5b505af11580156110bf573d600060003e3d6000fd5b505050503373ffffffffffffffffffffffffffffffffffffffff168467ffffffffffffffff167f0d5247bd1efbd67f96fc7a1e9a2a62a42dc9f0279ff6711038be53633079f3f98584604051611116929190613879565b60405180910390a350505b61112f6129a463ffffffff16565b5b5050565b60006111f267016345785d8a0000600960009054906101000a900473ffffffffffffffffffffffffffffffffffffffff1673ffffffffffffffffffffffffffffffffffffffff166318160ddd6040518163ffffffff1660e01b815260040160206040518083038186803b1580156111ab5760006000fd5b505afa1580156111c0573d600060003e3d6000fd5b505050506040513d601f19601f820116820180604052508101906111e4919061326b565b612a3890919063ffffffff16565b600960009054906101000a900473ffffffffffffffffffffffffffffffffffffffff1673ffffffffffffffffffffffffffffffffffffffff166370a08231306040518263ffffffff1660e01b815260040161124d919061340a565b60206040518083038186803b1580156112665760006000fd5b505afa15801561127b573d600060003e3d6000fd5b505050506040513d601f19601f8201168201806040525081019061129f919061326b565b101590506112a8565b90565b600960149054906101000a900460ff1681565b6112cc61257e63ffffffff16565b6112dc600661265d63ffffffff16565b6000600060009054906101000a900473ffffffffffffffffffffffffffffffffffffffff1673ffffffffffffffffffffffffffffffffffffffff1663a89f51ae6040518163ffffffff1660e01b815260040160206040518083038186803b1580156113475760006000fd5b505afa15801561135c573d600060003e3d6000fd5b505050506040513d601f19601f8201168201806040525081019061138091906130cc565b90508073ffffffffffffffffffffffffffffffffffffffff1663430c208133846040518363ffffffff1660e01b81526004016113bd929190613490565b60206040518083038186803b1580156113d65760006000fd5b505afa1580156113eb573d600060003e3d6000fd5b505050506040513d601f19601f8201168201806040525081019061140f9190612f99565b1515611450576040517f08c379a000000000000000000000000000000000000000000000000000000000815260040161144790613630565b60405180910390fd5b6000600060009054906101000a900473ffffffffffffffffffffffffffffffffffffffff1673ffffffffffffffffffffffffffffffffffffffff166380f556056040518163ffffffff1660e01b815260040160206040518083038186803b1580156114bb5760006000fd5b505afa1580156114d0573d600060003e3d6000fd5b505050506040513d601f19601f820116820180604052508101906114f491906130a5565b73ffffffffffffffffffffffffffffffffffffffff1663eb6843ce846040518263ffffffff1660e01b815260040161152c91906138ae565b6101a060405180830381600087803b1580156115485760006000fd5b505af115801561155d573d600060003e3d6000fd5b505050506040513d601f19601f820116820180604052508101906115819190613168565b9050600081602001511115156115cc576040517f08c379a00000000000000000000000000000000000000000000000000000000081526004016115c3906136ed565b60405180910390fd5b6000600090506000826040015114156115ed57816020015190508050611662565b600061160b60086000505484604001516123ff90919063ffffffff16565b9050826020015181101515611655576040517f08c379a000000000000000000000000000000000000000000000000000000000815260040161164c9061376b565b60405180910390fd5b8083602001510391508150505b808260200181815103915090908181526020015050600260009054906101000a900473ffffffffffffffffffffffffffffffffffffffff1673ffffffffffffffffffffffffffffffffffffffff16635a6beaf485846040518363ffffffff1660e01b81526004016116d49291906138ca565b600060405180830381600087803b1580156116ef5760006000fd5b505af1158015611704573d600060003e3d6000fd5b50505050600260009054906101000a900473ffffffffffffffffffffffffffffffffffffffff1673ffffffffffffffffffffffffffffffffffffffff1663625021698473ffffffffffffffffffffffffffffffffffffffff16636352211e876040518263ffffffff1660e01b815260040161177f9190613892565b60206040518083038186803b1580156117985760006000fd5b505afa1580156117ad573d600060003e3d6000fd5b505050506040513d601f19601f820116820180604052508101906117d19190612f72565b836040518363ffffffff1660e01b81526004016117ef929190613432565b600060405180830381600087803b15801561180a5760006000fd5b505af115801561181f573d600060003e3d6000fd5b505050503373ffffffffffffffffffffffffffffffffffffffff168467ffffffffffffffff167fea981567b9c640fd744f52ff99859dc343bdb3752f8f6542b014a546ffa0863b836040516118749190613867565b60405180910390a35050505b61188e6129a463ffffffff16565b5b50565b600060149054906101000a900460ff1681565b6000600060149054906101000a900460ff16156118c55760009050611a2c565b600060009054906101000a900473ffffffffffffffffffffffffffffffffffffffff1673ffffffffffffffffffffffffffffffffffffffff1663bf86d6906040518163ffffffff1660e01b815260040160206040518083038186803b15801561192e5760006000fd5b505afa158015611943573d600060003e3d6000fd5b505050506040513d601f19601f820116820180604052508101906119679190612f99565b15156119765760019050611a2c565b6000600960159054906101000a900467ffffffffffffffff1667ffffffffffffffff1614156119a85760029050611a2c565b600960159054906101000a900467ffffffffffffffff1667ffffffffffffffff166119d76122d063ffffffff16565b67ffffffffffffffff1610156119f05760039050611a2c565b60006008600050541115611a075760069050611a2c565b600960149054906101000a900460ff16611a22576004611a25565b60055b9050611a2c565b90565b67016345785d8a000081565b600a6000506020528060005260406000206000915090505481565b600960159054906101000a900467ffffffffffffffff1681565b611a7e61257e63ffffffff16565b611a8e600561265d63ffffffff16565b611a9c61049463ffffffff16565b60086000508190909055505b611ab66129a463ffffffff16565b5b565b600160009054906101000a900473ffffffffffffffffffffffffffffffffffffffff1681565b611aed61257e63ffffffff16565b611afd600361265d63ffffffff16565b43600b60005054101515611b46576040517f08c379a0000000000000000000000000000000000000000000000000000000008152600401611b3d90613828565b60405180910390fd5b6000600960146101000a81548160ff0219169083151502179055503373ffffffffffffffffffffffffffffffffffffffff167fcaf37a95bc2985ab407c11d2c65eb92feb22c303997f953e8b2f33a86533ea7a60405160405180910390a25b611bb36129a463ffffffff16565b5b565b611bc461257e63ffffffff16565b6000600a60005060003373ffffffffffffffffffffffffffffffffffffffff1673ffffffffffffffffffffffffffffffffffffffff168152602001908152602001600020600050549050600081111515611c53576040517f08c379a0000000000000000000000000000000000000000000000000000000008152600401611c4a906135b2565b60405180910390fd5b6000600a60005060003373ffffffffffffffffffffffffffffffffffffffff1673ffffffffffffffffffffffffffffffffffffffff168152602001908152602001600020600050819090905550611cd3600960009054906101000a900473ffffffffffffffffffffffffffffffffffffffff163383612a5e63ffffffff16565b611ce16128f363ffffffff16565b3373ffffffffffffffffffffffffffffffffffffffff167f02cdad8fe595d5f15cdf217aa61a8d7002f148da0abc88d26a93eb3122cf0d5982604051611d279190613867565b60405180910390a2505b611d3f6129a463ffffffff16565b5b565b600760009054906101000a900473ffffffffffffffffffffffffffffffffffffffff1681565b611d766121f163ffffffff16565b8073ffffffffffffffffffffffffffffffffffffffff1663313ce5676040518163ffffffff1660e01b815260040160206040518083038186803b158015611dbd5760006000fd5b505afa158015611dd2573d600060003e3d6000fd5b505050506040513d601f19601f82011682018060405250810190611df69190613358565b508073ffffffffffffffffffffffffffffffffffffffff1663feaf968c6040518163ffffffff1660e01b815260040160a06040518083038186803b158015611e3e5760006000fd5b505afa158015611e53573d600060003e3d6000fd5b505050506040513d601f19601f82011682018060405250810190611e779190613306565b505050505080600760006101000a81548173ffffffffffffffffffffffffffffffffffffffff021916908373ffffffffffffffffffffffffffffffffffffffff1602179055506001600960146101000a81548160ff0219169083151502179055508073ffffffffffffffffffffffffffffffffffffffff16604051611efb906133d9565b60405180910390207f78caada2f560033c9479d8c5e33f045f2e611faebe6b6d8a73874c80ec2dd3a260405160405180910390a35b5b50565b611f4261257e63ffffffff16565b611f52600261265d63ffffffff16565b6000600060009054906101000a900473ffffffffffffffffffffffffffffffffffffffff1673ffffffffffffffffffffffffffffffffffffffff166385aa61036040518163ffffffff1660e01b815260040160206040518083038186803b158015611fbd5760006000fd5b505afa158015611fd2573d600060003e3d6000fd5b505050506040513d601f19601f82011682018060405250810190611ff69190613030565b73ffffffffffffffffffffffffffffffffffffffff16631b8757686040518163ffffffff1660e01b815260040160206040518083038186803b15801561203c5760006000fd5b505afa158015612051573d600060003e3d6000fd5b505050506040513d601f19601f8201168201806040525081019061207591906132ae565b9050600061213a6202a300600060009054906101000a900473ffffffffffffffffffffffffffffffffffffffff1673ffffffffffffffffffffffffffffffffffffffff1663585690816040518163ffffffff1660e01b815260040160206040518083038186803b1580156120e95760006000fd5b505afa1580156120fe573d600060003e3d6000fd5b505050506040513d601f19601f8201168201806040525081019061212291906132ae565b67ffffffffffffffff16612c6a90919063ffffffff16565b90508067ffffffffffffffff168267ffffffffffffffff161061215d578161215f565b805b600960156101000a81548167ffffffffffffffff021916908367ffffffffffffffff1602179055507f34bf3e2c7325e60cfaee127ed77fc0af0b6f642909e032bac8eab42419e22ca7600960159054906101000a900467ffffffffffffffff166040516121cc9190613892565b60405180910390a150505b6121e56129a463ffffffff16565b5b565b60086000505481565b600060009054906101000a900473ffffffffffffffffffffffffffffffffffffffff1673ffffffffffffffffffffffffffffffffffffffff163373ffffffffffffffffffffffffffffffffffffffff16141515612283576040517f08c379a000000000000000000000000000000000000000000000000000000000815260040161227a90613630565b60405180910390fd5b5b565b6001600060146101000a81548160ff0219169083151502179055507f7acc84e34091ae817647a4c49116f5cc07f319078ba80f8f5fde37ea7e25cbd660405160405180910390a15b565b60006122e342612d07909063ffffffff16565b905080505b90565b6000828284019150811015151561236d576040517f08c379a000000000000000000000000000000000000000000000000000000000815260040180806020018281038252600c8152602001807f6164642d6f766572666c6f77000000000000000000000000000000000000000081526020015060200191505060405180910390fd5b5b92915050565b6000600082121515156123f2576040517f08c379a00000000000000000000000000000000000000000000000000000000081526004018080602001828103825260128152602001807f76616c7565206e6f7420706f736974697665000000000000000000000000000081526020015060200191505060405180910390fd5b8190506123fa565b919050565b600061241a83670de0b6b3a764000084612d9963ffffffff16565b905080505b92915050565b600060009054906101000a900473ffffffffffffffffffffffffffffffffffffffff1673ffffffffffffffffffffffffffffffffffffffff166336fc02f46040518163ffffffff1660e01b815260040160206040518083038186803b15801561248e5760006000fd5b505afa1580156124a3573d600060003e3d6000fd5b505050506040513d601f19601f820116820180604052508101906124c79190613141565b600960006101000a81548173ffffffffffffffffffffffffffffffffffffffff021916908373ffffffffffffffffffffffffffffffffffffffff16021790555060016005600050600063e4e9bcca60e01b7bffffffffffffffffffffffffffffffffffffffffffffffffffffffff19167bffffffffffffffffffffffffffffffffffffffffffffffffffffffff1916815260200190815260200160002060006101000a81548160ff0219169083151502179055505b565b600460009054906101000a900473ffffffffffffffffffffffffffffffffffffffff1673ffffffffffffffffffffffffffffffffffffffff1663e97dcb626040518163ffffffff1660e01b8152600401600060405180830381600087803b1580156125e95760006000fd5b505af11580156125fe573d600060003e3d6000fd5b5050505060026006600050541415151561264d576040517f08c379a0000000000000000000000000000000000000000000000000000000008152600401612644906136ae565b60405180910390fd5b600260066000508190909055505b565b80600681111561266957fe5b6126776118a563ffffffff16565b600681111561268257fe5b1415156126c4576040517f08c379a00000000000000000000000000000000000000000000000000000000081526004016126bb906135f1565b60405180910390fd5b5b50565b600060008573ffffffffffffffffffffffffffffffffffffffff166323b872dd60e01b868686604051602401808473ffffffffffffffffffffffffffffffffffffffff1681526020018373ffffffffffffffffffffffffffffffffffffffff1681526020018281526020019350505050604051602081830303815290604052907bffffffffffffffffffffffffffffffffffffffffffffffffffffffff19166020820180517bffffffffffffffffffffffffffffffffffffffffffffffffffffffff83818316178352505050506040518082805190602001908083835b6020831015156127cb57805182525b6020820191506020810190506020830392506127a5565b6001836020036101000a0380198251168184511680821785525050505050509050019150506000604051808303816000865af19150503d806000811461282d576040519150601f19603f3d011682016040523d82523d6000602084013e612832565b606091505b5091509150818015612873575060008151148061287257508080602001905160208110156128605760006000fd5b81019080805190602001909291905050505b5b15156128ea576040517f08c379a00000000000000000000000000000000000000000000000000000000081526004018080602001828103825260038152602001807f535446000000000000000000000000000000000000000000000000000000000081526020015060200191505060405180910390fd5b50505b50505050565b61290161113463ffffffff16565b15612945577fffffffffffffffffffffffffffffffffffffffffffffffffffffffffffffffff600b6000505414156129405743600b6000508190909055505b6129a1565b7fffffffffffffffffffffffffffffffffffffffffffffffffffffffffffffffff600b600050541415156129a0577fffffffffffffffffffffffffffffffffffffffffffffffffffffffffffffffff600b6000508190909055505b5b5b565b60016006600050819090905550600460009054906101000a900473ffffffffffffffffffffffffffffffffffffffff1673ffffffffffffffffffffffffffffffffffffffff1663e9fad8ee6040518163ffffffff1660e01b8152600401600060405180830381600087803b158015612a1c5760006000fd5b505af1158015612a31573d600060003e3d6000fd5b505050505b565b6000612a538383670de0b6b3a7640000612d9963ffffffff16565b905080505b92915050565b600060008473ffffffffffffffffffffffffffffffffffffffff1663a9059cbb60e01b8585604051602401808373ffffffffffffffffffffffffffffffffffffffff16815260200182815260200192505050604051602081830303815290604052907bffffffffffffffffffffffffffffffffffffffffffffffffffffffff19166020820180517bffffffffffffffffffffffffffffffffffffffffffffffffffffffff83818316178352505050506040518082805190602001908083835b602083101515612b4357805182525b602082019150602081019050602083039250612b1d565b6001836020036101000a0380198251168184511680821785525050505050509050019150506000604051808303816000865af19150503d8060008114612ba5576040519150601f19603f3d011682016040523d82523d6000602084013e612baa565b606091505b5091509150818015612beb5750600081511480612bea5750808060200190516020811015612bd85760006000fd5b81019080805190602001909291905050505b5b1515612c62576040517f08c379a00000000000000000000000000000000000000000000000000000000081526004018080602001828103825260028152602001807f535400000000000000000000000000000000000000000000000000000000000081526020015060200191505060405180910390fd5b50505b505050565b60008267ffffffffffffffff1682840191508167ffffffffffffffff1610151515612d00576040517f08c379a000000000000000000000000000000000000000000000000000000000815260040180806020018281038252600c8152602001807f6164642d6f766572666c6f77000000000000000000000000000000000000000081526020015060200191505060405180910390fd5b5b92915050565b60006801000000000000000082101515612d8c576040517f08c379a00000000000000000000000000000000000000000000000000000000081526004018080602001828103825260118152602001807f6d6f7265207468616e203634206269747300000000000000000000000000000081526020015060200191505060405180910390fd5b819050612d94565b919050565b6000600060006000198587098587029250828110838203039150506000811415612ddc57600084111515612dcd5760006000fd5b83820492508292505050612e93565b8084111515612deb5760006000fd5b6000848688099050828111820391508083039250600085866000031690508086049550808404935060018182600003040190508083028417935083506000600287600302189050808702600203810290508050808702600203810290508050808702600203810290508050808702600203810290508050808702600203810290508050808702600203810290508050808502955085508595505050505050612e935650505050505b939250505056613a30565b600081519050612ead816139ea565b5b919050565b60008151905080151581141515612eca5760006000fd5b5b919050565b6000815190508060020b81141515612ee85760006000fd5b5b919050565b60008151905063ffffffff811681141515612f095760006000fd5b5b919050565b600081519050612f1e81613a13565b5b919050565b60008151905069ffffffffffffffffffff811681141515612f455760006000fd5b5b919050565b600060208284031215612f5c578081fd5b8135612f67816139ea565b809150505b92915050565b600060208284031215612f83578081fd5b8151612f8e816139ea565b809150505b92915050565b600060208284031215612faa578081fd5b612fb382612eb3565b90505b92915050565b600060208284031215612fcd578081fd5b81357fffffffff00000000000000000000000000000000000000000000000000000000811681141515612ffe578182fd5b809150505b92915050565b60006020828403121561301a578081fd5b8151613025816139ea565b809150505b92915050565b600060208284031215613041578081fd5b815161304c816139ea565b809150505b92915050565b600060208284031215613068578081fd5b8135613073816139ea565b809150505b92915050565b60006020828403121561308f578081fd5b815161309a816139ea565b809150505b92915050565b6000602082840312156130b6578081fd5b81516130c1816139ea565b809150505b92915050565b6000602082840312156130dd578081fd5b81516130e8816139ea565b809150505b92915050565b600060208284031215613104578081fd5b813561310f816139ea565b809150505b92915050565b60006020828403121561312b578081fd5b8151613136816139ea565b809150505b92915050565b600060208284031215613152578081fd5b815161315d816139ea565b809150505b92915050565b60006101a080838503121561317b578182fd5b613184816139bf565b905082518152602083015160208201526040830151604082015260608301516060820152608083015160808201526131be60a08401612f0f565b60a08201526131cf60c08401612f0f565b60c08201526131e060e08401612ed0565b60e08201526101006131f3818501612eb3565b8183015250610120613206818501612f0f565b8183015250610140613219818501612eee565b818301525061016061322c818501612e9e565b818301525061018061323f818501612f0f565b8183015250809150505b92915050565b600060208284031215613260578081fd5b813590505b92915050565b60006020828403121561327c578081fd5b815190505b92915050565b600060208284031215613298578081fd5b81356132a381613a13565b809150505b92915050565b6000602082840312156132bf578081fd5b81516132ca81613a13565b809150505b92915050565b60006000604083850312156132e8578081fd5b82356132f381613a13565b80925050602083013590505b9250929050565b6000600060006000600060a0868803121561331f578081fd5b61332886612f24565b945060208601519350604086015192506060860151915061334b60808701612f24565b90505b9295509295909350565b600060208284031215613369578081fd5b815160ff81168114151561337b578182fd5b809150505b92915050565b73ffffffffffffffffffffffffffffffffffffffff811682525b5050565b80151582525b5050565b8060020b82525b5050565b63ffffffff811682525b5050565b67ffffffffffffffff811682525b5050565b60007f657468507269636550726f76696465720000000000000000000000000000000082526010820190505b919050565b600060208201905073ffffffffffffffffffffffffffffffffffffffff831682525b92915050565b600060408201905073ffffffffffffffffffffffffffffffffffffffff841682528260208301525b9392505050565b600060408201905073ffffffffffffffffffffffffffffffffffffffff841682528260208301525b9392505050565b600060408201905073ffffffffffffffffffffffffffffffffffffffff8416825267ffffffffffffffff831660208301525b9392505050565b600060208201905082151582525b92915050565b600060208201905073ffffffffffffffffffffffffffffffffffffffff831682525b92915050565b600060208201905073ffffffffffffffffffffffffffffffffffffffff831682525b92915050565b600060208201905073ffffffffffffffffffffffffffffffffffffffff831682525b92915050565b600060208201905060078310151561356957fe5b8282525b92915050565b600060208252601260208301527f457468207072696365206973207374616c65000000000000000000000000000060408301526060820190505b919050565b600060208252601060208301527f4e6f20746f6b656e73207374616b65640000000000000000000000000000000060408301526060820190505b919050565b600060208252600f60208301527f496e636f7272656374207374616765000000000000000000000000000000000060408301526060820190505b919050565b600060208252600e60208301527f4e6f7420417574686f72697a656400000000000000000000000000000000000060408301526060820190505b919050565b600060208252600460208301527f4e6f6f700000000000000000000000000000000000000000000000000000000060408301526060820190505b919050565b600060208252600d60208301527f4c50205265656e7472616e63790000000000000000000000000000000000000060408301526060820190505b919050565b600060208252600d60208301527f4e6f20636f6c6c61746572616c0000000000000000000000000000000000000060408301526060820190505b919050565b600060208252601160208301527f45746820707269636520696e76616c696400000000000000000000000000000060408301526060820190505b919050565b600060208252601d60208301527f4e6f20636f6c6c61746572616c20746f2077697468647261772e5b315d00000060408301526060820190505b919050565b600060208252600c60208301527f457863656564732064656274000000000000000000000000000000000000000060408301526060820190505b919050565b600060208252601760208301527f496e73756666696369656e7420636f6c6c61746572616c00000000000000000060408301526060820190505b919050565b600060208252602060208301527f496e73756666696369656e74206e6f20636f6e666964656e636520766f74657360408301526060820190505b919050565b60006020820190508282525b92915050565b60006040820190508382528260208301525b9392505050565b600060208201905067ffffffffffffffff831682525b92915050565b600060208201905067ffffffffffffffff831682525b92915050565b60006101c08201905067ffffffffffffffff8416825282516020830152602083015160408301526040830151606083015260608301516080830152608083015160a083015260a083015161392160c08401826133c7565b5060c083015161393460e08401826133c7565b5060e0830151610100613949818501836133ae565b8085015191505061012061395f818501836133a4565b80850151915050610140613975818501836133c7565b8085015191505061016061398b818501836133b9565b808501519150506101806139a181850183613386565b808501519150506139b66101a08401826133c7565b505b9392505050565b6000604051905081810181811067ffffffffffffffff821117156139df57fe5b80604052505b919050565b73ffffffffffffffffffffffffffffffffffffffff811681141515613a0f5760006000fd5b5b50565b67ffffffffffffffff811681141515613a2c5760006000fd5b5b50565bfea2646970667358221220e08831828fa6492610188da9074a93a31de1c5d6fc737def31ff721a1e58810764736f6c63430007060033",
  "linkReferences": {},
  "deployedLinkReferences": {}
}