{
  "_format": "hh-sol-artifact-1",
  "contractName": "MarketTestable",
  "sourceName": "contracts/mocks/MarketTestable.sol",
  "abi": [
    {
      "anonymous": false,
      "inputs": [
        {
          "indexed": true,
          "internalType": "address",
          "name": "governor",
          "type": "address"
        }
      ],
      "name": "Initialized",
      "type": "event"
    },
    {
      "anonymous": false,
      "inputs": [
        {
          "indexed": true,
          "internalType": "uint64",
          "name": "period",
          "type": "uint64"
        },
        {
          "indexed": false,
          "internalType": "uint64",
          "name": "periods",
          "type": "uint64"
        },
        {
          "indexed": false,
          "internalType": "uint256",
          "name": "newDebt",
          "type": "uint256"
        },
        {
          "indexed": false,
          "internalType": "uint256",
          "name": "rewardCount",
          "type": "uint256"
        },
        {
          "indexed": false,
          "internalType": "uint256",
          "name": "cumulativeDebt",
          "type": "uint256"
        },
        {
          "indexed": false,
          "internalType": "uint256",
          "name": "debtExchangeRate",
          "type": "uint256"
        }
      ],
      "name": "InterestAccrued",
      "type": "event"
    },
    {
      "anonymous": false,
      "inputs": [
        {
          "indexed": true,
          "internalType": "address",
          "name": "account",
          "type": "address"
        },
        {
          "indexed": false,
          "internalType": "uint256",
          "name": "hueCount",
          "type": "uint256"
        },
        {
          "indexed": false,
          "internalType": "uint256",
          "name": "lendTokenCount",
          "type": "uint256"
        }
      ],
      "name": "Lend",
      "type": "event"
    },
    {
      "anonymous": false,
      "inputs": [
        {
          "indexed": true,
          "internalType": "string",
          "name": "paramName",
          "type": "string"
        },
        {
          "indexed": false,
          "internalType": "uint256",
          "name": "value",
          "type": "uint256"
        }
      ],
      "name": "ParameterUpdated",
      "type": "event"
    },
    {
      "anonymous": false,
      "inputs": [
        {
          "indexed": true,
          "internalType": "string",
          "name": "paramName",
          "type": "string"
        },
        {
          "indexed": false,
          "internalType": "uint64",
          "name": "value",
          "type": "uint64"
        }
      ],
      "name": "ParameterUpdated64",
      "type": "event"
    },
    {
      "anonymous": false,
      "inputs": [
        {
          "indexed": true,
          "internalType": "string",
          "name": "paramName",
          "type": "string"
        },
        {
          "indexed": false,
          "internalType": "address",
          "name": "value",
          "type": "address"
        }
      ],
      "name": "ParameterUpdatedAddress",
      "type": "event"
    },
    {
      "anonymous": false,
      "inputs": [
        {
          "indexed": true,
          "internalType": "uint64",
          "name": "positionID",
          "type": "uint64"
        },
        {
          "indexed": false,
          "internalType": "int256",
          "name": "debtChange",
          "type": "int256"
        },
        {
          "indexed": false,
          "internalType": "int256",
          "name": "collateralChange",
          "type": "int256"
        }
      ],
      "name": "PositionAdjusted",
      "type": "event"
    },
    {
      "anonymous": false,
      "inputs": [
        {
          "indexed": true,
          "internalType": "address",
          "name": "creator",
          "type": "address"
        },
        {
          "indexed": true,
          "internalType": "uint64",
          "name": "positionID",
          "type": "uint64"
        }
      ],
      "name": "PositionCreated",
      "type": "event"
    },
    {
      "anonymous": false,
      "inputs": [
        {
          "indexed": true,
          "internalType": "uint256",
          "name": "positionID",
          "type": "uint256"
        },
        {
          "indexed": true,
          "internalType": "uint64",
          "name": "period",
          "type": "uint64"
        },
        {
          "indexed": false,
          "internalType": "uint256",
          "name": "debtAfter",
          "type": "uint256"
        },
        {
          "indexed": false,
          "internalType": "uint256",
          "name": "tcpRewards",
          "type": "uint256"
        }
      ],
      "name": "PositionUpdated",
      "type": "event"
    },
    {
      "anonymous": false,
      "inputs": [
        {
          "indexed": true,
          "internalType": "address",
          "name": "account",
          "type": "address"
        },
        {
          "indexed": true,
          "internalType": "bool",
          "name": "isKickback",
          "type": "bool"
        },
        {
          "indexed": false,
          "internalType": "uint256",
          "name": "tcpRewards",
          "type": "uint256"
        }
      ],
      "name": "RewardsDistributed",
      "type": "event"
    },
    {
      "anonymous": false,
      "inputs": [],
      "name": "Stopped",
      "type": "event"
    },
    {
      "anonymous": false,
      "inputs": [
        {
          "indexed": true,
          "internalType": "address",
          "name": "account",
          "type": "address"
        },
        {
          "indexed": false,
          "internalType": "uint256",
          "name": "hueCount",
          "type": "uint256"
        },
        {
          "indexed": false,
          "internalType": "uint256",
          "name": "lendTokenCount",
          "type": "uint256"
        }
      ],
      "name": "Unlend",
      "type": "event"
    },
    {
      "inputs": [],
      "name": "accrueInterest",
      "outputs": [],
      "stateMutability": "nonpayable",
      "type": "function"
    },
    {
      "inputs": [
        {
          "internalType": "uint64",
          "name": "positionID",
          "type": "uint64"
        },
        {
          "internalType": "int256",
          "name": "debtChange",
          "type": "int256"
        },
        {
          "internalType": "uint256",
          "name": "collateralDecrease",
          "type": "uint256"
        },
        {
          "internalType": "uint32",
          "name": "ui",
          "type": "uint32"
        }
      ],
      "name": "adjustPosition",
      "outputs": [],
      "stateMutability": "payable",
      "type": "function"
    },
    {
      "inputs": [
        {
          "components": [
            {
              "internalType": "uint256",
              "name": "debt",
              "type": "uint256"
            },
            {
              "internalType": "uint256",
              "name": "totalTCPRewards",
              "type": "uint256"
            },
            {
              "internalType": "uint256",
              "name": "cumulativeDebt",
              "type": "uint256"
            },
            {
              "internalType": "uint256",
              "name": "debtExchangeRate",
              "type": "uint256"
            }
          ],
          "internalType": "struct IAccounting.SystemDebtInfo",
          "name": "sdi",
          "type": "tuple"
        },
        {
          "internalType": "uint64",
          "name": "periods",
          "type": "uint64"
        },
        {
          "internalType": "uint256",
          "name": "annualInterestRate",
          "type": "uint256"
        },
        {
          "internalType": "bool",
          "name": "positiveInterestRate",
          "type": "bool"
        },
        {
          "internalType": "uint256",
          "name": "reserves",
          "type": "uint256"
        },
        {
          "internalType": "uint256",
          "name": "_interestPortionToLenders",
          "type": "uint256"
        }
      ],
      "name": "calculateInterest",
      "outputs": [
        {
          "components": [
            {
              "internalType": "uint256",
              "name": "newDebt",
              "type": "uint256"
            },
            {
              "internalType": "uint256",
              "name": "newExchangeRate",
              "type": "uint256"
            },
            {
              "internalType": "uint256",
              "name": "additionalReserves",
              "type": "uint256"
            },
            {
              "internalType": "uint256",
              "name": "additionalLends",
              "type": "uint256"
            },
            {
              "internalType": "uint256",
              "name": "reducedReserves",
              "type": "uint256"
            }
          ],
          "internalType": "struct IMarket.CalculatedInterestInfo",
          "name": "cii",
          "type": "tuple"
        }
      ],
      "stateMutability": "pure",
      "type": "function"
    },
    {
      "inputs": [
        {
          "internalType": "uint64",
          "name": "positionID",
          "type": "uint64"
        },
        {
          "internalType": "uint32",
          "name": "ui",
          "type": "uint32"
        }
      ],
      "name": "claimRewards",
      "outputs": [],
      "stateMutability": "nonpayable",
      "type": "function"
    },
    {
      "inputs": [],
      "name": "collateralizationRequirement",
      "outputs": [
        {
          "internalType": "uint256",
          "name": "",
          "type": "uint256"
        }
      ],
      "stateMutability": "view",
      "type": "function"
    },
    {
      "inputs": [
        {
          "internalType": "uint256",
          "name": "initialDebt",
          "type": "uint256"
        },
        {
          "internalType": "uint32",
          "name": "ui",
          "type": "uint32"
        }
      ],
      "name": "createPosition",
      "outputs": [
        {
          "internalType": "uint64",
          "name": "positionID",
          "type": "uint64"
        }
      ],
      "stateMutability": "payable",
      "type": "function"
    },
    {
      "inputs": [],
      "name": "currentPeriod",
      "outputs": [
        {
          "internalType": "uint64",
          "name": "period",
          "type": "uint64"
        }
      ],
      "stateMutability": "view",
      "type": "function"
    },
    {
      "inputs": [],
      "name": "deployer",
      "outputs": [
        {
          "internalType": "address",
          "name": "",
          "type": "address"
        }
      ],
      "stateMutability": "view",
      "type": "function"
    },
    {
      "inputs": [],
      "name": "finalizeInitialization",
      "outputs": [],
      "stateMutability": "nonpayable",
      "type": "function"
    },
    {
      "inputs": [],
      "name": "firstPeriod",
      "outputs": [
        {
          "internalType": "uint64",
          "name": "",
          "type": "uint64"
        }
      ],
      "stateMutability": "view",
      "type": "function"
    },
    {
      "inputs": [],
      "name": "governor",
      "outputs": [
        {
          "internalType": "contract IGovernor",
          "name": "",
          "type": "address"
        }
      ],
      "stateMutability": "view",
      "type": "function"
    },
    {
      "inputs": [],
      "name": "huePositionNFT",
      "outputs": [
        {
          "internalType": "contract IPositionNFT",
          "name": "",
          "type": "address"
        }
      ],
      "stateMutability": "view",
      "type": "function"
    },
    {
      "inputs": [
        {
          "internalType": "contract IGovernor",
          "name": "_governor",
          "type": "address"
        }
      ],
      "name": "init",
      "outputs": [],
      "stateMutability": "nonpayable",
      "type": "function"
    },
    {
      "inputs": [],
      "name": "interestPortionToLenders",
      "outputs": [
        {
          "internalType": "uint256",
          "name": "",
          "type": "uint256"
        }
      ],
      "stateMutability": "view",
      "type": "function"
    },
    {
      "inputs": [],
      "name": "lastPeriodGlobalInterestAccrued",
      "outputs": [
        {
          "internalType": "uint64",
          "name": "",
          "type": "uint64"
        }
      ],
      "stateMutability": "view",
      "type": "function"
    },
    {
      "inputs": [
        {
          "internalType": "uint256",
          "name": "hueCount",
          "type": "uint256"
        }
      ],
      "name": "lend",
      "outputs": [],
      "stateMutability": "nonpayable",
      "type": "function"
    },
    {
      "inputs": [],
      "name": "lendHue",
      "outputs": [
        {
          "internalType": "contract ILendHue",
          "name": "",
          "type": "address"
        }
      ],
      "stateMutability": "view",
      "type": "function"
    },
    {
      "inputs": [],
      "name": "minPositionSize",
      "outputs": [
        {
          "internalType": "uint256",
          "name": "",
          "type": "uint256"
        }
      ],
      "stateMutability": "view",
      "type": "function"
    },
    {
      "inputs": [],
      "name": "periodLength",
      "outputs": [
        {
          "internalType": "uint64",
          "name": "",
          "type": "uint64"
        }
      ],
      "stateMutability": "view",
      "type": "function"
    },
    {
      "inputs": [
        {
          "internalType": "uint64",
          "name": "positionID",
          "type": "uint64"
        }
      ],
      "name": "removeKickback",
      "outputs": [],
      "stateMutability": "nonpayable",
      "type": "function"
    },
    {
      "inputs": [
        {
          "internalType": "uint256",
          "name": "requirement",
          "type": "uint256"
        }
      ],
      "name": "setCollateralizationRequirement",
      "outputs": [],
      "stateMutability": "nonpayable",
      "type": "function"
    },
    {
      "inputs": [
        {
          "internalType": "uint256",
          "name": "percentage",
          "type": "uint256"
        }
      ],
      "name": "setInterestPortionToLenders",
      "outputs": [],
      "stateMutability": "nonpayable",
      "type": "function"
    },
    {
      "inputs": [
        {
          "internalType": "uint256",
          "name": "size",
          "type": "uint256"
        }
      ],
      "name": "setMinPositionSize",
      "outputs": [],
      "stateMutability": "nonpayable",
      "type": "function"
    },
    {
      "inputs": [
        {
          "internalType": "uint32",
          "name": "duration",
          "type": "uint32"
        }
      ],
      "name": "setTwapDuration",
      "outputs": [],
      "stateMutability": "nonpayable",
      "type": "function"
    },
    {
      "inputs": [],
      "name": "stop",
      "outputs": [],
      "stateMutability": "nonpayable",
      "type": "function"
    },
    {
      "inputs": [],
      "name": "stopped",
      "outputs": [
        {
          "internalType": "bool",
          "name": "",
          "type": "bool"
        }
      ],
      "stateMutability": "view",
      "type": "function"
    },
    {
      "inputs": [
        {
          "internalType": "uint64",
          "name": "positionID",
          "type": "uint64"
        }
      ],
      "name": "systemGetUpdatedPosition",
      "outputs": [
        {
          "components": [
            {
              "internalType": "uint256",
              "name": "startCumulativeDebt",
              "type": "uint256"
            },
            {
              "internalType": "uint256",
              "name": "collateral",
              "type": "uint256"
            },
            {
              "internalType": "uint256",
              "name": "debt",
              "type": "uint256"
            },
            {
              "internalType": "uint256",
              "name": "startDebtExchangeRate",
              "type": "uint256"
            },
            {
              "internalType": "uint256",
              "name": "startTCPRewards",
              "type": "uint256"
            },
            {
              "internalType": "uint64",
              "name": "lastTimeUpdated",
              "type": "uint64"
            },
            {
              "internalType": "uint64",
              "name": "lastBorrowTime",
              "type": "uint64"
            },
            {
              "internalType": "int24",
              "name": "tick",
              "type": "int24"
            },
            {
              "internalType": "bool",
              "name": "tickSet",
              "type": "bool"
            },
            {
              "internalType": "uint64",
              "name": "tickIndex",
              "type": "uint64"
            },
            {
              "internalType": "uint32",
              "name": "ui",
              "type": "uint32"
            },
            {
              "internalType": "address",
              "name": "kickbackDestination",
              "type": "address"
            },
            {
              "internalType": "uint64",
              "name": "kickbackPortion",
              "type": "uint64"
            }
          ],
          "internalType": "struct IAccounting.DebtPosition",
          "name": "",
          "type": "tuple"
        }
      ],
      "stateMutability": "nonpayable",
      "type": "function"
    },
    {
      "inputs": [],
      "name": "twapDuration",
      "outputs": [
        {
          "internalType": "uint32",
          "name": "",
          "type": "uint32"
        }
      ],
      "stateMutability": "view",
      "type": "function"
    },
    {
      "inputs": [
        {
          "internalType": "uint256",
          "name": "lendTokenCount",
          "type": "uint256"
        }
      ],
      "name": "unlend",
      "outputs": [],
      "stateMutability": "nonpayable",
      "type": "function"
    },
    {
      "inputs": [
        {
          "components": [
            {
              "internalType": "uint256",
              "name": "startCumulativeDebt",
              "type": "uint256"
            },
            {
              "internalType": "uint256",
              "name": "collateral",
              "type": "uint256"
            },
            {
              "internalType": "uint256",
              "name": "debt",
              "type": "uint256"
            },
            {
              "internalType": "uint256",
              "name": "startDebtExchangeRate",
              "type": "uint256"
            },
            {
              "internalType": "uint256",
              "name": "startTCPRewards",
              "type": "uint256"
            },
            {
              "internalType": "uint64",
              "name": "lastTimeUpdated",
              "type": "uint64"
            },
            {
              "internalType": "uint64",
              "name": "lastBorrowTime",
              "type": "uint64"
            },
            {
              "internalType": "int24",
              "name": "tick",
              "type": "int24"
            },
            {
              "internalType": "bool",
              "name": "tickSet",
              "type": "bool"
            },
            {
              "internalType": "uint64",
              "name": "tickIndex",
              "type": "uint64"
            },
            {
              "internalType": "uint32",
              "name": "ui",
              "type": "uint32"
            },
            {
              "internalType": "address",
              "name": "kickbackDestination",
              "type": "address"
            },
            {
              "internalType": "uint64",
              "name": "kickbackPortion",
              "type": "uint64"
            }
          ],
          "internalType": "struct IAccounting.DebtPosition",
          "name": "_position",
          "type": "tuple"
        },
        {
          "components": [
            {
              "internalType": "uint256",
              "name": "debt",
              "type": "uint256"
            },
            {
              "internalType": "uint256",
              "name": "totalTCPRewards",
              "type": "uint256"
            },
            {
              "internalType": "uint256",
              "name": "cumulativeDebt",
              "type": "uint256"
            },
            {
              "internalType": "uint256",
              "name": "debtExchangeRate",
              "type": "uint256"
            }
          ],
          "internalType": "struct IAccounting.SystemDebtInfo",
          "name": "sdi",
          "type": "tuple"
        },
        {
          "internalType": "uint64",
          "name": "timeNow",
          "type": "uint64"
        }
      ],
      "name": "updatePositionImpl",
      "outputs": [
        {
          "components": [
            {
              "internalType": "uint256",
              "name": "startCumulativeDebt",
              "type": "uint256"
            },
            {
              "internalType": "uint256",
              "name": "collateral",
              "type": "uint256"
            },
            {
              "internalType": "uint256",
              "name": "debt",
              "type": "uint256"
            },
            {
              "internalType": "uint256",
              "name": "startDebtExchangeRate",
              "type": "uint256"
            },
            {
              "internalType": "uint256",
              "name": "startTCPRewards",
              "type": "uint256"
            },
            {
              "internalType": "uint64",
              "name": "lastTimeUpdated",
              "type": "uint64"
            },
            {
              "internalType": "uint64",
              "name": "lastBorrowTime",
              "type": "uint64"
            },
            {
              "internalType": "int24",
              "name": "tick",
              "type": "int24"
            },
            {
              "internalType": "bool",
              "name": "tickSet",
              "type": "bool"
            },
            {
              "internalType": "uint64",
              "name": "tickIndex",
              "type": "uint64"
            },
            {
              "internalType": "uint32",
              "name": "ui",
              "type": "uint32"
            },
            {
              "internalType": "address",
              "name": "kickbackDestination",
              "type": "address"
            },
            {
              "internalType": "uint64",
              "name": "kickbackPortion",
              "type": "uint64"
            }
          ],
          "internalType": "struct IAccounting.DebtPosition",
          "name": "position",
          "type": "tuple"
        },
        {
          "internalType": "uint256",
          "name": "rewards",
          "type": "uint256"
        }
      ],
      "stateMutability": "pure",
      "type": "function"
    },
    {
      "inputs": [
        {
          "internalType": "bytes4",
          "name": "",
          "type": "bytes4"
        }
      ],
      "name": "validUpdate",
      "outputs": [
        {
          "internalType": "bool",
          "name": "",
          "type": "bool"
        }
      ],
      "stateMutability": "view",
      "type": "function"
    },
    {
      "inputs": [
        {
          "internalType": "uint256",
          "name": "lendTokenCount",
          "type": "uint256"
        }
      ],
      "name": "valueOfLendTokensInHue",
      "outputs": [
        {
          "internalType": "uint256",
          "name": "",
          "type": "uint256"
        }
      ],
      "stateMutability": "view",
      "type": "function"
    }
  ],
  "bytecode": "0x60c0604052600160066000509090556714d1120d7b160000600760005090905568878678326eac90000060086000509090556702c68af0bb1400006009600050909055610708600b60146101000a81548163ffffffff021916908363ffffffff160217905550348015620000735760006000fd5b505b610e105b5b33600160006101000a81548173ffffffffffffffffffffffffffffffffffffffff021916908373ffffffffffffffffffffffffffffffffffffffff1602179055505b60018167ffffffffffffffff16620000d96200013b60201b60201c565b67ffffffffffffffff16811515620000ed57fe5b040367ffffffffffffffff1660a08167ffffffffffffffff1660c01b815260080150508067ffffffffffffffff1660808167ffffffffffffffff1660c01b815260080150505b505b620001f1565b600062000155426200015d60201b62001ed717909060201c565b905080505b90565b60006801000000000000000082101515620001e3576040517f08c379a00000000000000000000000000000000000000000000000000000000081526004018080602001828103825260118152602001807f6d6f7265207468616e203634206269747300000000000000000000000000000081526020015060200191505060405180910390fd5b819050620001ec565b919050565b60805160c01c60a05160c01c61627c6200022f60003980611b5752806120d35280614b16525080611b7b52806120f45280614b37525061627c6000f3fe6080604052600436106101e65760003560e01c8063875bbc5111610102578063c4e3a63b11610095578063e11c876211610064578063e11c87621461069b578063eb6843ce146106d9578063ef5e1cac14610717578063f6979f2914610741576101e6565b8063c4e3a63b146105ff578063d2ca21151461062b578063d5f3948814610657578063d861b0e814610683576101e6565b8063b2326b57116100d1578063b2326b5714610553578063b6ae213a1461057d578063bb8313c2146105a9578063c433c80a146105d5576101e6565b8063875bbc51146104bb578063a6aa57ce146104e5578063a6afed951461050f578063a89f51ae14610527576101e6565b806326d895451161017a5780635658c012116101495780635658c0121461041d5780635a6127a91461044957806375f12b21146104735780637b809bdd1461049f576101e6565b806326d89545146103575780632cae0269146103835780632e6c6f84146103af5780634ff34aca146103df576101e6565b80630c340a24116101b65780630c340a2414610299578063113cf1ab146102c5578063197b1bf51461030357806319ab453c1461032d576101e6565b8062b2a044146101ec578063060406181461022b57806306972dcd1461025757806307da68f514610281576101e6565b60006000fd5b3480156101f95760006000fd5b50610214600480360381019061020f91906155d4565b61076d565b604051610222929190616063565b60405180910390f35b3480156102385760006000fd5b50610241610799565b60405161024e9190616111565b60405180910390f35b3480156102645760006000fd5b5061027f600480360381019061027a91906157ba565b6107b1565b005b34801561028e5760006000fd5b5061029761081b565b005b3480156102a65760006000fd5b506102af61083b565b6040516102bc9190615c38565b60405180910390f35b3480156102d25760006000fd5b506102ed60048036038101906102e89190615341565b610861565b6040516102fa9190615c24565b60405180910390f35b3480156103105760006000fd5b5061032b600480360381019061032691906157ba565b610886565b005b34801561033a5760006000fd5b50610355600480360381019061035091906153b5565b610a54565b005b3480156103645760006000fd5b5061036d610e66565b60405161037a91906160e1565b60405180910390f35b3480156103905760006000fd5b50610399610e7c565b6040516103a69190615c60565b60405180910390f35b6103c960048036038101906103c491906157f2565b610ea2565b6040516103d69190616111565b60405180910390f35b3480156103ec5760006000fd5b506104076004803603810190610402919061574d565b61107e565b604051610414919061600e565b60405180910390f35b34801561042a5760006000fd5b506104336110ab565b60405161044091906160b6565b60405180910390f35b3480156104565760006000fd5b50610471600480360381019061046c91906157ba565b6110b4565b005b3480156104805760006000fd5b5061048961113b565b6040516104969190615c24565b60405180910390f35b6104b960048036038101906104b49190615898565b61114e565b005b3480156104c85760006000fd5b506104e360048036038101906104de91906158e8565b611338565b005b3480156104f25760006000fd5b5061050d600480360381019061050891906157ba565b61159f565b005b34801561051c5760006000fd5b506105256117e0565b005b3480156105345760006000fd5b5061053d61180e565b60405161054a9190615c88565b60405180910390f35b3480156105605760006000fd5b5061057b6004803603810190610576919061584a565b611834565b005b34801561058a5760006000fd5b50610593611a9b565b6040516105a09190616111565b60405180910390f35b3480156105b65760006000fd5b506105bf611ab5565b6040516105cc91906160b6565b60405180910390f35b3480156105e25760006000fd5b506105fd60048036038101906105f89190615823565b611abe565b005b34801561060c5760006000fd5b50610615611b55565b6040516106229190616111565b60405180910390f35b3480156106385760006000fd5b50610641611b79565b60405161064e9190616111565b60405180910390f35b3480156106645760006000fd5b5061066d611b9d565b60405161067a9190615b0e565b60405180910390f35b3480156106905760006000fd5b50610699611bc3565b005b3480156106a85760006000fd5b506106c360048036038101906106be91906157ba565b611c99565b6040516106d091906160b6565b60405180910390f35b3480156106e65760006000fd5b5061070160048036038101906106fc919061584a565b611cc7565b60405161070e9190616049565b60405180910390f35b3480156107245760006000fd5b5061073f600480360381019061073a91906157ba565b611e4c565b005b34801561074e5760006000fd5b50610757611ece565b60405161076491906160b6565b60405180910390f35b6107756150d7565b6000610788858585611f6963ffffffff16565b80925081935050505b935093915050565b60006107a96120cf63ffffffff16565b905080505b90565b6107bf61214863ffffffff16565b8060086000508190909055506040516107d790615a4a565b60405180910390207f3a64504f0bc0c335e2aecb78638a257e0351a3fe0370861fd54ee4190b9209338260405161080e91906160b6565b60405180910390a25b5b50565b61082961214863ffffffff16565b6108376121dd63ffffffff16565b5b5b565b600060009054906101000a900473ffffffffffffffffffffffffffffffffffffffff1681565b600560005060205280600052604060002060009150909054906101000a900460ff1681565b61089461222763ffffffff16565b6108a261230663ffffffff16565b6108b46000821161235b63ffffffff16565b600033905060006108ca83611c9963ffffffff16565b9050600b60009054906101000a900473ffffffffffffffffffffffffffffffffffffffff1673ffffffffffffffffffffffffffffffffffffffff166379cc679083856040518363ffffffff1660e01b8152600401610929929190615bf5565b600060405180830381600087803b1580156109445760006000fd5b505af1158015610959573d600060003e3d6000fd5b50505050600260009054906101000a900473ffffffffffffffffffffffffffffffffffffffff1673ffffffffffffffffffffffffffffffffffffffff1663b241bbac83836040518363ffffffff1660e01b81526004016109ba929190615bf5565b600060405180830381600087803b1580156109d55760006000fd5b505af11580156109ea573d600060003e3d6000fd5b505050508173ffffffffffffffffffffffffffffffffffffffff167fefc56a1a7590fc4eb13cd40b6a2ceee41f3869c6ea818d20d9a18f2d6315ca188285604051610a369291906160c8565b60405180910390a250505b5b610a506123a163ffffffff16565b5b50565b600160009054906101000a900473ffffffffffffffffffffffffffffffffffffffff1673ffffffffffffffffffffffffffffffffffffffff163373ffffffffffffffffffffffffffffffffffffffff16141515610ab15760006000fd5b600160159054906101000a900460ff16151515610ace5760006000fd5b80600060006101000a81548173ffffffffffffffffffffffffffffffffffffffff021916908373ffffffffffffffffffffffffffffffffffffffff160217905550600060009054906101000a900473ffffffffffffffffffffffffffffffffffffffff1673ffffffffffffffffffffffffffffffffffffffff16639624e83e6040518163ffffffff1660e01b815260040160206040518083038186803b158015610b785760006000fd5b505afa158015610b8d573d600060003e3d6000fd5b505050506040513d601f19601f82011682018060405250810190610bb1919061538e565b600260006101000a81548173ffffffffffffffffffffffffffffffffffffffff021916908373ffffffffffffffffffffffffffffffffffffffff160217905550600060009054906101000a900473ffffffffffffffffffffffffffffffffffffffff1673ffffffffffffffffffffffffffffffffffffffff1663323741746040518163ffffffff1660e01b815260040160206040518083038186803b158015610c5a5760006000fd5b505afa158015610c6f573d600060003e3d6000fd5b505050506040513d601f19601f82011682018060405250810190610c9391906153dc565b600360006101000a81548173ffffffffffffffffffffffffffffffffffffffff021916908373ffffffffffffffffffffffffffffffffffffffff160217905550600060009054906101000a900473ffffffffffffffffffffffffffffffffffffffff1673ffffffffffffffffffffffffffffffffffffffff1663d478b0876040518163ffffffff1660e01b815260040160206040518083038186803b158015610d3c5760006000fd5b505afa158015610d51573d600060003e3d6000fd5b505050506040513d601f19601f82011682018060405250810190610d759190615478565b600460006101000a81548173ffffffffffffffffffffffffffffffffffffffff021916908373ffffffffffffffffffffffffffffffffffffffff160217905550610dc361243563ffffffff16565b600160149054906101000a900460ff161515610e0357600160006101000a81549073ffffffffffffffffffffffffffffffffffffffff0219169055610e1f565b6001600160156101000a81548160ff0219169083151502179055505b8073ffffffffffffffffffffffffffffffffffffffff167f908408e307fc569b417f6cbec5d5a06f44a0a505ac0479b47d421a4b2fd6a1e660405160405180910390a25b50565b600b60149054906101000a900463ffffffff1681565b600b60009054906101000a900473ffffffffffffffffffffffffffffffffffffffff1681565b6000610eb261222763ffffffff16565b610ec061298963ffffffff16565b600034111515610f05576040517f08c379a0000000000000000000000000000000000000000000000000000000008152600401610efc90615e6e565b60405180910390fd5b600a60009054906101000a900473ffffffffffffffffffffffffffffffffffffffff1673ffffffffffffffffffffffffffffffffffffffff1663755edd17336040518263ffffffff1660e01b8152600401610f609190615b36565b602060405180830381600087803b158015610f7b5760006000fd5b505af1158015610f90573d600060003e3d6000fd5b505050506040513d601f19601f82011682018060405250810190610fb49190615871565b90508050610fc06150d7565b8281610140019063ffffffff16908163ffffffff1681526020015050611018610ff98367ffffffffffffffff1683612a7e63ffffffff16565b8361100b87612f54909063ffffffff16565b6000612ffd63ffffffff16565b8167ffffffffffffffff163373ffffffffffffffffffffffffffffffffffffffff167f3bac2cc5a46c2a400f0a6b532080f052814635a76bccdecf39397718b2d554dd60405160405180910390a3505b5b6110776123a163ffffffff16565b5b92915050565b61108661518b565b61109a87878787878761374663ffffffff16565b90506110a1565b9695505050505050565b60076000505481565b6110c261214863ffffffff16565b806009600050819090905550670de0b6b3a7640000600960005054111515156110eb5760006000fd5b6040516110f790615add565b60405180910390207f3a64504f0bc0c335e2aecb78638a257e0351a3fe0370861fd54ee4190b9209338260405161112e91906160b6565b60405180910390a25b5b50565b600060149054906101000a900460ff1681565b61115c61222763ffffffff16565b61116a61298963ffffffff16565b611227600a60009054906101000a900473ffffffffffffffffffffffffffffffffffffffff1673ffffffffffffffffffffffffffffffffffffffff1663430c208133876040518363ffffffff1660e01b81526004016111ca929190615bbc565b60206040518083038186803b1580156111e35760006000fd5b505afa1580156111f8573d600060003e3d6000fd5b505050506040513d601f19601f8201168201806040525081019061121c919061531a565b61393463ffffffff16565b60006112f08567ffffffffffffffff16600260009054906101000a900473ffffffffffffffffffffffffffffffffffffffff1673ffffffffffffffffffffffffffffffffffffffff16630f85fc5a886040518263ffffffff1660e01b81526004016112929190616111565b6101a06040518083038186803b1580156112ac5760006000fd5b505afa1580156112c1573d600060003e3d6000fd5b505050506040513d601f19601f820116820180604052508101906112e591906154ed565b612a7e63ffffffff16565b90508181610140019063ffffffff16908163ffffffff168152602001505061132081868686612ffd63ffffffff16565b505b5b6113316123a163ffffffff16565b5b50505050565b61134661222763ffffffff16565b61135461230663ffffffff16565b611411600a60009054906101000a900473ffffffffffffffffffffffffffffffffffffffff1673ffffffffffffffffffffffffffffffffffffffff1663430c208133856040518363ffffffff1660e01b81526004016113b4929190615bbc565b60206040518083038186803b1580156113cd5760006000fd5b505afa1580156113e2573d600060003e3d6000fd5b505050506040513d601f19601f82011682018060405250810190611406919061531a565b61393463ffffffff16565b60006114da8367ffffffffffffffff16600260009054906101000a900473ffffffffffffffffffffffffffffffffffffffff1673ffffffffffffffffffffffffffffffffffffffff16630f85fc5a866040518263ffffffff1660e01b815260040161147c9190616111565b6101a06040518083038186803b1580156114965760006000fd5b505afa1580156114ab573d600060003e3d6000fd5b505050506040513d601f19601f820116820180604052508101906114cf91906154ed565b612a7e63ffffffff16565b90508181610140019063ffffffff16908163ffffffff1681526020015050600260009054906101000a900473ffffffffffffffffffffffffffffffffffffffff1673ffffffffffffffffffffffffffffffffffffffff16635a6beaf484836040518363ffffffff1660e01b815260040161155592919061612d565b600060405180830381600087803b1580156115705760006000fd5b505af1158015611585573d600060003e3d6000fd5b50505050505b5b61159a6123a163ffffffff16565b5b5050565b6115ad61222763ffffffff16565b6115bb61298963ffffffff16565b6115cd6000821161235b63ffffffff16565b60003390506115e061397a63ffffffff16565b60006116026115f361436363ffffffff16565b846144f490919063ffffffff16565b9050600260009054906101000a900473ffffffffffffffffffffffffffffffffffffffff1673ffffffffffffffffffffffffffffffffffffffff16632c73f09e846040518263ffffffff1660e01b815260040161165f91906160b6565b600060405180830381600087803b15801561167a5760006000fd5b505af115801561168f573d600060003e3d6000fd5b505050506116e9600360009054906101000a900473ffffffffffffffffffffffffffffffffffffffff1683600260009054906101000a900473ffffffffffffffffffffffffffffffffffffffff168661451a63ffffffff16565b600b60009054906101000a900473ffffffffffffffffffffffffffffffffffffffff1673ffffffffffffffffffffffffffffffffffffffff1663449a52f883836040518363ffffffff1660e01b8152600401611746929190615bf5565b600060405180830381600087803b1580156117615760006000fd5b505af1158015611776573d600060003e3d6000fd5b505050508173ffffffffffffffffffffffffffffffffffffffff167f8fff79b574da9a93d7a5408c2fc00c4a9b2b462321c1659b2fbbb9ff3dd221ff84836040516117c29291906160c8565b60405180910390a250505b5b6117dc6123a163ffffffff16565b5b50565b6117ee61474563ffffffff16565b6117fc61397a63ffffffff16565b5b61180b6147a063ffffffff16565b5b565b600a60009054906101000a900473ffffffffffffffffffffffffffffffffffffffff1681565b61184261222763ffffffff16565b61185061298963ffffffff16565b61190d600a60009054906101000a900473ffffffffffffffffffffffffffffffffffffffff1673ffffffffffffffffffffffffffffffffffffffff1663430c208133846040518363ffffffff1660e01b81526004016118b0929190615bbc565b60206040518083038186803b1580156118c95760006000fd5b505afa1580156118de573d600060003e3d6000fd5b505050506040513d601f19601f82011682018060405250810190611902919061531a565b61393463ffffffff16565b60006119d68267ffffffffffffffff16600260009054906101000a900473ffffffffffffffffffffffffffffffffffffffff1673ffffffffffffffffffffffffffffffffffffffff16630f85fc5a856040518263ffffffff1660e01b81526004016119789190616111565b6101a06040518083038186803b1580156119925760006000fd5b505afa1580156119a7573d600060003e3d6000fd5b505050506040513d601f19601f820116820180604052508101906119cb91906154ed565b612a7e63ffffffff16565b9050600081610140019063ffffffff16908163ffffffff1681526020015050600260009054906101000a900473ffffffffffffffffffffffffffffffffffffffff1673ffffffffffffffffffffffffffffffffffffffff16635a6beaf483836040518363ffffffff1660e01b8152600401611a5292919061612d565b600060405180830381600087803b158015611a6d5760006000fd5b505af1158015611a82573d600060003e3d6000fd5b50505050505b5b611a976123a163ffffffff16565b5b50565b600b60189054906101000a900467ffffffffffffffff1681565b60086000505481565b611acc61214863ffffffff16565b61012c8163ffffffff1610151515611ae45760006000fd5b80600b60146101000a81548163ffffffff021916908363ffffffff160217905550604051611b1190615a7b565b60405180910390207f6293347933ad2997134e224ac8cd2e39908a4a22aeed9af52127b4bbf765297882604051611b4891906160f9565b60405180910390a25b5b50565b7f000000000000000000000000000000000000000000000000000000000000000081565b7f000000000000000000000000000000000000000000000000000000000000000081565b600160009054906101000a900473ffffffffffffffffffffffffffffffffffffffff1681565b600160149054906101000a900460ff168015611beb5750600160159054906101000a900460ff165b8015611c445750600160009054906101000a900473ffffffffffffffffffffffffffffffffffffffff1673ffffffffffffffffffffffffffffffffffffffff163373ffffffffffffffffffffffffffffffffffffffff16145b1515611c505760006000fd5b600160006101000a81549073ffffffffffffffffffffffffffffffffffffffff0219169055600160156101000a81549060ff0219169055611c9561397a63ffffffff16565b5b5b565b6000611cbb611cac61436363ffffffff16565b836147b090919063ffffffff16565b9050611cc2565b919050565b611ccf6150d7565b611cdd61474563ffffffff16565b600060009054906101000a900473ffffffffffffffffffffffffffffffffffffffff1673ffffffffffffffffffffffffffffffffffffffff16639622cd8f336040518263ffffffff1660e01b8152600401611d389190615b36565b60006040518083038186803b158015611d515760006000fd5b505afa158015611d66573d600060003e3d6000fd5b50505050611e318267ffffffffffffffff16600260009054906101000a900473ffffffffffffffffffffffffffffffffffffffff1673ffffffffffffffffffffffffffffffffffffffff16630f85fc5a856040518263ffffffff1660e01b8152600401611dd39190616111565b6101a06040518083038186803b158015611ded5760006000fd5b505afa158015611e02573d600060003e3d6000fd5b505050506040513d601f19601f82011682018060405250810190611e2691906154ed565b612a7e63ffffffff16565b9050611e38565b611e466147a063ffffffff16565b5b919050565b611e5a61214863ffffffff16565b806007600050819090905550670de0b6b3a76400008110151515611e7e5760006000fd5b604051611e8a90615aac565b60405180910390207f3a64504f0bc0c335e2aecb78638a257e0351a3fe0370861fd54ee4190b92093382604051611ec191906160b6565b60405180910390a25b5b50565b60096000505481565b60006801000000000000000082101515611f5c576040517f08c379a00000000000000000000000000000000000000000000000000000000081526004018080602001828103825260118152602001807f6d6f7265207468616e203634206269747300000000000000000000000000000081526020015060200191505060405180910390fd5b819050611f64565b919050565b611f716150d7565b6000849150815060008260a0015167ffffffffffffffff16118015611f9a575060008260400151115b1561206a57611fc08460600151836060015184604001516147d69092919063ffffffff16565b8260400190908181526020015050612065611ff28360a001518567ffffffffffffffff166148d790919063ffffffff16565b67ffffffffffffffff16610e1067ffffffffffffffff166120566120278660800151896020015161497490919063ffffffff16565b61204287600001518a6040015161497490919063ffffffff16565b87604001516147d69092919063ffffffff16565b6147d69092919063ffffffff16565b905080505b836060015182606001909081815260200150508360200151826080019090818152602001505083604001518260000190908181526020015050828260a0019067ffffffffffffffff16908167ffffffffffffffff16815260200150505b935093915050565b60007f00000000000000000000000000000000000000000000000000000000000000007f000000000000000000000000000000000000000000000000000000000000000067ffffffffffffffff1661212b6149fd63ffffffff16565b67ffffffffffffffff1681151561213e57fe5b0403905080505b90565b600060009054906101000a900473ffffffffffffffffffffffffffffffffffffffff1673ffffffffffffffffffffffffffffffffffffffff163373ffffffffffffffffffffffffffffffffffffffff161415156121da576040517f08c379a00000000000000000000000000000000000000000000000000000000081526004016121d190615db1565b60405180910390fd5b5b565b6001600060146101000a81548160ff0219169083151502179055507f7acc84e34091ae817647a4c49116f5cc07f319078ba80f8f5fde37ea7e25cbd660405160405180910390a15b565b600460009054906101000a900473ffffffffffffffffffffffffffffffffffffffff1673ffffffffffffffffffffffffffffffffffffffff1663e97dcb626040518163ffffffff1660e01b8152600401600060405180830381600087803b1580156122925760006000fd5b505af11580156122a7573d600060003e3d6000fd5b505050506002600660005054141515156122f6576040517f08c379a00000000000000000000000000000000000000000000000000000000081526004016122ed90615e2f565b60405180910390fd5b600260066000508190909055505b565b600060149054906101000a900460ff16151515612358576040517f08c379a000000000000000000000000000000000000000000000000000000000815260040161234f90615f90565b60405180910390fd5b5b565b80151561239d576040517f08c379a000000000000000000000000000000000000000000000000000000000815260040161239490615df0565b60405180910390fd5b5b50565b60016006600050819090905550600460009054906101000a900473ffffffffffffffffffffffffffffffffffffffff1673ffffffffffffffffffffffffffffffffffffffff1663e9fad8ee6040518163ffffffff1660e01b8152600401600060405180830381600087803b1580156124195760006000fd5b505af115801561242e573d600060003e3d6000fd5b505050505b565b600060009054906101000a900473ffffffffffffffffffffffffffffffffffffffff1673ffffffffffffffffffffffffffffffffffffffff1663a89f51ae6040518163ffffffff1660e01b815260040160206040518083038186803b15801561249e5760006000fd5b505afa1580156124b3573d600060003e3d6000fd5b505050506040513d601f19601f820116820180604052508101906124d7919061542a565b600a60006101000a81548173ffffffffffffffffffffffffffffffffffffffff021916908373ffffffffffffffffffffffffffffffffffffffff160217905550600060009054906101000a900473ffffffffffffffffffffffffffffffffffffffff1673ffffffffffffffffffffffffffffffffffffffff16632cae02696040518163ffffffff1660e01b815260040160206040518083038186803b1580156125805760006000fd5b505afa158015612595573d600060003e3d6000fd5b505050506040513d601f19601f820116820180604052508101906125b99190615403565b600b60006101000a81548173ffffffffffffffffffffffffffffffffffffffff021916908373ffffffffffffffffffffffffffffffffffffffff1602179055506000600a60009054906101000a900473ffffffffffffffffffffffffffffffffffffffff1673ffffffffffffffffffffffffffffffffffffffff1663755edd17600260009054906101000a900473ffffffffffffffffffffffffffffffffffffffff166040518263ffffffff1660e01b81526004016126789190615b0e565b602060405180830381600087803b1580156126935760006000fd5b505af11580156126a8573d600060003e3d6000fd5b505050506040513d601f19601f820116820180604052508101906126cc9190615871565b67ffffffffffffffff161415156126e35760006000fd5b6126eb6150d7565b600260009054906101000a900473ffffffffffffffffffffffffffffffffffffffff1673ffffffffffffffffffffffffffffffffffffffff16635a6beaf4600061273c600085612a7e63ffffffff16565b6040518363ffffffff1660e01b8152600401612759929190615cc9565b600060405180830381600087803b1580156127745760006000fd5b505af1158015612789573d600060003e3d6000fd5b505050506000604051806080016040528063ef5e1cac60e01b7bffffffffffffffffffffffffffffffffffffffffffffffffffffffff19167bffffffffffffffffffffffffffffffffffffffffffffffffffffffff1916815260200163c433c80a60e01b7bffffffffffffffffffffffffffffffffffffffffffffffffffffffff19167bffffffffffffffffffffffffffffffffffffffffffffffffffffffff191681526020016306972dcd60e01b7bffffffffffffffffffffffffffffffffffffffffffffffffffffffff19167bffffffffffffffffffffffffffffffffffffffffffffffffffffffff19168152602001635a6127a960e01b7bffffffffffffffffffffffffffffffffffffffffffffffffffffffff19167bffffffffffffffffffffffffffffffffffffffffffffffffffffffff191681526020015090506000600090505b815060048110156129685760016005600050600084846004811015156128f257fe5b60200201517bffffffffffffffffffffffffffffffffffffffffffffffffffffffff19167bffffffffffffffffffffffffffffffffffffffffffffffffffffffff1916815260200190815260200160002060006101000a81548160ff0219169083151502179055505b80806001019150506128d0565b506001600160146101000a81548160ff02191690831515021790555050505b565b61299761230663ffffffff16565b600060009054906101000a900473ffffffffffffffffffffffffffffffffffffffff1673ffffffffffffffffffffffffffffffffffffffff1663bf86d6906040518163ffffffff1660e01b815260040160206040518083038186803b158015612a005760006000fd5b505afa158015612a15573d600060003e3d6000fd5b505050506040513d601f19601f82011682018060405250810190612a39919061531a565b151515612a7b576040517f08c379a0000000000000000000000000000000000000000000000000000000008152600401612a7290615cf4565b60405180910390fd5b5b565b612a866150d7565b6000612a96614a1863ffffffff16565b90506000612aa982614b0f63ffffffff16565b9050600060008560a0015167ffffffffffffffff1614612adb57612ad68560a00151614b0f63ffffffff16565b612ade565b60005b90508067ffffffffffffffff168267ffffffffffffffff16111515612b0857849350505050612f4e565b612b1661397a63ffffffff16565b6000612bca86600260009054906101000a900473ffffffffffffffffffffffffffffffffffffffff1673ffffffffffffffffffffffffffffffffffffffff166306ef2d806040518163ffffffff1660e01b815260040160806040518083038186803b158015612b855760006000fd5b505afa158015612b9a573d600060003e3d6000fd5b505050506040513d601f19601f82011682018060405250810190612bbe91906156ed565b86611f6963ffffffff16565b8092508196505050600081118015612be3575060008714155b15612f0057600073ffffffffffffffffffffffffffffffffffffffff1685610160015173ffffffffffffffffffffffffffffffffffffffff1614158015612c395750600085610180015167ffffffffffffffff16115b15612d6a576000612c6286610180015167ffffffffffffffff16836144f490919063ffffffff16565b9050600060009054906101000a900473ffffffffffffffffffffffffffffffffffffffff1673ffffffffffffffffffffffffffffffffffffffff1663ef7a7cfa876101600151836040518363ffffffff1660e01b8152600401612cc6929190615bf5565b600060405180830381600087803b158015612ce15760006000fd5b505af1158015612cf6573d600060003e3d6000fd5b505050506001151586610160015173ffffffffffffffffffffffffffffffffffffffff167f8079a05488a0f375c08504c3ba8b3a1371f5a192b7a141bc9294ef7ad41389d983604051612d4991906160b6565b60405180910390a3612d64818361497490919063ffffffff16565b91508150505b6000600a60009054906101000a900473ffffffffffffffffffffffffffffffffffffffff1673ffffffffffffffffffffffffffffffffffffffff16636352211e896040518263ffffffff1660e01b8152600401612dc791906160b6565b60206040518083038186803b158015612de05760006000fd5b505afa158015612df5573d600060003e3d6000fd5b505050506040513d601f19601f82011682018060405250810190612e1991906152f3565b9050600060009054906101000a900473ffffffffffffffffffffffffffffffffffffffff1673ffffffffffffffffffffffffffffffffffffffff1663ef7a7cfa82846040518363ffffffff1660e01b8152600401612e78929190615bf5565b600060405180830381600087803b158015612e935760006000fd5b505af1158015612ea8573d600060003e3d6000fd5b50505050600015158173ffffffffffffffffffffffffffffffffffffffff167f8079a05488a0f375c08504c3ba8b3a1371f5a192b7a141bc9294ef7ad41389d984604051612ef691906160b6565b60405180910390a3505b8267ffffffffffffffff16877fc99ac0d15229fa72f1b0756c0eed4e7ede3d80f4e4e0d308ce7a56d1366b8a03876040015184604051612f419291906160c8565b60405180910390a3505050505b92915050565b60007f800000000000000000000000000000000000000000000000000000000000000082101515612ff0576040517f08c379a00000000000000000000000000000000000000000000000000000000081526004018080602001828103825260128152602001807f746f6f2062696720666f7220696e74323536000000000000000000000000000081526020015060200191505060405180910390fd5b819050612ff8565b919050565b60003490506000811180156130125750600082115b151515613054576040517f08c379a000000000000000000000000000000000000000000000000000000000815260040161304b90615ead565b60405180910390fd5b600061306782612f54909063ffffffff16565b9050600081141561308b5761308383612f54909063ffffffff16565b600003905080505b6130aa60008514158061309f575060008214155b61235b63ffffffff16565b6000841415156133585760008413156131ac5760008490506130d9818860400151614b9790919063ffffffff16565b87604001909081815260200150506130f56149fd63ffffffff16565b8760c0019067ffffffffffffffff16908167ffffffffffffffff1681526020015050600260009054906101000a900473ffffffffffffffffffffffffffffffffffffffff1673ffffffffffffffffffffffffffffffffffffffff16632b7c7b11826040518263ffffffff1660e01b815260040161317291906160b6565b600060405180830381600087803b15801561318d5760006000fd5b505af11580156131a2573d600060003e3d6000fd5b5050505050613357565b600086604001511115156131f5576040517f08c379a00000000000000000000000000000000000000000000000000000000081526004016131ec90615f51565b60405180910390fd5b6132036149fd63ffffffff16565b67ffffffffffffffff16613234610708610e10018860c0015167ffffffffffffffff16614c2090919063ffffffff16565b67ffffffffffffffff16101515613280576040517f08c379a000000000000000000000000000000000000000000000000000000000815260040161327790615d72565b60405180910390fd5b83600003866040015110156132ac576132a48660400151612f54909063ffffffff16565b600003935083505b836000038660400181815103915090908181526020015050600260009054906101000a900473ffffffffffffffffffffffffffffffffffffffff1673ffffffffffffffffffffffffffffffffffffffff16632a7ba1f7856000036040518263ffffffff1660e01b815260040161332291906160b6565b600060405180830381600087803b15801561333d5760006000fd5b505af1158015613352573d600060003e3d6000fd5b505050505b5b6000811415156133bf57600081131561339557613382818760200151614b9790919063ffffffff16565b86602001909081815260200150506133be565b6133af81600003876020015161497490919063ffffffff16565b86602001909081815260200150505b5b600086604001511415156134495760086000505486604001511015151561341b576040517f08c379a000000000000000000000000000000000000000000000000000000000815260040161341290615f12565b60405180910390fd5b600081128061342a5750600084135b156134485761344786604001518760200151614cbd63ffffffff16565b5b5b600260009054906101000a900473ffffffffffffffffffffffffffffffffffffffff1673ffffffffffffffffffffffffffffffffffffffff16635a6beaf486886040518363ffffffff1660e01b81526004016134a692919061612d565b600060405180830381600087803b1580156134c15760006000fd5b505af11580156134d6573d600060003e3d6000fd5b5050505060008414151561361957600084131561358357600360009054906101000a900473ffffffffffffffffffffffffffffffffffffffff1673ffffffffffffffffffffffffffffffffffffffff1663449a52f833866040518363ffffffff1660e01b815260040161354a929190615b8d565b600060405180830381600087803b1580156135655760006000fd5b505af115801561357a573d600060003e3d6000fd5b50505050613618565b600360009054906101000a900473ffffffffffffffffffffffffffffffffffffffff1673ffffffffffffffffffffffffffffffffffffffff166379cc679033866000036040518363ffffffff1660e01b81526004016135e3929190615b8d565b600060405180830381600087803b1580156135fe5760006000fd5b505af1158015613613573d600060003e3d6000fd5b505050505b5b6000811415156136f95760008113156136635761365e600260009054906101000a900473ffffffffffffffffffffffffffffffffffffffff1682614e8d63ffffffff16565b6136f8565b600260009054906101000a900473ffffffffffffffffffffffffffffffffffffffff1673ffffffffffffffffffffffffffffffffffffffff16636250216933836000036040518363ffffffff1660e01b81526004016136c3929190615b5e565b600060405180830381600087803b1580156136de5760006000fd5b505af11580156136f3573d600060003e3d6000fd5b505050505b5b8467ffffffffffffffff167f0ed8d38fcfdb338f760ae5cf4b84f9ade387db12ea673e89e8da1b25857cc1c18583604051613735929190615cb0565b60405180910390a250505b50505050565b61374e61518b565b600085141561378557866000015181600001909081815260200150508660600151816020019090818152602001505080905061392a565b60006137cb8767ffffffffffffffff16610e1067ffffffffffffffff166301e133808115156137b057fe5b0467ffffffffffffffff16886147d69092919063ffffffff16565b90506000856137f4576137ef82670de0b6b3a764000061497490919063ffffffff16565b613810565b61380f82670de0b6b3a7640000614b9790919063ffffffff16565b5b9050613829818a606001516144f490919063ffffffff16565b836020019090818152602001505061385883602001518a606001518b600001516147d69092919063ffffffff16565b83600001909081815260200150508860000151836000015111156138c15760008960000151846000015103905061389885826144f490919063ffffffff16565b846060019090818152602001505083606001518103846040019090818152602001505050613927565b88600001518360000151101561392657600083600001518a600001510390508581101515613914578960000151846000019090818152602001505089606001518460200190908181526020015050613924565b8084608001909081815260200150505b505b5b50505b9695505050505050565b801515613976576040517f08c379a000000000000000000000000000000000000000000000000000000000815260040161396d90615db1565b60405180910390fd5b5b50565b600061398a61501363ffffffff16565b9050600b60189054906101000a900467ffffffffffffffff1667ffffffffffffffff168167ffffffffffffffff161115156139c55750614361565b6000600b60189054906101000a900467ffffffffffffffff16820390506000600260009054906101000a900473ffffffffffffffffffffffffffffffffffffffff1673ffffffffffffffffffffffffffffffffffffffff166306ef2d806040518163ffffffff1660e01b815260040160806040518083038186803b158015613a4d5760006000fd5b505afa158015613a62573d600060003e3d6000fd5b505050506040513d601f19601f82011682018060405250810190613a8691906156ed565b90506000600060009054906101000a900473ffffffffffffffffffffffffffffffffffffffff1673ffffffffffffffffffffffffffffffffffffffff166343f48fbd6040518163ffffffff1660e01b815260040160206040518083038186803b158015613af35760006000fd5b505afa158015613b08573d600060003e3d6000fd5b505050506040513d601f19601f82011682018060405250810190613b2c919061549f565b90506000613ce883858473ffffffffffffffffffffffffffffffffffffffff1663a0fc0eda6040518163ffffffff1660e01b815260040160206040518083038186803b158015613b7c5760006000fd5b505afa158015613b91573d600060003e3d6000fd5b505050506040513d601f19601f82011682018060405250810190613bb591906157d6565b8573ffffffffffffffffffffffffffffffffffffffff16636d7fa6646040518163ffffffff1660e01b815260040160206040518083038186803b158015613bfc5760006000fd5b505afa158015613c11573d600060003e3d6000fd5b505050506040513d601f19601f82011682018060405250810190613c35919061531a565b600360009054906101000a900473ffffffffffffffffffffffffffffffffffffffff1673ffffffffffffffffffffffffffffffffffffffff166375172a8b6040518163ffffffff1660e01b815260040160206040518083038186803b158015613c9e5760006000fd5b505afa158015613cb3573d600060003e3d6000fd5b505050506040513d601f19601f82011682018060405250810190613cd791906157d6565b60096000505461374663ffffffff16565b90506000613f0c8567ffffffffffffffff16610e1067ffffffffffffffff1662015180811515613d1457fe5b0467ffffffffffffffff16613efd600060009054906101000a900473ffffffffffffffffffffffffffffffffffffffff1673ffffffffffffffffffffffffffffffffffffffff16639ec5a8946040518163ffffffff1660e01b815260040160206040518083038186803b158015613d8b5760006000fd5b505afa158015613da0573d600060003e3d6000fd5b505050506040513d601f19601f82011682018060405250810190613dc491906154c6565b73ffffffffffffffffffffffffffffffffffffffff16630a86f1096040518163ffffffff1660e01b815260040160206040518083038186803b158015613e0a5760006000fd5b505afa158015613e1f573d600060003e3d6000fd5b505050506040513d601f19601f82011682018060405250810190613e439190615871565b67ffffffffffffffff16600060009054906101000a900473ffffffffffffffffffffffffffffffffffffffff1673ffffffffffffffffffffffffffffffffffffffff1663c375e6ed6040518163ffffffff1660e01b815260040160206040518083038186803b158015613eb65760006000fd5b505afa158015613ecb573d600060003e3d6000fd5b505050506040513d601f19601f82011682018060405250810190613eef91906157d6565b6144f490919063ffffffff16565b6147d69092919063ffffffff16565b9050604051806080016040528083600001518152602001613f3a838760200151614b9790919063ffffffff16565b8152602001613f76613f638867ffffffffffffffff16886000015161503990919063ffffffff16565b8760400151614b9790919063ffffffff16565b8152602001836020015181526020015093508350600260009054906101000a900473ffffffffffffffffffffffffffffffffffffffff1673ffffffffffffffffffffffffffffffffffffffff166378efc6b0856040518263ffffffff1660e01b8152600401613fe59190616085565b600060405180830381600087803b1580156140005760006000fd5b505af1158015614015573d600060003e3d6000fd5b5050505085600b60186101000a81548167ffffffffffffffff021916908367ffffffffffffffff16021790555060008260600151111561419a57600260009054906101000a900473ffffffffffffffffffffffffffffffffffffffff1673ffffffffffffffffffffffffffffffffffffffff16632c73f09e83606001516040518263ffffffff1660e01b81526004016140ae91906160b6565b600060405180830381600087803b1580156140c95760006000fd5b505af11580156140de573d600060003e3d6000fd5b50505050600360009054906101000a900473ffffffffffffffffffffffffffffffffffffffff1673ffffffffffffffffffffffffffffffffffffffff1663449a52f8600260009054906101000a900473ffffffffffffffffffffffffffffffffffffffff1684606001516040518363ffffffff1660e01b8152600401614165929190615bf5565b600060405180830381600087803b1580156141805760006000fd5b505af1158015614195573d600060003e3d6000fd5b505050505b60008260400151111561425f57600360009054906101000a900473ffffffffffffffffffffffffffffffffffffffff1673ffffffffffffffffffffffffffffffffffffffff1663449a52f8600360009054906101000a900473ffffffffffffffffffffffffffffffffffffffff1684604001516040518363ffffffff1660e01b815260040161422a929190615bf5565b600060405180830381600087803b1580156142455760006000fd5b505af115801561425a573d600060003e3d6000fd5b505050505b60008260800151111561430057600360009054906101000a900473ffffffffffffffffffffffffffffffffffffffff1673ffffffffffffffffffffffffffffffffffffffff1663c59fb1ab83608001516040518263ffffffff1660e01b81526004016142cb91906160b6565b600060405180830381600087803b1580156142e65760006000fd5b505af11580156142fb573d600060003e3d6000fd5b505050505b8567ffffffffffffffff167fdfc2183705a66b49f12c66a6d3b2fa5cf3b7c67086e9c6e90d144befc94f436c868660000151876020015188604001518960600151604051614352959493929190616158565b60405180910390a25050505050505b565b60006000600260009054906101000a900473ffffffffffffffffffffffffffffffffffffffff1673ffffffffffffffffffffffffffffffffffffffff16637f250c616040518163ffffffff1660e01b815260040160206040518083038186803b1580156143d05760006000fd5b505afa1580156143e5573d600060003e3d6000fd5b505050506040513d601f19601f8201168201806040525081019061440991906157d6565b90506000600b60009054906101000a900473ffffffffffffffffffffffffffffffffffffffff1673ffffffffffffffffffffffffffffffffffffffff166318160ddd6040518163ffffffff1660e01b815260040160206040518083038186803b1580156144765760006000fd5b505afa15801561448b573d600060003e3d6000fd5b505050506040513d601f19601f820116820180604052508101906144af91906157d6565b905060008114806144c05750600082145b6144dc576144d782826147b090919063ffffffff16565b6144e6565b670de0b6b3a76400005b925050506144f15650505b90565b600061450f8383670de0b6b3a76400006147d663ffffffff16565b905080505b92915050565b600060008573ffffffffffffffffffffffffffffffffffffffff166323b872dd60e01b868686604051602401808473ffffffffffffffffffffffffffffffffffffffff1681526020018373ffffffffffffffffffffffffffffffffffffffff1681526020018281526020019350505050604051602081830303815290604052907bffffffffffffffffffffffffffffffffffffffffffffffffffffffff19166020820180517bffffffffffffffffffffffffffffffffffffffffffffffffffffffff83818316178352505050506040518082805190602001908083835b60208310151561461d57805182525b6020820191506020810190506020830392506145f7565b6001836020036101000a0380198251168184511680821785525050505050509050019150506000604051808303816000865af19150503d806000811461467f576040519150601f19603f3d011682016040523d82523d6000602084013e614684565b606091505b50915091508180156146c557506000815114806146c457508080602001905160208110156146b25760006000fd5b81019080805190602001909291905050505b5b151561473c576040517f08c379a00000000000000000000000000000000000000000000000000000000081526004018080602001828103825260038152602001807f535446000000000000000000000000000000000000000000000000000000000081526020015060200191505060405180910390fd5b50505b50505050565b600260066000505414151515614790576040517f08c379a000000000000000000000000000000000000000000000000000000000815260040161478790615d33565b60405180910390fd5b600260066000508190909055505b565b600160066000508190909055505b565b60006147cb83670de0b6b3a7640000846147d663ffffffff16565b905080505b92915050565b60006000600060001985870985870292508281108382030391505060008114156148195760008411151561480a5760006000fd5b838204925082925050506148d0565b80841115156148285760006000fd5b60008486880990508281118203915080830392506000858660000316905080860495508084049350600181826000030401905080830284179350835060006002876003021890508087026002038102905080508087026002038102905080508087026002038102905080508087026002038102905080508087026002038102905080508087026002038102905080508085029550855085955050505050506148d05650505050505b9392505050565b60008267ffffffffffffffff1682840391508167ffffffffffffffff161115151561496d576040517f08c379a000000000000000000000000000000000000000000000000000000000815260040180806020018281038252600d8152602001807f7375622d756e646572666c6f770000000000000000000000000000000000000081526020015060200191505060405180910390fd5b5b92915050565b600082828403915081111515156149f6576040517f08c379a000000000000000000000000000000000000000000000000000000000815260040180806020018281038252600d8152602001807f7375622d756e646572666c6f770000000000000000000000000000000000000081526020015060200191505060405180910390fd5b5b92915050565b6000614a1042611ed7909063ffffffff16565b905080505b90565b6000614a286149fd63ffffffff16565b905080506000600060009054906101000a900473ffffffffffffffffffffffffffffffffffffffff1673ffffffffffffffffffffffffffffffffffffffff1663585690816040518163ffffffff1660e01b815260040160206040518083038186803b158015614a975760006000fd5b505afa158015614aac573d600060003e3d6000fd5b505050506040513d601f19601f82011682018060405250810190614ad09190615871565b905060008167ffffffffffffffff16118015614aff57508167ffffffffffffffff168167ffffffffffffffff16105b15614b0a5780915081505b505b90565b6000614b8d7f00000000000000000000000000000000000000000000000000000000000000007f000000000000000000000000000000000000000000000000000000000000000067ffffffffffffffff168467ffffffffffffffff16811515614b7457fe5b0467ffffffffffffffff166148d790919063ffffffff16565b905080505b919050565b60008282840191508110151515614c19576040517f08c379a000000000000000000000000000000000000000000000000000000000815260040180806020018281038252600c8152602001807f6164642d6f766572666c6f77000000000000000000000000000000000000000081526020015060200191505060405180910390fd5b5b92915050565b60008267ffffffffffffffff1682840191508167ffffffffffffffff1610151515614cb6576040517f08c379a000000000000000000000000000000000000000000000000000000000815260040180806020018281038252600c8152602001807f6164642d6f766572666c6f77000000000000000000000000000000000000000081526020015060200191505060405180910390fd5b5b92915050565b600160159054906101000a900460ff1615614cd757614e89565b6000600060009054906101000a900473ffffffffffffffffffffffffffffffffffffffff1673ffffffffffffffffffffffffffffffffffffffff1663d3419bf36040518163ffffffff1660e01b815260040160206040518083038186803b158015614d425760006000fd5b505afa158015614d57573d600060003e3d6000fd5b505050506040513d601f19601f82011682018060405250810190614d7b9190615451565b73ffffffffffffffffffffffffffffffffffffffff1663fa42dcf4600b60149054906101000a900463ffffffff166040518263ffffffff1660e01b8152600401614dc591906160e1565b60206040518083038186803b158015614dde5760006000fd5b505afa158015614df3573d600060003e3d6000fd5b505050506040513d601f19601f82011682018060405250810190614e1791906157d6565b9050614e318360076000505461503990919063ffffffff16565b614e44828461503990919063ffffffff16565b10151515614e87576040517f08c379a0000000000000000000000000000000000000000000000000000000008152600401614e7e90615fcf565b60405180910390fd5b505b5050565b60008273ffffffffffffffffffffffffffffffffffffffff1682600067ffffffffffffffff81118015614ec05760006000fd5b506040519080825280601f01601f191660200182016040528015614ef35781602001600182028036833780820191505090505b506040518082805190602001908083835b602083101515614f2a57805182525b602082019150602081019050602083039250614f04565b6001836020036101000a03801982511681845116808217855250505050505090500191505060006040518083038185875af1925050503d8060008114614f8c576040519150601f19603f3d011682016040523d82523d6000602084013e614f91565b606091505b5050905080151561500d576040517f08c379a00000000000000000000000000000000000000000000000000000000081526004018080602001828103825260038152602001807f535445000000000000000000000000000000000000000000000000000000000081526020015060200191505060405180910390fd5b505b5050565b6000615031615026614a1863ffffffff16565b614b0f63ffffffff16565b905080505b90565b600060008214806150595750828283850292508281151561505657fe5b04145b15156150d0576040517f08c379a000000000000000000000000000000000000000000000000000000000815260040180806020018281038252600c8152602001807f6d756c2d6f766572666c6f77000000000000000000000000000000000000000081526020015060200191505060405180910390fd5b5b92915050565b604051806101a001604052806000815260200160008152602001600081526020016000815260200160008152602001600067ffffffffffffffff168152602001600067ffffffffffffffff168152602001600060020b8152602001600015158152602001600067ffffffffffffffff168152602001600063ffffffff168152602001600073ffffffffffffffffffffffffffffffffffffffff168152602001600067ffffffffffffffff1681526020015090565b6040518060a001604052806000815260200160008152602001600081526020016000815260200160008152602001509056616245565b6000813590506151d0816161bb565b5b919050565b6000815190506151e5816161bb565b5b919050565b6000813590506151fa816161e4565b5b919050565b60008151905061520f816161e4565b5b919050565b600081359050615224816161f9565b5b919050565b600081519050615239816161f9565b5b919050565b600060808284031215615250578081fd5b6040516080810181811067ffffffffffffffff8211171561526d57fe5b806040525080915082358152602083013560208201526040830135604082015260608301356060820152505b92915050565b6000813590506152ae8161620f565b5b919050565b6000815190506152c38161620f565b5b919050565b6000813590506152d881616228565b5b919050565b6000815190506152ed81616228565b5b919050565b600060208284031215615304578081fd5b815161530f816161bb565b809150505b92915050565b60006020828403121561532b578081fd5b8151615336816161e4565b809150505b92915050565b600060208284031215615352578081fd5b81357fffffffff00000000000000000000000000000000000000000000000000000000811681141515615383578182fd5b809150505b92915050565b60006020828403121561539f578081fd5b81516153aa816161bb565b809150505b92915050565b6000602082840312156153c6578081fd5b81356153d1816161bb565b809150505b92915050565b6000602082840312156153ed578081fd5b81516153f8816161bb565b809150505b92915050565b600060208284031215615414578081fd5b815161541f816161bb565b809150505b92915050565b60006020828403121561543b578081fd5b8151615446816161bb565b809150505b92915050565b600060208284031215615462578081fd5b815161546d816161bb565b809150505b92915050565b600060208284031215615489578081fd5b8151615494816161bb565b809150505b92915050565b6000602082840312156154b0578081fd5b81516154bb816161bb565b809150505b92915050565b6000602082840312156154d7578081fd5b81516154e2816161bb565b809150505b92915050565b60006101a0808385031215615500578182fd5b61550981616190565b9050825181526020830151602082015260408301516040820152606083015160608201526080830151608082015261554360a084016152de565b60a082015261555460c084016152de565b60c082015261556560e0840161522a565b60e0820152610100615578818501615200565b818301525061012061558b8185016152de565b818301525061014061559e8185016152b4565b81830152506101606155b18185016151d6565b81830152506101806155c48185016152de565b8183015250809150505b92915050565b6000600060008385036102408112156155eb578283fd5b6101a0808212156155fa578384fd5b61560381616190565b9150853582526020860135602083015260408601356040830152606086013560608301526080860135608083015261563d60a087016152c9565b60a083015261564e60c087016152c9565b60c083015261565f60e08701615215565b60e08301526101006156728188016151eb565b81840152506101206156858188016152c9565b818401525061014061569881880161529f565b81840152506101606156ab8188016151c1565b81840152506101806156be8188016152c9565b81840152508194506156d28782880161523f565b935050506156e361022085016152c9565b90505b9250925092565b6000608082840312156156fe578081fd5b6040516080810181811067ffffffffffffffff8211171561571b57fe5b806040525082518152602083015160208201526040830151604082015260608301516060820152809150505b92915050565b6000600060006000600060006101208789031215615769578384fd5b615773888861523f565b9550608087013561578381616228565b8095505060a0870135935060c087013561579c816161e4565b8093505060e0870135915061010087013590505b9295509295509295565b6000602082840312156157cb578081fd5b813590505b92915050565b6000602082840312156157e7578081fd5b815190505b92915050565b6000600060408385031215615805578182fd5b8235915060208301356158178161620f565b809150505b9250929050565b600060208284031215615834578081fd5b813561583f8161620f565b809150505b92915050565b60006020828403121561585b578081fd5b813561586681616228565b809150505b92915050565b600060208284031215615882578081fd5b815161588d81616228565b809150505b92915050565b6000600060006000608085870312156158af578182fd5b84356158ba81616228565b80945050602085013592506040850135915060608501356158da8161620f565b809150505b92959194509250565b60006000604083850312156158fb578182fd5b823561590681616228565b8092505060208301356159188161620f565b809150505b9250929050565b73ffffffffffffffffffffffffffffffffffffffff811682525b5050565b80151582525b5050565b8060020b82525b5050565b805182526020810151602083015260408101516040830152606081015160608301526080810151608083015260a081015161599560a0840182615a38565b5060c08101516159a860c0840182615a38565b5060e08101516159bb60e084018261594c565b50610100808201516159cf82850182615942565b5050610120808201516159e482850182615a38565b5050610140808201516159f982850182615a2a565b505061016080820151615a0e82850182615924565b505061018080820151615a2382850182615a38565b50505b5050565b63ffffffff811682525b5050565b67ffffffffffffffff811682525b5050565b60007f6d696e506f736974696f6e53697a6500000000000000000000000000000000008252600f820190505b919050565b60007f747761704475726174696f6e00000000000000000000000000000000000000008252600c820190505b919050565b60007f636f6c6c61746572616c697a6174696f6e526571756972656d656e74000000008252601c820190505b919050565b60007f696e746572657374506f7274696f6e546f4c656e64657273000000000000000082526018820190505b919050565b600060208201905073ffffffffffffffffffffffffffffffffffffffff831682525b92915050565b600060208201905073ffffffffffffffffffffffffffffffffffffffff831682525b92915050565b600060408201905073ffffffffffffffffffffffffffffffffffffffff841682528260208301525b9392505050565b600060408201905073ffffffffffffffffffffffffffffffffffffffff841682528260208301525b9392505050565b600060408201905073ffffffffffffffffffffffffffffffffffffffff8416825267ffffffffffffffff831660208301525b9392505050565b600060408201905073ffffffffffffffffffffffffffffffffffffffff841682528260208301525b9392505050565b600060208201905082151582525b92915050565b600060208201905073ffffffffffffffffffffffffffffffffffffffff831682525b92915050565b600060208201905073ffffffffffffffffffffffffffffffffffffffff831682525b92915050565b600060208201905073ffffffffffffffffffffffffffffffffffffffff831682525b92915050565b60006040820190508382528260208301525b9392505050565b60006101c08201905067ffffffffffffffff84168252615cec6020830184615957565b5b9392505050565b600060208252601160208301527f50726f746f636f6c2073687574646f776e00000000000000000000000000000060408301526060820190505b919050565b600060208252600d60208301527f4c43205265656e7472616e63790000000000000000000000000000000000000060408301526060820190505b919050565b600060208252600f60208301527f4e6f20666c61736820626f72726f77000000000000000000000000000000000060408301526060820190505b919050565b600060208252600e60208301527f4e6f7420417574686f72697a656400000000000000000000000000000000000060408301526060820190505b919050565b600060208252600460208301527f4e6f6f700000000000000000000000000000000000000000000000000000000060408301526060820190505b919050565b600060208252600d60208301527f4c50205265656e7472616e63790000000000000000000000000000000000000060408301526060820190505b919050565b600060208252601360208301527f4d7573742061646420636f6c6c61746572616c0000000000000000000000000060408301526060820190505b919050565b600060208252602360208301527f43616e7420696e637265617365202620646563726561736520636f6c6c61746560408301527f72616c000000000000000000000000000000000000000000000000000000000060608301526080820190505b919050565b600060208252601260208301527f506f736974696f6e20746f6f20736d616c6c000000000000000000000000000060408301526060820190505b919050565b600060208252601360208301527f4e6f206465627420746f20706179206261636b0000000000000000000000000060408301526060820190505b919050565b600060208252601360208301527f436f6e74726163742069732073746f707065640000000000000000000000000060408301526060820190505b919050565b600060208252601760208301527f496e73756666696369656e7420636f6c6c61746572616c00000000000000000060408301526060820190505b919050565b600060a08201905082518252602083015160208301526040830151604083015260608301516060830152608083015160808301525b92915050565b60006101a08201905061605c8284615957565b5b92915050565b60006101c0820190506160768285615957565b826101a08301525b9392505050565b6000608082019050825182526020830151602083015260408301516040830152606083015160608301525b92915050565b60006020820190508282525b92915050565b60006040820190508382528260208301525b9392505050565b600060208201905063ffffffff831682525b92915050565b600060208201905063ffffffff831682525b92915050565b600060208201905067ffffffffffffffff831682525b92915050565b60006101c08201905067ffffffffffffffff841682526161506020830184615957565b5b9392505050565b600060a08201905067ffffffffffffffff871682528560208301528460408301528360608301528260808301525b9695505050505050565b6000604051905081810181811067ffffffffffffffff821117156161b057fe5b80604052505b919050565b73ffffffffffffffffffffffffffffffffffffffff8116811415156161e05760006000fd5b5b50565b801515811415156161f55760006000fd5b5b50565b8060020b8114151561620b5760006000fd5b5b50565b63ffffffff8116811415156162245760006000fd5b5b50565b67ffffffffffffffff8116811415156162415760006000fd5b5b50565bfea2646970667358221220eccf81f556a5fd2188ef03ed44ab5e1878e08e9e34dd6c8242cf782821183e3164736f6c63430007060033",
  "linkReferences": {},
  "deployedLinkReferences": {}
}