{
  "_format": "hh-sol-artifact-1",
  "contractName": "MarketTestable",
  "sourceName": "contracts/mocks/MarketTestable.sol",
  "abi": [
    {
      "anonymous": false,
      "inputs": [
        {
          "indexed": true,
          "internalType": "address",
          "name": "governor",
          "type": "address"
        }
      ],
      "name": "Initialized",
      "type": "event"
    },
    {
      "anonymous": false,
      "inputs": [
        {
          "indexed": true,
          "internalType": "uint64",
          "name": "period",
          "type": "uint64"
        },
        {
          "indexed": false,
          "internalType": "uint64",
          "name": "periods",
          "type": "uint64"
        },
        {
          "indexed": false,
          "internalType": "uint256",
          "name": "newDebt",
          "type": "uint256"
        },
        {
          "indexed": false,
          "internalType": "uint256",
          "name": "rewardCount",
          "type": "uint256"
        },
        {
          "indexed": false,
          "internalType": "uint256",
          "name": "cumulativeDebt",
          "type": "uint256"
        },
        {
          "indexed": false,
          "internalType": "uint256",
          "name": "debtExchangeRate",
          "type": "uint256"
        }
      ],
      "name": "InterestAccrued",
      "type": "event"
    },
    {
      "anonymous": false,
      "inputs": [
        {
          "indexed": true,
          "internalType": "address",
          "name": "creator",
          "type": "address"
        },
        {
          "indexed": true,
          "internalType": "uint64",
          "name": "positionID",
          "type": "uint64"
        }
      ],
      "name": "NewPositionCreated",
      "type": "event"
    },
    {
      "anonymous": false,
      "inputs": [
        {
          "indexed": true,
          "internalType": "string",
          "name": "paramName",
          "type": "string"
        },
        {
          "indexed": false,
          "internalType": "uint256",
          "name": "value",
          "type": "uint256"
        }
      ],
      "name": "ParameterUpdated",
      "type": "event"
    },
    {
      "anonymous": false,
      "inputs": [
        {
          "indexed": true,
          "internalType": "string",
          "name": "paramName",
          "type": "string"
        },
        {
          "indexed": false,
          "internalType": "uint64",
          "name": "value",
          "type": "uint64"
        }
      ],
      "name": "ParameterUpdated64",
      "type": "event"
    },
    {
      "anonymous": false,
      "inputs": [
        {
          "indexed": true,
          "internalType": "string",
          "name": "paramName",
          "type": "string"
        },
        {
          "indexed": false,
          "internalType": "address",
          "name": "value",
          "type": "address"
        }
      ],
      "name": "ParameterUpdatedAddress",
      "type": "event"
    },
    {
      "anonymous": false,
      "inputs": [
        {
          "indexed": true,
          "internalType": "uint64",
          "name": "positionID",
          "type": "uint64"
        },
        {
          "indexed": false,
          "internalType": "int256",
          "name": "debtChange",
          "type": "int256"
        },
        {
          "indexed": false,
          "internalType": "int256",
          "name": "collateralChange",
          "type": "int256"
        }
      ],
      "name": "PositionAdjusted",
      "type": "event"
    },
    {
      "anonymous": false,
      "inputs": [
        {
          "indexed": true,
          "internalType": "uint256",
          "name": "positionID",
          "type": "uint256"
        },
        {
          "indexed": true,
          "internalType": "uint64",
          "name": "period",
          "type": "uint64"
        },
        {
          "indexed": false,
          "internalType": "uint256",
          "name": "debtAfter",
          "type": "uint256"
        },
        {
          "indexed": false,
          "internalType": "uint256",
          "name": "tcpRewards",
          "type": "uint256"
        }
      ],
      "name": "PositionUpdated",
      "type": "event"
    },
    {
      "anonymous": false,
      "inputs": [],
      "name": "Stopped",
      "type": "event"
    },
    {
      "inputs": [],
      "name": "accrueInterest",
      "outputs": [],
      "stateMutability": "nonpayable",
      "type": "function"
    },
    {
      "inputs": [
        {
          "internalType": "contract IUniswapV3Pool",
          "name": "pool",
          "type": "address"
        }
      ],
      "name": "addReferencePool",
      "outputs": [],
      "stateMutability": "nonpayable",
      "type": "function"
    },
    {
      "inputs": [
        {
          "internalType": "uint64",
          "name": "positionID",
          "type": "uint64"
        },
        {
          "internalType": "uint256",
          "name": "collateralDecrease",
          "type": "uint256"
        }
      ],
      "name": "adjustGenesisPositionCollateral",
      "outputs": [],
      "stateMutability": "payable",
      "type": "function"
    },
    {
      "inputs": [
        {
          "internalType": "uint64",
          "name": "positionID",
          "type": "uint64"
        },
        {
          "internalType": "int256",
          "name": "debtChange",
          "type": "int256"
        },
        {
          "internalType": "uint256",
          "name": "collateralDecrease",
          "type": "uint256"
        }
      ],
      "name": "adjustPosition",
      "outputs": [],
      "stateMutability": "payable",
      "type": "function"
    },
    {
      "inputs": [
        {
          "components": [
            {
              "internalType": "uint256",
              "name": "debt",
              "type": "uint256"
            },
            {
              "internalType": "uint256",
              "name": "totalTCPRewards",
              "type": "uint256"
            },
            {
              "internalType": "uint256",
              "name": "cumulativeDebt",
              "type": "uint256"
            },
            {
              "internalType": "uint256",
              "name": "debtExchangeRate",
              "type": "uint256"
            }
          ],
          "internalType": "struct IAccounting.SystemDebtInfo",
          "name": "sdi",
          "type": "tuple"
        },
        {
          "internalType": "uint64",
          "name": "periods",
          "type": "uint64"
        },
        {
          "internalType": "uint256",
          "name": "annualInterestRate",
          "type": "uint256"
        },
        {
          "internalType": "bool",
          "name": "positiveInterestRate",
          "type": "bool"
        },
        {
          "internalType": "uint256",
          "name": "reserves",
          "type": "uint256"
        },
        {
          "internalType": "uint256",
          "name": "_interestPortionToLenders",
          "type": "uint256"
        }
      ],
      "name": "calculateInterest",
      "outputs": [
        {
          "components": [
            {
              "internalType": "uint256",
              "name": "newDebt",
              "type": "uint256"
            },
            {
              "internalType": "uint256",
              "name": "newExchangeRate",
              "type": "uint256"
            },
            {
              "internalType": "uint256",
              "name": "additionalReserves",
              "type": "uint256"
            },
            {
              "internalType": "uint256",
              "name": "additionalLends",
              "type": "uint256"
            },
            {
              "internalType": "uint256",
              "name": "reducedReserves",
              "type": "uint256"
            }
          ],
          "internalType": "struct IMarket.CalculatedInterestInfo",
          "name": "cii",
          "type": "tuple"
        }
      ],
      "stateMutability": "pure",
      "type": "function"
    },
    {
      "inputs": [
        {
          "internalType": "uint64",
          "name": "positionID",
          "type": "uint64"
        }
      ],
      "name": "claimRewards",
      "outputs": [],
      "stateMutability": "nonpayable",
      "type": "function"
    },
    {
      "inputs": [],
      "name": "collateralizationRequirement",
      "outputs": [
        {
          "internalType": "uint256",
          "name": "",
          "type": "uint256"
        }
      ],
      "stateMutability": "view",
      "type": "function"
    },
    {
      "inputs": [],
      "name": "completeSetup",
      "outputs": [],
      "stateMutability": "nonpayable",
      "type": "function"
    },
    {
      "inputs": [
        {
          "components": [
            {
              "internalType": "uint8",
              "name": "v",
              "type": "uint8"
            },
            {
              "internalType": "bytes32",
              "name": "r",
              "type": "bytes32"
            },
            {
              "internalType": "bytes32",
              "name": "s",
              "type": "bytes32"
            }
          ],
          "internalType": "struct IGovernor.GenesisAuth",
          "name": "ga",
          "type": "tuple"
        }
      ],
      "name": "createGenesisPosition",
      "outputs": [
        {
          "internalType": "uint64",
          "name": "positionID",
          "type": "uint64"
        }
      ],
      "stateMutability": "payable",
      "type": "function"
    },
    {
      "inputs": [
        {
          "internalType": "uint256",
          "name": "initialDebt",
          "type": "uint256"
        }
      ],
      "name": "createPosition",
      "outputs": [
        {
          "internalType": "uint64",
          "name": "positionID",
          "type": "uint64"
        }
      ],
      "stateMutability": "payable",
      "type": "function"
    },
    {
      "inputs": [],
      "name": "currentPeriod",
      "outputs": [
        {
          "internalType": "uint64",
          "name": "period",
          "type": "uint64"
        }
      ],
      "stateMutability": "view",
      "type": "function"
    },
    {
      "inputs": [],
      "name": "deployer",
      "outputs": [
        {
          "internalType": "address",
          "name": "",
          "type": "address"
        }
      ],
      "stateMutability": "view",
      "type": "function"
    },
    {
      "inputs": [],
      "name": "firstPeriod",
      "outputs": [
        {
          "internalType": "uint64",
          "name": "",
          "type": "uint64"
        }
      ],
      "stateMutability": "view",
      "type": "function"
    },
    {
      "inputs": [],
      "name": "governor",
      "outputs": [
        {
          "internalType": "contract IGovernor",
          "name": "",
          "type": "address"
        }
      ],
      "stateMutability": "view",
      "type": "function"
    },
    {
      "inputs": [
        {
          "internalType": "contract IGovernor",
          "name": "_governor",
          "type": "address"
        }
      ],
      "name": "init",
      "outputs": [],
      "stateMutability": "nonpayable",
      "type": "function"
    },
    {
      "inputs": [],
      "name": "interestPortionToLenders",
      "outputs": [
        {
          "internalType": "uint256",
          "name": "",
          "type": "uint256"
        }
      ],
      "stateMutability": "view",
      "type": "function"
    },
    {
      "inputs": [],
      "name": "lastPeriodGlobalInterestAccrued",
      "outputs": [
        {
          "internalType": "uint64",
          "name": "",
          "type": "uint64"
        }
      ],
      "stateMutability": "view",
      "type": "function"
    },
    {
      "inputs": [],
      "name": "minCollateralPoolLiquidity",
      "outputs": [
        {
          "internalType": "uint256",
          "name": "",
          "type": "uint256"
        }
      ],
      "stateMutability": "view",
      "type": "function"
    },
    {
      "inputs": [],
      "name": "minPositionSize",
      "outputs": [
        {
          "internalType": "uint256",
          "name": "",
          "type": "uint256"
        }
      ],
      "stateMutability": "view",
      "type": "function"
    },
    {
      "inputs": [],
      "name": "minTotalReferencePoolLiquidity",
      "outputs": [
        {
          "internalType": "uint256",
          "name": "",
          "type": "uint256"
        }
      ],
      "stateMutability": "view",
      "type": "function"
    },
    {
      "inputs": [],
      "name": "periodLength",
      "outputs": [
        {
          "internalType": "uint64",
          "name": "",
          "type": "uint64"
        }
      ],
      "stateMutability": "view",
      "type": "function"
    },
    {
      "inputs": [
        {
          "internalType": "uint256",
          "name": "",
          "type": "uint256"
        }
      ],
      "name": "referencePools",
      "outputs": [
        {
          "internalType": "contract IUniswapV3Pool",
          "name": "",
          "type": "address"
        }
      ],
      "stateMutability": "view",
      "type": "function"
    },
    {
      "inputs": [
        {
          "internalType": "uint64",
          "name": "positionID",
          "type": "uint64"
        }
      ],
      "name": "removeGenesisPosition",
      "outputs": [],
      "stateMutability": "nonpayable",
      "type": "function"
    },
    {
      "inputs": [
        {
          "internalType": "contract IUniswapV3Pool",
          "name": "pool",
          "type": "address"
        }
      ],
      "name": "removeReferencePool",
      "outputs": [],
      "stateMutability": "nonpayable",
      "type": "function"
    },
    {
      "inputs": [
        {
          "internalType": "uint256",
          "name": "requirement",
          "type": "uint256"
        }
      ],
      "name": "setCollateralizationRequirement",
      "outputs": [],
      "stateMutability": "nonpayable",
      "type": "function"
    },
    {
      "inputs": [
        {
          "internalType": "uint256",
          "name": "percentage",
          "type": "uint256"
        }
      ],
      "name": "setInterestPortionToLenders",
      "outputs": [],
      "stateMutability": "nonpayable",
      "type": "function"
    },
    {
      "inputs": [
        {
          "internalType": "uint256",
          "name": "min",
          "type": "uint256"
        }
      ],
      "name": "setMinCollateralPoolLiquidity",
      "outputs": [],
      "stateMutability": "nonpayable",
      "type": "function"
    },
    {
      "inputs": [
        {
          "internalType": "uint256",
          "name": "size",
          "type": "uint256"
        }
      ],
      "name": "setMinPositionSize",
      "outputs": [],
      "stateMutability": "nonpayable",
      "type": "function"
    },
    {
      "inputs": [
        {
          "internalType": "uint256",
          "name": "min",
          "type": "uint256"
        }
      ],
      "name": "setMinTotalReferencePoolLiquidity",
      "outputs": [],
      "stateMutability": "nonpayable",
      "type": "function"
    },
    {
      "inputs": [
        {
          "internalType": "uint32",
          "name": "duration",
          "type": "uint32"
        }
      ],
      "name": "setTwapDuration",
      "outputs": [],
      "stateMutability": "nonpayable",
      "type": "function"
    },
    {
      "inputs": [],
      "name": "stop",
      "outputs": [],
      "stateMutability": "nonpayable",
      "type": "function"
    },
    {
      "inputs": [],
      "name": "stopped",
      "outputs": [
        {
          "internalType": "bool",
          "name": "",
          "type": "bool"
        }
      ],
      "stateMutability": "view",
      "type": "function"
    },
    {
      "inputs": [
        {
          "internalType": "uint64",
          "name": "positionID",
          "type": "uint64"
        }
      ],
      "name": "systemGetUpdatedPosition",
      "outputs": [
        {
          "components": [
            {
              "internalType": "uint256",
              "name": "startCumulativeDebt",
              "type": "uint256"
            },
            {
              "internalType": "uint256",
              "name": "collateral",
              "type": "uint256"
            },
            {
              "internalType": "uint256",
              "name": "debt",
              "type": "uint256"
            },
            {
              "internalType": "uint256",
              "name": "startDebtExchangeRate",
              "type": "uint256"
            },
            {
              "internalType": "uint256",
              "name": "startTCPRewards",
              "type": "uint256"
            },
            {
              "internalType": "uint64",
              "name": "lastTimeUpdated",
              "type": "uint64"
            },
            {
              "internalType": "uint64",
              "name": "lastBorrowTime",
              "type": "uint64"
            },
            {
              "internalType": "int24",
              "name": "tick",
              "type": "int24"
            },
            {
              "internalType": "bool",
              "name": "tickSet",
              "type": "bool"
            },
            {
              "internalType": "uint64",
              "name": "tickIndex",
              "type": "uint64"
            }
          ],
          "internalType": "struct IAccounting.DebtPosition",
          "name": "",
          "type": "tuple"
        }
      ],
      "stateMutability": "nonpayable",
      "type": "function"
    },
    {
      "inputs": [],
      "name": "twapDuration",
      "outputs": [
        {
          "internalType": "uint32",
          "name": "",
          "type": "uint32"
        }
      ],
      "stateMutability": "view",
      "type": "function"
    },
    {
      "inputs": [
        {
          "components": [
            {
              "internalType": "uint256",
              "name": "startCumulativeDebt",
              "type": "uint256"
            },
            {
              "internalType": "uint256",
              "name": "collateral",
              "type": "uint256"
            },
            {
              "internalType": "uint256",
              "name": "debt",
              "type": "uint256"
            },
            {
              "internalType": "uint256",
              "name": "startDebtExchangeRate",
              "type": "uint256"
            },
            {
              "internalType": "uint256",
              "name": "startTCPRewards",
              "type": "uint256"
            },
            {
              "internalType": "uint64",
              "name": "lastTimeUpdated",
              "type": "uint64"
            },
            {
              "internalType": "uint64",
              "name": "lastBorrowTime",
              "type": "uint64"
            },
            {
              "internalType": "int24",
              "name": "tick",
              "type": "int24"
            },
            {
              "internalType": "bool",
              "name": "tickSet",
              "type": "bool"
            },
            {
              "internalType": "uint64",
              "name": "tickIndex",
              "type": "uint64"
            }
          ],
          "internalType": "struct IAccounting.DebtPosition",
          "name": "_position",
          "type": "tuple"
        },
        {
          "components": [
            {
              "internalType": "uint256",
              "name": "debt",
              "type": "uint256"
            },
            {
              "internalType": "uint256",
              "name": "totalTCPRewards",
              "type": "uint256"
            },
            {
              "internalType": "uint256",
              "name": "cumulativeDebt",
              "type": "uint256"
            },
            {
              "internalType": "uint256",
              "name": "debtExchangeRate",
              "type": "uint256"
            }
          ],
          "internalType": "struct IAccounting.SystemDebtInfo",
          "name": "sdi",
          "type": "tuple"
        },
        {
          "internalType": "uint64",
          "name": "timeNow",
          "type": "uint64"
        }
      ],
      "name": "updatePositionImpl",
      "outputs": [
        {
          "components": [
            {
              "internalType": "uint256",
              "name": "startCumulativeDebt",
              "type": "uint256"
            },
            {
              "internalType": "uint256",
              "name": "collateral",
              "type": "uint256"
            },
            {
              "internalType": "uint256",
              "name": "debt",
              "type": "uint256"
            },
            {
              "internalType": "uint256",
              "name": "startDebtExchangeRate",
              "type": "uint256"
            },
            {
              "internalType": "uint256",
              "name": "startTCPRewards",
              "type": "uint256"
            },
            {
              "internalType": "uint64",
              "name": "lastTimeUpdated",
              "type": "uint64"
            },
            {
              "internalType": "uint64",
              "name": "lastBorrowTime",
              "type": "uint64"
            },
            {
              "internalType": "int24",
              "name": "tick",
              "type": "int24"
            },
            {
              "internalType": "bool",
              "name": "tickSet",
              "type": "bool"
            },
            {
              "internalType": "uint64",
              "name": "tickIndex",
              "type": "uint64"
            }
          ],
          "internalType": "struct IAccounting.DebtPosition",
          "name": "position",
          "type": "tuple"
        },
        {
          "internalType": "uint256",
          "name": "rewards",
          "type": "uint256"
        }
      ],
      "stateMutability": "pure",
      "type": "function"
    },
    {
      "inputs": [
        {
          "internalType": "bytes4",
          "name": "",
          "type": "bytes4"
        }
      ],
      "name": "validUpdate",
      "outputs": [
        {
          "internalType": "bool",
          "name": "",
          "type": "bool"
        }
      ],
      "stateMutability": "view",
      "type": "function"
    }
  ],
  "bytecode": "0x60c0604052600160066000509090556702c68af0bb14000060076000509090556702c68af0bb14000060086000509090556714d1120d7b160000600960005090905568878678326eac900000600a6000509090556702c68af0bb140000600b600050909055610e10600c60146101000a81548163ffffffff021916908363ffffffff160217905550348015620000955760006000fd5b505b610e105b5b33600160006101000a81548173ffffffffffffffffffffffffffffffffffffffff021916908373ffffffffffffffffffffffffffffffffffffffff1602179055505b60018167ffffffffffffffff16620000fb6200015d60201b60201c565b67ffffffffffffffff168115156200010f57fe5b040367ffffffffffffffff1660a08167ffffffffffffffff1660c01b815260080150508067ffffffffffffffff1660808167ffffffffffffffff1660c01b815260080150505b505b62000213565b600062000177426200017f60201b6200260f17909060201c565b905080505b90565b6000680100000000000000008210151562000205576040517f08c379a00000000000000000000000000000000000000000000000000000000081526004018080602001828103825260118152602001807f6d6f7265207468616e203634206269747300000000000000000000000000000081526020015060200191505060405180910390fd5b8190506200020e565b919050565b60805160c01c60a05160c01c616db86200025160003980611f9d52806126a55280614f24525080611fc152806126c65280614f455250616db86000f3fe6080604052600436106102535760003560e01c8063a76e2ca511610138578063c4e3a63b116100b0578063e6e40afd1161007f578063ef5e1cac11610064578063ef5e1cac146107f8578063f6979f2914610822578063fcd659451461084e57610253565b8063e6e40afd14610790578063eb6843ce146107ba57610253565b8063c4e3a63b146106e2578063d2ca21151461070e578063d4477a3e1461073a578063d5f394881461076457610253565b8063bccfa49e11610107578063c381c1e6116100ec578063c381c1e61461064f578063c433c80a14610679578063c4c36223146106a357610253565b8063bccfa49e146105f9578063c2765fd81461062357610253565b8063a76e2ca514610547578063ade89a6414610571578063b6ae213a146105a1578063bb8313c2146105cd57610253565b806353bb670c116101cb57806375f12b211161019a57806384333cc71161017f57806384333cc7146104d95780638aea8f7114610517578063a6afed951461052f57610253565b806375f12b211461047d57806383730cc3146104a957610253565b806353bb670c146103ef5780635658c0121461040b5780635a6127a91461043757806367fd32131461046157610253565b8063113cf1ab1161022257806319ab453c1161020757806319ab453c1461035b57806326d89545146103855780634ff34aca146103b157610253565b8063113cf1ab146102f3578063150147d71461033157610253565b8063060406181461025957806306972dcd1461028557806307da68f5146102af5780630c340a24146102c757610253565b60006000fd5b3480156102665760006000fd5b5061026f61087a565b60405161027c9190616c50565b60405180910390f35b3480156102925760006000fd5b506102ad60048036038101906102a891906160ba565b610892565b005b3480156102bc5760006000fd5b506102c56108fc565b005b3480156102d45760006000fd5b506102dd61091c565b6040516102ea91906165f3565b60405180910390f35b3480156103005760006000fd5b5061031b60048036038101906103169190615c71565b610942565b60405161032891906165df565b60405180910390f35b34801561033e5760006000fd5b5061035960048036038101906103549190615dcf565b610967565b005b3480156103685760006000fd5b50610383600480360381019061037e9190615ce5565b610a85565b005b3480156103925760006000fd5b5061039b610e43565b6040516103a89190616c20565b60405180910390f35b3480156103be5760006000fd5b506103d960048036038101906103d4919061604d565b610e59565b6040516103e69190616b4d565b60405180910390f35b61040960048036038101906104049190616171565b610e86565b005b3480156104185760006000fd5b5061042161113d565b60405161042e9190616bf5565b60405180910390f35b3480156104445760006000fd5b5061045f600480360381019061045a91906160ba565b611146565b005b61047b600480360381019061047691906161ab565b6111cd565b005b34801561048a5760006000fd5b50610493611483565b6040516104a091906165df565b60405180910390f35b6104c360048036038101906104be91906160ba565b611496565b6040516104d09190616c50565b60405180910390f35b3480156104e65760006000fd5b5061050160048036038101906104fc91906160ba565b6115cf565b60405161050e919061661b565b60405180910390f35b3480156105245760006000fd5b5061052d611615565b005b34801561053c5760006000fd5b506105456117d7565b005b3480156105545760006000fd5b5061056f600480360381019061056a9190616123565b611805565b005b61058b60048036038101906105869190615fd2565b611a49565b6040516105989190616c50565b60405180910390f35b3480156105ae5760006000fd5b506105b7611d08565b6040516105c49190616c50565b60405180910390f35b3480156105da5760006000fd5b506105e3611d22565b6040516105f09190616bf5565b60405180910390f35b3480156106065760006000fd5b50610621600480360381019061061c91906160ba565b611d2b565b005b3480156106305760006000fd5b50610639611db1565b6040516106469190616bf5565b60405180910390f35b34801561065c5760006000fd5b5061067760048036038101906106729190615dcf565b611dba565b005b3480156106865760006000fd5b506106a1600480360381019061069c91906160f2565b611ed8565b005b3480156106b05760006000fd5b506106cb60048036038101906106c69190615ef2565b611f6f565b6040516106d9929190616ba2565b60405180910390f35b3480156106ef5760006000fd5b506106f8611f9b565b6040516107059190616c50565b60405180910390f35b34801561071b5760006000fd5b50610724611fbf565b6040516107319190616c50565b60405180910390f35b3480156107475760006000fd5b50610762600480360381019061075d91906160ba565b611fe3565b005b3480156107715760006000fd5b5061077a612069565b6040516107879190616446565b60405180910390f35b34801561079d5760006000fd5b506107b860048036038101906107b39190616123565b61208f565b005b3480156107c75760006000fd5b506107e260048036038101906107dd9190616123565b6123f6565b6040516107ef9190616b88565b60405180910390f35b3480156108055760006000fd5b50610820600480360381019061081b91906160ba565b61257b565b005b34801561082f5760006000fd5b506108386125fd565b6040516108459190616bf5565b60405180910390f35b34801561085b5760006000fd5b50610864612606565b6040516108719190616bf5565b60405180910390f35b600061088a6126a163ffffffff16565b905080505b90565b6108a061271a63ffffffff16565b80600a6000508190909055506040516108b8906162be565b60405180910390207f3a64504f0bc0c335e2aecb78638a257e0351a3fe0370861fd54ee4190b920933826040516108ef9190616bf5565b60405180910390a25b5b50565b61090a61271a63ffffffff16565b6109186127af63ffffffff16565b5b5b565b600060009054906101000a900473ffffffffffffffffffffffffffffffffffffffff1681565b600560005060205280600052604060002060009150909054906101000a900460ff1681565b61097561271a63ffffffff16565b600060009054906101000a900473ffffffffffffffffffffffffffffffffffffffff1673ffffffffffffffffffffffffffffffffffffffff1663ab658be26040518163ffffffff1660e01b815260040160006040518083038186803b1580156109de5760006000fd5b505afa1580156109f3573d600060003e3d6000fd5b505050506040513d6000823e3d601f19601f82011682018060405250810190610a1c9190615b91565b600e6000509080519060200190610a34929190615930565b50604051610a41906163b3565b60405180910390207f78caada2f560033c9479d8c5e33f045f2e611faebe6b6d8a73874c80ec2dd3a282604051610a789190616446565b60405180910390a25b5b50565b600160009054906101000a900473ffffffffffffffffffffffffffffffffffffffff1673ffffffffffffffffffffffffffffffffffffffff163373ffffffffffffffffffffffffffffffffffffffff16141515610ae25760006000fd5b600160006101000a81549073ffffffffffffffffffffffffffffffffffffffff021916905580600060006101000a81548173ffffffffffffffffffffffffffffffffffffffff021916908373ffffffffffffffffffffffffffffffffffffffff160217905550600060009054906101000a900473ffffffffffffffffffffffffffffffffffffffff1673ffffffffffffffffffffffffffffffffffffffff16639624e83e6040518163ffffffff1660e01b815260040160206040518083038186803b158015610bb15760006000fd5b505afa158015610bc6573d600060003e3d6000fd5b505050506040513d601f19601f82011682018060405250810190610bea9190615cbe565b600260006101000a81548173ffffffffffffffffffffffffffffffffffffffff021916908373ffffffffffffffffffffffffffffffffffffffff160217905550600060009054906101000a900473ffffffffffffffffffffffffffffffffffffffff1673ffffffffffffffffffffffffffffffffffffffff16638a15fcf36040518163ffffffff1660e01b815260040160206040518083038186803b158015610c935760006000fd5b505afa158015610ca8573d600060003e3d6000fd5b505050506040513d601f19601f82011682018060405250810190610ccc9190615e1d565b600360006101000a81548173ffffffffffffffffffffffffffffffffffffffff021916908373ffffffffffffffffffffffffffffffffffffffff160217905550600060009054906101000a900473ffffffffffffffffffffffffffffffffffffffff1673ffffffffffffffffffffffffffffffffffffffff1663d478b0876040518163ffffffff1660e01b815260040160206040518083038186803b158015610d755760006000fd5b505afa158015610d8a573d600060003e3d6000fd5b505050506040513d601f19601f82011682018060405250810190610dae9190615d5a565b600460006101000a81548173ffffffffffffffffffffffffffffffffffffffff021916908373ffffffffffffffffffffffffffffffffffffffff160217905550610dfc6127f963ffffffff16565b8073ffffffffffffffffffffffffffffffffffffffff167f908408e307fc569b417f6cbec5d5a06f44a0a505ac0479b47d421a4b2fd6a1e660405160405180910390a25b50565b600c60149054906101000a900463ffffffff1681565b610e616159ba565b610e75878787878787612ce663ffffffff16565b9050610e7c565b9695505050505050565b610e94612ed463ffffffff16565b610ea2612fb363ffffffff16565b6002600060009054906101000a900473ffffffffffffffffffffffffffffffffffffffff1673ffffffffffffffffffffffffffffffffffffffff1663055ad42e6040518163ffffffff1660e01b815260040160206040518083038186803b158015610f0d5760006000fd5b505afa158015610f22573d600060003e3d6000fd5b505050506040513d601f19601f82011682018060405250810190610f4691906161dc565b60ff168160ff1611151515610f90576040517f08c379a0000000000000000000000000000000000000000000000000000000008152600401610f8790616a51565b60405180910390fd5b61104d600c60009054906101000a900473ffffffffffffffffffffffffffffffffffffffff1673ffffffffffffffffffffffffffffffffffffffff1663430c208133876040518363ffffffff1660e01b8152600401610ff0929190616577565b60206040518083038186803b1580156110095760006000fd5b505afa15801561101e573d600060003e3d6000fd5b505050506040513d601f19601f820116820180604052508101906110429190615c4a565b6130ec63ffffffff16565b6111256111178567ffffffffffffffff16600260009054906101000a900473ffffffffffffffffffffffffffffffffffffffff1673ffffffffffffffffffffffffffffffffffffffff16630f85fc5a886040518263ffffffff1660e01b81526004016110b99190616c50565b6101406040518083038186803b1580156110d35760006000fd5b505afa1580156110e8573d600060003e3d6000fd5b505050506040513d601f19601f8201168201806040525081019061110c9190615e44565b61313263ffffffff16565b8585856134bf63ffffffff16565b5b5b505b611137613cfd63ffffffff16565b5b505050565b60096000505481565b61115461271a63ffffffff16565b80600b600050819090905550670de0b6b3a7640000600b600050541115151561117d5760006000fd5b604051611189906163e4565b60405180910390207f3a64504f0bc0c335e2aecb78638a257e0351a3fe0370861fd54ee4190b920933826040516111c09190616bf5565b60405180910390a25b5b50565b6111db612ed463ffffffff16565b6111e9612fb363ffffffff16565b60028060ff16600060009054906101000a900473ffffffffffffffffffffffffffffffffffffffff1673ffffffffffffffffffffffffffffffffffffffff1663055ad42e6040518163ffffffff1660e01b815260040160206040518083038186803b1580156112585760006000fd5b505afa15801561126d573d600060003e3d6000fd5b505050506040513d601f19601f8201168201806040525081019061129191906161dc565b60ff161015156112d6576040517f08c379a00000000000000000000000000000000000000000000000000000000081526004016112cd90616776565b60405180910390fd5b611393600c60009054906101000a900473ffffffffffffffffffffffffffffffffffffffff1673ffffffffffffffffffffffffffffffffffffffff1663430c208133866040518363ffffffff1660e01b8152600401611336929190616577565b60206040518083038186803b15801561134f5760006000fd5b505afa158015611364573d600060003e3d6000fd5b505050506040513d601f19601f820116820180604052508101906113889190615c4a565b6130ec63ffffffff16565b61146c61145d8467ffffffffffffffff16600260009054906101000a900473ffffffffffffffffffffffffffffffffffffffff1673ffffffffffffffffffffffffffffffffffffffff16630f85fc5a876040518263ffffffff1660e01b81526004016113ff9190616c50565b6101406040518083038186803b1580156114195760006000fd5b505afa15801561142e573d600060003e3d6000fd5b505050506040513d601f19601f820116820180604052508101906114529190615e44565b61313263ffffffff16565b846000856134bf63ffffffff16565b5b5b505b61147e613cfd63ffffffff16565b5b5050565b600060149054906101000a900460ff1681565b60006114a6612ed463ffffffff16565b6114b4612fb363ffffffff16565b6002600060009054906101000a900473ffffffffffffffffffffffffffffffffffffffff1673ffffffffffffffffffffffffffffffffffffffff1663055ad42e6040518163ffffffff1660e01b815260040160206040518083038186803b15801561151f5760006000fd5b505afa158015611534573d600060003e3d6000fd5b505050506040513d601f19601f8201168201806040525081019061155891906161dc565b60ff168160ff16111515156115a2576040517f08c379a000000000000000000000000000000000000000000000000000000000815260040161159990616a51565b60405180910390fd5b6115b183613d9163ffffffff16565b91506115b8565b5b505b6115c9613cfd63ffffffff16565b5b919050565b600e60005081815481106115e257600080fd5b906000526020600020900160005b9150909054906101000a900473ffffffffffffffffffffffffffffffffffffffff1681565b61162361271a63ffffffff16565b600060009054906101000a900473ffffffffffffffffffffffffffffffffffffffff1673ffffffffffffffffffffffffffffffffffffffff1663ff0eccf66040518163ffffffff1660e01b815260040160206040518083038186803b15801561168c5760006000fd5b505afa1580156116a1573d600060003e3d6000fd5b505050506040513d601f19601f820116820180604052508101906116c59190615df6565b600d60006101000a81548173ffffffffffffffffffffffffffffffffffffffff021916908373ffffffffffffffffffffffffffffffffffffffff160217905550600060009054906101000a900473ffffffffffffffffffffffffffffffffffffffff1673ffffffffffffffffffffffffffffffffffffffff1663ab658be26040518163ffffffff1660e01b815260040160006040518083038186803b15801561176e5760006000fd5b505afa158015611783573d600060003e3d6000fd5b505050506040513d6000823e3d601f19601f820116820180604052508101906117ac9190615b91565b600e60005090805190602001906117c4929190615930565b506117d3613f2463ffffffff16565b5b5b565b6117e561490363ffffffff16565b6117f3613f2463ffffffff16565b5b61180261495e63ffffffff16565b5b565b611813612ed463ffffffff16565b61182161496e63ffffffff16565b6118de600c60009054906101000a900473ffffffffffffffffffffffffffffffffffffffff1673ffffffffffffffffffffffffffffffffffffffff1663430c208133846040518363ffffffff1660e01b8152600401611881929190616577565b60206040518083038186803b15801561189a5760006000fd5b505afa1580156118af573d600060003e3d6000fd5b505050506040513d601f19601f820116820180604052508101906118d39190615c4a565b6130ec63ffffffff16565b600260009054906101000a900473ffffffffffffffffffffffffffffffffffffffff1673ffffffffffffffffffffffffffffffffffffffff1663f94fffb1826119e48467ffffffffffffffff16600260009054906101000a900473ffffffffffffffffffffffffffffffffffffffff1673ffffffffffffffffffffffffffffffffffffffff16630f85fc5a876040518263ffffffff1660e01b81526004016119869190616c50565b6101406040518083038186803b1580156119a05760006000fd5b505afa1580156119b5573d600060003e3d6000fd5b505050506040513d601f19601f820116820180604052508101906119d99190615e44565b61313263ffffffff16565b6040518363ffffffff1660e01b8152600401611a01929190616c6c565b600060405180830381600087803b158015611a1c5760006000fd5b505af1158015611a31573d600060003e3d6000fd5b505050505b5b611a45613cfd63ffffffff16565b5b50565b6000611a59612ed463ffffffff16565b611a67612fb363ffffffff16565b600060009054906101000a900473ffffffffffffffffffffffffffffffffffffffff1673ffffffffffffffffffffffffffffffffffffffff1663fa117b4d33846040518363ffffffff1660e01b8152600401611ac49291906164c7565b60206040518083038186803b158015611add5760006000fd5b505afa158015611af2573d600060003e3d6000fd5b505050506040513d601f19601f82011682018060405250810190611b169190615c4a565b1515611b57576040517f08c379a0000000000000000000000000000000000000000000000000000000008152600401611b4e9061696e565b60405180910390fd5b600260009054906101000a900473ffffffffffffffffffffffffffffffffffffffff1673ffffffffffffffffffffffffffffffffffffffff1663afd7c0f2336040518263ffffffff1660e01b8152600401611bb2919061646e565b60206040518083038186803b158015611bcb5760006000fd5b505afa158015611be0573d600060003e3d6000fd5b505050506040513d601f19601f82011682018060405250810190611c049190615c4a565b151515611c46576040517f08c379a0000000000000000000000000000000000000000000000000000000008152600401611c3d906167b5565b60405180910390fd5b600260009054906101000a900473ffffffffffffffffffffffffffffffffffffffff1673ffffffffffffffffffffffffffffffffffffffff1663345750e73360016040518363ffffffff1660e01b8152600401611ca4929190616496565b600060405180830381600087803b158015611cbf5760006000fd5b505af1158015611cd4573d600060003e3d6000fd5b50505050611cec600a60005054613d9163ffffffff16565b9050611cf3565b5b611d02613cfd63ffffffff16565b5b919050565b600c60189054906101000a900467ffffffffffffffff1681565b600a6000505481565b611d3961271a63ffffffff16565b8060076000508190909055506706f05b59d3b20000600760005054101515611d615760006000fd5b604051611d6d90616320565b60405180910390207f3a64504f0bc0c335e2aecb78638a257e0351a3fe0370861fd54ee4190b92093382604051611da49190616bf5565b60405180910390a25b5b50565b60086000505481565b611dc861271a63ffffffff16565b600060009054906101000a900473ffffffffffffffffffffffffffffffffffffffff1673ffffffffffffffffffffffffffffffffffffffff1663ab658be26040518163ffffffff1660e01b815260040160006040518083038186803b158015611e315760006000fd5b505afa158015611e46573d600060003e3d6000fd5b505050506040513d6000823e3d601f19601f82011682018060405250810190611e6f9190615b91565b600e6000509080519060200190611e87929190615930565b50604051611e9490616415565b60405180910390207f78caada2f560033c9479d8c5e33f045f2e611faebe6b6d8a73874c80ec2dd3a282604051611ecb9190616446565b60405180910390a25b5b50565b611ee661271a63ffffffff16565b61012c8163ffffffff1610151515611efe5760006000fd5b80600c60146101000a81548163ffffffff021916908363ffffffff160217905550604051611f2b90616351565b60405180910390207f6293347933ad2997134e224ac8cd2e39908a4a22aeed9af52127b4bbf765297882604051611f629190616c38565b60405180910390a25b5b50565b611f776159ec565b6000611f8a8585856149c363ffffffff16565b80925081935050505b935093915050565b7f000000000000000000000000000000000000000000000000000000000000000081565b7f000000000000000000000000000000000000000000000000000000000000000081565b611ff161271a63ffffffff16565b8060086000508190909055506706f05b59d3b200006008600050541015156120195760006000fd5b604051612025906162ef565b60405180910390207f3a64504f0bc0c335e2aecb78638a257e0351a3fe0370861fd54ee4190b9209338260405161205c9190616bf5565b60405180910390a25b5b50565b600160009054906101000a900473ffffffffffffffffffffffffffffffffffffffff1681565b61209d612ed463ffffffff16565b6120ab612fb363ffffffff16565b60028060ff16600060009054906101000a900473ffffffffffffffffffffffffffffffffffffffff1673ffffffffffffffffffffffffffffffffffffffff1663055ad42e6040518163ffffffff1660e01b815260040160206040518083038186803b15801561211a5760006000fd5b505afa15801561212f573d600060003e3d6000fd5b505050506040513d601f19601f8201168201806040525081019061215391906161dc565b60ff16101515612198576040517f08c379a000000000000000000000000000000000000000000000000000000000815260040161218f90616776565b60405180910390fd5b612255600c60009054906101000a900473ffffffffffffffffffffffffffffffffffffffff1673ffffffffffffffffffffffffffffffffffffffff1663430c208133856040518363ffffffff1660e01b81526004016121f8929190616577565b60206040518083038186803b1580156122115760006000fd5b505afa158015612226573d600060003e3d6000fd5b505050506040513d601f19601f8201168201806040525081019061224a9190615c4a565b6130ec63ffffffff16565b600061231e8367ffffffffffffffff16600260009054906101000a900473ffffffffffffffffffffffffffffffffffffffff1673ffffffffffffffffffffffffffffffffffffffff16630f85fc5a866040518263ffffffff1660e01b81526004016122c09190616c50565b6101406040518083038186803b1580156122da5760006000fd5b505afa1580156122ef573d600060003e3d6000fd5b505050506040513d601f19601f820116820180604052508101906123139190615e44565b61313263ffffffff16565b9050600260009054906101000a900473ffffffffffffffffffffffffffffffffffffffff1673ffffffffffffffffffffffffffffffffffffffff1663345750e73360006040518363ffffffff1660e01b815260040161237e929190616496565b600060405180830381600087803b1580156123995760006000fd5b505af11580156123ae573d600060003e3d6000fd5b505050506123df81846123cc8460400151614b29909063ffffffff16565b60000384602001516134bf63ffffffff16565b505b5b505b6123f2613cfd63ffffffff16565b5b50565b6123fe6159ec565b61240c61490363ffffffff16565b600060009054906101000a900473ffffffffffffffffffffffffffffffffffffffff1673ffffffffffffffffffffffffffffffffffffffff16639622cd8f336040518263ffffffff1660e01b8152600401612467919061646e565b60006040518083038186803b1580156124805760006000fd5b505afa158015612495573d600060003e3d6000fd5b505050506125608267ffffffffffffffff16600260009054906101000a900473ffffffffffffffffffffffffffffffffffffffff1673ffffffffffffffffffffffffffffffffffffffff16630f85fc5a856040518263ffffffff1660e01b81526004016125029190616c50565b6101406040518083038186803b15801561251c5760006000fd5b505afa158015612531573d600060003e3d6000fd5b505050506040513d601f19601f820116820180604052508101906125559190615e44565b61313263ffffffff16565b9050612567565b61257561495e63ffffffff16565b5b919050565b61258961271a63ffffffff16565b806009600050819090905550670de0b6b3a764000081101515156125ad5760006000fd5b6040516125b990616382565b60405180910390207f3a64504f0bc0c335e2aecb78638a257e0351a3fe0370861fd54ee4190b920933826040516125f09190616bf5565b60405180910390a25b5b50565b600b6000505481565b60076000505481565b60006801000000000000000082101515612694576040517f08c379a00000000000000000000000000000000000000000000000000000000081526004018080602001828103825260118152602001807f6d6f7265207468616e203634206269747300000000000000000000000000000081526020015060200191505060405180910390fd5b81905061269c565b919050565b60007f00000000000000000000000000000000000000000000000000000000000000007f000000000000000000000000000000000000000000000000000000000000000067ffffffffffffffff166126fd614bd263ffffffff16565b67ffffffffffffffff1681151561271057fe5b0403905080505b90565b600060009054906101000a900473ffffffffffffffffffffffffffffffffffffffff1673ffffffffffffffffffffffffffffffffffffffff163373ffffffffffffffffffffffffffffffffffffffff161415156127ac576040517f08c379a00000000000000000000000000000000000000000000000000000000081526004016127a390616833565b60405180910390fd5b5b565b6001600060146101000a81548160ff0219169083151502179055507f7acc84e34091ae817647a4c49116f5cc07f319078ba80f8f5fde37ea7e25cbd660405160405180910390a15b565b600060009054906101000a900473ffffffffffffffffffffffffffffffffffffffff1673ffffffffffffffffffffffffffffffffffffffff1663e3f3522c6040518163ffffffff1660e01b815260040160206040518083038186803b1580156128625760006000fd5b505afa158015612877573d600060003e3d6000fd5b505050506040513d601f19601f8201168201806040525081019061289b9190615d0c565b600c60006101000a81548173ffffffffffffffffffffffffffffffffffffffff021916908373ffffffffffffffffffffffffffffffffffffffff1602179055506000600c60009054906101000a900473ffffffffffffffffffffffffffffffffffffffff1673ffffffffffffffffffffffffffffffffffffffff1663755edd17600260009054906101000a900473ffffffffffffffffffffffffffffffffffffffff166040518263ffffffff1660e01b815260040161295a9190616446565b602060405180830381600087803b1580156129755760006000fd5b505af115801561298a573d600060003e3d6000fd5b505050506040513d601f19601f820116820180604052508101906129ae919061614a565b67ffffffffffffffff161415156129c55760006000fd5b6129cd6159ec565b600260009054906101000a900473ffffffffffffffffffffffffffffffffffffffff1673ffffffffffffffffffffffffffffffffffffffff1663f94fffb16000612a1e60008561313263ffffffff16565b6040518363ffffffff1660e01b8152600401612a3b9291906166cd565b600060405180830381600087803b158015612a565760006000fd5b505af1158015612a6b573d600060003e3d6000fd5b5050505060006040518060c0016040528063bccfa49e60e01b7bffffffffffffffffffffffffffffffffffffffffffffffffffffffff19167bffffffffffffffffffffffffffffffffffffffffffffffffffffffff1916815260200163d4477a3e60e01b7bffffffffffffffffffffffffffffffffffffffffffffffffffffffff19167bffffffffffffffffffffffffffffffffffffffffffffffffffffffff1916815260200163ef5e1cac60e01b7bffffffffffffffffffffffffffffffffffffffffffffffffffffffff19167bffffffffffffffffffffffffffffffffffffffffffffffffffffffff1916815260200163c433c80a60e01b7bffffffffffffffffffffffffffffffffffffffffffffffffffffffff19167bffffffffffffffffffffffffffffffffffffffffffffffffffffffff191681526020016306972dcd60e01b7bffffffffffffffffffffffffffffffffffffffffffffffffffffffff19167bffffffffffffffffffffffffffffffffffffffffffffffffffffffff19168152602001635a6127a960e01b7bffffffffffffffffffffffffffffffffffffffffffffffffffffffff19167bffffffffffffffffffffffffffffffffffffffffffffffffffffffff191681526020015090506000600090505b81506006811015612ce0576001600560005060008484600681101515612c6a57fe5b60200201517bffffffffffffffffffffffffffffffffffffffffffffffffffffffff19167bffffffffffffffffffffffffffffffffffffffffffffffffffffffff1916815260200190815260200160002060006101000a81548160ff0219169083151502179055505b8080600101915050612c48565b5050505b565b612cee6159ba565b6000851415612d25578660000151816000019090818152602001505086606001518160200190908181526020015050809050612eca565b6000612d6b8767ffffffffffffffff16610e1067ffffffffffffffff166301e13380811515612d5057fe5b0467ffffffffffffffff1688614bed9092919063ffffffff16565b9050600085612d9457612d8f82670de0b6b3a7640000614cee90919063ffffffff16565b612db0565b612daf82670de0b6b3a7640000614d7790919063ffffffff16565b5b9050612dc9818a60600151614e0090919063ffffffff16565b8360200190908181526020015050612df883602001518a606001518b60000151614bed9092919063ffffffff16565b8360000190908181526020015050886000015183600001511115612e6157600089600001518460000151039050612e388582614e0090919063ffffffff16565b846060019090818152602001505083606001518103846040019090818152602001505050612ec7565b886000015183600001511015612ec657600083600001518a600001510390508581101515612eb4578960000151846000019090818152602001505089606001518460200190908181526020015050612ec4565b8084608001909081815260200150505b505b5b50505b9695505050505050565b600460009054906101000a900473ffffffffffffffffffffffffffffffffffffffff1673ffffffffffffffffffffffffffffffffffffffff1663e97dcb626040518163ffffffff1660e01b8152600401600060405180830381600087803b158015612f3f5760006000fd5b505af1158015612f54573d600060003e3d6000fd5b50505050600260066000505414151515612fa3576040517f08c379a0000000000000000000000000000000000000000000000000000000008152600401612f9a906168b1565b60405180910390fd5b600260066000508190909055505b565b600060149054906101000a900460ff16151515613005576040517f08c379a0000000000000000000000000000000000000000000000000000000008152600401612ffc90616acf565b60405180910390fd5b600060009054906101000a900473ffffffffffffffffffffffffffffffffffffffff1673ffffffffffffffffffffffffffffffffffffffff1663bf86d6906040518163ffffffff1660e01b815260040160206040518083038186803b15801561306e5760006000fd5b505afa158015613083573d600060003e3d6000fd5b505050506040513d601f19601f820116820180604052508101906130a79190615c4a565b1515156130e9576040517f08c379a00000000000000000000000000000000000000000000000000000000081526004016130e0906166f8565b60405180910390fd5b5b565b80151561312e576040517f08c379a000000000000000000000000000000000000000000000000000000000815260040161312590616833565b60405180910390fd5b5b50565b61313a6159ec565b600061314a614e2663ffffffff16565b9050600061315d82614f1d63ffffffff16565b9050600060008560a0015167ffffffffffffffff161461318f5761318a8560a00151614f1d63ffffffff16565b613192565b60005b90508067ffffffffffffffff168267ffffffffffffffff161115156131bc578493505050506134b9565b6131ca613f2463ffffffff16565b600061327e86600260009054906101000a900473ffffffffffffffffffffffffffffffffffffffff1673ffffffffffffffffffffffffffffffffffffffff166306ef2d806040518163ffffffff1660e01b815260040160806040518083038186803b1580156132395760006000fd5b505afa15801561324e573d600060003e3d6000fd5b505050506040513d601f19601f820116820180604052508101906132729190615fed565b866149c363ffffffff16565b8092508196505050600081111561346b57600087141561332c57600060009054906101000a900473ffffffffffffffffffffffffffffffffffffffff1673ffffffffffffffffffffffffffffffffffffffff1663c34cdf75826040518263ffffffff1660e01b81526004016132f39190616bf5565b600060405180830381600087803b15801561330e5760006000fd5b505af1158015613323573d600060003e3d6000fd5b5050505061346a565b600060009054906101000a900473ffffffffffffffffffffffffffffffffffffffff1673ffffffffffffffffffffffffffffffffffffffff1663b216cd94600c60009054906101000a900473ffffffffffffffffffffffffffffffffffffffff1673ffffffffffffffffffffffffffffffffffffffff16636352211e8a6040518263ffffffff1660e01b81526004016133c59190616bf5565b60206040518083038186803b1580156133de5760006000fd5b505afa1580156133f3573d600060003e3d6000fd5b505050506040513d601f19601f820116820180604052508101906134179190615b6a565b836040518363ffffffff1660e01b81526004016134359291906165b0565b600060405180830381600087803b1580156134505760006000fd5b505af1158015613465573d600060003e3d6000fd5b505050505b5b8267ffffffffffffffff16877fc99ac0d15229fa72f1b0756c0eed4e7ede3d80f4e4e0d308ce7a56d1366b8a038760400151846040516134ac929190616c07565b60405180910390a3505050505b92915050565b60003490506000811180156134d45750600082115b151515613516576040517f08c379a000000000000000000000000000000000000000000000000000000000815260040161350d906169ad565b60405180910390fd5b600061352982614b29909063ffffffff16565b9050600081141561354d5761354583614b29909063ffffffff16565b600003905080505b60008414158061355e575060008114155b151561359f576040517f08c379a000000000000000000000000000000000000000000000000000000000815260040161359690616872565b60405180910390fd5b60008414151561390f57600084131561376357600084905061367961366e82600260009054906101000a900473ffffffffffffffffffffffffffffffffffffffff1673ffffffffffffffffffffffffffffffffffffffff16630dca59c16040518163ffffffff1660e01b815260040160206040518083038186803b1580156136275760006000fd5b505afa15801561363c573d600060003e3d6000fd5b505050506040513d601f19601f8201168201806040525081019061366091906160d6565b614d7790919063ffffffff16565b614fa563ffffffff16565b613690818860400151614d7790919063ffffffff16565b87604001909081815260200150506136ac614bd263ffffffff16565b8760c0019067ffffffffffffffff16908167ffffffffffffffff1681526020015050600260009054906101000a900473ffffffffffffffffffffffffffffffffffffffff1673ffffffffffffffffffffffffffffffffffffffff16632b7c7b11826040518263ffffffff1660e01b81526004016137299190616bf5565b600060405180830381600087803b1580156137445760006000fd5b505af1158015613759573d600060003e3d6000fd5b505050505061390e565b600086604001511115156137ac576040517f08c379a00000000000000000000000000000000000000000000000000000000081526004016137a390616a90565b60405180910390fd5b6137ba614bd263ffffffff16565b67ffffffffffffffff166137eb610708610e10018860c0015167ffffffffffffffff16614ff990919063ffffffff16565b67ffffffffffffffff16101515613837576040517f08c379a000000000000000000000000000000000000000000000000000000000815260040161382e906167f4565b60405180910390fd5b83600003866040015110156138635761385b8660400151614b29909063ffffffff16565b600003935083505b836000038660400181815103915090908181526020015050600260009054906101000a900473ffffffffffffffffffffffffffffffffffffffff1673ffffffffffffffffffffffffffffffffffffffff16632a7ba1f7856000036040518263ffffffff1660e01b81526004016138d99190616bf5565b600060405180830381600087803b1580156138f45760006000fd5b505af1158015613909573d600060003e3d6000fd5b505050505b5b60008114151561397657600081131561394c57613939818760200151614d7790919063ffffffff16565b8660200190908181526020015050613975565b613966816000038760200151614cee90919063ffffffff16565b86602001909081815260200150505b5b60008660400151141515613a0057600a600050548660400151101515156139d2576040517f08c379a00000000000000000000000000000000000000000000000000000000081526004016139c990616a12565b60405180910390fd5b60008112806139e15750600084135b156139ff576139fe8660400151876020015161509663ffffffff16565b5b5b600260009054906101000a900473ffffffffffffffffffffffffffffffffffffffff1673ffffffffffffffffffffffffffffffffffffffff1663f94fffb186886040518363ffffffff1660e01b8152600401613a5d929190616c6c565b600060405180830381600087803b158015613a785760006000fd5b505af1158015613a8d573d600060003e3d6000fd5b50505050600084141515613bd0576000841315613b3a57600360009054906101000a900473ffffffffffffffffffffffffffffffffffffffff1673ffffffffffffffffffffffffffffffffffffffff1663449a52f833866040518363ffffffff1660e01b8152600401613b01929190616548565b600060405180830381600087803b158015613b1c5760006000fd5b505af1158015613b31573d600060003e3d6000fd5b50505050613bcf565b600360009054906101000a900473ffffffffffffffffffffffffffffffffffffffff1673ffffffffffffffffffffffffffffffffffffffff166379cc679033866000036040518363ffffffff1660e01b8152600401613b9a929190616548565b600060405180830381600087803b158015613bb55760006000fd5b505af1158015613bca573d600060003e3d6000fd5b505050505b5b600081141515613cb0576000811315613c1a57613c15600260009054906101000a900473ffffffffffffffffffffffffffffffffffffffff16826152b163ffffffff16565b613caf565b600260009054906101000a900473ffffffffffffffffffffffffffffffffffffffff1673ffffffffffffffffffffffffffffffffffffffff16636250216933836000036040518363ffffffff1660e01b8152600401613c7a929190616519565b600060405180830381600087803b158015613c955760006000fd5b505af1158015613caa573d600060003e3d6000fd5b505050505b5b8467ffffffffffffffff167f0ed8d38fcfdb338f760ae5cf4b84f9ade387db12ea673e89e8da1b25857cc1c18583604051613cec9291906166b4565b60405180910390a250505b50505050565b60016006600050819090905550600460009054906101000a900473ffffffffffffffffffffffffffffffffffffffff1673ffffffffffffffffffffffffffffffffffffffff1663e9fad8ee6040518163ffffffff1660e01b8152600401600060405180830381600087803b158015613d755760006000fd5b505af1158015613d8a573d600060003e3d6000fd5b505050505b565b6000600034111515613dd8576040517f08c379a0000000000000000000000000000000000000000000000000000000008152600401613dcf906168f0565b60405180910390fd5b600c60009054906101000a900473ffffffffffffffffffffffffffffffffffffffff1673ffffffffffffffffffffffffffffffffffffffff1663755edd17336040518263ffffffff1660e01b8152600401613e33919061646e565b602060405180830381600087803b158015613e4e5760006000fd5b505af1158015613e63573d600060003e3d6000fd5b505050506040513d601f19601f82011682018060405250810190613e87919061614a565b90508050613e936159ec565b613ecf613eb08367ffffffffffffffff168361313263ffffffff16565b83613ec286614b29909063ffffffff16565b60006134bf63ffffffff16565b8167ffffffffffffffff163373ffffffffffffffffffffffffffffffffffffffff167f5e61a417c052598d1a3e26d3d81c42d9e7a943dccc23a840bc94bbabf9b1d60760405160405180910390a3505b919050565b6000613f3461543763ffffffff16565b9050600c60189054906101000a900467ffffffffffffffff1667ffffffffffffffff168167ffffffffffffffff16111515613f6f5750614901565b6000600c60189054906101000a900467ffffffffffffffff16820390506000600260009054906101000a900473ffffffffffffffffffffffffffffffffffffffff1673ffffffffffffffffffffffffffffffffffffffff166306ef2d806040518163ffffffff1660e01b815260040160806040518083038186803b158015613ff75760006000fd5b505afa15801561400c573d600060003e3d6000fd5b505050506040513d601f19601f820116820180604052508101906140309190615fed565b90506000600060009054906101000a900473ffffffffffffffffffffffffffffffffffffffff1673ffffffffffffffffffffffffffffffffffffffff166343f48fbd6040518163ffffffff1660e01b815260040160206040518083038186803b15801561409d5760006000fd5b505afa1580156140b2573d600060003e3d6000fd5b505050506040513d601f19601f820116820180604052508101906140d69190615d81565b9050600061429283858473ffffffffffffffffffffffffffffffffffffffff1663a0fc0eda6040518163ffffffff1660e01b815260040160206040518083038186803b1580156141265760006000fd5b505afa15801561413b573d600060003e3d6000fd5b505050506040513d601f19601f8201168201806040525081019061415f91906160d6565b8573ffffffffffffffffffffffffffffffffffffffff16636d7fa6646040518163ffffffff1660e01b815260040160206040518083038186803b1580156141a65760006000fd5b505afa1580156141bb573d600060003e3d6000fd5b505050506040513d601f19601f820116820180604052508101906141df9190615c4a565b600360009054906101000a900473ffffffffffffffffffffffffffffffffffffffff1673ffffffffffffffffffffffffffffffffffffffff166375172a8b6040518163ffffffff1660e01b815260040160206040518083038186803b1580156142485760006000fd5b505afa15801561425d573d600060003e3d6000fd5b505050506040513d601f19601f8201168201806040525081019061428191906160d6565b600b60005054612ce663ffffffff16565b905060006144ac8567ffffffffffffffff16610e1067ffffffffffffffff16620151808115156142be57fe5b0467ffffffffffffffff1661449d600060009054906101000a900473ffffffffffffffffffffffffffffffffffffffff1673ffffffffffffffffffffffffffffffffffffffff16639ec5a8946040518163ffffffff1660e01b815260040160206040518083038186803b1580156143355760006000fd5b505afa15801561434a573d600060003e3d6000fd5b505050506040513d601f19601f8201168201806040525081019061436e9190615da8565b73ffffffffffffffffffffffffffffffffffffffff16630a86f1096040518163ffffffff1660e01b815260040160206040518083038186803b1580156143b45760006000fd5b505afa1580156143c9573d600060003e3d6000fd5b505050506040513d601f19601f820116820180604052508101906143ed91906160d6565b600060009054906101000a900473ffffffffffffffffffffffffffffffffffffffff1673ffffffffffffffffffffffffffffffffffffffff1663c375e6ed6040518163ffffffff1660e01b815260040160206040518083038186803b1580156144565760006000fd5b505afa15801561446b573d600060003e3d6000fd5b505050506040513d601f19601f8201168201806040525081019061448f91906160d6565b614e0090919063ffffffff16565b614bed9092919063ffffffff16565b90506040518060800160405280836000015181526020016144da838760200151614d7790919063ffffffff16565b81526020016145166145038867ffffffffffffffff16886000015161545d90919063ffffffff16565b8760400151614d7790919063ffffffff16565b8152602001836020015181526020015093508350600260009054906101000a900473ffffffffffffffffffffffffffffffffffffffff1673ffffffffffffffffffffffffffffffffffffffff166378efc6b0856040518263ffffffff1660e01b81526004016145859190616bc4565b600060405180830381600087803b1580156145a05760006000fd5b505af11580156145b5573d600060003e3d6000fd5b5050505085600c60186101000a81548167ffffffffffffffff021916908367ffffffffffffffff16021790555060008260600151111561473a57600260009054906101000a900473ffffffffffffffffffffffffffffffffffffffff1673ffffffffffffffffffffffffffffffffffffffff166379fdf8c583606001516040518263ffffffff1660e01b815260040161464e9190616bf5565b600060405180830381600087803b1580156146695760006000fd5b505af115801561467e573d600060003e3d6000fd5b50505050600360009054906101000a900473ffffffffffffffffffffffffffffffffffffffff1673ffffffffffffffffffffffffffffffffffffffff1663449a52f8600260009054906101000a900473ffffffffffffffffffffffffffffffffffffffff1684606001516040518363ffffffff1660e01b81526004016147059291906165b0565b600060405180830381600087803b1580156147205760006000fd5b505af1158015614735573d600060003e3d6000fd5b505050505b6000826040015111156147ff57600360009054906101000a900473ffffffffffffffffffffffffffffffffffffffff1673ffffffffffffffffffffffffffffffffffffffff1663449a52f8600360009054906101000a900473ffffffffffffffffffffffffffffffffffffffff1684604001516040518363ffffffff1660e01b81526004016147ca9291906165b0565b600060405180830381600087803b1580156147e55760006000fd5b505af11580156147fa573d600060003e3d6000fd5b505050505b6000826080015111156148a057600360009054906101000a900473ffffffffffffffffffffffffffffffffffffffff1673ffffffffffffffffffffffffffffffffffffffff1663c59fb1ab83608001516040518263ffffffff1660e01b815260040161486b9190616bf5565b600060405180830381600087803b1580156148865760006000fd5b505af115801561489b573d600060003e3d6000fd5b505050505b8567ffffffffffffffff167fdfc2183705a66b49f12c66a6d3b2fa5cf3b7c67086e9c6e90d144befc94f436c8686600001518760200151886040015189606001516040516148f2959493929190616c97565b60405180910390a25050505050505b565b60026006600050541415151561494e576040517f08c379a000000000000000000000000000000000000000000000000000000000815260040161494590616737565b60405180910390fd5b600260066000508190909055505b565b600160066000508190909055505b565b600060149054906101000a900460ff161515156149c0576040517f08c379a00000000000000000000000000000000000000000000000000000000081526004016149b790616acf565b60405180910390fd5b5b565b6149cb6159ec565b6000849150815060008260a0015167ffffffffffffffff161180156149f4575060008260400151115b15614ac457614a1a846060015183606001518460400151614bed9092919063ffffffff16565b8260400190908181526020015050614abf614a4c8360a001518567ffffffffffffffff166154fb90919063ffffffff16565b67ffffffffffffffff16610e1067ffffffffffffffff16614ab0614a8186608001518960200151614cee90919063ffffffff16565b614a9c87600001518a60400151614cee90919063ffffffff16565b8760400151614bed9092919063ffffffff16565b614bed9092919063ffffffff16565b905080505b836060015182606001909081815260200150508360200151826080019090818152602001505083604001518260000190908181526020015050828260a0019067ffffffffffffffff16908167ffffffffffffffff16815260200150505b935093915050565b60007f800000000000000000000000000000000000000000000000000000000000000082101515614bc5576040517f08c379a00000000000000000000000000000000000000000000000000000000081526004018080602001828103825260128152602001807f746f6f2062696720666f7220696e74323536000000000000000000000000000081526020015060200191505060405180910390fd5b819050614bcd565b919050565b6000614be54261260f909063ffffffff16565b905080505b90565b6000600060006000198587098587029250828110838203039150506000811415614c3057600084111515614c215760006000fd5b83820492508292505050614ce7565b8084111515614c3f5760006000fd5b6000848688099050828111820391508083039250600085866000031690508086049550808404935060018182600003040190508083028417935083506000600287600302189050808702600203810290508050808702600203810290508050808702600203810290508050808702600203810290508050808702600203810290508050808702600203810290508050808502955085508595505050505050614ce75650505050505b9392505050565b60008282840391508111151515614d70576040517f08c379a000000000000000000000000000000000000000000000000000000000815260040180806020018281038252600d8152602001807f7375622d756e646572666c6f770000000000000000000000000000000000000081526020015060200191505060405180910390fd5b5b92915050565b60008282840191508110151515614df9576040517f08c379a000000000000000000000000000000000000000000000000000000000815260040180806020018281038252600c8152602001807f6164642d6f766572666c6f77000000000000000000000000000000000000000081526020015060200191505060405180910390fd5b5b92915050565b6000614e1b8383670de0b6b3a7640000614bed63ffffffff16565b905080505b92915050565b6000614e36614bd263ffffffff16565b905080506000600060009054906101000a900473ffffffffffffffffffffffffffffffffffffffff1673ffffffffffffffffffffffffffffffffffffffff1663585690816040518163ffffffff1660e01b815260040160206040518083038186803b158015614ea55760006000fd5b505afa158015614eba573d600060003e3d6000fd5b505050506040513d601f19601f82011682018060405250810190614ede919061614a565b905060008167ffffffffffffffff16118015614f0d57508167ffffffffffffffff168167ffffffffffffffff16105b15614f185780915081505b505b90565b6000614f9b7f00000000000000000000000000000000000000000000000000000000000000007f000000000000000000000000000000000000000000000000000000000000000067ffffffffffffffff168467ffffffffffffffff16811515614f8257fe5b0467ffffffffffffffff166154fb90919063ffffffff16565b905080505b919050565b614fb48161559863ffffffff16565b1515614ff5576040517f08c379a0000000000000000000000000000000000000000000000000000000008152600401614fec9061692f565b60405180910390fd5b5b50565b60008267ffffffffffffffff1682840191508167ffffffffffffffff161015151561508f576040517f08c379a000000000000000000000000000000000000000000000000000000000815260040180806020018281038252600c8152602001807f6164642d6f766572666c6f77000000000000000000000000000000000000000081526020015060200191505060405180910390fd5b5b92915050565b6000600d60009054906101000a900473ffffffffffffffffffffffffffffffffffffffff169050600073ffffffffffffffffffffffffffffffffffffffff168173ffffffffffffffffffffffffffffffffffffffff1614156150f857506152ad565b6000600060009054906101000a900473ffffffffffffffffffffffffffffffffffffffff1673ffffffffffffffffffffffffffffffffffffffff1663d3419bf36040518163ffffffff1660e01b815260040160206040518083038186803b1580156151635760006000fd5b505afa158015615178573d600060003e3d6000fd5b505050506040513d601f19601f8201168201806040525081019061519c9190615d33565b73ffffffffffffffffffffffffffffffffffffffff1663d97e640083600c60149054906101000a900463ffffffff166040518363ffffffff1660e01b81526004016151e892919061667f565b60206040518083038186803b1580156152015760006000fd5b505afa158015615216573d600060003e3d6000fd5b505050506040513d601f19601f8201168201806040525081019061523a91906160d6565b90506152548460096000505461545d90919063ffffffff16565b615267828561545d90919063ffffffff16565b101515156152aa576040517f08c379a00000000000000000000000000000000000000000000000000000000081526004016152a190616b0e565b60405180910390fd5b50505b5050565b60008273ffffffffffffffffffffffffffffffffffffffff1682600067ffffffffffffffff811180156152e45760006000fd5b506040519080825280601f01601f1916602001820160405280156153175781602001600182028036833780820191505090505b506040518082805190602001908083835b60208310151561534e57805182525b602082019150602081019050602083039250615328565b6001836020036101000a03801982511681845116808217855250505050505090500191505060006040518083038185875af1925050503d80600081146153b0576040519150601f19603f3d011682016040523d82523d6000602084013e6153b5565b606091505b50509050801515615431576040517f08c379a00000000000000000000000000000000000000000000000000000000081526004018080602001828103825260038152602001807f535445000000000000000000000000000000000000000000000000000000000081526020015060200191505060405180910390fd5b505b5050565b600061545561544a614e2663ffffffff16565b614f1d63ffffffff16565b905080505b90565b6000600082148061547d5750828283850292508281151561547a57fe5b04145b15156154f4576040517f08c379a000000000000000000000000000000000000000000000000000000000815260040180806020018281038252600c8152602001807f6d756c2d6f766572666c6f77000000000000000000000000000000000000000081526020015060200191505060405180910390fd5b5b92915050565b60008267ffffffffffffffff1682840391508167ffffffffffffffff1611151515615591576040517f08c379a000000000000000000000000000000000000000000000000000000000815260040180806020018281038252600d8152602001807f7375622d756e646572666c6f770000000000000000000000000000000000000081526020015060200191505060405180910390fd5b5b92915050565b6000600073ffffffffffffffffffffffffffffffffffffffff16600d60009054906101000a900473ffffffffffffffffffffffffffffffffffffffff1673ffffffffffffffffffffffffffffffffffffffff1614156155fa57600190506156ef565b81615632600d60009054906101000a900473ffffffffffffffffffffffffffffffffffffffff166007600050546156f463ffffffff16565b101561564157600090506156ef565b6000600e60005080549050905060008160086000505481151561566057fe5b0490506000600090505b828110156156e157846156c1600e6000508381548110151561568857fe5b906000526020600020900160005b9054906101000a900473ffffffffffffffffffffffffffffffffffffffff16846156f463ffffffff16565b10156156d357600093505050506156ef565b5b808060010191505061566a565b506001925050506156ef5650505b919050565b60006000600060009054906101000a900473ffffffffffffffffffffffffffffffffffffffff1673ffffffffffffffffffffffffffffffffffffffff1663d3419bf36040518163ffffffff1660e01b815260040160206040518083038186803b1580156157615760006000fd5b505afa158015615776573d600060003e3d6000fd5b505050506040513d601f19601f8201168201806040525081019061579a9190615d33565b73ffffffffffffffffffffffffffffffffffffffff16639ebf54b585600260009054906101000a900473ffffffffffffffffffffffffffffffffffffffff1673ffffffffffffffffffffffffffffffffffffffff1663a135ef17886040518263ffffffff1660e01b8152600401615811919061661b565b60206040518083038186803b15801561582a5760006000fd5b505afa15801561583f573d600060003e3d6000fd5b505050506040513d601f19601f8201168201806040525081019061586391906160d6565b600c60149054906101000a900463ffffffff166040518463ffffffff1660e01b815260040161589493929190616643565b60206040518083038186803b1580156158ad5760006000fd5b505afa1580156158c2573d600060003e3d6000fd5b505050506040513d601f19601f820116820180604052508101906158e691906160d6565b90506158fb838261590a90919063ffffffff16565b91505061590456505b92915050565b600061592583670de0b6b3a764000084614bed63ffffffff16565b905080505b92915050565b8280548282559060005260206000209081019282156159a9579160200282015b828111156159a85782518260006101000a81548173ffffffffffffffffffffffffffffffffffffffff021916908373ffffffffffffffffffffffffffffffffffffffff16021790555091602001919060010190615950565b5b5090506159b69190615a65565b5090565b6040518060a0016040528060008152602001600081526020016000815260200160008152602001600081526020015090565b6040518061014001604052806000815260200160008152602001600081526020016000815260200160008152602001600067ffffffffffffffff168152602001600067ffffffffffffffff168152602001600060020b8152602001600015158152602001600067ffffffffffffffff1681526020015090565b615a6a565b80821115615a845760008181506000905550600101615a6a565b509056616d81565b600081359050615a9b81616d23565b5b919050565b600081519050615ab081616d23565b5b919050565b600081359050615ac581616d38565b5b919050565b600081519050615ada81616d38565b5b919050565b600060808284031215615af1578081fd5b6040516080810181811067ffffffffffffffff82111715615b0e57fe5b806040525080915082358152602083013560208201526040830135604082015260608301356060820152505b92915050565b600081359050615b4f81616d4e565b5b919050565b600081519050615b6481616d4e565b5b919050565b600060208284031215615b7b578081fd5b8151615b8681616cfa565b809150505b92915050565b60006020808385031215615ba3578182fd5b825167ffffffffffffffff80821115615bba578384fd5b818501915085601f8301121515615bcf578384fd5b815181811115615bdb57fe5b8381029150615beb848301616ccf565b8082825285820191508585018987868801011115615c07578788fd5b8795505b83861015615c395780519450615c2085616cfa565b848352868301925086810190505b600186019550615c0b565b508096505050505050505b92915050565b600060208284031215615c5b578081fd5b8151615c6681616d23565b809150505b92915050565b600060208284031215615c82578081fd5b81357fffffffff00000000000000000000000000000000000000000000000000000000811681141515615cb3578182fd5b809150505b92915050565b600060208284031215615ccf578081fd5b8151615cda81616cfa565b809150505b92915050565b600060208284031215615cf6578081fd5b8135615d0181616cfa565b809150505b92915050565b600060208284031215615d1d578081fd5b8151615d2881616cfa565b809150505b92915050565b600060208284031215615d44578081fd5b8151615d4f81616cfa565b809150505b92915050565b600060208284031215615d6b578081fd5b8151615d7681616cfa565b809150505b92915050565b600060208284031215615d92578081fd5b8151615d9d81616cfa565b809150505b92915050565b600060208284031215615db9578081fd5b8151615dc481616cfa565b809150505b92915050565b600060208284031215615de0578081fd5b8135615deb81616cfa565b809150505b92915050565b600060208284031215615e07578081fd5b8151615e1281616cfa565b809150505b92915050565b600060208284031215615e2e578081fd5b8151615e3981616cfa565b809150505b92915050565b6000610140808385031215615e57578182fd5b615e6081616ccf565b90508251815260208301516020820152604083015160408201526060830151606082015260808301516080820152615e9a60a08401615b55565b60a0820152615eab60c08401615b55565b60c0820152615ebc60e08401615acb565b60e0820152610100615ecf818501615aa1565b8183015250610120615ee2818501615b55565b8183015250809150505b92915050565b6000600060008385036101e0811215615f09578283fd5b61014080821215615f18578384fd5b615f2181616ccf565b91508535825260208601356020830152604086013560408301526060860135606083015260808601356080830152615f5b60a08701615b40565b60a0830152615f6c60c08701615b40565b60c0830152615f7d60e08701615ab6565b60e0830152610100615f90818801615a8c565b8184015250610120615fa3818801615b40565b8184015250819450615fb787828801615ae0565b93505050615fc86101c08501615b40565b90505b9250925092565b600060608284031215615fe3578081fd5b8190505b92915050565b600060808284031215615ffe578081fd5b6040516080810181811067ffffffffffffffff8211171561601b57fe5b806040525082518152602083015160208201526040830151604082015260608301516060820152809150505b92915050565b6000600060006000600060006101208789031215616069578384fd5b6160738888615ae0565b9550608087013561608381616d4e565b8095505060a0870135935060c087013561609c81616d23565b8093505060e0870135915061010087013590505b9295509295509295565b6000602082840312156160cb578081fd5b813590505b92915050565b6000602082840312156160e7578081fd5b815190505b92915050565b600060208284031215616103578081fd5b813563ffffffff811681141515616118578182fd5b809150505b92915050565b600060208284031215616134578081fd5b813561613f81616d4e565b809150505b92915050565b60006020828403121561615b578081fd5b815161616681616d4e565b809150505b92915050565b60006000600060608486031215616186578081fd5b833561619181616d4e565b8093505060208401359150604084013590505b9250925092565b60006000604083850312156161be578182fd5b82356161c981616d4e565b80925050602083013590505b9250929050565b6000602082840312156161ed578081fd5b81516161f881616d6b565b809150505b92915050565b80151582525b5050565b8060020b82525b5050565b805182526020810151602083015260408101516040830152606081015160608301526080810151608083015260a081015161625660a08401826162ac565b5060c081015161626960c08401826162ac565b5060e081015161627c60e084018261620d565b506101008082015161629082850182616203565b5050610120808201516162a5828501826162ac565b50505b5050565b67ffffffffffffffff811682525b5050565b60007f6d696e506f736974696f6e53697a6500000000000000000000000000000000008252600f820190505b919050565b60007f6d696e546f74616c5265666572656e6365506f6f6c4c697175696469747900008252601e820190505b919050565b60007f6d696e436f6c6c61746572616c506f6f6c4c69717569646974790000000000008252601a820190505b919050565b60007f747761704475726174696f6e00000000000000000000000000000000000000008252600c820190505b919050565b60007f636f6c6c61746572616c697a6174696f6e526571756972656d656e74000000008252601c820190505b919050565b60007f72656d6f76655265666572656e6365506f6f6c0000000000000000000000000082526013820190505b919050565b60007f696e746572657374506f7274696f6e546f4c656e64657273000000000000000082526018820190505b919050565b60007f6164645265666572656e6365506f6f6c0000000000000000000000000000000082526010820190505b919050565b600060208201905073ffffffffffffffffffffffffffffffffffffffff831682525b92915050565b600060208201905073ffffffffffffffffffffffffffffffffffffffff831682525b92915050565b600060408201905073ffffffffffffffffffffffffffffffffffffffff8416825282151560208301525b9392505050565b600060808201905073ffffffffffffffffffffffffffffffffffffffff8416825282356164f381616d6b565b60ff811660208401525060208301356040830152604083013560608301525b9392505050565b600060408201905073ffffffffffffffffffffffffffffffffffffffff841682528260208301525b9392505050565b600060408201905073ffffffffffffffffffffffffffffffffffffffff841682528260208301525b9392505050565b600060408201905073ffffffffffffffffffffffffffffffffffffffff8416825267ffffffffffffffff831660208301525b9392505050565b600060408201905073ffffffffffffffffffffffffffffffffffffffff841682528260208301525b9392505050565b600060208201905082151582525b92915050565b600060208201905073ffffffffffffffffffffffffffffffffffffffff831682525b92915050565b600060208201905073ffffffffffffffffffffffffffffffffffffffff831682525b92915050565b600060608201905073ffffffffffffffffffffffffffffffffffffffff8516825283602083015263ffffffff831660408301525b949350505050565b600060408201905073ffffffffffffffffffffffffffffffffffffffff8416825263ffffffff831660208301525b9392505050565b60006040820190508382528260208301525b9392505050565b60006101608201905067ffffffffffffffff841682526166f06020830184616218565b5b9392505050565b600060208252601160208301527f50726f746f636f6c2073687574646f776e00000000000000000000000000000060408301526060820190505b919050565b600060208252600d60208301527f4c43205265656e7472616e63790000000000000000000000000000000000000060408301526060820190505b919050565b600060208252601460208301527f416374696f6e2077696e646f772070617373656400000000000000000000000060408301526060820190505b919050565b600060208252601460208301527f416c72656164792070617274696369706174656400000000000000000000000060408301526060820190505b919050565b600060208252600f60208301527f4e6f20666c61736820626f72726f77000000000000000000000000000000000060408301526060820190505b919050565b600060208252600e60208301527f4e6f7420417574686f72697a656400000000000000000000000000000000000060408301526060820190505b919050565b600060208252600460208301527f4e6f6f700000000000000000000000000000000000000000000000000000000060408301526060820190505b919050565b600060208252600d60208301527f4c50205265656e7472616e63790000000000000000000000000000000000000060408301526060820190505b919050565b600060208252601360208301527f4d7573742061646420636f6c6c61746572616c0000000000000000000000000060408301526060820190505b919050565b600060208252601d60208301527f4465627420756e737570706f72746564206279206c697175696469747900000060408301526060820190505b919050565b600060208252601160208301527f4e6f206c6f6e6765722067656e6573697300000000000000000000000000000060408301526060820190505b919050565b600060208252602360208301527f43616e7420696e637265617365202620646563726561736520636f6c6c61746560408301527f72616c000000000000000000000000000000000000000000000000000000000060608301526080820190505b919050565b600060208252601260208301527f506f736974696f6e20746f6f20736d616c6c000000000000000000000000000060408301526060820190505b919050565b600060208252601560208301527f416374696f6e20617661696c61626c6520736f6f6e000000000000000000000060408301526060820190505b919050565b600060208252601360208301527f4e6f206465627420746f20706179206261636b0000000000000000000000000060408301526060820190505b919050565b600060208252601360208301527f436f6e74726163742069732073746f707065640000000000000000000000000060408301526060820190505b919050565b600060208252601760208301527f496e73756666696369656e7420636f6c6c61746572616c00000000000000000060408301526060820190505b919050565b600060a08201905082518252602083015160208301526040830151604083015260608301516060830152608083015160808301525b92915050565b600061014082019050616b9b8284616218565b5b92915050565b600061016082019050616bb58285616218565b826101408301525b9392505050565b6000608082019050825182526020830151602083015260408301516040830152606083015160608301525b92915050565b60006020820190508282525b92915050565b60006040820190508382528260208301525b9392505050565b600060208201905063ffffffff831682525b92915050565b600060208201905063ffffffff831682525b92915050565b600060208201905067ffffffffffffffff831682525b92915050565b60006101608201905067ffffffffffffffff84168252616c8f6020830184616218565b5b9392505050565b600060a08201905067ffffffffffffffff871682528560208301528460408301528360608301528260808301525b9695505050505050565b6000604051905081810181811067ffffffffffffffff82111715616cef57fe5b80604052505b919050565b73ffffffffffffffffffffffffffffffffffffffff811681141515616d1f5760006000fd5b5b50565b80151581141515616d345760006000fd5b5b50565b8060020b81141515616d4a5760006000fd5b5b50565b67ffffffffffffffff811681141515616d675760006000fd5b5b50565b60ff811681141515616d7d5760006000fd5b5b50565bfea26469706673582212204831bd09d44a0dfcc17529b6c983d12593fc75bfce5fe383df4a847e2faa4af964736f6c63430007060033",
  "linkReferences": {},
  "deployedLinkReferences": {}
}