{
  "_format": "hh-sol-artifact-1",
  "contractName": "MarketTestable",
  "sourceName": "contracts/mocks/MarketTestable.sol",
  "abi": [
    {
      "anonymous": false,
      "inputs": [
        {
          "indexed": true,
          "internalType": "address",
          "name": "governor",
          "type": "address"
        }
      ],
      "name": "Initialized",
      "type": "event"
    },
    {
      "anonymous": false,
      "inputs": [
        {
          "indexed": true,
          "internalType": "uint64",
          "name": "period",
          "type": "uint64"
        },
        {
          "indexed": false,
          "internalType": "uint64",
          "name": "periods",
          "type": "uint64"
        },
        {
          "indexed": false,
          "internalType": "uint256",
          "name": "newDebt",
          "type": "uint256"
        },
        {
          "indexed": false,
          "internalType": "uint256",
          "name": "rewardCount",
          "type": "uint256"
        },
        {
          "indexed": false,
          "internalType": "uint256",
          "name": "cumulativeDebt",
          "type": "uint256"
        },
        {
          "indexed": false,
          "internalType": "uint256",
          "name": "debtExchangeRate",
          "type": "uint256"
        }
      ],
      "name": "InterestAccrued",
      "type": "event"
    },
    {
      "anonymous": false,
      "inputs": [
        {
          "indexed": true,
          "internalType": "address",
          "name": "account",
          "type": "address"
        },
        {
          "indexed": false,
          "internalType": "uint256",
          "name": "hueCount",
          "type": "uint256"
        },
        {
          "indexed": false,
          "internalType": "uint256",
          "name": "lendTokenCount",
          "type": "uint256"
        }
      ],
      "name": "Lend",
      "type": "event"
    },
    {
      "anonymous": false,
      "inputs": [
        {
          "indexed": true,
          "internalType": "string",
          "name": "paramName",
          "type": "string"
        },
        {
          "indexed": false,
          "internalType": "uint256",
          "name": "value",
          "type": "uint256"
        }
      ],
      "name": "ParameterUpdated",
      "type": "event"
    },
    {
      "anonymous": false,
      "inputs": [
        {
          "indexed": true,
          "internalType": "string",
          "name": "paramName",
          "type": "string"
        },
        {
          "indexed": false,
          "internalType": "uint64",
          "name": "value",
          "type": "uint64"
        }
      ],
      "name": "ParameterUpdated64",
      "type": "event"
    },
    {
      "anonymous": false,
      "inputs": [
        {
          "indexed": true,
          "internalType": "string",
          "name": "paramName",
          "type": "string"
        },
        {
          "indexed": false,
          "internalType": "address",
          "name": "value",
          "type": "address"
        }
      ],
      "name": "ParameterUpdatedAddress",
      "type": "event"
    },
    {
      "anonymous": false,
      "inputs": [
        {
          "indexed": true,
          "internalType": "uint64",
          "name": "positionID",
          "type": "uint64"
        },
        {
          "indexed": false,
          "internalType": "uint256",
          "name": "debtIncrease",
          "type": "uint256"
        },
        {
          "indexed": false,
          "internalType": "uint256",
          "name": "debtDecrease",
          "type": "uint256"
        },
        {
          "indexed": false,
          "internalType": "uint256",
          "name": "collateralIncrease",
          "type": "uint256"
        },
        {
          "indexed": false,
          "internalType": "uint256",
          "name": "collateralDecrease",
          "type": "uint256"
        }
      ],
      "name": "PositionAdjusted",
      "type": "event"
    },
    {
      "anonymous": false,
      "inputs": [
        {
          "indexed": true,
          "internalType": "address",
          "name": "creator",
          "type": "address"
        },
        {
          "indexed": true,
          "internalType": "uint64",
          "name": "positionID",
          "type": "uint64"
        }
      ],
      "name": "PositionCreated",
      "type": "event"
    },
    {
      "anonymous": false,
      "inputs": [
        {
          "indexed": true,
          "internalType": "uint256",
          "name": "positionID",
          "type": "uint256"
        },
        {
          "indexed": true,
          "internalType": "uint64",
          "name": "period",
          "type": "uint64"
        },
        {
          "indexed": false,
          "internalType": "uint256",
          "name": "debtAfter",
          "type": "uint256"
        },
        {
          "indexed": false,
          "internalType": "uint256",
          "name": "tcpRewards",
          "type": "uint256"
        }
      ],
      "name": "PositionUpdated",
      "type": "event"
    },
    {
      "anonymous": false,
      "inputs": [
        {
          "indexed": true,
          "internalType": "address",
          "name": "account",
          "type": "address"
        },
        {
          "indexed": true,
          "internalType": "bool",
          "name": "isKickback",
          "type": "bool"
        },
        {
          "indexed": false,
          "internalType": "uint256",
          "name": "tcpRewards",
          "type": "uint256"
        }
      ],
      "name": "RewardsDistributed",
      "type": "event"
    },
    {
      "anonymous": false,
      "inputs": [],
      "name": "Stopped",
      "type": "event"
    },
    {
      "anonymous": false,
      "inputs": [
        {
          "indexed": true,
          "internalType": "address",
          "name": "account",
          "type": "address"
        },
        {
          "indexed": false,
          "internalType": "uint256",
          "name": "hueCount",
          "type": "uint256"
        },
        {
          "indexed": false,
          "internalType": "uint256",
          "name": "lendTokenCount",
          "type": "uint256"
        }
      ],
      "name": "Unlend",
      "type": "event"
    },
    {
      "inputs": [],
      "name": "accrueInterest",
      "outputs": [],
      "stateMutability": "nonpayable",
      "type": "function"
    },
    {
      "inputs": [
        {
          "internalType": "uint64",
          "name": "positionID",
          "type": "uint64"
        },
        {
          "internalType": "int256",
          "name": "debtChange",
          "type": "int256"
        },
        {
          "internalType": "uint256",
          "name": "collateralDecrease",
          "type": "uint256"
        },
        {
          "internalType": "uint32",
          "name": "ui",
          "type": "uint32"
        }
      ],
      "name": "adjustPosition",
      "outputs": [],
      "stateMutability": "payable",
      "type": "function"
    },
    {
      "inputs": [
        {
          "components": [
            {
              "internalType": "uint256",
              "name": "debt",
              "type": "uint256"
            },
            {
              "internalType": "uint256",
              "name": "totalTCPRewards",
              "type": "uint256"
            },
            {
              "internalType": "uint256",
              "name": "cumulativeDebt",
              "type": "uint256"
            },
            {
              "internalType": "uint256",
              "name": "debtExchangeRate",
              "type": "uint256"
            }
          ],
          "internalType": "struct IAccounting.SystemDebtInfo",
          "name": "sdi",
          "type": "tuple"
        },
        {
          "internalType": "uint64",
          "name": "periods",
          "type": "uint64"
        },
        {
          "internalType": "uint256",
          "name": "annualInterestRate",
          "type": "uint256"
        },
        {
          "internalType": "bool",
          "name": "positiveInterestRate",
          "type": "bool"
        },
        {
          "internalType": "uint256",
          "name": "reserves",
          "type": "uint256"
        },
        {
          "internalType": "uint256",
          "name": "_interestPortionToLenders",
          "type": "uint256"
        }
      ],
      "name": "calculateInterest",
      "outputs": [
        {
          "components": [
            {
              "internalType": "uint256",
              "name": "newDebt",
              "type": "uint256"
            },
            {
              "internalType": "uint256",
              "name": "newExchangeRate",
              "type": "uint256"
            },
            {
              "internalType": "uint256",
              "name": "additionalReserves",
              "type": "uint256"
            },
            {
              "internalType": "uint256",
              "name": "additionalLends",
              "type": "uint256"
            },
            {
              "internalType": "uint256",
              "name": "reducedReserves",
              "type": "uint256"
            }
          ],
          "internalType": "struct IMarket.CalculatedInterestInfo",
          "name": "cii",
          "type": "tuple"
        }
      ],
      "stateMutability": "pure",
      "type": "function"
    },
    {
      "inputs": [
        {
          "internalType": "uint64",
          "name": "positionID",
          "type": "uint64"
        },
        {
          "internalType": "uint32",
          "name": "ui",
          "type": "uint32"
        }
      ],
      "name": "claimRewards",
      "outputs": [],
      "stateMutability": "nonpayable",
      "type": "function"
    },
    {
      "inputs": [],
      "name": "collateralizationRequirement",
      "outputs": [
        {
          "internalType": "uint256",
          "name": "",
          "type": "uint256"
        }
      ],
      "stateMutability": "view",
      "type": "function"
    },
    {
      "inputs": [
        {
          "internalType": "uint256",
          "name": "initialDebt",
          "type": "uint256"
        },
        {
          "internalType": "uint32",
          "name": "ui",
          "type": "uint32"
        }
      ],
      "name": "createPosition",
      "outputs": [
        {
          "internalType": "uint64",
          "name": "positionID",
          "type": "uint64"
        }
      ],
      "stateMutability": "payable",
      "type": "function"
    },
    {
      "inputs": [],
      "name": "currentPeriod",
      "outputs": [
        {
          "internalType": "uint64",
          "name": "period",
          "type": "uint64"
        }
      ],
      "stateMutability": "view",
      "type": "function"
    },
    {
      "inputs": [],
      "name": "deployer",
      "outputs": [
        {
          "internalType": "address",
          "name": "",
          "type": "address"
        }
      ],
      "stateMutability": "view",
      "type": "function"
    },
    {
      "inputs": [],
      "name": "finalizeInitialization",
      "outputs": [],
      "stateMutability": "nonpayable",
      "type": "function"
    },
    {
      "inputs": [],
      "name": "firstPeriod",
      "outputs": [
        {
          "internalType": "uint64",
          "name": "",
          "type": "uint64"
        }
      ],
      "stateMutability": "view",
      "type": "function"
    },
    {
      "inputs": [],
      "name": "governor",
      "outputs": [
        {
          "internalType": "contract IGovernor",
          "name": "",
          "type": "address"
        }
      ],
      "stateMutability": "view",
      "type": "function"
    },
    {
      "inputs": [],
      "name": "huePositionNFT",
      "outputs": [
        {
          "internalType": "contract IPositionNFT",
          "name": "",
          "type": "address"
        }
      ],
      "stateMutability": "view",
      "type": "function"
    },
    {
      "inputs": [
        {
          "internalType": "contract IGovernor",
          "name": "_governor",
          "type": "address"
        }
      ],
      "name": "init",
      "outputs": [],
      "stateMutability": "nonpayable",
      "type": "function"
    },
    {
      "inputs": [],
      "name": "interestPortionToLenders",
      "outputs": [
        {
          "internalType": "uint256",
          "name": "",
          "type": "uint256"
        }
      ],
      "stateMutability": "view",
      "type": "function"
    },
    {
      "inputs": [],
      "name": "lastPeriodGlobalInterestAccrued",
      "outputs": [
        {
          "internalType": "uint64",
          "name": "",
          "type": "uint64"
        }
      ],
      "stateMutability": "view",
      "type": "function"
    },
    {
      "inputs": [
        {
          "internalType": "uint256",
          "name": "hueCount",
          "type": "uint256"
        }
      ],
      "name": "lend",
      "outputs": [],
      "stateMutability": "nonpayable",
      "type": "function"
    },
    {
      "inputs": [],
      "name": "lendHue",
      "outputs": [
        {
          "internalType": "contract ILendHue",
          "name": "",
          "type": "address"
        }
      ],
      "stateMutability": "view",
      "type": "function"
    },
    {
      "inputs": [],
      "name": "minPositionSize",
      "outputs": [
        {
          "internalType": "uint256",
          "name": "",
          "type": "uint256"
        }
      ],
      "stateMutability": "view",
      "type": "function"
    },
    {
      "inputs": [],
      "name": "periodLength",
      "outputs": [
        {
          "internalType": "uint64",
          "name": "",
          "type": "uint64"
        }
      ],
      "stateMutability": "view",
      "type": "function"
    },
    {
      "inputs": [
        {
          "internalType": "uint64",
          "name": "positionID",
          "type": "uint64"
        }
      ],
      "name": "removeKickback",
      "outputs": [],
      "stateMutability": "nonpayable",
      "type": "function"
    },
    {
      "inputs": [
        {
          "internalType": "uint256",
          "name": "requirement",
          "type": "uint256"
        }
      ],
      "name": "setCollateralizationRequirement",
      "outputs": [],
      "stateMutability": "nonpayable",
      "type": "function"
    },
    {
      "inputs": [
        {
          "internalType": "uint256",
          "name": "percentage",
          "type": "uint256"
        }
      ],
      "name": "setInterestPortionToLenders",
      "outputs": [],
      "stateMutability": "nonpayable",
      "type": "function"
    },
    {
      "inputs": [
        {
          "internalType": "uint256",
          "name": "size",
          "type": "uint256"
        }
      ],
      "name": "setMinPositionSize",
      "outputs": [],
      "stateMutability": "nonpayable",
      "type": "function"
    },
    {
      "inputs": [
        {
          "internalType": "uint32",
          "name": "duration",
          "type": "uint32"
        }
      ],
      "name": "setTwapDuration",
      "outputs": [],
      "stateMutability": "nonpayable",
      "type": "function"
    },
    {
      "inputs": [],
      "name": "stop",
      "outputs": [],
      "stateMutability": "nonpayable",
      "type": "function"
    },
    {
      "inputs": [],
      "name": "stopped",
      "outputs": [
        {
          "internalType": "bool",
          "name": "",
          "type": "bool"
        }
      ],
      "stateMutability": "view",
      "type": "function"
    },
    {
      "inputs": [
        {
          "internalType": "uint64",
          "name": "positionID",
          "type": "uint64"
        }
      ],
      "name": "systemGetUpdatedPosition",
      "outputs": [
        {
          "components": [
            {
              "internalType": "uint256",
              "name": "startCumulativeDebt",
              "type": "uint256"
            },
            {
              "internalType": "uint256",
              "name": "collateral",
              "type": "uint256"
            },
            {
              "internalType": "uint256",
              "name": "debt",
              "type": "uint256"
            },
            {
              "internalType": "uint256",
              "name": "startDebtExchangeRate",
              "type": "uint256"
            },
            {
              "internalType": "uint256",
              "name": "startTCPRewards",
              "type": "uint256"
            },
            {
              "internalType": "uint64",
              "name": "lastTimeUpdated",
              "type": "uint64"
            },
            {
              "internalType": "uint64",
              "name": "lastBorrowTime",
              "type": "uint64"
            },
            {
              "internalType": "int24",
              "name": "tick",
              "type": "int24"
            },
            {
              "internalType": "bool",
              "name": "tickSet",
              "type": "bool"
            },
            {
              "internalType": "uint64",
              "name": "tickIndex",
              "type": "uint64"
            },
            {
              "internalType": "uint32",
              "name": "ui",
              "type": "uint32"
            },
            {
              "internalType": "address",
              "name": "kickbackDestination",
              "type": "address"
            },
            {
              "internalType": "uint64",
              "name": "kickbackPortion",
              "type": "uint64"
            }
          ],
          "internalType": "struct IAccounting.DebtPosition",
          "name": "",
          "type": "tuple"
        }
      ],
      "stateMutability": "nonpayable",
      "type": "function"
    },
    {
      "inputs": [],
      "name": "twapDuration",
      "outputs": [
        {
          "internalType": "uint32",
          "name": "",
          "type": "uint32"
        }
      ],
      "stateMutability": "view",
      "type": "function"
    },
    {
      "inputs": [
        {
          "internalType": "uint256",
          "name": "lendTokenCount",
          "type": "uint256"
        }
      ],
      "name": "unlend",
      "outputs": [],
      "stateMutability": "nonpayable",
      "type": "function"
    },
    {
      "inputs": [
        {
          "components": [
            {
              "internalType": "uint256",
              "name": "startCumulativeDebt",
              "type": "uint256"
            },
            {
              "internalType": "uint256",
              "name": "collateral",
              "type": "uint256"
            },
            {
              "internalType": "uint256",
              "name": "debt",
              "type": "uint256"
            },
            {
              "internalType": "uint256",
              "name": "startDebtExchangeRate",
              "type": "uint256"
            },
            {
              "internalType": "uint256",
              "name": "startTCPRewards",
              "type": "uint256"
            },
            {
              "internalType": "uint64",
              "name": "lastTimeUpdated",
              "type": "uint64"
            },
            {
              "internalType": "uint64",
              "name": "lastBorrowTime",
              "type": "uint64"
            },
            {
              "internalType": "int24",
              "name": "tick",
              "type": "int24"
            },
            {
              "internalType": "bool",
              "name": "tickSet",
              "type": "bool"
            },
            {
              "internalType": "uint64",
              "name": "tickIndex",
              "type": "uint64"
            },
            {
              "internalType": "uint32",
              "name": "ui",
              "type": "uint32"
            },
            {
              "internalType": "address",
              "name": "kickbackDestination",
              "type": "address"
            },
            {
              "internalType": "uint64",
              "name": "kickbackPortion",
              "type": "uint64"
            }
          ],
          "internalType": "struct IAccounting.DebtPosition",
          "name": "_position",
          "type": "tuple"
        },
        {
          "components": [
            {
              "internalType": "uint256",
              "name": "debt",
              "type": "uint256"
            },
            {
              "internalType": "uint256",
              "name": "totalTCPRewards",
              "type": "uint256"
            },
            {
              "internalType": "uint256",
              "name": "cumulativeDebt",
              "type": "uint256"
            },
            {
              "internalType": "uint256",
              "name": "debtExchangeRate",
              "type": "uint256"
            }
          ],
          "internalType": "struct IAccounting.SystemDebtInfo",
          "name": "sdi",
          "type": "tuple"
        },
        {
          "internalType": "uint64",
          "name": "timeNow",
          "type": "uint64"
        }
      ],
      "name": "updatePositionImpl",
      "outputs": [
        {
          "components": [
            {
              "internalType": "uint256",
              "name": "startCumulativeDebt",
              "type": "uint256"
            },
            {
              "internalType": "uint256",
              "name": "collateral",
              "type": "uint256"
            },
            {
              "internalType": "uint256",
              "name": "debt",
              "type": "uint256"
            },
            {
              "internalType": "uint256",
              "name": "startDebtExchangeRate",
              "type": "uint256"
            },
            {
              "internalType": "uint256",
              "name": "startTCPRewards",
              "type": "uint256"
            },
            {
              "internalType": "uint64",
              "name": "lastTimeUpdated",
              "type": "uint64"
            },
            {
              "internalType": "uint64",
              "name": "lastBorrowTime",
              "type": "uint64"
            },
            {
              "internalType": "int24",
              "name": "tick",
              "type": "int24"
            },
            {
              "internalType": "bool",
              "name": "tickSet",
              "type": "bool"
            },
            {
              "internalType": "uint64",
              "name": "tickIndex",
              "type": "uint64"
            },
            {
              "internalType": "uint32",
              "name": "ui",
              "type": "uint32"
            },
            {
              "internalType": "address",
              "name": "kickbackDestination",
              "type": "address"
            },
            {
              "internalType": "uint64",
              "name": "kickbackPortion",
              "type": "uint64"
            }
          ],
          "internalType": "struct IAccounting.DebtPosition",
          "name": "position",
          "type": "tuple"
        },
        {
          "internalType": "uint256",
          "name": "rewards",
          "type": "uint256"
        }
      ],
      "stateMutability": "pure",
      "type": "function"
    },
    {
      "inputs": [
        {
          "internalType": "bytes4",
          "name": "",
          "type": "bytes4"
        }
      ],
      "name": "validUpdate",
      "outputs": [
        {
          "internalType": "bool",
          "name": "",
          "type": "bool"
        }
      ],
      "stateMutability": "view",
      "type": "function"
    },
    {
      "inputs": [
        {
          "internalType": "uint256",
          "name": "lendTokenCount",
          "type": "uint256"
        }
      ],
      "name": "valueOfLendTokensInHue",
      "outputs": [
        {
          "internalType": "uint256",
          "name": "",
          "type": "uint256"
        }
      ],
      "stateMutability": "view",
      "type": "function"
    }
  ],
  "bytecode": "0x60c0604052600160066000509090556714d1120d7b160000600760005090905568878678326eac90000060086000509090556702c68af0bb1400006009600050909055610708600b60146101000a81548163ffffffff021916908363ffffffff160217905550348015620000735760006000fd5b505b610e105b5b33600160006101000a81548173ffffffffffffffffffffffffffffffffffffffff021916908373ffffffffffffffffffffffffffffffffffffffff1602179055505b60018167ffffffffffffffff16620000d96200013b60201b60201c565b67ffffffffffffffff16811515620000ed57fe5b040367ffffffffffffffff1660a08167ffffffffffffffff1660c01b815260080150508067ffffffffffffffff1660808167ffffffffffffffff1660c01b815260080150505b505b620001f1565b600062000155426200015d60201b62001ee817909060201c565b905080505b90565b60006801000000000000000082101515620001e3576040517f08c379a00000000000000000000000000000000000000000000000000000000081526004018080602001828103825260118152602001807f6d6f7265207468616e203634206269747300000000000000000000000000000081526020015060200191505060405180910390fd5b819050620001ec565b919050565b60805160c01c60a05160c01c6162126200022f60003980611b5652806120e452806149a7525080611b7a528061210552806149c852506162126000f3fe6080604052600436106101e65760003560e01c8063875bbc5111610102578063c4e3a63b11610095578063e11c876211610064578063e11c87621461069b578063eb6843ce146106d9578063ef5e1cac14610717578063f6979f2914610741576101e6565b8063c4e3a63b146105ff578063d2ca21151461062b578063d5f3948814610657578063d861b0e814610683576101e6565b8063b2326b57116100d1578063b2326b5714610553578063b6ae213a1461057d578063bb8313c2146105a9578063c433c80a146105d5576101e6565b8063875bbc51146104bb578063a6aa57ce146104e5578063a6afed951461050f578063a89f51ae14610527576101e6565b806326d895451161017a5780635658c012116101495780635658c0121461041d5780635a6127a91461044957806375f12b21146104735780637b809bdd1461049f576101e6565b806326d89545146103575780632cae0269146103835780632e6c6f84146103af5780634ff34aca146103df576101e6565b80630c340a24116101b65780630c340a2414610299578063113cf1ab146102c5578063197b1bf51461030357806319ab453c1461032d576101e6565b8062b2a044146101ec578063060406181461022b57806306972dcd1461025757806307da68f514610281576101e6565b60006000fd5b3480156101f95760006000fd5b50610214600480360381019061020f9190615574565b61076d565b604051610222929190615fab565b60405180910390f35b3480156102385760006000fd5b50610241610799565b60405161024e9190616080565b60405180910390f35b3480156102645760006000fd5b5061027f600480360381019061027a919061575a565b6107b1565b005b34801561028e5760006000fd5b5061029761081b565b005b3480156102a65760006000fd5b506102af61083b565b6040516102bc9190615bd8565b60405180910390f35b3480156102d25760006000fd5b506102ed60048036038101906102e89190615308565b610861565b6040516102fa9190615bc4565b60405180910390f35b3480156103105760006000fd5b5061032b6004803603810190610326919061575a565b610886565b005b34801561033a5760006000fd5b506103556004803603810190610350919061537c565b610a54565b005b3480156103645760006000fd5b5061036d610e65565b60405161037a9190616050565b60405180910390f35b3480156103905760006000fd5b50610399610e7b565b6040516103a69190615c00565b60405180910390f35b6103c960048036038101906103c49190615792565b610ea1565b6040516103d69190616080565b60405180910390f35b3480156103ec5760006000fd5b50610407600480360381019061040291906156ed565b61107d565b6040516104149190615f56565b60405180910390f35b34801561042a5760006000fd5b506104336110aa565b6040516104409190615ffe565b60405180910390f35b3480156104565760006000fd5b50610471600480360381019061046c919061575a565b6110b3565b005b3480156104805760006000fd5b5061048961113a565b6040516104969190615bc4565b60405180910390f35b6104b960048036038101906104b49190615838565b61114d565b005b3480156104c85760006000fd5b506104e360048036038101906104de9190615888565b611337565b005b3480156104f25760006000fd5b5061050d6004803603810190610508919061575a565b61159e565b005b34801561051c5760006000fd5b506105256117df565b005b3480156105345760006000fd5b5061053d61180d565b60405161054a9190615c28565b60405180910390f35b3480156105605760006000fd5b5061057b600480360381019061057691906157ea565b611833565b005b34801561058a5760006000fd5b50610593611a9a565b6040516105a09190616080565b60405180910390f35b3480156105b65760006000fd5b506105bf611ab4565b6040516105cc9190615ffe565b60405180910390f35b3480156105e25760006000fd5b506105fd60048036038101906105f891906157c3565b611abd565b005b34801561060c5760006000fd5b50610615611b54565b6040516106229190616080565b60405180910390f35b3480156106385760006000fd5b50610641611b78565b60405161064e9190616080565b60405180910390f35b3480156106645760006000fd5b5061066d611b9c565b60405161067a9190615aae565b60405180910390f35b3480156106905760006000fd5b50610699611bc2565b005b3480156106a85760006000fd5b506106c360048036038101906106be919061575a565b611caa565b6040516106d09190615ffe565b60405180910390f35b3480156106e65760006000fd5b5061070160048036038101906106fc91906157ea565b611cd8565b60405161070e9190615f91565b60405180910390f35b3480156107245760006000fd5b5061073f600480360381019061073a919061575a565b611e5d565b005b34801561074e5760006000fd5b50610757611edf565b6040516107649190615ffe565b60405180910390f35b61077561509e565b6000610788858585611f7a63ffffffff16565b80925081935050505b935093915050565b60006107a96120e063ffffffff16565b905080505b90565b6107bf61215963ffffffff16565b8060086000508190909055506040516107d7906159ea565b60405180910390207f3a64504f0bc0c335e2aecb78638a257e0351a3fe0370861fd54ee4190b9209338260405161080e9190615ffe565b60405180910390a25b5b50565b61082961215963ffffffff16565b6108376121ee63ffffffff16565b5b5b565b600060009054906101000a900473ffffffffffffffffffffffffffffffffffffffff1681565b600560005060205280600052604060002060009150909054906101000a900460ff1681565b61089461223863ffffffff16565b6108a261231763ffffffff16565b6108b46000821161236c63ffffffff16565b600033905060006108ca83611caa63ffffffff16565b9050600b60009054906101000a900473ffffffffffffffffffffffffffffffffffffffff1673ffffffffffffffffffffffffffffffffffffffff166379cc679083856040518363ffffffff1660e01b8152600401610929929190615b95565b600060405180830381600087803b1580156109445760006000fd5b505af1158015610959573d600060003e3d6000fd5b50505050600260009054906101000a900473ffffffffffffffffffffffffffffffffffffffff1673ffffffffffffffffffffffffffffffffffffffff1663b241bbac83836040518363ffffffff1660e01b81526004016109ba929190615b95565b600060405180830381600087803b1580156109d55760006000fd5b505af11580156109ea573d600060003e3d6000fd5b505050508173ffffffffffffffffffffffffffffffffffffffff167fefc56a1a7590fc4eb13cd40b6a2ceee41f3869c6ea818d20d9a18f2d6315ca188285604051610a36929190616010565b60405180910390a250505b5b610a506123b263ffffffff16565b5b50565b600160009054906101000a900473ffffffffffffffffffffffffffffffffffffffff1673ffffffffffffffffffffffffffffffffffffffff163373ffffffffffffffffffffffffffffffffffffffff16141515610ab15760006000fd5b600160159054906101000a900460ff16151515610ace5760006000fd5b80600060006101000a81548173ffffffffffffffffffffffffffffffffffffffff021916908373ffffffffffffffffffffffffffffffffffffffff160217905550600060009054906101000a900473ffffffffffffffffffffffffffffffffffffffff1673ffffffffffffffffffffffffffffffffffffffff16639624e83e6040518163ffffffff1660e01b815260040160206040518083038186803b158015610b785760006000fd5b505afa158015610b8d573d600060003e3d6000fd5b505050506040513d601f19601f82011682018060405250810190610bb19190615355565b600260006101000a81548173ffffffffffffffffffffffffffffffffffffffff021916908373ffffffffffffffffffffffffffffffffffffffff160217905550600060009054906101000a900473ffffffffffffffffffffffffffffffffffffffff1673ffffffffffffffffffffffffffffffffffffffff1663323741746040518163ffffffff1660e01b815260040160206040518083038186803b158015610c5a5760006000fd5b505afa158015610c6f573d600060003e3d6000fd5b505050506040513d601f19601f82011682018060405250810190610c9391906153a3565b600360006101000a81548173ffffffffffffffffffffffffffffffffffffffff021916908373ffffffffffffffffffffffffffffffffffffffff160217905550600060009054906101000a900473ffffffffffffffffffffffffffffffffffffffff1673ffffffffffffffffffffffffffffffffffffffff1663d478b0876040518163ffffffff1660e01b815260040160206040518083038186803b158015610d3c5760006000fd5b505afa158015610d51573d600060003e3d6000fd5b505050506040513d601f19601f82011682018060405250810190610d75919061543f565b600460006101000a81548173ffffffffffffffffffffffffffffffffffffffff021916908373ffffffffffffffffffffffffffffffffffffffff160217905550610dc361244663ffffffff16565b600160149054906101000a900460ff1615610df8576001600160156101000a81548160ff021916908315150217905550610e1e565b600160006101000a81549073ffffffffffffffffffffffffffffffffffffffff02191690555b8073ffffffffffffffffffffffffffffffffffffffff167f908408e307fc569b417f6cbec5d5a06f44a0a505ac0479b47d421a4b2fd6a1e660405160405180910390a25b50565b600b60149054906101000a900463ffffffff1681565b600b60009054906101000a900473ffffffffffffffffffffffffffffffffffffffff1681565b6000610eb161223863ffffffff16565b610ebf61299a63ffffffff16565b600034111515610f04576040517f08c379a0000000000000000000000000000000000000000000000000000000008152600401610efb90615df5565b60405180910390fd5b600a60009054906101000a900473ffffffffffffffffffffffffffffffffffffffff1673ffffffffffffffffffffffffffffffffffffffff1663755edd17336040518263ffffffff1660e01b8152600401610f5f9190615ad6565b602060405180830381600087803b158015610f7a5760006000fd5b505af1158015610f8f573d600060003e3d6000fd5b505050506040513d601f19601f82011682018060405250810190610fb39190615811565b90508050610fbf61509e565b8281610140019063ffffffff16908163ffffffff1681526020015050611017610ff88367ffffffffffffffff1683612a8f63ffffffff16565b8361100a87612f65909063ffffffff16565b600061300e63ffffffff16565b8167ffffffffffffffff163373ffffffffffffffffffffffffffffffffffffffff167f3bac2cc5a46c2a400f0a6b532080f052814635a76bccdecf39397718b2d554dd60405160405180910390a3505b5b6110766123b263ffffffff16565b5b92915050565b611085615152565b61109987878787878761370863ffffffff16565b90506110a0565b9695505050505050565b60076000505481565b6110c161215963ffffffff16565b806009600050819090905550670de0b6b3a7640000600960005054111515156110ea5760006000fd5b6040516110f690615a7d565b60405180910390207f3a64504f0bc0c335e2aecb78638a257e0351a3fe0370861fd54ee4190b9209338260405161112d9190615ffe565b60405180910390a25b5b50565b600060149054906101000a900460ff1681565b61115b61223863ffffffff16565b61116961299a63ffffffff16565b611226600a60009054906101000a900473ffffffffffffffffffffffffffffffffffffffff1673ffffffffffffffffffffffffffffffffffffffff1663430c208133876040518363ffffffff1660e01b81526004016111c9929190615b5c565b60206040518083038186803b1580156111e25760006000fd5b505afa1580156111f7573d600060003e3d6000fd5b505050506040513d601f19601f8201168201806040525081019061121b91906152e1565b6138f663ffffffff16565b60006112ef8567ffffffffffffffff16600260009054906101000a900473ffffffffffffffffffffffffffffffffffffffff1673ffffffffffffffffffffffffffffffffffffffff16630f85fc5a886040518263ffffffff1660e01b81526004016112919190616080565b6101a06040518083038186803b1580156112ab5760006000fd5b505afa1580156112c0573d600060003e3d6000fd5b505050506040513d601f19601f820116820180604052508101906112e4919061548d565b612a8f63ffffffff16565b90508181610140019063ffffffff16908163ffffffff168152602001505061131f8186868661300e63ffffffff16565b505b5b6113306123b263ffffffff16565b5b50505050565b61134561223863ffffffff16565b61135361231763ffffffff16565b611410600a60009054906101000a900473ffffffffffffffffffffffffffffffffffffffff1673ffffffffffffffffffffffffffffffffffffffff1663430c208133856040518363ffffffff1660e01b81526004016113b3929190615b5c565b60206040518083038186803b1580156113cc5760006000fd5b505afa1580156113e1573d600060003e3d6000fd5b505050506040513d601f19601f8201168201806040525081019061140591906152e1565b6138f663ffffffff16565b60006114d98367ffffffffffffffff16600260009054906101000a900473ffffffffffffffffffffffffffffffffffffffff1673ffffffffffffffffffffffffffffffffffffffff16630f85fc5a866040518263ffffffff1660e01b815260040161147b9190616080565b6101a06040518083038186803b1580156114955760006000fd5b505afa1580156114aa573d600060003e3d6000fd5b505050506040513d601f19601f820116820180604052508101906114ce919061548d565b612a8f63ffffffff16565b90508181610140019063ffffffff16908163ffffffff1681526020015050600260009054906101000a900473ffffffffffffffffffffffffffffffffffffffff1673ffffffffffffffffffffffffffffffffffffffff16635a6beaf484836040518363ffffffff1660e01b815260040161155492919061609c565b600060405180830381600087803b15801561156f5760006000fd5b505af1158015611584573d600060003e3d6000fd5b50505050505b5b6115996123b263ffffffff16565b5b5050565b6115ac61223863ffffffff16565b6115ba61299a63ffffffff16565b6115cc6000821161236c63ffffffff16565b60003390506115df61393c63ffffffff16565b60006116016115f26141f463ffffffff16565b8461438590919063ffffffff16565b9050600260009054906101000a900473ffffffffffffffffffffffffffffffffffffffff1673ffffffffffffffffffffffffffffffffffffffff16632c73f09e846040518263ffffffff1660e01b815260040161165e9190615ffe565b600060405180830381600087803b1580156116795760006000fd5b505af115801561168e573d600060003e3d6000fd5b505050506116e8600360009054906101000a900473ffffffffffffffffffffffffffffffffffffffff1683600260009054906101000a900473ffffffffffffffffffffffffffffffffffffffff16866143ab63ffffffff16565b600b60009054906101000a900473ffffffffffffffffffffffffffffffffffffffff1673ffffffffffffffffffffffffffffffffffffffff1663449a52f883836040518363ffffffff1660e01b8152600401611745929190615b95565b600060405180830381600087803b1580156117605760006000fd5b505af1158015611775573d600060003e3d6000fd5b505050508173ffffffffffffffffffffffffffffffffffffffff167f8fff79b574da9a93d7a5408c2fc00c4a9b2b462321c1659b2fbbb9ff3dd221ff84836040516117c1929190616010565b60405180910390a250505b5b6117db6123b263ffffffff16565b5b50565b6117ed6145d663ffffffff16565b6117fb61393c63ffffffff16565b5b61180a61463163ffffffff16565b5b565b600a60009054906101000a900473ffffffffffffffffffffffffffffffffffffffff1681565b61184161223863ffffffff16565b61184f61299a63ffffffff16565b61190c600a60009054906101000a900473ffffffffffffffffffffffffffffffffffffffff1673ffffffffffffffffffffffffffffffffffffffff1663430c208133846040518363ffffffff1660e01b81526004016118af929190615b5c565b60206040518083038186803b1580156118c85760006000fd5b505afa1580156118dd573d600060003e3d6000fd5b505050506040513d601f19601f8201168201806040525081019061190191906152e1565b6138f663ffffffff16565b60006119d58267ffffffffffffffff16600260009054906101000a900473ffffffffffffffffffffffffffffffffffffffff1673ffffffffffffffffffffffffffffffffffffffff16630f85fc5a856040518263ffffffff1660e01b81526004016119779190616080565b6101a06040518083038186803b1580156119915760006000fd5b505afa1580156119a6573d600060003e3d6000fd5b505050506040513d601f19601f820116820180604052508101906119ca919061548d565b612a8f63ffffffff16565b9050600081610140019063ffffffff16908163ffffffff1681526020015050600260009054906101000a900473ffffffffffffffffffffffffffffffffffffffff1673ffffffffffffffffffffffffffffffffffffffff16635a6beaf483836040518363ffffffff1660e01b8152600401611a5192919061609c565b600060405180830381600087803b158015611a6c5760006000fd5b505af1158015611a81573d600060003e3d6000fd5b50505050505b5b611a966123b263ffffffff16565b5b50565b600b60189054906101000a900467ffffffffffffffff1681565b60086000505481565b611acb61215963ffffffff16565b61012c8163ffffffff1610151515611ae35760006000fd5b80600b60146101000a81548163ffffffff021916908363ffffffff160217905550604051611b1090615a1b565b60405180910390207f6293347933ad2997134e224ac8cd2e39908a4a22aeed9af52127b4bbf765297882604051611b479190616068565b60405180910390a25b5b50565b7f000000000000000000000000000000000000000000000000000000000000000081565b7f000000000000000000000000000000000000000000000000000000000000000081565b600160009054906101000a900473ffffffffffffffffffffffffffffffffffffffff1681565b600160149054906101000a900460ff168015611bea5750600160159054906101000a900460ff165b8015611c435750600160009054906101000a900473ffffffffffffffffffffffffffffffffffffffff1673ffffffffffffffffffffffffffffffffffffffff163373ffffffffffffffffffffffffffffffffffffffff16145b1515611c4f5760006000fd5b600160146101000a81549060ff0219169055600160156101000a81549060ff0219169055600160006101000a81549073ffffffffffffffffffffffffffffffffffffffff0219169055611ca661393c63ffffffff16565b5b5b565b6000611ccc611cbd6141f463ffffffff16565b8361464190919063ffffffff16565b9050611cd3565b919050565b611ce061509e565b611cee6145d663ffffffff16565b600060009054906101000a900473ffffffffffffffffffffffffffffffffffffffff1673ffffffffffffffffffffffffffffffffffffffff16639622cd8f336040518263ffffffff1660e01b8152600401611d499190615ad6565b60006040518083038186803b158015611d625760006000fd5b505afa158015611d77573d600060003e3d6000fd5b50505050611e428267ffffffffffffffff16600260009054906101000a900473ffffffffffffffffffffffffffffffffffffffff1673ffffffffffffffffffffffffffffffffffffffff16630f85fc5a856040518263ffffffff1660e01b8152600401611de49190616080565b6101a06040518083038186803b158015611dfe5760006000fd5b505afa158015611e13573d600060003e3d6000fd5b505050506040513d601f19601f82011682018060405250810190611e37919061548d565b612a8f63ffffffff16565b9050611e49565b611e5761463163ffffffff16565b5b919050565b611e6b61215963ffffffff16565b806007600050819090905550670de0b6b3a76400008110151515611e8f5760006000fd5b604051611e9b90615a4c565b60405180910390207f3a64504f0bc0c335e2aecb78638a257e0351a3fe0370861fd54ee4190b92093382604051611ed29190615ffe565b60405180910390a25b5b50565b60096000505481565b60006801000000000000000082101515611f6d576040517f08c379a00000000000000000000000000000000000000000000000000000000081526004018080602001828103825260118152602001807f6d6f7265207468616e203634206269747300000000000000000000000000000081526020015060200191505060405180910390fd5b819050611f75565b919050565b611f8261509e565b6000849150815060008260a0015167ffffffffffffffff16118015611fab575060008260400151115b1561207b57611fd18460600151836060015184604001516146679092919063ffffffff16565b82604001909081815260200150506120766120038360a001518567ffffffffffffffff1661476890919063ffffffff16565b67ffffffffffffffff16610e1067ffffffffffffffff166120676120388660800151896020015161480590919063ffffffff16565b61205387600001518a6040015161480590919063ffffffff16565b87604001516146679092919063ffffffff16565b6146679092919063ffffffff16565b905080505b836060015182606001909081815260200150508360200151826080019090818152602001505083604001518260000190908181526020015050828260a0019067ffffffffffffffff16908167ffffffffffffffff16815260200150505b935093915050565b60007f00000000000000000000000000000000000000000000000000000000000000007f000000000000000000000000000000000000000000000000000000000000000067ffffffffffffffff1661213c61488e63ffffffff16565b67ffffffffffffffff1681151561214f57fe5b0403905080505b90565b600060009054906101000a900473ffffffffffffffffffffffffffffffffffffffff1673ffffffffffffffffffffffffffffffffffffffff163373ffffffffffffffffffffffffffffffffffffffff161415156121eb576040517f08c379a00000000000000000000000000000000000000000000000000000000081526004016121e290615d38565b60405180910390fd5b5b565b6001600060146101000a81548160ff0219169083151502179055507f7acc84e34091ae817647a4c49116f5cc07f319078ba80f8f5fde37ea7e25cbd660405160405180910390a15b565b600460009054906101000a900473ffffffffffffffffffffffffffffffffffffffff1673ffffffffffffffffffffffffffffffffffffffff1663e97dcb626040518163ffffffff1660e01b8152600401600060405180830381600087803b1580156122a35760006000fd5b505af11580156122b8573d600060003e3d6000fd5b50505050600260066000505414151515612307576040517f08c379a00000000000000000000000000000000000000000000000000000000081526004016122fe90615db6565b60405180910390fd5b600260066000508190909055505b565b600060149054906101000a900460ff16151515612369576040517f08c379a000000000000000000000000000000000000000000000000000000000815260040161236090615ed8565b60405180910390fd5b5b565b8015156123ae576040517f08c379a00000000000000000000000000000000000000000000000000000000081526004016123a590615d77565b60405180910390fd5b5b50565b60016006600050819090905550600460009054906101000a900473ffffffffffffffffffffffffffffffffffffffff1673ffffffffffffffffffffffffffffffffffffffff1663e9fad8ee6040518163ffffffff1660e01b8152600401600060405180830381600087803b15801561242a5760006000fd5b505af115801561243f573d600060003e3d6000fd5b505050505b565b600060009054906101000a900473ffffffffffffffffffffffffffffffffffffffff1673ffffffffffffffffffffffffffffffffffffffff1663a89f51ae6040518163ffffffff1660e01b815260040160206040518083038186803b1580156124af5760006000fd5b505afa1580156124c4573d600060003e3d6000fd5b505050506040513d601f19601f820116820180604052508101906124e891906153f1565b600a60006101000a81548173ffffffffffffffffffffffffffffffffffffffff021916908373ffffffffffffffffffffffffffffffffffffffff160217905550600060009054906101000a900473ffffffffffffffffffffffffffffffffffffffff1673ffffffffffffffffffffffffffffffffffffffff16632cae02696040518163ffffffff1660e01b815260040160206040518083038186803b1580156125915760006000fd5b505afa1580156125a6573d600060003e3d6000fd5b505050506040513d601f19601f820116820180604052508101906125ca91906153ca565b600b60006101000a81548173ffffffffffffffffffffffffffffffffffffffff021916908373ffffffffffffffffffffffffffffffffffffffff1602179055506000600a60009054906101000a900473ffffffffffffffffffffffffffffffffffffffff1673ffffffffffffffffffffffffffffffffffffffff1663755edd17600260009054906101000a900473ffffffffffffffffffffffffffffffffffffffff166040518263ffffffff1660e01b81526004016126899190615aae565b602060405180830381600087803b1580156126a45760006000fd5b505af11580156126b9573d600060003e3d6000fd5b505050506040513d601f19601f820116820180604052508101906126dd9190615811565b67ffffffffffffffff161415156126f45760006000fd5b6126fc61509e565b600260009054906101000a900473ffffffffffffffffffffffffffffffffffffffff1673ffffffffffffffffffffffffffffffffffffffff16635a6beaf4600061274d600085612a8f63ffffffff16565b6040518363ffffffff1660e01b815260040161276a929190615c50565b600060405180830381600087803b1580156127855760006000fd5b505af115801561279a573d600060003e3d6000fd5b505050506000604051806080016040528063ef5e1cac60e01b7bffffffffffffffffffffffffffffffffffffffffffffffffffffffff19167bffffffffffffffffffffffffffffffffffffffffffffffffffffffff1916815260200163c433c80a60e01b7bffffffffffffffffffffffffffffffffffffffffffffffffffffffff19167bffffffffffffffffffffffffffffffffffffffffffffffffffffffff191681526020016306972dcd60e01b7bffffffffffffffffffffffffffffffffffffffffffffffffffffffff19167bffffffffffffffffffffffffffffffffffffffffffffffffffffffff19168152602001635a6127a960e01b7bffffffffffffffffffffffffffffffffffffffffffffffffffffffff19167bffffffffffffffffffffffffffffffffffffffffffffffffffffffff191681526020015090506000600090505b8150600481101561297957600160056000506000848460048110151561290357fe5b60200201517bffffffffffffffffffffffffffffffffffffffffffffffffffffffff19167bffffffffffffffffffffffffffffffffffffffffffffffffffffffff1916815260200190815260200160002060006101000a81548160ff0219169083151502179055505b80806001019150506128e1565b506001600160146101000a81548160ff02191690831515021790555050505b565b6129a861231763ffffffff16565b600060009054906101000a900473ffffffffffffffffffffffffffffffffffffffff1673ffffffffffffffffffffffffffffffffffffffff1663bf86d6906040518163ffffffff1660e01b815260040160206040518083038186803b158015612a115760006000fd5b505afa158015612a26573d600060003e3d6000fd5b505050506040513d601f19601f82011682018060405250810190612a4a91906152e1565b151515612a8c576040517f08c379a0000000000000000000000000000000000000000000000000000000008152600401612a8390615c7b565b60405180910390fd5b5b565b612a9761509e565b6000612aa76148a963ffffffff16565b90506000612aba826149a063ffffffff16565b9050600060008560a0015167ffffffffffffffff1614612aec57612ae78560a001516149a063ffffffff16565b612aef565b60005b90508067ffffffffffffffff168267ffffffffffffffff16111515612b1957849350505050612f5f565b612b2761393c63ffffffff16565b6000612bdb86600260009054906101000a900473ffffffffffffffffffffffffffffffffffffffff1673ffffffffffffffffffffffffffffffffffffffff166306ef2d806040518163ffffffff1660e01b815260040160806040518083038186803b158015612b965760006000fd5b505afa158015612bab573d600060003e3d6000fd5b505050506040513d601f19601f82011682018060405250810190612bcf919061568d565b86611f7a63ffffffff16565b8092508196505050600081118015612bf4575060008714155b15612f1157600073ffffffffffffffffffffffffffffffffffffffff1685610160015173ffffffffffffffffffffffffffffffffffffffff1614158015612c4a5750600085610180015167ffffffffffffffff16115b15612d7b576000612c7386610180015167ffffffffffffffff168361438590919063ffffffff16565b9050600060009054906101000a900473ffffffffffffffffffffffffffffffffffffffff1673ffffffffffffffffffffffffffffffffffffffff1663ef7a7cfa876101600151836040518363ffffffff1660e01b8152600401612cd7929190615b95565b600060405180830381600087803b158015612cf25760006000fd5b505af1158015612d07573d600060003e3d6000fd5b505050506001151586610160015173ffffffffffffffffffffffffffffffffffffffff167f8079a05488a0f375c08504c3ba8b3a1371f5a192b7a141bc9294ef7ad41389d983604051612d5a9190615ffe565b60405180910390a3612d75818361480590919063ffffffff16565b91508150505b6000600a60009054906101000a900473ffffffffffffffffffffffffffffffffffffffff1673ffffffffffffffffffffffffffffffffffffffff16636352211e896040518263ffffffff1660e01b8152600401612dd89190615ffe565b60206040518083038186803b158015612df15760006000fd5b505afa158015612e06573d600060003e3d6000fd5b505050506040513d601f19601f82011682018060405250810190612e2a91906152ba565b9050600060009054906101000a900473ffffffffffffffffffffffffffffffffffffffff1673ffffffffffffffffffffffffffffffffffffffff1663ef7a7cfa82846040518363ffffffff1660e01b8152600401612e89929190615b95565b600060405180830381600087803b158015612ea45760006000fd5b505af1158015612eb9573d600060003e3d6000fd5b50505050600015158173ffffffffffffffffffffffffffffffffffffffff167f8079a05488a0f375c08504c3ba8b3a1371f5a192b7a141bc9294ef7ad41389d984604051612f079190615ffe565b60405180910390a3505b8267ffffffffffffffff16877fc99ac0d15229fa72f1b0756c0eed4e7ede3d80f4e4e0d308ce7a56d1366b8a03876040015184604051612f52929190616010565b60405180910390a3505050505b92915050565b60007f800000000000000000000000000000000000000000000000000000000000000082101515613001576040517f08c379a00000000000000000000000000000000000000000000000000000000081526004018080602001828103825260128152602001807f746f6f2062696720666f7220696e74323536000000000000000000000000000081526020015060200191505060405180910390fd5b819050613009565b919050565b6000349050600060008413613024576000613026565b835b905060006000851261303957600061306d565b61306c7fffffffffffffffffffffffffffffffffffffffffffffffffffffffffffffffff86614a2890919063ffffffff16565b5b905060008311801561307f5750600084115b1515156130c1576040517f08c379a00000000000000000000000000000000000000000000000000000000081526004016130b890615e34565b60405180910390fd5b6130f460008411806130d35750600085115b806130de5750600083115b806130e95750600082115b61236c63ffffffff16565b60008211156131e25761310b61488e63ffffffff16565b8760c0019067ffffffffffffffff16908167ffffffffffffffff1681526020015050613144828860400151614b5e90919063ffffffff16565b8760400190908181526020015050600260009054906101000a900473ffffffffffffffffffffffffffffffffffffffff1673ffffffffffffffffffffffffffffffffffffffff16632b7c7b11836040518263ffffffff1660e01b81526004016131ad9190615ffe565b600060405180830381600087803b1580156131c85760006000fd5b505af11580156131dd573d600060003e3d6000fd5b505050505b6000811115613331576131f961488e63ffffffff16565b67ffffffffffffffff1661322a610708610e10018960c0015167ffffffffffffffff16614be790919063ffffffff16565b67ffffffffffffffff16101515613276576040517f08c379a000000000000000000000000000000000000000000000000000000000815260040161326d90615cf9565b60405180910390fd5b808760400151101561328c578660400151905080505b808760400181815103915090908181526020015050600260009054906101000a900473ffffffffffffffffffffffffffffffffffffffff1673ffffffffffffffffffffffffffffffffffffffff16632a7ba1f7826040518263ffffffff1660e01b81526004016132fc9190615ffe565b600060405180830381600087803b1580156133175760006000fd5b505af115801561332c573d600060003e3d6000fd5b505050505b600083111561336057613351838860200151614b5e90919063ffffffff16565b87602001909081815260200150505b600084111561338f5761338084886020015161480590919063ffffffff16565b87602001909081815260200150505b600087604001511115613418576008600050548760400151101515156133ea576040517f08c379a00000000000000000000000000000000000000000000000000000000081526004016133e190615e99565b60405180910390fd5b60008411806133f95750600082115b156134175761341687604001518860200151614c8463ffffffff16565b5b5b600260009054906101000a900473ffffffffffffffffffffffffffffffffffffffff1673ffffffffffffffffffffffffffffffffffffffff16635a6beaf487896040518363ffffffff1660e01b815260040161347592919061609c565b600060405180830381600087803b1580156134905760006000fd5b505af11580156134a5573d600060003e3d6000fd5b50505050600082111561354457600360009054906101000a900473ffffffffffffffffffffffffffffffffffffffff1673ffffffffffffffffffffffffffffffffffffffff1663449a52f833846040518363ffffffff1660e01b815260040161350f929190615b2d565b600060405180830381600087803b15801561352a5760006000fd5b505af115801561353f573d600060003e3d6000fd5b505050505b60008111156135df57600360009054906101000a900473ffffffffffffffffffffffffffffffffffffffff1673ffffffffffffffffffffffffffffffffffffffff166379cc679033836040518363ffffffff1660e01b81526004016135aa929190615b2d565b600060405180830381600087803b1580156135c55760006000fd5b505af11580156135da573d600060003e3d6000fd5b505050505b600083111561361b5761361a600260009054906101000a900473ffffffffffffffffffffffffffffffffffffffff1684614e5463ffffffff16565b5b60008411156136b657600260009054906101000a900473ffffffffffffffffffffffffffffffffffffffff1673ffffffffffffffffffffffffffffffffffffffff16636250216933866040518363ffffffff1660e01b8152600401613681929190615afe565b600060405180830381600087803b15801561369c5760006000fd5b505af11580156136b1573d600060003e3d6000fd5b505050505b8567ffffffffffffffff167fbbc7e03aef2c74664e8e5632c43a9cad7e6bf6eb7d0b8204e281a4fb65ca8271838386886040516136f69493929190616029565b60405180910390a25050505b50505050565b613710615152565b60008514156137475786600001518160000190908181526020015050866060015181602001909081815260200150508090506138ec565b600061378d8767ffffffffffffffff16610e1067ffffffffffffffff166301e1338081151561377257fe5b0467ffffffffffffffff16886146679092919063ffffffff16565b90506000856137b6576137b182670de0b6b3a764000061480590919063ffffffff16565b6137d2565b6137d182670de0b6b3a7640000614b5e90919063ffffffff16565b5b90506137eb818a6060015161438590919063ffffffff16565b836020019090818152602001505061381a83602001518a606001518b600001516146679092919063ffffffff16565b83600001909081815260200150508860000151836000015111156138835760008960000151846000015103905061385a858261438590919063ffffffff16565b8460600190908181526020015050836060015181038460400190908181526020015050506138e9565b8860000151836000015110156138e857600083600001518a6000015103905085811015156138d65789600001518460000190908181526020015050896060015184602001909081815260200150506138e6565b8084608001909081815260200150505b505b5b50505b9695505050505050565b801515613938576040517f08c379a000000000000000000000000000000000000000000000000000000000815260040161392f90615d38565b60405180910390fd5b5b50565b600061394c614fda63ffffffff16565b9050600b60189054906101000a900467ffffffffffffffff1667ffffffffffffffff168167ffffffffffffffff1611151561398757506141f2565b6000600b60189054906101000a900467ffffffffffffffff16820390506000600260009054906101000a900473ffffffffffffffffffffffffffffffffffffffff1673ffffffffffffffffffffffffffffffffffffffff166306ef2d806040518163ffffffff1660e01b815260040160806040518083038186803b158015613a0f5760006000fd5b505afa158015613a24573d600060003e3d6000fd5b505050506040513d601f19601f82011682018060405250810190613a48919061568d565b90506000600060009054906101000a900473ffffffffffffffffffffffffffffffffffffffff1673ffffffffffffffffffffffffffffffffffffffff166343f48fbd6040518163ffffffff1660e01b815260040160206040518083038186803b158015613ab55760006000fd5b505afa158015613aca573d600060003e3d6000fd5b505050506040513d601f19601f82011682018060405250810190613aee9190615466565b90506000613caa83858473ffffffffffffffffffffffffffffffffffffffff1663a0fc0eda6040518163ffffffff1660e01b815260040160206040518083038186803b158015613b3e5760006000fd5b505afa158015613b53573d600060003e3d6000fd5b505050506040513d601f19601f82011682018060405250810190613b779190615776565b8573ffffffffffffffffffffffffffffffffffffffff16636d7fa6646040518163ffffffff1660e01b815260040160206040518083038186803b158015613bbe5760006000fd5b505afa158015613bd3573d600060003e3d6000fd5b505050506040513d601f19601f82011682018060405250810190613bf791906152e1565b600360009054906101000a900473ffffffffffffffffffffffffffffffffffffffff1673ffffffffffffffffffffffffffffffffffffffff166375172a8b6040518163ffffffff1660e01b815260040160206040518083038186803b158015613c605760006000fd5b505afa158015613c75573d600060003e3d6000fd5b505050506040513d601f19601f82011682018060405250810190613c999190615776565b60096000505461370863ffffffff16565b90506000610e1067ffffffffffffffff1662015180811515613cc857fe5b0467ffffffffffffffff16613d938667ffffffffffffffff16600060009054906101000a900473ffffffffffffffffffffffffffffffffffffffff1673ffffffffffffffffffffffffffffffffffffffff1663a5d4198b6040518163ffffffff1660e01b8152600401602060405180830381600087803b158015613d4c5760006000fd5b505af1158015613d61573d600060003e3d6000fd5b505050506040513d601f19601f82011682018060405250810190613d859190615776565b61500090919063ffffffff16565b811515613d9c57fe5b049050604051806080016040528083600001518152602001613dcb838760200151614b5e90919063ffffffff16565b8152602001613e07613df48867ffffffffffffffff16886000015161500090919063ffffffff16565b8760400151614b5e90919063ffffffff16565b8152602001836020015181526020015093508350600260009054906101000a900473ffffffffffffffffffffffffffffffffffffffff1673ffffffffffffffffffffffffffffffffffffffff166378efc6b0856040518263ffffffff1660e01b8152600401613e769190615fcd565b600060405180830381600087803b158015613e915760006000fd5b505af1158015613ea6573d600060003e3d6000fd5b5050505085600b60186101000a81548167ffffffffffffffff021916908367ffffffffffffffff16021790555060008260600151111561402b57600260009054906101000a900473ffffffffffffffffffffffffffffffffffffffff1673ffffffffffffffffffffffffffffffffffffffff16632c73f09e83606001516040518263ffffffff1660e01b8152600401613f3f9190615ffe565b600060405180830381600087803b158015613f5a5760006000fd5b505af1158015613f6f573d600060003e3d6000fd5b50505050600360009054906101000a900473ffffffffffffffffffffffffffffffffffffffff1673ffffffffffffffffffffffffffffffffffffffff1663449a52f8600260009054906101000a900473ffffffffffffffffffffffffffffffffffffffff1684606001516040518363ffffffff1660e01b8152600401613ff6929190615b95565b600060405180830381600087803b1580156140115760006000fd5b505af1158015614026573d600060003e3d6000fd5b505050505b6000826040015111156140f057600360009054906101000a900473ffffffffffffffffffffffffffffffffffffffff1673ffffffffffffffffffffffffffffffffffffffff1663449a52f8600360009054906101000a900473ffffffffffffffffffffffffffffffffffffffff1684604001516040518363ffffffff1660e01b81526004016140bb929190615b95565b600060405180830381600087803b1580156140d65760006000fd5b505af11580156140eb573d600060003e3d6000fd5b505050505b60008260800151111561419157600360009054906101000a900473ffffffffffffffffffffffffffffffffffffffff1673ffffffffffffffffffffffffffffffffffffffff1663c59fb1ab83608001516040518263ffffffff1660e01b815260040161415c9190615ffe565b600060405180830381600087803b1580156141775760006000fd5b505af115801561418c573d600060003e3d6000fd5b505050505b8567ffffffffffffffff167fdfc2183705a66b49f12c66a6d3b2fa5cf3b7c67086e9c6e90d144befc94f436c8686600001518760200151886040015189606001516040516141e39594939291906160c7565b60405180910390a25050505050505b565b60006000600260009054906101000a900473ffffffffffffffffffffffffffffffffffffffff1673ffffffffffffffffffffffffffffffffffffffff16637f250c616040518163ffffffff1660e01b815260040160206040518083038186803b1580156142615760006000fd5b505afa158015614276573d600060003e3d6000fd5b505050506040513d601f19601f8201168201806040525081019061429a9190615776565b90506000600b60009054906101000a900473ffffffffffffffffffffffffffffffffffffffff1673ffffffffffffffffffffffffffffffffffffffff166318160ddd6040518163ffffffff1660e01b815260040160206040518083038186803b1580156143075760006000fd5b505afa15801561431c573d600060003e3d6000fd5b505050506040513d601f19601f820116820180604052508101906143409190615776565b905060008114806143515750600082145b61436d57614368828261464190919063ffffffff16565b614377565b670de0b6b3a76400005b925050506143825650505b90565b60006143a08383670de0b6b3a764000061466763ffffffff16565b905080505b92915050565b600060008573ffffffffffffffffffffffffffffffffffffffff166323b872dd60e01b868686604051602401808473ffffffffffffffffffffffffffffffffffffffff1681526020018373ffffffffffffffffffffffffffffffffffffffff1681526020018281526020019350505050604051602081830303815290604052907bffffffffffffffffffffffffffffffffffffffffffffffffffffffff19166020820180517bffffffffffffffffffffffffffffffffffffffffffffffffffffffff83818316178352505050506040518082805190602001908083835b6020831015156144ae57805182525b602082019150602081019050602083039250614488565b6001836020036101000a0380198251168184511680821785525050505050509050019150506000604051808303816000865af19150503d8060008114614510576040519150601f19603f3d011682016040523d82523d6000602084013e614515565b606091505b5091509150818015614556575060008151148061455557508080602001905160208110156145435760006000fd5b81019080805190602001909291905050505b5b15156145cd576040517f08c379a00000000000000000000000000000000000000000000000000000000081526004018080602001828103825260038152602001807f535446000000000000000000000000000000000000000000000000000000000081526020015060200191505060405180910390fd5b50505b50505050565b600260066000505414151515614621576040517f08c379a000000000000000000000000000000000000000000000000000000000815260040161461890615cba565b60405180910390fd5b600260066000508190909055505b565b600160066000508190909055505b565b600061465c83670de0b6b3a76400008461466763ffffffff16565b905080505b92915050565b60006000600060001985870985870292508281108382030391505060008114156146aa5760008411151561469b5760006000fd5b83820492508292505050614761565b80841115156146b95760006000fd5b60008486880990508281118203915080830392506000858660000316905080860495508084049350600181826000030401905080830284179350835060006002876003021890508087026002038102905080508087026002038102905080508087026002038102905080508087026002038102905080508087026002038102905080508087026002038102905080508085029550855085955050505050506147615650505050505b9392505050565b60008267ffffffffffffffff1682840391508167ffffffffffffffff16111515156147fe576040517f08c379a000000000000000000000000000000000000000000000000000000000815260040180806020018281038252600d8152602001807f7375622d756e646572666c6f770000000000000000000000000000000000000081526020015060200191505060405180910390fd5b5b92915050565b60008282840391508111151515614887576040517f08c379a000000000000000000000000000000000000000000000000000000000815260040180806020018281038252600d8152602001807f7375622d756e646572666c6f770000000000000000000000000000000000000081526020015060200191505060405180910390fd5b5b92915050565b60006148a142611ee8909063ffffffff16565b905080505b90565b60006148b961488e63ffffffff16565b905080506000600060009054906101000a900473ffffffffffffffffffffffffffffffffffffffff1673ffffffffffffffffffffffffffffffffffffffff1663585690816040518163ffffffff1660e01b815260040160206040518083038186803b1580156149285760006000fd5b505afa15801561493d573d600060003e3d6000fd5b505050506040513d601f19601f820116820180604052508101906149619190615811565b905060008167ffffffffffffffff1611801561499057508167ffffffffffffffff168167ffffffffffffffff16105b1561499b5780915081505b505b90565b6000614a1e7f00000000000000000000000000000000000000000000000000000000000000007f000000000000000000000000000000000000000000000000000000000000000067ffffffffffffffff168467ffffffffffffffff16811515614a0557fe5b0467ffffffffffffffff1661476890919063ffffffff16565b905080505b919050565b60006000831415614a3c5760009050614b58565b7fffffffffffffffffffffffffffffffffffffffffffffffffffffffffffffffff83148015614a8a57507f800000000000000000000000000000000000000000000000000000000000000082145b151515614ae2576040517f08c379a00000000000000000000000000000000000000000000000000000000081526004018080602001828103825260278152602001806161b66027913960400191505060405180910390fd5b60008284029050828482811515614af557fe5b05141515614b4e576040517f08c379a00000000000000000000000000000000000000000000000000000000081526004018080602001828103825260278152602001806161b66027913960400191505060405180910390fd5b80915050614b5856505b92915050565b60008282840191508110151515614be0576040517f08c379a000000000000000000000000000000000000000000000000000000000815260040180806020018281038252600c8152602001807f6164642d6f766572666c6f77000000000000000000000000000000000000000081526020015060200191505060405180910390fd5b5b92915050565b60008267ffffffffffffffff1682840191508167ffffffffffffffff1610151515614c7d576040517f08c379a000000000000000000000000000000000000000000000000000000000815260040180806020018281038252600c8152602001807f6164642d6f766572666c6f77000000000000000000000000000000000000000081526020015060200191505060405180910390fd5b5b92915050565b600160159054906101000a900460ff1615614c9e57614e50565b6000600060009054906101000a900473ffffffffffffffffffffffffffffffffffffffff1673ffffffffffffffffffffffffffffffffffffffff1663d3419bf36040518163ffffffff1660e01b815260040160206040518083038186803b158015614d095760006000fd5b505afa158015614d1e573d600060003e3d6000fd5b505050506040513d601f19601f82011682018060405250810190614d429190615418565b73ffffffffffffffffffffffffffffffffffffffff1663fa42dcf4600b60149054906101000a900463ffffffff166040518263ffffffff1660e01b8152600401614d8c9190616050565b60206040518083038186803b158015614da55760006000fd5b505afa158015614dba573d600060003e3d6000fd5b505050506040513d601f19601f82011682018060405250810190614dde9190615776565b9050614df88360076000505461500090919063ffffffff16565b614e0b828461500090919063ffffffff16565b10151515614e4e576040517f08c379a0000000000000000000000000000000000000000000000000000000008152600401614e4590615f17565b60405180910390fd5b505b5050565b60008273ffffffffffffffffffffffffffffffffffffffff1682600067ffffffffffffffff81118015614e875760006000fd5b506040519080825280601f01601f191660200182016040528015614eba5781602001600182028036833780820191505090505b506040518082805190602001908083835b602083101515614ef157805182525b602082019150602081019050602083039250614ecb565b6001836020036101000a03801982511681845116808217855250505050505090500191505060006040518083038185875af1925050503d8060008114614f53576040519150601f19603f3d011682016040523d82523d6000602084013e614f58565b606091505b50509050801515614fd4576040517f08c379a00000000000000000000000000000000000000000000000000000000081526004018080602001828103825260038152602001807f535445000000000000000000000000000000000000000000000000000000000081526020015060200191505060405180910390fd5b505b5050565b6000614ff8614fed6148a963ffffffff16565b6149a063ffffffff16565b905080505b90565b600060008214806150205750828283850292508281151561501d57fe5b04145b1515615097576040517f08c379a000000000000000000000000000000000000000000000000000000000815260040180806020018281038252600c8152602001807f6d756c2d6f766572666c6f77000000000000000000000000000000000000000081526020015060200191505060405180910390fd5b5b92915050565b604051806101a001604052806000815260200160008152602001600081526020016000815260200160008152602001600067ffffffffffffffff168152602001600067ffffffffffffffff168152602001600060020b8152602001600015158152602001600067ffffffffffffffff168152602001600063ffffffff168152602001600073ffffffffffffffffffffffffffffffffffffffff168152602001600067ffffffffffffffff1681526020015090565b6040518060a0016040528060008152602001600081526020016000815260200160008152602001600081526020015090566161b4565b6000813590506151978161612a565b5b919050565b6000815190506151ac8161612a565b5b919050565b6000813590506151c181616153565b5b919050565b6000815190506151d681616153565b5b919050565b6000813590506151eb81616168565b5b919050565b60008151905061520081616168565b5b919050565b600060808284031215615217578081fd5b6040516080810181811067ffffffffffffffff8211171561523457fe5b806040525080915082358152602083013560208201526040830135604082015260608301356060820152505b92915050565b6000813590506152758161617e565b5b919050565b60008151905061528a8161617e565b5b919050565b60008135905061529f81616197565b5b919050565b6000815190506152b481616197565b5b919050565b6000602082840312156152cb578081fd5b81516152d68161612a565b809150505b92915050565b6000602082840312156152f2578081fd5b81516152fd81616153565b809150505b92915050565b600060208284031215615319578081fd5b81357fffffffff0000000000000000000000000000000000000000000000000000000081168114151561534a578182fd5b809150505b92915050565b600060208284031215615366578081fd5b81516153718161612a565b809150505b92915050565b60006020828403121561538d578081fd5b81356153988161612a565b809150505b92915050565b6000602082840312156153b4578081fd5b81516153bf8161612a565b809150505b92915050565b6000602082840312156153db578081fd5b81516153e68161612a565b809150505b92915050565b600060208284031215615402578081fd5b815161540d8161612a565b809150505b92915050565b600060208284031215615429578081fd5b81516154348161612a565b809150505b92915050565b600060208284031215615450578081fd5b815161545b8161612a565b809150505b92915050565b600060208284031215615477578081fd5b81516154828161612a565b809150505b92915050565b60006101a08083850312156154a0578182fd5b6154a9816160ff565b905082518152602083015160208201526040830151604082015260608301516060820152608083015160808201526154e360a084016152a5565b60a08201526154f460c084016152a5565b60c082015261550560e084016151f1565b60e08201526101006155188185016151c7565b818301525061012061552b8185016152a5565b818301525061014061553e81850161527b565b818301525061016061555181850161519d565b81830152506101806155648185016152a5565b8183015250809150505b92915050565b60006000600083850361024081121561558b578283fd5b6101a08082121561559a578384fd5b6155a3816160ff565b915085358252602086013560208301526040860135604083015260608601356060830152608086013560808301526155dd60a08701615290565b60a08301526155ee60c08701615290565b60c08301526155ff60e087016151dc565b60e08301526101006156128188016151b2565b8184015250610120615625818801615290565b8184015250610140615638818801615266565b818401525061016061564b818801615188565b818401525061018061565e818801615290565b818401525081945061567287828801615206565b935050506156836102208501615290565b90505b9250925092565b60006080828403121561569e578081fd5b6040516080810181811067ffffffffffffffff821117156156bb57fe5b806040525082518152602083015160208201526040830151604082015260608301516060820152809150505b92915050565b6000600060006000600060006101208789031215615709578384fd5b6157138888615206565b9550608087013561572381616197565b8095505060a0870135935060c087013561573c81616153565b8093505060e0870135915061010087013590505b9295509295509295565b60006020828403121561576b578081fd5b813590505b92915050565b600060208284031215615787578081fd5b815190505b92915050565b60006000604083850312156157a5578182fd5b8235915060208301356157b78161617e565b809150505b9250929050565b6000602082840312156157d4578081fd5b81356157df8161617e565b809150505b92915050565b6000602082840312156157fb578081fd5b813561580681616197565b809150505b92915050565b600060208284031215615822578081fd5b815161582d81616197565b809150505b92915050565b60006000600060006080858703121561584f578182fd5b843561585a81616197565b809450506020850135925060408501359150606085013561587a8161617e565b809150505b92959194509250565b600060006040838503121561589b578182fd5b82356158a681616197565b8092505060208301356158b88161617e565b809150505b9250929050565b73ffffffffffffffffffffffffffffffffffffffff811682525b5050565b80151582525b5050565b8060020b82525b5050565b805182526020810151602083015260408101516040830152606081015160608301526080810151608083015260a081015161593560a08401826159d8565b5060c081015161594860c08401826159d8565b5060e081015161595b60e08401826158ec565b506101008082015161596f828501826158e2565b505061012080820151615984828501826159d8565b505061014080820151615999828501826159ca565b5050610160808201516159ae828501826158c4565b5050610180808201516159c3828501826159d8565b50505b5050565b63ffffffff811682525b5050565b67ffffffffffffffff811682525b5050565b60007f6d696e506f736974696f6e53697a6500000000000000000000000000000000008252600f820190505b919050565b60007f747761704475726174696f6e00000000000000000000000000000000000000008252600c820190505b919050565b60007f636f6c6c61746572616c697a6174696f6e526571756972656d656e74000000008252601c820190505b919050565b60007f696e746572657374506f7274696f6e546f4c656e64657273000000000000000082526018820190505b919050565b600060208201905073ffffffffffffffffffffffffffffffffffffffff831682525b92915050565b600060208201905073ffffffffffffffffffffffffffffffffffffffff831682525b92915050565b600060408201905073ffffffffffffffffffffffffffffffffffffffff841682528260208301525b9392505050565b600060408201905073ffffffffffffffffffffffffffffffffffffffff841682528260208301525b9392505050565b600060408201905073ffffffffffffffffffffffffffffffffffffffff8416825267ffffffffffffffff831660208301525b9392505050565b600060408201905073ffffffffffffffffffffffffffffffffffffffff841682528260208301525b9392505050565b600060208201905082151582525b92915050565b600060208201905073ffffffffffffffffffffffffffffffffffffffff831682525b92915050565b600060208201905073ffffffffffffffffffffffffffffffffffffffff831682525b92915050565b600060208201905073ffffffffffffffffffffffffffffffffffffffff831682525b92915050565b60006101c08201905067ffffffffffffffff84168252615c7360208301846158f7565b5b9392505050565b600060208252601160208301527f50726f746f636f6c2073687574646f776e00000000000000000000000000000060408301526060820190505b919050565b600060208252600d60208301527f4c43205265656e7472616e63790000000000000000000000000000000000000060408301526060820190505b919050565b600060208252600f60208301527f4e6f20666c61736820626f72726f77000000000000000000000000000000000060408301526060820190505b919050565b600060208252600e60208301527f4e6f7420417574686f72697a656400000000000000000000000000000000000060408301526060820190505b919050565b600060208252600460208301527f4e6f6f700000000000000000000000000000000000000000000000000000000060408301526060820190505b919050565b600060208252600d60208301527f4c50205265656e7472616e63790000000000000000000000000000000000000060408301526060820190505b919050565b600060208252601360208301527f4d7573742061646420636f6c6c61746572616c0000000000000000000000000060408301526060820190505b919050565b600060208252602360208301527f43616e7420696e637265617365202620646563726561736520636f6c6c61746560408301527f72616c000000000000000000000000000000000000000000000000000000000060608301526080820190505b919050565b600060208252601260208301527f506f736974696f6e20746f6f20736d616c6c000000000000000000000000000060408301526060820190505b919050565b600060208252601360208301527f436f6e74726163742069732073746f707065640000000000000000000000000060408301526060820190505b919050565b600060208252601760208301527f496e73756666696369656e7420636f6c6c61746572616c00000000000000000060408301526060820190505b919050565b600060a08201905082518252602083015160208301526040830151604083015260608301516060830152608083015160808301525b92915050565b60006101a082019050615fa482846158f7565b5b92915050565b60006101c082019050615fbe82856158f7565b826101a08301525b9392505050565b6000608082019050825182526020830151602083015260408301516040830152606083015160608301525b92915050565b60006020820190508282525b92915050565b60006040820190508382528260208301525b9392505050565b60006080820190508582528460208301528360408301528260608301525b95945050505050565b600060208201905063ffffffff831682525b92915050565b600060208201905063ffffffff831682525b92915050565b600060208201905067ffffffffffffffff831682525b92915050565b60006101c08201905067ffffffffffffffff841682526160bf60208301846158f7565b5b9392505050565b600060a08201905067ffffffffffffffff871682528560208301528460408301528360608301528260808301525b9695505050505050565b6000604051905081810181811067ffffffffffffffff8211171561611f57fe5b80604052505b919050565b73ffffffffffffffffffffffffffffffffffffffff81168114151561614f5760006000fd5b5b50565b801515811415156161645760006000fd5b5b50565b8060020b8114151561617a5760006000fd5b5b50565b63ffffffff8116811415156161935760006000fd5b5b50565b67ffffffffffffffff8116811415156161b05760006000fd5b5b50565bfe5369676e6564536166654d6174683a206d756c7469706c69636174696f6e206f766572666c6f77a2646970667358221220ee37970829528a2491d6c70a05404e7b842a7a578d56afa5af62e1bb2b94a74064736f6c63430007060033",
  "linkReferences": {},
  "deployedLinkReferences": {}
}