{
  "_format": "hh-sol-artifact-1",
  "contractName": "MarketTestable",
  "sourceName": "contracts/mocks/MarketTestable.sol",
  "abi": [
    {
      "anonymous": false,
      "inputs": [
        {
          "indexed": true,
          "internalType": "address",
          "name": "governor",
          "type": "address"
        }
      ],
      "name": "Initialized",
      "type": "event"
    },
    {
      "anonymous": false,
      "inputs": [
        {
          "indexed": true,
          "internalType": "uint64",
          "name": "period",
          "type": "uint64"
        },
        {
          "indexed": false,
          "internalType": "uint64",
          "name": "periods",
          "type": "uint64"
        },
        {
          "indexed": false,
          "internalType": "uint256",
          "name": "newDebt",
          "type": "uint256"
        },
        {
          "indexed": false,
          "internalType": "uint256",
          "name": "rewardCount",
          "type": "uint256"
        },
        {
          "indexed": false,
          "internalType": "uint256",
          "name": "cumulativeDebt",
          "type": "uint256"
        },
        {
          "indexed": false,
          "internalType": "uint256",
          "name": "debtExchangeRate",
          "type": "uint256"
        }
      ],
      "name": "InterestAccrued",
      "type": "event"
    },
    {
      "anonymous": false,
      "inputs": [
        {
          "indexed": true,
          "internalType": "address",
          "name": "account",
          "type": "address"
        },
        {
          "indexed": false,
          "internalType": "uint256",
          "name": "hueCount",
          "type": "uint256"
        },
        {
          "indexed": false,
          "internalType": "uint256",
          "name": "lendTokenCount",
          "type": "uint256"
        }
      ],
      "name": "Lend",
      "type": "event"
    },
    {
      "anonymous": false,
      "inputs": [
        {
          "indexed": true,
          "internalType": "string",
          "name": "paramName",
          "type": "string"
        },
        {
          "indexed": false,
          "internalType": "uint256",
          "name": "value",
          "type": "uint256"
        }
      ],
      "name": "ParameterUpdated",
      "type": "event"
    },
    {
      "anonymous": false,
      "inputs": [
        {
          "indexed": true,
          "internalType": "string",
          "name": "paramName",
          "type": "string"
        },
        {
          "indexed": false,
          "internalType": "uint64",
          "name": "value",
          "type": "uint64"
        }
      ],
      "name": "ParameterUpdated64",
      "type": "event"
    },
    {
      "anonymous": false,
      "inputs": [
        {
          "indexed": true,
          "internalType": "string",
          "name": "paramName",
          "type": "string"
        },
        {
          "indexed": false,
          "internalType": "address",
          "name": "value",
          "type": "address"
        }
      ],
      "name": "ParameterUpdatedAddress",
      "type": "event"
    },
    {
      "anonymous": false,
      "inputs": [
        {
          "indexed": true,
          "internalType": "uint64",
          "name": "positionID",
          "type": "uint64"
        },
        {
          "indexed": false,
          "internalType": "int256",
          "name": "debtChange",
          "type": "int256"
        },
        {
          "indexed": false,
          "internalType": "int256",
          "name": "collateralChange",
          "type": "int256"
        }
      ],
      "name": "PositionAdjusted",
      "type": "event"
    },
    {
      "anonymous": false,
      "inputs": [
        {
          "indexed": true,
          "internalType": "address",
          "name": "creator",
          "type": "address"
        },
        {
          "indexed": true,
          "internalType": "uint64",
          "name": "positionID",
          "type": "uint64"
        }
      ],
      "name": "PositionCreated",
      "type": "event"
    },
    {
      "anonymous": false,
      "inputs": [
        {
          "indexed": true,
          "internalType": "uint256",
          "name": "positionID",
          "type": "uint256"
        },
        {
          "indexed": true,
          "internalType": "uint64",
          "name": "period",
          "type": "uint64"
        },
        {
          "indexed": false,
          "internalType": "uint256",
          "name": "debtAfter",
          "type": "uint256"
        },
        {
          "indexed": false,
          "internalType": "uint256",
          "name": "tcpRewards",
          "type": "uint256"
        }
      ],
      "name": "PositionUpdated",
      "type": "event"
    },
    {
      "anonymous": false,
      "inputs": [
        {
          "indexed": true,
          "internalType": "address",
          "name": "account",
          "type": "address"
        },
        {
          "indexed": true,
          "internalType": "bool",
          "name": "isKickback",
          "type": "bool"
        },
        {
          "indexed": false,
          "internalType": "uint256",
          "name": "tcpRewards",
          "type": "uint256"
        }
      ],
      "name": "RewardsDistributed",
      "type": "event"
    },
    {
      "anonymous": false,
      "inputs": [],
      "name": "Stopped",
      "type": "event"
    },
    {
      "anonymous": false,
      "inputs": [
        {
          "indexed": true,
          "internalType": "address",
          "name": "account",
          "type": "address"
        },
        {
          "indexed": false,
          "internalType": "uint256",
          "name": "hueCount",
          "type": "uint256"
        },
        {
          "indexed": false,
          "internalType": "uint256",
          "name": "lendTokenCount",
          "type": "uint256"
        }
      ],
      "name": "Unlend",
      "type": "event"
    },
    {
      "inputs": [],
      "name": "accrueInterest",
      "outputs": [],
      "stateMutability": "nonpayable",
      "type": "function"
    },
    {
      "inputs": [
        {
          "internalType": "uint64",
          "name": "positionID",
          "type": "uint64"
        },
        {
          "internalType": "int256",
          "name": "debtChange",
          "type": "int256"
        },
        {
          "internalType": "uint256",
          "name": "collateralDecrease",
          "type": "uint256"
        },
        {
          "internalType": "uint32",
          "name": "ui",
          "type": "uint32"
        }
      ],
      "name": "adjustPosition",
      "outputs": [],
      "stateMutability": "payable",
      "type": "function"
    },
    {
      "inputs": [
        {
          "components": [
            {
              "internalType": "uint256",
              "name": "debt",
              "type": "uint256"
            },
            {
              "internalType": "uint256",
              "name": "totalTCPRewards",
              "type": "uint256"
            },
            {
              "internalType": "uint256",
              "name": "cumulativeDebt",
              "type": "uint256"
            },
            {
              "internalType": "uint256",
              "name": "debtExchangeRate",
              "type": "uint256"
            }
          ],
          "internalType": "struct IAccounting.SystemDebtInfo",
          "name": "sdi",
          "type": "tuple"
        },
        {
          "internalType": "uint64",
          "name": "periods",
          "type": "uint64"
        },
        {
          "internalType": "uint256",
          "name": "annualInterestRate",
          "type": "uint256"
        },
        {
          "internalType": "bool",
          "name": "positiveInterestRate",
          "type": "bool"
        },
        {
          "internalType": "uint256",
          "name": "reserves",
          "type": "uint256"
        },
        {
          "internalType": "uint256",
          "name": "_interestPortionToLenders",
          "type": "uint256"
        }
      ],
      "name": "calculateInterest",
      "outputs": [
        {
          "components": [
            {
              "internalType": "uint256",
              "name": "newDebt",
              "type": "uint256"
            },
            {
              "internalType": "uint256",
              "name": "newExchangeRate",
              "type": "uint256"
            },
            {
              "internalType": "uint256",
              "name": "additionalReserves",
              "type": "uint256"
            },
            {
              "internalType": "uint256",
              "name": "additionalLends",
              "type": "uint256"
            },
            {
              "internalType": "uint256",
              "name": "reducedReserves",
              "type": "uint256"
            }
          ],
          "internalType": "struct IMarket.CalculatedInterestInfo",
          "name": "cii",
          "type": "tuple"
        }
      ],
      "stateMutability": "pure",
      "type": "function"
    },
    {
      "inputs": [
        {
          "internalType": "uint64",
          "name": "positionID",
          "type": "uint64"
        },
        {
          "internalType": "uint32",
          "name": "ui",
          "type": "uint32"
        }
      ],
      "name": "claimRewards",
      "outputs": [],
      "stateMutability": "nonpayable",
      "type": "function"
    },
    {
      "inputs": [],
      "name": "collateralPool",
      "outputs": [
        {
          "internalType": "contract IUniswapV3Pool",
          "name": "",
          "type": "address"
        }
      ],
      "stateMutability": "view",
      "type": "function"
    },
    {
      "inputs": [],
      "name": "collateralizationRequirement",
      "outputs": [
        {
          "internalType": "uint256",
          "name": "",
          "type": "uint256"
        }
      ],
      "stateMutability": "view",
      "type": "function"
    },
    {
      "inputs": [],
      "name": "completeSetup",
      "outputs": [],
      "stateMutability": "nonpayable",
      "type": "function"
    },
    {
      "inputs": [
        {
          "internalType": "uint256",
          "name": "initialDebt",
          "type": "uint256"
        },
        {
          "internalType": "uint32",
          "name": "ui",
          "type": "uint32"
        }
      ],
      "name": "createPosition",
      "outputs": [
        {
          "internalType": "uint64",
          "name": "positionID",
          "type": "uint64"
        }
      ],
      "stateMutability": "payable",
      "type": "function"
    },
    {
      "inputs": [],
      "name": "currentPeriod",
      "outputs": [
        {
          "internalType": "uint64",
          "name": "period",
          "type": "uint64"
        }
      ],
      "stateMutability": "view",
      "type": "function"
    },
    {
      "inputs": [],
      "name": "deployer",
      "outputs": [
        {
          "internalType": "address",
          "name": "",
          "type": "address"
        }
      ],
      "stateMutability": "view",
      "type": "function"
    },
    {
      "inputs": [],
      "name": "firstPeriod",
      "outputs": [
        {
          "internalType": "uint64",
          "name": "",
          "type": "uint64"
        }
      ],
      "stateMutability": "view",
      "type": "function"
    },
    {
      "inputs": [],
      "name": "governor",
      "outputs": [
        {
          "internalType": "contract IGovernor",
          "name": "",
          "type": "address"
        }
      ],
      "stateMutability": "view",
      "type": "function"
    },
    {
      "inputs": [],
      "name": "huePositionNFT",
      "outputs": [
        {
          "internalType": "contract IPositionNFT",
          "name": "",
          "type": "address"
        }
      ],
      "stateMutability": "view",
      "type": "function"
    },
    {
      "inputs": [
        {
          "internalType": "contract IGovernor",
          "name": "_governor",
          "type": "address"
        }
      ],
      "name": "init",
      "outputs": [],
      "stateMutability": "nonpayable",
      "type": "function"
    },
    {
      "inputs": [],
      "name": "interestPortionToLenders",
      "outputs": [
        {
          "internalType": "uint256",
          "name": "",
          "type": "uint256"
        }
      ],
      "stateMutability": "view",
      "type": "function"
    },
    {
      "inputs": [],
      "name": "lastPeriodGlobalInterestAccrued",
      "outputs": [
        {
          "internalType": "uint64",
          "name": "",
          "type": "uint64"
        }
      ],
      "stateMutability": "view",
      "type": "function"
    },
    {
      "inputs": [
        {
          "internalType": "uint256",
          "name": "hueCount",
          "type": "uint256"
        }
      ],
      "name": "lend",
      "outputs": [],
      "stateMutability": "nonpayable",
      "type": "function"
    },
    {
      "inputs": [],
      "name": "lendHue",
      "outputs": [
        {
          "internalType": "contract ILendHue",
          "name": "",
          "type": "address"
        }
      ],
      "stateMutability": "view",
      "type": "function"
    },
    {
      "inputs": [],
      "name": "minPositionSize",
      "outputs": [
        {
          "internalType": "uint256",
          "name": "",
          "type": "uint256"
        }
      ],
      "stateMutability": "view",
      "type": "function"
    },
    {
      "inputs": [],
      "name": "periodLength",
      "outputs": [
        {
          "internalType": "uint64",
          "name": "",
          "type": "uint64"
        }
      ],
      "stateMutability": "view",
      "type": "function"
    },
    {
      "inputs": [
        {
          "internalType": "uint64",
          "name": "positionID",
          "type": "uint64"
        }
      ],
      "name": "removeKickback",
      "outputs": [],
      "stateMutability": "nonpayable",
      "type": "function"
    },
    {
      "inputs": [
        {
          "internalType": "uint256",
          "name": "requirement",
          "type": "uint256"
        }
      ],
      "name": "setCollateralizationRequirement",
      "outputs": [],
      "stateMutability": "nonpayable",
      "type": "function"
    },
    {
      "inputs": [
        {
          "internalType": "uint256",
          "name": "percentage",
          "type": "uint256"
        }
      ],
      "name": "setInterestPortionToLenders",
      "outputs": [],
      "stateMutability": "nonpayable",
      "type": "function"
    },
    {
      "inputs": [
        {
          "internalType": "uint256",
          "name": "size",
          "type": "uint256"
        }
      ],
      "name": "setMinPositionSize",
      "outputs": [],
      "stateMutability": "nonpayable",
      "type": "function"
    },
    {
      "inputs": [
        {
          "internalType": "uint32",
          "name": "duration",
          "type": "uint32"
        }
      ],
      "name": "setTwapDuration",
      "outputs": [],
      "stateMutability": "nonpayable",
      "type": "function"
    },
    {
      "inputs": [],
      "name": "stop",
      "outputs": [],
      "stateMutability": "nonpayable",
      "type": "function"
    },
    {
      "inputs": [],
      "name": "stopped",
      "outputs": [
        {
          "internalType": "bool",
          "name": "",
          "type": "bool"
        }
      ],
      "stateMutability": "view",
      "type": "function"
    },
    {
      "inputs": [
        {
          "internalType": "uint64",
          "name": "positionID",
          "type": "uint64"
        }
      ],
      "name": "systemGetUpdatedPosition",
      "outputs": [
        {
          "components": [
            {
              "internalType": "uint256",
              "name": "startCumulativeDebt",
              "type": "uint256"
            },
            {
              "internalType": "uint256",
              "name": "collateral",
              "type": "uint256"
            },
            {
              "internalType": "uint256",
              "name": "debt",
              "type": "uint256"
            },
            {
              "internalType": "uint256",
              "name": "startDebtExchangeRate",
              "type": "uint256"
            },
            {
              "internalType": "uint256",
              "name": "startTCPRewards",
              "type": "uint256"
            },
            {
              "internalType": "uint64",
              "name": "lastTimeUpdated",
              "type": "uint64"
            },
            {
              "internalType": "uint64",
              "name": "lastBorrowTime",
              "type": "uint64"
            },
            {
              "internalType": "int24",
              "name": "tick",
              "type": "int24"
            },
            {
              "internalType": "bool",
              "name": "tickSet",
              "type": "bool"
            },
            {
              "internalType": "uint64",
              "name": "tickIndex",
              "type": "uint64"
            },
            {
              "internalType": "uint32",
              "name": "ui",
              "type": "uint32"
            },
            {
              "internalType": "address",
              "name": "kickbackDestination",
              "type": "address"
            },
            {
              "internalType": "uint64",
              "name": "kickbackPortion",
              "type": "uint64"
            }
          ],
          "internalType": "struct IAccounting.DebtPosition",
          "name": "",
          "type": "tuple"
        }
      ],
      "stateMutability": "nonpayable",
      "type": "function"
    },
    {
      "inputs": [],
      "name": "twapDuration",
      "outputs": [
        {
          "internalType": "uint32",
          "name": "",
          "type": "uint32"
        }
      ],
      "stateMutability": "view",
      "type": "function"
    },
    {
      "inputs": [
        {
          "internalType": "uint256",
          "name": "lendTokenCount",
          "type": "uint256"
        }
      ],
      "name": "unlend",
      "outputs": [],
      "stateMutability": "nonpayable",
      "type": "function"
    },
    {
      "inputs": [
        {
          "components": [
            {
              "internalType": "uint256",
              "name": "startCumulativeDebt",
              "type": "uint256"
            },
            {
              "internalType": "uint256",
              "name": "collateral",
              "type": "uint256"
            },
            {
              "internalType": "uint256",
              "name": "debt",
              "type": "uint256"
            },
            {
              "internalType": "uint256",
              "name": "startDebtExchangeRate",
              "type": "uint256"
            },
            {
              "internalType": "uint256",
              "name": "startTCPRewards",
              "type": "uint256"
            },
            {
              "internalType": "uint64",
              "name": "lastTimeUpdated",
              "type": "uint64"
            },
            {
              "internalType": "uint64",
              "name": "lastBorrowTime",
              "type": "uint64"
            },
            {
              "internalType": "int24",
              "name": "tick",
              "type": "int24"
            },
            {
              "internalType": "bool",
              "name": "tickSet",
              "type": "bool"
            },
            {
              "internalType": "uint64",
              "name": "tickIndex",
              "type": "uint64"
            },
            {
              "internalType": "uint32",
              "name": "ui",
              "type": "uint32"
            },
            {
              "internalType": "address",
              "name": "kickbackDestination",
              "type": "address"
            },
            {
              "internalType": "uint64",
              "name": "kickbackPortion",
              "type": "uint64"
            }
          ],
          "internalType": "struct IAccounting.DebtPosition",
          "name": "_position",
          "type": "tuple"
        },
        {
          "components": [
            {
              "internalType": "uint256",
              "name": "debt",
              "type": "uint256"
            },
            {
              "internalType": "uint256",
              "name": "totalTCPRewards",
              "type": "uint256"
            },
            {
              "internalType": "uint256",
              "name": "cumulativeDebt",
              "type": "uint256"
            },
            {
              "internalType": "uint256",
              "name": "debtExchangeRate",
              "type": "uint256"
            }
          ],
          "internalType": "struct IAccounting.SystemDebtInfo",
          "name": "sdi",
          "type": "tuple"
        },
        {
          "internalType": "uint64",
          "name": "timeNow",
          "type": "uint64"
        }
      ],
      "name": "updatePositionImpl",
      "outputs": [
        {
          "components": [
            {
              "internalType": "uint256",
              "name": "startCumulativeDebt",
              "type": "uint256"
            },
            {
              "internalType": "uint256",
              "name": "collateral",
              "type": "uint256"
            },
            {
              "internalType": "uint256",
              "name": "debt",
              "type": "uint256"
            },
            {
              "internalType": "uint256",
              "name": "startDebtExchangeRate",
              "type": "uint256"
            },
            {
              "internalType": "uint256",
              "name": "startTCPRewards",
              "type": "uint256"
            },
            {
              "internalType": "uint64",
              "name": "lastTimeUpdated",
              "type": "uint64"
            },
            {
              "internalType": "uint64",
              "name": "lastBorrowTime",
              "type": "uint64"
            },
            {
              "internalType": "int24",
              "name": "tick",
              "type": "int24"
            },
            {
              "internalType": "bool",
              "name": "tickSet",
              "type": "bool"
            },
            {
              "internalType": "uint64",
              "name": "tickIndex",
              "type": "uint64"
            },
            {
              "internalType": "uint32",
              "name": "ui",
              "type": "uint32"
            },
            {
              "internalType": "address",
              "name": "kickbackDestination",
              "type": "address"
            },
            {
              "internalType": "uint64",
              "name": "kickbackPortion",
              "type": "uint64"
            }
          ],
          "internalType": "struct IAccounting.DebtPosition",
          "name": "position",
          "type": "tuple"
        },
        {
          "internalType": "uint256",
          "name": "rewards",
          "type": "uint256"
        }
      ],
      "stateMutability": "pure",
      "type": "function"
    },
    {
      "inputs": [
        {
          "internalType": "bytes4",
          "name": "",
          "type": "bytes4"
        }
      ],
      "name": "validUpdate",
      "outputs": [
        {
          "internalType": "bool",
          "name": "",
          "type": "bool"
        }
      ],
      "stateMutability": "view",
      "type": "function"
    },
    {
      "inputs": [
        {
          "internalType": "uint256",
          "name": "lendTokenCount",
          "type": "uint256"
        }
      ],
      "name": "valueOfLendTokensInHue",
      "outputs": [
        {
          "internalType": "uint256",
          "name": "",
          "type": "uint256"
        }
      ],
      "stateMutability": "view",
      "type": "function"
    }
  ],
  "bytecode": "0x60c0604052600160066000509090556714d1120d7b160000600760005090905568878678326eac90000060086000509090556702c68af0bb1400006009600050909055610708600b60146101000a81548163ffffffff021916908363ffffffff160217905550348015620000735760006000fd5b505b610e105b5b33600160006101000a81548173ffffffffffffffffffffffffffffffffffffffff021916908373ffffffffffffffffffffffffffffffffffffffff1602179055505b60018167ffffffffffffffff16620000d96200013b60201b60201c565b67ffffffffffffffff16811515620000ed57fe5b040367ffffffffffffffff1660a08167ffffffffffffffff1660c01b815260080150508067ffffffffffffffff1660808167ffffffffffffffff1660c01b815260080150505b505b620001f1565b600062000155426200015d60201b62001f1c17909060201c565b905080505b90565b60006801000000000000000082101515620001e3576040517f08c379a00000000000000000000000000000000000000000000000000000000081526004018080602001828103825260118152602001807f6d6f7265207468616e203634206269747300000000000000000000000000000081526020015060200191505060405180910390fd5b819050620001ec565b919050565b60805160c01c60a05160c01c61636b6200022f60003980611c4c52806121185280614b36525080611c7052806121395280614b57525061636b6000f3fe6080604052600436106102015760003560e01c8063875bbc511161011d578063c433c80a116100b0578063e11c87621161007f578063ef5e1cac11610064578063ef5e1cac14610732578063f6979f291461075c578063ff0eccf61461078857610201565b8063e11c8762146106b6578063eb6843ce146106f457610201565b8063c433c80a14610608578063c4e3a63b14610632578063d2ca21151461065e578063d5f394881461068a57610201565b8063a89f51ae116100ec578063a89f51ae1461055a578063b2326b5714610586578063b6ae213a146105b0578063bb8313c2146105dc57610201565b8063875bbc51146104d65780638aea8f7114610500578063a6aa57ce14610518578063a6afed951461054257610201565b806326d89545116101955780635658c012116101645780635658c012146104385780635a6127a91461046457806375f12b211461048e5780637b809bdd146104ba57610201565b806326d89545146103725780632cae02691461039e5780632e6c6f84146103ca5780634ff34aca146103fa57610201565b80630c340a24116101d15780630c340a24146102b4578063113cf1ab146102e0578063197b1bf51461031e57806319ab453c1461034857610201565b8062b2a04414610207578063060406181461024657806306972dcd1461027257806307da68f51461029c57610201565b60006000fd5b3480156102145760006000fd5b5061022f600480360381019061022a9190615666565b6107b4565b60405161023d929190616152565b60405180910390f35b3480156102535760006000fd5b5061025c6107e0565b6040516102699190616200565b60405180910390f35b34801561027f5760006000fd5b5061029a6004803603810190610295919061584c565b6107f8565b005b3480156102a95760006000fd5b506102b2610862565b005b3480156102c15760006000fd5b506102ca610882565b6040516102d79190615cca565b60405180910390f35b3480156102ed5760006000fd5b50610308600480360381019061030391906153ac565b6108a8565b6040516103159190615cb6565b60405180910390f35b34801561032b5760006000fd5b506103466004803603810190610341919061584c565b6108cd565b005b3480156103555760006000fd5b50610370600480360381019061036b9190615420565b610a9b565b005b34801561037f5760006000fd5b50610388610e59565b60405161039591906161d0565b60405180910390f35b3480156103ab5760006000fd5b506103b4610e6f565b6040516103c19190615cf2565b60405180910390f35b6103e460048036038101906103df9190615884565b610e95565b6040516103f19190616200565b60405180910390f35b3480156104075760006000fd5b50610422600480360381019061041d91906157df565b611071565b60405161042f91906160fd565b60405180910390f35b3480156104455760006000fd5b5061044e61109e565b60405161045b91906161a5565b60405180910390f35b3480156104715760006000fd5b5061048c6004803603810190610487919061584c565b6110a7565b005b34801561049b5760006000fd5b506104a461112e565b6040516104b19190615cb6565b60405180910390f35b6104d460048036038101906104cf919061592a565b611141565b005b3480156104e35760006000fd5b506104fe60048036038101906104f9919061597a565b61132b565b005b34801561050d5760006000fd5b50610516611592565b005b3480156105255760006000fd5b50610540600480360381019061053b919061584c565b611694565b005b34801561054f5760006000fd5b506105586118d5565b005b3480156105675760006000fd5b50610570611903565b60405161057d9190615d1a565b60405180910390f35b3480156105935760006000fd5b506105ae60048036038101906105a991906158dc565b611929565b005b3480156105bd5760006000fd5b506105c6611b90565b6040516105d39190616200565b60405180910390f35b3480156105e95760006000fd5b506105f2611baa565b6040516105ff91906161a5565b60405180910390f35b3480156106155760006000fd5b50610630600480360381019061062b91906158b5565b611bb3565b005b34801561063f5760006000fd5b50610648611c4a565b6040516106559190616200565b60405180910390f35b34801561066b5760006000fd5b50610674611c6e565b6040516106819190616200565b60405180910390f35b3480156106975760006000fd5b506106a0611c92565b6040516106ad9190615ba0565b60405180910390f35b3480156106c35760006000fd5b506106de60048036038101906106d9919061584c565b611cb8565b6040516106eb91906161a5565b60405180910390f35b3480156107015760006000fd5b5061071c600480360381019061071791906158dc565b611ce6565b6040516107299190616138565b60405180910390f35b34801561073f5760006000fd5b5061075a6004803603810190610755919061584c565b611e6b565b005b3480156107695760006000fd5b50610772611eed565b60405161077f91906161a5565b60405180910390f35b3480156107955760006000fd5b5061079e611ef6565b6040516107ab9190615d42565b60405180910390f35b6107bc615142565b60006107cf858585611fae63ffffffff16565b80925081935050505b935093915050565b60006107f061211463ffffffff16565b905080505b90565b61080661218d63ffffffff16565b80600860005081909090555060405161081e90615adc565b60405180910390207f3a64504f0bc0c335e2aecb78638a257e0351a3fe0370861fd54ee4190b9209338260405161085591906161a5565b60405180910390a25b5b50565b61087061218d63ffffffff16565b61087e61222263ffffffff16565b5b5b565b600060009054906101000a900473ffffffffffffffffffffffffffffffffffffffff1681565b600560005060205280600052604060002060009150909054906101000a900460ff1681565b6108db61226c63ffffffff16565b6108e961234b63ffffffff16565b6108fb600082116123a063ffffffff16565b6000339050600061091183611cb863ffffffff16565b9050600b60009054906101000a900473ffffffffffffffffffffffffffffffffffffffff1673ffffffffffffffffffffffffffffffffffffffff166379cc679083856040518363ffffffff1660e01b8152600401610970929190615c87565b600060405180830381600087803b15801561098b5760006000fd5b505af11580156109a0573d600060003e3d6000fd5b50505050600260009054906101000a900473ffffffffffffffffffffffffffffffffffffffff1673ffffffffffffffffffffffffffffffffffffffff1663b241bbac83836040518363ffffffff1660e01b8152600401610a01929190615c87565b600060405180830381600087803b158015610a1c5760006000fd5b505af1158015610a31573d600060003e3d6000fd5b505050508173ffffffffffffffffffffffffffffffffffffffff167fefc56a1a7590fc4eb13cd40b6a2ceee41f3869c6ea818d20d9a18f2d6315ca188285604051610a7d9291906161b7565b60405180910390a250505b5b610a976123e663ffffffff16565b5b50565b600160009054906101000a900473ffffffffffffffffffffffffffffffffffffffff1673ffffffffffffffffffffffffffffffffffffffff163373ffffffffffffffffffffffffffffffffffffffff16141515610af85760006000fd5b600160006101000a81549073ffffffffffffffffffffffffffffffffffffffff021916905580600060006101000a81548173ffffffffffffffffffffffffffffffffffffffff021916908373ffffffffffffffffffffffffffffffffffffffff160217905550600060009054906101000a900473ffffffffffffffffffffffffffffffffffffffff1673ffffffffffffffffffffffffffffffffffffffff16639624e83e6040518163ffffffff1660e01b815260040160206040518083038186803b158015610bc75760006000fd5b505afa158015610bdc573d600060003e3d6000fd5b505050506040513d601f19601f82011682018060405250810190610c0091906153f9565b600260006101000a81548173ffffffffffffffffffffffffffffffffffffffff021916908373ffffffffffffffffffffffffffffffffffffffff160217905550600060009054906101000a900473ffffffffffffffffffffffffffffffffffffffff1673ffffffffffffffffffffffffffffffffffffffff1663323741746040518163ffffffff1660e01b815260040160206040518083038186803b158015610ca95760006000fd5b505afa158015610cbe573d600060003e3d6000fd5b505050506040513d601f19601f82011682018060405250810190610ce29190615447565b600360006101000a81548173ffffffffffffffffffffffffffffffffffffffff021916908373ffffffffffffffffffffffffffffffffffffffff160217905550600060009054906101000a900473ffffffffffffffffffffffffffffffffffffffff1673ffffffffffffffffffffffffffffffffffffffff1663d478b0876040518163ffffffff1660e01b815260040160206040518083038186803b158015610d8b5760006000fd5b505afa158015610da0573d600060003e3d6000fd5b505050506040513d601f19601f82011682018060405250810190610dc491906154e3565b600460006101000a81548173ffffffffffffffffffffffffffffffffffffffff021916908373ffffffffffffffffffffffffffffffffffffffff160217905550610e1261247a63ffffffff16565b8073ffffffffffffffffffffffffffffffffffffffff167f908408e307fc569b417f6cbec5d5a06f44a0a505ac0479b47d421a4b2fd6a1e660405160405180910390a25b50565b600b60149054906101000a900463ffffffff1681565b600b60009054906101000a900473ffffffffffffffffffffffffffffffffffffffff1681565b6000610ea561226c63ffffffff16565b610eb36129b363ffffffff16565b600034111515610ef8576040517f08c379a0000000000000000000000000000000000000000000000000000000008152600401610eef90615f5d565b60405180910390fd5b600a60009054906101000a900473ffffffffffffffffffffffffffffffffffffffff1673ffffffffffffffffffffffffffffffffffffffff1663755edd17336040518263ffffffff1660e01b8152600401610f539190615bc8565b602060405180830381600087803b158015610f6e5760006000fd5b505af1158015610f83573d600060003e3d6000fd5b505050506040513d601f19601f82011682018060405250810190610fa79190615903565b90508050610fb3615142565b8281610140019063ffffffff16908163ffffffff168152602001505061100b610fec8367ffffffffffffffff1683612aa863ffffffff16565b83610ffe87612f7e909063ffffffff16565b600061302763ffffffff16565b8167ffffffffffffffff163373ffffffffffffffffffffffffffffffffffffffff167f3bac2cc5a46c2a400f0a6b532080f052814635a76bccdecf39397718b2d554dd60405160405180910390a3505b5b61106a6123e663ffffffff16565b5b92915050565b6110796151f6565b61108d87878787878761377063ffffffff16565b9050611094565b9695505050505050565b60076000505481565b6110b561218d63ffffffff16565b806009600050819090905550670de0b6b3a7640000600960005054111515156110de5760006000fd5b6040516110ea90615b6f565b60405180910390207f3a64504f0bc0c335e2aecb78638a257e0351a3fe0370861fd54ee4190b9209338260405161112191906161a5565b60405180910390a25b5b50565b600060149054906101000a900460ff1681565b61114f61226c63ffffffff16565b61115d6129b363ffffffff16565b61121a600a60009054906101000a900473ffffffffffffffffffffffffffffffffffffffff1673ffffffffffffffffffffffffffffffffffffffff1663430c208133876040518363ffffffff1660e01b81526004016111bd929190615c4e565b60206040518083038186803b1580156111d65760006000fd5b505afa1580156111eb573d600060003e3d6000fd5b505050506040513d601f19601f8201168201806040525081019061120f9190615385565b61395e63ffffffff16565b60006112e38567ffffffffffffffff16600260009054906101000a900473ffffffffffffffffffffffffffffffffffffffff1673ffffffffffffffffffffffffffffffffffffffff16630f85fc5a886040518263ffffffff1660e01b81526004016112859190616200565b6101a06040518083038186803b15801561129f5760006000fd5b505afa1580156112b4573d600060003e3d6000fd5b505050506040513d601f19601f820116820180604052508101906112d8919061557f565b612aa863ffffffff16565b90508181610140019063ffffffff16908163ffffffff16815260200150506113138186868661302763ffffffff16565b505b5b6113246123e663ffffffff16565b5b50505050565b61133961226c63ffffffff16565b61134761234b63ffffffff16565b611404600a60009054906101000a900473ffffffffffffffffffffffffffffffffffffffff1673ffffffffffffffffffffffffffffffffffffffff1663430c208133856040518363ffffffff1660e01b81526004016113a7929190615c4e565b60206040518083038186803b1580156113c05760006000fd5b505afa1580156113d5573d600060003e3d6000fd5b505050506040513d601f19601f820116820180604052508101906113f99190615385565b61395e63ffffffff16565b60006114cd8367ffffffffffffffff16600260009054906101000a900473ffffffffffffffffffffffffffffffffffffffff1673ffffffffffffffffffffffffffffffffffffffff16630f85fc5a866040518263ffffffff1660e01b815260040161146f9190616200565b6101a06040518083038186803b1580156114895760006000fd5b505afa15801561149e573d600060003e3d6000fd5b505050506040513d601f19601f820116820180604052508101906114c2919061557f565b612aa863ffffffff16565b90508181610140019063ffffffff16908163ffffffff1681526020015050600260009054906101000a900473ffffffffffffffffffffffffffffffffffffffff1673ffffffffffffffffffffffffffffffffffffffff16635a6beaf484836040518363ffffffff1660e01b815260040161154892919061621c565b600060405180830381600087803b1580156115635760006000fd5b505af1158015611578573d600060003e3d6000fd5b50505050505b5b61158d6123e663ffffffff16565b5b5050565b6115a061218d63ffffffff16565b600060009054906101000a900473ffffffffffffffffffffffffffffffffffffffff1673ffffffffffffffffffffffffffffffffffffffff1663ff0eccf66040518163ffffffff1660e01b815260040160206040518083038186803b1580156116095760006000fd5b505afa15801561161e573d600060003e3d6000fd5b505050506040513d601f19601f820116820180604052508101906116429190615558565b600c60006101000a81548173ffffffffffffffffffffffffffffffffffffffff021916908373ffffffffffffffffffffffffffffffffffffffff1602179055506116906139a463ffffffff16565b5b5b565b6116a261226c63ffffffff16565b6116b06129b363ffffffff16565b6116c2600082116123a063ffffffff16565b60003390506116d56139a463ffffffff16565b60006116f76116e861438363ffffffff16565b8461451490919063ffffffff16565b9050600260009054906101000a900473ffffffffffffffffffffffffffffffffffffffff1673ffffffffffffffffffffffffffffffffffffffff16632c73f09e846040518263ffffffff1660e01b815260040161175491906161a5565b600060405180830381600087803b15801561176f5760006000fd5b505af1158015611784573d600060003e3d6000fd5b505050506117de600360009054906101000a900473ffffffffffffffffffffffffffffffffffffffff1683600260009054906101000a900473ffffffffffffffffffffffffffffffffffffffff168661453a63ffffffff16565b600b60009054906101000a900473ffffffffffffffffffffffffffffffffffffffff1673ffffffffffffffffffffffffffffffffffffffff1663449a52f883836040518363ffffffff1660e01b815260040161183b929190615c87565b600060405180830381600087803b1580156118565760006000fd5b505af115801561186b573d600060003e3d6000fd5b505050508173ffffffffffffffffffffffffffffffffffffffff167f8fff79b574da9a93d7a5408c2fc00c4a9b2b462321c1659b2fbbb9ff3dd221ff84836040516118b79291906161b7565b60405180910390a250505b5b6118d16123e663ffffffff16565b5b50565b6118e361476563ffffffff16565b6118f16139a463ffffffff16565b5b6119006147c063ffffffff16565b5b565b600a60009054906101000a900473ffffffffffffffffffffffffffffffffffffffff1681565b61193761226c63ffffffff16565b6119456129b363ffffffff16565b611a02600a60009054906101000a900473ffffffffffffffffffffffffffffffffffffffff1673ffffffffffffffffffffffffffffffffffffffff1663430c208133846040518363ffffffff1660e01b81526004016119a5929190615c4e565b60206040518083038186803b1580156119be5760006000fd5b505afa1580156119d3573d600060003e3d6000fd5b505050506040513d601f19601f820116820180604052508101906119f79190615385565b61395e63ffffffff16565b6000611acb8267ffffffffffffffff16600260009054906101000a900473ffffffffffffffffffffffffffffffffffffffff1673ffffffffffffffffffffffffffffffffffffffff16630f85fc5a856040518263ffffffff1660e01b8152600401611a6d9190616200565b6101a06040518083038186803b158015611a875760006000fd5b505afa158015611a9c573d600060003e3d6000fd5b505050506040513d601f19601f82011682018060405250810190611ac0919061557f565b612aa863ffffffff16565b9050600081610140019063ffffffff16908163ffffffff1681526020015050600260009054906101000a900473ffffffffffffffffffffffffffffffffffffffff1673ffffffffffffffffffffffffffffffffffffffff16635a6beaf483836040518363ffffffff1660e01b8152600401611b4792919061621c565b600060405180830381600087803b158015611b625760006000fd5b505af1158015611b77573d600060003e3d6000fd5b50505050505b5b611b8c6123e663ffffffff16565b5b50565b600b60189054906101000a900467ffffffffffffffff1681565b60086000505481565b611bc161218d63ffffffff16565b61012c8163ffffffff1610151515611bd95760006000fd5b80600b60146101000a81548163ffffffff021916908363ffffffff160217905550604051611c0690615b0d565b60405180910390207f6293347933ad2997134e224ac8cd2e39908a4a22aeed9af52127b4bbf765297882604051611c3d91906161e8565b60405180910390a25b5b50565b7f000000000000000000000000000000000000000000000000000000000000000081565b7f000000000000000000000000000000000000000000000000000000000000000081565b600160009054906101000a900473ffffffffffffffffffffffffffffffffffffffff1681565b6000611cda611ccb61438363ffffffff16565b836147d090919063ffffffff16565b9050611ce1565b919050565b611cee615142565b611cfc61476563ffffffff16565b600060009054906101000a900473ffffffffffffffffffffffffffffffffffffffff1673ffffffffffffffffffffffffffffffffffffffff16639622cd8f336040518263ffffffff1660e01b8152600401611d579190615bc8565b60006040518083038186803b158015611d705760006000fd5b505afa158015611d85573d600060003e3d6000fd5b50505050611e508267ffffffffffffffff16600260009054906101000a900473ffffffffffffffffffffffffffffffffffffffff1673ffffffffffffffffffffffffffffffffffffffff16630f85fc5a856040518263ffffffff1660e01b8152600401611df29190616200565b6101a06040518083038186803b158015611e0c5760006000fd5b505afa158015611e21573d600060003e3d6000fd5b505050506040513d601f19601f82011682018060405250810190611e45919061557f565b612aa863ffffffff16565b9050611e57565b611e656147c063ffffffff16565b5b919050565b611e7961218d63ffffffff16565b806007600050819090905550670de0b6b3a76400008110151515611e9d5760006000fd5b604051611ea990615b3e565b60405180910390207f3a64504f0bc0c335e2aecb78638a257e0351a3fe0370861fd54ee4190b92093382604051611ee091906161a5565b60405180910390a25b5b50565b60096000505481565b600c60009054906101000a900473ffffffffffffffffffffffffffffffffffffffff1681565b60006801000000000000000082101515611fa1576040517f08c379a00000000000000000000000000000000000000000000000000000000081526004018080602001828103825260118152602001807f6d6f7265207468616e203634206269747300000000000000000000000000000081526020015060200191505060405180910390fd5b819050611fa9565b919050565b611fb6615142565b6000849150815060008260a0015167ffffffffffffffff16118015611fdf575060008260400151115b156120af576120058460600151836060015184604001516147f69092919063ffffffff16565b82604001909081815260200150506120aa6120378360a001518567ffffffffffffffff166148f790919063ffffffff16565b67ffffffffffffffff16610e1067ffffffffffffffff1661209b61206c8660800151896020015161499490919063ffffffff16565b61208787600001518a6040015161499490919063ffffffff16565b87604001516147f69092919063ffffffff16565b6147f69092919063ffffffff16565b905080505b836060015182606001909081815260200150508360200151826080019090818152602001505083604001518260000190908181526020015050828260a0019067ffffffffffffffff16908167ffffffffffffffff16815260200150505b935093915050565b60007f00000000000000000000000000000000000000000000000000000000000000007f000000000000000000000000000000000000000000000000000000000000000067ffffffffffffffff16612170614a1d63ffffffff16565b67ffffffffffffffff1681151561218357fe5b0403905080505b90565b600060009054906101000a900473ffffffffffffffffffffffffffffffffffffffff1673ffffffffffffffffffffffffffffffffffffffff163373ffffffffffffffffffffffffffffffffffffffff1614151561221f576040517f08c379a000000000000000000000000000000000000000000000000000000000815260040161221690615ea0565b60405180910390fd5b5b565b6001600060146101000a81548160ff0219169083151502179055507f7acc84e34091ae817647a4c49116f5cc07f319078ba80f8f5fde37ea7e25cbd660405160405180910390a15b565b600460009054906101000a900473ffffffffffffffffffffffffffffffffffffffff1673ffffffffffffffffffffffffffffffffffffffff1663e97dcb626040518163ffffffff1660e01b8152600401600060405180830381600087803b1580156122d75760006000fd5b505af11580156122ec573d600060003e3d6000fd5b5050505060026006600050541415151561233b576040517f08c379a000000000000000000000000000000000000000000000000000000000815260040161233290615f1e565b60405180910390fd5b600260066000508190909055505b565b600060149054906101000a900460ff1615151561239d576040517f08c379a00000000000000000000000000000000000000000000000000000000081526004016123949061607f565b60405180910390fd5b5b565b8015156123e2576040517f08c379a00000000000000000000000000000000000000000000000000000000081526004016123d990615edf565b60405180910390fd5b5b50565b60016006600050819090905550600460009054906101000a900473ffffffffffffffffffffffffffffffffffffffff1673ffffffffffffffffffffffffffffffffffffffff1663e9fad8ee6040518163ffffffff1660e01b8152600401600060405180830381600087803b15801561245e5760006000fd5b505af1158015612473573d600060003e3d6000fd5b505050505b565b600060009054906101000a900473ffffffffffffffffffffffffffffffffffffffff1673ffffffffffffffffffffffffffffffffffffffff1663a89f51ae6040518163ffffffff1660e01b815260040160206040518083038186803b1580156124e35760006000fd5b505afa1580156124f8573d600060003e3d6000fd5b505050506040513d601f19601f8201168201806040525081019061251c9190615495565b600a60006101000a81548173ffffffffffffffffffffffffffffffffffffffff021916908373ffffffffffffffffffffffffffffffffffffffff160217905550600060009054906101000a900473ffffffffffffffffffffffffffffffffffffffff1673ffffffffffffffffffffffffffffffffffffffff16632cae02696040518163ffffffff1660e01b815260040160206040518083038186803b1580156125c55760006000fd5b505afa1580156125da573d600060003e3d6000fd5b505050506040513d601f19601f820116820180604052508101906125fe919061546e565b600b60006101000a81548173ffffffffffffffffffffffffffffffffffffffff021916908373ffffffffffffffffffffffffffffffffffffffff1602179055506000600a60009054906101000a900473ffffffffffffffffffffffffffffffffffffffff1673ffffffffffffffffffffffffffffffffffffffff1663755edd17600260009054906101000a900473ffffffffffffffffffffffffffffffffffffffff166040518263ffffffff1660e01b81526004016126bd9190615ba0565b602060405180830381600087803b1580156126d85760006000fd5b505af11580156126ed573d600060003e3d6000fd5b505050506040513d601f19601f820116820180604052508101906127119190615903565b67ffffffffffffffff161415156127285760006000fd5b612730615142565b600260009054906101000a900473ffffffffffffffffffffffffffffffffffffffff1673ffffffffffffffffffffffffffffffffffffffff16635a6beaf46000612781600085612aa863ffffffff16565b6040518363ffffffff1660e01b815260040161279e929190615db8565b600060405180830381600087803b1580156127b95760006000fd5b505af11580156127ce573d600060003e3d6000fd5b505050506000604051806080016040528063ef5e1cac60e01b7bffffffffffffffffffffffffffffffffffffffffffffffffffffffff19167bffffffffffffffffffffffffffffffffffffffffffffffffffffffff1916815260200163c433c80a60e01b7bffffffffffffffffffffffffffffffffffffffffffffffffffffffff19167bffffffffffffffffffffffffffffffffffffffffffffffffffffffff191681526020016306972dcd60e01b7bffffffffffffffffffffffffffffffffffffffffffffffffffffffff19167bffffffffffffffffffffffffffffffffffffffffffffffffffffffff19168152602001635a6127a960e01b7bffffffffffffffffffffffffffffffffffffffffffffffffffffffff19167bffffffffffffffffffffffffffffffffffffffffffffffffffffffff191681526020015090506000600090505b815060048110156129ad57600160056000506000848460048110151561293757fe5b60200201517bffffffffffffffffffffffffffffffffffffffffffffffffffffffff19167bffffffffffffffffffffffffffffffffffffffffffffffffffffffff1916815260200190815260200160002060006101000a81548160ff0219169083151502179055505b8080600101915050612915565b5050505b565b6129c161234b63ffffffff16565b600060009054906101000a900473ffffffffffffffffffffffffffffffffffffffff1673ffffffffffffffffffffffffffffffffffffffff1663bf86d6906040518163ffffffff1660e01b815260040160206040518083038186803b158015612a2a5760006000fd5b505afa158015612a3f573d600060003e3d6000fd5b505050506040513d601f19601f82011682018060405250810190612a639190615385565b151515612aa5576040517f08c379a0000000000000000000000000000000000000000000000000000000008152600401612a9c90615de3565b60405180910390fd5b5b565b612ab0615142565b6000612ac0614a3863ffffffff16565b90506000612ad382614b2f63ffffffff16565b9050600060008560a0015167ffffffffffffffff1614612b0557612b008560a00151614b2f63ffffffff16565b612b08565b60005b90508067ffffffffffffffff168267ffffffffffffffff16111515612b3257849350505050612f78565b612b406139a463ffffffff16565b6000612bf486600260009054906101000a900473ffffffffffffffffffffffffffffffffffffffff1673ffffffffffffffffffffffffffffffffffffffff166306ef2d806040518163ffffffff1660e01b815260040160806040518083038186803b158015612baf5760006000fd5b505afa158015612bc4573d600060003e3d6000fd5b505050506040513d601f19601f82011682018060405250810190612be8919061577f565b86611fae63ffffffff16565b8092508196505050600081118015612c0d575060008714155b15612f2a57600073ffffffffffffffffffffffffffffffffffffffff1685610160015173ffffffffffffffffffffffffffffffffffffffff1614158015612c635750600085610180015167ffffffffffffffff16115b15612d94576000612c8c86610180015167ffffffffffffffff168361451490919063ffffffff16565b9050600060009054906101000a900473ffffffffffffffffffffffffffffffffffffffff1673ffffffffffffffffffffffffffffffffffffffff1663ef7a7cfa876101600151836040518363ffffffff1660e01b8152600401612cf0929190615c87565b600060405180830381600087803b158015612d0b5760006000fd5b505af1158015612d20573d600060003e3d6000fd5b505050506001151586610160015173ffffffffffffffffffffffffffffffffffffffff167f8079a05488a0f375c08504c3ba8b3a1371f5a192b7a141bc9294ef7ad41389d983604051612d7391906161a5565b60405180910390a3612d8e818361499490919063ffffffff16565b91508150505b6000600a60009054906101000a900473ffffffffffffffffffffffffffffffffffffffff1673ffffffffffffffffffffffffffffffffffffffff16636352211e896040518263ffffffff1660e01b8152600401612df191906161a5565b60206040518083038186803b158015612e0a5760006000fd5b505afa158015612e1f573d600060003e3d6000fd5b505050506040513d601f19601f82011682018060405250810190612e43919061535e565b9050600060009054906101000a900473ffffffffffffffffffffffffffffffffffffffff1673ffffffffffffffffffffffffffffffffffffffff1663ef7a7cfa82846040518363ffffffff1660e01b8152600401612ea2929190615c87565b600060405180830381600087803b158015612ebd5760006000fd5b505af1158015612ed2573d600060003e3d6000fd5b50505050600015158173ffffffffffffffffffffffffffffffffffffffff167f8079a05488a0f375c08504c3ba8b3a1371f5a192b7a141bc9294ef7ad41389d984604051612f2091906161a5565b60405180910390a3505b8267ffffffffffffffff16877fc99ac0d15229fa72f1b0756c0eed4e7ede3d80f4e4e0d308ce7a56d1366b8a03876040015184604051612f6b9291906161b7565b60405180910390a3505050505b92915050565b60007f80000000000000000000000000000000000000000000000000000000000000008210151561301a576040517f08c379a00000000000000000000000000000000000000000000000000000000081526004018080602001828103825260128152602001807f746f6f2062696720666f7220696e74323536000000000000000000000000000081526020015060200191505060405180910390fd5b819050613022565b919050565b600034905060008111801561303c5750600082115b15151561307e576040517f08c379a000000000000000000000000000000000000000000000000000000000815260040161307590615f9c565b60405180910390fd5b600061309182612f7e909063ffffffff16565b905060008114156130b5576130ad83612f7e909063ffffffff16565b600003905080505b6130d46000851415806130c9575060008214155b6123a063ffffffff16565b6000841415156133825760008413156131d6576000849050613103818860400151614bb790919063ffffffff16565b876040019090818152602001505061311f614a1d63ffffffff16565b8760c0019067ffffffffffffffff16908167ffffffffffffffff1681526020015050600260009054906101000a900473ffffffffffffffffffffffffffffffffffffffff1673ffffffffffffffffffffffffffffffffffffffff16632b7c7b11826040518263ffffffff1660e01b815260040161319c91906161a5565b600060405180830381600087803b1580156131b75760006000fd5b505af11580156131cc573d600060003e3d6000fd5b5050505050613381565b6000866040015111151561321f576040517f08c379a000000000000000000000000000000000000000000000000000000000815260040161321690616040565b60405180910390fd5b61322d614a1d63ffffffff16565b67ffffffffffffffff1661325e610708610e10018860c0015167ffffffffffffffff16614c4090919063ffffffff16565b67ffffffffffffffff161015156132aa576040517f08c379a00000000000000000000000000000000000000000000000000000000081526004016132a190615e61565b60405180910390fd5b83600003866040015110156132d6576132ce8660400151612f7e909063ffffffff16565b600003935083505b836000038660400181815103915090908181526020015050600260009054906101000a900473ffffffffffffffffffffffffffffffffffffffff1673ffffffffffffffffffffffffffffffffffffffff16632a7ba1f7856000036040518263ffffffff1660e01b815260040161334c91906161a5565b600060405180830381600087803b1580156133675760006000fd5b505af115801561337c573d600060003e3d6000fd5b505050505b5b6000811415156133e95760008113156133bf576133ac818760200151614bb790919063ffffffff16565b86602001909081815260200150506133e8565b6133d981600003876020015161499490919063ffffffff16565b86602001909081815260200150505b5b6000866040015114151561347357600860005054866040015110151515613445576040517f08c379a000000000000000000000000000000000000000000000000000000000815260040161343c90616001565b60405180910390fd5b60008112806134545750600084135b156134725761347186604001518760200151614cdd63ffffffff16565b5b5b600260009054906101000a900473ffffffffffffffffffffffffffffffffffffffff1673ffffffffffffffffffffffffffffffffffffffff16635a6beaf486886040518363ffffffff1660e01b81526004016134d092919061621c565b600060405180830381600087803b1580156134eb5760006000fd5b505af1158015613500573d600060003e3d6000fd5b505050506000841415156136435760008413156135ad57600360009054906101000a900473ffffffffffffffffffffffffffffffffffffffff1673ffffffffffffffffffffffffffffffffffffffff1663449a52f833866040518363ffffffff1660e01b8152600401613574929190615c1f565b600060405180830381600087803b15801561358f5760006000fd5b505af11580156135a4573d600060003e3d6000fd5b50505050613642565b600360009054906101000a900473ffffffffffffffffffffffffffffffffffffffff1673ffffffffffffffffffffffffffffffffffffffff166379cc679033866000036040518363ffffffff1660e01b815260040161360d929190615c1f565b600060405180830381600087803b1580156136285760006000fd5b505af115801561363d573d600060003e3d6000fd5b505050505b5b60008114151561372357600081131561368d57613688600260009054906101000a900473ffffffffffffffffffffffffffffffffffffffff1682614ef863ffffffff16565b613722565b600260009054906101000a900473ffffffffffffffffffffffffffffffffffffffff1673ffffffffffffffffffffffffffffffffffffffff16636250216933836000036040518363ffffffff1660e01b81526004016136ed929190615bf0565b600060405180830381600087803b1580156137085760006000fd5b505af115801561371d573d600060003e3d6000fd5b505050505b5b8467ffffffffffffffff167f0ed8d38fcfdb338f760ae5cf4b84f9ade387db12ea673e89e8da1b25857cc1c1858360405161375f929190615d9f565b60405180910390a250505b50505050565b6137786151f6565b60008514156137af578660000151816000019090818152602001505086606001518160200190908181526020015050809050613954565b60006137f58767ffffffffffffffff16610e1067ffffffffffffffff166301e133808115156137da57fe5b0467ffffffffffffffff16886147f69092919063ffffffff16565b905060008561381e5761381982670de0b6b3a764000061499490919063ffffffff16565b61383a565b61383982670de0b6b3a7640000614bb790919063ffffffff16565b5b9050613853818a6060015161451490919063ffffffff16565b836020019090818152602001505061388283602001518a606001518b600001516147f69092919063ffffffff16565b83600001909081815260200150508860000151836000015111156138eb576000896000015184600001510390506138c2858261451490919063ffffffff16565b846060019090818152602001505083606001518103846040019090818152602001505050613951565b88600001518360000151101561395057600083600001518a60000151039050858110151561393e57896000015184600001909081815260200150508960600151846020019090818152602001505061394e565b8084608001909081815260200150505b505b5b50505b9695505050505050565b8015156139a0576040517f08c379a000000000000000000000000000000000000000000000000000000000815260040161399790615ea0565b60405180910390fd5b5b50565b60006139b461507e63ffffffff16565b9050600b60189054906101000a900467ffffffffffffffff1667ffffffffffffffff168167ffffffffffffffff161115156139ef5750614381565b6000600b60189054906101000a900467ffffffffffffffff16820390506000600260009054906101000a900473ffffffffffffffffffffffffffffffffffffffff1673ffffffffffffffffffffffffffffffffffffffff166306ef2d806040518163ffffffff1660e01b815260040160806040518083038186803b158015613a775760006000fd5b505afa158015613a8c573d600060003e3d6000fd5b505050506040513d601f19601f82011682018060405250810190613ab0919061577f565b90506000600060009054906101000a900473ffffffffffffffffffffffffffffffffffffffff1673ffffffffffffffffffffffffffffffffffffffff166343f48fbd6040518163ffffffff1660e01b815260040160206040518083038186803b158015613b1d5760006000fd5b505afa158015613b32573d600060003e3d6000fd5b505050506040513d601f19601f82011682018060405250810190613b56919061550a565b90506000613d1283858473ffffffffffffffffffffffffffffffffffffffff1663a0fc0eda6040518163ffffffff1660e01b815260040160206040518083038186803b158015613ba65760006000fd5b505afa158015613bbb573d600060003e3d6000fd5b505050506040513d601f19601f82011682018060405250810190613bdf9190615868565b8573ffffffffffffffffffffffffffffffffffffffff16636d7fa6646040518163ffffffff1660e01b815260040160206040518083038186803b158015613c265760006000fd5b505afa158015613c3b573d600060003e3d6000fd5b505050506040513d601f19601f82011682018060405250810190613c5f9190615385565b600360009054906101000a900473ffffffffffffffffffffffffffffffffffffffff1673ffffffffffffffffffffffffffffffffffffffff166375172a8b6040518163ffffffff1660e01b815260040160206040518083038186803b158015613cc85760006000fd5b505afa158015613cdd573d600060003e3d6000fd5b505050506040513d601f19601f82011682018060405250810190613d019190615868565b60096000505461377063ffffffff16565b90506000613f2c8567ffffffffffffffff16610e1067ffffffffffffffff1662015180811515613d3e57fe5b0467ffffffffffffffff16613f1d600060009054906101000a900473ffffffffffffffffffffffffffffffffffffffff1673ffffffffffffffffffffffffffffffffffffffff16639ec5a8946040518163ffffffff1660e01b815260040160206040518083038186803b158015613db55760006000fd5b505afa158015613dca573d600060003e3d6000fd5b505050506040513d601f19601f82011682018060405250810190613dee9190615531565b73ffffffffffffffffffffffffffffffffffffffff16630a86f1096040518163ffffffff1660e01b815260040160206040518083038186803b158015613e345760006000fd5b505afa158015613e49573d600060003e3d6000fd5b505050506040513d601f19601f82011682018060405250810190613e6d9190615868565b600060009054906101000a900473ffffffffffffffffffffffffffffffffffffffff1673ffffffffffffffffffffffffffffffffffffffff1663c375e6ed6040518163ffffffff1660e01b815260040160206040518083038186803b158015613ed65760006000fd5b505afa158015613eeb573d600060003e3d6000fd5b505050506040513d601f19601f82011682018060405250810190613f0f9190615868565b61451490919063ffffffff16565b6147f69092919063ffffffff16565b9050604051806080016040528083600001518152602001613f5a838760200151614bb790919063ffffffff16565b8152602001613f96613f838867ffffffffffffffff1688600001516150a490919063ffffffff16565b8760400151614bb790919063ffffffff16565b8152602001836020015181526020015093508350600260009054906101000a900473ffffffffffffffffffffffffffffffffffffffff1673ffffffffffffffffffffffffffffffffffffffff166378efc6b0856040518263ffffffff1660e01b81526004016140059190616174565b600060405180830381600087803b1580156140205760006000fd5b505af1158015614035573d600060003e3d6000fd5b5050505085600b60186101000a81548167ffffffffffffffff021916908367ffffffffffffffff1602179055506000826060015111156141ba57600260009054906101000a900473ffffffffffffffffffffffffffffffffffffffff1673ffffffffffffffffffffffffffffffffffffffff16632c73f09e83606001516040518263ffffffff1660e01b81526004016140ce91906161a5565b600060405180830381600087803b1580156140e95760006000fd5b505af11580156140fe573d600060003e3d6000fd5b50505050600360009054906101000a900473ffffffffffffffffffffffffffffffffffffffff1673ffffffffffffffffffffffffffffffffffffffff1663449a52f8600260009054906101000a900473ffffffffffffffffffffffffffffffffffffffff1684606001516040518363ffffffff1660e01b8152600401614185929190615c87565b600060405180830381600087803b1580156141a05760006000fd5b505af11580156141b5573d600060003e3d6000fd5b505050505b60008260400151111561427f57600360009054906101000a900473ffffffffffffffffffffffffffffffffffffffff1673ffffffffffffffffffffffffffffffffffffffff1663449a52f8600360009054906101000a900473ffffffffffffffffffffffffffffffffffffffff1684604001516040518363ffffffff1660e01b815260040161424a929190615c87565b600060405180830381600087803b1580156142655760006000fd5b505af115801561427a573d600060003e3d6000fd5b505050505b60008260800151111561432057600360009054906101000a900473ffffffffffffffffffffffffffffffffffffffff1673ffffffffffffffffffffffffffffffffffffffff1663c59fb1ab83608001516040518263ffffffff1660e01b81526004016142eb91906161a5565b600060405180830381600087803b1580156143065760006000fd5b505af115801561431b573d600060003e3d6000fd5b505050505b8567ffffffffffffffff167fdfc2183705a66b49f12c66a6d3b2fa5cf3b7c67086e9c6e90d144befc94f436c868660000151876020015188604001518960600151604051614372959493929190616247565b60405180910390a25050505050505b565b60006000600260009054906101000a900473ffffffffffffffffffffffffffffffffffffffff1673ffffffffffffffffffffffffffffffffffffffff16637f250c616040518163ffffffff1660e01b815260040160206040518083038186803b1580156143f05760006000fd5b505afa158015614405573d600060003e3d6000fd5b505050506040513d601f19601f820116820180604052508101906144299190615868565b90506000600b60009054906101000a900473ffffffffffffffffffffffffffffffffffffffff1673ffffffffffffffffffffffffffffffffffffffff166318160ddd6040518163ffffffff1660e01b815260040160206040518083038186803b1580156144965760006000fd5b505afa1580156144ab573d600060003e3d6000fd5b505050506040513d601f19601f820116820180604052508101906144cf9190615868565b905060008114806144e05750600082145b6144fc576144f782826147d090919063ffffffff16565b614506565b670de0b6b3a76400005b925050506145115650505b90565b600061452f8383670de0b6b3a76400006147f663ffffffff16565b905080505b92915050565b600060008573ffffffffffffffffffffffffffffffffffffffff166323b872dd60e01b868686604051602401808473ffffffffffffffffffffffffffffffffffffffff1681526020018373ffffffffffffffffffffffffffffffffffffffff1681526020018281526020019350505050604051602081830303815290604052907bffffffffffffffffffffffffffffffffffffffffffffffffffffffff19166020820180517bffffffffffffffffffffffffffffffffffffffffffffffffffffffff83818316178352505050506040518082805190602001908083835b60208310151561463d57805182525b602082019150602081019050602083039250614617565b6001836020036101000a0380198251168184511680821785525050505050509050019150506000604051808303816000865af19150503d806000811461469f576040519150601f19603f3d011682016040523d82523d6000602084013e6146a4565b606091505b50915091508180156146e557506000815114806146e457508080602001905160208110156146d25760006000fd5b81019080805190602001909291905050505b5b151561475c576040517f08c379a00000000000000000000000000000000000000000000000000000000081526004018080602001828103825260038152602001807f535446000000000000000000000000000000000000000000000000000000000081526020015060200191505060405180910390fd5b50505b50505050565b6002600660005054141515156147b0576040517f08c379a00000000000000000000000000000000000000000000000000000000081526004016147a790615e22565b60405180910390fd5b600260066000508190909055505b565b600160066000508190909055505b565b60006147eb83670de0b6b3a7640000846147f663ffffffff16565b905080505b92915050565b60006000600060001985870985870292508281108382030391505060008114156148395760008411151561482a5760006000fd5b838204925082925050506148f0565b80841115156148485760006000fd5b60008486880990508281118203915080830392506000858660000316905080860495508084049350600181826000030401905080830284179350835060006002876003021890508087026002038102905080508087026002038102905080508087026002038102905080508087026002038102905080508087026002038102905080508087026002038102905080508085029550855085955050505050506148f05650505050505b9392505050565b60008267ffffffffffffffff1682840391508167ffffffffffffffff161115151561498d576040517f08c379a000000000000000000000000000000000000000000000000000000000815260040180806020018281038252600d8152602001807f7375622d756e646572666c6f770000000000000000000000000000000000000081526020015060200191505060405180910390fd5b5b92915050565b60008282840391508111151515614a16576040517f08c379a000000000000000000000000000000000000000000000000000000000815260040180806020018281038252600d8152602001807f7375622d756e646572666c6f770000000000000000000000000000000000000081526020015060200191505060405180910390fd5b5b92915050565b6000614a3042611f1c909063ffffffff16565b905080505b90565b6000614a48614a1d63ffffffff16565b905080506000600060009054906101000a900473ffffffffffffffffffffffffffffffffffffffff1673ffffffffffffffffffffffffffffffffffffffff1663585690816040518163ffffffff1660e01b815260040160206040518083038186803b158015614ab75760006000fd5b505afa158015614acc573d600060003e3d6000fd5b505050506040513d601f19601f82011682018060405250810190614af09190615903565b905060008167ffffffffffffffff16118015614b1f57508167ffffffffffffffff168167ffffffffffffffff16105b15614b2a5780915081505b505b90565b6000614bad7f00000000000000000000000000000000000000000000000000000000000000007f000000000000000000000000000000000000000000000000000000000000000067ffffffffffffffff168467ffffffffffffffff16811515614b9457fe5b0467ffffffffffffffff166148f790919063ffffffff16565b905080505b919050565b60008282840191508110151515614c39576040517f08c379a000000000000000000000000000000000000000000000000000000000815260040180806020018281038252600c8152602001807f6164642d6f766572666c6f77000000000000000000000000000000000000000081526020015060200191505060405180910390fd5b5b92915050565b60008267ffffffffffffffff1682840191508167ffffffffffffffff1610151515614cd6576040517f08c379a000000000000000000000000000000000000000000000000000000000815260040180806020018281038252600c8152602001807f6164642d6f766572666c6f77000000000000000000000000000000000000000081526020015060200191505060405180910390fd5b5b92915050565b6000600c60009054906101000a900473ffffffffffffffffffffffffffffffffffffffff169050600073ffffffffffffffffffffffffffffffffffffffff168173ffffffffffffffffffffffffffffffffffffffff161415614d3f5750614ef4565b6000600060009054906101000a900473ffffffffffffffffffffffffffffffffffffffff1673ffffffffffffffffffffffffffffffffffffffff1663d3419bf36040518163ffffffff1660e01b815260040160206040518083038186803b158015614daa5760006000fd5b505afa158015614dbf573d600060003e3d6000fd5b505050506040513d601f19601f82011682018060405250810190614de391906154bc565b73ffffffffffffffffffffffffffffffffffffffff1663d97e640083600b60149054906101000a900463ffffffff166040518363ffffffff1660e01b8152600401614e2f929190615d6a565b60206040518083038186803b158015614e485760006000fd5b505afa158015614e5d573d600060003e3d6000fd5b505050506040513d601f19601f82011682018060405250810190614e819190615868565b9050614e9b846007600050546150a490919063ffffffff16565b614eae82856150a490919063ffffffff16565b10151515614ef1576040517f08c379a0000000000000000000000000000000000000000000000000000000008152600401614ee8906160be565b60405180910390fd5b50505b5050565b60008273ffffffffffffffffffffffffffffffffffffffff1682600067ffffffffffffffff81118015614f2b5760006000fd5b506040519080825280601f01601f191660200182016040528015614f5e5781602001600182028036833780820191505090505b506040518082805190602001908083835b602083101515614f9557805182525b602082019150602081019050602083039250614f6f565b6001836020036101000a03801982511681845116808217855250505050505090500191505060006040518083038185875af1925050503d8060008114614ff7576040519150601f19603f3d011682016040523d82523d6000602084013e614ffc565b606091505b50509050801515615078576040517f08c379a00000000000000000000000000000000000000000000000000000000081526004018080602001828103825260038152602001807f535445000000000000000000000000000000000000000000000000000000000081526020015060200191505060405180910390fd5b505b5050565b600061509c615091614a3863ffffffff16565b614b2f63ffffffff16565b905080505b90565b600060008214806150c4575082828385029250828115156150c157fe5b04145b151561513b576040517f08c379a000000000000000000000000000000000000000000000000000000000815260040180806020018281038252600c8152602001807f6d756c2d6f766572666c6f77000000000000000000000000000000000000000081526020015060200191505060405180910390fd5b5b92915050565b604051806101a001604052806000815260200160008152602001600081526020016000815260200160008152602001600067ffffffffffffffff168152602001600067ffffffffffffffff168152602001600060020b8152602001600015158152602001600067ffffffffffffffff168152602001600063ffffffff168152602001600073ffffffffffffffffffffffffffffffffffffffff168152602001600067ffffffffffffffff1681526020015090565b6040518060a001604052806000815260200160008152602001600081526020016000815260200160008152602001509056616334565b60008135905061523b816162aa565b5b919050565b600081519050615250816162aa565b5b919050565b600081359050615265816162d3565b5b919050565b60008151905061527a816162d3565b5b919050565b60008135905061528f816162e8565b5b919050565b6000815190506152a4816162e8565b5b919050565b6000608082840312156152bb578081fd5b6040516080810181811067ffffffffffffffff821117156152d857fe5b806040525080915082358152602083013560208201526040830135604082015260608301356060820152505b92915050565b600081359050615319816162fe565b5b919050565b60008151905061532e816162fe565b5b919050565b60008135905061534381616317565b5b919050565b60008151905061535881616317565b5b919050565b60006020828403121561536f578081fd5b815161537a816162aa565b809150505b92915050565b600060208284031215615396578081fd5b81516153a1816162d3565b809150505b92915050565b6000602082840312156153bd578081fd5b81357fffffffff000000000000000000000000000000000000000000000000000000008116811415156153ee578182fd5b809150505b92915050565b60006020828403121561540a578081fd5b8151615415816162aa565b809150505b92915050565b600060208284031215615431578081fd5b813561543c816162aa565b809150505b92915050565b600060208284031215615458578081fd5b8151615463816162aa565b809150505b92915050565b60006020828403121561547f578081fd5b815161548a816162aa565b809150505b92915050565b6000602082840312156154a6578081fd5b81516154b1816162aa565b809150505b92915050565b6000602082840312156154cd578081fd5b81516154d8816162aa565b809150505b92915050565b6000602082840312156154f4578081fd5b81516154ff816162aa565b809150505b92915050565b60006020828403121561551b578081fd5b8151615526816162aa565b809150505b92915050565b600060208284031215615542578081fd5b815161554d816162aa565b809150505b92915050565b600060208284031215615569578081fd5b8151615574816162aa565b809150505b92915050565b60006101a0808385031215615592578182fd5b61559b8161627f565b905082518152602083015160208201526040830151604082015260608301516060820152608083015160808201526155d560a08401615349565b60a08201526155e660c08401615349565b60c08201526155f760e08401615295565b60e082015261010061560a81850161526b565b818301525061012061561d818501615349565b818301525061014061563081850161531f565b8183015250610160615643818501615241565b8183015250610180615656818501615349565b8183015250809150505b92915050565b60006000600083850361024081121561567d578283fd5b6101a08082121561568c578384fd5b6156958161627f565b915085358252602086013560208301526040860135604083015260608601356060830152608086013560808301526156cf60a08701615334565b60a08301526156e060c08701615334565b60c08301526156f160e08701615280565b60e0830152610100615704818801615256565b8184015250610120615717818801615334565b818401525061014061572a81880161530a565b818401525061016061573d81880161522c565b8184015250610180615750818801615334565b8184015250819450615764878288016152aa565b935050506157756102208501615334565b90505b9250925092565b600060808284031215615790578081fd5b6040516080810181811067ffffffffffffffff821117156157ad57fe5b806040525082518152602083015160208201526040830151604082015260608301516060820152809150505b92915050565b60006000600060006000600061012087890312156157fb578384fd5b61580588886152aa565b9550608087013561581581616317565b8095505060a0870135935060c087013561582e816162d3565b8093505060e0870135915061010087013590505b9295509295509295565b60006020828403121561585d578081fd5b813590505b92915050565b600060208284031215615879578081fd5b815190505b92915050565b6000600060408385031215615897578182fd5b8235915060208301356158a9816162fe565b809150505b9250929050565b6000602082840312156158c6578081fd5b81356158d1816162fe565b809150505b92915050565b6000602082840312156158ed578081fd5b81356158f881616317565b809150505b92915050565b600060208284031215615914578081fd5b815161591f81616317565b809150505b92915050565b600060006000600060808587031215615941578182fd5b843561594c81616317565b809450506020850135925060408501359150606085013561596c816162fe565b809150505b92959194509250565b600060006040838503121561598d578182fd5b823561599881616317565b8092505060208301356159aa816162fe565b809150505b9250929050565b73ffffffffffffffffffffffffffffffffffffffff811682525b5050565b80151582525b5050565b8060020b82525b5050565b805182526020810151602083015260408101516040830152606081015160608301526080810151608083015260a0810151615a2760a0840182615aca565b5060c0810151615a3a60c0840182615aca565b5060e0810151615a4d60e08401826159de565b5061010080820151615a61828501826159d4565b505061012080820151615a7682850182615aca565b505061014080820151615a8b82850182615abc565b505061016080820151615aa0828501826159b6565b505061018080820151615ab582850182615aca565b50505b5050565b63ffffffff811682525b5050565b67ffffffffffffffff811682525b5050565b60007f6d696e506f736974696f6e53697a6500000000000000000000000000000000008252600f820190505b919050565b60007f747761704475726174696f6e00000000000000000000000000000000000000008252600c820190505b919050565b60007f636f6c6c61746572616c697a6174696f6e526571756972656d656e74000000008252601c820190505b919050565b60007f696e746572657374506f7274696f6e546f4c656e64657273000000000000000082526018820190505b919050565b600060208201905073ffffffffffffffffffffffffffffffffffffffff831682525b92915050565b600060208201905073ffffffffffffffffffffffffffffffffffffffff831682525b92915050565b600060408201905073ffffffffffffffffffffffffffffffffffffffff841682528260208301525b9392505050565b600060408201905073ffffffffffffffffffffffffffffffffffffffff841682528260208301525b9392505050565b600060408201905073ffffffffffffffffffffffffffffffffffffffff8416825267ffffffffffffffff831660208301525b9392505050565b600060408201905073ffffffffffffffffffffffffffffffffffffffff841682528260208301525b9392505050565b600060208201905082151582525b92915050565b600060208201905073ffffffffffffffffffffffffffffffffffffffff831682525b92915050565b600060208201905073ffffffffffffffffffffffffffffffffffffffff831682525b92915050565b600060208201905073ffffffffffffffffffffffffffffffffffffffff831682525b92915050565b600060208201905073ffffffffffffffffffffffffffffffffffffffff831682525b92915050565b600060408201905073ffffffffffffffffffffffffffffffffffffffff8416825263ffffffff831660208301525b9392505050565b60006040820190508382528260208301525b9392505050565b60006101c08201905067ffffffffffffffff84168252615ddb60208301846159e9565b5b9392505050565b600060208252601160208301527f50726f746f636f6c2073687574646f776e00000000000000000000000000000060408301526060820190505b919050565b600060208252600d60208301527f4c43205265656e7472616e63790000000000000000000000000000000000000060408301526060820190505b919050565b600060208252600f60208301527f4e6f20666c61736820626f72726f77000000000000000000000000000000000060408301526060820190505b919050565b600060208252600e60208301527f4e6f7420417574686f72697a656400000000000000000000000000000000000060408301526060820190505b919050565b600060208252600460208301527f4e6f6f700000000000000000000000000000000000000000000000000000000060408301526060820190505b919050565b600060208252600d60208301527f4c50205265656e7472616e63790000000000000000000000000000000000000060408301526060820190505b919050565b600060208252601360208301527f4d7573742061646420636f6c6c61746572616c0000000000000000000000000060408301526060820190505b919050565b600060208252602360208301527f43616e7420696e637265617365202620646563726561736520636f6c6c61746560408301527f72616c000000000000000000000000000000000000000000000000000000000060608301526080820190505b919050565b600060208252601260208301527f506f736974696f6e20746f6f20736d616c6c000000000000000000000000000060408301526060820190505b919050565b600060208252601360208301527f4e6f206465627420746f20706179206261636b0000000000000000000000000060408301526060820190505b919050565b600060208252601360208301527f436f6e74726163742069732073746f707065640000000000000000000000000060408301526060820190505b919050565b600060208252601760208301527f496e73756666696369656e7420636f6c6c61746572616c00000000000000000060408301526060820190505b919050565b600060a08201905082518252602083015160208301526040830151604083015260608301516060830152608083015160808301525b92915050565b60006101a08201905061614b82846159e9565b5b92915050565b60006101c08201905061616582856159e9565b826101a08301525b9392505050565b6000608082019050825182526020830151602083015260408301516040830152606083015160608301525b92915050565b60006020820190508282525b92915050565b60006040820190508382528260208301525b9392505050565b600060208201905063ffffffff831682525b92915050565b600060208201905063ffffffff831682525b92915050565b600060208201905067ffffffffffffffff831682525b92915050565b60006101c08201905067ffffffffffffffff8416825261623f60208301846159e9565b5b9392505050565b600060a08201905067ffffffffffffffff871682528560208301528460408301528360608301528260808301525b9695505050505050565b6000604051905081810181811067ffffffffffffffff8211171561629f57fe5b80604052505b919050565b73ffffffffffffffffffffffffffffffffffffffff8116811415156162cf5760006000fd5b5b50565b801515811415156162e45760006000fd5b5b50565b8060020b811415156162fa5760006000fd5b5b50565b63ffffffff8116811415156163135760006000fd5b5b50565b67ffffffffffffffff8116811415156163305760006000fd5b5b50565bfea264697066735822122072d4570226e45ec97092d24ddeb527d5c4a94e22aa84ed7b5500bf20b287c8fc64736f6c63430007060033",
  "linkReferences": {},
  "deployedLinkReferences": {}
}