{
  "_format": "hh-sol-artifact-1",
  "contractName": "MarketTestable",
  "sourceName": "contracts/mocks/MarketTestable.sol",
  "abi": [
    {
      "anonymous": false,
      "inputs": [
        {
          "indexed": true,
          "internalType": "address",
          "name": "borrower",
          "type": "address"
        },
        {
          "indexed": true,
          "internalType": "uint64",
          "name": "positionID",
          "type": "uint64"
        },
        {
          "indexed": false,
          "internalType": "uint256",
          "name": "borrowAmount",
          "type": "uint256"
        },
        {
          "indexed": false,
          "internalType": "uint256",
          "name": "collateralIncrease",
          "type": "uint256"
        }
      ],
      "name": "Borrow",
      "type": "event"
    },
    {
      "anonymous": false,
      "inputs": [
        {
          "indexed": true,
          "internalType": "address",
          "name": "governor",
          "type": "address"
        }
      ],
      "name": "Initialized",
      "type": "event"
    },
    {
      "anonymous": false,
      "inputs": [
        {
          "indexed": true,
          "internalType": "uint64",
          "name": "period",
          "type": "uint64"
        },
        {
          "indexed": false,
          "internalType": "uint64",
          "name": "periods",
          "type": "uint64"
        },
        {
          "indexed": false,
          "internalType": "uint256",
          "name": "newDebt",
          "type": "uint256"
        },
        {
          "indexed": false,
          "internalType": "uint256",
          "name": "rewardCount",
          "type": "uint256"
        }
      ],
      "name": "InterestAccrued",
      "type": "event"
    },
    {
      "anonymous": false,
      "inputs": [
        {
          "indexed": true,
          "internalType": "address",
          "name": "account",
          "type": "address"
        },
        {
          "indexed": false,
          "internalType": "uint256",
          "name": "coinCount",
          "type": "uint256"
        },
        {
          "indexed": false,
          "internalType": "uint256",
          "name": "lendTokenCount",
          "type": "uint256"
        }
      ],
      "name": "Lend",
      "type": "event"
    },
    {
      "anonymous": false,
      "inputs": [
        {
          "indexed": true,
          "internalType": "address",
          "name": "creator",
          "type": "address"
        },
        {
          "indexed": true,
          "internalType": "uint64",
          "name": "positionID",
          "type": "uint64"
        }
      ],
      "name": "NewPositionCreated",
      "type": "event"
    },
    {
      "anonymous": false,
      "inputs": [
        {
          "indexed": true,
          "internalType": "string",
          "name": "paramName",
          "type": "string"
        },
        {
          "indexed": false,
          "internalType": "uint256",
          "name": "value",
          "type": "uint256"
        }
      ],
      "name": "ParameterUpdated",
      "type": "event"
    },
    {
      "anonymous": false,
      "inputs": [
        {
          "indexed": true,
          "internalType": "string",
          "name": "paramName",
          "type": "string"
        },
        {
          "indexed": false,
          "internalType": "uint64",
          "name": "value",
          "type": "uint64"
        }
      ],
      "name": "ParameterUpdated64",
      "type": "event"
    },
    {
      "anonymous": false,
      "inputs": [
        {
          "indexed": true,
          "internalType": "string",
          "name": "paramName",
          "type": "string"
        },
        {
          "indexed": true,
          "internalType": "enum IAccounting.Collateral",
          "name": "collateral",
          "type": "uint8"
        },
        {
          "indexed": false,
          "internalType": "uint256",
          "name": "value",
          "type": "uint256"
        }
      ],
      "name": "ParameterUpdatedByCollateral",
      "type": "event"
    },
    {
      "anonymous": false,
      "inputs": [
        {
          "indexed": true,
          "internalType": "address",
          "name": "caller",
          "type": "address"
        },
        {
          "indexed": true,
          "internalType": "uint64",
          "name": "positionID",
          "type": "uint64"
        },
        {
          "indexed": false,
          "internalType": "uint256",
          "name": "debtPaidBack",
          "type": "uint256"
        },
        {
          "indexed": false,
          "internalType": "uint256",
          "name": "collateralWithdrawn",
          "type": "uint256"
        }
      ],
      "name": "Payback",
      "type": "event"
    },
    {
      "anonymous": false,
      "inputs": [
        {
          "indexed": true,
          "internalType": "uint256",
          "name": "positionID",
          "type": "uint256"
        },
        {
          "indexed": true,
          "internalType": "uint64",
          "name": "period",
          "type": "uint64"
        },
        {
          "indexed": false,
          "internalType": "uint256",
          "name": "debtAfter",
          "type": "uint256"
        },
        {
          "indexed": false,
          "internalType": "uint256",
          "name": "cnpRewards",
          "type": "uint256"
        }
      ],
      "name": "PositionUpdated",
      "type": "event"
    },
    {
      "anonymous": false,
      "inputs": [],
      "name": "Stopped",
      "type": "event"
    },
    {
      "anonymous": false,
      "inputs": [
        {
          "indexed": true,
          "internalType": "address",
          "name": "account",
          "type": "address"
        },
        {
          "indexed": false,
          "internalType": "uint256",
          "name": "coinCount",
          "type": "uint256"
        },
        {
          "indexed": false,
          "internalType": "uint256",
          "name": "lendTokenCount",
          "type": "uint256"
        }
      ],
      "name": "Unlend",
      "type": "event"
    },
    {
      "inputs": [],
      "name": "accrueInterest",
      "outputs": [],
      "stateMutability": "nonpayable",
      "type": "function"
    },
    {
      "inputs": [
        {
          "internalType": "uint64",
          "name": "positionID",
          "type": "uint64"
        },
        {
          "internalType": "uint256",
          "name": "borrowCount",
          "type": "uint256"
        },
        {
          "internalType": "uint256",
          "name": "collateralCount",
          "type": "uint256"
        }
      ],
      "name": "borrow",
      "outputs": [],
      "stateMutability": "nonpayable",
      "type": "function"
    },
    {
      "inputs": [
        {
          "internalType": "enum IAccounting.Collateral",
          "name": "",
          "type": "uint8"
        }
      ],
      "name": "collateralizationRequirement",
      "outputs": [
        {
          "internalType": "uint256",
          "name": "",
          "type": "uint256"
        }
      ],
      "stateMutability": "view",
      "type": "function"
    },
    {
      "inputs": [
        {
          "internalType": "enum IAccounting.Collateral",
          "name": "collateralType",
          "type": "uint8"
        }
      ],
      "name": "createNewPosition",
      "outputs": [
        {
          "internalType": "uint64",
          "name": "positionID",
          "type": "uint64"
        }
      ],
      "stateMutability": "nonpayable",
      "type": "function"
    },
    {
      "inputs": [],
      "name": "currentPeriod",
      "outputs": [
        {
          "internalType": "uint64",
          "name": "period",
          "type": "uint64"
        }
      ],
      "stateMutability": "view",
      "type": "function"
    },
    {
      "inputs": [],
      "name": "deployer",
      "outputs": [
        {
          "internalType": "address",
          "name": "",
          "type": "address"
        }
      ],
      "stateMutability": "view",
      "type": "function"
    },
    {
      "inputs": [],
      "name": "firstPeriod",
      "outputs": [
        {
          "internalType": "uint64",
          "name": "",
          "type": "uint64"
        }
      ],
      "stateMutability": "view",
      "type": "function"
    },
    {
      "inputs": [
        {
          "internalType": "uint64",
          "name": "positionID",
          "type": "uint64"
        }
      ],
      "name": "getRewards",
      "outputs": [],
      "stateMutability": "nonpayable",
      "type": "function"
    },
    {
      "inputs": [],
      "name": "governor",
      "outputs": [
        {
          "internalType": "contract IGovernor",
          "name": "",
          "type": "address"
        }
      ],
      "stateMutability": "view",
      "type": "function"
    },
    {
      "inputs": [
        {
          "internalType": "contract IGovernor",
          "name": "_governor",
          "type": "address"
        }
      ],
      "name": "init",
      "outputs": [],
      "stateMutability": "nonpayable",
      "type": "function"
    },
    {
      "inputs": [],
      "name": "interestPortionToLenders",
      "outputs": [
        {
          "internalType": "uint256",
          "name": "",
          "type": "uint256"
        }
      ],
      "stateMutability": "view",
      "type": "function"
    },
    {
      "inputs": [],
      "name": "lastPeriodGlobalInterestAccrued",
      "outputs": [
        {
          "internalType": "uint64",
          "name": "",
          "type": "uint64"
        }
      ],
      "stateMutability": "view",
      "type": "function"
    },
    {
      "inputs": [
        {
          "internalType": "uint256",
          "name": "coinCount",
          "type": "uint256"
        }
      ],
      "name": "lend",
      "outputs": [],
      "stateMutability": "nonpayable",
      "type": "function"
    },
    {
      "inputs": [
        {
          "internalType": "enum IAccounting.Collateral",
          "name": "",
          "type": "uint8"
        }
      ],
      "name": "maxDebt",
      "outputs": [
        {
          "internalType": "uint256",
          "name": "",
          "type": "uint256"
        }
      ],
      "stateMutability": "view",
      "type": "function"
    },
    {
      "inputs": [],
      "name": "minBorrowTime",
      "outputs": [
        {
          "internalType": "uint64",
          "name": "",
          "type": "uint64"
        }
      ],
      "stateMutability": "view",
      "type": "function"
    },
    {
      "inputs": [
        {
          "internalType": "enum IAccounting.Collateral",
          "name": "",
          "type": "uint8"
        }
      ],
      "name": "minCollateralToDebtRatio",
      "outputs": [
        {
          "internalType": "uint256",
          "name": "",
          "type": "uint256"
        }
      ],
      "stateMutability": "view",
      "type": "function"
    },
    {
      "inputs": [],
      "name": "minPositionSize",
      "outputs": [
        {
          "internalType": "uint256",
          "name": "",
          "type": "uint256"
        }
      ],
      "stateMutability": "view",
      "type": "function"
    },
    {
      "inputs": [
        {
          "internalType": "uint64",
          "name": "positionID",
          "type": "uint64"
        },
        {
          "internalType": "uint256",
          "name": "coinsToPayBack",
          "type": "uint256"
        },
        {
          "internalType": "uint256",
          "name": "collateralToWithdraw",
          "type": "uint256"
        }
      ],
      "name": "payback",
      "outputs": [],
      "stateMutability": "nonpayable",
      "type": "function"
    },
    {
      "inputs": [],
      "name": "periodLength",
      "outputs": [
        {
          "internalType": "uint64",
          "name": "",
          "type": "uint64"
        }
      ],
      "stateMutability": "view",
      "type": "function"
    },
    {
      "inputs": [
        {
          "internalType": "enum IAccounting.Collateral",
          "name": "collateral",
          "type": "uint8"
        },
        {
          "internalType": "uint256",
          "name": "requirement",
          "type": "uint256"
        }
      ],
      "name": "setCollateralizationRequirement",
      "outputs": [],
      "stateMutability": "nonpayable",
      "type": "function"
    },
    {
      "inputs": [
        {
          "internalType": "uint256",
          "name": "percentage",
          "type": "uint256"
        }
      ],
      "name": "setInterestPortionToLenders",
      "outputs": [],
      "stateMutability": "nonpayable",
      "type": "function"
    },
    {
      "inputs": [
        {
          "internalType": "enum IAccounting.Collateral",
          "name": "collateral",
          "type": "uint8"
        },
        {
          "internalType": "uint256",
          "name": "debt",
          "type": "uint256"
        }
      ],
      "name": "setMaxDebt",
      "outputs": [],
      "stateMutability": "nonpayable",
      "type": "function"
    },
    {
      "inputs": [
        {
          "internalType": "uint64",
          "name": "time",
          "type": "uint64"
        }
      ],
      "name": "setMinBorrowTime",
      "outputs": [],
      "stateMutability": "nonpayable",
      "type": "function"
    },
    {
      "inputs": [
        {
          "internalType": "uint256",
          "name": "size",
          "type": "uint256"
        }
      ],
      "name": "setMinPositionSize",
      "outputs": [],
      "stateMutability": "nonpayable",
      "type": "function"
    },
    {
      "inputs": [],
      "name": "stop",
      "outputs": [],
      "stateMutability": "nonpayable",
      "type": "function"
    },
    {
      "inputs": [],
      "name": "stopped",
      "outputs": [
        {
          "internalType": "bool",
          "name": "",
          "type": "bool"
        }
      ],
      "stateMutability": "view",
      "type": "function"
    },
    {
      "inputs": [],
      "name": "systemAccrueInterest",
      "outputs": [],
      "stateMutability": "nonpayable",
      "type": "function"
    },
    {
      "inputs": [
        {
          "internalType": "uint64",
          "name": "positionID",
          "type": "uint64"
        }
      ],
      "name": "systemGetUpdatedPosition",
      "outputs": [
        {
          "components": [
            {
              "internalType": "uint256",
              "name": "startCumulativeDebt",
              "type": "uint256"
            },
            {
              "internalType": "uint256",
              "name": "collateral",
              "type": "uint256"
            },
            {
              "internalType": "uint256",
              "name": "debt",
              "type": "uint256"
            },
            {
              "internalType": "uint256",
              "name": "startDebtExchangeRate",
              "type": "uint256"
            },
            {
              "internalType": "uint256",
              "name": "startCNPRewards",
              "type": "uint256"
            },
            {
              "internalType": "uint64",
              "name": "collateralizationBandIndex",
              "type": "uint64"
            },
            {
              "internalType": "uint64",
              "name": "lastUpdateTime",
              "type": "uint64"
            },
            {
              "internalType": "uint64",
              "name": "lastBorrowTime",
              "type": "uint64"
            },
            {
              "internalType": "uint32",
              "name": "collateralizationBand",
              "type": "uint32"
            },
            {
              "internalType": "enum IAccounting.Collateral",
              "name": "collateralType",
              "type": "uint8"
            }
          ],
          "internalType": "struct IAccounting.DebtPosition",
          "name": "position",
          "type": "tuple"
        }
      ],
      "stateMutability": "nonpayable",
      "type": "function"
    },
    {
      "inputs": [
        {
          "internalType": "contract IUniswapV2Pair",
          "name": "pair",
          "type": "address"
        },
        {
          "internalType": "uint256",
          "name": "price",
          "type": "uint256"
        }
      ],
      "name": "systemNotifyCollateralPriceUpdated",
      "outputs": [],
      "stateMutability": "nonpayable",
      "type": "function"
    },
    {
      "inputs": [
        {
          "internalType": "uint256",
          "name": "lendTokenCount",
          "type": "uint256"
        }
      ],
      "name": "unlend",
      "outputs": [],
      "stateMutability": "nonpayable",
      "type": "function"
    },
    {
      "inputs": [
        {
          "components": [
            {
              "internalType": "uint256",
              "name": "startCumulativeDebt",
              "type": "uint256"
            },
            {
              "internalType": "uint256",
              "name": "collateral",
              "type": "uint256"
            },
            {
              "internalType": "uint256",
              "name": "debt",
              "type": "uint256"
            },
            {
              "internalType": "uint256",
              "name": "startDebtExchangeRate",
              "type": "uint256"
            },
            {
              "internalType": "uint256",
              "name": "startCNPRewards",
              "type": "uint256"
            },
            {
              "internalType": "uint64",
              "name": "collateralizationBandIndex",
              "type": "uint64"
            },
            {
              "internalType": "uint64",
              "name": "lastUpdateTime",
              "type": "uint64"
            },
            {
              "internalType": "uint64",
              "name": "lastBorrowTime",
              "type": "uint64"
            },
            {
              "internalType": "uint32",
              "name": "collateralizationBand",
              "type": "uint32"
            },
            {
              "internalType": "enum IAccounting.Collateral",
              "name": "collateralType",
              "type": "uint8"
            }
          ],
          "internalType": "struct IAccounting.DebtPosition",
          "name": "_position",
          "type": "tuple"
        },
        {
          "components": [
            {
              "internalType": "uint256",
              "name": "ethDebt",
              "type": "uint256"
            },
            {
              "internalType": "uint256",
              "name": "btcDebt",
              "type": "uint256"
            },
            {
              "internalType": "uint256",
              "name": "totalCNPRewards",
              "type": "uint256"
            },
            {
              "internalType": "uint256",
              "name": "cumulativeDebt",
              "type": "uint256"
            },
            {
              "internalType": "uint256",
              "name": "debtExchangeRate",
              "type": "uint256"
            }
          ],
          "internalType": "struct IAccounting.SystemDebtInfo",
          "name": "sdi",
          "type": "tuple"
        },
        {
          "internalType": "uint64",
          "name": "time",
          "type": "uint64"
        },
        {
          "internalType": "uint64",
          "name": "period",
          "type": "uint64"
        },
        {
          "internalType": "uint64",
          "name": "lastUpdatePeriod",
          "type": "uint64"
        },
        {
          "internalType": "uint64",
          "name": "periodLength",
          "type": "uint64"
        }
      ],
      "name": "updatePositionImpl",
      "outputs": [
        {
          "components": [
            {
              "internalType": "uint256",
              "name": "startCumulativeDebt",
              "type": "uint256"
            },
            {
              "internalType": "uint256",
              "name": "collateral",
              "type": "uint256"
            },
            {
              "internalType": "uint256",
              "name": "debt",
              "type": "uint256"
            },
            {
              "internalType": "uint256",
              "name": "startDebtExchangeRate",
              "type": "uint256"
            },
            {
              "internalType": "uint256",
              "name": "startCNPRewards",
              "type": "uint256"
            },
            {
              "internalType": "uint64",
              "name": "collateralizationBandIndex",
              "type": "uint64"
            },
            {
              "internalType": "uint64",
              "name": "lastUpdateTime",
              "type": "uint64"
            },
            {
              "internalType": "uint64",
              "name": "lastBorrowTime",
              "type": "uint64"
            },
            {
              "internalType": "uint32",
              "name": "collateralizationBand",
              "type": "uint32"
            },
            {
              "internalType": "enum IAccounting.Collateral",
              "name": "collateralType",
              "type": "uint8"
            }
          ],
          "internalType": "struct IAccounting.DebtPosition",
          "name": "position",
          "type": "tuple"
        },
        {
          "internalType": "uint256",
          "name": "rewards",
          "type": "uint256"
        }
      ],
      "stateMutability": "pure",
      "type": "function"
    },
    {
      "inputs": [
        {
          "internalType": "bytes4",
          "name": "action",
          "type": "bytes4"
        }
      ],
      "name": "validUpdate",
      "outputs": [
        {
          "internalType": "bool",
          "name": "",
          "type": "bool"
        }
      ],
      "stateMutability": "view",
      "type": "function"
    },
    {
      "inputs": [
        {
          "internalType": "uint256",
          "name": "lendTokenCount",
          "type": "uint256"
        }
      ],
      "name": "valueOfLendTokensInCoin",
      "outputs": [
        {
          "internalType": "uint256",
          "name": "coinCount",
          "type": "uint256"
        }
      ],
      "stateMutability": "view",
      "type": "function"
    }
  ],
  "bytecode": "0x60c0604052680d8d726b7177a80000600a556706f05b59d3b20000600b55610708600c60006101000a81548167ffffffffffffffff021916908367ffffffffffffffff1602179055503480156200005557600080fd5b5061088e67ffffffffffffffff166301e13380816200007057fe5b0433600160006101000a81548173ffffffffffffffffffffffffffffffffffffffff021916908373ffffffffffffffffffffffffffffffffffffffff16021790555060016006819055508067ffffffffffffffff16600014158015620000e357506301e285008167ffffffffffffffff16105b62000156576040517f08c379a000000000000000000000000000000000000000000000000000000000815260040180806020018281038252601c8152602001807f54696d653a20496e76616c696420706572696f64206c656e6774682e0000000081525060200191505060405180910390fd5b60018167ffffffffffffffff16620001736200033a60201b60201c565b67ffffffffffffffff16816200018557fe5b040367ffffffffffffffff1660a08167ffffffffffffffff1660c01b815250508067ffffffffffffffff1660808167ffffffffffffffff1660c01b815250505061088e67ffffffffffffffff166301e1338081620001df57fe5b0467ffffffffffffffff16600667ffffffffffffffff1662015180816200020257fe5b0467ffffffffffffffff161462000250576040517f08c379a0000000000000000000000000000000000000000000000000000000008152600401620002479062000406565b60405180910390fd5b6969e10de76676d0800000600760008060018111156200026c57fe5b60018111156200027857fe5b8152602001908152602001600020819055506969e10de76676d080000060076000600180811115620002a657fe5b6001811115620002b257fe5b8152602001908152602001600020819055506714d1120d7b16000060086000806001811115620002de57fe5b6001811115620002ea57fe5b8152602001908152602001600020819055506714d1120d7b160000600860006001808111156200031657fe5b60018111156200032257fe5b81526020019081526020016000208190555062000439565b600062000352426200035760201b62003e581760201c565b905090565b6000680100000000000000008210620003bc576040517f08c379a0000000000000000000000000000000000000000000000000000000008152600401808060200182810382526026815260200180620080ae6026913960400191505060405180910390fd5b819050919050565b6000620003d360128362000428565b91507f506572696f642074696d65206572726f722e00000000000000000000000000006000830152602082019050919050565b600060208201905081810360008301526200042181620003c4565b9050919050565b600082825260208201905092915050565b60805160c01c60a05160c01c617c326200047c6000398061062f5280612e505280615bc45250806106505280612e7452806149855280615be55250617c326000f3fe608060405234801561001057600080fd5b506004361061020b5760003560e01c80637a9158ae1161012a578063b6ae213a116100bd578063d5f394881161008c578063ea9f348a11610071578063ea9f348a146105c1578063eb6843ce146105dd578063f6979f291461060d5761020b565b8063d5f3948814610573578063e7464512146105915761020b565b8063b6ae213a146104fb578063bb8313c214610519578063c4e3a63b14610537578063d2ca2115146105555761020b565b8063a6aa57ce116100f9578063a6aa57ce1461049d578063a6afed95146104b9578063ad51d9ff146104c3578063b551a00d146104df5761020b565b80637a9158ae146104165780637f08a55a146104325780639a4ecb8d1461043c5780639cd8aea11461046d5761020b565b80631b2b3245116101a25780635a6127a9116101715780635a6127a9146103905780636768392f146103ac57806375f12b21146103c857806376d1c30e146103e65761020b565b80631b2b3245146102f65780632b7eba3d1461032657806332dfe598146103425780633f616330146103725761020b565b8063113cf1ab116101de578063113cf1ab1461027257806312cf5219146102a2578063197b1bf5146102be57806319ab453c146102da5761020b565b8063060406181461021057806306972dcd1461022e57806307da68f51461024a5780630c340a2414610254575b600080fd5b61021861062b565b60405161022591906176af565b60405180910390f35b61024860048036038101906102439190616ca6565b610699565b005b6102526107af565b005b61025c61087a565b604051610269919061743c565b60405180910390f35b61028c60048036038101906102879190616924565b61089e565b6040516102999190617421565b60405180910390f35b6102bc60048036038101906102b79190616b4c565b610906565b005b6102d860048036038101906102d39190616ca6565b610a65565b005b6102f460048036038101906102ef919061699f565b610e01565b005b610310600480360381019061030b9190616ca6565b61121a565b60405161031d919061766b565b60405180910390f35b610340600480360381019061033b9190616b4c565b61123d565b005b61035c60048036038101906103579190616afa565b611387565b604051610369919061766b565b60405180910390f35b61037a61139f565b60405161038791906176af565b60405180910390f35b6103aa60048036038101906103a59190616ca6565b6113b9565b005b6103c660048036038101906103c19190616d4a565b6114e6565b005b6103d0611d1a565b6040516103dd9190617421565b60405180910390f35b61040060048036038101906103fb9190616afa565b611d2d565b60405161040d919061766b565b60405180910390f35b610430600480360381019061042b9190616abe565b611d45565b005b61043a611f35565b005b61045660048036038101906104519190616bb2565b61209c565b604051610464929190617625565b60405180910390f35b61048760048036038101906104829190616afa565b6120c7565b604051610494919061766b565b60405180910390f35b6104b760048036038101906104b29190616ca6565b6120df565b005b6104c16125d0565b005b6104dd60048036038101906104d89190616cf8565b6128e1565b005b6104f960048036038101906104f49190616cf8565b612a19565b005b610503612e2e565b60405161051091906176af565b60405180910390f35b610521612e48565b60405161052e919061766b565b60405180910390f35b61053f612e4e565b60405161054c91906176af565b60405180910390f35b61055d612e72565b60405161056a91906176af565b60405180910390f35b61057b612e96565b6040516105889190617339565b60405180910390f35b6105ab60048036038101906105a69190616afa565b612ebc565b6040516105b891906176af565b60405180910390f35b6105db60048036038101906105d69190616d4a565b613356565b005b6105f760048036038101906105f29190616cf8565b613b54565b6040516106049190617609565b60405180910390f35b610615613e52565b604051610622919061766b565b60405180910390f35b60007f00000000000000000000000000000000000000000000000000000000000000007f000000000000000000000000000000000000000000000000000000000000000067ffffffffffffffff16610681613ec3565b67ffffffffffffffff168161069257fe5b0403905090565b60008054906101000a900473ffffffffffffffffffffffffffffffffffffffff1673ffffffffffffffffffffffffffffffffffffffff163373ffffffffffffffffffffffffffffffffffffffff161461075a576040517f08c379a00000000000000000000000000000000000000000000000000000000081526004018080602001828103825260198152602001807f476f7665726e65643a204e6f7420417574686f72697a65642e0000000000000081525060200191505060405180910390fd5b80600a8190555060405161076d906172d0565b60405180910390207f3a64504f0bc0c335e2aecb78638a257e0351a3fe0370861fd54ee4190b920933826040516107a4919061766b565b60405180910390a250565b60008054906101000a900473ffffffffffffffffffffffffffffffffffffffff1673ffffffffffffffffffffffffffffffffffffffff163373ffffffffffffffffffffffffffffffffffffffff1614610870576040517f08c379a00000000000000000000000000000000000000000000000000000000081526004018080602001828103825260198152602001807f476f7665726e65643a204e6f7420417574686f72697a65642e0000000000000081525060200191505060405180910390fd5b610878613ed3565b565b60008054906101000a900473ffffffffffffffffffffffffffffffffffffffff1681565b600060056000837bffffffffffffffffffffffffffffffffffffffffffffffffffffffff19167bffffffffffffffffffffffffffffffffffffffffffffffffffffffff1916815260200190815260200160002060009054906101000a900460ff169050919050565b60008054906101000a900473ffffffffffffffffffffffffffffffffffffffff1673ffffffffffffffffffffffffffffffffffffffff163373ffffffffffffffffffffffffffffffffffffffff16146109c7576040517f08c379a00000000000000000000000000000000000000000000000000000000081526004018080602001828103825260198152602001807f476f7665726e65643a204e6f7420417574686f72697a65642e0000000000000081525060200191505060405180910390fd5b80600860008460018111156109d857fe5b60018111156109e357fe5b815260200190815260200160002081905550670de0b6b3a7640000811015610a0a57600080fd5b816001811115610a1657fe5b604051610a22906172fa565b60405180910390207f355b8345780dc91749e06eef00c0898e70c7d7adc01ae532c1ff70b6906eec8283604051610a59919061766b565b60405180910390a35050565b600460009054906101000a900473ffffffffffffffffffffffffffffffffffffffff1673ffffffffffffffffffffffffffffffffffffffff1663e97dcb626040518163ffffffff1660e01b8152600401600060405180830381600087803b158015610acf57600080fd5b505af1158015610ae3573d6000803e3d6000fd5b5050505060026006541415610b60576040517f08c379a000000000000000000000000000000000000000000000000000000000815260040180806020018281038252601d8152602001807f4c6f636b50726f746f636f6c3a207265656e7472616e742063616c6c2e00000081525060200191505060405180910390fd5b6002600681905550600060149054906101000a900460ff1615610beb576040517f08c379a000000000000000000000000000000000000000000000000000000000815260040180806020018281038252601e8152602001807f476f7665726e65643a20436f6e74726163742069732073746f707065642e000081525060200191505060405180910390fd5b610bf86000821415613f1c565b6000610c038261121a565b9050600e60009054906101000a900473ffffffffffffffffffffffffffffffffffffffff1673ffffffffffffffffffffffffffffffffffffffff166379cc679033846040518363ffffffff1660e01b8152600401610c629291906173a6565b600060405180830381600087803b158015610c7c57600080fd5b505af1158015610c90573d6000803e3d6000fd5b50505050600260009054906101000a900473ffffffffffffffffffffffffffffffffffffffff1673ffffffffffffffffffffffffffffffffffffffff1663db795bca33836040518363ffffffff1660e01b8152600401610cf19291906173a6565b600060405180830381600087803b158015610d0b57600080fd5b505af1158015610d1f573d6000803e3d6000fd5b505050503373ffffffffffffffffffffffffffffffffffffffff167fefc56a1a7590fc4eb13cd40b6a2ceee41f3869c6ea818d20d9a18f2d6315ca188284604051610d6b929190617686565b60405180910390a2506001600681905550600460009054906101000a900473ffffffffffffffffffffffffffffffffffffffff1673ffffffffffffffffffffffffffffffffffffffff1663e9fad8ee6040518163ffffffff1660e01b8152600401600060405180830381600087803b158015610de657600080fd5b505af1158015610dfa573d6000803e3d6000fd5b5050505050565b600160009054906101000a900473ffffffffffffffffffffffffffffffffffffffff1673ffffffffffffffffffffffffffffffffffffffff163373ffffffffffffffffffffffffffffffffffffffff1614610ec4576040517f08c379a000000000000000000000000000000000000000000000000000000000815260040180806020018281038252601e8152602001807f476f7665726e65643a20496e6974206e6f7420617574686f72697a65642e000081525060200191505060405180910390fd5b600160006101000a81549073ffffffffffffffffffffffffffffffffffffffff0219169055806000806101000a81548173ffffffffffffffffffffffffffffffffffffffff021916908373ffffffffffffffffffffffffffffffffffffffff16021790555060008054906101000a900473ffffffffffffffffffffffffffffffffffffffff1673ffffffffffffffffffffffffffffffffffffffff16639624e83e6040518163ffffffff1660e01b815260040160206040518083038186803b158015610f8f57600080fd5b505afa158015610fa3573d6000803e3d6000fd5b505050506040513d6020811015610fb957600080fd5b8101908080519060200190929190505050600260006101000a81548173ffffffffffffffffffffffffffffffffffffffff021916908373ffffffffffffffffffffffffffffffffffffffff16021790555060008054906101000a900473ffffffffffffffffffffffffffffffffffffffff1673ffffffffffffffffffffffffffffffffffffffff166311df99956040518163ffffffff1660e01b815260040160206040518083038186803b15801561107057600080fd5b505afa158015611084573d6000803e3d6000fd5b505050506040513d602081101561109a57600080fd5b8101908080519060200190929190505050600360006101000a81548173ffffffffffffffffffffffffffffffffffffffff021916908373ffffffffffffffffffffffffffffffffffffffff16021790555060008054906101000a900473ffffffffffffffffffffffffffffffffffffffff1673ffffffffffffffffffffffffffffffffffffffff1663d478b0876040518163ffffffff1660e01b815260040160206040518083038186803b15801561115157600080fd5b505afa158015611165573d6000803e3d6000fd5b505050506040513d602081101561117b57600080fd5b8101908080519060200190929190505050600460006101000a81548173ffffffffffffffffffffffffffffffffffffffff021916908373ffffffffffffffffffffffffffffffffffffffff1602179055506111d4613f5f565b8073ffffffffffffffffffffffffffffffffffffffff167f908408e307fc569b417f6cbec5d5a06f44a0a505ac0479b47d421a4b2fd6a1e660405160405180910390a250565b6000611236611227614555565b8361470790919063ffffffff16565b9050919050565b60008054906101000a900473ffffffffffffffffffffffffffffffffffffffff1673ffffffffffffffffffffffffffffffffffffffff163373ffffffffffffffffffffffffffffffffffffffff16146112fe576040517f08c379a00000000000000000000000000000000000000000000000000000000081526004018080602001828103825260198152602001807f476f7665726e65643a204e6f7420417574686f72697a65642e0000000000000081525060200191505060405180910390fd5b806007600084600181111561130f57fe5b600181111561131a57fe5b81526020019081526020016000208190555081600181111561133857fe5b6040516113449061730f565b60405180910390207f355b8345780dc91749e06eef00c0898e70c7d7adc01ae532c1ff70b6906eec828360405161137b919061766b565b60405180910390a35050565b60086020528060005260406000206000915090505481565b600c60009054906101000a900467ffffffffffffffff1681565b60008054906101000a900473ffffffffffffffffffffffffffffffffffffffff1673ffffffffffffffffffffffffffffffffffffffff163373ffffffffffffffffffffffffffffffffffffffff161461147a576040517f08c379a00000000000000000000000000000000000000000000000000000000081526004018080602001828103825260198152602001807f476f7665726e65643a204e6f7420417574686f72697a65642e0000000000000081525060200191505060405180910390fd5b80600b81905550670de0b6b3a7640000600b54111561149857600080fd5b6040516114a490617324565b60405180910390207f3a64504f0bc0c335e2aecb78638a257e0351a3fe0370861fd54ee4190b920933826040516114db919061766b565b60405180910390a250565b600460009054906101000a900473ffffffffffffffffffffffffffffffffffffffff1673ffffffffffffffffffffffffffffffffffffffff1663e97dcb626040518163ffffffff1660e01b8152600401600060405180830381600087803b15801561155057600080fd5b505af1158015611564573d6000803e3d6000fd5b50505050600260065414156115e1576040517f08c379a000000000000000000000000000000000000000000000000000000000815260040180806020018281038252601d8152602001807f4c6f636b50726f746f636f6c3a207265656e7472616e742063616c6c2e00000081525060200191505060405180910390fd5b6002600681905550600060149054906101000a900460ff161561166c576040517f08c379a000000000000000000000000000000000000000000000000000000000815260040180806020018281038252601e8152602001807f476f7665726e65643a20436f6e74726163742069732073746f707065642e000081525060200191505060405180910390fd5b60008054906101000a900473ffffffffffffffffffffffffffffffffffffffff1673ffffffffffffffffffffffffffffffffffffffff1663bf86d6906040518163ffffffff1660e01b815260040160206040518083038186803b1580156116d257600080fd5b505afa1580156116e6573d6000803e3d6000fd5b505050506040513d60208110156116fc57600080fd5b810190808051906020019092919050505015611763576040517f08c379a0000000000000000000000000000000000000000000000000000000008152600401808060200182810382526028815260200180617b8e6028913960400191505060405180910390fd5b611818600d60009054906101000a900473ffffffffffffffffffffffffffffffffffffffff1673ffffffffffffffffffffffffffffffffffffffff1663430c208133866040518363ffffffff1660e01b81526004016117c39291906173cf565b60206040518083038186803b1580156117db57600080fd5b505afa1580156117ef573d6000803e3d6000fd5b505050506040513d601f19601f8201168201806040525081019061181391906168fb565b61481a565b61183160008314158061182c575060008214155b613f1c565b61183961630e565b6118f88467ffffffffffffffff16600260009054906101000a900473ffffffffffffffffffffffffffffffffffffffff1673ffffffffffffffffffffffffffffffffffffffff16630f85fc5a876040518263ffffffff1660e01b81526004016118a291906176af565b6101406040518083038186803b1580156118bb57600080fd5b505afa1580156118cf573d6000803e3d6000fd5b505050506040513d601f19601f820116820180604052508101906118f39190616b88565b61485d565b905060008314611a285760008160400151141561194a576040517f08c379a0000000000000000000000000000000000000000000000000000000008152600401611941906175c9565b60405180910390fd5b611952613ec3565b67ffffffffffffffff16611993600c60009054906101000a900467ffffffffffffffff168360e0015167ffffffffffffffff16614b4590919063ffffffff16565b67ffffffffffffffff16106119dd576040517f08c379a00000000000000000000000000000000000000000000000000000000081526004016119d4906175e9565b60405180910390fd5b6119f4816040015184614be190919063ffffffff16565b9250611a0d838260400151614bfa90919063ffffffff16565b816040018181525050611a27816101200151846000614c44565b5b60008214611a5157611a47828260200151614bfa90919063ffffffff16565b8160200181815250505b611a6981610120015182604001518360200151614f51565b600260009054906101000a900473ffffffffffffffffffffffffffffffffffffffff1673ffffffffffffffffffffffffffffffffffffffff1663a075bd0185836040518363ffffffff1660e01b8152600401611ac69291906176f3565b600060405180830381600087803b158015611ae057600080fd5b505af1158015611af4573d6000803e3d6000fd5b5050505060008314611b9057600360009054906101000a900473ffffffffffffffffffffffffffffffffffffffff1673ffffffffffffffffffffffffffffffffffffffff166379cc679033856040518363ffffffff1660e01b8152600401611b5d9291906173a6565b600060405180830381600087803b158015611b7757600080fd5b505af1158015611b8b573d6000803e3d6000fd5b505050505b60008214611c2f57600260009054906101000a900473ffffffffffffffffffffffffffffffffffffffff1673ffffffffffffffffffffffffffffffffffffffff1663f13c16b082610120015133856040518463ffffffff1660e01b8152600401611bfc93929190617472565b600060405180830381600087803b158015611c1657600080fd5b505af1158015611c2a573d6000803e3d6000fd5b505050505b8367ffffffffffffffff163373ffffffffffffffffffffffffffffffffffffffff167f82586ff5b48028b0dec2b5fabea40d9b18bbb24279ce82c7f2b8a9c6870df7658585604051611c82929190617686565b60405180910390a3506001600681905550600460009054906101000a900473ffffffffffffffffffffffffffffffffffffffff1673ffffffffffffffffffffffffffffffffffffffff1663e9fad8ee6040518163ffffffff1660e01b8152600401600060405180830381600087803b158015611cfd57600080fd5b505af1158015611d11573d6000803e3d6000fd5b50505050505050565b600060149054906101000a900460ff1681565b60096020528060005260406000206000915090505481565b611e1960008054906101000a900473ffffffffffffffffffffffffffffffffffffffff1673ffffffffffffffffffffffffffffffffffffffff1663d3419bf36040518163ffffffff1660e01b815260040160206040518083038186803b158015611dae57600080fd5b505afa158015611dc2573d6000803e3d6000fd5b505050506040513d601f19601f82011682018060405250810190611de69190616a1a565b73ffffffffffffffffffffffffffffffffffffffff163373ffffffffffffffffffffffffffffffffffffffff161461481a565b60008060009054906101000a900473ffffffffffffffffffffffffffffffffffffffff1673ffffffffffffffffffffffffffffffffffffffff16632cbf54e4846040518263ffffffff1660e01b8152600401611e759190617457565b60206040518083038186803b158015611e8d57600080fd5b505afa158015611ea1573d6000803e3d6000fd5b505050506040513d601f19601f82011682018060405250810190611ec59190616b23565b9050611f038260086000846001811115611edb57fe5b6001811115611ee657fe5b81526020019081526020016000205461470790919063ffffffff16565b60096000836001811115611f1357fe5b6001811115611f1e57fe5b815260200190815260200160002081905550505050565b60026006541415611fae576040517f08c379a000000000000000000000000000000000000000000000000000000000815260040180806020018281038252601d8152602001807f4c6f636b436f6e74726163743a207265656e7472616e742063616c6c2e00000081525060200191505060405180910390fd5b600260068190555061208a60008054906101000a900473ffffffffffffffffffffffffffffffffffffffff1673ffffffffffffffffffffffffffffffffffffffff16639a371c846040518163ffffffff1660e01b815260040160206040518083038186803b15801561201f57600080fd5b505afa158015612033573d6000803e3d6000fd5b505050506040513d601f19601f8201168201806040525081019061205791906169f1565b73ffffffffffffffffffffffffffffffffffffffff163373ffffffffffffffffffffffffffffffffffffffff161461481a565b612092615065565b6001600681905550565b6120a461630e565b60006120b488888888888861590a565b8092508193505050965096945050505050565b60076020528060005260406000206000915090505481565b600460009054906101000a900473ffffffffffffffffffffffffffffffffffffffff1673ffffffffffffffffffffffffffffffffffffffff1663e97dcb626040518163ffffffff1660e01b8152600401600060405180830381600087803b15801561214957600080fd5b505af115801561215d573d6000803e3d6000fd5b50505050600260065414156121da576040517f08c379a000000000000000000000000000000000000000000000000000000000815260040180806020018281038252601d8152602001807f4c6f636b50726f746f636f6c3a207265656e7472616e742063616c6c2e00000081525060200191505060405180910390fd5b6002600681905550600060149054906101000a900460ff1615612265576040517f08c379a000000000000000000000000000000000000000000000000000000000815260040180806020018281038252601e8152602001807f476f7665726e65643a20436f6e74726163742069732073746f707065642e000081525060200191505060405180910390fd5b60008054906101000a900473ffffffffffffffffffffffffffffffffffffffff1673ffffffffffffffffffffffffffffffffffffffff1663bf86d6906040518163ffffffff1660e01b815260040160206040518083038186803b1580156122cb57600080fd5b505afa1580156122df573d6000803e3d6000fd5b505050506040513d60208110156122f557600080fd5b81019080805190602001909291905050501561235c576040517f08c379a0000000000000000000000000000000000000000000000000000000008152600401808060200182810382526028815260200180617b8e6028913960400191505060405180910390fd5b6123696000821415613f1c565b612371615065565b600061238d61237e614555565b83615a9690919063ffffffff16565b9050600360009054906101000a900473ffffffffffffffffffffffffffffffffffffffff1673ffffffffffffffffffffffffffffffffffffffff166323b872dd33600260009054906101000a900473ffffffffffffffffffffffffffffffffffffffff16856040518463ffffffff1660e01b81526004016124109392919061736f565b602060405180830381600087803b15801561242a57600080fd5b505af115801561243e573d6000803e3d6000fd5b505050506040513d601f19601f8201168201806040525081019061246291906168fb565b50600e60009054906101000a900473ffffffffffffffffffffffffffffffffffffffff1673ffffffffffffffffffffffffffffffffffffffff1663449a52f833836040518363ffffffff1660e01b81526004016124c09291906173a6565b600060405180830381600087803b1580156124da57600080fd5b505af11580156124ee573d6000803e3d6000fd5b505050503373ffffffffffffffffffffffffffffffffffffffff167f8fff79b574da9a93d7a5408c2fc00c4a9b2b462321c1659b2fbbb9ff3dd221ff838360405161253a929190617686565b60405180910390a2506001600681905550600460009054906101000a900473ffffffffffffffffffffffffffffffffffffffff1673ffffffffffffffffffffffffffffffffffffffff1663e9fad8ee6040518163ffffffff1660e01b8152600401600060405180830381600087803b1580156125b557600080fd5b505af11580156125c9573d6000803e3d6000fd5b5050505050565b600460009054906101000a900473ffffffffffffffffffffffffffffffffffffffff1673ffffffffffffffffffffffffffffffffffffffff1663e97dcb626040518163ffffffff1660e01b8152600401600060405180830381600087803b15801561263a57600080fd5b505af115801561264e573d6000803e3d6000fd5b50505050600260065414156126cb576040517f08c379a000000000000000000000000000000000000000000000000000000000815260040180806020018281038252601d8152602001807f4c6f636b50726f746f636f6c3a207265656e7472616e742063616c6c2e00000081525060200191505060405180910390fd5b6002600681905550600060149054906101000a900460ff1615612756576040517f08c379a000000000000000000000000000000000000000000000000000000000815260040180806020018281038252601e8152602001807f476f7665726e65643a20436f6e74726163742069732073746f707065642e000081525060200191505060405180910390fd5b60008054906101000a900473ffffffffffffffffffffffffffffffffffffffff1673ffffffffffffffffffffffffffffffffffffffff1663bf86d6906040518163ffffffff1660e01b815260040160206040518083038186803b1580156127bc57600080fd5b505afa1580156127d0573d6000803e3d6000fd5b505050506040513d60208110156127e657600080fd5b81019080805190602001909291905050501561284d576040517f08c379a0000000000000000000000000000000000000000000000000000000008152600401808060200182810382526028815260200180617b8e6028913960400191505060405180910390fd5b612855615065565b6001600681905550600460009054906101000a900473ffffffffffffffffffffffffffffffffffffffff1673ffffffffffffffffffffffffffffffffffffffff1663e9fad8ee6040518163ffffffff1660e01b8152600401600060405180830381600087803b1580156128c757600080fd5b505af11580156128db573d6000803e3d6000fd5b50505050565b60008054906101000a900473ffffffffffffffffffffffffffffffffffffffff1673ffffffffffffffffffffffffffffffffffffffff163373ffffffffffffffffffffffffffffffffffffffff16146129a2576040517f08c379a00000000000000000000000000000000000000000000000000000000081526004018080602001828103825260198152602001807f476f7665726e65643a204e6f7420417574686f72697a65642e0000000000000081525060200191505060405180910390fd5b80600c60006101000a81548167ffffffffffffffff021916908367ffffffffffffffff1602179055506040516129d7906172e5565b60405180910390207f6293347933ad2997134e224ac8cd2e39908a4a22aeed9af52127b4bbf765297882604051612a0e91906176af565b60405180910390a250565b600460009054906101000a900473ffffffffffffffffffffffffffffffffffffffff1673ffffffffffffffffffffffffffffffffffffffff1663e97dcb626040518163ffffffff1660e01b8152600401600060405180830381600087803b158015612a8357600080fd5b505af1158015612a97573d6000803e3d6000fd5b5050505060026006541415612b14576040517f08c379a000000000000000000000000000000000000000000000000000000000815260040180806020018281038252601d8152602001807f4c6f636b50726f746f636f6c3a207265656e7472616e742063616c6c2e00000081525060200191505060405180910390fd5b6002600681905550600060149054906101000a900460ff1615612b9f576040517f08c379a000000000000000000000000000000000000000000000000000000000815260040180806020018281038252601e8152602001807f476f7665726e65643a20436f6e74726163742069732073746f707065642e000081525060200191505060405180910390fd5b612c54600d60009054906101000a900473ffffffffffffffffffffffffffffffffffffffff1673ffffffffffffffffffffffffffffffffffffffff1663430c208133846040518363ffffffff1660e01b8152600401612bff9291906173cf565b60206040518083038186803b158015612c1757600080fd5b505afa158015612c2b573d6000803e3d6000fd5b505050506040513d601f19601f82011682018060405250810190612c4f91906168fb565b61481a565b600260009054906101000a900473ffffffffffffffffffffffffffffffffffffffff1673ffffffffffffffffffffffffffffffffffffffff1663a075bd0182612d528467ffffffffffffffff16600260009054906101000a900473ffffffffffffffffffffffffffffffffffffffff1673ffffffffffffffffffffffffffffffffffffffff16630f85fc5a876040518263ffffffff1660e01b8152600401612cfc91906176af565b6101406040518083038186803b158015612d1557600080fd5b505afa158015612d29573d6000803e3d6000fd5b505050506040513d601f19601f82011682018060405250810190612d4d9190616b88565b61485d565b6040518363ffffffff1660e01b8152600401612d6f9291906176f3565b600060405180830381600087803b158015612d8957600080fd5b505af1158015612d9d573d6000803e3d6000fd5b505050506001600681905550600460009054906101000a900473ffffffffffffffffffffffffffffffffffffffff1673ffffffffffffffffffffffffffffffffffffffff1663e9fad8ee6040518163ffffffff1660e01b8152600401600060405180830381600087803b158015612e1357600080fd5b505af1158015612e27573d6000803e3d6000fd5b5050505050565b600c60089054906101000a900467ffffffffffffffff1681565b600a5481565b7f000000000000000000000000000000000000000000000000000000000000000081565b7f000000000000000000000000000000000000000000000000000000000000000081565b600160009054906101000a900473ffffffffffffffffffffffffffffffffffffffff1681565b6000600460009054906101000a900473ffffffffffffffffffffffffffffffffffffffff1673ffffffffffffffffffffffffffffffffffffffff1663e97dcb626040518163ffffffff1660e01b8152600401600060405180830381600087803b158015612f2857600080fd5b505af1158015612f3c573d6000803e3d6000fd5b5050505060026006541415612fb9576040517f08c379a000000000000000000000000000000000000000000000000000000000815260040180806020018281038252601d8152602001807f4c6f636b50726f746f636f6c3a207265656e7472616e742063616c6c2e00000081525060200191505060405180910390fd5b6002600681905550600060149054906101000a900460ff1615613044576040517f08c379a000000000000000000000000000000000000000000000000000000000815260040180806020018281038252601e8152602001807f476f7665726e65643a20436f6e74726163742069732073746f707065642e000081525060200191505060405180910390fd5b60008054906101000a900473ffffffffffffffffffffffffffffffffffffffff1673ffffffffffffffffffffffffffffffffffffffff1663bf86d6906040518163ffffffff1660e01b815260040160206040518083038186803b1580156130aa57600080fd5b505afa1580156130be573d6000803e3d6000fd5b505050506040513d60208110156130d457600080fd5b81019080805190602001909291905050501561313b576040517f08c379a0000000000000000000000000000000000000000000000000000000008152600401808060200182810382526028815260200180617b8e6028913960400191505060405180910390fd5b600d60009054906101000a900473ffffffffffffffffffffffffffffffffffffffff1673ffffffffffffffffffffffffffffffffffffffff1663755edd17336040518263ffffffff1660e01b81526004016131969190617354565b602060405180830381600087803b1580156131b057600080fd5b505af11580156131c4573d6000803e3d6000fd5b505050506040513d601f19601f820116820180604052508101906131e89190616d21565b9050600260009054906101000a900473ffffffffffffffffffffffffffffffffffffffff1673ffffffffffffffffffffffffffffffffffffffff16637e890dcf82846040518363ffffffff1660e01b81526004016132479291906176ca565b600060405180830381600087803b15801561326157600080fd5b505af1158015613275573d6000803e3d6000fd5b505050508067ffffffffffffffff163373ffffffffffffffffffffffffffffffffffffffff167f5e61a417c052598d1a3e26d3d81c42d9e7a943dccc23a840bc94bbabf9b1d60760405160405180910390a36001600681905550600460009054906101000a900473ffffffffffffffffffffffffffffffffffffffff1673ffffffffffffffffffffffffffffffffffffffff1663e9fad8ee6040518163ffffffff1660e01b8152600401600060405180830381600087803b15801561333957600080fd5b505af115801561334d573d6000803e3d6000fd5b50505050919050565b600460009054906101000a900473ffffffffffffffffffffffffffffffffffffffff1673ffffffffffffffffffffffffffffffffffffffff1663e97dcb626040518163ffffffff1660e01b8152600401600060405180830381600087803b1580156133c057600080fd5b505af11580156133d4573d6000803e3d6000fd5b5050505060026006541415613451576040517f08c379a000000000000000000000000000000000000000000000000000000000815260040180806020018281038252601d8152602001807f4c6f636b50726f746f636f6c3a207265656e7472616e742063616c6c2e00000081525060200191505060405180910390fd5b6002600681905550600060149054906101000a900460ff16156134dc576040517f08c379a000000000000000000000000000000000000000000000000000000000815260040180806020018281038252601e8152602001807f476f7665726e65643a20436f6e74726163742069732073746f707065642e000081525060200191505060405180910390fd5b60008054906101000a900473ffffffffffffffffffffffffffffffffffffffff1673ffffffffffffffffffffffffffffffffffffffff1663bf86d6906040518163ffffffff1660e01b815260040160206040518083038186803b15801561354257600080fd5b505afa158015613556573d6000803e3d6000fd5b505050506040513d602081101561356c57600080fd5b8101908080519060200190929190505050156135d3576040517f08c379a0000000000000000000000000000000000000000000000000000000008152600401808060200182810382526028815260200180617b8e6028913960400191505060405180910390fd5b613688600d60009054906101000a900473ffffffffffffffffffffffffffffffffffffffff1673ffffffffffffffffffffffffffffffffffffffff1663430c208133866040518363ffffffff1660e01b81526004016136339291906173cf565b60206040518083038186803b15801561364b57600080fd5b505afa15801561365f573d6000803e3d6000fd5b505050506040513d601f19601f8201168201806040525081019061368391906168fb565b61481a565b6136a160008314158061369c575060008214155b613f1c565b6136a961630e565b6137688467ffffffffffffffff16600260009054906101000a900473ffffffffffffffffffffffffffffffffffffffff1673ffffffffffffffffffffffffffffffffffffffff16630f85fc5a876040518263ffffffff1660e01b815260040161371291906176af565b6101406040518083038186803b15801561372b57600080fd5b505afa15801561373f573d6000803e3d6000fd5b505050506040513d601f19601f820116820180604052508101906137639190616b88565b61485d565b9050600083146137cb57613789838260400151615b3590919063ffffffff16565b81604001818152505061379a613ec3565b8160e0019067ffffffffffffffff16908167ffffffffffffffff16815250506137ca816101200151846001614c44565b5b600082146137f4576137ea828260200151615b3590919063ffffffff16565b8160200181815250505b61380c81610120015182604001518360200151614f51565b600260009054906101000a900473ffffffffffffffffffffffffffffffffffffffff1673ffffffffffffffffffffffffffffffffffffffff1663a075bd0185836040518363ffffffff1660e01b81526004016138699291906176f3565b600060405180830381600087803b15801561388357600080fd5b505af1158015613897573d6000803e3d6000fd5b50505050600082146139d15760008060018111156138b157fe5b82610120015160018111156138c257fe5b146138ef57601060009054906101000a900473ffffffffffffffffffffffffffffffffffffffff16613913565b600f60009054906101000a900473ffffffffffffffffffffffffffffffffffffffff165b90508073ffffffffffffffffffffffffffffffffffffffff166323b872dd33600260009054906101000a900473ffffffffffffffffffffffffffffffffffffffff16866040518463ffffffff1660e01b81526004016139749392919061736f565b602060405180830381600087803b15801561398e57600080fd5b505af11580156139a2573d6000803e3d6000fd5b505050506040513d601f19601f820116820180604052508101906139c691906168fb565b6139cf57600080fd5b505b60008314613a6957600360009054906101000a900473ffffffffffffffffffffffffffffffffffffffff1673ffffffffffffffffffffffffffffffffffffffff1663449a52f833856040518363ffffffff1660e01b8152600401613a369291906173a6565b600060405180830381600087803b158015613a5057600080fd5b505af1158015613a64573d6000803e3d6000fd5b505050505b8367ffffffffffffffff163373ffffffffffffffffffffffffffffffffffffffff167fa662e83179bdff2a626548818030e7fd90d11c79f0e3eedcf9ba39148c203ae48585604051613abc929190617686565b60405180910390a3506001600681905550600460009054906101000a900473ffffffffffffffffffffffffffffffffffffffff1673ffffffffffffffffffffffffffffffffffffffff1663e9fad8ee6040518163ffffffff1660e01b8152600401600060405180830381600087803b158015613b3757600080fd5b505af1158015613b4b573d6000803e3d6000fd5b50505050505050565b613b5c61630e565b60026006541415613bd5576040517f08c379a000000000000000000000000000000000000000000000000000000000815260040180806020018281038252601d8152602001807f4c6f636b436f6e74726163743a207265656e7472616e742063616c6c2e00000081525060200191505060405180910390fd5b6002600681905550613d8460008054906101000a900473ffffffffffffffffffffffffffffffffffffffff1673ffffffffffffffffffffffffffffffffffffffff16639a371c846040518163ffffffff1660e01b815260040160206040518083038186803b158015613c4657600080fd5b505afa158015613c5a573d6000803e3d6000fd5b505050506040513d601f19601f82011682018060405250810190613c7e91906169f1565b73ffffffffffffffffffffffffffffffffffffffff163373ffffffffffffffffffffffffffffffffffffffff161480613d7f575060008054906101000a900473ffffffffffffffffffffffffffffffffffffffff1673ffffffffffffffffffffffffffffffffffffffff1663511606306040518163ffffffff1660e01b815260040160206040518083038186803b158015613d1857600080fd5b505afa158015613d2c573d6000803e3d6000fd5b505050506040513d601f19601f82011682018060405250810190613d509190616a95565b73ffffffffffffffffffffffffffffffffffffffff163373ffffffffffffffffffffffffffffffffffffffff16145b61481a565b613e438267ffffffffffffffff16600260009054906101000a900473ffffffffffffffffffffffffffffffffffffffff1673ffffffffffffffffffffffffffffffffffffffff16630f85fc5a856040518263ffffffff1660e01b8152600401613ded91906176af565b6101406040518083038186803b158015613e0657600080fd5b505afa158015613e1a573d6000803e3d6000fd5b505050506040513d601f19601f82011682018060405250810190613e3e9190616b88565b61485d565b90506001600681905550919050565b600b5481565b6000680100000000000000008210613ebb576040517f08c379a0000000000000000000000000000000000000000000000000000000008152600401808060200182810382526026815260200180617bd76026913960400191505060405180910390fd5b819050919050565b6000613ece42613e58565b905090565b6001600060146101000a81548160ff0219169083151502179055507f7acc84e34091ae817647a4c49116f5cc07f319078ba80f8f5fde37ea7e25cbd660405160405180910390a1565b80613f5c576040517f08c379a0000000000000000000000000000000000000000000000000000000008152600401613f5390617569565b60405180910390fd5b50565b613f6761062b565b600c60086101000a81548167ffffffffffffffff021916908367ffffffffffffffff1602179055506001600c60089054906101000a900467ffffffffffffffff1667ffffffffffffffff1614613fbc57600080fd5b60008054906101000a900473ffffffffffffffffffffffffffffffffffffffff1673ffffffffffffffffffffffffffffffffffffffff16637380f6796040518163ffffffff1660e01b815260040160206040518083038186803b15801561402257600080fd5b505afa158015614036573d6000803e3d6000fd5b505050506040513d601f19601f8201168201806040525081019061405a919061694d565b600d60006101000a81548173ffffffffffffffffffffffffffffffffffffffff021916908373ffffffffffffffffffffffffffffffffffffffff16021790555060008054906101000a900473ffffffffffffffffffffffffffffffffffffffff1673ffffffffffffffffffffffffffffffffffffffff1663ba2481d16040518163ffffffff1660e01b815260040160206040518083038186803b15801561410057600080fd5b505afa158015614114573d6000803e3d6000fd5b505050506040513d601f19601f8201168201806040525081019061413891906169c8565b600e60006101000a81548173ffffffffffffffffffffffffffffffffffffffff021916908373ffffffffffffffffffffffffffffffffffffffff16021790555060008054906101000a900473ffffffffffffffffffffffffffffffffffffffff1673ffffffffffffffffffffffffffffffffffffffff16633fc8cef36040518163ffffffff1660e01b815260040160206040518083038186803b1580156141de57600080fd5b505afa1580156141f2573d6000803e3d6000fd5b505050506040513d601f19601f820116820180604052508101906142169190616976565b600f60006101000a81548173ffffffffffffffffffffffffffffffffffffffff021916908373ffffffffffffffffffffffffffffffffffffffff16021790555060008054906101000a900473ffffffffffffffffffffffffffffffffffffffff1673ffffffffffffffffffffffffffffffffffffffff1663a28d57d86040518163ffffffff1660e01b815260040160206040518083038186803b1580156142bc57600080fd5b505afa1580156142d0573d6000803e3d6000fd5b505050506040513d601f19601f820116820180604052508101906142f49190616976565b601060006101000a81548173ffffffffffffffffffffffffffffffffffffffff021916908373ffffffffffffffffffffffffffffffffffffffff16021790555061433c616390565b6040518060a00160405280632b7eba3d60e01b7bffffffffffffffffffffffffffffffffffffffffffffffffffffffff19167bffffffffffffffffffffffffffffffffffffffffffffffffffffffff191681526020016312cf521960e01b7bffffffffffffffffffffffffffffffffffffffffffffffffffffffff19167bffffffffffffffffffffffffffffffffffffffffffffffffffffffff191681526020016306972dcd60e01b7bffffffffffffffffffffffffffffffffffffffffffffffffffffffff19167bffffffffffffffffffffffffffffffffffffffffffffffffffffffff19168152602001635a6127a960e01b7bffffffffffffffffffffffffffffffffffffffffffffffffffffffff19167bffffffffffffffffffffffffffffffffffffffffffffffffffffffff1916815260200163ad51d9ff60e01b7bffffffffffffffffffffffffffffffffffffffffffffffffffffffff19167bffffffffffffffffffffffffffffffffffffffffffffffffffffffff1916815250905060005b6005811015614551576001600560008484600581106144dc57fe5b60200201517bffffffffffffffffffffffffffffffffffffffffffffffffffffffff19167bffffffffffffffffffffffffffffffffffffffffffffffffffffffff1916815260200190815260200160002060006101000a81548160ff02191690831515021790555080806001019150506144c1565b5050565b600080600360009054906101000a900473ffffffffffffffffffffffffffffffffffffffff1673ffffffffffffffffffffffffffffffffffffffff166370a08231600260009054906101000a900473ffffffffffffffffffffffffffffffffffffffff166040518263ffffffff1660e01b81526004016145d59190617339565b60206040518083038186803b1580156145ed57600080fd5b505afa158015614601573d6000803e3d6000fd5b505050506040513d601f19601f820116820180604052508101906146259190616ccf565b90506000600e60009054906101000a900473ffffffffffffffffffffffffffffffffffffffff1673ffffffffffffffffffffffffffffffffffffffff166318160ddd6040518163ffffffff1660e01b815260040160206040518083038186803b15801561469157600080fd5b505afa1580156146a5573d6000803e3d6000fd5b505050506040513d601f19601f820116820180604052508101906146c99190616ccf565b905060008114806146da5750600082145b6146f6576146f1828261470790919063ffffffff16565b614700565b670de0b6b3a76400005b9250505090565b60008083141561471a5760009050614814565b6000821415614791576040517f08c379a000000000000000000000000000000000000000000000000000000000815260040180806020018281038252601b8152602001807f536166654d6174683a206469766973696f6e206279207a65726f2e000000000081525060200191505060405180910390fd5b670de0b6b3a764000083029050670de0b6b3a76400008382816147b057fe5b0414614807576040517f08c379a0000000000000000000000000000000000000000000000000000000008152600401808060200182810382526022815260200180617b6c6022913960400191505060405180910390fd5b81818161481057fe5b0490505b92915050565b8061485a576040517f08c379a000000000000000000000000000000000000000000000000000000000815260040161485190617589565b60405180910390fd5b50565b61486561630e565b6000808360c0015167ffffffffffffffff161461488e576148898360c00151615bbd565b614891565b60005b9050600061489d615c40565b905060006148aa82615bbd565b90508067ffffffffffffffff168367ffffffffffffffff16106148d257849350505050614b3f565b6148da615065565b60006149a986600260009054906101000a900473ffffffffffffffffffffffffffffffffffffffff1673ffffffffffffffffffffffffffffffffffffffff166306ef2d806040518163ffffffff1660e01b815260040160a06040518083038186803b15801561494857600080fd5b505afa15801561495c573d6000803e3d6000fd5b505050506040513d601f19601f820116820180604052508101906149809190616c41565b8585887f000000000000000000000000000000000000000000000000000000000000000061590a565b809250819650505060008114614af15760008054906101000a900473ffffffffffffffffffffffffffffffffffffffff1673ffffffffffffffffffffffffffffffffffffffff16637ccbff96600d60009054906101000a900473ffffffffffffffffffffffffffffffffffffffff1673ffffffffffffffffffffffffffffffffffffffff16636352211e8a6040518263ffffffff1660e01b8152600401614a50919061766b565b60206040518083038186803b158015614a6857600080fd5b505afa158015614a7c573d6000803e3d6000fd5b505050506040513d601f19601f82011682018060405250810190614aa091906168d2565b836040518363ffffffff1660e01b8152600401614abe9291906173f8565b600060405180830381600087803b158015614ad857600080fd5b505af1158015614aec573d6000803e3d6000fd5b505050505b8167ffffffffffffffff16877fc99ac0d15229fa72f1b0756c0eed4e7ede3d80f4e4e0d308ce7a56d1366b8a03876040015184604051614b32929190617686565b60405180910390a3505050505b92915050565b60008082840190508367ffffffffffffffff168167ffffffffffffffff161015614bd7576040517f08c379a000000000000000000000000000000000000000000000000000000000815260040180806020018281038252601b8152602001807f536166654d6174683a206164646974696f6e206f766572666c6f77000000000081525060200191505060405180910390fd5b8091505092915050565b6000818310614bf05781614bf2565b825b905092915050565b6000614c3c83836040518060400160405280601e81526020017f536166654d6174683a207375627472616374696f6e206f766572666c6f770000815250615d2a565b905092915050565b600080600260009054906101000a900473ffffffffffffffffffffffffffffffffffffffff1673ffffffffffffffffffffffffffffffffffffffff16634b6f31988686866040518463ffffffff1660e01b8152600401614ca6939291906174d2565b6040805180830381600087803b158015614cbf57600080fd5b505af1158015614cd3573d6000803e3d6000fd5b505050506040513d601f19601f82011682018060405250810190614cf79190616c6a565b6fffffffffffffffffffffffffffffffff1691506fffffffffffffffffffffffffffffffff1691508215614f4a5760008060009054906101000a900473ffffffffffffffffffffffffffffffffffffffff1673ffffffffffffffffffffffffffffffffffffffff16639ec5a8946040518163ffffffff1660e01b815260040160206040518083038186803b158015614d8e57600080fd5b505afa158015614da2573d6000803e3d6000fd5b505050506040513d601f19601f82011682018060405250810190614dc69190616a6c565b90506000806001811115614dd657fe5b876001811115614de257fe5b14614ded5782614def565b835b905060076000886001811115614e0157fe5b6001811115614e0c57fe5b815260200190815260200160002054811115614e5d576040517f08c379a0000000000000000000000000000000000000000000000000000000008152600401614e5490617529565b60405180910390fd5b8173ffffffffffffffffffffffffffffffffffffffff1663bfbc144b88836040518363ffffffff1660e01b8152600401614e989291906174a9565b600060405180830381600087803b158015614eb257600080fd5b505af1158015614ec6573d6000803e3d6000fd5b505050508173ffffffffffffffffffffffffffffffffffffffff1663982dca44614ef98587615b3590919063ffffffff16565b6040518263ffffffff1660e01b8152600401614f15919061766b565b600060405180830381600087803b158015614f2f57600080fd5b505af1158015614f43573d6000803e3d6000fd5b5050505050505b5050505050565b6000821461506057600a54821015614f9e576040517f08c379a0000000000000000000000000000000000000000000000000000000008152600401614f95906175a9565b60405180910390fd5b6000811415614fe2576040517f08c379a0000000000000000000000000000000000000000000000000000000008152600401614fd990617549565b60405180910390fd5b60096000846001811115614ff257fe5b6001811115614ffd57fe5b81526020019081526020016000205461501f838361470790919063ffffffff16565b1161505f576040517f08c379a000000000000000000000000000000000000000000000000000000000815260040161505690617509565b60405180910390fd5b5b505050565b6000615077615072615c40565b615bbd565b9050600c60089054906101000a900467ffffffffffffffff1667ffffffffffffffff168167ffffffffffffffff16116150b05750615908565b6000600c60089054906101000a900467ffffffffffffffff16820390506150d56163b2565b600260009054906101000a900473ffffffffffffffffffffffffffffffffffffffff1673ffffffffffffffffffffffffffffffffffffffff166306ef2d806040518163ffffffff1660e01b815260040160a06040518083038186803b15801561513d57600080fd5b505afa158015615151573d6000803e3d6000fd5b505050506040513d601f19601f820116820180604052508101906151759190616c41565b905060008060009054906101000a900473ffffffffffffffffffffffffffffffffffffffff1673ffffffffffffffffffffffffffffffffffffffff166343f48fbd6040518163ffffffff1660e01b815260040160206040518083038186803b1580156151e057600080fd5b505afa1580156151f4573d6000803e3d6000fd5b505050506040513d601f19601f820116820180604052508101906152189190616a43565b90506152226163e1565b6153cb83858473ffffffffffffffffffffffffffffffffffffffff1663a0fc0eda6040518163ffffffff1660e01b815260040160206040518083038186803b15801561526d57600080fd5b505afa158015615281573d6000803e3d6000fd5b505050506040513d601f19601f820116820180604052508101906152a59190616ccf565b8573ffffffffffffffffffffffffffffffffffffffff16636d7fa6646040518163ffffffff1660e01b815260040160206040518083038186803b1580156152eb57600080fd5b505afa1580156152ff573d6000803e3d6000fd5b505050506040513d601f19601f8201168201806040525081019061532391906168fb565b600360009054906101000a900473ffffffffffffffffffffffffffffffffffffffff1673ffffffffffffffffffffffffffffffffffffffff166375172a8b6040518163ffffffff1660e01b815260040160206040518083038186803b15801561538b57600080fd5b505afa15801561539f573d6000803e3d6000fd5b505050506040513d601f19601f820116820180604052508101906153c39190616ccf565b600b54615dea565b905060006155c260008054906101000a900473ffffffffffffffffffffffffffffffffffffffff1673ffffffffffffffffffffffffffffffffffffffff16639ec5a8946040518163ffffffff1660e01b815260040160206040518083038186803b15801561543857600080fd5b505afa15801561544c573d6000803e3d6000fd5b505050506040513d601f19601f820116820180604052508101906154709190616a6c565b73ffffffffffffffffffffffffffffffffffffffff16630a86f1096040518163ffffffff1660e01b815260040160206040518083038186803b1580156154b557600080fd5b505afa1580156154c9573d6000803e3d6000fd5b505050506040513d601f19601f820116820180604052508101906154ed9190616ccf565b6155b48767ffffffffffffffff16600667ffffffffffffffff1660008054906101000a900473ffffffffffffffffffffffffffffffffffffffff1673ffffffffffffffffffffffffffffffffffffffff1663c375e6ed6040518163ffffffff1660e01b815260040160206040518083038186803b15801561556d57600080fd5b505afa158015615581573d6000803e3d6000fd5b505050506040513d601f19601f820116820180604052508101906155a59190616ccf565b615f899092919063ffffffff16565b615a9690919063ffffffff16565b90506155d984868385600001518660200151616098565b9350600260009054906101000a900473ffffffffffffffffffffffffffffffffffffffff1673ffffffffffffffffffffffffffffffffffffffff16631e70dda8856040518263ffffffff1660e01b81526004016156369190617650565b600060405180830381600087803b15801561565057600080fd5b505af1158015615664573d6000803e3d6000fd5b5050505085600c60086101000a81548167ffffffffffffffff021916908367ffffffffffffffff160217905550600082606001511461575357600360009054906101000a900473ffffffffffffffffffffffffffffffffffffffff1673ffffffffffffffffffffffffffffffffffffffff1663449a52f8600260009054906101000a900473ffffffffffffffffffffffffffffffffffffffff1684606001516040518363ffffffff1660e01b81526004016157209291906173f8565b600060405180830381600087803b15801561573a57600080fd5b505af115801561574e573d6000803e3d6000fd5b505050505b600082604001511461581557600360009054906101000a900473ffffffffffffffffffffffffffffffffffffffff1673ffffffffffffffffffffffffffffffffffffffff1663449a52f8600360009054906101000a900473ffffffffffffffffffffffffffffffffffffffff1684604001516040518363ffffffff1660e01b81526004016157e29291906173f8565b600060405180830381600087803b1580156157fc57600080fd5b505af1158015615810573d6000803e3d6000fd5b505050505b60008260800151146158b357600360009054906101000a900473ffffffffffffffffffffffffffffffffffffffff1673ffffffffffffffffffffffffffffffffffffffff1663c59fb1ab83608001516040518263ffffffff1660e01b8152600401615880919061766b565b600060405180830381600087803b15801561589a57600080fd5b505af11580156158ae573d6000803e3d6000fd5b505050505b8567ffffffffffffffff167f71da81b0a41aa29a1d29cd931a7a2f61a82516897a262f1c5321ece756659fc186846000015187604001516040516158f99392919061771d565b60405180910390a25050505050505b565b61591261630e565b60008467ffffffffffffffff168467ffffffffffffffff161061593b5787600091509150615a8b565b87915060008467ffffffffffffffff161415801561595e57506000826040015114155b15615a4057615984876080015183606001518460400151615f899092919063ffffffff16565b826040018181525050600084860367ffffffffffffffff166159b784600001518a60600151614bfa90919063ffffffff16565b816159be57fe5b049050615a3c6159e58460c001518967ffffffffffffffff1661616a90919063ffffffff16565b67ffffffffffffffff168567ffffffffffffffff16615a2d615a1887608001518d60400151614bfa90919063ffffffff16565b858860400151615f899092919063ffffffff16565b615f899092919063ffffffff16565b9150505b866080015182606001818152505086604001518260800181815250508660600151826000018181525050858260c0019067ffffffffffffffff16908167ffffffffffffffff16815250505b965096945050505050565b600080831480615aa65750600082145b15615ab45760009050615b2f565b818302905081838281615ac357fe5b0414615b1a576040517f08c379a0000000000000000000000000000000000000000000000000000000008152600401808060200182810382526022815260200180617b6c6022913960400191505060405180910390fd5b670de0b6b3a76400008181615b2b57fe5b0490505b92915050565b600080828401905083811015615bb3576040517f08c379a000000000000000000000000000000000000000000000000000000000815260040180806020018281038252601b8152602001807f536166654d6174683a206164646974696f6e206f766572666c6f77000000000081525060200191505060405180910390fd5b8091505092915050565b6000615c397f00000000000000000000000000000000000000000000000000000000000000007f000000000000000000000000000000000000000000000000000000000000000067ffffffffffffffff168467ffffffffffffffff1681615c2057fe5b0467ffffffffffffffff1661616a90919063ffffffff16565b9050919050565b6000615c4a613ec3565b905060008060009054906101000a900473ffffffffffffffffffffffffffffffffffffffff1673ffffffffffffffffffffffffffffffffffffffff1663585690816040518163ffffffff1660e01b815260040160206040518083038186803b158015615cb557600080fd5b505afa158015615cc9573d6000803e3d6000fd5b505050506040513d601f19601f82011682018060405250810190615ced9190616d21565b905060008167ffffffffffffffff1614158015615d1d57508067ffffffffffffffff168267ffffffffffffffff16115b15615d26578091505b5090565b6000838311158290615dd7576040517f08c379a00000000000000000000000000000000000000000000000000000000081526004018080602001828103825283818151815260200191508051906020019080838360005b83811015615d9c578082015181840152602081019050615d81565b50505050905090810190601f168015615dc95780820380516001836020036101000a031916815260200191505b509250505060405180910390fd5b5060008385039050809150509392505050565b615df26163e1565b6000615e0f88602001518960000151615b3590919063ffffffff16565b90506000861415615e385780826000018181525050876080015182602001818152505050615f7f565b6000615e7f615e688967ffffffffffffffff1661088e67ffffffffffffffff168a615f899092919063ffffffff16565b670de0b6b3a7640000615b3590919063ffffffff16565b905085615ea257615e9d818a6080015161470790919063ffffffff16565b615eba565b615eb9818a60800151615a9690919063ffffffff16565b5b836020018181525050615ee083602001518a6080015184615f899092919063ffffffff16565b8360000181815250508183600001511115615f32576000828460000151039050615f138582615a9690919063ffffffff16565b8460600181815250508360600151810384604001818152505050615f7c565b8183600001511015615f7b57600083600001518303905085811115615f6e57828460000181815250508960800151846020018181525050615f79565b808460800181815250505b505b5b50505b9695505050505050565b600080841480615f995750600083145b15615fa75760009050616091565b600082141561601e576040517f08c379a000000000000000000000000000000000000000000000000000000000815260040180806020018281038252601b8152602001807f536166654d6174683a206469766973696f6e206279207a65726f2e000000000081525060200191505060405180910390fd5b82840290508284828161602d57fe5b0414616084576040517f08c379a0000000000000000000000000000000000000000000000000000000008152600401808060200182810382526022815260200180617b6c6022913960400191505060405180910390fd5b81818161608d57fe5b0490505b9392505050565b6160a06163b2565b8590506160ba848260400151615b3590919063ffffffff16565b8160400181815250506160f66160e38667ffffffffffffffff16856161b490919063ffffffff16565b8260600151615b3590919063ffffffff16565b81606001818152505080608001518214616157576161278282608001518360000151615f899092919063ffffffff16565b81600001818152505061614d8282608001518360200151615f899092919063ffffffff16565b8160200181815250505b8181608001818152505095945050505050565b60006161ac83836040518060400160405280601e81526020017f536166654d6174683a207375627472616374696f6e206f766572666c6f77000081525061623a565b905092915050565b6000808314156161c75760009050616234565b60008284029050828482816161d857fe5b041461622f576040517f08c379a0000000000000000000000000000000000000000000000000000000008152600401808060200182810382526021815260200180617bb66021913960400191505060405180910390fd5b809150505b92915050565b60008367ffffffffffffffff168367ffffffffffffffff16111582906162fb576040517f08c379a00000000000000000000000000000000000000000000000000000000081526004018080602001828103825283818151815260200191508051906020019080838360005b838110156162c05780820151818401526020810190506162a5565b50505050905090810190601f1680156162ed5780820380516001836020036101000a031916815260200191505b509250505060405180910390fd5b5060008385039050809150509392505050565b6040518061014001604052806000815260200160008152602001600081526020016000815260200160008152602001600067ffffffffffffffff168152602001600067ffffffffffffffff168152602001600067ffffffffffffffff168152602001600063ffffffff1681526020016000600181111561638a57fe5b81525090565b6040518060a00160405280600590602082028036833780820191505090505090565b6040518060a0016040528060008152602001600081526020016000815260200160008152602001600081525090565b6040518060a0016040528060008152602001600081526020016000815260200160008152602001600081525090565b60008151905061641f816179d4565b92915050565b600081519050616434816179eb565b92915050565b60008135905061644981617a02565b92915050565b60008151905061645e81617a19565b92915050565b60008151905061647381617a30565b92915050565b60008135905061648881617a47565b92915050565b60008151905061649d81617a5e565b92915050565b6000815190506164b281617a75565b92915050565b6000815190506164c781617a8c565b92915050565b6000815190506164dc81617aa3565b92915050565b6000815190506164f181617aba565b92915050565b60008151905061650681617ad1565b92915050565b60008135905061651b81617ae8565b92915050565b60008135905061653081617aff565b92915050565b60008151905061654581617aff565b92915050565b6000610140828403121561655e57600080fd5b616569610140617754565b9050600061657984828501616854565b600083015250602061658d84828501616854565b60208301525060406165a184828501616854565b60408301525060606165b584828501616854565b60608301525060806165c984828501616854565b60808301525060a06165dd848285016168a8565b60a08301525060c06165f1848285016168a8565b60c08301525060e0616605848285016168a8565b60e08301525061010061661a8482850161687e565b6101008301525061012061663084828501616521565b6101208301525092915050565b6000610140828403121561665057600080fd5b61665b610140617754565b9050600061666b84828501616869565b600083015250602061667f84828501616869565b602083015250604061669384828501616869565b60408301525060606166a784828501616869565b60608301525060806166bb84828501616869565b60808301525060a06166cf848285016168bd565b60a08301525060c06166e3848285016168bd565b60c08301525060e06166f7848285016168bd565b60e08301525061010061670c84828501616893565b6101008301525061012061672284828501616536565b6101208301525092915050565b600060a0828403121561674157600080fd5b61674b60a0617754565b9050600061675b84828501616854565b600083015250602061676f84828501616854565b602083015250604061678384828501616854565b604083015250606061679784828501616854565b60608301525060806167ab84828501616854565b60808301525092915050565b600060a082840312156167c957600080fd5b6167d360a0617754565b905060006167e384828501616869565b60008301525060206167f784828501616869565b602083015250604061680b84828501616869565b604083015250606061681f84828501616869565b606083015250608061683384828501616869565b60808301525092915050565b60008151905061684e81617b0f565b92915050565b60008135905061686381617b26565b92915050565b60008151905061687881617b26565b92915050565b60008135905061688d81617b3d565b92915050565b6000815190506168a281617b3d565b92915050565b6000813590506168b781617b54565b92915050565b6000815190506168cc81617b54565b92915050565b6000602082840312156168e457600080fd5b60006168f284828501616410565b91505092915050565b60006020828403121561690d57600080fd5b600061691b84828501616425565b91505092915050565b60006020828403121561693657600080fd5b60006169448482850161643a565b91505092915050565b60006020828403121561695f57600080fd5b600061696d8482850161644f565b91505092915050565b60006020828403121561698857600080fd5b600061699684828501616464565b91505092915050565b6000602082840312156169b157600080fd5b60006169bf84828501616479565b91505092915050565b6000602082840312156169da57600080fd5b60006169e88482850161648e565b91505092915050565b600060208284031215616a0357600080fd5b6000616a11848285016164a3565b91505092915050565b600060208284031215616a2c57600080fd5b6000616a3a848285016164b8565b91505092915050565b600060208284031215616a5557600080fd5b6000616a63848285016164cd565b91505092915050565b600060208284031215616a7e57600080fd5b6000616a8c848285016164e2565b91505092915050565b600060208284031215616aa757600080fd5b6000616ab5848285016164f7565b91505092915050565b60008060408385031215616ad157600080fd5b6000616adf8582860161650c565b9250506020616af085828601616854565b9150509250929050565b600060208284031215616b0c57600080fd5b6000616b1a84828501616521565b91505092915050565b600060208284031215616b3557600080fd5b6000616b4384828501616536565b91505092915050565b60008060408385031215616b5f57600080fd5b6000616b6d85828601616521565b9250506020616b7e85828601616854565b9150509250929050565b60006101408284031215616b9b57600080fd5b6000616ba98482850161663d565b91505092915050565b6000806000806000806102608789031215616bcc57600080fd5b6000616bda89828a0161654b565b965050610140616bec89828a0161672f565b9550506101e0616bfe89828a016168a8565b945050610200616c1089828a016168a8565b935050610220616c2289828a016168a8565b925050610240616c3489828a016168a8565b9150509295509295509295565b600060a08284031215616c5357600080fd5b6000616c61848285016167b7565b91505092915050565b60008060408385031215616c7d57600080fd5b6000616c8b8582860161683f565b9250506020616c9c8582860161683f565b9150509250929050565b600060208284031215616cb857600080fd5b6000616cc684828501616854565b91505092915050565b600060208284031215616ce157600080fd5b6000616cef84828501616869565b91505092915050565b600060208284031215616d0a57600080fd5b6000616d18848285016168a8565b91505092915050565b600060208284031215616d3357600080fd5b6000616d41848285016168bd565b91505092915050565b600080600060608486031215616d5f57600080fd5b6000616d6d868287016168a8565b9350506020616d7e86828701616854565b9250506040616d8f86828701616854565b9150509250925092565b616da28161791c565b82525050565b616db1816177a1565b82525050565b616dc0816177b3565b82525050565b616dcf8161792e565b82525050565b616dde81617952565b82525050565b616ded81617976565b82525050565b616dfc81617976565b82525050565b6000616e0f601883617785565b91507f496e73756666696369656e7420636f6c6c61746572616c2e00000000000000006000830152602082019050919050565b6000616e4f602083617785565b91507f4d61726b65742f61646a757374446562743a2044656274206365696c696e672e6000830152602082019050919050565b6000616e8f600f83617796565b91507f6d696e506f736974696f6e53697a6500000000000000000000000000000000006000830152600f82019050919050565b6000616ecf600e83617785565b91507f556e6261636b656420646562742e0000000000000000000000000000000000006000830152602082019050919050565b6000616f0f601a83617785565b91507f506172616d65746572732068617665206e6f206566666563742e0000000000006000830152602082019050919050565b6000616f4f600d83617796565b91507f6d696e426f72726f7754696d65000000000000000000000000000000000000006000830152600d82019050919050565b6000616f8f600f83617785565b91507f4e6f7420417574686f72697a65642e00000000000000000000000000000000006000830152602082019050919050565b6000616fcf601283617785565b91507f4163636f756e7420746f6f20736d616c6c2e00000000000000000000000000006000830152602082019050919050565b600061700f601c83617796565b91507f636f6c6c61746572616c697a6174696f6e526571756972656d656e74000000006000830152601c82019050919050565b600061704f600783617796565b91507f6d617844656274000000000000000000000000000000000000000000000000006000830152600782019050919050565b600061708f601883617796565b91507f696e746572657374506f7274696f6e546f4c656e6465727300000000000000006000830152601882019050919050565b60006170cf601483617785565b91507f4e6f206465627420746f20706179206261636b2e0000000000000000000000006000830152602082019050919050565b600061710f601583617785565b91507f466c61736820626f72726f77206f6e20436f696e2e00000000000000000000006000830152602082019050919050565b610140820160008201516171596000850182617276565b50602082015161716c6020850182617276565b50604082015161717f6040850182617276565b5060608201516171926060850182617276565b5060808201516171a56080850182617276565b5060a08201516171b860a08501826172b2565b5060c08201516171cb60c08501826172b2565b5060e08201516171de60e08501826172b2565b506101008201516171f3610100850182617294565b50610120820151617208610120850182616de4565b50505050565b60a0820160008201516172246000850182617276565b5060208201516172376020850182617276565b50604082015161724a6040850182617276565b50606082015161725d6060850182617276565b5060808201516172706080850182617276565b50505050565b61727f816178ee565b82525050565b61728e816178ee565b82525050565b61729d816178f8565b82525050565b6172ac816179ac565b82525050565b6172bb81617908565b82525050565b6172ca81617908565b82525050565b60006172db82616e82565b9150819050919050565b60006172f082616f42565b9150819050919050565b600061730582617002565b9150819050919050565b600061731a82617042565b9150819050919050565b600061732f82617082565b9150819050919050565b600060208201905061734e6000830184616da8565b92915050565b60006020820190506173696000830184616d99565b92915050565b60006060820190506173846000830186616d99565b6173916020830185616da8565b61739e6040830184617285565b949350505050565b60006040820190506173bb6000830185616d99565b6173c86020830184617285565b9392505050565b60006040820190506173e46000830185616d99565b6173f160208301846172a3565b9392505050565b600060408201905061740d6000830185616da8565b61741a6020830184617285565b9392505050565b60006020820190506174366000830184616db7565b92915050565b60006020820190506174516000830184616dc6565b92915050565b600060208201905061746c6000830184616dd5565b92915050565b60006060820190506174876000830186616df3565b6174946020830185616d99565b6174a16040830184617285565b949350505050565b60006040820190506174be6000830185616df3565b6174cb6020830184617285565b9392505050565b60006060820190506174e76000830186616df3565b6174f46020830185617285565b6175016040830184616db7565b949350505050565b6000602082019050818103600083015261752281616e02565b9050919050565b6000602082019050818103600083015261754281616e42565b9050919050565b6000602082019050818103600083015261756281616ec2565b9050919050565b6000602082019050818103600083015261758281616f02565b9050919050565b600060208201905081810360008301526175a281616f82565b9050919050565b600060208201905081810360008301526175c281616fc2565b9050919050565b600060208201905081810360008301526175e2816170c2565b9050919050565b6000602082019050818103600083015261760281617102565b9050919050565b60006101408201905061761f6000830184617142565b92915050565b60006101608201905061763b6000830185617142565b617649610140830184617285565b9392505050565b600060a082019050617665600083018461720e565b92915050565b60006020820190506176806000830184617285565b92915050565b600060408201905061769b6000830185617285565b6176a86020830184617285565b9392505050565b60006020820190506176c460008301846172c1565b92915050565b60006040820190506176df60008301856172c1565b6176ec6020830184616df3565b9392505050565b60006101608201905061770960008301856172c1565b6177166020830184617142565b9392505050565b600060608201905061773260008301866172c1565b61773f6020830185617285565b61774c6040830184617285565b949350505050565b6000604051905081810181811067ffffffffffffffff8211171561777b5761777a6179be565b5b8060405250919050565b600082825260208201905092915050565b600081905092915050565b60006177ac826178ce565b9050919050565b60008115159050919050565b60007fffffffff0000000000000000000000000000000000000000000000000000000082169050919050565b60006177f6826177a1565b9050919050565b6000617808826177a1565b9050919050565b600061781a826177a1565b9050919050565b600061782c826177a1565b9050919050565b600061783e826177a1565b9050919050565b6000617850826177a1565b9050919050565b6000617862826177a1565b9050919050565b6000617874826177a1565b9050919050565b6000617886826177a1565b9050919050565b6000617898826177a1565b9050919050565b60008190506178ad826179c0565b919050565b60006fffffffffffffffffffffffffffffffff82169050919050565b600073ffffffffffffffffffffffffffffffffffffffff82169050919050565b6000819050919050565b600063ffffffff82169050919050565b600067ffffffffffffffff82169050919050565b600061792782617988565b9050919050565b600061793982617940565b9050919050565b600061794b826178ce565b9050919050565b600061795d82617964565b9050919050565b600061796f826178ce565b9050919050565b60006179818261789f565b9050919050565b60006179938261799a565b9050919050565b60006179a5826178ce565b9050919050565b60006179b782617908565b9050919050565bfe5b600281106179d1576179d06179be565b5b50565b6179dd816177a1565b81146179e857600080fd5b50565b6179f4816177b3565b81146179ff57600080fd5b50565b617a0b816177bf565b8114617a1657600080fd5b50565b617a22816177eb565b8114617a2d57600080fd5b50565b617a39816177fd565b8114617a4457600080fd5b50565b617a508161780f565b8114617a5b57600080fd5b50565b617a6781617821565b8114617a7257600080fd5b50565b617a7e81617833565b8114617a8957600080fd5b50565b617a9581617845565b8114617aa057600080fd5b50565b617aac81617857565b8114617ab757600080fd5b50565b617ac381617869565b8114617ace57600080fd5b50565b617ada8161787b565b8114617ae557600080fd5b50565b617af18161788d565b8114617afc57600080fd5b50565b60028110617b0c57600080fd5b50565b617b18816178b2565b8114617b2357600080fd5b50565b617b2f816178ee565b8114617b3a57600080fd5b50565b617b46816178f8565b8114617b5157600080fd5b50565b617b5d81617908565b8114617b6857600080fd5b5056fe536166654d6174683a206d756c7469706c69636174696f6e206f766572666c6f772e476f7665726e65643a204e6f7420617661696c61626c6520647572696e672073687574646f776e2e536166654d6174683a206d756c7469706c69636174696f6e206f766572666c6f7753616665436173743a2076616c756520646f65736e27742066697420696e2036342062697473a2646970667358221220ba939e86999536acae50a403da54816474d900d99d8d3a909f916b93b7f709b264736f6c6343000704003353616665436173743a2076616c756520646f65736e27742066697420696e2036342062697473",
  "linkReferences": {},
  "deployedLinkReferences": {}
}