{
  "_format": "hh-sol-artifact-1",
  "contractName": "Liquidations",
  "sourceName": "contracts/core/logic/Liquidations.sol",
  "abi": [
    {
      "anonymous": false,
      "inputs": [
        {
          "indexed": false,
          "internalType": "uint256",
          "name": "price",
          "type": "uint256"
        },
        {
          "indexed": false,
          "internalType": "uint256",
          "name": "positionDebt",
          "type": "uint256"
        },
        {
          "indexed": false,
          "internalType": "uint256",
          "name": "positionCollateral",
          "type": "uint256"
        }
      ],
      "name": "CoveredUnbackedDebt",
      "type": "event"
    },
    {
      "anonymous": false,
      "inputs": [
        {
          "indexed": true,
          "internalType": "address",
          "name": "governor",
          "type": "address"
        }
      ],
      "name": "Initialized",
      "type": "event"
    },
    {
      "anonymous": false,
      "inputs": [
        {
          "indexed": false,
          "internalType": "uint256",
          "name": "baseTokensToRepay",
          "type": "uint256"
        },
        {
          "indexed": true,
          "internalType": "bool",
          "name": "flash",
          "type": "bool"
        }
      ],
      "name": "Liquidated",
      "type": "event"
    },
    {
      "anonymous": false,
      "inputs": [
        {
          "indexed": true,
          "internalType": "string",
          "name": "paramName",
          "type": "string"
        },
        {
          "indexed": false,
          "internalType": "uint256",
          "name": "value",
          "type": "uint256"
        }
      ],
      "name": "ParameterUpdated",
      "type": "event"
    },
    {
      "anonymous": false,
      "inputs": [
        {
          "indexed": true,
          "internalType": "string",
          "name": "paramName",
          "type": "string"
        },
        {
          "indexed": false,
          "internalType": "uint64",
          "name": "value",
          "type": "uint64"
        }
      ],
      "name": "ParameterUpdated64",
      "type": "event"
    },
    {
      "anonymous": false,
      "inputs": [],
      "name": "Stopped",
      "type": "event"
    },
    {
      "anonymous": false,
      "inputs": [
        {
          "indexed": true,
          "internalType": "uint64",
          "name": "positionID",
          "type": "uint64"
        },
        {
          "indexed": false,
          "internalType": "uint256",
          "name": "debtCount",
          "type": "uint256"
        },
        {
          "indexed": false,
          "internalType": "uint256",
          "name": "collateralCount",
          "type": "uint256"
        },
        {
          "indexed": false,
          "internalType": "uint256",
          "name": "price",
          "type": "uint256"
        }
      ],
      "name": "UndercollatPositionDiscovered",
      "type": "event"
    },
    {
      "inputs": [],
      "name": "deployer",
      "outputs": [
        {
          "internalType": "address",
          "name": "",
          "type": "address"
        }
      ],
      "stateMutability": "view",
      "type": "function"
    },
    {
      "inputs": [
        {
          "internalType": "enum IAccounting.Collateral",
          "name": "collateralType",
          "type": "uint8"
        },
        {
          "internalType": "uint64[]",
          "name": "positionIDs",
          "type": "uint64[]"
        }
      ],
      "name": "discoverUndercollateralizedPositions",
      "outputs": [],
      "stateMutability": "nonpayable",
      "type": "function"
    },
    {
      "inputs": [],
      "name": "discoveryIncentive",
      "outputs": [
        {
          "internalType": "uint256",
          "name": "",
          "type": "uint256"
        }
      ],
      "stateMutability": "view",
      "type": "function"
    },
    {
      "inputs": [
        {
          "internalType": "enum IAccounting.Collateral",
          "name": "collateralType",
          "type": "uint8"
        }
      ],
      "name": "ensureLiquidationIncentive",
      "outputs": [],
      "stateMutability": "nonpayable",
      "type": "function"
    },
    {
      "inputs": [
        {
          "internalType": "enum IAccounting.Collateral",
          "name": "collateralType",
          "type": "uint8"
        },
        {
          "internalType": "uint256",
          "name": "baseTokensToRepay",
          "type": "uint256"
        }
      ],
      "name": "flashLiquidate",
      "outputs": [],
      "stateMutability": "nonpayable",
      "type": "function"
    },
    {
      "inputs": [],
      "name": "governor",
      "outputs": [
        {
          "internalType": "contract IGovernor",
          "name": "",
          "type": "address"
        }
      ],
      "stateMutability": "view",
      "type": "function"
    },
    {
      "inputs": [
        {
          "internalType": "contract IGovernor",
          "name": "_governor",
          "type": "address"
        }
      ],
      "name": "init",
      "outputs": [],
      "stateMutability": "nonpayable",
      "type": "function"
    },
    {
      "inputs": [
        {
          "internalType": "enum IAccounting.Collateral",
          "name": "collateralType",
          "type": "uint8"
        },
        {
          "internalType": "uint256",
          "name": "baseTokensToRepay",
          "type": "uint256"
        }
      ],
      "name": "liquidate",
      "outputs": [],
      "stateMutability": "nonpayable",
      "type": "function"
    },
    {
      "inputs": [],
      "name": "liquidationIncentive",
      "outputs": [
        {
          "internalType": "uint256",
          "name": "",
          "type": "uint256"
        }
      ],
      "stateMutability": "view",
      "type": "function"
    },
    {
      "inputs": [],
      "name": "maxPriceAge",
      "outputs": [
        {
          "internalType": "uint64",
          "name": "",
          "type": "uint64"
        }
      ],
      "stateMutability": "view",
      "type": "function"
    },
    {
      "inputs": [],
      "name": "maxRewardsRatio",
      "outputs": [
        {
          "internalType": "uint256",
          "name": "",
          "type": "uint256"
        }
      ],
      "stateMutability": "view",
      "type": "function"
    },
    {
      "inputs": [],
      "name": "maxTwapTime",
      "outputs": [
        {
          "internalType": "uint64",
          "name": "",
          "type": "uint64"
        }
      ],
      "stateMutability": "view",
      "type": "function"
    },
    {
      "inputs": [],
      "name": "minLiquidationIncentive",
      "outputs": [
        {
          "internalType": "uint256",
          "name": "",
          "type": "uint256"
        }
      ],
      "stateMutability": "view",
      "type": "function"
    },
    {
      "inputs": [],
      "name": "rewardsLimit",
      "outputs": [
        {
          "internalType": "uint192",
          "name": "remaining",
          "type": "uint192"
        },
        {
          "internalType": "uint64",
          "name": "priceTime",
          "type": "uint64"
        }
      ],
      "stateMutability": "view",
      "type": "function"
    },
    {
      "inputs": [
        {
          "internalType": "uint256",
          "name": "incentive",
          "type": "uint256"
        }
      ],
      "name": "setDiscoveryIncentive",
      "outputs": [],
      "stateMutability": "nonpayable",
      "type": "function"
    },
    {
      "inputs": [
        {
          "internalType": "uint256",
          "name": "incentive",
          "type": "uint256"
        }
      ],
      "name": "setLiquidationIncentive",
      "outputs": [],
      "stateMutability": "nonpayable",
      "type": "function"
    },
    {
      "inputs": [
        {
          "internalType": "uint64",
          "name": "age",
          "type": "uint64"
        }
      ],
      "name": "setMaxPriceAge",
      "outputs": [],
      "stateMutability": "nonpayable",
      "type": "function"
    },
    {
      "inputs": [
        {
          "internalType": "uint256",
          "name": "ratio",
          "type": "uint256"
        }
      ],
      "name": "setMaxRewardsRatio",
      "outputs": [],
      "stateMutability": "nonpayable",
      "type": "function"
    },
    {
      "inputs": [
        {
          "internalType": "uint64",
          "name": "time",
          "type": "uint64"
        }
      ],
      "name": "setMaxTwapTime",
      "outputs": [],
      "stateMutability": "nonpayable",
      "type": "function"
    },
    {
      "inputs": [
        {
          "internalType": "uint256",
          "name": "incentive",
          "type": "uint256"
        }
      ],
      "name": "setMinLiquidationIncentive",
      "outputs": [],
      "stateMutability": "nonpayable",
      "type": "function"
    },
    {
      "inputs": [],
      "name": "stop",
      "outputs": [],
      "stateMutability": "nonpayable",
      "type": "function"
    },
    {
      "inputs": [],
      "name": "stopped",
      "outputs": [
        {
          "internalType": "bool",
          "name": "",
          "type": "bool"
        }
      ],
      "stateMutability": "view",
      "type": "function"
    },
    {
      "inputs": [
        {
          "internalType": "bytes4",
          "name": "action",
          "type": "bytes4"
        }
      ],
      "name": "validUpdate",
      "outputs": [
        {
          "internalType": "bool",
          "name": "",
          "type": "bool"
        }
      ],
      "stateMutability": "view",
      "type": "function"
    }
  ],
  "bytecode": "0x608060405266470de4df82000060075566f8b0a10e470000600855670e043da617250000600955670e4b4b8af6a70000600a556112c0600c60006101000a81548167ffffffffffffffff021916908367ffffffffffffffff160217905550610960600c60086101000a81548167ffffffffffffffff021916908367ffffffffffffffff16021790555034801561009457600080fd5b5033600160006101000a81548173ffffffffffffffffffffffffffffffffffffffff021916908373ffffffffffffffffffffffffffffffffffffffff1602179055506001600681905550615567806100ed6000396000f3fe608060405234801561001057600080fd5b506004361061018c5760003560e01c80636e4c6050116100e3578063a5edd6ba1161008c578063b7bbba8511610066578063b7bbba85146103d6578063cd8e040e146103f2578063d5f394881461040e5761018c565b8063a5edd6ba1461037f578063a84310811461039b578063b6e6096d146103b75761018c565b80638b421eba116100bd5780638b421eba146103255780638c765e94146103435780639672ff28146103615761018c565b80636e4c6050146102cf57806375f12b21146102eb5780637634a1a3146103095761018c565b80631584410a1161014557806329b426aa1161011f57806329b426aa14610279578063338e4764146102975780633840ffe3146102b35761018c565b80631584410a1461022357806319ab453c146102415780631f9672a51461025d5761018c565b80630c340a24116101765780630c340a24146101b9578063113cf1ab146101d757806315082705146102075761018c565b80627de4471461019157806307da68f5146101af575b600080fd5b61019961042c565b6040516101a691906150cf565b60405180910390f35b6101b7610432565b005b6101c16104fd565b6040516101ce9190614e3d565b60405180910390f35b6101f160048036038101906101ec919061448e565b610521565b6040516101fe9190614e22565b60405180910390f35b610221600480360381019061021c9190614584565b610589565b005b61022b611175565b604051610238919061514a565b60405180910390f35b61025b600480360381019061025691906144b7565b61118f565b005b610277600480360381019061027291906146f2565b6115a8565b005b6102816116d4565b60405161028e919061514a565b60405180910390f35b6102b160048036038101906102ac91906145d8565b6116ee565b005b6102cd60048036038101906102c89190614780565b61190f565b005b6102e960048036038101906102e4919061455b565b611a47565b005b6102f3612459565b6040516103009190614e22565b60405180910390f35b610323600480360381019061031e91906145d8565b61246c565b005b61032d612784565b60405161033a91906150cf565b60405180910390f35b61034b61278a565b60405161035891906150cf565b60405180910390f35b610369612790565b60405161037691906150cf565b60405180910390f35b610399600480360381019061039491906146f2565b612796565b005b6103b560048036038101906103b091906146f2565b6128d3565b005b6103bf6129f9565b6040516103cd9291906150a6565b60405180910390f35b6103f060048036038101906103eb9190614780565b612a43565b005b61040c600480360381019061040791906146f2565b612b7b565b005b610416612ca7565b6040516104239190614dde565b60405180910390f35b60095481565b60008054906101000a900473ffffffffffffffffffffffffffffffffffffffff1673ffffffffffffffffffffffffffffffffffffffff163373ffffffffffffffffffffffffffffffffffffffff16146104f3576040517f08c379a00000000000000000000000000000000000000000000000000000000081526004018080602001828103825260198152602001807f476f7665726e65643a204e6f7420417574686f72697a65642e0000000000000081525060200191505060405180910390fd5b6104fb612ccd565b565b60008054906101000a900473ffffffffffffffffffffffffffffffffffffffff1681565b600060056000837bffffffffffffffffffffffffffffffffffffffffffffffffffffffff19167bffffffffffffffffffffffffffffffffffffffffffffffffffffffff1916815260200190815260200160002060009054906101000a900460ff169050919050565b600460009054906101000a900473ffffffffffffffffffffffffffffffffffffffff1673ffffffffffffffffffffffffffffffffffffffff1663e97dcb626040518163ffffffff1660e01b8152600401600060405180830381600087803b1580156105f357600080fd5b505af1158015610607573d6000803e3d6000fd5b5050505060026006541415610684576040517f08c379a000000000000000000000000000000000000000000000000000000000815260040180806020018281038252601d8152602001807f4c6f636b50726f746f636f6c3a207265656e7472616e742063616c6c2e00000081525060200191505060405180910390fd5b6002600681905550600060149054906101000a900460ff161561070f576040517f08c379a000000000000000000000000000000000000000000000000000000000815260040180806020018281038252601e8152602001807f476f7665726e65643a20436f6e74726163742069732073746f707065642e000081525060200191505060405180910390fd5b60008054906101000a900473ffffffffffffffffffffffffffffffffffffffff1673ffffffffffffffffffffffffffffffffffffffff1663bf86d6906040518163ffffffff1660e01b815260040160206040518083038186803b15801561077557600080fd5b505afa158015610789573d6000803e3d6000fd5b505050506040513d602081101561079f57600080fd5b810190808051906020019092919050505015610806576040517f08c379a000000000000000000000000000000000000000000000000000000000815260040180806020018281038252602881526020018061550a6028913960400191505060405180910390fd5b60008060008054906101000a900473ffffffffffffffffffffffffffffffffffffffff1673ffffffffffffffffffffffffffffffffffffffff1663d3419bf36040518163ffffffff1660e01b815260040160206040518083038186803b15801561086f57600080fd5b505afa158015610883573d6000803e3d6000fd5b505050506040513d601f19601f820116820180604052508101906108a79190614509565b73ffffffffffffffffffffffffffffffffffffffff1663fb5bb24360008054906101000a900473ffffffffffffffffffffffffffffffffffffffff1673ffffffffffffffffffffffffffffffffffffffff166339539e21876040518263ffffffff1660e01b815260040161091b9190614e9d565b60206040518083038186803b15801561093357600080fd5b505afa158015610947573d6000803e3d6000fd5b505050506040513d601f19601f8201168201806040525081019061096b9190614532565b600c60009054906101000a900467ffffffffffffffff16600c60089054906101000a900467ffffffffffffffff1660006040518563ffffffff1660e01b81526004016109ba9493929190614e58565b6040805180830381600087803b1580156109d357600080fd5b505af11580156109e7573d6000803e3d6000fd5b505050506040513d601f19601f82011682018060405250810190610a0b9190614744565b915091506000821415610a53576040517f08c379a0000000000000000000000000000000000000000000000000000000008152600401610a4a90614fc6565b60405180910390fd5b610a5b61407e565b600b6040518060400160405290816000820160009054906101000a900477ffffffffffffffffffffffffffffffffffffffffffffffff1677ffffffffffffffffffffffffffffffffffffffffffffffff1677ffffffffffffffffffffffffffffffffffffffffffffffff1681526020016000820160189054906101000a900467ffffffffffffffff1667ffffffffffffffff1667ffffffffffffffff168152505090508167ffffffffffffffff16816020015167ffffffffffffffff1614610c93578167ffffffffffffffff16816020015167ffffffffffffffff1610610b77576040517f08c379a0000000000000000000000000000000000000000000000000000000008152600401610b6e90614f86565b60405180910390fd5b610c33610c2e600754600260009054906101000a900473ffffffffffffffffffffffffffffffffffffffff1673ffffffffffffffffffffffffffffffffffffffff16630dca59c16040518163ffffffff1660e01b815260040160206040518083038186803b158015610be857600080fd5b505afa158015610bfc573d6000803e3d6000fd5b505050506040513d601f19601f82011682018060405250810190610c20919061471b565b612d1690919063ffffffff16565b612db5565b816000019077ffffffffffffffffffffffffffffffffffffffffffffffff16908177ffffffffffffffffffffffffffffffffffffffffffffffff168152505081816020019067ffffffffffffffff16908167ffffffffffffffff16815250505b6000816000015177ffffffffffffffffffffffffffffffffffffffffffffffff161415610cf5576040517f08c379a0000000000000000000000000000000000000000000000000000000008152600401610cec90615086565b60405180910390fd5b60008054906101000a900473ffffffffffffffffffffffffffffffffffffffff1673ffffffffffffffffffffffffffffffffffffffff166380f556056040518163ffffffff1660e01b815260040160206040518083038186803b158015610d5b57600080fd5b505afa158015610d6f573d6000803e3d6000fd5b505050506040513d601f19601f82011682018060405250810190610d9391906144e0565b73ffffffffffffffffffffffffffffffffffffffff16637f08a55a6040518163ffffffff1660e01b8152600401600060405180830381600087803b158015610dda57600080fd5b505af1158015610dee573d6000803e3d6000fd5b50505050610dfa6140bc565b610ee96040518060600160405280600260009054906101000a900473ffffffffffffffffffffffffffffffffffffffff1673ffffffffffffffffffffffffffffffffffffffff16636d0f69178a6040518263ffffffff1660e01b8152600401610e639190614e9d565b60606040518083038186803b158015610e7b57600080fd5b505afa158015610e8f573d6000803e3d6000fd5b505050506040513d601f19601f82011682018060405250810190610eb3919061468d565b815260200160008152602001846000015177ffffffffffffffffffffffffffffffffffffffffffffffff16815250878787612e30565b9050610ef88160400151612db5565b826000019077ffffffffffffffffffffffffffffffffffffffffffffffff16908177ffffffffffffffffffffffffffffffffffffffffffffffff168152505081600b60008201518160000160006101000a81548177ffffffffffffffffffffffffffffffffffffffffffffffff021916908377ffffffffffffffffffffffffffffffffffffffffffffffff16021790555060208201518160000160186101000a81548167ffffffffffffffff021916908367ffffffffffffffff160217905550905050600260009054906101000a900473ffffffffffffffffffffffffffffffffffffffff1673ffffffffffffffffffffffffffffffffffffffff16638cf99f988783600001516040518363ffffffff1660e01b815260040161101c929190614f26565b600060405180830381600087803b15801561103657600080fd5b505af115801561104a573d6000803e3d6000fd5b50505050600260009054906101000a900473ffffffffffffffffffffffffffffffffffffffff1673ffffffffffffffffffffffffffffffffffffffff1663f13c16b0873384602001516040518463ffffffff1660e01b81526004016110b193929190614eb8565b600060405180830381600087803b1580156110cb57600080fd5b505af11580156110df573d6000803e3d6000fd5b50505050505050506001600681905550600460009054906101000a900473ffffffffffffffffffffffffffffffffffffffff1673ffffffffffffffffffffffffffffffffffffffff1663e9fad8ee6040518163ffffffff1660e01b8152600401600060405180830381600087803b15801561115957600080fd5b505af115801561116d573d6000803e3d6000fd5b505050505050565b600c60089054906101000a900467ffffffffffffffff1681565b600160009054906101000a900473ffffffffffffffffffffffffffffffffffffffff1673ffffffffffffffffffffffffffffffffffffffff163373ffffffffffffffffffffffffffffffffffffffff1614611252576040517f08c379a000000000000000000000000000000000000000000000000000000000815260040180806020018281038252601e8152602001807f476f7665726e65643a20496e6974206e6f7420617574686f72697a65642e000081525060200191505060405180910390fd5b600160006101000a81549073ffffffffffffffffffffffffffffffffffffffff0219169055806000806101000a81548173ffffffffffffffffffffffffffffffffffffffff021916908373ffffffffffffffffffffffffffffffffffffffff16021790555060008054906101000a900473ffffffffffffffffffffffffffffffffffffffff1673ffffffffffffffffffffffffffffffffffffffff16639624e83e6040518163ffffffff1660e01b815260040160206040518083038186803b15801561131d57600080fd5b505afa158015611331573d6000803e3d6000fd5b505050506040513d602081101561134757600080fd5b8101908080519060200190929190505050600260006101000a81548173ffffffffffffffffffffffffffffffffffffffff021916908373ffffffffffffffffffffffffffffffffffffffff16021790555060008054906101000a900473ffffffffffffffffffffffffffffffffffffffff1673ffffffffffffffffffffffffffffffffffffffff166311df99956040518163ffffffff1660e01b815260040160206040518083038186803b1580156113fe57600080fd5b505afa158015611412573d6000803e3d6000fd5b505050506040513d602081101561142857600080fd5b8101908080519060200190929190505050600360006101000a81548173ffffffffffffffffffffffffffffffffffffffff021916908373ffffffffffffffffffffffffffffffffffffffff16021790555060008054906101000a900473ffffffffffffffffffffffffffffffffffffffff1673ffffffffffffffffffffffffffffffffffffffff1663d478b0876040518163ffffffff1660e01b815260040160206040518083038186803b1580156114df57600080fd5b505afa1580156114f3573d6000803e3d6000fd5b505050506040513d602081101561150957600080fd5b8101908080519060200190929190505050600460006101000a81548173ffffffffffffffffffffffffffffffffffffffff021916908373ffffffffffffffffffffffffffffffffffffffff16021790555061156261331a565b8073ffffffffffffffffffffffffffffffffffffffff167f908408e307fc569b417f6cbec5d5a06f44a0a505ac0479b47d421a4b2fd6a1e660405160405180910390a250565b60008054906101000a900473ffffffffffffffffffffffffffffffffffffffff1673ffffffffffffffffffffffffffffffffffffffff163373ffffffffffffffffffffffffffffffffffffffff1614611669576040517f08c379a00000000000000000000000000000000000000000000000000000000081526004018080602001828103825260198152602001807f476f7665726e65643a204e6f7420417574686f72697a65642e0000000000000081525060200191505060405180910390fd5b80600781905550670de0b6b3a76400006007541061168657600080fd5b60405161169290614d9f565b60405180910390207f3a64504f0bc0c335e2aecb78638a257e0351a3fe0370861fd54ee4190b920933826040516116c991906150cf565b60405180910390a250565b600c60009054906101000a900467ffffffffffffffff1681565b600460009054906101000a900473ffffffffffffffffffffffffffffffffffffffff1673ffffffffffffffffffffffffffffffffffffffff1663e97dcb626040518163ffffffff1660e01b8152600401600060405180830381600087803b15801561175857600080fd5b505af115801561176c573d6000803e3d6000fd5b50505050600260065414156117e9576040517f08c379a000000000000000000000000000000000000000000000000000000000815260040180806020018281038252601d8152602001807f4c6f636b50726f746f636f6c3a207265656e7472616e742063616c6c2e00000081525060200191505060405180910390fd5b6002600681905550600060149054906101000a900460ff1615611874576040517f08c379a000000000000000000000000000000000000000000000000000000000815260040180806020018281038252601e8152602001807f476f7665726e65643a20436f6e74726163742069732073746f707065642e000081525060200191505060405180910390fd5b6118818233836000613586565b6001600681905550600460009054906101000a900473ffffffffffffffffffffffffffffffffffffffff1673ffffffffffffffffffffffffffffffffffffffff1663e9fad8ee6040518163ffffffff1660e01b8152600401600060405180830381600087803b1580156118f357600080fd5b505af1158015611907573d6000803e3d6000fd5b505050505050565b60008054906101000a900473ffffffffffffffffffffffffffffffffffffffff1673ffffffffffffffffffffffffffffffffffffffff163373ffffffffffffffffffffffffffffffffffffffff16146119d0576040517f08c379a00000000000000000000000000000000000000000000000000000000081526004018080602001828103825260198152602001807f476f7665726e65643a204e6f7420417574686f72697a65642e0000000000000081525060200191505060405180910390fd5b80600c60006101000a81548167ffffffffffffffff021916908367ffffffffffffffff160217905550604051611a0590614d75565b60405180910390207f6293347933ad2997134e224ac8cd2e39908a4a22aeed9af52127b4bbf765297882604051611a3c919061514a565b60405180910390a250565b600460009054906101000a900473ffffffffffffffffffffffffffffffffffffffff1673ffffffffffffffffffffffffffffffffffffffff1663e97dcb626040518163ffffffff1660e01b8152600401600060405180830381600087803b158015611ab157600080fd5b505af1158015611ac5573d6000803e3d6000fd5b5050505060026006541415611b42576040517f08c379a000000000000000000000000000000000000000000000000000000000815260040180806020018281038252601d8152602001807f4c6f636b50726f746f636f6c3a207265656e7472616e742063616c6c2e00000081525060200191505060405180910390fd5b6002600681905550600060149054906101000a900460ff1615611bcd576040517f08c379a000000000000000000000000000000000000000000000000000000000815260040180806020018281038252601e8152602001807f476f7665726e65643a20436f6e74726163742069732073746f707065642e000081525060200191505060405180910390fd5b60008060009054906101000a900473ffffffffffffffffffffffffffffffffffffffff1673ffffffffffffffffffffffffffffffffffffffff1663d3419bf36040518163ffffffff1660e01b815260040160206040518083038186803b158015611c3657600080fd5b505afa158015611c4a573d6000803e3d6000fd5b505050506040513d601f19601f82011682018060405250810190611c6e9190614509565b73ffffffffffffffffffffffffffffffffffffffff1663fb5bb24360008054906101000a900473ffffffffffffffffffffffffffffffffffffffff1673ffffffffffffffffffffffffffffffffffffffff166339539e21856040518263ffffffff1660e01b8152600401611ce29190614e9d565b60206040518083038186803b158015611cfa57600080fd5b505afa158015611d0e573d6000803e3d6000fd5b505050506040513d601f19601f82011682018060405250810190611d329190614532565b600c60009054906101000a900467ffffffffffffffff16600c60089054906101000a900467ffffffffffffffff1660006040518563ffffffff1660e01b8152600401611d819493929190614e58565b6040805180830381600087803b158015611d9a57600080fd5b505af1158015611dae573d6000803e3d6000fd5b505050506040513d601f19601f82011682018060405250810190611dd29190614744565b5090506000811415611e19576040517f08c379a0000000000000000000000000000000000000000000000000000000008152600401611e1090614fc6565b60405180910390fd5b60008054906101000a900473ffffffffffffffffffffffffffffffffffffffff1673ffffffffffffffffffffffffffffffffffffffff166380f556056040518163ffffffff1660e01b815260040160206040518083038186803b158015611e7f57600080fd5b505afa158015611e93573d6000803e3d6000fd5b505050506040513d601f19601f82011682018060405250810190611eb791906144e0565b73ffffffffffffffffffffffffffffffffffffffff16637f08a55a6040518163ffffffff1660e01b8152600401600060405180830381600087803b158015611efe57600080fd5b505af1158015611f12573d6000803e3d6000fd5b50505050611f1e6140e3565b600260009054906101000a900473ffffffffffffffffffffffffffffffffffffffff1673ffffffffffffffffffffffffffffffffffffffff16636d0f6917846040518263ffffffff1660e01b8152600401611f799190614e9d565b60606040518083038186803b158015611f9157600080fd5b505afa158015611fa5573d6000803e3d6000fd5b505050506040513d601f19601f82011682018060405250810190611fc9919061468d565b9050600081602001511415612013576040517f08c379a000000000000000000000000000000000000000000000000000000000815260040161200a90615006565b60405180910390fd5b60008160400151141561205b576040517f08c379a000000000000000000000000000000000000000000000000000000000815260040161205290615026565b60405180910390fd5b6000612078836009548460400151613bcc9092919063ffffffff16565b9050808260200151116120c0576040517f08c379a00000000000000000000000000000000000000000000000000000000081526004016120b790614fa6565b60405180910390fd5b600081836020015103905080600360009054906101000a900473ffffffffffffffffffffffffffffffffffffffff1673ffffffffffffffffffffffffffffffffffffffff166375172a8b6040518163ffffffff1660e01b815260040160206040518083038186803b15801561213457600080fd5b505afa158015612148573d6000803e3d6000fd5b505050506040513d601f19601f8201168201806040525081019061216c919061471b565b116121ac576040517f08c379a00000000000000000000000000000000000000000000000000000000081526004016121a390614fe6565b60405180910390fd5b81836020018181525050600260009054906101000a900473ffffffffffffffffffffffffffffffffffffffff1673ffffffffffffffffffffffffffffffffffffffff16638cf99f9886856040518363ffffffff1660e01b8152600401612213929190614f26565b600060405180830381600087803b15801561222d57600080fd5b505af1158015612241573d6000803e3d6000fd5b50505050600260009054906101000a900473ffffffffffffffffffffffffffffffffffffffff1673ffffffffffffffffffffffffffffffffffffffff16634b6f3198868360006040518463ffffffff1660e01b81526004016122a593929190614f4f565b6040805180830381600087803b1580156122be57600080fd5b505af11580156122d2573d6000803e3d6000fd5b505050506040513d601f19601f820116820180604052508101906122f691906146b6565b5050600360009054906101000a900473ffffffffffffffffffffffffffffffffffffffff1673ffffffffffffffffffffffffffffffffffffffff1663c59fb1ab826040518263ffffffff1660e01b815260040161235391906150cf565b600060405180830381600087803b15801561236d57600080fd5b505af1158015612381573d6000803e3d6000fd5b505050507f1be7bee8f23970bcdf70ec93cfa48d0dafecb7d07e578d23cb1b43e356709d3f84846020015185604001516040516123c093929190615113565b60405180910390a1505050506001600681905550600460009054906101000a900473ffffffffffffffffffffffffffffffffffffffff1673ffffffffffffffffffffffffffffffffffffffff1663e9fad8ee6040518163ffffffff1660e01b8152600401600060405180830381600087803b15801561243e57600080fd5b505af1158015612452573d6000803e3d6000fd5b5050505050565b600060149054906101000a900460ff1681565b600460009054906101000a900473ffffffffffffffffffffffffffffffffffffffff1673ffffffffffffffffffffffffffffffffffffffff1663e97dcb626040518163ffffffff1660e01b8152600401600060405180830381600087803b1580156124d657600080fd5b505af11580156124ea573d6000803e3d6000fd5b5050505060026006541415612567576040517f08c379a000000000000000000000000000000000000000000000000000000000815260040180806020018281038252601d8152602001807f4c6f636b50726f746f636f6c3a207265656e7472616e742063616c6c2e00000081525060200191505060405180910390fd5b6002600681905550600060149054906101000a900460ff16156125f2576040517f08c379a000000000000000000000000000000000000000000000000000000000815260040180806020018281038252601e8152602001807f476f7665726e65643a20436f6e74726163742069732073746f707065642e000081525060200191505060405180910390fd5b60008054906101000a900473ffffffffffffffffffffffffffffffffffffffff1673ffffffffffffffffffffffffffffffffffffffff1663bf86d6906040518163ffffffff1660e01b815260040160206040518083038186803b15801561265857600080fd5b505afa15801561266c573d6000803e3d6000fd5b505050506040513d602081101561268257600080fd5b8101908080519060200190929190505050156126e9576040517f08c379a000000000000000000000000000000000000000000000000000000000815260040180806020018281038252602881526020018061550a6028913960400191505060405180910390fd5b6126f68233836001613586565b6001600681905550600460009054906101000a900473ffffffffffffffffffffffffffffffffffffffff1673ffffffffffffffffffffffffffffffffffffffff1663e9fad8ee6040518163ffffffff1660e01b8152600401600060405180830381600087803b15801561276857600080fd5b505af115801561277c573d6000803e3d6000fd5b505050505050565b60075481565b600a5481565b60085481565b60008054906101000a900473ffffffffffffffffffffffffffffffffffffffff1673ffffffffffffffffffffffffffffffffffffffff163373ffffffffffffffffffffffffffffffffffffffff1614612857576040517f08c379a00000000000000000000000000000000000000000000000000000000081526004018080602001828103825260198152602001807f476f7665726e65643a204e6f7420417574686f72697a65642e0000000000000081525060200191505060405180910390fd5b80600981905550600954670de0b6b3a7640000111561287557600080fd5b600a546009541061288557600080fd5b60405161289190614dc9565b60405180910390207f3a64504f0bc0c335e2aecb78638a257e0351a3fe0370861fd54ee4190b920933826040516128c891906150cf565b60405180910390a250565b60008054906101000a900473ffffffffffffffffffffffffffffffffffffffff1673ffffffffffffffffffffffffffffffffffffffff163373ffffffffffffffffffffffffffffffffffffffff1614612994576040517f08c379a00000000000000000000000000000000000000000000000000000000081526004018080602001828103825260198152602001807f476f7665726e65643a204e6f7420417574686f72697a65642e0000000000000081525060200191505060405180910390fd5b80600a81905550600a54600954106129ab57600080fd5b6040516129b790614d60565b60405180910390207f3a64504f0bc0c335e2aecb78638a257e0351a3fe0370861fd54ee4190b920933826040516129ee91906150cf565b60405180910390a250565b600b8060000160009054906101000a900477ffffffffffffffffffffffffffffffffffffffffffffffff16908060000160189054906101000a900467ffffffffffffffff16905082565b60008054906101000a900473ffffffffffffffffffffffffffffffffffffffff1673ffffffffffffffffffffffffffffffffffffffff163373ffffffffffffffffffffffffffffffffffffffff1614612b04576040517f08c379a00000000000000000000000000000000000000000000000000000000081526004018080602001828103825260198152602001807f476f7665726e65643a204e6f7420417574686f72697a65642e0000000000000081525060200191505060405180910390fd5b80600c60086101000a81548167ffffffffffffffff021916908367ffffffffffffffff160217905550604051612b3990614d8a565b60405180910390207f6293347933ad2997134e224ac8cd2e39908a4a22aeed9af52127b4bbf765297882604051612b70919061514a565b60405180910390a250565b60008054906101000a900473ffffffffffffffffffffffffffffffffffffffff1673ffffffffffffffffffffffffffffffffffffffff163373ffffffffffffffffffffffffffffffffffffffff1614612c3c576040517f08c379a00000000000000000000000000000000000000000000000000000000081526004018080602001828103825260198152602001807f476f7665726e65643a204e6f7420417574686f72697a65642e0000000000000081525060200191505060405180910390fd5b80600881905550670de0b6b3a764000060085410612c5957600080fd5b604051612c6590614db4565b60405180910390207f3a64504f0bc0c335e2aecb78638a257e0351a3fe0370861fd54ee4190b92093382604051612c9c91906150cf565b60405180910390a250565b600160009054906101000a900473ffffffffffffffffffffffffffffffffffffffff1681565b6001600060146101000a81548160ff0219169083151502179055507f7acc84e34091ae817647a4c49116f5cc07f319078ba80f8f5fde37ea7e25cbd660405160405180910390a1565b600080831480612d265750600082145b15612d345760009050612daf565b818302905081838281612d4357fe5b0414612d9a576040517f08c379a00000000000000000000000000000000000000000000000000000000081526004018080602001828103825260228152602001806154e86022913960400191505060405180910390fd5b670de0b6b3a76400008181612dab57fe5b0490505b92915050565b600078010000000000000000000000000000000000000000000000008210612e28576040517f08c379a00000000000000000000000000000000000000000000000000000000081526004018080602001828103825260278152602001806154c16027913960400191505060405180910390fd5b819050919050565b612e386140bc565b84905060008351905060008060009054906101000a900473ffffffffffffffffffffffffffffffffffffffff1673ffffffffffffffffffffffffffffffffffffffff166380f556056040518163ffffffff1660e01b815260040160206040518083038186803b158015612eaa57600080fd5b505afa158015612ebe573d6000803e3d6000fd5b505050506040513d601f19601f82011682018060405250810190612ee291906144e0565b905060008060008060005b8681101561330b57600088604001511415612f075761330b565b898181518110612f1357fe5b60200260200101519150600260009054906101000a900473ffffffffffffffffffffffffffffffffffffffff1673ffffffffffffffffffffffffffffffffffffffff16636594da9f836040518263ffffffff1660e01b8152600401612f78919061514a565b60606040518083038186803b158015612f9057600080fd5b505afa158015612fa4573d6000803e3d6000fd5b505050506040513d601f19601f82011682018060405250810190612fc89190614614565b8095508196508297505050506000841415612fe2576132fe565b8a6001811115612fee57fe5b856001811115612ffa57fe5b14613004576132fe565b8573ffffffffffffffffffffffffffffffffffffffff166332dfe5988c6040518263ffffffff1660e01b815260040161303d9190614e9d565b60206040518083038186803b15801561305557600080fd5b505afa158015613069573d6000803e3d6000fd5b505050506040513d601f19601f8201168201806040525081019061308d919061471b565b6130a284868c613bcc9092919063ffffffff16565b106130ac576132fe565b6130b4614104565b8673ffffffffffffffffffffffffffffffffffffffff1663eb6843ce846040518263ffffffff1660e01b81526004016130ed919061514a565b61014060405180830381600087803b15801561310857600080fd5b505af115801561311c573d6000803e3d6000fd5b505050506040513d601f19601f820116820180604052508101906131409190614663565b9050600080613163836040015184602001518e8e60400151600a54600854613cdb565b8d6040018181525081935082945050505061319383604001518c6000015160200151613dc090919063ffffffff16565b8b60000151602001818152505060008360400181815250506131c6818c6000015160400151613dc090919063ffffffff16565b8b6000015160400181815250506131fc6131e98383613dc090919063ffffffff16565b8460200151613e4890919063ffffffff16565b83602001818152505061321c828c60200151613dc090919063ffffffff16565b8b6020018181525050600260009054906101000a900473ffffffffffffffffffffffffffffffffffffffff1673ffffffffffffffffffffffffffffffffffffffff1663a075bd0186856040518363ffffffff1660e01b8152600401613282929190615165565b600060405180830381600087803b15801561329c57600080fd5b505af11580156132b0573d6000803e3d6000fd5b505050508467ffffffffffffffff167feedd1116ee4b172f8bd428c71ffa4da20e0bffc9e5b05e78bbacd0b4337c71bf88888f6040516132f293929190615113565b60405180910390a25050505b8080600101915050612eed565b50505050505050949350505050565b613322614186565b6040518060c00160405280631f9672a560e01b7bffffffffffffffffffffffffffffffffffffffffffffffffffffffff19167bffffffffffffffffffffffffffffffffffffffffffffffffffffffff1916815260200163cd8e040e60e01b7bffffffffffffffffffffffffffffffffffffffffffffffffffffffff19167bffffffffffffffffffffffffffffffffffffffffffffffffffffffff1916815260200163a5edd6ba60e01b7bffffffffffffffffffffffffffffffffffffffffffffffffffffffff19167bffffffffffffffffffffffffffffffffffffffffffffffffffffffff1916815260200163a843108160e01b7bffffffffffffffffffffffffffffffffffffffffffffffffffffffff19167bffffffffffffffffffffffffffffffffffffffffffffffffffffffff19168152602001633840ffe360e01b7bffffffffffffffffffffffffffffffffffffffffffffffffffffffff19167bffffffffffffffffffffffffffffffffffffffffffffffffffffffff1916815260200163b7bbba8560e01b7bffffffffffffffffffffffffffffffffffffffffffffffffffffffff19167bffffffffffffffffffffffffffffffffffffffffffffffffffffffff1916815250905060005b60068110156135825760016005600084846006811061350d57fe5b60200201517bffffffffffffffffffffffffffffffffffffffffffffffffffffffff19167bffffffffffffffffffffffffffffffffffffffffffffffffffffffff1916815260200190815260200160002060006101000a81548160ff02191690831515021790555080806001019150506134f2565b5050565b60008214156135ca576040517f08c379a00000000000000000000000000000000000000000000000000000000081526004016135c190615066565b60405180910390fd5b60008054906101000a900473ffffffffffffffffffffffffffffffffffffffff1673ffffffffffffffffffffffffffffffffffffffff166380f556056040518163ffffffff1660e01b815260040160206040518083038186803b15801561363057600080fd5b505afa158015613644573d6000803e3d6000fd5b505050506040513d601f19601f8201168201806040525081019061366891906144e0565b73ffffffffffffffffffffffffffffffffffffffff16637f08a55a6040518163ffffffff1660e01b8152600401600060405180830381600087803b1580156136af57600080fd5b505af11580156136c3573d6000803e3d6000fd5b505050506136cf6140e3565b600260009054906101000a900473ffffffffffffffffffffffffffffffffffffffff1673ffffffffffffffffffffffffffffffffffffffff16636d0f6917866040518263ffffffff1660e01b815260040161372a9190614e9d565b60606040518083038186803b15801561374257600080fd5b505afa158015613756573d6000803e3d6000fd5b505050506040513d601f19601f8201168201806040525081019061377a919061468d565b90506000816020015114156137c4576040517f08c379a00000000000000000000000000000000000000000000000000000000081526004016137bb90615006565b60405180910390fd5b60008160400151141561380c576040517f08c379a000000000000000000000000000000000000000000000000000000000815260040161380390615026565b60405180910390fd5b8060200151831115613853576040517f08c379a000000000000000000000000000000000000000000000000000000000815260040161384a90615046565b60405180910390fd5b60006138728260400151836020015186613bcc9092919063ffffffff16565b905061388b818360400151613e4890919063ffffffff16565b8260400181815250506138ab848360200151613e4890919063ffffffff16565b826020018181525050600260009054906101000a900473ffffffffffffffffffffffffffffffffffffffff1673ffffffffffffffffffffffffffffffffffffffff16638cf99f9887846040518363ffffffff1660e01b8152600401613911929190614f26565b600060405180830381600087803b15801561392b57600080fd5b505af115801561393f573d6000803e3d6000fd5b50505050600260009054906101000a900473ffffffffffffffffffffffffffffffffffffffff1673ffffffffffffffffffffffffffffffffffffffff16634b6f3198878660006040518463ffffffff1660e01b81526004016139a393929190614f4f565b6040805180830381600087803b1580156139bc57600080fd5b505af11580156139d0573d6000803e3d6000fd5b505050506040513d601f19601f820116820180604052508101906139f491906146b6565b5050600260009054906101000a900473ffffffffffffffffffffffffffffffffffffffff1673ffffffffffffffffffffffffffffffffffffffff1663f13c16b08787846040518463ffffffff1660e01b8152600401613a5593929190614eef565b600060405180830381600087803b158015613a6f57600080fd5b505af1158015613a83573d6000803e3d6000fd5b505050508215613afb578473ffffffffffffffffffffffffffffffffffffffff1663acd1736b82866040518363ffffffff1660e01b8152600401613ac89291906150ea565b600060405180830381600087803b158015613ae257600080fd5b505af1158015613af6573d6000803e3d6000fd5b505050505b600360009054906101000a900473ffffffffffffffffffffffffffffffffffffffff1673ffffffffffffffffffffffffffffffffffffffff166379cc679086866040518363ffffffff1660e01b8152600401613b58929190614df9565b600060405180830381600087803b158015613b7257600080fd5b505af1158015613b86573d6000803e3d6000fd5b505050508215157f68435902c8c82c13c30a886febc8fbcf6fc381a49b832414e11c4b96e0f4388485604051613bbc91906150cf565b60405180910390a2505050505050565b600080841480613bdc5750600083145b15613bea5760009050613cd4565b6000821415613c61576040517f08c379a000000000000000000000000000000000000000000000000000000000815260040180806020018281038252601b8152602001807f536166654d6174683a206469766973696f6e206279207a65726f2e000000000081525060200191505060405180910390fd5b828402905082848281613c7057fe5b0414613cc7576040517f08c379a00000000000000000000000000000000000000000000000000000000081526004018080602001828103825260228152602001806154e86022913960400191505060405180910390fd5b818181613cd057fe5b0490505b9392505050565b600080600080613cf4858b612d1690919063ffffffff16565b9050613d1b89613d0d8a84613e9290919063ffffffff16565b613fa590919063ffffffff16565b9350613d56848a03613d4888613d3a8c8f613e9290919063ffffffff16565b612d1690919063ffffffff16565b613fa590919063ffffffff16565b92506000613d6d8985612d1690919063ffffffff16565b90506000818c11613d80578b8203613d83565b60005b90506000613d9a8285613dc090919063ffffffff16565b9050898111613dab57808a03613dae565b60005b94505050505096509650969350505050565b600080828401905083811015613e3e576040517f08c379a000000000000000000000000000000000000000000000000000000000815260040180806020018281038252601b8152602001807f536166654d6174683a206164646974696f6e206f766572666c6f77000000000081525060200191505060405180910390fd5b8091505092915050565b6000613e8a83836040518060400160405280601e81526020017f536166654d6174683a207375627472616374696f6e206f766572666c6f770000815250613fbe565b905092915050565b600080831415613ea55760009050613f9f565b6000821415613f1c576040517f08c379a000000000000000000000000000000000000000000000000000000000815260040180806020018281038252601b8152602001807f536166654d6174683a206469766973696f6e206279207a65726f2e000000000081525060200191505060405180910390fd5b670de0b6b3a764000083029050670de0b6b3a7640000838281613f3b57fe5b0414613f92576040517f08c379a00000000000000000000000000000000000000000000000000000000081526004018080602001828103825260228152602001806154e86022913960400191505060405180910390fd5b818181613f9b57fe5b0490505b92915050565b6000818310613fb45781613fb6565b825b905092915050565b600083831115829061406b576040517f08c379a00000000000000000000000000000000000000000000000000000000081526004018080602001828103825283818151815260200191508051906020019080838360005b83811015614030578082015181840152602081019050614015565b50505050905090810190601f16801561405d5780820380516001836020036101000a031916815260200191505b509250505060405180910390fd5b5060008385039050809150509392505050565b6040518060400160405280600077ffffffffffffffffffffffffffffffffffffffffffffffff168152602001600067ffffffffffffffff1681525090565b60405180606001604052806140cf6140e3565b815260200160008152602001600081525090565b60405180606001604052806000815260200160008152602001600081525090565b6040518061014001604052806000815260200160008152602001600081526020016000815260200160008152602001600067ffffffffffffffff168152602001600067ffffffffffffffff168152602001600067ffffffffffffffff168152602001600063ffffffff1681526020016000600181111561418057fe5b81525090565b6040518060c00160405280600690602082028036833780820191505090505090565b600082601f8301126141b957600080fd5b81356141cc6141c7826151c0565b61518f565b915081818352602084019350602081019050838560208402820111156141f157600080fd5b60005b8381101561422157816142078882614464565b8452602084019350602083019250506001810190506141f4565b5050505092915050565b60008135905061423a816153e1565b92915050565b60008135905061424f816153f8565b92915050565b6000815190506142648161540f565b92915050565b60008151905061427981615426565b92915050565b60008151905061428e8161543d565b92915050565b6000813590506142a381615454565b92915050565b6000815190506142b881615454565b92915050565b600061014082840312156142d157600080fd5b6142dc61014061518f565b905060006142ec8482850161443a565b60008301525060206143008482850161443a565b60208301525060406143148482850161443a565b60408301525060606143288482850161443a565b606083015250608061433c8482850161443a565b60808301525060a061435084828501614479565b60a08301525060c061436484828501614479565b60c08301525060e061437884828501614479565b60e08301525061010061438d8482850161444f565b610100830152506101206143a3848285016142a9565b6101208301525092915050565b6000606082840312156143c257600080fd5b6143cc606061518f565b905060006143dc8482850161443a565b60008301525060206143f08482850161443a565b60208301525060406144048482850161443a565b60408301525092915050565b60008151905061441f81615464565b92915050565b6000813590506144348161547b565b92915050565b6000815190506144498161547b565b92915050565b60008151905061445e81615492565b92915050565b600081359050614473816154a9565b92915050565b600081519050614488816154a9565b92915050565b6000602082840312156144a057600080fd5b60006144ae8482850161422b565b91505092915050565b6000602082840312156144c957600080fd5b60006144d784828501614240565b91505092915050565b6000602082840312156144f257600080fd5b600061450084828501614255565b91505092915050565b60006020828403121561451b57600080fd5b60006145298482850161426a565b91505092915050565b60006020828403121561454457600080fd5b60006145528482850161427f565b91505092915050565b60006020828403121561456d57600080fd5b600061457b84828501614294565b91505092915050565b6000806040838503121561459757600080fd5b60006145a585828601614294565b925050602083013567ffffffffffffffff8111156145c257600080fd5b6145ce858286016141a8565b9150509250929050565b600080604083850312156145eb57600080fd5b60006145f985828601614294565b925050602061460a85828601614425565b9150509250929050565b60008060006060848603121561462957600080fd5b6000614637868287016142a9565b93505060206146488682870161443a565b92505060406146598682870161443a565b9150509250925092565b6000610140828403121561467657600080fd5b6000614684848285016142be565b91505092915050565b60006060828403121561469f57600080fd5b60006146ad848285016143b0565b91505092915050565b600080604083850312156146c957600080fd5b60006146d785828601614410565b92505060206146e885828601614410565b9150509250929050565b60006020828403121561470457600080fd5b600061471284828501614425565b91505092915050565b60006020828403121561472d57600080fd5b600061473b8482850161443a565b91505092915050565b6000806040838503121561475757600080fd5b60006147658582860161443a565b925050602061477685828601614479565b9150509250929050565b60006020828403121561479257600080fd5b60006147a084828501614464565b91505092915050565b6147b28161533b565b82525050565b6147c181615208565b82525050565b6147d08161521a565b82525050565b6147df8161534d565b82525050565b6147ee81615371565b82525050565b6147fd81615395565b82525050565b61480c81615395565b82525050565b600061481f600b836151ec565b91507f54696d65206572726f722e0000000000000000000000000000000000000000006000830152602082019050919050565b600061485f6015836151ec565b91507f44656274206973206e6f7420756e6261636b65642e00000000000000000000006000830152602082019050919050565b600061489f6013836151ec565b91507f4e6f20707269636520617661696c61626c652e000000000000000000000000006000830152602082019050919050565b60006148df6026836151ec565b91507f496e73756666696369656e742072657365727665732e2053746172742061756360008301527f74696f6e732e00000000000000000000000000000000000000000000000000006020830152604082019050919050565b60006149456008836151ec565b91507f4e6f20646562742e0000000000000000000000000000000000000000000000006000830152602082019050919050565b6000614985600e836151ec565b91507f4e6f20636f6c6c61746572616c2e0000000000000000000000000000000000006000830152602082019050919050565b60006149c56014836151fd565b91507f6c69717569646174696f6e496e63656e746976650000000000000000000000006000830152601482019050919050565b6000614a05600b836151fd565b91507f6d61785477617054696d650000000000000000000000000000000000000000006000830152600b82019050919050565b6000614a45600b836151fd565b91507f6d617850726963654167650000000000000000000000000000000000000000006000830152600b82019050919050565b6000614a85600f836151fd565b91507f6d617852657761726473526174696f00000000000000000000000000000000006000830152600f82019050919050565b6000614ac56012836151fd565b91507f646973636f76657279496e63656e7469766500000000000000000000000000006000830152601282019050919050565b6000614b056017836151fd565b91507f6d696e4c69717569646174696f6e496e63656e746976650000000000000000006000830152601782019050919050565b6000614b456012836151ec565b91507f496e73756666696369656e7420646562742e00000000000000000000000000006000830152602082019050919050565b6000614b856005836151ec565b91507f4e6f6f702e0000000000000000000000000000000000000000000000000000006000830152602082019050919050565b6000614bc56015836151ec565b91507f4e6f20726577617264732072656d61696e696e672e00000000000000000000006000830152602082019050919050565b61014082016000820151614c0f6000850182614d15565b506020820151614c226020850182614d15565b506040820151614c356040850182614d15565b506060820151614c486060850182614d15565b506080820151614c5b6080850182614d15565b5060a0820151614c6e60a0850182614d42565b5060c0820151614c8160c0850182614d42565b5060e0820151614c9460e0850182614d42565b50610100820151614ca9610100850182614d33565b50610120820151614cbe6101208501826147f4565b50505050565b606082016000820151614cda6000850182614d15565b506020820151614ced6020850182614d15565b506040820151614d006040850182614d15565b50505050565b614d0f816152e9565b82525050565b614d1e8161530d565b82525050565b614d2d8161530d565b82525050565b614d3c81615317565b82525050565b614d4b81615327565b82525050565b614d5a81615327565b82525050565b6000614d6b826149b8565b9150819050919050565b6000614d80826149f8565b9150819050919050565b6000614d9582614a38565b9150819050919050565b6000614daa82614a78565b9150819050919050565b6000614dbf82614ab8565b9150819050919050565b6000614dd482614af8565b9150819050919050565b6000602082019050614df360008301846147b8565b92915050565b6000604082019050614e0e60008301856147b8565b614e1b6020830184614d24565b9392505050565b6000602082019050614e3760008301846147c7565b92915050565b6000602082019050614e5260008301846147d6565b92915050565b6000608082019050614e6d60008301876147e5565b614e7a6020830186614d51565b614e876040830185614d51565b614e9460608301846147c7565b95945050505050565b6000602082019050614eb26000830184614803565b92915050565b6000606082019050614ecd6000830186614803565b614eda60208301856147a9565b614ee76040830184614d24565b949350505050565b6000606082019050614f046000830186614803565b614f1160208301856147b8565b614f1e6040830184614d24565b949350505050565b6000608082019050614f3b6000830185614803565b614f486020830184614cc4565b9392505050565b6000606082019050614f646000830186614803565b614f716020830185614d24565b614f7e60408301846147c7565b949350505050565b60006020820190508181036000830152614f9f81614812565b9050919050565b60006020820190508181036000830152614fbf81614852565b9050919050565b60006020820190508181036000830152614fdf81614892565b9050919050565b60006020820190508181036000830152614fff816148d2565b9050919050565b6000602082019050818103600083015261501f81614938565b9050919050565b6000602082019050818103600083015261503f81614978565b9050919050565b6000602082019050818103600083015261505f81614b38565b9050919050565b6000602082019050818103600083015261507f81614b78565b9050919050565b6000602082019050818103600083015261509f81614bb8565b9050919050565b60006040820190506150bb6000830185614d06565b6150c86020830184614d51565b9392505050565b60006020820190506150e46000830184614d24565b92915050565b60006040820190506150ff6000830185614d24565b61510c6020830184614d24565b9392505050565b60006060820190506151286000830186614d24565b6151356020830185614d24565b6151426040830184614d24565b949350505050565b600060208201905061515f6000830184614d51565b92915050565b60006101608201905061517b6000830185614d51565b6151886020830184614bf8565b9392505050565b6000604051905081810181811067ffffffffffffffff821117156151b6576151b56153cb565b5b8060405250919050565b600067ffffffffffffffff8211156151db576151da6153cb565b5b602082029050602081019050919050565b600082825260208201905092915050565b600081905092915050565b6000615213826152c9565b9050919050565b60008115159050919050565b60007fffffffff0000000000000000000000000000000000000000000000000000000082169050919050565b600061525d82615208565b9050919050565b600061526f82615208565b9050919050565b600061528182615208565b9050919050565b600061529382615208565b9050919050565b60008190506152a8826153cd565b919050565b60006fffffffffffffffffffffffffffffffff82169050919050565b600073ffffffffffffffffffffffffffffffffffffffff82169050919050565b600077ffffffffffffffffffffffffffffffffffffffffffffffff82169050919050565b6000819050919050565b600063ffffffff82169050919050565b600067ffffffffffffffff82169050919050565b6000615346826153a7565b9050919050565b60006153588261535f565b9050919050565b600061536a826152c9565b9050919050565b600061537c82615383565b9050919050565b600061538e826152c9565b9050919050565b60006153a08261529a565b9050919050565b60006153b2826153b9565b9050919050565b60006153c4826152c9565b9050919050565bfe5b600281106153de576153dd6153cb565b5b50565b6153ea81615226565b81146153f557600080fd5b50565b61540181615252565b811461540c57600080fd5b50565b61541881615264565b811461542357600080fd5b50565b61542f81615276565b811461543a57600080fd5b50565b61544681615288565b811461545157600080fd5b50565b6002811061546157600080fd5b50565b61546d816152ad565b811461547857600080fd5b50565b6154848161530d565b811461548f57600080fd5b50565b61549b81615317565b81146154a657600080fd5b50565b6154b281615327565b81146154bd57600080fd5b5056fe53616665436173743a2076616c756520646f65736e27742066697420696e203139322062697473536166654d6174683a206d756c7469706c69636174696f6e206f766572666c6f772e476f7665726e65643a204e6f7420617661696c61626c6520647572696e672073687574646f776e2ea2646970667358221220fcf25174efd549944385980c1f4bd429833cc80b105d170b386c4ac07a6a8ba864736f6c63430007040033",
  "linkReferences": {},
  "deployedLinkReferences": {}
}