{
  "_format": "hh-sol-artifact-1",
  "contractName": "Liquidations",
  "sourceName": "contracts/core/logic/Liquidations.sol",
  "abi": [
    {
      "anonymous": false,
      "inputs": [
        {
          "indexed": false,
          "internalType": "uint256",
          "name": "price",
          "type": "uint256"
        },
        {
          "indexed": false,
          "internalType": "uint256",
          "name": "positionDebt",
          "type": "uint256"
        },
        {
          "indexed": false,
          "internalType": "uint256",
          "name": "positionCollateral",
          "type": "uint256"
        }
      ],
      "name": "CoveredUnbackedDebt",
      "type": "event"
    },
    {
      "anonymous": false,
      "inputs": [
        {
          "indexed": true,
          "internalType": "address",
          "name": "governor",
          "type": "address"
        }
      ],
      "name": "Initialized",
      "type": "event"
    },
    {
      "anonymous": false,
      "inputs": [
        {
          "indexed": false,
          "internalType": "uint256",
          "name": "baseTokensToRepay",
          "type": "uint256"
        },
        {
          "indexed": true,
          "internalType": "bool",
          "name": "flash",
          "type": "bool"
        }
      ],
      "name": "Liquidated",
      "type": "event"
    },
    {
      "anonymous": false,
      "inputs": [
        {
          "indexed": true,
          "internalType": "string",
          "name": "paramName",
          "type": "string"
        },
        {
          "indexed": false,
          "internalType": "uint256",
          "name": "value",
          "type": "uint256"
        }
      ],
      "name": "ParameterUpdated",
      "type": "event"
    },
    {
      "anonymous": false,
      "inputs": [
        {
          "indexed": true,
          "internalType": "string",
          "name": "paramName",
          "type": "string"
        },
        {
          "indexed": false,
          "internalType": "uint64",
          "name": "value",
          "type": "uint64"
        }
      ],
      "name": "ParameterUpdated64",
      "type": "event"
    },
    {
      "anonymous": false,
      "inputs": [],
      "name": "Stopped",
      "type": "event"
    },
    {
      "anonymous": false,
      "inputs": [
        {
          "indexed": true,
          "internalType": "uint64",
          "name": "positionID",
          "type": "uint64"
        },
        {
          "indexed": false,
          "internalType": "uint256",
          "name": "debtCount",
          "type": "uint256"
        },
        {
          "indexed": false,
          "internalType": "uint256",
          "name": "collateralCount",
          "type": "uint256"
        },
        {
          "indexed": false,
          "internalType": "uint256",
          "name": "price",
          "type": "uint256"
        }
      ],
      "name": "UndercollatPositionDiscovered",
      "type": "event"
    },
    {
      "inputs": [],
      "name": "completeSetup",
      "outputs": [],
      "stateMutability": "nonpayable",
      "type": "function"
    },
    {
      "inputs": [],
      "name": "coverUnbackedDebt",
      "outputs": [],
      "stateMutability": "nonpayable",
      "type": "function"
    },
    {
      "inputs": [
        {
          "internalType": "uint64[]",
          "name": "positionIDs",
          "type": "uint64[]"
        }
      ],
      "name": "discoverUndercollateralizedPositions",
      "outputs": [],
      "stateMutability": "nonpayable",
      "type": "function"
    },
    {
      "inputs": [],
      "name": "discoveryIncentive",
      "outputs": [
        {
          "internalType": "uint256",
          "name": "",
          "type": "uint256"
        }
      ],
      "stateMutability": "view",
      "type": "function"
    },
    {
      "inputs": [
        {
          "internalType": "uint256",
          "name": "baseTokensToRepay",
          "type": "uint256"
        }
      ],
      "name": "flashLiquidate",
      "outputs": [],
      "stateMutability": "nonpayable",
      "type": "function"
    },
    {
      "inputs": [],
      "name": "governor",
      "outputs": [
        {
          "internalType": "contract IGovernor",
          "name": "",
          "type": "address"
        }
      ],
      "stateMutability": "view",
      "type": "function"
    },
    {
      "inputs": [
        {
          "internalType": "contract IGovernor",
          "name": "governor_",
          "type": "address"
        }
      ],
      "name": "init",
      "outputs": [],
      "stateMutability": "nonpayable",
      "type": "function"
    },
    {
      "inputs": [
        {
          "internalType": "uint256",
          "name": "baseTokensToRepay",
          "type": "uint256"
        }
      ],
      "name": "liquidate",
      "outputs": [],
      "stateMutability": "nonpayable",
      "type": "function"
    },
    {
      "inputs": [],
      "name": "liquidationIncentive",
      "outputs": [
        {
          "internalType": "uint256",
          "name": "",
          "type": "uint256"
        }
      ],
      "stateMutability": "view",
      "type": "function"
    },
    {
      "inputs": [],
      "name": "maxPriceAge",
      "outputs": [
        {
          "internalType": "uint64",
          "name": "",
          "type": "uint64"
        }
      ],
      "stateMutability": "view",
      "type": "function"
    },
    {
      "inputs": [],
      "name": "maxRewardsRatio",
      "outputs": [
        {
          "internalType": "uint256",
          "name": "",
          "type": "uint256"
        }
      ],
      "stateMutability": "view",
      "type": "function"
    },
    {
      "inputs": [],
      "name": "maxTwapTime",
      "outputs": [
        {
          "internalType": "uint64",
          "name": "",
          "type": "uint64"
        }
      ],
      "stateMutability": "view",
      "type": "function"
    },
    {
      "inputs": [],
      "name": "minLiquidationIncentive",
      "outputs": [
        {
          "internalType": "uint256",
          "name": "",
          "type": "uint256"
        }
      ],
      "stateMutability": "view",
      "type": "function"
    },
    {
      "inputs": [],
      "name": "rewardsLimit",
      "outputs": [
        {
          "internalType": "uint192",
          "name": "remaining",
          "type": "uint192"
        },
        {
          "internalType": "uint64",
          "name": "priceTime",
          "type": "uint64"
        }
      ],
      "stateMutability": "view",
      "type": "function"
    },
    {
      "inputs": [
        {
          "internalType": "uint256",
          "name": "incentive",
          "type": "uint256"
        }
      ],
      "name": "setDiscoveryIncentive",
      "outputs": [],
      "stateMutability": "nonpayable",
      "type": "function"
    },
    {
      "inputs": [
        {
          "internalType": "uint256",
          "name": "incentive",
          "type": "uint256"
        }
      ],
      "name": "setLiquidationIncentive",
      "outputs": [],
      "stateMutability": "nonpayable",
      "type": "function"
    },
    {
      "inputs": [
        {
          "internalType": "uint64",
          "name": "age",
          "type": "uint64"
        }
      ],
      "name": "setMaxPriceAge",
      "outputs": [],
      "stateMutability": "nonpayable",
      "type": "function"
    },
    {
      "inputs": [
        {
          "internalType": "uint256",
          "name": "ratio",
          "type": "uint256"
        }
      ],
      "name": "setMaxRewardsRatio",
      "outputs": [],
      "stateMutability": "nonpayable",
      "type": "function"
    },
    {
      "inputs": [
        {
          "internalType": "uint64",
          "name": "time",
          "type": "uint64"
        }
      ],
      "name": "setMaxTwapTime",
      "outputs": [],
      "stateMutability": "nonpayable",
      "type": "function"
    },
    {
      "inputs": [
        {
          "internalType": "uint256",
          "name": "incentive",
          "type": "uint256"
        }
      ],
      "name": "setMinLiquidationIncentive",
      "outputs": [],
      "stateMutability": "nonpayable",
      "type": "function"
    },
    {
      "inputs": [],
      "name": "stop",
      "outputs": [],
      "stateMutability": "nonpayable",
      "type": "function"
    }
  ],
  "bytecode": "0x608060405266470de4df82000060075566d529ae9e860000600855662386f26fc10000600955666a94d74f430000600a556112c0600c60006101000a81548167ffffffffffffffff021916908367ffffffffffffffff160217905550610960600c60086101000a81548167ffffffffffffffff021916908367ffffffffffffffff16021790555034801561009257600080fd5b5033600560006101000a81548173ffffffffffffffffffffffffffffffffffffffff021916908373ffffffffffffffffffffffffffffffffffffffff1602179055506001600681905550614e99806100eb6000396000f3fe608060405234801561001057600080fd5b50600436106101765760003560e01c80634c894413116100d85780639b3c98cf1161008c578063b6e6096d11610066578063b6e6096d1461034b578063b7bbba851461036a578063cd8e040e1461038657610176565b80639b3c98cf14610309578063a5edd6ba14610313578063a84310811461032f57610176565b80638b421eba116100bd5780638b421eba146102af5780638c765e94146102cd5780639672ff28146102eb57610176565b80634c894413146102895780638aea8f71146102a557610176565b80631f9672a51161012f5780633840ffe3116101145780633840ffe3146102355780633ebe077714610251578063415f12401461026d57610176565b80631f9672a5146101fb57806329b426aa1461021757610176565b80630c340a24116101605780630c340a24146101a35780631584410a146101c157806319ab453c146101df57610176565b80627de4471461017b57806307da68f514610199575b600080fd5b6101836103a2565b6040516101909190614a97565b60405180910390f35b6101a16103a8565b005b6101ab610473565b6040516101b891906148f3565b60405180910390f35b6101c9610497565b6040516101d69190614b3b565b60405180910390f35b6101f960048036038101906101f491906140f5565b6104b1565b005b610215600480360381019061021091906141ec565b6109ab565b005b61021f610ad7565b60405161022c9190614b3b565b60405180910390f35b61024f600480360381019061024a91906142b6565b610af1565b005b61026b600480360381019061026691906140b4565b610c29565b005b610287600480360381019061028291906141ec565b61177e565b005b6102a3600480360381019061029e91906141ec565b611a94565b005b6102ad611daa565b005b6102b7611f80565b6040516102c49190614a97565b60405180910390f35b6102d5611f86565b6040516102e29190614a97565b60405180910390f35b6102f3611f8c565b6040516103009190614a97565b60405180910390f35b610311611f92565b005b61032d600480360381019061032891906141ec565b612861565b005b610349600480360381019061034491906141ec565b61299d565b005b610353612ad9565b604051610361929190614a6e565b60405180910390f35b610384600480360381019061037f91906142b6565b612b23565b005b6103a0600480360381019061039b91906141ec565b612c5b565b005b60095481565b60008054906101000a900473ffffffffffffffffffffffffffffffffffffffff1673ffffffffffffffffffffffffffffffffffffffff163373ffffffffffffffffffffffffffffffffffffffff1614610469576040517f08c379a00000000000000000000000000000000000000000000000000000000081526004018080602001828103825260198152602001807f476f7665726e65643a204e6f7420417574686f72697a65642e0000000000000081525060200191505060405180910390fd5b610471612d87565b565b60008054906101000a900473ffffffffffffffffffffffffffffffffffffffff1681565b600c60089054906101000a900467ffffffffffffffff1681565b600560009054906101000a900473ffffffffffffffffffffffffffffffffffffffff1673ffffffffffffffffffffffffffffffffffffffff163373ffffffffffffffffffffffffffffffffffffffff1614610574576040517f08c379a000000000000000000000000000000000000000000000000000000000815260040180806020018281038252601e8152602001807f476f7665726e65643a20496e6974206e6f7420617574686f72697a65642e000081525060200191505060405180910390fd5b600560006101000a81549073ffffffffffffffffffffffffffffffffffffffff02191690558073ffffffffffffffffffffffffffffffffffffffff167f908408e307fc569b417f6cbec5d5a06f44a0a505ac0479b47d421a4b2fd6a1e660405160405180910390a2806000806101000a81548173ffffffffffffffffffffffffffffffffffffffff021916908373ffffffffffffffffffffffffffffffffffffffff16021790555060008054906101000a900473ffffffffffffffffffffffffffffffffffffffff1673ffffffffffffffffffffffffffffffffffffffff16639624e83e6040518163ffffffff1660e01b815260040160206040518083038186803b15801561068257600080fd5b505afa158015610696573d6000803e3d6000fd5b505050506040513d60208110156106ac57600080fd5b8101908080519060200190929190505050600160006101000a81548173ffffffffffffffffffffffffffffffffffffffff021916908373ffffffffffffffffffffffffffffffffffffffff16021790555060008054906101000a900473ffffffffffffffffffffffffffffffffffffffff1673ffffffffffffffffffffffffffffffffffffffff166311df99956040518163ffffffff1660e01b815260040160206040518083038186803b15801561076357600080fd5b505afa158015610777573d6000803e3d6000fd5b505050506040513d602081101561078d57600080fd5b8101908080519060200190929190505050600260006101000a81548173ffffffffffffffffffffffffffffffffffffffff021916908373ffffffffffffffffffffffffffffffffffffffff16021790555060008054906101000a900473ffffffffffffffffffffffffffffffffffffffff1673ffffffffffffffffffffffffffffffffffffffff1663d478b0876040518163ffffffff1660e01b815260040160206040518083038186803b15801561084457600080fd5b505afa158015610858573d6000803e3d6000fd5b505050506040513d602081101561086e57600080fd5b8101908080519060200190929190505050600360006101000a81548173ffffffffffffffffffffffffffffffffffffffff021916908373ffffffffffffffffffffffffffffffffffffffff16021790555060008054906101000a900473ffffffffffffffffffffffffffffffffffffffff1673ffffffffffffffffffffffffffffffffffffffff16633fc8cef36040518163ffffffff1660e01b815260040160206040518083038186803b15801561092557600080fd5b505afa158015610939573d6000803e3d6000fd5b505050506040513d602081101561094f57600080fd5b8101908080519060200190929190505050600460006101000a81548173ffffffffffffffffffffffffffffffffffffffff021916908373ffffffffffffffffffffffffffffffffffffffff1602179055506109a8612dd0565b50565b60008054906101000a900473ffffffffffffffffffffffffffffffffffffffff1673ffffffffffffffffffffffffffffffffffffffff163373ffffffffffffffffffffffffffffffffffffffff1614610a6c576040517f08c379a00000000000000000000000000000000000000000000000000000000081526004018080602001828103825260198152602001807f476f7665726e65643a204e6f7420417574686f72697a65642e0000000000000081525060200191505060405180910390fd5b80600781905550670de0b6b3a764000060075410610a8957600080fd5b604051610a9590614862565b60405180910390207f3a64504f0bc0c335e2aecb78638a257e0351a3fe0370861fd54ee4190b92093382604051610acc9190614a97565b60405180910390a250565b600c60009054906101000a900467ffffffffffffffff1681565b60008054906101000a900473ffffffffffffffffffffffffffffffffffffffff1673ffffffffffffffffffffffffffffffffffffffff163373ffffffffffffffffffffffffffffffffffffffff1614610bb2576040517f08c379a00000000000000000000000000000000000000000000000000000000081526004018080602001828103825260198152602001807f476f7665726e65643a204e6f7420417574686f72697a65642e0000000000000081525060200191505060405180910390fd5b80600c60006101000a81548167ffffffffffffffff021916908367ffffffffffffffff160217905550604051610be790614838565b60405180910390207f6293347933ad2997134e224ac8cd2e39908a4a22aeed9af52127b4bbf765297882604051610c1e9190614b3b565b60405180910390a250565b600360009054906101000a900473ffffffffffffffffffffffffffffffffffffffff1673ffffffffffffffffffffffffffffffffffffffff1663e97dcb626040518163ffffffff1660e01b8152600401600060405180830381600087803b158015610c9357600080fd5b505af1158015610ca7573d6000803e3d6000fd5b5050505060026006541415610d24576040517f08c379a000000000000000000000000000000000000000000000000000000000815260040180806020018281038252601d8152602001807f4c6f636b50726f746f636f6c3a207265656e7472616e742063616c6c2e00000081525060200191505060405180910390fd5b6002600681905550600460149054906101000a900460ff1615610daf576040517f08c379a000000000000000000000000000000000000000000000000000000000815260040180806020018281038252601e8152602001807f476f7665726e65643a20436f6e74726163742069732073746f707065642e000081525060200191505060405180910390fd5b60008054906101000a900473ffffffffffffffffffffffffffffffffffffffff1673ffffffffffffffffffffffffffffffffffffffff1663bf86d6906040518163ffffffff1660e01b815260040160206040518083038186803b158015610e1557600080fd5b505afa158015610e29573d6000803e3d6000fd5b505050506040513d6020811015610e3f57600080fd5b810190808051906020019092919050505015610ea6576040517f08c379a0000000000000000000000000000000000000000000000000000000008152600401808060200182810382526028815260200180614e3c6028913960400191505060405180910390fd5b60008060008054906101000a900473ffffffffffffffffffffffffffffffffffffffff1673ffffffffffffffffffffffffffffffffffffffff1663d3419bf36040518163ffffffff1660e01b815260040160206040518083038186803b158015610f0f57600080fd5b505afa158015610f23573d6000803e3d6000fd5b505050506040513d601f19601f82011682018060405250810190610f479190614147565b73ffffffffffffffffffffffffffffffffffffffff1663fb5bb243600d60009054906101000a900473ffffffffffffffffffffffffffffffffffffffff16600c60009054906101000a900467ffffffffffffffff16600c60089054906101000a900467ffffffffffffffff1660006040518563ffffffff1660e01b8152600401610fd4949392919061490e565b6040805180830381600087803b158015610fed57600080fd5b505af1158015611001573d6000803e3d6000fd5b505050506040513d601f19601f82011682018060405250810190611025919061427a565b91509150600082141561106d576040517f08c379a000000000000000000000000000000000000000000000000000000000815260040161106490614993565b60405180910390fd5b611075613d42565b600b6040518060400160405290816000820160009054906101000a900477ffffffffffffffffffffffffffffffffffffffffffffffff1677ffffffffffffffffffffffffffffffffffffffffffffffff1677ffffffffffffffffffffffffffffffffffffffffffffffff1681526020016000820160189054906101000a900467ffffffffffffffff1667ffffffffffffffff1667ffffffffffffffff168152505090508167ffffffffffffffff16816020015167ffffffffffffffff16146112ad578167ffffffffffffffff16816020015167ffffffffffffffff1610611191576040517f08c379a000000000000000000000000000000000000000000000000000000000815260040161118890614953565b60405180910390fd5b61124d611248600754600160009054906101000a900473ffffffffffffffffffffffffffffffffffffffff1673ffffffffffffffffffffffffffffffffffffffff16630dca59c16040518163ffffffff1660e01b815260040160206040518083038186803b15801561120257600080fd5b505afa158015611216573d6000803e3d6000fd5b505050506040513d601f19601f8201168201806040525081019061123a9190614215565b612dd290919063ffffffff16565b612e71565b816000019077ffffffffffffffffffffffffffffffffffffffffffffffff16908177ffffffffffffffffffffffffffffffffffffffffffffffff168152505081816020019067ffffffffffffffff16908167ffffffffffffffff16815250505b6000816000015177ffffffffffffffffffffffffffffffffffffffffffffffff16141561130f576040517f08c379a000000000000000000000000000000000000000000000000000000000815260040161130690614a33565b60405180910390fd5b60008054906101000a900473ffffffffffffffffffffffffffffffffffffffff1673ffffffffffffffffffffffffffffffffffffffff166380f556056040518163ffffffff1660e01b815260040160206040518083038186803b15801561137557600080fd5b505afa158015611389573d6000803e3d6000fd5b505050506040513d601f19601f820116820180604052508101906113ad919061411e565b73ffffffffffffffffffffffffffffffffffffffff16637f08a55a6040518163ffffffff1660e01b8152600401600060405180830381600087803b1580156113f457600080fd5b505af1158015611408573d6000803e3d6000fd5b50505050611414613d80565b6114f76040518060600160405280600160009054906101000a900473ffffffffffffffffffffffffffffffffffffffff1673ffffffffffffffffffffffffffffffffffffffff1663b6bae30f6040518163ffffffff1660e01b815260040160606040518083038186803b15801561148a57600080fd5b505afa15801561149e573d6000803e3d6000fd5b505050506040513d601f19601f820116820180604052508101906114c291906141c3565b815260200160008152602001846000015177ffffffffffffffffffffffffffffffffffffffffffffffff168152508686612eec565b90506115068160400151612e71565b826000019077ffffffffffffffffffffffffffffffffffffffffffffffff16908177ffffffffffffffffffffffffffffffffffffffffffffffff168152505081600b60008201518160000160006101000a81548177ffffffffffffffffffffffffffffffffffffffffffffffff021916908377ffffffffffffffffffffffffffffffffffffffffffffffff16021790555060208201518160000160186101000a81548167ffffffffffffffff021916908367ffffffffffffffff160217905550905050600160009054906101000a900473ffffffffffffffffffffffffffffffffffffffff1673ffffffffffffffffffffffffffffffffffffffff1663adb539a582600001516040518263ffffffff1660e01b81526004016116289190614a53565b600060405180830381600087803b15801561164257600080fd5b505af1158015611656573d6000803e3d6000fd5b50505050600160009054906101000a900473ffffffffffffffffffffffffffffffffffffffff1673ffffffffffffffffffffffffffffffffffffffff1663625021693383602001516040518363ffffffff1660e01b81526004016116bb9291906148a1565b600060405180830381600087803b1580156116d557600080fd5b505af11580156116e9573d6000803e3d6000fd5b50505050505050506001600681905550600360009054906101000a900473ffffffffffffffffffffffffffffffffffffffff1673ffffffffffffffffffffffffffffffffffffffff1663e9fad8ee6040518163ffffffff1660e01b8152600401600060405180830381600087803b15801561176357600080fd5b505af1158015611777573d6000803e3d6000fd5b5050505050565b600360009054906101000a900473ffffffffffffffffffffffffffffffffffffffff1673ffffffffffffffffffffffffffffffffffffffff1663e97dcb626040518163ffffffff1660e01b8152600401600060405180830381600087803b1580156117e857600080fd5b505af11580156117fc573d6000803e3d6000fd5b5050505060026006541415611879576040517f08c379a000000000000000000000000000000000000000000000000000000000815260040180806020018281038252601d8152602001807f4c6f636b50726f746f636f6c3a207265656e7472616e742063616c6c2e00000081525060200191505060405180910390fd5b6002600681905550600460149054906101000a900460ff1615611904576040517f08c379a000000000000000000000000000000000000000000000000000000000815260040180806020018281038252601e8152602001807f476f7665726e65643a20436f6e74726163742069732073746f707065642e000081525060200191505060405180910390fd5b60008054906101000a900473ffffffffffffffffffffffffffffffffffffffff1673ffffffffffffffffffffffffffffffffffffffff1663bf86d6906040518163ffffffff1660e01b815260040160206040518083038186803b15801561196a57600080fd5b505afa15801561197e573d6000803e3d6000fd5b505050506040513d602081101561199457600080fd5b8101908080519060200190929190505050156119fb576040517f08c379a0000000000000000000000000000000000000000000000000000000008152600401808060200182810382526028815260200180614e3c6028913960400191505060405180910390fd5b611a073382600061339e565b6001600681905550600360009054906101000a900473ffffffffffffffffffffffffffffffffffffffff1673ffffffffffffffffffffffffffffffffffffffff1663e9fad8ee6040518163ffffffff1660e01b8152600401600060405180830381600087803b158015611a7957600080fd5b505af1158015611a8d573d6000803e3d6000fd5b5050505050565b600360009054906101000a900473ffffffffffffffffffffffffffffffffffffffff1673ffffffffffffffffffffffffffffffffffffffff1663e97dcb626040518163ffffffff1660e01b8152600401600060405180830381600087803b158015611afe57600080fd5b505af1158015611b12573d6000803e3d6000fd5b5050505060026006541415611b8f576040517f08c379a000000000000000000000000000000000000000000000000000000000815260040180806020018281038252601d8152602001807f4c6f636b50726f746f636f6c3a207265656e7472616e742063616c6c2e00000081525060200191505060405180910390fd5b6002600681905550600460149054906101000a900460ff1615611c1a576040517f08c379a000000000000000000000000000000000000000000000000000000000815260040180806020018281038252601e8152602001807f476f7665726e65643a20436f6e74726163742069732073746f707065642e000081525060200191505060405180910390fd5b60008054906101000a900473ffffffffffffffffffffffffffffffffffffffff1673ffffffffffffffffffffffffffffffffffffffff1663bf86d6906040518163ffffffff1660e01b815260040160206040518083038186803b158015611c8057600080fd5b505afa158015611c94573d6000803e3d6000fd5b505050506040513d6020811015611caa57600080fd5b810190808051906020019092919050505015611d11576040517f08c379a0000000000000000000000000000000000000000000000000000000008152600401808060200182810382526028815260200180614e3c6028913960400191505060405180910390fd5b611d1d3382600161339e565b6001600681905550600360009054906101000a900473ffffffffffffffffffffffffffffffffffffffff1673ffffffffffffffffffffffffffffffffffffffff1663e9fad8ee6040518163ffffffff1660e01b8152600401600060405180830381600087803b158015611d8f57600080fd5b505af1158015611da3573d6000803e3d6000fd5b5050505050565b60008054906101000a900473ffffffffffffffffffffffffffffffffffffffff1673ffffffffffffffffffffffffffffffffffffffff163373ffffffffffffffffffffffffffffffffffffffff1614611e6b576040517f08c379a00000000000000000000000000000000000000000000000000000000081526004018080602001828103825260198152602001807f476f7665726e65643a204e6f7420417574686f72697a65642e0000000000000081525060200191505060405180910390fd5b600d60149054906101000a900460ff1615611e8557600080fd5b6001600d60146101000a81548160ff02191690831515021790555060008054906101000a900473ffffffffffffffffffffffffffffffffffffffff1673ffffffffffffffffffffffffffffffffffffffff16637429d7dd6040518163ffffffff1660e01b815260040160206040518083038186803b158015611f0657600080fd5b505afa158015611f1a573d6000803e3d6000fd5b505050506040513d601f19601f82011682018060405250810190611f3e9190614170565b600d60006101000a81548173ffffffffffffffffffffffffffffffffffffffff021916908373ffffffffffffffffffffffffffffffffffffffff160217905550565b60075481565b600a5481565b60085481565b600360009054906101000a900473ffffffffffffffffffffffffffffffffffffffff1673ffffffffffffffffffffffffffffffffffffffff1663e97dcb626040518163ffffffff1660e01b8152600401600060405180830381600087803b158015611ffc57600080fd5b505af1158015612010573d6000803e3d6000fd5b505050506002600654141561208d576040517f08c379a000000000000000000000000000000000000000000000000000000000815260040180806020018281038252601d8152602001807f4c6f636b50726f746f636f6c3a207265656e7472616e742063616c6c2e00000081525060200191505060405180910390fd5b6002600681905550600460149054906101000a900460ff1615612118576040517f08c379a000000000000000000000000000000000000000000000000000000000815260040180806020018281038252601e8152602001807f476f7665726e65643a20436f6e74726163742069732073746f707065642e000081525060200191505060405180910390fd5b60008054906101000a900473ffffffffffffffffffffffffffffffffffffffff1673ffffffffffffffffffffffffffffffffffffffff1663bf86d6906040518163ffffffff1660e01b815260040160206040518083038186803b15801561217e57600080fd5b505afa158015612192573d6000803e3d6000fd5b505050506040513d60208110156121a857600080fd5b81019080805190602001909291905050501561220f576040517f08c379a0000000000000000000000000000000000000000000000000000000008152600401808060200182810382526028815260200180614e3c6028913960400191505060405180910390fd5b60008060009054906101000a900473ffffffffffffffffffffffffffffffffffffffff1673ffffffffffffffffffffffffffffffffffffffff1663d3419bf36040518163ffffffff1660e01b815260040160206040518083038186803b15801561227857600080fd5b505afa15801561228c573d6000803e3d6000fd5b505050506040513d601f19601f820116820180604052508101906122b09190614147565b73ffffffffffffffffffffffffffffffffffffffff1663fb5bb243600d60009054906101000a900473ffffffffffffffffffffffffffffffffffffffff16600c60009054906101000a900467ffffffffffffffff16600c60089054906101000a900467ffffffffffffffff1660006040518563ffffffff1660e01b815260040161233d949392919061490e565b6040805180830381600087803b15801561235657600080fd5b505af115801561236a573d6000803e3d6000fd5b505050506040513d601f19601f8201168201806040525081019061238e919061427a565b50905060008114156123d5576040517f08c379a00000000000000000000000000000000000000000000000000000000081526004016123cc90614993565b60405180910390fd5b6123dd613da7565b600160009054906101000a900473ffffffffffffffffffffffffffffffffffffffff1673ffffffffffffffffffffffffffffffffffffffff1663b6bae30f6040518163ffffffff1660e01b815260040160606040518083038186803b15801561244557600080fd5b505afa158015612459573d6000803e3d6000fd5b505050506040513d601f19601f8201168201806040525081019061247d91906141c3565b905060006124a683670de0b6b3a76400006009540184604001516138a29092919063ffffffff16565b9050808260200151116124ee576040517f08c379a00000000000000000000000000000000000000000000000000000000081526004016124e590614973565b60405180910390fd5b600081836020015103905080600260009054906101000a900473ffffffffffffffffffffffffffffffffffffffff1673ffffffffffffffffffffffffffffffffffffffff166375172a8b6040518163ffffffff1660e01b815260040160206040518083038186803b15801561256257600080fd5b505afa158015612576573d6000803e3d6000fd5b505050506040513d601f19601f8201168201806040525081019061259a9190614215565b116125da576040517f08c379a00000000000000000000000000000000000000000000000000000000081526004016125d1906149b3565b60405180910390fd5b81836020018181525050600160009054906101000a900473ffffffffffffffffffffffffffffffffffffffff1673ffffffffffffffffffffffffffffffffffffffff1663adb539a5846040518263ffffffff1660e01b815260040161263f9190614a53565b600060405180830381600087803b15801561265957600080fd5b505af115801561266d573d6000803e3d6000fd5b50505050600160009054906101000a900473ffffffffffffffffffffffffffffffffffffffff1673ffffffffffffffffffffffffffffffffffffffff1663f4d6243b8260006040518363ffffffff1660e01b81526004016126cf929190614ab2565b600060405180830381600087803b1580156126e957600080fd5b505af11580156126fd573d6000803e3d6000fd5b50505050600260009054906101000a900473ffffffffffffffffffffffffffffffffffffffff1673ffffffffffffffffffffffffffffffffffffffff1663c59fb1ab826040518263ffffffff1660e01b815260040161275c9190614a97565b600060405180830381600087803b15801561277657600080fd5b505af115801561278a573d6000803e3d6000fd5b505050507f1be7bee8f23970bcdf70ec93cfa48d0dafecb7d07e578d23cb1b43e356709d3f84846020015185604001516040516127c993929190614b04565b60405180910390a1505050506001600681905550600360009054906101000a900473ffffffffffffffffffffffffffffffffffffffff1673ffffffffffffffffffffffffffffffffffffffff1663e9fad8ee6040518163ffffffff1660e01b8152600401600060405180830381600087803b15801561284757600080fd5b505af115801561285b573d6000803e3d6000fd5b50505050565b60008054906101000a900473ffffffffffffffffffffffffffffffffffffffff1673ffffffffffffffffffffffffffffffffffffffff163373ffffffffffffffffffffffffffffffffffffffff1614612922576040517f08c379a00000000000000000000000000000000000000000000000000000000081526004018080602001828103825260198152602001807f476f7665726e65643a204e6f7420417574686f72697a65642e0000000000000081525060200191505060405180910390fd5b80600981905550600a546009541061293957600080fd5b670de0b6b3a7640000600a541061294f57600080fd5b60405161295b9061488c565b60405180910390207f3a64504f0bc0c335e2aecb78638a257e0351a3fe0370861fd54ee4190b920933826040516129929190614a97565b60405180910390a250565b60008054906101000a900473ffffffffffffffffffffffffffffffffffffffff1673ffffffffffffffffffffffffffffffffffffffff163373ffffffffffffffffffffffffffffffffffffffff1614612a5e576040517f08c379a00000000000000000000000000000000000000000000000000000000081526004018080602001828103825260198152602001807f476f7665726e65643a204e6f7420417574686f72697a65642e0000000000000081525060200191505060405180910390fd5b80600a81905550600a5460095410612a7557600080fd5b670de0b6b3a7640000600a5410612a8b57600080fd5b604051612a9790614823565b60405180910390207f3a64504f0bc0c335e2aecb78638a257e0351a3fe0370861fd54ee4190b92093382604051612ace9190614a97565b60405180910390a250565b600b8060000160009054906101000a900477ffffffffffffffffffffffffffffffffffffffffffffffff16908060000160189054906101000a900467ffffffffffffffff16905082565b60008054906101000a900473ffffffffffffffffffffffffffffffffffffffff1673ffffffffffffffffffffffffffffffffffffffff163373ffffffffffffffffffffffffffffffffffffffff1614612be4576040517f08c379a00000000000000000000000000000000000000000000000000000000081526004018080602001828103825260198152602001807f476f7665726e65643a204e6f7420417574686f72697a65642e0000000000000081525060200191505060405180910390fd5b80600c60086101000a81548167ffffffffffffffff021916908367ffffffffffffffff160217905550604051612c199061484d565b60405180910390207f6293347933ad2997134e224ac8cd2e39908a4a22aeed9af52127b4bbf765297882604051612c509190614b3b565b60405180910390a250565b60008054906101000a900473ffffffffffffffffffffffffffffffffffffffff1673ffffffffffffffffffffffffffffffffffffffff163373ffffffffffffffffffffffffffffffffffffffff1614612d1c576040517f08c379a00000000000000000000000000000000000000000000000000000000081526004018080602001828103825260198152602001807f476f7665726e65643a204e6f7420417574686f72697a65642e0000000000000081525060200191505060405180910390fd5b80600881905550670de0b6b3a764000060085410612d3957600080fd5b604051612d4590614877565b60405180910390207f3a64504f0bc0c335e2aecb78638a257e0351a3fe0370861fd54ee4190b92093382604051612d7c9190614a97565b60405180910390a250565b6001600460146101000a81548160ff0219169083151502179055507f7acc84e34091ae817647a4c49116f5cc07f319078ba80f8f5fde37ea7e25cbd660405160405180910390a1565b565b600080831480612de25750600082145b15612df05760009050612e6b565b818302905081838281612dff57fe5b0414612e56576040517f08c379a0000000000000000000000000000000000000000000000000000000008152600401808060200182810382526022815260200180614e1a6022913960400191505060405180910390fd5b670de0b6b3a76400008181612e6757fe5b0490505b92915050565b600078010000000000000000000000000000000000000000000000008210612ee4576040517f08c379a0000000000000000000000000000000000000000000000000000000008152600401808060200182810382526027815260200180614df36027913960400191505060405180910390fd5b819050919050565b612ef4613d80565b83905060008351905060008060009054906101000a900473ffffffffffffffffffffffffffffffffffffffff1673ffffffffffffffffffffffffffffffffffffffff166380f556056040518163ffffffff1660e01b815260040160206040518083038186803b158015612f6657600080fd5b505afa158015612f7a573d6000803e3d6000fd5b505050506040513d601f19601f82011682018060405250810190612f9e919061411e565b9050600080600080600090505b8581101561339157600087604001511415612fc557613391565b888181518110612fd157fe5b60200260200101519150600160009054906101000a900473ffffffffffffffffffffffffffffffffffffffff1673ffffffffffffffffffffffffffffffffffffffff16636594da9f836040518263ffffffff1660e01b81526004016130369190614b3b565b604080518083038186803b15801561304d57600080fd5b505afa158015613061573d6000803e3d6000fd5b505050506040513d601f19601f82011682018060405250810190613085919061423e565b8094508195505050600084141561309b57613384565b8473ffffffffffffffffffffffffffffffffffffffff16635658c0126040518163ffffffff1660e01b815260040160206040518083038186803b1580156130e157600080fd5b505afa1580156130f5573d6000803e3d6000fd5b505050506040513d601f19601f820116820180604052508101906131199190614215565b61312e84868b6138a29092919063ffffffff16565b1061313857613384565b613140613dc8565b8573ffffffffffffffffffffffffffffffffffffffff1663eb6843ce846040518263ffffffff1660e01b81526004016131799190614b3b565b61012060405180830381600087803b15801561319457600080fd5b505af11580156131a8573d6000803e3d6000fd5b505050506040513d601f19601f820116820180604052508101906131cc9190614199565b90506000806131e9836040015184602001518d8d604001516139b1565b8c6040018181525081935082945050505061321983604001518b6000015160200151613a8490919063ffffffff16565b8a600001516020018181525050600083604001818152505061324c818b6000015160400151613a8490919063ffffffff16565b8a60000151604001818152505061328261326f8383613a8490919063ffffffff16565b8460200151613b0c90919063ffffffff16565b8360200181815250506132a2828b60200151613a8490919063ffffffff16565b8a6020018181525050600160009054906101000a900473ffffffffffffffffffffffffffffffffffffffff1673ffffffffffffffffffffffffffffffffffffffff1663a31444d486856040518363ffffffff1660e01b8152600401613308929190614b56565b600060405180830381600087803b15801561332257600080fd5b505af1158015613336573d6000803e3d6000fd5b505050508467ffffffffffffffff167feedd1116ee4b172f8bd428c71ffa4da20e0bffc9e5b05e78bbacd0b4337c71bf88888e60405161337893929190614b04565b60405180910390a25050505b8080600101915050612fab565b5050505050509392505050565b60008214156133e2576040517f08c379a00000000000000000000000000000000000000000000000000000000081526004016133d990614a13565b60405180910390fd5b6133ea613da7565b600160009054906101000a900473ffffffffffffffffffffffffffffffffffffffff1673ffffffffffffffffffffffffffffffffffffffff1663b6bae30f6040518163ffffffff1660e01b815260040160606040518083038186803b15801561345257600080fd5b505afa158015613466573d6000803e3d6000fd5b505050506040513d601f19601f8201168201806040525081019061348a91906141c3565b90506000816020015114156134d4576040517f08c379a00000000000000000000000000000000000000000000000000000000081526004016134cb906149d3565b60405180910390fd5b60008160400151141561351c576040517f08c379a0000000000000000000000000000000000000000000000000000000008152600401613513906149f3565b60405180910390fd5b600081602001518410613552578160200151935081604001519050600082602001818152505060008260400181815250506135b2565b61356f82604001518360200151866138a29092919063ffffffff16565b9050613588818360400151613b0c90919063ffffffff16565b8260400181815250506135a8848360200151613b0c90919063ffffffff16565b8260200181815250505b600160009054906101000a900473ffffffffffffffffffffffffffffffffffffffff1673ffffffffffffffffffffffffffffffffffffffff1663adb539a5836040518263ffffffff1660e01b815260040161360d9190614a53565b600060405180830381600087803b15801561362757600080fd5b505af115801561363b573d6000803e3d6000fd5b50505050600160009054906101000a900473ffffffffffffffffffffffffffffffffffffffff1673ffffffffffffffffffffffffffffffffffffffff1663f4d6243b8560006040518363ffffffff1660e01b815260040161369d929190614ab2565b600060405180830381600087803b1580156136b757600080fd5b505af11580156136cb573d6000803e3d6000fd5b50505050600160009054906101000a900473ffffffffffffffffffffffffffffffffffffffff1673ffffffffffffffffffffffffffffffffffffffff16636250216986836040518363ffffffff1660e01b815260040161372c9291906148ca565b600060405180830381600087803b15801561374657600080fd5b505af115801561375a573d6000803e3d6000fd5b5050505082156137d2578473ffffffffffffffffffffffffffffffffffffffff1663acd1736b82866040518363ffffffff1660e01b815260040161379f929190614adb565b600060405180830381600087803b1580156137b957600080fd5b505af11580156137cd573d6000803e3d6000fd5b505050505b600260009054906101000a900473ffffffffffffffffffffffffffffffffffffffff1673ffffffffffffffffffffffffffffffffffffffff166379cc679086866040518363ffffffff1660e01b815260040161382f9291906148ca565b600060405180830381600087803b15801561384957600080fd5b505af115801561385d573d6000803e3d6000fd5b505050508215157f68435902c8c82c13c30a886febc8fbcf6fc381a49b832414e11c4b96e0f43884856040516138939190614a97565b60405180910390a25050505050565b6000808414806138b25750600083145b156138c057600090506139aa565b6000821415613937576040517f08c379a000000000000000000000000000000000000000000000000000000000815260040180806020018281038252601b8152602001807f536166654d6174683a206469766973696f6e206279207a65726f2e000000000081525060200191505060405180910390fd5b82840290508284828161394657fe5b041461399d576040517f08c379a0000000000000000000000000000000000000000000000000000000008152600401808060200182810382526022815260200180614e1a6022913960400191505060405180910390fd5b8181816139a657fe5b0490505b9392505050565b6000806000806139cc60085489612dd290919063ffffffff16565b90506139f3876139e58884613b5690919063ffffffff16565b613c6990919063ffffffff16565b9350613a1c848803613a0e888b613b5690919063ffffffff16565b613c6990919063ffffffff16565b92506000613a338785612dd290919063ffffffff16565b90506000818a11613a4657898203613a49565b60005b90506000613a608285613a8490919063ffffffff16565b9050878111613a7157808803613a74565b60005b9450505050509450945094915050565b600080828401905083811015613b02576040517f08c379a000000000000000000000000000000000000000000000000000000000815260040180806020018281038252601b8152602001807f536166654d6174683a206164646974696f6e206f766572666c6f77000000000081525060200191505060405180910390fd5b8091505092915050565b6000613b4e83836040518060400160405280601e81526020017f536166654d6174683a207375627472616374696f6e206f766572666c6f770000815250613c82565b905092915050565b600080831415613b695760009050613c63565b6000821415613be0576040517f08c379a000000000000000000000000000000000000000000000000000000000815260040180806020018281038252601b8152602001807f536166654d6174683a206469766973696f6e206279207a65726f2e000000000081525060200191505060405180910390fd5b670de0b6b3a764000083029050670de0b6b3a7640000838281613bff57fe5b0414613c56576040517f08c379a0000000000000000000000000000000000000000000000000000000008152600401808060200182810382526022815260200180614e1a6022913960400191505060405180910390fd5b818181613c5f57fe5b0490505b92915050565b6000818310613c785781613c7a565b825b905092915050565b6000838311158290613d2f576040517f08c379a00000000000000000000000000000000000000000000000000000000081526004018080602001828103825283818151815260200191508051906020019080838360005b83811015613cf4578082015181840152602081019050613cd9565b50505050905090810190601f168015613d215780820380516001836020036101000a031916815260200191505b509250505060405180910390fd5b5060008385039050809150509392505050565b6040518060400160405280600077ffffffffffffffffffffffffffffffffffffffffffffffff168152602001600067ffffffffffffffff1681525090565b6040518060600160405280613d93613da7565b815260200160008152602001600081525090565b60405180606001604052806000815260200160008152602001600081525090565b6040518061012001604052806000815260200160008152602001600081526020016000815260200160008152602001600067ffffffffffffffff168152602001600067ffffffffffffffff168152602001600067ffffffffffffffff168152602001600063ffffffff1681525090565b600082601f830112613e4957600080fd5b8135613e5c613e5782614bb1565b614b80565b91508181835260208401935060208101905083856020840282011115613e8157600080fd5b60005b83811015613eb15781613e97888261408a565b845260208401935060208301925050600181019050613e84565b5050505092915050565b600081359050613eca81614d51565b92915050565b600081519050613edf81614d68565b92915050565b600081519050613ef481614d7f565b92915050565b600081519050613f0981614d96565b92915050565b60006101208284031215613f2257600080fd5b613f2d610120614b80565b90506000613f3d84828501614060565b6000830152506020613f5184828501614060565b6020830152506040613f6584828501614060565b6040830152506060613f7984828501614060565b6060830152506080613f8d84828501614060565b60808301525060a0613fa18482850161409f565b60a08301525060c0613fb58482850161409f565b60c08301525060e0613fc98482850161409f565b60e083015250610100613fde84828501614075565b6101008301525092915050565b600060608284031215613ffd57600080fd5b6140076060614b80565b9050600061401784828501614060565b600083015250602061402b84828501614060565b602083015250604061403f84828501614060565b60408301525092915050565b60008135905061405a81614dad565b92915050565b60008151905061406f81614dad565b92915050565b60008151905061408481614dc4565b92915050565b60008135905061409981614ddb565b92915050565b6000815190506140ae81614ddb565b92915050565b6000602082840312156140c657600080fd5b600082013567ffffffffffffffff8111156140e057600080fd5b6140ec84828501613e38565b91505092915050565b60006020828403121561410757600080fd5b600061411584828501613ebb565b91505092915050565b60006020828403121561413057600080fd5b600061413e84828501613ed0565b91505092915050565b60006020828403121561415957600080fd5b600061416784828501613ee5565b91505092915050565b60006020828403121561418257600080fd5b600061419084828501613efa565b91505092915050565b600061012082840312156141ac57600080fd5b60006141ba84828501613f0f565b91505092915050565b6000606082840312156141d557600080fd5b60006141e384828501613feb565b91505092915050565b6000602082840312156141fe57600080fd5b600061420c8482850161404b565b91505092915050565b60006020828403121561422757600080fd5b600061423584828501614060565b91505092915050565b6000806040838503121561425157600080fd5b600061425f85828601614060565b925050602061427085828601614060565b9150509250929050565b6000806040838503121561428d57600080fd5b600061429b85828601614060565b92505060206142ac8582860161409f565b9150509250929050565b6000602082840312156142c857600080fd5b60006142d68482850161408a565b91505092915050565b6142e881614cd1565b82525050565b6142f781614bf9565b82525050565b61430681614c0b565b82525050565b61431581614ce3565b82525050565b61432481614d07565b82525050565b6000614337600b83614bdd565b91507f54696d65206572726f722e0000000000000000000000000000000000000000006000830152602082019050919050565b6000614377601583614bdd565b91507f44656274206973206e6f7420756e6261636b65642e00000000000000000000006000830152602082019050919050565b60006143b7601383614bdd565b91507f4e6f20707269636520617661696c61626c652e000000000000000000000000006000830152602082019050919050565b60006143f7602683614bdd565b91507f496e73756666696369656e742072657365727665732e2053746172742061756360008301527f74696f6e732e00000000000000000000000000000000000000000000000000006020830152604082019050919050565b600061445d600883614bdd565b91507f4e6f20646562742e0000000000000000000000000000000000000000000000006000830152602082019050919050565b600061449d600e83614bdd565b91507f4e6f20636f6c6c61746572616c2e0000000000000000000000000000000000006000830152602082019050919050565b60006144dd601483614bee565b91507f6c69717569646174696f6e496e63656e746976650000000000000000000000006000830152601482019050919050565b600061451d600b83614bee565b91507f6d61785477617054696d650000000000000000000000000000000000000000006000830152600b82019050919050565b600061455d600b83614bee565b91507f6d617850726963654167650000000000000000000000000000000000000000006000830152600b82019050919050565b600061459d600f83614bee565b91507f6d617852657761726473526174696f00000000000000000000000000000000006000830152600f82019050919050565b60006145dd601283614bee565b91507f646973636f76657279496e63656e7469766500000000000000000000000000006000830152601282019050919050565b600061461d601783614bee565b91507f6d696e4c69717569646174696f6e496e63656e746976650000000000000000006000830152601782019050919050565b600061465d600583614bdd565b91507f4e6f6f702e0000000000000000000000000000000000000000000000000000006000830152602082019050919050565b600061469d601583614bdd565b91507f4e6f20726577617264732072656d61696e696e672e00000000000000000000006000830152602082019050919050565b610120820160008201516146e760008501826147d8565b5060208201516146fa60208501826147d8565b50604082015161470d60408501826147d8565b50606082015161472060608501826147d8565b50608082015161473360808501826147d8565b5060a082015161474660a0850182614805565b5060c082015161475960c0850182614805565b5060e082015161476c60e0850182614805565b506101008201516147816101008501826147f6565b50505050565b60608201600082015161479d60008501826147d8565b5060208201516147b060208501826147d8565b5060408201516147c360408501826147d8565b50505050565b6147d281614c7f565b82525050565b6147e181614ca3565b82525050565b6147f081614ca3565b82525050565b6147ff81614cad565b82525050565b61480e81614cbd565b82525050565b61481d81614cbd565b82525050565b600061482e826144d0565b9150819050919050565b600061484382614510565b9150819050919050565b600061485882614550565b9150819050919050565b600061486d82614590565b9150819050919050565b6000614882826145d0565b9150819050919050565b600061489782614610565b9150819050919050565b60006040820190506148b660008301856142df565b6148c360208301846147e7565b9392505050565b60006040820190506148df60008301856142ee565b6148ec60208301846147e7565b9392505050565b6000602082019050614908600083018461430c565b92915050565b6000608082019050614923600083018761431b565b6149306020830186614814565b61493d6040830185614814565b61494a60608301846142fd565b95945050505050565b6000602082019050818103600083015261496c8161432a565b9050919050565b6000602082019050818103600083015261498c8161436a565b9050919050565b600060208201905081810360008301526149ac816143aa565b9050919050565b600060208201905081810360008301526149cc816143ea565b9050919050565b600060208201905081810360008301526149ec81614450565b9050919050565b60006020820190508181036000830152614a0c81614490565b9050919050565b60006020820190508181036000830152614a2c81614650565b9050919050565b60006020820190508181036000830152614a4c81614690565b9050919050565b6000606082019050614a686000830184614787565b92915050565b6000604082019050614a8360008301856147c9565b614a906020830184614814565b9392505050565b6000602082019050614aac60008301846147e7565b92915050565b6000604082019050614ac760008301856147e7565b614ad460208301846142fd565b9392505050565b6000604082019050614af060008301856147e7565b614afd60208301846147e7565b9392505050565b6000606082019050614b1960008301866147e7565b614b2660208301856147e7565b614b3360408301846147e7565b949350505050565b6000602082019050614b506000830184614814565b92915050565b600061014082019050614b6c6000830185614814565b614b7960208301846146d0565b9392505050565b6000604051905081810181811067ffffffffffffffff82111715614ba757614ba6614d4f565b5b8060405250919050565b600067ffffffffffffffff821115614bcc57614bcb614d4f565b5b602082029050602081019050919050565b600082825260208201905092915050565b600081905092915050565b6000614c0482614c5f565b9050919050565b60008115159050919050565b6000614c2282614bf9565b9050919050565b6000614c3482614bf9565b9050919050565b6000614c4682614bf9565b9050919050565b6000614c5882614bf9565b9050919050565b600073ffffffffffffffffffffffffffffffffffffffff82169050919050565b600077ffffffffffffffffffffffffffffffffffffffffffffffff82169050919050565b6000819050919050565b600063ffffffff82169050919050565b600067ffffffffffffffff82169050919050565b6000614cdc82614d2b565b9050919050565b6000614cee82614cf5565b9050919050565b6000614d0082614c5f565b9050919050565b6000614d1282614d19565b9050919050565b6000614d2482614c5f565b9050919050565b6000614d3682614d3d565b9050919050565b6000614d4882614c5f565b9050919050565bfe5b614d5a81614c17565b8114614d6557600080fd5b50565b614d7181614c29565b8114614d7c57600080fd5b50565b614d8881614c3b565b8114614d9357600080fd5b50565b614d9f81614c4d565b8114614daa57600080fd5b50565b614db681614ca3565b8114614dc157600080fd5b50565b614dcd81614cad565b8114614dd857600080fd5b50565b614de481614cbd565b8114614def57600080fd5b5056fe53616665436173743a2076616c756520646f65736e27742066697420696e203139322062697473536166654d6174683a206d756c7469706c69636174696f6e206f766572666c6f772e476f7665726e65643a204e6f7420617661696c61626c6520647572696e672073687574646f776e2ea26469706673582212207b5504293f4005173a6daef38f1b05a77fd052667b01facc1c2f73f8229df0df64736f6c63430007040033",
  "linkReferences": {},
  "deployedLinkReferences": {}
}