{
  "_format": "hh-sol-artifact-1",
  "contractName": "Liquidations",
  "sourceName": "contracts/core/logic/Liquidations.sol",
  "abi": [
    {
      "anonymous": false,
      "inputs": [
        {
          "indexed": false,
          "internalType": "uint256",
          "name": "price",
          "type": "uint256"
        },
        {
          "indexed": false,
          "internalType": "uint256",
          "name": "positionDebt",
          "type": "uint256"
        },
        {
          "indexed": false,
          "internalType": "uint256",
          "name": "positionCollateral",
          "type": "uint256"
        }
      ],
      "name": "CoveredUnbackedDebt",
      "type": "event"
    },
    {
      "anonymous": false,
      "inputs": [
        {
          "indexed": true,
          "internalType": "address",
          "name": "governor",
          "type": "address"
        }
      ],
      "name": "Initialized",
      "type": "event"
    },
    {
      "anonymous": false,
      "inputs": [
        {
          "indexed": false,
          "internalType": "uint256",
          "name": "baseTokensToRepay",
          "type": "uint256"
        },
        {
          "indexed": false,
          "internalType": "uint256",
          "name": "collateralToReceive",
          "type": "uint256"
        }
      ],
      "name": "Liquidated",
      "type": "event"
    },
    {
      "anonymous": false,
      "inputs": [
        {
          "indexed": true,
          "internalType": "string",
          "name": "paramName",
          "type": "string"
        },
        {
          "indexed": false,
          "internalType": "uint256",
          "name": "value",
          "type": "uint256"
        }
      ],
      "name": "ParameterUpdated",
      "type": "event"
    },
    {
      "anonymous": false,
      "inputs": [
        {
          "indexed": true,
          "internalType": "string",
          "name": "paramName",
          "type": "string"
        },
        {
          "indexed": false,
          "internalType": "uint64",
          "name": "value",
          "type": "uint64"
        }
      ],
      "name": "ParameterUpdated64",
      "type": "event"
    },
    {
      "anonymous": false,
      "inputs": [],
      "name": "Stopped",
      "type": "event"
    },
    {
      "anonymous": false,
      "inputs": [
        {
          "indexed": true,
          "internalType": "uint64",
          "name": "positionID",
          "type": "uint64"
        },
        {
          "indexed": false,
          "internalType": "uint256",
          "name": "debtCount",
          "type": "uint256"
        },
        {
          "indexed": false,
          "internalType": "uint256",
          "name": "collateralCount",
          "type": "uint256"
        },
        {
          "indexed": false,
          "internalType": "uint256",
          "name": "price",
          "type": "uint256"
        }
      ],
      "name": "UndercollatPositionDiscovered",
      "type": "event"
    },
    {
      "inputs": [],
      "name": "deployer",
      "outputs": [
        {
          "internalType": "address",
          "name": "",
          "type": "address"
        }
      ],
      "stateMutability": "view",
      "type": "function"
    },
    {
      "inputs": [
        {
          "internalType": "enum IGovernor.Collateral",
          "name": "collateralType",
          "type": "uint8"
        },
        {
          "internalType": "uint64[]",
          "name": "positionIDs",
          "type": "uint64[]"
        }
      ],
      "name": "discoverUndercollateralizedPositions",
      "outputs": [],
      "stateMutability": "nonpayable",
      "type": "function"
    },
    {
      "inputs": [],
      "name": "discoveryIncentive",
      "outputs": [
        {
          "internalType": "uint256",
          "name": "",
          "type": "uint256"
        }
      ],
      "stateMutability": "view",
      "type": "function"
    },
    {
      "inputs": [
        {
          "internalType": "enum IGovernor.Collateral",
          "name": "collateralType",
          "type": "uint8"
        }
      ],
      "name": "ensureLiquidationIncentive",
      "outputs": [],
      "stateMutability": "nonpayable",
      "type": "function"
    },
    {
      "inputs": [],
      "name": "governor",
      "outputs": [
        {
          "internalType": "contract IGovernor",
          "name": "",
          "type": "address"
        }
      ],
      "stateMutability": "view",
      "type": "function"
    },
    {
      "inputs": [
        {
          "internalType": "contract IGovernor",
          "name": "_governor",
          "type": "address"
        }
      ],
      "name": "init",
      "outputs": [],
      "stateMutability": "nonpayable",
      "type": "function"
    },
    {
      "inputs": [
        {
          "internalType": "enum IGovernor.Collateral",
          "name": "collateralType",
          "type": "uint8"
        },
        {
          "internalType": "uint256",
          "name": "baseTokensToRepay",
          "type": "uint256"
        }
      ],
      "name": "liquidate",
      "outputs": [],
      "stateMutability": "nonpayable",
      "type": "function"
    },
    {
      "inputs": [],
      "name": "liquidationIncentive",
      "outputs": [
        {
          "internalType": "uint256",
          "name": "",
          "type": "uint256"
        }
      ],
      "stateMutability": "view",
      "type": "function"
    },
    {
      "inputs": [],
      "name": "maxPriceAge",
      "outputs": [
        {
          "internalType": "uint64",
          "name": "",
          "type": "uint64"
        }
      ],
      "stateMutability": "view",
      "type": "function"
    },
    {
      "inputs": [],
      "name": "maxRewardsRatio",
      "outputs": [
        {
          "internalType": "uint256",
          "name": "",
          "type": "uint256"
        }
      ],
      "stateMutability": "view",
      "type": "function"
    },
    {
      "inputs": [],
      "name": "maxTwapTime",
      "outputs": [
        {
          "internalType": "uint64",
          "name": "",
          "type": "uint64"
        }
      ],
      "stateMutability": "view",
      "type": "function"
    },
    {
      "inputs": [],
      "name": "minLiquidationIncentive",
      "outputs": [
        {
          "internalType": "uint256",
          "name": "",
          "type": "uint256"
        }
      ],
      "stateMutability": "view",
      "type": "function"
    },
    {
      "inputs": [
        {
          "internalType": "enum IGovernor.Collateral",
          "name": "",
          "type": "uint8"
        }
      ],
      "name": "rewardsLimit",
      "outputs": [
        {
          "internalType": "uint192",
          "name": "remaining",
          "type": "uint192"
        },
        {
          "internalType": "uint64",
          "name": "priceTime",
          "type": "uint64"
        }
      ],
      "stateMutability": "view",
      "type": "function"
    },
    {
      "inputs": [
        {
          "internalType": "uint256",
          "name": "incentive",
          "type": "uint256"
        }
      ],
      "name": "setDiscoveryIncentive",
      "outputs": [],
      "stateMutability": "nonpayable",
      "type": "function"
    },
    {
      "inputs": [
        {
          "internalType": "uint256",
          "name": "incentive",
          "type": "uint256"
        }
      ],
      "name": "setLiquidationIncentive",
      "outputs": [],
      "stateMutability": "nonpayable",
      "type": "function"
    },
    {
      "inputs": [
        {
          "internalType": "uint64",
          "name": "age",
          "type": "uint64"
        }
      ],
      "name": "setMaxPriceAge",
      "outputs": [],
      "stateMutability": "nonpayable",
      "type": "function"
    },
    {
      "inputs": [
        {
          "internalType": "uint256",
          "name": "ratio",
          "type": "uint256"
        }
      ],
      "name": "setMaxRewardsRatio",
      "outputs": [],
      "stateMutability": "nonpayable",
      "type": "function"
    },
    {
      "inputs": [
        {
          "internalType": "uint64",
          "name": "time",
          "type": "uint64"
        }
      ],
      "name": "setMaxTwapTime",
      "outputs": [],
      "stateMutability": "nonpayable",
      "type": "function"
    },
    {
      "inputs": [
        {
          "internalType": "uint256",
          "name": "incentive",
          "type": "uint256"
        }
      ],
      "name": "setMinLiquidationIncentive",
      "outputs": [],
      "stateMutability": "nonpayable",
      "type": "function"
    },
    {
      "inputs": [],
      "name": "stop",
      "outputs": [],
      "stateMutability": "nonpayable",
      "type": "function"
    },
    {
      "inputs": [],
      "name": "stopped",
      "outputs": [
        {
          "internalType": "bool",
          "name": "",
          "type": "bool"
        }
      ],
      "stateMutability": "view",
      "type": "function"
    },
    {
      "inputs": [
        {
          "internalType": "bytes4",
          "name": "action",
          "type": "bytes4"
        }
      ],
      "name": "validUpdate",
      "outputs": [
        {
          "internalType": "bool",
          "name": "",
          "type": "bool"
        }
      ],
      "stateMutability": "view",
      "type": "function"
    }
  ],
  "bytecode": "0x608060405266354a6ba7a1800060075566f8b0a10e470000600855670e16011f4f058000600955670e4b4b8af6a70000600a55611c20600c60006101000a81548167ffffffffffffffff021916908367ffffffffffffffff160217905550610e10600c60086101000a81548167ffffffffffffffff021916908367ffffffffffffffff16021790555034801561009457600080fd5b5033600160006101000a81548173ffffffffffffffffffffffffffffffffffffffff021916908373ffffffffffffffffffffffffffffffffffffffff160217905550600160068190555061518a806100ed6000396000f3fe608060405234801561001057600080fd5b50600436106101815760003560e01c80633840ffe3116100d85780639672ff281161008c578063b7bbba8511610066578063b7bbba85146103c1578063cd8e040e146103dd578063d5f39488146103f957610181565b80639672ff281461036b578063a5edd6ba14610389578063a8431081146103a557610181565b806375f12b21116100bd57806375f12b21146103115780638b421eba1461032f5780638c765e941461034d57610181565b80633840ffe3146102d95780636e4c6050146102f557610181565b80631584410a1161013a5780631f9672a5116101145780631f9672a51461028357806329b426aa1461029f578063338e4764146102bd57610181565b80631584410a1461021857806318ca75501461023657806319ab453c1461026757610181565b80630c340a241161016b5780630c340a24146101ae578063113cf1ab146101cc57806315082705146101fc57610181565b80627de4471461018657806307da68f5146101a4575b600080fd5b61018e610417565b60405161019b9190614cf2565b60405180910390f35b6101ac61041d565b005b6101b66104e8565b6040516101c39190614a80565b60405180910390f35b6101e660048036038101906101e19190614137565b61050c565b6040516101f39190614a65565b60405180910390f35b6102166004803603810190610211919061422d565b610574565b005b610220611243565b60405161022d9190614d6d565b60405180910390f35b610250600480360381019061024b9190614204565b61125d565b60405161025e929190614cc9565b60405180910390f35b610281600480360381019061027c9190614160565b6112b9565b005b61029d6004803603810190610298919061439b565b6116d2565b005b6102a76117fe565b6040516102b49190614d6d565b60405180910390f35b6102d760048036038101906102d29190614281565b611818565b005b6102f360048036038101906102ee9190614429565b611a37565b005b61030f600480360381019061030a9190614204565b611b6f565b005b610319612557565b6040516103269190614a65565b60405180910390f35b61033761256a565b6040516103449190614cf2565b60405180910390f35b610355612570565b6040516103629190614cf2565b60405180910390f35b610373612576565b6040516103809190614cf2565b60405180910390f35b6103a3600480360381019061039e919061439b565b61257c565b005b6103bf60048036038101906103ba919061439b565b6126b9565b005b6103db60048036038101906103d69190614429565b6127df565b005b6103f760048036038101906103f2919061439b565b612917565b005b610401612a43565b60405161040e9190614a21565b60405180910390f35b60095481565b60008054906101000a900473ffffffffffffffffffffffffffffffffffffffff1673ffffffffffffffffffffffffffffffffffffffff163373ffffffffffffffffffffffffffffffffffffffff16146104de576040517f08c379a00000000000000000000000000000000000000000000000000000000081526004018080602001828103825260198152602001807f476f7665726e65643a204e6f7420417574686f72697a65642e0000000000000081525060200191505060405180910390fd5b6104e6612a69565b565b60008054906101000a900473ffffffffffffffffffffffffffffffffffffffff1681565b600060056000837bffffffffffffffffffffffffffffffffffffffffffffffffffffffff19167bffffffffffffffffffffffffffffffffffffffffffffffffffffffff1916815260200190815260200160002060009054906101000a900460ff169050919050565b600460009054906101000a900473ffffffffffffffffffffffffffffffffffffffff1673ffffffffffffffffffffffffffffffffffffffff1663e97dcb626040518163ffffffff1660e01b8152600401600060405180830381600087803b1580156105de57600080fd5b505af11580156105f2573d6000803e3d6000fd5b505050506002600654141561066f576040517f08c379a000000000000000000000000000000000000000000000000000000000815260040180806020018281038252601d8152602001807f4c6f636b436f6e74726163743a207265656e7472616e742063616c6c2e00000081525060200191505060405180910390fd5b6002600681905550600060149054906101000a900460ff16156106fa576040517f08c379a000000000000000000000000000000000000000000000000000000000815260040180806020018281038252601e8152602001807f476f7665726e65643a20436f6e74726163742069732073746f707065642e000081525060200191505060405180910390fd5b60008054906101000a900473ffffffffffffffffffffffffffffffffffffffff1673ffffffffffffffffffffffffffffffffffffffff1663bf86d6906040518163ffffffff1660e01b815260040160206040518083038186803b15801561076057600080fd5b505afa158015610774573d6000803e3d6000fd5b505050506040513d602081101561078a57600080fd5b8101908080519060200190929190505050156107f1576040517f08c379a000000000000000000000000000000000000000000000000000000000815260040180806020018281038252602881526020018061512d6028913960400191505060405180910390fd5b60008060008054906101000a900473ffffffffffffffffffffffffffffffffffffffff1673ffffffffffffffffffffffffffffffffffffffff1663d3419bf36040518163ffffffff1660e01b815260040160206040518083038186803b15801561085a57600080fd5b505afa15801561086e573d6000803e3d6000fd5b505050506040513d601f19601f8201168201806040525081019061089291906141b2565b73ffffffffffffffffffffffffffffffffffffffff16633c4b9faf60008054906101000a900473ffffffffffffffffffffffffffffffffffffffff1673ffffffffffffffffffffffffffffffffffffffff166339539e21876040518263ffffffff1660e01b81526004016109069190614ae0565b60206040518083038186803b15801561091e57600080fd5b505afa158015610932573d6000803e3d6000fd5b505050506040513d601f19601f8201168201806040525081019061095691906141db565b600c60009054906101000a900467ffffffffffffffff16600c60089054906101000a900467ffffffffffffffff1660006040518563ffffffff1660e01b81526004016109a59493929190614a9b565b6040805180830381600087803b1580156109be57600080fd5b505af11580156109d2573d6000803e3d6000fd5b505050506040513d601f19601f820116820180604052508101906109f691906143ed565b915091506000821415610a3e576040517f08c379a0000000000000000000000000000000000000000000000000000000008152600401610a3590614c09565b60405180910390fd5b610a46613d20565b600b6000866001811115610a5657fe5b6001811115610a6157fe5b81526020019081526020016000206040518060400160405290816000820160009054906101000a900477ffffffffffffffffffffffffffffffffffffffffffffffff1677ffffffffffffffffffffffffffffffffffffffffffffffff1677ffffffffffffffffffffffffffffffffffffffffffffffff1681526020016000820160189054906101000a900467ffffffffffffffff1667ffffffffffffffff1667ffffffffffffffff168152505090508167ffffffffffffffff16816020015167ffffffffffffffff1614610ca5578167ffffffffffffffff16816020015167ffffffffffffffff1610610b89576040517f08c379a0000000000000000000000000000000000000000000000000000000008152600401610b8090614bc9565b60405180910390fd5b610c45610c40600754600260009054906101000a900473ffffffffffffffffffffffffffffffffffffffff1673ffffffffffffffffffffffffffffffffffffffff16630dca59c16040518163ffffffff1660e01b815260040160206040518083038186803b158015610bfa57600080fd5b505afa158015610c0e573d6000803e3d6000fd5b505050506040513d601f19601f82011682018060405250810190610c3291906143c4565b612ab290919063ffffffff16565b612b51565b816000019077ffffffffffffffffffffffffffffffffffffffffffffffff16908177ffffffffffffffffffffffffffffffffffffffffffffffff168152505081816020019067ffffffffffffffff16908167ffffffffffffffff16815250505b6000816000015177ffffffffffffffffffffffffffffffffffffffffffffffff161415610d07576040517f08c379a0000000000000000000000000000000000000000000000000000000008152600401610cfe90614ca9565b60405180910390fd5b60008060009054906101000a900473ffffffffffffffffffffffffffffffffffffffff1673ffffffffffffffffffffffffffffffffffffffff166380f556056040518163ffffffff1660e01b815260040160206040518083038186803b158015610d7057600080fd5b505afa158015610d84573d6000803e3d6000fd5b505050506040513d601f19601f82011682018060405250810190610da89190614189565b90508073ffffffffffffffffffffffffffffffffffffffff16637f08a55a6040518163ffffffff1660e01b8152600401600060405180830381600087803b158015610df257600080fd5b505af1158015610e06573d6000803e3d6000fd5b50505050610e12613d5e565b610f8f6040518060800160405280600260009054906101000a900473ffffffffffffffffffffffffffffffffffffffff1673ffffffffffffffffffffffffffffffffffffffff16636d0f69178b6040518263ffffffff1660e01b8152600401610e7b9190614ae0565b60606040518083038186803b158015610e9357600080fd5b505afa158015610ea7573d6000803e3d6000fd5b505050506040513d601f19601f82011682018060405250810190610ecb9190614336565b815260200160008152602001856000015177ffffffffffffffffffffffffffffffffffffffffffffffff1681526020018473ffffffffffffffffffffffffffffffffffffffff166332dfe5988b6040518263ffffffff1660e01b8152600401610f349190614ae0565b60206040518083038186803b158015610f4c57600080fd5b505afa158015610f60573d6000803e3d6000fd5b505050506040513d601f19601f82011682018060405250810190610f8491906143c4565b815250888888612bcc565b9050610f9e8160400151612b51565b836000019077ffffffffffffffffffffffffffffffffffffffffffffffff16908177ffffffffffffffffffffffffffffffffffffffffffffffff168152505082600b6000896001811115610fee57fe5b6001811115610ff957fe5b815260200190815260200160002060008201518160000160006101000a81548177ffffffffffffffffffffffffffffffffffffffffffffffff021916908377ffffffffffffffffffffffffffffffffffffffffffffffff16021790555060208201518160000160186101000a81548167ffffffffffffffff021916908367ffffffffffffffff160217905550905050600260009054906101000a900473ffffffffffffffffffffffffffffffffffffffff1673ffffffffffffffffffffffffffffffffffffffff16638cf99f988883600001516040518363ffffffff1660e01b81526004016110e9929190614b69565b600060405180830381600087803b15801561110357600080fd5b505af1158015611117573d6000803e3d6000fd5b50505050600260009054906101000a900473ffffffffffffffffffffffffffffffffffffffff1673ffffffffffffffffffffffffffffffffffffffff1663f13c16b0883384602001516040518463ffffffff1660e01b815260040161117e93929190614afb565b600060405180830381600087803b15801561119857600080fd5b505af11580156111ac573d6000803e3d6000fd5b5050505050505050506001600681905550600460009054906101000a900473ffffffffffffffffffffffffffffffffffffffff1673ffffffffffffffffffffffffffffffffffffffff1663e9fad8ee6040518163ffffffff1660e01b8152600401600060405180830381600087803b15801561122757600080fd5b505af115801561123b573d6000803e3d6000fd5b505050505050565b600c60089054906101000a900467ffffffffffffffff1681565b600b6020528060005260406000206000915090508060000160009054906101000a900477ffffffffffffffffffffffffffffffffffffffffffffffff16908060000160189054906101000a900467ffffffffffffffff16905082565b600160009054906101000a900473ffffffffffffffffffffffffffffffffffffffff1673ffffffffffffffffffffffffffffffffffffffff163373ffffffffffffffffffffffffffffffffffffffff161461137c576040517f08c379a000000000000000000000000000000000000000000000000000000000815260040180806020018281038252601e8152602001807f476f7665726e65643a20496e6974206e6f7420617574686f72697a65642e000081525060200191505060405180910390fd5b600160006101000a81549073ffffffffffffffffffffffffffffffffffffffff0219169055806000806101000a81548173ffffffffffffffffffffffffffffffffffffffff021916908373ffffffffffffffffffffffffffffffffffffffff16021790555060008054906101000a900473ffffffffffffffffffffffffffffffffffffffff1673ffffffffffffffffffffffffffffffffffffffff16639624e83e6040518163ffffffff1660e01b815260040160206040518083038186803b15801561144757600080fd5b505afa15801561145b573d6000803e3d6000fd5b505050506040513d602081101561147157600080fd5b8101908080519060200190929190505050600260006101000a81548173ffffffffffffffffffffffffffffffffffffffff021916908373ffffffffffffffffffffffffffffffffffffffff16021790555060008054906101000a900473ffffffffffffffffffffffffffffffffffffffff1673ffffffffffffffffffffffffffffffffffffffff166311df99956040518163ffffffff1660e01b815260040160206040518083038186803b15801561152857600080fd5b505afa15801561153c573d6000803e3d6000fd5b505050506040513d602081101561155257600080fd5b8101908080519060200190929190505050600360006101000a81548173ffffffffffffffffffffffffffffffffffffffff021916908373ffffffffffffffffffffffffffffffffffffffff16021790555060008054906101000a900473ffffffffffffffffffffffffffffffffffffffff1673ffffffffffffffffffffffffffffffffffffffff1663d478b0876040518163ffffffff1660e01b815260040160206040518083038186803b15801561160957600080fd5b505afa15801561161d573d6000803e3d6000fd5b505050506040513d602081101561163357600080fd5b8101908080519060200190929190505050600460006101000a81548173ffffffffffffffffffffffffffffffffffffffff021916908373ffffffffffffffffffffffffffffffffffffffff16021790555061168c613032565b8073ffffffffffffffffffffffffffffffffffffffff167f908408e307fc569b417f6cbec5d5a06f44a0a505ac0479b47d421a4b2fd6a1e660405160405180910390a250565b60008054906101000a900473ffffffffffffffffffffffffffffffffffffffff1673ffffffffffffffffffffffffffffffffffffffff163373ffffffffffffffffffffffffffffffffffffffff1614611793576040517f08c379a00000000000000000000000000000000000000000000000000000000081526004018080602001828103825260198152602001807f476f7665726e65643a204e6f7420417574686f72697a65642e0000000000000081525060200191505060405180910390fd5b80600781905550670de0b6b3a7640000600754106117b057600080fd5b6040516117bc906149e2565b60405180910390207f3a64504f0bc0c335e2aecb78638a257e0351a3fe0370861fd54ee4190b920933826040516117f39190614cf2565b60405180910390a250565b600c60009054906101000a900467ffffffffffffffff1681565b600460009054906101000a900473ffffffffffffffffffffffffffffffffffffffff1673ffffffffffffffffffffffffffffffffffffffff1663e97dcb626040518163ffffffff1660e01b8152600401600060405180830381600087803b15801561188257600080fd5b505af1158015611896573d6000803e3d6000fd5b5050505060026006541415611913576040517f08c379a000000000000000000000000000000000000000000000000000000000815260040180806020018281038252601d8152602001807f4c6f636b436f6e74726163743a207265656e7472616e742063616c6c2e00000081525060200191505060405180910390fd5b6002600681905550600060149054906101000a900460ff161561199e576040517f08c379a000000000000000000000000000000000000000000000000000000000815260040180806020018281038252601e8152602001807f476f7665726e65643a20436f6e74726163742069732073746f707065642e000081525060200191505060405180910390fd5b6119a982338361329e565b6001600681905550600460009054906101000a900473ffffffffffffffffffffffffffffffffffffffff1673ffffffffffffffffffffffffffffffffffffffff1663e9fad8ee6040518163ffffffff1660e01b8152600401600060405180830381600087803b158015611a1b57600080fd5b505af1158015611a2f573d6000803e3d6000fd5b505050505050565b60008054906101000a900473ffffffffffffffffffffffffffffffffffffffff1673ffffffffffffffffffffffffffffffffffffffff163373ffffffffffffffffffffffffffffffffffffffff1614611af8576040517f08c379a00000000000000000000000000000000000000000000000000000000081526004018080602001828103825260198152602001807f476f7665726e65643a204e6f7420417574686f72697a65642e0000000000000081525060200191505060405180910390fd5b80600c60006101000a81548167ffffffffffffffff021916908367ffffffffffffffff160217905550604051611b2d906149b8565b60405180910390207f6293347933ad2997134e224ac8cd2e39908a4a22aeed9af52127b4bbf765297882604051611b649190614d6d565b60405180910390a250565b600460009054906101000a900473ffffffffffffffffffffffffffffffffffffffff1673ffffffffffffffffffffffffffffffffffffffff1663e97dcb626040518163ffffffff1660e01b8152600401600060405180830381600087803b158015611bd957600080fd5b505af1158015611bed573d6000803e3d6000fd5b5050505060026006541415611c6a576040517f08c379a000000000000000000000000000000000000000000000000000000000815260040180806020018281038252601d8152602001807f4c6f636b436f6e74726163743a207265656e7472616e742063616c6c2e00000081525060200191505060405180910390fd5b6002600681905550600060149054906101000a900460ff1615611cf5576040517f08c379a000000000000000000000000000000000000000000000000000000000815260040180806020018281038252601e8152602001807f476f7665726e65643a20436f6e74726163742069732073746f707065642e000081525060200191505060405180910390fd5b60008060009054906101000a900473ffffffffffffffffffffffffffffffffffffffff1673ffffffffffffffffffffffffffffffffffffffff1663d3419bf36040518163ffffffff1660e01b815260040160206040518083038186803b158015611d5e57600080fd5b505afa158015611d72573d6000803e3d6000fd5b505050506040513d601f19601f82011682018060405250810190611d9691906141b2565b73ffffffffffffffffffffffffffffffffffffffff16633c4b9faf60008054906101000a900473ffffffffffffffffffffffffffffffffffffffff1673ffffffffffffffffffffffffffffffffffffffff166339539e21856040518263ffffffff1660e01b8152600401611e0a9190614ae0565b60206040518083038186803b158015611e2257600080fd5b505afa158015611e36573d6000803e3d6000fd5b505050506040513d601f19601f82011682018060405250810190611e5a91906141db565b600c60009054906101000a900467ffffffffffffffff16600c60089054906101000a900467ffffffffffffffff1660006040518563ffffffff1660e01b8152600401611ea99493929190614a9b565b6040805180830381600087803b158015611ec257600080fd5b505af1158015611ed6573d6000803e3d6000fd5b505050506040513d601f19601f82011682018060405250810190611efa91906143ed565b5090506000811415611f41576040517f08c379a0000000000000000000000000000000000000000000000000000000008152600401611f3890614c09565b60405180910390fd5b60008054906101000a900473ffffffffffffffffffffffffffffffffffffffff1673ffffffffffffffffffffffffffffffffffffffff166380f556056040518163ffffffff1660e01b815260040160206040518083038186803b158015611fa757600080fd5b505afa158015611fbb573d6000803e3d6000fd5b505050506040513d601f19601f82011682018060405250810190611fdf9190614189565b73ffffffffffffffffffffffffffffffffffffffff16637f08a55a6040518163ffffffff1660e01b8152600401600060405180830381600087803b15801561202657600080fd5b505af115801561203a573d6000803e3d6000fd5b50505050612046613d8c565b600260009054906101000a900473ffffffffffffffffffffffffffffffffffffffff1673ffffffffffffffffffffffffffffffffffffffff16636d0f6917846040518263ffffffff1660e01b81526004016120a19190614ae0565b60606040518083038186803b1580156120b957600080fd5b505afa1580156120cd573d6000803e3d6000fd5b505050506040513d601f19601f820116820180604052508101906120f19190614336565b905060008160200151141561213b576040517f08c379a000000000000000000000000000000000000000000000000000000000815260040161213290614c29565b60405180910390fd5b600081604001511415612183576040517f08c379a000000000000000000000000000000000000000000000000000000000815260040161217a90614c49565b60405180910390fd5b60006121a083600954846040015161386e9092919063ffffffff16565b9050808260200151116121e8576040517f08c379a00000000000000000000000000000000000000000000000000000000081526004016121df90614be9565b60405180910390fd5b60006122a282846020015103600360009054906101000a900473ffffffffffffffffffffffffffffffffffffffff1673ffffffffffffffffffffffffffffffffffffffff166375172a8b6040518163ffffffff1660e01b815260040160206040518083038186803b15801561225c57600080fd5b505afa158015612270573d6000803e3d6000fd5b505050506040513d601f19601f8201168201806040525081019061229491906143c4565b61397d90919063ffffffff16565b905080836020018181510391508181525050600260009054906101000a900473ffffffffffffffffffffffffffffffffffffffff1673ffffffffffffffffffffffffffffffffffffffff16638cf99f9886856040518363ffffffff1660e01b8152600401612311929190614b69565b600060405180830381600087803b15801561232b57600080fd5b505af115801561233f573d6000803e3d6000fd5b50505050600260009054906101000a900473ffffffffffffffffffffffffffffffffffffffff1673ffffffffffffffffffffffffffffffffffffffff16634b6f3198868360006040518463ffffffff1660e01b81526004016123a393929190614b92565b6040805180830381600087803b1580156123bc57600080fd5b505af11580156123d0573d6000803e3d6000fd5b505050506040513d601f19601f820116820180604052508101906123f4919061435f565b5050600360009054906101000a900473ffffffffffffffffffffffffffffffffffffffff1673ffffffffffffffffffffffffffffffffffffffff1663c59fb1ab826040518263ffffffff1660e01b81526004016124519190614cf2565b600060405180830381600087803b15801561246b57600080fd5b505af115801561247f573d6000803e3d6000fd5b505050507f1be7bee8f23970bcdf70ec93cfa48d0dafecb7d07e578d23cb1b43e356709d3f84846020015185604001516040516124be93929190614d36565b60405180910390a1505050506001600681905550600460009054906101000a900473ffffffffffffffffffffffffffffffffffffffff1673ffffffffffffffffffffffffffffffffffffffff1663e9fad8ee6040518163ffffffff1660e01b8152600401600060405180830381600087803b15801561253c57600080fd5b505af1158015612550573d6000803e3d6000fd5b5050505050565b600060149054906101000a900460ff1681565b60075481565b600a5481565b60085481565b60008054906101000a900473ffffffffffffffffffffffffffffffffffffffff1673ffffffffffffffffffffffffffffffffffffffff163373ffffffffffffffffffffffffffffffffffffffff161461263d576040517f08c379a00000000000000000000000000000000000000000000000000000000081526004018080602001828103825260198152602001807f476f7665726e65643a204e6f7420417574686f72697a65642e0000000000000081525060200191505060405180910390fd5b80600981905550600954670de0b6b3a7640000111561265b57600080fd5b600a546009541061266b57600080fd5b60405161267790614a0c565b60405180910390207f3a64504f0bc0c335e2aecb78638a257e0351a3fe0370861fd54ee4190b920933826040516126ae9190614cf2565b60405180910390a250565b60008054906101000a900473ffffffffffffffffffffffffffffffffffffffff1673ffffffffffffffffffffffffffffffffffffffff163373ffffffffffffffffffffffffffffffffffffffff161461277a576040517f08c379a00000000000000000000000000000000000000000000000000000000081526004018080602001828103825260198152602001807f476f7665726e65643a204e6f7420417574686f72697a65642e0000000000000081525060200191505060405180910390fd5b80600a81905550600a546009541061279157600080fd5b60405161279d906149a3565b60405180910390207f3a64504f0bc0c335e2aecb78638a257e0351a3fe0370861fd54ee4190b920933826040516127d49190614cf2565b60405180910390a250565b60008054906101000a900473ffffffffffffffffffffffffffffffffffffffff1673ffffffffffffffffffffffffffffffffffffffff163373ffffffffffffffffffffffffffffffffffffffff16146128a0576040517f08c379a00000000000000000000000000000000000000000000000000000000081526004018080602001828103825260198152602001807f476f7665726e65643a204e6f7420417574686f72697a65642e0000000000000081525060200191505060405180910390fd5b80600c60086101000a81548167ffffffffffffffff021916908367ffffffffffffffff1602179055506040516128d5906149cd565b60405180910390207f6293347933ad2997134e224ac8cd2e39908a4a22aeed9af52127b4bbf76529788260405161290c9190614d6d565b60405180910390a250565b60008054906101000a900473ffffffffffffffffffffffffffffffffffffffff1673ffffffffffffffffffffffffffffffffffffffff163373ffffffffffffffffffffffffffffffffffffffff16146129d8576040517f08c379a00000000000000000000000000000000000000000000000000000000081526004018080602001828103825260198152602001807f476f7665726e65643a204e6f7420417574686f72697a65642e0000000000000081525060200191505060405180910390fd5b80600881905550670de0b6b3a7640000600854106129f557600080fd5b604051612a01906149f7565b60405180910390207f3a64504f0bc0c335e2aecb78638a257e0351a3fe0370861fd54ee4190b92093382604051612a389190614cf2565b60405180910390a250565b600160009054906101000a900473ffffffffffffffffffffffffffffffffffffffff1681565b6001600060146101000a81548160ff0219169083151502179055507f7acc84e34091ae817647a4c49116f5cc07f319078ba80f8f5fde37ea7e25cbd660405160405180910390a1565b600080831480612ac25750600082145b15612ad05760009050612b4b565b818302905081838281612adf57fe5b0414612b36576040517f08c379a000000000000000000000000000000000000000000000000000000000815260040180806020018281038252602281526020018061510b6022913960400191505060405180910390fd5b670de0b6b3a76400008181612b4757fe5b0490505b92915050565b600078010000000000000000000000000000000000000000000000008210612bc4576040517f08c379a00000000000000000000000000000000000000000000000000000000081526004018080602001828103825260278152602001806150e46027913960400191505060405180910390fd5b819050919050565b612bd4613d5e565b84905060008351905060008060009054906101000a900473ffffffffffffffffffffffffffffffffffffffff1673ffffffffffffffffffffffffffffffffffffffff166380f556056040518163ffffffff1660e01b815260040160206040518083038186803b158015612c4657600080fd5b505afa158015612c5a573d6000803e3d6000fd5b505050506040513d601f19601f82011682018060405250810190612c7e9190614189565b905060008060008060005b8681101561302357600088604001511415612ca357613023565b898181518110612caf57fe5b60200260200101519150600260009054906101000a900473ffffffffffffffffffffffffffffffffffffffff1673ffffffffffffffffffffffffffffffffffffffff16636594da9f836040518263ffffffff1660e01b8152600401612d149190614d6d565b60606040518083038186803b158015612d2c57600080fd5b505afa158015612d40573d6000803e3d6000fd5b505050506040513d601f19601f82011682018060405250810190612d6491906142bd565b8095508196508297505050506000841415612d7e57613016565b8a6001811115612d8a57fe5b856001811115612d9657fe5b14612da057613016565b8760600151612dba84868c61386e9092919063ffffffff16565b10612dc457613016565b612dcc613dad565b8673ffffffffffffffffffffffffffffffffffffffff1663eb6843ce846040518263ffffffff1660e01b8152600401612e059190614d6d565b61014060405180830381600087803b158015612e2057600080fd5b505af1158015612e34573d6000803e3d6000fd5b505050506040513d601f19601f82011682018060405250810190612e58919061430c565b9050600080612e7b836040015184602001518e8e60400151600a54600854613996565b8d60400181815250819350829450505050612eab83604001518c6000015160200151613a7b90919063ffffffff16565b8b6000015160200181815250506000836040018181525050612ede818c6000015160400151613a7b90919063ffffffff16565b8b600001516040018181525050612f14612f018383613a7b90919063ffffffff16565b8460200151613b0390919063ffffffff16565b836020018181525050612f34828c60200151613a7b90919063ffffffff16565b8b6020018181525050600260009054906101000a900473ffffffffffffffffffffffffffffffffffffffff1673ffffffffffffffffffffffffffffffffffffffff1663a075bd0186856040518363ffffffff1660e01b8152600401612f9a929190614d88565b600060405180830381600087803b158015612fb457600080fd5b505af1158015612fc8573d6000803e3d6000fd5b505050508467ffffffffffffffff167feedd1116ee4b172f8bd428c71ffa4da20e0bffc9e5b05e78bbacd0b4337c71bf88888f60405161300a93929190614d36565b60405180910390a25050505b8080600101915050612c89565b50505050505050949350505050565b61303a613e2f565b6040518060c00160405280631f9672a560e01b7bffffffffffffffffffffffffffffffffffffffffffffffffffffffff19167bffffffffffffffffffffffffffffffffffffffffffffffffffffffff1916815260200163cd8e040e60e01b7bffffffffffffffffffffffffffffffffffffffffffffffffffffffff19167bffffffffffffffffffffffffffffffffffffffffffffffffffffffff1916815260200163a5edd6ba60e01b7bffffffffffffffffffffffffffffffffffffffffffffffffffffffff19167bffffffffffffffffffffffffffffffffffffffffffffffffffffffff1916815260200163a843108160e01b7bffffffffffffffffffffffffffffffffffffffffffffffffffffffff19167bffffffffffffffffffffffffffffffffffffffffffffffffffffffff19168152602001633840ffe360e01b7bffffffffffffffffffffffffffffffffffffffffffffffffffffffff19167bffffffffffffffffffffffffffffffffffffffffffffffffffffffff1916815260200163b7bbba8560e01b7bffffffffffffffffffffffffffffffffffffffffffffffffffffffff19167bffffffffffffffffffffffffffffffffffffffffffffffffffffffff1916815250905060005b600681101561329a5760016005600084846006811061322557fe5b60200201517bffffffffffffffffffffffffffffffffffffffffffffffffffffffff19167bffffffffffffffffffffffffffffffffffffffffffffffffffffffff1916815260200190815260200160002060006101000a81548160ff021916908315150217905550808060010191505061320a565b5050565b60008114156132e2576040517f08c379a00000000000000000000000000000000000000000000000000000000081526004016132d990614c89565b60405180910390fd5b60008054906101000a900473ffffffffffffffffffffffffffffffffffffffff1673ffffffffffffffffffffffffffffffffffffffff166380f556056040518163ffffffff1660e01b815260040160206040518083038186803b15801561334857600080fd5b505afa15801561335c573d6000803e3d6000fd5b505050506040513d601f19601f820116820180604052508101906133809190614189565b73ffffffffffffffffffffffffffffffffffffffff16637f08a55a6040518163ffffffff1660e01b8152600401600060405180830381600087803b1580156133c757600080fd5b505af11580156133db573d6000803e3d6000fd5b505050506133e7613d8c565b600260009054906101000a900473ffffffffffffffffffffffffffffffffffffffff1673ffffffffffffffffffffffffffffffffffffffff16636d0f6917856040518263ffffffff1660e01b81526004016134429190614ae0565b60606040518083038186803b15801561345a57600080fd5b505afa15801561346e573d6000803e3d6000fd5b505050506040513d601f19601f820116820180604052508101906134929190614336565b90506000816020015114156134dc576040517f08c379a00000000000000000000000000000000000000000000000000000000081526004016134d390614c29565b60405180910390fd5b600081604001511415613524576040517f08c379a000000000000000000000000000000000000000000000000000000000815260040161351b90614c49565b60405180910390fd5b806020015182111561356b576040517f08c379a000000000000000000000000000000000000000000000000000000000815260040161356290614c69565b60405180910390fd5b600061358a826040015183602001518561386e9092919063ffffffff16565b90506135a3818360400151613b0390919063ffffffff16565b8260400181815250506135c3838360200151613b0390919063ffffffff16565b826020018181525050600260009054906101000a900473ffffffffffffffffffffffffffffffffffffffff1673ffffffffffffffffffffffffffffffffffffffff16638cf99f9886846040518363ffffffff1660e01b8152600401613629929190614b69565b600060405180830381600087803b15801561364357600080fd5b505af1158015613657573d6000803e3d6000fd5b50505050600260009054906101000a900473ffffffffffffffffffffffffffffffffffffffff1673ffffffffffffffffffffffffffffffffffffffff16634b6f3198868560006040518463ffffffff1660e01b81526004016136bb93929190614b92565b6040805180830381600087803b1580156136d457600080fd5b505af11580156136e8573d6000803e3d6000fd5b505050506040513d601f19601f8201168201806040525081019061370c919061435f565b5050600360009054906101000a900473ffffffffffffffffffffffffffffffffffffffff1673ffffffffffffffffffffffffffffffffffffffff166379cc679085856040518363ffffffff1660e01b815260040161376b929190614a3c565b600060405180830381600087803b15801561378557600080fd5b505af1158015613799573d6000803e3d6000fd5b50505050600260009054906101000a900473ffffffffffffffffffffffffffffffffffffffff1673ffffffffffffffffffffffffffffffffffffffff1663f13c16b08686846040518463ffffffff1660e01b81526004016137fc93929190614b32565b600060405180830381600087803b15801561381657600080fd5b505af115801561382a573d6000803e3d6000fd5b505050507fa7c1efbe8c264edbfd86d7edf1a6b82896995680f966de445fc3b6e0531bf41a838260405161385f929190614d0d565b60405180910390a15050505050565b60008084148061387e5750600083145b1561388c5760009050613976565b6000821415613903576040517f08c379a000000000000000000000000000000000000000000000000000000000815260040180806020018281038252601b8152602001807f536166654d6174683a206469766973696f6e206279207a65726f2e000000000081525060200191505060405180910390fd5b82840290508284828161391257fe5b0414613969576040517f08c379a000000000000000000000000000000000000000000000000000000000815260040180806020018281038252602281526020018061510b6022913960400191505060405180910390fd5b81818161397257fe5b0490505b9392505050565b600081831061398c578161398e565b825b905092915050565b6000806000806139af858b612ab290919063ffffffff16565b90506139d6896139c88a84613b4d90919063ffffffff16565b61397d90919063ffffffff16565b9350613a11848a03613a03886139f58c8f613b4d90919063ffffffff16565b612ab290919063ffffffff16565b61397d90919063ffffffff16565b92506000613a288985612ab290919063ffffffff16565b90506000818c11613a3b578b8203613a3e565b60005b90506000613a558285613a7b90919063ffffffff16565b9050898111613a6657808a03613a69565b60005b94505050505096509650969350505050565b600080828401905083811015613af9576040517f08c379a000000000000000000000000000000000000000000000000000000000815260040180806020018281038252601b8152602001807f536166654d6174683a206164646974696f6e206f766572666c6f77000000000081525060200191505060405180910390fd5b8091505092915050565b6000613b4583836040518060400160405280601e81526020017f536166654d6174683a207375627472616374696f6e206f766572666c6f770000815250613c60565b905092915050565b600080831415613b605760009050613c5a565b6000821415613bd7576040517f08c379a000000000000000000000000000000000000000000000000000000000815260040180806020018281038252601b8152602001807f536166654d6174683a206469766973696f6e206279207a65726f2e000000000081525060200191505060405180910390fd5b670de0b6b3a764000083029050670de0b6b3a7640000838281613bf657fe5b0414613c4d576040517f08c379a000000000000000000000000000000000000000000000000000000000815260040180806020018281038252602281526020018061510b6022913960400191505060405180910390fd5b818181613c5657fe5b0490505b92915050565b6000838311158290613d0d576040517f08c379a00000000000000000000000000000000000000000000000000000000081526004018080602001828103825283818151815260200191508051906020019080838360005b83811015613cd2578082015181840152602081019050613cb7565b50505050905090810190601f168015613cff5780820380516001836020036101000a031916815260200191505b509250505060405180910390fd5b5060008385039050809150509392505050565b6040518060400160405280600077ffffffffffffffffffffffffffffffffffffffffffffffff168152602001600067ffffffffffffffff1681525090565b6040518060800160405280613d71613d8c565b81526020016000815260200160008152602001600081525090565b60405180606001604052806000815260200160008152602001600081525090565b6040518061014001604052806000815260200160008152602001600081526020016000815260200160008152602001600067ffffffffffffffff168152602001600067ffffffffffffffff168152602001600067ffffffffffffffff168152602001600063ffffffff16815260200160006001811115613e2957fe5b81525090565b6040518060c00160405280600690602082028036833780820191505090505090565b600082601f830112613e6257600080fd5b8135613e75613e7082614de3565b614db2565b91508181835260208401935060208101905083856020840282011115613e9a57600080fd5b60005b83811015613eca5781613eb0888261410d565b845260208401935060208301925050600181019050613e9d565b5050505092915050565b600081359050613ee381615004565b92915050565b600081359050613ef88161501b565b92915050565b600081519050613f0d81615032565b92915050565b600081519050613f2281615049565b92915050565b600081519050613f3781615060565b92915050565b600081359050613f4c81615077565b92915050565b600081519050613f6181615077565b92915050565b60006101408284031215613f7a57600080fd5b613f85610140614db2565b90506000613f95848285016140e3565b6000830152506020613fa9848285016140e3565b6020830152506040613fbd848285016140e3565b6040830152506060613fd1848285016140e3565b6060830152506080613fe5848285016140e3565b60808301525060a0613ff984828501614122565b60a08301525060c061400d84828501614122565b60c08301525060e061402184828501614122565b60e083015250610100614036848285016140f8565b6101008301525061012061404c84828501613f52565b6101208301525092915050565b60006060828403121561406b57600080fd5b6140756060614db2565b90506000614085848285016140e3565b6000830152506020614099848285016140e3565b60208301525060406140ad848285016140e3565b60408301525092915050565b6000815190506140c881615087565b92915050565b6000813590506140dd8161509e565b92915050565b6000815190506140f28161509e565b92915050565b600081519050614107816150b5565b92915050565b60008135905061411c816150cc565b92915050565b600081519050614131816150cc565b92915050565b60006020828403121561414957600080fd5b600061415784828501613ed4565b91505092915050565b60006020828403121561417257600080fd5b600061418084828501613ee9565b91505092915050565b60006020828403121561419b57600080fd5b60006141a984828501613efe565b91505092915050565b6000602082840312156141c457600080fd5b60006141d284828501613f13565b91505092915050565b6000602082840312156141ed57600080fd5b60006141fb84828501613f28565b91505092915050565b60006020828403121561421657600080fd5b600061422484828501613f3d565b91505092915050565b6000806040838503121561424057600080fd5b600061424e85828601613f3d565b925050602083013567ffffffffffffffff81111561426b57600080fd5b61427785828601613e51565b9150509250929050565b6000806040838503121561429457600080fd5b60006142a285828601613f3d565b92505060206142b3858286016140ce565b9150509250929050565b6000806000606084860312156142d257600080fd5b60006142e086828701613f52565b93505060206142f1868287016140e3565b9250506040614302868287016140e3565b9150509250925092565b6000610140828403121561431f57600080fd5b600061432d84828501613f67565b91505092915050565b60006060828403121561434857600080fd5b600061435684828501614059565b91505092915050565b6000806040838503121561437257600080fd5b6000614380858286016140b9565b9250506020614391858286016140b9565b9150509250929050565b6000602082840312156143ad57600080fd5b60006143bb848285016140ce565b91505092915050565b6000602082840312156143d657600080fd5b60006143e4848285016140e3565b91505092915050565b6000806040838503121561440057600080fd5b600061440e858286016140e3565b925050602061441f85828601614122565b9150509250929050565b60006020828403121561443b57600080fd5b60006144498482850161410d565b91505092915050565b61445b81614f5e565b82525050565b61446a81614e2b565b82525050565b61447981614e3d565b82525050565b61448881614f70565b82525050565b61449781614f94565b82525050565b6144a681614fb8565b82525050565b6144b581614fb8565b82525050565b60006144c8600b83614e0f565b91507f54696d65206572726f722e0000000000000000000000000000000000000000006000830152602082019050919050565b6000614508601583614e0f565b91507f44656274206973206e6f7420756e6261636b65642e00000000000000000000006000830152602082019050919050565b6000614548601383614e0f565b91507f4e6f20707269636520617661696c61626c652e000000000000000000000000006000830152602082019050919050565b6000614588600883614e0f565b91507f4e6f20646562742e0000000000000000000000000000000000000000000000006000830152602082019050919050565b60006145c8600e83614e0f565b91507f4e6f20636f6c6c61746572616c2e0000000000000000000000000000000000006000830152602082019050919050565b6000614608601483614e20565b91507f6c69717569646174696f6e496e63656e746976650000000000000000000000006000830152601482019050919050565b6000614648600b83614e20565b91507f6d61785477617054696d650000000000000000000000000000000000000000006000830152600b82019050919050565b6000614688600b83614e20565b91507f6d617850726963654167650000000000000000000000000000000000000000006000830152600b82019050919050565b60006146c8600f83614e20565b91507f6d617852657761726473526174696f00000000000000000000000000000000006000830152600f82019050919050565b6000614708601283614e20565b91507f646973636f76657279496e63656e7469766500000000000000000000000000006000830152601282019050919050565b6000614748601783614e20565b91507f6d696e4c69717569646174696f6e496e63656e746976650000000000000000006000830152601782019050919050565b6000614788601283614e0f565b91507f496e73756666696369656e7420646562742e00000000000000000000000000006000830152602082019050919050565b60006147c8600583614e0f565b91507f4e6f6f702e0000000000000000000000000000000000000000000000000000006000830152602082019050919050565b6000614808601583614e0f565b91507f4e6f20726577617264732072656d61696e696e672e00000000000000000000006000830152602082019050919050565b610140820160008201516148526000850182614958565b5060208201516148656020850182614958565b5060408201516148786040850182614958565b50606082015161488b6060850182614958565b50608082015161489e6080850182614958565b5060a08201516148b160a0850182614985565b5060c08201516148c460c0850182614985565b5060e08201516148d760e0850182614985565b506101008201516148ec610100850182614976565b5061012082015161490161012085018261449d565b50505050565b60608201600082015161491d6000850182614958565b5060208201516149306020850182614958565b5060408201516149436040850182614958565b50505050565b61495281614f0c565b82525050565b61496181614f30565b82525050565b61497081614f30565b82525050565b61497f81614f3a565b82525050565b61498e81614f4a565b82525050565b61499d81614f4a565b82525050565b60006149ae826145fb565b9150819050919050565b60006149c38261463b565b9150819050919050565b60006149d88261467b565b9150819050919050565b60006149ed826146bb565b9150819050919050565b6000614a02826146fb565b9150819050919050565b6000614a178261473b565b9150819050919050565b6000602082019050614a366000830184614461565b92915050565b6000604082019050614a516000830185614461565b614a5e6020830184614967565b9392505050565b6000602082019050614a7a6000830184614470565b92915050565b6000602082019050614a95600083018461447f565b92915050565b6000608082019050614ab0600083018761448e565b614abd6020830186614994565b614aca6040830185614994565b614ad76060830184614470565b95945050505050565b6000602082019050614af560008301846144ac565b92915050565b6000606082019050614b1060008301866144ac565b614b1d6020830185614452565b614b2a6040830184614967565b949350505050565b6000606082019050614b4760008301866144ac565b614b546020830185614461565b614b616040830184614967565b949350505050565b6000608082019050614b7e60008301856144ac565b614b8b6020830184614907565b9392505050565b6000606082019050614ba760008301866144ac565b614bb46020830185614967565b614bc16040830184614470565b949350505050565b60006020820190508181036000830152614be2816144bb565b9050919050565b60006020820190508181036000830152614c02816144fb565b9050919050565b60006020820190508181036000830152614c228161453b565b9050919050565b60006020820190508181036000830152614c428161457b565b9050919050565b60006020820190508181036000830152614c62816145bb565b9050919050565b60006020820190508181036000830152614c828161477b565b9050919050565b60006020820190508181036000830152614ca2816147bb565b9050919050565b60006020820190508181036000830152614cc2816147fb565b9050919050565b6000604082019050614cde6000830185614949565b614ceb6020830184614994565b9392505050565b6000602082019050614d076000830184614967565b92915050565b6000604082019050614d226000830185614967565b614d2f6020830184614967565b9392505050565b6000606082019050614d4b6000830186614967565b614d586020830185614967565b614d656040830184614967565b949350505050565b6000602082019050614d826000830184614994565b92915050565b600061016082019050614d9e6000830185614994565b614dab602083018461483b565b9392505050565b6000604051905081810181811067ffffffffffffffff82111715614dd957614dd8614fee565b5b8060405250919050565b600067ffffffffffffffff821115614dfe57614dfd614fee565b5b602082029050602081019050919050565b600082825260208201905092915050565b600081905092915050565b6000614e3682614eec565b9050919050565b60008115159050919050565b60007fffffffff0000000000000000000000000000000000000000000000000000000082169050919050565b6000614e8082614e2b565b9050919050565b6000614e9282614e2b565b9050919050565b6000614ea482614e2b565b9050919050565b6000614eb682614e2b565b9050919050565b6000819050614ecb82614ff0565b919050565b60006fffffffffffffffffffffffffffffffff82169050919050565b600073ffffffffffffffffffffffffffffffffffffffff82169050919050565b600077ffffffffffffffffffffffffffffffffffffffffffffffff82169050919050565b6000819050919050565b600063ffffffff82169050919050565b600067ffffffffffffffff82169050919050565b6000614f6982614fca565b9050919050565b6000614f7b82614f82565b9050919050565b6000614f8d82614eec565b9050919050565b6000614f9f82614fa6565b9050919050565b6000614fb182614eec565b9050919050565b6000614fc382614ebd565b9050919050565b6000614fd582614fdc565b9050919050565b6000614fe782614eec565b9050919050565bfe5b6002811061500157615000614fee565b5b50565b61500d81614e49565b811461501857600080fd5b50565b61502481614e75565b811461502f57600080fd5b50565b61503b81614e87565b811461504657600080fd5b50565b61505281614e99565b811461505d57600080fd5b50565b61506981614eab565b811461507457600080fd5b50565b6002811061508457600080fd5b50565b61509081614ed0565b811461509b57600080fd5b50565b6150a781614f30565b81146150b257600080fd5b50565b6150be81614f3a565b81146150c957600080fd5b50565b6150d581614f4a565b81146150e057600080fd5b5056fe53616665436173743a2076616c756520646f65736e27742066697420696e203139322062697473536166654d6174683a206d756c7469706c69636174696f6e206f766572666c6f772e476f7665726e65643a204e6f7420617661696c61626c6520647572696e672073687574646f776e2ea2646970667358221220236bed7556362e8a942df50b3e329ddd70dd028da4f1ef1f70d225ed941f5ffd64736f6c63430007040033",
  "linkReferences": {},
  "deployedLinkReferences": {}
}