{
  "_format": "hh-sol-artifact-1",
  "contractName": "Auctions",
  "sourceName": "contracts/core/logic/Auctions.sol",
  "abi": [
    {
      "anonymous": false,
      "inputs": [
        {
          "indexed": true,
          "internalType": "uint64",
          "name": "auctionID",
          "type": "uint64"
        },
        {
          "indexed": true,
          "internalType": "address",
          "name": "bidder",
          "type": "address"
        },
        {
          "indexed": false,
          "internalType": "uint256",
          "name": "bid",
          "type": "uint256"
        }
      ],
      "name": "DeficitAuctionBid",
      "type": "event"
    },
    {
      "anonymous": false,
      "inputs": [
        {
          "indexed": true,
          "internalType": "uint64",
          "name": "auctionID",
          "type": "uint64"
        },
        {
          "indexed": true,
          "internalType": "address",
          "name": "winner",
          "type": "address"
        }
      ],
      "name": "DeficitAuctionSettled",
      "type": "event"
    },
    {
      "anonymous": false,
      "inputs": [
        {
          "indexed": true,
          "internalType": "uint64",
          "name": "auctionID",
          "type": "uint64"
        },
        {
          "indexed": true,
          "internalType": "uint256",
          "name": "count",
          "type": "uint256"
        },
        {
          "indexed": false,
          "internalType": "uint64",
          "name": "maxEndTime",
          "type": "uint64"
        }
      ],
      "name": "DeficitAuctionStarted",
      "type": "event"
    },
    {
      "anonymous": false,
      "inputs": [
        {
          "indexed": true,
          "internalType": "address",
          "name": "governor",
          "type": "address"
        }
      ],
      "name": "Initialized",
      "type": "event"
    },
    {
      "anonymous": false,
      "inputs": [
        {
          "indexed": true,
          "internalType": "string",
          "name": "paramName",
          "type": "string"
        },
        {
          "indexed": false,
          "internalType": "uint256",
          "name": "value",
          "type": "uint256"
        }
      ],
      "name": "ParameterUpdated",
      "type": "event"
    },
    {
      "anonymous": false,
      "inputs": [
        {
          "indexed": true,
          "internalType": "string",
          "name": "paramName",
          "type": "string"
        },
        {
          "indexed": false,
          "internalType": "uint64",
          "name": "value",
          "type": "uint64"
        }
      ],
      "name": "ParameterUpdated64",
      "type": "event"
    },
    {
      "anonymous": false,
      "inputs": [],
      "name": "Stopped",
      "type": "event"
    },
    {
      "anonymous": false,
      "inputs": [
        {
          "indexed": true,
          "internalType": "uint64",
          "name": "auctionID",
          "type": "uint64"
        },
        {
          "indexed": true,
          "internalType": "address",
          "name": "bidder",
          "type": "address"
        },
        {
          "indexed": false,
          "internalType": "uint256",
          "name": "bid",
          "type": "uint256"
        }
      ],
      "name": "SurplusAuctionBid",
      "type": "event"
    },
    {
      "anonymous": false,
      "inputs": [
        {
          "indexed": true,
          "internalType": "uint64",
          "name": "auctionID",
          "type": "uint64"
        },
        {
          "indexed": true,
          "internalType": "address",
          "name": "winner",
          "type": "address"
        }
      ],
      "name": "SurplusAuctionSettled",
      "type": "event"
    },
    {
      "anonymous": false,
      "inputs": [
        {
          "indexed": true,
          "internalType": "uint64",
          "name": "auctionID",
          "type": "uint64"
        },
        {
          "indexed": true,
          "internalType": "uint256",
          "name": "count",
          "type": "uint256"
        },
        {
          "indexed": false,
          "internalType": "uint64",
          "name": "maxEndTime",
          "type": "uint64"
        }
      ],
      "name": "SurplusAuctionStarted",
      "type": "event"
    },
    {
      "inputs": [
        {
          "internalType": "uint64",
          "name": "auctionID",
          "type": "uint64"
        },
        {
          "internalType": "uint256",
          "name": "bid",
          "type": "uint256"
        }
      ],
      "name": "bidDeficitAuction",
      "outputs": [],
      "stateMutability": "nonpayable",
      "type": "function"
    },
    {
      "inputs": [
        {
          "internalType": "uint64",
          "name": "auctionID",
          "type": "uint64"
        },
        {
          "internalType": "uint256",
          "name": "bid",
          "type": "uint256"
        }
      ],
      "name": "bidSurplusAuction",
      "outputs": [],
      "stateMutability": "nonpayable",
      "type": "function"
    },
    {
      "inputs": [],
      "name": "checkReservesAndStartAuctions",
      "outputs": [],
      "stateMutability": "nonpayable",
      "type": "function"
    },
    {
      "inputs": [],
      "name": "cnp",
      "outputs": [
        {
          "internalType": "contract ICNP",
          "name": "",
          "type": "address"
        }
      ],
      "stateMutability": "view",
      "type": "function"
    },
    {
      "inputs": [],
      "name": "coinToBeBought",
      "outputs": [
        {
          "internalType": "uint256",
          "name": "",
          "type": "uint256"
        }
      ],
      "stateMutability": "view",
      "type": "function"
    },
    {
      "inputs": [],
      "name": "coinToBeSold",
      "outputs": [
        {
          "internalType": "uint256",
          "name": "",
          "type": "uint256"
        }
      ],
      "stateMutability": "view",
      "type": "function"
    },
    {
      "inputs": [
        {
          "internalType": "uint64",
          "name": "",
          "type": "uint64"
        }
      ],
      "name": "deficitAuction",
      "outputs": [
        {
          "internalType": "uint256",
          "name": "count",
          "type": "uint256"
        },
        {
          "internalType": "uint256",
          "name": "bid",
          "type": "uint256"
        },
        {
          "internalType": "address",
          "name": "bidder",
          "type": "address"
        },
        {
          "internalType": "uint64",
          "name": "endTime",
          "type": "uint64"
        },
        {
          "internalType": "uint64",
          "name": "maxEndTime",
          "type": "uint64"
        }
      ],
      "stateMutability": "view",
      "type": "function"
    },
    {
      "inputs": [
        {
          "internalType": "uint64",
          "name": "auctionID",
          "type": "uint64"
        }
      ],
      "name": "deficitAuctionComplete",
      "outputs": [
        {
          "internalType": "bool",
          "name": "complete",
          "type": "bool"
        }
      ],
      "stateMutability": "view",
      "type": "function"
    },
    {
      "inputs": [],
      "name": "deficitAuctionCount",
      "outputs": [
        {
          "internalType": "uint64",
          "name": "",
          "type": "uint64"
        }
      ],
      "stateMutability": "view",
      "type": "function"
    },
    {
      "inputs": [
        {
          "internalType": "uint64",
          "name": "auctionID",
          "type": "uint64"
        }
      ],
      "name": "deficitAuctionLive",
      "outputs": [
        {
          "internalType": "bool",
          "name": "live",
          "type": "bool"
        }
      ],
      "stateMutability": "view",
      "type": "function"
    },
    {
      "inputs": [],
      "name": "deployer",
      "outputs": [
        {
          "internalType": "address",
          "name": "",
          "type": "address"
        }
      ],
      "stateMutability": "view",
      "type": "function"
    },
    {
      "inputs": [],
      "name": "extensionPerBid",
      "outputs": [
        {
          "internalType": "uint64",
          "name": "",
          "type": "uint64"
        }
      ],
      "stateMutability": "view",
      "type": "function"
    },
    {
      "inputs": [],
      "name": "governor",
      "outputs": [
        {
          "internalType": "contract IGovernor",
          "name": "",
          "type": "address"
        }
      ],
      "stateMutability": "view",
      "type": "function"
    },
    {
      "inputs": [
        {
          "internalType": "contract IGovernor",
          "name": "_governor",
          "type": "address"
        }
      ],
      "name": "init",
      "outputs": [],
      "stateMutability": "nonpayable",
      "type": "function"
    },
    {
      "inputs": [],
      "name": "latestAuctionCompletionTime",
      "outputs": [
        {
          "internalType": "uint64",
          "name": "",
          "type": "uint64"
        }
      ],
      "stateMutability": "view",
      "type": "function"
    },
    {
      "inputs": [],
      "name": "maxAuctionDuration",
      "outputs": [
        {
          "internalType": "uint64",
          "name": "",
          "type": "uint64"
        }
      ],
      "stateMutability": "view",
      "type": "function"
    },
    {
      "inputs": [],
      "name": "maxBatchSize",
      "outputs": [
        {
          "internalType": "uint64",
          "name": "",
          "type": "uint64"
        }
      ],
      "stateMutability": "view",
      "type": "function"
    },
    {
      "inputs": [],
      "name": "maxDeficitLotSize",
      "outputs": [
        {
          "internalType": "uint256",
          "name": "",
          "type": "uint256"
        }
      ],
      "stateMutability": "view",
      "type": "function"
    },
    {
      "inputs": [],
      "name": "maxSurplusLotSize",
      "outputs": [
        {
          "internalType": "uint256",
          "name": "",
          "type": "uint256"
        }
      ],
      "stateMutability": "view",
      "type": "function"
    },
    {
      "inputs": [],
      "name": "minAuctionDuration",
      "outputs": [
        {
          "internalType": "uint64",
          "name": "",
          "type": "uint64"
        }
      ],
      "stateMutability": "view",
      "type": "function"
    },
    {
      "inputs": [],
      "name": "minBidDelta",
      "outputs": [
        {
          "internalType": "uint256",
          "name": "",
          "type": "uint256"
        }
      ],
      "stateMutability": "view",
      "type": "function"
    },
    {
      "inputs": [],
      "name": "minLotSize",
      "outputs": [
        {
          "internalType": "uint256",
          "name": "",
          "type": "uint256"
        }
      ],
      "stateMutability": "view",
      "type": "function"
    },
    {
      "inputs": [],
      "name": "reservesBufferLowerBound",
      "outputs": [
        {
          "internalType": "uint256",
          "name": "",
          "type": "uint256"
        }
      ],
      "stateMutability": "view",
      "type": "function"
    },
    {
      "inputs": [],
      "name": "reservesBufferUpperBound",
      "outputs": [
        {
          "internalType": "uint256",
          "name": "",
          "type": "uint256"
        }
      ],
      "stateMutability": "view",
      "type": "function"
    },
    {
      "inputs": [
        {
          "internalType": "uint64",
          "name": "extension",
          "type": "uint64"
        }
      ],
      "name": "setExtensionPerBid",
      "outputs": [],
      "stateMutability": "nonpayable",
      "type": "function"
    },
    {
      "inputs": [
        {
          "internalType": "uint64",
          "name": "duration",
          "type": "uint64"
        }
      ],
      "name": "setMaxAuctionDuration",
      "outputs": [],
      "stateMutability": "nonpayable",
      "type": "function"
    },
    {
      "inputs": [
        {
          "internalType": "uint64",
          "name": "size",
          "type": "uint64"
        }
      ],
      "name": "setMaxBatchSize",
      "outputs": [],
      "stateMutability": "nonpayable",
      "type": "function"
    },
    {
      "inputs": [
        {
          "internalType": "uint256",
          "name": "size",
          "type": "uint256"
        }
      ],
      "name": "setMaxDeficitLotSize",
      "outputs": [],
      "stateMutability": "nonpayable",
      "type": "function"
    },
    {
      "inputs": [
        {
          "internalType": "uint256",
          "name": "size",
          "type": "uint256"
        }
      ],
      "name": "setMaxSurplusLotSize",
      "outputs": [],
      "stateMutability": "nonpayable",
      "type": "function"
    },
    {
      "inputs": [
        {
          "internalType": "uint64",
          "name": "duration",
          "type": "uint64"
        }
      ],
      "name": "setMinAuctionDuration",
      "outputs": [],
      "stateMutability": "nonpayable",
      "type": "function"
    },
    {
      "inputs": [
        {
          "internalType": "uint256",
          "name": "delta",
          "type": "uint256"
        }
      ],
      "name": "setMinBidDelta",
      "outputs": [],
      "stateMutability": "nonpayable",
      "type": "function"
    },
    {
      "inputs": [
        {
          "internalType": "uint256",
          "name": "size",
          "type": "uint256"
        }
      ],
      "name": "setMinLotSize",
      "outputs": [],
      "stateMutability": "nonpayable",
      "type": "function"
    },
    {
      "inputs": [
        {
          "internalType": "uint256",
          "name": "bound",
          "type": "uint256"
        }
      ],
      "name": "setReservesBufferLowerBound",
      "outputs": [],
      "stateMutability": "nonpayable",
      "type": "function"
    },
    {
      "inputs": [
        {
          "internalType": "uint256",
          "name": "bound",
          "type": "uint256"
        }
      ],
      "name": "setReservesBufferUpperBound",
      "outputs": [],
      "stateMutability": "nonpayable",
      "type": "function"
    },
    {
      "inputs": [
        {
          "internalType": "uint64",
          "name": "auctionID",
          "type": "uint64"
        }
      ],
      "name": "settleDeficitAuction",
      "outputs": [],
      "stateMutability": "nonpayable",
      "type": "function"
    },
    {
      "inputs": [
        {
          "internalType": "uint64",
          "name": "auctionID",
          "type": "uint64"
        }
      ],
      "name": "settleSurplusAuction",
      "outputs": [],
      "stateMutability": "nonpayable",
      "type": "function"
    },
    {
      "inputs": [],
      "name": "shouldStartAuctions",
      "outputs": [
        {
          "internalType": "uint256",
          "name": "surplusAmount",
          "type": "uint256"
        },
        {
          "internalType": "uint256",
          "name": "deficitAmount",
          "type": "uint256"
        }
      ],
      "stateMutability": "view",
      "type": "function"
    },
    {
      "inputs": [],
      "name": "stop",
      "outputs": [],
      "stateMutability": "nonpayable",
      "type": "function"
    },
    {
      "inputs": [],
      "name": "stopped",
      "outputs": [
        {
          "internalType": "bool",
          "name": "",
          "type": "bool"
        }
      ],
      "stateMutability": "view",
      "type": "function"
    },
    {
      "inputs": [
        {
          "internalType": "uint64",
          "name": "",
          "type": "uint64"
        }
      ],
      "name": "surplusAuction",
      "outputs": [
        {
          "internalType": "uint256",
          "name": "count",
          "type": "uint256"
        },
        {
          "internalType": "uint256",
          "name": "bid",
          "type": "uint256"
        },
        {
          "internalType": "address",
          "name": "bidder",
          "type": "address"
        },
        {
          "internalType": "uint64",
          "name": "endTime",
          "type": "uint64"
        },
        {
          "internalType": "uint64",
          "name": "maxEndTime",
          "type": "uint64"
        }
      ],
      "stateMutability": "view",
      "type": "function"
    },
    {
      "inputs": [
        {
          "internalType": "uint64",
          "name": "auctionID",
          "type": "uint64"
        }
      ],
      "name": "surplusAuctionComplete",
      "outputs": [
        {
          "internalType": "bool",
          "name": "complete",
          "type": "bool"
        }
      ],
      "stateMutability": "view",
      "type": "function"
    },
    {
      "inputs": [],
      "name": "surplusAuctionCount",
      "outputs": [
        {
          "internalType": "uint64",
          "name": "",
          "type": "uint64"
        }
      ],
      "stateMutability": "view",
      "type": "function"
    },
    {
      "inputs": [
        {
          "internalType": "uint64",
          "name": "auctionID",
          "type": "uint64"
        }
      ],
      "name": "surplusAuctionLive",
      "outputs": [
        {
          "internalType": "bool",
          "name": "live",
          "type": "bool"
        }
      ],
      "stateMutability": "view",
      "type": "function"
    },
    {
      "inputs": [
        {
          "internalType": "bytes4",
          "name": "action",
          "type": "bytes4"
        }
      ],
      "name": "validUpdate",
      "outputs": [
        {
          "internalType": "bool",
          "name": "",
          "type": "bool"
        }
      ],
      "stateMutability": "view",
      "type": "function"
    }
  ],
  "bytecode": "0x6080604052670e4b4b8af6a70000600755683635c9adc5dea0000060085569043c33c193756480000060095569043c33c1937564800000600a55662386f26fc10000600b5566b1a2bc2ec50000600c556005600d60006101000a81548167ffffffffffffffff021916908367ffffffffffffffff160217905550610708600d60086101000a81548167ffffffffffffffff021916908367ffffffffffffffff16021790555062015180600d60106101000a81548167ffffffffffffffff021916908367ffffffffffffffff1602179055506202a300600d60186101000a81548167ffffffffffffffff021916908367ffffffffffffffff16021790555034801561010857600080fd5b5033600160006101000a81548173ffffffffffffffffffffffffffffffffffffffff021916908373ffffffffffffffffffffffffffffffffffffffff16021790555060016006819055506155c280620001626000396000f3fe608060405234801561001057600080fd5b50600436106102f45760003560e01c806354f634fb1161019157806399eeec95116100e3578063caa98b6011610097578063ddf31e6711610071578063ddf31e6714610b6d578063ee3528f014610b9b578063faf95d2d14610bb9576102f4565b8063caa98b6014610ab3578063d005d2eb14610b01578063d5f3948814610b39576102f4565b8063a958c033116100c8578063a958c03314610a49578063afea44ef14610a53578063c2b6722a14610a8b576102f4565b806399eeec95146109d3578063a4f0088314610a07576102f4565b806375d0ef5211610145578063887c67d91161011f578063887c67d9146109595780638d56248a146109875780639052537e146109b5576102f4565b806375d0ef52146108d957806375f12b21146109115780637eb12af714610931576102f4565b806360aad9bf1161017657806360aad9bf1461080b578063616cb0cf14610829578063651cf64d14610847576102f4565b806354f634fb1461079f578063597e899f146107bd576102f4565b806334b144751161024a5780634079b8fc116101fe5780634ae8470d116101d85780634ae8470d1461072b578063541348761461075957806354cccf0814610781576102f4565b80634079b8fc1461067d57806348c9581e146106cb5780634a2304b1146106f3576102f4565b80633a3a63df1161022f5780633a3a63df146105e35780633db966a61461061157806340601add1461062f576102f4565b806334b144751461057d57806337ca44fc146105ab576102f4565b806319ab453c116102ac5780632913daa0116102865780632913daa0146104815780632e748d55146104a95780633427c4ef146104eb576102f4565b806319ab453c146103f05780631b8757681461043457806325df95381461045c576102f4565b80630fb4e2b3116102dd5780630fb4e2b3146103375780630fe869071461036f578063113cf1ab1461038d576102f4565b806307da68f5146102f95780630c340a2414610303575b600080fd5b610301610be1565b005b61030b610cac565b604051808273ffffffffffffffffffffffffffffffffffffffff16815260200191505060405180910390f35b61036d6004803603602081101561034d57600080fd5b81019080803567ffffffffffffffff169060200190929190505050610cd0565b005b610377610e34565b6040518082815260200191505060405180910390f35b6103d8600480360360208110156103a357600080fd5b8101908080357bffffffffffffffffffffffffffffffffffffffffffffffffffffffff19169060200190929190505050610e3a565b60405180821515815260200191505060405180910390f35b6104326004803603602081101561040657600080fd5b81019080803573ffffffffffffffffffffffffffffffffffffffff169060200190929190505050610ea2565b005b61043c6112bb565b604051808267ffffffffffffffff16815260200191505060405180910390f35b6104646112d3565b604051808381526020018281526020019250505060405180910390f35b610489611634565b604051808267ffffffffffffffff16815260200191505060405180910390f35b6104e9600480360360408110156104bf57600080fd5b81019080803567ffffffffffffffff1690602001909291908035906020019092919050505061164e565b005b6105216004803603602081101561050157600080fd5b81019080803567ffffffffffffffff169060200190929190505050611d8b565b604051808681526020018581526020018473ffffffffffffffffffffffffffffffffffffffff1681526020018367ffffffffffffffff1681526020018267ffffffffffffffff1681526020019550505050505060405180910390f35b6105a96004803603602081101561059357600080fd5b8101908080359060200190929190505050611e09565b005b6105e1600480360360208110156105c157600080fd5b81019080803567ffffffffffffffff169060200190929190505050611f70565b005b61060f600480360360208110156105f957600080fd5b8101908080359060200190929190505050612120565b005b610619612268565b6040518082815260200191505060405180910390f35b6106656004803603602081101561064557600080fd5b81019080803567ffffffffffffffff16906020019092919050505061226e565b60405180821515815260200191505060405180910390f35b6106b36004803603602081101561069357600080fd5b81019080803567ffffffffffffffff1690602001909291905050506122bc565b60405180821515815260200191505060405180910390f35b6106d361230a565b604051808267ffffffffffffffff16815260200191505060405180910390f35b6107296004803603602081101561070957600080fd5b81019080803567ffffffffffffffff169060200190929190505050612324565b005b6107576004803603602081101561074157600080fd5b8101908080359060200190929190505050612808565b005b610761612966565b604051808267ffffffffffffffff16815260200191505060405180910390f35b610789612980565b6040518082815260200191505060405180910390f35b6107a7612986565b6040518082815260200191505060405180910390f35b6107f3600480360360208110156107d357600080fd5b81019080803567ffffffffffffffff16906020019092919050505061298c565b60405180821515815260200191505060405180910390f35b6108136129d9565b6040518082815260200191505060405180910390f35b6108316129df565b6040518082815260200191505060405180910390f35b61087d6004803603602081101561085d57600080fd5b81019080803567ffffffffffffffff1690602001909291905050506129e5565b604051808681526020018581526020018473ffffffffffffffffffffffffffffffffffffffff1681526020018367ffffffffffffffff1681526020018267ffffffffffffffff1681526020019550505050505060405180910390f35b61090f600480360360208110156108ef57600080fd5b81019080803567ffffffffffffffff169060200190929190505050612a63565b005b610919612c13565b60405180821515815260200191505060405180910390f35b610939612c26565b604051808267ffffffffffffffff16815260200191505060405180910390f35b6109856004803603602081101561096f57600080fd5b8101908080359060200190929190505050612c40565b005b6109b36004803603602081101561099d57600080fd5b8101908080359060200190929190505050612d88565b005b6109bd612ed0565b6040518082815260200191505060405180910390f35b6109db612ed6565b604051808273ffffffffffffffffffffffffffffffffffffffff16815260200191505060405180910390f35b610a4760048036036040811015610a1d57600080fd5b81019080803567ffffffffffffffff16906020019092919080359060200190929190505050612efc565b005b610a516135c5565b005b610a8960048036036020811015610a6957600080fd5b81019080803567ffffffffffffffff16906020019092919050505061397e565b005b610a93613b10565b604051808267ffffffffffffffff16815260200191505060405180910390f35b610ae960048036036020811015610ac957600080fd5b81019080803567ffffffffffffffff169060200190929190505050613b2a565b60405180821515815260200191505060405180910390f35b610b3760048036036020811015610b1757600080fd5b81019080803567ffffffffffffffff169060200190929190505050613b77565b005b610b41614045565b604051808273ffffffffffffffffffffffffffffffffffffffff16815260200191505060405180910390f35b610b9960048036036020811015610b8357600080fd5b810190808035906020019092919050505061406b565b005b610ba36141b9565b6040518082815260200191505060405180910390f35b610bc16141bf565b604051808267ffffffffffffffff16815260200191505060405180910390f35b60008054906101000a900473ffffffffffffffffffffffffffffffffffffffff1673ffffffffffffffffffffffffffffffffffffffff163373ffffffffffffffffffffffffffffffffffffffff1614610ca2576040517f08c379a00000000000000000000000000000000000000000000000000000000081526004018080602001828103825260198152602001807f476f7665726e65643a204e6f7420417574686f72697a65642e0000000000000081525060200191505060405180910390fd5b610caa6141d9565b565b60008054906101000a900473ffffffffffffffffffffffffffffffffffffffff1681565b60008054906101000a900473ffffffffffffffffffffffffffffffffffffffff1673ffffffffffffffffffffffffffffffffffffffff163373ffffffffffffffffffffffffffffffffffffffff1614610d91576040517f08c379a00000000000000000000000000000000000000000000000000000000081526004018080602001828103825260198152602001807f476f7665726e65643a204e6f7420417574686f72697a65642e0000000000000081525060200191505060405180910390fd5b80600d60086101000a81548167ffffffffffffffff021916908367ffffffffffffffff16021790555060405180807f657874656e73696f6e5065724269640000000000000000000000000000000000815250600f01905060405180910390207f6293347933ad2997134e224ac8cd2e39908a4a22aeed9af52127b4bbf765297882604051808267ffffffffffffffff16815260200191505060405180910390a250565b600a5481565b600060056000837bffffffffffffffffffffffffffffffffffffffffffffffffffffffff19167bffffffffffffffffffffffffffffffffffffffffffffffffffffffff1916815260200190815260200160002060009054906101000a900460ff169050919050565b600160009054906101000a900473ffffffffffffffffffffffffffffffffffffffff1673ffffffffffffffffffffffffffffffffffffffff163373ffffffffffffffffffffffffffffffffffffffff1614610f65576040517f08c379a000000000000000000000000000000000000000000000000000000000815260040180806020018281038252601e8152602001807f476f7665726e65643a20496e6974206e6f7420617574686f72697a65642e000081525060200191505060405180910390fd5b600160006101000a81549073ffffffffffffffffffffffffffffffffffffffff0219169055806000806101000a81548173ffffffffffffffffffffffffffffffffffffffff021916908373ffffffffffffffffffffffffffffffffffffffff16021790555060008054906101000a900473ffffffffffffffffffffffffffffffffffffffff1673ffffffffffffffffffffffffffffffffffffffff16639624e83e6040518163ffffffff1660e01b815260040160206040518083038186803b15801561103057600080fd5b505afa158015611044573d6000803e3d6000fd5b505050506040513d602081101561105a57600080fd5b8101908080519060200190929190505050600260006101000a81548173ffffffffffffffffffffffffffffffffffffffff021916908373ffffffffffffffffffffffffffffffffffffffff16021790555060008054906101000a900473ffffffffffffffffffffffffffffffffffffffff1673ffffffffffffffffffffffffffffffffffffffff166311df99956040518163ffffffff1660e01b815260040160206040518083038186803b15801561111157600080fd5b505afa158015611125573d6000803e3d6000fd5b505050506040513d602081101561113b57600080fd5b8101908080519060200190929190505050600360006101000a81548173ffffffffffffffffffffffffffffffffffffffff021916908373ffffffffffffffffffffffffffffffffffffffff16021790555060008054906101000a900473ffffffffffffffffffffffffffffffffffffffff1673ffffffffffffffffffffffffffffffffffffffff1663d478b0876040518163ffffffff1660e01b815260040160206040518083038186803b1580156111f257600080fd5b505afa158015611206573d6000803e3d6000fd5b505050506040513d602081101561121c57600080fd5b8101908080519060200190929190505050600460006101000a81548173ffffffffffffffffffffffffffffffffffffffff021916908373ffffffffffffffffffffffffffffffffffffffff160217905550611275614222565b8073ffffffffffffffffffffffffffffffffffffffff167f908408e307fc569b417f6cbec5d5a06f44a0a505ac0479b47d421a4b2fd6a1e660405160405180910390a250565b60108054906101000a900467ffffffffffffffff1681565b6000803073ffffffffffffffffffffffffffffffffffffffff1660008054906101000a900473ffffffffffffffffffffffffffffffffffffffff1673ffffffffffffffffffffffffffffffffffffffff166385aa61036040518163ffffffff1660e01b815260040160206040518083038186803b15801561135357600080fd5b505afa158015611367573d6000803e3d6000fd5b505050506040513d602081101561137d57600080fd5b810190808051906020019092919050505073ffffffffffffffffffffffffffffffffffffffff1614611417576040517f08c379a000000000000000000000000000000000000000000000000000000000815260040180806020018281038252601d8152602001807f557365206c61746573742041756374696f6e7320636f6e74726163742e00000081525060200191505060405180910390fd5b6000600360009054906101000a900473ffffffffffffffffffffffffffffffffffffffff1673ffffffffffffffffffffffffffffffffffffffff166375172a8b6040518163ffffffff1660e01b815260040160206040518083038186803b15801561148157600080fd5b505afa158015611495573d6000803e3d6000fd5b505050506040513d60208110156114ab57600080fd5b810190808051906020019092919050505090506000600260009054906101000a900473ffffffffffffffffffffffffffffffffffffffff1673ffffffffffffffffffffffffffffffffffffffff16630dca59c16040518163ffffffff1660e01b815260040160206040518083038186803b15801561152857600080fd5b505afa15801561153c573d6000803e3d6000fd5b505050506040513d602081101561155257600080fd5b81019080805190602001909291905050509050600061157c600c548361469c90919063ffffffff16565b90506000611595600b548461469c90919063ffffffff16565b90506000600a6115ae838561473b90919063ffffffff16565b816115b557fe5b049050826115ce6011548761473b90919063ffffffff16565b11156115f35780836011548703030196506008548710156115ee57600096505b61162b565b816116096012548761478590919063ffffffff16565b101561162a57806012548601830301955060085486101561162957600095505b5b5b50505050509091565b600d60009054906101000a900467ffffffffffffffff1681565b600460009054906101000a900473ffffffffffffffffffffffffffffffffffffffff1673ffffffffffffffffffffffffffffffffffffffff1663e97dcb626040518163ffffffff1660e01b8152600401600060405180830381600087803b1580156116b857600080fd5b505af11580156116cc573d6000803e3d6000fd5b5050505060026006541415611749576040517f08c379a000000000000000000000000000000000000000000000000000000000815260040180806020018281038252601d8152602001807f4c6f636b436f6e74726163743a207265656e7472616e742063616c6c2e00000081525060200191505060405180910390fd5b6002600681905550600060149054906101000a900460ff16156117d4576040517f08c379a000000000000000000000000000000000000000000000000000000000815260040180806020018281038252601e8152602001807f476f7665726e65643a20436f6e74726163742069732073746f707065642e000081525060200191505060405180910390fd5b6117dd826122bc565b61184f576040517f08c379a00000000000000000000000000000000000000000000000000000000081526004018080602001828103825260118152602001807f41756374696f6e206e6f74206c6976652e00000000000000000000000000000081525060200191505060405180910390fd5b6000600e60008467ffffffffffffffff1667ffffffffffffffff168152602001908152602001600020905060008160020160009054906101000a900473ffffffffffffffffffffffffffffffffffffffff169050600082600101549050600080600073ffffffffffffffffffffffffffffffffffffffff168473ffffffffffffffffffffffffffffffffffffffff161415611978576103e86118f4866000015461480d565b816118fb57fe5b048611611970576040517f08c379a000000000000000000000000000000000000000000000000000000000815260040180806020018281038252600c8152602001807f42696420746f6f206c6f772e000000000000000000000000000000000000000081525060200191505060405180910390fd5b859150611a1b565b61198d6007548461469c90919063ffffffff16565b861015611a02576040517f08c379a00000000000000000000000000000000000000000000000000000000081526004018080602001828103825260108152602001807f446964206e6f74206f7574206269642e0000000000000000000000000000000081525060200191505060405180910390fd5b829050611a18838761473b90919063ffffffff16565b91505b338560020160006101000a81548173ffffffffffffffffffffffffffffffffffffffff021916908373ffffffffffffffffffffffffffffffffffffffff1602179055508585600101819055506000611a88600d60089054906101000a900467ffffffffffffffff1661496d565b90508067ffffffffffffffff168660020160149054906101000a900467ffffffffffffffff1667ffffffffffffffff161015611aea57808660020160146101000a81548167ffffffffffffffff021916908367ffffffffffffffff1602179055505b60008214611be857601360009054906101000a900473ffffffffffffffffffffffffffffffffffffffff1673ffffffffffffffffffffffffffffffffffffffff166323b872dd3387856040518463ffffffff1660e01b8152600401808473ffffffffffffffffffffffffffffffffffffffff1681526020018373ffffffffffffffffffffffffffffffffffffffff1681526020018281526020019350505050602060405180830381600087803b158015611ba357600080fd5b505af1158015611bb7573d6000803e3d6000fd5b505050506040513d6020811015611bcd57600080fd5b8101908080519060200190929190505050611be757600080fd5b5b6000831415611bf357fe5b601360009054906101000a900473ffffffffffffffffffffffffffffffffffffffff1673ffffffffffffffffffffffffffffffffffffffff166379cc679033856040518363ffffffff1660e01b8152600401808373ffffffffffffffffffffffffffffffffffffffff16815260200182815260200192505050600060405180830381600087803b158015611c8657600080fd5b505af1158015611c9a573d6000803e3d6000fd5b505050503373ffffffffffffffffffffffffffffffffffffffff168867ffffffffffffffff167fd428196c29fb7877242c66ff296d926b10a5051d369acf8fe5eb3ea21bb6ec98896040518082815260200191505060405180910390a35050505050506001600681905550600460009054906101000a900473ffffffffffffffffffffffffffffffffffffffff1673ffffffffffffffffffffffffffffffffffffffff1663e9fad8ee6040518163ffffffff1660e01b8152600401600060405180830381600087803b158015611d6f57600080fd5b505af1158015611d83573d6000803e3d6000fd5b505050505050565b600e6020528060005260406000206000915090508060000154908060010154908060020160009054906101000a900473ffffffffffffffffffffffffffffffffffffffff16908060020160149054906101000a900467ffffffffffffffff16908060030160009054906101000a900467ffffffffffffffff16905085565b60008054906101000a900473ffffffffffffffffffffffffffffffffffffffff1673ffffffffffffffffffffffffffffffffffffffff163373ffffffffffffffffffffffffffffffffffffffff1614611eca576040517f08c379a00000000000000000000000000000000000000000000000000000000081526004018080602001828103825260198152602001807f476f7665726e65643a204e6f7420417574686f72697a65642e0000000000000081525060200191505060405180910390fd5b80600881905550600854600010611ee057600080fd5b60095460085410611ef057600080fd5b600a5460085410611f0057600080fd5b60405180807f6d696e4c6f7453697a6500000000000000000000000000000000000000000000815250600a01905060405180910390207f3a64504f0bc0c335e2aecb78638a257e0351a3fe0370861fd54ee4190b920933826040518082815260200191505060405180910390a250565b60008054906101000a900473ffffffffffffffffffffffffffffffffffffffff1673ffffffffffffffffffffffffffffffffffffffff163373ffffffffffffffffffffffffffffffffffffffff1614612031576040517f08c379a00000000000000000000000000000000000000000000000000000000081526004018080602001828103825260198152602001807f476f7665726e65643a204e6f7420417574686f72697a65642e0000000000000081525060200191505060405180910390fd5b80600d60186101000a81548167ffffffffffffffff021916908367ffffffffffffffff160217905550600d60189054906101000a900467ffffffffffffffff1667ffffffffffffffff16600d60109054906101000a900467ffffffffffffffff1667ffffffffffffffff16106120a657600080fd5b60405180807f6d617841756374696f6e4475726174696f6e0000000000000000000000000000815250601201905060405180910390207f6293347933ad2997134e224ac8cd2e39908a4a22aeed9af52127b4bbf765297882604051808267ffffffffffffffff16815260200191505060405180910390a250565b60008054906101000a900473ffffffffffffffffffffffffffffffffffffffff1673ffffffffffffffffffffffffffffffffffffffff163373ffffffffffffffffffffffffffffffffffffffff16146121e1576040517f08c379a00000000000000000000000000000000000000000000000000000000081526004018080602001828103825260198152602001807f476f7665726e65643a204e6f7420417574686f72697a65642e0000000000000081525060200191505060405180910390fd5b80600a81905550600a54600854106121f857600080fd5b60405180807f6d6178446566696369744c6f7453697a65000000000000000000000000000000815250601101905060405180910390207f3a64504f0bc0c335e2aecb78638a257e0351a3fe0370861fd54ee4190b920933826040518082815260200191505060405180910390a250565b60125481565b60006122798261499a565b6122845760006122b5565b6122b3600f60008467ffffffffffffffff1667ffffffffffffffff1681526020019081526020016000206149d1565b155b9050919050565b60006122c782614a4b565b6122d2576000612303565b612301600e60008467ffffffffffffffff1667ffffffffffffffff1681526020019081526020016000206149d1565b155b9050919050565b600d60189054906101000a900467ffffffffffffffff1681565b600460009054906101000a900473ffffffffffffffffffffffffffffffffffffffff1673ffffffffffffffffffffffffffffffffffffffff1663e97dcb626040518163ffffffff1660e01b8152600401600060405180830381600087803b15801561238e57600080fd5b505af11580156123a2573d6000803e3d6000fd5b505050506002600654141561241f576040517f08c379a000000000000000000000000000000000000000000000000000000000815260040180806020018281038252601d8152602001807f4c6f636b436f6e74726163743a207265656e7472616e742063616c6c2e00000081525060200191505060405180910390fd5b6002600681905550600060149054906101000a900460ff16156124aa576040517f08c379a000000000000000000000000000000000000000000000000000000000815260040180806020018281038252601e8152602001807f476f7665726e65643a20436f6e74726163742069732073746f707065642e000081525060200191505060405180910390fd5b6124b38161298c565b612525576040517f08c379a00000000000000000000000000000000000000000000000000000000081526004018080602001828103825260198152602001807f43616e7420736574746c6520746869732061756374696f6e2e0000000000000081525060200191505060405180910390fd5b6000600f60008367ffffffffffffffff1667ffffffffffffffff168152602001908152602001600020905060008160020160009054906101000a900473ffffffffffffffffffffffffffffffffffffffff169050600082600101549050600073ffffffffffffffffffffffffffffffffffffffff168273ffffffffffffffffffffffffffffffffffffffff16141580156125c0575060008114155b156126735760008054906101000a900473ffffffffffffffffffffffffffffffffffffffff1673ffffffffffffffffffffffffffffffffffffffff1663a99acb1783836040518363ffffffff1660e01b8152600401808373ffffffffffffffffffffffffffffffffffffffff16815260200182815260200192505050600060405180830381600087803b15801561265657600080fd5b505af115801561266a573d6000803e3d6000fd5b50505050612693565b61268c836000015460125461473b90919063ffffffff16565b6012819055505b600f60008567ffffffffffffffff1667ffffffffffffffff16815260200190815260200160002060008082016000905560018201600090556002820160006101000a81549073ffffffffffffffffffffffffffffffffffffffff02191690556002820160146101000a81549067ffffffffffffffff02191690556003820160006101000a81549067ffffffffffffffff021916905550508173ffffffffffffffffffffffffffffffffffffffff168467ffffffffffffffff167fd1b34ce351dc1a4cb6c40bb878ba19a12c4c44d35e7bdbeca7b5ebe947da312f60405160405180910390a35050506001600681905550600460009054906101000a900473ffffffffffffffffffffffffffffffffffffffff1673ffffffffffffffffffffffffffffffffffffffff1663e9fad8ee6040518163ffffffff1660e01b8152600401600060405180830381600087803b1580156127ed57600080fd5b505af1158015612801573d6000803e3d6000fd5b5050505050565b60008054906101000a900473ffffffffffffffffffffffffffffffffffffffff1673ffffffffffffffffffffffffffffffffffffffff163373ffffffffffffffffffffffffffffffffffffffff16146128c9576040517f08c379a00000000000000000000000000000000000000000000000000000000081526004018080602001828103825260198152602001807f476f7665726e65643a204e6f7420417574686f72697a65642e0000000000000081525060200191505060405180910390fd5b80600c81905550600c54600b54106128e057600080fd5b670de0b6b3a7640000600c54106128f657600080fd5b60405180807f72657365727665734275666665725570706572426f756e640000000000000000815250601801905060405180910390207f3a64504f0bc0c335e2aecb78638a257e0351a3fe0370861fd54ee4190b920933826040518082815260200191505060405180910390a250565b600d60109054906101000a900467ffffffffffffffff1681565b600c5481565b60075481565b60006129978261499a565b6129a25760006129d2565b6129d1600f60008467ffffffffffffffff1667ffffffffffffffff1681526020019081526020016000206149d1565b5b9050919050565b60095481565b600b5481565b600f6020528060005260406000206000915090508060000154908060010154908060020160009054906101000a900473ffffffffffffffffffffffffffffffffffffffff16908060020160149054906101000a900467ffffffffffffffff16908060030160009054906101000a900467ffffffffffffffff16905085565b60008054906101000a900473ffffffffffffffffffffffffffffffffffffffff1673ffffffffffffffffffffffffffffffffffffffff163373ffffffffffffffffffffffffffffffffffffffff1614612b24576040517f08c379a00000000000000000000000000000000000000000000000000000000081526004018080602001828103825260198152602001807f476f7665726e65643a204e6f7420417574686f72697a65642e0000000000000081525060200191505060405180910390fd5b80600d60106101000a81548167ffffffffffffffff021916908367ffffffffffffffff160217905550600d60189054906101000a900467ffffffffffffffff1667ffffffffffffffff16600d60109054906101000a900467ffffffffffffffff1667ffffffffffffffff1610612b9957600080fd5b60405180807f6d696e41756374696f6e4475726174696f6e0000000000000000000000000000815250601201905060405180910390207f6293347933ad2997134e224ac8cd2e39908a4a22aeed9af52127b4bbf765297882604051808267ffffffffffffffff16815260200191505060405180910390a250565b600060149054906101000a900460ff1681565b601060089054906101000a900467ffffffffffffffff1681565b60008054906101000a900473ffffffffffffffffffffffffffffffffffffffff1673ffffffffffffffffffffffffffffffffffffffff163373ffffffffffffffffffffffffffffffffffffffff1614612d01576040517f08c379a00000000000000000000000000000000000000000000000000000000081526004018080602001828103825260198152602001807f476f7665726e65643a204e6f7420417574686f72697a65642e0000000000000081525060200191505060405180910390fd5b80600b81905550600c54600b5410612d1857600080fd5b60405180807f72657365727665734275666665724c6f776572426f756e640000000000000000815250601801905060405180910390207f3a64504f0bc0c335e2aecb78638a257e0351a3fe0370861fd54ee4190b920933826040518082815260200191505060405180910390a250565b60008054906101000a900473ffffffffffffffffffffffffffffffffffffffff1673ffffffffffffffffffffffffffffffffffffffff163373ffffffffffffffffffffffffffffffffffffffff1614612e49576040517f08c379a00000000000000000000000000000000000000000000000000000000081526004018080602001828103825260198152602001807f476f7665726e65643a204e6f7420417574686f72697a65642e0000000000000081525060200191505060405180910390fd5b8060098190555060095460085410612e6057600080fd5b60405180807f6d6178537572706c75734c6f7453697a65000000000000000000000000000000815250601101905060405180910390207f3a64504f0bc0c335e2aecb78638a257e0351a3fe0370861fd54ee4190b920933826040518082815260200191505060405180910390a250565b60085481565b601360009054906101000a900473ffffffffffffffffffffffffffffffffffffffff1681565b600460009054906101000a900473ffffffffffffffffffffffffffffffffffffffff1673ffffffffffffffffffffffffffffffffffffffff1663e97dcb626040518163ffffffff1660e01b8152600401600060405180830381600087803b158015612f6657600080fd5b505af1158015612f7a573d6000803e3d6000fd5b5050505060026006541415612ff7576040517f08c379a000000000000000000000000000000000000000000000000000000000815260040180806020018281038252601d8152602001807f4c6f636b436f6e74726163743a207265656e7472616e742063616c6c2e00000081525060200191505060405180910390fd5b6002600681905550600060149054906101000a900460ff1615613082576040517f08c379a000000000000000000000000000000000000000000000000000000000815260040180806020018281038252601e8152602001807f476f7665726e65643a20436f6e74726163742069732073746f707065642e000081525060200191505060405180910390fd5b61308b8261226e565b6130fd576040517f08c379a00000000000000000000000000000000000000000000000000000000081526004018080602001828103825260118152602001807f41756374696f6e206e6f74206c6976652e00000000000000000000000000000081525060200191505060405180910390fd5b6000600f60008467ffffffffffffffff1667ffffffffffffffff168152602001908152602001600020905060008082600001549050600073ffffffffffffffffffffffffffffffffffffffff168360020160009054906101000a900473ffffffffffffffffffffffffffffffffffffffff1673ffffffffffffffffffffffffffffffffffffffff161415613260576131a760646131998361480d565b614a8290919063ffffffff16565b841061321b576040517f08c379a000000000000000000000000000000000000000000000000000000000815260040180806020018281038252600d8152602001807f42696420746f6f20686967682e0000000000000000000000000000000000000081525060200191505060405180910390fd5b6132308160125461473b90919063ffffffff16565b601281905550600360009054906101000a900473ffffffffffffffffffffffffffffffffffffffff169150613316565b6132796007548460010154614b0890919063ffffffff16565b8411156132ee576040517f08c379a00000000000000000000000000000000000000000000000000000000081526004018080602001828103825260128152602001807f446964206e6f7420756e646572206269642e000000000000000000000000000081525060200191505060405180910390fd5b8260020160009054906101000a900473ffffffffffffffffffffffffffffffffffffffff1691505b338360020160006101000a81548173ffffffffffffffffffffffffffffffffffffffff021916908373ffffffffffffffffffffffffffffffffffffffff1602179055508383600101819055506000613383600d60089054906101000a900467ffffffffffffffff1661496d565b90508067ffffffffffffffff168460020160149054906101000a900467ffffffffffffffff1667ffffffffffffffff1610156133e557808460020160146101000a81548167ffffffffffffffff021916908367ffffffffffffffff1602179055505b600360009054906101000a900473ffffffffffffffffffffffffffffffffffffffff1673ffffffffffffffffffffffffffffffffffffffff166323b872dd3385856040518463ffffffff1660e01b8152600401808473ffffffffffffffffffffffffffffffffffffffff1681526020018373ffffffffffffffffffffffffffffffffffffffff1681526020018281526020019350505050602060405180830381600087803b15801561349657600080fd5b505af11580156134aa573d6000803e3d6000fd5b505050506040513d60208110156134c057600080fd5b81019080805190602001909291905050506134da57600080fd5b3373ffffffffffffffffffffffffffffffffffffffff168667ffffffffffffffff167f3e40664282966c0a42567d60514e22e8d06206cbcaa7d79f53dc8fcd8c724246876040518082815260200191505060405180910390a3505050506001600681905550600460009054906101000a900473ffffffffffffffffffffffffffffffffffffffff1673ffffffffffffffffffffffffffffffffffffffff1663e9fad8ee6040518163ffffffff1660e01b8152600401600060405180830381600087803b1580156135a957600080fd5b505af11580156135bd573d6000803e3d6000fd5b505050505050565b600460009054906101000a900473ffffffffffffffffffffffffffffffffffffffff1673ffffffffffffffffffffffffffffffffffffffff1663e97dcb626040518163ffffffff1660e01b8152600401600060405180830381600087803b15801561362f57600080fd5b505af1158015613643573d6000803e3d6000fd5b50505050600260065414156136c0576040517f08c379a000000000000000000000000000000000000000000000000000000000815260040180806020018281038252601d8152602001807f4c6f636b436f6e74726163743a207265656e7472616e742063616c6c2e00000081525060200191505060405180910390fd5b6002600681905550600060149054906101000a900460ff161561374b576040517f08c379a000000000000000000000000000000000000000000000000000000000815260040180806020018281038252601e8152602001807f476f7665726e65643a20436f6e74726163742069732073746f707065642e000081525060200191505060405180910390fd5b60008054906101000a900473ffffffffffffffffffffffffffffffffffffffff1673ffffffffffffffffffffffffffffffffffffffff1663bf86d6906040518163ffffffff1660e01b815260040160206040518083038186803b1580156137b157600080fd5b505afa1580156137c5573d6000803e3d6000fd5b505050506040513d60208110156137db57600080fd5b810190808051906020019092919050505015613842576040517f08c379a000000000000000000000000000000000000000000000000000000000815260040180806020018281038252602881526020018061551e6028913960400191505060405180910390fd5b60008061384d6112d3565b915091506000821461386957613864826001614c1b565b6138f0565b600081146138815761387c816000614c1b565b6138ef565b6040517f08c379a00000000000000000000000000000000000000000000000000000000081526004018080602001828103825260158152602001807f4e6f2061756374696f6e7320746f2073746172742e000000000000000000000081525060200191505060405180910390fd5b5b50506001600681905550600460009054906101000a900473ffffffffffffffffffffffffffffffffffffffff1673ffffffffffffffffffffffffffffffffffffffff1663e9fad8ee6040518163ffffffff1660e01b8152600401600060405180830381600087803b15801561396457600080fd5b505af1158015613978573d6000803e3d6000fd5b50505050565b60008054906101000a900473ffffffffffffffffffffffffffffffffffffffff1673ffffffffffffffffffffffffffffffffffffffff163373ffffffffffffffffffffffffffffffffffffffff1614613a3f576040517f08c379a00000000000000000000000000000000000000000000000000000000081526004018080602001828103825260198152602001807f476f7665726e65643a204e6f7420417574686f72697a65642e0000000000000081525060200191505060405180910390fd5b80600d60006101000a81548167ffffffffffffffff021916908367ffffffffffffffff1602179055506000600d60009054906101000a900467ffffffffffffffff1667ffffffffffffffff161415613a9657600080fd5b60405180807f6d6178426174636853697a650000000000000000000000000000000000000000815250600c01905060405180910390207f6293347933ad2997134e224ac8cd2e39908a4a22aeed9af52127b4bbf765297882604051808267ffffffffffffffff16815260200191505060405180910390a250565b601060009054906101000a900467ffffffffffffffff1681565b6000613b3582614a4b565b613b40576000613b70565b613b6f600e60008467ffffffffffffffff1667ffffffffffffffff1681526020019081526020016000206149d1565b5b9050919050565b600460009054906101000a900473ffffffffffffffffffffffffffffffffffffffff1673ffffffffffffffffffffffffffffffffffffffff1663e97dcb626040518163ffffffff1660e01b8152600401600060405180830381600087803b158015613be157600080fd5b505af1158015613bf5573d6000803e3d6000fd5b5050505060026006541415613c72576040517f08c379a000000000000000000000000000000000000000000000000000000000815260040180806020018281038252601d8152602001807f4c6f636b436f6e74726163743a207265656e7472616e742063616c6c2e00000081525060200191505060405180910390fd5b6002600681905550600060149054906101000a900460ff1615613cfd576040517f08c379a000000000000000000000000000000000000000000000000000000000815260040180806020018281038252601e8152602001807f476f7665726e65643a20436f6e74726163742069732073746f707065642e000081525060200191505060405180910390fd5b613d0681613b2a565b613d78576040517f08c379a00000000000000000000000000000000000000000000000000000000081526004018080602001828103825260198152602001807f43616e7420736574746c6520746869732061756374696f6e2e0000000000000081525060200191505060405180910390fd5b6000600e60008367ffffffffffffffff1667ffffffffffffffff168152602001908152602001600020905060008160000154905060008260020160009054906101000a900473ffffffffffffffffffffffffffffffffffffffff169050613dea8260115461473b90919063ffffffff16565b601181905550600073ffffffffffffffffffffffffffffffffffffffff168173ffffffffffffffffffffffffffffffffffffffff1614613ed057600360009054906101000a900473ffffffffffffffffffffffffffffffffffffffff1673ffffffffffffffffffffffffffffffffffffffff166316f9428f82846040518363ffffffff1660e01b8152600401808373ffffffffffffffffffffffffffffffffffffffff16815260200182815260200192505050600060405180830381600087803b158015613eb757600080fd5b505af1158015613ecb573d6000803e3d6000fd5b505050505b600e60008567ffffffffffffffff1667ffffffffffffffff16815260200190815260200160002060008082016000905560018201600090556002820160006101000a81549073ffffffffffffffffffffffffffffffffffffffff02191690556002820160146101000a81549067ffffffffffffffff02191690556003820160006101000a81549067ffffffffffffffff021916905550508073ffffffffffffffffffffffffffffffffffffffff168467ffffffffffffffff167f596e5ff4197d4a01b2406d4c0717653cbc9166cf6ab2bdf78272eb99d191a09360405160405180910390a35050506001600681905550600460009054906101000a900473ffffffffffffffffffffffffffffffffffffffff1673ffffffffffffffffffffffffffffffffffffffff1663e9fad8ee6040518163ffffffff1660e01b8152600401600060405180830381600087803b15801561402a57600080fd5b505af115801561403e573d6000803e3d6000fd5b5050505050565b600160009054906101000a900473ffffffffffffffffffffffffffffffffffffffff1681565b60008054906101000a900473ffffffffffffffffffffffffffffffffffffffff1673ffffffffffffffffffffffffffffffffffffffff163373ffffffffffffffffffffffffffffffffffffffff161461412c576040517f08c379a00000000000000000000000000000000000000000000000000000000081526004018080602001828103825260198152602001807f476f7665726e65643a204e6f7420417574686f72697a65642e0000000000000081525060200191505060405180910390fd5b80600781905550670de0b6b3a76400006007541161414957600080fd5b60405180807f6d696e42696444656c7461000000000000000000000000000000000000000000815250600b01905060405180910390207f3a64504f0bc0c335e2aecb78638a257e0351a3fe0370861fd54ee4190b920933826040518082815260200191505060405180910390a250565b60115481565b600d60089054906101000a900467ffffffffffffffff1681565b6001600060146101000a81548160ff0219169083151502179055507f7acc84e34091ae817647a4c49116f5cc07f319078ba80f8f5fde37ea7e25cbd660405160405180910390a1565b60008054906101000a900473ffffffffffffffffffffffffffffffffffffffff1673ffffffffffffffffffffffffffffffffffffffff166399eeec956040518163ffffffff1660e01b815260040160206040518083038186803b15801561428857600080fd5b505afa15801561429c573d6000803e3d6000fd5b505050506040513d60208110156142b257600080fd5b8101908080519060200190929190505050601360006101000a81548173ffffffffffffffffffffffffffffffffffffffff021916908373ffffffffffffffffffffffffffffffffffffffff16021790555061430b61547f565b60405180610140016040528063ddf31e6760e01b7bffffffffffffffffffffffffffffffffffffffffffffffffffffffff19167bffffffffffffffffffffffffffffffffffffffffffffffffffffffff191681526020016334b1447560e01b7bffffffffffffffffffffffffffffffffffffffffffffffffffffffff19167bffffffffffffffffffffffffffffffffffffffffffffffffffffffff19168152602001638d56248a60e01b7bffffffffffffffffffffffffffffffffffffffffffffffffffffffff19167bffffffffffffffffffffffffffffffffffffffffffffffffffffffff19168152602001633a3a63df60e01b7bffffffffffffffffffffffffffffffffffffffffffffffffffffffff19167bffffffffffffffffffffffffffffffffffffffffffffffffffffffff1916815260200163887c67d960e01b7bffffffffffffffffffffffffffffffffffffffffffffffffffffffff19167bffffffffffffffffffffffffffffffffffffffffffffffffffffffff19168152602001634ae8470d60e01b7bffffffffffffffffffffffffffffffffffffffffffffffffffffffff19167bffffffffffffffffffffffffffffffffffffffffffffffffffffffff1916815260200163afea44ef60e01b7bffffffffffffffffffffffffffffffffffffffffffffffffffffffff19167bffffffffffffffffffffffffffffffffffffffffffffffffffffffff19168152602001630fb4e2b360e01b7bffffffffffffffffffffffffffffffffffffffffffffffffffffffff19167bffffffffffffffffffffffffffffffffffffffffffffffffffffffff191681526020016375d0ef5260e01b7bffffffffffffffffffffffffffffffffffffffffffffffffffffffff19167bffffffffffffffffffffffffffffffffffffffffffffffffffffffff191681526020016337ca44fc60e01b7bffffffffffffffffffffffffffffffffffffffffffffffffffffffff19167bffffffffffffffffffffffffffffffffffffffffffffffffffffffff1916815250905060005b600a811015614698576001600560008484600a811061462357fe5b60200201517bffffffffffffffffffffffffffffffffffffffffffffffffffffffff19167bffffffffffffffffffffffffffffffffffffffffffffffffffffffff1916815260200190815260200160002060006101000a81548160ff0219169083151502179055508080600101915050614608565b5050565b6000808314806146ac5750600082145b156146ba5760009050614735565b8183029050818382816146c957fe5b0414614720576040517f08c379a00000000000000000000000000000000000000000000000000000000081526004018080602001828103825260228152602001806154fc6022913960400191505060405180910390fd5b670de0b6b3a7640000818161473157fe5b0490505b92915050565b600061477d83836040518060400160405280601e81526020017f536166654d6174683a207375627472616374696f6e206f766572666c6f770000815250614cb4565b905092915050565b600080828401905083811015614803576040517f08c379a000000000000000000000000000000000000000000000000000000000815260040180806020018281038252601b8152602001807f536166654d6174683a206164646974696f6e206f766572666c6f77000000000081525060200191505060405180910390fd5b8091505092915050565b600061496660008054906101000a900473ffffffffffffffffffffffffffffffffffffffff1673ffffffffffffffffffffffffffffffffffffffff1663260377506040518163ffffffff1660e01b815260040160206040518083038186803b15801561487857600080fd5b505afa15801561488c573d6000803e3d6000fd5b505050506040513d60208110156148a257600080fd5b8101908080519060200190929190505050600360009054906101000a900473ffffffffffffffffffffffffffffffffffffffff1673ffffffffffffffffffffffffffffffffffffffff166318160ddd6040518163ffffffff1660e01b815260040160206040518083038186803b15801561491b57600080fd5b505afa15801561492f573d6000803e3d6000fd5b505050506040513d602081101561494557600080fd5b810190808051906020019092919050505084614d749092919063ffffffff16565b9050919050565b60006149938261497b614e83565b67ffffffffffffffff16614e9390919063ffffffff16565b9050919050565b600080600f60008467ffffffffffffffff1667ffffffffffffffff1681526020019081526020016000206000015414159050919050565b6000806149dc614e83565b90508067ffffffffffffffff168360020160149054906101000a900467ffffffffffffffff1667ffffffffffffffff161080614a4357508067ffffffffffffffff168360030160009054906101000a900467ffffffffffffffff1667ffffffffffffffff16105b915050919050565b600080600e60008467ffffffffffffffff1667ffffffffffffffff1681526020019081526020016000206000015414159050919050565b600080831415614a955760009050614b02565b6000828402905082848281614aa657fe5b0414614afd576040517f08c379a00000000000000000000000000000000000000000000000000000000081526004018080602001828103825260218152602001806155466021913960400191505060405180910390fd5b809150505b92915050565b600080831415614b1b5760009050614c15565b6000821415614b92576040517f08c379a000000000000000000000000000000000000000000000000000000000815260040180806020018281038252601b8152602001807f536166654d6174683a206469766973696f6e206279207a65726f2e000000000081525060200191505060405180910390fd5b670de0b6b3a764000083029050670de0b6b3a7640000838281614bb157fe5b0414614c08576040517f08c379a00000000000000000000000000000000000000000000000000000000081526004018080602001828103825260228152602001806154fc6022913960400191505060405180910390fd5b818181614c1157fe5b0490505b92915050565b600081614c2a57600a54614c2e565b6009545b9050614c3a8382614f2f565b92508115614c6257614c578360115461478590919063ffffffff16565b601181905550614c7e565b614c778360125461478590919063ffffffff16565b6012819055505b60005b614c948285614faa90919063ffffffff16565b9050614ca08184614fc3565b80840393506000841415614c815750505050565b6000838311158290614d61576040517f08c379a00000000000000000000000000000000000000000000000000000000081526004018080602001828103825283818151815260200191508051906020019080838360005b83811015614d26578082015181840152602081019050614d0b565b50505050905090810190601f168015614d535780820380516001836020036101000a031916815260200191505b509250505060405180910390fd5b5060008385039050809150509392505050565b600080841480614d845750600083145b15614d925760009050614e7c565b6000821415614e09576040517f08c379a000000000000000000000000000000000000000000000000000000000815260040180806020018281038252601b8152602001807f536166654d6174683a206469766973696f6e206279207a65726f2e000000000081525060200191505060405180910390fd5b828402905082848281614e1857fe5b0414614e6f576040517f08c379a00000000000000000000000000000000000000000000000000000000081526004018080602001828103825260228152602001806154fc6022913960400191505060405180910390fd5b818181614e7857fe5b0490505b9392505050565b6000614e8e42615414565b905090565b60008082840190508367ffffffffffffffff168167ffffffffffffffff161015614f25576040517f08c379a000000000000000000000000000000000000000000000000000000000815260040180806020018281038252601b8152602001807f536166654d6174683a206164646974696f6e206f766572666c6f77000000000081525060200191505060405180910390fd5b8091505092915050565b600080614f65600d60009054906101000a900467ffffffffffffffff1667ffffffffffffffff1684614a8290919063ffffffff16565b90506000838581614f7257fe5b06905060006008548210614f865785614f8a565b8186035b9050614f9f8184614faa90919063ffffffff16565b935050505092915050565b6000818310614fb95781614fbb565b825b905092915050565b6000614fe4600d60189054906101000a900467ffffffffffffffff1661496d565b90508067ffffffffffffffff1660108054906101000a900467ffffffffffffffff1667ffffffffffffffff16101561503f57806010806101000a81548167ffffffffffffffff021916908367ffffffffffffffff1602179055505b6150476154a2565b6040518060a0016040528085815260200160008152602001600073ffffffffffffffffffffffffffffffffffffffff16815260200161509b600d60109054906101000a900467ffffffffffffffff1661496d565b67ffffffffffffffff1681526020018367ffffffffffffffff16815250905082156152695780600e6000601060009054906101000a900467ffffffffffffffff1667ffffffffffffffff1667ffffffffffffffff168152602001908152602001600020600082015181600001556020820151816001015560408201518160020160006101000a81548173ffffffffffffffffffffffffffffffffffffffff021916908373ffffffffffffffffffffffffffffffffffffffff16021790555060608201518160020160146101000a81548167ffffffffffffffff021916908367ffffffffffffffff16021790555060808201518160030160006101000a81548167ffffffffffffffff021916908367ffffffffffffffff16021790555090505083601060009054906101000a900467ffffffffffffffff1667ffffffffffffffff167fb706108f90fb9e0fadc5f3feaa02b4c23b9d569ad7b46408c64eb4f224eba7cd84604051808267ffffffffffffffff16815260200191505060405180910390a36010600081819054906101000a900467ffffffffffffffff168092919060010191906101000a81548167ffffffffffffffff021916908367ffffffffffffffff1602179055505061540e565b80600f6000601060089054906101000a900467ffffffffffffffff1667ffffffffffffffff1667ffffffffffffffff168152602001908152602001600020600082015181600001556020820151816001015560408201518160020160006101000a81548173ffffffffffffffffffffffffffffffffffffffff021916908373ffffffffffffffffffffffffffffffffffffffff16021790555060608201518160020160146101000a81548167ffffffffffffffff021916908367ffffffffffffffff16021790555060808201518160030160006101000a81548167ffffffffffffffff021916908367ffffffffffffffff16021790555090505083601060089054906101000a900467ffffffffffffffff1667ffffffffffffffff167f4e673c0fa7786d8c4c1cba0d1678d726ef2cb772cc6abbe3cea73c1a6d9a681e84604051808267ffffffffffffffff16815260200191505060405180910390a36010600881819054906101000a900467ffffffffffffffff168092919060010191906101000a81548167ffffffffffffffff021916908367ffffffffffffffff160217905550505b50505050565b6000680100000000000000008210615477576040517f08c379a00000000000000000000000000000000000000000000000000000000081526004018080602001828103825260268152602001806155676026913960400191505060405180910390fd5b819050919050565b604051806101400160405280600a90602082028036833780820191505090505090565b6040518060a001604052806000815260200160008152602001600073ffffffffffffffffffffffffffffffffffffffff168152602001600067ffffffffffffffff168152602001600067ffffffffffffffff168152509056fe536166654d6174683a206d756c7469706c69636174696f6e206f766572666c6f772e476f7665726e65643a204e6f7420617661696c61626c6520647572696e672073687574646f776e2e536166654d6174683a206d756c7469706c69636174696f6e206f766572666c6f7753616665436173743a2076616c756520646f65736e27742066697420696e2036342062697473a26469706673582212204c69ada4ab64b2cbd897ec127b190386b2e41509880a2911f717030a13d9481164736f6c63430007040033",
  "linkReferences": {},
  "deployedLinkReferences": {}
}