{
  "_format": "hh-sol-artifact-1",
  "contractName": "Auctions",
  "sourceName": "contracts/core/logic/Auctions.sol",
  "abi": [
    {
      "anonymous": false,
      "inputs": [
        {
          "indexed": true,
          "internalType": "bool",
          "name": "isSurplus",
          "type": "bool"
        },
        {
          "indexed": true,
          "internalType": "uint64",
          "name": "auctionID",
          "type": "uint64"
        },
        {
          "indexed": true,
          "internalType": "address",
          "name": "bidder",
          "type": "address"
        },
        {
          "indexed": false,
          "internalType": "uint256",
          "name": "bid",
          "type": "uint256"
        }
      ],
      "name": "AuctionBid",
      "type": "event"
    },
    {
      "anonymous": false,
      "inputs": [
        {
          "indexed": true,
          "internalType": "bool",
          "name": "isSurplus",
          "type": "bool"
        },
        {
          "indexed": true,
          "internalType": "uint64",
          "name": "auctionID",
          "type": "uint64"
        },
        {
          "indexed": true,
          "internalType": "address",
          "name": "winner",
          "type": "address"
        },
        {
          "indexed": false,
          "internalType": "address",
          "name": "creator",
          "type": "address"
        },
        {
          "indexed": false,
          "internalType": "address",
          "name": "cleaner",
          "type": "address"
        }
      ],
      "name": "AuctionSettled",
      "type": "event"
    },
    {
      "anonymous": false,
      "inputs": [
        {
          "indexed": true,
          "internalType": "bool",
          "name": "isSurplus",
          "type": "bool"
        },
        {
          "indexed": true,
          "internalType": "uint64",
          "name": "auctionID",
          "type": "uint64"
        },
        {
          "indexed": true,
          "internalType": "uint256",
          "name": "count",
          "type": "uint256"
        },
        {
          "indexed": false,
          "internalType": "uint64",
          "name": "maxEndTime",
          "type": "uint64"
        }
      ],
      "name": "AuctionStarted",
      "type": "event"
    },
    {
      "anonymous": false,
      "inputs": [
        {
          "indexed": true,
          "internalType": "address",
          "name": "governor",
          "type": "address"
        }
      ],
      "name": "Initialized",
      "type": "event"
    },
    {
      "anonymous": false,
      "inputs": [
        {
          "indexed": true,
          "internalType": "string",
          "name": "paramName",
          "type": "string"
        },
        {
          "indexed": false,
          "internalType": "uint256",
          "name": "value",
          "type": "uint256"
        }
      ],
      "name": "ParameterUpdated",
      "type": "event"
    },
    {
      "anonymous": false,
      "inputs": [
        {
          "indexed": true,
          "internalType": "string",
          "name": "paramName",
          "type": "string"
        },
        {
          "indexed": false,
          "internalType": "uint64",
          "name": "value",
          "type": "uint64"
        }
      ],
      "name": "ParameterUpdated64",
      "type": "event"
    },
    {
      "anonymous": false,
      "inputs": [],
      "name": "Stopped",
      "type": "event"
    },
    {
      "inputs": [],
      "name": "batchSize",
      "outputs": [
        {
          "internalType": "uint64",
          "name": "",
          "type": "uint64"
        }
      ],
      "stateMutability": "view",
      "type": "function"
    },
    {
      "inputs": [
        {
          "internalType": "uint64",
          "name": "auctionID",
          "type": "uint64"
        },
        {
          "internalType": "uint256",
          "name": "bid",
          "type": "uint256"
        }
      ],
      "name": "bidDeficitAuction",
      "outputs": [],
      "stateMutability": "nonpayable",
      "type": "function"
    },
    {
      "inputs": [
        {
          "internalType": "uint64",
          "name": "auctionID",
          "type": "uint64"
        },
        {
          "internalType": "uint256",
          "name": "bid",
          "type": "uint256"
        }
      ],
      "name": "bidSurplusAuction",
      "outputs": [],
      "stateMutability": "nonpayable",
      "type": "function"
    },
    {
      "inputs": [],
      "name": "checkReservesAndStartAuctions",
      "outputs": [],
      "stateMutability": "nonpayable",
      "type": "function"
    },
    {
      "inputs": [],
      "name": "cleanerRewardRatio",
      "outputs": [
        {
          "internalType": "uint256",
          "name": "",
          "type": "uint256"
        }
      ],
      "stateMutability": "view",
      "type": "function"
    },
    {
      "inputs": [],
      "name": "cnp",
      "outputs": [
        {
          "internalType": "contract ICNP",
          "name": "",
          "type": "address"
        }
      ],
      "stateMutability": "view",
      "type": "function"
    },
    {
      "inputs": [],
      "name": "coinToBeBought",
      "outputs": [
        {
          "internalType": "uint256",
          "name": "",
          "type": "uint256"
        }
      ],
      "stateMutability": "view",
      "type": "function"
    },
    {
      "inputs": [],
      "name": "coinToBeSold",
      "outputs": [
        {
          "internalType": "uint256",
          "name": "",
          "type": "uint256"
        }
      ],
      "stateMutability": "view",
      "type": "function"
    },
    {
      "inputs": [],
      "name": "creatorRewardRatio",
      "outputs": [
        {
          "internalType": "uint256",
          "name": "",
          "type": "uint256"
        }
      ],
      "stateMutability": "view",
      "type": "function"
    },
    {
      "inputs": [
        {
          "internalType": "uint64",
          "name": "",
          "type": "uint64"
        }
      ],
      "name": "deficitAuction",
      "outputs": [
        {
          "internalType": "uint256",
          "name": "bid",
          "type": "uint256"
        },
        {
          "internalType": "uint256",
          "name": "count",
          "type": "uint256"
        },
        {
          "internalType": "uint64",
          "name": "endTime",
          "type": "uint64"
        },
        {
          "internalType": "address",
          "name": "bidder",
          "type": "address"
        },
        {
          "internalType": "uint64",
          "name": "maxEndTime",
          "type": "uint64"
        },
        {
          "internalType": "address",
          "name": "creator",
          "type": "address"
        }
      ],
      "stateMutability": "view",
      "type": "function"
    },
    {
      "inputs": [],
      "name": "deficitAuctionCount",
      "outputs": [
        {
          "internalType": "uint64",
          "name": "",
          "type": "uint64"
        }
      ],
      "stateMutability": "view",
      "type": "function"
    },
    {
      "inputs": [],
      "name": "deficitAuctionLotSize",
      "outputs": [
        {
          "internalType": "uint256",
          "name": "",
          "type": "uint256"
        }
      ],
      "stateMutability": "view",
      "type": "function"
    },
    {
      "inputs": [
        {
          "internalType": "uint64",
          "name": "auctionID",
          "type": "uint64"
        }
      ],
      "name": "deficitAuctionReadyToBeSettled",
      "outputs": [
        {
          "internalType": "bool",
          "name": "complete",
          "type": "bool"
        }
      ],
      "stateMutability": "view",
      "type": "function"
    },
    {
      "inputs": [],
      "name": "extensionPerBid",
      "outputs": [
        {
          "internalType": "uint64",
          "name": "",
          "type": "uint64"
        }
      ],
      "stateMutability": "view",
      "type": "function"
    },
    {
      "inputs": [],
      "name": "governor",
      "outputs": [
        {
          "internalType": "contract IGovernor",
          "name": "",
          "type": "address"
        }
      ],
      "stateMutability": "view",
      "type": "function"
    },
    {
      "inputs": [
        {
          "internalType": "contract IGovernor",
          "name": "governor_",
          "type": "address"
        }
      ],
      "name": "init",
      "outputs": [],
      "stateMutability": "nonpayable",
      "type": "function"
    },
    {
      "inputs": [],
      "name": "lastAuctionCompletionTime",
      "outputs": [
        {
          "internalType": "uint64",
          "name": "",
          "type": "uint64"
        }
      ],
      "stateMutability": "view",
      "type": "function"
    },
    {
      "inputs": [],
      "name": "maxAuctionDuration",
      "outputs": [
        {
          "internalType": "uint64",
          "name": "",
          "type": "uint64"
        }
      ],
      "stateMutability": "view",
      "type": "function"
    },
    {
      "inputs": [],
      "name": "minAuctionDuration",
      "outputs": [
        {
          "internalType": "uint64",
          "name": "",
          "type": "uint64"
        }
      ],
      "stateMutability": "view",
      "type": "function"
    },
    {
      "inputs": [],
      "name": "minAuctionLotSize",
      "outputs": [
        {
          "internalType": "uint256",
          "name": "",
          "type": "uint256"
        }
      ],
      "stateMutability": "view",
      "type": "function"
    },
    {
      "inputs": [],
      "name": "minBidDelta",
      "outputs": [
        {
          "internalType": "uint256",
          "name": "",
          "type": "uint256"
        }
      ],
      "stateMutability": "view",
      "type": "function"
    },
    {
      "inputs": [],
      "name": "oldestDeficitAuction",
      "outputs": [
        {
          "internalType": "uint64",
          "name": "",
          "type": "uint64"
        }
      ],
      "stateMutability": "view",
      "type": "function"
    },
    {
      "inputs": [],
      "name": "oldestSurplusAuction",
      "outputs": [
        {
          "internalType": "uint64",
          "name": "",
          "type": "uint64"
        }
      ],
      "stateMutability": "view",
      "type": "function"
    },
    {
      "inputs": [],
      "name": "reservesBufferLowerBound",
      "outputs": [
        {
          "internalType": "uint256",
          "name": "",
          "type": "uint256"
        }
      ],
      "stateMutability": "view",
      "type": "function"
    },
    {
      "inputs": [],
      "name": "reservesBufferUpperBound",
      "outputs": [
        {
          "internalType": "uint256",
          "name": "",
          "type": "uint256"
        }
      ],
      "stateMutability": "view",
      "type": "function"
    },
    {
      "inputs": [
        {
          "internalType": "uint64",
          "name": "size",
          "type": "uint64"
        }
      ],
      "name": "setBatchSize",
      "outputs": [],
      "stateMutability": "nonpayable",
      "type": "function"
    },
    {
      "inputs": [
        {
          "internalType": "uint256",
          "name": "ratio",
          "type": "uint256"
        }
      ],
      "name": "setCleanerRewardRatio",
      "outputs": [],
      "stateMutability": "nonpayable",
      "type": "function"
    },
    {
      "inputs": [
        {
          "internalType": "uint256",
          "name": "ratio",
          "type": "uint256"
        }
      ],
      "name": "setCreatorRewardRatio",
      "outputs": [],
      "stateMutability": "nonpayable",
      "type": "function"
    },
    {
      "inputs": [
        {
          "internalType": "uint256",
          "name": "size",
          "type": "uint256"
        }
      ],
      "name": "setDeficitAuctionLotSize",
      "outputs": [],
      "stateMutability": "nonpayable",
      "type": "function"
    },
    {
      "inputs": [
        {
          "internalType": "uint64",
          "name": "extension",
          "type": "uint64"
        }
      ],
      "name": "setExtensionPerBid",
      "outputs": [],
      "stateMutability": "nonpayable",
      "type": "function"
    },
    {
      "inputs": [
        {
          "internalType": "uint64",
          "name": "duration",
          "type": "uint64"
        }
      ],
      "name": "setMaxAuctionDuration",
      "outputs": [],
      "stateMutability": "nonpayable",
      "type": "function"
    },
    {
      "inputs": [
        {
          "internalType": "uint64",
          "name": "duration",
          "type": "uint64"
        }
      ],
      "name": "setMinAuctionDuration",
      "outputs": [],
      "stateMutability": "nonpayable",
      "type": "function"
    },
    {
      "inputs": [
        {
          "internalType": "uint256",
          "name": "size",
          "type": "uint256"
        }
      ],
      "name": "setMinAuctionLotSize",
      "outputs": [],
      "stateMutability": "nonpayable",
      "type": "function"
    },
    {
      "inputs": [
        {
          "internalType": "uint256",
          "name": "delta",
          "type": "uint256"
        }
      ],
      "name": "setMinBidDelta",
      "outputs": [],
      "stateMutability": "nonpayable",
      "type": "function"
    },
    {
      "inputs": [
        {
          "internalType": "uint256",
          "name": "bound",
          "type": "uint256"
        }
      ],
      "name": "setReservesBufferLowerBound",
      "outputs": [],
      "stateMutability": "nonpayable",
      "type": "function"
    },
    {
      "inputs": [
        {
          "internalType": "uint256",
          "name": "bound",
          "type": "uint256"
        }
      ],
      "name": "setReservesBufferUpperBound",
      "outputs": [],
      "stateMutability": "nonpayable",
      "type": "function"
    },
    {
      "inputs": [
        {
          "internalType": "uint256",
          "name": "size",
          "type": "uint256"
        }
      ],
      "name": "setSurplusAuctionLotSize",
      "outputs": [],
      "stateMutability": "nonpayable",
      "type": "function"
    },
    {
      "inputs": [
        {
          "internalType": "uint64",
          "name": "auctionID",
          "type": "uint64"
        }
      ],
      "name": "settleDeficitAuction",
      "outputs": [],
      "stateMutability": "nonpayable",
      "type": "function"
    },
    {
      "inputs": [
        {
          "internalType": "uint64",
          "name": "auctionID",
          "type": "uint64"
        }
      ],
      "name": "settleSurplusAuction",
      "outputs": [],
      "stateMutability": "nonpayable",
      "type": "function"
    },
    {
      "inputs": [],
      "name": "shouldStartAuctions",
      "outputs": [
        {
          "internalType": "uint256",
          "name": "surplusAmount",
          "type": "uint256"
        },
        {
          "internalType": "uint256",
          "name": "deficitAmount",
          "type": "uint256"
        }
      ],
      "stateMutability": "view",
      "type": "function"
    },
    {
      "inputs": [],
      "name": "stop",
      "outputs": [],
      "stateMutability": "nonpayable",
      "type": "function"
    },
    {
      "inputs": [
        {
          "internalType": "uint64",
          "name": "",
          "type": "uint64"
        }
      ],
      "name": "surplusAuction",
      "outputs": [
        {
          "internalType": "uint256",
          "name": "bid",
          "type": "uint256"
        },
        {
          "internalType": "uint256",
          "name": "count",
          "type": "uint256"
        },
        {
          "internalType": "uint64",
          "name": "endTime",
          "type": "uint64"
        },
        {
          "internalType": "address",
          "name": "bidder",
          "type": "address"
        },
        {
          "internalType": "uint64",
          "name": "maxEndTime",
          "type": "uint64"
        },
        {
          "internalType": "address",
          "name": "creator",
          "type": "address"
        }
      ],
      "stateMutability": "view",
      "type": "function"
    },
    {
      "inputs": [],
      "name": "surplusAuctionCount",
      "outputs": [
        {
          "internalType": "uint64",
          "name": "",
          "type": "uint64"
        }
      ],
      "stateMutability": "view",
      "type": "function"
    },
    {
      "inputs": [],
      "name": "surplusAuctionLotSize",
      "outputs": [
        {
          "internalType": "uint256",
          "name": "",
          "type": "uint256"
        }
      ],
      "stateMutability": "view",
      "type": "function"
    },
    {
      "inputs": [
        {
          "internalType": "uint64",
          "name": "auctionID",
          "type": "uint64"
        }
      ],
      "name": "surplusAuctionReadyToBeSettled",
      "outputs": [
        {
          "internalType": "bool",
          "name": "complete",
          "type": "bool"
        }
      ],
      "stateMutability": "view",
      "type": "function"
    }
  ],
  "bytecode": "0x6080604052670e4b4b8af6a700006007556611c37937e080006008556611c37937e08000600955683635c9adc5dea00000600a5569021e19e0c9bab2400000600b5569021e19e0c9bab2400000600c5566470de4df820000600d5566d529ae9e860000600e55600a600f60006101000a81548167ffffffffffffffff021916908367ffffffffffffffff160217905550610708600f60086101000a81548167ffffffffffffffff021916908367ffffffffffffffff16021790555061a8c0600f60106101000a81548167ffffffffffffffff021916908367ffffffffffffffff1602179055506201fa40600f60186101000a81548167ffffffffffffffff021916908367ffffffffffffffff16021790555034801561011d57600080fd5b5033600560006101000a81548173ffffffffffffffffffffffffffffffffffffffff021916908373ffffffffffffffffffffffffffffffffffffffff160217905550600160068190555061608f80620001776000396000f3fe608060405234801561001057600080fd5b50600436106102ff5760003560e01c80636705be0f1161019c578063c2b6722a116100ee578063ee3528f011610097578063fac98b3a11610071578063fac98b3a14610b1d578063faf95d2d14610b45578063fd9ada6c14610b6d576102ff565b8063ee3528f014610aa9578063f3789b1614610ac7578063f4daaba114610af5576102ff565b8063dbdd1131116100c8578063dbdd113114610a2f578063ddf31e6714610a5d578063dff2d3bb14610a8b576102ff565b8063c2b6722a146109b1578063c90a5515146109d9578063d005d2eb146109f7576102ff565b80638d1fede411610150578063a958c0331161012a578063a958c03314610931578063af2ed5861461093b578063bd54f41214610989576102ff565b80638d1fede41461089d57806399eeec95146108bb578063a4f00883146108ef576102ff565b806375d0ef521161018157806375d0ef521461080f5780637eb12af714610847578063887c67d91461086f576102ff565b80636705be0f146107b357806369071acc146107e1576102ff565b806348c9581e1161025557806354134876116102095780635a35ef07116101e35780635a35ef07146106c8578063616cb0cf146106e6578063651cf64d14610704576102ff565b8063541348761461066457806354cccf081461068c57806354f634fb146106aa576102ff565b80634ae8470d1161023a5780634ae8470d146105d05780634d2025fa146105fe57806350a2f0a814610636576102ff565b806348c9581e146105705780634a2304b114610598576102ff565b80632e748d55116102b757806337ca44fc1161029157806337ca44fc146104fc5780633a9b6579146105345780633db966a614610552576102ff565b80632e748d55146103e35780632f69e0aa146104255780633427c4ef1461044d576102ff565b80630fb4e2b3116102e85780630fb4e2b31461034257806319ab453c1461037a57806325df9538146103be576102ff565b806307da68f5146103045780630c340a241461030e575b600080fd5b61030c610bbb565b005b610316610c86565b604051808273ffffffffffffffffffffffffffffffffffffffff16815260200191505060405180910390f35b6103786004803603602081101561035857600080fd5b81019080803567ffffffffffffffff169060200190929190505050610caa565b005b6103bc6004803603602081101561039057600080fd5b81019080803573ffffffffffffffffffffffffffffffffffffffff169060200190929190505050610e0e565b005b6103c6611308565b604051808381526020018281526020019250505060405180910390f35b610423600480360360408110156103f957600080fd5b81019080803567ffffffffffffffff16906020019092919080359060200190929190505050611767565b005b61042d611f9f565b604051808267ffffffffffffffff16815260200191505060405180910390f35b6104836004803603602081101561046357600080fd5b81019080803567ffffffffffffffff169060200190929190505050611fb9565b604051808781526020018681526020018567ffffffffffffffff1681526020018473ffffffffffffffffffffffffffffffffffffffff1681526020018367ffffffffffffffff1681526020018273ffffffffffffffffffffffffffffffffffffffff168152602001965050505050505060405180910390f35b6105326004803603602081101561051257600080fd5b81019080803567ffffffffffffffff16906020019092919050505061205d565b005b61053c61220d565b6040518082815260200191505060405180910390f35b61055a612213565b6040518082815260200191505060405180910390f35b610578612219565b604051808267ffffffffffffffff16815260200191505060405180910390f35b6105ce600480360360208110156105ae57600080fd5b81019080803567ffffffffffffffff169060200190929190505050612233565b005b6105fc600480360360208110156105e657600080fd5b8101908080359060200190929190505050612a74565b005b6106346004803603602081101561061457600080fd5b81019080803567ffffffffffffffff169060200190929190505050612bd2565b005b6106626004803603602081101561064c57600080fd5b8101908080359060200190929190505050612d64565b005b61066c612eb2565b604051808267ffffffffffffffff16815260200191505060405180910390f35b610694612ecc565b6040518082815260200191505060405180910390f35b6106b2612ed2565b6040518082815260200191505060405180910390f35b6106d0612ed8565b6040518082815260200191505060405180910390f35b6106ee612ede565b6040518082815260200191505060405180910390f35b61073a6004803603602081101561071a57600080fd5b81019080803567ffffffffffffffff169060200190929190505050612ee4565b604051808781526020018681526020018567ffffffffffffffff1681526020018473ffffffffffffffffffffffffffffffffffffffff1681526020018367ffffffffffffffff1681526020018273ffffffffffffffffffffffffffffffffffffffff168152602001965050505050505060405180910390f35b6107df600480360360208110156107c957600080fd5b8101908080359060200190929190505050612f88565b005b61080d600480360360208110156107f757600080fd5b81019080803590602001909291905050506130d0565b005b6108456004803603602081101561082557600080fd5b81019080803567ffffffffffffffff169060200190929190505050613218565b005b61084f6133c8565b604051808267ffffffffffffffff16815260200191505060405180910390f35b61089b6004803603602081101561088557600080fd5b81019080803590602001909291905050506133e2565b005b6108a561352a565b6040518082815260200191505060405180910390f35b6108c3613530565b604051808273ffffffffffffffffffffffffffffffffffffffff16815260200191505060405180910390f35b61092f6004803603604081101561090557600080fd5b81019080803567ffffffffffffffff16906020019092919080359060200190929190505050613556565b005b610939613d81565b005b6109716004803603602081101561095157600080fd5b81019080803567ffffffffffffffff16906020019092919050505061413c565b60405180821515815260200191505060405180910390f35b610991614189565b604051808267ffffffffffffffff16815260200191505060405180910390f35b6109b96141a3565b604051808267ffffffffffffffff16815260200191505060405180910390f35b6109e16141bd565b6040518082815260200191505060405180910390f35b610a2d60048036036020811015610a0d57600080fd5b81019080803567ffffffffffffffff1690602001909291905050506141c3565b005b610a5b60048036036020811015610a4557600080fd5b81019080803590602001909291905050506149e5565b005b610a8960048036036020811015610a7357600080fd5b8101908080359060200190929190505050614b33565b005b610a93614c81565b6040518082815260200191505060405180910390f35b610ab1614c87565b6040518082815260200191505060405180910390f35b610af360048036036020811015610add57600080fd5b8101908080359060200190929190505050614c8d565b005b610afd614df4565b604051808267ffffffffffffffff16815260200191505060405180910390f35b610b25614e0e565b604051808267ffffffffffffffff16815260200191505060405180910390f35b610b4d614e28565b604051808267ffffffffffffffff16815260200191505060405180910390f35b610ba360048036036020811015610b8357600080fd5b81019080803567ffffffffffffffff169060200190929190505050614e42565b60405180821515815260200191505060405180910390f35b60008054906101000a900473ffffffffffffffffffffffffffffffffffffffff1673ffffffffffffffffffffffffffffffffffffffff163373ffffffffffffffffffffffffffffffffffffffff1614610c7c576040517f08c379a00000000000000000000000000000000000000000000000000000000081526004018080602001828103825260198152602001807f476f7665726e65643a204e6f7420417574686f72697a65642e0000000000000081525060200191505060405180910390fd5b610c84614e8f565b565b60008054906101000a900473ffffffffffffffffffffffffffffffffffffffff1681565b60008054906101000a900473ffffffffffffffffffffffffffffffffffffffff1673ffffffffffffffffffffffffffffffffffffffff163373ffffffffffffffffffffffffffffffffffffffff1614610d6b576040517f08c379a00000000000000000000000000000000000000000000000000000000081526004018080602001828103825260198152602001807f476f7665726e65643a204e6f7420417574686f72697a65642e0000000000000081525060200191505060405180910390fd5b80600f60086101000a81548167ffffffffffffffff021916908367ffffffffffffffff16021790555060405180807f657874656e73696f6e5065724269640000000000000000000000000000000000815250600f01905060405180910390207f6293347933ad2997134e224ac8cd2e39908a4a22aeed9af52127b4bbf765297882604051808267ffffffffffffffff16815260200191505060405180910390a250565b600560009054906101000a900473ffffffffffffffffffffffffffffffffffffffff1673ffffffffffffffffffffffffffffffffffffffff163373ffffffffffffffffffffffffffffffffffffffff1614610ed1576040517f08c379a000000000000000000000000000000000000000000000000000000000815260040180806020018281038252601e8152602001807f476f7665726e65643a20496e6974206e6f7420617574686f72697a65642e000081525060200191505060405180910390fd5b600560006101000a81549073ffffffffffffffffffffffffffffffffffffffff02191690558073ffffffffffffffffffffffffffffffffffffffff167f908408e307fc569b417f6cbec5d5a06f44a0a505ac0479b47d421a4b2fd6a1e660405160405180910390a2806000806101000a81548173ffffffffffffffffffffffffffffffffffffffff021916908373ffffffffffffffffffffffffffffffffffffffff16021790555060008054906101000a900473ffffffffffffffffffffffffffffffffffffffff1673ffffffffffffffffffffffffffffffffffffffff16639624e83e6040518163ffffffff1660e01b815260040160206040518083038186803b158015610fdf57600080fd5b505afa158015610ff3573d6000803e3d6000fd5b505050506040513d602081101561100957600080fd5b8101908080519060200190929190505050600160006101000a81548173ffffffffffffffffffffffffffffffffffffffff021916908373ffffffffffffffffffffffffffffffffffffffff16021790555060008054906101000a900473ffffffffffffffffffffffffffffffffffffffff1673ffffffffffffffffffffffffffffffffffffffff166311df99956040518163ffffffff1660e01b815260040160206040518083038186803b1580156110c057600080fd5b505afa1580156110d4573d6000803e3d6000fd5b505050506040513d60208110156110ea57600080fd5b8101908080519060200190929190505050600260006101000a81548173ffffffffffffffffffffffffffffffffffffffff021916908373ffffffffffffffffffffffffffffffffffffffff16021790555060008054906101000a900473ffffffffffffffffffffffffffffffffffffffff1673ffffffffffffffffffffffffffffffffffffffff1663d478b0876040518163ffffffff1660e01b815260040160206040518083038186803b1580156111a157600080fd5b505afa1580156111b5573d6000803e3d6000fd5b505050506040513d60208110156111cb57600080fd5b8101908080519060200190929190505050600360006101000a81548173ffffffffffffffffffffffffffffffffffffffff021916908373ffffffffffffffffffffffffffffffffffffffff16021790555060008054906101000a900473ffffffffffffffffffffffffffffffffffffffff1673ffffffffffffffffffffffffffffffffffffffff16633fc8cef36040518163ffffffff1660e01b815260040160206040518083038186803b15801561128257600080fd5b505afa158015611296573d6000803e3d6000fd5b505050506040513d60208110156112ac57600080fd5b8101908080519060200190929190505050600460006101000a81548173ffffffffffffffffffffffffffffffffffffffff021916908373ffffffffffffffffffffffffffffffffffffffff160217905550611305614ed8565b50565b6000803073ffffffffffffffffffffffffffffffffffffffff1660008054906101000a900473ffffffffffffffffffffffffffffffffffffffff1673ffffffffffffffffffffffffffffffffffffffff166385aa61036040518163ffffffff1660e01b815260040160206040518083038186803b15801561138857600080fd5b505afa15801561139c573d6000803e3d6000fd5b505050506040513d60208110156113b257600080fd5b810190808051906020019092919050505073ffffffffffffffffffffffffffffffffffffffff161461144c576040517f08c379a000000000000000000000000000000000000000000000000000000000815260040180806020018281038252601d8152602001807f557365206c61746573742041756374696f6e7320636f6e74726163742e00000081525060200191505060405180910390fd5b60008060009054906101000a900473ffffffffffffffffffffffffffffffffffffffff1673ffffffffffffffffffffffffffffffffffffffff166311df99956040518163ffffffff1660e01b815260040160206040518083038186803b1580156114b557600080fd5b505afa1580156114c9573d6000803e3d6000fd5b505050506040513d60208110156114df57600080fd5b810190808051906020019092919050505073ffffffffffffffffffffffffffffffffffffffff166375172a8b6040518163ffffffff1660e01b815260040160206040518083038186803b15801561153557600080fd5b505afa158015611549573d6000803e3d6000fd5b505050506040513d602081101561155f57600080fd5b8101908080519060200190929190505050905060008060009054906101000a900473ffffffffffffffffffffffffffffffffffffffff1673ffffffffffffffffffffffffffffffffffffffff16639624e83e6040518163ffffffff1660e01b815260040160206040518083038186803b1580156115db57600080fd5b505afa1580156115ef573d6000803e3d6000fd5b505050506040513d602081101561160557600080fd5b810190808051906020019092919050505073ffffffffffffffffffffffffffffffffffffffff16630dca59c16040518163ffffffff1660e01b815260040160206040518083038186803b15801561165b57600080fd5b505afa15801561166f573d6000803e3d6000fd5b505050506040513d602081101561168557600080fd5b8101908080519060200190929190505050905060006116af600e5483614fbb90919063ffffffff16565b905060006116c8600d5484614fbb90919063ffffffff16565b90506000600a6116e1838561505a90919063ffffffff16565b816116e857fe5b049050826117016014548761505a90919063ffffffff16565b1115611726578083601454870303019650600a5487101561172157600096505b61175e565b8161173c601554876150a490919063ffffffff16565b101561175d578060155486018303019550600a5486101561175c57600095505b5b5b50505050509091565b600360009054906101000a900473ffffffffffffffffffffffffffffffffffffffff1673ffffffffffffffffffffffffffffffffffffffff1663e97dcb626040518163ffffffff1660e01b8152600401600060405180830381600087803b1580156117d157600080fd5b505af11580156117e5573d6000803e3d6000fd5b5050505060026006541415611862576040517f08c379a000000000000000000000000000000000000000000000000000000000815260040180806020018281038252601d8152602001807f4c6f636b50726f746f636f6c3a207265656e7472616e742063616c6c2e00000081525060200191505060405180910390fd5b6002600681905550600460149054906101000a900460ff16156118ed576040517f08c379a000000000000000000000000000000000000000000000000000000000815260040180806020018281038252601e8152602001807f476f7665726e65643a20436f6e74726163742069732073746f707065642e000081525060200191505060405180910390fd5b60008054906101000a900473ffffffffffffffffffffffffffffffffffffffff1673ffffffffffffffffffffffffffffffffffffffff1663bf86d6906040518163ffffffff1660e01b815260040160206040518083038186803b15801561195357600080fd5b505afa158015611967573d6000803e3d6000fd5b505050506040513d602081101561197d57600080fd5b8101908080519060200190929190505050156119e4576040517f08c379a0000000000000000000000000000000000000000000000000000000008152600401808060200182810382526028815260200180615feb6028913960400191505060405180910390fd5b6119ed8261512c565b6000601060008467ffffffffffffffff1667ffffffffffffffff1681526020019081526020016000209050611a21816151aa565b15611a94576040517f08c379a000000000000000000000000000000000000000000000000000000000815260040180806020018281038252601e8152602001807f41756374696f6e20636f6d706c6574652e2043616c6c20736574746c652e000081525060200191505060405180910390fd5b60008160020160089054906101000a900473ffffffffffffffffffffffffffffffffffffffff169050600082600001549050600080600073ffffffffffffffffffffffffffffffffffffffff168473ffffffffffffffffffffffffffffffffffffffff161415611b92576103e8611b0e8660010154615224565b81611b1557fe5b048611611b8a576040517f08c379a000000000000000000000000000000000000000000000000000000000815260040180806020018281038252600c8152602001807f42696420746f6f206c6f772e000000000000000000000000000000000000000081525060200191505060405180910390fd5b859150611c35565b611ba760075484614fbb90919063ffffffff16565b861015611c1c576040517f08c379a00000000000000000000000000000000000000000000000000000000081526004018080602001828103825260108152602001807f446964206e6f74206f7574206269642e0000000000000000000000000000000081525060200191505060405180910390fd5b829050611c32838761505a90919063ffffffff16565b91505b6000611c56600f60089054906101000a900467ffffffffffffffff16615386565b90508067ffffffffffffffff168660020160009054906101000a900467ffffffffffffffff1667ffffffffffffffff161015611cb857808660020160006101000a81548167ffffffffffffffff021916908367ffffffffffffffff1602179055505b338660020160086101000a81548173ffffffffffffffffffffffffffffffffffffffff021916908373ffffffffffffffffffffffffffffffffffffffff16021790555086866000018190555060008314611db857601660009054906101000a900473ffffffffffffffffffffffffffffffffffffffff1673ffffffffffffffffffffffffffffffffffffffff166379cc679033856040518363ffffffff1660e01b8152600401808373ffffffffffffffffffffffffffffffffffffffff16815260200182815260200192505050600060405180830381600087803b158015611d9f57600080fd5b505af1158015611db3573d6000803e3d6000fd5b505050505b60008214611eae57601660009054906101000a900473ffffffffffffffffffffffffffffffffffffffff1673ffffffffffffffffffffffffffffffffffffffff166323b872dd3387856040518463ffffffff1660e01b8152600401808473ffffffffffffffffffffffffffffffffffffffff1681526020018373ffffffffffffffffffffffffffffffffffffffff1681526020018281526020019350505050602060405180830381600087803b158015611e7157600080fd5b505af1158015611e85573d6000803e3d6000fd5b505050506040513d6020811015611e9b57600080fd5b8101908080519060200190929190505050505b3373ffffffffffffffffffffffffffffffffffffffff168867ffffffffffffffff16600115157f4042f92f7a93056a4ed1492b7b5a495196ea67839a5934acc9a0d2e59d543d948a6040518082815260200191505060405180910390a45050505050506001600681905550600360009054906101000a900473ffffffffffffffffffffffffffffffffffffffff1673ffffffffffffffffffffffffffffffffffffffff1663e9fad8ee6040518163ffffffff1660e01b8152600401600060405180830381600087803b158015611f8357600080fd5b505af1158015611f97573d6000803e3d6000fd5b505050505050565b601360009054906101000a900467ffffffffffffffff1681565b60106020528060005260406000206000915090508060000154908060010154908060020160009054906101000a900467ffffffffffffffff16908060020160089054906101000a900473ffffffffffffffffffffffffffffffffffffffff16908060030160009054906101000a900467ffffffffffffffff16908060030160089054906101000a900473ffffffffffffffffffffffffffffffffffffffff16905086565b60008054906101000a900473ffffffffffffffffffffffffffffffffffffffff1673ffffffffffffffffffffffffffffffffffffffff163373ffffffffffffffffffffffffffffffffffffffff161461211e576040517f08c379a00000000000000000000000000000000000000000000000000000000081526004018080602001828103825260198152602001807f476f7665726e65643a204e6f7420417574686f72697a65642e0000000000000081525060200191505060405180910390fd5b80600f60186101000a81548167ffffffffffffffff021916908367ffffffffffffffff160217905550600f60189054906101000a900467ffffffffffffffff1667ffffffffffffffff16600f60109054906101000a900467ffffffffffffffff1667ffffffffffffffff161061219357600080fd5b60405180807f6d617841756374696f6e4475726174696f6e0000000000000000000000000000815250601201905060405180910390207f6293347933ad2997134e224ac8cd2e39908a4a22aeed9af52127b4bbf765297882604051808267ffffffffffffffff16815260200191505060405180910390a250565b600b5481565b60155481565b600f60189054906101000a900467ffffffffffffffff1681565b600360009054906101000a900473ffffffffffffffffffffffffffffffffffffffff1673ffffffffffffffffffffffffffffffffffffffff1663e97dcb626040518163ffffffff1660e01b8152600401600060405180830381600087803b15801561229d57600080fd5b505af11580156122b1573d6000803e3d6000fd5b505050506002600654141561232e576040517f08c379a000000000000000000000000000000000000000000000000000000000815260040180806020018281038252601d8152602001807f4c6f636b50726f746f636f6c3a207265656e7472616e742063616c6c2e00000081525060200191505060405180910390fd5b6002600681905550600460149054906101000a900460ff16156123b9576040517f08c379a00000000000000000000000000000000000000000000000000000000081526004018080602001828103825260148152602001807f436f6e74726163742069732073746f707065642e00000000000000000000000081525060200191505060405180910390fd5b6123c2816153b3565b6000601160008367ffffffffffffffff1667ffffffffffffffff16815260200190815260200160002090506123f6816151aa565b612468576040517f08c379a00000000000000000000000000000000000000000000000000000000081526004018080602001828103825260138152602001807f41756374696f6e20696e636f6d706c6574652e0000000000000000000000000081525060200191505060405180910390fd5b60008160020160089054906101000a900473ffffffffffffffffffffffffffffffffffffffff16905060008073ffffffffffffffffffffffffffffffffffffffff168273ffffffffffffffffffffffffffffffffffffffff16146124d05782600001546124de565b6124dd8360010154615224565b5b905060008054906101000a900473ffffffffffffffffffffffffffffffffffffffff1673ffffffffffffffffffffffffffffffffffffffff1663a99acb178460030160089054906101000a900473ffffffffffffffffffffffffffffffffffffffff1661255660085485614fbb90919063ffffffff16565b6040518363ffffffff1660e01b8152600401808373ffffffffffffffffffffffffffffffffffffffff16815260200182815260200192505050600060405180830381600087803b1580156125a957600080fd5b505af11580156125bd573d6000803e3d6000fd5b5050505060008054906101000a900473ffffffffffffffffffffffffffffffffffffffff1673ffffffffffffffffffffffffffffffffffffffff1663a99acb173361261360095485614fbb90919063ffffffff16565b6040518363ffffffff1660e01b8152600401808373ffffffffffffffffffffffffffffffffffffffff16815260200182815260200192505050600060405180830381600087803b15801561266657600080fd5b505af115801561267a573d6000803e3d6000fd5b50505050600073ffffffffffffffffffffffffffffffffffffffff168273ffffffffffffffffffffffffffffffffffffffff1614156126d7576126cc836001015460155461505a90919063ffffffff16565b601581905550612785565b60008054906101000a900473ffffffffffffffffffffffffffffffffffffffff1673ffffffffffffffffffffffffffffffffffffffff1663a99acb178385600001546040518363ffffffff1660e01b8152600401808373ffffffffffffffffffffffffffffffffffffffff16815260200182815260200192505050600060405180830381600087803b15801561276c57600080fd5b505af1158015612780573d6000803e3d6000fd5b505050505b601160008567ffffffffffffffff1667ffffffffffffffff16815260200190815260200160002060008082016000905560018201600090556002820160006101000a81549067ffffffffffffffff02191690556002820160086101000a81549073ffffffffffffffffffffffffffffffffffffffff02191690556003820160006101000a81549067ffffffffffffffff02191690556003820160086101000a81549073ffffffffffffffffffffffffffffffffffffffff0219169055505060006128b561287c600a601260189054906101000a900467ffffffffffffffff1667ffffffffffffffff1661543190919063ffffffff16565b67ffffffffffffffff16601260109054906101000a900467ffffffffffffffff1667ffffffffffffffff166154cd90919063ffffffff16565b90506000601260189054906101000a900467ffffffffffffffff1690505b818167ffffffffffffffff161080156128f257506128f0816154e6565b155b156129045780806001019150506128d3565b80601260186101000a81548167ffffffffffffffff021916908367ffffffffffffffff1602179055508373ffffffffffffffffffffffffffffffffffffffff168667ffffffffffffffff16600015157f0a482bfa50a79be0b248d777bc647874333f7d9b7d6a33ce58fe00db2c14e3bf8860030160089054906101000a900473ffffffffffffffffffffffffffffffffffffffff1633604051808373ffffffffffffffffffffffffffffffffffffffff1681526020018273ffffffffffffffffffffffffffffffffffffffff1681526020019250505060405180910390a450505050506001600681905550600360009054906101000a900473ffffffffffffffffffffffffffffffffffffffff1673ffffffffffffffffffffffffffffffffffffffff1663e9fad8ee6040518163ffffffff1660e01b8152600401600060405180830381600087803b158015612a5957600080fd5b505af1158015612a6d573d6000803e3d6000fd5b5050505050565b60008054906101000a900473ffffffffffffffffffffffffffffffffffffffff1673ffffffffffffffffffffffffffffffffffffffff163373ffffffffffffffffffffffffffffffffffffffff1614612b35576040517f08c379a00000000000000000000000000000000000000000000000000000000081526004018080602001828103825260198152602001807f476f7665726e65643a204e6f7420417574686f72697a65642e0000000000000081525060200191505060405180910390fd5b80600e81905550600e54600d5410612b4c57600080fd5b670de0b6b3a7640000600e5410612b6257600080fd5b60405180807f72657365727665734275666665725570706572426f756e640000000000000000815250601801905060405180910390207f3a64504f0bc0c335e2aecb78638a257e0351a3fe0370861fd54ee4190b920933826040518082815260200191505060405180910390a250565b60008054906101000a900473ffffffffffffffffffffffffffffffffffffffff1673ffffffffffffffffffffffffffffffffffffffff163373ffffffffffffffffffffffffffffffffffffffff1614612c93576040517f08c379a00000000000000000000000000000000000000000000000000000000081526004018080602001828103825260198152602001807f476f7665726e65643a204e6f7420417574686f72697a65642e0000000000000081525060200191505060405180910390fd5b80600f60006101000a81548167ffffffffffffffff021916908367ffffffffffffffff1602179055506000600f60009054906101000a900467ffffffffffffffff1667ffffffffffffffff161415612cea57600080fd5b60405180807f626174636853697a650000000000000000000000000000000000000000000000815250600901905060405180910390207f6293347933ad2997134e224ac8cd2e39908a4a22aeed9af52127b4bbf765297882604051808267ffffffffffffffff16815260200191505060405180910390a250565b60008054906101000a900473ffffffffffffffffffffffffffffffffffffffff1673ffffffffffffffffffffffffffffffffffffffff163373ffffffffffffffffffffffffffffffffffffffff1614612e25576040517f08c379a00000000000000000000000000000000000000000000000000000000081526004018080602001828103825260198152602001807f476f7665726e65643a204e6f7420417574686f72697a65642e0000000000000081525060200191505060405180910390fd5b80600881905550670de0b6b3a764000060085410612e4257600080fd5b60405180807f63726561746f72526577617264526174696f0000000000000000000000000000815250601201905060405180910390207f3a64504f0bc0c335e2aecb78638a257e0351a3fe0370861fd54ee4190b920933826040518082815260200191505060405180910390a250565b600f60109054906101000a900467ffffffffffffffff1681565b600e5481565b60075481565b600a5481565b600d5481565b60116020528060005260406000206000915090508060000154908060010154908060020160009054906101000a900467ffffffffffffffff16908060020160089054906101000a900473ffffffffffffffffffffffffffffffffffffffff16908060030160009054906101000a900467ffffffffffffffff16908060030160089054906101000a900473ffffffffffffffffffffffffffffffffffffffff16905086565b60008054906101000a900473ffffffffffffffffffffffffffffffffffffffff1673ffffffffffffffffffffffffffffffffffffffff163373ffffffffffffffffffffffffffffffffffffffff1614613049576040517f08c379a00000000000000000000000000000000000000000000000000000000081526004018080602001828103825260198152602001807f476f7665726e65643a204e6f7420417574686f72697a65642e0000000000000081525060200191505060405180910390fd5b80600b81905550600b54600a541061306057600080fd5b60405180807f737572706c757341756374696f6e4c6f7453697a650000000000000000000000815250601501905060405180910390207f3a64504f0bc0c335e2aecb78638a257e0351a3fe0370861fd54ee4190b920933826040518082815260200191505060405180910390a250565b60008054906101000a900473ffffffffffffffffffffffffffffffffffffffff1673ffffffffffffffffffffffffffffffffffffffff163373ffffffffffffffffffffffffffffffffffffffff1614613191576040517f08c379a00000000000000000000000000000000000000000000000000000000081526004018080602001828103825260198152602001807f476f7665726e65643a204e6f7420417574686f72697a65642e0000000000000081525060200191505060405180910390fd5b80600c81905550600c54600a54106131a857600080fd5b60405180807f6465666963697441756374696f6e4c6f7453697a650000000000000000000000815250601501905060405180910390207f3a64504f0bc0c335e2aecb78638a257e0351a3fe0370861fd54ee4190b920933826040518082815260200191505060405180910390a250565b60008054906101000a900473ffffffffffffffffffffffffffffffffffffffff1673ffffffffffffffffffffffffffffffffffffffff163373ffffffffffffffffffffffffffffffffffffffff16146132d9576040517f08c379a00000000000000000000000000000000000000000000000000000000081526004018080602001828103825260198152602001807f476f7665726e65643a204e6f7420417574686f72697a65642e0000000000000081525060200191505060405180910390fd5b80600f60106101000a81548167ffffffffffffffff021916908367ffffffffffffffff160217905550600f60189054906101000a900467ffffffffffffffff1667ffffffffffffffff16600f60109054906101000a900467ffffffffffffffff1667ffffffffffffffff161061334e57600080fd5b60405180807f6d696e41756374696f6e4475726174696f6e0000000000000000000000000000815250601201905060405180910390207f6293347933ad2997134e224ac8cd2e39908a4a22aeed9af52127b4bbf765297882604051808267ffffffffffffffff16815260200191505060405180910390a250565b601260109054906101000a900467ffffffffffffffff1681565b60008054906101000a900473ffffffffffffffffffffffffffffffffffffffff1673ffffffffffffffffffffffffffffffffffffffff163373ffffffffffffffffffffffffffffffffffffffff16146134a3576040517f08c379a00000000000000000000000000000000000000000000000000000000081526004018080602001828103825260198152602001807f476f7665726e65643a204e6f7420417574686f72697a65642e0000000000000081525060200191505060405180910390fd5b80600d81905550600e54600d54106134ba57600080fd5b60405180807f72657365727665734275666665724c6f776572426f756e640000000000000000815250601801905060405180910390207f3a64504f0bc0c335e2aecb78638a257e0351a3fe0370861fd54ee4190b920933826040518082815260200191505060405180910390a250565b60085481565b601660009054906101000a900473ffffffffffffffffffffffffffffffffffffffff1681565b600360009054906101000a900473ffffffffffffffffffffffffffffffffffffffff1673ffffffffffffffffffffffffffffffffffffffff1663e97dcb626040518163ffffffff1660e01b8152600401600060405180830381600087803b1580156135c057600080fd5b505af11580156135d4573d6000803e3d6000fd5b5050505060026006541415613651576040517f08c379a000000000000000000000000000000000000000000000000000000000815260040180806020018281038252601d8152602001807f4c6f636b50726f746f636f6c3a207265656e7472616e742063616c6c2e00000081525060200191505060405180910390fd5b6002600681905550600460149054906101000a900460ff16156136dc576040517f08c379a000000000000000000000000000000000000000000000000000000000815260040180806020018281038252601e8152602001807f476f7665726e65643a20436f6e74726163742069732073746f707065642e000081525060200191505060405180910390fd5b60008054906101000a900473ffffffffffffffffffffffffffffffffffffffff1673ffffffffffffffffffffffffffffffffffffffff1663bf86d6906040518163ffffffff1660e01b815260040160206040518083038186803b15801561374257600080fd5b505afa158015613756573d6000803e3d6000fd5b505050506040513d602081101561376c57600080fd5b8101908080519060200190929190505050156137d3576040517f08c379a0000000000000000000000000000000000000000000000000000000008152600401808060200182810382526028815260200180615feb6028913960400191505060405180910390fd5b6137dc826153b3565b6000601160008467ffffffffffffffff1667ffffffffffffffff1681526020019081526020016000209050613810816151aa565b15613883576040517f08c379a000000000000000000000000000000000000000000000000000000000815260040180806020018281038252601e8152602001807f41756374696f6e20636f6d706c6574652e2043616c6c20736574746c652e000081525060200191505060405180910390fd5b60008060009054906101000a900473ffffffffffffffffffffffffffffffffffffffff1673ffffffffffffffffffffffffffffffffffffffff166311df99956040518163ffffffff1660e01b815260040160206040518083038186803b1580156138ec57600080fd5b505afa158015613900573d6000803e3d6000fd5b505050506040513d602081101561391657600080fd5b8101908080519060200190929190505050905060008073ffffffffffffffffffffffffffffffffffffffff168360020160089054906101000a900473ffffffffffffffffffffffffffffffffffffffff1673ffffffffffffffffffffffffffffffffffffffff161415613a3e576139a360646139958560010154615224565b61551d90919063ffffffff16565b8410613a17576040517f08c379a000000000000000000000000000000000000000000000000000000000815260040180806020018281038252600d8152602001807f42696420746f6f20686967682e0000000000000000000000000000000000000081525060200191505060405180910390fd5b613a30836001015460155461505a90919063ffffffff16565b601581905550819050613af4565b613a5760075484600001546155a390919063ffffffff16565b841115613acc576040517f08c379a00000000000000000000000000000000000000000000000000000000081526004018080602001828103825260128152602001807f446964206e6f7420756e646572206269642e000000000000000000000000000081525060200191505060405180910390fd5b8260020160089054906101000a900473ffffffffffffffffffffffffffffffffffffffff1690505b6000613b15600f60089054906101000a900467ffffffffffffffff16615386565b90508067ffffffffffffffff168460020160009054906101000a900467ffffffffffffffff1667ffffffffffffffff161015613b7757808460020160006101000a81548167ffffffffffffffff021916908367ffffffffffffffff1602179055505b338460020160086101000a81548173ffffffffffffffffffffffffffffffffffffffff021916908373ffffffffffffffffffffffffffffffffffffffff1602179055508484600001819055508273ffffffffffffffffffffffffffffffffffffffff166323b872dd338487600101546040518463ffffffff1660e01b8152600401808473ffffffffffffffffffffffffffffffffffffffff1681526020018373ffffffffffffffffffffffffffffffffffffffff1681526020018281526020019350505050602060405180830381600087803b158015613c5657600080fd5b505af1158015613c6a573d6000803e3d6000fd5b505050506040513d6020811015613c8057600080fd5b8101908080519060200190929190505050503373ffffffffffffffffffffffffffffffffffffffff168667ffffffffffffffff16600015157f4042f92f7a93056a4ed1492b7b5a495196ea67839a5934acc9a0d2e59d543d94886040518082815260200191505060405180910390a4505050506001600681905550600360009054906101000a900473ffffffffffffffffffffffffffffffffffffffff1673ffffffffffffffffffffffffffffffffffffffff1663e9fad8ee6040518163ffffffff1660e01b8152600401600060405180830381600087803b158015613d6557600080fd5b505af1158015613d79573d6000803e3d6000fd5b505050505050565b600360009054906101000a900473ffffffffffffffffffffffffffffffffffffffff1673ffffffffffffffffffffffffffffffffffffffff1663e97dcb626040518163ffffffff1660e01b8152600401600060405180830381600087803b158015613deb57600080fd5b505af1158015613dff573d6000803e3d6000fd5b5050505060026006541415613e7c576040517f08c379a000000000000000000000000000000000000000000000000000000000815260040180806020018281038252601d8152602001807f4c6f636b50726f746f636f6c3a207265656e7472616e742063616c6c2e00000081525060200191505060405180910390fd5b6002600681905550600460149054906101000a900460ff1615613f07576040517f08c379a000000000000000000000000000000000000000000000000000000000815260040180806020018281038252601e8152602001807f476f7665726e65643a20436f6e74726163742069732073746f707065642e000081525060200191505060405180910390fd5b60008054906101000a900473ffffffffffffffffffffffffffffffffffffffff1673ffffffffffffffffffffffffffffffffffffffff1663bf86d6906040518163ffffffff1660e01b815260040160206040518083038186803b158015613f6d57600080fd5b505afa158015613f81573d6000803e3d6000fd5b505050506040513d6020811015613f9757600080fd5b810190808051906020019092919050505015613ffe576040517f08c379a0000000000000000000000000000000000000000000000000000000008152600401808060200182810382526028815260200180615feb6028913960400191505060405180910390fd5b600080614009611308565b915091506000821461402657614021823360016156b6565b6140ae565b6000811461403f5761403a813360006156b6565b6140ad565b6040517f08c379a00000000000000000000000000000000000000000000000000000000081526004018080602001828103825260158152602001807f4e6f2061756374696f6e7320746f2073746172742e000000000000000000000081525060200191505060405180910390fd5b5b50506001600681905550600360009054906101000a900473ffffffffffffffffffffffffffffffffffffffff1673ffffffffffffffffffffffffffffffffffffffff1663e9fad8ee6040518163ffffffff1660e01b8152600401600060405180830381600087803b15801561412257600080fd5b505af1158015614136573d6000803e3d6000fd5b50505050565b60006141478261575a565b614152576000614182565b614181601060008467ffffffffffffffff1667ffffffffffffffff1681526020019081526020016000206151aa565b5b9050919050565b601260089054906101000a900467ffffffffffffffff1681565b601260009054906101000a900467ffffffffffffffff1681565b60095481565b600360009054906101000a900473ffffffffffffffffffffffffffffffffffffffff1673ffffffffffffffffffffffffffffffffffffffff1663e97dcb626040518163ffffffff1660e01b8152600401600060405180830381600087803b15801561422d57600080fd5b505af1158015614241573d6000803e3d6000fd5b50505050600260065414156142be576040517f08c379a000000000000000000000000000000000000000000000000000000000815260040180806020018281038252601d8152602001807f4c6f636b50726f746f636f6c3a207265656e7472616e742063616c6c2e00000081525060200191505060405180910390fd5b6002600681905550600460149054906101000a900460ff1615614349576040517f08c379a00000000000000000000000000000000000000000000000000000000081526004018080602001828103825260148152602001807f436f6e74726163742069732073746f707065642e00000000000000000000000081525060200191505060405180910390fd5b6143528161512c565b6000601060008367ffffffffffffffff1667ffffffffffffffff1681526020019081526020016000209050614386816151aa565b6143f8576040517f08c379a00000000000000000000000000000000000000000000000000000000081526004018080602001828103825260138152602001807f41756374696f6e20696e636f6d706c6574652e0000000000000000000000000081525060200191505060405180910390fd5b60008060009054906101000a900473ffffffffffffffffffffffffffffffffffffffff1673ffffffffffffffffffffffffffffffffffffffff166311df99956040518163ffffffff1660e01b815260040160206040518083038186803b15801561446157600080fd5b505afa158015614475573d6000803e3d6000fd5b505050506040513d602081101561448b57600080fd5b8101908080519060200190929190505050905060008260010154905060008360020160089054906101000a900473ffffffffffffffffffffffffffffffffffffffff16905060008460030160089054906101000a900473ffffffffffffffffffffffffffffffffffffffff169050600061451060085485614fbb90919063ffffffff16565b9050600061452960095486614fbb90919063ffffffff16565b90506145408560145461505a90919063ffffffff16565b6014819055508573ffffffffffffffffffffffffffffffffffffffff166316f9428f84846040518363ffffffff1660e01b8152600401808373ffffffffffffffffffffffffffffffffffffffff16815260200182815260200192505050600060405180830381600087803b1580156145b757600080fd5b505af11580156145cb573d6000803e3d6000fd5b505050508573ffffffffffffffffffffffffffffffffffffffff166316f9428f33836040518363ffffffff1660e01b8152600401808373ffffffffffffffffffffffffffffffffffffffff16815260200182815260200192505050600060405180830381600087803b15801561464057600080fd5b505af1158015614654573d6000803e3d6000fd5b50505050600073ffffffffffffffffffffffffffffffffffffffff168473ffffffffffffffffffffffffffffffffffffffff1614614716578573ffffffffffffffffffffffffffffffffffffffff166316f9428f85876040518363ffffffff1660e01b8152600401808373ffffffffffffffffffffffffffffffffffffffff16815260200182815260200192505050600060405180830381600087803b1580156146fd57600080fd5b505af1158015614711573d6000803e3d6000fd5b505050505b601060008967ffffffffffffffff1667ffffffffffffffff16815260200190815260200160002060008082016000905560018201600090556002820160006101000a81549067ffffffffffffffff02191690556002820160086101000a81549073ffffffffffffffffffffffffffffffffffffffff02191690556003820160006101000a81549067ffffffffffffffff02191690556003820160086101000a81549073ffffffffffffffffffffffffffffffffffffffff02191690555050600061484661480d600a601260089054906101000a900467ffffffffffffffff1667ffffffffffffffff1661543190919063ffffffff16565b67ffffffffffffffff16601260009054906101000a900467ffffffffffffffff1667ffffffffffffffff166154cd90919063ffffffff16565b90506000601260089054906101000a900467ffffffffffffffff1690505b818167ffffffffffffffff1610801561488357506148818161575a565b155b15614895578080600101915050614864565b80601260086101000a81548167ffffffffffffffff021916908367ffffffffffffffff1602179055508573ffffffffffffffffffffffffffffffffffffffff168a67ffffffffffffffff16600115157f0a482bfa50a79be0b248d777bc647874333f7d9b7d6a33ce58fe00db2c14e3bf8833604051808373ffffffffffffffffffffffffffffffffffffffff1681526020018273ffffffffffffffffffffffffffffffffffffffff1681526020019250505060405180910390a45050505050505050506001600681905550600360009054906101000a900473ffffffffffffffffffffffffffffffffffffffff1673ffffffffffffffffffffffffffffffffffffffff1663e9fad8ee6040518163ffffffff1660e01b8152600401600060405180830381600087803b1580156149ca57600080fd5b505af11580156149de573d6000803e3d6000fd5b5050505050565b60008054906101000a900473ffffffffffffffffffffffffffffffffffffffff1673ffffffffffffffffffffffffffffffffffffffff163373ffffffffffffffffffffffffffffffffffffffff1614614aa6576040517f08c379a00000000000000000000000000000000000000000000000000000000081526004018080602001828103825260198152602001807f476f7665726e65643a204e6f7420417574686f72697a65642e0000000000000081525060200191505060405180910390fd5b80600981905550670de0b6b3a764000060095410614ac357600080fd5b60405180807f636c65616e6572526577617264526174696f0000000000000000000000000000815250601201905060405180910390207f3a64504f0bc0c335e2aecb78638a257e0351a3fe0370861fd54ee4190b920933826040518082815260200191505060405180910390a250565b60008054906101000a900473ffffffffffffffffffffffffffffffffffffffff1673ffffffffffffffffffffffffffffffffffffffff163373ffffffffffffffffffffffffffffffffffffffff1614614bf4576040517f08c379a00000000000000000000000000000000000000000000000000000000081526004018080602001828103825260198152602001807f476f7665726e65643a204e6f7420417574686f72697a65642e0000000000000081525060200191505060405180910390fd5b80600781905550670de0b6b3a764000060075411614c1157600080fd5b60405180807f6d696e42696444656c7461000000000000000000000000000000000000000000815250600b01905060405180910390207f3a64504f0bc0c335e2aecb78638a257e0351a3fe0370861fd54ee4190b920933826040518082815260200191505060405180910390a250565b600c5481565b60145481565b60008054906101000a900473ffffffffffffffffffffffffffffffffffffffff1673ffffffffffffffffffffffffffffffffffffffff163373ffffffffffffffffffffffffffffffffffffffff1614614d4e576040517f08c379a00000000000000000000000000000000000000000000000000000000081526004018080602001828103825260198152602001807f476f7665726e65643a204e6f7420417574686f72697a65642e0000000000000081525060200191505060405180910390fd5b80600a81905550600a54600010614d6457600080fd5b600b54600a5410614d7457600080fd5b600c54600a5410614d8457600080fd5b60405180807f6d696e41756374696f6e4c6f7453697a65000000000000000000000000000000815250601101905060405180910390207f3a64504f0bc0c335e2aecb78638a257e0351a3fe0370861fd54ee4190b920933826040518082815260200191505060405180910390a250565b600f60009054906101000a900467ffffffffffffffff1681565b601260189054906101000a900467ffffffffffffffff1681565b600f60089054906101000a900467ffffffffffffffff1681565b6000614e4d826154e6565b614e58576000614e88565b614e87601160008467ffffffffffffffff1667ffffffffffffffff1681526020019081526020016000206151aa565b5b9050919050565b6001600460146101000a81548160ff0219169083151502179055507f7acc84e34091ae817647a4c49116f5cc07f319078ba80f8f5fde37ea7e25cbd660405160405180910390a1565b60008054906101000a900473ffffffffffffffffffffffffffffffffffffffff1673ffffffffffffffffffffffffffffffffffffffff166399eeec956040518163ffffffff1660e01b815260040160206040518083038186803b158015614f3e57600080fd5b505afa158015614f52573d6000803e3d6000fd5b505050506040513d6020811015614f6857600080fd5b8101908080519060200190929190505050601660006101000a81548173ffffffffffffffffffffffffffffffffffffffff021916908373ffffffffffffffffffffffffffffffffffffffff160217905550565b600080831480614fcb5750600082145b15614fd95760009050615054565b818302905081838281614fe857fe5b041461503f576040517f08c379a0000000000000000000000000000000000000000000000000000000008152600401808060200182810382526022815260200180615fc96022913960400191505060405180910390fd5b670de0b6b3a7640000818161505057fe5b0490505b92915050565b600061509c83836040518060400160405280601e81526020017f536166654d6174683a207375627472616374696f6e206f766572666c6f770000815250615791565b905092915050565b600080828401905083811015615122576040517f08c379a000000000000000000000000000000000000000000000000000000000815260040180806020018281038252601b8152602001807f536166654d6174683a206164646974696f6e206f766572666c6f77000000000081525060200191505060405180910390fd5b8091505092915050565b6151358161575a565b6151a7576040517f08c379a00000000000000000000000000000000000000000000000000000000081526004018080602001828103825260178152602001807f41756374696f6e20646f6573206e6f742065786973742e00000000000000000081525060200191505060405180910390fd5b50565b6000806151b5615851565b90508067ffffffffffffffff168360020160009054906101000a900467ffffffffffffffff1667ffffffffffffffff16108061521c57508067ffffffffffffffff168360030160009054906101000a900467ffffffffffffffff1667ffffffffffffffff16105b915050919050565b600061537f601660009054906101000a900473ffffffffffffffffffffffffffffffffffffffff1673ffffffffffffffffffffffffffffffffffffffff166318160ddd6040518163ffffffff1660e01b815260040160206040518083038186803b15801561529157600080fd5b505afa1580156152a5573d6000803e3d6000fd5b505050506040513d60208110156152bb57600080fd5b8101908080519060200190929190505050600260009054906101000a900473ffffffffffffffffffffffffffffffffffffffff1673ffffffffffffffffffffffffffffffffffffffff166318160ddd6040518163ffffffff1660e01b815260040160206040518083038186803b15801561533457600080fd5b505afa158015615348573d6000803e3d6000fd5b505050506040513d602081101561535e57600080fd5b8101908080519060200190929190505050846158619092919063ffffffff16565b9050919050565b60006153ac82615394615851565b67ffffffffffffffff1661543190919063ffffffff16565b9050919050565b6153bc816154e6565b61542e576040517f08c379a00000000000000000000000000000000000000000000000000000000081526004018080602001828103825260178152602001807f41756374696f6e20646f6573206e6f742065786973742e00000000000000000081525060200191505060405180910390fd5b50565b60008082840190508367ffffffffffffffff168167ffffffffffffffff1610156154c3576040517f08c379a000000000000000000000000000000000000000000000000000000000815260040180806020018281038252601b8152602001807f536166654d6174683a206164646974696f6e206f766572666c6f77000000000081525060200191505060405180910390fd5b8091505092915050565b60008183106154dc57816154de565b825b905092915050565b600080601160008467ffffffffffffffff1667ffffffffffffffff1681526020019081526020016000206001015414159050919050565b600080831415615530576000905061559d565b600082840290508284828161554157fe5b0414615598576040517f08c379a00000000000000000000000000000000000000000000000000000000081526004018080602001828103825260218152602001806160136021913960400191505060405180910390fd5b809150505b92915050565b6000808314156155b657600090506156b0565b600082141561562d576040517f08c379a000000000000000000000000000000000000000000000000000000000815260040180806020018281038252601b8152602001807f536166654d6174683a206469766973696f6e206279207a65726f2e000000000081525060200191505060405180910390fd5b670de0b6b3a764000083029050670de0b6b3a764000083828161564c57fe5b04146156a3576040517f08c379a0000000000000000000000000000000000000000000000000000000008152600401808060200182810382526022815260200180615fc96022913960400191505060405180910390fd5b8181816156ac57fe5b0490505b92915050565b6156d083826156c757600c546156cb565b600b545b615970565b925080156156f8576156ed836014546150a490919063ffffffff16565b601481905550615714565b61570d836015546150a490919063ffffffff16565b6015819055505b60005b61573a8261572757600c5461572b565b600b545b856154cd90919063ffffffff16565b90506157478184846159e0565b8084039350600084116157175750505050565b600080601060008467ffffffffffffffff1667ffffffffffffffff1681526020019081526020016000206001015414159050919050565b600083831115829061583e576040517f08c379a00000000000000000000000000000000000000000000000000000000081526004018080602001828103825283818151815260200191508051906020019080838360005b838110156158035780820151818401526020810190506157e8565b50505050905090810190601f1680156158305780820380516001836020036101000a031916815260200191505b509250505060405180910390fd5b5060008385039050809150509392505050565b600061585c42615ee7565b905090565b6000808414806158715750600083145b1561587f5760009050615969565b60008214156158f6576040517f08c379a000000000000000000000000000000000000000000000000000000000815260040180806020018281038252601b8152602001807f536166654d6174683a206469766973696f6e206279207a65726f2e000000000081525060200191505060405180910390fd5b82840290508284828161590557fe5b041461595c576040517f08c379a0000000000000000000000000000000000000000000000000000000008152600401808060200182810382526022815260200180615fc96022913960400191505060405180910390fd5b81818161596557fe5b0490505b9392505050565b60008082848161597c57fe5b0690506159d7600a548210615992576000615994565b815b85036159c9600f60009054906101000a900467ffffffffffffffff1667ffffffffffffffff168661551d90919063ffffffff16565b6154cd90919063ffffffff16565b91505092915050565b6000615a01600f60189054906101000a900467ffffffffffffffff16615386565b90508067ffffffffffffffff16601360009054906101000a900467ffffffffffffffff1667ffffffffffffffff161015615a5f5780601360006101000a81548167ffffffffffffffff021916908367ffffffffffffffff1602179055505b615a67615f52565b6040518060c0016040528060008152602001868152602001615a9e600f60109054906101000a900467ffffffffffffffff16615386565b67ffffffffffffffff168152602001600073ffffffffffffffffffffffffffffffffffffffff1681526020018367ffffffffffffffff1681526020018573ffffffffffffffffffffffffffffffffffffffff1681525090508215615cf0578060106000601260009054906101000a900467ffffffffffffffff1667ffffffffffffffff1667ffffffffffffffff168152602001908152602001600020600082015181600001556020820151816001015560408201518160020160006101000a81548167ffffffffffffffff021916908367ffffffffffffffff16021790555060608201518160020160086101000a81548173ffffffffffffffffffffffffffffffffffffffff021916908373ffffffffffffffffffffffffffffffffffffffff16021790555060808201518160030160006101000a81548167ffffffffffffffff021916908367ffffffffffffffff16021790555060a08201518160030160086101000a81548173ffffffffffffffffffffffffffffffffffffffff021916908373ffffffffffffffffffffffffffffffffffffffff16021790555090505084601260009054906101000a900467ffffffffffffffff1667ffffffffffffffff16600115157fc19ebfd17eb8be856cffa00c86424e745fc3228c0d116b824f598079f2d04a5d85604051808267ffffffffffffffff16815260200191505060405180910390a46012600081819054906101000a900467ffffffffffffffff168092919060010191906101000a81548167ffffffffffffffff021916908367ffffffffffffffff16021790555050615ee0565b8060116000601260109054906101000a900467ffffffffffffffff1667ffffffffffffffff1667ffffffffffffffff168152602001908152602001600020600082015181600001556020820151816001015560408201518160020160006101000a81548167ffffffffffffffff021916908367ffffffffffffffff16021790555060608201518160020160086101000a81548173ffffffffffffffffffffffffffffffffffffffff021916908373ffffffffffffffffffffffffffffffffffffffff16021790555060808201518160030160006101000a81548167ffffffffffffffff021916908367ffffffffffffffff16021790555060a08201518160030160086101000a81548173ffffffffffffffffffffffffffffffffffffffff021916908373ffffffffffffffffffffffffffffffffffffffff16021790555090505084601260109054906101000a900467ffffffffffffffff1667ffffffffffffffff16600015157fc19ebfd17eb8be856cffa00c86424e745fc3228c0d116b824f598079f2d04a5d85604051808267ffffffffffffffff16815260200191505060405180910390a46012601081819054906101000a900467ffffffffffffffff168092919060010191906101000a81548167ffffffffffffffff021916908367ffffffffffffffff160217905550505b5050505050565b6000680100000000000000008210615f4a576040517f08c379a00000000000000000000000000000000000000000000000000000000081526004018080602001828103825260268152602001806160346026913960400191505060405180910390fd5b819050919050565b6040518060c001604052806000815260200160008152602001600067ffffffffffffffff168152602001600073ffffffffffffffffffffffffffffffffffffffff168152602001600067ffffffffffffffff168152602001600073ffffffffffffffffffffffffffffffffffffffff168152509056fe536166654d6174683a206d756c7469706c69636174696f6e206f766572666c6f772e476f7665726e65643a204e6f7420617661696c61626c6520647572696e672073687574646f776e2e536166654d6174683a206d756c7469706c69636174696f6e206f766572666c6f7753616665436173743a2076616c756520646f65736e27742066697420696e2036342062697473a26469706673582212201fba337b444b8e58c656a40413fbd14bd9926b4487a95332e55ce77fe13baacf64736f6c63430007040033",
  "linkReferences": {},
  "deployedLinkReferences": {}
}