{
  "_format": "hh-sol-artifact-1",
  "contractName": "Auctions",
  "sourceName": "contracts/core/logic/Auctions.sol",
  "abi": [
    {
      "anonymous": false,
      "inputs": [
        {
          "indexed": true,
          "internalType": "uint64",
          "name": "auctionID",
          "type": "uint64"
        },
        {
          "indexed": true,
          "internalType": "address",
          "name": "bidder",
          "type": "address"
        },
        {
          "indexed": false,
          "internalType": "uint256",
          "name": "bid",
          "type": "uint256"
        }
      ],
      "name": "DeficitAuctionBid",
      "type": "event"
    },
    {
      "anonymous": false,
      "inputs": [
        {
          "indexed": true,
          "internalType": "uint64",
          "name": "auctionID",
          "type": "uint64"
        },
        {
          "indexed": true,
          "internalType": "address",
          "name": "winner",
          "type": "address"
        }
      ],
      "name": "DeficitAuctionSettled",
      "type": "event"
    },
    {
      "anonymous": false,
      "inputs": [
        {
          "indexed": true,
          "internalType": "uint64",
          "name": "auctionID",
          "type": "uint64"
        },
        {
          "indexed": true,
          "internalType": "uint256",
          "name": "count",
          "type": "uint256"
        },
        {
          "indexed": false,
          "internalType": "uint64",
          "name": "maxEndTime",
          "type": "uint64"
        }
      ],
      "name": "DeficitAuctionStarted",
      "type": "event"
    },
    {
      "anonymous": false,
      "inputs": [
        {
          "indexed": true,
          "internalType": "address",
          "name": "governor",
          "type": "address"
        }
      ],
      "name": "Initialized",
      "type": "event"
    },
    {
      "anonymous": false,
      "inputs": [
        {
          "indexed": true,
          "internalType": "string",
          "name": "paramName",
          "type": "string"
        },
        {
          "indexed": false,
          "internalType": "uint256",
          "name": "value",
          "type": "uint256"
        }
      ],
      "name": "ParameterUpdated",
      "type": "event"
    },
    {
      "anonymous": false,
      "inputs": [
        {
          "indexed": true,
          "internalType": "string",
          "name": "paramName",
          "type": "string"
        },
        {
          "indexed": false,
          "internalType": "uint64",
          "name": "value",
          "type": "uint64"
        }
      ],
      "name": "ParameterUpdated64",
      "type": "event"
    },
    {
      "anonymous": false,
      "inputs": [],
      "name": "Stopped",
      "type": "event"
    },
    {
      "anonymous": false,
      "inputs": [
        {
          "indexed": true,
          "internalType": "uint64",
          "name": "auctionID",
          "type": "uint64"
        },
        {
          "indexed": true,
          "internalType": "address",
          "name": "bidder",
          "type": "address"
        },
        {
          "indexed": false,
          "internalType": "uint256",
          "name": "bid",
          "type": "uint256"
        }
      ],
      "name": "SurplusAuctionBid",
      "type": "event"
    },
    {
      "anonymous": false,
      "inputs": [
        {
          "indexed": true,
          "internalType": "uint64",
          "name": "auctionID",
          "type": "uint64"
        },
        {
          "indexed": true,
          "internalType": "address",
          "name": "winner",
          "type": "address"
        }
      ],
      "name": "SurplusAuctionSettled",
      "type": "event"
    },
    {
      "anonymous": false,
      "inputs": [
        {
          "indexed": true,
          "internalType": "uint64",
          "name": "auctionID",
          "type": "uint64"
        },
        {
          "indexed": true,
          "internalType": "uint256",
          "name": "count",
          "type": "uint256"
        },
        {
          "indexed": false,
          "internalType": "uint64",
          "name": "maxEndTime",
          "type": "uint64"
        }
      ],
      "name": "SurplusAuctionStarted",
      "type": "event"
    },
    {
      "inputs": [],
      "name": "CNP_COIN_VALUE_MULTIPLIER",
      "outputs": [
        {
          "internalType": "uint256",
          "name": "",
          "type": "uint256"
        }
      ],
      "stateMutability": "view",
      "type": "function"
    },
    {
      "inputs": [],
      "name": "COIN_CNP_VALUE_MULTIPLIER",
      "outputs": [
        {
          "internalType": "uint256",
          "name": "",
          "type": "uint256"
        }
      ],
      "stateMutability": "view",
      "type": "function"
    },
    {
      "inputs": [
        {
          "internalType": "uint256",
          "name": "coinCount",
          "type": "uint256"
        }
      ],
      "name": "approximateCNPEquivalent",
      "outputs": [
        {
          "internalType": "uint256",
          "name": "",
          "type": "uint256"
        }
      ],
      "stateMutability": "view",
      "type": "function"
    },
    {
      "inputs": [
        {
          "internalType": "uint64",
          "name": "auctionID",
          "type": "uint64"
        },
        {
          "internalType": "uint256",
          "name": "bid",
          "type": "uint256"
        }
      ],
      "name": "bidDeficitAuction",
      "outputs": [],
      "stateMutability": "nonpayable",
      "type": "function"
    },
    {
      "inputs": [
        {
          "internalType": "uint64",
          "name": "auctionID",
          "type": "uint64"
        },
        {
          "internalType": "uint256",
          "name": "bid",
          "type": "uint256"
        }
      ],
      "name": "bidSurplusAuction",
      "outputs": [],
      "stateMutability": "nonpayable",
      "type": "function"
    },
    {
      "inputs": [],
      "name": "checkReservesAndStartAuctions",
      "outputs": [],
      "stateMutability": "nonpayable",
      "type": "function"
    },
    {
      "inputs": [],
      "name": "cnp",
      "outputs": [
        {
          "internalType": "contract ICNP",
          "name": "",
          "type": "address"
        }
      ],
      "stateMutability": "view",
      "type": "function"
    },
    {
      "inputs": [],
      "name": "coinToBeBought",
      "outputs": [
        {
          "internalType": "uint256",
          "name": "",
          "type": "uint256"
        }
      ],
      "stateMutability": "view",
      "type": "function"
    },
    {
      "inputs": [],
      "name": "coinToBeSold",
      "outputs": [
        {
          "internalType": "uint256",
          "name": "",
          "type": "uint256"
        }
      ],
      "stateMutability": "view",
      "type": "function"
    },
    {
      "inputs": [
        {
          "internalType": "uint64",
          "name": "",
          "type": "uint64"
        }
      ],
      "name": "deficitAuction",
      "outputs": [
        {
          "internalType": "uint256",
          "name": "count",
          "type": "uint256"
        },
        {
          "internalType": "uint256",
          "name": "bid",
          "type": "uint256"
        },
        {
          "internalType": "address",
          "name": "bidder",
          "type": "address"
        },
        {
          "internalType": "uint64",
          "name": "endTime",
          "type": "uint64"
        },
        {
          "internalType": "uint64",
          "name": "maxEndTime",
          "type": "uint64"
        }
      ],
      "stateMutability": "view",
      "type": "function"
    },
    {
      "inputs": [
        {
          "internalType": "uint64",
          "name": "auctionID",
          "type": "uint64"
        }
      ],
      "name": "deficitAuctionComplete",
      "outputs": [
        {
          "internalType": "bool",
          "name": "",
          "type": "bool"
        }
      ],
      "stateMutability": "view",
      "type": "function"
    },
    {
      "inputs": [],
      "name": "deficitAuctionCount",
      "outputs": [
        {
          "internalType": "uint64",
          "name": "",
          "type": "uint64"
        }
      ],
      "stateMutability": "view",
      "type": "function"
    },
    {
      "inputs": [
        {
          "internalType": "uint64",
          "name": "auctionID",
          "type": "uint64"
        }
      ],
      "name": "deficitAuctionLive",
      "outputs": [
        {
          "internalType": "bool",
          "name": "",
          "type": "bool"
        }
      ],
      "stateMutability": "view",
      "type": "function"
    },
    {
      "inputs": [],
      "name": "deployer",
      "outputs": [
        {
          "internalType": "address",
          "name": "",
          "type": "address"
        }
      ],
      "stateMutability": "view",
      "type": "function"
    },
    {
      "inputs": [],
      "name": "extensionPerBid",
      "outputs": [
        {
          "internalType": "uint64",
          "name": "",
          "type": "uint64"
        }
      ],
      "stateMutability": "view",
      "type": "function"
    },
    {
      "inputs": [
        {
          "internalType": "uint64",
          "name": "start",
          "type": "uint64"
        },
        {
          "internalType": "bool",
          "name": "surplus",
          "type": "bool"
        }
      ],
      "name": "getAllAuctions",
      "outputs": [
        {
          "components": [
            {
              "internalType": "uint256",
              "name": "count",
              "type": "uint256"
            },
            {
              "internalType": "uint256",
              "name": "bid",
              "type": "uint256"
            },
            {
              "internalType": "address",
              "name": "bidder",
              "type": "address"
            },
            {
              "internalType": "uint64",
              "name": "endTime",
              "type": "uint64"
            },
            {
              "internalType": "uint64",
              "name": "maxEndTime",
              "type": "uint64"
            }
          ],
          "internalType": "struct IAuctions.Auction[]",
          "name": "_auctions",
          "type": "tuple[]"
        },
        {
          "internalType": "uint256[]",
          "name": "_auctionIDs",
          "type": "uint256[]"
        },
        {
          "internalType": "bool[]",
          "name": "_isComplete",
          "type": "bool[]"
        }
      ],
      "stateMutability": "view",
      "type": "function"
    },
    {
      "inputs": [],
      "name": "governor",
      "outputs": [
        {
          "internalType": "contract IGovernor",
          "name": "",
          "type": "address"
        }
      ],
      "stateMutability": "view",
      "type": "function"
    },
    {
      "inputs": [
        {
          "internalType": "contract IGovernor",
          "name": "_governor",
          "type": "address"
        }
      ],
      "name": "init",
      "outputs": [],
      "stateMutability": "nonpayable",
      "type": "function"
    },
    {
      "inputs": [],
      "name": "latestAuctionCompletionTime",
      "outputs": [
        {
          "internalType": "uint64",
          "name": "",
          "type": "uint64"
        }
      ],
      "stateMutability": "view",
      "type": "function"
    },
    {
      "inputs": [],
      "name": "maxAuctionDuration",
      "outputs": [
        {
          "internalType": "uint64",
          "name": "",
          "type": "uint64"
        }
      ],
      "stateMutability": "view",
      "type": "function"
    },
    {
      "inputs": [],
      "name": "maxBatchSize",
      "outputs": [
        {
          "internalType": "uint64",
          "name": "",
          "type": "uint64"
        }
      ],
      "stateMutability": "view",
      "type": "function"
    },
    {
      "inputs": [],
      "name": "maxDeficitLotSize",
      "outputs": [
        {
          "internalType": "uint256",
          "name": "",
          "type": "uint256"
        }
      ],
      "stateMutability": "view",
      "type": "function"
    },
    {
      "inputs": [],
      "name": "maxSurplusLotSize",
      "outputs": [
        {
          "internalType": "uint256",
          "name": "",
          "type": "uint256"
        }
      ],
      "stateMutability": "view",
      "type": "function"
    },
    {
      "inputs": [],
      "name": "minAuctionDuration",
      "outputs": [
        {
          "internalType": "uint64",
          "name": "",
          "type": "uint64"
        }
      ],
      "stateMutability": "view",
      "type": "function"
    },
    {
      "inputs": [],
      "name": "minBidDelta",
      "outputs": [
        {
          "internalType": "uint256",
          "name": "",
          "type": "uint256"
        }
      ],
      "stateMutability": "view",
      "type": "function"
    },
    {
      "inputs": [],
      "name": "minLotSize",
      "outputs": [
        {
          "internalType": "uint256",
          "name": "",
          "type": "uint256"
        }
      ],
      "stateMutability": "view",
      "type": "function"
    },
    {
      "inputs": [],
      "name": "reservesBufferLowerBound",
      "outputs": [
        {
          "internalType": "uint256",
          "name": "",
          "type": "uint256"
        }
      ],
      "stateMutability": "view",
      "type": "function"
    },
    {
      "inputs": [],
      "name": "reservesBufferUpperBound",
      "outputs": [
        {
          "internalType": "uint256",
          "name": "",
          "type": "uint256"
        }
      ],
      "stateMutability": "view",
      "type": "function"
    },
    {
      "inputs": [
        {
          "internalType": "uint64",
          "name": "extension",
          "type": "uint64"
        }
      ],
      "name": "setExtensionPerBid",
      "outputs": [],
      "stateMutability": "nonpayable",
      "type": "function"
    },
    {
      "inputs": [
        {
          "internalType": "uint64",
          "name": "duration",
          "type": "uint64"
        }
      ],
      "name": "setMaxAuctionDuration",
      "outputs": [],
      "stateMutability": "nonpayable",
      "type": "function"
    },
    {
      "inputs": [
        {
          "internalType": "uint64",
          "name": "size",
          "type": "uint64"
        }
      ],
      "name": "setMaxBatchSize",
      "outputs": [],
      "stateMutability": "nonpayable",
      "type": "function"
    },
    {
      "inputs": [
        {
          "internalType": "uint256",
          "name": "size",
          "type": "uint256"
        }
      ],
      "name": "setMaxDeficitLotSize",
      "outputs": [],
      "stateMutability": "nonpayable",
      "type": "function"
    },
    {
      "inputs": [
        {
          "internalType": "uint256",
          "name": "size",
          "type": "uint256"
        }
      ],
      "name": "setMaxSurplusLotSize",
      "outputs": [],
      "stateMutability": "nonpayable",
      "type": "function"
    },
    {
      "inputs": [
        {
          "internalType": "uint64",
          "name": "duration",
          "type": "uint64"
        }
      ],
      "name": "setMinAuctionDuration",
      "outputs": [],
      "stateMutability": "nonpayable",
      "type": "function"
    },
    {
      "inputs": [
        {
          "internalType": "uint256",
          "name": "delta",
          "type": "uint256"
        }
      ],
      "name": "setMinBidDelta",
      "outputs": [],
      "stateMutability": "nonpayable",
      "type": "function"
    },
    {
      "inputs": [
        {
          "internalType": "uint256",
          "name": "size",
          "type": "uint256"
        }
      ],
      "name": "setMinLotSize",
      "outputs": [],
      "stateMutability": "nonpayable",
      "type": "function"
    },
    {
      "inputs": [
        {
          "internalType": "uint256",
          "name": "bound",
          "type": "uint256"
        }
      ],
      "name": "setReservesBufferLowerBound",
      "outputs": [],
      "stateMutability": "nonpayable",
      "type": "function"
    },
    {
      "inputs": [
        {
          "internalType": "uint256",
          "name": "bound",
          "type": "uint256"
        }
      ],
      "name": "setReservesBufferUpperBound",
      "outputs": [],
      "stateMutability": "nonpayable",
      "type": "function"
    },
    {
      "inputs": [
        {
          "internalType": "uint64",
          "name": "auctionID",
          "type": "uint64"
        }
      ],
      "name": "settleDeficitAuction",
      "outputs": [],
      "stateMutability": "nonpayable",
      "type": "function"
    },
    {
      "inputs": [
        {
          "internalType": "uint64",
          "name": "auctionID",
          "type": "uint64"
        }
      ],
      "name": "settleSurplusAuction",
      "outputs": [],
      "stateMutability": "nonpayable",
      "type": "function"
    },
    {
      "inputs": [],
      "name": "shouldStartAuctions",
      "outputs": [
        {
          "internalType": "uint256",
          "name": "surplusAmount",
          "type": "uint256"
        },
        {
          "internalType": "uint256",
          "name": "deficitAmount",
          "type": "uint256"
        }
      ],
      "stateMutability": "view",
      "type": "function"
    },
    {
      "inputs": [],
      "name": "stop",
      "outputs": [],
      "stateMutability": "nonpayable",
      "type": "function"
    },
    {
      "inputs": [],
      "name": "stopped",
      "outputs": [
        {
          "internalType": "bool",
          "name": "",
          "type": "bool"
        }
      ],
      "stateMutability": "view",
      "type": "function"
    },
    {
      "inputs": [
        {
          "internalType": "uint64",
          "name": "",
          "type": "uint64"
        }
      ],
      "name": "surplusAuction",
      "outputs": [
        {
          "internalType": "uint256",
          "name": "count",
          "type": "uint256"
        },
        {
          "internalType": "uint256",
          "name": "bid",
          "type": "uint256"
        },
        {
          "internalType": "address",
          "name": "bidder",
          "type": "address"
        },
        {
          "internalType": "uint64",
          "name": "endTime",
          "type": "uint64"
        },
        {
          "internalType": "uint64",
          "name": "maxEndTime",
          "type": "uint64"
        }
      ],
      "stateMutability": "view",
      "type": "function"
    },
    {
      "inputs": [
        {
          "internalType": "uint64",
          "name": "auctionID",
          "type": "uint64"
        }
      ],
      "name": "surplusAuctionComplete",
      "outputs": [
        {
          "internalType": "bool",
          "name": "",
          "type": "bool"
        }
      ],
      "stateMutability": "view",
      "type": "function"
    },
    {
      "inputs": [],
      "name": "surplusAuctionCount",
      "outputs": [
        {
          "internalType": "uint64",
          "name": "",
          "type": "uint64"
        }
      ],
      "stateMutability": "view",
      "type": "function"
    },
    {
      "inputs": [
        {
          "internalType": "uint64",
          "name": "auctionID",
          "type": "uint64"
        }
      ],
      "name": "surplusAuctionLive",
      "outputs": [
        {
          "internalType": "bool",
          "name": "",
          "type": "bool"
        }
      ],
      "stateMutability": "view",
      "type": "function"
    },
    {
      "inputs": [
        {
          "internalType": "bytes4",
          "name": "",
          "type": "bytes4"
        }
      ],
      "name": "validUpdate",
      "outputs": [
        {
          "internalType": "bool",
          "name": "",
          "type": "bool"
        }
      ],
      "stateMutability": "view",
      "type": "function"
    }
  ],
  "bytecode": "0x608060405260016006600050909055670e4b4b8af6a70000600760005090905568878678326eac900000600860005090905569043c33c1937564800000600960005090905569043c33c1937564800000600a600050909055662386f26fc10000600b60005090905566b1a2bc2ec50000600c6000509090556005600d60006101000a81548167ffffffffffffffff021916908367ffffffffffffffff160217905550610708600d60086101000a81548167ffffffffffffffff021916908367ffffffffffffffff16021790555062015180600d60106101000a81548167ffffffffffffffff021916908367ffffffffffffffff1602179055506202a300600d60186101000a81548167ffffffffffffffff021916908367ffffffffffffffff1602179055503480156101315760006000fd5b505b33600160006101000a81548173ffffffffffffffffffffffffffffffffffffffff021916908373ffffffffffffffffffffffffffffffffffffffff1602179055505b61017a565b614f81806200018a6000396000f3fe60806040523480156100115760006000fd5b50600436106103255760003560e01c806360aad9bf116101a8578063a4f00883116100ef578063d005d2eb11610098578063ee3528f011610072578063ee3528f0146108d8578063f50e2b0c146108f6578063faf95d2d1461091457610325565b8063d005d2eb14610882578063d5f394881461089e578063ddf31e67146108bc57610325565b8063bfa5b286116100c9578063bfa5b28614610804578063c2b6722a14610834578063caa98b601461085257610325565b8063a4f00883146107c2578063a958c033146107de578063afea44ef146107e857610325565b80637d695351116101515780638d56248a1161012b5780638d56248a1461076a5780639052537e1461078657806399eeec95146107a457610325565b80637d695351146106fe5780637eb12af714610730578063887c67d91461074e57610325565b806368c5f9c21161018257806368c5f9c2146106a657806375d0ef52146106c457806375f12b21146106e057610325565b806360aad9bf14610636578063616cb0cf14610654578063651cf64d1461067257610325565b806337ca44fc1161026c5780634a2304b11161021557806354cccf08116101ef57806354cccf08146105ca57806354f634fb146105e8578063597e899f1461060657610325565b80634a2304b1146105745780634ae8470d1461059057806354134876146105ac57610325565b806340601add1161024657806340601add146104f65780634079b8fc1461052657806348c9581e1461055657610325565b806337ca44fc146104a05780633a3a63df146104bc5780633db966a6146104d857610325565b80631b875768116102ce5780632e748d55116102a85780632e748d55146104345780633427c4ef1461045057806334b144751461048457610325565b80631b875768146103d957806325df9538146103f75780632913daa01461041657610325565b80630fe86907116102ff5780630fe869071461036f578063113cf1ab1461038d57806319ab453c146103bd57610325565b806307da68f51461032b5780630c340a24146103355780630fb4e2b31461035357610325565b60006000fd5b610333610932565b005b61033d610952565b60405161034a9190614b31565b60405180910390f35b61036d60048036038101906103689190614675565b610978565b005b6103776109ff565b6040516103849190614e4d565b60405180910390f35b6103a760048036038101906103a29190614506565b610a08565b6040516103b49190614af5565b60405180910390f35b6103d760048036038101906103d291906145ef565b610a2d565b005b6103e1610deb565b6040516103ee9190614eca565b60405180910390f35b6103ff610e05565b60405161040d929190614e5f565b60405180910390f35b61041e611158565b60405161042b9190614eca565b60405180910390f35b61044e600480360381019061044991906146d0565b611172565b005b61046a60048036038101906104659190614675565b61161a565b60405161047b959493929190614e78565b60405180910390f35b61049e6004803603810190610499919061463d565b6116a1565b005b6104ba60048036038101906104b59190614675565b611752565b005b6104d660048036038101906104d1919061463d565b611828565b005b6104e06118ab565b6040516104ed9190614e4d565b60405180910390f35b610510600480360381019061050b9190614675565b6118b4565b60405161051d9190614af5565b60405180910390f35b610540600480360381019061053b9190614675565b611919565b60405161054d9190614af5565b60405180910390f35b61055e61197e565b60405161056b9190614eca565b60405180910390f35b61058e60048036038101906105899190614675565b611998565b005b6105aa60048036038101906105a5919061463d565b611c73565b005b6105b4611d12565b6040516105c19190614eca565b60405180910390f35b6105d2611d2c565b6040516105df9190614e4d565b60405180910390f35b6105f0611d35565b6040516105fd9190614e4d565b60405180910390f35b610620600480360381019061061b9190614675565b611d3e565b60405161062d9190614af5565b60405180910390f35b61063e611da2565b60405161064b9190614e4d565b60405180910390f35b61065c611dab565b6040516106699190614e4d565b60405180910390f35b61068c60048036038101906106879190614675565b611db4565b60405161069d959493929190614e78565b60405180910390f35b6106ae611e3b565b6040516106bb9190614e4d565b60405180910390f35b6106de60048036038101906106d99190614675565b611e41565b005b6106e8611f17565b6040516106f59190614af5565b60405180910390f35b61071860048036038101906107139190614698565b611f2a565b60405161072793929190614a2f565b60405180910390f35b61073861244a565b6040516107459190614eca565b60405180910390f35b6107686004803603810190610763919061463d565b612464565b005b610784600480360381019061077f919061463d565b6124e7565b005b61078e61256a565b60405161079b9190614e4d565b60405180910390f35b6107ac612573565b6040516107b99190614b09565b60405180910390f35b6107dc60048036038101906107d791906146d0565b612599565b005b6107e66129e9565b005b61080260048036038101906107fd9190614675565b612aaa565b005b61081e6004803603810190610819919061463d565b612b61565b60405161082b9190614e4d565b60405180910390f35b61083c612cc6565b6040516108499190614eca565b60405180910390f35b61086c60048036038101906108679190614675565b612ce0565b6040516108799190614af5565b60405180910390f35b61089c60048036038101906108979190614675565b612d44565b005b6108a6613007565b6040516108b3919061496f565b60405180910390f35b6108d660048036038101906108d1919061463d565b61302d565b005b6108e06130b3565b6040516108ed9190614e4d565b60405180910390f35b6108fe6130bc565b60405161090b9190614e4d565b60405180910390f35b61091c6130c1565b6040516109299190614eca565b60405180910390f35b6109406130db63ffffffff16565b61094e61317063ffffffff16565b5b5b565b600060009054906101000a900473ffffffffffffffffffffffffffffffffffffffff1681565b6109866130db63ffffffff16565b80600d60086101000a81548167ffffffffffffffff021916908367ffffffffffffffff1602179055506040516109bb906147b6565b60405180910390207f6293347933ad2997134e224ac8cd2e39908a4a22aeed9af52127b4bbf7652978826040516109f29190614eca565b60405180910390a25b5b50565b600a6000505481565b600560005060205280600052604060002060009150909054906101000a900460ff1681565b600160009054906101000a900473ffffffffffffffffffffffffffffffffffffffff1673ffffffffffffffffffffffffffffffffffffffff163373ffffffffffffffffffffffffffffffffffffffff16141515610a8a5760006000fd5b600160006101000a81549073ffffffffffffffffffffffffffffffffffffffff021916905580600060006101000a81548173ffffffffffffffffffffffffffffffffffffffff021916908373ffffffffffffffffffffffffffffffffffffffff160217905550600060009054906101000a900473ffffffffffffffffffffffffffffffffffffffff1673ffffffffffffffffffffffffffffffffffffffff16639624e83e6040518163ffffffff1660e01b815260040160206040518083038186803b158015610b595760006000fd5b505afa158015610b6e573d600060003e3d6000fd5b505050506040513d601f19601f82011682018060405250810190610b929190614553565b600260006101000a81548173ffffffffffffffffffffffffffffffffffffffff021916908373ffffffffffffffffffffffffffffffffffffffff160217905550600060009054906101000a900473ffffffffffffffffffffffffffffffffffffffff1673ffffffffffffffffffffffffffffffffffffffff166311df99956040518163ffffffff1660e01b815260040160206040518083038186803b158015610c3b5760006000fd5b505afa158015610c50573d600060003e3d6000fd5b505050506040513d601f19601f82011682018060405250810190610c7491906145c8565b600360006101000a81548173ffffffffffffffffffffffffffffffffffffffff021916908373ffffffffffffffffffffffffffffffffffffffff160217905550600060009054906101000a900473ffffffffffffffffffffffffffffffffffffffff1673ffffffffffffffffffffffffffffffffffffffff1663d478b0876040518163ffffffff1660e01b815260040160206040518083038186803b158015610d1d5760006000fd5b505afa158015610d32573d600060003e3d6000fd5b505050506040513d601f19601f82011682018060405250810190610d569190614616565b600460006101000a81548173ffffffffffffffffffffffffffffffffffffffff021916908373ffffffffffffffffffffffffffffffffffffffff160217905550610da46131ba63ffffffff16565b8073ffffffffffffffffffffffffffffffffffffffff167f908408e307fc569b417f6cbec5d5a06f44a0a505ac0479b47d421a4b2fd6a1e660405160405180910390a25b50565b601060109054906101000a900467ffffffffffffffff1681565b600060003073ffffffffffffffffffffffffffffffffffffffff16600060009054906101000a900473ffffffffffffffffffffffffffffffffffffffff1673ffffffffffffffffffffffffffffffffffffffff166385aa61036040518163ffffffff1660e01b815260040160206040518083038186803b158015610e895760006000fd5b505afa158015610e9e573d600060003e3d6000fd5b505050506040513d601f19601f82011682018060405250810190610ec2919061457a565b73ffffffffffffffffffffffffffffffffffffffff16141515610f1a576040517f08c379a0000000000000000000000000000000000000000000000000000000008152600401610f1190614d90565b60405180910390fd5b6000600360009054906101000a900473ffffffffffffffffffffffffffffffffffffffff1673ffffffffffffffffffffffffffffffffffffffff166375172a8b6040518163ffffffff1660e01b815260040160206040518083038186803b158015610f855760006000fd5b505afa158015610f9a573d600060003e3d6000fd5b505050506040513d601f19601f82011682018060405250810190610fbe9190614659565b90506000600260009054906101000a900473ffffffffffffffffffffffffffffffffffffffff1673ffffffffffffffffffffffffffffffffffffffff16630dca59c16040518163ffffffff1660e01b815260040160206040518083038186803b15801561102b5760006000fd5b505afa158015611040573d600060003e3d6000fd5b505050506040513d601f19601f820116820180604052508101906110649190614659565b90506000611080600c600050548361364590919063ffffffff16565b9050600061109c600b600050548461364590919063ffffffff16565b90506000600a6110b5838561366b90919063ffffffff16565b8115156110be57fe5b049050826110da6011600050548761366b90919063ffffffff16565b11156111095780836011600050548703030196508650600860005054871015611104576000965086505b61114e565b81611122601260005054876136f490919063ffffffff16565b101561114d578060126000505486018303019550855060086000505486101561114c576000955085505b5b5b50505050505b9091565b600d60009054906101000a900467ffffffffffffffff1681565b61118061377d63ffffffff16565b61118e61385c63ffffffff16565b61119d8261191963ffffffff16565b15156111de576040517f08c379a00000000000000000000000000000000000000000000000000000000081526004016111d590614e0e565b60405180910390fd5b6000600e60005060008467ffffffffffffffff1667ffffffffffffffff168152602001908152602001600020600050905060008160020160009054906101000a900473ffffffffffffffffffffffffffffffffffffffff16905060008260010160005054905060006000600073ffffffffffffffffffffffffffffffffffffffff168473ffffffffffffffffffffffffffffffffffffffff1614156112ed576103e86112968660000160005054612b6163ffffffff16565b81151561129f57fe5b04861115156112e3576040517f08c379a00000000000000000000000000000000000000000000000000000000081526004016112da90614b98565b60405180910390fd5b8591508150611366565b6113056007600050548461364590919063ffffffff16565b8610151515611349576040517f08c379a000000000000000000000000000000000000000000000000000000000815260040161134090614c16565b60405180910390fd5b8290508050611361838761366b90919063ffffffff16565b915081505b338560020160006101000a81548173ffffffffffffffffffffffffffffffffffffffff021916908373ffffffffffffffffffffffffffffffffffffffff160217905550858560010160005081909090555060006113de600d60089054906101000a900467ffffffffffffffff166138b163ffffffff16565b90508067ffffffffffffffff168660020160149054906101000a900467ffffffffffffffff1667ffffffffffffffff16101561144057808660020160146101000a81548167ffffffffffffffff021916908367ffffffffffffffff1602179055505b600082111561150957601360009054906101000a900473ffffffffffffffffffffffffffffffffffffffff1673ffffffffffffffffffffffffffffffffffffffff166323b872dd3387856040518463ffffffff1660e01b81526004016114a893929190614997565b602060405180830381600087803b1580156114c35760006000fd5b505af11580156114d8573d600060003e3d6000fd5b505050506040513d601f19601f820116820180604052508101906114fc91906144df565b15156115085760006000fd5b5b60008311151561151557fe5b601360009054906101000a900473ffffffffffffffffffffffffffffffffffffffff1673ffffffffffffffffffffffffffffffffffffffff166379cc679033856040518363ffffffff1660e01b81526004016115729291906149d1565b600060405180830381600087803b15801561158d5760006000fd5b505af11580156115a2573d600060003e3d6000fd5b505050503373ffffffffffffffffffffffffffffffffffffffff168867ffffffffffffffff167fd428196c29fb7877242c66ff296d926b10a5051d369acf8fe5eb3ea21bb6ec98896040516115f79190614e4d565b60405180910390a35050505050505b5b6116156138e763ffffffff16565b5b5050565b600e6000506020528060005260406000206000915090508060000160005054908060010160005054908060020160009054906101000a900473ffffffffffffffffffffffffffffffffffffffff16908060020160149054906101000a900467ffffffffffffffff16908060030160009054906101000a900467ffffffffffffffff16905085565b6116af6130db63ffffffff16565b80600860005081909090555060086000505460001015156116d05760006000fd5b6009600050546008600050541015156116e95760006000fd5b600a600050546008600050541015156117025760006000fd5b60405161170e906148dc565b60405180910390207f3a64504f0bc0c335e2aecb78638a257e0351a3fe0370861fd54ee4190b920933826040516117459190614e4d565b60405180910390a25b5b50565b6117606130db63ffffffff16565b80600d60186101000a81548167ffffffffffffffff021916908367ffffffffffffffff160217905550600d60189054906101000a900467ffffffffffffffff1667ffffffffffffffff16600d60109054906101000a900467ffffffffffffffff1667ffffffffffffffff161015156117d85760006000fd5b6040516117e490614818565b60405180910390207f6293347933ad2997134e224ac8cd2e39908a4a22aeed9af52127b4bbf76529788260405161181b9190614eca565b60405180910390a25b5b50565b6118366130db63ffffffff16565b80600a600050819090905550600a6000505460086000505410151561185b5760006000fd5b604051611867906147e7565b60405180910390207f3a64504f0bc0c335e2aecb78638a257e0351a3fe0370861fd54ee4190b9209338260405161189e9190614e4d565b60405180910390a25b5b50565b60126000505481565b60006118c58261397b63ffffffff16565b6118d057600061190d565b61190b600f60005060008467ffffffffffffffff1667ffffffffffffffff1681526020019081526020016000206000506139c063ffffffff16565b155b9050611914565b919050565b600061192a82613a4763ffffffff16565b611935576000611972565b611970600e60005060008467ffffffffffffffff1667ffffffffffffffff1681526020019081526020016000206000506139c063ffffffff16565b155b9050611979565b919050565b600d60189054906101000a900467ffffffffffffffff1681565b6119a661377d63ffffffff16565b6119b461385c63ffffffff16565b6119c381611d3e63ffffffff16565b1515611a04576040517f08c379a00000000000000000000000000000000000000000000000000000000081526004016119fb90614cd3565b60405180910390fd5b6000600f60005060008367ffffffffffffffff1667ffffffffffffffff168152602001908152602001600020600050905060008160020160009054906101000a900473ffffffffffffffffffffffffffffffffffffffff169050600082600101600050549050600073ffffffffffffffffffffffffffffffffffffffff168273ffffffffffffffffffffffffffffffffffffffff1614158015611aa75750600081115b15611b4257600060009054906101000a900473ffffffffffffffffffffffffffffffffffffffff1673ffffffffffffffffffffffffffffffffffffffff1663a99acb1783836040518363ffffffff1660e01b8152600401611b09929190614a00565b600060405180830381600087803b158015611b245760006000fd5b505af1158015611b39573d600060003e3d6000fd5b50505050611b6d565b611b61836000016000505460126000505461366b90919063ffffffff16565b60126000508190909055505b600f60005060008567ffffffffffffffff1667ffffffffffffffff1681526020019081526020016000206000600082016000506000905560018201600050600090556002820160006101000a81549073ffffffffffffffffffffffffffffffffffffffff02191690556002820160146101000a81549067ffffffffffffffff02191690556003820160006101000a81549067ffffffffffffffff021916905550508173ffffffffffffffffffffffffffffffffffffffff168467ffffffffffffffff167fd1b34ce351dc1a4cb6c40bb878ba19a12c4c44d35e7bdbeca7b5ebe947da312f60405160405180910390a35050505b5b611c6f6138e763ffffffff16565b5b50565b611c816130db63ffffffff16565b80600c600050819090905550600c60005054600b60005054101515611ca65760006000fd5b670de0b6b3a7640000600c60005054101515611cc25760006000fd5b604051611cce9061493e565b60405180910390207f3a64504f0bc0c335e2aecb78638a257e0351a3fe0370861fd54ee4190b92093382604051611d059190614e4d565b60405180910390a25b5b50565b600d60109054906101000a900467ffffffffffffffff1681565b600c6000505481565b60076000505481565b6000611d4f8261397b63ffffffff16565b611d5a576000611d96565b611d95600f60005060008467ffffffffffffffff1667ffffffffffffffff1681526020019081526020016000206000506139c063ffffffff16565b5b9050611d9d565b919050565b60096000505481565b600b6000505481565b600f6000506020528060005260406000206000915090508060000160005054908060010160005054908060020160009054906101000a900473ffffffffffffffffffffffffffffffffffffffff16908060020160149054906101000a900467ffffffffffffffff16908060030160009054906101000a900467ffffffffffffffff16905085565b6103e881565b611e4f6130db63ffffffff16565b80600d60106101000a81548167ffffffffffffffff021916908367ffffffffffffffff160217905550600d60189054906101000a900467ffffffffffffffff1667ffffffffffffffff16600d60109054906101000a900467ffffffffffffffff1667ffffffffffffffff16101515611ec75760006000fd5b604051611ed39061487a565b60405180910390207f6293347933ad2997134e224ac8cd2e39908a4a22aeed9af52127b4bbf765297882604051611f0a9190614eca565b60405180910390a25b5b50565b600060149054906101000a900460ff1681565b606060606060600084611f5357601060089054906101000a900467ffffffffffffffff16611f6b565b601060009054906101000a900467ffffffffffffffff165b67ffffffffffffffff169050600060008790505b828167ffffffffffffffff161015611fd65786611faa57611fa58161397b63ffffffff16565b611fba565b611fb981613a4763ffffffff16565b5b15611fc85781806001019250505b5b8080600101915050611f7f565b508067ffffffffffffffff81118015611fef5760006000fd5b5060405190808252806020026020018201604052801561202957816020015b61201661445a565b81526020019060019003908161200e5790505b50945084508067ffffffffffffffff811180156120465760006000fd5b506040519080825280602002602001820160405280156120755781602001602082028036833780820191505090505b50935083508067ffffffffffffffff811180156120925760006000fd5b506040519080825280602002602001820160405280156120c15781602001602082028036833780820191505090505b5092508250600060008890505b838167ffffffffffffffff16101561243e578715612289576120f581613a4763ffffffff16565b151561210057612431565b600e60005060008267ffffffffffffffff1667ffffffffffffffff1681526020019081526020016000206000506040518060a001604052908160008201600050548152602001600182016000505481526020016002820160009054906101000a900473ffffffffffffffffffffffffffffffffffffffff1673ffffffffffffffffffffffffffffffffffffffff1673ffffffffffffffffffffffffffffffffffffffff1681526020016002820160149054906101000a900467ffffffffffffffff1667ffffffffffffffff1667ffffffffffffffff1681526020016003820160009054906101000a900467ffffffffffffffff1667ffffffffffffffff1667ffffffffffffffff1681526020015050878381518110151561221d57fe5b60200260200101819052508067ffffffffffffffff16868381518110151561224157fe5b602002602001019090818152602001505061226181612ce063ffffffff16565b858381518110151561226f57fe5b602002602001019015159081151581526020015050612428565b6122988161397b63ffffffff16565b15156122a357612431565b600f60005060008267ffffffffffffffff1667ffffffffffffffff1681526020019081526020016000206000506040518060a001604052908160008201600050548152602001600182016000505481526020016002820160009054906101000a900473ffffffffffffffffffffffffffffffffffffffff1673ffffffffffffffffffffffffffffffffffffffff1673ffffffffffffffffffffffffffffffffffffffff1681526020016002820160149054906101000a900467ffffffffffffffff1667ffffffffffffffff1667ffffffffffffffff1681526020016003820160009054906101000a900467ffffffffffffffff1667ffffffffffffffff1667ffffffffffffffff168152602001505087838151811015156123c057fe5b60200260200101819052508067ffffffffffffffff1686838151811015156123e457fe5b602002602001019090818152602001505061240481611d3e63ffffffff16565b858381518110151561241257fe5b6020026020010190151590811515815260200150505b81806001019250505b80806001019150506120ce565b505050505b9250925092565b601060089054906101000a900467ffffffffffffffff1681565b6124726130db63ffffffff16565b80600b600050819090905550600c60005054600b600050541015156124975760006000fd5b6040516124a39061490d565b60405180910390207f3a64504f0bc0c335e2aecb78638a257e0351a3fe0370861fd54ee4190b920933826040516124da9190614e4d565b60405180910390a25b5b50565b6124f56130db63ffffffff16565b80600960005081909090555060096000505460086000505410151561251a5760006000fd5b60405161252690614849565b60405180910390207f3a64504f0bc0c335e2aecb78638a257e0351a3fe0370861fd54ee4190b9209338260405161255d9190614e4d565b60405180910390a25b5b50565b60086000505481565b601360009054906101000a900473ffffffffffffffffffffffffffffffffffffffff1681565b6125a761377d63ffffffff16565b6125b561385c63ffffffff16565b6125c4826118b463ffffffff16565b1515612605576040517f08c379a00000000000000000000000000000000000000000000000000000000081526004016125fc90614e0e565b60405180910390fd5b6000600f60005060008467ffffffffffffffff1667ffffffffffffffff16815260200190815260200160002060005090506000600082600001600050549050600073ffffffffffffffffffffffffffffffffffffffff168360020160009054906101000a900473ffffffffffffffffffffffffffffffffffffffff1673ffffffffffffffffffffffffffffffffffffffff161415612751576126bf60646126b183612b6163ffffffff16565b613a8c90919063ffffffff16565b84101515612702576040517f08c379a00000000000000000000000000000000000000000000000000000000081526004016126f990614d12565b60405180910390fd5b61271a8160126000505461366b90919063ffffffff16565b6012600050819090905550600360009054906101000a900473ffffffffffffffffffffffffffffffffffffffff16915081506127de565b6127706007600050548460010160005054613b2a90919063ffffffff16565b84111515156127b4576040517f08c379a00000000000000000000000000000000000000000000000000000000081526004016127ab90614bd7565b60405180910390fd5b8260020160009054906101000a900473ffffffffffffffffffffffffffffffffffffffff16915081505b338360020160006101000a81548173ffffffffffffffffffffffffffffffffffffffff021916908373ffffffffffffffffffffffffffffffffffffffff16021790555083836001016000508190909055506000612856600d60089054906101000a900467ffffffffffffffff166138b163ffffffff16565b90508067ffffffffffffffff168460020160149054906101000a900467ffffffffffffffff1667ffffffffffffffff1610156128b857808460020160146101000a81548167ffffffffffffffff021916908367ffffffffffffffff1602179055505b600360009054906101000a900473ffffffffffffffffffffffffffffffffffffffff1673ffffffffffffffffffffffffffffffffffffffff166323b872dd3385856040518463ffffffff1660e01b815260040161291793929190614997565b602060405180830381600087803b1580156129325760006000fd5b505af1158015612947573d600060003e3d6000fd5b505050506040513d601f19601f8201168201806040525081019061296b91906144df565b15156129775760006000fd5b3373ffffffffffffffffffffffffffffffffffffffff168667ffffffffffffffff167f3e40664282966c0a42567d60514e22e8d06206cbcaa7d79f53dc8fcd8c724246876040516129c89190614e4d565b60405180910390a3505050505b5b6129e46138e763ffffffff16565b5b5050565b6129f761377d63ffffffff16565b612a05613b5063ffffffff16565b60006000612a17610e0563ffffffff16565b915091506000821115612a3a57612a35826001613c8963ffffffff16565b612a95565b6000811115612a5957612a54816000613c8963ffffffff16565b612a94565b6040517f08c379a0000000000000000000000000000000000000000000000000000000008152600401612a8b90614dcf565b60405180910390fd5b5b50505b5b612aa76138e763ffffffff16565b5b565b612ab86130db63ffffffff16565b80600d60006101000a81548167ffffffffffffffff021916908367ffffffffffffffff1602179055506000600d60009054906101000a900467ffffffffffffffff1667ffffffffffffffff16111515612b115760006000fd5b604051612b1d90614785565b60405180910390207f6293347933ad2997134e224ac8cd2e39908a4a22aeed9af52127b4bbf765297882604051612b549190614eca565b60405180910390a25b5b50565b6000612cba600060009054906101000a900473ffffffffffffffffffffffffffffffffffffffff1673ffffffffffffffffffffffffffffffffffffffff1663875b1fa06040518163ffffffff1660e01b815260040160206040518083038186803b158015612bcf5760006000fd5b505afa158015612be4573d600060003e3d6000fd5b505050506040513d601f19601f82011682018060405250810190612c089190614659565b600360009054906101000a900473ffffffffffffffffffffffffffffffffffffffff1673ffffffffffffffffffffffffffffffffffffffff166318160ddd6040518163ffffffff1660e01b815260040160206040518083038186803b158015612c715760006000fd5b505afa158015612c86573d600060003e3d6000fd5b505050506040513d601f19601f82011682018060405250810190612caa9190614659565b84613d4e9092919063ffffffff16565b9050612cc1565b919050565b601060009054906101000a900467ffffffffffffffff1681565b6000612cf182613a4763ffffffff16565b612cfc576000612d38565b612d37600e60005060008467ffffffffffffffff1667ffffffffffffffff1681526020019081526020016000206000506139c063ffffffff16565b5b9050612d3f565b919050565b612d5261377d63ffffffff16565b612d6061385c63ffffffff16565b612d6f81612ce063ffffffff16565b1515612db0576040517f08c379a0000000000000000000000000000000000000000000000000000000008152600401612da790614cd3565b60405180910390fd5b6000600e60005060008367ffffffffffffffff1667ffffffffffffffff168152602001908152602001600020600050905060008160000160005054905060008260020160009054906101000a900473ffffffffffffffffffffffffffffffffffffffff169050612e2e8260116000505461366b90919063ffffffff16565b6011600050819090905550600073ffffffffffffffffffffffffffffffffffffffff168173ffffffffffffffffffffffffffffffffffffffff16141515612f0157600360009054906101000a900473ffffffffffffffffffffffffffffffffffffffff1673ffffffffffffffffffffffffffffffffffffffff166316f9428f82846040518363ffffffff1660e01b8152600401612ecc929190614a00565b600060405180830381600087803b158015612ee75760006000fd5b505af1158015612efc573d600060003e3d6000fd5b505050505b600e60005060008567ffffffffffffffff1667ffffffffffffffff1681526020019081526020016000206000600082016000506000905560018201600050600090556002820160006101000a81549073ffffffffffffffffffffffffffffffffffffffff02191690556002820160146101000a81549067ffffffffffffffff02191690556003820160006101000a81549067ffffffffffffffff021916905550508073ffffffffffffffffffffffffffffffffffffffff168467ffffffffffffffff167f596e5ff4197d4a01b2406d4c0717653cbc9166cf6ab2bdf78272eb99d191a09360405160405180910390a35050505b5b6130036138e763ffffffff16565b5b50565b600160009054906101000a900473ffffffffffffffffffffffffffffffffffffffff1681565b61303b6130db63ffffffff16565b806007600050819090905550670de0b6b3a76400006007600050541115156130635760006000fd5b60405161306f906148ab565b60405180910390207f3a64504f0bc0c335e2aecb78638a257e0351a3fe0370861fd54ee4190b920933826040516130a69190614e4d565b60405180910390a25b5b50565b60116000505481565b606481565b600d60089054906101000a900467ffffffffffffffff1681565b600060009054906101000a900473ffffffffffffffffffffffffffffffffffffffff1673ffffffffffffffffffffffffffffffffffffffff163373ffffffffffffffffffffffffffffffffffffffff1614151561316d576040517f08c379a000000000000000000000000000000000000000000000000000000000815260040161316490614c55565b60405180910390fd5b5b565b6001600060146101000a81548160ff0219169083151502179055507f7acc84e34091ae817647a4c49116f5cc07f319078ba80f8f5fde37ea7e25cbd660405160405180910390a15b565b600060009054906101000a900473ffffffffffffffffffffffffffffffffffffffff1673ffffffffffffffffffffffffffffffffffffffff166399eeec956040518163ffffffff1660e01b815260040160206040518083038186803b1580156132235760006000fd5b505afa158015613238573d600060003e3d6000fd5b505050506040513d601f19601f8201168201806040525081019061325c91906145a1565b601360006101000a81548173ffffffffffffffffffffffffffffffffffffffff021916908373ffffffffffffffffffffffffffffffffffffffff160217905550600060405180610140016040528063ddf31e6760e01b7bffffffffffffffffffffffffffffffffffffffffffffffffffffffff19167bffffffffffffffffffffffffffffffffffffffffffffffffffffffff191681526020016334b1447560e01b7bffffffffffffffffffffffffffffffffffffffffffffffffffffffff19167bffffffffffffffffffffffffffffffffffffffffffffffffffffffff19168152602001638d56248a60e01b7bffffffffffffffffffffffffffffffffffffffffffffffffffffffff19167bffffffffffffffffffffffffffffffffffffffffffffffffffffffff19168152602001633a3a63df60e01b7bffffffffffffffffffffffffffffffffffffffffffffffffffffffff19167bffffffffffffffffffffffffffffffffffffffffffffffffffffffff1916815260200163887c67d960e01b7bffffffffffffffffffffffffffffffffffffffffffffffffffffffff19167bffffffffffffffffffffffffffffffffffffffffffffffffffffffff19168152602001634ae8470d60e01b7bffffffffffffffffffffffffffffffffffffffffffffffffffffffff19167bffffffffffffffffffffffffffffffffffffffffffffffffffffffff1916815260200163afea44ef60e01b7bffffffffffffffffffffffffffffffffffffffffffffffffffffffff19167bffffffffffffffffffffffffffffffffffffffffffffffffffffffff19168152602001630fb4e2b360e01b7bffffffffffffffffffffffffffffffffffffffffffffffffffffffff19167bffffffffffffffffffffffffffffffffffffffffffffffffffffffff191681526020016375d0ef5260e01b7bffffffffffffffffffffffffffffffffffffffffffffffffffffffff19167bffffffffffffffffffffffffffffffffffffffffffffffffffffffff191681526020016337ca44fc60e01b7bffffffffffffffffffffffffffffffffffffffffffffffffffffffff19167bffffffffffffffffffffffffffffffffffffffffffffffffffffffff1916815260200150905060008150600a90506000600090505b8181101561363f576001600560005060008584600a811015156135c957fe5b60200201517bffffffffffffffffffffffffffffffffffffffffffffffffffffffff19167bffffffffffffffffffffffffffffffffffffffffffffffffffffffff1916815260200190815260200160002060006101000a81548160ff0219169083151502179055505b80806001019150506135aa565b5050505b565b60006136608383670de0b6b3a7640000613d4e63ffffffff16565b905080505b92915050565b600082828403915081111515156136ed576040517f08c379a000000000000000000000000000000000000000000000000000000000815260040180806020018281038252600d8152602001807f7375622d756e646572666c6f770000000000000000000000000000000000000081526020015060200191505060405180910390fd5b5b92915050565b60008282840191508110151515613776576040517f08c379a000000000000000000000000000000000000000000000000000000000815260040180806020018281038252600c8152602001807f6164642d6f766572666c6f77000000000000000000000000000000000000000081526020015060200191505060405180910390fd5b5b92915050565b600460009054906101000a900473ffffffffffffffffffffffffffffffffffffffff1673ffffffffffffffffffffffffffffffffffffffff1663e97dcb626040518163ffffffff1660e01b8152600401600060405180830381600087803b1580156137e85760006000fd5b505af11580156137fd573d600060003e3d6000fd5b5050505060026006600050541415151561384c576040517f08c379a000000000000000000000000000000000000000000000000000000000815260040161384390614c94565b60405180910390fd5b600260066000508190909055505b565b600060149054906101000a900460ff161515156138ae576040517f08c379a00000000000000000000000000000000000000000000000000000000081526004016138a590614d51565b60405180910390fd5b5b565b60006138dd826138c5613e4f63ffffffff16565b67ffffffffffffffff16613e6a90919063ffffffff16565b905080505b919050565b60016006600050819090905550600460009054906101000a900473ffffffffffffffffffffffffffffffffffffffff1673ffffffffffffffffffffffffffffffffffffffff1663e9fad8ee6040518163ffffffff1660e01b8152600401600060405180830381600087803b15801561395f5760006000fd5b505af1158015613974573d600060003e3d6000fd5b505050505b565b60006000600f60005060008467ffffffffffffffff1667ffffffffffffffff168152602001908152602001600020600050600001600050541190506139bb565b919050565b600060006139d2613e4f63ffffffff16565b90508067ffffffffffffffff168360020160149054906101000a900467ffffffffffffffff1667ffffffffffffffff161080613a3957508067ffffffffffffffff168360030160009054906101000a900467ffffffffffffffff1667ffffffffffffffff16105b915050613a4256505b919050565b60006000600e60005060008467ffffffffffffffff1667ffffffffffffffff16815260200190815260200160002060005060000160005054119050613a87565b919050565b60006000821480613aac57508282838502925082811515613aa957fe5b04145b1515613b23576040517f08c379a000000000000000000000000000000000000000000000000000000000815260040180806020018281038252600c8152602001807f6d756c2d6f766572666c6f77000000000000000000000000000000000000000081526020015060200191505060405180910390fd5b5b92915050565b6000613b4583670de0b6b3a764000084613d4e63ffffffff16565b905080505b92915050565b600060149054906101000a900460ff16151515613ba2576040517f08c379a0000000000000000000000000000000000000000000000000000000008152600401613b9990614d51565b60405180910390fd5b600060009054906101000a900473ffffffffffffffffffffffffffffffffffffffff1673ffffffffffffffffffffffffffffffffffffffff1663bf86d6906040518163ffffffff1660e01b815260040160206040518083038186803b158015613c0b5760006000fd5b505afa158015613c20573d600060003e3d6000fd5b505050506040513d601f19601f82011682018060405250810190613c4491906144df565b151515613c86576040517f08c379a0000000000000000000000000000000000000000000000000000000008152600401613c7d90614b59565b60405180910390fd5b5b565b600081613c9b57600a60005054613ca2565b6009600050545b9050613cb48382613f0763ffffffff16565b925082508115613ce657613cd6836011600050546136f490919063ffffffff16565b6011600050819090905550613d0a565b613cfe836012600050546136f490919063ffffffff16565b60126000508190909055505b60005b613d208285613f9090919063ffffffff16565b90508050613d348184613fae63ffffffff16565b808403935083505b600084111515613d0d575b50505b5050565b6000600060006000198587098587029250828110838203039150506000811415613d9157600084111515613d825760006000fd5b83820492508292505050613e48565b8084111515613da05760006000fd5b6000848688099050828111820391508083039250600085866000031690508086049550808404935060018182600003040190508083028417935083506000600287600302189050808702600203810290508050808702600203810290508050808702600203810290508050808702600203810290508050808702600203810290508050808702600203810290508050808502955085508595505050505050613e485650505050505b9392505050565b6000613e62426143e8909063ffffffff16565b905080505b90565b60008267ffffffffffffffff1682840191508167ffffffffffffffff1610151515613f00576040517f08c379a000000000000000000000000000000000000000000000000000000000815260040180806020018281038252600c8152602001807f6164642d6f766572666c6f77000000000000000000000000000000000000000081526020015060200191505060405180910390fd5b5b92915050565b60006000613f3e600d60009054906101000a900467ffffffffffffffff1667ffffffffffffffff1684613a8c90919063ffffffff16565b905060008385811515613f4d57fe5b06905060006008600050548210613f645785613f68565b8186035b9050613f7d8184613f9090919063ffffffff16565b9350505050613f8a565050505b92915050565b6000818310613f9f5781613fa1565b825b9050613fa8565b92915050565b6000613fd5600d60189054906101000a900467ffffffffffffffff166138b163ffffffff16565b90508067ffffffffffffffff16601060109054906101000a900467ffffffffffffffff1667ffffffffffffffff1610156140335780601060106101000a81548167ffffffffffffffff021916908367ffffffffffffffff1602179055505b60006040518060a0016040528085815260200160008152602001600073ffffffffffffffffffffffffffffffffffffffff16815260200161408f600d60109054906101000a900467ffffffffffffffff166138b163ffffffff16565b67ffffffffffffffff1681526020018367ffffffffffffffff168152602001509050821561424e5780600e6000506000601060009054906101000a900467ffffffffffffffff1667ffffffffffffffff1667ffffffffffffffff16815260200190815260200160002060005060008201518160000160005090905560208201518160010160005090905560408201518160020160006101000a81548173ffffffffffffffffffffffffffffffffffffffff021916908373ffffffffffffffffffffffffffffffffffffffff16021790555060608201518160020160146101000a81548167ffffffffffffffff021916908367ffffffffffffffff16021790555060808201518160030160006101000a81548167ffffffffffffffff021916908367ffffffffffffffff160217905550905050836010600081819054906101000a900467ffffffffffffffff168092919060010191906101000a81548167ffffffffffffffff021916908367ffffffffffffffff16021790555067ffffffffffffffff167fb706108f90fb9e0fadc5f3feaa02b4c23b9d569ad7b46408c64eb4f224eba7cd846040516142419190614eca565b60405180910390a36143e1565b80600f6000506000601060089054906101000a900467ffffffffffffffff1667ffffffffffffffff1667ffffffffffffffff16815260200190815260200160002060005060008201518160000160005090905560208201518160010160005090905560408201518160020160006101000a81548173ffffffffffffffffffffffffffffffffffffffff021916908373ffffffffffffffffffffffffffffffffffffffff16021790555060608201518160020160146101000a81548167ffffffffffffffff021916908367ffffffffffffffff16021790555060808201518160030160006101000a81548167ffffffffffffffff021916908367ffffffffffffffff160217905550905050836010600881819054906101000a900467ffffffffffffffff168092919060010191906101000a81548167ffffffffffffffff021916908367ffffffffffffffff16021790555067ffffffffffffffff167f4e673c0fa7786d8c4c1cba0d1678d726ef2cb772cc6abbe3cea73c1a6d9a681e846040516143d89190614eca565b60405180910390a35b50505b5050565b6000680100000000000000008210151561444d576040517f08c379a0000000000000000000000000000000000000000000000000000000008152600401808060200182810382526026815260200180614f266026913960400191505060405180910390fd5b819050614455565b919050565b6040518060a001604052806000815260200160008152602001600073ffffffffffffffffffffffffffffffffffffffff168152602001600067ffffffffffffffff168152602001600067ffffffffffffffff168152602001509056614f24565b60008135905067ffffffffffffffff8116811415156144d95760006000fd5b5b919050565b6000602082840312156144f0578081fd5b81516144fb81614ee6565b809150505b92915050565b600060208284031215614517578081fd5b81357fffffffff00000000000000000000000000000000000000000000000000000000811681141515614548578182fd5b809150505b92915050565b600060208284031215614564578081fd5b815161456f81614efb565b809150505b92915050565b60006020828403121561458b578081fd5b815161459681614efb565b809150505b92915050565b6000602082840312156145b2578081fd5b81516145bd81614efb565b809150505b92915050565b6000602082840312156145d9578081fd5b81516145e481614efb565b809150505b92915050565b600060208284031215614600578081fd5b813561460b81614efb565b809150505b92915050565b600060208284031215614627578081fd5b815161463281614efb565b809150505b92915050565b60006020828403121561464e578081fd5b813590505b92915050565b60006020828403121561466a578081fd5b815190505b92915050565b600060208284031215614686578081fd5b61468f826144ba565b90505b92915050565b60006000604083850312156146ab578081fd5b6146b4836144ba565b915060208301356146c481614ee6565b809150505b9250929050565b60006000604083850312156146e3578182fd5b6146ec836144ba565b9150602083013590505b9250929050565b6000815180845260208085019450808401835b8381101561473457815115158752828701965082820191505b600181019050614710565b505050508290505b92915050565b6000815180845260208085019450808401835b838110156147775781518752828701965082820191505b600181019050614755565b505050508290505b92915050565b60007f6d6178426174636853697a6500000000000000000000000000000000000000008252600c820190505b919050565b60007f657874656e73696f6e50657242696400000000000000000000000000000000008252600f820190505b919050565b60007f6d6178446566696369744c6f7453697a6500000000000000000000000000000082526011820190505b919050565b60007f6d617841756374696f6e4475726174696f6e000000000000000000000000000082526012820190505b919050565b60007f6d6178537572706c75734c6f7453697a6500000000000000000000000000000082526011820190505b919050565b60007f6d696e41756374696f6e4475726174696f6e000000000000000000000000000082526012820190505b919050565b60007f6d696e42696444656c74610000000000000000000000000000000000000000008252600b820190505b919050565b60007f6d696e4c6f7453697a65000000000000000000000000000000000000000000008252600a820190505b919050565b60007f72657365727665734275666665724c6f776572426f756e64000000000000000082526018820190505b919050565b60007f72657365727665734275666665725570706572426f756e64000000000000000082526018820190505b919050565b600060208201905073ffffffffffffffffffffffffffffffffffffffff831682525b92915050565b600060608201905073ffffffffffffffffffffffffffffffffffffffff80861683528085166020840152508260408301525b949350505050565b600060408201905073ffffffffffffffffffffffffffffffffffffffff841682528260208301525b9392505050565b600060408201905073ffffffffffffffffffffffffffffffffffffffff841682528260208301525b9392505050565b600060608083018184528087518083526080925082860191506020808a01865b83811015614abe578151805186528381015184870152604073ffffffffffffffffffffffffffffffffffffffff818301511681880152508781015167ffffffffffffffff8082168a8901528089840151168989015250505060a08501945082820191505b600181019050614a4f565b5050868303818801525050614ad38188614742565b925050508281036040840152614ae981856146fd565b9150505b949350505050565b600060208201905082151582525b92915050565b600060208201905073ffffffffffffffffffffffffffffffffffffffff831682525b92915050565b600060208201905073ffffffffffffffffffffffffffffffffffffffff831682525b92915050565b600060208252601160208301527f50726f746f636f6c2073687574646f776e00000000000000000000000000000060408301526060820190505b919050565b600060208252600b60208301527f42696420746f6f206c6f7700000000000000000000000000000000000000000060408301526060820190505b919050565b600060208252601160208301527f446964206e6f7420756e6465722062696400000000000000000000000000000060408301526060820190505b919050565b600060208252600f60208301527f446964206e6f74206f757420626964000000000000000000000000000000000060408301526060820190505b919050565b600060208252600e60208301527f4e6f7420417574686f72697a656400000000000000000000000000000000000060408301526060820190505b919050565b600060208252600d60208301527f4c50205265656e7472616e63790000000000000000000000000000000000000060408301526060820190505b919050565b600060208252601860208301527f43616e7420736574746c6520746869732061756374696f6e000000000000000060408301526060820190505b919050565b600060208252600c60208301527f42696420746f6f2068696768000000000000000000000000000000000000000060408301526060820190505b919050565b600060208252601360208301527f436f6e74726163742069732073746f707065640000000000000000000000000060408301526060820190505b919050565b600060208252601c60208301527f557365206c61746573742041756374696f6e7320636f6e74726163740000000060408301526060820190505b919050565b600060208252601460208301527f4e6f2061756374696f6e7320746f20737461727400000000000000000000000060408301526060820190505b919050565b600060208252601060208301527f41756374696f6e206e6f74206c6976650000000000000000000000000000000060408301526060820190505b919050565b60006020820190508282525b92915050565b60006040820190508382528260208301525b9392505050565b600060a08201905086825285602083015273ffffffffffffffffffffffffffffffffffffffff8516604083015267ffffffffffffffff80851660608401528084166080840152505b9695505050505050565b600060208201905067ffffffffffffffff831682525b92915050565b80151581141515614ef75760006000fd5b5b50565b73ffffffffffffffffffffffffffffffffffffffff811681141515614f205760006000fd5b5b50565bfe53616665436173743a2076616c756520646f65736e27742066697420696e2036342062697473a26469706673582212200acf09155c6768dda8d8fb3197170af24e4cb30fabc5e3273c8c0c98a18ad15d64736f6c63430007060033",
  "linkReferences": {},
  "deployedLinkReferences": {}
}