{
  "_format": "hh-sol-artifact-1",
  "contractName": "Auctions",
  "sourceName": "contracts/core/logic/Auctions.sol",
  "abi": [
    {
      "anonymous": false,
      "inputs": [
        {
          "indexed": true,
          "internalType": "uint64",
          "name": "auctionID",
          "type": "uint64"
        },
        {
          "indexed": true,
          "internalType": "address",
          "name": "bidder",
          "type": "address"
        },
        {
          "indexed": false,
          "internalType": "uint256",
          "name": "bid",
          "type": "uint256"
        }
      ],
      "name": "DeficitAuctionBid",
      "type": "event"
    },
    {
      "anonymous": false,
      "inputs": [
        {
          "indexed": true,
          "internalType": "uint64",
          "name": "auctionID",
          "type": "uint64"
        },
        {
          "indexed": true,
          "internalType": "address",
          "name": "winner",
          "type": "address"
        }
      ],
      "name": "DeficitAuctionSettled",
      "type": "event"
    },
    {
      "anonymous": false,
      "inputs": [
        {
          "indexed": true,
          "internalType": "uint64",
          "name": "auctionID",
          "type": "uint64"
        },
        {
          "indexed": true,
          "internalType": "uint256",
          "name": "count",
          "type": "uint256"
        },
        {
          "indexed": false,
          "internalType": "uint64",
          "name": "maxEndTime",
          "type": "uint64"
        }
      ],
      "name": "DeficitAuctionStarted",
      "type": "event"
    },
    {
      "anonymous": false,
      "inputs": [
        {
          "indexed": true,
          "internalType": "address",
          "name": "governor",
          "type": "address"
        }
      ],
      "name": "Initialized",
      "type": "event"
    },
    {
      "anonymous": false,
      "inputs": [
        {
          "indexed": true,
          "internalType": "string",
          "name": "paramName",
          "type": "string"
        },
        {
          "indexed": false,
          "internalType": "uint256",
          "name": "value",
          "type": "uint256"
        }
      ],
      "name": "ParameterUpdated",
      "type": "event"
    },
    {
      "anonymous": false,
      "inputs": [
        {
          "indexed": true,
          "internalType": "string",
          "name": "paramName",
          "type": "string"
        },
        {
          "indexed": false,
          "internalType": "uint64",
          "name": "value",
          "type": "uint64"
        }
      ],
      "name": "ParameterUpdated64",
      "type": "event"
    },
    {
      "anonymous": false,
      "inputs": [],
      "name": "Stopped",
      "type": "event"
    },
    {
      "anonymous": false,
      "inputs": [
        {
          "indexed": true,
          "internalType": "uint64",
          "name": "auctionID",
          "type": "uint64"
        },
        {
          "indexed": true,
          "internalType": "address",
          "name": "bidder",
          "type": "address"
        },
        {
          "indexed": false,
          "internalType": "uint256",
          "name": "bid",
          "type": "uint256"
        }
      ],
      "name": "SurplusAuctionBid",
      "type": "event"
    },
    {
      "anonymous": false,
      "inputs": [
        {
          "indexed": true,
          "internalType": "uint64",
          "name": "auctionID",
          "type": "uint64"
        },
        {
          "indexed": true,
          "internalType": "address",
          "name": "winner",
          "type": "address"
        }
      ],
      "name": "SurplusAuctionSettled",
      "type": "event"
    },
    {
      "anonymous": false,
      "inputs": [
        {
          "indexed": true,
          "internalType": "uint64",
          "name": "auctionID",
          "type": "uint64"
        },
        {
          "indexed": true,
          "internalType": "uint256",
          "name": "count",
          "type": "uint256"
        },
        {
          "indexed": false,
          "internalType": "uint64",
          "name": "maxEndTime",
          "type": "uint64"
        }
      ],
      "name": "SurplusAuctionStarted",
      "type": "event"
    },
    {
      "inputs": [
        {
          "internalType": "uint64",
          "name": "auctionID",
          "type": "uint64"
        },
        {
          "internalType": "uint128",
          "name": "bid",
          "type": "uint128"
        }
      ],
      "name": "bidDeficitAuction",
      "outputs": [],
      "stateMutability": "nonpayable",
      "type": "function"
    },
    {
      "inputs": [
        {
          "internalType": "uint64",
          "name": "auctionID",
          "type": "uint64"
        },
        {
          "internalType": "uint128",
          "name": "bid",
          "type": "uint128"
        }
      ],
      "name": "bidSurplusAuction",
      "outputs": [],
      "stateMutability": "nonpayable",
      "type": "function"
    },
    {
      "inputs": [],
      "name": "checkReservesAndStartAuctions",
      "outputs": [],
      "stateMutability": "nonpayable",
      "type": "function"
    },
    {
      "inputs": [],
      "name": "completeSetup",
      "outputs": [],
      "stateMutability": "nonpayable",
      "type": "function"
    },
    {
      "inputs": [
        {
          "internalType": "uint64",
          "name": "",
          "type": "uint64"
        }
      ],
      "name": "deficitAuction",
      "outputs": [
        {
          "internalType": "uint128",
          "name": "count",
          "type": "uint128"
        },
        {
          "internalType": "uint128",
          "name": "bid",
          "type": "uint128"
        },
        {
          "internalType": "address",
          "name": "bidder",
          "type": "address"
        },
        {
          "internalType": "uint48",
          "name": "endTime",
          "type": "uint48"
        },
        {
          "internalType": "uint48",
          "name": "maxEndTime",
          "type": "uint48"
        }
      ],
      "stateMutability": "view",
      "type": "function"
    },
    {
      "inputs": [
        {
          "internalType": "uint64",
          "name": "auctionID",
          "type": "uint64"
        }
      ],
      "name": "deficitAuctionComplete",
      "outputs": [
        {
          "internalType": "bool",
          "name": "",
          "type": "bool"
        }
      ],
      "stateMutability": "view",
      "type": "function"
    },
    {
      "inputs": [],
      "name": "deficitAuctionCount",
      "outputs": [
        {
          "internalType": "uint64",
          "name": "",
          "type": "uint64"
        }
      ],
      "stateMutability": "view",
      "type": "function"
    },
    {
      "inputs": [
        {
          "internalType": "uint64",
          "name": "auctionID",
          "type": "uint64"
        }
      ],
      "name": "deficitAuctionLive",
      "outputs": [
        {
          "internalType": "bool",
          "name": "",
          "type": "bool"
        }
      ],
      "stateMutability": "view",
      "type": "function"
    },
    {
      "inputs": [],
      "name": "deployer",
      "outputs": [
        {
          "internalType": "address",
          "name": "",
          "type": "address"
        }
      ],
      "stateMutability": "view",
      "type": "function"
    },
    {
      "inputs": [],
      "name": "extensionPerBid",
      "outputs": [
        {
          "internalType": "uint64",
          "name": "",
          "type": "uint64"
        }
      ],
      "stateMutability": "view",
      "type": "function"
    },
    {
      "inputs": [
        {
          "internalType": "uint64",
          "name": "start",
          "type": "uint64"
        },
        {
          "internalType": "bool",
          "name": "surplus",
          "type": "bool"
        }
      ],
      "name": "getAllAuctions",
      "outputs": [
        {
          "components": [
            {
              "internalType": "uint128",
              "name": "count",
              "type": "uint128"
            },
            {
              "internalType": "uint128",
              "name": "bid",
              "type": "uint128"
            },
            {
              "internalType": "address",
              "name": "bidder",
              "type": "address"
            },
            {
              "internalType": "uint48",
              "name": "endTime",
              "type": "uint48"
            },
            {
              "internalType": "uint48",
              "name": "maxEndTime",
              "type": "uint48"
            }
          ],
          "internalType": "struct IAuctions.Auction[]",
          "name": "_auctions",
          "type": "tuple[]"
        },
        {
          "internalType": "uint256[]",
          "name": "_auctionIDs",
          "type": "uint256[]"
        },
        {
          "internalType": "bool[]",
          "name": "_isComplete",
          "type": "bool[]"
        }
      ],
      "stateMutability": "view",
      "type": "function"
    },
    {
      "inputs": [],
      "name": "governor",
      "outputs": [
        {
          "internalType": "contract IGovernor",
          "name": "",
          "type": "address"
        }
      ],
      "stateMutability": "view",
      "type": "function"
    },
    {
      "inputs": [
        {
          "internalType": "contract IGovernor",
          "name": "_governor",
          "type": "address"
        }
      ],
      "name": "init",
      "outputs": [],
      "stateMutability": "nonpayable",
      "type": "function"
    },
    {
      "inputs": [],
      "name": "latestAuctionCompletionTime",
      "outputs": [
        {
          "internalType": "uint64",
          "name": "",
          "type": "uint64"
        }
      ],
      "stateMutability": "view",
      "type": "function"
    },
    {
      "inputs": [],
      "name": "maxAuctionDuration",
      "outputs": [
        {
          "internalType": "uint64",
          "name": "",
          "type": "uint64"
        }
      ],
      "stateMutability": "view",
      "type": "function"
    },
    {
      "inputs": [],
      "name": "maxBatchSize",
      "outputs": [
        {
          "internalType": "uint64",
          "name": "",
          "type": "uint64"
        }
      ],
      "stateMutability": "view",
      "type": "function"
    },
    {
      "inputs": [],
      "name": "maxDeficitLotSize",
      "outputs": [
        {
          "internalType": "uint256",
          "name": "",
          "type": "uint256"
        }
      ],
      "stateMutability": "view",
      "type": "function"
    },
    {
      "inputs": [],
      "name": "maxSurplusLotSize",
      "outputs": [
        {
          "internalType": "uint256",
          "name": "",
          "type": "uint256"
        }
      ],
      "stateMutability": "view",
      "type": "function"
    },
    {
      "inputs": [],
      "name": "minAuctionDuration",
      "outputs": [
        {
          "internalType": "uint64",
          "name": "",
          "type": "uint64"
        }
      ],
      "stateMutability": "view",
      "type": "function"
    },
    {
      "inputs": [],
      "name": "minBidDelta",
      "outputs": [
        {
          "internalType": "uint256",
          "name": "",
          "type": "uint256"
        }
      ],
      "stateMutability": "view",
      "type": "function"
    },
    {
      "inputs": [],
      "name": "minLotSize",
      "outputs": [
        {
          "internalType": "uint256",
          "name": "",
          "type": "uint256"
        }
      ],
      "stateMutability": "view",
      "type": "function"
    },
    {
      "inputs": [],
      "name": "reservesBufferLowerBound",
      "outputs": [
        {
          "internalType": "uint256",
          "name": "",
          "type": "uint256"
        }
      ],
      "stateMutability": "view",
      "type": "function"
    },
    {
      "inputs": [],
      "name": "reservesBufferUpperBound",
      "outputs": [
        {
          "internalType": "uint256",
          "name": "",
          "type": "uint256"
        }
      ],
      "stateMutability": "view",
      "type": "function"
    },
    {
      "inputs": [
        {
          "internalType": "uint64",
          "name": "extension",
          "type": "uint64"
        }
      ],
      "name": "setExtensionPerBid",
      "outputs": [],
      "stateMutability": "nonpayable",
      "type": "function"
    },
    {
      "inputs": [
        {
          "internalType": "uint64",
          "name": "duration",
          "type": "uint64"
        }
      ],
      "name": "setMaxAuctionDuration",
      "outputs": [],
      "stateMutability": "nonpayable",
      "type": "function"
    },
    {
      "inputs": [
        {
          "internalType": "uint64",
          "name": "size",
          "type": "uint64"
        }
      ],
      "name": "setMaxBatchSize",
      "outputs": [],
      "stateMutability": "nonpayable",
      "type": "function"
    },
    {
      "inputs": [
        {
          "internalType": "uint256",
          "name": "size",
          "type": "uint256"
        }
      ],
      "name": "setMaxDeficitLotSize",
      "outputs": [],
      "stateMutability": "nonpayable",
      "type": "function"
    },
    {
      "inputs": [
        {
          "internalType": "uint256",
          "name": "size",
          "type": "uint256"
        }
      ],
      "name": "setMaxSurplusLotSize",
      "outputs": [],
      "stateMutability": "nonpayable",
      "type": "function"
    },
    {
      "inputs": [
        {
          "internalType": "uint64",
          "name": "duration",
          "type": "uint64"
        }
      ],
      "name": "setMinAuctionDuration",
      "outputs": [],
      "stateMutability": "nonpayable",
      "type": "function"
    },
    {
      "inputs": [
        {
          "internalType": "uint256",
          "name": "delta",
          "type": "uint256"
        }
      ],
      "name": "setMinBidDelta",
      "outputs": [],
      "stateMutability": "nonpayable",
      "type": "function"
    },
    {
      "inputs": [
        {
          "internalType": "uint256",
          "name": "size",
          "type": "uint256"
        }
      ],
      "name": "setMinLotSize",
      "outputs": [],
      "stateMutability": "nonpayable",
      "type": "function"
    },
    {
      "inputs": [
        {
          "internalType": "uint256",
          "name": "bound",
          "type": "uint256"
        }
      ],
      "name": "setReservesBufferLowerBound",
      "outputs": [],
      "stateMutability": "nonpayable",
      "type": "function"
    },
    {
      "inputs": [
        {
          "internalType": "uint256",
          "name": "bound",
          "type": "uint256"
        }
      ],
      "name": "setReservesBufferUpperBound",
      "outputs": [],
      "stateMutability": "nonpayable",
      "type": "function"
    },
    {
      "inputs": [
        {
          "internalType": "uint32",
          "name": "duration",
          "type": "uint32"
        }
      ],
      "name": "setTwapDuration",
      "outputs": [],
      "stateMutability": "nonpayable",
      "type": "function"
    },
    {
      "inputs": [
        {
          "internalType": "uint64",
          "name": "auctionID",
          "type": "uint64"
        }
      ],
      "name": "settleDeficitAuction",
      "outputs": [],
      "stateMutability": "nonpayable",
      "type": "function"
    },
    {
      "inputs": [
        {
          "internalType": "uint64",
          "name": "auctionID",
          "type": "uint64"
        }
      ],
      "name": "settleSurplusAuction",
      "outputs": [],
      "stateMutability": "nonpayable",
      "type": "function"
    },
    {
      "inputs": [],
      "name": "shouldStartAuctions",
      "outputs": [
        {
          "internalType": "uint256",
          "name": "surplusAmount",
          "type": "uint256"
        },
        {
          "internalType": "uint256",
          "name": "deficitAmount",
          "type": "uint256"
        }
      ],
      "stateMutability": "view",
      "type": "function"
    },
    {
      "inputs": [],
      "name": "stop",
      "outputs": [],
      "stateMutability": "nonpayable",
      "type": "function"
    },
    {
      "inputs": [],
      "name": "stopped",
      "outputs": [
        {
          "internalType": "bool",
          "name": "",
          "type": "bool"
        }
      ],
      "stateMutability": "view",
      "type": "function"
    },
    {
      "inputs": [
        {
          "internalType": "uint64",
          "name": "",
          "type": "uint64"
        }
      ],
      "name": "surplusAuction",
      "outputs": [
        {
          "internalType": "uint128",
          "name": "count",
          "type": "uint128"
        },
        {
          "internalType": "uint128",
          "name": "bid",
          "type": "uint128"
        },
        {
          "internalType": "address",
          "name": "bidder",
          "type": "address"
        },
        {
          "internalType": "uint48",
          "name": "endTime",
          "type": "uint48"
        },
        {
          "internalType": "uint48",
          "name": "maxEndTime",
          "type": "uint48"
        }
      ],
      "stateMutability": "view",
      "type": "function"
    },
    {
      "inputs": [
        {
          "internalType": "uint64",
          "name": "auctionID",
          "type": "uint64"
        }
      ],
      "name": "surplusAuctionComplete",
      "outputs": [
        {
          "internalType": "bool",
          "name": "",
          "type": "bool"
        }
      ],
      "stateMutability": "view",
      "type": "function"
    },
    {
      "inputs": [],
      "name": "surplusAuctionCount",
      "outputs": [
        {
          "internalType": "uint64",
          "name": "",
          "type": "uint64"
        }
      ],
      "stateMutability": "view",
      "type": "function"
    },
    {
      "inputs": [
        {
          "internalType": "uint64",
          "name": "auctionID",
          "type": "uint64"
        }
      ],
      "name": "surplusAuctionLive",
      "outputs": [
        {
          "internalType": "bool",
          "name": "",
          "type": "bool"
        }
      ],
      "stateMutability": "view",
      "type": "function"
    },
    {
      "inputs": [],
      "name": "tcp",
      "outputs": [
        {
          "internalType": "contract ITCP",
          "name": "",
          "type": "address"
        }
      ],
      "stateMutability": "view",
      "type": "function"
    },
    {
      "inputs": [],
      "name": "twapDuration",
      "outputs": [
        {
          "internalType": "uint32",
          "name": "",
          "type": "uint32"
        }
      ],
      "stateMutability": "view",
      "type": "function"
    },
    {
      "inputs": [
        {
          "internalType": "bytes4",
          "name": "",
          "type": "bytes4"
        }
      ],
      "name": "validUpdate",
      "outputs": [
        {
          "internalType": "bool",
          "name": "",
          "type": "bool"
        }
      ],
      "stateMutability": "view",
      "type": "function"
    },
    {
      "inputs": [],
      "name": "zhuToBeBought",
      "outputs": [
        {
          "internalType": "uint256",
          "name": "",
          "type": "uint256"
        }
      ],
      "stateMutability": "view",
      "type": "function"
    },
    {
      "inputs": [],
      "name": "zhuToBeSold",
      "outputs": [
        {
          "internalType": "uint256",
          "name": "",
          "type": "uint256"
        }
      ],
      "stateMutability": "view",
      "type": "function"
    }
  ],
  "bytecode": "0x608060405260016006600050909055670e4b4b8af6a70000600760005090905568878678326eac900000600860005090905569043c33c1937564800000600960005090905569043c33c1937564800000600a600050909055662386f26fc10000600b60005090905566b1a2bc2ec50000600c6000509090556005600d60006101000a81548167ffffffffffffffff021916908367ffffffffffffffff160217905550610708600d60086101000a81548167ffffffffffffffff021916908367ffffffffffffffff16021790555062015180600d60106101000a81548167ffffffffffffffff021916908367ffffffffffffffff1602179055506202a300600d60186101000a81548167ffffffffffffffff021916908367ffffffffffffffff160217905550610e10601060186101000a81548163ffffffff021916908363ffffffff160217905550348015620001555760006000fd5b505b33600160006101000a81548173ffffffffffffffffffffffffffffffffffffffff021916908373ffffffffffffffffffffffffffffffffffffffff1602179055505b6200019f565b61610380620001af6000396000f3fe60806040523480156100115760006000fd5b50600436106103255760003560e01c8063597e899f116101a85780639052537e116100ef578063caa98b6011610098578063d7abba0c11610072578063d7abba0c146108b4578063ddf31e67146108d0578063faf95d2d146108ec57610325565b8063caa98b601461084a578063d005d2eb1461087a578063d5f394881461089657610325565b8063afea44ef116100c9578063afea44ef146107f4578063c2b6722a14610810578063c433c80a1461082e57610325565b80639052537e146107b057806399e1998f146107ce578063a958c033146107ea57610325565b80637d69535111610151578063887c67d91161012b578063887c67d91461076e5780638aea8f711461078a5780638d56248a1461079457610325565b80637d695351146107005780637e9eeaa2146107325780637eb12af71461075057610325565b8063651cf64d11610182578063651cf64d1461069257806375d0ef52146106c657806375f12b21146106e257610325565b8063597e899f1461062657806360aad9bf14610656578063616cb0cf1461067457610325565b806336fc02f41161026c57806349830f161161021557806354134876116101ef57806354134876146105cc57806354cccf08146105ea57806354f634fb1461060857610325565b806349830f16146105765780634a2304b1146105945780634ae8470d146105b057610325565b806340601add1161024657806340601add146104f85780634079b8fc1461052857806348c9581e1461055857610325565b806336fc02f4146104a257806337ca44fc146104c05780633a3a63df146104dc57610325565b80631b875768116102ce5780632913daa0116102a85780632913daa0146104345780633427c4ef1461045257806334b144751461048657610325565b80631b875768146103d957806325df9538146103f757806326d895451461041657610325565b80630fe86907116102ff5780630fe869071461036f578063113cf1ab1461038d57806319ab453c146103bd57610325565b806307da68f51461032b5780630c340a24146103355780630fb4e2b31461035357610325565b60006000fd5b61033361090a565b005b61033d61092a565b60405161034a9190615c61565b60405180910390f35b61036d6004803603810190610368919061578f565b610950565b005b6103776109d7565b604051610384919061602f565b60405180910390f35b6103a760048036038101906103a291906155a1565b6109e0565b6040516103b49190615c4d565b60405180910390f35b6103d760048036038101906103d2919061563c565b610a05565b005b6103e1610dc3565b6040516103ee9190616072565b60405180910390f35b6103ff610ddd565b60405161040d929190616041565b60405180910390f35b61041e611130565b60405161042b919061605a565b60405180910390f35b61043c611146565b6040516104499190616072565b60405180910390f35b61046c6004803603810190610467919061578f565b611160565b60405161047d959493929190615fc9565b60405180910390f35b6104a0600480360381019061049b9190615726565b611215565b005b6104aa6112c6565b6040516104b79190615c89565b60405180910390f35b6104da60048036038101906104d5919061578f565b6112ec565b005b6104f660048036038101906104f19190615726565b6113c2565b005b610512600480360381019061050d919061578f565b611445565b60405161051f9190615c4d565b60405180910390f35b610542600480360381019061053d919061578f565b6114aa565b60405161054f9190615c4d565b60405180910390f35b61056061150f565b60405161056d9190616072565b60405180910390f35b61057e611529565b60405161058b919061602f565b60405180910390f35b6105ae60048036038101906105a9919061578f565b611532565b005b6105ca60048036038101906105c59190615726565b611987565b005b6105d4611a26565b6040516105e19190616072565b60405180910390f35b6105f2611a40565b6040516105ff919061602f565b60405180910390f35b610610611a49565b60405161061d919061602f565b60405180910390f35b610640600480360381019061063b919061578f565b611a52565b60405161064d9190615c4d565b60405180910390f35b61065e611ab6565b60405161066b919061602f565b60405180910390f35b61067c611abf565b604051610689919061602f565b60405180910390f35b6106ac60048036038101906106a7919061578f565b611ac8565b6040516106bd959493929190615fc9565b60405180910390f35b6106e060048036038101906106db919061578f565b611b7d565b005b6106ea611c53565b6040516106f79190615c4d565b60405180910390f35b61071a600480360381019061071591906157b2565b611c66565b60405161072993929190615b73565b60405180910390f35b61073a612262565b604051610747919061602f565b60405180910390f35b61075861226b565b6040516107659190616072565b60405180910390f35b61078860048036038101906107839190615726565b612285565b005b610792612308565b005b6107ae60048036038101906107a99190615726565b6124de565b005b6107b8612561565b6040516107c5919061602f565b60405180910390f35b6107e860048036038101906107e391906157ea565b61256a565b005b6107f2612c0c565b005b61080e6004803603810190610809919061578f565b612ccd565b005b610818612d84565b6040516108259190616072565b60405180910390f35b6108486004803603810190610843919061575e565b612d9e565b005b610864600480360381019061085f919061578f565b612e3b565b6040516108719190615c4d565b60405180910390f35b610894600480360381019061088f919061578f565b612e9f565b005b61089e6132cd565b6040516108ab9190615adb565b60405180910390f35b6108ce60048036038101906108c991906157ea565b6132f3565b005b6108ea60048036038101906108e59190615726565b613a3c565b005b6108f4613ac2565b6040516109019190616072565b60405180910390f35b610918613adc63ffffffff16565b610926613b7163ffffffff16565b5b5b565b600060009054906101000a900473ffffffffffffffffffffffffffffffffffffffff1681565b61095e613adc63ffffffff16565b80600d60086101000a81548167ffffffffffffffff021916908367ffffffffffffffff160217905550604051610993906158f1565b60405180910390207f6293347933ad2997134e224ac8cd2e39908a4a22aeed9af52127b4bbf7652978826040516109ca9190616072565b60405180910390a25b5b50565b600a6000505481565b600560005060205280600052604060002060009150909054906101000a900460ff1681565b600160009054906101000a900473ffffffffffffffffffffffffffffffffffffffff1673ffffffffffffffffffffffffffffffffffffffff163373ffffffffffffffffffffffffffffffffffffffff16141515610a625760006000fd5b600160006101000a81549073ffffffffffffffffffffffffffffffffffffffff021916905580600060006101000a81548173ffffffffffffffffffffffffffffffffffffffff021916908373ffffffffffffffffffffffffffffffffffffffff160217905550600060009054906101000a900473ffffffffffffffffffffffffffffffffffffffff1673ffffffffffffffffffffffffffffffffffffffff16639624e83e6040518163ffffffff1660e01b815260040160206040518083038186803b158015610b315760006000fd5b505afa158015610b46573d600060003e3d6000fd5b505050506040513d601f19601f82011682018060405250810190610b6a91906155ee565b600260006101000a81548173ffffffffffffffffffffffffffffffffffffffff021916908373ffffffffffffffffffffffffffffffffffffffff160217905550600060009054906101000a900473ffffffffffffffffffffffffffffffffffffffff1673ffffffffffffffffffffffffffffffffffffffff16638a15fcf36040518163ffffffff1660e01b815260040160206040518083038186803b158015610c135760006000fd5b505afa158015610c28573d600060003e3d6000fd5b505050506040513d601f19601f82011682018060405250810190610c4c91906156ff565b600360006101000a81548173ffffffffffffffffffffffffffffffffffffffff021916908373ffffffffffffffffffffffffffffffffffffffff160217905550600060009054906101000a900473ffffffffffffffffffffffffffffffffffffffff1673ffffffffffffffffffffffffffffffffffffffff1663d478b0876040518163ffffffff1660e01b815260040160206040518083038186803b158015610cf55760006000fd5b505afa158015610d0a573d600060003e3d6000fd5b505050506040513d601f19601f82011682018060405250810190610d2e919061568a565b600460006101000a81548173ffffffffffffffffffffffffffffffffffffffff021916908373ffffffffffffffffffffffffffffffffffffffff160217905550610d7c613bbb63ffffffff16565b8073ffffffffffffffffffffffffffffffffffffffff167f908408e307fc569b417f6cbec5d5a06f44a0a505ac0479b47d421a4b2fd6a1e660405160405180910390a25b50565b601060109054906101000a900467ffffffffffffffff1681565b600060003073ffffffffffffffffffffffffffffffffffffffff16600060009054906101000a900473ffffffffffffffffffffffffffffffffffffffff1673ffffffffffffffffffffffffffffffffffffffff166385aa61036040518163ffffffff1660e01b815260040160206040518083038186803b158015610e615760006000fd5b505afa158015610e76573d600060003e3d6000fd5b505050506040513d601f19601f82011682018060405250810190610e9a9190615615565b73ffffffffffffffffffffffffffffffffffffffff16141515610ef2576040517f08c379a0000000000000000000000000000000000000000000000000000000008152600401610ee990615dad565b60405180910390fd5b6000600360009054906101000a900473ffffffffffffffffffffffffffffffffffffffff1673ffffffffffffffffffffffffffffffffffffffff166375172a8b6040518163ffffffff1660e01b815260040160206040518083038186803b158015610f5d5760006000fd5b505afa158015610f72573d600060003e3d6000fd5b505050506040513d601f19601f82011682018060405250810190610f969190615742565b90506000600260009054906101000a900473ffffffffffffffffffffffffffffffffffffffff1673ffffffffffffffffffffffffffffffffffffffff16630dca59c16040518163ffffffff1660e01b815260040160206040518083038186803b1580156110035760006000fd5b505afa158015611018573d600060003e3d6000fd5b505050506040513d601f19601f8201168201806040525081019061103c9190615742565b90506000611058600c600050548361408b90919063ffffffff16565b90506000611074600b600050548461408b90919063ffffffff16565b90506000600a61108d83856140b190919063ffffffff16565b81151561109657fe5b049050826110b2601160005054876140b190919063ffffffff16565b11156110e157808360116000505487030301965086506008600050548710156110dc576000965086505b611126565b816110fa6012600050548761413a90919063ffffffff16565b10156111255780601260005054860183030195508550600860005054861015611124576000955085505b5b5b50505050505b9091565b601060189054906101000a900463ffffffff1681565b600d60009054906101000a900467ffffffffffffffff1681565b600e6000506020528060005260406000206000915090508060000160009054906101000a90046fffffffffffffffffffffffffffffffff16908060000160109054906101000a90046fffffffffffffffffffffffffffffffff16908060010160009054906101000a900473ffffffffffffffffffffffffffffffffffffffff16908060010160149054906101000a900465ffffffffffff169080600101601a9054906101000a900465ffffffffffff16905085565b611223613adc63ffffffff16565b80600860005081909090555060086000505460001015156112445760006000fd5b60096000505460086000505410151561125d5760006000fd5b600a600050546008600050541015156112765760006000fd5b60405161128290615a48565b60405180910390207f3a64504f0bc0c335e2aecb78638a257e0351a3fe0370861fd54ee4190b920933826040516112b9919061602f565b60405180910390a25b5b50565b601360009054906101000a900473ffffffffffffffffffffffffffffffffffffffff1681565b6112fa613adc63ffffffff16565b80600d60186101000a81548167ffffffffffffffff021916908367ffffffffffffffff160217905550600d60189054906101000a900467ffffffffffffffff1667ffffffffffffffff16600d60109054906101000a900467ffffffffffffffff1667ffffffffffffffff161015156113725760006000fd5b60405161137e90615984565b60405180910390207f6293347933ad2997134e224ac8cd2e39908a4a22aeed9af52127b4bbf7652978826040516113b59190616072565b60405180910390a25b5b50565b6113d0613adc63ffffffff16565b80600a600050819090905550600a600050546008600050541015156113f55760006000fd5b60405161140190615953565b60405180910390207f3a64504f0bc0c335e2aecb78638a257e0351a3fe0370861fd54ee4190b92093382604051611438919061602f565b60405180910390a25b5b50565b6000611456826141c363ffffffff16565b61146157600061149e565b61149c600f60005060008467ffffffffffffffff1667ffffffffffffffff16815260200190815260200160002060005061423363ffffffff16565b155b90506114a5565b919050565b60006114bb826142b263ffffffff16565b6114c6576000611503565b611501600e60005060008467ffffffffffffffff1667ffffffffffffffff16815260200190815260200160002060005061423363ffffffff16565b155b905061150a565b919050565b600d60189054906101000a900467ffffffffffffffff1681565b60116000505481565b61154061432263ffffffff16565b61154e61440163ffffffff16565b61155d81611a5263ffffffff16565b151561159e576040517f08c379a000000000000000000000000000000000000000000000000000000000815260040161159590615d2f565b60405180910390fd5b6000600f60005060008367ffffffffffffffff1667ffffffffffffffff1681526020019081526020016000206000506040518060a00160405290816000820160009054906101000a90046fffffffffffffffffffffffffffffffff166fffffffffffffffffffffffffffffffff166fffffffffffffffffffffffffffffffff1681526020016000820160109054906101000a90046fffffffffffffffffffffffffffffffff166fffffffffffffffffffffffffffffffff166fffffffffffffffffffffffffffffffff1681526020016001820160009054906101000a900473ffffffffffffffffffffffffffffffffffffffff1673ffffffffffffffffffffffffffffffffffffffff1673ffffffffffffffffffffffffffffffffffffffff1681526020016001820160149054906101000a900465ffffffffffff1665ffffffffffff1665ffffffffffff16815260200160018201601a9054906101000a900465ffffffffffff1665ffffffffffff1665ffffffffffff16815260200150509050600073ffffffffffffffffffffffffffffffffffffffff16816040015173ffffffffffffffffffffffffffffffffffffffff16141580156117765750600081602001516fffffffffffffffffffffffffffffffff16115b1561181957600060009054906101000a900473ffffffffffffffffffffffffffffffffffffffff1673ffffffffffffffffffffffffffffffffffffffff1663ef7a7cfa826040015183602001516040518363ffffffff1660e01b81526004016117e0929190615b03565b600060405180830381600087803b1580156117fb5760006000fd5b505af1158015611810573d600060003e3d6000fd5b50505050611853565b61184781600001516fffffffffffffffffffffffffffffffff166012600050546140b190919063ffffffff16565b60126000508190909055505b806040015173ffffffffffffffffffffffffffffffffffffffff168267ffffffffffffffff167fd1b34ce351dc1a4cb6c40bb878ba19a12c4c44d35e7bdbeca7b5ebe947da312f60405160405180910390a3600f60005060008367ffffffffffffffff1667ffffffffffffffff16815260200190815260200160002060006000820160006101000a8154906fffffffffffffffffffffffffffffffff02191690556000820160106101000a8154906fffffffffffffffffffffffffffffffff02191690556001820160006101000a81549073ffffffffffffffffffffffffffffffffffffffff02191690556001820160146101000a81549065ffffffffffff021916905560018201601a6101000a81549065ffffffffffff02191690555050505b5b61198361445663ffffffff16565b5b50565b611995613adc63ffffffff16565b80600c600050819090905550600c60005054600b600050541015156119ba5760006000fd5b670de0b6b3a7640000600c600050541015156119d65760006000fd5b6040516119e290615aaa565b60405180910390207f3a64504f0bc0c335e2aecb78638a257e0351a3fe0370861fd54ee4190b92093382604051611a19919061602f565b60405180910390a25b5b50565b600d60109054906101000a900467ffffffffffffffff1681565b600c6000505481565b60076000505481565b6000611a63826141c363ffffffff16565b611a6e576000611aaa565b611aa9600f60005060008467ffffffffffffffff1667ffffffffffffffff16815260200190815260200160002060005061423363ffffffff16565b5b9050611ab1565b919050565b60096000505481565b600b6000505481565b600f6000506020528060005260406000206000915090508060000160009054906101000a90046fffffffffffffffffffffffffffffffff16908060000160109054906101000a90046fffffffffffffffffffffffffffffffff16908060010160009054906101000a900473ffffffffffffffffffffffffffffffffffffffff16908060010160149054906101000a900465ffffffffffff169080600101601a9054906101000a900465ffffffffffff16905085565b611b8b613adc63ffffffff16565b80600d60106101000a81548167ffffffffffffffff021916908367ffffffffffffffff160217905550600d60189054906101000a900467ffffffffffffffff1667ffffffffffffffff16600d60109054906101000a900467ffffffffffffffff1667ffffffffffffffff16101515611c035760006000fd5b604051611c0f906159e6565b60405180910390207f6293347933ad2997134e224ac8cd2e39908a4a22aeed9af52127b4bbf765297882604051611c469190616072565b60405180910390a25b5b50565b600060149054906101000a900460ff1681565b606060606060600084611c8f57601060089054906101000a900467ffffffffffffffff16611ca7565b601060009054906101000a900467ffffffffffffffff165b67ffffffffffffffff169050600060008790505b828167ffffffffffffffff161015611d125786611ce657611ce1816141c363ffffffff16565b611cf6565b611cf5816142b263ffffffff16565b5b15611d045781806001019250505b5b8080600101915050611cbb565b508067ffffffffffffffff81118015611d2b5760006000fd5b50604051908082528060200260200182016040528015611d6557816020015b611d526154d5565b815260200190600190039081611d4a5790505b50945084508067ffffffffffffffff81118015611d825760006000fd5b50604051908082528060200260200182016040528015611db15781602001602082028036833780820191505090505b50935083508067ffffffffffffffff81118015611dce5760006000fd5b50604051908082528060200260200182016040528015611dfd5781602001602082028036833780820191505090505b5092508250600060008890505b838167ffffffffffffffff16101561225657871561203357611e31816142b263ffffffff16565b1515611e3c57612249565b600e60005060008267ffffffffffffffff1667ffffffffffffffff1681526020019081526020016000206000506040518060a00160405290816000820160009054906101000a90046fffffffffffffffffffffffffffffffff166fffffffffffffffffffffffffffffffff166fffffffffffffffffffffffffffffffff1681526020016000820160109054906101000a90046fffffffffffffffffffffffffffffffff166fffffffffffffffffffffffffffffffff166fffffffffffffffffffffffffffffffff1681526020016001820160009054906101000a900473ffffffffffffffffffffffffffffffffffffffff1673ffffffffffffffffffffffffffffffffffffffff1673ffffffffffffffffffffffffffffffffffffffff1681526020016001820160149054906101000a900465ffffffffffff1665ffffffffffff1665ffffffffffff16815260200160018201601a9054906101000a900465ffffffffffff1665ffffffffffff1665ffffffffffff16815260200150508783815181101515611fc757fe5b60200260200101819052508067ffffffffffffffff168683815181101515611feb57fe5b602002602001019090818152602001505061200b81612e3b63ffffffff16565b858381518110151561201957fe5b602002602001019015159081151581526020015050612240565b612042816141c363ffffffff16565b151561204d57612249565b600f60005060008267ffffffffffffffff1667ffffffffffffffff1681526020019081526020016000206000506040518060a00160405290816000820160009054906101000a90046fffffffffffffffffffffffffffffffff166fffffffffffffffffffffffffffffffff166fffffffffffffffffffffffffffffffff1681526020016000820160109054906101000a90046fffffffffffffffffffffffffffffffff166fffffffffffffffffffffffffffffffff166fffffffffffffffffffffffffffffffff1681526020016001820160009054906101000a900473ffffffffffffffffffffffffffffffffffffffff1673ffffffffffffffffffffffffffffffffffffffff1673ffffffffffffffffffffffffffffffffffffffff1681526020016001820160149054906101000a900465ffffffffffff1665ffffffffffff1665ffffffffffff16815260200160018201601a9054906101000a900465ffffffffffff1665ffffffffffff1665ffffffffffff168152602001505087838151811015156121d857fe5b60200260200101819052508067ffffffffffffffff1686838151811015156121fc57fe5b602002602001019090818152602001505061221c81611a5263ffffffff16565b858381518110151561222a57fe5b6020026020010190151590811515815260200150505b81806001019250505b8080600101915050611e0a565b505050505b9250925092565b60126000505481565b601060089054906101000a900467ffffffffffffffff1681565b612293613adc63ffffffff16565b80600b600050819090905550600c60005054600b600050541015156122b85760006000fd5b6040516122c490615a79565b60405180910390207f3a64504f0bc0c335e2aecb78638a257e0351a3fe0370861fd54ee4190b920933826040516122fb919061602f565b60405180910390a25b5b50565b612316613adc63ffffffff16565b600060009054906101000a900473ffffffffffffffffffffffffffffffffffffffff1673ffffffffffffffffffffffffffffffffffffffff16638396cf696040518163ffffffff1660e01b815260040160206040518083038186803b15801561237f5760006000fd5b505afa158015612394573d600060003e3d6000fd5b505050506040513d601f19601f820116820180604052508101906123b891906156d8565b601460006101000a81548173ffffffffffffffffffffffffffffffffffffffff021916908373ffffffffffffffffffffffffffffffffffffffff160217905550600060009054906101000a900473ffffffffffffffffffffffffffffffffffffffff1673ffffffffffffffffffffffffffffffffffffffff1663ff0eccf66040518163ffffffff1660e01b815260040160206040518083038186803b1580156124615760006000fd5b505afa158015612476573d600060003e3d6000fd5b505050506040513d601f19601f8201168201806040525081019061249a91906156d8565b601560006101000a81548173ffffffffffffffffffffffffffffffffffffffff021916908373ffffffffffffffffffffffffffffffffffffffff1602179055505b5b565b6124ec613adc63ffffffff16565b8060096000508190909055506009600050546008600050541015156125115760006000fd5b60405161251d906159b5565b60405180910390207f3a64504f0bc0c335e2aecb78638a257e0351a3fe0370861fd54ee4190b92093382604051612554919061602f565b60405180910390a25b5b50565b60086000505481565b61257861432263ffffffff16565b61258661440163ffffffff16565b6125958261144563ffffffff16565b15156125d6576040517f08c379a00000000000000000000000000000000000000000000000000000000081526004016125cd90615f66565b60405180910390fd5b6000600f60005060008467ffffffffffffffff1667ffffffffffffffff1681526020019081526020016000206000506040518060a00160405290816000820160009054906101000a90046fffffffffffffffffffffffffffffffff166fffffffffffffffffffffffffffffffff166fffffffffffffffffffffffffffffffff1681526020016000820160109054906101000a90046fffffffffffffffffffffffffffffffff166fffffffffffffffffffffffffffffffff166fffffffffffffffffffffffffffffffff1681526020016001820160009054906101000a900473ffffffffffffffffffffffffffffffffffffffff1673ffffffffffffffffffffffffffffffffffffffff1673ffffffffffffffffffffffffffffffffffffffff1681526020016001820160149054906101000a900465ffffffffffff1665ffffffffffff1665ffffffffffff16815260200160018201601a9054906101000a900465ffffffffffff1665ffffffffffff1665ffffffffffff1681526020015050905060003390506000600073ffffffffffffffffffffffffffffffffffffffff16836040015173ffffffffffffffffffffffffffffffffffffffff161415612889576127cf600a6127c185600001516fffffffffffffffffffffffffffffffff166144ea63ffffffff16565b61464890919063ffffffff16565b846fffffffffffffffffffffffffffffffff16101515612824576040517f08c379a000000000000000000000000000000000000000000000000000000000815260040161281b90615ea9565b60405180910390fd5b61285283600001516fffffffffffffffffffffffffffffffff166012600050546140b190919063ffffffff16565b6012600050819090905550600360009054906101000a900473ffffffffffffffffffffffffffffffffffffffff1690508050612917565b6128b760076000505484602001516fffffffffffffffffffffffffffffffff166146e690919063ffffffff16565b846fffffffffffffffffffffffffffffffff161115151561290d576040517f08c379a000000000000000000000000000000000000000000000000000000000815260040161290490615d6e565b60405180910390fd5b8260400151905080505b81836040019073ffffffffffffffffffffffffffffffffffffffff16908173ffffffffffffffffffffffffffffffffffffffff16815260200150508383602001906fffffffffffffffffffffffffffffffff1690816fffffffffffffffffffffffffffffffff168152602001505060006129c66129af600d60089054906101000a900467ffffffffffffffff1661470c63ffffffff16565b67ffffffffffffffff16614742909063ffffffff16565b90508065ffffffffffff16846060015165ffffffffffff161015612a045780846060019065ffffffffffff16908165ffffffffffff16815260200150505b83600f60005060008867ffffffffffffffff1667ffffffffffffffff16815260200190815260200160002060005060008201518160000160006101000a8154816fffffffffffffffffffffffffffffffff02191690836fffffffffffffffffffffffffffffffff16021790555060208201518160000160106101000a8154816fffffffffffffffffffffffffffffffff02191690836fffffffffffffffffffffffffffffffff16021790555060408201518160010160006101000a81548173ffffffffffffffffffffffffffffffffffffffff021916908373ffffffffffffffffffffffffffffffffffffffff16021790555060608201518160010160146101000a81548165ffffffffffff021916908365ffffffffffff160217905550608082015181600101601a6101000a81548165ffffffffffff021916908365ffffffffffff160217905550905050612b9a600360009054906101000a900473ffffffffffffffffffffffffffffffffffffffff16848487600001516fffffffffffffffffffffffffffffffff166147d263ffffffff16565b8273ffffffffffffffffffffffffffffffffffffffff168667ffffffffffffffff167f3e40664282966c0a42567d60514e22e8d06206cbcaa7d79f53dc8fcd8c72424687604051612beb9190615fa5565b60405180910390a3505050505b5b612c0761445663ffffffff16565b5b5050565b612c1a61432263ffffffff16565b612c286149fd63ffffffff16565b60006000612c3a610ddd63ffffffff16565b915091506000821115612c5d57612c58826001614b3663ffffffff16565b612cb8565b6000811115612c7c57612c77816000614b3663ffffffff16565b612cb7565b6040517f08c379a0000000000000000000000000000000000000000000000000000000008152600401612cae90615f27565b60405180910390fd5b5b50505b5b612cca61445663ffffffff16565b5b565b612cdb613adc63ffffffff16565b80600d60006101000a81548167ffffffffffffffff021916908367ffffffffffffffff1602179055506000600d60009054906101000a900467ffffffffffffffff1667ffffffffffffffff16111515612d345760006000fd5b604051612d40906158c0565b60405180910390207f6293347933ad2997134e224ac8cd2e39908a4a22aeed9af52127b4bbf765297882604051612d779190616072565b60405180910390a25b5b50565b601060009054906101000a900467ffffffffffffffff1681565b612dac613adc63ffffffff16565b61012c8163ffffffff1610151515612dc45760006000fd5b80601060186101000a81548163ffffffff021916908363ffffffff160217905550604051612df190615922565b60405180910390207f6293347933ad2997134e224ac8cd2e39908a4a22aeed9af52127b4bbf76529788263ffffffff16604051612e2e9190616072565b60405180910390a25b5b50565b6000612e4c826142b263ffffffff16565b612e57576000612e93565b612e92600e60005060008467ffffffffffffffff1667ffffffffffffffff16815260200190815260200160002060005061423363ffffffff16565b5b9050612e9a565b919050565b612ead61432263ffffffff16565b612ebb61440163ffffffff16565b612eca81612e3b63ffffffff16565b1515612f0b576040517f08c379a0000000000000000000000000000000000000000000000000000000008152600401612f0290615d2f565b60405180910390fd5b6000600e60005060008367ffffffffffffffff1667ffffffffffffffff1681526020019081526020016000206000506040518060a00160405290816000820160009054906101000a90046fffffffffffffffffffffffffffffffff166fffffffffffffffffffffffffffffffff166fffffffffffffffffffffffffffffffff1681526020016000820160109054906101000a90046fffffffffffffffffffffffffffffffff166fffffffffffffffffffffffffffffffff166fffffffffffffffffffffffffffffffff1681526020016001820160009054906101000a900473ffffffffffffffffffffffffffffffffffffffff1673ffffffffffffffffffffffffffffffffffffffff1673ffffffffffffffffffffffffffffffffffffffff1681526020016001820160149054906101000a900465ffffffffffff1665ffffffffffff1665ffffffffffff16815260200160018201601a9054906101000a900465ffffffffffff1665ffffffffffff1665ffffffffffff168152602001505090506130ba81600001516fffffffffffffffffffffffffffffffff166011600050546140b190919063ffffffff16565b6011600050819090905550600073ffffffffffffffffffffffffffffffffffffffff16816040015173ffffffffffffffffffffffffffffffffffffffff1614151561319957600360009054906101000a900473ffffffffffffffffffffffffffffffffffffffff1673ffffffffffffffffffffffffffffffffffffffff166316f9428f826040015183600001516040518363ffffffff1660e01b8152600401613164929190615b03565b600060405180830381600087803b15801561317f5760006000fd5b505af1158015613194573d600060003e3d6000fd5b505050505b806040015173ffffffffffffffffffffffffffffffffffffffff168267ffffffffffffffff167f596e5ff4197d4a01b2406d4c0717653cbc9166cf6ab2bdf78272eb99d191a09360405160405180910390a3600e60005060008367ffffffffffffffff1667ffffffffffffffff16815260200190815260200160002060006000820160006101000a8154906fffffffffffffffffffffffffffffffff02191690556000820160106101000a8154906fffffffffffffffffffffffffffffffff02191690556001820160006101000a81549073ffffffffffffffffffffffffffffffffffffffff02191690556001820160146101000a81549065ffffffffffff021916905560018201601a6101000a81549065ffffffffffff02191690555050505b5b6132c961445663ffffffff16565b5b50565b600160009054906101000a900473ffffffffffffffffffffffffffffffffffffffff1681565b61330161432263ffffffff16565b61330f61440163ffffffff16565b61331e826114aa63ffffffff16565b151561335f576040517f08c379a000000000000000000000000000000000000000000000000000000000815260040161335690615f66565b60405180910390fd5b60003390506000600e60005060008567ffffffffffffffff1667ffffffffffffffff1681526020019081526020016000206000506040518060a00160405290816000820160009054906101000a90046fffffffffffffffffffffffffffffffff166fffffffffffffffffffffffffffffffff166fffffffffffffffffffffffffffffffff1681526020016000820160109054906101000a90046fffffffffffffffffffffffffffffffff166fffffffffffffffffffffffffffffffff166fffffffffffffffffffffffffffffffff1681526020016001820160009054906101000a900473ffffffffffffffffffffffffffffffffffffffff1673ffffffffffffffffffffffffffffffffffffffff1673ffffffffffffffffffffffffffffffffffffffff1681526020016001820160149054906101000a900465ffffffffffff1665ffffffffffff1665ffffffffffff16815260200160018201601a9054906101000a900465ffffffffffff1665ffffffffffff1665ffffffffffff16815260200150509050600060006000600073ffffffffffffffffffffffffffffffffffffffff16846040015173ffffffffffffffffffffffffffffffffffffffff1614156135c657600a61354b85600001516fffffffffffffffffffffffffffffffff166144ea63ffffffff16565b81151561355457fe5b04866fffffffffffffffffffffffffffffffff161115156135aa576040517f08c379a00000000000000000000000000000000000000000000000000000000081526004016135a190615cf0565b60405180910390fd5b856fffffffffffffffffffffffffffffffff169250825061369c565b6135f460076000505485602001516fffffffffffffffffffffffffffffffff1661408b90919063ffffffff16565b866fffffffffffffffffffffffffffffffff161015151561364a576040517f08c379a000000000000000000000000000000000000000000000000000000000815260040161364190615dec565b60405180910390fd5b83602001519150815083604001519050805061369784602001516fffffffffffffffffffffffffffffffff16876fffffffffffffffffffffffffffffffff166140b190919063ffffffff16565b925082505b84846040019073ffffffffffffffffffffffffffffffffffffffff16908173ffffffffffffffffffffffffffffffffffffffff16815260200150508584602001906fffffffffffffffffffffffffffffffff1690816fffffffffffffffffffffffffffffffff1681526020015050600061374b613734600d60089054906101000a900467ffffffffffffffff1661470c63ffffffff16565b67ffffffffffffffff16614742909063ffffffff16565b90508065ffffffffffff16856060015165ffffffffffff1610156137895780856060019065ffffffffffff16908165ffffffffffff16815260200150505b84600e60005060008a67ffffffffffffffff1667ffffffffffffffff16815260200190815260200160002060005060008201518160000160006101000a8154816fffffffffffffffffffffffffffffffff02191690836fffffffffffffffffffffffffffffffff16021790555060208201518160000160106101000a8154816fffffffffffffffffffffffffffffffff02191690836fffffffffffffffffffffffffffffffff16021790555060408201518160010160006101000a81548173ffffffffffffffffffffffffffffffffffffffff021916908373ffffffffffffffffffffffffffffffffffffffff16021790555060608201518160010160146101000a81548165ffffffffffff021916908365ffffffffffff160217905550608082015181600101601a6101000a81548165ffffffffffff021916908365ffffffffffff1602179055509050506000836fffffffffffffffffffffffffffffffff16111561393757613936601360009054906101000a900473ffffffffffffffffffffffffffffffffffffffff168784866fffffffffffffffffffffffffffffffff166147d263ffffffff16565b5b601360009054906101000a900473ffffffffffffffffffffffffffffffffffffffff1673ffffffffffffffffffffffffffffffffffffffff166379cc679087866040518363ffffffff1660e01b8152600401613994929190615b44565b600060405180830381600087803b1580156139af5760006000fd5b505af11580156139c4573d600060003e3d6000fd5b505050508573ffffffffffffffffffffffffffffffffffffffff168867ffffffffffffffff167fd428196c29fb7877242c66ff296d926b10a5051d369acf8fe5eb3ea21bb6ec9889604051613a199190615fa5565b60405180910390a35050505050505b5b613a3761445663ffffffff16565b5b5050565b613a4a613adc63ffffffff16565b806007600050819090905550670de0b6b3a7640000600760005054111515613a725760006000fd5b604051613a7e90615a17565b60405180910390207f3a64504f0bc0c335e2aecb78638a257e0351a3fe0370861fd54ee4190b92093382604051613ab5919061602f565b60405180910390a25b5b50565b600d60089054906101000a900467ffffffffffffffff1681565b600060009054906101000a900473ffffffffffffffffffffffffffffffffffffffff1673ffffffffffffffffffffffffffffffffffffffff163373ffffffffffffffffffffffffffffffffffffffff16141515613b6e576040517f08c379a0000000000000000000000000000000000000000000000000000000008152600401613b6590615e2b565b60405180910390fd5b5b565b6001600060146101000a81548160ff0219169083151502179055507f7acc84e34091ae817647a4c49116f5cc07f319078ba80f8f5fde37ea7e25cbd660405160405180910390a15b565b600060009054906101000a900473ffffffffffffffffffffffffffffffffffffffff1673ffffffffffffffffffffffffffffffffffffffff166336fc02f46040518163ffffffff1660e01b815260040160206040518083038186803b158015613c245760006000fd5b505afa158015613c39573d600060003e3d6000fd5b505050506040513d601f19601f82011682018060405250810190613c5d91906156b1565b601360006101000a81548173ffffffffffffffffffffffffffffffffffffffff021916908373ffffffffffffffffffffffffffffffffffffffff160217905550600060405180610160016040528063ddf31e6760e01b7bffffffffffffffffffffffffffffffffffffffffffffffffffffffff19167bffffffffffffffffffffffffffffffffffffffffffffffffffffffff191681526020016334b1447560e01b7bffffffffffffffffffffffffffffffffffffffffffffffffffffffff19167bffffffffffffffffffffffffffffffffffffffffffffffffffffffff19168152602001638d56248a60e01b7bffffffffffffffffffffffffffffffffffffffffffffffffffffffff19167bffffffffffffffffffffffffffffffffffffffffffffffffffffffff19168152602001633a3a63df60e01b7bffffffffffffffffffffffffffffffffffffffffffffffffffffffff19167bffffffffffffffffffffffffffffffffffffffffffffffffffffffff1916815260200163887c67d960e01b7bffffffffffffffffffffffffffffffffffffffffffffffffffffffff19167bffffffffffffffffffffffffffffffffffffffffffffffffffffffff19168152602001634ae8470d60e01b7bffffffffffffffffffffffffffffffffffffffffffffffffffffffff19167bffffffffffffffffffffffffffffffffffffffffffffffffffffffff1916815260200163afea44ef60e01b7bffffffffffffffffffffffffffffffffffffffffffffffffffffffff19167bffffffffffffffffffffffffffffffffffffffffffffffffffffffff19168152602001630fb4e2b360e01b7bffffffffffffffffffffffffffffffffffffffffffffffffffffffff19167bffffffffffffffffffffffffffffffffffffffffffffffffffffffff191681526020016375d0ef5260e01b7bffffffffffffffffffffffffffffffffffffffffffffffffffffffff19167bffffffffffffffffffffffffffffffffffffffffffffffffffffffff191681526020016337ca44fc60e01b7bffffffffffffffffffffffffffffffffffffffffffffffffffffffff19167bffffffffffffffffffffffffffffffffffffffffffffffffffffffff1916815260200163c433c80a60e01b7bffffffffffffffffffffffffffffffffffffffffffffffffffffffff19167bffffffffffffffffffffffffffffffffffffffffffffffffffffffff191681526020015090506000600090505b8150600b811015614086576001600560005060008484600b8110151561401057fe5b60200201517bffffffffffffffffffffffffffffffffffffffffffffffffffffffff19167bffffffffffffffffffffffffffffffffffffffffffffffffffffffff1916815260200190815260200160002060006101000a81548160ff0219169083151502179055505b8080600101915050613fee565b50505b565b60006140a68383670de0b6b3a7640000614bfb63ffffffff16565b905080505b92915050565b60008282840391508111151515614133576040517f08c379a000000000000000000000000000000000000000000000000000000000815260040180806020018281038252600d8152602001807f7375622d756e646572666c6f770000000000000000000000000000000000000081526020015060200191505060405180910390fd5b5b92915050565b600082828401915081101515156141bc576040517f08c379a000000000000000000000000000000000000000000000000000000000815260040180806020018281038252600c8152602001807f6164642d6f766572666c6f77000000000000000000000000000000000000000081526020015060200191505060405180910390fd5b5b92915050565b60006000600f60005060008467ffffffffffffffff1667ffffffffffffffff16815260200190815260200160002060005060000160009054906101000a90046fffffffffffffffffffffffffffffffff166fffffffffffffffffffffffffffffffff1611905061422e565b919050565b60006000614245614cfc63ffffffff16565b90508067ffffffffffffffff168360010160149054906101000a900465ffffffffffff1665ffffffffffff1610806142a457508067ffffffffffffffff1683600101601a9054906101000a900465ffffffffffff1665ffffffffffff16105b9150506142ad56505b919050565b60006000600e60005060008467ffffffffffffffff1667ffffffffffffffff16815260200190815260200160002060005060000160009054906101000a90046fffffffffffffffffffffffffffffffff166fffffffffffffffffffffffffffffffff1611905061431d565b919050565b600460009054906101000a900473ffffffffffffffffffffffffffffffffffffffff1673ffffffffffffffffffffffffffffffffffffffff1663e97dcb626040518163ffffffff1660e01b8152600401600060405180830381600087803b15801561438d5760006000fd5b505af11580156143a2573d600060003e3d6000fd5b505050506002600660005054141515156143f1576040517f08c379a00000000000000000000000000000000000000000000000000000000081526004016143e890615e6a565b60405180910390fd5b600260066000508190909055505b565b600060149054906101000a900460ff16151515614453576040517f08c379a000000000000000000000000000000000000000000000000000000000815260040161444a90615ee8565b60405180910390fd5b5b565b60016006600050819090905550600460009054906101000a900473ffffffffffffffffffffffffffffffffffffffff1673ffffffffffffffffffffffffffffffffffffffff1663e9fad8ee6040518163ffffffff1660e01b8152600401600060405180830381600087803b1580156144ce5760006000fd5b505af11580156144e3573d600060003e3d6000fd5b505050505b565b600061463c600060009054906101000a900473ffffffffffffffffffffffffffffffffffffffff1673ffffffffffffffffffffffffffffffffffffffff1663d3419bf36040518163ffffffff1660e01b815260040160206040518083038186803b1580156145585760006000fd5b505afa15801561456d573d600060003e3d6000fd5b505050506040513d601f19601f820116820180604052508101906145919190615663565b73ffffffffffffffffffffffffffffffffffffffff1663cb75e31b601060189054906101000a900463ffffffff166040518263ffffffff1660e01b81526004016145db919061605a565b60206040518083038186803b1580156145f45760006000fd5b505afa158015614609573d600060003e3d6000fd5b505050506040513d601f19601f8201168201806040525081019061462d9190615742565b836146e690919063ffffffff16565b9050614643565b919050565b600060008214806146685750828283850292508281151561466557fe5b04145b15156146df576040517f08c379a000000000000000000000000000000000000000000000000000000000815260040180806020018281038252600c8152602001807f6d756c2d6f766572666c6f77000000000000000000000000000000000000000081526020015060200191505060405180910390fd5b5b92915050565b600061470183670de0b6b3a764000084614bfb63ffffffff16565b905080505b92915050565b600061473882614720614cfc63ffffffff16565b67ffffffffffffffff16614d1790919063ffffffff16565b905080505b919050565b60006601000000000000821015156147c5576040517f08c379a00000000000000000000000000000000000000000000000000000000081526004018080602001828103825260118152602001807f6d6f7265207468616e203438206269747300000000000000000000000000000081526020015060200191505060405180910390fd5b8190506147cd565b919050565b600060008573ffffffffffffffffffffffffffffffffffffffff166323b872dd60e01b868686604051602401808473ffffffffffffffffffffffffffffffffffffffff1681526020018373ffffffffffffffffffffffffffffffffffffffff1681526020018281526020019350505050604051602081830303815290604052907bffffffffffffffffffffffffffffffffffffffffffffffffffffffff19166020820180517bffffffffffffffffffffffffffffffffffffffffffffffffffffffff83818316178352505050506040518082805190602001908083835b6020831015156148d557805182525b6020820191506020810190506020830392506148af565b6001836020036101000a0380198251168184511680821785525050505050509050019150506000604051808303816000865af19150503d8060008114614937576040519150601f19603f3d011682016040523d82523d6000602084013e61493c565b606091505b509150915081801561497d575060008151148061497c575080806020019051602081101561496a5760006000fd5b81019080805190602001909291905050505b5b15156149f4576040517f08c379a00000000000000000000000000000000000000000000000000000000081526004018080602001828103825260038152602001807f535446000000000000000000000000000000000000000000000000000000000081526020015060200191505060405180910390fd5b50505b50505050565b600060149054906101000a900460ff16151515614a4f576040517f08c379a0000000000000000000000000000000000000000000000000000000008152600401614a4690615ee8565b60405180910390fd5b600060009054906101000a900473ffffffffffffffffffffffffffffffffffffffff1673ffffffffffffffffffffffffffffffffffffffff1663bf86d6906040518163ffffffff1660e01b815260040160206040518083038186803b158015614ab85760006000fd5b505afa158015614acd573d600060003e3d6000fd5b505050506040513d601f19601f82011682018060405250810190614af1919061557a565b151515614b33576040517f08c379a0000000000000000000000000000000000000000000000000000000008152600401614b2a90615cb1565b60405180910390fd5b5b565b600081614b4857600a60005054614b4f565b6009600050545b9050614b618382614db463ffffffff16565b925082508115614b9357614b838360116000505461413a90919063ffffffff16565b6011600050819090905550614bb7565b614bab8360126000505461413a90919063ffffffff16565b60126000508190909055505b60005b614bcd8285614e3d90919063ffffffff16565b90508050614be18184614e5b63ffffffff16565b808403935083505b600084111515614bba575b50505b5050565b6000600060006000198587098587029250828110838203039150506000811415614c3e57600084111515614c2f5760006000fd5b83820492508292505050614cf5565b8084111515614c4d5760006000fd5b6000848688099050828111820391508083039250600085866000031690508086049550808404935060018182600003040190508083028417935083506000600287600302189050808702600203810290508050808702600203810290508050808702600203810290508050808702600203810290508050808702600203810290508050808702600203810290508050808502955085508595505050505050614cf55650505050505b9392505050565b6000614d0f426153a9909063ffffffff16565b905080505b90565b60008267ffffffffffffffff1682840191508167ffffffffffffffff1610151515614dad576040517f08c379a000000000000000000000000000000000000000000000000000000000815260040180806020018281038252600c8152602001807f6164642d6f766572666c6f77000000000000000000000000000000000000000081526020015060200191505060405180910390fd5b5b92915050565b60006000614deb600d60009054906101000a900467ffffffffffffffff1667ffffffffffffffff168461464890919063ffffffff16565b905060008385811515614dfa57fe5b06905060006008600050548210614e115785614e15565b8186035b9050614e2a8184614e3d90919063ffffffff16565b9350505050614e37565050505b92915050565b6000818310614e4c5781614e4e565b825b9050614e55565b92915050565b6000614e82600d60189054906101000a900467ffffffffffffffff1661470c63ffffffff16565b90508067ffffffffffffffff16601060109054906101000a900467ffffffffffffffff1667ffffffffffffffff161015614ee05780601060106101000a81548167ffffffffffffffff021916908367ffffffffffffffff1602179055505b60006040518060a00160405280614efe8661543b909063ffffffff16565b6fffffffffffffffffffffffffffffffff16815260200160006fffffffffffffffffffffffffffffffff168152602001600073ffffffffffffffffffffffffffffffffffffffff168152602001614f8a614f73600d60109054906101000a900467ffffffffffffffff1661470c63ffffffff16565b67ffffffffffffffff16614742909063ffffffff16565b65ffffffffffff168152602001614fb28467ffffffffffffffff16614742909063ffffffff16565b65ffffffffffff16815260200150905082156151b75780600e6000506000601060009054906101000a900467ffffffffffffffff1667ffffffffffffffff1667ffffffffffffffff16815260200190815260200160002060005060008201518160000160006101000a8154816fffffffffffffffffffffffffffffffff02191690836fffffffffffffffffffffffffffffffff16021790555060208201518160000160106101000a8154816fffffffffffffffffffffffffffffffff02191690836fffffffffffffffffffffffffffffffff16021790555060408201518160010160006101000a81548173ffffffffffffffffffffffffffffffffffffffff021916908373ffffffffffffffffffffffffffffffffffffffff16021790555060608201518160010160146101000a81548165ffffffffffff021916908365ffffffffffff160217905550608082015181600101601a6101000a81548165ffffffffffff021916908365ffffffffffff160217905550905050836010600081819054906101000a900467ffffffffffffffff168092919060010191906101000a81548167ffffffffffffffff021916908367ffffffffffffffff16021790555067ffffffffffffffff167fb706108f90fb9e0fadc5f3feaa02b4c23b9d569ad7b46408c64eb4f224eba7cd846040516151aa9190616072565b60405180910390a36153a2565b80600f6000506000601060089054906101000a900467ffffffffffffffff1667ffffffffffffffff1667ffffffffffffffff16815260200190815260200160002060005060008201518160000160006101000a8154816fffffffffffffffffffffffffffffffff02191690836fffffffffffffffffffffffffffffffff16021790555060208201518160000160106101000a8154816fffffffffffffffffffffffffffffffff02191690836fffffffffffffffffffffffffffffffff16021790555060408201518160010160006101000a81548173ffffffffffffffffffffffffffffffffffffffff021916908373ffffffffffffffffffffffffffffffffffffffff16021790555060608201518160010160146101000a81548165ffffffffffff021916908365ffffffffffff160217905550608082015181600101601a6101000a81548165ffffffffffff021916908365ffffffffffff160217905550905050836010600881819054906101000a900467ffffffffffffffff168092919060010191906101000a81548167ffffffffffffffff021916908367ffffffffffffffff16021790555067ffffffffffffffff167f4e673c0fa7786d8c4c1cba0d1678d726ef2cb772cc6abbe3cea73c1a6d9a681e846040516153999190616072565b60405180910390a35b50505b5050565b6000680100000000000000008210151561542e576040517f08c379a00000000000000000000000000000000000000000000000000000000081526004018080602001828103825260118152602001807f6d6f7265207468616e203634206269747300000000000000000000000000000081526020015060200191505060405180910390fd5b819050615436565b919050565b6000700100000000000000000000000000000000821015156154c8576040517f08c379a00000000000000000000000000000000000000000000000000000000081526004018080602001828103825260128152602001807f6d6f7265207468616e203132382062697473000000000000000000000000000081526020015060200191505060405180910390fd5b8190506154d0565b919050565b6040518060a0016040528060006fffffffffffffffffffffffffffffffff16815260200160006fffffffffffffffffffffffffffffffff168152602001600073ffffffffffffffffffffffffffffffffffffffff168152602001600065ffffffffffff168152602001600065ffffffffffff1681526020015090566160cc565b60008135905067ffffffffffffffff8116811415156155745760006000fd5b5b919050565b60006020828403121561558b578081fd5b81516155968161608e565b809150505b92915050565b6000602082840312156155b2578081fd5b81357fffffffff000000000000000000000000000000000000000000000000000000008116811415156155e3578182fd5b809150505b92915050565b6000602082840312156155ff578081fd5b815161560a816160a3565b809150505b92915050565b600060208284031215615626578081fd5b8151615631816160a3565b809150505b92915050565b60006020828403121561564d578081fd5b8135615658816160a3565b809150505b92915050565b600060208284031215615674578081fd5b815161567f816160a3565b809150505b92915050565b60006020828403121561569b578081fd5b81516156a6816160a3565b809150505b92915050565b6000602082840312156156c2578081fd5b81516156cd816160a3565b809150505b92915050565b6000602082840312156156e9578081fd5b81516156f4816160a3565b809150505b92915050565b600060208284031215615710578081fd5b815161571b816160a3565b809150505b92915050565b600060208284031215615737578081fd5b813590505b92915050565b600060208284031215615753578081fd5b815190505b92915050565b60006020828403121561576f578081fd5b813563ffffffff811681141515615784578182fd5b809150505b92915050565b6000602082840312156157a0578081fd5b6157a982615555565b90505b92915050565b60006000604083850312156157c5578081fd5b6157ce83615555565b915060208301356157de8161608e565b809150505b9250929050565b60006000604083850312156157fd578182fd5b61580683615555565b915060208301356fffffffffffffffffffffffffffffffff81168114151561582c578182fd5b809150505b9250929050565b6000815180845260208085019450808401835b8381101561586f57815115158752828701965082820191505b60018101905061584b565b505050508290505b92915050565b6000815180845260208085019450808401835b838110156158b25781518752828701965082820191505b600181019050615890565b505050508290505b92915050565b60007f6d6178426174636853697a6500000000000000000000000000000000000000008252600c820190505b919050565b60007f657874656e73696f6e50657242696400000000000000000000000000000000008252600f820190505b919050565b60007f747761704475726174696f6e00000000000000000000000000000000000000008252600c820190505b919050565b60007f6d6178446566696369744c6f7453697a6500000000000000000000000000000082526011820190505b919050565b60007f6d617841756374696f6e4475726174696f6e000000000000000000000000000082526012820190505b919050565b60007f6d6178537572706c75734c6f7453697a6500000000000000000000000000000082526011820190505b919050565b60007f6d696e41756374696f6e4475726174696f6e000000000000000000000000000082526012820190505b919050565b60007f6d696e42696444656c74610000000000000000000000000000000000000000008252600b820190505b919050565b60007f6d696e4c6f7453697a65000000000000000000000000000000000000000000008252600a820190505b919050565b60007f72657365727665734275666665724c6f776572426f756e64000000000000000082526018820190505b919050565b60007f72657365727665734275666665725570706572426f756e64000000000000000082526018820190505b919050565b600060208201905073ffffffffffffffffffffffffffffffffffffffff831682525b92915050565b600060408201905073ffffffffffffffffffffffffffffffffffffffff841682526fffffffffffffffffffffffffffffffff831660208301525b9392505050565b600060408201905073ffffffffffffffffffffffffffffffffffffffff841682528260208301525b9392505050565b600060608083018184528087518083526080925082860191506020808a01865b83811015615c165781516fffffffffffffffffffffffffffffffff8082511687528085830151168588015250604073ffffffffffffffffffffffffffffffffffffffff818301511681880152508781015165ffffffffffff8082168a8901528089840151168989015250505060a08501945082820191505b600181019050615b93565b5050868303818801525050615c2b818861587d565b925050508281036040840152615c418185615838565b9150505b949350505050565b600060208201905082151582525b92915050565b600060208201905073ffffffffffffffffffffffffffffffffffffffff831682525b92915050565b600060208201905073ffffffffffffffffffffffffffffffffffffffff831682525b92915050565b600060208252601160208301527f50726f746f636f6c2073687574646f776e00000000000000000000000000000060408301526060820190505b919050565b600060208252600b60208301527f42696420746f6f206c6f7700000000000000000000000000000000000000000060408301526060820190505b919050565b600060208252601460208301527f41756374696f6e206e6f7420636f6d706c65746500000000000000000000000060408301526060820190505b919050565b600060208252601160208301527f446964206e6f7420756e6465722062696400000000000000000000000000000060408301526060820190505b919050565b600060208252601360208301527f557365206c617465737420636f6e74726163740000000000000000000000000060408301526060820190505b919050565b600060208252600f60208301527f446964206e6f74206f757420626964000000000000000000000000000000000060408301526060820190505b919050565b600060208252600e60208301527f4e6f7420417574686f72697a656400000000000000000000000000000000000060408301526060820190505b919050565b600060208252600d60208301527f4c50205265656e7472616e63790000000000000000000000000000000000000060408301526060820190505b919050565b600060208252600c60208301527f42696420746f6f2068696768000000000000000000000000000000000000000060408301526060820190505b919050565b600060208252601360208301527f436f6e74726163742069732073746f707065640000000000000000000000000060408301526060820190505b919050565b600060208252601460208301527f4e6f2061756374696f6e7320746f20737461727400000000000000000000000060408301526060820190505b919050565b600060208252601060208301527f41756374696f6e206e6f74206c6976650000000000000000000000000000000060408301526060820190505b919050565b60006020820190506fffffffffffffffffffffffffffffffff831682525b92915050565b600060a0820190506fffffffffffffffffffffffffffffffff808816835280871660208401525073ffffffffffffffffffffffffffffffffffffffff8516604083015265ffffffffffff80851660608401528084166080840152505b9695505050505050565b60006020820190508282525b92915050565b60006040820190508382528260208301525b9392505050565b600060208201905063ffffffff831682525b92915050565b600060208201905067ffffffffffffffff831682525b92915050565b8015158114151561609f5760006000fd5b5b50565b73ffffffffffffffffffffffffffffffffffffffff8116811415156160c85760006000fd5b5b50565bfea2646970667358221220eebbcb1f6dbb3b681e8c10d1e3c1c4a451c6f85ec0beab66895fc0f877eb662f64736f6c63430007060033",
  "linkReferences": {},
  "deployedLinkReferences": {}
}